{"abi":[{"type":"constructor","inputs":[{"name":"payees_","type":"uint256[]","internalType":"uint256[]"},{"name":"shares_","type":"uint256[]","internalType":"uint256[]"},{"name":"underlyingContest_","type":"address","internalType":"contract GovernorCountingSimple"},{"name":"paysOutTarget_","type":"bool","internalType":"bool"}],"stateMutability":"payable"},{"type":"receive","stateMutability":"payable"},{"type":"function","name":"cancel","inputs":[],"outputs":[],"stateMutability":"nonpayable"},{"type":"function","name":"canceled","inputs":[],"outputs":[{"name":"","type":"bool","internalType":"bool"}],"stateMutability":"view"},{"type":"function","name":"creator","inputs":[],"outputs":[{"name":"","type":"address","internalType":"address"}],"stateMutability":"view"},{"type":"function","name":"erc20Released","inputs":[{"name":"","type":"address","internalType":"contract IERC20"},{"name":"","type":"uint256","internalType":"uint256"}],"outputs":[{"name":"","type":"uint256","internalType":"uint256"}],"stateMutability":"view"},{"type":"function","name":"erc20TotalReleased","inputs":[{"name":"","type":"address","internalType":"contract IERC20"}],"outputs":[{"name":"","type":"uint256","internalType":"uint256"}],"stateMutability":"view"},{"type":"function","name":"getAddressToPayOut","inputs":[{"name":"ranking","type":"uint256","internalType":"uint256"}],"outputs":[{"name":"","type":"address","internalType":"address"}],"stateMutability":"view"},{"type":"function","name":"getPayees","inputs":[],"outputs":[{"name":"","type":"uint256[]","internalType":"uint256[]"}],"stateMutability":"view"},{"type":"function","name":"getUnderlyingContest","inputs":[],"outputs":[{"name":"","type":"address","internalType":"contract GovernorCountingSimple"}],"stateMutability":"view"},{"type":"function","name":"payees","inputs":[{"name":"","type":"uint256","internalType":"uint256"}],"outputs":[{"name":"","type":"uint256","internalType":"uint256"}],"stateMutability":"view"},{"type":"function","name":"paysOutTarget","inputs":[],"outputs":[{"name":"","type":"bool","internalType":"bool"}],"stateMutability":"view"},{"type":"function","name":"releasable","inputs":[{"name":"token","type":"address","internalType":"contract IERC20"},{"name":"ranking","type":"uint256","internalType":"uint256"}],"outputs":[{"name":"","type":"uint256","internalType":"uint256"}],"stateMutability":"view"},{"type":"function","name":"releasable","inputs":[{"name":"ranking","type":"uint256","internalType":"uint256"}],"outputs":[{"name":"","type":"uint256","internalType":"uint256"}],"stateMutability":"view"},{"type":"function","name":"release","inputs":[{"name":"token","type":"address","internalType":"contract IERC20"},{"name":"ranking","type":"uint256","internalType":"uint256"}],"outputs":[],"stateMutability":"nonpayable"},{"type":"function","name":"release","inputs":[{"name":"ranking","type":"uint256","internalType":"uint256"}],"outputs":[],"stateMutability":"nonpayable"},{"type":"function","name":"released","inputs":[{"name":"","type":"uint256","internalType":"uint256"}],"outputs":[{"name":"","type":"uint256","internalType":"uint256"}],"stateMutability":"view"},{"type":"function","name":"runReleaseChecks","inputs":[{"name":"ranking","type":"uint256","internalType":"uint256"}],"outputs":[],"stateMutability":"view"},{"type":"function","name":"shares","inputs":[{"name":"","type":"uint256","internalType":"uint256"}],"outputs":[{"name":"","type":"uint256","internalType":"uint256"}],"stateMutability":"view"},{"type":"function","name":"totalReleased","inputs":[],"outputs":[{"name":"","type":"uint256","internalType":"uint256"}],"stateMutability":"view"},{"type":"function","name":"totalShares","inputs":[],"outputs":[{"name":"","type":"uint256","internalType":"uint256"}],"stateMutability":"view"},{"type":"function","name":"underlyingContest","inputs":[],"outputs":[{"name":"","type":"address","internalType":"contract GovernorCountingSimple"}],"stateMutability":"view"},{"type":"function","name":"version","inputs":[],"outputs":[{"name":"","type":"string","internalType":"string"}],"stateMutability":"pure"},{"type":"function","name":"withdrawRewards","inputs":[{"name":"token","type":"address","internalType":"contract IERC20"}],"outputs":[],"stateMutability":"nonpayable"},{"type":"function","name":"withdrawRewards","inputs":[],"outputs":[],"stateMutability":"nonpayable"},{"type":"event","name":"ERC20PaymentReleased","inputs":[{"name":"token","type":"address","indexed":true,"internalType":"contract IERC20"},{"name":"to","type":"address","indexed":false,"internalType":"address"},{"name":"amount","type":"uint256","indexed":false,"internalType":"uint256"}],"anonymous":false},{"type":"event","name":"ERC20RewardWithdrawn","inputs":[{"name":"token","type":"address","indexed":true,"internalType":"contract IERC20"},{"name":"by","type":"address","indexed":false,"internalType":"address"},{"name":"amount","type":"uint256","indexed":false,"internalType":"uint256"}],"anonymous":false},{"type":"event","name":"PayeeAdded","inputs":[{"name":"ranking","type":"uint256","indexed":false,"internalType":"uint256"},{"name":"shares","type":"uint256","indexed":false,"internalType":"uint256"}],"anonymous":false},{"type":"event","name":"PaymentReceived","inputs":[{"name":"from","type":"address","indexed":false,"internalType":"address"},{"name":"amount","type":"uint256","indexed":false,"internalType":"uint256"}],"anonymous":false},{"type":"event","name":"PaymentReleased","inputs":[{"name":"to","type":"address","indexed":false,"internalType":"address"},{"name":"amount","type":"uint256","indexed":false,"internalType":"uint256"}],"anonymous":false},{"type":"event","name":"RewardWithdrawn","inputs":[{"name":"by","type":"address","indexed":false,"internalType":"address"},{"name":"amount","type":"uint256","indexed":false,"internalType":"uint256"}],"anonymous":false},{"type":"error","name":"AccountAlreadyHasShares","inputs":[]},{"type":"error","name":"AccountNotDueERC20Payment","inputs":[]},{"type":"error","name":"AccountNotDueNativePayment","inputs":[]},{"type":"error","name":"CannotPayOutToZeroAddress","inputs":[]},{"type":"error","name":"CannotReleaseCanceledModule","inputs":[]},{"type":"error","name":"ContestMustBeCompleted","inputs":[]},{"type":"error","name":"MustBeCanceledToWithdraw","inputs":[]},{"type":"error","name":"MustHaveAtLeastOnePayee","inputs":[]},{"type":"error","name":"MustHaveSortingEnabled","inputs":[]},{"type":"error","name":"OnlyCreatorCanWithdraw","inputs":[]},{"type":"error","name":"PayeesSharesLengthMismatch","inputs":[]},{"type":"error","name":"PayoutRankCannotBeZero","inputs":[]},{"type":"error","name":"RankingCannotBeZero","inputs":[]},{"type":"error","name":"RankingHasNoShares","inputs":[]},{"type":"error","name":"SharesCannotBeZero","inputs":[]},{"type":"error","name":"TotalSharesCannotBeZero","inputs":[]}],"bytecode":{"object":"0x608060405260405162001d6838038062001d68833981016040819052620000269162000301565b825184511462000049576040516324e23b4160e01b815260040160405180910390fd5b83516000036200006c57604051634c87c40160e01b815260040160405180910390fd5b60005b8451811015620000d857620000c3858281518110620000925762000092620003a6565b6020026020010151858381518110620000af57620000af620003a6565b60200260200101516200014660201b60201c565b80620000cf81620003d2565b9150506200006f565b50600054600003620000fd576040516306db759b60e21b815260040160405180910390fd5b60088054600780546001600160a01b039095166001600160a01b0319958616179055911515600160a01b02929092166001600160a81b03199091161733179055506200040a9050565b81600003620001685760405163d6fbfe2560e01b815260040160405180910390fd5b806000036200018a57604051633122bc0960e21b815260040160405180910390fd5b60008281526002602052604090205415620001b857604051637b4f7fb560e01b815260040160405180910390fd5b60048054600181019091557f8a35acfbc15ff81a39ae7d344fd709f28e8600b4aa8c65c6b64bfe7fe36bd19b0182905560008281526002602052604081208290555462000207908290620003ee565b60005560408051838152602081018390527f78bc0e219b874bf2620f7316737ec16d4bda1bb7136961e4dcb5ff0dc031cee4910160405180910390a15050565b634e487b7160e01b600052604160045260246000fd5b600082601f8301126200026f57600080fd5b815160206001600160401b03808311156200028e576200028e62000247565b8260051b604051601f19603f83011681018181108482111715620002b657620002b662000247565b604052938452858101830193838101925087851115620002d557600080fd5b83870191505b84821015620002f657815183529183019190830190620002db565b979650505050505050565b600080600080608085870312156200031857600080fd5b84516001600160401b03808211156200033057600080fd5b6200033e888389016200025d565b955060208701519150808211156200035557600080fd5b5062000364878288016200025d565b604087015190945090506001600160a01b03811681146200038457600080fd5b606086015190925080151581146200039b57600080fd5b939692955090935050565b634e487b7160e01b600052603260045260246000fd5b634e487b7160e01b600052601160045260246000fd5b600060018201620003e757620003e7620003bc565b5060010190565b80820180821115620004045762000404620003bc565b92915050565b61194e806200041a6000396000f3fe6080604052600436106101445760003560e01c806354fd4d50116100b6578063c71040461161006f578063c71040461461042e578063c7b8981c1461044e578063e33b7de314610463578063e4bf01a814610479578063ea8a1af014610499578063f3f44fb7146104be57600080fd5b806354fd4d501461034457806357a858fc1461037657806363037b0c146103a3578063828ce44b146103c357806396f7ff6e146103e1578063a94d373b1461040157600080fd5b80633375bbdc116101085780633375bbdc1461026857806337bdc99b146102955780633a98ef39146102b55780633f9942ff146102cb57806342d86693146102ec5780634b9453381461030c57600080fd5b806302d05d3f146101885780630357371d146101c55780631e5b4634146101e75780632081d6311461021857806327f381131461024657600080fd5b3661018357604080513381523460208201527f6ef95f06320e7a25a04a175ca677b7052bdd97131872c2192525a629f51be770910160405180910390a1005b600080fd5b34801561019457600080fd5b506008546101a8906001600160a01b031681565b6040516001600160a01b0390911681526020015b60405180910390f35b3480156101d157600080fd5b506101e56101e0366004611269565b6104de565b005b3480156101f357600080fd5b5060085461020890600160a01b900460ff1681565b60405190151581526020016101bc565b34801561022457600080fd5b50610238610233366004611269565b6105f5565b6040519081526020016101bc565b34801561025257600080fd5b5061025b6106b7565b6040516101bc9190611295565b34801561027457600080fd5b506102386102833660046112d9565b60056020526000908152604090205481565b3480156102a157600080fd5b506101e56102b03660046112f6565b61070f565b3480156102c157600080fd5b5061023860005481565b3480156102d757600080fd5b5060085461020890600160a81b900460ff1681565b3480156102f857600080fd5b506101e56103073660046112d9565b6107f4565b34801561031857600080fd5b50610238610327366004611269565b600660209081526000928352604080842090915290825290205481565b34801561035057600080fd5b506040805180820182526003815262352e3360e81b602082015290516101bc9190611333565b34801561038257600080fd5b506102386103913660046112f6565b60026020526000908152604090205481565b3480156103af57600080fd5b506102386103be3660046112f6565b610980565b3480156103cf57600080fd5b506007546001600160a01b03166101a8565b3480156103ed57600080fd5b506101a86103fc3660046112f6565b6109a1565b34801561040d57600080fd5b5061023861041c3660046112f6565b60036020526000908152604090205481565b34801561043a57600080fd5b506101e56104493660046112f6565b610c13565b34801561045a57600080fd5b506101e5610dc3565b34801561046f57600080fd5b5061023860015481565b34801561048557600080fd5b506102386104943660046112f6565b610e7a565b3480156104a557600080fd5b506101e56008805460ff60a81b1916600160a81b179055565b3480156104ca57600080fd5b506007546101a8906001600160a01b031681565b6104e781610c13565b60006104f383836105f5565b90508060000361051657604051635fe559bd60e01b815260040160405180910390fd5b6001600160a01b0383166000908152600560205260408120805483929061053e90849061137c565b90915550506001600160a01b03831660009081526006602090815260408083208584529091528120805483019055610575836109a1565b90506001600160a01b03811661059e576040516346a3c2f960e01b815260040160405180910390fd5b604080516001600160a01b038381168252602082018590528616917f3be5b7a71e84ed12875d241991c70855ac5817d847039e17a9d895c1ceb0f18a910160405180910390a26105ef848284610eb2565b50505050565b6001600160a01b0382166000818152600560205260408082205490516370a0823160e01b8152306004820152919283926370a0823190602401602060405180830381865afa15801561064b573d6000803e3d6000fd5b505050506040513d601f19601f8201168201806040525081019061066f919061138f565b610679919061137c565b6001600160a01b03851660009081526006602090815260408083208784529091529020549091506106ad9084908390610f04565b9150505b92915050565b6060600480548060200260200160405190810160405280929190818152602001828054801561070557602002820191906000526020600020905b8154815260200190600101908083116106f1575b5050505050905090565b61071881610c13565b600061072382610e7a565b90508060000361074657604051631d1514e960e21b815260040160405180910390fd5b8060016000828254610758919061137c565b9091555050600082815260036020526040812080548301905561077a836109a1565b90506001600160a01b0381166107a3576040516346a3c2f960e01b815260040160405180910390fd5b604080516001600160a01b0383168152602081018490527fdf20fd1e76bc69d672e4814fafb2c449bba3a5369d8359adf9e05e6fde87b056910160405180910390a16107ef8183610f3e565b505050565b6008546001600160a01b0316331461081f57604051631eab0da960e01b815260040160405180910390fd5b600854600160a81b900460ff16151560011461084e57604051633871a85960e21b815260040160405180910390fd5b6008546040516370a0823160e01b81523060048201526001600160a01b03838116927f6e5fc1cbd1629d9837bd657d23cf585bbc4e9127184972606cc4c0dd406f75729291169083906370a0823190602401602060405180830381865afa1580156108bd573d6000803e3d6000fd5b505050506040513d601f19601f820116820180604052508101906108e1919061138f565b604080516001600160a01b03909316835260208301919091520160405180910390a26008546040516370a0823160e01b815230600482015261097d9183916001600160a01b03918216918316906370a0823190602401602060405180830381865afa158015610954573d6000803e3d6000fd5b505050506040513d601f19601f82011682018060405250810190610978919061138f565b610eb2565b50565b6004818154811061099057600080fd5b600091825260209091200154905081565b600754604051630b8e20fb60e31b815260048101839052600091829182916001600160a01b031690635c7107d890602401602060405180830381865afa1580156109ef573d6000803e3d6000fd5b505050506040513d601f19601f82011682018060405250810190610a13919061138f565b60075460405163245d1de360e21b8152600481018390529192506001600160a01b031690639174778c90602401602060405180830381865afa158015610a5d573d6000803e3d6000fd5b505050506040513d601f19601f82011682018060405250810190610a8191906113bd565b15610a99576008546001600160a01b03169150610c0c565b60075460405163325cc6d960e01b8152600481018390526000916001600160a01b03169063325cc6d990602401602060405180830381865afa158015610ae3573d6000803e3d6000fd5b505050506040513d601f19601f82011682018060405250810190610b07919061138f565b60075460405163d576b81d60e01b8152600481018390529192506000916001600160a01b039091169063c7f758a890829063d576b81d90602401602060405180830381865afa158015610b5e573d6000803e3d6000fd5b505050506040513d601f19601f82011682018060405250810190610b82919061138f565b6040518263ffffffff1660e01b8152600401610ba091815260200190565b600060405180830381865afa158015610bbd573d6000803e3d6000fd5b505050506040513d6000823e601f3d908101601f19168201604052610be59190810190611790565b600854909150600160a01b900460ff16610c00578051610c07565b6060810151515b935050505b5092915050565b600760009054906101000a90046001600160a01b03166001600160a01b031663366ecf5b6040518163ffffffff1660e01b8152600401602060405180830381865afa158015610c66573d6000803e3d6000fd5b505050506040513d601f19601f82011682018060405250810190610c8a919061138f565b600114610caa57604051630fcdfffd60e41b815260040160405180910390fd5b6007546040805163c19d93fb60e01b815290516004926001600160a01b03169163c19d93fb918185019160209190819003860181865afa158015610cf2573d6000803e3d6000fd5b505050506040513d601f19601f82011682018060405250810190610d16919061188f565b6004811115610d2757610d27611879565b14610d4557604051639c2d4c7960e01b815260040160405180910390fd5b80600003610d665760405163f9668e2960e01b815260040160405180910390fd5b6000818152600260205260408120549003610d9457604051632534bdfb60e11b815260040160405180910390fd5b600854600160a81b900460ff16151560010361097d5760405163e2f87cff60e01b815260040160405180910390fd5b6008546001600160a01b03163314610dee57604051631eab0da960e01b815260040160405180910390fd5b600854600160a81b900460ff161515600114610e1d57604051633871a85960e21b815260040160405180910390fd5b600854604080516001600160a01b0390921682524760208301527f1d3eee4ca001cff39eec6ec7615aacf2f2bd61791273830728ba00ccbd6e1337910160405180910390a1600854610e78906001600160a01b031647610f3e565b565b60008060015447610e8b919061137c565b9050610eab83826003600087815260200190815260200160002054610f04565b9392505050565b604080516001600160a01b038416602482015260448082018490528251808303909101815260649091019091526020810180516001600160e01b031663a9059cbb60e01b1790526107ef90849061105c565b6000805484825260026020526040822054839190610f2290866118b0565b610f2c91906118c7565b610f3691906118e9565b949350505050565b80471015610f935760405162461bcd60e51b815260206004820152601d60248201527f416464726573733a20696e73756666696369656e742062616c616e636500000060448201526064015b60405180910390fd5b6000826001600160a01b03168260405160006040518083038185875af1925050503d8060008114610fe0576040519150601f19603f3d011682016040523d82523d6000602084013e610fe5565b606091505b50509050806107ef5760405162461bcd60e51b815260206004820152603a60248201527f416464726573733a20756e61626c6520746f2073656e642076616c75652c207260448201527f6563697069656e74206d617920686176652072657665727465640000000000006064820152608401610f8a565b60006110b1826040518060400160405280602081526020017f5361666545524332303a206c6f772d6c6576656c2063616c6c206661696c6564815250856001600160a01b03166111319092919063ffffffff16565b90508051600014806110d25750808060200190518101906110d291906113bd565b6107ef5760405162461bcd60e51b815260206004820152602a60248201527f5361666545524332303a204552433230206f7065726174696f6e20646964206e6044820152691bdd081cdd58d8d9595960b21b6064820152608401610f8a565b6060610f36848460008585600080866001600160a01b0316858760405161115891906118fc565b60006040518083038185875af1925050503d8060008114611195576040519150601f19603f3d011682016040523d82523d6000602084013e61119a565b606091505b50915091506111ab878383876111b6565b979650505050505050565b6060831561122557825160000361121e576001600160a01b0385163b61121e5760405162461bcd60e51b815260206004820152601d60248201527f416464726573733a2063616c6c20746f206e6f6e2d636f6e74726163740000006044820152606401610f8a565b5081610f36565b610f36838381511561123a5781518083602001fd5b8060405162461bcd60e51b8152600401610f8a9190611333565b6001600160a01b038116811461097d57600080fd5b6000806040838503121561127c57600080fd5b823561128781611254565b946020939093013593505050565b6020808252825182820181905260009190848201906040850190845b818110156112cd578351835292840192918401916001016112b1565b50909695505050505050565b6000602082840312156112eb57600080fd5b8135610eab81611254565b60006020828403121561130857600080fd5b5035919050565b60005b8381101561132a578181015183820152602001611312565b50506000910152565b602081526000825180602084015261135281604085016020870161130f565b601f01601f19169190910160400192915050565b634e487b7160e01b600052601160045260246000fd5b808201808211156106b1576106b1611366565b6000602082840312156113a157600080fd5b5051919050565b805180151581146113b857600080fd5b919050565b6000602082840312156113cf57600080fd5b610eab826113a8565b634e487b7160e01b600052604160045260246000fd5b6040516060810167ffffffffffffffff81118282101715611411576114116113d8565b60405290565b60405160c0810167ffffffffffffffff81118282101715611411576114116113d8565b604051601f8201601f1916810167ffffffffffffffff81118282101715611463576114636113d8565b604052919050565b80516113b881611254565b600082601f83011261148757600080fd5b815167ffffffffffffffff8111156114a1576114a16113d8565b6114b4601f8201601f191660200161143a565b8181528460208386010111156114c957600080fd5b610f3682602083016020870161130f565b6000602082840312156114ec57600080fd5b6040516020810181811067ffffffffffffffff8211171561150f5761150f6113d8565b8060405250809150825161152281611254565b905292915050565b600067ffffffffffffffff821115611544576115446113d8565b5060051b60200190565b600082601f83011261155f57600080fd5b8151602061157461156f8361152a565b61143a565b82815260059290921b8401810191818101908684111561159357600080fd5b8286015b848110156115b75780516115aa81611254565b8352918301918301611597565b509695505050505050565b6000604082840312156115d457600080fd5b6040516040810167ffffffffffffffff82821081831117156115f8576115f86113d8565b81604052829350845191508082111561161057600080fd5b5061161d8582860161154e565b825250602083015160208201525092915050565b600082601f83011261164257600080fd5b8151602061165261156f8361152a565b82815260059290921b8401810191818101908684111561167157600080fd5b8286015b848110156115b75780518352918301918301611675565b60006060828403121561169e57600080fd5b6116a66113ee565b9050815167ffffffffffffffff808211156116c057600080fd5b6116cc8583860161154e565b83526020915081840151818111156116e357600080fd5b8401601f810186136116f457600080fd5b805161170261156f8261152a565b81815260059190911b8201840190848101908883111561172157600080fd5b8584015b838110156117595780518681111561173d5760008081fd5b61174b8b8983890101611476565b845250918601918601611725565b50808688015250505050604084015191508082111561177757600080fd5b5061178484828501611631565b60408301525092915050565b6000602082840312156117a257600080fd5b815167ffffffffffffffff808211156117ba57600080fd5b9083019060c082860312156117ce57600080fd5b6117d6611417565b6117df8361146b565b81526117ed602084016113a8565b602082015260408301518281111561180457600080fd5b61181087828601611476565b60408301525061182386606085016114da565b606082015260808301518281111561183a57600080fd5b611846878286016115c2565b60808301525060a08301518281111561185e57600080fd5b61186a8782860161168c565b60a08301525095945050505050565b634e487b7160e01b600052602160045260246000fd5b6000602082840312156118a157600080fd5b815160058110610eab57600080fd5b80820281158282048414176106b1576106b1611366565b6000826118e457634e487b7160e01b600052601260045260246000fd5b500490565b818103818111156106b1576106b1611366565b6000825161190e81846020870161130f565b919091019291505056fea26469706673582212207f34fda70d714477931adb66130a9700e402c6a9a4bda89c4767adbb51329c5b64736f6c63430008130033","linkReferences":{}},"methodIdentifiers":{"cancel()":"ea8a1af0","canceled()":"3f9942ff","creator()":"02d05d3f","erc20Released(address,uint256)":"4b945338","erc20TotalReleased(address)":"3375bbdc","getAddressToPayOut(uint256)":"96f7ff6e","getPayees()":"27f38113","getUnderlyingContest()":"828ce44b","payees(uint256)":"63037b0c","paysOutTarget()":"1e5b4634","releasable(address,uint256)":"2081d631","releasable(uint256)":"e4bf01a8","release(address,uint256)":"0357371d","release(uint256)":"37bdc99b","released(uint256)":"a94d373b","runReleaseChecks(uint256)":"c7104046","shares(uint256)":"57a858fc","totalReleased()":"e33b7de3","totalShares()":"3a98ef39","underlyingContest()":"f3f44fb7","version()":"54fd4d50","withdrawRewards()":"c7b8981c","withdrawRewards(address)":"42d86693"},"id":41}