{
  "_format": "hh-sol-artifact-1",
  "contractName": "Contest",
  "sourceName": "contracts/Contest.sol",
  "abi": [
    {
      "inputs": [
        {
          "internalType": "string",
          "name": "_name",
          "type": "string"
        },
        {
          "internalType": "string",
          "name": "_prompt",
          "type": "string"
        },
        {
          "internalType": "contract IVotesTimestamp",
          "name": "_token",
          "type": "address"
        },
        {
          "internalType": "contract IVotesTimestamp",
          "name": "_submissionToken",
          "type": "address"
        },
        {
          "internalType": "uint256[]",
          "name": "_constructorIntParams",
          "type": "uint256[]"
        }
      ],
      "stateMutability": "nonpayable",
      "type": "constructor"
    },
    {
      "anonymous": false,
      "inputs": [],
      "name": "ContestCanceled",
      "type": "event"
    },
    {
      "anonymous": false,
      "inputs": [
        {
          "indexed": false,
          "internalType": "uint256",
          "name": "oldContestSnapshot",
          "type": "uint256"
        },
        {
          "indexed": false,
          "internalType": "uint256",
          "name": "newContestSnapshot",
          "type": "uint256"
        }
      ],
      "name": "ContestSnapshotSet",
      "type": "event"
    },
    {
      "anonymous": false,
      "inputs": [
        {
          "indexed": false,
          "internalType": "uint256",
          "name": "oldContestStart",
          "type": "uint256"
        },
        {
          "indexed": false,
          "internalType": "uint256",
          "name": "newContestStart",
          "type": "uint256"
        }
      ],
      "name": "ContestStartSet",
      "type": "event"
    },
    {
      "anonymous": false,
      "inputs": [
        {
          "indexed": false,
          "internalType": "address",
          "name": "oldCreator",
          "type": "address"
        },
        {
          "indexed": false,
          "internalType": "address",
          "name": "newCreator",
          "type": "address"
        }
      ],
      "name": "CreatorSet",
      "type": "event"
    },
    {
      "anonymous": false,
      "inputs": [
        {
          "indexed": false,
          "internalType": "uint256",
          "name": "oldDownvotingAllowed",
          "type": "uint256"
        },
        {
          "indexed": false,
          "internalType": "uint256",
          "name": "newDownvotingAllowed",
          "type": "uint256"
        }
      ],
      "name": "DownvotingAllowedSet",
      "type": "event"
    },
    {
      "anonymous": false,
      "inputs": [
        {
          "indexed": false,
          "internalType": "uint256",
          "name": "oldMaxProposalCount",
          "type": "uint256"
        },
        {
          "indexed": false,
          "internalType": "uint256",
          "name": "newMaxProposalCount",
          "type": "uint256"
        }
      ],
      "name": "MaxProposalCountSet",
      "type": "event"
    },
    {
      "anonymous": false,
      "inputs": [
        {
          "indexed": false,
          "internalType": "uint256",
          "name": "oldNumAllowedProposalSubmissions",
          "type": "uint256"
        },
        {
          "indexed": false,
          "internalType": "uint256",
          "name": "newNumAllowedProposalSubmissions",
          "type": "uint256"
        }
      ],
      "name": "NumAllowedProposalSubmissionsSet",
      "type": "event"
    },
    {
      "anonymous": false,
      "inputs": [
        {
          "indexed": false,
          "internalType": "uint256",
          "name": "proposalId",
          "type": "uint256"
        },
        {
          "indexed": false,
          "internalType": "string",
          "name": "description",
          "type": "string"
        },
        {
          "indexed": false,
          "internalType": "address",
          "name": "proposer",
          "type": "address"
        }
      ],
      "name": "ProposalCreated",
      "type": "event"
    },
    {
      "anonymous": false,
      "inputs": [
        {
          "indexed": false,
          "internalType": "uint256",
          "name": "oldProposalThreshold",
          "type": "uint256"
        },
        {
          "indexed": false,
          "internalType": "uint256",
          "name": "newProposalThreshold",
          "type": "uint256"
        }
      ],
      "name": "ProposalThresholdSet",
      "type": "event"
    },
    {
      "anonymous": false,
      "inputs": [
        {
          "indexed": false,
          "internalType": "uint256[]",
          "name": "proposalIds",
          "type": "uint256[]"
        }
      ],
      "name": "ProposalsDeleted",
      "type": "event"
    },
    {
      "anonymous": false,
      "inputs": [
        {
          "indexed": false,
          "internalType": "uint256",
          "name": "oldSubmissionGatingByVotingToken",
          "type": "uint256"
        },
        {
          "indexed": false,
          "internalType": "uint256",
          "name": "newSubmissionGatingByVotingToken",
          "type": "uint256"
        }
      ],
      "name": "SubmissionGatingByVotingTokenSet",
      "type": "event"
    },
    {
      "anonymous": false,
      "inputs": [
        {
          "indexed": true,
          "internalType": "address",
          "name": "voter",
          "type": "address"
        },
        {
          "indexed": false,
          "internalType": "uint256",
          "name": "proposalId",
          "type": "uint256"
        },
        {
          "indexed": false,
          "internalType": "uint8",
          "name": "support",
          "type": "uint8"
        },
        {
          "indexed": false,
          "internalType": "uint256",
          "name": "numVotes",
          "type": "uint256"
        },
        {
          "indexed": false,
          "internalType": "string",
          "name": "reason",
          "type": "string"
        }
      ],
      "name": "VoteCast",
      "type": "event"
    },
    {
      "anonymous": false,
      "inputs": [
        {
          "indexed": false,
          "internalType": "uint256",
          "name": "oldVotingDelay",
          "type": "uint256"
        },
        {
          "indexed": false,
          "internalType": "uint256",
          "name": "newVotingDelay",
          "type": "uint256"
        }
      ],
      "name": "VotingDelaySet",
      "type": "event"
    },
    {
      "anonymous": false,
      "inputs": [
        {
          "indexed": false,
          "internalType": "uint256",
          "name": "oldVotingPeriod",
          "type": "uint256"
        },
        {
          "indexed": false,
          "internalType": "uint256",
          "name": "newVotingPeriod",
          "type": "uint256"
        }
      ],
      "name": "VotingPeriodSet",
      "type": "event"
    },
    {
      "inputs": [],
      "name": "BALLOT_TYPEHASH",
      "outputs": [
        {
          "internalType": "bytes32",
          "name": "",
          "type": "bytes32"
        }
      ],
      "stateMutability": "view",
      "type": "function"
    },
    {
      "inputs": [],
      "name": "COUNTING_MODE",
      "outputs": [
        {
          "internalType": "string",
          "name": "",
          "type": "string"
        }
      ],
      "stateMutability": "pure",
      "type": "function"
    },
    {
      "inputs": [],
      "name": "allProposalTotalVotes",
      "outputs": [
        {
          "internalType": "uint256[]",
          "name": "proposalIdsReturn",
          "type": "uint256[]"
        },
        {
          "components": [
            {
              "internalType": "uint256",
              "name": "forVotes",
              "type": "uint256"
            },
            {
              "internalType": "uint256",
              "name": "againstVotes",
              "type": "uint256"
            }
          ],
          "internalType": "struct GovernorCountingSimple.VoteCounts[]",
          "name": "proposalVoteCountsArrayReturn",
          "type": "tuple[]"
        }
      ],
      "stateMutability": "view",
      "type": "function"
    },
    {
      "inputs": [],
      "name": "cancel",
      "outputs": [],
      "stateMutability": "nonpayable",
      "type": "function"
    },
    {
      "inputs": [
        {
          "internalType": "uint256",
          "name": "proposalId",
          "type": "uint256"
        },
        {
          "internalType": "uint8",
          "name": "support",
          "type": "uint8"
        },
        {
          "internalType": "uint256",
          "name": "numVotes",
          "type": "uint256"
        }
      ],
      "name": "castVote",
      "outputs": [
        {
          "internalType": "uint256",
          "name": "",
          "type": "uint256"
        }
      ],
      "stateMutability": "nonpayable",
      "type": "function"
    },
    {
      "inputs": [
        {
          "internalType": "uint256",
          "name": "proposalId",
          "type": "uint256"
        },
        {
          "internalType": "uint8",
          "name": "support",
          "type": "uint8"
        },
        {
          "internalType": "uint256",
          "name": "numVotes",
          "type": "uint256"
        },
        {
          "internalType": "uint8",
          "name": "v",
          "type": "uint8"
        },
        {
          "internalType": "bytes32",
          "name": "r",
          "type": "bytes32"
        },
        {
          "internalType": "bytes32",
          "name": "s",
          "type": "bytes32"
        }
      ],
      "name": "castVoteBySig",
      "outputs": [
        {
          "internalType": "uint256",
          "name": "",
          "type": "uint256"
        }
      ],
      "stateMutability": "nonpayable",
      "type": "function"
    },
    {
      "inputs": [
        {
          "internalType": "uint256",
          "name": "proposalId",
          "type": "uint256"
        },
        {
          "internalType": "uint8",
          "name": "support",
          "type": "uint8"
        },
        {
          "internalType": "uint256",
          "name": "numVotes",
          "type": "uint256"
        },
        {
          "internalType": "string",
          "name": "reason",
          "type": "string"
        }
      ],
      "name": "castVoteWithReason",
      "outputs": [
        {
          "internalType": "uint256",
          "name": "",
          "type": "uint256"
        }
      ],
      "stateMutability": "nonpayable",
      "type": "function"
    },
    {
      "inputs": [
        {
          "internalType": "address",
          "name": "userAddress",
          "type": "address"
        }
      ],
      "name": "contestAddressTotalVotesCast",
      "outputs": [
        {
          "internalType": "uint256",
          "name": "totalVotesCast",
          "type": "uint256"
        }
      ],
      "stateMutability": "view",
      "type": "function"
    },
    {
      "inputs": [],
      "name": "contestDeadline",
      "outputs": [
        {
          "internalType": "uint256",
          "name": "",
          "type": "uint256"
        }
      ],
      "stateMutability": "view",
      "type": "function"
    },
    {
      "inputs": [],
      "name": "contestSnapshot",
      "outputs": [
        {
          "internalType": "uint256",
          "name": "",
          "type": "uint256"
        }
      ],
      "stateMutability": "view",
      "type": "function"
    },
    {
      "inputs": [],
      "name": "contestStart",
      "outputs": [
        {
          "internalType": "uint256",
          "name": "",
          "type": "uint256"
        }
      ],
      "stateMutability": "view",
      "type": "function"
    },
    {
      "inputs": [],
      "name": "creator",
      "outputs": [
        {
          "internalType": "address",
          "name": "",
          "type": "address"
        }
      ],
      "stateMutability": "view",
      "type": "function"
    },
    {
      "inputs": [
        {
          "internalType": "uint256[]",
          "name": "proposalIds",
          "type": "uint256[]"
        }
      ],
      "name": "deleteProposals",
      "outputs": [],
      "stateMutability": "nonpayable",
      "type": "function"
    },
    {
      "inputs": [],
      "name": "downvotingAllowed",
      "outputs": [
        {
          "internalType": "uint256",
          "name": "",
          "type": "uint256"
        }
      ],
      "stateMutability": "view",
      "type": "function"
    },
    {
      "inputs": [],
      "name": "getAllProposalIds",
      "outputs": [
        {
          "internalType": "uint256[]",
          "name": "",
          "type": "uint256[]"
        }
      ],
      "stateMutability": "view",
      "type": "function"
    },
    {
      "inputs": [
        {
          "internalType": "address",
          "name": "account",
          "type": "address"
        }
      ],
      "name": "getCurrentSubmissionTokenVotes",
      "outputs": [
        {
          "internalType": "uint256",
          "name": "",
          "type": "uint256"
        }
      ],
      "stateMutability": "view",
      "type": "function"
    },
    {
      "inputs": [
        {
          "internalType": "address",
          "name": "account",
          "type": "address"
        }
      ],
      "name": "getCurrentVotes",
      "outputs": [
        {
          "internalType": "uint256",
          "name": "",
          "type": "uint256"
        }
      ],
      "stateMutability": "view",
      "type": "function"
    },
    {
      "inputs": [
        {
          "internalType": "address",
          "name": "account",
          "type": "address"
        }
      ],
      "name": "getNumSubmissions",
      "outputs": [
        {
          "internalType": "uint256",
          "name": "",
          "type": "uint256"
        }
      ],
      "stateMutability": "view",
      "type": "function"
    },
    {
      "inputs": [
        {
          "internalType": "uint256",
          "name": "proposalId",
          "type": "uint256"
        }
      ],
      "name": "getProposal",
      "outputs": [
        {
          "components": [
            {
              "internalType": "address",
              "name": "author",
              "type": "address"
            },
            {
              "internalType": "string",
              "name": "description",
              "type": "string"
            },
            {
              "internalType": "bool",
              "name": "exists",
              "type": "bool"
            }
          ],
          "internalType": "struct Governor.ProposalCore",
          "name": "",
          "type": "tuple"
        }
      ],
      "stateMutability": "view",
      "type": "function"
    },
    {
      "inputs": [
        {
          "internalType": "address",
          "name": "account",
          "type": "address"
        },
        {
          "internalType": "uint256",
          "name": "timestamp",
          "type": "uint256"
        }
      ],
      "name": "getVotes",
      "outputs": [
        {
          "internalType": "uint256",
          "name": "",
          "type": "uint256"
        }
      ],
      "stateMutability": "view",
      "type": "function"
    },
    {
      "inputs": [
        {
          "internalType": "string",
          "name": "proposalDescription",
          "type": "string"
        }
      ],
      "name": "hashProposal",
      "outputs": [
        {
          "internalType": "uint256",
          "name": "",
          "type": "uint256"
        }
      ],
      "stateMutability": "pure",
      "type": "function"
    },
    {
      "inputs": [],
      "name": "maxProposalCount",
      "outputs": [
        {
          "internalType": "uint256",
          "name": "",
          "type": "uint256"
        }
      ],
      "stateMutability": "view",
      "type": "function"
    },
    {
      "inputs": [],
      "name": "name",
      "outputs": [
        {
          "internalType": "string",
          "name": "",
          "type": "string"
        }
      ],
      "stateMutability": "view",
      "type": "function"
    },
    {
      "inputs": [],
      "name": "numAllowedProposalSubmissions",
      "outputs": [
        {
          "internalType": "uint256",
          "name": "",
          "type": "uint256"
        }
      ],
      "stateMutability": "view",
      "type": "function"
    },
    {
      "inputs": [],
      "name": "prompt",
      "outputs": [
        {
          "internalType": "string",
          "name": "",
          "type": "string"
        }
      ],
      "stateMutability": "view",
      "type": "function"
    },
    {
      "inputs": [
        {
          "internalType": "uint256",
          "name": "proposalId",
          "type": "uint256"
        },
        {
          "internalType": "address",
          "name": "userAddress",
          "type": "address"
        }
      ],
      "name": "proposalAddressVotes",
      "outputs": [
        {
          "internalType": "uint256",
          "name": "forVotes",
          "type": "uint256"
        },
        {
          "internalType": "uint256",
          "name": "againstVotes",
          "type": "uint256"
        }
      ],
      "stateMutability": "view",
      "type": "function"
    },
    {
      "inputs": [
        {
          "internalType": "uint256",
          "name": "proposalId",
          "type": "uint256"
        }
      ],
      "name": "proposalAddressesHaveVoted",
      "outputs": [
        {
          "internalType": "address[]",
          "name": "",
          "type": "address[]"
        }
      ],
      "stateMutability": "view",
      "type": "function"
    },
    {
      "inputs": [],
      "name": "proposalThreshold",
      "outputs": [
        {
          "internalType": "uint256",
          "name": "",
          "type": "uint256"
        }
      ],
      "stateMutability": "view",
      "type": "function"
    },
    {
      "inputs": [
        {
          "internalType": "uint256",
          "name": "proposalId",
          "type": "uint256"
        }
      ],
      "name": "proposalVotes",
      "outputs": [
        {
          "internalType": "uint256",
          "name": "forVotes",
          "type": "uint256"
        },
        {
          "internalType": "uint256",
          "name": "againstVotes",
          "type": "uint256"
        }
      ],
      "stateMutability": "view",
      "type": "function"
    },
    {
      "inputs": [
        {
          "internalType": "string",
          "name": "proposalDescription",
          "type": "string"
        }
      ],
      "name": "propose",
      "outputs": [
        {
          "internalType": "uint256",
          "name": "",
          "type": "uint256"
        }
      ],
      "stateMutability": "nonpayable",
      "type": "function"
    },
    {
      "inputs": [],
      "name": "state",
      "outputs": [
        {
          "internalType": "enum IGovernor.ContestState",
          "name": "",
          "type": "uint8"
        }
      ],
      "stateMutability": "view",
      "type": "function"
    },
    {
      "inputs": [],
      "name": "submissionGatingByVotingToken",
      "outputs": [
        {
          "internalType": "uint256",
          "name": "",
          "type": "uint256"
        }
      ],
      "stateMutability": "view",
      "type": "function"
    },
    {
      "inputs": [],
      "name": "submissionToken",
      "outputs": [
        {
          "internalType": "contract IVotesTimestamp",
          "name": "",
          "type": "address"
        }
      ],
      "stateMutability": "view",
      "type": "function"
    },
    {
      "inputs": [
        {
          "internalType": "bytes4",
          "name": "interfaceId",
          "type": "bytes4"
        }
      ],
      "name": "supportsInterface",
      "outputs": [
        {
          "internalType": "bool",
          "name": "",
          "type": "bool"
        }
      ],
      "stateMutability": "view",
      "type": "function"
    },
    {
      "inputs": [],
      "name": "token",
      "outputs": [
        {
          "internalType": "contract IVotesTimestamp",
          "name": "",
          "type": "address"
        }
      ],
      "stateMutability": "view",
      "type": "function"
    },
    {
      "inputs": [],
      "name": "version",
      "outputs": [
        {
          "internalType": "string",
          "name": "",
          "type": "string"
        }
      ],
      "stateMutability": "view",
      "type": "function"
    },
    {
      "inputs": [],
      "name": "voteStart",
      "outputs": [
        {
          "internalType": "uint256",
          "name": "",
          "type": "uint256"
        }
      ],
      "stateMutability": "view",
      "type": "function"
    },
    {
      "inputs": [],
      "name": "votingDelay",
      "outputs": [
        {
          "internalType": "uint256",
          "name": "",
          "type": "uint256"
        }
      ],
      "stateMutability": "view",
      "type": "function"
    },
    {
      "inputs": [],
      "name": "votingPeriod",
      "outputs": [
        {
          "internalType": "uint256",
          "name": "",
          "type": "uint256"
        }
      ],
      "stateMutability": "view",
      "type": "function"
    },
    {
      "stateMutability": "payable",
      "type": "receive"
    }
  ],
  "bytecode": "0x6101806040523480156200001257600080fd5b50604051620031ac380380620031ac8339810160408190526200003591620007b4565b8282826000815181106200005957634e487b7160e01b600052603260045260246000fd5b6020026020010151836001815181106200008357634e487b7160e01b600052603260045260246000fd5b602002602001015184600281518110620000ad57634e487b7160e01b600052603260045260246000fd5b602002602001015185600381518110620000d757634e487b7160e01b600052603260045260246000fd5b6020026020010151866004815181106200010157634e487b7160e01b600052603260045260246000fd5b6020026020010151876005815181106200012b57634e487b7160e01b600052603260045260246000fd5b6020026020010151886006815181106200015557634e487b7160e01b600052603260045260246000fd5b6020026020010151896007815181106200017f57634e487b7160e01b600052603260045260246000fd5b60200260200101518a600881518110620001a957634e487b7160e01b600052603260045260246000fd5b60200260200101518f8f81620001c46200032e60201b60201c565b815160208084019190912082518383012060e08290526101008190524660a0818152604080517f8b73c3c69bb8fe3d512ecc4cf759cc79239f7b179b0ffacaa9a75d522b39400f81880181905281830187905260608201869052608082019490945230818401528151808203909301835260c00190528051940193909320919290916080523060601b60c05261012052505083516200026d925060019150602085019062000660565b5080516200028390600290602084019062000660565b50505062000297896200034960201b60201c565b620002a2886200038a565b620002ad87620003cb565b620002b88662000471565b620002c385620004b2565b620002ce84620004f3565b620002d98362000534565b620002e48262000575565b620002ef81620005b6565b620002fa33620005f7565b5050506001600160601b0319606098891b8116610140529690971b90951661016052506200095d9950505050505050505050565b6040805180820190915260018152603160f81b602082015290565b60065460408051918252602082018390527fd299feb1d7d9345a48559601c471c3be7eea9a11f21d5e86809198f40a974db4910160405180910390a1600655565b60075460408051918252602082018390527fc565b045403dc03c2eea82b81a0465edad9e2e7fc4d97e11421c209da93d7a93910160405180910390a1600755565b60008111620004305760405162461bcd60e51b815260206004820152602760248201527f476f7665726e6f7253657474696e67733a20766f74696e6720706572696f6420604482015266746f6f206c6f7760c81b606482015260840160405180910390fd5b60085460408051918252602082018390527f7e3f7f0708a84de9203036abaa450dccc85ad5ff52f78c170f3edb55cf5e8828910160405180910390a1600855565b60095460408051918252602082018390527f70d92b9b65fcaa7708049081fd0ad601c9af76bd86d38df0337dfce3d025ec83910160405180910390a1600955565b600a5460408051918252602082018390527fccb45da8d5717e6c4544694297c4ba5cf151d455c9bb0ed4fc7a38411bc05461910160405180910390a1600a55565b600b5460408051918252602082018390527fe971b819c7fb95c72451f557226aceb5baaf4994a9d39a79bbfa0040e87500b9910160405180910390a1600b55565b600c5460408051918252602082018390527f4984ec996723330ee95979ed65a2a4b41edd914e68a187efe92596474643bdff910160405180910390a1600c55565b600d5460408051918252602082018390527f9c7b27f091caef3a83be73d89320404fa0c4a52993685ff0651672e49e6e55ab910160405180910390a1600d55565b600e5460408051918252602082018390527f5f16486d27561553b443370316cba86e966b1e5ec1691fa07c81944abf314441910160405180910390a1600e55565b600f54604080516001600160a01b03928316815291831660208301527fc30034fc2e9697980e08935bbc287db3eaa44a4aa113ef4c108b356adbf911ce910160405180910390a1600f80546001600160a01b0319166001600160a01b0392909216919091179055565b8280546200066e906200090a565b90600052602060002090601f016020900481019282620006925760008555620006dd565b82601f10620006ad57805160ff1916838001178555620006dd565b82800160010185558215620006dd579182015b82811115620006dd578251825591602001919060010190620006c0565b50620006eb929150620006ef565b5090565b5b80821115620006eb5760008155600101620006f0565b80516001600160a01b03811681146200071e57600080fd5b919050565b600082601f83011262000734578081fd5b81516001600160401b0381111562000750576200075062000947565b602062000766601f8301601f19168201620008d7565b82815285828487010111156200077a578384fd5b835b83811015620007995785810183015182820184015282016200077c565b83811115620007aa57848385840101525b5095945050505050565b600080600080600060a08688031215620007cc578081fd5b85516001600160401b0380821115620007e3578283fd5b620007f189838a0162000723565b965060209150818801518181111562000808578384fd5b620008168a828b0162000723565b965050620008276040890162000706565b9450620008376060890162000706565b93506080880151818111156200084b578384fd5b8801601f81018a136200085c578384fd5b80518281111562000871576200087162000947565b8060051b925062000884848401620008d7565b8181528481019083860185850187018e10156200089f578788fd5b8795505b83861015620008c3578051835260019590950194918601918601620008a3565b508096505050505050509295509295909350565b604051601f8201601f191681016001600160401b038111828210171562000902576200090262000947565b604052919050565b600181811c908216806200091f57607f821691505b602082108114156200094157634e487b7160e01b600052602260045260246000fd5b50919050565b634e487b7160e01b600052604160045260246000fd5b60805160a05160c05160601c60e05161010051610120516101405160601c6101605160601c6127cb620009e16000396000818161035901526117bb0152600081816107b40152818161185a015261192a01526000611ce401526000611d3301526000611d0e01526000611c6701526000611c9101526000611cbb01526127cb6000f3fe6080604052600436106102335760003560e01c80639c0281761161012e578063dd4e2ba5116100ab578063efa90d361161006f578063efa90d3614610736578063f0a7db0a14610758578063f36310b114610778578063fb9bf8d41461078d578063fc0c546a146107a257600080fd5b8063dd4e2ba514610672578063deaaa7cc146106b8578063e031535b146106ec578063ea8a1af014610701578063eb9019d41461071657600080fd5b8063b58131b0116100f2578063b58131b0146105ce578063bd65e80a146105e3578063c19d93fb14610603578063c7f758a814610625578063d17ad2d41461065257600080fd5b80639c0281761461050b578063aa98df391461052b578063aec116b61461054b578063b323580d14610581578063b4b5ea57146105ae57600080fd5b8063462a2ad8116101bc5780635f953a03116101805780635f953a031461044757806360506ff61461047d5780636e4eb810146104925780637c65d711146104e1578063832009af146104f657600080fd5b8063462a2ad81461037b57806350a5e5241461039b578063540a9190146103be578063544ffc9c146103d357806354fd4d501461041d57600080fd5b806306fdde031161020357806306fdde03146102db5780631566f60d146102fd578063262e59e91461031d5780633932abb1146103325780634367aa401461034757600080fd5b80624114a81461024157806301ffc9a71461026957806302a251a31461029957806302d05d3f146102ae57600080fd5b3661023c57005b005b600080fd5b34801561024d57600080fd5b506102566107d6565b6040519081526020015b60405180910390f35b34801561027557600080fd5b50610289610284366004612223565b6107e6565b6040519015158152602001610260565b3480156102a557600080fd5b5061025661081d565b3480156102ba57600080fd5b506102c3610828565b6040516001600160a01b039091168152602001610260565b3480156102e757600080fd5b506102f061083c565b60405161026091906125ba565b34801561030957600080fd5b50610256610318366004612367565b6108ce565b34801561032957600080fd5b50610256610922565b34801561033e57600080fd5b5061025661093e565b34801561035357600080fd5b506102c37f000000000000000000000000000000000000000000000000000000000000000081565b34801561038757600080fd5b50610256610396366004612138565b610949565b3480156103a757600080fd5b506103b0610954565b604051610260929190612532565b3480156103ca57600080fd5b50600954610256565b3480156103df57600080fd5b506104086103ee3660046122d8565b600090815260116020526040902080546001909101549091565b60408051928352602083019190915201610260565b34801561042957600080fd5b506040805180820190915260018152603160f81b60208201526102f0565b34801561045357600080fd5b50610256610462366004612138565b6001600160a01b031660009081526005602052604090205490565b34801561048957600080fd5b50610256610a85565b34801561049e57600080fd5b506104086104ad366004612308565b60008281526011602090815260408083206001600160a01b0385168452600301909152902080546001909101549250929050565b3480156104ed57600080fd5b506102f0610a90565b34801561050257600080fd5b50610256610a9f565b34801561051757600080fd5b50610256610526366004612333565b610aaa565b34801561053757600080fd5b5061025661054636600461224b565b610ad5565b34801561055757600080fd5b50610256610566366004612138565b6001600160a01b031660009081526010602052604090205490565b34801561058d57600080fd5b506105a161059c3660046122d8565b611062565b60405161026091906124d2565b3480156105ba57600080fd5b506102566105c9366004612138565b6110d4565b3480156105da57600080fd5b506102566110df565b3480156105ef57600080fd5b506102566105fe36600461224b565b6110ea565b34801561060f57600080fd5b5061061861111b565b6040516102609190612592565b34801561063157600080fd5b506106456106403660046122d8565b61116f565b60405161026091906125cd565b34801561065e57600080fd5b5061025661066d3660046123f6565b611273565b34801561067e57600080fd5b5060408051808201909152601881527f737570706f72743d627261766f2671756f72756d3d666f72000000000000000060208201526102f0565b3480156106c457600080fd5b506102567f150214d74d59b7d1e90c73fc22ef3d991dd0a76b046543d4d80ab92d2a50328f81565b3480156106f857600080fd5b50610256611309565b34801561070d57600080fd5b5061023a61131b565b34801561072257600080fd5b50610256610731366004612152565b611421565b34801561074257600080fd5b5061074b611434565b604051610260919061251f565b34801561076457600080fd5b5061023a61077336600461217b565b61148b565b34801561078457600080fd5b50610256611573565b34801561079957600080fd5b5061025661157e565b3480156107ae57600080fd5b506102c37f000000000000000000000000000000000000000000000000000000000000000081565b60006107e160065490565b905090565b60006001600160e01b031982166333d3a7df60e21b148061081757506301ffc9a760e01b6001600160e01b03198316145b92915050565b60006107e160085490565b60006107e1600f546001600160a01b031690565b60606001805461084b906126d6565b80601f0160208091040260200160405190810160405280929190818152602001828054610877906126d6565b80156108c45780601f10610899576101008083540402835291602001916108c4565b820191906000526020600020905b8154815290600101906020018083116108a757829003601f168201915b5050505050905090565b6000803390506109178782888888888080601f01602080910402602001604051908101604052809392919081815260200183838082843760009201919091525061158992505050565b979650505050505050565b600061092c61081d565b610934611309565b6107e191906126a7565b60006107e160075490565b600061081782611799565b6060806000610961611434565b90506000815167ffffffffffffffff81111561098d57634e487b7160e01b600052604160045260246000fd5b6040519080825280602002602001820160405280156109d257816020015b60408051808201909152600080825260208201528152602001906001900390816109ab5790505b50905060005b8251811015610a7b5760116000848381518110610a0557634e487b7160e01b600052603260045260246000fd5b6020026020010151815260200190815260200160002060000160405180604001604052908160008201548152602001600182015481525050828281518110610a5d57634e487b7160e01b600052603260045260246000fd5b60200260200101819052508080610a7390612711565b9150506109d8565b5090939092509050565b60006107e1600d5490565b60606002805461084b906126d6565b60006107e1600b5490565b600080339050610acc8582868660405180602001604052806000815250611589565b95945050505050565b60006002610ae161111b565b6003811115610b0057634e487b7160e01b600052602160045260246000fd5b14610b785760405162461bcd60e51b815260206004820152603e60248201527f476f7665726e6f723a20636f6e74657374206d7573742062652071756575656460448201527f20666f722070726f706f73616c7320746f206265207375626d6974746564000060648201526084015b60405180910390fd5b610b80610a9f565b3360009081526005602052604090205410610c295760405162461bcd60e51b815260206004820152605d60248201527f476f7665726e6f723a207468652073616d652063616e6e6f74207375626d697460448201527f206d6f7265207468616e20746865206e756d416c6c6f77656450726f706f736160648201527f6c5375626d697373696f6e7320666f72207468697320636f6e74657374000000608482015260a401610b6f565b610c3161157e565b60005410610ca75760405162461bcd60e51b815260206004820152603960248201527f476f7665726e6f723a20746865206d6178206e756d626572206f662070726f7060448201527f6f73616c732068617665206265656e207375626d6974746564000000000000006064820152608401610b6f565b610caf611573565b60011415610d4d57610cbf6110df565b610cc8336110d4565b1015610d485760405162461bcd60e51b815260206004820152604360248201527f476f7665726e6f72436f6d7061746962696c697479427261766f3a2070726f7060448201527f6f73657220766f7465732062656c6f772070726f706f73616c207468726573686064820152621bdb1960ea1b608482015260a401610b6f565b610e84565b610d55611573565b610e0457610d616110df565b610d6a33610949565b1015610d485760405162461bcd60e51b815260206004820152605b60248201527f476f7665726e6f72436f6d7061746962696c697479427261766f3a2070726f7060448201527f6f736572207375626d697373696f6e20676174696e6720746f6b656e20766f7460648201527f65732062656c6f772070726f706f73616c207468726573686f6c640000000000608482015260a401610b6f565b60405162461bcd60e51b815260206004820152604960248201527f7375626d697373696f6e476174696e674279566f74696e67546f6b656e206d7560448201527f73742062652073657420746f20656974686572207472756520283129206f722060648201526866616c73652028302960b81b608482015260a401610b6f565b8151610ed25760405162461bcd60e51b815260206004820152601860248201527f476f7665726e6f723a20656d7074792070726f706f73616c00000000000000006044820152606401610b6f565b6000610edd836110ea565b60008181526004602052604090206002015490915060ff1615610f545760405162461bcd60e51b815260206004820152602960248201527f476f7665726e6f723a206475706c69636174652070726f706f73616c73206e6f6044820152681d08185b1b1bddd95960ba1b6064820152608401610b6f565b60008054600180820183557f290decd9548b62a8d60345a988386fc84ba6bc95484008f6362f93160ef3e5639091018390556040805160608101825233815260208082018881528284018590528686526004825292909420815181546001600160a01b0319166001600160a01b039091161781559151805191949293610fe09390850192910190612072565b50604091820151600291909101805460ff1916911515919091179055336000908152600560205290812080546001929061101b9084906126a7565b909155507fc8c078bfee58e5822588f08b4509ed1eb5058e03f666cca84dd2d44bf5c288a8905081843360405161105493929190612613565b60405180910390a192915050565b60008181526011602090815260409182902060028101805484518185028101850190955280855260609492938301828280156110c757602002820191906000526020600020905b81546001600160a01b031681526001909101906020018083116110a9575b5050505050915050919050565b600061081782611838565b60006107e1600a5490565b6000816040516020016110fd91906125ba565b60408051601f19818403018152919052805160209091012092915050565b60035460009060ff161561112f5750600190565b6000611139611309565b905042811061114a57600291505090565b6000611154610922565b90504281106111665760009250505090565b60039250505090565b61119e604051806060016040528060006001600160a01b03168152602001606081526020016000151581525090565b60008281526004602090815260409182902082516060810190935280546001600160a01b0316835260018101805491928401916111da906126d6565b80601f0160208091040260200160405190810160405280929190818152602001828054611206906126d6565b80156112535780601f1061122857610100808354040283529160200191611253565b820191906000526020600020905b81548152906001019060200180831161123657829003601f168201915b50505091835250506002919091015460ff16151560209091015292915050565b604080517f150214d74d59b7d1e90c73fc22ef3d991dd0a76b046543d4d80ab92d2a50328f602082015290810187905260ff8616606082015260009081906112df906112d7906080016040516020818303038152906040528051906020012061188b565b8686866118d9565b90506112fd8882898960405180602001604052806000815250611589565b98975050505050505050565b600061131361093e565b6109346107d6565b611323610828565b6001600160a01b0316336001600160a01b03161461134057600080fd5b600061134a61111b565b9050600181600381111561136e57634e487b7160e01b600052602160045260246000fd5b1415801561139c5750600381600381111561139957634e487b7160e01b600052602160045260246000fd5b14155b6113e85760405162461bcd60e51b815260206004820152601c60248201527f476f7665726e6f723a20636f6e74657374206e6f7420616374697665000000006044820152606401610b6f565b6003805460ff191660011790556040517f4cd963a081760a54f571abc0f1db4dde31b4a07d8d6da3e844b8c6f47eeaaa4290600090a150565b600061142d8383611901565b9392505050565b606060008054806020026020016040519081016040528092919081815260200182805480156108c457602002820191906000526020600020905b81548152602001906001019080831161146e575050505050905090565b611493610828565b6001600160a01b0316336001600160a01b0316146114b057600080fd5b60005b8151811015611538576040518060600160405280603d8152602001612759603d9139600460008484815181106114f957634e487b7160e01b600052603260045260246000fd5b602002602001015181526020019081526020016000206001019080519060200190611525929190612072565b508061153081612711565b9150506114b3565b507f75a75cf5c561892f4cc5b26c1b8e933849b42238c96dd073d080d1ae96c5141681604051611568919061251f565b60405180910390a150565b60006107e1600e5490565b60006107e1600c5490565b60008061159461111b565b60038111156115b357634e487b7160e01b600052602160045260246000fd5b1461160c5760405162461bcd60e51b815260206004820152602360248201527f476f7665726e6f723a20766f7465206e6f742063757272656e746c792061637460448201526269766560e81b6064820152608401610b6f565b600083116116825760405162461bcd60e51b815260206004820152603760248201527f476f7665726e6f72566f74696e6753696d706c653a2063616e6e6f7420766f7460448201527f6520776974682030206f7220666577657220766f7465730000000000000000006064820152608401610b6f565b60006116918661073160095490565b90506000811161173b5760405162461bcd60e51b815260206004820152606360248201527f476f7665726e6f72566f74696e6753696d706c653a20796f75206d757374206860448201527f6176652067726561746572207468616e20302064656c65676174656420766f7460648201527f65732061742074686520736e617073686f7420696e206f7264657220746f20766084820152626f746560e81b60a482015260c401610b6f565b61174887878787856119a6565b856001600160a01b03167fb8e138887d0aa13bab447e82de9d5c1777041ecd21ca36ba824ff1e6c07ddda4888787876040516117879493929190612644565b60405180910390a29695505050505050565b6040516309ab24eb60e41b81526001600160a01b0382811660048301526000917f000000000000000000000000000000000000000000000000000000000000000090911690639ab24eb0906024015b60206040518083038186803b15801561180057600080fd5b505afa158015611814573d6000803e3d6000fd5b505050506040513d601f19601f8201168201806040525081019061081791906122f0565b6040516309ab24eb60e41b81526001600160a01b0382811660048301526000917f000000000000000000000000000000000000000000000000000000000000000090911690639ab24eb0906024016117e8565b6000610817611898611c5a565b8360405161190160f01b6020820152602281018390526042810182905260009060620160405160208183030381529060405280519060200120905092915050565b60008060006118ea87878787611d81565b915091506118f781611e6e565b5095945050505050565b604051630748d63560e31b81526001600160a01b038381166004830152602482018390526000917f000000000000000000000000000000000000000000000000000000000000000090911690633a46b1a89060440160206040518083038186803b15801561196e57600080fd5b505afa158015611982573d6000803e3d6000fd5b505050506040513d601f19601f8201168201806040525081019061142d91906122f0565b60008581526011602090815260408083206001600160a01b03881684526010909252909120546119d690836126bf565b831115611a415760405162461bcd60e51b815260206004820152603360248201527f476f7665726e6f72566f74696e6753696d706c653a206e6f7420656e6f756768604482015272081d9bdd195cc81b19599d081d1bc818d85cdd606a1b6064820152608401610b6f565b6001600160a01b03851660009081526003820160205260409020541560ff8516611ab357815484908390600090611a799084906126a7565b90915550506001600160a01b038616600090815260038301602052604081208054869290611aa89084906126a7565b90915550611bed9050565b60ff851660011415611b8757611ac7610a85565b600114611b3e576040805162461bcd60e51b81526020600482015260248101919091527f476f7665726e6f72566f74696e6753696d706c653a20646f776e766f74696e6760448201527f206973206e6f7420656e61626c656420666f72207468697320436f6e746573746064820152608401610b6f565b83826000016001016000828254611b5591906126a7565b90915550506001600160a01b038616600090815260038301602052604081206001018054869290611aa89084906126a7565b60405162461bcd60e51b815260206004820152603560248201527f476f7665726e6f72566f74696e6753696d706c653a20696e76616c69642076616044820152746c756520666f7220656e756d20566f74655479706560581b6064820152608401610b6f565b8015611c2457600282018054600181018255600091825260209091200180546001600160a01b0319166001600160a01b0388161790555b6001600160a01b03861660009081526010602052604081208054869290611c4c9084906126a7565b909155505050505050505050565b6000306001600160a01b037f000000000000000000000000000000000000000000000000000000000000000016148015611cb357507f000000000000000000000000000000000000000000000000000000000000000046145b15611cdd57507f000000000000000000000000000000000000000000000000000000000000000090565b50604080517f00000000000000000000000000000000000000000000000000000000000000006020808301919091527f0000000000000000000000000000000000000000000000000000000000000000828401527f000000000000000000000000000000000000000000000000000000000000000060608301524660808301523060a0808401919091528351808403909101815260c0909201909252805191012090565b6000807f7fffffffffffffffffffffffffffffff5d576e7357a4501ddfe92f46681b20a0831115611db85750600090506003611e65565b8460ff16601b14158015611dd057508460ff16601c14155b15611de15750600090506004611e65565b6040805160008082526020820180845289905260ff881692820192909252606081018690526080810185905260019060a0016020604051602081039080840390855afa158015611e35573d6000803e3d6000fd5b5050604051601f1901519150506001600160a01b038116611e5e57600060019250925050611e65565b9150600090505b94509492505050565b6000816004811115611e9057634e487b7160e01b600052602160045260246000fd5b1415611e995750565b6001816004811115611ebb57634e487b7160e01b600052602160045260246000fd5b1415611f095760405162461bcd60e51b815260206004820152601860248201527f45434453413a20696e76616c6964207369676e617475726500000000000000006044820152606401610b6f565b6002816004811115611f2b57634e487b7160e01b600052602160045260246000fd5b1415611f795760405162461bcd60e51b815260206004820152601f60248201527f45434453413a20696e76616c6964207369676e6174757265206c656e677468006044820152606401610b6f565b6003816004811115611f9b57634e487b7160e01b600052602160045260246000fd5b1415611ff45760405162461bcd60e51b815260206004820152602260248201527f45434453413a20696e76616c6964207369676e6174757265202773272076616c604482015261756560f01b6064820152608401610b6f565b600481600481111561201657634e487b7160e01b600052602160045260246000fd5b141561206f5760405162461bcd60e51b815260206004820152602260248201527f45434453413a20696e76616c6964207369676e6174757265202776272076616c604482015261756560f01b6064820152608401610b6f565b50565b82805461207e906126d6565b90600052602060002090601f0160209004810192826120a057600085556120e6565b82601f106120b957805160ff19168380011785556120e6565b828001600101855582156120e6579182015b828111156120e65782518255916020019190600101906120cb565b506120f29291506120f6565b5090565b5b808211156120f257600081556001016120f7565b80356001600160a01b038116811461212257600080fd5b919050565b803560ff8116811461212257600080fd5b600060208284031215612149578081fd5b61142d8261210b565b60008060408385031215612164578081fd5b61216d8361210b565b946020939093013593505050565b6000602080838503121561218d578182fd5b823567ffffffffffffffff808211156121a4578384fd5b818501915085601f8301126121b7578384fd5b8135818111156121c9576121c9612742565b8060051b91506121da848301612676565b8181528481019084860184860187018a10156121f4578788fd5b8795505b838610156122165780358352600195909501949186019186016121f8565b5098975050505050505050565b600060208284031215612234578081fd5b81356001600160e01b03198116811461142d578182fd5b6000602080838503121561225d578182fd5b823567ffffffffffffffff80821115612274578384fd5b818501915085601f830112612287578384fd5b81358181111561229957612299612742565b6122ab601f8201601f19168501612676565b915080825286848285010111156122c0578485fd5b80848401858401378101909201929092529392505050565b6000602082840312156122e9578081fd5b5035919050565b600060208284031215612301578081fd5b5051919050565b6000806040838503121561231a578182fd5b8235915061232a6020840161210b565b90509250929050565b600080600060608486031215612347578081fd5b8335925061235760208501612127565b9150604084013590509250925092565b60008060008060006080868803121561237e578081fd5b8535945061238e60208701612127565b935060408601359250606086013567ffffffffffffffff808211156123b1578283fd5b818801915088601f8301126123c4578283fd5b8135818111156123d2578384fd5b8960208285010111156123e3578384fd5b9699959850939650602001949392505050565b60008060008060008060c0878903121561240e578081fd5b8635955061241e60208801612127565b94506040870135935061243360608801612127565b92506080870135915060a087013590509295509295509295565b6000815180845260208085019450808401835b8381101561247c57815187529582019590820190600101612460565b509495945050505050565b60008151808452815b818110156124ac57602081850181015186830182015201612490565b818111156124bd5782602083870101525b50601f01601f19169290920160200192915050565b6020808252825182820181905260009190848201906040850190845b818110156125135783516001600160a01b0316835292840192918401916001016124ee565b50909695505050505050565b60208152600061142d602083018461244d565b600060408083526125458184018661244d565b838103602085810191909152855180835286820192820190855b818110156125845784518051845284015184840152938301939185019160010161255f565b509098975050505050505050565b60208101600483106125b457634e487b7160e01b600052602160045260246000fd5b91905290565b60208152600061142d6020830184612487565b602080825282516001600160a01b031682820152820151606060408301526000906125fb6080840182612487565b90506040840151151560608401528091505092915050565b83815260606020820152600061262c6060830185612487565b905060018060a01b0383166040830152949350505050565b84815260ff8416602082015282604082015260806060820152600061266c6080830184612487565b9695505050505050565b604051601f8201601f1916810167ffffffffffffffff8111828210171561269f5761269f612742565b604052919050565b600082198211156126ba576126ba61272c565b500190565b6000828210156126d1576126d161272c565b500390565b600181811c908216806126ea57607f821691505b6020821081141561270b57634e487b7160e01b600052602260045260246000fd5b50919050565b60006000198214156127255761272561272c565b5060010190565b634e487b7160e01b600052601160045260246000fd5b634e487b7160e01b600052604160045260246000fdfe546869732070726f706f73616c20686173206265656e2064656c65746564206279207468652063726561746f72206f662074686520636f6e746573742ea26469706673582212200cc7b8d805b0b472085f481fc987410e6620cdab5634cef1fcbd71f3e5f9be7564736f6c63430008040033",
  "linkReferences": {},
  "deployedLinkReferences": {}
}