{"abi":[{"type":"constructor","inputs":[{"name":"_constructorArgs","type":"tuple","internalType":"struct Governor.ConstructorArgs","components":[{"name":"name","type":"string","internalType":"string"},{"name":"prompt","type":"string","internalType":"string"},{"name":"intConstructorArgs","type":"tuple","internalType":"struct Governor.IntConstructorArgs","components":[{"name":"anyoneCanSubmit","type":"uint256","internalType":"uint256"},{"name":"contestStart","type":"uint256","internalType":"uint256"},{"name":"votingDelay","type":"uint256","internalType":"uint256"},{"name":"votingPeriod","type":"uint256","internalType":"uint256"},{"name":"numAllowedProposalSubmissions","type":"uint256","internalType":"uint256"},{"name":"maxProposalCount","type":"uint256","internalType":"uint256"},{"name":"sortingEnabled","type":"uint256","internalType":"uint256"},{"name":"rankLimit","type":"uint256","internalType":"uint256"},{"name":"percentageToCreator","type":"uint256","internalType":"uint256"},{"name":"costToPropose","type":"uint256","internalType":"uint256"},{"name":"costToVote","type":"uint256","internalType":"uint256"},{"name":"priceCurveType","type":"uint256","internalType":"uint256"},{"name":"multiple","type":"uint256","internalType":"uint256"}]},{"name":"creatorSplitDestination","type":"address","internalType":"address"},{"name":"jkLabsSplitDestination","type":"address","internalType":"address"},{"name":"metadataFieldsSchema","type":"string","internalType":"string"}]}],"stateMutability":"nonpayable"},{"type":"function","name":"AMOUNT_FOR_SUMBITTER_PROOF","inputs":[],"outputs":[{"name":"","type":"uint256","internalType":"uint256"}],"stateMutability":"view"},{"type":"function","name":"COST_ROUNDING_VALUE","inputs":[],"outputs":[{"name":"","type":"uint256","internalType":"uint256"}],"stateMutability":"view"},{"type":"function","name":"JK_LABS_ADDRESS","inputs":[],"outputs":[{"name":"","type":"address","internalType":"address"}],"stateMutability":"view"},{"type":"function","name":"MAX_FIELDS_METADATA_LENGTH","inputs":[],"outputs":[{"name":"","type":"uint256","internalType":"uint256"}],"stateMutability":"view"},{"type":"function","name":"METADATAS_COUNT","inputs":[],"outputs":[{"name":"","type":"uint256","internalType":"uint256"}],"stateMutability":"view"},{"type":"function","name":"PRICE_CURVE_UPDATE_INTERVAL","inputs":[],"outputs":[{"name":"","type":"uint256","internalType":"uint256"}],"stateMutability":"view"},{"type":"function","name":"SECONDS_IN_WEEK","inputs":[],"outputs":[{"name":"","type":"uint256","internalType":"uint256"}],"stateMutability":"view"},{"type":"function","name":"addressTotalCastVoteCount","inputs":[{"name":"","type":"address","internalType":"address"}],"outputs":[{"name":"","type":"uint256","internalType":"uint256"}],"stateMutability":"view"},{"type":"function","name":"addressesThatHaveVoted","inputs":[{"name":"","type":"uint256","internalType":"uint256"}],"outputs":[{"name":"","type":"address","internalType":"address"}],"stateMutability":"view"},{"type":"function","name":"allProposalTotalVotes","inputs":[],"outputs":[{"name":"proposalIdsReturn","type":"uint256[]","internalType":"uint256[]"},{"name":"proposalVoteCountsArrayReturn","type":"uint256[]","internalType":"uint256[]"}],"stateMutability":"view"},{"type":"function","name":"anyoneCanSubmit","inputs":[],"outputs":[{"name":"","type":"uint256","internalType":"uint256"}],"stateMutability":"view"},{"type":"function","name":"cancel","inputs":[],"outputs":[],"stateMutability":"nonpayable"},{"type":"function","name":"canceled","inputs":[],"outputs":[{"name":"","type":"bool","internalType":"bool"}],"stateMutability":"view"},{"type":"function","name":"castVote","inputs":[{"name":"proposalId","type":"uint256","internalType":"uint256"},{"name":"numVotes","type":"uint256","internalType":"uint256"}],"outputs":[{"name":"","type":"uint256","internalType":"uint256"}],"stateMutability":"payable"},{"type":"function","name":"comment","inputs":[{"name":"proposalId","type":"uint256","internalType":"uint256"},{"name":"commentContent","type":"string","internalType":"string"}],"outputs":[{"name":"","type":"uint256","internalType":"uint256"}],"stateMutability":"nonpayable"},{"type":"function","name":"commentIds","inputs":[{"name":"","type":"uint256","internalType":"uint256"}],"outputs":[{"name":"","type":"uint256","internalType":"uint256"}],"stateMutability":"view"},{"type":"function","name":"commentIsDeleted","inputs":[{"name":"","type":"uint256","internalType":"uint256"}],"outputs":[{"name":"","type":"bool","internalType":"bool"}],"stateMutability":"view"},{"type":"function","name":"comments","inputs":[{"name":"","type":"uint256","internalType":"uint256"}],"outputs":[{"name":"author","type":"address","internalType":"address"},{"name":"timestamp","type":"uint256","internalType":"uint256"},{"name":"proposalId","type":"uint256","internalType":"uint256"},{"name":"commentContent","type":"string","internalType":"string"}],"stateMutability":"view"},{"type":"function","name":"contestAddressTotalVotesCast","inputs":[{"name":"userAddress","type":"address","internalType":"address"}],"outputs":[{"name":"userTotalVotesCast","type":"uint256","internalType":"uint256"}],"stateMutability":"view"},{"type":"function","name":"contestDeadline","inputs":[],"outputs":[{"name":"","type":"uint256","internalType":"uint256"}],"stateMutability":"view"},{"type":"function","name":"contestStart","inputs":[],"outputs":[{"name":"","type":"uint256","internalType":"uint256"}],"stateMutability":"view"},{"type":"function","name":"costToPropose","inputs":[],"outputs":[{"name":"","type":"uint256","internalType":"uint256"}],"stateMutability":"view"},{"type":"function","name":"costToVote","inputs":[],"outputs":[{"name":"","type":"uint256","internalType":"uint256"}],"stateMutability":"view"},{"type":"function","name":"creator","inputs":[],"outputs":[{"name":"","type":"address","internalType":"address"}],"stateMutability":"view"},{"type":"function","name":"creatorSplitDestination","inputs":[],"outputs":[{"name":"","type":"address","internalType":"address"}],"stateMutability":"view"},{"type":"function","name":"currentPricePerVote","inputs":[],"outputs":[{"name":"","type":"uint256","internalType":"uint256"}],"stateMutability":"view"},{"type":"function","name":"deleteComments","inputs":[{"name":"commentIdsParam","type":"uint256[]","internalType":"uint256[]"}],"outputs":[],"stateMutability":"nonpayable"},{"type":"function","name":"deleteProposals","inputs":[{"name":"proposalIdsToDelete","type":"uint256[]","internalType":"uint256[]"}],"outputs":[],"stateMutability":"nonpayable"},{"type":"function","name":"deletedCommentIds","inputs":[{"name":"","type":"uint256","internalType":"uint256"}],"outputs":[{"name":"","type":"uint256","internalType":"uint256"}],"stateMutability":"view"},{"type":"function","name":"deletedProposalIds","inputs":[{"name":"","type":"uint256","internalType":"uint256"}],"outputs":[{"name":"","type":"uint256","internalType":"uint256"}],"stateMutability":"view"},{"type":"function","name":"getAllAddressesThatHaveVoted","inputs":[],"outputs":[{"name":"","type":"address[]","internalType":"address[]"}],"stateMutability":"view"},{"type":"function","name":"getAllAuthorsOfDeletedProposals","inputs":[],"outputs":[{"name":"","type":"address[]","internalType":"address[]"}],"stateMutability":"view"},{"type":"function","name":"getAllCommentIds","inputs":[],"outputs":[{"name":"","type":"uint256[]","internalType":"uint256[]"}],"stateMutability":"view"},{"type":"function","name":"getAllDeletedCommentIds","inputs":[],"outputs":[{"name":"","type":"uint256[]","internalType":"uint256[]"}],"stateMutability":"view"},{"type":"function","name":"getAllDeletedProposalIds","inputs":[],"outputs":[{"name":"","type":"uint256[]","internalType":"uint256[]"}],"stateMutability":"view"},{"type":"function","name":"getAllProposalAuthors","inputs":[],"outputs":[{"name":"","type":"address[]","internalType":"address[]"}],"stateMutability":"view"},{"type":"function","name":"getAllProposalIds","inputs":[],"outputs":[{"name":"","type":"uint256[]","internalType":"uint256[]"}],"stateMutability":"view"},{"type":"function","name":"getComment","inputs":[{"name":"commentId","type":"uint256","internalType":"uint256"}],"outputs":[{"name":"","type":"tuple","internalType":"struct GovernorEngagement.CommentCore","components":[{"name":"author","type":"address","internalType":"address"},{"name":"timestamp","type":"uint256","internalType":"uint256"},{"name":"proposalId","type":"uint256","internalType":"uint256"},{"name":"commentContent","type":"string","internalType":"string"}]}],"stateMutability":"view"},{"type":"function","name":"getNumProposalsWithThisManyVotes","inputs":[{"name":"votes","type":"uint256","internalType":"uint256"}],"outputs":[{"name":"count","type":"uint256","internalType":"uint256"}],"stateMutability":"view"},{"type":"function","name":"getOnlyProposalIdWithThisManyVotes","inputs":[{"name":"votes","type":"uint256","internalType":"uint256"}],"outputs":[{"name":"proposalId","type":"uint256","internalType":"uint256"}],"stateMutability":"view"},{"type":"function","name":"getProposal","inputs":[{"name":"proposalId","type":"uint256","internalType":"uint256"}],"outputs":[{"name":"","type":"tuple","internalType":"struct Governor.ProposalCore","components":[{"name":"author","type":"address","internalType":"address"},{"name":"exists","type":"bool","internalType":"bool"},{"name":"description","type":"string","internalType":"string"},{"name":"targetMetadata","type":"tuple","internalType":"struct Governor.TargetMetadata","components":[{"name":"targetAddress","type":"address","internalType":"address"}]},{"name":"safeMetadata","type":"tuple","internalType":"struct Governor.SafeMetadata","components":[{"name":"signers","type":"address[]","internalType":"address[]"},{"name":"threshold","type":"uint256","internalType":"uint256"}]},{"name":"fieldsMetadata","type":"tuple","internalType":"struct Governor.FieldsMetadata","components":[{"name":"addressArray","type":"address[]","internalType":"address[]"},{"name":"stringArray","type":"string[]","internalType":"string[]"},{"name":"uintArray","type":"uint256[]","internalType":"uint256[]"}]}]}],"stateMutability":"view"},{"type":"function","name":"getProposalComments","inputs":[{"name":"proposalId","type":"uint256","internalType":"uint256"}],"outputs":[{"name":"","type":"uint256[]","internalType":"uint256[]"}],"stateMutability":"view"},{"type":"function","name":"getProposalsWithThisManyVotes","inputs":[{"name":"votes","type":"uint256","internalType":"uint256"}],"outputs":[{"name":"proposalsWithThisManyVotes","type":"uint256[]","internalType":"uint256[]"}],"stateMutability":"view"},{"type":"function","name":"getRankIndex","inputs":[{"name":"rank","type":"uint256","internalType":"uint256"}],"outputs":[{"name":"rankIndex","type":"uint256","internalType":"uint256"}],"stateMutability":"view"},{"type":"function","name":"getSortedRanks","inputs":[],"outputs":[{"name":"sortedRanksArray","type":"uint256[]","internalType":"uint256[]"}],"stateMutability":"view"},{"type":"function","name":"hashComment","inputs":[{"name":"commentObj","type":"tuple","internalType":"struct GovernorEngagement.CommentCore","components":[{"name":"author","type":"address","internalType":"address"},{"name":"timestamp","type":"uint256","internalType":"uint256"},{"name":"proposalId","type":"uint256","internalType":"uint256"},{"name":"commentContent","type":"string","internalType":"string"}]}],"outputs":[{"name":"","type":"uint256","internalType":"uint256"}],"stateMutability":"pure"},{"type":"function","name":"hashProposal","inputs":[{"name":"proposal","type":"tuple","internalType":"struct Governor.ProposalCore","components":[{"name":"author","type":"address","internalType":"address"},{"name":"exists","type":"bool","internalType":"bool"},{"name":"description","type":"string","internalType":"string"},{"name":"targetMetadata","type":"tuple","internalType":"struct Governor.TargetMetadata","components":[{"name":"targetAddress","type":"address","internalType":"address"}]},{"name":"safeMetadata","type":"tuple","internalType":"struct Governor.SafeMetadata","components":[{"name":"signers","type":"address[]","internalType":"address[]"},{"name":"threshold","type":"uint256","internalType":"uint256"}]},{"name":"fieldsMetadata","type":"tuple","internalType":"struct Governor.FieldsMetadata","components":[{"name":"addressArray","type":"address[]","internalType":"address[]"},{"name":"stringArray","type":"string[]","internalType":"string[]"},{"name":"uintArray","type":"uint256[]","internalType":"uint256[]"}]}]}],"outputs":[{"name":"","type":"uint256","internalType":"uint256"}],"stateMutability":"pure"},{"type":"function","name":"isOrIsBelowTiedRank","inputs":[{"name":"idx","type":"uint256","internalType":"uint256"}],"outputs":[{"name":"atOrBelowTiedRank","type":"bool","internalType":"bool"}],"stateMutability":"view"},{"type":"function","name":"jkLabsSplitDestination","inputs":[],"outputs":[{"name":"","type":"address","internalType":"address"}],"stateMutability":"view"},{"type":"function","name":"maxProposalCount","inputs":[],"outputs":[{"name":"","type":"uint256","internalType":"uint256"}],"stateMutability":"view"},{"type":"function","name":"metadataFieldsSchema","inputs":[],"outputs":[{"name":"","type":"string","internalType":"string"}],"stateMutability":"view"},{"type":"function","name":"multiple","inputs":[],"outputs":[{"name":"","type":"uint256","internalType":"uint256"}],"stateMutability":"view"},{"type":"function","name":"name","inputs":[],"outputs":[{"name":"","type":"string","internalType":"string"}],"stateMutability":"view"},{"type":"function","name":"numAllowedProposalSubmissions","inputs":[],"outputs":[{"name":"","type":"uint256","internalType":"uint256"}],"stateMutability":"view"},{"type":"function","name":"numSubmissions","inputs":[{"name":"","type":"address","internalType":"address"}],"outputs":[{"name":"","type":"uint256","internalType":"uint256"}],"stateMutability":"view"},{"type":"function","name":"officialRewardsModule","inputs":[],"outputs":[{"name":"","type":"address","internalType":"address"}],"stateMutability":"view"},{"type":"function","name":"percentageToCreator","inputs":[],"outputs":[{"name":"","type":"uint256","internalType":"uint256"}],"stateMutability":"view"},{"type":"function","name":"priceCurveType","inputs":[],"outputs":[{"name":"","type":"uint256","internalType":"uint256"}],"stateMutability":"view"},{"type":"function","name":"prompt","inputs":[],"outputs":[{"name":"","type":"string","internalType":"string"}],"stateMutability":"view"},{"type":"function","name":"proposalAddressVotes","inputs":[{"name":"proposalId","type":"uint256","internalType":"uint256"},{"name":"userAddress","type":"address","internalType":"address"}],"outputs":[{"name":"voteCount","type":"uint256","internalType":"uint256"}],"stateMutability":"view"},{"type":"function","name":"proposalAddressesHaveVoted","inputs":[{"name":"proposalId","type":"uint256","internalType":"uint256"}],"outputs":[{"name":"","type":"address[]","internalType":"address[]"}],"stateMutability":"view"},{"type":"function","name":"proposalAuthors","inputs":[{"name":"","type":"uint256","internalType":"uint256"}],"outputs":[{"name":"","type":"address","internalType":"address"}],"stateMutability":"view"},{"type":"function","name":"proposalComments","inputs":[{"name":"","type":"uint256","internalType":"uint256"},{"name":"","type":"uint256","internalType":"uint256"}],"outputs":[{"name":"","type":"uint256","internalType":"uint256"}],"stateMutability":"view"},{"type":"function","name":"proposalIds","inputs":[{"name":"","type":"uint256","internalType":"uint256"}],"outputs":[{"name":"","type":"uint256","internalType":"uint256"}],"stateMutability":"view"},{"type":"function","name":"proposalIsDeleted","inputs":[{"name":"","type":"uint256","internalType":"uint256"}],"outputs":[{"name":"","type":"bool","internalType":"bool"}],"stateMutability":"view"},{"type":"function","name":"proposalVoteStructs","inputs":[{"name":"","type":"uint256","internalType":"uint256"}],"outputs":[{"name":"proposalVoteCount","type":"uint256","internalType":"uint256"}],"stateMutability":"view"},{"type":"function","name":"proposalVotes","inputs":[{"name":"proposalId","type":"uint256","internalType":"uint256"}],"outputs":[{"name":"voteCount","type":"uint256","internalType":"uint256"}],"stateMutability":"view"},{"type":"function","name":"proposals","inputs":[{"name":"","type":"uint256","internalType":"uint256"}],"outputs":[{"name":"author","type":"address","internalType":"address"},{"name":"exists","type":"bool","internalType":"bool"},{"name":"description","type":"string","internalType":"string"},{"name":"targetMetadata","type":"tuple","internalType":"struct Governor.TargetMetadata","components":[{"name":"targetAddress","type":"address","internalType":"address"}]},{"name":"safeMetadata","type":"tuple","internalType":"struct Governor.SafeMetadata","components":[{"name":"signers","type":"address[]","internalType":"address[]"},{"name":"threshold","type":"uint256","internalType":"uint256"}]},{"name":"fieldsMetadata","type":"tuple","internalType":"struct Governor.FieldsMetadata","components":[{"name":"addressArray","type":"address[]","internalType":"address[]"},{"name":"stringArray","type":"string[]","internalType":"string[]"},{"name":"uintArray","type":"uint256[]","internalType":"uint256[]"}]}],"stateMutability":"view"},{"type":"function","name":"propose","inputs":[{"name":"proposal","type":"tuple","internalType":"struct Governor.ProposalCore","components":[{"name":"author","type":"address","internalType":"address"},{"name":"exists","type":"bool","internalType":"bool"},{"name":"description","type":"string","internalType":"string"},{"name":"targetMetadata","type":"tuple","internalType":"struct Governor.TargetMetadata","components":[{"name":"targetAddress","type":"address","internalType":"address"}]},{"name":"safeMetadata","type":"tuple","internalType":"struct Governor.SafeMetadata","components":[{"name":"signers","type":"address[]","internalType":"address[]"},{"name":"threshold","type":"uint256","internalType":"uint256"}]},{"name":"fieldsMetadata","type":"tuple","internalType":"struct Governor.FieldsMetadata","components":[{"name":"addressArray","type":"address[]","internalType":"address[]"},{"name":"stringArray","type":"string[]","internalType":"string[]"},{"name":"uintArray","type":"uint256[]","internalType":"uint256[]"}]}]}],"outputs":[{"name":"","type":"uint256","internalType":"uint256"}],"stateMutability":"payable"},{"type":"function","name":"rankLimit","inputs":[],"outputs":[{"name":"","type":"uint256","internalType":"uint256"}],"stateMutability":"view"},{"type":"function","name":"setCreatorSplitDestination","inputs":[{"name":"newCreatorSplitDestination","type":"address","internalType":"address"}],"outputs":[],"stateMutability":"nonpayable"},{"type":"function","name":"setJkLabsSplitDestination","inputs":[{"name":"newJkLabsSplitDestination","type":"address","internalType":"address"}],"outputs":[],"stateMutability":"nonpayable"},{"type":"function","name":"setName","inputs":[{"name":"newName","type":"string","internalType":"string"}],"outputs":[{"name":"","type":"string","internalType":"string"}],"stateMutability":"nonpayable"},{"type":"function","name":"setOfficialRewardsModule","inputs":[{"name":"officialRewardsModule_","type":"address","internalType":"address"}],"outputs":[],"stateMutability":"nonpayable"},{"type":"function","name":"setPrompt","inputs":[{"name":"newPrompt","type":"string","internalType":"string"}],"outputs":[{"name":"","type":"string","internalType":"string"}],"stateMutability":"nonpayable"},{"type":"function","name":"sortedRanks","inputs":[{"name":"","type":"uint256","internalType":"uint256"}],"outputs":[{"name":"","type":"uint256","internalType":"uint256"}],"stateMutability":"view"},{"type":"function","name":"sortingEnabled","inputs":[],"outputs":[{"name":"","type":"uint256","internalType":"uint256"}],"stateMutability":"view"},{"type":"function","name":"state","inputs":[],"outputs":[{"name":"","type":"uint8","internalType":"enum Governor.ContestState"}],"stateMutability":"view"},{"type":"function","name":"totalVotesCast","inputs":[],"outputs":[{"name":"","type":"uint256","internalType":"uint256"}],"stateMutability":"view"},{"type":"function","name":"totalVotesCastIsZero","inputs":[],"outputs":[{"name":"totalVotesCastZero","type":"bool","internalType":"bool"}],"stateMutability":"view"},{"type":"function","name":"validateProposalData","inputs":[{"name":"proposal","type":"tuple","internalType":"struct Governor.ProposalCore","components":[{"name":"author","type":"address","internalType":"address"},{"name":"exists","type":"bool","internalType":"bool"},{"name":"description","type":"string","internalType":"string"},{"name":"targetMetadata","type":"tuple","internalType":"struct Governor.TargetMetadata","components":[{"name":"targetAddress","type":"address","internalType":"address"}]},{"name":"safeMetadata","type":"tuple","internalType":"struct Governor.SafeMetadata","components":[{"name":"signers","type":"address[]","internalType":"address[]"},{"name":"threshold","type":"uint256","internalType":"uint256"}]},{"name":"fieldsMetadata","type":"tuple","internalType":"struct Governor.FieldsMetadata","components":[{"name":"addressArray","type":"address[]","internalType":"address[]"},{"name":"stringArray","type":"string[]","internalType":"string[]"},{"name":"uintArray","type":"uint256[]","internalType":"uint256[]"}]}]}],"outputs":[],"stateMutability":"view"},{"type":"function","name":"verifyProposer","inputs":[],"outputs":[],"stateMutability":"view"},{"type":"function","name":"version","inputs":[],"outputs":[{"name":"","type":"string","internalType":"string"}],"stateMutability":"pure"},{"type":"function","name":"voteStart","inputs":[],"outputs":[{"name":"","type":"uint256","internalType":"uint256"}],"stateMutability":"view"},{"type":"function","name":"votesToProposalIds","inputs":[{"name":"","type":"uint256","internalType":"uint256"},{"name":"","type":"uint256","internalType":"uint256"}],"outputs":[{"name":"","type":"uint256","internalType":"uint256"}],"stateMutability":"view"},{"type":"function","name":"votingDelay","inputs":[],"outputs":[{"name":"","type":"uint256","internalType":"uint256"}],"stateMutability":"view"},{"type":"function","name":"votingPeriod","inputs":[],"outputs":[{"name":"","type":"uint256","internalType":"uint256"}],"stateMutability":"view"},{"type":"event","name":"CommentCreated","inputs":[{"name":"commentId","type":"uint256","indexed":false,"internalType":"uint256"}],"anonymous":false},{"type":"event","name":"CommentsDeleted","inputs":[{"name":"commentIds","type":"uint256[]","indexed":false,"internalType":"uint256[]"}],"anonymous":false},{"type":"event","name":"ContestCanceled","inputs":[],"anonymous":false},{"type":"event","name":"CreatorPaymentReleased","inputs":[{"name":"to","type":"address","indexed":false,"internalType":"address"},{"name":"amount","type":"uint256","indexed":false,"internalType":"uint256"}],"anonymous":false},{"type":"event","name":"JkLabsPaymentReleased","inputs":[{"name":"to","type":"address","indexed":false,"internalType":"address"},{"name":"amount","type":"uint256","indexed":false,"internalType":"uint256"}],"anonymous":false},{"type":"event","name":"JokeraceCreated","inputs":[{"name":"version","type":"string","indexed":false,"internalType":"string"},{"name":"name","type":"string","indexed":false,"internalType":"string"},{"name":"prompt","type":"string","indexed":false,"internalType":"string"},{"name":"creator","type":"address","indexed":false,"internalType":"address"},{"name":"contestStart","type":"uint256","indexed":false,"internalType":"uint256"},{"name":"votingDelay","type":"uint256","indexed":false,"internalType":"uint256"},{"name":"votingPeriod","type":"uint256","indexed":false,"internalType":"uint256"}],"anonymous":false},{"type":"event","name":"OfficialRewardsModuleSet","inputs":[{"name":"oldOfficialRewardsModule","type":"address","indexed":false,"internalType":"address"},{"name":"newOfficialRewardsModule","type":"address","indexed":false,"internalType":"address"}],"anonymous":false},{"type":"event","name":"ProposalCreated","inputs":[{"name":"proposalId","type":"uint256","indexed":false,"internalType":"uint256"},{"name":"proposer","type":"address","indexed":false,"internalType":"address"},{"name":"proposalDescription","type":"string","indexed":false,"internalType":"string"}],"anonymous":false},{"type":"event","name":"ProposalsDeleted","inputs":[{"name":"proposalIds","type":"uint256[]","indexed":false,"internalType":"uint256[]"}],"anonymous":false},{"type":"event","name":"VoteCast","inputs":[{"name":"voter","type":"address","indexed":true,"internalType":"address"},{"name":"proposalId","type":"uint256","indexed":false,"internalType":"uint256"},{"name":"numVotes","type":"uint256","indexed":false,"internalType":"uint256"}],"anonymous":false},{"type":"error","name":"AddressFieldMetadataArrayTooLong","inputs":[]},{"type":"error","name":"AuthorIsNotSender","inputs":[{"name":"author","type":"address","internalType":"address"},{"name":"sender","type":"address","internalType":"address"}]},{"type":"error","name":"CanOnlyCancelBeforeFirstVote","inputs":[]},{"type":"error","name":"CanOnlyDeleteWhenQueued","inputs":[]},{"type":"error","name":"CannotCommentWhenCompletedOrCanceled","inputs":[]},{"type":"error","name":"CannotDeleteWhenCompletedOrCanceled","inputs":[]},{"type":"error","name":"CannotSetWhenCompletedOrCanceled","inputs":[]},{"type":"error","name":"CannotUpdateWhenCompletedOrCanceled","inputs":[]},{"type":"error","name":"CannotVoteLessThanOneVoteInPayPerVote","inputs":[]},{"type":"error","name":"CannotVoteOnDeletedProposal","inputs":[]},{"type":"error","name":"ContestAlreadyCanceled","inputs":[]},{"type":"error","name":"ContestMustBeActiveToGetCurrentVotePrice","inputs":[{"name":"currentState","type":"uint8","internalType":"enum Governor.ContestState"}]},{"type":"error","name":"ContestMustBeActiveToVote","inputs":[{"name":"currentState","type":"uint8","internalType":"enum Governor.ContestState"}]},{"type":"error","name":"ContestMustBeQueuedToPropose","inputs":[{"name":"currentState","type":"uint8","internalType":"enum Governor.ContestState"}]},{"type":"error","name":"ContestSubmissionLimitReached","inputs":[{"name":"maxProposalCount","type":"uint256","internalType":"uint256"}]},{"type":"error","name":"DuplicateSubmission","inputs":[{"name":"proposalId","type":"uint256","internalType":"uint256"}]},{"type":"error","name":"EmptyProposalDescription","inputs":[]},{"type":"error","name":"IncorrectCostSent","inputs":[{"name":"msgValue","type":"uint256","internalType":"uint256"},{"name":"costToVote","type":"uint256","internalType":"uint256"}]},{"type":"error","name":"IndexHasNotBeenPopulated","inputs":[]},{"type":"error","name":"MoreThanOneProposalWithThisManyVotes","inputs":[]},{"type":"error","name":"NeedAtLeastOneVoteToVote","inputs":[]},{"type":"error","name":"NeedToSubmitWithProofFirst","inputs":[]},{"type":"error","name":"NeedToVoteWithProofFirst","inputs":[]},{"type":"error","name":"NotEnoughVotesLeft","inputs":[]},{"type":"error","name":"OfficialRewardsModuleMustPointToThisContest","inputs":[]},{"type":"error","name":"OnlyCreatorCanAmend","inputs":[]},{"type":"error","name":"OnlyCreatorCanSetName","inputs":[]},{"type":"error","name":"OnlyCreatorCanSetPrompt","inputs":[]},{"type":"error","name":"OnlyCreatorCanSetRewardsModule","inputs":[]},{"type":"error","name":"OnlyCreatorCanSubmit","inputs":[]},{"type":"error","name":"OnlyCreatorOrAuthorCanDeleteComments","inputs":[{"name":"failedToDeleteCommentId","type":"uint256","internalType":"uint256"}]},{"type":"error","name":"OnlyCreatorOrEntrantCanDelete","inputs":[]},{"type":"error","name":"OnlyCreatorOrJkLabsCanCancel","inputs":[]},{"type":"error","name":"OnlyJkLabsCanAmend","inputs":[]},{"type":"error","name":"PRBMath_MulDiv18_Overflow","inputs":[{"name":"x","type":"uint256","internalType":"uint256"},{"name":"y","type":"uint256","internalType":"uint256"}]},{"type":"error","name":"PRBMath_MulDiv_Overflow","inputs":[{"name":"x","type":"uint256","internalType":"uint256"},{"name":"y","type":"uint256","internalType":"uint256"},{"name":"denominator","type":"uint256","internalType":"uint256"}]},{"type":"error","name":"PRBMath_UD60x18_Exp2_InputTooBig","inputs":[{"name":"x","type":"uint256","internalType":"UD60x18"}]},{"type":"error","name":"PeriodsCannotBeMoreThanAWeek","inputs":[]},{"type":"error","name":"RankCannotBeZero","inputs":[]},{"type":"error","name":"RankIsNotInSortedRanks","inputs":[]},{"type":"error","name":"RankLimitCannotBeZero","inputs":[]},{"type":"error","name":"SenderSubmissionLimitReached","inputs":[{"name":"numAllowedProposalSubmissions","type":"uint256","internalType":"uint256"}]},{"type":"error","name":"StringFieldMetadataArrayTooLong","inputs":[]},{"type":"error","name":"UintFieldMetadataArrayTooLong","inputs":[]},{"type":"error","name":"UnexpectedMetadata","inputs":[{"name":"unexpectedMetadata","type":"uint8","internalType":"enum Governor.Metadatas"}]},{"type":"error","name":"ZeroSignersInSafeMetadata","inputs":[]},{"type":"error","name":"ZeroThresholdInSafeMetadata","inputs":[]}],"bytecode":{"object":"0x60806040523480156200001157600080fd5b5060405162005be938038062005be98339810160408190526200003491620003f9565b604081015160c081015160e0909101516000919091556001558051819060039062000060908262000588565b50602081015160049062000075908262000588565b50604081810151805160065560058054336001600160a01b031991821617909155602082015160075591810151600855606080820151600955608080830151600a5560a080840151600b55610100840151600c55610120840151600d55610140840151600e55610160840151600f5561018090930151601055908401516011805485166001600160a01b03928316179055908401516012805490941691161790915581015160139062000129908262000588565b50604080518082018252600380825262362e3160e81b602083015260055460075460085460095495517f9a9bca21e4e51607db64fbdbcd7b2284a909c6a8969821f0d161efbdcae7016096620001959695946004946001600160a01b03909116939092909190620006d9565b60405180910390a15062093a808160400151604001511180620001c2575062093a80816040015160600151115b15620001e15760405163222e847d60e21b815260040160405180910390fd5b806040015160e001516000036200020b5760405163769f473560e11b815260040160405180910390fd5b5062000767565b634e487b7160e01b600052604160045260246000fd5b6040516101a081016001600160401b03811182821017156200024e576200024e62000212565b60405290565b60405160c081016001600160401b03811182821017156200024e576200024e62000212565b60005b83811015620002965781810151838201526020016200027c565b50506000910152565b600082601f830112620002b157600080fd5b81516001600160401b0380821115620002ce57620002ce62000212565b604051601f8301601f19908116603f01168101908282118183101715620002f957620002f962000212565b816040528381528660208588010111156200031357600080fd5b6200032684602083016020890162000279565b9695505050505050565b60006101a082840312156200034457600080fd5b6200034e62000228565b9050815181526020820151602082015260408201516040820152606082015160608201526080820151608082015260a082015160a082015260c082015160c082015260e082015160e082015261010080830151818301525061012080830151818301525061014080830151818301525061016080830151818301525061018080830151818301525092915050565b80516001600160a01b0381168114620003f457600080fd5b919050565b6000602082840312156200040c57600080fd5b81516001600160401b03808211156200042457600080fd5b9083019061024082860312156200043a57600080fd5b6200044462000254565b8251828111156200045457600080fd5b62000462878286016200029f565b8252506020830151828111156200047857600080fd5b62000486878286016200029f565b6020830152506200049b866040850162000330565b6040820152620004af6101e08401620003dc565b6060820152620004c36102008401620003dc565b608082015261022083015182811115620004dc57600080fd5b620004ea878286016200029f565b60a08301525095945050505050565b600181811c908216806200050e57607f821691505b6020821081036200052f57634e487b7160e01b600052602260045260246000fd5b50919050565b601f8211156200058357600081815260208120601f850160051c810160208610156200055e5750805b601f850160051c820191505b818110156200057f578281556001016200056a565b5050505b505050565b81516001600160401b03811115620005a457620005a462000212565b620005bc81620005b58454620004f9565b8462000535565b602080601f831160018114620005f45760008415620005db5750858301515b600019600386901b1c1916600185901b1785556200057f565b600085815260208120601f198616915b82811015620006255788860151825594840194600190910190840162000604565b5085821015620006445787850151600019600388901b60f8161c191681555b5050505050600190811b01905550565b600081546200066381620004f9565b8085526020600183811680156200068357600181146200069e57620006ce565b60ff1985168884015283151560051b880183019550620006ce565b866000528260002060005b85811015620006c65781548a8201860152908301908401620006a9565b890184019650505b505050505092915050565b60e08152600088518060e0840152610100620006fc8282860160208e0162000279565b601f19601f8301168401915080848303016020850152620007208183018b62000654565b915050828103604084015262000737818962000654565b6001600160a01b039790971660608401525050608081019390935260a083019190915260c0909101529392505050565b61547280620007776000396000f3fe6080604052600436106104bf5760003560e01c8063785ddfe511610276578063ca09a4c41161014f578063edcd1be4116100c1578063f5c3641111610085578063f5c3641114610ea5578063f61736f414610ec5578063f79c017214610ee5578063f82e54c014610f15578063fb9bf8d414610f35578063fd7971c914610f4b57600080fd5b8063edcd1be414610e12578063eef18e1714610e28578063efa90d3614610e50578063f0a7db0a14610e65578063f4f3d7ec14610e8557600080fd5b8063dda54fcf11610113578063dda54fcf14610d76578063e031535b14610da3578063e088b29e14610db8578063e11db9d814610dcf578063e269cefe14610de4578063ea8a1af014610dfd57600080fd5b8063ca09a4c414610cec578063cbdc27cb14610d01578063d140d9f014610d16578063d576b81d14610d36578063d798902514610d5657600080fd5b8063ac67f801116101e8578063b4ac024f116101ac578063b4ac024f14610c10578063bc022c9814610c30578063c05f410414610c5d578063c19d93fb14610c7d578063c47f002714610c9f578063c7f758a814610cbf57600080fd5b8063ac67f80114610b55578063ae66b8ad14610b75578063aec116b614610ba5578063b323580d14610bdb578063b382543f14610bfb57600080fd5b80638ebb4c151161023a5780638ebb4c1514610a9d5780639174778c14610acd578063946369b514610aed5780639a04ede814610b025780639b338aa014610b155780639b644a2314610b3557600080fd5b8063785ddfe514610a265780637c65d71114610a465780637d74292514610a5b5780637de418d514610a71578063832009af14610a8757600080fd5b80633f9942ff116103a85780635358b80e1161031a57806360ed97a9116102de57806360ed97a9146109525780636d030621146109675780636e4eb810146109875780636ed815ad146109ce5780636fd3636b146109e457806375e509c5146109f957600080fd5b80635358b80e146108ae578063544ffc9c146108c457806354fd4d50146108f15780635c7107d81461091d5780635cb718a11461093d57600080fd5b80634a2c96ec1161036c5780634a2c96ec1461080a5780634a587ad4146108205780634d24a67f1461084057806350a5e5241461085557806350c4b6161461087857806351a41dec1461089857600080fd5b80633f9942ff146107755780633fb57c921461079f578063409fd030146107bf578063437a8ae6146107df578063476106c8146107f557600080fd5b80631242b737116104415780632c0a3f89116104055780632c0a3f89146106d85780632c39805f146106eb578063325cc6d91461070d578063347cf6651461072d578063366ecf5b146107495780633932abb11461075f57600080fd5b80631242b73714610632578063146230f61461065457806315dee7cd146106765780631805c523146106a3578063262e59e9146106c357600080fd5b806305846cae1161048857806305846cae1461058357806306fdde03146105a35780630800e300146105c55780630aa25e44146105f2578063102613d81461061257600080fd5b80624114a8146104c4578063013cf08b146104ed57806302a251a31461051f57806302d05d3f146105355780630414126a1461056d575b600080fd5b3480156104d057600080fd5b506104da60075481565b6040519081526020015b60405180910390f35b3480156104f957600080fd5b5061050d610508366004614675565b610f60565b6040516104e496959493929190614805565b34801561052b57600080fd5b506104da60095481565b34801561054157600080fd5b50600554610555906001600160a01b031681565b6040516001600160a01b0390911681526020016104e4565b34801561057957600080fd5b506104da60015481565b34801561058f57600080fd5b506104da61059e366004614675565b61124b565b3480156105af57600080fd5b506105b861126c565b6040516104e4919061485f565b3480156105d157600080fd5b506105e56105e0366004614675565b6112fa565b6040516104e49190614872565b3480156105fe57600080fd5b5061055561060d366004614675565b61140e565b34801561061e57600080fd5b50601254610555906001600160a01b031681565b34801561063e57600080fd5b50610647611438565b6040516104e491906148b3565b34801561066057600080fd5b5061067461066f3660046148eb565b611490565b005b34801561068257600080fd5b506104da610691366004614675565b601e6020526000908152604090205481565b3480156106af57600080fd5b506104da6106be366004614a07565b61153a565b3480156106cf57600080fd5b506104da6116b7565b6104da6106e6366004614a4d565b6116d3565b3480156106f757600080fd5b50610700611730565b6040516104e49190614a6f565b34801561071957600080fd5b506104da610728366004614675565b611791565b34801561073957600080fd5b506104da678ac7230489e8000081565b34801561075557600080fd5b506104da60005481565b34801561076b57600080fd5b506104da60085481565b34801561078157600080fd5b5060175461078f9060ff1681565b60405190151581526020016104e4565b3480156107ab57600080fd5b506104da6107ba366004614675565b6117a1565b3480156107cb57600080fd5b506104da6107da366004614abc565b6117b1565b3480156107eb57600080fd5b506104da60105481565b34801561080157600080fd5b506106746117e2565b34801561081657600080fd5b506104da600f5481565b34801561082c57600080fd5b50601154610555906001600160a01b031681565b34801561084c57600080fd5b506104da611820565b34801561086157600080fd5b5061086a61182f565b6040516104e4929190614b67565b34801561088457600080fd5b50610555610893366004614675565b6118fa565b3480156108a457600080fd5b506104da600e5481565b3480156108ba57600080fd5b506104da60065481565b3480156108d057600080fd5b506104da6108df366004614675565b6000908152601e602052604090205490565b3480156108fd57600080fd5b50604080518082019091526003815262362e3160e81b60208201526105b8565b34801561092957600080fd5b506104da610938366004614675565b61190a565b34801561094957600080fd5b50610647611a11565b34801561095e57600080fd5b506105b8611a67565b34801561097357600080fd5b506104da610982366004614a4d565b611a74565b34801561099357600080fd5b506104da6109a2366004614b95565b6000828152601e602090815260408083206001600160a01b038516845260020190915290205492915050565b3480156109da57600080fd5b506104da600d5481565b3480156109f057600080fd5b50610647611aa5565b348015610a0557600080fd5b506104da610a143660046148eb565b60196020526000908152604090205481565b348015610a3257600080fd5b50602054610555906001600160a01b031681565b348015610a5257600080fd5b506105b8611afb565b348015610a6757600080fd5b50601c541561078f565b348015610a7d57600080fd5b506104da601c5481565b348015610a9357600080fd5b506104da600a5481565b348015610aa957600080fd5b50610abd610ab8366004614675565b611b08565b6040516104e49493929190614bc5565b348015610ad957600080fd5b5061078f610ae8366004614675565b611bc5565b348015610af957600080fd5b50610700611c6b565b6104da610b10366004614bfc565b611ccb565b348015610b2157600080fd5b50610674610b303660046148eb565b611d14565b348015610b4157600080fd5b506104da610b50366004614675565b611dc7565b348015610b6157600080fd5b50610674610b70366004614cc4565b611dd7565b348015610b8157600080fd5b5061078f610b90366004614675565b60256020526000908152604090205460ff1681565b348015610bb157600080fd5b506104da610bc03660046148eb565b6001600160a01b03166000908152601d602052604090205490565b348015610be757600080fd5b50610700610bf6366004614675565b611f6e565b348015610c0757600080fd5b506104da600a81565b348015610c1c57600080fd5b506105b8610c2b366004614cf8565b611fe0565b348015610c3c57600080fd5b506104da610c4b366004614675565b6000908152601f602052604090205490565b348015610c6957600080fd5b50610647610c78366004614675565b61207e565b348015610c8957600080fd5b50610c926120e0565b6040516104e49190614d42565b348015610cab57600080fd5b506105b8610cba366004614cf8565b612131565b348015610ccb57600080fd5b50610cdf610cda366004614675565b6121c8565b6040516104e49190614d5c565b348015610cf857600080fd5b506104da6124e8565b348015610d0d57600080fd5b50610700612668565b348015610d2257600080fd5b50610674610d313660046150db565b612798565b348015610d4257600080fd5b506104da610d51366004614675565b61297f565b348015610d6257600080fd5b506104da610d713660046150db565b6129df565b348015610d8257600080fd5b506104da610d913660046148eb565b601d6020526000908152604090205481565b348015610daf57600080fd5b506104da6129f2565b348015610dc457600080fd5b506104da62093a8081565b348015610ddb57600080fd5b50610647612a04565b348015610df057600080fd5b506104da64e8d4a5100081565b348015610e0957600080fd5b50610674612a5a565b348015610e1e57600080fd5b506104da600c5481565b348015610e3457600080fd5b5061055573dc652c746a8f85e18ce632d97c6118e8a52fa73881565b348015610e5c57600080fd5b50610647612b27565b348015610e7157600080fd5b50610674610e8036600461510f565b612b7d565b348015610e9157600080fd5b50610674610ea03660046148eb565b612cef565b348015610eb157600080fd5b506104da610ec0366004614675565b612e02565b348015610ed157600080fd5b506104da610ee0366004614a4d565b612e12565b348015610ef157600080fd5b5061078f610f00366004614675565b60166020526000908152604090205460ff1681565b348015610f2157600080fd5b50610647610f30366004614675565b612e2e565b348015610f4157600080fd5b506104da600b5481565b348015610f5757600080fd5b506104da603c81565b601860205260009081526040902080546001820180546001600160a01b03831693600160a01b90930460ff16929190610f9890615183565b80601f0160208091040260200160405190810160405280929190818152602001828054610fc490615183565b80156110115780601f10610fe657610100808354040283529160200191611011565b820191906000526020600020905b815481529060010190602001808311610ff457829003601f168201915b5050604080516020808201835260028801546001600160a01b03168252825160038901805460609381028301840186529482018581529899939893975090955093508492849184018282801561109057602002820191906000526020600020905b81546001600160a01b03168152600190910190602001808311611072575b5050505050815260200160018201548152505090806005016040518060600160405290816000820180548060200260200160405190810160405280929190818152602001828054801561110c57602002820191906000526020600020905b81546001600160a01b031681526001909101906020018083116110ee575b5050505050815260200160018201805480602002602001604051908101604052809291908181526020016000905b828210156111e657838290600052602060002001805461115990615183565b80601f016020809104026020016040519081016040528092919081815260200182805461118590615183565b80156111d25780601f106111a7576101008083540402835291602001916111d2565b820191906000526020600020905b8154815290600101906020018083116111b557829003601f168201915b50505050508152602001906001019061113a565b5050505081526020016002820180548060200260200160405190810160405280929190818152602001828054801561123d57602002820191906000526020600020905b815481526020019060010190808311611229575b505050505081525050905086565b6015818154811061125b57600080fd5b600091825260209091200154905081565b6003805461127990615183565b80601f01602080910402602001604051908101604052809291908181526020018280546112a590615183565b80156112f25780601f106112c7576101008083540402835291602001916112f2565b820191906000526020600020905b8154815290600101906020018083116112d557829003601f168201915b505050505081565b61132e604051806080016040528060006001600160a01b031681526020016000815260200160008152602001606081525090565b600082815260236020908152604091829020825160808101845281546001600160a01b0316815260018201549281019290925260028101549282019290925260038201805491929160608401919061138590615183565b80601f01602080910402602001604051908101604052809291908181526020018280546113b190615183565b80156113fe5780601f106113d3576101008083540402835291602001916113fe565b820191906000526020600020905b8154815290600101906020018083116113e157829003601f168201915b5050505050815250509050919050565b601a818154811061141e57600080fd5b6000918252602090912001546001600160a01b0316905081565b6060601580548060200260200160405190810160405280929190818152602001828054801561148657602002820191906000526020600020905b815481526020019060010190808311611472575b5050505050905090565b6005546001600160a01b031633146114bb5760405163141dbb4960e21b815260040160405180910390fd5b60046114c56120e0565b60048111156114d6576114d6614d2c565b14806114fa575060026114e76120e0565b60048111156114f8576114f8614d2c565b145b15611518576040516398fe99a560e01b815260040160405180910390fd5b601180546001600160a01b0319166001600160a01b0392909216919091179055565b600060046115466120e0565b600481111561155757611557614d2c565b148061157b575060026115686120e0565b600481111561157957611579614d2c565b145b156115985760405162f3e73d60e81b815260040160405180910390fd5b604080516080810182523381524260208201529081018490526060810183905260006115c3826117b1565b6021805460018082019092557f3a6357012c1a3ae0a17d304c9920310382d968ebcc4b1771f41c6b304205b57001829055600082815260236020908152604091829020865181546001600160a01b0319166001600160a01b039091161781559086015192810192909255840151600282015560608401519192508391600382019061164e908261520b565b505050600085815260246020908152604080832080546001810182559084529190922001829055517f5a1a930fed43f34b3a07db782ebcac28a661c273e662bb98458cfba5a8ccd220906116a59083815260200190565b60405180910390a19150505b92915050565b60006009546116c46129f2565b6116ce91906152e0565b905090565b6000806116e1600184612e8e565b60008581526016602052604090205490915060ff1615611714576040516358f1119560e01b815260040160405180910390fd5b61171d81612f4c565b611728843385613054565b949350505050565b6060601b80548060200260200160405190810160405280929190818152602001828054801561148657602002820191906000526020600020905b81546001600160a01b0316815260019091019060200180831161176a575050505050905090565b6002818154811061125b57600080fd5b6022818154811061125b57600080fd5b6000816040516020016117c49190614872565b60408051601f19818403018152919052805160209091012092915050565b60065460011415801561180057506005546001600160a01b03163314155b1561181e57604051639a4a529360e01b815260040160405180910390fd5b565b61182c600260016152e0565b81565b606080600061183c612b27565b9050600081516001600160401b0381111561185957611859614908565b604051908082528060200260200182016040528015611882578160200160208202803683370190505b50905060005b82518110156118f057601e60008483815181106118a7576118a76152f3565b60200260200101518152602001908152602001600020600001548282815181106118d3576118d36152f3565b6020908102919091010152806118e881615309565b915050611888565b5090939092509050565b601b818154811061141e57600080fd5b60008160000361192d57604051630ec90a1760e31b815260040160405180910390fd5b6002805460408051602080840282018101909252828152919260009291849083018282801561197b57602002820191906000526020600020905b815481526020019060010190808311611967575b5050505050905060006001905060005b838110156119f7576119c28382815181106119a8576119a86152f3565b60200260200101516000908152601f602052604090205490565b156119e5578582036119d75795945050505050565b816119e181615309565b9250505b806119ef81615309565b91505061198b565b50604051632cc2ab7360e11b815260040160405180910390fd5b606060228054806020026020016040519081016040528092919081815260200182805480156114865760200282019190600052602060002090815481526020019060010190808311611472575050505050905090565b6013805461127990615183565b601f6020528160005260406000208181548110611a9057600080fd5b90600052602060002001600091509150505481565b606060028054806020026020016040519081016040528092919081815260200182805480156114865760200282019190600052602060002090815481526020019060010190808311611472575050505050905090565b6004805461127990615183565b60236020526000908152604090208054600182015460028301546003840180546001600160a01b03909416949293919291611b4290615183565b80601f0160208091040260200160405190810160405280929190818152602001828054611b6e90615183565b8015611bbb5780601f10611b9057610100808354040283529160200191611bbb565b820191906000526020600020905b815481529060010190602001808311611b9e57829003601f168201915b5050505050905084565b600254600090611bd790600190615322565b821115611bf7576040516365d6f35160e11b815260040160405180910390fd5b60005b611c058360016152e0565b811015611c62576001611c4160028381548110611c2457611c246152f3565b90600052602060002001546000908152601f602052604090205490565b1115611c505750600192915050565b80611c5a81615309565b915050611bfa565b50600092915050565b6060601a805480602002602001604051908101604052809291908181526020018280548015611486576020028201919060005260206000209081546001600160a01b0316815260019091019060200180831161176a575050505050905090565b600080611cd9600080612e8e565b9050611ce36117e2565b611cef610d3184615335565b6000611d02611cfd85615335565b613151565b9050611d0d82612f4c565b9392505050565b3373dc652c746a8f85e18ce632d97c6118e8a52fa73814611d485760405163de07280160e01b815260040160405180910390fd5b6004611d526120e0565b6004811115611d6357611d63614d2c565b1480611d8757506002611d746120e0565b6004811115611d8557611d85614d2c565b145b15611da5576040516398fe99a560e01b815260040160405180910390fd5b601280546001600160a01b0319166001600160a01b0392909216919091179055565b6014818154811061125b57600080fd5b6004611de16120e0565b6004811115611df257611df2614d2c565b1480611e1657506002611e036120e0565b6004811115611e1457611e14614d2c565b145b15611e3457604051631e71d28360e21b815260040160405180910390fd5b805160005b81811015611f32576000838281518110611e5557611e556152f3565b60209081029190910101516005549091506001600160a01b03163314801590611e9557506000818152602360205260409020546001600160a01b03163314155b15611ebb57604051635450763d60e11b8152600481018290526024015b60405180910390fd5b60008181526025602052604090205460ff16611f1f576000818152602560205260408120805460ff191660019081179091556022805491820181559091527f61035b26e3e9eee00e0d72fd1ee8ddca6894550dca6916ea2ac6baa90d11e510018190555b5080611f2a81615309565b915050611e39565b507f788a4349d25bc08585923ae212bce8bb346a623bce753eeecb85fd9ce58dcb4b82604051611f6291906148b3565b60405180910390a15050565b6000818152601e60209081526040918290206001810180548451818502810185019095528085526060949293830182828015611fd357602002820191906000526020600020905b81546001600160a01b03168152600190910190602001808311611fb5575b5050505050915050919050565b6005546060906001600160a01b0316331461200e57604051630aca3d7160e11b815260040160405180910390fd5b60046120186120e0565b600481111561202957612029614d2c565b148061204d5750600261203a6120e0565b600481111561204b5761204b614d2c565b145b1561206b57604051635b0747e760e01b815260040160405180910390fd5b6004612077838261520b565b5090919050565b6000818152602460209081526040918290208054835181840281018401909452808452606093928301828280156120d457602002820191906000526020600020905b8154815260200190600101908083116120c0575b50505050509050919050565b60175460009060ff16156120f45750600290565b42600754106121035750600090565b4261210c6129f2565b106121175750600390565b426121206116b7565b1061212b5750600190565b50600490565b6005546060906001600160a01b0316331461215f57604051637d1cb2b160e01b815260040160405180910390fd5b60046121696120e0565b600481111561217a5761217a614d2c565b148061219e5750600261218b6120e0565b600481111561219c5761219c614d2c565b145b156121bc57604051635b0747e760e01b815260040160405180910390fd5b6003612077838261520b565b6121d061447d565b600082815260186020908152604091829020825160c08101845281546001600160a01b0381168252600160a01b900460ff16151592810192909252600181018054929391929184019161222290615183565b80601f016020809104026020016040519081016040528092919081815260200182805461224e90615183565b801561229b5780601f106122705761010080835404028352916020019161229b565b820191906000526020600020905b81548152906001019060200180831161227e57829003601f168201915b5050509183525050604080516020818101835260028501546001600160a01b0316825280840191909152815160038501805460609381028301840185528285018181529490950194919390928492849184018282801561232457602002820191906000526020600020905b81546001600160a01b03168152600190910190602001808311612306575b50505050508152602001600182015481525050815260200160058201604051806060016040529081600082018054806020026020016040519081016040528092919081815260200182805480156123a457602002820191906000526020600020905b81546001600160a01b03168152600190910190602001808311612386575b5050505050815260200160018201805480602002602001604051908101604052809291908181526020016000905b8282101561247e5783829060005260206000200180546123f190615183565b80601f016020809104026020016040519081016040528092919081815260200182805461241d90615183565b801561246a5780601f1061243f5761010080835404028352916020019161246a565b820191906000526020600020905b81548152906001019060200180831161244d57829003601f168201915b5050505050815260200190600101906123d2565b505050508152602001600282018054806020026020016040519081016040528092919081815260200182805480156124d557602002820191906000526020600020905b8154815260200190600101908083116124c1575b5050509190925250505090525092915050565b600060016124f46120e0565b600481111561250557612505614d2c565b1461252c576125126120e0565b604051631827aa6760e21b8152600401611eb29190614d42565b6001600f54600181111561254257612542614d2c565b600181111561255357612553614d2c565b03612661576000603c6125646129f2565b61256f9060016152e0565b6125799042615322565b6125839190615357565b905060006125f06125dc6125a56125a285670de0b6b3a7640000615379565b90565b6125d76125c1600954670de0b6b3a76400006125a29190615379565b6125d76125a2603c670de0b6b3a7640000615379565b613428565b68056bc75e2d63100000613440565b613440565b90506000612612826125eb61260460105490565b670de0b6b3a7640000613428565b9050600061261f8261344f565b9050600061263b6125a2612635612604600e5490565b84613440565b905064e8d4a5100061264d8183615357565b6126579190615379565b9550505050505090565b50600e5490565b6060600060158054806020026020016040519081016040528092919081815260200182805480156126b857602002820191906000526020600020905b8154815260200190600101908083116126a4575b50505050509050600081516001600160401b038111156126da576126da614908565b604051908082528060200260200182016040528015612703578160200160208202803683370190505b50905060005b82518110156127915760186000848381518110612728576127286152f3565b6020026020010151815260200190815260200160002060000160009054906101000a90046001600160a01b0316828281518110612767576127676152f3565b6001600160a01b03909216602092830291909101909101528061278981615309565b915050612709565b5092915050565b80516001600160a01b031633146127d657805160405163fbbf4d7f60e01b81526001600160a01b039091166004820152336024820152604401611eb2565b60005b6127e5600260016152e0565b81101561295557600081600281111561280057612800614d2c565b9050600081600281111561281657612816614d2c565b036128215750612943565b600181600281111561283557612835614d2c565b0361288f57608083015151516000036128615760405163c3b2798b60e01b815260040160405180910390fd5b82608001516020015160000361288a576040516392fb9a3560e01b815260040160405180910390fd5b612941565b60028160028111156128a3576128a3614d2c565b036129265760a08301515151600a10156128d057604051631e38b1b160e11b815260040160405180910390fd5b600a8360a00151602001515111156128fb5760405163a3b7dd7760e01b815260040160405180910390fd5b600a8360a001516040015151111561288a5760405163f696406560e01b815260040160405180910390fd5b8060405163d2277d4960e01b8152600401611eb29190615390565b505b8061294d81615309565b9150506127d9565b5080604001515160000361297c5760405163e182473360e01b815260040160405180910390fd5b50565b6000818152601f60205260408120546001146129ae57604051633832a15560e21b815260040160405180910390fd5b6000828152601f6020526040812080549091906129cd576129cd6152f3565b90600052602060002001549050919050565b6000816040516020016117c49190614d5c565b60006008546007546116ce91906152e0565b606060218054806020026020016040519081016040528092919081815260200182805480156114865760200282019190600052602060002090815481526020019060010190808311611472575050505050905090565b6005546001600160a01b03163314801590612a8957503373dc652c746a8f85e18ce632d97c6118e8a52fa73814155b15612aa757604051637601acaf60e11b815260040160405180910390fd5b60175460ff1615612acb57604051636f79584d60e01b815260040160405180910390fd5b601c5415600114612aef5760405163043d8d1b60e21b815260040160405180910390fd5b6017805460ff191660011790556040517f4cd963a081760a54f571abc0f1db4dde31b4a07d8d6da3e844b8c6f47eeaaa4290600090a1565b606060148054806020026020016040519081016040528092919081815260200182805480156114865760200282019190600052602060002090815481526020019060010190808311611472575050505050905090565b6003612b876120e0565b6004811115612b9857612b98614d2c565b14612bb65760405163554806bb60e11b815260040160405180910390fd5b60005b81811015612caa576000838383818110612bd557612bd56152f3565b60055460209190910292909201359250506001600160a01b03163314801590612c1557506000818152601860205260409020546001600160a01b03163314155b15612c335760405163018db70560e11b815260040160405180910390fd5b60008181526016602052604090205460ff16612c97576000818152601660205260408120805460ff191660019081179091556015805491820181559091527f55f448fdea98c4d29eb340757ef0a66cd03dbb9538908a6a81d96026b71ec475018190555b5080612ca281615309565b915050612bb9565b50600054600103612cbf57612cbf82826134a5565b7f75a75cf5c561892f4cc5b26c1b8e933849b42238c96dd073d080d1ae96c514166014604051611f6291906153a4565b6005546001600160a01b03163314612d1a57604051630f4cb1bd60e11b815260040160405180910390fd5b306001600160a01b0316816001600160a01b031663f3f44fb76040518163ffffffff1660e01b8152600401602060405180830381865afa158015612d62573d6000803e3d6000fd5b505050506040513d601f19601f82011682018060405250810190612d8691906153df565b6001600160a01b031614612dad57604051635b310aaf60e01b815260040160405180910390fd5b602080546001600160a01b038381166001600160a01b03198316811784556040805192909316808352938201527f753a2cf8d360cff631674504210913e48247f8e56b3e6d2006c2103d4095999f9101611f62565b6021818154811061125b57600080fd5b60246020528160005260406000208181548110611a9057600080fd5b6000818152601f60209081526040918290208054835181840281018401909452808452606093928301828280156120d457602002820191906000526020600020908154815260200190600101908083116120c05750505050509050919050565b60008080846001811115612ea457612ea4614d2c565b03612eb25750600d54612f23565b6001846001811115612ec657612ec6614d2c565b03612f1f57670de0b6b3a7640000831015612ef4576040516346ddb8d160e01b815260040160405180910390fd5b612f06670de0b6b3a764000084615357565b612f0e6124e8565b612f189190615379565b9050612f23565b5060005b803414611d0d576040516372c3eaa760e01b815234600482015260248101829052604401611eb2565b801561297c5760006064600c546064612f659190615322565b612f6f9034615379565b612f799190615357565b90508015612fde57601254612f97906001600160a01b031682613502565b601254604080516001600160a01b039092168252602082018390527f9df63d1c00d2e332f573be591c0579caafb256b2c5a17abcc8ad471cccda1b81910160405180910390a15b6000612fea8234615322565b9050801561304f57601154613008906001600160a01b031682613502565b600554604080516001600160a01b039092168252602082018390527f6dff55337c8458ae8c536a63869a48bc33541733422a796390c131d91f4238ed910160405180910390a15b505050565b600060016130606120e0565b600481111561307157613071614d2c565b146130985761307e6120e0565b60405163049cab4960e51b8152600401611eb29190614d42565b816000036130b95760405163502e1c2960e01b815260040160405180910390fd5b6130c484848461361b565b601b80546001810182556000919091527f3ad8aa4f87544323a9d1e5dd902f40c356527a7955687113db5f9a85ad579dc10180546001600160a01b0319163317905560408051858152602081018490526001600160a01b038516917fb4cfecf70861b7b150d8337780d34fb4cbc2114b5fb1fe51a5c5fca1849f7274910160405180910390a25092915050565b6000600361315d6120e0565b600481111561316e5761316e614d2c565b146131955761317b6120e0565b604051632889531360e01b8152600401611eb29190614d42565b600a5433600090815260196020526040902054036131cc57600a54604051632bd6d93960e21b8152600401611eb291815260200190565b600b546015546014546131df9190615322565b0361320357600b546040516302217f5360e51b8152600401611eb291815260200190565b600061320e836129df565b600081815260186020526040902054909150600160a01b900460ff161561324b5760405163baffc42360e01b815260048101829052602401611eb2565b6014805460018181019092557fce6d7b5282bd9a3661ae061feed1dbda4e52ab073b1f9285be6e155d9c38d4ec0182905560008281526018602090815260409182902086518154928801511515600160a01b026001600160a81b03199093166001600160a01b03909116179190911781559085015185928201906132cf908261520b565b506060820151516002820180546001600160a01b0319166001600160a01b03909216919091179055608082015180518051600384019161331491839160200190614517565b5060209182015160019091015560a0830151805180519192600585019261333e9284920190614517565b506020828101518051613357926001850192019061457c565b50604082015180516133739160028401916020909101906145ce565b505033600090815260196020526040812080546001955090935090915061339b9084906152e0565b9091555050601a80546001810182556000919091527f057c384a7d1c54f3a1b2e5e67b2617b8224fdfd1ea7234eea573a6ff665ff63e0180546001600160a01b0319163390811790915560408085015190517f7585f467599d0f008985f231af99293be388626ac16ca59505c2f8f88969cd639261341a9285926153fc565b60405180910390a192915050565b6000611d0d6125a284670de0b6b3a764000085613767565b6000611d0d6125a2848461383b565b600081680a688906bd8affffff81111561347f5760405163b3b6ba1f60e01b815260048101849052602401611eb2565b6000613497670de0b6b3a7640000604084901b615357565b90506117286125a2826138f1565b60005b8181101561304f5760008383838181106134c4576134c46152f3565b602090810292909201356000818152601e9093526040909220549192506134ed90508282614051565b505080806134fa90615309565b9150506134a8565b804710156135525760405162461bcd60e51b815260206004820152601d60248201527f416464726573733a20696e73756666696369656e742062616c616e63650000006044820152606401611eb2565b6000826001600160a01b03168260405160006040518083038185875af1925050503d806000811461359f576040519150601f19603f3d011682016040523d82523d6000602084013e6135a4565b606091505b505090508061304f5760405162461bcd60e51b815260206004820152603a60248201527f416464726573733a20756e61626c6520746f2073656e642076616c75652c207260448201527f6563697069656e74206d617920686176652072657665727465640000000000006064820152608401611eb2565b6000838152601e602090815260408083206001600160a01b03861684526002810190925282205481549192901591849184916136589084906152e0565b90915550506001600160a01b0384166000908152600283016020526040812080548592906136879084906152e0565b909155505080156136c2576001828101805491820181556000908152602090200180546001600160a01b0319166001600160a01b0386161790555b6001600160a01b0384166000908152601d6020526040812080548592906136ea9084906152e0565b9250508190555082601c600082825461370391906152e0565b909155505060005460010361376057815460006137208583615322565b90508015613732576137328782614051565b6000828152601f602090815260408220805460018101825590835291200187905561375d8183614188565b50505b5050505050565b60008080600019858709858702925082811083820303915050806000036137a15783828161379757613797615341565b0492505050611d0d565b8381106137d257604051630c740aef60e31b8152600481018790526024810186905260448101859052606401611eb2565b60008486880960026001871981018816978890046003810283188082028403028082028403028082028403028082028403028082028403029081029092039091026000889003889004909101858311909403939093029303949094049190911702949350505050565b600080806000198486098486029250828110838203039150508060000361386f5750670de0b6b3a7640000900490506116b1565b670de0b6b3a764000081106138a157604051635173648d60e01b81526004810186905260248101859052604401611eb2565b6000670de0b6b3a764000085870962040000818503049310909103600160ee1b02919091177faccb18165bd6fe31ae1cf318dc5b51eee0e1ba569b88cd74c1773b91fac106690291505092915050565b600160bf1b67ff000000000000008216156139fe576780000000000000008216156139255768016a09e667f3bcc9090260401c5b674000000000000000821615613944576801306fe0a31b7152df0260401c5b672000000000000000821615613963576801172b83c7d517adce0260401c5b6710000000000000008216156139825768010b5586cf9890f62a0260401c5b6708000000000000008216156139a1576801059b0d31585743ae0260401c5b6704000000000000008216156139c057680102c9a3e778060ee70260401c5b6702000000000000008216156139df5768010163da9fb33356d80260401c5b6701000000000000008216156139fe57680100b1afa5abcbed610260401c5b66ff000000000000821615613afd576680000000000000821615613a2b5768010058c86da1c09ea20260401c5b6640000000000000821615613a49576801002c605e2e8cec500260401c5b6620000000000000821615613a6757680100162f3904051fa10260401c5b6610000000000000821615613a85576801000b175effdc76ba0260401c5b6608000000000000821615613aa357680100058ba01fb9f96d0260401c5b6604000000000000821615613ac15768010002c5cc37da94920260401c5b6602000000000000821615613adf576801000162e525ee05470260401c5b6601000000000000821615613afd5768010000b17255775c040260401c5b65ff0000000000821615613bf35765800000000000821615613b28576801000058b91b5bc9ae0260401c5b65400000000000821615613b4557680100002c5c89d5ec6d0260401c5b65200000000000821615613b625768010000162e43f4f8310260401c5b65100000000000821615613b7f57680100000b1721bcfc9a0260401c5b65080000000000821615613b9c5768010000058b90cf1e6e0260401c5b65040000000000821615613bb9576801000002c5c863b73f0260401c5b65020000000000821615613bd657680100000162e430e5a20260401c5b65010000000000821615613bf3576801000000b1721835510260401c5b64ff00000000821615613ce057648000000000821615613c1c57680100000058b90c0b490260401c5b644000000000821615613c385768010000002c5c8601cc0260401c5b642000000000821615613c54576801000000162e42fff00260401c5b641000000000821615613c705768010000000b17217fbb0260401c5b640800000000821615613c8c576801000000058b90bfce0260401c5b640400000000821615613ca857680100000002c5c85fe30260401c5b640200000000821615613cc45768010000000162e42ff10260401c5b640100000000821615613ce057680100000000b17217f80260401c5b63ff000000821615613dc4576380000000821615613d075768010000000058b90bfc0260401c5b6340000000821615613d22576801000000002c5c85fe0260401c5b6320000000821615613d3d57680100000000162e42ff0260401c5b6310000000821615613d58576801000000000b17217f0260401c5b6308000000821615613d7357680100000000058b90c00260401c5b6304000000821615613d8e5768010000000002c5c8600260401c5b6302000000821615613da9576801000000000162e4300260401c5b6301000000821615613dc45768010000000000b172180260401c5b62ff0000821615613e9f5762800000821615613de9576801000000000058b90c0260401c5b62400000821615613e0357680100000000002c5c860260401c5b62200000821615613e1d5768010000000000162e430260401c5b62100000821615613e3757680100000000000b17210260401c5b62080000821615613e515768010000000000058b910260401c5b62040000821615613e6b576801000000000002c5c80260401c5b62020000821615613e8557680100000000000162e40260401c5b62010000821615613e9f576801000000000000b1720260401c5b61ff00821615613f7157618000821615613ec257680100000000000058b90260401c5b614000821615613edb5768010000000000002c5d0260401c5b612000821615613ef4576801000000000000162e0260401c5b611000821615613f0d5768010000000000000b170260401c5b610800821615613f26576801000000000000058c0260401c5b610400821615613f3f57680100000000000002c60260401c5b610200821615613f5857680100000000000001630260401c5b610100821615613f7157680100000000000000b10260401c5b60ff82161561403a576080821615613f9257680100000000000000590260401c5b6040821615613faa576801000000000000002c0260401c5b6020821615613fc257680100000000000000160260401c5b6010821615613fda576801000000000000000b0260401c5b6008821615613ff257680100000000000000060260401c5b600482161561400a57680100000000000000030260401c5b600282161561402257680100000000000000010260401c5b600182161561403a57680100000000000000010260401c5b670de0b6b3a76400000260409190911c60bf031c90565b6000818152601f60209081526040808320805482518185028101850190935280835291929091908301828280156140a757602002820191906000526020600020905b815481526020019060010190808311614093575b5050505050905060005b815181101561418257838282815181106140cd576140cd6152f3565b6020026020010151036141705781600183516140e99190615322565b815181106140f9576140f96152f3565b6020026020010151601f60008581526020019081526020016000208281548110614125576141256152f3565b9060005260206000200181905550601f600084815260200190815260200160002080548061415557614155615426565b60019003818190600052602060002001600090559055614182565b8061417a81615309565b9150506140b1565b50505050565b600280546040805160208084028201810190925282815291926000929184908301828280156141d657602002820191906000526020600020905b8154815260200190600101908083116141c2575b505050505090508160000361421d575050600280546001810182556000919091527f405787fa12a823e0f2b7631cc41b3ba8828b3321ca811111fa75cd3aa3bb5ace015550565b80614229600184615322565b81518110614239576142396152f3565b602002602001015183101561428f5760015482036142575750505050565b5050600280546001810182556000919091527f405787fa12a823e0f2b7631cc41b3ba8828b3321ca811111fa75cd3aa3bb5ace015550565b614182848484846000805b83811015614304578281815181106142b4576142b46152f3565b602002602001015185036142c9575050614182565b8281815181106142db576142db6152f3565b60200260200101518511156142f257809150614304565b806142fc81615309565b91505061429a565b506000808611801561432257506000868152601f6020526040902054155b9050600081801561434b575086848481518110614341576143416152f3565b6020026020010151145b6144545761435a600186615322565b831461440257600061436d8460016152e0565b90505b858110156144005784614384600183615322565b81518110614394576143946152f3565b6020026020010151600282815481106143af576143af6152f3565b6000918252602090912001558280156143e05750878582815181106143d6576143d66152f3565b6020026020010151145b156143ee5760019150614400565b806143f881615309565b915050614370565b505b80158015614411575060015485105b1561445457600284614424600188615322565b81518110614434576144346152f3565b602090810291909101810151825460018101845560009384529190922001555b8560028481548110614468576144686152f3565b60009182526020909120015550505050505050565b6040518060c0016040528060006001600160a01b03168152602001600015158152602001606081526020016144c7604051806020016040528060006001600160a01b031681525090565b81526020016144e9604051806040016040528060608152602001600081525090565b815260200161451260405180606001604052806060815260200160608152602001606081525090565b905290565b82805482825590600052602060002090810192821561456c579160200282015b8281111561456c57825182546001600160a01b0319166001600160a01b03909116178255602090920191600190910190614537565b50614578929150614609565b5090565b8280548282559060005260206000209081019282156145c2579160200282015b828111156145c257825182906145b2908261520b565b509160200191906001019061459c565b5061457892915061461e565b82805482825590600052602060002090810192821561456c579160200282015b8281111561456c5782518255916020019190600101906145ee565b5b80821115614578576000815560010161460a565b80821115614578576000614632828261463b565b5060010161461e565b50805461464790615183565b6000825580601f10614657575050565b601f01602090049060005260206000209081019061297c9190614609565b60006020828403121561468757600080fd5b5035919050565b6000815180845260005b818110156146b457602081850181015186830182015201614698565b506000602082860101526020601f19601f83011685010191505092915050565b600081518084526020808501945080840160005b8381101561470d5781516001600160a01b0316875295820195908201906001016146e8565b509495945050505050565b600081516040845261472d60408501826146d4565b602093840151949093019390935250919050565b600081518084526020808501945080840160005b8381101561470d57815187529582019590820190600101614755565b600081516060845261478660608501826146d4565b9050602080840151858303828701528281518085528385019150838160051b860101848401935060005b828110156147de57601f198783030184526147cc82865161468e565b948601949386019391506001016147b0565b506040880151955088810360408a01526147f88187614741565b9998505050505050505050565b600060018060a01b038089168352871515602084015260c0604084015261482f60c084018861468e565b818751166060850152838103608085015261484a8187614718565b91505082810360a08401526147f88185614771565b602081526000611d0d602083018461468e565b6020815260018060a01b03825116602082015260208201516040820152604082015160608201526000606083015160808084015261172860a084018261468e565b602081526000611d0d6020830184614741565b6001600160a01b038116811461297c57600080fd5b80356148e6816148c6565b919050565b6000602082840312156148fd57600080fd5b8135611d0d816148c6565b634e487b7160e01b600052604160045260246000fd5b604051606081016001600160401b038111828210171561494057614940614908565b60405290565b60405160c081016001600160401b038111828210171561494057614940614908565b604051601f8201601f191681016001600160401b038111828210171561499057614990614908565b604052919050565b600082601f8301126149a957600080fd5b81356001600160401b038111156149c2576149c2614908565b6149d5601f8201601f1916602001614968565b8181528460208386010111156149ea57600080fd5b816020850160208301376000918101602001919091529392505050565b60008060408385031215614a1a57600080fd5b8235915060208301356001600160401b03811115614a3757600080fd5b614a4385828601614998565b9150509250929050565b60008060408385031215614a6057600080fd5b50508035926020909101359150565b6020808252825182820181905260009190848201906040850190845b81811015614ab05783516001600160a01b031683529284019291840191600101614a8b565b50909695505050505050565b600060208284031215614ace57600080fd5b81356001600160401b0380821115614ae557600080fd5b9083019060808286031215614af957600080fd5b604051608081018181108382111715614b1457614b14614908565b6040528235614b22816148c6565b808252506020830135602082015260408301356040820152606083013582811115614b4c57600080fd5b614b5887828601614998565b60608301525095945050505050565b604081526000614b7a6040830185614741565b8281036020840152614b8c8185614741565b95945050505050565b60008060408385031215614ba857600080fd5b823591506020830135614bba816148c6565b809150509250929050565b60018060a01b0385168152836020820152826040820152608060608201526000614bf2608083018461468e565b9695505050505050565b600060208284031215614c0e57600080fd5b81356001600160401b03811115614c2457600080fd5b820160c08185031215611d0d57600080fd5b60006001600160401b03821115614c4f57614c4f614908565b5060051b60200190565b600082601f830112614c6a57600080fd5b81356020614c7f614c7a83614c36565b614968565b82815260059290921b84018101918181019086841115614c9e57600080fd5b8286015b84811015614cb95780358352918301918301614ca2565b509695505050505050565b600060208284031215614cd657600080fd5b81356001600160401b03811115614cec57600080fd5b61172884828501614c59565b600060208284031215614d0a57600080fd5b81356001600160401b03811115614d2057600080fd5b61172884828501614998565b634e487b7160e01b600052602160045260246000fd5b6020810160058310614d5657614d56614d2c565b91905290565b60208152600060018060a01b03808451166020840152602084015115156040840152604084015160c06060850152614d9760e085018261468e565b90508160608601515116608085015260808501519150601f19808583030160a0860152614dc48284614718565b925060a08601519150808584030160c086015250614b8c8282614771565b803580151581146148e657600080fd5b600060208284031215614e0457600080fd5b604051602081018181106001600160401b0382111715614e2657614e26614908565b6040529050808235614e37816148c6565b905292915050565b600082601f830112614e5057600080fd5b81356020614e60614c7a83614c36565b82815260059290921b84018101918181019086841115614e7f57600080fd5b8286015b84811015614cb9578035614e96816148c6565b8352918301918301614e83565b600060408284031215614eb557600080fd5b604051604081016001600160401b038282108183111715614ed857614ed8614908565b816040528293508435915080821115614ef057600080fd5b50614efd85828601614e3f565b825250602083013560208201525092915050565b600060608284031215614f2357600080fd5b614f2b61491e565b905081356001600160401b0380821115614f4457600080fd5b614f5085838601614e3f565b8352602091508184013581811115614f6757600080fd5b8401601f81018613614f7857600080fd5b8035614f86614c7a82614c36565b81815260059190911b82018401908481019088831115614fa557600080fd5b8584015b83811015614fdd57803586811115614fc15760008081fd5b614fcf8b8983890101614998565b845250918601918601614fa9565b508086880152505050506040840135915080821115614ffb57600080fd5b5061500884828501614c59565b60408301525092915050565b600060c0828403121561502657600080fd5b61502e614946565b9050615039826148db565b815261504760208301614de2565b602082015260408201356001600160401b038082111561506657600080fd5b61507285838601614998565b60408401526150848560608601614df2565b6060840152608084013591508082111561509d57600080fd5b6150a985838601614ea3565b608084015260a08401359150808211156150c257600080fd5b506150cf84828501614f11565b60a08301525092915050565b6000602082840312156150ed57600080fd5b81356001600160401b0381111561510357600080fd5b61172884828501615014565b6000806020838503121561512257600080fd5b82356001600160401b038082111561513957600080fd5b818501915085601f83011261514d57600080fd5b81358181111561515c57600080fd5b8660208260051b850101111561517157600080fd5b60209290920196919550909350505050565b600181811c9082168061519757607f821691505b6020821081036151b757634e487b7160e01b600052602260045260246000fd5b50919050565b601f82111561304f57600081815260208120601f850160051c810160208610156151e45750805b601f850160051c820191505b81811015615203578281556001016151f0565b505050505050565b81516001600160401b0381111561522457615224614908565b615238816152328454615183565b846151bd565b602080601f83116001811461526d57600084156152555750858301515b600019600386901b1c1916600185901b178555615203565b600085815260208120601f198616915b8281101561529c5788860151825594840194600190910190840161527d565b50858210156152ba5787850151600019600388901b60f8161c191681555b5050505050600190811b01905550565b634e487b7160e01b600052601160045260246000fd5b808201808211156116b1576116b16152ca565b634e487b7160e01b600052603260045260246000fd5b60006001820161531b5761531b6152ca565b5060010190565b818103818111156116b1576116b16152ca565b60006116b13683615014565b634e487b7160e01b600052601260045260246000fd5b60008261537457634e487b7160e01b600052601260045260246000fd5b500490565b80820281158282048414176116b1576116b16152ca565b6020810160038310614d5657614d56614d2c565b6020808252825482820181905260008481528281209092916040850190845b81811015614ab0578354835260019384019392850192016153c3565b6000602082840312156153f157600080fd5b8151611d0d816148c6565b8381526001600160a01b0383166020820152606060408201819052600090614b8c9083018461468e565b634e487b7160e01b600052603160045260246000fdfea2646970667358221220ba9d6db6c2de7edaac50a5ab37b7fda7140cb87750563e60a5ce02ddfe5aa7f264736f6c63430008130033","linkReferences":{}},"methodIdentifiers":{"AMOUNT_FOR_SUMBITTER_PROOF()":"347cf665","COST_ROUNDING_VALUE()":"e269cefe","JK_LABS_ADDRESS()":"eef18e17","MAX_FIELDS_METADATA_LENGTH()":"b382543f","METADATAS_COUNT()":"4d24a67f","PRICE_CURVE_UPDATE_INTERVAL()":"fd7971c9","SECONDS_IN_WEEK()":"e088b29e","addressTotalCastVoteCount(address)":"dda54fcf","addressesThatHaveVoted(uint256)":"50c4b616","allProposalTotalVotes()":"50a5e524","anyoneCanSubmit()":"5358b80e","cancel()":"ea8a1af0","canceled()":"3f9942ff","castVote(uint256,uint256)":"2c0a3f89","comment(uint256,string)":"1805c523","commentIds(uint256)":"f5c36411","commentIsDeleted(uint256)":"ae66b8ad","comments(uint256)":"8ebb4c15","contestAddressTotalVotesCast(address)":"aec116b6","contestDeadline()":"262e59e9","contestStart()":"004114a8","costToPropose()":"6ed815ad","costToVote()":"51a41dec","creator()":"02d05d3f","creatorSplitDestination()":"4a587ad4","currentPricePerVote()":"ca09a4c4","deleteComments(uint256[])":"ac67f801","deleteProposals(uint256[])":"f0a7db0a","deletedCommentIds(uint256)":"3fb57c92","deletedProposalIds(uint256)":"05846cae","getAllAddressesThatHaveVoted()":"2c39805f","getAllAuthorsOfDeletedProposals()":"cbdc27cb","getAllCommentIds()":"e11db9d8","getAllDeletedCommentIds()":"5cb718a1","getAllDeletedProposalIds()":"1242b737","getAllProposalAuthors()":"946369b5","getAllProposalIds()":"efa90d36","getComment(uint256)":"0800e300","getNumProposalsWithThisManyVotes(uint256)":"bc022c98","getOnlyProposalIdWithThisManyVotes(uint256)":"d576b81d","getProposal(uint256)":"c7f758a8","getProposalComments(uint256)":"c05f4104","getProposalsWithThisManyVotes(uint256)":"f82e54c0","getRankIndex(uint256)":"5c7107d8","getSortedRanks()":"6fd3636b","hashComment((address,uint256,uint256,string))":"409fd030","hashProposal((address,bool,string,(address),(address[],uint256),(address[],string[],uint256[])))":"d7989025","isOrIsBelowTiedRank(uint256)":"9174778c","jkLabsSplitDestination()":"102613d8","maxProposalCount()":"fb9bf8d4","metadataFieldsSchema()":"60ed97a9","multiple()":"437a8ae6","name()":"06fdde03","numAllowedProposalSubmissions()":"832009af","numSubmissions(address)":"75e509c5","officialRewardsModule()":"785ddfe5","percentageToCreator()":"edcd1be4","priceCurveType()":"4a2c96ec","prompt()":"7c65d711","proposalAddressVotes(uint256,address)":"6e4eb810","proposalAddressesHaveVoted(uint256)":"b323580d","proposalAuthors(uint256)":"0aa25e44","proposalComments(uint256,uint256)":"f61736f4","proposalIds(uint256)":"9b644a23","proposalIsDeleted(uint256)":"f79c0172","proposalVoteStructs(uint256)":"15dee7cd","proposalVotes(uint256)":"544ffc9c","proposals(uint256)":"013cf08b","propose((address,bool,string,(address),(address[],uint256),(address[],string[],uint256[])))":"9a04ede8","rankLimit()":"0414126a","setCreatorSplitDestination(address)":"146230f6","setJkLabsSplitDestination(address)":"9b338aa0","setName(string)":"c47f0027","setOfficialRewardsModule(address)":"f4f3d7ec","setPrompt(string)":"b4ac024f","sortedRanks(uint256)":"325cc6d9","sortingEnabled()":"366ecf5b","state()":"c19d93fb","totalVotesCast()":"7de418d5","totalVotesCastIsZero()":"7d742925","validateProposalData((address,bool,string,(address),(address[],uint256),(address[],string[],uint256[])))":"d140d9f0","verifyProposer()":"476106c8","version()":"54fd4d50","voteStart()":"e031535b","votesToProposalIds(uint256,uint256)":"6d030621","votingDelay()":"3932abb1","votingPeriod()":"02a251a3"},"id":52}