{"abi":[{"type":"constructor","inputs":[{"name":"payees_","type":"uint256[]","internalType":"uint256[]"},{"name":"shares_","type":"uint256[]","internalType":"uint256[]"},{"name":"underlyingContest_","type":"address","internalType":"contract GovernorCountingSimple"}],"stateMutability":"payable"},{"type":"receive","stateMutability":"payable"},{"type":"function","name":"MODULE_TYPE","inputs":[],"outputs":[{"name":"","type":"string","internalType":"string"}],"stateMutability":"view"},{"type":"function","name":"cancel","inputs":[],"outputs":[],"stateMutability":"nonpayable"},{"type":"function","name":"canceled","inputs":[],"outputs":[{"name":"","type":"bool","internalType":"bool"}],"stateMutability":"view"},{"type":"function","name":"creator","inputs":[],"outputs":[{"name":"","type":"address","internalType":"address"}],"stateMutability":"view"},{"type":"function","name":"erc20Released","inputs":[{"name":"","type":"address","internalType":"contract IERC20"},{"name":"","type":"uint256","internalType":"uint256"}],"outputs":[{"name":"","type":"uint256","internalType":"uint256"}],"stateMutability":"view"},{"type":"function","name":"erc20ReleasedToVoter","inputs":[{"name":"","type":"address","internalType":"contract IERC20"},{"name":"","type":"address","internalType":"address"},{"name":"","type":"uint256","internalType":"uint256"}],"outputs":[{"name":"","type":"uint256","internalType":"uint256"}],"stateMutability":"view"},{"type":"function","name":"erc20TotalReleased","inputs":[{"name":"","type":"address","internalType":"contract IERC20"}],"outputs":[{"name":"","type":"uint256","internalType":"uint256"}],"stateMutability":"view"},{"type":"function","name":"getPayees","inputs":[],"outputs":[{"name":"","type":"uint256[]","internalType":"uint256[]"}],"stateMutability":"view"},{"type":"function","name":"getProposalIdOfRanking","inputs":[{"name":"ranking","type":"uint256","internalType":"uint256"}],"outputs":[{"name":"","type":"uint256","internalType":"uint256"}],"stateMutability":"view"},{"type":"function","name":"getUnderlyingContest","inputs":[],"outputs":[{"name":"","type":"address","internalType":"contract GovernorCountingSimple"}],"stateMutability":"view"},{"type":"function","name":"payees","inputs":[{"name":"","type":"uint256","internalType":"uint256"}],"outputs":[{"name":"","type":"uint256","internalType":"uint256"}],"stateMutability":"view"},{"type":"function","name":"releasable","inputs":[{"name":"token","type":"address","internalType":"contract IERC20"},{"name":"ranking","type":"uint256","internalType":"uint256"}],"outputs":[{"name":"","type":"uint256","internalType":"uint256"}],"stateMutability":"view"},{"type":"function","name":"releasable","inputs":[{"name":"ranking","type":"uint256","internalType":"uint256"}],"outputs":[{"name":"","type":"uint256","internalType":"uint256"}],"stateMutability":"view"},{"type":"function","name":"releasableToVoter","inputs":[{"name":"voter","type":"address","internalType":"address"},{"name":"ranking","type":"uint256","internalType":"uint256"}],"outputs":[{"name":"","type":"uint256","internalType":"uint256"}],"stateMutability":"view"},{"type":"function","name":"releasableToVoter","inputs":[{"name":"token","type":"address","internalType":"contract IERC20"},{"name":"voter","type":"address","internalType":"address"},{"name":"ranking","type":"uint256","internalType":"uint256"}],"outputs":[{"name":"","type":"uint256","internalType":"uint256"}],"stateMutability":"view"},{"type":"function","name":"release","inputs":[{"name":"voter","type":"address","internalType":"address"},{"name":"ranking","type":"uint256","internalType":"uint256"}],"outputs":[],"stateMutability":"nonpayable"},{"type":"function","name":"release","inputs":[{"name":"token","type":"address","internalType":"contract IERC20"},{"name":"voter","type":"address","internalType":"address"},{"name":"ranking","type":"uint256","internalType":"uint256"}],"outputs":[],"stateMutability":"nonpayable"},{"type":"function","name":"released","inputs":[{"name":"","type":"uint256","internalType":"uint256"}],"outputs":[{"name":"","type":"uint256","internalType":"uint256"}],"stateMutability":"view"},{"type":"function","name":"releasedToVoter","inputs":[{"name":"","type":"address","internalType":"address"},{"name":"","type":"uint256","internalType":"uint256"}],"outputs":[{"name":"","type":"uint256","internalType":"uint256"}],"stateMutability":"view"},{"type":"function","name":"runReleaseChecks","inputs":[{"name":"ranking","type":"uint256","internalType":"uint256"}],"outputs":[],"stateMutability":"view"},{"type":"function","name":"shares","inputs":[{"name":"","type":"uint256","internalType":"uint256"}],"outputs":[{"name":"","type":"uint256","internalType":"uint256"}],"stateMutability":"view"},{"type":"function","name":"totalReleased","inputs":[],"outputs":[{"name":"","type":"uint256","internalType":"uint256"}],"stateMutability":"view"},{"type":"function","name":"totalShares","inputs":[],"outputs":[{"name":"","type":"uint256","internalType":"uint256"}],"stateMutability":"view"},{"type":"function","name":"underlyingContest","inputs":[],"outputs":[{"name":"","type":"address","internalType":"contract GovernorCountingSimple"}],"stateMutability":"view"},{"type":"function","name":"version","inputs":[],"outputs":[{"name":"","type":"string","internalType":"string"}],"stateMutability":"pure"},{"type":"function","name":"withdrawRewards","inputs":[{"name":"token","type":"address","internalType":"contract IERC20"}],"outputs":[],"stateMutability":"nonpayable"},{"type":"function","name":"withdrawRewards","inputs":[],"outputs":[],"stateMutability":"nonpayable"},{"type":"event","name":"ERC20PaymentReleased","inputs":[{"name":"token","type":"address","indexed":true,"internalType":"contract IERC20"},{"name":"to","type":"address","indexed":false,"internalType":"address"},{"name":"amount","type":"uint256","indexed":false,"internalType":"uint256"}],"anonymous":false},{"type":"event","name":"ERC20RewardWithdrawn","inputs":[{"name":"token","type":"address","indexed":true,"internalType":"contract IERC20"},{"name":"by","type":"address","indexed":false,"internalType":"address"},{"name":"amount","type":"uint256","indexed":false,"internalType":"uint256"}],"anonymous":false},{"type":"event","name":"JokeraceVoterRewardsModuleCreated","inputs":[{"name":"version","type":"string","indexed":false,"internalType":"string"},{"name":"underlyingContest","type":"address","indexed":false,"internalType":"address"}],"anonymous":false},{"type":"event","name":"PayeeAdded","inputs":[{"name":"ranking","type":"uint256","indexed":false,"internalType":"uint256"},{"name":"shares","type":"uint256","indexed":false,"internalType":"uint256"}],"anonymous":false},{"type":"event","name":"PaymentReceived","inputs":[{"name":"from","type":"address","indexed":false,"internalType":"address"},{"name":"amount","type":"uint256","indexed":false,"internalType":"uint256"}],"anonymous":false},{"type":"event","name":"PaymentReleased","inputs":[{"name":"to","type":"address","indexed":false,"internalType":"address"},{"name":"amount","type":"uint256","indexed":false,"internalType":"uint256"}],"anonymous":false},{"type":"event","name":"RewardWithdrawn","inputs":[{"name":"by","type":"address","indexed":false,"internalType":"address"},{"name":"amount","type":"uint256","indexed":false,"internalType":"uint256"}],"anonymous":false},{"type":"error","name":"AccountAlreadyHasShares","inputs":[]},{"type":"error","name":"AccountNotDueERC20Payment","inputs":[]},{"type":"error","name":"AccountNotDueNativePayment","inputs":[]},{"type":"error","name":"CannotPayOutToZeroAddress","inputs":[]},{"type":"error","name":"CannotReleaseCanceledModule","inputs":[]},{"type":"error","name":"ContestMustBeCompleted","inputs":[]},{"type":"error","name":"MustBeCanceledToWithdraw","inputs":[]},{"type":"error","name":"MustHaveAtLeastOnePayee","inputs":[]},{"type":"error","name":"MustHaveSortingEnabled","inputs":[]},{"type":"error","name":"OnlyCreatorCanCancel","inputs":[]},{"type":"error","name":"OnlyCreatorCanWithdraw","inputs":[]},{"type":"error","name":"PayeesSharesLengthMismatch","inputs":[]},{"type":"error","name":"PayoutRankCannotBeZero","inputs":[]},{"type":"error","name":"RankingCannotBeZero","inputs":[]},{"type":"error","name":"RankingHasNoShares","inputs":[]},{"type":"error","name":"SharesCannotBeZero","inputs":[]},{"type":"error","name":"TotalSharesCannotBeZero","inputs":[]}],"bytecode":{"object":"0x608060405260405162001d9f38038062001d9f83398101604081905262000026916200033c565b815183511462000049576040516324e23b4160e01b815260040160405180910390fd5b82516000036200006c57604051634c87c40160e01b815260040160405180910390fd5b60005b8351811015620000d857620000c3848281518110620000925762000092620003c9565b6020026020010151848381518110620000af57620000af620003c9565b60200260200101516200018160201b60201c565b80620000cf81620003f5565b9150506200006f565b50600054600003620000fd576040516306db759b60e21b815260040160405180910390fd5b600980546001600160a01b0383166001600160a01b03199182168117909255600a805490911633179055604080518082018252600381526206a5c760eb1b602082015290517f8c5321ee9bef93e01f55e8958ee7eeea8f84887a42c785c2e5006564caf6590d9262000170929162000411565b60405180910390a15050506200048f565b81600003620001a35760405163d6fbfe2560e01b815260040160405180910390fd5b80600003620001c557604051633122bc0960e21b815260040160405180910390fd5b60008281526002602052604090205415620001f357604051637b4f7fb560e01b815260040160405180910390fd5b60088054600181019091557ff3f7a9fe364faab93b216da50a3214154f22a0a2b415b23a84c8169e8b636ee3018290556000828152600260205260408120829055546200024290829062000473565b60005560408051838152602081018390527f78bc0e219b874bf2620f7316737ec16d4bda1bb7136961e4dcb5ff0dc031cee4910160405180910390a15050565b634e487b7160e01b600052604160045260246000fd5b600082601f830112620002aa57600080fd5b815160206001600160401b0380831115620002c957620002c962000282565b8260051b604051601f19603f83011681018181108482111715620002f157620002f162000282565b6040529384528581018301938381019250878511156200031057600080fd5b83870191505b84821015620003315781518352918301919083019062000316565b979650505050505050565b6000806000606084860312156200035257600080fd5b83516001600160401b03808211156200036a57600080fd5b620003788783880162000298565b945060208601519150808211156200038f57600080fd5b506200039e8682870162000298565b604086015190935090506001600160a01b0381168114620003be57600080fd5b809150509250925092565b634e487b7160e01b600052603260045260246000fd5b634e487b7160e01b600052601160045260246000fd5b6000600182016200040a576200040a620003df565b5060010190565b604081526000835180604084015260005b8181101562000441576020818701810151606086840101520162000422565b50600060608285018101919091526001600160a01b03949094166020840152601f01601f191690910190910192915050565b80820180821115620004895762000489620003df565b92915050565b611900806200049f6000396000f3fe6080604052600436106101a05760003560e01c80635775029f116100ec578063c71040461161008a578063e33b7de311610064578063e33b7de314610590578063e4bf01a8146105a6578063ea8a1af0146105c6578063f3f44fb7146105db57600080fd5b8063c71040461461051d578063c7b8981c1461053d578063d75f69b61461055257600080fd5b80637ce4627e116100c65780637ce4627e14610492578063828ce44b146104b25780638bfb07c9146104d0578063a94d373b146104f057600080fd5b80635775029f1461040c57806357a858fc1461044557806363037b0c1461047257600080fd5b80633a98ef39116101595780634b945338116101335780634b945338146103475780634df2114b1461037f57806351f63e35146103b757806354fd4d50146103d757600080fd5b80633a98ef39146102e05780633f9942ff146102f657806342d866931461032757600080fd5b806302d05d3f146101e45780630357371d146102215780632081d63114610243578063272738471461027157806327f38113146102915780633375bbdc146102b357600080fd5b366101df57604080513381523460208201527f6ef95f06320e7a25a04a175ca677b7052bdd97131872c2192525a629f51be770910160405180910390a1005b600080fd5b3480156101f057600080fd5b50600a54610204906001600160a01b031681565b6040516001600160a01b0390911681526020015b60405180910390f35b34801561022d57600080fd5b5061024161023c366004611689565b6105fb565b005b34801561024f57600080fd5b5061026361025e366004611689565b61074e565b604051908152602001610218565b34801561027d57600080fd5b5061026361028c366004611689565b610815565b34801561029d57600080fd5b506102a661088f565b60405161021891906116b5565b3480156102bf57600080fd5b506102636102ce3660046116f9565b60046020526000908152604090205481565b3480156102ec57600080fd5b5061026360005481565b34801561030257600080fd5b50600a5461031790600160a01b900460ff1681565b6040519015158152602001610218565b34801561033357600080fd5b506102416103423660046116f9565b6108e7565b34801561035357600080fd5b50610263610362366004611689565b600560209081526000928352604080842090915290825290205481565b34801561038b57600080fd5b5061026361039a366004611689565b600660209081526000928352604080842090915290825290205481565b3480156103c357600080fd5b506102636103d2366004611716565b610a73565b3480156103e357600080fd5b5060408051808201909152600381526206a5c760eb1b60208201525b6040516102189190611753565b34801561041857600080fd5b506103ff6040518060400160405280600d81526020016c564f5445525f5245574152445360981b81525081565b34801561045157600080fd5b50610263610460366004611716565b60026020526000908152604090205481565b34801561047e57600080fd5b5061026361048d366004611716565b610c44565b34801561049e57600080fd5b506102636104ad366004611786565b610c65565b3480156104be57600080fd5b506009546001600160a01b0316610204565b3480156104dc57600080fd5b506102416104eb366004611786565b610d62565b3480156104fc57600080fd5b5061026361050b366004611716565b60036020526000908152604090205481565b34801561052957600080fd5b50610241610538366004611716565b610ef4565b34801561054957600080fd5b506102416110a4565b34801561055e57600080fd5b5061026361056d366004611786565b600760209081526000938452604080852082529284528284209052825290205481565b34801561059c57600080fd5b5061026360015481565b3480156105b257600080fd5b506102636105c1366004611716565b61115b565b3480156105d257600080fd5b50610241611193565b3480156105e757600080fd5b50600954610204906001600160a01b031681565b61060481610ef4565b600061060f82610a73565b905060008115610628576106238484610815565b610631565b6106318361115b565b90508060000361065457604051631d1514e960e21b815260040160405180910390fd5b806001600082825461066691906117dd565b9091555050600083815260036020526040812080548301905582156106c6576001600160a01b0385166000908152600660209081526040808320878452909152812080548492906106b89084906117dd565b909155508591506106d49050565b50600a546001600160a01b03165b6001600160a01b0381166106fb576040516346a3c2f960e01b815260040160405180910390fd5b604080516001600160a01b0383168152602081018490527fdf20fd1e76bc69d672e4814fafb2c449bba3a5369d8359adf9e05e6fde87b056910160405180910390a161074781836111d3565b5050505050565b6001600160a01b03821660008181526004602081905260408083205490516370a0823160e01b8152309281019290925291928392916370a0823190602401602060405180830381865afa1580156107a9573d6000803e3d6000fd5b505050506040513d601f19601f820116820180604052508101906107cd91906117f0565b6107d791906117dd565b6001600160a01b038516600090815260056020908152604080832087845290915290205490915061080b90849083906112f6565b9150505b92915050565b6000806001544761082691906117dd565b600080548582526002602052604082205492935090916108469084611809565b6108509190611820565b6001600160a01b038616600090815260066020908152604080832088845290915290205490915061088690869086908490611330565b95945050505050565b606060088054806020026020016040519081016040528092919081815260200182805480156108dd57602002820191906000526020600020905b8154815260200190600101908083116108c9575b5050505050905090565b600a546001600160a01b0316331461091257604051631eab0da960e01b815260040160405180910390fd5b600a54600160a01b900460ff16151560011461094157604051633871a85960e21b815260040160405180910390fd5b600a546040516370a0823160e01b81523060048201526001600160a01b03838116927f6e5fc1cbd1629d9837bd657d23cf585bbc4e9127184972606cc4c0dd406f75729291169083906370a0823190602401602060405180830381865afa1580156109b0573d6000803e3d6000fd5b505050506040513d601f19601f820116820180604052508101906109d491906117f0565b604080516001600160a01b03909316835260208301919091520160405180910390a2600a546040516370a0823160e01b8152306004820152610a709183916001600160a01b03918216918316906370a0823190602401602060405180830381865afa158015610a47573d6000803e3d6000fd5b505050506040513d601f19601f82011682018060405250810190610a6b91906117f0565b611441565b50565b600954604051630b8e20fb60e31b815260048101839052600091829182916001600160a01b031690635c7107d890602401602060405180830381865afa158015610ac1573d6000803e3d6000fd5b505050506040513d601f19601f82011682018060405250810190610ae591906117f0565b60095460405163245d1de360e21b8152600481018390529192506001600160a01b031690639174778c90602401602060405180830381865afa158015610b2f573d6000803e3d6000fd5b505050506040513d601f19601f82011682018060405250810190610b539190611842565b15610b615760009150610c3d565b60095460405163325cc6d960e01b8152600481018390526000916001600160a01b03169063325cc6d990602401602060405180830381865afa158015610bab573d6000803e3d6000fd5b505050506040513d601f19601f82011682018060405250810190610bcf91906117f0565b60095460405163d576b81d60e01b8152600481018390529192506001600160a01b03169063d576b81d90602401602060405180830381865afa158015610c19573d6000803e3d6000fd5b505050506040513d601f19601f8201168201806040525081019061088691906117f0565b5092915050565b60088181548110610c5457600080fd5b600091825260209091200154905081565b6001600160a01b03831660008181526004602081905260408083205490516370a0823160e01b8152309281019290925291928392916370a0823190602401602060405180830381865afa158015610cc0573d6000803e3d6000fd5b505050506040513d601f19601f82011682018060405250810190610ce491906117f0565b610cee91906117dd565b60008054858252600260205260408220549293509091610d0e9084611809565b610d189190611820565b6001600160a01b038088166000908152600760209081526040808320938a16835292815282822088835290522054909150610d5890869086908490611330565b9695505050505050565b610d6b81610ef4565b6000610d7682610a73565b905060008115610d9057610d8b858585610c65565b610d9a565b610d9a858461074e565b905080600003610dbd57604051635fe559bd60e01b815260040160405180910390fd5b6001600160a01b03851660009081526004602052604081208054839290610de59084906117dd565b90915550506001600160a01b038516600090815260056020908152604080832086845290915281208054830190558215610e66576001600160a01b038087166000908152600760209081526040808320938916835292815282822087835290529081208054849290610e589084906117dd565b90915550859150610e749050565b50600a546001600160a01b03165b6001600160a01b038116610e9b576040516346a3c2f960e01b815260040160405180910390fd5b604080516001600160a01b038381168252602082018590528816917f3be5b7a71e84ed12875d241991c70855ac5817d847039e17a9d895c1ceb0f18a910160405180910390a2610eec868284611441565b505050505050565b600960009054906101000a90046001600160a01b03166001600160a01b031663366ecf5b6040518163ffffffff1660e01b8152600401602060405180830381865afa158015610f47573d6000803e3d6000fd5b505050506040513d601f19601f82011682018060405250810190610f6b91906117f0565b600114610f8b57604051630fcdfffd60e41b815260040160405180910390fd5b6009546040805163c19d93fb60e01b815290516004926001600160a01b03169163c19d93fb918185019160209190819003860181865afa158015610fd3573d6000803e3d6000fd5b505050506040513d601f19601f82011682018060405250810190610ff7919061187a565b600481111561100857611008611864565b1461102657604051639c2d4c7960e01b815260040160405180910390fd5b806000036110475760405163f9668e2960e01b815260040160405180910390fd5b600081815260026020526040812054900361107557604051632534bdfb60e11b815260040160405180910390fd5b600a54600160a01b900460ff161515600103610a705760405163e2f87cff60e01b815260040160405180910390fd5b600a546001600160a01b031633146110cf57604051631eab0da960e01b815260040160405180910390fd5b600a54600160a01b900460ff1615156001146110fe57604051633871a85960e21b815260040160405180910390fd5b600a54604080516001600160a01b0390921682524760208301527f1d3eee4ca001cff39eec6ec7615aacf2f2bd61791273830728ba00ccbd6e1337910160405180910390a1600a54611159906001600160a01b0316476111d3565b565b6000806001544761116c91906117dd565b905061118c838260036000878152602001908152602001600020546112f6565b9392505050565b600a546001600160a01b031633146111be57604051630c06b96b60e31b815260040160405180910390fd5b600a805460ff60a01b1916600160a01b179055565b804710156112285760405162461bcd60e51b815260206004820152601d60248201527f416464726573733a20696e73756666696369656e742062616c616e636500000060448201526064015b60405180910390fd5b6000826001600160a01b03168260405160006040518083038185875af1925050503d8060008114611275576040519150601f19603f3d011682016040523d82523d6000602084013e61127a565b606091505b50509050806112f15760405162461bcd60e51b815260206004820152603a60248201527f416464726573733a20756e61626c6520746f2073656e642076616c75652c207260448201527f6563697069656e74206d61792068617665207265766572746564000000000000606482015260840161121f565b505050565b60008054848252600260205260408220548391906113149086611809565b61131e9190611820565b611328919061189b565b949350505050565b60008061133c85610a73565b600954604051631513ff2760e21b81526004810183905291925084916001600160a01b039091169063544ffc9c90602401602060405180830381865afa15801561138a573d6000803e3d6000fd5b505050506040513d601f19601f820116820180604052508101906113ae91906117f0565b6009546040516306e4eb8160e41b8152600481018590526001600160a01b038a8116602483015290911690636e4eb81090604401602060405180830381865afa1580156113ff573d6000803e3d6000fd5b505050506040513d601f19601f8201168201806040525081019061142391906117f0565b61142d9087611809565b6114379190611820565b610d58919061189b565b604080516001600160a01b03848116602483015260448083018590528351808403909101815260649092018352602080830180516001600160e01b031663a9059cbb60e01b17905283518085019094528084527f5361666545524332303a206c6f772d6c6576656c2063616c6c206661696c6564908401526112f1928692916000916114d1918516908490611551565b90508051600014806114f25750808060200190518101906114f29190611842565b6112f15760405162461bcd60e51b815260206004820152602a60248201527f5361666545524332303a204552433230206f7065726174696f6e20646964206e6044820152691bdd081cdd58d8d9595960b21b606482015260840161121f565b6060611328848460008585600080866001600160a01b0316858760405161157891906118ae565b60006040518083038185875af1925050503d80600081146115b5576040519150601f19603f3d011682016040523d82523d6000602084013e6115ba565b606091505b50915091506115cb878383876115d6565b979650505050505050565b6060831561164557825160000361163e576001600160a01b0385163b61163e5760405162461bcd60e51b815260206004820152601d60248201527f416464726573733a2063616c6c20746f206e6f6e2d636f6e7472616374000000604482015260640161121f565b5081611328565b611328838381511561165a5781518083602001fd5b8060405162461bcd60e51b815260040161121f9190611753565b6001600160a01b0381168114610a7057600080fd5b6000806040838503121561169c57600080fd5b82356116a781611674565b946020939093013593505050565b6020808252825182820181905260009190848201906040850190845b818110156116ed578351835292840192918401916001016116d1565b50909695505050505050565b60006020828403121561170b57600080fd5b813561118c81611674565b60006020828403121561172857600080fd5b5035919050565b60005b8381101561174a578181015183820152602001611732565b50506000910152565b602081526000825180602084015261177281604085016020870161172f565b601f01601f19169190910160400192915050565b60008060006060848603121561179b57600080fd5b83356117a681611674565b925060208401356117b681611674565b929592945050506040919091013590565b634e487b7160e01b600052601160045260246000fd5b8082018082111561080f5761080f6117c7565b60006020828403121561180257600080fd5b5051919050565b808202811582820484141761080f5761080f6117c7565b60008261183d57634e487b7160e01b600052601260045260246000fd5b500490565b60006020828403121561185457600080fd5b8151801515811461118c57600080fd5b634e487b7160e01b600052602160045260246000fd5b60006020828403121561188c57600080fd5b81516005811061118c57600080fd5b8181038181111561080f5761080f6117c7565b600082516118c081846020870161172f565b919091019291505056fea2646970667358221220252b2aaf497f1417c63210db9723e4dde0d3daa6e4cea15234c27c19890db5c964736f6c63430008130033","linkReferences":{}},"methodIdentifiers":{"MODULE_TYPE()":"5775029f","cancel()":"ea8a1af0","canceled()":"3f9942ff","creator()":"02d05d3f","erc20Released(address,uint256)":"4b945338","erc20ReleasedToVoter(address,address,uint256)":"d75f69b6","erc20TotalReleased(address)":"3375bbdc","getPayees()":"27f38113","getProposalIdOfRanking(uint256)":"51f63e35","getUnderlyingContest()":"828ce44b","payees(uint256)":"63037b0c","releasable(address,uint256)":"2081d631","releasable(uint256)":"e4bf01a8","releasableToVoter(address,address,uint256)":"7ce4627e","releasableToVoter(address,uint256)":"27273847","release(address,address,uint256)":"8bfb07c9","release(address,uint256)":"0357371d","released(uint256)":"a94d373b","releasedToVoter(address,uint256)":"4df2114b","runReleaseChecks(uint256)":"c7104046","shares(uint256)":"57a858fc","totalReleased()":"e33b7de3","totalShares()":"3a98ef39","underlyingContest()":"f3f44fb7","version()":"54fd4d50","withdrawRewards()":"c7b8981c","withdrawRewards(address)":"42d86693"},"id":61}