{
  "abi": [
    {
      "inputs": [
        {
          "internalType": "string",
          "name": "_name",
          "type": "string"
        },
        {
          "internalType": "string",
          "name": "_prompt",
          "type": "string"
        },
        {
          "internalType": "bytes32",
          "name": "_submissionMerkleRoot",
          "type": "bytes32"
        },
        {
          "internalType": "bytes32",
          "name": "_votingMerkleRoot",
          "type": "bytes32"
        },
        {
          "internalType": "uint256[]",
          "name": "_constructorIntParams",
          "type": "uint256[]"
        }
      ],
      "stateMutability": "nonpayable",
      "type": "constructor"
    },
    {
      "inputs": [],
      "name": "InvalidShortString",
      "type": "error"
    },
    {
      "inputs": [],
      "name": "NotInMerkle",
      "type": "error"
    },
    {
      "inputs": [
        {
          "internalType": "string",
          "name": "str",
          "type": "string"
        }
      ],
      "name": "StringTooLong",
      "type": "error"
    },
    {
      "inputs": [],
      "name": "TooManyMetadatas",
      "type": "error"
    },
    {
      "anonymous": false,
      "inputs": [],
      "name": "ContestCanceled",
      "type": "event"
    },
    {
      "anonymous": false,
      "inputs": [
        {
          "indexed": false,
          "internalType": "uint256",
          "name": "oldContestStart",
          "type": "uint256"
        },
        {
          "indexed": false,
          "internalType": "uint256",
          "name": "newContestStart",
          "type": "uint256"
        }
      ],
      "name": "ContestStartSet",
      "type": "event"
    },
    {
      "anonymous": false,
      "inputs": [
        {
          "indexed": false,
          "internalType": "address",
          "name": "oldCreator",
          "type": "address"
        },
        {
          "indexed": false,
          "internalType": "address",
          "name": "newCreator",
          "type": "address"
        }
      ],
      "name": "CreatorSet",
      "type": "event"
    },
    {
      "anonymous": false,
      "inputs": [
        {
          "indexed": false,
          "internalType": "uint256",
          "name": "oldDownvotingAllowed",
          "type": "uint256"
        },
        {
          "indexed": false,
          "internalType": "uint256",
          "name": "newDownvotingAllowed",
          "type": "uint256"
        }
      ],
      "name": "DownvotingAllowedSet",
      "type": "event"
    },
    {
      "anonymous": false,
      "inputs": [],
      "name": "EIP712DomainChanged",
      "type": "event"
    },
    {
      "anonymous": false,
      "inputs": [
        {
          "indexed": false,
          "internalType": "uint256",
          "name": "oldMaxProposalCount",
          "type": "uint256"
        },
        {
          "indexed": false,
          "internalType": "uint256",
          "name": "newMaxProposalCount",
          "type": "uint256"
        }
      ],
      "name": "MaxProposalCountSet",
      "type": "event"
    },
    {
      "anonymous": false,
      "inputs": [
        {
          "indexed": false,
          "internalType": "uint256",
          "name": "oldNumAllowedProposalSubmissions",
          "type": "uint256"
        },
        {
          "indexed": false,
          "internalType": "uint256",
          "name": "newNumAllowedProposalSubmissions",
          "type": "uint256"
        }
      ],
      "name": "NumAllowedProposalSubmissionsSet",
      "type": "event"
    },
    {
      "anonymous": false,
      "inputs": [
        {
          "indexed": false,
          "internalType": "contract RewardsModule",
          "name": "oldOfficialRewardsModule",
          "type": "address"
        },
        {
          "indexed": false,
          "internalType": "contract RewardsModule",
          "name": "newOfficialRewardsModule",
          "type": "address"
        }
      ],
      "name": "OfficialRewardsModuleSet",
      "type": "event"
    },
    {
      "anonymous": false,
      "inputs": [
        {
          "indexed": false,
          "internalType": "uint256",
          "name": "proposalId",
          "type": "uint256"
        },
        {
          "indexed": false,
          "internalType": "address",
          "name": "proposer",
          "type": "address"
        }
      ],
      "name": "ProposalCreated",
      "type": "event"
    },
    {
      "anonymous": false,
      "inputs": [
        {
          "indexed": false,
          "internalType": "uint256[]",
          "name": "proposalIds",
          "type": "uint256[]"
        }
      ],
      "name": "ProposalsDeleted",
      "type": "event"
    },
    {
      "anonymous": false,
      "inputs": [
        {
          "indexed": true,
          "internalType": "address",
          "name": "voter",
          "type": "address"
        },
        {
          "indexed": false,
          "internalType": "uint256",
          "name": "proposalId",
          "type": "uint256"
        },
        {
          "indexed": false,
          "internalType": "uint8",
          "name": "support",
          "type": "uint8"
        },
        {
          "indexed": false,
          "internalType": "uint256",
          "name": "numVotes",
          "type": "uint256"
        }
      ],
      "name": "VoteCast",
      "type": "event"
    },
    {
      "anonymous": false,
      "inputs": [
        {
          "indexed": false,
          "internalType": "uint256",
          "name": "oldVotingDelay",
          "type": "uint256"
        },
        {
          "indexed": false,
          "internalType": "uint256",
          "name": "newVotingDelay",
          "type": "uint256"
        }
      ],
      "name": "VotingDelaySet",
      "type": "event"
    },
    {
      "anonymous": false,
      "inputs": [
        {
          "indexed": false,
          "internalType": "uint256",
          "name": "oldVotingPeriod",
          "type": "uint256"
        },
        {
          "indexed": false,
          "internalType": "uint256",
          "name": "newVotingPeriod",
          "type": "uint256"
        }
      ],
      "name": "VotingPeriodSet",
      "type": "event"
    },
    {
      "inputs": [],
      "name": "AMOUNT_FOR_SUMBITTER_PROOF",
      "outputs": [
        {
          "internalType": "uint256",
          "name": "",
          "type": "uint256"
        }
      ],
      "stateMutability": "view",
      "type": "function"
    },
    {
      "inputs": [],
      "name": "METADATAS_COUNT",
      "outputs": [
        {
          "internalType": "uint256",
          "name": "",
          "type": "uint256"
        }
      ],
      "stateMutability": "view",
      "type": "function"
    },
    {
      "inputs": [
        {
          "internalType": "address",
          "name": "",
          "type": "address"
        }
      ],
      "name": "addressSubmitterVerified",
      "outputs": [
        {
          "internalType": "bool",
          "name": "",
          "type": "bool"
        }
      ],
      "stateMutability": "view",
      "type": "function"
    },
    {
      "inputs": [
        {
          "internalType": "address",
          "name": "",
          "type": "address"
        }
      ],
      "name": "addressTotalCastVoteCounts",
      "outputs": [
        {
          "internalType": "uint256",
          "name": "",
          "type": "uint256"
        }
      ],
      "stateMutability": "view",
      "type": "function"
    },
    {
      "inputs": [
        {
          "internalType": "address",
          "name": "",
          "type": "address"
        }
      ],
      "name": "addressTotalVotes",
      "outputs": [
        {
          "internalType": "uint256",
          "name": "",
          "type": "uint256"
        }
      ],
      "stateMutability": "view",
      "type": "function"
    },
    {
      "inputs": [
        {
          "internalType": "address",
          "name": "",
          "type": "address"
        }
      ],
      "name": "addressTotalVotesVerified",
      "outputs": [
        {
          "internalType": "bool",
          "name": "",
          "type": "bool"
        }
      ],
      "stateMutability": "view",
      "type": "function"
    },
    {
      "inputs": [],
      "name": "allProposalTotalVotes",
      "outputs": [
        {
          "internalType": "uint256[]",
          "name": "proposalIdsReturn",
          "type": "uint256[]"
        },
        {
          "components": [
            {
              "internalType": "uint256",
              "name": "forVotes",
              "type": "uint256"
            },
            {
              "internalType": "uint256",
              "name": "againstVotes",
              "type": "uint256"
            }
          ],
          "internalType": "struct GovernorCountingSimple.VoteCounts[]",
          "name": "proposalVoteCountsArrayReturn",
          "type": "tuple[]"
        }
      ],
      "stateMutability": "view",
      "type": "function"
    },
    {
      "inputs": [],
      "name": "allProposalTotalVotesWithoutDeleted",
      "outputs": [
        {
          "internalType": "uint256[]",
          "name": "proposalIdsReturn",
          "type": "uint256[]"
        },
        {
          "components": [
            {
              "internalType": "uint256",
              "name": "forVotes",
              "type": "uint256"
            },
            {
              "internalType": "uint256",
              "name": "againstVotes",
              "type": "uint256"
            }
          ],
          "internalType": "struct GovernorCountingSimple.VoteCounts[]",
          "name": "proposalVoteCountsArrayReturn",
          "type": "tuple[]"
        }
      ],
      "stateMutability": "view",
      "type": "function"
    },
    {
      "inputs": [],
      "name": "cancel",
      "outputs": [],
      "stateMutability": "nonpayable",
      "type": "function"
    },
    {
      "inputs": [
        {
          "internalType": "uint256",
          "name": "proposalId",
          "type": "uint256"
        },
        {
          "internalType": "uint8",
          "name": "support",
          "type": "uint8"
        },
        {
          "internalType": "uint256",
          "name": "totalVotes",
          "type": "uint256"
        },
        {
          "internalType": "uint256",
          "name": "numVotes",
          "type": "uint256"
        },
        {
          "internalType": "bytes32[]",
          "name": "proof",
          "type": "bytes32[]"
        }
      ],
      "name": "castVote",
      "outputs": [
        {
          "internalType": "uint256",
          "name": "",
          "type": "uint256"
        }
      ],
      "stateMutability": "nonpayable",
      "type": "function"
    },
    {
      "inputs": [
        {
          "internalType": "uint256",
          "name": "proposalId",
          "type": "uint256"
        },
        {
          "internalType": "uint8",
          "name": "support",
          "type": "uint8"
        },
        {
          "internalType": "uint256",
          "name": "numVotes",
          "type": "uint256"
        }
      ],
      "name": "castVoteWithoutProof",
      "outputs": [
        {
          "internalType": "uint256",
          "name": "",
          "type": "uint256"
        }
      ],
      "stateMutability": "nonpayable",
      "type": "function"
    },
    {
      "inputs": [
        {
          "internalType": "address",
          "name": "addressToCheck",
          "type": "address"
        },
        {
          "internalType": "uint256",
          "name": "amount",
          "type": "uint256"
        },
        {
          "internalType": "bytes32[]",
          "name": "proof",
          "type": "bytes32[]"
        },
        {
          "internalType": "bool",
          "name": "voting",
          "type": "bool"
        }
      ],
      "name": "checkProof",
      "outputs": [
        {
          "internalType": "bool",
          "name": "verified",
          "type": "bool"
        }
      ],
      "stateMutability": "view",
      "type": "function"
    },
    {
      "inputs": [
        {
          "internalType": "address",
          "name": "userAddress",
          "type": "address"
        }
      ],
      "name": "contestAddressTotalVotesCast",
      "outputs": [
        {
          "internalType": "uint256",
          "name": "userTotalVotesCast",
          "type": "uint256"
        }
      ],
      "stateMutability": "view",
      "type": "function"
    },
    {
      "inputs": [],
      "name": "contestDeadline",
      "outputs": [
        {
          "internalType": "uint256",
          "name": "",
          "type": "uint256"
        }
      ],
      "stateMutability": "view",
      "type": "function"
    },
    {
      "inputs": [],
      "name": "contestStart",
      "outputs": [
        {
          "internalType": "uint256",
          "name": "",
          "type": "uint256"
        }
      ],
      "stateMutability": "view",
      "type": "function"
    },
    {
      "inputs": [],
      "name": "creator",
      "outputs": [
        {
          "internalType": "address",
          "name": "",
          "type": "address"
        }
      ],
      "stateMutability": "view",
      "type": "function"
    },
    {
      "inputs": [
        {
          "internalType": "uint256[]",
          "name": "proposalIds",
          "type": "uint256[]"
        }
      ],
      "name": "deleteProposals",
      "outputs": [],
      "stateMutability": "nonpayable",
      "type": "function"
    },
    {
      "inputs": [],
      "name": "downvotingAllowed",
      "outputs": [
        {
          "internalType": "uint256",
          "name": "",
          "type": "uint256"
        }
      ],
      "stateMutability": "view",
      "type": "function"
    },
    {
      "inputs": [],
      "name": "eip712Domain",
      "outputs": [
        {
          "internalType": "bytes1",
          "name": "fields",
          "type": "bytes1"
        },
        {
          "internalType": "string",
          "name": "name",
          "type": "string"
        },
        {
          "internalType": "string",
          "name": "version",
          "type": "string"
        },
        {
          "internalType": "uint256",
          "name": "chainId",
          "type": "uint256"
        },
        {
          "internalType": "address",
          "name": "verifyingContract",
          "type": "address"
        },
        {
          "internalType": "bytes32",
          "name": "salt",
          "type": "bytes32"
        },
        {
          "internalType": "uint256[]",
          "name": "extensions",
          "type": "uint256[]"
        }
      ],
      "stateMutability": "view",
      "type": "function"
    },
    {
      "inputs": [],
      "name": "getAllAddressesThatHaveVoted",
      "outputs": [
        {
          "internalType": "address[]",
          "name": "",
          "type": "address[]"
        }
      ],
      "stateMutability": "view",
      "type": "function"
    },
    {
      "inputs": [],
      "name": "getAllDeletedProposalIds",
      "outputs": [
        {
          "internalType": "uint256[]",
          "name": "",
          "type": "uint256[]"
        }
      ],
      "stateMutability": "view",
      "type": "function"
    },
    {
      "inputs": [],
      "name": "getAllProposalAuthors",
      "outputs": [
        {
          "internalType": "address[]",
          "name": "",
          "type": "address[]"
        }
      ],
      "stateMutability": "view",
      "type": "function"
    },
    {
      "inputs": [],
      "name": "getAllProposalIds",
      "outputs": [
        {
          "internalType": "uint256[]",
          "name": "",
          "type": "uint256[]"
        }
      ],
      "stateMutability": "view",
      "type": "function"
    },
    {
      "inputs": [
        {
          "internalType": "address",
          "name": "account",
          "type": "address"
        }
      ],
      "name": "getNumSubmissions",
      "outputs": [
        {
          "internalType": "uint256",
          "name": "",
          "type": "uint256"
        }
      ],
      "stateMutability": "view",
      "type": "function"
    },
    {
      "inputs": [
        {
          "internalType": "uint256",
          "name": "proposalId",
          "type": "uint256"
        }
      ],
      "name": "getProposal",
      "outputs": [
        {
          "components": [
            {
              "internalType": "address",
              "name": "author",
              "type": "address"
            },
            {
              "internalType": "bool",
              "name": "exists",
              "type": "bool"
            },
            {
              "internalType": "string",
              "name": "description",
              "type": "string"
            },
            {
              "components": [
                {
                  "internalType": "address",
                  "name": "targetAddress",
                  "type": "address"
                }
              ],
              "internalType": "struct IGovernor.TargetMetadata",
              "name": "targetMetadata",
              "type": "tuple"
            },
            {
              "components": [
                {
                  "internalType": "address[]",
                  "name": "signers",
                  "type": "address[]"
                },
                {
                  "internalType": "uint256",
                  "name": "threshold",
                  "type": "uint256"
                }
              ],
              "internalType": "struct IGovernor.SafeMetadata",
              "name": "safeMetadata",
              "type": "tuple"
            }
          ],
          "internalType": "struct IGovernor.ProposalCore",
          "name": "",
          "type": "tuple"
        }
      ],
      "stateMutability": "view",
      "type": "function"
    },
    {
      "inputs": [
        {
          "components": [
            {
              "internalType": "address",
              "name": "author",
              "type": "address"
            },
            {
              "internalType": "bool",
              "name": "exists",
              "type": "bool"
            },
            {
              "internalType": "string",
              "name": "description",
              "type": "string"
            },
            {
              "components": [
                {
                  "internalType": "address",
                  "name": "targetAddress",
                  "type": "address"
                }
              ],
              "internalType": "struct IGovernor.TargetMetadata",
              "name": "targetMetadata",
              "type": "tuple"
            },
            {
              "components": [
                {
                  "internalType": "address[]",
                  "name": "signers",
                  "type": "address[]"
                },
                {
                  "internalType": "uint256",
                  "name": "threshold",
                  "type": "uint256"
                }
              ],
              "internalType": "struct IGovernor.SafeMetadata",
              "name": "safeMetadata",
              "type": "tuple"
            }
          ],
          "internalType": "struct IGovernor.ProposalCore",
          "name": "proposal",
          "type": "tuple"
        }
      ],
      "name": "hashProposal",
      "outputs": [
        {
          "internalType": "uint256",
          "name": "",
          "type": "uint256"
        }
      ],
      "stateMutability": "pure",
      "type": "function"
    },
    {
      "inputs": [],
      "name": "highestTiedRanking",
      "outputs": [
        {
          "internalType": "uint256",
          "name": "",
          "type": "uint256"
        }
      ],
      "stateMutability": "view",
      "type": "function"
    },
    {
      "inputs": [
        {
          "internalType": "uint256",
          "name": "proposalId",
          "type": "uint256"
        }
      ],
      "name": "isProposalDeleted",
      "outputs": [
        {
          "internalType": "bool",
          "name": "",
          "type": "bool"
        }
      ],
      "stateMutability": "view",
      "type": "function"
    },
    {
      "inputs": [
        {
          "internalType": "uint256",
          "name": "ranking",
          "type": "uint256"
        }
      ],
      "name": "isTied",
      "outputs": [
        {
          "internalType": "bool",
          "name": "",
          "type": "bool"
        }
      ],
      "stateMutability": "view",
      "type": "function"
    },
    {
      "inputs": [],
      "name": "lowestRanking",
      "outputs": [
        {
          "internalType": "uint256",
          "name": "",
          "type": "uint256"
        }
      ],
      "stateMutability": "view",
      "type": "function"
    },
    {
      "inputs": [],
      "name": "maxProposalCount",
      "outputs": [
        {
          "internalType": "uint256",
          "name": "",
          "type": "uint256"
        }
      ],
      "stateMutability": "view",
      "type": "function"
    },
    {
      "inputs": [],
      "name": "name",
      "outputs": [
        {
          "internalType": "string",
          "name": "",
          "type": "string"
        }
      ],
      "stateMutability": "view",
      "type": "function"
    },
    {
      "inputs": [],
      "name": "numAllowedProposalSubmissions",
      "outputs": [
        {
          "internalType": "uint256",
          "name": "",
          "type": "uint256"
        }
      ],
      "stateMutability": "view",
      "type": "function"
    },
    {
      "inputs": [],
      "name": "officialRewardsModule",
      "outputs": [
        {
          "internalType": "contract RewardsModule",
          "name": "",
          "type": "address"
        }
      ],
      "stateMutability": "view",
      "type": "function"
    },
    {
      "inputs": [],
      "name": "prompt",
      "outputs": [
        {
          "internalType": "string",
          "name": "",
          "type": "string"
        }
      ],
      "stateMutability": "view",
      "type": "function"
    },
    {
      "inputs": [
        {
          "internalType": "uint256",
          "name": "proposalId",
          "type": "uint256"
        },
        {
          "internalType": "address",
          "name": "userAddress",
          "type": "address"
        }
      ],
      "name": "proposalAddressVotes",
      "outputs": [
        {
          "internalType": "uint256",
          "name": "forVotes",
          "type": "uint256"
        },
        {
          "internalType": "uint256",
          "name": "againstVotes",
          "type": "uint256"
        }
      ],
      "stateMutability": "view",
      "type": "function"
    },
    {
      "inputs": [
        {
          "internalType": "uint256",
          "name": "proposalId",
          "type": "uint256"
        }
      ],
      "name": "proposalAddressesHaveVoted",
      "outputs": [
        {
          "internalType": "address[]",
          "name": "",
          "type": "address[]"
        }
      ],
      "stateMutability": "view",
      "type": "function"
    },
    {
      "inputs": [
        {
          "internalType": "uint256",
          "name": "proposalId",
          "type": "uint256"
        }
      ],
      "name": "proposalVotes",
      "outputs": [
        {
          "internalType": "uint256",
          "name": "forVotes",
          "type": "uint256"
        },
        {
          "internalType": "uint256",
          "name": "againstVotes",
          "type": "uint256"
        }
      ],
      "stateMutability": "view",
      "type": "function"
    },
    {
      "inputs": [
        {
          "internalType": "uint256",
          "name": "",
          "type": "uint256"
        }
      ],
      "name": "proposalVotesStructs",
      "outputs": [
        {
          "components": [
            {
              "internalType": "uint256",
              "name": "forVotes",
              "type": "uint256"
            },
            {
              "internalType": "uint256",
              "name": "againstVotes",
              "type": "uint256"
            }
          ],
          "internalType": "struct GovernorCountingSimple.VoteCounts",
          "name": "proposalVoteCounts",
          "type": "tuple"
        }
      ],
      "stateMutability": "view",
      "type": "function"
    },
    {
      "inputs": [
        {
          "components": [
            {
              "internalType": "address",
              "name": "author",
              "type": "address"
            },
            {
              "internalType": "bool",
              "name": "exists",
              "type": "bool"
            },
            {
              "internalType": "string",
              "name": "description",
              "type": "string"
            },
            {
              "components": [
                {
                  "internalType": "address",
                  "name": "targetAddress",
                  "type": "address"
                }
              ],
              "internalType": "struct IGovernor.TargetMetadata",
              "name": "targetMetadata",
              "type": "tuple"
            },
            {
              "components": [
                {
                  "internalType": "address[]",
                  "name": "signers",
                  "type": "address[]"
                },
                {
                  "internalType": "uint256",
                  "name": "threshold",
                  "type": "uint256"
                }
              ],
              "internalType": "struct IGovernor.SafeMetadata",
              "name": "safeMetadata",
              "type": "tuple"
            }
          ],
          "internalType": "struct IGovernor.ProposalCore",
          "name": "proposal",
          "type": "tuple"
        },
        {
          "internalType": "bytes32[]",
          "name": "proof",
          "type": "bytes32[]"
        }
      ],
      "name": "propose",
      "outputs": [
        {
          "internalType": "uint256",
          "name": "",
          "type": "uint256"
        }
      ],
      "stateMutability": "nonpayable",
      "type": "function"
    },
    {
      "inputs": [
        {
          "components": [
            {
              "internalType": "address",
              "name": "author",
              "type": "address"
            },
            {
              "internalType": "bool",
              "name": "exists",
              "type": "bool"
            },
            {
              "internalType": "string",
              "name": "description",
              "type": "string"
            },
            {
              "components": [
                {
                  "internalType": "address",
                  "name": "targetAddress",
                  "type": "address"
                }
              ],
              "internalType": "struct IGovernor.TargetMetadata",
              "name": "targetMetadata",
              "type": "tuple"
            },
            {
              "components": [
                {
                  "internalType": "address[]",
                  "name": "signers",
                  "type": "address[]"
                },
                {
                  "internalType": "uint256",
                  "name": "threshold",
                  "type": "uint256"
                }
              ],
              "internalType": "struct IGovernor.SafeMetadata",
              "name": "safeMetadata",
              "type": "tuple"
            }
          ],
          "internalType": "struct IGovernor.ProposalCore",
          "name": "proposal",
          "type": "tuple"
        }
      ],
      "name": "proposeWithoutProof",
      "outputs": [
        {
          "internalType": "uint256",
          "name": "",
          "type": "uint256"
        }
      ],
      "stateMutability": "nonpayable",
      "type": "function"
    },
    {
      "inputs": [
        {
          "internalType": "uint256",
          "name": "ranking",
          "type": "uint256"
        }
      ],
      "name": "rankingPosition",
      "outputs": [
        {
          "internalType": "uint256",
          "name": "",
          "type": "uint256"
        }
      ],
      "stateMutability": "view",
      "type": "function"
    },
    {
      "inputs": [
        {
          "internalType": "contract RewardsModule",
          "name": "officialRewardsModule_",
          "type": "address"
        }
      ],
      "name": "setOfficialRewardsModule",
      "outputs": [],
      "stateMutability": "nonpayable",
      "type": "function"
    },
    {
      "inputs": [],
      "name": "setSortedAndTiedProposals",
      "outputs": [],
      "stateMutability": "nonpayable",
      "type": "function"
    },
    {
      "inputs": [],
      "name": "setSortedAndTiedProposalsHasBeenRun",
      "outputs": [
        {
          "internalType": "bool",
          "name": "",
          "type": "bool"
        }
      ],
      "stateMutability": "view",
      "type": "function"
    },
    {
      "inputs": [],
      "name": "sortedProposalIds",
      "outputs": [
        {
          "internalType": "uint256[]",
          "name": "",
          "type": "uint256[]"
        }
      ],
      "stateMutability": "view",
      "type": "function"
    },
    {
      "inputs": [
        {
          "internalType": "bool",
          "name": "excludeDeletedProposals",
          "type": "bool"
        }
      ],
      "name": "sortedProposals",
      "outputs": [
        {
          "internalType": "uint256[]",
          "name": "sortedProposalIdsReturn",
          "type": "uint256[]"
        }
      ],
      "stateMutability": "view",
      "type": "function"
    },
    {
      "inputs": [],
      "name": "state",
      "outputs": [
        {
          "internalType": "enum IGovernor.ContestState",
          "name": "",
          "type": "uint8"
        }
      ],
      "stateMutability": "view",
      "type": "function"
    },
    {
      "inputs": [],
      "name": "submissionMerkleRoot",
      "outputs": [
        {
          "internalType": "bytes32",
          "name": "",
          "type": "bytes32"
        }
      ],
      "stateMutability": "view",
      "type": "function"
    },
    {
      "inputs": [
        {
          "internalType": "bytes4",
          "name": "interfaceId",
          "type": "bytes4"
        }
      ],
      "name": "supportsInterface",
      "outputs": [
        {
          "internalType": "bool",
          "name": "",
          "type": "bool"
        }
      ],
      "stateMutability": "view",
      "type": "function"
    },
    {
      "inputs": [
        {
          "internalType": "uint256",
          "name": "",
          "type": "uint256"
        }
      ],
      "name": "tiedAdjustedRankingPosition",
      "outputs": [
        {
          "internalType": "uint256",
          "name": "",
          "type": "uint256"
        }
      ],
      "stateMutability": "view",
      "type": "function"
    },
    {
      "inputs": [],
      "name": "totalVotesCast",
      "outputs": [
        {
          "internalType": "uint256",
          "name": "",
          "type": "uint256"
        }
      ],
      "stateMutability": "view",
      "type": "function"
    },
    {
      "inputs": [
        {
          "components": [
            {
              "internalType": "address",
              "name": "author",
              "type": "address"
            },
            {
              "internalType": "bool",
              "name": "exists",
              "type": "bool"
            },
            {
              "internalType": "string",
              "name": "description",
              "type": "string"
            },
            {
              "components": [
                {
                  "internalType": "address",
                  "name": "targetAddress",
                  "type": "address"
                }
              ],
              "internalType": "struct IGovernor.TargetMetadata",
              "name": "targetMetadata",
              "type": "tuple"
            },
            {
              "components": [
                {
                  "internalType": "address[]",
                  "name": "signers",
                  "type": "address[]"
                },
                {
                  "internalType": "uint256",
                  "name": "threshold",
                  "type": "uint256"
                }
              ],
              "internalType": "struct IGovernor.SafeMetadata",
              "name": "safeMetadata",
              "type": "tuple"
            }
          ],
          "internalType": "struct IGovernor.ProposalCore",
          "name": "proposal",
          "type": "tuple"
        }
      ],
      "name": "validateProposalData",
      "outputs": [
        {
          "internalType": "bool",
          "name": "dataValidated",
          "type": "bool"
        }
      ],
      "stateMutability": "nonpayable",
      "type": "function"
    },
    {
      "inputs": [
        {
          "internalType": "address",
          "name": "account",
          "type": "address"
        },
        {
          "internalType": "bytes32[]",
          "name": "proof",
          "type": "bytes32[]"
        }
      ],
      "name": "verifyProposer",
      "outputs": [
        {
          "internalType": "bool",
          "name": "verified",
          "type": "bool"
        }
      ],
      "stateMutability": "nonpayable",
      "type": "function"
    },
    {
      "inputs": [
        {
          "internalType": "address",
          "name": "account",
          "type": "address"
        },
        {
          "internalType": "uint256",
          "name": "totalVotes",
          "type": "uint256"
        },
        {
          "internalType": "bytes32[]",
          "name": "proof",
          "type": "bytes32[]"
        }
      ],
      "name": "verifyVoter",
      "outputs": [
        {
          "internalType": "bool",
          "name": "verified",
          "type": "bool"
        }
      ],
      "stateMutability": "nonpayable",
      "type": "function"
    },
    {
      "inputs": [],
      "name": "version",
      "outputs": [
        {
          "internalType": "string",
          "name": "",
          "type": "string"
        }
      ],
      "stateMutability": "view",
      "type": "function"
    },
    {
      "inputs": [],
      "name": "voteStart",
      "outputs": [
        {
          "internalType": "uint256",
          "name": "",
          "type": "uint256"
        }
      ],
      "stateMutability": "view",
      "type": "function"
    },
    {
      "inputs": [],
      "name": "votingDelay",
      "outputs": [
        {
          "internalType": "uint256",
          "name": "",
          "type": "uint256"
        }
      ],
      "stateMutability": "view",
      "type": "function"
    },
    {
      "inputs": [],
      "name": "votingMerkleRoot",
      "outputs": [
        {
          "internalType": "bytes32",
          "name": "",
          "type": "bytes32"
        }
      ],
      "stateMutability": "view",
      "type": "function"
    },
    {
      "inputs": [],
      "name": "votingPeriod",
      "outputs": [
        {
          "internalType": "uint256",
          "name": "",
          "type": "uint256"
        }
      ],
      "stateMutability": "view",
      "type": "function"
    }
  ],
  "bytecode": {
    "object": "0x6101a06040526019805460ff191690553480156200001c57600080fd5b5060405162004805380380620048058339810160408190526200003f9162000622565b8060008151811062000055576200005562000733565b60200260200101518160018151811062000073576200007362000733565b60200260200101518260028151811062000091576200009162000733565b602002602001015183600381518110620000af57620000af62000733565b602002602001015184600481518110620000cd57620000cd62000733565b602002602001015185600581518110620000eb57620000eb62000733565b60200260200101518a8a8a8a8181856200010a6200025060201b60201c565b620001178260006200026e565b61012052620001288160016200026e565b61014052815160208084019190912060e052815190820120610100524660a052620001b660e05161010051604080517f8b73c3c69bb8fe3d512ecc4cf759cc79239f7b179b0ffacaa9a75d522b39400f60208201529081019290925260608201524660808201523060a082015260009060c00160405160208183030381529060405280519060200120905090565b60805250503060c05261016091909152610180526008620001d88582620007d8565b506009620001e78482620007d8565b5050505050620001fd86620002a760201b60201c565b6200020885620002e8565b620002138462000329565b6200021e83620003d0565b620002298262000411565b620002348162000452565b6200023f3362000493565b5050505050505050505050620008fe565b604080518082019091526004815263332e313560e01b602082015290565b60006020835110156200028e576200028683620004fc565b9050620002a1565b816200029b8482620007d8565b5060ff90505b92915050565b600f5460408051918252602082018390527fd299feb1d7d9345a48559601c471c3be7eea9a11f21d5e86809198f40a974db4910160405180910390a1600f55565b60105460408051918252602082018390527fc565b045403dc03c2eea82b81a0465edad9e2e7fc4d97e11421c209da93d7a93910160405180910390a1601055565b600081116200038f5760405162461bcd60e51b815260206004820152602760248201527f476f7665726e6f7253657474696e67733a20766f74696e6720706572696f6420604482015266746f6f206c6f7760c81b60648201526084015b60405180910390fd5b60115460408051918252602082018390527f7e3f7f0708a84de9203036abaa450dccc85ad5ff52f78c170f3edb55cf5e8828910160405180910390a1601155565b60125460408051918252602082018390527fe971b819c7fb95c72451f557226aceb5baaf4994a9d39a79bbfa0040e87500b9910160405180910390a1601255565b60135460408051918252602082018390527f4984ec996723330ee95979ed65a2a4b41edd914e68a187efe92596474643bdff910160405180910390a1601355565b60145460408051918252602082018390527f9c7b27f091caef3a83be73d89320404fa0c4a52993685ff0651672e49e6e55ab910160405180910390a1601455565b601554604080516001600160a01b03928316815291831660208301527fc30034fc2e9697980e08935bbc287db3eaa44a4aa113ef4c108b356adbf911ce910160405180910390a1601580546001600160a01b0319166001600160a01b0392909216919091179055565b600080829050601f815111156200052a578260405163305a27a960e01b8152600401620003869190620008a4565b80516200053782620008d9565b179392505050565b634e487b7160e01b600052604160045260246000fd5b604051601f8201601f191681016001600160401b03811182821017156200058057620005806200053f565b604052919050565b60005b83811015620005a55781810151838201526020016200058b565b50506000910152565b600082601f830112620005c057600080fd5b81516001600160401b03811115620005dc57620005dc6200053f565b620005f1601f8201601f191660200162000555565b8181528460208386010111156200060757600080fd5b6200061a82602083016020870162000588565b949350505050565b600080600080600060a086880312156200063b57600080fd5b85516001600160401b03808211156200065357600080fd5b6200066189838a01620005ae565b96506020915081880151818111156200067957600080fd5b620006878a828b01620005ae565b9650506040880151945060608801519350608088015181811115620006ab57600080fd5b8801601f81018a13620006bd57600080fd5b805182811115620006d257620006d26200053f565b8060051b9250620006e584840162000555565b818152928201840192848101908c8511156200070057600080fd5b928501925b84841015620007205783518252928501929085019062000705565b8096505050505050509295509295909350565b634e487b7160e01b600052603260045260246000fd5b600181811c908216806200075e57607f821691505b6020821081036200077f57634e487b7160e01b600052602260045260246000fd5b50919050565b601f821115620007d357600081815260208120601f850160051c81016020861015620007ae5750805b601f850160051c820191505b81811015620007cf57828155600101620007ba565b5050505b505050565b81516001600160401b03811115620007f457620007f46200053f565b6200080c8162000805845462000749565b8462000785565b602080601f8311600181146200084457600084156200082b5750858301515b600019600386901b1c1916600185901b178555620007cf565b600085815260208120601f198616915b82811015620008755788860151825594840194600190910190840162000854565b5085821015620008945787850151600019600388901b60f8161c191681555b5050505050600190811b01905550565b6020815260008251806020840152620008c581604085016020870162000588565b601f01601f19169190910160400192915050565b805160208083015191908110156200077f5760001960209190910360031b1b16919050565b60805160a05160c05160e0516101005161012051610140516101605161018051613e896200097c600039600081816107e20152610c2f01526000818161073b01528181610a1601528181610bca0152610f2c015260006112e4015260006112ba01526000505060005050600050506000505060005050613e896000f3fe608060405234801561001057600080fd5b50600436106103a35760003560e01c80637c65d711116101e9578063c7f758a81161010f578063e5eb5a48116100ad578063f0a7db0a1161007c578063f0a7db0a14610864578063f4f3d7ec14610877578063fb8ddab41461088a578063fb9bf8d41461089d57600080fd5b8063e5eb5a481461082c578063ea8a1af01461084c578063ebc18b9b14610854578063efa90d361461085c57600080fd5b8063d8891619116100e9578063d8891619146107d0578063dd96a19d146107dd578063dea5f6a614610804578063e031535b1461082457600080fd5b8063c7f758a814610785578063cb853950146107a5578063d45a010b146107c857600080fd5b8063946369b511610187578063b323580d11610156578063b323580d14610723578063bddc164114610736578063c0ffaa781461075d578063c19d93fb1461077057600080fd5b8063946369b5146106c857806396f0e962146106d0578063a1ac6cb2146106da578063aec116b6146106fa57600080fd5b806384b0196e116101c357806384b0196e1461066f578063861874881461068a5780638a9cd5501461069d578063930de979146106a557600080fd5b80637c65d711146106565780637de418d51461065e578063832009af1461066757600080fd5b8063419c533c116102ce578063544ffc9c1161026c57806365f162631161023b57806365f16263146106175780636ca1a2c71461062a5780636e4eb81014610632578063785ddfe51461064557600080fd5b8063544ffc9c1461058957806354fd4d50146105c65780635f953a03146105e657806360506ff61461060f57600080fd5b8063476f4d8a116102a8578063476f4d8a146105455780634d24a67f1461055857806350a5e52414610560578063531bd8121461057657600080fd5b8063419c533c1461050c578063427d56c21461051f578063458da87d1461053257600080fd5b806320b3e8451161034657806332763c221161031557806332763c22146104bf578063347cf665146104d25780633932abb1146104e15780633b6d199b146104e957600080fd5b806320b3e8451461047c5780632399c6601461048f578063262e59e9146104a25780632c39805f146104aa57600080fd5b806302d05d3f1161038257806302d05d3f146103ee57806306fdde031461040e578063070dc5d9146104235780631242b7371461046757600080fd5b80624114a8146103a857806301ffc9a7146103c357806302a251a3146103e6575b600080fd5b6103b06108a5565b6040519081526020015b60405180910390f35b6103d66103d1366004613167565b6108b5565b60405190151581526020016103ba565b6103b06108ec565b6103f66108f7565b6040516001600160a01b0390911681526020016103ba565b61041661090b565b6040516103ba91906131d7565b61045a6104313660046131ea565b601860209081526000918252604091829020825180840190935280548352600101549082015281565b6040516103ba9190613203565b61046f61099d565b6040516103ba9190613255565b6103d661048a3660046132c4565b6109f4565b6103d661049d3660046131ea565b610a8a565b6103b0610ace565b6104b2610aea565b6040516103ba9190613318565b6103d66104cd36600461337a565b610b4b565b6103b0678ac7230489e8000081565b6103b0610c88565b6103d66104f73660046131ea565b60009081526007602052604090205460ff1690565b6103b061051a3660046133fb565b610c93565b61046f61052d36600461346b565b610d4f565b6103b0610540366004613722565b610ef7565b6103b061055336600461376e565b610f28565b6103b0610fb8565b610568610fc6565b6040516103ba9291906137a2565b6103d661058436600461380b565b6110cc565b6105b16105973660046131ea565b600090815260186020526040902080546001909101549091565b604080519283526020830191909152016103ba565b604080518082019091526004815263332e313560e01b6020820152610416565b6103b06105f4366004613866565b6001600160a01b03166000908152600c602052604090205490565b6103b0611137565b6103b0610625366004613883565b611142565b6103b0611231565b6105b16106403660046138b8565b61125d565b601f546001600160a01b03166103f6565b610416611292565b6103b060165481565b6103b06112a1565b6106776112ac565b6040516103ba97969594939291906138e8565b6103b06106983660046131ea565b611334565b61046f61136c565b6103d66106b3366004613866565b60036020526000908152604090205460ff1681565b6104b26113e5565b6106d8611445565b005b6103b06106e8366004613866565b60176020526000908152604090205481565b6103b0610708366004613866565b6001600160a01b031660009081526017602052604090205490565b6104b26107313660046131ea565b611762565b6103b07f000000000000000000000000000000000000000000000000000000000000000081565b6103b061076b366004613958565b6117d4565b610778611839565b6040516103ba91906139c9565b6107986107933660046131ea565b6118ab565b6040516103ba91906139f1565b6103d66107b3366004613866565b60046020526000908152604090205460ff1681565b610568611a25565b6019546103d69060ff1681565b6103b07f000000000000000000000000000000000000000000000000000000000000000081565b6103b0610812366004613866565b60026020526000908152604090205481565b6103b0611bf0565b6103b061083a3660046131ea565b601a6020526000908152604090205481565b6106d8611c02565b6103b0611d47565b61046f611d73565b6106d8610872366004613aa4565b611dc9565b6106d8610885366004613866565b611fda565b6103d6610898366004613722565b6120ec565b6103b061238b565b60006108b0600f5490565b905090565b60006001600160e01b031982166319cbae6160e11b14806108e657506301ffc9a760e01b6001600160e01b03198316145b92915050565b60006108b060115490565b60006108b06015546001600160a01b031690565b60606008805461091a90613ae5565b80601f016020809104026020016040519081016040528092919081815260200182805461094690613ae5565b80156109935780601f1061096857610100808354040283529160200191610993565b820191906000526020600020905b81548152906001019060200180831161097657829003601f168201915b5050505050905090565b6060600680548060200260200160405190810160405280929190818152602001828054801561099357602002820191906000526020600020905b8154815260200190600101908083116109d7575050505050905090565b6001600160a01b03831660009081526004602052604081205460ff16610a7f577f0000000000000000000000000000000000000000000000000000000000000000600003610a4457506001610a83565b610a5a84678ac7230489e8000085856000610b4b565b506001600160a01b0384166000908152600460205260409020805460ff191660011790555b5060015b9392505050565b60195460009060ff16610ab85760405162461bcd60e51b8152600401610aaf90613b19565b60405180910390fd5b506000908152601b602052604090205460ff1690565b6000610ad86108ec565b610ae0611bf0565b6108b09190613b9a565b6060600e80548060200260200160405190810160405280929190818152602001828054801561099357602002820191906000526020600020905b81546001600160a01b03168152600190910190602001808311610b24575050505050905090565b6040516bffffffffffffffffffffffff19606087901b166020820152603481018590526000908190605401604051602081830303815290604052805190602001209050600083610bfa57610bf58686808060200260200160405190810160405280939291908181526020018383602002808284376000920191909152507f000000000000000000000000000000000000000000000000000000000000000092508691506123969050565b610c5a565b610c5a8686808060200260200160405190810160405280939291908181526020018383602002808284376000920191909152507f000000000000000000000000000000000000000000000000000000000000000092508691506123969050565b905080610c7a5760405163452c2df160e11b815260040160405180910390fd5b506001979650505050505050565b60006108b060105490565b600086815260076020526040812054339060ff1615610cc45760405162461bcd60e51b8152600401610aaf90613bad565b610cd0818786866110cc565b610d375760405162461bcd60e51b815260206004820152603260248201527f476f7665726e6f723a20746869732061646472657373206973206e6f74207065604482015271726d697373696f6e656420746f20766f746560701b6064820152608401610aaf565b610d43888289886123ac565b98975050505050505050565b606060008083610d6657610d61610fc6565b610d6e565b610d6e611a25565b915091506000825111610dde5760405162461bcd60e51b815260206004820152603260248201527f476f7665726e6f72536f7274696e673a2063616e6e6f7420736f72742061206c6044820152710d2e6e840decc40f4cae4de40d8cadccee8d60731b6064820152608401610aaf565b600082516001600160401b03811115610df957610df9613486565b604051908082528060200260200182016040528015610e22578160200160208202803683370190505b50905060005b8251811015610eb657610e57838281518110610e4657610e46613bfc565b60200260200101516020015161260e565b610e7d848381518110610e6c57610e6c613bfc565b60200260200101516000015161260e565b610e879190613c12565b828281518110610e9957610e99613bfc565b602090810291909101015280610eae81613c39565b915050610e28565b5060005b60018451610ec89190613c52565b811015610eed57610eda81838661267c565b5080610ee581613c39565b915050610eba565b5091949350505050565b600081604051602001610f0a91906139f1565b60408051601f19818403018152919052805160209091012092915050565b60007f000000000000000000000000000000000000000000000000000000000000000015610f7f573360009081526004602052604090205460ff16610f7f5760405162461bcd60e51b8152600401610aaf90613c65565b610f8b61089883613cb4565b610fa75760405162461bcd60e51b8152600401610aaf90613cc0565b6108e6610fb383613cb4565b6127e2565b610fc3600180613b9a565b81565b6060806000610fd3611d73565b9050600081516001600160401b03811115610ff057610ff0613486565b60405190808252806020026020018201604052801561103557816020015b604080518082019091526000808252602082015281526020019060019003908161100e5790505b50905060005b82518110156110c2576018600084838151811061105a5761105a613bfc565b60200260200101518152602001908152602001600020600001604051806040016040529081600082015481526020016001820154815250508282815181106110a4576110a4613bfc565b602002602001018190525080806110ba90613c39565b91505061103b565b5090939092509050565b6001600160a01b03841660009081526003602052604081205460ff1661112c576110fa858585856001610b4b565b506001600160a01b038516600090815260026020908152604080832087905560039091529020805460ff191660011790555b506001949350505050565b60006108b060145490565b600083815260076020526040812054339060ff16156111735760405162461bcd60e51b8152600401610aaf90613bad565b6001600160a01b03811660009081526003602052604090205460ff1661121c5760405162461bcd60e51b815260206004820152605260248201527f476f7665726e6f723a20796f75206e65656420746f2063617374206120766f7460448201527f652077697468207468652070726f6f66206174206c65617374206f6e636520616064820152711b99081e5bdd481a185d995b89dd081e595d60721b608482015260a401610aaf565b611228858286866123ac565b95945050505050565b60195460009060ff166112565760405162461bcd60e51b8152600401610aaf90613b19565b50601d5490565b60008281526018602090815260408083206001600160a01b0385168452600301909152902080546001909101545b9250929050565b60606009805461091a90613ae5565b60006108b060125490565b6000606080828080836112df7f000000000000000000000000000000000000000000000000000000000000000083612bc3565b61130a7f00000000000000000000000000000000000000000000000000000000000000006001612bc3565b60408051600080825260208201909252600f60f81b9b939a50919850469750309650945092509050565b60195460009060ff166113595760405162461bcd60e51b8152600401610aaf90613b19565b506000908152601a602052604090205490565b60195460609060ff166113915760405162461bcd60e51b8152600401610aaf90613b19565b601c80548060200260200160405190810160405280929190818152602001828054801561099357602002820191906000526020600020908154815260200190600101908083116109d7575050505050905090565b6060600d805480602002602001604051908101604052809291908181526020018280548015610993576020028201919060005260206000209081546001600160a01b03168152600190910190602001808311610b24575050505050905090565b600461144f611839565b6004811115611460576114606139b3565b146114e35760405162461bcd60e51b815260206004820152604760248201527f476f7665726e6f72536f7274696e673a20636f6e74657374206d75737420626560448201527f20746f2063616c63756c61746520736f7274656420616e6420746965642070726064820152666f706f73616c7360c81b608482015260a401610aaf565b60195460ff16156115825760405162461bcd60e51b815260206004820152605f60248201527f476f7665726e6f72536f7274696e673a20736574536f72746564416e6454696560448201527f6450726f706f73616c7328292068617320616c7265616479206265656e20727560648201527f6e20616e642069747320726573706563746976652076616c7565732073657400608482015260a401610aaf565b61158c6001610d4f565b80516115a091601c91602090910190613045565b50601c546000906001906115b49082613b9a565b601e55601c5460005b8181101561174f57601c546000906115d790600190613c52565b9050600080611620601c6115eb8686613c52565b815481106115fb576115fb613bfc565b9060005260206000200154600090815260186020526040902080546001909101549091565b91509150600061162f8261260e565b6116388461260e565b6116429190613c12565b90508460000361167b57601c549097508790600103611672576000878152601a60205260409020849055601d8790555b5050505061173d565b8781036116d3576000878152601b602052604090205460ff166116b2576000878152601b60205260409020805460ff191660011790555b601c546116c0906001613b9a565b601e54036116ce57601e8790555b611705565b6116dd8585613c52565b6116e8906001613b9a565b6000888152601a60205260409020558661170181613c39565b9750505b601c54611713866001613b9a565b03611737576117228585613c52565b6000888152601a6020526040902055601d8790555b96505050505b8061174781613c39565b9150506115bd565b50506019805460ff191660011790555050565b60008181526018602090815260409182902060028101805484518185028101850190955280855260609492938301828280156117c757602002820191906000526020600020905b81546001600160a01b031681526001909101906020018083116117a9575b5050505050915050919050565b60006117e13384846109f4565b6117fd5760405162461bcd60e51b8152600401610aaf90613c65565b61180961089885613cb4565b6118255760405162461bcd60e51b8152600401610aaf90613cc0565b611831610fb385613cb4565b949350505050565b600a5460009060ff161561184d5750600290565b60006118576108a5565b905042811061186857600091505090565b6000611872611bf0565b90504281106118845760039250505090565b600061188e610ace565b90504281106118a1576001935050505090565b6004935050505090565b6118b361308c565b6000828152600b6020908152604091829020825160a08101845281546001600160a01b0381168252600160a01b900460ff16151592810192909252600181018054929391929184019161190590613ae5565b80601f016020809104026020016040519081016040528092919081815260200182805461193190613ae5565b801561197e5780601f106119535761010080835404028352916020019161197e565b820191906000526020600020905b81548152906001019060200180831161196157829003601f168201915b5050509183525050604080516020818101835260028501546001600160a01b03168252808401919091528151600385018054606093810283018401855282850181815294909501949193909284928491840182828015611a0757602002820191906000526020600020905b81546001600160a01b031681526001909101906020018083116119e9575b50505050508152602001600182015481525050815250509050919050565b6060806000611a32611d73565b9050600081516001600160401b03811115611a4f57611a4f613486565b604051908082528060200260200182016040528015611a78578160200160208202803683370190505b509050600082516001600160401b03811115611a9657611a96613486565b604051908082528060200260200182016040528015611adb57816020015b6040805180820190915260008082526020820152815260200190600190039081611ab45790505b5090506000805b8451811015611be457611b1d858281518110611b0057611b00613bfc565b602002602001015160009081526007602052604090205460ff1690565b611bd257848181518110611b3357611b33613bfc565b6020026020010151848381518110611b4d57611b4d613bfc565b60200260200101818152505060186000868381518110611b6f57611b6f613bfc565b6020026020010151815260200190815260200160002060000160405180604001604052908160008201548152602001600182015481525050838381518110611bb957611bb9613bfc565b6020908102919091010152611bcf600183613b9a565b91505b80611bdc81613c39565b915050611ae2565b50919590945092505050565b6000611bfa610c88565b610ae06108a5565b611c0a6108f7565b6001600160a01b0316336001600160a01b031614611c825760405162461bcd60e51b815260206004820152602f60248201527f476f7665726e6f723a206f6e6c79207468652063726561746f722063616e206360448201526e185b98d95b08184818dbdb9d195cdd608a1b6064820152608401610aaf565b6000611c8c611839565b90506002816004811115611ca257611ca26139b3565b14158015611cc257506004816004811115611cbf57611cbf6139b3565b14155b611d0e5760405162461bcd60e51b815260206004820152601c60248201527f476f7665726e6f723a20636f6e74657374206e6f7420616374697665000000006044820152606401610aaf565b600a805460ff191660011790556040517f4cd963a081760a54f571abc0f1db4dde31b4a07d8d6da3e844b8c6f47eeaaa4290600090a150565b60195460009060ff16611d6c5760405162461bcd60e51b8152600401610aaf90613b19565b50601e5490565b6060600580548060200260200160405190810160405280929190818152602001828054801561099357602002820191906000526020600020908154815260200190600101908083116109d7575050505050905090565b611dd16108f7565b6001600160a01b0316336001600160a01b031614611e575760405162461bcd60e51b815260206004820152603760248201527f476f7665726e6f723a206f6e6c792074686520636f6e7465737420637265617460448201527f6f722063616e2064656c6574652070726f706f73616c730000000000000000006064820152608401610aaf565b6004611e61611839565b6004811115611e7257611e726139b3565b03611ef75760405162461bcd60e51b815260206004820152604960248201527f476f7665726e6f723a2064656c6574696f6e206f662070726f706f73616c732060448201527f61667465722074686520656e64206f66206120636f6e74657374206973206e6f6064820152681d08185b1b1bddd95960ba1b608482015260a401610aaf565b60005b81811015611f9c576000838383818110611f1657611f16613bfc565b60209081029290920135600081815260079093526040909220549192505060ff16611f89576000818152600760205260408120805460ff191660019081179091556006805491820181559091527ff652222313e28459528d920b65115c16c04f3efc82aaedc97be59f3f377c0d3f018190555b5080611f9481613c39565b915050611efa565b507f75a75cf5c561892f4cc5b26c1b8e933849b42238c96dd073d080d1ae96c514168282604051611fce929190613d0c565b60405180910390a15050565b611fe26108f7565b6001600160a01b0316336001600160a01b03161461207d5760405162461bcd60e51b815260206004820152604c60248201527f476f7665726e6f724d6f64756c6552656769737472793a206f6e6c792074686560448201527f2063726561746f722063616e2073657420746865206f6666696369616c20726560648201526b7761726473206d6f64756c6560a01b608482015260a401610aaf565b6000612091601f546001600160a01b031690565b601f80546001600160a01b0319166001600160a01b0385811691821790925560408051928416835260208301919091529192507f753a2cf8d360cff631674504210913e48247f8e56b3e6d2006c2103d4095999f9101611fce565b80516000906001600160a01b031633146121615760405162461bcd60e51b815260206004820152603060248201527f476f7665726e6f723a207468652070726f706f73616c20617574686f72206d7560448201526f39ba1031329036b9b39739b2b73232b960811b6064820152608401610aaf565b60005b61216f600180613b9a565b81101561230f57600081600181111561218a5761218a6139b3565b905060008160018111156121a0576121a06139b3565b036121ab57506122fd565b60018160018111156121bf576121bf6139b3565b036122e257608084015151516000036122515760405162461bcd60e51b815260206004820152604860248201527f476f7665726e6f724d6574616461746156616c69646174696f6e3a207468657260448201527f652063616e6e6f74206265207a65726f207369676e65727320696e20736166656064820152674d6574616461746160c01b608482015260a401610aaf565b8360800151602001516000036122dd5760405162461bcd60e51b8152602060048201526044602482018190527f476f7665726e6f724d6574616461746156616c69646174696f6e3a2074687265908201527f73686f6c642063616e6e6f74206265207a65726f20696e20736166654d6574616064820152636461746160e01b608482015260a401610aaf565b6122fb565b6040516308b6566d60e11b815260040160405180910390fd5b505b8061230781613c39565b915050612164565b508160400151516000036123835760405162461bcd60e51b815260206004820152603560248201527f476f7665726e6f723a20656d7074792070726f706f73616c20646573637269706044820152741d1a5bdb9cc8185c99481b9bdd08185b1b1bddd959605a1b6064820152608401610aaf565b506001919050565b60006108b060135490565b6000826123a38584612c6f565b14949350505050565b600060016123b8611839565b60048111156123c9576123c96139b3565b146124225760405162461bcd60e51b815260206004820152602360248201527f476f7665726e6f723a20766f7465206e6f742063757272656e746c792061637460448201526269766560e81b6064820152608401610aaf565b600082116124865760405162461bcd60e51b815260206004820152602b60248201527f476f7665726e6f723a2063616e6e6f7420766f746520776974682030206f722060448201526a666577657220766f74657360a81b6064820152608401610aaf565b6001600160a01b03841660009081526003602052604090205460ff1661252c5760405162461bcd60e51b815260206004820152604f60248201527f476f7665726e6f723a20796f75206e65656420746f2076657269667920796f7560448201527f72206e756d626572206f6620766f74657320616761696e737420746865206d6560648201526e1c9adb19481c9bdbdd08199a5c9cdd608a1b608482015260a401610aaf565b61255e85858585600260008a6001600160a01b03166001600160a01b0316815260200190815260200160002054612cbc565b600e80546001810182556000919091527fbb7b4a454dc3493923482f07822329ed19e8244eff582cc204f8554c3620c3fd0180546001600160a01b031916331790556040805186815260ff851660208201529081018390526001600160a01b038516907f2c9deb38f462962eadbd85a9d3a4120503ee091f1582eaaa10aa8c6797651d299060600160405180910390a25050506001600160a01b0316600090815260026020526040902054919050565b60006001600160ff1b038211156126785760405162461bcd60e51b815260206004820152602860248201527f53616665436173743a2076616c756520646f65736e27742066697420696e2061604482015267371034b73a191a9b60c11b6064820152608401610aaf565b5090565b600083805b84518110156126da5784828151811061269c5761269c613bfc565b60200260200101518582815181106126b6576126b6613bfc565b602002602001015112156126c8578091505b806126d281613c39565b915050612681565b508481036126ec576000915050610a83565b600084868151811061270057612700613bfc565b6020026020010151905084828151811061271c5761271c613bfc565b602002602001015185878151811061273657612736613bfc565b6020026020010181815250508085838151811061275557612755613bfc565b602002602001018181525050600084878151811061277557612775613bfc565b6020026020010151905084838151811061279157612791613bfc565b60200260200101518588815181106127ab576127ab613bfc565b602002602001018181525050808584815181106127ca576127ca613bfc565b60209081029190910101525060019695505050505050565b600060036127ee611839565b60048111156127ff576127ff6139b3565b146128725760405162461bcd60e51b815260206004820152603e60248201527f476f7665726e6f723a20636f6e74657374206d7573742062652071756575656460448201527f20666f722070726f706f73616c7320746f206265207375626d697474656400006064820152608401610aaf565b61287a6112a1565b336000908152600c6020526040902054106129315760405162461bcd60e51b815260206004820152606560248201527f476f7665726e6f723a207468652073616d6520616464726573732063616e6e6f60448201527f74207375626d6974206d6f7265207468616e20746865206e756d416c6c6f776560648201527f6450726f706f73616c5375626d697373696f6e7320666f72207468697320636f6084820152641b9d195cdd60da1b60a482015260c401610aaf565b61293961238b565b6006546005546129499190613c52565b106129bc5760405162461bcd60e51b815260206004820152603960248201527f476f7665726e6f723a20746865206d6178206e756d626572206f662070726f7060448201527f6f73616c732068617665206265656e207375626d6974746564000000000000006064820152608401610aaf565b60006129c783610ef7565b6000818152600b6020526040902054909150600160a01b900460ff1615612a425760405162461bcd60e51b815260206004820152602960248201527f476f7665726e6f723a206475706c69636174652070726f706f73616c73206e6f6044820152681d08185b1b1bddd95960ba1b6064820152608401610aaf565b6005805460018181019092557f036b6384b5eca791c62761152d0c79bb0604c104a5fb6f4eb0703f3154bb3db0018290556000828152600b602090815260409182902086518154928801511515600160a01b026001600160a81b03199093166001600160a01b0390911617919091178155908501518592820190612ac69082613d94565b506060820151516002820180546001600160a01b0319166001600160a01b039092169190911790556080820151805180516003840191612b0b918391602001906130fd565b50602091820151600191820155336000908152600c9092526040822080549194509250612b39908490613b9a565b9091555050600d80546001810182556000919091527fd7b6990105719101dabeb77144f2a3385c8033acd3af97e9423a695e81ad1eb50180546001600160a01b031916339081179091556040805183815260208101929092527fcd423cc1203c0af96b9b3d68d73b3064a69de2d14450bb7181c5e5df2132b358910160405180910390a192915050565b606060ff8314612bdd57612bd683612fb2565b90506108e6565b818054612be990613ae5565b80601f0160208091040260200160405190810160405280929190818152602001828054612c1590613ae5565b8015612c625780601f10612c3757610100808354040283529160200191612c62565b820191906000526020600020905b815481529060010190602001808311612c4557829003601f168201915b5050505050905092915050565b600081815b8451811015612cb457612ca082868381518110612c9357612c93613bfc565b6020026020010151612ff1565b915080612cac81613c39565b915050612c74565b509392505050565b60008581526018602090815260408083206001600160a01b0388168452601790925290912054612cec9083613c52565b831115612d575760405162461bcd60e51b815260206004820152603360248201527f476f7665726e6f72566f74696e6753696d706c653a206e6f7420656e6f756768604482015272081d9bdd195cc81b19599d081d1bc818d85cdd606a1b6064820152608401610aaf565b6001600160a01b0385166000908152600382016020526040812054158015612d9a57506001600160a01b0386166000908152600383016020526040902060010154155b905060ff8516612df257815484908390600090612db8908490613b9a565b90915550506001600160a01b038616600090815260038301602052604081208054869290612de7908490613b9a565b90915550612f2c9050565b60001960ff861601612ec657612e06611137565b600114612e7d576040805162461bcd60e51b81526020600482015260248101919091527f476f7665726e6f72566f74696e6753696d706c653a20646f776e766f74696e6760448201527f206973206e6f7420656e61626c656420666f72207468697320436f6e746573746064820152608401610aaf565b83826000016001016000828254612e949190613b9a565b90915550506001600160a01b038616600090815260038301602052604081206001018054869290612de7908490613b9a565b60405162461bcd60e51b815260206004820152603560248201527f476f7665726e6f72566f74696e6753696d706c653a20696e76616c69642076616044820152746c756520666f7220656e756d20566f74655479706560581b6064820152608401610aaf565b8015612f6357600282018054600181018255600091825260209091200180546001600160a01b0319166001600160a01b0388161790555b6001600160a01b03861660009081526017602052604081208054869290612f8b908490613b9a565b925050819055508360166000828254612fa49190613b9a565b909155505050505050505050565b60606000612fbf8361301d565b604080516020808252818301909252919250600091906020820181803683375050509182525060208101929092525090565b600081831061300d576000828152602084905260409020610a83565b5060009182526020526040902090565b600060ff8216601f8111156108e657604051632cd44ac360e21b815260040160405180910390fd5b828054828255906000526020600020908101928215613080579160200282015b82811115613080578251825591602001919060010190613065565b50612678929150613152565b6040518060a0016040528060006001600160a01b03168152602001600015158152602001606081526020016130d6604051806020016040528060006001600160a01b031681525090565b81526020016130f8604051806040016040528060608152602001600081525090565b905290565b828054828255906000526020600020908101928215613080579160200282015b8281111561308057825182546001600160a01b0319166001600160a01b0390911617825560209092019160019091019061311d565b5b808211156126785760008155600101613153565b60006020828403121561317957600080fd5b81356001600160e01b031981168114610a8357600080fd5b6000815180845260005b818110156131b75760208185018101518683018201520161319b565b506000602082860101526020601f19601f83011685010191505092915050565b602081526000610a836020830184613191565b6000602082840312156131fc57600080fd5b5035919050565b8151815260208083015190820152604081016108e6565b600081518084526020808501945080840160005b8381101561324a5781518752958201959082019060010161322e565b509495945050505050565b602081526000610a83602083018461321a565b6001600160a01b038116811461327d57600080fd5b50565b60008083601f84011261329257600080fd5b5081356001600160401b038111156132a957600080fd5b6020830191508360208260051b850101111561128b57600080fd5b6000806000604084860312156132d957600080fd5b83356132e481613268565b925060208401356001600160401b038111156132ff57600080fd5b61330b86828701613280565b9497909650939450505050565b6020808252825182820181905260009190848201906040850190845b818110156133595783516001600160a01b031683529284019291840191600101613334565b50909695505050505050565b8035801515811461337557600080fd5b919050565b60008060008060006080868803121561339257600080fd5b853561339d81613268565b94506020860135935060408601356001600160401b038111156133bf57600080fd5b6133cb88828901613280565b90945092506133de905060608701613365565b90509295509295909350565b803560ff8116811461337557600080fd5b60008060008060008060a0878903121561341457600080fd5b86359550613424602088016133ea565b9450604087013593506060870135925060808701356001600160401b0381111561344d57600080fd5b61345989828a01613280565b979a9699509497509295939492505050565b60006020828403121561347d57600080fd5b610a8382613365565b634e487b7160e01b600052604160045260246000fd5b604080519081016001600160401b03811182821017156134be576134be613486565b60405290565b60405160a081016001600160401b03811182821017156134be576134be613486565b604051601f8201601f191681016001600160401b038111828210171561350e5761350e613486565b604052919050565b60006020828403121561352857600080fd5b604051602081018181106001600160401b038211171561354a5761354a613486565b604052905080823561355b81613268565b905292915050565b60006040828403121561357557600080fd5b61357d61349c565b905081356001600160401b038082111561359657600080fd5b818401915084601f8301126135aa57600080fd5b81356020828211156135be576135be613486565b8160051b92506135cf8184016134e6565b82815292840181019281810190888511156135e957600080fd5b948201945b84861015613613578535935061360384613268565b83825294820194908201906135ee565b808752505080860135818601525050505092915050565b600060a0828403121561363c57600080fd5b6136446134c4565b9050813561365181613268565b81526020613660838201613365565b8183015260408301356001600160401b038082111561367e57600080fd5b818501915085601f83011261369257600080fd5b8135818111156136a4576136a4613486565b6136b6601f8201601f191685016134e6565b81815287858386010111156136ca57600080fd5b8185850186830137600085838301015280604087015250506136ef8660608701613516565b6060850152608085013592508083111561370857600080fd5b505061371684828501613563565b60808301525092915050565b60006020828403121561373457600080fd5b81356001600160401b0381111561374a57600080fd5b6118318482850161362a565b600060a0828403121561376857600080fd5b50919050565b60006020828403121561378057600080fd5b81356001600160401b0381111561379657600080fd5b61183184828501613756565b600060408083526137b58184018661321a565b83810360208581019190915285518083528682019282019060005b818110156137fd576137ed83865180518252602090810151910152565b93830193918501916001016137d0565b509098975050505050505050565b6000806000806060858703121561382157600080fd5b843561382c81613268565b93506020850135925060408501356001600160401b0381111561384e57600080fd5b61385a87828801613280565b95989497509550505050565b60006020828403121561387857600080fd5b8135610a8381613268565b60008060006060848603121561389857600080fd5b833592506138a8602085016133ea565b9150604084013590509250925092565b600080604083850312156138cb57600080fd5b8235915060208301356138dd81613268565b809150509250929050565b60ff60f81b8816815260e06020820152600061390760e0830189613191565b82810360408401526139198189613191565b606084018890526001600160a01b038716608085015260a0840186905283810360c0850152905061394a818561321a565b9a9950505050505050505050565b60008060006040848603121561396d57600080fd5b83356001600160401b038082111561398457600080fd5b61399087838801613756565b945060208601359150808211156139a657600080fd5b5061330b86828701613280565b634e487b7160e01b600052602160045260246000fd5b60208101600583106139eb57634e487b7160e01b600052602160045260246000fd5b91905290565b6000602080835260018060a01b0380855116828501528185015115156040850152604085015160a06060860152613a2b60c0860182613191565b9050816060870151511660808601526080860151601f198683030160a0870152604082018151604084528181518084526060860191508783019350600092505b80831015613a8d57835187168252928701926001929092019190870190613a6b565b509286015193909501929092529695505050505050565b60008060208385031215613ab757600080fd5b82356001600160401b03811115613acd57600080fd5b613ad985828601613280565b90969095509350505050565b600181811c90821680613af957607f821691505b60208210810361376857634e487b7160e01b600052602260045260246000fd5b60208082526045908201527f526577617264734d6f64756c653a2072756e20736574536f72746564416e645460408201527f69656450726f706f73616c73282920746f20706f70756c61746520746869732060608201526476616c756560d81b608082015260a00190565b634e487b7160e01b600052601160045260246000fd5b808201808211156108e6576108e6613b84565b6020808252602f908201527f476f7665726e6f723a20796f752063616e6e6f7420766f7465206f6e2061206460408201526e195b195d1959081c1c9bdc1bdcd85b608a1b606082015260800190565b634e487b7160e01b600052603260045260246000fd5b8181036000831280158383131683831282161715613c3257613c32613b84565b5092915050565b600060018201613c4b57613c4b613b84565b5060010190565b818103818111156108e6576108e6613b84565b6020808252602f908201527f476f7665726e6f723a2061646472657373206973206e6f74207065726d69737360408201526e1a5bdb9959081d1bc81cdd589b5a5d608a1b606082015260800190565b60006108e6368361362a565b6020808252602c908201527f476f7665726e6f723a2070726f706f73616c20636f6e74656e74206661696c6560408201526b32103b30b634b230ba34b7b760a11b606082015260800190565b6020808252810182905260006001600160fb1b03831115613d2c57600080fd5b8260051b80856040850137919091016040019392505050565b601f821115613d8f57600081815260208120601f850160051c81016020861015613d6c5750805b601f850160051c820191505b81811015613d8b57828155600101613d78565b5050505b505050565b81516001600160401b03811115613dad57613dad613486565b613dc181613dbb8454613ae5565b84613d45565b602080601f831160018114613df65760008415613dde5750858301515b600019600386901b1c1916600185901b178555613d8b565b600085815260208120601f198616915b82811015613e2557888601518255948401946001909101908401613e06565b5085821015613e435787850151600019600388901b60f8161c191681555b5050505050600190811b0190555056fea26469706673582212201a931ba023f1d5de822013bfb2b453015eb2f929487c33c568c965187660f95064736f6c63430008130033",
    "linkReferences": {}
  },
  "methodIdentifiers": {
    "AMOUNT_FOR_SUMBITTER_PROOF()": "347cf665",
    "METADATAS_COUNT()": "4d24a67f",
    "addressSubmitterVerified(address)": "cb853950",
    "addressTotalCastVoteCounts(address)": "a1ac6cb2",
    "addressTotalVotes(address)": "dea5f6a6",
    "addressTotalVotesVerified(address)": "930de979",
    "allProposalTotalVotes()": "50a5e524",
    "allProposalTotalVotesWithoutDeleted()": "d45a010b",
    "cancel()": "ea8a1af0",
    "castVote(uint256,uint8,uint256,uint256,bytes32[])": "419c533c",
    "castVoteWithoutProof(uint256,uint8,uint256)": "65f16263",
    "checkProof(address,uint256,bytes32[],bool)": "32763c22",
    "contestAddressTotalVotesCast(address)": "aec116b6",
    "contestDeadline()": "262e59e9",
    "contestStart()": "004114a8",
    "creator()": "02d05d3f",
    "deleteProposals(uint256[])": "f0a7db0a",
    "downvotingAllowed()": "60506ff6",
    "eip712Domain()": "84b0196e",
    "getAllAddressesThatHaveVoted()": "2c39805f",
    "getAllDeletedProposalIds()": "1242b737",
    "getAllProposalAuthors()": "946369b5",
    "getAllProposalIds()": "efa90d36",
    "getNumSubmissions(address)": "5f953a03",
    "getProposal(uint256)": "c7f758a8",
    "hashProposal((address,bool,string,(address),(address[],uint256)))": "458da87d",
    "highestTiedRanking()": "ebc18b9b",
    "isProposalDeleted(uint256)": "3b6d199b",
    "isTied(uint256)": "2399c660",
    "lowestRanking()": "6ca1a2c7",
    "maxProposalCount()": "fb9bf8d4",
    "name()": "06fdde03",
    "numAllowedProposalSubmissions()": "832009af",
    "officialRewardsModule()": "785ddfe5",
    "prompt()": "7c65d711",
    "proposalAddressVotes(uint256,address)": "6e4eb810",
    "proposalAddressesHaveVoted(uint256)": "b323580d",
    "proposalVotes(uint256)": "544ffc9c",
    "proposalVotesStructs(uint256)": "070dc5d9",
    "propose((address,bool,string,(address),(address[],uint256)),bytes32[])": "c0ffaa78",
    "proposeWithoutProof((address,bool,string,(address),(address[],uint256)))": "476f4d8a",
    "rankingPosition(uint256)": "86187488",
    "setOfficialRewardsModule(address)": "f4f3d7ec",
    "setSortedAndTiedProposals()": "96f0e962",
    "setSortedAndTiedProposalsHasBeenRun()": "d8891619",
    "sortedProposalIds()": "8a9cd550",
    "sortedProposals(bool)": "427d56c2",
    "state()": "c19d93fb",
    "submissionMerkleRoot()": "bddc1641",
    "supportsInterface(bytes4)": "01ffc9a7",
    "tiedAdjustedRankingPosition(uint256)": "e5eb5a48",
    "totalVotesCast()": "7de418d5",
    "validateProposalData((address,bool,string,(address),(address[],uint256)))": "fb8ddab4",
    "verifyProposer(address,bytes32[])": "20b3e845",
    "verifyVoter(address,uint256,bytes32[])": "531bd812",
    "version()": "54fd4d50",
    "voteStart()": "e031535b",
    "votingDelay()": "3932abb1",
    "votingMerkleRoot()": "dd96a19d",
    "votingPeriod()": "02a251a3"
  },
  "id": 40
}