{
  "abi": [
    {
      "inputs": [
        {
          "internalType": "string",
          "name": "_name",
          "type": "string"
        },
        {
          "internalType": "string",
          "name": "_prompt",
          "type": "string"
        },
        {
          "internalType": "bytes32",
          "name": "_submissionMerkleRoot",
          "type": "bytes32"
        },
        {
          "internalType": "bytes32",
          "name": "_votingMerkleRoot",
          "type": "bytes32"
        },
        {
          "internalType": "uint256[]",
          "name": "_constructorIntParams",
          "type": "uint256[]"
        }
      ],
      "stateMutability": "nonpayable",
      "type": "constructor"
    },
    {
      "inputs": [],
      "name": "InvalidShortString",
      "type": "error"
    },
    {
      "inputs": [],
      "name": "NotInMerkle",
      "type": "error"
    },
    {
      "inputs": [
        {
          "internalType": "string",
          "name": "str",
          "type": "string"
        }
      ],
      "name": "StringTooLong",
      "type": "error"
    },
    {
      "inputs": [],
      "name": "TooManyMetadatas",
      "type": "error"
    },
    {
      "anonymous": false,
      "inputs": [],
      "name": "ContestCanceled",
      "type": "event"
    },
    {
      "anonymous": false,
      "inputs": [
        {
          "indexed": false,
          "internalType": "uint256",
          "name": "oldContestStart",
          "type": "uint256"
        },
        {
          "indexed": false,
          "internalType": "uint256",
          "name": "newContestStart",
          "type": "uint256"
        }
      ],
      "name": "ContestStartSet",
      "type": "event"
    },
    {
      "anonymous": false,
      "inputs": [
        {
          "indexed": false,
          "internalType": "address",
          "name": "oldCreator",
          "type": "address"
        },
        {
          "indexed": false,
          "internalType": "address",
          "name": "newCreator",
          "type": "address"
        }
      ],
      "name": "CreatorSet",
      "type": "event"
    },
    {
      "anonymous": false,
      "inputs": [
        {
          "indexed": false,
          "internalType": "uint256",
          "name": "oldDownvotingAllowed",
          "type": "uint256"
        },
        {
          "indexed": false,
          "internalType": "uint256",
          "name": "newDownvotingAllowed",
          "type": "uint256"
        }
      ],
      "name": "DownvotingAllowedSet",
      "type": "event"
    },
    {
      "anonymous": false,
      "inputs": [],
      "name": "EIP712DomainChanged",
      "type": "event"
    },
    {
      "anonymous": false,
      "inputs": [
        {
          "indexed": false,
          "internalType": "uint256",
          "name": "oldMaxProposalCount",
          "type": "uint256"
        },
        {
          "indexed": false,
          "internalType": "uint256",
          "name": "newMaxProposalCount",
          "type": "uint256"
        }
      ],
      "name": "MaxProposalCountSet",
      "type": "event"
    },
    {
      "anonymous": false,
      "inputs": [
        {
          "indexed": false,
          "internalType": "uint256",
          "name": "oldNumAllowedProposalSubmissions",
          "type": "uint256"
        },
        {
          "indexed": false,
          "internalType": "uint256",
          "name": "newNumAllowedProposalSubmissions",
          "type": "uint256"
        }
      ],
      "name": "NumAllowedProposalSubmissionsSet",
      "type": "event"
    },
    {
      "anonymous": false,
      "inputs": [
        {
          "indexed": false,
          "internalType": "contract RewardsModule",
          "name": "oldOfficialRewardsModule",
          "type": "address"
        },
        {
          "indexed": false,
          "internalType": "contract RewardsModule",
          "name": "newOfficialRewardsModule",
          "type": "address"
        }
      ],
      "name": "OfficialRewardsModuleSet",
      "type": "event"
    },
    {
      "anonymous": false,
      "inputs": [
        {
          "indexed": false,
          "internalType": "uint256",
          "name": "proposalId",
          "type": "uint256"
        },
        {
          "indexed": false,
          "internalType": "address",
          "name": "proposer",
          "type": "address"
        }
      ],
      "name": "ProposalCreated",
      "type": "event"
    },
    {
      "anonymous": false,
      "inputs": [
        {
          "indexed": false,
          "internalType": "uint256[]",
          "name": "proposalIds",
          "type": "uint256[]"
        }
      ],
      "name": "ProposalsDeleted",
      "type": "event"
    },
    {
      "anonymous": false,
      "inputs": [
        {
          "indexed": true,
          "internalType": "address",
          "name": "voter",
          "type": "address"
        },
        {
          "indexed": false,
          "internalType": "uint256",
          "name": "proposalId",
          "type": "uint256"
        },
        {
          "indexed": false,
          "internalType": "uint8",
          "name": "support",
          "type": "uint8"
        },
        {
          "indexed": false,
          "internalType": "uint256",
          "name": "numVotes",
          "type": "uint256"
        },
        {
          "indexed": false,
          "internalType": "string",
          "name": "reason",
          "type": "string"
        }
      ],
      "name": "VoteCast",
      "type": "event"
    },
    {
      "anonymous": false,
      "inputs": [
        {
          "indexed": false,
          "internalType": "uint256",
          "name": "oldVotingDelay",
          "type": "uint256"
        },
        {
          "indexed": false,
          "internalType": "uint256",
          "name": "newVotingDelay",
          "type": "uint256"
        }
      ],
      "name": "VotingDelaySet",
      "type": "event"
    },
    {
      "anonymous": false,
      "inputs": [
        {
          "indexed": false,
          "internalType": "uint256",
          "name": "oldVotingPeriod",
          "type": "uint256"
        },
        {
          "indexed": false,
          "internalType": "uint256",
          "name": "newVotingPeriod",
          "type": "uint256"
        }
      ],
      "name": "VotingPeriodSet",
      "type": "event"
    },
    {
      "inputs": [],
      "name": "AMOUNT_FOR_SUMBITTER_PROOF",
      "outputs": [
        {
          "internalType": "uint256",
          "name": "",
          "type": "uint256"
        }
      ],
      "stateMutability": "view",
      "type": "function"
    },
    {
      "inputs": [],
      "name": "BALLOT_TYPEHASH",
      "outputs": [
        {
          "internalType": "bytes32",
          "name": "",
          "type": "bytes32"
        }
      ],
      "stateMutability": "view",
      "type": "function"
    },
    {
      "inputs": [],
      "name": "COUNTING_MODE",
      "outputs": [
        {
          "internalType": "string",
          "name": "",
          "type": "string"
        }
      ],
      "stateMutability": "pure",
      "type": "function"
    },
    {
      "inputs": [],
      "name": "METADATAS_COUNT",
      "outputs": [
        {
          "internalType": "uint256",
          "name": "",
          "type": "uint256"
        }
      ],
      "stateMutability": "view",
      "type": "function"
    },
    {
      "inputs": [
        {
          "internalType": "address",
          "name": "",
          "type": "address"
        }
      ],
      "name": "addressSubmitterVerified",
      "outputs": [
        {
          "internalType": "bool",
          "name": "",
          "type": "bool"
        }
      ],
      "stateMutability": "view",
      "type": "function"
    },
    {
      "inputs": [
        {
          "internalType": "address",
          "name": "",
          "type": "address"
        }
      ],
      "name": "addressTotalCastVoteCounts",
      "outputs": [
        {
          "internalType": "uint256",
          "name": "",
          "type": "uint256"
        }
      ],
      "stateMutability": "view",
      "type": "function"
    },
    {
      "inputs": [
        {
          "internalType": "address",
          "name": "",
          "type": "address"
        }
      ],
      "name": "addressTotalVotes",
      "outputs": [
        {
          "internalType": "uint256",
          "name": "",
          "type": "uint256"
        }
      ],
      "stateMutability": "view",
      "type": "function"
    },
    {
      "inputs": [
        {
          "internalType": "address",
          "name": "",
          "type": "address"
        }
      ],
      "name": "addressTotalVotesVerified",
      "outputs": [
        {
          "internalType": "bool",
          "name": "",
          "type": "bool"
        }
      ],
      "stateMutability": "view",
      "type": "function"
    },
    {
      "inputs": [],
      "name": "allProposalTotalVotes",
      "outputs": [
        {
          "internalType": "uint256[]",
          "name": "proposalIdsReturn",
          "type": "uint256[]"
        },
        {
          "components": [
            {
              "internalType": "uint256",
              "name": "forVotes",
              "type": "uint256"
            },
            {
              "internalType": "uint256",
              "name": "againstVotes",
              "type": "uint256"
            }
          ],
          "internalType": "struct GovernorCountingSimple.VoteCounts[]",
          "name": "proposalVoteCountsArrayReturn",
          "type": "tuple[]"
        }
      ],
      "stateMutability": "view",
      "type": "function"
    },
    {
      "inputs": [],
      "name": "allProposalTotalVotesWithoutDeleted",
      "outputs": [
        {
          "internalType": "uint256[]",
          "name": "proposalIdsReturn",
          "type": "uint256[]"
        },
        {
          "components": [
            {
              "internalType": "uint256",
              "name": "forVotes",
              "type": "uint256"
            },
            {
              "internalType": "uint256",
              "name": "againstVotes",
              "type": "uint256"
            }
          ],
          "internalType": "struct GovernorCountingSimple.VoteCounts[]",
          "name": "proposalVoteCountsArrayReturn",
          "type": "tuple[]"
        }
      ],
      "stateMutability": "view",
      "type": "function"
    },
    {
      "inputs": [],
      "name": "cancel",
      "outputs": [],
      "stateMutability": "nonpayable",
      "type": "function"
    },
    {
      "inputs": [
        {
          "internalType": "uint256",
          "name": "proposalId",
          "type": "uint256"
        },
        {
          "internalType": "uint8",
          "name": "support",
          "type": "uint8"
        },
        {
          "internalType": "uint256",
          "name": "totalVotes",
          "type": "uint256"
        },
        {
          "internalType": "uint256",
          "name": "numVotes",
          "type": "uint256"
        },
        {
          "internalType": "bytes32[]",
          "name": "proof",
          "type": "bytes32[]"
        }
      ],
      "name": "castVote",
      "outputs": [
        {
          "internalType": "uint256",
          "name": "",
          "type": "uint256"
        }
      ],
      "stateMutability": "nonpayable",
      "type": "function"
    },
    {
      "inputs": [
        {
          "internalType": "uint256",
          "name": "proposalId",
          "type": "uint256"
        },
        {
          "internalType": "uint8",
          "name": "support",
          "type": "uint8"
        },
        {
          "internalType": "uint256",
          "name": "numVotes",
          "type": "uint256"
        }
      ],
      "name": "castVoteWithoutProof",
      "outputs": [
        {
          "internalType": "uint256",
          "name": "",
          "type": "uint256"
        }
      ],
      "stateMutability": "nonpayable",
      "type": "function"
    },
    {
      "inputs": [
        {
          "internalType": "address",
          "name": "addressToCheck",
          "type": "address"
        },
        {
          "internalType": "uint256",
          "name": "amount",
          "type": "uint256"
        },
        {
          "internalType": "bytes32[]",
          "name": "proof",
          "type": "bytes32[]"
        },
        {
          "internalType": "bool",
          "name": "voting",
          "type": "bool"
        }
      ],
      "name": "checkProof",
      "outputs": [
        {
          "internalType": "bool",
          "name": "verified",
          "type": "bool"
        }
      ],
      "stateMutability": "view",
      "type": "function"
    },
    {
      "inputs": [
        {
          "internalType": "address",
          "name": "userAddress",
          "type": "address"
        }
      ],
      "name": "contestAddressTotalVotesCast",
      "outputs": [
        {
          "internalType": "uint256",
          "name": "userTotalVotesCast",
          "type": "uint256"
        }
      ],
      "stateMutability": "view",
      "type": "function"
    },
    {
      "inputs": [],
      "name": "contestDeadline",
      "outputs": [
        {
          "internalType": "uint256",
          "name": "",
          "type": "uint256"
        }
      ],
      "stateMutability": "view",
      "type": "function"
    },
    {
      "inputs": [],
      "name": "contestStart",
      "outputs": [
        {
          "internalType": "uint256",
          "name": "",
          "type": "uint256"
        }
      ],
      "stateMutability": "view",
      "type": "function"
    },
    {
      "inputs": [],
      "name": "creator",
      "outputs": [
        {
          "internalType": "address",
          "name": "",
          "type": "address"
        }
      ],
      "stateMutability": "view",
      "type": "function"
    },
    {
      "inputs": [
        {
          "internalType": "uint256[]",
          "name": "proposalIds",
          "type": "uint256[]"
        }
      ],
      "name": "deleteProposals",
      "outputs": [],
      "stateMutability": "nonpayable",
      "type": "function"
    },
    {
      "inputs": [],
      "name": "downvotingAllowed",
      "outputs": [
        {
          "internalType": "uint256",
          "name": "",
          "type": "uint256"
        }
      ],
      "stateMutability": "view",
      "type": "function"
    },
    {
      "inputs": [],
      "name": "eip712Domain",
      "outputs": [
        {
          "internalType": "bytes1",
          "name": "fields",
          "type": "bytes1"
        },
        {
          "internalType": "string",
          "name": "name",
          "type": "string"
        },
        {
          "internalType": "string",
          "name": "version",
          "type": "string"
        },
        {
          "internalType": "uint256",
          "name": "chainId",
          "type": "uint256"
        },
        {
          "internalType": "address",
          "name": "verifyingContract",
          "type": "address"
        },
        {
          "internalType": "bytes32",
          "name": "salt",
          "type": "bytes32"
        },
        {
          "internalType": "uint256[]",
          "name": "extensions",
          "type": "uint256[]"
        }
      ],
      "stateMutability": "view",
      "type": "function"
    },
    {
      "inputs": [],
      "name": "getAllProposalIds",
      "outputs": [
        {
          "internalType": "uint256[]",
          "name": "",
          "type": "uint256[]"
        }
      ],
      "stateMutability": "view",
      "type": "function"
    },
    {
      "inputs": [
        {
          "internalType": "address",
          "name": "account",
          "type": "address"
        }
      ],
      "name": "getNumSubmissions",
      "outputs": [
        {
          "internalType": "uint256",
          "name": "",
          "type": "uint256"
        }
      ],
      "stateMutability": "view",
      "type": "function"
    },
    {
      "inputs": [
        {
          "internalType": "uint256",
          "name": "proposalId",
          "type": "uint256"
        }
      ],
      "name": "getProposal",
      "outputs": [
        {
          "components": [
            {
              "internalType": "address",
              "name": "author",
              "type": "address"
            },
            {
              "internalType": "bool",
              "name": "exists",
              "type": "bool"
            },
            {
              "internalType": "string",
              "name": "description",
              "type": "string"
            },
            {
              "components": [
                {
                  "internalType": "address",
                  "name": "targetAddress",
                  "type": "address"
                }
              ],
              "internalType": "struct IGovernor.TargetMetadata",
              "name": "targetMetadata",
              "type": "tuple"
            },
            {
              "components": [
                {
                  "internalType": "address[]",
                  "name": "signers",
                  "type": "address[]"
                },
                {
                  "internalType": "uint256",
                  "name": "threshold",
                  "type": "uint256"
                }
              ],
              "internalType": "struct IGovernor.SafeMetadata",
              "name": "safeMetadata",
              "type": "tuple"
            }
          ],
          "internalType": "struct IGovernor.ProposalCore",
          "name": "",
          "type": "tuple"
        }
      ],
      "stateMutability": "view",
      "type": "function"
    },
    {
      "inputs": [
        {
          "components": [
            {
              "internalType": "address",
              "name": "author",
              "type": "address"
            },
            {
              "internalType": "bool",
              "name": "exists",
              "type": "bool"
            },
            {
              "internalType": "string",
              "name": "description",
              "type": "string"
            },
            {
              "components": [
                {
                  "internalType": "address",
                  "name": "targetAddress",
                  "type": "address"
                }
              ],
              "internalType": "struct IGovernor.TargetMetadata",
              "name": "targetMetadata",
              "type": "tuple"
            },
            {
              "components": [
                {
                  "internalType": "address[]",
                  "name": "signers",
                  "type": "address[]"
                },
                {
                  "internalType": "uint256",
                  "name": "threshold",
                  "type": "uint256"
                }
              ],
              "internalType": "struct IGovernor.SafeMetadata",
              "name": "safeMetadata",
              "type": "tuple"
            }
          ],
          "internalType": "struct IGovernor.ProposalCore",
          "name": "proposal",
          "type": "tuple"
        }
      ],
      "name": "hashProposal",
      "outputs": [
        {
          "internalType": "uint256",
          "name": "",
          "type": "uint256"
        }
      ],
      "stateMutability": "pure",
      "type": "function"
    },
    {
      "inputs": [],
      "name": "highestTiedRanking",
      "outputs": [
        {
          "internalType": "uint256",
          "name": "",
          "type": "uint256"
        }
      ],
      "stateMutability": "view",
      "type": "function"
    },
    {
      "inputs": [
        {
          "internalType": "uint256",
          "name": "proposalId",
          "type": "uint256"
        }
      ],
      "name": "isProposalDeleted",
      "outputs": [
        {
          "internalType": "uint256",
          "name": "",
          "type": "uint256"
        }
      ],
      "stateMutability": "view",
      "type": "function"
    },
    {
      "inputs": [
        {
          "internalType": "uint256",
          "name": "ranking",
          "type": "uint256"
        }
      ],
      "name": "isTied",
      "outputs": [
        {
          "internalType": "bool",
          "name": "",
          "type": "bool"
        }
      ],
      "stateMutability": "view",
      "type": "function"
    },
    {
      "inputs": [],
      "name": "lowestRanking",
      "outputs": [
        {
          "internalType": "uint256",
          "name": "",
          "type": "uint256"
        }
      ],
      "stateMutability": "view",
      "type": "function"
    },
    {
      "inputs": [],
      "name": "maxProposalCount",
      "outputs": [
        {
          "internalType": "uint256",
          "name": "",
          "type": "uint256"
        }
      ],
      "stateMutability": "view",
      "type": "function"
    },
    {
      "inputs": [],
      "name": "name",
      "outputs": [
        {
          "internalType": "string",
          "name": "",
          "type": "string"
        }
      ],
      "stateMutability": "view",
      "type": "function"
    },
    {
      "inputs": [],
      "name": "numAllowedProposalSubmissions",
      "outputs": [
        {
          "internalType": "uint256",
          "name": "",
          "type": "uint256"
        }
      ],
      "stateMutability": "view",
      "type": "function"
    },
    {
      "inputs": [],
      "name": "officialRewardsModule",
      "outputs": [
        {
          "internalType": "contract RewardsModule",
          "name": "",
          "type": "address"
        }
      ],
      "stateMutability": "view",
      "type": "function"
    },
    {
      "inputs": [],
      "name": "prompt",
      "outputs": [
        {
          "internalType": "string",
          "name": "",
          "type": "string"
        }
      ],
      "stateMutability": "view",
      "type": "function"
    },
    {
      "inputs": [
        {
          "internalType": "uint256",
          "name": "proposalId",
          "type": "uint256"
        },
        {
          "internalType": "address",
          "name": "userAddress",
          "type": "address"
        }
      ],
      "name": "proposalAddressVotes",
      "outputs": [
        {
          "internalType": "uint256",
          "name": "forVotes",
          "type": "uint256"
        },
        {
          "internalType": "uint256",
          "name": "againstVotes",
          "type": "uint256"
        }
      ],
      "stateMutability": "view",
      "type": "function"
    },
    {
      "inputs": [
        {
          "internalType": "uint256",
          "name": "proposalId",
          "type": "uint256"
        }
      ],
      "name": "proposalAddressesHaveVoted",
      "outputs": [
        {
          "internalType": "address[]",
          "name": "",
          "type": "address[]"
        }
      ],
      "stateMutability": "view",
      "type": "function"
    },
    {
      "inputs": [
        {
          "internalType": "uint256",
          "name": "proposalId",
          "type": "uint256"
        }
      ],
      "name": "proposalVotes",
      "outputs": [
        {
          "internalType": "uint256",
          "name": "forVotes",
          "type": "uint256"
        },
        {
          "internalType": "uint256",
          "name": "againstVotes",
          "type": "uint256"
        }
      ],
      "stateMutability": "view",
      "type": "function"
    },
    {
      "inputs": [
        {
          "internalType": "uint256",
          "name": "",
          "type": "uint256"
        }
      ],
      "name": "proposalVotesStructs",
      "outputs": [
        {
          "components": [
            {
              "internalType": "uint256",
              "name": "forVotes",
              "type": "uint256"
            },
            {
              "internalType": "uint256",
              "name": "againstVotes",
              "type": "uint256"
            }
          ],
          "internalType": "struct GovernorCountingSimple.VoteCounts",
          "name": "proposalVoteCounts",
          "type": "tuple"
        }
      ],
      "stateMutability": "view",
      "type": "function"
    },
    {
      "inputs": [
        {
          "components": [
            {
              "internalType": "address",
              "name": "author",
              "type": "address"
            },
            {
              "internalType": "bool",
              "name": "exists",
              "type": "bool"
            },
            {
              "internalType": "string",
              "name": "description",
              "type": "string"
            },
            {
              "components": [
                {
                  "internalType": "address",
                  "name": "targetAddress",
                  "type": "address"
                }
              ],
              "internalType": "struct IGovernor.TargetMetadata",
              "name": "targetMetadata",
              "type": "tuple"
            },
            {
              "components": [
                {
                  "internalType": "address[]",
                  "name": "signers",
                  "type": "address[]"
                },
                {
                  "internalType": "uint256",
                  "name": "threshold",
                  "type": "uint256"
                }
              ],
              "internalType": "struct IGovernor.SafeMetadata",
              "name": "safeMetadata",
              "type": "tuple"
            }
          ],
          "internalType": "struct IGovernor.ProposalCore",
          "name": "proposal",
          "type": "tuple"
        },
        {
          "internalType": "bytes32[]",
          "name": "proof",
          "type": "bytes32[]"
        }
      ],
      "name": "propose",
      "outputs": [
        {
          "internalType": "uint256",
          "name": "",
          "type": "uint256"
        }
      ],
      "stateMutability": "nonpayable",
      "type": "function"
    },
    {
      "inputs": [
        {
          "components": [
            {
              "internalType": "address",
              "name": "author",
              "type": "address"
            },
            {
              "internalType": "bool",
              "name": "exists",
              "type": "bool"
            },
            {
              "internalType": "string",
              "name": "description",
              "type": "string"
            },
            {
              "components": [
                {
                  "internalType": "address",
                  "name": "targetAddress",
                  "type": "address"
                }
              ],
              "internalType": "struct IGovernor.TargetMetadata",
              "name": "targetMetadata",
              "type": "tuple"
            },
            {
              "components": [
                {
                  "internalType": "address[]",
                  "name": "signers",
                  "type": "address[]"
                },
                {
                  "internalType": "uint256",
                  "name": "threshold",
                  "type": "uint256"
                }
              ],
              "internalType": "struct IGovernor.SafeMetadata",
              "name": "safeMetadata",
              "type": "tuple"
            }
          ],
          "internalType": "struct IGovernor.ProposalCore",
          "name": "proposal",
          "type": "tuple"
        }
      ],
      "name": "proposeWithoutProof",
      "outputs": [
        {
          "internalType": "uint256",
          "name": "",
          "type": "uint256"
        }
      ],
      "stateMutability": "nonpayable",
      "type": "function"
    },
    {
      "inputs": [
        {
          "internalType": "uint256",
          "name": "ranking",
          "type": "uint256"
        }
      ],
      "name": "rankingPosition",
      "outputs": [
        {
          "internalType": "uint256",
          "name": "",
          "type": "uint256"
        }
      ],
      "stateMutability": "view",
      "type": "function"
    },
    {
      "inputs": [
        {
          "internalType": "contract RewardsModule",
          "name": "officialRewardsModule_",
          "type": "address"
        }
      ],
      "name": "setOfficialRewardsModule",
      "outputs": [],
      "stateMutability": "nonpayable",
      "type": "function"
    },
    {
      "inputs": [],
      "name": "setSortedAndTiedProposals",
      "outputs": [],
      "stateMutability": "nonpayable",
      "type": "function"
    },
    {
      "inputs": [],
      "name": "setSortedAndTiedProposalsHasBeenRun",
      "outputs": [
        {
          "internalType": "bool",
          "name": "",
          "type": "bool"
        }
      ],
      "stateMutability": "view",
      "type": "function"
    },
    {
      "inputs": [],
      "name": "sortedProposalIds",
      "outputs": [
        {
          "internalType": "uint256[]",
          "name": "",
          "type": "uint256[]"
        }
      ],
      "stateMutability": "view",
      "type": "function"
    },
    {
      "inputs": [
        {
          "internalType": "bool",
          "name": "excludeDeletedProposals",
          "type": "bool"
        }
      ],
      "name": "sortedProposals",
      "outputs": [
        {
          "internalType": "uint256[]",
          "name": "sortedProposalIdsReturn",
          "type": "uint256[]"
        }
      ],
      "stateMutability": "view",
      "type": "function"
    },
    {
      "inputs": [],
      "name": "state",
      "outputs": [
        {
          "internalType": "enum IGovernor.ContestState",
          "name": "",
          "type": "uint8"
        }
      ],
      "stateMutability": "view",
      "type": "function"
    },
    {
      "inputs": [],
      "name": "submissionMerkleRoot",
      "outputs": [
        {
          "internalType": "bytes32",
          "name": "",
          "type": "bytes32"
        }
      ],
      "stateMutability": "view",
      "type": "function"
    },
    {
      "inputs": [
        {
          "internalType": "bytes4",
          "name": "interfaceId",
          "type": "bytes4"
        }
      ],
      "name": "supportsInterface",
      "outputs": [
        {
          "internalType": "bool",
          "name": "",
          "type": "bool"
        }
      ],
      "stateMutability": "view",
      "type": "function"
    },
    {
      "inputs": [
        {
          "internalType": "uint256",
          "name": "",
          "type": "uint256"
        }
      ],
      "name": "tiedAdjustedRankingPosition",
      "outputs": [
        {
          "internalType": "uint256",
          "name": "",
          "type": "uint256"
        }
      ],
      "stateMutability": "view",
      "type": "function"
    },
    {
      "inputs": [],
      "name": "totalVotesCast",
      "outputs": [
        {
          "internalType": "uint256",
          "name": "",
          "type": "uint256"
        }
      ],
      "stateMutability": "view",
      "type": "function"
    },
    {
      "inputs": [
        {
          "components": [
            {
              "internalType": "address",
              "name": "author",
              "type": "address"
            },
            {
              "internalType": "bool",
              "name": "exists",
              "type": "bool"
            },
            {
              "internalType": "string",
              "name": "description",
              "type": "string"
            },
            {
              "components": [
                {
                  "internalType": "address",
                  "name": "targetAddress",
                  "type": "address"
                }
              ],
              "internalType": "struct IGovernor.TargetMetadata",
              "name": "targetMetadata",
              "type": "tuple"
            },
            {
              "components": [
                {
                  "internalType": "address[]",
                  "name": "signers",
                  "type": "address[]"
                },
                {
                  "internalType": "uint256",
                  "name": "threshold",
                  "type": "uint256"
                }
              ],
              "internalType": "struct IGovernor.SafeMetadata",
              "name": "safeMetadata",
              "type": "tuple"
            }
          ],
          "internalType": "struct IGovernor.ProposalCore",
          "name": "proposal",
          "type": "tuple"
        }
      ],
      "name": "validateProposalData",
      "outputs": [
        {
          "internalType": "bool",
          "name": "dataValidated",
          "type": "bool"
        }
      ],
      "stateMutability": "nonpayable",
      "type": "function"
    },
    {
      "inputs": [
        {
          "internalType": "address",
          "name": "account",
          "type": "address"
        },
        {
          "internalType": "bytes32[]",
          "name": "proof",
          "type": "bytes32[]"
        }
      ],
      "name": "verifyProposer",
      "outputs": [
        {
          "internalType": "bool",
          "name": "verified",
          "type": "bool"
        }
      ],
      "stateMutability": "nonpayable",
      "type": "function"
    },
    {
      "inputs": [
        {
          "internalType": "address",
          "name": "account",
          "type": "address"
        },
        {
          "internalType": "uint256",
          "name": "totalVotes",
          "type": "uint256"
        },
        {
          "internalType": "bytes32[]",
          "name": "proof",
          "type": "bytes32[]"
        }
      ],
      "name": "verifyVoter",
      "outputs": [
        {
          "internalType": "bool",
          "name": "verified",
          "type": "bool"
        }
      ],
      "stateMutability": "nonpayable",
      "type": "function"
    },
    {
      "inputs": [],
      "name": "version",
      "outputs": [
        {
          "internalType": "string",
          "name": "",
          "type": "string"
        }
      ],
      "stateMutability": "view",
      "type": "function"
    },
    {
      "inputs": [],
      "name": "voteStart",
      "outputs": [
        {
          "internalType": "uint256",
          "name": "",
          "type": "uint256"
        }
      ],
      "stateMutability": "view",
      "type": "function"
    },
    {
      "inputs": [],
      "name": "votingDelay",
      "outputs": [
        {
          "internalType": "uint256",
          "name": "",
          "type": "uint256"
        }
      ],
      "stateMutability": "view",
      "type": "function"
    },
    {
      "inputs": [],
      "name": "votingMerkleRoot",
      "outputs": [
        {
          "internalType": "bytes32",
          "name": "",
          "type": "bytes32"
        }
      ],
      "stateMutability": "view",
      "type": "function"
    },
    {
      "inputs": [],
      "name": "votingPeriod",
      "outputs": [
        {
          "internalType": "uint256",
          "name": "",
          "type": "uint256"
        }
      ],
      "stateMutability": "view",
      "type": "function"
    },
    {
      "stateMutability": "payable",
      "type": "receive"
    }
  ],
  "bytecode": {
    "object": "0x6101a06040526016805460ff191690553480156200001c57600080fd5b50604051620046a0380380620046a08339810160408190526200003f9162000621565b8060008151811062000055576200005562000732565b60200260200101518160018151811062000073576200007362000732565b60200260200101518260028151811062000091576200009162000732565b602002602001015183600381518110620000af57620000af62000732565b602002602001015184600481518110620000cd57620000cd62000732565b602002602001015185600581518110620000eb57620000eb62000732565b60200260200101518a8a8a8a8181856200010a6200025060201b60201c565b620001178260006200026d565b61012052620001288160016200026d565b61014052815160208084019190912060e052815190820120610100524660a052620001b660e05161010051604080517f8b73c3c69bb8fe3d512ecc4cf759cc79239f7b179b0ffacaa9a75d522b39400f60208201529081019290925260608201524660808201523060a082015260009060c00160405160208183030381529060405280519060200120905090565b60805250503060c05261016091909152610180526007620001d88582620007d7565b506008620001e78482620007d7565b5050505050620001fd86620002a660201b60201c565b6200020885620002e7565b620002138462000328565b6200021e83620003cf565b620002298262000410565b620002348162000451565b6200023f3362000492565b5050505050505050505050620008fd565b604080518082019091526003815262332e3360e81b602082015290565b60006020835110156200028d576200028583620004fb565b9050620002a0565b816200029a8482620007d7565b5060ff90505b92915050565b600c5460408051918252602082018390527fd299feb1d7d9345a48559601c471c3be7eea9a11f21d5e86809198f40a974db4910160405180910390a1600c55565b600d5460408051918252602082018390527fc565b045403dc03c2eea82b81a0465edad9e2e7fc4d97e11421c209da93d7a93910160405180910390a1600d55565b600081116200038e5760405162461bcd60e51b815260206004820152602760248201527f476f7665726e6f7253657474696e67733a20766f74696e6720706572696f6420604482015266746f6f206c6f7760c81b60648201526084015b60405180910390fd5b600e5460408051918252602082018390527f7e3f7f0708a84de9203036abaa450dccc85ad5ff52f78c170f3edb55cf5e8828910160405180910390a1600e55565b600f5460408051918252602082018390527fe971b819c7fb95c72451f557226aceb5baaf4994a9d39a79bbfa0040e87500b9910160405180910390a1600f55565b60105460408051918252602082018390527f4984ec996723330ee95979ed65a2a4b41edd914e68a187efe92596474643bdff910160405180910390a1601055565b60115460408051918252602082018390527f9c7b27f091caef3a83be73d89320404fa0c4a52993685ff0651672e49e6e55ab910160405180910390a1601155565b601254604080516001600160a01b03928316815291831660208301527fc30034fc2e9697980e08935bbc287db3eaa44a4aa113ef4c108b356adbf911ce910160405180910390a1601280546001600160a01b0319166001600160a01b0392909216919091179055565b600080829050601f8151111562000529578260405163305a27a960e01b8152600401620003859190620008a3565b80516200053682620008d8565b179392505050565b634e487b7160e01b600052604160045260246000fd5b604051601f8201601f191681016001600160401b03811182821017156200057f576200057f6200053e565b604052919050565b60005b83811015620005a45781810151838201526020016200058a565b50506000910152565b600082601f830112620005bf57600080fd5b81516001600160401b03811115620005db57620005db6200053e565b620005f0601f8201601f191660200162000554565b8181528460208386010111156200060657600080fd5b6200061982602083016020870162000587565b949350505050565b600080600080600060a086880312156200063a57600080fd5b85516001600160401b03808211156200065257600080fd5b6200066089838a01620005ad565b96506020915081880151818111156200067857600080fd5b620006868a828b01620005ad565b9650506040880151945060608801519350608088015181811115620006aa57600080fd5b8801601f81018a13620006bc57600080fd5b805182811115620006d157620006d16200053e565b8060051b9250620006e484840162000554565b818152928201840192848101908c851115620006ff57600080fd5b928501925b848410156200071f5783518252928501929085019062000704565b8096505050505050509295509295909350565b634e487b7160e01b600052603260045260246000fd5b600181811c908216806200075d57607f821691505b6020821081036200077e57634e487b7160e01b600052602260045260246000fd5b50919050565b601f821115620007d257600081815260208120601f850160051c81016020861015620007ad5750805b601f850160051c820191505b81811015620007ce57828155600101620007b9565b5050505b505050565b81516001600160401b03811115620007f357620007f36200053e565b6200080b8162000804845462000748565b8462000784565b602080601f8311600181146200084357600084156200082a5750858301515b600019600386901b1c1916600185901b178555620007ce565b600085815260208120601f198616915b82811015620008745788860151825594840194600190910190840162000853565b5085821015620008935787850151600019600388901b60f8161c191681555b5050505050600190811b01905550565b6020815260008251806020840152620008c481604085016020870162000587565b601f01601f19169190910160400192915050565b805160208083015191908110156200077e5760001960209190910360031b1b16919050565b60805160a05160c05160e0516101005161012051610140516101605161018051613d256200097b60003960008181610a620152610ead01526000818161091a01528181610cf501528181610e480152611116015260006114730152600061144901526000505060005050600050506000505060005050613d256000f3fe60806040526004361061038f5760003560e01c80637de418d5116101dc578063d45a010b11610102578063e5eb5a48116100a0578063f0a7db0a1161006f578063f0a7db0a14610b66578063f4f3d7ec14610b86578063fb8ddab414610ba6578063fb9bf8d414610bc657600080fd5b8063e5eb5a4814610afa578063ea8a1af014610b27578063ebc18b9b14610b3c578063efa90d3614610b5157600080fd5b8063dd96a19d116100dc578063dd96a19d14610a50578063dea5f6a614610a84578063deaaa7cc14610ab1578063e031535b14610ae557600080fd5b8063d45a010b146109db578063d8891619146109f0578063dd4e2ba514610a0a57600080fd5b8063a1ac6cb21161017a578063c0ffaa7811610149578063c0ffaa781461093c578063c19d93fb1461095c578063c7f758a81461097e578063cb853950146109ab57600080fd5b8063a1ac6cb214610878578063aec116b6146108a5578063b323580d146108db578063bddc16411461090857600080fd5b806386187488116101b657806386187488146107fe5780638a9cd5501461081e578063930de9791461083357806396f0e9621461086357600080fd5b80637de418d5146107ab578063832009af146107c157806384b0196e146107d657600080fd5b8063427d56c2116102c157806354fd4d501161025f5780636ca1a2c71161022e5780636ca1a2c7146107435780636e4eb81014610758578063785ddfe5146107785780637c65d7111461079657600080fd5b806354fd4d50146106ac5780635f953a03146106d857806360506ff61461070e57806365f162631461072357600080fd5b80634d24a67f1161029b5780634d24a67f1461060a57806350a5e5241461061f578063531bd81214610642578063544ffc9c1461066257600080fd5b8063427d56c21461059d578063458da87d146105ca578063476f4d8a146105ea57600080fd5b80632399c6601161032e578063347cf66511610308578063347cf6651461051f5780633932abb11461053b5780633b6d199b14610550578063419c533c1461057d57600080fd5b80632399c660146104ca578063262e59e9146104ea57806332763c22146104ff57600080fd5b806302d05d3f1161036a57806302d05d3f1461040a57806306fdde0314610437578063070dc5d91461045957806320b3e845146104aa57600080fd5b80624114a81461039d57806301ffc9a7146103c557806302a251a3146103f557600080fd5b3661039857005b005b600080fd5b3480156103a957600080fd5b506103b2610bdb565b6040519081526020015b60405180910390f35b3480156103d157600080fd5b506103e56103e036600461308a565b610beb565b60405190151581526020016103bc565b34801561040157600080fd5b506103b2610c22565b34801561041657600080fd5b5061041f610c2d565b6040516001600160a01b0390911681526020016103bc565b34801561044357600080fd5b5061044c610c41565b6040516103bc91906130fa565b34801561046557600080fd5b5061049d61047436600461310d565b601560209081526000918252604091829020825180840190935280548352600101549082015281565b6040516103bc9190613126565b3480156104b657600080fd5b506103e56104c5366004613199565b610cd3565b3480156104d657600080fd5b506103e56104e536600461310d565b610d69565b3480156104f657600080fd5b506103b2610dad565b34801561050b57600080fd5b506103e561051a366004613202565b610dc9565b34801561052b57600080fd5b506103b2678ac7230489e8000081565b34801561054757600080fd5b506103b2610f06565b34801561055c57600080fd5b506103b261056b36600461310d565b60009081526006602052604090205490565b34801561058957600080fd5b506103b2610598366004613283565b610f11565b3480156105a957600080fd5b506105bd6105b83660046132f3565b610f49565b6040516103bc9190613349565b3480156105d657600080fd5b506103b26105e5366004613607565b6110e1565b3480156105f657600080fd5b506103b2610605366004613607565b611112565b34801561061657600080fd5b506103b2600281565b34801561062b57600080fd5b5061063461117c565b6040516103bc92919061363b565b34801561064e57600080fd5b506103e561065d3660046136a4565b611282565b34801561066e57600080fd5b5061069761067d36600461310d565b600090815260156020526040902080546001909101549091565b604080519283526020830191909152016103bc565b3480156106b857600080fd5b50604080518082019091526003815262332e3360e81b602082015261044c565b3480156106e457600080fd5b506103b26106f33660046136ff565b6001600160a01b03166000908152600b602052604090205490565b34801561071a57600080fd5b506103b26112ed565b34801561072f57600080fd5b506103b261073e36600461371c565b6112f8565b34801561074f57600080fd5b506103b26113c0565b34801561076457600080fd5b50610697610773366004613751565b6113ec565b34801561078457600080fd5b50601c546001600160a01b031661041f565b3480156107a257600080fd5b5061044c611421565b3480156107b757600080fd5b506103b260135481565b3480156107cd57600080fd5b506103b2611430565b3480156107e257600080fd5b506107eb61143b565b6040516103bc9796959493929190613781565b34801561080a57600080fd5b506103b261081936600461310d565b6114c3565b34801561082a57600080fd5b506105bd6114fb565b34801561083f57600080fd5b506103e561084e3660046136ff565b60036020526000908152604090205460ff1681565b34801561086f57600080fd5b50610396611575565b34801561088457600080fd5b506103b26108933660046136ff565b60146020526000908152604090205481565b3480156108b157600080fd5b506103b26108c03660046136ff565b6001600160a01b031660009081526014602052604090205490565b3480156108e757600080fd5b506108fb6108f636600461310d565b611889565b6040516103bc919061382a565b34801561091457600080fd5b506103b27f000000000000000000000000000000000000000000000000000000000000000081565b34801561094857600080fd5b506103b261095736600461383d565b6118fb565b34801561096857600080fd5b5061097161193f565b6040516103bc91906138ae565b34801561098a57600080fd5b5061099e61099936600461310d565b6119b1565b6040516103bc91906138d6565b3480156109b757600080fd5b506103e56109c63660046136ff565b60046020526000908152604090205460ff1681565b3480156109e757600080fd5b50610634611b2b565b3480156109fc57600080fd5b506016546103e59060ff1681565b348015610a1657600080fd5b5060408051808201909152601881527f737570706f72743d627261766f2671756f72756d3d666f720000000000000000602082015261044c565b348015610a5c57600080fd5b506103b27f000000000000000000000000000000000000000000000000000000000000000081565b348015610a9057600080fd5b506103b2610a9f3660046136ff565b60026020526000908152604090205481565b348015610abd57600080fd5b506103b27f150214d74d59b7d1e90c73fc22ef3d991dd0a76b046543d4d80ab92d2a50328f81565b348015610af157600080fd5b506103b2611cf6565b348015610b0657600080fd5b506103b2610b1536600461310d565b60176020526000908152604090205481565b348015610b3357600080fd5b50610396611d08565b348015610b4857600080fd5b506103b2611df2565b348015610b5d57600080fd5b506105bd611e1e565b348015610b7257600080fd5b50610396610b8136600461395c565b611e74565b348015610b9257600080fd5b50610396610ba13660046136ff565b6120b7565b348015610bb257600080fd5b506103e5610bc1366004613607565b612152565b348015610bd257600080fd5b506103b26123dd565b6000610be6600c5490565b905090565b60006001600160e01b0319821663eed9776760e01b1480610c1c57506301ffc9a760e01b6001600160e01b03198316145b92915050565b6000610be6600e5490565b6000610be66012546001600160a01b031690565b606060078054610c50906139ec565b80601f0160208091040260200160405190810160405280929190818152602001828054610c7c906139ec565b8015610cc95780601f10610c9e57610100808354040283529160200191610cc9565b820191906000526020600020905b815481529060010190602001808311610cac57829003601f168201915b5050505050905090565b6001600160a01b03831660009081526004602052604081205460ff16610d5e577f0000000000000000000000000000000000000000000000000000000000000000600003610d2357506001610d62565b610d3984678ac7230489e8000085856000610dc9565b506001600160a01b0384166000908152600460205260409020805460ff191660011790555b5060015b9392505050565b60165460009060ff16610d975760405162461bcd60e51b8152600401610d8e90613a26565b60405180910390fd5b5060009081526018602052604090205460ff1690565b6000610db7610c22565b610dbf611cf6565b610be69190613aa7565b6040516bffffffffffffffffffffffff19606087901b166020820152603481018590526000908190605401604051602081830303815290604052805190602001209050600083610e7857610e738686808060200260200160405190810160405280939291908181526020018383602002808284376000920191909152507f000000000000000000000000000000000000000000000000000000000000000092508691506123e89050565b610ed8565b610ed88686808060200260200160405190810160405280939291908181526020018383602002808284376000920191909152507f000000000000000000000000000000000000000000000000000000000000000092508691506123e89050565b905080610ef85760405163452c2df160e11b815260040160405180910390fd5b506001979650505050505050565b6000610be6600d5490565b600033610f2081878686611282565b50610f3d88828988604051806020016040528060008152506123fe565b98975050505050505050565b606060008083610f6057610f5b61117c565b610f68565b610f68611b2b565b915091506000825111610fd85760405162461bcd60e51b815260206004820152603260248201527f476f7665726e6f72536f7274696e673a2063616e6e6f7420736f72742061206c6044820152710d2e6e840decc40f4cae4de40d8cadccee8d60731b6064820152608401610d8e565b600082516001600160401b03811115610ff357610ff361335c565b60405190808252806020026020018201604052801561101c578160200160208202803683370190505b50905060005b82518110156110a05782818151811061103d5761103d613aba565b60200260200101516020015183828151811061105b5761105b613aba565b6020026020010151600001516110719190613ad0565b82828151811061108357611083613aba565b60209081029190910101528061109881613af7565b915050611022565b5060005b600184516110b29190613b10565b8110156110d7576110c4818386612618565b50806110cf81613af7565b9150506110a4565b5091949350505050565b6000816040516020016110f491906138d6565b60408051601f19818403018152919052805160209091012092915050565b60007f000000000000000000000000000000000000000000000000000000000000000015611169573360009081526004602052604090205460ff166111695760405162461bcd60e51b8152600401610d8e90613b23565b61117282612152565b50610c1c8261277e565b6060806000611189611e1e565b9050600081516001600160401b038111156111a6576111a661335c565b6040519080825280602002602001820160405280156111eb57816020015b60408051808201909152600080825260208201528152602001906001900390816111c45790505b50905060005b8251811015611278576015600084838151811061121057611210613aba565b602002602001015181526020019081526020016000206000016040518060400160405290816000820154815260200160018201548152505082828151811061125a5761125a613aba565b6020026020010181905250808061127090613af7565b9150506111f1565b5090939092509050565b6001600160a01b03841660009081526003602052604081205460ff166112e2576112b0858585856001610dc9565b506001600160a01b038516600090815260026020908152604080832087905560039091529020805460ff191660011790555b506001949350505050565b6000610be660115490565b3360008181526003602052604081205490919060ff1661139b5760405162461bcd60e51b815260206004820152605260248201527f476f7665726e6f723a20796f75206e65656420746f2063617374206120766f7460448201527f652077697468207468652070726f6f66206174206c65617374206f6e636520616064820152711b99081e5bdd481a185d995b89dd081e595d60721b608482015260a401610d8e565b6113b785828686604051806020016040528060008152506123fe565b95945050505050565b60165460009060ff166113e55760405162461bcd60e51b8152600401610d8e90613a26565b50601a5490565b60008281526015602090815260408083206001600160a01b0385168452600301909152902080546001909101545b9250929050565b606060088054610c50906139ec565b6000610be6600f5490565b60006060808280808361146e7f000000000000000000000000000000000000000000000000000000000000000083612b0b565b6114997f00000000000000000000000000000000000000000000000000000000000000006001612b0b565b60408051600080825260208201909252600f60f81b9b939a50919850469750309650945092509050565b60165460009060ff166114e85760405162461bcd60e51b8152600401610d8e90613a26565b5060009081526017602052604090205490565b60165460609060ff166115205760405162461bcd60e51b8152600401610d8e90613a26565b6019805480602002602001604051908101604052809291908181526020018280548015610cc957602002820191906000526020600020905b815481526020019060010190808311611558575050505050905090565b600461157f61193f565b600481111561159057611590613898565b146116135760405162461bcd60e51b815260206004820152604760248201527f476f7665726e6f72536f7274696e673a20636f6e74657374206d75737420626560448201527f20746f2063616c63756c61746520736f7274656420616e6420746965642070726064820152666f706f73616c7360c81b608482015260a401610d8e565b60165460ff16156116b25760405162461bcd60e51b815260206004820152605f60248201527f476f7665726e6f72536f7274696e673a20736574536f72746564416e6454696560448201527f6450726f706f73616c7328292068617320616c7265616479206265656e20727560648201527f6e20616e642069747320726573706563746976652076616c7565732073657400608482015260a401610d8e565b6116bc6001610f49565b80516116d091601991602090910190612f64565b506019546000906001906116e49082613aa7565b601b5560005b6019548110156118775760195460009061170690600190613b10565b905060008061174f601961171a8686613b10565b8154811061172a5761172a613aba565b9060005260206000200154600090815260156020526040902080546001909101549091565b909250905060006117608284613ad0565b9050846000036117a1576019549096508690600103611798576117838585613b10565b600087815260176020526040902055601a8690555b50505050611865565b8681036117f45760008681526018602052604090205460ff166117d8576000868152601860205260409020805460ff191660011790555b6019546117e6906001613aa7565b601b54036117f457601b8690555b86811461182d576118058585613b10565b611810906001613aa7565b6000878152601760205260409020558561182981613af7565b9650505b60195461183b866001613aa7565b0361185f5761184a8585613b10565b600087815260176020526040902055601a8690555b95505050505b8061186f81613af7565b9150506116ea565b50506016805460ff1916600117905550565b60008181526015602090815260409182902060028101805484518185028101850190955280855260609492938301828280156118ee57602002820191906000526020600020905b81546001600160a01b031681526001909101906020018083116118d0575b5050505050915050919050565b6000611908338484610cd3565b6119245760405162461bcd60e51b8152600401610d8e90613b23565b61192d84612152565b506119378461277e565b949350505050565b60095460009060ff16156119535750600290565b600061195d610bdb565b905042811061196e57600091505090565b6000611978611cf6565b905042811061198a5760039250505090565b6000611994610dad565b90504281106119a7576001935050505090565b6004935050505090565b6119b9612faf565b6000828152600a6020908152604091829020825160a08101845281546001600160a01b0381168252600160a01b900460ff161515928101929092526001810180549293919291840191611a0b906139ec565b80601f0160208091040260200160405190810160405280929190818152602001828054611a37906139ec565b8015611a845780601f10611a5957610100808354040283529160200191611a84565b820191906000526020600020905b815481529060010190602001808311611a6757829003601f168201915b5050509183525050604080516020818101835260028501546001600160a01b03168252808401919091528151600385018054606093810283018401855282850181815294909501949193909284928491840182828015611b0d57602002820191906000526020600020905b81546001600160a01b03168152600190910190602001808311611aef575b50505050508152602001600182015481525050815250509050919050565b6060806000611b38611e1e565b9050600081516001600160401b03811115611b5557611b5561335c565b604051908082528060200260200182016040528015611b7e578160200160208202803683370190505b509050600082516001600160401b03811115611b9c57611b9c61335c565b604051908082528060200260200182016040528015611be157816020015b6040805180820190915260008082526020820152815260200190600190039081611bba5790505b5090506000805b8451811015611cea57611c20858281518110611c0657611c06613aba565b602002602001015160009081526006602052604090205490565b600114611cd857848181518110611c3957611c39613aba565b6020026020010151848381518110611c5357611c53613aba565b60200260200101818152505060156000868381518110611c7557611c75613aba565b6020026020010151815260200190815260200160002060000160405180604001604052908160008201548152602001600182015481525050838381518110611cbf57611cbf613aba565b6020908102919091010152611cd5600183613aa7565b91505b80611ce281613af7565b915050611be8565b50919590945092505050565b6000611d00610f06565b610dbf610bdb565b611d10610c2d565b6001600160a01b0316336001600160a01b031614611d2d57600080fd5b6000611d3761193f565b90506002816004811115611d4d57611d4d613898565b14158015611d6d57506004816004811115611d6a57611d6a613898565b14155b611db95760405162461bcd60e51b815260206004820152601c60248201527f476f7665726e6f723a20636f6e74657374206e6f7420616374697665000000006044820152606401610d8e565b6009805460ff191660011790556040517f4cd963a081760a54f571abc0f1db4dde31b4a07d8d6da3e844b8c6f47eeaaa4290600090a150565b60165460009060ff16611e175760405162461bcd60e51b8152600401610d8e90613a26565b50601b5490565b60606005805480602002602001604051908101604052809291908181526020018280548015610cc95760200282019190600052602060002090815481526020019060010190808311611558575050505050905090565b611e7c610c2d565b6001600160a01b0316336001600160a01b031614611f025760405162461bcd60e51b815260206004820152603760248201527f476f7665726e6f723a206f6e6c792074686520636f6e7465737420637265617460448201527f6f722063616e2064656c6574652070726f706f73616c730000000000000000006064820152608401610d8e565b6004611f0c61193f565b6004811115611f1d57611f1d613898565b03611fa25760405162461bcd60e51b815260206004820152604960248201527f476f7665726e6f723a2064656c6574696f6e206f662070726f706f73616c732060448201527f61667465722074686520656e64206f66206120636f6e74657374206973206e6f6064820152681d08185b1b1bddd95960ba1b608482015260a401610d8e565b60005b815181101561207c5760066000838381518110611fc457611fc4613aba565b602002602001015181526020019081526020016000205460011461206a57600160066000848481518110611ffa57611ffa613aba565b60200260200101518152602001908152602001600020819055506040518060600160405280603d8152602001613cb3603d9139600a600084848151811061204357612043613aba565b6020026020010151815260200190815260200160002060010190816120689190613bc1565b505b8061207481613af7565b915050611fa5565b507f75a75cf5c561892f4cc5b26c1b8e933849b42238c96dd073d080d1ae96c51416816040516120ac9190613349565b60405180910390a150565b6120bf610c2d565b6001600160a01b0316336001600160a01b0316146120dc57600080fd5b60006120f0601c546001600160a01b031690565b601c80546001600160a01b0319166001600160a01b0385811691821790925560408051928416835260208301919091529192507f753a2cf8d360cff631674504210913e48247f8e56b3e6d2006c2103d4095999f910160405180910390a15050565b80516000906001600160a01b031633146121c75760405162461bcd60e51b815260206004820152603060248201527f476f7665726e6f723a207468652070726f706f73616c20617574686f72206d7560448201526f39ba1031329036b9b39739b2b73232b960811b6064820152608401610d8e565b60005b600281101561237f5760008160018111156121e7576121e7613898565b905060008160018111156121fd576121fd613898565b03612208575061236d565b600181600181111561221c5761221c613898565b0361235257608084015151516000036122ae5760405162461bcd60e51b815260206004820152604860248201527f476f7665726e6f724d6574616461746156616c69646174696f6e3a207468657260448201527f652063616e6e6f74206265207a65726f207369676e65727320696e20736166656064820152674d6574616461746160c01b608482015260a401610d8e565b83608001516020015160000361233a5760405162461bcd60e51b8152602060048201526044602482018190527f476f7665726e6f724d6574616461746156616c69646174696f6e3a2074687265908201527f73686f6c642063616e6e6f74206265207a65726f20696e20736166654d6574616064820152636461746160e01b608482015260a401610d8e565b6080840151515160000361234d57600080fd5b61236b565b6040516308b6566d60e11b815260040160405180910390fd5b505b8061237781613af7565b9150506121ca565b508160400151516000036123d55760405162461bcd60e51b815260206004820152601860248201527f476f7665726e6f723a20656d7074792070726f706f73616c00000000000000006044820152606401610d8e565b506001919050565b6000610be660105490565b6000826123f58584612bb7565b14949350505050565b6000600161240a61193f565b600481111561241b5761241b613898565b146124745760405162461bcd60e51b815260206004820152602360248201527f476f7665726e6f723a20766f7465206e6f742063757272656e746c792061637460448201526269766560e81b6064820152608401610d8e565b600083116124d85760405162461bcd60e51b815260206004820152602b60248201527f476f7665726e6f723a2063616e6e6f7420766f746520776974682030206f722060448201526a666577657220766f74657360a81b6064820152608401610d8e565b6001600160a01b03851660009081526003602052604090205460ff1661257e5760405162461bcd60e51b815260206004820152604f60248201527f476f7665726e6f723a20796f75206e65656420746f2076657269667920796f7560448201527f72206e756d626572206f6620766f74657320616761696e737420746865206d6560648201526e1c9adb19481c9bdbdd08199a5c9cdd608a1b608482015260a401610d8e565b6125b086868686600260008b6001600160a01b03166001600160a01b0316815260200190815260200160002054612c04565b846001600160a01b03167fb8e138887d0aa13bab447e82de9d5c1777041ecd21ca36ba824ff1e6c07ddda4878686866040516125ef9493929190613c80565b60405180910390a2505050506001600160a01b0316600090815260026020526040902054919050565b600083805b84518110156126765784828151811061263857612638613aba565b602002602001015185828151811061265257612652613aba565b60200260200101511215612664578091505b8061266e81613af7565b91505061261d565b50848103612688576000915050610d62565b600084868151811061269c5761269c613aba565b602002602001015190508482815181106126b8576126b8613aba565b60200260200101518587815181106126d2576126d2613aba565b602002602001018181525050808583815181106126f1576126f1613aba565b602002602001018181525050600084878151811061271157612711613aba565b6020026020010151905084838151811061272d5761272d613aba565b602002602001015185888151811061274757612747613aba565b6020026020010181815250508085848151811061276657612766613aba565b60209081029190910101525060019695505050505050565b6000600361278a61193f565b600481111561279b5761279b613898565b1461280e5760405162461bcd60e51b815260206004820152603e60248201527f476f7665726e6f723a20636f6e74657374206d7573742062652071756575656460448201527f20666f722070726f706f73616c7320746f206265207375626d697474656400006064820152608401610d8e565b612816611430565b336000908152600b6020526040902054106128cd5760405162461bcd60e51b815260206004820152606560248201527f476f7665726e6f723a207468652073616d6520616464726573732063616e6e6f60448201527f74207375626d6974206d6f7265207468616e20746865206e756d416c6c6f776560648201527f6450726f706f73616c5375626d697373696f6e7320666f72207468697320636f6084820152641b9d195cdd60da1b60a482015260c401610d8e565b6128d56123dd565b6005541061294b5760405162461bcd60e51b815260206004820152603960248201527f476f7665726e6f723a20746865206d6178206e756d626572206f662070726f7060448201527f6f73616c732068617665206265656e207375626d6974746564000000000000006064820152608401610d8e565b6000612956836110e1565b6000818152600a6020526040902054909150600160a01b900460ff16156129d15760405162461bcd60e51b815260206004820152602960248201527f476f7665726e6f723a206475706c69636174652070726f706f73616c73206e6f6044820152681d08185b1b1bddd95960ba1b6064820152608401610d8e565b6005805460018181019092557f036b6384b5eca791c62761152d0c79bb0604c104a5fb6f4eb0703f3154bb3db0018290556000828152600a602090815260409182902086518154928801511515600160a01b026001600160a81b03199093166001600160a01b0390911617919091178155908501518592820190612a559082613bc1565b506060820151516002820180546001600160a01b0319166001600160a01b039092169190911790556080820151805180516003840191612a9a91839160200190613020565b50602091820151600191820155336000908152600b9092526040822080549194509250612ac8908490613aa7565b9091555050604080518281523360208201527fcd423cc1203c0af96b9b3d68d73b3064a69de2d14450bb7181c5e5df2132b358910160405180910390a192915050565b606060ff8314612b2557612b1e83612ed1565b9050610c1c565b818054612b31906139ec565b80601f0160208091040260200160405190810160405280929190818152602001828054612b5d906139ec565b8015612baa5780601f10612b7f57610100808354040283529160200191612baa565b820191906000526020600020905b815481529060010190602001808311612b8d57829003601f168201915b5050505050905092915050565b600081815b8451811015612bfc57612be882868381518110612bdb57612bdb613aba565b6020026020010151612f10565b915080612bf481613af7565b915050612bbc565b509392505050565b60008581526015602090815260408083206001600160a01b0388168452601490925290912054612c349083613b10565b831115612c9f5760405162461bcd60e51b815260206004820152603360248201527f476f7665726e6f72566f74696e6753696d706c653a206e6f7420656e6f756768604482015272081d9bdd195cc81b19599d081d1bc818d85cdd606a1b6064820152608401610d8e565b6001600160a01b03851660009081526003820160205260409020541560ff8516612d1157815484908390600090612cd7908490613aa7565b90915550506001600160a01b038616600090815260038301602052604081208054869290612d06908490613aa7565b90915550612e4b9050565b60001960ff861601612de557612d256112ed565b600114612d9c576040805162461bcd60e51b81526020600482015260248101919091527f476f7665726e6f72566f74696e6753696d706c653a20646f776e766f74696e6760448201527f206973206e6f7420656e61626c656420666f72207468697320436f6e746573746064820152608401610d8e565b83826000016001016000828254612db39190613aa7565b90915550506001600160a01b038616600090815260038301602052604081206001018054869290612d06908490613aa7565b60405162461bcd60e51b815260206004820152603560248201527f476f7665726e6f72566f74696e6753696d706c653a20696e76616c69642076616044820152746c756520666f7220656e756d20566f74655479706560581b6064820152608401610d8e565b8015612e8257600282018054600181018255600091825260209091200180546001600160a01b0319166001600160a01b0388161790555b6001600160a01b03861660009081526014602052604081208054869290612eaa908490613aa7565b925050819055508360136000828254612ec39190613aa7565b909155505050505050505050565b60606000612ede83612f3c565b604080516020808252818301909252919250600091906020820181803683375050509182525060208101929092525090565b6000818310612f2c576000828152602084905260409020610d62565b5060009182526020526040902090565b600060ff8216601f811115610c1c57604051632cd44ac360e21b815260040160405180910390fd5b828054828255906000526020600020908101928215612f9f579160200282015b82811115612f9f578251825591602001919060010190612f84565b50612fab929150613075565b5090565b6040518060a0016040528060006001600160a01b0316815260200160001515815260200160608152602001612ff9604051806020016040528060006001600160a01b031681525090565b815260200161301b604051806040016040528060608152602001600081525090565b905290565b828054828255906000526020600020908101928215612f9f579160200282015b82811115612f9f57825182546001600160a01b0319166001600160a01b03909116178255602090920191600190910190613040565b5b80821115612fab5760008155600101613076565b60006020828403121561309c57600080fd5b81356001600160e01b031981168114610d6257600080fd5b6000815180845260005b818110156130da576020818501810151868301820152016130be565b506000602082860101526020601f19601f83011685010191505092915050565b602081526000610d6260208301846130b4565b60006020828403121561311f57600080fd5b5035919050565b815181526020808301519082015260408101610c1c565b6001600160a01b038116811461315257600080fd5b50565b60008083601f84011261316757600080fd5b5081356001600160401b0381111561317e57600080fd5b6020830191508360208260051b850101111561141a57600080fd5b6000806000604084860312156131ae57600080fd5b83356131b98161313d565b925060208401356001600160401b038111156131d457600080fd5b6131e086828701613155565b9497909650939450505050565b803580151581146131fd57600080fd5b919050565b60008060008060006080868803121561321a57600080fd5b85356132258161313d565b94506020860135935060408601356001600160401b0381111561324757600080fd5b61325388828901613155565b90945092506132669050606087016131ed565b90509295509295909350565b803560ff811681146131fd57600080fd5b60008060008060008060a0878903121561329c57600080fd5b863595506132ac60208801613272565b9450604087013593506060870135925060808701356001600160401b038111156132d557600080fd5b6132e189828a01613155565b979a9699509497509295939492505050565b60006020828403121561330557600080fd5b610d62826131ed565b600081518084526020808501945080840160005b8381101561333e57815187529582019590820190600101613322565b509495945050505050565b602081526000610d62602083018461330e565b634e487b7160e01b600052604160045260246000fd5b604080519081016001600160401b03811182821017156133945761339461335c565b60405290565b60405160a081016001600160401b03811182821017156133945761339461335c565b604051601f8201601f191681016001600160401b03811182821017156133e4576133e461335c565b604052919050565b6000602082840312156133fe57600080fd5b604051602081018181106001600160401b03821117156134205761342061335c565b60405290508082356134318161313d565b905292915050565b60006001600160401b038211156134525761345261335c565b5060051b60200190565b60006040828403121561346e57600080fd5b613476613372565b905081356001600160401b0381111561348e57600080fd5b8201601f8101841361349f57600080fd5b803560206134b46134af83613439565b6133bc565b82815260059290921b830181019181810190878411156134d357600080fd5b938201935b838510156134fa5784356134eb8161313d565b825293820193908201906134d8565b85525093840135938301939093525092915050565b600060a0828403121561352157600080fd5b61352961339a565b905081356135368161313d565b815260206135458382016131ed565b8183015260408301356001600160401b038082111561356357600080fd5b818501915085601f83011261357757600080fd5b8135818111156135895761358961335c565b61359b601f8201601f191685016133bc565b81815287858386010111156135af57600080fd5b8185850186830137600085838301015280604087015250506135d486606087016133ec565b606085015260808501359250808311156135ed57600080fd5b50506135fb8482850161345c565b60808301525092915050565b60006020828403121561361957600080fd5b81356001600160401b0381111561362f57600080fd5b6119378482850161350f565b6000604080835261364e8184018661330e565b83810360208581019190915285518083528682019282019060005b818110156136965761368683865180518252602090810151910152565b9383019391850191600101613669565b509098975050505050505050565b600080600080606085870312156136ba57600080fd5b84356136c58161313d565b93506020850135925060408501356001600160401b038111156136e757600080fd5b6136f387828801613155565b95989497509550505050565b60006020828403121561371157600080fd5b8135610d628161313d565b60008060006060848603121561373157600080fd5b8335925061374160208501613272565b9150604084013590509250925092565b6000806040838503121561376457600080fd5b8235915060208301356137768161313d565b809150509250929050565b60ff60f81b8816815260e0602082015260006137a060e08301896130b4565b82810360408401526137b281896130b4565b606084018890526001600160a01b038716608085015260a0840186905283810360c085015290506137e3818561330e565b9a9950505050505050505050565b600081518084526020808501945080840160005b8381101561333e5781516001600160a01b031687529582019590820190600101613805565b602081526000610d6260208301846137f1565b60008060006040848603121561385257600080fd5b83356001600160401b038082111561386957600080fd5b6138758783880161350f565b9450602086013591508082111561388b57600080fd5b506131e086828701613155565b634e487b7160e01b600052602160045260246000fd5b60208101600583106138d057634e487b7160e01b600052602160045260246000fd5b91905290565b60208152600060018060a01b03808451166020840152602084015115156040840152604084015160a0606085015261391160c08501826130b4565b90508160608601515116608085015260808501519150601f198482030160a085015281516040825261394660408301826137f1565b6020938401519290930191909152509392505050565b6000602080838503121561396f57600080fd5b82356001600160401b0381111561398557600080fd5b8301601f8101851361399657600080fd5b80356139a46134af82613439565b81815260059190911b820183019083810190878311156139c357600080fd5b928401925b828410156139e1578335825292840192908401906139c8565b979650505050505050565b600181811c90821680613a0057607f821691505b602082108103613a2057634e487b7160e01b600052602260045260246000fd5b50919050565b60208082526045908201527f526577617264734d6f64756c653a2072756e20736574536f72746564416e645460408201527f69656450726f706f73616c73282920746f20706f70756c61746520746869732060608201526476616c756560d81b608082015260a00190565b634e487b7160e01b600052601160045260246000fd5b80820180821115610c1c57610c1c613a91565b634e487b7160e01b600052603260045260246000fd5b8181036000831280158383131683831282161715613af057613af0613a91565b5092915050565b600060018201613b0957613b09613a91565b5060010190565b81810381811115610c1c57610c1c613a91565b6020808252602f908201527f476f7665726e6f723a2061646472657373206973206e6f74207065726d69737360408201526e1a5bdb9959081d1bc81cdd589b5a5d608a1b606082015260800190565b601f821115613bbc57600081815260208120601f850160051c81016020861015613b995750805b601f850160051c820191505b81811015613bb857828155600101613ba5565b5050505b505050565b81516001600160401b03811115613bda57613bda61335c565b613bee81613be884546139ec565b84613b72565b602080601f831160018114613c235760008415613c0b5750858301515b600019600386901b1c1916600185901b178555613bb8565b600085815260208120601f198616915b82811015613c5257888601518255948401946001909101908401613c33565b5085821015613c705787850151600019600388901b60f8161c191681555b5050505050600190811b01905550565b84815260ff84166020820152826040820152608060608201526000613ca860808301846130b4565b969550505050505056fe546869732070726f706f73616c20686173206265656e2064656c65746564206279207468652063726561746f72206f662074686520636f6e746573742ea264697066735822122024bf350849a566b9406441513436ab64c28ff31946a37b3a3a3504e93acb68ff64736f6c63430008130033",
    "linkReferences": {}
  },
  "methodIdentifiers": {
    "AMOUNT_FOR_SUMBITTER_PROOF()": "347cf665",
    "BALLOT_TYPEHASH()": "deaaa7cc",
    "COUNTING_MODE()": "dd4e2ba5",
    "METADATAS_COUNT()": "4d24a67f",
    "addressSubmitterVerified(address)": "cb853950",
    "addressTotalCastVoteCounts(address)": "a1ac6cb2",
    "addressTotalVotes(address)": "dea5f6a6",
    "addressTotalVotesVerified(address)": "930de979",
    "allProposalTotalVotes()": "50a5e524",
    "allProposalTotalVotesWithoutDeleted()": "d45a010b",
    "cancel()": "ea8a1af0",
    "castVote(uint256,uint8,uint256,uint256,bytes32[])": "419c533c",
    "castVoteWithoutProof(uint256,uint8,uint256)": "65f16263",
    "checkProof(address,uint256,bytes32[],bool)": "32763c22",
    "contestAddressTotalVotesCast(address)": "aec116b6",
    "contestDeadline()": "262e59e9",
    "contestStart()": "004114a8",
    "creator()": "02d05d3f",
    "deleteProposals(uint256[])": "f0a7db0a",
    "downvotingAllowed()": "60506ff6",
    "eip712Domain()": "84b0196e",
    "getAllProposalIds()": "efa90d36",
    "getNumSubmissions(address)": "5f953a03",
    "getProposal(uint256)": "c7f758a8",
    "hashProposal((address,bool,string,(address),(address[],uint256)))": "458da87d",
    "highestTiedRanking()": "ebc18b9b",
    "isProposalDeleted(uint256)": "3b6d199b",
    "isTied(uint256)": "2399c660",
    "lowestRanking()": "6ca1a2c7",
    "maxProposalCount()": "fb9bf8d4",
    "name()": "06fdde03",
    "numAllowedProposalSubmissions()": "832009af",
    "officialRewardsModule()": "785ddfe5",
    "prompt()": "7c65d711",
    "proposalAddressVotes(uint256,address)": "6e4eb810",
    "proposalAddressesHaveVoted(uint256)": "b323580d",
    "proposalVotes(uint256)": "544ffc9c",
    "proposalVotesStructs(uint256)": "070dc5d9",
    "propose((address,bool,string,(address),(address[],uint256)),bytes32[])": "c0ffaa78",
    "proposeWithoutProof((address,bool,string,(address),(address[],uint256)))": "476f4d8a",
    "rankingPosition(uint256)": "86187488",
    "setOfficialRewardsModule(address)": "f4f3d7ec",
    "setSortedAndTiedProposals()": "96f0e962",
    "setSortedAndTiedProposalsHasBeenRun()": "d8891619",
    "sortedProposalIds()": "8a9cd550",
    "sortedProposals(bool)": "427d56c2",
    "state()": "c19d93fb",
    "submissionMerkleRoot()": "bddc1641",
    "supportsInterface(bytes4)": "01ffc9a7",
    "tiedAdjustedRankingPosition(uint256)": "e5eb5a48",
    "totalVotesCast()": "7de418d5",
    "validateProposalData((address,bool,string,(address),(address[],uint256)))": "fb8ddab4",
    "verifyProposer(address,bytes32[])": "20b3e845",
    "verifyVoter(address,uint256,bytes32[])": "531bd812",
    "version()": "54fd4d50",
    "voteStart()": "e031535b",
    "votingDelay()": "3932abb1",
    "votingMerkleRoot()": "dd96a19d",
    "votingPeriod()": "02a251a3"
  },
  "id": 40
}