{
  "_format": "hh-sol-artifact-1",
  "contractName": "ERC20VotesTimestampWrapper",
  "sourceName": "contracts/ERC20VotesTimestampWrapper.sol",
  "abi": [
    {
      "inputs": [
        {
          "internalType": "contract IERC20",
          "name": "wrappedToken",
          "type": "address"
        },
        {
          "internalType": "string",
          "name": "tokenName",
          "type": "string"
        },
        {
          "internalType": "string",
          "name": "tokenSymbol",
          "type": "string"
        }
      ],
      "stateMutability": "nonpayable",
      "type": "constructor"
    },
    {
      "anonymous": false,
      "inputs": [
        {
          "indexed": true,
          "internalType": "address",
          "name": "owner",
          "type": "address"
        },
        {
          "indexed": true,
          "internalType": "address",
          "name": "spender",
          "type": "address"
        },
        {
          "indexed": false,
          "internalType": "uint256",
          "name": "value",
          "type": "uint256"
        }
      ],
      "name": "Approval",
      "type": "event"
    },
    {
      "anonymous": false,
      "inputs": [
        {
          "indexed": true,
          "internalType": "address",
          "name": "delegator",
          "type": "address"
        },
        {
          "indexed": true,
          "internalType": "address",
          "name": "fromDelegate",
          "type": "address"
        },
        {
          "indexed": true,
          "internalType": "address",
          "name": "toDelegate",
          "type": "address"
        }
      ],
      "name": "DelegateChanged",
      "type": "event"
    },
    {
      "anonymous": false,
      "inputs": [
        {
          "indexed": true,
          "internalType": "address",
          "name": "delegate",
          "type": "address"
        },
        {
          "indexed": false,
          "internalType": "uint256",
          "name": "previousBalance",
          "type": "uint256"
        },
        {
          "indexed": false,
          "internalType": "uint256",
          "name": "newBalance",
          "type": "uint256"
        }
      ],
      "name": "DelegateVotesChanged",
      "type": "event"
    },
    {
      "anonymous": false,
      "inputs": [
        {
          "indexed": true,
          "internalType": "address",
          "name": "from",
          "type": "address"
        },
        {
          "indexed": true,
          "internalType": "address",
          "name": "to",
          "type": "address"
        },
        {
          "indexed": false,
          "internalType": "uint256",
          "name": "value",
          "type": "uint256"
        }
      ],
      "name": "Transfer",
      "type": "event"
    },
    {
      "inputs": [],
      "name": "DOMAIN_SEPARATOR",
      "outputs": [
        {
          "internalType": "bytes32",
          "name": "",
          "type": "bytes32"
        }
      ],
      "stateMutability": "view",
      "type": "function"
    },
    {
      "inputs": [
        {
          "internalType": "address",
          "name": "owner",
          "type": "address"
        },
        {
          "internalType": "address",
          "name": "spender",
          "type": "address"
        }
      ],
      "name": "allowance",
      "outputs": [
        {
          "internalType": "uint256",
          "name": "",
          "type": "uint256"
        }
      ],
      "stateMutability": "view",
      "type": "function"
    },
    {
      "inputs": [
        {
          "internalType": "address",
          "name": "spender",
          "type": "address"
        },
        {
          "internalType": "uint256",
          "name": "amount",
          "type": "uint256"
        }
      ],
      "name": "approve",
      "outputs": [
        {
          "internalType": "bool",
          "name": "",
          "type": "bool"
        }
      ],
      "stateMutability": "nonpayable",
      "type": "function"
    },
    {
      "inputs": [
        {
          "internalType": "address",
          "name": "account",
          "type": "address"
        }
      ],
      "name": "balanceOf",
      "outputs": [
        {
          "internalType": "uint256",
          "name": "",
          "type": "uint256"
        }
      ],
      "stateMutability": "view",
      "type": "function"
    },
    {
      "inputs": [
        {
          "internalType": "address",
          "name": "account",
          "type": "address"
        },
        {
          "internalType": "uint32",
          "name": "pos",
          "type": "uint32"
        }
      ],
      "name": "checkpoints",
      "outputs": [
        {
          "components": [
            {
              "internalType": "uint256",
              "name": "fromTimestamp",
              "type": "uint256"
            },
            {
              "internalType": "uint224",
              "name": "votes",
              "type": "uint224"
            }
          ],
          "internalType": "struct ERC20VotesTimestamp.Checkpoint",
          "name": "",
          "type": "tuple"
        }
      ],
      "stateMutability": "view",
      "type": "function"
    },
    {
      "inputs": [],
      "name": "decimals",
      "outputs": [
        {
          "internalType": "uint8",
          "name": "",
          "type": "uint8"
        }
      ],
      "stateMutability": "view",
      "type": "function"
    },
    {
      "inputs": [
        {
          "internalType": "address",
          "name": "spender",
          "type": "address"
        },
        {
          "internalType": "uint256",
          "name": "subtractedValue",
          "type": "uint256"
        }
      ],
      "name": "decreaseAllowance",
      "outputs": [
        {
          "internalType": "bool",
          "name": "",
          "type": "bool"
        }
      ],
      "stateMutability": "nonpayable",
      "type": "function"
    },
    {
      "inputs": [
        {
          "internalType": "address",
          "name": "delegatee",
          "type": "address"
        }
      ],
      "name": "delegate",
      "outputs": [],
      "stateMutability": "nonpayable",
      "type": "function"
    },
    {
      "inputs": [
        {
          "internalType": "address",
          "name": "delegatee",
          "type": "address"
        },
        {
          "internalType": "uint256",
          "name": "nonce",
          "type": "uint256"
        },
        {
          "internalType": "uint256",
          "name": "expiry",
          "type": "uint256"
        },
        {
          "internalType": "uint8",
          "name": "v",
          "type": "uint8"
        },
        {
          "internalType": "bytes32",
          "name": "r",
          "type": "bytes32"
        },
        {
          "internalType": "bytes32",
          "name": "s",
          "type": "bytes32"
        }
      ],
      "name": "delegateBySig",
      "outputs": [],
      "stateMutability": "nonpayable",
      "type": "function"
    },
    {
      "inputs": [
        {
          "internalType": "address",
          "name": "account",
          "type": "address"
        }
      ],
      "name": "delegates",
      "outputs": [
        {
          "internalType": "address",
          "name": "",
          "type": "address"
        }
      ],
      "stateMutability": "view",
      "type": "function"
    },
    {
      "inputs": [
        {
          "internalType": "address",
          "name": "account",
          "type": "address"
        },
        {
          "internalType": "uint256",
          "name": "amount",
          "type": "uint256"
        }
      ],
      "name": "depositFor",
      "outputs": [
        {
          "internalType": "bool",
          "name": "",
          "type": "bool"
        }
      ],
      "stateMutability": "nonpayable",
      "type": "function"
    },
    {
      "inputs": [
        {
          "internalType": "uint256",
          "name": "timestamp",
          "type": "uint256"
        }
      ],
      "name": "getPastTotalSupply",
      "outputs": [
        {
          "internalType": "uint256",
          "name": "",
          "type": "uint256"
        }
      ],
      "stateMutability": "view",
      "type": "function"
    },
    {
      "inputs": [
        {
          "internalType": "address",
          "name": "account",
          "type": "address"
        },
        {
          "internalType": "uint256",
          "name": "timestamp",
          "type": "uint256"
        }
      ],
      "name": "getPastVotes",
      "outputs": [
        {
          "internalType": "uint256",
          "name": "",
          "type": "uint256"
        }
      ],
      "stateMutability": "view",
      "type": "function"
    },
    {
      "inputs": [
        {
          "internalType": "address",
          "name": "account",
          "type": "address"
        }
      ],
      "name": "getVotes",
      "outputs": [
        {
          "internalType": "uint256",
          "name": "",
          "type": "uint256"
        }
      ],
      "stateMutability": "view",
      "type": "function"
    },
    {
      "inputs": [
        {
          "internalType": "address",
          "name": "spender",
          "type": "address"
        },
        {
          "internalType": "uint256",
          "name": "addedValue",
          "type": "uint256"
        }
      ],
      "name": "increaseAllowance",
      "outputs": [
        {
          "internalType": "bool",
          "name": "",
          "type": "bool"
        }
      ],
      "stateMutability": "nonpayable",
      "type": "function"
    },
    {
      "inputs": [],
      "name": "name",
      "outputs": [
        {
          "internalType": "string",
          "name": "",
          "type": "string"
        }
      ],
      "stateMutability": "view",
      "type": "function"
    },
    {
      "inputs": [
        {
          "internalType": "address",
          "name": "owner",
          "type": "address"
        }
      ],
      "name": "nonces",
      "outputs": [
        {
          "internalType": "uint256",
          "name": "",
          "type": "uint256"
        }
      ],
      "stateMutability": "view",
      "type": "function"
    },
    {
      "inputs": [
        {
          "internalType": "address",
          "name": "account",
          "type": "address"
        }
      ],
      "name": "numCheckpoints",
      "outputs": [
        {
          "internalType": "uint32",
          "name": "",
          "type": "uint32"
        }
      ],
      "stateMutability": "view",
      "type": "function"
    },
    {
      "inputs": [
        {
          "internalType": "address",
          "name": "owner",
          "type": "address"
        },
        {
          "internalType": "address",
          "name": "spender",
          "type": "address"
        },
        {
          "internalType": "uint256",
          "name": "value",
          "type": "uint256"
        },
        {
          "internalType": "uint256",
          "name": "deadline",
          "type": "uint256"
        },
        {
          "internalType": "uint8",
          "name": "v",
          "type": "uint8"
        },
        {
          "internalType": "bytes32",
          "name": "r",
          "type": "bytes32"
        },
        {
          "internalType": "bytes32",
          "name": "s",
          "type": "bytes32"
        }
      ],
      "name": "permit",
      "outputs": [],
      "stateMutability": "nonpayable",
      "type": "function"
    },
    {
      "inputs": [],
      "name": "symbol",
      "outputs": [
        {
          "internalType": "string",
          "name": "",
          "type": "string"
        }
      ],
      "stateMutability": "view",
      "type": "function"
    },
    {
      "inputs": [],
      "name": "totalSupply",
      "outputs": [
        {
          "internalType": "uint256",
          "name": "",
          "type": "uint256"
        }
      ],
      "stateMutability": "view",
      "type": "function"
    },
    {
      "inputs": [
        {
          "internalType": "address",
          "name": "to",
          "type": "address"
        },
        {
          "internalType": "uint256",
          "name": "amount",
          "type": "uint256"
        }
      ],
      "name": "transfer",
      "outputs": [
        {
          "internalType": "bool",
          "name": "",
          "type": "bool"
        }
      ],
      "stateMutability": "nonpayable",
      "type": "function"
    },
    {
      "inputs": [
        {
          "internalType": "address",
          "name": "from",
          "type": "address"
        },
        {
          "internalType": "address",
          "name": "to",
          "type": "address"
        },
        {
          "internalType": "uint256",
          "name": "amount",
          "type": "uint256"
        }
      ],
      "name": "transferFrom",
      "outputs": [
        {
          "internalType": "bool",
          "name": "",
          "type": "bool"
        }
      ],
      "stateMutability": "nonpayable",
      "type": "function"
    },
    {
      "inputs": [],
      "name": "underlying",
      "outputs": [
        {
          "internalType": "contract IERC20",
          "name": "",
          "type": "address"
        }
      ],
      "stateMutability": "view",
      "type": "function"
    },
    {
      "inputs": [
        {
          "internalType": "address",
          "name": "account",
          "type": "address"
        },
        {
          "internalType": "uint256",
          "name": "amount",
          "type": "uint256"
        }
      ],
      "name": "withdrawTo",
      "outputs": [
        {
          "internalType": "bool",
          "name": "",
          "type": "bool"
        }
      ],
      "stateMutability": "nonpayable",
      "type": "function"
    }
  ],
  "bytecode": "0x6101806040527f6e71edae12b1b97f4d1f60370fef10105fa2faae0126114a169c64845d6126c9610160523480156200003757600080fd5b506040516200270b3803806200270b8339810160408190526200005a91620002c5565b8180604051806040016040528060018152602001603160f81b8152508585858160039080519060200190620000919291906200016c565b508051620000a79060049060208401906200016c565b50505060601b6001600160601b03191660805281516020808401919091208251918301919091206101008290526101208190524660c0527f8b73c3c69bb8fe3d512ecc4cf759cc79239f7b179b0ffacaa9a75d522b39400f6200014f8184846040805160208101859052908101839052606081018290524660808201523060a082015260009060c0016040516020818303038152906040528051906020012090509392505050565b60a0523060601b60e05261014052506200039e9650505050505050565b8280546200017a906200034b565b90600052602060002090601f0160209004810192826200019e5760008555620001e9565b82601f10620001b957805160ff1916838001178555620001e9565b82800160010185558215620001e9579182015b82811115620001e9578251825591602001919060010190620001cc565b50620001f7929150620001fb565b5090565b5b80821115620001f75760008155600101620001fc565b600082601f83011262000223578081fd5b81516001600160401b038082111562000240576200024062000388565b604051601f8301601f19908116603f011681019082821181831017156200026b576200026b62000388565b8160405283815260209250868385880101111562000287578485fd5b8491505b83821015620002aa57858201830151818301840152908201906200028b565b83821115620002bb57848385830101525b9695505050505050565b600080600060608486031215620002da578283fd5b83516001600160a01b0381168114620002f1578384fd5b60208501519093506001600160401b03808211156200030e578384fd5b6200031c8783880162000212565b9350604086015191508082111562000332578283fd5b50620003418682870162000212565b9150509250925092565b600181811c908216806200036057607f821691505b602082108114156200038257634e487b7160e01b600052602260045260246000fd5b50919050565b634e487b7160e01b600052604160045260246000fd5b60805160601c60a05160c05160e05160601c610100516101205161014051610160516122ec6200041f600039600061098a015260006110a0015260006110ef015260006110ca015260006110230152600061104d0152600061107701526000818161029101528181610496015281816104f20152610f8001526122ec6000f3fe608060405234801561001057600080fd5b50600436106101735760003560e01c80636f307dc3116100de5780639ab24eb011610097578063c3cda52011610071578063c3cda5201461036b578063d505accf1461037e578063dd62ed3e14610391578063f1127ed8146103a457600080fd5b80639ab24eb014610332578063a457c2d714610345578063a9059cbb1461035857600080fd5b80636f307dc31461028c5780636fcfff45146102b357806370a08231146102db5780637ecebe00146103045780638e539e8c1461031757806395d89b411461032a57600080fd5b8063313ce56711610130578063313ce567146102045780633644e5151461021e57806339509351146102265780633a46b1a814610239578063587cde1e1461024c5780635c19a95c1461027757600080fd5b806306fdde0314610178578063095ea7b31461019657806318160ddd146101b9578063205c2878146101cb57806323b872dd146101de5780632f4f21e2146101f1575b600080fd5b6101806103db565b60405161018d91906121ae565b60405180910390f35b6101a96101a436600461207e565b61046d565b604051901515815260200161018d565b6002545b60405190815260200161018d565b6101a96101d936600461207e565b610485565b6101a96101ec366004611fd7565b6104c5565b6101a96101ff36600461207e565b6104eb565b61020c610523565b60405160ff909116815260200161018d565b6101bd610532565b6101a961023436600461207e565b61053c565b6101bd61024736600461207e565b61055e565b61025f61025a366004611f8b565b6105d6565b6040516001600160a01b03909116815260200161018d565b61028a610285366004611f8b565b61061f565b005b61025f7f000000000000000000000000000000000000000000000000000000000000000081565b6102c66102c1366004611f8b565b61062c565b60405163ffffffff909116815260200161018d565b6101bd6102e9366004611f8b565b6001600160a01b031660009081526020819052604090205490565b6101bd610312366004611f8b565b61064e565b6101bd61032536600461215e565b61066c565b6101806106c8565b6101bd610340366004611f8b565b6106d7565b6101a961035336600461207e565b61076c565b6101a961036636600461207e565b6107f2565b61028a6103793660046120a7565b610800565b61028a61038c366004612012565b610936565b6101bd61039f366004611fa5565b610a9a565b6103b76103b2366004612100565b610ac5565b60408051825181526020928301516001600160e01b0316928101929092520161018d565b6060600380546103ea9061225c565b80601f01602080910402602001604051908101604052809291908181526020018280546104169061225c565b80156104635780601f1061043857610100808354040283529160200191610463565b820191906000526020600020905b81548152906001019060200180831161044657829003601f168201915b5050505050905090565b60003361047b818585610b52565b5060019392505050565b60006104913383610c76565b6104bc7f00000000000000000000000000000000000000000000000000000000000000008484610c84565b50600192915050565b6000336104d3858285610cec565b6104de858585610d66565b60019150505b9392505050565b60006105197f0000000000000000000000000000000000000000000000000000000000000000333085610f3a565b6104bc8383610f72565b600061052d610f7c565b905090565b600061052d611016565b60003361047b81858561054f8383610a9a565b61055991906121e1565b610b52565b60004282106105b45760405162461bcd60e51b815260206004820152601f60248201527f4552433230566f7465733a20626c6f636b206e6f7420796574206d696e65640060448201526064015b60405180910390fd5b6001600160a01b03831660009081526007602052604090206104e4908361113d565b6001600160a01b038181166000908152600660205260408120549091166105fd5781610619565b6001600160a01b03808316600090815260066020526040902054165b92915050565b6106293382611216565b50565b6001600160a01b038116600090815260076020526040812054610619906112ac565b6001600160a01b038116600090815260056020526040812054610619565b60004282106106bd5760405162461bcd60e51b815260206004820152601f60248201527f4552433230566f7465733a20626c6f636b206e6f7420796574206d696e65640060448201526064016105ab565b61061960088361113d565b6060600480546103ea9061225c565b6001600160a01b0381166000908152600760205260408120548015610759576001600160a01b0383166000908152600760205260409020610719600183612219565b8154811061073757634e487b7160e01b600052603260045260246000fd5b60009182526020909120600160029092020101546001600160e01b031661075c565b60005b6001600160e01b03169392505050565b6000338161077a8286610a9a565b9050838110156107da5760405162461bcd60e51b815260206004820152602560248201527f45524332303a2064656372656173656420616c6c6f77616e63652062656c6f77604482015264207a65726f60d81b60648201526084016105ab565b6107e78286868403610b52565b506001949350505050565b60003361047b818585610d66565b834211156108505760405162461bcd60e51b815260206004820152601d60248201527f4552433230566f7465733a207369676e6174757265206578706972656400000060448201526064016105ab565b604080517fe48329057bfd03d55e49b547132e39cffd9c1820ad7b9d4c5307691425d15adf60208201526001600160a01b0388169181019190915260608101869052608081018590526000906108ca906108c29060a00160405160208183030381529060405280519060200120611315565b858585611363565b90506108d58161138b565b86146109235760405162461bcd60e51b815260206004820152601960248201527f4552433230566f7465733a20696e76616c6964206e6f6e63650000000000000060448201526064016105ab565b61092d8188611216565b50505050505050565b834211156109865760405162461bcd60e51b815260206004820152601d60248201527f45524332305065726d69743a206578706972656420646561646c696e6500000060448201526064016105ab565b60007f00000000000000000000000000000000000000000000000000000000000000008888886109b58c61138b565b6040805160208101969096526001600160a01b0394851690860152929091166060840152608083015260a082015260c0810186905260e0016040516020818303038152906040528051906020012090506000610a1082611315565b90506000610a2082878787611363565b9050896001600160a01b0316816001600160a01b031614610a835760405162461bcd60e51b815260206004820152601e60248201527f45524332305065726d69743a20696e76616c6964207369676e6174757265000060448201526064016105ab565b610a8e8a8a8a610b52565b50505050505050505050565b6001600160a01b03918216600090815260016020908152604080832093909416825291909152205490565b60408051808201909152600080825260208201526001600160a01b0383166000908152600760205260409020805463ffffffff8416908110610b1757634e487b7160e01b600052603260045260246000fd5b60009182526020918290206040805180820190915260029092020180548252600101546001600160e01b031691810191909152905092915050565b6001600160a01b038316610bb45760405162461bcd60e51b8152602060048201526024808201527f45524332303a20617070726f76652066726f6d20746865207a65726f206164646044820152637265737360e01b60648201526084016105ab565b6001600160a01b038216610c155760405162461bcd60e51b815260206004820152602260248201527f45524332303a20617070726f766520746f20746865207a65726f206164647265604482015261737360f01b60648201526084016105ab565b6001600160a01b0383811660008181526001602090815260408083209487168084529482529182902085905590518481527f8c5be1e5ebec7d5bd14f71427d1e84f3dd0314c0f7b2291e5b200ac8c7c3b925910160405180910390a3505050565b610c8082826113b3565b5050565b6040516001600160a01b038316602482015260448101829052610ce790849063a9059cbb60e01b906064015b60408051601f198184030181529190526020810180516001600160e01b03166001600160e01b0319909316929092179091526113cb565b505050565b6000610cf88484610a9a565b90506000198114610d605781811015610d535760405162461bcd60e51b815260206004820152601d60248201527f45524332303a20696e73756666696369656e7420616c6c6f77616e636500000060448201526064016105ab565b610d608484848403610b52565b50505050565b6001600160a01b038316610dca5760405162461bcd60e51b815260206004820152602560248201527f45524332303a207472616e736665722066726f6d20746865207a65726f206164604482015264647265737360d81b60648201526084016105ab565b6001600160a01b038216610e2c5760405162461bcd60e51b815260206004820152602360248201527f45524332303a207472616e7366657220746f20746865207a65726f206164647260448201526265737360e81b60648201526084016105ab565b6001600160a01b03831660009081526020819052604090205481811015610ea45760405162461bcd60e51b815260206004820152602660248201527f45524332303a207472616e7366657220616d6f756e7420657863656564732062604482015265616c616e636560d01b60648201526084016105ab565b6001600160a01b03808516600090815260208190526040808220858503905591851681529081208054849290610edb9084906121e1565b92505081905550826001600160a01b0316846001600160a01b03167fddf252ad1be2c89b69c2b068fc378daa952ba7f163c4a11628f55a4df523b3ef84604051610f2791815260200190565b60405180910390a3610d6084848461149d565b6040516001600160a01b0380851660248301528316604482015260648101829052610d609085906323b872dd60e01b90608401610cb0565b610c8082826114a8565b60007f00000000000000000000000000000000000000000000000000000000000000006001600160a01b031663313ce5676040518163ffffffff1660e01b815260040160206040518083038186803b158015610fd757600080fd5b505afa925050508015611007575060408051601f3d908101601f1916820190925261100491810190612176565b60015b6110115750601290565b919050565b6000306001600160a01b037f00000000000000000000000000000000000000000000000000000000000000001614801561106f57507f000000000000000000000000000000000000000000000000000000000000000046145b1561109957507f000000000000000000000000000000000000000000000000000000000000000090565b50604080517f00000000000000000000000000000000000000000000000000000000000000006020808301919091527f0000000000000000000000000000000000000000000000000000000000000000828401527f000000000000000000000000000000000000000000000000000000000000000060608301524660808301523060a0808401919091528351808403909101815260c0909201909252805191012090565b8154600090815b818110156111af5760006111588284611532565b90508486828154811061117b57634e487b7160e01b600052603260045260246000fd5b906000526020600020906002020160000154111561119b578092506111a9565b6111a68160016121e1565b91505b50611144565b811561120157846111c1600184612219565b815481106111df57634e487b7160e01b600052603260045260246000fd5b60009182526020909120600160029092020101546001600160e01b0316611204565b60005b6001600160e01b031695945050505050565b6000611221836105d6565b90506000611244846001600160a01b031660009081526020819052604090205490565b6001600160a01b0385811660008181526006602052604080822080546001600160a01b031916898616908117909155905194955093928616927f3134e8a2e6d97e929a7e54011ea5485d7d196dd5f0ba4d4ef95803e8e3fc257f9190a4610d6082848361154d565b600063ffffffff8211156113115760405162461bcd60e51b815260206004820152602660248201527f53616665436173743a2076616c756520646f65736e27742066697420696e203360448201526532206269747360d01b60648201526084016105ab565b5090565b6000610619611322611016565b8360405161190160f01b6020820152602281018390526042810182905260009060620160405160208183030381529060405280519060200120905092915050565b60008060006113748787878761168a565b9150915061138181611777565b5095945050505050565b6001600160a01b03811660009081526005602052604090208054600181018255905b50919050565b6113bd8282611978565b610d606008611acd83611ad9565b6000611420826040518060400160405280602081526020017f5361666545524332303a206c6f772d6c6576656c2063616c6c206661696c6564815250856001600160a01b0316611c7c9092919063ffffffff16565b805190915015610ce7578080602001905181019061143e919061213e565b610ce75760405162461bcd60e51b815260206004820152602a60248201527f5361666545524332303a204552433230206f7065726174696f6e20646964206e6044820152691bdd081cdd58d8d9595960b21b60648201526084016105ab565b610ce7838383611c93565b6114b28282611cae565b6002546001600160e01b0310156115245760405162461bcd60e51b815260206004820152603060248201527f4552433230566f7465733a20746f74616c20737570706c79207269736b73206f60448201526f766572666c6f77696e6720766f74657360801b60648201526084016105ab565b610d606008611d9583611ad9565b600061154160028484186121f9565b6104e4908484166121e1565b816001600160a01b0316836001600160a01b03161415801561156f5750600081115b15610ce7576001600160a01b038316156115fd576001600160a01b038316600090815260076020526040812081906115aa90611acd85611ad9565b91509150846001600160a01b03167fdec2bacdd2f05b59de34da9b523dff8be42e5e38e818c82fdb0bae774387a72483836040516115f2929190918252602082015260400190565b60405180910390a250505b6001600160a01b03821615610ce7576001600160a01b0382166000908152600760205260408120819061163390611d9585611ad9565b91509150836001600160a01b03167fdec2bacdd2f05b59de34da9b523dff8be42e5e38e818c82fdb0bae774387a724838360405161167b929190918252602082015260400190565b60405180910390a25050505050565b6000807f7fffffffffffffffffffffffffffffff5d576e7357a4501ddfe92f46681b20a08311156116c1575060009050600361176e565b8460ff16601b141580156116d957508460ff16601c14155b156116ea575060009050600461176e565b6040805160008082526020820180845289905260ff881692820192909252606081018690526080810185905260019060a0016020604051602081039080840390855afa15801561173e573d6000803e3d6000fd5b5050604051601f1901519150506001600160a01b0381166117675760006001925092505061176e565b9150600090505b94509492505050565b600081600481111561179957634e487b7160e01b600052602160045260246000fd5b14156117a25750565b60018160048111156117c457634e487b7160e01b600052602160045260246000fd5b14156118125760405162461bcd60e51b815260206004820152601860248201527f45434453413a20696e76616c6964207369676e6174757265000000000000000060448201526064016105ab565b600281600481111561183457634e487b7160e01b600052602160045260246000fd5b14156118825760405162461bcd60e51b815260206004820152601f60248201527f45434453413a20696e76616c6964207369676e6174757265206c656e6774680060448201526064016105ab565b60038160048111156118a457634e487b7160e01b600052602160045260246000fd5b14156118fd5760405162461bcd60e51b815260206004820152602260248201527f45434453413a20696e76616c6964207369676e6174757265202773272076616c604482015261756560f01b60648201526084016105ab565b600481600481111561191f57634e487b7160e01b600052602160045260246000fd5b14156106295760405162461bcd60e51b815260206004820152602260248201527f45434453413a20696e76616c6964207369676e6174757265202776272076616c604482015261756560f01b60648201526084016105ab565b6001600160a01b0382166119d85760405162461bcd60e51b815260206004820152602160248201527f45524332303a206275726e2066726f6d20746865207a65726f206164647265736044820152607360f81b60648201526084016105ab565b6001600160a01b03821660009081526020819052604090205481811015611a4c5760405162461bcd60e51b815260206004820152602260248201527f45524332303a206275726e20616d6f756e7420657863656564732062616c616e604482015261636560f01b60648201526084016105ab565b6001600160a01b0383166000908152602081905260408120838303905560028054849290611a7b908490612219565b90915550506040518281526000906001600160a01b038516907fddf252ad1be2c89b69c2b068fc378daa952ba7f163c4a11628f55a4df523b3ef9060200160405180910390a3610ce78360008461149d565b60006104e48284612219565b825460009081908015611b325785611af2600183612219565b81548110611b1057634e487b7160e01b600052603260045260246000fd5b60009182526020909120600160029092020101546001600160e01b0316611b35565b60005b6001600160e01b03169250611b4e83858763ffffffff16565b9150600081118015611b9a57504286611b68600184612219565b81548110611b8657634e487b7160e01b600052603260045260246000fd5b906000526020600020906002020160000154145b15611c0c57611ba882611da1565b86611bb4600184612219565b81548110611bd257634e487b7160e01b600052603260045260246000fd5b906000526020600020906002020160010160006101000a8154816001600160e01b0302191690836001600160e01b03160217905550611c73565b856040518060400160405280428152602001611c2785611da1565b6001600160e01b03908116909152825460018181018555600094855260209485902084516002909302019182559390920151919092018054919092166001600160e01b03199091161790555b50935093915050565b6060611c8b8484600085611e0a565b949350505050565b610ce7611c9f846105d6565b611ca8846105d6565b8361154d565b6001600160a01b038216611d045760405162461bcd60e51b815260206004820152601f60248201527f45524332303a206d696e7420746f20746865207a65726f20616464726573730060448201526064016105ab565b8060026000828254611d1691906121e1565b90915550506001600160a01b03821660009081526020819052604081208054839290611d439084906121e1565b90915550506040518181526001600160a01b038316906000907fddf252ad1be2c89b69c2b068fc378daa952ba7f163c4a11628f55a4df523b3ef9060200160405180910390a3610c806000838361149d565b60006104e482846121e1565b60006001600160e01b038211156113115760405162461bcd60e51b815260206004820152602760248201527f53616665436173743a2076616c756520646f65736e27742066697420696e20326044820152663234206269747360c81b60648201526084016105ab565b606082471015611e6b5760405162461bcd60e51b815260206004820152602660248201527f416464726573733a20696e73756666696369656e742062616c616e636520666f6044820152651c8818d85b1b60d21b60648201526084016105ab565b6001600160a01b0385163b611ec25760405162461bcd60e51b815260206004820152601d60248201527f416464726573733a2063616c6c20746f206e6f6e2d636f6e747261637400000060448201526064016105ab565b600080866001600160a01b03168587604051611ede9190612192565b60006040518083038185875af1925050503d8060008114611f1b576040519150601f19603f3d011682016040523d82523d6000602084013e611f20565b606091505b5091509150611f30828286611f3b565b979650505050505050565b60608315611f4a5750816104e4565b825115611f5a5782518084602001fd5b8160405162461bcd60e51b81526004016105ab91906121ae565b80356001600160a01b038116811461101157600080fd5b600060208284031215611f9c578081fd5b6104e482611f74565b60008060408385031215611fb7578081fd5b611fc083611f74565b9150611fce60208401611f74565b90509250929050565b600080600060608486031215611feb578081fd5b611ff484611f74565b925061200260208501611f74565b9150604084013590509250925092565b600080600080600080600060e0888a03121561202c578283fd5b61203588611f74565b965061204360208901611f74565b955060408801359450606088013593506080880135612061816122a7565b9699959850939692959460a0840135945060c09093013592915050565b60008060408385031215612090578182fd5b61209983611f74565b946020939093013593505050565b60008060008060008060c087890312156120bf578182fd5b6120c887611f74565b9550602087013594506040870135935060608701356120e6816122a7565b9598949750929560808101359460a0909101359350915050565b60008060408385031215612112578182fd5b61211b83611f74565b9150602083013563ffffffff81168114612133578182fd5b809150509250929050565b60006020828403121561214f578081fd5b815180151581146104e4578182fd5b60006020828403121561216f578081fd5b5035919050565b600060208284031215612187578081fd5b81516104e4816122a7565b600082516121a4818460208701612230565b9190910192915050565b60208152600082518060208401526121cd816040850160208701612230565b601f01601f19169190910160400192915050565b600082198211156121f4576121f4612291565b500190565b60008261221457634e487b7160e01b81526012600452602481fd5b500490565b60008282101561222b5761222b612291565b500390565b60005b8381101561224b578181015183820152602001612233565b83811115610d605750506000910152565b600181811c9082168061227057607f821691505b602082108114156113ad57634e487b7160e01b600052602260045260246000fd5b634e487b7160e01b600052601160045260246000fd5b60ff8116811461062957600080fdfea26469706673582212206a0df6080bf309cb0a60c5ddaa30146891737d75685f6d7feab956f5dd34ffbe64736f6c63430008040033",
  "linkReferences": {},
  "deployedLinkReferences": {}
}