{"abi":[{"type":"constructor","inputs":[{"name":"_name","type":"string","internalType":"string"},{"name":"_prompt","type":"string","internalType":"string"},{"name":"_submissionMerkleRoot","type":"bytes32","internalType":"bytes32"},{"name":"_votingMerkleRoot","type":"bytes32","internalType":"bytes32"},{"name":"_constructorArgs","type":"tuple","internalType":"struct Governor.ConstructorArgs","components":[{"name":"intConstructorArgs","type":"tuple","internalType":"struct Governor.IntConstructorArgs","components":[{"name":"contestStart","type":"uint256","internalType":"uint256"},{"name":"votingDelay","type":"uint256","internalType":"uint256"},{"name":"votingPeriod","type":"uint256","internalType":"uint256"},{"name":"numAllowedProposalSubmissions","type":"uint256","internalType":"uint256"},{"name":"maxProposalCount","type":"uint256","internalType":"uint256"},{"name":"sortingEnabled","type":"uint256","internalType":"uint256"},{"name":"rankLimit","type":"uint256","internalType":"uint256"},{"name":"percentageToCreator","type":"uint256","internalType":"uint256"},{"name":"costToPropose","type":"uint256","internalType":"uint256"},{"name":"costToVote","type":"uint256","internalType":"uint256"},{"name":"payPerVote","type":"uint256","internalType":"uint256"},{"name":"priceCurveType","type":"uint256","internalType":"uint256"},{"name":"multiple","type":"uint256","internalType":"uint256"}]},{"name":"creatorSplitDestination","type":"address","internalType":"address"},{"name":"jkLabsSplitDestination","type":"address","internalType":"address"},{"name":"metadataFieldsSchema","type":"string","internalType":"string"}]}],"stateMutability":"nonpayable"},{"type":"function","name":"AMOUNT_FOR_SUMBITTER_PROOF","inputs":[],"outputs":[{"name":"","type":"uint256","internalType":"uint256"}],"stateMutability":"view"},{"type":"function","name":"COST_ROUNDING_VALUE","inputs":[],"outputs":[{"name":"","type":"uint256","internalType":"uint256"}],"stateMutability":"view"},{"type":"function","name":"JK_LABS_ADDRESS","inputs":[],"outputs":[{"name":"","type":"address","internalType":"address"}],"stateMutability":"view"},{"type":"function","name":"MAX_FIELDS_METADATA_LENGTH","inputs":[],"outputs":[{"name":"","type":"uint256","internalType":"uint256"}],"stateMutability":"view"},{"type":"function","name":"METADATAS_COUNT","inputs":[],"outputs":[{"name":"","type":"uint256","internalType":"uint256"}],"stateMutability":"view"},{"type":"function","name":"PRICE_CURVE_UPDATE_INTERVAL","inputs":[],"outputs":[{"name":"","type":"uint256","internalType":"uint256"}],"stateMutability":"view"},{"type":"function","name":"SECONDS_IN_WEEK","inputs":[],"outputs":[{"name":"","type":"uint256","internalType":"uint256"}],"stateMutability":"view"},{"type":"function","name":"addressSubmitterVerified","inputs":[{"name":"","type":"address","internalType":"address"}],"outputs":[{"name":"","type":"bool","internalType":"bool"}],"stateMutability":"view"},{"type":"function","name":"addressTotalCastVoteCount","inputs":[{"name":"","type":"address","internalType":"address"}],"outputs":[{"name":"","type":"uint256","internalType":"uint256"}],"stateMutability":"view"},{"type":"function","name":"addressTotalVotes","inputs":[{"name":"","type":"address","internalType":"address"}],"outputs":[{"name":"","type":"uint256","internalType":"uint256"}],"stateMutability":"view"},{"type":"function","name":"addressTotalVotesVerified","inputs":[{"name":"","type":"address","internalType":"address"}],"outputs":[{"name":"","type":"bool","internalType":"bool"}],"stateMutability":"view"},{"type":"function","name":"addressesThatHaveVoted","inputs":[{"name":"","type":"uint256","internalType":"uint256"}],"outputs":[{"name":"","type":"address","internalType":"address"}],"stateMutability":"view"},{"type":"function","name":"allProposalTotalVotes","inputs":[],"outputs":[{"name":"proposalIdsReturn","type":"uint256[]","internalType":"uint256[]"},{"name":"proposalVoteCountsArrayReturn","type":"uint256[]","internalType":"uint256[]"}],"stateMutability":"view"},{"type":"function","name":"cancel","inputs":[],"outputs":[],"stateMutability":"nonpayable"},{"type":"function","name":"canceled","inputs":[],"outputs":[{"name":"","type":"bool","internalType":"bool"}],"stateMutability":"view"},{"type":"function","name":"castVote","inputs":[{"name":"proposalId","type":"uint256","internalType":"uint256"},{"name":"totalVotes","type":"uint256","internalType":"uint256"},{"name":"numVotes","type":"uint256","internalType":"uint256"},{"name":"proof","type":"bytes32[]","internalType":"bytes32[]"}],"outputs":[{"name":"","type":"uint256","internalType":"uint256"}],"stateMutability":"payable"},{"type":"function","name":"castVoteWithoutProof","inputs":[{"name":"proposalId","type":"uint256","internalType":"uint256"},{"name":"numVotes","type":"uint256","internalType":"uint256"}],"outputs":[{"name":"","type":"uint256","internalType":"uint256"}],"stateMutability":"payable"},{"type":"function","name":"checkProof","inputs":[{"name":"addressToCheck","type":"address","internalType":"address"},{"name":"amount","type":"uint256","internalType":"uint256"},{"name":"proof","type":"bytes32[]","internalType":"bytes32[]"},{"name":"voting","type":"bool","internalType":"bool"}],"outputs":[{"name":"verified","type":"bool","internalType":"bool"}],"stateMutability":"view"},{"type":"function","name":"comment","inputs":[{"name":"proposalId","type":"uint256","internalType":"uint256"},{"name":"commentContent","type":"string","internalType":"string"}],"outputs":[{"name":"","type":"uint256","internalType":"uint256"}],"stateMutability":"nonpayable"},{"type":"function","name":"commentIds","inputs":[{"name":"","type":"uint256","internalType":"uint256"}],"outputs":[{"name":"","type":"uint256","internalType":"uint256"}],"stateMutability":"view"},{"type":"function","name":"commentIsDeleted","inputs":[{"name":"","type":"uint256","internalType":"uint256"}],"outputs":[{"name":"","type":"bool","internalType":"bool"}],"stateMutability":"view"},{"type":"function","name":"comments","inputs":[{"name":"","type":"uint256","internalType":"uint256"}],"outputs":[{"name":"author","type":"address","internalType":"address"},{"name":"timestamp","type":"uint256","internalType":"uint256"},{"name":"proposalId","type":"uint256","internalType":"uint256"},{"name":"commentContent","type":"string","internalType":"string"}],"stateMutability":"view"},{"type":"function","name":"contestAddressTotalVotesCast","inputs":[{"name":"userAddress","type":"address","internalType":"address"}],"outputs":[{"name":"userTotalVotesCast","type":"uint256","internalType":"uint256"}],"stateMutability":"view"},{"type":"function","name":"contestDeadline","inputs":[],"outputs":[{"name":"","type":"uint256","internalType":"uint256"}],"stateMutability":"view"},{"type":"function","name":"contestStart","inputs":[],"outputs":[{"name":"","type":"uint256","internalType":"uint256"}],"stateMutability":"view"},{"type":"function","name":"costToPropose","inputs":[],"outputs":[{"name":"","type":"uint256","internalType":"uint256"}],"stateMutability":"view"},{"type":"function","name":"costToVote","inputs":[],"outputs":[{"name":"","type":"uint256","internalType":"uint256"}],"stateMutability":"view"},{"type":"function","name":"creator","inputs":[],"outputs":[{"name":"","type":"address","internalType":"address"}],"stateMutability":"view"},{"type":"function","name":"creatorSplitDestination","inputs":[],"outputs":[{"name":"","type":"address","internalType":"address"}],"stateMutability":"view"},{"type":"function","name":"currentPricePerVote","inputs":[],"outputs":[{"name":"","type":"uint256","internalType":"uint256"}],"stateMutability":"view"},{"type":"function","name":"deleteComments","inputs":[{"name":"commentIdsParam","type":"uint256[]","internalType":"uint256[]"}],"outputs":[],"stateMutability":"nonpayable"},{"type":"function","name":"deleteProposals","inputs":[{"name":"proposalIdsToDelete","type":"uint256[]","internalType":"uint256[]"}],"outputs":[],"stateMutability":"nonpayable"},{"type":"function","name":"deletedCommentIds","inputs":[{"name":"","type":"uint256","internalType":"uint256"}],"outputs":[{"name":"","type":"uint256","internalType":"uint256"}],"stateMutability":"view"},{"type":"function","name":"deletedProposalIds","inputs":[{"name":"","type":"uint256","internalType":"uint256"}],"outputs":[{"name":"","type":"uint256","internalType":"uint256"}],"stateMutability":"view"},{"type":"function","name":"getAllAddressesThatHaveVoted","inputs":[],"outputs":[{"name":"","type":"address[]","internalType":"address[]"}],"stateMutability":"view"},{"type":"function","name":"getAllAuthorsOfDeletedProposals","inputs":[],"outputs":[{"name":"","type":"address[]","internalType":"address[]"}],"stateMutability":"view"},{"type":"function","name":"getAllCommentIds","inputs":[],"outputs":[{"name":"","type":"uint256[]","internalType":"uint256[]"}],"stateMutability":"view"},{"type":"function","name":"getAllDeletedCommentIds","inputs":[],"outputs":[{"name":"","type":"uint256[]","internalType":"uint256[]"}],"stateMutability":"view"},{"type":"function","name":"getAllDeletedProposalIds","inputs":[],"outputs":[{"name":"","type":"uint256[]","internalType":"uint256[]"}],"stateMutability":"view"},{"type":"function","name":"getAllProposalAuthors","inputs":[],"outputs":[{"name":"","type":"address[]","internalType":"address[]"}],"stateMutability":"view"},{"type":"function","name":"getAllProposalIds","inputs":[],"outputs":[{"name":"","type":"uint256[]","internalType":"uint256[]"}],"stateMutability":"view"},{"type":"function","name":"getComment","inputs":[{"name":"commentId","type":"uint256","internalType":"uint256"}],"outputs":[{"name":"","type":"tuple","internalType":"struct GovernorEngagement.CommentCore","components":[{"name":"author","type":"address","internalType":"address"},{"name":"timestamp","type":"uint256","internalType":"uint256"},{"name":"proposalId","type":"uint256","internalType":"uint256"},{"name":"commentContent","type":"string","internalType":"string"}]}],"stateMutability":"view"},{"type":"function","name":"getNumProposalsWithThisManyVotes","inputs":[{"name":"votes","type":"uint256","internalType":"uint256"}],"outputs":[{"name":"count","type":"uint256","internalType":"uint256"}],"stateMutability":"view"},{"type":"function","name":"getOnlyProposalIdWithThisManyVotes","inputs":[{"name":"votes","type":"uint256","internalType":"uint256"}],"outputs":[{"name":"proposalId","type":"uint256","internalType":"uint256"}],"stateMutability":"view"},{"type":"function","name":"getProposal","inputs":[{"name":"proposalId","type":"uint256","internalType":"uint256"}],"outputs":[{"name":"","type":"tuple","internalType":"struct Governor.ProposalCore","components":[{"name":"author","type":"address","internalType":"address"},{"name":"exists","type":"bool","internalType":"bool"},{"name":"description","type":"string","internalType":"string"},{"name":"targetMetadata","type":"tuple","internalType":"struct Governor.TargetMetadata","components":[{"name":"targetAddress","type":"address","internalType":"address"}]},{"name":"safeMetadata","type":"tuple","internalType":"struct Governor.SafeMetadata","components":[{"name":"signers","type":"address[]","internalType":"address[]"},{"name":"threshold","type":"uint256","internalType":"uint256"}]},{"name":"fieldsMetadata","type":"tuple","internalType":"struct Governor.FieldsMetadata","components":[{"name":"addressArray","type":"address[]","internalType":"address[]"},{"name":"stringArray","type":"string[]","internalType":"string[]"},{"name":"uintArray","type":"uint256[]","internalType":"uint256[]"}]}]}],"stateMutability":"view"},{"type":"function","name":"getProposalComments","inputs":[{"name":"proposalId","type":"uint256","internalType":"uint256"}],"outputs":[{"name":"","type":"uint256[]","internalType":"uint256[]"}],"stateMutability":"view"},{"type":"function","name":"getProposalsWithThisManyVotes","inputs":[{"name":"votes","type":"uint256","internalType":"uint256"}],"outputs":[{"name":"proposalsWithThisManyVotes","type":"uint256[]","internalType":"uint256[]"}],"stateMutability":"view"},{"type":"function","name":"getRankIndex","inputs":[{"name":"rank","type":"uint256","internalType":"uint256"}],"outputs":[{"name":"rankIndex","type":"uint256","internalType":"uint256"}],"stateMutability":"view"},{"type":"function","name":"getSortedRanks","inputs":[],"outputs":[{"name":"sortedRanksArray","type":"uint256[]","internalType":"uint256[]"}],"stateMutability":"view"},{"type":"function","name":"hashComment","inputs":[{"name":"commentObj","type":"tuple","internalType":"struct GovernorEngagement.CommentCore","components":[{"name":"author","type":"address","internalType":"address"},{"name":"timestamp","type":"uint256","internalType":"uint256"},{"name":"proposalId","type":"uint256","internalType":"uint256"},{"name":"commentContent","type":"string","internalType":"string"}]}],"outputs":[{"name":"","type":"uint256","internalType":"uint256"}],"stateMutability":"pure"},{"type":"function","name":"hashProposal","inputs":[{"name":"proposal","type":"tuple","internalType":"struct Governor.ProposalCore","components":[{"name":"author","type":"address","internalType":"address"},{"name":"exists","type":"bool","internalType":"bool"},{"name":"description","type":"string","internalType":"string"},{"name":"targetMetadata","type":"tuple","internalType":"struct Governor.TargetMetadata","components":[{"name":"targetAddress","type":"address","internalType":"address"}]},{"name":"safeMetadata","type":"tuple","internalType":"struct Governor.SafeMetadata","components":[{"name":"signers","type":"address[]","internalType":"address[]"},{"name":"threshold","type":"uint256","internalType":"uint256"}]},{"name":"fieldsMetadata","type":"tuple","internalType":"struct Governor.FieldsMetadata","components":[{"name":"addressArray","type":"address[]","internalType":"address[]"},{"name":"stringArray","type":"string[]","internalType":"string[]"},{"name":"uintArray","type":"uint256[]","internalType":"uint256[]"}]}]}],"outputs":[{"name":"","type":"uint256","internalType":"uint256"}],"stateMutability":"pure"},{"type":"function","name":"isOrIsBelowTiedRank","inputs":[{"name":"idx","type":"uint256","internalType":"uint256"}],"outputs":[{"name":"atOrBelowTiedRank","type":"bool","internalType":"bool"}],"stateMutability":"view"},{"type":"function","name":"jkLabsSplitDestination","inputs":[],"outputs":[{"name":"","type":"address","internalType":"address"}],"stateMutability":"view"},{"type":"function","name":"maxProposalCount","inputs":[],"outputs":[{"name":"","type":"uint256","internalType":"uint256"}],"stateMutability":"view"},{"type":"function","name":"metadataFieldsSchema","inputs":[],"outputs":[{"name":"","type":"string","internalType":"string"}],"stateMutability":"view"},{"type":"function","name":"multiple","inputs":[],"outputs":[{"name":"","type":"uint256","internalType":"uint256"}],"stateMutability":"view"},{"type":"function","name":"name","inputs":[],"outputs":[{"name":"","type":"string","internalType":"string"}],"stateMutability":"view"},{"type":"function","name":"numAllowedProposalSubmissions","inputs":[],"outputs":[{"name":"","type":"uint256","internalType":"uint256"}],"stateMutability":"view"},{"type":"function","name":"numSubmissions","inputs":[{"name":"","type":"address","internalType":"address"}],"outputs":[{"name":"","type":"uint256","internalType":"uint256"}],"stateMutability":"view"},{"type":"function","name":"officialRewardsModule","inputs":[],"outputs":[{"name":"","type":"address","internalType":"address"}],"stateMutability":"view"},{"type":"function","name":"payPerVote","inputs":[],"outputs":[{"name":"","type":"uint256","internalType":"uint256"}],"stateMutability":"view"},{"type":"function","name":"percentageToCreator","inputs":[],"outputs":[{"name":"","type":"uint256","internalType":"uint256"}],"stateMutability":"view"},{"type":"function","name":"priceCurveType","inputs":[],"outputs":[{"name":"","type":"uint256","internalType":"uint256"}],"stateMutability":"view"},{"type":"function","name":"prompt","inputs":[],"outputs":[{"name":"","type":"string","internalType":"string"}],"stateMutability":"view"},{"type":"function","name":"proposalAddressVotes","inputs":[{"name":"proposalId","type":"uint256","internalType":"uint256"},{"name":"userAddress","type":"address","internalType":"address"}],"outputs":[{"name":"voteCount","type":"uint256","internalType":"uint256"}],"stateMutability":"view"},{"type":"function","name":"proposalAddressesHaveVoted","inputs":[{"name":"proposalId","type":"uint256","internalType":"uint256"}],"outputs":[{"name":"","type":"address[]","internalType":"address[]"}],"stateMutability":"view"},{"type":"function","name":"proposalAuthors","inputs":[{"name":"","type":"uint256","internalType":"uint256"}],"outputs":[{"name":"","type":"address","internalType":"address"}],"stateMutability":"view"},{"type":"function","name":"proposalComments","inputs":[{"name":"","type":"uint256","internalType":"uint256"},{"name":"","type":"uint256","internalType":"uint256"}],"outputs":[{"name":"","type":"uint256","internalType":"uint256"}],"stateMutability":"view"},{"type":"function","name":"proposalIds","inputs":[{"name":"","type":"uint256","internalType":"uint256"}],"outputs":[{"name":"","type":"uint256","internalType":"uint256"}],"stateMutability":"view"},{"type":"function","name":"proposalIsDeleted","inputs":[{"name":"","type":"uint256","internalType":"uint256"}],"outputs":[{"name":"","type":"bool","internalType":"bool"}],"stateMutability":"view"},{"type":"function","name":"proposalVoteStructs","inputs":[{"name":"","type":"uint256","internalType":"uint256"}],"outputs":[{"name":"proposalVoteCount","type":"uint256","internalType":"uint256"}],"stateMutability":"view"},{"type":"function","name":"proposalVotes","inputs":[{"name":"proposalId","type":"uint256","internalType":"uint256"}],"outputs":[{"name":"voteCount","type":"uint256","internalType":"uint256"}],"stateMutability":"view"},{"type":"function","name":"proposals","inputs":[{"name":"","type":"uint256","internalType":"uint256"}],"outputs":[{"name":"author","type":"address","internalType":"address"},{"name":"exists","type":"bool","internalType":"bool"},{"name":"description","type":"string","internalType":"string"},{"name":"targetMetadata","type":"tuple","internalType":"struct Governor.TargetMetadata","components":[{"name":"targetAddress","type":"address","internalType":"address"}]},{"name":"safeMetadata","type":"tuple","internalType":"struct Governor.SafeMetadata","components":[{"name":"signers","type":"address[]","internalType":"address[]"},{"name":"threshold","type":"uint256","internalType":"uint256"}]},{"name":"fieldsMetadata","type":"tuple","internalType":"struct Governor.FieldsMetadata","components":[{"name":"addressArray","type":"address[]","internalType":"address[]"},{"name":"stringArray","type":"string[]","internalType":"string[]"},{"name":"uintArray","type":"uint256[]","internalType":"uint256[]"}]}],"stateMutability":"view"},{"type":"function","name":"propose","inputs":[{"name":"proposal","type":"tuple","internalType":"struct Governor.ProposalCore","components":[{"name":"author","type":"address","internalType":"address"},{"name":"exists","type":"bool","internalType":"bool"},{"name":"description","type":"string","internalType":"string"},{"name":"targetMetadata","type":"tuple","internalType":"struct Governor.TargetMetadata","components":[{"name":"targetAddress","type":"address","internalType":"address"}]},{"name":"safeMetadata","type":"tuple","internalType":"struct Governor.SafeMetadata","components":[{"name":"signers","type":"address[]","internalType":"address[]"},{"name":"threshold","type":"uint256","internalType":"uint256"}]},{"name":"fieldsMetadata","type":"tuple","internalType":"struct Governor.FieldsMetadata","components":[{"name":"addressArray","type":"address[]","internalType":"address[]"},{"name":"stringArray","type":"string[]","internalType":"string[]"},{"name":"uintArray","type":"uint256[]","internalType":"uint256[]"}]}]},{"name":"proof","type":"bytes32[]","internalType":"bytes32[]"}],"outputs":[{"name":"","type":"uint256","internalType":"uint256"}],"stateMutability":"payable"},{"type":"function","name":"proposeWithoutProof","inputs":[{"name":"proposal","type":"tuple","internalType":"struct Governor.ProposalCore","components":[{"name":"author","type":"address","internalType":"address"},{"name":"exists","type":"bool","internalType":"bool"},{"name":"description","type":"string","internalType":"string"},{"name":"targetMetadata","type":"tuple","internalType":"struct Governor.TargetMetadata","components":[{"name":"targetAddress","type":"address","internalType":"address"}]},{"name":"safeMetadata","type":"tuple","internalType":"struct Governor.SafeMetadata","components":[{"name":"signers","type":"address[]","internalType":"address[]"},{"name":"threshold","type":"uint256","internalType":"uint256"}]},{"name":"fieldsMetadata","type":"tuple","internalType":"struct Governor.FieldsMetadata","components":[{"name":"addressArray","type":"address[]","internalType":"address[]"},{"name":"stringArray","type":"string[]","internalType":"string[]"},{"name":"uintArray","type":"uint256[]","internalType":"uint256[]"}]}]}],"outputs":[{"name":"","type":"uint256","internalType":"uint256"}],"stateMutability":"payable"},{"type":"function","name":"rankLimit","inputs":[],"outputs":[{"name":"","type":"uint256","internalType":"uint256"}],"stateMutability":"view"},{"type":"function","name":"setCreatorSplitDestination","inputs":[{"name":"newCreatorSplitDestination","type":"address","internalType":"address"}],"outputs":[],"stateMutability":"nonpayable"},{"type":"function","name":"setJkLabsSplitDestination","inputs":[{"name":"newJkLabsSplitDestination","type":"address","internalType":"address"}],"outputs":[],"stateMutability":"nonpayable"},{"type":"function","name":"setName","inputs":[{"name":"newName","type":"string","internalType":"string"}],"outputs":[{"name":"","type":"string","internalType":"string"}],"stateMutability":"nonpayable"},{"type":"function","name":"setOfficialRewardsModule","inputs":[{"name":"officialRewardsModule_","type":"address","internalType":"address"}],"outputs":[],"stateMutability":"nonpayable"},{"type":"function","name":"setPrompt","inputs":[{"name":"newPrompt","type":"string","internalType":"string"}],"outputs":[{"name":"","type":"string","internalType":"string"}],"stateMutability":"nonpayable"},{"type":"function","name":"setSubmissionMerkleRoot","inputs":[{"name":"newSubmissionMerkleRoot","type":"bytes32","internalType":"bytes32"}],"outputs":[],"stateMutability":"nonpayable"},{"type":"function","name":"setVotingMerkleRoot","inputs":[{"name":"newVotingMerkleRoot","type":"bytes32","internalType":"bytes32"}],"outputs":[],"stateMutability":"nonpayable"},{"type":"function","name":"sortedRanks","inputs":[{"name":"","type":"uint256","internalType":"uint256"}],"outputs":[{"name":"","type":"uint256","internalType":"uint256"}],"stateMutability":"view"},{"type":"function","name":"sortingEnabled","inputs":[],"outputs":[{"name":"","type":"uint256","internalType":"uint256"}],"stateMutability":"view"},{"type":"function","name":"state","inputs":[],"outputs":[{"name":"","type":"uint8","internalType":"enum Governor.ContestState"}],"stateMutability":"view"},{"type":"function","name":"submissionMerkleRoot","inputs":[],"outputs":[{"name":"","type":"bytes32","internalType":"bytes32"}],"stateMutability":"view"},{"type":"function","name":"totalVotesCast","inputs":[],"outputs":[{"name":"","type":"uint256","internalType":"uint256"}],"stateMutability":"view"},{"type":"function","name":"validateProposalData","inputs":[{"name":"proposal","type":"tuple","internalType":"struct Governor.ProposalCore","components":[{"name":"author","type":"address","internalType":"address"},{"name":"exists","type":"bool","internalType":"bool"},{"name":"description","type":"string","internalType":"string"},{"name":"targetMetadata","type":"tuple","internalType":"struct Governor.TargetMetadata","components":[{"name":"targetAddress","type":"address","internalType":"address"}]},{"name":"safeMetadata","type":"tuple","internalType":"struct Governor.SafeMetadata","components":[{"name":"signers","type":"address[]","internalType":"address[]"},{"name":"threshold","type":"uint256","internalType":"uint256"}]},{"name":"fieldsMetadata","type":"tuple","internalType":"struct Governor.FieldsMetadata","components":[{"name":"addressArray","type":"address[]","internalType":"address[]"},{"name":"stringArray","type":"string[]","internalType":"string[]"},{"name":"uintArray","type":"uint256[]","internalType":"uint256[]"}]}]}],"outputs":[],"stateMutability":"view"},{"type":"function","name":"verifyProposer","inputs":[{"name":"account","type":"address","internalType":"address"},{"name":"proof","type":"bytes32[]","internalType":"bytes32[]"}],"outputs":[],"stateMutability":"nonpayable"},{"type":"function","name":"verifyVoter","inputs":[{"name":"account","type":"address","internalType":"address"},{"name":"totalVotes","type":"uint256","internalType":"uint256"},{"name":"proof","type":"bytes32[]","internalType":"bytes32[]"}],"outputs":[],"stateMutability":"nonpayable"},{"type":"function","name":"version","inputs":[],"outputs":[{"name":"","type":"string","internalType":"string"}],"stateMutability":"pure"},{"type":"function","name":"voteStart","inputs":[],"outputs":[{"name":"","type":"uint256","internalType":"uint256"}],"stateMutability":"view"},{"type":"function","name":"votesToProposalIds","inputs":[{"name":"","type":"uint256","internalType":"uint256"},{"name":"","type":"uint256","internalType":"uint256"}],"outputs":[{"name":"","type":"uint256","internalType":"uint256"}],"stateMutability":"view"},{"type":"function","name":"votingDelay","inputs":[],"outputs":[{"name":"","type":"uint256","internalType":"uint256"}],"stateMutability":"view"},{"type":"function","name":"votingMerkleRoot","inputs":[],"outputs":[{"name":"","type":"bytes32","internalType":"bytes32"}],"stateMutability":"view"},{"type":"function","name":"votingPeriod","inputs":[],"outputs":[{"name":"","type":"uint256","internalType":"uint256"}],"stateMutability":"view"},{"type":"event","name":"CommentCreated","inputs":[{"name":"commentId","type":"uint256","indexed":false,"internalType":"uint256"}],"anonymous":false},{"type":"event","name":"CommentsDeleted","inputs":[{"name":"commentIds","type":"uint256[]","indexed":false,"internalType":"uint256[]"}],"anonymous":false},{"type":"event","name":"ContestCanceled","inputs":[],"anonymous":false},{"type":"event","name":"CreatorPaymentReleased","inputs":[{"name":"to","type":"address","indexed":false,"internalType":"address"},{"name":"amount","type":"uint256","indexed":false,"internalType":"uint256"}],"anonymous":false},{"type":"event","name":"JkLabsPaymentReleased","inputs":[{"name":"to","type":"address","indexed":false,"internalType":"address"},{"name":"amount","type":"uint256","indexed":false,"internalType":"uint256"}],"anonymous":false},{"type":"event","name":"JokeraceCreated","inputs":[{"name":"version","type":"string","indexed":false,"internalType":"string"},{"name":"name","type":"string","indexed":false,"internalType":"string"},{"name":"prompt","type":"string","indexed":false,"internalType":"string"},{"name":"creator","type":"address","indexed":false,"internalType":"address"},{"name":"contestStart","type":"uint256","indexed":false,"internalType":"uint256"},{"name":"votingDelay","type":"uint256","indexed":false,"internalType":"uint256"},{"name":"votingPeriod","type":"uint256","indexed":false,"internalType":"uint256"}],"anonymous":false},{"type":"event","name":"OfficialRewardsModuleSet","inputs":[{"name":"oldOfficialRewardsModule","type":"address","indexed":false,"internalType":"address"},{"name":"newOfficialRewardsModule","type":"address","indexed":false,"internalType":"address"}],"anonymous":false},{"type":"event","name":"ProposalCreated","inputs":[{"name":"proposalId","type":"uint256","indexed":false,"internalType":"uint256"},{"name":"proposer","type":"address","indexed":false,"internalType":"address"},{"name":"proposalDescription","type":"string","indexed":false,"internalType":"string"}],"anonymous":false},{"type":"event","name":"ProposalsDeleted","inputs":[{"name":"proposalIds","type":"uint256[]","indexed":false,"internalType":"uint256[]"}],"anonymous":false},{"type":"event","name":"VoteCast","inputs":[{"name":"voter","type":"address","indexed":true,"internalType":"address"},{"name":"proposalId","type":"uint256","indexed":false,"internalType":"uint256"},{"name":"numVotes","type":"uint256","indexed":false,"internalType":"uint256"}],"anonymous":false},{"type":"error","name":"AddressFieldMetadataArrayTooLong","inputs":[]},{"type":"error","name":"AddressNotPermissionedToSubmit","inputs":[]},{"type":"error","name":"AuthorIsNotSender","inputs":[{"name":"author","type":"address","internalType":"address"},{"name":"sender","type":"address","internalType":"address"}]},{"type":"error","name":"CannotCancelWhenCompletedOrCanceled","inputs":[]},{"type":"error","name":"CannotCommentWhenCompletedOrCanceled","inputs":[]},{"type":"error","name":"CannotDeleteWhenCompletedOrCanceled","inputs":[]},{"type":"error","name":"CannotSetWhenCompletedOrCanceled","inputs":[]},{"type":"error","name":"CannotUpdateWhenCompletedOrCanceled","inputs":[]},{"type":"error","name":"CannotVoteLessThanOneVoteInPayPerVote","inputs":[]},{"type":"error","name":"CannotVoteOnDeletedProposal","inputs":[]},{"type":"error","name":"ContestAlreadyCanceled","inputs":[]},{"type":"error","name":"ContestMustBeActiveToGetCurrentVotePrice","inputs":[{"name":"currentState","type":"uint8","internalType":"enum Governor.ContestState"}]},{"type":"error","name":"ContestMustBeActiveToVote","inputs":[{"name":"currentState","type":"uint8","internalType":"enum Governor.ContestState"}]},{"type":"error","name":"ContestMustBeQueuedToPropose","inputs":[{"name":"currentState","type":"uint8","internalType":"enum Governor.ContestState"}]},{"type":"error","name":"ContestSubmissionLimitReached","inputs":[{"name":"maxProposalCount","type":"uint256","internalType":"uint256"}]},{"type":"error","name":"DuplicateSubmission","inputs":[{"name":"proposalId","type":"uint256","internalType":"uint256"}]},{"type":"error","name":"EmptyProposalDescription","inputs":[]},{"type":"error","name":"IncorrectCostSent","inputs":[{"name":"msgValue","type":"uint256","internalType":"uint256"},{"name":"costToVote","type":"uint256","internalType":"uint256"}]},{"type":"error","name":"IndexHasNotBeenPopulated","inputs":[]},{"type":"error","name":"MoreThanOneProposalWithThisManyVotes","inputs":[]},{"type":"error","name":"NeedAtLeastOneVoteToVote","inputs":[]},{"type":"error","name":"NeedToSubmitWithProofFirst","inputs":[]},{"type":"error","name":"NeedToVoteWithProofFirst","inputs":[]},{"type":"error","name":"NotAPayPerVoteContest","inputs":[]},{"type":"error","name":"NotEnoughVotesLeft","inputs":[]},{"type":"error","name":"NotInMerkle","inputs":[]},{"type":"error","name":"OfficialRewardsModuleMustPointToThisContest","inputs":[]},{"type":"error","name":"OnlyCreatorCanAmend","inputs":[]},{"type":"error","name":"OnlyCreatorCanSetName","inputs":[]},{"type":"error","name":"OnlyCreatorCanSetPrompt","inputs":[]},{"type":"error","name":"OnlyCreatorCanSetRewardsModule","inputs":[]},{"type":"error","name":"OnlyCreatorOrAuthorCanDeleteComments","inputs":[{"name":"failedToDeleteCommentId","type":"uint256","internalType":"uint256"}]},{"type":"error","name":"OnlyCreatorOrEntrantCanDelete","inputs":[]},{"type":"error","name":"OnlyCreatorOrJkLabsCanCancel","inputs":[]},{"type":"error","name":"OnlyJkLabsCanAmend","inputs":[]},{"type":"error","name":"PRBMath_MulDiv18_Overflow","inputs":[{"name":"x","type":"uint256","internalType":"uint256"},{"name":"y","type":"uint256","internalType":"uint256"}]},{"type":"error","name":"PRBMath_MulDiv_Overflow","inputs":[{"name":"x","type":"uint256","internalType":"uint256"},{"name":"y","type":"uint256","internalType":"uint256"},{"name":"denominator","type":"uint256","internalType":"uint256"}]},{"type":"error","name":"PRBMath_UD60x18_Exp2_InputTooBig","inputs":[{"name":"x","type":"uint256","internalType":"UD60x18"}]},{"type":"error","name":"PayPerVoteMustBeEnabledForAnyoneCanVote","inputs":[]},{"type":"error","name":"PeriodsCannotBeMoreThanAWeek","inputs":[]},{"type":"error","name":"RankCannotBeZero","inputs":[]},{"type":"error","name":"RankIsNotInSortedRanks","inputs":[]},{"type":"error","name":"SenderSubmissionLimitReached","inputs":[{"name":"numAllowedProposalSubmissions","type":"uint256","internalType":"uint256"}]},{"type":"error","name":"StringFieldMetadataArrayTooLong","inputs":[]},{"type":"error","name":"UintFieldMetadataArrayTooLong","inputs":[]},{"type":"error","name":"UnexpectedMetadata","inputs":[{"name":"unexpectedMetadata","type":"uint8","internalType":"enum Governor.Metadatas"}]},{"type":"error","name":"ZeroSignersInSafeMetadata","inputs":[]},{"type":"error","name":"ZeroThresholdInSafeMetadata","inputs":[]}],"bytecode":{"object":"0x60806040523480156200001157600080fd5b506040516200649738038062006497833981016040819052620000349162000347565b805160a081015160c09091015160009190915560015560038390556004829055848482600562000065848262000587565b50600662000074838262000587565b5060078054336001600160a01b03199182161790915581518051600855602080820151600955604080830151600a55606080840151600b556080840151600c5560e0840151600d55610100840151600e55610120840151600f5561014084015160105561016084015160115561018090930151601255908401516013805485166001600160a01b03928316179055908401516014805490941691161790915581015160159062000125908262000587565b506040805180820182526003815262352e3960e81b60208083019190915283518051918101519084015193517f9a9bca21e4e51607db64fbdbcd7b2284a909c6a8969821f0d161efbdcae70160946200018694938993899333939062000681565b60405180910390a15050821590508015620001a5575080516101400151155b15620001c4576040516397b6be7d60e01b815260040160405180910390fd5b80516020015162093a801080620001e2575080516040015162093a80105b15620002015760405163222e847d60e21b815260040160405180910390fd5b5050505050620006f0565b634e487b7160e01b600052604160045260246000fd5b604051608081016001600160401b03811182821017156200024757620002476200020c565b60405290565b6040516101a081016001600160401b03811182821017156200024757620002476200020c565b60005b838110156200029057818101518382015260200162000276565b50506000910152565b600082601f830112620002ab57600080fd5b81516001600160401b0380821115620002c857620002c86200020c565b604051601f8301601f19908116603f01168101908282118183101715620002f357620002f36200020c565b816040528381528660208588010111156200030d57600080fd5b6200032084602083016020890162000273565b9695505050505050565b80516001600160a01b03811681146200034257600080fd5b919050565b600080600080600060a086880312156200036057600080fd5b85516001600160401b03808211156200037857600080fd5b6200038689838a0162000299565b965060208801519150808211156200039d57600080fd5b620003ab89838a0162000299565b955060408801519450606088015193506080880151915080821115620003d057600080fd5b90870190818903610200811215620003e757600080fd5b620003f162000222565b6101a0808312156200040257600080fd5b6200040c6200024d565b9250845183526020850151602084015260408501516040840152606085015160608401526080850151608084015260a085015160a084015260c085015160c084015260e085015160e0840152610100808601518185015250610120808601518185015250610140808601518185015250610160808601518185015250610180808601518185015250828252620004a48186016200032a565b602083015250620004b96101c085016200032a565b60408201526101e0840151915082821115620004d457600080fd5b620004e28b83860162000299565b6060820152809450505050509295509295909350565b600181811c908216806200050d57607f821691505b6020821081036200052e57634e487b7160e01b600052602260045260246000fd5b50919050565b601f8211156200058257600081815260208120601f850160051c810160208610156200055d5750805b601f850160051c820191505b818110156200057e5782815560010162000569565b5050505b505050565b81516001600160401b03811115620005a357620005a36200020c565b620005bb81620005b48454620004f8565b8462000534565b602080601f831160018114620005f35760008415620005da5750858301515b600019600386901b1c1916600185901b1785556200057e565b600085815260208120601f198616915b82811015620006245788860151825594840194600190910190840162000603565b5085821015620006435787850151600019600388901b60f8161c191681555b5050505050600190811b01905550565b600081518084526200066d81602086016020860162000273565b601f01601f19169290920160200192915050565b60e0815260006200069660e083018a62000653565b8281036020840152620006aa818a62000653565b90508281036040840152620006c0818962000653565b6001600160a01b039790971660608401525050608081019390935260a083019190915260c0909101529392505050565b615d9780620007006000396000f3fe60806040526004361061053d5760003560e01c8063832009af116102bd578063cbdc27cb11610180578063ea8a1af0116100e7578063f5c36411116100a0578063f823f1101161007a578063f823f110146110d3578063f82e54c0146110e6578063fb9bf8d414611106578063fd7971c91461111c57600080fd5b8063f5c3641114611063578063f61736f414611083578063f79c0172146110a357600080fd5b8063ea8a1af014610fbb578063edcd1be414610fd0578063eef18e1714610fe6578063efa90d361461100e578063f0a7db0a14611023578063f4f3d7ec1461104357600080fd5b8063dda54fcf11610139578063dda54fcf14610f07578063dea5f6a614610f34578063e031535b14610f61578063e088b29e14610f76578063e11db9d814610f8d578063e269cefe14610fa257600080fd5b8063cbdc27cb14610e5c578063d140d9f014610e71578063d576b81d14610e91578063d798902514610eb1578063daf762db14610ed1578063dd96a19d14610ef157600080fd5b8063aec116b611610224578063c05f4104116101dd578063c05f410414610d89578063c19d93fb14610da9578063c47f002714610dcb578063c7f758a814610deb578063ca09a4c414610e18578063cb85395014610e2d57600080fd5b8063aec116b614610cbb578063b323580d14610cf1578063b382543f14610d11578063b4ac024f14610d26578063bc022c9814610d46578063bddc164114610d7357600080fd5b80639b338aa0116102765780639b338aa014610c055780639b644a2314610c25578063a84ff54b14610c45578063ab5e694714610c58578063ac67f80114610c6b578063ae66b8ad14610c8b57600080fd5b8063832009af14610b4757806389ab5f5414610b5d5780638ebb4c1514610b705780639174778c14610ba0578063930de97914610bc0578063946369b514610bf057600080fd5b80633fb57c921161040557806354fd4d501161036c5780636ed815ad116103255780636ed815ad14610aa45780636fd3636b14610aba57806375e509c514610acf578063785ddfe514610afc5780637c65d71114610b1c5780637de418d514610b3157600080fd5b806354fd4d50146109c75780635c7107d8146109f35780635cb718a114610a1357806360ed97a914610a285780636d03062114610a3d5780636e4eb81014610a5d57600080fd5b806350a5e524116103be57806350a5e5241461090157806350c4b6161461092457806351a41dec14610944578063531bd8121461095a578063544c7bb41461097a578063544ffc9c1461099a57600080fd5b80633fb57c9214610860578063409fd03014610880578063437a8ae6146108a05780634a2c96ec146108b65780634a587ad4146108cc5780634d24a67f146108ec57600080fd5b8063146230f6116104a9578063325cc6d911610462578063325cc6d9146107ae57806332763c22146107ce578063347cf665146107fe578063366ecf5b1461081a5780633932abb1146108305780633f9942ff1461084657600080fd5b8063146230f6146106e857806315dee7cd1461070a5780631805c5231461073757806320b3e84514610757578063262e59e9146107775780632c39805f1461078c57600080fd5b806305846cae116104fb57806305846cae1461061757806306fdde03146106375780630800e300146106595780630aa25e4414610686578063102613d8146106a65780631242b737146106c657600080fd5b80624114a814610542578063013cf08b1461056b57806302a251a31461059d57806302d05d3f146105b357806303f7eed6146105eb5780630414126a14610601575b600080fd5b34801561054e57600080fd5b5061055860085481565b6040519081526020015b60405180910390f35b34801561057757600080fd5b5061058b610586366004614dad565b611131565b60405161056296959493929190614f3d565b3480156105a957600080fd5b50610558600a5481565b3480156105bf57600080fd5b506007546105d3906001600160a01b031681565b6040516001600160a01b039091168152602001610562565b3480156105f757600080fd5b5061055860105481565b34801561060d57600080fd5b5061055860015481565b34801561062357600080fd5b50610558610632366004614dad565b61141c565b34801561064357600080fd5b5061064c61143d565b6040516105629190614f97565b34801561066557600080fd5b50610679610674366004614dad565b6114cb565b6040516105629190614faa565b34801561069257600080fd5b506105d36106a1366004614dad565b6115df565b3480156106b257600080fd5b506014546105d3906001600160a01b031681565b3480156106d257600080fd5b506106db611609565b6040516105629190614feb565b3480156106f457600080fd5b50610708610703366004615023565b611661565b005b34801561071657600080fd5b50610558610725366004614dad565b60236020526000908152604090205481565b34801561074357600080fd5b5061055861075236600461513f565b61170b565b34801561076357600080fd5b506107086107723660046151d0565b611888565b34801561078357600080fd5b506105586118f5565b34801561079857600080fd5b506107a1611911565b6040516105629190615224565b3480156107ba57600080fd5b506105586107c9366004614dad565b611972565b3480156107da57600080fd5b506107ee6107e9366004615281565b611982565b6040519015158152602001610562565b34801561080a57600080fd5b50610558678ac7230489e8000081565b34801561082657600080fd5b5061055860005481565b34801561083c57600080fd5b5061055860095481565b34801561085257600080fd5b506019546107ee9060ff1681565b34801561086c57600080fd5b5061055861087b366004614dad565b611a81565b34801561088c57600080fd5b5061055861089b3660046152f1565b611a91565b3480156108ac57600080fd5b5061055860125481565b3480156108c257600080fd5b5061055860115481565b3480156108d857600080fd5b506013546105d3906001600160a01b031681565b3480156108f857600080fd5b50610558611ac2565b34801561090d57600080fd5b50610916611ad1565b60405161056292919061539c565b34801561093057600080fd5b506105d361093f366004614dad565b611b9c565b34801561095057600080fd5b50610558600f5481565b34801561096657600080fd5b506107086109753660046153c1565b611bac565b34801561098657600080fd5b50610708610995366004614dad565b611c21565b3480156109a657600080fd5b506105586109b5366004614dad565b60009081526023602052604090205490565b3480156109d357600080fd5b50604080518082019091526003815262352e3960e81b602082015261064c565b3480156109ff57600080fd5b50610558610a0e366004614dad565b611cae565b348015610a1f57600080fd5b506106db611db5565b348015610a3457600080fd5b5061064c611e0b565b348015610a4957600080fd5b50610558610a5836600461541c565b611e18565b348015610a6957600080fd5b50610558610a7836600461543e565b60008281526023602090815260408083206001600160a01b038516845260020190915290205492915050565b348015610ab057600080fd5b50610558600e5481565b348015610ac657600080fd5b506106db611e49565b348015610adb57600080fd5b50610558610aea366004615023565b601b6020526000908152604090205481565b348015610b0857600080fd5b506025546105d3906001600160a01b031681565b348015610b2857600080fd5b5061064c611e9f565b348015610b3d57600080fd5b5061055860215481565b348015610b5357600080fd5b50610558600b5481565b610558610b6b36600461541c565b611eac565b348015610b7c57600080fd5b50610b90610b8b366004614dad565b611f48565b604051610562949392919061546e565b348015610bac57600080fd5b506107ee610bbb366004614dad565b612005565b348015610bcc57600080fd5b506107ee610bdb366004615023565b601f6020526000908152604090205460ff1681565b348015610bfc57600080fd5b506107a16120ab565b348015610c1157600080fd5b50610708610c20366004615023565b61210b565b348015610c3157600080fd5b50610558610c40366004614dad565b6121be565b610558610c533660046154a5565b6121ce565b610558610c6636600461551d565b61223a565b348015610c7757600080fd5b50610708610c863660046155df565b6122b3565b348015610c9757600080fd5b506107ee610ca6366004614dad565b602a6020526000908152604090205460ff1681565b348015610cc757600080fd5b50610558610cd6366004615023565b6001600160a01b031660009081526022602052604090205490565b348015610cfd57600080fd5b506107a1610d0c366004614dad565b61244a565b348015610d1d57600080fd5b50610558600a81565b348015610d3257600080fd5b5061064c610d41366004615613565b6124bc565b348015610d5257600080fd5b50610558610d61366004614dad565b60009081526024602052604090205490565b348015610d7f57600080fd5b5061055860035481565b348015610d9557600080fd5b506106db610da4366004614dad565b61255a565b348015610db557600080fd5b50610dbe6125bc565b604051610562919061565d565b348015610dd757600080fd5b5061064c610de6366004615613565b61260d565b348015610df757600080fd5b50610e0b610e06366004614dad565b6126a4565b6040516105629190615677565b348015610e2457600080fd5b506105586129c4565b348015610e3957600080fd5b506107ee610e48366004615023565b602080526000908152604090205460ff1681565b348015610e6857600080fd5b506107a1612b67565b348015610e7d57600080fd5b50610708610e8c3660046159e6565b612c97565b348015610e9d57600080fd5b50610558610eac366004614dad565b612e7e565b348015610ebd57600080fd5b50610558610ecc3660046159e6565b612ede565b348015610edd57600080fd5b50610708610eec366004614dad565b612ef1565b348015610efd57600080fd5b5061055860045481565b348015610f1357600080fd5b50610558610f22366004615023565b60226020526000908152604090205481565b348015610f4057600080fd5b50610558610f4f366004615023565b601e6020526000908152604090205481565b348015610f6d57600080fd5b50610558612f7e565b348015610f8257600080fd5b5061055862093a8081565b348015610f9957600080fd5b506106db612f90565b348015610fae57600080fd5b5061055864e8d4a5100081565b348015610fc757600080fd5b50610708612fe6565b348015610fdc57600080fd5b50610558600d5481565b348015610ff257600080fd5b506105d373dc652c746a8f85e18ce632d97c6118e8a52fa73881565b34801561101a57600080fd5b506106db6130c8565b34801561102f57600080fd5b5061070861103e366004615a1a565b61311e565b34801561104f57600080fd5b5061070861105e366004615023565b6132b4565b34801561106f57600080fd5b5061055861107e366004614dad565b6133cc565b34801561108f57600080fd5b5061055861109e36600461541c565b6133dc565b3480156110af57600080fd5b506107ee6110be366004614dad565b60186020526000908152604090205460ff1681565b6105586110e1366004615a5b565b6133f8565b3480156110f257600080fd5b506106db611101366004614dad565b613441565b34801561111257600080fd5b50610558600c5481565b34801561112857600080fd5b50610558603c81565b601a60205260009081526040902080546001820180546001600160a01b03831693600160a01b90930460ff1692919061116990615ab6565b80601f016020809104026020016040519081016040528092919081815260200182805461119590615ab6565b80156111e25780601f106111b7576101008083540402835291602001916111e2565b820191906000526020600020905b8154815290600101906020018083116111c557829003601f168201915b5050604080516020808201835260028801546001600160a01b03168252825160038901805460609381028301840186529482018581529899939893975090955093508492849184018282801561126157602002820191906000526020600020905b81546001600160a01b03168152600190910190602001808311611243575b505050505081526020016001820154815250509080600501604051806060016040529081600082018054806020026020016040519081016040528092919081815260200182805480156112dd57602002820191906000526020600020905b81546001600160a01b031681526001909101906020018083116112bf575b5050505050815260200160018201805480602002602001604051908101604052809291908181526020016000905b828210156113b757838290600052602060002001805461132a90615ab6565b80601f016020809104026020016040519081016040528092919081815260200182805461135690615ab6565b80156113a35780601f10611378576101008083540402835291602001916113a3565b820191906000526020600020905b81548152906001019060200180831161138657829003601f168201915b50505050508152602001906001019061130b565b5050505081526020016002820180548060200260200160405190810160405280929190818152602001828054801561140e57602002820191906000526020600020905b8154815260200190600101908083116113fa575b505050505081525050905086565b6017818154811061142c57600080fd5b600091825260209091200154905081565b6005805461144a90615ab6565b80601f016020809104026020016040519081016040528092919081815260200182805461147690615ab6565b80156114c35780601f10611498576101008083540402835291602001916114c3565b820191906000526020600020905b8154815290600101906020018083116114a657829003601f168201915b505050505081565b6114ff604051806080016040528060006001600160a01b031681526020016000815260200160008152602001606081525090565b600082815260286020908152604091829020825160808101845281546001600160a01b0316815260018201549281019290925260028101549282019290925260038201805491929160608401919061155690615ab6565b80601f016020809104026020016040519081016040528092919081815260200182805461158290615ab6565b80156115cf5780601f106115a4576101008083540402835291602001916115cf565b820191906000526020600020905b8154815290600101906020018083116115b257829003601f168201915b5050505050815250509050919050565b601c81815481106115ef57600080fd5b6000918252602090912001546001600160a01b0316905081565b6060601780548060200260200160405190810160405280929190818152602001828054801561165757602002820191906000526020600020905b815481526020019060010190808311611643575b5050505050905090565b6007546001600160a01b0316331461168c5760405163141dbb4960e21b815260040160405180910390fd5b60046116966125bc565b60048111156116a7576116a7615647565b14806116cb575060026116b86125bc565b60048111156116c9576116c9615647565b145b156116e9576040516398fe99a560e01b815260040160405180910390fd5b601380546001600160a01b0319166001600160a01b0392909216919091179055565b600060046117176125bc565b600481111561172857611728615647565b148061174c575060026117396125bc565b600481111561174a5761174a615647565b145b156117695760405162f3e73d60e81b815260040160405180910390fd5b6040805160808101825233815242602082015290810184905260608101839052600061179482611a91565b6026805460018082019092557f744a2cf8fd7008e3d53b67916e73460df9fa5214e3ef23dd4259ca09493a359401829055600082815260286020908152604091829020865181546001600160a01b0319166001600160a01b039091161781559086015192810192909255840151600282015560608401519192508391600382019061181f9082615b30565b505050600085815260296020908152604080832080546001810182559084529190922001829055517f5a1a930fed43f34b3a07db782ebcac28a661c273e662bb98458cfba5a8ccd220906118769083815260200190565b60405180910390a19150505b92915050565b6001600160a01b038316600090815260208052604090205460ff166118f0576003546000036118b657505050565b6118cc83678ac7230489e8000084846000611982565b506001600160a01b03831660009081526020805260409020805460ff191660011790555b505050565b6000600a54611902612f7e565b61190c9190615c05565b905090565b6060601d80548060200260200160405190810160405280929190818152602001828054801561165757602002820191906000526020600020905b81546001600160a01b0316815260019091019060200180831161194b575050505050905090565b6002818154811061142c57600080fd5b6040516bffffffffffffffffffffffff19606087901b166020820152603481018590526000908190605401604051602081830303815290604052805190602001209050600083611a1257611a0d8686808060200260200160405190810160405280939291908181526020018383602002808284376000920191909152505060035491508590506134a1565b611a53565b611a538686808060200260200160405190810160405280939291908181526020018383602002808284376000920191909152505060045491508590506134a1565b905080611a735760405163452c2df160e11b815260040160405180910390fd5b506001979650505050505050565b6027818154811061142c57600080fd5b600081604051602001611aa49190614faa565b60408051601f19818403018152919052805160209091012092915050565b611ace60026001615c05565b81565b6060806000611ade6130c8565b9050600081516001600160401b03811115611afb57611afb615040565b604051908082528060200260200182016040528015611b24578160200160208202803683370190505b50905060005b8251811015611b925760236000848381518110611b4957611b49615c18565b6020026020010151815260200190815260200160002060000154828281518110611b7557611b75615c18565b602090810291909101015280611b8a81615c2e565b915050611b2a565b5090939092509050565b601d81815481106115ef57600080fd5b60045415801590611bd657506001600160a01b0384166000908152601f602052604090205460ff16155b15611c1b57611be9848484846001611982565b506001600160a01b0384166000908152601e60209081526040808320869055601f9091529020805460ff191660011790555b50505050565b6007546001600160a01b03163314611c4c5760405163141dbb4960e21b815260040160405180910390fd5b6004611c566125bc565b6004811115611c6757611c67615647565b1480611c8b57506002611c786125bc565b6004811115611c8957611c89615647565b145b15611ca9576040516398fe99a560e01b815260040160405180910390fd5b600455565b600081600003611cd157604051630ec90a1760e31b815260040160405180910390fd5b60028054604080516020808402820181019092528281529192600092918490830182828015611d1f57602002820191906000526020600020905b815481526020019060010190808311611d0b575b5050505050905060006001905060005b83811015611d9b57611d66838281518110611d4c57611d4c615c18565b602002602001015160009081526024602052604090205490565b15611d8957858203611d7b5795945050505050565b81611d8581615c2e565b9250505b80611d9381615c2e565b915050611d2f565b50604051632cc2ab7360e11b815260040160405180910390fd5b606060278054806020026020016040519081016040528092919081815260200182805480156116575760200282019190600052602060002090815481526020019060010190808311611643575050505050905090565b6015805461144a90615ab6565b60246020528160005260406000208181548110611e3457600080fd5b90600052602060002001600091509150505481565b606060028054806020026020016040519081016040528092919081815260200182805480156116575760200282019190600052602060002090815481526020019060010190808311611643575050505050905090565b6006805461144a90615ab6565b600080611eba6001846134b7565b60008581526018602052604090205490915060ff1615611eed576040516358f1119560e01b815260040160405180910390fd5b60045415801590611f0e5750336000908152601f602052604090205460ff16155b15611f2c5760405163126ec6d160e31b815260040160405180910390fd5b611f3581613588565b611f4084338561368f565b949350505050565b60286020526000908152604090208054600182015460028301546003840180546001600160a01b03909416949293919291611f8290615ab6565b80601f0160208091040260200160405190810160405280929190818152602001828054611fae90615ab6565b8015611ffb5780601f10611fd057610100808354040283529160200191611ffb565b820191906000526020600020905b815481529060010190602001808311611fde57829003601f168201915b5050505050905084565b60025460009061201790600190615c47565b821115612037576040516365d6f35160e11b815260040160405180910390fd5b60005b612045836001615c05565b8110156120a25760016120816002838154811061206457612064615c18565b906000526020600020015460009081526024602052604090205490565b11156120905750600192915050565b8061209a81615c2e565b91505061203a565b50600092915050565b6060601c805480602002602001604051908101604052809291908181526020018280548015611657576020028201919060005260206000209081546001600160a01b0316815260019091019060200180831161194b575050505050905090565b3373dc652c746a8f85e18ce632d97c6118e8a52fa7381461213f5760405163de07280160e01b815260040160405180910390fd5b60046121496125bc565b600481111561215a5761215a615647565b148061217e5750600261216b6125bc565b600481111561217c5761217c615647565b145b1561219c576040516398fe99a560e01b815260040160405180910390fd5b601480546001600160a01b0319166001600160a01b0392909216919091179055565b6016818154811061142c57600080fd5b6000806121dc6001866134b7565b60008881526018602052604090205490915060ff161561220f576040516358f1119560e01b815260040160405180910390fd5b61221b33878686611bac565b61222481613588565b61222f87338761368f565b979650505050505050565b6000806122486000806134b7565b600354909150156122825733600090815260208052604090205460ff1661228257604051631f22097560e01b815260040160405180910390fd5b61228e610e8c84615c5a565b60006122a161229c85615c5a565b6137c1565b90506122ac82613588565b9392505050565b60046122bd6125bc565b60048111156122ce576122ce615647565b14806122f2575060026122df6125bc565b60048111156122f0576122f0615647565b145b1561231057604051631e71d28360e21b815260040160405180910390fd5b805160005b8181101561240e57600083828151811061233157612331615c18565b60209081029190910101516007549091506001600160a01b0316331480159061237157506000818152602860205260409020546001600160a01b03163314155b1561239757604051635450763d60e11b8152600481018290526024015b60405180910390fd5b6000818152602a602052604090205460ff166123fb576000818152602a60205260408120805460ff191660019081179091556027805491820181559091527f98a476f1687bc3d60a2da2adbcba2c46958e61fa2fb4042cd7bc5816a710195b018190555b508061240681615c2e565b915050612315565b507f788a4349d25bc08585923ae212bce8bb346a623bce753eeecb85fd9ce58dcb4b8260405161243e9190614feb565b60405180910390a15050565b60008181526023602090815260409182902060018101805484518185028101850190955280855260609492938301828280156124af57602002820191906000526020600020905b81546001600160a01b03168152600190910190602001808311612491575b5050505050915050919050565b6007546060906001600160a01b031633146124ea57604051630aca3d7160e11b815260040160405180910390fd5b60046124f46125bc565b600481111561250557612505615647565b1480612529575060026125166125bc565b600481111561252757612527615647565b145b1561254757604051635b0747e760e01b815260040160405180910390fd5b60066125538382615b30565b5090919050565b6000818152602960209081526040918290208054835181840281018401909452808452606093928301828280156125b057602002820191906000526020600020905b81548152602001906001019080831161259c575b50505050509050919050565b60195460009060ff16156125d05750600290565b42600854106125df5750600090565b426125e8612f7e565b106125f35750600390565b426125fc6118f5565b106126075750600190565b50600490565b6007546060906001600160a01b0316331461263b57604051637d1cb2b160e01b815260040160405180910390fd5b60046126456125bc565b600481111561265657612656615647565b148061267a575060026126676125bc565b600481111561267857612678615647565b145b1561269857604051635b0747e760e01b815260040160405180910390fd5b60056125538382615b30565b6126ac614bb5565b6000828152601a6020908152604091829020825160c08101845281546001600160a01b0381168252600160a01b900460ff1615159281019290925260018101805492939192918401916126fe90615ab6565b80601f016020809104026020016040519081016040528092919081815260200182805461272a90615ab6565b80156127775780601f1061274c57610100808354040283529160200191612777565b820191906000526020600020905b81548152906001019060200180831161275a57829003601f168201915b5050509183525050604080516020818101835260028501546001600160a01b0316825280840191909152815160038501805460609381028301840185528285018181529490950194919390928492849184018282801561280057602002820191906000526020600020905b81546001600160a01b031681526001909101906020018083116127e2575b505050505081526020016001820154815250508152602001600582016040518060600160405290816000820180548060200260200160405190810160405280929190818152602001828054801561288057602002820191906000526020600020905b81546001600160a01b03168152600190910190602001808311612862575b5050505050815260200160018201805480602002602001604051908101604052809291908181526020016000905b8282101561295a5783829060005260206000200180546128cd90615ab6565b80601f01602080910402602001604051908101604052809291908181526020018280546128f990615ab6565b80156129465780601f1061291b57610100808354040283529160200191612946565b820191906000526020600020905b81548152906001019060200180831161292957829003601f168201915b5050505050815260200190600101906128ae565b505050508152602001600282018054806020026020016040519081016040528092919081815260200182805480156129b157602002820191906000526020600020905b81548152602001906001019080831161299d575b5050509190925250505090525092915050565b60006010546001146129e957604051632003ca2160e01b815260040160405180910390fd5b60016129f36125bc565b6004811115612a0457612a04615647565b14612a2b57612a116125bc565b604051631827aa6760e21b815260040161238e919061565d565b60016011546001811115612a4157612a41615647565b6001811115612a5257612a52615647565b03612b60576000603c612a63612f7e565b612a6e906001615c05565b612a789042615c47565b612a829190615c7c565b90506000612aef612adb612aa4612aa185670de0b6b3a7640000615c9e565b90565b612ad6612ac0600a54670de0b6b3a7640000612aa19190615c9e565b612ad6612aa1603c670de0b6b3a7640000615c9e565b613a98565b68056bc75e2d63100000613ab0565b613ab0565b90506000612b1182612aea612b0360125490565b670de0b6b3a7640000613a98565b90506000612b1e82613abf565b90506000612b3a612aa1612b34612b03600f5490565b84613ab0565b905064e8d4a51000612b4c8183615c7c565b612b569190615c9e565b9550505050505090565b50600f5490565b606060006017805480602002602001604051908101604052809291908181526020018280548015612bb757602002820191906000526020600020905b815481526020019060010190808311612ba3575b50505050509050600081516001600160401b03811115612bd957612bd9615040565b604051908082528060200260200182016040528015612c02578160200160208202803683370190505b50905060005b8251811015612c9057601a6000848381518110612c2757612c27615c18565b6020026020010151815260200190815260200160002060000160009054906101000a90046001600160a01b0316828281518110612c6657612c66615c18565b6001600160a01b039092166020928302919091019091015280612c8881615c2e565b915050612c08565b5092915050565b80516001600160a01b03163314612cd557805160405163fbbf4d7f60e01b81526001600160a01b03909116600482015233602482015260440161238e565b60005b612ce460026001615c05565b811015612e54576000816002811115612cff57612cff615647565b90506000816002811115612d1557612d15615647565b03612d205750612e42565b6001816002811115612d3457612d34615647565b03612d8e5760808301515151600003612d605760405163c3b2798b60e01b815260040160405180910390fd5b826080015160200151600003612d89576040516392fb9a3560e01b815260040160405180910390fd5b612e40565b6002816002811115612da257612da2615647565b03612e255760a08301515151600a1015612dcf57604051631e38b1b160e11b815260040160405180910390fd5b600a8360a0015160200151511115612dfa5760405163a3b7dd7760e01b815260040160405180910390fd5b600a8360a0015160400151511115612d895760405163f696406560e01b815260040160405180910390fd5b8060405163d2277d4960e01b815260040161238e9190615cb5565b505b80612e4c81615c2e565b915050612cd8565b50806040015151600003612e7b5760405163e182473360e01b815260040160405180910390fd5b50565b600081815260246020526040812054600114612ead57604051633832a15560e21b815260040160405180910390fd5b60008281526024602052604081208054909190612ecc57612ecc615c18565b90600052602060002001549050919050565b600081604051602001611aa49190615677565b6007546001600160a01b03163314612f1c5760405163141dbb4960e21b815260040160405180910390fd5b6004612f266125bc565b6004811115612f3757612f37615647565b1480612f5b57506002612f486125bc565b6004811115612f5957612f59615647565b145b15612f79576040516398fe99a560e01b815260040160405180910390fd5b600355565b600060095460085461190c9190615c05565b606060268054806020026020016040519081016040528092919081815260200182805480156116575760200282019190600052602060002090815481526020019060010190808311611643575050505050905090565b6007546001600160a01b0316331480159061301557503373dc652c746a8f85e18ce632d97c6118e8a52fa73814155b1561303357604051637601acaf60e11b815260040160405180910390fd5b600461303d6125bc565b600481111561304e5761304e615647565b14806130725750600261305f6125bc565b600481111561307057613070615647565b145b1561309057604051635777604560e01b815260040160405180910390fd5b6019805460ff191660011790556040517f4cd963a081760a54f571abc0f1db4dde31b4a07d8d6da3e844b8c6f47eeaaa4290600090a1565b606060168054806020026020016040519081016040528092919081815260200182805480156116575760200282019190600052602060002090815481526020019060010190808311611643575050505050905090565b60046131286125bc565b600481111561313957613139615647565b148061315d5750600261314a6125bc565b600481111561315b5761315b615647565b145b1561317b57604051631e71d28360e21b815260040160405180910390fd5b60005b8181101561326f57600083838381811061319a5761319a615c18565b60075460209190910292909201359250506001600160a01b031633148015906131da57506000818152601a60205260409020546001600160a01b03163314155b156131f85760405163018db70560e11b815260040160405180910390fd5b60008181526018602052604090205460ff1661325c576000818152601860205260408120805460ff191660019081179091556017805491820181559091527fc624b66cc0138b8fabc209247f72d758e1cf3343756d543badbf24212bed8c15018190555b508061326781615c2e565b91505061317e565b50600054600103613284576132848282613b15565b7f75a75cf5c561892f4cc5b26c1b8e933849b42238c96dd073d080d1ae96c51416601660405161243e9190615cc9565b6007546001600160a01b031633146132df57604051630f4cb1bd60e11b815260040160405180910390fd5b306001600160a01b0316816001600160a01b031663f3f44fb76040518163ffffffff1660e01b8152600401602060405180830381865afa158015613327573d6000803e3d6000fd5b505050506040513d601f19601f8201168201806040525081019061334b9190615d04565b6001600160a01b03161461337257604051635b310aaf60e01b815260040160405180910390fd5b602580546001600160a01b038381166001600160a01b031983168117909355604080519190921680825260208201939093527f753a2cf8d360cff631674504210913e48247f8e56b3e6d2006c2103d4095999f910161243e565b6026818154811061142c57600080fd5b60296020528160005260406000208181548110611e3457600080fd5b6000806134066000806134b7565b9050613413338585611888565b61341f610e8c86615c5a565b600061342d61229c87615c5a565b905061343882613588565b95945050505050565b6000818152602460209081526040918290208054835181840281018401909452808452606093928301828280156125b0576020028201919060005260206000209081548152602001906001019080831161259c5750505050509050919050565b6000826134ae8584613b72565b14949350505050565b600080808460018111156134cd576134cd615647565b036134db5750600e5461355f565b60018460018111156134ef576134ef615647565b0361355b5760105460010361355257670de0b6b3a7640000831015613527576040516346ddb8d160e01b815260040160405180910390fd5b613539670de0b6b3a764000084615c7c565b6135416129c4565b61354b9190615c9e565b905061355f565b50600f5461355f565b5060005b8034146122ac576040516372c3eaa760e01b81523460048201526024810182905260440161238e565b8015612e7b5760006064600d5460646135a19190615c47565b6135ab9034615c9e565b6135b59190615c7c565b9050801561361a576014546135d3906001600160a01b031682613bbf565b601454604080516001600160a01b039092168252602082018390527f9df63d1c00d2e332f573be591c0579caafb256b2c5a17abcc8ad471cccda1b81910160405180910390a15b60006136268234615c47565b905080156118f057601354613644906001600160a01b031682613bbf565b600754604080516001600160a01b039092168252602082018390527f6dff55337c8458ae8c536a63869a48bc33541733422a796390c131d91f4238ed910160405180910390a1505050565b6000600161369b6125bc565b60048111156136ac576136ac615647565b146136d3576136b96125bc565b60405163049cab4960e51b815260040161238e919061565d565b816000036136f45760405163502e1c2960e01b815260040160405180910390fd5b6001600160a01b0383166000908152601e602052604090205461371c90859085908590613cd8565b601d80546001810182556000919091527f6d4407e7be21f808e6509aa9fa9143369579dd7d760fe20a2c09680fc146134f0180546001600160a01b0319163317905560408051858152602081018490526001600160a01b038516917fb4cfecf70861b7b150d8337780d34fb4cbc2114b5fb1fe51a5c5fca1849f7274910160405180910390a250506001600160a01b03166000908152601e6020526040902054919050565b600060036137cd6125bc565b60048111156137de576137de615647565b14613805576137eb6125bc565b604051632889531360e01b815260040161238e919061565d565b600b54336000908152601b60205260409020540361383c57600b54604051632bd6d93960e21b815260040161238e91815260200190565b600c5460175460165461384f9190615c47565b0361387357600c546040516302217f5360e51b815260040161238e91815260200190565b600061387e83612ede565b6000818152601a6020526040902054909150600160a01b900460ff16156138bb5760405163baffc42360e01b81526004810182905260240161238e565b6016805460018181019092557fd833147d7dc355ba459fc788f669e58cfaf9dc25ddcd0702e87d69c7b5124289018290556000828152601a602090815260409182902086518154928801511515600160a01b026001600160a81b03199093166001600160a01b039091161791909117815590850151859282019061393f9082615b30565b506060820151516002820180546001600160a01b0319166001600160a01b03909216919091179055608082015180518051600384019161398491839160200190614c4f565b5060209182015160019091015560a083015180518051919260058501926139ae9284920190614c4f565b5060208281015180516139c79260018501920190614cb4565b50604082015180516139e3916002840191602090910190614d06565b5050336000908152601b60205260408120805460019550909350909150613a0b908490615c05565b9091555050601c80546001810182556000919091527f0e4562a10381dec21b205ed72637e6b1b523bdd0e4d4d50af5cd23dd4500a2110180546001600160a01b0319163390811790915560408085015190517f7585f467599d0f008985f231af99293be388626ac16ca59505c2f8f88969cd6392613a8a928592615d21565b60405180910390a192915050565b60006122ac612aa184670de0b6b3a764000085613e76565b60006122ac612aa18484613f4a565b600081680a688906bd8affffff811115613aef5760405163b3b6ba1f60e01b81526004810184905260240161238e565b6000613b07670de0b6b3a7640000604084901b615c7c565b9050611f40612aa182614000565b60005b818110156118f0576000838383818110613b3457613b34615c18565b6020908102929092013560008181526023909352604090922054919250613b5d90508282614760565b50508080613b6a90615c2e565b915050613b18565b600081815b8451811015613bb757613ba382868381518110613b9657613b96615c18565b6020026020010151614891565b915080613baf81615c2e565b915050613b77565b509392505050565b80471015613c0f5760405162461bcd60e51b815260206004820152601d60248201527f416464726573733a20696e73756666696369656e742062616c616e6365000000604482015260640161238e565b6000826001600160a01b03168260405160006040518083038185875af1925050503d8060008114613c5c576040519150601f19603f3d011682016040523d82523d6000602084013e613c61565b606091505b50509050806118f05760405162461bcd60e51b815260206004820152603a60248201527f416464726573733a20756e61626c6520746f2073656e642076616c75652c207260448201527f6563697069656e74206d61792068617665207265766572746564000000000000606482015260840161238e565b600084815260236020526040902060045415801590613d1857506001600160a01b038416600090815260226020526040902054613d159083615c47565b83115b15613d365760405163660fa07360e11b815260040160405180910390fd5b6001600160a01b038416600090815260028201602052604081205482549015918591849190613d66908490615c05565b90915550506001600160a01b038516600090815260028301602052604081208054869290613d95908490615c05565b90915550508015613dd0576001828101805491820181556000908152602090200180546001600160a01b0319166001600160a01b0387161790555b6001600160a01b03851660009081526022602052604081208054869290613df8908490615c05565b925050819055508360216000828254613e119190615c05565b9091555050600054600103613e6e5781546000613e2e8683615c47565b90508015613e4057613e408882614760565b600082815260246020908152604082208054600181018255908352912001889055613e6b81836148c0565b50505b505050505050565b6000808060001985870985870292508281108382030391505080600003613eb057838281613ea657613ea6615c66565b04925050506122ac565b838110613ee157604051630c740aef60e31b815260048101879052602481018690526044810185905260640161238e565b60008486880960026001871981018816978890046003810283188082028403028082028403028082028403028082028403028082028403029081029092039091026000889003889004909101858311909403939093029303949094049190911702949350505050565b6000808060001984860984860292508281108382030391505080600003613f7e5750670de0b6b3a764000090049050611882565b670de0b6b3a76400008110613fb057604051635173648d60e01b8152600481018690526024810185905260440161238e565b6000670de0b6b3a764000085870962040000818503049310909103600160ee1b02919091177faccb18165bd6fe31ae1cf318dc5b51eee0e1ba569b88cd74c1773b91fac106690291505092915050565b600160bf1b67ff0000000000000082161561410d576780000000000000008216156140345768016a09e667f3bcc9090260401c5b674000000000000000821615614053576801306fe0a31b7152df0260401c5b672000000000000000821615614072576801172b83c7d517adce0260401c5b6710000000000000008216156140915768010b5586cf9890f62a0260401c5b6708000000000000008216156140b0576801059b0d31585743ae0260401c5b6704000000000000008216156140cf57680102c9a3e778060ee70260401c5b6702000000000000008216156140ee5768010163da9fb33356d80260401c5b67010000000000000082161561410d57680100b1afa5abcbed610260401c5b66ff00000000000082161561420c57668000000000000082161561413a5768010058c86da1c09ea20260401c5b6640000000000000821615614158576801002c605e2e8cec500260401c5b662000000000000082161561417657680100162f3904051fa10260401c5b6610000000000000821615614194576801000b175effdc76ba0260401c5b66080000000000008216156141b257680100058ba01fb9f96d0260401c5b66040000000000008216156141d05768010002c5cc37da94920260401c5b66020000000000008216156141ee576801000162e525ee05470260401c5b660100000000000082161561420c5768010000b17255775c040260401c5b65ff00000000008216156143025765800000000000821615614237576801000058b91b5bc9ae0260401c5b6540000000000082161561425457680100002c5c89d5ec6d0260401c5b652000000000008216156142715768010000162e43f4f8310260401c5b6510000000000082161561428e57680100000b1721bcfc9a0260401c5b650800000000008216156142ab5768010000058b90cf1e6e0260401c5b650400000000008216156142c8576801000002c5c863b73f0260401c5b650200000000008216156142e557680100000162e430e5a20260401c5b65010000000000821615614302576801000000b1721835510260401c5b64ff000000008216156143ef5764800000000082161561432b57680100000058b90c0b490260401c5b6440000000008216156143475768010000002c5c8601cc0260401c5b642000000000821615614363576801000000162e42fff00260401c5b64100000000082161561437f5768010000000b17217fbb0260401c5b64080000000082161561439b576801000000058b90bfce0260401c5b6404000000008216156143b757680100000002c5c85fe30260401c5b6402000000008216156143d35768010000000162e42ff10260401c5b6401000000008216156143ef57680100000000b17217f80260401c5b63ff0000008216156144d35763800000008216156144165768010000000058b90bfc0260401c5b6340000000821615614431576801000000002c5c85fe0260401c5b632000000082161561444c57680100000000162e42ff0260401c5b6310000000821615614467576801000000000b17217f0260401c5b630800000082161561448257680100000000058b90c00260401c5b630400000082161561449d5768010000000002c5c8600260401c5b63020000008216156144b8576801000000000162e4300260401c5b63010000008216156144d35768010000000000b172180260401c5b62ff00008216156145ae57628000008216156144f8576801000000000058b90c0260401c5b6240000082161561451257680100000000002c5c860260401c5b6220000082161561452c5768010000000000162e430260401c5b6210000082161561454657680100000000000b17210260401c5b620800008216156145605768010000000000058b910260401c5b6204000082161561457a576801000000000002c5c80260401c5b6202000082161561459457680100000000000162e40260401c5b620100008216156145ae576801000000000000b1720260401c5b61ff00821615614680576180008216156145d157680100000000000058b90260401c5b6140008216156145ea5768010000000000002c5d0260401c5b612000821615614603576801000000000000162e0260401c5b61100082161561461c5768010000000000000b170260401c5b610800821615614635576801000000000000058c0260401c5b61040082161561464e57680100000000000002c60260401c5b61020082161561466757680100000000000001630260401c5b61010082161561468057680100000000000000b10260401c5b60ff8216156147495760808216156146a157680100000000000000590260401c5b60408216156146b9576801000000000000002c0260401c5b60208216156146d157680100000000000000160260401c5b60108216156146e9576801000000000000000b0260401c5b600882161561470157680100000000000000060260401c5b600482161561471957680100000000000000030260401c5b600282161561473157680100000000000000010260401c5b600182161561474957680100000000000000010260401c5b670de0b6b3a76400000260409190911c60bf031c90565b6000818152602460209081526040808320805482518185028101850190935280835291929091908301828280156147b657602002820191906000526020600020905b8154815260200190600101908083116147a2575b5050505050905060005b8151811015611c1b57838282815181106147dc576147dc615c18565b60200260200101510361487f5781600183516147f89190615c47565b8151811061480857614808615c18565b602002602001015160246000858152602001908152602001600020828154811061483457614834615c18565b90600052602060002001819055506024600084815260200190815260200160002080548061486457614864615d4b565b60019003818190600052602060002001600090559055611c1b565b8061488981615c2e565b9150506147c0565b60008183106148ad5760008281526020849052604090206122ac565b60008381526020839052604090206122ac565b6002805460408051602080840282018101909252828152919260009291849083018282801561490e57602002820191906000526020600020905b8154815260200190600101908083116148fa575b5050505050905081600003614955575050600280546001810182556000919091527f405787fa12a823e0f2b7631cc41b3ba8828b3321ca811111fa75cd3aa3bb5ace015550565b80614961600184615c47565b8151811061497157614971615c18565b60200260200101518310156149c757600154820361498f5750505050565b5050600280546001810182556000919091527f405787fa12a823e0f2b7631cc41b3ba8828b3321ca811111fa75cd3aa3bb5ace015550565b611c1b848484846000805b83811015614a3c578281815181106149ec576149ec615c18565b60200260200101518503614a01575050611c1b565b828181518110614a1357614a13615c18565b6020026020010151851115614a2a57809150614a3c565b80614a3481615c2e565b9150506149d2565b5060008086118015614a5a5750600086815260246020526040902054155b90506000818015614a83575086848481518110614a7957614a79615c18565b6020026020010151145b614b8c57614a92600186615c47565b8314614b3a576000614aa5846001615c05565b90505b85811015614b385784614abc600183615c47565b81518110614acc57614acc615c18565b602002602001015160028281548110614ae757614ae7615c18565b600091825260209091200155828015614b18575087858281518110614b0e57614b0e615c18565b6020026020010151145b15614b265760019150614b38565b80614b3081615c2e565b915050614aa8565b505b80158015614b49575060015485105b15614b8c57600284614b5c600188615c47565b81518110614b6c57614b6c615c18565b602090810291909101810151825460018101845560009384529190922001555b8560028481548110614ba057614ba0615c18565b60009182526020909120015550505050505050565b6040518060c0016040528060006001600160a01b0316815260200160001515815260200160608152602001614bff604051806020016040528060006001600160a01b031681525090565b8152602001614c21604051806040016040528060608152602001600081525090565b8152602001614c4a60405180606001604052806060815260200160608152602001606081525090565b905290565b828054828255906000526020600020908101928215614ca4579160200282015b82811115614ca457825182546001600160a01b0319166001600160a01b03909116178255602090920191600190910190614c6f565b50614cb0929150614d41565b5090565b828054828255906000526020600020908101928215614cfa579160200282015b82811115614cfa5782518290614cea9082615b30565b5091602001919060010190614cd4565b50614cb0929150614d56565b828054828255906000526020600020908101928215614ca4579160200282015b82811115614ca4578251825591602001919060010190614d26565b5b80821115614cb05760008155600101614d42565b80821115614cb0576000614d6a8282614d73565b50600101614d56565b508054614d7f90615ab6565b6000825580601f10614d8f575050565b601f016020900490600052602060002090810190612e7b9190614d41565b600060208284031215614dbf57600080fd5b5035919050565b6000815180845260005b81811015614dec57602081850181015186830182015201614dd0565b506000602082860101526020601f19601f83011685010191505092915050565b600081518084526020808501945080840160005b83811015614e455781516001600160a01b031687529582019590820190600101614e20565b509495945050505050565b6000815160408452614e656040850182614e0c565b602093840151949093019390935250919050565b600081518084526020808501945080840160005b83811015614e4557815187529582019590820190600101614e8d565b6000815160608452614ebe6060850182614e0c565b9050602080840151858303828701528281518085528385019150838160051b860101848401935060005b82811015614f1657601f19878303018452614f04828651614dc6565b94860194938601939150600101614ee8565b506040880151955088810360408a0152614f308187614e79565b9998505050505050505050565b600060018060a01b038089168352871515602084015260c06040840152614f6760c0840188614dc6565b8187511660608501528381036080850152614f828187614e50565b91505082810360a0840152614f308185614ea9565b6020815260006122ac6020830184614dc6565b6020815260018060a01b038251166020820152602082015160408201526040820151606082015260006060830151608080840152611f4060a0840182614dc6565b6020815260006122ac6020830184614e79565b6001600160a01b0381168114612e7b57600080fd5b803561501e81614ffe565b919050565b60006020828403121561503557600080fd5b81356122ac81614ffe565b634e487b7160e01b600052604160045260246000fd5b604051606081016001600160401b038111828210171561507857615078615040565b60405290565b60405160c081016001600160401b038111828210171561507857615078615040565b604051601f8201601f191681016001600160401b03811182821017156150c8576150c8615040565b604052919050565b600082601f8301126150e157600080fd5b81356001600160401b038111156150fa576150fa615040565b61510d601f8201601f19166020016150a0565b81815284602083860101111561512257600080fd5b816020850160208301376000918101602001919091529392505050565b6000806040838503121561515257600080fd5b8235915060208301356001600160401b0381111561516f57600080fd5b61517b858286016150d0565b9150509250929050565b60008083601f84011261519757600080fd5b5081356001600160401b038111156151ae57600080fd5b6020830191508360208260051b85010111156151c957600080fd5b9250929050565b6000806000604084860312156151e557600080fd5b83356151f081614ffe565b925060208401356001600160401b0381111561520b57600080fd5b61521786828701615185565b9497909650939450505050565b6020808252825182820181905260009190848201906040850190845b818110156152655783516001600160a01b031683529284019291840191600101615240565b50909695505050505050565b8035801515811461501e57600080fd5b60008060008060006080868803121561529957600080fd5b85356152a481614ffe565b94506020860135935060408601356001600160401b038111156152c657600080fd5b6152d288828901615185565b90945092506152e5905060608701615271565b90509295509295909350565b60006020828403121561530357600080fd5b81356001600160401b038082111561531a57600080fd5b908301906080828603121561532e57600080fd5b60405160808101818110838211171561534957615349615040565b604052823561535781614ffe565b80825250602083013560208201526040830135604082015260608301358281111561538157600080fd5b61538d878286016150d0565b60608301525095945050505050565b6040815260006153af6040830185614e79565b82810360208401526134388185614e79565b600080600080606085870312156153d757600080fd5b84356153e281614ffe565b93506020850135925060408501356001600160401b0381111561540457600080fd5b61541087828801615185565b95989497509550505050565b6000806040838503121561542f57600080fd5b50508035926020909101359150565b6000806040838503121561545157600080fd5b82359150602083013561546381614ffe565b809150509250929050565b60018060a01b038516815283602082015282604082015260806060820152600061549b6080830184614dc6565b9695505050505050565b6000806000806000608086880312156154bd57600080fd5b85359450602086013593506040860135925060608601356001600160401b038111156154e857600080fd5b6154f488828901615185565b969995985093965092949392505050565b600060c0828403121561551757600080fd5b50919050565b60006020828403121561552f57600080fd5b81356001600160401b0381111561554557600080fd5b611f4084828501615505565b60006001600160401b0382111561556a5761556a615040565b5060051b60200190565b600082601f83011261558557600080fd5b8135602061559a61559583615551565b6150a0565b82815260059290921b840181019181810190868411156155b957600080fd5b8286015b848110156155d457803583529183019183016155bd565b509695505050505050565b6000602082840312156155f157600080fd5b81356001600160401b0381111561560757600080fd5b611f4084828501615574565b60006020828403121561562557600080fd5b81356001600160401b0381111561563b57600080fd5b611f40848285016150d0565b634e487b7160e01b600052602160045260246000fd5b602081016005831061567157615671615647565b91905290565b60208152600060018060a01b03808451166020840152602084015115156040840152604084015160c060608501526156b260e0850182614dc6565b90508160608601515116608085015260808501519150601f19808583030160a08601526156df8284614e50565b925060a08601519150808584030160c0860152506134388282614ea9565b60006020828403121561570f57600080fd5b604051602081018181106001600160401b038211171561573157615731615040565b604052905080823561574281614ffe565b905292915050565b600082601f83011261575b57600080fd5b8135602061576b61559583615551565b82815260059290921b8401810191818101908684111561578a57600080fd5b8286015b848110156155d45780356157a181614ffe565b835291830191830161578e565b6000604082840312156157c057600080fd5b604051604081016001600160401b0382821081831117156157e3576157e3615040565b8160405282935084359150808211156157fb57600080fd5b506158088582860161574a565b825250602083013560208201525092915050565b60006060828403121561582e57600080fd5b615836615056565b905081356001600160401b038082111561584f57600080fd5b61585b8583860161574a565b835260209150818401358181111561587257600080fd5b8401601f8101861361588357600080fd5b803561589161559582615551565b81815260059190911b820184019084810190888311156158b057600080fd5b8584015b838110156158e8578035868111156158cc5760008081fd5b6158da8b89838901016150d0565b8452509186019186016158b4565b50808688015250505050604084013591508082111561590657600080fd5b5061591384828501615574565b60408301525092915050565b600060c0828403121561593157600080fd5b61593961507e565b905061594482615013565b815261595260208301615271565b602082015260408201356001600160401b038082111561597157600080fd5b61597d858386016150d0565b604084015261598f85606086016156fd565b606084015260808401359150808211156159a857600080fd5b6159b4858386016157ae565b608084015260a08401359150808211156159cd57600080fd5b506159da8482850161581c565b60a08301525092915050565b6000602082840312156159f857600080fd5b81356001600160401b03811115615a0e57600080fd5b611f408482850161591f565b60008060208385031215615a2d57600080fd5b82356001600160401b03811115615a4357600080fd5b615a4f85828601615185565b90969095509350505050565b600080600060408486031215615a7057600080fd5b83356001600160401b0380821115615a8757600080fd5b615a9387838801615505565b94506020860135915080821115615aa957600080fd5b5061521786828701615185565b600181811c90821680615aca57607f821691505b60208210810361551757634e487b7160e01b600052602260045260246000fd5b601f8211156118f057600081815260208120601f850160051c81016020861015615b115750805b601f850160051c820191505b81811015613e6e57828155600101615b1d565b81516001600160401b03811115615b4957615b49615040565b615b5d81615b578454615ab6565b84615aea565b602080601f831160018114615b925760008415615b7a5750858301515b600019600386901b1c1916600185901b178555613e6e565b600085815260208120601f198616915b82811015615bc157888601518255948401946001909101908401615ba2565b5085821015615bdf5787850151600019600388901b60f8161c191681555b5050505050600190811b01905550565b634e487b7160e01b600052601160045260246000fd5b8082018082111561188257611882615bef565b634e487b7160e01b600052603260045260246000fd5b600060018201615c4057615c40615bef565b5060010190565b8181038181111561188257611882615bef565b6000611882368361591f565b634e487b7160e01b600052601260045260246000fd5b600082615c9957634e487b7160e01b600052601260045260246000fd5b500490565b808202811582820484141761188257611882615bef565b602081016003831061567157615671615647565b6020808252825482820181905260008481528281209092916040850190845b8181101561526557835483526001938401939285019201615ce8565b600060208284031215615d1657600080fd5b81516122ac81614ffe565b8381526001600160a01b038316602082015260606040820181905260009061343890830184614dc6565b634e487b7160e01b600052603160045260246000fdfea2646970667358221220173e612f3318b7a760b7e004047cf5ebbbfb6c185867e6af16d4a6cf5c3a3ca264736f6c63430008130033","linkReferences":{}},"methodIdentifiers":{"AMOUNT_FOR_SUMBITTER_PROOF()":"347cf665","COST_ROUNDING_VALUE()":"e269cefe","JK_LABS_ADDRESS()":"eef18e17","MAX_FIELDS_METADATA_LENGTH()":"b382543f","METADATAS_COUNT()":"4d24a67f","PRICE_CURVE_UPDATE_INTERVAL()":"fd7971c9","SECONDS_IN_WEEK()":"e088b29e","addressSubmitterVerified(address)":"cb853950","addressTotalCastVoteCount(address)":"dda54fcf","addressTotalVotes(address)":"dea5f6a6","addressTotalVotesVerified(address)":"930de979","addressesThatHaveVoted(uint256)":"50c4b616","allProposalTotalVotes()":"50a5e524","cancel()":"ea8a1af0","canceled()":"3f9942ff","castVote(uint256,uint256,uint256,bytes32[])":"a84ff54b","castVoteWithoutProof(uint256,uint256)":"89ab5f54","checkProof(address,uint256,bytes32[],bool)":"32763c22","comment(uint256,string)":"1805c523","commentIds(uint256)":"f5c36411","commentIsDeleted(uint256)":"ae66b8ad","comments(uint256)":"8ebb4c15","contestAddressTotalVotesCast(address)":"aec116b6","contestDeadline()":"262e59e9","contestStart()":"004114a8","costToPropose()":"6ed815ad","costToVote()":"51a41dec","creator()":"02d05d3f","creatorSplitDestination()":"4a587ad4","currentPricePerVote()":"ca09a4c4","deleteComments(uint256[])":"ac67f801","deleteProposals(uint256[])":"f0a7db0a","deletedCommentIds(uint256)":"3fb57c92","deletedProposalIds(uint256)":"05846cae","getAllAddressesThatHaveVoted()":"2c39805f","getAllAuthorsOfDeletedProposals()":"cbdc27cb","getAllCommentIds()":"e11db9d8","getAllDeletedCommentIds()":"5cb718a1","getAllDeletedProposalIds()":"1242b737","getAllProposalAuthors()":"946369b5","getAllProposalIds()":"efa90d36","getComment(uint256)":"0800e300","getNumProposalsWithThisManyVotes(uint256)":"bc022c98","getOnlyProposalIdWithThisManyVotes(uint256)":"d576b81d","getProposal(uint256)":"c7f758a8","getProposalComments(uint256)":"c05f4104","getProposalsWithThisManyVotes(uint256)":"f82e54c0","getRankIndex(uint256)":"5c7107d8","getSortedRanks()":"6fd3636b","hashComment((address,uint256,uint256,string))":"409fd030","hashProposal((address,bool,string,(address),(address[],uint256),(address[],string[],uint256[])))":"d7989025","isOrIsBelowTiedRank(uint256)":"9174778c","jkLabsSplitDestination()":"102613d8","maxProposalCount()":"fb9bf8d4","metadataFieldsSchema()":"60ed97a9","multiple()":"437a8ae6","name()":"06fdde03","numAllowedProposalSubmissions()":"832009af","numSubmissions(address)":"75e509c5","officialRewardsModule()":"785ddfe5","payPerVote()":"03f7eed6","percentageToCreator()":"edcd1be4","priceCurveType()":"4a2c96ec","prompt()":"7c65d711","proposalAddressVotes(uint256,address)":"6e4eb810","proposalAddressesHaveVoted(uint256)":"b323580d","proposalAuthors(uint256)":"0aa25e44","proposalComments(uint256,uint256)":"f61736f4","proposalIds(uint256)":"9b644a23","proposalIsDeleted(uint256)":"f79c0172","proposalVoteStructs(uint256)":"15dee7cd","proposalVotes(uint256)":"544ffc9c","proposals(uint256)":"013cf08b","propose((address,bool,string,(address),(address[],uint256),(address[],string[],uint256[])),bytes32[])":"f823f110","proposeWithoutProof((address,bool,string,(address),(address[],uint256),(address[],string[],uint256[])))":"ab5e6947","rankLimit()":"0414126a","setCreatorSplitDestination(address)":"146230f6","setJkLabsSplitDestination(address)":"9b338aa0","setName(string)":"c47f0027","setOfficialRewardsModule(address)":"f4f3d7ec","setPrompt(string)":"b4ac024f","setSubmissionMerkleRoot(bytes32)":"daf762db","setVotingMerkleRoot(bytes32)":"544c7bb4","sortedRanks(uint256)":"325cc6d9","sortingEnabled()":"366ecf5b","state()":"c19d93fb","submissionMerkleRoot()":"bddc1641","totalVotesCast()":"7de418d5","validateProposalData((address,bool,string,(address),(address[],uint256),(address[],string[],uint256[])))":"d140d9f0","verifyProposer(address,bytes32[])":"20b3e845","verifyVoter(address,uint256,bytes32[])":"531bd812","version()":"54fd4d50","voteStart()":"e031535b","votesToProposalIds(uint256,uint256)":"6d030621","votingDelay()":"3932abb1","votingMerkleRoot()":"dd96a19d","votingPeriod()":"02a251a3"},"id":53}