{
  "_format": "hh-sol-artifact-1",
  "contractName": "Contest",
  "sourceName": "contracts/Contest.sol",
  "abi": [
    {
      "inputs": [
        {
          "internalType": "string",
          "name": "_name",
          "type": "string"
        },
        {
          "internalType": "contract IVotes",
          "name": "_token",
          "type": "address"
        },
        {
          "internalType": "uint256",
          "name": "_initialVotingDelay",
          "type": "uint256"
        },
        {
          "internalType": "uint256",
          "name": "_initialVotingPeriod",
          "type": "uint256"
        },
        {
          "internalType": "uint256",
          "name": "_initialProposalThreshold",
          "type": "uint256"
        },
        {
          "internalType": "uint64",
          "name": "_voteStartBlock",
          "type": "uint64"
        },
        {
          "internalType": "uint256",
          "name": "_initialMaxProposalCount",
          "type": "uint256"
        }
      ],
      "stateMutability": "nonpayable",
      "type": "constructor"
    },
    {
      "anonymous": false,
      "inputs": [],
      "name": "ContestCanceled",
      "type": "event"
    },
    {
      "anonymous": false,
      "inputs": [
        {
          "indexed": false,
          "internalType": "uint256",
          "name": "oldMaxProposalCount",
          "type": "uint256"
        },
        {
          "indexed": false,
          "internalType": "uint256",
          "name": "newMaxProposalCount",
          "type": "uint256"
        }
      ],
      "name": "MaxProposalCountSet",
      "type": "event"
    },
    {
      "anonymous": false,
      "inputs": [
        {
          "indexed": false,
          "internalType": "address",
          "name": "oldOwner",
          "type": "address"
        },
        {
          "indexed": false,
          "internalType": "address",
          "name": "newOwner",
          "type": "address"
        }
      ],
      "name": "OwnerSet",
      "type": "event"
    },
    {
      "anonymous": false,
      "inputs": [
        {
          "indexed": false,
          "internalType": "uint256",
          "name": "proposalId",
          "type": "uint256"
        },
        {
          "indexed": false,
          "internalType": "string",
          "name": "description",
          "type": "string"
        },
        {
          "indexed": false,
          "internalType": "address",
          "name": "proposer",
          "type": "address"
        }
      ],
      "name": "ProposalCreated",
      "type": "event"
    },
    {
      "anonymous": false,
      "inputs": [
        {
          "indexed": false,
          "internalType": "uint256",
          "name": "oldProposalThreshold",
          "type": "uint256"
        },
        {
          "indexed": false,
          "internalType": "uint256",
          "name": "newProposalThreshold",
          "type": "uint256"
        }
      ],
      "name": "ProposalThresholdSet",
      "type": "event"
    },
    {
      "anonymous": false,
      "inputs": [
        {
          "indexed": true,
          "internalType": "address",
          "name": "voter",
          "type": "address"
        },
        {
          "indexed": false,
          "internalType": "uint256",
          "name": "proposalId",
          "type": "uint256"
        },
        {
          "indexed": false,
          "internalType": "uint8",
          "name": "support",
          "type": "uint8"
        },
        {
          "indexed": false,
          "internalType": "uint256",
          "name": "numVotes",
          "type": "uint256"
        },
        {
          "indexed": false,
          "internalType": "string",
          "name": "reason",
          "type": "string"
        }
      ],
      "name": "VoteCast",
      "type": "event"
    },
    {
      "anonymous": false,
      "inputs": [
        {
          "indexed": false,
          "internalType": "uint256",
          "name": "oldVoteStartBlock",
          "type": "uint256"
        },
        {
          "indexed": false,
          "internalType": "uint64",
          "name": "newVoteStartBlock",
          "type": "uint64"
        }
      ],
      "name": "VoteStartBlockSet",
      "type": "event"
    },
    {
      "anonymous": false,
      "inputs": [
        {
          "indexed": false,
          "internalType": "uint256",
          "name": "oldVotingDelay",
          "type": "uint256"
        },
        {
          "indexed": false,
          "internalType": "uint256",
          "name": "newVotingDelay",
          "type": "uint256"
        }
      ],
      "name": "VotingDelaySet",
      "type": "event"
    },
    {
      "anonymous": false,
      "inputs": [
        {
          "indexed": false,
          "internalType": "uint256",
          "name": "oldVotingPeriod",
          "type": "uint256"
        },
        {
          "indexed": false,
          "internalType": "uint256",
          "name": "newVotingPeriod",
          "type": "uint256"
        }
      ],
      "name": "VotingPeriodSet",
      "type": "event"
    },
    {
      "inputs": [],
      "name": "BALLOT_TYPEHASH",
      "outputs": [
        {
          "internalType": "bytes32",
          "name": "",
          "type": "bytes32"
        }
      ],
      "stateMutability": "view",
      "type": "function"
    },
    {
      "inputs": [],
      "name": "COUNTING_MODE",
      "outputs": [
        {
          "internalType": "string",
          "name": "",
          "type": "string"
        }
      ],
      "stateMutability": "pure",
      "type": "function"
    },
    {
      "inputs": [
        {
          "internalType": "uint256",
          "name": "",
          "type": "uint256"
        }
      ],
      "name": "_proposalIds",
      "outputs": [
        {
          "internalType": "uint256",
          "name": "",
          "type": "uint256"
        }
      ],
      "stateMutability": "view",
      "type": "function"
    },
    {
      "inputs": [],
      "name": "cancel",
      "outputs": [],
      "stateMutability": "nonpayable",
      "type": "function"
    },
    {
      "inputs": [
        {
          "internalType": "uint256",
          "name": "proposalId",
          "type": "uint256"
        },
        {
          "internalType": "uint8",
          "name": "support",
          "type": "uint8"
        },
        {
          "internalType": "uint256",
          "name": "numVotes",
          "type": "uint256"
        }
      ],
      "name": "castVote",
      "outputs": [
        {
          "internalType": "uint256",
          "name": "",
          "type": "uint256"
        }
      ],
      "stateMutability": "nonpayable",
      "type": "function"
    },
    {
      "inputs": [
        {
          "internalType": "uint256",
          "name": "proposalId",
          "type": "uint256"
        },
        {
          "internalType": "uint8",
          "name": "support",
          "type": "uint8"
        },
        {
          "internalType": "uint256",
          "name": "numVotes",
          "type": "uint256"
        },
        {
          "internalType": "uint8",
          "name": "v",
          "type": "uint8"
        },
        {
          "internalType": "bytes32",
          "name": "r",
          "type": "bytes32"
        },
        {
          "internalType": "bytes32",
          "name": "s",
          "type": "bytes32"
        }
      ],
      "name": "castVoteBySig",
      "outputs": [
        {
          "internalType": "uint256",
          "name": "",
          "type": "uint256"
        }
      ],
      "stateMutability": "nonpayable",
      "type": "function"
    },
    {
      "inputs": [
        {
          "internalType": "uint256",
          "name": "proposalId",
          "type": "uint256"
        },
        {
          "internalType": "uint8",
          "name": "support",
          "type": "uint8"
        },
        {
          "internalType": "uint256",
          "name": "numVotes",
          "type": "uint256"
        },
        {
          "internalType": "string",
          "name": "reason",
          "type": "string"
        }
      ],
      "name": "castVoteWithReason",
      "outputs": [
        {
          "internalType": "uint256",
          "name": "",
          "type": "uint256"
        }
      ],
      "stateMutability": "nonpayable",
      "type": "function"
    },
    {
      "inputs": [
        {
          "internalType": "address",
          "name": "userAddress",
          "type": "address"
        }
      ],
      "name": "contestAddressVotes",
      "outputs": [
        {
          "internalType": "uint256",
          "name": "totalVotesCast",
          "type": "uint256"
        }
      ],
      "stateMutability": "view",
      "type": "function"
    },
    {
      "inputs": [],
      "name": "contestDeadline",
      "outputs": [
        {
          "internalType": "uint256",
          "name": "",
          "type": "uint256"
        }
      ],
      "stateMutability": "view",
      "type": "function"
    },
    {
      "inputs": [],
      "name": "contestSnapshot",
      "outputs": [
        {
          "internalType": "uint256",
          "name": "",
          "type": "uint256"
        }
      ],
      "stateMutability": "view",
      "type": "function"
    },
    {
      "inputs": [],
      "name": "contestStart",
      "outputs": [
        {
          "internalType": "uint256",
          "name": "",
          "type": "uint256"
        }
      ],
      "stateMutability": "view",
      "type": "function"
    },
    {
      "inputs": [],
      "name": "getAllProposalIds",
      "outputs": [
        {
          "internalType": "uint256[]",
          "name": "",
          "type": "uint256[]"
        }
      ],
      "stateMutability": "view",
      "type": "function"
    },
    {
      "inputs": [],
      "name": "getBlock",
      "outputs": [
        {
          "internalType": "uint256",
          "name": "",
          "type": "uint256"
        }
      ],
      "stateMutability": "view",
      "type": "function"
    },
    {
      "inputs": [
        {
          "internalType": "uint256",
          "name": "proposalId",
          "type": "uint256"
        }
      ],
      "name": "getProposal",
      "outputs": [
        {
          "components": [
            {
              "internalType": "address",
              "name": "author",
              "type": "address"
            },
            {
              "internalType": "string",
              "name": "description",
              "type": "string"
            },
            {
              "internalType": "bool",
              "name": "exists",
              "type": "bool"
            }
          ],
          "internalType": "struct Governor.ProposalCore",
          "name": "",
          "type": "tuple"
        }
      ],
      "stateMutability": "view",
      "type": "function"
    },
    {
      "inputs": [
        {
          "internalType": "address",
          "name": "account",
          "type": "address"
        },
        {
          "internalType": "uint256",
          "name": "blockNumber",
          "type": "uint256"
        }
      ],
      "name": "getVotes",
      "outputs": [
        {
          "internalType": "uint256",
          "name": "",
          "type": "uint256"
        }
      ],
      "stateMutability": "view",
      "type": "function"
    },
    {
      "inputs": [
        {
          "internalType": "string",
          "name": "proposalDescription",
          "type": "string"
        }
      ],
      "name": "hashProposal",
      "outputs": [
        {
          "internalType": "uint256",
          "name": "",
          "type": "uint256"
        }
      ],
      "stateMutability": "pure",
      "type": "function"
    },
    {
      "inputs": [],
      "name": "maxProposalCount",
      "outputs": [
        {
          "internalType": "uint256",
          "name": "",
          "type": "uint256"
        }
      ],
      "stateMutability": "view",
      "type": "function"
    },
    {
      "inputs": [],
      "name": "name",
      "outputs": [
        {
          "internalType": "string",
          "name": "",
          "type": "string"
        }
      ],
      "stateMutability": "view",
      "type": "function"
    },
    {
      "inputs": [],
      "name": "owner",
      "outputs": [
        {
          "internalType": "address",
          "name": "",
          "type": "address"
        }
      ],
      "stateMutability": "view",
      "type": "function"
    },
    {
      "inputs": [
        {
          "internalType": "uint256",
          "name": "proposalId",
          "type": "uint256"
        },
        {
          "internalType": "address",
          "name": "userAddress",
          "type": "address"
        }
      ],
      "name": "proposalAddressVotes",
      "outputs": [
        {
          "internalType": "uint256",
          "name": "forVotes",
          "type": "uint256"
        }
      ],
      "stateMutability": "view",
      "type": "function"
    },
    {
      "inputs": [
        {
          "internalType": "uint256",
          "name": "proposalId",
          "type": "uint256"
        }
      ],
      "name": "proposalAddressesHaveVoted",
      "outputs": [
        {
          "internalType": "address[]",
          "name": "",
          "type": "address[]"
        }
      ],
      "stateMutability": "view",
      "type": "function"
    },
    {
      "inputs": [],
      "name": "proposalThreshold",
      "outputs": [
        {
          "internalType": "uint256",
          "name": "",
          "type": "uint256"
        }
      ],
      "stateMutability": "view",
      "type": "function"
    },
    {
      "inputs": [
        {
          "internalType": "uint256",
          "name": "proposalId",
          "type": "uint256"
        }
      ],
      "name": "proposalVotes",
      "outputs": [
        {
          "internalType": "uint256",
          "name": "forVotes",
          "type": "uint256"
        }
      ],
      "stateMutability": "view",
      "type": "function"
    },
    {
      "inputs": [
        {
          "internalType": "string",
          "name": "proposalDescription",
          "type": "string"
        }
      ],
      "name": "propose",
      "outputs": [
        {
          "internalType": "uint256",
          "name": "",
          "type": "uint256"
        }
      ],
      "stateMutability": "nonpayable",
      "type": "function"
    },
    {
      "inputs": [],
      "name": "state",
      "outputs": [
        {
          "internalType": "enum IGovernor.ContestState",
          "name": "",
          "type": "uint8"
        }
      ],
      "stateMutability": "view",
      "type": "function"
    },
    {
      "inputs": [
        {
          "internalType": "bytes4",
          "name": "interfaceId",
          "type": "bytes4"
        }
      ],
      "name": "supportsInterface",
      "outputs": [
        {
          "internalType": "bool",
          "name": "",
          "type": "bool"
        }
      ],
      "stateMutability": "view",
      "type": "function"
    },
    {
      "inputs": [],
      "name": "token",
      "outputs": [
        {
          "internalType": "contract IVotes",
          "name": "",
          "type": "address"
        }
      ],
      "stateMutability": "view",
      "type": "function"
    },
    {
      "inputs": [],
      "name": "version",
      "outputs": [
        {
          "internalType": "string",
          "name": "",
          "type": "string"
        }
      ],
      "stateMutability": "view",
      "type": "function"
    },
    {
      "inputs": [],
      "name": "votingDelay",
      "outputs": [
        {
          "internalType": "uint256",
          "name": "",
          "type": "uint256"
        }
      ],
      "stateMutability": "view",
      "type": "function"
    },
    {
      "inputs": [],
      "name": "votingPeriod",
      "outputs": [
        {
          "internalType": "uint256",
          "name": "",
          "type": "uint256"
        }
      ],
      "stateMutability": "view",
      "type": "function"
    },
    {
      "stateMutability": "payable",
      "type": "receive"
    }
  ],
  "bytecode": "0x6101606040523480156200001257600080fd5b5060405162002562380380620025628339810160408190526200003591620004cd565b8585858585858c806200005c6040805180820190915260018152603160f81b602082015290565b815160208084019190912082518383012060e08290526101008190524660a0818152604080517f8b73c3c69bb8fe3d512ecc4cf759cc79239f7b179b0ffacaa9a75d522b39400f81880181905281830187905260608201869052608082019490945230818401528151808203909301835260c00190528051940193909320919290916080523060601b60c0526101205250508251620001059250600191506020840190620003f2565b50620001139050856200016e565b6200011e84620001af565b620001298362000255565b620001348262000296565b6200013f8162000327565b6200014a3362000368565b505050505060601b6001600160601b03191661014052506200064495505050505050565b60055460408051918252602082018390527fc565b045403dc03c2eea82b81a0465edad9e2e7fc4d97e11421c209da93d7a93910160405180910390a1600555565b60008111620002145760405162461bcd60e51b815260206004820152602760248201527f476f7665726e6f7253657474696e67733a20766f74696e6720706572696f6420604482015266746f6f206c6f7760c81b606482015260840160405180910390fd5b60065460408051918252602082018390527f7e3f7f0708a84de9203036abaa450dccc85ad5ff52f78c170f3edb55cf5e8828910160405180910390a1600655565b60075460408051918252602082018390527fccb45da8d5717e6c4544694297c4ba5cf151d455c9bb0ed4fc7a38411bc05461910160405180910390a1600755565b6040805160208082019092526009546001600160401b031681527f052000359245365cbcb4396b9ebabd953288d90a4a40ed36ba3f9b0a737223fe91620002e7919062000fa8620003d1821b17901c565b604080516001600160401b03928316815291841660208301520160405180910390a162000324816009620003d560201b62000fac1790919060201c565b50565b60085460408051918252602082018390527f4984ec996723330ee95979ed65a2a4b41edd914e68a187efe92596474643bdff910160405180910390a1600855565b600a54604080516001600160a01b03928316815291831660208301527f342827c97908e5e2f71151c08502a66d44b6f758e3ac2f1de95f02eb95f0a735910160405180910390a1600a80546001600160a01b0319166001600160a01b0392909216919091179055565b5190565b81546001600160401b0319166001600160401b0391909116179055565b8280546200040090620005f1565b90600052602060002090601f0160209004810192826200042457600085556200046f565b82601f106200043f57805160ff19168380011785556200046f565b828001600101855582156200046f579182015b828111156200046f57825182559160200191906001019062000452565b506200047d92915062000481565b5090565b5b808211156200047d576000815560010162000482565b80516001600160a01b0381168114620004b057600080fd5b919050565b80516001600160401b0381168114620004b057600080fd5b600080600080600080600060e0888a031215620004e8578283fd5b87516001600160401b0380821115620004ff578485fd5b818a0191508a601f83011262000513578485fd5b8151818111156200052857620005286200062e565b604051601f8201601f19908116603f011681019083821181831017156200055357620005536200062e565b81604052828152602093508d848487010111156200056f578788fd5b8791505b8282101562000592578482018401518183018501529083019062000573565b82821115620005a357878484830101525b9a50620005b59150508a820162000498565b97505050604088015194506060880151935060808801519250620005dc60a08901620004b5565b915060c0880151905092959891949750929550565b600181811c908216806200060657607f821691505b602082108114156200062857634e487b7160e01b600052602260045260246000fd5b50919050565b634e487b7160e01b600052604160045260246000fd5b60805160a05160c05160601c60e05161010051610120516101405160601c611eb6620006ac600039600081816105f7015261127901526000611558015260006115a701526000611582015260006114db015260006115050152600061152f0152611eb66000f3fe6080604052600436106101d05760003560e01c8063aa98df39116100f7578063d17ad2d411610095578063eb9019d411610064578063eb9019d41461058e578063efa90d36146105ae578063fb9bf8d4146105d0578063fc0c546a146105e557600080fd5b8063d17ad2d4146104f1578063dd4e2ba514610511578063deaaa7cc14610545578063ea8a1af01461057957600080fd5b8063bd65e80a116100d1578063bd65e80a1461044c578063c19d93fb1461046c578063c7f758a81461048e578063c94702a7146104bb57600080fd5b8063aa98df39146103ea578063b323580d1461040a578063b58131b01461043757600080fd5b80633932abb11161016f5780636e4eb8101161013e5780636e4eb8101461033657806370a4a55c1461037d5780638da5cb5b1461039d5780639c028176146103ca57600080fd5b80633932abb1146102b5578063540a9190146102ca578063544ffc9c146102df57806354fd4d501461030c57600080fd5b806306fdde03116101ab57806306fdde031461024b5780631566f60d1461026d578063262e59e91461028d5780632e97766d146102a257600080fd5b80624114a8146101de57806301ffc9a71461020657806302a251a31461023657600080fd5b366101d957005b005b600080fd5b3480156101ea57600080fd5b506101f3610619565b6040519081526020015b60405180910390f35b34801561021257600080fd5b506102266102213660046119ef565b610642565b60405190151581526020016101fd565b34801561024257600080fd5b506101f3610679565b34801561025757600080fd5b50610260610684565b6040516101fd9190611d2e565b34801561027957600080fd5b506101f3610288366004611b50565b610716565b34801561029957600080fd5b506101f361076a565b3480156102ae57600080fd5b50436101f3565b3480156102c157600080fd5b506101f3610786565b3480156102d657600080fd5b506101f3610791565b3480156102eb57600080fd5b506101f36102fa366004611ac1565b6000908152600c602052604090205490565b34801561031857600080fd5b506040805180820190915260018152603160f81b6020820152610260565b34801561034257600080fd5b506101f3610351366004611af1565b6000828152600c602090815260408083206001600160a01b038516845260020190915290205492915050565b34801561038957600080fd5b506101f3610398366004611ac1565b6107a3565b3480156103a957600080fd5b506103b26107c4565b6040516001600160a01b0390911681526020016101fd565b3480156103d657600080fd5b506101f36103e5366004611b1c565b6107d8565b3480156103f657600080fd5b506101f3610405366004611a17565b610803565b34801561041657600080fd5b5061042a610425366004611ac1565b610b91565b6040516101fd9190611c81565b34801561044357600080fd5b506101f3610c03565b34801561045857600080fd5b506101f3610467366004611a17565b610c0e565b34801561047857600080fd5b50610481610c3f565b6040516101fd9190611d06565b34801561049a57600080fd5b506104ae6104a9366004611ac1565b610c93565b6040516101fd9190611d41565b3480156104c757600080fd5b506101f36104d63660046119ac565b6001600160a01b03166000908152600b602052604090205490565b3480156104fd57600080fd5b506101f361050c366004611bdf565b610d97565b34801561051d57600080fd5b5060408051808201909152600b81526a39bab83837b93a1eb337b960a91b6020820152610260565b34801561055157600080fd5b506101f37f150214d74d59b7d1e90c73fc22ef3d991dd0a76b046543d4d80ab92d2a50328f81565b34801561058557600080fd5b506101d7610e2d565b34801561059a57600080fd5b506101f36105a93660046119c6565b610f33565b3480156105ba57600080fd5b506105c3610f46565b6040516101fd9190611cce565b3480156105dc57600080fd5b506101f3610f9d565b3480156105f157600080fd5b506103b27f000000000000000000000000000000000000000000000000000000000000000081565b600061063d604080516020810190915260095467ffffffffffffffff169081905290565b905090565b60006001600160e01b03198216632ef04ddd60e01b148061067357506301ffc9a760e01b6001600160e01b03198316145b92915050565b600061063d60065490565b60606001805461069390611e19565b80601f01602080910402602001604051908101604052809291908181526020018280546106bf90611e19565b801561070c5780601f106106e15761010080835404028352916020019161070c565b820191906000526020600020905b8154815290600101906020018083116106ef57829003601f168201915b5050505050905090565b60008033905061075f8782888888888080601f016020809104026020016040519081016040528093929190818152602001838380828437600092019190915250610fcb92505050565b979650505050505050565b6000610774610679565b61077c610791565b61063d9190611dea565b600061063d60055490565b600061079b610786565b61077c610619565b600081815481106107b357600080fd5b600091825260209091200154905081565b600061063d600a546001600160a01b031690565b6000803390506107fa8582868660405180602001604052806000815250610fcb565b95945050505050565b6000600261080f610c3f565b600381111561082e57634e487b7160e01b600052602160045260246000fd5b146108a65760405162461bcd60e51b815260206004820152603e60248201527f476f7665726e6f723a20636f6e74657374206d7573742062652071756575656460448201527f20666f722070726f706f73616c7320746f206265207375626d6974746564000060648201526084015b60405180910390fd5b6108ae610f9d565b600054106109245760405162461bcd60e51b815260206004820152603960248201527f476f7665726e6f723a20746865206d6178206e756d626572206f662070726f7060448201527f6f73616c732068617665206265656e207375626d697474656400000000000000606482015260840161089d565b61092c610c03565b61093b336105a9600143611e02565b10156109bb5760405162461bcd60e51b815260206004820152604360248201527f476f7665726e6f72436f6d7061746962696c697479427261766f3a2070726f7060448201527f6f73657220766f7465732062656c6f772070726f706f73616c207468726573686064820152621bdb1960ea1b608482015260a40161089d565b8151610a095760405162461bcd60e51b815260206004820152601860248201527f476f7665726e6f723a20656d7074792070726f706f73616c0000000000000000604482015260640161089d565b6000610a1483610c0e565b60008181526003602052604090206002015490915060ff1615610a8b5760405162461bcd60e51b815260206004820152602960248201527f476f7665726e6f723a206475706c69636174652070726f706f73616c73206e6f6044820152681d08185b1b1bddd95960ba1b606482015260840161089d565b60008054600180820183557f290decd9548b62a8d60345a988386fc84ba6bc95484008f6362f93160ef3e5639091018390556040805160608101825233815260208082018881528284018590528686526003825292909420815181546001600160a01b0319166001600160a01b039091161781559151805191949293610b1793908501929101906118e6565b506040918201516002909101805491151560ff19928316179055336000908152600460205291909120805490911660011790557fc8c078bfee58e5822588f08b4509ed1eb5058e03f666cca84dd2d44bf5c288a88184610b743390565b604051610b8393929190611d87565b60405180910390a192915050565b6000818152600c60209081526040918290206001810180548451818502810185019095528085526060949293830182828015610bf657602002820191906000526020600020905b81546001600160a01b03168152600190910190602001808311610bd8575b5050505050915050919050565b600061063d60075490565b600081604051602001610c219190611d2e565b60408051601f19818403018152919052805160209091012092915050565b60025460009060ff1615610c535750600190565b6000610c5d610791565b9050438110610c6e57600291505090565b6000610c7861076a565b9050438110610c8a5760009250505090565b60039250505090565b610cc2604051806060016040528060006001600160a01b03168152602001606081526020016000151581525090565b60008281526003602090815260409182902082516060810190935280546001600160a01b031683526001810180549192840191610cfe90611e19565b80601f0160208091040260200160405190810160405280929190818152602001828054610d2a90611e19565b8015610d775780601f10610d4c57610100808354040283529160200191610d77565b820191906000526020600020905b815481529060010190602001808311610d5a57829003601f168201915b50505091835250506002919091015460ff16151560209091015292915050565b604080517f150214d74d59b7d1e90c73fc22ef3d991dd0a76b046543d4d80ab92d2a50328f602082015290810187905260ff861660608201526000908190610e0390610dfb90608001604051602081830303815290604052805190602001206111da565b868686611228565b9050610e218882898960405180602001604052806000815250610fcb565b98975050505050505050565b610e356107c4565b6001600160a01b0316336001600160a01b031614610e5257600080fd5b6000610e5c610c3f565b90506001816003811115610e8057634e487b7160e01b600052602160045260246000fd5b14158015610eae57506003816003811115610eab57634e487b7160e01b600052602160045260246000fd5b14155b610efa5760405162461bcd60e51b815260206004820152601c60248201527f476f7665726e6f723a20636f6e74657374206e6f742061637469766500000000604482015260640161089d565b6002805460ff191660011790556040517f4cd963a081760a54f571abc0f1db4dde31b4a07d8d6da3e844b8c6f47eeaaa4290600090a150565b6000610f3f8383611250565b9392505050565b6060600080548060200260200160405190810160405280929190818152602001828054801561070c57602002820191906000526020600020905b815481526020019060010190808311610f80575050505050905090565b600061063d60085490565b5190565b815467ffffffffffffffff191667ffffffffffffffff91909116179055565b600080610fd6610c3f565b6003811115610ff557634e487b7160e01b600052602160045260246000fd5b1461104e5760405162461bcd60e51b815260206004820152602360248201527f476f7665726e6f723a20766f7465206e6f742063757272656e746c792061637460448201526269766560e81b606482015260840161089d565b600083116110c45760405162461bcd60e51b815260206004820152603760248201527f476f7665726e6f72566f74696e6753696d706c653a2063616e6e6f7420766f7460448201527f6520776974682030206f7220666577657220766f746573000000000000000000606482015260840161089d565b60006110d2866105a9610791565b90506000811161117c5760405162461bcd60e51b815260206004820152606360248201527f476f7665726e6f72566f74696e6753696d706c653a20796f75206d757374206860448201527f6176652067726561746572207468616e20302064656c65676174656420766f7460648201527f65732061742074686520736e617073686f7420696e206f7264657220746f20766084820152626f746560e81b60a482015260c40161089d565b61118987878787856112f5565b856001600160a01b03167fb8e138887d0aa13bab447e82de9d5c1777041ecd21ca36ba824ff1e6c07ddda4888787876040516111c89493929190611db8565b60405180910390a29695505050505050565b60006106736111e76114ce565b8360405161190160f01b6020820152602281018390526042810182905260009060620160405160208183030381529060405280519060200120905092915050565b6000806000611239878787876115f5565b91509150611246816116e2565b5095945050505050565b604051630748d63560e31b81526001600160a01b038381166004830152602482018390526000917f000000000000000000000000000000000000000000000000000000000000000090911690633a46b1a89060440160206040518083038186803b1580156112bd57600080fd5b505afa1580156112d1573d6000803e3d6000fd5b505050506040513d601f19601f82011682018060405250810190610f3f9190611ad9565b6000858152600c602090815260408083206001600160a01b0388168452600b909252909120546113259083611e02565b8311156113905760405162461bcd60e51b815260206004820152603360248201527f476f7665726e6f72566f74696e6753696d706c653a206e6f7420656e6f756768604482015272081d9bdd195cc81b19599d081d1bc818d85cdd606a1b606482015260840161089d565b60ff84166113e6578054839082906000906113ac908490611dea565b90915550506001600160a01b0385166000908152600282016020526040812080548592906113db908490611dea565b9091555061144c9050565b60405162461bcd60e51b815260206004820152603560248201527f476f7665726e6f72566f74696e6753696d706c653a20696e76616c69642076616044820152746c756520666f7220656e756d20566f74655479706560581b606482015260840161089d565b6001600160a01b0385166000908152600b6020526040902054611499576001818101805491820181556000908152602090200180546001600160a01b0319166001600160a01b0387161790555b6001600160a01b0385166000908152600b6020526040812080548592906114c1908490611dea565b9091555050505050505050565b6000306001600160a01b037f00000000000000000000000000000000000000000000000000000000000000001614801561152757507f000000000000000000000000000000000000000000000000000000000000000046145b1561155157507f000000000000000000000000000000000000000000000000000000000000000090565b50604080517f00000000000000000000000000000000000000000000000000000000000000006020808301919091527f0000000000000000000000000000000000000000000000000000000000000000828401527f000000000000000000000000000000000000000000000000000000000000000060608301524660808301523060a0808401919091528351808403909101815260c0909201909252805191012090565b6000807f7fffffffffffffffffffffffffffffff5d576e7357a4501ddfe92f46681b20a083111561162c57506000905060036116d9565b8460ff16601b1415801561164457508460ff16601c14155b1561165557506000905060046116d9565b6040805160008082526020820180845289905260ff881692820192909252606081018690526080810185905260019060a0016020604051602081039080840390855afa1580156116a9573d6000803e3d6000fd5b5050604051601f1901519150506001600160a01b0381166116d2576000600192509250506116d9565b9150600090505b94509492505050565b600081600481111561170457634e487b7160e01b600052602160045260246000fd5b141561170d5750565b600181600481111561172f57634e487b7160e01b600052602160045260246000fd5b141561177d5760405162461bcd60e51b815260206004820152601860248201527f45434453413a20696e76616c6964207369676e61747572650000000000000000604482015260640161089d565b600281600481111561179f57634e487b7160e01b600052602160045260246000fd5b14156117ed5760405162461bcd60e51b815260206004820152601f60248201527f45434453413a20696e76616c6964207369676e6174757265206c656e67746800604482015260640161089d565b600381600481111561180f57634e487b7160e01b600052602160045260246000fd5b14156118685760405162461bcd60e51b815260206004820152602260248201527f45434453413a20696e76616c6964207369676e6174757265202773272076616c604482015261756560f01b606482015260840161089d565b600481600481111561188a57634e487b7160e01b600052602160045260246000fd5b14156118e35760405162461bcd60e51b815260206004820152602260248201527f45434453413a20696e76616c6964207369676e6174757265202776272076616c604482015261756560f01b606482015260840161089d565b50565b8280546118f290611e19565b90600052602060002090601f016020900481019282611914576000855561195a565b82601f1061192d57805160ff191683800117855561195a565b8280016001018555821561195a579182015b8281111561195a57825182559160200191906001019061193f565b5061196692915061196a565b5090565b5b80821115611966576000815560010161196b565b80356001600160a01b038116811461199657600080fd5b919050565b803560ff8116811461199657600080fd5b6000602082840312156119bd578081fd5b610f3f8261197f565b600080604083850312156119d8578081fd5b6119e18361197f565b946020939093013593505050565b600060208284031215611a00578081fd5b81356001600160e01b031981168114610f3f578182fd5b600060208284031215611a28578081fd5b813567ffffffffffffffff80821115611a3f578283fd5b818401915084601f830112611a52578283fd5b813581811115611a6457611a64611e6a565b604051601f8201601f19908116603f01168101908382118183101715611a8c57611a8c611e6a565b81604052828152876020848701011115611aa4578586fd5b826020860160208301379182016020019490945295945050505050565b600060208284031215611ad2578081fd5b5035919050565b600060208284031215611aea578081fd5b5051919050565b60008060408385031215611b03578182fd5b82359150611b136020840161197f565b90509250929050565b600080600060608486031215611b30578081fd5b83359250611b406020850161199b565b9150604084013590509250925092565b600080600080600060808688031215611b67578081fd5b85359450611b776020870161199b565b935060408601359250606086013567ffffffffffffffff80821115611b9a578283fd5b818801915088601f830112611bad578283fd5b813581811115611bbb578384fd5b896020828501011115611bcc578384fd5b9699959850939650602001949392505050565b60008060008060008060c08789031215611bf7578081fd5b86359550611c076020880161199b565b945060408701359350611c1c6060880161199b565b92506080870135915060a087013590509295509295509295565b60008151808452815b81811015611c5b57602081850181015186830182015201611c3f565b81811115611c6c5782602083870101525b50601f01601f19169290920160200192915050565b6020808252825182820181905260009190848201906040850190845b81811015611cc25783516001600160a01b031683529284019291840191600101611c9d565b50909695505050505050565b6020808252825182820181905260009190848201906040850190845b81811015611cc257835183529284019291840191600101611cea565b6020810160048310611d2857634e487b7160e01b600052602160045260246000fd5b91905290565b602081526000610f3f6020830184611c36565b602080825282516001600160a01b03168282015282015160606040830152600090611d6f6080840182611c36565b90506040840151151560608401528091505092915050565b838152606060208201526000611da06060830185611c36565b905060018060a01b0383166040830152949350505050565b84815260ff84166020820152826040820152608060608201526000611de06080830184611c36565b9695505050505050565b60008219821115611dfd57611dfd611e54565b500190565b600082821015611e1457611e14611e54565b500390565b600181811c90821680611e2d57607f821691505b60208210811415611e4e57634e487b7160e01b600052602260045260246000fd5b50919050565b634e487b7160e01b600052601160045260246000fd5b634e487b7160e01b600052604160045260246000fdfea2646970667358221220aae43dc51ec5d8eb5c0d67fc242531faec17eb370c5f254055a2f57b249a266c64736f6c63430008040033",
  "linkReferences": {},
  "deployedLinkReferences": {}
}