{
  "_format": "hh-sol-artifact-1",
  "contractName": "Contest",
  "sourceName": "contracts/Contest.sol",
  "abi": [
    {
      "inputs": [
        {
          "internalType": "string",
          "name": "_name",
          "type": "string"
        },
        {
          "internalType": "contract IVotes",
          "name": "_token",
          "type": "address"
        },
        {
          "internalType": "uint256",
          "name": "_initialVotingDelay",
          "type": "uint256"
        },
        {
          "internalType": "uint256",
          "name": "_initialVotingPeriod",
          "type": "uint256"
        },
        {
          "internalType": "uint256",
          "name": "_initialProposalThreshold",
          "type": "uint256"
        },
        {
          "internalType": "uint64",
          "name": "_voteStartBlock",
          "type": "uint64"
        },
        {
          "internalType": "uint256",
          "name": "_initialMaxProposalCount",
          "type": "uint256"
        }
      ],
      "stateMutability": "nonpayable",
      "type": "constructor"
    },
    {
      "anonymous": false,
      "inputs": [],
      "name": "ContestCanceled",
      "type": "event"
    },
    {
      "anonymous": false,
      "inputs": [
        {
          "indexed": false,
          "internalType": "uint256",
          "name": "oldMaxProposalCount",
          "type": "uint256"
        },
        {
          "indexed": false,
          "internalType": "uint256",
          "name": "newMaxProposalCount",
          "type": "uint256"
        }
      ],
      "name": "MaxProposalCountSet",
      "type": "event"
    },
    {
      "anonymous": false,
      "inputs": [
        {
          "indexed": false,
          "internalType": "address",
          "name": "oldOwner",
          "type": "address"
        },
        {
          "indexed": false,
          "internalType": "address",
          "name": "newOwner",
          "type": "address"
        }
      ],
      "name": "OwnerSet",
      "type": "event"
    },
    {
      "anonymous": false,
      "inputs": [
        {
          "indexed": false,
          "internalType": "uint256",
          "name": "proposalId",
          "type": "uint256"
        },
        {
          "indexed": false,
          "internalType": "address",
          "name": "proposer",
          "type": "address"
        },
        {
          "indexed": false,
          "internalType": "string",
          "name": "description",
          "type": "string"
        }
      ],
      "name": "ProposalCreated",
      "type": "event"
    },
    {
      "anonymous": false,
      "inputs": [
        {
          "indexed": false,
          "internalType": "uint256",
          "name": "oldProposalThreshold",
          "type": "uint256"
        },
        {
          "indexed": false,
          "internalType": "uint256",
          "name": "newProposalThreshold",
          "type": "uint256"
        }
      ],
      "name": "ProposalThresholdSet",
      "type": "event"
    },
    {
      "anonymous": false,
      "inputs": [
        {
          "indexed": true,
          "internalType": "address",
          "name": "voter",
          "type": "address"
        },
        {
          "indexed": false,
          "internalType": "uint256",
          "name": "proposalId",
          "type": "uint256"
        },
        {
          "indexed": false,
          "internalType": "uint8",
          "name": "support",
          "type": "uint8"
        },
        {
          "indexed": false,
          "internalType": "uint256",
          "name": "numVotes",
          "type": "uint256"
        },
        {
          "indexed": false,
          "internalType": "string",
          "name": "reason",
          "type": "string"
        }
      ],
      "name": "VoteCast",
      "type": "event"
    },
    {
      "anonymous": false,
      "inputs": [
        {
          "indexed": false,
          "internalType": "uint256",
          "name": "oldVoteStartBlock",
          "type": "uint256"
        },
        {
          "indexed": false,
          "internalType": "uint64",
          "name": "newVoteStartBlock",
          "type": "uint64"
        }
      ],
      "name": "VoteStartBlockSet",
      "type": "event"
    },
    {
      "anonymous": false,
      "inputs": [
        {
          "indexed": false,
          "internalType": "uint256",
          "name": "oldVotingDelay",
          "type": "uint256"
        },
        {
          "indexed": false,
          "internalType": "uint256",
          "name": "newVotingDelay",
          "type": "uint256"
        }
      ],
      "name": "VotingDelaySet",
      "type": "event"
    },
    {
      "anonymous": false,
      "inputs": [
        {
          "indexed": false,
          "internalType": "uint256",
          "name": "oldVotingPeriod",
          "type": "uint256"
        },
        {
          "indexed": false,
          "internalType": "uint256",
          "name": "newVotingPeriod",
          "type": "uint256"
        }
      ],
      "name": "VotingPeriodSet",
      "type": "event"
    },
    {
      "inputs": [],
      "name": "BALLOT_TYPEHASH",
      "outputs": [
        {
          "internalType": "bytes32",
          "name": "",
          "type": "bytes32"
        }
      ],
      "stateMutability": "view",
      "type": "function"
    },
    {
      "inputs": [],
      "name": "COUNTING_MODE",
      "outputs": [
        {
          "internalType": "string",
          "name": "",
          "type": "string"
        }
      ],
      "stateMutability": "pure",
      "type": "function"
    },
    {
      "inputs": [
        {
          "internalType": "uint256",
          "name": "",
          "type": "uint256"
        }
      ],
      "name": "_proposalIds",
      "outputs": [
        {
          "internalType": "uint256",
          "name": "",
          "type": "uint256"
        }
      ],
      "stateMutability": "view",
      "type": "function"
    },
    {
      "inputs": [],
      "name": "cancel",
      "outputs": [],
      "stateMutability": "nonpayable",
      "type": "function"
    },
    {
      "inputs": [
        {
          "internalType": "uint256",
          "name": "proposalId",
          "type": "uint256"
        },
        {
          "internalType": "uint8",
          "name": "support",
          "type": "uint8"
        },
        {
          "internalType": "uint256",
          "name": "numVotes",
          "type": "uint256"
        }
      ],
      "name": "castVote",
      "outputs": [
        {
          "internalType": "uint256",
          "name": "",
          "type": "uint256"
        }
      ],
      "stateMutability": "nonpayable",
      "type": "function"
    },
    {
      "inputs": [
        {
          "internalType": "uint256",
          "name": "proposalId",
          "type": "uint256"
        },
        {
          "internalType": "uint8",
          "name": "support",
          "type": "uint8"
        },
        {
          "internalType": "uint256",
          "name": "numVotes",
          "type": "uint256"
        },
        {
          "internalType": "uint8",
          "name": "v",
          "type": "uint8"
        },
        {
          "internalType": "bytes32",
          "name": "r",
          "type": "bytes32"
        },
        {
          "internalType": "bytes32",
          "name": "s",
          "type": "bytes32"
        }
      ],
      "name": "castVoteBySig",
      "outputs": [
        {
          "internalType": "uint256",
          "name": "",
          "type": "uint256"
        }
      ],
      "stateMutability": "nonpayable",
      "type": "function"
    },
    {
      "inputs": [
        {
          "internalType": "uint256",
          "name": "proposalId",
          "type": "uint256"
        },
        {
          "internalType": "uint8",
          "name": "support",
          "type": "uint8"
        },
        {
          "internalType": "uint256",
          "name": "numVotes",
          "type": "uint256"
        },
        {
          "internalType": "string",
          "name": "reason",
          "type": "string"
        }
      ],
      "name": "castVoteWithReason",
      "outputs": [
        {
          "internalType": "uint256",
          "name": "",
          "type": "uint256"
        }
      ],
      "stateMutability": "nonpayable",
      "type": "function"
    },
    {
      "inputs": [],
      "name": "contestDeadline",
      "outputs": [
        {
          "internalType": "uint256",
          "name": "",
          "type": "uint256"
        }
      ],
      "stateMutability": "view",
      "type": "function"
    },
    {
      "inputs": [],
      "name": "contestSnapshot",
      "outputs": [
        {
          "internalType": "uint256",
          "name": "",
          "type": "uint256"
        }
      ],
      "stateMutability": "view",
      "type": "function"
    },
    {
      "inputs": [],
      "name": "contestStart",
      "outputs": [
        {
          "internalType": "uint256",
          "name": "",
          "type": "uint256"
        }
      ],
      "stateMutability": "view",
      "type": "function"
    },
    {
      "inputs": [],
      "name": "getAllProposalIds",
      "outputs": [
        {
          "internalType": "uint256[]",
          "name": "",
          "type": "uint256[]"
        }
      ],
      "stateMutability": "view",
      "type": "function"
    },
    {
      "inputs": [
        {
          "internalType": "uint256",
          "name": "proposalId",
          "type": "uint256"
        }
      ],
      "name": "getProposal",
      "outputs": [
        {
          "components": [
            {
              "internalType": "address",
              "name": "author",
              "type": "address"
            },
            {
              "internalType": "string",
              "name": "description",
              "type": "string"
            },
            {
              "internalType": "bool",
              "name": "exists",
              "type": "bool"
            }
          ],
          "internalType": "struct Governor.ProposalCore",
          "name": "",
          "type": "tuple"
        }
      ],
      "stateMutability": "view",
      "type": "function"
    },
    {
      "inputs": [
        {
          "internalType": "address",
          "name": "account",
          "type": "address"
        },
        {
          "internalType": "uint256",
          "name": "blockNumber",
          "type": "uint256"
        }
      ],
      "name": "getVotes",
      "outputs": [
        {
          "internalType": "uint256",
          "name": "",
          "type": "uint256"
        }
      ],
      "stateMutability": "view",
      "type": "function"
    },
    {
      "inputs": [
        {
          "internalType": "string",
          "name": "proposalDescription",
          "type": "string"
        }
      ],
      "name": "hashProposal",
      "outputs": [
        {
          "internalType": "uint256",
          "name": "",
          "type": "uint256"
        }
      ],
      "stateMutability": "pure",
      "type": "function"
    },
    {
      "inputs": [],
      "name": "maxProposalCount",
      "outputs": [
        {
          "internalType": "uint256",
          "name": "",
          "type": "uint256"
        }
      ],
      "stateMutability": "view",
      "type": "function"
    },
    {
      "inputs": [],
      "name": "name",
      "outputs": [
        {
          "internalType": "string",
          "name": "",
          "type": "string"
        }
      ],
      "stateMutability": "view",
      "type": "function"
    },
    {
      "inputs": [],
      "name": "owner",
      "outputs": [
        {
          "internalType": "address",
          "name": "",
          "type": "address"
        }
      ],
      "stateMutability": "view",
      "type": "function"
    },
    {
      "inputs": [
        {
          "internalType": "uint256",
          "name": "proposalId",
          "type": "uint256"
        },
        {
          "internalType": "address",
          "name": "userAddress",
          "type": "address"
        }
      ],
      "name": "proposalAddressVotes",
      "outputs": [
        {
          "internalType": "uint256",
          "name": "forVotes",
          "type": "uint256"
        }
      ],
      "stateMutability": "view",
      "type": "function"
    },
    {
      "inputs": [
        {
          "internalType": "uint256",
          "name": "proposalId",
          "type": "uint256"
        }
      ],
      "name": "proposalAddressesHaveVoted",
      "outputs": [
        {
          "internalType": "address[]",
          "name": "",
          "type": "address[]"
        }
      ],
      "stateMutability": "view",
      "type": "function"
    },
    {
      "inputs": [],
      "name": "proposalThreshold",
      "outputs": [
        {
          "internalType": "uint256",
          "name": "",
          "type": "uint256"
        }
      ],
      "stateMutability": "view",
      "type": "function"
    },
    {
      "inputs": [
        {
          "internalType": "uint256",
          "name": "proposalId",
          "type": "uint256"
        }
      ],
      "name": "proposalVotes",
      "outputs": [
        {
          "internalType": "uint256",
          "name": "forVotes",
          "type": "uint256"
        }
      ],
      "stateMutability": "view",
      "type": "function"
    },
    {
      "inputs": [
        {
          "internalType": "string",
          "name": "proposalDescription",
          "type": "string"
        }
      ],
      "name": "propose",
      "outputs": [
        {
          "internalType": "uint256",
          "name": "",
          "type": "uint256"
        }
      ],
      "stateMutability": "nonpayable",
      "type": "function"
    },
    {
      "inputs": [],
      "name": "state",
      "outputs": [
        {
          "internalType": "enum IGovernor.ContestState",
          "name": "",
          "type": "uint8"
        }
      ],
      "stateMutability": "view",
      "type": "function"
    },
    {
      "inputs": [
        {
          "internalType": "bytes4",
          "name": "interfaceId",
          "type": "bytes4"
        }
      ],
      "name": "supportsInterface",
      "outputs": [
        {
          "internalType": "bool",
          "name": "",
          "type": "bool"
        }
      ],
      "stateMutability": "view",
      "type": "function"
    },
    {
      "inputs": [],
      "name": "token",
      "outputs": [
        {
          "internalType": "contract IVotes",
          "name": "",
          "type": "address"
        }
      ],
      "stateMutability": "view",
      "type": "function"
    },
    {
      "inputs": [],
      "name": "version",
      "outputs": [
        {
          "internalType": "string",
          "name": "",
          "type": "string"
        }
      ],
      "stateMutability": "view",
      "type": "function"
    },
    {
      "inputs": [],
      "name": "votingDelay",
      "outputs": [
        {
          "internalType": "uint256",
          "name": "",
          "type": "uint256"
        }
      ],
      "stateMutability": "view",
      "type": "function"
    },
    {
      "inputs": [],
      "name": "votingPeriod",
      "outputs": [
        {
          "internalType": "uint256",
          "name": "",
          "type": "uint256"
        }
      ],
      "stateMutability": "view",
      "type": "function"
    },
    {
      "stateMutability": "payable",
      "type": "receive"
    }
  ],
  "bytecode": "0x6101606040523480156200001257600080fd5b5060405162002573380380620025738339810160408190526200003591620004cd565b8585858585858c806200005c6040805180820190915260018152603160f81b602082015290565b815160208084019190912082518383012060e08290526101008190524660a0818152604080517f8b73c3c69bb8fe3d512ecc4cf759cc79239f7b179b0ffacaa9a75d522b39400f81880181905281830187905260608201869052608082019490945230818401528151808203909301835260c00190528051940193909320919290916080523060601b60c0526101205250508251620001059250600191506020840190620003f2565b50620001139050856200016e565b6200011e84620001af565b620001298362000255565b620001348262000296565b6200013f8162000327565b6200014a3362000368565b505050505060601b6001600160601b03191661014052506200064495505050505050565b60055460408051918252602082018390527fc565b045403dc03c2eea82b81a0465edad9e2e7fc4d97e11421c209da93d7a93910160405180910390a1600555565b60008111620002145760405162461bcd60e51b815260206004820152602760248201527f476f7665726e6f7253657474696e67733a20766f74696e6720706572696f6420604482015266746f6f206c6f7760c81b606482015260840160405180910390fd5b60065460408051918252602082018390527f7e3f7f0708a84de9203036abaa450dccc85ad5ff52f78c170f3edb55cf5e8828910160405180910390a1600655565b60075460408051918252602082018390527fccb45da8d5717e6c4544694297c4ba5cf151d455c9bb0ed4fc7a38411bc05461910160405180910390a1600755565b6040805160208082019092526009546001600160401b031681527f052000359245365cbcb4396b9ebabd953288d90a4a40ed36ba3f9b0a737223fe91620002e7919062000fd4620003d1821b17901c565b604080516001600160401b03928316815291841660208301520160405180910390a162000324816009620003d560201b62000fd81790919060201c565b50565b60085460408051918252602082018390527f4984ec996723330ee95979ed65a2a4b41edd914e68a187efe92596474643bdff910160405180910390a1600855565b600a54604080516001600160a01b03928316815291831660208301527f342827c97908e5e2f71151c08502a66d44b6f758e3ac2f1de95f02eb95f0a735910160405180910390a1600a80546001600160a01b0319166001600160a01b0392909216919091179055565b5190565b81546001600160401b0319166001600160401b0391909116179055565b8280546200040090620005f1565b90600052602060002090601f0160209004810192826200042457600085556200046f565b82601f106200043f57805160ff19168380011785556200046f565b828001600101855582156200046f579182015b828111156200046f57825182559160200191906001019062000452565b506200047d92915062000481565b5090565b5b808211156200047d576000815560010162000482565b80516001600160a01b0381168114620004b057600080fd5b919050565b80516001600160401b0381168114620004b057600080fd5b600080600080600080600060e0888a031215620004e8578283fd5b87516001600160401b0380821115620004ff578485fd5b818a0191508a601f83011262000513578485fd5b8151818111156200052857620005286200062e565b604051601f8201601f19908116603f011681019083821181831017156200055357620005536200062e565b81604052828152602093508d848487010111156200056f578788fd5b8791505b8282101562000592578482018401518183018501529083019062000573565b82821115620005a357878484830101525b9a50620005b59150508a820162000498565b97505050604088015194506060880151935060808801519250620005dc60a08901620004b5565b915060c0880151905092959891949750929550565b600181811c908216806200060657607f821691505b602082108114156200062857634e487b7160e01b600052602260045260246000fd5b50919050565b634e487b7160e01b600052604160045260246000fd5b60805160a05160c05160601c60e05161010051610120516101405160601c611ec7620006ac6000396000818161059801526112a50152600061158a015260006115d9015260006115b40152600061150d01526000611537015260006115610152611ec76000f3fe6080604052600436106101ba5760003560e01c8063aa98df39116100ec578063dd4e2ba51161008a578063eb9019d411610064578063eb9019d41461052f578063efa90d361461054f578063fb9bf8d414610571578063fc0c546a1461058657600080fd5b8063dd4e2ba5146104b2578063deaaa7cc146104e6578063ea8a1af01461051a57600080fd5b8063bd65e80a116100c6578063bd65e80a14610423578063c19d93fb14610443578063c7f758a814610465578063d17ad2d41461049257600080fd5b8063aa98df39146103c1578063b323580d146103e1578063b58131b01461040e57600080fd5b8063540a9190116101595780636e4eb810116101335780636e4eb8101461030d57806370a4a55c146103545780638da5cb5b146103745780639c028176146103a157600080fd5b8063540a9190146102a1578063544ffc9c146102b657806354fd4d50146102e357600080fd5b806306fdde031161019557806306fdde03146102355780631566f60d14610257578063262e59e9146102775780633932abb11461028c57600080fd5b80624114a8146101c857806301ffc9a7146101f057806302a251a31461022057600080fd5b366101c357005b005b600080fd5b3480156101d457600080fd5b506101dd6105ba565b6040519081526020015b60405180910390f35b3480156101fc57600080fd5b5061021061020b366004611a07565b6105e3565b60405190151581526020016101e7565b34801561022c57600080fd5b506101dd61061a565b34801561024157600080fd5b5061024a610625565b6040516101e79190611d46565b34801561026357600080fd5b506101dd610272366004611b68565b6106b7565b34801561028357600080fd5b506101dd61070b565b34801561029857600080fd5b506101dd610727565b3480156102ad57600080fd5b506101dd610732565b3480156102c257600080fd5b506101dd6102d1366004611ad9565b6000908152600b602052604090205490565b3480156102ef57600080fd5b506040805180820190915260018152603160f81b602082015261024a565b34801561031957600080fd5b506101dd610328366004611b09565b6000828152600b602090815260408083206001600160a01b038516845260030190915290205492915050565b34801561036057600080fd5b506101dd61036f366004611ad9565b610744565b34801561038057600080fd5b50610389610765565b6040516001600160a01b0390911681526020016101e7565b3480156103ad57600080fd5b506101dd6103bc366004611b34565b610779565b3480156103cd57600080fd5b506101dd6103dc366004611a2f565b6107a4565b3480156103ed57600080fd5b506104016103fc366004611ad9565b610bbd565b6040516101e79190611c99565b34801561041a57600080fd5b506101dd610c2f565b34801561042f57600080fd5b506101dd61043e366004611a2f565b610c3a565b34801561044f57600080fd5b50610458610c6b565b6040516101e79190611d1e565b34801561047157600080fd5b50610485610480366004611ad9565b610cbf565b6040516101e79190611d59565b34801561049e57600080fd5b506101dd6104ad366004611bf7565b610dc3565b3480156104be57600080fd5b5060408051808201909152600b81526a39bab83837b93a1eb337b960a91b602082015261024a565b3480156104f257600080fd5b506101dd7f150214d74d59b7d1e90c73fc22ef3d991dd0a76b046543d4d80ab92d2a50328f81565b34801561052657600080fd5b506101c1610e59565b34801561053b57600080fd5b506101dd61054a3660046119de565b610f5f565b34801561055b57600080fd5b50610564610f72565b6040516101e79190611ce6565b34801561057d57600080fd5b506101dd610fc9565b34801561059257600080fd5b506103897f000000000000000000000000000000000000000000000000000000000000000081565b60006105de604080516020810190915260095467ffffffffffffffff169081905290565b905090565b60006001600160e01b03198216632ef04ddd60e01b148061061457506301ffc9a760e01b6001600160e01b03198316145b92915050565b60006105de60065490565b60606001805461063490611e2a565b80601f016020809104026020016040519081016040528092919081815260200182805461066090611e2a565b80156106ad5780601f10610682576101008083540402835291602001916106ad565b820191906000526020600020905b81548152906001019060200180831161069057829003601f168201915b5050505050905090565b6000803390506107008782888888888080601f016020809104026020016040519081016040528093929190818152602001838380828437600092019190915250610ff792505050565b979650505050505050565b600061071561061a565b61071d610732565b6105de9190611dfb565b60006105de60055490565b600061073c610727565b61071d6105ba565b6000818154811061075457600080fd5b600091825260209091200154905081565b60006105de600a546001600160a01b031690565b60008033905061079b8582868660405180602001604052806000815250610ff7565b95945050505050565b600060026107b0610c6b565b60038111156107cf57634e487b7160e01b600052602160045260246000fd5b146108475760405162461bcd60e51b815260206004820152603e60248201527f476f7665726e6f723a20636f6e74657374206d7573742062652071756575656460448201527f20666f722070726f706f73616c7320746f206265207375626d6974746564000060648201526084015b60405180910390fd5b3360009081526004602052604090205460ff161515600114156108d25760405162461bcd60e51b815260206004820152603f60248201527f476f7665726e6f723a207468652073616d6520616464726573732063616e6e6f60448201527f74207375626d6974206d6f7265207468616e206f6e652070726f706f73616c00606482015260840161083e565b6108da610fc9565b600054106109505760405162461bcd60e51b815260206004820152603960248201527f476f7665726e6f723a20746865206d6178206e756d626572206f662070726f7060448201527f6f73616c732068617665206265656e207375626d697474656400000000000000606482015260840161083e565b610958610c2f565b6109673361054a600143611e13565b10156109e75760405162461bcd60e51b815260206004820152604360248201527f476f7665726e6f72436f6d7061746962696c697479427261766f3a2070726f7060448201527f6f73657220766f7465732062656c6f772070726f706f73616c207468726573686064820152621bdb1960ea1b608482015260a40161083e565b8151610a355760405162461bcd60e51b815260206004820152601860248201527f476f7665726e6f723a20656d7074792070726f706f73616c0000000000000000604482015260640161083e565b6000610a4083610c3a565b60008181526003602052604090206002015490915060ff1615610ab75760405162461bcd60e51b815260206004820152602960248201527f476f7665726e6f723a206475706c69636174652070726f706f73616c73206e6f6044820152681d08185b1b1bddd95960ba1b606482015260840161083e565b60008054600180820183557f290decd9548b62a8d60345a988386fc84ba6bc95484008f6362f93160ef3e5639091018390556040805160608101825233815260208082018881528284018590528686526003825292909420815181546001600160a01b0319166001600160a01b039091161781559151805191949293610b439390850192910190611918565b506040918201516002909101805491151560ff19928316179055336000908152600460205291909120805490911660011790557f7585f467599d0f008985f231af99293be388626ac16ca59505c2f8f88969cd6381610b9f3390565b85604051610baf93929190611d9f565b60405180910390a192915050565b6000818152600b60209081526040918290206001810180548451818502810185019095528085526060949293830182828015610c2257602002820191906000526020600020905b81546001600160a01b03168152600190910190602001808311610c04575b5050505050915050919050565b60006105de60075490565b600081604051602001610c4d9190611d46565b60408051601f19818403018152919052805160209091012092915050565b60025460009060ff1615610c7f5750600190565b6000610c89610732565b9050438110610c9a57600291505090565b6000610ca461070b565b9050438110610cb65760009250505090565b60039250505090565b610cee604051806060016040528060006001600160a01b03168152602001606081526020016000151581525090565b60008281526003602090815260409182902082516060810190935280546001600160a01b031683526001810180549192840191610d2a90611e2a565b80601f0160208091040260200160405190810160405280929190818152602001828054610d5690611e2a565b8015610da35780601f10610d7857610100808354040283529160200191610da3565b820191906000526020600020905b815481529060010190602001808311610d8657829003601f168201915b50505091835250506002919091015460ff16151560209091015292915050565b604080517f150214d74d59b7d1e90c73fc22ef3d991dd0a76b046543d4d80ab92d2a50328f602082015290810187905260ff861660608201526000908190610e2f90610e279060800160405160208183030381529060405280519060200120611206565b868686611254565b9050610e4d8882898960405180602001604052806000815250610ff7565b98975050505050505050565b610e61610765565b6001600160a01b0316336001600160a01b031614610e7e57600080fd5b6000610e88610c6b565b90506001816003811115610eac57634e487b7160e01b600052602160045260246000fd5b14158015610eda57506003816003811115610ed757634e487b7160e01b600052602160045260246000fd5b14155b610f265760405162461bcd60e51b815260206004820152601c60248201527f476f7665726e6f723a20636f6e74657374206e6f742061637469766500000000604482015260640161083e565b6002805460ff191660011790556040517f4cd963a081760a54f571abc0f1db4dde31b4a07d8d6da3e844b8c6f47eeaaa4290600090a150565b6000610f6b838361127c565b9392505050565b606060008054806020026020016040519081016040528092919081815260200182805480156106ad57602002820191906000526020600020905b815481526020019060010190808311610fac575050505050905090565b60006105de60085490565b5190565b815467ffffffffffffffff191667ffffffffffffffff91909116179055565b600080611002610c6b565b600381111561102157634e487b7160e01b600052602160045260246000fd5b1461107a5760405162461bcd60e51b815260206004820152602360248201527f476f7665726e6f723a20766f7465206e6f742063757272656e746c792061637460448201526269766560e81b606482015260840161083e565b600083116110f05760405162461bcd60e51b815260206004820152603760248201527f476f7665726e6f72566f74696e6753696d706c653a2063616e6e6f7420766f7460448201527f6520776974682030206f7220666577657220766f746573000000000000000000606482015260840161083e565b60006110fe8661054a610732565b9050600081116111a85760405162461bcd60e51b815260206004820152606360248201527f476f7665726e6f72566f74696e6753696d706c653a20796f75206d757374206860448201527f6176652067726561746572207468616e20302064656c65676174656420766f7460648201527f65732061742074686520736e617073686f7420696e206f7264657220746f20766084820152626f746560e81b60a482015260c40161083e565b6111b58787878785611321565b856001600160a01b03167fb8e138887d0aa13bab447e82de9d5c1777041ecd21ca36ba824ff1e6c07ddda4888787876040516111f49493929190611dc9565b60405180910390a29695505050505050565b6000610614611213611500565b8360405161190160f01b6020820152602281018390526042810182905260009060620160405160208183030381529060405280519060200120905092915050565b600080600061126587878787611627565b9150915061127281611714565b5095945050505050565b604051630748d63560e31b81526001600160a01b038381166004830152602482018390526000917f000000000000000000000000000000000000000000000000000000000000000090911690633a46b1a89060440160206040518083038186803b1580156112e957600080fd5b505afa1580156112fd573d6000803e3d6000fd5b505050506040513d601f19601f82011682018060405250810190610f6b9190611af1565b6000858152600b602090815260408083206001600160a01b038816845260028101909252909120546113539083611e13565b8311156113be5760405162461bcd60e51b815260206004820152603360248201527f476f7665726e6f72566f74696e6753696d706c653a206e6f7420656e6f756768604482015272081d9bdd195cc81b19599d081d1bc818d85cdd606a1b606482015260840161083e565b60ff8416611414578054839082906000906113da908490611dfb565b90915550506001600160a01b038516600090815260038201602052604081208054859290611409908490611dfb565b9091555061147a9050565b60405162461bcd60e51b815260206004820152603560248201527f476f7665726e6f72566f74696e6753696d706c653a20696e76616c69642076616044820152746c756520666f7220656e756d20566f74655479706560581b606482015260840161083e565b6001600160a01b03851660009081526002820160205260409020546114c9576001818101805491820181556000908152602090200180546001600160a01b0319166001600160a01b0387161790555b6001600160a01b0385166000908152600282016020526040812080548592906114f3908490611dfb565b9091555050505050505050565b6000306001600160a01b037f00000000000000000000000000000000000000000000000000000000000000001614801561155957507f000000000000000000000000000000000000000000000000000000000000000046145b1561158357507f000000000000000000000000000000000000000000000000000000000000000090565b50604080517f00000000000000000000000000000000000000000000000000000000000000006020808301919091527f0000000000000000000000000000000000000000000000000000000000000000828401527f000000000000000000000000000000000000000000000000000000000000000060608301524660808301523060a0808401919091528351808403909101815260c0909201909252805191012090565b6000807f7fffffffffffffffffffffffffffffff5d576e7357a4501ddfe92f46681b20a083111561165e575060009050600361170b565b8460ff16601b1415801561167657508460ff16601c14155b15611687575060009050600461170b565b6040805160008082526020820180845289905260ff881692820192909252606081018690526080810185905260019060a0016020604051602081039080840390855afa1580156116db573d6000803e3d6000fd5b5050604051601f1901519150506001600160a01b0381166117045760006001925092505061170b565b9150600090505b94509492505050565b600081600481111561173657634e487b7160e01b600052602160045260246000fd5b141561173f5750565b600181600481111561176157634e487b7160e01b600052602160045260246000fd5b14156117af5760405162461bcd60e51b815260206004820152601860248201527f45434453413a20696e76616c6964207369676e61747572650000000000000000604482015260640161083e565b60028160048111156117d157634e487b7160e01b600052602160045260246000fd5b141561181f5760405162461bcd60e51b815260206004820152601f60248201527f45434453413a20696e76616c6964207369676e6174757265206c656e67746800604482015260640161083e565b600381600481111561184157634e487b7160e01b600052602160045260246000fd5b141561189a5760405162461bcd60e51b815260206004820152602260248201527f45434453413a20696e76616c6964207369676e6174757265202773272076616c604482015261756560f01b606482015260840161083e565b60048160048111156118bc57634e487b7160e01b600052602160045260246000fd5b14156119155760405162461bcd60e51b815260206004820152602260248201527f45434453413a20696e76616c6964207369676e6174757265202776272076616c604482015261756560f01b606482015260840161083e565b50565b82805461192490611e2a565b90600052602060002090601f016020900481019282611946576000855561198c565b82601f1061195f57805160ff191683800117855561198c565b8280016001018555821561198c579182015b8281111561198c578251825591602001919060010190611971565b5061199892915061199c565b5090565b5b80821115611998576000815560010161199d565b80356001600160a01b03811681146119c857600080fd5b919050565b803560ff811681146119c857600080fd5b600080604083850312156119f0578182fd5b6119f9836119b1565b946020939093013593505050565b600060208284031215611a18578081fd5b81356001600160e01b031981168114610f6b578182fd5b600060208284031215611a40578081fd5b813567ffffffffffffffff80821115611a57578283fd5b818401915084601f830112611a6a578283fd5b813581811115611a7c57611a7c611e7b565b604051601f8201601f19908116603f01168101908382118183101715611aa457611aa4611e7b565b81604052828152876020848701011115611abc578586fd5b826020860160208301379182016020019490945295945050505050565b600060208284031215611aea578081fd5b5035919050565b600060208284031215611b02578081fd5b5051919050565b60008060408385031215611b1b578182fd5b82359150611b2b602084016119b1565b90509250929050565b600080600060608486031215611b48578081fd5b83359250611b58602085016119cd565b9150604084013590509250925092565b600080600080600060808688031215611b7f578081fd5b85359450611b8f602087016119cd565b935060408601359250606086013567ffffffffffffffff80821115611bb2578283fd5b818801915088601f830112611bc5578283fd5b813581811115611bd3578384fd5b896020828501011115611be4578384fd5b9699959850939650602001949392505050565b60008060008060008060c08789031215611c0f578081fd5b86359550611c1f602088016119cd565b945060408701359350611c34606088016119cd565b92506080870135915060a087013590509295509295509295565b60008151808452815b81811015611c7357602081850181015186830182015201611c57565b81811115611c845782602083870101525b50601f01601f19169290920160200192915050565b6020808252825182820181905260009190848201906040850190845b81811015611cda5783516001600160a01b031683529284019291840191600101611cb5565b50909695505050505050565b6020808252825182820181905260009190848201906040850190845b81811015611cda57835183529284019291840191600101611d02565b6020810160048310611d4057634e487b7160e01b600052602160045260246000fd5b91905290565b602081526000610f6b6020830184611c4e565b602080825282516001600160a01b03168282015282015160606040830152600090611d876080840182611c4e565b90506040840151151560608401528091505092915050565b8381526001600160a01b038316602082015260606040820181905260009061079b90830184611c4e565b84815260ff84166020820152826040820152608060608201526000611df16080830184611c4e565b9695505050505050565b60008219821115611e0e57611e0e611e65565b500190565b600082821015611e2557611e25611e65565b500390565b600181811c90821680611e3e57607f821691505b60208210811415611e5f57634e487b7160e01b600052602260045260246000fd5b50919050565b634e487b7160e01b600052601160045260246000fd5b634e487b7160e01b600052604160045260246000fdfea2646970667358221220703465c8229b23e36d568fbe52eb4338d95905d02304f61b33cb0bdfa396f53564736f6c63430008040033",
  "linkReferences": {},
  "deployedLinkReferences": {}
}