{"abi":[{"type":"constructor","inputs":[{"name":"payees_","type":"uint256[]","internalType":"uint256[]"},{"name":"shares_","type":"uint256[]","internalType":"uint256[]"},{"name":"underlyingContest_","type":"address","internalType":"contract GovernorCountingSimple"}],"stateMutability":"payable"},{"type":"receive","stateMutability":"payable"},{"type":"function","name":"MODULE_TYPE","inputs":[],"outputs":[{"name":"","type":"string","internalType":"string"}],"stateMutability":"view"},{"type":"function","name":"cancel","inputs":[],"outputs":[],"stateMutability":"nonpayable"},{"type":"function","name":"canceled","inputs":[],"outputs":[{"name":"","type":"bool","internalType":"bool"}],"stateMutability":"view"},{"type":"function","name":"creator","inputs":[],"outputs":[{"name":"","type":"address","internalType":"address"}],"stateMutability":"view"},{"type":"function","name":"erc20Released","inputs":[{"name":"","type":"address","internalType":"contract IERC20"},{"name":"","type":"uint256","internalType":"uint256"}],"outputs":[{"name":"","type":"uint256","internalType":"uint256"}],"stateMutability":"view"},{"type":"function","name":"erc20ReleasedToVoter","inputs":[{"name":"","type":"address","internalType":"contract IERC20"},{"name":"","type":"address","internalType":"address"},{"name":"","type":"uint256","internalType":"uint256"}],"outputs":[{"name":"","type":"uint256","internalType":"uint256"}],"stateMutability":"view"},{"type":"function","name":"erc20TotalReleased","inputs":[{"name":"","type":"address","internalType":"contract IERC20"}],"outputs":[{"name":"","type":"uint256","internalType":"uint256"}],"stateMutability":"view"},{"type":"function","name":"getPayees","inputs":[],"outputs":[{"name":"","type":"uint256[]","internalType":"uint256[]"}],"stateMutability":"view"},{"type":"function","name":"getProposalIdOfRanking","inputs":[{"name":"ranking","type":"uint256","internalType":"uint256"}],"outputs":[{"name":"","type":"uint256","internalType":"uint256"}],"stateMutability":"view"},{"type":"function","name":"getUnderlyingContest","inputs":[],"outputs":[{"name":"","type":"address","internalType":"contract GovernorCountingSimple"}],"stateMutability":"view"},{"type":"function","name":"payees","inputs":[{"name":"","type":"uint256","internalType":"uint256"}],"outputs":[{"name":"","type":"uint256","internalType":"uint256"}],"stateMutability":"view"},{"type":"function","name":"releasable","inputs":[{"name":"token","type":"address","internalType":"contract IERC20"},{"name":"ranking","type":"uint256","internalType":"uint256"}],"outputs":[{"name":"","type":"uint256","internalType":"uint256"}],"stateMutability":"view"},{"type":"function","name":"releasable","inputs":[{"name":"ranking","type":"uint256","internalType":"uint256"}],"outputs":[{"name":"","type":"uint256","internalType":"uint256"}],"stateMutability":"view"},{"type":"function","name":"releasableToVoter","inputs":[{"name":"token","type":"address","internalType":"contract IERC20"},{"name":"voter","type":"address","internalType":"address"},{"name":"ranking","type":"uint256","internalType":"uint256"},{"name":"proposalId","type":"uint256","internalType":"uint256"}],"outputs":[{"name":"","type":"uint256","internalType":"uint256"}],"stateMutability":"view"},{"type":"function","name":"releasableToVoter","inputs":[{"name":"voter","type":"address","internalType":"address"},{"name":"ranking","type":"uint256","internalType":"uint256"},{"name":"proposalId","type":"uint256","internalType":"uint256"}],"outputs":[{"name":"","type":"uint256","internalType":"uint256"}],"stateMutability":"view"},{"type":"function","name":"release","inputs":[{"name":"voter","type":"address","internalType":"address"},{"name":"ranking","type":"uint256","internalType":"uint256"}],"outputs":[],"stateMutability":"nonpayable"},{"type":"function","name":"release","inputs":[{"name":"token","type":"address","internalType":"contract IERC20"},{"name":"voter","type":"address","internalType":"address"},{"name":"ranking","type":"uint256","internalType":"uint256"}],"outputs":[],"stateMutability":"nonpayable"},{"type":"function","name":"released","inputs":[{"name":"","type":"uint256","internalType":"uint256"}],"outputs":[{"name":"","type":"uint256","internalType":"uint256"}],"stateMutability":"view"},{"type":"function","name":"releasedToVoter","inputs":[{"name":"","type":"address","internalType":"address"},{"name":"","type":"uint256","internalType":"uint256"}],"outputs":[{"name":"","type":"uint256","internalType":"uint256"}],"stateMutability":"view"},{"type":"function","name":"runReleaseChecks","inputs":[{"name":"ranking","type":"uint256","internalType":"uint256"}],"outputs":[],"stateMutability":"view"},{"type":"function","name":"shares","inputs":[{"name":"","type":"uint256","internalType":"uint256"}],"outputs":[{"name":"","type":"uint256","internalType":"uint256"}],"stateMutability":"view"},{"type":"function","name":"totalReleased","inputs":[],"outputs":[{"name":"","type":"uint256","internalType":"uint256"}],"stateMutability":"view"},{"type":"function","name":"totalShares","inputs":[],"outputs":[{"name":"","type":"uint256","internalType":"uint256"}],"stateMutability":"view"},{"type":"function","name":"underlyingContest","inputs":[],"outputs":[{"name":"","type":"address","internalType":"contract GovernorCountingSimple"}],"stateMutability":"view"},{"type":"function","name":"version","inputs":[],"outputs":[{"name":"","type":"string","internalType":"string"}],"stateMutability":"pure"},{"type":"function","name":"withdrawRewards","inputs":[{"name":"token","type":"address","internalType":"contract IERC20"}],"outputs":[],"stateMutability":"nonpayable"},{"type":"function","name":"withdrawRewards","inputs":[],"outputs":[],"stateMutability":"nonpayable"},{"type":"event","name":"ERC20PaymentReleased","inputs":[{"name":"token","type":"address","indexed":true,"internalType":"contract IERC20"},{"name":"to","type":"address","indexed":false,"internalType":"address"},{"name":"amount","type":"uint256","indexed":false,"internalType":"uint256"}],"anonymous":false},{"type":"event","name":"ERC20RewardWithdrawn","inputs":[{"name":"token","type":"address","indexed":true,"internalType":"contract IERC20"},{"name":"by","type":"address","indexed":false,"internalType":"address"},{"name":"amount","type":"uint256","indexed":false,"internalType":"uint256"}],"anonymous":false},{"type":"event","name":"PayeeAdded","inputs":[{"name":"ranking","type":"uint256","indexed":false,"internalType":"uint256"},{"name":"shares","type":"uint256","indexed":false,"internalType":"uint256"}],"anonymous":false},{"type":"event","name":"PaymentReceived","inputs":[{"name":"from","type":"address","indexed":false,"internalType":"address"},{"name":"amount","type":"uint256","indexed":false,"internalType":"uint256"}],"anonymous":false},{"type":"event","name":"PaymentReleased","inputs":[{"name":"to","type":"address","indexed":false,"internalType":"address"},{"name":"amount","type":"uint256","indexed":false,"internalType":"uint256"}],"anonymous":false},{"type":"event","name":"RewardWithdrawn","inputs":[{"name":"by","type":"address","indexed":false,"internalType":"address"},{"name":"amount","type":"uint256","indexed":false,"internalType":"uint256"}],"anonymous":false},{"type":"error","name":"AccountAlreadyHasShares","inputs":[]},{"type":"error","name":"AccountNotDueERC20Payment","inputs":[]},{"type":"error","name":"AccountNotDueNativePayment","inputs":[]},{"type":"error","name":"CannotPayOutToZeroAddress","inputs":[]},{"type":"error","name":"CannotReleaseCanceledModule","inputs":[]},{"type":"error","name":"ContestMustBeCompleted","inputs":[]},{"type":"error","name":"MustBeCanceledToWithdraw","inputs":[]},{"type":"error","name":"MustHaveAtLeastOnePayee","inputs":[]},{"type":"error","name":"MustHaveSortingEnabled","inputs":[]},{"type":"error","name":"OnlyCreatorCanCancel","inputs":[]},{"type":"error","name":"OnlyCreatorCanWithdraw","inputs":[]},{"type":"error","name":"PayeesSharesLengthMismatch","inputs":[]},{"type":"error","name":"PayoutRankCannotBeZero","inputs":[]},{"type":"error","name":"RankingCannotBeZero","inputs":[]},{"type":"error","name":"RankingHasNoShares","inputs":[]},{"type":"error","name":"SharesCannotBeZero","inputs":[]},{"type":"error","name":"TotalSharesCannotBeZero","inputs":[]}],"bytecode":{"object":"0x608060405260405162001d6c38038062001d6c8339810160408190526200002691620002ea565b815183511462000049576040516324e23b4160e01b815260040160405180910390fd5b82516000036200006c57604051634c87c40160e01b815260040160405180910390fd5b60005b8351811015620000d857620000c384828151811062000092576200009262000377565b6020026020010151848381518110620000af57620000af62000377565b60200260200101516200012f60201b60201c565b80620000cf81620003a3565b9150506200006f565b50600054600003620000fd576040516306db759b60e21b815260040160405180910390fd5b600980546001600160a01b039092166001600160a01b0319928316179055600a80549091163317905550620003db9050565b81600003620001515760405163d6fbfe2560e01b815260040160405180910390fd5b806000036200017357604051633122bc0960e21b815260040160405180910390fd5b60008281526002602052604090205415620001a157604051637b4f7fb560e01b815260040160405180910390fd5b60088054600181019091557ff3f7a9fe364faab93b216da50a3214154f22a0a2b415b23a84c8169e8b636ee301829055600082815260026020526040812082905554620001f0908290620003bf565b60005560408051838152602081018390527f78bc0e219b874bf2620f7316737ec16d4bda1bb7136961e4dcb5ff0dc031cee4910160405180910390a15050565b634e487b7160e01b600052604160045260246000fd5b600082601f8301126200025857600080fd5b815160206001600160401b038083111562000277576200027762000230565b8260051b604051601f19603f830116810181811084821117156200029f576200029f62000230565b604052938452858101830193838101925087851115620002be57600080fd5b83870191505b84821015620002df57815183529183019190830190620002c4565b979650505050505050565b6000806000606084860312156200030057600080fd5b83516001600160401b03808211156200031857600080fd5b620003268783880162000246565b945060208601519150808211156200033d57600080fd5b506200034c8682870162000246565b604086015190935090506001600160a01b03811681146200036c57600080fd5b809150509250925092565b634e487b7160e01b600052603260045260246000fd5b634e487b7160e01b600052601160045260246000fd5b600060018201620003b857620003b86200038d565b5060010190565b80820180821115620003d557620003d56200038d565b92915050565b61198180620003eb6000396000f3fe6080604052600436106101a05760003560e01c806357a858fc116100ec578063c71040461161008a578063e33b7de311610064578063e33b7de314610590578063e4bf01a8146105a6578063ea8a1af0146105c6578063f3f44fb7146105db57600080fd5b8063c71040461461051d578063c7b8981c1461053d578063d75f69b61461055257600080fd5b80638bfb07c9116100c65780638bfb07c914610490578063a94d373b146104b0578063af7c4e93146104dd578063c020fc7f146104fd57600080fd5b806357a858fc1461042557806363037b0c14610452578063828ce44b1461047257600080fd5b80633f9942ff116101595780634df2114b116101335780634df2114b1461035f57806351f63e351461039757806354fd4d50146103b75780635775029f146103ec57600080fd5b80633f9942ff146102d657806342d86693146103075780634b9453381461032757600080fd5b806302d05d3f146101e45780630357371d146102215780632081d6311461024357806327f38113146102715780633375bbdc146102935780633a98ef39146102c057600080fd5b366101df57604080513381523460208201527f6ef95f06320e7a25a04a175ca677b7052bdd97131872c2192525a629f51be770910160405180910390a1005b600080fd5b3480156101f057600080fd5b50600a54610204906001600160a01b031681565b6040516001600160a01b0390911681526020015b60405180910390f35b34801561022d57600080fd5b5061024161023c36600461168f565b6105fb565b005b34801561024f57600080fd5b5061026361025e36600461168f565b61074f565b604051908152602001610218565b34801561027d57600080fd5b50610286610816565b60405161021891906116bb565b34801561029f57600080fd5b506102636102ae3660046116ff565b60046020526000908152604090205481565b3480156102cc57600080fd5b5061026360005481565b3480156102e257600080fd5b50600a546102f790600160a01b900460ff1681565b6040519015158152602001610218565b34801561031357600080fd5b506102416103223660046116ff565b61086e565b34801561033357600080fd5b5061026361034236600461168f565b600560209081526000928352604080842090915290825290205481565b34801561036b57600080fd5b5061026361037a36600461168f565b600660209081526000928352604080842090915290825290205481565b3480156103a357600080fd5b506102636103b236600461171c565b6109fa565b3480156103c357600080fd5b50604080518082019091526003815262352e3560e81b60208201525b6040516102189190611759565b3480156103f857600080fd5b506103df6040518060400160405280600d81526020016c564f5445525f5245574152445360981b81525081565b34801561043157600080fd5b5061026361044036600461171c565b60026020526000908152604090205481565b34801561045e57600080fd5b5061026361046d36600461171c565b610bcf565b34801561047e57600080fd5b506009546001600160a01b0316610204565b34801561049c57600080fd5b506102416104ab36600461178c565b610bf0565b3480156104bc57600080fd5b506102636104cb36600461171c565b60036020526000908152604090205481565b3480156104e957600080fd5b506102636104f83660046117cd565b610d83565b34801561050957600080fd5b50610263610518366004611813565b610e83565b34801561052957600080fd5b5061024161053836600461171c565b610efe565b34801561054957600080fd5b506102416110ae565b34801561055e57600080fd5b5061026361056d36600461178c565b600760209081526000938452604080852082529284528284209052825290205481565b34801561059c57600080fd5b5061026360015481565b3480156105b257600080fd5b506102636105c136600461171c565b611165565b3480156105d257600080fd5b5061024161119d565b3480156105e757600080fd5b50600954610204906001600160a01b031681565b61060481610efe565b600061060f826109fa565b90506000811561062957610624848484610e83565b610632565b61063283611165565b90508060000361065557604051631d1514e960e21b815260040160405180910390fd5b8060016000828254610667919061185e565b9091555050600083815260036020526040812080548301905582156106c7576001600160a01b0385166000908152600660209081526040808320878452909152812080548492906106b990849061185e565b909155508591506106d59050565b50600a546001600160a01b03165b6001600160a01b0381166106fc576040516346a3c2f960e01b815260040160405180910390fd5b604080516001600160a01b0383168152602081018490527fdf20fd1e76bc69d672e4814fafb2c449bba3a5369d8359adf9e05e6fde87b056910160405180910390a161074881836111dd565b5050505050565b6001600160a01b03821660008181526004602081905260408083205490516370a0823160e01b8152309281019290925291928392916370a0823190602401602060405180830381865afa1580156107aa573d6000803e3d6000fd5b505050506040513d601f19601f820116820180604052508101906107ce9190611871565b6107d8919061185e565b6001600160a01b038516600090815260056020908152604080832087845290915290205490915061080c9084908390611300565b9150505b92915050565b6060600880548060200260200160405190810160405280929190818152602001828054801561086457602002820191906000526020600020905b815481526020019060010190808311610850575b5050505050905090565b600a546001600160a01b0316331461089957604051631eab0da960e01b815260040160405180910390fd5b600a54600160a01b900460ff1615156001146108c857604051633871a85960e21b815260040160405180910390fd5b600a546040516370a0823160e01b81523060048201526001600160a01b03838116927f6e5fc1cbd1629d9837bd657d23cf585bbc4e9127184972606cc4c0dd406f75729291169083906370a0823190602401602060405180830381865afa158015610937573d6000803e3d6000fd5b505050506040513d601f19601f8201168201806040525081019061095b9190611871565b604080516001600160a01b03909316835260208301919091520160405180910390a2600a546040516370a0823160e01b81523060048201526109f79183916001600160a01b03918216918316906370a0823190602401602060405180830381865afa1580156109ce573d6000803e3d6000fd5b505050506040513d601f19601f820116820180604052508101906109f29190611871565b611332565b50565b600954604051630b8e20fb60e31b815260048101839052600091829182916001600160a01b031690635c7107d890602401602060405180830381865afa158015610a48573d6000803e3d6000fd5b505050506040513d601f19601f82011682018060405250810190610a6c9190611871565b60095460405163245d1de360e21b8152600481018390529192506001600160a01b031690639174778c90602401602060405180830381865afa158015610ab6573d6000803e3d6000fd5b505050506040513d601f19601f82011682018060405250810190610ada919061188a565b15610ae85760009150610bc8565b60095460405163325cc6d960e01b8152600481018390526000916001600160a01b03169063325cc6d990602401602060405180830381865afa158015610b32573d6000803e3d6000fd5b505050506040513d601f19601f82011682018060405250810190610b569190611871565b60095460405163d576b81d60e01b8152600481018390529192506001600160a01b03169063d576b81d90602401602060405180830381865afa158015610ba0573d6000803e3d6000fd5b505050506040513d601f19601f82011682018060405250810190610bc49190611871565b9250505b5092915050565b60088181548110610bdf57600080fd5b600091825260209091200154905081565b610bf981610efe565b6000610c04826109fa565b905060008115610c1f57610c1a85858585610d83565b610c29565b610c29858461074f565b905080600003610c4c57604051635fe559bd60e01b815260040160405180910390fd5b6001600160a01b03851660009081526004602052604081208054839290610c7490849061185e565b90915550506001600160a01b038516600090815260056020908152604080832086845290915281208054830190558215610cf5576001600160a01b038087166000908152600760209081526040808320938916835292815282822087835290529081208054849290610ce790849061185e565b90915550859150610d039050565b50600a546001600160a01b03165b6001600160a01b038116610d2a576040516346a3c2f960e01b815260040160405180910390fd5b604080516001600160a01b038381168252602082018590528816917f3be5b7a71e84ed12875d241991c70855ac5817d847039e17a9d895c1ceb0f18a910160405180910390a2610d7b868284611332565b505050505050565b6001600160a01b03841660008181526004602081905260408083205490516370a0823160e01b8152309281019290925291928392916370a0823190602401602060405180830381865afa158015610dde573d6000803e3d6000fd5b505050506040513d601f19601f82011682018060405250810190610e029190611871565b610e0c919061185e565b60008054868252600260205260408220549293509091610e2c90846118ac565b610e3691906118c3565b6001600160a01b038089166000908152600760209081526040808320938b16835292815282822089835290522054909150610e7690879086908490611384565b925050505b949350505050565b60008060015447610e94919061185e565b60008054868252600260205260408220549293509091610eb490846118ac565b610ebe91906118c3565b6001600160a01b0387166000908152600660209081526040808320898452909152902054909150610ef490879086908490611384565b9695505050505050565b600960009054906101000a90046001600160a01b03166001600160a01b031663366ecf5b6040518163ffffffff1660e01b8152600401602060405180830381865afa158015610f51573d6000803e3d6000fd5b505050506040513d601f19601f82011682018060405250810190610f759190611871565b600114610f9557604051630fcdfffd60e41b815260040160405180910390fd5b6009546040805163c19d93fb60e01b815290516004926001600160a01b03169163c19d93fb918185019160209190819003860181865afa158015610fdd573d6000803e3d6000fd5b505050506040513d601f19601f8201168201806040525081019061100191906118fb565b6004811115611012576110126118e5565b1461103057604051639c2d4c7960e01b815260040160405180910390fd5b806000036110515760405163f9668e2960e01b815260040160405180910390fd5b600081815260026020526040812054900361107f57604051632534bdfb60e11b815260040160405180910390fd5b600a54600160a01b900460ff1615156001036109f75760405163e2f87cff60e01b815260040160405180910390fd5b600a546001600160a01b031633146110d957604051631eab0da960e01b815260040160405180910390fd5b600a54600160a01b900460ff16151560011461110857604051633871a85960e21b815260040160405180910390fd5b600a54604080516001600160a01b0390921682524760208301527f1d3eee4ca001cff39eec6ec7615aacf2f2bd61791273830728ba00ccbd6e1337910160405180910390a1600a54611163906001600160a01b0316476111dd565b565b60008060015447611176919061185e565b905061119683826003600087815260200190815260200160002054611300565b9392505050565b600a546001600160a01b031633146111c857604051630c06b96b60e31b815260040160405180910390fd5b600a805460ff60a01b1916600160a01b179055565b804710156112325760405162461bcd60e51b815260206004820152601d60248201527f416464726573733a20696e73756666696369656e742062616c616e636500000060448201526064015b60405180910390fd5b6000826001600160a01b03168260405160006040518083038185875af1925050503d806000811461127f576040519150601f19603f3d011682016040523d82523d6000602084013e611284565b606091505b50509050806112fb5760405162461bcd60e51b815260206004820152603a60248201527f416464726573733a20756e61626c6520746f2073656e642076616c75652c207260448201527f6563697069656e74206d617920686176652072657665727465640000000000006064820152608401611229565b505050565b600080548482526002602052604082205483919061131e90866118ac565b61132891906118c3565b610e7b919061191c565b604080516001600160a01b038416602482015260448082018490528251808303909101815260649091019091526020810180516001600160e01b031663a9059cbb60e01b1790526112fb908490611492565b600954604051631513ff2760e21b81526004810185905260009183916001600160a01b039091169063544ffc9c90602401602060405180830381865afa1580156113d2573d6000803e3d6000fd5b505050506040513d601f19601f820116820180604052508101906113f69190611871565b6009546040516306e4eb8160e41b8152600481018890526001600160a01b03898116602483015290911690636e4eb81090604401602060405180830381865afa158015611447573d6000803e3d6000fd5b505050506040513d601f19601f8201168201806040525081019061146b9190611871565b61147590866118ac565b61147f91906118c3565b611489919061191c565b95945050505050565b60006114e7826040518060400160405280602081526020017f5361666545524332303a206c6f772d6c6576656c2063616c6c206661696c6564815250856001600160a01b03166115679092919063ffffffff16565b9050805160001480611508575080806020019051810190611508919061188a565b6112fb5760405162461bcd60e51b815260206004820152602a60248201527f5361666545524332303a204552433230206f7065726174696f6e20646964206e6044820152691bdd081cdd58d8d9595960b21b6064820152608401611229565b6060610e7b848460008585600080866001600160a01b0316858760405161158e919061192f565b60006040518083038185875af1925050503d80600081146115cb576040519150601f19603f3d011682016040523d82523d6000602084013e6115d0565b606091505b5091509150610e76878383876060831561164b578251600003611644576001600160a01b0385163b6116445760405162461bcd60e51b815260206004820152601d60248201527f416464726573733a2063616c6c20746f206e6f6e2d636f6e74726163740000006044820152606401611229565b5081610e7b565b610e7b83838151156116605781518083602001fd5b8060405162461bcd60e51b81526004016112299190611759565b6001600160a01b03811681146109f757600080fd5b600080604083850312156116a257600080fd5b82356116ad8161167a565b946020939093013593505050565b6020808252825182820181905260009190848201906040850190845b818110156116f3578351835292840192918401916001016116d7565b50909695505050505050565b60006020828403121561171157600080fd5b81356111968161167a565b60006020828403121561172e57600080fd5b5035919050565b60005b83811015611750578181015183820152602001611738565b50506000910152565b6020815260008251806020840152611778816040850160208701611735565b601f01601f19169190910160400192915050565b6000806000606084860312156117a157600080fd5b83356117ac8161167a565b925060208401356117bc8161167a565b929592945050506040919091013590565b600080600080608085870312156117e357600080fd5b84356117ee8161167a565b935060208501356117fe8161167a565b93969395505050506040820135916060013590565b60008060006060848603121561182857600080fd5b83356118338161167a565b95602085013595506040909401359392505050565b634e487b7160e01b600052601160045260246000fd5b8082018082111561081057610810611848565b60006020828403121561188357600080fd5b5051919050565b60006020828403121561189c57600080fd5b8151801515811461119657600080fd5b808202811582820484141761081057610810611848565b6000826118e057634e487b7160e01b600052601260045260246000fd5b500490565b634e487b7160e01b600052602160045260246000fd5b60006020828403121561190d57600080fd5b81516005811061119657600080fd5b8181038181111561081057610810611848565b60008251611941818460208701611735565b919091019291505056fea2646970667358221220175ac90768d4184d17ba77f3e650f3d5258cc4b8e4a033d3016963b7f9fc20f664736f6c63430008130033","linkReferences":{}},"methodIdentifiers":{"MODULE_TYPE()":"5775029f","cancel()":"ea8a1af0","canceled()":"3f9942ff","creator()":"02d05d3f","erc20Released(address,uint256)":"4b945338","erc20ReleasedToVoter(address,address,uint256)":"d75f69b6","erc20TotalReleased(address)":"3375bbdc","getPayees()":"27f38113","getProposalIdOfRanking(uint256)":"51f63e35","getUnderlyingContest()":"828ce44b","payees(uint256)":"63037b0c","releasable(address,uint256)":"2081d631","releasable(uint256)":"e4bf01a8","releasableToVoter(address,address,uint256,uint256)":"af7c4e93","releasableToVoter(address,uint256,uint256)":"c020fc7f","release(address,address,uint256)":"8bfb07c9","release(address,uint256)":"0357371d","released(uint256)":"a94d373b","releasedToVoter(address,uint256)":"4df2114b","runReleaseChecks(uint256)":"c7104046","shares(uint256)":"57a858fc","totalReleased()":"e33b7de3","totalShares()":"3a98ef39","underlyingContest()":"f3f44fb7","version()":"54fd4d50","withdrawRewards()":"c7b8981c","withdrawRewards(address)":"42d86693"},"id":42}