{
  "abi": [
    {
      "inputs": [
        {
          "internalType": "string",
          "name": "_name",
          "type": "string"
        },
        {
          "internalType": "string",
          "name": "_prompt",
          "type": "string"
        },
        {
          "internalType": "bytes32",
          "name": "_submissionMerkleRoot",
          "type": "bytes32"
        },
        {
          "internalType": "bytes32",
          "name": "_votingMerkleRoot",
          "type": "bytes32"
        },
        {
          "internalType": "uint256[]",
          "name": "_constructorIntParams",
          "type": "uint256[]"
        }
      ],
      "stateMutability": "nonpayable",
      "type": "constructor"
    },
    {
      "inputs": [],
      "name": "InvalidShortString",
      "type": "error"
    },
    {
      "inputs": [],
      "name": "NotInMerkle",
      "type": "error"
    },
    {
      "inputs": [
        {
          "internalType": "string",
          "name": "str",
          "type": "string"
        }
      ],
      "name": "StringTooLong",
      "type": "error"
    },
    {
      "inputs": [],
      "name": "TooManyMetadatas",
      "type": "error"
    },
    {
      "anonymous": false,
      "inputs": [],
      "name": "ContestCanceled",
      "type": "event"
    },
    {
      "anonymous": false,
      "inputs": [
        {
          "indexed": false,
          "internalType": "uint256",
          "name": "oldContestStart",
          "type": "uint256"
        },
        {
          "indexed": false,
          "internalType": "uint256",
          "name": "newContestStart",
          "type": "uint256"
        }
      ],
      "name": "ContestStartSet",
      "type": "event"
    },
    {
      "anonymous": false,
      "inputs": [
        {
          "indexed": false,
          "internalType": "address",
          "name": "oldCreator",
          "type": "address"
        },
        {
          "indexed": false,
          "internalType": "address",
          "name": "newCreator",
          "type": "address"
        }
      ],
      "name": "CreatorSet",
      "type": "event"
    },
    {
      "anonymous": false,
      "inputs": [
        {
          "indexed": false,
          "internalType": "uint256",
          "name": "oldDownvotingAllowed",
          "type": "uint256"
        },
        {
          "indexed": false,
          "internalType": "uint256",
          "name": "newDownvotingAllowed",
          "type": "uint256"
        }
      ],
      "name": "DownvotingAllowedSet",
      "type": "event"
    },
    {
      "anonymous": false,
      "inputs": [],
      "name": "EIP712DomainChanged",
      "type": "event"
    },
    {
      "anonymous": false,
      "inputs": [
        {
          "indexed": false,
          "internalType": "uint256",
          "name": "oldMaxProposalCount",
          "type": "uint256"
        },
        {
          "indexed": false,
          "internalType": "uint256",
          "name": "newMaxProposalCount",
          "type": "uint256"
        }
      ],
      "name": "MaxProposalCountSet",
      "type": "event"
    },
    {
      "anonymous": false,
      "inputs": [
        {
          "indexed": false,
          "internalType": "uint256",
          "name": "oldNumAllowedProposalSubmissions",
          "type": "uint256"
        },
        {
          "indexed": false,
          "internalType": "uint256",
          "name": "newNumAllowedProposalSubmissions",
          "type": "uint256"
        }
      ],
      "name": "NumAllowedProposalSubmissionsSet",
      "type": "event"
    },
    {
      "anonymous": false,
      "inputs": [
        {
          "indexed": false,
          "internalType": "contract RewardsModule",
          "name": "oldOfficialRewardsModule",
          "type": "address"
        },
        {
          "indexed": false,
          "internalType": "contract RewardsModule",
          "name": "newOfficialRewardsModule",
          "type": "address"
        }
      ],
      "name": "OfficialRewardsModuleSet",
      "type": "event"
    },
    {
      "anonymous": false,
      "inputs": [
        {
          "indexed": false,
          "internalType": "uint256",
          "name": "proposalId",
          "type": "uint256"
        },
        {
          "indexed": false,
          "internalType": "address",
          "name": "proposer",
          "type": "address"
        }
      ],
      "name": "ProposalCreated",
      "type": "event"
    },
    {
      "anonymous": false,
      "inputs": [
        {
          "indexed": false,
          "internalType": "uint256[]",
          "name": "proposalIds",
          "type": "uint256[]"
        }
      ],
      "name": "ProposalsDeleted",
      "type": "event"
    },
    {
      "anonymous": false,
      "inputs": [
        {
          "indexed": true,
          "internalType": "address",
          "name": "voter",
          "type": "address"
        },
        {
          "indexed": false,
          "internalType": "uint256",
          "name": "proposalId",
          "type": "uint256"
        },
        {
          "indexed": false,
          "internalType": "uint8",
          "name": "support",
          "type": "uint8"
        },
        {
          "indexed": false,
          "internalType": "uint256",
          "name": "numVotes",
          "type": "uint256"
        },
        {
          "indexed": false,
          "internalType": "string",
          "name": "reason",
          "type": "string"
        }
      ],
      "name": "VoteCast",
      "type": "event"
    },
    {
      "anonymous": false,
      "inputs": [
        {
          "indexed": false,
          "internalType": "uint256",
          "name": "oldVotingDelay",
          "type": "uint256"
        },
        {
          "indexed": false,
          "internalType": "uint256",
          "name": "newVotingDelay",
          "type": "uint256"
        }
      ],
      "name": "VotingDelaySet",
      "type": "event"
    },
    {
      "anonymous": false,
      "inputs": [
        {
          "indexed": false,
          "internalType": "uint256",
          "name": "oldVotingPeriod",
          "type": "uint256"
        },
        {
          "indexed": false,
          "internalType": "uint256",
          "name": "newVotingPeriod",
          "type": "uint256"
        }
      ],
      "name": "VotingPeriodSet",
      "type": "event"
    },
    {
      "inputs": [],
      "name": "AMOUNT_FOR_SUMBITTER_PROOF",
      "outputs": [
        {
          "internalType": "uint256",
          "name": "",
          "type": "uint256"
        }
      ],
      "stateMutability": "view",
      "type": "function"
    },
    {
      "inputs": [],
      "name": "BALLOT_TYPEHASH",
      "outputs": [
        {
          "internalType": "bytes32",
          "name": "",
          "type": "bytes32"
        }
      ],
      "stateMutability": "view",
      "type": "function"
    },
    {
      "inputs": [],
      "name": "COUNTING_MODE",
      "outputs": [
        {
          "internalType": "string",
          "name": "",
          "type": "string"
        }
      ],
      "stateMutability": "pure",
      "type": "function"
    },
    {
      "inputs": [],
      "name": "METADATAS_COUNT",
      "outputs": [
        {
          "internalType": "uint256",
          "name": "",
          "type": "uint256"
        }
      ],
      "stateMutability": "view",
      "type": "function"
    },
    {
      "inputs": [
        {
          "internalType": "address",
          "name": "",
          "type": "address"
        }
      ],
      "name": "addressSubmitterVerified",
      "outputs": [
        {
          "internalType": "bool",
          "name": "",
          "type": "bool"
        }
      ],
      "stateMutability": "view",
      "type": "function"
    },
    {
      "inputs": [
        {
          "internalType": "address",
          "name": "",
          "type": "address"
        }
      ],
      "name": "addressTotalCastVoteCounts",
      "outputs": [
        {
          "internalType": "uint256",
          "name": "",
          "type": "uint256"
        }
      ],
      "stateMutability": "view",
      "type": "function"
    },
    {
      "inputs": [
        {
          "internalType": "address",
          "name": "",
          "type": "address"
        }
      ],
      "name": "addressTotalVotes",
      "outputs": [
        {
          "internalType": "uint256",
          "name": "",
          "type": "uint256"
        }
      ],
      "stateMutability": "view",
      "type": "function"
    },
    {
      "inputs": [
        {
          "internalType": "address",
          "name": "",
          "type": "address"
        }
      ],
      "name": "addressTotalVotesVerified",
      "outputs": [
        {
          "internalType": "bool",
          "name": "",
          "type": "bool"
        }
      ],
      "stateMutability": "view",
      "type": "function"
    },
    {
      "inputs": [],
      "name": "allProposalTotalVotes",
      "outputs": [
        {
          "internalType": "uint256[]",
          "name": "proposalIdsReturn",
          "type": "uint256[]"
        },
        {
          "components": [
            {
              "internalType": "uint256",
              "name": "forVotes",
              "type": "uint256"
            },
            {
              "internalType": "uint256",
              "name": "againstVotes",
              "type": "uint256"
            }
          ],
          "internalType": "struct GovernorCountingSimple.VoteCounts[]",
          "name": "proposalVoteCountsArrayReturn",
          "type": "tuple[]"
        }
      ],
      "stateMutability": "view",
      "type": "function"
    },
    {
      "inputs": [],
      "name": "allProposalTotalVotesWithoutDeleted",
      "outputs": [
        {
          "internalType": "uint256[]",
          "name": "proposalIdsReturn",
          "type": "uint256[]"
        },
        {
          "components": [
            {
              "internalType": "uint256",
              "name": "forVotes",
              "type": "uint256"
            },
            {
              "internalType": "uint256",
              "name": "againstVotes",
              "type": "uint256"
            }
          ],
          "internalType": "struct GovernorCountingSimple.VoteCounts[]",
          "name": "proposalVoteCountsArrayReturn",
          "type": "tuple[]"
        }
      ],
      "stateMutability": "view",
      "type": "function"
    },
    {
      "inputs": [],
      "name": "cancel",
      "outputs": [],
      "stateMutability": "nonpayable",
      "type": "function"
    },
    {
      "inputs": [
        {
          "internalType": "uint256",
          "name": "proposalId",
          "type": "uint256"
        },
        {
          "internalType": "uint8",
          "name": "support",
          "type": "uint8"
        },
        {
          "internalType": "uint256",
          "name": "totalVotes",
          "type": "uint256"
        },
        {
          "internalType": "uint256",
          "name": "numVotes",
          "type": "uint256"
        },
        {
          "internalType": "bytes32[]",
          "name": "proof",
          "type": "bytes32[]"
        }
      ],
      "name": "castVote",
      "outputs": [
        {
          "internalType": "uint256",
          "name": "",
          "type": "uint256"
        }
      ],
      "stateMutability": "nonpayable",
      "type": "function"
    },
    {
      "inputs": [
        {
          "internalType": "uint256",
          "name": "proposalId",
          "type": "uint256"
        },
        {
          "internalType": "uint8",
          "name": "support",
          "type": "uint8"
        },
        {
          "internalType": "uint256",
          "name": "numVotes",
          "type": "uint256"
        }
      ],
      "name": "castVoteWithoutProof",
      "outputs": [
        {
          "internalType": "uint256",
          "name": "",
          "type": "uint256"
        }
      ],
      "stateMutability": "nonpayable",
      "type": "function"
    },
    {
      "inputs": [
        {
          "internalType": "address",
          "name": "addressToCheck",
          "type": "address"
        },
        {
          "internalType": "uint256",
          "name": "amount",
          "type": "uint256"
        },
        {
          "internalType": "bytes32[]",
          "name": "proof",
          "type": "bytes32[]"
        },
        {
          "internalType": "bool",
          "name": "voting",
          "type": "bool"
        }
      ],
      "name": "checkProof",
      "outputs": [
        {
          "internalType": "bool",
          "name": "verified",
          "type": "bool"
        }
      ],
      "stateMutability": "view",
      "type": "function"
    },
    {
      "inputs": [
        {
          "internalType": "address",
          "name": "userAddress",
          "type": "address"
        }
      ],
      "name": "contestAddressTotalVotesCast",
      "outputs": [
        {
          "internalType": "uint256",
          "name": "userTotalVotesCast",
          "type": "uint256"
        }
      ],
      "stateMutability": "view",
      "type": "function"
    },
    {
      "inputs": [],
      "name": "contestDeadline",
      "outputs": [
        {
          "internalType": "uint256",
          "name": "",
          "type": "uint256"
        }
      ],
      "stateMutability": "view",
      "type": "function"
    },
    {
      "inputs": [],
      "name": "contestStart",
      "outputs": [
        {
          "internalType": "uint256",
          "name": "",
          "type": "uint256"
        }
      ],
      "stateMutability": "view",
      "type": "function"
    },
    {
      "inputs": [],
      "name": "creator",
      "outputs": [
        {
          "internalType": "address",
          "name": "",
          "type": "address"
        }
      ],
      "stateMutability": "view",
      "type": "function"
    },
    {
      "inputs": [
        {
          "internalType": "uint256[]",
          "name": "proposalIds",
          "type": "uint256[]"
        }
      ],
      "name": "deleteProposals",
      "outputs": [],
      "stateMutability": "nonpayable",
      "type": "function"
    },
    {
      "inputs": [],
      "name": "downvotingAllowed",
      "outputs": [
        {
          "internalType": "uint256",
          "name": "",
          "type": "uint256"
        }
      ],
      "stateMutability": "view",
      "type": "function"
    },
    {
      "inputs": [],
      "name": "eip712Domain",
      "outputs": [
        {
          "internalType": "bytes1",
          "name": "fields",
          "type": "bytes1"
        },
        {
          "internalType": "string",
          "name": "name",
          "type": "string"
        },
        {
          "internalType": "string",
          "name": "version",
          "type": "string"
        },
        {
          "internalType": "uint256",
          "name": "chainId",
          "type": "uint256"
        },
        {
          "internalType": "address",
          "name": "verifyingContract",
          "type": "address"
        },
        {
          "internalType": "bytes32",
          "name": "salt",
          "type": "bytes32"
        },
        {
          "internalType": "uint256[]",
          "name": "extensions",
          "type": "uint256[]"
        }
      ],
      "stateMutability": "view",
      "type": "function"
    },
    {
      "inputs": [],
      "name": "getAllDeletedProposalIds",
      "outputs": [
        {
          "internalType": "uint256[]",
          "name": "",
          "type": "uint256[]"
        }
      ],
      "stateMutability": "view",
      "type": "function"
    },
    {
      "inputs": [],
      "name": "getAllProposalIds",
      "outputs": [
        {
          "internalType": "uint256[]",
          "name": "",
          "type": "uint256[]"
        }
      ],
      "stateMutability": "view",
      "type": "function"
    },
    {
      "inputs": [
        {
          "internalType": "address",
          "name": "account",
          "type": "address"
        }
      ],
      "name": "getNumSubmissions",
      "outputs": [
        {
          "internalType": "uint256",
          "name": "",
          "type": "uint256"
        }
      ],
      "stateMutability": "view",
      "type": "function"
    },
    {
      "inputs": [
        {
          "internalType": "uint256",
          "name": "proposalId",
          "type": "uint256"
        }
      ],
      "name": "getProposal",
      "outputs": [
        {
          "components": [
            {
              "internalType": "address",
              "name": "author",
              "type": "address"
            },
            {
              "internalType": "bool",
              "name": "exists",
              "type": "bool"
            },
            {
              "internalType": "string",
              "name": "description",
              "type": "string"
            },
            {
              "components": [
                {
                  "internalType": "address",
                  "name": "targetAddress",
                  "type": "address"
                }
              ],
              "internalType": "struct IGovernor.TargetMetadata",
              "name": "targetMetadata",
              "type": "tuple"
            },
            {
              "components": [
                {
                  "internalType": "address[]",
                  "name": "signers",
                  "type": "address[]"
                },
                {
                  "internalType": "uint256",
                  "name": "threshold",
                  "type": "uint256"
                }
              ],
              "internalType": "struct IGovernor.SafeMetadata",
              "name": "safeMetadata",
              "type": "tuple"
            }
          ],
          "internalType": "struct IGovernor.ProposalCore",
          "name": "",
          "type": "tuple"
        }
      ],
      "stateMutability": "view",
      "type": "function"
    },
    {
      "inputs": [
        {
          "components": [
            {
              "internalType": "address",
              "name": "author",
              "type": "address"
            },
            {
              "internalType": "bool",
              "name": "exists",
              "type": "bool"
            },
            {
              "internalType": "string",
              "name": "description",
              "type": "string"
            },
            {
              "components": [
                {
                  "internalType": "address",
                  "name": "targetAddress",
                  "type": "address"
                }
              ],
              "internalType": "struct IGovernor.TargetMetadata",
              "name": "targetMetadata",
              "type": "tuple"
            },
            {
              "components": [
                {
                  "internalType": "address[]",
                  "name": "signers",
                  "type": "address[]"
                },
                {
                  "internalType": "uint256",
                  "name": "threshold",
                  "type": "uint256"
                }
              ],
              "internalType": "struct IGovernor.SafeMetadata",
              "name": "safeMetadata",
              "type": "tuple"
            }
          ],
          "internalType": "struct IGovernor.ProposalCore",
          "name": "proposal",
          "type": "tuple"
        }
      ],
      "name": "hashProposal",
      "outputs": [
        {
          "internalType": "uint256",
          "name": "",
          "type": "uint256"
        }
      ],
      "stateMutability": "pure",
      "type": "function"
    },
    {
      "inputs": [],
      "name": "highestTiedRanking",
      "outputs": [
        {
          "internalType": "uint256",
          "name": "",
          "type": "uint256"
        }
      ],
      "stateMutability": "view",
      "type": "function"
    },
    {
      "inputs": [
        {
          "internalType": "uint256",
          "name": "proposalId",
          "type": "uint256"
        }
      ],
      "name": "isProposalDeleted",
      "outputs": [
        {
          "internalType": "bool",
          "name": "",
          "type": "bool"
        }
      ],
      "stateMutability": "view",
      "type": "function"
    },
    {
      "inputs": [
        {
          "internalType": "uint256",
          "name": "ranking",
          "type": "uint256"
        }
      ],
      "name": "isTied",
      "outputs": [
        {
          "internalType": "bool",
          "name": "",
          "type": "bool"
        }
      ],
      "stateMutability": "view",
      "type": "function"
    },
    {
      "inputs": [],
      "name": "lowestRanking",
      "outputs": [
        {
          "internalType": "uint256",
          "name": "",
          "type": "uint256"
        }
      ],
      "stateMutability": "view",
      "type": "function"
    },
    {
      "inputs": [],
      "name": "maxProposalCount",
      "outputs": [
        {
          "internalType": "uint256",
          "name": "",
          "type": "uint256"
        }
      ],
      "stateMutability": "view",
      "type": "function"
    },
    {
      "inputs": [],
      "name": "name",
      "outputs": [
        {
          "internalType": "string",
          "name": "",
          "type": "string"
        }
      ],
      "stateMutability": "view",
      "type": "function"
    },
    {
      "inputs": [],
      "name": "numAllowedProposalSubmissions",
      "outputs": [
        {
          "internalType": "uint256",
          "name": "",
          "type": "uint256"
        }
      ],
      "stateMutability": "view",
      "type": "function"
    },
    {
      "inputs": [],
      "name": "officialRewardsModule",
      "outputs": [
        {
          "internalType": "contract RewardsModule",
          "name": "",
          "type": "address"
        }
      ],
      "stateMutability": "view",
      "type": "function"
    },
    {
      "inputs": [],
      "name": "prompt",
      "outputs": [
        {
          "internalType": "string",
          "name": "",
          "type": "string"
        }
      ],
      "stateMutability": "view",
      "type": "function"
    },
    {
      "inputs": [
        {
          "internalType": "uint256",
          "name": "proposalId",
          "type": "uint256"
        },
        {
          "internalType": "address",
          "name": "userAddress",
          "type": "address"
        }
      ],
      "name": "proposalAddressVotes",
      "outputs": [
        {
          "internalType": "uint256",
          "name": "forVotes",
          "type": "uint256"
        },
        {
          "internalType": "uint256",
          "name": "againstVotes",
          "type": "uint256"
        }
      ],
      "stateMutability": "view",
      "type": "function"
    },
    {
      "inputs": [
        {
          "internalType": "uint256",
          "name": "proposalId",
          "type": "uint256"
        }
      ],
      "name": "proposalAddressesHaveVoted",
      "outputs": [
        {
          "internalType": "address[]",
          "name": "",
          "type": "address[]"
        }
      ],
      "stateMutability": "view",
      "type": "function"
    },
    {
      "inputs": [
        {
          "internalType": "uint256",
          "name": "proposalId",
          "type": "uint256"
        }
      ],
      "name": "proposalVotes",
      "outputs": [
        {
          "internalType": "uint256",
          "name": "forVotes",
          "type": "uint256"
        },
        {
          "internalType": "uint256",
          "name": "againstVotes",
          "type": "uint256"
        }
      ],
      "stateMutability": "view",
      "type": "function"
    },
    {
      "inputs": [
        {
          "internalType": "uint256",
          "name": "",
          "type": "uint256"
        }
      ],
      "name": "proposalVotesStructs",
      "outputs": [
        {
          "components": [
            {
              "internalType": "uint256",
              "name": "forVotes",
              "type": "uint256"
            },
            {
              "internalType": "uint256",
              "name": "againstVotes",
              "type": "uint256"
            }
          ],
          "internalType": "struct GovernorCountingSimple.VoteCounts",
          "name": "proposalVoteCounts",
          "type": "tuple"
        }
      ],
      "stateMutability": "view",
      "type": "function"
    },
    {
      "inputs": [
        {
          "components": [
            {
              "internalType": "address",
              "name": "author",
              "type": "address"
            },
            {
              "internalType": "bool",
              "name": "exists",
              "type": "bool"
            },
            {
              "internalType": "string",
              "name": "description",
              "type": "string"
            },
            {
              "components": [
                {
                  "internalType": "address",
                  "name": "targetAddress",
                  "type": "address"
                }
              ],
              "internalType": "struct IGovernor.TargetMetadata",
              "name": "targetMetadata",
              "type": "tuple"
            },
            {
              "components": [
                {
                  "internalType": "address[]",
                  "name": "signers",
                  "type": "address[]"
                },
                {
                  "internalType": "uint256",
                  "name": "threshold",
                  "type": "uint256"
                }
              ],
              "internalType": "struct IGovernor.SafeMetadata",
              "name": "safeMetadata",
              "type": "tuple"
            }
          ],
          "internalType": "struct IGovernor.ProposalCore",
          "name": "proposal",
          "type": "tuple"
        },
        {
          "internalType": "bytes32[]",
          "name": "proof",
          "type": "bytes32[]"
        }
      ],
      "name": "propose",
      "outputs": [
        {
          "internalType": "uint256",
          "name": "",
          "type": "uint256"
        }
      ],
      "stateMutability": "nonpayable",
      "type": "function"
    },
    {
      "inputs": [
        {
          "components": [
            {
              "internalType": "address",
              "name": "author",
              "type": "address"
            },
            {
              "internalType": "bool",
              "name": "exists",
              "type": "bool"
            },
            {
              "internalType": "string",
              "name": "description",
              "type": "string"
            },
            {
              "components": [
                {
                  "internalType": "address",
                  "name": "targetAddress",
                  "type": "address"
                }
              ],
              "internalType": "struct IGovernor.TargetMetadata",
              "name": "targetMetadata",
              "type": "tuple"
            },
            {
              "components": [
                {
                  "internalType": "address[]",
                  "name": "signers",
                  "type": "address[]"
                },
                {
                  "internalType": "uint256",
                  "name": "threshold",
                  "type": "uint256"
                }
              ],
              "internalType": "struct IGovernor.SafeMetadata",
              "name": "safeMetadata",
              "type": "tuple"
            }
          ],
          "internalType": "struct IGovernor.ProposalCore",
          "name": "proposal",
          "type": "tuple"
        }
      ],
      "name": "proposeWithoutProof",
      "outputs": [
        {
          "internalType": "uint256",
          "name": "",
          "type": "uint256"
        }
      ],
      "stateMutability": "nonpayable",
      "type": "function"
    },
    {
      "inputs": [
        {
          "internalType": "uint256",
          "name": "ranking",
          "type": "uint256"
        }
      ],
      "name": "rankingPosition",
      "outputs": [
        {
          "internalType": "uint256",
          "name": "",
          "type": "uint256"
        }
      ],
      "stateMutability": "view",
      "type": "function"
    },
    {
      "inputs": [
        {
          "internalType": "contract RewardsModule",
          "name": "officialRewardsModule_",
          "type": "address"
        }
      ],
      "name": "setOfficialRewardsModule",
      "outputs": [],
      "stateMutability": "nonpayable",
      "type": "function"
    },
    {
      "inputs": [],
      "name": "setSortedAndTiedProposals",
      "outputs": [],
      "stateMutability": "nonpayable",
      "type": "function"
    },
    {
      "inputs": [],
      "name": "setSortedAndTiedProposalsHasBeenRun",
      "outputs": [
        {
          "internalType": "bool",
          "name": "",
          "type": "bool"
        }
      ],
      "stateMutability": "view",
      "type": "function"
    },
    {
      "inputs": [],
      "name": "sortedProposalIds",
      "outputs": [
        {
          "internalType": "uint256[]",
          "name": "",
          "type": "uint256[]"
        }
      ],
      "stateMutability": "view",
      "type": "function"
    },
    {
      "inputs": [
        {
          "internalType": "bool",
          "name": "excludeDeletedProposals",
          "type": "bool"
        }
      ],
      "name": "sortedProposals",
      "outputs": [
        {
          "internalType": "uint256[]",
          "name": "sortedProposalIdsReturn",
          "type": "uint256[]"
        }
      ],
      "stateMutability": "view",
      "type": "function"
    },
    {
      "inputs": [],
      "name": "state",
      "outputs": [
        {
          "internalType": "enum IGovernor.ContestState",
          "name": "",
          "type": "uint8"
        }
      ],
      "stateMutability": "view",
      "type": "function"
    },
    {
      "inputs": [],
      "name": "submissionMerkleRoot",
      "outputs": [
        {
          "internalType": "bytes32",
          "name": "",
          "type": "bytes32"
        }
      ],
      "stateMutability": "view",
      "type": "function"
    },
    {
      "inputs": [
        {
          "internalType": "bytes4",
          "name": "interfaceId",
          "type": "bytes4"
        }
      ],
      "name": "supportsInterface",
      "outputs": [
        {
          "internalType": "bool",
          "name": "",
          "type": "bool"
        }
      ],
      "stateMutability": "view",
      "type": "function"
    },
    {
      "inputs": [
        {
          "internalType": "uint256",
          "name": "",
          "type": "uint256"
        }
      ],
      "name": "tiedAdjustedRankingPosition",
      "outputs": [
        {
          "internalType": "uint256",
          "name": "",
          "type": "uint256"
        }
      ],
      "stateMutability": "view",
      "type": "function"
    },
    {
      "inputs": [],
      "name": "totalVotesCast",
      "outputs": [
        {
          "internalType": "uint256",
          "name": "",
          "type": "uint256"
        }
      ],
      "stateMutability": "view",
      "type": "function"
    },
    {
      "inputs": [
        {
          "components": [
            {
              "internalType": "address",
              "name": "author",
              "type": "address"
            },
            {
              "internalType": "bool",
              "name": "exists",
              "type": "bool"
            },
            {
              "internalType": "string",
              "name": "description",
              "type": "string"
            },
            {
              "components": [
                {
                  "internalType": "address",
                  "name": "targetAddress",
                  "type": "address"
                }
              ],
              "internalType": "struct IGovernor.TargetMetadata",
              "name": "targetMetadata",
              "type": "tuple"
            },
            {
              "components": [
                {
                  "internalType": "address[]",
                  "name": "signers",
                  "type": "address[]"
                },
                {
                  "internalType": "uint256",
                  "name": "threshold",
                  "type": "uint256"
                }
              ],
              "internalType": "struct IGovernor.SafeMetadata",
              "name": "safeMetadata",
              "type": "tuple"
            }
          ],
          "internalType": "struct IGovernor.ProposalCore",
          "name": "proposal",
          "type": "tuple"
        }
      ],
      "name": "validateProposalData",
      "outputs": [
        {
          "internalType": "bool",
          "name": "dataValidated",
          "type": "bool"
        }
      ],
      "stateMutability": "nonpayable",
      "type": "function"
    },
    {
      "inputs": [
        {
          "internalType": "address",
          "name": "account",
          "type": "address"
        },
        {
          "internalType": "bytes32[]",
          "name": "proof",
          "type": "bytes32[]"
        }
      ],
      "name": "verifyProposer",
      "outputs": [
        {
          "internalType": "bool",
          "name": "verified",
          "type": "bool"
        }
      ],
      "stateMutability": "nonpayable",
      "type": "function"
    },
    {
      "inputs": [
        {
          "internalType": "address",
          "name": "account",
          "type": "address"
        },
        {
          "internalType": "uint256",
          "name": "totalVotes",
          "type": "uint256"
        },
        {
          "internalType": "bytes32[]",
          "name": "proof",
          "type": "bytes32[]"
        }
      ],
      "name": "verifyVoter",
      "outputs": [
        {
          "internalType": "bool",
          "name": "verified",
          "type": "bool"
        }
      ],
      "stateMutability": "nonpayable",
      "type": "function"
    },
    {
      "inputs": [],
      "name": "version",
      "outputs": [
        {
          "internalType": "string",
          "name": "",
          "type": "string"
        }
      ],
      "stateMutability": "view",
      "type": "function"
    },
    {
      "inputs": [],
      "name": "voteStart",
      "outputs": [
        {
          "internalType": "uint256",
          "name": "",
          "type": "uint256"
        }
      ],
      "stateMutability": "view",
      "type": "function"
    },
    {
      "inputs": [],
      "name": "votingDelay",
      "outputs": [
        {
          "internalType": "uint256",
          "name": "",
          "type": "uint256"
        }
      ],
      "stateMutability": "view",
      "type": "function"
    },
    {
      "inputs": [],
      "name": "votingMerkleRoot",
      "outputs": [
        {
          "internalType": "bytes32",
          "name": "",
          "type": "bytes32"
        }
      ],
      "stateMutability": "view",
      "type": "function"
    },
    {
      "inputs": [],
      "name": "votingPeriod",
      "outputs": [
        {
          "internalType": "uint256",
          "name": "",
          "type": "uint256"
        }
      ],
      "stateMutability": "view",
      "type": "function"
    }
  ],
  "bytecode": {
    "object": "0x6101a06040526017805460ff191690553480156200001c57600080fd5b5060405162004503380380620045038339810160408190526200003f9162000622565b8060008151811062000055576200005562000733565b60200260200101518160018151811062000073576200007362000733565b60200260200101518260028151811062000091576200009162000733565b602002602001015183600381518110620000af57620000af62000733565b602002602001015184600481518110620000cd57620000cd62000733565b602002602001015185600581518110620000eb57620000eb62000733565b60200260200101518a8a8a8a8181856200010a6200025060201b60201c565b620001178260006200026e565b61012052620001288160016200026e565b61014052815160208084019190912060e052815190820120610100524660a052620001b660e05161010051604080517f8b73c3c69bb8fe3d512ecc4cf759cc79239f7b179b0ffacaa9a75d522b39400f60208201529081019290925260608201524660808201523060a082015260009060c00160405160208183030381529060405280519060200120905090565b60805250503060c05261016091909152610180526008620001d88582620007d8565b506009620001e78482620007d8565b5050505050620001fd86620002a760201b60201c565b6200020885620002e8565b620002138462000329565b6200021e83620003d0565b620002298262000411565b620002348162000452565b6200023f3362000493565b5050505050505050505050620008fe565b604080518082019091526004815263332e313160e01b602082015290565b60006020835110156200028e576200028683620004fc565b9050620002a1565b816200029b8482620007d8565b5060ff90505b92915050565b600d5460408051918252602082018390527fd299feb1d7d9345a48559601c471c3be7eea9a11f21d5e86809198f40a974db4910160405180910390a1600d55565b600e5460408051918252602082018390527fc565b045403dc03c2eea82b81a0465edad9e2e7fc4d97e11421c209da93d7a93910160405180910390a1600e55565b600081116200038f5760405162461bcd60e51b815260206004820152602760248201527f476f7665726e6f7253657474696e67733a20766f74696e6720706572696f6420604482015266746f6f206c6f7760c81b60648201526084015b60405180910390fd5b600f5460408051918252602082018390527f7e3f7f0708a84de9203036abaa450dccc85ad5ff52f78c170f3edb55cf5e8828910160405180910390a1600f55565b60105460408051918252602082018390527fe971b819c7fb95c72451f557226aceb5baaf4994a9d39a79bbfa0040e87500b9910160405180910390a1601055565b60115460408051918252602082018390527f4984ec996723330ee95979ed65a2a4b41edd914e68a187efe92596474643bdff910160405180910390a1601155565b60125460408051918252602082018390527f9c7b27f091caef3a83be73d89320404fa0c4a52993685ff0651672e49e6e55ab910160405180910390a1601255565b601354604080516001600160a01b03928316815291831660208301527fc30034fc2e9697980e08935bbc287db3eaa44a4aa113ef4c108b356adbf911ce910160405180910390a1601380546001600160a01b0319166001600160a01b0392909216919091179055565b600080829050601f815111156200052a578260405163305a27a960e01b8152600401620003869190620008a4565b80516200053782620008d9565b179392505050565b634e487b7160e01b600052604160045260246000fd5b604051601f8201601f191681016001600160401b03811182821017156200058057620005806200053f565b604052919050565b60005b83811015620005a55781810151838201526020016200058b565b50506000910152565b600082601f830112620005c057600080fd5b81516001600160401b03811115620005dc57620005dc6200053f565b620005f1601f8201601f191660200162000555565b8181528460208386010111156200060757600080fd5b6200061a82602083016020870162000588565b949350505050565b600080600080600060a086880312156200063b57600080fd5b85516001600160401b03808211156200065357600080fd5b6200066189838a01620005ae565b96506020915081880151818111156200067957600080fd5b620006878a828b01620005ae565b9650506040880151945060608801519350608088015181811115620006ab57600080fd5b8801601f81018a13620006bd57600080fd5b805182811115620006d257620006d26200053f565b8060051b9250620006e584840162000555565b818152928201840192848101908c8511156200070057600080fd5b928501925b84841015620007205783518252928501929085019062000705565b8096505050505050509295509295909350565b634e487b7160e01b600052603260045260246000fd5b600181811c908216806200075e57607f821691505b6020821081036200077f57634e487b7160e01b600052602260045260246000fd5b50919050565b601f821115620007d357600081815260208120601f850160051c81016020861015620007ae5750805b601f850160051c820191505b81811015620007cf57828155600101620007ba565b5050505b505050565b81516001600160401b03811115620007f457620007f46200053f565b6200080c8162000805845462000749565b8462000785565b602080601f8311600181146200084457600084156200082b5750858301515b600019600386901b1c1916600185901b178555620007cf565b600085815260208120601f198616915b82811015620008755788860151825594840194600190910190840162000854565b5085821015620008945787850151600019600388901b60f8161c191681555b5050505050600190811b01905550565b6020815260008251806020840152620008c581604085016020870162000588565b601f01601f19169190910160400192915050565b805160208083015191908110156200077f5760001960209190910360031b1b16919050565b60805160a05160c05160e0516101005161012051610140516101605161018051613b876200097c6000396000818161080b0152610c1e01526000818161072b01528181610a6601528181610bb90152610ec5015260006112590152600061122f01526000505060005050600050506000505060005050613b876000f3fe608060405234801561001057600080fd5b50600436106103a35760003560e01c80637de418d5116101e9578063d45a010b1161010f578063e5eb5a48116100ad578063f0a7db0a1161007c578063f0a7db0a146108b4578063f4f3d7ec146108c7578063fb8ddab4146108da578063fb9bf8d4146108ed57600080fd5b8063e5eb5a481461087c578063ea8a1af01461089c578063ebc18b9b146108a4578063efa90d36146108ac57600080fd5b8063dd96a19d116100e9578063dd96a19d14610806578063dea5f6a61461082d578063deaaa7cc1461084d578063e031535b1461087457600080fd5b8063d45a010b146107b8578063d8891619146107c0578063dd4e2ba5146107cd57600080fd5b8063a1ac6cb211610187578063c0ffaa7811610156578063c0ffaa781461074d578063c19d93fb14610760578063c7f758a814610775578063cb8539501461079557600080fd5b8063a1ac6cb2146106bd578063aec116b6146106dd578063b323580d14610706578063bddc16411461072657600080fd5b806386187488116101c357806386187488146106755780638a9cd55014610688578063930de9791461069057806396f0e962146106b357600080fd5b80637de418d514610649578063832009af1461065257806384b0196e1461065a57600080fd5b8063427d56c2116102ce57806354fd4d501161026c5780636ca1a2c71161023b5780636ca1a2c7146106155780636e4eb8101461061d578063785ddfe5146106305780637c65d7111461064157600080fd5b806354fd4d50146105b15780635f953a03146105d157806360506ff6146105fa57806365f162631461060257600080fd5b80634d24a67f116102a85780634d24a67f1461054357806350a5e5241461054b578063531bd81214610561578063544ffc9c1461057457600080fd5b8063427d56c21461050a578063458da87d1461051d578063476f4d8a1461053057600080fd5b806320b3e84511610346578063347cf66511610315578063347cf665146104bd5780633932abb1146104cc5780633b6d199b146104d4578063419c533c146104f757600080fd5b806320b3e8451461047c5780632399c6601461048f578063262e59e9146104a257806332763c22146104aa57600080fd5b806302d05d3f1161038257806302d05d3f146103ee57806306fdde031461040e578063070dc5d9146104235780631242b7371461046757600080fd5b80624114a8146103a857806301ffc9a7146103c357806302a251a3146103e6575b600080fd5b6103b06108f5565b6040519081526020015b60405180910390f35b6103d66103d1366004612eda565b610905565b60405190151581526020016103ba565b6103b061093c565b6103f6610947565b6040516001600160a01b0390911681526020016103ba565b61041661095b565b6040516103ba9190612f4a565b61045a610431366004612f5d565b601660209081526000918252604091829020825180840190935280548352600101549082015281565b6040516103ba9190612f76565b61046f6109ed565b6040516103ba9190612fc8565b6103d661048a366004613037565b610a44565b6103d661049d366004612f5d565b610ada565b6103b0610b1e565b6103d66104b83660046130a0565b610b3a565b6103b0678ac7230489e8000081565b6103b0610c77565b6103d66104e2366004612f5d565b60009081526007602052604090205460ff1690565b6103b0610505366004613121565b610c82565b61046f610518366004613191565b610ce8565b6103b061052b366004613457565b610e90565b6103b061053e366004613457565b610ec1565b6103b0600281565b610553610f2b565b6040516103ba92919061348b565b6103d661056f3660046134f4565b611031565b61059c610582366004612f5d565b600090815260166020526040902080546001909101549091565b604080519283526020830191909152016103ba565b604080518082019091526004815263332e313160e01b6020820152610416565b6103b06105df36600461354f565b6001600160a01b03166000908152600c602052604090205490565b6103b061109c565b6103b061061036600461356c565b6110a7565b6103b06111a6565b61059c61062b3660046135a1565b6111d2565b601d546001600160a01b03166103f6565b610416611207565b6103b060145481565b6103b0611216565b610662611221565b6040516103ba97969594939291906135d1565b6103b0610683366004612f5d565b6112a9565b61046f6112e1565b6103d661069e36600461354f565b60036020526000908152604090205460ff1681565b6106bb61135a565b005b6103b06106cb36600461354f565b60156020526000908152604090205481565b6103b06106eb36600461354f565b6001600160a01b031660009081526015602052604090205490565b610719610714366004612f5d565b61167f565b6040516103ba919061367a565b6103b07f000000000000000000000000000000000000000000000000000000000000000081565b6103b061075b36600461368d565b6116f1565b610768611735565b6040516103ba91906136fe565b610788610783366004612f5d565b6117a7565b6040516103ba9190613726565b6103d66107a336600461354f565b60046020526000908152604090205460ff1681565b610553611921565b6017546103d69060ff1681565b60408051808201909152601881527f737570706f72743d627261766f2671756f72756d3d666f7200000000000000006020820152610416565b6103b07f000000000000000000000000000000000000000000000000000000000000000081565b6103b061083b36600461354f565b60026020526000908152604090205481565b6103b07f150214d74d59b7d1e90c73fc22ef3d991dd0a76b046543d4d80ab92d2a50328f81565b6103b0611aec565b6103b061088a366004612f5d565b60186020526000908152604090205481565b6106bb611afe565b6103b0611be8565b61046f611c14565b6106bb6108c23660046137ac565b611c6a565b6106bb6108d536600461354f565b611e7a565b6103d66108e8366004613457565b611f15565b6103b061218d565b6000610900600d5490565b905090565b60006001600160e01b0319821663eed9776760e01b148061093657506301ffc9a760e01b6001600160e01b03198316145b92915050565b6000610900600f5490565b60006109006013546001600160a01b031690565b60606008805461096a9061383c565b80601f01602080910402602001604051908101604052809291908181526020018280546109969061383c565b80156109e35780601f106109b8576101008083540402835291602001916109e3565b820191906000526020600020905b8154815290600101906020018083116109c657829003601f168201915b5050505050905090565b606060068054806020026020016040519081016040528092919081815260200182805480156109e357602002820191906000526020600020905b815481526020019060010190808311610a27575050505050905090565b6001600160a01b03831660009081526004602052604081205460ff16610acf577f0000000000000000000000000000000000000000000000000000000000000000600003610a9457506001610ad3565b610aaa84678ac7230489e8000085856000610b3a565b506001600160a01b0384166000908152600460205260409020805460ff191660011790555b5060015b9392505050565b60175460009060ff16610b085760405162461bcd60e51b8152600401610aff90613876565b60405180910390fd5b5060009081526019602052604090205460ff1690565b6000610b2861093c565b610b30611aec565b61090091906138f7565b6040516bffffffffffffffffffffffff19606087901b166020820152603481018590526000908190605401604051602081830303815290604052805190602001209050600083610be957610be48686808060200260200160405190810160405280939291908181526020018383602002808284376000920191909152507f000000000000000000000000000000000000000000000000000000000000000092508691506121989050565b610c49565b610c498686808060200260200160405190810160405280939291908181526020018383602002808284376000920191909152507f000000000000000000000000000000000000000000000000000000000000000092508691506121989050565b905080610c695760405163452c2df160e11b815260040160405180910390fd5b506001979650505050505050565b6000610900600e5490565b600086815260076020526040812054339060ff1615610cb35760405162461bcd60e51b8152600401610aff9061390a565b610cbf81878686611031565b50610cdc88828988604051806020016040528060008152506121ae565b98975050505050505050565b606060008083610cff57610cfa610f2b565b610d07565b610d07611921565b915091506000825111610d775760405162461bcd60e51b815260206004820152603260248201527f476f7665726e6f72536f7274696e673a2063616e6e6f7420736f72742061206c6044820152710d2e6e840decc40f4cae4de40d8cadccee8d60731b6064820152608401610aff565b600082516001600160401b03811115610d9257610d926131ac565b604051908082528060200260200182016040528015610dbb578160200160208202803683370190505b50905060005b8251811015610e4f57610df0838281518110610ddf57610ddf613959565b6020026020010151602001516123c8565b610e16848381518110610e0557610e05613959565b6020026020010151600001516123c8565b610e20919061396f565b828281518110610e3257610e32613959565b602090810291909101015280610e4781613996565b915050610dc1565b5060005b60018451610e6191906139af565b811015610e8657610e73818386612436565b5080610e7e81613996565b915050610e53565b5091949350505050565b600081604051602001610ea39190613726565b60408051601f19818403018152919052805160209091012092915050565b60007f000000000000000000000000000000000000000000000000000000000000000015610f18573360009081526004602052604090205460ff16610f185760405162461bcd60e51b8152600401610aff906139c2565b610f2182611f15565b506109368261259c565b6060806000610f38611c14565b9050600081516001600160401b03811115610f5557610f556131ac565b604051908082528060200260200182016040528015610f9a57816020015b6040805180820190915260008082526020820152815260200190600190039081610f735790505b50905060005b82518110156110275760166000848381518110610fbf57610fbf613959565b602002602001015181526020019081526020016000206000016040518060400160405290816000820154815260200160018201548152505082828151811061100957611009613959565b6020026020010181905250808061101f90613996565b915050610fa0565b5090939092509050565b6001600160a01b03841660009081526003602052604081205460ff166110915761105f858585856001610b3a565b506001600160a01b038516600090815260026020908152604080832087905560039091529020805460ff191660011790555b506001949350505050565b600061090060125490565b600083815260076020526040812054339060ff16156110d85760405162461bcd60e51b8152600401610aff9061390a565b6001600160a01b03811660009081526003602052604090205460ff166111815760405162461bcd60e51b815260206004820152605260248201527f476f7665726e6f723a20796f75206e65656420746f2063617374206120766f7460448201527f652077697468207468652070726f6f66206174206c65617374206f6e636520616064820152711b99081e5bdd481a185d995b89dd081e595d60721b608482015260a401610aff565b61119d85828686604051806020016040528060008152506121ae565b95945050505050565b60175460009060ff166111cb5760405162461bcd60e51b8152600401610aff90613876565b50601b5490565b60008281526016602090815260408083206001600160a01b0385168452600301909152902080546001909101545b9250929050565b60606009805461096a9061383c565b600061090060105490565b6000606080828080836112547f000000000000000000000000000000000000000000000000000000000000000083612936565b61127f7f00000000000000000000000000000000000000000000000000000000000000006001612936565b60408051600080825260208201909252600f60f81b9b939a50919850469750309650945092509050565b60175460009060ff166112ce5760405162461bcd60e51b8152600401610aff90613876565b5060009081526018602052604090205490565b60175460609060ff166113065760405162461bcd60e51b8152600401610aff90613876565b601a8054806020026020016040519081016040528092919081815260200182805480156109e35760200282019190600052602060002090815481526020019060010190808311610a27575050505050905090565b6004611364611735565b6004811115611375576113756136e8565b146113f85760405162461bcd60e51b815260206004820152604760248201527f476f7665726e6f72536f7274696e673a20636f6e74657374206d75737420626560448201527f20746f2063616c63756c61746520736f7274656420616e6420746965642070726064820152666f706f73616c7360c81b608482015260a401610aff565b60175460ff16156114975760405162461bcd60e51b815260206004820152605f60248201527f476f7665726e6f72536f7274696e673a20736574536f72746564416e6454696560448201527f6450726f706f73616c7328292068617320616c7265616479206265656e20727560648201527f6e20616e642069747320726573706563746976652076616c7565732073657400608482015260a401610aff565b6114a16001610ce8565b80516114b591601a91602090910190612db8565b50601a546000906001906114c990826138f7565b601c5560005b601a5481101561166d57601a546000906114eb906001906139af565b9050600080611534601a6114ff86866139af565b8154811061150f5761150f613959565b9060005260206000200154600090815260166020526040902080546001909101549091565b915091506000611543826123c8565b61154c846123c8565b611556919061396f565b90508460000361159757601a54909650869060010361158e5761157985856139af565b600087815260186020526040902055601b8690555b5050505061165b565b8681036115ea5760008681526019602052604090205460ff166115ce576000868152601960205260409020805460ff191660011790555b601a546115dc9060016138f7565b601c54036115ea57601c8690555b868114611623576115fb85856139af565b6116069060016138f7565b6000878152601860205260409020558561161f81613996565b9650505b601a546116318660016138f7565b036116555761164085856139af565b600087815260186020526040902055601b8690555b95505050505b8061166581613996565b9150506114cf565b50506017805460ff1916600117905550565b60008181526016602090815260409182902060028101805484518185028101850190955280855260609492938301828280156116e457602002820191906000526020600020905b81546001600160a01b031681526001909101906020018083116116c6575b5050505050915050919050565b60006116fe338484610a44565b61171a5760405162461bcd60e51b8152600401610aff906139c2565b61172384611f15565b5061172d8461259c565b949350505050565b600a5460009060ff16156117495750600290565b60006117536108f5565b905042811061176457600091505090565b600061176e611aec565b90504281106117805760039250505090565b600061178a610b1e565b905042811061179d576001935050505090565b6004935050505090565b6117af612dff565b6000828152600b6020908152604091829020825160a08101845281546001600160a01b0381168252600160a01b900460ff1615159281019290925260018101805492939192918401916118019061383c565b80601f016020809104026020016040519081016040528092919081815260200182805461182d9061383c565b801561187a5780601f1061184f5761010080835404028352916020019161187a565b820191906000526020600020905b81548152906001019060200180831161185d57829003601f168201915b5050509183525050604080516020818101835260028501546001600160a01b0316825280840191909152815160038501805460609381028301840185528285018181529490950194919390928492849184018282801561190357602002820191906000526020600020905b81546001600160a01b031681526001909101906020018083116118e5575b50505050508152602001600182015481525050815250509050919050565b606080600061192e611c14565b9050600081516001600160401b0381111561194b5761194b6131ac565b604051908082528060200260200182016040528015611974578160200160208202803683370190505b509050600082516001600160401b03811115611992576119926131ac565b6040519080825280602002602001820160405280156119d757816020015b60408051808201909152600080825260208201528152602001906001900390816119b05790505b5090506000805b8451811015611ae057611a198582815181106119fc576119fc613959565b602002602001015160009081526007602052604090205460ff1690565b611ace57848181518110611a2f57611a2f613959565b6020026020010151848381518110611a4957611a49613959565b60200260200101818152505060166000868381518110611a6b57611a6b613959565b6020026020010151815260200190815260200160002060000160405180604001604052908160008201548152602001600182015481525050838381518110611ab557611ab5613959565b6020908102919091010152611acb6001836138f7565b91505b80611ad881613996565b9150506119de565b50919590945092505050565b6000611af6610c77565b610b306108f5565b611b06610947565b6001600160a01b0316336001600160a01b031614611b2357600080fd5b6000611b2d611735565b90506002816004811115611b4357611b436136e8565b14158015611b6357506004816004811115611b6057611b606136e8565b14155b611baf5760405162461bcd60e51b815260206004820152601c60248201527f476f7665726e6f723a20636f6e74657374206e6f7420616374697665000000006044820152606401610aff565b600a805460ff191660011790556040517f4cd963a081760a54f571abc0f1db4dde31b4a07d8d6da3e844b8c6f47eeaaa4290600090a150565b60175460009060ff16611c0d5760405162461bcd60e51b8152600401610aff90613876565b50601c5490565b606060058054806020026020016040519081016040528092919081815260200182805480156109e35760200282019190600052602060002090815481526020019060010190808311610a27575050505050905090565b611c72610947565b6001600160a01b0316336001600160a01b031614611cf85760405162461bcd60e51b815260206004820152603760248201527f476f7665726e6f723a206f6e6c792074686520636f6e7465737420637265617460448201527f6f722063616e2064656c6574652070726f706f73616c730000000000000000006064820152608401610aff565b6004611d02611735565b6004811115611d1357611d136136e8565b03611d985760405162461bcd60e51b815260206004820152604960248201527f476f7665726e6f723a2064656c6574696f6e206f662070726f706f73616c732060448201527f61667465722074686520656e64206f66206120636f6e74657374206973206e6f6064820152681d08185b1b1bddd95960ba1b608482015260a401610aff565b60005b8151811015611e3f576000828281518110611db857611db8613959565b6020908102919091018101516000818152600790925260409091205490915060ff16611e2c576000818152600760205260408120805460ff191660019081179091556006805491820181559091527ff652222313e28459528d920b65115c16c04f3efc82aaedc97be59f3f377c0d3f018190555b5080611e3781613996565b915050611d9b565b507f75a75cf5c561892f4cc5b26c1b8e933849b42238c96dd073d080d1ae96c5141681604051611e6f9190612fc8565b60405180910390a150565b611e82610947565b6001600160a01b0316336001600160a01b031614611e9f57600080fd5b6000611eb3601d546001600160a01b031690565b601d80546001600160a01b0319166001600160a01b0385811691821790925560408051928416835260208301919091529192507f753a2cf8d360cff631674504210913e48247f8e56b3e6d2006c2103d4095999f910160405180910390a15050565b80516000906001600160a01b03163314611f8a5760405162461bcd60e51b815260206004820152603060248201527f476f7665726e6f723a207468652070726f706f73616c20617574686f72206d7560448201526f39ba1031329036b9b39739b2b73232b960811b6064820152608401610aff565b60005b600281101561212f576000816001811115611faa57611faa6136e8565b90506000816001811115611fc057611fc06136e8565b03611fcb575061211d565b6001816001811115611fdf57611fdf6136e8565b0361210257608084015151516000036120715760405162461bcd60e51b815260206004820152604860248201527f476f7665726e6f724d6574616461746156616c69646174696f6e3a207468657260448201527f652063616e6e6f74206265207a65726f207369676e65727320696e20736166656064820152674d6574616461746160c01b608482015260a401610aff565b8360800151602001516000036120fd5760405162461bcd60e51b8152602060048201526044602482018190527f476f7665726e6f724d6574616461746156616c69646174696f6e3a2074687265908201527f73686f6c642063616e6e6f74206265207a65726f20696e20736166654d6574616064820152636461746160e01b608482015260a401610aff565b61211b565b6040516308b6566d60e11b815260040160405180910390fd5b505b8061212781613996565b915050611f8d565b508160400151516000036121855760405162461bcd60e51b815260206004820152601860248201527f476f7665726e6f723a20656d7074792070726f706f73616c00000000000000006044820152606401610aff565b506001919050565b600061090060115490565b6000826121a585846129e2565b14949350505050565b600060016121ba611735565b60048111156121cb576121cb6136e8565b146122245760405162461bcd60e51b815260206004820152602360248201527f476f7665726e6f723a20766f7465206e6f742063757272656e746c792061637460448201526269766560e81b6064820152608401610aff565b600083116122885760405162461bcd60e51b815260206004820152602b60248201527f476f7665726e6f723a2063616e6e6f7420766f746520776974682030206f722060448201526a666577657220766f74657360a81b6064820152608401610aff565b6001600160a01b03851660009081526003602052604090205460ff1661232e5760405162461bcd60e51b815260206004820152604f60248201527f476f7665726e6f723a20796f75206e65656420746f2076657269667920796f7560448201527f72206e756d626572206f6620766f74657320616761696e737420746865206d6560648201526e1c9adb19481c9bdbdd08199a5c9cdd608a1b608482015260a401610aff565b61236086868686600260008b6001600160a01b03166001600160a01b0316815260200190815260200160002054612a2f565b846001600160a01b03167fb8e138887d0aa13bab447e82de9d5c1777041ecd21ca36ba824ff1e6c07ddda48786868660405161239f9493929190613a11565b60405180910390a2505050506001600160a01b0316600090815260026020526040902054919050565b60006001600160ff1b038211156124325760405162461bcd60e51b815260206004820152602860248201527f53616665436173743a2076616c756520646f65736e27742066697420696e2061604482015267371034b73a191a9b60c11b6064820152608401610aff565b5090565b600083805b84518110156124945784828151811061245657612456613959565b602002602001015185828151811061247057612470613959565b60200260200101511215612482578091505b8061248c81613996565b91505061243b565b508481036124a6576000915050610ad3565b60008486815181106124ba576124ba613959565b602002602001015190508482815181106124d6576124d6613959565b60200260200101518587815181106124f0576124f0613959565b6020026020010181815250508085838151811061250f5761250f613959565b602002602001018181525050600084878151811061252f5761252f613959565b6020026020010151905084838151811061254b5761254b613959565b602002602001015185888151811061256557612565613959565b6020026020010181815250508085848151811061258457612584613959565b60209081029190910101525060019695505050505050565b600060036125a8611735565b60048111156125b9576125b96136e8565b1461262c5760405162461bcd60e51b815260206004820152603e60248201527f476f7665726e6f723a20636f6e74657374206d7573742062652071756575656460448201527f20666f722070726f706f73616c7320746f206265207375626d697474656400006064820152608401610aff565b612634611216565b336000908152600c6020526040902054106126eb5760405162461bcd60e51b815260206004820152606560248201527f476f7665726e6f723a207468652073616d6520616464726573732063616e6e6f60448201527f74207375626d6974206d6f7265207468616e20746865206e756d416c6c6f776560648201527f6450726f706f73616c5375626d697373696f6e7320666f72207468697320636f6084820152641b9d195cdd60da1b60a482015260c401610aff565b6126f361218d565b60065460055461270391906139af565b106127765760405162461bcd60e51b815260206004820152603960248201527f476f7665726e6f723a20746865206d6178206e756d626572206f662070726f7060448201527f6f73616c732068617665206265656e207375626d6974746564000000000000006064820152608401610aff565b600061278183610e90565b6000818152600b6020526040902054909150600160a01b900460ff16156127fc5760405162461bcd60e51b815260206004820152602960248201527f476f7665726e6f723a206475706c69636174652070726f706f73616c73206e6f6044820152681d08185b1b1bddd95960ba1b6064820152608401610aff565b6005805460018181019092557f036b6384b5eca791c62761152d0c79bb0604c104a5fb6f4eb0703f3154bb3db0018290556000828152600b602090815260409182902086518154928801511515600160a01b026001600160a81b03199093166001600160a01b03909116179190911781559085015185928201906128809082613a92565b506060820151516002820180546001600160a01b0319166001600160a01b0390921691909117905560808201518051805160038401916128c591839160200190612e70565b50602091820151600191820155336000908152600c90925260408220805491945092506128f39084906138f7565b9091555050604080518281523360208201527fcd423cc1203c0af96b9b3d68d73b3064a69de2d14450bb7181c5e5df2132b358910160405180910390a192915050565b606060ff83146129505761294983612d25565b9050610936565b81805461295c9061383c565b80601f01602080910402602001604051908101604052809291908181526020018280546129889061383c565b80156129d55780601f106129aa576101008083540402835291602001916129d5565b820191906000526020600020905b8154815290600101906020018083116129b857829003601f168201915b5050505050905092915050565b600081815b8451811015612a2757612a1382868381518110612a0657612a06613959565b6020026020010151612d64565b915080612a1f81613996565b9150506129e7565b509392505050565b60008581526016602090815260408083206001600160a01b0388168452601590925290912054612a5f90836139af565b831115612aca5760405162461bcd60e51b815260206004820152603360248201527f476f7665726e6f72566f74696e6753696d706c653a206e6f7420656e6f756768604482015272081d9bdd195cc81b19599d081d1bc818d85cdd606a1b6064820152608401610aff565b6001600160a01b0385166000908152600382016020526040812054158015612b0d57506001600160a01b0386166000908152600383016020526040902060010154155b905060ff8516612b6557815484908390600090612b2b9084906138f7565b90915550506001600160a01b038616600090815260038301602052604081208054869290612b5a9084906138f7565b90915550612c9f9050565b60001960ff861601612c3957612b7961109c565b600114612bf0576040805162461bcd60e51b81526020600482015260248101919091527f476f7665726e6f72566f74696e6753696d706c653a20646f776e766f74696e6760448201527f206973206e6f7420656e61626c656420666f72207468697320436f6e746573746064820152608401610aff565b83826000016001016000828254612c0791906138f7565b90915550506001600160a01b038616600090815260038301602052604081206001018054869290612b5a9084906138f7565b60405162461bcd60e51b815260206004820152603560248201527f476f7665726e6f72566f74696e6753696d706c653a20696e76616c69642076616044820152746c756520666f7220656e756d20566f74655479706560581b6064820152608401610aff565b8015612cd657600282018054600181018255600091825260209091200180546001600160a01b0319166001600160a01b0388161790555b6001600160a01b03861660009081526015602052604081208054869290612cfe9084906138f7565b925050819055508360146000828254612d1791906138f7565b909155505050505050505050565b60606000612d3283612d90565b604080516020808252818301909252919250600091906020820181803683375050509182525060208101929092525090565b6000818310612d80576000828152602084905260409020610ad3565b5060009182526020526040902090565b600060ff8216601f81111561093657604051632cd44ac360e21b815260040160405180910390fd5b828054828255906000526020600020908101928215612df3579160200282015b82811115612df3578251825591602001919060010190612dd8565b50612432929150612ec5565b6040518060a0016040528060006001600160a01b0316815260200160001515815260200160608152602001612e49604051806020016040528060006001600160a01b031681525090565b8152602001612e6b604051806040016040528060608152602001600081525090565b905290565b828054828255906000526020600020908101928215612df3579160200282015b82811115612df357825182546001600160a01b0319166001600160a01b03909116178255602090920191600190910190612e90565b5b808211156124325760008155600101612ec6565b600060208284031215612eec57600080fd5b81356001600160e01b031981168114610ad357600080fd5b6000815180845260005b81811015612f2a57602081850181015186830182015201612f0e565b506000602082860101526020601f19601f83011685010191505092915050565b602081526000610ad36020830184612f04565b600060208284031215612f6f57600080fd5b5035919050565b815181526020808301519082015260408101610936565b600081518084526020808501945080840160005b83811015612fbd57815187529582019590820190600101612fa1565b509495945050505050565b602081526000610ad36020830184612f8d565b6001600160a01b0381168114612ff057600080fd5b50565b60008083601f84011261300557600080fd5b5081356001600160401b0381111561301c57600080fd5b6020830191508360208260051b850101111561120057600080fd5b60008060006040848603121561304c57600080fd5b833561305781612fdb565b925060208401356001600160401b0381111561307257600080fd5b61307e86828701612ff3565b9497909650939450505050565b8035801515811461309b57600080fd5b919050565b6000806000806000608086880312156130b857600080fd5b85356130c381612fdb565b94506020860135935060408601356001600160401b038111156130e557600080fd5b6130f188828901612ff3565b909450925061310490506060870161308b565b90509295509295909350565b803560ff8116811461309b57600080fd5b60008060008060008060a0878903121561313a57600080fd5b8635955061314a60208801613110565b9450604087013593506060870135925060808701356001600160401b0381111561317357600080fd5b61317f89828a01612ff3565b979a9699509497509295939492505050565b6000602082840312156131a357600080fd5b610ad38261308b565b634e487b7160e01b600052604160045260246000fd5b604080519081016001600160401b03811182821017156131e4576131e46131ac565b60405290565b60405160a081016001600160401b03811182821017156131e4576131e46131ac565b604051601f8201601f191681016001600160401b0381118282101715613234576132346131ac565b604052919050565b60006020828403121561324e57600080fd5b604051602081018181106001600160401b0382111715613270576132706131ac565b604052905080823561328181612fdb565b905292915050565b60006001600160401b038211156132a2576132a26131ac565b5060051b60200190565b6000604082840312156132be57600080fd5b6132c66131c2565b905081356001600160401b038111156132de57600080fd5b8201601f810184136132ef57600080fd5b803560206133046132ff83613289565b61320c565b82815260059290921b8301810191818101908784111561332357600080fd5b938201935b8385101561334a57843561333b81612fdb565b82529382019390820190613328565b85525093840135938301939093525092915050565b600060a0828403121561337157600080fd5b6133796131ea565b9050813561338681612fdb565b8152602061339583820161308b565b8183015260408301356001600160401b03808211156133b357600080fd5b818501915085601f8301126133c757600080fd5b8135818111156133d9576133d96131ac565b6133eb601f8201601f1916850161320c565b81815287858386010111156133ff57600080fd5b818585018683013760008583830101528060408701525050613424866060870161323c565b6060850152608085013592508083111561343d57600080fd5b505061344b848285016132ac565b60808301525092915050565b60006020828403121561346957600080fd5b81356001600160401b0381111561347f57600080fd5b61172d8482850161335f565b6000604080835261349e81840186612f8d565b83810360208581019190915285518083528682019282019060005b818110156134e6576134d683865180518252602090810151910152565b93830193918501916001016134b9565b509098975050505050505050565b6000806000806060858703121561350a57600080fd5b843561351581612fdb565b93506020850135925060408501356001600160401b0381111561353757600080fd5b61354387828801612ff3565b95989497509550505050565b60006020828403121561356157600080fd5b8135610ad381612fdb565b60008060006060848603121561358157600080fd5b8335925061359160208501613110565b9150604084013590509250925092565b600080604083850312156135b457600080fd5b8235915060208301356135c681612fdb565b809150509250929050565b60ff60f81b8816815260e0602082015260006135f060e0830189612f04565b82810360408401526136028189612f04565b606084018890526001600160a01b038716608085015260a0840186905283810360c085015290506136338185612f8d565b9a9950505050505050505050565b600081518084526020808501945080840160005b83811015612fbd5781516001600160a01b031687529582019590820190600101613655565b602081526000610ad36020830184613641565b6000806000604084860312156136a257600080fd5b83356001600160401b03808211156136b957600080fd5b6136c58783880161335f565b945060208601359150808211156136db57600080fd5b5061307e86828701612ff3565b634e487b7160e01b600052602160045260246000fd5b602081016005831061372057634e487b7160e01b600052602160045260246000fd5b91905290565b60208152600060018060a01b03808451166020840152602084015115156040840152604084015160a0606085015261376160c0850182612f04565b90508160608601515116608085015260808501519150601f198482030160a08501528151604082526137966040830182613641565b6020938401519290930191909152509392505050565b600060208083850312156137bf57600080fd5b82356001600160401b038111156137d557600080fd5b8301601f810185136137e657600080fd5b80356137f46132ff82613289565b81815260059190911b8201830190838101908783111561381357600080fd5b928401925b8284101561383157833582529284019290840190613818565b979650505050505050565b600181811c9082168061385057607f821691505b60208210810361387057634e487b7160e01b600052602260045260246000fd5b50919050565b60208082526045908201527f526577617264734d6f64756c653a2072756e20736574536f72746564416e645460408201527f69656450726f706f73616c73282920746f20706f70756c61746520746869732060608201526476616c756560d81b608082015260a00190565b634e487b7160e01b600052601160045260246000fd5b80820180821115610936576109366138e1565b6020808252602f908201527f476f7665726e6f723a20796f752063616e6e6f7420766f7465206f6e2061206460408201526e195b195d1959081c1c9bdc1bdcd85b608a1b606082015260800190565b634e487b7160e01b600052603260045260246000fd5b818103600083128015838313168383128216171561398f5761398f6138e1565b5092915050565b6000600182016139a8576139a86138e1565b5060010190565b81810381811115610936576109366138e1565b6020808252602f908201527f476f7665726e6f723a2061646472657373206973206e6f74207065726d69737360408201526e1a5bdb9959081d1bc81cdd589b5a5d608a1b606082015260800190565b84815260ff84166020820152826040820152608060608201526000613a396080830184612f04565b9695505050505050565b601f821115613a8d57600081815260208120601f850160051c81016020861015613a6a5750805b601f850160051c820191505b81811015613a8957828155600101613a76565b5050505b505050565b81516001600160401b03811115613aab57613aab6131ac565b613abf81613ab9845461383c565b84613a43565b602080601f831160018114613af45760008415613adc5750858301515b600019600386901b1c1916600185901b178555613a89565b600085815260208120601f198616915b82811015613b2357888601518255948401946001909101908401613b04565b5085821015613b415787850151600019600388901b60f8161c191681555b5050505050600190811b0190555056fea2646970667358221220d52831f461c816ae65437b443d4fd004022fb01fda9fb9224c90e53122165f9364736f6c63430008130033",
    "linkReferences": {}
  },
  "methodIdentifiers": {
    "AMOUNT_FOR_SUMBITTER_PROOF()": "347cf665",
    "BALLOT_TYPEHASH()": "deaaa7cc",
    "COUNTING_MODE()": "dd4e2ba5",
    "METADATAS_COUNT()": "4d24a67f",
    "addressSubmitterVerified(address)": "cb853950",
    "addressTotalCastVoteCounts(address)": "a1ac6cb2",
    "addressTotalVotes(address)": "dea5f6a6",
    "addressTotalVotesVerified(address)": "930de979",
    "allProposalTotalVotes()": "50a5e524",
    "allProposalTotalVotesWithoutDeleted()": "d45a010b",
    "cancel()": "ea8a1af0",
    "castVote(uint256,uint8,uint256,uint256,bytes32[])": "419c533c",
    "castVoteWithoutProof(uint256,uint8,uint256)": "65f16263",
    "checkProof(address,uint256,bytes32[],bool)": "32763c22",
    "contestAddressTotalVotesCast(address)": "aec116b6",
    "contestDeadline()": "262e59e9",
    "contestStart()": "004114a8",
    "creator()": "02d05d3f",
    "deleteProposals(uint256[])": "f0a7db0a",
    "downvotingAllowed()": "60506ff6",
    "eip712Domain()": "84b0196e",
    "getAllDeletedProposalIds()": "1242b737",
    "getAllProposalIds()": "efa90d36",
    "getNumSubmissions(address)": "5f953a03",
    "getProposal(uint256)": "c7f758a8",
    "hashProposal((address,bool,string,(address),(address[],uint256)))": "458da87d",
    "highestTiedRanking()": "ebc18b9b",
    "isProposalDeleted(uint256)": "3b6d199b",
    "isTied(uint256)": "2399c660",
    "lowestRanking()": "6ca1a2c7",
    "maxProposalCount()": "fb9bf8d4",
    "name()": "06fdde03",
    "numAllowedProposalSubmissions()": "832009af",
    "officialRewardsModule()": "785ddfe5",
    "prompt()": "7c65d711",
    "proposalAddressVotes(uint256,address)": "6e4eb810",
    "proposalAddressesHaveVoted(uint256)": "b323580d",
    "proposalVotes(uint256)": "544ffc9c",
    "proposalVotesStructs(uint256)": "070dc5d9",
    "propose((address,bool,string,(address),(address[],uint256)),bytes32[])": "c0ffaa78",
    "proposeWithoutProof((address,bool,string,(address),(address[],uint256)))": "476f4d8a",
    "rankingPosition(uint256)": "86187488",
    "setOfficialRewardsModule(address)": "f4f3d7ec",
    "setSortedAndTiedProposals()": "96f0e962",
    "setSortedAndTiedProposalsHasBeenRun()": "d8891619",
    "sortedProposalIds()": "8a9cd550",
    "sortedProposals(bool)": "427d56c2",
    "state()": "c19d93fb",
    "submissionMerkleRoot()": "bddc1641",
    "supportsInterface(bytes4)": "01ffc9a7",
    "tiedAdjustedRankingPosition(uint256)": "e5eb5a48",
    "totalVotesCast()": "7de418d5",
    "validateProposalData((address,bool,string,(address),(address[],uint256)))": "fb8ddab4",
    "verifyProposer(address,bytes32[])": "20b3e845",
    "verifyVoter(address,uint256,bytes32[])": "531bd812",
    "version()": "54fd4d50",
    "voteStart()": "e031535b",
    "votingDelay()": "3932abb1",
    "votingMerkleRoot()": "dd96a19d",
    "votingPeriod()": "02a251a3"
  },
  "id": 40
}