{"abi":[{"type":"constructor","inputs":[{"name":"_name","type":"string","internalType":"string"},{"name":"_prompt","type":"string","internalType":"string"},{"name":"_submissionMerkleRoot","type":"bytes32","internalType":"bytes32"},{"name":"_votingMerkleRoot","type":"bytes32","internalType":"bytes32"},{"name":"_constructorIntParams","type":"uint256[]","internalType":"uint256[]"}],"stateMutability":"nonpayable"},{"type":"function","name":"AMOUNT_FOR_SUMBITTER_PROOF","inputs":[],"outputs":[{"name":"","type":"uint256","internalType":"uint256"}],"stateMutability":"view"},{"type":"function","name":"JK_LABS_ADDRESS","inputs":[],"outputs":[{"name":"","type":"address","internalType":"address"}],"stateMutability":"view"},{"type":"function","name":"METADATAS_COUNT","inputs":[],"outputs":[{"name":"","type":"uint256","internalType":"uint256"}],"stateMutability":"view"},{"type":"function","name":"addressSubmitterVerified","inputs":[{"name":"","type":"address","internalType":"address"}],"outputs":[{"name":"","type":"bool","internalType":"bool"}],"stateMutability":"view"},{"type":"function","name":"addressTotalCastVoteCounts","inputs":[{"name":"","type":"address","internalType":"address"}],"outputs":[{"name":"","type":"uint256","internalType":"uint256"}],"stateMutability":"view"},{"type":"function","name":"addressTotalVotes","inputs":[{"name":"","type":"address","internalType":"address"}],"outputs":[{"name":"","type":"uint256","internalType":"uint256"}],"stateMutability":"view"},{"type":"function","name":"addressTotalVotesVerified","inputs":[{"name":"","type":"address","internalType":"address"}],"outputs":[{"name":"","type":"bool","internalType":"bool"}],"stateMutability":"view"},{"type":"function","name":"addressesThatHaveVoted","inputs":[{"name":"","type":"uint256","internalType":"uint256"}],"outputs":[{"name":"","type":"address","internalType":"address"}],"stateMutability":"view"},{"type":"function","name":"allProposalTotalVotes","inputs":[],"outputs":[{"name":"proposalIdsReturn","type":"uint256[]","internalType":"uint256[]"},{"name":"proposalVoteCountsArrayReturn","type":"tuple[]","internalType":"struct GovernorCountingSimple.VoteCounts[]","components":[{"name":"forVotes","type":"uint256","internalType":"uint256"},{"name":"againstVotes","type":"uint256","internalType":"uint256"}]}],"stateMutability":"view"},{"type":"function","name":"cancel","inputs":[],"outputs":[],"stateMutability":"nonpayable"},{"type":"function","name":"canceled","inputs":[],"outputs":[{"name":"","type":"bool","internalType":"bool"}],"stateMutability":"view"},{"type":"function","name":"castVote","inputs":[{"name":"proposalId","type":"uint256","internalType":"uint256"},{"name":"support","type":"uint8","internalType":"uint8"},{"name":"totalVotes","type":"uint256","internalType":"uint256"},{"name":"numVotes","type":"uint256","internalType":"uint256"},{"name":"proof","type":"bytes32[]","internalType":"bytes32[]"}],"outputs":[{"name":"","type":"uint256","internalType":"uint256"}],"stateMutability":"nonpayable"},{"type":"function","name":"castVoteWithoutProof","inputs":[{"name":"proposalId","type":"uint256","internalType":"uint256"},{"name":"support","type":"uint8","internalType":"uint8"},{"name":"numVotes","type":"uint256","internalType":"uint256"}],"outputs":[{"name":"","type":"uint256","internalType":"uint256"}],"stateMutability":"nonpayable"},{"type":"function","name":"checkProof","inputs":[{"name":"addressToCheck","type":"address","internalType":"address"},{"name":"amount","type":"uint256","internalType":"uint256"},{"name":"proof","type":"bytes32[]","internalType":"bytes32[]"},{"name":"voting","type":"bool","internalType":"bool"}],"outputs":[{"name":"verified","type":"bool","internalType":"bool"}],"stateMutability":"view"},{"type":"function","name":"comment","inputs":[{"name":"proposalId","type":"uint256","internalType":"uint256"},{"name":"commentContent","type":"string","internalType":"string"}],"outputs":[{"name":"","type":"uint256","internalType":"uint256"}],"stateMutability":"nonpayable"},{"type":"function","name":"commentIds","inputs":[{"name":"","type":"uint256","internalType":"uint256"}],"outputs":[{"name":"","type":"uint256","internalType":"uint256"}],"stateMutability":"view"},{"type":"function","name":"commentIsDeleted","inputs":[{"name":"","type":"uint256","internalType":"uint256"}],"outputs":[{"name":"","type":"bool","internalType":"bool"}],"stateMutability":"view"},{"type":"function","name":"comments","inputs":[{"name":"","type":"uint256","internalType":"uint256"}],"outputs":[{"name":"author","type":"address","internalType":"address"},{"name":"timestamp","type":"uint256","internalType":"uint256"},{"name":"proposalId","type":"uint256","internalType":"uint256"},{"name":"commentContent","type":"string","internalType":"string"}],"stateMutability":"view"},{"type":"function","name":"contestAddressTotalVotesCast","inputs":[{"name":"userAddress","type":"address","internalType":"address"}],"outputs":[{"name":"userTotalVotesCast","type":"uint256","internalType":"uint256"}],"stateMutability":"view"},{"type":"function","name":"contestDeadline","inputs":[],"outputs":[{"name":"","type":"uint256","internalType":"uint256"}],"stateMutability":"view"},{"type":"function","name":"contestStart","inputs":[],"outputs":[{"name":"","type":"uint256","internalType":"uint256"}],"stateMutability":"view"},{"type":"function","name":"costToPropose","inputs":[],"outputs":[{"name":"","type":"uint256","internalType":"uint256"}],"stateMutability":"view"},{"type":"function","name":"creator","inputs":[],"outputs":[{"name":"","type":"address","internalType":"address"}],"stateMutability":"view"},{"type":"function","name":"deleteComments","inputs":[{"name":"commentIdsParam","type":"uint256[]","internalType":"uint256[]"}],"outputs":[],"stateMutability":"nonpayable"},{"type":"function","name":"deleteProposals","inputs":[{"name":"proposalIdsToDelete","type":"uint256[]","internalType":"uint256[]"}],"outputs":[],"stateMutability":"nonpayable"},{"type":"function","name":"deletedCommentIds","inputs":[{"name":"","type":"uint256","internalType":"uint256"}],"outputs":[{"name":"","type":"uint256","internalType":"uint256"}],"stateMutability":"view"},{"type":"function","name":"deletedProposalIds","inputs":[{"name":"","type":"uint256","internalType":"uint256"}],"outputs":[{"name":"","type":"uint256","internalType":"uint256"}],"stateMutability":"view"},{"type":"function","name":"downvotingAllowed","inputs":[],"outputs":[{"name":"","type":"uint256","internalType":"uint256"}],"stateMutability":"view"},{"type":"function","name":"forVotesToProposalIds","inputs":[{"name":"","type":"uint256","internalType":"uint256"},{"name":"","type":"uint256","internalType":"uint256"}],"outputs":[{"name":"","type":"uint256","internalType":"uint256"}],"stateMutability":"view"},{"type":"function","name":"getAllAddressesThatHaveVoted","inputs":[],"outputs":[{"name":"","type":"address[]","internalType":"address[]"}],"stateMutability":"view"},{"type":"function","name":"getAllCommentIds","inputs":[],"outputs":[{"name":"","type":"uint256[]","internalType":"uint256[]"}],"stateMutability":"view"},{"type":"function","name":"getAllDeletedCommentIds","inputs":[],"outputs":[{"name":"","type":"uint256[]","internalType":"uint256[]"}],"stateMutability":"view"},{"type":"function","name":"getAllDeletedProposalIds","inputs":[],"outputs":[{"name":"","type":"uint256[]","internalType":"uint256[]"}],"stateMutability":"view"},{"type":"function","name":"getAllProposalAuthors","inputs":[],"outputs":[{"name":"","type":"address[]","internalType":"address[]"}],"stateMutability":"view"},{"type":"function","name":"getAllProposalIds","inputs":[],"outputs":[{"name":"","type":"uint256[]","internalType":"uint256[]"}],"stateMutability":"view"},{"type":"function","name":"getComment","inputs":[{"name":"commentId","type":"uint256","internalType":"uint256"}],"outputs":[{"name":"","type":"tuple","internalType":"struct GovernorEngagement.CommentCore","components":[{"name":"author","type":"address","internalType":"address"},{"name":"timestamp","type":"uint256","internalType":"uint256"},{"name":"proposalId","type":"uint256","internalType":"uint256"},{"name":"commentContent","type":"string","internalType":"string"}]}],"stateMutability":"view"},{"type":"function","name":"getNumProposalsWithThisManyForVotes","inputs":[{"name":"forVotes","type":"uint256","internalType":"uint256"}],"outputs":[{"name":"count","type":"uint256","internalType":"uint256"}],"stateMutability":"view"},{"type":"function","name":"getOnlyProposalIdWithThisManyForVotes","inputs":[{"name":"forVotes","type":"uint256","internalType":"uint256"}],"outputs":[{"name":"proposalId","type":"uint256","internalType":"uint256"}],"stateMutability":"view"},{"type":"function","name":"getProposal","inputs":[{"name":"proposalId","type":"uint256","internalType":"uint256"}],"outputs":[{"name":"","type":"tuple","internalType":"struct Governor.ProposalCore","components":[{"name":"author","type":"address","internalType":"address"},{"name":"exists","type":"bool","internalType":"bool"},{"name":"description","type":"string","internalType":"string"},{"name":"targetMetadata","type":"tuple","internalType":"struct Governor.TargetMetadata","components":[{"name":"targetAddress","type":"address","internalType":"address"}]},{"name":"safeMetadata","type":"tuple","internalType":"struct Governor.SafeMetadata","components":[{"name":"signers","type":"address[]","internalType":"address[]"},{"name":"threshold","type":"uint256","internalType":"uint256"}]}]}],"stateMutability":"view"},{"type":"function","name":"getProposalComments","inputs":[{"name":"proposalId","type":"uint256","internalType":"uint256"}],"outputs":[{"name":"","type":"uint256[]","internalType":"uint256[]"}],"stateMutability":"view"},{"type":"function","name":"getProposalsWithThisManyForVotes","inputs":[{"name":"forVotes","type":"uint256","internalType":"uint256"}],"outputs":[{"name":"proposalsWithThisManyForVotes","type":"uint256[]","internalType":"uint256[]"}],"stateMutability":"view"},{"type":"function","name":"getRankIndex","inputs":[{"name":"rank","type":"uint256","internalType":"uint256"}],"outputs":[{"name":"rankIndex","type":"uint256","internalType":"uint256"}],"stateMutability":"view"},{"type":"function","name":"getSortedRanks","inputs":[],"outputs":[{"name":"sortedRanksArray","type":"uint256[]","internalType":"uint256[]"}],"stateMutability":"view"},{"type":"function","name":"hashComment","inputs":[{"name":"commentObj","type":"tuple","internalType":"struct GovernorEngagement.CommentCore","components":[{"name":"author","type":"address","internalType":"address"},{"name":"timestamp","type":"uint256","internalType":"uint256"},{"name":"proposalId","type":"uint256","internalType":"uint256"},{"name":"commentContent","type":"string","internalType":"string"}]}],"outputs":[{"name":"","type":"uint256","internalType":"uint256"}],"stateMutability":"pure"},{"type":"function","name":"hashProposal","inputs":[{"name":"proposal","type":"tuple","internalType":"struct Governor.ProposalCore","components":[{"name":"author","type":"address","internalType":"address"},{"name":"exists","type":"bool","internalType":"bool"},{"name":"description","type":"string","internalType":"string"},{"name":"targetMetadata","type":"tuple","internalType":"struct Governor.TargetMetadata","components":[{"name":"targetAddress","type":"address","internalType":"address"}]},{"name":"safeMetadata","type":"tuple","internalType":"struct Governor.SafeMetadata","components":[{"name":"signers","type":"address[]","internalType":"address[]"},{"name":"threshold","type":"uint256","internalType":"uint256"}]}]}],"outputs":[{"name":"","type":"uint256","internalType":"uint256"}],"stateMutability":"pure"},{"type":"function","name":"isOrIsBelowTiedRank","inputs":[{"name":"idx","type":"uint256","internalType":"uint256"}],"outputs":[{"name":"atOrBelowTiedRank","type":"bool","internalType":"bool"}],"stateMutability":"view"},{"type":"function","name":"maxProposalCount","inputs":[],"outputs":[{"name":"","type":"uint256","internalType":"uint256"}],"stateMutability":"view"},{"type":"function","name":"name","inputs":[],"outputs":[{"name":"","type":"string","internalType":"string"}],"stateMutability":"view"},{"type":"function","name":"numAllowedProposalSubmissions","inputs":[],"outputs":[{"name":"","type":"uint256","internalType":"uint256"}],"stateMutability":"view"},{"type":"function","name":"numSubmissions","inputs":[{"name":"","type":"address","internalType":"address"}],"outputs":[{"name":"","type":"uint256","internalType":"uint256"}],"stateMutability":"view"},{"type":"function","name":"officialRewardsModule","inputs":[],"outputs":[{"name":"","type":"address","internalType":"contract RewardsModule"}],"stateMutability":"view"},{"type":"function","name":"percentageToCreator","inputs":[],"outputs":[{"name":"","type":"uint256","internalType":"uint256"}],"stateMutability":"view"},{"type":"function","name":"prompt","inputs":[],"outputs":[{"name":"","type":"string","internalType":"string"}],"stateMutability":"view"},{"type":"function","name":"proposalAddressVotes","inputs":[{"name":"proposalId","type":"uint256","internalType":"uint256"},{"name":"userAddress","type":"address","internalType":"address"}],"outputs":[{"name":"forVotes","type":"uint256","internalType":"uint256"},{"name":"againstVotes","type":"uint256","internalType":"uint256"}],"stateMutability":"view"},{"type":"function","name":"proposalAddressesHaveVoted","inputs":[{"name":"proposalId","type":"uint256","internalType":"uint256"}],"outputs":[{"name":"","type":"address[]","internalType":"address[]"}],"stateMutability":"view"},{"type":"function","name":"proposalAuthors","inputs":[{"name":"","type":"uint256","internalType":"uint256"}],"outputs":[{"name":"","type":"address","internalType":"address"}],"stateMutability":"view"},{"type":"function","name":"proposalComments","inputs":[{"name":"","type":"uint256","internalType":"uint256"},{"name":"","type":"uint256","internalType":"uint256"}],"outputs":[{"name":"","type":"uint256","internalType":"uint256"}],"stateMutability":"view"},{"type":"function","name":"proposalIds","inputs":[{"name":"","type":"uint256","internalType":"uint256"}],"outputs":[{"name":"","type":"uint256","internalType":"uint256"}],"stateMutability":"view"},{"type":"function","name":"proposalIsDeleted","inputs":[{"name":"","type":"uint256","internalType":"uint256"}],"outputs":[{"name":"","type":"bool","internalType":"bool"}],"stateMutability":"view"},{"type":"function","name":"proposalVotes","inputs":[{"name":"proposalId","type":"uint256","internalType":"uint256"}],"outputs":[{"name":"forVotes","type":"uint256","internalType":"uint256"},{"name":"againstVotes","type":"uint256","internalType":"uint256"}],"stateMutability":"view"},{"type":"function","name":"proposalVotesStructs","inputs":[{"name":"","type":"uint256","internalType":"uint256"}],"outputs":[{"name":"proposalVoteCounts","type":"tuple","internalType":"struct GovernorCountingSimple.VoteCounts","components":[{"name":"forVotes","type":"uint256","internalType":"uint256"},{"name":"againstVotes","type":"uint256","internalType":"uint256"}]}],"stateMutability":"view"},{"type":"function","name":"proposals","inputs":[{"name":"","type":"uint256","internalType":"uint256"}],"outputs":[{"name":"author","type":"address","internalType":"address"},{"name":"exists","type":"bool","internalType":"bool"},{"name":"description","type":"string","internalType":"string"},{"name":"targetMetadata","type":"tuple","internalType":"struct Governor.TargetMetadata","components":[{"name":"targetAddress","type":"address","internalType":"address"}]},{"name":"safeMetadata","type":"tuple","internalType":"struct Governor.SafeMetadata","components":[{"name":"signers","type":"address[]","internalType":"address[]"},{"name":"threshold","type":"uint256","internalType":"uint256"}]}],"stateMutability":"view"},{"type":"function","name":"propose","inputs":[{"name":"proposal","type":"tuple","internalType":"struct Governor.ProposalCore","components":[{"name":"author","type":"address","internalType":"address"},{"name":"exists","type":"bool","internalType":"bool"},{"name":"description","type":"string","internalType":"string"},{"name":"targetMetadata","type":"tuple","internalType":"struct Governor.TargetMetadata","components":[{"name":"targetAddress","type":"address","internalType":"address"}]},{"name":"safeMetadata","type":"tuple","internalType":"struct Governor.SafeMetadata","components":[{"name":"signers","type":"address[]","internalType":"address[]"},{"name":"threshold","type":"uint256","internalType":"uint256"}]}]},{"name":"proof","type":"bytes32[]","internalType":"bytes32[]"}],"outputs":[{"name":"","type":"uint256","internalType":"uint256"}],"stateMutability":"payable"},{"type":"function","name":"proposeWithoutProof","inputs":[{"name":"proposal","type":"tuple","internalType":"struct Governor.ProposalCore","components":[{"name":"author","type":"address","internalType":"address"},{"name":"exists","type":"bool","internalType":"bool"},{"name":"description","type":"string","internalType":"string"},{"name":"targetMetadata","type":"tuple","internalType":"struct Governor.TargetMetadata","components":[{"name":"targetAddress","type":"address","internalType":"address"}]},{"name":"safeMetadata","type":"tuple","internalType":"struct Governor.SafeMetadata","components":[{"name":"signers","type":"address[]","internalType":"address[]"},{"name":"threshold","type":"uint256","internalType":"uint256"}]}]}],"outputs":[{"name":"","type":"uint256","internalType":"uint256"}],"stateMutability":"payable"},{"type":"function","name":"rankLimit","inputs":[],"outputs":[{"name":"","type":"uint256","internalType":"uint256"}],"stateMutability":"view"},{"type":"function","name":"setOfficialRewardsModule","inputs":[{"name":"officialRewardsModule_","type":"address","internalType":"contract RewardsModule"}],"outputs":[],"stateMutability":"nonpayable"},{"type":"function","name":"setSubmissionMerkleRoot","inputs":[{"name":"newSubmissionMerkleRoot","type":"bytes32","internalType":"bytes32"}],"outputs":[],"stateMutability":"nonpayable"},{"type":"function","name":"setVotingMerkleRoot","inputs":[{"name":"newVotingMerkleRoot","type":"bytes32","internalType":"bytes32"}],"outputs":[],"stateMutability":"nonpayable"},{"type":"function","name":"sortedRanks","inputs":[{"name":"","type":"uint256","internalType":"uint256"}],"outputs":[{"name":"","type":"uint256","internalType":"uint256"}],"stateMutability":"view"},{"type":"function","name":"sortingEnabled","inputs":[],"outputs":[{"name":"","type":"uint256","internalType":"uint256"}],"stateMutability":"view"},{"type":"function","name":"state","inputs":[],"outputs":[{"name":"","type":"uint8","internalType":"enum Governor.ContestState"}],"stateMutability":"view"},{"type":"function","name":"submissionMerkleRoot","inputs":[],"outputs":[{"name":"","type":"bytes32","internalType":"bytes32"}],"stateMutability":"view"},{"type":"function","name":"totalVotesCast","inputs":[],"outputs":[{"name":"","type":"uint256","internalType":"uint256"}],"stateMutability":"view"},{"type":"function","name":"validateProposalData","inputs":[{"name":"proposal","type":"tuple","internalType":"struct Governor.ProposalCore","components":[{"name":"author","type":"address","internalType":"address"},{"name":"exists","type":"bool","internalType":"bool"},{"name":"description","type":"string","internalType":"string"},{"name":"targetMetadata","type":"tuple","internalType":"struct Governor.TargetMetadata","components":[{"name":"targetAddress","type":"address","internalType":"address"}]},{"name":"safeMetadata","type":"tuple","internalType":"struct Governor.SafeMetadata","components":[{"name":"signers","type":"address[]","internalType":"address[]"},{"name":"threshold","type":"uint256","internalType":"uint256"}]}]}],"outputs":[],"stateMutability":"view"},{"type":"function","name":"verifyProposer","inputs":[{"name":"account","type":"address","internalType":"address"},{"name":"proof","type":"bytes32[]","internalType":"bytes32[]"}],"outputs":[],"stateMutability":"nonpayable"},{"type":"function","name":"verifyVoter","inputs":[{"name":"account","type":"address","internalType":"address"},{"name":"totalVotes","type":"uint256","internalType":"uint256"},{"name":"proof","type":"bytes32[]","internalType":"bytes32[]"}],"outputs":[],"stateMutability":"nonpayable"},{"type":"function","name":"version","inputs":[],"outputs":[{"name":"","type":"string","internalType":"string"}],"stateMutability":"pure"},{"type":"function","name":"voteStart","inputs":[],"outputs":[{"name":"","type":"uint256","internalType":"uint256"}],"stateMutability":"view"},{"type":"function","name":"votingDelay","inputs":[],"outputs":[{"name":"","type":"uint256","internalType":"uint256"}],"stateMutability":"view"},{"type":"function","name":"votingMerkleRoot","inputs":[],"outputs":[{"name":"","type":"bytes32","internalType":"bytes32"}],"stateMutability":"view"},{"type":"function","name":"votingPeriod","inputs":[],"outputs":[{"name":"","type":"uint256","internalType":"uint256"}],"stateMutability":"view"},{"type":"event","name":"CommentCreated","inputs":[{"name":"commentId","type":"uint256","indexed":false,"internalType":"uint256"}],"anonymous":false},{"type":"event","name":"CommentsDeleted","inputs":[{"name":"commentIds","type":"uint256[]","indexed":false,"internalType":"uint256[]"}],"anonymous":false},{"type":"event","name":"ContestCanceled","inputs":[],"anonymous":false},{"type":"event","name":"JokeraceCreated","inputs":[{"name":"name","type":"string","indexed":false,"internalType":"string"},{"name":"creator","type":"address","indexed":false,"internalType":"address"}],"anonymous":false},{"type":"event","name":"OfficialRewardsModuleSet","inputs":[{"name":"oldOfficialRewardsModule","type":"address","indexed":false,"internalType":"contract RewardsModule"},{"name":"newOfficialRewardsModule","type":"address","indexed":false,"internalType":"contract RewardsModule"}],"anonymous":false},{"type":"event","name":"PaymentReleased","inputs":[{"name":"to","type":"address","indexed":false,"internalType":"address"},{"name":"amount","type":"uint256","indexed":false,"internalType":"uint256"}],"anonymous":false},{"type":"event","name":"ProposalCreated","inputs":[{"name":"proposalId","type":"uint256","indexed":false,"internalType":"uint256"},{"name":"proposer","type":"address","indexed":false,"internalType":"address"}],"anonymous":false},{"type":"event","name":"ProposalsDeleted","inputs":[{"name":"proposalIds","type":"uint256[]","indexed":false,"internalType":"uint256[]"}],"anonymous":false},{"type":"event","name":"VoteCast","inputs":[{"name":"voter","type":"address","indexed":true,"internalType":"address"},{"name":"proposalId","type":"uint256","indexed":false,"internalType":"uint256"},{"name":"support","type":"uint8","indexed":false,"internalType":"uint8"},{"name":"numVotes","type":"uint256","indexed":false,"internalType":"uint256"}],"anonymous":false},{"type":"error","name":"AddressNotPermissionedToSubmit","inputs":[]},{"type":"error","name":"AuthorIsNotSender","inputs":[{"name":"author","type":"address","internalType":"address"},{"name":"sender","type":"address","internalType":"address"}]},{"type":"error","name":"CannotDeleteWhenCompleted","inputs":[]},{"type":"error","name":"CannotVoteOnDeletedProposal","inputs":[]},{"type":"error","name":"ContestAlreadyCancelled","inputs":[]},{"type":"error","name":"ContestMustBeActiveToVote","inputs":[{"name":"currentState","type":"uint8","internalType":"enum Governor.ContestState"}]},{"type":"error","name":"ContestMustBeQueuedToPropose","inputs":[{"name":"currentState","type":"uint8","internalType":"enum Governor.ContestState"}]},{"type":"error","name":"ContestSubmissionLimitReached","inputs":[{"name":"maxProposalCount","type":"uint256","internalType":"uint256"}]},{"type":"error","name":"DownvotingNotEnabled","inputs":[]},{"type":"error","name":"DuplicateSubmission","inputs":[{"name":"proposalId","type":"uint256","internalType":"uint256"}]},{"type":"error","name":"EmptyProposalDescription","inputs":[]},{"type":"error","name":"IncorrectCostToProposeSent","inputs":[{"name":"msgValue","type":"uint256","internalType":"uint256"},{"name":"costToPropose","type":"uint256","internalType":"uint256"}]},{"type":"error","name":"IndexHasNotBeenPopulated","inputs":[]},{"type":"error","name":"InvalidVoteType","inputs":[]},{"type":"error","name":"MoreThanOneProposalWithThisManyVotes","inputs":[]},{"type":"error","name":"NeedAtLeastOneVoteToVote","inputs":[]},{"type":"error","name":"NeedToSubmitWithProofFirst","inputs":[]},{"type":"error","name":"NeedToVoteWithProofFirst","inputs":[]},{"type":"error","name":"NotEnoughVotesLeft","inputs":[]},{"type":"error","name":"NotInMerkle","inputs":[]},{"type":"error","name":"OnlyCreatorCanDelete","inputs":[]},{"type":"error","name":"OnlyCreatorCanSetRewardsModule","inputs":[]},{"type":"error","name":"OnlyCreatorOrAuthorCanDeleteComments","inputs":[{"name":"failedToDeleteCommentId","type":"uint256","internalType":"uint256"}]},{"type":"error","name":"OnlyJkLabsCanAmend","inputs":[]},{"type":"error","name":"OnlyJkLabsOrCreatorCanCancel","inputs":[]},{"type":"error","name":"RankCannotBeZero","inputs":[]},{"type":"error","name":"RankIsNotInSortedRanks","inputs":[]},{"type":"error","name":"SenderSubmissionLimitReached","inputs":[{"name":"numAllowedProposalSubmissions","type":"uint256","internalType":"uint256"}]},{"type":"error","name":"UnexpectedMetadata","inputs":[{"name":"unexpectedMetadata","type":"uint8","internalType":"enum Governor.Metadatas"}]},{"type":"error","name":"ZeroSignersInSafeMetadata","inputs":[]},{"type":"error","name":"ZeroThresholdInSafeMetadata","inputs":[]}],"bytecode":{"object":"0x60806040523480156200001157600080fd5b50604051620049603803806200496083398101604081905262000034916200030b565b84848484846000815181106200004e576200004e6200041c565b6020026020010151856001815181106200006c576200006c6200041c565b6020026020010151866002815181106200008a576200008a6200041c565b602002602001015187600381518110620000a857620000a86200041c565b602002602001015188600481518110620000c657620000c66200041c565b602002602001015189600581518110620000e457620000e46200041c565b60200260200101518a6006815181106200010257620001026200041c565b60200260200101518b6007815181106200012057620001206200041c565b602002602001015189898e6008815181106200014057620001406200041c565b60200260200101518f6009815181106200015e576200015e6200041c565b60209081029190910101516000919091556001556003919091556004556005620001898d82620004c1565b506006620001988c82620004c1565b50600780546001600160a01b0319163390811790915560088990556009889055600a879055600b869055600c859055600d849055600e839055600f8290556040517f1eae03a78f765227bc1e8574db32390cefa5b3c0a954017973e497e40a1237349162000209918f91906200058d565b60405180910390a15050505050505050505050505050505050620005d3565b634e487b7160e01b600052604160045260246000fd5b604051601f8201601f191681016001600160401b038111828210171562000269576200026962000228565b604052919050565b60005b838110156200028e57818101518382015260200162000274565b50506000910152565b600082601f830112620002a957600080fd5b81516001600160401b03811115620002c557620002c562000228565b620002da601f8201601f19166020016200023e565b818152846020838601011115620002f057600080fd5b6200030382602083016020870162000271565b949350505050565b600080600080600060a086880312156200032457600080fd5b85516001600160401b03808211156200033c57600080fd5b6200034a89838a0162000297565b96506020915081880151818111156200036257600080fd5b620003708a828b0162000297565b96505060408801519450606088015193506080880151818111156200039457600080fd5b8801601f81018a13620003a657600080fd5b805182811115620003bb57620003bb62000228565b8060051b9250620003ce8484016200023e565b818152928201840192848101908c851115620003e957600080fd5b928501925b848410156200040957835182529285019290850190620003ee565b8096505050505050509295509295909350565b634e487b7160e01b600052603260045260246000fd5b600181811c908216806200044757607f821691505b6020821081036200046857634e487b7160e01b600052602260045260246000fd5b50919050565b601f821115620004bc57600081815260208120601f850160051c81016020861015620004975750805b601f850160051c820191505b81811015620004b857828155600101620004a3565b5050505b505050565b81516001600160401b03811115620004dd57620004dd62000228565b620004f581620004ee845462000432565b846200046e565b602080601f8311600181146200052d5760008415620005145750858301515b600019600386901b1c1916600185901b178555620004b8565b600085815260208120601f198616915b828110156200055e578886015182559484019460019091019084016200053d565b50858210156200057d5787850151600019600388901b60f8161c191681555b5050505050600190811b01905550565b6040815260008351806040840152620005ae81606085016020880162000271565b6001600160a01b0393909316602083015250601f91909101601f191601606001919050565b61437d80620005e36000396000f3fe60806040526004361061047d5760003560e01c8063711effc811610255578063c0ffaa7811610144578063ea8a1af0116100c1578063f4f3d7ec11610085578063f4f3d7ec14610e45578063f5c3641114610e65578063f61736f414610e85578063f79c017214610ea5578063fb8ddab414610ed5578063fb9bf8d414610ef557600080fd5b8063ea8a1af014610dbd578063edcd1be414610dd2578063eef18e1714610de8578063efa90d3614610e10578063f0a7db0a14610e2557600080fd5b8063daf762db11610108578063daf762db14610d30578063dd96a19d14610d50578063dea5f6a614610d66578063e031535b14610d93578063e11db9d814610da857600080fd5b8063c0ffaa7814610c7e578063c19d93fb14610c91578063c7f758a814610cb3578063c9a1b6b214610ce0578063cb85395014610d0057600080fd5b80639b644a23116101d2578063aec116b611610196578063aec116b614610bd2578063b323580d14610c08578063b66d1da314610c28578063bddc164114610c48578063c05f410414610c5e57600080fd5b80639b644a2314610b085780639ba197af14610b28578063a1ac6cb214610b55578063ac67f80114610b82578063ae66b8ad14610ba257600080fd5b8063832009af11610219578063832009af14610a5d5780638ebb4c1514610a735780639174778c14610aa3578063930de97914610ac3578063946369b514610af357600080fd5b8063711effc8146109c557806375e509c5146109e5578063785ddfe514610a125780637c65d71114610a325780637de418d514610a4757600080fd5b80633f9942ff11610371578063544c7bb4116102ee57806360506ff6116102b257806360506ff61461094457806365f162631461095a5780636e4eb8101461097a5780636ed815ad1461099a5780636fd3636b146109b057600080fd5b8063544c7bb414610878578063544ffc9c1461089857806354fd4d50146108e25780635c7107d81461090f5780635cb718a11461092f57600080fd5b8063476f4d8a11610335578063476f4d8a146107ed5780634d24a67f1461080057806350a5e5241461081557806350c4b61614610838578063531bd8121461085857600080fd5b80633f9942ff146107535780633fb57c921461076d578063409fd0301461078d578063419c533c146107ad578063458da87d146107cd57600080fd5b80631242b737116103ff578063325cc6d9116103c3578063325cc6d9146106bb57806332763c22146106db578063347cf6651461070b578063366ecf5b146107275780633932abb11461073d57600080fd5b80631242b737146106205780631805c5231461064257806320b3e84514610662578063262e59e9146106845780632c39805f1461069957600080fd5b806305846cae1161044657806305846cae1461054057806306fdde0314610560578063070dc5d9146105825780630800e300146105d35780630aa25e441461060057600080fd5b80624114a814610482578063013cf08b146104ab57806302a251a3146104dc57806302d05d3f146104f25780630414126a1461052a575b600080fd5b34801561048e57600080fd5b5061049860085481565b6040519081526020015b60405180910390f35b3480156104b757600080fd5b506104cb6104c636600461359b565b610f0b565b6040516104a2959493929190613653565b3480156104e857600080fd5b50610498600a5481565b3480156104fe57600080fd5b50600754610512906001600160a01b031681565b6040516001600160a01b0390911681526020016104a2565b34801561053657600080fd5b5061049860015481565b34801561054c57600080fd5b5061049861055b36600461359b565b611053565b34801561056c57600080fd5b50610575611074565b6040516104a291906136a5565b34801561058e57600080fd5b506105c661059d36600461359b565b601d60209081526000918252604091829020825180840190935280548352600101549082015281565b6040516104a291906136b8565b3480156105df57600080fd5b506105f36105ee36600461359b565b611102565b6040516104a291906136cf565b34801561060c57600080fd5b5061051261061b36600461359b565b611216565b34801561062c57600080fd5b50610635611240565b6040516104a2919061374b565b34801561064e57600080fd5b5061049861065d36600461387f565b611298565b34801561066e57600080fd5b5061068261067d36600461391e565b6113b7565b005b34801561069057600080fd5b50610498611426565b3480156106a557600080fd5b506106ae611442565b6040516104a29190613972565b3480156106c757600080fd5b506104986106d636600461359b565b6114a3565b3480156106e757600080fd5b506106fb6106f63660046139d4565b6114b3565b60405190151581526020016104a2565b34801561071757600080fd5b50610498678ac7230489e8000081565b34801561073357600080fd5b5061049860005481565b34801561074957600080fd5b5061049860095481565b34801561075f57600080fd5b506013546106fb9060ff1681565b34801561077957600080fd5b5061049861078836600461359b565b6115b2565b34801561079957600080fd5b506104986107a8366004613a44565b6115c2565b3480156107b957600080fd5b506104986107c8366004613b00565b6115f3565b3480156107d957600080fd5b506104986107e8366004613d0f565b611649565b6104986107fb366004613d5b565b61165c565b34801561080c57600080fd5b506104986116f3565b34801561082157600080fd5b5061082a611701565b6040516104a2929190613d8f565b34801561084457600080fd5b5061051261085336600461359b565b611807565b34801561086457600080fd5b50610682610873366004613df8565b611817565b34801561088457600080fd5b5061068261089336600461359b565b61187d565b3480156108a457600080fd5b506108cd6108b336600461359b565b6000908152601d6020526040902080546001909101549091565b604080519283526020830191909152016104a2565b3480156108ee57600080fd5b50604080518082019091526004815263342e313960e01b6020820152610575565b34801561091b57600080fd5b5061049861092a36600461359b565b6118b6565b34801561093b57600080fd5b506106356119bd565b34801561095057600080fd5b50610498600d5481565b34801561096657600080fd5b50610498610975366004613e53565b611a13565b34801561098657600080fd5b506108cd610995366004613e88565b611a93565b3480156109a657600080fd5b50610498600e5481565b3480156109bc57600080fd5b50610635611ac8565b3480156109d157600080fd5b506104986109e0366004613eb8565b611b1e565b3480156109f157600080fd5b50610498610a00366004613eda565b60156020526000908152604090205481565b348015610a1e57600080fd5b50601f54610512906001600160a01b031681565b348015610a3e57600080fd5b50610575611b4f565b348015610a5357600080fd5b50610498601b5481565b348015610a6957600080fd5b50610498600b5481565b348015610a7f57600080fd5b50610a93610a8e36600461359b565b611b5c565b6040516104a29493929190613ef7565b348015610aaf57600080fd5b506106fb610abe36600461359b565b611c19565b348015610acf57600080fd5b506106fb610ade366004613eda565b60196020526000908152604090205460ff1681565b348015610aff57600080fd5b506106ae611cbf565b348015610b1457600080fd5b50610498610b2336600461359b565b611d1f565b348015610b3457600080fd5b50610498610b4336600461359b565b6000908152601e602052604090205490565b348015610b6157600080fd5b50610498610b70366004613eda565b601c6020526000908152604090205481565b348015610b8e57600080fd5b50610682610b9d366004613f2e565b611d2f565b348015610bae57600080fd5b506106fb610bbd36600461359b565b60246020526000908152604090205460ff1681565b348015610bde57600080fd5b50610498610bed366004613eda565b6001600160a01b03166000908152601c602052604090205490565b348015610c1457600080fd5b506106ae610c2336600461359b565b611e64565b348015610c3457600080fd5b50610498610c4336600461359b565b611ed6565b348015610c5457600080fd5b5061049860035481565b348015610c6a57600080fd5b50610635610c7936600461359b565b611f36565b610498610c8c366004613fbe565b611f98565b348015610c9d57600080fd5b50610ca6612000565b6040516104a2919061402f565b348015610cbf57600080fd5b50610cd3610cce36600461359b565b612051565b6040516104a29190614049565b348015610cec57600080fd5b50610635610cfb36600461359b565b6121cb565b348015610d0c57600080fd5b506106fb610d1b366004613eda565b601a6020526000908152604090205460ff1681565b348015610d3c57600080fd5b50610682610d4b36600461359b565b61222b565b348015610d5c57600080fd5b5061049860045481565b348015610d7257600080fd5b50610498610d81366004613eda565b60186020526000908152604090205481565b348015610d9f57600080fd5b50610498612264565b348015610db457600080fd5b50610635612276565b348015610dc957600080fd5b506106826122cc565b348015610dde57600080fd5b50610498600f5481565b348015610df457600080fd5b5061051273dc652c746a8f85e18ce632d97c6118e8a52fa73881565b348015610e1c57600080fd5b50610635612390565b348015610e3157600080fd5b50610682610e403660046140b0565b6123e6565b348015610e5157600080fd5b50610682610e60366004613eda565b612541565b348015610e7157600080fd5b50610498610e8036600461359b565b6125c6565b348015610e9157600080fd5b50610498610ea0366004613eb8565b6125d6565b348015610eb157600080fd5b506106fb610ec036600461359b565b60126020526000908152604090205460ff1681565b348015610ee157600080fd5b50610682610ef0366004613d0f565b6125f2565b348015610f0157600080fd5b50610498600c5481565b601460205260009081526040902080546001820180546001600160a01b03831693600160a01b90930460ff16929190610f43906140f1565b80601f0160208091040260200160405190810160405280929190818152602001828054610f6f906140f1565b8015610fbc5780601f10610f9157610100808354040283529160200191610fbc565b820191906000526020600020905b815481529060010190602001808311610f9f57829003601f168201915b5050604080516020808201835260028801546001600160a01b03168252825160038901805460609381028301840186529482018581529899939893975090955093508492849184018282801561103b57602002820191906000526020600020905b81546001600160a01b0316815260019091019060200180831161101d575b50505050508152602001600182015481525050905085565b6011818154811061106357600080fd5b600091825260209091200154905081565b60058054611081906140f1565b80601f01602080910402602001604051908101604052809291908181526020018280546110ad906140f1565b80156110fa5780601f106110cf576101008083540402835291602001916110fa565b820191906000526020600020905b8154815290600101906020018083116110dd57829003601f168201915b505050505081565b611136604051806080016040528060006001600160a01b031681526020016000815260200160008152602001606081525090565b600082815260226020908152604091829020825160808101845281546001600160a01b0316815260018201549281019290925260028101549282019290925260038201805491929160608401919061118d906140f1565b80601f01602080910402602001604051908101604052809291908181526020018280546111b9906140f1565b80156112065780601f106111db57610100808354040283529160200191611206565b820191906000526020600020905b8154815290600101906020018083116111e957829003601f168201915b5050505050815250509050919050565b6016818154811061122657600080fd5b6000918252602090912001546001600160a01b0316905081565b6060601180548060200260200160405190810160405280929190818152602001828054801561128e57602002820191906000526020600020905b81548152602001906001019080831161127a575b5050505050905090565b6040805160808101825233815242602082015290810183905260608101829052600090816112c5826115c2565b60208054600180820183557fc97bfaf2f8ee708c303a06d134f5ecd8389ae0432af62dc132a24118292866bb909101839055600083815260228352604090819020865181546001600160a01b0319166001600160a01b039091161781559286015191830191909155840151600282015560608401519192508391600382019061134e9082614173565b505050600085815260236020908152604080832080546001810182559084529190922001829055517f5a1a930fed43f34b3a07db782ebcac28a661c273e662bb98458cfba5a8ccd220906113a59083815260200190565b60405180910390a19150505b92915050565b6001600160a01b0383166000908152601a602052604090205460ff16611421576003546000036113e657505050565b6113fc83678ac7230489e80000848460006114b3565b506001600160a01b0383166000908152601a60205260409020805460ff191660011790555b505050565b6000600a54611433612264565b61143d9190614248565b905090565b6060601780548060200260200160405190810160405280929190818152602001828054801561128e57602002820191906000526020600020905b81546001600160a01b0316815260019091019060200180831161147c575050505050905090565b6002818154811061106357600080fd5b6040516bffffffffffffffffffffffff19606087901b1660208201526034810185905260009081906054016040516020818303038152906040528051906020012090506000836115435761153e868680806020026020016040519081016040528093929190818152602001838360200280828437600092019190915250506003549150859050612741565b611584565b611584868680806020026020016040519081016040528093929190818152602001838360200280828437600092019190915250506004549150859050612741565b9050806115a45760405163452c2df160e11b815260040160405180910390fd5b506001979650505050505050565b6021818154811061106357600080fd5b6000816040516020016115d591906136cf565b60408051601f19818403018152919052805160209091012092915050565b600086815260126020526040812054339060ff1615611625576040516358f1119560e01b815260040160405180910390fd5b61163181878686611817565b61163d88828988612757565b98975050505050505050565b6000816040516020016115d59190614049565b6000600e54341461169257600e546040516380a7af9f60e01b815234600482015260248101919091526044015b60405180910390fd5b600354156116ca57336000908152601a602052604090205460ff166116ca57604051631f22097560e01b815260040160405180910390fd5b6116d6610ef08361425b565b60006116e96116e48461425b565b61289e565b90506113b1612b19565b6116fe600180614248565b81565b606080600061170e612390565b9050600081516001600160401b0381111561172b5761172b61375e565b60405190808252806020026020018201604052801561177057816020015b60408051808201909152600080825260208201528152602001906001900390816117495790505b50905060005b82518110156117fd57601d600084838151811061179557611795614267565b60200260200101518152602001908152602001600020600001604051806040016040529081600082015481526020016001820154815250508282815181106117df576117df614267565b602002602001018190525080806117f59061427d565b915050611776565b5090939092509050565b6017818154811061122657600080fd5b6001600160a01b03841660009081526019602052604090205460ff16611877576118458484848460016114b3565b506001600160a01b038416600090815260186020908152604080832086905560199091529020805460ff191660011790555b50505050565b3373dc652c746a8f85e18ce632d97c6118e8a52fa738146118b15760405163de07280160e01b815260040160405180910390fd5b600455565b6000816000036118d957604051630ec90a1760e31b815260040160405180910390fd5b6002805460408051602080840282018101909252828152919260009291849083018282801561192757602002820191906000526020600020905b815481526020019060010190808311611913575b5050505050905060006001905060005b838110156119a35761196e83828151811061195457611954614267565b60200260200101516000908152601e602052604090205490565b15611991578582036119835795945050505050565b8161198d8161427d565b9250505b8061199b8161427d565b915050611937565b50604051632cc2ab7360e11b815260040160405180910390fd5b6060602180548060200260200160405190810160405280929190818152602001828054801561128e576020028201919060005260206000209081548152602001906001019080831161127a575050505050905090565b600083815260126020526040812054339060ff1615611a45576040516358f1119560e01b815260040160405180910390fd5b6001600160a01b03811660009081526019602052604090205460ff16611a7e5760405163126ec6d160e31b815260040160405180910390fd5b611a8a85828686612757565b95945050505050565b6000828152601d602090815260408083206001600160a01b0385168452600301909152902080546001909101545b9250929050565b6060600280548060200260200160405190810160405280929190818152602001828054801561128e576020028201919060005260206000209081548152602001906001019080831161127a575050505050905090565b601e6020528160005260406000208181548110611b3a57600080fd5b90600052602060002001600091509150505481565b60068054611081906140f1565b60226020526000908152604090208054600182015460028301546003840180546001600160a01b03909416949293919291611b96906140f1565b80601f0160208091040260200160405190810160405280929190818152602001828054611bc2906140f1565b8015611c0f5780601f10611be457610100808354040283529160200191611c0f565b820191906000526020600020905b815481529060010190602001808311611bf257829003601f168201915b5050505050905084565b600254600090611c2b90600190614296565b821115611c4b576040516365d6f35160e11b815260040160405180910390fd5b60005b611c59836001614248565b811015611cb6576001611c9560028381548110611c7857611c78614267565b90600052602060002001546000908152601e602052604090205490565b1115611ca45750600192915050565b80611cae8161427d565b915050611c4e565b50600092915050565b6060601680548060200260200160405190810160405280929190818152602001828054801561128e576020028201919060005260206000209081546001600160a01b0316815260019091019060200180831161147c575050505050905090565b6010818154811061106357600080fd5b805160005b81811015611e28576000838281518110611d5057611d50614267565b60209081029190910101516007549091506001600160a01b03163314801590611d9057506000818152602260205260409020546001600160a01b03163314155b15611db157604051635450763d60e11b815260048101829052602401611689565b60008181526024602052604090205460ff16611e15576000818152602460205260408120805460ff191660019081179091556021805491820181559091527f3a6357012c1a3ae0a17d304c9920310382d968ebcc4b1771f41c6b304205b570018190555b5080611e208161427d565b915050611d34565b507f788a4349d25bc08585923ae212bce8bb346a623bce753eeecb85fd9ce58dcb4b82604051611e58919061374b565b60405180910390a15050565b6000818152601d60209081526040918290206002810180548451818502810185019095528085526060949293830182828015611ec957602002820191906000526020600020905b81546001600160a01b03168152600190910190602001808311611eab575b5050505050915050919050565b6000818152601e6020526040812054600114611f0557604051633832a15560e21b815260040160405180910390fd5b6000828152601e602052604081208054909190611f2457611f24614267565b90600052602060002001549050919050565b600081815260236020908152604091829020805483518184028101840190945280845260609392830182828015611f8c57602002820191906000526020600020905b815481526020019060010190808311611f78575b50505050509050919050565b6000600e543414611fc957600e546040516380a7af9f60e01b81523460048201526024810191909152604401611689565b611fd43384846113b7565b611fe0610ef08561425b565b6000611fee6116e48661425b565b9050611ff8612b19565b949350505050565b60135460009060ff16156120145750600290565b42600854106120235750600090565b4261202c612264565b106120375750600390565b42612040611426565b1061204b5750600190565b50600490565b6120596134b0565b600082815260146020908152604091829020825160a08101845281546001600160a01b0381168252600160a01b900460ff1615159281019290925260018101805492939192918401916120ab906140f1565b80601f01602080910402602001604051908101604052809291908181526020018280546120d7906140f1565b80156121245780601f106120f957610100808354040283529160200191612124565b820191906000526020600020905b81548152906001019060200180831161210757829003601f168201915b5050509183525050604080516020818101835260028501546001600160a01b031682528084019190915281516003850180546060938102830184018552828501818152949095019491939092849284918401828280156121ad57602002820191906000526020600020905b81546001600160a01b0316815260019091019060200180831161218f575b50505050508152602001600182015481525050815250509050919050565b6000818152601e6020908152604091829020805483518184028101840190945280845260609392830182828015611f8c5760200282019190600052602060002090815481526020019060010190808311611f785750505050509050919050565b3373dc652c746a8f85e18ce632d97c6118e8a52fa7381461225f5760405163de07280160e01b815260040160405180910390fd5b600355565b600060095460085461143d9190614248565b6060602080548060200260200160405190810160405280929190818152602001828054801561128e576020028201919060005260206000209081548152602001906001019080831161127a575050505050905090565b6007546001600160a01b031633148015906122fb57503373dc652c746a8f85e18ce632d97c6118e8a52fa73814155b15612319576040516301dbf46f60e71b815260040160405180910390fd5b6000612323612000565b9050600281600481111561233957612339614019565b0361235757604051633c30acbf60e01b815260040160405180910390fd5b6013805460ff191660011790556040517f4cd963a081760a54f571abc0f1db4dde31b4a07d8d6da3e844b8c6f47eeaaa4290600090a150565b6060601080548060200260200160405190810160405280929190818152602001828054801561128e576020028201919060005260206000209081548152602001906001019080831161127a575050505050905090565b6007546001600160a01b031633146124115760405163b8d4540960e01b815260040160405180910390fd5b600461241b612000565b600481111561242c5761242c614019565b0361244a576040516331da1c8b60e11b815260040160405180910390fd5b60005b818110156124ef57600083838381811061246957612469614267565b60209081029290920135600081815260129093526040909220549192505060ff166124dc576000818152601260205260408120805460ff191660019081179091556011805491820181559091527f31ecc21a745e3968a04e9570e4425bc18fa8019c68028196b546d1669c200c68018190555b50806124e78161427d565b91505061244d565b50600d5415801561250257506000546001145b15612511576125118282612c2e565b7f75a75cf5c561892f4cc5b26c1b8e933849b42238c96dd073d080d1ae96c514166010604051611e5891906142a9565b6007546001600160a01b0316331461256c57604051630f4cb1bd60e11b815260040160405180910390fd5b601f80546001600160a01b038381166001600160a01b031983168117909355604080519190921680825260208201939093527f753a2cf8d360cff631674504210913e48247f8e56b3e6d2006c2103d4095999f9101611e58565b6020818154811061106357600080fd5b60236020528160005260406000208181548110611b3a57600080fd5b80516001600160a01b0316331461263057805160405163fbbf4d7f60e01b81526001600160a01b039091166004820152336024820152604401611689565b60005b61263e600180614248565b81101561271757600081600181111561265957612659614019565b9050600081600181111561266f5761266f614019565b0361267a5750612705565b600181600181111561268e5761268e614019565b036126e857608083015151516000036126ba5760405163c3b2798b60e01b815260040160405180910390fd5b8260800151602001516000036126e3576040516392fb9a3560e01b815260040160405180910390fd5b612703565b8060405163d2277d4960e01b815260040161168991906142e4565b505b8061270f8161427d565b915050612633565b5080604001515160000361273e5760405163e182473360e01b815260040160405180910390fd5b50565b60008261274e8584612c8b565b14949350505050565b60006001612763612000565b600481111561277457612774614019565b1461279b57612781612000565b60405163049cab4960e51b8152600401611689919061402f565b816000036127bc5760405163502e1c2960e01b815260040160405180910390fd5b6127ee85858585601860008a6001600160a01b03166001600160a01b0316815260200190815260200160002054612cd8565b601780546001810182556000919091527fc624b66cc0138b8fabc209247f72d758e1cf3343756d543badbf24212bed8c150180546001600160a01b031916331790556040805186815260ff851660208201529081018390526001600160a01b038516907f2c9deb38f462962eadbd85a9d3a4120503ee091f1582eaaa10aa8c6797651d299060600160405180910390a25050506001600160a01b0316600090815260186020526040902054919050565b600060036128aa612000565b60048111156128bb576128bb614019565b146128e2576128c8612000565b604051632889531360e01b8152600401611689919061402f565b600b54336000908152601560205260409020540361291957600b54604051632bd6d93960e21b815260040161168991815260200190565b600c5460115460105461292c9190614296565b0361295057600c546040516302217f5360e51b815260040161168991815260200190565b600061295b83611649565b600081815260146020526040902054909150600160a01b900460ff16156129985760405163baffc42360e01b815260048101829052602401611689565b6010805460018181019092557f1b6847dc741a1b0cd08d278845f9d819d87b734759afb55fe2de5cb82a9ae6720182905560008281526014602090815260409182902086518154928801511515600160a01b026001600160a81b03199093166001600160a01b0390911617919091178155908501518592820190612a1c9082614173565b506060820151516002820180546001600160a01b0319166001600160a01b039092169190911790556080820151805180516003840191612a6191839160200190613521565b5060209182015160019182015533600090815260159092526040822080549194509250612a8f908490614248565b9091555050601680546001810182556000919091527fd833147d7dc355ba459fc788f669e58cfaf9dc25ddcd0702e87d69c7b51242890180546001600160a01b031916339081179091556040805183815260208101929092527fcd423cc1203c0af96b9b3d68d73b3064a69de2d14450bb7181c5e5df2132b358910160405180910390a192915050565b600e5415612c2c5760006064600f546064612b349190614296565b612b3e90346142f8565b612b48919061430f565b90508015612bbc57612b6e73dc652c746a8f85e18ce632d97c6118e8a52fa73882612f3f565b6040805173dc652c746a8f85e18ce632d97c6118e8a52fa7388152602081018390527fdf20fd1e76bc69d672e4814fafb2c449bba3a5369d8359adf9e05e6fde87b056910160405180910390a15b6000612bc88234614296565b90508015612c2957600754612be6906001600160a01b031682612f3f565b600754604080516001600160a01b039092168252602082018390527fdf20fd1e76bc69d672e4814fafb2c449bba3a5369d8359adf9e05e6fde87b0569101611e58565b50505b565b60005b81811015611421576000838383818110612c4d57612c4d614267565b602090810292909201356000818152601d909352604090922054919250612c7690508282613058565b50508080612c839061427d565b915050612c31565b600081815b8451811015612cd057612cbc82868381518110612caf57612caf614267565b6020026020010151613189565b915080612cc88161427d565b915050612c90565b509392505050565b6000858152601d602090815260408083206001600160a01b0388168452601c90925290912054612d089083614296565b831115612d285760405163660fa07360e11b815260040160405180910390fd5b6001600160a01b0385166000908152600382016020526040812054158015612d6b57506001600160a01b0386166000908152600383016020526040902060010154155b905060ff8516612dc357815484908390600090612d89908490614248565b90915550506001600160a01b038616600090815260038301602052604081208054869290612db8908490614248565b90915550612e549050565b60001960ff861601612e3b57600d54600114612df257604051639755958f60e01b815260040160405180910390fd5b83826000016001016000828254612e099190614248565b90915550506001600160a01b038616600090815260038301602052604081206001018054869290612db8908490614248565b604051638eed55d160e01b815260040160405180910390fd5b8015612e8b57600282018054600181018255600091825260209091200180546001600160a01b0319166001600160a01b0388161790555b6001600160a01b0386166000908152601c602052604081208054869290612eb3908490614248565b9250508190555083601b6000828254612ecc9190614248565b9091555050600d54158015612ee357506000546001145b15612f365781546000612ef68683614296565b90508015612f0857612f088982613058565b6000828152601e6020908152604082208054600181018255908352912001899055612f3381836131bb565b50505b50505050505050565b80471015612f8f5760405162461bcd60e51b815260206004820152601d60248201527f416464726573733a20696e73756666696369656e742062616c616e63650000006044820152606401611689565b6000826001600160a01b03168260405160006040518083038185875af1925050503d8060008114612fdc576040519150601f19603f3d011682016040523d82523d6000602084013e612fe1565b606091505b50509050806114215760405162461bcd60e51b815260206004820152603a60248201527f416464726573733a20756e61626c6520746f2073656e642076616c75652c207260448201527f6563697069656e74206d617920686176652072657665727465640000000000006064820152608401611689565b6000818152601e60209081526040808320805482518185028101850190935280835291929091908301828280156130ae57602002820191906000526020600020905b81548152602001906001019080831161309a575b5050505050905060005b815181101561187757838282815181106130d4576130d4614267565b6020026020010151036131775781600183516130f09190614296565b8151811061310057613100614267565b6020026020010151601e6000858152602001908152602001600020828154811061312c5761312c614267565b9060005260206000200181905550601e600084815260200190815260200160002080548061315c5761315c614331565b60019003818190600052602060002001600090559055611877565b806131818161427d565b9150506130b8565b60008183106131a55760008281526020849052604090206131b4565b60008381526020839052604090205b9392505050565b6002805460408051602080840282018101909252828152919260009291849083018282801561320957602002820191906000526020600020905b8154815260200190600101908083116131f5575b5050505050905081600003613250575050600280546001810182556000919091527f405787fa12a823e0f2b7631cc41b3ba8828b3321ca811111fa75cd3aa3bb5ace015550565b8061325c600184614296565b8151811061326c5761326c614267565b60200260200101518310156132c257600154820361328a5750505050565b5050600280546001810182556000919091527f405787fa12a823e0f2b7631cc41b3ba8828b3321ca811111fa75cd3aa3bb5ace015550565b611877848484846000805b83811015613337578281815181106132e7576132e7614267565b602002602001015185036132fc575050611877565b82818151811061330e5761330e614267565b602002602001015185111561332557809150613337565b8061332f8161427d565b9150506132cd565b506000808611801561335557506000868152601e6020526040902054155b9050600081801561337e57508684848151811061337457613374614267565b6020026020010151145b6134875761338d600186614296565b83146134355760006133a0846001614248565b90505b8581101561343357846133b7600183614296565b815181106133c7576133c7614267565b6020026020010151600282815481106133e2576133e2614267565b60009182526020909120015582801561341357508785828151811061340957613409614267565b6020026020010151145b156134215760019150613433565b8061342b8161427d565b9150506133a3565b505b80158015613444575060015485105b1561348757600284613457600188614296565b8151811061346757613467614267565b602090810291909101810151825460018101845560009384529190922001555b856002848154811061349b5761349b614267565b60009182526020909120015550505050505050565b6040518060a0016040528060006001600160a01b03168152602001600015158152602001606081526020016134fa604051806020016040528060006001600160a01b031681525090565b815260200161351c604051806040016040528060608152602001600081525090565b905290565b828054828255906000526020600020908101928215613576579160200282015b8281111561357657825182546001600160a01b0319166001600160a01b03909116178255602090920191600190910190613541565b50613582929150613586565b5090565b5b808211156135825760008155600101613587565b6000602082840312156135ad57600080fd5b5035919050565b6000815180845260005b818110156135da576020818501810151868301820152016135be565b506000602082860101526020601f19601f83011685010191505092915050565b805160408084528151908401819052600091602091908201906060860190845b8181101561363f5783516001600160a01b03168352928401929184019160010161361a565b505093820151949091019390935250919050565b600060018060a01b038088168352861515602084015260a0604084015261367d60a08401876135b4565b818651166060850152838103608085015261369881866135fa565b9998505050505050505050565b6020815260006131b460208301846135b4565b8151815260208083015190820152604081016113b1565b6020815260018060a01b038251166020820152602082015160408201526040820151606082015260006060830151608080840152611ff860a08401826135b4565b600081518084526020808501945080840160005b8381101561374057815187529582019590820190600101613724565b509495945050505050565b6020815260006131b46020830184613710565b634e487b7160e01b600052604160045260246000fd5b604080519081016001600160401b03811182821017156137965761379661375e565b60405290565b60405160a081016001600160401b03811182821017156137965761379661375e565b604051602081016001600160401b03811182821017156137965761379661375e565b604051601f8201601f191681016001600160401b03811182821017156138085761380861375e565b604052919050565b600082601f83011261382157600080fd5b81356001600160401b0381111561383a5761383a61375e565b61384d601f8201601f19166020016137e0565b81815284602083860101111561386257600080fd5b816020850160208301376000918101602001919091529392505050565b6000806040838503121561389257600080fd5b8235915060208301356001600160401b038111156138af57600080fd5b6138bb85828601613810565b9150509250929050565b6001600160a01b038116811461273e57600080fd5b60008083601f8401126138ec57600080fd5b5081356001600160401b0381111561390357600080fd5b6020830191508360208260051b8501011115611ac157600080fd5b60008060006040848603121561393357600080fd5b833561393e816138c5565b925060208401356001600160401b0381111561395957600080fd5b613965868287016138da565b9497909650939450505050565b6020808252825182820181905260009190848201906040850190845b818110156139b35783516001600160a01b03168352928401929184019160010161398e565b50909695505050505050565b803580151581146139cf57600080fd5b919050565b6000806000806000608086880312156139ec57600080fd5b85356139f7816138c5565b94506020860135935060408601356001600160401b03811115613a1957600080fd5b613a25888289016138da565b9094509250613a389050606087016139bf565b90509295509295909350565b600060208284031215613a5657600080fd5b81356001600160401b0380821115613a6d57600080fd5b9083019060808286031215613a8157600080fd5b604051608081018181108382111715613a9c57613a9c61375e565b6040528235613aaa816138c5565b808252506020830135602082015260408301356040820152606083013582811115613ad457600080fd5b613ae087828601613810565b60608301525095945050505050565b803560ff811681146139cf57600080fd5b60008060008060008060a08789031215613b1957600080fd5b86359550613b2960208801613aef565b9450604087013593506060870135925060808701356001600160401b03811115613b5257600080fd5b613b5e89828a016138da565b979a9699509497509295939492505050565b60006001600160401b03821115613b8957613b8961375e565b5060051b60200190565b600060408284031215613ba557600080fd5b613bad613774565b905081356001600160401b03811115613bc557600080fd5b8201601f81018413613bd657600080fd5b80356020613beb613be683613b70565b6137e0565b82815260059290921b83018101918181019087841115613c0a57600080fd5b938201935b83851015613c31578435613c22816138c5565b82529382019390820190613c0f565b85525093840135938301939093525092915050565b600081830360a0811215613c5957600080fd5b613c6161379c565b91508235613c6e816138c5565b8252613c7c602084016139bf565b602083015260408301356001600160401b0380821115613c9b57600080fd5b613ca786838701613810565b60408501526020605f1984011215613cbe57600080fd5b613cc66137be565b925060608501359150613cd8826138c5565b8183528260608501526080850135925080831115613cf557600080fd5b5050613d0384828501613b93565b60808301525092915050565b600060208284031215613d2157600080fd5b81356001600160401b03811115613d3757600080fd5b611ff884828501613c46565b600060a08284031215613d5557600080fd5b50919050565b600060208284031215613d6d57600080fd5b81356001600160401b03811115613d8357600080fd5b611ff884828501613d43565b60006040808352613da281840186613710565b83810360208581019190915285518083528682019282019060005b81811015613dea57613dda83865180518252602090810151910152565b9383019391850191600101613dbd565b509098975050505050505050565b60008060008060608587031215613e0e57600080fd5b8435613e19816138c5565b93506020850135925060408501356001600160401b03811115613e3b57600080fd5b613e47878288016138da565b95989497509550505050565b600080600060608486031215613e6857600080fd5b83359250613e7860208501613aef565b9150604084013590509250925092565b60008060408385031215613e9b57600080fd5b823591506020830135613ead816138c5565b809150509250929050565b60008060408385031215613ecb57600080fd5b50508035926020909101359150565b600060208284031215613eec57600080fd5b81356131b4816138c5565b60018060a01b0385168152836020820152826040820152608060608201526000613f2460808301846135b4565b9695505050505050565b60006020808385031215613f4157600080fd5b82356001600160401b03811115613f5757600080fd5b8301601f81018513613f6857600080fd5b8035613f76613be682613b70565b81815260059190911b82018301908381019087831115613f9557600080fd5b928401925b82841015613fb357833582529284019290840190613f9a565b979650505050505050565b600080600060408486031215613fd357600080fd5b83356001600160401b0380821115613fea57600080fd5b613ff687838801613d43565b9450602086013591508082111561400c57600080fd5b50613965868287016138da565b634e487b7160e01b600052602160045260246000fd5b602081016005831061404357614043614019565b91905290565b60208152600060018060a01b03808451166020840152602084015115156040840152604084015160a0606085015261408460c08501826135b4565b90508160608601515116608085015260808501519150601f198482030160a0850152611a8a81836135fa565b600080602083850312156140c357600080fd5b82356001600160401b038111156140d957600080fd5b6140e5858286016138da565b90969095509350505050565b600181811c9082168061410557607f821691505b602082108103613d5557634e487b7160e01b600052602260045260246000fd5b601f82111561142157600081815260208120601f850160051c8101602086101561414c5750805b601f850160051c820191505b8181101561416b57828155600101614158565b505050505050565b81516001600160401b0381111561418c5761418c61375e565b6141a08161419a84546140f1565b84614125565b602080601f8311600181146141d557600084156141bd5750858301515b600019600386901b1c1916600185901b17855561416b565b600085815260208120601f198616915b82811015614204578886015182559484019460019091019084016141e5565b50858210156142225787850151600019600388901b60f8161c191681555b5050505050600190811b01905550565b634e487b7160e01b600052601160045260246000fd5b808201808211156113b1576113b1614232565b60006113b13683613c46565b634e487b7160e01b600052603260045260246000fd5b60006001820161428f5761428f614232565b5060010190565b818103818111156113b1576113b1614232565b6020808252825482820181905260008481528281209092916040850190845b818110156139b3578354835260019384019392850192016142c8565b602081016002831061404357614043614019565b80820281158282048414176113b1576113b1614232565b60008261432c57634e487b7160e01b600052601260045260246000fd5b500490565b634e487b7160e01b600052603160045260246000fdfea2646970667358221220e3d4eaf1d5c3c1dd404520a6f59c5f069dabc73990a44a0fdbc677516340449e64736f6c63430008130033","linkReferences":{}},"methodIdentifiers":{"AMOUNT_FOR_SUMBITTER_PROOF()":"347cf665","JK_LABS_ADDRESS()":"eef18e17","METADATAS_COUNT()":"4d24a67f","addressSubmitterVerified(address)":"cb853950","addressTotalCastVoteCounts(address)":"a1ac6cb2","addressTotalVotes(address)":"dea5f6a6","addressTotalVotesVerified(address)":"930de979","addressesThatHaveVoted(uint256)":"50c4b616","allProposalTotalVotes()":"50a5e524","cancel()":"ea8a1af0","canceled()":"3f9942ff","castVote(uint256,uint8,uint256,uint256,bytes32[])":"419c533c","castVoteWithoutProof(uint256,uint8,uint256)":"65f16263","checkProof(address,uint256,bytes32[],bool)":"32763c22","comment(uint256,string)":"1805c523","commentIds(uint256)":"f5c36411","commentIsDeleted(uint256)":"ae66b8ad","comments(uint256)":"8ebb4c15","contestAddressTotalVotesCast(address)":"aec116b6","contestDeadline()":"262e59e9","contestStart()":"004114a8","costToPropose()":"6ed815ad","creator()":"02d05d3f","deleteComments(uint256[])":"ac67f801","deleteProposals(uint256[])":"f0a7db0a","deletedCommentIds(uint256)":"3fb57c92","deletedProposalIds(uint256)":"05846cae","downvotingAllowed()":"60506ff6","forVotesToProposalIds(uint256,uint256)":"711effc8","getAllAddressesThatHaveVoted()":"2c39805f","getAllCommentIds()":"e11db9d8","getAllDeletedCommentIds()":"5cb718a1","getAllDeletedProposalIds()":"1242b737","getAllProposalAuthors()":"946369b5","getAllProposalIds()":"efa90d36","getComment(uint256)":"0800e300","getNumProposalsWithThisManyForVotes(uint256)":"9ba197af","getOnlyProposalIdWithThisManyForVotes(uint256)":"b66d1da3","getProposal(uint256)":"c7f758a8","getProposalComments(uint256)":"c05f4104","getProposalsWithThisManyForVotes(uint256)":"c9a1b6b2","getRankIndex(uint256)":"5c7107d8","getSortedRanks()":"6fd3636b","hashComment((address,uint256,uint256,string))":"409fd030","hashProposal((address,bool,string,(address),(address[],uint256)))":"458da87d","isOrIsBelowTiedRank(uint256)":"9174778c","maxProposalCount()":"fb9bf8d4","name()":"06fdde03","numAllowedProposalSubmissions()":"832009af","numSubmissions(address)":"75e509c5","officialRewardsModule()":"785ddfe5","percentageToCreator()":"edcd1be4","prompt()":"7c65d711","proposalAddressVotes(uint256,address)":"6e4eb810","proposalAddressesHaveVoted(uint256)":"b323580d","proposalAuthors(uint256)":"0aa25e44","proposalComments(uint256,uint256)":"f61736f4","proposalIds(uint256)":"9b644a23","proposalIsDeleted(uint256)":"f79c0172","proposalVotes(uint256)":"544ffc9c","proposalVotesStructs(uint256)":"070dc5d9","proposals(uint256)":"013cf08b","propose((address,bool,string,(address),(address[],uint256)),bytes32[])":"c0ffaa78","proposeWithoutProof((address,bool,string,(address),(address[],uint256)))":"476f4d8a","rankLimit()":"0414126a","setOfficialRewardsModule(address)":"f4f3d7ec","setSubmissionMerkleRoot(bytes32)":"daf762db","setVotingMerkleRoot(bytes32)":"544c7bb4","sortedRanks(uint256)":"325cc6d9","sortingEnabled()":"366ecf5b","state()":"c19d93fb","submissionMerkleRoot()":"bddc1641","totalVotesCast()":"7de418d5","validateProposalData((address,bool,string,(address),(address[],uint256)))":"fb8ddab4","verifyProposer(address,bytes32[])":"20b3e845","verifyVoter(address,uint256,bytes32[])":"531bd812","version()":"54fd4d50","voteStart()":"e031535b","votingDelay()":"3932abb1","votingMerkleRoot()":"dd96a19d","votingPeriod()":"02a251a3"},"id":28}