{"abi":[{"type":"constructor","inputs":[{"name":"_name","type":"string","internalType":"string"},{"name":"_prompt","type":"string","internalType":"string"},{"name":"_submissionMerkleRoot","type":"bytes32","internalType":"bytes32"},{"name":"_votingMerkleRoot","type":"bytes32","internalType":"bytes32"},{"name":"_constructorArgs","type":"tuple","internalType":"struct Governor.ConstructorArgs","components":[{"name":"intConstructorArgs","type":"tuple","internalType":"struct Governor.IntConstructorArgs","components":[{"name":"contestStart","type":"uint256","internalType":"uint256"},{"name":"votingDelay","type":"uint256","internalType":"uint256"},{"name":"votingPeriod","type":"uint256","internalType":"uint256"},{"name":"numAllowedProposalSubmissions","type":"uint256","internalType":"uint256"},{"name":"maxProposalCount","type":"uint256","internalType":"uint256"},{"name":"downvotingAllowed","type":"uint256","internalType":"uint256"},{"name":"sortingEnabled","type":"uint256","internalType":"uint256"},{"name":"rankLimit","type":"uint256","internalType":"uint256"},{"name":"percentageToCreator","type":"uint256","internalType":"uint256"},{"name":"costToPropose","type":"uint256","internalType":"uint256"},{"name":"costToVote","type":"uint256","internalType":"uint256"},{"name":"payPerVote","type":"uint256","internalType":"uint256"}]},{"name":"creatorSplitDestination","type":"address","internalType":"address"},{"name":"jkLabsSplitDestination","type":"address","internalType":"address"},{"name":"metadataFieldsSchema","type":"string","internalType":"string"}]}],"stateMutability":"nonpayable"},{"type":"function","name":"AMOUNT_FOR_SUMBITTER_PROOF","inputs":[],"outputs":[{"name":"","type":"uint256","internalType":"uint256"}],"stateMutability":"view"},{"type":"function","name":"JK_LABS_ADDRESS","inputs":[],"outputs":[{"name":"","type":"address","internalType":"address"}],"stateMutability":"view"},{"type":"function","name":"MAX_FIELDS_METADATA_LENGTH","inputs":[],"outputs":[{"name":"","type":"uint256","internalType":"uint256"}],"stateMutability":"view"},{"type":"function","name":"METADATAS_COUNT","inputs":[],"outputs":[{"name":"","type":"uint256","internalType":"uint256"}],"stateMutability":"view"},{"type":"function","name":"addressSubmitterVerified","inputs":[{"name":"","type":"address","internalType":"address"}],"outputs":[{"name":"","type":"bool","internalType":"bool"}],"stateMutability":"view"},{"type":"function","name":"addressTotalCastVoteCounts","inputs":[{"name":"","type":"address","internalType":"address"}],"outputs":[{"name":"","type":"uint256","internalType":"uint256"}],"stateMutability":"view"},{"type":"function","name":"addressTotalVotes","inputs":[{"name":"","type":"address","internalType":"address"}],"outputs":[{"name":"","type":"uint256","internalType":"uint256"}],"stateMutability":"view"},{"type":"function","name":"addressTotalVotesVerified","inputs":[{"name":"","type":"address","internalType":"address"}],"outputs":[{"name":"","type":"bool","internalType":"bool"}],"stateMutability":"view"},{"type":"function","name":"addressesThatHaveVoted","inputs":[{"name":"","type":"uint256","internalType":"uint256"}],"outputs":[{"name":"","type":"address","internalType":"address"}],"stateMutability":"view"},{"type":"function","name":"allProposalTotalVotes","inputs":[],"outputs":[{"name":"proposalIdsReturn","type":"uint256[]","internalType":"uint256[]"},{"name":"proposalVoteCountsArrayReturn","type":"tuple[]","internalType":"struct GovernorCountingSimple.VoteCounts[]","components":[{"name":"forVotes","type":"uint256","internalType":"uint256"},{"name":"againstVotes","type":"uint256","internalType":"uint256"}]}],"stateMutability":"view"},{"type":"function","name":"cancel","inputs":[],"outputs":[],"stateMutability":"nonpayable"},{"type":"function","name":"canceled","inputs":[],"outputs":[{"name":"","type":"bool","internalType":"bool"}],"stateMutability":"view"},{"type":"function","name":"castVote","inputs":[{"name":"proposalId","type":"uint256","internalType":"uint256"},{"name":"support","type":"uint8","internalType":"uint8"},{"name":"totalVotes","type":"uint256","internalType":"uint256"},{"name":"numVotes","type":"uint256","internalType":"uint256"},{"name":"proof","type":"bytes32[]","internalType":"bytes32[]"}],"outputs":[{"name":"","type":"uint256","internalType":"uint256"}],"stateMutability":"payable"},{"type":"function","name":"castVoteWithoutProof","inputs":[{"name":"proposalId","type":"uint256","internalType":"uint256"},{"name":"support","type":"uint8","internalType":"uint8"},{"name":"numVotes","type":"uint256","internalType":"uint256"}],"outputs":[{"name":"","type":"uint256","internalType":"uint256"}],"stateMutability":"payable"},{"type":"function","name":"checkProof","inputs":[{"name":"addressToCheck","type":"address","internalType":"address"},{"name":"amount","type":"uint256","internalType":"uint256"},{"name":"proof","type":"bytes32[]","internalType":"bytes32[]"},{"name":"voting","type":"bool","internalType":"bool"}],"outputs":[{"name":"verified","type":"bool","internalType":"bool"}],"stateMutability":"view"},{"type":"function","name":"comment","inputs":[{"name":"proposalId","type":"uint256","internalType":"uint256"},{"name":"commentContent","type":"string","internalType":"string"}],"outputs":[{"name":"","type":"uint256","internalType":"uint256"}],"stateMutability":"nonpayable"},{"type":"function","name":"commentIds","inputs":[{"name":"","type":"uint256","internalType":"uint256"}],"outputs":[{"name":"","type":"uint256","internalType":"uint256"}],"stateMutability":"view"},{"type":"function","name":"commentIsDeleted","inputs":[{"name":"","type":"uint256","internalType":"uint256"}],"outputs":[{"name":"","type":"bool","internalType":"bool"}],"stateMutability":"view"},{"type":"function","name":"comments","inputs":[{"name":"","type":"uint256","internalType":"uint256"}],"outputs":[{"name":"author","type":"address","internalType":"address"},{"name":"timestamp","type":"uint256","internalType":"uint256"},{"name":"proposalId","type":"uint256","internalType":"uint256"},{"name":"commentContent","type":"string","internalType":"string"}],"stateMutability":"view"},{"type":"function","name":"contestAddressTotalVotesCast","inputs":[{"name":"userAddress","type":"address","internalType":"address"}],"outputs":[{"name":"userTotalVotesCast","type":"uint256","internalType":"uint256"}],"stateMutability":"view"},{"type":"function","name":"contestDeadline","inputs":[],"outputs":[{"name":"","type":"uint256","internalType":"uint256"}],"stateMutability":"view"},{"type":"function","name":"contestStart","inputs":[],"outputs":[{"name":"","type":"uint256","internalType":"uint256"}],"stateMutability":"view"},{"type":"function","name":"costToPropose","inputs":[],"outputs":[{"name":"","type":"uint256","internalType":"uint256"}],"stateMutability":"view"},{"type":"function","name":"costToVote","inputs":[],"outputs":[{"name":"","type":"uint256","internalType":"uint256"}],"stateMutability":"view"},{"type":"function","name":"creator","inputs":[],"outputs":[{"name":"","type":"address","internalType":"address"}],"stateMutability":"view"},{"type":"function","name":"creatorSplitDestination","inputs":[],"outputs":[{"name":"","type":"address","internalType":"address"}],"stateMutability":"view"},{"type":"function","name":"deleteComments","inputs":[{"name":"commentIdsParam","type":"uint256[]","internalType":"uint256[]"}],"outputs":[],"stateMutability":"nonpayable"},{"type":"function","name":"deleteProposals","inputs":[{"name":"proposalIdsToDelete","type":"uint256[]","internalType":"uint256[]"}],"outputs":[],"stateMutability":"nonpayable"},{"type":"function","name":"deletedCommentIds","inputs":[{"name":"","type":"uint256","internalType":"uint256"}],"outputs":[{"name":"","type":"uint256","internalType":"uint256"}],"stateMutability":"view"},{"type":"function","name":"deletedProposalIds","inputs":[{"name":"","type":"uint256","internalType":"uint256"}],"outputs":[{"name":"","type":"uint256","internalType":"uint256"}],"stateMutability":"view"},{"type":"function","name":"downvotingAllowed","inputs":[],"outputs":[{"name":"","type":"uint256","internalType":"uint256"}],"stateMutability":"view"},{"type":"function","name":"forVotesToProposalIds","inputs":[{"name":"","type":"uint256","internalType":"uint256"},{"name":"","type":"uint256","internalType":"uint256"}],"outputs":[{"name":"","type":"uint256","internalType":"uint256"}],"stateMutability":"view"},{"type":"function","name":"getAllAddressesThatHaveVoted","inputs":[],"outputs":[{"name":"","type":"address[]","internalType":"address[]"}],"stateMutability":"view"},{"type":"function","name":"getAllAuthorsOfDeletedProposals","inputs":[],"outputs":[{"name":"","type":"address[]","internalType":"address[]"}],"stateMutability":"view"},{"type":"function","name":"getAllCommentIds","inputs":[],"outputs":[{"name":"","type":"uint256[]","internalType":"uint256[]"}],"stateMutability":"view"},{"type":"function","name":"getAllDeletedCommentIds","inputs":[],"outputs":[{"name":"","type":"uint256[]","internalType":"uint256[]"}],"stateMutability":"view"},{"type":"function","name":"getAllDeletedProposalIds","inputs":[],"outputs":[{"name":"","type":"uint256[]","internalType":"uint256[]"}],"stateMutability":"view"},{"type":"function","name":"getAllProposalAuthors","inputs":[],"outputs":[{"name":"","type":"address[]","internalType":"address[]"}],"stateMutability":"view"},{"type":"function","name":"getAllProposalIds","inputs":[],"outputs":[{"name":"","type":"uint256[]","internalType":"uint256[]"}],"stateMutability":"view"},{"type":"function","name":"getComment","inputs":[{"name":"commentId","type":"uint256","internalType":"uint256"}],"outputs":[{"name":"","type":"tuple","internalType":"struct GovernorEngagement.CommentCore","components":[{"name":"author","type":"address","internalType":"address"},{"name":"timestamp","type":"uint256","internalType":"uint256"},{"name":"proposalId","type":"uint256","internalType":"uint256"},{"name":"commentContent","type":"string","internalType":"string"}]}],"stateMutability":"view"},{"type":"function","name":"getNumProposalsWithThisManyForVotes","inputs":[{"name":"forVotes","type":"uint256","internalType":"uint256"}],"outputs":[{"name":"count","type":"uint256","internalType":"uint256"}],"stateMutability":"view"},{"type":"function","name":"getOnlyProposalIdWithThisManyForVotes","inputs":[{"name":"forVotes","type":"uint256","internalType":"uint256"}],"outputs":[{"name":"proposalId","type":"uint256","internalType":"uint256"}],"stateMutability":"view"},{"type":"function","name":"getProposal","inputs":[{"name":"proposalId","type":"uint256","internalType":"uint256"}],"outputs":[{"name":"","type":"tuple","internalType":"struct Governor.ProposalCore","components":[{"name":"author","type":"address","internalType":"address"},{"name":"exists","type":"bool","internalType":"bool"},{"name":"description","type":"string","internalType":"string"},{"name":"targetMetadata","type":"tuple","internalType":"struct Governor.TargetMetadata","components":[{"name":"targetAddress","type":"address","internalType":"address"}]},{"name":"safeMetadata","type":"tuple","internalType":"struct Governor.SafeMetadata","components":[{"name":"signers","type":"address[]","internalType":"address[]"},{"name":"threshold","type":"uint256","internalType":"uint256"}]},{"name":"fieldsMetadata","type":"tuple","internalType":"struct Governor.FieldsMetadata","components":[{"name":"addressArray","type":"address[]","internalType":"address[]"},{"name":"stringArray","type":"string[]","internalType":"string[]"},{"name":"uintArray","type":"uint256[]","internalType":"uint256[]"}]}]}],"stateMutability":"view"},{"type":"function","name":"getProposalComments","inputs":[{"name":"proposalId","type":"uint256","internalType":"uint256"}],"outputs":[{"name":"","type":"uint256[]","internalType":"uint256[]"}],"stateMutability":"view"},{"type":"function","name":"getProposalsWithThisManyForVotes","inputs":[{"name":"forVotes","type":"uint256","internalType":"uint256"}],"outputs":[{"name":"proposalsWithThisManyForVotes","type":"uint256[]","internalType":"uint256[]"}],"stateMutability":"view"},{"type":"function","name":"getRankIndex","inputs":[{"name":"rank","type":"uint256","internalType":"uint256"}],"outputs":[{"name":"rankIndex","type":"uint256","internalType":"uint256"}],"stateMutability":"view"},{"type":"function","name":"getSortedRanks","inputs":[],"outputs":[{"name":"sortedRanksArray","type":"uint256[]","internalType":"uint256[]"}],"stateMutability":"view"},{"type":"function","name":"hashComment","inputs":[{"name":"commentObj","type":"tuple","internalType":"struct GovernorEngagement.CommentCore","components":[{"name":"author","type":"address","internalType":"address"},{"name":"timestamp","type":"uint256","internalType":"uint256"},{"name":"proposalId","type":"uint256","internalType":"uint256"},{"name":"commentContent","type":"string","internalType":"string"}]}],"outputs":[{"name":"","type":"uint256","internalType":"uint256"}],"stateMutability":"pure"},{"type":"function","name":"hashProposal","inputs":[{"name":"proposal","type":"tuple","internalType":"struct Governor.ProposalCore","components":[{"name":"author","type":"address","internalType":"address"},{"name":"exists","type":"bool","internalType":"bool"},{"name":"description","type":"string","internalType":"string"},{"name":"targetMetadata","type":"tuple","internalType":"struct Governor.TargetMetadata","components":[{"name":"targetAddress","type":"address","internalType":"address"}]},{"name":"safeMetadata","type":"tuple","internalType":"struct Governor.SafeMetadata","components":[{"name":"signers","type":"address[]","internalType":"address[]"},{"name":"threshold","type":"uint256","internalType":"uint256"}]},{"name":"fieldsMetadata","type":"tuple","internalType":"struct Governor.FieldsMetadata","components":[{"name":"addressArray","type":"address[]","internalType":"address[]"},{"name":"stringArray","type":"string[]","internalType":"string[]"},{"name":"uintArray","type":"uint256[]","internalType":"uint256[]"}]}]}],"outputs":[{"name":"","type":"uint256","internalType":"uint256"}],"stateMutability":"pure"},{"type":"function","name":"isOrIsBelowTiedRank","inputs":[{"name":"idx","type":"uint256","internalType":"uint256"}],"outputs":[{"name":"atOrBelowTiedRank","type":"bool","internalType":"bool"}],"stateMutability":"view"},{"type":"function","name":"jkLabsSplitDestination","inputs":[],"outputs":[{"name":"","type":"address","internalType":"address"}],"stateMutability":"view"},{"type":"function","name":"maxProposalCount","inputs":[],"outputs":[{"name":"","type":"uint256","internalType":"uint256"}],"stateMutability":"view"},{"type":"function","name":"metadataFieldsSchema","inputs":[],"outputs":[{"name":"","type":"string","internalType":"string"}],"stateMutability":"view"},{"type":"function","name":"name","inputs":[],"outputs":[{"name":"","type":"string","internalType":"string"}],"stateMutability":"view"},{"type":"function","name":"numAllowedProposalSubmissions","inputs":[],"outputs":[{"name":"","type":"uint256","internalType":"uint256"}],"stateMutability":"view"},{"type":"function","name":"numSubmissions","inputs":[{"name":"","type":"address","internalType":"address"}],"outputs":[{"name":"","type":"uint256","internalType":"uint256"}],"stateMutability":"view"},{"type":"function","name":"officialRewardsModule","inputs":[],"outputs":[{"name":"","type":"address","internalType":"contract RewardsModule"}],"stateMutability":"view"},{"type":"function","name":"payPerVote","inputs":[],"outputs":[{"name":"","type":"uint256","internalType":"uint256"}],"stateMutability":"view"},{"type":"function","name":"percentageToCreator","inputs":[],"outputs":[{"name":"","type":"uint256","internalType":"uint256"}],"stateMutability":"view"},{"type":"function","name":"prompt","inputs":[],"outputs":[{"name":"","type":"string","internalType":"string"}],"stateMutability":"view"},{"type":"function","name":"proposalAddressVotes","inputs":[{"name":"proposalId","type":"uint256","internalType":"uint256"},{"name":"userAddress","type":"address","internalType":"address"}],"outputs":[{"name":"forVotes","type":"uint256","internalType":"uint256"},{"name":"againstVotes","type":"uint256","internalType":"uint256"}],"stateMutability":"view"},{"type":"function","name":"proposalAddressesHaveVoted","inputs":[{"name":"proposalId","type":"uint256","internalType":"uint256"}],"outputs":[{"name":"","type":"address[]","internalType":"address[]"}],"stateMutability":"view"},{"type":"function","name":"proposalAuthors","inputs":[{"name":"","type":"uint256","internalType":"uint256"}],"outputs":[{"name":"","type":"address","internalType":"address"}],"stateMutability":"view"},{"type":"function","name":"proposalComments","inputs":[{"name":"","type":"uint256","internalType":"uint256"},{"name":"","type":"uint256","internalType":"uint256"}],"outputs":[{"name":"","type":"uint256","internalType":"uint256"}],"stateMutability":"view"},{"type":"function","name":"proposalIds","inputs":[{"name":"","type":"uint256","internalType":"uint256"}],"outputs":[{"name":"","type":"uint256","internalType":"uint256"}],"stateMutability":"view"},{"type":"function","name":"proposalIsDeleted","inputs":[{"name":"","type":"uint256","internalType":"uint256"}],"outputs":[{"name":"","type":"bool","internalType":"bool"}],"stateMutability":"view"},{"type":"function","name":"proposalVotes","inputs":[{"name":"proposalId","type":"uint256","internalType":"uint256"}],"outputs":[{"name":"forVotes","type":"uint256","internalType":"uint256"},{"name":"againstVotes","type":"uint256","internalType":"uint256"}],"stateMutability":"view"},{"type":"function","name":"proposalVotesStructs","inputs":[{"name":"","type":"uint256","internalType":"uint256"}],"outputs":[{"name":"proposalVoteCounts","type":"tuple","internalType":"struct GovernorCountingSimple.VoteCounts","components":[{"name":"forVotes","type":"uint256","internalType":"uint256"},{"name":"againstVotes","type":"uint256","internalType":"uint256"}]}],"stateMutability":"view"},{"type":"function","name":"proposals","inputs":[{"name":"","type":"uint256","internalType":"uint256"}],"outputs":[{"name":"author","type":"address","internalType":"address"},{"name":"exists","type":"bool","internalType":"bool"},{"name":"description","type":"string","internalType":"string"},{"name":"targetMetadata","type":"tuple","internalType":"struct Governor.TargetMetadata","components":[{"name":"targetAddress","type":"address","internalType":"address"}]},{"name":"safeMetadata","type":"tuple","internalType":"struct Governor.SafeMetadata","components":[{"name":"signers","type":"address[]","internalType":"address[]"},{"name":"threshold","type":"uint256","internalType":"uint256"}]},{"name":"fieldsMetadata","type":"tuple","internalType":"struct Governor.FieldsMetadata","components":[{"name":"addressArray","type":"address[]","internalType":"address[]"},{"name":"stringArray","type":"string[]","internalType":"string[]"},{"name":"uintArray","type":"uint256[]","internalType":"uint256[]"}]}],"stateMutability":"view"},{"type":"function","name":"propose","inputs":[{"name":"proposal","type":"tuple","internalType":"struct Governor.ProposalCore","components":[{"name":"author","type":"address","internalType":"address"},{"name":"exists","type":"bool","internalType":"bool"},{"name":"description","type":"string","internalType":"string"},{"name":"targetMetadata","type":"tuple","internalType":"struct Governor.TargetMetadata","components":[{"name":"targetAddress","type":"address","internalType":"address"}]},{"name":"safeMetadata","type":"tuple","internalType":"struct Governor.SafeMetadata","components":[{"name":"signers","type":"address[]","internalType":"address[]"},{"name":"threshold","type":"uint256","internalType":"uint256"}]},{"name":"fieldsMetadata","type":"tuple","internalType":"struct Governor.FieldsMetadata","components":[{"name":"addressArray","type":"address[]","internalType":"address[]"},{"name":"stringArray","type":"string[]","internalType":"string[]"},{"name":"uintArray","type":"uint256[]","internalType":"uint256[]"}]}]},{"name":"proof","type":"bytes32[]","internalType":"bytes32[]"}],"outputs":[{"name":"","type":"uint256","internalType":"uint256"}],"stateMutability":"payable"},{"type":"function","name":"proposeWithoutProof","inputs":[{"name":"proposal","type":"tuple","internalType":"struct Governor.ProposalCore","components":[{"name":"author","type":"address","internalType":"address"},{"name":"exists","type":"bool","internalType":"bool"},{"name":"description","type":"string","internalType":"string"},{"name":"targetMetadata","type":"tuple","internalType":"struct Governor.TargetMetadata","components":[{"name":"targetAddress","type":"address","internalType":"address"}]},{"name":"safeMetadata","type":"tuple","internalType":"struct Governor.SafeMetadata","components":[{"name":"signers","type":"address[]","internalType":"address[]"},{"name":"threshold","type":"uint256","internalType":"uint256"}]},{"name":"fieldsMetadata","type":"tuple","internalType":"struct Governor.FieldsMetadata","components":[{"name":"addressArray","type":"address[]","internalType":"address[]"},{"name":"stringArray","type":"string[]","internalType":"string[]"},{"name":"uintArray","type":"uint256[]","internalType":"uint256[]"}]}]}],"outputs":[{"name":"","type":"uint256","internalType":"uint256"}],"stateMutability":"payable"},{"type":"function","name":"rankLimit","inputs":[],"outputs":[{"name":"","type":"uint256","internalType":"uint256"}],"stateMutability":"view"},{"type":"function","name":"setCreatorSplitDestination","inputs":[{"name":"newCreatorSplitDestination","type":"address","internalType":"address"}],"outputs":[],"stateMutability":"nonpayable"},{"type":"function","name":"setName","inputs":[{"name":"newName","type":"string","internalType":"string"}],"outputs":[{"name":"","type":"string","internalType":"string"}],"stateMutability":"nonpayable"},{"type":"function","name":"setOfficialRewardsModule","inputs":[{"name":"officialRewardsModule_","type":"address","internalType":"contract RewardsModule"}],"outputs":[],"stateMutability":"nonpayable"},{"type":"function","name":"setPrompt","inputs":[{"name":"newPrompt","type":"string","internalType":"string"}],"outputs":[{"name":"","type":"string","internalType":"string"}],"stateMutability":"nonpayable"},{"type":"function","name":"setSubmissionMerkleRoot","inputs":[{"name":"newSubmissionMerkleRoot","type":"bytes32","internalType":"bytes32"}],"outputs":[],"stateMutability":"nonpayable"},{"type":"function","name":"setVotingMerkleRoot","inputs":[{"name":"newVotingMerkleRoot","type":"bytes32","internalType":"bytes32"}],"outputs":[],"stateMutability":"nonpayable"},{"type":"function","name":"sortedRanks","inputs":[{"name":"","type":"uint256","internalType":"uint256"}],"outputs":[{"name":"","type":"uint256","internalType":"uint256"}],"stateMutability":"view"},{"type":"function","name":"sortingEnabled","inputs":[],"outputs":[{"name":"","type":"uint256","internalType":"uint256"}],"stateMutability":"view"},{"type":"function","name":"state","inputs":[],"outputs":[{"name":"","type":"uint8","internalType":"enum Governor.ContestState"}],"stateMutability":"view"},{"type":"function","name":"submissionMerkleRoot","inputs":[],"outputs":[{"name":"","type":"bytes32","internalType":"bytes32"}],"stateMutability":"view"},{"type":"function","name":"totalVotesCast","inputs":[],"outputs":[{"name":"","type":"uint256","internalType":"uint256"}],"stateMutability":"view"},{"type":"function","name":"validateProposalData","inputs":[{"name":"proposal","type":"tuple","internalType":"struct Governor.ProposalCore","components":[{"name":"author","type":"address","internalType":"address"},{"name":"exists","type":"bool","internalType":"bool"},{"name":"description","type":"string","internalType":"string"},{"name":"targetMetadata","type":"tuple","internalType":"struct Governor.TargetMetadata","components":[{"name":"targetAddress","type":"address","internalType":"address"}]},{"name":"safeMetadata","type":"tuple","internalType":"struct Governor.SafeMetadata","components":[{"name":"signers","type":"address[]","internalType":"address[]"},{"name":"threshold","type":"uint256","internalType":"uint256"}]},{"name":"fieldsMetadata","type":"tuple","internalType":"struct Governor.FieldsMetadata","components":[{"name":"addressArray","type":"address[]","internalType":"address[]"},{"name":"stringArray","type":"string[]","internalType":"string[]"},{"name":"uintArray","type":"uint256[]","internalType":"uint256[]"}]}]}],"outputs":[],"stateMutability":"view"},{"type":"function","name":"verifyProposer","inputs":[{"name":"account","type":"address","internalType":"address"},{"name":"proof","type":"bytes32[]","internalType":"bytes32[]"}],"outputs":[],"stateMutability":"nonpayable"},{"type":"function","name":"verifyVoter","inputs":[{"name":"account","type":"address","internalType":"address"},{"name":"totalVotes","type":"uint256","internalType":"uint256"},{"name":"proof","type":"bytes32[]","internalType":"bytes32[]"}],"outputs":[],"stateMutability":"nonpayable"},{"type":"function","name":"version","inputs":[],"outputs":[{"name":"","type":"string","internalType":"string"}],"stateMutability":"pure"},{"type":"function","name":"voteStart","inputs":[],"outputs":[{"name":"","type":"uint256","internalType":"uint256"}],"stateMutability":"view"},{"type":"function","name":"votingDelay","inputs":[],"outputs":[{"name":"","type":"uint256","internalType":"uint256"}],"stateMutability":"view"},{"type":"function","name":"votingMerkleRoot","inputs":[],"outputs":[{"name":"","type":"bytes32","internalType":"bytes32"}],"stateMutability":"view"},{"type":"function","name":"votingPeriod","inputs":[],"outputs":[{"name":"","type":"uint256","internalType":"uint256"}],"stateMutability":"view"},{"type":"event","name":"CommentCreated","inputs":[{"name":"commentId","type":"uint256","indexed":false,"internalType":"uint256"}],"anonymous":false},{"type":"event","name":"CommentsDeleted","inputs":[{"name":"commentIds","type":"uint256[]","indexed":false,"internalType":"uint256[]"}],"anonymous":false},{"type":"event","name":"ContestCanceled","inputs":[],"anonymous":false},{"type":"event","name":"CreatorPaymentReleased","inputs":[{"name":"to","type":"address","indexed":false,"internalType":"address"},{"name":"amount","type":"uint256","indexed":false,"internalType":"uint256"}],"anonymous":false},{"type":"event","name":"JkLabsPaymentReleased","inputs":[{"name":"to","type":"address","indexed":false,"internalType":"address"},{"name":"amount","type":"uint256","indexed":false,"internalType":"uint256"}],"anonymous":false},{"type":"event","name":"JokeraceCreated","inputs":[{"name":"version","type":"string","indexed":false,"internalType":"string"},{"name":"name","type":"string","indexed":false,"internalType":"string"},{"name":"prompt","type":"string","indexed":false,"internalType":"string"},{"name":"creator","type":"address","indexed":false,"internalType":"address"},{"name":"contestStart","type":"uint256","indexed":false,"internalType":"uint256"},{"name":"votingDelay","type":"uint256","indexed":false,"internalType":"uint256"},{"name":"votingPeriod","type":"uint256","indexed":false,"internalType":"uint256"}],"anonymous":false},{"type":"event","name":"OfficialRewardsModuleSet","inputs":[{"name":"oldOfficialRewardsModule","type":"address","indexed":false,"internalType":"contract RewardsModule"},{"name":"newOfficialRewardsModule","type":"address","indexed":false,"internalType":"contract RewardsModule"}],"anonymous":false},{"type":"event","name":"ProposalCreated","inputs":[{"name":"proposalId","type":"uint256","indexed":false,"internalType":"uint256"},{"name":"proposer","type":"address","indexed":false,"internalType":"address"},{"name":"proposalDescription","type":"string","indexed":false,"internalType":"string"}],"anonymous":false},{"type":"event","name":"ProposalsDeleted","inputs":[{"name":"proposalIds","type":"uint256[]","indexed":false,"internalType":"uint256[]"}],"anonymous":false},{"type":"event","name":"VoteCast","inputs":[{"name":"voter","type":"address","indexed":true,"internalType":"address"},{"name":"proposalId","type":"uint256","indexed":false,"internalType":"uint256"},{"name":"support","type":"uint8","indexed":false,"internalType":"uint8"},{"name":"numVotes","type":"uint256","indexed":false,"internalType":"uint256"}],"anonymous":false},{"type":"error","name":"AddressFieldMetadataArrayTooLong","inputs":[]},{"type":"error","name":"AddressNotPermissionedToSubmit","inputs":[]},{"type":"error","name":"AuthorIsNotSender","inputs":[{"name":"author","type":"address","internalType":"address"},{"name":"sender","type":"address","internalType":"address"}]},{"type":"error","name":"CannotDeleteWhenCompletedOrCanceled","inputs":[]},{"type":"error","name":"CannotUpdateWhenCompletedOrCanceled","inputs":[]},{"type":"error","name":"CannotVoteLessThanOneVoteInPayPerVote","inputs":[]},{"type":"error","name":"CannotVoteOnDeletedProposal","inputs":[]},{"type":"error","name":"ContestAlreadyCanceled","inputs":[]},{"type":"error","name":"ContestMustBeActiveToVote","inputs":[{"name":"currentState","type":"uint8","internalType":"enum Governor.ContestState"}]},{"type":"error","name":"ContestMustBeQueuedToPropose","inputs":[{"name":"currentState","type":"uint8","internalType":"enum Governor.ContestState"}]},{"type":"error","name":"ContestSubmissionLimitReached","inputs":[{"name":"maxProposalCount","type":"uint256","internalType":"uint256"}]},{"type":"error","name":"DownvotingNotEnabled","inputs":[]},{"type":"error","name":"DuplicateSubmission","inputs":[{"name":"proposalId","type":"uint256","internalType":"uint256"}]},{"type":"error","name":"EmptyProposalDescription","inputs":[]},{"type":"error","name":"IncorrectCostSent","inputs":[{"name":"msgValue","type":"uint256","internalType":"uint256"},{"name":"costToVote","type":"uint256","internalType":"uint256"}]},{"type":"error","name":"IndexHasNotBeenPopulated","inputs":[]},{"type":"error","name":"InvalidVoteType","inputs":[]},{"type":"error","name":"MoreThanOneProposalWithThisManyVotes","inputs":[]},{"type":"error","name":"NeedAtLeastOneVoteToVote","inputs":[]},{"type":"error","name":"NeedToSubmitWithProofFirst","inputs":[]},{"type":"error","name":"NeedToVoteWithProofFirst","inputs":[]},{"type":"error","name":"NotEnoughVotesLeft","inputs":[]},{"type":"error","name":"NotInMerkle","inputs":[]},{"type":"error","name":"OnlyCreatorCanAmend","inputs":[]},{"type":"error","name":"OnlyCreatorCanDelete","inputs":[]},{"type":"error","name":"OnlyCreatorCanSetName","inputs":[]},{"type":"error","name":"OnlyCreatorCanSetPrompt","inputs":[]},{"type":"error","name":"OnlyCreatorCanSetRewardsModule","inputs":[]},{"type":"error","name":"OnlyCreatorOrAuthorCanDeleteComments","inputs":[{"name":"failedToDeleteCommentId","type":"uint256","internalType":"uint256"}]},{"type":"error","name":"OnlyJkLabsCanAmend","inputs":[]},{"type":"error","name":"OnlyJkLabsOrCreatorCanCancel","inputs":[]},{"type":"error","name":"PayPerVoteMustBeEnabledForAnyoneCanVote","inputs":[]},{"type":"error","name":"RankCannotBeZero","inputs":[]},{"type":"error","name":"RankIsNotInSortedRanks","inputs":[]},{"type":"error","name":"SenderSubmissionLimitReached","inputs":[{"name":"numAllowedProposalSubmissions","type":"uint256","internalType":"uint256"}]},{"type":"error","name":"SortingAndDownvotingCannotBothBeEnabled","inputs":[]},{"type":"error","name":"StringFieldMetadataArrayTooLong","inputs":[]},{"type":"error","name":"UintFieldMetadataArrayTooLong","inputs":[]},{"type":"error","name":"UnexpectedMetadata","inputs":[{"name":"unexpectedMetadata","type":"uint8","internalType":"enum Governor.Metadatas"}]},{"type":"error","name":"ZeroSignersInSafeMetadata","inputs":[]},{"type":"error","name":"ZeroThresholdInSafeMetadata","inputs":[]}],"bytecode":{"object":"0x60806040523480156200001157600080fd5b50604051620057b0380380620057b083398101604081905262000034916200033c565b805160c081015160e09091015160009190915560015560038390556004829055848482600562000065848262000570565b50600662000074838262000570565b5060078054336001600160a01b03199182161790915581518051600855602080820151600955604080830151600a55606080840151600b556080840151600c5560a0840151600d55610100840151600e55610120840151600f5561014084015160105561016090930151601155908401516012805485166001600160a01b0392831617905590840151601380549094169116179091558101516014906200011c908262000570565b5060408051808201825260048152630d0b8ccd60e21b60208083019190915283518051918101519084015193517f9a9bca21e4e51607db64fbdbcd7b2284a909c6a8969821f0d161efbdcae70160946200017e9493899389933393906200066a565b60405180910390a15050815160c0015160011490508015620001a55750805160a001516001145b15620001c457604051636bff10c960e01b815260040160405180910390fd5b81158015620001d7575080516101600151155b15620001f6576040516397b6be7d60e01b815260040160405180910390fd5b5050505050620006d9565b634e487b7160e01b600052604160045260246000fd5b604051608081016001600160401b03811182821017156200023c576200023c62000201565b60405290565b60405161018081016001600160401b03811182821017156200023c576200023c62000201565b60005b83811015620002855781810151838201526020016200026b565b50506000910152565b600082601f830112620002a057600080fd5b81516001600160401b0380821115620002bd57620002bd62000201565b604051601f8301601f19908116603f01168101908282118183101715620002e857620002e862000201565b816040528381528660208588010111156200030257600080fd5b6200031584602083016020890162000268565b9695505050505050565b80516001600160a01b03811681146200033757600080fd5b919050565b600080600080600060a086880312156200035557600080fd5b85516001600160401b03808211156200036d57600080fd5b6200037b89838a016200028e565b965060208801519150808211156200039257600080fd5b620003a089838a016200028e565b955060408801519450606088015193506080880151915080821115620003c557600080fd5b908701908189036101e0811215620003dc57600080fd5b620003e662000217565b61018080831215620003f757600080fd5b6200040162000242565b9250845183526020850151602084015260408501516040840152606085015160608401526080850151608084015260a085015160a084015260c085015160c084015260e085015160e08401526101008086015181850152506101208086015181850152506101408086015181850152506101608086015181850152508282526200048d8186016200031f565b602083015250620004a26101a085016200031f565b60408201526101c0840151915082821115620004bd57600080fd5b620004cb8b8386016200028e565b6060820152809450505050509295509295909350565b600181811c90821680620004f657607f821691505b6020821081036200051757634e487b7160e01b600052602260045260246000fd5b50919050565b601f8211156200056b57600081815260208120601f850160051c81016020861015620005465750805b601f850160051c820191505b81811015620005675782815560010162000552565b5050505b505050565b81516001600160401b038111156200058c576200058c62000201565b620005a4816200059d8454620004e1565b846200051d565b602080601f831160018114620005dc5760008415620005c35750858301515b600019600386901b1c1916600185901b17855562000567565b600085815260208120601f198616915b828110156200060d57888601518255948401946001909101908401620005ec565b50858210156200062c5787850151600019600388901b60f8161c191681555b5050505050600190811b01905550565b600081518084526200065681602086016020860162000268565b601f01601f19169290920160200192915050565b60e0815260006200067f60e083018a6200063c565b828103602084015262000693818a6200063c565b90508281036040840152620006a981896200063c565b6001600160a01b039790971660608401525050608081019390935260a083019190915260c0909101529392505050565b6150c780620006e96000396000f3fe6080604052600436106104eb5760003560e01c806375e509c51161028c578063c47f00271161015a578063e11db9d8116100cc578063f4f3d7ec11610085578063f4f3d7ec14610fb2578063f5c3641114610fd2578063f61736f414610ff2578063f79c017214611012578063f823f11014611042578063fb9bf8d41461105557600080fd5b8063e11db9d814610f15578063ea8a1af014610f2a578063edcd1be414610f3f578063eef18e1714610f55578063efa90d3614610f7d578063f0a7db0a14610f9257600080fd5b8063d140d9f01161011e578063d140d9f014610e5d578063d798902514610e7d578063daf762db14610e9d578063dd96a19d14610ebd578063dea5f6a614610ed3578063e031535b14610f0057600080fd5b8063c47f002714610dab578063c7f758a814610dcb578063c9a1b6b214610df8578063cb85395014610e18578063cbdc27cb14610e4857600080fd5b8063a1ac6cb2116101fe578063b382543f116101b7578063b382543f14610cfe578063b4ac024f14610d13578063b66d1da314610d33578063bddc164114610d53578063c05f410414610d69578063c19d93fb14610d8957600080fd5b8063a1ac6cb214610c18578063ab5e694714610c45578063ac67f80114610c58578063ae66b8ad14610c78578063aec116b614610ca8578063b323580d14610cde57600080fd5b80638ebb4c15116102505780638ebb4c1514610b365780639174778c14610b66578063930de97914610b86578063946369b514610bb65780639b644a2314610bcb5780639ba197af14610beb57600080fd5b806375e509c514610aa8578063785ddfe514610ad55780637c65d71114610af55780637de418d514610b0a578063832009af14610b2057600080fd5b80633932abb1116103c9578063544c7bb41161033b57806360ed97a9116102f457806360ed97a914610a1557806365f1626314610a2a5780636e4eb81014610a3d5780636ed815ad14610a5d5780636fd3636b14610a73578063711effc814610a8857600080fd5b8063544c7bb414610933578063544ffc9c1461095357806354fd4d501461099d5780635c7107d8146109ca5780635cb718a1146109ea57806360506ff6146109ff57600080fd5b80634a587ad41161038d5780634a587ad4146108855780634d24a67f146108a557806350a5e524146108ba57806350c4b616146108dd57806351a41dec146108fd578063531bd8121461091357600080fd5b80633932abb1146108025780633f9942ff146108185780633fb57c9214610832578063409fd03014610852578063419c533c1461087257600080fd5b8063102613d811610462578063262e59e911610426578063262e59e9146107495780632c39805f1461075e578063325cc6d91461078057806332763c22146107a0578063347cf665146107d0578063366ecf5b146107ec57600080fd5b8063102613d8146106a55780631242b737146106c5578063146230f6146106e75780631805c5231461070957806320b3e8451461072957600080fd5b80630414126a116104b45780630414126a146105af57806305846cae146105c557806306fdde03146105e5578063070dc5d9146106075780630800e300146106585780630aa25e441461068557600080fd5b80624114a8146104f0578063013cf08b1461051957806302a251a31461054b57806302d05d3f1461056157806303f7eed614610599575b600080fd5b3480156104fc57600080fd5b5061050660085481565b6040519081526020015b60405180910390f35b34801561052557600080fd5b50610539610534366004614056565b61106b565b604051610510969594939291906141e6565b34801561055757600080fd5b50610506600a5481565b34801561056d57600080fd5b50600754610581906001600160a01b031681565b6040516001600160a01b039091168152602001610510565b3480156105a557600080fd5b5061050660115481565b3480156105bb57600080fd5b5061050660015481565b3480156105d157600080fd5b506105066105e0366004614056565b611356565b3480156105f157600080fd5b506105fa611377565b6040516105109190614240565b34801561061357600080fd5b5061064b610622366004614056565b602260209081526000918252604091829020825180840190935280548352600101549082015281565b6040516105109190614253565b34801561066457600080fd5b50610678610673366004614056565b611405565b604051610510919061426a565b34801561069157600080fd5b506105816106a0366004614056565b611519565b3480156106b157600080fd5b50601354610581906001600160a01b031681565b3480156106d157600080fd5b506106da611543565b60405161051091906142b3565b3480156106f357600080fd5b506107076107023660046142eb565b61159b565b005b34801561071557600080fd5b50610506610724366004614407565b611645565b34801561073557600080fd5b50610707610744366004614491565b611766565b34801561075557600080fd5b506105066117d5565b34801561076a57600080fd5b506107736117f1565b60405161051091906144e5565b34801561078c57600080fd5b5061050661079b366004614056565b611852565b3480156107ac57600080fd5b506107c06107bb366004614542565b611862565b6040519015158152602001610510565b3480156107dc57600080fd5b50610506678ac7230489e8000081565b3480156107f857600080fd5b5061050660005481565b34801561080e57600080fd5b5061050660095481565b34801561082457600080fd5b506018546107c09060ff1681565b34801561083e57600080fd5b5061050661084d366004614056565b611961565b34801561085e57600080fd5b5061050661086d3660046145b2565b611971565b61050661088036600461466e565b6119a2565b34801561089157600080fd5b50601254610581906001600160a01b031681565b3480156108b157600080fd5b50610506611a10565b3480156108c657600080fd5b506108cf611a1f565b6040516105109291906146de565b3480156108e957600080fd5b506105816108f8366004614056565b611b25565b34801561090957600080fd5b5061050660105481565b34801561091f57600080fd5b5061070761092e366004614747565b611b35565b34801561093f57600080fd5b5061070761094e366004614056565b611baa565b34801561095f57600080fd5b5061098861096e366004614056565b600090815260226020526040902080546001909101549091565b60408051928352602083019190915201610510565b3480156109a957600080fd5b506040805180820190915260048152630d0b8ccd60e21b60208201526105fa565b3480156109d657600080fd5b506105066109e5366004614056565b611c40565b3480156109f657600080fd5b506106da611d47565b348015610a0b57600080fd5b50610506600d5481565b348015610a2157600080fd5b506105fa611d9d565b610506610a383660046147a2565b611daa565b348015610a4957600080fd5b50610988610a583660046147d7565b611e48565b348015610a6957600080fd5b50610506600f5481565b348015610a7f57600080fd5b506106da611e7d565b348015610a9457600080fd5b50610506610aa3366004614807565b611ed3565b348015610ab457600080fd5b50610506610ac33660046142eb565b601a6020526000908152604090205481565b348015610ae157600080fd5b50602454610581906001600160a01b031681565b348015610b0157600080fd5b506105fa611f04565b348015610b1657600080fd5b5061050660205481565b348015610b2c57600080fd5b50610506600b5481565b348015610b4257600080fd5b50610b56610b51366004614056565b611f11565b6040516105109493929190614829565b348015610b7257600080fd5b506107c0610b81366004614056565b611fce565b348015610b9257600080fd5b506107c0610ba13660046142eb565b601e6020526000908152604090205460ff1681565b348015610bc257600080fd5b50610773612074565b348015610bd757600080fd5b50610506610be6366004614056565b6120d4565b348015610bf757600080fd5b50610506610c06366004614056565b60009081526023602052604090205490565b348015610c2457600080fd5b50610506610c333660046142eb565b60216020526000908152604090205481565b610506610c53366004614878565b6120e4565b348015610c6457600080fd5b50610707610c7336600461493a565b61215e565b348015610c8457600080fd5b506107c0610c93366004614056565b60296020526000908152604090205460ff1681565b348015610cb457600080fd5b50610506610cc33660046142eb565b6001600160a01b031660009081526021602052604090205490565b348015610cea57600080fd5b50610773610cf9366004614056565b612298565b348015610d0a57600080fd5b50610506600a81565b348015610d1f57600080fd5b506105fa610d2e36600461496e565b61230a565b348015610d3f57600080fd5b50610506610d4e366004614056565b61234b565b348015610d5f57600080fd5b5061050660035481565b348015610d7557600080fd5b506106da610d84366004614056565b6123ab565b348015610d9557600080fd5b50610d9e61240d565b60405161051091906149b8565b348015610db757600080fd5b506105fa610dc636600461496e565b61245e565b348015610dd757600080fd5b50610deb610de6366004614056565b612498565b60405161051091906149d2565b348015610e0457600080fd5b506106da610e13366004614056565b6127b8565b348015610e2457600080fd5b506107c0610e333660046142eb565b601f6020526000908152604090205460ff1681565b348015610e5457600080fd5b50610773612818565b348015610e6957600080fd5b50610707610e78366004614d41565b612948565b348015610e8957600080fd5b50610506610e98366004614d41565b612b2f565b348015610ea957600080fd5b50610707610eb8366004614056565b612b42565b348015610ec957600080fd5b5061050660045481565b348015610edf57600080fd5b50610506610eee3660046142eb565b601d6020526000908152604090205481565b348015610f0c57600080fd5b50610506612bd8565b348015610f2157600080fd5b506106da612bea565b348015610f3657600080fd5b50610707612c40565b348015610f4b57600080fd5b50610506600e5481565b348015610f6157600080fd5b5061058173dc652c746a8f85e18ce632d97c6118e8a52fa73881565b348015610f8957600080fd5b506106da612d04565b348015610f9e57600080fd5b50610707610fad366004614d75565b612d5a565b348015610fbe57600080fd5b50610707610fcd3660046142eb565b612ed9565b348015610fde57600080fd5b50610506610fed366004614056565b612f5e565b348015610ffe57600080fd5b5061050661100d366004614807565b612f6e565b34801561101e57600080fd5b506107c061102d366004614056565b60176020526000908152604090205460ff1681565b610506611050366004614db6565b612f8a565b34801561106157600080fd5b50610506600c5481565b601960205260009081526040902080546001820180546001600160a01b03831693600160a01b90930460ff169291906110a390614e11565b80601f01602080910402602001604051908101604052809291908181526020018280546110cf90614e11565b801561111c5780601f106110f15761010080835404028352916020019161111c565b820191906000526020600020905b8154815290600101906020018083116110ff57829003601f168201915b5050604080516020808201835260028801546001600160a01b03168252825160038901805460609381028301840186529482018581529899939893975090955093508492849184018282801561119b57602002820191906000526020600020905b81546001600160a01b0316815260019091019060200180831161117d575b5050505050815260200160018201548152505090806005016040518060600160405290816000820180548060200260200160405190810160405280929190818152602001828054801561121757602002820191906000526020600020905b81546001600160a01b031681526001909101906020018083116111f9575b5050505050815260200160018201805480602002602001604051908101604052809291908181526020016000905b828210156112f157838290600052602060002001805461126490614e11565b80601f016020809104026020016040519081016040528092919081815260200182805461129090614e11565b80156112dd5780601f106112b2576101008083540402835291602001916112dd565b820191906000526020600020905b8154815290600101906020018083116112c057829003601f168201915b505050505081526020019060010190611245565b5050505081526020016002820180548060200260200160405190810160405280929190818152602001828054801561134857602002820191906000526020600020905b815481526020019060010190808311611334575b505050505081525050905086565b6016818154811061136657600080fd5b600091825260209091200154905081565b6005805461138490614e11565b80601f01602080910402602001604051908101604052809291908181526020018280546113b090614e11565b80156113fd5780601f106113d2576101008083540402835291602001916113fd565b820191906000526020600020905b8154815290600101906020018083116113e057829003601f168201915b505050505081565b611439604051806080016040528060006001600160a01b031681526020016000815260200160008152602001606081525090565b600082815260276020908152604091829020825160808101845281546001600160a01b0316815260018201549281019290925260028101549282019290925260038201805491929160608401919061149090614e11565b80601f01602080910402602001604051908101604052809291908181526020018280546114bc90614e11565b80156115095780601f106114de57610100808354040283529160200191611509565b820191906000526020600020905b8154815290600101906020018083116114ec57829003601f168201915b5050505050815250509050919050565b601b818154811061152957600080fd5b6000918252602090912001546001600160a01b0316905081565b6060601680548060200260200160405190810160405280929190818152602001828054801561159157602002820191906000526020600020905b81548152602001906001019080831161157d575b5050505050905090565b6007546001600160a01b031633146115c65760405163141dbb4960e21b815260040160405180910390fd5b60046115d061240d565b60048111156115e1576115e16149a2565b1480611605575060026115f261240d565b6004811115611603576116036149a2565b145b15611623576040516398fe99a560e01b815260040160405180910390fd5b601280546001600160a01b0319166001600160a01b0392909216919091179055565b60408051608081018252338152426020820152908101839052606081018290526000908161167282611971565b6025805460018082019092557f401968ff42a154441da5f6c4c935ac46b8671f0e062baaa62a7545ba53bb6e4c01829055600082815260276020908152604091829020865181546001600160a01b0319166001600160a01b03909116178155908601519281019290925584015160028201556060840151919250839160038201906116fd9082614e93565b505050600085815260286020908152604080832080546001810182559084529190922001829055517f5a1a930fed43f34b3a07db782ebcac28a661c273e662bb98458cfba5a8ccd220906117549083815260200190565b60405180910390a19150505b92915050565b6001600160a01b0383166000908152601f602052604090205460ff166117d05760035460000361179557505050565b6117ab83678ac7230489e8000084846000611862565b506001600160a01b0383166000908152601f60205260409020805460ff191660011790555b505050565b6000600a546117e2612bd8565b6117ec9190614f68565b905090565b6060601c80548060200260200160405190810160405280929190818152602001828054801561159157602002820191906000526020600020905b81546001600160a01b0316815260019091019060200180831161182b575050505050905090565b6002818154811061136657600080fd5b6040516bffffffffffffffffffffffff19606087901b1660208201526034810185905260009081906054016040516020818303038152906040528051906020012090506000836118f2576118ed868680806020026020016040519081016040528093929190818152602001838360200280828437600092019190915250506003549150859050612fca565b611933565b611933868680806020026020016040519081016040528093929190818152602001838360200280828437600092019190915250506004549150859050612fca565b9050806119535760405163452c2df160e11b815260040160405180910390fd5b506001979650505050505050565b6026818154811061136657600080fd5b600081604051602001611984919061426a565b60408051601f19818403018152919052805160209091012092915050565b6000806119b0600186612fe0565b60008981526017602052604090205490915060ff16156119e3576040516358f1119560e01b815260040160405180910390fd5b6119ef33878686611b35565b6119f8816130ac565b611a04883389886131b3565b98975050505050505050565b611a1c60026001614f68565b81565b6060806000611a2c612d04565b9050600081516001600160401b03811115611a4957611a49614308565b604051908082528060200260200182016040528015611a8e57816020015b6040805180820190915260008082526020820152815260200190600190039081611a675790505b50905060005b8251811015611b1b5760226000848381518110611ab357611ab3614f7b565b6020026020010151815260200190815260200160002060000160405180604001604052908160008201548152602001600182015481525050828281518110611afd57611afd614f7b565b60200260200101819052508080611b1390614f91565b915050611a94565b5090939092509050565b601c818154811061152957600080fd5b60045415801590611b5f57506001600160a01b0384166000908152601e602052604090205460ff16155b15611ba457611b72848484846001611862565b506001600160a01b0384166000908152601d60209081526040808320869055601e9091529020805460ff191660011790555b50505050565b3373dc652c746a8f85e18ce632d97c6118e8a52fa73814611bde5760405163de07280160e01b815260040160405180910390fd5b6004611be861240d565b6004811115611bf957611bf96149a2565b1480611c1d57506002611c0a61240d565b6004811115611c1b57611c1b6149a2565b145b15611c3b576040516398fe99a560e01b815260040160405180910390fd5b600455565b600081600003611c6357604051630ec90a1760e31b815260040160405180910390fd5b60028054604080516020808402820181019092528281529192600092918490830182828015611cb157602002820191906000526020600020905b815481526020019060010190808311611c9d575b5050505050905060006001905060005b83811015611d2d57611cf8838281518110611cde57611cde614f7b565b602002602001015160009081526023602052604090205490565b15611d1b57858203611d0d5795945050505050565b81611d1781614f91565b9250505b80611d2581614f91565b915050611cc1565b50604051632cc2ab7360e11b815260040160405180910390fd5b60606026805480602002602001604051908101604052809291908181526020018280548015611591576020028201919060005260206000209081548152602001906001019080831161157d575050505050905090565b6014805461138490614e11565b600080611db8600184612fe0565b60008681526017602052604090205490915060ff1615611deb576040516358f1119560e01b815260040160405180910390fd5b60045415801590611e0c5750336000908152601e602052604090205460ff16155b15611e2a5760405163126ec6d160e31b815260040160405180910390fd5b611e33816130ac565b611e3f853386866131b3565b95945050505050565b60008281526022602090815260408083206001600160a01b0385168452600301909152902080546001909101545b9250929050565b60606002805480602002602001604051908101604052809291908181526020018280548015611591576020028201919060005260206000209081548152602001906001019080831161157d575050505050905090565b60236020528160005260406000208181548110611eef57600080fd5b90600052602060002001600091509150505481565b6006805461138490614e11565b60276020526000908152604090208054600182015460028301546003840180546001600160a01b03909416949293919291611f4b90614e11565b80601f0160208091040260200160405190810160405280929190818152602001828054611f7790614e11565b8015611fc45780601f10611f9957610100808354040283529160200191611fc4565b820191906000526020600020905b815481529060010190602001808311611fa757829003601f168201915b5050505050905084565b600254600090611fe090600190614faa565b821115612000576040516365d6f35160e11b815260040160405180910390fd5b60005b61200e836001614f68565b81101561206b57600161204a6002838154811061202d5761202d614f7b565b906000526020600020015460009081526023602052604090205490565b11156120595750600192915050565b8061206381614f91565b915050612003565b50600092915050565b6060601b805480602002602001604051908101604052809291908181526020018280548015611591576020028201919060005260206000209081546001600160a01b0316815260019091019060200180831161182b575050505050905090565b6015818154811061136657600080fd5b6000806120f2600080612fe0565b6003549091501561212d57336000908152601f602052604090205460ff1661212d57604051631f22097560e01b815260040160405180910390fd5b612139610e7884614fbd565b600061214c61214785614fbd565b6132fa565b9050612157826130ac565b9392505050565b805160005b8181101561225c57600083828151811061217f5761217f614f7b565b60209081029190910101516007549091506001600160a01b031633148015906121bf57506000818152602760205260409020546001600160a01b03163314155b156121e557604051635450763d60e11b8152600481018290526024015b60405180910390fd5b60008181526029602052604090205460ff16612249576000818152602960205260408120805460ff191660019081179091556026805491820181559091527f744a2cf8fd7008e3d53b67916e73460df9fa5214e3ef23dd4259ca09493a3594018190555b508061225481614f91565b915050612163565b507f788a4349d25bc08585923ae212bce8bb346a623bce753eeecb85fd9ce58dcb4b8260405161228c91906142b3565b60405180910390a15050565b60008181526022602090815260409182902060028101805484518185028101850190955280855260609492938301828280156122fd57602002820191906000526020600020905b81546001600160a01b031681526001909101906020018083116122df575b5050505050915050919050565b6007546060906001600160a01b0316331461233857604051630aca3d7160e11b815260040160405180910390fd5b60066123448382614e93565b5090919050565b60008181526023602052604081205460011461237a57604051633832a15560e21b815260040160405180910390fd5b6000828152602360205260408120805490919061239957612399614f7b565b90600052602060002001549050919050565b60008181526028602090815260409182902080548351818402810184019094528084526060939283018282801561240157602002820191906000526020600020905b8154815260200190600101908083116123ed575b50505050509050919050565b60185460009060ff16156124215750600290565b42600854106124305750600090565b42612439612bd8565b106124445750600390565b4261244d6117d5565b106124585750600190565b50600490565b6007546060906001600160a01b0316331461248c57604051637d1cb2b160e01b815260040160405180910390fd5b60056123448382614e93565b6124a0613e5e565b600082815260196020908152604091829020825160c08101845281546001600160a01b0381168252600160a01b900460ff1615159281019290925260018101805492939192918401916124f290614e11565b80601f016020809104026020016040519081016040528092919081815260200182805461251e90614e11565b801561256b5780601f106125405761010080835404028352916020019161256b565b820191906000526020600020905b81548152906001019060200180831161254e57829003601f168201915b5050509183525050604080516020818101835260028501546001600160a01b031682528084019190915281516003850180546060938102830184018552828501818152949095019491939092849284918401828280156125f457602002820191906000526020600020905b81546001600160a01b031681526001909101906020018083116125d6575b505050505081526020016001820154815250508152602001600582016040518060600160405290816000820180548060200260200160405190810160405280929190818152602001828054801561267457602002820191906000526020600020905b81546001600160a01b03168152600190910190602001808311612656575b5050505050815260200160018201805480602002602001604051908101604052809291908181526020016000905b8282101561274e5783829060005260206000200180546126c190614e11565b80601f01602080910402602001604051908101604052809291908181526020018280546126ed90614e11565b801561273a5780601f1061270f5761010080835404028352916020019161273a565b820191906000526020600020905b81548152906001019060200180831161271d57829003601f168201915b5050505050815260200190600101906126a2565b505050508152602001600282018054806020026020016040519081016040528092919081815260200182805480156127a557602002820191906000526020600020905b815481526020019060010190808311612791575b5050509190925250505090525092915050565b60008181526023602090815260409182902080548351818402810184019094528084526060939283018282801561240157602002820191906000526020600020908154815260200190600101908083116123ed5750505050509050919050565b60606000601680548060200260200160405190810160405280929190818152602001828054801561286857602002820191906000526020600020905b815481526020019060010190808311612854575b50505050509050600081516001600160401b0381111561288a5761288a614308565b6040519080825280602002602001820160405280156128b3578160200160208202803683370190505b50905060005b825181101561294157601960008483815181106128d8576128d8614f7b565b6020026020010151815260200190815260200160002060000160009054906101000a90046001600160a01b031682828151811061291757612917614f7b565b6001600160a01b03909216602092830291909101909101528061293981614f91565b9150506128b9565b5092915050565b80516001600160a01b0316331461298657805160405163fbbf4d7f60e01b81526001600160a01b0390911660048201523360248201526044016121dc565b60005b61299560026001614f68565b811015612b055760008160028111156129b0576129b06149a2565b905060008160028111156129c6576129c66149a2565b036129d15750612af3565b60018160028111156129e5576129e56149a2565b03612a3f5760808301515151600003612a115760405163c3b2798b60e01b815260040160405180910390fd5b826080015160200151600003612a3a576040516392fb9a3560e01b815260040160405180910390fd5b612af1565b6002816002811115612a5357612a536149a2565b03612ad65760a08301515151600a1015612a8057604051631e38b1b160e11b815260040160405180910390fd5b600a8360a0015160200151511115612aab5760405163a3b7dd7760e01b815260040160405180910390fd5b600a8360a0015160400151511115612a3a5760405163f696406560e01b815260040160405180910390fd5b8060405163d2277d4960e01b81526004016121dc9190614fc9565b505b80612afd81614f91565b915050612989565b50806040015151600003612b2c5760405163e182473360e01b815260040160405180910390fd5b50565b60008160405160200161198491906149d2565b3373dc652c746a8f85e18ce632d97c6118e8a52fa73814612b765760405163de07280160e01b815260040160405180910390fd5b6004612b8061240d565b6004811115612b9157612b916149a2565b1480612bb557506002612ba261240d565b6004811115612bb357612bb36149a2565b145b15612bd3576040516398fe99a560e01b815260040160405180910390fd5b600355565b60006009546008546117ec9190614f68565b60606025805480602002602001604051908101604052809291908181526020018280548015611591576020028201919060005260206000209081548152602001906001019080831161157d575050505050905090565b6007546001600160a01b03163314801590612c6f57503373dc652c746a8f85e18ce632d97c6118e8a52fa73814155b15612c8d576040516301dbf46f60e71b815260040160405180910390fd5b6000612c9761240d565b90506002816004811115612cad57612cad6149a2565b03612ccb57604051636f79584d60e01b815260040160405180910390fd5b6018805460ff191660011790556040517f4cd963a081760a54f571abc0f1db4dde31b4a07d8d6da3e844b8c6f47eeaaa4290600090a150565b60606015805480602002602001604051908101604052809291908181526020018280548015611591576020028201919060005260206000209081548152602001906001019080831161157d575050505050905090565b6007546001600160a01b03163314612d855760405163b8d4540960e01b815260040160405180910390fd5b6004612d8f61240d565b6004811115612da057612da06149a2565b1480612dc457506002612db161240d565b6004811115612dc257612dc26149a2565b145b15612de257604051631e71d28360e21b815260040160405180910390fd5b60005b81811015612e87576000838383818110612e0157612e01614f7b565b60209081029290920135600081815260179093526040909220549192505060ff16612e74576000818152601760205260408120805460ff191660019081179091556016805491820181559091527fd833147d7dc355ba459fc788f669e58cfaf9dc25ddcd0702e87d69c7b5124289018190555b5080612e7f81614f91565b915050612de5565b50600d54158015612e9a57506000546001145b15612ea957612ea982826135d1565b7f75a75cf5c561892f4cc5b26c1b8e933849b42238c96dd073d080d1ae96c51416601560405161228c9190614fdd565b6007546001600160a01b03163314612f0457604051630f4cb1bd60e11b815260040160405180910390fd5b602480546001600160a01b038381166001600160a01b031983168117909355604080519190921680825260208201939093527f753a2cf8d360cff631674504210913e48247f8e56b3e6d2006c2103d4095999f910161228c565b6025818154811061136657600080fd5b60286020528160005260406000208181548110611eef57600080fd5b600080612f98600080612fe0565b9050612fa5338585611766565b612fb1610e7886614fbd565b6000612fbf61214787614fbd565b9050611e3f826130ac565b600082612fd7858461362e565b14949350505050565b60008080846001811115612ff657612ff66149a2565b036130045750600f54613083565b6001846001811115613018576130186149a2565b0361307f5760115460010361307657670de0b6b3a7640000831015613050576040516346ddb8d160e01b815260040160405180910390fd5b613062670de0b6b3a764000084615018565b60105461306f919061503a565b9050613083565b50601054613083565b5060005b803414612157576040516372c3eaa760e01b8152346004820152602481018290526044016121dc565b8015612b2c5760006064600e5460646130c59190614faa565b6130cf903461503a565b6130d99190615018565b9050801561313e576013546130f7906001600160a01b03168261367b565b601354604080516001600160a01b039092168252602082018390527f9df63d1c00d2e332f573be591c0579caafb256b2c5a17abcc8ad471cccda1b81910160405180910390a15b600061314a8234614faa565b905080156117d057601254613168906001600160a01b03168261367b565b600754604080516001600160a01b039092168252602082018390527f6dff55337c8458ae8c536a63869a48bc33541733422a796390c131d91f4238ed910160405180910390a1505050565b600060016131bf61240d565b60048111156131d0576131d06149a2565b146131f7576131dd61240d565b60405163049cab4960e51b81526004016121dc91906149b8565b816000036132185760405163502e1c2960e01b815260040160405180910390fd5b61324a85858585601d60008a6001600160a01b03166001600160a01b0316815260200190815260200160002054613794565b601c80546001810182556000919091527f0e4562a10381dec21b205ed72637e6b1b523bdd0e4d4d50af5cd23dd4500a2110180546001600160a01b031916331790556040805186815260ff851660208201529081018390526001600160a01b038516907f2c9deb38f462962eadbd85a9d3a4120503ee091f1582eaaa10aa8c6797651d299060600160405180910390a25050506001600160a01b03166000908152601d6020526040902054919050565b6000600361330661240d565b6004811115613317576133176149a2565b1461333e5761332461240d565b604051632889531360e01b81526004016121dc91906149b8565b600b54336000908152601a60205260409020540361337557600b54604051632bd6d93960e21b81526004016121dc91815260200190565b600c546016546015546133889190614faa565b036133ac57600c546040516302217f5360e51b81526004016121dc91815260200190565b60006133b783612b2f565b600081815260196020526040902054909150600160a01b900460ff16156133f45760405163baffc42360e01b8152600481018290526024016121dc565b6015805460018181019092557f55f448fdea98c4d29eb340757ef0a66cd03dbb9538908a6a81d96026b71ec4750182905560008281526019602090815260409182902086518154928801511515600160a01b026001600160a81b03199093166001600160a01b03909116179190911781559085015185928201906134789082614e93565b506060820151516002820180546001600160a01b0319166001600160a01b0390921691909117905560808201518051805160038401916134bd91839160200190613ef8565b5060209182015160019091015560a083015180518051919260058501926134e79284920190613ef8565b5060208281015180516135009260018501920190613f5d565b506040820151805161351c916002840191602090910190613faf565b5050336000908152601a60205260408120805460019550909350909150613544908490614f68565b9091555050601b80546001810182556000919091527f3ad8aa4f87544323a9d1e5dd902f40c356527a7955687113db5f9a85ad579dc10180546001600160a01b0319163390811790915560408085015190517f7585f467599d0f008985f231af99293be388626ac16ca59505c2f8f88969cd63926135c3928592615051565b60405180910390a192915050565b60005b818110156117d05760008383838181106135f0576135f0614f7b565b602090810292909201356000818152602290935260409092205491925061361990508282613a09565b5050808061362690614f91565b9150506135d4565b600081815b84518110156136735761365f8286838151811061365257613652614f7b565b6020026020010151613b3a565b91508061366b81614f91565b915050613633565b509392505050565b804710156136cb5760405162461bcd60e51b815260206004820152601d60248201527f416464726573733a20696e73756666696369656e742062616c616e636500000060448201526064016121dc565b6000826001600160a01b03168260405160006040518083038185875af1925050503d8060008114613718576040519150601f19603f3d011682016040523d82523d6000602084013e61371d565b606091505b50509050806117d05760405162461bcd60e51b815260206004820152603a60248201527f416464726573733a20756e61626c6520746f2073656e642076616c75652c207260448201527f6563697069656e74206d6179206861766520726576657274656400000000000060648201526084016121dc565b6000858152602260205260409020600454158015906137d457506001600160a01b0385166000908152602160205260409020546137d19083614faa565b83115b156137f25760405163660fa07360e11b815260040160405180910390fd5b6001600160a01b038516600090815260038201602052604081205415801561383557506001600160a01b0386166000908152600383016020526040902060010154155b905060ff851661388d57815484908390600090613853908490614f68565b90915550506001600160a01b038616600090815260038301602052604081208054869290613882908490614f68565b9091555061391e9050565b60001960ff86160161390557600d546001146138bc57604051639755958f60e01b815260040160405180910390fd5b838260000160010160008282546138d39190614f68565b90915550506001600160a01b038616600090815260038301602052604081206001018054869290613882908490614f68565b604051638eed55d160e01b815260040160405180910390fd5b801561395557600282018054600181018255600091825260209091200180546001600160a01b0319166001600160a01b0388161790555b6001600160a01b0386166000908152602160205260408120805486929061397d908490614f68565b9250508190555083602060008282546139969190614f68565b9091555050600d541580156139ad57506000546001145b15613a0057815460006139c08683614faa565b905080156139d2576139d28982613a09565b6000828152602360209081526040822080546001810182559083529120018990556139fd8183613b69565b50505b50505050505050565b600081815260236020908152604080832080548251818502810185019093528083529192909190830182828015613a5f57602002820191906000526020600020905b815481526020019060010190808311613a4b575b5050505050905060005b8151811015611ba45783828281518110613a8557613a85614f7b565b602002602001015103613b28578160018351613aa19190614faa565b81518110613ab157613ab1614f7b565b6020026020010151602360008581526020019081526020016000208281548110613add57613add614f7b565b906000526020600020018190555060236000848152602001908152602001600020805480613b0d57613b0d61507b565b60019003818190600052602060002001600090559055611ba4565b80613b3281614f91565b915050613a69565b6000818310613b56576000828152602084905260409020612157565b6000838152602083905260409020612157565b60028054604080516020808402820181019092528281529192600092918490830182828015613bb757602002820191906000526020600020905b815481526020019060010190808311613ba3575b5050505050905081600003613bfe575050600280546001810182556000919091527f405787fa12a823e0f2b7631cc41b3ba8828b3321ca811111fa75cd3aa3bb5ace015550565b80613c0a600184614faa565b81518110613c1a57613c1a614f7b565b6020026020010151831015613c70576001548203613c385750505050565b5050600280546001810182556000919091527f405787fa12a823e0f2b7631cc41b3ba8828b3321ca811111fa75cd3aa3bb5ace015550565b611ba4848484846000805b83811015613ce557828181518110613c9557613c95614f7b565b60200260200101518503613caa575050611ba4565b828181518110613cbc57613cbc614f7b565b6020026020010151851115613cd357809150613ce5565b80613cdd81614f91565b915050613c7b565b5060008086118015613d035750600086815260236020526040902054155b90506000818015613d2c575086848481518110613d2257613d22614f7b565b6020026020010151145b613e3557613d3b600186614faa565b8314613de3576000613d4e846001614f68565b90505b85811015613de15784613d65600183614faa565b81518110613d7557613d75614f7b565b602002602001015160028281548110613d9057613d90614f7b565b600091825260209091200155828015613dc1575087858281518110613db757613db7614f7b565b6020026020010151145b15613dcf5760019150613de1565b80613dd981614f91565b915050613d51565b505b80158015613df2575060015485105b15613e3557600284613e05600188614faa565b81518110613e1557613e15614f7b565b602090810291909101810151825460018101845560009384529190922001555b8560028481548110613e4957613e49614f7b565b60009182526020909120015550505050505050565b6040518060c0016040528060006001600160a01b0316815260200160001515815260200160608152602001613ea8604051806020016040528060006001600160a01b031681525090565b8152602001613eca604051806040016040528060608152602001600081525090565b8152602001613ef360405180606001604052806060815260200160608152602001606081525090565b905290565b828054828255906000526020600020908101928215613f4d579160200282015b82811115613f4d57825182546001600160a01b0319166001600160a01b03909116178255602090920191600190910190613f18565b50613f59929150613fea565b5090565b828054828255906000526020600020908101928215613fa3579160200282015b82811115613fa35782518290613f939082614e93565b5091602001919060010190613f7d565b50613f59929150613fff565b828054828255906000526020600020908101928215613f4d579160200282015b82811115613f4d578251825591602001919060010190613fcf565b5b80821115613f595760008155600101613feb565b80821115613f59576000614013828261401c565b50600101613fff565b50805461402890614e11565b6000825580601f10614038575050565b601f016020900490600052602060002090810190612b2c9190613fea565b60006020828403121561406857600080fd5b5035919050565b6000815180845260005b8181101561409557602081850181015186830182015201614079565b506000602082860101526020601f19601f83011685010191505092915050565b600081518084526020808501945080840160005b838110156140ee5781516001600160a01b0316875295820195908201906001016140c9565b509495945050505050565b600081516040845261410e60408501826140b5565b602093840151949093019390935250919050565b600081518084526020808501945080840160005b838110156140ee57815187529582019590820190600101614136565b600081516060845261416760608501826140b5565b9050602080840151858303828701528281518085528385019150838160051b860101848401935060005b828110156141bf57601f198783030184526141ad82865161406f565b94860194938601939150600101614191565b506040880151955088810360408a01526141d98187614122565b9998505050505050505050565b600060018060a01b038089168352871515602084015260c0604084015261421060c084018861406f565b818751166060850152838103608085015261422b81876140f9565b91505082810360a08401526141d98185614152565b602081526000612157602083018461406f565b815181526020808301519082015260408101611760565b6020815260018060a01b0382511660208201526020820151604082015260408201516060820152600060608301516080808401526142ab60a084018261406f565b949350505050565b6020815260006121576020830184614122565b6001600160a01b0381168114612b2c57600080fd5b80356142e6816142c6565b919050565b6000602082840312156142fd57600080fd5b8135612157816142c6565b634e487b7160e01b600052604160045260246000fd5b604051606081016001600160401b038111828210171561434057614340614308565b60405290565b60405160c081016001600160401b038111828210171561434057614340614308565b604051601f8201601f191681016001600160401b038111828210171561439057614390614308565b604052919050565b600082601f8301126143a957600080fd5b81356001600160401b038111156143c2576143c2614308565b6143d5601f8201601f1916602001614368565b8181528460208386010111156143ea57600080fd5b816020850160208301376000918101602001919091529392505050565b6000806040838503121561441a57600080fd5b8235915060208301356001600160401b0381111561443757600080fd5b61444385828601614398565b9150509250929050565b60008083601f84011261445f57600080fd5b5081356001600160401b0381111561447657600080fd5b6020830191508360208260051b8501011115611e7657600080fd5b6000806000604084860312156144a657600080fd5b83356144b1816142c6565b925060208401356001600160401b038111156144cc57600080fd5b6144d88682870161444d565b9497909650939450505050565b6020808252825182820181905260009190848201906040850190845b818110156145265783516001600160a01b031683529284019291840191600101614501565b50909695505050505050565b803580151581146142e657600080fd5b60008060008060006080868803121561455a57600080fd5b8535614565816142c6565b94506020860135935060408601356001600160401b0381111561458757600080fd5b6145938882890161444d565b90945092506145a6905060608701614532565b90509295509295909350565b6000602082840312156145c457600080fd5b81356001600160401b03808211156145db57600080fd5b90830190608082860312156145ef57600080fd5b60405160808101818110838211171561460a5761460a614308565b6040528235614618816142c6565b80825250602083013560208201526040830135604082015260608301358281111561464257600080fd5b61464e87828601614398565b60608301525095945050505050565b803560ff811681146142e657600080fd5b60008060008060008060a0878903121561468757600080fd5b863595506146976020880161465d565b9450604087013593506060870135925060808701356001600160401b038111156146c057600080fd5b6146cc89828a0161444d565b979a9699509497509295939492505050565b600060408083526146f181840186614122565b83810360208581019190915285518083528682019282019060005b818110156147395761472983865180518252602090810151910152565b938301939185019160010161470c565b509098975050505050505050565b6000806000806060858703121561475d57600080fd5b8435614768816142c6565b93506020850135925060408501356001600160401b0381111561478a57600080fd5b6147968782880161444d565b95989497509550505050565b6000806000606084860312156147b757600080fd5b833592506147c76020850161465d565b9150604084013590509250925092565b600080604083850312156147ea57600080fd5b8235915060208301356147fc816142c6565b809150509250929050565b6000806040838503121561481a57600080fd5b50508035926020909101359150565b60018060a01b0385168152836020820152826040820152608060608201526000614856608083018461406f565b9695505050505050565b600060c0828403121561487257600080fd5b50919050565b60006020828403121561488a57600080fd5b81356001600160401b038111156148a057600080fd5b6142ab84828501614860565b60006001600160401b038211156148c5576148c5614308565b5060051b60200190565b600082601f8301126148e057600080fd5b813560206148f56148f0836148ac565b614368565b82815260059290921b8401810191818101908684111561491457600080fd5b8286015b8481101561492f5780358352918301918301614918565b509695505050505050565b60006020828403121561494c57600080fd5b81356001600160401b0381111561496257600080fd5b6142ab848285016148cf565b60006020828403121561498057600080fd5b81356001600160401b0381111561499657600080fd5b6142ab84828501614398565b634e487b7160e01b600052602160045260246000fd5b60208101600583106149cc576149cc6149a2565b91905290565b60208152600060018060a01b03808451166020840152602084015115156040840152604084015160c06060850152614a0d60e085018261406f565b90508160608601515116608085015260808501519150601f19808583030160a0860152614a3a82846140f9565b925060a08601519150808584030160c086015250611e3f8282614152565b600060208284031215614a6a57600080fd5b604051602081018181106001600160401b0382111715614a8c57614a8c614308565b6040529050808235614a9d816142c6565b905292915050565b600082601f830112614ab657600080fd5b81356020614ac66148f0836148ac565b82815260059290921b84018101918181019086841115614ae557600080fd5b8286015b8481101561492f578035614afc816142c6565b8352918301918301614ae9565b600060408284031215614b1b57600080fd5b604051604081016001600160401b038282108183111715614b3e57614b3e614308565b816040528293508435915080821115614b5657600080fd5b50614b6385828601614aa5565b825250602083013560208201525092915050565b600060608284031215614b8957600080fd5b614b9161431e565b905081356001600160401b0380821115614baa57600080fd5b614bb685838601614aa5565b8352602091508184013581811115614bcd57600080fd5b8401601f81018613614bde57600080fd5b8035614bec6148f0826148ac565b81815260059190911b82018401908481019088831115614c0b57600080fd5b8584015b83811015614c4357803586811115614c275760008081fd5b614c358b8983890101614398565b845250918601918601614c0f565b508086880152505050506040840135915080821115614c6157600080fd5b50614c6e848285016148cf565b60408301525092915050565b600060c08284031215614c8c57600080fd5b614c94614346565b9050614c9f826142db565b8152614cad60208301614532565b602082015260408201356001600160401b0380821115614ccc57600080fd5b614cd885838601614398565b6040840152614cea8560608601614a58565b60608401526080840135915080821115614d0357600080fd5b614d0f85838601614b09565b608084015260a0840135915080821115614d2857600080fd5b50614d3584828501614b77565b60a08301525092915050565b600060208284031215614d5357600080fd5b81356001600160401b03811115614d6957600080fd5b6142ab84828501614c7a565b60008060208385031215614d8857600080fd5b82356001600160401b03811115614d9e57600080fd5b614daa8582860161444d565b90969095509350505050565b600080600060408486031215614dcb57600080fd5b83356001600160401b0380821115614de257600080fd5b614dee87838801614860565b94506020860135915080821115614e0457600080fd5b506144d88682870161444d565b600181811c90821680614e2557607f821691505b60208210810361487257634e487b7160e01b600052602260045260246000fd5b601f8211156117d057600081815260208120601f850160051c81016020861015614e6c5750805b601f850160051c820191505b81811015614e8b57828155600101614e78565b505050505050565b81516001600160401b03811115614eac57614eac614308565b614ec081614eba8454614e11565b84614e45565b602080601f831160018114614ef55760008415614edd5750858301515b600019600386901b1c1916600185901b178555614e8b565b600085815260208120601f198616915b82811015614f2457888601518255948401946001909101908401614f05565b5085821015614f425787850151600019600388901b60f8161c191681555b5050505050600190811b01905550565b634e487b7160e01b600052601160045260246000fd5b8082018082111561176057611760614f52565b634e487b7160e01b600052603260045260246000fd5b600060018201614fa357614fa3614f52565b5060010190565b8181038181111561176057611760614f52565b60006117603683614c7a565b60208101600383106149cc576149cc6149a2565b6020808252825482820181905260008481528281209092916040850190845b8181101561452657835483526001938401939285019201614ffc565b60008261503557634e487b7160e01b600052601260045260246000fd5b500490565b808202811582820484141761176057611760614f52565b8381526001600160a01b0383166020820152606060408201819052600090611e3f9083018461406f565b634e487b7160e01b600052603160045260246000fdfea26469706673582212207342aa15e56324683eb7949e353a727a7b4a68be132b278cc578f779e6f66d3d64736f6c63430008130033","linkReferences":{}},"methodIdentifiers":{"AMOUNT_FOR_SUMBITTER_PROOF()":"347cf665","JK_LABS_ADDRESS()":"eef18e17","MAX_FIELDS_METADATA_LENGTH()":"b382543f","METADATAS_COUNT()":"4d24a67f","addressSubmitterVerified(address)":"cb853950","addressTotalCastVoteCounts(address)":"a1ac6cb2","addressTotalVotes(address)":"dea5f6a6","addressTotalVotesVerified(address)":"930de979","addressesThatHaveVoted(uint256)":"50c4b616","allProposalTotalVotes()":"50a5e524","cancel()":"ea8a1af0","canceled()":"3f9942ff","castVote(uint256,uint8,uint256,uint256,bytes32[])":"419c533c","castVoteWithoutProof(uint256,uint8,uint256)":"65f16263","checkProof(address,uint256,bytes32[],bool)":"32763c22","comment(uint256,string)":"1805c523","commentIds(uint256)":"f5c36411","commentIsDeleted(uint256)":"ae66b8ad","comments(uint256)":"8ebb4c15","contestAddressTotalVotesCast(address)":"aec116b6","contestDeadline()":"262e59e9","contestStart()":"004114a8","costToPropose()":"6ed815ad","costToVote()":"51a41dec","creator()":"02d05d3f","creatorSplitDestination()":"4a587ad4","deleteComments(uint256[])":"ac67f801","deleteProposals(uint256[])":"f0a7db0a","deletedCommentIds(uint256)":"3fb57c92","deletedProposalIds(uint256)":"05846cae","downvotingAllowed()":"60506ff6","forVotesToProposalIds(uint256,uint256)":"711effc8","getAllAddressesThatHaveVoted()":"2c39805f","getAllAuthorsOfDeletedProposals()":"cbdc27cb","getAllCommentIds()":"e11db9d8","getAllDeletedCommentIds()":"5cb718a1","getAllDeletedProposalIds()":"1242b737","getAllProposalAuthors()":"946369b5","getAllProposalIds()":"efa90d36","getComment(uint256)":"0800e300","getNumProposalsWithThisManyForVotes(uint256)":"9ba197af","getOnlyProposalIdWithThisManyForVotes(uint256)":"b66d1da3","getProposal(uint256)":"c7f758a8","getProposalComments(uint256)":"c05f4104","getProposalsWithThisManyForVotes(uint256)":"c9a1b6b2","getRankIndex(uint256)":"5c7107d8","getSortedRanks()":"6fd3636b","hashComment((address,uint256,uint256,string))":"409fd030","hashProposal((address,bool,string,(address),(address[],uint256),(address[],string[],uint256[])))":"d7989025","isOrIsBelowTiedRank(uint256)":"9174778c","jkLabsSplitDestination()":"102613d8","maxProposalCount()":"fb9bf8d4","metadataFieldsSchema()":"60ed97a9","name()":"06fdde03","numAllowedProposalSubmissions()":"832009af","numSubmissions(address)":"75e509c5","officialRewardsModule()":"785ddfe5","payPerVote()":"03f7eed6","percentageToCreator()":"edcd1be4","prompt()":"7c65d711","proposalAddressVotes(uint256,address)":"6e4eb810","proposalAddressesHaveVoted(uint256)":"b323580d","proposalAuthors(uint256)":"0aa25e44","proposalComments(uint256,uint256)":"f61736f4","proposalIds(uint256)":"9b644a23","proposalIsDeleted(uint256)":"f79c0172","proposalVotes(uint256)":"544ffc9c","proposalVotesStructs(uint256)":"070dc5d9","proposals(uint256)":"013cf08b","propose((address,bool,string,(address),(address[],uint256),(address[],string[],uint256[])),bytes32[])":"f823f110","proposeWithoutProof((address,bool,string,(address),(address[],uint256),(address[],string[],uint256[])))":"ab5e6947","rankLimit()":"0414126a","setCreatorSplitDestination(address)":"146230f6","setName(string)":"c47f0027","setOfficialRewardsModule(address)":"f4f3d7ec","setPrompt(string)":"b4ac024f","setSubmissionMerkleRoot(bytes32)":"daf762db","setVotingMerkleRoot(bytes32)":"544c7bb4","sortedRanks(uint256)":"325cc6d9","sortingEnabled()":"366ecf5b","state()":"c19d93fb","submissionMerkleRoot()":"bddc1641","totalVotesCast()":"7de418d5","validateProposalData((address,bool,string,(address),(address[],uint256),(address[],string[],uint256[])))":"d140d9f0","verifyProposer(address,bytes32[])":"20b3e845","verifyVoter(address,uint256,bytes32[])":"531bd812","version()":"54fd4d50","voteStart()":"e031535b","votingDelay()":"3932abb1","votingMerkleRoot()":"dd96a19d","votingPeriod()":"02a251a3"},"id":34}