{"abi":[{"type":"constructor","inputs":[{"name":"_name","type":"string","internalType":"string"},{"name":"_prompt","type":"string","internalType":"string"},{"name":"_submissionMerkleRoot","type":"bytes32","internalType":"bytes32"},{"name":"_votingMerkleRoot","type":"bytes32","internalType":"bytes32"},{"name":"_constructorIntParams","type":"uint256[]","internalType":"uint256[]"}],"stateMutability":"nonpayable"},{"type":"function","name":"AMOUNT_FOR_SUMBITTER_PROOF","inputs":[],"outputs":[{"name":"","type":"uint256","internalType":"uint256"}],"stateMutability":"view"},{"type":"function","name":"JK_LABS_ADDRESS","inputs":[],"outputs":[{"name":"","type":"address","internalType":"address"}],"stateMutability":"view"},{"type":"function","name":"METADATAS_COUNT","inputs":[],"outputs":[{"name":"","type":"uint256","internalType":"uint256"}],"stateMutability":"view"},{"type":"function","name":"addressSubmitterVerified","inputs":[{"name":"","type":"address","internalType":"address"}],"outputs":[{"name":"","type":"bool","internalType":"bool"}],"stateMutability":"view"},{"type":"function","name":"addressTotalCastVoteCounts","inputs":[{"name":"","type":"address","internalType":"address"}],"outputs":[{"name":"","type":"uint256","internalType":"uint256"}],"stateMutability":"view"},{"type":"function","name":"addressTotalVotes","inputs":[{"name":"","type":"address","internalType":"address"}],"outputs":[{"name":"","type":"uint256","internalType":"uint256"}],"stateMutability":"view"},{"type":"function","name":"addressTotalVotesVerified","inputs":[{"name":"","type":"address","internalType":"address"}],"outputs":[{"name":"","type":"bool","internalType":"bool"}],"stateMutability":"view"},{"type":"function","name":"addressesThatHaveVoted","inputs":[{"name":"","type":"uint256","internalType":"uint256"}],"outputs":[{"name":"","type":"address","internalType":"address"}],"stateMutability":"view"},{"type":"function","name":"allProposalTotalVotes","inputs":[],"outputs":[{"name":"proposalIdsReturn","type":"uint256[]","internalType":"uint256[]"},{"name":"proposalVoteCountsArrayReturn","type":"tuple[]","internalType":"struct GovernorCountingSimple.VoteCounts[]","components":[{"name":"forVotes","type":"uint256","internalType":"uint256"},{"name":"againstVotes","type":"uint256","internalType":"uint256"}]}],"stateMutability":"view"},{"type":"function","name":"cancel","inputs":[],"outputs":[],"stateMutability":"nonpayable"},{"type":"function","name":"canceled","inputs":[],"outputs":[{"name":"","type":"bool","internalType":"bool"}],"stateMutability":"view"},{"type":"function","name":"castVote","inputs":[{"name":"proposalId","type":"uint256","internalType":"uint256"},{"name":"support","type":"uint8","internalType":"uint8"},{"name":"totalVotes","type":"uint256","internalType":"uint256"},{"name":"numVotes","type":"uint256","internalType":"uint256"},{"name":"proof","type":"bytes32[]","internalType":"bytes32[]"}],"outputs":[{"name":"","type":"uint256","internalType":"uint256"}],"stateMutability":"nonpayable"},{"type":"function","name":"castVoteWithoutProof","inputs":[{"name":"proposalId","type":"uint256","internalType":"uint256"},{"name":"support","type":"uint8","internalType":"uint8"},{"name":"numVotes","type":"uint256","internalType":"uint256"}],"outputs":[{"name":"","type":"uint256","internalType":"uint256"}],"stateMutability":"nonpayable"},{"type":"function","name":"checkProof","inputs":[{"name":"addressToCheck","type":"address","internalType":"address"},{"name":"amount","type":"uint256","internalType":"uint256"},{"name":"proof","type":"bytes32[]","internalType":"bytes32[]"},{"name":"voting","type":"bool","internalType":"bool"}],"outputs":[{"name":"verified","type":"bool","internalType":"bool"}],"stateMutability":"view"},{"type":"function","name":"comment","inputs":[{"name":"proposalId","type":"uint256","internalType":"uint256"},{"name":"commentContent","type":"string","internalType":"string"}],"outputs":[{"name":"","type":"uint256","internalType":"uint256"}],"stateMutability":"nonpayable"},{"type":"function","name":"commentIds","inputs":[{"name":"","type":"uint256","internalType":"uint256"}],"outputs":[{"name":"","type":"uint256","internalType":"uint256"}],"stateMutability":"view"},{"type":"function","name":"commentIsDeleted","inputs":[{"name":"","type":"uint256","internalType":"uint256"}],"outputs":[{"name":"","type":"bool","internalType":"bool"}],"stateMutability":"view"},{"type":"function","name":"comments","inputs":[{"name":"","type":"uint256","internalType":"uint256"}],"outputs":[{"name":"author","type":"address","internalType":"address"},{"name":"timestamp","type":"uint256","internalType":"uint256"},{"name":"proposalId","type":"uint256","internalType":"uint256"},{"name":"commentContent","type":"string","internalType":"string"}],"stateMutability":"view"},{"type":"function","name":"contestAddressTotalVotesCast","inputs":[{"name":"userAddress","type":"address","internalType":"address"}],"outputs":[{"name":"userTotalVotesCast","type":"uint256","internalType":"uint256"}],"stateMutability":"view"},{"type":"function","name":"contestDeadline","inputs":[],"outputs":[{"name":"","type":"uint256","internalType":"uint256"}],"stateMutability":"view"},{"type":"function","name":"contestStart","inputs":[],"outputs":[{"name":"","type":"uint256","internalType":"uint256"}],"stateMutability":"view"},{"type":"function","name":"costToPropose","inputs":[],"outputs":[{"name":"","type":"uint256","internalType":"uint256"}],"stateMutability":"view"},{"type":"function","name":"creator","inputs":[],"outputs":[{"name":"","type":"address","internalType":"address"}],"stateMutability":"view"},{"type":"function","name":"deleteComments","inputs":[{"name":"commentIdsParam","type":"uint256[]","internalType":"uint256[]"}],"outputs":[],"stateMutability":"nonpayable"},{"type":"function","name":"deleteProposals","inputs":[{"name":"proposalIdsToDelete","type":"uint256[]","internalType":"uint256[]"}],"outputs":[],"stateMutability":"nonpayable"},{"type":"function","name":"deletedCommentIds","inputs":[{"name":"","type":"uint256","internalType":"uint256"}],"outputs":[{"name":"","type":"uint256","internalType":"uint256"}],"stateMutability":"view"},{"type":"function","name":"deletedProposalIds","inputs":[{"name":"","type":"uint256","internalType":"uint256"}],"outputs":[{"name":"","type":"uint256","internalType":"uint256"}],"stateMutability":"view"},{"type":"function","name":"downvotingAllowed","inputs":[],"outputs":[{"name":"","type":"uint256","internalType":"uint256"}],"stateMutability":"view"},{"type":"function","name":"forVotesToProposalIds","inputs":[{"name":"","type":"uint256","internalType":"uint256"},{"name":"","type":"uint256","internalType":"uint256"}],"outputs":[{"name":"","type":"uint256","internalType":"uint256"}],"stateMutability":"view"},{"type":"function","name":"getAllAddressesThatHaveVoted","inputs":[],"outputs":[{"name":"","type":"address[]","internalType":"address[]"}],"stateMutability":"view"},{"type":"function","name":"getAllCommentIds","inputs":[],"outputs":[{"name":"","type":"uint256[]","internalType":"uint256[]"}],"stateMutability":"view"},{"type":"function","name":"getAllDeletedCommentIds","inputs":[],"outputs":[{"name":"","type":"uint256[]","internalType":"uint256[]"}],"stateMutability":"view"},{"type":"function","name":"getAllDeletedProposalIds","inputs":[],"outputs":[{"name":"","type":"uint256[]","internalType":"uint256[]"}],"stateMutability":"view"},{"type":"function","name":"getAllProposalAuthors","inputs":[],"outputs":[{"name":"","type":"address[]","internalType":"address[]"}],"stateMutability":"view"},{"type":"function","name":"getAllProposalIds","inputs":[],"outputs":[{"name":"","type":"uint256[]","internalType":"uint256[]"}],"stateMutability":"view"},{"type":"function","name":"getComment","inputs":[{"name":"commentId","type":"uint256","internalType":"uint256"}],"outputs":[{"name":"","type":"tuple","internalType":"struct GovernorEngagement.CommentCore","components":[{"name":"author","type":"address","internalType":"address"},{"name":"timestamp","type":"uint256","internalType":"uint256"},{"name":"proposalId","type":"uint256","internalType":"uint256"},{"name":"commentContent","type":"string","internalType":"string"}]}],"stateMutability":"view"},{"type":"function","name":"getNumProposalsWithThisManyForVotes","inputs":[{"name":"forVotes","type":"uint256","internalType":"uint256"}],"outputs":[{"name":"count","type":"uint256","internalType":"uint256"}],"stateMutability":"view"},{"type":"function","name":"getOnlyProposalIdWithThisManyForVotes","inputs":[{"name":"forVotes","type":"uint256","internalType":"uint256"}],"outputs":[{"name":"proposalId","type":"uint256","internalType":"uint256"}],"stateMutability":"view"},{"type":"function","name":"getProposal","inputs":[{"name":"proposalId","type":"uint256","internalType":"uint256"}],"outputs":[{"name":"","type":"tuple","internalType":"struct Governor.ProposalCore","components":[{"name":"author","type":"address","internalType":"address"},{"name":"exists","type":"bool","internalType":"bool"},{"name":"description","type":"string","internalType":"string"},{"name":"targetMetadata","type":"tuple","internalType":"struct Governor.TargetMetadata","components":[{"name":"targetAddress","type":"address","internalType":"address"}]},{"name":"safeMetadata","type":"tuple","internalType":"struct Governor.SafeMetadata","components":[{"name":"signers","type":"address[]","internalType":"address[]"},{"name":"threshold","type":"uint256","internalType":"uint256"}]}]}],"stateMutability":"view"},{"type":"function","name":"getProposalComments","inputs":[{"name":"proposalId","type":"uint256","internalType":"uint256"}],"outputs":[{"name":"","type":"uint256[]","internalType":"uint256[]"}],"stateMutability":"view"},{"type":"function","name":"getProposalsWithThisManyForVotes","inputs":[{"name":"forVotes","type":"uint256","internalType":"uint256"}],"outputs":[{"name":"proposalsWithThisManyForVotes","type":"uint256[]","internalType":"uint256[]"}],"stateMutability":"view"},{"type":"function","name":"getRankIndex","inputs":[{"name":"rank","type":"uint256","internalType":"uint256"}],"outputs":[{"name":"rankIndex","type":"uint256","internalType":"uint256"}],"stateMutability":"view"},{"type":"function","name":"getSortedRanks","inputs":[],"outputs":[{"name":"sortedRanksArray","type":"uint256[]","internalType":"uint256[]"}],"stateMutability":"view"},{"type":"function","name":"hashComment","inputs":[{"name":"commentObj","type":"tuple","internalType":"struct GovernorEngagement.CommentCore","components":[{"name":"author","type":"address","internalType":"address"},{"name":"timestamp","type":"uint256","internalType":"uint256"},{"name":"proposalId","type":"uint256","internalType":"uint256"},{"name":"commentContent","type":"string","internalType":"string"}]}],"outputs":[{"name":"","type":"uint256","internalType":"uint256"}],"stateMutability":"pure"},{"type":"function","name":"hashProposal","inputs":[{"name":"proposal","type":"tuple","internalType":"struct Governor.ProposalCore","components":[{"name":"author","type":"address","internalType":"address"},{"name":"exists","type":"bool","internalType":"bool"},{"name":"description","type":"string","internalType":"string"},{"name":"targetMetadata","type":"tuple","internalType":"struct Governor.TargetMetadata","components":[{"name":"targetAddress","type":"address","internalType":"address"}]},{"name":"safeMetadata","type":"tuple","internalType":"struct Governor.SafeMetadata","components":[{"name":"signers","type":"address[]","internalType":"address[]"},{"name":"threshold","type":"uint256","internalType":"uint256"}]}]}],"outputs":[{"name":"","type":"uint256","internalType":"uint256"}],"stateMutability":"pure"},{"type":"function","name":"isOrIsBelowTiedRank","inputs":[{"name":"idx","type":"uint256","internalType":"uint256"}],"outputs":[{"name":"atOrBelowTiedRank","type":"bool","internalType":"bool"}],"stateMutability":"view"},{"type":"function","name":"maxProposalCount","inputs":[],"outputs":[{"name":"","type":"uint256","internalType":"uint256"}],"stateMutability":"view"},{"type":"function","name":"name","inputs":[],"outputs":[{"name":"","type":"string","internalType":"string"}],"stateMutability":"view"},{"type":"function","name":"numAllowedProposalSubmissions","inputs":[],"outputs":[{"name":"","type":"uint256","internalType":"uint256"}],"stateMutability":"view"},{"type":"function","name":"numSubmissions","inputs":[{"name":"","type":"address","internalType":"address"}],"outputs":[{"name":"","type":"uint256","internalType":"uint256"}],"stateMutability":"view"},{"type":"function","name":"officialRewardsModule","inputs":[],"outputs":[{"name":"","type":"address","internalType":"contract RewardsModule"}],"stateMutability":"view"},{"type":"function","name":"percentageToCreator","inputs":[],"outputs":[{"name":"","type":"uint256","internalType":"uint256"}],"stateMutability":"view"},{"type":"function","name":"prompt","inputs":[],"outputs":[{"name":"","type":"string","internalType":"string"}],"stateMutability":"view"},{"type":"function","name":"proposalAddressVotes","inputs":[{"name":"proposalId","type":"uint256","internalType":"uint256"},{"name":"userAddress","type":"address","internalType":"address"}],"outputs":[{"name":"forVotes","type":"uint256","internalType":"uint256"},{"name":"againstVotes","type":"uint256","internalType":"uint256"}],"stateMutability":"view"},{"type":"function","name":"proposalAddressesHaveVoted","inputs":[{"name":"proposalId","type":"uint256","internalType":"uint256"}],"outputs":[{"name":"","type":"address[]","internalType":"address[]"}],"stateMutability":"view"},{"type":"function","name":"proposalAuthors","inputs":[{"name":"","type":"uint256","internalType":"uint256"}],"outputs":[{"name":"","type":"address","internalType":"address"}],"stateMutability":"view"},{"type":"function","name":"proposalComments","inputs":[{"name":"","type":"uint256","internalType":"uint256"},{"name":"","type":"uint256","internalType":"uint256"}],"outputs":[{"name":"","type":"uint256","internalType":"uint256"}],"stateMutability":"view"},{"type":"function","name":"proposalIds","inputs":[{"name":"","type":"uint256","internalType":"uint256"}],"outputs":[{"name":"","type":"uint256","internalType":"uint256"}],"stateMutability":"view"},{"type":"function","name":"proposalIsDeleted","inputs":[{"name":"","type":"uint256","internalType":"uint256"}],"outputs":[{"name":"","type":"bool","internalType":"bool"}],"stateMutability":"view"},{"type":"function","name":"proposalVotes","inputs":[{"name":"proposalId","type":"uint256","internalType":"uint256"}],"outputs":[{"name":"forVotes","type":"uint256","internalType":"uint256"},{"name":"againstVotes","type":"uint256","internalType":"uint256"}],"stateMutability":"view"},{"type":"function","name":"proposalVotesStructs","inputs":[{"name":"","type":"uint256","internalType":"uint256"}],"outputs":[{"name":"proposalVoteCounts","type":"tuple","internalType":"struct GovernorCountingSimple.VoteCounts","components":[{"name":"forVotes","type":"uint256","internalType":"uint256"},{"name":"againstVotes","type":"uint256","internalType":"uint256"}]}],"stateMutability":"view"},{"type":"function","name":"proposals","inputs":[{"name":"","type":"uint256","internalType":"uint256"}],"outputs":[{"name":"author","type":"address","internalType":"address"},{"name":"exists","type":"bool","internalType":"bool"},{"name":"description","type":"string","internalType":"string"},{"name":"targetMetadata","type":"tuple","internalType":"struct Governor.TargetMetadata","components":[{"name":"targetAddress","type":"address","internalType":"address"}]},{"name":"safeMetadata","type":"tuple","internalType":"struct Governor.SafeMetadata","components":[{"name":"signers","type":"address[]","internalType":"address[]"},{"name":"threshold","type":"uint256","internalType":"uint256"}]}],"stateMutability":"view"},{"type":"function","name":"propose","inputs":[{"name":"proposal","type":"tuple","internalType":"struct Governor.ProposalCore","components":[{"name":"author","type":"address","internalType":"address"},{"name":"exists","type":"bool","internalType":"bool"},{"name":"description","type":"string","internalType":"string"},{"name":"targetMetadata","type":"tuple","internalType":"struct Governor.TargetMetadata","components":[{"name":"targetAddress","type":"address","internalType":"address"}]},{"name":"safeMetadata","type":"tuple","internalType":"struct Governor.SafeMetadata","components":[{"name":"signers","type":"address[]","internalType":"address[]"},{"name":"threshold","type":"uint256","internalType":"uint256"}]}]},{"name":"proof","type":"bytes32[]","internalType":"bytes32[]"}],"outputs":[{"name":"","type":"uint256","internalType":"uint256"}],"stateMutability":"payable"},{"type":"function","name":"proposeWithoutProof","inputs":[{"name":"proposal","type":"tuple","internalType":"struct Governor.ProposalCore","components":[{"name":"author","type":"address","internalType":"address"},{"name":"exists","type":"bool","internalType":"bool"},{"name":"description","type":"string","internalType":"string"},{"name":"targetMetadata","type":"tuple","internalType":"struct Governor.TargetMetadata","components":[{"name":"targetAddress","type":"address","internalType":"address"}]},{"name":"safeMetadata","type":"tuple","internalType":"struct Governor.SafeMetadata","components":[{"name":"signers","type":"address[]","internalType":"address[]"},{"name":"threshold","type":"uint256","internalType":"uint256"}]}]}],"outputs":[{"name":"","type":"uint256","internalType":"uint256"}],"stateMutability":"payable"},{"type":"function","name":"rankLimit","inputs":[],"outputs":[{"name":"","type":"uint256","internalType":"uint256"}],"stateMutability":"view"},{"type":"function","name":"setOfficialRewardsModule","inputs":[{"name":"officialRewardsModule_","type":"address","internalType":"contract RewardsModule"}],"outputs":[],"stateMutability":"nonpayable"},{"type":"function","name":"sortedRanks","inputs":[{"name":"","type":"uint256","internalType":"uint256"}],"outputs":[{"name":"","type":"uint256","internalType":"uint256"}],"stateMutability":"view"},{"type":"function","name":"sortingEnabled","inputs":[],"outputs":[{"name":"","type":"uint256","internalType":"uint256"}],"stateMutability":"view"},{"type":"function","name":"state","inputs":[],"outputs":[{"name":"","type":"uint8","internalType":"enum Governor.ContestState"}],"stateMutability":"view"},{"type":"function","name":"submissionMerkleRoot","inputs":[],"outputs":[{"name":"","type":"bytes32","internalType":"bytes32"}],"stateMutability":"view"},{"type":"function","name":"totalVotesCast","inputs":[],"outputs":[{"name":"","type":"uint256","internalType":"uint256"}],"stateMutability":"view"},{"type":"function","name":"validateProposalData","inputs":[{"name":"proposal","type":"tuple","internalType":"struct Governor.ProposalCore","components":[{"name":"author","type":"address","internalType":"address"},{"name":"exists","type":"bool","internalType":"bool"},{"name":"description","type":"string","internalType":"string"},{"name":"targetMetadata","type":"tuple","internalType":"struct Governor.TargetMetadata","components":[{"name":"targetAddress","type":"address","internalType":"address"}]},{"name":"safeMetadata","type":"tuple","internalType":"struct Governor.SafeMetadata","components":[{"name":"signers","type":"address[]","internalType":"address[]"},{"name":"threshold","type":"uint256","internalType":"uint256"}]}]}],"outputs":[],"stateMutability":"view"},{"type":"function","name":"verifyProposer","inputs":[{"name":"account","type":"address","internalType":"address"},{"name":"proof","type":"bytes32[]","internalType":"bytes32[]"}],"outputs":[],"stateMutability":"nonpayable"},{"type":"function","name":"verifyVoter","inputs":[{"name":"account","type":"address","internalType":"address"},{"name":"totalVotes","type":"uint256","internalType":"uint256"},{"name":"proof","type":"bytes32[]","internalType":"bytes32[]"}],"outputs":[],"stateMutability":"nonpayable"},{"type":"function","name":"version","inputs":[],"outputs":[{"name":"","type":"string","internalType":"string"}],"stateMutability":"pure"},{"type":"function","name":"voteStart","inputs":[],"outputs":[{"name":"","type":"uint256","internalType":"uint256"}],"stateMutability":"view"},{"type":"function","name":"votingDelay","inputs":[],"outputs":[{"name":"","type":"uint256","internalType":"uint256"}],"stateMutability":"view"},{"type":"function","name":"votingMerkleRoot","inputs":[],"outputs":[{"name":"","type":"bytes32","internalType":"bytes32"}],"stateMutability":"view"},{"type":"function","name":"votingPeriod","inputs":[],"outputs":[{"name":"","type":"uint256","internalType":"uint256"}],"stateMutability":"view"},{"type":"event","name":"CommentCreated","inputs":[{"name":"commentId","type":"uint256","indexed":false,"internalType":"uint256"}],"anonymous":false},{"type":"event","name":"CommentsDeleted","inputs":[{"name":"commentIds","type":"uint256[]","indexed":false,"internalType":"uint256[]"}],"anonymous":false},{"type":"event","name":"ContestCanceled","inputs":[],"anonymous":false},{"type":"event","name":"JokeraceCreated","inputs":[{"name":"name","type":"string","indexed":false,"internalType":"string"},{"name":"creator","type":"address","indexed":false,"internalType":"address"}],"anonymous":false},{"type":"event","name":"OfficialRewardsModuleSet","inputs":[{"name":"oldOfficialRewardsModule","type":"address","indexed":false,"internalType":"contract RewardsModule"},{"name":"newOfficialRewardsModule","type":"address","indexed":false,"internalType":"contract RewardsModule"}],"anonymous":false},{"type":"event","name":"PaymentReleased","inputs":[{"name":"to","type":"address","indexed":false,"internalType":"address"},{"name":"amount","type":"uint256","indexed":false,"internalType":"uint256"}],"anonymous":false},{"type":"event","name":"ProposalCreated","inputs":[{"name":"proposalId","type":"uint256","indexed":false,"internalType":"uint256"},{"name":"proposer","type":"address","indexed":false,"internalType":"address"}],"anonymous":false},{"type":"event","name":"ProposalsDeleted","inputs":[{"name":"proposalIds","type":"uint256[]","indexed":false,"internalType":"uint256[]"}],"anonymous":false},{"type":"event","name":"VoteCast","inputs":[{"name":"voter","type":"address","indexed":true,"internalType":"address"},{"name":"proposalId","type":"uint256","indexed":false,"internalType":"uint256"},{"name":"support","type":"uint8","indexed":false,"internalType":"uint8"},{"name":"numVotes","type":"uint256","indexed":false,"internalType":"uint256"}],"anonymous":false},{"type":"error","name":"AddressNotPermissionedToSubmit","inputs":[]},{"type":"error","name":"AuthorIsNotSender","inputs":[{"name":"author","type":"address","internalType":"address"},{"name":"sender","type":"address","internalType":"address"}]},{"type":"error","name":"CannotDeleteWhenCompleted","inputs":[]},{"type":"error","name":"CannotVoteOnDeletedProposal","inputs":[]},{"type":"error","name":"ContestAlreadyCancelled","inputs":[]},{"type":"error","name":"ContestMustBeActiveToVote","inputs":[{"name":"currentState","type":"uint8","internalType":"enum Governor.ContestState"}]},{"type":"error","name":"ContestMustBeQueuedToPropose","inputs":[{"name":"currentState","type":"uint8","internalType":"enum Governor.ContestState"}]},{"type":"error","name":"ContestSubmissionLimitReached","inputs":[{"name":"maxProposalCount","type":"uint256","internalType":"uint256"}]},{"type":"error","name":"DownvotingNotEnabled","inputs":[]},{"type":"error","name":"DuplicateSubmission","inputs":[{"name":"proposalId","type":"uint256","internalType":"uint256"}]},{"type":"error","name":"EmptyProposalDescription","inputs":[]},{"type":"error","name":"IncorrectCostToProposeSent","inputs":[{"name":"msgValue","type":"uint256","internalType":"uint256"},{"name":"costToPropose","type":"uint256","internalType":"uint256"}]},{"type":"error","name":"IndexHasNotBeenPopulated","inputs":[]},{"type":"error","name":"InvalidVoteType","inputs":[]},{"type":"error","name":"MoreThanOneProposalWithThisManyVotes","inputs":[]},{"type":"error","name":"NeedAtLeastOneVoteToVote","inputs":[]},{"type":"error","name":"NeedToSubmitWithProofFirst","inputs":[]},{"type":"error","name":"NeedToVoteWithProofFirst","inputs":[]},{"type":"error","name":"NotEnoughVotesLeft","inputs":[]},{"type":"error","name":"NotInMerkle","inputs":[]},{"type":"error","name":"OnlyCreatorCanDelete","inputs":[]},{"type":"error","name":"OnlyCreatorCanSetRewardsModule","inputs":[]},{"type":"error","name":"OnlyCreatorOrAuthorCanDeleteComments","inputs":[{"name":"failedToDeleteCommentId","type":"uint256","internalType":"uint256"}]},{"type":"error","name":"OnlyJkLabsOrCreatorCanCancel","inputs":[]},{"type":"error","name":"RankCannotBeZero","inputs":[]},{"type":"error","name":"RankIsNotInSortedRanks","inputs":[]},{"type":"error","name":"SenderSubmissionLimitReached","inputs":[{"name":"numAllowedProposalSubmissions","type":"uint256","internalType":"uint256"}]},{"type":"error","name":"UnexpectedMetadata","inputs":[{"name":"unexpectedMetadata","type":"uint8","internalType":"enum Governor.Metadatas"}]},{"type":"error","name":"ZeroSignersInSafeMetadata","inputs":[]},{"type":"error","name":"ZeroThresholdInSafeMetadata","inputs":[]}],"bytecode":{"object":"0x60806040523480156200001157600080fd5b50604051620048983803806200489883398101604081905262000034916200030b565b84848484846000815181106200004e576200004e6200041c565b6020026020010151856001815181106200006c576200006c6200041c565b6020026020010151866002815181106200008a576200008a6200041c565b602002602001015187600381518110620000a857620000a86200041c565b602002602001015188600481518110620000c657620000c66200041c565b602002602001015189600581518110620000e457620000e46200041c565b60200260200101518a6006815181106200010257620001026200041c565b60200260200101518b6007815181106200012057620001206200041c565b602002602001015189898e6008815181106200014057620001406200041c565b60200260200101518f6009815181106200015e576200015e6200041c565b60209081029190910101516000919091556001556003919091556004556005620001898d82620004c1565b506006620001988c82620004c1565b50600780546001600160a01b0319163390811790915560088990556009889055600a879055600b869055600c859055600d849055600e839055600f8290556040517f1eae03a78f765227bc1e8574db32390cefa5b3c0a954017973e497e40a1237349162000209918f91906200058d565b60405180910390a15050505050505050505050505050505050620005d3565b634e487b7160e01b600052604160045260246000fd5b604051601f8201601f191681016001600160401b038111828210171562000269576200026962000228565b604052919050565b60005b838110156200028e57818101518382015260200162000274565b50506000910152565b600082601f830112620002a957600080fd5b81516001600160401b03811115620002c557620002c562000228565b620002da601f8201601f19166020016200023e565b818152846020838601011115620002f057600080fd5b6200030382602083016020870162000271565b949350505050565b600080600080600060a086880312156200032457600080fd5b85516001600160401b03808211156200033c57600080fd5b6200034a89838a0162000297565b96506020915081880151818111156200036257600080fd5b620003708a828b0162000297565b96505060408801519450606088015193506080880151818111156200039457600080fd5b8801601f81018a13620003a657600080fd5b805182811115620003bb57620003bb62000228565b8060051b9250620003ce8484016200023e565b818152928201840192848101908c851115620003e957600080fd5b928501925b848410156200040957835182529285019290850190620003ee565b8096505050505050509295509295909350565b634e487b7160e01b600052603260045260246000fd5b600181811c908216806200044757607f821691505b6020821081036200046857634e487b7160e01b600052602260045260246000fd5b50919050565b601f821115620004bc57600081815260208120601f850160051c81016020861015620004975750805b601f850160051c820191505b81811015620004b857828155600101620004a3565b5050505b505050565b81516001600160401b03811115620004dd57620004dd62000228565b620004f581620004ee845462000432565b846200046e565b602080601f8311600181146200052d5760008415620005145750858301515b600019600386901b1c1916600185901b178555620004b8565b600085815260208120601f198616915b828110156200055e578886015182559484019460019091019084016200053d565b50858210156200057d5787850151600019600388901b60f8161c191681555b5050505050600190811b01905550565b6040815260008351806040840152620005ae81606085016020880162000271565b6001600160a01b0393909316602083015250601f91909101601f191601606001919050565b6142b580620005e36000396000f3fe6080604052600436106104675760003560e01c8063711effc81161024a578063c0ffaa7811610139578063edcd1be4116100b6578063f5c364111161007a578063f5c3641114610e0f578063f61736f414610e2f578063f79c017214610e4f578063fb8ddab414610e7f578063fb9bf8d414610e9f57600080fd5b8063edcd1be414610d7c578063eef18e1714610d92578063efa90d3614610dba578063f0a7db0a14610dcf578063f4f3d7ec14610def57600080fd5b8063dd96a19d116100fd578063dd96a19d14610cfa578063dea5f6a614610d10578063e031535b14610d3d578063e11db9d814610d52578063ea8a1af014610d6757600080fd5b8063c0ffaa7814610c48578063c19d93fb14610c5b578063c7f758a814610c7d578063c9a1b6b214610caa578063cb85395014610cca57600080fd5b80639b644a23116101c7578063aec116b61161018b578063aec116b614610b9c578063b323580d14610bd2578063b66d1da314610bf2578063bddc164114610c12578063c05f410414610c2857600080fd5b80639b644a2314610ad25780639ba197af14610af2578063a1ac6cb214610b1f578063ac67f80114610b4c578063ae66b8ad14610b6c57600080fd5b8063832009af1161020e578063832009af14610a275780638ebb4c1514610a3d5780639174778c14610a6d578063930de97914610a8d578063946369b514610abd57600080fd5b8063711effc81461098f57806375e509c5146109af578063785ddfe5146109dc5780637c65d711146109fc5780637de418d514610a1157600080fd5b80633932abb111610366578063531bd812116102e357806360506ff6116102a757806360506ff61461090e57806365f16263146109245780636e4eb810146109445780636ed815ad146109645780636fd3636b1461097a57600080fd5b8063531bd81214610842578063544ffc9c1461086257806354fd4d50146108ac5780635c7107d8146108d95780635cb718a1146108f957600080fd5b8063458da87d1161032a578063458da87d146107b7578063476f4d8a146107d75780634d24a67f146107ea57806350a5e524146107ff57806350c4b6161461082257600080fd5b80633932abb1146107275780633f9942ff1461073d5780633fb57c9214610757578063409fd03014610777578063419c533c1461079757600080fd5b80630aa25e44116103f45780632c39805f116103b85780632c39805f14610683578063325cc6d9146106a557806332763c22146106c5578063347cf665146106f5578063366ecf5b1461071157600080fd5b80630aa25e44146105ea5780631242b7371461060a5780631805c5231461062c57806320b3e8451461064c578063262e59e91461066e57600080fd5b80630414126a1161043b5780630414126a1461051457806305846cae1461052a57806306fdde031461054a578063070dc5d91461056c5780630800e300146105bd57600080fd5b80624114a81461046c578063013cf08b1461049557806302a251a3146104c657806302d05d3f146104dc575b600080fd5b34801561047857600080fd5b5061048260085481565b6040519081526020015b60405180910390f35b3480156104a157600080fd5b506104b56104b03660046134d3565b610eb5565b60405161048c95949392919061358b565b3480156104d257600080fd5b50610482600a5481565b3480156104e857600080fd5b506007546104fc906001600160a01b031681565b6040516001600160a01b03909116815260200161048c565b34801561052057600080fd5b5061048260015481565b34801561053657600080fd5b506104826105453660046134d3565b610ffd565b34801561055657600080fd5b5061055f61101e565b60405161048c91906135dd565b34801561057857600080fd5b506105b06105873660046134d3565b601d60209081526000918252604091829020825180840190935280548352600101549082015281565b60405161048c91906135f0565b3480156105c957600080fd5b506105dd6105d83660046134d3565b6110ac565b60405161048c9190613607565b3480156105f657600080fd5b506104fc6106053660046134d3565b6111c0565b34801561061657600080fd5b5061061f6111ea565b60405161048c9190613683565b34801561063857600080fd5b506104826106473660046137b7565b611242565b34801561065857600080fd5b5061066c610667366004613856565b611361565b005b34801561067a57600080fd5b506104826113d0565b34801561068f57600080fd5b506106986113ec565b60405161048c91906138aa565b3480156106b157600080fd5b506104826106c03660046134d3565b61144d565b3480156106d157600080fd5b506106e56106e036600461390c565b61145d565b604051901515815260200161048c565b34801561070157600080fd5b50610482678ac7230489e8000081565b34801561071d57600080fd5b5061048260005481565b34801561073357600080fd5b5061048260095481565b34801561074957600080fd5b506013546106e59060ff1681565b34801561076357600080fd5b506104826107723660046134d3565b61155c565b34801561078357600080fd5b5061048261079236600461397c565b61156c565b3480156107a357600080fd5b506104826107b2366004613a38565b61159d565b3480156107c357600080fd5b506104826107d2366004613c47565b6115f3565b6104826107e5366004613c93565b611606565b3480156107f657600080fd5b5061048261169d565b34801561080b57600080fd5b506108146116ab565b60405161048c929190613cc7565b34801561082e57600080fd5b506104fc61083d3660046134d3565b6117b1565b34801561084e57600080fd5b5061066c61085d366004613d30565b6117c1565b34801561086e57600080fd5b5061089761087d3660046134d3565b6000908152601d6020526040902080546001909101549091565b6040805192835260208301919091520161048c565b3480156108b857600080fd5b50604080518082019091526004815263342e313560e01b602082015261055f565b3480156108e557600080fd5b506104826108f43660046134d3565b611827565b34801561090557600080fd5b5061061f61192e565b34801561091a57600080fd5b50610482600d5481565b34801561093057600080fd5b5061048261093f366004613d8b565b611984565b34801561095057600080fd5b5061089761095f366004613dc0565b611a04565b34801561097057600080fd5b50610482600e5481565b34801561098657600080fd5b5061061f611a39565b34801561099b57600080fd5b506104826109aa366004613df0565b611a8f565b3480156109bb57600080fd5b506104826109ca366004613e12565b60156020526000908152604090205481565b3480156109e857600080fd5b50601f546104fc906001600160a01b031681565b348015610a0857600080fd5b5061055f611ac0565b348015610a1d57600080fd5b50610482601b5481565b348015610a3357600080fd5b50610482600b5481565b348015610a4957600080fd5b50610a5d610a583660046134d3565b611acd565b60405161048c9493929190613e2f565b348015610a7957600080fd5b506106e5610a883660046134d3565b611b8a565b348015610a9957600080fd5b506106e5610aa8366004613e12565b60196020526000908152604090205460ff1681565b348015610ac957600080fd5b50610698611c30565b348015610ade57600080fd5b50610482610aed3660046134d3565b611c90565b348015610afe57600080fd5b50610482610b0d3660046134d3565b6000908152601e602052604090205490565b348015610b2b57600080fd5b50610482610b3a366004613e12565b601c6020526000908152604090205481565b348015610b5857600080fd5b5061066c610b67366004613e66565b611ca0565b348015610b7857600080fd5b506106e5610b873660046134d3565b60246020526000908152604090205460ff1681565b348015610ba857600080fd5b50610482610bb7366004613e12565b6001600160a01b03166000908152601c602052604090205490565b348015610bde57600080fd5b50610698610bed3660046134d3565b611dd5565b348015610bfe57600080fd5b50610482610c0d3660046134d3565b611e47565b348015610c1e57600080fd5b5061048260035481565b348015610c3457600080fd5b5061061f610c433660046134d3565b611ea7565b610482610c56366004613ef6565b611f09565b348015610c6757600080fd5b50610c70611f71565b60405161048c9190613f67565b348015610c8957600080fd5b50610c9d610c983660046134d3565b611fc2565b60405161048c9190613f81565b348015610cb657600080fd5b5061061f610cc53660046134d3565b61213c565b348015610cd657600080fd5b506106e5610ce5366004613e12565b601a6020526000908152604090205460ff1681565b348015610d0657600080fd5b5061048260045481565b348015610d1c57600080fd5b50610482610d2b366004613e12565b60186020526000908152604090205481565b348015610d4957600080fd5b5061048261219c565b348015610d5e57600080fd5b5061061f6121ae565b348015610d7357600080fd5b5061066c612204565b348015610d8857600080fd5b50610482600f5481565b348015610d9e57600080fd5b506104fc73dc652c746a8f85e18ce632d97c6118e8a52fa73881565b348015610dc657600080fd5b5061061f6122c8565b348015610ddb57600080fd5b5061066c610dea366004613fe8565b61231e565b348015610dfb57600080fd5b5061066c610e0a366004613e12565b612479565b348015610e1b57600080fd5b50610482610e2a3660046134d3565b6124fe565b348015610e3b57600080fd5b50610482610e4a366004613df0565b61250e565b348015610e5b57600080fd5b506106e5610e6a3660046134d3565b60126020526000908152604090205460ff1681565b348015610e8b57600080fd5b5061066c610e9a366004613c47565b61252a565b348015610eab57600080fd5b50610482600c5481565b601460205260009081526040902080546001820180546001600160a01b03831693600160a01b90930460ff16929190610eed90614029565b80601f0160208091040260200160405190810160405280929190818152602001828054610f1990614029565b8015610f665780601f10610f3b57610100808354040283529160200191610f66565b820191906000526020600020905b815481529060010190602001808311610f4957829003601f168201915b5050604080516020808201835260028801546001600160a01b031682528251600389018054606093810283018401865294820185815298999398939750909550935084928491840182828015610fe557602002820191906000526020600020905b81546001600160a01b03168152600190910190602001808311610fc7575b50505050508152602001600182015481525050905085565b6011818154811061100d57600080fd5b600091825260209091200154905081565b6005805461102b90614029565b80601f016020809104026020016040519081016040528092919081815260200182805461105790614029565b80156110a45780601f10611079576101008083540402835291602001916110a4565b820191906000526020600020905b81548152906001019060200180831161108757829003601f168201915b505050505081565b6110e0604051806080016040528060006001600160a01b031681526020016000815260200160008152602001606081525090565b600082815260226020908152604091829020825160808101845281546001600160a01b0316815260018201549281019290925260028101549282019290925260038201805491929160608401919061113790614029565b80601f016020809104026020016040519081016040528092919081815260200182805461116390614029565b80156111b05780601f10611185576101008083540402835291602001916111b0565b820191906000526020600020905b81548152906001019060200180831161119357829003601f168201915b5050505050815250509050919050565b601681815481106111d057600080fd5b6000918252602090912001546001600160a01b0316905081565b6060601180548060200260200160405190810160405280929190818152602001828054801561123857602002820191906000526020600020905b815481526020019060010190808311611224575b5050505050905090565b60408051608081018252338152426020820152908101839052606081018290526000908161126f8261156c565b60208054600180820183557fc97bfaf2f8ee708c303a06d134f5ecd8389ae0432af62dc132a24118292866bb909101839055600083815260228352604090819020865181546001600160a01b0319166001600160a01b03909116178155928601519183019190915584015160028201556060840151919250839160038201906112f890826140ab565b505050600085815260236020908152604080832080546001810182559084529190922001829055517f5a1a930fed43f34b3a07db782ebcac28a661c273e662bb98458cfba5a8ccd2209061134f9083815260200190565b60405180910390a19150505b92915050565b6001600160a01b0383166000908152601a602052604090205460ff166113cb5760035460000361139057505050565b6113a683678ac7230489e800008484600061145d565b506001600160a01b0383166000908152601a60205260409020805460ff191660011790555b505050565b6000600a546113dd61219c565b6113e79190614180565b905090565b6060601780548060200260200160405190810160405280929190818152602001828054801561123857602002820191906000526020600020905b81546001600160a01b03168152600190910190602001808311611426575050505050905090565b6002818154811061100d57600080fd5b6040516bffffffffffffffffffffffff19606087901b1660208201526034810185905260009081906054016040516020818303038152906040528051906020012090506000836114ed576114e8868680806020026020016040519081016040528093929190818152602001838360200280828437600092019190915250506003549150859050612679565b61152e565b61152e868680806020026020016040519081016040528093929190818152602001838360200280828437600092019190915250506004549150859050612679565b90508061154e5760405163452c2df160e11b815260040160405180910390fd5b506001979650505050505050565b6021818154811061100d57600080fd5b60008160405160200161157f9190613607565b60408051601f19818403018152919052805160209091012092915050565b600086815260126020526040812054339060ff16156115cf576040516358f1119560e01b815260040160405180910390fd5b6115db818786866117c1565b6115e78882898861268f565b98975050505050505050565b60008160405160200161157f9190613f81565b6000600e54341461163c57600e546040516380a7af9f60e01b815234600482015260248101919091526044015b60405180910390fd5b6003541561167457336000908152601a602052604090205460ff1661167457604051631f22097560e01b815260040160405180910390fd5b611680610e9a83614193565b600061169361168e84614193565b6127d6565b905061135b612a51565b6116a8600180614180565b81565b60608060006116b86122c8565b9050600081516001600160401b038111156116d5576116d5613696565b60405190808252806020026020018201604052801561171a57816020015b60408051808201909152600080825260208201528152602001906001900390816116f35790505b50905060005b82518110156117a757601d600084838151811061173f5761173f61419f565b60200260200101518152602001908152602001600020600001604051806040016040529081600082015481526020016001820154815250508282815181106117895761178961419f565b6020026020010181905250808061179f906141b5565b915050611720565b5090939092509050565b601781815481106111d057600080fd5b6001600160a01b03841660009081526019602052604090205460ff16611821576117ef84848484600161145d565b506001600160a01b038416600090815260186020908152604080832086905560199091529020805460ff191660011790555b50505050565b60008160000361184a57604051630ec90a1760e31b815260040160405180910390fd5b6002805460408051602080840282018101909252828152919260009291849083018282801561189857602002820191906000526020600020905b815481526020019060010190808311611884575b5050505050905060006001905060005b83811015611914576118df8382815181106118c5576118c561419f565b60200260200101516000908152601e602052604090205490565b15611902578582036118f45795945050505050565b816118fe816141b5565b9250505b8061190c816141b5565b9150506118a8565b50604051632cc2ab7360e11b815260040160405180910390fd5b606060218054806020026020016040519081016040528092919081815260200182805480156112385760200282019190600052602060002090815481526020019060010190808311611224575050505050905090565b600083815260126020526040812054339060ff16156119b6576040516358f1119560e01b815260040160405180910390fd5b6001600160a01b03811660009081526019602052604090205460ff166119ef5760405163126ec6d160e31b815260040160405180910390fd5b6119fb8582868661268f565b95945050505050565b6000828152601d602090815260408083206001600160a01b0385168452600301909152902080546001909101545b9250929050565b606060028054806020026020016040519081016040528092919081815260200182805480156112385760200282019190600052602060002090815481526020019060010190808311611224575050505050905090565b601e6020528160005260406000208181548110611aab57600080fd5b90600052602060002001600091509150505481565b6006805461102b90614029565b60226020526000908152604090208054600182015460028301546003840180546001600160a01b03909416949293919291611b0790614029565b80601f0160208091040260200160405190810160405280929190818152602001828054611b3390614029565b8015611b805780601f10611b5557610100808354040283529160200191611b80565b820191906000526020600020905b815481529060010190602001808311611b6357829003601f168201915b5050505050905084565b600254600090611b9c906001906141ce565b821115611bbc576040516365d6f35160e11b815260040160405180910390fd5b60005b611bca836001614180565b811015611c27576001611c0660028381548110611be957611be961419f565b90600052602060002001546000908152601e602052604090205490565b1115611c155750600192915050565b80611c1f816141b5565b915050611bbf565b50600092915050565b60606016805480602002602001604051908101604052809291908181526020018280548015611238576020028201919060005260206000209081546001600160a01b03168152600190910190602001808311611426575050505050905090565b6010818154811061100d57600080fd5b805160005b81811015611d99576000838281518110611cc157611cc161419f565b60209081029190910101516007549091506001600160a01b03163314801590611d0157506000818152602260205260409020546001600160a01b03163314155b15611d2257604051635450763d60e11b815260048101829052602401611633565b60008181526024602052604090205460ff16611d86576000818152602460205260408120805460ff191660019081179091556021805491820181559091527f3a6357012c1a3ae0a17d304c9920310382d968ebcc4b1771f41c6b304205b570018190555b5080611d91816141b5565b915050611ca5565b507f788a4349d25bc08585923ae212bce8bb346a623bce753eeecb85fd9ce58dcb4b82604051611dc99190613683565b60405180910390a15050565b6000818152601d60209081526040918290206002810180548451818502810185019095528085526060949293830182828015611e3a57602002820191906000526020600020905b81546001600160a01b03168152600190910190602001808311611e1c575b5050505050915050919050565b6000818152601e6020526040812054600114611e7657604051633832a15560e21b815260040160405180910390fd5b6000828152601e602052604081208054909190611e9557611e9561419f565b90600052602060002001549050919050565b600081815260236020908152604091829020805483518184028101840190945280845260609392830182828015611efd57602002820191906000526020600020905b815481526020019060010190808311611ee9575b50505050509050919050565b6000600e543414611f3a57600e546040516380a7af9f60e01b81523460048201526024810191909152604401611633565b611f45338484611361565b611f51610e9a85614193565b6000611f5f61168e86614193565b9050611f69612a51565b949350505050565b60135460009060ff1615611f855750600290565b4260085410611f945750600090565b42611f9d61219c565b10611fa85750600390565b42611fb16113d0565b10611fbc5750600190565b50600490565b611fca6133e8565b600082815260146020908152604091829020825160a08101845281546001600160a01b0381168252600160a01b900460ff16151592810192909252600181018054929391929184019161201c90614029565b80601f016020809104026020016040519081016040528092919081815260200182805461204890614029565b80156120955780601f1061206a57610100808354040283529160200191612095565b820191906000526020600020905b81548152906001019060200180831161207857829003601f168201915b5050509183525050604080516020818101835260028501546001600160a01b0316825280840191909152815160038501805460609381028301840185528285018181529490950194919390928492849184018282801561211e57602002820191906000526020600020905b81546001600160a01b03168152600190910190602001808311612100575b50505050508152602001600182015481525050815250509050919050565b6000818152601e6020908152604091829020805483518184028101840190945280845260609392830182828015611efd5760200282019190600052602060002090815481526020019060010190808311611ee95750505050509050919050565b60006009546008546113e79190614180565b606060208054806020026020016040519081016040528092919081815260200182805480156112385760200282019190600052602060002090815481526020019060010190808311611224575050505050905090565b6007546001600160a01b0316331480159061223357503373dc652c746a8f85e18ce632d97c6118e8a52fa73814155b15612251576040516301dbf46f60e71b815260040160405180910390fd5b600061225b611f71565b9050600281600481111561227157612271613f51565b0361228f57604051633c30acbf60e01b815260040160405180910390fd5b6013805460ff191660011790556040517f4cd963a081760a54f571abc0f1db4dde31b4a07d8d6da3e844b8c6f47eeaaa4290600090a150565b606060108054806020026020016040519081016040528092919081815260200182805480156112385760200282019190600052602060002090815481526020019060010190808311611224575050505050905090565b6007546001600160a01b031633146123495760405163b8d4540960e01b815260040160405180910390fd5b6004612353611f71565b600481111561236457612364613f51565b03612382576040516331da1c8b60e11b815260040160405180910390fd5b60005b818110156124275760008383838181106123a1576123a161419f565b60209081029290920135600081815260129093526040909220549192505060ff16612414576000818152601260205260408120805460ff191660019081179091556011805491820181559091527f31ecc21a745e3968a04e9570e4425bc18fa8019c68028196b546d1669c200c68018190555b508061241f816141b5565b915050612385565b50600d5415801561243a57506000546001145b15612449576124498282612b66565b7f75a75cf5c561892f4cc5b26c1b8e933849b42238c96dd073d080d1ae96c514166010604051611dc991906141e1565b6007546001600160a01b031633146124a457604051630f4cb1bd60e11b815260040160405180910390fd5b601f80546001600160a01b038381166001600160a01b031983168117909355604080519190921680825260208201939093527f753a2cf8d360cff631674504210913e48247f8e56b3e6d2006c2103d4095999f9101611dc9565b6020818154811061100d57600080fd5b60236020528160005260406000208181548110611aab57600080fd5b80516001600160a01b0316331461256857805160405163fbbf4d7f60e01b81526001600160a01b039091166004820152336024820152604401611633565b60005b612576600180614180565b81101561264f57600081600181111561259157612591613f51565b905060008160018111156125a7576125a7613f51565b036125b2575061263d565b60018160018111156125c6576125c6613f51565b0361262057608083015151516000036125f25760405163c3b2798b60e01b815260040160405180910390fd5b82608001516020015160000361261b576040516392fb9a3560e01b815260040160405180910390fd5b61263b565b8060405163d2277d4960e01b8152600401611633919061421c565b505b80612647816141b5565b91505061256b565b508060400151516000036126765760405163e182473360e01b815260040160405180910390fd5b50565b6000826126868584612bc3565b14949350505050565b6000600161269b611f71565b60048111156126ac576126ac613f51565b146126d3576126b9611f71565b60405163049cab4960e51b81526004016116339190613f67565b816000036126f45760405163502e1c2960e01b815260040160405180910390fd5b61272685858585601860008a6001600160a01b03166001600160a01b0316815260200190815260200160002054612c10565b601780546001810182556000919091527fc624b66cc0138b8fabc209247f72d758e1cf3343756d543badbf24212bed8c150180546001600160a01b031916331790556040805186815260ff851660208201529081018390526001600160a01b038516907f2c9deb38f462962eadbd85a9d3a4120503ee091f1582eaaa10aa8c6797651d299060600160405180910390a25050506001600160a01b0316600090815260186020526040902054919050565b600060036127e2611f71565b60048111156127f3576127f3613f51565b1461281a57612800611f71565b604051632889531360e01b81526004016116339190613f67565b600b54336000908152601560205260409020540361285157600b54604051632bd6d93960e21b815260040161163391815260200190565b600c5460115460105461286491906141ce565b0361288857600c546040516302217f5360e51b815260040161163391815260200190565b6000612893836115f3565b600081815260146020526040902054909150600160a01b900460ff16156128d05760405163baffc42360e01b815260048101829052602401611633565b6010805460018181019092557f1b6847dc741a1b0cd08d278845f9d819d87b734759afb55fe2de5cb82a9ae6720182905560008281526014602090815260409182902086518154928801511515600160a01b026001600160a81b03199093166001600160a01b039091161791909117815590850151859282019061295490826140ab565b506060820151516002820180546001600160a01b0319166001600160a01b03909216919091179055608082015180518051600384019161299991839160200190613459565b50602091820151600191820155336000908152601590925260408220805491945092506129c7908490614180565b9091555050601680546001810182556000919091527fd833147d7dc355ba459fc788f669e58cfaf9dc25ddcd0702e87d69c7b51242890180546001600160a01b031916339081179091556040805183815260208101929092527fcd423cc1203c0af96b9b3d68d73b3064a69de2d14450bb7181c5e5df2132b358910160405180910390a192915050565b600e5415612b645760006064600f546064612a6c91906141ce565b612a769034614230565b612a809190614247565b90508015612af457612aa673dc652c746a8f85e18ce632d97c6118e8a52fa73882612e77565b6040805173dc652c746a8f85e18ce632d97c6118e8a52fa7388152602081018390527fdf20fd1e76bc69d672e4814fafb2c449bba3a5369d8359adf9e05e6fde87b056910160405180910390a15b6000612b0082346141ce565b90508015612b6157600754612b1e906001600160a01b031682612e77565b600754604080516001600160a01b039092168252602082018390527fdf20fd1e76bc69d672e4814fafb2c449bba3a5369d8359adf9e05e6fde87b0569101611dc9565b50505b565b60005b818110156113cb576000838383818110612b8557612b8561419f565b602090810292909201356000818152601d909352604090922054919250612bae90508282612f90565b50508080612bbb906141b5565b915050612b69565b600081815b8451811015612c0857612bf482868381518110612be757612be761419f565b60200260200101516130c1565b915080612c00816141b5565b915050612bc8565b509392505050565b6000858152601d602090815260408083206001600160a01b0388168452601c90925290912054612c4090836141ce565b831115612c605760405163660fa07360e11b815260040160405180910390fd5b6001600160a01b0385166000908152600382016020526040812054158015612ca357506001600160a01b0386166000908152600383016020526040902060010154155b905060ff8516612cfb57815484908390600090612cc1908490614180565b90915550506001600160a01b038616600090815260038301602052604081208054869290612cf0908490614180565b90915550612d8c9050565b60001960ff861601612d7357600d54600114612d2a57604051639755958f60e01b815260040160405180910390fd5b83826000016001016000828254612d419190614180565b90915550506001600160a01b038616600090815260038301602052604081206001018054869290612cf0908490614180565b604051638eed55d160e01b815260040160405180910390fd5b8015612dc357600282018054600181018255600091825260209091200180546001600160a01b0319166001600160a01b0388161790555b6001600160a01b0386166000908152601c602052604081208054869290612deb908490614180565b9250508190555083601b6000828254612e049190614180565b9091555050600d54158015612e1b57506000546001145b15612e6e5781546000612e2e86836141ce565b90508015612e4057612e408982612f90565b6000828152601e6020908152604082208054600181018255908352912001899055612e6b81836130f3565b50505b50505050505050565b80471015612ec75760405162461bcd60e51b815260206004820152601d60248201527f416464726573733a20696e73756666696369656e742062616c616e63650000006044820152606401611633565b6000826001600160a01b03168260405160006040518083038185875af1925050503d8060008114612f14576040519150601f19603f3d011682016040523d82523d6000602084013e612f19565b606091505b50509050806113cb5760405162461bcd60e51b815260206004820152603a60248201527f416464726573733a20756e61626c6520746f2073656e642076616c75652c207260448201527f6563697069656e74206d617920686176652072657665727465640000000000006064820152608401611633565b6000818152601e6020908152604080832080548251818502810185019093528083529192909190830182828015612fe657602002820191906000526020600020905b815481526020019060010190808311612fd2575b5050505050905060005b8151811015611821578382828151811061300c5761300c61419f565b6020026020010151036130af57816001835161302891906141ce565b815181106130385761303861419f565b6020026020010151601e600085815260200190815260200160002082815481106130645761306461419f565b9060005260206000200181905550601e600084815260200190815260200160002080548061309457613094614269565b60019003818190600052602060002001600090559055611821565b806130b9816141b5565b915050612ff0565b60008183106130dd5760008281526020849052604090206130ec565b60008381526020839052604090205b9392505050565b6002805460408051602080840282018101909252828152919260009291849083018282801561314157602002820191906000526020600020905b81548152602001906001019080831161312d575b5050505050905081600003613188575050600280546001810182556000919091527f405787fa12a823e0f2b7631cc41b3ba8828b3321ca811111fa75cd3aa3bb5ace015550565b806131946001846141ce565b815181106131a4576131a461419f565b60200260200101518310156131fa5760015482036131c25750505050565b5050600280546001810182556000919091527f405787fa12a823e0f2b7631cc41b3ba8828b3321ca811111fa75cd3aa3bb5ace015550565b611821848484846000805b8381101561326f5782818151811061321f5761321f61419f565b60200260200101518503613234575050611821565b8281815181106132465761324661419f565b602002602001015185111561325d5780915061326f565b80613267816141b5565b915050613205565b506000808611801561328d57506000868152601e6020526040902054155b905060008180156132b65750868484815181106132ac576132ac61419f565b6020026020010151145b6133bf576132c56001866141ce565b831461336d5760006132d8846001614180565b90505b8581101561336b57846132ef6001836141ce565b815181106132ff576132ff61419f565b60200260200101516002828154811061331a5761331a61419f565b60009182526020909120015582801561334b5750878582815181106133415761334161419f565b6020026020010151145b15613359576001915061336b565b80613363816141b5565b9150506132db565b505b8015801561337c575060015485105b156133bf5760028461338f6001886141ce565b8151811061339f5761339f61419f565b602090810291909101810151825460018101845560009384529190922001555b85600284815481106133d3576133d361419f565b60009182526020909120015550505050505050565b6040518060a0016040528060006001600160a01b0316815260200160001515815260200160608152602001613432604051806020016040528060006001600160a01b031681525090565b8152602001613454604051806040016040528060608152602001600081525090565b905290565b8280548282559060005260206000209081019282156134ae579160200282015b828111156134ae57825182546001600160a01b0319166001600160a01b03909116178255602090920191600190910190613479565b506134ba9291506134be565b5090565b5b808211156134ba57600081556001016134bf565b6000602082840312156134e557600080fd5b5035919050565b6000815180845260005b81811015613512576020818501810151868301820152016134f6565b506000602082860101526020601f19601f83011685010191505092915050565b805160408084528151908401819052600091602091908201906060860190845b818110156135775783516001600160a01b031683529284019291840191600101613552565b505093820151949091019390935250919050565b600060018060a01b038088168352861515602084015260a060408401526135b560a08401876134ec565b81865116606085015283810360808501526135d08186613532565b9998505050505050505050565b6020815260006130ec60208301846134ec565b81518152602080830151908201526040810161135b565b6020815260018060a01b038251166020820152602082015160408201526040820151606082015260006060830151608080840152611f6960a08401826134ec565b600081518084526020808501945080840160005b838110156136785781518752958201959082019060010161365c565b509495945050505050565b6020815260006130ec6020830184613648565b634e487b7160e01b600052604160045260246000fd5b604080519081016001600160401b03811182821017156136ce576136ce613696565b60405290565b60405160a081016001600160401b03811182821017156136ce576136ce613696565b604051602081016001600160401b03811182821017156136ce576136ce613696565b604051601f8201601f191681016001600160401b038111828210171561374057613740613696565b604052919050565b600082601f83011261375957600080fd5b81356001600160401b0381111561377257613772613696565b613785601f8201601f1916602001613718565b81815284602083860101111561379a57600080fd5b816020850160208301376000918101602001919091529392505050565b600080604083850312156137ca57600080fd5b8235915060208301356001600160401b038111156137e757600080fd5b6137f385828601613748565b9150509250929050565b6001600160a01b038116811461267657600080fd5b60008083601f84011261382457600080fd5b5081356001600160401b0381111561383b57600080fd5b6020830191508360208260051b8501011115611a3257600080fd5b60008060006040848603121561386b57600080fd5b8335613876816137fd565b925060208401356001600160401b0381111561389157600080fd5b61389d86828701613812565b9497909650939450505050565b6020808252825182820181905260009190848201906040850190845b818110156138eb5783516001600160a01b0316835292840192918401916001016138c6565b50909695505050505050565b8035801515811461390757600080fd5b919050565b60008060008060006080868803121561392457600080fd5b853561392f816137fd565b94506020860135935060408601356001600160401b0381111561395157600080fd5b61395d88828901613812565b90945092506139709050606087016138f7565b90509295509295909350565b60006020828403121561398e57600080fd5b81356001600160401b03808211156139a557600080fd5b90830190608082860312156139b957600080fd5b6040516080810181811083821117156139d4576139d4613696565b60405282356139e2816137fd565b808252506020830135602082015260408301356040820152606083013582811115613a0c57600080fd5b613a1887828601613748565b60608301525095945050505050565b803560ff8116811461390757600080fd5b60008060008060008060a08789031215613a5157600080fd5b86359550613a6160208801613a27565b9450604087013593506060870135925060808701356001600160401b03811115613a8a57600080fd5b613a9689828a01613812565b979a9699509497509295939492505050565b60006001600160401b03821115613ac157613ac1613696565b5060051b60200190565b600060408284031215613add57600080fd5b613ae56136ac565b905081356001600160401b03811115613afd57600080fd5b8201601f81018413613b0e57600080fd5b80356020613b23613b1e83613aa8565b613718565b82815260059290921b83018101918181019087841115613b4257600080fd5b938201935b83851015613b69578435613b5a816137fd565b82529382019390820190613b47565b85525093840135938301939093525092915050565b600081830360a0811215613b9157600080fd5b613b996136d4565b91508235613ba6816137fd565b8252613bb4602084016138f7565b602083015260408301356001600160401b0380821115613bd357600080fd5b613bdf86838701613748565b60408501526020605f1984011215613bf657600080fd5b613bfe6136f6565b925060608501359150613c10826137fd565b8183528260608501526080850135925080831115613c2d57600080fd5b5050613c3b84828501613acb565b60808301525092915050565b600060208284031215613c5957600080fd5b81356001600160401b03811115613c6f57600080fd5b611f6984828501613b7e565b600060a08284031215613c8d57600080fd5b50919050565b600060208284031215613ca557600080fd5b81356001600160401b03811115613cbb57600080fd5b611f6984828501613c7b565b60006040808352613cda81840186613648565b83810360208581019190915285518083528682019282019060005b81811015613d2257613d1283865180518252602090810151910152565b9383019391850191600101613cf5565b509098975050505050505050565b60008060008060608587031215613d4657600080fd5b8435613d51816137fd565b93506020850135925060408501356001600160401b03811115613d7357600080fd5b613d7f87828801613812565b95989497509550505050565b600080600060608486031215613da057600080fd5b83359250613db060208501613a27565b9150604084013590509250925092565b60008060408385031215613dd357600080fd5b823591506020830135613de5816137fd565b809150509250929050565b60008060408385031215613e0357600080fd5b50508035926020909101359150565b600060208284031215613e2457600080fd5b81356130ec816137fd565b60018060a01b0385168152836020820152826040820152608060608201526000613e5c60808301846134ec565b9695505050505050565b60006020808385031215613e7957600080fd5b82356001600160401b03811115613e8f57600080fd5b8301601f81018513613ea057600080fd5b8035613eae613b1e82613aa8565b81815260059190911b82018301908381019087831115613ecd57600080fd5b928401925b82841015613eeb57833582529284019290840190613ed2565b979650505050505050565b600080600060408486031215613f0b57600080fd5b83356001600160401b0380821115613f2257600080fd5b613f2e87838801613c7b565b94506020860135915080821115613f4457600080fd5b5061389d86828701613812565b634e487b7160e01b600052602160045260246000fd5b6020810160058310613f7b57613f7b613f51565b91905290565b60208152600060018060a01b03808451166020840152602084015115156040840152604084015160a06060850152613fbc60c08501826134ec565b90508160608601515116608085015260808501519150601f198482030160a08501526119fb8183613532565b60008060208385031215613ffb57600080fd5b82356001600160401b0381111561401157600080fd5b61401d85828601613812565b90969095509350505050565b600181811c9082168061403d57607f821691505b602082108103613c8d57634e487b7160e01b600052602260045260246000fd5b601f8211156113cb57600081815260208120601f850160051c810160208610156140845750805b601f850160051c820191505b818110156140a357828155600101614090565b505050505050565b81516001600160401b038111156140c4576140c4613696565b6140d8816140d28454614029565b8461405d565b602080601f83116001811461410d57600084156140f55750858301515b600019600386901b1c1916600185901b1785556140a3565b600085815260208120601f198616915b8281101561413c5788860151825594840194600190910190840161411d565b508582101561415a5787850151600019600388901b60f8161c191681555b5050505050600190811b01905550565b634e487b7160e01b600052601160045260246000fd5b8082018082111561135b5761135b61416a565b600061135b3683613b7e565b634e487b7160e01b600052603260045260246000fd5b6000600182016141c7576141c761416a565b5060010190565b8181038181111561135b5761135b61416a565b6020808252825482820181905260008481528281209092916040850190845b818110156138eb57835483526001938401939285019201614200565b6020810160028310613f7b57613f7b613f51565b808202811582820484141761135b5761135b61416a565b60008261426457634e487b7160e01b600052601260045260246000fd5b500490565b634e487b7160e01b600052603160045260246000fdfea26469706673582212206962ae45a23ecda96276e52b0d056b906b0e8fc9a97f3b2389c240747d5c242564736f6c63430008130033","linkReferences":{}},"methodIdentifiers":{"AMOUNT_FOR_SUMBITTER_PROOF()":"347cf665","JK_LABS_ADDRESS()":"eef18e17","METADATAS_COUNT()":"4d24a67f","addressSubmitterVerified(address)":"cb853950","addressTotalCastVoteCounts(address)":"a1ac6cb2","addressTotalVotes(address)":"dea5f6a6","addressTotalVotesVerified(address)":"930de979","addressesThatHaveVoted(uint256)":"50c4b616","allProposalTotalVotes()":"50a5e524","cancel()":"ea8a1af0","canceled()":"3f9942ff","castVote(uint256,uint8,uint256,uint256,bytes32[])":"419c533c","castVoteWithoutProof(uint256,uint8,uint256)":"65f16263","checkProof(address,uint256,bytes32[],bool)":"32763c22","comment(uint256,string)":"1805c523","commentIds(uint256)":"f5c36411","commentIsDeleted(uint256)":"ae66b8ad","comments(uint256)":"8ebb4c15","contestAddressTotalVotesCast(address)":"aec116b6","contestDeadline()":"262e59e9","contestStart()":"004114a8","costToPropose()":"6ed815ad","creator()":"02d05d3f","deleteComments(uint256[])":"ac67f801","deleteProposals(uint256[])":"f0a7db0a","deletedCommentIds(uint256)":"3fb57c92","deletedProposalIds(uint256)":"05846cae","downvotingAllowed()":"60506ff6","forVotesToProposalIds(uint256,uint256)":"711effc8","getAllAddressesThatHaveVoted()":"2c39805f","getAllCommentIds()":"e11db9d8","getAllDeletedCommentIds()":"5cb718a1","getAllDeletedProposalIds()":"1242b737","getAllProposalAuthors()":"946369b5","getAllProposalIds()":"efa90d36","getComment(uint256)":"0800e300","getNumProposalsWithThisManyForVotes(uint256)":"9ba197af","getOnlyProposalIdWithThisManyForVotes(uint256)":"b66d1da3","getProposal(uint256)":"c7f758a8","getProposalComments(uint256)":"c05f4104","getProposalsWithThisManyForVotes(uint256)":"c9a1b6b2","getRankIndex(uint256)":"5c7107d8","getSortedRanks()":"6fd3636b","hashComment((address,uint256,uint256,string))":"409fd030","hashProposal((address,bool,string,(address),(address[],uint256)))":"458da87d","isOrIsBelowTiedRank(uint256)":"9174778c","maxProposalCount()":"fb9bf8d4","name()":"06fdde03","numAllowedProposalSubmissions()":"832009af","numSubmissions(address)":"75e509c5","officialRewardsModule()":"785ddfe5","percentageToCreator()":"edcd1be4","prompt()":"7c65d711","proposalAddressVotes(uint256,address)":"6e4eb810","proposalAddressesHaveVoted(uint256)":"b323580d","proposalAuthors(uint256)":"0aa25e44","proposalComments(uint256,uint256)":"f61736f4","proposalIds(uint256)":"9b644a23","proposalIsDeleted(uint256)":"f79c0172","proposalVotes(uint256)":"544ffc9c","proposalVotesStructs(uint256)":"070dc5d9","proposals(uint256)":"013cf08b","propose((address,bool,string,(address),(address[],uint256)),bytes32[])":"c0ffaa78","proposeWithoutProof((address,bool,string,(address),(address[],uint256)))":"476f4d8a","rankLimit()":"0414126a","setOfficialRewardsModule(address)":"f4f3d7ec","sortedRanks(uint256)":"325cc6d9","sortingEnabled()":"366ecf5b","state()":"c19d93fb","submissionMerkleRoot()":"bddc1641","totalVotesCast()":"7de418d5","validateProposalData((address,bool,string,(address),(address[],uint256)))":"fb8ddab4","verifyProposer(address,bytes32[])":"20b3e845","verifyVoter(address,uint256,bytes32[])":"531bd812","version()":"54fd4d50","voteStart()":"e031535b","votingDelay()":"3932abb1","votingMerkleRoot()":"dd96a19d","votingPeriod()":"02a251a3"},"id":28}