{
  "abi": [
    {
      "inputs": [
        {
          "internalType": "string",
          "name": "_name",
          "type": "string"
        },
        {
          "internalType": "string",
          "name": "_prompt",
          "type": "string"
        },
        {
          "internalType": "bytes32",
          "name": "_submissionMerkleRoot",
          "type": "bytes32"
        },
        {
          "internalType": "bytes32",
          "name": "_votingMerkleRoot",
          "type": "bytes32"
        },
        {
          "internalType": "uint256[]",
          "name": "_constructorIntParams",
          "type": "uint256[]"
        }
      ],
      "stateMutability": "nonpayable",
      "type": "constructor"
    },
    {
      "inputs": [],
      "name": "InvalidShortString",
      "type": "error"
    },
    {
      "inputs": [],
      "name": "NotInMerkle",
      "type": "error"
    },
    {
      "inputs": [
        {
          "internalType": "string",
          "name": "str",
          "type": "string"
        }
      ],
      "name": "StringTooLong",
      "type": "error"
    },
    {
      "inputs": [],
      "name": "TooManyMetadatas",
      "type": "error"
    },
    {
      "anonymous": false,
      "inputs": [],
      "name": "ContestCanceled",
      "type": "event"
    },
    {
      "anonymous": false,
      "inputs": [
        {
          "indexed": false,
          "internalType": "uint256",
          "name": "oldContestStart",
          "type": "uint256"
        },
        {
          "indexed": false,
          "internalType": "uint256",
          "name": "newContestStart",
          "type": "uint256"
        }
      ],
      "name": "ContestStartSet",
      "type": "event"
    },
    {
      "anonymous": false,
      "inputs": [
        {
          "indexed": false,
          "internalType": "address",
          "name": "oldCreator",
          "type": "address"
        },
        {
          "indexed": false,
          "internalType": "address",
          "name": "newCreator",
          "type": "address"
        }
      ],
      "name": "CreatorSet",
      "type": "event"
    },
    {
      "anonymous": false,
      "inputs": [
        {
          "indexed": false,
          "internalType": "uint256",
          "name": "oldDownvotingAllowed",
          "type": "uint256"
        },
        {
          "indexed": false,
          "internalType": "uint256",
          "name": "newDownvotingAllowed",
          "type": "uint256"
        }
      ],
      "name": "DownvotingAllowedSet",
      "type": "event"
    },
    {
      "anonymous": false,
      "inputs": [],
      "name": "EIP712DomainChanged",
      "type": "event"
    },
    {
      "anonymous": false,
      "inputs": [
        {
          "indexed": false,
          "internalType": "uint256",
          "name": "oldMaxProposalCount",
          "type": "uint256"
        },
        {
          "indexed": false,
          "internalType": "uint256",
          "name": "newMaxProposalCount",
          "type": "uint256"
        }
      ],
      "name": "MaxProposalCountSet",
      "type": "event"
    },
    {
      "anonymous": false,
      "inputs": [
        {
          "indexed": false,
          "internalType": "uint256",
          "name": "oldNumAllowedProposalSubmissions",
          "type": "uint256"
        },
        {
          "indexed": false,
          "internalType": "uint256",
          "name": "newNumAllowedProposalSubmissions",
          "type": "uint256"
        }
      ],
      "name": "NumAllowedProposalSubmissionsSet",
      "type": "event"
    },
    {
      "anonymous": false,
      "inputs": [
        {
          "indexed": false,
          "internalType": "contract RewardsModule",
          "name": "oldOfficialRewardsModule",
          "type": "address"
        },
        {
          "indexed": false,
          "internalType": "contract RewardsModule",
          "name": "newOfficialRewardsModule",
          "type": "address"
        }
      ],
      "name": "OfficialRewardsModuleSet",
      "type": "event"
    },
    {
      "anonymous": false,
      "inputs": [
        {
          "indexed": false,
          "internalType": "uint256",
          "name": "proposalId",
          "type": "uint256"
        },
        {
          "indexed": false,
          "internalType": "address",
          "name": "proposer",
          "type": "address"
        }
      ],
      "name": "ProposalCreated",
      "type": "event"
    },
    {
      "anonymous": false,
      "inputs": [
        {
          "indexed": false,
          "internalType": "uint256[]",
          "name": "proposalIds",
          "type": "uint256[]"
        }
      ],
      "name": "ProposalsDeleted",
      "type": "event"
    },
    {
      "anonymous": false,
      "inputs": [
        {
          "indexed": true,
          "internalType": "address",
          "name": "voter",
          "type": "address"
        },
        {
          "indexed": false,
          "internalType": "uint256",
          "name": "proposalId",
          "type": "uint256"
        },
        {
          "indexed": false,
          "internalType": "uint8",
          "name": "support",
          "type": "uint8"
        },
        {
          "indexed": false,
          "internalType": "uint256",
          "name": "numVotes",
          "type": "uint256"
        },
        {
          "indexed": false,
          "internalType": "string",
          "name": "reason",
          "type": "string"
        }
      ],
      "name": "VoteCast",
      "type": "event"
    },
    {
      "anonymous": false,
      "inputs": [
        {
          "indexed": false,
          "internalType": "uint256",
          "name": "oldVotingDelay",
          "type": "uint256"
        },
        {
          "indexed": false,
          "internalType": "uint256",
          "name": "newVotingDelay",
          "type": "uint256"
        }
      ],
      "name": "VotingDelaySet",
      "type": "event"
    },
    {
      "anonymous": false,
      "inputs": [
        {
          "indexed": false,
          "internalType": "uint256",
          "name": "oldVotingPeriod",
          "type": "uint256"
        },
        {
          "indexed": false,
          "internalType": "uint256",
          "name": "newVotingPeriod",
          "type": "uint256"
        }
      ],
      "name": "VotingPeriodSet",
      "type": "event"
    },
    {
      "inputs": [],
      "name": "AMOUNT_FOR_SUMBITTER_PROOF",
      "outputs": [
        {
          "internalType": "uint256",
          "name": "",
          "type": "uint256"
        }
      ],
      "stateMutability": "view",
      "type": "function"
    },
    {
      "inputs": [],
      "name": "BALLOT_TYPEHASH",
      "outputs": [
        {
          "internalType": "bytes32",
          "name": "",
          "type": "bytes32"
        }
      ],
      "stateMutability": "view",
      "type": "function"
    },
    {
      "inputs": [],
      "name": "COUNTING_MODE",
      "outputs": [
        {
          "internalType": "string",
          "name": "",
          "type": "string"
        }
      ],
      "stateMutability": "pure",
      "type": "function"
    },
    {
      "inputs": [],
      "name": "METADATAS_COUNT",
      "outputs": [
        {
          "internalType": "uint256",
          "name": "",
          "type": "uint256"
        }
      ],
      "stateMutability": "view",
      "type": "function"
    },
    {
      "inputs": [],
      "name": "_numDeletedProposals",
      "outputs": [
        {
          "internalType": "uint256",
          "name": "",
          "type": "uint256"
        }
      ],
      "stateMutability": "view",
      "type": "function"
    },
    {
      "inputs": [
        {
          "internalType": "address",
          "name": "",
          "type": "address"
        }
      ],
      "name": "addressSubmitterVerified",
      "outputs": [
        {
          "internalType": "bool",
          "name": "",
          "type": "bool"
        }
      ],
      "stateMutability": "view",
      "type": "function"
    },
    {
      "inputs": [
        {
          "internalType": "address",
          "name": "",
          "type": "address"
        }
      ],
      "name": "addressTotalCastVoteCounts",
      "outputs": [
        {
          "internalType": "uint256",
          "name": "",
          "type": "uint256"
        }
      ],
      "stateMutability": "view",
      "type": "function"
    },
    {
      "inputs": [
        {
          "internalType": "address",
          "name": "",
          "type": "address"
        }
      ],
      "name": "addressTotalVotes",
      "outputs": [
        {
          "internalType": "uint256",
          "name": "",
          "type": "uint256"
        }
      ],
      "stateMutability": "view",
      "type": "function"
    },
    {
      "inputs": [
        {
          "internalType": "address",
          "name": "",
          "type": "address"
        }
      ],
      "name": "addressTotalVotesVerified",
      "outputs": [
        {
          "internalType": "bool",
          "name": "",
          "type": "bool"
        }
      ],
      "stateMutability": "view",
      "type": "function"
    },
    {
      "inputs": [],
      "name": "allProposalTotalVotes",
      "outputs": [
        {
          "internalType": "uint256[]",
          "name": "proposalIdsReturn",
          "type": "uint256[]"
        },
        {
          "components": [
            {
              "internalType": "uint256",
              "name": "forVotes",
              "type": "uint256"
            },
            {
              "internalType": "uint256",
              "name": "againstVotes",
              "type": "uint256"
            }
          ],
          "internalType": "struct GovernorCountingSimple.VoteCounts[]",
          "name": "proposalVoteCountsArrayReturn",
          "type": "tuple[]"
        }
      ],
      "stateMutability": "view",
      "type": "function"
    },
    {
      "inputs": [],
      "name": "allProposalTotalVotesWithoutDeleted",
      "outputs": [
        {
          "internalType": "uint256[]",
          "name": "proposalIdsReturn",
          "type": "uint256[]"
        },
        {
          "components": [
            {
              "internalType": "uint256",
              "name": "forVotes",
              "type": "uint256"
            },
            {
              "internalType": "uint256",
              "name": "againstVotes",
              "type": "uint256"
            }
          ],
          "internalType": "struct GovernorCountingSimple.VoteCounts[]",
          "name": "proposalVoteCountsArrayReturn",
          "type": "tuple[]"
        }
      ],
      "stateMutability": "view",
      "type": "function"
    },
    {
      "inputs": [],
      "name": "cancel",
      "outputs": [],
      "stateMutability": "nonpayable",
      "type": "function"
    },
    {
      "inputs": [
        {
          "internalType": "uint256",
          "name": "proposalId",
          "type": "uint256"
        },
        {
          "internalType": "uint8",
          "name": "support",
          "type": "uint8"
        },
        {
          "internalType": "uint256",
          "name": "totalVotes",
          "type": "uint256"
        },
        {
          "internalType": "uint256",
          "name": "numVotes",
          "type": "uint256"
        },
        {
          "internalType": "bytes32[]",
          "name": "proof",
          "type": "bytes32[]"
        }
      ],
      "name": "castVote",
      "outputs": [
        {
          "internalType": "uint256",
          "name": "",
          "type": "uint256"
        }
      ],
      "stateMutability": "nonpayable",
      "type": "function"
    },
    {
      "inputs": [
        {
          "internalType": "uint256",
          "name": "proposalId",
          "type": "uint256"
        },
        {
          "internalType": "uint8",
          "name": "support",
          "type": "uint8"
        },
        {
          "internalType": "uint256",
          "name": "numVotes",
          "type": "uint256"
        }
      ],
      "name": "castVoteWithoutProof",
      "outputs": [
        {
          "internalType": "uint256",
          "name": "",
          "type": "uint256"
        }
      ],
      "stateMutability": "nonpayable",
      "type": "function"
    },
    {
      "inputs": [
        {
          "internalType": "address",
          "name": "addressToCheck",
          "type": "address"
        },
        {
          "internalType": "uint256",
          "name": "amount",
          "type": "uint256"
        },
        {
          "internalType": "bytes32[]",
          "name": "proof",
          "type": "bytes32[]"
        },
        {
          "internalType": "bool",
          "name": "voting",
          "type": "bool"
        }
      ],
      "name": "checkProof",
      "outputs": [
        {
          "internalType": "bool",
          "name": "verified",
          "type": "bool"
        }
      ],
      "stateMutability": "view",
      "type": "function"
    },
    {
      "inputs": [
        {
          "internalType": "address",
          "name": "userAddress",
          "type": "address"
        }
      ],
      "name": "contestAddressTotalVotesCast",
      "outputs": [
        {
          "internalType": "uint256",
          "name": "userTotalVotesCast",
          "type": "uint256"
        }
      ],
      "stateMutability": "view",
      "type": "function"
    },
    {
      "inputs": [],
      "name": "contestDeadline",
      "outputs": [
        {
          "internalType": "uint256",
          "name": "",
          "type": "uint256"
        }
      ],
      "stateMutability": "view",
      "type": "function"
    },
    {
      "inputs": [],
      "name": "contestStart",
      "outputs": [
        {
          "internalType": "uint256",
          "name": "",
          "type": "uint256"
        }
      ],
      "stateMutability": "view",
      "type": "function"
    },
    {
      "inputs": [],
      "name": "creator",
      "outputs": [
        {
          "internalType": "address",
          "name": "",
          "type": "address"
        }
      ],
      "stateMutability": "view",
      "type": "function"
    },
    {
      "inputs": [
        {
          "internalType": "uint256[]",
          "name": "proposalIds",
          "type": "uint256[]"
        }
      ],
      "name": "deleteProposals",
      "outputs": [],
      "stateMutability": "nonpayable",
      "type": "function"
    },
    {
      "inputs": [],
      "name": "downvotingAllowed",
      "outputs": [
        {
          "internalType": "uint256",
          "name": "",
          "type": "uint256"
        }
      ],
      "stateMutability": "view",
      "type": "function"
    },
    {
      "inputs": [],
      "name": "eip712Domain",
      "outputs": [
        {
          "internalType": "bytes1",
          "name": "fields",
          "type": "bytes1"
        },
        {
          "internalType": "string",
          "name": "name",
          "type": "string"
        },
        {
          "internalType": "string",
          "name": "version",
          "type": "string"
        },
        {
          "internalType": "uint256",
          "name": "chainId",
          "type": "uint256"
        },
        {
          "internalType": "address",
          "name": "verifyingContract",
          "type": "address"
        },
        {
          "internalType": "bytes32",
          "name": "salt",
          "type": "bytes32"
        },
        {
          "internalType": "uint256[]",
          "name": "extensions",
          "type": "uint256[]"
        }
      ],
      "stateMutability": "view",
      "type": "function"
    },
    {
      "inputs": [],
      "name": "getAllProposalIds",
      "outputs": [
        {
          "internalType": "uint256[]",
          "name": "",
          "type": "uint256[]"
        }
      ],
      "stateMutability": "view",
      "type": "function"
    },
    {
      "inputs": [
        {
          "internalType": "address",
          "name": "account",
          "type": "address"
        }
      ],
      "name": "getNumSubmissions",
      "outputs": [
        {
          "internalType": "uint256",
          "name": "",
          "type": "uint256"
        }
      ],
      "stateMutability": "view",
      "type": "function"
    },
    {
      "inputs": [
        {
          "internalType": "uint256",
          "name": "proposalId",
          "type": "uint256"
        }
      ],
      "name": "getProposal",
      "outputs": [
        {
          "components": [
            {
              "internalType": "address",
              "name": "author",
              "type": "address"
            },
            {
              "internalType": "bool",
              "name": "exists",
              "type": "bool"
            },
            {
              "internalType": "bool",
              "name": "isDeleted",
              "type": "bool"
            },
            {
              "internalType": "string",
              "name": "description",
              "type": "string"
            },
            {
              "components": [
                {
                  "internalType": "address",
                  "name": "targetAddress",
                  "type": "address"
                }
              ],
              "internalType": "struct IGovernor.TargetMetadata",
              "name": "targetMetadata",
              "type": "tuple"
            },
            {
              "components": [
                {
                  "internalType": "address[]",
                  "name": "signers",
                  "type": "address[]"
                },
                {
                  "internalType": "uint256",
                  "name": "threshold",
                  "type": "uint256"
                }
              ],
              "internalType": "struct IGovernor.SafeMetadata",
              "name": "safeMetadata",
              "type": "tuple"
            }
          ],
          "internalType": "struct IGovernor.ProposalCore",
          "name": "",
          "type": "tuple"
        }
      ],
      "stateMutability": "view",
      "type": "function"
    },
    {
      "inputs": [
        {
          "components": [
            {
              "internalType": "address",
              "name": "author",
              "type": "address"
            },
            {
              "internalType": "bool",
              "name": "exists",
              "type": "bool"
            },
            {
              "internalType": "bool",
              "name": "isDeleted",
              "type": "bool"
            },
            {
              "internalType": "string",
              "name": "description",
              "type": "string"
            },
            {
              "components": [
                {
                  "internalType": "address",
                  "name": "targetAddress",
                  "type": "address"
                }
              ],
              "internalType": "struct IGovernor.TargetMetadata",
              "name": "targetMetadata",
              "type": "tuple"
            },
            {
              "components": [
                {
                  "internalType": "address[]",
                  "name": "signers",
                  "type": "address[]"
                },
                {
                  "internalType": "uint256",
                  "name": "threshold",
                  "type": "uint256"
                }
              ],
              "internalType": "struct IGovernor.SafeMetadata",
              "name": "safeMetadata",
              "type": "tuple"
            }
          ],
          "internalType": "struct IGovernor.ProposalCore",
          "name": "proposal",
          "type": "tuple"
        }
      ],
      "name": "hashProposal",
      "outputs": [
        {
          "internalType": "uint256",
          "name": "",
          "type": "uint256"
        }
      ],
      "stateMutability": "pure",
      "type": "function"
    },
    {
      "inputs": [],
      "name": "highestTiedRanking",
      "outputs": [
        {
          "internalType": "uint256",
          "name": "",
          "type": "uint256"
        }
      ],
      "stateMutability": "view",
      "type": "function"
    },
    {
      "inputs": [
        {
          "internalType": "uint256",
          "name": "proposalId",
          "type": "uint256"
        }
      ],
      "name": "isProposalDeleted",
      "outputs": [
        {
          "internalType": "bool",
          "name": "",
          "type": "bool"
        }
      ],
      "stateMutability": "view",
      "type": "function"
    },
    {
      "inputs": [
        {
          "internalType": "uint256",
          "name": "ranking",
          "type": "uint256"
        }
      ],
      "name": "isTied",
      "outputs": [
        {
          "internalType": "bool",
          "name": "",
          "type": "bool"
        }
      ],
      "stateMutability": "view",
      "type": "function"
    },
    {
      "inputs": [],
      "name": "lowestRanking",
      "outputs": [
        {
          "internalType": "uint256",
          "name": "",
          "type": "uint256"
        }
      ],
      "stateMutability": "view",
      "type": "function"
    },
    {
      "inputs": [],
      "name": "maxProposalCount",
      "outputs": [
        {
          "internalType": "uint256",
          "name": "",
          "type": "uint256"
        }
      ],
      "stateMutability": "view",
      "type": "function"
    },
    {
      "inputs": [],
      "name": "name",
      "outputs": [
        {
          "internalType": "string",
          "name": "",
          "type": "string"
        }
      ],
      "stateMutability": "view",
      "type": "function"
    },
    {
      "inputs": [],
      "name": "numAllowedProposalSubmissions",
      "outputs": [
        {
          "internalType": "uint256",
          "name": "",
          "type": "uint256"
        }
      ],
      "stateMutability": "view",
      "type": "function"
    },
    {
      "inputs": [],
      "name": "officialRewardsModule",
      "outputs": [
        {
          "internalType": "contract RewardsModule",
          "name": "",
          "type": "address"
        }
      ],
      "stateMutability": "view",
      "type": "function"
    },
    {
      "inputs": [],
      "name": "prompt",
      "outputs": [
        {
          "internalType": "string",
          "name": "",
          "type": "string"
        }
      ],
      "stateMutability": "view",
      "type": "function"
    },
    {
      "inputs": [
        {
          "internalType": "uint256",
          "name": "proposalId",
          "type": "uint256"
        },
        {
          "internalType": "address",
          "name": "userAddress",
          "type": "address"
        }
      ],
      "name": "proposalAddressVotes",
      "outputs": [
        {
          "internalType": "uint256",
          "name": "forVotes",
          "type": "uint256"
        },
        {
          "internalType": "uint256",
          "name": "againstVotes",
          "type": "uint256"
        }
      ],
      "stateMutability": "view",
      "type": "function"
    },
    {
      "inputs": [
        {
          "internalType": "uint256",
          "name": "proposalId",
          "type": "uint256"
        }
      ],
      "name": "proposalAddressesHaveVoted",
      "outputs": [
        {
          "internalType": "address[]",
          "name": "",
          "type": "address[]"
        }
      ],
      "stateMutability": "view",
      "type": "function"
    },
    {
      "inputs": [
        {
          "internalType": "uint256",
          "name": "proposalId",
          "type": "uint256"
        }
      ],
      "name": "proposalVotes",
      "outputs": [
        {
          "internalType": "uint256",
          "name": "forVotes",
          "type": "uint256"
        },
        {
          "internalType": "uint256",
          "name": "againstVotes",
          "type": "uint256"
        }
      ],
      "stateMutability": "view",
      "type": "function"
    },
    {
      "inputs": [
        {
          "internalType": "uint256",
          "name": "",
          "type": "uint256"
        }
      ],
      "name": "proposalVotesStructs",
      "outputs": [
        {
          "components": [
            {
              "internalType": "uint256",
              "name": "forVotes",
              "type": "uint256"
            },
            {
              "internalType": "uint256",
              "name": "againstVotes",
              "type": "uint256"
            }
          ],
          "internalType": "struct GovernorCountingSimple.VoteCounts",
          "name": "proposalVoteCounts",
          "type": "tuple"
        }
      ],
      "stateMutability": "view",
      "type": "function"
    },
    {
      "inputs": [
        {
          "components": [
            {
              "internalType": "address",
              "name": "author",
              "type": "address"
            },
            {
              "internalType": "bool",
              "name": "exists",
              "type": "bool"
            },
            {
              "internalType": "bool",
              "name": "isDeleted",
              "type": "bool"
            },
            {
              "internalType": "string",
              "name": "description",
              "type": "string"
            },
            {
              "components": [
                {
                  "internalType": "address",
                  "name": "targetAddress",
                  "type": "address"
                }
              ],
              "internalType": "struct IGovernor.TargetMetadata",
              "name": "targetMetadata",
              "type": "tuple"
            },
            {
              "components": [
                {
                  "internalType": "address[]",
                  "name": "signers",
                  "type": "address[]"
                },
                {
                  "internalType": "uint256",
                  "name": "threshold",
                  "type": "uint256"
                }
              ],
              "internalType": "struct IGovernor.SafeMetadata",
              "name": "safeMetadata",
              "type": "tuple"
            }
          ],
          "internalType": "struct IGovernor.ProposalCore",
          "name": "proposal",
          "type": "tuple"
        },
        {
          "internalType": "bytes32[]",
          "name": "proof",
          "type": "bytes32[]"
        }
      ],
      "name": "propose",
      "outputs": [
        {
          "internalType": "uint256",
          "name": "",
          "type": "uint256"
        }
      ],
      "stateMutability": "nonpayable",
      "type": "function"
    },
    {
      "inputs": [
        {
          "components": [
            {
              "internalType": "address",
              "name": "author",
              "type": "address"
            },
            {
              "internalType": "bool",
              "name": "exists",
              "type": "bool"
            },
            {
              "internalType": "bool",
              "name": "isDeleted",
              "type": "bool"
            },
            {
              "internalType": "string",
              "name": "description",
              "type": "string"
            },
            {
              "components": [
                {
                  "internalType": "address",
                  "name": "targetAddress",
                  "type": "address"
                }
              ],
              "internalType": "struct IGovernor.TargetMetadata",
              "name": "targetMetadata",
              "type": "tuple"
            },
            {
              "components": [
                {
                  "internalType": "address[]",
                  "name": "signers",
                  "type": "address[]"
                },
                {
                  "internalType": "uint256",
                  "name": "threshold",
                  "type": "uint256"
                }
              ],
              "internalType": "struct IGovernor.SafeMetadata",
              "name": "safeMetadata",
              "type": "tuple"
            }
          ],
          "internalType": "struct IGovernor.ProposalCore",
          "name": "proposal",
          "type": "tuple"
        }
      ],
      "name": "proposeWithoutProof",
      "outputs": [
        {
          "internalType": "uint256",
          "name": "",
          "type": "uint256"
        }
      ],
      "stateMutability": "nonpayable",
      "type": "function"
    },
    {
      "inputs": [
        {
          "internalType": "uint256",
          "name": "ranking",
          "type": "uint256"
        }
      ],
      "name": "rankingPosition",
      "outputs": [
        {
          "internalType": "uint256",
          "name": "",
          "type": "uint256"
        }
      ],
      "stateMutability": "view",
      "type": "function"
    },
    {
      "inputs": [
        {
          "internalType": "contract RewardsModule",
          "name": "officialRewardsModule_",
          "type": "address"
        }
      ],
      "name": "setOfficialRewardsModule",
      "outputs": [],
      "stateMutability": "nonpayable",
      "type": "function"
    },
    {
      "inputs": [],
      "name": "setSortedAndTiedProposals",
      "outputs": [],
      "stateMutability": "nonpayable",
      "type": "function"
    },
    {
      "inputs": [],
      "name": "setSortedAndTiedProposalsHasBeenRun",
      "outputs": [
        {
          "internalType": "bool",
          "name": "",
          "type": "bool"
        }
      ],
      "stateMutability": "view",
      "type": "function"
    },
    {
      "inputs": [],
      "name": "sortedProposalIds",
      "outputs": [
        {
          "internalType": "uint256[]",
          "name": "",
          "type": "uint256[]"
        }
      ],
      "stateMutability": "view",
      "type": "function"
    },
    {
      "inputs": [
        {
          "internalType": "bool",
          "name": "excludeDeletedProposals",
          "type": "bool"
        }
      ],
      "name": "sortedProposals",
      "outputs": [
        {
          "internalType": "uint256[]",
          "name": "sortedProposalIdsReturn",
          "type": "uint256[]"
        }
      ],
      "stateMutability": "view",
      "type": "function"
    },
    {
      "inputs": [],
      "name": "state",
      "outputs": [
        {
          "internalType": "enum IGovernor.ContestState",
          "name": "",
          "type": "uint8"
        }
      ],
      "stateMutability": "view",
      "type": "function"
    },
    {
      "inputs": [],
      "name": "submissionMerkleRoot",
      "outputs": [
        {
          "internalType": "bytes32",
          "name": "",
          "type": "bytes32"
        }
      ],
      "stateMutability": "view",
      "type": "function"
    },
    {
      "inputs": [
        {
          "internalType": "bytes4",
          "name": "interfaceId",
          "type": "bytes4"
        }
      ],
      "name": "supportsInterface",
      "outputs": [
        {
          "internalType": "bool",
          "name": "",
          "type": "bool"
        }
      ],
      "stateMutability": "view",
      "type": "function"
    },
    {
      "inputs": [
        {
          "internalType": "uint256",
          "name": "",
          "type": "uint256"
        }
      ],
      "name": "tiedAdjustedRankingPosition",
      "outputs": [
        {
          "internalType": "uint256",
          "name": "",
          "type": "uint256"
        }
      ],
      "stateMutability": "view",
      "type": "function"
    },
    {
      "inputs": [],
      "name": "totalVotesCast",
      "outputs": [
        {
          "internalType": "uint256",
          "name": "",
          "type": "uint256"
        }
      ],
      "stateMutability": "view",
      "type": "function"
    },
    {
      "inputs": [
        {
          "components": [
            {
              "internalType": "address",
              "name": "author",
              "type": "address"
            },
            {
              "internalType": "bool",
              "name": "exists",
              "type": "bool"
            },
            {
              "internalType": "bool",
              "name": "isDeleted",
              "type": "bool"
            },
            {
              "internalType": "string",
              "name": "description",
              "type": "string"
            },
            {
              "components": [
                {
                  "internalType": "address",
                  "name": "targetAddress",
                  "type": "address"
                }
              ],
              "internalType": "struct IGovernor.TargetMetadata",
              "name": "targetMetadata",
              "type": "tuple"
            },
            {
              "components": [
                {
                  "internalType": "address[]",
                  "name": "signers",
                  "type": "address[]"
                },
                {
                  "internalType": "uint256",
                  "name": "threshold",
                  "type": "uint256"
                }
              ],
              "internalType": "struct IGovernor.SafeMetadata",
              "name": "safeMetadata",
              "type": "tuple"
            }
          ],
          "internalType": "struct IGovernor.ProposalCore",
          "name": "proposal",
          "type": "tuple"
        }
      ],
      "name": "validateProposalData",
      "outputs": [
        {
          "internalType": "bool",
          "name": "dataValidated",
          "type": "bool"
        }
      ],
      "stateMutability": "nonpayable",
      "type": "function"
    },
    {
      "inputs": [
        {
          "internalType": "address",
          "name": "account",
          "type": "address"
        },
        {
          "internalType": "bytes32[]",
          "name": "proof",
          "type": "bytes32[]"
        }
      ],
      "name": "verifyProposer",
      "outputs": [
        {
          "internalType": "bool",
          "name": "verified",
          "type": "bool"
        }
      ],
      "stateMutability": "nonpayable",
      "type": "function"
    },
    {
      "inputs": [
        {
          "internalType": "address",
          "name": "account",
          "type": "address"
        },
        {
          "internalType": "uint256",
          "name": "totalVotes",
          "type": "uint256"
        },
        {
          "internalType": "bytes32[]",
          "name": "proof",
          "type": "bytes32[]"
        }
      ],
      "name": "verifyVoter",
      "outputs": [
        {
          "internalType": "bool",
          "name": "verified",
          "type": "bool"
        }
      ],
      "stateMutability": "nonpayable",
      "type": "function"
    },
    {
      "inputs": [],
      "name": "version",
      "outputs": [
        {
          "internalType": "string",
          "name": "",
          "type": "string"
        }
      ],
      "stateMutability": "view",
      "type": "function"
    },
    {
      "inputs": [],
      "name": "voteStart",
      "outputs": [
        {
          "internalType": "uint256",
          "name": "",
          "type": "uint256"
        }
      ],
      "stateMutability": "view",
      "type": "function"
    },
    {
      "inputs": [],
      "name": "votingDelay",
      "outputs": [
        {
          "internalType": "uint256",
          "name": "",
          "type": "uint256"
        }
      ],
      "stateMutability": "view",
      "type": "function"
    },
    {
      "inputs": [],
      "name": "votingMerkleRoot",
      "outputs": [
        {
          "internalType": "bytes32",
          "name": "",
          "type": "bytes32"
        }
      ],
      "stateMutability": "view",
      "type": "function"
    },
    {
      "inputs": [],
      "name": "votingPeriod",
      "outputs": [
        {
          "internalType": "uint256",
          "name": "",
          "type": "uint256"
        }
      ],
      "stateMutability": "view",
      "type": "function"
    },
    {
      "stateMutability": "payable",
      "type": "receive"
    }
  ],
  "bytecode": {
    "object": "0x6101a06040526016805460ff191690553480156200001c57600080fd5b50604051620046d8380380620046d88339810160408190526200003f9162000621565b8060008151811062000055576200005562000732565b60200260200101518160018151811062000073576200007362000732565b60200260200101518260028151811062000091576200009162000732565b602002602001015183600381518110620000af57620000af62000732565b602002602001015184600481518110620000cd57620000cd62000732565b602002602001015185600581518110620000eb57620000eb62000732565b60200260200101518a8a8a8a8181856200010a6200025060201b60201c565b620001178260006200026d565b61012052620001288160016200026d565b61014052815160208084019190912060e052815190820120610100524660a052620001b660e05161010051604080517f8b73c3c69bb8fe3d512ecc4cf759cc79239f7b179b0ffacaa9a75d522b39400f60208201529081019290925260608201524660808201523060a082015260009060c00160405160208183030381529060405280519060200120905090565b60805250503060c05261016091909152610180526006620001d88582620007d7565b506007620001e78482620007d7565b5050505050620001fd86620002a660201b60201c565b6200020885620002e7565b620002138462000328565b6200021e83620003cf565b620002298262000410565b620002348162000451565b6200023f3362000492565b5050505050505050505050620008fd565b604080518082019091526003815262332e3560e81b602082015290565b60006020835110156200028d576200028583620004fb565b9050620002a0565b816200029a8482620007d7565b5060ff90505b92915050565b600c5460408051918252602082018390527fd299feb1d7d9345a48559601c471c3be7eea9a11f21d5e86809198f40a974db4910160405180910390a1600c55565b600d5460408051918252602082018390527fc565b045403dc03c2eea82b81a0465edad9e2e7fc4d97e11421c209da93d7a93910160405180910390a1600d55565b600081116200038e5760405162461bcd60e51b815260206004820152602760248201527f476f7665726e6f7253657474696e67733a20766f74696e6720706572696f6420604482015266746f6f206c6f7760c81b60648201526084015b60405180910390fd5b600e5460408051918252602082018390527f7e3f7f0708a84de9203036abaa450dccc85ad5ff52f78c170f3edb55cf5e8828910160405180910390a1600e55565b600f5460408051918252602082018390527fe971b819c7fb95c72451f557226aceb5baaf4994a9d39a79bbfa0040e87500b9910160405180910390a1600f55565b60105460408051918252602082018390527f4984ec996723330ee95979ed65a2a4b41edd914e68a187efe92596474643bdff910160405180910390a1601055565b60115460408051918252602082018390527f9c7b27f091caef3a83be73d89320404fa0c4a52993685ff0651672e49e6e55ab910160405180910390a1601155565b601254604080516001600160a01b03928316815291831660208301527fc30034fc2e9697980e08935bbc287db3eaa44a4aa113ef4c108b356adbf911ce910160405180910390a1601280546001600160a01b0319166001600160a01b0392909216919091179055565b600080829050601f8151111562000529578260405163305a27a960e01b8152600401620003859190620008a3565b80516200053682620008d8565b179392505050565b634e487b7160e01b600052604160045260246000fd5b604051601f8201601f191681016001600160401b03811182821017156200057f576200057f6200053e565b604052919050565b60005b83811015620005a45781810151838201526020016200058a565b50506000910152565b600082601f830112620005bf57600080fd5b81516001600160401b03811115620005db57620005db6200053e565b620005f0601f8201601f191660200162000554565b8181528460208386010111156200060657600080fd5b6200061982602083016020870162000587565b949350505050565b600080600080600060a086880312156200063a57600080fd5b85516001600160401b03808211156200065257600080fd5b6200066089838a01620005ad565b96506020915081880151818111156200067857600080fd5b620006868a828b01620005ad565b9650506040880151945060608801519350608088015181811115620006aa57600080fd5b8801601f81018a13620006bc57600080fd5b805182811115620006d157620006d16200053e565b8060051b9250620006e484840162000554565b818152928201840192848101908c851115620006ff57600080fd5b928501925b848410156200071f5783518252928501929085019062000704565b8096505050505050509295509295909350565b634e487b7160e01b600052603260045260246000fd5b600181811c908216806200075d57607f821691505b6020821081036200077e57634e487b7160e01b600052602260045260246000fd5b50919050565b601f821115620007d257600081815260208120601f850160051c81016020861015620007ad5750805b601f850160051c820191505b81811015620007ce57828155600101620007b9565b5050505b505050565b81516001600160401b03811115620007f357620007f36200053e565b6200080b8162000804845462000748565b8462000784565b602080601f8311600181146200084357600084156200082a5750858301515b600019600386901b1c1916600185901b178555620007ce565b600085815260208120601f198616915b82811015620008745788860151825594840194600190910190840162000853565b5085821015620008935787850151600019600388901b60f8161c191681555b5050505050600190811b01905550565b6020815260008251806020840152620008c481604085016020870162000587565b601f01601f19169190910160400192915050565b805160208083015191908110156200077e5760001960209190910360031b1b16919050565b60805160a05160c05160e0516101005161012051610140516101605161018051613d5d6200097b60003960008181610a8d0152610f1d01526000818161096501528181610d6f01528181610eb801526118d4015260006114480152600061141e01526000505060005050600050506000505060005050613d5d6000f3fe60806040526004361061039a5760003560e01c8063832009af116101dc578063d45a010b11610102578063e5eb5a48116100a0578063f0a7db0a1161006f578063f0a7db0a14610b91578063f4f3d7ec14610bb1578063fb9bf8d414610bd1578063fc481d7514610be657600080fd5b8063e5eb5a4814610b25578063ea8a1af014610b52578063ebc18b9b14610b67578063efa90d3614610b7c57600080fd5b8063dd96a19d116100dc578063dd96a19d14610a7b578063dea5f6a614610aaf578063deaaa7cc14610adc578063e031535b14610b1057600080fd5b8063d45a010b14610a06578063d889161914610a1b578063dd4e2ba514610a3557600080fd5b8063aec116b61161017a578063bddc164111610149578063bddc164114610953578063c19d93fb14610987578063c7f758a8146109a9578063cb853950146109d657600080fd5b8063aec116b6146108b0578063b323580d146108e6578063bcbd518d14610913578063bd01f12b1461093357600080fd5b80638a9cd550116101b65780638a9cd55014610829578063930de9791461083e57806396f0e9621461086e578063a1ac6cb21461088357600080fd5b8063832009af146107cc57806384b0196e146107e1578063861874881461080957600080fd5b8063419c533c116102c15780635f953a031161025f5780636e4eb8101161022e5780636e4eb81014610763578063785ddfe5146107835780637c65d711146107a15780637de418d5146107b657600080fd5b80635f953a03146106e357806360506ff61461071957806365f162631461072e5780636ca1a2c71461074e57600080fd5b806350a5e5241161029b57806350a5e5241461062a578063531bd8121461064d578063544ffc9c1461066d57806354fd4d50146106b757600080fd5b8063419c533c146105c8578063427d56c2146105e85780634d24a67f1461061557600080fd5b806320b3e84511610339578063347cf66511610308578063347cf6651461054a57806334da4d33146105665780633932abb11461057c5780633b6d199b1461059157600080fd5b806320b3e845146104d55780632399c660146104f5578063262e59e91461051557806332763c221461052a57600080fd5b806302d05d3f1161037557806302d05d3f1461041557806306fdde0314610442578063070dc5d9146104645780631dfa0223146104b557600080fd5b80624114a8146103a857806301ffc9a7146103d057806302a251a31461040057600080fd5b366103a357005b005b600080fd5b3480156103b457600080fd5b506103bd610c06565b6040519081526020015b60405180910390f35b3480156103dc57600080fd5b506103f06103eb3660046130b6565b610c16565b60405190151581526020016103c7565b34801561040c57600080fd5b506103bd610c4d565b34801561042157600080fd5b5061042a610c58565b6040516001600160a01b0390911681526020016103c7565b34801561044e57600080fd5b50610457610c6c565b6040516103c79190613126565b34801561047057600080fd5b506104a861047f366004613139565b601560209081526000918252604091829020825180840190935280548352600101549082015281565b6040516103c79190613152565b3480156104c157600080fd5b506103bd6104d03660046134ba565b610cfe565b3480156104e157600080fd5b506103f06104f0366004613522565b610d4d565b34801561050157600080fd5b506103f0610510366004613139565b610de2565b34801561052157600080fd5b506103bd610e1d565b34801561053657600080fd5b506103f0610545366004613569565b610e39565b34801561055657600080fd5b506103bd678ac7230489e8000081565b34801561057257600080fd5b506103bd600b5481565b34801561058857600080fd5b506103bd610f76565b34801561059d57600080fd5b506103f06105ac366004613139565b600090815260096020526040902054600160a81b900460ff1690565b3480156105d457600080fd5b506103bd6105e33660046135ea565b610f81565b3480156105f457600080fd5b5061060861060336600461365a565b610fb9565b6040516103c791906136b0565b34801561062157600080fd5b506103bd600281565b34801561063657600080fd5b5061063f611151565b6040516103c79291906136c3565b34801561065957600080fd5b506103f061066836600461372c565b611257565b34801561067957600080fd5b506106a2610688366004613139565b600090815260156020526040902080546001909101549091565b604080519283526020830191909152016103c7565b3480156106c357600080fd5b50604080518082019091526003815262332e3560e81b6020820152610457565b3480156106ef57600080fd5b506103bd6106fe366004613787565b6001600160a01b03166000908152600a602052604090205490565b34801561072557600080fd5b506103bd6112c2565b34801561073a57600080fd5b506103bd6107493660046137a4565b6112cd565b34801561075a57600080fd5b506103bd611395565b34801561076f57600080fd5b506106a261077e3660046137d9565b6113c1565b34801561078f57600080fd5b50601c546001600160a01b031661042a565b3480156107ad57600080fd5b506104576113f6565b3480156107c257600080fd5b506103bd60135481565b3480156107d857600080fd5b506103bd611405565b3480156107ed57600080fd5b506107f6611410565b6040516103c79796959493929190613809565b34801561081557600080fd5b506103bd610824366004613139565b611498565b34801561083557600080fd5b506106086114d0565b34801561084a57600080fd5b506103f0610859366004613787565b60036020526000908152604090205460ff1681565b34801561087a57600080fd5b506103a161154a565b34801561088f57600080fd5b506103bd61089e366004613787565b60146020526000908152604090205481565b3480156108bc57600080fd5b506103bd6108cb366004613787565b6001600160a01b031660009081526014602052604090205490565b3480156108f257600080fd5b50610906610901366004613139565b61185e565b6040516103c791906138b2565b34801561091f57600080fd5b506103bd61092e3660046138c5565b6118d0565b34801561093f57600080fd5b506103f061094e3660046138c5565b61193a565b34801561095f57600080fd5b506103bd7f000000000000000000000000000000000000000000000000000000000000000081565b34801561099357600080fd5b5061099c611bc5565b6040516103c79190613917565b3480156109b557600080fd5b506109c96109c4366004613139565b611c37565b6040516103c7919061393f565b3480156109e257600080fd5b506103f06109f1366004613787565b60046020526000908152604090205460ff1681565b348015610a1257600080fd5b5061063f611e0b565b348015610a2757600080fd5b506016546103f09060ff1681565b348015610a4157600080fd5b5060408051808201909152601881527f737570706f72743d627261766f2671756f72756d3d666f7200000000000000006020820152610457565b348015610a8757600080fd5b506103bd7f000000000000000000000000000000000000000000000000000000000000000081565b348015610abb57600080fd5b506103bd610aca366004613787565b60026020526000908152604090205481565b348015610ae857600080fd5b506103bd7f150214d74d59b7d1e90c73fc22ef3d991dd0a76b046543d4d80ab92d2a50328f81565b348015610b1c57600080fd5b506103bd611fde565b348015610b3157600080fd5b506103bd610b40366004613139565b60176020526000908152604090205481565b348015610b5e57600080fd5b506103a1611ff0565b348015610b7357600080fd5b506103bd6120da565b348015610b8857600080fd5b50610608612106565b348015610b9d57600080fd5b506103a1610bac3660046139d1565b61215c565b348015610bbd57600080fd5b506103a1610bcc366004613787565b612385565b348015610bdd57600080fd5b506103bd612420565b348015610bf257600080fd5b506103bd610c013660046138c5565b61242b565b6000610c11600c5490565b905090565b60006001600160e01b03198216630dd1d76b60e21b1480610c4757506301ffc9a760e01b6001600160e01b03198316145b92915050565b6000610c11600e5490565b6000610c116012546001600160a01b031690565b606060068054610c7b90613a61565b80601f0160208091040260200160405190810160405280929190818152602001828054610ca790613a61565b8015610cf45780601f10610cc957610100808354040283529160200191610cf4565b820191906000526020600020905b815481529060010190602001808311610cd757829003601f168201915b5050505050905090565b6000610d0b338484610d4d565b610d305760405162461bcd60e51b8152600401610d2790613a9b565b60405180910390fd5b610d398461193a565b50610d438461245c565b90505b9392505050565b6001600160a01b03831660009081526004602052604081205460ff16610dd8577f0000000000000000000000000000000000000000000000000000000000000000600003610d9d57506001610d46565b610db384678ac7230489e8000085856000610e39565b506001600160a01b0384166000908152600460205260409020805460ff191660011790555b5060019392505050565b60165460009060ff16610e075760405162461bcd60e51b8152600401610d2790613aea565b5060009081526018602052604090205460ff1690565b6000610e27610c4d565b610e2f611fde565b610c119190613b6b565b6040516bffffffffffffffffffffffff19606087901b166020820152603481018590526000908190605401604051602081830303815290604052805190602001209050600083610ee857610ee38686808060200260200160405190810160405280939291908181526020018383602002808284376000920191909152507f000000000000000000000000000000000000000000000000000000000000000092508691506128129050565b610f48565b610f488686808060200260200160405190810160405280939291908181526020018383602002808284376000920191909152507f000000000000000000000000000000000000000000000000000000000000000092508691506128129050565b905080610f685760405163452c2df160e11b815260040160405180910390fd5b506001979650505050505050565b6000610c11600d5490565b600033610f9081878686611257565b50610fad8882898860405180602001604052806000815250612828565b98975050505050505050565b606060008083610fd057610fcb611151565b610fd8565b610fd8611e0b565b9150915060008251116110485760405162461bcd60e51b815260206004820152603260248201527f476f7665726e6f72536f7274696e673a2063616e6e6f7420736f72742061206c6044820152710d2e6e840decc40f4cae4de40d8cadccee8d60731b6064820152608401610d27565b600082516001600160401b0381111561106357611063613169565b60405190808252806020026020018201604052801561108c578160200160208202803683370190505b50905060005b8251811015611110578281815181106110ad576110ad613b7e565b6020026020010151602001518382815181106110cb576110cb613b7e565b6020026020010151600001516110e19190613b94565b8282815181106110f3576110f3613b7e565b60209081029190910101528061110881613bbb565b915050611092565b5060005b600184516111229190613bd4565b81101561114757611134818386612a42565b508061113f81613bbb565b915050611114565b5091949350505050565b606080600061115e612106565b9050600081516001600160401b0381111561117b5761117b613169565b6040519080825280602002602001820160405280156111c057816020015b60408051808201909152600080825260208201528152602001906001900390816111995790505b50905060005b825181101561124d57601560008483815181106111e5576111e5613b7e565b602002602001015181526020019081526020016000206000016040518060400160405290816000820154815260200160018201548152505082828151811061122f5761122f613b7e565b6020026020010181905250808061124590613bbb565b9150506111c6565b5090939092509050565b6001600160a01b03841660009081526003602052604081205460ff166112b757611285858585856001610e39565b506001600160a01b038516600090815260026020908152604080832087905560039091529020805460ff191660011790555b506001949350505050565b6000610c1160115490565b3360008181526003602052604081205490919060ff166113705760405162461bcd60e51b815260206004820152605260248201527f476f7665726e6f723a20796f75206e65656420746f2063617374206120766f7460448201527f652077697468207468652070726f6f66206174206c65617374206f6e636520616064820152711b99081e5bdd481a185d995b89dd081e595d60721b608482015260a401610d27565b61138c8582868660405180602001604052806000815250612828565b95945050505050565b60165460009060ff166113ba5760405162461bcd60e51b8152600401610d2790613aea565b50601a5490565b60008281526015602090815260408083206001600160a01b0385168452600301909152902080546001909101545b9250929050565b606060078054610c7b90613a61565b6000610c11600f5490565b6000606080828080836114437f000000000000000000000000000000000000000000000000000000000000000083612ba8565b61146e7f00000000000000000000000000000000000000000000000000000000000000006001612ba8565b60408051600080825260208201909252600f60f81b9b939a50919850469750309650945092509050565b60165460009060ff166114bd5760405162461bcd60e51b8152600401610d2790613aea565b5060009081526017602052604090205490565b60165460609060ff166114f55760405162461bcd60e51b8152600401610d2790613aea565b6019805480602002602001604051908101604052809291908181526020018280548015610cf457602002820191906000526020600020905b81548152602001906001019080831161152d575050505050905090565b6004611554611bc5565b600481111561156557611565613901565b146115e85760405162461bcd60e51b815260206004820152604760248201527f476f7665726e6f72536f7274696e673a20636f6e74657374206d75737420626560448201527f20746f2063616c63756c61746520736f7274656420616e6420746965642070726064820152666f706f73616c7360c81b608482015260a401610d27565b60165460ff16156116875760405162461bcd60e51b815260206004820152605f60248201527f476f7665726e6f72536f7274696e673a20736574536f72746564416e6454696560448201527f6450726f706f73616c7328292068617320616c7265616479206265656e20727560648201527f6e20616e642069747320726573706563746976652076616c7565732073657400608482015260a401610d27565b6116916001610fb9565b80516116a591601991602090910190613001565b506019546000906001906116b99082613b6b565b601b5560005b60195481101561184c576019546000906116db90600190613bd4565b905060008061172460196116ef8686613bd4565b815481106116ff576116ff613b7e565b9060005260206000200154600090815260156020526040902080546001909101549091565b909250905060006117358284613b94565b90508460000361177657601954909650869060010361176d576117588585613bd4565b600087815260176020526040902055601a8690555b5050505061183a565b8681036117c95760008681526018602052604090205460ff166117ad576000868152601860205260409020805460ff191660011790555b6019546117bb906001613b6b565b601b54036117c957601b8690555b868114611802576117da8585613bd4565b6117e5906001613b6b565b600087815260176020526040902055856117fe81613bbb565b9650505b601954611810866001613b6b565b036118345761181f8585613bd4565b600087815260176020526040902055601a8690555b95505050505b8061184481613bbb565b9150506116bf565b50506016805460ff1916600117905550565b60008181526015602090815260409182902060028101805484518185028101850190955280855260609492938301828280156118c357602002820191906000526020600020905b81546001600160a01b031681526001909101906020018083116118a5575b5050505050915050919050565b60007f000000000000000000000000000000000000000000000000000000000000000015611927573360009081526004602052604090205460ff166119275760405162461bcd60e51b8152600401610d2790613a9b565b6119308261193a565b50610c478261245c565b80516000906001600160a01b031633146119af5760405162461bcd60e51b815260206004820152603060248201527f476f7665726e6f723a207468652070726f706f73616c20617574686f72206d7560448201526f39ba1031329036b9b39739b2b73232b960811b6064820152608401610d27565b60005b6002811015611b675760008160018111156119cf576119cf613901565b905060008160018111156119e5576119e5613901565b036119f05750611b55565b6001816001811115611a0457611a04613901565b03611b3a5760a08401515151600003611a965760405162461bcd60e51b815260206004820152604860248201527f476f7665726e6f724d6574616461746156616c69646174696f6e3a207468657260448201527f652063616e6e6f74206265207a65726f207369676e65727320696e20736166656064820152674d6574616461746160c01b608482015260a401610d27565b8360a0015160200151600003611b225760405162461bcd60e51b8152602060048201526044602482018190527f476f7665726e6f724d6574616461746156616c69646174696f6e3a2074687265908201527f73686f6c642063616e6e6f74206265207a65726f20696e20736166654d6574616064820152636461746160e01b608482015260a401610d27565b60a08401515151600003611b3557600080fd5b611b53565b6040516308b6566d60e11b815260040160405180910390fd5b505b80611b5f81613bbb565b9150506119b2565b50816060015151600003611bbd5760405162461bcd60e51b815260206004820152601860248201527f476f7665726e6f723a20656d7074792070726f706f73616c00000000000000006044820152606401610d27565b506001919050565b60085460009060ff1615611bd95750600290565b6000611be3610c06565b9050428110611bf457600091505090565b6000611bfe611fde565b9050428110611c105760039250505090565b6000611c1a610e1d565b9050428110611c2d576001935050505090565b6004935050505090565b611c846040805160c081018252600080825260208083018290528284018290526060808401819052845180830186528381526080850152845180860190955284528301529060a082015290565b600082815260096020908152604091829020825160c08101845281546001600160a01b038116825260ff600160a01b82048116151594830194909452600160a81b9004909216151592820192909252600182018054919291606084019190611ceb90613a61565b80601f0160208091040260200160405190810160405280929190818152602001828054611d1790613a61565b8015611d645780601f10611d3957610100808354040283529160200191611d64565b820191906000526020600020905b815481529060010190602001808311611d4757829003601f168201915b5050509183525050604080516020818101835260028501546001600160a01b03168252808401919091528151600385018054606093810283018401855282850181815294909501949193909284928491840182828015611ded57602002820191906000526020600020905b81546001600160a01b03168152600190910190602001808311611dcf575b50505050508152602001600182015481525050815250509050919050565b6060806000611e18612106565b9050600081516001600160401b03811115611e3557611e35613169565b604051908082528060200260200182016040528015611e5e578160200160208202803683370190505b509050600082516001600160401b03811115611e7c57611e7c613169565b604051908082528060200260200182016040528015611ec157816020015b6040805180820190915260008082526020820152815260200190600190039081611e9a5790505b5090506000805b8451811015611fd257611f0b858281518110611ee657611ee6613b7e565b602002602001015160009081526009602052604090205460ff600160a81b9091041690565b611fc057848181518110611f2157611f21613b7e565b6020026020010151848381518110611f3b57611f3b613b7e565b60200260200101818152505060156000868381518110611f5d57611f5d613b7e565b6020026020010151815260200190815260200160002060000160405180604001604052908160008201548152602001600182015481525050838381518110611fa757611fa7613b7e565b6020908102919091010152611fbd600183613b6b565b91505b80611fca81613bbb565b915050611ec8565b50919590945092505050565b6000611fe8610f76565b610e2f610c06565b611ff8610c58565b6001600160a01b0316336001600160a01b03161461201557600080fd5b600061201f611bc5565b9050600281600481111561203557612035613901565b141580156120555750600481600481111561205257612052613901565b14155b6120a15760405162461bcd60e51b815260206004820152601c60248201527f476f7665726e6f723a20636f6e74657374206e6f7420616374697665000000006044820152606401610d27565b6008805460ff191660011790556040517f4cd963a081760a54f571abc0f1db4dde31b4a07d8d6da3e844b8c6f47eeaaa4290600090a150565b60165460009060ff166120ff5760405162461bcd60e51b8152600401610d2790613aea565b50601b5490565b60606005805480602002602001604051908101604052809291908181526020018280548015610cf4576020028201919060005260206000209081548152602001906001019080831161152d575050505050905090565b612164610c58565b6001600160a01b0316336001600160a01b0316146121ea5760405162461bcd60e51b815260206004820152603760248201527f476f7665726e6f723a206f6e6c792074686520636f6e7465737420637265617460448201527f6f722063616e2064656c6574652070726f706f73616c730000000000000000006064820152608401610d27565b60046121f4611bc5565b600481111561220557612205613901565b0361228a5760405162461bcd60e51b815260206004820152604960248201527f476f7665726e6f723a2064656c6574696f6e206f662070726f706f73616c732060448201527f61667465722074686520656e64206f66206120636f6e74657374206973206e6f6064820152681d08185b1b1bddd95960ba1b608482015260a401610d27565b60005b815181101561234a57600960008383815181106122ac576122ac613b7e565b6020026020010151815260200190815260200160002060000160159054906101000a900460ff16612338576001600960008484815181106122ef576122ef613b7e565b6020026020010151815260200190815260200160002060000160156101000a81548160ff0219169083151502179055506001600b60008282546123329190613b6b565b90915550505b8061234281613bbb565b91505061228d565b507f75a75cf5c561892f4cc5b26c1b8e933849b42238c96dd073d080d1ae96c514168160405161237a91906136b0565b60405180910390a150565b61238d610c58565b6001600160a01b0316336001600160a01b0316146123aa57600080fd5b60006123be601c546001600160a01b031690565b601c80546001600160a01b0319166001600160a01b0385811691821790925560408051928416835260208301919091529192507f753a2cf8d360cff631674504210913e48247f8e56b3e6d2006c2103d4095999f910160405180910390a15050565b6000610c1160105490565b60008160405160200161243e919061393f565b60408051601f19818403018152919052805160209091012092915050565b60006003612468611bc5565b600481111561247957612479613901565b146124ec5760405162461bcd60e51b815260206004820152603e60248201527f476f7665726e6f723a20636f6e74657374206d7573742062652071756575656460448201527f20666f722070726f706f73616c7320746f206265207375626d697474656400006064820152608401610d27565b6124f4611405565b336000908152600a6020526040902054106125ab5760405162461bcd60e51b815260206004820152606560248201527f476f7665726e6f723a207468652073616d6520616464726573732063616e6e6f60448201527f74207375626d6974206d6f7265207468616e20746865206e756d416c6c6f776560648201527f6450726f706f73616c5375626d697373696f6e7320666f72207468697320636f6084820152641b9d195cdd60da1b60a482015260c401610d27565b6125b3612420565b600b546005546125c39190613bd4565b106126365760405162461bcd60e51b815260206004820152603960248201527f476f7665726e6f723a20746865206d6178206e756d626572206f662070726f7060448201527f6f73616c732068617665206265656e207375626d6974746564000000000000006064820152608401610d27565b60006126418361242b565b600081815260096020526040902054909150600160a01b900460ff16156126bc5760405162461bcd60e51b815260206004820152602960248201527f476f7665726e6f723a206475706c69636174652070726f706f73616c73206e6f6044820152681d08185b1b1bddd95960ba1b6064820152608401610d27565b6005805460018181019092557f036b6384b5eca791c62761152d0c79bb0604c104a5fb6f4eb0703f3154bb3db0018290556000828152600960209081526040918290208651815492880151938801511515600160a81b0260ff60a81b19941515600160a01b026001600160a81b03199094166001600160a01b039092169190911792909217929092161781556060850151859282019061275c9082613c36565b506080820151516002820180546001600160a01b0319166001600160a01b0390921691909117905560a08201518051805160038401916127a19183916020019061304c565b50602091820151600191820155336000908152600a90925260408220805491945092506127cf908490613b6b565b9091555050604080518281523360208201527fcd423cc1203c0af96b9b3d68d73b3064a69de2d14450bb7181c5e5df2132b358910160405180910390a192915050565b60008261281f8584612c54565b14949350505050565b60006001612834611bc5565b600481111561284557612845613901565b1461289e5760405162461bcd60e51b815260206004820152602360248201527f476f7665726e6f723a20766f7465206e6f742063757272656e746c792061637460448201526269766560e81b6064820152608401610d27565b600083116129025760405162461bcd60e51b815260206004820152602b60248201527f476f7665726e6f723a2063616e6e6f7420766f746520776974682030206f722060448201526a666577657220766f74657360a81b6064820152608401610d27565b6001600160a01b03851660009081526003602052604090205460ff166129a85760405162461bcd60e51b815260206004820152604f60248201527f476f7665726e6f723a20796f75206e65656420746f2076657269667920796f7560448201527f72206e756d626572206f6620766f74657320616761696e737420746865206d6560648201526e1c9adb19481c9bdbdd08199a5c9cdd608a1b608482015260a401610d27565b6129da86868686600260008b6001600160a01b03166001600160a01b0316815260200190815260200160002054612ca1565b846001600160a01b03167fb8e138887d0aa13bab447e82de9d5c1777041ecd21ca36ba824ff1e6c07ddda487868686604051612a199493929190613cf5565b60405180910390a2505050506001600160a01b0316600090815260026020526040902054919050565b600083805b8451811015612aa057848281518110612a6257612a62613b7e565b6020026020010151858281518110612a7c57612a7c613b7e565b60200260200101511215612a8e578091505b80612a9881613bbb565b915050612a47565b50848103612ab2576000915050610d46565b6000848681518110612ac657612ac6613b7e565b60200260200101519050848281518110612ae257612ae2613b7e565b6020026020010151858781518110612afc57612afc613b7e565b60200260200101818152505080858381518110612b1b57612b1b613b7e565b6020026020010181815250506000848781518110612b3b57612b3b613b7e565b60200260200101519050848381518110612b5757612b57613b7e565b6020026020010151858881518110612b7157612b71613b7e565b60200260200101818152505080858481518110612b9057612b90613b7e565b60209081029190910101525060019695505050505050565b606060ff8314612bc257612bbb83612f6e565b9050610c47565b818054612bce90613a61565b80601f0160208091040260200160405190810160405280929190818152602001828054612bfa90613a61565b8015612c475780601f10612c1c57610100808354040283529160200191612c47565b820191906000526020600020905b815481529060010190602001808311612c2a57829003601f168201915b5050505050905092915050565b600081815b8451811015612c9957612c8582868381518110612c7857612c78613b7e565b6020026020010151612fad565b915080612c9181613bbb565b915050612c59565b509392505050565b60008581526015602090815260408083206001600160a01b0388168452601490925290912054612cd19083613bd4565b831115612d3c5760405162461bcd60e51b815260206004820152603360248201527f476f7665726e6f72566f74696e6753696d706c653a206e6f7420656e6f756768604482015272081d9bdd195cc81b19599d081d1bc818d85cdd606a1b6064820152608401610d27565b6001600160a01b03851660009081526003820160205260409020541560ff8516612dae57815484908390600090612d74908490613b6b565b90915550506001600160a01b038616600090815260038301602052604081208054869290612da3908490613b6b565b90915550612ee89050565b60001960ff861601612e8257612dc26112c2565b600114612e39576040805162461bcd60e51b81526020600482015260248101919091527f476f7665726e6f72566f74696e6753696d706c653a20646f776e766f74696e6760448201527f206973206e6f7420656e61626c656420666f72207468697320436f6e746573746064820152608401610d27565b83826000016001016000828254612e509190613b6b565b90915550506001600160a01b038616600090815260038301602052604081206001018054869290612da3908490613b6b565b60405162461bcd60e51b815260206004820152603560248201527f476f7665726e6f72566f74696e6753696d706c653a20696e76616c69642076616044820152746c756520666f7220656e756d20566f74655479706560581b6064820152608401610d27565b8015612f1f57600282018054600181018255600091825260209091200180546001600160a01b0319166001600160a01b0388161790555b6001600160a01b03861660009081526014602052604081208054869290612f47908490613b6b565b925050819055508360136000828254612f609190613b6b565b909155505050505050505050565b60606000612f7b83612fd9565b604080516020808252818301909252919250600091906020820181803683375050509182525060208101929092525090565b6000818310612fc9576000828152602084905260409020610d46565b5060009182526020526040902090565b600060ff8216601f811115610c4757604051632cd44ac360e21b815260040160405180910390fd5b82805482825590600052602060002090810192821561303c579160200282015b8281111561303c578251825591602001919060010190613021565b506130489291506130a1565b5090565b82805482825590600052602060002090810192821561303c579160200282015b8281111561303c57825182546001600160a01b0319166001600160a01b0390911617825560209092019160019091019061306c565b5b8082111561304857600081556001016130a2565b6000602082840312156130c857600080fd5b81356001600160e01b031981168114610d4657600080fd5b6000815180845260005b81811015613106576020818501810151868301820152016130ea565b506000602082860101526020601f19601f83011685010191505092915050565b602081526000610d4660208301846130e0565b60006020828403121561314b57600080fd5b5035919050565b815181526020808301519082015260408101610c47565b634e487b7160e01b600052604160045260246000fd5b604080519081016001600160401b03811182821017156131a1576131a1613169565b60405290565b60405160c081016001600160401b03811182821017156131a1576131a1613169565b604051601f8201601f191681016001600160401b03811182821017156131f1576131f1613169565b604052919050565b6001600160a01b038116811461320e57600080fd5b50565b803561321c816131f9565b919050565b8035801515811461321c57600080fd5b600082601f83011261324257600080fd5b81356001600160401b0381111561325b5761325b613169565b61326e601f8201601f19166020016131c9565b81815284602083860101111561328357600080fd5b816020850160208301376000918101602001919091529392505050565b6000602082840312156132b257600080fd5b604051602081018181106001600160401b03821117156132d4576132d4613169565b60405290508082356132e5816131f9565b905292915050565b60006001600160401b0382111561330657613306613169565b5060051b60200190565b60006040828403121561332257600080fd5b61332a61317f565b905081356001600160401b0381111561334257600080fd5b8201601f8101841361335357600080fd5b80356020613368613363836132ed565b6131c9565b82815260059290921b8301810191818101908784111561338757600080fd5b938201935b838510156133ae57843561339f816131f9565b8252938201939082019061338c565b85525093840135938301939093525092915050565b600060c082840312156133d557600080fd5b6133dd6131a7565b90506133e882613211565b81526133f660208301613221565b602082015261340760408301613221565b604082015260608201356001600160401b038082111561342657600080fd5b61343285838601613231565b606084015261344485608086016132a0565b608084015260a084013591508082111561345d57600080fd5b5061346a84828501613310565b60a08301525092915050565b60008083601f84011261348857600080fd5b5081356001600160401b0381111561349f57600080fd5b6020830191508360208260051b85010111156113ef57600080fd5b6000806000604084860312156134cf57600080fd5b83356001600160401b03808211156134e657600080fd5b6134f2878388016133c3565b9450602086013591508082111561350857600080fd5b5061351586828701613476565b9497909650939450505050565b60008060006040848603121561353757600080fd5b8335613542816131f9565b925060208401356001600160401b0381111561355d57600080fd5b61351586828701613476565b60008060008060006080868803121561358157600080fd5b853561358c816131f9565b94506020860135935060408601356001600160401b038111156135ae57600080fd5b6135ba88828901613476565b90945092506135cd905060608701613221565b90509295509295909350565b803560ff8116811461321c57600080fd5b60008060008060008060a0878903121561360357600080fd5b86359550613613602088016135d9565b9450604087013593506060870135925060808701356001600160401b0381111561363c57600080fd5b61364889828a01613476565b979a9699509497509295939492505050565b60006020828403121561366c57600080fd5b610d4682613221565b600081518084526020808501945080840160005b838110156136a557815187529582019590820190600101613689565b509495945050505050565b602081526000610d466020830184613675565b600060408083526136d681840186613675565b83810360208581019190915285518083528682019282019060005b8181101561371e5761370e83865180518252602090810151910152565b93830193918501916001016136f1565b509098975050505050505050565b6000806000806060858703121561374257600080fd5b843561374d816131f9565b93506020850135925060408501356001600160401b0381111561376f57600080fd5b61377b87828801613476565b95989497509550505050565b60006020828403121561379957600080fd5b8135610d46816131f9565b6000806000606084860312156137b957600080fd5b833592506137c9602085016135d9565b9150604084013590509250925092565b600080604083850312156137ec57600080fd5b8235915060208301356137fe816131f9565b809150509250929050565b60ff60f81b8816815260e06020820152600061382860e08301896130e0565b828103604084015261383a81896130e0565b606084018890526001600160a01b038716608085015260a0840186905283810360c0850152905061386b8185613675565b9a9950505050505050505050565b600081518084526020808501945080840160005b838110156136a55781516001600160a01b03168752958201959082019060010161388d565b602081526000610d466020830184613879565b6000602082840312156138d757600080fd5b81356001600160401b038111156138ed57600080fd5b6138f9848285016133c3565b949350505050565b634e487b7160e01b600052602160045260246000fd5b602081016005831061393957634e487b7160e01b600052602160045260246000fd5b91905290565b60208152600060018060a01b03808451166020840152602084015115156040840152604084015115156060840152606084015160c0608085015261398660e08501826130e0565b9050816080860151511660a085015260a08501519150601f198482030160c08501528151604082526139bb6040830182613879565b6020938401519290930191909152509392505050565b600060208083850312156139e457600080fd5b82356001600160401b038111156139fa57600080fd5b8301601f81018513613a0b57600080fd5b8035613a19613363826132ed565b81815260059190911b82018301908381019087831115613a3857600080fd5b928401925b82841015613a5657833582529284019290840190613a3d565b979650505050505050565b600181811c90821680613a7557607f821691505b602082108103613a9557634e487b7160e01b600052602260045260246000fd5b50919050565b6020808252602f908201527f476f7665726e6f723a2061646472657373206973206e6f74207065726d69737360408201526e1a5bdb9959081d1bc81cdd589b5a5d608a1b606082015260800190565b60208082526045908201527f526577617264734d6f64756c653a2072756e20736574536f72746564416e645460408201527f69656450726f706f73616c73282920746f20706f70756c61746520746869732060608201526476616c756560d81b608082015260a00190565b634e487b7160e01b600052601160045260246000fd5b80820180821115610c4757610c47613b55565b634e487b7160e01b600052603260045260246000fd5b8181036000831280158383131683831282161715613bb457613bb4613b55565b5092915050565b600060018201613bcd57613bcd613b55565b5060010190565b81810381811115610c4757610c47613b55565b601f821115613c3157600081815260208120601f850160051c81016020861015613c0e5750805b601f850160051c820191505b81811015613c2d57828155600101613c1a565b5050505b505050565b81516001600160401b03811115613c4f57613c4f613169565b613c6381613c5d8454613a61565b84613be7565b602080601f831160018114613c985760008415613c805750858301515b600019600386901b1c1916600185901b178555613c2d565b600085815260208120601f198616915b82811015613cc757888601518255948401946001909101908401613ca8565b5085821015613ce55787850151600019600388901b60f8161c191681555b5050505050600190811b01905550565b84815260ff84166020820152826040820152608060608201526000613d1d60808301846130e0565b969550505050505056fea26469706673582212209b08663c99dac4958bdf1f6cae78f8610869445a7c962f9ffd67c22dbe617a0a64736f6c63430008130033",
    "linkReferences": {}
  },
  "methodIdentifiers": {
    "AMOUNT_FOR_SUMBITTER_PROOF()": "347cf665",
    "BALLOT_TYPEHASH()": "deaaa7cc",
    "COUNTING_MODE()": "dd4e2ba5",
    "METADATAS_COUNT()": "4d24a67f",
    "_numDeletedProposals()": "34da4d33",
    "addressSubmitterVerified(address)": "cb853950",
    "addressTotalCastVoteCounts(address)": "a1ac6cb2",
    "addressTotalVotes(address)": "dea5f6a6",
    "addressTotalVotesVerified(address)": "930de979",
    "allProposalTotalVotes()": "50a5e524",
    "allProposalTotalVotesWithoutDeleted()": "d45a010b",
    "cancel()": "ea8a1af0",
    "castVote(uint256,uint8,uint256,uint256,bytes32[])": "419c533c",
    "castVoteWithoutProof(uint256,uint8,uint256)": "65f16263",
    "checkProof(address,uint256,bytes32[],bool)": "32763c22",
    "contestAddressTotalVotesCast(address)": "aec116b6",
    "contestDeadline()": "262e59e9",
    "contestStart()": "004114a8",
    "creator()": "02d05d3f",
    "deleteProposals(uint256[])": "f0a7db0a",
    "downvotingAllowed()": "60506ff6",
    "eip712Domain()": "84b0196e",
    "getAllProposalIds()": "efa90d36",
    "getNumSubmissions(address)": "5f953a03",
    "getProposal(uint256)": "c7f758a8",
    "hashProposal((address,bool,bool,string,(address),(address[],uint256)))": "fc481d75",
    "highestTiedRanking()": "ebc18b9b",
    "isProposalDeleted(uint256)": "3b6d199b",
    "isTied(uint256)": "2399c660",
    "lowestRanking()": "6ca1a2c7",
    "maxProposalCount()": "fb9bf8d4",
    "name()": "06fdde03",
    "numAllowedProposalSubmissions()": "832009af",
    "officialRewardsModule()": "785ddfe5",
    "prompt()": "7c65d711",
    "proposalAddressVotes(uint256,address)": "6e4eb810",
    "proposalAddressesHaveVoted(uint256)": "b323580d",
    "proposalVotes(uint256)": "544ffc9c",
    "proposalVotesStructs(uint256)": "070dc5d9",
    "propose((address,bool,bool,string,(address),(address[],uint256)),bytes32[])": "1dfa0223",
    "proposeWithoutProof((address,bool,bool,string,(address),(address[],uint256)))": "bcbd518d",
    "rankingPosition(uint256)": "86187488",
    "setOfficialRewardsModule(address)": "f4f3d7ec",
    "setSortedAndTiedProposals()": "96f0e962",
    "setSortedAndTiedProposalsHasBeenRun()": "d8891619",
    "sortedProposalIds()": "8a9cd550",
    "sortedProposals(bool)": "427d56c2",
    "state()": "c19d93fb",
    "submissionMerkleRoot()": "bddc1641",
    "supportsInterface(bytes4)": "01ffc9a7",
    "tiedAdjustedRankingPosition(uint256)": "e5eb5a48",
    "totalVotesCast()": "7de418d5",
    "validateProposalData((address,bool,bool,string,(address),(address[],uint256)))": "bd01f12b",
    "verifyProposer(address,bytes32[])": "20b3e845",
    "verifyVoter(address,uint256,bytes32[])": "531bd812",
    "version()": "54fd4d50",
    "voteStart()": "e031535b",
    "votingDelay()": "3932abb1",
    "votingMerkleRoot()": "dd96a19d",
    "votingPeriod()": "02a251a3"
  },
  "id": 40
}