{"abi":[{"type":"constructor","inputs":[{"name":"payees_","type":"uint256[]","internalType":"uint256[]"},{"name":"shares_","type":"uint256[]","internalType":"uint256[]"},{"name":"underlyingContest_","type":"address","internalType":"contract GovernorCountingSimple"},{"name":"paysOutTarget_","type":"bool","internalType":"bool"}],"stateMutability":"payable"},{"type":"receive","stateMutability":"payable"},{"type":"function","name":"cancel","inputs":[],"outputs":[],"stateMutability":"nonpayable"},{"type":"function","name":"canceled","inputs":[],"outputs":[{"name":"","type":"bool","internalType":"bool"}],"stateMutability":"view"},{"type":"function","name":"creator","inputs":[],"outputs":[{"name":"","type":"address","internalType":"address"}],"stateMutability":"view"},{"type":"function","name":"erc20Released","inputs":[{"name":"","type":"address","internalType":"contract IERC20"},{"name":"","type":"uint256","internalType":"uint256"}],"outputs":[{"name":"","type":"uint256","internalType":"uint256"}],"stateMutability":"view"},{"type":"function","name":"erc20TotalReleased","inputs":[{"name":"","type":"address","internalType":"contract IERC20"}],"outputs":[{"name":"","type":"uint256","internalType":"uint256"}],"stateMutability":"view"},{"type":"function","name":"getAddressToPayOut","inputs":[{"name":"ranking","type":"uint256","internalType":"uint256"}],"outputs":[{"name":"","type":"address","internalType":"address"}],"stateMutability":"view"},{"type":"function","name":"getPayees","inputs":[],"outputs":[{"name":"","type":"uint256[]","internalType":"uint256[]"}],"stateMutability":"view"},{"type":"function","name":"getUnderlyingContest","inputs":[],"outputs":[{"name":"","type":"address","internalType":"contract GovernorCountingSimple"}],"stateMutability":"view"},{"type":"function","name":"payees","inputs":[{"name":"","type":"uint256","internalType":"uint256"}],"outputs":[{"name":"","type":"uint256","internalType":"uint256"}],"stateMutability":"view"},{"type":"function","name":"paysOutTarget","inputs":[],"outputs":[{"name":"","type":"bool","internalType":"bool"}],"stateMutability":"view"},{"type":"function","name":"releasable","inputs":[{"name":"token","type":"address","internalType":"contract IERC20"},{"name":"ranking","type":"uint256","internalType":"uint256"}],"outputs":[{"name":"","type":"uint256","internalType":"uint256"}],"stateMutability":"view"},{"type":"function","name":"releasable","inputs":[{"name":"ranking","type":"uint256","internalType":"uint256"}],"outputs":[{"name":"","type":"uint256","internalType":"uint256"}],"stateMutability":"view"},{"type":"function","name":"release","inputs":[{"name":"token","type":"address","internalType":"contract IERC20"},{"name":"ranking","type":"uint256","internalType":"uint256"}],"outputs":[],"stateMutability":"nonpayable"},{"type":"function","name":"release","inputs":[{"name":"ranking","type":"uint256","internalType":"uint256"}],"outputs":[],"stateMutability":"nonpayable"},{"type":"function","name":"released","inputs":[{"name":"","type":"uint256","internalType":"uint256"}],"outputs":[{"name":"","type":"uint256","internalType":"uint256"}],"stateMutability":"view"},{"type":"function","name":"runReleaseChecks","inputs":[{"name":"ranking","type":"uint256","internalType":"uint256"}],"outputs":[],"stateMutability":"view"},{"type":"function","name":"shares","inputs":[{"name":"","type":"uint256","internalType":"uint256"}],"outputs":[{"name":"","type":"uint256","internalType":"uint256"}],"stateMutability":"view"},{"type":"function","name":"totalReleased","inputs":[],"outputs":[{"name":"","type":"uint256","internalType":"uint256"}],"stateMutability":"view"},{"type":"function","name":"totalShares","inputs":[],"outputs":[{"name":"","type":"uint256","internalType":"uint256"}],"stateMutability":"view"},{"type":"function","name":"underlyingContest","inputs":[],"outputs":[{"name":"","type":"address","internalType":"contract GovernorCountingSimple"}],"stateMutability":"view"},{"type":"function","name":"version","inputs":[],"outputs":[{"name":"","type":"string","internalType":"string"}],"stateMutability":"pure"},{"type":"function","name":"withdrawRewards","inputs":[{"name":"token","type":"address","internalType":"contract IERC20"}],"outputs":[],"stateMutability":"nonpayable"},{"type":"function","name":"withdrawRewards","inputs":[],"outputs":[],"stateMutability":"nonpayable"},{"type":"event","name":"ERC20PaymentReleased","inputs":[{"name":"token","type":"address","indexed":true,"internalType":"contract IERC20"},{"name":"to","type":"address","indexed":false,"internalType":"address"},{"name":"amount","type":"uint256","indexed":false,"internalType":"uint256"}],"anonymous":false},{"type":"event","name":"ERC20RewardWithdrawn","inputs":[{"name":"token","type":"address","indexed":true,"internalType":"contract IERC20"},{"name":"by","type":"address","indexed":false,"internalType":"address"},{"name":"amount","type":"uint256","indexed":false,"internalType":"uint256"}],"anonymous":false},{"type":"event","name":"PayeeAdded","inputs":[{"name":"ranking","type":"uint256","indexed":false,"internalType":"uint256"},{"name":"shares","type":"uint256","indexed":false,"internalType":"uint256"}],"anonymous":false},{"type":"event","name":"PaymentReceived","inputs":[{"name":"from","type":"address","indexed":false,"internalType":"address"},{"name":"amount","type":"uint256","indexed":false,"internalType":"uint256"}],"anonymous":false},{"type":"event","name":"PaymentReleased","inputs":[{"name":"to","type":"address","indexed":false,"internalType":"address"},{"name":"amount","type":"uint256","indexed":false,"internalType":"uint256"}],"anonymous":false},{"type":"event","name":"RewardWithdrawn","inputs":[{"name":"by","type":"address","indexed":false,"internalType":"address"},{"name":"amount","type":"uint256","indexed":false,"internalType":"uint256"}],"anonymous":false},{"type":"error","name":"AccountAlreadyHasShares","inputs":[]},{"type":"error","name":"AccountNotDueERC20Payment","inputs":[]},{"type":"error","name":"AccountNotDueNativePayment","inputs":[]},{"type":"error","name":"CannotPayOutToZeroAddress","inputs":[]},{"type":"error","name":"CannotReleaseCanceledModule","inputs":[]},{"type":"error","name":"ContestMustBeCompleted","inputs":[]},{"type":"error","name":"MustBeCanceledToWithdraw","inputs":[]},{"type":"error","name":"MustHaveAtLeastOnePayee","inputs":[]},{"type":"error","name":"MustHaveDownvotingDisabled","inputs":[]},{"type":"error","name":"MustHaveSortingEnabled","inputs":[]},{"type":"error","name":"OnlyCreatorCanWithdraw","inputs":[]},{"type":"error","name":"PayeesSharesLengthMismatch","inputs":[]},{"type":"error","name":"PayoutRankCannotBeZero","inputs":[]},{"type":"error","name":"RankingCannotBeZero","inputs":[]},{"type":"error","name":"RankingHasNoShares","inputs":[]},{"type":"error","name":"SharesCannotBeZero","inputs":[]},{"type":"error","name":"TotalSharesCannotBeZero","inputs":[]}],"bytecode":{"object":"0x608060405260405162001dcf38038062001dcf833981016040819052620000269162000301565b825184511462000049576040516324e23b4160e01b815260040160405180910390fd5b83516000036200006c57604051634c87c40160e01b815260040160405180910390fd5b60005b8451811015620000d857620000c3858281518110620000925762000092620003a6565b6020026020010151858381518110620000af57620000af620003a6565b60200260200101516200014660201b60201c565b80620000cf81620003d2565b9150506200006f565b50600054600003620000fd576040516306db759b60e21b815260040160405180910390fd5b60088054600780546001600160a01b039095166001600160a01b0319958616179055911515600160a01b02929092166001600160a81b03199091161733179055506200040a9050565b81600003620001685760405163d6fbfe2560e01b815260040160405180910390fd5b806000036200018a57604051633122bc0960e21b815260040160405180910390fd5b60008281526002602052604090205415620001b857604051637b4f7fb560e01b815260040160405180910390fd5b60048054600181019091557f8a35acfbc15ff81a39ae7d344fd709f28e8600b4aa8c65c6b64bfe7fe36bd19b0182905560008281526002602052604081208290555462000207908290620003ee565b60005560408051838152602081018390527f78bc0e219b874bf2620f7316737ec16d4bda1bb7136961e4dcb5ff0dc031cee4910160405180910390a15050565b634e487b7160e01b600052604160045260246000fd5b600082601f8301126200026f57600080fd5b815160206001600160401b03808311156200028e576200028e62000247565b8260051b604051601f19603f83011681018181108482111715620002b657620002b662000247565b604052938452858101830193838101925087851115620002d557600080fd5b83870191505b84821015620002f657815183529183019190830190620002db565b979650505050505050565b600080600080608085870312156200031857600080fd5b84516001600160401b03808211156200033057600080fd5b6200033e888389016200025d565b955060208701519150808211156200035557600080fd5b5062000364878288016200025d565b604087015190945090506001600160a01b03811681146200038457600080fd5b606086015190925080151581146200039b57600080fd5b939692955090935050565b634e487b7160e01b600052603260045260246000fd5b634e487b7160e01b600052601160045260246000fd5b600060018201620003e757620003e7620003bc565b5060010190565b80820180821115620004045762000404620003bc565b92915050565b6119b5806200041a6000396000f3fe6080604052600436106101445760003560e01c806354fd4d50116100b6578063c71040461161006f578063c71040461461042f578063c7b8981c1461044f578063e33b7de314610464578063e4bf01a81461047a578063ea8a1af01461049a578063f3f44fb7146104bf57600080fd5b806354fd4d501461034457806357a858fc1461037757806363037b0c146103a4578063828ce44b146103c457806396f7ff6e146103e2578063a94d373b1461040257600080fd5b80633375bbdc116101085780633375bbdc1461026857806337bdc99b146102955780633a98ef39146102b55780633f9942ff146102cb57806342d86693146102ec5780634b9453381461030c57600080fd5b806302d05d3f146101885780630357371d146101c55780631e5b4634146101e75780632081d6311461021857806327f381131461024657600080fd5b3661018357604080513381523460208201527f6ef95f06320e7a25a04a175ca677b7052bdd97131872c2192525a629f51be770910160405180910390a1005b600080fd5b34801561019457600080fd5b506008546101a8906001600160a01b031681565b6040516001600160a01b0390911681526020015b60405180910390f35b3480156101d157600080fd5b506101e56101e03660046112d0565b6104df565b005b3480156101f357600080fd5b5060085461020890600160a01b900460ff1681565b60405190151581526020016101bc565b34801561022457600080fd5b506102386102333660046112d0565b6105f6565b6040519081526020016101bc565b34801561025257600080fd5b5061025b6106b8565b6040516101bc91906112fc565b34801561027457600080fd5b50610238610283366004611340565b60056020526000908152604090205481565b3480156102a157600080fd5b506101e56102b036600461135d565b610710565b3480156102c157600080fd5b5061023860005481565b3480156102d757600080fd5b5060085461020890600160a81b900460ff1681565b3480156102f857600080fd5b506101e5610307366004611340565b6107f5565b34801561031857600080fd5b506102386103273660046112d0565b600660209081526000928352604080842090915290825290205481565b34801561035057600080fd5b506040805180820182526004815263342e333560e01b602082015290516101bc919061139a565b34801561038357600080fd5b5061023861039236600461135d565b60026020526000908152604090205481565b3480156103b057600080fd5b506102386103bf36600461135d565b610952565b3480156103d057600080fd5b506007546001600160a01b03166101a8565b3480156103ee57600080fd5b506101a86103fd36600461135d565b610973565b34801561040e57600080fd5b5061023861041d36600461135d565b60036020526000908152604090205481565b34801561043b57600080fd5b506101e561044a36600461135d565b610be5565b34801561045b57600080fd5b506101e5610e2a565b34801561047057600080fd5b5061023860015481565b34801561048657600080fd5b5061023861049536600461135d565b610ee1565b3480156104a657600080fd5b506101e56008805460ff60a81b1916600160a81b179055565b3480156104cb57600080fd5b506007546101a8906001600160a01b031681565b6104e881610be5565b60006104f483836105f6565b90508060000361051757604051635fe559bd60e01b815260040160405180910390fd5b6001600160a01b0383166000908152600560205260408120805483929061053f9084906113e3565b90915550506001600160a01b0383166000908152600660209081526040808320858452909152812080548301905561057683610973565b90506001600160a01b03811661059f576040516346a3c2f960e01b815260040160405180910390fd5b604080516001600160a01b038381168252602082018590528616917f3be5b7a71e84ed12875d241991c70855ac5817d847039e17a9d895c1ceb0f18a910160405180910390a26105f0848284610f19565b50505050565b6001600160a01b0382166000818152600560205260408082205490516370a0823160e01b8152306004820152919283926370a0823190602401602060405180830381865afa15801561064c573d6000803e3d6000fd5b505050506040513d601f19601f8201168201806040525081019061067091906113f6565b61067a91906113e3565b6001600160a01b03851660009081526006602090815260408083208784529091529020549091506106ae9084908390610f6b565b9150505b92915050565b6060600480548060200260200160405190810160405280929190818152602001828054801561070657602002820191906000526020600020905b8154815260200190600101908083116106f2575b5050505050905090565b61071981610be5565b600061072482610ee1565b90508060000361074757604051631d1514e960e21b815260040160405180910390fd5b806001600082825461075991906113e3565b9091555050600082815260036020526040812080548301905561077b83610973565b90506001600160a01b0381166107a4576040516346a3c2f960e01b815260040160405180910390fd5b604080516001600160a01b0383168152602081018490527fdf20fd1e76bc69d672e4814fafb2c449bba3a5369d8359adf9e05e6fde87b056910160405180910390a16107f08183610fa5565b505050565b6008546001600160a01b0316331461082057604051631eab0da960e01b815260040160405180910390fd5b6008546040516370a0823160e01b81523060048201526001600160a01b03838116927f6e5fc1cbd1629d9837bd657d23cf585bbc4e9127184972606cc4c0dd406f75729291169083906370a0823190602401602060405180830381865afa15801561088f573d6000803e3d6000fd5b505050506040513d601f19601f820116820180604052508101906108b391906113f6565b604080516001600160a01b03909316835260208301919091520160405180910390a26008546040516370a0823160e01b815230600482015261094f9183916001600160a01b03918216918316906370a0823190602401602060405180830381865afa158015610926573d6000803e3d6000fd5b505050506040513d601f19601f8201168201806040525081019061094a91906113f6565b610f19565b50565b6004818154811061096257600080fd5b600091825260209091200154905081565b600754604051630b8e20fb60e31b815260048101839052600091829182916001600160a01b031690635c7107d890602401602060405180830381865afa1580156109c1573d6000803e3d6000fd5b505050506040513d601f19601f820116820180604052508101906109e591906113f6565b60075460405163245d1de360e21b8152600481018390529192506001600160a01b031690639174778c90602401602060405180830381865afa158015610a2f573d6000803e3d6000fd5b505050506040513d601f19601f82011682018060405250810190610a539190611424565b15610a6b576008546001600160a01b03169150610bde565b60075460405163325cc6d960e01b8152600481018390526000916001600160a01b03169063325cc6d990602401602060405180830381865afa158015610ab5573d6000803e3d6000fd5b505050506040513d601f19601f82011682018060405250810190610ad991906113f6565b60075460405163b66d1da360e01b8152600481018390529192506000916001600160a01b039091169063c7f758a890829063b66d1da390602401602060405180830381865afa158015610b30573d6000803e3d6000fd5b505050506040513d601f19601f82011682018060405250810190610b5491906113f6565b6040518263ffffffff1660e01b8152600401610b7291815260200190565b600060405180830381865afa158015610b8f573d6000803e3d6000fd5b505050506040513d6000823e601f3d908101601f19168201604052610bb791908101906117f7565b600854909150600160a01b900460ff16610bd2578051610bd9565b6060810151515b935050505b5092915050565b600760009054906101000a90046001600160a01b03166001600160a01b03166360506ff66040518163ffffffff1660e01b8152600401602060405180830381865afa158015610c38573d6000803e3d6000fd5b505050506040513d601f19601f82011682018060405250810190610c5c91906113f6565b15610c7a5760405163018e187760e61b815260040160405180910390fd5b600760009054906101000a90046001600160a01b03166001600160a01b031663366ecf5b6040518163ffffffff1660e01b8152600401602060405180830381865afa158015610ccd573d6000803e3d6000fd5b505050506040513d601f19601f82011682018060405250810190610cf191906113f6565b600114610d1157604051630fcdfffd60e41b815260040160405180910390fd5b6007546040805163c19d93fb60e01b815290516004926001600160a01b03169163c19d93fb918185019160209190819003860181865afa158015610d59573d6000803e3d6000fd5b505050506040513d601f19601f82011682018060405250810190610d7d91906118f6565b6004811115610d8e57610d8e6118e0565b14610dac57604051639c2d4c7960e01b815260040160405180910390fd5b80600003610dcd5760405163f9668e2960e01b815260040160405180910390fd5b6000818152600260205260408120549003610dfb57604051632534bdfb60e11b815260040160405180910390fd5b600854600160a81b900460ff16151560010361094f5760405163e2f87cff60e01b815260040160405180910390fd5b6008546001600160a01b03163314610e5557604051631eab0da960e01b815260040160405180910390fd5b600854600160a81b900460ff161515600114610e8457604051633871a85960e21b815260040160405180910390fd5b600854604080516001600160a01b0390921682524760208301527f1d3eee4ca001cff39eec6ec7615aacf2f2bd61791273830728ba00ccbd6e1337910160405180910390a1600854610edf906001600160a01b031647610fa5565b565b60008060015447610ef291906113e3565b9050610f1283826003600087815260200190815260200160002054610f6b565b9392505050565b604080516001600160a01b038416602482015260448082018490528251808303909101815260649091019091526020810180516001600160e01b031663a9059cbb60e01b1790526107f09084906110c3565b6000805484825260026020526040822054839190610f899086611917565b610f93919061192e565b610f9d9190611950565b949350505050565b80471015610ffa5760405162461bcd60e51b815260206004820152601d60248201527f416464726573733a20696e73756666696369656e742062616c616e636500000060448201526064015b60405180910390fd5b6000826001600160a01b03168260405160006040518083038185875af1925050503d8060008114611047576040519150601f19603f3d011682016040523d82523d6000602084013e61104c565b606091505b50509050806107f05760405162461bcd60e51b815260206004820152603a60248201527f416464726573733a20756e61626c6520746f2073656e642076616c75652c207260448201527f6563697069656e74206d617920686176652072657665727465640000000000006064820152608401610ff1565b6000611118826040518060400160405280602081526020017f5361666545524332303a206c6f772d6c6576656c2063616c6c206661696c6564815250856001600160a01b03166111989092919063ffffffff16565b90508051600014806111395750808060200190518101906111399190611424565b6107f05760405162461bcd60e51b815260206004820152602a60248201527f5361666545524332303a204552433230206f7065726174696f6e20646964206e6044820152691bdd081cdd58d8d9595960b21b6064820152608401610ff1565b6060610f9d848460008585600080866001600160a01b031685876040516111bf9190611963565b60006040518083038185875af1925050503d80600081146111fc576040519150601f19603f3d011682016040523d82523d6000602084013e611201565b606091505b50915091506112128783838761121d565b979650505050505050565b6060831561128c578251600003611285576001600160a01b0385163b6112855760405162461bcd60e51b815260206004820152601d60248201527f416464726573733a2063616c6c20746f206e6f6e2d636f6e74726163740000006044820152606401610ff1565b5081610f9d565b610f9d83838151156112a15781518083602001fd5b8060405162461bcd60e51b8152600401610ff1919061139a565b6001600160a01b038116811461094f57600080fd5b600080604083850312156112e357600080fd5b82356112ee816112bb565b946020939093013593505050565b6020808252825182820181905260009190848201906040850190845b8181101561133457835183529284019291840191600101611318565b50909695505050505050565b60006020828403121561135257600080fd5b8135610f12816112bb565b60006020828403121561136f57600080fd5b5035919050565b60005b83811015611391578181015183820152602001611379565b50506000910152565b60208152600082518060208401526113b9816040850160208701611376565b601f01601f19169190910160400192915050565b634e487b7160e01b600052601160045260246000fd5b808201808211156106b2576106b26113cd565b60006020828403121561140857600080fd5b5051919050565b8051801515811461141f57600080fd5b919050565b60006020828403121561143657600080fd5b610f128261140f565b634e487b7160e01b600052604160045260246000fd5b6040516060810167ffffffffffffffff811182821017156114785761147861143f565b60405290565b60405160c0810167ffffffffffffffff811182821017156114785761147861143f565b604051601f8201601f1916810167ffffffffffffffff811182821017156114ca576114ca61143f565b604052919050565b805161141f816112bb565b600082601f8301126114ee57600080fd5b815167ffffffffffffffff8111156115085761150861143f565b61151b601f8201601f19166020016114a1565b81815284602083860101111561153057600080fd5b610f9d826020830160208701611376565b60006020828403121561155357600080fd5b6040516020810181811067ffffffffffffffff821117156115765761157661143f565b80604052508091508251611589816112bb565b905292915050565b600067ffffffffffffffff8211156115ab576115ab61143f565b5060051b60200190565b600082601f8301126115c657600080fd5b815160206115db6115d683611591565b6114a1565b82815260059290921b840181019181810190868411156115fa57600080fd5b8286015b8481101561161e578051611611816112bb565b83529183019183016115fe565b509695505050505050565b60006040828403121561163b57600080fd5b6040516040810167ffffffffffffffff828210818311171561165f5761165f61143f565b81604052829350845191508082111561167757600080fd5b50611684858286016115b5565b825250602083015160208201525092915050565b600082601f8301126116a957600080fd5b815160206116b96115d683611591565b82815260059290921b840181019181810190868411156116d857600080fd5b8286015b8481101561161e57805183529183019183016116dc565b60006060828403121561170557600080fd5b61170d611455565b9050815167ffffffffffffffff8082111561172757600080fd5b611733858386016115b5565b835260209150818401518181111561174a57600080fd5b8401601f8101861361175b57600080fd5b80516117696115d682611591565b81815260059190911b8201840190848101908883111561178857600080fd5b8584015b838110156117c0578051868111156117a45760008081fd5b6117b28b89838901016114dd565b84525091860191860161178c565b5080868801525050505060408401519150808211156117de57600080fd5b506117eb84828501611698565b60408301525092915050565b60006020828403121561180957600080fd5b815167ffffffffffffffff8082111561182157600080fd5b9083019060c0828603121561183557600080fd5b61183d61147e565b611846836114d2565b81526118546020840161140f565b602082015260408301518281111561186b57600080fd5b611877878286016114dd565b60408301525061188a8660608501611541565b60608201526080830151828111156118a157600080fd5b6118ad87828601611629565b60808301525060a0830151828111156118c557600080fd5b6118d1878286016116f3565b60a08301525095945050505050565b634e487b7160e01b600052602160045260246000fd5b60006020828403121561190857600080fd5b815160058110610f1257600080fd5b80820281158282048414176106b2576106b26113cd565b60008261194b57634e487b7160e01b600052601260045260246000fd5b500490565b818103818111156106b2576106b26113cd565b60008251611975818460208701611376565b919091019291505056fea264697066735822122020ab20f5a5cfbb3f2a26d726dbd551fc0b2a2e7048e7bef6681fb655bb4bafcc64736f6c63430008130033","linkReferences":{}},"methodIdentifiers":{"cancel()":"ea8a1af0","canceled()":"3f9942ff","creator()":"02d05d3f","erc20Released(address,uint256)":"4b945338","erc20TotalReleased(address)":"3375bbdc","getAddressToPayOut(uint256)":"96f7ff6e","getPayees()":"27f38113","getUnderlyingContest()":"828ce44b","payees(uint256)":"63037b0c","paysOutTarget()":"1e5b4634","releasable(address,uint256)":"2081d631","releasable(uint256)":"e4bf01a8","release(address,uint256)":"0357371d","release(uint256)":"37bdc99b","released(uint256)":"a94d373b","runReleaseChecks(uint256)":"c7104046","shares(uint256)":"57a858fc","totalReleased()":"e33b7de3","totalShares()":"3a98ef39","underlyingContest()":"f3f44fb7","version()":"54fd4d50","withdrawRewards()":"c7b8981c","withdrawRewards(address)":"42d86693"},"id":41}