{"abi":[{"type":"constructor","inputs":[{"name":"payees_","type":"uint256[]","internalType":"uint256[]"},{"name":"shares_","type":"uint256[]","internalType":"uint256[]"},{"name":"underlyingContest_","type":"address","internalType":"contract GovernorCountingSimple"}],"stateMutability":"payable"},{"type":"receive","stateMutability":"payable"},{"type":"function","name":"JK_LABS_ADDRESS","inputs":[],"outputs":[{"name":"","type":"address","internalType":"address"}],"stateMutability":"view"},{"type":"function","name":"MODULE_TYPE","inputs":[],"outputs":[{"name":"","type":"string","internalType":"string"}],"stateMutability":"view"},{"type":"function","name":"cancel","inputs":[],"outputs":[],"stateMutability":"nonpayable"},{"type":"function","name":"canceled","inputs":[],"outputs":[{"name":"","type":"bool","internalType":"bool"}],"stateMutability":"view"},{"type":"function","name":"canceledByJkLabs","inputs":[],"outputs":[{"name":"","type":"bool","internalType":"bool"}],"stateMutability":"view"},{"type":"function","name":"creator","inputs":[],"outputs":[{"name":"","type":"address","internalType":"address"}],"stateMutability":"view"},{"type":"function","name":"erc20Released","inputs":[{"name":"","type":"address","internalType":"contract IERC20"},{"name":"","type":"uint256","internalType":"uint256"}],"outputs":[{"name":"","type":"uint256","internalType":"uint256"}],"stateMutability":"view"},{"type":"function","name":"erc20ReleasedToVoter","inputs":[{"name":"","type":"address","internalType":"contract IERC20"},{"name":"","type":"address","internalType":"address"},{"name":"","type":"uint256","internalType":"uint256"}],"outputs":[{"name":"","type":"uint256","internalType":"uint256"}],"stateMutability":"view"},{"type":"function","name":"erc20TotalReleased","inputs":[{"name":"","type":"address","internalType":"contract IERC20"}],"outputs":[{"name":"","type":"uint256","internalType":"uint256"}],"stateMutability":"view"},{"type":"function","name":"getPayees","inputs":[],"outputs":[{"name":"","type":"uint256[]","internalType":"uint256[]"}],"stateMutability":"view"},{"type":"function","name":"getProposalIdOfRanking","inputs":[{"name":"ranking","type":"uint256","internalType":"uint256"}],"outputs":[{"name":"","type":"uint256","internalType":"uint256"}],"stateMutability":"view"},{"type":"function","name":"getUnderlyingContest","inputs":[],"outputs":[{"name":"","type":"address","internalType":"contract GovernorCountingSimple"}],"stateMutability":"view"},{"type":"function","name":"payees","inputs":[{"name":"","type":"uint256","internalType":"uint256"}],"outputs":[{"name":"","type":"uint256","internalType":"uint256"}],"stateMutability":"view"},{"type":"function","name":"releasable","inputs":[{"name":"token","type":"address","internalType":"contract IERC20"},{"name":"ranking","type":"uint256","internalType":"uint256"}],"outputs":[{"name":"","type":"uint256","internalType":"uint256"}],"stateMutability":"view"},{"type":"function","name":"releasable","inputs":[{"name":"ranking","type":"uint256","internalType":"uint256"}],"outputs":[{"name":"","type":"uint256","internalType":"uint256"}],"stateMutability":"view"},{"type":"function","name":"releasableToVoter","inputs":[{"name":"voter","type":"address","internalType":"address"},{"name":"ranking","type":"uint256","internalType":"uint256"}],"outputs":[{"name":"","type":"uint256","internalType":"uint256"}],"stateMutability":"view"},{"type":"function","name":"releasableToVoter","inputs":[{"name":"token","type":"address","internalType":"contract IERC20"},{"name":"voter","type":"address","internalType":"address"},{"name":"ranking","type":"uint256","internalType":"uint256"}],"outputs":[{"name":"","type":"uint256","internalType":"uint256"}],"stateMutability":"view"},{"type":"function","name":"release","inputs":[{"name":"voter","type":"address","internalType":"address"},{"name":"ranking","type":"uint256","internalType":"uint256"}],"outputs":[],"stateMutability":"nonpayable"},{"type":"function","name":"release","inputs":[{"name":"token","type":"address","internalType":"contract IERC20"},{"name":"voter","type":"address","internalType":"address"},{"name":"ranking","type":"uint256","internalType":"uint256"}],"outputs":[],"stateMutability":"nonpayable"},{"type":"function","name":"released","inputs":[{"name":"","type":"uint256","internalType":"uint256"}],"outputs":[{"name":"","type":"uint256","internalType":"uint256"}],"stateMutability":"view"},{"type":"function","name":"releasedToVoter","inputs":[{"name":"","type":"address","internalType":"address"},{"name":"","type":"uint256","internalType":"uint256"}],"outputs":[{"name":"","type":"uint256","internalType":"uint256"}],"stateMutability":"view"},{"type":"function","name":"runReleaseChecks","inputs":[{"name":"ranking","type":"uint256","internalType":"uint256"}],"outputs":[],"stateMutability":"view"},{"type":"function","name":"shares","inputs":[{"name":"","type":"uint256","internalType":"uint256"}],"outputs":[{"name":"","type":"uint256","internalType":"uint256"}],"stateMutability":"view"},{"type":"function","name":"totalReleased","inputs":[],"outputs":[{"name":"","type":"uint256","internalType":"uint256"}],"stateMutability":"view"},{"type":"function","name":"totalShares","inputs":[],"outputs":[{"name":"","type":"uint256","internalType":"uint256"}],"stateMutability":"view"},{"type":"function","name":"underlyingContest","inputs":[],"outputs":[{"name":"","type":"address","internalType":"contract GovernorCountingSimple"}],"stateMutability":"view"},{"type":"function","name":"version","inputs":[],"outputs":[{"name":"","type":"string","internalType":"string"}],"stateMutability":"pure"},{"type":"function","name":"withdrawRewards","inputs":[{"name":"token","type":"address","internalType":"contract IERC20"}],"outputs":[],"stateMutability":"nonpayable"},{"type":"function","name":"withdrawRewards","inputs":[],"outputs":[],"stateMutability":"nonpayable"},{"type":"event","name":"ERC20PaymentReleased","inputs":[{"name":"token","type":"address","indexed":true,"internalType":"contract IERC20"},{"name":"to","type":"address","indexed":false,"internalType":"address"},{"name":"amount","type":"uint256","indexed":false,"internalType":"uint256"}],"anonymous":false},{"type":"event","name":"ERC20RewardWithdrawn","inputs":[{"name":"token","type":"address","indexed":true,"internalType":"contract IERC20"},{"name":"by","type":"address","indexed":false,"internalType":"address"},{"name":"amount","type":"uint256","indexed":false,"internalType":"uint256"}],"anonymous":false},{"type":"event","name":"JokeraceVoterRewardsModuleCreated","inputs":[{"name":"version","type":"string","indexed":false,"internalType":"string"},{"name":"underlyingContest","type":"address","indexed":false,"internalType":"address"}],"anonymous":false},{"type":"event","name":"PayeeAdded","inputs":[{"name":"ranking","type":"uint256","indexed":false,"internalType":"uint256"},{"name":"shares","type":"uint256","indexed":false,"internalType":"uint256"}],"anonymous":false},{"type":"event","name":"PaymentReceived","inputs":[{"name":"from","type":"address","indexed":false,"internalType":"address"},{"name":"amount","type":"uint256","indexed":false,"internalType":"uint256"}],"anonymous":false},{"type":"event","name":"PaymentReleased","inputs":[{"name":"to","type":"address","indexed":false,"internalType":"address"},{"name":"amount","type":"uint256","indexed":false,"internalType":"uint256"}],"anonymous":false},{"type":"event","name":"RewardWithdrawn","inputs":[{"name":"by","type":"address","indexed":false,"internalType":"address"},{"name":"amount","type":"uint256","indexed":false,"internalType":"uint256"}],"anonymous":false},{"type":"error","name":"AccountAlreadyHasShares","inputs":[]},{"type":"error","name":"AccountNotDueERC20Payment","inputs":[]},{"type":"error","name":"AccountNotDueNativePayment","inputs":[]},{"type":"error","name":"CannotPayOutToZeroAddress","inputs":[]},{"type":"error","name":"CannotReleaseCanceledModule","inputs":[]},{"type":"error","name":"ContestMustBeCompleted","inputs":[]},{"type":"error","name":"CreatorCanOnlyCancelBeforeFirstVote","inputs":[]},{"type":"error","name":"CreatorCannotWithdrawIfJkLabsCanceled","inputs":[]},{"type":"error","name":"JkLabsCanOnlyCancelAfterDelay","inputs":[]},{"type":"error","name":"ModuleAlreadyCanceled","inputs":[]},{"type":"error","name":"MustBeCanceledToWithdraw","inputs":[]},{"type":"error","name":"MustHaveAtLeastOnePayee","inputs":[]},{"type":"error","name":"MustHaveSortingEnabled","inputs":[]},{"type":"error","name":"OnlyCreatorOrJkLabsCanCancel","inputs":[]},{"type":"error","name":"OnlyCreatorOrJkLabsCanWithdraw","inputs":[]},{"type":"error","name":"PayeesSharesLengthMismatch","inputs":[]},{"type":"error","name":"PayoutRankCannotBeZero","inputs":[]},{"type":"error","name":"RankingCannotBeZero","inputs":[]},{"type":"error","name":"RankingHasNoShares","inputs":[]},{"type":"error","name":"SharesCannotBeZero","inputs":[]},{"type":"error","name":"TotalSharesCannotBeZero","inputs":[]}],"bytecode":{"object":"0x608060405262093a8060095560405162002088380380620020888339810160408190526200002d9162000344565b815183511462000050576040516324e23b4160e01b815260040160405180910390fd5b82516000036200007357604051634c87c40160e01b815260040160405180910390fd5b60005b8351811015620000df57620000ca848281518110620000995762000099620003d1565b6020026020010151848381518110620000b657620000b6620003d1565b60200260200101516200018960201b60201c565b80620000d681620003fd565b91505062000076565b5060005460000362000104576040516306db759b60e21b815260040160405180910390fd5b600a80546001600160a01b0383166001600160a01b03199182168117909255600b8054909116331790556040805180820182526004815263352e313160e01b602082015290517f8c5321ee9bef93e01f55e8958ee7eeea8f84887a42c785c2e5006564caf6590d9262000178929162000419565b60405180910390a150505062000497565b81600003620001ab5760405163d6fbfe2560e01b815260040160405180910390fd5b80600003620001cd57604051633122bc0960e21b815260040160405180910390fd5b60008281526002602052604090205415620001fb57604051637b4f7fb560e01b815260040160405180910390fd5b60088054600181019091557ff3f7a9fe364faab93b216da50a3214154f22a0a2b415b23a84c8169e8b636ee3018290556000828152600260205260408120829055546200024a9082906200047b565b60005560408051838152602081018390527f78bc0e219b874bf2620f7316737ec16d4bda1bb7136961e4dcb5ff0dc031cee4910160405180910390a15050565b634e487b7160e01b600052604160045260246000fd5b600082601f830112620002b257600080fd5b815160206001600160401b0380831115620002d157620002d16200028a565b8260051b604051601f19603f83011681018181108482111715620002f957620002f96200028a565b6040529384528581018301938381019250878511156200031857600080fd5b83870191505b8482101562000339578151835291830191908301906200031e565b979650505050505050565b6000806000606084860312156200035a57600080fd5b83516001600160401b03808211156200037257600080fd5b6200038087838801620002a0565b945060208601519150808211156200039757600080fd5b50620003a686828701620002a0565b604086015190935090506001600160a01b0381168114620003c657600080fd5b809150509250925092565b634e487b7160e01b600052603260045260246000fd5b634e487b7160e01b600052601160045260246000fd5b600060018201620004125762000412620003e7565b5060010190565b604081526000835180604084015260005b818110156200044957602081870181015160608684010152016200042a565b50600060608285018101919091526001600160a01b03949094166020840152601f01601f191690910190910192915050565b80820180821115620004915762000491620003e7565b92915050565b611be180620004a76000396000f3fe6080604052600436106101c65760003560e01c80635775029f116100f7578063c710404611610095578063e4bf01a811610064578063e4bf01a8146105ee578063ea8a1af01461060e578063eef18e1714610623578063f3f44fb71461064b57600080fd5b8063c710404614610565578063c7b8981c14610585578063d75f69b61461059a578063e33b7de3146105d857600080fd5b80637ce4627e116100d15780637ce4627e146104da578063828ce44b146104fa5780638bfb07c914610518578063a94d373b1461053857600080fd5b80635775029f1461045457806357a858fc1461048d57806363037b0c146104ba57600080fd5b80633a98ef39116101645780634b9453381161013e5780634b9453381461038e5780634df2114b146103c657806351f63e35146103fe57806354fd4d501461041e57600080fd5b80633a98ef39146103375780633f9942ff1461034d57806342d866931461036e57600080fd5b80632081d631116101a05780632081d6311461029a57806327273847146102c857806327f38113146102e85780633375bbdc1461030a57600080fd5b806302d05d3f1461020a5780630357371d14610247578063071fd35a1461026957600080fd5b3661020557604080513381523460208201527f6ef95f06320e7a25a04a175ca677b7052bdd97131872c2192525a629f51be770910160405180910390a1005b600080fd5b34801561021657600080fd5b50600b5461022a906001600160a01b031681565b6040516001600160a01b0390911681526020015b60405180910390f35b34801561025357600080fd5b5061026761026236600461196a565b61066b565b005b34801561027557600080fd5b50600b5461028a90600160a81b900460ff1681565b604051901515815260200161023e565b3480156102a657600080fd5b506102ba6102b536600461196a565b6107be565b60405190815260200161023e565b3480156102d457600080fd5b506102ba6102e336600461196a565b610885565b3480156102f457600080fd5b506102fd6108ff565b60405161023e9190611996565b34801561031657600080fd5b506102ba6103253660046119da565b60046020526000908152604090205481565b34801561034357600080fd5b506102ba60005481565b34801561035957600080fd5b50600b5461028a90600160a01b900460ff1681565b34801561037a57600080fd5b506102676103893660046119da565b610957565b34801561039a57600080fd5b506102ba6103a936600461196a565b600560209081526000928352604080842090915290825290205481565b3480156103d257600080fd5b506102ba6103e136600461196a565b600660209081526000928352604080842090915290825290205481565b34801561040a57600080fd5b506102ba6104193660046119f7565b610b3c565b34801561042a57600080fd5b50604080518082019091526004815263352e313160e01b60208201525b60405161023e9190611a34565b34801561046057600080fd5b506104476040518060400160405280600d81526020016c564f5445525f5245574152445360981b81525081565b34801561049957600080fd5b506102ba6104a83660046119f7565b60026020526000908152604090205481565b3480156104c657600080fd5b506102ba6104d53660046119f7565b610d0d565b3480156104e657600080fd5b506102ba6104f5366004611a67565b610d2e565b34801561050657600080fd5b50600a546001600160a01b031661022a565b34801561052457600080fd5b50610267610533366004611a67565b610e2b565b34801561054457600080fd5b506102ba6105533660046119f7565b60036020526000908152604090205481565b34801561057157600080fd5b506102676105803660046119f7565b610fbd565b34801561059157600080fd5b5061026761116d565b3480156105a657600080fd5b506102ba6105b5366004611a67565b600760209081526000938452604080852082529284528284209052825290205481565b3480156105e457600080fd5b506102ba60015481565b3480156105fa57600080fd5b506102ba6106093660046119f7565b61126e565b34801561061a57600080fd5b506102676112a6565b34801561062f57600080fd5b5061022a73dc652c746a8f85e18ce632d97c6118e8a52fa73881565b34801561065757600080fd5b50600a5461022a906001600160a01b031681565b61067481610fbd565b600061067f82610b3c565b905060008115610698576106938484610885565b6106a1565b6106a18361126e565b9050806000036106c457604051631d1514e960e21b815260040160405180910390fd5b80600160008282546106d69190611abe565b909155505060008381526003602052604081208054830190558215610736576001600160a01b038516600090815260066020908152604080832087845290915281208054849290610728908490611abe565b909155508591506107449050565b50600b546001600160a01b03165b6001600160a01b03811661076b576040516346a3c2f960e01b815260040160405180910390fd5b604080516001600160a01b0383168152602081018490527fdf20fd1e76bc69d672e4814fafb2c449bba3a5369d8359adf9e05e6fde87b056910160405180910390a16107b781836114b4565b5050505050565b6001600160a01b03821660008181526004602081905260408083205490516370a0823160e01b8152309281019290925291928392916370a0823190602401602060405180830381865afa158015610819573d6000803e3d6000fd5b505050506040513d601f19601f8201168201806040525081019061083d9190611ad1565b6108479190611abe565b6001600160a01b038516600090815260056020908152604080832087845290915290205490915061087b90849083906115d7565b9150505b92915050565b600080600154476108969190611abe565b600080548582526002602052604082205492935090916108b69084611aea565b6108c09190611b01565b6001600160a01b03861660009081526006602090815260408083208884529091529020549091506108f690869086908490611611565b95945050505050565b6060600880548060200260200160405190810160405280929190818152602001828054801561094d57602002820191906000526020600020905b815481526020019060010190808311610939575b5050505050905090565b600b546001600160a01b0316331480159061098657503373dc652c746a8f85e18ce632d97c6118e8a52fa73814155b156109a4576040516365eea35560e11b815260040160405180910390fd5b600b54600160a01b900460ff1615156001146109d357604051633871a85960e21b815260040160405180910390fd5b600b546001600160a01b0316331480156109f65750600b54600160a81b900460ff165b15610a145760405163f7e8ac6f60e01b815260040160405180910390fd5b6040516370a0823160e01b81523060048201526001600160a01b038216907f6e5fc1cbd1629d9837bd657d23cf585bbc4e9127184972606cc4c0dd406f757290339083906370a0823190602401602060405180830381865afa158015610a7e573d6000803e3d6000fd5b505050506040513d601f19601f82011682018060405250810190610aa29190611ad1565b604080516001600160a01b03909316835260208301919091520160405180910390a26040516370a0823160e01b8152306004820152610b3990829033906001600160a01b038316906370a0823190602401602060405180830381865afa158015610b10573d6000803e3d6000fd5b505050506040513d601f19601f82011682018060405250810190610b349190611ad1565b611722565b50565b600a54604051630b8e20fb60e31b815260048101839052600091829182916001600160a01b031690635c7107d890602401602060405180830381865afa158015610b8a573d6000803e3d6000fd5b505050506040513d601f19601f82011682018060405250810190610bae9190611ad1565b600a5460405163245d1de360e21b8152600481018390529192506001600160a01b031690639174778c90602401602060405180830381865afa158015610bf8573d6000803e3d6000fd5b505050506040513d601f19601f82011682018060405250810190610c1c9190611b23565b15610c2a5760009150610d06565b600a5460405163325cc6d960e01b8152600481018390526000916001600160a01b03169063325cc6d990602401602060405180830381865afa158015610c74573d6000803e3d6000fd5b505050506040513d601f19601f82011682018060405250810190610c989190611ad1565b600a5460405163d576b81d60e01b8152600481018390529192506001600160a01b03169063d576b81d90602401602060405180830381865afa158015610ce2573d6000803e3d6000fd5b505050506040513d601f19601f820116820180604052508101906108f69190611ad1565b5092915050565b60088181548110610d1d57600080fd5b600091825260209091200154905081565b6001600160a01b03831660008181526004602081905260408083205490516370a0823160e01b8152309281019290925291928392916370a0823190602401602060405180830381865afa158015610d89573d6000803e3d6000fd5b505050506040513d601f19601f82011682018060405250810190610dad9190611ad1565b610db79190611abe565b60008054858252600260205260408220549293509091610dd79084611aea565b610de19190611b01565b6001600160a01b038088166000908152600760209081526040808320938a16835292815282822088835290522054909150610e2190869086908490611611565b9695505050505050565b610e3481610fbd565b6000610e3f82610b3c565b905060008115610e5957610e54858585610d2e565b610e63565b610e6385846107be565b905080600003610e8657604051635fe559bd60e01b815260040160405180910390fd5b6001600160a01b03851660009081526004602052604081208054839290610eae908490611abe565b90915550506001600160a01b038516600090815260056020908152604080832086845290915281208054830190558215610f2f576001600160a01b038087166000908152600760209081526040808320938916835292815282822087835290529081208054849290610f21908490611abe565b90915550859150610f3d9050565b50600b546001600160a01b03165b6001600160a01b038116610f64576040516346a3c2f960e01b815260040160405180910390fd5b604080516001600160a01b038381168252602082018590528816917f3be5b7a71e84ed12875d241991c70855ac5817d847039e17a9d895c1ceb0f18a910160405180910390a2610fb5868284611722565b505050505050565b600a60009054906101000a90046001600160a01b03166001600160a01b031663366ecf5b6040518163ffffffff1660e01b8152600401602060405180830381865afa158015611010573d6000803e3d6000fd5b505050506040513d601f19601f820116820180604052508101906110349190611ad1565b60011461105457604051630fcdfffd60e41b815260040160405180910390fd5b600a546040805163c19d93fb60e01b815290516004926001600160a01b03169163c19d93fb918185019160209190819003860181865afa15801561109c573d6000803e3d6000fd5b505050506040513d601f19601f820116820180604052508101906110c09190611b5b565b60048111156110d1576110d1611b45565b146110ef57604051639c2d4c7960e01b815260040160405180910390fd5b806000036111105760405163f9668e2960e01b815260040160405180910390fd5b600081815260026020526040812054900361113e57604051632534bdfb60e11b815260040160405180910390fd5b600b54600160a01b900460ff161515600103610b395760405163e2f87cff60e01b815260040160405180910390fd5b600b546001600160a01b0316331480159061119c57503373dc652c746a8f85e18ce632d97c6118e8a52fa73814155b156111ba576040516365eea35560e11b815260040160405180910390fd5b600b54600160a01b900460ff1615156001146111e957604051633871a85960e21b815260040160405180910390fd5b600b546001600160a01b03163314801561120c5750600b54600160a81b900460ff165b1561122a5760405163f7e8ac6f60e01b815260040160405180910390fd5b604080513381524760208201527f1d3eee4ca001cff39eec6ec7615aacf2f2bd61791273830728ba00ccbd6e1337910160405180910390a161126c33476114b4565b565b6000806001544761127f9190611abe565b905061129f838260036000878152602001908152602001600020546115d7565b9392505050565b600b546001600160a01b031633148015906112d557503373dc652c746a8f85e18ce632d97c6118e8a52fa73814155b156112f357604051637601acaf60e11b815260040160405180910390fd5b600b54600160a01b900460ff161561131e57604051638774100960e01b815260040160405180910390fd5b600b546001600160a01b0316331480156113ad5750600a60009054906101000a90046001600160a01b03166001600160a01b0316637de418d56040518163ffffffff1660e01b8152600401602060405180830381865afa158015611386573d6000803e3d6000fd5b505050506040513d601f19601f820116820180604052508101906113aa9190611ad1565b15155b156113cb5760405163222e910560e01b815260040160405180910390fd5b73dc652c746a8f85e18ce632d97c6118e8a52fa73719330161149f57600954600a60009054906101000a90046001600160a01b03166001600160a01b031663262e59e96040518163ffffffff1660e01b8152600401602060405180830381865afa15801561143d573d6000803e3d6000fd5b505050506040513d601f19601f820116820180604052508101906114619190611ad1565b61146b9190611abe565b42101561148b5760405163f6cb8fdf60e01b815260040160405180910390fd5b600b805460ff60a81b1916600160a81b1790555b600b805460ff60a01b1916600160a01b179055565b804710156115095760405162461bcd60e51b815260206004820152601d60248201527f416464726573733a20696e73756666696369656e742062616c616e636500000060448201526064015b60405180910390fd5b6000826001600160a01b03168260405160006040518083038185875af1925050503d8060008114611556576040519150601f19603f3d011682016040523d82523d6000602084013e61155b565b606091505b50509050806115d25760405162461bcd60e51b815260206004820152603a60248201527f416464726573733a20756e61626c6520746f2073656e642076616c75652c207260448201527f6563697069656e74206d617920686176652072657665727465640000000000006064820152608401611500565b505050565b60008054848252600260205260408220548391906115f59086611aea565b6115ff9190611b01565b6116099190611b7c565b949350505050565b60008061161d85610b3c565b600a54604051631513ff2760e21b81526004810183905291925084916001600160a01b039091169063544ffc9c90602401602060405180830381865afa15801561166b573d6000803e3d6000fd5b505050506040513d601f19601f8201168201806040525081019061168f9190611ad1565b600a546040516306e4eb8160e41b8152600481018590526001600160a01b038a8116602483015290911690636e4eb81090604401602060405180830381865afa1580156116e0573d6000803e3d6000fd5b505050506040513d601f19601f820116820180604052508101906117049190611ad1565b61170e9087611aea565b6117189190611b01565b610e219190611b7c565b604080516001600160a01b03848116602483015260448083018590528351808403909101815260649092018352602080830180516001600160e01b031663a9059cbb60e01b17905283518085019094528084527f5361666545524332303a206c6f772d6c6576656c2063616c6c206661696c6564908401526115d2928692916000916117b2918516908490611832565b90508051600014806117d35750808060200190518101906117d39190611b23565b6115d25760405162461bcd60e51b815260206004820152602a60248201527f5361666545524332303a204552433230206f7065726174696f6e20646964206e6044820152691bdd081cdd58d8d9595960b21b6064820152608401611500565b6060611609848460008585600080866001600160a01b031685876040516118599190611b8f565b60006040518083038185875af1925050503d8060008114611896576040519150601f19603f3d011682016040523d82523d6000602084013e61189b565b606091505b50915091506118ac878383876118b7565b979650505050505050565b6060831561192657825160000361191f576001600160a01b0385163b61191f5760405162461bcd60e51b815260206004820152601d60248201527f416464726573733a2063616c6c20746f206e6f6e2d636f6e74726163740000006044820152606401611500565b5081611609565b611609838381511561193b5781518083602001fd5b8060405162461bcd60e51b81526004016115009190611a34565b6001600160a01b0381168114610b3957600080fd5b6000806040838503121561197d57600080fd5b823561198881611955565b946020939093013593505050565b6020808252825182820181905260009190848201906040850190845b818110156119ce578351835292840192918401916001016119b2565b50909695505050505050565b6000602082840312156119ec57600080fd5b813561129f81611955565b600060208284031215611a0957600080fd5b5035919050565b60005b83811015611a2b578181015183820152602001611a13565b50506000910152565b6020815260008251806020840152611a53816040850160208701611a10565b601f01601f19169190910160400192915050565b600080600060608486031215611a7c57600080fd5b8335611a8781611955565b92506020840135611a9781611955565b929592945050506040919091013590565b634e487b7160e01b600052601160045260246000fd5b8082018082111561087f5761087f611aa8565b600060208284031215611ae357600080fd5b5051919050565b808202811582820484141761087f5761087f611aa8565b600082611b1e57634e487b7160e01b600052601260045260246000fd5b500490565b600060208284031215611b3557600080fd5b8151801515811461129f57600080fd5b634e487b7160e01b600052602160045260246000fd5b600060208284031215611b6d57600080fd5b81516005811061129f57600080fd5b8181038181111561087f5761087f611aa8565b60008251611ba1818460208701611a10565b919091019291505056fea26469706673582212201e24f29bcfe60a6880cfa733bef8d8ea89c23202a20516a2804092a164a0291364736f6c63430008130033","linkReferences":{}},"methodIdentifiers":{"JK_LABS_ADDRESS()":"eef18e17","MODULE_TYPE()":"5775029f","cancel()":"ea8a1af0","canceled()":"3f9942ff","canceledByJkLabs()":"071fd35a","creator()":"02d05d3f","erc20Released(address,uint256)":"4b945338","erc20ReleasedToVoter(address,address,uint256)":"d75f69b6","erc20TotalReleased(address)":"3375bbdc","getPayees()":"27f38113","getProposalIdOfRanking(uint256)":"51f63e35","getUnderlyingContest()":"828ce44b","payees(uint256)":"63037b0c","releasable(address,uint256)":"2081d631","releasable(uint256)":"e4bf01a8","releasableToVoter(address,address,uint256)":"7ce4627e","releasableToVoter(address,uint256)":"27273847","release(address,address,uint256)":"8bfb07c9","release(address,uint256)":"0357371d","released(uint256)":"a94d373b","releasedToVoter(address,uint256)":"4df2114b","runReleaseChecks(uint256)":"c7104046","shares(uint256)":"57a858fc","totalReleased()":"e33b7de3","totalShares()":"3a98ef39","underlyingContest()":"f3f44fb7","version()":"54fd4d50","withdrawRewards()":"c7b8981c","withdrawRewards(address)":"42d86693"},"id":61}