{"abi":[{"type":"constructor","inputs":[{"name":"_name","type":"string","internalType":"string"},{"name":"_prompt","type":"string","internalType":"string"},{"name":"_submissionMerkleRoot","type":"bytes32","internalType":"bytes32"},{"name":"_votingMerkleRoot","type":"bytes32","internalType":"bytes32"},{"name":"_constructorArgs","type":"tuple","internalType":"struct Governor.ConstructorArgs","components":[{"name":"intConstructorArgs","type":"tuple","internalType":"struct Governor.IntConstructorArgs","components":[{"name":"contestStart","type":"uint256","internalType":"uint256"},{"name":"votingDelay","type":"uint256","internalType":"uint256"},{"name":"votingPeriod","type":"uint256","internalType":"uint256"},{"name":"numAllowedProposalSubmissions","type":"uint256","internalType":"uint256"},{"name":"maxProposalCount","type":"uint256","internalType":"uint256"},{"name":"sortingEnabled","type":"uint256","internalType":"uint256"},{"name":"rankLimit","type":"uint256","internalType":"uint256"},{"name":"percentageToCreator","type":"uint256","internalType":"uint256"},{"name":"costToPropose","type":"uint256","internalType":"uint256"},{"name":"costToVote","type":"uint256","internalType":"uint256"},{"name":"payPerVote","type":"uint256","internalType":"uint256"},{"name":"priceCurveType","type":"uint256","internalType":"uint256"},{"name":"multiple","type":"uint256","internalType":"uint256"}]},{"name":"creatorSplitDestination","type":"address","internalType":"address"},{"name":"jkLabsSplitDestination","type":"address","internalType":"address"},{"name":"metadataFieldsSchema","type":"string","internalType":"string"}]}],"stateMutability":"nonpayable"},{"type":"function","name":"AMOUNT_FOR_SUMBITTER_PROOF","inputs":[],"outputs":[{"name":"","type":"uint256","internalType":"uint256"}],"stateMutability":"view"},{"type":"function","name":"COST_ROUNDING_VALUE","inputs":[],"outputs":[{"name":"","type":"uint256","internalType":"uint256"}],"stateMutability":"view"},{"type":"function","name":"JK_LABS_ADDRESS","inputs":[],"outputs":[{"name":"","type":"address","internalType":"address"}],"stateMutability":"view"},{"type":"function","name":"MAX_FIELDS_METADATA_LENGTH","inputs":[],"outputs":[{"name":"","type":"uint256","internalType":"uint256"}],"stateMutability":"view"},{"type":"function","name":"METADATAS_COUNT","inputs":[],"outputs":[{"name":"","type":"uint256","internalType":"uint256"}],"stateMutability":"view"},{"type":"function","name":"PRICE_CURVE_UPDATE_INTERVAL","inputs":[],"outputs":[{"name":"","type":"uint256","internalType":"uint256"}],"stateMutability":"view"},{"type":"function","name":"SECONDS_IN_WEEK","inputs":[],"outputs":[{"name":"","type":"uint256","internalType":"uint256"}],"stateMutability":"view"},{"type":"function","name":"addressSubmitterVerified","inputs":[{"name":"","type":"address","internalType":"address"}],"outputs":[{"name":"","type":"bool","internalType":"bool"}],"stateMutability":"view"},{"type":"function","name":"addressTotalCastVoteCount","inputs":[{"name":"","type":"address","internalType":"address"}],"outputs":[{"name":"","type":"uint256","internalType":"uint256"}],"stateMutability":"view"},{"type":"function","name":"addressTotalVotes","inputs":[{"name":"","type":"address","internalType":"address"}],"outputs":[{"name":"","type":"uint256","internalType":"uint256"}],"stateMutability":"view"},{"type":"function","name":"addressTotalVotesVerified","inputs":[{"name":"","type":"address","internalType":"address"}],"outputs":[{"name":"","type":"bool","internalType":"bool"}],"stateMutability":"view"},{"type":"function","name":"addressesThatHaveVoted","inputs":[{"name":"","type":"uint256","internalType":"uint256"}],"outputs":[{"name":"","type":"address","internalType":"address"}],"stateMutability":"view"},{"type":"function","name":"allProposalTotalVotes","inputs":[],"outputs":[{"name":"proposalIdsReturn","type":"uint256[]","internalType":"uint256[]"},{"name":"proposalVoteCountsArrayReturn","type":"uint256[]","internalType":"uint256[]"}],"stateMutability":"view"},{"type":"function","name":"cancel","inputs":[],"outputs":[],"stateMutability":"nonpayable"},{"type":"function","name":"canceled","inputs":[],"outputs":[{"name":"","type":"bool","internalType":"bool"}],"stateMutability":"view"},{"type":"function","name":"castVote","inputs":[{"name":"proposalId","type":"uint256","internalType":"uint256"},{"name":"totalVotes","type":"uint256","internalType":"uint256"},{"name":"numVotes","type":"uint256","internalType":"uint256"},{"name":"proof","type":"bytes32[]","internalType":"bytes32[]"}],"outputs":[{"name":"","type":"uint256","internalType":"uint256"}],"stateMutability":"payable"},{"type":"function","name":"castVoteWithoutProof","inputs":[{"name":"proposalId","type":"uint256","internalType":"uint256"},{"name":"numVotes","type":"uint256","internalType":"uint256"}],"outputs":[{"name":"","type":"uint256","internalType":"uint256"}],"stateMutability":"payable"},{"type":"function","name":"checkProof","inputs":[{"name":"addressToCheck","type":"address","internalType":"address"},{"name":"amount","type":"uint256","internalType":"uint256"},{"name":"proof","type":"bytes32[]","internalType":"bytes32[]"},{"name":"voting","type":"bool","internalType":"bool"}],"outputs":[{"name":"verified","type":"bool","internalType":"bool"}],"stateMutability":"view"},{"type":"function","name":"comment","inputs":[{"name":"proposalId","type":"uint256","internalType":"uint256"},{"name":"commentContent","type":"string","internalType":"string"}],"outputs":[{"name":"","type":"uint256","internalType":"uint256"}],"stateMutability":"nonpayable"},{"type":"function","name":"commentIds","inputs":[{"name":"","type":"uint256","internalType":"uint256"}],"outputs":[{"name":"","type":"uint256","internalType":"uint256"}],"stateMutability":"view"},{"type":"function","name":"commentIsDeleted","inputs":[{"name":"","type":"uint256","internalType":"uint256"}],"outputs":[{"name":"","type":"bool","internalType":"bool"}],"stateMutability":"view"},{"type":"function","name":"comments","inputs":[{"name":"","type":"uint256","internalType":"uint256"}],"outputs":[{"name":"author","type":"address","internalType":"address"},{"name":"timestamp","type":"uint256","internalType":"uint256"},{"name":"proposalId","type":"uint256","internalType":"uint256"},{"name":"commentContent","type":"string","internalType":"string"}],"stateMutability":"view"},{"type":"function","name":"contestAddressTotalVotesCast","inputs":[{"name":"userAddress","type":"address","internalType":"address"}],"outputs":[{"name":"userTotalVotesCast","type":"uint256","internalType":"uint256"}],"stateMutability":"view"},{"type":"function","name":"contestDeadline","inputs":[],"outputs":[{"name":"","type":"uint256","internalType":"uint256"}],"stateMutability":"view"},{"type":"function","name":"contestStart","inputs":[],"outputs":[{"name":"","type":"uint256","internalType":"uint256"}],"stateMutability":"view"},{"type":"function","name":"costToPropose","inputs":[],"outputs":[{"name":"","type":"uint256","internalType":"uint256"}],"stateMutability":"view"},{"type":"function","name":"costToVote","inputs":[],"outputs":[{"name":"","type":"uint256","internalType":"uint256"}],"stateMutability":"view"},{"type":"function","name":"creator","inputs":[],"outputs":[{"name":"","type":"address","internalType":"address"}],"stateMutability":"view"},{"type":"function","name":"creatorSplitDestination","inputs":[],"outputs":[{"name":"","type":"address","internalType":"address"}],"stateMutability":"view"},{"type":"function","name":"currentPricePerVote","inputs":[],"outputs":[{"name":"","type":"uint256","internalType":"uint256"}],"stateMutability":"view"},{"type":"function","name":"deleteComments","inputs":[{"name":"commentIdsParam","type":"uint256[]","internalType":"uint256[]"}],"outputs":[],"stateMutability":"nonpayable"},{"type":"function","name":"deleteProposals","inputs":[{"name":"proposalIdsToDelete","type":"uint256[]","internalType":"uint256[]"}],"outputs":[],"stateMutability":"nonpayable"},{"type":"function","name":"deletedCommentIds","inputs":[{"name":"","type":"uint256","internalType":"uint256"}],"outputs":[{"name":"","type":"uint256","internalType":"uint256"}],"stateMutability":"view"},{"type":"function","name":"deletedProposalIds","inputs":[{"name":"","type":"uint256","internalType":"uint256"}],"outputs":[{"name":"","type":"uint256","internalType":"uint256"}],"stateMutability":"view"},{"type":"function","name":"getAllAddressesThatHaveVoted","inputs":[],"outputs":[{"name":"","type":"address[]","internalType":"address[]"}],"stateMutability":"view"},{"type":"function","name":"getAllAuthorsOfDeletedProposals","inputs":[],"outputs":[{"name":"","type":"address[]","internalType":"address[]"}],"stateMutability":"view"},{"type":"function","name":"getAllCommentIds","inputs":[],"outputs":[{"name":"","type":"uint256[]","internalType":"uint256[]"}],"stateMutability":"view"},{"type":"function","name":"getAllDeletedCommentIds","inputs":[],"outputs":[{"name":"","type":"uint256[]","internalType":"uint256[]"}],"stateMutability":"view"},{"type":"function","name":"getAllDeletedProposalIds","inputs":[],"outputs":[{"name":"","type":"uint256[]","internalType":"uint256[]"}],"stateMutability":"view"},{"type":"function","name":"getAllProposalAuthors","inputs":[],"outputs":[{"name":"","type":"address[]","internalType":"address[]"}],"stateMutability":"view"},{"type":"function","name":"getAllProposalIds","inputs":[],"outputs":[{"name":"","type":"uint256[]","internalType":"uint256[]"}],"stateMutability":"view"},{"type":"function","name":"getComment","inputs":[{"name":"commentId","type":"uint256","internalType":"uint256"}],"outputs":[{"name":"","type":"tuple","internalType":"struct GovernorEngagement.CommentCore","components":[{"name":"author","type":"address","internalType":"address"},{"name":"timestamp","type":"uint256","internalType":"uint256"},{"name":"proposalId","type":"uint256","internalType":"uint256"},{"name":"commentContent","type":"string","internalType":"string"}]}],"stateMutability":"view"},{"type":"function","name":"getNumProposalsWithThisManyVotes","inputs":[{"name":"votes","type":"uint256","internalType":"uint256"}],"outputs":[{"name":"count","type":"uint256","internalType":"uint256"}],"stateMutability":"view"},{"type":"function","name":"getOnlyProposalIdWithThisManyVotes","inputs":[{"name":"votes","type":"uint256","internalType":"uint256"}],"outputs":[{"name":"proposalId","type":"uint256","internalType":"uint256"}],"stateMutability":"view"},{"type":"function","name":"getProposal","inputs":[{"name":"proposalId","type":"uint256","internalType":"uint256"}],"outputs":[{"name":"","type":"tuple","internalType":"struct Governor.ProposalCore","components":[{"name":"author","type":"address","internalType":"address"},{"name":"exists","type":"bool","internalType":"bool"},{"name":"description","type":"string","internalType":"string"},{"name":"targetMetadata","type":"tuple","internalType":"struct Governor.TargetMetadata","components":[{"name":"targetAddress","type":"address","internalType":"address"}]},{"name":"safeMetadata","type":"tuple","internalType":"struct Governor.SafeMetadata","components":[{"name":"signers","type":"address[]","internalType":"address[]"},{"name":"threshold","type":"uint256","internalType":"uint256"}]},{"name":"fieldsMetadata","type":"tuple","internalType":"struct Governor.FieldsMetadata","components":[{"name":"addressArray","type":"address[]","internalType":"address[]"},{"name":"stringArray","type":"string[]","internalType":"string[]"},{"name":"uintArray","type":"uint256[]","internalType":"uint256[]"}]}]}],"stateMutability":"view"},{"type":"function","name":"getProposalComments","inputs":[{"name":"proposalId","type":"uint256","internalType":"uint256"}],"outputs":[{"name":"","type":"uint256[]","internalType":"uint256[]"}],"stateMutability":"view"},{"type":"function","name":"getProposalsWithThisManyVotes","inputs":[{"name":"votes","type":"uint256","internalType":"uint256"}],"outputs":[{"name":"proposalsWithThisManyVotes","type":"uint256[]","internalType":"uint256[]"}],"stateMutability":"view"},{"type":"function","name":"getRankIndex","inputs":[{"name":"rank","type":"uint256","internalType":"uint256"}],"outputs":[{"name":"rankIndex","type":"uint256","internalType":"uint256"}],"stateMutability":"view"},{"type":"function","name":"getSortedRanks","inputs":[],"outputs":[{"name":"sortedRanksArray","type":"uint256[]","internalType":"uint256[]"}],"stateMutability":"view"},{"type":"function","name":"hashComment","inputs":[{"name":"commentObj","type":"tuple","internalType":"struct GovernorEngagement.CommentCore","components":[{"name":"author","type":"address","internalType":"address"},{"name":"timestamp","type":"uint256","internalType":"uint256"},{"name":"proposalId","type":"uint256","internalType":"uint256"},{"name":"commentContent","type":"string","internalType":"string"}]}],"outputs":[{"name":"","type":"uint256","internalType":"uint256"}],"stateMutability":"pure"},{"type":"function","name":"hashProposal","inputs":[{"name":"proposal","type":"tuple","internalType":"struct Governor.ProposalCore","components":[{"name":"author","type":"address","internalType":"address"},{"name":"exists","type":"bool","internalType":"bool"},{"name":"description","type":"string","internalType":"string"},{"name":"targetMetadata","type":"tuple","internalType":"struct Governor.TargetMetadata","components":[{"name":"targetAddress","type":"address","internalType":"address"}]},{"name":"safeMetadata","type":"tuple","internalType":"struct Governor.SafeMetadata","components":[{"name":"signers","type":"address[]","internalType":"address[]"},{"name":"threshold","type":"uint256","internalType":"uint256"}]},{"name":"fieldsMetadata","type":"tuple","internalType":"struct Governor.FieldsMetadata","components":[{"name":"addressArray","type":"address[]","internalType":"address[]"},{"name":"stringArray","type":"string[]","internalType":"string[]"},{"name":"uintArray","type":"uint256[]","internalType":"uint256[]"}]}]}],"outputs":[{"name":"","type":"uint256","internalType":"uint256"}],"stateMutability":"pure"},{"type":"function","name":"isOrIsBelowTiedRank","inputs":[{"name":"idx","type":"uint256","internalType":"uint256"}],"outputs":[{"name":"atOrBelowTiedRank","type":"bool","internalType":"bool"}],"stateMutability":"view"},{"type":"function","name":"jkLabsSplitDestination","inputs":[],"outputs":[{"name":"","type":"address","internalType":"address"}],"stateMutability":"view"},{"type":"function","name":"maxProposalCount","inputs":[],"outputs":[{"name":"","type":"uint256","internalType":"uint256"}],"stateMutability":"view"},{"type":"function","name":"metadataFieldsSchema","inputs":[],"outputs":[{"name":"","type":"string","internalType":"string"}],"stateMutability":"view"},{"type":"function","name":"multiple","inputs":[],"outputs":[{"name":"","type":"uint256","internalType":"uint256"}],"stateMutability":"view"},{"type":"function","name":"name","inputs":[],"outputs":[{"name":"","type":"string","internalType":"string"}],"stateMutability":"view"},{"type":"function","name":"numAllowedProposalSubmissions","inputs":[],"outputs":[{"name":"","type":"uint256","internalType":"uint256"}],"stateMutability":"view"},{"type":"function","name":"numSubmissions","inputs":[{"name":"","type":"address","internalType":"address"}],"outputs":[{"name":"","type":"uint256","internalType":"uint256"}],"stateMutability":"view"},{"type":"function","name":"officialRewardsModule","inputs":[],"outputs":[{"name":"","type":"address","internalType":"address"}],"stateMutability":"view"},{"type":"function","name":"payPerVote","inputs":[],"outputs":[{"name":"","type":"uint256","internalType":"uint256"}],"stateMutability":"view"},{"type":"function","name":"percentageToCreator","inputs":[],"outputs":[{"name":"","type":"uint256","internalType":"uint256"}],"stateMutability":"view"},{"type":"function","name":"priceCurveType","inputs":[],"outputs":[{"name":"","type":"uint256","internalType":"uint256"}],"stateMutability":"view"},{"type":"function","name":"prompt","inputs":[],"outputs":[{"name":"","type":"string","internalType":"string"}],"stateMutability":"view"},{"type":"function","name":"proposalAddressVotes","inputs":[{"name":"proposalId","type":"uint256","internalType":"uint256"},{"name":"userAddress","type":"address","internalType":"address"}],"outputs":[{"name":"voteCount","type":"uint256","internalType":"uint256"}],"stateMutability":"view"},{"type":"function","name":"proposalAddressesHaveVoted","inputs":[{"name":"proposalId","type":"uint256","internalType":"uint256"}],"outputs":[{"name":"","type":"address[]","internalType":"address[]"}],"stateMutability":"view"},{"type":"function","name":"proposalAuthors","inputs":[{"name":"","type":"uint256","internalType":"uint256"}],"outputs":[{"name":"","type":"address","internalType":"address"}],"stateMutability":"view"},{"type":"function","name":"proposalComments","inputs":[{"name":"","type":"uint256","internalType":"uint256"},{"name":"","type":"uint256","internalType":"uint256"}],"outputs":[{"name":"","type":"uint256","internalType":"uint256"}],"stateMutability":"view"},{"type":"function","name":"proposalIds","inputs":[{"name":"","type":"uint256","internalType":"uint256"}],"outputs":[{"name":"","type":"uint256","internalType":"uint256"}],"stateMutability":"view"},{"type":"function","name":"proposalIsDeleted","inputs":[{"name":"","type":"uint256","internalType":"uint256"}],"outputs":[{"name":"","type":"bool","internalType":"bool"}],"stateMutability":"view"},{"type":"function","name":"proposalVoteStructs","inputs":[{"name":"","type":"uint256","internalType":"uint256"}],"outputs":[{"name":"proposalVoteCount","type":"uint256","internalType":"uint256"}],"stateMutability":"view"},{"type":"function","name":"proposalVotes","inputs":[{"name":"proposalId","type":"uint256","internalType":"uint256"}],"outputs":[{"name":"voteCount","type":"uint256","internalType":"uint256"}],"stateMutability":"view"},{"type":"function","name":"proposals","inputs":[{"name":"","type":"uint256","internalType":"uint256"}],"outputs":[{"name":"author","type":"address","internalType":"address"},{"name":"exists","type":"bool","internalType":"bool"},{"name":"description","type":"string","internalType":"string"},{"name":"targetMetadata","type":"tuple","internalType":"struct Governor.TargetMetadata","components":[{"name":"targetAddress","type":"address","internalType":"address"}]},{"name":"safeMetadata","type":"tuple","internalType":"struct Governor.SafeMetadata","components":[{"name":"signers","type":"address[]","internalType":"address[]"},{"name":"threshold","type":"uint256","internalType":"uint256"}]},{"name":"fieldsMetadata","type":"tuple","internalType":"struct Governor.FieldsMetadata","components":[{"name":"addressArray","type":"address[]","internalType":"address[]"},{"name":"stringArray","type":"string[]","internalType":"string[]"},{"name":"uintArray","type":"uint256[]","internalType":"uint256[]"}]}],"stateMutability":"view"},{"type":"function","name":"propose","inputs":[{"name":"proposal","type":"tuple","internalType":"struct Governor.ProposalCore","components":[{"name":"author","type":"address","internalType":"address"},{"name":"exists","type":"bool","internalType":"bool"},{"name":"description","type":"string","internalType":"string"},{"name":"targetMetadata","type":"tuple","internalType":"struct Governor.TargetMetadata","components":[{"name":"targetAddress","type":"address","internalType":"address"}]},{"name":"safeMetadata","type":"tuple","internalType":"struct Governor.SafeMetadata","components":[{"name":"signers","type":"address[]","internalType":"address[]"},{"name":"threshold","type":"uint256","internalType":"uint256"}]},{"name":"fieldsMetadata","type":"tuple","internalType":"struct Governor.FieldsMetadata","components":[{"name":"addressArray","type":"address[]","internalType":"address[]"},{"name":"stringArray","type":"string[]","internalType":"string[]"},{"name":"uintArray","type":"uint256[]","internalType":"uint256[]"}]}]},{"name":"proof","type":"bytes32[]","internalType":"bytes32[]"}],"outputs":[{"name":"","type":"uint256","internalType":"uint256"}],"stateMutability":"payable"},{"type":"function","name":"proposeWithoutProof","inputs":[{"name":"proposal","type":"tuple","internalType":"struct Governor.ProposalCore","components":[{"name":"author","type":"address","internalType":"address"},{"name":"exists","type":"bool","internalType":"bool"},{"name":"description","type":"string","internalType":"string"},{"name":"targetMetadata","type":"tuple","internalType":"struct Governor.TargetMetadata","components":[{"name":"targetAddress","type":"address","internalType":"address"}]},{"name":"safeMetadata","type":"tuple","internalType":"struct Governor.SafeMetadata","components":[{"name":"signers","type":"address[]","internalType":"address[]"},{"name":"threshold","type":"uint256","internalType":"uint256"}]},{"name":"fieldsMetadata","type":"tuple","internalType":"struct Governor.FieldsMetadata","components":[{"name":"addressArray","type":"address[]","internalType":"address[]"},{"name":"stringArray","type":"string[]","internalType":"string[]"},{"name":"uintArray","type":"uint256[]","internalType":"uint256[]"}]}]}],"outputs":[{"name":"","type":"uint256","internalType":"uint256"}],"stateMutability":"payable"},{"type":"function","name":"rankLimit","inputs":[],"outputs":[{"name":"","type":"uint256","internalType":"uint256"}],"stateMutability":"view"},{"type":"function","name":"setCreatorSplitDestination","inputs":[{"name":"newCreatorSplitDestination","type":"address","internalType":"address"}],"outputs":[],"stateMutability":"nonpayable"},{"type":"function","name":"setJkLabsSplitDestination","inputs":[{"name":"newJkLabsSplitDestination","type":"address","internalType":"address"}],"outputs":[],"stateMutability":"nonpayable"},{"type":"function","name":"setName","inputs":[{"name":"newName","type":"string","internalType":"string"}],"outputs":[{"name":"","type":"string","internalType":"string"}],"stateMutability":"nonpayable"},{"type":"function","name":"setOfficialRewardsModule","inputs":[{"name":"officialRewardsModule_","type":"address","internalType":"address"}],"outputs":[],"stateMutability":"nonpayable"},{"type":"function","name":"setPrompt","inputs":[{"name":"newPrompt","type":"string","internalType":"string"}],"outputs":[{"name":"","type":"string","internalType":"string"}],"stateMutability":"nonpayable"},{"type":"function","name":"sortedRanks","inputs":[{"name":"","type":"uint256","internalType":"uint256"}],"outputs":[{"name":"","type":"uint256","internalType":"uint256"}],"stateMutability":"view"},{"type":"function","name":"sortingEnabled","inputs":[],"outputs":[{"name":"","type":"uint256","internalType":"uint256"}],"stateMutability":"view"},{"type":"function","name":"state","inputs":[],"outputs":[{"name":"","type":"uint8","internalType":"enum Governor.ContestState"}],"stateMutability":"view"},{"type":"function","name":"submissionMerkleRoot","inputs":[],"outputs":[{"name":"","type":"bytes32","internalType":"bytes32"}],"stateMutability":"view"},{"type":"function","name":"totalVotesCast","inputs":[],"outputs":[{"name":"","type":"uint256","internalType":"uint256"}],"stateMutability":"view"},{"type":"function","name":"totalVotesCastIsZero","inputs":[],"outputs":[{"name":"totalVotesCastZero","type":"bool","internalType":"bool"}],"stateMutability":"view"},{"type":"function","name":"validateProposalData","inputs":[{"name":"proposal","type":"tuple","internalType":"struct Governor.ProposalCore","components":[{"name":"author","type":"address","internalType":"address"},{"name":"exists","type":"bool","internalType":"bool"},{"name":"description","type":"string","internalType":"string"},{"name":"targetMetadata","type":"tuple","internalType":"struct Governor.TargetMetadata","components":[{"name":"targetAddress","type":"address","internalType":"address"}]},{"name":"safeMetadata","type":"tuple","internalType":"struct Governor.SafeMetadata","components":[{"name":"signers","type":"address[]","internalType":"address[]"},{"name":"threshold","type":"uint256","internalType":"uint256"}]},{"name":"fieldsMetadata","type":"tuple","internalType":"struct Governor.FieldsMetadata","components":[{"name":"addressArray","type":"address[]","internalType":"address[]"},{"name":"stringArray","type":"string[]","internalType":"string[]"},{"name":"uintArray","type":"uint256[]","internalType":"uint256[]"}]}]}],"outputs":[],"stateMutability":"view"},{"type":"function","name":"verifyProposer","inputs":[{"name":"account","type":"address","internalType":"address"},{"name":"proof","type":"bytes32[]","internalType":"bytes32[]"}],"outputs":[],"stateMutability":"nonpayable"},{"type":"function","name":"verifyVoter","inputs":[{"name":"account","type":"address","internalType":"address"},{"name":"totalVotes","type":"uint256","internalType":"uint256"},{"name":"proof","type":"bytes32[]","internalType":"bytes32[]"}],"outputs":[],"stateMutability":"nonpayable"},{"type":"function","name":"version","inputs":[],"outputs":[{"name":"","type":"string","internalType":"string"}],"stateMutability":"pure"},{"type":"function","name":"voteStart","inputs":[],"outputs":[{"name":"","type":"uint256","internalType":"uint256"}],"stateMutability":"view"},{"type":"function","name":"votesToProposalIds","inputs":[{"name":"","type":"uint256","internalType":"uint256"},{"name":"","type":"uint256","internalType":"uint256"}],"outputs":[{"name":"","type":"uint256","internalType":"uint256"}],"stateMutability":"view"},{"type":"function","name":"votingDelay","inputs":[],"outputs":[{"name":"","type":"uint256","internalType":"uint256"}],"stateMutability":"view"},{"type":"function","name":"votingMerkleRoot","inputs":[],"outputs":[{"name":"","type":"bytes32","internalType":"bytes32"}],"stateMutability":"view"},{"type":"function","name":"votingPeriod","inputs":[],"outputs":[{"name":"","type":"uint256","internalType":"uint256"}],"stateMutability":"view"},{"type":"event","name":"CommentCreated","inputs":[{"name":"commentId","type":"uint256","indexed":false,"internalType":"uint256"}],"anonymous":false},{"type":"event","name":"CommentsDeleted","inputs":[{"name":"commentIds","type":"uint256[]","indexed":false,"internalType":"uint256[]"}],"anonymous":false},{"type":"event","name":"ContestCanceled","inputs":[],"anonymous":false},{"type":"event","name":"CreatorPaymentReleased","inputs":[{"name":"to","type":"address","indexed":false,"internalType":"address"},{"name":"amount","type":"uint256","indexed":false,"internalType":"uint256"}],"anonymous":false},{"type":"event","name":"JkLabsPaymentReleased","inputs":[{"name":"to","type":"address","indexed":false,"internalType":"address"},{"name":"amount","type":"uint256","indexed":false,"internalType":"uint256"}],"anonymous":false},{"type":"event","name":"JokeraceCreated","inputs":[{"name":"version","type":"string","indexed":false,"internalType":"string"},{"name":"name","type":"string","indexed":false,"internalType":"string"},{"name":"prompt","type":"string","indexed":false,"internalType":"string"},{"name":"creator","type":"address","indexed":false,"internalType":"address"},{"name":"contestStart","type":"uint256","indexed":false,"internalType":"uint256"},{"name":"votingDelay","type":"uint256","indexed":false,"internalType":"uint256"},{"name":"votingPeriod","type":"uint256","indexed":false,"internalType":"uint256"}],"anonymous":false},{"type":"event","name":"OfficialRewardsModuleSet","inputs":[{"name":"oldOfficialRewardsModule","type":"address","indexed":false,"internalType":"address"},{"name":"newOfficialRewardsModule","type":"address","indexed":false,"internalType":"address"}],"anonymous":false},{"type":"event","name":"ProposalCreated","inputs":[{"name":"proposalId","type":"uint256","indexed":false,"internalType":"uint256"},{"name":"proposer","type":"address","indexed":false,"internalType":"address"},{"name":"proposalDescription","type":"string","indexed":false,"internalType":"string"}],"anonymous":false},{"type":"event","name":"ProposalsDeleted","inputs":[{"name":"proposalIds","type":"uint256[]","indexed":false,"internalType":"uint256[]"}],"anonymous":false},{"type":"event","name":"VoteCast","inputs":[{"name":"voter","type":"address","indexed":true,"internalType":"address"},{"name":"proposalId","type":"uint256","indexed":false,"internalType":"uint256"},{"name":"numVotes","type":"uint256","indexed":false,"internalType":"uint256"}],"anonymous":false},{"type":"error","name":"AddressFieldMetadataArrayTooLong","inputs":[]},{"type":"error","name":"AddressNotPermissionedToSubmit","inputs":[]},{"type":"error","name":"AuthorIsNotSender","inputs":[{"name":"author","type":"address","internalType":"address"},{"name":"sender","type":"address","internalType":"address"}]},{"type":"error","name":"CanOnlyCancelBeforeFirstVote","inputs":[]},{"type":"error","name":"CanOnlyDeleteWhenQueued","inputs":[]},{"type":"error","name":"CannotCommentWhenCompletedOrCanceled","inputs":[]},{"type":"error","name":"CannotDeleteWhenCompletedOrCanceled","inputs":[]},{"type":"error","name":"CannotSetWhenCompletedOrCanceled","inputs":[]},{"type":"error","name":"CannotUpdateWhenCompletedOrCanceled","inputs":[]},{"type":"error","name":"CannotVoteLessThanOneVoteInPayPerVote","inputs":[]},{"type":"error","name":"CannotVoteOnDeletedProposal","inputs":[]},{"type":"error","name":"ContestAlreadyCanceled","inputs":[]},{"type":"error","name":"ContestMustBeActiveToGetCurrentVotePrice","inputs":[{"name":"currentState","type":"uint8","internalType":"enum Governor.ContestState"}]},{"type":"error","name":"ContestMustBeActiveToVote","inputs":[{"name":"currentState","type":"uint8","internalType":"enum Governor.ContestState"}]},{"type":"error","name":"ContestMustBeQueuedToPropose","inputs":[{"name":"currentState","type":"uint8","internalType":"enum Governor.ContestState"}]},{"type":"error","name":"ContestSubmissionLimitReached","inputs":[{"name":"maxProposalCount","type":"uint256","internalType":"uint256"}]},{"type":"error","name":"DuplicateSubmission","inputs":[{"name":"proposalId","type":"uint256","internalType":"uint256"}]},{"type":"error","name":"EmptyProposalDescription","inputs":[]},{"type":"error","name":"IncorrectCostSent","inputs":[{"name":"msgValue","type":"uint256","internalType":"uint256"},{"name":"costToVote","type":"uint256","internalType":"uint256"}]},{"type":"error","name":"IndexHasNotBeenPopulated","inputs":[]},{"type":"error","name":"MoreThanOneProposalWithThisManyVotes","inputs":[]},{"type":"error","name":"NeedAtLeastOneVoteToVote","inputs":[]},{"type":"error","name":"NeedToSubmitWithProofFirst","inputs":[]},{"type":"error","name":"NeedToVoteWithProofFirst","inputs":[]},{"type":"error","name":"NotAPayPerVoteContest","inputs":[]},{"type":"error","name":"NotEnoughVotesLeft","inputs":[]},{"type":"error","name":"NotInMerkle","inputs":[]},{"type":"error","name":"OfficialRewardsModuleMustPointToThisContest","inputs":[]},{"type":"error","name":"OnlyCreatorCanAmend","inputs":[]},{"type":"error","name":"OnlyCreatorCanSetName","inputs":[]},{"type":"error","name":"OnlyCreatorCanSetPrompt","inputs":[]},{"type":"error","name":"OnlyCreatorCanSetRewardsModule","inputs":[]},{"type":"error","name":"OnlyCreatorOrAuthorCanDeleteComments","inputs":[{"name":"failedToDeleteCommentId","type":"uint256","internalType":"uint256"}]},{"type":"error","name":"OnlyCreatorOrEntrantCanDelete","inputs":[]},{"type":"error","name":"OnlyCreatorOrJkLabsCanCancel","inputs":[]},{"type":"error","name":"OnlyJkLabsCanAmend","inputs":[]},{"type":"error","name":"PRBMath_MulDiv18_Overflow","inputs":[{"name":"x","type":"uint256","internalType":"uint256"},{"name":"y","type":"uint256","internalType":"uint256"}]},{"type":"error","name":"PRBMath_MulDiv_Overflow","inputs":[{"name":"x","type":"uint256","internalType":"uint256"},{"name":"y","type":"uint256","internalType":"uint256"},{"name":"denominator","type":"uint256","internalType":"uint256"}]},{"type":"error","name":"PRBMath_UD60x18_Exp2_InputTooBig","inputs":[{"name":"x","type":"uint256","internalType":"UD60x18"}]},{"type":"error","name":"PayPerVoteMustBeEnabledForAnyoneCanVote","inputs":[]},{"type":"error","name":"PeriodsCannotBeMoreThanAWeek","inputs":[]},{"type":"error","name":"RankCannotBeZero","inputs":[]},{"type":"error","name":"RankIsNotInSortedRanks","inputs":[]},{"type":"error","name":"SenderSubmissionLimitReached","inputs":[{"name":"numAllowedProposalSubmissions","type":"uint256","internalType":"uint256"}]},{"type":"error","name":"StringFieldMetadataArrayTooLong","inputs":[]},{"type":"error","name":"UintFieldMetadataArrayTooLong","inputs":[]},{"type":"error","name":"UnexpectedMetadata","inputs":[{"name":"unexpectedMetadata","type":"uint8","internalType":"enum Governor.Metadatas"}]},{"type":"error","name":"ZeroSignersInSafeMetadata","inputs":[]},{"type":"error","name":"ZeroThresholdInSafeMetadata","inputs":[]}],"bytecode":{"object":"0x60806040523480156200001157600080fd5b506040516200630138038062006301833981016040819052620000349162000348565b805160a081015160c09091015160009190915560015560038390556004829055848482600562000065848262000588565b50600662000074838262000588565b5060078054336001600160a01b03199182161790915581518051600855602080820151600955604080830151600a55606080840151600b556080840151600c5560e0840151600d55610100840151600e55610120840151600f5561014084015160105561016084015160115561018090930151601255908401516013805485166001600160a01b03928316179055908401516014805490941691161790915581015160159062000125908262000588565b506040805180820182526004815263352e313160e01b60208083019190915283518051918101519084015193517f9a9bca21e4e51607db64fbdbcd7b2284a909c6a8969821f0d161efbdcae70160946200018794938993899333939062000682565b60405180910390a15050821590508015620001a6575080516101400151155b15620001c5576040516397b6be7d60e01b815260040160405180910390fd5b80516020015162093a801080620001e3575080516040015162093a80105b15620002025760405163222e847d60e21b815260040160405180910390fd5b5050505050620006f1565b634e487b7160e01b600052604160045260246000fd5b604051608081016001600160401b03811182821017156200024857620002486200020d565b60405290565b6040516101a081016001600160401b03811182821017156200024857620002486200020d565b60005b838110156200029157818101518382015260200162000277565b50506000910152565b600082601f830112620002ac57600080fd5b81516001600160401b0380821115620002c957620002c96200020d565b604051601f8301601f19908116603f01168101908282118183101715620002f457620002f46200020d565b816040528381528660208588010111156200030e57600080fd5b6200032184602083016020890162000274565b9695505050505050565b80516001600160a01b03811681146200034357600080fd5b919050565b600080600080600060a086880312156200036157600080fd5b85516001600160401b03808211156200037957600080fd5b6200038789838a016200029a565b965060208801519150808211156200039e57600080fd5b620003ac89838a016200029a565b955060408801519450606088015193506080880151915080821115620003d157600080fd5b90870190818903610200811215620003e857600080fd5b620003f262000223565b6101a0808312156200040357600080fd5b6200040d6200024e565b9250845183526020850151602084015260408501516040840152606085015160608401526080850151608084015260a085015160a084015260c085015160c084015260e085015160e0840152610100808601518185015250610120808601518185015250610140808601518185015250610160808601518185015250610180808601518185015250828252620004a58186016200032b565b602083015250620004ba6101c085016200032b565b60408201526101e0840151915082821115620004d557600080fd5b620004e38b8386016200029a565b6060820152809450505050509295509295909350565b600181811c908216806200050e57607f821691505b6020821081036200052f57634e487b7160e01b600052602260045260246000fd5b50919050565b601f8211156200058357600081815260208120601f850160051c810160208610156200055e5750805b601f850160051c820191505b818110156200057f578281556001016200056a565b5050505b505050565b81516001600160401b03811115620005a457620005a46200020d565b620005bc81620005b58454620004f9565b8462000535565b602080601f831160018114620005f45760008415620005db5750858301515b600019600386901b1c1916600185901b1785556200057f565b600085815260208120601f198616915b82811015620006255788860151825594840194600190910190840162000604565b5085821015620006445787850151600019600388901b60f8161c191681555b5050505050600190811b01905550565b600081518084526200066e81602086016020860162000274565b601f01601f19169290920160200192915050565b60e0815260006200069760e083018a62000654565b8281036020840152620006ab818a62000654565b90508281036040840152620006c1818962000654565b6001600160a01b039790971660608401525050608081019390935260a083019190915260c0909101529392505050565b615c0080620007016000396000f3fe6080604052600436106105225760003560e01c8063832009af116102a2578063cbdc27cb11610165578063edcd1be4116100cc578063f61736f411610085578063f61736f41461103f578063f79c01721461105f578063f823f1101461108f578063f82e54c0146110a2578063fb9bf8d4146110c2578063fd7971c9146110d857600080fd5b8063edcd1be414610f8c578063eef18e1714610fa2578063efa90d3614610fca578063f0a7db0a14610fdf578063f4f3d7ec14610fff578063f5c364111461101f57600080fd5b8063dea5f6a61161011e578063dea5f6a614610ef0578063e031535b14610f1d578063e088b29e14610f32578063e11db9d814610f49578063e269cefe14610f5e578063ea8a1af014610f7757600080fd5b8063cbdc27cb14610e38578063d140d9f014610e4d578063d576b81d14610e6d578063d798902514610e8d578063dd96a19d14610ead578063dda54fcf14610ec357600080fd5b8063aec116b611610209578063c05f4104116101c2578063c05f410414610d65578063c19d93fb14610d85578063c47f002714610da7578063c7f758a814610dc7578063ca09a4c414610df4578063cb85395014610e0957600080fd5b8063aec116b614610c97578063b323580d14610ccd578063b382543f14610ced578063b4ac024f14610d02578063bc022c9814610d22578063bddc164114610d4f57600080fd5b80639b338aa01161025b5780639b338aa014610be15780639b644a2314610c01578063a84ff54b14610c21578063ab5e694714610c34578063ac67f80114610c47578063ae66b8ad14610c6757600080fd5b8063832009af14610b2357806389ab5f5414610b395780638ebb4c1514610b4c5780639174778c14610b7c578063930de97914610b9c578063946369b514610bcc57600080fd5b80633fb57c92116103ea5780635c7107d8116103515780636fd3636b1161030a5780636fd3636b14610a8057806375e509c514610a95578063785ddfe514610ac25780637c65d71114610ae25780637d74292514610af75780637de418d514610b0d57600080fd5b80635c7107d8146109b95780635cb718a1146109d957806360ed97a9146109ee5780636d03062114610a035780636e4eb81014610a235780636ed815ad14610a6a57600080fd5b806350a5e524116103a357806350a5e524146108e657806350c4b6161461090957806351a41dec14610929578063531bd8121461093f578063544ffc9c1461095f57806354fd4d501461098c57600080fd5b80633fb57c9214610845578063409fd03014610865578063437a8ae6146108855780634a2c96ec1461089b5780634a587ad4146108b15780634d24a67f146108d157600080fd5b8063146230f61161048e578063325cc6d911610447578063325cc6d91461079357806332763c22146107b3578063347cf665146107e3578063366ecf5b146107ff5780633932abb1146108155780633f9942ff1461082b57600080fd5b8063146230f6146106cd57806315dee7cd146106ef5780631805c5231461071c57806320b3e8451461073c578063262e59e91461075c5780632c39805f1461077157600080fd5b806305846cae116104e057806305846cae146105fc57806306fdde031461061c5780630800e3001461063e5780630aa25e441461066b578063102613d81461068b5780631242b737146106ab57600080fd5b80624114a814610527578063013cf08b1461055057806302a251a31461058257806302d05d3f1461059857806303f7eed6146105d05780630414126a146105e6575b600080fd5b34801561053357600080fd5b5061053d60085481565b6040519081526020015b60405180910390f35b34801561055c57600080fd5b5061057061056b366004614c16565b6110ed565b60405161054796959493929190614da6565b34801561058e57600080fd5b5061053d600a5481565b3480156105a457600080fd5b506007546105b8906001600160a01b031681565b6040516001600160a01b039091168152602001610547565b3480156105dc57600080fd5b5061053d60105481565b3480156105f257600080fd5b5061053d60015481565b34801561060857600080fd5b5061053d610617366004614c16565b6113d8565b34801561062857600080fd5b506106316113f9565b6040516105479190614e00565b34801561064a57600080fd5b5061065e610659366004614c16565b611487565b6040516105479190614e13565b34801561067757600080fd5b506105b8610686366004614c16565b61159b565b34801561069757600080fd5b506014546105b8906001600160a01b031681565b3480156106b757600080fd5b506106c06115c5565b6040516105479190614e54565b3480156106d957600080fd5b506106ed6106e8366004614e8c565b61161d565b005b3480156106fb57600080fd5b5061053d61070a366004614c16565b60236020526000908152604090205481565b34801561072857600080fd5b5061053d610737366004614fa8565b6116c7565b34801561074857600080fd5b506106ed610757366004615039565b611844565b34801561076857600080fd5b5061053d6118b1565b34801561077d57600080fd5b506107866118cd565b604051610547919061508d565b34801561079f57600080fd5b5061053d6107ae366004614c16565b61192e565b3480156107bf57600080fd5b506107d36107ce3660046150ea565b61193e565b6040519015158152602001610547565b3480156107ef57600080fd5b5061053d678ac7230489e8000081565b34801561080b57600080fd5b5061053d60005481565b34801561082157600080fd5b5061053d60095481565b34801561083757600080fd5b506019546107d39060ff1681565b34801561085157600080fd5b5061053d610860366004614c16565b611a3d565b34801561087157600080fd5b5061053d61088036600461515a565b611a4d565b34801561089157600080fd5b5061053d60125481565b3480156108a757600080fd5b5061053d60115481565b3480156108bd57600080fd5b506013546105b8906001600160a01b031681565b3480156108dd57600080fd5b5061053d611a7e565b3480156108f257600080fd5b506108fb611a8d565b604051610547929190615205565b34801561091557600080fd5b506105b8610924366004614c16565b611b58565b34801561093557600080fd5b5061053d600f5481565b34801561094b57600080fd5b506106ed61095a36600461522a565b611b68565b34801561096b57600080fd5b5061053d61097a366004614c16565b60009081526023602052604090205490565b34801561099857600080fd5b50604080518082019091526004815263352e313160e01b6020820152610631565b3480156109c557600080fd5b5061053d6109d4366004614c16565b611bdd565b3480156109e557600080fd5b506106c0611ce4565b3480156109fa57600080fd5b50610631611d3a565b348015610a0f57600080fd5b5061053d610a1e366004615285565b611d47565b348015610a2f57600080fd5b5061053d610a3e3660046152a7565b60008281526023602090815260408083206001600160a01b038516845260020190915290205492915050565b348015610a7657600080fd5b5061053d600e5481565b348015610a8c57600080fd5b506106c0611d78565b348015610aa157600080fd5b5061053d610ab0366004614e8c565b601b6020526000908152604090205481565b348015610ace57600080fd5b506025546105b8906001600160a01b031681565b348015610aee57600080fd5b50610631611dce565b348015610b0357600080fd5b50602154156107d3565b348015610b1957600080fd5b5061053d60215481565b348015610b2f57600080fd5b5061053d600b5481565b61053d610b47366004615285565b611ddb565b348015610b5857600080fd5b50610b6c610b67366004614c16565b611e77565b60405161054794939291906152d7565b348015610b8857600080fd5b506107d3610b97366004614c16565b611f34565b348015610ba857600080fd5b506107d3610bb7366004614e8c565b601f6020526000908152604090205460ff1681565b348015610bd857600080fd5b50610786611fda565b348015610bed57600080fd5b506106ed610bfc366004614e8c565b61203a565b348015610c0d57600080fd5b5061053d610c1c366004614c16565b6120ed565b61053d610c2f36600461530e565b6120fd565b61053d610c42366004615386565b612169565b348015610c5357600080fd5b506106ed610c62366004615448565b6121e2565b348015610c7357600080fd5b506107d3610c82366004614c16565b602a6020526000908152604090205460ff1681565b348015610ca357600080fd5b5061053d610cb2366004614e8c565b6001600160a01b031660009081526022602052604090205490565b348015610cd957600080fd5b50610786610ce8366004614c16565b612379565b348015610cf957600080fd5b5061053d600a81565b348015610d0e57600080fd5b50610631610d1d36600461547c565b6123eb565b348015610d2e57600080fd5b5061053d610d3d366004614c16565b60009081526024602052604090205490565b348015610d5b57600080fd5b5061053d60035481565b348015610d7157600080fd5b506106c0610d80366004614c16565b612489565b348015610d9157600080fd5b50610d9a6124eb565b60405161054791906154c6565b348015610db357600080fd5b50610631610dc236600461547c565b61253c565b348015610dd357600080fd5b50610de7610de2366004614c16565b6125d3565b60405161054791906154e0565b348015610e0057600080fd5b5061053d6128f3565b348015610e1557600080fd5b506107d3610e24366004614e8c565b602080526000908152604090205460ff1681565b348015610e4457600080fd5b50610786612a96565b348015610e5957600080fd5b506106ed610e6836600461584f565b612bc6565b348015610e7957600080fd5b5061053d610e88366004614c16565b612dad565b348015610e9957600080fd5b5061053d610ea836600461584f565b612e0d565b348015610eb957600080fd5b5061053d60045481565b348015610ecf57600080fd5b5061053d610ede366004614e8c565b60226020526000908152604090205481565b348015610efc57600080fd5b5061053d610f0b366004614e8c565b601e6020526000908152604090205481565b348015610f2957600080fd5b5061053d612e20565b348015610f3e57600080fd5b5061053d62093a8081565b348015610f5557600080fd5b506106c0612e32565b348015610f6a57600080fd5b5061053d64e8d4a5100081565b348015610f8357600080fd5b506106ed612e88565b348015610f9857600080fd5b5061053d600d5481565b348015610fae57600080fd5b506105b873dc652c746a8f85e18ce632d97c6118e8a52fa73881565b348015610fd657600080fd5b506106c0612f55565b348015610feb57600080fd5b506106ed610ffa366004615883565b612fab565b34801561100b57600080fd5b506106ed61101a366004614e8c565b61311d565b34801561102b57600080fd5b5061053d61103a366004614c16565b613235565b34801561104b57600080fd5b5061053d61105a366004615285565b613245565b34801561106b57600080fd5b506107d361107a366004614c16565b60186020526000908152604090205460ff1681565b61053d61109d3660046158c4565b613261565b3480156110ae57600080fd5b506106c06110bd366004614c16565b6132aa565b3480156110ce57600080fd5b5061053d600c5481565b3480156110e457600080fd5b5061053d603c81565b601a60205260009081526040902080546001820180546001600160a01b03831693600160a01b90930460ff169291906111259061591f565b80601f01602080910402602001604051908101604052809291908181526020018280546111519061591f565b801561119e5780601f106111735761010080835404028352916020019161119e565b820191906000526020600020905b81548152906001019060200180831161118157829003601f168201915b5050604080516020808201835260028801546001600160a01b03168252825160038901805460609381028301840186529482018581529899939893975090955093508492849184018282801561121d57602002820191906000526020600020905b81546001600160a01b031681526001909101906020018083116111ff575b5050505050815260200160018201548152505090806005016040518060600160405290816000820180548060200260200160405190810160405280929190818152602001828054801561129957602002820191906000526020600020905b81546001600160a01b0316815260019091019060200180831161127b575b5050505050815260200160018201805480602002602001604051908101604052809291908181526020016000905b828210156113735783829060005260206000200180546112e69061591f565b80601f01602080910402602001604051908101604052809291908181526020018280546113129061591f565b801561135f5780601f106113345761010080835404028352916020019161135f565b820191906000526020600020905b81548152906001019060200180831161134257829003601f168201915b5050505050815260200190600101906112c7565b505050508152602001600282018054806020026020016040519081016040528092919081815260200182805480156113ca57602002820191906000526020600020905b8154815260200190600101908083116113b6575b505050505081525050905086565b601781815481106113e857600080fd5b600091825260209091200154905081565b600580546114069061591f565b80601f01602080910402602001604051908101604052809291908181526020018280546114329061591f565b801561147f5780601f106114545761010080835404028352916020019161147f565b820191906000526020600020905b81548152906001019060200180831161146257829003601f168201915b505050505081565b6114bb604051806080016040528060006001600160a01b031681526020016000815260200160008152602001606081525090565b600082815260286020908152604091829020825160808101845281546001600160a01b031681526001820154928101929092526002810154928201929092526003820180549192916060840191906115129061591f565b80601f016020809104026020016040519081016040528092919081815260200182805461153e9061591f565b801561158b5780601f106115605761010080835404028352916020019161158b565b820191906000526020600020905b81548152906001019060200180831161156e57829003601f168201915b5050505050815250509050919050565b601c81815481106115ab57600080fd5b6000918252602090912001546001600160a01b0316905081565b6060601780548060200260200160405190810160405280929190818152602001828054801561161357602002820191906000526020600020905b8154815260200190600101908083116115ff575b5050505050905090565b6007546001600160a01b031633146116485760405163141dbb4960e21b815260040160405180910390fd5b60046116526124eb565b6004811115611663576116636154b0565b1480611687575060026116746124eb565b6004811115611685576116856154b0565b145b156116a5576040516398fe99a560e01b815260040160405180910390fd5b601380546001600160a01b0319166001600160a01b0392909216919091179055565b600060046116d36124eb565b60048111156116e4576116e46154b0565b1480611708575060026116f56124eb565b6004811115611706576117066154b0565b145b156117255760405162f3e73d60e81b815260040160405180910390fd5b6040805160808101825233815242602082015290810184905260608101839052600061175082611a4d565b6026805460018082019092557f744a2cf8fd7008e3d53b67916e73460df9fa5214e3ef23dd4259ca09493a359401829055600082815260286020908152604091829020865181546001600160a01b0319166001600160a01b03909116178155908601519281019290925584015160028201556060840151919250839160038201906117db9082615999565b505050600085815260296020908152604080832080546001810182559084529190922001829055517f5a1a930fed43f34b3a07db782ebcac28a661c273e662bb98458cfba5a8ccd220906118329083815260200190565b60405180910390a19150505b92915050565b6001600160a01b038316600090815260208052604090205460ff166118ac5760035460000361187257505050565b61188883678ac7230489e800008484600061193e565b506001600160a01b03831660009081526020805260409020805460ff191660011790555b505050565b6000600a546118be612e20565b6118c89190615a6e565b905090565b6060601d80548060200260200160405190810160405280929190818152602001828054801561161357602002820191906000526020600020905b81546001600160a01b03168152600190910190602001808311611907575050505050905090565b600281815481106113e857600080fd5b6040516bffffffffffffffffffffffff19606087901b1660208201526034810185905260009081906054016040516020818303038152906040528051906020012090506000836119ce576119c986868080602002602001604051908101604052809392919081815260200183836020028082843760009201919091525050600354915085905061330a565b611a0f565b611a0f86868080602002602001604051908101604052809392919081815260200183836020028082843760009201919091525050600454915085905061330a565b905080611a2f5760405163452c2df160e11b815260040160405180910390fd5b506001979650505050505050565b602781815481106113e857600080fd5b600081604051602001611a609190614e13565b60408051601f19818403018152919052805160209091012092915050565b611a8a60026001615a6e565b81565b6060806000611a9a612f55565b9050600081516001600160401b03811115611ab757611ab7614ea9565b604051908082528060200260200182016040528015611ae0578160200160208202803683370190505b50905060005b8251811015611b4e5760236000848381518110611b0557611b05615a81565b6020026020010151815260200190815260200160002060000154828281518110611b3157611b31615a81565b602090810291909101015280611b4681615a97565b915050611ae6565b5090939092509050565b601d81815481106115ab57600080fd5b60045415801590611b9257506001600160a01b0384166000908152601f602052604090205460ff16155b15611bd757611ba584848484600161193e565b506001600160a01b0384166000908152601e60209081526040808320869055601f9091529020805460ff191660011790555b50505050565b600081600003611c0057604051630ec90a1760e31b815260040160405180910390fd5b60028054604080516020808402820181019092528281529192600092918490830182828015611c4e57602002820191906000526020600020905b815481526020019060010190808311611c3a575b5050505050905060006001905060005b83811015611cca57611c95838281518110611c7b57611c7b615a81565b602002602001015160009081526024602052604090205490565b15611cb857858203611caa5795945050505050565b81611cb481615a97565b9250505b80611cc281615a97565b915050611c5e565b50604051632cc2ab7360e11b815260040160405180910390fd5b6060602780548060200260200160405190810160405280929190818152602001828054801561161357602002820191906000526020600020908154815260200190600101908083116115ff575050505050905090565b601580546114069061591f565b60246020528160005260406000208181548110611d6357600080fd5b90600052602060002001600091509150505481565b6060600280548060200260200160405190810160405280929190818152602001828054801561161357602002820191906000526020600020908154815260200190600101908083116115ff575050505050905090565b600680546114069061591f565b600080611de9600184613320565b60008581526018602052604090205490915060ff1615611e1c576040516358f1119560e01b815260040160405180910390fd5b60045415801590611e3d5750336000908152601f602052604090205460ff16155b15611e5b5760405163126ec6d160e31b815260040160405180910390fd5b611e64816133f1565b611e6f8433856134f8565b949350505050565b60286020526000908152604090208054600182015460028301546003840180546001600160a01b03909416949293919291611eb19061591f565b80601f0160208091040260200160405190810160405280929190818152602001828054611edd9061591f565b8015611f2a5780601f10611eff57610100808354040283529160200191611f2a565b820191906000526020600020905b815481529060010190602001808311611f0d57829003601f168201915b5050505050905084565b600254600090611f4690600190615ab0565b821115611f66576040516365d6f35160e11b815260040160405180910390fd5b60005b611f74836001615a6e565b811015611fd1576001611fb060028381548110611f9357611f93615a81565b906000526020600020015460009081526024602052604090205490565b1115611fbf5750600192915050565b80611fc981615a97565b915050611f69565b50600092915050565b6060601c805480602002602001604051908101604052809291908181526020018280548015611613576020028201919060005260206000209081546001600160a01b03168152600190910190602001808311611907575050505050905090565b3373dc652c746a8f85e18ce632d97c6118e8a52fa7381461206e5760405163de07280160e01b815260040160405180910390fd5b60046120786124eb565b6004811115612089576120896154b0565b14806120ad5750600261209a6124eb565b60048111156120ab576120ab6154b0565b145b156120cb576040516398fe99a560e01b815260040160405180910390fd5b601480546001600160a01b0319166001600160a01b0392909216919091179055565b601681815481106113e857600080fd5b60008061210b600186613320565b60008881526018602052604090205490915060ff161561213e576040516358f1119560e01b815260040160405180910390fd5b61214a33878686611b68565b612153816133f1565b61215e8733876134f8565b979650505050505050565b600080612177600080613320565b600354909150156121b15733600090815260208052604090205460ff166121b157604051631f22097560e01b815260040160405180910390fd5b6121bd610e6884615ac3565b60006121d06121cb85615ac3565b61362a565b90506121db826133f1565b9392505050565b60046121ec6124eb565b60048111156121fd576121fd6154b0565b14806122215750600261220e6124eb565b600481111561221f5761221f6154b0565b145b1561223f57604051631e71d28360e21b815260040160405180910390fd5b805160005b8181101561233d57600083828151811061226057612260615a81565b60209081029190910101516007549091506001600160a01b031633148015906122a057506000818152602860205260409020546001600160a01b03163314155b156122c657604051635450763d60e11b8152600481018290526024015b60405180910390fd5b6000818152602a602052604090205460ff1661232a576000818152602a60205260408120805460ff191660019081179091556027805491820181559091527f98a476f1687bc3d60a2da2adbcba2c46958e61fa2fb4042cd7bc5816a710195b018190555b508061233581615a97565b915050612244565b507f788a4349d25bc08585923ae212bce8bb346a623bce753eeecb85fd9ce58dcb4b8260405161236d9190614e54565b60405180910390a15050565b60008181526023602090815260409182902060018101805484518185028101850190955280855260609492938301828280156123de57602002820191906000526020600020905b81546001600160a01b031681526001909101906020018083116123c0575b5050505050915050919050565b6007546060906001600160a01b0316331461241957604051630aca3d7160e11b815260040160405180910390fd5b60046124236124eb565b6004811115612434576124346154b0565b1480612458575060026124456124eb565b6004811115612456576124566154b0565b145b1561247657604051635b0747e760e01b815260040160405180910390fd5b60066124828382615999565b5090919050565b6000818152602960209081526040918290208054835181840281018401909452808452606093928301828280156124df57602002820191906000526020600020905b8154815260200190600101908083116124cb575b50505050509050919050565b60195460009060ff16156124ff5750600290565b426008541061250e5750600090565b42612517612e20565b106125225750600390565b4261252b6118b1565b106125365750600190565b50600490565b6007546060906001600160a01b0316331461256a57604051637d1cb2b160e01b815260040160405180910390fd5b60046125746124eb565b6004811115612585576125856154b0565b14806125a9575060026125966124eb565b60048111156125a7576125a76154b0565b145b156125c757604051635b0747e760e01b815260040160405180910390fd5b60056124828382615999565b6125db614a1e565b6000828152601a6020908152604091829020825160c08101845281546001600160a01b0381168252600160a01b900460ff16151592810192909252600181018054929391929184019161262d9061591f565b80601f01602080910402602001604051908101604052809291908181526020018280546126599061591f565b80156126a65780601f1061267b576101008083540402835291602001916126a6565b820191906000526020600020905b81548152906001019060200180831161268957829003601f168201915b5050509183525050604080516020818101835260028501546001600160a01b0316825280840191909152815160038501805460609381028301840185528285018181529490950194919390928492849184018282801561272f57602002820191906000526020600020905b81546001600160a01b03168152600190910190602001808311612711575b50505050508152602001600182015481525050815260200160058201604051806060016040529081600082018054806020026020016040519081016040528092919081815260200182805480156127af57602002820191906000526020600020905b81546001600160a01b03168152600190910190602001808311612791575b5050505050815260200160018201805480602002602001604051908101604052809291908181526020016000905b828210156128895783829060005260206000200180546127fc9061591f565b80601f01602080910402602001604051908101604052809291908181526020018280546128289061591f565b80156128755780601f1061284a57610100808354040283529160200191612875565b820191906000526020600020905b81548152906001019060200180831161285857829003601f168201915b5050505050815260200190600101906127dd565b505050508152602001600282018054806020026020016040519081016040528092919081815260200182805480156128e057602002820191906000526020600020905b8154815260200190600101908083116128cc575b5050509190925250505090525092915050565b600060105460011461291857604051632003ca2160e01b815260040160405180910390fd5b60016129226124eb565b6004811115612933576129336154b0565b1461295a576129406124eb565b604051631827aa6760e21b81526004016122bd91906154c6565b60016011546001811115612970576129706154b0565b6001811115612981576129816154b0565b03612a8f576000603c612992612e20565b61299d906001615a6e565b6129a79042615ab0565b6129b19190615ae5565b90506000612a1e612a0a6129d36129d085670de0b6b3a7640000615b07565b90565b612a056129ef600a54670de0b6b3a76400006129d09190615b07565b612a056129d0603c670de0b6b3a7640000615b07565b613901565b68056bc75e2d63100000613919565b613919565b90506000612a4082612a19612a3260125490565b670de0b6b3a7640000613901565b90506000612a4d82613928565b90506000612a696129d0612a63612a32600f5490565b84613919565b905064e8d4a51000612a7b8183615ae5565b612a859190615b07565b9550505050505090565b50600f5490565b606060006017805480602002602001604051908101604052809291908181526020018280548015612ae657602002820191906000526020600020905b815481526020019060010190808311612ad2575b50505050509050600081516001600160401b03811115612b0857612b08614ea9565b604051908082528060200260200182016040528015612b31578160200160208202803683370190505b50905060005b8251811015612bbf57601a6000848381518110612b5657612b56615a81565b6020026020010151815260200190815260200160002060000160009054906101000a90046001600160a01b0316828281518110612b9557612b95615a81565b6001600160a01b039092166020928302919091019091015280612bb781615a97565b915050612b37565b5092915050565b80516001600160a01b03163314612c0457805160405163fbbf4d7f60e01b81526001600160a01b0390911660048201523360248201526044016122bd565b60005b612c1360026001615a6e565b811015612d83576000816002811115612c2e57612c2e6154b0565b90506000816002811115612c4457612c446154b0565b03612c4f5750612d71565b6001816002811115612c6357612c636154b0565b03612cbd5760808301515151600003612c8f5760405163c3b2798b60e01b815260040160405180910390fd5b826080015160200151600003612cb8576040516392fb9a3560e01b815260040160405180910390fd5b612d6f565b6002816002811115612cd157612cd16154b0565b03612d545760a08301515151600a1015612cfe57604051631e38b1b160e11b815260040160405180910390fd5b600a8360a0015160200151511115612d295760405163a3b7dd7760e01b815260040160405180910390fd5b600a8360a0015160400151511115612cb85760405163f696406560e01b815260040160405180910390fd5b8060405163d2277d4960e01b81526004016122bd9190615b1e565b505b80612d7b81615a97565b915050612c07565b50806040015151600003612daa5760405163e182473360e01b815260040160405180910390fd5b50565b600081815260246020526040812054600114612ddc57604051633832a15560e21b815260040160405180910390fd5b60008281526024602052604081208054909190612dfb57612dfb615a81565b90600052602060002001549050919050565b600081604051602001611a6091906154e0565b60006009546008546118c89190615a6e565b6060602680548060200260200160405190810160405280929190818152602001828054801561161357602002820191906000526020600020908154815260200190600101908083116115ff575050505050905090565b6007546001600160a01b03163314801590612eb757503373dc652c746a8f85e18ce632d97c6118e8a52fa73814155b15612ed557604051637601acaf60e11b815260040160405180910390fd5b60195460ff1615612ef957604051636f79584d60e01b815260040160405180910390fd5b60215415600114612f1d5760405163043d8d1b60e21b815260040160405180910390fd5b6019805460ff191660011790556040517f4cd963a081760a54f571abc0f1db4dde31b4a07d8d6da3e844b8c6f47eeaaa4290600090a1565b6060601680548060200260200160405190810160405280929190818152602001828054801561161357602002820191906000526020600020908154815260200190600101908083116115ff575050505050905090565b6003612fb56124eb565b6004811115612fc657612fc66154b0565b14612fe45760405163554806bb60e11b815260040160405180910390fd5b60005b818110156130d857600083838381811061300357613003615a81565b60075460209190910292909201359250506001600160a01b0316331480159061304357506000818152601a60205260409020546001600160a01b03163314155b156130615760405163018db70560e11b815260040160405180910390fd5b60008181526018602052604090205460ff166130c5576000818152601860205260408120805460ff191660019081179091556017805491820181559091527fc624b66cc0138b8fabc209247f72d758e1cf3343756d543badbf24212bed8c15018190555b50806130d081615a97565b915050612fe7565b506000546001036130ed576130ed828261397e565b7f75a75cf5c561892f4cc5b26c1b8e933849b42238c96dd073d080d1ae96c51416601660405161236d9190615b32565b6007546001600160a01b0316331461314857604051630f4cb1bd60e11b815260040160405180910390fd5b306001600160a01b0316816001600160a01b031663f3f44fb76040518163ffffffff1660e01b8152600401602060405180830381865afa158015613190573d6000803e3d6000fd5b505050506040513d601f19601f820116820180604052508101906131b49190615b6d565b6001600160a01b0316146131db57604051635b310aaf60e01b815260040160405180910390fd5b602580546001600160a01b038381166001600160a01b031983168117909355604080519190921680825260208201939093527f753a2cf8d360cff631674504210913e48247f8e56b3e6d2006c2103d4095999f910161236d565b602681815481106113e857600080fd5b60296020528160005260406000208181548110611d6357600080fd5b60008061326f600080613320565b905061327c338585611844565b613288610e6886615ac3565b60006132966121cb87615ac3565b90506132a1826133f1565b95945050505050565b6000818152602460209081526040918290208054835181840281018401909452808452606093928301828280156124df57602002820191906000526020600020908154815260200190600101908083116124cb5750505050509050919050565b60008261331785846139db565b14949350505050565b60008080846001811115613336576133366154b0565b036133445750600e546133c8565b6001846001811115613358576133586154b0565b036133c4576010546001036133bb57670de0b6b3a7640000831015613390576040516346ddb8d160e01b815260040160405180910390fd5b6133a2670de0b6b3a764000084615ae5565b6133aa6128f3565b6133b49190615b07565b90506133c8565b50600f546133c8565b5060005b8034146121db576040516372c3eaa760e01b8152346004820152602481018290526044016122bd565b8015612daa5760006064600d54606461340a9190615ab0565b6134149034615b07565b61341e9190615ae5565b905080156134835760145461343c906001600160a01b031682613a28565b601454604080516001600160a01b039092168252602082018390527f9df63d1c00d2e332f573be591c0579caafb256b2c5a17abcc8ad471cccda1b81910160405180910390a15b600061348f8234615ab0565b905080156118ac576013546134ad906001600160a01b031682613a28565b600754604080516001600160a01b039092168252602082018390527f6dff55337c8458ae8c536a63869a48bc33541733422a796390c131d91f4238ed910160405180910390a1505050565b600060016135046124eb565b6004811115613515576135156154b0565b1461353c576135226124eb565b60405163049cab4960e51b81526004016122bd91906154c6565b8160000361355d5760405163502e1c2960e01b815260040160405180910390fd5b6001600160a01b0383166000908152601e602052604090205461358590859085908590613b41565b601d80546001810182556000919091527f6d4407e7be21f808e6509aa9fa9143369579dd7d760fe20a2c09680fc146134f0180546001600160a01b0319163317905560408051858152602081018490526001600160a01b038516917fb4cfecf70861b7b150d8337780d34fb4cbc2114b5fb1fe51a5c5fca1849f7274910160405180910390a250506001600160a01b03166000908152601e6020526040902054919050565b600060036136366124eb565b6004811115613647576136476154b0565b1461366e576136546124eb565b604051632889531360e01b81526004016122bd91906154c6565b600b54336000908152601b6020526040902054036136a557600b54604051632bd6d93960e21b81526004016122bd91815260200190565b600c546017546016546136b89190615ab0565b036136dc57600c546040516302217f5360e51b81526004016122bd91815260200190565b60006136e783612e0d565b6000818152601a6020526040902054909150600160a01b900460ff16156137245760405163baffc42360e01b8152600481018290526024016122bd565b6016805460018181019092557fd833147d7dc355ba459fc788f669e58cfaf9dc25ddcd0702e87d69c7b5124289018290556000828152601a602090815260409182902086518154928801511515600160a01b026001600160a81b03199093166001600160a01b03909116179190911781559085015185928201906137a89082615999565b506060820151516002820180546001600160a01b0319166001600160a01b0390921691909117905560808201518051805160038401916137ed91839160200190614ab8565b5060209182015160019091015560a083015180518051919260058501926138179284920190614ab8565b5060208281015180516138309260018501920190614b1d565b506040820151805161384c916002840191602090910190614b6f565b5050336000908152601b60205260408120805460019550909350909150613874908490615a6e565b9091555050601c80546001810182556000919091527f0e4562a10381dec21b205ed72637e6b1b523bdd0e4d4d50af5cd23dd4500a2110180546001600160a01b0319163390811790915560408085015190517f7585f467599d0f008985f231af99293be388626ac16ca59505c2f8f88969cd63926138f3928592615b8a565b60405180910390a192915050565b60006121db6129d084670de0b6b3a764000085613cdf565b60006121db6129d08484613db3565b600081680a688906bd8affffff8111156139585760405163b3b6ba1f60e01b8152600481018490526024016122bd565b6000613970670de0b6b3a7640000604084901b615ae5565b9050611e6f6129d082613e69565b60005b818110156118ac57600083838381811061399d5761399d615a81565b60209081029290920135600081815260239093526040909220549192506139c6905082826145c9565b505080806139d390615a97565b915050613981565b600081815b8451811015613a2057613a0c828683815181106139ff576139ff615a81565b60200260200101516146fa565b915080613a1881615a97565b9150506139e0565b509392505050565b80471015613a785760405162461bcd60e51b815260206004820152601d60248201527f416464726573733a20696e73756666696369656e742062616c616e636500000060448201526064016122bd565b6000826001600160a01b03168260405160006040518083038185875af1925050503d8060008114613ac5576040519150601f19603f3d011682016040523d82523d6000602084013e613aca565b606091505b50509050806118ac5760405162461bcd60e51b815260206004820152603a60248201527f416464726573733a20756e61626c6520746f2073656e642076616c75652c207260448201527f6563697069656e74206d6179206861766520726576657274656400000000000060648201526084016122bd565b600084815260236020526040902060045415801590613b8157506001600160a01b038416600090815260226020526040902054613b7e9083615ab0565b83115b15613b9f5760405163660fa07360e11b815260040160405180910390fd5b6001600160a01b038416600090815260028201602052604081205482549015918591849190613bcf908490615a6e565b90915550506001600160a01b038516600090815260028301602052604081208054869290613bfe908490615a6e565b90915550508015613c39576001828101805491820181556000908152602090200180546001600160a01b0319166001600160a01b0387161790555b6001600160a01b03851660009081526022602052604081208054869290613c61908490615a6e565b925050819055508360216000828254613c7a9190615a6e565b9091555050600054600103613cd75781546000613c978683615ab0565b90508015613ca957613ca988826145c9565b600082815260246020908152604082208054600181018255908352912001889055613cd48183614729565b50505b505050505050565b6000808060001985870985870292508281108382030391505080600003613d1957838281613d0f57613d0f615acf565b04925050506121db565b838110613d4a57604051630c740aef60e31b81526004810187905260248101869052604481018590526064016122bd565b60008486880960026001871981018816978890046003810283188082028403028082028403028082028403028082028403028082028403029081029092039091026000889003889004909101858311909403939093029303949094049190911702949350505050565b6000808060001984860984860292508281108382030391505080600003613de75750670de0b6b3a76400009004905061183e565b670de0b6b3a76400008110613e1957604051635173648d60e01b815260048101869052602481018590526044016122bd565b6000670de0b6b3a764000085870962040000818503049310909103600160ee1b02919091177faccb18165bd6fe31ae1cf318dc5b51eee0e1ba569b88cd74c1773b91fac106690291505092915050565b600160bf1b67ff00000000000000821615613f7657678000000000000000821615613e9d5768016a09e667f3bcc9090260401c5b674000000000000000821615613ebc576801306fe0a31b7152df0260401c5b672000000000000000821615613edb576801172b83c7d517adce0260401c5b671000000000000000821615613efa5768010b5586cf9890f62a0260401c5b670800000000000000821615613f19576801059b0d31585743ae0260401c5b670400000000000000821615613f3857680102c9a3e778060ee70260401c5b670200000000000000821615613f575768010163da9fb33356d80260401c5b670100000000000000821615613f7657680100b1afa5abcbed610260401c5b66ff000000000000821615614075576680000000000000821615613fa35768010058c86da1c09ea20260401c5b6640000000000000821615613fc1576801002c605e2e8cec500260401c5b6620000000000000821615613fdf57680100162f3904051fa10260401c5b6610000000000000821615613ffd576801000b175effdc76ba0260401c5b660800000000000082161561401b57680100058ba01fb9f96d0260401c5b66040000000000008216156140395768010002c5cc37da94920260401c5b6602000000000000821615614057576801000162e525ee05470260401c5b66010000000000008216156140755768010000b17255775c040260401c5b65ff000000000082161561416b57658000000000008216156140a0576801000058b91b5bc9ae0260401c5b654000000000008216156140bd57680100002c5c89d5ec6d0260401c5b652000000000008216156140da5768010000162e43f4f8310260401c5b651000000000008216156140f757680100000b1721bcfc9a0260401c5b650800000000008216156141145768010000058b90cf1e6e0260401c5b65040000000000821615614131576801000002c5c863b73f0260401c5b6502000000000082161561414e57680100000162e430e5a20260401c5b6501000000000082161561416b576801000000b1721835510260401c5b64ff000000008216156142585764800000000082161561419457680100000058b90c0b490260401c5b6440000000008216156141b05768010000002c5c8601cc0260401c5b6420000000008216156141cc576801000000162e42fff00260401c5b6410000000008216156141e85768010000000b17217fbb0260401c5b640800000000821615614204576801000000058b90bfce0260401c5b64040000000082161561422057680100000002c5c85fe30260401c5b64020000000082161561423c5768010000000162e42ff10260401c5b64010000000082161561425857680100000000b17217f80260401c5b63ff00000082161561433c57638000000082161561427f5768010000000058b90bfc0260401c5b634000000082161561429a576801000000002c5c85fe0260401c5b63200000008216156142b557680100000000162e42ff0260401c5b63100000008216156142d0576801000000000b17217f0260401c5b63080000008216156142eb57680100000000058b90c00260401c5b63040000008216156143065768010000000002c5c8600260401c5b6302000000821615614321576801000000000162e4300260401c5b630100000082161561433c5768010000000000b172180260401c5b62ff00008216156144175762800000821615614361576801000000000058b90c0260401c5b6240000082161561437b57680100000000002c5c860260401c5b622000008216156143955768010000000000162e430260401c5b621000008216156143af57680100000000000b17210260401c5b620800008216156143c95768010000000000058b910260401c5b620400008216156143e3576801000000000002c5c80260401c5b620200008216156143fd57680100000000000162e40260401c5b62010000821615614417576801000000000000b1720260401c5b61ff008216156144e95761800082161561443a57680100000000000058b90260401c5b6140008216156144535768010000000000002c5d0260401c5b61200082161561446c576801000000000000162e0260401c5b6110008216156144855768010000000000000b170260401c5b61080082161561449e576801000000000000058c0260401c5b6104008216156144b757680100000000000002c60260401c5b6102008216156144d057680100000000000001630260401c5b6101008216156144e957680100000000000000b10260401c5b60ff8216156145b257608082161561450a57680100000000000000590260401c5b6040821615614522576801000000000000002c0260401c5b602082161561453a57680100000000000000160260401c5b6010821615614552576801000000000000000b0260401c5b600882161561456a57680100000000000000060260401c5b600482161561458257680100000000000000030260401c5b600282161561459a57680100000000000000010260401c5b60018216156145b257680100000000000000010260401c5b670de0b6b3a76400000260409190911c60bf031c90565b60008181526024602090815260408083208054825181850281018501909352808352919290919083018282801561461f57602002820191906000526020600020905b81548152602001906001019080831161460b575b5050505050905060005b8151811015611bd7578382828151811061464557614645615a81565b6020026020010151036146e85781600183516146619190615ab0565b8151811061467157614671615a81565b602002602001015160246000858152602001908152602001600020828154811061469d5761469d615a81565b9060005260206000200181905550602460008481526020019081526020016000208054806146cd576146cd615bb4565b60019003818190600052602060002001600090559055611bd7565b806146f281615a97565b915050614629565b60008183106147165760008281526020849052604090206121db565b60008381526020839052604090206121db565b6002805460408051602080840282018101909252828152919260009291849083018282801561477757602002820191906000526020600020905b815481526020019060010190808311614763575b50505050509050816000036147be575050600280546001810182556000919091527f405787fa12a823e0f2b7631cc41b3ba8828b3321ca811111fa75cd3aa3bb5ace015550565b806147ca600184615ab0565b815181106147da576147da615a81565b60200260200101518310156148305760015482036147f85750505050565b5050600280546001810182556000919091527f405787fa12a823e0f2b7631cc41b3ba8828b3321ca811111fa75cd3aa3bb5ace015550565b611bd7848484846000805b838110156148a55782818151811061485557614855615a81565b6020026020010151850361486a575050611bd7565b82818151811061487c5761487c615a81565b6020026020010151851115614893578091506148a5565b8061489d81615a97565b91505061483b565b50600080861180156148c35750600086815260246020526040902054155b905060008180156148ec5750868484815181106148e2576148e2615a81565b6020026020010151145b6149f5576148fb600186615ab0565b83146149a357600061490e846001615a6e565b90505b858110156149a15784614925600183615ab0565b8151811061493557614935615a81565b60200260200101516002828154811061495057614950615a81565b60009182526020909120015582801561498157508785828151811061497757614977615a81565b6020026020010151145b1561498f57600191506149a1565b8061499981615a97565b915050614911565b505b801580156149b2575060015485105b156149f5576002846149c5600188615ab0565b815181106149d5576149d5615a81565b602090810291909101810151825460018101845560009384529190922001555b8560028481548110614a0957614a09615a81565b60009182526020909120015550505050505050565b6040518060c0016040528060006001600160a01b0316815260200160001515815260200160608152602001614a68604051806020016040528060006001600160a01b031681525090565b8152602001614a8a604051806040016040528060608152602001600081525090565b8152602001614ab360405180606001604052806060815260200160608152602001606081525090565b905290565b828054828255906000526020600020908101928215614b0d579160200282015b82811115614b0d57825182546001600160a01b0319166001600160a01b03909116178255602090920191600190910190614ad8565b50614b19929150614baa565b5090565b828054828255906000526020600020908101928215614b63579160200282015b82811115614b635782518290614b539082615999565b5091602001919060010190614b3d565b50614b19929150614bbf565b828054828255906000526020600020908101928215614b0d579160200282015b82811115614b0d578251825591602001919060010190614b8f565b5b80821115614b195760008155600101614bab565b80821115614b19576000614bd38282614bdc565b50600101614bbf565b508054614be89061591f565b6000825580601f10614bf8575050565b601f016020900490600052602060002090810190612daa9190614baa565b600060208284031215614c2857600080fd5b5035919050565b6000815180845260005b81811015614c5557602081850181015186830182015201614c39565b506000602082860101526020601f19601f83011685010191505092915050565b600081518084526020808501945080840160005b83811015614cae5781516001600160a01b031687529582019590820190600101614c89565b509495945050505050565b6000815160408452614cce6040850182614c75565b602093840151949093019390935250919050565b600081518084526020808501945080840160005b83811015614cae57815187529582019590820190600101614cf6565b6000815160608452614d276060850182614c75565b9050602080840151858303828701528281518085528385019150838160051b860101848401935060005b82811015614d7f57601f19878303018452614d6d828651614c2f565b94860194938601939150600101614d51565b506040880151955088810360408a0152614d998187614ce2565b9998505050505050505050565b600060018060a01b038089168352871515602084015260c06040840152614dd060c0840188614c2f565b8187511660608501528381036080850152614deb8187614cb9565b91505082810360a0840152614d998185614d12565b6020815260006121db6020830184614c2f565b6020815260018060a01b038251166020820152602082015160408201526040820151606082015260006060830151608080840152611e6f60a0840182614c2f565b6020815260006121db6020830184614ce2565b6001600160a01b0381168114612daa57600080fd5b8035614e8781614e67565b919050565b600060208284031215614e9e57600080fd5b81356121db81614e67565b634e487b7160e01b600052604160045260246000fd5b604051606081016001600160401b0381118282101715614ee157614ee1614ea9565b60405290565b60405160c081016001600160401b0381118282101715614ee157614ee1614ea9565b604051601f8201601f191681016001600160401b0381118282101715614f3157614f31614ea9565b604052919050565b600082601f830112614f4a57600080fd5b81356001600160401b03811115614f6357614f63614ea9565b614f76601f8201601f1916602001614f09565b818152846020838601011115614f8b57600080fd5b816020850160208301376000918101602001919091529392505050565b60008060408385031215614fbb57600080fd5b8235915060208301356001600160401b03811115614fd857600080fd5b614fe485828601614f39565b9150509250929050565b60008083601f84011261500057600080fd5b5081356001600160401b0381111561501757600080fd5b6020830191508360208260051b850101111561503257600080fd5b9250929050565b60008060006040848603121561504e57600080fd5b833561505981614e67565b925060208401356001600160401b0381111561507457600080fd5b61508086828701614fee565b9497909650939450505050565b6020808252825182820181905260009190848201906040850190845b818110156150ce5783516001600160a01b0316835292840192918401916001016150a9565b50909695505050505050565b80358015158114614e8757600080fd5b60008060008060006080868803121561510257600080fd5b853561510d81614e67565b94506020860135935060408601356001600160401b0381111561512f57600080fd5b61513b88828901614fee565b909450925061514e9050606087016150da565b90509295509295909350565b60006020828403121561516c57600080fd5b81356001600160401b038082111561518357600080fd5b908301906080828603121561519757600080fd5b6040516080810181811083821117156151b2576151b2614ea9565b60405282356151c081614e67565b8082525060208301356020820152604083013560408201526060830135828111156151ea57600080fd5b6151f687828601614f39565b60608301525095945050505050565b6040815260006152186040830185614ce2565b82810360208401526132a18185614ce2565b6000806000806060858703121561524057600080fd5b843561524b81614e67565b93506020850135925060408501356001600160401b0381111561526d57600080fd5b61527987828801614fee565b95989497509550505050565b6000806040838503121561529857600080fd5b50508035926020909101359150565b600080604083850312156152ba57600080fd5b8235915060208301356152cc81614e67565b809150509250929050565b60018060a01b03851681528360208201528260408201526080606082015260006153046080830184614c2f565b9695505050505050565b60008060008060006080868803121561532657600080fd5b85359450602086013593506040860135925060608601356001600160401b0381111561535157600080fd5b61535d88828901614fee565b969995985093965092949392505050565b600060c0828403121561538057600080fd5b50919050565b60006020828403121561539857600080fd5b81356001600160401b038111156153ae57600080fd5b611e6f8482850161536e565b60006001600160401b038211156153d3576153d3614ea9565b5060051b60200190565b600082601f8301126153ee57600080fd5b813560206154036153fe836153ba565b614f09565b82815260059290921b8401810191818101908684111561542257600080fd5b8286015b8481101561543d5780358352918301918301615426565b509695505050505050565b60006020828403121561545a57600080fd5b81356001600160401b0381111561547057600080fd5b611e6f848285016153dd565b60006020828403121561548e57600080fd5b81356001600160401b038111156154a457600080fd5b611e6f84828501614f39565b634e487b7160e01b600052602160045260246000fd5b60208101600583106154da576154da6154b0565b91905290565b60208152600060018060a01b03808451166020840152602084015115156040840152604084015160c0606085015261551b60e0850182614c2f565b90508160608601515116608085015260808501519150601f19808583030160a08601526155488284614cb9565b925060a08601519150808584030160c0860152506132a18282614d12565b60006020828403121561557857600080fd5b604051602081018181106001600160401b038211171561559a5761559a614ea9565b60405290508082356155ab81614e67565b905292915050565b600082601f8301126155c457600080fd5b813560206155d46153fe836153ba565b82815260059290921b840181019181810190868411156155f357600080fd5b8286015b8481101561543d57803561560a81614e67565b83529183019183016155f7565b60006040828403121561562957600080fd5b604051604081016001600160401b03828210818311171561564c5761564c614ea9565b81604052829350843591508082111561566457600080fd5b50615671858286016155b3565b825250602083013560208201525092915050565b60006060828403121561569757600080fd5b61569f614ebf565b905081356001600160401b03808211156156b857600080fd5b6156c4858386016155b3565b83526020915081840135818111156156db57600080fd5b8401601f810186136156ec57600080fd5b80356156fa6153fe826153ba565b81815260059190911b8201840190848101908883111561571957600080fd5b8584015b83811015615751578035868111156157355760008081fd5b6157438b8983890101614f39565b84525091860191860161571d565b50808688015250505050604084013591508082111561576f57600080fd5b5061577c848285016153dd565b60408301525092915050565b600060c0828403121561579a57600080fd5b6157a2614ee7565b90506157ad82614e7c565b81526157bb602083016150da565b602082015260408201356001600160401b03808211156157da57600080fd5b6157e685838601614f39565b60408401526157f88560608601615566565b6060840152608084013591508082111561581157600080fd5b61581d85838601615617565b608084015260a084013591508082111561583657600080fd5b5061584384828501615685565b60a08301525092915050565b60006020828403121561586157600080fd5b81356001600160401b0381111561587757600080fd5b611e6f84828501615788565b6000806020838503121561589657600080fd5b82356001600160401b038111156158ac57600080fd5b6158b885828601614fee565b90969095509350505050565b6000806000604084860312156158d957600080fd5b83356001600160401b03808211156158f057600080fd5b6158fc8783880161536e565b9450602086013591508082111561591257600080fd5b5061508086828701614fee565b600181811c9082168061593357607f821691505b60208210810361538057634e487b7160e01b600052602260045260246000fd5b601f8211156118ac57600081815260208120601f850160051c8101602086101561597a5750805b601f850160051c820191505b81811015613cd757828155600101615986565b81516001600160401b038111156159b2576159b2614ea9565b6159c6816159c0845461591f565b84615953565b602080601f8311600181146159fb57600084156159e35750858301515b600019600386901b1c1916600185901b178555613cd7565b600085815260208120601f198616915b82811015615a2a57888601518255948401946001909101908401615a0b565b5085821015615a485787850151600019600388901b60f8161c191681555b5050505050600190811b01905550565b634e487b7160e01b600052601160045260246000fd5b8082018082111561183e5761183e615a58565b634e487b7160e01b600052603260045260246000fd5b600060018201615aa957615aa9615a58565b5060010190565b8181038181111561183e5761183e615a58565b600061183e3683615788565b634e487b7160e01b600052601260045260246000fd5b600082615b0257634e487b7160e01b600052601260045260246000fd5b500490565b808202811582820484141761183e5761183e615a58565b60208101600383106154da576154da6154b0565b6020808252825482820181905260008481528281209092916040850190845b818110156150ce57835483526001938401939285019201615b51565b600060208284031215615b7f57600080fd5b81516121db81614e67565b8381526001600160a01b03831660208201526060604082018190526000906132a190830184614c2f565b634e487b7160e01b600052603160045260246000fdfea264697066735822122039960fd8b32dd037c74e68f490fd845e16472d4663768b58c1486be8b534e20464736f6c63430008130033","linkReferences":{}},"methodIdentifiers":{"AMOUNT_FOR_SUMBITTER_PROOF()":"347cf665","COST_ROUNDING_VALUE()":"e269cefe","JK_LABS_ADDRESS()":"eef18e17","MAX_FIELDS_METADATA_LENGTH()":"b382543f","METADATAS_COUNT()":"4d24a67f","PRICE_CURVE_UPDATE_INTERVAL()":"fd7971c9","SECONDS_IN_WEEK()":"e088b29e","addressSubmitterVerified(address)":"cb853950","addressTotalCastVoteCount(address)":"dda54fcf","addressTotalVotes(address)":"dea5f6a6","addressTotalVotesVerified(address)":"930de979","addressesThatHaveVoted(uint256)":"50c4b616","allProposalTotalVotes()":"50a5e524","cancel()":"ea8a1af0","canceled()":"3f9942ff","castVote(uint256,uint256,uint256,bytes32[])":"a84ff54b","castVoteWithoutProof(uint256,uint256)":"89ab5f54","checkProof(address,uint256,bytes32[],bool)":"32763c22","comment(uint256,string)":"1805c523","commentIds(uint256)":"f5c36411","commentIsDeleted(uint256)":"ae66b8ad","comments(uint256)":"8ebb4c15","contestAddressTotalVotesCast(address)":"aec116b6","contestDeadline()":"262e59e9","contestStart()":"004114a8","costToPropose()":"6ed815ad","costToVote()":"51a41dec","creator()":"02d05d3f","creatorSplitDestination()":"4a587ad4","currentPricePerVote()":"ca09a4c4","deleteComments(uint256[])":"ac67f801","deleteProposals(uint256[])":"f0a7db0a","deletedCommentIds(uint256)":"3fb57c92","deletedProposalIds(uint256)":"05846cae","getAllAddressesThatHaveVoted()":"2c39805f","getAllAuthorsOfDeletedProposals()":"cbdc27cb","getAllCommentIds()":"e11db9d8","getAllDeletedCommentIds()":"5cb718a1","getAllDeletedProposalIds()":"1242b737","getAllProposalAuthors()":"946369b5","getAllProposalIds()":"efa90d36","getComment(uint256)":"0800e300","getNumProposalsWithThisManyVotes(uint256)":"bc022c98","getOnlyProposalIdWithThisManyVotes(uint256)":"d576b81d","getProposal(uint256)":"c7f758a8","getProposalComments(uint256)":"c05f4104","getProposalsWithThisManyVotes(uint256)":"f82e54c0","getRankIndex(uint256)":"5c7107d8","getSortedRanks()":"6fd3636b","hashComment((address,uint256,uint256,string))":"409fd030","hashProposal((address,bool,string,(address),(address[],uint256),(address[],string[],uint256[])))":"d7989025","isOrIsBelowTiedRank(uint256)":"9174778c","jkLabsSplitDestination()":"102613d8","maxProposalCount()":"fb9bf8d4","metadataFieldsSchema()":"60ed97a9","multiple()":"437a8ae6","name()":"06fdde03","numAllowedProposalSubmissions()":"832009af","numSubmissions(address)":"75e509c5","officialRewardsModule()":"785ddfe5","payPerVote()":"03f7eed6","percentageToCreator()":"edcd1be4","priceCurveType()":"4a2c96ec","prompt()":"7c65d711","proposalAddressVotes(uint256,address)":"6e4eb810","proposalAddressesHaveVoted(uint256)":"b323580d","proposalAuthors(uint256)":"0aa25e44","proposalComments(uint256,uint256)":"f61736f4","proposalIds(uint256)":"9b644a23","proposalIsDeleted(uint256)":"f79c0172","proposalVoteStructs(uint256)":"15dee7cd","proposalVotes(uint256)":"544ffc9c","proposals(uint256)":"013cf08b","propose((address,bool,string,(address),(address[],uint256),(address[],string[],uint256[])),bytes32[])":"f823f110","proposeWithoutProof((address,bool,string,(address),(address[],uint256),(address[],string[],uint256[])))":"ab5e6947","rankLimit()":"0414126a","setCreatorSplitDestination(address)":"146230f6","setJkLabsSplitDestination(address)":"9b338aa0","setName(string)":"c47f0027","setOfficialRewardsModule(address)":"f4f3d7ec","setPrompt(string)":"b4ac024f","sortedRanks(uint256)":"325cc6d9","sortingEnabled()":"366ecf5b","state()":"c19d93fb","submissionMerkleRoot()":"bddc1641","totalVotesCast()":"7de418d5","totalVotesCastIsZero()":"7d742925","validateProposalData((address,bool,string,(address),(address[],uint256),(address[],string[],uint256[])))":"d140d9f0","verifyProposer(address,bytes32[])":"20b3e845","verifyVoter(address,uint256,bytes32[])":"531bd812","version()":"54fd4d50","voteStart()":"e031535b","votesToProposalIds(uint256,uint256)":"6d030621","votingDelay()":"3932abb1","votingMerkleRoot()":"dd96a19d","votingPeriod()":"02a251a3"},"id":53}