{"abi":[{"type":"constructor","inputs":[{"name":"_name","type":"string","internalType":"string"},{"name":"_prompt","type":"string","internalType":"string"},{"name":"_submissionMerkleRoot","type":"bytes32","internalType":"bytes32"},{"name":"_votingMerkleRoot","type":"bytes32","internalType":"bytes32"},{"name":"_constructorArgs","type":"tuple","internalType":"struct Governor.ConstructorArgs","components":[{"name":"intConstructorArgs","type":"tuple","internalType":"struct Governor.IntConstructorArgs","components":[{"name":"contestStart","type":"uint256","internalType":"uint256"},{"name":"votingDelay","type":"uint256","internalType":"uint256"},{"name":"votingPeriod","type":"uint256","internalType":"uint256"},{"name":"numAllowedProposalSubmissions","type":"uint256","internalType":"uint256"},{"name":"maxProposalCount","type":"uint256","internalType":"uint256"},{"name":"downvotingAllowed","type":"uint256","internalType":"uint256"},{"name":"sortingEnabled","type":"uint256","internalType":"uint256"},{"name":"rankLimit","type":"uint256","internalType":"uint256"},{"name":"percentageToCreator","type":"uint256","internalType":"uint256"},{"name":"costToPropose","type":"uint256","internalType":"uint256"},{"name":"costToVote","type":"uint256","internalType":"uint256"},{"name":"payPerVote","type":"uint256","internalType":"uint256"}]},{"name":"creatorSplitDestination","type":"address","internalType":"address"},{"name":"jkLabsSplitDestination","type":"address","internalType":"address"},{"name":"metadataFieldsSchema","type":"string","internalType":"string"}]}],"stateMutability":"nonpayable"},{"type":"function","name":"AMOUNT_FOR_SUMBITTER_PROOF","inputs":[],"outputs":[{"name":"","type":"uint256","internalType":"uint256"}],"stateMutability":"view"},{"type":"function","name":"JK_LABS_ADDRESS","inputs":[],"outputs":[{"name":"","type":"address","internalType":"address"}],"stateMutability":"view"},{"type":"function","name":"MAX_FIELDS_METADATA_LENGTH","inputs":[],"outputs":[{"name":"","type":"uint256","internalType":"uint256"}],"stateMutability":"view"},{"type":"function","name":"METADATAS_COUNT","inputs":[],"outputs":[{"name":"","type":"uint256","internalType":"uint256"}],"stateMutability":"view"},{"type":"function","name":"addressSubmitterVerified","inputs":[{"name":"","type":"address","internalType":"address"}],"outputs":[{"name":"","type":"bool","internalType":"bool"}],"stateMutability":"view"},{"type":"function","name":"addressTotalCastVoteCounts","inputs":[{"name":"","type":"address","internalType":"address"}],"outputs":[{"name":"","type":"uint256","internalType":"uint256"}],"stateMutability":"view"},{"type":"function","name":"addressTotalVotes","inputs":[{"name":"","type":"address","internalType":"address"}],"outputs":[{"name":"","type":"uint256","internalType":"uint256"}],"stateMutability":"view"},{"type":"function","name":"addressTotalVotesVerified","inputs":[{"name":"","type":"address","internalType":"address"}],"outputs":[{"name":"","type":"bool","internalType":"bool"}],"stateMutability":"view"},{"type":"function","name":"addressesThatHaveVoted","inputs":[{"name":"","type":"uint256","internalType":"uint256"}],"outputs":[{"name":"","type":"address","internalType":"address"}],"stateMutability":"view"},{"type":"function","name":"allProposalTotalVotes","inputs":[],"outputs":[{"name":"proposalIdsReturn","type":"uint256[]","internalType":"uint256[]"},{"name":"proposalVoteCountsArrayReturn","type":"tuple[]","internalType":"struct GovernorCountingSimple.VoteCounts[]","components":[{"name":"forVotes","type":"uint256","internalType":"uint256"},{"name":"againstVotes","type":"uint256","internalType":"uint256"}]}],"stateMutability":"view"},{"type":"function","name":"cancel","inputs":[],"outputs":[],"stateMutability":"nonpayable"},{"type":"function","name":"canceled","inputs":[],"outputs":[{"name":"","type":"bool","internalType":"bool"}],"stateMutability":"view"},{"type":"function","name":"castVote","inputs":[{"name":"proposalId","type":"uint256","internalType":"uint256"},{"name":"support","type":"uint8","internalType":"uint8"},{"name":"totalVotes","type":"uint256","internalType":"uint256"},{"name":"numVotes","type":"uint256","internalType":"uint256"},{"name":"proof","type":"bytes32[]","internalType":"bytes32[]"}],"outputs":[{"name":"","type":"uint256","internalType":"uint256"}],"stateMutability":"payable"},{"type":"function","name":"castVoteWithoutProof","inputs":[{"name":"proposalId","type":"uint256","internalType":"uint256"},{"name":"support","type":"uint8","internalType":"uint8"},{"name":"numVotes","type":"uint256","internalType":"uint256"}],"outputs":[{"name":"","type":"uint256","internalType":"uint256"}],"stateMutability":"payable"},{"type":"function","name":"checkProof","inputs":[{"name":"addressToCheck","type":"address","internalType":"address"},{"name":"amount","type":"uint256","internalType":"uint256"},{"name":"proof","type":"bytes32[]","internalType":"bytes32[]"},{"name":"voting","type":"bool","internalType":"bool"}],"outputs":[{"name":"verified","type":"bool","internalType":"bool"}],"stateMutability":"view"},{"type":"function","name":"comment","inputs":[{"name":"proposalId","type":"uint256","internalType":"uint256"},{"name":"commentContent","type":"string","internalType":"string"}],"outputs":[{"name":"","type":"uint256","internalType":"uint256"}],"stateMutability":"nonpayable"},{"type":"function","name":"commentIds","inputs":[{"name":"","type":"uint256","internalType":"uint256"}],"outputs":[{"name":"","type":"uint256","internalType":"uint256"}],"stateMutability":"view"},{"type":"function","name":"commentIsDeleted","inputs":[{"name":"","type":"uint256","internalType":"uint256"}],"outputs":[{"name":"","type":"bool","internalType":"bool"}],"stateMutability":"view"},{"type":"function","name":"comments","inputs":[{"name":"","type":"uint256","internalType":"uint256"}],"outputs":[{"name":"author","type":"address","internalType":"address"},{"name":"timestamp","type":"uint256","internalType":"uint256"},{"name":"proposalId","type":"uint256","internalType":"uint256"},{"name":"commentContent","type":"string","internalType":"string"}],"stateMutability":"view"},{"type":"function","name":"contestAddressTotalVotesCast","inputs":[{"name":"userAddress","type":"address","internalType":"address"}],"outputs":[{"name":"userTotalVotesCast","type":"uint256","internalType":"uint256"}],"stateMutability":"view"},{"type":"function","name":"contestDeadline","inputs":[],"outputs":[{"name":"","type":"uint256","internalType":"uint256"}],"stateMutability":"view"},{"type":"function","name":"contestStart","inputs":[],"outputs":[{"name":"","type":"uint256","internalType":"uint256"}],"stateMutability":"view"},{"type":"function","name":"costToPropose","inputs":[],"outputs":[{"name":"","type":"uint256","internalType":"uint256"}],"stateMutability":"view"},{"type":"function","name":"costToVote","inputs":[],"outputs":[{"name":"","type":"uint256","internalType":"uint256"}],"stateMutability":"view"},{"type":"function","name":"creator","inputs":[],"outputs":[{"name":"","type":"address","internalType":"address"}],"stateMutability":"view"},{"type":"function","name":"creatorSplitDestination","inputs":[],"outputs":[{"name":"","type":"address","internalType":"address"}],"stateMutability":"view"},{"type":"function","name":"deleteComments","inputs":[{"name":"commentIdsParam","type":"uint256[]","internalType":"uint256[]"}],"outputs":[],"stateMutability":"nonpayable"},{"type":"function","name":"deleteProposals","inputs":[{"name":"proposalIdsToDelete","type":"uint256[]","internalType":"uint256[]"}],"outputs":[],"stateMutability":"nonpayable"},{"type":"function","name":"deletedCommentIds","inputs":[{"name":"","type":"uint256","internalType":"uint256"}],"outputs":[{"name":"","type":"uint256","internalType":"uint256"}],"stateMutability":"view"},{"type":"function","name":"deletedProposalIds","inputs":[{"name":"","type":"uint256","internalType":"uint256"}],"outputs":[{"name":"","type":"uint256","internalType":"uint256"}],"stateMutability":"view"},{"type":"function","name":"downvotingAllowed","inputs":[],"outputs":[{"name":"","type":"uint256","internalType":"uint256"}],"stateMutability":"view"},{"type":"function","name":"forVotesToProposalIds","inputs":[{"name":"","type":"uint256","internalType":"uint256"},{"name":"","type":"uint256","internalType":"uint256"}],"outputs":[{"name":"","type":"uint256","internalType":"uint256"}],"stateMutability":"view"},{"type":"function","name":"getAllAddressesThatHaveVoted","inputs":[],"outputs":[{"name":"","type":"address[]","internalType":"address[]"}],"stateMutability":"view"},{"type":"function","name":"getAllAuthorsOfDeletedProposals","inputs":[],"outputs":[{"name":"","type":"address[]","internalType":"address[]"}],"stateMutability":"view"},{"type":"function","name":"getAllCommentIds","inputs":[],"outputs":[{"name":"","type":"uint256[]","internalType":"uint256[]"}],"stateMutability":"view"},{"type":"function","name":"getAllDeletedCommentIds","inputs":[],"outputs":[{"name":"","type":"uint256[]","internalType":"uint256[]"}],"stateMutability":"view"},{"type":"function","name":"getAllDeletedProposalIds","inputs":[],"outputs":[{"name":"","type":"uint256[]","internalType":"uint256[]"}],"stateMutability":"view"},{"type":"function","name":"getAllProposalAuthors","inputs":[],"outputs":[{"name":"","type":"address[]","internalType":"address[]"}],"stateMutability":"view"},{"type":"function","name":"getAllProposalIds","inputs":[],"outputs":[{"name":"","type":"uint256[]","internalType":"uint256[]"}],"stateMutability":"view"},{"type":"function","name":"getComment","inputs":[{"name":"commentId","type":"uint256","internalType":"uint256"}],"outputs":[{"name":"","type":"tuple","internalType":"struct GovernorEngagement.CommentCore","components":[{"name":"author","type":"address","internalType":"address"},{"name":"timestamp","type":"uint256","internalType":"uint256"},{"name":"proposalId","type":"uint256","internalType":"uint256"},{"name":"commentContent","type":"string","internalType":"string"}]}],"stateMutability":"view"},{"type":"function","name":"getNumProposalsWithThisManyForVotes","inputs":[{"name":"forVotes","type":"uint256","internalType":"uint256"}],"outputs":[{"name":"count","type":"uint256","internalType":"uint256"}],"stateMutability":"view"},{"type":"function","name":"getOnlyProposalIdWithThisManyForVotes","inputs":[{"name":"forVotes","type":"uint256","internalType":"uint256"}],"outputs":[{"name":"proposalId","type":"uint256","internalType":"uint256"}],"stateMutability":"view"},{"type":"function","name":"getProposal","inputs":[{"name":"proposalId","type":"uint256","internalType":"uint256"}],"outputs":[{"name":"","type":"tuple","internalType":"struct Governor.ProposalCore","components":[{"name":"author","type":"address","internalType":"address"},{"name":"exists","type":"bool","internalType":"bool"},{"name":"description","type":"string","internalType":"string"},{"name":"targetMetadata","type":"tuple","internalType":"struct Governor.TargetMetadata","components":[{"name":"targetAddress","type":"address","internalType":"address"}]},{"name":"safeMetadata","type":"tuple","internalType":"struct Governor.SafeMetadata","components":[{"name":"signers","type":"address[]","internalType":"address[]"},{"name":"threshold","type":"uint256","internalType":"uint256"}]},{"name":"fieldsMetadata","type":"tuple","internalType":"struct Governor.FieldsMetadata","components":[{"name":"addressArray","type":"address[]","internalType":"address[]"},{"name":"stringArray","type":"string[]","internalType":"string[]"},{"name":"uintArray","type":"uint256[]","internalType":"uint256[]"}]}]}],"stateMutability":"view"},{"type":"function","name":"getProposalComments","inputs":[{"name":"proposalId","type":"uint256","internalType":"uint256"}],"outputs":[{"name":"","type":"uint256[]","internalType":"uint256[]"}],"stateMutability":"view"},{"type":"function","name":"getProposalsWithThisManyForVotes","inputs":[{"name":"forVotes","type":"uint256","internalType":"uint256"}],"outputs":[{"name":"proposalsWithThisManyForVotes","type":"uint256[]","internalType":"uint256[]"}],"stateMutability":"view"},{"type":"function","name":"getRankIndex","inputs":[{"name":"rank","type":"uint256","internalType":"uint256"}],"outputs":[{"name":"rankIndex","type":"uint256","internalType":"uint256"}],"stateMutability":"view"},{"type":"function","name":"getSortedRanks","inputs":[],"outputs":[{"name":"sortedRanksArray","type":"uint256[]","internalType":"uint256[]"}],"stateMutability":"view"},{"type":"function","name":"hashComment","inputs":[{"name":"commentObj","type":"tuple","internalType":"struct GovernorEngagement.CommentCore","components":[{"name":"author","type":"address","internalType":"address"},{"name":"timestamp","type":"uint256","internalType":"uint256"},{"name":"proposalId","type":"uint256","internalType":"uint256"},{"name":"commentContent","type":"string","internalType":"string"}]}],"outputs":[{"name":"","type":"uint256","internalType":"uint256"}],"stateMutability":"pure"},{"type":"function","name":"hashProposal","inputs":[{"name":"proposal","type":"tuple","internalType":"struct Governor.ProposalCore","components":[{"name":"author","type":"address","internalType":"address"},{"name":"exists","type":"bool","internalType":"bool"},{"name":"description","type":"string","internalType":"string"},{"name":"targetMetadata","type":"tuple","internalType":"struct Governor.TargetMetadata","components":[{"name":"targetAddress","type":"address","internalType":"address"}]},{"name":"safeMetadata","type":"tuple","internalType":"struct Governor.SafeMetadata","components":[{"name":"signers","type":"address[]","internalType":"address[]"},{"name":"threshold","type":"uint256","internalType":"uint256"}]},{"name":"fieldsMetadata","type":"tuple","internalType":"struct Governor.FieldsMetadata","components":[{"name":"addressArray","type":"address[]","internalType":"address[]"},{"name":"stringArray","type":"string[]","internalType":"string[]"},{"name":"uintArray","type":"uint256[]","internalType":"uint256[]"}]}]}],"outputs":[{"name":"","type":"uint256","internalType":"uint256"}],"stateMutability":"pure"},{"type":"function","name":"isOrIsBelowTiedRank","inputs":[{"name":"idx","type":"uint256","internalType":"uint256"}],"outputs":[{"name":"atOrBelowTiedRank","type":"bool","internalType":"bool"}],"stateMutability":"view"},{"type":"function","name":"jkLabsSplitDestination","inputs":[],"outputs":[{"name":"","type":"address","internalType":"address"}],"stateMutability":"view"},{"type":"function","name":"maxProposalCount","inputs":[],"outputs":[{"name":"","type":"uint256","internalType":"uint256"}],"stateMutability":"view"},{"type":"function","name":"metadataFieldsSchema","inputs":[],"outputs":[{"name":"","type":"string","internalType":"string"}],"stateMutability":"view"},{"type":"function","name":"name","inputs":[],"outputs":[{"name":"","type":"string","internalType":"string"}],"stateMutability":"view"},{"type":"function","name":"numAllowedProposalSubmissions","inputs":[],"outputs":[{"name":"","type":"uint256","internalType":"uint256"}],"stateMutability":"view"},{"type":"function","name":"numSubmissions","inputs":[{"name":"","type":"address","internalType":"address"}],"outputs":[{"name":"","type":"uint256","internalType":"uint256"}],"stateMutability":"view"},{"type":"function","name":"officialRewardsModule","inputs":[],"outputs":[{"name":"","type":"address","internalType":"contract RewardsModule"}],"stateMutability":"view"},{"type":"function","name":"payPerVote","inputs":[],"outputs":[{"name":"","type":"uint256","internalType":"uint256"}],"stateMutability":"view"},{"type":"function","name":"percentageToCreator","inputs":[],"outputs":[{"name":"","type":"uint256","internalType":"uint256"}],"stateMutability":"view"},{"type":"function","name":"prompt","inputs":[],"outputs":[{"name":"","type":"string","internalType":"string"}],"stateMutability":"view"},{"type":"function","name":"proposalAddressVotes","inputs":[{"name":"proposalId","type":"uint256","internalType":"uint256"},{"name":"userAddress","type":"address","internalType":"address"}],"outputs":[{"name":"forVotes","type":"uint256","internalType":"uint256"},{"name":"againstVotes","type":"uint256","internalType":"uint256"}],"stateMutability":"view"},{"type":"function","name":"proposalAddressesHaveVoted","inputs":[{"name":"proposalId","type":"uint256","internalType":"uint256"}],"outputs":[{"name":"","type":"address[]","internalType":"address[]"}],"stateMutability":"view"},{"type":"function","name":"proposalAuthors","inputs":[{"name":"","type":"uint256","internalType":"uint256"}],"outputs":[{"name":"","type":"address","internalType":"address"}],"stateMutability":"view"},{"type":"function","name":"proposalComments","inputs":[{"name":"","type":"uint256","internalType":"uint256"},{"name":"","type":"uint256","internalType":"uint256"}],"outputs":[{"name":"","type":"uint256","internalType":"uint256"}],"stateMutability":"view"},{"type":"function","name":"proposalIds","inputs":[{"name":"","type":"uint256","internalType":"uint256"}],"outputs":[{"name":"","type":"uint256","internalType":"uint256"}],"stateMutability":"view"},{"type":"function","name":"proposalIsDeleted","inputs":[{"name":"","type":"uint256","internalType":"uint256"}],"outputs":[{"name":"","type":"bool","internalType":"bool"}],"stateMutability":"view"},{"type":"function","name":"proposalVotes","inputs":[{"name":"proposalId","type":"uint256","internalType":"uint256"}],"outputs":[{"name":"forVotes","type":"uint256","internalType":"uint256"},{"name":"againstVotes","type":"uint256","internalType":"uint256"}],"stateMutability":"view"},{"type":"function","name":"proposalVotesStructs","inputs":[{"name":"","type":"uint256","internalType":"uint256"}],"outputs":[{"name":"proposalVoteCounts","type":"tuple","internalType":"struct GovernorCountingSimple.VoteCounts","components":[{"name":"forVotes","type":"uint256","internalType":"uint256"},{"name":"againstVotes","type":"uint256","internalType":"uint256"}]}],"stateMutability":"view"},{"type":"function","name":"proposals","inputs":[{"name":"","type":"uint256","internalType":"uint256"}],"outputs":[{"name":"author","type":"address","internalType":"address"},{"name":"exists","type":"bool","internalType":"bool"},{"name":"description","type":"string","internalType":"string"},{"name":"targetMetadata","type":"tuple","internalType":"struct Governor.TargetMetadata","components":[{"name":"targetAddress","type":"address","internalType":"address"}]},{"name":"safeMetadata","type":"tuple","internalType":"struct Governor.SafeMetadata","components":[{"name":"signers","type":"address[]","internalType":"address[]"},{"name":"threshold","type":"uint256","internalType":"uint256"}]},{"name":"fieldsMetadata","type":"tuple","internalType":"struct Governor.FieldsMetadata","components":[{"name":"addressArray","type":"address[]","internalType":"address[]"},{"name":"stringArray","type":"string[]","internalType":"string[]"},{"name":"uintArray","type":"uint256[]","internalType":"uint256[]"}]}],"stateMutability":"view"},{"type":"function","name":"propose","inputs":[{"name":"proposal","type":"tuple","internalType":"struct Governor.ProposalCore","components":[{"name":"author","type":"address","internalType":"address"},{"name":"exists","type":"bool","internalType":"bool"},{"name":"description","type":"string","internalType":"string"},{"name":"targetMetadata","type":"tuple","internalType":"struct Governor.TargetMetadata","components":[{"name":"targetAddress","type":"address","internalType":"address"}]},{"name":"safeMetadata","type":"tuple","internalType":"struct Governor.SafeMetadata","components":[{"name":"signers","type":"address[]","internalType":"address[]"},{"name":"threshold","type":"uint256","internalType":"uint256"}]},{"name":"fieldsMetadata","type":"tuple","internalType":"struct Governor.FieldsMetadata","components":[{"name":"addressArray","type":"address[]","internalType":"address[]"},{"name":"stringArray","type":"string[]","internalType":"string[]"},{"name":"uintArray","type":"uint256[]","internalType":"uint256[]"}]}]},{"name":"proof","type":"bytes32[]","internalType":"bytes32[]"}],"outputs":[{"name":"","type":"uint256","internalType":"uint256"}],"stateMutability":"payable"},{"type":"function","name":"proposeWithoutProof","inputs":[{"name":"proposal","type":"tuple","internalType":"struct Governor.ProposalCore","components":[{"name":"author","type":"address","internalType":"address"},{"name":"exists","type":"bool","internalType":"bool"},{"name":"description","type":"string","internalType":"string"},{"name":"targetMetadata","type":"tuple","internalType":"struct Governor.TargetMetadata","components":[{"name":"targetAddress","type":"address","internalType":"address"}]},{"name":"safeMetadata","type":"tuple","internalType":"struct Governor.SafeMetadata","components":[{"name":"signers","type":"address[]","internalType":"address[]"},{"name":"threshold","type":"uint256","internalType":"uint256"}]},{"name":"fieldsMetadata","type":"tuple","internalType":"struct Governor.FieldsMetadata","components":[{"name":"addressArray","type":"address[]","internalType":"address[]"},{"name":"stringArray","type":"string[]","internalType":"string[]"},{"name":"uintArray","type":"uint256[]","internalType":"uint256[]"}]}]}],"outputs":[{"name":"","type":"uint256","internalType":"uint256"}],"stateMutability":"payable"},{"type":"function","name":"rankLimit","inputs":[],"outputs":[{"name":"","type":"uint256","internalType":"uint256"}],"stateMutability":"view"},{"type":"function","name":"setCreatorSplitDestination","inputs":[{"name":"newCreatorSplitDestination","type":"address","internalType":"address"}],"outputs":[],"stateMutability":"nonpayable"},{"type":"function","name":"setOfficialRewardsModule","inputs":[{"name":"officialRewardsModule_","type":"address","internalType":"contract RewardsModule"}],"outputs":[],"stateMutability":"nonpayable"},{"type":"function","name":"setSubmissionMerkleRoot","inputs":[{"name":"newSubmissionMerkleRoot","type":"bytes32","internalType":"bytes32"}],"outputs":[],"stateMutability":"nonpayable"},{"type":"function","name":"setVotingMerkleRoot","inputs":[{"name":"newVotingMerkleRoot","type":"bytes32","internalType":"bytes32"}],"outputs":[],"stateMutability":"nonpayable"},{"type":"function","name":"sortedRanks","inputs":[{"name":"","type":"uint256","internalType":"uint256"}],"outputs":[{"name":"","type":"uint256","internalType":"uint256"}],"stateMutability":"view"},{"type":"function","name":"sortingEnabled","inputs":[],"outputs":[{"name":"","type":"uint256","internalType":"uint256"}],"stateMutability":"view"},{"type":"function","name":"state","inputs":[],"outputs":[{"name":"","type":"uint8","internalType":"enum Governor.ContestState"}],"stateMutability":"view"},{"type":"function","name":"submissionMerkleRoot","inputs":[],"outputs":[{"name":"","type":"bytes32","internalType":"bytes32"}],"stateMutability":"view"},{"type":"function","name":"totalVotesCast","inputs":[],"outputs":[{"name":"","type":"uint256","internalType":"uint256"}],"stateMutability":"view"},{"type":"function","name":"validateProposalData","inputs":[{"name":"proposal","type":"tuple","internalType":"struct Governor.ProposalCore","components":[{"name":"author","type":"address","internalType":"address"},{"name":"exists","type":"bool","internalType":"bool"},{"name":"description","type":"string","internalType":"string"},{"name":"targetMetadata","type":"tuple","internalType":"struct Governor.TargetMetadata","components":[{"name":"targetAddress","type":"address","internalType":"address"}]},{"name":"safeMetadata","type":"tuple","internalType":"struct Governor.SafeMetadata","components":[{"name":"signers","type":"address[]","internalType":"address[]"},{"name":"threshold","type":"uint256","internalType":"uint256"}]},{"name":"fieldsMetadata","type":"tuple","internalType":"struct Governor.FieldsMetadata","components":[{"name":"addressArray","type":"address[]","internalType":"address[]"},{"name":"stringArray","type":"string[]","internalType":"string[]"},{"name":"uintArray","type":"uint256[]","internalType":"uint256[]"}]}]}],"outputs":[],"stateMutability":"view"},{"type":"function","name":"verifyProposer","inputs":[{"name":"account","type":"address","internalType":"address"},{"name":"proof","type":"bytes32[]","internalType":"bytes32[]"}],"outputs":[],"stateMutability":"nonpayable"},{"type":"function","name":"verifyVoter","inputs":[{"name":"account","type":"address","internalType":"address"},{"name":"totalVotes","type":"uint256","internalType":"uint256"},{"name":"proof","type":"bytes32[]","internalType":"bytes32[]"}],"outputs":[],"stateMutability":"nonpayable"},{"type":"function","name":"version","inputs":[],"outputs":[{"name":"","type":"string","internalType":"string"}],"stateMutability":"pure"},{"type":"function","name":"voteStart","inputs":[],"outputs":[{"name":"","type":"uint256","internalType":"uint256"}],"stateMutability":"view"},{"type":"function","name":"votingDelay","inputs":[],"outputs":[{"name":"","type":"uint256","internalType":"uint256"}],"stateMutability":"view"},{"type":"function","name":"votingMerkleRoot","inputs":[],"outputs":[{"name":"","type":"bytes32","internalType":"bytes32"}],"stateMutability":"view"},{"type":"function","name":"votingPeriod","inputs":[],"outputs":[{"name":"","type":"uint256","internalType":"uint256"}],"stateMutability":"view"},{"type":"event","name":"CommentCreated","inputs":[{"name":"commentId","type":"uint256","indexed":false,"internalType":"uint256"}],"anonymous":false},{"type":"event","name":"CommentsDeleted","inputs":[{"name":"commentIds","type":"uint256[]","indexed":false,"internalType":"uint256[]"}],"anonymous":false},{"type":"event","name":"ContestCanceled","inputs":[],"anonymous":false},{"type":"event","name":"CreatorPaymentReleased","inputs":[{"name":"to","type":"address","indexed":false,"internalType":"address"},{"name":"amount","type":"uint256","indexed":false,"internalType":"uint256"}],"anonymous":false},{"type":"event","name":"JkLabsPaymentReleased","inputs":[{"name":"to","type":"address","indexed":false,"internalType":"address"},{"name":"amount","type":"uint256","indexed":false,"internalType":"uint256"}],"anonymous":false},{"type":"event","name":"JokeraceCreated","inputs":[{"name":"version","type":"string","indexed":false,"internalType":"string"},{"name":"name","type":"string","indexed":false,"internalType":"string"},{"name":"prompt","type":"string","indexed":false,"internalType":"string"},{"name":"creator","type":"address","indexed":false,"internalType":"address"},{"name":"contestStart","type":"uint256","indexed":false,"internalType":"uint256"},{"name":"votingDelay","type":"uint256","indexed":false,"internalType":"uint256"},{"name":"votingPeriod","type":"uint256","indexed":false,"internalType":"uint256"}],"anonymous":false},{"type":"event","name":"OfficialRewardsModuleSet","inputs":[{"name":"oldOfficialRewardsModule","type":"address","indexed":false,"internalType":"contract RewardsModule"},{"name":"newOfficialRewardsModule","type":"address","indexed":false,"internalType":"contract RewardsModule"}],"anonymous":false},{"type":"event","name":"ProposalCreated","inputs":[{"name":"proposalId","type":"uint256","indexed":false,"internalType":"uint256"},{"name":"proposer","type":"address","indexed":false,"internalType":"address"},{"name":"proposalDescription","type":"string","indexed":false,"internalType":"string"}],"anonymous":false},{"type":"event","name":"ProposalsDeleted","inputs":[{"name":"proposalIds","type":"uint256[]","indexed":false,"internalType":"uint256[]"}],"anonymous":false},{"type":"event","name":"VoteCast","inputs":[{"name":"voter","type":"address","indexed":true,"internalType":"address"},{"name":"proposalId","type":"uint256","indexed":false,"internalType":"uint256"},{"name":"support","type":"uint8","indexed":false,"internalType":"uint8"},{"name":"numVotes","type":"uint256","indexed":false,"internalType":"uint256"}],"anonymous":false},{"type":"error","name":"AddressFieldMetadataArrayTooLong","inputs":[]},{"type":"error","name":"AddressNotPermissionedToSubmit","inputs":[]},{"type":"error","name":"AuthorIsNotSender","inputs":[{"name":"author","type":"address","internalType":"address"},{"name":"sender","type":"address","internalType":"address"}]},{"type":"error","name":"CannotDeleteWhenCompleted","inputs":[]},{"type":"error","name":"CannotUpdateAfterCompleted","inputs":[]},{"type":"error","name":"CannotVoteLessThanOneVoteInPayPerVote","inputs":[]},{"type":"error","name":"CannotVoteOnDeletedProposal","inputs":[]},{"type":"error","name":"ContestAlreadyCancelled","inputs":[]},{"type":"error","name":"ContestMustBeActiveToVote","inputs":[{"name":"currentState","type":"uint8","internalType":"enum Governor.ContestState"}]},{"type":"error","name":"ContestMustBeQueuedToPropose","inputs":[{"name":"currentState","type":"uint8","internalType":"enum Governor.ContestState"}]},{"type":"error","name":"ContestSubmissionLimitReached","inputs":[{"name":"maxProposalCount","type":"uint256","internalType":"uint256"}]},{"type":"error","name":"DownvotingNotEnabled","inputs":[]},{"type":"error","name":"DuplicateSubmission","inputs":[{"name":"proposalId","type":"uint256","internalType":"uint256"}]},{"type":"error","name":"EmptyProposalDescription","inputs":[]},{"type":"error","name":"IncorrectCostSent","inputs":[{"name":"msgValue","type":"uint256","internalType":"uint256"},{"name":"costToVote","type":"uint256","internalType":"uint256"}]},{"type":"error","name":"IndexHasNotBeenPopulated","inputs":[]},{"type":"error","name":"InvalidVoteType","inputs":[]},{"type":"error","name":"MoreThanOneProposalWithThisManyVotes","inputs":[]},{"type":"error","name":"NeedAtLeastOneVoteToVote","inputs":[]},{"type":"error","name":"NeedToSubmitWithProofFirst","inputs":[]},{"type":"error","name":"NeedToVoteWithProofFirst","inputs":[]},{"type":"error","name":"NotEnoughVotesLeft","inputs":[]},{"type":"error","name":"NotInMerkle","inputs":[]},{"type":"error","name":"OnlyCreatorCanAmend","inputs":[]},{"type":"error","name":"OnlyCreatorCanDelete","inputs":[]},{"type":"error","name":"OnlyCreatorCanSetRewardsModule","inputs":[]},{"type":"error","name":"OnlyCreatorOrAuthorCanDeleteComments","inputs":[{"name":"failedToDeleteCommentId","type":"uint256","internalType":"uint256"}]},{"type":"error","name":"OnlyJkLabsCanAmend","inputs":[]},{"type":"error","name":"OnlyJkLabsOrCreatorCanCancel","inputs":[]},{"type":"error","name":"PayPerVoteMustBeEnabledForAnyoneCanVote","inputs":[]},{"type":"error","name":"RankCannotBeZero","inputs":[]},{"type":"error","name":"RankIsNotInSortedRanks","inputs":[]},{"type":"error","name":"SenderSubmissionLimitReached","inputs":[{"name":"numAllowedProposalSubmissions","type":"uint256","internalType":"uint256"}]},{"type":"error","name":"SortingAndDownvotingCannotBothBeEnabled","inputs":[]},{"type":"error","name":"StringFieldMetadataArrayTooLong","inputs":[]},{"type":"error","name":"UintFieldMetadataArrayTooLong","inputs":[]},{"type":"error","name":"UnexpectedMetadata","inputs":[{"name":"unexpectedMetadata","type":"uint8","internalType":"enum Governor.Metadatas"}]},{"type":"error","name":"ZeroSignersInSafeMetadata","inputs":[]},{"type":"error","name":"ZeroThresholdInSafeMetadata","inputs":[]}],"bytecode":{"object":"0x60806040523480156200001157600080fd5b506040516200561b3803806200561b83398101604081905262000034916200033c565b805160c081015160e09091015160009190915560015560038390556004829055848482600562000065848262000570565b50600662000074838262000570565b5060078054336001600160a01b03199182161790915581518051600855602080820151600955604080830151600a55606080840151600b556080840151600c5560a0840151600d55610100840151600e55610120840151600f5561014084015160105561016090930151601155908401516012805485166001600160a01b0392831617905590840151601380549094169116179091558101516014906200011c908262000570565b506040805180820182526004815263342e333160e01b60208083019190915283518051918101519084015193517f9a9bca21e4e51607db64fbdbcd7b2284a909c6a8969821f0d161efbdcae70160946200017e9493899389933393906200066a565b60405180910390a15050815160c0015160011490508015620001a55750805160a001516001145b15620001c457604051636bff10c960e01b815260040160405180910390fd5b81158015620001d7575080516101600151155b15620001f6576040516397b6be7d60e01b815260040160405180910390fd5b5050505050620006d9565b634e487b7160e01b600052604160045260246000fd5b604051608081016001600160401b03811182821017156200023c576200023c62000201565b60405290565b60405161018081016001600160401b03811182821017156200023c576200023c62000201565b60005b83811015620002855781810151838201526020016200026b565b50506000910152565b600082601f830112620002a057600080fd5b81516001600160401b0380821115620002bd57620002bd62000201565b604051601f8301601f19908116603f01168101908282118183101715620002e857620002e862000201565b816040528381528660208588010111156200030257600080fd5b6200031584602083016020890162000268565b9695505050505050565b80516001600160a01b03811681146200033757600080fd5b919050565b600080600080600060a086880312156200035557600080fd5b85516001600160401b03808211156200036d57600080fd5b6200037b89838a016200028e565b965060208801519150808211156200039257600080fd5b620003a089838a016200028e565b955060408801519450606088015193506080880151915080821115620003c557600080fd5b908701908189036101e0811215620003dc57600080fd5b620003e662000217565b61018080831215620003f757600080fd5b6200040162000242565b9250845183526020850151602084015260408501516040840152606085015160608401526080850151608084015260a085015160a084015260c085015160c084015260e085015160e08401526101008086015181850152506101208086015181850152506101408086015181850152506101608086015181850152508282526200048d8186016200031f565b602083015250620004a26101a085016200031f565b60408201526101c0840151915082821115620004bd57600080fd5b620004cb8b8386016200028e565b6060820152809450505050509295509295909350565b600181811c90821680620004f657607f821691505b6020821081036200051757634e487b7160e01b600052602260045260246000fd5b50919050565b601f8211156200056b57600081815260208120601f850160051c81016020861015620005465750805b601f850160051c820191505b81811015620005675782815560010162000552565b5050505b505050565b81516001600160401b038111156200058c576200058c62000201565b620005a4816200059d8454620004e1565b846200051d565b602080601f831160018114620005dc5760008415620005c35750858301515b600019600386901b1c1916600185901b17855562000567565b600085815260208120601f198616915b828110156200060d57888601518255948401946001909101908401620005ec565b50858210156200062c5787850151600019600388901b60f8161c191681555b5050505050600190811b01905550565b600081518084526200065681602086016020860162000268565b601f01601f19169290920160200192915050565b60e0815260006200067f60e083018a6200063c565b828103602084015262000693818a6200063c565b90508281036040840152620006a981896200063c565b6001600160a01b039790971660608401525050608081019390935260a083019190915260c0909101529392505050565b614f3280620006e96000396000f3fe6080604052600436106104d55760003560e01c8063711effc811610281578063c19d93fb1161015a578063e11db9d8116100cc578063f4f3d7ec11610085578063f4f3d7ec14610f5c578063f5c3641114610f7c578063f61736f414610f9c578063f79c017214610fbc578063f823f11014610fec578063fb9bf8d414610fff57600080fd5b8063e11db9d814610ebf578063ea8a1af014610ed4578063edcd1be414610ee9578063eef18e1714610eff578063efa90d3614610f27578063f0a7db0a14610f3c57600080fd5b8063d140d9f01161011e578063d140d9f014610e07578063d798902514610e27578063daf762db14610e47578063dd96a19d14610e67578063dea5f6a614610e7d578063e031535b14610eaa57600080fd5b8063c19d93fb14610d53578063c7f758a814610d75578063c9a1b6b214610da2578063cb85395014610dc2578063cbdc27cb14610df257600080fd5b80639ba197af116101f3578063aec116b6116101b7578063aec116b614610c92578063b323580d14610cc8578063b382543f14610ce8578063b66d1da314610cfd578063bddc164114610d1d578063c05f410414610d3357600080fd5b80639ba197af14610bd5578063a1ac6cb214610c02578063ab5e694714610c2f578063ac67f80114610c42578063ae66b8ad14610c6257600080fd5b8063832009af11610245578063832009af14610b0a5780638ebb4c1514610b205780639174778c14610b50578063930de97914610b70578063946369b514610ba05780639b644a2314610bb557600080fd5b8063711effc814610a7257806375e509c514610a92578063785ddfe514610abf5780637c65d71114610adf5780637de418d514610af457600080fd5b80633932abb1116103b3578063544c7bb41161032557806360506ff6116102e957806360506ff6146109e957806360ed97a9146109ff57806365f1626314610a145780636e4eb81014610a275780636ed815ad14610a475780636fd3636b14610a5d57600080fd5b8063544c7bb41461091d578063544ffc9c1461093d57806354fd4d50146109875780635c7107d8146109b45780635cb718a1146109d457600080fd5b80634a587ad4116103775780634a587ad41461086f5780634d24a67f1461088f57806350a5e524146108a457806350c4b616146108c757806351a41dec146108e7578063531bd812146108fd57600080fd5b80633932abb1146107ec5780633f9942ff146108025780633fb57c921461081c578063409fd0301461083c578063419c533c1461085c57600080fd5b8063102613d81161044c578063262e59e911610410578063262e59e9146107335780632c39805f14610748578063325cc6d91461076a57806332763c221461078a578063347cf665146107ba578063366ecf5b146107d657600080fd5b8063102613d81461068f5780631242b737146106af578063146230f6146106d15780631805c523146106f357806320b3e8451461071357600080fd5b80630414126a1161049e5780630414126a1461059957806305846cae146105af57806306fdde03146105cf578063070dc5d9146105f15780630800e300146106425780630aa25e441461066f57600080fd5b80624114a8146104da578063013cf08b1461050357806302a251a31461053557806302d05d3f1461054b57806303f7eed614610583575b600080fd5b3480156104e657600080fd5b506104f060085481565b6040519081526020015b60405180910390f35b34801561050f57600080fd5b5061052361051e366004613ef5565b611015565b6040516104fa96959493929190614085565b34801561054157600080fd5b506104f0600a5481565b34801561055757600080fd5b5060075461056b906001600160a01b031681565b6040516001600160a01b0390911681526020016104fa565b34801561058f57600080fd5b506104f060115481565b3480156105a557600080fd5b506104f060015481565b3480156105bb57600080fd5b506104f06105ca366004613ef5565b611300565b3480156105db57600080fd5b506105e4611321565b6040516104fa91906140df565b3480156105fd57600080fd5b5061063561060c366004613ef5565b602260209081526000918252604091829020825180840190935280548352600101549082015281565b6040516104fa91906140f2565b34801561064e57600080fd5b5061066261065d366004613ef5565b6113af565b6040516104fa9190614109565b34801561067b57600080fd5b5061056b61068a366004613ef5565b6114c3565b34801561069b57600080fd5b5060135461056b906001600160a01b031681565b3480156106bb57600080fd5b506106c46114ed565b6040516104fa9190614152565b3480156106dd57600080fd5b506106f16106ec36600461418a565b611545565b005b3480156106ff57600080fd5b506104f061070e3660046142a6565b6115cb565b34801561071f57600080fd5b506106f161072e366004614330565b6116ec565b34801561073f57600080fd5b506104f061175b565b34801561075457600080fd5b5061075d611777565b6040516104fa9190614384565b34801561077657600080fd5b506104f0610785366004613ef5565b6117d8565b34801561079657600080fd5b506107aa6107a53660046143e1565b6117e8565b60405190151581526020016104fa565b3480156107c657600080fd5b506104f0678ac7230489e8000081565b3480156107e257600080fd5b506104f060005481565b3480156107f857600080fd5b506104f060095481565b34801561080e57600080fd5b506018546107aa9060ff1681565b34801561082857600080fd5b506104f0610837366004613ef5565b6118e7565b34801561084857600080fd5b506104f0610857366004614451565b6118f7565b6104f061086a36600461450d565b611928565b34801561087b57600080fd5b5060125461056b906001600160a01b031681565b34801561089b57600080fd5b506104f0611996565b3480156108b057600080fd5b506108b96119a5565b6040516104fa92919061457d565b3480156108d357600080fd5b5061056b6108e2366004613ef5565b611aab565b3480156108f357600080fd5b506104f060105481565b34801561090957600080fd5b506106f16109183660046145e6565b611abb565b34801561092957600080fd5b506106f1610938366004613ef5565b611b30565b34801561094957600080fd5b50610972610958366004613ef5565b600090815260226020526040902080546001909101549091565b604080519283526020830191909152016104fa565b34801561099357600080fd5b50604080518082019091526004815263342e333160e01b60208201526105e4565b3480156109c057600080fd5b506104f06109cf366004613ef5565b611ba2565b3480156109e057600080fd5b506106c4611ca9565b3480156109f557600080fd5b506104f0600d5481565b348015610a0b57600080fd5b506105e4611cff565b6104f0610a22366004614641565b611d0c565b348015610a3357600080fd5b50610972610a42366004614676565b611daa565b348015610a5357600080fd5b506104f0600f5481565b348015610a6957600080fd5b506106c4611ddf565b348015610a7e57600080fd5b506104f0610a8d3660046146a6565b611e35565b348015610a9e57600080fd5b506104f0610aad36600461418a565b601a6020526000908152604090205481565b348015610acb57600080fd5b5060245461056b906001600160a01b031681565b348015610aeb57600080fd5b506105e4611e66565b348015610b0057600080fd5b506104f060205481565b348015610b1657600080fd5b506104f0600b5481565b348015610b2c57600080fd5b50610b40610b3b366004613ef5565b611e73565b6040516104fa94939291906146c8565b348015610b5c57600080fd5b506107aa610b6b366004613ef5565b611f30565b348015610b7c57600080fd5b506107aa610b8b36600461418a565b601e6020526000908152604090205460ff1681565b348015610bac57600080fd5b5061075d611fd6565b348015610bc157600080fd5b506104f0610bd0366004613ef5565b612036565b348015610be157600080fd5b506104f0610bf0366004613ef5565b60009081526023602052604090205490565b348015610c0e57600080fd5b506104f0610c1d36600461418a565b60216020526000908152604090205481565b6104f0610c3d366004614717565b612046565b348015610c4e57600080fd5b506106f1610c5d3660046147d9565b6120c0565b348015610c6e57600080fd5b506107aa610c7d366004613ef5565b60296020526000908152604090205460ff1681565b348015610c9e57600080fd5b506104f0610cad36600461418a565b6001600160a01b031660009081526021602052604090205490565b348015610cd457600080fd5b5061075d610ce3366004613ef5565b6121fa565b348015610cf457600080fd5b506104f0600a81565b348015610d0957600080fd5b506104f0610d18366004613ef5565b61226c565b348015610d2957600080fd5b506104f060035481565b348015610d3f57600080fd5b506106c4610d4e366004613ef5565b6122cc565b348015610d5f57600080fd5b50610d6861232e565b6040516104fa9190614823565b348015610d8157600080fd5b50610d95610d90366004613ef5565b61237f565b6040516104fa919061483d565b348015610dae57600080fd5b506106c4610dbd366004613ef5565b61269f565b348015610dce57600080fd5b506107aa610ddd36600461418a565b601f6020526000908152604090205460ff1681565b348015610dfe57600080fd5b5061075d6126ff565b348015610e1357600080fd5b506106f1610e22366004614bac565b61282f565b348015610e3357600080fd5b506104f0610e42366004614bac565b612a16565b348015610e5357600080fd5b506106f1610e62366004613ef5565b612a29565b348015610e7357600080fd5b506104f060045481565b348015610e8957600080fd5b506104f0610e9836600461418a565b601d6020526000908152604090205481565b348015610eb657600080fd5b506104f0612a9b565b348015610ecb57600080fd5b506106c4612aad565b348015610ee057600080fd5b506106f1612b03565b348015610ef557600080fd5b506104f0600e5481565b348015610f0b57600080fd5b5061056b73dc652c746a8f85e18ce632d97c6118e8a52fa73881565b348015610f3357600080fd5b506106c4612bc7565b348015610f4857600080fd5b506106f1610f57366004614be0565b612c1d565b348015610f6857600080fd5b506106f1610f7736600461418a565b612d78565b348015610f8857600080fd5b506104f0610f97366004613ef5565b612dfd565b348015610fa857600080fd5b506104f0610fb73660046146a6565b612e0d565b348015610fc857600080fd5b506107aa610fd7366004613ef5565b60176020526000908152604090205460ff1681565b6104f0610ffa366004614c21565b612e29565b34801561100b57600080fd5b506104f0600c5481565b601960205260009081526040902080546001820180546001600160a01b03831693600160a01b90930460ff1692919061104d90614c7c565b80601f016020809104026020016040519081016040528092919081815260200182805461107990614c7c565b80156110c65780601f1061109b576101008083540402835291602001916110c6565b820191906000526020600020905b8154815290600101906020018083116110a957829003601f168201915b5050604080516020808201835260028801546001600160a01b03168252825160038901805460609381028301840186529482018581529899939893975090955093508492849184018282801561114557602002820191906000526020600020905b81546001600160a01b03168152600190910190602001808311611127575b505050505081526020016001820154815250509080600501604051806060016040529081600082018054806020026020016040519081016040528092919081815260200182805480156111c157602002820191906000526020600020905b81546001600160a01b031681526001909101906020018083116111a3575b5050505050815260200160018201805480602002602001604051908101604052809291908181526020016000905b8282101561129b57838290600052602060002001805461120e90614c7c565b80601f016020809104026020016040519081016040528092919081815260200182805461123a90614c7c565b80156112875780601f1061125c57610100808354040283529160200191611287565b820191906000526020600020905b81548152906001019060200180831161126a57829003601f168201915b5050505050815260200190600101906111ef565b505050508152602001600282018054806020026020016040519081016040528092919081815260200182805480156112f257602002820191906000526020600020905b8154815260200190600101908083116112de575b505050505081525050905086565b6016818154811061131057600080fd5b600091825260209091200154905081565b6005805461132e90614c7c565b80601f016020809104026020016040519081016040528092919081815260200182805461135a90614c7c565b80156113a75780601f1061137c576101008083540402835291602001916113a7565b820191906000526020600020905b81548152906001019060200180831161138a57829003601f168201915b505050505081565b6113e3604051806080016040528060006001600160a01b031681526020016000815260200160008152602001606081525090565b600082815260276020908152604091829020825160808101845281546001600160a01b0316815260018201549281019290925260028101549282019290925260038201805491929160608401919061143a90614c7c565b80601f016020809104026020016040519081016040528092919081815260200182805461146690614c7c565b80156114b35780601f10611488576101008083540402835291602001916114b3565b820191906000526020600020905b81548152906001019060200180831161149657829003601f168201915b5050505050815250509050919050565b601b81815481106114d357600080fd5b6000918252602090912001546001600160a01b0316905081565b6060601680548060200260200160405190810160405280929190818152602001828054801561153b57602002820191906000526020600020905b815481526020019060010190808311611527575b5050505050905090565b6007546001600160a01b031633146115705760405163141dbb4960e21b815260040160405180910390fd5b600461157a61232e565b600481111561158b5761158b61480d565b036115a95760405163ac61508760e01b815260040160405180910390fd5b601280546001600160a01b0319166001600160a01b0392909216919091179055565b6040805160808101825233815242602082015290810183905260608101829052600090816115f8826118f7565b6025805460018082019092557f401968ff42a154441da5f6c4c935ac46b8671f0e062baaa62a7545ba53bb6e4c01829055600082815260276020908152604091829020865181546001600160a01b0319166001600160a01b03909116178155908601519281019290925584015160028201556060840151919250839160038201906116839082614cfe565b505050600085815260286020908152604080832080546001810182559084529190922001829055517f5a1a930fed43f34b3a07db782ebcac28a661c273e662bb98458cfba5a8ccd220906116da9083815260200190565b60405180910390a19150505b92915050565b6001600160a01b0383166000908152601f602052604090205460ff166117565760035460000361171b57505050565b61173183678ac7230489e80000848460006117e8565b506001600160a01b0383166000908152601f60205260409020805460ff191660011790555b505050565b6000600a54611768612a9b565b6117729190614dd3565b905090565b6060601c80548060200260200160405190810160405280929190818152602001828054801561153b57602002820191906000526020600020905b81546001600160a01b031681526001909101906020018083116117b1575050505050905090565b6002818154811061131057600080fd5b6040516bffffffffffffffffffffffff19606087901b16602082015260348101859052600090819060540160405160208183030381529060405280519060200120905060008361187857611873868680806020026020016040519081016040528093929190818152602001838360200280828437600092019190915250506003549150859050612e69565b6118b9565b6118b9868680806020026020016040519081016040528093929190818152602001838360200280828437600092019190915250506004549150859050612e69565b9050806118d95760405163452c2df160e11b815260040160405180910390fd5b506001979650505050505050565b6026818154811061131057600080fd5b60008160405160200161190a9190614109565b60408051601f19818403018152919052805160209091012092915050565b600080611936600186612e7f565b60008981526017602052604090205490915060ff1615611969576040516358f1119560e01b815260040160405180910390fd5b61197533878686611abb565b61197e81612f4b565b61198a88338988613052565b98975050505050505050565b6119a260026001614dd3565b81565b60608060006119b2612bc7565b9050600081516001600160401b038111156119cf576119cf6141a7565b604051908082528060200260200182016040528015611a1457816020015b60408051808201909152600080825260208201528152602001906001900390816119ed5790505b50905060005b8251811015611aa15760226000848381518110611a3957611a39614de6565b6020026020010151815260200190815260200160002060000160405180604001604052908160008201548152602001600182015481525050828281518110611a8357611a83614de6565b60200260200101819052508080611a9990614dfc565b915050611a1a565b5090939092509050565b601c81815481106114d357600080fd5b60045415801590611ae557506001600160a01b0384166000908152601e602052604090205460ff16155b15611b2a57611af88484848460016117e8565b506001600160a01b0384166000908152601d60209081526040808320869055601e9091529020805460ff191660011790555b50505050565b3373dc652c746a8f85e18ce632d97c6118e8a52fa73814611b645760405163de07280160e01b815260040160405180910390fd5b6004611b6e61232e565b6004811115611b7f57611b7f61480d565b03611b9d5760405163ac61508760e01b815260040160405180910390fd5b600455565b600081600003611bc557604051630ec90a1760e31b815260040160405180910390fd5b60028054604080516020808402820181019092528281529192600092918490830182828015611c1357602002820191906000526020600020905b815481526020019060010190808311611bff575b5050505050905060006001905060005b83811015611c8f57611c5a838281518110611c4057611c40614de6565b602002602001015160009081526023602052604090205490565b15611c7d57858203611c6f5795945050505050565b81611c7981614dfc565b9250505b80611c8781614dfc565b915050611c23565b50604051632cc2ab7360e11b815260040160405180910390fd5b6060602680548060200260200160405190810160405280929190818152602001828054801561153b5760200282019190600052602060002090815481526020019060010190808311611527575050505050905090565b6014805461132e90614c7c565b600080611d1a600184612e7f565b60008681526017602052604090205490915060ff1615611d4d576040516358f1119560e01b815260040160405180910390fd5b60045415801590611d6e5750336000908152601e602052604090205460ff16155b15611d8c5760405163126ec6d160e31b815260040160405180910390fd5b611d9581612f4b565b611da185338686613052565b95945050505050565b60008281526022602090815260408083206001600160a01b0385168452600301909152902080546001909101545b9250929050565b6060600280548060200260200160405190810160405280929190818152602001828054801561153b5760200282019190600052602060002090815481526020019060010190808311611527575050505050905090565b60236020528160005260406000208181548110611e5157600080fd5b90600052602060002001600091509150505481565b6006805461132e90614c7c565b60276020526000908152604090208054600182015460028301546003840180546001600160a01b03909416949293919291611ead90614c7c565b80601f0160208091040260200160405190810160405280929190818152602001828054611ed990614c7c565b8015611f265780601f10611efb57610100808354040283529160200191611f26565b820191906000526020600020905b815481529060010190602001808311611f0957829003601f168201915b5050505050905084565b600254600090611f4290600190614e15565b821115611f62576040516365d6f35160e11b815260040160405180910390fd5b60005b611f70836001614dd3565b811015611fcd576001611fac60028381548110611f8f57611f8f614de6565b906000526020600020015460009081526023602052604090205490565b1115611fbb5750600192915050565b80611fc581614dfc565b915050611f65565b50600092915050565b6060601b80548060200260200160405190810160405280929190818152602001828054801561153b576020028201919060005260206000209081546001600160a01b031681526001909101906020018083116117b1575050505050905090565b6015818154811061131057600080fd5b600080612054600080612e7f565b6003549091501561208f57336000908152601f602052604090205460ff1661208f57604051631f22097560e01b815260040160405180910390fd5b61209b610e2284614e28565b60006120ae6120a985614e28565b613199565b90506120b982612f4b565b9392505050565b805160005b818110156121be5760008382815181106120e1576120e1614de6565b60209081029190910101516007549091506001600160a01b0316331480159061212157506000818152602760205260409020546001600160a01b03163314155b1561214757604051635450763d60e11b8152600481018290526024015b60405180910390fd5b60008181526029602052604090205460ff166121ab576000818152602960205260408120805460ff191660019081179091556026805491820181559091527f744a2cf8fd7008e3d53b67916e73460df9fa5214e3ef23dd4259ca09493a3594018190555b50806121b681614dfc565b9150506120c5565b507f788a4349d25bc08585923ae212bce8bb346a623bce753eeecb85fd9ce58dcb4b826040516121ee9190614152565b60405180910390a15050565b600081815260226020908152604091829020600281018054845181850281018501909552808552606094929383018282801561225f57602002820191906000526020600020905b81546001600160a01b03168152600190910190602001808311612241575b5050505050915050919050565b60008181526023602052604081205460011461229b57604051633832a15560e21b815260040160405180910390fd5b600082815260236020526040812080549091906122ba576122ba614de6565b90600052602060002001549050919050565b60008181526028602090815260409182902080548351818402810184019094528084526060939283018282801561232257602002820191906000526020600020905b81548152602001906001019080831161230e575b50505050509050919050565b60185460009060ff16156123425750600290565b42600854106123515750600090565b4261235a612a9b565b106123655750600390565b4261236e61175b565b106123795750600190565b50600490565b612387613cfd565b600082815260196020908152604091829020825160c08101845281546001600160a01b0381168252600160a01b900460ff1615159281019290925260018101805492939192918401916123d990614c7c565b80601f016020809104026020016040519081016040528092919081815260200182805461240590614c7c565b80156124525780601f1061242757610100808354040283529160200191612452565b820191906000526020600020905b81548152906001019060200180831161243557829003601f168201915b5050509183525050604080516020818101835260028501546001600160a01b031682528084019190915281516003850180546060938102830184018552828501818152949095019491939092849284918401828280156124db57602002820191906000526020600020905b81546001600160a01b031681526001909101906020018083116124bd575b505050505081526020016001820154815250508152602001600582016040518060600160405290816000820180548060200260200160405190810160405280929190818152602001828054801561255b57602002820191906000526020600020905b81546001600160a01b0316815260019091019060200180831161253d575b5050505050815260200160018201805480602002602001604051908101604052809291908181526020016000905b828210156126355783829060005260206000200180546125a890614c7c565b80601f01602080910402602001604051908101604052809291908181526020018280546125d490614c7c565b80156126215780601f106125f657610100808354040283529160200191612621565b820191906000526020600020905b81548152906001019060200180831161260457829003601f168201915b505050505081526020019060010190612589565b5050505081526020016002820180548060200260200160405190810160405280929190818152602001828054801561268c57602002820191906000526020600020905b815481526020019060010190808311612678575b5050509190925250505090525092915050565b600081815260236020908152604091829020805483518184028101840190945280845260609392830182828015612322576020028201919060005260206000209081548152602001906001019080831161230e5750505050509050919050565b60606000601680548060200260200160405190810160405280929190818152602001828054801561274f57602002820191906000526020600020905b81548152602001906001019080831161273b575b50505050509050600081516001600160401b03811115612771576127716141a7565b60405190808252806020026020018201604052801561279a578160200160208202803683370190505b50905060005b825181101561282857601960008483815181106127bf576127bf614de6565b6020026020010151815260200190815260200160002060000160009054906101000a90046001600160a01b03168282815181106127fe576127fe614de6565b6001600160a01b03909216602092830291909101909101528061282081614dfc565b9150506127a0565b5092915050565b80516001600160a01b0316331461286d57805160405163fbbf4d7f60e01b81526001600160a01b03909116600482015233602482015260440161213e565b60005b61287c60026001614dd3565b8110156129ec5760008160028111156128975761289761480d565b905060008160028111156128ad576128ad61480d565b036128b857506129da565b60018160028111156128cc576128cc61480d565b0361292657608083015151516000036128f85760405163c3b2798b60e01b815260040160405180910390fd5b826080015160200151600003612921576040516392fb9a3560e01b815260040160405180910390fd5b6129d8565b600281600281111561293a5761293a61480d565b036129bd5760a08301515151600a101561296757604051631e38b1b160e11b815260040160405180910390fd5b600a8360a00151602001515111156129925760405163a3b7dd7760e01b815260040160405180910390fd5b600a8360a00151604001515111156129215760405163f696406560e01b815260040160405180910390fd5b8060405163d2277d4960e01b815260040161213e9190614e34565b505b806129e481614dfc565b915050612870565b50806040015151600003612a135760405163e182473360e01b815260040160405180910390fd5b50565b60008160405160200161190a919061483d565b3373dc652c746a8f85e18ce632d97c6118e8a52fa73814612a5d5760405163de07280160e01b815260040160405180910390fd5b6004612a6761232e565b6004811115612a7857612a7861480d565b03612a965760405163ac61508760e01b815260040160405180910390fd5b600355565b60006009546008546117729190614dd3565b6060602580548060200260200160405190810160405280929190818152602001828054801561153b5760200282019190600052602060002090815481526020019060010190808311611527575050505050905090565b6007546001600160a01b03163314801590612b3257503373dc652c746a8f85e18ce632d97c6118e8a52fa73814155b15612b50576040516301dbf46f60e71b815260040160405180910390fd5b6000612b5a61232e565b90506002816004811115612b7057612b7061480d565b03612b8e57604051633c30acbf60e01b815260040160405180910390fd5b6018805460ff191660011790556040517f4cd963a081760a54f571abc0f1db4dde31b4a07d8d6da3e844b8c6f47eeaaa4290600090a150565b6060601580548060200260200160405190810160405280929190818152602001828054801561153b5760200282019190600052602060002090815481526020019060010190808311611527575050505050905090565b6007546001600160a01b03163314612c485760405163b8d4540960e01b815260040160405180910390fd5b6004612c5261232e565b6004811115612c6357612c6361480d565b03612c81576040516331da1c8b60e11b815260040160405180910390fd5b60005b81811015612d26576000838383818110612ca057612ca0614de6565b60209081029290920135600081815260179093526040909220549192505060ff16612d13576000818152601760205260408120805460ff191660019081179091556016805491820181559091527fd833147d7dc355ba459fc788f669e58cfaf9dc25ddcd0702e87d69c7b5124289018190555b5080612d1e81614dfc565b915050612c84565b50600d54158015612d3957506000546001145b15612d4857612d488282613470565b7f75a75cf5c561892f4cc5b26c1b8e933849b42238c96dd073d080d1ae96c5141660156040516121ee9190614e48565b6007546001600160a01b03163314612da357604051630f4cb1bd60e11b815260040160405180910390fd5b602480546001600160a01b038381166001600160a01b031983168117909355604080519190921680825260208201939093527f753a2cf8d360cff631674504210913e48247f8e56b3e6d2006c2103d4095999f91016121ee565b6025818154811061131057600080fd5b60286020528160005260406000208181548110611e5157600080fd5b600080612e37600080612e7f565b9050612e443385856116ec565b612e50610e2286614e28565b6000612e5e6120a987614e28565b9050611da182612f4b565b600082612e7685846134cd565b14949350505050565b60008080846001811115612e9557612e9561480d565b03612ea35750600f54612f22565b6001846001811115612eb757612eb761480d565b03612f1e57601154600103612f1557670de0b6b3a7640000831015612eef576040516346ddb8d160e01b815260040160405180910390fd5b612f01670de0b6b3a764000084614e83565b601054612f0e9190614ea5565b9050612f22565b50601054612f22565b5060005b8034146120b9576040516372c3eaa760e01b81523460048201526024810182905260440161213e565b8015612a135760006064600e546064612f649190614e15565b612f6e9034614ea5565b612f789190614e83565b90508015612fdd57601354612f96906001600160a01b03168261351a565b601354604080516001600160a01b039092168252602082018390527f9df63d1c00d2e332f573be591c0579caafb256b2c5a17abcc8ad471cccda1b81910160405180910390a15b6000612fe98234614e15565b9050801561175657601254613007906001600160a01b03168261351a565b600754604080516001600160a01b039092168252602082018390527f6dff55337c8458ae8c536a63869a48bc33541733422a796390c131d91f4238ed910160405180910390a1505050565b6000600161305e61232e565b600481111561306f5761306f61480d565b146130965761307c61232e565b60405163049cab4960e51b815260040161213e9190614823565b816000036130b75760405163502e1c2960e01b815260040160405180910390fd5b6130e985858585601d60008a6001600160a01b03166001600160a01b0316815260200190815260200160002054613633565b601c80546001810182556000919091527f0e4562a10381dec21b205ed72637e6b1b523bdd0e4d4d50af5cd23dd4500a2110180546001600160a01b031916331790556040805186815260ff851660208201529081018390526001600160a01b038516907f2c9deb38f462962eadbd85a9d3a4120503ee091f1582eaaa10aa8c6797651d299060600160405180910390a25050506001600160a01b03166000908152601d6020526040902054919050565b600060036131a561232e565b60048111156131b6576131b661480d565b146131dd576131c361232e565b604051632889531360e01b815260040161213e9190614823565b600b54336000908152601a60205260409020540361321457600b54604051632bd6d93960e21b815260040161213e91815260200190565b600c546016546015546132279190614e15565b0361324b57600c546040516302217f5360e51b815260040161213e91815260200190565b600061325683612a16565b600081815260196020526040902054909150600160a01b900460ff16156132935760405163baffc42360e01b81526004810182905260240161213e565b6015805460018181019092557f55f448fdea98c4d29eb340757ef0a66cd03dbb9538908a6a81d96026b71ec4750182905560008281526019602090815260409182902086518154928801511515600160a01b026001600160a81b03199093166001600160a01b03909116179190911781559085015185928201906133179082614cfe565b506060820151516002820180546001600160a01b0319166001600160a01b03909216919091179055608082015180518051600384019161335c91839160200190613d97565b5060209182015160019091015560a083015180518051919260058501926133869284920190613d97565b50602082810151805161339f9260018501920190613dfc565b50604082015180516133bb916002840191602090910190613e4e565b5050336000908152601a602052604081208054600195509093509091506133e3908490614dd3565b9091555050601b80546001810182556000919091527f3ad8aa4f87544323a9d1e5dd902f40c356527a7955687113db5f9a85ad579dc10180546001600160a01b0319163390811790915560408085015190517f7585f467599d0f008985f231af99293be388626ac16ca59505c2f8f88969cd6392613462928592614ebc565b60405180910390a192915050565b60005b8181101561175657600083838381811061348f5761348f614de6565b60209081029290920135600081815260229093526040909220549192506134b8905082826138a8565b505080806134c590614dfc565b915050613473565b600081815b8451811015613512576134fe828683815181106134f1576134f1614de6565b60200260200101516139d9565b91508061350a81614dfc565b9150506134d2565b509392505050565b8047101561356a5760405162461bcd60e51b815260206004820152601d60248201527f416464726573733a20696e73756666696369656e742062616c616e6365000000604482015260640161213e565b6000826001600160a01b03168260405160006040518083038185875af1925050503d80600081146135b7576040519150601f19603f3d011682016040523d82523d6000602084013e6135bc565b606091505b50509050806117565760405162461bcd60e51b815260206004820152603a60248201527f416464726573733a20756e61626c6520746f2073656e642076616c75652c207260448201527f6563697069656e74206d61792068617665207265766572746564000000000000606482015260840161213e565b60008581526022602052604090206004541580159061367357506001600160a01b0385166000908152602160205260409020546136709083614e15565b83115b156136915760405163660fa07360e11b815260040160405180910390fd5b6001600160a01b03851660009081526003820160205260408120541580156136d457506001600160a01b0386166000908152600383016020526040902060010154155b905060ff851661372c578154849083906000906136f2908490614dd3565b90915550506001600160a01b038616600090815260038301602052604081208054869290613721908490614dd3565b909155506137bd9050565b60001960ff8616016137a457600d5460011461375b57604051639755958f60e01b815260040160405180910390fd5b838260000160010160008282546137729190614dd3565b90915550506001600160a01b038616600090815260038301602052604081206001018054869290613721908490614dd3565b604051638eed55d160e01b815260040160405180910390fd5b80156137f457600282018054600181018255600091825260209091200180546001600160a01b0319166001600160a01b0388161790555b6001600160a01b0386166000908152602160205260408120805486929061381c908490614dd3565b9250508190555083602060008282546138359190614dd3565b9091555050600d5415801561384c57506000546001145b1561389f578154600061385f8683614e15565b905080156138715761387189826138a8565b60008281526023602090815260408220805460018101825590835291200189905561389c8183613a08565b50505b50505050505050565b6000818152602360209081526040808320805482518185028101850190935280835291929091908301828280156138fe57602002820191906000526020600020905b8154815260200190600101908083116138ea575b5050505050905060005b8151811015611b2a578382828151811061392457613924614de6565b6020026020010151036139c75781600183516139409190614e15565b8151811061395057613950614de6565b602002602001015160236000858152602001908152602001600020828154811061397c5761397c614de6565b9060005260206000200181905550602360008481526020019081526020016000208054806139ac576139ac614ee6565b60019003818190600052602060002001600090559055611b2a565b806139d181614dfc565b915050613908565b60008183106139f55760008281526020849052604090206120b9565b60008381526020839052604090206120b9565b60028054604080516020808402820181019092528281529192600092918490830182828015613a5657602002820191906000526020600020905b815481526020019060010190808311613a42575b5050505050905081600003613a9d575050600280546001810182556000919091527f405787fa12a823e0f2b7631cc41b3ba8828b3321ca811111fa75cd3aa3bb5ace015550565b80613aa9600184614e15565b81518110613ab957613ab9614de6565b6020026020010151831015613b0f576001548203613ad75750505050565b5050600280546001810182556000919091527f405787fa12a823e0f2b7631cc41b3ba8828b3321ca811111fa75cd3aa3bb5ace015550565b611b2a848484846000805b83811015613b8457828181518110613b3457613b34614de6565b60200260200101518503613b49575050611b2a565b828181518110613b5b57613b5b614de6565b6020026020010151851115613b7257809150613b84565b80613b7c81614dfc565b915050613b1a565b5060008086118015613ba25750600086815260236020526040902054155b90506000818015613bcb575086848481518110613bc157613bc1614de6565b6020026020010151145b613cd457613bda600186614e15565b8314613c82576000613bed846001614dd3565b90505b85811015613c805784613c04600183614e15565b81518110613c1457613c14614de6565b602002602001015160028281548110613c2f57613c2f614de6565b600091825260209091200155828015613c60575087858281518110613c5657613c56614de6565b6020026020010151145b15613c6e5760019150613c80565b80613c7881614dfc565b915050613bf0565b505b80158015613c91575060015485105b15613cd457600284613ca4600188614e15565b81518110613cb457613cb4614de6565b602090810291909101810151825460018101845560009384529190922001555b8560028481548110613ce857613ce8614de6565b60009182526020909120015550505050505050565b6040518060c0016040528060006001600160a01b0316815260200160001515815260200160608152602001613d47604051806020016040528060006001600160a01b031681525090565b8152602001613d69604051806040016040528060608152602001600081525090565b8152602001613d9260405180606001604052806060815260200160608152602001606081525090565b905290565b828054828255906000526020600020908101928215613dec579160200282015b82811115613dec57825182546001600160a01b0319166001600160a01b03909116178255602090920191600190910190613db7565b50613df8929150613e89565b5090565b828054828255906000526020600020908101928215613e42579160200282015b82811115613e425782518290613e329082614cfe565b5091602001919060010190613e1c565b50613df8929150613e9e565b828054828255906000526020600020908101928215613dec579160200282015b82811115613dec578251825591602001919060010190613e6e565b5b80821115613df85760008155600101613e8a565b80821115613df8576000613eb28282613ebb565b50600101613e9e565b508054613ec790614c7c565b6000825580601f10613ed7575050565b601f016020900490600052602060002090810190612a139190613e89565b600060208284031215613f0757600080fd5b5035919050565b6000815180845260005b81811015613f3457602081850181015186830182015201613f18565b506000602082860101526020601f19601f83011685010191505092915050565b600081518084526020808501945080840160005b83811015613f8d5781516001600160a01b031687529582019590820190600101613f68565b509495945050505050565b6000815160408452613fad6040850182613f54565b602093840151949093019390935250919050565b600081518084526020808501945080840160005b83811015613f8d57815187529582019590820190600101613fd5565b60008151606084526140066060850182613f54565b9050602080840151858303828701528281518085528385019150838160051b860101848401935060005b8281101561405e57601f1987830301845261404c828651613f0e565b94860194938601939150600101614030565b506040880151955088810360408a01526140788187613fc1565b9998505050505050505050565b600060018060a01b038089168352871515602084015260c060408401526140af60c0840188613f0e565b81875116606085015283810360808501526140ca8187613f98565b91505082810360a08401526140788185613ff1565b6020815260006120b96020830184613f0e565b8151815260208083015190820152604081016116e6565b6020815260018060a01b03825116602082015260208201516040820152604082015160608201526000606083015160808084015261414a60a0840182613f0e565b949350505050565b6020815260006120b96020830184613fc1565b6001600160a01b0381168114612a1357600080fd5b803561418581614165565b919050565b60006020828403121561419c57600080fd5b81356120b981614165565b634e487b7160e01b600052604160045260246000fd5b604051606081016001600160401b03811182821017156141df576141df6141a7565b60405290565b60405160c081016001600160401b03811182821017156141df576141df6141a7565b604051601f8201601f191681016001600160401b038111828210171561422f5761422f6141a7565b604052919050565b600082601f83011261424857600080fd5b81356001600160401b03811115614261576142616141a7565b614274601f8201601f1916602001614207565b81815284602083860101111561428957600080fd5b816020850160208301376000918101602001919091529392505050565b600080604083850312156142b957600080fd5b8235915060208301356001600160401b038111156142d657600080fd5b6142e285828601614237565b9150509250929050565b60008083601f8401126142fe57600080fd5b5081356001600160401b0381111561431557600080fd5b6020830191508360208260051b8501011115611dd857600080fd5b60008060006040848603121561434557600080fd5b833561435081614165565b925060208401356001600160401b0381111561436b57600080fd5b614377868287016142ec565b9497909650939450505050565b6020808252825182820181905260009190848201906040850190845b818110156143c55783516001600160a01b0316835292840192918401916001016143a0565b50909695505050505050565b8035801515811461418557600080fd5b6000806000806000608086880312156143f957600080fd5b853561440481614165565b94506020860135935060408601356001600160401b0381111561442657600080fd5b614432888289016142ec565b90945092506144459050606087016143d1565b90509295509295909350565b60006020828403121561446357600080fd5b81356001600160401b038082111561447a57600080fd5b908301906080828603121561448e57600080fd5b6040516080810181811083821117156144a9576144a96141a7565b60405282356144b781614165565b8082525060208301356020820152604083013560408201526060830135828111156144e157600080fd5b6144ed87828601614237565b60608301525095945050505050565b803560ff8116811461418557600080fd5b60008060008060008060a0878903121561452657600080fd5b86359550614536602088016144fc565b9450604087013593506060870135925060808701356001600160401b0381111561455f57600080fd5b61456b89828a016142ec565b979a9699509497509295939492505050565b6000604080835261459081840186613fc1565b83810360208581019190915285518083528682019282019060005b818110156145d8576145c883865180518252602090810151910152565b93830193918501916001016145ab565b509098975050505050505050565b600080600080606085870312156145fc57600080fd5b843561460781614165565b93506020850135925060408501356001600160401b0381111561462957600080fd5b614635878288016142ec565b95989497509550505050565b60008060006060848603121561465657600080fd5b83359250614666602085016144fc565b9150604084013590509250925092565b6000806040838503121561468957600080fd5b82359150602083013561469b81614165565b809150509250929050565b600080604083850312156146b957600080fd5b50508035926020909101359150565b60018060a01b03851681528360208201528260408201526080606082015260006146f56080830184613f0e565b9695505050505050565b600060c0828403121561471157600080fd5b50919050565b60006020828403121561472957600080fd5b81356001600160401b0381111561473f57600080fd5b61414a848285016146ff565b60006001600160401b03821115614764576147646141a7565b5060051b60200190565b600082601f83011261477f57600080fd5b8135602061479461478f8361474b565b614207565b82815260059290921b840181019181810190868411156147b357600080fd5b8286015b848110156147ce57803583529183019183016147b7565b509695505050505050565b6000602082840312156147eb57600080fd5b81356001600160401b0381111561480157600080fd5b61414a8482850161476e565b634e487b7160e01b600052602160045260246000fd5b60208101600583106148375761483761480d565b91905290565b60208152600060018060a01b03808451166020840152602084015115156040840152604084015160c0606085015261487860e0850182613f0e565b90508160608601515116608085015260808501519150601f19808583030160a08601526148a58284613f98565b925060a08601519150808584030160c086015250611da18282613ff1565b6000602082840312156148d557600080fd5b604051602081018181106001600160401b03821117156148f7576148f76141a7565b604052905080823561490881614165565b905292915050565b600082601f83011261492157600080fd5b8135602061493161478f8361474b565b82815260059290921b8401810191818101908684111561495057600080fd5b8286015b848110156147ce57803561496781614165565b8352918301918301614954565b60006040828403121561498657600080fd5b604051604081016001600160401b0382821081831117156149a9576149a96141a7565b8160405282935084359150808211156149c157600080fd5b506149ce85828601614910565b825250602083013560208201525092915050565b6000606082840312156149f457600080fd5b6149fc6141bd565b905081356001600160401b0380821115614a1557600080fd5b614a2185838601614910565b8352602091508184013581811115614a3857600080fd5b8401601f81018613614a4957600080fd5b8035614a5761478f8261474b565b81815260059190911b82018401908481019088831115614a7657600080fd5b8584015b83811015614aae57803586811115614a925760008081fd5b614aa08b8983890101614237565b845250918601918601614a7a565b508086880152505050506040840135915080821115614acc57600080fd5b50614ad98482850161476e565b60408301525092915050565b600060c08284031215614af757600080fd5b614aff6141e5565b9050614b0a8261417a565b8152614b18602083016143d1565b602082015260408201356001600160401b0380821115614b3757600080fd5b614b4385838601614237565b6040840152614b5585606086016148c3565b60608401526080840135915080821115614b6e57600080fd5b614b7a85838601614974565b608084015260a0840135915080821115614b9357600080fd5b50614ba0848285016149e2565b60a08301525092915050565b600060208284031215614bbe57600080fd5b81356001600160401b03811115614bd457600080fd5b61414a84828501614ae5565b60008060208385031215614bf357600080fd5b82356001600160401b03811115614c0957600080fd5b614c15858286016142ec565b90969095509350505050565b600080600060408486031215614c3657600080fd5b83356001600160401b0380821115614c4d57600080fd5b614c59878388016146ff565b94506020860135915080821115614c6f57600080fd5b50614377868287016142ec565b600181811c90821680614c9057607f821691505b60208210810361471157634e487b7160e01b600052602260045260246000fd5b601f82111561175657600081815260208120601f850160051c81016020861015614cd75750805b601f850160051c820191505b81811015614cf657828155600101614ce3565b505050505050565b81516001600160401b03811115614d1757614d176141a7565b614d2b81614d258454614c7c565b84614cb0565b602080601f831160018114614d605760008415614d485750858301515b600019600386901b1c1916600185901b178555614cf6565b600085815260208120601f198616915b82811015614d8f57888601518255948401946001909101908401614d70565b5085821015614dad5787850151600019600388901b60f8161c191681555b5050505050600190811b01905550565b634e487b7160e01b600052601160045260246000fd5b808201808211156116e6576116e6614dbd565b634e487b7160e01b600052603260045260246000fd5b600060018201614e0e57614e0e614dbd565b5060010190565b818103818111156116e6576116e6614dbd565b60006116e63683614ae5565b60208101600383106148375761483761480d565b6020808252825482820181905260008481528281209092916040850190845b818110156143c557835483526001938401939285019201614e67565b600082614ea057634e487b7160e01b600052601260045260246000fd5b500490565b80820281158282048414176116e6576116e6614dbd565b8381526001600160a01b0383166020820152606060408201819052600090611da190830184613f0e565b634e487b7160e01b600052603160045260246000fdfea26469706673582212201f6d0ba9be18a1c8ef8ca061acd405f0f5312d8143b66d32390c2b8a258c8ec264736f6c63430008130033","linkReferences":{}},"methodIdentifiers":{"AMOUNT_FOR_SUMBITTER_PROOF()":"347cf665","JK_LABS_ADDRESS()":"eef18e17","MAX_FIELDS_METADATA_LENGTH()":"b382543f","METADATAS_COUNT()":"4d24a67f","addressSubmitterVerified(address)":"cb853950","addressTotalCastVoteCounts(address)":"a1ac6cb2","addressTotalVotes(address)":"dea5f6a6","addressTotalVotesVerified(address)":"930de979","addressesThatHaveVoted(uint256)":"50c4b616","allProposalTotalVotes()":"50a5e524","cancel()":"ea8a1af0","canceled()":"3f9942ff","castVote(uint256,uint8,uint256,uint256,bytes32[])":"419c533c","castVoteWithoutProof(uint256,uint8,uint256)":"65f16263","checkProof(address,uint256,bytes32[],bool)":"32763c22","comment(uint256,string)":"1805c523","commentIds(uint256)":"f5c36411","commentIsDeleted(uint256)":"ae66b8ad","comments(uint256)":"8ebb4c15","contestAddressTotalVotesCast(address)":"aec116b6","contestDeadline()":"262e59e9","contestStart()":"004114a8","costToPropose()":"6ed815ad","costToVote()":"51a41dec","creator()":"02d05d3f","creatorSplitDestination()":"4a587ad4","deleteComments(uint256[])":"ac67f801","deleteProposals(uint256[])":"f0a7db0a","deletedCommentIds(uint256)":"3fb57c92","deletedProposalIds(uint256)":"05846cae","downvotingAllowed()":"60506ff6","forVotesToProposalIds(uint256,uint256)":"711effc8","getAllAddressesThatHaveVoted()":"2c39805f","getAllAuthorsOfDeletedProposals()":"cbdc27cb","getAllCommentIds()":"e11db9d8","getAllDeletedCommentIds()":"5cb718a1","getAllDeletedProposalIds()":"1242b737","getAllProposalAuthors()":"946369b5","getAllProposalIds()":"efa90d36","getComment(uint256)":"0800e300","getNumProposalsWithThisManyForVotes(uint256)":"9ba197af","getOnlyProposalIdWithThisManyForVotes(uint256)":"b66d1da3","getProposal(uint256)":"c7f758a8","getProposalComments(uint256)":"c05f4104","getProposalsWithThisManyForVotes(uint256)":"c9a1b6b2","getRankIndex(uint256)":"5c7107d8","getSortedRanks()":"6fd3636b","hashComment((address,uint256,uint256,string))":"409fd030","hashProposal((address,bool,string,(address),(address[],uint256),(address[],string[],uint256[])))":"d7989025","isOrIsBelowTiedRank(uint256)":"9174778c","jkLabsSplitDestination()":"102613d8","maxProposalCount()":"fb9bf8d4","metadataFieldsSchema()":"60ed97a9","name()":"06fdde03","numAllowedProposalSubmissions()":"832009af","numSubmissions(address)":"75e509c5","officialRewardsModule()":"785ddfe5","payPerVote()":"03f7eed6","percentageToCreator()":"edcd1be4","prompt()":"7c65d711","proposalAddressVotes(uint256,address)":"6e4eb810","proposalAddressesHaveVoted(uint256)":"b323580d","proposalAuthors(uint256)":"0aa25e44","proposalComments(uint256,uint256)":"f61736f4","proposalIds(uint256)":"9b644a23","proposalIsDeleted(uint256)":"f79c0172","proposalVotes(uint256)":"544ffc9c","proposalVotesStructs(uint256)":"070dc5d9","proposals(uint256)":"013cf08b","propose((address,bool,string,(address),(address[],uint256),(address[],string[],uint256[])),bytes32[])":"f823f110","proposeWithoutProof((address,bool,string,(address),(address[],uint256),(address[],string[],uint256[])))":"ab5e6947","rankLimit()":"0414126a","setCreatorSplitDestination(address)":"146230f6","setOfficialRewardsModule(address)":"f4f3d7ec","setSubmissionMerkleRoot(bytes32)":"daf762db","setVotingMerkleRoot(bytes32)":"544c7bb4","sortedRanks(uint256)":"325cc6d9","sortingEnabled()":"366ecf5b","state()":"c19d93fb","submissionMerkleRoot()":"bddc1641","totalVotesCast()":"7de418d5","validateProposalData((address,bool,string,(address),(address[],uint256),(address[],string[],uint256[])))":"d140d9f0","verifyProposer(address,bytes32[])":"20b3e845","verifyVoter(address,uint256,bytes32[])":"531bd812","version()":"54fd4d50","voteStart()":"e031535b","votingDelay()":"3932abb1","votingMerkleRoot()":"dd96a19d","votingPeriod()":"02a251a3"},"id":34}