{"abi":[{"type":"constructor","inputs":[{"name":"_name","type":"string","internalType":"string"},{"name":"_prompt","type":"string","internalType":"string"},{"name":"_submissionMerkleRoot","type":"bytes32","internalType":"bytes32"},{"name":"_votingMerkleRoot","type":"bytes32","internalType":"bytes32"},{"name":"_constructorArgs","type":"tuple","internalType":"struct Governor.ConstructorArgs","components":[{"name":"intConstructorArgs","type":"tuple","internalType":"struct Governor.IntConstructorArgs","components":[{"name":"contestStart","type":"uint256","internalType":"uint256"},{"name":"votingDelay","type":"uint256","internalType":"uint256"},{"name":"votingPeriod","type":"uint256","internalType":"uint256"},{"name":"numAllowedProposalSubmissions","type":"uint256","internalType":"uint256"},{"name":"maxProposalCount","type":"uint256","internalType":"uint256"},{"name":"downvotingAllowed","type":"uint256","internalType":"uint256"},{"name":"sortingEnabled","type":"uint256","internalType":"uint256"},{"name":"rankLimit","type":"uint256","internalType":"uint256"},{"name":"percentageToCreator","type":"uint256","internalType":"uint256"},{"name":"costToPropose","type":"uint256","internalType":"uint256"},{"name":"costToVote","type":"uint256","internalType":"uint256"},{"name":"payPerVote","type":"uint256","internalType":"uint256"}]},{"name":"creatorSplitDestination","type":"address","internalType":"address"},{"name":"jkLabsSplitDestination","type":"address","internalType":"address"},{"name":"metadataFieldsSchema","type":"string","internalType":"string"}]}],"stateMutability":"nonpayable"},{"type":"function","name":"AMOUNT_FOR_SUMBITTER_PROOF","inputs":[],"outputs":[{"name":"","type":"uint256","internalType":"uint256"}],"stateMutability":"view"},{"type":"function","name":"JK_LABS_ADDRESS","inputs":[],"outputs":[{"name":"","type":"address","internalType":"address"}],"stateMutability":"view"},{"type":"function","name":"MAX_FIELDS_METADATA_LENGTH","inputs":[],"outputs":[{"name":"","type":"uint256","internalType":"uint256"}],"stateMutability":"view"},{"type":"function","name":"METADATAS_COUNT","inputs":[],"outputs":[{"name":"","type":"uint256","internalType":"uint256"}],"stateMutability":"view"},{"type":"function","name":"addressSubmitterVerified","inputs":[{"name":"","type":"address","internalType":"address"}],"outputs":[{"name":"","type":"bool","internalType":"bool"}],"stateMutability":"view"},{"type":"function","name":"addressTotalCastVoteCounts","inputs":[{"name":"","type":"address","internalType":"address"}],"outputs":[{"name":"","type":"uint256","internalType":"uint256"}],"stateMutability":"view"},{"type":"function","name":"addressTotalVotes","inputs":[{"name":"","type":"address","internalType":"address"}],"outputs":[{"name":"","type":"uint256","internalType":"uint256"}],"stateMutability":"view"},{"type":"function","name":"addressTotalVotesVerified","inputs":[{"name":"","type":"address","internalType":"address"}],"outputs":[{"name":"","type":"bool","internalType":"bool"}],"stateMutability":"view"},{"type":"function","name":"addressesThatHaveVoted","inputs":[{"name":"","type":"uint256","internalType":"uint256"}],"outputs":[{"name":"","type":"address","internalType":"address"}],"stateMutability":"view"},{"type":"function","name":"allProposalTotalVotes","inputs":[],"outputs":[{"name":"proposalIdsReturn","type":"uint256[]","internalType":"uint256[]"},{"name":"proposalVoteCountsArrayReturn","type":"tuple[]","internalType":"struct GovernorCountingSimple.VoteCounts[]","components":[{"name":"forVotes","type":"uint256","internalType":"uint256"},{"name":"againstVotes","type":"uint256","internalType":"uint256"}]}],"stateMutability":"view"},{"type":"function","name":"cancel","inputs":[],"outputs":[],"stateMutability":"nonpayable"},{"type":"function","name":"canceled","inputs":[],"outputs":[{"name":"","type":"bool","internalType":"bool"}],"stateMutability":"view"},{"type":"function","name":"castVote","inputs":[{"name":"proposalId","type":"uint256","internalType":"uint256"},{"name":"support","type":"uint8","internalType":"uint8"},{"name":"totalVotes","type":"uint256","internalType":"uint256"},{"name":"numVotes","type":"uint256","internalType":"uint256"},{"name":"proof","type":"bytes32[]","internalType":"bytes32[]"}],"outputs":[{"name":"","type":"uint256","internalType":"uint256"}],"stateMutability":"payable"},{"type":"function","name":"castVoteWithoutProof","inputs":[{"name":"proposalId","type":"uint256","internalType":"uint256"},{"name":"support","type":"uint8","internalType":"uint8"},{"name":"numVotes","type":"uint256","internalType":"uint256"}],"outputs":[{"name":"","type":"uint256","internalType":"uint256"}],"stateMutability":"payable"},{"type":"function","name":"checkProof","inputs":[{"name":"addressToCheck","type":"address","internalType":"address"},{"name":"amount","type":"uint256","internalType":"uint256"},{"name":"proof","type":"bytes32[]","internalType":"bytes32[]"},{"name":"voting","type":"bool","internalType":"bool"}],"outputs":[{"name":"verified","type":"bool","internalType":"bool"}],"stateMutability":"view"},{"type":"function","name":"comment","inputs":[{"name":"proposalId","type":"uint256","internalType":"uint256"},{"name":"commentContent","type":"string","internalType":"string"}],"outputs":[{"name":"","type":"uint256","internalType":"uint256"}],"stateMutability":"nonpayable"},{"type":"function","name":"commentIds","inputs":[{"name":"","type":"uint256","internalType":"uint256"}],"outputs":[{"name":"","type":"uint256","internalType":"uint256"}],"stateMutability":"view"},{"type":"function","name":"commentIsDeleted","inputs":[{"name":"","type":"uint256","internalType":"uint256"}],"outputs":[{"name":"","type":"bool","internalType":"bool"}],"stateMutability":"view"},{"type":"function","name":"comments","inputs":[{"name":"","type":"uint256","internalType":"uint256"}],"outputs":[{"name":"author","type":"address","internalType":"address"},{"name":"timestamp","type":"uint256","internalType":"uint256"},{"name":"proposalId","type":"uint256","internalType":"uint256"},{"name":"commentContent","type":"string","internalType":"string"}],"stateMutability":"view"},{"type":"function","name":"contestAddressTotalVotesCast","inputs":[{"name":"userAddress","type":"address","internalType":"address"}],"outputs":[{"name":"userTotalVotesCast","type":"uint256","internalType":"uint256"}],"stateMutability":"view"},{"type":"function","name":"contestDeadline","inputs":[],"outputs":[{"name":"","type":"uint256","internalType":"uint256"}],"stateMutability":"view"},{"type":"function","name":"contestStart","inputs":[],"outputs":[{"name":"","type":"uint256","internalType":"uint256"}],"stateMutability":"view"},{"type":"function","name":"costToPropose","inputs":[],"outputs":[{"name":"","type":"uint256","internalType":"uint256"}],"stateMutability":"view"},{"type":"function","name":"costToVote","inputs":[],"outputs":[{"name":"","type":"uint256","internalType":"uint256"}],"stateMutability":"view"},{"type":"function","name":"creator","inputs":[],"outputs":[{"name":"","type":"address","internalType":"address"}],"stateMutability":"view"},{"type":"function","name":"creatorSplitDestination","inputs":[],"outputs":[{"name":"","type":"address","internalType":"address"}],"stateMutability":"view"},{"type":"function","name":"deleteComments","inputs":[{"name":"commentIdsParam","type":"uint256[]","internalType":"uint256[]"}],"outputs":[],"stateMutability":"nonpayable"},{"type":"function","name":"deleteProposals","inputs":[{"name":"proposalIdsToDelete","type":"uint256[]","internalType":"uint256[]"}],"outputs":[],"stateMutability":"nonpayable"},{"type":"function","name":"deletedCommentIds","inputs":[{"name":"","type":"uint256","internalType":"uint256"}],"outputs":[{"name":"","type":"uint256","internalType":"uint256"}],"stateMutability":"view"},{"type":"function","name":"deletedProposalIds","inputs":[{"name":"","type":"uint256","internalType":"uint256"}],"outputs":[{"name":"","type":"uint256","internalType":"uint256"}],"stateMutability":"view"},{"type":"function","name":"downvotingAllowed","inputs":[],"outputs":[{"name":"","type":"uint256","internalType":"uint256"}],"stateMutability":"view"},{"type":"function","name":"forVotesToProposalIds","inputs":[{"name":"","type":"uint256","internalType":"uint256"},{"name":"","type":"uint256","internalType":"uint256"}],"outputs":[{"name":"","type":"uint256","internalType":"uint256"}],"stateMutability":"view"},{"type":"function","name":"getAllAddressesThatHaveVoted","inputs":[],"outputs":[{"name":"","type":"address[]","internalType":"address[]"}],"stateMutability":"view"},{"type":"function","name":"getAllAuthorsOfDeletedProposals","inputs":[],"outputs":[{"name":"","type":"address[]","internalType":"address[]"}],"stateMutability":"view"},{"type":"function","name":"getAllCommentIds","inputs":[],"outputs":[{"name":"","type":"uint256[]","internalType":"uint256[]"}],"stateMutability":"view"},{"type":"function","name":"getAllDeletedCommentIds","inputs":[],"outputs":[{"name":"","type":"uint256[]","internalType":"uint256[]"}],"stateMutability":"view"},{"type":"function","name":"getAllDeletedProposalIds","inputs":[],"outputs":[{"name":"","type":"uint256[]","internalType":"uint256[]"}],"stateMutability":"view"},{"type":"function","name":"getAllProposalAuthors","inputs":[],"outputs":[{"name":"","type":"address[]","internalType":"address[]"}],"stateMutability":"view"},{"type":"function","name":"getAllProposalIds","inputs":[],"outputs":[{"name":"","type":"uint256[]","internalType":"uint256[]"}],"stateMutability":"view"},{"type":"function","name":"getComment","inputs":[{"name":"commentId","type":"uint256","internalType":"uint256"}],"outputs":[{"name":"","type":"tuple","internalType":"struct GovernorEngagement.CommentCore","components":[{"name":"author","type":"address","internalType":"address"},{"name":"timestamp","type":"uint256","internalType":"uint256"},{"name":"proposalId","type":"uint256","internalType":"uint256"},{"name":"commentContent","type":"string","internalType":"string"}]}],"stateMutability":"view"},{"type":"function","name":"getNumProposalsWithThisManyForVotes","inputs":[{"name":"forVotes","type":"uint256","internalType":"uint256"}],"outputs":[{"name":"count","type":"uint256","internalType":"uint256"}],"stateMutability":"view"},{"type":"function","name":"getOnlyProposalIdWithThisManyForVotes","inputs":[{"name":"forVotes","type":"uint256","internalType":"uint256"}],"outputs":[{"name":"proposalId","type":"uint256","internalType":"uint256"}],"stateMutability":"view"},{"type":"function","name":"getProposal","inputs":[{"name":"proposalId","type":"uint256","internalType":"uint256"}],"outputs":[{"name":"","type":"tuple","internalType":"struct Governor.ProposalCore","components":[{"name":"author","type":"address","internalType":"address"},{"name":"exists","type":"bool","internalType":"bool"},{"name":"description","type":"string","internalType":"string"},{"name":"targetMetadata","type":"tuple","internalType":"struct Governor.TargetMetadata","components":[{"name":"targetAddress","type":"address","internalType":"address"}]},{"name":"safeMetadata","type":"tuple","internalType":"struct Governor.SafeMetadata","components":[{"name":"signers","type":"address[]","internalType":"address[]"},{"name":"threshold","type":"uint256","internalType":"uint256"}]},{"name":"fieldsMetadata","type":"tuple","internalType":"struct Governor.FieldsMetadata","components":[{"name":"addressArray","type":"address[]","internalType":"address[]"},{"name":"stringArray","type":"string[]","internalType":"string[]"},{"name":"uintArray","type":"uint256[]","internalType":"uint256[]"}]}]}],"stateMutability":"view"},{"type":"function","name":"getProposalComments","inputs":[{"name":"proposalId","type":"uint256","internalType":"uint256"}],"outputs":[{"name":"","type":"uint256[]","internalType":"uint256[]"}],"stateMutability":"view"},{"type":"function","name":"getProposalsWithThisManyForVotes","inputs":[{"name":"forVotes","type":"uint256","internalType":"uint256"}],"outputs":[{"name":"proposalsWithThisManyForVotes","type":"uint256[]","internalType":"uint256[]"}],"stateMutability":"view"},{"type":"function","name":"getRankIndex","inputs":[{"name":"rank","type":"uint256","internalType":"uint256"}],"outputs":[{"name":"rankIndex","type":"uint256","internalType":"uint256"}],"stateMutability":"view"},{"type":"function","name":"getSortedRanks","inputs":[],"outputs":[{"name":"sortedRanksArray","type":"uint256[]","internalType":"uint256[]"}],"stateMutability":"view"},{"type":"function","name":"hashComment","inputs":[{"name":"commentObj","type":"tuple","internalType":"struct GovernorEngagement.CommentCore","components":[{"name":"author","type":"address","internalType":"address"},{"name":"timestamp","type":"uint256","internalType":"uint256"},{"name":"proposalId","type":"uint256","internalType":"uint256"},{"name":"commentContent","type":"string","internalType":"string"}]}],"outputs":[{"name":"","type":"uint256","internalType":"uint256"}],"stateMutability":"pure"},{"type":"function","name":"hashProposal","inputs":[{"name":"proposal","type":"tuple","internalType":"struct Governor.ProposalCore","components":[{"name":"author","type":"address","internalType":"address"},{"name":"exists","type":"bool","internalType":"bool"},{"name":"description","type":"string","internalType":"string"},{"name":"targetMetadata","type":"tuple","internalType":"struct Governor.TargetMetadata","components":[{"name":"targetAddress","type":"address","internalType":"address"}]},{"name":"safeMetadata","type":"tuple","internalType":"struct Governor.SafeMetadata","components":[{"name":"signers","type":"address[]","internalType":"address[]"},{"name":"threshold","type":"uint256","internalType":"uint256"}]},{"name":"fieldsMetadata","type":"tuple","internalType":"struct Governor.FieldsMetadata","components":[{"name":"addressArray","type":"address[]","internalType":"address[]"},{"name":"stringArray","type":"string[]","internalType":"string[]"},{"name":"uintArray","type":"uint256[]","internalType":"uint256[]"}]}]}],"outputs":[{"name":"","type":"uint256","internalType":"uint256"}],"stateMutability":"pure"},{"type":"function","name":"isOrIsBelowTiedRank","inputs":[{"name":"idx","type":"uint256","internalType":"uint256"}],"outputs":[{"name":"atOrBelowTiedRank","type":"bool","internalType":"bool"}],"stateMutability":"view"},{"type":"function","name":"jkLabsSplitDestination","inputs":[],"outputs":[{"name":"","type":"address","internalType":"address"}],"stateMutability":"view"},{"type":"function","name":"maxProposalCount","inputs":[],"outputs":[{"name":"","type":"uint256","internalType":"uint256"}],"stateMutability":"view"},{"type":"function","name":"name","inputs":[],"outputs":[{"name":"","type":"string","internalType":"string"}],"stateMutability":"view"},{"type":"function","name":"numAllowedProposalSubmissions","inputs":[],"outputs":[{"name":"","type":"uint256","internalType":"uint256"}],"stateMutability":"view"},{"type":"function","name":"numSubmissions","inputs":[{"name":"","type":"address","internalType":"address"}],"outputs":[{"name":"","type":"uint256","internalType":"uint256"}],"stateMutability":"view"},{"type":"function","name":"officialRewardsModule","inputs":[],"outputs":[{"name":"","type":"address","internalType":"contract RewardsModule"}],"stateMutability":"view"},{"type":"function","name":"payPerVote","inputs":[],"outputs":[{"name":"","type":"uint256","internalType":"uint256"}],"stateMutability":"view"},{"type":"function","name":"percentageToCreator","inputs":[],"outputs":[{"name":"","type":"uint256","internalType":"uint256"}],"stateMutability":"view"},{"type":"function","name":"prompt","inputs":[],"outputs":[{"name":"","type":"string","internalType":"string"}],"stateMutability":"view"},{"type":"function","name":"proposalAddressVotes","inputs":[{"name":"proposalId","type":"uint256","internalType":"uint256"},{"name":"userAddress","type":"address","internalType":"address"}],"outputs":[{"name":"forVotes","type":"uint256","internalType":"uint256"},{"name":"againstVotes","type":"uint256","internalType":"uint256"}],"stateMutability":"view"},{"type":"function","name":"proposalAddressesHaveVoted","inputs":[{"name":"proposalId","type":"uint256","internalType":"uint256"}],"outputs":[{"name":"","type":"address[]","internalType":"address[]"}],"stateMutability":"view"},{"type":"function","name":"proposalAuthors","inputs":[{"name":"","type":"uint256","internalType":"uint256"}],"outputs":[{"name":"","type":"address","internalType":"address"}],"stateMutability":"view"},{"type":"function","name":"proposalComments","inputs":[{"name":"","type":"uint256","internalType":"uint256"},{"name":"","type":"uint256","internalType":"uint256"}],"outputs":[{"name":"","type":"uint256","internalType":"uint256"}],"stateMutability":"view"},{"type":"function","name":"proposalIds","inputs":[{"name":"","type":"uint256","internalType":"uint256"}],"outputs":[{"name":"","type":"uint256","internalType":"uint256"}],"stateMutability":"view"},{"type":"function","name":"proposalIsDeleted","inputs":[{"name":"","type":"uint256","internalType":"uint256"}],"outputs":[{"name":"","type":"bool","internalType":"bool"}],"stateMutability":"view"},{"type":"function","name":"proposalVotes","inputs":[{"name":"proposalId","type":"uint256","internalType":"uint256"}],"outputs":[{"name":"forVotes","type":"uint256","internalType":"uint256"},{"name":"againstVotes","type":"uint256","internalType":"uint256"}],"stateMutability":"view"},{"type":"function","name":"proposalVotesStructs","inputs":[{"name":"","type":"uint256","internalType":"uint256"}],"outputs":[{"name":"proposalVoteCounts","type":"tuple","internalType":"struct GovernorCountingSimple.VoteCounts","components":[{"name":"forVotes","type":"uint256","internalType":"uint256"},{"name":"againstVotes","type":"uint256","internalType":"uint256"}]}],"stateMutability":"view"},{"type":"function","name":"proposals","inputs":[{"name":"","type":"uint256","internalType":"uint256"}],"outputs":[{"name":"author","type":"address","internalType":"address"},{"name":"exists","type":"bool","internalType":"bool"},{"name":"description","type":"string","internalType":"string"},{"name":"targetMetadata","type":"tuple","internalType":"struct Governor.TargetMetadata","components":[{"name":"targetAddress","type":"address","internalType":"address"}]},{"name":"safeMetadata","type":"tuple","internalType":"struct Governor.SafeMetadata","components":[{"name":"signers","type":"address[]","internalType":"address[]"},{"name":"threshold","type":"uint256","internalType":"uint256"}]},{"name":"fieldsMetadata","type":"tuple","internalType":"struct Governor.FieldsMetadata","components":[{"name":"addressArray","type":"address[]","internalType":"address[]"},{"name":"stringArray","type":"string[]","internalType":"string[]"},{"name":"uintArray","type":"uint256[]","internalType":"uint256[]"}]}],"stateMutability":"view"},{"type":"function","name":"propose","inputs":[{"name":"proposal","type":"tuple","internalType":"struct Governor.ProposalCore","components":[{"name":"author","type":"address","internalType":"address"},{"name":"exists","type":"bool","internalType":"bool"},{"name":"description","type":"string","internalType":"string"},{"name":"targetMetadata","type":"tuple","internalType":"struct Governor.TargetMetadata","components":[{"name":"targetAddress","type":"address","internalType":"address"}]},{"name":"safeMetadata","type":"tuple","internalType":"struct Governor.SafeMetadata","components":[{"name":"signers","type":"address[]","internalType":"address[]"},{"name":"threshold","type":"uint256","internalType":"uint256"}]},{"name":"fieldsMetadata","type":"tuple","internalType":"struct Governor.FieldsMetadata","components":[{"name":"addressArray","type":"address[]","internalType":"address[]"},{"name":"stringArray","type":"string[]","internalType":"string[]"},{"name":"uintArray","type":"uint256[]","internalType":"uint256[]"}]}]},{"name":"proof","type":"bytes32[]","internalType":"bytes32[]"}],"outputs":[{"name":"","type":"uint256","internalType":"uint256"}],"stateMutability":"payable"},{"type":"function","name":"proposeWithoutProof","inputs":[{"name":"proposal","type":"tuple","internalType":"struct Governor.ProposalCore","components":[{"name":"author","type":"address","internalType":"address"},{"name":"exists","type":"bool","internalType":"bool"},{"name":"description","type":"string","internalType":"string"},{"name":"targetMetadata","type":"tuple","internalType":"struct Governor.TargetMetadata","components":[{"name":"targetAddress","type":"address","internalType":"address"}]},{"name":"safeMetadata","type":"tuple","internalType":"struct Governor.SafeMetadata","components":[{"name":"signers","type":"address[]","internalType":"address[]"},{"name":"threshold","type":"uint256","internalType":"uint256"}]},{"name":"fieldsMetadata","type":"tuple","internalType":"struct Governor.FieldsMetadata","components":[{"name":"addressArray","type":"address[]","internalType":"address[]"},{"name":"stringArray","type":"string[]","internalType":"string[]"},{"name":"uintArray","type":"uint256[]","internalType":"uint256[]"}]}]}],"outputs":[{"name":"","type":"uint256","internalType":"uint256"}],"stateMutability":"payable"},{"type":"function","name":"rankLimit","inputs":[],"outputs":[{"name":"","type":"uint256","internalType":"uint256"}],"stateMutability":"view"},{"type":"function","name":"setCreatorSplitDestination","inputs":[{"name":"newCreatorSplitDestination","type":"address","internalType":"address"}],"outputs":[],"stateMutability":"nonpayable"},{"type":"function","name":"setOfficialRewardsModule","inputs":[{"name":"officialRewardsModule_","type":"address","internalType":"contract RewardsModule"}],"outputs":[],"stateMutability":"nonpayable"},{"type":"function","name":"setSubmissionMerkleRoot","inputs":[{"name":"newSubmissionMerkleRoot","type":"bytes32","internalType":"bytes32"}],"outputs":[],"stateMutability":"nonpayable"},{"type":"function","name":"setVotingMerkleRoot","inputs":[{"name":"newVotingMerkleRoot","type":"bytes32","internalType":"bytes32"}],"outputs":[],"stateMutability":"nonpayable"},{"type":"function","name":"sortedRanks","inputs":[{"name":"","type":"uint256","internalType":"uint256"}],"outputs":[{"name":"","type":"uint256","internalType":"uint256"}],"stateMutability":"view"},{"type":"function","name":"sortingEnabled","inputs":[],"outputs":[{"name":"","type":"uint256","internalType":"uint256"}],"stateMutability":"view"},{"type":"function","name":"state","inputs":[],"outputs":[{"name":"","type":"uint8","internalType":"enum Governor.ContestState"}],"stateMutability":"view"},{"type":"function","name":"submissionMerkleRoot","inputs":[],"outputs":[{"name":"","type":"bytes32","internalType":"bytes32"}],"stateMutability":"view"},{"type":"function","name":"totalVotesCast","inputs":[],"outputs":[{"name":"","type":"uint256","internalType":"uint256"}],"stateMutability":"view"},{"type":"function","name":"validateProposalData","inputs":[{"name":"proposal","type":"tuple","internalType":"struct Governor.ProposalCore","components":[{"name":"author","type":"address","internalType":"address"},{"name":"exists","type":"bool","internalType":"bool"},{"name":"description","type":"string","internalType":"string"},{"name":"targetMetadata","type":"tuple","internalType":"struct Governor.TargetMetadata","components":[{"name":"targetAddress","type":"address","internalType":"address"}]},{"name":"safeMetadata","type":"tuple","internalType":"struct Governor.SafeMetadata","components":[{"name":"signers","type":"address[]","internalType":"address[]"},{"name":"threshold","type":"uint256","internalType":"uint256"}]},{"name":"fieldsMetadata","type":"tuple","internalType":"struct Governor.FieldsMetadata","components":[{"name":"addressArray","type":"address[]","internalType":"address[]"},{"name":"stringArray","type":"string[]","internalType":"string[]"},{"name":"uintArray","type":"uint256[]","internalType":"uint256[]"}]}]}],"outputs":[],"stateMutability":"view"},{"type":"function","name":"verifyProposer","inputs":[{"name":"account","type":"address","internalType":"address"},{"name":"proof","type":"bytes32[]","internalType":"bytes32[]"}],"outputs":[],"stateMutability":"nonpayable"},{"type":"function","name":"verifyVoter","inputs":[{"name":"account","type":"address","internalType":"address"},{"name":"totalVotes","type":"uint256","internalType":"uint256"},{"name":"proof","type":"bytes32[]","internalType":"bytes32[]"}],"outputs":[],"stateMutability":"nonpayable"},{"type":"function","name":"version","inputs":[],"outputs":[{"name":"","type":"string","internalType":"string"}],"stateMutability":"pure"},{"type":"function","name":"voteStart","inputs":[],"outputs":[{"name":"","type":"uint256","internalType":"uint256"}],"stateMutability":"view"},{"type":"function","name":"votingDelay","inputs":[],"outputs":[{"name":"","type":"uint256","internalType":"uint256"}],"stateMutability":"view"},{"type":"function","name":"votingMerkleRoot","inputs":[],"outputs":[{"name":"","type":"bytes32","internalType":"bytes32"}],"stateMutability":"view"},{"type":"function","name":"votingPeriod","inputs":[],"outputs":[{"name":"","type":"uint256","internalType":"uint256"}],"stateMutability":"view"},{"type":"event","name":"CommentCreated","inputs":[{"name":"commentId","type":"uint256","indexed":false,"internalType":"uint256"}],"anonymous":false},{"type":"event","name":"CommentsDeleted","inputs":[{"name":"commentIds","type":"uint256[]","indexed":false,"internalType":"uint256[]"}],"anonymous":false},{"type":"event","name":"ContestCanceled","inputs":[],"anonymous":false},{"type":"event","name":"CreatorPaymentReleased","inputs":[{"name":"to","type":"address","indexed":false,"internalType":"address"},{"name":"amount","type":"uint256","indexed":false,"internalType":"uint256"}],"anonymous":false},{"type":"event","name":"JkLabsPaymentReleased","inputs":[{"name":"to","type":"address","indexed":false,"internalType":"address"},{"name":"amount","type":"uint256","indexed":false,"internalType":"uint256"}],"anonymous":false},{"type":"event","name":"JokeraceCreated","inputs":[{"name":"version","type":"string","indexed":false,"internalType":"string"},{"name":"name","type":"string","indexed":false,"internalType":"string"},{"name":"prompt","type":"string","indexed":false,"internalType":"string"},{"name":"creator","type":"address","indexed":false,"internalType":"address"},{"name":"contestStart","type":"uint256","indexed":false,"internalType":"uint256"},{"name":"votingDelay","type":"uint256","indexed":false,"internalType":"uint256"},{"name":"votingPeriod","type":"uint256","indexed":false,"internalType":"uint256"}],"anonymous":false},{"type":"event","name":"OfficialRewardsModuleSet","inputs":[{"name":"oldOfficialRewardsModule","type":"address","indexed":false,"internalType":"contract RewardsModule"},{"name":"newOfficialRewardsModule","type":"address","indexed":false,"internalType":"contract RewardsModule"}],"anonymous":false},{"type":"event","name":"ProposalCreated","inputs":[{"name":"proposalId","type":"uint256","indexed":false,"internalType":"uint256"},{"name":"proposer","type":"address","indexed":false,"internalType":"address"},{"name":"proposalDescription","type":"string","indexed":false,"internalType":"string"}],"anonymous":false},{"type":"event","name":"ProposalsDeleted","inputs":[{"name":"proposalIds","type":"uint256[]","indexed":false,"internalType":"uint256[]"}],"anonymous":false},{"type":"event","name":"VoteCast","inputs":[{"name":"voter","type":"address","indexed":true,"internalType":"address"},{"name":"proposalId","type":"uint256","indexed":false,"internalType":"uint256"},{"name":"support","type":"uint8","indexed":false,"internalType":"uint8"},{"name":"numVotes","type":"uint256","indexed":false,"internalType":"uint256"}],"anonymous":false},{"type":"error","name":"AddressFieldMetadataArrayTooLong","inputs":[]},{"type":"error","name":"AddressNotPermissionedToSubmit","inputs":[]},{"type":"error","name":"AuthorIsNotSender","inputs":[{"name":"author","type":"address","internalType":"address"},{"name":"sender","type":"address","internalType":"address"}]},{"type":"error","name":"CannotDeleteWhenCompleted","inputs":[]},{"type":"error","name":"CannotUpdateAfterCompleted","inputs":[]},{"type":"error","name":"CannotVoteLessThanOneVoteInPayPerVote","inputs":[]},{"type":"error","name":"CannotVoteOnDeletedProposal","inputs":[]},{"type":"error","name":"ContestAlreadyCancelled","inputs":[]},{"type":"error","name":"ContestMustBeActiveToVote","inputs":[{"name":"currentState","type":"uint8","internalType":"enum Governor.ContestState"}]},{"type":"error","name":"ContestMustBeQueuedToPropose","inputs":[{"name":"currentState","type":"uint8","internalType":"enum Governor.ContestState"}]},{"type":"error","name":"ContestSubmissionLimitReached","inputs":[{"name":"maxProposalCount","type":"uint256","internalType":"uint256"}]},{"type":"error","name":"DownvotingNotEnabled","inputs":[]},{"type":"error","name":"DuplicateSubmission","inputs":[{"name":"proposalId","type":"uint256","internalType":"uint256"}]},{"type":"error","name":"EmptyProposalDescription","inputs":[]},{"type":"error","name":"IncorrectCostSent","inputs":[{"name":"msgValue","type":"uint256","internalType":"uint256"},{"name":"costToVote","type":"uint256","internalType":"uint256"}]},{"type":"error","name":"IndexHasNotBeenPopulated","inputs":[]},{"type":"error","name":"InvalidVoteType","inputs":[]},{"type":"error","name":"MoreThanOneProposalWithThisManyVotes","inputs":[]},{"type":"error","name":"NeedAtLeastOneVoteToVote","inputs":[]},{"type":"error","name":"NeedToSubmitWithProofFirst","inputs":[]},{"type":"error","name":"NeedToVoteWithProofFirst","inputs":[]},{"type":"error","name":"NotEnoughVotesLeft","inputs":[]},{"type":"error","name":"NotInMerkle","inputs":[]},{"type":"error","name":"OnlyCreatorCanAmend","inputs":[]},{"type":"error","name":"OnlyCreatorCanDelete","inputs":[]},{"type":"error","name":"OnlyCreatorCanSetRewardsModule","inputs":[]},{"type":"error","name":"OnlyCreatorOrAuthorCanDeleteComments","inputs":[{"name":"failedToDeleteCommentId","type":"uint256","internalType":"uint256"}]},{"type":"error","name":"OnlyJkLabsCanAmend","inputs":[]},{"type":"error","name":"OnlyJkLabsOrCreatorCanCancel","inputs":[]},{"type":"error","name":"PayPerVoteMustBeEnabledForAnyoneCanVote","inputs":[]},{"type":"error","name":"RankCannotBeZero","inputs":[]},{"type":"error","name":"RankIsNotInSortedRanks","inputs":[]},{"type":"error","name":"SenderSubmissionLimitReached","inputs":[{"name":"numAllowedProposalSubmissions","type":"uint256","internalType":"uint256"}]},{"type":"error","name":"SortingAndDownvotingCannotBothBeEnabled","inputs":[]},{"type":"error","name":"StringFieldMetadataArrayTooLong","inputs":[]},{"type":"error","name":"UintFieldMetadataArrayTooLong","inputs":[]},{"type":"error","name":"UnexpectedMetadata","inputs":[{"name":"unexpectedMetadata","type":"uint8","internalType":"enum Governor.Metadatas"}]},{"type":"error","name":"ZeroSignersInSafeMetadata","inputs":[]},{"type":"error","name":"ZeroThresholdInSafeMetadata","inputs":[]}],"bytecode":{"object":"0x60806040523480156200001157600080fd5b50604051620055d4380380620055d4833981016040819052620000349162000326565b805160c081015160e0909101516000919091556001556003839055600482905584848260056200006584826200055a565b5060066200007483826200055a565b5060078054336001600160a01b0319918216811790925582518051600855602080820151600955604080830151600a556060830151600b556080830151600c5560a0830151600d55610100830151600e55610120830151600f5561014083015160105561016090920151601155808501516012805485166001600160a01b039283161790558286015160138054909516911617909255805180820182526004815263342e333160e01b8184015284518051938101519083015192517f9a9bca21e4e51607db64fbdbcd7b2284a909c6a8969821f0d161efbdcae7016095620001689593948a948a9492939092919062000654565b60405180910390a15050815160c00151600114905080156200018f5750805160a001516001145b15620001ae57604051636bff10c960e01b815260040160405180910390fd5b81158015620001c1575080516101600151155b15620001e0576040516397b6be7d60e01b815260040160405180910390fd5b5050505050620006c3565b634e487b7160e01b600052604160045260246000fd5b604051608081016001600160401b0381118282101715620002265762000226620001eb565b60405290565b60405161018081016001600160401b0381118282101715620002265762000226620001eb565b60005b838110156200026f57818101518382015260200162000255565b50506000910152565b600082601f8301126200028a57600080fd5b81516001600160401b0380821115620002a757620002a7620001eb565b604051601f8301601f19908116603f01168101908282118183101715620002d257620002d2620001eb565b81604052838152866020858801011115620002ec57600080fd5b620002ff84602083016020890162000252565b9695505050505050565b80516001600160a01b03811681146200032157600080fd5b919050565b600080600080600060a086880312156200033f57600080fd5b85516001600160401b03808211156200035757600080fd5b6200036589838a0162000278565b965060208801519150808211156200037c57600080fd5b6200038a89838a0162000278565b955060408801519450606088015193506080880151915080821115620003af57600080fd5b908701908189036101e0811215620003c657600080fd5b620003d062000201565b61018080831215620003e157600080fd5b620003eb6200022c565b9250845183526020850151602084015260408501516040840152606085015160608401526080850151608084015260a085015160a084015260c085015160c084015260e085015160e08401526101008086015181850152506101208086015181850152506101408086015181850152506101608086015181850152508282526200047781860162000309565b6020830152506200048c6101a0850162000309565b60408201526101c0840151915082821115620004a757600080fd5b620004b58b83860162000278565b6060820152809450505050509295509295909350565b600181811c90821680620004e057607f821691505b6020821081036200050157634e487b7160e01b600052602260045260246000fd5b50919050565b601f8211156200055557600081815260208120601f850160051c81016020861015620005305750805b601f850160051c820191505b8181101562000551578281556001016200053c565b5050505b505050565b81516001600160401b03811115620005765762000576620001eb565b6200058e81620005878454620004cb565b8462000507565b602080601f831160018114620005c65760008415620005ad5750858301515b600019600386901b1c1916600185901b17855562000551565b600085815260208120601f198616915b82811015620005f757888601518255948401946001909101908401620005d6565b5085821015620006165787850151600019600388901b60f8161c191681555b5050505050600190811b01905550565b600081518084526200064081602086016020860162000252565b601f01601f19169290920160200192915050565b60e0815260006200066960e083018a62000626565b82810360208401526200067d818a62000626565b9050828103604084015262000693818962000626565b6001600160a01b039790971660608401525050608081019390935260a083019190915260c0909101529392505050565b614f0180620006d36000396000f3fe6080604052600436106104ca5760003560e01c806375e509c511610276578063c7f758a81161014f578063ea8a1af0116100c1578063f4f3d7ec11610085578063f4f3d7ec14610f3a578063f5c3641114610f5a578063f61736f414610f7a578063f79c017214610f9a578063f823f11014610fca578063fb9bf8d414610fdd57600080fd5b8063ea8a1af014610eb2578063edcd1be414610ec7578063eef18e1714610edd578063efa90d3614610f05578063f0a7db0a14610f1a57600080fd5b8063d798902511610113578063d798902514610e05578063daf762db14610e25578063dd96a19d14610e45578063dea5f6a614610e5b578063e031535b14610e88578063e11db9d814610e9d57600080fd5b8063c7f758a814610d53578063c9a1b6b214610d80578063cb85395014610da0578063cbdc27cb14610dd0578063d140d9f014610de557600080fd5b8063a1ac6cb2116101e8578063b323580d116101ac578063b323580d14610ca6578063b382543f14610cc6578063b66d1da314610cdb578063bddc164114610cfb578063c05f410414610d11578063c19d93fb14610d3157600080fd5b8063a1ac6cb214610be2578063ab5e694714610c0e578063ac67f80114610c21578063ae66b8ad14610c41578063aec116b614610c7157600080fd5b80638ebb4c151161023a5780638ebb4c1514610b005780639174778c14610b30578063930de97914610b50578063946369b514610b805780639b644a2314610b955780639ba197af14610bb557600080fd5b806375e509c514610a72578063785ddfe514610a9f5780637c65d71114610abf5780637de418d514610ad4578063832009af14610aea57600080fd5b80633932abb1116103a8578063544c7bb41161031a57806360506ff6116102de57806360506ff6146109de57806365f16263146109f45780636e4eb81014610a075780636ed815ad14610a275780636fd3636b14610a3d578063711effc814610a5257600080fd5b8063544c7bb414610912578063544ffc9c1461093257806354fd4d501461097c5780635c7107d8146109a95780635cb718a1146109c957600080fd5b80634a587ad41161036c5780634a587ad4146108645780634d24a67f1461088457806350a5e5241461089957806350c4b616146108bc57806351a41dec146108dc578063531bd812146108f257600080fd5b80633932abb1146107e15780633f9942ff146107f75780633fb57c9214610811578063409fd03014610831578063419c533c1461085157600080fd5b8063102613d811610441578063262e59e911610405578063262e59e9146107285780632c39805f1461073d578063325cc6d91461075f57806332763c221461077f578063347cf665146107af578063366ecf5b146107cb57600080fd5b8063102613d8146106845780631242b737146106a4578063146230f6146106c65780631805c523146106e857806320b3e8451461070857600080fd5b80630414126a116104935780630414126a1461058e57806305846cae146105a457806306fdde03146105c4578063070dc5d9146105e65780630800e300146106375780630aa25e441461066457600080fd5b80624114a8146104cf578063013cf08b146104f857806302a251a31461052a57806302d05d3f1461054057806303f7eed614610578575b600080fd5b3480156104db57600080fd5b506104e560085481565b6040519081526020015b60405180910390f35b34801561050457600080fd5b50610518610513366004613ec4565b610ff3565b6040516104ef96959493929190614054565b34801561053657600080fd5b506104e5600a5481565b34801561054c57600080fd5b50600754610560906001600160a01b031681565b6040516001600160a01b0390911681526020016104ef565b34801561058457600080fd5b506104e560115481565b34801561059a57600080fd5b506104e560015481565b3480156105b057600080fd5b506104e56105bf366004613ec4565b6112de565b3480156105d057600080fd5b506105d96112ff565b6040516104ef91906140ae565b3480156105f257600080fd5b5061062a610601366004613ec4565b602160209081526000918252604091829020825180840190935280548352600101549082015281565b6040516104ef91906140c1565b34801561064357600080fd5b50610657610652366004613ec4565b61138d565b6040516104ef91906140d8565b34801561067057600080fd5b5061056061067f366004613ec4565b6114a1565b34801561069057600080fd5b50601354610560906001600160a01b031681565b3480156106b057600080fd5b506106b96114cb565b6040516104ef9190614121565b3480156106d257600080fd5b506106e66106e1366004614159565b611523565b005b3480156106f457600080fd5b506104e5610703366004614275565b6115a9565b34801561071457600080fd5b506106e66107233660046142ff565b6116ca565b34801561073457600080fd5b506104e5611739565b34801561074957600080fd5b50610752611755565b6040516104ef9190614353565b34801561076b57600080fd5b506104e561077a366004613ec4565b6117b6565b34801561078b57600080fd5b5061079f61079a3660046143b0565b6117c6565b60405190151581526020016104ef565b3480156107bb57600080fd5b506104e5678ac7230489e8000081565b3480156107d757600080fd5b506104e560005481565b3480156107ed57600080fd5b506104e560095481565b34801561080357600080fd5b5060175461079f9060ff1681565b34801561081d57600080fd5b506104e561082c366004613ec4565b6118c5565b34801561083d57600080fd5b506104e561084c366004614420565b6118d5565b6104e561085f3660046144dc565b611906565b34801561087057600080fd5b50601254610560906001600160a01b031681565b34801561089057600080fd5b506104e5611974565b3480156108a557600080fd5b506108ae611983565b6040516104ef92919061454c565b3480156108c857600080fd5b506105606108d7366004613ec4565b611a89565b3480156108e857600080fd5b506104e560105481565b3480156108fe57600080fd5b506106e661090d3660046145b5565b611a99565b34801561091e57600080fd5b506106e661092d366004613ec4565b611b0e565b34801561093e57600080fd5b5061096761094d366004613ec4565b600090815260216020526040902080546001909101549091565b604080519283526020830191909152016104ef565b34801561098857600080fd5b50604080518082019091526004815263342e333160e01b60208201526105d9565b3480156109b557600080fd5b506104e56109c4366004613ec4565b611b80565b3480156109d557600080fd5b506106b9611c87565b3480156109ea57600080fd5b506104e5600d5481565b6104e5610a02366004614610565b611cdd565b348015610a1357600080fd5b50610967610a22366004614645565b611d7b565b348015610a3357600080fd5b506104e5600f5481565b348015610a4957600080fd5b506106b9611db0565b348015610a5e57600080fd5b506104e5610a6d366004614675565b611e06565b348015610a7e57600080fd5b506104e5610a8d366004614159565b60196020526000908152604090205481565b348015610aab57600080fd5b50602354610560906001600160a01b031681565b348015610acb57600080fd5b506105d9611e37565b348015610ae057600080fd5b506104e5601f5481565b348015610af657600080fd5b506104e5600b5481565b348015610b0c57600080fd5b50610b20610b1b366004613ec4565b611e44565b6040516104ef9493929190614697565b348015610b3c57600080fd5b5061079f610b4b366004613ec4565b611f01565b348015610b5c57600080fd5b5061079f610b6b366004614159565b601d6020526000908152604090205460ff1681565b348015610b8c57600080fd5b50610752611fa7565b348015610ba157600080fd5b506104e5610bb0366004613ec4565b612007565b348015610bc157600080fd5b506104e5610bd0366004613ec4565b60009081526022602052604090205490565b348015610bee57600080fd5b506104e5610bfd366004614159565b602080526000908152604090205481565b6104e5610c1c3660046146e6565b612017565b348015610c2d57600080fd5b506106e6610c3c3660046147a8565b612091565b348015610c4d57600080fd5b5061079f610c5c366004613ec4565b60286020526000908152604090205460ff1681565b348015610c7d57600080fd5b506104e5610c8c366004614159565b6001600160a01b0316600090815260208052604090205490565b348015610cb257600080fd5b50610752610cc1366004613ec4565b6121cb565b348015610cd257600080fd5b506104e5600a81565b348015610ce757600080fd5b506104e5610cf6366004613ec4565b61223d565b348015610d0757600080fd5b506104e560035481565b348015610d1d57600080fd5b506106b9610d2c366004613ec4565b61229d565b348015610d3d57600080fd5b50610d466122ff565b6040516104ef91906147f2565b348015610d5f57600080fd5b50610d73610d6e366004613ec4565b612350565b6040516104ef919061480c565b348015610d8c57600080fd5b506106b9610d9b366004613ec4565b612670565b348015610dac57600080fd5b5061079f610dbb366004614159565b601e6020526000908152604090205460ff1681565b348015610ddc57600080fd5b506107526126d0565b348015610df157600080fd5b506106e6610e00366004614b7b565b612800565b348015610e1157600080fd5b506104e5610e20366004614b7b565b6129e7565b348015610e3157600080fd5b506106e6610e40366004613ec4565b6129fa565b348015610e5157600080fd5b506104e560045481565b348015610e6757600080fd5b506104e5610e76366004614159565b601c6020526000908152604090205481565b348015610e9457600080fd5b506104e5612a6c565b348015610ea957600080fd5b506106b9612a7e565b348015610ebe57600080fd5b506106e6612ad4565b348015610ed357600080fd5b506104e5600e5481565b348015610ee957600080fd5b5061056073dc652c746a8f85e18ce632d97c6118e8a52fa73881565b348015610f1157600080fd5b506106b9612b98565b348015610f2657600080fd5b506106e6610f35366004614baf565b612bee565b348015610f4657600080fd5b506106e6610f55366004614159565b612d49565b348015610f6657600080fd5b506104e5610f75366004613ec4565b612dce565b348015610f8657600080fd5b506104e5610f95366004614675565b612dde565b348015610fa657600080fd5b5061079f610fb5366004613ec4565b60166020526000908152604090205460ff1681565b6104e5610fd8366004614bf0565b612dfa565b348015610fe957600080fd5b506104e5600c5481565b601860205260009081526040902080546001820180546001600160a01b03831693600160a01b90930460ff1692919061102b90614c4b565b80601f016020809104026020016040519081016040528092919081815260200182805461105790614c4b565b80156110a45780601f10611079576101008083540402835291602001916110a4565b820191906000526020600020905b81548152906001019060200180831161108757829003601f168201915b5050604080516020808201835260028801546001600160a01b03168252825160038901805460609381028301840186529482018581529899939893975090955093508492849184018282801561112357602002820191906000526020600020905b81546001600160a01b03168152600190910190602001808311611105575b5050505050815260200160018201548152505090806005016040518060600160405290816000820180548060200260200160405190810160405280929190818152602001828054801561119f57602002820191906000526020600020905b81546001600160a01b03168152600190910190602001808311611181575b5050505050815260200160018201805480602002602001604051908101604052809291908181526020016000905b828210156112795783829060005260206000200180546111ec90614c4b565b80601f016020809104026020016040519081016040528092919081815260200182805461121890614c4b565b80156112655780601f1061123a57610100808354040283529160200191611265565b820191906000526020600020905b81548152906001019060200180831161124857829003601f168201915b5050505050815260200190600101906111cd565b505050508152602001600282018054806020026020016040519081016040528092919081815260200182805480156112d057602002820191906000526020600020905b8154815260200190600101908083116112bc575b505050505081525050905086565b601581815481106112ee57600080fd5b600091825260209091200154905081565b6005805461130c90614c4b565b80601f016020809104026020016040519081016040528092919081815260200182805461133890614c4b565b80156113855780601f1061135a57610100808354040283529160200191611385565b820191906000526020600020905b81548152906001019060200180831161136857829003601f168201915b505050505081565b6113c1604051806080016040528060006001600160a01b031681526020016000815260200160008152602001606081525090565b600082815260266020908152604091829020825160808101845281546001600160a01b0316815260018201549281019290925260028101549282019290925260038201805491929160608401919061141890614c4b565b80601f016020809104026020016040519081016040528092919081815260200182805461144490614c4b565b80156114915780601f1061146657610100808354040283529160200191611491565b820191906000526020600020905b81548152906001019060200180831161147457829003601f168201915b5050505050815250509050919050565b601a81815481106114b157600080fd5b6000918252602090912001546001600160a01b0316905081565b6060601580548060200260200160405190810160405280929190818152602001828054801561151957602002820191906000526020600020905b815481526020019060010190808311611505575b5050505050905090565b6007546001600160a01b0316331461154e5760405163141dbb4960e21b815260040160405180910390fd5b60046115586122ff565b6004811115611569576115696147dc565b036115875760405163ac61508760e01b815260040160405180910390fd5b601280546001600160a01b0319166001600160a01b0392909216919091179055565b6040805160808101825233815242602082015290810183905260608101829052600090816115d6826118d5565b6024805460018082019092557f7cd332d19b93bcabe3cce7ca0c18a052f57e5fd03b4758a09f30f5ddc4b22ec401829055600082815260266020908152604091829020865181546001600160a01b0319166001600160a01b03909116178155908601519281019290925584015160028201556060840151919250839160038201906116619082614ccd565b505050600085815260276020908152604080832080546001810182559084529190922001829055517f5a1a930fed43f34b3a07db782ebcac28a661c273e662bb98458cfba5a8ccd220906116b89083815260200190565b60405180910390a19150505b92915050565b6001600160a01b0383166000908152601e602052604090205460ff16611734576003546000036116f957505050565b61170f83678ac7230489e80000848460006117c6565b506001600160a01b0383166000908152601e60205260409020805460ff191660011790555b505050565b6000600a54611746612a6c565b6117509190614da2565b905090565b6060601b80548060200260200160405190810160405280929190818152602001828054801561151957602002820191906000526020600020905b81546001600160a01b0316815260019091019060200180831161178f575050505050905090565b600281815481106112ee57600080fd5b6040516bffffffffffffffffffffffff19606087901b16602082015260348101859052600090819060540160405160208183030381529060405280519060200120905060008361185657611851868680806020026020016040519081016040528093929190818152602001838360200280828437600092019190915250506003549150859050612e3a565b611897565b611897868680806020026020016040519081016040528093929190818152602001838360200280828437600092019190915250506004549150859050612e3a565b9050806118b75760405163452c2df160e11b815260040160405180910390fd5b506001979650505050505050565b602581815481106112ee57600080fd5b6000816040516020016118e891906140d8565b60408051601f19818403018152919052805160209091012092915050565b600080611914600186612e50565b60008981526016602052604090205490915060ff1615611947576040516358f1119560e01b815260040160405180910390fd5b61195333878686611a99565b61195c81612f1c565b61196888338988613023565b98975050505050505050565b61198060026001614da2565b81565b6060806000611990612b98565b9050600081516001600160401b038111156119ad576119ad614176565b6040519080825280602002602001820160405280156119f257816020015b60408051808201909152600080825260208201528152602001906001900390816119cb5790505b50905060005b8251811015611a7f5760216000848381518110611a1757611a17614db5565b6020026020010151815260200190815260200160002060000160405180604001604052908160008201548152602001600182015481525050828281518110611a6157611a61614db5565b60200260200101819052508080611a7790614dcb565b9150506119f8565b5090939092509050565b601b81815481106114b157600080fd5b60045415801590611ac357506001600160a01b0384166000908152601d602052604090205460ff16155b15611b0857611ad68484848460016117c6565b506001600160a01b0384166000908152601c60209081526040808320869055601d9091529020805460ff191660011790555b50505050565b3373dc652c746a8f85e18ce632d97c6118e8a52fa73814611b425760405163de07280160e01b815260040160405180910390fd5b6004611b4c6122ff565b6004811115611b5d57611b5d6147dc565b03611b7b5760405163ac61508760e01b815260040160405180910390fd5b600455565b600081600003611ba357604051630ec90a1760e31b815260040160405180910390fd5b60028054604080516020808402820181019092528281529192600092918490830182828015611bf157602002820191906000526020600020905b815481526020019060010190808311611bdd575b5050505050905060006001905060005b83811015611c6d57611c38838281518110611c1e57611c1e614db5565b602002602001015160009081526022602052604090205490565b15611c5b57858203611c4d5795945050505050565b81611c5781614dcb565b9250505b80611c6581614dcb565b915050611c01565b50604051632cc2ab7360e11b815260040160405180910390fd5b606060258054806020026020016040519081016040528092919081815260200182805480156115195760200282019190600052602060002090815481526020019060010190808311611505575050505050905090565b600080611ceb600184612e50565b60008681526016602052604090205490915060ff1615611d1e576040516358f1119560e01b815260040160405180910390fd5b60045415801590611d3f5750336000908152601d602052604090205460ff16155b15611d5d5760405163126ec6d160e31b815260040160405180910390fd5b611d6681612f1c565b611d7285338686613023565b95945050505050565b60008281526021602090815260408083206001600160a01b0385168452600301909152902080546001909101545b9250929050565b606060028054806020026020016040519081016040528092919081815260200182805480156115195760200282019190600052602060002090815481526020019060010190808311611505575050505050905090565b60226020528160005260406000208181548110611e2257600080fd5b90600052602060002001600091509150505481565b6006805461130c90614c4b565b60266020526000908152604090208054600182015460028301546003840180546001600160a01b03909416949293919291611e7e90614c4b565b80601f0160208091040260200160405190810160405280929190818152602001828054611eaa90614c4b565b8015611ef75780601f10611ecc57610100808354040283529160200191611ef7565b820191906000526020600020905b815481529060010190602001808311611eda57829003601f168201915b5050505050905084565b600254600090611f1390600190614de4565b821115611f33576040516365d6f35160e11b815260040160405180910390fd5b60005b611f41836001614da2565b811015611f9e576001611f7d60028381548110611f6057611f60614db5565b906000526020600020015460009081526022602052604090205490565b1115611f8c5750600192915050565b80611f9681614dcb565b915050611f36565b50600092915050565b6060601a805480602002602001604051908101604052809291908181526020018280548015611519576020028201919060005260206000209081546001600160a01b0316815260019091019060200180831161178f575050505050905090565b601481815481106112ee57600080fd5b600080612025600080612e50565b6003549091501561206057336000908152601e602052604090205460ff1661206057604051631f22097560e01b815260040160405180910390fd5b61206c610e0084614df7565b600061207f61207a85614df7565b61316a565b905061208a82612f1c565b9392505050565b805160005b8181101561218f5760008382815181106120b2576120b2614db5565b60209081029190910101516007549091506001600160a01b031633148015906120f257506000818152602660205260409020546001600160a01b03163314155b1561211857604051635450763d60e11b8152600481018290526024015b60405180910390fd5b60008181526028602052604090205460ff1661217c576000818152602860205260408120805460ff191660019081179091556025805491820181559091527f401968ff42a154441da5f6c4c935ac46b8671f0e062baaa62a7545ba53bb6e4c018190555b508061218781614dcb565b915050612096565b507f788a4349d25bc08585923ae212bce8bb346a623bce753eeecb85fd9ce58dcb4b826040516121bf9190614121565b60405180910390a15050565b600081815260216020908152604091829020600281018054845181850281018501909552808552606094929383018282801561223057602002820191906000526020600020905b81546001600160a01b03168152600190910190602001808311612212575b5050505050915050919050565b60008181526022602052604081205460011461226c57604051633832a15560e21b815260040160405180910390fd5b6000828152602260205260408120805490919061228b5761228b614db5565b90600052602060002001549050919050565b6000818152602760209081526040918290208054835181840281018401909452808452606093928301828280156122f357602002820191906000526020600020905b8154815260200190600101908083116122df575b50505050509050919050565b60175460009060ff16156123135750600290565b42600854106123225750600090565b4261232b612a6c565b106123365750600390565b4261233f611739565b1061234a5750600190565b50600490565b612358613ccc565b600082815260186020908152604091829020825160c08101845281546001600160a01b0381168252600160a01b900460ff1615159281019290925260018101805492939192918401916123aa90614c4b565b80601f01602080910402602001604051908101604052809291908181526020018280546123d690614c4b565b80156124235780601f106123f857610100808354040283529160200191612423565b820191906000526020600020905b81548152906001019060200180831161240657829003601f168201915b5050509183525050604080516020818101835260028501546001600160a01b031682528084019190915281516003850180546060938102830184018552828501818152949095019491939092849284918401828280156124ac57602002820191906000526020600020905b81546001600160a01b0316815260019091019060200180831161248e575b505050505081526020016001820154815250508152602001600582016040518060600160405290816000820180548060200260200160405190810160405280929190818152602001828054801561252c57602002820191906000526020600020905b81546001600160a01b0316815260019091019060200180831161250e575b5050505050815260200160018201805480602002602001604051908101604052809291908181526020016000905b8282101561260657838290600052602060002001805461257990614c4b565b80601f01602080910402602001604051908101604052809291908181526020018280546125a590614c4b565b80156125f25780601f106125c7576101008083540402835291602001916125f2565b820191906000526020600020905b8154815290600101906020018083116125d557829003601f168201915b50505050508152602001906001019061255a565b5050505081526020016002820180548060200260200160405190810160405280929190818152602001828054801561265d57602002820191906000526020600020905b815481526020019060010190808311612649575b5050509190925250505090525092915050565b6000818152602260209081526040918290208054835181840281018401909452808452606093928301828280156122f357602002820191906000526020600020908154815260200190600101908083116122df5750505050509050919050565b60606000601580548060200260200160405190810160405280929190818152602001828054801561272057602002820191906000526020600020905b81548152602001906001019080831161270c575b50505050509050600081516001600160401b0381111561274257612742614176565b60405190808252806020026020018201604052801561276b578160200160208202803683370190505b50905060005b82518110156127f9576018600084838151811061279057612790614db5565b6020026020010151815260200190815260200160002060000160009054906101000a90046001600160a01b03168282815181106127cf576127cf614db5565b6001600160a01b0390921660209283029190910190910152806127f181614dcb565b915050612771565b5092915050565b80516001600160a01b0316331461283e57805160405163fbbf4d7f60e01b81526001600160a01b03909116600482015233602482015260440161210f565b60005b61284d60026001614da2565b8110156129bd576000816002811115612868576128686147dc565b9050600081600281111561287e5761287e6147dc565b0361288957506129ab565b600181600281111561289d5761289d6147dc565b036128f757608083015151516000036128c95760405163c3b2798b60e01b815260040160405180910390fd5b8260800151602001516000036128f2576040516392fb9a3560e01b815260040160405180910390fd5b6129a9565b600281600281111561290b5761290b6147dc565b0361298e5760a08301515151600a101561293857604051631e38b1b160e11b815260040160405180910390fd5b600a8360a00151602001515111156129635760405163a3b7dd7760e01b815260040160405180910390fd5b600a8360a00151604001515111156128f25760405163f696406560e01b815260040160405180910390fd5b8060405163d2277d4960e01b815260040161210f9190614e03565b505b806129b581614dcb565b915050612841565b508060400151516000036129e45760405163e182473360e01b815260040160405180910390fd5b50565b6000816040516020016118e8919061480c565b3373dc652c746a8f85e18ce632d97c6118e8a52fa73814612a2e5760405163de07280160e01b815260040160405180910390fd5b6004612a386122ff565b6004811115612a4957612a496147dc565b03612a675760405163ac61508760e01b815260040160405180910390fd5b600355565b60006009546008546117509190614da2565b606060248054806020026020016040519081016040528092919081815260200182805480156115195760200282019190600052602060002090815481526020019060010190808311611505575050505050905090565b6007546001600160a01b03163314801590612b0357503373dc652c746a8f85e18ce632d97c6118e8a52fa73814155b15612b21576040516301dbf46f60e71b815260040160405180910390fd5b6000612b2b6122ff565b90506002816004811115612b4157612b416147dc565b03612b5f57604051633c30acbf60e01b815260040160405180910390fd5b6017805460ff191660011790556040517f4cd963a081760a54f571abc0f1db4dde31b4a07d8d6da3e844b8c6f47eeaaa4290600090a150565b606060148054806020026020016040519081016040528092919081815260200182805480156115195760200282019190600052602060002090815481526020019060010190808311611505575050505050905090565b6007546001600160a01b03163314612c195760405163b8d4540960e01b815260040160405180910390fd5b6004612c236122ff565b6004811115612c3457612c346147dc565b03612c52576040516331da1c8b60e11b815260040160405180910390fd5b60005b81811015612cf7576000838383818110612c7157612c71614db5565b60209081029290920135600081815260169093526040909220549192505060ff16612ce4576000818152601660205260408120805460ff191660019081179091556015805491820181559091527f55f448fdea98c4d29eb340757ef0a66cd03dbb9538908a6a81d96026b71ec475018190555b5080612cef81614dcb565b915050612c55565b50600d54158015612d0a57506000546001145b15612d1957612d198282613441565b7f75a75cf5c561892f4cc5b26c1b8e933849b42238c96dd073d080d1ae96c5141660146040516121bf9190614e17565b6007546001600160a01b03163314612d7457604051630f4cb1bd60e11b815260040160405180910390fd5b602380546001600160a01b038381166001600160a01b031983168117909355604080519190921680825260208201939093527f753a2cf8d360cff631674504210913e48247f8e56b3e6d2006c2103d4095999f91016121bf565b602481815481106112ee57600080fd5b60276020528160005260406000208181548110611e2257600080fd5b600080612e08600080612e50565b9050612e153385856116ca565b612e21610e0086614df7565b6000612e2f61207a87614df7565b9050611d7282612f1c565b600082612e47858461349e565b14949350505050565b60008080846001811115612e6657612e666147dc565b03612e745750600f54612ef3565b6001846001811115612e8857612e886147dc565b03612eef57601154600103612ee657670de0b6b3a7640000831015612ec0576040516346ddb8d160e01b815260040160405180910390fd5b612ed2670de0b6b3a764000084614e52565b601054612edf9190614e74565b9050612ef3565b50601054612ef3565b5060005b80341461208a576040516372c3eaa760e01b81523460048201526024810182905260440161210f565b80156129e45760006064600e546064612f359190614de4565b612f3f9034614e74565b612f499190614e52565b90508015612fae57601354612f67906001600160a01b0316826134eb565b601354604080516001600160a01b039092168252602082018390527f9df63d1c00d2e332f573be591c0579caafb256b2c5a17abcc8ad471cccda1b81910160405180910390a15b6000612fba8234614de4565b9050801561173457601254612fd8906001600160a01b0316826134eb565b600754604080516001600160a01b039092168252602082018390527f6dff55337c8458ae8c536a63869a48bc33541733422a796390c131d91f4238ed910160405180910390a1505050565b6000600161302f6122ff565b6004811115613040576130406147dc565b146130675761304d6122ff565b60405163049cab4960e51b815260040161210f91906147f2565b816000036130885760405163502e1c2960e01b815260040160405180910390fd5b6130ba85858585601c60008a6001600160a01b03166001600160a01b0316815260200190815260200160002054613604565b601b80546001810182556000919091527f3ad8aa4f87544323a9d1e5dd902f40c356527a7955687113db5f9a85ad579dc10180546001600160a01b031916331790556040805186815260ff851660208201529081018390526001600160a01b038516907f2c9deb38f462962eadbd85a9d3a4120503ee091f1582eaaa10aa8c6797651d299060600160405180910390a25050506001600160a01b03166000908152601c6020526040902054919050565b600060036131766122ff565b6004811115613187576131876147dc565b146131ae576131946122ff565b604051632889531360e01b815260040161210f91906147f2565b600b5433600090815260196020526040902054036131e557600b54604051632bd6d93960e21b815260040161210f91815260200190565b600c546015546014546131f89190614de4565b0361321c57600c546040516302217f5360e51b815260040161210f91815260200190565b6000613227836129e7565b600081815260186020526040902054909150600160a01b900460ff16156132645760405163baffc42360e01b81526004810182905260240161210f565b6014805460018181019092557fce6d7b5282bd9a3661ae061feed1dbda4e52ab073b1f9285be6e155d9c38d4ec0182905560008281526018602090815260409182902086518154928801511515600160a01b026001600160a81b03199093166001600160a01b03909116179190911781559085015185928201906132e89082614ccd565b506060820151516002820180546001600160a01b0319166001600160a01b03909216919091179055608082015180518051600384019161332d91839160200190613d66565b5060209182015160019091015560a083015180518051919260058501926133579284920190613d66565b5060208281015180516133709260018501920190613dcb565b506040820151805161338c916002840191602090910190613e1d565b50503360009081526019602052604081208054600195509093509091506133b4908490614da2565b9091555050601a80546001810182556000919091527f057c384a7d1c54f3a1b2e5e67b2617b8224fdfd1ea7234eea573a6ff665ff63e0180546001600160a01b0319163390811790915560408085015190517f7585f467599d0f008985f231af99293be388626ac16ca59505c2f8f88969cd6392613433928592614e8b565b60405180910390a192915050565b60005b8181101561173457600083838381811061346057613460614db5565b602090810292909201356000818152602190935260409092205491925061348990508282613877565b5050808061349690614dcb565b915050613444565b600081815b84518110156134e3576134cf828683815181106134c2576134c2614db5565b60200260200101516139a8565b9150806134db81614dcb565b9150506134a3565b509392505050565b8047101561353b5760405162461bcd60e51b815260206004820152601d60248201527f416464726573733a20696e73756666696369656e742062616c616e6365000000604482015260640161210f565b6000826001600160a01b03168260405160006040518083038185875af1925050503d8060008114613588576040519150601f19603f3d011682016040523d82523d6000602084013e61358d565b606091505b50509050806117345760405162461bcd60e51b815260206004820152603a60248201527f416464726573733a20756e61626c6520746f2073656e642076616c75652c207260448201527f6563697069656e74206d61792068617665207265766572746564000000000000606482015260840161210f565b60008581526021602052604090206004541580159061364357506001600160a01b03851660009081526020805260409020546136409083614de4565b83115b156136615760405163660fa07360e11b815260040160405180910390fd5b6001600160a01b03851660009081526003820160205260408120541580156136a457506001600160a01b0386166000908152600383016020526040902060010154155b905060ff85166136fc578154849083906000906136c2908490614da2565b90915550506001600160a01b0386166000908152600383016020526040812080548692906136f1908490614da2565b9091555061378d9050565b60001960ff86160161377457600d5460011461372b57604051639755958f60e01b815260040160405180910390fd5b838260000160010160008282546137429190614da2565b90915550506001600160a01b0386166000908152600383016020526040812060010180548692906136f1908490614da2565b604051638eed55d160e01b815260040160405180910390fd5b80156137c457600282018054600181018255600091825260209091200180546001600160a01b0319166001600160a01b0388161790555b6001600160a01b0386166000908152602080526040812080548692906137eb908490614da2565b9250508190555083601f60008282546138049190614da2565b9091555050600d5415801561381b57506000546001145b1561386e578154600061382e8683614de4565b90508015613840576138408982613877565b60008281526022602090815260408220805460018101825590835291200189905561386b81836139d7565b50505b50505050505050565b6000818152602260209081526040808320805482518185028101850190935280835291929091908301828280156138cd57602002820191906000526020600020905b8154815260200190600101908083116138b9575b5050505050905060005b8151811015611b0857838282815181106138f3576138f3614db5565b60200260200101510361399657816001835161390f9190614de4565b8151811061391f5761391f614db5565b602002602001015160226000858152602001908152602001600020828154811061394b5761394b614db5565b90600052602060002001819055506022600084815260200190815260200160002080548061397b5761397b614eb5565b60019003818190600052602060002001600090559055611b08565b806139a081614dcb565b9150506138d7565b60008183106139c457600082815260208490526040902061208a565b600083815260208390526040902061208a565b60028054604080516020808402820181019092528281529192600092918490830182828015613a2557602002820191906000526020600020905b815481526020019060010190808311613a11575b5050505050905081600003613a6c575050600280546001810182556000919091527f405787fa12a823e0f2b7631cc41b3ba8828b3321ca811111fa75cd3aa3bb5ace015550565b80613a78600184614de4565b81518110613a8857613a88614db5565b6020026020010151831015613ade576001548203613aa65750505050565b5050600280546001810182556000919091527f405787fa12a823e0f2b7631cc41b3ba8828b3321ca811111fa75cd3aa3bb5ace015550565b611b08848484846000805b83811015613b5357828181518110613b0357613b03614db5565b60200260200101518503613b18575050611b08565b828181518110613b2a57613b2a614db5565b6020026020010151851115613b4157809150613b53565b80613b4b81614dcb565b915050613ae9565b5060008086118015613b715750600086815260226020526040902054155b90506000818015613b9a575086848481518110613b9057613b90614db5565b6020026020010151145b613ca357613ba9600186614de4565b8314613c51576000613bbc846001614da2565b90505b85811015613c4f5784613bd3600183614de4565b81518110613be357613be3614db5565b602002602001015160028281548110613bfe57613bfe614db5565b600091825260209091200155828015613c2f575087858281518110613c2557613c25614db5565b6020026020010151145b15613c3d5760019150613c4f565b80613c4781614dcb565b915050613bbf565b505b80158015613c60575060015485105b15613ca357600284613c73600188614de4565b81518110613c8357613c83614db5565b602090810291909101810151825460018101845560009384529190922001555b8560028481548110613cb757613cb7614db5565b60009182526020909120015550505050505050565b6040518060c0016040528060006001600160a01b0316815260200160001515815260200160608152602001613d16604051806020016040528060006001600160a01b031681525090565b8152602001613d38604051806040016040528060608152602001600081525090565b8152602001613d6160405180606001604052806060815260200160608152602001606081525090565b905290565b828054828255906000526020600020908101928215613dbb579160200282015b82811115613dbb57825182546001600160a01b0319166001600160a01b03909116178255602090920191600190910190613d86565b50613dc7929150613e58565b5090565b828054828255906000526020600020908101928215613e11579160200282015b82811115613e115782518290613e019082614ccd565b5091602001919060010190613deb565b50613dc7929150613e6d565b828054828255906000526020600020908101928215613dbb579160200282015b82811115613dbb578251825591602001919060010190613e3d565b5b80821115613dc75760008155600101613e59565b80821115613dc7576000613e818282613e8a565b50600101613e6d565b508054613e9690614c4b565b6000825580601f10613ea6575050565b601f0160209004906000526020600020908101906129e49190613e58565b600060208284031215613ed657600080fd5b5035919050565b6000815180845260005b81811015613f0357602081850181015186830182015201613ee7565b506000602082860101526020601f19601f83011685010191505092915050565b600081518084526020808501945080840160005b83811015613f5c5781516001600160a01b031687529582019590820190600101613f37565b509495945050505050565b6000815160408452613f7c6040850182613f23565b602093840151949093019390935250919050565b600081518084526020808501945080840160005b83811015613f5c57815187529582019590820190600101613fa4565b6000815160608452613fd56060850182613f23565b9050602080840151858303828701528281518085528385019150838160051b860101848401935060005b8281101561402d57601f1987830301845261401b828651613edd565b94860194938601939150600101613fff565b506040880151955088810360408a01526140478187613f90565b9998505050505050505050565b600060018060a01b038089168352871515602084015260c0604084015261407e60c0840188613edd565b81875116606085015283810360808501526140998187613f67565b91505082810360a08401526140478185613fc0565b60208152600061208a6020830184613edd565b8151815260208083015190820152604081016116c4565b6020815260018060a01b03825116602082015260208201516040820152604082015160608201526000606083015160808084015261411960a0840182613edd565b949350505050565b60208152600061208a6020830184613f90565b6001600160a01b03811681146129e457600080fd5b803561415481614134565b919050565b60006020828403121561416b57600080fd5b813561208a81614134565b634e487b7160e01b600052604160045260246000fd5b604051606081016001600160401b03811182821017156141ae576141ae614176565b60405290565b60405160c081016001600160401b03811182821017156141ae576141ae614176565b604051601f8201601f191681016001600160401b03811182821017156141fe576141fe614176565b604052919050565b600082601f83011261421757600080fd5b81356001600160401b0381111561423057614230614176565b614243601f8201601f19166020016141d6565b81815284602083860101111561425857600080fd5b816020850160208301376000918101602001919091529392505050565b6000806040838503121561428857600080fd5b8235915060208301356001600160401b038111156142a557600080fd5b6142b185828601614206565b9150509250929050565b60008083601f8401126142cd57600080fd5b5081356001600160401b038111156142e457600080fd5b6020830191508360208260051b8501011115611da957600080fd5b60008060006040848603121561431457600080fd5b833561431f81614134565b925060208401356001600160401b0381111561433a57600080fd5b614346868287016142bb565b9497909650939450505050565b6020808252825182820181905260009190848201906040850190845b818110156143945783516001600160a01b03168352928401929184019160010161436f565b50909695505050505050565b8035801515811461415457600080fd5b6000806000806000608086880312156143c857600080fd5b85356143d381614134565b94506020860135935060408601356001600160401b038111156143f557600080fd5b614401888289016142bb565b90945092506144149050606087016143a0565b90509295509295909350565b60006020828403121561443257600080fd5b81356001600160401b038082111561444957600080fd5b908301906080828603121561445d57600080fd5b60405160808101818110838211171561447857614478614176565b604052823561448681614134565b8082525060208301356020820152604083013560408201526060830135828111156144b057600080fd5b6144bc87828601614206565b60608301525095945050505050565b803560ff8116811461415457600080fd5b60008060008060008060a087890312156144f557600080fd5b86359550614505602088016144cb565b9450604087013593506060870135925060808701356001600160401b0381111561452e57600080fd5b61453a89828a016142bb565b979a9699509497509295939492505050565b6000604080835261455f81840186613f90565b83810360208581019190915285518083528682019282019060005b818110156145a75761459783865180518252602090810151910152565b938301939185019160010161457a565b509098975050505050505050565b600080600080606085870312156145cb57600080fd5b84356145d681614134565b93506020850135925060408501356001600160401b038111156145f857600080fd5b614604878288016142bb565b95989497509550505050565b60008060006060848603121561462557600080fd5b83359250614635602085016144cb565b9150604084013590509250925092565b6000806040838503121561465857600080fd5b82359150602083013561466a81614134565b809150509250929050565b6000806040838503121561468857600080fd5b50508035926020909101359150565b60018060a01b03851681528360208201528260408201526080606082015260006146c46080830184613edd565b9695505050505050565b600060c082840312156146e057600080fd5b50919050565b6000602082840312156146f857600080fd5b81356001600160401b0381111561470e57600080fd5b614119848285016146ce565b60006001600160401b0382111561473357614733614176565b5060051b60200190565b600082601f83011261474e57600080fd5b8135602061476361475e8361471a565b6141d6565b82815260059290921b8401810191818101908684111561478257600080fd5b8286015b8481101561479d5780358352918301918301614786565b509695505050505050565b6000602082840312156147ba57600080fd5b81356001600160401b038111156147d057600080fd5b6141198482850161473d565b634e487b7160e01b600052602160045260246000fd5b6020810160058310614806576148066147dc565b91905290565b60208152600060018060a01b03808451166020840152602084015115156040840152604084015160c0606085015261484760e0850182613edd565b90508160608601515116608085015260808501519150601f19808583030160a08601526148748284613f67565b925060a08601519150808584030160c086015250611d728282613fc0565b6000602082840312156148a457600080fd5b604051602081018181106001600160401b03821117156148c6576148c6614176565b60405290508082356148d781614134565b905292915050565b600082601f8301126148f057600080fd5b8135602061490061475e8361471a565b82815260059290921b8401810191818101908684111561491f57600080fd5b8286015b8481101561479d57803561493681614134565b8352918301918301614923565b60006040828403121561495557600080fd5b604051604081016001600160401b03828210818311171561497857614978614176565b81604052829350843591508082111561499057600080fd5b5061499d858286016148df565b825250602083013560208201525092915050565b6000606082840312156149c357600080fd5b6149cb61418c565b905081356001600160401b03808211156149e457600080fd5b6149f0858386016148df565b8352602091508184013581811115614a0757600080fd5b8401601f81018613614a1857600080fd5b8035614a2661475e8261471a565b81815260059190911b82018401908481019088831115614a4557600080fd5b8584015b83811015614a7d57803586811115614a615760008081fd5b614a6f8b8983890101614206565b845250918601918601614a49565b508086880152505050506040840135915080821115614a9b57600080fd5b50614aa88482850161473d565b60408301525092915050565b600060c08284031215614ac657600080fd5b614ace6141b4565b9050614ad982614149565b8152614ae7602083016143a0565b602082015260408201356001600160401b0380821115614b0657600080fd5b614b1285838601614206565b6040840152614b248560608601614892565b60608401526080840135915080821115614b3d57600080fd5b614b4985838601614943565b608084015260a0840135915080821115614b6257600080fd5b50614b6f848285016149b1565b60a08301525092915050565b600060208284031215614b8d57600080fd5b81356001600160401b03811115614ba357600080fd5b61411984828501614ab4565b60008060208385031215614bc257600080fd5b82356001600160401b03811115614bd857600080fd5b614be4858286016142bb565b90969095509350505050565b600080600060408486031215614c0557600080fd5b83356001600160401b0380821115614c1c57600080fd5b614c28878388016146ce565b94506020860135915080821115614c3e57600080fd5b50614346868287016142bb565b600181811c90821680614c5f57607f821691505b6020821081036146e057634e487b7160e01b600052602260045260246000fd5b601f82111561173457600081815260208120601f850160051c81016020861015614ca65750805b601f850160051c820191505b81811015614cc557828155600101614cb2565b505050505050565b81516001600160401b03811115614ce657614ce6614176565b614cfa81614cf48454614c4b565b84614c7f565b602080601f831160018114614d2f5760008415614d175750858301515b600019600386901b1c1916600185901b178555614cc5565b600085815260208120601f198616915b82811015614d5e57888601518255948401946001909101908401614d3f565b5085821015614d7c5787850151600019600388901b60f8161c191681555b5050505050600190811b01905550565b634e487b7160e01b600052601160045260246000fd5b808201808211156116c4576116c4614d8c565b634e487b7160e01b600052603260045260246000fd5b600060018201614ddd57614ddd614d8c565b5060010190565b818103818111156116c4576116c4614d8c565b60006116c43683614ab4565b6020810160038310614806576148066147dc565b6020808252825482820181905260008481528281209092916040850190845b8181101561439457835483526001938401939285019201614e36565b600082614e6f57634e487b7160e01b600052601260045260246000fd5b500490565b80820281158282048414176116c4576116c4614d8c565b8381526001600160a01b0383166020820152606060408201819052600090611d7290830184613edd565b634e487b7160e01b600052603160045260246000fdfea2646970667358221220c5170c16b4b1e7a4116cbd63c9c911e66070776fb744c035c88455c246f9cdb064736f6c63430008130033","linkReferences":{}},"methodIdentifiers":{"AMOUNT_FOR_SUMBITTER_PROOF()":"347cf665","JK_LABS_ADDRESS()":"eef18e17","MAX_FIELDS_METADATA_LENGTH()":"b382543f","METADATAS_COUNT()":"4d24a67f","addressSubmitterVerified(address)":"cb853950","addressTotalCastVoteCounts(address)":"a1ac6cb2","addressTotalVotes(address)":"dea5f6a6","addressTotalVotesVerified(address)":"930de979","addressesThatHaveVoted(uint256)":"50c4b616","allProposalTotalVotes()":"50a5e524","cancel()":"ea8a1af0","canceled()":"3f9942ff","castVote(uint256,uint8,uint256,uint256,bytes32[])":"419c533c","castVoteWithoutProof(uint256,uint8,uint256)":"65f16263","checkProof(address,uint256,bytes32[],bool)":"32763c22","comment(uint256,string)":"1805c523","commentIds(uint256)":"f5c36411","commentIsDeleted(uint256)":"ae66b8ad","comments(uint256)":"8ebb4c15","contestAddressTotalVotesCast(address)":"aec116b6","contestDeadline()":"262e59e9","contestStart()":"004114a8","costToPropose()":"6ed815ad","costToVote()":"51a41dec","creator()":"02d05d3f","creatorSplitDestination()":"4a587ad4","deleteComments(uint256[])":"ac67f801","deleteProposals(uint256[])":"f0a7db0a","deletedCommentIds(uint256)":"3fb57c92","deletedProposalIds(uint256)":"05846cae","downvotingAllowed()":"60506ff6","forVotesToProposalIds(uint256,uint256)":"711effc8","getAllAddressesThatHaveVoted()":"2c39805f","getAllAuthorsOfDeletedProposals()":"cbdc27cb","getAllCommentIds()":"e11db9d8","getAllDeletedCommentIds()":"5cb718a1","getAllDeletedProposalIds()":"1242b737","getAllProposalAuthors()":"946369b5","getAllProposalIds()":"efa90d36","getComment(uint256)":"0800e300","getNumProposalsWithThisManyForVotes(uint256)":"9ba197af","getOnlyProposalIdWithThisManyForVotes(uint256)":"b66d1da3","getProposal(uint256)":"c7f758a8","getProposalComments(uint256)":"c05f4104","getProposalsWithThisManyForVotes(uint256)":"c9a1b6b2","getRankIndex(uint256)":"5c7107d8","getSortedRanks()":"6fd3636b","hashComment((address,uint256,uint256,string))":"409fd030","hashProposal((address,bool,string,(address),(address[],uint256),(address[],string[],uint256[])))":"d7989025","isOrIsBelowTiedRank(uint256)":"9174778c","jkLabsSplitDestination()":"102613d8","maxProposalCount()":"fb9bf8d4","name()":"06fdde03","numAllowedProposalSubmissions()":"832009af","numSubmissions(address)":"75e509c5","officialRewardsModule()":"785ddfe5","payPerVote()":"03f7eed6","percentageToCreator()":"edcd1be4","prompt()":"7c65d711","proposalAddressVotes(uint256,address)":"6e4eb810","proposalAddressesHaveVoted(uint256)":"b323580d","proposalAuthors(uint256)":"0aa25e44","proposalComments(uint256,uint256)":"f61736f4","proposalIds(uint256)":"9b644a23","proposalIsDeleted(uint256)":"f79c0172","proposalVotes(uint256)":"544ffc9c","proposalVotesStructs(uint256)":"070dc5d9","proposals(uint256)":"013cf08b","propose((address,bool,string,(address),(address[],uint256),(address[],string[],uint256[])),bytes32[])":"f823f110","proposeWithoutProof((address,bool,string,(address),(address[],uint256),(address[],string[],uint256[])))":"ab5e6947","rankLimit()":"0414126a","setCreatorSplitDestination(address)":"146230f6","setOfficialRewardsModule(address)":"f4f3d7ec","setSubmissionMerkleRoot(bytes32)":"daf762db","setVotingMerkleRoot(bytes32)":"544c7bb4","sortedRanks(uint256)":"325cc6d9","sortingEnabled()":"366ecf5b","state()":"c19d93fb","submissionMerkleRoot()":"bddc1641","totalVotesCast()":"7de418d5","validateProposalData((address,bool,string,(address),(address[],uint256),(address[],string[],uint256[])))":"d140d9f0","verifyProposer(address,bytes32[])":"20b3e845","verifyVoter(address,uint256,bytes32[])":"531bd812","version()":"54fd4d50","voteStart()":"e031535b","votingDelay()":"3932abb1","votingMerkleRoot()":"dd96a19d","votingPeriod()":"02a251a3"},"id":34}