{"abi":[{"type":"constructor","inputs":[{"name":"_name","type":"string","internalType":"string"},{"name":"_prompt","type":"string","internalType":"string"},{"name":"_submissionMerkleRoot","type":"bytes32","internalType":"bytes32"},{"name":"_votingMerkleRoot","type":"bytes32","internalType":"bytes32"},{"name":"_constructorArgs","type":"tuple","internalType":"struct Governor.ConstructorArgs","components":[{"name":"contestStart","type":"uint256","internalType":"uint256"},{"name":"votingDelay","type":"uint256","internalType":"uint256"},{"name":"votingPeriod","type":"uint256","internalType":"uint256"},{"name":"numAllowedProposalSubmissions","type":"uint256","internalType":"uint256"},{"name":"maxProposalCount","type":"uint256","internalType":"uint256"},{"name":"downvotingAllowed","type":"uint256","internalType":"uint256"},{"name":"sortingEnabled","type":"uint256","internalType":"uint256"},{"name":"rankLimit","type":"uint256","internalType":"uint256"},{"name":"percentageToCreator","type":"uint256","internalType":"uint256"},{"name":"costToPropose","type":"uint256","internalType":"uint256"},{"name":"costToVote","type":"uint256","internalType":"uint256"},{"name":"payPerVote","type":"uint256","internalType":"uint256"},{"name":"creatorSplitDestination","type":"address","internalType":"address"},{"name":"jkLabsSplitDestination","type":"address","internalType":"address"}]}],"stateMutability":"nonpayable"},{"type":"function","name":"AMOUNT_FOR_SUMBITTER_PROOF","inputs":[],"outputs":[{"name":"","type":"uint256","internalType":"uint256"}],"stateMutability":"view"},{"type":"function","name":"JK_LABS_ADDRESS","inputs":[],"outputs":[{"name":"","type":"address","internalType":"address"}],"stateMutability":"view"},{"type":"function","name":"METADATAS_COUNT","inputs":[],"outputs":[{"name":"","type":"uint256","internalType":"uint256"}],"stateMutability":"view"},{"type":"function","name":"addressSubmitterVerified","inputs":[{"name":"","type":"address","internalType":"address"}],"outputs":[{"name":"","type":"bool","internalType":"bool"}],"stateMutability":"view"},{"type":"function","name":"addressTotalCastVoteCounts","inputs":[{"name":"","type":"address","internalType":"address"}],"outputs":[{"name":"","type":"uint256","internalType":"uint256"}],"stateMutability":"view"},{"type":"function","name":"addressTotalVotes","inputs":[{"name":"","type":"address","internalType":"address"}],"outputs":[{"name":"","type":"uint256","internalType":"uint256"}],"stateMutability":"view"},{"type":"function","name":"addressTotalVotesVerified","inputs":[{"name":"","type":"address","internalType":"address"}],"outputs":[{"name":"","type":"bool","internalType":"bool"}],"stateMutability":"view"},{"type":"function","name":"addressesThatHaveVoted","inputs":[{"name":"","type":"uint256","internalType":"uint256"}],"outputs":[{"name":"","type":"address","internalType":"address"}],"stateMutability":"view"},{"type":"function","name":"allProposalTotalVotes","inputs":[],"outputs":[{"name":"proposalIdsReturn","type":"uint256[]","internalType":"uint256[]"},{"name":"proposalVoteCountsArrayReturn","type":"tuple[]","internalType":"struct GovernorCountingSimple.VoteCounts[]","components":[{"name":"forVotes","type":"uint256","internalType":"uint256"},{"name":"againstVotes","type":"uint256","internalType":"uint256"}]}],"stateMutability":"view"},{"type":"function","name":"cancel","inputs":[],"outputs":[],"stateMutability":"nonpayable"},{"type":"function","name":"canceled","inputs":[],"outputs":[{"name":"","type":"bool","internalType":"bool"}],"stateMutability":"view"},{"type":"function","name":"castVote","inputs":[{"name":"proposalId","type":"uint256","internalType":"uint256"},{"name":"support","type":"uint8","internalType":"uint8"},{"name":"totalVotes","type":"uint256","internalType":"uint256"},{"name":"numVotes","type":"uint256","internalType":"uint256"},{"name":"proof","type":"bytes32[]","internalType":"bytes32[]"}],"outputs":[{"name":"","type":"uint256","internalType":"uint256"}],"stateMutability":"payable"},{"type":"function","name":"castVoteWithoutProof","inputs":[{"name":"proposalId","type":"uint256","internalType":"uint256"},{"name":"support","type":"uint8","internalType":"uint8"},{"name":"numVotes","type":"uint256","internalType":"uint256"}],"outputs":[{"name":"","type":"uint256","internalType":"uint256"}],"stateMutability":"payable"},{"type":"function","name":"checkProof","inputs":[{"name":"addressToCheck","type":"address","internalType":"address"},{"name":"amount","type":"uint256","internalType":"uint256"},{"name":"proof","type":"bytes32[]","internalType":"bytes32[]"},{"name":"voting","type":"bool","internalType":"bool"}],"outputs":[{"name":"verified","type":"bool","internalType":"bool"}],"stateMutability":"view"},{"type":"function","name":"comment","inputs":[{"name":"proposalId","type":"uint256","internalType":"uint256"},{"name":"commentContent","type":"string","internalType":"string"}],"outputs":[{"name":"","type":"uint256","internalType":"uint256"}],"stateMutability":"nonpayable"},{"type":"function","name":"commentIds","inputs":[{"name":"","type":"uint256","internalType":"uint256"}],"outputs":[{"name":"","type":"uint256","internalType":"uint256"}],"stateMutability":"view"},{"type":"function","name":"commentIsDeleted","inputs":[{"name":"","type":"uint256","internalType":"uint256"}],"outputs":[{"name":"","type":"bool","internalType":"bool"}],"stateMutability":"view"},{"type":"function","name":"comments","inputs":[{"name":"","type":"uint256","internalType":"uint256"}],"outputs":[{"name":"author","type":"address","internalType":"address"},{"name":"timestamp","type":"uint256","internalType":"uint256"},{"name":"proposalId","type":"uint256","internalType":"uint256"},{"name":"commentContent","type":"string","internalType":"string"}],"stateMutability":"view"},{"type":"function","name":"contestAddressTotalVotesCast","inputs":[{"name":"userAddress","type":"address","internalType":"address"}],"outputs":[{"name":"userTotalVotesCast","type":"uint256","internalType":"uint256"}],"stateMutability":"view"},{"type":"function","name":"contestDeadline","inputs":[],"outputs":[{"name":"","type":"uint256","internalType":"uint256"}],"stateMutability":"view"},{"type":"function","name":"contestStart","inputs":[],"outputs":[{"name":"","type":"uint256","internalType":"uint256"}],"stateMutability":"view"},{"type":"function","name":"costToPropose","inputs":[],"outputs":[{"name":"","type":"uint256","internalType":"uint256"}],"stateMutability":"view"},{"type":"function","name":"costToVote","inputs":[],"outputs":[{"name":"","type":"uint256","internalType":"uint256"}],"stateMutability":"view"},{"type":"function","name":"creator","inputs":[],"outputs":[{"name":"","type":"address","internalType":"address"}],"stateMutability":"view"},{"type":"function","name":"creatorSplitDestination","inputs":[],"outputs":[{"name":"","type":"address","internalType":"address"}],"stateMutability":"view"},{"type":"function","name":"deleteComments","inputs":[{"name":"commentIdsParam","type":"uint256[]","internalType":"uint256[]"}],"outputs":[],"stateMutability":"nonpayable"},{"type":"function","name":"deleteProposals","inputs":[{"name":"proposalIdsToDelete","type":"uint256[]","internalType":"uint256[]"}],"outputs":[],"stateMutability":"nonpayable"},{"type":"function","name":"deletedCommentIds","inputs":[{"name":"","type":"uint256","internalType":"uint256"}],"outputs":[{"name":"","type":"uint256","internalType":"uint256"}],"stateMutability":"view"},{"type":"function","name":"deletedProposalIds","inputs":[{"name":"","type":"uint256","internalType":"uint256"}],"outputs":[{"name":"","type":"uint256","internalType":"uint256"}],"stateMutability":"view"},{"type":"function","name":"downvotingAllowed","inputs":[],"outputs":[{"name":"","type":"uint256","internalType":"uint256"}],"stateMutability":"view"},{"type":"function","name":"forVotesToProposalIds","inputs":[{"name":"","type":"uint256","internalType":"uint256"},{"name":"","type":"uint256","internalType":"uint256"}],"outputs":[{"name":"","type":"uint256","internalType":"uint256"}],"stateMutability":"view"},{"type":"function","name":"getAllAddressesThatHaveVoted","inputs":[],"outputs":[{"name":"","type":"address[]","internalType":"address[]"}],"stateMutability":"view"},{"type":"function","name":"getAllAuthorsOfDeletedProposals","inputs":[],"outputs":[{"name":"","type":"address[]","internalType":"address[]"}],"stateMutability":"view"},{"type":"function","name":"getAllCommentIds","inputs":[],"outputs":[{"name":"","type":"uint256[]","internalType":"uint256[]"}],"stateMutability":"view"},{"type":"function","name":"getAllDeletedCommentIds","inputs":[],"outputs":[{"name":"","type":"uint256[]","internalType":"uint256[]"}],"stateMutability":"view"},{"type":"function","name":"getAllDeletedProposalIds","inputs":[],"outputs":[{"name":"","type":"uint256[]","internalType":"uint256[]"}],"stateMutability":"view"},{"type":"function","name":"getAllProposalAuthors","inputs":[],"outputs":[{"name":"","type":"address[]","internalType":"address[]"}],"stateMutability":"view"},{"type":"function","name":"getAllProposalIds","inputs":[],"outputs":[{"name":"","type":"uint256[]","internalType":"uint256[]"}],"stateMutability":"view"},{"type":"function","name":"getComment","inputs":[{"name":"commentId","type":"uint256","internalType":"uint256"}],"outputs":[{"name":"","type":"tuple","internalType":"struct GovernorEngagement.CommentCore","components":[{"name":"author","type":"address","internalType":"address"},{"name":"timestamp","type":"uint256","internalType":"uint256"},{"name":"proposalId","type":"uint256","internalType":"uint256"},{"name":"commentContent","type":"string","internalType":"string"}]}],"stateMutability":"view"},{"type":"function","name":"getNumProposalsWithThisManyForVotes","inputs":[{"name":"forVotes","type":"uint256","internalType":"uint256"}],"outputs":[{"name":"count","type":"uint256","internalType":"uint256"}],"stateMutability":"view"},{"type":"function","name":"getOnlyProposalIdWithThisManyForVotes","inputs":[{"name":"forVotes","type":"uint256","internalType":"uint256"}],"outputs":[{"name":"proposalId","type":"uint256","internalType":"uint256"}],"stateMutability":"view"},{"type":"function","name":"getProposal","inputs":[{"name":"proposalId","type":"uint256","internalType":"uint256"}],"outputs":[{"name":"","type":"tuple","internalType":"struct Governor.ProposalCore","components":[{"name":"author","type":"address","internalType":"address"},{"name":"exists","type":"bool","internalType":"bool"},{"name":"description","type":"string","internalType":"string"},{"name":"targetMetadata","type":"tuple","internalType":"struct Governor.TargetMetadata","components":[{"name":"targetAddress","type":"address","internalType":"address"}]},{"name":"safeMetadata","type":"tuple","internalType":"struct Governor.SafeMetadata","components":[{"name":"signers","type":"address[]","internalType":"address[]"},{"name":"threshold","type":"uint256","internalType":"uint256"}]}]}],"stateMutability":"view"},{"type":"function","name":"getProposalComments","inputs":[{"name":"proposalId","type":"uint256","internalType":"uint256"}],"outputs":[{"name":"","type":"uint256[]","internalType":"uint256[]"}],"stateMutability":"view"},{"type":"function","name":"getProposalsWithThisManyForVotes","inputs":[{"name":"forVotes","type":"uint256","internalType":"uint256"}],"outputs":[{"name":"proposalsWithThisManyForVotes","type":"uint256[]","internalType":"uint256[]"}],"stateMutability":"view"},{"type":"function","name":"getRankIndex","inputs":[{"name":"rank","type":"uint256","internalType":"uint256"}],"outputs":[{"name":"rankIndex","type":"uint256","internalType":"uint256"}],"stateMutability":"view"},{"type":"function","name":"getSortedRanks","inputs":[],"outputs":[{"name":"sortedRanksArray","type":"uint256[]","internalType":"uint256[]"}],"stateMutability":"view"},{"type":"function","name":"hashComment","inputs":[{"name":"commentObj","type":"tuple","internalType":"struct GovernorEngagement.CommentCore","components":[{"name":"author","type":"address","internalType":"address"},{"name":"timestamp","type":"uint256","internalType":"uint256"},{"name":"proposalId","type":"uint256","internalType":"uint256"},{"name":"commentContent","type":"string","internalType":"string"}]}],"outputs":[{"name":"","type":"uint256","internalType":"uint256"}],"stateMutability":"pure"},{"type":"function","name":"hashProposal","inputs":[{"name":"proposal","type":"tuple","internalType":"struct Governor.ProposalCore","components":[{"name":"author","type":"address","internalType":"address"},{"name":"exists","type":"bool","internalType":"bool"},{"name":"description","type":"string","internalType":"string"},{"name":"targetMetadata","type":"tuple","internalType":"struct Governor.TargetMetadata","components":[{"name":"targetAddress","type":"address","internalType":"address"}]},{"name":"safeMetadata","type":"tuple","internalType":"struct Governor.SafeMetadata","components":[{"name":"signers","type":"address[]","internalType":"address[]"},{"name":"threshold","type":"uint256","internalType":"uint256"}]}]}],"outputs":[{"name":"","type":"uint256","internalType":"uint256"}],"stateMutability":"pure"},{"type":"function","name":"isOrIsBelowTiedRank","inputs":[{"name":"idx","type":"uint256","internalType":"uint256"}],"outputs":[{"name":"atOrBelowTiedRank","type":"bool","internalType":"bool"}],"stateMutability":"view"},{"type":"function","name":"jkLabsSplitDestination","inputs":[],"outputs":[{"name":"","type":"address","internalType":"address"}],"stateMutability":"view"},{"type":"function","name":"maxProposalCount","inputs":[],"outputs":[{"name":"","type":"uint256","internalType":"uint256"}],"stateMutability":"view"},{"type":"function","name":"name","inputs":[],"outputs":[{"name":"","type":"string","internalType":"string"}],"stateMutability":"view"},{"type":"function","name":"numAllowedProposalSubmissions","inputs":[],"outputs":[{"name":"","type":"uint256","internalType":"uint256"}],"stateMutability":"view"},{"type":"function","name":"numSubmissions","inputs":[{"name":"","type":"address","internalType":"address"}],"outputs":[{"name":"","type":"uint256","internalType":"uint256"}],"stateMutability":"view"},{"type":"function","name":"officialRewardsModule","inputs":[],"outputs":[{"name":"","type":"address","internalType":"contract RewardsModule"}],"stateMutability":"view"},{"type":"function","name":"payPerVote","inputs":[],"outputs":[{"name":"","type":"uint256","internalType":"uint256"}],"stateMutability":"view"},{"type":"function","name":"percentageToCreator","inputs":[],"outputs":[{"name":"","type":"uint256","internalType":"uint256"}],"stateMutability":"view"},{"type":"function","name":"prompt","inputs":[],"outputs":[{"name":"","type":"string","internalType":"string"}],"stateMutability":"view"},{"type":"function","name":"proposalAddressVotes","inputs":[{"name":"proposalId","type":"uint256","internalType":"uint256"},{"name":"userAddress","type":"address","internalType":"address"}],"outputs":[{"name":"forVotes","type":"uint256","internalType":"uint256"},{"name":"againstVotes","type":"uint256","internalType":"uint256"}],"stateMutability":"view"},{"type":"function","name":"proposalAddressesHaveVoted","inputs":[{"name":"proposalId","type":"uint256","internalType":"uint256"}],"outputs":[{"name":"","type":"address[]","internalType":"address[]"}],"stateMutability":"view"},{"type":"function","name":"proposalAuthors","inputs":[{"name":"","type":"uint256","internalType":"uint256"}],"outputs":[{"name":"","type":"address","internalType":"address"}],"stateMutability":"view"},{"type":"function","name":"proposalComments","inputs":[{"name":"","type":"uint256","internalType":"uint256"},{"name":"","type":"uint256","internalType":"uint256"}],"outputs":[{"name":"","type":"uint256","internalType":"uint256"}],"stateMutability":"view"},{"type":"function","name":"proposalIds","inputs":[{"name":"","type":"uint256","internalType":"uint256"}],"outputs":[{"name":"","type":"uint256","internalType":"uint256"}],"stateMutability":"view"},{"type":"function","name":"proposalIsDeleted","inputs":[{"name":"","type":"uint256","internalType":"uint256"}],"outputs":[{"name":"","type":"bool","internalType":"bool"}],"stateMutability":"view"},{"type":"function","name":"proposalVotes","inputs":[{"name":"proposalId","type":"uint256","internalType":"uint256"}],"outputs":[{"name":"forVotes","type":"uint256","internalType":"uint256"},{"name":"againstVotes","type":"uint256","internalType":"uint256"}],"stateMutability":"view"},{"type":"function","name":"proposalVotesStructs","inputs":[{"name":"","type":"uint256","internalType":"uint256"}],"outputs":[{"name":"proposalVoteCounts","type":"tuple","internalType":"struct GovernorCountingSimple.VoteCounts","components":[{"name":"forVotes","type":"uint256","internalType":"uint256"},{"name":"againstVotes","type":"uint256","internalType":"uint256"}]}],"stateMutability":"view"},{"type":"function","name":"proposals","inputs":[{"name":"","type":"uint256","internalType":"uint256"}],"outputs":[{"name":"author","type":"address","internalType":"address"},{"name":"exists","type":"bool","internalType":"bool"},{"name":"description","type":"string","internalType":"string"},{"name":"targetMetadata","type":"tuple","internalType":"struct Governor.TargetMetadata","components":[{"name":"targetAddress","type":"address","internalType":"address"}]},{"name":"safeMetadata","type":"tuple","internalType":"struct Governor.SafeMetadata","components":[{"name":"signers","type":"address[]","internalType":"address[]"},{"name":"threshold","type":"uint256","internalType":"uint256"}]}],"stateMutability":"view"},{"type":"function","name":"propose","inputs":[{"name":"proposal","type":"tuple","internalType":"struct Governor.ProposalCore","components":[{"name":"author","type":"address","internalType":"address"},{"name":"exists","type":"bool","internalType":"bool"},{"name":"description","type":"string","internalType":"string"},{"name":"targetMetadata","type":"tuple","internalType":"struct Governor.TargetMetadata","components":[{"name":"targetAddress","type":"address","internalType":"address"}]},{"name":"safeMetadata","type":"tuple","internalType":"struct Governor.SafeMetadata","components":[{"name":"signers","type":"address[]","internalType":"address[]"},{"name":"threshold","type":"uint256","internalType":"uint256"}]}]},{"name":"proof","type":"bytes32[]","internalType":"bytes32[]"}],"outputs":[{"name":"","type":"uint256","internalType":"uint256"}],"stateMutability":"payable"},{"type":"function","name":"proposeWithoutProof","inputs":[{"name":"proposal","type":"tuple","internalType":"struct Governor.ProposalCore","components":[{"name":"author","type":"address","internalType":"address"},{"name":"exists","type":"bool","internalType":"bool"},{"name":"description","type":"string","internalType":"string"},{"name":"targetMetadata","type":"tuple","internalType":"struct Governor.TargetMetadata","components":[{"name":"targetAddress","type":"address","internalType":"address"}]},{"name":"safeMetadata","type":"tuple","internalType":"struct Governor.SafeMetadata","components":[{"name":"signers","type":"address[]","internalType":"address[]"},{"name":"threshold","type":"uint256","internalType":"uint256"}]}]}],"outputs":[{"name":"","type":"uint256","internalType":"uint256"}],"stateMutability":"payable"},{"type":"function","name":"rankLimit","inputs":[],"outputs":[{"name":"","type":"uint256","internalType":"uint256"}],"stateMutability":"view"},{"type":"function","name":"setCreatorSplitDestination","inputs":[{"name":"newCreatorSplitDestination","type":"address","internalType":"address"}],"outputs":[],"stateMutability":"nonpayable"},{"type":"function","name":"setOfficialRewardsModule","inputs":[{"name":"officialRewardsModule_","type":"address","internalType":"contract RewardsModule"}],"outputs":[],"stateMutability":"nonpayable"},{"type":"function","name":"setSubmissionMerkleRoot","inputs":[{"name":"newSubmissionMerkleRoot","type":"bytes32","internalType":"bytes32"}],"outputs":[],"stateMutability":"nonpayable"},{"type":"function","name":"setVotingMerkleRoot","inputs":[{"name":"newVotingMerkleRoot","type":"bytes32","internalType":"bytes32"}],"outputs":[],"stateMutability":"nonpayable"},{"type":"function","name":"sortedRanks","inputs":[{"name":"","type":"uint256","internalType":"uint256"}],"outputs":[{"name":"","type":"uint256","internalType":"uint256"}],"stateMutability":"view"},{"type":"function","name":"sortingEnabled","inputs":[],"outputs":[{"name":"","type":"uint256","internalType":"uint256"}],"stateMutability":"view"},{"type":"function","name":"state","inputs":[],"outputs":[{"name":"","type":"uint8","internalType":"enum Governor.ContestState"}],"stateMutability":"view"},{"type":"function","name":"submissionMerkleRoot","inputs":[],"outputs":[{"name":"","type":"bytes32","internalType":"bytes32"}],"stateMutability":"view"},{"type":"function","name":"totalVotesCast","inputs":[],"outputs":[{"name":"","type":"uint256","internalType":"uint256"}],"stateMutability":"view"},{"type":"function","name":"validateProposalData","inputs":[{"name":"proposal","type":"tuple","internalType":"struct Governor.ProposalCore","components":[{"name":"author","type":"address","internalType":"address"},{"name":"exists","type":"bool","internalType":"bool"},{"name":"description","type":"string","internalType":"string"},{"name":"targetMetadata","type":"tuple","internalType":"struct Governor.TargetMetadata","components":[{"name":"targetAddress","type":"address","internalType":"address"}]},{"name":"safeMetadata","type":"tuple","internalType":"struct Governor.SafeMetadata","components":[{"name":"signers","type":"address[]","internalType":"address[]"},{"name":"threshold","type":"uint256","internalType":"uint256"}]}]}],"outputs":[],"stateMutability":"view"},{"type":"function","name":"verifyProposer","inputs":[{"name":"account","type":"address","internalType":"address"},{"name":"proof","type":"bytes32[]","internalType":"bytes32[]"}],"outputs":[],"stateMutability":"nonpayable"},{"type":"function","name":"verifyVoter","inputs":[{"name":"account","type":"address","internalType":"address"},{"name":"totalVotes","type":"uint256","internalType":"uint256"},{"name":"proof","type":"bytes32[]","internalType":"bytes32[]"}],"outputs":[],"stateMutability":"nonpayable"},{"type":"function","name":"version","inputs":[],"outputs":[{"name":"","type":"string","internalType":"string"}],"stateMutability":"pure"},{"type":"function","name":"voteStart","inputs":[],"outputs":[{"name":"","type":"uint256","internalType":"uint256"}],"stateMutability":"view"},{"type":"function","name":"votingDelay","inputs":[],"outputs":[{"name":"","type":"uint256","internalType":"uint256"}],"stateMutability":"view"},{"type":"function","name":"votingMerkleRoot","inputs":[],"outputs":[{"name":"","type":"bytes32","internalType":"bytes32"}],"stateMutability":"view"},{"type":"function","name":"votingPeriod","inputs":[],"outputs":[{"name":"","type":"uint256","internalType":"uint256"}],"stateMutability":"view"},{"type":"event","name":"CommentCreated","inputs":[{"name":"commentId","type":"uint256","indexed":false,"internalType":"uint256"}],"anonymous":false},{"type":"event","name":"CommentsDeleted","inputs":[{"name":"commentIds","type":"uint256[]","indexed":false,"internalType":"uint256[]"}],"anonymous":false},{"type":"event","name":"ContestCanceled","inputs":[],"anonymous":false},{"type":"event","name":"CreatorPaymentReleased","inputs":[{"name":"to","type":"address","indexed":false,"internalType":"address"},{"name":"amount","type":"uint256","indexed":false,"internalType":"uint256"}],"anonymous":false},{"type":"event","name":"JkLabsPaymentReleased","inputs":[{"name":"to","type":"address","indexed":false,"internalType":"address"},{"name":"amount","type":"uint256","indexed":false,"internalType":"uint256"}],"anonymous":false},{"type":"event","name":"JokeraceCreated","inputs":[{"name":"version","type":"string","indexed":false,"internalType":"string"},{"name":"name","type":"string","indexed":false,"internalType":"string"},{"name":"prompt","type":"string","indexed":false,"internalType":"string"},{"name":"creator","type":"address","indexed":false,"internalType":"address"},{"name":"contestStart","type":"uint256","indexed":false,"internalType":"uint256"},{"name":"votingDelay","type":"uint256","indexed":false,"internalType":"uint256"},{"name":"votingPeriod","type":"uint256","indexed":false,"internalType":"uint256"}],"anonymous":false},{"type":"event","name":"OfficialRewardsModuleSet","inputs":[{"name":"oldOfficialRewardsModule","type":"address","indexed":false,"internalType":"contract RewardsModule"},{"name":"newOfficialRewardsModule","type":"address","indexed":false,"internalType":"contract RewardsModule"}],"anonymous":false},{"type":"event","name":"ProposalCreated","inputs":[{"name":"proposalId","type":"uint256","indexed":false,"internalType":"uint256"},{"name":"proposer","type":"address","indexed":false,"internalType":"address"},{"name":"proposalDescription","type":"string","indexed":false,"internalType":"string"}],"anonymous":false},{"type":"event","name":"ProposalsDeleted","inputs":[{"name":"proposalIds","type":"uint256[]","indexed":false,"internalType":"uint256[]"}],"anonymous":false},{"type":"event","name":"VoteCast","inputs":[{"name":"voter","type":"address","indexed":true,"internalType":"address"},{"name":"proposalId","type":"uint256","indexed":false,"internalType":"uint256"},{"name":"support","type":"uint8","indexed":false,"internalType":"uint8"},{"name":"numVotes","type":"uint256","indexed":false,"internalType":"uint256"}],"anonymous":false},{"type":"error","name":"AddressNotPermissionedToSubmit","inputs":[]},{"type":"error","name":"AuthorIsNotSender","inputs":[{"name":"author","type":"address","internalType":"address"},{"name":"sender","type":"address","internalType":"address"}]},{"type":"error","name":"CannotDeleteWhenCompleted","inputs":[]},{"type":"error","name":"CannotUpdateAfterCompleted","inputs":[]},{"type":"error","name":"CannotVoteLessThanOneVoteInPayPerVote","inputs":[]},{"type":"error","name":"CannotVoteOnDeletedProposal","inputs":[]},{"type":"error","name":"ContestAlreadyCancelled","inputs":[]},{"type":"error","name":"ContestMustBeActiveToVote","inputs":[{"name":"currentState","type":"uint8","internalType":"enum Governor.ContestState"}]},{"type":"error","name":"ContestMustBeQueuedToPropose","inputs":[{"name":"currentState","type":"uint8","internalType":"enum Governor.ContestState"}]},{"type":"error","name":"ContestSubmissionLimitReached","inputs":[{"name":"maxProposalCount","type":"uint256","internalType":"uint256"}]},{"type":"error","name":"DownvotingNotEnabled","inputs":[]},{"type":"error","name":"DuplicateSubmission","inputs":[{"name":"proposalId","type":"uint256","internalType":"uint256"}]},{"type":"error","name":"EmptyProposalDescription","inputs":[]},{"type":"error","name":"IncorrectCostSent","inputs":[{"name":"msgValue","type":"uint256","internalType":"uint256"},{"name":"costToVote","type":"uint256","internalType":"uint256"}]},{"type":"error","name":"IndexHasNotBeenPopulated","inputs":[]},{"type":"error","name":"InvalidVoteType","inputs":[]},{"type":"error","name":"MoreThanOneProposalWithThisManyVotes","inputs":[]},{"type":"error","name":"NeedAtLeastOneVoteToVote","inputs":[]},{"type":"error","name":"NeedToSubmitWithProofFirst","inputs":[]},{"type":"error","name":"NeedToVoteWithProofFirst","inputs":[]},{"type":"error","name":"NotEnoughVotesLeft","inputs":[]},{"type":"error","name":"NotInMerkle","inputs":[]},{"type":"error","name":"OnlyCreatorCanAmend","inputs":[]},{"type":"error","name":"OnlyCreatorCanDelete","inputs":[]},{"type":"error","name":"OnlyCreatorCanSetRewardsModule","inputs":[]},{"type":"error","name":"OnlyCreatorOrAuthorCanDeleteComments","inputs":[{"name":"failedToDeleteCommentId","type":"uint256","internalType":"uint256"}]},{"type":"error","name":"OnlyJkLabsCanAmend","inputs":[]},{"type":"error","name":"OnlyJkLabsOrCreatorCanCancel","inputs":[]},{"type":"error","name":"PayPerVoteMustBeEnabledForAnyoneCanVote","inputs":[]},{"type":"error","name":"RankCannotBeZero","inputs":[]},{"type":"error","name":"RankIsNotInSortedRanks","inputs":[]},{"type":"error","name":"SenderSubmissionLimitReached","inputs":[{"name":"numAllowedProposalSubmissions","type":"uint256","internalType":"uint256"}]},{"type":"error","name":"SortingAndDownvotingCannotBothBeEnabled","inputs":[]},{"type":"error","name":"UnexpectedMetadata","inputs":[{"name":"unexpectedMetadata","type":"uint8","internalType":"enum Governor.Metadatas"}]},{"type":"error","name":"ZeroSignersInSafeMetadata","inputs":[]},{"type":"error","name":"ZeroThresholdInSafeMetadata","inputs":[]}],"bytecode":{"object":"0x60806040523480156200001157600080fd5b5060405162004dbf38038062004dbf8339810160408190526200003491620002f7565b60c081015160e0820151600091909155600155600383905560048290558484826005620000628482620004d7565b506006620000718382620004d7565b5060078054336001600160a01b0319918216811790925582516008556020808401805160095560408086018051600a556060870151600b556080870151600c5560a0870151600d55610100870151600e55610120870151600f556101408701516010556101608701516011556101808701516012805487166001600160a01b039283161790556101a0880151601380549097169116179094558051808201825260048152630342e33360e41b9381019390935285519151935190517f9a9bca21e4e51607db64fbdbcd7b2284a909c6a8969821f0d161efbdcae701609562000162958a948a949293909290620005d1565b60405180910390a15050508060c0015160011480156200018657508060a001516001145b15620001a557604051636bff10c960e01b815260040160405180910390fd5b81158015620001b75750610160810151155b15620001d6576040516397b6be7d60e01b815260040160405180910390fd5b505050505062000640565b634e487b7160e01b600052604160045260246000fd5b6040516101c081016001600160401b03811182821017156200021d576200021d620001e1565b60405290565b60005b838110156200024057818101518382015260200162000226565b50506000910152565b600082601f8301126200025b57600080fd5b81516001600160401b0380821115620002785762000278620001e1565b604051601f8301601f19908116603f01168101908282118183101715620002a357620002a3620001e1565b81604052838152866020858801011115620002bd57600080fd5b620002d084602083016020890162000223565b9695505050505050565b80516001600160a01b0381168114620002f257600080fd5b919050565b60008060008060008587036102408112156200031257600080fd5b86516001600160401b03808211156200032a57600080fd5b620003388a838b0162000249565b975060208901519150808211156200034f57600080fd5b506200035e89828a0162000249565b95505060408701519350606087015192506101c080607f19830112156200038457600080fd5b6200038e620001f7565b91506080880151825260a0880151602083015260c0880151604083015260e08801516060830152610100808901516080840152610120808a015160a0850152610140808b015160c0860152610160808c015160e0870152610180808d0151858801526101a09450848d015184880152858d0151838801526101e08d0151828801526200041e6102008e01620002da565b8188015250505050620004356102208a01620002da565b9083015250949793965091945092919050565b600181811c908216806200045d57607f821691505b6020821081036200047e57634e487b7160e01b600052602260045260246000fd5b50919050565b601f821115620004d257600081815260208120601f850160051c81016020861015620004ad5750805b601f850160051c820191505b81811015620004ce57828155600101620004b9565b5050505b505050565b81516001600160401b03811115620004f357620004f3620001e1565b6200050b8162000504845462000448565b8462000484565b602080601f8311600181146200054357600084156200052a5750858301515b600019600386901b1c1916600185901b178555620004ce565b600085815260208120601f198616915b82811015620005745788860151825594840194600190910190840162000553565b5085821015620005935787850151600019600388901b60f8161c191681555b5050505050600190811b01905550565b60008151808452620005bd81602086016020860162000223565b601f01601f19169290920160200192915050565b60e081526000620005e660e083018a620005a3565b8281036020840152620005fa818a620005a3565b90508281036040840152620006108189620005a3565b6001600160a01b039790971660608401525050608081019390935260a083019190915260c0909101529392505050565b61476f80620006506000396000f3fe6080604052600436106104bf5760003560e01c80636ed815ad11610276578063c0ffaa781161014f578063ea8a1af0116100c1578063f4f3d7ec11610085578063f4f3d7ec14610f0c578063f5c3641114610f2c578063f61736f414610f4c578063f79c017214610f6c578063fb8ddab414610f9c578063fb9bf8d414610fbc57600080fd5b8063ea8a1af014610e84578063edcd1be414610e99578063eef18e1714610eaf578063efa90d3614610ed7578063f0a7db0a14610eec57600080fd5b8063cbdc27cb11610113578063cbdc27cb14610de2578063daf762db14610df7578063dd96a19d14610e17578063dea5f6a614610e2d578063e031535b14610e5a578063e11db9d814610e6f57600080fd5b8063c0ffaa7814610d30578063c19d93fb14610d43578063c7f758a814610d65578063c9a1b6b214610d92578063cb85395014610db257600080fd5b8063946369b5116101e8578063ae66b8ad116101ac578063ae66b8ad14610c55578063aec116b614610c85578063b323580d14610cba578063b66d1da314610cda578063bddc164114610cfa578063c05f410414610d1057600080fd5b8063946369b514610ba75780639b644a2314610bbc5780639ba197af14610bdc578063a1ac6cb214610c09578063ac67f80114610c3557600080fd5b80637c65d7111161023a5780637c65d71114610ae65780637de418d514610afb578063832009af14610b115780638ebb4c1514610b275780639174778c14610b57578063930de97914610b7757600080fd5b80636ed815ad14610a4e5780636fd3636b14610a64578063711effc814610a7957806375e509c514610a99578063785ddfe514610ac657600080fd5b8063366ecf5b116103a857806350c4b6161161031a57806354fd4d50116102de57806354fd4d50146109a35780635c7107d8146109d05780635cb718a1146109f057806360506ff614610a0557806365f1626314610a1b5780636e4eb81014610a2e57600080fd5b806350c4b616146108e357806351a41dec14610903578063531bd81214610919578063544c7bb414610939578063544ffc9c1461095957600080fd5b8063419c533c1161036c578063419c533c14610845578063458da87d14610858578063476f4d8a146108785780634a587ad41461088b5780634d24a67f146108ab57806350a5e524146108c057600080fd5b8063366ecf5b146107bf5780633932abb1146107d55780633f9942ff146107eb5780633fb57c9214610805578063409fd0301461082557600080fd5b80630aa25e441161044157806320b3e8451161040557806320b3e845146106fc578063262e59e91461071c5780632c39805f14610731578063325cc6d91461075357806332763c2214610773578063347cf665146107a357600080fd5b80630aa25e4414610658578063102613d8146106785780631242b73714610698578063146230f6146106ba5780631805c523146106dc57600080fd5b80630414126a116104885780630414126a1461058257806305846cae1461059857806306fdde03146105b8578063070dc5d9146105da5780630800e3001461062b57600080fd5b80624114a8146104c4578063013cf08b146104ed57806302a251a31461051e57806302d05d3f1461053457806303f7eed61461056c575b600080fd5b3480156104d057600080fd5b506104da60085481565b6040519081526020015b60405180910390f35b3480156104f957600080fd5b5061050d61050836600461395b565b610fd2565b6040516104e4959493929190613a13565b34801561052a57600080fd5b506104da600a5481565b34801561054057600080fd5b50600754610554906001600160a01b031681565b6040516001600160a01b0390911681526020016104e4565b34801561057857600080fd5b506104da60115481565b34801561058e57600080fd5b506104da60015481565b3480156105a457600080fd5b506104da6105b336600461395b565b61111a565b3480156105c457600080fd5b506105cd61113b565b6040516104e49190613a65565b3480156105e657600080fd5b5061061e6105f536600461395b565b602160209081526000918252604091829020825180840190935280548352600101549082015281565b6040516104e49190613a78565b34801561063757600080fd5b5061064b61064636600461395b565b6111c9565b6040516104e49190613a8f565b34801561066457600080fd5b5061055461067336600461395b565b6112dd565b34801561068457600080fd5b50601354610554906001600160a01b031681565b3480156106a457600080fd5b506106ad611307565b6040516104e49190613b13565b3480156106c657600080fd5b506106da6106d5366004613b3b565b61135f565b005b3480156106e857600080fd5b506104da6106f7366004613c79565b6113e5565b34801561070857600080fd5b506106da610717366004613d03565b611506565b34801561072857600080fd5b506104da611575565b34801561073d57600080fd5b50610746611591565b6040516104e49190613d57565b34801561075f57600080fd5b506104da61076e36600461395b565b6115f2565b34801561077f57600080fd5b5061079361078e366004613db9565b611602565b60405190151581526020016104e4565b3480156107af57600080fd5b506104da678ac7230489e8000081565b3480156107cb57600080fd5b506104da60005481565b3480156107e157600080fd5b506104da60095481565b3480156107f757600080fd5b506017546107939060ff1681565b34801561081157600080fd5b506104da61082036600461395b565b611701565b34801561083157600080fd5b506104da610840366004613e29565b611711565b6104da610853366004613ee5565b611742565b34801561086457600080fd5b506104da6108733660046140f4565b6117b0565b6104da610886366004614140565b6117c3565b34801561089757600080fd5b50601254610554906001600160a01b031681565b3480156108b757600080fd5b506104da61183d565b3480156108cc57600080fd5b506108d561184b565b6040516104e4929190614174565b3480156108ef57600080fd5b506105546108fe36600461395b565b611951565b34801561090f57600080fd5b506104da60105481565b34801561092557600080fd5b506106da6109343660046141dd565b611961565b34801561094557600080fd5b506106da61095436600461395b565b6119d6565b34801561096557600080fd5b5061098e61097436600461395b565b600090815260216020526040902080546001909101549091565b604080519283526020830191909152016104e4565b3480156109af57600080fd5b506040805180820190915260048152630342e33360e41b60208201526105cd565b3480156109dc57600080fd5b506104da6109eb36600461395b565b611a48565b3480156109fc57600080fd5b506106ad611b4f565b348015610a1157600080fd5b506104da600d5481565b6104da610a29366004614238565b611ba5565b348015610a3a57600080fd5b5061098e610a4936600461426d565b611c43565b348015610a5a57600080fd5b506104da600f5481565b348015610a7057600080fd5b506106ad611c78565b348015610a8557600080fd5b506104da610a9436600461429d565b611cce565b348015610aa557600080fd5b506104da610ab4366004613b3b565b60196020526000908152604090205481565b348015610ad257600080fd5b50602354610554906001600160a01b031681565b348015610af257600080fd5b506105cd611cff565b348015610b0757600080fd5b506104da601f5481565b348015610b1d57600080fd5b506104da600b5481565b348015610b3357600080fd5b50610b47610b4236600461395b565b611d0c565b6040516104e494939291906142bf565b348015610b6357600080fd5b50610793610b7236600461395b565b611dc9565b348015610b8357600080fd5b50610793610b92366004613b3b565b601d6020526000908152604090205460ff1681565b348015610bb357600080fd5b50610746611e6f565b348015610bc857600080fd5b506104da610bd736600461395b565b611ecf565b348015610be857600080fd5b506104da610bf736600461395b565b60009081526022602052604090205490565b348015610c1557600080fd5b506104da610c24366004613b3b565b602080526000908152604090205481565b348015610c4157600080fd5b506106da610c503660046142f6565b611edf565b348015610c6157600080fd5b50610793610c7036600461395b565b60286020526000908152604090205460ff1681565b348015610c9157600080fd5b506104da610ca0366004613b3b565b6001600160a01b0316600090815260208052604090205490565b348015610cc657600080fd5b50610746610cd536600461395b565b612019565b348015610ce657600080fd5b506104da610cf536600461395b565b61208b565b348015610d0657600080fd5b506104da60035481565b348015610d1c57600080fd5b506106ad610d2b36600461395b565b6120eb565b6104da610d3e366004614386565b61214d565b348015610d4f57600080fd5b50610d5861218d565b6040516104e491906143f7565b348015610d7157600080fd5b50610d85610d8036600461395b565b6121de565b6040516104e49190614411565b348015610d9e57600080fd5b506106ad610dad36600461395b565b612358565b348015610dbe57600080fd5b50610793610dcd366004613b3b565b601e6020526000908152604090205460ff1681565b348015610dee57600080fd5b506107466123b8565b348015610e0357600080fd5b506106da610e1236600461395b565b6124e8565b348015610e2357600080fd5b506104da60045481565b348015610e3957600080fd5b506104da610e48366004613b3b565b601c6020526000908152604090205481565b348015610e6657600080fd5b506104da61255a565b348015610e7b57600080fd5b506106ad61256c565b348015610e9057600080fd5b506106da6125c2565b348015610ea557600080fd5b506104da600e5481565b348015610ebb57600080fd5b5061055473dc652c746a8f85e18ce632d97c6118e8a52fa73881565b348015610ee357600080fd5b506106ad612686565b348015610ef857600080fd5b506106da610f07366004614478565b6126dc565b348015610f1857600080fd5b506106da610f27366004613b3b565b612837565b348015610f3857600080fd5b506104da610f4736600461395b565b6128bc565b348015610f5857600080fd5b506104da610f6736600461429d565b6128cc565b348015610f7857600080fd5b50610793610f8736600461395b565b60166020526000908152604090205460ff1681565b348015610fa857600080fd5b506106da610fb73660046140f4565b6128e8565b348015610fc857600080fd5b506104da600c5481565b601860205260009081526040902080546001820180546001600160a01b03831693600160a01b90930460ff1692919061100a906144b9565b80601f0160208091040260200160405190810160405280929190818152602001828054611036906144b9565b80156110835780601f1061105857610100808354040283529160200191611083565b820191906000526020600020905b81548152906001019060200180831161106657829003601f168201915b5050604080516020808201835260028801546001600160a01b03168252825160038901805460609381028301840186529482018581529899939893975090955093508492849184018282801561110257602002820191906000526020600020905b81546001600160a01b031681526001909101906020018083116110e4575b50505050508152602001600182015481525050905085565b6015818154811061112a57600080fd5b600091825260209091200154905081565b60058054611148906144b9565b80601f0160208091040260200160405190810160405280929190818152602001828054611174906144b9565b80156111c15780601f10611196576101008083540402835291602001916111c1565b820191906000526020600020905b8154815290600101906020018083116111a457829003601f168201915b505050505081565b6111fd604051806080016040528060006001600160a01b031681526020016000815260200160008152602001606081525090565b600082815260266020908152604091829020825160808101845281546001600160a01b03168152600182015492810192909252600281015492820192909252600382018054919291606084019190611254906144b9565b80601f0160208091040260200160405190810160405280929190818152602001828054611280906144b9565b80156112cd5780601f106112a2576101008083540402835291602001916112cd565b820191906000526020600020905b8154815290600101906020018083116112b057829003601f168201915b5050505050815250509050919050565b601a81815481106112ed57600080fd5b6000918252602090912001546001600160a01b0316905081565b6060601580548060200260200160405190810160405280929190818152602001828054801561135557602002820191906000526020600020905b815481526020019060010190808311611341575b5050505050905090565b6007546001600160a01b0316331461138a5760405163141dbb4960e21b815260040160405180910390fd5b600461139461218d565b60048111156113a5576113a56143e1565b036113c35760405163ac61508760e01b815260040160405180910390fd5b601280546001600160a01b0319166001600160a01b0392909216919091179055565b60408051608081018252338152426020820152908101839052606081018290526000908161141282611711565b6024805460018082019092557f7cd332d19b93bcabe3cce7ca0c18a052f57e5fd03b4758a09f30f5ddc4b22ec401829055600082815260266020908152604091829020865181546001600160a01b0319166001600160a01b039091161781559086015192810192909255840151600282015560608401519192508391600382019061149d908261453b565b505050600085815260276020908152604080832080546001810182559084529190922001829055517f5a1a930fed43f34b3a07db782ebcac28a661c273e662bb98458cfba5a8ccd220906114f49083815260200190565b60405180910390a19150505b92915050565b6001600160a01b0383166000908152601e602052604090205460ff166115705760035460000361153557505050565b61154b83678ac7230489e8000084846000611602565b506001600160a01b0383166000908152601e60205260409020805460ff191660011790555b505050565b6000600a5461158261255a565b61158c9190614610565b905090565b6060601b80548060200260200160405190810160405280929190818152602001828054801561135557602002820191906000526020600020905b81546001600160a01b031681526001909101906020018083116115cb575050505050905090565b6002818154811061112a57600080fd5b6040516bffffffffffffffffffffffff19606087901b1660208201526034810185905260009081906054016040516020818303038152906040528051906020012090506000836116925761168d868680806020026020016040519081016040528093929190818152602001838360200280828437600092019190915250506003549150859050612a37565b6116d3565b6116d3868680806020026020016040519081016040528093929190818152602001838360200280828437600092019190915250506004549150859050612a37565b9050806116f35760405163452c2df160e11b815260040160405180910390fd5b506001979650505050505050565b6025818154811061112a57600080fd5b6000816040516020016117249190613a8f565b60408051601f19818403018152919052805160209091012092915050565b600080611750600186612a4d565b60008981526016602052604090205490915060ff1615611783576040516358f1119560e01b815260040160405180910390fd5b61178f33878686611961565b61179881612b19565b6117a488338988612c20565b98975050505050505050565b6000816040516020016117249190614411565b6000806117d1600080612a4d565b6003549091501561180c57336000908152601e602052604090205460ff1661180c57604051631f22097560e01b815260040160405180910390fd5b611818610fb784614623565b600061182b61182685614623565b612d67565b905061183682612b19565b9392505050565b611848600180614610565b81565b6060806000611858612686565b9050600081516001600160401b0381111561187557611875613b58565b6040519080825280602002602001820160405280156118ba57816020015b60408051808201909152600080825260208201528152602001906001900390816118935790505b50905060005b825181101561194757602160008483815181106118df576118df61462f565b60200260200101518152602001908152602001600020600001604051806040016040529081600082015481526020016001820154815250508282815181106119295761192961462f565b6020026020010181905250808061193f90614645565b9150506118c0565b5090939092509050565b601b81815481106112ed57600080fd5b6004541580159061198b57506001600160a01b0384166000908152601d602052604090205460ff16155b156119d05761199e848484846001611602565b506001600160a01b0384166000908152601c60209081526040808320869055601d9091529020805460ff191660011790555b50505050565b3373dc652c746a8f85e18ce632d97c6118e8a52fa73814611a0a5760405163de07280160e01b815260040160405180910390fd5b6004611a1461218d565b6004811115611a2557611a256143e1565b03611a435760405163ac61508760e01b815260040160405180910390fd5b600455565b600081600003611a6b57604051630ec90a1760e31b815260040160405180910390fd5b60028054604080516020808402820181019092528281529192600092918490830182828015611ab957602002820191906000526020600020905b815481526020019060010190808311611aa5575b5050505050905060006001905060005b83811015611b3557611b00838281518110611ae657611ae661462f565b602002602001015160009081526022602052604090205490565b15611b2357858203611b155795945050505050565b81611b1f81614645565b9250505b80611b2d81614645565b915050611ac9565b50604051632cc2ab7360e11b815260040160405180910390fd5b606060258054806020026020016040519081016040528092919081815260200182805480156113555760200282019190600052602060002090815481526020019060010190808311611341575050505050905090565b600080611bb3600184612a4d565b60008681526016602052604090205490915060ff1615611be6576040516358f1119560e01b815260040160405180910390fd5b60045415801590611c075750336000908152601d602052604090205460ff16155b15611c255760405163126ec6d160e31b815260040160405180910390fd5b611c2e81612b19565b611c3a85338686612c20565b95945050505050565b60008281526021602090815260408083206001600160a01b0385168452600301909152902080546001909101545b9250929050565b606060028054806020026020016040519081016040528092919081815260200182805480156113555760200282019190600052602060002090815481526020019060010190808311611341575050505050905090565b60226020528160005260406000208181548110611cea57600080fd5b90600052602060002001600091509150505481565b60068054611148906144b9565b60266020526000908152604090208054600182015460028301546003840180546001600160a01b03909416949293919291611d46906144b9565b80601f0160208091040260200160405190810160405280929190818152602001828054611d72906144b9565b8015611dbf5780601f10611d9457610100808354040283529160200191611dbf565b820191906000526020600020905b815481529060010190602001808311611da257829003601f168201915b5050505050905084565b600254600090611ddb9060019061465e565b821115611dfb576040516365d6f35160e11b815260040160405180910390fd5b60005b611e09836001614610565b811015611e66576001611e4560028381548110611e2857611e2861462f565b906000526020600020015460009081526022602052604090205490565b1115611e545750600192915050565b80611e5e81614645565b915050611dfe565b50600092915050565b6060601a805480602002602001604051908101604052809291908181526020018280548015611355576020028201919060005260206000209081546001600160a01b031681526001909101906020018083116115cb575050505050905090565b6014818154811061112a57600080fd5b805160005b81811015611fdd576000838281518110611f0057611f0061462f565b60209081029190910101516007549091506001600160a01b03163314801590611f4057506000818152602660205260409020546001600160a01b03163314155b15611f6657604051635450763d60e11b8152600481018290526024015b60405180910390fd5b60008181526028602052604090205460ff16611fca576000818152602860205260408120805460ff191660019081179091556025805491820181559091527f401968ff42a154441da5f6c4c935ac46b8671f0e062baaa62a7545ba53bb6e4c018190555b5080611fd581614645565b915050611ee4565b507f788a4349d25bc08585923ae212bce8bb346a623bce753eeecb85fd9ce58dcb4b8260405161200d9190613b13565b60405180910390a15050565b600081815260216020908152604091829020600281018054845181850281018501909552808552606094929383018282801561207e57602002820191906000526020600020905b81546001600160a01b03168152600190910190602001808311612060575b5050505050915050919050565b6000818152602260205260408120546001146120ba57604051633832a15560e21b815260040160405180910390fd5b600082815260226020526040812080549091906120d9576120d961462f565b90600052602060002001549050919050565b60008181526027602090815260409182902080548351818402810184019094528084526060939283018282801561214157602002820191906000526020600020905b81548152602001906001019080831161212d575b50505050509050919050565b60008061215b600080612a4d565b9050612168338585611506565b612174610fb786614623565b600061218261182687614623565b9050611c3a82612b19565b60175460009060ff16156121a15750600290565b42600854106121b05750600090565b426121b961255a565b106121c45750600390565b426121cd611575565b106121d85750600190565b50600490565b6121e6613870565b600082815260186020908152604091829020825160a08101845281546001600160a01b0381168252600160a01b900460ff161515928101929092526001810180549293919291840191612238906144b9565b80601f0160208091040260200160405190810160405280929190818152602001828054612264906144b9565b80156122b15780601f10612286576101008083540402835291602001916122b1565b820191906000526020600020905b81548152906001019060200180831161229457829003601f168201915b5050509183525050604080516020818101835260028501546001600160a01b0316825280840191909152815160038501805460609381028301840185528285018181529490950194919390928492849184018282801561233a57602002820191906000526020600020905b81546001600160a01b0316815260019091019060200180831161231c575b50505050508152602001600182015481525050815250509050919050565b600081815260226020908152604091829020805483518184028101840190945280845260609392830182828015612141576020028201919060005260206000209081548152602001906001019080831161212d5750505050509050919050565b60606000601580548060200260200160405190810160405280929190818152602001828054801561240857602002820191906000526020600020905b8154815260200190600101908083116123f4575b50505050509050600081516001600160401b0381111561242a5761242a613b58565b604051908082528060200260200182016040528015612453578160200160208202803683370190505b50905060005b82518110156124e157601860008483815181106124785761247861462f565b6020026020010151815260200190815260200160002060000160009054906101000a90046001600160a01b03168282815181106124b7576124b761462f565b6001600160a01b0390921660209283029190910190910152806124d981614645565b915050612459565b5092915050565b3373dc652c746a8f85e18ce632d97c6118e8a52fa7381461251c5760405163de07280160e01b815260040160405180910390fd5b600461252661218d565b6004811115612537576125376143e1565b036125555760405163ac61508760e01b815260040160405180910390fd5b600355565b600060095460085461158c9190614610565b606060248054806020026020016040519081016040528092919081815260200182805480156113555760200282019190600052602060002090815481526020019060010190808311611341575050505050905090565b6007546001600160a01b031633148015906125f157503373dc652c746a8f85e18ce632d97c6118e8a52fa73814155b1561260f576040516301dbf46f60e71b815260040160405180910390fd5b600061261961218d565b9050600281600481111561262f5761262f6143e1565b0361264d57604051633c30acbf60e01b815260040160405180910390fd5b6017805460ff191660011790556040517f4cd963a081760a54f571abc0f1db4dde31b4a07d8d6da3e844b8c6f47eeaaa4290600090a150565b606060148054806020026020016040519081016040528092919081815260200182805480156113555760200282019190600052602060002090815481526020019060010190808311611341575050505050905090565b6007546001600160a01b031633146127075760405163b8d4540960e01b815260040160405180910390fd5b600461271161218d565b6004811115612722576127226143e1565b03612740576040516331da1c8b60e11b815260040160405180910390fd5b60005b818110156127e557600083838381811061275f5761275f61462f565b60209081029290920135600081815260169093526040909220549192505060ff166127d2576000818152601660205260408120805460ff191660019081179091556015805491820181559091527f55f448fdea98c4d29eb340757ef0a66cd03dbb9538908a6a81d96026b71ec475018190555b50806127dd81614645565b915050612743565b50600d541580156127f857506000546001145b15612807576128078282612fe5565b7f75a75cf5c561892f4cc5b26c1b8e933849b42238c96dd073d080d1ae96c51416601460405161200d9190614671565b6007546001600160a01b0316331461286257604051630f4cb1bd60e11b815260040160405180910390fd5b602380546001600160a01b038381166001600160a01b031983168117909355604080519190921680825260208201939093527f753a2cf8d360cff631674504210913e48247f8e56b3e6d2006c2103d4095999f910161200d565b6024818154811061112a57600080fd5b60276020528160005260406000208181548110611cea57600080fd5b80516001600160a01b0316331461292657805160405163fbbf4d7f60e01b81526001600160a01b039091166004820152336024820152604401611f5d565b60005b612934600180614610565b811015612a0d57600081600181111561294f5761294f6143e1565b90506000816001811115612965576129656143e1565b0361297057506129fb565b6001816001811115612984576129846143e1565b036129de57608083015151516000036129b05760405163c3b2798b60e01b815260040160405180910390fd5b8260800151602001516000036129d9576040516392fb9a3560e01b815260040160405180910390fd5b6129f9565b8060405163d2277d4960e01b8152600401611f5d91906146ac565b505b80612a0581614645565b915050612929565b50806040015151600003612a345760405163e182473360e01b815260040160405180910390fd5b50565b600082612a448584613042565b14949350505050565b60008080846001811115612a6357612a636143e1565b03612a715750600f54612af0565b6001846001811115612a8557612a856143e1565b03612aec57601154600103612ae357670de0b6b3a7640000831015612abd576040516346ddb8d160e01b815260040160405180910390fd5b612acf670de0b6b3a7640000846146c0565b601054612adc91906146e2565b9050612af0565b50601054612af0565b5060005b803414611836576040516372c3eaa760e01b815234600482015260248101829052604401611f5d565b8015612a345760006064600e546064612b32919061465e565b612b3c90346146e2565b612b4691906146c0565b90508015612bab57601354612b64906001600160a01b03168261308f565b601354604080516001600160a01b039092168252602082018390527f9df63d1c00d2e332f573be591c0579caafb256b2c5a17abcc8ad471cccda1b81910160405180910390a15b6000612bb7823461465e565b9050801561157057601254612bd5906001600160a01b03168261308f565b600754604080516001600160a01b039092168252602082018390527f6dff55337c8458ae8c536a63869a48bc33541733422a796390c131d91f4238ed910160405180910390a1505050565b60006001612c2c61218d565b6004811115612c3d57612c3d6143e1565b14612c6457612c4a61218d565b60405163049cab4960e51b8152600401611f5d91906143f7565b81600003612c855760405163502e1c2960e01b815260040160405180910390fd5b612cb785858585601c60008a6001600160a01b03166001600160a01b03168152602001908152602001600020546131a8565b601b80546001810182556000919091527f3ad8aa4f87544323a9d1e5dd902f40c356527a7955687113db5f9a85ad579dc10180546001600160a01b031916331790556040805186815260ff851660208201529081018390526001600160a01b038516907f2c9deb38f462962eadbd85a9d3a4120503ee091f1582eaaa10aa8c6797651d299060600160405180910390a25050506001600160a01b03166000908152601c6020526040902054919050565b60006003612d7361218d565b6004811115612d8457612d846143e1565b14612dab57612d9161218d565b604051632889531360e01b8152600401611f5d91906143f7565b600b543360009081526019602052604090205403612de257600b54604051632bd6d93960e21b8152600401611f5d91815260200190565b600c54601554601454612df5919061465e565b03612e1957600c546040516302217f5360e51b8152600401611f5d91815260200190565b6000612e24836117b0565b600081815260186020526040902054909150600160a01b900460ff1615612e615760405163baffc42360e01b815260048101829052602401611f5d565b6014805460018181019092557fce6d7b5282bd9a3661ae061feed1dbda4e52ab073b1f9285be6e155d9c38d4ec0182905560008281526018602090815260409182902086518154928801511515600160a01b026001600160a81b03199093166001600160a01b0390911617919091178155908501518592820190612ee5908261453b565b506060820151516002820180546001600160a01b0319166001600160a01b039092169190911790556080820151805180516003840191612f2a918391602001906138e1565b5060209182015160019182015533600090815260199092526040822080549194509250612f58908490614610565b9091555050601a80546001810182556000919091527f057c384a7d1c54f3a1b2e5e67b2617b8224fdfd1ea7234eea573a6ff665ff63e0180546001600160a01b0319163390811790915560408085015190517f7585f467599d0f008985f231af99293be388626ac16ca59505c2f8f88969cd6392612fd79285926146f9565b60405180910390a192915050565b60005b818110156115705760008383838181106130045761300461462f565b602090810292909201356000818152602190935260409092205491925061302d9050828261341b565b5050808061303a90614645565b915050612fe8565b600081815b845181101561308757613073828683815181106130665761306661462f565b602002602001015161354c565b91508061307f81614645565b915050613047565b509392505050565b804710156130df5760405162461bcd60e51b815260206004820152601d60248201527f416464726573733a20696e73756666696369656e742062616c616e63650000006044820152606401611f5d565b6000826001600160a01b03168260405160006040518083038185875af1925050503d806000811461312c576040519150601f19603f3d011682016040523d82523d6000602084013e613131565b606091505b50509050806115705760405162461bcd60e51b815260206004820152603a60248201527f416464726573733a20756e61626c6520746f2073656e642076616c75652c207260448201527f6563697069656e74206d617920686176652072657665727465640000000000006064820152608401611f5d565b6000858152602160205260409020600454158015906131e757506001600160a01b03851660009081526020805260409020546131e4908361465e565b83115b156132055760405163660fa07360e11b815260040160405180910390fd5b6001600160a01b038516600090815260038201602052604081205415801561324857506001600160a01b0386166000908152600383016020526040902060010154155b905060ff85166132a057815484908390600090613266908490614610565b90915550506001600160a01b038616600090815260038301602052604081208054869290613295908490614610565b909155506133319050565b60001960ff86160161331857600d546001146132cf57604051639755958f60e01b815260040160405180910390fd5b838260000160010160008282546132e69190614610565b90915550506001600160a01b038616600090815260038301602052604081206001018054869290613295908490614610565b604051638eed55d160e01b815260040160405180910390fd5b801561336857600282018054600181018255600091825260209091200180546001600160a01b0319166001600160a01b0388161790555b6001600160a01b03861660009081526020805260408120805486929061338f908490614610565b9250508190555083601f60008282546133a89190614610565b9091555050600d541580156133bf57506000546001145b1561341257815460006133d2868361465e565b905080156133e4576133e4898261341b565b60008281526022602090815260408220805460018101825590835291200189905561340f818361357b565b50505b50505050505050565b60008181526022602090815260408083208054825181850281018501909352808352919290919083018282801561347157602002820191906000526020600020905b81548152602001906001019080831161345d575b5050505050905060005b81518110156119d057838282815181106134975761349761462f565b60200260200101510361353a5781600183516134b3919061465e565b815181106134c3576134c361462f565b60200260200101516022600085815260200190815260200160002082815481106134ef576134ef61462f565b90600052602060002001819055506022600084815260200190815260200160002080548061351f5761351f614723565b600190038181906000526020600020016000905590556119d0565b8061354481614645565b91505061347b565b6000818310613568576000828152602084905260409020611836565b6000838152602083905260409020611836565b600280546040805160208084028201810190925282815291926000929184908301828280156135c957602002820191906000526020600020905b8154815260200190600101908083116135b5575b5050505050905081600003613610575050600280546001810182556000919091527f405787fa12a823e0f2b7631cc41b3ba8828b3321ca811111fa75cd3aa3bb5ace015550565b8061361c60018461465e565b8151811061362c5761362c61462f565b602002602001015183101561368257600154820361364a5750505050565b5050600280546001810182556000919091527f405787fa12a823e0f2b7631cc41b3ba8828b3321ca811111fa75cd3aa3bb5ace015550565b6119d0848484846000805b838110156136f7578281815181106136a7576136a761462f565b602002602001015185036136bc5750506119d0565b8281815181106136ce576136ce61462f565b60200260200101518511156136e5578091506136f7565b806136ef81614645565b91505061368d565b50600080861180156137155750600086815260226020526040902054155b9050600081801561373e5750868484815181106137345761373461462f565b6020026020010151145b6138475761374d60018661465e565b83146137f5576000613760846001614610565b90505b858110156137f3578461377760018361465e565b815181106137875761378761462f565b6020026020010151600282815481106137a2576137a261462f565b6000918252602090912001558280156137d35750878582815181106137c9576137c961462f565b6020026020010151145b156137e157600191506137f3565b806137eb81614645565b915050613763565b505b80158015613804575060015485105b156138475760028461381760018861465e565b815181106138275761382761462f565b602090810291909101810151825460018101845560009384529190922001555b856002848154811061385b5761385b61462f565b60009182526020909120015550505050505050565b6040518060a0016040528060006001600160a01b03168152602001600015158152602001606081526020016138ba604051806020016040528060006001600160a01b031681525090565b81526020016138dc604051806040016040528060608152602001600081525090565b905290565b828054828255906000526020600020908101928215613936579160200282015b8281111561393657825182546001600160a01b0319166001600160a01b03909116178255602090920191600190910190613901565b50613942929150613946565b5090565b5b808211156139425760008155600101613947565b60006020828403121561396d57600080fd5b5035919050565b6000815180845260005b8181101561399a5760208185018101518683018201520161397e565b506000602082860101526020601f19601f83011685010191505092915050565b805160408084528151908401819052600091602091908201906060860190845b818110156139ff5783516001600160a01b0316835292840192918401916001016139da565b505093820151949091019390935250919050565b600060018060a01b038088168352861515602084015260a06040840152613a3d60a0840187613974565b8186511660608501528381036080850152613a5881866139ba565b9998505050505050505050565b6020815260006118366020830184613974565b815181526020808301519082015260408101611500565b6020815260018060a01b038251166020820152602082015160408201526040820151606082015260006060830151608080840152613ad060a0840182613974565b949350505050565b600081518084526020808501945080840160005b83811015613b0857815187529582019590820190600101613aec565b509495945050505050565b6020815260006118366020830184613ad8565b6001600160a01b0381168114612a3457600080fd5b600060208284031215613b4d57600080fd5b813561183681613b26565b634e487b7160e01b600052604160045260246000fd5b604080519081016001600160401b0381118282101715613b9057613b90613b58565b60405290565b60405160a081016001600160401b0381118282101715613b9057613b90613b58565b604051602081016001600160401b0381118282101715613b9057613b90613b58565b604051601f8201601f191681016001600160401b0381118282101715613c0257613c02613b58565b604052919050565b600082601f830112613c1b57600080fd5b81356001600160401b03811115613c3457613c34613b58565b613c47601f8201601f1916602001613bda565b818152846020838601011115613c5c57600080fd5b816020850160208301376000918101602001919091529392505050565b60008060408385031215613c8c57600080fd5b8235915060208301356001600160401b03811115613ca957600080fd5b613cb585828601613c0a565b9150509250929050565b60008083601f840112613cd157600080fd5b5081356001600160401b03811115613ce857600080fd5b6020830191508360208260051b8501011115611c7157600080fd5b600080600060408486031215613d1857600080fd5b8335613d2381613b26565b925060208401356001600160401b03811115613d3e57600080fd5b613d4a86828701613cbf565b9497909650939450505050565b6020808252825182820181905260009190848201906040850190845b81811015613d985783516001600160a01b031683529284019291840191600101613d73565b50909695505050505050565b80358015158114613db457600080fd5b919050565b600080600080600060808688031215613dd157600080fd5b8535613ddc81613b26565b94506020860135935060408601356001600160401b03811115613dfe57600080fd5b613e0a88828901613cbf565b9094509250613e1d905060608701613da4565b90509295509295909350565b600060208284031215613e3b57600080fd5b81356001600160401b0380821115613e5257600080fd5b9083019060808286031215613e6657600080fd5b604051608081018181108382111715613e8157613e81613b58565b6040528235613e8f81613b26565b808252506020830135602082015260408301356040820152606083013582811115613eb957600080fd5b613ec587828601613c0a565b60608301525095945050505050565b803560ff81168114613db457600080fd5b60008060008060008060a08789031215613efe57600080fd5b86359550613f0e60208801613ed4565b9450604087013593506060870135925060808701356001600160401b03811115613f3757600080fd5b613f4389828a01613cbf565b979a9699509497509295939492505050565b60006001600160401b03821115613f6e57613f6e613b58565b5060051b60200190565b600060408284031215613f8a57600080fd5b613f92613b6e565b905081356001600160401b03811115613faa57600080fd5b8201601f81018413613fbb57600080fd5b80356020613fd0613fcb83613f55565b613bda565b82815260059290921b83018101918181019087841115613fef57600080fd5b938201935b8385101561401657843561400781613b26565b82529382019390820190613ff4565b85525093840135938301939093525092915050565b600081830360a081121561403e57600080fd5b614046613b96565b9150823561405381613b26565b825261406160208401613da4565b602083015260408301356001600160401b038082111561408057600080fd5b61408c86838701613c0a565b60408501526020605f19840112156140a357600080fd5b6140ab613bb8565b9250606085013591506140bd82613b26565b81835282606085015260808501359250808311156140da57600080fd5b50506140e884828501613f78565b60808301525092915050565b60006020828403121561410657600080fd5b81356001600160401b0381111561411c57600080fd5b613ad08482850161402b565b600060a0828403121561413a57600080fd5b50919050565b60006020828403121561415257600080fd5b81356001600160401b0381111561416857600080fd5b613ad084828501614128565b6000604080835261418781840186613ad8565b83810360208581019190915285518083528682019282019060005b818110156141cf576141bf83865180518252602090810151910152565b93830193918501916001016141a2565b509098975050505050505050565b600080600080606085870312156141f357600080fd5b84356141fe81613b26565b93506020850135925060408501356001600160401b0381111561422057600080fd5b61422c87828801613cbf565b95989497509550505050565b60008060006060848603121561424d57600080fd5b8335925061425d60208501613ed4565b9150604084013590509250925092565b6000806040838503121561428057600080fd5b82359150602083013561429281613b26565b809150509250929050565b600080604083850312156142b057600080fd5b50508035926020909101359150565b60018060a01b03851681528360208201528260408201526080606082015260006142ec6080830184613974565b9695505050505050565b6000602080838503121561430957600080fd5b82356001600160401b0381111561431f57600080fd5b8301601f8101851361433057600080fd5b803561433e613fcb82613f55565b81815260059190911b8201830190838101908783111561435d57600080fd5b928401925b8284101561437b57833582529284019290840190614362565b979650505050505050565b60008060006040848603121561439b57600080fd5b83356001600160401b03808211156143b257600080fd5b6143be87838801614128565b945060208601359150808211156143d457600080fd5b50613d4a86828701613cbf565b634e487b7160e01b600052602160045260246000fd5b602081016005831061440b5761440b6143e1565b91905290565b60208152600060018060a01b03808451166020840152602084015115156040840152604084015160a0606085015261444c60c0850182613974565b90508160608601515116608085015260808501519150601f198482030160a0850152611c3a81836139ba565b6000806020838503121561448b57600080fd5b82356001600160401b038111156144a157600080fd5b6144ad85828601613cbf565b90969095509350505050565b600181811c908216806144cd57607f821691505b60208210810361413a57634e487b7160e01b600052602260045260246000fd5b601f82111561157057600081815260208120601f850160051c810160208610156145145750805b601f850160051c820191505b8181101561453357828155600101614520565b505050505050565b81516001600160401b0381111561455457614554613b58565b6145688161456284546144b9565b846144ed565b602080601f83116001811461459d57600084156145855750858301515b600019600386901b1c1916600185901b178555614533565b600085815260208120601f198616915b828110156145cc578886015182559484019460019091019084016145ad565b50858210156145ea5787850151600019600388901b60f8161c191681555b5050505050600190811b01905550565b634e487b7160e01b600052601160045260246000fd5b80820180821115611500576115006145fa565b6000611500368361402b565b634e487b7160e01b600052603260045260246000fd5b600060018201614657576146576145fa565b5060010190565b81810381811115611500576115006145fa565b6020808252825482820181905260008481528281209092916040850190845b81811015613d9857835483526001938401939285019201614690565b602081016002831061440b5761440b6143e1565b6000826146dd57634e487b7160e01b600052601260045260246000fd5b500490565b8082028115828204841417611500576115006145fa565b8381526001600160a01b0383166020820152606060408201819052600090611c3a90830184613974565b634e487b7160e01b600052603160045260246000fdfea264697066735822122096c377def6620bb7d8625ba609e6d204039f510c2394f9feabdae0e446a20de164736f6c63430008130033","linkReferences":{}},"methodIdentifiers":{"AMOUNT_FOR_SUMBITTER_PROOF()":"347cf665","JK_LABS_ADDRESS()":"eef18e17","METADATAS_COUNT()":"4d24a67f","addressSubmitterVerified(address)":"cb853950","addressTotalCastVoteCounts(address)":"a1ac6cb2","addressTotalVotes(address)":"dea5f6a6","addressTotalVotesVerified(address)":"930de979","addressesThatHaveVoted(uint256)":"50c4b616","allProposalTotalVotes()":"50a5e524","cancel()":"ea8a1af0","canceled()":"3f9942ff","castVote(uint256,uint8,uint256,uint256,bytes32[])":"419c533c","castVoteWithoutProof(uint256,uint8,uint256)":"65f16263","checkProof(address,uint256,bytes32[],bool)":"32763c22","comment(uint256,string)":"1805c523","commentIds(uint256)":"f5c36411","commentIsDeleted(uint256)":"ae66b8ad","comments(uint256)":"8ebb4c15","contestAddressTotalVotesCast(address)":"aec116b6","contestDeadline()":"262e59e9","contestStart()":"004114a8","costToPropose()":"6ed815ad","costToVote()":"51a41dec","creator()":"02d05d3f","creatorSplitDestination()":"4a587ad4","deleteComments(uint256[])":"ac67f801","deleteProposals(uint256[])":"f0a7db0a","deletedCommentIds(uint256)":"3fb57c92","deletedProposalIds(uint256)":"05846cae","downvotingAllowed()":"60506ff6","forVotesToProposalIds(uint256,uint256)":"711effc8","getAllAddressesThatHaveVoted()":"2c39805f","getAllAuthorsOfDeletedProposals()":"cbdc27cb","getAllCommentIds()":"e11db9d8","getAllDeletedCommentIds()":"5cb718a1","getAllDeletedProposalIds()":"1242b737","getAllProposalAuthors()":"946369b5","getAllProposalIds()":"efa90d36","getComment(uint256)":"0800e300","getNumProposalsWithThisManyForVotes(uint256)":"9ba197af","getOnlyProposalIdWithThisManyForVotes(uint256)":"b66d1da3","getProposal(uint256)":"c7f758a8","getProposalComments(uint256)":"c05f4104","getProposalsWithThisManyForVotes(uint256)":"c9a1b6b2","getRankIndex(uint256)":"5c7107d8","getSortedRanks()":"6fd3636b","hashComment((address,uint256,uint256,string))":"409fd030","hashProposal((address,bool,string,(address),(address[],uint256)))":"458da87d","isOrIsBelowTiedRank(uint256)":"9174778c","jkLabsSplitDestination()":"102613d8","maxProposalCount()":"fb9bf8d4","name()":"06fdde03","numAllowedProposalSubmissions()":"832009af","numSubmissions(address)":"75e509c5","officialRewardsModule()":"785ddfe5","payPerVote()":"03f7eed6","percentageToCreator()":"edcd1be4","prompt()":"7c65d711","proposalAddressVotes(uint256,address)":"6e4eb810","proposalAddressesHaveVoted(uint256)":"b323580d","proposalAuthors(uint256)":"0aa25e44","proposalComments(uint256,uint256)":"f61736f4","proposalIds(uint256)":"9b644a23","proposalIsDeleted(uint256)":"f79c0172","proposalVotes(uint256)":"544ffc9c","proposalVotesStructs(uint256)":"070dc5d9","proposals(uint256)":"013cf08b","propose((address,bool,string,(address),(address[],uint256)),bytes32[])":"c0ffaa78","proposeWithoutProof((address,bool,string,(address),(address[],uint256)))":"476f4d8a","rankLimit()":"0414126a","setCreatorSplitDestination(address)":"146230f6","setOfficialRewardsModule(address)":"f4f3d7ec","setSubmissionMerkleRoot(bytes32)":"daf762db","setVotingMerkleRoot(bytes32)":"544c7bb4","sortedRanks(uint256)":"325cc6d9","sortingEnabled()":"366ecf5b","state()":"c19d93fb","submissionMerkleRoot()":"bddc1641","totalVotesCast()":"7de418d5","validateProposalData((address,bool,string,(address),(address[],uint256)))":"fb8ddab4","verifyProposer(address,bytes32[])":"20b3e845","verifyVoter(address,uint256,bytes32[])":"531bd812","version()":"54fd4d50","voteStart()":"e031535b","votingDelay()":"3932abb1","votingMerkleRoot()":"dd96a19d","votingPeriod()":"02a251a3"},"id":34}