{"abi":[{"type":"constructor","inputs":[{"name":"_constructorArgs","type":"tuple","internalType":"struct Governor.ConstructorArgs","components":[{"name":"name","type":"string","internalType":"string"},{"name":"prompt","type":"string","internalType":"string"},{"name":"intConstructorArgs","type":"tuple","internalType":"struct Governor.IntConstructorArgs","components":[{"name":"anyoneCanSubmit","type":"uint256","internalType":"uint256"},{"name":"contestStart","type":"uint256","internalType":"uint256"},{"name":"votingDelay","type":"uint256","internalType":"uint256"},{"name":"votingPeriod","type":"uint256","internalType":"uint256"},{"name":"numAllowedProposalSubmissions","type":"uint256","internalType":"uint256"},{"name":"maxProposalCount","type":"uint256","internalType":"uint256"},{"name":"sortingEnabled","type":"uint256","internalType":"uint256"},{"name":"rankLimit","type":"uint256","internalType":"uint256"},{"name":"percentageToCreator","type":"uint256","internalType":"uint256"},{"name":"costToPropose","type":"uint256","internalType":"uint256"},{"name":"costToVote","type":"uint256","internalType":"uint256"},{"name":"priceCurveType","type":"uint256","internalType":"uint256"},{"name":"multiple","type":"uint256","internalType":"uint256"}]},{"name":"jkLabsSplitDestination","type":"address","internalType":"address"},{"name":"metadataFieldsSchema","type":"string","internalType":"string"}]}],"stateMutability":"nonpayable"},{"type":"function","name":"AMOUNT_FOR_SUMBITTER_PROOF","inputs":[],"outputs":[{"name":"","type":"uint256","internalType":"uint256"}],"stateMutability":"view"},{"type":"function","name":"COST_ROUNDING_VALUE","inputs":[],"outputs":[{"name":"","type":"uint256","internalType":"uint256"}],"stateMutability":"view"},{"type":"function","name":"JK_LABS_ADDRESS","inputs":[],"outputs":[{"name":"","type":"address","internalType":"address"}],"stateMutability":"view"},{"type":"function","name":"MAX_FIELDS_METADATA_LENGTH","inputs":[],"outputs":[{"name":"","type":"uint256","internalType":"uint256"}],"stateMutability":"view"},{"type":"function","name":"METADATAS_COUNT","inputs":[],"outputs":[{"name":"","type":"uint256","internalType":"uint256"}],"stateMutability":"view"},{"type":"function","name":"PRICE_CURVE_UPDATE_INTERVAL","inputs":[],"outputs":[{"name":"","type":"uint256","internalType":"uint256"}],"stateMutability":"view"},{"type":"function","name":"SECONDS_IN_DAY","inputs":[],"outputs":[{"name":"","type":"uint256","internalType":"uint256"}],"stateMutability":"view"},{"type":"function","name":"addressTotalCastVoteCount","inputs":[{"name":"","type":"address","internalType":"address"}],"outputs":[{"name":"","type":"uint256","internalType":"uint256"}],"stateMutability":"view"},{"type":"function","name":"addressesThatHaveVoted","inputs":[{"name":"","type":"uint256","internalType":"uint256"}],"outputs":[{"name":"","type":"address","internalType":"address"}],"stateMutability":"view"},{"type":"function","name":"allProposalTotalVotes","inputs":[],"outputs":[{"name":"proposalIdsReturn","type":"uint256[]","internalType":"uint256[]"},{"name":"proposalVoteCountsArrayReturn","type":"uint256[]","internalType":"uint256[]"}],"stateMutability":"view"},{"type":"function","name":"anyoneCanSubmit","inputs":[],"outputs":[{"name":"","type":"uint256","internalType":"uint256"}],"stateMutability":"view"},{"type":"function","name":"cancel","inputs":[],"outputs":[],"stateMutability":"nonpayable"},{"type":"function","name":"canceled","inputs":[],"outputs":[{"name":"","type":"bool","internalType":"bool"}],"stateMutability":"view"},{"type":"function","name":"castVote","inputs":[{"name":"proposalId","type":"uint256","internalType":"uint256"},{"name":"numVotes","type":"uint256","internalType":"uint256"}],"outputs":[{"name":"","type":"uint256","internalType":"uint256"}],"stateMutability":"payable"},{"type":"function","name":"comment","inputs":[{"name":"proposalId","type":"uint256","internalType":"uint256"},{"name":"commentContent","type":"string","internalType":"string"}],"outputs":[{"name":"","type":"uint256","internalType":"uint256"}],"stateMutability":"nonpayable"},{"type":"function","name":"commentIds","inputs":[{"name":"","type":"uint256","internalType":"uint256"}],"outputs":[{"name":"","type":"uint256","internalType":"uint256"}],"stateMutability":"view"},{"type":"function","name":"commentIsDeleted","inputs":[{"name":"","type":"uint256","internalType":"uint256"}],"outputs":[{"name":"","type":"bool","internalType":"bool"}],"stateMutability":"view"},{"type":"function","name":"comments","inputs":[{"name":"","type":"uint256","internalType":"uint256"}],"outputs":[{"name":"author","type":"address","internalType":"address"},{"name":"timestamp","type":"uint256","internalType":"uint256"},{"name":"proposalId","type":"uint256","internalType":"uint256"},{"name":"commentContent","type":"string","internalType":"string"}],"stateMutability":"view"},{"type":"function","name":"contestAddressTotalVotesCast","inputs":[{"name":"userAddress","type":"address","internalType":"address"}],"outputs":[{"name":"userTotalVotesCast","type":"uint256","internalType":"uint256"}],"stateMutability":"view"},{"type":"function","name":"contestDeadline","inputs":[],"outputs":[{"name":"","type":"uint256","internalType":"uint256"}],"stateMutability":"view"},{"type":"function","name":"contestStart","inputs":[],"outputs":[{"name":"","type":"uint256","internalType":"uint256"}],"stateMutability":"view"},{"type":"function","name":"costToPropose","inputs":[],"outputs":[{"name":"","type":"uint256","internalType":"uint256"}],"stateMutability":"view"},{"type":"function","name":"costToVote","inputs":[],"outputs":[{"name":"","type":"uint256","internalType":"uint256"}],"stateMutability":"view"},{"type":"function","name":"creator","inputs":[],"outputs":[{"name":"","type":"address","internalType":"address"}],"stateMutability":"view"},{"type":"function","name":"currentPricePerVote","inputs":[],"outputs":[{"name":"","type":"uint256","internalType":"uint256"}],"stateMutability":"view"},{"type":"function","name":"deleteComments","inputs":[{"name":"commentIdsParam","type":"uint256[]","internalType":"uint256[]"}],"outputs":[],"stateMutability":"nonpayable"},{"type":"function","name":"deleteProposals","inputs":[{"name":"proposalIdsToDelete","type":"uint256[]","internalType":"uint256[]"}],"outputs":[],"stateMutability":"nonpayable"},{"type":"function","name":"deletedCommentIds","inputs":[{"name":"","type":"uint256","internalType":"uint256"}],"outputs":[{"name":"","type":"uint256","internalType":"uint256"}],"stateMutability":"view"},{"type":"function","name":"deletedProposalIds","inputs":[{"name":"","type":"uint256","internalType":"uint256"}],"outputs":[{"name":"","type":"uint256","internalType":"uint256"}],"stateMutability":"view"},{"type":"function","name":"getAllAddressesThatHaveVoted","inputs":[],"outputs":[{"name":"","type":"address[]","internalType":"address[]"}],"stateMutability":"view"},{"type":"function","name":"getAllAuthorsOfDeletedProposals","inputs":[],"outputs":[{"name":"","type":"address[]","internalType":"address[]"}],"stateMutability":"view"},{"type":"function","name":"getAllCommentIds","inputs":[],"outputs":[{"name":"","type":"uint256[]","internalType":"uint256[]"}],"stateMutability":"view"},{"type":"function","name":"getAllDeletedCommentIds","inputs":[],"outputs":[{"name":"","type":"uint256[]","internalType":"uint256[]"}],"stateMutability":"view"},{"type":"function","name":"getAllDeletedProposalIds","inputs":[],"outputs":[{"name":"","type":"uint256[]","internalType":"uint256[]"}],"stateMutability":"view"},{"type":"function","name":"getAllProposalAuthors","inputs":[],"outputs":[{"name":"","type":"address[]","internalType":"address[]"}],"stateMutability":"view"},{"type":"function","name":"getAllProposalIds","inputs":[],"outputs":[{"name":"","type":"uint256[]","internalType":"uint256[]"}],"stateMutability":"view"},{"type":"function","name":"getComment","inputs":[{"name":"commentId","type":"uint256","internalType":"uint256"}],"outputs":[{"name":"","type":"tuple","internalType":"struct GovernorEngagement.CommentCore","components":[{"name":"author","type":"address","internalType":"address"},{"name":"timestamp","type":"uint256","internalType":"uint256"},{"name":"proposalId","type":"uint256","internalType":"uint256"},{"name":"commentContent","type":"string","internalType":"string"}]}],"stateMutability":"view"},{"type":"function","name":"getNumProposalsWithThisManyVotes","inputs":[{"name":"votes","type":"uint256","internalType":"uint256"}],"outputs":[{"name":"count","type":"uint256","internalType":"uint256"}],"stateMutability":"view"},{"type":"function","name":"getOnlyProposalIdWithThisManyVotes","inputs":[{"name":"votes","type":"uint256","internalType":"uint256"}],"outputs":[{"name":"proposalId","type":"uint256","internalType":"uint256"}],"stateMutability":"view"},{"type":"function","name":"getProposal","inputs":[{"name":"proposalId","type":"uint256","internalType":"uint256"}],"outputs":[{"name":"","type":"tuple","internalType":"struct Governor.ProposalCore","components":[{"name":"author","type":"address","internalType":"address"},{"name":"exists","type":"bool","internalType":"bool"},{"name":"description","type":"string","internalType":"string"},{"name":"targetMetadata","type":"tuple","internalType":"struct Governor.TargetMetadata","components":[{"name":"targetAddress","type":"address","internalType":"address"}]},{"name":"safeMetadata","type":"tuple","internalType":"struct Governor.SafeMetadata","components":[{"name":"signers","type":"address[]","internalType":"address[]"},{"name":"threshold","type":"uint256","internalType":"uint256"}]},{"name":"fieldsMetadata","type":"tuple","internalType":"struct Governor.FieldsMetadata","components":[{"name":"addressArray","type":"address[]","internalType":"address[]"},{"name":"stringArray","type":"string[]","internalType":"string[]"},{"name":"uintArray","type":"uint256[]","internalType":"uint256[]"}]}]}],"stateMutability":"view"},{"type":"function","name":"getProposalComments","inputs":[{"name":"proposalId","type":"uint256","internalType":"uint256"}],"outputs":[{"name":"","type":"uint256[]","internalType":"uint256[]"}],"stateMutability":"view"},{"type":"function","name":"getProposalsWithThisManyVotes","inputs":[{"name":"votes","type":"uint256","internalType":"uint256"}],"outputs":[{"name":"proposalsWithThisManyVotes","type":"uint256[]","internalType":"uint256[]"}],"stateMutability":"view"},{"type":"function","name":"getRankIndex","inputs":[{"name":"rank","type":"uint256","internalType":"uint256"}],"outputs":[{"name":"rankIndex","type":"uint256","internalType":"uint256"}],"stateMutability":"view"},{"type":"function","name":"getSortedRanks","inputs":[],"outputs":[{"name":"sortedRanksArray","type":"uint256[]","internalType":"uint256[]"}],"stateMutability":"view"},{"type":"function","name":"hashComment","inputs":[{"name":"commentObj","type":"tuple","internalType":"struct GovernorEngagement.CommentCore","components":[{"name":"author","type":"address","internalType":"address"},{"name":"timestamp","type":"uint256","internalType":"uint256"},{"name":"proposalId","type":"uint256","internalType":"uint256"},{"name":"commentContent","type":"string","internalType":"string"}]}],"outputs":[{"name":"","type":"uint256","internalType":"uint256"}],"stateMutability":"pure"},{"type":"function","name":"hashProposal","inputs":[{"name":"proposal","type":"tuple","internalType":"struct Governor.ProposalCore","components":[{"name":"author","type":"address","internalType":"address"},{"name":"exists","type":"bool","internalType":"bool"},{"name":"description","type":"string","internalType":"string"},{"name":"targetMetadata","type":"tuple","internalType":"struct Governor.TargetMetadata","components":[{"name":"targetAddress","type":"address","internalType":"address"}]},{"name":"safeMetadata","type":"tuple","internalType":"struct Governor.SafeMetadata","components":[{"name":"signers","type":"address[]","internalType":"address[]"},{"name":"threshold","type":"uint256","internalType":"uint256"}]},{"name":"fieldsMetadata","type":"tuple","internalType":"struct Governor.FieldsMetadata","components":[{"name":"addressArray","type":"address[]","internalType":"address[]"},{"name":"stringArray","type":"string[]","internalType":"string[]"},{"name":"uintArray","type":"uint256[]","internalType":"uint256[]"}]}]}],"outputs":[{"name":"","type":"uint256","internalType":"uint256"}],"stateMutability":"pure"},{"type":"function","name":"isOrIsBelowTiedRank","inputs":[{"name":"idx","type":"uint256","internalType":"uint256"}],"outputs":[{"name":"atOrBelowTiedRank","type":"bool","internalType":"bool"}],"stateMutability":"view"},{"type":"function","name":"jkLabsSplitDestination","inputs":[],"outputs":[{"name":"","type":"address","internalType":"address"}],"stateMutability":"view"},{"type":"function","name":"maxProposalCount","inputs":[],"outputs":[{"name":"","type":"uint256","internalType":"uint256"}],"stateMutability":"view"},{"type":"function","name":"metadataFieldsSchema","inputs":[],"outputs":[{"name":"","type":"string","internalType":"string"}],"stateMutability":"view"},{"type":"function","name":"multiple","inputs":[],"outputs":[{"name":"","type":"uint256","internalType":"uint256"}],"stateMutability":"view"},{"type":"function","name":"name","inputs":[],"outputs":[{"name":"","type":"string","internalType":"string"}],"stateMutability":"view"},{"type":"function","name":"numAllowedProposalSubmissions","inputs":[],"outputs":[{"name":"","type":"uint256","internalType":"uint256"}],"stateMutability":"view"},{"type":"function","name":"numSubmissions","inputs":[{"name":"","type":"address","internalType":"address"}],"outputs":[{"name":"","type":"uint256","internalType":"uint256"}],"stateMutability":"view"},{"type":"function","name":"officialRewardsModule","inputs":[],"outputs":[{"name":"","type":"address","internalType":"address"}],"stateMutability":"view"},{"type":"function","name":"percentageToCreator","inputs":[],"outputs":[{"name":"","type":"uint256","internalType":"uint256"}],"stateMutability":"view"},{"type":"function","name":"priceCurveType","inputs":[],"outputs":[{"name":"","type":"uint256","internalType":"uint256"}],"stateMutability":"view"},{"type":"function","name":"prompt","inputs":[],"outputs":[{"name":"","type":"string","internalType":"string"}],"stateMutability":"view"},{"type":"function","name":"proposalAddressVotes","inputs":[{"name":"proposalId","type":"uint256","internalType":"uint256"},{"name":"userAddress","type":"address","internalType":"address"}],"outputs":[{"name":"voteCount","type":"uint256","internalType":"uint256"}],"stateMutability":"view"},{"type":"function","name":"proposalAddressesHaveVoted","inputs":[{"name":"proposalId","type":"uint256","internalType":"uint256"}],"outputs":[{"name":"","type":"address[]","internalType":"address[]"}],"stateMutability":"view"},{"type":"function","name":"proposalAuthors","inputs":[{"name":"","type":"uint256","internalType":"uint256"}],"outputs":[{"name":"","type":"address","internalType":"address"}],"stateMutability":"view"},{"type":"function","name":"proposalComments","inputs":[{"name":"","type":"uint256","internalType":"uint256"},{"name":"","type":"uint256","internalType":"uint256"}],"outputs":[{"name":"","type":"uint256","internalType":"uint256"}],"stateMutability":"view"},{"type":"function","name":"proposalIds","inputs":[{"name":"","type":"uint256","internalType":"uint256"}],"outputs":[{"name":"","type":"uint256","internalType":"uint256"}],"stateMutability":"view"},{"type":"function","name":"proposalIsDeleted","inputs":[{"name":"","type":"uint256","internalType":"uint256"}],"outputs":[{"name":"","type":"bool","internalType":"bool"}],"stateMutability":"view"},{"type":"function","name":"proposalVoteStructs","inputs":[{"name":"","type":"uint256","internalType":"uint256"}],"outputs":[{"name":"proposalVoteCount","type":"uint256","internalType":"uint256"}],"stateMutability":"view"},{"type":"function","name":"proposalVotes","inputs":[{"name":"proposalId","type":"uint256","internalType":"uint256"}],"outputs":[{"name":"voteCount","type":"uint256","internalType":"uint256"}],"stateMutability":"view"},{"type":"function","name":"proposals","inputs":[{"name":"","type":"uint256","internalType":"uint256"}],"outputs":[{"name":"author","type":"address","internalType":"address"},{"name":"exists","type":"bool","internalType":"bool"},{"name":"description","type":"string","internalType":"string"},{"name":"targetMetadata","type":"tuple","internalType":"struct Governor.TargetMetadata","components":[{"name":"targetAddress","type":"address","internalType":"address"}]},{"name":"safeMetadata","type":"tuple","internalType":"struct Governor.SafeMetadata","components":[{"name":"signers","type":"address[]","internalType":"address[]"},{"name":"threshold","type":"uint256","internalType":"uint256"}]},{"name":"fieldsMetadata","type":"tuple","internalType":"struct Governor.FieldsMetadata","components":[{"name":"addressArray","type":"address[]","internalType":"address[]"},{"name":"stringArray","type":"string[]","internalType":"string[]"},{"name":"uintArray","type":"uint256[]","internalType":"uint256[]"}]}],"stateMutability":"view"},{"type":"function","name":"propose","inputs":[{"name":"proposal","type":"tuple","internalType":"struct Governor.ProposalCore","components":[{"name":"author","type":"address","internalType":"address"},{"name":"exists","type":"bool","internalType":"bool"},{"name":"description","type":"string","internalType":"string"},{"name":"targetMetadata","type":"tuple","internalType":"struct Governor.TargetMetadata","components":[{"name":"targetAddress","type":"address","internalType":"address"}]},{"name":"safeMetadata","type":"tuple","internalType":"struct Governor.SafeMetadata","components":[{"name":"signers","type":"address[]","internalType":"address[]"},{"name":"threshold","type":"uint256","internalType":"uint256"}]},{"name":"fieldsMetadata","type":"tuple","internalType":"struct Governor.FieldsMetadata","components":[{"name":"addressArray","type":"address[]","internalType":"address[]"},{"name":"stringArray","type":"string[]","internalType":"string[]"},{"name":"uintArray","type":"uint256[]","internalType":"uint256[]"}]}]}],"outputs":[{"name":"","type":"uint256","internalType":"uint256"}],"stateMutability":"payable"},{"type":"function","name":"rankLimit","inputs":[],"outputs":[{"name":"","type":"uint256","internalType":"uint256"}],"stateMutability":"view"},{"type":"function","name":"setJkLabsSplitDestination","inputs":[{"name":"newJkLabsSplitDestination","type":"address","internalType":"address"}],"outputs":[],"stateMutability":"nonpayable"},{"type":"function","name":"setName","inputs":[{"name":"newName","type":"string","internalType":"string"}],"outputs":[{"name":"","type":"string","internalType":"string"}],"stateMutability":"nonpayable"},{"type":"function","name":"setOfficialRewardsModule","inputs":[{"name":"officialRewardsModule_","type":"address","internalType":"address"}],"outputs":[],"stateMutability":"nonpayable"},{"type":"function","name":"setPrompt","inputs":[{"name":"newPrompt","type":"string","internalType":"string"}],"outputs":[{"name":"","type":"string","internalType":"string"}],"stateMutability":"nonpayable"},{"type":"function","name":"sortedRanks","inputs":[{"name":"","type":"uint256","internalType":"uint256"}],"outputs":[{"name":"","type":"uint256","internalType":"uint256"}],"stateMutability":"view"},{"type":"function","name":"sortingEnabled","inputs":[],"outputs":[{"name":"","type":"uint256","internalType":"uint256"}],"stateMutability":"view"},{"type":"function","name":"state","inputs":[],"outputs":[{"name":"","type":"uint8","internalType":"enum Governor.ContestState"}],"stateMutability":"view"},{"type":"function","name":"totalVotesCast","inputs":[],"outputs":[{"name":"","type":"uint256","internalType":"uint256"}],"stateMutability":"view"},{"type":"function","name":"totalVotesCastIsZero","inputs":[],"outputs":[{"name":"totalVotesCastZero","type":"bool","internalType":"bool"}],"stateMutability":"view"},{"type":"function","name":"validateProposalData","inputs":[{"name":"proposal","type":"tuple","internalType":"struct Governor.ProposalCore","components":[{"name":"author","type":"address","internalType":"address"},{"name":"exists","type":"bool","internalType":"bool"},{"name":"description","type":"string","internalType":"string"},{"name":"targetMetadata","type":"tuple","internalType":"struct Governor.TargetMetadata","components":[{"name":"targetAddress","type":"address","internalType":"address"}]},{"name":"safeMetadata","type":"tuple","internalType":"struct Governor.SafeMetadata","components":[{"name":"signers","type":"address[]","internalType":"address[]"},{"name":"threshold","type":"uint256","internalType":"uint256"}]},{"name":"fieldsMetadata","type":"tuple","internalType":"struct Governor.FieldsMetadata","components":[{"name":"addressArray","type":"address[]","internalType":"address[]"},{"name":"stringArray","type":"string[]","internalType":"string[]"},{"name":"uintArray","type":"uint256[]","internalType":"uint256[]"}]}]}],"outputs":[],"stateMutability":"view"},{"type":"function","name":"verifyProposer","inputs":[],"outputs":[],"stateMutability":"view"},{"type":"function","name":"version","inputs":[],"outputs":[{"name":"","type":"string","internalType":"string"}],"stateMutability":"pure"},{"type":"function","name":"voteStart","inputs":[],"outputs":[{"name":"","type":"uint256","internalType":"uint256"}],"stateMutability":"view"},{"type":"function","name":"votesToProposalIds","inputs":[{"name":"","type":"uint256","internalType":"uint256"},{"name":"","type":"uint256","internalType":"uint256"}],"outputs":[{"name":"","type":"uint256","internalType":"uint256"}],"stateMutability":"view"},{"type":"function","name":"votingDelay","inputs":[],"outputs":[{"name":"","type":"uint256","internalType":"uint256"}],"stateMutability":"view"},{"type":"function","name":"votingPeriod","inputs":[],"outputs":[{"name":"","type":"uint256","internalType":"uint256"}],"stateMutability":"view"},{"type":"event","name":"CommentCreated","inputs":[{"name":"commentId","type":"uint256","indexed":false,"internalType":"uint256"}],"anonymous":false},{"type":"event","name":"CommentsDeleted","inputs":[{"name":"commentIds","type":"uint256[]","indexed":false,"internalType":"uint256[]"}],"anonymous":false},{"type":"event","name":"ContestCanceled","inputs":[],"anonymous":false},{"type":"event","name":"CreatorPaymentReleased","inputs":[{"name":"to","type":"address","indexed":false,"internalType":"address"},{"name":"amount","type":"uint256","indexed":false,"internalType":"uint256"}],"anonymous":false},{"type":"event","name":"JkLabsPaymentReleased","inputs":[{"name":"to","type":"address","indexed":false,"internalType":"address"},{"name":"amount","type":"uint256","indexed":false,"internalType":"uint256"}],"anonymous":false},{"type":"event","name":"JokeraceCreated","inputs":[{"name":"version","type":"string","indexed":false,"internalType":"string"},{"name":"name","type":"string","indexed":false,"internalType":"string"},{"name":"prompt","type":"string","indexed":false,"internalType":"string"},{"name":"creator","type":"address","indexed":false,"internalType":"address"},{"name":"contestStart","type":"uint256","indexed":false,"internalType":"uint256"},{"name":"votingDelay","type":"uint256","indexed":false,"internalType":"uint256"},{"name":"votingPeriod","type":"uint256","indexed":false,"internalType":"uint256"}],"anonymous":false},{"type":"event","name":"OfficialRewardsModuleSet","inputs":[{"name":"oldOfficialRewardsModule","type":"address","indexed":false,"internalType":"address"},{"name":"newOfficialRewardsModule","type":"address","indexed":false,"internalType":"address"}],"anonymous":false},{"type":"event","name":"ProposalCreated","inputs":[{"name":"proposalId","type":"uint256","indexed":false,"internalType":"uint256"},{"name":"proposer","type":"address","indexed":false,"internalType":"address"},{"name":"proposalDescription","type":"string","indexed":false,"internalType":"string"}],"anonymous":false},{"type":"event","name":"ProposalsDeleted","inputs":[{"name":"proposalIds","type":"uint256[]","indexed":false,"internalType":"uint256[]"}],"anonymous":false},{"type":"event","name":"VoteCast","inputs":[{"name":"voter","type":"address","indexed":true,"internalType":"address"},{"name":"proposalId","type":"uint256","indexed":false,"internalType":"uint256"},{"name":"numVotes","type":"uint256","indexed":false,"internalType":"uint256"}],"anonymous":false},{"type":"error","name":"AddressFieldMetadataArrayTooLong","inputs":[]},{"type":"error","name":"AuthorIsNotSender","inputs":[{"name":"author","type":"address","internalType":"address"},{"name":"sender","type":"address","internalType":"address"}]},{"type":"error","name":"CanOnlyCancelBeforeFirstVote","inputs":[]},{"type":"error","name":"CanOnlyDeleteWhenQueued","inputs":[]},{"type":"error","name":"CannotCommentWhenCompletedOrCanceled","inputs":[]},{"type":"error","name":"CannotDeleteWhenCompletedOrCanceled","inputs":[]},{"type":"error","name":"CannotSetWhenCompletedOrCanceled","inputs":[]},{"type":"error","name":"CannotUpdateWhenCompletedOrCanceled","inputs":[]},{"type":"error","name":"CannotVoteLessThanOneVoteInPayPerVote","inputs":[]},{"type":"error","name":"CannotVoteOnDeletedProposal","inputs":[]},{"type":"error","name":"ContestAlreadyCanceled","inputs":[]},{"type":"error","name":"ContestMustBeActiveToGetCurrentVotePrice","inputs":[]},{"type":"error","name":"ContestMustBeActiveToVote","inputs":[]},{"type":"error","name":"ContestMustBeQueuedToPropose","inputs":[]},{"type":"error","name":"ContestSubmissionLimitReached","inputs":[{"name":"maxProposalCount","type":"uint256","internalType":"uint256"}]},{"type":"error","name":"DuplicateSubmission","inputs":[{"name":"proposalId","type":"uint256","internalType":"uint256"}]},{"type":"error","name":"EmptyProposalDescription","inputs":[]},{"type":"error","name":"IncorrectCostSent","inputs":[{"name":"msgValue","type":"uint256","internalType":"uint256"},{"name":"costToVote","type":"uint256","internalType":"uint256"}]},{"type":"error","name":"IndexHasNotBeenPopulated","inputs":[]},{"type":"error","name":"MoreThanOneProposalWithThisManyVotes","inputs":[]},{"type":"error","name":"NeedAtLeastOneVoteToVote","inputs":[]},{"type":"error","name":"NotEnoughVotesLeft","inputs":[]},{"type":"error","name":"OfficialModuleMustBeSetToEnter","inputs":[]},{"type":"error","name":"OfficialRewardsModuleCanOnlyBeSetOnce","inputs":[]},{"type":"error","name":"OfficialRewardsModuleMustPointToThisContest","inputs":[]},{"type":"error","name":"OnlyCreatorCanAmend","inputs":[]},{"type":"error","name":"OnlyCreatorCanSetName","inputs":[]},{"type":"error","name":"OnlyCreatorCanSetPrompt","inputs":[]},{"type":"error","name":"OnlyCreatorCanSetRewardsModule","inputs":[]},{"type":"error","name":"OnlyCreatorCanSubmit","inputs":[]},{"type":"error","name":"OnlyCreatorOrAuthorCanDeleteComments","inputs":[{"name":"failedToDeleteCommentId","type":"uint256","internalType":"uint256"}]},{"type":"error","name":"OnlyCreatorOrEntrantCanDelete","inputs":[]},{"type":"error","name":"OnlyCreatorOrJkLabsCanCancel","inputs":[]},{"type":"error","name":"OnlyJkLabsCanAmend","inputs":[]},{"type":"error","name":"PRBMath_MulDiv18_Overflow","inputs":[{"name":"x","type":"uint256","internalType":"uint256"},{"name":"y","type":"uint256","internalType":"uint256"}]},{"type":"error","name":"PRBMath_MulDiv_Overflow","inputs":[{"name":"x","type":"uint256","internalType":"uint256"},{"name":"y","type":"uint256","internalType":"uint256"},{"name":"denominator","type":"uint256","internalType":"uint256"}]},{"type":"error","name":"PRBMath_UD60x18_Exp2_InputTooBig","inputs":[{"name":"x","type":"uint256","internalType":"UD60x18"}]},{"type":"error","name":"PeriodsOutsideBounds","inputs":[]},{"type":"error","name":"RankCannotBeZero","inputs":[]},{"type":"error","name":"RankIsNotInSortedRanks","inputs":[]},{"type":"error","name":"RankLimitCannotBeZero","inputs":[]},{"type":"error","name":"SenderSubmissionLimitReached","inputs":[{"name":"numAllowedProposalSubmissions","type":"uint256","internalType":"uint256"}]},{"type":"error","name":"StringFieldMetadataArrayTooLong","inputs":[]},{"type":"error","name":"UintFieldMetadataArrayTooLong","inputs":[]},{"type":"error","name":"UnexpectedMetadata","inputs":[{"name":"unexpectedMetadata","type":"uint8","internalType":"enum Governor.Metadatas"}]},{"type":"error","name":"ZeroSignersInSafeMetadata","inputs":[]},{"type":"error","name":"ZeroThresholdInSafeMetadata","inputs":[]}],"bytecode":{"object":"0x60806040523480156200001157600080fd5b5060405162005aeb38038062005aeb8339810160408190526200003491620003f4565b604081015160c081015160e090910151600091909155600155805181906003906200006090826200056f565b5060208101516004906200007590826200056f565b50604081810151805160065560058054336001600160a01b031991821617909155602082015160075591810151600855606080820151600955608080830151600a5560a0830151600b55610100830151600c55610120830151600d55610140830151600e55610160830151600f5561018090920151601055830151601180549093166001600160a01b03909116179091558101516012906200011890826200056f565b5060408051808201825260038082526206c5c760eb1b602083015260055460075460085460095495517f9a9bca21e4e51607db64fbdbcd7b2284a909c6a8969821f0d161efbdcae7016096620001849695946004946001600160a01b03909116939092909190620006c0565b60405180910390a1506200019d62015180601e6200074e565b8160400151604001511180620001bd575062015180816040015160600151115b15620001dc576040516341b2f4db60e01b815260040160405180910390fd5b806040015160e00151600003620002065760405163769f473560e11b815260040160405180910390fd5b506200077a565b634e487b7160e01b600052604160045260246000fd5b6040516101a081016001600160401b03811182821017156200024957620002496200020d565b60405290565b60405160a081016001600160401b03811182821017156200024957620002496200020d565b60005b838110156200029157818101518382015260200162000277565b50506000910152565b600082601f830112620002ac57600080fd5b81516001600160401b0380821115620002c957620002c96200020d565b604051601f8301601f19908116603f01168101908282118183101715620002f457620002f46200020d565b816040528381528660208588010111156200030e57600080fd5b6200032184602083016020890162000274565b9695505050505050565b60006101a082840312156200033f57600080fd5b6200034962000223565b9050815181526020820151602082015260408201516040820152606082015160608201526080820151608082015260a082015160a082015260c082015160c082015260e082015160e082015261010080830151818301525061012080830151818301525061014080830151818301525061016080830151818301525061018080830151818301525092915050565b80516001600160a01b0381168114620003ef57600080fd5b919050565b6000602082840312156200040757600080fd5b81516001600160401b03808211156200041f57600080fd5b9083019061022082860312156200043557600080fd5b6200043f6200024f565b8251828111156200044f57600080fd5b6200045d878286016200029a565b8252506020830151828111156200047357600080fd5b62000481878286016200029a565b6020830152506200049686604085016200032b565b6040820152620004aa6101e08401620003d7565b606082015261020083015182811115620004c357600080fd5b620004d1878286016200029a565b60808301525095945050505050565b600181811c90821680620004f557607f821691505b6020821081036200051657634e487b7160e01b600052602260045260246000fd5b50919050565b601f8211156200056a57600081815260208120601f850160051c81016020861015620005455750805b601f850160051c820191505b81811015620005665782815560010162000551565b5050505b505050565b81516001600160401b038111156200058b576200058b6200020d565b620005a3816200059c8454620004e0565b846200051c565b602080601f831160018114620005db5760008415620005c25750858301515b600019600386901b1c1916600185901b17855562000566565b600085815260208120601f198616915b828110156200060c57888601518255948401946001909101908401620005eb565b50858210156200062b5787850151600019600388901b60f8161c191681555b5050505050600190811b01905550565b600081546200064a81620004e0565b8085526020600183811680156200066a57600181146200068557620006b5565b60ff1985168884015283151560051b880183019550620006b5565b866000528260002060005b85811015620006ad5781548a820186015290830190840162000690565b890184019650505b505050505092915050565b60e08152600088518060e0840152610100620006e38282860160208e0162000274565b601f19601f8301168401915080848303016020850152620007078183018b6200063b565b91505082810360408401526200071e81896200063b565b6001600160a01b039790971660608401525050608081019390935260a083019190915260c0909101529392505050565b80820281158282048414176200077457634e487b7160e01b600052601160045260246000fd5b92915050565b615361806200078a6000396000f3fe6080604052600436106104a95760003560e01c8063785ddfe51161026b578063c7f758a81161014f578063edcd1be4116100c1578063f5c3641111610085578063f5c3641114610e4f578063f61736f414610e6f578063f79c017214610e8f578063f82e54c014610ebf578063fb9bf8d414610edf578063fd7971c914610ef557600080fd5b8063edcd1be414610dbc578063eef18e1714610dd2578063efa90d3614610dfa578063f0a7db0a14610e0f578063f4f3d7ec14610e2f57600080fd5b8063d798902511610113578063d798902514610d17578063dda54fcf14610d37578063e031535b14610d64578063e11db9d814610d79578063e269cefe14610d8e578063ea8a1af014610da757600080fd5b8063c7f758a814610c80578063ca09a4c414610cad578063cbdc27cb14610cc2578063d140d9f014610cd7578063d576b81d14610cf757600080fd5b80639b644a23116101e8578063b382543f116101ac578063b382543f14610bbc578063b4ac024f14610bd1578063bc022c9814610bf1578063c05f410414610c1e578063c19d93fb14610c3e578063c47f002714610c6057600080fd5b80639b644a2314610af6578063ac67f80114610b16578063ae66b8ad14610b36578063aec116b614610b66578063b323580d14610b9c57600080fd5b80638ebb4c151161022f5780638ebb4c1514610a5e5780639174778c14610a8e578063946369b514610aae5780639a04ede814610ac35780639b338aa014610ad657600080fd5b8063785ddfe5146109e75780637c65d71114610a075780637d74292514610a1c5780637de418d514610a32578063832009af14610a4857600080fd5b80633fb57c9211610392578063544ffc9c1161030f57806361a52a36116102d357806361a52a36146109115780636d030621146109285780636e4eb810146109485780636ed815ad1461098f5780636fd3636b146109a557806375e509c5146109ba57600080fd5b8063544ffc9c1461086e57806354fd4d501461089b5780635c7107d8146108c75780635cb718a1146108e757806360ed97a9146108fc57600080fd5b80634d24a67f116103565780634d24a67f146107ea57806350a5e524146107ff57806350c4b6161461082257806351a41dec146108425780635358b80e1461085857600080fd5b80633fb57c9214610767578063409fd03014610787578063437a8ae6146107a7578063476106c8146107bd5780634a2c96ec146107d457600080fd5b80631242b7371161042b5780632c39805f116103ef5780632c39805f146106b3578063325cc6d9146106d5578063347cf665146106f5578063366ecf5b146107115780633932abb1146107275780633f9942ff1461073d57600080fd5b80631242b7371461061c57806315dee7cd1461063e5780631805c5231461066b578063262e59e91461068b5780632c0a3f89146106a057600080fd5b806305846cae1161047257806305846cae1461056d57806306fdde031461058d5780630800e300146105af5780630aa25e44146105dc578063102613d8146105fc57600080fd5b80624114a8146104ae578063013cf08b146104d757806302a251a31461050957806302d05d3f1461051f5780630414126a14610557575b600080fd5b3480156104ba57600080fd5b506104c460075481565b6040519081526020015b60405180910390f35b3480156104e357600080fd5b506104f76104f2366004614564565b610f0a565b6040516104ce969594939291906146f4565b34801561051557600080fd5b506104c460095481565b34801561052b57600080fd5b5060055461053f906001600160a01b031681565b6040516001600160a01b0390911681526020016104ce565b34801561056357600080fd5b506104c460015481565b34801561057957600080fd5b506104c4610588366004614564565b6111f5565b34801561059957600080fd5b506105a2611216565b6040516104ce919061474e565b3480156105bb57600080fd5b506105cf6105ca366004614564565b6112a4565b6040516104ce9190614761565b3480156105e857600080fd5b5061053f6105f7366004614564565b6113b8565b34801561060857600080fd5b5060115461053f906001600160a01b031681565b34801561062857600080fd5b506106316113e2565b6040516104ce91906147a2565b34801561064a57600080fd5b506104c4610659366004614564565b601d6020526000908152604090205481565b34801561067757600080fd5b506104c46106863660046148b4565b61143a565b34801561069757600080fd5b506104c46115b5565b6104c46106ae3660046148fa565b6115d1565b3480156106bf57600080fd5b506106c861162e565b6040516104ce919061491c565b3480156106e157600080fd5b506104c46106f0366004614564565b61168f565b34801561070157600080fd5b506104c4678ac7230489e8000081565b34801561071d57600080fd5b506104c460005481565b34801561073357600080fd5b506104c460085481565b34801561074957600080fd5b506016546107579060ff1681565b60405190151581526020016104ce565b34801561077357600080fd5b506104c4610782366004614564565b61169f565b34801561079357600080fd5b506104c46107a236600461498e565b6116af565b3480156107b357600080fd5b506104c460105481565b3480156107c957600080fd5b506107d26116e0565b005b3480156107e057600080fd5b506104c4600f5481565b3480156107f657600080fd5b506104c461171e565b34801561080b57600080fd5b5061081461172d565b6040516104ce929190614a39565b34801561082e57600080fd5b5061053f61083d366004614564565b6117f8565b34801561084e57600080fd5b506104c4600e5481565b34801561086457600080fd5b506104c460065481565b34801561087a57600080fd5b506104c4610889366004614564565b6000908152601d602052604090205490565b3480156108a757600080fd5b5060408051808201909152600381526206c5c760eb1b60208201526105a2565b3480156108d357600080fd5b506104c46108e2366004614564565b611808565b3480156108f357600080fd5b5061063161190f565b34801561090857600080fd5b506105a2611965565b34801561091d57600080fd5b506104c46201518081565b34801561093457600080fd5b506104c46109433660046148fa565b611972565b34801561095457600080fd5b506104c4610963366004614a67565b6000828152601d602090815260408083206001600160a01b038516845260020190915290205492915050565b34801561099b57600080fd5b506104c4600d5481565b3480156109b157600080fd5b506106316119a3565b3480156109c657600080fd5b506104c46109d5366004614a97565b60186020526000908152604090205481565b3480156109f357600080fd5b50601f5461053f906001600160a01b031681565b348015610a1357600080fd5b506105a26119f9565b348015610a2857600080fd5b50601b5415610757565b348015610a3e57600080fd5b506104c4601b5481565b348015610a5457600080fd5b506104c4600a5481565b348015610a6a57600080fd5b50610a7e610a79366004614564565b611a06565b6040516104ce9493929190614ab4565b348015610a9a57600080fd5b50610757610aa9366004614564565b611ac3565b348015610aba57600080fd5b506106c8611b69565b6104c4610ad1366004614aeb565b611bc9565b348015610ae257600080fd5b506107d2610af1366004614a97565b611c4d565b348015610b0257600080fd5b506104c4610b11366004614564565b611d00565b348015610b2257600080fd5b506107d2610b31366004614bb3565b611d10565b348015610b4257600080fd5b50610757610b51366004614564565b60246020526000908152604090205460ff1681565b348015610b7257600080fd5b506104c4610b81366004614a97565b6001600160a01b03166000908152601c602052604090205490565b348015610ba857600080fd5b506106c8610bb7366004614564565b611ea7565b348015610bc857600080fd5b506104c4600a81565b348015610bdd57600080fd5b506105a2610bec366004614be7565b611f19565b348015610bfd57600080fd5b506104c4610c0c366004614564565b6000908152601e602052604090205490565b348015610c2a57600080fd5b50610631610c39366004614564565b611fb7565b348015610c4a57600080fd5b50610c53612019565b6040516104ce9190614c31565b348015610c6c57600080fd5b506105a2610c7b366004614be7565b61206a565b348015610c8c57600080fd5b50610ca0610c9b366004614564565b612101565b6040516104ce9190614c4b565b348015610cb957600080fd5b506104c4612421565b348015610cce57600080fd5b506106c8612598565b348015610ce357600080fd5b506107d2610cf2366004614fca565b6126c8565b348015610d0357600080fd5b506104c4610d12366004614564565b6128af565b348015610d2357600080fd5b506104c4610d32366004614fca565b61290f565b348015610d4357600080fd5b506104c4610d52366004614a97565b601c6020526000908152604090205481565b348015610d7057600080fd5b506104c4612922565b348015610d8557600080fd5b50610631612934565b348015610d9a57600080fd5b506104c464e8d4a5100081565b348015610db357600080fd5b506107d261298a565b348015610dc857600080fd5b506104c4600c5481565b348015610dde57600080fd5b5061053f73dc652c746a8f85e18ce632d97c6118e8a52fa73881565b348015610e0657600080fd5b50610631612a57565b348015610e1b57600080fd5b506107d2610e2a366004614ffe565b612aad565b348015610e3b57600080fd5b506107d2610e4a366004614a97565b612c0b565b348015610e5b57600080fd5b506104c4610e6a366004614564565b612d4d565b348015610e7b57600080fd5b506104c4610e8a3660046148fa565b612d5d565b348015610e9b57600080fd5b50610757610eaa366004614564565b60156020526000908152604090205460ff1681565b348015610ecb57600080fd5b50610631610eda366004614564565b612d79565b348015610eeb57600080fd5b506104c4600b5481565b348015610f0157600080fd5b506104c4603c81565b601760205260009081526040902080546001820180546001600160a01b03831693600160a01b90930460ff16929190610f4290615072565b80601f0160208091040260200160405190810160405280929190818152602001828054610f6e90615072565b8015610fbb5780601f10610f9057610100808354040283529160200191610fbb565b820191906000526020600020905b815481529060010190602001808311610f9e57829003601f168201915b5050604080516020808201835260028801546001600160a01b03168252825160038901805460609381028301840186529482018581529899939893975090955093508492849184018282801561103a57602002820191906000526020600020905b81546001600160a01b0316815260019091019060200180831161101c575b505050505081526020016001820154815250509080600501604051806060016040529081600082018054806020026020016040519081016040528092919081815260200182805480156110b657602002820191906000526020600020905b81546001600160a01b03168152600190910190602001808311611098575b5050505050815260200160018201805480602002602001604051908101604052809291908181526020016000905b8282101561119057838290600052602060002001805461110390615072565b80601f016020809104026020016040519081016040528092919081815260200182805461112f90615072565b801561117c5780601f106111515761010080835404028352916020019161117c565b820191906000526020600020905b81548152906001019060200180831161115f57829003601f168201915b5050505050815260200190600101906110e4565b505050508152602001600282018054806020026020016040519081016040528092919081815260200182805480156111e757602002820191906000526020600020905b8154815260200190600101908083116111d3575b505050505081525050905086565b6014818154811061120557600080fd5b600091825260209091200154905081565b6003805461122390615072565b80601f016020809104026020016040519081016040528092919081815260200182805461124f90615072565b801561129c5780601f106112715761010080835404028352916020019161129c565b820191906000526020600020905b81548152906001019060200180831161127f57829003601f168201915b505050505081565b6112d8604051806080016040528060006001600160a01b031681526020016000815260200160008152602001606081525090565b600082815260226020908152604091829020825160808101845281546001600160a01b0316815260018201549281019290925260028101549282019290925260038201805491929160608401919061132f90615072565b80601f016020809104026020016040519081016040528092919081815260200182805461135b90615072565b80156113a85780601f1061137d576101008083540402835291602001916113a8565b820191906000526020600020905b81548152906001019060200180831161138b57829003601f168201915b5050505050815250509050919050565b601981815481106113c857600080fd5b6000918252602090912001546001600160a01b0316905081565b6060601480548060200260200160405190810160405280929190818152602001828054801561143057602002820191906000526020600020905b81548152602001906001019080831161141c575b5050505050905090565b60006004611446612019565b600481111561145757611457614c1b565b148061147b57506002611468612019565b600481111561147957611479614c1b565b145b156114985760405162f3e73d60e81b815260040160405180910390fd5b604080516080810182523381524260208201529081018490526060810183905260006114c3826116af565b60208054600180820183557fc97bfaf2f8ee708c303a06d134f5ecd8389ae0432af62dc132a24118292866bb909101839055600083815260228352604090819020865181546001600160a01b0319166001600160a01b039091161781559286015191830191909155840151600282015560608401519192508391600382019061154c90826150fa565b505050600085815260236020908152604080832080546001810182559084529190922001829055517f5a1a930fed43f34b3a07db782ebcac28a661c273e662bb98458cfba5a8ccd220906115a39083815260200190565b60405180910390a19150505b92915050565b60006009546115c2612922565b6115cc91906151cf565b905090565b6000806115df600184612dd9565b60008581526015602052604090205490915060ff1615611612576040516358f1119560e01b815260040160405180910390fd5b61161b81612e97565b611626843385612fb2565b949350505050565b6060601a80548060200260200160405190810160405280929190818152602001828054801561143057602002820191906000526020600020905b81546001600160a01b03168152600190910190602001808311611668575050505050905090565b6002818154811061120557600080fd5b6021818154811061120557600080fd5b6000816040516020016116c29190614761565b60408051601f19818403018152919052805160209091012092915050565b6006546001141580156116fe57506005546001600160a01b03163314155b1561171c57604051639a4a529360e01b815260040160405180910390fd5b565b61172a600260016151cf565b81565b606080600061173a612a57565b9050600081516001600160401b03811115611757576117576147b5565b604051908082528060200260200182016040528015611780578160200160208202803683370190505b50905060005b82518110156117ee57601d60008483815181106117a5576117a56151e2565b60200260200101518152602001908152602001600020600001548282815181106117d1576117d16151e2565b6020908102919091010152806117e6816151f8565b915050611786565b5090939092509050565b601a81815481106113c857600080fd5b60008160000361182b57604051630ec90a1760e31b815260040160405180910390fd5b6002805460408051602080840282018101909252828152919260009291849083018282801561187957602002820191906000526020600020905b815481526020019060010190808311611865575b5050505050905060006001905060005b838110156118f5576118c08382815181106118a6576118a66151e2565b60200260200101516000908152601e602052604090205490565b156118e3578582036118d55795945050505050565b816118df816151f8565b9250505b806118ed816151f8565b915050611889565b50604051632cc2ab7360e11b815260040160405180910390fd5b60606021805480602002602001604051908101604052809291908181526020018280548015611430576020028201919060005260206000209081548152602001906001019080831161141c575050505050905090565b6012805461122390615072565b601e602052816000526040600020818154811061198e57600080fd5b90600052602060002001600091509150505481565b60606002805480602002602001604051908101604052809291908181526020018280548015611430576020028201919060005260206000209081548152602001906001019080831161141c575050505050905090565b6004805461122390615072565b60226020526000908152604090208054600182015460028301546003840180546001600160a01b03909416949293919291611a4090615072565b80601f0160208091040260200160405190810160405280929190818152602001828054611a6c90615072565b8015611ab95780601f10611a8e57610100808354040283529160200191611ab9565b820191906000526020600020905b815481529060010190602001808311611a9c57829003601f168201915b5050505050905084565b600254600090611ad590600190615211565b821115611af5576040516365d6f35160e11b815260040160405180910390fd5b60005b611b038360016151cf565b811015611b60576001611b3f60028381548110611b2257611b226151e2565b90600052602060002001546000908152601e602052604090205490565b1115611b4e5750600192915050565b80611b58816151f8565b915050611af8565b50600092915050565b60606019805480602002602001604051908101604052809291908181526020018280548015611430576020028201919060005260206000209081546001600160a01b03168152600190910190602001808311611668575050505050905090565b600080611bd7600080612dd9565b90506000611bed601f546001600160a01b031690565b6001600160a01b031603611c145760405163fa4f07a360e01b815260040160405180910390fd5b611c1c6116e0565b611c28610cf284615224565b6000611c3b611c3685615224565b6130a6565b9050611c4682612e97565b9392505050565b3373dc652c746a8f85e18ce632d97c6118e8a52fa73814611c815760405163de07280160e01b815260040160405180910390fd5b6004611c8b612019565b6004811115611c9c57611c9c614c1b565b1480611cc057506002611cad612019565b6004811115611cbe57611cbe614c1b565b145b15611cde576040516398fe99a560e01b815260040160405180910390fd5b601180546001600160a01b0319166001600160a01b0392909216919091179055565b6013818154811061120557600080fd5b6004611d1a612019565b6004811115611d2b57611d2b614c1b565b1480611d4f57506002611d3c612019565b6004811115611d4d57611d4d614c1b565b145b15611d6d57604051631e71d28360e21b815260040160405180910390fd5b805160005b81811015611e6b576000838281518110611d8e57611d8e6151e2565b60209081029190910101516005549091506001600160a01b03163314801590611dce57506000818152602260205260409020546001600160a01b03163314155b15611df457604051635450763d60e11b8152600481018290526024015b60405180910390fd5b60008181526024602052604090205460ff16611e58576000818152602460205260408120805460ff191660019081179091556021805491820181559091527f3a6357012c1a3ae0a17d304c9920310382d968ebcc4b1771f41c6b304205b570018190555b5080611e63816151f8565b915050611d72565b507f788a4349d25bc08585923ae212bce8bb346a623bce753eeecb85fd9ce58dcb4b82604051611e9b91906147a2565b60405180910390a15050565b6000818152601d60209081526040918290206001810180548451818502810185019095528085526060949293830182828015611f0c57602002820191906000526020600020905b81546001600160a01b03168152600190910190602001808311611eee575b5050505050915050919050565b6005546060906001600160a01b03163314611f4757604051630aca3d7160e11b815260040160405180910390fd5b6004611f51612019565b6004811115611f6257611f62614c1b565b1480611f8657506002611f73612019565b6004811115611f8457611f84614c1b565b145b15611fa457604051635b0747e760e01b815260040160405180910390fd5b6004611fb083826150fa565b5090919050565b60008181526023602090815260409182902080548351818402810184019094528084526060939283018282801561200d57602002820191906000526020600020905b815481526020019060010190808311611ff9575b50505050509050919050565b60165460009060ff161561202d5750600290565b426007541061203c5750600090565b42612045612922565b106120505750600390565b426120596115b5565b106120645750600190565b50600490565b6005546060906001600160a01b0316331461209857604051637d1cb2b160e01b815260040160405180910390fd5b60046120a2612019565b60048111156120b3576120b3614c1b565b14806120d7575060026120c4612019565b60048111156120d5576120d5614c1b565b145b156120f557604051635b0747e760e01b815260040160405180910390fd5b6003611fb083826150fa565b61210961436c565b600082815260176020908152604091829020825160c08101845281546001600160a01b0381168252600160a01b900460ff16151592810192909252600181018054929391929184019161215b90615072565b80601f016020809104026020016040519081016040528092919081815260200182805461218790615072565b80156121d45780601f106121a9576101008083540402835291602001916121d4565b820191906000526020600020905b8154815290600101906020018083116121b757829003601f168201915b5050509183525050604080516020818101835260028501546001600160a01b0316825280840191909152815160038501805460609381028301840185528285018181529490950194919390928492849184018282801561225d57602002820191906000526020600020905b81546001600160a01b0316815260019091019060200180831161223f575b50505050508152602001600182015481525050815260200160058201604051806060016040529081600082018054806020026020016040519081016040528092919081815260200182805480156122dd57602002820191906000526020600020905b81546001600160a01b031681526001909101906020018083116122bf575b5050505050815260200160018201805480602002602001604051908101604052809291908181526020016000905b828210156123b757838290600052602060002001805461232a90615072565b80601f016020809104026020016040519081016040528092919081815260200182805461235690615072565b80156123a35780601f10612378576101008083540402835291602001916123a3565b820191906000526020600020905b81548152906001019060200180831161238657829003601f168201915b50505050508152602001906001019061230b565b5050505081526020016002820180548060200260200160405190810160405280929190818152602001828054801561240e57602002820191906000526020600020905b8154815260200190600101908083116123fa575b5050509190925250505090525092915050565b6000600161242d612019565b600481111561243e5761243e614c1b565b1461245c5760405163a6f7b85360e01b815260040160405180910390fd5b6001600f54600181111561247257612472614c1b565b600181111561248357612483614c1b565b03612591576000603c612494612922565b61249f9060016151cf565b6124a99042615211565b6124b39190615246565b9050600061252061250c6124d56124d285670de0b6b3a7640000615268565b90565b6125076124f1600954670de0b6b3a76400006124d29190615268565b6125076124d2603c670de0b6b3a7640000615268565b613374565b68056bc75e2d6310000061338c565b61338c565b905060006125428261251b61253460105490565b670de0b6b3a7640000613374565b9050600061254f8261339b565b9050600061256b6124d2612565612534600e5490565b8461338c565b905064e8d4a5100061257d8183615246565b6125879190615268565b9550505050505090565b50600e5490565b6060600060148054806020026020016040519081016040528092919081815260200182805480156125e857602002820191906000526020600020905b8154815260200190600101908083116125d4575b50505050509050600081516001600160401b0381111561260a5761260a6147b5565b604051908082528060200260200182016040528015612633578160200160208202803683370190505b50905060005b82518110156126c15760176000848381518110612658576126586151e2565b6020026020010151815260200190815260200160002060000160009054906101000a90046001600160a01b0316828281518110612697576126976151e2565b6001600160a01b0390921660209283029190910190910152806126b9816151f8565b915050612639565b5092915050565b80516001600160a01b0316331461270657805160405163fbbf4d7f60e01b81526001600160a01b039091166004820152336024820152604401611deb565b60005b612715600260016151cf565b81101561288557600081600281111561273057612730614c1b565b9050600081600281111561274657612746614c1b565b036127515750612873565b600181600281111561276557612765614c1b565b036127bf57608083015151516000036127915760405163c3b2798b60e01b815260040160405180910390fd5b8260800151602001516000036127ba576040516392fb9a3560e01b815260040160405180910390fd5b612871565b60028160028111156127d3576127d3614c1b565b036128565760a08301515151600a101561280057604051631e38b1b160e11b815260040160405180910390fd5b600a8360a001516020015151111561282b5760405163a3b7dd7760e01b815260040160405180910390fd5b600a8360a00151604001515111156127ba5760405163f696406560e01b815260040160405180910390fd5b8060405163d2277d4960e01b8152600401611deb919061527f565b505b8061287d816151f8565b915050612709565b508060400151516000036128ac5760405163e182473360e01b815260040160405180910390fd5b50565b6000818152601e60205260408120546001146128de57604051633832a15560e21b815260040160405180910390fd5b6000828152601e6020526040812080549091906128fd576128fd6151e2565b90600052602060002001549050919050565b6000816040516020016116c29190614c4b565b60006008546007546115cc91906151cf565b60606020805480602002602001604051908101604052809291908181526020018280548015611430576020028201919060005260206000209081548152602001906001019080831161141c575050505050905090565b6005546001600160a01b031633148015906129b957503373dc652c746a8f85e18ce632d97c6118e8a52fa73814155b156129d757604051637601acaf60e11b815260040160405180910390fd5b60165460ff16156129fb57604051636f79584d60e01b815260040160405180910390fd5b601b5415600114612a1f5760405163043d8d1b60e21b815260040160405180910390fd5b6016805460ff191660011790556040517f4cd963a081760a54f571abc0f1db4dde31b4a07d8d6da3e844b8c6f47eeaaa4290600090a1565b60606013805480602002602001604051908101604052809291908181526020018280548015611430576020028201919060005260206000209081548152602001906001019080831161141c575050505050905090565b6003612ab7612019565b6004811115612ac857612ac8614c1b565b14612ae65760405163554806bb60e11b815260040160405180910390fd5b60005b81811015612bda576000838383818110612b0557612b056151e2565b60055460209190910292909201359250506001600160a01b03163314801590612b4557506000818152601760205260409020546001600160a01b03163314155b15612b635760405163018db70560e11b815260040160405180910390fd5b60008181526015602052604090205460ff16612bc7576000818152601560205260408120805460ff191660019081179091556014805491820181559091527fce6d7b5282bd9a3661ae061feed1dbda4e52ab073b1f9285be6e155d9c38d4ec018190555b5080612bd2816151f8565b915050612ae9565b507f75a75cf5c561892f4cc5b26c1b8e933849b42238c96dd073d080d1ae96c514166013604051611e9b9190615293565b6005546001600160a01b03163314612c3657604051630f4cb1bd60e11b815260040160405180910390fd5b601f546001600160a01b031615612c6057604051630ff4b80b60e01b815260040160405180910390fd5b306001600160a01b0316816001600160a01b031663f3f44fb76040518163ffffffff1660e01b8152600401602060405180830381865afa158015612ca8573d6000803e3d6000fd5b505050506040513d601f19601f82011682018060405250810190612ccc91906152ce565b6001600160a01b031614612cf357604051635b310aaf60e01b815260040160405180910390fd5b601f80546001600160a01b038381166001600160a01b031983168117909355604080519190921680825260208201939093527f753a2cf8d360cff631674504210913e48247f8e56b3e6d2006c2103d4095999f9101611e9b565b6020818154811061120557600080fd5b6023602052816000526040600020818154811061198e57600080fd5b6000818152601e602090815260409182902080548351818402810184019094528084526060939283018282801561200d5760200282019190600052602060002090815481526020019060010190808311611ff95750505050509050919050565b60008080846001811115612def57612def614c1b565b03612dfd5750600d54612e6e565b6001846001811115612e1157612e11614c1b565b03612e6a57670de0b6b3a7640000831015612e3f576040516346ddb8d160e01b815260040160405180910390fd5b612e51670de0b6b3a764000084615246565b612e59612421565b612e639190615268565b9050612e6e565b5060005b803414611c46576040516372c3eaa760e01b815234600482015260248101829052604401611deb565b80156128ac5760006064600c546064612eb09190615211565b612eba9034615268565b612ec49190615246565b90508015612f2957601154612ee2906001600160a01b0316826133f1565b601154604080516001600160a01b039092168252602082018390527f9df63d1c00d2e332f573be591c0579caafb256b2c5a17abcc8ad471cccda1b81910160405180910390a15b6000612f358234615211565b90508015612fad57612f58612f52601f546001600160a01b031690565b826133f1565b7f6dff55337c8458ae8c536a63869a48bc33541733422a796390c131d91f4238ed612f8b601f546001600160a01b031690565b604080516001600160a01b039092168252602082018490520160405180910390a15b505050565b60006001612fbe612019565b6004811115612fcf57612fcf614c1b565b14612fed5760405163f569a2b960e01b815260040160405180910390fd5b8160000361300e5760405163502e1c2960e01b815260040160405180910390fd5b61301984848461350a565b601a80546001810182556000919091527f057c384a7d1c54f3a1b2e5e67b2617b8224fdfd1ea7234eea573a6ff665ff63e0180546001600160a01b0319163317905560408051858152602081018490526001600160a01b038516917fb4cfecf70861b7b150d8337780d34fb4cbc2114b5fb1fe51a5c5fca1849f7274910160405180910390a25092915050565b600060036130b2612019565b60048111156130c3576130c3614c1b565b146130e15760405163152839c360e31b815260040160405180910390fd5b600a54336000908152601860205260409020540361311857600a54604051632bd6d93960e21b8152600401611deb91815260200190565b600b5460145460135461312b9190615211565b0361314f57600b546040516302217f5360e51b8152600401611deb91815260200190565b600061315a8361290f565b600081815260176020526040902054909150600160a01b900460ff16156131975760405163baffc42360e01b815260048101829052602401611deb565b6013805460018181019092557f66de8ffda797e3de9c05e8fc57b3bf0ec28a930d40b0d285d93c06501cf6a0900182905560008281526017602090815260409182902086518154928801511515600160a01b026001600160a81b03199093166001600160a01b039091161791909117815590850151859282019061321b90826150fa565b506060820151516002820180546001600160a01b0319166001600160a01b03909216919091179055608082015180518051600384019161326091839160200190614406565b5060209182015160019091015560a0830151805180519192600585019261328a9284920190614406565b5060208281015180516132a3926001850192019061446b565b50604082015180516132bf9160028401916020909101906144bd565b50503360009081526018602052604081208054600195509093509091506132e79084906151cf565b9091555050601980546001810182556000919091527f944998273e477b495144fb8794c914197f3ccb46be2900f4698fd0ef743c96950180546001600160a01b0319163390811790915560408085015190517f7585f467599d0f008985f231af99293be388626ac16ca59505c2f8f88969cd63926133669285926152eb565b60405180910390a192915050565b6000611c466124d284670de0b6b3a764000085613656565b6000611c466124d2848461372a565b600081680a688906bd8affffff8111156133cb5760405163b3b6ba1f60e01b815260048101849052602401611deb565b60006133e3670de0b6b3a7640000604084901b615246565b90506116266124d2826137e0565b804710156134415760405162461bcd60e51b815260206004820152601d60248201527f416464726573733a20696e73756666696369656e742062616c616e63650000006044820152606401611deb565b6000826001600160a01b03168260405160006040518083038185875af1925050503d806000811461348e576040519150601f19603f3d011682016040523d82523d6000602084013e613493565b606091505b5050905080612fad5760405162461bcd60e51b815260206004820152603a60248201527f416464726573733a20756e61626c6520746f2073656e642076616c75652c207260448201527f6563697069656e74206d617920686176652072657665727465640000000000006064820152608401611deb565b6000838152601d602090815260408083206001600160a01b03861684526002810190925282205481549192901591849184916135479084906151cf565b90915550506001600160a01b0384166000908152600283016020526040812080548592906135769084906151cf565b909155505080156135b1576001828101805491820181556000908152602090200180546001600160a01b0319166001600160a01b0386161790555b6001600160a01b0384166000908152601c6020526040812080548592906135d99084906151cf565b9250508190555082601b60008282546135f291906151cf565b909155505060005460010361364f578154600061360f8583615211565b90508015613621576136218782613f40565b6000828152601e602090815260408220805460018101825590835291200187905561364c8183614077565b50505b5050505050565b60008080600019858709858702925082811083820303915050806000036136905783828161368657613686615230565b0492505050611c46565b8381106136c157604051630c740aef60e31b8152600481018790526024810186905260448101859052606401611deb565b60008486880960026001871981018816978890046003810283188082028403028082028403028082028403028082028403028082028403029081029092039091026000889003889004909101858311909403939093029303949094049190911702949350505050565b600080806000198486098486029250828110838203039150508060000361375e5750670de0b6b3a7640000900490506115af565b670de0b6b3a7640000811061379057604051635173648d60e01b81526004810186905260248101859052604401611deb565b6000670de0b6b3a764000085870962040000818503049310909103600160ee1b02919091177faccb18165bd6fe31ae1cf318dc5b51eee0e1ba569b88cd74c1773b91fac106690291505092915050565b600160bf1b67ff000000000000008216156138ed576780000000000000008216156138145768016a09e667f3bcc9090260401c5b674000000000000000821615613833576801306fe0a31b7152df0260401c5b672000000000000000821615613852576801172b83c7d517adce0260401c5b6710000000000000008216156138715768010b5586cf9890f62a0260401c5b670800000000000000821615613890576801059b0d31585743ae0260401c5b6704000000000000008216156138af57680102c9a3e778060ee70260401c5b6702000000000000008216156138ce5768010163da9fb33356d80260401c5b6701000000000000008216156138ed57680100b1afa5abcbed610260401c5b66ff0000000000008216156139ec57668000000000000082161561391a5768010058c86da1c09ea20260401c5b6640000000000000821615613938576801002c605e2e8cec500260401c5b662000000000000082161561395657680100162f3904051fa10260401c5b6610000000000000821615613974576801000b175effdc76ba0260401c5b660800000000000082161561399257680100058ba01fb9f96d0260401c5b66040000000000008216156139b05768010002c5cc37da94920260401c5b66020000000000008216156139ce576801000162e525ee05470260401c5b66010000000000008216156139ec5768010000b17255775c040260401c5b65ff0000000000821615613ae25765800000000000821615613a17576801000058b91b5bc9ae0260401c5b65400000000000821615613a3457680100002c5c89d5ec6d0260401c5b65200000000000821615613a515768010000162e43f4f8310260401c5b65100000000000821615613a6e57680100000b1721bcfc9a0260401c5b65080000000000821615613a8b5768010000058b90cf1e6e0260401c5b65040000000000821615613aa8576801000002c5c863b73f0260401c5b65020000000000821615613ac557680100000162e430e5a20260401c5b65010000000000821615613ae2576801000000b1721835510260401c5b64ff00000000821615613bcf57648000000000821615613b0b57680100000058b90c0b490260401c5b644000000000821615613b275768010000002c5c8601cc0260401c5b642000000000821615613b43576801000000162e42fff00260401c5b641000000000821615613b5f5768010000000b17217fbb0260401c5b640800000000821615613b7b576801000000058b90bfce0260401c5b640400000000821615613b9757680100000002c5c85fe30260401c5b640200000000821615613bb35768010000000162e42ff10260401c5b640100000000821615613bcf57680100000000b17217f80260401c5b63ff000000821615613cb3576380000000821615613bf65768010000000058b90bfc0260401c5b6340000000821615613c11576801000000002c5c85fe0260401c5b6320000000821615613c2c57680100000000162e42ff0260401c5b6310000000821615613c47576801000000000b17217f0260401c5b6308000000821615613c6257680100000000058b90c00260401c5b6304000000821615613c7d5768010000000002c5c8600260401c5b6302000000821615613c98576801000000000162e4300260401c5b6301000000821615613cb35768010000000000b172180260401c5b62ff0000821615613d8e5762800000821615613cd8576801000000000058b90c0260401c5b62400000821615613cf257680100000000002c5c860260401c5b62200000821615613d0c5768010000000000162e430260401c5b62100000821615613d2657680100000000000b17210260401c5b62080000821615613d405768010000000000058b910260401c5b62040000821615613d5a576801000000000002c5c80260401c5b62020000821615613d7457680100000000000162e40260401c5b62010000821615613d8e576801000000000000b1720260401c5b61ff00821615613e6057618000821615613db157680100000000000058b90260401c5b614000821615613dca5768010000000000002c5d0260401c5b612000821615613de3576801000000000000162e0260401c5b611000821615613dfc5768010000000000000b170260401c5b610800821615613e15576801000000000000058c0260401c5b610400821615613e2e57680100000000000002c60260401c5b610200821615613e4757680100000000000001630260401c5b610100821615613e6057680100000000000000b10260401c5b60ff821615613f29576080821615613e8157680100000000000000590260401c5b6040821615613e99576801000000000000002c0260401c5b6020821615613eb157680100000000000000160260401c5b6010821615613ec9576801000000000000000b0260401c5b6008821615613ee157680100000000000000060260401c5b6004821615613ef957680100000000000000030260401c5b6002821615613f1157680100000000000000010260401c5b6001821615613f2957680100000000000000010260401c5b670de0b6b3a76400000260409190911c60bf031c90565b6000818152601e6020908152604080832080548251818502810185019093528083529192909190830182828015613f9657602002820191906000526020600020905b815481526020019060010190808311613f82575b5050505050905060005b81518110156140715783828281518110613fbc57613fbc6151e2565b60200260200101510361405f578160018351613fd89190615211565b81518110613fe857613fe86151e2565b6020026020010151601e60008581526020019081526020016000208281548110614014576140146151e2565b9060005260206000200181905550601e600084815260200190815260200160002080548061404457614044615315565b60019003818190600052602060002001600090559055614071565b80614069816151f8565b915050613fa0565b50505050565b600280546040805160208084028201810190925282815291926000929184908301828280156140c557602002820191906000526020600020905b8154815260200190600101908083116140b1575b505050505090508160000361410c575050600280546001810182556000919091527f405787fa12a823e0f2b7631cc41b3ba8828b3321ca811111fa75cd3aa3bb5ace015550565b80614118600184615211565b81518110614128576141286151e2565b602002602001015183101561417e5760015482036141465750505050565b5050600280546001810182556000919091527f405787fa12a823e0f2b7631cc41b3ba8828b3321ca811111fa75cd3aa3bb5ace015550565b614071848484846000805b838110156141f3578281815181106141a3576141a36151e2565b602002602001015185036141b8575050614071565b8281815181106141ca576141ca6151e2565b60200260200101518511156141e1578091506141f3565b806141eb816151f8565b915050614189565b506000808611801561421157506000868152601e6020526040902054155b9050600081801561423a575086848481518110614230576142306151e2565b6020026020010151145b61434357614249600186615211565b83146142f157600061425c8460016151cf565b90505b858110156142ef5784614273600183615211565b81518110614283576142836151e2565b60200260200101516002828154811061429e5761429e6151e2565b6000918252602090912001558280156142cf5750878582815181106142c5576142c56151e2565b6020026020010151145b156142dd57600191506142ef565b806142e7816151f8565b91505061425f565b505b80158015614300575060015485105b1561434357600284614313600188615211565b81518110614323576143236151e2565b602090810291909101810151825460018101845560009384529190922001555b8560028481548110614357576143576151e2565b60009182526020909120015550505050505050565b6040518060c0016040528060006001600160a01b03168152602001600015158152602001606081526020016143b6604051806020016040528060006001600160a01b031681525090565b81526020016143d8604051806040016040528060608152602001600081525090565b815260200161440160405180606001604052806060815260200160608152602001606081525090565b905290565b82805482825590600052602060002090810192821561445b579160200282015b8281111561445b57825182546001600160a01b0319166001600160a01b03909116178255602090920191600190910190614426565b506144679291506144f8565b5090565b8280548282559060005260206000209081019282156144b1579160200282015b828111156144b157825182906144a190826150fa565b509160200191906001019061448b565b5061446792915061450d565b82805482825590600052602060002090810192821561445b579160200282015b8281111561445b5782518255916020019190600101906144dd565b5b8082111561446757600081556001016144f9565b80821115614467576000614521828261452a565b5060010161450d565b50805461453690615072565b6000825580601f10614546575050565b601f0160209004906000526020600020908101906128ac91906144f8565b60006020828403121561457657600080fd5b5035919050565b6000815180845260005b818110156145a357602081850181015186830182015201614587565b506000602082860101526020601f19601f83011685010191505092915050565b600081518084526020808501945080840160005b838110156145fc5781516001600160a01b0316875295820195908201906001016145d7565b509495945050505050565b600081516040845261461c60408501826145c3565b602093840151949093019390935250919050565b600081518084526020808501945080840160005b838110156145fc57815187529582019590820190600101614644565b600081516060845261467560608501826145c3565b9050602080840151858303828701528281518085528385019150838160051b860101848401935060005b828110156146cd57601f198783030184526146bb82865161457d565b9486019493860193915060010161469f565b506040880151955088810360408a01526146e78187614630565b9998505050505050505050565b600060018060a01b038089168352871515602084015260c0604084015261471e60c084018861457d565b81875116606085015283810360808501526147398187614607565b91505082810360a08401526146e78185614660565b602081526000611c46602083018461457d565b6020815260018060a01b03825116602082015260208201516040820152604082015160608201526000606083015160808084015261162660a084018261457d565b602081526000611c466020830184614630565b634e487b7160e01b600052604160045260246000fd5b604051606081016001600160401b03811182821017156147ed576147ed6147b5565b60405290565b60405160c081016001600160401b03811182821017156147ed576147ed6147b5565b604051601f8201601f191681016001600160401b038111828210171561483d5761483d6147b5565b604052919050565b600082601f83011261485657600080fd5b81356001600160401b0381111561486f5761486f6147b5565b614882601f8201601f1916602001614815565b81815284602083860101111561489757600080fd5b816020850160208301376000918101602001919091529392505050565b600080604083850312156148c757600080fd5b8235915060208301356001600160401b038111156148e457600080fd5b6148f085828601614845565b9150509250929050565b6000806040838503121561490d57600080fd5b50508035926020909101359150565b6020808252825182820181905260009190848201906040850190845b8181101561495d5783516001600160a01b031683529284019291840191600101614938565b50909695505050505050565b6001600160a01b03811681146128ac57600080fd5b803561498981614969565b919050565b6000602082840312156149a057600080fd5b81356001600160401b03808211156149b757600080fd5b90830190608082860312156149cb57600080fd5b6040516080810181811083821117156149e6576149e66147b5565b60405282356149f481614969565b808252506020830135602082015260408301356040820152606083013582811115614a1e57600080fd5b614a2a87828601614845565b60608301525095945050505050565b604081526000614a4c6040830185614630565b8281036020840152614a5e8185614630565b95945050505050565b60008060408385031215614a7a57600080fd5b823591506020830135614a8c81614969565b809150509250929050565b600060208284031215614aa957600080fd5b8135611c4681614969565b60018060a01b0385168152836020820152826040820152608060608201526000614ae1608083018461457d565b9695505050505050565b600060208284031215614afd57600080fd5b81356001600160401b03811115614b1357600080fd5b820160c08185031215611c4657600080fd5b60006001600160401b03821115614b3e57614b3e6147b5565b5060051b60200190565b600082601f830112614b5957600080fd5b81356020614b6e614b6983614b25565b614815565b82815260059290921b84018101918181019086841115614b8d57600080fd5b8286015b84811015614ba85780358352918301918301614b91565b509695505050505050565b600060208284031215614bc557600080fd5b81356001600160401b03811115614bdb57600080fd5b61162684828501614b48565b600060208284031215614bf957600080fd5b81356001600160401b03811115614c0f57600080fd5b61162684828501614845565b634e487b7160e01b600052602160045260246000fd5b6020810160058310614c4557614c45614c1b565b91905290565b60208152600060018060a01b03808451166020840152602084015115156040840152604084015160c06060850152614c8660e085018261457d565b90508160608601515116608085015260808501519150601f19808583030160a0860152614cb38284614607565b925060a08601519150808584030160c086015250614a5e8282614660565b8035801515811461498957600080fd5b600060208284031215614cf357600080fd5b604051602081018181106001600160401b0382111715614d1557614d156147b5565b6040529050808235614d2681614969565b905292915050565b600082601f830112614d3f57600080fd5b81356020614d4f614b6983614b25565b82815260059290921b84018101918181019086841115614d6e57600080fd5b8286015b84811015614ba8578035614d8581614969565b8352918301918301614d72565b600060408284031215614da457600080fd5b604051604081016001600160401b038282108183111715614dc757614dc76147b5565b816040528293508435915080821115614ddf57600080fd5b50614dec85828601614d2e565b825250602083013560208201525092915050565b600060608284031215614e1257600080fd5b614e1a6147cb565b905081356001600160401b0380821115614e3357600080fd5b614e3f85838601614d2e565b8352602091508184013581811115614e5657600080fd5b8401601f81018613614e6757600080fd5b8035614e75614b6982614b25565b81815260059190911b82018401908481019088831115614e9457600080fd5b8584015b83811015614ecc57803586811115614eb05760008081fd5b614ebe8b8983890101614845565b845250918601918601614e98565b508086880152505050506040840135915080821115614eea57600080fd5b50614ef784828501614b48565b60408301525092915050565b600060c08284031215614f1557600080fd5b614f1d6147f3565b9050614f288261497e565b8152614f3660208301614cd1565b602082015260408201356001600160401b0380821115614f5557600080fd5b614f6185838601614845565b6040840152614f738560608601614ce1565b60608401526080840135915080821115614f8c57600080fd5b614f9885838601614d92565b608084015260a0840135915080821115614fb157600080fd5b50614fbe84828501614e00565b60a08301525092915050565b600060208284031215614fdc57600080fd5b81356001600160401b03811115614ff257600080fd5b61162684828501614f03565b6000806020838503121561501157600080fd5b82356001600160401b038082111561502857600080fd5b818501915085601f83011261503c57600080fd5b81358181111561504b57600080fd5b8660208260051b850101111561506057600080fd5b60209290920196919550909350505050565b600181811c9082168061508657607f821691505b6020821081036150a657634e487b7160e01b600052602260045260246000fd5b50919050565b601f821115612fad57600081815260208120601f850160051c810160208610156150d35750805b601f850160051c820191505b818110156150f2578281556001016150df565b505050505050565b81516001600160401b03811115615113576151136147b5565b615127816151218454615072565b846150ac565b602080601f83116001811461515c57600084156151445750858301515b600019600386901b1c1916600185901b1785556150f2565b600085815260208120601f198616915b8281101561518b5788860151825594840194600190910190840161516c565b50858210156151a95787850151600019600388901b60f8161c191681555b5050505050600190811b01905550565b634e487b7160e01b600052601160045260246000fd5b808201808211156115af576115af6151b9565b634e487b7160e01b600052603260045260246000fd5b60006001820161520a5761520a6151b9565b5060010190565b818103818111156115af576115af6151b9565b60006115af3683614f03565b634e487b7160e01b600052601260045260246000fd5b60008261526357634e487b7160e01b600052601260045260246000fd5b500490565b80820281158282048414176115af576115af6151b9565b6020810160038310614c4557614c45614c1b565b6020808252825482820181905260008481528281209092916040850190845b8181101561495d578354835260019384019392850192016152b2565b6000602082840312156152e057600080fd5b8151611c4681614969565b8381526001600160a01b0383166020820152606060408201819052600090614a5e9083018461457d565b634e487b7160e01b600052603160045260246000fdfea2646970667358221220fbf3e677c10a93681ad9533568148affbad14cc04656a1227a363679140db17f64736f6c63430008130033","linkReferences":{}},"methodIdentifiers":{"AMOUNT_FOR_SUMBITTER_PROOF()":"347cf665","COST_ROUNDING_VALUE()":"e269cefe","JK_LABS_ADDRESS()":"eef18e17","MAX_FIELDS_METADATA_LENGTH()":"b382543f","METADATAS_COUNT()":"4d24a67f","PRICE_CURVE_UPDATE_INTERVAL()":"fd7971c9","SECONDS_IN_DAY()":"61a52a36","addressTotalCastVoteCount(address)":"dda54fcf","addressesThatHaveVoted(uint256)":"50c4b616","allProposalTotalVotes()":"50a5e524","anyoneCanSubmit()":"5358b80e","cancel()":"ea8a1af0","canceled()":"3f9942ff","castVote(uint256,uint256)":"2c0a3f89","comment(uint256,string)":"1805c523","commentIds(uint256)":"f5c36411","commentIsDeleted(uint256)":"ae66b8ad","comments(uint256)":"8ebb4c15","contestAddressTotalVotesCast(address)":"aec116b6","contestDeadline()":"262e59e9","contestStart()":"004114a8","costToPropose()":"6ed815ad","costToVote()":"51a41dec","creator()":"02d05d3f","currentPricePerVote()":"ca09a4c4","deleteComments(uint256[])":"ac67f801","deleteProposals(uint256[])":"f0a7db0a","deletedCommentIds(uint256)":"3fb57c92","deletedProposalIds(uint256)":"05846cae","getAllAddressesThatHaveVoted()":"2c39805f","getAllAuthorsOfDeletedProposals()":"cbdc27cb","getAllCommentIds()":"e11db9d8","getAllDeletedCommentIds()":"5cb718a1","getAllDeletedProposalIds()":"1242b737","getAllProposalAuthors()":"946369b5","getAllProposalIds()":"efa90d36","getComment(uint256)":"0800e300","getNumProposalsWithThisManyVotes(uint256)":"bc022c98","getOnlyProposalIdWithThisManyVotes(uint256)":"d576b81d","getProposal(uint256)":"c7f758a8","getProposalComments(uint256)":"c05f4104","getProposalsWithThisManyVotes(uint256)":"f82e54c0","getRankIndex(uint256)":"5c7107d8","getSortedRanks()":"6fd3636b","hashComment((address,uint256,uint256,string))":"409fd030","hashProposal((address,bool,string,(address),(address[],uint256),(address[],string[],uint256[])))":"d7989025","isOrIsBelowTiedRank(uint256)":"9174778c","jkLabsSplitDestination()":"102613d8","maxProposalCount()":"fb9bf8d4","metadataFieldsSchema()":"60ed97a9","multiple()":"437a8ae6","name()":"06fdde03","numAllowedProposalSubmissions()":"832009af","numSubmissions(address)":"75e509c5","officialRewardsModule()":"785ddfe5","percentageToCreator()":"edcd1be4","priceCurveType()":"4a2c96ec","prompt()":"7c65d711","proposalAddressVotes(uint256,address)":"6e4eb810","proposalAddressesHaveVoted(uint256)":"b323580d","proposalAuthors(uint256)":"0aa25e44","proposalComments(uint256,uint256)":"f61736f4","proposalIds(uint256)":"9b644a23","proposalIsDeleted(uint256)":"f79c0172","proposalVoteStructs(uint256)":"15dee7cd","proposalVotes(uint256)":"544ffc9c","proposals(uint256)":"013cf08b","propose((address,bool,string,(address),(address[],uint256),(address[],string[],uint256[])))":"9a04ede8","rankLimit()":"0414126a","setJkLabsSplitDestination(address)":"9b338aa0","setName(string)":"c47f0027","setOfficialRewardsModule(address)":"f4f3d7ec","setPrompt(string)":"b4ac024f","sortedRanks(uint256)":"325cc6d9","sortingEnabled()":"366ecf5b","state()":"c19d93fb","totalVotesCast()":"7de418d5","totalVotesCastIsZero()":"7d742925","validateProposalData((address,bool,string,(address),(address[],uint256),(address[],string[],uint256[])))":"d140d9f0","verifyProposer()":"476106c8","version()":"54fd4d50","voteStart()":"e031535b","votesToProposalIds(uint256,uint256)":"6d030621","votingDelay()":"3932abb1","votingPeriod()":"02a251a3"},"id":52}