{"abi":[{"type":"constructor","inputs":[{"name":"_constructorArgs","type":"tuple","internalType":"struct Governor.ConstructorArgs","components":[{"name":"name","type":"string","internalType":"string"},{"name":"prompt","type":"string","internalType":"string"},{"name":"intConstructorArgs","type":"tuple","internalType":"struct Governor.IntConstructorArgs","components":[{"name":"anyoneCanSubmit","type":"uint256","internalType":"uint256"},{"name":"contestStart","type":"uint256","internalType":"uint256"},{"name":"votingDelay","type":"uint256","internalType":"uint256"},{"name":"votingPeriod","type":"uint256","internalType":"uint256"},{"name":"numAllowedProposalSubmissions","type":"uint256","internalType":"uint256"},{"name":"maxProposalCount","type":"uint256","internalType":"uint256"},{"name":"sortingEnabled","type":"uint256","internalType":"uint256"},{"name":"rankLimit","type":"uint256","internalType":"uint256"},{"name":"percentageToCreator","type":"uint256","internalType":"uint256"},{"name":"costToVote","type":"uint256","internalType":"uint256"},{"name":"priceCurveType","type":"uint256","internalType":"uint256"},{"name":"multiple","type":"uint256","internalType":"uint256"}]},{"name":"jkLabsSplitDestination","type":"address","internalType":"address"},{"name":"metadataFieldsSchema","type":"string","internalType":"string"}]}],"stateMutability":"nonpayable"},{"type":"function","name":"AMOUNT_FOR_SUMBITTER_PROOF","inputs":[],"outputs":[{"name":"","type":"uint256","internalType":"uint256"}],"stateMutability":"view"},{"type":"function","name":"COST_ROUNDING_VALUE","inputs":[],"outputs":[{"name":"","type":"uint256","internalType":"uint256"}],"stateMutability":"view"},{"type":"function","name":"JK_LABS_ADDRESS","inputs":[],"outputs":[{"name":"","type":"address","internalType":"address"}],"stateMutability":"view"},{"type":"function","name":"MAX_FIELDS_METADATA_LENGTH","inputs":[],"outputs":[{"name":"","type":"uint256","internalType":"uint256"}],"stateMutability":"view"},{"type":"function","name":"METADATAS_COUNT","inputs":[],"outputs":[{"name":"","type":"uint256","internalType":"uint256"}],"stateMutability":"view"},{"type":"function","name":"PRICE_CURVE_UPDATE_INTERVAL","inputs":[],"outputs":[{"name":"","type":"uint256","internalType":"uint256"}],"stateMutability":"view"},{"type":"function","name":"SECONDS_IN_DAY","inputs":[],"outputs":[{"name":"","type":"uint256","internalType":"uint256"}],"stateMutability":"view"},{"type":"function","name":"addressTotalCastVoteCount","inputs":[{"name":"","type":"address","internalType":"address"}],"outputs":[{"name":"","type":"uint256","internalType":"uint256"}],"stateMutability":"view"},{"type":"function","name":"addressesThatHaveVoted","inputs":[{"name":"","type":"uint256","internalType":"uint256"}],"outputs":[{"name":"","type":"address","internalType":"address"}],"stateMutability":"view"},{"type":"function","name":"allProposalTotalVotes","inputs":[],"outputs":[{"name":"proposalIdsReturn","type":"uint256[]","internalType":"uint256[]"},{"name":"proposalVoteCountsArrayReturn","type":"uint256[]","internalType":"uint256[]"}],"stateMutability":"view"},{"type":"function","name":"anyoneCanSubmit","inputs":[],"outputs":[{"name":"","type":"uint256","internalType":"uint256"}],"stateMutability":"view"},{"type":"function","name":"cancel","inputs":[],"outputs":[],"stateMutability":"nonpayable"},{"type":"function","name":"canceled","inputs":[],"outputs":[{"name":"","type":"bool","internalType":"bool"}],"stateMutability":"view"},{"type":"function","name":"castVote","inputs":[{"name":"proposalId","type":"uint256","internalType":"uint256"},{"name":"numVotes","type":"uint256","internalType":"uint256"}],"outputs":[{"name":"","type":"uint256","internalType":"uint256"}],"stateMutability":"payable"},{"type":"function","name":"comment","inputs":[{"name":"proposalId","type":"uint256","internalType":"uint256"},{"name":"commentContent","type":"string","internalType":"string"}],"outputs":[{"name":"","type":"uint256","internalType":"uint256"}],"stateMutability":"nonpayable"},{"type":"function","name":"commentIds","inputs":[{"name":"","type":"uint256","internalType":"uint256"}],"outputs":[{"name":"","type":"uint256","internalType":"uint256"}],"stateMutability":"view"},{"type":"function","name":"commentIsDeleted","inputs":[{"name":"","type":"uint256","internalType":"uint256"}],"outputs":[{"name":"","type":"bool","internalType":"bool"}],"stateMutability":"view"},{"type":"function","name":"comments","inputs":[{"name":"","type":"uint256","internalType":"uint256"}],"outputs":[{"name":"author","type":"address","internalType":"address"},{"name":"timestamp","type":"uint256","internalType":"uint256"},{"name":"proposalId","type":"uint256","internalType":"uint256"},{"name":"commentContent","type":"string","internalType":"string"}],"stateMutability":"view"},{"type":"function","name":"contestAddressTotalVotesCast","inputs":[{"name":"userAddress","type":"address","internalType":"address"}],"outputs":[{"name":"userTotalVotesCast","type":"uint256","internalType":"uint256"}],"stateMutability":"view"},{"type":"function","name":"contestDeadline","inputs":[],"outputs":[{"name":"","type":"uint256","internalType":"uint256"}],"stateMutability":"view"},{"type":"function","name":"contestStart","inputs":[],"outputs":[{"name":"","type":"uint256","internalType":"uint256"}],"stateMutability":"view"},{"type":"function","name":"costToVote","inputs":[],"outputs":[{"name":"","type":"uint256","internalType":"uint256"}],"stateMutability":"view"},{"type":"function","name":"creator","inputs":[],"outputs":[{"name":"","type":"address","internalType":"address"}],"stateMutability":"view"},{"type":"function","name":"currentPricePerVote","inputs":[],"outputs":[{"name":"","type":"uint256","internalType":"uint256"}],"stateMutability":"view"},{"type":"function","name":"deleteComments","inputs":[{"name":"commentIdsParam","type":"uint256[]","internalType":"uint256[]"}],"outputs":[],"stateMutability":"nonpayable"},{"type":"function","name":"deleteProposals","inputs":[{"name":"proposalIdsToDelete","type":"uint256[]","internalType":"uint256[]"}],"outputs":[],"stateMutability":"nonpayable"},{"type":"function","name":"deletedCommentIds","inputs":[{"name":"","type":"uint256","internalType":"uint256"}],"outputs":[{"name":"","type":"uint256","internalType":"uint256"}],"stateMutability":"view"},{"type":"function","name":"deletedProposalIds","inputs":[{"name":"","type":"uint256","internalType":"uint256"}],"outputs":[{"name":"","type":"uint256","internalType":"uint256"}],"stateMutability":"view"},{"type":"function","name":"getAllAddressesThatHaveVoted","inputs":[],"outputs":[{"name":"","type":"address[]","internalType":"address[]"}],"stateMutability":"view"},{"type":"function","name":"getAllAuthorsOfDeletedProposals","inputs":[],"outputs":[{"name":"","type":"address[]","internalType":"address[]"}],"stateMutability":"view"},{"type":"function","name":"getAllCommentIds","inputs":[],"outputs":[{"name":"","type":"uint256[]","internalType":"uint256[]"}],"stateMutability":"view"},{"type":"function","name":"getAllDeletedCommentIds","inputs":[],"outputs":[{"name":"","type":"uint256[]","internalType":"uint256[]"}],"stateMutability":"view"},{"type":"function","name":"getAllDeletedProposalIds","inputs":[],"outputs":[{"name":"","type":"uint256[]","internalType":"uint256[]"}],"stateMutability":"view"},{"type":"function","name":"getAllProposalAuthors","inputs":[],"outputs":[{"name":"","type":"address[]","internalType":"address[]"}],"stateMutability":"view"},{"type":"function","name":"getAllProposalIds","inputs":[],"outputs":[{"name":"","type":"uint256[]","internalType":"uint256[]"}],"stateMutability":"view"},{"type":"function","name":"getComment","inputs":[{"name":"commentId","type":"uint256","internalType":"uint256"}],"outputs":[{"name":"","type":"tuple","internalType":"struct GovernorEngagement.CommentCore","components":[{"name":"author","type":"address","internalType":"address"},{"name":"timestamp","type":"uint256","internalType":"uint256"},{"name":"proposalId","type":"uint256","internalType":"uint256"},{"name":"commentContent","type":"string","internalType":"string"}]}],"stateMutability":"view"},{"type":"function","name":"getNumProposalsWithThisManyVotes","inputs":[{"name":"votes","type":"uint256","internalType":"uint256"}],"outputs":[{"name":"count","type":"uint256","internalType":"uint256"}],"stateMutability":"view"},{"type":"function","name":"getOnlyProposalIdWithThisManyVotes","inputs":[{"name":"votes","type":"uint256","internalType":"uint256"}],"outputs":[{"name":"proposalId","type":"uint256","internalType":"uint256"}],"stateMutability":"view"},{"type":"function","name":"getProposal","inputs":[{"name":"proposalId","type":"uint256","internalType":"uint256"}],"outputs":[{"name":"","type":"tuple","internalType":"struct Governor.ProposalCore","components":[{"name":"author","type":"address","internalType":"address"},{"name":"exists","type":"bool","internalType":"bool"},{"name":"description","type":"string","internalType":"string"},{"name":"targetMetadata","type":"tuple","internalType":"struct Governor.TargetMetadata","components":[{"name":"targetAddress","type":"address","internalType":"address"}]},{"name":"safeMetadata","type":"tuple","internalType":"struct Governor.SafeMetadata","components":[{"name":"signers","type":"address[]","internalType":"address[]"},{"name":"threshold","type":"uint256","internalType":"uint256"}]},{"name":"fieldsMetadata","type":"tuple","internalType":"struct Governor.FieldsMetadata","components":[{"name":"addressArray","type":"address[]","internalType":"address[]"},{"name":"stringArray","type":"string[]","internalType":"string[]"},{"name":"uintArray","type":"uint256[]","internalType":"uint256[]"}]}]}],"stateMutability":"view"},{"type":"function","name":"getProposalComments","inputs":[{"name":"proposalId","type":"uint256","internalType":"uint256"}],"outputs":[{"name":"","type":"uint256[]","internalType":"uint256[]"}],"stateMutability":"view"},{"type":"function","name":"getProposalsWithThisManyVotes","inputs":[{"name":"votes","type":"uint256","internalType":"uint256"}],"outputs":[{"name":"proposalsWithThisManyVotes","type":"uint256[]","internalType":"uint256[]"}],"stateMutability":"view"},{"type":"function","name":"getRankIndex","inputs":[{"name":"rank","type":"uint256","internalType":"uint256"}],"outputs":[{"name":"rankIndex","type":"uint256","internalType":"uint256"}],"stateMutability":"view"},{"type":"function","name":"getSortedRanks","inputs":[],"outputs":[{"name":"sortedRanksArray","type":"uint256[]","internalType":"uint256[]"}],"stateMutability":"view"},{"type":"function","name":"hashComment","inputs":[{"name":"commentObj","type":"tuple","internalType":"struct GovernorEngagement.CommentCore","components":[{"name":"author","type":"address","internalType":"address"},{"name":"timestamp","type":"uint256","internalType":"uint256"},{"name":"proposalId","type":"uint256","internalType":"uint256"},{"name":"commentContent","type":"string","internalType":"string"}]}],"outputs":[{"name":"","type":"uint256","internalType":"uint256"}],"stateMutability":"pure"},{"type":"function","name":"hashProposal","inputs":[{"name":"proposal","type":"tuple","internalType":"struct Governor.ProposalCore","components":[{"name":"author","type":"address","internalType":"address"},{"name":"exists","type":"bool","internalType":"bool"},{"name":"description","type":"string","internalType":"string"},{"name":"targetMetadata","type":"tuple","internalType":"struct Governor.TargetMetadata","components":[{"name":"targetAddress","type":"address","internalType":"address"}]},{"name":"safeMetadata","type":"tuple","internalType":"struct Governor.SafeMetadata","components":[{"name":"signers","type":"address[]","internalType":"address[]"},{"name":"threshold","type":"uint256","internalType":"uint256"}]},{"name":"fieldsMetadata","type":"tuple","internalType":"struct Governor.FieldsMetadata","components":[{"name":"addressArray","type":"address[]","internalType":"address[]"},{"name":"stringArray","type":"string[]","internalType":"string[]"},{"name":"uintArray","type":"uint256[]","internalType":"uint256[]"}]}]}],"outputs":[{"name":"","type":"uint256","internalType":"uint256"}],"stateMutability":"pure"},{"type":"function","name":"isOrIsBelowTiedRank","inputs":[{"name":"idx","type":"uint256","internalType":"uint256"}],"outputs":[{"name":"atOrBelowTiedRank","type":"bool","internalType":"bool"}],"stateMutability":"view"},{"type":"function","name":"jkLabsSplitDestination","inputs":[],"outputs":[{"name":"","type":"address","internalType":"address"}],"stateMutability":"view"},{"type":"function","name":"maxProposalCount","inputs":[],"outputs":[{"name":"","type":"uint256","internalType":"uint256"}],"stateMutability":"view"},{"type":"function","name":"metadataFieldsSchema","inputs":[],"outputs":[{"name":"","type":"string","internalType":"string"}],"stateMutability":"view"},{"type":"function","name":"multiple","inputs":[],"outputs":[{"name":"","type":"uint256","internalType":"uint256"}],"stateMutability":"view"},{"type":"function","name":"name","inputs":[],"outputs":[{"name":"","type":"string","internalType":"string"}],"stateMutability":"view"},{"type":"function","name":"numAllowedProposalSubmissions","inputs":[],"outputs":[{"name":"","type":"uint256","internalType":"uint256"}],"stateMutability":"view"},{"type":"function","name":"numSubmissions","inputs":[{"name":"","type":"address","internalType":"address"}],"outputs":[{"name":"","type":"uint256","internalType":"uint256"}],"stateMutability":"view"},{"type":"function","name":"officialRewardsModule","inputs":[],"outputs":[{"name":"","type":"address","internalType":"address"}],"stateMutability":"view"},{"type":"function","name":"percentageToCreator","inputs":[],"outputs":[{"name":"","type":"uint256","internalType":"uint256"}],"stateMutability":"view"},{"type":"function","name":"priceCurveType","inputs":[],"outputs":[{"name":"","type":"uint256","internalType":"uint256"}],"stateMutability":"view"},{"type":"function","name":"prompt","inputs":[],"outputs":[{"name":"","type":"string","internalType":"string"}],"stateMutability":"view"},{"type":"function","name":"proposalAddressVotes","inputs":[{"name":"proposalId","type":"uint256","internalType":"uint256"},{"name":"userAddress","type":"address","internalType":"address"}],"outputs":[{"name":"voteCount","type":"uint256","internalType":"uint256"}],"stateMutability":"view"},{"type":"function","name":"proposalAddressesHaveVoted","inputs":[{"name":"proposalId","type":"uint256","internalType":"uint256"}],"outputs":[{"name":"","type":"address[]","internalType":"address[]"}],"stateMutability":"view"},{"type":"function","name":"proposalAuthors","inputs":[{"name":"","type":"uint256","internalType":"uint256"}],"outputs":[{"name":"","type":"address","internalType":"address"}],"stateMutability":"view"},{"type":"function","name":"proposalComments","inputs":[{"name":"","type":"uint256","internalType":"uint256"},{"name":"","type":"uint256","internalType":"uint256"}],"outputs":[{"name":"","type":"uint256","internalType":"uint256"}],"stateMutability":"view"},{"type":"function","name":"proposalIds","inputs":[{"name":"","type":"uint256","internalType":"uint256"}],"outputs":[{"name":"","type":"uint256","internalType":"uint256"}],"stateMutability":"view"},{"type":"function","name":"proposalIsDeleted","inputs":[{"name":"","type":"uint256","internalType":"uint256"}],"outputs":[{"name":"","type":"bool","internalType":"bool"}],"stateMutability":"view"},{"type":"function","name":"proposalVoteStructs","inputs":[{"name":"","type":"uint256","internalType":"uint256"}],"outputs":[{"name":"proposalVoteCount","type":"uint256","internalType":"uint256"}],"stateMutability":"view"},{"type":"function","name":"proposalVotes","inputs":[{"name":"proposalId","type":"uint256","internalType":"uint256"}],"outputs":[{"name":"voteCount","type":"uint256","internalType":"uint256"}],"stateMutability":"view"},{"type":"function","name":"proposals","inputs":[{"name":"","type":"uint256","internalType":"uint256"}],"outputs":[{"name":"author","type":"address","internalType":"address"},{"name":"exists","type":"bool","internalType":"bool"},{"name":"description","type":"string","internalType":"string"},{"name":"targetMetadata","type":"tuple","internalType":"struct Governor.TargetMetadata","components":[{"name":"targetAddress","type":"address","internalType":"address"}]},{"name":"safeMetadata","type":"tuple","internalType":"struct Governor.SafeMetadata","components":[{"name":"signers","type":"address[]","internalType":"address[]"},{"name":"threshold","type":"uint256","internalType":"uint256"}]},{"name":"fieldsMetadata","type":"tuple","internalType":"struct Governor.FieldsMetadata","components":[{"name":"addressArray","type":"address[]","internalType":"address[]"},{"name":"stringArray","type":"string[]","internalType":"string[]"},{"name":"uintArray","type":"uint256[]","internalType":"uint256[]"}]}],"stateMutability":"view"},{"type":"function","name":"propose","inputs":[{"name":"proposal","type":"tuple","internalType":"struct Governor.ProposalCore","components":[{"name":"author","type":"address","internalType":"address"},{"name":"exists","type":"bool","internalType":"bool"},{"name":"description","type":"string","internalType":"string"},{"name":"targetMetadata","type":"tuple","internalType":"struct Governor.TargetMetadata","components":[{"name":"targetAddress","type":"address","internalType":"address"}]},{"name":"safeMetadata","type":"tuple","internalType":"struct Governor.SafeMetadata","components":[{"name":"signers","type":"address[]","internalType":"address[]"},{"name":"threshold","type":"uint256","internalType":"uint256"}]},{"name":"fieldsMetadata","type":"tuple","internalType":"struct Governor.FieldsMetadata","components":[{"name":"addressArray","type":"address[]","internalType":"address[]"},{"name":"stringArray","type":"string[]","internalType":"string[]"},{"name":"uintArray","type":"uint256[]","internalType":"uint256[]"}]}]}],"outputs":[{"name":"","type":"uint256","internalType":"uint256"}],"stateMutability":"payable"},{"type":"function","name":"rankLimit","inputs":[],"outputs":[{"name":"","type":"uint256","internalType":"uint256"}],"stateMutability":"view"},{"type":"function","name":"setJkLabsSplitDestination","inputs":[{"name":"newJkLabsSplitDestination","type":"address","internalType":"address"}],"outputs":[],"stateMutability":"nonpayable"},{"type":"function","name":"setName","inputs":[{"name":"newName","type":"string","internalType":"string"}],"outputs":[{"name":"","type":"string","internalType":"string"}],"stateMutability":"nonpayable"},{"type":"function","name":"setOfficialRewardsModule","inputs":[{"name":"officialRewardsModule_","type":"address","internalType":"address"}],"outputs":[],"stateMutability":"nonpayable"},{"type":"function","name":"setPrompt","inputs":[{"name":"newPrompt","type":"string","internalType":"string"}],"outputs":[{"name":"","type":"string","internalType":"string"}],"stateMutability":"nonpayable"},{"type":"function","name":"sortedRanks","inputs":[{"name":"","type":"uint256","internalType":"uint256"}],"outputs":[{"name":"","type":"uint256","internalType":"uint256"}],"stateMutability":"view"},{"type":"function","name":"sortingEnabled","inputs":[],"outputs":[{"name":"","type":"uint256","internalType":"uint256"}],"stateMutability":"view"},{"type":"function","name":"state","inputs":[],"outputs":[{"name":"","type":"uint8","internalType":"enum Governor.ContestState"}],"stateMutability":"view"},{"type":"function","name":"totalVotesCast","inputs":[],"outputs":[{"name":"","type":"uint256","internalType":"uint256"}],"stateMutability":"view"},{"type":"function","name":"totalVotesCastIsZero","inputs":[],"outputs":[{"name":"totalVotesCastZero","type":"bool","internalType":"bool"}],"stateMutability":"view"},{"type":"function","name":"validateProposalData","inputs":[{"name":"proposal","type":"tuple","internalType":"struct Governor.ProposalCore","components":[{"name":"author","type":"address","internalType":"address"},{"name":"exists","type":"bool","internalType":"bool"},{"name":"description","type":"string","internalType":"string"},{"name":"targetMetadata","type":"tuple","internalType":"struct Governor.TargetMetadata","components":[{"name":"targetAddress","type":"address","internalType":"address"}]},{"name":"safeMetadata","type":"tuple","internalType":"struct Governor.SafeMetadata","components":[{"name":"signers","type":"address[]","internalType":"address[]"},{"name":"threshold","type":"uint256","internalType":"uint256"}]},{"name":"fieldsMetadata","type":"tuple","internalType":"struct Governor.FieldsMetadata","components":[{"name":"addressArray","type":"address[]","internalType":"address[]"},{"name":"stringArray","type":"string[]","internalType":"string[]"},{"name":"uintArray","type":"uint256[]","internalType":"uint256[]"}]}]}],"outputs":[],"stateMutability":"view"},{"type":"function","name":"verifyProposer","inputs":[],"outputs":[],"stateMutability":"view"},{"type":"function","name":"version","inputs":[],"outputs":[{"name":"","type":"string","internalType":"string"}],"stateMutability":"pure"},{"type":"function","name":"voteStart","inputs":[],"outputs":[{"name":"","type":"uint256","internalType":"uint256"}],"stateMutability":"view"},{"type":"function","name":"votesToProposalIds","inputs":[{"name":"","type":"uint256","internalType":"uint256"},{"name":"","type":"uint256","internalType":"uint256"}],"outputs":[{"name":"","type":"uint256","internalType":"uint256"}],"stateMutability":"view"},{"type":"function","name":"votingDelay","inputs":[],"outputs":[{"name":"","type":"uint256","internalType":"uint256"}],"stateMutability":"view"},{"type":"function","name":"votingPeriod","inputs":[],"outputs":[{"name":"","type":"uint256","internalType":"uint256"}],"stateMutability":"view"},{"type":"event","name":"CommentCreated","inputs":[{"name":"commentId","type":"uint256","indexed":false,"internalType":"uint256"}],"anonymous":false},{"type":"event","name":"CommentsDeleted","inputs":[{"name":"commentIds","type":"uint256[]","indexed":false,"internalType":"uint256[]"}],"anonymous":false},{"type":"event","name":"ContestCanceled","inputs":[],"anonymous":false},{"type":"event","name":"CreatorPaymentReleased","inputs":[{"name":"to","type":"address","indexed":false,"internalType":"address"},{"name":"amount","type":"uint256","indexed":false,"internalType":"uint256"}],"anonymous":false},{"type":"event","name":"JkLabsPaymentReleased","inputs":[{"name":"to","type":"address","indexed":false,"internalType":"address"},{"name":"amount","type":"uint256","indexed":false,"internalType":"uint256"}],"anonymous":false},{"type":"event","name":"JokeraceCreated","inputs":[{"name":"version","type":"string","indexed":false,"internalType":"string"},{"name":"name","type":"string","indexed":false,"internalType":"string"},{"name":"prompt","type":"string","indexed":false,"internalType":"string"},{"name":"creator","type":"address","indexed":false,"internalType":"address"},{"name":"contestStart","type":"uint256","indexed":false,"internalType":"uint256"},{"name":"votingDelay","type":"uint256","indexed":false,"internalType":"uint256"},{"name":"votingPeriod","type":"uint256","indexed":false,"internalType":"uint256"}],"anonymous":false},{"type":"event","name":"OfficialRewardsModuleSet","inputs":[{"name":"oldOfficialRewardsModule","type":"address","indexed":false,"internalType":"address"},{"name":"newOfficialRewardsModule","type":"address","indexed":false,"internalType":"address"}],"anonymous":false},{"type":"event","name":"ProposalCreated","inputs":[{"name":"proposalId","type":"uint256","indexed":false,"internalType":"uint256"},{"name":"proposer","type":"address","indexed":false,"internalType":"address"},{"name":"proposalDescription","type":"string","indexed":false,"internalType":"string"}],"anonymous":false},{"type":"event","name":"ProposalsDeleted","inputs":[{"name":"proposalIds","type":"uint256[]","indexed":false,"internalType":"uint256[]"}],"anonymous":false},{"type":"event","name":"VoteCast","inputs":[{"name":"voter","type":"address","indexed":true,"internalType":"address"},{"name":"proposalId","type":"uint256","indexed":false,"internalType":"uint256"},{"name":"numVotes","type":"uint256","indexed":false,"internalType":"uint256"}],"anonymous":false},{"type":"error","name":"AddressFieldMetadataArrayTooLong","inputs":[]},{"type":"error","name":"AuthorIsNotSender","inputs":[{"name":"author","type":"address","internalType":"address"},{"name":"sender","type":"address","internalType":"address"}]},{"type":"error","name":"CanOnlyCancelBeforeFirstVote","inputs":[]},{"type":"error","name":"CanOnlyDeleteWhenQueued","inputs":[]},{"type":"error","name":"CannotCommentWhenCompletedOrCanceled","inputs":[]},{"type":"error","name":"CannotDeleteWhenCompletedOrCanceled","inputs":[]},{"type":"error","name":"CannotSetWhenCompletedOrCanceled","inputs":[]},{"type":"error","name":"CannotUpdateWhenCompletedOrCanceled","inputs":[]},{"type":"error","name":"CannotVoteLessThanOneVoteInPayPerVote","inputs":[]},{"type":"error","name":"CannotVoteOnDeletedProposal","inputs":[]},{"type":"error","name":"ContestAlreadyCanceled","inputs":[]},{"type":"error","name":"ContestMustBeActiveToGetCurrentVotePrice","inputs":[]},{"type":"error","name":"ContestMustBeActiveToVote","inputs":[]},{"type":"error","name":"ContestMustBeQueuedToPropose","inputs":[]},{"type":"error","name":"ContestSubmissionLimitReached","inputs":[{"name":"maxProposalCount","type":"uint256","internalType":"uint256"}]},{"type":"error","name":"DuplicateSubmission","inputs":[{"name":"proposalId","type":"uint256","internalType":"uint256"}]},{"type":"error","name":"EmptyProposalDescription","inputs":[]},{"type":"error","name":"IncorrectCostSent","inputs":[{"name":"msgValue","type":"uint256","internalType":"uint256"},{"name":"costToVote","type":"uint256","internalType":"uint256"}]},{"type":"error","name":"IndexHasNotBeenPopulated","inputs":[]},{"type":"error","name":"MoreThanOneProposalWithThisManyVotes","inputs":[]},{"type":"error","name":"NeedAtLeastOneVoteToVote","inputs":[]},{"type":"error","name":"NotEnoughVotesLeft","inputs":[]},{"type":"error","name":"OfficialModuleMustBeSetToEnter","inputs":[]},{"type":"error","name":"OfficialRewardsModuleCanOnlyBeSetOnce","inputs":[]},{"type":"error","name":"OfficialRewardsModuleMustPointToThisContest","inputs":[]},{"type":"error","name":"OnlyCreatorCanAmend","inputs":[]},{"type":"error","name":"OnlyCreatorCanSetName","inputs":[]},{"type":"error","name":"OnlyCreatorCanSetPrompt","inputs":[]},{"type":"error","name":"OnlyCreatorCanSetRewardsModule","inputs":[]},{"type":"error","name":"OnlyCreatorCanSubmit","inputs":[]},{"type":"error","name":"OnlyCreatorOrAuthorCanDeleteComments","inputs":[{"name":"failedToDeleteCommentId","type":"uint256","internalType":"uint256"}]},{"type":"error","name":"OnlyCreatorOrEntrantCanDelete","inputs":[]},{"type":"error","name":"OnlyCreatorOrJkLabsCanCancel","inputs":[]},{"type":"error","name":"OnlyJkLabsCanAmend","inputs":[]},{"type":"error","name":"PRBMath_MulDiv18_Overflow","inputs":[{"name":"x","type":"uint256","internalType":"uint256"},{"name":"y","type":"uint256","internalType":"uint256"}]},{"type":"error","name":"PRBMath_MulDiv_Overflow","inputs":[{"name":"x","type":"uint256","internalType":"uint256"},{"name":"y","type":"uint256","internalType":"uint256"},{"name":"denominator","type":"uint256","internalType":"uint256"}]},{"type":"error","name":"PRBMath_UD60x18_Exp2_InputTooBig","inputs":[{"name":"x","type":"uint256","internalType":"UD60x18"}]},{"type":"error","name":"PeriodsOutsideBounds","inputs":[]},{"type":"error","name":"RankCannotBeZero","inputs":[]},{"type":"error","name":"RankIsNotInSortedRanks","inputs":[]},{"type":"error","name":"RankLimitCannotBeZero","inputs":[]},{"type":"error","name":"SenderSubmissionLimitReached","inputs":[{"name":"numAllowedProposalSubmissions","type":"uint256","internalType":"uint256"}]},{"type":"error","name":"StringFieldMetadataArrayTooLong","inputs":[]},{"type":"error","name":"UintFieldMetadataArrayTooLong","inputs":[]},{"type":"error","name":"UnexpectedMetadata","inputs":[{"name":"unexpectedMetadata","type":"uint8","internalType":"enum Governor.Metadatas"}]},{"type":"error","name":"ZeroSignersInSafeMetadata","inputs":[]},{"type":"error","name":"ZeroThresholdInSafeMetadata","inputs":[]}],"bytecode":{"object":"0x60806040523480156200001157600080fd5b5060405162005a9838038062005a988339810160408190526200003491620003e1565b604081015160c081015160e090910151600091909155600155805181906003906200006090826200055c565b5060208101516004906200007590826200055c565b50604081810151805160065560058054336001600160a01b031991821617909155602082015160075591810151600855606080820151600955608080830151600a5560a0830151600b55610100830151600c55610120830151600d55610140830151600e5561016090920151600f55830151601080549093166001600160a01b03909116179091558101516011906200010f90826200055c565b506040805180820182526004808252630362e31360e41b602083015260055460075460085460095495517f9a9bca21e4e51607db64fbdbcd7b2284a909c6a8969821f0d161efbdcae70160966200017d969560039590946001600160a01b03909116939092909190620006ad565b60405180910390a1506200019662015180601e6200073b565b8160400151604001511180620001b6575062015180816040015160600151115b15620001d5576040516341b2f4db60e01b815260040160405180910390fd5b806040015160e00151600003620001ff5760405163769f473560e11b815260040160405180910390fd5b5062000767565b634e487b7160e01b600052604160045260246000fd5b60405161018081016001600160401b038111828210171562000242576200024262000206565b60405290565b60405160a081016001600160401b038111828210171562000242576200024262000206565b60005b838110156200028a57818101518382015260200162000270565b50506000910152565b600082601f830112620002a557600080fd5b81516001600160401b0380821115620002c257620002c262000206565b604051601f8301601f19908116603f01168101908282118183101715620002ed57620002ed62000206565b816040528381528660208588010111156200030757600080fd5b6200031a8460208301602089016200026d565b9695505050505050565b600061018082840312156200033857600080fd5b620003426200021c565b9050815181526020820151602082015260408201516040820152606082015160608201526080820151608082015260a082015160a082015260c082015160c082015260e082015160e082015261010080830151818301525061012080830151818301525061014080830151818301525061016080830151818301525092915050565b80516001600160a01b0381168114620003dc57600080fd5b919050565b600060208284031215620003f457600080fd5b81516001600160401b03808211156200040c57600080fd5b9083019061020082860312156200042257600080fd5b6200042c62000248565b8251828111156200043c57600080fd5b6200044a8782860162000293565b8252506020830151828111156200046057600080fd5b6200046e8782860162000293565b60208301525062000483866040850162000324565b6040820152620004976101c08401620003c4565b60608201526101e083015182811115620004b057600080fd5b620004be8782860162000293565b60808301525095945050505050565b600181811c90821680620004e257607f821691505b6020821081036200050357634e487b7160e01b600052602260045260246000fd5b50919050565b601f8211156200055757600081815260208120601f850160051c81016020861015620005325750805b601f850160051c820191505b8181101562000553578281556001016200053e565b5050505b505050565b81516001600160401b0381111562000578576200057862000206565b6200059081620005898454620004cd565b8462000509565b602080601f831160018114620005c85760008415620005af5750858301515b600019600386901b1c1916600185901b17855562000553565b600085815260208120601f198616915b82811015620005f957888601518255948401946001909101908401620005d8565b5085821015620006185787850151600019600388901b60f8161c191681555b5050505050600190811b01905550565b600081546200063781620004cd565b8085526020600183811680156200065757600181146200067257620006a2565b60ff1985168884015283151560051b880183019550620006a2565b866000528260002060005b858110156200069a5781548a82018601529083019084016200067d565b890184019650505b505050505092915050565b60e08152600088518060e0840152610100620006d08282860160208e016200026d565b601f19601f8301168401915080848303016020850152620006f48183018b62000628565b91505082810360408401526200070b818962000628565b6001600160a01b039790971660608401525050608081019390935260a083019190915260c0909101529392505050565b80820281158282048414176200076157634e487b7160e01b600052601160045260246000fd5b92915050565b61532180620007776000396000f3fe60806040526004361061049e5760003560e01c80637c65d71111610260578063ca09a4c411610144578063edcd1be4116100c1578063f5c3641111610085578063f5c3641114610e2f578063f61736f414610e4f578063f79c017214610e6f578063f82e54c014610e9f578063fb9bf8d414610ebf578063fd7971c914610ed557600080fd5b8063edcd1be414610d9c578063eef18e1714610db2578063efa90d3614610dda578063f0a7db0a14610def578063f4f3d7ec14610e0f57600080fd5b8063dda54fcf11610108578063dda54fcf14610d17578063e031535b14610d44578063e11db9d814610d59578063e269cefe14610d6e578063ea8a1af014610d8757600080fd5b8063ca09a4c414610c8d578063cbdc27cb14610ca2578063d140d9f014610cb7578063d576b81d14610cd7578063d798902514610cf757600080fd5b8063ac67f801116101dd578063b4ac024f116101a1578063b4ac024f14610bb1578063bc022c9814610bd1578063c05f410414610bfe578063c19d93fb14610c1e578063c47f002714610c40578063c7f758a814610c6057600080fd5b8063ac67f80114610af6578063ae66b8ad14610b16578063aec116b614610b46578063b323580d14610b7c578063b382543f14610b9c57600080fd5b80639174778c116102245780639174778c14610a6e578063946369b514610a8e5780639a04ede814610aa35780639b338aa014610ab65780639b644a2314610ad657600080fd5b80637c65d711146109e75780637d742925146109fc5780637de418d514610a12578063832009af14610a285780638ebb4c1514610a3e57600080fd5b80633fb57c9211610387578063544ffc9c1161030457806361a52a36116102c857806361a52a36146109075780636d0306211461091e5780636e4eb8101461093e5780636fd3636b1461098557806375e509c51461099a578063785ddfe5146109c757600080fd5b8063544ffc9c1461086357806354fd4d50146108905780635c7107d8146108bd5780635cb718a1146108dd57806360ed97a9146108f257600080fd5b80634d24a67f1161034b5780634d24a67f146107df57806350a5e524146107f457806350c4b6161461081757806351a41dec146108375780635358b80e1461084d57600080fd5b80633fb57c921461075c578063409fd0301461077c578063437a8ae61461079c578063476106c8146107b25780634a2c96ec146107c957600080fd5b80631242b737116104205780632c39805f116103e45780632c39805f146106a8578063325cc6d9146106ca578063347cf665146106ea578063366ecf5b146107065780633932abb11461071c5780633f9942ff1461073257600080fd5b80631242b7371461061157806315dee7cd146106335780631805c52314610660578063262e59e9146106805780632c0a3f891461069557600080fd5b806305846cae1161046757806305846cae1461056257806306fdde03146105825780630800e300146105a45780630aa25e44146105d1578063102613d8146105f157600080fd5b80624114a8146104a3578063013cf08b146104cc57806302a251a3146104fe57806302d05d3f146105145780630414126a1461054c575b600080fd5b3480156104af57600080fd5b506104b960075481565b6040519081526020015b60405180910390f35b3480156104d857600080fd5b506104ec6104e7366004614524565b610eea565b6040516104c3969594939291906146b4565b34801561050a57600080fd5b506104b960095481565b34801561052057600080fd5b50600554610534906001600160a01b031681565b6040516001600160a01b0390911681526020016104c3565b34801561055857600080fd5b506104b960015481565b34801561056e57600080fd5b506104b961057d366004614524565b6111d5565b34801561058e57600080fd5b506105976111f6565b6040516104c3919061470e565b3480156105b057600080fd5b506105c46105bf366004614524565b611284565b6040516104c39190614721565b3480156105dd57600080fd5b506105346105ec366004614524565b611398565b3480156105fd57600080fd5b50601054610534906001600160a01b031681565b34801561061d57600080fd5b506106266113c2565b6040516104c39190614762565b34801561063f57600080fd5b506104b961064e366004614524565b601c6020526000908152604090205481565b34801561066c57600080fd5b506104b961067b366004614874565b61141a565b34801561068c57600080fd5b506104b9611597565b6104b96106a33660046148ba565b6115b3565b3480156106b457600080fd5b506106bd611610565b6040516104c391906148dc565b3480156106d657600080fd5b506104b96106e5366004614524565b611671565b3480156106f657600080fd5b506104b9678ac7230489e8000081565b34801561071257600080fd5b506104b960005481565b34801561072857600080fd5b506104b960085481565b34801561073e57600080fd5b5060155461074c9060ff1681565b60405190151581526020016104c3565b34801561076857600080fd5b506104b9610777366004614524565b611681565b34801561078857600080fd5b506104b961079736600461494e565b611691565b3480156107a857600080fd5b506104b9600f5481565b3480156107be57600080fd5b506107c76116c2565b005b3480156107d557600080fd5b506104b9600e5481565b3480156107eb57600080fd5b506104b9611700565b34801561080057600080fd5b5061080961170f565b6040516104c39291906149f9565b34801561082357600080fd5b50610534610832366004614524565b6117da565b34801561084357600080fd5b506104b9600d5481565b34801561085957600080fd5b506104b960065481565b34801561086f57600080fd5b506104b961087e366004614524565b6000908152601c602052604090205490565b34801561089c57600080fd5b506040805180820190915260048152630362e31360e41b6020820152610597565b3480156108c957600080fd5b506104b96108d8366004614524565b6117ea565b3480156108e957600080fd5b506106266118f1565b3480156108fe57600080fd5b50610597611947565b34801561091357600080fd5b506104b96201518081565b34801561092a57600080fd5b506104b96109393660046148ba565b611954565b34801561094a57600080fd5b506104b9610959366004614a27565b6000828152601c602090815260408083206001600160a01b038516845260020190915290205492915050565b34801561099157600080fd5b50610626611985565b3480156109a657600080fd5b506104b96109b5366004614a57565b60176020526000908152604090205481565b3480156109d357600080fd5b50601e54610534906001600160a01b031681565b3480156109f357600080fd5b506105976119db565b348015610a0857600080fd5b50601a541561074c565b348015610a1e57600080fd5b506104b9601a5481565b348015610a3457600080fd5b506104b9600a5481565b348015610a4a57600080fd5b50610a5e610a59366004614524565b6119e8565b6040516104c39493929190614a74565b348015610a7a57600080fd5b5061074c610a89366004614524565b611aa5565b348015610a9a57600080fd5b506106bd611b4b565b6104b9610ab1366004614aab565b611bab565b348015610ac257600080fd5b506107c7610ad1366004614a57565b611c2f565b348015610ae257600080fd5b506104b9610af1366004614524565b611ce2565b348015610b0257600080fd5b506107c7610b11366004614b73565b611cf2565b348015610b2257600080fd5b5061074c610b31366004614524565b60236020526000908152604090205460ff1681565b348015610b5257600080fd5b506104b9610b61366004614a57565b6001600160a01b03166000908152601b602052604090205490565b348015610b8857600080fd5b506106bd610b97366004614524565b611e88565b348015610ba857600080fd5b506104b9600a81565b348015610bbd57600080fd5b50610597610bcc366004614ba7565b611efa565b348015610bdd57600080fd5b506104b9610bec366004614524565b6000908152601d602052604090205490565b348015610c0a57600080fd5b50610626610c19366004614524565b611f98565b348015610c2a57600080fd5b50610c33611ffa565b6040516104c39190614bf1565b348015610c4c57600080fd5b50610597610c5b366004614ba7565b61204b565b348015610c6c57600080fd5b50610c80610c7b366004614524565b6120e2565b6040516104c39190614c0b565b348015610c9957600080fd5b506104b9612402565b348015610cae57600080fd5b506106bd612579565b348015610cc357600080fd5b506107c7610cd2366004614f8a565b6126a9565b348015610ce357600080fd5b506104b9610cf2366004614524565b612890565b348015610d0357600080fd5b506104b9610d12366004614f8a565b6128f0565b348015610d2357600080fd5b506104b9610d32366004614a57565b601b6020526000908152604090205481565b348015610d5057600080fd5b506104b9612903565b348015610d6557600080fd5b50610626612915565b348015610d7a57600080fd5b506104b964e8d4a5100081565b348015610d9357600080fd5b506107c761296b565b348015610da857600080fd5b506104b9600c5481565b348015610dbe57600080fd5b5061053473dc652c746a8f85e18ce632d97c6118e8a52fa73881565b348015610de657600080fd5b50610626612a38565b348015610dfb57600080fd5b506107c7610e0a366004614fbe565b612a8e565b348015610e1b57600080fd5b506107c7610e2a366004614a57565b612bec565b348015610e3b57600080fd5b506104b9610e4a366004614524565b612d2e565b348015610e5b57600080fd5b506104b9610e6a3660046148ba565b612d3e565b348015610e7b57600080fd5b5061074c610e8a366004614524565b60146020526000908152604090205460ff1681565b348015610eab57600080fd5b50610626610eba366004614524565b612d5a565b348015610ecb57600080fd5b506104b9600b5481565b348015610ee157600080fd5b506104b9603c81565b601660205260009081526040902080546001820180546001600160a01b03831693600160a01b90930460ff16929190610f2290615032565b80601f0160208091040260200160405190810160405280929190818152602001828054610f4e90615032565b8015610f9b5780601f10610f7057610100808354040283529160200191610f9b565b820191906000526020600020905b815481529060010190602001808311610f7e57829003601f168201915b5050604080516020808201835260028801546001600160a01b03168252825160038901805460609381028301840186529482018581529899939893975090955093508492849184018282801561101a57602002820191906000526020600020905b81546001600160a01b03168152600190910190602001808311610ffc575b5050505050815260200160018201548152505090806005016040518060600160405290816000820180548060200260200160405190810160405280929190818152602001828054801561109657602002820191906000526020600020905b81546001600160a01b03168152600190910190602001808311611078575b5050505050815260200160018201805480602002602001604051908101604052809291908181526020016000905b828210156111705783829060005260206000200180546110e390615032565b80601f016020809104026020016040519081016040528092919081815260200182805461110f90615032565b801561115c5780601f106111315761010080835404028352916020019161115c565b820191906000526020600020905b81548152906001019060200180831161113f57829003601f168201915b5050505050815260200190600101906110c4565b505050508152602001600282018054806020026020016040519081016040528092919081815260200182805480156111c757602002820191906000526020600020905b8154815260200190600101908083116111b3575b505050505081525050905086565b601381815481106111e557600080fd5b600091825260209091200154905081565b6003805461120390615032565b80601f016020809104026020016040519081016040528092919081815260200182805461122f90615032565b801561127c5780601f106112515761010080835404028352916020019161127c565b820191906000526020600020905b81548152906001019060200180831161125f57829003601f168201915b505050505081565b6112b8604051806080016040528060006001600160a01b031681526020016000815260200160008152602001606081525090565b600082815260216020908152604091829020825160808101845281546001600160a01b0316815260018201549281019290925260028101549282019290925260038201805491929160608401919061130f90615032565b80601f016020809104026020016040519081016040528092919081815260200182805461133b90615032565b80156113885780601f1061135d57610100808354040283529160200191611388565b820191906000526020600020905b81548152906001019060200180831161136b57829003601f168201915b5050505050815250509050919050565b601881815481106113a857600080fd5b6000918252602090912001546001600160a01b0316905081565b6060601380548060200260200160405190810160405280929190818152602001828054801561141057602002820191906000526020600020905b8154815260200190600101908083116113fc575b5050505050905090565b60006004611426611ffa565b600481111561143757611437614bdb565b148061145b57506002611448611ffa565b600481111561145957611459614bdb565b145b156114785760405162f3e73d60e81b815260040160405180910390fd5b604080516080810182523381524260208201529081018490526060810183905260006114a382611691565b601f805460018082019092557fa03837a25210ee280c2113ff4b77ca23440b19d4866cca721c801278fd08d80701829055600082815260216020908152604091829020865181546001600160a01b0319166001600160a01b039091161781559086015192810192909255840151600282015560608401519192508391600382019061152e90826150ba565b505050600085815260226020908152604080832080546001810182559084529190922001829055517f5a1a930fed43f34b3a07db782ebcac28a661c273e662bb98458cfba5a8ccd220906115859083815260200190565b60405180910390a19150505b92915050565b60006009546115a4612903565b6115ae919061518f565b905090565b6000806115c1600184612dba565b60008581526014602052604090205490915060ff16156115f4576040516358f1119560e01b815260040160405180910390fd5b6115fd81612e57565b611608843385612f72565b949350505050565b6060601980548060200260200160405190810160405280929190818152602001828054801561141057602002820191906000526020600020905b81546001600160a01b0316815260019091019060200180831161164a575050505050905090565b600281815481106111e557600080fd5b602081815481106111e557600080fd5b6000816040516020016116a49190614721565b60408051601f19818403018152919052805160209091012092915050565b6006546001141580156116e057506005546001600160a01b03163314155b156116fe57604051639a4a529360e01b815260040160405180910390fd5b565b61170c6002600161518f565b81565b606080600061171c612a38565b9050600081516001600160401b0381111561173957611739614775565b604051908082528060200260200182016040528015611762578160200160208202803683370190505b50905060005b82518110156117d057601c6000848381518110611787576117876151a2565b60200260200101518152602001908152602001600020600001548282815181106117b3576117b36151a2565b6020908102919091010152806117c8816151b8565b915050611768565b5090939092509050565b601981815481106113a857600080fd5b60008160000361180d57604051630ec90a1760e31b815260040160405180910390fd5b6002805460408051602080840282018101909252828152919260009291849083018282801561185b57602002820191906000526020600020905b815481526020019060010190808311611847575b5050505050905060006001905060005b838110156118d7576118a2838281518110611888576118886151a2565b60200260200101516000908152601d602052604090205490565b156118c5578582036118b75795945050505050565b816118c1816151b8565b9250505b806118cf816151b8565b91505061186b565b50604051632cc2ab7360e11b815260040160405180910390fd5b6060602080548060200260200160405190810160405280929190818152602001828054801561141057602002820191906000526020600020908154815260200190600101908083116113fc575050505050905090565b6011805461120390615032565b601d602052816000526040600020818154811061197057600080fd5b90600052602060002001600091509150505481565b6060600280548060200260200160405190810160405280929190818152602001828054801561141057602002820191906000526020600020908154815260200190600101908083116113fc575050505050905090565b6004805461120390615032565b60216020526000908152604090208054600182015460028301546003840180546001600160a01b03909416949293919291611a2290615032565b80601f0160208091040260200160405190810160405280929190818152602001828054611a4e90615032565b8015611a9b5780601f10611a7057610100808354040283529160200191611a9b565b820191906000526020600020905b815481529060010190602001808311611a7e57829003601f168201915b5050505050905084565b600254600090611ab7906001906151d1565b821115611ad7576040516365d6f35160e11b815260040160405180910390fd5b60005b611ae583600161518f565b811015611b42576001611b2160028381548110611b0457611b046151a2565b90600052602060002001546000908152601d602052604090205490565b1115611b305750600192915050565b80611b3a816151b8565b915050611ada565b50600092915050565b60606018805480602002602001604051908101604052809291908181526020018280548015611410576020028201919060005260206000209081546001600160a01b0316815260019091019060200180831161164a575050505050905090565b600080611bb9600080612dba565b90506000611bcf601e546001600160a01b031690565b6001600160a01b031603611bf65760405163fa4f07a360e01b815260040160405180910390fd5b611bfe6116c2565b611c0a610cd2846151e4565b6000611c1d611c18856151e4565b613066565b9050611c2882612e57565b9392505050565b3373dc652c746a8f85e18ce632d97c6118e8a52fa73814611c635760405163de07280160e01b815260040160405180910390fd5b6004611c6d611ffa565b6004811115611c7e57611c7e614bdb565b1480611ca257506002611c8f611ffa565b6004811115611ca057611ca0614bdb565b145b15611cc0576040516398fe99a560e01b815260040160405180910390fd5b601080546001600160a01b0319166001600160a01b0392909216919091179055565b601281815481106111e557600080fd5b6004611cfc611ffa565b6004811115611d0d57611d0d614bdb565b1480611d3157506002611d1e611ffa565b6004811115611d2f57611d2f614bdb565b145b15611d4f57604051631e71d28360e21b815260040160405180910390fd5b805160005b81811015611e4c576000838281518110611d7057611d706151a2565b60209081029190910101516005549091506001600160a01b03163314801590611db057506000818152602160205260409020546001600160a01b03163314155b15611dd657604051635450763d60e11b8152600481018290526024015b60405180910390fd5b60008181526023602052604090205460ff16611e395760008181526023602090815260408220805460ff191660019081179091558154908101825591527fc97bfaf2f8ee708c303a06d134f5ecd8389ae0432af62dc132a24118292866bb018190555b5080611e44816151b8565b915050611d54565b507f788a4349d25bc08585923ae212bce8bb346a623bce753eeecb85fd9ce58dcb4b82604051611e7c9190614762565b60405180910390a15050565b6000818152601c60209081526040918290206001810180548451818502810185019095528085526060949293830182828015611eed57602002820191906000526020600020905b81546001600160a01b03168152600190910190602001808311611ecf575b5050505050915050919050565b6005546060906001600160a01b03163314611f2857604051630aca3d7160e11b815260040160405180910390fd5b6004611f32611ffa565b6004811115611f4357611f43614bdb565b1480611f6757506002611f54611ffa565b6004811115611f6557611f65614bdb565b145b15611f8557604051635b0747e760e01b815260040160405180910390fd5b6004611f9183826150ba565b5090919050565b600081815260226020908152604091829020805483518184028101840190945280845260609392830182828015611fee57602002820191906000526020600020905b815481526020019060010190808311611fda575b50505050509050919050565b60155460009060ff161561200e5750600290565b426007541061201d5750600090565b42612026612903565b106120315750600390565b4261203a611597565b106120455750600190565b50600490565b6005546060906001600160a01b0316331461207957604051637d1cb2b160e01b815260040160405180910390fd5b6004612083611ffa565b600481111561209457612094614bdb565b14806120b8575060026120a5611ffa565b60048111156120b6576120b6614bdb565b145b156120d657604051635b0747e760e01b815260040160405180910390fd5b6003611f9183826150ba565b6120ea61432c565b600082815260166020908152604091829020825160c08101845281546001600160a01b0381168252600160a01b900460ff16151592810192909252600181018054929391929184019161213c90615032565b80601f016020809104026020016040519081016040528092919081815260200182805461216890615032565b80156121b55780601f1061218a576101008083540402835291602001916121b5565b820191906000526020600020905b81548152906001019060200180831161219857829003601f168201915b5050509183525050604080516020818101835260028501546001600160a01b0316825280840191909152815160038501805460609381028301840185528285018181529490950194919390928492849184018282801561223e57602002820191906000526020600020905b81546001600160a01b03168152600190910190602001808311612220575b50505050508152602001600182015481525050815260200160058201604051806060016040529081600082018054806020026020016040519081016040528092919081815260200182805480156122be57602002820191906000526020600020905b81546001600160a01b031681526001909101906020018083116122a0575b5050505050815260200160018201805480602002602001604051908101604052809291908181526020016000905b8282101561239857838290600052602060002001805461230b90615032565b80601f016020809104026020016040519081016040528092919081815260200182805461233790615032565b80156123845780601f1061235957610100808354040283529160200191612384565b820191906000526020600020905b81548152906001019060200180831161236757829003601f168201915b5050505050815260200190600101906122ec565b505050508152602001600282018054806020026020016040519081016040528092919081815260200182805480156123ef57602002820191906000526020600020905b8154815260200190600101908083116123db575b5050509190925250505090525092915050565b6000600161240e611ffa565b600481111561241f5761241f614bdb565b1461243d5760405163a6f7b85360e01b815260040160405180910390fd5b6001600e54600181111561245357612453614bdb565b600181111561246457612464614bdb565b03612572576000603c612475612903565b61248090600161518f565b61248a90426151d1565b6124949190615206565b905060006125016124ed6124b66124b385670de0b6b3a7640000615228565b90565b6124e86124d2600954670de0b6b3a76400006124b39190615228565b6124e86124b3603c670de0b6b3a7640000615228565b613334565b68056bc75e2d6310000061334c565b61334c565b90506000612523826124fc612515600f5490565b670de0b6b3a7640000613334565b905060006125308261335b565b9050600061254c6124b3612546612515600d5490565b8461334c565b905064e8d4a5100061255e8183615206565b6125689190615228565b9550505050505090565b50600d5490565b6060600060138054806020026020016040519081016040528092919081815260200182805480156125c957602002820191906000526020600020905b8154815260200190600101908083116125b5575b50505050509050600081516001600160401b038111156125eb576125eb614775565b604051908082528060200260200182016040528015612614578160200160208202803683370190505b50905060005b82518110156126a25760166000848381518110612639576126396151a2565b6020026020010151815260200190815260200160002060000160009054906101000a90046001600160a01b0316828281518110612678576126786151a2565b6001600160a01b03909216602092830291909101909101528061269a816151b8565b91505061261a565b5092915050565b80516001600160a01b031633146126e757805160405163fbbf4d7f60e01b81526001600160a01b039091166004820152336024820152604401611dcd565b60005b6126f66002600161518f565b81101561286657600081600281111561271157612711614bdb565b9050600081600281111561272757612727614bdb565b036127325750612854565b600181600281111561274657612746614bdb565b036127a057608083015151516000036127725760405163c3b2798b60e01b815260040160405180910390fd5b82608001516020015160000361279b576040516392fb9a3560e01b815260040160405180910390fd5b612852565b60028160028111156127b4576127b4614bdb565b036128375760a08301515151600a10156127e157604051631e38b1b160e11b815260040160405180910390fd5b600a8360a001516020015151111561280c5760405163a3b7dd7760e01b815260040160405180910390fd5b600a8360a001516040015151111561279b5760405163f696406560e01b815260040160405180910390fd5b8060405163d2277d4960e01b8152600401611dcd919061523f565b505b8061285e816151b8565b9150506126ea565b5080604001515160000361288d5760405163e182473360e01b815260040160405180910390fd5b50565b6000818152601d60205260408120546001146128bf57604051633832a15560e21b815260040160405180910390fd5b6000828152601d6020526040812080549091906128de576128de6151a2565b90600052602060002001549050919050565b6000816040516020016116a49190614c0b565b60006008546007546115ae919061518f565b6060601f80548060200260200160405190810160405280929190818152602001828054801561141057602002820191906000526020600020908154815260200190600101908083116113fc575050505050905090565b6005546001600160a01b0316331480159061299a57503373dc652c746a8f85e18ce632d97c6118e8a52fa73814155b156129b857604051637601acaf60e11b815260040160405180910390fd5b60155460ff16156129dc57604051636f79584d60e01b815260040160405180910390fd5b601a5415600114612a005760405163043d8d1b60e21b815260040160405180910390fd5b6015805460ff191660011790556040517f4cd963a081760a54f571abc0f1db4dde31b4a07d8d6da3e844b8c6f47eeaaa4290600090a1565b6060601280548060200260200160405190810160405280929190818152602001828054801561141057602002820191906000526020600020908154815260200190600101908083116113fc575050505050905090565b6003612a98611ffa565b6004811115612aa957612aa9614bdb565b14612ac75760405163554806bb60e11b815260040160405180910390fd5b60005b81811015612bbb576000838383818110612ae657612ae66151a2565b60055460209190910292909201359250506001600160a01b03163314801590612b2657506000818152601660205260409020546001600160a01b03163314155b15612b445760405163018db70560e11b815260040160405180910390fd5b60008181526014602052604090205460ff16612ba8576000818152601460205260408120805460ff191660019081179091556013805491820181559091527f66de8ffda797e3de9c05e8fc57b3bf0ec28a930d40b0d285d93c06501cf6a090018190555b5080612bb3816151b8565b915050612aca565b507f75a75cf5c561892f4cc5b26c1b8e933849b42238c96dd073d080d1ae96c514166012604051611e7c9190615253565b6005546001600160a01b03163314612c1757604051630f4cb1bd60e11b815260040160405180910390fd5b601e546001600160a01b031615612c4157604051630ff4b80b60e01b815260040160405180910390fd5b306001600160a01b0316816001600160a01b031663f3f44fb76040518163ffffffff1660e01b8152600401602060405180830381865afa158015612c89573d6000803e3d6000fd5b505050506040513d601f19601f82011682018060405250810190612cad919061528e565b6001600160a01b031614612cd457604051635b310aaf60e01b815260040160405180910390fd5b601e80546001600160a01b038381166001600160a01b031983168117909355604080519190921680825260208201939093527f753a2cf8d360cff631674504210913e48247f8e56b3e6d2006c2103d4095999f9101611e7c565b601f81815481106111e557600080fd5b6022602052816000526040600020818154811061197057600080fd5b6000818152601d6020908152604091829020805483518184028101840190945280845260609392830182828015611fee5760200282019190600052602060002090815481526020019060010190808311611fda5750505050509050919050565b6000806001846001811115612dd157612dd1614bdb565b03612e2a57670de0b6b3a7640000831015612dff576040516346ddb8d160e01b815260040160405180910390fd5b612e11670de0b6b3a764000084615206565b612e19612402565b612e239190615228565b9050612e2e565b5060005b803414611c28576040516372c3eaa760e01b815234600482015260248101829052604401611dcd565b801561288d5760006064600c546064612e7091906151d1565b612e7a9034615228565b612e849190615206565b90508015612ee957601054612ea2906001600160a01b0316826133b1565b601054604080516001600160a01b039092168252602082018390527f9df63d1c00d2e332f573be591c0579caafb256b2c5a17abcc8ad471cccda1b81910160405180910390a15b6000612ef582346151d1565b90508015612f6d57612f18612f12601e546001600160a01b031690565b826133b1565b7f6dff55337c8458ae8c536a63869a48bc33541733422a796390c131d91f4238ed612f4b601e546001600160a01b031690565b604080516001600160a01b039092168252602082018490520160405180910390a15b505050565b60006001612f7e611ffa565b6004811115612f8f57612f8f614bdb565b14612fad5760405163f569a2b960e01b815260040160405180910390fd5b81600003612fce5760405163502e1c2960e01b815260040160405180910390fd5b612fd98484846134ca565b601980546001810182556000919091527f944998273e477b495144fb8794c914197f3ccb46be2900f4698fd0ef743c96950180546001600160a01b0319163317905560408051858152602081018490526001600160a01b038516917fb4cfecf70861b7b150d8337780d34fb4cbc2114b5fb1fe51a5c5fca1849f7274910160405180910390a25092915050565b60006003613072611ffa565b600481111561308357613083614bdb565b146130a15760405163152839c360e31b815260040160405180910390fd5b600a5433600090815260176020526040902054036130d857600a54604051632bd6d93960e21b8152600401611dcd91815260200190565b600b546013546012546130eb91906151d1565b0361310f57600b546040516302217f5360e51b8152600401611dcd91815260200190565b600061311a836128f0565b600081815260166020526040902054909150600160a01b900460ff16156131575760405163baffc42360e01b815260048101829052602401611dcd565b6012805460018181019092557fbb8a6a4669ba250d26cd7a459eca9d215f8307e33aebe50379bc5a3617ec34440182905560008281526016602090815260409182902086518154928801511515600160a01b026001600160a81b03199093166001600160a01b03909116179190911781559085015185928201906131db90826150ba565b506060820151516002820180546001600160a01b0319166001600160a01b039092169190911790556080820151805180516003840191613220918391602001906143c6565b5060209182015160019091015560a0830151805180519192600585019261324a92849201906143c6565b506020828101518051613263926001850192019061442b565b506040820151805161327f91600284019160209091019061447d565b50503360009081526017602052604081208054600195509093509091506132a790849061518f565b9091555050601880546001810182556000919091527fb13d2d76d1f4b7be834882e410b3e3a8afaf69f83600ae24db354391d2378d2e0180546001600160a01b0319163390811790915560408085015190517f7585f467599d0f008985f231af99293be388626ac16ca59505c2f8f88969cd63926133269285926152ab565b60405180910390a192915050565b6000611c286124b384670de0b6b3a764000085613616565b6000611c286124b384846136ea565b600081680a688906bd8affffff81111561338b5760405163b3b6ba1f60e01b815260048101849052602401611dcd565b60006133a3670de0b6b3a7640000604084901b615206565b90506116086124b3826137a0565b804710156134015760405162461bcd60e51b815260206004820152601d60248201527f416464726573733a20696e73756666696369656e742062616c616e63650000006044820152606401611dcd565b6000826001600160a01b03168260405160006040518083038185875af1925050503d806000811461344e576040519150601f19603f3d011682016040523d82523d6000602084013e613453565b606091505b5050905080612f6d5760405162461bcd60e51b815260206004820152603a60248201527f416464726573733a20756e61626c6520746f2073656e642076616c75652c207260448201527f6563697069656e74206d617920686176652072657665727465640000000000006064820152608401611dcd565b6000838152601c602090815260408083206001600160a01b038616845260028101909252822054815491929015918491849161350790849061518f565b90915550506001600160a01b03841660009081526002830160205260408120805485929061353690849061518f565b90915550508015613571576001828101805491820181556000908152602090200180546001600160a01b0319166001600160a01b0386161790555b6001600160a01b0384166000908152601b60205260408120805485929061359990849061518f565b9250508190555082601a60008282546135b2919061518f565b909155505060005460010361360f57815460006135cf85836151d1565b905080156135e1576135e18782613f00565b6000828152601d602090815260408220805460018101825590835291200187905561360c8183614037565b50505b5050505050565b600080806000198587098587029250828110838203039150508060000361365057838281613646576136466151f0565b0492505050611c28565b83811061368157604051630c740aef60e31b8152600481018790526024810186905260448101859052606401611dcd565b60008486880960026001871981018816978890046003810283188082028403028082028403028082028403028082028403028082028403029081029092039091026000889003889004909101858311909403939093029303949094049190911702949350505050565b600080806000198486098486029250828110838203039150508060000361371e5750670de0b6b3a764000090049050611591565b670de0b6b3a7640000811061375057604051635173648d60e01b81526004810186905260248101859052604401611dcd565b6000670de0b6b3a764000085870962040000818503049310909103600160ee1b02919091177faccb18165bd6fe31ae1cf318dc5b51eee0e1ba569b88cd74c1773b91fac106690291505092915050565b600160bf1b67ff000000000000008216156138ad576780000000000000008216156137d45768016a09e667f3bcc9090260401c5b6740000000000000008216156137f3576801306fe0a31b7152df0260401c5b672000000000000000821615613812576801172b83c7d517adce0260401c5b6710000000000000008216156138315768010b5586cf9890f62a0260401c5b670800000000000000821615613850576801059b0d31585743ae0260401c5b67040000000000000082161561386f57680102c9a3e778060ee70260401c5b67020000000000000082161561388e5768010163da9fb33356d80260401c5b6701000000000000008216156138ad57680100b1afa5abcbed610260401c5b66ff0000000000008216156139ac5766800000000000008216156138da5768010058c86da1c09ea20260401c5b66400000000000008216156138f8576801002c605e2e8cec500260401c5b662000000000000082161561391657680100162f3904051fa10260401c5b6610000000000000821615613934576801000b175effdc76ba0260401c5b660800000000000082161561395257680100058ba01fb9f96d0260401c5b66040000000000008216156139705768010002c5cc37da94920260401c5b660200000000000082161561398e576801000162e525ee05470260401c5b66010000000000008216156139ac5768010000b17255775c040260401c5b65ff0000000000821615613aa257658000000000008216156139d7576801000058b91b5bc9ae0260401c5b654000000000008216156139f457680100002c5c89d5ec6d0260401c5b65200000000000821615613a115768010000162e43f4f8310260401c5b65100000000000821615613a2e57680100000b1721bcfc9a0260401c5b65080000000000821615613a4b5768010000058b90cf1e6e0260401c5b65040000000000821615613a68576801000002c5c863b73f0260401c5b65020000000000821615613a8557680100000162e430e5a20260401c5b65010000000000821615613aa2576801000000b1721835510260401c5b64ff00000000821615613b8f57648000000000821615613acb57680100000058b90c0b490260401c5b644000000000821615613ae75768010000002c5c8601cc0260401c5b642000000000821615613b03576801000000162e42fff00260401c5b641000000000821615613b1f5768010000000b17217fbb0260401c5b640800000000821615613b3b576801000000058b90bfce0260401c5b640400000000821615613b5757680100000002c5c85fe30260401c5b640200000000821615613b735768010000000162e42ff10260401c5b640100000000821615613b8f57680100000000b17217f80260401c5b63ff000000821615613c73576380000000821615613bb65768010000000058b90bfc0260401c5b6340000000821615613bd1576801000000002c5c85fe0260401c5b6320000000821615613bec57680100000000162e42ff0260401c5b6310000000821615613c07576801000000000b17217f0260401c5b6308000000821615613c2257680100000000058b90c00260401c5b6304000000821615613c3d5768010000000002c5c8600260401c5b6302000000821615613c58576801000000000162e4300260401c5b6301000000821615613c735768010000000000b172180260401c5b62ff0000821615613d4e5762800000821615613c98576801000000000058b90c0260401c5b62400000821615613cb257680100000000002c5c860260401c5b62200000821615613ccc5768010000000000162e430260401c5b62100000821615613ce657680100000000000b17210260401c5b62080000821615613d005768010000000000058b910260401c5b62040000821615613d1a576801000000000002c5c80260401c5b62020000821615613d3457680100000000000162e40260401c5b62010000821615613d4e576801000000000000b1720260401c5b61ff00821615613e2057618000821615613d7157680100000000000058b90260401c5b614000821615613d8a5768010000000000002c5d0260401c5b612000821615613da3576801000000000000162e0260401c5b611000821615613dbc5768010000000000000b170260401c5b610800821615613dd5576801000000000000058c0260401c5b610400821615613dee57680100000000000002c60260401c5b610200821615613e0757680100000000000001630260401c5b610100821615613e2057680100000000000000b10260401c5b60ff821615613ee9576080821615613e4157680100000000000000590260401c5b6040821615613e59576801000000000000002c0260401c5b6020821615613e7157680100000000000000160260401c5b6010821615613e89576801000000000000000b0260401c5b6008821615613ea157680100000000000000060260401c5b6004821615613eb957680100000000000000030260401c5b6002821615613ed157680100000000000000010260401c5b6001821615613ee957680100000000000000010260401c5b670de0b6b3a76400000260409190911c60bf031c90565b6000818152601d6020908152604080832080548251818502810185019093528083529192909190830182828015613f5657602002820191906000526020600020905b815481526020019060010190808311613f42575b5050505050905060005b81518110156140315783828281518110613f7c57613f7c6151a2565b60200260200101510361401f578160018351613f9891906151d1565b81518110613fa857613fa86151a2565b6020026020010151601d60008581526020019081526020016000208281548110613fd457613fd46151a2565b9060005260206000200181905550601d6000848152602001908152602001600020805480614004576140046152d5565b60019003818190600052602060002001600090559055614031565b80614029816151b8565b915050613f60565b50505050565b6002805460408051602080840282018101909252828152919260009291849083018282801561408557602002820191906000526020600020905b815481526020019060010190808311614071575b50505050509050816000036140cc575050600280546001810182556000919091527f405787fa12a823e0f2b7631cc41b3ba8828b3321ca811111fa75cd3aa3bb5ace015550565b806140d86001846151d1565b815181106140e8576140e86151a2565b602002602001015183101561413e5760015482036141065750505050565b5050600280546001810182556000919091527f405787fa12a823e0f2b7631cc41b3ba8828b3321ca811111fa75cd3aa3bb5ace015550565b614031848484846000805b838110156141b357828181518110614163576141636151a2565b60200260200101518503614178575050614031565b82818151811061418a5761418a6151a2565b60200260200101518511156141a1578091506141b3565b806141ab816151b8565b915050614149565b50600080861180156141d157506000868152601d6020526040902054155b905060008180156141fa5750868484815181106141f0576141f06151a2565b6020026020010151145b614303576142096001866151d1565b83146142b157600061421c84600161518f565b90505b858110156142af57846142336001836151d1565b81518110614243576142436151a2565b60200260200101516002828154811061425e5761425e6151a2565b60009182526020909120015582801561428f575087858281518110614285576142856151a2565b6020026020010151145b1561429d57600191506142af565b806142a7816151b8565b91505061421f565b505b801580156142c0575060015485105b15614303576002846142d36001886151d1565b815181106142e3576142e36151a2565b602090810291909101810151825460018101845560009384529190922001555b8560028481548110614317576143176151a2565b60009182526020909120015550505050505050565b6040518060c0016040528060006001600160a01b0316815260200160001515815260200160608152602001614376604051806020016040528060006001600160a01b031681525090565b8152602001614398604051806040016040528060608152602001600081525090565b81526020016143c160405180606001604052806060815260200160608152602001606081525090565b905290565b82805482825590600052602060002090810192821561441b579160200282015b8281111561441b57825182546001600160a01b0319166001600160a01b039091161782556020909201916001909101906143e6565b506144279291506144b8565b5090565b828054828255906000526020600020908101928215614471579160200282015b82811115614471578251829061446190826150ba565b509160200191906001019061444b565b506144279291506144cd565b82805482825590600052602060002090810192821561441b579160200282015b8281111561441b57825182559160200191906001019061449d565b5b8082111561442757600081556001016144b9565b808211156144275760006144e182826144ea565b506001016144cd565b5080546144f690615032565b6000825580601f10614506575050565b601f01602090049060005260206000209081019061288d91906144b8565b60006020828403121561453657600080fd5b5035919050565b6000815180845260005b8181101561456357602081850181015186830182015201614547565b506000602082860101526020601f19601f83011685010191505092915050565b600081518084526020808501945080840160005b838110156145bc5781516001600160a01b031687529582019590820190600101614597565b509495945050505050565b60008151604084526145dc6040850182614583565b602093840151949093019390935250919050565b600081518084526020808501945080840160005b838110156145bc57815187529582019590820190600101614604565b60008151606084526146356060850182614583565b9050602080840151858303828701528281518085528385019150838160051b860101848401935060005b8281101561468d57601f1987830301845261467b82865161453d565b9486019493860193915060010161465f565b506040880151955088810360408a01526146a781876145f0565b9998505050505050505050565b600060018060a01b038089168352871515602084015260c060408401526146de60c084018861453d565b81875116606085015283810360808501526146f981876145c7565b91505082810360a08401526146a78185614620565b602081526000611c28602083018461453d565b6020815260018060a01b03825116602082015260208201516040820152604082015160608201526000606083015160808084015261160860a084018261453d565b602081526000611c2860208301846145f0565b634e487b7160e01b600052604160045260246000fd5b604051606081016001600160401b03811182821017156147ad576147ad614775565b60405290565b60405160c081016001600160401b03811182821017156147ad576147ad614775565b604051601f8201601f191681016001600160401b03811182821017156147fd576147fd614775565b604052919050565b600082601f83011261481657600080fd5b81356001600160401b0381111561482f5761482f614775565b614842601f8201601f19166020016147d5565b81815284602083860101111561485757600080fd5b816020850160208301376000918101602001919091529392505050565b6000806040838503121561488757600080fd5b8235915060208301356001600160401b038111156148a457600080fd5b6148b085828601614805565b9150509250929050565b600080604083850312156148cd57600080fd5b50508035926020909101359150565b6020808252825182820181905260009190848201906040850190845b8181101561491d5783516001600160a01b0316835292840192918401916001016148f8565b50909695505050505050565b6001600160a01b038116811461288d57600080fd5b803561494981614929565b919050565b60006020828403121561496057600080fd5b81356001600160401b038082111561497757600080fd5b908301906080828603121561498b57600080fd5b6040516080810181811083821117156149a6576149a6614775565b60405282356149b481614929565b8082525060208301356020820152604083013560408201526060830135828111156149de57600080fd5b6149ea87828601614805565b60608301525095945050505050565b604081526000614a0c60408301856145f0565b8281036020840152614a1e81856145f0565b95945050505050565b60008060408385031215614a3a57600080fd5b823591506020830135614a4c81614929565b809150509250929050565b600060208284031215614a6957600080fd5b8135611c2881614929565b60018060a01b0385168152836020820152826040820152608060608201526000614aa1608083018461453d565b9695505050505050565b600060208284031215614abd57600080fd5b81356001600160401b03811115614ad357600080fd5b820160c08185031215611c2857600080fd5b60006001600160401b03821115614afe57614afe614775565b5060051b60200190565b600082601f830112614b1957600080fd5b81356020614b2e614b2983614ae5565b6147d5565b82815260059290921b84018101918181019086841115614b4d57600080fd5b8286015b84811015614b685780358352918301918301614b51565b509695505050505050565b600060208284031215614b8557600080fd5b81356001600160401b03811115614b9b57600080fd5b61160884828501614b08565b600060208284031215614bb957600080fd5b81356001600160401b03811115614bcf57600080fd5b61160884828501614805565b634e487b7160e01b600052602160045260246000fd5b6020810160058310614c0557614c05614bdb565b91905290565b60208152600060018060a01b03808451166020840152602084015115156040840152604084015160c06060850152614c4660e085018261453d565b90508160608601515116608085015260808501519150601f19808583030160a0860152614c7382846145c7565b925060a08601519150808584030160c086015250614a1e8282614620565b8035801515811461494957600080fd5b600060208284031215614cb357600080fd5b604051602081018181106001600160401b0382111715614cd557614cd5614775565b6040529050808235614ce681614929565b905292915050565b600082601f830112614cff57600080fd5b81356020614d0f614b2983614ae5565b82815260059290921b84018101918181019086841115614d2e57600080fd5b8286015b84811015614b68578035614d4581614929565b8352918301918301614d32565b600060408284031215614d6457600080fd5b604051604081016001600160401b038282108183111715614d8757614d87614775565b816040528293508435915080821115614d9f57600080fd5b50614dac85828601614cee565b825250602083013560208201525092915050565b600060608284031215614dd257600080fd5b614dda61478b565b905081356001600160401b0380821115614df357600080fd5b614dff85838601614cee565b8352602091508184013581811115614e1657600080fd5b8401601f81018613614e2757600080fd5b8035614e35614b2982614ae5565b81815260059190911b82018401908481019088831115614e5457600080fd5b8584015b83811015614e8c57803586811115614e705760008081fd5b614e7e8b8983890101614805565b845250918601918601614e58565b508086880152505050506040840135915080821115614eaa57600080fd5b50614eb784828501614b08565b60408301525092915050565b600060c08284031215614ed557600080fd5b614edd6147b3565b9050614ee88261493e565b8152614ef660208301614c91565b602082015260408201356001600160401b0380821115614f1557600080fd5b614f2185838601614805565b6040840152614f338560608601614ca1565b60608401526080840135915080821115614f4c57600080fd5b614f5885838601614d52565b608084015260a0840135915080821115614f7157600080fd5b50614f7e84828501614dc0565b60a08301525092915050565b600060208284031215614f9c57600080fd5b81356001600160401b03811115614fb257600080fd5b61160884828501614ec3565b60008060208385031215614fd157600080fd5b82356001600160401b0380821115614fe857600080fd5b818501915085601f830112614ffc57600080fd5b81358181111561500b57600080fd5b8660208260051b850101111561502057600080fd5b60209290920196919550909350505050565b600181811c9082168061504657607f821691505b60208210810361506657634e487b7160e01b600052602260045260246000fd5b50919050565b601f821115612f6d57600081815260208120601f850160051c810160208610156150935750805b601f850160051c820191505b818110156150b25782815560010161509f565b505050505050565b81516001600160401b038111156150d3576150d3614775565b6150e7816150e18454615032565b8461506c565b602080601f83116001811461511c57600084156151045750858301515b600019600386901b1c1916600185901b1785556150b2565b600085815260208120601f198616915b8281101561514b5788860151825594840194600190910190840161512c565b50858210156151695787850151600019600388901b60f8161c191681555b5050505050600190811b01905550565b634e487b7160e01b600052601160045260246000fd5b8082018082111561159157611591615179565b634e487b7160e01b600052603260045260246000fd5b6000600182016151ca576151ca615179565b5060010190565b8181038181111561159157611591615179565b60006115913683614ec3565b634e487b7160e01b600052601260045260246000fd5b60008261522357634e487b7160e01b600052601260045260246000fd5b500490565b808202811582820484141761159157611591615179565b6020810160038310614c0557614c05614bdb565b6020808252825482820181905260008481528281209092916040850190845b8181101561491d57835483526001938401939285019201615272565b6000602082840312156152a057600080fd5b8151611c2881614929565b8381526001600160a01b0383166020820152606060408201819052600090614a1e9083018461453d565b634e487b7160e01b600052603160045260246000fdfea26469706673582212202ff956ac668626449f09c116ff11fc6916c902105d3cefe0424fa86efc51089564736f6c63430008130033","linkReferences":{}},"methodIdentifiers":{"AMOUNT_FOR_SUMBITTER_PROOF()":"347cf665","COST_ROUNDING_VALUE()":"e269cefe","JK_LABS_ADDRESS()":"eef18e17","MAX_FIELDS_METADATA_LENGTH()":"b382543f","METADATAS_COUNT()":"4d24a67f","PRICE_CURVE_UPDATE_INTERVAL()":"fd7971c9","SECONDS_IN_DAY()":"61a52a36","addressTotalCastVoteCount(address)":"dda54fcf","addressesThatHaveVoted(uint256)":"50c4b616","allProposalTotalVotes()":"50a5e524","anyoneCanSubmit()":"5358b80e","cancel()":"ea8a1af0","canceled()":"3f9942ff","castVote(uint256,uint256)":"2c0a3f89","comment(uint256,string)":"1805c523","commentIds(uint256)":"f5c36411","commentIsDeleted(uint256)":"ae66b8ad","comments(uint256)":"8ebb4c15","contestAddressTotalVotesCast(address)":"aec116b6","contestDeadline()":"262e59e9","contestStart()":"004114a8","costToVote()":"51a41dec","creator()":"02d05d3f","currentPricePerVote()":"ca09a4c4","deleteComments(uint256[])":"ac67f801","deleteProposals(uint256[])":"f0a7db0a","deletedCommentIds(uint256)":"3fb57c92","deletedProposalIds(uint256)":"05846cae","getAllAddressesThatHaveVoted()":"2c39805f","getAllAuthorsOfDeletedProposals()":"cbdc27cb","getAllCommentIds()":"e11db9d8","getAllDeletedCommentIds()":"5cb718a1","getAllDeletedProposalIds()":"1242b737","getAllProposalAuthors()":"946369b5","getAllProposalIds()":"efa90d36","getComment(uint256)":"0800e300","getNumProposalsWithThisManyVotes(uint256)":"bc022c98","getOnlyProposalIdWithThisManyVotes(uint256)":"d576b81d","getProposal(uint256)":"c7f758a8","getProposalComments(uint256)":"c05f4104","getProposalsWithThisManyVotes(uint256)":"f82e54c0","getRankIndex(uint256)":"5c7107d8","getSortedRanks()":"6fd3636b","hashComment((address,uint256,uint256,string))":"409fd030","hashProposal((address,bool,string,(address),(address[],uint256),(address[],string[],uint256[])))":"d7989025","isOrIsBelowTiedRank(uint256)":"9174778c","jkLabsSplitDestination()":"102613d8","maxProposalCount()":"fb9bf8d4","metadataFieldsSchema()":"60ed97a9","multiple()":"437a8ae6","name()":"06fdde03","numAllowedProposalSubmissions()":"832009af","numSubmissions(address)":"75e509c5","officialRewardsModule()":"785ddfe5","percentageToCreator()":"edcd1be4","priceCurveType()":"4a2c96ec","prompt()":"7c65d711","proposalAddressVotes(uint256,address)":"6e4eb810","proposalAddressesHaveVoted(uint256)":"b323580d","proposalAuthors(uint256)":"0aa25e44","proposalComments(uint256,uint256)":"f61736f4","proposalIds(uint256)":"9b644a23","proposalIsDeleted(uint256)":"f79c0172","proposalVoteStructs(uint256)":"15dee7cd","proposalVotes(uint256)":"544ffc9c","proposals(uint256)":"013cf08b","propose((address,bool,string,(address),(address[],uint256),(address[],string[],uint256[])))":"9a04ede8","rankLimit()":"0414126a","setJkLabsSplitDestination(address)":"9b338aa0","setName(string)":"c47f0027","setOfficialRewardsModule(address)":"f4f3d7ec","setPrompt(string)":"b4ac024f","sortedRanks(uint256)":"325cc6d9","sortingEnabled()":"366ecf5b","state()":"c19d93fb","totalVotesCast()":"7de418d5","totalVotesCastIsZero()":"7d742925","validateProposalData((address,bool,string,(address),(address[],uint256),(address[],string[],uint256[])))":"d140d9f0","verifyProposer()":"476106c8","version()":"54fd4d50","voteStart()":"e031535b","votesToProposalIds(uint256,uint256)":"6d030621","votingDelay()":"3932abb1","votingPeriod()":"02a251a3"},"id":52}