{
  "abi": [
    {
      "inputs": [
        {
          "internalType": "string",
          "name": "_name",
          "type": "string"
        },
        {
          "internalType": "string",
          "name": "_prompt",
          "type": "string"
        },
        {
          "internalType": "bytes32",
          "name": "_submissionMerkleRoot",
          "type": "bytes32"
        },
        {
          "internalType": "bytes32",
          "name": "_votingMerkleRoot",
          "type": "bytes32"
        },
        {
          "internalType": "uint256[]",
          "name": "_constructorIntParams",
          "type": "uint256[]"
        }
      ],
      "stateMutability": "nonpayable",
      "type": "constructor"
    },
    {
      "inputs": [],
      "name": "InvalidShortString",
      "type": "error"
    },
    {
      "inputs": [],
      "name": "NotInMerkle",
      "type": "error"
    },
    {
      "inputs": [
        {
          "internalType": "string",
          "name": "str",
          "type": "string"
        }
      ],
      "name": "StringTooLong",
      "type": "error"
    },
    {
      "inputs": [],
      "name": "TooManyMetadatas",
      "type": "error"
    },
    {
      "anonymous": false,
      "inputs": [],
      "name": "ContestCanceled",
      "type": "event"
    },
    {
      "anonymous": false,
      "inputs": [
        {
          "indexed": false,
          "internalType": "uint256",
          "name": "oldContestStart",
          "type": "uint256"
        },
        {
          "indexed": false,
          "internalType": "uint256",
          "name": "newContestStart",
          "type": "uint256"
        }
      ],
      "name": "ContestStartSet",
      "type": "event"
    },
    {
      "anonymous": false,
      "inputs": [
        {
          "indexed": false,
          "internalType": "address",
          "name": "oldCreator",
          "type": "address"
        },
        {
          "indexed": false,
          "internalType": "address",
          "name": "newCreator",
          "type": "address"
        }
      ],
      "name": "CreatorSet",
      "type": "event"
    },
    {
      "anonymous": false,
      "inputs": [
        {
          "indexed": false,
          "internalType": "uint256",
          "name": "oldDownvotingAllowed",
          "type": "uint256"
        },
        {
          "indexed": false,
          "internalType": "uint256",
          "name": "newDownvotingAllowed",
          "type": "uint256"
        }
      ],
      "name": "DownvotingAllowedSet",
      "type": "event"
    },
    {
      "anonymous": false,
      "inputs": [],
      "name": "EIP712DomainChanged",
      "type": "event"
    },
    {
      "anonymous": false,
      "inputs": [
        {
          "indexed": false,
          "internalType": "uint256",
          "name": "oldMaxProposalCount",
          "type": "uint256"
        },
        {
          "indexed": false,
          "internalType": "uint256",
          "name": "newMaxProposalCount",
          "type": "uint256"
        }
      ],
      "name": "MaxProposalCountSet",
      "type": "event"
    },
    {
      "anonymous": false,
      "inputs": [
        {
          "indexed": false,
          "internalType": "uint256",
          "name": "oldNumAllowedProposalSubmissions",
          "type": "uint256"
        },
        {
          "indexed": false,
          "internalType": "uint256",
          "name": "newNumAllowedProposalSubmissions",
          "type": "uint256"
        }
      ],
      "name": "NumAllowedProposalSubmissionsSet",
      "type": "event"
    },
    {
      "anonymous": false,
      "inputs": [
        {
          "indexed": false,
          "internalType": "contract RewardsModule",
          "name": "oldOfficialRewardsModule",
          "type": "address"
        },
        {
          "indexed": false,
          "internalType": "contract RewardsModule",
          "name": "newOfficialRewardsModule",
          "type": "address"
        }
      ],
      "name": "OfficialRewardsModuleSet",
      "type": "event"
    },
    {
      "anonymous": false,
      "inputs": [
        {
          "indexed": false,
          "internalType": "uint256",
          "name": "proposalId",
          "type": "uint256"
        },
        {
          "indexed": false,
          "internalType": "address",
          "name": "proposer",
          "type": "address"
        }
      ],
      "name": "ProposalCreated",
      "type": "event"
    },
    {
      "anonymous": false,
      "inputs": [
        {
          "indexed": false,
          "internalType": "uint256[]",
          "name": "proposalIds",
          "type": "uint256[]"
        }
      ],
      "name": "ProposalsDeleted",
      "type": "event"
    },
    {
      "anonymous": false,
      "inputs": [
        {
          "indexed": true,
          "internalType": "address",
          "name": "voter",
          "type": "address"
        },
        {
          "indexed": false,
          "internalType": "uint256",
          "name": "proposalId",
          "type": "uint256"
        },
        {
          "indexed": false,
          "internalType": "uint8",
          "name": "support",
          "type": "uint8"
        },
        {
          "indexed": false,
          "internalType": "uint256",
          "name": "numVotes",
          "type": "uint256"
        }
      ],
      "name": "VoteCast",
      "type": "event"
    },
    {
      "anonymous": false,
      "inputs": [
        {
          "indexed": false,
          "internalType": "uint256",
          "name": "oldVotingDelay",
          "type": "uint256"
        },
        {
          "indexed": false,
          "internalType": "uint256",
          "name": "newVotingDelay",
          "type": "uint256"
        }
      ],
      "name": "VotingDelaySet",
      "type": "event"
    },
    {
      "anonymous": false,
      "inputs": [
        {
          "indexed": false,
          "internalType": "uint256",
          "name": "oldVotingPeriod",
          "type": "uint256"
        },
        {
          "indexed": false,
          "internalType": "uint256",
          "name": "newVotingPeriod",
          "type": "uint256"
        }
      ],
      "name": "VotingPeriodSet",
      "type": "event"
    },
    {
      "inputs": [],
      "name": "AMOUNT_FOR_SUMBITTER_PROOF",
      "outputs": [
        {
          "internalType": "uint256",
          "name": "",
          "type": "uint256"
        }
      ],
      "stateMutability": "view",
      "type": "function"
    },
    {
      "inputs": [],
      "name": "JK_LABS_ADDRESS",
      "outputs": [
        {
          "internalType": "address",
          "name": "",
          "type": "address"
        }
      ],
      "stateMutability": "view",
      "type": "function"
    },
    {
      "inputs": [],
      "name": "METADATAS_COUNT",
      "outputs": [
        {
          "internalType": "uint256",
          "name": "",
          "type": "uint256"
        }
      ],
      "stateMutability": "view",
      "type": "function"
    },
    {
      "inputs": [
        {
          "internalType": "address",
          "name": "",
          "type": "address"
        }
      ],
      "name": "addressSubmitterVerified",
      "outputs": [
        {
          "internalType": "bool",
          "name": "",
          "type": "bool"
        }
      ],
      "stateMutability": "view",
      "type": "function"
    },
    {
      "inputs": [
        {
          "internalType": "address",
          "name": "",
          "type": "address"
        }
      ],
      "name": "addressTotalCastVoteCounts",
      "outputs": [
        {
          "internalType": "uint256",
          "name": "",
          "type": "uint256"
        }
      ],
      "stateMutability": "view",
      "type": "function"
    },
    {
      "inputs": [
        {
          "internalType": "address",
          "name": "",
          "type": "address"
        }
      ],
      "name": "addressTotalVotes",
      "outputs": [
        {
          "internalType": "uint256",
          "name": "",
          "type": "uint256"
        }
      ],
      "stateMutability": "view",
      "type": "function"
    },
    {
      "inputs": [
        {
          "internalType": "address",
          "name": "",
          "type": "address"
        }
      ],
      "name": "addressTotalVotesVerified",
      "outputs": [
        {
          "internalType": "bool",
          "name": "",
          "type": "bool"
        }
      ],
      "stateMutability": "view",
      "type": "function"
    },
    {
      "inputs": [
        {
          "internalType": "uint256",
          "name": "",
          "type": "uint256"
        }
      ],
      "name": "addressesThatHaveVoted",
      "outputs": [
        {
          "internalType": "address",
          "name": "",
          "type": "address"
        }
      ],
      "stateMutability": "view",
      "type": "function"
    },
    {
      "inputs": [],
      "name": "allProposalTotalVotes",
      "outputs": [
        {
          "internalType": "uint256[]",
          "name": "proposalIdsReturn",
          "type": "uint256[]"
        },
        {
          "components": [
            {
              "internalType": "uint256",
              "name": "forVotes",
              "type": "uint256"
            },
            {
              "internalType": "uint256",
              "name": "againstVotes",
              "type": "uint256"
            }
          ],
          "internalType": "struct GovernorCountingSimple.VoteCounts[]",
          "name": "proposalVoteCountsArrayReturn",
          "type": "tuple[]"
        }
      ],
      "stateMutability": "view",
      "type": "function"
    },
    {
      "inputs": [],
      "name": "allProposalTotalVotesWithoutDeleted",
      "outputs": [
        {
          "internalType": "uint256[]",
          "name": "proposalIdsReturn",
          "type": "uint256[]"
        },
        {
          "components": [
            {
              "internalType": "uint256",
              "name": "forVotes",
              "type": "uint256"
            },
            {
              "internalType": "uint256",
              "name": "againstVotes",
              "type": "uint256"
            }
          ],
          "internalType": "struct GovernorCountingSimple.VoteCounts[]",
          "name": "proposalVoteCountsArrayReturn",
          "type": "tuple[]"
        }
      ],
      "stateMutability": "view",
      "type": "function"
    },
    {
      "inputs": [],
      "name": "cancel",
      "outputs": [],
      "stateMutability": "nonpayable",
      "type": "function"
    },
    {
      "inputs": [],
      "name": "canceled",
      "outputs": [
        {
          "internalType": "bool",
          "name": "",
          "type": "bool"
        }
      ],
      "stateMutability": "view",
      "type": "function"
    },
    {
      "inputs": [
        {
          "internalType": "uint256",
          "name": "proposalId",
          "type": "uint256"
        },
        {
          "internalType": "uint8",
          "name": "support",
          "type": "uint8"
        },
        {
          "internalType": "uint256",
          "name": "totalVotes",
          "type": "uint256"
        },
        {
          "internalType": "uint256",
          "name": "numVotes",
          "type": "uint256"
        },
        {
          "internalType": "bytes32[]",
          "name": "proof",
          "type": "bytes32[]"
        }
      ],
      "name": "castVote",
      "outputs": [
        {
          "internalType": "uint256",
          "name": "",
          "type": "uint256"
        }
      ],
      "stateMutability": "nonpayable",
      "type": "function"
    },
    {
      "inputs": [
        {
          "internalType": "uint256",
          "name": "proposalId",
          "type": "uint256"
        },
        {
          "internalType": "uint8",
          "name": "support",
          "type": "uint8"
        },
        {
          "internalType": "uint256",
          "name": "numVotes",
          "type": "uint256"
        }
      ],
      "name": "castVoteWithoutProof",
      "outputs": [
        {
          "internalType": "uint256",
          "name": "",
          "type": "uint256"
        }
      ],
      "stateMutability": "nonpayable",
      "type": "function"
    },
    {
      "inputs": [
        {
          "internalType": "address",
          "name": "addressToCheck",
          "type": "address"
        },
        {
          "internalType": "uint256",
          "name": "amount",
          "type": "uint256"
        },
        {
          "internalType": "bytes32[]",
          "name": "proof",
          "type": "bytes32[]"
        },
        {
          "internalType": "bool",
          "name": "voting",
          "type": "bool"
        }
      ],
      "name": "checkProof",
      "outputs": [
        {
          "internalType": "bool",
          "name": "verified",
          "type": "bool"
        }
      ],
      "stateMutability": "view",
      "type": "function"
    },
    {
      "inputs": [
        {
          "internalType": "address",
          "name": "userAddress",
          "type": "address"
        }
      ],
      "name": "contestAddressTotalVotesCast",
      "outputs": [
        {
          "internalType": "uint256",
          "name": "userTotalVotesCast",
          "type": "uint256"
        }
      ],
      "stateMutability": "view",
      "type": "function"
    },
    {
      "inputs": [],
      "name": "contestDeadline",
      "outputs": [
        {
          "internalType": "uint256",
          "name": "",
          "type": "uint256"
        }
      ],
      "stateMutability": "view",
      "type": "function"
    },
    {
      "inputs": [],
      "name": "contestStart",
      "outputs": [
        {
          "internalType": "uint256",
          "name": "",
          "type": "uint256"
        }
      ],
      "stateMutability": "view",
      "type": "function"
    },
    {
      "inputs": [],
      "name": "creator",
      "outputs": [
        {
          "internalType": "address",
          "name": "",
          "type": "address"
        }
      ],
      "stateMutability": "view",
      "type": "function"
    },
    {
      "inputs": [
        {
          "internalType": "uint256[]",
          "name": "proposalIdsToDelete",
          "type": "uint256[]"
        }
      ],
      "name": "deleteProposals",
      "outputs": [],
      "stateMutability": "nonpayable",
      "type": "function"
    },
    {
      "inputs": [
        {
          "internalType": "uint256",
          "name": "",
          "type": "uint256"
        }
      ],
      "name": "deletedProposalIds",
      "outputs": [
        {
          "internalType": "uint256",
          "name": "",
          "type": "uint256"
        }
      ],
      "stateMutability": "view",
      "type": "function"
    },
    {
      "inputs": [],
      "name": "downvotingAllowed",
      "outputs": [
        {
          "internalType": "uint256",
          "name": "",
          "type": "uint256"
        }
      ],
      "stateMutability": "view",
      "type": "function"
    },
    {
      "inputs": [],
      "name": "eip712Domain",
      "outputs": [
        {
          "internalType": "bytes1",
          "name": "fields",
          "type": "bytes1"
        },
        {
          "internalType": "string",
          "name": "name",
          "type": "string"
        },
        {
          "internalType": "string",
          "name": "version",
          "type": "string"
        },
        {
          "internalType": "uint256",
          "name": "chainId",
          "type": "uint256"
        },
        {
          "internalType": "address",
          "name": "verifyingContract",
          "type": "address"
        },
        {
          "internalType": "bytes32",
          "name": "salt",
          "type": "bytes32"
        },
        {
          "internalType": "uint256[]",
          "name": "extensions",
          "type": "uint256[]"
        }
      ],
      "stateMutability": "view",
      "type": "function"
    },
    {
      "inputs": [],
      "name": "getAllAddressesThatHaveVoted",
      "outputs": [
        {
          "internalType": "address[]",
          "name": "",
          "type": "address[]"
        }
      ],
      "stateMutability": "view",
      "type": "function"
    },
    {
      "inputs": [],
      "name": "getAllDeletedProposalIds",
      "outputs": [
        {
          "internalType": "uint256[]",
          "name": "",
          "type": "uint256[]"
        }
      ],
      "stateMutability": "view",
      "type": "function"
    },
    {
      "inputs": [],
      "name": "getAllProposalAuthors",
      "outputs": [
        {
          "internalType": "address[]",
          "name": "",
          "type": "address[]"
        }
      ],
      "stateMutability": "view",
      "type": "function"
    },
    {
      "inputs": [],
      "name": "getAllProposalIds",
      "outputs": [
        {
          "internalType": "uint256[]",
          "name": "",
          "type": "uint256[]"
        }
      ],
      "stateMutability": "view",
      "type": "function"
    },
    {
      "inputs": [
        {
          "internalType": "address",
          "name": "account",
          "type": "address"
        }
      ],
      "name": "getNumSubmissions",
      "outputs": [
        {
          "internalType": "uint256",
          "name": "",
          "type": "uint256"
        }
      ],
      "stateMutability": "view",
      "type": "function"
    },
    {
      "inputs": [
        {
          "internalType": "uint256",
          "name": "proposalId",
          "type": "uint256"
        }
      ],
      "name": "getProposal",
      "outputs": [
        {
          "components": [
            {
              "internalType": "address",
              "name": "author",
              "type": "address"
            },
            {
              "internalType": "bool",
              "name": "exists",
              "type": "bool"
            },
            {
              "internalType": "string",
              "name": "description",
              "type": "string"
            },
            {
              "components": [
                {
                  "internalType": "address",
                  "name": "targetAddress",
                  "type": "address"
                }
              ],
              "internalType": "struct IGovernor.TargetMetadata",
              "name": "targetMetadata",
              "type": "tuple"
            },
            {
              "components": [
                {
                  "internalType": "address[]",
                  "name": "signers",
                  "type": "address[]"
                },
                {
                  "internalType": "uint256",
                  "name": "threshold",
                  "type": "uint256"
                }
              ],
              "internalType": "struct IGovernor.SafeMetadata",
              "name": "safeMetadata",
              "type": "tuple"
            }
          ],
          "internalType": "struct IGovernor.ProposalCore",
          "name": "",
          "type": "tuple"
        }
      ],
      "stateMutability": "view",
      "type": "function"
    },
    {
      "inputs": [
        {
          "components": [
            {
              "internalType": "address",
              "name": "author",
              "type": "address"
            },
            {
              "internalType": "bool",
              "name": "exists",
              "type": "bool"
            },
            {
              "internalType": "string",
              "name": "description",
              "type": "string"
            },
            {
              "components": [
                {
                  "internalType": "address",
                  "name": "targetAddress",
                  "type": "address"
                }
              ],
              "internalType": "struct IGovernor.TargetMetadata",
              "name": "targetMetadata",
              "type": "tuple"
            },
            {
              "components": [
                {
                  "internalType": "address[]",
                  "name": "signers",
                  "type": "address[]"
                },
                {
                  "internalType": "uint256",
                  "name": "threshold",
                  "type": "uint256"
                }
              ],
              "internalType": "struct IGovernor.SafeMetadata",
              "name": "safeMetadata",
              "type": "tuple"
            }
          ],
          "internalType": "struct IGovernor.ProposalCore",
          "name": "proposal",
          "type": "tuple"
        }
      ],
      "name": "hashProposal",
      "outputs": [
        {
          "internalType": "uint256",
          "name": "",
          "type": "uint256"
        }
      ],
      "stateMutability": "pure",
      "type": "function"
    },
    {
      "inputs": [],
      "name": "highestTiedRanking",
      "outputs": [
        {
          "internalType": "uint256",
          "name": "",
          "type": "uint256"
        }
      ],
      "stateMutability": "view",
      "type": "function"
    },
    {
      "inputs": [
        {
          "internalType": "uint256",
          "name": "proposalId",
          "type": "uint256"
        }
      ],
      "name": "isProposalDeleted",
      "outputs": [
        {
          "internalType": "bool",
          "name": "",
          "type": "bool"
        }
      ],
      "stateMutability": "view",
      "type": "function"
    },
    {
      "inputs": [
        {
          "internalType": "uint256",
          "name": "ranking",
          "type": "uint256"
        }
      ],
      "name": "isTied",
      "outputs": [
        {
          "internalType": "bool",
          "name": "",
          "type": "bool"
        }
      ],
      "stateMutability": "view",
      "type": "function"
    },
    {
      "inputs": [],
      "name": "lowestRanking",
      "outputs": [
        {
          "internalType": "uint256",
          "name": "",
          "type": "uint256"
        }
      ],
      "stateMutability": "view",
      "type": "function"
    },
    {
      "inputs": [],
      "name": "maxProposalCount",
      "outputs": [
        {
          "internalType": "uint256",
          "name": "",
          "type": "uint256"
        }
      ],
      "stateMutability": "view",
      "type": "function"
    },
    {
      "inputs": [],
      "name": "name",
      "outputs": [
        {
          "internalType": "string",
          "name": "",
          "type": "string"
        }
      ],
      "stateMutability": "view",
      "type": "function"
    },
    {
      "inputs": [],
      "name": "numAllowedProposalSubmissions",
      "outputs": [
        {
          "internalType": "uint256",
          "name": "",
          "type": "uint256"
        }
      ],
      "stateMutability": "view",
      "type": "function"
    },
    {
      "inputs": [
        {
          "internalType": "address",
          "name": "",
          "type": "address"
        }
      ],
      "name": "numSubmissions",
      "outputs": [
        {
          "internalType": "uint256",
          "name": "",
          "type": "uint256"
        }
      ],
      "stateMutability": "view",
      "type": "function"
    },
    {
      "inputs": [],
      "name": "officialRewardsModule",
      "outputs": [
        {
          "internalType": "contract RewardsModule",
          "name": "",
          "type": "address"
        }
      ],
      "stateMutability": "view",
      "type": "function"
    },
    {
      "inputs": [],
      "name": "prompt",
      "outputs": [
        {
          "internalType": "string",
          "name": "",
          "type": "string"
        }
      ],
      "stateMutability": "view",
      "type": "function"
    },
    {
      "inputs": [
        {
          "internalType": "uint256",
          "name": "proposalId",
          "type": "uint256"
        },
        {
          "internalType": "address",
          "name": "userAddress",
          "type": "address"
        }
      ],
      "name": "proposalAddressVotes",
      "outputs": [
        {
          "internalType": "uint256",
          "name": "forVotes",
          "type": "uint256"
        },
        {
          "internalType": "uint256",
          "name": "againstVotes",
          "type": "uint256"
        }
      ],
      "stateMutability": "view",
      "type": "function"
    },
    {
      "inputs": [
        {
          "internalType": "uint256",
          "name": "proposalId",
          "type": "uint256"
        }
      ],
      "name": "proposalAddressesHaveVoted",
      "outputs": [
        {
          "internalType": "address[]",
          "name": "",
          "type": "address[]"
        }
      ],
      "stateMutability": "view",
      "type": "function"
    },
    {
      "inputs": [
        {
          "internalType": "uint256",
          "name": "",
          "type": "uint256"
        }
      ],
      "name": "proposalAuthors",
      "outputs": [
        {
          "internalType": "address",
          "name": "",
          "type": "address"
        }
      ],
      "stateMutability": "view",
      "type": "function"
    },
    {
      "inputs": [
        {
          "internalType": "uint256",
          "name": "",
          "type": "uint256"
        }
      ],
      "name": "proposalIds",
      "outputs": [
        {
          "internalType": "uint256",
          "name": "",
          "type": "uint256"
        }
      ],
      "stateMutability": "view",
      "type": "function"
    },
    {
      "inputs": [
        {
          "internalType": "uint256",
          "name": "",
          "type": "uint256"
        }
      ],
      "name": "proposalIsDeleted",
      "outputs": [
        {
          "internalType": "bool",
          "name": "",
          "type": "bool"
        }
      ],
      "stateMutability": "view",
      "type": "function"
    },
    {
      "inputs": [
        {
          "internalType": "uint256",
          "name": "proposalId",
          "type": "uint256"
        }
      ],
      "name": "proposalVotes",
      "outputs": [
        {
          "internalType": "uint256",
          "name": "forVotes",
          "type": "uint256"
        },
        {
          "internalType": "uint256",
          "name": "againstVotes",
          "type": "uint256"
        }
      ],
      "stateMutability": "view",
      "type": "function"
    },
    {
      "inputs": [
        {
          "internalType": "uint256",
          "name": "",
          "type": "uint256"
        }
      ],
      "name": "proposalVotesStructs",
      "outputs": [
        {
          "components": [
            {
              "internalType": "uint256",
              "name": "forVotes",
              "type": "uint256"
            },
            {
              "internalType": "uint256",
              "name": "againstVotes",
              "type": "uint256"
            }
          ],
          "internalType": "struct GovernorCountingSimple.VoteCounts",
          "name": "proposalVoteCounts",
          "type": "tuple"
        }
      ],
      "stateMutability": "view",
      "type": "function"
    },
    {
      "inputs": [
        {
          "internalType": "uint256",
          "name": "",
          "type": "uint256"
        }
      ],
      "name": "proposals",
      "outputs": [
        {
          "internalType": "address",
          "name": "author",
          "type": "address"
        },
        {
          "internalType": "bool",
          "name": "exists",
          "type": "bool"
        },
        {
          "internalType": "string",
          "name": "description",
          "type": "string"
        },
        {
          "components": [
            {
              "internalType": "address",
              "name": "targetAddress",
              "type": "address"
            }
          ],
          "internalType": "struct IGovernor.TargetMetadata",
          "name": "targetMetadata",
          "type": "tuple"
        },
        {
          "components": [
            {
              "internalType": "address[]",
              "name": "signers",
              "type": "address[]"
            },
            {
              "internalType": "uint256",
              "name": "threshold",
              "type": "uint256"
            }
          ],
          "internalType": "struct IGovernor.SafeMetadata",
          "name": "safeMetadata",
          "type": "tuple"
        }
      ],
      "stateMutability": "view",
      "type": "function"
    },
    {
      "inputs": [
        {
          "components": [
            {
              "internalType": "address",
              "name": "author",
              "type": "address"
            },
            {
              "internalType": "bool",
              "name": "exists",
              "type": "bool"
            },
            {
              "internalType": "string",
              "name": "description",
              "type": "string"
            },
            {
              "components": [
                {
                  "internalType": "address",
                  "name": "targetAddress",
                  "type": "address"
                }
              ],
              "internalType": "struct IGovernor.TargetMetadata",
              "name": "targetMetadata",
              "type": "tuple"
            },
            {
              "components": [
                {
                  "internalType": "address[]",
                  "name": "signers",
                  "type": "address[]"
                },
                {
                  "internalType": "uint256",
                  "name": "threshold",
                  "type": "uint256"
                }
              ],
              "internalType": "struct IGovernor.SafeMetadata",
              "name": "safeMetadata",
              "type": "tuple"
            }
          ],
          "internalType": "struct IGovernor.ProposalCore",
          "name": "proposal",
          "type": "tuple"
        },
        {
          "internalType": "bytes32[]",
          "name": "proof",
          "type": "bytes32[]"
        }
      ],
      "name": "propose",
      "outputs": [
        {
          "internalType": "uint256",
          "name": "",
          "type": "uint256"
        }
      ],
      "stateMutability": "nonpayable",
      "type": "function"
    },
    {
      "inputs": [
        {
          "components": [
            {
              "internalType": "address",
              "name": "author",
              "type": "address"
            },
            {
              "internalType": "bool",
              "name": "exists",
              "type": "bool"
            },
            {
              "internalType": "string",
              "name": "description",
              "type": "string"
            },
            {
              "components": [
                {
                  "internalType": "address",
                  "name": "targetAddress",
                  "type": "address"
                }
              ],
              "internalType": "struct IGovernor.TargetMetadata",
              "name": "targetMetadata",
              "type": "tuple"
            },
            {
              "components": [
                {
                  "internalType": "address[]",
                  "name": "signers",
                  "type": "address[]"
                },
                {
                  "internalType": "uint256",
                  "name": "threshold",
                  "type": "uint256"
                }
              ],
              "internalType": "struct IGovernor.SafeMetadata",
              "name": "safeMetadata",
              "type": "tuple"
            }
          ],
          "internalType": "struct IGovernor.ProposalCore",
          "name": "proposal",
          "type": "tuple"
        }
      ],
      "name": "proposeWithoutProof",
      "outputs": [
        {
          "internalType": "uint256",
          "name": "",
          "type": "uint256"
        }
      ],
      "stateMutability": "nonpayable",
      "type": "function"
    },
    {
      "inputs": [
        {
          "internalType": "uint256",
          "name": "ranking",
          "type": "uint256"
        }
      ],
      "name": "rankingPosition",
      "outputs": [
        {
          "internalType": "uint256",
          "name": "",
          "type": "uint256"
        }
      ],
      "stateMutability": "view",
      "type": "function"
    },
    {
      "inputs": [
        {
          "internalType": "contract RewardsModule",
          "name": "officialRewardsModule_",
          "type": "address"
        }
      ],
      "name": "setOfficialRewardsModule",
      "outputs": [],
      "stateMutability": "nonpayable",
      "type": "function"
    },
    {
      "inputs": [],
      "name": "setSortedAndTiedProposals",
      "outputs": [],
      "stateMutability": "nonpayable",
      "type": "function"
    },
    {
      "inputs": [],
      "name": "setSortedAndTiedProposalsHasBeenRun",
      "outputs": [
        {
          "internalType": "bool",
          "name": "",
          "type": "bool"
        }
      ],
      "stateMutability": "view",
      "type": "function"
    },
    {
      "inputs": [],
      "name": "sortedProposalIds",
      "outputs": [
        {
          "internalType": "uint256[]",
          "name": "",
          "type": "uint256[]"
        }
      ],
      "stateMutability": "view",
      "type": "function"
    },
    {
      "inputs": [
        {
          "internalType": "bool",
          "name": "excludeDeletedProposals",
          "type": "bool"
        }
      ],
      "name": "sortedProposals",
      "outputs": [
        {
          "internalType": "uint256[]",
          "name": "sortedProposalIdsReturn",
          "type": "uint256[]"
        }
      ],
      "stateMutability": "view",
      "type": "function"
    },
    {
      "inputs": [],
      "name": "state",
      "outputs": [
        {
          "internalType": "enum IGovernor.ContestState",
          "name": "",
          "type": "uint8"
        }
      ],
      "stateMutability": "view",
      "type": "function"
    },
    {
      "inputs": [],
      "name": "submissionMerkleRoot",
      "outputs": [
        {
          "internalType": "bytes32",
          "name": "",
          "type": "bytes32"
        }
      ],
      "stateMutability": "view",
      "type": "function"
    },
    {
      "inputs": [
        {
          "internalType": "bytes4",
          "name": "interfaceId",
          "type": "bytes4"
        }
      ],
      "name": "supportsInterface",
      "outputs": [
        {
          "internalType": "bool",
          "name": "",
          "type": "bool"
        }
      ],
      "stateMutability": "view",
      "type": "function"
    },
    {
      "inputs": [
        {
          "internalType": "uint256",
          "name": "",
          "type": "uint256"
        }
      ],
      "name": "tiedAdjustedRankingPosition",
      "outputs": [
        {
          "internalType": "uint256",
          "name": "",
          "type": "uint256"
        }
      ],
      "stateMutability": "view",
      "type": "function"
    },
    {
      "inputs": [],
      "name": "totalVotesCast",
      "outputs": [
        {
          "internalType": "uint256",
          "name": "",
          "type": "uint256"
        }
      ],
      "stateMutability": "view",
      "type": "function"
    },
    {
      "inputs": [
        {
          "components": [
            {
              "internalType": "address",
              "name": "author",
              "type": "address"
            },
            {
              "internalType": "bool",
              "name": "exists",
              "type": "bool"
            },
            {
              "internalType": "string",
              "name": "description",
              "type": "string"
            },
            {
              "components": [
                {
                  "internalType": "address",
                  "name": "targetAddress",
                  "type": "address"
                }
              ],
              "internalType": "struct IGovernor.TargetMetadata",
              "name": "targetMetadata",
              "type": "tuple"
            },
            {
              "components": [
                {
                  "internalType": "address[]",
                  "name": "signers",
                  "type": "address[]"
                },
                {
                  "internalType": "uint256",
                  "name": "threshold",
                  "type": "uint256"
                }
              ],
              "internalType": "struct IGovernor.SafeMetadata",
              "name": "safeMetadata",
              "type": "tuple"
            }
          ],
          "internalType": "struct IGovernor.ProposalCore",
          "name": "proposal",
          "type": "tuple"
        }
      ],
      "name": "validateProposalData",
      "outputs": [
        {
          "internalType": "bool",
          "name": "dataValidated",
          "type": "bool"
        }
      ],
      "stateMutability": "nonpayable",
      "type": "function"
    },
    {
      "inputs": [
        {
          "internalType": "address",
          "name": "account",
          "type": "address"
        },
        {
          "internalType": "bytes32[]",
          "name": "proof",
          "type": "bytes32[]"
        }
      ],
      "name": "verifyProposer",
      "outputs": [
        {
          "internalType": "bool",
          "name": "verified",
          "type": "bool"
        }
      ],
      "stateMutability": "nonpayable",
      "type": "function"
    },
    {
      "inputs": [
        {
          "internalType": "address",
          "name": "account",
          "type": "address"
        },
        {
          "internalType": "uint256",
          "name": "totalVotes",
          "type": "uint256"
        },
        {
          "internalType": "bytes32[]",
          "name": "proof",
          "type": "bytes32[]"
        }
      ],
      "name": "verifyVoter",
      "outputs": [
        {
          "internalType": "bool",
          "name": "verified",
          "type": "bool"
        }
      ],
      "stateMutability": "nonpayable",
      "type": "function"
    },
    {
      "inputs": [],
      "name": "version",
      "outputs": [
        {
          "internalType": "string",
          "name": "",
          "type": "string"
        }
      ],
      "stateMutability": "view",
      "type": "function"
    },
    {
      "inputs": [],
      "name": "voteStart",
      "outputs": [
        {
          "internalType": "uint256",
          "name": "",
          "type": "uint256"
        }
      ],
      "stateMutability": "view",
      "type": "function"
    },
    {
      "inputs": [],
      "name": "votingDelay",
      "outputs": [
        {
          "internalType": "uint256",
          "name": "",
          "type": "uint256"
        }
      ],
      "stateMutability": "view",
      "type": "function"
    },
    {
      "inputs": [],
      "name": "votingMerkleRoot",
      "outputs": [
        {
          "internalType": "bytes32",
          "name": "",
          "type": "bytes32"
        }
      ],
      "stateMutability": "view",
      "type": "function"
    },
    {
      "inputs": [],
      "name": "votingPeriod",
      "outputs": [
        {
          "internalType": "uint256",
          "name": "",
          "type": "uint256"
        }
      ],
      "stateMutability": "view",
      "type": "function"
    }
  ],
  "bytecode": {
    "object": "0x6101a06040526019805460ff191690553480156200001c57600080fd5b5060405162004bfa38038062004bfa8339810160408190526200003f9162000622565b8060008151811062000055576200005562000733565b60200260200101518160018151811062000073576200007362000733565b60200260200101518260028151811062000091576200009162000733565b602002602001015183600381518110620000af57620000af62000733565b602002602001015184600481518110620000cd57620000cd62000733565b602002602001015185600581518110620000eb57620000eb62000733565b60200260200101518a8a8a8a8181856200010a6200025060201b60201c565b620001178260006200026e565b61012052620001288160016200026e565b61014052815160208084019190912060e052815190820120610100524660a052620001b660e05161010051604080517f8b73c3c69bb8fe3d512ecc4cf759cc79239f7b179b0ffacaa9a75d522b39400f60208201529081019290925260608201524660808201523060a082015260009060c00160405160208183030381529060405280519060200120905090565b60805250503060c05261016091909152610180526002620001d88582620007d8565b506003620001e78482620007d8565b5050505050620001fd86620002a760201b60201c565b6200020885620002e8565b620002138462000329565b6200021e83620003d0565b620002298262000411565b620002348162000452565b6200023f3362000493565b5050505050505050505050620008fe565b604080518082019091526004815263332e313760e01b602082015290565b60006020835110156200028e576200028683620004fc565b9050620002a1565b816200029b8482620007d8565b5060ff90505b92915050565b600f5460408051918252602082018390527fd299feb1d7d9345a48559601c471c3be7eea9a11f21d5e86809198f40a974db4910160405180910390a1600f55565b60105460408051918252602082018390527fc565b045403dc03c2eea82b81a0465edad9e2e7fc4d97e11421c209da93d7a93910160405180910390a1601055565b600081116200038f5760405162461bcd60e51b815260206004820152602760248201527f476f7665726e6f7253657474696e67733a20766f74696e6720706572696f6420604482015266746f6f206c6f7760c81b60648201526084015b60405180910390fd5b60115460408051918252602082018390527f7e3f7f0708a84de9203036abaa450dccc85ad5ff52f78c170f3edb55cf5e8828910160405180910390a1601155565b60125460408051918252602082018390527fe971b819c7fb95c72451f557226aceb5baaf4994a9d39a79bbfa0040e87500b9910160405180910390a1601255565b60135460408051918252602082018390527f4984ec996723330ee95979ed65a2a4b41edd914e68a187efe92596474643bdff910160405180910390a1601355565b60145460408051918252602082018390527f9c7b27f091caef3a83be73d89320404fa0c4a52993685ff0651672e49e6e55ab910160405180910390a1601455565b601554604080516001600160a01b03928316815291831660208301527fc30034fc2e9697980e08935bbc287db3eaa44a4aa113ef4c108b356adbf911ce910160405180910390a1601580546001600160a01b0319166001600160a01b0392909216919091179055565b600080829050601f815111156200052a578260405163305a27a960e01b8152600401620003869190620008a4565b80516200053782620008d9565b179392505050565b634e487b7160e01b600052604160045260246000fd5b604051601f8201601f191681016001600160401b03811182821017156200058057620005806200053f565b604052919050565b60005b83811015620005a55781810151838201526020016200058b565b50506000910152565b600082601f830112620005c057600080fd5b81516001600160401b03811115620005dc57620005dc6200053f565b620005f1601f8201601f191660200162000555565b8181528460208386010111156200060757600080fd5b6200061a82602083016020870162000588565b949350505050565b600080600080600060a086880312156200063b57600080fd5b85516001600160401b03808211156200065357600080fd5b6200066189838a01620005ae565b96506020915081880151818111156200067957600080fd5b620006878a828b01620005ae565b9650506040880151945060608801519350608088015181811115620006ab57600080fd5b8801601f81018a13620006bd57600080fd5b805182811115620006d257620006d26200053f565b8060051b9250620006e584840162000555565b818152928201840192848101908c8511156200070057600080fd5b928501925b84841015620007205783518252928501929085019062000705565b8096505050505050509295509295909350565b634e487b7160e01b600052603260045260246000fd5b600181811c908216806200075e57607f821691505b6020821081036200077f57634e487b7160e01b600052602260045260246000fd5b50919050565b601f821115620007d357600081815260208120601f850160051c81016020861015620007ae5750805b601f850160051c820191505b81811015620007cf57828155600101620007ba565b5050505b505050565b81516001600160401b03811115620007f457620007f46200053f565b6200080c8162000805845462000749565b8462000785565b602080601f8311600181146200084457600084156200082b5750858301515b600019600386901b1c1916600185901b178555620007cf565b600085815260208120601f198616915b82811015620008755788860151825594840194600190910190840162000854565b5085821015620008945787850151600019600388901b60f8161c191681555b5050505050600190811b01905550565b6020815260008251806020840152620008c581604085016020870162000588565b601f01601f19169190910160400192915050565b805160208083015191908110156200077f5760001960209190910360031b1b16919050565b60805160a05160c05160e051610100516101205161014051610160516101805161427e6200097c600039600081816108e40152610f0201526000818161083d01528181610ce901528181610e9d01526111ff01526000611610015260006115e60152600050506000505060005050600050506000505061427e6000f3fe608060405234801561001057600080fd5b50600436106104065760003560e01c806375e509c511610220578063c19d93fb11610130578063ea8a1af0116100b8578063f0a7db0a11610087578063f0a7db0a14610981578063f4f3d7ec14610994578063f79c0172146109a7578063fb8ddab4146109ca578063fb9bf8d4146109dd57600080fd5b8063ea8a1af01461094e578063ebc18b9b14610956578063eef18e171461095e578063efa90d361461097957600080fd5b8063d8891619116100ff578063d8891619146108d2578063dd96a19d146108df578063dea5f6a614610906578063e031535b14610926578063e5eb5a481461092e57600080fd5b8063c19d93fb14610872578063c7f758a814610887578063cb853950146108a7578063d45a010b146108ca57600080fd5b8063930de979116101b3578063a1ac6cb211610182578063a1ac6cb2146107dc578063aec116b6146107fc578063b323580d14610825578063bddc164114610838578063c0ffaa781461085f57600080fd5b8063930de97914610794578063946369b5146107b757806396f0e962146107bf5780639b644a23146107c957600080fd5b8063832009af116101ef578063832009af1461075657806384b0196e1461075e57806386187488146107795780638a9cd5501461078c57600080fd5b806375e509c514610712578063785ddfe5146107325780637c65d711146107455780637de418d51461074d57600080fd5b80633b6d199b1161031b57806350c4b616116102ae5780635f953a031161027d5780635f953a03146106b357806360506ff6146106dc57806365f16263146106e45780636ca1a2c7146106f75780636e4eb810146106ff57600080fd5b806350c4b61614610630578063531bd81214610643578063544ffc9c1461065657806354fd4d501461069357600080fd5b8063458da87d116102ea578063458da87d146105ec578063476f4d8a146105ff5780634d24a67f1461061257806350a5e5241461061a57600080fd5b80633b6d199b146105965780633f9942ff146105b9578063419c533c146105c6578063427d56c2146105d957600080fd5b80630aa25e441161039e578063262e59e91161036d578063262e59e91461054f5780632c39805f1461055757806332763c221461056c578063347cf6651461057f5780633932abb11461058e57600080fd5b80630aa25e44146105015780631242b7371461051457806320b3e845146105295780632399c6601461053c57600080fd5b806302d05d3f116103da57806302d05d3f1461047557806305846cae1461049557806306fdde03146104a8578063070dc5d9146104bd57600080fd5b80624114a81461040b578063013cf08b1461042657806301ffc9a71461044a57806302a251a31461046d575b600080fd5b6104136109e5565b6040519081526020015b60405180910390f35b6104396104343660046134fb565b6109f5565b60405161041d9594939291906135b3565b61045d610458366004613605565b610b3d565b604051901515815260200161041d565b610413610b74565b61047d610b7f565b6040516001600160a01b03909116815260200161041d565b6104136104a33660046134fb565b610b93565b6104b0610bb4565b60405161041d919061362f565b6104f46104cb3660046134fb565b601860209081526000918252604091829020825180840190935280548352600101549082015281565b60405161041d9190613642565b61047d61050f3660046134fb565b610c46565b61051c610c70565b60405161041d9190613694565b61045d610537366004613703565b610cc7565b61045d61054a3660046134fb565b610d5d565b610413610da1565b61055f610dbd565b60405161041d9190613757565b61045d61057a3660046137b9565b610e1e565b610413678ac7230489e8000081565b610413610f5b565b61045d6105a43660046134fb565b60009081526006602052604090205460ff1690565b60075461045d9060ff1681565b6104136105d436600461383a565b610f66565b61051c6105e73660046138aa565b611022565b6104136105fa366004613b61565b6111ca565b61041361060d366004613bad565b6111fb565b61041361128b565b610622611299565b60405161041d929190613be1565b61047d61063e3660046134fb565b6113e8565b61045d610651366004613c4a565b6113f8565b61067e6106643660046134fb565b600090815260186020526040902080546001909101549091565b6040805192835260208301919091520161041d565b604080518082019091526004815263332e313760e01b60208201526104b0565b6104136106c1366004613ca5565b6001600160a01b031660009081526009602052604090205490565b610413611463565b6104136106f2366004613cc2565b61146e565b61041361155d565b61067e61070d366004613cf7565b611589565b610413610720366004613ca5565b60096020526000908152604090205481565b601f5461047d906001600160a01b031681565b6104b06115be565b61041360165481565b6104136115cd565b6107666115d8565b60405161041d9796959493929190613d27565b6104136107873660046134fb565b611660565b61051c611698565b61045d6107a2366004613ca5565b600d6020526000908152604090205460ff1681565b61055f611711565b6107c7611771565b005b6104136107d73660046134fb565b611a8e565b6104136107ea366004613ca5565b60176020526000908152604090205481565b61041361080a366004613ca5565b6001600160a01b031660009081526017602052604090205490565b61055f6108333660046134fb565b611a9e565b6104137f000000000000000000000000000000000000000000000000000000000000000081565b61041361086d366004613d97565b611b10565b61087a611b75565b60405161041d9190613e08565b61089a6108953660046134fb565b611be7565b60405161041d9190613e30565b61045d6108b5366004613ca5565b600e6020526000908152604090205460ff1681565b610622611d61565b60195461045d9060ff1681565b6104137f000000000000000000000000000000000000000000000000000000000000000081565b610413610914366004613ca5565b600c6020526000908152604090205481565b610413611f75565b61041361093c3660046134fb565b601a6020526000908152604090205481565b6107c7611f87565b6104136120f1565b61047d73dc652c746a8f85e18ce632d97c6118e8a52fa73881565b61051c61211d565b6107c761098f366004613e97565b612173565b6107c76109a2366004613ca5565b612383565b61045d6109b53660046134fb565b60066020526000908152604090205460ff1681565b61045d6109d8366004613b61565b612480565b61041361271f565b60006109f0600f5490565b905090565b600860205260009081526040902080546001820180546001600160a01b03831693600160a01b90930460ff16929190610a2d90613ed8565b80601f0160208091040260200160405190810160405280929190818152602001828054610a5990613ed8565b8015610aa65780601f10610a7b57610100808354040283529160200191610aa6565b820191906000526020600020905b815481529060010190602001808311610a8957829003601f168201915b5050604080516020808201835260028801546001600160a01b031682528251600389018054606093810283018401865294820185815298999398939750909550935084928491840182828015610b2557602002820191906000526020600020905b81546001600160a01b03168152600190910190602001808311610b07575b50505050508152602001600182015481525050905085565b60006001600160e01b031982166319cbae6160e11b1480610b6e57506301ffc9a760e01b6001600160e01b03198316145b92915050565b60006109f060115490565b60006109f06015546001600160a01b031690565b60058181548110610ba357600080fd5b600091825260209091200154905081565b606060028054610bc390613ed8565b80601f0160208091040260200160405190810160405280929190818152602001828054610bef90613ed8565b8015610c3c5780601f10610c1157610100808354040283529160200191610c3c565b820191906000526020600020905b815481529060010190602001808311610c1f57829003601f168201915b5050505050905090565b600a8181548110610c5657600080fd5b6000918252602090912001546001600160a01b0316905081565b60606005805480602002602001604051908101604052809291908181526020018280548015610c3c57602002820191906000526020600020905b815481526020019060010190808311610caa575050505050905090565b6001600160a01b0383166000908152600e602052604081205460ff16610d52577f0000000000000000000000000000000000000000000000000000000000000000600003610d1757506001610d56565b610d2d84678ac7230489e8000085856000610e1e565b506001600160a01b0384166000908152600e60205260409020805460ff191660011790555b5060015b9392505050565b60195460009060ff16610d8b5760405162461bcd60e51b8152600401610d8290613f0c565b60405180910390fd5b506000908152601b602052604090205460ff1690565b6000610dab610b74565b610db3611f75565b6109f09190613f8d565b6060600b805480602002602001604051908101604052809291908181526020018280548015610c3c57602002820191906000526020600020905b81546001600160a01b03168152600190910190602001808311610df7575050505050905090565b6040516bffffffffffffffffffffffff19606087901b166020820152603481018590526000908190605401604051602081830303815290604052805190602001209050600083610ecd57610ec88686808060200260200160405190810160405280939291908181526020018383602002808284376000920191909152507f0000000000000000000000000000000000000000000000000000000000000000925086915061272a9050565b610f2d565b610f2d8686808060200260200160405190810160405280939291908181526020018383602002808284376000920191909152507f0000000000000000000000000000000000000000000000000000000000000000925086915061272a9050565b905080610f4d5760405163452c2df160e11b815260040160405180910390fd5b506001979650505050505050565b60006109f060105490565b600086815260066020526040812054339060ff1615610f975760405162461bcd60e51b8152600401610d8290613fa0565b610fa3818786866113f8565b61100a5760405162461bcd60e51b815260206004820152603260248201527f476f7665726e6f723a20746869732061646472657373206973206e6f74207065604482015271726d697373696f6e656420746f20766f746560701b6064820152608401610d82565b61101688828988612740565b98975050505050505050565b60606000808361103957611034611299565b611041565b611041611d61565b9150915060008251116110b15760405162461bcd60e51b815260206004820152603260248201527f476f7665726e6f72536f7274696e673a2063616e6e6f7420736f72742061206c6044820152710d2e6e840decc40f4cae4de40d8cadccee8d60731b6064820152608401610d82565b600082516001600160401b038111156110cc576110cc6138c5565b6040519080825280602002602001820160405280156110f5578160200160208202803683370190505b50905060005b82518110156111895761112a83828151811061111957611119613fef565b6020026020010151602001516129a2565b61115084838151811061113f5761113f613fef565b6020026020010151600001516129a2565b61115a9190614005565b82828151811061116c5761116c613fef565b6020908102919091010152806111818161402c565b9150506110fb565b5060005b6001845161119b9190614045565b8110156111c0576111ad818386612a10565b50806111b88161402c565b91505061118d565b5091949350505050565b6000816040516020016111dd9190613e30565b60408051601f19818403018152919052805160209091012092915050565b60007f00000000000000000000000000000000000000000000000000000000000000001561125257336000908152600e602052604090205460ff166112525760405162461bcd60e51b8152600401610d8290614058565b61125e6109d8836140a7565b61127a5760405162461bcd60e51b8152600401610d82906140b3565b610b6e611286836140a7565b612b76565b611296600180613f8d565b81565b606080600060048054806020026020016040519081016040528092919081815260200182805480156112ea57602002820191906000526020600020905b8154815260200190600101908083116112d6575b50505050509050600081516001600160401b0381111561130c5761130c6138c5565b60405190808252806020026020018201604052801561135157816020015b604080518082019091526000808252602082015281526020019060019003908161132a5790505b50905060005b82518110156113de576018600084838151811061137657611376613fef565b60200260200101518152602001908152602001600020600001604051806040016040529081600082015481526020016001820154815250508282815181106113c0576113c0613fef565b602002602001018190525080806113d69061402c565b915050611357565b5090939092509050565b600b8181548110610c5657600080fd5b6001600160a01b0384166000908152600d602052604081205460ff1661145857611426858585856001610e1e565b506001600160a01b0385166000908152600c60209081526040808320879055600d9091529020805460ff191660011790555b506001949350505050565b60006109f060145490565b600083815260066020526040812054339060ff161561149f5760405162461bcd60e51b8152600401610d8290613fa0565b6001600160a01b0381166000908152600d602052604090205460ff166115485760405162461bcd60e51b815260206004820152605260248201527f476f7665726e6f723a20796f75206e65656420746f2063617374206120766f7460448201527f652077697468207468652070726f6f66206174206c65617374206f6e636520616064820152711b99081e5bdd481a185d995b89dd081e595d60721b608482015260a401610d82565b61155485828686612740565b95945050505050565b60195460009060ff166115825760405162461bcd60e51b8152600401610d8290613f0c565b50601d5490565b60008281526018602090815260408083206001600160a01b0385168452600301909152902080546001909101545b9250929050565b606060038054610bc390613ed8565b60006109f060125490565b60006060808280808361160b7f000000000000000000000000000000000000000000000000000000000000000083612f57565b6116367f00000000000000000000000000000000000000000000000000000000000000006001612f57565b60408051600080825260208201909252600f60f81b9b939a50919850469750309650945092509050565b60195460009060ff166116855760405162461bcd60e51b8152600401610d8290613f0c565b506000908152601a602052604090205490565b60195460609060ff166116bd5760405162461bcd60e51b8152600401610d8290613f0c565b601c805480602002602001604051908101604052809291908181526020018280548015610c3c5760200282019190600052602060002090815481526020019060010190808311610caa575050505050905090565b6060600a805480602002602001604051908101604052809291908181526020018280548015610c3c576020028201919060005260206000209081546001600160a01b03168152600190910190602001808311610df7575050505050905090565b600461177b611b75565b600481111561178c5761178c613df2565b1461180f5760405162461bcd60e51b815260206004820152604760248201527f476f7665726e6f72536f7274696e673a20636f6e74657374206d75737420626560448201527f20746f2063616c63756c61746520736f7274656420616e6420746965642070726064820152666f706f73616c7360c81b608482015260a401610d82565b60195460ff16156118ae5760405162461bcd60e51b815260206004820152605f60248201527f476f7665726e6f72536f7274696e673a20736574536f72746564416e6454696560448201527f6450726f706f73616c7328292068617320616c7265616479206265656e20727560648201527f6e20616e642069747320726573706563746976652076616c7565732073657400608482015260a401610d82565b6118b86001611022565b80516118cc91601c916020909101906133d9565b50601c546000906001906118e09082613f8d565b601e55601c5460005b81811015611a7b57601c5460009061190390600190614045565b905060008061194c601c6119178686614045565b8154811061192757611927613fef565b9060005260206000200154600090815260186020526040902080546001909101549091565b91509150600061195b826129a2565b611964846129a2565b61196e9190614005565b9050846000036119a757601c54909750879060010361199e576000878152601a60205260409020849055601d8790555b50505050611a69565b8781036119ff576000878152601b602052604090205460ff166119de576000878152601b60205260409020805460ff191660011790555b601c546119ec906001613f8d565b601e54036119fa57601e8790555b611a31565b611a098585614045565b611a14906001613f8d565b6000888152601a602052604090205586611a2d8161402c565b9750505b601c54611a3f866001613f8d565b03611a6357611a4e8585614045565b6000888152601a6020526040902055601d8790555b96505050505b80611a738161402c565b9150506118e9565b50506019805460ff191660011790555050565b60048181548110610ba357600080fd5b6000818152601860209081526040918290206002810180548451818502810185019095528085526060949293830182828015611b0357602002820191906000526020600020905b81546001600160a01b03168152600190910190602001808311611ae5575b5050505050915050919050565b6000611b1d338484610cc7565b611b395760405162461bcd60e51b8152600401610d8290614058565b611b456109d8856140a7565b611b615760405162461bcd60e51b8152600401610d82906140b3565b611b6d611286856140a7565b949350505050565b60075460009060ff1615611b895750600290565b6000611b936109e5565b9050428110611ba457600091505090565b6000611bae611f75565b9050428110611bc05760039250505090565b6000611bca610da1565b9050428110611bdd576001935050505090565b6004935050505090565b611bef613420565b600082815260086020908152604091829020825160a08101845281546001600160a01b0381168252600160a01b900460ff161515928101929092526001810180549293919291840191611c4190613ed8565b80601f0160208091040260200160405190810160405280929190818152602001828054611c6d90613ed8565b8015611cba5780601f10611c8f57610100808354040283529160200191611cba565b820191906000526020600020905b815481529060010190602001808311611c9d57829003601f168201915b5050509183525050604080516020818101835260028501546001600160a01b03168252808401919091528151600385018054606093810283018401855282850181815294909501949193909284928491840182828015611d4357602002820191906000526020600020905b81546001600160a01b03168152600190910190602001808311611d25575b50505050508152602001600182015481525050815250509050919050565b60608060006004805480602002602001604051908101604052809291908181526020018280548015611db257602002820191906000526020600020905b815481526020019060010190808311611d9e575b50505050509050600081516001600160401b03811115611dd457611dd46138c5565b604051908082528060200260200182016040528015611dfd578160200160208202803683370190505b509050600082516001600160401b03811115611e1b57611e1b6138c5565b604051908082528060200260200182016040528015611e6057816020015b6040805180820190915260008082526020820152815260200190600190039081611e395790505b5090506000805b8451811015611f6957611ea2858281518110611e8557611e85613fef565b602002602001015160009081526006602052604090205460ff1690565b611f5757848181518110611eb857611eb8613fef565b6020026020010151848381518110611ed257611ed2613fef565b60200260200101818152505060186000868381518110611ef457611ef4613fef565b6020026020010151815260200190815260200160002060000160405180604001604052908160008201548152602001600182015481525050838381518110611f3e57611f3e613fef565b6020908102919091010152611f54600183613f8d565b91505b80611f618161402c565b915050611e67565b50919590945092505050565b6000611f7f610f5b565b610db36109e5565b611f8f610b7f565b6001600160a01b0316336001600160a01b03161480611fc157503373dc652c746a8f85e18ce632d97c6118e8a52fa738145b61202c5760405162461bcd60e51b815260206004820152603660248201527f476f7665726e6f723a206f6e6c792063726561746f72206f72206a6b206c61626044820152751cc818d85b8818d85b98d95b08184818dbdb9d195cdd60521b6064820152608401610d82565b6000612036611b75565b9050600281600481111561204c5761204c613df2565b1415801561206c5750600481600481111561206957612069613df2565b14155b6120b85760405162461bcd60e51b815260206004820152601c60248201527f476f7665726e6f723a20636f6e74657374206e6f7420616374697665000000006044820152606401610d82565b6007805460ff191660011790556040517f4cd963a081760a54f571abc0f1db4dde31b4a07d8d6da3e844b8c6f47eeaaa4290600090a150565b60195460009060ff166121165760405162461bcd60e51b8152600401610d8290613f0c565b50601e5490565b60606004805480602002602001604051908101604052809291908181526020018280548015610c3c5760200282019190600052602060002090815481526020019060010190808311610caa575050505050905090565b61217b610b7f565b6001600160a01b0316336001600160a01b0316146122015760405162461bcd60e51b815260206004820152603760248201527f476f7665726e6f723a206f6e6c792074686520636f6e7465737420637265617460448201527f6f722063616e2064656c6574652070726f706f73616c730000000000000000006064820152608401610d82565b600461220b611b75565b600481111561221c5761221c613df2565b036122a15760405162461bcd60e51b815260206004820152604960248201527f476f7665726e6f723a2064656c6574696f6e206f662070726f706f73616c732060448201527f61667465722074686520656e64206f66206120636f6e74657374206973206e6f6064820152681d08185b1b1bddd95960ba1b608482015260a401610d82565b60005b818110156123465760008383838181106122c0576122c0613fef565b60209081029290920135600081815260069093526040909220549192505060ff16612333576000818152600660205260408120805460ff191660019081179091556005805491820181559091527f036b6384b5eca791c62761152d0c79bb0604c104a5fb6f4eb0703f3154bb3db0018190555b508061233e8161402c565b9150506122a4565b507f75a75cf5c561892f4cc5b26c1b8e933849b42238c96dd073d080d1ae96c51416600460405161237791906140ff565b60405180910390a15050565b61238b610b7f565b6001600160a01b0316336001600160a01b0316146124265760405162461bcd60e51b815260206004820152604c60248201527f476f7665726e6f724d6f64756c6552656769737472793a206f6e6c792074686560448201527f2063726561746f722063616e2073657420746865206f6666696369616c20726560648201526b7761726473206d6f64756c6560a01b608482015260a401610d82565b601f80546001600160a01b038381166001600160a01b031983168117909355604080519190921680825260208201939093527f753a2cf8d360cff631674504210913e48247f8e56b3e6d2006c2103d4095999f9101612377565b80516000906001600160a01b031633146124f55760405162461bcd60e51b815260206004820152603060248201527f476f7665726e6f723a207468652070726f706f73616c20617574686f72206d7560448201526f39ba1031329036b9b39739b2b73232b960811b6064820152608401610d82565b60005b612503600180613f8d565b8110156126a357600081600181111561251e5761251e613df2565b9050600081600181111561253457612534613df2565b0361253f5750612691565b600181600181111561255357612553613df2565b0361267657608084015151516000036125e55760405162461bcd60e51b815260206004820152604860248201527f476f7665726e6f724d6574616461746156616c69646174696f6e3a207468657260448201527f652063616e6e6f74206265207a65726f207369676e65727320696e20736166656064820152674d6574616461746160c01b608482015260a401610d82565b8360800151602001516000036126715760405162461bcd60e51b8152602060048201526044602482018190527f476f7665726e6f724d6574616461746156616c69646174696f6e3a2074687265908201527f73686f6c642063616e6e6f74206265207a65726f20696e20736166654d6574616064820152636461746160e01b608482015260a401610d82565b61268f565b6040516308b6566d60e11b815260040160405180910390fd5b505b8061269b8161402c565b9150506124f8565b508160400151516000036127175760405162461bcd60e51b815260206004820152603560248201527f476f7665726e6f723a20656d7074792070726f706f73616c20646573637269706044820152741d1a5bdb9cc8185c99481b9bdd08185b1b1bddd959605a1b6064820152608401610d82565b506001919050565b60006109f060135490565b6000826127378584613003565b14949350505050565b6000600161274c611b75565b600481111561275d5761275d613df2565b146127b65760405162461bcd60e51b815260206004820152602360248201527f476f7665726e6f723a20766f7465206e6f742063757272656e746c792061637460448201526269766560e81b6064820152608401610d82565b6000821161281a5760405162461bcd60e51b815260206004820152602b60248201527f476f7665726e6f723a2063616e6e6f7420766f746520776974682030206f722060448201526a666577657220766f74657360a81b6064820152608401610d82565b6001600160a01b0384166000908152600d602052604090205460ff166128c05760405162461bcd60e51b815260206004820152604f60248201527f476f7665726e6f723a20796f75206e65656420746f2076657269667920796f7560448201527f72206e756d626572206f6620766f74657320616761696e737420746865206d6560648201526e1c9adb19481c9bdbdd08199a5c9cdd608a1b608482015260a401610d82565b6128f285858585600c60008a6001600160a01b03166001600160a01b0316815260200190815260200160002054613050565b600b80546001810182556000919091527f0175b7a638427703f0dbe7bb9bbf987a2551717b34e79f33b5b1008d1fa01db90180546001600160a01b031916331790556040805186815260ff851660208201529081018390526001600160a01b038516907f2c9deb38f462962eadbd85a9d3a4120503ee091f1582eaaa10aa8c6797651d299060600160405180910390a25050506001600160a01b03166000908152600c6020526040902054919050565b60006001600160ff1b03821115612a0c5760405162461bcd60e51b815260206004820152602860248201527f53616665436173743a2076616c756520646f65736e27742066697420696e2061604482015267371034b73a191a9b60c11b6064820152608401610d82565b5090565b600083805b8451811015612a6e57848281518110612a3057612a30613fef565b6020026020010151858281518110612a4a57612a4a613fef565b60200260200101511215612a5c578091505b80612a668161402c565b915050612a15565b50848103612a80576000915050610d56565b6000848681518110612a9457612a94613fef565b60200260200101519050848281518110612ab057612ab0613fef565b6020026020010151858781518110612aca57612aca613fef565b60200260200101818152505080858381518110612ae957612ae9613fef565b6020026020010181815250506000848781518110612b0957612b09613fef565b60200260200101519050848381518110612b2557612b25613fef565b6020026020010151858881518110612b3f57612b3f613fef565b60200260200101818152505080858481518110612b5e57612b5e613fef565b60209081029190910101525060019695505050505050565b60006003612b82611b75565b6004811115612b9357612b93613df2565b14612c065760405162461bcd60e51b815260206004820152603e60248201527f476f7665726e6f723a20636f6e74657374206d7573742062652071756575656460448201527f20666f722070726f706f73616c7320746f206265207375626d697474656400006064820152608401610d82565b612c0e6115cd565b3360009081526009602052604090205410612cc55760405162461bcd60e51b815260206004820152606560248201527f476f7665726e6f723a207468652073616d6520616464726573732063616e6e6f60448201527f74207375626d6974206d6f7265207468616e20746865206e756d416c6c6f776560648201527f6450726f706f73616c5375626d697373696f6e7320666f72207468697320636f6084820152641b9d195cdd60da1b60a482015260c401610d82565b612ccd61271f565b600554600454612cdd9190614045565b10612d505760405162461bcd60e51b815260206004820152603960248201527f476f7665726e6f723a20746865206d6178206e756d626572206f662070726f7060448201527f6f73616c732068617665206265656e207375626d6974746564000000000000006064820152608401610d82565b6000612d5b836111ca565b600081815260086020526040902054909150600160a01b900460ff1615612dd65760405162461bcd60e51b815260206004820152602960248201527f476f7665726e6f723a206475706c69636174652070726f706f73616c73206e6f6044820152681d08185b1b1bddd95960ba1b6064820152608401610d82565b6004805460018181019092557f8a35acfbc15ff81a39ae7d344fd709f28e8600b4aa8c65c6b64bfe7fe36bd19b0182905560008281526008602090815260409182902086518154928801511515600160a01b026001600160a81b03199093166001600160a01b0390911617919091178155908501518592820190612e5a9082614189565b506060820151516002820180546001600160a01b0319166001600160a01b039092169190911790556080820151805180516003840191612e9f91839160200190613491565b5060209182015160019182015533600090815260099092526040822080549194509250612ecd908490613f8d565b9091555050600a80546001810182556000919091527fc65a7bb8d6351c1cf70c95a316cc6a92839c986682d98bc35f958f4883f9d2a80180546001600160a01b031916339081179091556040805183815260208101929092527fcd423cc1203c0af96b9b3d68d73b3064a69de2d14450bb7181c5e5df2132b358910160405180910390a192915050565b606060ff8314612f7157612f6a83613346565b9050610b6e565b818054612f7d90613ed8565b80601f0160208091040260200160405190810160405280929190818152602001828054612fa990613ed8565b8015612ff65780601f10612fcb57610100808354040283529160200191612ff6565b820191906000526020600020905b815481529060010190602001808311612fd957829003601f168201915b5050505050905092915050565b600081815b8451811015613048576130348286838151811061302757613027613fef565b6020026020010151613385565b9150806130408161402c565b915050613008565b509392505050565b60008581526018602090815260408083206001600160a01b03881684526017909252909120546130809083614045565b8311156130eb5760405162461bcd60e51b815260206004820152603360248201527f476f7665726e6f72566f74696e6753696d706c653a206e6f7420656e6f756768604482015272081d9bdd195cc81b19599d081d1bc818d85cdd606a1b6064820152608401610d82565b6001600160a01b038516600090815260038201602052604081205415801561312e57506001600160a01b0386166000908152600383016020526040902060010154155b905060ff85166131865781548490839060009061314c908490613f8d565b90915550506001600160a01b03861660009081526003830160205260408120805486929061317b908490613f8d565b909155506132c09050565b60001960ff86160161325a5761319a611463565b600114613211576040805162461bcd60e51b81526020600482015260248101919091527f476f7665726e6f72566f74696e6753696d706c653a20646f776e766f74696e6760448201527f206973206e6f7420656e61626c656420666f72207468697320436f6e746573746064820152608401610d82565b838260000160010160008282546132289190613f8d565b90915550506001600160a01b03861660009081526003830160205260408120600101805486929061317b908490613f8d565b60405162461bcd60e51b815260206004820152603560248201527f476f7665726e6f72566f74696e6753696d706c653a20696e76616c69642076616044820152746c756520666f7220656e756d20566f74655479706560581b6064820152608401610d82565b80156132f757600282018054600181018255600091825260209091200180546001600160a01b0319166001600160a01b0388161790555b6001600160a01b0386166000908152601760205260408120805486929061331f908490613f8d565b9250508190555083601660008282546133389190613f8d565b909155505050505050505050565b60606000613353836133b1565b604080516020808252818301909252919250600091906020820181803683375050509182525060208101929092525090565b60008183106133a1576000828152602084905260409020610d56565b5060009182526020526040902090565b600060ff8216601f811115610b6e57604051632cd44ac360e21b815260040160405180910390fd5b828054828255906000526020600020908101928215613414579160200282015b828111156134145782518255916020019190600101906133f9565b50612a0c9291506134e6565b6040518060a0016040528060006001600160a01b031681526020016000151581526020016060815260200161346a604051806020016040528060006001600160a01b031681525090565b815260200161348c604051806040016040528060608152602001600081525090565b905290565b828054828255906000526020600020908101928215613414579160200282015b8281111561341457825182546001600160a01b0319166001600160a01b039091161782556020909201916001909101906134b1565b5b80821115612a0c57600081556001016134e7565b60006020828403121561350d57600080fd5b5035919050565b6000815180845260005b8181101561353a5760208185018101518683018201520161351e565b506000602082860101526020601f19601f83011685010191505092915050565b805160408084528151908401819052600091602091908201906060860190845b8181101561359f5783516001600160a01b03168352928401929184019160010161357a565b505093820151949091019390935250919050565b600060018060a01b038088168352861515602084015260a060408401526135dd60a0840187613514565b81865116606085015283810360808501526135f8818661355a565b9998505050505050505050565b60006020828403121561361757600080fd5b81356001600160e01b031981168114610d5657600080fd5b602081526000610d566020830184613514565b815181526020808301519082015260408101610b6e565b600081518084526020808501945080840160005b838110156136895781518752958201959082019060010161366d565b509495945050505050565b602081526000610d566020830184613659565b6001600160a01b03811681146136bc57600080fd5b50565b60008083601f8401126136d157600080fd5b5081356001600160401b038111156136e857600080fd5b6020830191508360208260051b85010111156115b757600080fd5b60008060006040848603121561371857600080fd5b8335613723816136a7565b925060208401356001600160401b0381111561373e57600080fd5b61374a868287016136bf565b9497909650939450505050565b6020808252825182820181905260009190848201906040850190845b818110156137985783516001600160a01b031683529284019291840191600101613773565b50909695505050505050565b803580151581146137b457600080fd5b919050565b6000806000806000608086880312156137d157600080fd5b85356137dc816136a7565b94506020860135935060408601356001600160401b038111156137fe57600080fd5b61380a888289016136bf565b909450925061381d9050606087016137a4565b90509295509295909350565b803560ff811681146137b457600080fd5b60008060008060008060a0878903121561385357600080fd5b8635955061386360208801613829565b9450604087013593506060870135925060808701356001600160401b0381111561388c57600080fd5b61389889828a016136bf565b979a9699509497509295939492505050565b6000602082840312156138bc57600080fd5b610d56826137a4565b634e487b7160e01b600052604160045260246000fd5b604080519081016001600160401b03811182821017156138fd576138fd6138c5565b60405290565b60405160a081016001600160401b03811182821017156138fd576138fd6138c5565b604051601f8201601f191681016001600160401b038111828210171561394d5761394d6138c5565b604052919050565b60006020828403121561396757600080fd5b604051602081018181106001600160401b0382111715613989576139896138c5565b604052905080823561399a816136a7565b905292915050565b6000604082840312156139b457600080fd5b6139bc6138db565b905081356001600160401b03808211156139d557600080fd5b818401915084601f8301126139e957600080fd5b81356020828211156139fd576139fd6138c5565b8160051b9250613a0e818401613925565b8281529284018101928181019088851115613a2857600080fd5b948201945b84861015613a525785359350613a42846136a7565b8382529482019490820190613a2d565b808752505080860135818601525050505092915050565b600060a08284031215613a7b57600080fd5b613a83613903565b90508135613a90816136a7565b81526020613a9f8382016137a4565b8183015260408301356001600160401b0380821115613abd57600080fd5b818501915085601f830112613ad157600080fd5b813581811115613ae357613ae36138c5565b613af5601f8201601f19168501613925565b8181528785838601011115613b0957600080fd5b818585018683013760008583830101528060408701525050613b2e8660608701613955565b60608501526080850135925080831115613b4757600080fd5b5050613b55848285016139a2565b60808301525092915050565b600060208284031215613b7357600080fd5b81356001600160401b03811115613b8957600080fd5b611b6d84828501613a69565b600060a08284031215613ba757600080fd5b50919050565b600060208284031215613bbf57600080fd5b81356001600160401b03811115613bd557600080fd5b611b6d84828501613b95565b60006040808352613bf481840186613659565b83810360208581019190915285518083528682019282019060005b81811015613c3c57613c2c83865180518252602090810151910152565b9383019391850191600101613c0f565b509098975050505050505050565b60008060008060608587031215613c6057600080fd5b8435613c6b816136a7565b93506020850135925060408501356001600160401b03811115613c8d57600080fd5b613c99878288016136bf565b95989497509550505050565b600060208284031215613cb757600080fd5b8135610d56816136a7565b600080600060608486031215613cd757600080fd5b83359250613ce760208501613829565b9150604084013590509250925092565b60008060408385031215613d0a57600080fd5b823591506020830135613d1c816136a7565b809150509250929050565b60ff60f81b8816815260e060208201526000613d4660e0830189613514565b8281036040840152613d588189613514565b606084018890526001600160a01b038716608085015260a0840186905283810360c08501529050613d898185613659565b9a9950505050505050505050565b600080600060408486031215613dac57600080fd5b83356001600160401b0380821115613dc357600080fd5b613dcf87838801613b95565b94506020860135915080821115613de557600080fd5b5061374a868287016136bf565b634e487b7160e01b600052602160045260246000fd5b6020810160058310613e2a57634e487b7160e01b600052602160045260246000fd5b91905290565b60208152600060018060a01b03808451166020840152602084015115156040840152604084015160a06060850152613e6b60c0850182613514565b90508160608601515116608085015260808501519150601f198482030160a0850152611554818361355a565b60008060208385031215613eaa57600080fd5b82356001600160401b03811115613ec057600080fd5b613ecc858286016136bf565b90969095509350505050565b600181811c90821680613eec57607f821691505b602082108103613ba757634e487b7160e01b600052602260045260246000fd5b60208082526045908201527f526577617264734d6f64756c653a2072756e20736574536f72746564416e645460408201527f69656450726f706f73616c73282920746f20706f70756c61746520746869732060608201526476616c756560d81b608082015260a00190565b634e487b7160e01b600052601160045260246000fd5b80820180821115610b6e57610b6e613f77565b6020808252602f908201527f476f7665726e6f723a20796f752063616e6e6f7420766f7465206f6e2061206460408201526e195b195d1959081c1c9bdc1bdcd85b608a1b606082015260800190565b634e487b7160e01b600052603260045260246000fd5b818103600083128015838313168383128216171561402557614025613f77565b5092915050565b60006001820161403e5761403e613f77565b5060010190565b81810381811115610b6e57610b6e613f77565b6020808252602f908201527f476f7665726e6f723a2061646472657373206973206e6f74207065726d69737360408201526e1a5bdb9959081d1bc81cdd589b5a5d608a1b606082015260800190565b6000610b6e3683613a69565b6020808252602c908201527f476f7665726e6f723a2070726f706f73616c20636f6e74656e74206661696c6560408201526b32103b30b634b230ba34b7b760a11b606082015260800190565b6020808252825482820181905260008481528281209092916040850190845b818110156137985783548352600193840193928501920161411e565b601f82111561418457600081815260208120601f850160051c810160208610156141615750805b601f850160051c820191505b818110156141805782815560010161416d565b5050505b505050565b81516001600160401b038111156141a2576141a26138c5565b6141b6816141b08454613ed8565b8461413a565b602080601f8311600181146141eb57600084156141d35750858301515b600019600386901b1c1916600185901b178555614180565b600085815260208120601f198616915b8281101561421a578886015182559484019460019091019084016141fb565b50858210156142385787850151600019600388901b60f8161c191681555b5050505050600190811b0190555056fea264697066735822122003dac65e51d5dbc5390f02d673c847b7b22f8069dfe29b6e0017ca8d52a9e28064736f6c63430008130033",
    "linkReferences": {}
  },
  "methodIdentifiers": {
    "AMOUNT_FOR_SUMBITTER_PROOF()": "347cf665",
    "JK_LABS_ADDRESS()": "eef18e17",
    "METADATAS_COUNT()": "4d24a67f",
    "addressSubmitterVerified(address)": "cb853950",
    "addressTotalCastVoteCounts(address)": "a1ac6cb2",
    "addressTotalVotes(address)": "dea5f6a6",
    "addressTotalVotesVerified(address)": "930de979",
    "addressesThatHaveVoted(uint256)": "50c4b616",
    "allProposalTotalVotes()": "50a5e524",
    "allProposalTotalVotesWithoutDeleted()": "d45a010b",
    "cancel()": "ea8a1af0",
    "canceled()": "3f9942ff",
    "castVote(uint256,uint8,uint256,uint256,bytes32[])": "419c533c",
    "castVoteWithoutProof(uint256,uint8,uint256)": "65f16263",
    "checkProof(address,uint256,bytes32[],bool)": "32763c22",
    "contestAddressTotalVotesCast(address)": "aec116b6",
    "contestDeadline()": "262e59e9",
    "contestStart()": "004114a8",
    "creator()": "02d05d3f",
    "deleteProposals(uint256[])": "f0a7db0a",
    "deletedProposalIds(uint256)": "05846cae",
    "downvotingAllowed()": "60506ff6",
    "eip712Domain()": "84b0196e",
    "getAllAddressesThatHaveVoted()": "2c39805f",
    "getAllDeletedProposalIds()": "1242b737",
    "getAllProposalAuthors()": "946369b5",
    "getAllProposalIds()": "efa90d36",
    "getNumSubmissions(address)": "5f953a03",
    "getProposal(uint256)": "c7f758a8",
    "hashProposal((address,bool,string,(address),(address[],uint256)))": "458da87d",
    "highestTiedRanking()": "ebc18b9b",
    "isProposalDeleted(uint256)": "3b6d199b",
    "isTied(uint256)": "2399c660",
    "lowestRanking()": "6ca1a2c7",
    "maxProposalCount()": "fb9bf8d4",
    "name()": "06fdde03",
    "numAllowedProposalSubmissions()": "832009af",
    "numSubmissions(address)": "75e509c5",
    "officialRewardsModule()": "785ddfe5",
    "prompt()": "7c65d711",
    "proposalAddressVotes(uint256,address)": "6e4eb810",
    "proposalAddressesHaveVoted(uint256)": "b323580d",
    "proposalAuthors(uint256)": "0aa25e44",
    "proposalIds(uint256)": "9b644a23",
    "proposalIsDeleted(uint256)": "f79c0172",
    "proposalVotes(uint256)": "544ffc9c",
    "proposalVotesStructs(uint256)": "070dc5d9",
    "proposals(uint256)": "013cf08b",
    "propose((address,bool,string,(address),(address[],uint256)),bytes32[])": "c0ffaa78",
    "proposeWithoutProof((address,bool,string,(address),(address[],uint256)))": "476f4d8a",
    "rankingPosition(uint256)": "86187488",
    "setOfficialRewardsModule(address)": "f4f3d7ec",
    "setSortedAndTiedProposals()": "96f0e962",
    "setSortedAndTiedProposalsHasBeenRun()": "d8891619",
    "sortedProposalIds()": "8a9cd550",
    "sortedProposals(bool)": "427d56c2",
    "state()": "c19d93fb",
    "submissionMerkleRoot()": "bddc1641",
    "supportsInterface(bytes4)": "01ffc9a7",
    "tiedAdjustedRankingPosition(uint256)": "e5eb5a48",
    "totalVotesCast()": "7de418d5",
    "validateProposalData((address,bool,string,(address),(address[],uint256)))": "fb8ddab4",
    "verifyProposer(address,bytes32[])": "20b3e845",
    "verifyVoter(address,uint256,bytes32[])": "531bd812",
    "version()": "54fd4d50",
    "voteStart()": "e031535b",
    "votingDelay()": "3932abb1",
    "votingMerkleRoot()": "dd96a19d",
    "votingPeriod()": "02a251a3"
  },
  "id": 40
}