{
  "abi": [
    {
      "inputs": [
        {
          "internalType": "string",
          "name": "_name",
          "type": "string"
        },
        {
          "internalType": "string",
          "name": "_prompt",
          "type": "string"
        },
        {
          "internalType": "bytes32",
          "name": "_submissionMerkleRoot",
          "type": "bytes32"
        },
        {
          "internalType": "bytes32",
          "name": "_votingMerkleRoot",
          "type": "bytes32"
        },
        {
          "internalType": "uint256[]",
          "name": "_constructorIntParams",
          "type": "uint256[]"
        }
      ],
      "stateMutability": "nonpayable",
      "type": "constructor"
    },
    {
      "inputs": [],
      "name": "InvalidShortString",
      "type": "error"
    },
    {
      "inputs": [],
      "name": "NotInMerkle",
      "type": "error"
    },
    {
      "inputs": [
        {
          "internalType": "string",
          "name": "str",
          "type": "string"
        }
      ],
      "name": "StringTooLong",
      "type": "error"
    },
    {
      "inputs": [],
      "name": "TooManyMetadatas",
      "type": "error"
    },
    {
      "anonymous": false,
      "inputs": [],
      "name": "ContestCanceled",
      "type": "event"
    },
    {
      "anonymous": false,
      "inputs": [
        {
          "indexed": false,
          "internalType": "uint256",
          "name": "oldContestStart",
          "type": "uint256"
        },
        {
          "indexed": false,
          "internalType": "uint256",
          "name": "newContestStart",
          "type": "uint256"
        }
      ],
      "name": "ContestStartSet",
      "type": "event"
    },
    {
      "anonymous": false,
      "inputs": [
        {
          "indexed": false,
          "internalType": "address",
          "name": "oldCreator",
          "type": "address"
        },
        {
          "indexed": false,
          "internalType": "address",
          "name": "newCreator",
          "type": "address"
        }
      ],
      "name": "CreatorSet",
      "type": "event"
    },
    {
      "anonymous": false,
      "inputs": [
        {
          "indexed": false,
          "internalType": "uint256",
          "name": "oldDownvotingAllowed",
          "type": "uint256"
        },
        {
          "indexed": false,
          "internalType": "uint256",
          "name": "newDownvotingAllowed",
          "type": "uint256"
        }
      ],
      "name": "DownvotingAllowedSet",
      "type": "event"
    },
    {
      "anonymous": false,
      "inputs": [],
      "name": "EIP712DomainChanged",
      "type": "event"
    },
    {
      "anonymous": false,
      "inputs": [
        {
          "indexed": false,
          "internalType": "uint256",
          "name": "oldMaxProposalCount",
          "type": "uint256"
        },
        {
          "indexed": false,
          "internalType": "uint256",
          "name": "newMaxProposalCount",
          "type": "uint256"
        }
      ],
      "name": "MaxProposalCountSet",
      "type": "event"
    },
    {
      "anonymous": false,
      "inputs": [
        {
          "indexed": false,
          "internalType": "uint256",
          "name": "oldNumAllowedProposalSubmissions",
          "type": "uint256"
        },
        {
          "indexed": false,
          "internalType": "uint256",
          "name": "newNumAllowedProposalSubmissions",
          "type": "uint256"
        }
      ],
      "name": "NumAllowedProposalSubmissionsSet",
      "type": "event"
    },
    {
      "anonymous": false,
      "inputs": [
        {
          "indexed": false,
          "internalType": "contract RewardsModule",
          "name": "oldOfficialRewardsModule",
          "type": "address"
        },
        {
          "indexed": false,
          "internalType": "contract RewardsModule",
          "name": "newOfficialRewardsModule",
          "type": "address"
        }
      ],
      "name": "OfficialRewardsModuleSet",
      "type": "event"
    },
    {
      "anonymous": false,
      "inputs": [
        {
          "indexed": false,
          "internalType": "uint256",
          "name": "proposalId",
          "type": "uint256"
        },
        {
          "indexed": false,
          "internalType": "address",
          "name": "proposer",
          "type": "address"
        }
      ],
      "name": "ProposalCreated",
      "type": "event"
    },
    {
      "anonymous": false,
      "inputs": [
        {
          "indexed": false,
          "internalType": "uint256[]",
          "name": "proposalIds",
          "type": "uint256[]"
        }
      ],
      "name": "ProposalsDeleted",
      "type": "event"
    },
    {
      "anonymous": false,
      "inputs": [
        {
          "indexed": true,
          "internalType": "address",
          "name": "voter",
          "type": "address"
        },
        {
          "indexed": false,
          "internalType": "uint256",
          "name": "proposalId",
          "type": "uint256"
        },
        {
          "indexed": false,
          "internalType": "uint8",
          "name": "support",
          "type": "uint8"
        },
        {
          "indexed": false,
          "internalType": "uint256",
          "name": "numVotes",
          "type": "uint256"
        }
      ],
      "name": "VoteCast",
      "type": "event"
    },
    {
      "anonymous": false,
      "inputs": [
        {
          "indexed": false,
          "internalType": "uint256",
          "name": "oldVotingDelay",
          "type": "uint256"
        },
        {
          "indexed": false,
          "internalType": "uint256",
          "name": "newVotingDelay",
          "type": "uint256"
        }
      ],
      "name": "VotingDelaySet",
      "type": "event"
    },
    {
      "anonymous": false,
      "inputs": [
        {
          "indexed": false,
          "internalType": "uint256",
          "name": "oldVotingPeriod",
          "type": "uint256"
        },
        {
          "indexed": false,
          "internalType": "uint256",
          "name": "newVotingPeriod",
          "type": "uint256"
        }
      ],
      "name": "VotingPeriodSet",
      "type": "event"
    },
    {
      "inputs": [],
      "name": "AMOUNT_FOR_SUMBITTER_PROOF",
      "outputs": [
        {
          "internalType": "uint256",
          "name": "",
          "type": "uint256"
        }
      ],
      "stateMutability": "view",
      "type": "function"
    },
    {
      "inputs": [],
      "name": "METADATAS_COUNT",
      "outputs": [
        {
          "internalType": "uint256",
          "name": "",
          "type": "uint256"
        }
      ],
      "stateMutability": "view",
      "type": "function"
    },
    {
      "inputs": [
        {
          "internalType": "address",
          "name": "",
          "type": "address"
        }
      ],
      "name": "addressSubmitterVerified",
      "outputs": [
        {
          "internalType": "bool",
          "name": "",
          "type": "bool"
        }
      ],
      "stateMutability": "view",
      "type": "function"
    },
    {
      "inputs": [
        {
          "internalType": "address",
          "name": "",
          "type": "address"
        }
      ],
      "name": "addressTotalCastVoteCounts",
      "outputs": [
        {
          "internalType": "uint256",
          "name": "",
          "type": "uint256"
        }
      ],
      "stateMutability": "view",
      "type": "function"
    },
    {
      "inputs": [
        {
          "internalType": "address",
          "name": "",
          "type": "address"
        }
      ],
      "name": "addressTotalVotes",
      "outputs": [
        {
          "internalType": "uint256",
          "name": "",
          "type": "uint256"
        }
      ],
      "stateMutability": "view",
      "type": "function"
    },
    {
      "inputs": [
        {
          "internalType": "address",
          "name": "",
          "type": "address"
        }
      ],
      "name": "addressTotalVotesVerified",
      "outputs": [
        {
          "internalType": "bool",
          "name": "",
          "type": "bool"
        }
      ],
      "stateMutability": "view",
      "type": "function"
    },
    {
      "inputs": [],
      "name": "allProposalTotalVotes",
      "outputs": [
        {
          "internalType": "uint256[]",
          "name": "proposalIdsReturn",
          "type": "uint256[]"
        },
        {
          "components": [
            {
              "internalType": "uint256",
              "name": "forVotes",
              "type": "uint256"
            },
            {
              "internalType": "uint256",
              "name": "againstVotes",
              "type": "uint256"
            }
          ],
          "internalType": "struct GovernorCountingSimple.VoteCounts[]",
          "name": "proposalVoteCountsArrayReturn",
          "type": "tuple[]"
        }
      ],
      "stateMutability": "view",
      "type": "function"
    },
    {
      "inputs": [],
      "name": "allProposalTotalVotesWithoutDeleted",
      "outputs": [
        {
          "internalType": "uint256[]",
          "name": "proposalIdsReturn",
          "type": "uint256[]"
        },
        {
          "components": [
            {
              "internalType": "uint256",
              "name": "forVotes",
              "type": "uint256"
            },
            {
              "internalType": "uint256",
              "name": "againstVotes",
              "type": "uint256"
            }
          ],
          "internalType": "struct GovernorCountingSimple.VoteCounts[]",
          "name": "proposalVoteCountsArrayReturn",
          "type": "tuple[]"
        }
      ],
      "stateMutability": "view",
      "type": "function"
    },
    {
      "inputs": [],
      "name": "cancel",
      "outputs": [],
      "stateMutability": "nonpayable",
      "type": "function"
    },
    {
      "inputs": [
        {
          "internalType": "uint256",
          "name": "proposalId",
          "type": "uint256"
        },
        {
          "internalType": "uint8",
          "name": "support",
          "type": "uint8"
        },
        {
          "internalType": "uint256",
          "name": "totalVotes",
          "type": "uint256"
        },
        {
          "internalType": "uint256",
          "name": "numVotes",
          "type": "uint256"
        },
        {
          "internalType": "bytes32[]",
          "name": "proof",
          "type": "bytes32[]"
        }
      ],
      "name": "castVote",
      "outputs": [
        {
          "internalType": "uint256",
          "name": "",
          "type": "uint256"
        }
      ],
      "stateMutability": "nonpayable",
      "type": "function"
    },
    {
      "inputs": [
        {
          "internalType": "uint256",
          "name": "proposalId",
          "type": "uint256"
        },
        {
          "internalType": "uint8",
          "name": "support",
          "type": "uint8"
        },
        {
          "internalType": "uint256",
          "name": "numVotes",
          "type": "uint256"
        }
      ],
      "name": "castVoteWithoutProof",
      "outputs": [
        {
          "internalType": "uint256",
          "name": "",
          "type": "uint256"
        }
      ],
      "stateMutability": "nonpayable",
      "type": "function"
    },
    {
      "inputs": [
        {
          "internalType": "address",
          "name": "addressToCheck",
          "type": "address"
        },
        {
          "internalType": "uint256",
          "name": "amount",
          "type": "uint256"
        },
        {
          "internalType": "bytes32[]",
          "name": "proof",
          "type": "bytes32[]"
        },
        {
          "internalType": "bool",
          "name": "voting",
          "type": "bool"
        }
      ],
      "name": "checkProof",
      "outputs": [
        {
          "internalType": "bool",
          "name": "verified",
          "type": "bool"
        }
      ],
      "stateMutability": "view",
      "type": "function"
    },
    {
      "inputs": [
        {
          "internalType": "address",
          "name": "userAddress",
          "type": "address"
        }
      ],
      "name": "contestAddressTotalVotesCast",
      "outputs": [
        {
          "internalType": "uint256",
          "name": "userTotalVotesCast",
          "type": "uint256"
        }
      ],
      "stateMutability": "view",
      "type": "function"
    },
    {
      "inputs": [],
      "name": "contestDeadline",
      "outputs": [
        {
          "internalType": "uint256",
          "name": "",
          "type": "uint256"
        }
      ],
      "stateMutability": "view",
      "type": "function"
    },
    {
      "inputs": [],
      "name": "contestStart",
      "outputs": [
        {
          "internalType": "uint256",
          "name": "",
          "type": "uint256"
        }
      ],
      "stateMutability": "view",
      "type": "function"
    },
    {
      "inputs": [],
      "name": "creator",
      "outputs": [
        {
          "internalType": "address",
          "name": "",
          "type": "address"
        }
      ],
      "stateMutability": "view",
      "type": "function"
    },
    {
      "inputs": [
        {
          "internalType": "uint256[]",
          "name": "proposalIds",
          "type": "uint256[]"
        }
      ],
      "name": "deleteProposals",
      "outputs": [],
      "stateMutability": "nonpayable",
      "type": "function"
    },
    {
      "inputs": [],
      "name": "downvotingAllowed",
      "outputs": [
        {
          "internalType": "uint256",
          "name": "",
          "type": "uint256"
        }
      ],
      "stateMutability": "view",
      "type": "function"
    },
    {
      "inputs": [],
      "name": "eip712Domain",
      "outputs": [
        {
          "internalType": "bytes1",
          "name": "fields",
          "type": "bytes1"
        },
        {
          "internalType": "string",
          "name": "name",
          "type": "string"
        },
        {
          "internalType": "string",
          "name": "version",
          "type": "string"
        },
        {
          "internalType": "uint256",
          "name": "chainId",
          "type": "uint256"
        },
        {
          "internalType": "address",
          "name": "verifyingContract",
          "type": "address"
        },
        {
          "internalType": "bytes32",
          "name": "salt",
          "type": "bytes32"
        },
        {
          "internalType": "uint256[]",
          "name": "extensions",
          "type": "uint256[]"
        }
      ],
      "stateMutability": "view",
      "type": "function"
    },
    {
      "inputs": [],
      "name": "getAllDeletedProposalIds",
      "outputs": [
        {
          "internalType": "uint256[]",
          "name": "",
          "type": "uint256[]"
        }
      ],
      "stateMutability": "view",
      "type": "function"
    },
    {
      "inputs": [],
      "name": "getAllProposalIds",
      "outputs": [
        {
          "internalType": "uint256[]",
          "name": "",
          "type": "uint256[]"
        }
      ],
      "stateMutability": "view",
      "type": "function"
    },
    {
      "inputs": [
        {
          "internalType": "address",
          "name": "account",
          "type": "address"
        }
      ],
      "name": "getNumSubmissions",
      "outputs": [
        {
          "internalType": "uint256",
          "name": "",
          "type": "uint256"
        }
      ],
      "stateMutability": "view",
      "type": "function"
    },
    {
      "inputs": [
        {
          "internalType": "uint256",
          "name": "proposalId",
          "type": "uint256"
        }
      ],
      "name": "getProposal",
      "outputs": [
        {
          "components": [
            {
              "internalType": "address",
              "name": "author",
              "type": "address"
            },
            {
              "internalType": "bool",
              "name": "exists",
              "type": "bool"
            },
            {
              "internalType": "string",
              "name": "description",
              "type": "string"
            },
            {
              "components": [
                {
                  "internalType": "address",
                  "name": "targetAddress",
                  "type": "address"
                }
              ],
              "internalType": "struct IGovernor.TargetMetadata",
              "name": "targetMetadata",
              "type": "tuple"
            },
            {
              "components": [
                {
                  "internalType": "address[]",
                  "name": "signers",
                  "type": "address[]"
                },
                {
                  "internalType": "uint256",
                  "name": "threshold",
                  "type": "uint256"
                }
              ],
              "internalType": "struct IGovernor.SafeMetadata",
              "name": "safeMetadata",
              "type": "tuple"
            }
          ],
          "internalType": "struct IGovernor.ProposalCore",
          "name": "",
          "type": "tuple"
        }
      ],
      "stateMutability": "view",
      "type": "function"
    },
    {
      "inputs": [
        {
          "components": [
            {
              "internalType": "address",
              "name": "author",
              "type": "address"
            },
            {
              "internalType": "bool",
              "name": "exists",
              "type": "bool"
            },
            {
              "internalType": "string",
              "name": "description",
              "type": "string"
            },
            {
              "components": [
                {
                  "internalType": "address",
                  "name": "targetAddress",
                  "type": "address"
                }
              ],
              "internalType": "struct IGovernor.TargetMetadata",
              "name": "targetMetadata",
              "type": "tuple"
            },
            {
              "components": [
                {
                  "internalType": "address[]",
                  "name": "signers",
                  "type": "address[]"
                },
                {
                  "internalType": "uint256",
                  "name": "threshold",
                  "type": "uint256"
                }
              ],
              "internalType": "struct IGovernor.SafeMetadata",
              "name": "safeMetadata",
              "type": "tuple"
            }
          ],
          "internalType": "struct IGovernor.ProposalCore",
          "name": "proposal",
          "type": "tuple"
        }
      ],
      "name": "hashProposal",
      "outputs": [
        {
          "internalType": "uint256",
          "name": "",
          "type": "uint256"
        }
      ],
      "stateMutability": "pure",
      "type": "function"
    },
    {
      "inputs": [],
      "name": "highestTiedRanking",
      "outputs": [
        {
          "internalType": "uint256",
          "name": "",
          "type": "uint256"
        }
      ],
      "stateMutability": "view",
      "type": "function"
    },
    {
      "inputs": [
        {
          "internalType": "uint256",
          "name": "proposalId",
          "type": "uint256"
        }
      ],
      "name": "isProposalDeleted",
      "outputs": [
        {
          "internalType": "bool",
          "name": "",
          "type": "bool"
        }
      ],
      "stateMutability": "view",
      "type": "function"
    },
    {
      "inputs": [
        {
          "internalType": "uint256",
          "name": "ranking",
          "type": "uint256"
        }
      ],
      "name": "isTied",
      "outputs": [
        {
          "internalType": "bool",
          "name": "",
          "type": "bool"
        }
      ],
      "stateMutability": "view",
      "type": "function"
    },
    {
      "inputs": [],
      "name": "lowestRanking",
      "outputs": [
        {
          "internalType": "uint256",
          "name": "",
          "type": "uint256"
        }
      ],
      "stateMutability": "view",
      "type": "function"
    },
    {
      "inputs": [],
      "name": "maxProposalCount",
      "outputs": [
        {
          "internalType": "uint256",
          "name": "",
          "type": "uint256"
        }
      ],
      "stateMutability": "view",
      "type": "function"
    },
    {
      "inputs": [],
      "name": "name",
      "outputs": [
        {
          "internalType": "string",
          "name": "",
          "type": "string"
        }
      ],
      "stateMutability": "view",
      "type": "function"
    },
    {
      "inputs": [],
      "name": "numAllowedProposalSubmissions",
      "outputs": [
        {
          "internalType": "uint256",
          "name": "",
          "type": "uint256"
        }
      ],
      "stateMutability": "view",
      "type": "function"
    },
    {
      "inputs": [],
      "name": "officialRewardsModule",
      "outputs": [
        {
          "internalType": "contract RewardsModule",
          "name": "",
          "type": "address"
        }
      ],
      "stateMutability": "view",
      "type": "function"
    },
    {
      "inputs": [],
      "name": "prompt",
      "outputs": [
        {
          "internalType": "string",
          "name": "",
          "type": "string"
        }
      ],
      "stateMutability": "view",
      "type": "function"
    },
    {
      "inputs": [
        {
          "internalType": "uint256",
          "name": "proposalId",
          "type": "uint256"
        },
        {
          "internalType": "address",
          "name": "userAddress",
          "type": "address"
        }
      ],
      "name": "proposalAddressVotes",
      "outputs": [
        {
          "internalType": "uint256",
          "name": "forVotes",
          "type": "uint256"
        },
        {
          "internalType": "uint256",
          "name": "againstVotes",
          "type": "uint256"
        }
      ],
      "stateMutability": "view",
      "type": "function"
    },
    {
      "inputs": [
        {
          "internalType": "uint256",
          "name": "proposalId",
          "type": "uint256"
        }
      ],
      "name": "proposalAddressesHaveVoted",
      "outputs": [
        {
          "internalType": "address[]",
          "name": "",
          "type": "address[]"
        }
      ],
      "stateMutability": "view",
      "type": "function"
    },
    {
      "inputs": [
        {
          "internalType": "uint256",
          "name": "proposalId",
          "type": "uint256"
        }
      ],
      "name": "proposalVotes",
      "outputs": [
        {
          "internalType": "uint256",
          "name": "forVotes",
          "type": "uint256"
        },
        {
          "internalType": "uint256",
          "name": "againstVotes",
          "type": "uint256"
        }
      ],
      "stateMutability": "view",
      "type": "function"
    },
    {
      "inputs": [
        {
          "internalType": "uint256",
          "name": "",
          "type": "uint256"
        }
      ],
      "name": "proposalVotesStructs",
      "outputs": [
        {
          "components": [
            {
              "internalType": "uint256",
              "name": "forVotes",
              "type": "uint256"
            },
            {
              "internalType": "uint256",
              "name": "againstVotes",
              "type": "uint256"
            }
          ],
          "internalType": "struct GovernorCountingSimple.VoteCounts",
          "name": "proposalVoteCounts",
          "type": "tuple"
        }
      ],
      "stateMutability": "view",
      "type": "function"
    },
    {
      "inputs": [
        {
          "components": [
            {
              "internalType": "address",
              "name": "author",
              "type": "address"
            },
            {
              "internalType": "bool",
              "name": "exists",
              "type": "bool"
            },
            {
              "internalType": "string",
              "name": "description",
              "type": "string"
            },
            {
              "components": [
                {
                  "internalType": "address",
                  "name": "targetAddress",
                  "type": "address"
                }
              ],
              "internalType": "struct IGovernor.TargetMetadata",
              "name": "targetMetadata",
              "type": "tuple"
            },
            {
              "components": [
                {
                  "internalType": "address[]",
                  "name": "signers",
                  "type": "address[]"
                },
                {
                  "internalType": "uint256",
                  "name": "threshold",
                  "type": "uint256"
                }
              ],
              "internalType": "struct IGovernor.SafeMetadata",
              "name": "safeMetadata",
              "type": "tuple"
            }
          ],
          "internalType": "struct IGovernor.ProposalCore",
          "name": "proposal",
          "type": "tuple"
        },
        {
          "internalType": "bytes32[]",
          "name": "proof",
          "type": "bytes32[]"
        }
      ],
      "name": "propose",
      "outputs": [
        {
          "internalType": "uint256",
          "name": "",
          "type": "uint256"
        }
      ],
      "stateMutability": "nonpayable",
      "type": "function"
    },
    {
      "inputs": [
        {
          "components": [
            {
              "internalType": "address",
              "name": "author",
              "type": "address"
            },
            {
              "internalType": "bool",
              "name": "exists",
              "type": "bool"
            },
            {
              "internalType": "string",
              "name": "description",
              "type": "string"
            },
            {
              "components": [
                {
                  "internalType": "address",
                  "name": "targetAddress",
                  "type": "address"
                }
              ],
              "internalType": "struct IGovernor.TargetMetadata",
              "name": "targetMetadata",
              "type": "tuple"
            },
            {
              "components": [
                {
                  "internalType": "address[]",
                  "name": "signers",
                  "type": "address[]"
                },
                {
                  "internalType": "uint256",
                  "name": "threshold",
                  "type": "uint256"
                }
              ],
              "internalType": "struct IGovernor.SafeMetadata",
              "name": "safeMetadata",
              "type": "tuple"
            }
          ],
          "internalType": "struct IGovernor.ProposalCore",
          "name": "proposal",
          "type": "tuple"
        }
      ],
      "name": "proposeWithoutProof",
      "outputs": [
        {
          "internalType": "uint256",
          "name": "",
          "type": "uint256"
        }
      ],
      "stateMutability": "nonpayable",
      "type": "function"
    },
    {
      "inputs": [
        {
          "internalType": "uint256",
          "name": "ranking",
          "type": "uint256"
        }
      ],
      "name": "rankingPosition",
      "outputs": [
        {
          "internalType": "uint256",
          "name": "",
          "type": "uint256"
        }
      ],
      "stateMutability": "view",
      "type": "function"
    },
    {
      "inputs": [
        {
          "internalType": "contract RewardsModule",
          "name": "officialRewardsModule_",
          "type": "address"
        }
      ],
      "name": "setOfficialRewardsModule",
      "outputs": [],
      "stateMutability": "nonpayable",
      "type": "function"
    },
    {
      "inputs": [],
      "name": "setSortedAndTiedProposals",
      "outputs": [],
      "stateMutability": "nonpayable",
      "type": "function"
    },
    {
      "inputs": [],
      "name": "setSortedAndTiedProposalsHasBeenRun",
      "outputs": [
        {
          "internalType": "bool",
          "name": "",
          "type": "bool"
        }
      ],
      "stateMutability": "view",
      "type": "function"
    },
    {
      "inputs": [],
      "name": "sortedProposalIds",
      "outputs": [
        {
          "internalType": "uint256[]",
          "name": "",
          "type": "uint256[]"
        }
      ],
      "stateMutability": "view",
      "type": "function"
    },
    {
      "inputs": [
        {
          "internalType": "bool",
          "name": "excludeDeletedProposals",
          "type": "bool"
        }
      ],
      "name": "sortedProposals",
      "outputs": [
        {
          "internalType": "uint256[]",
          "name": "sortedProposalIdsReturn",
          "type": "uint256[]"
        }
      ],
      "stateMutability": "view",
      "type": "function"
    },
    {
      "inputs": [],
      "name": "state",
      "outputs": [
        {
          "internalType": "enum IGovernor.ContestState",
          "name": "",
          "type": "uint8"
        }
      ],
      "stateMutability": "view",
      "type": "function"
    },
    {
      "inputs": [],
      "name": "submissionMerkleRoot",
      "outputs": [
        {
          "internalType": "bytes32",
          "name": "",
          "type": "bytes32"
        }
      ],
      "stateMutability": "view",
      "type": "function"
    },
    {
      "inputs": [
        {
          "internalType": "bytes4",
          "name": "interfaceId",
          "type": "bytes4"
        }
      ],
      "name": "supportsInterface",
      "outputs": [
        {
          "internalType": "bool",
          "name": "",
          "type": "bool"
        }
      ],
      "stateMutability": "view",
      "type": "function"
    },
    {
      "inputs": [
        {
          "internalType": "uint256",
          "name": "",
          "type": "uint256"
        }
      ],
      "name": "tiedAdjustedRankingPosition",
      "outputs": [
        {
          "internalType": "uint256",
          "name": "",
          "type": "uint256"
        }
      ],
      "stateMutability": "view",
      "type": "function"
    },
    {
      "inputs": [],
      "name": "totalVotesCast",
      "outputs": [
        {
          "internalType": "uint256",
          "name": "",
          "type": "uint256"
        }
      ],
      "stateMutability": "view",
      "type": "function"
    },
    {
      "inputs": [
        {
          "components": [
            {
              "internalType": "address",
              "name": "author",
              "type": "address"
            },
            {
              "internalType": "bool",
              "name": "exists",
              "type": "bool"
            },
            {
              "internalType": "string",
              "name": "description",
              "type": "string"
            },
            {
              "components": [
                {
                  "internalType": "address",
                  "name": "targetAddress",
                  "type": "address"
                }
              ],
              "internalType": "struct IGovernor.TargetMetadata",
              "name": "targetMetadata",
              "type": "tuple"
            },
            {
              "components": [
                {
                  "internalType": "address[]",
                  "name": "signers",
                  "type": "address[]"
                },
                {
                  "internalType": "uint256",
                  "name": "threshold",
                  "type": "uint256"
                }
              ],
              "internalType": "struct IGovernor.SafeMetadata",
              "name": "safeMetadata",
              "type": "tuple"
            }
          ],
          "internalType": "struct IGovernor.ProposalCore",
          "name": "proposal",
          "type": "tuple"
        }
      ],
      "name": "validateProposalData",
      "outputs": [
        {
          "internalType": "bool",
          "name": "dataValidated",
          "type": "bool"
        }
      ],
      "stateMutability": "nonpayable",
      "type": "function"
    },
    {
      "inputs": [
        {
          "internalType": "address",
          "name": "account",
          "type": "address"
        },
        {
          "internalType": "bytes32[]",
          "name": "proof",
          "type": "bytes32[]"
        }
      ],
      "name": "verifyProposer",
      "outputs": [
        {
          "internalType": "bool",
          "name": "verified",
          "type": "bool"
        }
      ],
      "stateMutability": "nonpayable",
      "type": "function"
    },
    {
      "inputs": [
        {
          "internalType": "address",
          "name": "account",
          "type": "address"
        },
        {
          "internalType": "uint256",
          "name": "totalVotes",
          "type": "uint256"
        },
        {
          "internalType": "bytes32[]",
          "name": "proof",
          "type": "bytes32[]"
        }
      ],
      "name": "verifyVoter",
      "outputs": [
        {
          "internalType": "bool",
          "name": "verified",
          "type": "bool"
        }
      ],
      "stateMutability": "nonpayable",
      "type": "function"
    },
    {
      "inputs": [],
      "name": "version",
      "outputs": [
        {
          "internalType": "string",
          "name": "",
          "type": "string"
        }
      ],
      "stateMutability": "view",
      "type": "function"
    },
    {
      "inputs": [],
      "name": "voteStart",
      "outputs": [
        {
          "internalType": "uint256",
          "name": "",
          "type": "uint256"
        }
      ],
      "stateMutability": "view",
      "type": "function"
    },
    {
      "inputs": [],
      "name": "votingDelay",
      "outputs": [
        {
          "internalType": "uint256",
          "name": "",
          "type": "uint256"
        }
      ],
      "stateMutability": "view",
      "type": "function"
    },
    {
      "inputs": [],
      "name": "votingMerkleRoot",
      "outputs": [
        {
          "internalType": "bytes32",
          "name": "",
          "type": "bytes32"
        }
      ],
      "stateMutability": "view",
      "type": "function"
    },
    {
      "inputs": [],
      "name": "votingPeriod",
      "outputs": [
        {
          "internalType": "uint256",
          "name": "",
          "type": "uint256"
        }
      ],
      "stateMutability": "view",
      "type": "function"
    }
  ],
  "bytecode": {
    "object": "0x6101a06040526017805460ff191690553480156200001c57600080fd5b5060405162004667380380620046678339810160408190526200003f9162000622565b8060008151811062000055576200005562000733565b60200260200101518160018151811062000073576200007362000733565b60200260200101518260028151811062000091576200009162000733565b602002602001015183600381518110620000af57620000af62000733565b602002602001015184600481518110620000cd57620000cd62000733565b602002602001015185600581518110620000eb57620000eb62000733565b60200260200101518a8a8a8a8181856200010a6200025060201b60201c565b620001178260006200026e565b61012052620001288160016200026e565b61014052815160208084019190912060e052815190820120610100524660a052620001b660e05161010051604080517f8b73c3c69bb8fe3d512ecc4cf759cc79239f7b179b0ffacaa9a75d522b39400f60208201529081019290925260608201524660808201523060a082015260009060c00160405160208183030381529060405280519060200120905090565b60805250503060c05261016091909152610180526008620001d88582620007d8565b506009620001e78482620007d8565b5050505050620001fd86620002a760201b60201c565b6200020885620002e8565b620002138462000329565b6200021e83620003d0565b620002298262000411565b620002348162000452565b6200023f3362000493565b5050505050505050505050620008fe565b604080518082019091526004815263332e313360e01b602082015290565b60006020835110156200028e576200028683620004fc565b9050620002a1565b816200029b8482620007d8565b5060ff90505b92915050565b600d5460408051918252602082018390527fd299feb1d7d9345a48559601c471c3be7eea9a11f21d5e86809198f40a974db4910160405180910390a1600d55565b600e5460408051918252602082018390527fc565b045403dc03c2eea82b81a0465edad9e2e7fc4d97e11421c209da93d7a93910160405180910390a1600e55565b600081116200038f5760405162461bcd60e51b815260206004820152602760248201527f476f7665726e6f7253657474696e67733a20766f74696e6720706572696f6420604482015266746f6f206c6f7760c81b60648201526084015b60405180910390fd5b600f5460408051918252602082018390527f7e3f7f0708a84de9203036abaa450dccc85ad5ff52f78c170f3edb55cf5e8828910160405180910390a1600f55565b60105460408051918252602082018390527fe971b819c7fb95c72451f557226aceb5baaf4994a9d39a79bbfa0040e87500b9910160405180910390a1601055565b60115460408051918252602082018390527f4984ec996723330ee95979ed65a2a4b41edd914e68a187efe92596474643bdff910160405180910390a1601155565b60125460408051918252602082018390527f9c7b27f091caef3a83be73d89320404fa0c4a52993685ff0651672e49e6e55ab910160405180910390a1601255565b601354604080516001600160a01b03928316815291831660208301527fc30034fc2e9697980e08935bbc287db3eaa44a4aa113ef4c108b356adbf911ce910160405180910390a1601380546001600160a01b0319166001600160a01b0392909216919091179055565b600080829050601f815111156200052a578260405163305a27a960e01b8152600401620003869190620008a4565b80516200053782620008d9565b179392505050565b634e487b7160e01b600052604160045260246000fd5b604051601f8201601f191681016001600160401b03811182821017156200058057620005806200053f565b604052919050565b60005b83811015620005a55781810151838201526020016200058b565b50506000910152565b600082601f830112620005c057600080fd5b81516001600160401b03811115620005dc57620005dc6200053f565b620005f1601f8201601f191660200162000555565b8181528460208386010111156200060757600080fd5b6200061a82602083016020870162000588565b949350505050565b600080600080600060a086880312156200063b57600080fd5b85516001600160401b03808211156200065357600080fd5b6200066189838a01620005ae565b96506020915081880151818111156200067957600080fd5b620006878a828b01620005ae565b9650506040880151945060608801519350608088015181811115620006ab57600080fd5b8801601f81018a13620006bd57600080fd5b805182811115620006d257620006d26200053f565b8060051b9250620006e584840162000555565b818152928201840192848101908c8511156200070057600080fd5b928501925b84841015620007205783518252928501929085019062000705565b8096505050505050509295509295909350565b634e487b7160e01b600052603260045260246000fd5b600181811c908216806200075e57607f821691505b6020821081036200077f57634e487b7160e01b600052602260045260246000fd5b50919050565b601f821115620007d357600081815260208120601f850160051c81016020861015620007ae5750805b601f850160051c820191505b81811015620007cf57828155600101620007ba565b5050505b505050565b81516001600160401b03811115620007f457620007f46200053f565b6200080c8162000805845462000749565b8462000785565b602080601f8311600181146200084457600084156200082b5750858301515b600019600386901b1c1916600185901b178555620007cf565b600085815260208120601f198616915b82811015620008755788860151825594840194600190910190840162000854565b5085821015620008945787850151600019600388901b60f8161c191681555b5050505050600190811b01905550565b6020815260008251806020840152620008c581604085016020870162000588565b601f01601f19169190910160400192915050565b805160208083015191908110156200077f5760001960209190910360031b1b16919050565b60805160a05160c05160e0516101005161012051610140516101605161018051613ceb6200097c600039600081816107bc0152610ba8015260008181610715015281816109f001528181610b430152610ea50152600061125d0152600061123301526000505060005050600050506000505060005050613ceb6000f3fe608060405234801561001057600080fd5b506004361061038d5760003560e01c80637c65d711116101de578063c7f758a81161010f578063e5eb5a48116100ad578063f0a7db0a1161007c578063f0a7db0a1461083e578063f4f3d7ec14610851578063fb8ddab414610864578063fb9bf8d41461087757600080fd5b8063e5eb5a4814610806578063ea8a1af014610826578063ebc18b9b1461082e578063efa90d361461083657600080fd5b8063d8891619116100e9578063d8891619146107aa578063dd96a19d146107b7578063dea5f6a6146107de578063e031535b146107fe57600080fd5b8063c7f758a81461075f578063cb8539501461077f578063d45a010b146107a257600080fd5b806396f0e9621161017c578063b323580d11610156578063b323580d146106f0578063bddc164114610710578063c0ffaa7814610737578063c19d93fb1461074a57600080fd5b806396f0e9621461069d578063a1ac6cb2146106a7578063aec116b6146106c757600080fd5b806384b0196e116101b857806384b0196e14610644578063861874881461065f5780638a9cd55014610672578063930de9791461067a57600080fd5b80637c65d7111461062b5780637de418d514610633578063832009af1461063c57600080fd5b8063419c533c116102c3578063544ffc9c1161026157806365f162631161023057806365f16263146105ec5780636ca1a2c7146105ff5780636e4eb81014610607578063785ddfe51461061a57600080fd5b8063544ffc9c1461055e57806354fd4d501461059b5780635f953a03146105bb57806360506ff6146105e457600080fd5b8063476f4d8a1161029d578063476f4d8a1461051a5780634d24a67f1461052d57806350a5e52414610535578063531bd8121461054b57600080fd5b8063419c533c146104e1578063427d56c2146104f4578063458da87d1461050757600080fd5b806320b3e8451161033057806332763c221161030a57806332763c2214610494578063347cf665146104a75780633932abb1146104b65780633b6d199b146104be57600080fd5b806320b3e845146104665780632399c66014610479578063262e59e91461048c57600080fd5b806302d05d3f1161036c57806302d05d3f146103d857806306fdde03146103f8578063070dc5d91461040d5780631242b7371461045157600080fd5b80624114a81461039257806301ffc9a7146103ad57806302a251a3146103d0575b600080fd5b61039a61087f565b6040519081526020015b60405180910390f35b6103c06103bb366004612ff7565b61088f565b60405190151581526020016103a4565b61039a6108c6565b6103e06108d1565b6040516001600160a01b0390911681526020016103a4565b6104006108e5565b6040516103a49190613067565b61044461041b36600461307a565b601660209081526000918252604091829020825180840190935280548352600101549082015281565b6040516103a49190613093565b610459610977565b6040516103a491906130e5565b6103c0610474366004613154565b6109ce565b6103c061048736600461307a565b610a64565b61039a610aa8565b6103c06104a23660046131bd565b610ac4565b61039a678ac7230489e8000081565b61039a610c01565b6103c06104cc36600461307a565b60009081526007602052604090205460ff1690565b61039a6104ef36600461323e565b610c0c565b6104596105023660046132ae565b610cc8565b61039a610515366004613565565b610e70565b61039a6105283660046135b1565b610ea1565b61039a610f31565b61053d610f3f565b6040516103a49291906135e5565b6103c061055936600461364e565b611045565b61058661056c36600461307a565b600090815260166020526040902080546001909101549091565b604080519283526020830191909152016103a4565b604080518082019091526004815263332e313360e01b6020820152610400565b61039a6105c93660046136a9565b6001600160a01b03166000908152600c602052604090205490565b61039a6110b0565b61039a6105fa3660046136c6565b6110bb565b61039a6111aa565b6105866106153660046136fb565b6111d6565b601d546001600160a01b03166103e0565b61040061120b565b61039a60145481565b61039a61121a565b61064c611225565b6040516103a4979695949392919061372b565b61039a61066d36600461307a565b6112ad565b6104596112e5565b6103c06106883660046136a9565b60036020526000908152604090205460ff1681565b6106a561135e565b005b61039a6106b53660046136a9565b60156020526000908152604090205481565b61039a6106d53660046136a9565b6001600160a01b031660009081526015602052604090205490565b6107036106fe36600461307a565b61167b565b6040516103a491906137d4565b61039a7f000000000000000000000000000000000000000000000000000000000000000081565b61039a6107453660046137e7565b6116ed565b610752611752565b6040516103a49190613858565b61077261076d36600461307a565b6117c4565b6040516103a49190613880565b6103c061078d3660046136a9565b60046020526000908152604090205460ff1681565b61053d61193e565b6017546103c09060ff1681565b61039a7f000000000000000000000000000000000000000000000000000000000000000081565b61039a6107ec3660046136a9565b60026020526000908152604090205481565b61039a611b09565b61039a61081436600461307a565b60186020526000908152604090205481565b6106a5611b1b565b61039a611c60565b610459611c8c565b6106a561084c366004613906565b611ce2565b6106a561085f3660046136a9565b611ef3565b6103c0610872366004613565565b612005565b61039a6122a4565b600061088a600d5490565b905090565b60006001600160e01b031982166319cbae6160e11b14806108c057506301ffc9a760e01b6001600160e01b03198316145b92915050565b600061088a600f5490565b600061088a6013546001600160a01b031690565b6060600880546108f490613947565b80601f016020809104026020016040519081016040528092919081815260200182805461092090613947565b801561096d5780601f106109425761010080835404028352916020019161096d565b820191906000526020600020905b81548152906001019060200180831161095057829003601f168201915b5050505050905090565b6060600680548060200260200160405190810160405280929190818152602001828054801561096d57602002820191906000526020600020905b8154815260200190600101908083116109b1575050505050905090565b6001600160a01b03831660009081526004602052604081205460ff16610a59577f0000000000000000000000000000000000000000000000000000000000000000600003610a1e57506001610a5d565b610a3484678ac7230489e8000085856000610ac4565b506001600160a01b0384166000908152600460205260409020805460ff191660011790555b5060015b9392505050565b60175460009060ff16610a925760405162461bcd60e51b8152600401610a899061397b565b60405180910390fd5b5060009081526019602052604090205460ff1690565b6000610ab26108c6565b610aba611b09565b61088a91906139fc565b6040516bffffffffffffffffffffffff19606087901b166020820152603481018590526000908190605401604051602081830303815290604052805190602001209050600083610b7357610b6e8686808060200260200160405190810160405280939291908181526020018383602002808284376000920191909152507f000000000000000000000000000000000000000000000000000000000000000092508691506122af9050565b610bd3565b610bd38686808060200260200160405190810160405280939291908181526020018383602002808284376000920191909152507f000000000000000000000000000000000000000000000000000000000000000092508691506122af9050565b905080610bf35760405163452c2df160e11b815260040160405180910390fd5b506001979650505050505050565b600061088a600e5490565b600086815260076020526040812054339060ff1615610c3d5760405162461bcd60e51b8152600401610a8990613a0f565b610c4981878686611045565b610cb05760405162461bcd60e51b815260206004820152603260248201527f476f7665726e6f723a20746869732061646472657373206973206e6f74207065604482015271726d697373696f6e656420746f20766f746560701b6064820152608401610a89565b610cbc888289886122c5565b98975050505050505050565b606060008083610cdf57610cda610f3f565b610ce7565b610ce761193e565b915091506000825111610d575760405162461bcd60e51b815260206004820152603260248201527f476f7665726e6f72536f7274696e673a2063616e6e6f7420736f72742061206c6044820152710d2e6e840decc40f4cae4de40d8cadccee8d60731b6064820152608401610a89565b600082516001600160401b03811115610d7257610d726132c9565b604051908082528060200260200182016040528015610d9b578160200160208202803683370190505b50905060005b8251811015610e2f57610dd0838281518110610dbf57610dbf613a5e565b6020026020010151602001516124e5565b610df6848381518110610de557610de5613a5e565b6020026020010151600001516124e5565b610e009190613a74565b828281518110610e1257610e12613a5e565b602090810291909101015280610e2781613a9b565b915050610da1565b5060005b60018451610e419190613ab4565b811015610e6657610e53818386612553565b5080610e5e81613a9b565b915050610e33565b5091949350505050565b600081604051602001610e839190613880565b60408051601f19818403018152919052805160209091012092915050565b60007f000000000000000000000000000000000000000000000000000000000000000015610ef8573360009081526004602052604090205460ff16610ef85760405162461bcd60e51b8152600401610a8990613ac7565b610f0461087283613b16565b610f205760405162461bcd60e51b8152600401610a8990613b22565b6108c0610f2c83613b16565b6126b9565b610f3c6001806139fc565b81565b6060806000610f4c611c8c565b9050600081516001600160401b03811115610f6957610f696132c9565b604051908082528060200260200182016040528015610fae57816020015b6040805180820190915260008082526020820152815260200190600190039081610f875790505b50905060005b825181101561103b5760166000848381518110610fd357610fd3613a5e565b602002602001015181526020019081526020016000206000016040518060400160405290816000820154815260200160018201548152505082828151811061101d5761101d613a5e565b6020026020010181905250808061103390613a9b565b915050610fb4565b5090939092509050565b6001600160a01b03841660009081526003602052604081205460ff166110a557611073858585856001610ac4565b506001600160a01b038516600090815260026020908152604080832087905560039091529020805460ff191660011790555b506001949350505050565b600061088a60125490565b600083815260076020526040812054339060ff16156110ec5760405162461bcd60e51b8152600401610a8990613a0f565b6001600160a01b03811660009081526003602052604090205460ff166111955760405162461bcd60e51b815260206004820152605260248201527f476f7665726e6f723a20796f75206e65656420746f2063617374206120766f7460448201527f652077697468207468652070726f6f66206174206c65617374206f6e636520616064820152711b99081e5bdd481a185d995b89dd081e595d60721b608482015260a401610a89565b6111a1858286866122c5565b95945050505050565b60175460009060ff166111cf5760405162461bcd60e51b8152600401610a899061397b565b50601b5490565b60008281526016602090815260408083206001600160a01b0385168452600301909152902080546001909101545b9250929050565b6060600980546108f490613947565b600061088a60105490565b6000606080828080836112587f000000000000000000000000000000000000000000000000000000000000000083612a53565b6112837f00000000000000000000000000000000000000000000000000000000000000006001612a53565b60408051600080825260208201909252600f60f81b9b939a50919850469750309650945092509050565b60175460009060ff166112d25760405162461bcd60e51b8152600401610a899061397b565b5060009081526018602052604090205490565b60175460609060ff1661130a5760405162461bcd60e51b8152600401610a899061397b565b601a80548060200260200160405190810160405280929190818152602001828054801561096d57602002820191906000526020600020908154815260200190600101908083116109b1575050505050905090565b6004611368611752565b600481111561137957611379613842565b146113fc5760405162461bcd60e51b815260206004820152604760248201527f476f7665726e6f72536f7274696e673a20636f6e74657374206d75737420626560448201527f20746f2063616c63756c61746520736f7274656420616e6420746965642070726064820152666f706f73616c7360c81b608482015260a401610a89565b60175460ff161561149b5760405162461bcd60e51b815260206004820152605f60248201527f476f7665726e6f72536f7274696e673a20736574536f72746564416e6454696560448201527f6450726f706f73616c7328292068617320616c7265616479206265656e20727560648201527f6e20616e642069747320726573706563746976652076616c7565732073657400608482015260a401610a89565b6114a56001610cc8565b80516114b991601a91602090910190612ed5565b50601a546000906001906114cd90826139fc565b601c55601a5460005b8181101561166857601a546000906114f090600190613ab4565b9050600080611539601a6115048686613ab4565b8154811061151457611514613a5e565b9060005260206000200154600090815260166020526040902080546001909101549091565b915091506000611548826124e5565b611551846124e5565b61155b9190613a74565b90508460000361159457601a54909750879060010361158b576000878152601860205260409020849055601b8790555b50505050611656565b8781036115ec5760008781526019602052604090205460ff166115cb576000878152601960205260409020805460ff191660011790555b601a546115d99060016139fc565b601c54036115e757601c8790555b61161e565b6115f68585613ab4565b6116019060016139fc565b6000888152601860205260409020558661161a81613a9b565b9750505b601a5461162c8660016139fc565b036116505761163b8585613ab4565b600088815260186020526040902055601b8790555b96505050505b8061166081613a9b565b9150506114d6565b50506017805460ff191660011790555050565b60008181526016602090815260409182902060028101805484518185028101850190955280855260609492938301828280156116e057602002820191906000526020600020905b81546001600160a01b031681526001909101906020018083116116c2575b5050505050915050919050565b60006116fa3384846109ce565b6117165760405162461bcd60e51b8152600401610a8990613ac7565b61172261087285613b16565b61173e5760405162461bcd60e51b8152600401610a8990613b22565b61174a610f2c85613b16565b949350505050565b600a5460009060ff16156117665750600290565b600061177061087f565b905042811061178157600091505090565b600061178b611b09565b905042811061179d5760039250505090565b60006117a7610aa8565b90504281106117ba576001935050505090565b6004935050505090565b6117cc612f1c565b6000828152600b6020908152604091829020825160a08101845281546001600160a01b0381168252600160a01b900460ff16151592810192909252600181018054929391929184019161181e90613947565b80601f016020809104026020016040519081016040528092919081815260200182805461184a90613947565b80156118975780601f1061186c57610100808354040283529160200191611897565b820191906000526020600020905b81548152906001019060200180831161187a57829003601f168201915b5050509183525050604080516020818101835260028501546001600160a01b0316825280840191909152815160038501805460609381028301840185528285018181529490950194919390928492849184018282801561192057602002820191906000526020600020905b81546001600160a01b03168152600190910190602001808311611902575b50505050508152602001600182015481525050815250509050919050565b606080600061194b611c8c565b9050600081516001600160401b03811115611968576119686132c9565b604051908082528060200260200182016040528015611991578160200160208202803683370190505b509050600082516001600160401b038111156119af576119af6132c9565b6040519080825280602002602001820160405280156119f457816020015b60408051808201909152600080825260208201528152602001906001900390816119cd5790505b5090506000805b8451811015611afd57611a36858281518110611a1957611a19613a5e565b602002602001015160009081526007602052604090205460ff1690565b611aeb57848181518110611a4c57611a4c613a5e565b6020026020010151848381518110611a6657611a66613a5e565b60200260200101818152505060166000868381518110611a8857611a88613a5e565b6020026020010151815260200190815260200160002060000160405180604001604052908160008201548152602001600182015481525050838381518110611ad257611ad2613a5e565b6020908102919091010152611ae86001836139fc565b91505b80611af581613a9b565b9150506119fb565b50919590945092505050565b6000611b13610c01565b610aba61087f565b611b236108d1565b6001600160a01b0316336001600160a01b031614611b9b5760405162461bcd60e51b815260206004820152602f60248201527f476f7665726e6f723a206f6e6c79207468652063726561746f722063616e206360448201526e185b98d95b08184818dbdb9d195cdd608a1b6064820152608401610a89565b6000611ba5611752565b90506002816004811115611bbb57611bbb613842565b14158015611bdb57506004816004811115611bd857611bd8613842565b14155b611c275760405162461bcd60e51b815260206004820152601c60248201527f476f7665726e6f723a20636f6e74657374206e6f7420616374697665000000006044820152606401610a89565b600a805460ff191660011790556040517f4cd963a081760a54f571abc0f1db4dde31b4a07d8d6da3e844b8c6f47eeaaa4290600090a150565b60175460009060ff16611c855760405162461bcd60e51b8152600401610a899061397b565b50601c5490565b6060600580548060200260200160405190810160405280929190818152602001828054801561096d57602002820191906000526020600020908154815260200190600101908083116109b1575050505050905090565b611cea6108d1565b6001600160a01b0316336001600160a01b031614611d705760405162461bcd60e51b815260206004820152603760248201527f476f7665726e6f723a206f6e6c792074686520636f6e7465737420637265617460448201527f6f722063616e2064656c6574652070726f706f73616c730000000000000000006064820152608401610a89565b6004611d7a611752565b6004811115611d8b57611d8b613842565b03611e105760405162461bcd60e51b815260206004820152604960248201527f476f7665726e6f723a2064656c6574696f6e206f662070726f706f73616c732060448201527f61667465722074686520656e64206f66206120636f6e74657374206973206e6f6064820152681d08185b1b1bddd95960ba1b608482015260a401610a89565b60005b81811015611eb5576000838383818110611e2f57611e2f613a5e565b60209081029290920135600081815260079093526040909220549192505060ff16611ea2576000818152600760205260408120805460ff191660019081179091556006805491820181559091527ff652222313e28459528d920b65115c16c04f3efc82aaedc97be59f3f377c0d3f018190555b5080611ead81613a9b565b915050611e13565b507f75a75cf5c561892f4cc5b26c1b8e933849b42238c96dd073d080d1ae96c514168282604051611ee7929190613b6e565b60405180910390a15050565b611efb6108d1565b6001600160a01b0316336001600160a01b031614611f965760405162461bcd60e51b815260206004820152604c60248201527f476f7665726e6f724d6f64756c6552656769737472793a206f6e6c792074686560448201527f2063726561746f722063616e2073657420746865206f6666696369616c20726560648201526b7761726473206d6f64756c6560a01b608482015260a401610a89565b6000611faa601d546001600160a01b031690565b601d80546001600160a01b0319166001600160a01b0385811691821790925560408051928416835260208301919091529192507f753a2cf8d360cff631674504210913e48247f8e56b3e6d2006c2103d4095999f9101611ee7565b80516000906001600160a01b0316331461207a5760405162461bcd60e51b815260206004820152603060248201527f476f7665726e6f723a207468652070726f706f73616c20617574686f72206d7560448201526f39ba1031329036b9b39739b2b73232b960811b6064820152608401610a89565b60005b6120886001806139fc565b8110156122285760008160018111156120a3576120a3613842565b905060008160018111156120b9576120b9613842565b036120c45750612216565b60018160018111156120d8576120d8613842565b036121fb576080840151515160000361216a5760405162461bcd60e51b815260206004820152604860248201527f476f7665726e6f724d6574616461746156616c69646174696f6e3a207468657260448201527f652063616e6e6f74206265207a65726f207369676e65727320696e20736166656064820152674d6574616461746160c01b608482015260a401610a89565b8360800151602001516000036121f65760405162461bcd60e51b8152602060048201526044602482018190527f476f7665726e6f724d6574616461746156616c69646174696f6e3a2074687265908201527f73686f6c642063616e6e6f74206265207a65726f20696e20736166654d6574616064820152636461746160e01b608482015260a401610a89565b612214565b6040516308b6566d60e11b815260040160405180910390fd5b505b8061222081613a9b565b91505061207d565b5081604001515160000361229c5760405162461bcd60e51b815260206004820152603560248201527f476f7665726e6f723a20656d7074792070726f706f73616c20646573637269706044820152741d1a5bdb9cc8185c99481b9bdd08185b1b1bddd959605a1b6064820152608401610a89565b506001919050565b600061088a60115490565b6000826122bc8584612aff565b14949350505050565b600060016122d1611752565b60048111156122e2576122e2613842565b1461233b5760405162461bcd60e51b815260206004820152602360248201527f476f7665726e6f723a20766f7465206e6f742063757272656e746c792061637460448201526269766560e81b6064820152608401610a89565b6000821161239f5760405162461bcd60e51b815260206004820152602b60248201527f476f7665726e6f723a2063616e6e6f7420766f746520776974682030206f722060448201526a666577657220766f74657360a81b6064820152608401610a89565b6001600160a01b03841660009081526003602052604090205460ff166124455760405162461bcd60e51b815260206004820152604f60248201527f476f7665726e6f723a20796f75206e65656420746f2076657269667920796f7560448201527f72206e756d626572206f6620766f74657320616761696e737420746865206d6560648201526e1c9adb19481c9bdbdd08199a5c9cdd608a1b608482015260a401610a89565b61247785858585600260008a6001600160a01b03166001600160a01b0316815260200190815260200160002054612b4c565b6040805186815260ff851660208201529081018390526001600160a01b038516907f2c9deb38f462962eadbd85a9d3a4120503ee091f1582eaaa10aa8c6797651d299060600160405180910390a25050506001600160a01b0316600090815260026020526040902054919050565b60006001600160ff1b0382111561254f5760405162461bcd60e51b815260206004820152602860248201527f53616665436173743a2076616c756520646f65736e27742066697420696e2061604482015267371034b73a191a9b60c11b6064820152608401610a89565b5090565b600083805b84518110156125b15784828151811061257357612573613a5e565b602002602001015185828151811061258d5761258d613a5e565b6020026020010151121561259f578091505b806125a981613a9b565b915050612558565b508481036125c3576000915050610a5d565b60008486815181106125d7576125d7613a5e565b602002602001015190508482815181106125f3576125f3613a5e565b602002602001015185878151811061260d5761260d613a5e565b6020026020010181815250508085838151811061262c5761262c613a5e565b602002602001018181525050600084878151811061264c5761264c613a5e565b6020026020010151905084838151811061266857612668613a5e565b602002602001015185888151811061268257612682613a5e565b602002602001018181525050808584815181106126a1576126a1613a5e565b60209081029190910101525060019695505050505050565b600060036126c5611752565b60048111156126d6576126d6613842565b146127495760405162461bcd60e51b815260206004820152603e60248201527f476f7665726e6f723a20636f6e74657374206d7573742062652071756575656460448201527f20666f722070726f706f73616c7320746f206265207375626d697474656400006064820152608401610a89565b61275161121a565b336000908152600c6020526040902054106128085760405162461bcd60e51b815260206004820152606560248201527f476f7665726e6f723a207468652073616d6520616464726573732063616e6e6f60448201527f74207375626d6974206d6f7265207468616e20746865206e756d416c6c6f776560648201527f6450726f706f73616c5375626d697373696f6e7320666f72207468697320636f6084820152641b9d195cdd60da1b60a482015260c401610a89565b6128106122a4565b6006546005546128209190613ab4565b106128935760405162461bcd60e51b815260206004820152603960248201527f476f7665726e6f723a20746865206d6178206e756d626572206f662070726f7060448201527f6f73616c732068617665206265656e207375626d6974746564000000000000006064820152608401610a89565b600061289e83610e70565b6000818152600b6020526040902054909150600160a01b900460ff16156129195760405162461bcd60e51b815260206004820152602960248201527f476f7665726e6f723a206475706c69636174652070726f706f73616c73206e6f6044820152681d08185b1b1bddd95960ba1b6064820152608401610a89565b6005805460018181019092557f036b6384b5eca791c62761152d0c79bb0604c104a5fb6f4eb0703f3154bb3db0018290556000828152600b602090815260409182902086518154928801511515600160a01b026001600160a81b03199093166001600160a01b039091161791909117815590850151859282019061299d9082613bf6565b506060820151516002820180546001600160a01b0319166001600160a01b0390921691909117905560808201518051805160038401916129e291839160200190612f8d565b50602091820151600191820155336000908152600c9092526040822080549194509250612a109084906139fc565b9091555050604080518281523360208201527fcd423cc1203c0af96b9b3d68d73b3064a69de2d14450bb7181c5e5df2132b358910160405180910390a192915050565b606060ff8314612a6d57612a6683612e42565b90506108c0565b818054612a7990613947565b80601f0160208091040260200160405190810160405280929190818152602001828054612aa590613947565b8015612af25780601f10612ac757610100808354040283529160200191612af2565b820191906000526020600020905b815481529060010190602001808311612ad557829003601f168201915b5050505050905092915050565b600081815b8451811015612b4457612b3082868381518110612b2357612b23613a5e565b6020026020010151612e81565b915080612b3c81613a9b565b915050612b04565b509392505050565b60008581526016602090815260408083206001600160a01b0388168452601590925290912054612b7c9083613ab4565b831115612be75760405162461bcd60e51b815260206004820152603360248201527f476f7665726e6f72566f74696e6753696d706c653a206e6f7420656e6f756768604482015272081d9bdd195cc81b19599d081d1bc818d85cdd606a1b6064820152608401610a89565b6001600160a01b0385166000908152600382016020526040812054158015612c2a57506001600160a01b0386166000908152600383016020526040902060010154155b905060ff8516612c8257815484908390600090612c489084906139fc565b90915550506001600160a01b038616600090815260038301602052604081208054869290612c779084906139fc565b90915550612dbc9050565b60001960ff861601612d5657612c966110b0565b600114612d0d576040805162461bcd60e51b81526020600482015260248101919091527f476f7665726e6f72566f74696e6753696d706c653a20646f776e766f74696e6760448201527f206973206e6f7420656e61626c656420666f72207468697320436f6e746573746064820152608401610a89565b83826000016001016000828254612d2491906139fc565b90915550506001600160a01b038616600090815260038301602052604081206001018054869290612c779084906139fc565b60405162461bcd60e51b815260206004820152603560248201527f476f7665726e6f72566f74696e6753696d706c653a20696e76616c69642076616044820152746c756520666f7220656e756d20566f74655479706560581b6064820152608401610a89565b8015612df357600282018054600181018255600091825260209091200180546001600160a01b0319166001600160a01b0388161790555b6001600160a01b03861660009081526015602052604081208054869290612e1b9084906139fc565b925050819055508360146000828254612e3491906139fc565b909155505050505050505050565b60606000612e4f83612ead565b604080516020808252818301909252919250600091906020820181803683375050509182525060208101929092525090565b6000818310612e9d576000828152602084905260409020610a5d565b5060009182526020526040902090565b600060ff8216601f8111156108c057604051632cd44ac360e21b815260040160405180910390fd5b828054828255906000526020600020908101928215612f10579160200282015b82811115612f10578251825591602001919060010190612ef5565b5061254f929150612fe2565b6040518060a0016040528060006001600160a01b0316815260200160001515815260200160608152602001612f66604051806020016040528060006001600160a01b031681525090565b8152602001612f88604051806040016040528060608152602001600081525090565b905290565b828054828255906000526020600020908101928215612f10579160200282015b82811115612f1057825182546001600160a01b0319166001600160a01b03909116178255602090920191600190910190612fad565b5b8082111561254f5760008155600101612fe3565b60006020828403121561300957600080fd5b81356001600160e01b031981168114610a5d57600080fd5b6000815180845260005b818110156130475760208185018101518683018201520161302b565b506000602082860101526020601f19601f83011685010191505092915050565b602081526000610a5d6020830184613021565b60006020828403121561308c57600080fd5b5035919050565b8151815260208083015190820152604081016108c0565b600081518084526020808501945080840160005b838110156130da578151875295820195908201906001016130be565b509495945050505050565b602081526000610a5d60208301846130aa565b6001600160a01b038116811461310d57600080fd5b50565b60008083601f84011261312257600080fd5b5081356001600160401b0381111561313957600080fd5b6020830191508360208260051b850101111561120457600080fd5b60008060006040848603121561316957600080fd5b8335613174816130f8565b925060208401356001600160401b0381111561318f57600080fd5b61319b86828701613110565b9497909650939450505050565b803580151581146131b857600080fd5b919050565b6000806000806000608086880312156131d557600080fd5b85356131e0816130f8565b94506020860135935060408601356001600160401b0381111561320257600080fd5b61320e88828901613110565b90945092506132219050606087016131a8565b90509295509295909350565b803560ff811681146131b857600080fd5b60008060008060008060a0878903121561325757600080fd5b863595506132676020880161322d565b9450604087013593506060870135925060808701356001600160401b0381111561329057600080fd5b61329c89828a01613110565b979a9699509497509295939492505050565b6000602082840312156132c057600080fd5b610a5d826131a8565b634e487b7160e01b600052604160045260246000fd5b604080519081016001600160401b0381118282101715613301576133016132c9565b60405290565b60405160a081016001600160401b0381118282101715613301576133016132c9565b604051601f8201601f191681016001600160401b0381118282101715613351576133516132c9565b604052919050565b60006020828403121561336b57600080fd5b604051602081018181106001600160401b038211171561338d5761338d6132c9565b604052905080823561339e816130f8565b905292915050565b6000604082840312156133b857600080fd5b6133c06132df565b905081356001600160401b03808211156133d957600080fd5b818401915084601f8301126133ed57600080fd5b8135602082821115613401576134016132c9565b8160051b9250613412818401613329565b828152928401810192818101908885111561342c57600080fd5b948201945b848610156134565785359350613446846130f8565b8382529482019490820190613431565b808752505080860135818601525050505092915050565b600060a0828403121561347f57600080fd5b613487613307565b90508135613494816130f8565b815260206134a38382016131a8565b8183015260408301356001600160401b03808211156134c157600080fd5b818501915085601f8301126134d557600080fd5b8135818111156134e7576134e76132c9565b6134f9601f8201601f19168501613329565b818152878583860101111561350d57600080fd5b8185850186830137600085838301015280604087015250506135328660608701613359565b6060850152608085013592508083111561354b57600080fd5b5050613559848285016133a6565b60808301525092915050565b60006020828403121561357757600080fd5b81356001600160401b0381111561358d57600080fd5b61174a8482850161346d565b600060a082840312156135ab57600080fd5b50919050565b6000602082840312156135c357600080fd5b81356001600160401b038111156135d957600080fd5b61174a84828501613599565b600060408083526135f8818401866130aa565b83810360208581019190915285518083528682019282019060005b818110156136405761363083865180518252602090810151910152565b9383019391850191600101613613565b509098975050505050505050565b6000806000806060858703121561366457600080fd5b843561366f816130f8565b93506020850135925060408501356001600160401b0381111561369157600080fd5b61369d87828801613110565b95989497509550505050565b6000602082840312156136bb57600080fd5b8135610a5d816130f8565b6000806000606084860312156136db57600080fd5b833592506136eb6020850161322d565b9150604084013590509250925092565b6000806040838503121561370e57600080fd5b823591506020830135613720816130f8565b809150509250929050565b60ff60f81b8816815260e06020820152600061374a60e0830189613021565b828103604084015261375c8189613021565b606084018890526001600160a01b038716608085015260a0840186905283810360c0850152905061378d81856130aa565b9a9950505050505050505050565b600081518084526020808501945080840160005b838110156130da5781516001600160a01b0316875295820195908201906001016137af565b602081526000610a5d602083018461379b565b6000806000604084860312156137fc57600080fd5b83356001600160401b038082111561381357600080fd5b61381f87838801613599565b9450602086013591508082111561383557600080fd5b5061319b86828701613110565b634e487b7160e01b600052602160045260246000fd5b602081016005831061387a57634e487b7160e01b600052602160045260246000fd5b91905290565b60208152600060018060a01b03808451166020840152602084015115156040840152604084015160a060608501526138bb60c0850182613021565b90508160608601515116608085015260808501519150601f198482030160a08501528151604082526138f0604083018261379b565b6020938401519290930191909152509392505050565b6000806020838503121561391957600080fd5b82356001600160401b0381111561392f57600080fd5b61393b85828601613110565b90969095509350505050565b600181811c9082168061395b57607f821691505b6020821081036135ab57634e487b7160e01b600052602260045260246000fd5b60208082526045908201527f526577617264734d6f64756c653a2072756e20736574536f72746564416e645460408201527f69656450726f706f73616c73282920746f20706f70756c61746520746869732060608201526476616c756560d81b608082015260a00190565b634e487b7160e01b600052601160045260246000fd5b808201808211156108c0576108c06139e6565b6020808252602f908201527f476f7665726e6f723a20796f752063616e6e6f7420766f7465206f6e2061206460408201526e195b195d1959081c1c9bdc1bdcd85b608a1b606082015260800190565b634e487b7160e01b600052603260045260246000fd5b8181036000831280158383131683831282161715613a9457613a946139e6565b5092915050565b600060018201613aad57613aad6139e6565b5060010190565b818103818111156108c0576108c06139e6565b6020808252602f908201527f476f7665726e6f723a2061646472657373206973206e6f74207065726d69737360408201526e1a5bdb9959081d1bc81cdd589b5a5d608a1b606082015260800190565b60006108c0368361346d565b6020808252602c908201527f476f7665726e6f723a2070726f706f73616c20636f6e74656e74206661696c6560408201526b32103b30b634b230ba34b7b760a11b606082015260800190565b6020808252810182905260006001600160fb1b03831115613b8e57600080fd5b8260051b80856040850137919091016040019392505050565b601f821115613bf157600081815260208120601f850160051c81016020861015613bce5750805b601f850160051c820191505b81811015613bed57828155600101613bda565b5050505b505050565b81516001600160401b03811115613c0f57613c0f6132c9565b613c2381613c1d8454613947565b84613ba7565b602080601f831160018114613c585760008415613c405750858301515b600019600386901b1c1916600185901b178555613bed565b600085815260208120601f198616915b82811015613c8757888601518255948401946001909101908401613c68565b5085821015613ca55787850151600019600388901b60f8161c191681555b5050505050600190811b0190555056fea264697066735822122027613369caa77456e7da3b2d50092522e56c7a3fc356b36c2217efa2f4c5efdd64736f6c63430008130033",
    "linkReferences": {}
  },
  "methodIdentifiers": {
    "AMOUNT_FOR_SUMBITTER_PROOF()": "347cf665",
    "METADATAS_COUNT()": "4d24a67f",
    "addressSubmitterVerified(address)": "cb853950",
    "addressTotalCastVoteCounts(address)": "a1ac6cb2",
    "addressTotalVotes(address)": "dea5f6a6",
    "addressTotalVotesVerified(address)": "930de979",
    "allProposalTotalVotes()": "50a5e524",
    "allProposalTotalVotesWithoutDeleted()": "d45a010b",
    "cancel()": "ea8a1af0",
    "castVote(uint256,uint8,uint256,uint256,bytes32[])": "419c533c",
    "castVoteWithoutProof(uint256,uint8,uint256)": "65f16263",
    "checkProof(address,uint256,bytes32[],bool)": "32763c22",
    "contestAddressTotalVotesCast(address)": "aec116b6",
    "contestDeadline()": "262e59e9",
    "contestStart()": "004114a8",
    "creator()": "02d05d3f",
    "deleteProposals(uint256[])": "f0a7db0a",
    "downvotingAllowed()": "60506ff6",
    "eip712Domain()": "84b0196e",
    "getAllDeletedProposalIds()": "1242b737",
    "getAllProposalIds()": "efa90d36",
    "getNumSubmissions(address)": "5f953a03",
    "getProposal(uint256)": "c7f758a8",
    "hashProposal((address,bool,string,(address),(address[],uint256)))": "458da87d",
    "highestTiedRanking()": "ebc18b9b",
    "isProposalDeleted(uint256)": "3b6d199b",
    "isTied(uint256)": "2399c660",
    "lowestRanking()": "6ca1a2c7",
    "maxProposalCount()": "fb9bf8d4",
    "name()": "06fdde03",
    "numAllowedProposalSubmissions()": "832009af",
    "officialRewardsModule()": "785ddfe5",
    "prompt()": "7c65d711",
    "proposalAddressVotes(uint256,address)": "6e4eb810",
    "proposalAddressesHaveVoted(uint256)": "b323580d",
    "proposalVotes(uint256)": "544ffc9c",
    "proposalVotesStructs(uint256)": "070dc5d9",
    "propose((address,bool,string,(address),(address[],uint256)),bytes32[])": "c0ffaa78",
    "proposeWithoutProof((address,bool,string,(address),(address[],uint256)))": "476f4d8a",
    "rankingPosition(uint256)": "86187488",
    "setOfficialRewardsModule(address)": "f4f3d7ec",
    "setSortedAndTiedProposals()": "96f0e962",
    "setSortedAndTiedProposalsHasBeenRun()": "d8891619",
    "sortedProposalIds()": "8a9cd550",
    "sortedProposals(bool)": "427d56c2",
    "state()": "c19d93fb",
    "submissionMerkleRoot()": "bddc1641",
    "supportsInterface(bytes4)": "01ffc9a7",
    "tiedAdjustedRankingPosition(uint256)": "e5eb5a48",
    "totalVotesCast()": "7de418d5",
    "validateProposalData((address,bool,string,(address),(address[],uint256)))": "fb8ddab4",
    "verifyProposer(address,bytes32[])": "20b3e845",
    "verifyVoter(address,uint256,bytes32[])": "531bd812",
    "version()": "54fd4d50",
    "voteStart()": "e031535b",
    "votingDelay()": "3932abb1",
    "votingMerkleRoot()": "dd96a19d",
    "votingPeriod()": "02a251a3"
  },
  "id": 40
}