{"abi":[{"type":"constructor","inputs":[{"name":"_name","type":"string","internalType":"string"},{"name":"_prompt","type":"string","internalType":"string"},{"name":"_submissionMerkleRoot","type":"bytes32","internalType":"bytes32"},{"name":"_votingMerkleRoot","type":"bytes32","internalType":"bytes32"},{"name":"_constructorArgs","type":"tuple","internalType":"struct Governor.ConstructorArgs","components":[{"name":"contestStart","type":"uint256","internalType":"uint256"},{"name":"votingDelay","type":"uint256","internalType":"uint256"},{"name":"votingPeriod","type":"uint256","internalType":"uint256"},{"name":"numAllowedProposalSubmissions","type":"uint256","internalType":"uint256"},{"name":"maxProposalCount","type":"uint256","internalType":"uint256"},{"name":"downvotingAllowed","type":"uint256","internalType":"uint256"},{"name":"sortingEnabled","type":"uint256","internalType":"uint256"},{"name":"rankLimit","type":"uint256","internalType":"uint256"},{"name":"percentageToCreator","type":"uint256","internalType":"uint256"},{"name":"costToPropose","type":"uint256","internalType":"uint256"},{"name":"costToVote","type":"uint256","internalType":"uint256"},{"name":"payPerVote","type":"uint256","internalType":"uint256"},{"name":"creatorSplitDestination","type":"address","internalType":"address"}]}],"stateMutability":"nonpayable"},{"type":"function","name":"AMOUNT_FOR_SUMBITTER_PROOF","inputs":[],"outputs":[{"name":"","type":"uint256","internalType":"uint256"}],"stateMutability":"view"},{"type":"function","name":"JK_LABS_ADDRESS","inputs":[],"outputs":[{"name":"","type":"address","internalType":"address"}],"stateMutability":"view"},{"type":"function","name":"METADATAS_COUNT","inputs":[],"outputs":[{"name":"","type":"uint256","internalType":"uint256"}],"stateMutability":"view"},{"type":"function","name":"addressSubmitterVerified","inputs":[{"name":"","type":"address","internalType":"address"}],"outputs":[{"name":"","type":"bool","internalType":"bool"}],"stateMutability":"view"},{"type":"function","name":"addressTotalCastVoteCounts","inputs":[{"name":"","type":"address","internalType":"address"}],"outputs":[{"name":"","type":"uint256","internalType":"uint256"}],"stateMutability":"view"},{"type":"function","name":"addressTotalVotes","inputs":[{"name":"","type":"address","internalType":"address"}],"outputs":[{"name":"","type":"uint256","internalType":"uint256"}],"stateMutability":"view"},{"type":"function","name":"addressTotalVotesVerified","inputs":[{"name":"","type":"address","internalType":"address"}],"outputs":[{"name":"","type":"bool","internalType":"bool"}],"stateMutability":"view"},{"type":"function","name":"addressesThatHaveVoted","inputs":[{"name":"","type":"uint256","internalType":"uint256"}],"outputs":[{"name":"","type":"address","internalType":"address"}],"stateMutability":"view"},{"type":"function","name":"allProposalTotalVotes","inputs":[],"outputs":[{"name":"proposalIdsReturn","type":"uint256[]","internalType":"uint256[]"},{"name":"proposalVoteCountsArrayReturn","type":"tuple[]","internalType":"struct GovernorCountingSimple.VoteCounts[]","components":[{"name":"forVotes","type":"uint256","internalType":"uint256"},{"name":"againstVotes","type":"uint256","internalType":"uint256"}]}],"stateMutability":"view"},{"type":"function","name":"cancel","inputs":[],"outputs":[],"stateMutability":"nonpayable"},{"type":"function","name":"canceled","inputs":[],"outputs":[{"name":"","type":"bool","internalType":"bool"}],"stateMutability":"view"},{"type":"function","name":"castVote","inputs":[{"name":"proposalId","type":"uint256","internalType":"uint256"},{"name":"support","type":"uint8","internalType":"uint8"},{"name":"totalVotes","type":"uint256","internalType":"uint256"},{"name":"numVotes","type":"uint256","internalType":"uint256"},{"name":"proof","type":"bytes32[]","internalType":"bytes32[]"}],"outputs":[{"name":"","type":"uint256","internalType":"uint256"}],"stateMutability":"payable"},{"type":"function","name":"castVoteWithoutProof","inputs":[{"name":"proposalId","type":"uint256","internalType":"uint256"},{"name":"support","type":"uint8","internalType":"uint8"},{"name":"numVotes","type":"uint256","internalType":"uint256"}],"outputs":[{"name":"","type":"uint256","internalType":"uint256"}],"stateMutability":"payable"},{"type":"function","name":"checkProof","inputs":[{"name":"addressToCheck","type":"address","internalType":"address"},{"name":"amount","type":"uint256","internalType":"uint256"},{"name":"proof","type":"bytes32[]","internalType":"bytes32[]"},{"name":"voting","type":"bool","internalType":"bool"}],"outputs":[{"name":"verified","type":"bool","internalType":"bool"}],"stateMutability":"view"},{"type":"function","name":"comment","inputs":[{"name":"proposalId","type":"uint256","internalType":"uint256"},{"name":"commentContent","type":"string","internalType":"string"}],"outputs":[{"name":"","type":"uint256","internalType":"uint256"}],"stateMutability":"nonpayable"},{"type":"function","name":"commentIds","inputs":[{"name":"","type":"uint256","internalType":"uint256"}],"outputs":[{"name":"","type":"uint256","internalType":"uint256"}],"stateMutability":"view"},{"type":"function","name":"commentIsDeleted","inputs":[{"name":"","type":"uint256","internalType":"uint256"}],"outputs":[{"name":"","type":"bool","internalType":"bool"}],"stateMutability":"view"},{"type":"function","name":"comments","inputs":[{"name":"","type":"uint256","internalType":"uint256"}],"outputs":[{"name":"author","type":"address","internalType":"address"},{"name":"timestamp","type":"uint256","internalType":"uint256"},{"name":"proposalId","type":"uint256","internalType":"uint256"},{"name":"commentContent","type":"string","internalType":"string"}],"stateMutability":"view"},{"type":"function","name":"contestAddressTotalVotesCast","inputs":[{"name":"userAddress","type":"address","internalType":"address"}],"outputs":[{"name":"userTotalVotesCast","type":"uint256","internalType":"uint256"}],"stateMutability":"view"},{"type":"function","name":"contestDeadline","inputs":[],"outputs":[{"name":"","type":"uint256","internalType":"uint256"}],"stateMutability":"view"},{"type":"function","name":"contestStart","inputs":[],"outputs":[{"name":"","type":"uint256","internalType":"uint256"}],"stateMutability":"view"},{"type":"function","name":"costToPropose","inputs":[],"outputs":[{"name":"","type":"uint256","internalType":"uint256"}],"stateMutability":"view"},{"type":"function","name":"costToVote","inputs":[],"outputs":[{"name":"","type":"uint256","internalType":"uint256"}],"stateMutability":"view"},{"type":"function","name":"creator","inputs":[],"outputs":[{"name":"","type":"address","internalType":"address"}],"stateMutability":"view"},{"type":"function","name":"creatorSplitDestination","inputs":[],"outputs":[{"name":"","type":"address","internalType":"address"}],"stateMutability":"view"},{"type":"function","name":"deleteComments","inputs":[{"name":"commentIdsParam","type":"uint256[]","internalType":"uint256[]"}],"outputs":[],"stateMutability":"nonpayable"},{"type":"function","name":"deleteProposals","inputs":[{"name":"proposalIdsToDelete","type":"uint256[]","internalType":"uint256[]"}],"outputs":[],"stateMutability":"nonpayable"},{"type":"function","name":"deletedCommentIds","inputs":[{"name":"","type":"uint256","internalType":"uint256"}],"outputs":[{"name":"","type":"uint256","internalType":"uint256"}],"stateMutability":"view"},{"type":"function","name":"deletedProposalIds","inputs":[{"name":"","type":"uint256","internalType":"uint256"}],"outputs":[{"name":"","type":"uint256","internalType":"uint256"}],"stateMutability":"view"},{"type":"function","name":"downvotingAllowed","inputs":[],"outputs":[{"name":"","type":"uint256","internalType":"uint256"}],"stateMutability":"view"},{"type":"function","name":"forVotesToProposalIds","inputs":[{"name":"","type":"uint256","internalType":"uint256"},{"name":"","type":"uint256","internalType":"uint256"}],"outputs":[{"name":"","type":"uint256","internalType":"uint256"}],"stateMutability":"view"},{"type":"function","name":"getAllAddressesThatHaveVoted","inputs":[],"outputs":[{"name":"","type":"address[]","internalType":"address[]"}],"stateMutability":"view"},{"type":"function","name":"getAllAuthorsOfDeletedProposals","inputs":[],"outputs":[{"name":"","type":"address[]","internalType":"address[]"}],"stateMutability":"view"},{"type":"function","name":"getAllCommentIds","inputs":[],"outputs":[{"name":"","type":"uint256[]","internalType":"uint256[]"}],"stateMutability":"view"},{"type":"function","name":"getAllDeletedCommentIds","inputs":[],"outputs":[{"name":"","type":"uint256[]","internalType":"uint256[]"}],"stateMutability":"view"},{"type":"function","name":"getAllDeletedProposalIds","inputs":[],"outputs":[{"name":"","type":"uint256[]","internalType":"uint256[]"}],"stateMutability":"view"},{"type":"function","name":"getAllProposalAuthors","inputs":[],"outputs":[{"name":"","type":"address[]","internalType":"address[]"}],"stateMutability":"view"},{"type":"function","name":"getAllProposalIds","inputs":[],"outputs":[{"name":"","type":"uint256[]","internalType":"uint256[]"}],"stateMutability":"view"},{"type":"function","name":"getComment","inputs":[{"name":"commentId","type":"uint256","internalType":"uint256"}],"outputs":[{"name":"","type":"tuple","internalType":"struct GovernorEngagement.CommentCore","components":[{"name":"author","type":"address","internalType":"address"},{"name":"timestamp","type":"uint256","internalType":"uint256"},{"name":"proposalId","type":"uint256","internalType":"uint256"},{"name":"commentContent","type":"string","internalType":"string"}]}],"stateMutability":"view"},{"type":"function","name":"getNumProposalsWithThisManyForVotes","inputs":[{"name":"forVotes","type":"uint256","internalType":"uint256"}],"outputs":[{"name":"count","type":"uint256","internalType":"uint256"}],"stateMutability":"view"},{"type":"function","name":"getOnlyProposalIdWithThisManyForVotes","inputs":[{"name":"forVotes","type":"uint256","internalType":"uint256"}],"outputs":[{"name":"proposalId","type":"uint256","internalType":"uint256"}],"stateMutability":"view"},{"type":"function","name":"getProposal","inputs":[{"name":"proposalId","type":"uint256","internalType":"uint256"}],"outputs":[{"name":"","type":"tuple","internalType":"struct Governor.ProposalCore","components":[{"name":"author","type":"address","internalType":"address"},{"name":"exists","type":"bool","internalType":"bool"},{"name":"description","type":"string","internalType":"string"},{"name":"targetMetadata","type":"tuple","internalType":"struct Governor.TargetMetadata","components":[{"name":"targetAddress","type":"address","internalType":"address"}]},{"name":"safeMetadata","type":"tuple","internalType":"struct Governor.SafeMetadata","components":[{"name":"signers","type":"address[]","internalType":"address[]"},{"name":"threshold","type":"uint256","internalType":"uint256"}]}]}],"stateMutability":"view"},{"type":"function","name":"getProposalComments","inputs":[{"name":"proposalId","type":"uint256","internalType":"uint256"}],"outputs":[{"name":"","type":"uint256[]","internalType":"uint256[]"}],"stateMutability":"view"},{"type":"function","name":"getProposalsWithThisManyForVotes","inputs":[{"name":"forVotes","type":"uint256","internalType":"uint256"}],"outputs":[{"name":"proposalsWithThisManyForVotes","type":"uint256[]","internalType":"uint256[]"}],"stateMutability":"view"},{"type":"function","name":"getRankIndex","inputs":[{"name":"rank","type":"uint256","internalType":"uint256"}],"outputs":[{"name":"rankIndex","type":"uint256","internalType":"uint256"}],"stateMutability":"view"},{"type":"function","name":"getSortedRanks","inputs":[],"outputs":[{"name":"sortedRanksArray","type":"uint256[]","internalType":"uint256[]"}],"stateMutability":"view"},{"type":"function","name":"hashComment","inputs":[{"name":"commentObj","type":"tuple","internalType":"struct GovernorEngagement.CommentCore","components":[{"name":"author","type":"address","internalType":"address"},{"name":"timestamp","type":"uint256","internalType":"uint256"},{"name":"proposalId","type":"uint256","internalType":"uint256"},{"name":"commentContent","type":"string","internalType":"string"}]}],"outputs":[{"name":"","type":"uint256","internalType":"uint256"}],"stateMutability":"pure"},{"type":"function","name":"hashProposal","inputs":[{"name":"proposal","type":"tuple","internalType":"struct Governor.ProposalCore","components":[{"name":"author","type":"address","internalType":"address"},{"name":"exists","type":"bool","internalType":"bool"},{"name":"description","type":"string","internalType":"string"},{"name":"targetMetadata","type":"tuple","internalType":"struct Governor.TargetMetadata","components":[{"name":"targetAddress","type":"address","internalType":"address"}]},{"name":"safeMetadata","type":"tuple","internalType":"struct Governor.SafeMetadata","components":[{"name":"signers","type":"address[]","internalType":"address[]"},{"name":"threshold","type":"uint256","internalType":"uint256"}]}]}],"outputs":[{"name":"","type":"uint256","internalType":"uint256"}],"stateMutability":"pure"},{"type":"function","name":"isOrIsBelowTiedRank","inputs":[{"name":"idx","type":"uint256","internalType":"uint256"}],"outputs":[{"name":"atOrBelowTiedRank","type":"bool","internalType":"bool"}],"stateMutability":"view"},{"type":"function","name":"maxProposalCount","inputs":[],"outputs":[{"name":"","type":"uint256","internalType":"uint256"}],"stateMutability":"view"},{"type":"function","name":"name","inputs":[],"outputs":[{"name":"","type":"string","internalType":"string"}],"stateMutability":"view"},{"type":"function","name":"numAllowedProposalSubmissions","inputs":[],"outputs":[{"name":"","type":"uint256","internalType":"uint256"}],"stateMutability":"view"},{"type":"function","name":"numSubmissions","inputs":[{"name":"","type":"address","internalType":"address"}],"outputs":[{"name":"","type":"uint256","internalType":"uint256"}],"stateMutability":"view"},{"type":"function","name":"officialRewardsModule","inputs":[],"outputs":[{"name":"","type":"address","internalType":"contract RewardsModule"}],"stateMutability":"view"},{"type":"function","name":"payPerVote","inputs":[],"outputs":[{"name":"","type":"uint256","internalType":"uint256"}],"stateMutability":"view"},{"type":"function","name":"percentageToCreator","inputs":[],"outputs":[{"name":"","type":"uint256","internalType":"uint256"}],"stateMutability":"view"},{"type":"function","name":"prompt","inputs":[],"outputs":[{"name":"","type":"string","internalType":"string"}],"stateMutability":"view"},{"type":"function","name":"proposalAddressVotes","inputs":[{"name":"proposalId","type":"uint256","internalType":"uint256"},{"name":"userAddress","type":"address","internalType":"address"}],"outputs":[{"name":"forVotes","type":"uint256","internalType":"uint256"},{"name":"againstVotes","type":"uint256","internalType":"uint256"}],"stateMutability":"view"},{"type":"function","name":"proposalAddressesHaveVoted","inputs":[{"name":"proposalId","type":"uint256","internalType":"uint256"}],"outputs":[{"name":"","type":"address[]","internalType":"address[]"}],"stateMutability":"view"},{"type":"function","name":"proposalAuthors","inputs":[{"name":"","type":"uint256","internalType":"uint256"}],"outputs":[{"name":"","type":"address","internalType":"address"}],"stateMutability":"view"},{"type":"function","name":"proposalComments","inputs":[{"name":"","type":"uint256","internalType":"uint256"},{"name":"","type":"uint256","internalType":"uint256"}],"outputs":[{"name":"","type":"uint256","internalType":"uint256"}],"stateMutability":"view"},{"type":"function","name":"proposalIds","inputs":[{"name":"","type":"uint256","internalType":"uint256"}],"outputs":[{"name":"","type":"uint256","internalType":"uint256"}],"stateMutability":"view"},{"type":"function","name":"proposalIsDeleted","inputs":[{"name":"","type":"uint256","internalType":"uint256"}],"outputs":[{"name":"","type":"bool","internalType":"bool"}],"stateMutability":"view"},{"type":"function","name":"proposalVotes","inputs":[{"name":"proposalId","type":"uint256","internalType":"uint256"}],"outputs":[{"name":"forVotes","type":"uint256","internalType":"uint256"},{"name":"againstVotes","type":"uint256","internalType":"uint256"}],"stateMutability":"view"},{"type":"function","name":"proposalVotesStructs","inputs":[{"name":"","type":"uint256","internalType":"uint256"}],"outputs":[{"name":"proposalVoteCounts","type":"tuple","internalType":"struct GovernorCountingSimple.VoteCounts","components":[{"name":"forVotes","type":"uint256","internalType":"uint256"},{"name":"againstVotes","type":"uint256","internalType":"uint256"}]}],"stateMutability":"view"},{"type":"function","name":"proposals","inputs":[{"name":"","type":"uint256","internalType":"uint256"}],"outputs":[{"name":"author","type":"address","internalType":"address"},{"name":"exists","type":"bool","internalType":"bool"},{"name":"description","type":"string","internalType":"string"},{"name":"targetMetadata","type":"tuple","internalType":"struct Governor.TargetMetadata","components":[{"name":"targetAddress","type":"address","internalType":"address"}]},{"name":"safeMetadata","type":"tuple","internalType":"struct Governor.SafeMetadata","components":[{"name":"signers","type":"address[]","internalType":"address[]"},{"name":"threshold","type":"uint256","internalType":"uint256"}]}],"stateMutability":"view"},{"type":"function","name":"propose","inputs":[{"name":"proposal","type":"tuple","internalType":"struct Governor.ProposalCore","components":[{"name":"author","type":"address","internalType":"address"},{"name":"exists","type":"bool","internalType":"bool"},{"name":"description","type":"string","internalType":"string"},{"name":"targetMetadata","type":"tuple","internalType":"struct Governor.TargetMetadata","components":[{"name":"targetAddress","type":"address","internalType":"address"}]},{"name":"safeMetadata","type":"tuple","internalType":"struct Governor.SafeMetadata","components":[{"name":"signers","type":"address[]","internalType":"address[]"},{"name":"threshold","type":"uint256","internalType":"uint256"}]}]},{"name":"proof","type":"bytes32[]","internalType":"bytes32[]"}],"outputs":[{"name":"","type":"uint256","internalType":"uint256"}],"stateMutability":"payable"},{"type":"function","name":"proposeWithoutProof","inputs":[{"name":"proposal","type":"tuple","internalType":"struct Governor.ProposalCore","components":[{"name":"author","type":"address","internalType":"address"},{"name":"exists","type":"bool","internalType":"bool"},{"name":"description","type":"string","internalType":"string"},{"name":"targetMetadata","type":"tuple","internalType":"struct Governor.TargetMetadata","components":[{"name":"targetAddress","type":"address","internalType":"address"}]},{"name":"safeMetadata","type":"tuple","internalType":"struct Governor.SafeMetadata","components":[{"name":"signers","type":"address[]","internalType":"address[]"},{"name":"threshold","type":"uint256","internalType":"uint256"}]}]}],"outputs":[{"name":"","type":"uint256","internalType":"uint256"}],"stateMutability":"payable"},{"type":"function","name":"rankLimit","inputs":[],"outputs":[{"name":"","type":"uint256","internalType":"uint256"}],"stateMutability":"view"},{"type":"function","name":"setOfficialRewardsModule","inputs":[{"name":"officialRewardsModule_","type":"address","internalType":"contract RewardsModule"}],"outputs":[],"stateMutability":"nonpayable"},{"type":"function","name":"setSubmissionMerkleRoot","inputs":[{"name":"newSubmissionMerkleRoot","type":"bytes32","internalType":"bytes32"}],"outputs":[],"stateMutability":"nonpayable"},{"type":"function","name":"setVotingMerkleRoot","inputs":[{"name":"newVotingMerkleRoot","type":"bytes32","internalType":"bytes32"}],"outputs":[],"stateMutability":"nonpayable"},{"type":"function","name":"sortedRanks","inputs":[{"name":"","type":"uint256","internalType":"uint256"}],"outputs":[{"name":"","type":"uint256","internalType":"uint256"}],"stateMutability":"view"},{"type":"function","name":"sortingEnabled","inputs":[],"outputs":[{"name":"","type":"uint256","internalType":"uint256"}],"stateMutability":"view"},{"type":"function","name":"state","inputs":[],"outputs":[{"name":"","type":"uint8","internalType":"enum Governor.ContestState"}],"stateMutability":"view"},{"type":"function","name":"submissionMerkleRoot","inputs":[],"outputs":[{"name":"","type":"bytes32","internalType":"bytes32"}],"stateMutability":"view"},{"type":"function","name":"totalVotesCast","inputs":[],"outputs":[{"name":"","type":"uint256","internalType":"uint256"}],"stateMutability":"view"},{"type":"function","name":"validateProposalData","inputs":[{"name":"proposal","type":"tuple","internalType":"struct Governor.ProposalCore","components":[{"name":"author","type":"address","internalType":"address"},{"name":"exists","type":"bool","internalType":"bool"},{"name":"description","type":"string","internalType":"string"},{"name":"targetMetadata","type":"tuple","internalType":"struct Governor.TargetMetadata","components":[{"name":"targetAddress","type":"address","internalType":"address"}]},{"name":"safeMetadata","type":"tuple","internalType":"struct Governor.SafeMetadata","components":[{"name":"signers","type":"address[]","internalType":"address[]"},{"name":"threshold","type":"uint256","internalType":"uint256"}]}]}],"outputs":[],"stateMutability":"view"},{"type":"function","name":"verifyProposer","inputs":[{"name":"account","type":"address","internalType":"address"},{"name":"proof","type":"bytes32[]","internalType":"bytes32[]"}],"outputs":[],"stateMutability":"nonpayable"},{"type":"function","name":"verifyVoter","inputs":[{"name":"account","type":"address","internalType":"address"},{"name":"totalVotes","type":"uint256","internalType":"uint256"},{"name":"proof","type":"bytes32[]","internalType":"bytes32[]"}],"outputs":[],"stateMutability":"nonpayable"},{"type":"function","name":"version","inputs":[],"outputs":[{"name":"","type":"string","internalType":"string"}],"stateMutability":"pure"},{"type":"function","name":"voteStart","inputs":[],"outputs":[{"name":"","type":"uint256","internalType":"uint256"}],"stateMutability":"view"},{"type":"function","name":"votingDelay","inputs":[],"outputs":[{"name":"","type":"uint256","internalType":"uint256"}],"stateMutability":"view"},{"type":"function","name":"votingMerkleRoot","inputs":[],"outputs":[{"name":"","type":"bytes32","internalType":"bytes32"}],"stateMutability":"view"},{"type":"function","name":"votingPeriod","inputs":[],"outputs":[{"name":"","type":"uint256","internalType":"uint256"}],"stateMutability":"view"},{"type":"event","name":"CommentCreated","inputs":[{"name":"commentId","type":"uint256","indexed":false,"internalType":"uint256"}],"anonymous":false},{"type":"event","name":"CommentsDeleted","inputs":[{"name":"commentIds","type":"uint256[]","indexed":false,"internalType":"uint256[]"}],"anonymous":false},{"type":"event","name":"ContestCanceled","inputs":[],"anonymous":false},{"type":"event","name":"JokeraceCreated","inputs":[{"name":"version","type":"string","indexed":false,"internalType":"string"},{"name":"name","type":"string","indexed":false,"internalType":"string"},{"name":"prompt","type":"string","indexed":false,"internalType":"string"},{"name":"creator","type":"address","indexed":false,"internalType":"address"},{"name":"contestStart","type":"uint256","indexed":false,"internalType":"uint256"},{"name":"votingDelay","type":"uint256","indexed":false,"internalType":"uint256"},{"name":"votingPeriod","type":"uint256","indexed":false,"internalType":"uint256"}],"anonymous":false},{"type":"event","name":"OfficialRewardsModuleSet","inputs":[{"name":"oldOfficialRewardsModule","type":"address","indexed":false,"internalType":"contract RewardsModule"},{"name":"newOfficialRewardsModule","type":"address","indexed":false,"internalType":"contract RewardsModule"}],"anonymous":false},{"type":"event","name":"PaymentReleased","inputs":[{"name":"to","type":"address","indexed":false,"internalType":"address"},{"name":"amount","type":"uint256","indexed":false,"internalType":"uint256"}],"anonymous":false},{"type":"event","name":"ProposalCreated","inputs":[{"name":"proposalId","type":"uint256","indexed":false,"internalType":"uint256"},{"name":"proposer","type":"address","indexed":false,"internalType":"address"},{"name":"proposalDescription","type":"string","indexed":false,"internalType":"string"}],"anonymous":false},{"type":"event","name":"ProposalsDeleted","inputs":[{"name":"proposalIds","type":"uint256[]","indexed":false,"internalType":"uint256[]"}],"anonymous":false},{"type":"event","name":"VoteCast","inputs":[{"name":"voter","type":"address","indexed":true,"internalType":"address"},{"name":"proposalId","type":"uint256","indexed":false,"internalType":"uint256"},{"name":"support","type":"uint8","indexed":false,"internalType":"uint8"},{"name":"numVotes","type":"uint256","indexed":false,"internalType":"uint256"}],"anonymous":false},{"type":"error","name":"AddressNotPermissionedToSubmit","inputs":[]},{"type":"error","name":"AuthorIsNotSender","inputs":[{"name":"author","type":"address","internalType":"address"},{"name":"sender","type":"address","internalType":"address"}]},{"type":"error","name":"CannotDeleteWhenCompleted","inputs":[]},{"type":"error","name":"CannotVoteLessThanOneVoteInPayPerVote","inputs":[]},{"type":"error","name":"CannotVoteOnDeletedProposal","inputs":[]},{"type":"error","name":"ContestAlreadyCancelled","inputs":[]},{"type":"error","name":"ContestMustBeActiveToVote","inputs":[{"name":"currentState","type":"uint8","internalType":"enum Governor.ContestState"}]},{"type":"error","name":"ContestMustBeQueuedToPropose","inputs":[{"name":"currentState","type":"uint8","internalType":"enum Governor.ContestState"}]},{"type":"error","name":"ContestSubmissionLimitReached","inputs":[{"name":"maxProposalCount","type":"uint256","internalType":"uint256"}]},{"type":"error","name":"DownvotingNotEnabled","inputs":[]},{"type":"error","name":"DuplicateSubmission","inputs":[{"name":"proposalId","type":"uint256","internalType":"uint256"}]},{"type":"error","name":"EmptyProposalDescription","inputs":[]},{"type":"error","name":"IncorrectCostSent","inputs":[{"name":"msgValue","type":"uint256","internalType":"uint256"},{"name":"costToVote","type":"uint256","internalType":"uint256"}]},{"type":"error","name":"IndexHasNotBeenPopulated","inputs":[]},{"type":"error","name":"InvalidVoteType","inputs":[]},{"type":"error","name":"MoreThanOneProposalWithThisManyVotes","inputs":[]},{"type":"error","name":"NeedAtLeastOneVoteToVote","inputs":[]},{"type":"error","name":"NeedToSubmitWithProofFirst","inputs":[]},{"type":"error","name":"NeedToVoteWithProofFirst","inputs":[]},{"type":"error","name":"NotEnoughVotesLeft","inputs":[]},{"type":"error","name":"NotInMerkle","inputs":[]},{"type":"error","name":"OnlyCreatorCanDelete","inputs":[]},{"type":"error","name":"OnlyCreatorCanSetRewardsModule","inputs":[]},{"type":"error","name":"OnlyCreatorOrAuthorCanDeleteComments","inputs":[{"name":"failedToDeleteCommentId","type":"uint256","internalType":"uint256"}]},{"type":"error","name":"OnlyJkLabsCanAmend","inputs":[]},{"type":"error","name":"OnlyJkLabsOrCreatorCanCancel","inputs":[]},{"type":"error","name":"PayPerVoteMustBeEnabledForAnyoneCanVote","inputs":[]},{"type":"error","name":"RankCannotBeZero","inputs":[]},{"type":"error","name":"RankIsNotInSortedRanks","inputs":[]},{"type":"error","name":"SenderSubmissionLimitReached","inputs":[{"name":"numAllowedProposalSubmissions","type":"uint256","internalType":"uint256"}]},{"type":"error","name":"SortingAndDownvotingCannotBothBeEnabled","inputs":[]},{"type":"error","name":"UnexpectedMetadata","inputs":[{"name":"unexpectedMetadata","type":"uint8","internalType":"enum Governor.Metadatas"}]},{"type":"error","name":"ZeroSignersInSafeMetadata","inputs":[]},{"type":"error","name":"ZeroThresholdInSafeMetadata","inputs":[]}],"bytecode":{"object":"0x60806040523480156200001157600080fd5b5060405162004c5438038062004c548339810160408190526200003491620002e6565b60c081015160e0820151600091909155600155600383905560048290558484826005620000628482620004b1565b506006620000718382620004b1565b5060078054336001600160a01b0319918216811790925582516008556020808401805160095560408086018051600a556060870151600b556080870151600c5560a0870151600d55610100870151600e55610120870151600f55610140870151601055610160870151601155610180870151601280549096166001600160a01b0390911617909455805180820182526004815263342e323960e01b9381019390935285519151935190517f9a9bca21e4e51607db64fbdbcd7b2284a909c6a8969821f0d161efbdcae701609562000151958a948a949293909290620005ab565b60405180910390a15050508060c0015160011480156200017557508060a001516001145b156200019457604051636bff10c960e01b815260040160405180910390fd5b81158015620001a65750610160810151155b15620001c5576040516397b6be7d60e01b815260040160405180910390fd5b50505050506200061a565b634e487b7160e01b600052604160045260246000fd5b6040516101a081016001600160401b03811182821017156200020c576200020c620001d0565b60405290565b60005b838110156200022f57818101518382015260200162000215565b50506000910152565b600082601f8301126200024a57600080fd5b81516001600160401b0380821115620002675762000267620001d0565b604051601f8301601f19908116603f01168101908282118183101715620002925762000292620001d0565b81604052838152866020858801011115620002ac57600080fd5b620002bf84602083016020890162000212565b9695505050505050565b80516001600160a01b0381168114620002e157600080fd5b919050565b60008060008060008587036102208112156200030157600080fd5b86516001600160401b03808211156200031957600080fd5b620003278a838b0162000238565b975060208901519150808211156200033e57600080fd5b506200034d89828a0162000238565b95505060408701519350606087015192506101a080607f19830112156200037357600080fd5b6200037d620001e6565b91506080880151825260a0880151602083015260c0880151604083015260e08801516060830152610100808901516080840152610120808a015160a0850152610140808b015160c0860152610160808c015160e0870152610180808d015185880152858d0151848801526101c08d0151838801526101e08d0151828801526200040a6102008e01620002c9565b81880152505050505050809150509295509295909350565b600181811c908216806200043757607f821691505b6020821081036200045857634e487b7160e01b600052602260045260246000fd5b50919050565b601f821115620004ac57600081815260208120601f850160051c81016020861015620004875750805b601f850160051c820191505b81811015620004a85782815560010162000493565b5050505b505050565b81516001600160401b03811115620004cd57620004cd620001d0565b620004e581620004de845462000422565b846200045e565b602080601f8311600181146200051d5760008415620005045750858301515b600019600386901b1c1916600185901b178555620004a8565b600085815260208120601f198616915b828110156200054e578886015182559484019460019091019084016200052d565b50858210156200056d5787850151600019600388901b60f8161c191681555b5050505050600190811b01905550565b600081518084526200059781602086016020860162000212565b601f01601f19169290920160200192915050565b60e081526000620005c060e083018a6200057d565b8281036020840152620005d4818a6200057d565b90508281036040840152620005ea81896200057d565b6001600160a01b039790971660608401525050608081019390935260a083019190915260c0909101529392505050565b61462a806200062a6000396000f3fe6080604052600436106104a95760003560e01c80636fd3636b1161026b578063c0ffaa781161014f578063ea8a1af0116100c1578063f4f3d7ec11610085578063f4f3d7ec14610eb5578063f5c3641114610ed5578063f61736f414610ef5578063f79c017214610f15578063fb8ddab414610f45578063fb9bf8d414610f6557600080fd5b8063ea8a1af014610e2d578063edcd1be414610e42578063eef18e1714610e58578063efa90d3614610e80578063f0a7db0a14610e9557600080fd5b8063cbdc27cb11610113578063cbdc27cb14610d8b578063daf762db14610da0578063dd96a19d14610dc0578063dea5f6a614610dd6578063e031535b14610e03578063e11db9d814610e1857600080fd5b8063c0ffaa7814610cd9578063c19d93fb14610cec578063c7f758a814610d0e578063c9a1b6b214610d3b578063cb85395014610d5b57600080fd5b8063946369b5116101e8578063ae66b8ad116101ac578063ae66b8ad14610bfd578063aec116b614610c2d578063b323580d14610c63578063b66d1da314610c83578063bddc164114610ca3578063c05f410414610cb957600080fd5b8063946369b514610b4e5780639b644a2314610b635780639ba197af14610b83578063a1ac6cb214610bb0578063ac67f80114610bdd57600080fd5b80637de418d51161022f5780637de418d514610aa2578063832009af14610ab85780638ebb4c1514610ace5780639174778c14610afe578063930de97914610b1e57600080fd5b80636fd3636b14610a0b578063711effc814610a2057806375e509c514610a40578063785ddfe514610a6d5780637c65d71114610a8d57600080fd5b80633f9942ff1161039257806351a41dec1161030f5780635c7107d8116102d35780635c7107d8146109775780635cb718a11461099757806360506ff6146109ac57806365f16263146109c25780636e4eb810146109d55780636ed815ad146109f557600080fd5b806351a41dec146108ab578063531bd812146108c1578063544c7bb4146108e1578063544ffc9c1461090157806354fd4d501461094a57600080fd5b8063476f4d8a11610356578063476f4d8a146108205780634a587ad4146108335780634d24a67f1461085357806350a5e5241461086857806350c4b6161461088b57600080fd5b80633f9942ff146107935780633fb57c92146107ad578063409fd030146107cd578063419c533c146107ed578063458da87d1461080057600080fd5b80630aa25e441161042b5780632c39805f116103ef5780632c39805f146106d9578063325cc6d9146106fb57806332763c221461071b578063347cf6651461074b578063366ecf5b146107675780633932abb11461077d57600080fd5b80630aa25e44146106405780631242b737146106605780631805c5231461068257806320b3e845146106a2578063262e59e9146106c457600080fd5b80630414126a116104725780630414126a1461056c57806305846cae1461058257806306fdde03146105a2578063070dc5d9146105c45780630800e3001461061357600080fd5b80624114a8146104ae578063013cf08b146104d757806302a251a31461050857806302d05d3f1461051e57806303f7eed614610556575b600080fd5b3480156104ba57600080fd5b506104c460085481565b6040519081526020015b60405180910390f35b3480156104e357600080fd5b506104f76104f2366004613816565b610f7b565b6040516104ce9594939291906138ce565b34801561051457600080fd5b506104c4600a5481565b34801561052a57600080fd5b5060075461053e906001600160a01b031681565b6040516001600160a01b0390911681526020016104ce565b34801561056257600080fd5b506104c460115481565b34801561057857600080fd5b506104c460015481565b34801561058e57600080fd5b506104c461059d366004613816565b6110c3565b3480156105ae57600080fd5b506105b76110e4565b6040516104ce9190613920565b3480156105d057600080fd5b506106066105df366004613816565b60208080526000918252604091829020825180840190935280548352600101549082015281565b6040516104ce9190613933565b34801561061f57600080fd5b5061063361062e366004613816565b611172565b6040516104ce919061394a565b34801561064c57600080fd5b5061053e61065b366004613816565b611286565b34801561066c57600080fd5b506106756112b0565b6040516104ce91906139ce565b34801561068e57600080fd5b506104c461069d366004613b02565b611308565b3480156106ae57600080fd5b506106c26106bd366004613ba1565b611429565b005b3480156106d057600080fd5b506104c4611498565b3480156106e557600080fd5b506106ee6114b4565b6040516104ce9190613bf5565b34801561070757600080fd5b506104c4610716366004613816565b611515565b34801561072757600080fd5b5061073b610736366004613c57565b611525565b60405190151581526020016104ce565b34801561075757600080fd5b506104c4678ac7230489e8000081565b34801561077357600080fd5b506104c460005481565b34801561078957600080fd5b506104c460095481565b34801561079f57600080fd5b5060165461073b9060ff1681565b3480156107b957600080fd5b506104c46107c8366004613816565b611624565b3480156107d957600080fd5b506104c46107e8366004613cc7565b611634565b6104c46107fb366004613d83565b611665565b34801561080c57600080fd5b506104c461081b366004613f92565b6116d3565b6104c461082e366004613fde565b6116e6565b34801561083f57600080fd5b5060125461053e906001600160a01b031681565b34801561085f57600080fd5b506104c4611760565b34801561087457600080fd5b5061087d61176e565b6040516104ce929190614012565b34801561089757600080fd5b5061053e6108a6366004613816565b611874565b3480156108b757600080fd5b506104c460105481565b3480156108cd57600080fd5b506106c26108dc36600461407b565b611884565b3480156108ed57600080fd5b506106c26108fc366004613816565b6118f9565b34801561090d57600080fd5b5061093561091c366004613816565b6000908152602080526040902080546001909101549091565b604080519283526020830191909152016104ce565b34801561095657600080fd5b50604080518082019091526004815263342e323960e01b60208201526105b7565b34801561098357600080fd5b506104c4610992366004613816565b611932565b3480156109a357600080fd5b50610675611a39565b3480156109b857600080fd5b506104c4600d5481565b6104c46109d03660046140d6565b611a8f565b3480156109e157600080fd5b506109356109f036600461410b565b611b2d565b348015610a0157600080fd5b506104c4600f5481565b348015610a1757600080fd5b50610675611b60565b348015610a2c57600080fd5b506104c4610a3b36600461413b565b611bb6565b348015610a4c57600080fd5b506104c4610a5b36600461415d565b60186020526000908152604090205481565b348015610a7957600080fd5b5060225461053e906001600160a01b031681565b348015610a9957600080fd5b506105b7611be7565b348015610aae57600080fd5b506104c4601e5481565b348015610ac457600080fd5b506104c4600b5481565b348015610ada57600080fd5b50610aee610ae9366004613816565b611bf4565b6040516104ce949392919061417a565b348015610b0a57600080fd5b5061073b610b19366004613816565b611cb1565b348015610b2a57600080fd5b5061073b610b3936600461415d565b601c6020526000908152604090205460ff1681565b348015610b5a57600080fd5b506106ee611d57565b348015610b6f57600080fd5b506104c4610b7e366004613816565b611db7565b348015610b8f57600080fd5b506104c4610b9e366004613816565b60009081526021602052604090205490565b348015610bbc57600080fd5b506104c4610bcb36600461415d565b601f6020526000908152604090205481565b348015610be957600080fd5b506106c2610bf83660046141b1565b611dc7565b348015610c0957600080fd5b5061073b610c18366004613816565b60276020526000908152604090205460ff1681565b348015610c3957600080fd5b506104c4610c4836600461415d565b6001600160a01b03166000908152601f602052604090205490565b348015610c6f57600080fd5b506106ee610c7e366004613816565b611f01565b348015610c8f57600080fd5b506104c4610c9e366004613816565b611f71565b348015610caf57600080fd5b506104c460035481565b348015610cc557600080fd5b50610675610cd4366004613816565b611fd1565b6104c4610ce7366004614241565b612033565b348015610cf857600080fd5b50610d01612073565b6040516104ce91906142b2565b348015610d1a57600080fd5b50610d2e610d29366004613816565b6120c4565b6040516104ce91906142cc565b348015610d4757600080fd5b50610675610d56366004613816565b61223e565b348015610d6757600080fd5b5061073b610d7636600461415d565b601d6020526000908152604090205460ff1681565b348015610d9757600080fd5b506106ee61229e565b348015610dac57600080fd5b506106c2610dbb366004613816565b6123ce565b348015610dcc57600080fd5b506104c460045481565b348015610de257600080fd5b506104c4610df136600461415d565b601b6020526000908152604090205481565b348015610e0f57600080fd5b506104c4612407565b348015610e2457600080fd5b50610675612419565b348015610e3957600080fd5b506106c261246f565b348015610e4e57600080fd5b506104c4600e5481565b348015610e6457600080fd5b5061053e73dc652c746a8f85e18ce632d97c6118e8a52fa73881565b348015610e8c57600080fd5b50610675612533565b348015610ea157600080fd5b506106c2610eb0366004614333565b612589565b348015610ec157600080fd5b506106c2610ed036600461415d565b6126e4565b348015610ee157600080fd5b506104c4610ef0366004613816565b612769565b348015610f0157600080fd5b506104c4610f1036600461413b565b612779565b348015610f2157600080fd5b5061073b610f30366004613816565b60156020526000908152604090205460ff1681565b348015610f5157600080fd5b506106c2610f60366004613f92565b612795565b348015610f7157600080fd5b506104c4600c5481565b601760205260009081526040902080546001820180546001600160a01b03831693600160a01b90930460ff16929190610fb390614374565b80601f0160208091040260200160405190810160405280929190818152602001828054610fdf90614374565b801561102c5780601f106110015761010080835404028352916020019161102c565b820191906000526020600020905b81548152906001019060200180831161100f57829003601f168201915b5050604080516020808201835260028801546001600160a01b0316825282516003890180546060938102830184018652948201858152989993989397509095509350849284918401828280156110ab57602002820191906000526020600020905b81546001600160a01b0316815260019091019060200180831161108d575b50505050508152602001600182015481525050905085565b601481815481106110d357600080fd5b600091825260209091200154905081565b600580546110f190614374565b80601f016020809104026020016040519081016040528092919081815260200182805461111d90614374565b801561116a5780601f1061113f5761010080835404028352916020019161116a565b820191906000526020600020905b81548152906001019060200180831161114d57829003601f168201915b505050505081565b6111a6604051806080016040528060006001600160a01b031681526020016000815260200160008152602001606081525090565b600082815260256020908152604091829020825160808101845281546001600160a01b031681526001820154928101929092526002810154928201929092526003820180549192916060840191906111fd90614374565b80601f016020809104026020016040519081016040528092919081815260200182805461122990614374565b80156112765780601f1061124b57610100808354040283529160200191611276565b820191906000526020600020905b81548152906001019060200180831161125957829003601f168201915b5050505050815250509050919050565b6019818154811061129657600080fd5b6000918252602090912001546001600160a01b0316905081565b606060148054806020026020016040519081016040528092919081815260200182805480156112fe57602002820191906000526020600020905b8154815260200190600101908083116112ea575b5050505050905090565b60408051608081018252338152426020820152908101839052606081018290526000908161133582611634565b6023805460018082019092557fd57b2b5166478fd4318d2acc6cc2c704584312bdd8781b32d5d06abda57f423001829055600082815260256020908152604091829020865181546001600160a01b0319166001600160a01b03909116178155908601519281019290925584015160028201556060840151919250839160038201906113c090826143f6565b505050600085815260266020908152604080832080546001810182559084529190922001829055517f5a1a930fed43f34b3a07db782ebcac28a661c273e662bb98458cfba5a8ccd220906114179083815260200190565b60405180910390a19150505b92915050565b6001600160a01b0383166000908152601d602052604090205460ff166114935760035460000361145857505050565b61146e83678ac7230489e8000084846000611525565b506001600160a01b0383166000908152601d60205260409020805460ff191660011790555b505050565b6000600a546114a5612407565b6114af91906144cb565b905090565b6060601a8054806020026020016040519081016040528092919081815260200182805480156112fe57602002820191906000526020600020905b81546001600160a01b031681526001909101906020018083116114ee575050505050905090565b600281815481106110d357600080fd5b6040516bffffffffffffffffffffffff19606087901b1660208201526034810185905260009081906054016040516020818303038152906040528051906020012090506000836115b5576115b08686808060200260200160405190810160405280939291908181526020018383602002808284376000920191909152505060035491508590506128e4565b6115f6565b6115f68686808060200260200160405190810160405280939291908181526020018383602002808284376000920191909152505060045491508590506128e4565b9050806116165760405163452c2df160e11b815260040160405180910390fd5b506001979650505050505050565b602481815481106110d357600080fd5b600081604051602001611647919061394a565b60408051601f19818403018152919052805160209091012092915050565b6000806116736001866128fa565b60008981526015602052604090205490915060ff16156116a6576040516358f1119560e01b815260040160405180910390fd5b6116b233878686611884565b6116bb816129c6565b6116c788338988612adc565b98975050505050505050565b60008160405160200161164791906142cc565b6000806116f46000806128fa565b6003549091501561172f57336000908152601d602052604090205460ff1661172f57604051631f22097560e01b815260040160405180910390fd5b61173b610f60846144de565b600061174e611749856144de565b612c23565b9050611759826129c6565b9392505050565b61176b6001806144cb565b81565b606080600061177b612533565b9050600081516001600160401b03811115611798576117986139e1565b6040519080825280602002602001820160405280156117dd57816020015b60408051808201909152600080825260208201528152602001906001900390816117b65790505b50905060005b825181101561186a5760206000848381518110611802576118026144ea565b602002602001015181526020019081526020016000206000016040518060400160405290816000820154815260200160018201548152505082828151811061184c5761184c6144ea565b6020026020010181905250808061186290614500565b9150506117e3565b5090939092509050565b601a818154811061129657600080fd5b600454158015906118ae57506001600160a01b0384166000908152601c602052604090205460ff16155b156118f3576118c1848484846001611525565b506001600160a01b0384166000908152601b60209081526040808320869055601c9091529020805460ff191660011790555b50505050565b3373dc652c746a8f85e18ce632d97c6118e8a52fa7381461192d5760405163de07280160e01b815260040160405180910390fd5b600455565b60008160000361195557604051630ec90a1760e31b815260040160405180910390fd5b600280546040805160208084028201810190925282815291926000929184908301828280156119a357602002820191906000526020600020905b81548152602001906001019080831161198f575b5050505050905060006001905060005b83811015611a1f576119ea8382815181106119d0576119d06144ea565b602002602001015160009081526021602052604090205490565b15611a0d578582036119ff5795945050505050565b81611a0981614500565b9250505b80611a1781614500565b9150506119b3565b50604051632cc2ab7360e11b815260040160405180910390fd5b606060248054806020026020016040519081016040528092919081815260200182805480156112fe57602002820191906000526020600020908154815260200190600101908083116112ea575050505050905090565b600080611a9d6001846128fa565b60008681526015602052604090205490915060ff1615611ad0576040516358f1119560e01b815260040160405180910390fd5b60045415801590611af15750336000908152601c602052604090205460ff16155b15611b0f5760405163126ec6d160e31b815260040160405180910390fd5b611b18816129c6565b611b2485338686612adc565b95945050505050565b6000828152602080805260408083206001600160a01b0385168452600301909152902080546001909101545b9250929050565b606060028054806020026020016040519081016040528092919081815260200182805480156112fe57602002820191906000526020600020908154815260200190600101908083116112ea575050505050905090565b60216020528160005260406000208181548110611bd257600080fd5b90600052602060002001600091509150505481565b600680546110f190614374565b60256020526000908152604090208054600182015460028301546003840180546001600160a01b03909416949293919291611c2e90614374565b80601f0160208091040260200160405190810160405280929190818152602001828054611c5a90614374565b8015611ca75780601f10611c7c57610100808354040283529160200191611ca7565b820191906000526020600020905b815481529060010190602001808311611c8a57829003601f168201915b5050505050905084565b600254600090611cc390600190614519565b821115611ce3576040516365d6f35160e11b815260040160405180910390fd5b60005b611cf18360016144cb565b811015611d4e576001611d2d60028381548110611d1057611d106144ea565b906000526020600020015460009081526021602052604090205490565b1115611d3c5750600192915050565b80611d4681614500565b915050611ce6565b50600092915050565b606060198054806020026020016040519081016040528092919081815260200182805480156112fe576020028201919060005260206000209081546001600160a01b031681526001909101906020018083116114ee575050505050905090565b601381815481106110d357600080fd5b805160005b81811015611ec5576000838281518110611de857611de86144ea565b60209081029190910101516007549091506001600160a01b03163314801590611e2857506000818152602560205260409020546001600160a01b03163314155b15611e4e57604051635450763d60e11b8152600481018290526024015b60405180910390fd5b60008181526027602052604090205460ff16611eb2576000818152602760205260408120805460ff191660019081179091556024805491820181559091527f7cd332d19b93bcabe3cce7ca0c18a052f57e5fd03b4758a09f30f5ddc4b22ec4018190555b5080611ebd81614500565b915050611dcc565b507f788a4349d25bc08585923ae212bce8bb346a623bce753eeecb85fd9ce58dcb4b82604051611ef591906139ce565b60405180910390a15050565b600081815260208080526040918290206002810180548451818502810185019095528085526060949293830182828015611f6457602002820191906000526020600020905b81546001600160a01b03168152600190910190602001808311611f46575b5050505050915050919050565b600081815260216020526040812054600114611fa057604051633832a15560e21b815260040160405180910390fd5b60008281526021602052604081208054909190611fbf57611fbf6144ea565b90600052602060002001549050919050565b60008181526026602090815260409182902080548351818402810184019094528084526060939283018282801561202757602002820191906000526020600020905b815481526020019060010190808311612013575b50505050509050919050565b6000806120416000806128fa565b905061204e338585611429565b61205a610f60866144de565b6000612068611749876144de565b9050611b24826129c6565b60165460009060ff16156120875750600290565b42600854106120965750600090565b4261209f612407565b106120aa5750600390565b426120b3611498565b106120be5750600190565b50600490565b6120cc61372b565b600082815260176020908152604091829020825160a08101845281546001600160a01b0381168252600160a01b900460ff16151592810192909252600181018054929391929184019161211e90614374565b80601f016020809104026020016040519081016040528092919081815260200182805461214a90614374565b80156121975780601f1061216c57610100808354040283529160200191612197565b820191906000526020600020905b81548152906001019060200180831161217a57829003601f168201915b5050509183525050604080516020818101835260028501546001600160a01b0316825280840191909152815160038501805460609381028301840185528285018181529490950194919390928492849184018282801561222057602002820191906000526020600020905b81546001600160a01b03168152600190910190602001808311612202575b50505050508152602001600182015481525050815250509050919050565b60008181526021602090815260409182902080548351818402810184019094528084526060939283018282801561202757602002820191906000526020600020908154815260200190600101908083116120135750505050509050919050565b6060600060148054806020026020016040519081016040528092919081815260200182805480156122ee57602002820191906000526020600020905b8154815260200190600101908083116122da575b50505050509050600081516001600160401b03811115612310576123106139e1565b604051908082528060200260200182016040528015612339578160200160208202803683370190505b50905060005b82518110156123c7576017600084838151811061235e5761235e6144ea565b6020026020010151815260200190815260200160002060000160009054906101000a90046001600160a01b031682828151811061239d5761239d6144ea565b6001600160a01b0390921660209283029190910190910152806123bf81614500565b91505061233f565b5092915050565b3373dc652c746a8f85e18ce632d97c6118e8a52fa738146124025760405163de07280160e01b815260040160405180910390fd5b600355565b60006009546008546114af91906144cb565b606060238054806020026020016040519081016040528092919081815260200182805480156112fe57602002820191906000526020600020908154815260200190600101908083116112ea575050505050905090565b6007546001600160a01b0316331480159061249e57503373dc652c746a8f85e18ce632d97c6118e8a52fa73814155b156124bc576040516301dbf46f60e71b815260040160405180910390fd5b60006124c6612073565b905060028160048111156124dc576124dc61429c565b036124fa57604051633c30acbf60e01b815260040160405180910390fd5b6016805460ff191660011790556040517f4cd963a081760a54f571abc0f1db4dde31b4a07d8d6da3e844b8c6f47eeaaa4290600090a150565b606060138054806020026020016040519081016040528092919081815260200182805480156112fe57602002820191906000526020600020908154815260200190600101908083116112ea575050505050905090565b6007546001600160a01b031633146125b45760405163b8d4540960e01b815260040160405180910390fd5b60046125be612073565b60048111156125cf576125cf61429c565b036125ed576040516331da1c8b60e11b815260040160405180910390fd5b60005b8181101561269257600083838381811061260c5761260c6144ea565b60209081029290920135600081815260159093526040909220549192505060ff1661267f576000818152601560205260408120805460ff191660019081179091556014805491820181559091527fce6d7b5282bd9a3661ae061feed1dbda4e52ab073b1f9285be6e155d9c38d4ec018190555b508061268a81614500565b9150506125f0565b50600d541580156126a557506000546001145b156126b4576126b48282612ea1565b7f75a75cf5c561892f4cc5b26c1b8e933849b42238c96dd073d080d1ae96c514166013604051611ef5919061452c565b6007546001600160a01b0316331461270f57604051630f4cb1bd60e11b815260040160405180910390fd5b602280546001600160a01b038381166001600160a01b031983168117909355604080519190921680825260208201939093527f753a2cf8d360cff631674504210913e48247f8e56b3e6d2006c2103d4095999f9101611ef5565b602381815481106110d357600080fd5b60266020528160005260406000208181548110611bd257600080fd5b80516001600160a01b031633146127d357805160405163fbbf4d7f60e01b81526001600160a01b039091166004820152336024820152604401611e45565b60005b6127e16001806144cb565b8110156128ba5760008160018111156127fc576127fc61429c565b905060008160018111156128125761281261429c565b0361281d57506128a8565b60018160018111156128315761283161429c565b0361288b576080830151515160000361285d5760405163c3b2798b60e01b815260040160405180910390fd5b826080015160200151600003612886576040516392fb9a3560e01b815260040160405180910390fd5b6128a6565b8060405163d2277d4960e01b8152600401611e459190614567565b505b806128b281614500565b9150506127d6565b508060400151516000036128e15760405163e182473360e01b815260040160405180910390fd5b50565b6000826128f18584612efc565b14949350505050565b600080808460018111156129105761291061429c565b0361291e5750600f5461299d565b60018460018111156129325761293261429c565b036129995760115460010361299057670de0b6b3a764000083101561296a576040516346ddb8d160e01b815260040160405180910390fd5b61297c670de0b6b3a76400008461457b565b601054612989919061459d565b905061299d565b5060105461299d565b5060005b803414611759576040516372c3eaa760e01b815234600482015260248101829052604401611e45565b80156128e15760006064600e5460646129df9190614519565b6129e9903461459d565b6129f3919061457b565b90508015612a6757612a1973dc652c746a8f85e18ce632d97c6118e8a52fa73882612f49565b6040805173dc652c746a8f85e18ce632d97c6118e8a52fa7388152602081018390527fdf20fd1e76bc69d672e4814fafb2c449bba3a5369d8359adf9e05e6fde87b056910160405180910390a15b6000612a738234614519565b9050801561149357601254612a91906001600160a01b031682612f49565b600754604080516001600160a01b039092168252602082018390527fdf20fd1e76bc69d672e4814fafb2c449bba3a5369d8359adf9e05e6fde87b056910160405180910390a1505050565b60006001612ae8612073565b6004811115612af957612af961429c565b14612b2057612b06612073565b60405163049cab4960e51b8152600401611e4591906142b2565b81600003612b415760405163502e1c2960e01b815260040160405180910390fd5b612b7385858585601b60008a6001600160a01b03166001600160a01b0316815260200190815260200160002054613062565b601a80546001810182556000919091527f057c384a7d1c54f3a1b2e5e67b2617b8224fdfd1ea7234eea573a6ff665ff63e0180546001600160a01b031916331790556040805186815260ff851660208201529081018390526001600160a01b038516907f2c9deb38f462962eadbd85a9d3a4120503ee091f1582eaaa10aa8c6797651d299060600160405180910390a25050506001600160a01b03166000908152601b6020526040902054919050565b60006003612c2f612073565b6004811115612c4057612c4061429c565b14612c6757612c4d612073565b604051632889531360e01b8152600401611e4591906142b2565b600b543360009081526018602052604090205403612c9e57600b54604051632bd6d93960e21b8152600401611e4591815260200190565b600c54601454601354612cb19190614519565b03612cd557600c546040516302217f5360e51b8152600401611e4591815260200190565b6000612ce0836116d3565b600081815260176020526040902054909150600160a01b900460ff1615612d1d5760405163baffc42360e01b815260048101829052602401611e45565b6013805460018181019092557f66de8ffda797e3de9c05e8fc57b3bf0ec28a930d40b0d285d93c06501cf6a0900182905560008281526017602090815260409182902086518154928801511515600160a01b026001600160a81b03199093166001600160a01b0390911617919091178155908501518592820190612da190826143f6565b506060820151516002820180546001600160a01b0319166001600160a01b039092169190911790556080820151805180516003840191612de69183916020019061379c565b5060209182015160019182015533600090815260189092526040822080549194509250612e149084906144cb565b9091555050601980546001810182556000919091527f944998273e477b495144fb8794c914197f3ccb46be2900f4698fd0ef743c96950180546001600160a01b0319163390811790915560408085015190517f7585f467599d0f008985f231af99293be388626ac16ca59505c2f8f88969cd6392612e939285926145b4565b60405180910390a192915050565b60005b81811015611493576000838383818110612ec057612ec06144ea565b602090810292909201356000818152928052604090922054919250612ee7905082826132d6565b50508080612ef490614500565b915050612ea4565b600081815b8451811015612f4157612f2d82868381518110612f2057612f206144ea565b6020026020010151613407565b915080612f3981614500565b915050612f01565b509392505050565b80471015612f995760405162461bcd60e51b815260206004820152601d60248201527f416464726573733a20696e73756666696369656e742062616c616e63650000006044820152606401611e45565b6000826001600160a01b03168260405160006040518083038185875af1925050503d8060008114612fe6576040519150601f19603f3d011682016040523d82523d6000602084013e612feb565b606091505b50509050806114935760405162461bcd60e51b815260206004820152603a60248201527f416464726573733a20756e61626c6520746f2073656e642076616c75652c207260448201527f6563697069656e74206d617920686176652072657665727465640000000000006064820152608401611e45565b60008581526020805260409020600454158015906130a157506001600160a01b0385166000908152601f602052604090205461309e9083614519565b83115b156130bf5760405163660fa07360e11b815260040160405180910390fd5b6001600160a01b038516600090815260038201602052604081205415801561310257506001600160a01b0386166000908152600383016020526040902060010154155b905060ff851661315a578154849083906000906131209084906144cb565b90915550506001600160a01b03861660009081526003830160205260408120805486929061314f9084906144cb565b909155506131eb9050565b60001960ff8616016131d257600d5460011461318957604051639755958f60e01b815260040160405180910390fd5b838260000160010160008282546131a091906144cb565b90915550506001600160a01b03861660009081526003830160205260408120600101805486929061314f9084906144cb565b604051638eed55d160e01b815260040160405180910390fd5b801561322257600282018054600181018255600091825260209091200180546001600160a01b0319166001600160a01b0388161790555b6001600160a01b0386166000908152601f60205260408120805486929061324a9084906144cb565b9250508190555083601e600082825461326391906144cb565b9091555050600d5415801561327a57506000546001145b156132cd578154600061328d8683614519565b9050801561329f5761329f89826132d6565b6000828152602160209081526040822080546001810182559083529120018990556132ca8183613436565b50505b50505050505050565b60008181526021602090815260408083208054825181850281018501909352808352919290919083018282801561332c57602002820191906000526020600020905b815481526020019060010190808311613318575b5050505050905060005b81518110156118f35783828281518110613352576133526144ea565b6020026020010151036133f557816001835161336e9190614519565b8151811061337e5761337e6144ea565b60200260200101516021600085815260200190815260200160002082815481106133aa576133aa6144ea565b9060005260206000200181905550602160008481526020019081526020016000208054806133da576133da6145de565b600190038181906000526020600020016000905590556118f3565b806133ff81614500565b915050613336565b6000818310613423576000828152602084905260409020611759565b6000838152602083905260409020611759565b6002805460408051602080840282018101909252828152919260009291849083018282801561348457602002820191906000526020600020905b815481526020019060010190808311613470575b50505050509050816000036134cb575050600280546001810182556000919091527f405787fa12a823e0f2b7631cc41b3ba8828b3321ca811111fa75cd3aa3bb5ace015550565b806134d7600184614519565b815181106134e7576134e76144ea565b602002602001015183101561353d5760015482036135055750505050565b5050600280546001810182556000919091527f405787fa12a823e0f2b7631cc41b3ba8828b3321ca811111fa75cd3aa3bb5ace015550565b6118f3848484846000805b838110156135b257828181518110613562576135626144ea565b602002602001015185036135775750506118f3565b828181518110613589576135896144ea565b60200260200101518511156135a0578091506135b2565b806135aa81614500565b915050613548565b50600080861180156135d05750600086815260216020526040902054155b905060008180156135f95750868484815181106135ef576135ef6144ea565b6020026020010151145b61370257613608600186614519565b83146136b057600061361b8460016144cb565b90505b858110156136ae5784613632600183614519565b81518110613642576136426144ea565b60200260200101516002828154811061365d5761365d6144ea565b60009182526020909120015582801561368e575087858281518110613684576136846144ea565b6020026020010151145b1561369c57600191506136ae565b806136a681614500565b91505061361e565b505b801580156136bf575060015485105b15613702576002846136d2600188614519565b815181106136e2576136e26144ea565b602090810291909101810151825460018101845560009384529190922001555b8560028481548110613716576137166144ea565b60009182526020909120015550505050505050565b6040518060a0016040528060006001600160a01b0316815260200160001515815260200160608152602001613775604051806020016040528060006001600160a01b031681525090565b8152602001613797604051806040016040528060608152602001600081525090565b905290565b8280548282559060005260206000209081019282156137f1579160200282015b828111156137f157825182546001600160a01b0319166001600160a01b039091161782556020909201916001909101906137bc565b506137fd929150613801565b5090565b5b808211156137fd5760008155600101613802565b60006020828403121561382857600080fd5b5035919050565b6000815180845260005b8181101561385557602081850181015186830182015201613839565b506000602082860101526020601f19601f83011685010191505092915050565b805160408084528151908401819052600091602091908201906060860190845b818110156138ba5783516001600160a01b031683529284019291840191600101613895565b505093820151949091019390935250919050565b600060018060a01b038088168352861515602084015260a060408401526138f860a084018761382f565b81865116606085015283810360808501526139138186613875565b9998505050505050505050565b602081526000611759602083018461382f565b815181526020808301519082015260408101611423565b6020815260018060a01b03825116602082015260208201516040820152604082015160608201526000606083015160808084015261398b60a084018261382f565b949350505050565b600081518084526020808501945080840160005b838110156139c3578151875295820195908201906001016139a7565b509495945050505050565b6020815260006117596020830184613993565b634e487b7160e01b600052604160045260246000fd5b604080519081016001600160401b0381118282101715613a1957613a196139e1565b60405290565b60405160a081016001600160401b0381118282101715613a1957613a196139e1565b604051602081016001600160401b0381118282101715613a1957613a196139e1565b604051601f8201601f191681016001600160401b0381118282101715613a8b57613a8b6139e1565b604052919050565b600082601f830112613aa457600080fd5b81356001600160401b03811115613abd57613abd6139e1565b613ad0601f8201601f1916602001613a63565b818152846020838601011115613ae557600080fd5b816020850160208301376000918101602001919091529392505050565b60008060408385031215613b1557600080fd5b8235915060208301356001600160401b03811115613b3257600080fd5b613b3e85828601613a93565b9150509250929050565b6001600160a01b03811681146128e157600080fd5b60008083601f840112613b6f57600080fd5b5081356001600160401b03811115613b8657600080fd5b6020830191508360208260051b8501011115611b5957600080fd5b600080600060408486031215613bb657600080fd5b8335613bc181613b48565b925060208401356001600160401b03811115613bdc57600080fd5b613be886828701613b5d565b9497909650939450505050565b6020808252825182820181905260009190848201906040850190845b81811015613c365783516001600160a01b031683529284019291840191600101613c11565b50909695505050505050565b80358015158114613c5257600080fd5b919050565b600080600080600060808688031215613c6f57600080fd5b8535613c7a81613b48565b94506020860135935060408601356001600160401b03811115613c9c57600080fd5b613ca888828901613b5d565b9094509250613cbb905060608701613c42565b90509295509295909350565b600060208284031215613cd957600080fd5b81356001600160401b0380821115613cf057600080fd5b9083019060808286031215613d0457600080fd5b604051608081018181108382111715613d1f57613d1f6139e1565b6040528235613d2d81613b48565b808252506020830135602082015260408301356040820152606083013582811115613d5757600080fd5b613d6387828601613a93565b60608301525095945050505050565b803560ff81168114613c5257600080fd5b60008060008060008060a08789031215613d9c57600080fd5b86359550613dac60208801613d72565b9450604087013593506060870135925060808701356001600160401b03811115613dd557600080fd5b613de189828a01613b5d565b979a9699509497509295939492505050565b60006001600160401b03821115613e0c57613e0c6139e1565b5060051b60200190565b600060408284031215613e2857600080fd5b613e306139f7565b905081356001600160401b03811115613e4857600080fd5b8201601f81018413613e5957600080fd5b80356020613e6e613e6983613df3565b613a63565b82815260059290921b83018101918181019087841115613e8d57600080fd5b938201935b83851015613eb4578435613ea581613b48565b82529382019390820190613e92565b85525093840135938301939093525092915050565b600081830360a0811215613edc57600080fd5b613ee4613a1f565b91508235613ef181613b48565b8252613eff60208401613c42565b602083015260408301356001600160401b0380821115613f1e57600080fd5b613f2a86838701613a93565b60408501526020605f1984011215613f4157600080fd5b613f49613a41565b925060608501359150613f5b82613b48565b8183528260608501526080850135925080831115613f7857600080fd5b5050613f8684828501613e16565b60808301525092915050565b600060208284031215613fa457600080fd5b81356001600160401b03811115613fba57600080fd5b61398b84828501613ec9565b600060a08284031215613fd857600080fd5b50919050565b600060208284031215613ff057600080fd5b81356001600160401b0381111561400657600080fd5b61398b84828501613fc6565b6000604080835261402581840186613993565b83810360208581019190915285518083528682019282019060005b8181101561406d5761405d83865180518252602090810151910152565b9383019391850191600101614040565b509098975050505050505050565b6000806000806060858703121561409157600080fd5b843561409c81613b48565b93506020850135925060408501356001600160401b038111156140be57600080fd5b6140ca87828801613b5d565b95989497509550505050565b6000806000606084860312156140eb57600080fd5b833592506140fb60208501613d72565b9150604084013590509250925092565b6000806040838503121561411e57600080fd5b82359150602083013561413081613b48565b809150509250929050565b6000806040838503121561414e57600080fd5b50508035926020909101359150565b60006020828403121561416f57600080fd5b813561175981613b48565b60018060a01b03851681528360208201528260408201526080606082015260006141a7608083018461382f565b9695505050505050565b600060208083850312156141c457600080fd5b82356001600160401b038111156141da57600080fd5b8301601f810185136141eb57600080fd5b80356141f9613e6982613df3565b81815260059190911b8201830190838101908783111561421857600080fd5b928401925b828410156142365783358252928401929084019061421d565b979650505050505050565b60008060006040848603121561425657600080fd5b83356001600160401b038082111561426d57600080fd5b61427987838801613fc6565b9450602086013591508082111561428f57600080fd5b50613be886828701613b5d565b634e487b7160e01b600052602160045260246000fd5b60208101600583106142c6576142c661429c565b91905290565b60208152600060018060a01b03808451166020840152602084015115156040840152604084015160a0606085015261430760c085018261382f565b90508160608601515116608085015260808501519150601f198482030160a0850152611b248183613875565b6000806020838503121561434657600080fd5b82356001600160401b0381111561435c57600080fd5b61436885828601613b5d565b90969095509350505050565b600181811c9082168061438857607f821691505b602082108103613fd857634e487b7160e01b600052602260045260246000fd5b601f82111561149357600081815260208120601f850160051c810160208610156143cf5750805b601f850160051c820191505b818110156143ee578281556001016143db565b505050505050565b81516001600160401b0381111561440f5761440f6139e1565b6144238161441d8454614374565b846143a8565b602080601f83116001811461445857600084156144405750858301515b600019600386901b1c1916600185901b1785556143ee565b600085815260208120601f198616915b8281101561448757888601518255948401946001909101908401614468565b50858210156144a55787850151600019600388901b60f8161c191681555b5050505050600190811b01905550565b634e487b7160e01b600052601160045260246000fd5b80820180821115611423576114236144b5565b60006114233683613ec9565b634e487b7160e01b600052603260045260246000fd5b600060018201614512576145126144b5565b5060010190565b81810381811115611423576114236144b5565b6020808252825482820181905260008481528281209092916040850190845b81811015613c365783548352600193840193928501920161454b565b60208101600283106142c6576142c661429c565b60008261459857634e487b7160e01b600052601260045260246000fd5b500490565b8082028115828204841417611423576114236144b5565b8381526001600160a01b0383166020820152606060408201819052600090611b249083018461382f565b634e487b7160e01b600052603160045260246000fdfea2646970667358221220210e3f55683c638b2d40b3145373a17c23989e7648a4c1d4037c335485a1a5c264736f6c63430008130033","linkReferences":{}},"methodIdentifiers":{"AMOUNT_FOR_SUMBITTER_PROOF()":"347cf665","JK_LABS_ADDRESS()":"eef18e17","METADATAS_COUNT()":"4d24a67f","addressSubmitterVerified(address)":"cb853950","addressTotalCastVoteCounts(address)":"a1ac6cb2","addressTotalVotes(address)":"dea5f6a6","addressTotalVotesVerified(address)":"930de979","addressesThatHaveVoted(uint256)":"50c4b616","allProposalTotalVotes()":"50a5e524","cancel()":"ea8a1af0","canceled()":"3f9942ff","castVote(uint256,uint8,uint256,uint256,bytes32[])":"419c533c","castVoteWithoutProof(uint256,uint8,uint256)":"65f16263","checkProof(address,uint256,bytes32[],bool)":"32763c22","comment(uint256,string)":"1805c523","commentIds(uint256)":"f5c36411","commentIsDeleted(uint256)":"ae66b8ad","comments(uint256)":"8ebb4c15","contestAddressTotalVotesCast(address)":"aec116b6","contestDeadline()":"262e59e9","contestStart()":"004114a8","costToPropose()":"6ed815ad","costToVote()":"51a41dec","creator()":"02d05d3f","creatorSplitDestination()":"4a587ad4","deleteComments(uint256[])":"ac67f801","deleteProposals(uint256[])":"f0a7db0a","deletedCommentIds(uint256)":"3fb57c92","deletedProposalIds(uint256)":"05846cae","downvotingAllowed()":"60506ff6","forVotesToProposalIds(uint256,uint256)":"711effc8","getAllAddressesThatHaveVoted()":"2c39805f","getAllAuthorsOfDeletedProposals()":"cbdc27cb","getAllCommentIds()":"e11db9d8","getAllDeletedCommentIds()":"5cb718a1","getAllDeletedProposalIds()":"1242b737","getAllProposalAuthors()":"946369b5","getAllProposalIds()":"efa90d36","getComment(uint256)":"0800e300","getNumProposalsWithThisManyForVotes(uint256)":"9ba197af","getOnlyProposalIdWithThisManyForVotes(uint256)":"b66d1da3","getProposal(uint256)":"c7f758a8","getProposalComments(uint256)":"c05f4104","getProposalsWithThisManyForVotes(uint256)":"c9a1b6b2","getRankIndex(uint256)":"5c7107d8","getSortedRanks()":"6fd3636b","hashComment((address,uint256,uint256,string))":"409fd030","hashProposal((address,bool,string,(address),(address[],uint256)))":"458da87d","isOrIsBelowTiedRank(uint256)":"9174778c","maxProposalCount()":"fb9bf8d4","name()":"06fdde03","numAllowedProposalSubmissions()":"832009af","numSubmissions(address)":"75e509c5","officialRewardsModule()":"785ddfe5","payPerVote()":"03f7eed6","percentageToCreator()":"edcd1be4","prompt()":"7c65d711","proposalAddressVotes(uint256,address)":"6e4eb810","proposalAddressesHaveVoted(uint256)":"b323580d","proposalAuthors(uint256)":"0aa25e44","proposalComments(uint256,uint256)":"f61736f4","proposalIds(uint256)":"9b644a23","proposalIsDeleted(uint256)":"f79c0172","proposalVotes(uint256)":"544ffc9c","proposalVotesStructs(uint256)":"070dc5d9","proposals(uint256)":"013cf08b","propose((address,bool,string,(address),(address[],uint256)),bytes32[])":"c0ffaa78","proposeWithoutProof((address,bool,string,(address),(address[],uint256)))":"476f4d8a","rankLimit()":"0414126a","setOfficialRewardsModule(address)":"f4f3d7ec","setSubmissionMerkleRoot(bytes32)":"daf762db","setVotingMerkleRoot(bytes32)":"544c7bb4","sortedRanks(uint256)":"325cc6d9","sortingEnabled()":"366ecf5b","state()":"c19d93fb","submissionMerkleRoot()":"bddc1641","totalVotesCast()":"7de418d5","validateProposalData((address,bool,string,(address),(address[],uint256)))":"fb8ddab4","verifyProposer(address,bytes32[])":"20b3e845","verifyVoter(address,uint256,bytes32[])":"531bd812","version()":"54fd4d50","voteStart()":"e031535b","votingDelay()":"3932abb1","votingMerkleRoot()":"dd96a19d","votingPeriod()":"02a251a3"},"id":34}