{"abi":[{"type":"constructor","inputs":[{"name":"_name","type":"string","internalType":"string"},{"name":"_prompt","type":"string","internalType":"string"},{"name":"_submissionMerkleRoot","type":"bytes32","internalType":"bytes32"},{"name":"_votingMerkleRoot","type":"bytes32","internalType":"bytes32"},{"name":"_constructorIntParams","type":"uint256[]","internalType":"uint256[]"}],"stateMutability":"nonpayable"},{"type":"function","name":"AMOUNT_FOR_SUMBITTER_PROOF","inputs":[],"outputs":[{"name":"","type":"uint256","internalType":"uint256"}],"stateMutability":"view"},{"type":"function","name":"JK_LABS_ADDRESS","inputs":[],"outputs":[{"name":"","type":"address","internalType":"address"}],"stateMutability":"view"},{"type":"function","name":"METADATAS_COUNT","inputs":[],"outputs":[{"name":"","type":"uint256","internalType":"uint256"}],"stateMutability":"view"},{"type":"function","name":"addressSubmitterVerified","inputs":[{"name":"","type":"address","internalType":"address"}],"outputs":[{"name":"","type":"bool","internalType":"bool"}],"stateMutability":"view"},{"type":"function","name":"addressTotalCastVoteCounts","inputs":[{"name":"","type":"address","internalType":"address"}],"outputs":[{"name":"","type":"uint256","internalType":"uint256"}],"stateMutability":"view"},{"type":"function","name":"addressTotalVotes","inputs":[{"name":"","type":"address","internalType":"address"}],"outputs":[{"name":"","type":"uint256","internalType":"uint256"}],"stateMutability":"view"},{"type":"function","name":"addressTotalVotesVerified","inputs":[{"name":"","type":"address","internalType":"address"}],"outputs":[{"name":"","type":"bool","internalType":"bool"}],"stateMutability":"view"},{"type":"function","name":"addressesThatHaveVoted","inputs":[{"name":"","type":"uint256","internalType":"uint256"}],"outputs":[{"name":"","type":"address","internalType":"address"}],"stateMutability":"view"},{"type":"function","name":"allProposalTotalVotes","inputs":[],"outputs":[{"name":"proposalIdsReturn","type":"uint256[]","internalType":"uint256[]"},{"name":"proposalVoteCountsArrayReturn","type":"tuple[]","internalType":"struct GovernorCountingSimple.VoteCounts[]","components":[{"name":"forVotes","type":"uint256","internalType":"uint256"},{"name":"againstVotes","type":"uint256","internalType":"uint256"}]}],"stateMutability":"view"},{"type":"function","name":"cancel","inputs":[],"outputs":[],"stateMutability":"nonpayable"},{"type":"function","name":"canceled","inputs":[],"outputs":[{"name":"","type":"bool","internalType":"bool"}],"stateMutability":"view"},{"type":"function","name":"castVote","inputs":[{"name":"proposalId","type":"uint256","internalType":"uint256"},{"name":"support","type":"uint8","internalType":"uint8"},{"name":"totalVotes","type":"uint256","internalType":"uint256"},{"name":"numVotes","type":"uint256","internalType":"uint256"},{"name":"proof","type":"bytes32[]","internalType":"bytes32[]"}],"outputs":[{"name":"","type":"uint256","internalType":"uint256"}],"stateMutability":"nonpayable"},{"type":"function","name":"castVoteWithoutProof","inputs":[{"name":"proposalId","type":"uint256","internalType":"uint256"},{"name":"support","type":"uint8","internalType":"uint8"},{"name":"numVotes","type":"uint256","internalType":"uint256"}],"outputs":[{"name":"","type":"uint256","internalType":"uint256"}],"stateMutability":"nonpayable"},{"type":"function","name":"checkProof","inputs":[{"name":"addressToCheck","type":"address","internalType":"address"},{"name":"amount","type":"uint256","internalType":"uint256"},{"name":"proof","type":"bytes32[]","internalType":"bytes32[]"},{"name":"voting","type":"bool","internalType":"bool"}],"outputs":[{"name":"verified","type":"bool","internalType":"bool"}],"stateMutability":"view"},{"type":"function","name":"comment","inputs":[{"name":"proposalId","type":"uint256","internalType":"uint256"},{"name":"commentContent","type":"string","internalType":"string"}],"outputs":[{"name":"","type":"uint256","internalType":"uint256"}],"stateMutability":"nonpayable"},{"type":"function","name":"commentIds","inputs":[{"name":"","type":"uint256","internalType":"uint256"}],"outputs":[{"name":"","type":"uint256","internalType":"uint256"}],"stateMutability":"view"},{"type":"function","name":"commentIsDeleted","inputs":[{"name":"","type":"uint256","internalType":"uint256"}],"outputs":[{"name":"","type":"bool","internalType":"bool"}],"stateMutability":"view"},{"type":"function","name":"comments","inputs":[{"name":"","type":"uint256","internalType":"uint256"}],"outputs":[{"name":"author","type":"address","internalType":"address"},{"name":"timestamp","type":"uint256","internalType":"uint256"},{"name":"proposalId","type":"uint256","internalType":"uint256"},{"name":"commentContent","type":"string","internalType":"string"}],"stateMutability":"view"},{"type":"function","name":"contestAddressTotalVotesCast","inputs":[{"name":"userAddress","type":"address","internalType":"address"}],"outputs":[{"name":"userTotalVotesCast","type":"uint256","internalType":"uint256"}],"stateMutability":"view"},{"type":"function","name":"contestDeadline","inputs":[],"outputs":[{"name":"","type":"uint256","internalType":"uint256"}],"stateMutability":"view"},{"type":"function","name":"contestStart","inputs":[],"outputs":[{"name":"","type":"uint256","internalType":"uint256"}],"stateMutability":"view"},{"type":"function","name":"costToPropose","inputs":[],"outputs":[{"name":"","type":"uint256","internalType":"uint256"}],"stateMutability":"view"},{"type":"function","name":"creator","inputs":[],"outputs":[{"name":"","type":"address","internalType":"address"}],"stateMutability":"view"},{"type":"function","name":"deleteComments","inputs":[{"name":"commentIdsParam","type":"uint256[]","internalType":"uint256[]"}],"outputs":[],"stateMutability":"nonpayable"},{"type":"function","name":"deleteProposals","inputs":[{"name":"proposalIdsToDelete","type":"uint256[]","internalType":"uint256[]"}],"outputs":[],"stateMutability":"nonpayable"},{"type":"function","name":"deletedCommentIds","inputs":[{"name":"","type":"uint256","internalType":"uint256"}],"outputs":[{"name":"","type":"uint256","internalType":"uint256"}],"stateMutability":"view"},{"type":"function","name":"deletedProposalIds","inputs":[{"name":"","type":"uint256","internalType":"uint256"}],"outputs":[{"name":"","type":"uint256","internalType":"uint256"}],"stateMutability":"view"},{"type":"function","name":"downvotingAllowed","inputs":[],"outputs":[{"name":"","type":"uint256","internalType":"uint256"}],"stateMutability":"view"},{"type":"function","name":"forVotesToProposalIds","inputs":[{"name":"","type":"uint256","internalType":"uint256"},{"name":"","type":"uint256","internalType":"uint256"}],"outputs":[{"name":"","type":"uint256","internalType":"uint256"}],"stateMutability":"view"},{"type":"function","name":"getAllAddressesThatHaveVoted","inputs":[],"outputs":[{"name":"","type":"address[]","internalType":"address[]"}],"stateMutability":"view"},{"type":"function","name":"getAllAuthorsOfDeletedProposals","inputs":[],"outputs":[{"name":"","type":"address[]","internalType":"address[]"}],"stateMutability":"view"},{"type":"function","name":"getAllCommentIds","inputs":[],"outputs":[{"name":"","type":"uint256[]","internalType":"uint256[]"}],"stateMutability":"view"},{"type":"function","name":"getAllDeletedCommentIds","inputs":[],"outputs":[{"name":"","type":"uint256[]","internalType":"uint256[]"}],"stateMutability":"view"},{"type":"function","name":"getAllDeletedProposalIds","inputs":[],"outputs":[{"name":"","type":"uint256[]","internalType":"uint256[]"}],"stateMutability":"view"},{"type":"function","name":"getAllProposalAuthors","inputs":[],"outputs":[{"name":"","type":"address[]","internalType":"address[]"}],"stateMutability":"view"},{"type":"function","name":"getAllProposalIds","inputs":[],"outputs":[{"name":"","type":"uint256[]","internalType":"uint256[]"}],"stateMutability":"view"},{"type":"function","name":"getComment","inputs":[{"name":"commentId","type":"uint256","internalType":"uint256"}],"outputs":[{"name":"","type":"tuple","internalType":"struct GovernorEngagement.CommentCore","components":[{"name":"author","type":"address","internalType":"address"},{"name":"timestamp","type":"uint256","internalType":"uint256"},{"name":"proposalId","type":"uint256","internalType":"uint256"},{"name":"commentContent","type":"string","internalType":"string"}]}],"stateMutability":"view"},{"type":"function","name":"getNumProposalsWithThisManyForVotes","inputs":[{"name":"forVotes","type":"uint256","internalType":"uint256"}],"outputs":[{"name":"count","type":"uint256","internalType":"uint256"}],"stateMutability":"view"},{"type":"function","name":"getOnlyProposalIdWithThisManyForVotes","inputs":[{"name":"forVotes","type":"uint256","internalType":"uint256"}],"outputs":[{"name":"proposalId","type":"uint256","internalType":"uint256"}],"stateMutability":"view"},{"type":"function","name":"getProposal","inputs":[{"name":"proposalId","type":"uint256","internalType":"uint256"}],"outputs":[{"name":"","type":"tuple","internalType":"struct Governor.ProposalCore","components":[{"name":"author","type":"address","internalType":"address"},{"name":"exists","type":"bool","internalType":"bool"},{"name":"description","type":"string","internalType":"string"},{"name":"targetMetadata","type":"tuple","internalType":"struct Governor.TargetMetadata","components":[{"name":"targetAddress","type":"address","internalType":"address"}]},{"name":"safeMetadata","type":"tuple","internalType":"struct Governor.SafeMetadata","components":[{"name":"signers","type":"address[]","internalType":"address[]"},{"name":"threshold","type":"uint256","internalType":"uint256"}]}]}],"stateMutability":"view"},{"type":"function","name":"getProposalComments","inputs":[{"name":"proposalId","type":"uint256","internalType":"uint256"}],"outputs":[{"name":"","type":"uint256[]","internalType":"uint256[]"}],"stateMutability":"view"},{"type":"function","name":"getProposalsWithThisManyForVotes","inputs":[{"name":"forVotes","type":"uint256","internalType":"uint256"}],"outputs":[{"name":"proposalsWithThisManyForVotes","type":"uint256[]","internalType":"uint256[]"}],"stateMutability":"view"},{"type":"function","name":"getRankIndex","inputs":[{"name":"rank","type":"uint256","internalType":"uint256"}],"outputs":[{"name":"rankIndex","type":"uint256","internalType":"uint256"}],"stateMutability":"view"},{"type":"function","name":"getSortedRanks","inputs":[],"outputs":[{"name":"sortedRanksArray","type":"uint256[]","internalType":"uint256[]"}],"stateMutability":"view"},{"type":"function","name":"hashComment","inputs":[{"name":"commentObj","type":"tuple","internalType":"struct GovernorEngagement.CommentCore","components":[{"name":"author","type":"address","internalType":"address"},{"name":"timestamp","type":"uint256","internalType":"uint256"},{"name":"proposalId","type":"uint256","internalType":"uint256"},{"name":"commentContent","type":"string","internalType":"string"}]}],"outputs":[{"name":"","type":"uint256","internalType":"uint256"}],"stateMutability":"pure"},{"type":"function","name":"hashProposal","inputs":[{"name":"proposal","type":"tuple","internalType":"struct Governor.ProposalCore","components":[{"name":"author","type":"address","internalType":"address"},{"name":"exists","type":"bool","internalType":"bool"},{"name":"description","type":"string","internalType":"string"},{"name":"targetMetadata","type":"tuple","internalType":"struct Governor.TargetMetadata","components":[{"name":"targetAddress","type":"address","internalType":"address"}]},{"name":"safeMetadata","type":"tuple","internalType":"struct Governor.SafeMetadata","components":[{"name":"signers","type":"address[]","internalType":"address[]"},{"name":"threshold","type":"uint256","internalType":"uint256"}]}]}],"outputs":[{"name":"","type":"uint256","internalType":"uint256"}],"stateMutability":"pure"},{"type":"function","name":"isOrIsBelowTiedRank","inputs":[{"name":"idx","type":"uint256","internalType":"uint256"}],"outputs":[{"name":"atOrBelowTiedRank","type":"bool","internalType":"bool"}],"stateMutability":"view"},{"type":"function","name":"maxProposalCount","inputs":[],"outputs":[{"name":"","type":"uint256","internalType":"uint256"}],"stateMutability":"view"},{"type":"function","name":"name","inputs":[],"outputs":[{"name":"","type":"string","internalType":"string"}],"stateMutability":"view"},{"type":"function","name":"numAllowedProposalSubmissions","inputs":[],"outputs":[{"name":"","type":"uint256","internalType":"uint256"}],"stateMutability":"view"},{"type":"function","name":"numSubmissions","inputs":[{"name":"","type":"address","internalType":"address"}],"outputs":[{"name":"","type":"uint256","internalType":"uint256"}],"stateMutability":"view"},{"type":"function","name":"officialRewardsModule","inputs":[],"outputs":[{"name":"","type":"address","internalType":"contract RewardsModule"}],"stateMutability":"view"},{"type":"function","name":"percentageToCreator","inputs":[],"outputs":[{"name":"","type":"uint256","internalType":"uint256"}],"stateMutability":"view"},{"type":"function","name":"prompt","inputs":[],"outputs":[{"name":"","type":"string","internalType":"string"}],"stateMutability":"view"},{"type":"function","name":"proposalAddressVotes","inputs":[{"name":"proposalId","type":"uint256","internalType":"uint256"},{"name":"userAddress","type":"address","internalType":"address"}],"outputs":[{"name":"forVotes","type":"uint256","internalType":"uint256"},{"name":"againstVotes","type":"uint256","internalType":"uint256"}],"stateMutability":"view"},{"type":"function","name":"proposalAddressesHaveVoted","inputs":[{"name":"proposalId","type":"uint256","internalType":"uint256"}],"outputs":[{"name":"","type":"address[]","internalType":"address[]"}],"stateMutability":"view"},{"type":"function","name":"proposalAuthors","inputs":[{"name":"","type":"uint256","internalType":"uint256"}],"outputs":[{"name":"","type":"address","internalType":"address"}],"stateMutability":"view"},{"type":"function","name":"proposalComments","inputs":[{"name":"","type":"uint256","internalType":"uint256"},{"name":"","type":"uint256","internalType":"uint256"}],"outputs":[{"name":"","type":"uint256","internalType":"uint256"}],"stateMutability":"view"},{"type":"function","name":"proposalIds","inputs":[{"name":"","type":"uint256","internalType":"uint256"}],"outputs":[{"name":"","type":"uint256","internalType":"uint256"}],"stateMutability":"view"},{"type":"function","name":"proposalIsDeleted","inputs":[{"name":"","type":"uint256","internalType":"uint256"}],"outputs":[{"name":"","type":"bool","internalType":"bool"}],"stateMutability":"view"},{"type":"function","name":"proposalVotes","inputs":[{"name":"proposalId","type":"uint256","internalType":"uint256"}],"outputs":[{"name":"forVotes","type":"uint256","internalType":"uint256"},{"name":"againstVotes","type":"uint256","internalType":"uint256"}],"stateMutability":"view"},{"type":"function","name":"proposalVotesStructs","inputs":[{"name":"","type":"uint256","internalType":"uint256"}],"outputs":[{"name":"proposalVoteCounts","type":"tuple","internalType":"struct GovernorCountingSimple.VoteCounts","components":[{"name":"forVotes","type":"uint256","internalType":"uint256"},{"name":"againstVotes","type":"uint256","internalType":"uint256"}]}],"stateMutability":"view"},{"type":"function","name":"proposals","inputs":[{"name":"","type":"uint256","internalType":"uint256"}],"outputs":[{"name":"author","type":"address","internalType":"address"},{"name":"exists","type":"bool","internalType":"bool"},{"name":"description","type":"string","internalType":"string"},{"name":"targetMetadata","type":"tuple","internalType":"struct Governor.TargetMetadata","components":[{"name":"targetAddress","type":"address","internalType":"address"}]},{"name":"safeMetadata","type":"tuple","internalType":"struct Governor.SafeMetadata","components":[{"name":"signers","type":"address[]","internalType":"address[]"},{"name":"threshold","type":"uint256","internalType":"uint256"}]}],"stateMutability":"view"},{"type":"function","name":"propose","inputs":[{"name":"proposal","type":"tuple","internalType":"struct Governor.ProposalCore","components":[{"name":"author","type":"address","internalType":"address"},{"name":"exists","type":"bool","internalType":"bool"},{"name":"description","type":"string","internalType":"string"},{"name":"targetMetadata","type":"tuple","internalType":"struct Governor.TargetMetadata","components":[{"name":"targetAddress","type":"address","internalType":"address"}]},{"name":"safeMetadata","type":"tuple","internalType":"struct Governor.SafeMetadata","components":[{"name":"signers","type":"address[]","internalType":"address[]"},{"name":"threshold","type":"uint256","internalType":"uint256"}]}]},{"name":"proof","type":"bytes32[]","internalType":"bytes32[]"}],"outputs":[{"name":"","type":"uint256","internalType":"uint256"}],"stateMutability":"payable"},{"type":"function","name":"proposeWithoutProof","inputs":[{"name":"proposal","type":"tuple","internalType":"struct Governor.ProposalCore","components":[{"name":"author","type":"address","internalType":"address"},{"name":"exists","type":"bool","internalType":"bool"},{"name":"description","type":"string","internalType":"string"},{"name":"targetMetadata","type":"tuple","internalType":"struct Governor.TargetMetadata","components":[{"name":"targetAddress","type":"address","internalType":"address"}]},{"name":"safeMetadata","type":"tuple","internalType":"struct Governor.SafeMetadata","components":[{"name":"signers","type":"address[]","internalType":"address[]"},{"name":"threshold","type":"uint256","internalType":"uint256"}]}]}],"outputs":[{"name":"","type":"uint256","internalType":"uint256"}],"stateMutability":"payable"},{"type":"function","name":"rankLimit","inputs":[],"outputs":[{"name":"","type":"uint256","internalType":"uint256"}],"stateMutability":"view"},{"type":"function","name":"setOfficialRewardsModule","inputs":[{"name":"officialRewardsModule_","type":"address","internalType":"contract RewardsModule"}],"outputs":[],"stateMutability":"nonpayable"},{"type":"function","name":"setSubmissionMerkleRoot","inputs":[{"name":"newSubmissionMerkleRoot","type":"bytes32","internalType":"bytes32"}],"outputs":[],"stateMutability":"nonpayable"},{"type":"function","name":"setVotingMerkleRoot","inputs":[{"name":"newVotingMerkleRoot","type":"bytes32","internalType":"bytes32"}],"outputs":[],"stateMutability":"nonpayable"},{"type":"function","name":"sortedRanks","inputs":[{"name":"","type":"uint256","internalType":"uint256"}],"outputs":[{"name":"","type":"uint256","internalType":"uint256"}],"stateMutability":"view"},{"type":"function","name":"sortingEnabled","inputs":[],"outputs":[{"name":"","type":"uint256","internalType":"uint256"}],"stateMutability":"view"},{"type":"function","name":"state","inputs":[],"outputs":[{"name":"","type":"uint8","internalType":"enum Governor.ContestState"}],"stateMutability":"view"},{"type":"function","name":"submissionMerkleRoot","inputs":[],"outputs":[{"name":"","type":"bytes32","internalType":"bytes32"}],"stateMutability":"view"},{"type":"function","name":"totalVotesCast","inputs":[],"outputs":[{"name":"","type":"uint256","internalType":"uint256"}],"stateMutability":"view"},{"type":"function","name":"validateProposalData","inputs":[{"name":"proposal","type":"tuple","internalType":"struct Governor.ProposalCore","components":[{"name":"author","type":"address","internalType":"address"},{"name":"exists","type":"bool","internalType":"bool"},{"name":"description","type":"string","internalType":"string"},{"name":"targetMetadata","type":"tuple","internalType":"struct Governor.TargetMetadata","components":[{"name":"targetAddress","type":"address","internalType":"address"}]},{"name":"safeMetadata","type":"tuple","internalType":"struct Governor.SafeMetadata","components":[{"name":"signers","type":"address[]","internalType":"address[]"},{"name":"threshold","type":"uint256","internalType":"uint256"}]}]}],"outputs":[],"stateMutability":"view"},{"type":"function","name":"verifyProposer","inputs":[{"name":"account","type":"address","internalType":"address"},{"name":"proof","type":"bytes32[]","internalType":"bytes32[]"}],"outputs":[],"stateMutability":"nonpayable"},{"type":"function","name":"verifyVoter","inputs":[{"name":"account","type":"address","internalType":"address"},{"name":"totalVotes","type":"uint256","internalType":"uint256"},{"name":"proof","type":"bytes32[]","internalType":"bytes32[]"}],"outputs":[],"stateMutability":"nonpayable"},{"type":"function","name":"version","inputs":[],"outputs":[{"name":"","type":"string","internalType":"string"}],"stateMutability":"pure"},{"type":"function","name":"voteStart","inputs":[],"outputs":[{"name":"","type":"uint256","internalType":"uint256"}],"stateMutability":"view"},{"type":"function","name":"votingDelay","inputs":[],"outputs":[{"name":"","type":"uint256","internalType":"uint256"}],"stateMutability":"view"},{"type":"function","name":"votingMerkleRoot","inputs":[],"outputs":[{"name":"","type":"bytes32","internalType":"bytes32"}],"stateMutability":"view"},{"type":"function","name":"votingPeriod","inputs":[],"outputs":[{"name":"","type":"uint256","internalType":"uint256"}],"stateMutability":"view"},{"type":"event","name":"CommentCreated","inputs":[{"name":"commentId","type":"uint256","indexed":false,"internalType":"uint256"}],"anonymous":false},{"type":"event","name":"CommentsDeleted","inputs":[{"name":"commentIds","type":"uint256[]","indexed":false,"internalType":"uint256[]"}],"anonymous":false},{"type":"event","name":"ContestCanceled","inputs":[],"anonymous":false},{"type":"event","name":"JokeraceCreated","inputs":[{"name":"name","type":"string","indexed":false,"internalType":"string"},{"name":"creator","type":"address","indexed":false,"internalType":"address"}],"anonymous":false},{"type":"event","name":"OfficialRewardsModuleSet","inputs":[{"name":"oldOfficialRewardsModule","type":"address","indexed":false,"internalType":"contract RewardsModule"},{"name":"newOfficialRewardsModule","type":"address","indexed":false,"internalType":"contract RewardsModule"}],"anonymous":false},{"type":"event","name":"PaymentReleased","inputs":[{"name":"to","type":"address","indexed":false,"internalType":"address"},{"name":"amount","type":"uint256","indexed":false,"internalType":"uint256"}],"anonymous":false},{"type":"event","name":"ProposalCreated","inputs":[{"name":"proposalId","type":"uint256","indexed":false,"internalType":"uint256"},{"name":"proposer","type":"address","indexed":false,"internalType":"address"}],"anonymous":false},{"type":"event","name":"ProposalsDeleted","inputs":[{"name":"proposalIds","type":"uint256[]","indexed":false,"internalType":"uint256[]"}],"anonymous":false},{"type":"event","name":"VoteCast","inputs":[{"name":"voter","type":"address","indexed":true,"internalType":"address"},{"name":"proposalId","type":"uint256","indexed":false,"internalType":"uint256"},{"name":"support","type":"uint8","indexed":false,"internalType":"uint8"},{"name":"numVotes","type":"uint256","indexed":false,"internalType":"uint256"}],"anonymous":false},{"type":"error","name":"AddressNotPermissionedToSubmit","inputs":[]},{"type":"error","name":"AuthorIsNotSender","inputs":[{"name":"author","type":"address","internalType":"address"},{"name":"sender","type":"address","internalType":"address"}]},{"type":"error","name":"CannotDeleteWhenCompleted","inputs":[]},{"type":"error","name":"CannotVoteOnDeletedProposal","inputs":[]},{"type":"error","name":"ContestAlreadyCancelled","inputs":[]},{"type":"error","name":"ContestMustBeActiveToVote","inputs":[{"name":"currentState","type":"uint8","internalType":"enum Governor.ContestState"}]},{"type":"error","name":"ContestMustBeQueuedToPropose","inputs":[{"name":"currentState","type":"uint8","internalType":"enum Governor.ContestState"}]},{"type":"error","name":"ContestSubmissionLimitReached","inputs":[{"name":"maxProposalCount","type":"uint256","internalType":"uint256"}]},{"type":"error","name":"DownvotingNotEnabled","inputs":[]},{"type":"error","name":"DuplicateSubmission","inputs":[{"name":"proposalId","type":"uint256","internalType":"uint256"}]},{"type":"error","name":"EmptyProposalDescription","inputs":[]},{"type":"error","name":"IncorrectCostToProposeSent","inputs":[{"name":"msgValue","type":"uint256","internalType":"uint256"},{"name":"costToPropose","type":"uint256","internalType":"uint256"}]},{"type":"error","name":"IndexHasNotBeenPopulated","inputs":[]},{"type":"error","name":"InvalidVoteType","inputs":[]},{"type":"error","name":"MoreThanOneProposalWithThisManyVotes","inputs":[]},{"type":"error","name":"NeedAtLeastOneVoteToVote","inputs":[]},{"type":"error","name":"NeedToSubmitWithProofFirst","inputs":[]},{"type":"error","name":"NeedToVoteWithProofFirst","inputs":[]},{"type":"error","name":"NotEnoughVotesLeft","inputs":[]},{"type":"error","name":"NotInMerkle","inputs":[]},{"type":"error","name":"OnlyCreatorCanDelete","inputs":[]},{"type":"error","name":"OnlyCreatorCanSetRewardsModule","inputs":[]},{"type":"error","name":"OnlyCreatorOrAuthorCanDeleteComments","inputs":[{"name":"failedToDeleteCommentId","type":"uint256","internalType":"uint256"}]},{"type":"error","name":"OnlyJkLabsCanAmend","inputs":[]},{"type":"error","name":"OnlyJkLabsOrCreatorCanCancel","inputs":[]},{"type":"error","name":"RankCannotBeZero","inputs":[]},{"type":"error","name":"RankIsNotInSortedRanks","inputs":[]},{"type":"error","name":"SenderSubmissionLimitReached","inputs":[{"name":"numAllowedProposalSubmissions","type":"uint256","internalType":"uint256"}]},{"type":"error","name":"UnexpectedMetadata","inputs":[{"name":"unexpectedMetadata","type":"uint8","internalType":"enum Governor.Metadatas"}]},{"type":"error","name":"ZeroSignersInSafeMetadata","inputs":[]},{"type":"error","name":"ZeroThresholdInSafeMetadata","inputs":[]}],"bytecode":{"object":"0x60806040523480156200001157600080fd5b5060405162004ab038038062004ab083398101604081905262000034916200030b565b84848484846000815181106200004e576200004e6200041c565b6020026020010151856001815181106200006c576200006c6200041c565b6020026020010151866002815181106200008a576200008a6200041c565b602002602001015187600381518110620000a857620000a86200041c565b602002602001015188600481518110620000c657620000c66200041c565b602002602001015189600581518110620000e457620000e46200041c565b60200260200101518a6006815181106200010257620001026200041c565b60200260200101518b6007815181106200012057620001206200041c565b602002602001015189898e6008815181106200014057620001406200041c565b60200260200101518f6009815181106200015e576200015e6200041c565b60209081029190910101516000919091556001556003919091556004556005620001898d82620004c1565b506006620001988c82620004c1565b50600780546001600160a01b0319163390811790915560088990556009889055600a879055600b869055600c859055600d849055600e839055600f8290556040517f1eae03a78f765227bc1e8574db32390cefa5b3c0a954017973e497e40a1237349162000209918f91906200058d565b60405180910390a15050505050505050505050505050505050620005d3565b634e487b7160e01b600052604160045260246000fd5b604051601f8201601f191681016001600160401b038111828210171562000269576200026962000228565b604052919050565b60005b838110156200028e57818101518382015260200162000274565b50506000910152565b600082601f830112620002a957600080fd5b81516001600160401b03811115620002c557620002c562000228565b620002da601f8201601f19166020016200023e565b818152846020838601011115620002f057600080fd5b6200030382602083016020870162000271565b949350505050565b600080600080600060a086880312156200032457600080fd5b85516001600160401b03808211156200033c57600080fd5b6200034a89838a0162000297565b96506020915081880151818111156200036257600080fd5b620003708a828b0162000297565b96505060408801519450606088015193506080880151818111156200039457600080fd5b8801601f81018a13620003a657600080fd5b805182811115620003bb57620003bb62000228565b8060051b9250620003ce8484016200023e565b818152928201840192848101908c851115620003e957600080fd5b928501925b848410156200040957835182529285019290850190620003ee565b8096505050505050509295509295909350565b634e487b7160e01b600052603260045260246000fd5b600181811c908216806200044757607f821691505b6020821081036200046857634e487b7160e01b600052602260045260246000fd5b50919050565b601f821115620004bc57600081815260208120601f850160051c81016020861015620004975750805b601f850160051c820191505b81811015620004b857828155600101620004a3565b5050505b505050565b81516001600160401b03811115620004dd57620004dd62000228565b620004f581620004ee845462000432565b846200046e565b602080601f8311600181146200052d5760008415620005145750858301515b600019600386901b1c1916600185901b178555620004b8565b600085815260208120601f198616915b828110156200055e578886015182559484019460019091019084016200053d565b50858210156200057d5787850151600019600388901b60f8161c191681555b5050505050600190811b01905550565b6040815260008351806040840152620005ae81606085016020880162000271565b6001600160a01b0393909316602083015250601f91909101601f191601606001919050565b6144cd80620005e36000396000f3fe6080604052600436106104885760003560e01c806375e509c511610255578063c19d93fb11610144578063ea8a1af0116100c1578063f4f3d7ec11610085578063f4f3d7ec14610e65578063f5c3641114610e85578063f61736f414610ea5578063f79c017214610ec5578063fb8ddab414610ef5578063fb9bf8d414610f1557600080fd5b8063ea8a1af014610ddd578063edcd1be414610df2578063eef18e1714610e08578063efa90d3614610e30578063f0a7db0a14610e4557600080fd5b8063daf762db11610108578063daf762db14610d50578063dd96a19d14610d70578063dea5f6a614610d86578063e031535b14610db3578063e11db9d814610dc857600080fd5b8063c19d93fb14610c9c578063c7f758a814610cbe578063c9a1b6b214610ceb578063cb85395014610d0b578063cbdc27cb14610d3b57600080fd5b80639ba197af116101d2578063b323580d11610196578063b323580d14610c13578063b66d1da314610c33578063bddc164114610c53578063c05f410414610c69578063c0ffaa7814610c8957600080fd5b80639ba197af14610b33578063a1ac6cb214610b60578063ac67f80114610b8d578063ae66b8ad14610bad578063aec116b614610bdd57600080fd5b80638ebb4c15116102195780638ebb4c1514610a7e5780639174778c14610aae578063930de97914610ace578063946369b514610afe5780639b644a2314610b1357600080fd5b806375e509c5146109f0578063785ddfe514610a1d5780637c65d71114610a3d5780637de418d514610a52578063832009af14610a6857600080fd5b80633f9942ff1161037c578063544c7bb4116102f957806360506ff6116102bd57806360506ff61461094f57806365f16263146109655780636e4eb810146109855780636ed815ad146109a55780636fd3636b146109bb578063711effc8146109d057600080fd5b8063544c7bb414610883578063544ffc9c146108a357806354fd4d50146108ed5780635c7107d81461091a5780635cb718a11461093a57600080fd5b8063476f4d8a11610340578063476f4d8a146107f85780634d24a67f1461080b57806350a5e5241461082057806350c4b61614610843578063531bd8121461086357600080fd5b80633f9942ff1461075e5780633fb57c9214610778578063409fd03014610798578063419c533c146107b8578063458da87d146107d857600080fd5b80631242b7371161040a578063325cc6d9116103ce578063325cc6d9146106c657806332763c22146106e6578063347cf66514610716578063366ecf5b146107325780633932abb11461074857600080fd5b80631242b7371461062b5780631805c5231461064d57806320b3e8451461066d578063262e59e91461068f5780632c39805f146106a457600080fd5b806305846cae1161045157806305846cae1461054b57806306fdde031461056b578063070dc5d91461058d5780630800e300146105de5780630aa25e441461060b57600080fd5b80624114a81461048d578063013cf08b146104b657806302a251a3146104e757806302d05d3f146104fd5780630414126a14610535575b600080fd5b34801561049957600080fd5b506104a360085481565b6040519081526020015b60405180910390f35b3480156104c257600080fd5b506104d66104d13660046136eb565b610f2b565b6040516104ad9594939291906137a3565b3480156104f357600080fd5b506104a3600a5481565b34801561050957600080fd5b5060075461051d906001600160a01b031681565b6040516001600160a01b0390911681526020016104ad565b34801561054157600080fd5b506104a360015481565b34801561055757600080fd5b506104a36105663660046136eb565b611073565b34801561057757600080fd5b50610580611094565b6040516104ad91906137f5565b34801561059957600080fd5b506105d16105a83660046136eb565b601d60209081526000918252604091829020825180840190935280548352600101549082015281565b6040516104ad9190613808565b3480156105ea57600080fd5b506105fe6105f93660046136eb565b611122565b6040516104ad919061381f565b34801561061757600080fd5b5061051d6106263660046136eb565b611236565b34801561063757600080fd5b50610640611260565b6040516104ad919061389b565b34801561065957600080fd5b506104a36106683660046139cf565b6112b8565b34801561067957600080fd5b5061068d610688366004613a6e565b6113d7565b005b34801561069b57600080fd5b506104a3611446565b3480156106b057600080fd5b506106b9611462565b6040516104ad9190613ac2565b3480156106d257600080fd5b506104a36106e13660046136eb565b6114c3565b3480156106f257600080fd5b50610706610701366004613b24565b6114d3565b60405190151581526020016104ad565b34801561072257600080fd5b506104a3678ac7230489e8000081565b34801561073e57600080fd5b506104a360005481565b34801561075457600080fd5b506104a360095481565b34801561076a57600080fd5b506013546107069060ff1681565b34801561078457600080fd5b506104a36107933660046136eb565b6115d2565b3480156107a457600080fd5b506104a36107b3366004613b94565b6115e2565b3480156107c457600080fd5b506104a36107d3366004613c50565b611613565b3480156107e457600080fd5b506104a36107f3366004613e5f565b611669565b6104a3610806366004613eab565b61167c565b34801561081757600080fd5b506104a3611713565b34801561082c57600080fd5b50610835611721565b6040516104ad929190613edf565b34801561084f57600080fd5b5061051d61085e3660046136eb565b611827565b34801561086f57600080fd5b5061068d61087e366004613f48565b611837565b34801561088f57600080fd5b5061068d61089e3660046136eb565b61189d565b3480156108af57600080fd5b506108d86108be3660046136eb565b6000908152601d6020526040902080546001909101549091565b604080519283526020830191909152016104ad565b3480156108f957600080fd5b506040805180820190915260048152630342e32360e41b6020820152610580565b34801561092657600080fd5b506104a36109353660046136eb565b6118d6565b34801561094657600080fd5b506106406119dd565b34801561095b57600080fd5b506104a3600d5481565b34801561097157600080fd5b506104a3610980366004613fa3565b611a33565b34801561099157600080fd5b506108d86109a0366004613fd8565b611ab3565b3480156109b157600080fd5b506104a3600e5481565b3480156109c757600080fd5b50610640611ae8565b3480156109dc57600080fd5b506104a36109eb366004614008565b611b3e565b3480156109fc57600080fd5b506104a3610a0b36600461402a565b60156020526000908152604090205481565b348015610a2957600080fd5b50601f5461051d906001600160a01b031681565b348015610a4957600080fd5b50610580611b6f565b348015610a5e57600080fd5b506104a3601b5481565b348015610a7457600080fd5b506104a3600b5481565b348015610a8a57600080fd5b50610a9e610a993660046136eb565b611b7c565b6040516104ad9493929190614047565b348015610aba57600080fd5b50610706610ac93660046136eb565b611c39565b348015610ada57600080fd5b50610706610ae936600461402a565b60196020526000908152604090205460ff1681565b348015610b0a57600080fd5b506106b9611cdf565b348015610b1f57600080fd5b506104a3610b2e3660046136eb565b611d3f565b348015610b3f57600080fd5b506104a3610b4e3660046136eb565b6000908152601e602052604090205490565b348015610b6c57600080fd5b506104a3610b7b36600461402a565b601c6020526000908152604090205481565b348015610b9957600080fd5b5061068d610ba836600461407e565b611d4f565b348015610bb957600080fd5b50610706610bc83660046136eb565b60246020526000908152604090205460ff1681565b348015610be957600080fd5b506104a3610bf836600461402a565b6001600160a01b03166000908152601c602052604090205490565b348015610c1f57600080fd5b506106b9610c2e3660046136eb565b611e84565b348015610c3f57600080fd5b506104a3610c4e3660046136eb565b611ef6565b348015610c5f57600080fd5b506104a360035481565b348015610c7557600080fd5b50610640610c843660046136eb565b611f56565b6104a3610c9736600461410e565b611fb8565b348015610ca857600080fd5b50610cb1612020565b6040516104ad919061417f565b348015610cca57600080fd5b50610cde610cd93660046136eb565b612071565b6040516104ad9190614199565b348015610cf757600080fd5b50610640610d063660046136eb565b6121eb565b348015610d1757600080fd5b50610706610d2636600461402a565b601a6020526000908152604090205460ff1681565b348015610d4757600080fd5b506106b961224b565b348015610d5c57600080fd5b5061068d610d6b3660046136eb565b61237b565b348015610d7c57600080fd5b506104a360045481565b348015610d9257600080fd5b506104a3610da136600461402a565b60186020526000908152604090205481565b348015610dbf57600080fd5b506104a36123b4565b348015610dd457600080fd5b506106406123c6565b348015610de957600080fd5b5061068d61241c565b348015610dfe57600080fd5b506104a3600f5481565b348015610e1457600080fd5b5061051d73dc652c746a8f85e18ce632d97c6118e8a52fa73881565b348015610e3c57600080fd5b506106406124e0565b348015610e5157600080fd5b5061068d610e60366004614200565b612536565b348015610e7157600080fd5b5061068d610e8036600461402a565b612691565b348015610e9157600080fd5b506104a3610ea03660046136eb565b612716565b348015610eb157600080fd5b506104a3610ec0366004614008565b612726565b348015610ed157600080fd5b50610706610ee03660046136eb565b60126020526000908152604090205460ff1681565b348015610f0157600080fd5b5061068d610f10366004613e5f565b612742565b348015610f2157600080fd5b506104a3600c5481565b601460205260009081526040902080546001820180546001600160a01b03831693600160a01b90930460ff16929190610f6390614241565b80601f0160208091040260200160405190810160405280929190818152602001828054610f8f90614241565b8015610fdc5780601f10610fb157610100808354040283529160200191610fdc565b820191906000526020600020905b815481529060010190602001808311610fbf57829003601f168201915b5050604080516020808201835260028801546001600160a01b03168252825160038901805460609381028301840186529482018581529899939893975090955093508492849184018282801561105b57602002820191906000526020600020905b81546001600160a01b0316815260019091019060200180831161103d575b50505050508152602001600182015481525050905085565b6011818154811061108357600080fd5b600091825260209091200154905081565b600580546110a190614241565b80601f01602080910402602001604051908101604052809291908181526020018280546110cd90614241565b801561111a5780601f106110ef5761010080835404028352916020019161111a565b820191906000526020600020905b8154815290600101906020018083116110fd57829003601f168201915b505050505081565b611156604051806080016040528060006001600160a01b031681526020016000815260200160008152602001606081525090565b600082815260226020908152604091829020825160808101845281546001600160a01b031681526001820154928101929092526002810154928201929092526003820180549192916060840191906111ad90614241565b80601f01602080910402602001604051908101604052809291908181526020018280546111d990614241565b80156112265780601f106111fb57610100808354040283529160200191611226565b820191906000526020600020905b81548152906001019060200180831161120957829003601f168201915b5050505050815250509050919050565b6016818154811061124657600080fd5b6000918252602090912001546001600160a01b0316905081565b606060118054806020026020016040519081016040528092919081815260200182805480156112ae57602002820191906000526020600020905b81548152602001906001019080831161129a575b5050505050905090565b6040805160808101825233815242602082015290810183905260608101829052600090816112e5826115e2565b60208054600180820183557fc97bfaf2f8ee708c303a06d134f5ecd8389ae0432af62dc132a24118292866bb909101839055600083815260228352604090819020865181546001600160a01b0319166001600160a01b039091161781559286015191830191909155840151600282015560608401519192508391600382019061136e90826142c3565b505050600085815260236020908152604080832080546001810182559084529190922001829055517f5a1a930fed43f34b3a07db782ebcac28a661c273e662bb98458cfba5a8ccd220906113c59083815260200190565b60405180910390a19150505b92915050565b6001600160a01b0383166000908152601a602052604090205460ff166114415760035460000361140657505050565b61141c83678ac7230489e80000848460006114d3565b506001600160a01b0383166000908152601a60205260409020805460ff191660011790555b505050565b6000600a546114536123b4565b61145d9190614398565b905090565b606060178054806020026020016040519081016040528092919081815260200182805480156112ae57602002820191906000526020600020905b81546001600160a01b0316815260019091019060200180831161149c575050505050905090565b6002818154811061108357600080fd5b6040516bffffffffffffffffffffffff19606087901b1660208201526034810185905260009081906054016040516020818303038152906040528051906020012090506000836115635761155e868680806020026020016040519081016040528093929190818152602001838360200280828437600092019190915250506003549150859050612891565b6115a4565b6115a4868680806020026020016040519081016040528093929190818152602001838360200280828437600092019190915250506004549150859050612891565b9050806115c45760405163452c2df160e11b815260040160405180910390fd5b506001979650505050505050565b6021818154811061108357600080fd5b6000816040516020016115f5919061381f565b60408051601f19818403018152919052805160209091012092915050565b600086815260126020526040812054339060ff1615611645576040516358f1119560e01b815260040160405180910390fd5b61165181878686611837565b61165d888289886128a7565b98975050505050505050565b6000816040516020016115f59190614199565b6000600e5434146116b257600e546040516380a7af9f60e01b815234600482015260248101919091526044015b60405180910390fd5b600354156116ea57336000908152601a602052604090205460ff166116ea57604051631f22097560e01b815260040160405180910390fd5b6116f6610f10836143ab565b6000611709611704846143ab565b6129ee565b90506113d1612c69565b61171e600180614398565b81565b606080600061172e6124e0565b9050600081516001600160401b0381111561174b5761174b6138ae565b60405190808252806020026020018201604052801561179057816020015b60408051808201909152600080825260208201528152602001906001900390816117695790505b50905060005b825181101561181d57601d60008483815181106117b5576117b56143b7565b60200260200101518152602001908152602001600020600001604051806040016040529081600082015481526020016001820154815250508282815181106117ff576117ff6143b7565b60200260200101819052508080611815906143cd565b915050611796565b5090939092509050565b6017818154811061124657600080fd5b6001600160a01b03841660009081526019602052604090205460ff16611897576118658484848460016114d3565b506001600160a01b038416600090815260186020908152604080832086905560199091529020805460ff191660011790555b50505050565b3373dc652c746a8f85e18ce632d97c6118e8a52fa738146118d15760405163de07280160e01b815260040160405180910390fd5b600455565b6000816000036118f957604051630ec90a1760e31b815260040160405180910390fd5b6002805460408051602080840282018101909252828152919260009291849083018282801561194757602002820191906000526020600020905b815481526020019060010190808311611933575b5050505050905060006001905060005b838110156119c35761198e838281518110611974576119746143b7565b60200260200101516000908152601e602052604090205490565b156119b1578582036119a35795945050505050565b816119ad816143cd565b9250505b806119bb816143cd565b915050611957565b50604051632cc2ab7360e11b815260040160405180910390fd5b606060218054806020026020016040519081016040528092919081815260200182805480156112ae576020028201919060005260206000209081548152602001906001019080831161129a575050505050905090565b600083815260126020526040812054339060ff1615611a65576040516358f1119560e01b815260040160405180910390fd5b6001600160a01b03811660009081526019602052604090205460ff16611a9e5760405163126ec6d160e31b815260040160405180910390fd5b611aaa858286866128a7565b95945050505050565b6000828152601d602090815260408083206001600160a01b0385168452600301909152902080546001909101545b9250929050565b606060028054806020026020016040519081016040528092919081815260200182805480156112ae576020028201919060005260206000209081548152602001906001019080831161129a575050505050905090565b601e6020528160005260406000208181548110611b5a57600080fd5b90600052602060002001600091509150505481565b600680546110a190614241565b60226020526000908152604090208054600182015460028301546003840180546001600160a01b03909416949293919291611bb690614241565b80601f0160208091040260200160405190810160405280929190818152602001828054611be290614241565b8015611c2f5780601f10611c0457610100808354040283529160200191611c2f565b820191906000526020600020905b815481529060010190602001808311611c1257829003601f168201915b5050505050905084565b600254600090611c4b906001906143e6565b821115611c6b576040516365d6f35160e11b815260040160405180910390fd5b60005b611c79836001614398565b811015611cd6576001611cb560028381548110611c9857611c986143b7565b90600052602060002001546000908152601e602052604090205490565b1115611cc45750600192915050565b80611cce816143cd565b915050611c6e565b50600092915050565b606060168054806020026020016040519081016040528092919081815260200182805480156112ae576020028201919060005260206000209081546001600160a01b0316815260019091019060200180831161149c575050505050905090565b6010818154811061108357600080fd5b805160005b81811015611e48576000838281518110611d7057611d706143b7565b60209081029190910101516007549091506001600160a01b03163314801590611db057506000818152602260205260409020546001600160a01b03163314155b15611dd157604051635450763d60e11b8152600481018290526024016116a9565b60008181526024602052604090205460ff16611e35576000818152602460205260408120805460ff191660019081179091556021805491820181559091527f3a6357012c1a3ae0a17d304c9920310382d968ebcc4b1771f41c6b304205b570018190555b5080611e40816143cd565b915050611d54565b507f788a4349d25bc08585923ae212bce8bb346a623bce753eeecb85fd9ce58dcb4b82604051611e78919061389b565b60405180910390a15050565b6000818152601d60209081526040918290206002810180548451818502810185019095528085526060949293830182828015611ee957602002820191906000526020600020905b81546001600160a01b03168152600190910190602001808311611ecb575b5050505050915050919050565b6000818152601e6020526040812054600114611f2557604051633832a15560e21b815260040160405180910390fd5b6000828152601e602052604081208054909190611f4457611f446143b7565b90600052602060002001549050919050565b600081815260236020908152604091829020805483518184028101840190945280845260609392830182828015611fac57602002820191906000526020600020905b815481526020019060010190808311611f98575b50505050509050919050565b6000600e543414611fe957600e546040516380a7af9f60e01b815234600482015260248101919091526044016116a9565b611ff43384846113d7565b612000610f10856143ab565b600061200e611704866143ab565b9050612018612c69565b949350505050565b60135460009060ff16156120345750600290565b42600854106120435750600090565b4261204c6123b4565b106120575750600390565b42612060611446565b1061206b5750600190565b50600490565b612079613600565b600082815260146020908152604091829020825160a08101845281546001600160a01b0381168252600160a01b900460ff1615159281019290925260018101805492939192918401916120cb90614241565b80601f01602080910402602001604051908101604052809291908181526020018280546120f790614241565b80156121445780601f1061211957610100808354040283529160200191612144565b820191906000526020600020905b81548152906001019060200180831161212757829003601f168201915b5050509183525050604080516020818101835260028501546001600160a01b031682528084019190915281516003850180546060938102830184018552828501818152949095019491939092849284918401828280156121cd57602002820191906000526020600020905b81546001600160a01b031681526001909101906020018083116121af575b50505050508152602001600182015481525050815250509050919050565b6000818152601e6020908152604091829020805483518184028101840190945280845260609392830182828015611fac5760200282019190600052602060002090815481526020019060010190808311611f985750505050509050919050565b60606000601180548060200260200160405190810160405280929190818152602001828054801561229b57602002820191906000526020600020905b815481526020019060010190808311612287575b50505050509050600081516001600160401b038111156122bd576122bd6138ae565b6040519080825280602002602001820160405280156122e6578160200160208202803683370190505b50905060005b8251811015612374576014600084838151811061230b5761230b6143b7565b6020026020010151815260200190815260200160002060000160009054906101000a90046001600160a01b031682828151811061234a5761234a6143b7565b6001600160a01b03909216602092830291909101909101528061236c816143cd565b9150506122ec565b5092915050565b3373dc652c746a8f85e18ce632d97c6118e8a52fa738146123af5760405163de07280160e01b815260040160405180910390fd5b600355565b600060095460085461145d9190614398565b606060208054806020026020016040519081016040528092919081815260200182805480156112ae576020028201919060005260206000209081548152602001906001019080831161129a575050505050905090565b6007546001600160a01b0316331480159061244b57503373dc652c746a8f85e18ce632d97c6118e8a52fa73814155b15612469576040516301dbf46f60e71b815260040160405180910390fd5b6000612473612020565b9050600281600481111561248957612489614169565b036124a757604051633c30acbf60e01b815260040160405180910390fd5b6013805460ff191660011790556040517f4cd963a081760a54f571abc0f1db4dde31b4a07d8d6da3e844b8c6f47eeaaa4290600090a150565b606060108054806020026020016040519081016040528092919081815260200182805480156112ae576020028201919060005260206000209081548152602001906001019080831161129a575050505050905090565b6007546001600160a01b031633146125615760405163b8d4540960e01b815260040160405180910390fd5b600461256b612020565b600481111561257c5761257c614169565b0361259a576040516331da1c8b60e11b815260040160405180910390fd5b60005b8181101561263f5760008383838181106125b9576125b96143b7565b60209081029290920135600081815260129093526040909220549192505060ff1661262c576000818152601260205260408120805460ff191660019081179091556011805491820181559091527f31ecc21a745e3968a04e9570e4425bc18fa8019c68028196b546d1669c200c68018190555b5080612637816143cd565b91505061259d565b50600d5415801561265257506000546001145b15612661576126618282612d7e565b7f75a75cf5c561892f4cc5b26c1b8e933849b42238c96dd073d080d1ae96c514166010604051611e7891906143f9565b6007546001600160a01b031633146126bc57604051630f4cb1bd60e11b815260040160405180910390fd5b601f80546001600160a01b038381166001600160a01b031983168117909355604080519190921680825260208201939093527f753a2cf8d360cff631674504210913e48247f8e56b3e6d2006c2103d4095999f9101611e78565b6020818154811061108357600080fd5b60236020528160005260406000208181548110611b5a57600080fd5b80516001600160a01b0316331461278057805160405163fbbf4d7f60e01b81526001600160a01b0390911660048201523360248201526044016116a9565b60005b61278e600180614398565b8110156128675760008160018111156127a9576127a9614169565b905060008160018111156127bf576127bf614169565b036127ca5750612855565b60018160018111156127de576127de614169565b03612838576080830151515160000361280a5760405163c3b2798b60e01b815260040160405180910390fd5b826080015160200151600003612833576040516392fb9a3560e01b815260040160405180910390fd5b612853565b8060405163d2277d4960e01b81526004016116a99190614434565b505b8061285f816143cd565b915050612783565b5080604001515160000361288e5760405163e182473360e01b815260040160405180910390fd5b50565b60008261289e8584612ddb565b14949350505050565b600060016128b3612020565b60048111156128c4576128c4614169565b146128eb576128d1612020565b60405163049cab4960e51b81526004016116a9919061417f565b8160000361290c5760405163502e1c2960e01b815260040160405180910390fd5b61293e85858585601860008a6001600160a01b03166001600160a01b0316815260200190815260200160002054612e28565b601780546001810182556000919091527fc624b66cc0138b8fabc209247f72d758e1cf3343756d543badbf24212bed8c150180546001600160a01b031916331790556040805186815260ff851660208201529081018390526001600160a01b038516907f2c9deb38f462962eadbd85a9d3a4120503ee091f1582eaaa10aa8c6797651d299060600160405180910390a25050506001600160a01b0316600090815260186020526040902054919050565b600060036129fa612020565b6004811115612a0b57612a0b614169565b14612a3257612a18612020565b604051632889531360e01b81526004016116a9919061417f565b600b543360009081526015602052604090205403612a6957600b54604051632bd6d93960e21b81526004016116a991815260200190565b600c54601154601054612a7c91906143e6565b03612aa057600c546040516302217f5360e51b81526004016116a991815260200190565b6000612aab83611669565b600081815260146020526040902054909150600160a01b900460ff1615612ae85760405163baffc42360e01b8152600481018290526024016116a9565b6010805460018181019092557f1b6847dc741a1b0cd08d278845f9d819d87b734759afb55fe2de5cb82a9ae6720182905560008281526014602090815260409182902086518154928801511515600160a01b026001600160a81b03199093166001600160a01b0390911617919091178155908501518592820190612b6c90826142c3565b506060820151516002820180546001600160a01b0319166001600160a01b039092169190911790556080820151805180516003840191612bb191839160200190613671565b5060209182015160019182015533600090815260159092526040822080549194509250612bdf908490614398565b9091555050601680546001810182556000919091527fd833147d7dc355ba459fc788f669e58cfaf9dc25ddcd0702e87d69c7b51242890180546001600160a01b031916339081179091556040805183815260208101929092527fcd423cc1203c0af96b9b3d68d73b3064a69de2d14450bb7181c5e5df2132b358910160405180910390a192915050565b600e5415612d7c5760006064600f546064612c8491906143e6565b612c8e9034614448565b612c98919061445f565b90508015612d0c57612cbe73dc652c746a8f85e18ce632d97c6118e8a52fa7388261308f565b6040805173dc652c746a8f85e18ce632d97c6118e8a52fa7388152602081018390527fdf20fd1e76bc69d672e4814fafb2c449bba3a5369d8359adf9e05e6fde87b056910160405180910390a15b6000612d1882346143e6565b90508015612d7957600754612d36906001600160a01b03168261308f565b600754604080516001600160a01b039092168252602082018390527fdf20fd1e76bc69d672e4814fafb2c449bba3a5369d8359adf9e05e6fde87b0569101611e78565b50505b565b60005b81811015611441576000838383818110612d9d57612d9d6143b7565b602090810292909201356000818152601d909352604090922054919250612dc6905082826131a8565b50508080612dd3906143cd565b915050612d81565b600081815b8451811015612e2057612e0c82868381518110612dff57612dff6143b7565b60200260200101516132d9565b915080612e18816143cd565b915050612de0565b509392505050565b6000858152601d602090815260408083206001600160a01b0388168452601c90925290912054612e5890836143e6565b831115612e785760405163660fa07360e11b815260040160405180910390fd5b6001600160a01b0385166000908152600382016020526040812054158015612ebb57506001600160a01b0386166000908152600383016020526040902060010154155b905060ff8516612f1357815484908390600090612ed9908490614398565b90915550506001600160a01b038616600090815260038301602052604081208054869290612f08908490614398565b90915550612fa49050565b60001960ff861601612f8b57600d54600114612f4257604051639755958f60e01b815260040160405180910390fd5b83826000016001016000828254612f599190614398565b90915550506001600160a01b038616600090815260038301602052604081206001018054869290612f08908490614398565b604051638eed55d160e01b815260040160405180910390fd5b8015612fdb57600282018054600181018255600091825260209091200180546001600160a01b0319166001600160a01b0388161790555b6001600160a01b0386166000908152601c602052604081208054869290613003908490614398565b9250508190555083601b600082825461301c9190614398565b9091555050600d5415801561303357506000546001145b15613086578154600061304686836143e6565b905080156130585761305889826131a8565b6000828152601e6020908152604082208054600181018255908352912001899055613083818361330b565b50505b50505050505050565b804710156130df5760405162461bcd60e51b815260206004820152601d60248201527f416464726573733a20696e73756666696369656e742062616c616e636500000060448201526064016116a9565b6000826001600160a01b03168260405160006040518083038185875af1925050503d806000811461312c576040519150601f19603f3d011682016040523d82523d6000602084013e613131565b606091505b50509050806114415760405162461bcd60e51b815260206004820152603a60248201527f416464726573733a20756e61626c6520746f2073656e642076616c75652c207260448201527f6563697069656e74206d6179206861766520726576657274656400000000000060648201526084016116a9565b6000818152601e60209081526040808320805482518185028101850190935280835291929091908301828280156131fe57602002820191906000526020600020905b8154815260200190600101908083116131ea575b5050505050905060005b81518110156118975783828281518110613224576132246143b7565b6020026020010151036132c757816001835161324091906143e6565b81518110613250576132506143b7565b6020026020010151601e6000858152602001908152602001600020828154811061327c5761327c6143b7565b9060005260206000200181905550601e60008481526020019081526020016000208054806132ac576132ac614481565b60019003818190600052602060002001600090559055611897565b806132d1816143cd565b915050613208565b60008183106132f5576000828152602084905260409020613304565b60008381526020839052604090205b9392505050565b6002805460408051602080840282018101909252828152919260009291849083018282801561335957602002820191906000526020600020905b815481526020019060010190808311613345575b50505050509050816000036133a0575050600280546001810182556000919091527f405787fa12a823e0f2b7631cc41b3ba8828b3321ca811111fa75cd3aa3bb5ace015550565b806133ac6001846143e6565b815181106133bc576133bc6143b7565b60200260200101518310156134125760015482036133da5750505050565b5050600280546001810182556000919091527f405787fa12a823e0f2b7631cc41b3ba8828b3321ca811111fa75cd3aa3bb5ace015550565b611897848484846000805b8381101561348757828181518110613437576134376143b7565b6020026020010151850361344c575050611897565b82818151811061345e5761345e6143b7565b602002602001015185111561347557809150613487565b8061347f816143cd565b91505061341d565b50600080861180156134a557506000868152601e6020526040902054155b905060008180156134ce5750868484815181106134c4576134c46143b7565b6020026020010151145b6135d7576134dd6001866143e6565b83146135855760006134f0846001614398565b90505b8581101561358357846135076001836143e6565b81518110613517576135176143b7565b602002602001015160028281548110613532576135326143b7565b600091825260209091200155828015613563575087858281518110613559576135596143b7565b6020026020010151145b156135715760019150613583565b8061357b816143cd565b9150506134f3565b505b80158015613594575060015485105b156135d7576002846135a76001886143e6565b815181106135b7576135b76143b7565b602090810291909101810151825460018101845560009384529190922001555b85600284815481106135eb576135eb6143b7565b60009182526020909120015550505050505050565b6040518060a0016040528060006001600160a01b031681526020016000151581526020016060815260200161364a604051806020016040528060006001600160a01b031681525090565b815260200161366c604051806040016040528060608152602001600081525090565b905290565b8280548282559060005260206000209081019282156136c6579160200282015b828111156136c657825182546001600160a01b0319166001600160a01b03909116178255602090920191600190910190613691565b506136d29291506136d6565b5090565b5b808211156136d257600081556001016136d7565b6000602082840312156136fd57600080fd5b5035919050565b6000815180845260005b8181101561372a5760208185018101518683018201520161370e565b506000602082860101526020601f19601f83011685010191505092915050565b805160408084528151908401819052600091602091908201906060860190845b8181101561378f5783516001600160a01b03168352928401929184019160010161376a565b505093820151949091019390935250919050565b600060018060a01b038088168352861515602084015260a060408401526137cd60a0840187613704565b81865116606085015283810360808501526137e8818661374a565b9998505050505050505050565b6020815260006133046020830184613704565b8151815260208083015190820152604081016113d1565b6020815260018060a01b03825116602082015260208201516040820152604082015160608201526000606083015160808084015261201860a0840182613704565b600081518084526020808501945080840160005b8381101561389057815187529582019590820190600101613874565b509495945050505050565b6020815260006133046020830184613860565b634e487b7160e01b600052604160045260246000fd5b604080519081016001600160401b03811182821017156138e6576138e66138ae565b60405290565b60405160a081016001600160401b03811182821017156138e6576138e66138ae565b604051602081016001600160401b03811182821017156138e6576138e66138ae565b604051601f8201601f191681016001600160401b0381118282101715613958576139586138ae565b604052919050565b600082601f83011261397157600080fd5b81356001600160401b0381111561398a5761398a6138ae565b61399d601f8201601f1916602001613930565b8181528460208386010111156139b257600080fd5b816020850160208301376000918101602001919091529392505050565b600080604083850312156139e257600080fd5b8235915060208301356001600160401b038111156139ff57600080fd5b613a0b85828601613960565b9150509250929050565b6001600160a01b038116811461288e57600080fd5b60008083601f840112613a3c57600080fd5b5081356001600160401b03811115613a5357600080fd5b6020830191508360208260051b8501011115611ae157600080fd5b600080600060408486031215613a8357600080fd5b8335613a8e81613a15565b925060208401356001600160401b03811115613aa957600080fd5b613ab586828701613a2a565b9497909650939450505050565b6020808252825182820181905260009190848201906040850190845b81811015613b035783516001600160a01b031683529284019291840191600101613ade565b50909695505050505050565b80358015158114613b1f57600080fd5b919050565b600080600080600060808688031215613b3c57600080fd5b8535613b4781613a15565b94506020860135935060408601356001600160401b03811115613b6957600080fd5b613b7588828901613a2a565b9094509250613b88905060608701613b0f565b90509295509295909350565b600060208284031215613ba657600080fd5b81356001600160401b0380821115613bbd57600080fd5b9083019060808286031215613bd157600080fd5b604051608081018181108382111715613bec57613bec6138ae565b6040528235613bfa81613a15565b808252506020830135602082015260408301356040820152606083013582811115613c2457600080fd5b613c3087828601613960565b60608301525095945050505050565b803560ff81168114613b1f57600080fd5b60008060008060008060a08789031215613c6957600080fd5b86359550613c7960208801613c3f565b9450604087013593506060870135925060808701356001600160401b03811115613ca257600080fd5b613cae89828a01613a2a565b979a9699509497509295939492505050565b60006001600160401b03821115613cd957613cd96138ae565b5060051b60200190565b600060408284031215613cf557600080fd5b613cfd6138c4565b905081356001600160401b03811115613d1557600080fd5b8201601f81018413613d2657600080fd5b80356020613d3b613d3683613cc0565b613930565b82815260059290921b83018101918181019087841115613d5a57600080fd5b938201935b83851015613d81578435613d7281613a15565b82529382019390820190613d5f565b85525093840135938301939093525092915050565b600081830360a0811215613da957600080fd5b613db16138ec565b91508235613dbe81613a15565b8252613dcc60208401613b0f565b602083015260408301356001600160401b0380821115613deb57600080fd5b613df786838701613960565b60408501526020605f1984011215613e0e57600080fd5b613e1661390e565b925060608501359150613e2882613a15565b8183528260608501526080850135925080831115613e4557600080fd5b5050613e5384828501613ce3565b60808301525092915050565b600060208284031215613e7157600080fd5b81356001600160401b03811115613e8757600080fd5b61201884828501613d96565b600060a08284031215613ea557600080fd5b50919050565b600060208284031215613ebd57600080fd5b81356001600160401b03811115613ed357600080fd5b61201884828501613e93565b60006040808352613ef281840186613860565b83810360208581019190915285518083528682019282019060005b81811015613f3a57613f2a83865180518252602090810151910152565b9383019391850191600101613f0d565b509098975050505050505050565b60008060008060608587031215613f5e57600080fd5b8435613f6981613a15565b93506020850135925060408501356001600160401b03811115613f8b57600080fd5b613f9787828801613a2a565b95989497509550505050565b600080600060608486031215613fb857600080fd5b83359250613fc860208501613c3f565b9150604084013590509250925092565b60008060408385031215613feb57600080fd5b823591506020830135613ffd81613a15565b809150509250929050565b6000806040838503121561401b57600080fd5b50508035926020909101359150565b60006020828403121561403c57600080fd5b813561330481613a15565b60018060a01b03851681528360208201528260408201526080606082015260006140746080830184613704565b9695505050505050565b6000602080838503121561409157600080fd5b82356001600160401b038111156140a757600080fd5b8301601f810185136140b857600080fd5b80356140c6613d3682613cc0565b81815260059190911b820183019083810190878311156140e557600080fd5b928401925b82841015614103578335825292840192908401906140ea565b979650505050505050565b60008060006040848603121561412357600080fd5b83356001600160401b038082111561413a57600080fd5b61414687838801613e93565b9450602086013591508082111561415c57600080fd5b50613ab586828701613a2a565b634e487b7160e01b600052602160045260246000fd5b602081016005831061419357614193614169565b91905290565b60208152600060018060a01b03808451166020840152602084015115156040840152604084015160a060608501526141d460c0850182613704565b90508160608601515116608085015260808501519150601f198482030160a0850152611aaa818361374a565b6000806020838503121561421357600080fd5b82356001600160401b0381111561422957600080fd5b61423585828601613a2a565b90969095509350505050565b600181811c9082168061425557607f821691505b602082108103613ea557634e487b7160e01b600052602260045260246000fd5b601f82111561144157600081815260208120601f850160051c8101602086101561429c5750805b601f850160051c820191505b818110156142bb578281556001016142a8565b505050505050565b81516001600160401b038111156142dc576142dc6138ae565b6142f0816142ea8454614241565b84614275565b602080601f831160018114614325576000841561430d5750858301515b600019600386901b1c1916600185901b1785556142bb565b600085815260208120601f198616915b8281101561435457888601518255948401946001909101908401614335565b50858210156143725787850151600019600388901b60f8161c191681555b5050505050600190811b01905550565b634e487b7160e01b600052601160045260246000fd5b808201808211156113d1576113d1614382565b60006113d13683613d96565b634e487b7160e01b600052603260045260246000fd5b6000600182016143df576143df614382565b5060010190565b818103818111156113d1576113d1614382565b6020808252825482820181905260008481528281209092916040850190845b81811015613b0357835483526001938401939285019201614418565b602081016002831061419357614193614169565b80820281158282048414176113d1576113d1614382565b60008261447c57634e487b7160e01b600052601260045260246000fd5b500490565b634e487b7160e01b600052603160045260246000fdfea26469706673582212204542e8389da7e513dbabe17e3685d7f8b36e8414b2c252693e060b1551b9aa3a64736f6c63430008130033","linkReferences":{}},"methodIdentifiers":{"AMOUNT_FOR_SUMBITTER_PROOF()":"347cf665","JK_LABS_ADDRESS()":"eef18e17","METADATAS_COUNT()":"4d24a67f","addressSubmitterVerified(address)":"cb853950","addressTotalCastVoteCounts(address)":"a1ac6cb2","addressTotalVotes(address)":"dea5f6a6","addressTotalVotesVerified(address)":"930de979","addressesThatHaveVoted(uint256)":"50c4b616","allProposalTotalVotes()":"50a5e524","cancel()":"ea8a1af0","canceled()":"3f9942ff","castVote(uint256,uint8,uint256,uint256,bytes32[])":"419c533c","castVoteWithoutProof(uint256,uint8,uint256)":"65f16263","checkProof(address,uint256,bytes32[],bool)":"32763c22","comment(uint256,string)":"1805c523","commentIds(uint256)":"f5c36411","commentIsDeleted(uint256)":"ae66b8ad","comments(uint256)":"8ebb4c15","contestAddressTotalVotesCast(address)":"aec116b6","contestDeadline()":"262e59e9","contestStart()":"004114a8","costToPropose()":"6ed815ad","creator()":"02d05d3f","deleteComments(uint256[])":"ac67f801","deleteProposals(uint256[])":"f0a7db0a","deletedCommentIds(uint256)":"3fb57c92","deletedProposalIds(uint256)":"05846cae","downvotingAllowed()":"60506ff6","forVotesToProposalIds(uint256,uint256)":"711effc8","getAllAddressesThatHaveVoted()":"2c39805f","getAllAuthorsOfDeletedProposals()":"cbdc27cb","getAllCommentIds()":"e11db9d8","getAllDeletedCommentIds()":"5cb718a1","getAllDeletedProposalIds()":"1242b737","getAllProposalAuthors()":"946369b5","getAllProposalIds()":"efa90d36","getComment(uint256)":"0800e300","getNumProposalsWithThisManyForVotes(uint256)":"9ba197af","getOnlyProposalIdWithThisManyForVotes(uint256)":"b66d1da3","getProposal(uint256)":"c7f758a8","getProposalComments(uint256)":"c05f4104","getProposalsWithThisManyForVotes(uint256)":"c9a1b6b2","getRankIndex(uint256)":"5c7107d8","getSortedRanks()":"6fd3636b","hashComment((address,uint256,uint256,string))":"409fd030","hashProposal((address,bool,string,(address),(address[],uint256)))":"458da87d","isOrIsBelowTiedRank(uint256)":"9174778c","maxProposalCount()":"fb9bf8d4","name()":"06fdde03","numAllowedProposalSubmissions()":"832009af","numSubmissions(address)":"75e509c5","officialRewardsModule()":"785ddfe5","percentageToCreator()":"edcd1be4","prompt()":"7c65d711","proposalAddressVotes(uint256,address)":"6e4eb810","proposalAddressesHaveVoted(uint256)":"b323580d","proposalAuthors(uint256)":"0aa25e44","proposalComments(uint256,uint256)":"f61736f4","proposalIds(uint256)":"9b644a23","proposalIsDeleted(uint256)":"f79c0172","proposalVotes(uint256)":"544ffc9c","proposalVotesStructs(uint256)":"070dc5d9","proposals(uint256)":"013cf08b","propose((address,bool,string,(address),(address[],uint256)),bytes32[])":"c0ffaa78","proposeWithoutProof((address,bool,string,(address),(address[],uint256)))":"476f4d8a","rankLimit()":"0414126a","setOfficialRewardsModule(address)":"f4f3d7ec","setSubmissionMerkleRoot(bytes32)":"daf762db","setVotingMerkleRoot(bytes32)":"544c7bb4","sortedRanks(uint256)":"325cc6d9","sortingEnabled()":"366ecf5b","state()":"c19d93fb","submissionMerkleRoot()":"bddc1641","totalVotesCast()":"7de418d5","validateProposalData((address,bool,string,(address),(address[],uint256)))":"fb8ddab4","verifyProposer(address,bytes32[])":"20b3e845","verifyVoter(address,uint256,bytes32[])":"531bd812","version()":"54fd4d50","voteStart()":"e031535b","votingDelay()":"3932abb1","votingMerkleRoot()":"dd96a19d","votingPeriod()":"02a251a3"},"id":28}