{"abi":[{"type":"constructor","inputs":[{"name":"_name","type":"string","internalType":"string"},{"name":"_prompt","type":"string","internalType":"string"},{"name":"_submissionMerkleRoot","type":"bytes32","internalType":"bytes32"},{"name":"_votingMerkleRoot","type":"bytes32","internalType":"bytes32"},{"name":"_constructorIntArgs","type":"tuple","internalType":"struct Governor.ConstructorIntArgs","components":[{"name":"contestStart","type":"uint256","internalType":"uint256"},{"name":"votingDelay","type":"uint256","internalType":"uint256"},{"name":"votingPeriod","type":"uint256","internalType":"uint256"},{"name":"numAllowedProposalSubmissions","type":"uint256","internalType":"uint256"},{"name":"maxProposalCount","type":"uint256","internalType":"uint256"},{"name":"downvotingAllowed","type":"uint256","internalType":"uint256"},{"name":"sortingEnabled","type":"uint256","internalType":"uint256"},{"name":"rankLimit","type":"uint256","internalType":"uint256"},{"name":"percentageToCreator","type":"uint256","internalType":"uint256"},{"name":"costToPropose","type":"uint256","internalType":"uint256"},{"name":"costToVote","type":"uint256","internalType":"uint256"}]}],"stateMutability":"nonpayable"},{"type":"function","name":"AMOUNT_FOR_SUMBITTER_PROOF","inputs":[],"outputs":[{"name":"","type":"uint256","internalType":"uint256"}],"stateMutability":"view"},{"type":"function","name":"JK_LABS_ADDRESS","inputs":[],"outputs":[{"name":"","type":"address","internalType":"address"}],"stateMutability":"view"},{"type":"function","name":"METADATAS_COUNT","inputs":[],"outputs":[{"name":"","type":"uint256","internalType":"uint256"}],"stateMutability":"view"},{"type":"function","name":"addressSubmitterVerified","inputs":[{"name":"","type":"address","internalType":"address"}],"outputs":[{"name":"","type":"bool","internalType":"bool"}],"stateMutability":"view"},{"type":"function","name":"addressTotalCastVoteCounts","inputs":[{"name":"","type":"address","internalType":"address"}],"outputs":[{"name":"","type":"uint256","internalType":"uint256"}],"stateMutability":"view"},{"type":"function","name":"addressTotalVotes","inputs":[{"name":"","type":"address","internalType":"address"}],"outputs":[{"name":"","type":"uint256","internalType":"uint256"}],"stateMutability":"view"},{"type":"function","name":"addressTotalVotesVerified","inputs":[{"name":"","type":"address","internalType":"address"}],"outputs":[{"name":"","type":"bool","internalType":"bool"}],"stateMutability":"view"},{"type":"function","name":"addressesThatHaveVoted","inputs":[{"name":"","type":"uint256","internalType":"uint256"}],"outputs":[{"name":"","type":"address","internalType":"address"}],"stateMutability":"view"},{"type":"function","name":"allProposalTotalVotes","inputs":[],"outputs":[{"name":"proposalIdsReturn","type":"uint256[]","internalType":"uint256[]"},{"name":"proposalVoteCountsArrayReturn","type":"tuple[]","internalType":"struct GovernorCountingSimple.VoteCounts[]","components":[{"name":"forVotes","type":"uint256","internalType":"uint256"},{"name":"againstVotes","type":"uint256","internalType":"uint256"}]}],"stateMutability":"view"},{"type":"function","name":"cancel","inputs":[],"outputs":[],"stateMutability":"nonpayable"},{"type":"function","name":"canceled","inputs":[],"outputs":[{"name":"","type":"bool","internalType":"bool"}],"stateMutability":"view"},{"type":"function","name":"castVote","inputs":[{"name":"proposalId","type":"uint256","internalType":"uint256"},{"name":"support","type":"uint8","internalType":"uint8"},{"name":"totalVotes","type":"uint256","internalType":"uint256"},{"name":"numVotes","type":"uint256","internalType":"uint256"},{"name":"proof","type":"bytes32[]","internalType":"bytes32[]"}],"outputs":[{"name":"","type":"uint256","internalType":"uint256"}],"stateMutability":"payable"},{"type":"function","name":"castVoteWithoutProof","inputs":[{"name":"proposalId","type":"uint256","internalType":"uint256"},{"name":"support","type":"uint8","internalType":"uint8"},{"name":"numVotes","type":"uint256","internalType":"uint256"}],"outputs":[{"name":"","type":"uint256","internalType":"uint256"}],"stateMutability":"payable"},{"type":"function","name":"checkProof","inputs":[{"name":"addressToCheck","type":"address","internalType":"address"},{"name":"amount","type":"uint256","internalType":"uint256"},{"name":"proof","type":"bytes32[]","internalType":"bytes32[]"},{"name":"voting","type":"bool","internalType":"bool"}],"outputs":[{"name":"verified","type":"bool","internalType":"bool"}],"stateMutability":"view"},{"type":"function","name":"comment","inputs":[{"name":"proposalId","type":"uint256","internalType":"uint256"},{"name":"commentContent","type":"string","internalType":"string"}],"outputs":[{"name":"","type":"uint256","internalType":"uint256"}],"stateMutability":"nonpayable"},{"type":"function","name":"commentIds","inputs":[{"name":"","type":"uint256","internalType":"uint256"}],"outputs":[{"name":"","type":"uint256","internalType":"uint256"}],"stateMutability":"view"},{"type":"function","name":"commentIsDeleted","inputs":[{"name":"","type":"uint256","internalType":"uint256"}],"outputs":[{"name":"","type":"bool","internalType":"bool"}],"stateMutability":"view"},{"type":"function","name":"comments","inputs":[{"name":"","type":"uint256","internalType":"uint256"}],"outputs":[{"name":"author","type":"address","internalType":"address"},{"name":"timestamp","type":"uint256","internalType":"uint256"},{"name":"proposalId","type":"uint256","internalType":"uint256"},{"name":"commentContent","type":"string","internalType":"string"}],"stateMutability":"view"},{"type":"function","name":"contestAddressTotalVotesCast","inputs":[{"name":"userAddress","type":"address","internalType":"address"}],"outputs":[{"name":"userTotalVotesCast","type":"uint256","internalType":"uint256"}],"stateMutability":"view"},{"type":"function","name":"contestDeadline","inputs":[],"outputs":[{"name":"","type":"uint256","internalType":"uint256"}],"stateMutability":"view"},{"type":"function","name":"contestStart","inputs":[],"outputs":[{"name":"","type":"uint256","internalType":"uint256"}],"stateMutability":"view"},{"type":"function","name":"costToPropose","inputs":[],"outputs":[{"name":"","type":"uint256","internalType":"uint256"}],"stateMutability":"view"},{"type":"function","name":"costToVote","inputs":[],"outputs":[{"name":"","type":"uint256","internalType":"uint256"}],"stateMutability":"view"},{"type":"function","name":"creator","inputs":[],"outputs":[{"name":"","type":"address","internalType":"address"}],"stateMutability":"view"},{"type":"function","name":"deleteComments","inputs":[{"name":"commentIdsParam","type":"uint256[]","internalType":"uint256[]"}],"outputs":[],"stateMutability":"nonpayable"},{"type":"function","name":"deleteProposals","inputs":[{"name":"proposalIdsToDelete","type":"uint256[]","internalType":"uint256[]"}],"outputs":[],"stateMutability":"nonpayable"},{"type":"function","name":"deletedCommentIds","inputs":[{"name":"","type":"uint256","internalType":"uint256"}],"outputs":[{"name":"","type":"uint256","internalType":"uint256"}],"stateMutability":"view"},{"type":"function","name":"deletedProposalIds","inputs":[{"name":"","type":"uint256","internalType":"uint256"}],"outputs":[{"name":"","type":"uint256","internalType":"uint256"}],"stateMutability":"view"},{"type":"function","name":"downvotingAllowed","inputs":[],"outputs":[{"name":"","type":"uint256","internalType":"uint256"}],"stateMutability":"view"},{"type":"function","name":"forVotesToProposalIds","inputs":[{"name":"","type":"uint256","internalType":"uint256"},{"name":"","type":"uint256","internalType":"uint256"}],"outputs":[{"name":"","type":"uint256","internalType":"uint256"}],"stateMutability":"view"},{"type":"function","name":"getAllAddressesThatHaveVoted","inputs":[],"outputs":[{"name":"","type":"address[]","internalType":"address[]"}],"stateMutability":"view"},{"type":"function","name":"getAllAuthorsOfDeletedProposals","inputs":[],"outputs":[{"name":"","type":"address[]","internalType":"address[]"}],"stateMutability":"view"},{"type":"function","name":"getAllCommentIds","inputs":[],"outputs":[{"name":"","type":"uint256[]","internalType":"uint256[]"}],"stateMutability":"view"},{"type":"function","name":"getAllDeletedCommentIds","inputs":[],"outputs":[{"name":"","type":"uint256[]","internalType":"uint256[]"}],"stateMutability":"view"},{"type":"function","name":"getAllDeletedProposalIds","inputs":[],"outputs":[{"name":"","type":"uint256[]","internalType":"uint256[]"}],"stateMutability":"view"},{"type":"function","name":"getAllProposalAuthors","inputs":[],"outputs":[{"name":"","type":"address[]","internalType":"address[]"}],"stateMutability":"view"},{"type":"function","name":"getAllProposalIds","inputs":[],"outputs":[{"name":"","type":"uint256[]","internalType":"uint256[]"}],"stateMutability":"view"},{"type":"function","name":"getComment","inputs":[{"name":"commentId","type":"uint256","internalType":"uint256"}],"outputs":[{"name":"","type":"tuple","internalType":"struct GovernorEngagement.CommentCore","components":[{"name":"author","type":"address","internalType":"address"},{"name":"timestamp","type":"uint256","internalType":"uint256"},{"name":"proposalId","type":"uint256","internalType":"uint256"},{"name":"commentContent","type":"string","internalType":"string"}]}],"stateMutability":"view"},{"type":"function","name":"getNumProposalsWithThisManyForVotes","inputs":[{"name":"forVotes","type":"uint256","internalType":"uint256"}],"outputs":[{"name":"count","type":"uint256","internalType":"uint256"}],"stateMutability":"view"},{"type":"function","name":"getOnlyProposalIdWithThisManyForVotes","inputs":[{"name":"forVotes","type":"uint256","internalType":"uint256"}],"outputs":[{"name":"proposalId","type":"uint256","internalType":"uint256"}],"stateMutability":"view"},{"type":"function","name":"getProposal","inputs":[{"name":"proposalId","type":"uint256","internalType":"uint256"}],"outputs":[{"name":"","type":"tuple","internalType":"struct Governor.ProposalCore","components":[{"name":"author","type":"address","internalType":"address"},{"name":"exists","type":"bool","internalType":"bool"},{"name":"description","type":"string","internalType":"string"},{"name":"targetMetadata","type":"tuple","internalType":"struct Governor.TargetMetadata","components":[{"name":"targetAddress","type":"address","internalType":"address"}]},{"name":"safeMetadata","type":"tuple","internalType":"struct Governor.SafeMetadata","components":[{"name":"signers","type":"address[]","internalType":"address[]"},{"name":"threshold","type":"uint256","internalType":"uint256"}]}]}],"stateMutability":"view"},{"type":"function","name":"getProposalComments","inputs":[{"name":"proposalId","type":"uint256","internalType":"uint256"}],"outputs":[{"name":"","type":"uint256[]","internalType":"uint256[]"}],"stateMutability":"view"},{"type":"function","name":"getProposalsWithThisManyForVotes","inputs":[{"name":"forVotes","type":"uint256","internalType":"uint256"}],"outputs":[{"name":"proposalsWithThisManyForVotes","type":"uint256[]","internalType":"uint256[]"}],"stateMutability":"view"},{"type":"function","name":"getRankIndex","inputs":[{"name":"rank","type":"uint256","internalType":"uint256"}],"outputs":[{"name":"rankIndex","type":"uint256","internalType":"uint256"}],"stateMutability":"view"},{"type":"function","name":"getSortedRanks","inputs":[],"outputs":[{"name":"sortedRanksArray","type":"uint256[]","internalType":"uint256[]"}],"stateMutability":"view"},{"type":"function","name":"hashComment","inputs":[{"name":"commentObj","type":"tuple","internalType":"struct GovernorEngagement.CommentCore","components":[{"name":"author","type":"address","internalType":"address"},{"name":"timestamp","type":"uint256","internalType":"uint256"},{"name":"proposalId","type":"uint256","internalType":"uint256"},{"name":"commentContent","type":"string","internalType":"string"}]}],"outputs":[{"name":"","type":"uint256","internalType":"uint256"}],"stateMutability":"pure"},{"type":"function","name":"hashProposal","inputs":[{"name":"proposal","type":"tuple","internalType":"struct Governor.ProposalCore","components":[{"name":"author","type":"address","internalType":"address"},{"name":"exists","type":"bool","internalType":"bool"},{"name":"description","type":"string","internalType":"string"},{"name":"targetMetadata","type":"tuple","internalType":"struct Governor.TargetMetadata","components":[{"name":"targetAddress","type":"address","internalType":"address"}]},{"name":"safeMetadata","type":"tuple","internalType":"struct Governor.SafeMetadata","components":[{"name":"signers","type":"address[]","internalType":"address[]"},{"name":"threshold","type":"uint256","internalType":"uint256"}]}]}],"outputs":[{"name":"","type":"uint256","internalType":"uint256"}],"stateMutability":"pure"},{"type":"function","name":"isOrIsBelowTiedRank","inputs":[{"name":"idx","type":"uint256","internalType":"uint256"}],"outputs":[{"name":"atOrBelowTiedRank","type":"bool","internalType":"bool"}],"stateMutability":"view"},{"type":"function","name":"maxProposalCount","inputs":[],"outputs":[{"name":"","type":"uint256","internalType":"uint256"}],"stateMutability":"view"},{"type":"function","name":"name","inputs":[],"outputs":[{"name":"","type":"string","internalType":"string"}],"stateMutability":"view"},{"type":"function","name":"numAllowedProposalSubmissions","inputs":[],"outputs":[{"name":"","type":"uint256","internalType":"uint256"}],"stateMutability":"view"},{"type":"function","name":"numSubmissions","inputs":[{"name":"","type":"address","internalType":"address"}],"outputs":[{"name":"","type":"uint256","internalType":"uint256"}],"stateMutability":"view"},{"type":"function","name":"officialRewardsModule","inputs":[],"outputs":[{"name":"","type":"address","internalType":"contract RewardsModule"}],"stateMutability":"view"},{"type":"function","name":"percentageToCreator","inputs":[],"outputs":[{"name":"","type":"uint256","internalType":"uint256"}],"stateMutability":"view"},{"type":"function","name":"prompt","inputs":[],"outputs":[{"name":"","type":"string","internalType":"string"}],"stateMutability":"view"},{"type":"function","name":"proposalAddressVotes","inputs":[{"name":"proposalId","type":"uint256","internalType":"uint256"},{"name":"userAddress","type":"address","internalType":"address"}],"outputs":[{"name":"forVotes","type":"uint256","internalType":"uint256"},{"name":"againstVotes","type":"uint256","internalType":"uint256"}],"stateMutability":"view"},{"type":"function","name":"proposalAddressesHaveVoted","inputs":[{"name":"proposalId","type":"uint256","internalType":"uint256"}],"outputs":[{"name":"","type":"address[]","internalType":"address[]"}],"stateMutability":"view"},{"type":"function","name":"proposalAuthors","inputs":[{"name":"","type":"uint256","internalType":"uint256"}],"outputs":[{"name":"","type":"address","internalType":"address"}],"stateMutability":"view"},{"type":"function","name":"proposalComments","inputs":[{"name":"","type":"uint256","internalType":"uint256"},{"name":"","type":"uint256","internalType":"uint256"}],"outputs":[{"name":"","type":"uint256","internalType":"uint256"}],"stateMutability":"view"},{"type":"function","name":"proposalIds","inputs":[{"name":"","type":"uint256","internalType":"uint256"}],"outputs":[{"name":"","type":"uint256","internalType":"uint256"}],"stateMutability":"view"},{"type":"function","name":"proposalIsDeleted","inputs":[{"name":"","type":"uint256","internalType":"uint256"}],"outputs":[{"name":"","type":"bool","internalType":"bool"}],"stateMutability":"view"},{"type":"function","name":"proposalVotes","inputs":[{"name":"proposalId","type":"uint256","internalType":"uint256"}],"outputs":[{"name":"forVotes","type":"uint256","internalType":"uint256"},{"name":"againstVotes","type":"uint256","internalType":"uint256"}],"stateMutability":"view"},{"type":"function","name":"proposalVotesStructs","inputs":[{"name":"","type":"uint256","internalType":"uint256"}],"outputs":[{"name":"proposalVoteCounts","type":"tuple","internalType":"struct GovernorCountingSimple.VoteCounts","components":[{"name":"forVotes","type":"uint256","internalType":"uint256"},{"name":"againstVotes","type":"uint256","internalType":"uint256"}]}],"stateMutability":"view"},{"type":"function","name":"proposals","inputs":[{"name":"","type":"uint256","internalType":"uint256"}],"outputs":[{"name":"author","type":"address","internalType":"address"},{"name":"exists","type":"bool","internalType":"bool"},{"name":"description","type":"string","internalType":"string"},{"name":"targetMetadata","type":"tuple","internalType":"struct Governor.TargetMetadata","components":[{"name":"targetAddress","type":"address","internalType":"address"}]},{"name":"safeMetadata","type":"tuple","internalType":"struct Governor.SafeMetadata","components":[{"name":"signers","type":"address[]","internalType":"address[]"},{"name":"threshold","type":"uint256","internalType":"uint256"}]}],"stateMutability":"view"},{"type":"function","name":"propose","inputs":[{"name":"proposal","type":"tuple","internalType":"struct Governor.ProposalCore","components":[{"name":"author","type":"address","internalType":"address"},{"name":"exists","type":"bool","internalType":"bool"},{"name":"description","type":"string","internalType":"string"},{"name":"targetMetadata","type":"tuple","internalType":"struct Governor.TargetMetadata","components":[{"name":"targetAddress","type":"address","internalType":"address"}]},{"name":"safeMetadata","type":"tuple","internalType":"struct Governor.SafeMetadata","components":[{"name":"signers","type":"address[]","internalType":"address[]"},{"name":"threshold","type":"uint256","internalType":"uint256"}]}]},{"name":"proof","type":"bytes32[]","internalType":"bytes32[]"}],"outputs":[{"name":"","type":"uint256","internalType":"uint256"}],"stateMutability":"payable"},{"type":"function","name":"proposeWithoutProof","inputs":[{"name":"proposal","type":"tuple","internalType":"struct Governor.ProposalCore","components":[{"name":"author","type":"address","internalType":"address"},{"name":"exists","type":"bool","internalType":"bool"},{"name":"description","type":"string","internalType":"string"},{"name":"targetMetadata","type":"tuple","internalType":"struct Governor.TargetMetadata","components":[{"name":"targetAddress","type":"address","internalType":"address"}]},{"name":"safeMetadata","type":"tuple","internalType":"struct Governor.SafeMetadata","components":[{"name":"signers","type":"address[]","internalType":"address[]"},{"name":"threshold","type":"uint256","internalType":"uint256"}]}]}],"outputs":[{"name":"","type":"uint256","internalType":"uint256"}],"stateMutability":"payable"},{"type":"function","name":"rankLimit","inputs":[],"outputs":[{"name":"","type":"uint256","internalType":"uint256"}],"stateMutability":"view"},{"type":"function","name":"setOfficialRewardsModule","inputs":[{"name":"officialRewardsModule_","type":"address","internalType":"contract RewardsModule"}],"outputs":[],"stateMutability":"nonpayable"},{"type":"function","name":"setSubmissionMerkleRoot","inputs":[{"name":"newSubmissionMerkleRoot","type":"bytes32","internalType":"bytes32"}],"outputs":[],"stateMutability":"nonpayable"},{"type":"function","name":"setVotingMerkleRoot","inputs":[{"name":"newVotingMerkleRoot","type":"bytes32","internalType":"bytes32"}],"outputs":[],"stateMutability":"nonpayable"},{"type":"function","name":"sortedRanks","inputs":[{"name":"","type":"uint256","internalType":"uint256"}],"outputs":[{"name":"","type":"uint256","internalType":"uint256"}],"stateMutability":"view"},{"type":"function","name":"sortingEnabled","inputs":[],"outputs":[{"name":"","type":"uint256","internalType":"uint256"}],"stateMutability":"view"},{"type":"function","name":"state","inputs":[],"outputs":[{"name":"","type":"uint8","internalType":"enum Governor.ContestState"}],"stateMutability":"view"},{"type":"function","name":"submissionMerkleRoot","inputs":[],"outputs":[{"name":"","type":"bytes32","internalType":"bytes32"}],"stateMutability":"view"},{"type":"function","name":"totalVotesCast","inputs":[],"outputs":[{"name":"","type":"uint256","internalType":"uint256"}],"stateMutability":"view"},{"type":"function","name":"validateProposalData","inputs":[{"name":"proposal","type":"tuple","internalType":"struct Governor.ProposalCore","components":[{"name":"author","type":"address","internalType":"address"},{"name":"exists","type":"bool","internalType":"bool"},{"name":"description","type":"string","internalType":"string"},{"name":"targetMetadata","type":"tuple","internalType":"struct Governor.TargetMetadata","components":[{"name":"targetAddress","type":"address","internalType":"address"}]},{"name":"safeMetadata","type":"tuple","internalType":"struct Governor.SafeMetadata","components":[{"name":"signers","type":"address[]","internalType":"address[]"},{"name":"threshold","type":"uint256","internalType":"uint256"}]}]}],"outputs":[],"stateMutability":"view"},{"type":"function","name":"verifyProposer","inputs":[{"name":"account","type":"address","internalType":"address"},{"name":"proof","type":"bytes32[]","internalType":"bytes32[]"}],"outputs":[],"stateMutability":"nonpayable"},{"type":"function","name":"verifyVoter","inputs":[{"name":"account","type":"address","internalType":"address"},{"name":"totalVotes","type":"uint256","internalType":"uint256"},{"name":"proof","type":"bytes32[]","internalType":"bytes32[]"}],"outputs":[],"stateMutability":"nonpayable"},{"type":"function","name":"version","inputs":[],"outputs":[{"name":"","type":"string","internalType":"string"}],"stateMutability":"pure"},{"type":"function","name":"voteStart","inputs":[],"outputs":[{"name":"","type":"uint256","internalType":"uint256"}],"stateMutability":"view"},{"type":"function","name":"votingDelay","inputs":[],"outputs":[{"name":"","type":"uint256","internalType":"uint256"}],"stateMutability":"view"},{"type":"function","name":"votingMerkleRoot","inputs":[],"outputs":[{"name":"","type":"bytes32","internalType":"bytes32"}],"stateMutability":"view"},{"type":"function","name":"votingPeriod","inputs":[],"outputs":[{"name":"","type":"uint256","internalType":"uint256"}],"stateMutability":"view"},{"type":"event","name":"CommentCreated","inputs":[{"name":"commentId","type":"uint256","indexed":false,"internalType":"uint256"}],"anonymous":false},{"type":"event","name":"CommentsDeleted","inputs":[{"name":"commentIds","type":"uint256[]","indexed":false,"internalType":"uint256[]"}],"anonymous":false},{"type":"event","name":"ContestCanceled","inputs":[],"anonymous":false},{"type":"event","name":"JokeraceCreated","inputs":[{"name":"version","type":"string","indexed":false,"internalType":"string"},{"name":"name","type":"string","indexed":false,"internalType":"string"},{"name":"prompt","type":"string","indexed":false,"internalType":"string"},{"name":"creator","type":"address","indexed":false,"internalType":"address"},{"name":"contestStart","type":"uint256","indexed":false,"internalType":"uint256"},{"name":"votingDelay","type":"uint256","indexed":false,"internalType":"uint256"},{"name":"votingPeriod","type":"uint256","indexed":false,"internalType":"uint256"}],"anonymous":false},{"type":"event","name":"OfficialRewardsModuleSet","inputs":[{"name":"oldOfficialRewardsModule","type":"address","indexed":false,"internalType":"contract RewardsModule"},{"name":"newOfficialRewardsModule","type":"address","indexed":false,"internalType":"contract RewardsModule"}],"anonymous":false},{"type":"event","name":"PaymentReleased","inputs":[{"name":"to","type":"address","indexed":false,"internalType":"address"},{"name":"amount","type":"uint256","indexed":false,"internalType":"uint256"}],"anonymous":false},{"type":"event","name":"ProposalCreated","inputs":[{"name":"proposalId","type":"uint256","indexed":false,"internalType":"uint256"},{"name":"proposer","type":"address","indexed":false,"internalType":"address"},{"name":"proposalDescription","type":"string","indexed":false,"internalType":"string"}],"anonymous":false},{"type":"event","name":"ProposalsDeleted","inputs":[{"name":"proposalIds","type":"uint256[]","indexed":false,"internalType":"uint256[]"}],"anonymous":false},{"type":"event","name":"VoteCast","inputs":[{"name":"voter","type":"address","indexed":true,"internalType":"address"},{"name":"proposalId","type":"uint256","indexed":false,"internalType":"uint256"},{"name":"support","type":"uint8","indexed":false,"internalType":"uint8"},{"name":"numVotes","type":"uint256","indexed":false,"internalType":"uint256"}],"anonymous":false},{"type":"error","name":"AddressNotPermissionedToSubmit","inputs":[]},{"type":"error","name":"AuthorIsNotSender","inputs":[{"name":"author","type":"address","internalType":"address"},{"name":"sender","type":"address","internalType":"address"}]},{"type":"error","name":"CannotDeleteWhenCompleted","inputs":[]},{"type":"error","name":"CannotVoteOnDeletedProposal","inputs":[]},{"type":"error","name":"ContestAlreadyCancelled","inputs":[]},{"type":"error","name":"ContestMustBeActiveToVote","inputs":[{"name":"currentState","type":"uint8","internalType":"enum Governor.ContestState"}]},{"type":"error","name":"ContestMustBeQueuedToPropose","inputs":[{"name":"currentState","type":"uint8","internalType":"enum Governor.ContestState"}]},{"type":"error","name":"ContestSubmissionLimitReached","inputs":[{"name":"maxProposalCount","type":"uint256","internalType":"uint256"}]},{"type":"error","name":"DownvotingNotEnabled","inputs":[]},{"type":"error","name":"DuplicateSubmission","inputs":[{"name":"proposalId","type":"uint256","internalType":"uint256"}]},{"type":"error","name":"EmptyProposalDescription","inputs":[]},{"type":"error","name":"IncorrectCostSent","inputs":[{"name":"msgValue","type":"uint256","internalType":"uint256"},{"name":"costToVote","type":"uint256","internalType":"uint256"}]},{"type":"error","name":"IndexHasNotBeenPopulated","inputs":[]},{"type":"error","name":"InvalidVoteType","inputs":[]},{"type":"error","name":"MoreThanOneProposalWithThisManyVotes","inputs":[]},{"type":"error","name":"NeedAtLeastOneVoteToVote","inputs":[]},{"type":"error","name":"NeedToSubmitWithProofFirst","inputs":[]},{"type":"error","name":"NeedToVoteWithProofFirst","inputs":[]},{"type":"error","name":"NotEnoughVotesLeft","inputs":[]},{"type":"error","name":"NotInMerkle","inputs":[]},{"type":"error","name":"OnlyCreatorCanDelete","inputs":[]},{"type":"error","name":"OnlyCreatorCanSetRewardsModule","inputs":[]},{"type":"error","name":"OnlyCreatorOrAuthorCanDeleteComments","inputs":[{"name":"failedToDeleteCommentId","type":"uint256","internalType":"uint256"}]},{"type":"error","name":"OnlyJkLabsCanAmend","inputs":[]},{"type":"error","name":"OnlyJkLabsOrCreatorCanCancel","inputs":[]},{"type":"error","name":"RankCannotBeZero","inputs":[]},{"type":"error","name":"RankIsNotInSortedRanks","inputs":[]},{"type":"error","name":"SenderSubmissionLimitReached","inputs":[{"name":"numAllowedProposalSubmissions","type":"uint256","internalType":"uint256"}]},{"type":"error","name":"UnexpectedMetadata","inputs":[{"name":"unexpectedMetadata","type":"uint8","internalType":"enum Governor.Metadatas"}]},{"type":"error","name":"ZeroSignersInSafeMetadata","inputs":[]},{"type":"error","name":"ZeroThresholdInSafeMetadata","inputs":[]}],"bytecode":{"object":"0x60806040523480156200001157600080fd5b5060405162004aba38038062004aba83398101604081905262000034916200023f565b60c081015160e08201516000919091556001556003839055600482905584848484846005620000648682620003e9565b506006620000738582620003e9565b50600780546001600160a01b0319163390811790915581516008556020808301805160095560408085018051600a556060860151600b556080860151600c5560a0860151600d55610100860151600e55610120860151600f556101408601516010558151808301835260048152630d0b8c8d60e21b9481019490945285519251905191517f9a9bca21e4e51607db64fbdbcd7b2284a909c6a8969821f0d161efbdcae70160956200012e95948c948c949293919291620004e3565b60405180910390a15050505050505050505062000552565b634e487b7160e01b600052604160045260246000fd5b60405161016081016001600160401b038111828210171562000182576200018262000146565b60405290565b60005b83811015620001a55781810151838201526020016200018b565b50506000910152565b600082601f830112620001c057600080fd5b81516001600160401b0380821115620001dd57620001dd62000146565b604051601f8301601f19908116603f0116810190828211818310171562000208576200020862000146565b816040528381528660208588010111156200022257600080fd5b6200023584602083016020890162000188565b9695505050505050565b60008060008060008587036101e08112156200025a57600080fd5b86516001600160401b03808211156200027257600080fd5b620002808a838b01620001ae565b975060208901519150808211156200029757600080fd5b50620002a689828a01620001ae565b955050604087015193506060870151925061016080607f1983011215620002cc57600080fd5b620002d66200015c565b91506080880151825260a0880151602083015260c0880151604083015260e08801516060830152610100808901516080840152610120808a015160a0850152610140808b015160c0860152838b015160e08601526101808b0151838601526101a08b0151828601526101c08b01518186015250505050809150509295509295909350565b600181811c908216806200036f57607f821691505b6020821081036200039057634e487b7160e01b600052602260045260246000fd5b50919050565b601f821115620003e457600081815260208120601f850160051c81016020861015620003bf5750805b601f850160051c820191505b81811015620003e057828155600101620003cb565b5050505b505050565b81516001600160401b0381111562000405576200040562000146565b6200041d816200041684546200035a565b8462000396565b602080601f8311600181146200045557600084156200043c5750858301515b600019600386901b1c1916600185901b178555620003e0565b600085815260208120601f198616915b82811015620004865788860151825594840194600190910190840162000465565b5085821015620004a55787850151600019600388901b60f8161c191681555b5050505050600190811b01905550565b60008151808452620004cf81602086016020860162000188565b601f01601f19169290920160200192915050565b60e081526000620004f860e083018a620004b5565b82810360208401526200050c818a620004b5565b90508281036040840152620005228189620004b5565b6001600160a01b039790971660608401525050608081019390935260a083019190915260c0909101529392505050565b61455880620005626000396000f3fe6080604052600436106104935760003560e01c8063711effc811610260578063c19d93fb11610144578063ea8a1af0116100c1578063f4f3d7ec11610085578063f4f3d7ec14610e6c578063f5c3641114610e8c578063f61736f414610eac578063f79c017214610ecc578063fb8ddab414610efc578063fb9bf8d414610f1c57600080fd5b8063ea8a1af014610de4578063edcd1be414610df9578063eef18e1714610e0f578063efa90d3614610e37578063f0a7db0a14610e4c57600080fd5b8063daf762db11610108578063daf762db14610d57578063dd96a19d14610d77578063dea5f6a614610d8d578063e031535b14610dba578063e11db9d814610dcf57600080fd5b8063c19d93fb14610ca3578063c7f758a814610cc5578063c9a1b6b214610cf2578063cb85395014610d12578063cbdc27cb14610d4257600080fd5b80639b644a23116101dd578063aec116b6116101a1578063aec116b614610be4578063b323580d14610c1a578063b66d1da314610c3a578063bddc164114610c5a578063c05f410414610c70578063c0ffaa7814610c9057600080fd5b80639b644a2314610b1a5780639ba197af14610b3a578063a1ac6cb214610b67578063ac67f80114610b94578063ae66b8ad14610bb457600080fd5b8063832009af11610224578063832009af14610a6f5780638ebb4c1514610a855780639174778c14610ab5578063930de97914610ad5578063946369b514610b0557600080fd5b8063711effc8146109d757806375e509c5146109f7578063785ddfe514610a245780637c65d71114610a445780637de418d514610a5957600080fd5b80633f9942ff11610387578063531bd812116103045780635cb718a1116102c85780635cb718a11461094e57806360506ff61461096357806365f16263146109795780636e4eb8101461098c5780636ed815ad146109ac5780636fd3636b146109c257600080fd5b8063531bd81214610877578063544c7bb414610897578063544ffc9c146108b757806354fd4d50146109015780635c7107d81461092e57600080fd5b8063476f4d8a1161034b578063476f4d8a146107f65780634d24a67f1461080957806350a5e5241461081e57806350c4b6161461084157806351a41dec1461086157600080fd5b80633f9942ff146107695780633fb57c9214610783578063409fd030146107a3578063419c533c146107c3578063458da87d146107d657600080fd5b80631242b73711610415578063325cc6d9116103d9578063325cc6d9146106d157806332763c22146106f1578063347cf66514610721578063366ecf5b1461073d5780633932abb11461075357600080fd5b80631242b737146106365780631805c5231461065857806320b3e84514610678578063262e59e91461069a5780632c39805f146106af57600080fd5b806305846cae1161045c57806305846cae1461055657806306fdde0314610576578063070dc5d9146105985780630800e300146105e95780630aa25e441461061657600080fd5b80624114a814610498578063013cf08b146104c157806302a251a3146104f257806302d05d3f146105085780630414126a14610540575b600080fd5b3480156104a457600080fd5b506104ae60085481565b6040519081526020015b60405180910390f35b3480156104cd57600080fd5b506104e16104dc36600461375b565b610f32565b6040516104b8959493929190613813565b3480156104fe57600080fd5b506104ae600a5481565b34801561051457600080fd5b50600754610528906001600160a01b031681565b6040516001600160a01b0390911681526020016104b8565b34801561054c57600080fd5b506104ae60015481565b34801561056257600080fd5b506104ae61057136600461375b565b61107a565b34801561058257600080fd5b5061058b61109b565b6040516104b89190613858565b3480156105a457600080fd5b506105dc6105b336600461375b565b601e60209081526000918252604091829020825180840190935280548352600101549082015281565b6040516104b8919061386b565b3480156105f557600080fd5b5061060961060436600461375b565b611129565b6040516104b89190613882565b34801561062257600080fd5b5061052861063136600461375b565b61123d565b34801561064257600080fd5b5061064b611267565b6040516104b89190613906565b34801561066457600080fd5b506104ae610673366004613a3a565b6112bf565b34801561068457600080fd5b50610698610693366004613ad9565b6113e0565b005b3480156106a657600080fd5b506104ae61144f565b3480156106bb57600080fd5b506106c461146b565b6040516104b89190613b2d565b3480156106dd57600080fd5b506104ae6106ec36600461375b565b6114cc565b3480156106fd57600080fd5b5061071161070c366004613b8f565b6114dc565b60405190151581526020016104b8565b34801561072d57600080fd5b506104ae678ac7230489e8000081565b34801561074957600080fd5b506104ae60005481565b34801561075f57600080fd5b506104ae60095481565b34801561077557600080fd5b506014546107119060ff1681565b34801561078f57600080fd5b506104ae61079e36600461375b565b6115db565b3480156107af57600080fd5b506104ae6107be366004613bff565b6115eb565b6104ae6107d1366004613cbb565b61161c565b3480156107e257600080fd5b506104ae6107f1366004613eca565b61168c565b6104ae610804366004613f16565b61169f565b34801561081557600080fd5b506104ae611718565b34801561082a57600080fd5b50610833611726565b6040516104b8929190613f4a565b34801561084d57600080fd5b5061052861085c36600461375b565b61182c565b34801561086d57600080fd5b506104ae60105481565b34801561088357600080fd5b50610698610892366004613fb3565b61183c565b3480156108a357600080fd5b506106986108b236600461375b565b6118a2565b3480156108c357600080fd5b506108ec6108d236600461375b565b6000908152601e6020526040902080546001909101549091565b604080519283526020830191909152016104b8565b34801561090d57600080fd5b506040805180820190915260048152630d0b8c8d60e21b602082015261058b565b34801561093a57600080fd5b506104ae61094936600461375b565b6118db565b34801561095a57600080fd5b5061064b6119e2565b34801561096f57600080fd5b506104ae600d5481565b6104ae61098736600461400e565b611a38565b34801561099857600080fd5b506108ec6109a7366004614043565b611ad2565b3480156109b857600080fd5b506104ae600f5481565b3480156109ce57600080fd5b5061064b611b07565b3480156109e357600080fd5b506104ae6109f2366004614073565b611b5d565b348015610a0357600080fd5b506104ae610a12366004614095565b60166020526000908152604090205481565b348015610a3057600080fd5b50602054610528906001600160a01b031681565b348015610a5057600080fd5b5061058b611b8e565b348015610a6557600080fd5b506104ae601c5481565b348015610a7b57600080fd5b506104ae600b5481565b348015610a9157600080fd5b50610aa5610aa036600461375b565b611b9b565b6040516104b894939291906140b2565b348015610ac157600080fd5b50610711610ad036600461375b565b611c58565b348015610ae157600080fd5b50610711610af0366004614095565b601a6020526000908152604090205460ff1681565b348015610b1157600080fd5b506106c4611cfe565b348015610b2657600080fd5b506104ae610b3536600461375b565b611d5e565b348015610b4657600080fd5b506104ae610b5536600461375b565b6000908152601f602052604090205490565b348015610b7357600080fd5b506104ae610b82366004614095565b601d6020526000908152604090205481565b348015610ba057600080fd5b50610698610baf3660046140df565b611d6e565b348015610bc057600080fd5b50610711610bcf36600461375b565b60256020526000908152604090205460ff1681565b348015610bf057600080fd5b506104ae610bff366004614095565b6001600160a01b03166000908152601d602052604090205490565b348015610c2657600080fd5b506106c4610c3536600461375b565b611ea8565b348015610c4657600080fd5b506104ae610c5536600461375b565b611f1a565b348015610c6657600080fd5b506104ae60035481565b348015610c7c57600080fd5b5061064b610c8b36600461375b565b611f7a565b6104ae610c9e36600461416f565b611fdc565b348015610caf57600080fd5b50610cb8612024565b6040516104b891906141e0565b348015610cd157600080fd5b50610ce5610ce036600461375b565b612075565b6040516104b891906141fa565b348015610cfe57600080fd5b5061064b610d0d36600461375b565b6121ef565b348015610d1e57600080fd5b50610711610d2d366004614095565b601b6020526000908152604090205460ff1681565b348015610d4e57600080fd5b506106c461224f565b348015610d6357600080fd5b50610698610d7236600461375b565b61237f565b348015610d8357600080fd5b506104ae60045481565b348015610d9957600080fd5b506104ae610da8366004614095565b60196020526000908152604090205481565b348015610dc657600080fd5b506104ae6123b8565b348015610ddb57600080fd5b5061064b6123ca565b348015610df057600080fd5b50610698612420565b348015610e0557600080fd5b506104ae600e5481565b348015610e1b57600080fd5b5061052873dc652c746a8f85e18ce632d97c6118e8a52fa73881565b348015610e4357600080fd5b5061064b6124e4565b348015610e5857600080fd5b50610698610e67366004614261565b61253a565b348015610e7857600080fd5b50610698610e87366004614095565b612695565b348015610e9857600080fd5b506104ae610ea736600461375b565b612715565b348015610eb857600080fd5b506104ae610ec7366004614073565b612725565b348015610ed857600080fd5b50610711610ee736600461375b565b60136020526000908152604090205460ff1681565b348015610f0857600080fd5b50610698610f17366004613eca565b612741565b348015610f2857600080fd5b506104ae600c5481565b601560205260009081526040902080546001820180546001600160a01b03831693600160a01b90930460ff16929190610f6a906142a2565b80601f0160208091040260200160405190810160405280929190818152602001828054610f96906142a2565b8015610fe35780601f10610fb857610100808354040283529160200191610fe3565b820191906000526020600020905b815481529060010190602001808311610fc657829003601f168201915b5050604080516020808201835260028801546001600160a01b03168252825160038901805460609381028301840186529482018581529899939893975090955093508492849184018282801561106257602002820191906000526020600020905b81546001600160a01b03168152600190910190602001808311611044575b50505050508152602001600182015481525050905085565b6012818154811061108a57600080fd5b600091825260209091200154905081565b600580546110a8906142a2565b80601f01602080910402602001604051908101604052809291908181526020018280546110d4906142a2565b80156111215780601f106110f657610100808354040283529160200191611121565b820191906000526020600020905b81548152906001019060200180831161110457829003601f168201915b505050505081565b61115d604051806080016040528060006001600160a01b031681526020016000815260200160008152602001606081525090565b600082815260236020908152604091829020825160808101845281546001600160a01b031681526001820154928101929092526002810154928201929092526003820180549192916060840191906111b4906142a2565b80601f01602080910402602001604051908101604052809291908181526020018280546111e0906142a2565b801561122d5780601f106112025761010080835404028352916020019161122d565b820191906000526020600020905b81548152906001019060200180831161121057829003601f168201915b5050505050815250509050919050565b6017818154811061124d57600080fd5b6000918252602090912001546001600160a01b0316905081565b606060128054806020026020016040519081016040528092919081815260200182805480156112b557602002820191906000526020600020905b8154815260200190600101908083116112a1575b5050505050905090565b6040805160808101825233815242602082015290810183905260608101829052600090816112ec826115eb565b6021805460018082019092557f3a6357012c1a3ae0a17d304c9920310382d968ebcc4b1771f41c6b304205b57001829055600082815260236020908152604091829020865181546001600160a01b0319166001600160a01b03909116178155908601519281019290925584015160028201556060840151919250839160038201906113779082614324565b505050600085815260246020908152604080832080546001810182559084529190922001829055517f5a1a930fed43f34b3a07db782ebcac28a661c273e662bb98458cfba5a8ccd220906113ce9083815260200190565b60405180910390a19150505b92915050565b6001600160a01b0383166000908152601b602052604090205460ff1661144a5760035460000361140f57505050565b61142583678ac7230489e80000848460006114dc565b506001600160a01b0383166000908152601b60205260409020805460ff191660011790555b505050565b6000600a5461145c6123b8565b61146691906143f9565b905090565b606060188054806020026020016040519081016040528092919081815260200182805480156112b557602002820191906000526020600020905b81546001600160a01b031681526001909101906020018083116114a5575050505050905090565b6002818154811061108a57600080fd5b6040516bffffffffffffffffffffffff19606087901b16602082015260348101859052600090819060540160405160208183030381529060405280519060200120905060008361156c57611567868680806020026020016040519081016040528093929190818152602001838360200280828437600092019190915250506003549150859050612890565b6115ad565b6115ad868680806020026020016040519081016040528093929190818152602001838360200280828437600092019190915250506004549150859050612890565b9050806115cd5760405163452c2df160e11b815260040160405180910390fd5b506001979650505050505050565b6022818154811061108a57600080fd5b6000816040516020016115fe9190613882565b60408051601f19818403018152919052805160209091012092915050565b60008061162960016128a6565b600089815260136020526040902054909150339060ff161561165e576040516358f1119560e01b815260040160405180910390fd5b61166a8188878761183c565b61167382612919565b61167f89828a89612a2f565b9998505050505050505050565b6000816040516020016115fe91906141fa565b6000806116ac60006128a6565b600354909150156116e757336000908152601b602052604090205460ff166116e757604051631f22097560e01b815260040160405180910390fd5b6116f3610f178461440c565b60006117066117018561440c565b612b76565b905061171182612919565b9392505050565b6117236001806143f9565b81565b60608060006117336124e4565b9050600081516001600160401b0381111561175057611750613919565b60405190808252806020026020018201604052801561179557816020015b604080518082019091526000808252602082015281526020019060019003908161176e5790505b50905060005b825181101561182257601e60008483815181106117ba576117ba614418565b602002602001015181526020019081526020016000206000016040518060400160405290816000820154815260200160018201548152505082828151811061180457611804614418565b6020026020010181905250808061181a9061442e565b91505061179b565b5090939092509050565b6018818154811061124d57600080fd5b6001600160a01b0384166000908152601a602052604090205460ff1661189c5761186a8484848460016114dc565b506001600160a01b0384166000908152601960209081526040808320869055601a9091529020805460ff191660011790555b50505050565b3373dc652c746a8f85e18ce632d97c6118e8a52fa738146118d65760405163de07280160e01b815260040160405180910390fd5b600455565b6000816000036118fe57604051630ec90a1760e31b815260040160405180910390fd5b6002805460408051602080840282018101909252828152919260009291849083018282801561194c57602002820191906000526020600020905b815481526020019060010190808311611938575b5050505050905060006001905060005b838110156119c85761199383828151811061197957611979614418565b60200260200101516000908152601f602052604090205490565b156119b6578582036119a85795945050505050565b816119b28161442e565b9250505b806119c08161442e565b91505061195c565b50604051632cc2ab7360e11b815260040160405180910390fd5b606060228054806020026020016040519081016040528092919081815260200182805480156112b557602002820191906000526020600020908154815260200190600101908083116112a1575050505050905090565b600080611a4560016128a6565b600086815260136020526040902054909150339060ff1615611a7a576040516358f1119560e01b815260040160405180910390fd5b6001600160a01b0381166000908152601a602052604090205460ff16611ab35760405163126ec6d160e31b815260040160405180910390fd5b611abc82612919565b611ac886828787612a2f565b9695505050505050565b6000828152601e602090815260408083206001600160a01b0385168452600301909152902080546001909101545b9250929050565b606060028054806020026020016040519081016040528092919081815260200182805480156112b557602002820191906000526020600020908154815260200190600101908083116112a1575050505050905090565b601f6020528160005260406000208181548110611b7957600080fd5b90600052602060002001600091509150505481565b600680546110a8906142a2565b60236020526000908152604090208054600182015460028301546003840180546001600160a01b03909416949293919291611bd5906142a2565b80601f0160208091040260200160405190810160405280929190818152602001828054611c01906142a2565b8015611c4e5780601f10611c2357610100808354040283529160200191611c4e565b820191906000526020600020905b815481529060010190602001808311611c3157829003601f168201915b5050505050905084565b600254600090611c6a90600190614447565b821115611c8a576040516365d6f35160e11b815260040160405180910390fd5b60005b611c988360016143f9565b811015611cf5576001611cd460028381548110611cb757611cb7614418565b90600052602060002001546000908152601f602052604090205490565b1115611ce35750600192915050565b80611ced8161442e565b915050611c8d565b50600092915050565b606060178054806020026020016040519081016040528092919081815260200182805480156112b5576020028201919060005260206000209081546001600160a01b031681526001909101906020018083116114a5575050505050905090565b6011818154811061108a57600080fd5b805160005b81811015611e6c576000838281518110611d8f57611d8f614418565b60209081029190910101516007549091506001600160a01b03163314801590611dcf57506000818152602360205260409020546001600160a01b03163314155b15611df557604051635450763d60e11b8152600481018290526024015b60405180910390fd5b60008181526025602052604090205460ff16611e59576000818152602560205260408120805460ff191660019081179091556022805491820181559091527f61035b26e3e9eee00e0d72fd1ee8ddca6894550dca6916ea2ac6baa90d11e510018190555b5080611e648161442e565b915050611d73565b507f788a4349d25bc08585923ae212bce8bb346a623bce753eeecb85fd9ce58dcb4b82604051611e9c9190613906565b60405180910390a15050565b6000818152601e60209081526040918290206002810180548451818502810185019095528085526060949293830182828015611f0d57602002820191906000526020600020905b81546001600160a01b03168152600190910190602001808311611eef575b5050505050915050919050565b6000818152601f6020526040812054600114611f4957604051633832a15560e21b815260040160405180910390fd5b6000828152601f602052604081208054909190611f6857611f68614418565b90600052602060002001549050919050565b600081815260246020908152604091829020805483518184028101840190945280845260609392830182828015611fd057602002820191906000526020600020905b815481526020019060010190808311611fbc575b50505050509050919050565b600080611fe960006128a6565b9050611ff63385856113e0565b612002610f178661440c565b60006120106117018761440c565b905061201b82612919565b95945050505050565b60145460009060ff16156120385750600290565b42600854106120475750600090565b426120506123b8565b1061205b5750600390565b4261206461144f565b1061206f5750600190565b50600490565b61207d613670565b600082815260156020908152604091829020825160a08101845281546001600160a01b0381168252600160a01b900460ff1615159281019290925260018101805492939192918401916120cf906142a2565b80601f01602080910402602001604051908101604052809291908181526020018280546120fb906142a2565b80156121485780601f1061211d57610100808354040283529160200191612148565b820191906000526020600020905b81548152906001019060200180831161212b57829003601f168201915b5050509183525050604080516020818101835260028501546001600160a01b031682528084019190915281516003850180546060938102830184018552828501818152949095019491939092849284918401828280156121d157602002820191906000526020600020905b81546001600160a01b031681526001909101906020018083116121b3575b50505050508152602001600182015481525050815250509050919050565b6000818152601f6020908152604091829020805483518184028101840190945280845260609392830182828015611fd05760200282019190600052602060002090815481526020019060010190808311611fbc5750505050509050919050565b60606000601280548060200260200160405190810160405280929190818152602001828054801561229f57602002820191906000526020600020905b81548152602001906001019080831161228b575b50505050509050600081516001600160401b038111156122c1576122c1613919565b6040519080825280602002602001820160405280156122ea578160200160208202803683370190505b50905060005b8251811015612378576015600084838151811061230f5761230f614418565b6020026020010151815260200190815260200160002060000160009054906101000a90046001600160a01b031682828151811061234e5761234e614418565b6001600160a01b0390921660209283029190910190910152806123708161442e565b9150506122f0565b5092915050565b3373dc652c746a8f85e18ce632d97c6118e8a52fa738146123b35760405163de07280160e01b815260040160405180910390fd5b600355565b600060095460085461146691906143f9565b606060218054806020026020016040519081016040528092919081815260200182805480156112b557602002820191906000526020600020908154815260200190600101908083116112a1575050505050905090565b6007546001600160a01b0316331480159061244f57503373dc652c746a8f85e18ce632d97c6118e8a52fa73814155b1561246d576040516301dbf46f60e71b815260040160405180910390fd5b6000612477612024565b9050600281600481111561248d5761248d6141ca565b036124ab57604051633c30acbf60e01b815260040160405180910390fd5b6014805460ff191660011790556040517f4cd963a081760a54f571abc0f1db4dde31b4a07d8d6da3e844b8c6f47eeaaa4290600090a150565b606060118054806020026020016040519081016040528092919081815260200182805480156112b557602002820191906000526020600020908154815260200190600101908083116112a1575050505050905090565b6007546001600160a01b031633146125655760405163b8d4540960e01b815260040160405180910390fd5b600461256f612024565b6004811115612580576125806141ca565b0361259e576040516331da1c8b60e11b815260040160405180910390fd5b60005b818110156126435760008383838181106125bd576125bd614418565b60209081029290920135600081815260139093526040909220549192505060ff16612630576000818152601360205260408120805460ff191660019081179091556012805491820181559091527fbb8a6a4669ba250d26cd7a459eca9d215f8307e33aebe50379bc5a3617ec3444018190555b508061263b8161442e565b9150506125a1565b50600d5415801561265657506000546001145b15612665576126658282612df4565b7f75a75cf5c561892f4cc5b26c1b8e933849b42238c96dd073d080d1ae96c514166011604051611e9c919061445a565b6007546001600160a01b031633146126c057604051630f4cb1bd60e11b815260040160405180910390fd5b602080546001600160a01b038381166001600160a01b03198316811784556040805192909316808352938201527f753a2cf8d360cff631674504210913e48247f8e56b3e6d2006c2103d4095999f9101611e9c565b6021818154811061108a57600080fd5b60246020528160005260406000208181548110611b7957600080fd5b80516001600160a01b0316331461277f57805160405163fbbf4d7f60e01b81526001600160a01b039091166004820152336024820152604401611dec565b60005b61278d6001806143f9565b8110156128665760008160018111156127a8576127a86141ca565b905060008160018111156127be576127be6141ca565b036127c95750612854565b60018160018111156127dd576127dd6141ca565b0361283757608083015151516000036128095760405163c3b2798b60e01b815260040160405180910390fd5b826080015160200151600003612832576040516392fb9a3560e01b815260040160405180910390fd5b612852565b8060405163d2277d4960e01b8152600401611dec9190614495565b505b8061285e8161442e565b915050612782565b5080604001515160000361288d5760405163e182473360e01b815260040160405180910390fd5b50565b60008261289d8584612e51565b14949350505050565b600080808360018111156128bc576128bc6141ca565b036128ca5750600f546128f0565b60018360018111156128de576128de6141ca565b036128ec57506010546128f0565b5060005b8034146113da576040516372c3eaa760e01b815234600482015260248101829052604401611dec565b801561288d5760006064600e5460646129329190614447565b61293c90346144a9565b61294691906144c0565b905080156129ba5761296c73dc652c746a8f85e18ce632d97c6118e8a52fa73882612e9e565b6040805173dc652c746a8f85e18ce632d97c6118e8a52fa7388152602081018390527fdf20fd1e76bc69d672e4814fafb2c449bba3a5369d8359adf9e05e6fde87b056910160405180910390a15b60006129c68234614447565b9050801561144a576007546129e4906001600160a01b031682612e9e565b600754604080516001600160a01b039092168252602082018390527fdf20fd1e76bc69d672e4814fafb2c449bba3a5369d8359adf9e05e6fde87b056910160405180910390a1505050565b60006001612a3b612024565b6004811115612a4c57612a4c6141ca565b14612a7357612a59612024565b60405163049cab4960e51b8152600401611dec91906141e0565b81600003612a945760405163502e1c2960e01b815260040160405180910390fd5b612ac685858585601960008a6001600160a01b03166001600160a01b0316815260200190815260200160002054612fb7565b601880546001810182556000919091527fb13d2d76d1f4b7be834882e410b3e3a8afaf69f83600ae24db354391d2378d2e0180546001600160a01b031916331790556040805186815260ff851660208201529081018390526001600160a01b038516907f2c9deb38f462962eadbd85a9d3a4120503ee091f1582eaaa10aa8c6797651d299060600160405180910390a25050506001600160a01b0316600090815260196020526040902054919050565b60006003612b82612024565b6004811115612b9357612b936141ca565b14612bba57612ba0612024565b604051632889531360e01b8152600401611dec91906141e0565b600b543360009081526016602052604090205403612bf157600b54604051632bd6d93960e21b8152600401611dec91815260200190565b600c54601254601154612c049190614447565b03612c2857600c546040516302217f5360e51b8152600401611dec91815260200190565b6000612c338361168c565b600081815260156020526040902054909150600160a01b900460ff1615612c705760405163baffc42360e01b815260048101829052602401611dec565b6011805460018181019092557f31ecc21a745e3968a04e9570e4425bc18fa8019c68028196b546d1669c200c680182905560008281526015602090815260409182902086518154928801511515600160a01b026001600160a81b03199093166001600160a01b0390911617919091178155908501518592820190612cf49082614324565b506060820151516002820180546001600160a01b0319166001600160a01b039092169190911790556080820151805180516003840191612d39918391602001906136e1565b5060209182015160019182015533600090815260169092526040822080549194509250612d679084906143f9565b9091555050601780546001810182556000919091527fc624b66cc0138b8fabc209247f72d758e1cf3343756d543badbf24212bed8c150180546001600160a01b0319163390811790915560408085015190517f7585f467599d0f008985f231af99293be388626ac16ca59505c2f8f88969cd6392612de69285926144e2565b60405180910390a192915050565b60005b8181101561144a576000838383818110612e1357612e13614418565b602090810292909201356000818152601e909352604090922054919250612e3c9050828261321e565b50508080612e499061442e565b915050612df7565b600081815b8451811015612e9657612e8282868381518110612e7557612e75614418565b602002602001015161334f565b915080612e8e8161442e565b915050612e56565b509392505050565b80471015612eee5760405162461bcd60e51b815260206004820152601d60248201527f416464726573733a20696e73756666696369656e742062616c616e63650000006044820152606401611dec565b6000826001600160a01b03168260405160006040518083038185875af1925050503d8060008114612f3b576040519150601f19603f3d011682016040523d82523d6000602084013e612f40565b606091505b505090508061144a5760405162461bcd60e51b815260206004820152603a60248201527f416464726573733a20756e61626c6520746f2073656e642076616c75652c207260448201527f6563697069656e74206d617920686176652072657665727465640000000000006064820152608401611dec565b6000858152601e602090815260408083206001600160a01b0388168452601d90925290912054612fe79083614447565b8311156130075760405163660fa07360e11b815260040160405180910390fd5b6001600160a01b038516600090815260038201602052604081205415801561304a57506001600160a01b0386166000908152600383016020526040902060010154155b905060ff85166130a2578154849083906000906130689084906143f9565b90915550506001600160a01b0386166000908152600383016020526040812080548692906130979084906143f9565b909155506131339050565b60001960ff86160161311a57600d546001146130d157604051639755958f60e01b815260040160405180910390fd5b838260000160010160008282546130e891906143f9565b90915550506001600160a01b0386166000908152600383016020526040812060010180548692906130979084906143f9565b604051638eed55d160e01b815260040160405180910390fd5b801561316a57600282018054600181018255600091825260209091200180546001600160a01b0319166001600160a01b0388161790555b6001600160a01b0386166000908152601d6020526040812080548692906131929084906143f9565b9250508190555083601c60008282546131ab91906143f9565b9091555050600d541580156131c257506000546001145b1561321557815460006131d58683614447565b905080156131e7576131e7898261321e565b6000828152601f6020908152604082208054600181018255908352912001899055613212818361337b565b50505b50505050505050565b6000818152601f602090815260408083208054825181850281018501909352808352919290919083018282801561327457602002820191906000526020600020905b815481526020019060010190808311613260575b5050505050905060005b815181101561189c578382828151811061329a5761329a614418565b60200260200101510361333d5781600183516132b69190614447565b815181106132c6576132c6614418565b6020026020010151601f600085815260200190815260200160002082815481106132f2576132f2614418565b9060005260206000200181905550601f60008481526020019081526020016000208054806133225761332261450c565b6001900381819060005260206000200160009055905561189c565b806133478161442e565b91505061327e565b600081831061336b576000828152602084905260409020611711565b5060009182526020526040902090565b600280546040805160208084028201810190925282815291926000929184908301828280156133c957602002820191906000526020600020905b8154815260200190600101908083116133b5575b5050505050905081600003613410575050600280546001810182556000919091527f405787fa12a823e0f2b7631cc41b3ba8828b3321ca811111fa75cd3aa3bb5ace015550565b8061341c600184614447565b8151811061342c5761342c614418565b602002602001015183101561348257600154820361344a5750505050565b5050600280546001810182556000919091527f405787fa12a823e0f2b7631cc41b3ba8828b3321ca811111fa75cd3aa3bb5ace015550565b61189c848484846000805b838110156134f7578281815181106134a7576134a7614418565b602002602001015185036134bc57505061189c565b8281815181106134ce576134ce614418565b60200260200101518511156134e5578091506134f7565b806134ef8161442e565b91505061348d565b506000808611801561351557506000868152601f6020526040902054155b9050600081801561353e57508684848151811061353457613534614418565b6020026020010151145b6136475761354d600186614447565b83146135f55760006135608460016143f9565b90505b858110156135f35784613577600183614447565b8151811061358757613587614418565b6020026020010151600282815481106135a2576135a2614418565b6000918252602090912001558280156135d35750878582815181106135c9576135c9614418565b6020026020010151145b156135e157600191506135f3565b806135eb8161442e565b915050613563565b505b80158015613604575060015485105b1561364757600284613617600188614447565b8151811061362757613627614418565b602090810291909101810151825460018101845560009384529190922001555b856002848154811061365b5761365b614418565b60009182526020909120015550505050505050565b6040518060a0016040528060006001600160a01b03168152602001600015158152602001606081526020016136ba604051806020016040528060006001600160a01b031681525090565b81526020016136dc604051806040016040528060608152602001600081525090565b905290565b828054828255906000526020600020908101928215613736579160200282015b8281111561373657825182546001600160a01b0319166001600160a01b03909116178255602090920191600190910190613701565b50613742929150613746565b5090565b5b808211156137425760008155600101613747565b60006020828403121561376d57600080fd5b5035919050565b6000815180845260005b8181101561379a5760208185018101518683018201520161377e565b506000602082860101526020601f19601f83011685010191505092915050565b805160408084528151908401819052600091602091908201906060860190845b818110156137ff5783516001600160a01b0316835292840192918401916001016137da565b505093820151949091019390935250919050565b600060018060a01b038088168352861515602084015260a0604084015261383d60a0840187613774565b818651166060850152838103608085015261167f81866137ba565b6020815260006117116020830184613774565b8151815260208083015190820152604081016113da565b6020815260018060a01b0382511660208201526020820151604082015260408201516060820152600060608301516080808401526138c360a0840182613774565b949350505050565b600081518084526020808501945080840160005b838110156138fb578151875295820195908201906001016138df565b509495945050505050565b60208152600061171160208301846138cb565b634e487b7160e01b600052604160045260246000fd5b604080519081016001600160401b038111828210171561395157613951613919565b60405290565b60405160a081016001600160401b038111828210171561395157613951613919565b604051602081016001600160401b038111828210171561395157613951613919565b604051601f8201601f191681016001600160401b03811182821017156139c3576139c3613919565b604052919050565b600082601f8301126139dc57600080fd5b81356001600160401b038111156139f5576139f5613919565b613a08601f8201601f191660200161399b565b818152846020838601011115613a1d57600080fd5b816020850160208301376000918101602001919091529392505050565b60008060408385031215613a4d57600080fd5b8235915060208301356001600160401b03811115613a6a57600080fd5b613a76858286016139cb565b9150509250929050565b6001600160a01b038116811461288d57600080fd5b60008083601f840112613aa757600080fd5b5081356001600160401b03811115613abe57600080fd5b6020830191508360208260051b8501011115611b0057600080fd5b600080600060408486031215613aee57600080fd5b8335613af981613a80565b925060208401356001600160401b03811115613b1457600080fd5b613b2086828701613a95565b9497909650939450505050565b6020808252825182820181905260009190848201906040850190845b81811015613b6e5783516001600160a01b031683529284019291840191600101613b49565b50909695505050505050565b80358015158114613b8a57600080fd5b919050565b600080600080600060808688031215613ba757600080fd5b8535613bb281613a80565b94506020860135935060408601356001600160401b03811115613bd457600080fd5b613be088828901613a95565b9094509250613bf3905060608701613b7a565b90509295509295909350565b600060208284031215613c1157600080fd5b81356001600160401b0380821115613c2857600080fd5b9083019060808286031215613c3c57600080fd5b604051608081018181108382111715613c5757613c57613919565b6040528235613c6581613a80565b808252506020830135602082015260408301356040820152606083013582811115613c8f57600080fd5b613c9b878286016139cb565b60608301525095945050505050565b803560ff81168114613b8a57600080fd5b60008060008060008060a08789031215613cd457600080fd5b86359550613ce460208801613caa565b9450604087013593506060870135925060808701356001600160401b03811115613d0d57600080fd5b613d1989828a01613a95565b979a9699509497509295939492505050565b60006001600160401b03821115613d4457613d44613919565b5060051b60200190565b600060408284031215613d6057600080fd5b613d6861392f565b905081356001600160401b03811115613d8057600080fd5b8201601f81018413613d9157600080fd5b80356020613da6613da183613d2b565b61399b565b82815260059290921b83018101918181019087841115613dc557600080fd5b938201935b83851015613dec578435613ddd81613a80565b82529382019390820190613dca565b85525093840135938301939093525092915050565b600081830360a0811215613e1457600080fd5b613e1c613957565b91508235613e2981613a80565b8252613e3760208401613b7a565b602083015260408301356001600160401b0380821115613e5657600080fd5b613e62868387016139cb565b60408501526020605f1984011215613e7957600080fd5b613e81613979565b925060608501359150613e9382613a80565b8183528260608501526080850135925080831115613eb057600080fd5b5050613ebe84828501613d4e565b60808301525092915050565b600060208284031215613edc57600080fd5b81356001600160401b03811115613ef257600080fd5b6138c384828501613e01565b600060a08284031215613f1057600080fd5b50919050565b600060208284031215613f2857600080fd5b81356001600160401b03811115613f3e57600080fd5b6138c384828501613efe565b60006040808352613f5d818401866138cb565b83810360208581019190915285518083528682019282019060005b81811015613fa557613f9583865180518252602090810151910152565b9383019391850191600101613f78565b509098975050505050505050565b60008060008060608587031215613fc957600080fd5b8435613fd481613a80565b93506020850135925060408501356001600160401b03811115613ff657600080fd5b61400287828801613a95565b95989497509550505050565b60008060006060848603121561402357600080fd5b8335925061403360208501613caa565b9150604084013590509250925092565b6000806040838503121561405657600080fd5b82359150602083013561406881613a80565b809150509250929050565b6000806040838503121561408657600080fd5b50508035926020909101359150565b6000602082840312156140a757600080fd5b813561171181613a80565b60018060a01b0385168152836020820152826040820152608060608201526000611ac86080830184613774565b600060208083850312156140f257600080fd5b82356001600160401b0381111561410857600080fd5b8301601f8101851361411957600080fd5b8035614127613da182613d2b565b81815260059190911b8201830190838101908783111561414657600080fd5b928401925b828410156141645783358252928401929084019061414b565b979650505050505050565b60008060006040848603121561418457600080fd5b83356001600160401b038082111561419b57600080fd5b6141a787838801613efe565b945060208601359150808211156141bd57600080fd5b50613b2086828701613a95565b634e487b7160e01b600052602160045260246000fd5b60208101600583106141f4576141f46141ca565b91905290565b60208152600060018060a01b03808451166020840152602084015115156040840152604084015160a0606085015261423560c0850182613774565b90508160608601515116608085015260808501519150601f198482030160a085015261201b81836137ba565b6000806020838503121561427457600080fd5b82356001600160401b0381111561428a57600080fd5b61429685828601613a95565b90969095509350505050565b600181811c908216806142b657607f821691505b602082108103613f1057634e487b7160e01b600052602260045260246000fd5b601f82111561144a57600081815260208120601f850160051c810160208610156142fd5750805b601f850160051c820191505b8181101561431c57828155600101614309565b505050505050565b81516001600160401b0381111561433d5761433d613919565b6143518161434b84546142a2565b846142d6565b602080601f831160018114614386576000841561436e5750858301515b600019600386901b1c1916600185901b17855561431c565b600085815260208120601f198616915b828110156143b557888601518255948401946001909101908401614396565b50858210156143d35787850151600019600388901b60f8161c191681555b5050505050600190811b01905550565b634e487b7160e01b600052601160045260246000fd5b808201808211156113da576113da6143e3565b60006113da3683613e01565b634e487b7160e01b600052603260045260246000fd5b600060018201614440576144406143e3565b5060010190565b818103818111156113da576113da6143e3565b6020808252825482820181905260008481528281209092916040850190845b81811015613b6e57835483526001938401939285019201614479565b60208101600283106141f4576141f46141ca565b80820281158282048414176113da576113da6143e3565b6000826144dd57634e487b7160e01b600052601260045260246000fd5b500490565b8381526001600160a01b038316602082015260606040820181905260009061201b90830184613774565b634e487b7160e01b600052603160045260246000fdfea2646970667358221220a3db21a1ec76600e1c12ee8f3fcb6d00a85b4bf03f2b679ef9719d94ff35b68d64736f6c63430008130033","linkReferences":{}},"methodIdentifiers":{"AMOUNT_FOR_SUMBITTER_PROOF()":"347cf665","JK_LABS_ADDRESS()":"eef18e17","METADATAS_COUNT()":"4d24a67f","addressSubmitterVerified(address)":"cb853950","addressTotalCastVoteCounts(address)":"a1ac6cb2","addressTotalVotes(address)":"dea5f6a6","addressTotalVotesVerified(address)":"930de979","addressesThatHaveVoted(uint256)":"50c4b616","allProposalTotalVotes()":"50a5e524","cancel()":"ea8a1af0","canceled()":"3f9942ff","castVote(uint256,uint8,uint256,uint256,bytes32[])":"419c533c","castVoteWithoutProof(uint256,uint8,uint256)":"65f16263","checkProof(address,uint256,bytes32[],bool)":"32763c22","comment(uint256,string)":"1805c523","commentIds(uint256)":"f5c36411","commentIsDeleted(uint256)":"ae66b8ad","comments(uint256)":"8ebb4c15","contestAddressTotalVotesCast(address)":"aec116b6","contestDeadline()":"262e59e9","contestStart()":"004114a8","costToPropose()":"6ed815ad","costToVote()":"51a41dec","creator()":"02d05d3f","deleteComments(uint256[])":"ac67f801","deleteProposals(uint256[])":"f0a7db0a","deletedCommentIds(uint256)":"3fb57c92","deletedProposalIds(uint256)":"05846cae","downvotingAllowed()":"60506ff6","forVotesToProposalIds(uint256,uint256)":"711effc8","getAllAddressesThatHaveVoted()":"2c39805f","getAllAuthorsOfDeletedProposals()":"cbdc27cb","getAllCommentIds()":"e11db9d8","getAllDeletedCommentIds()":"5cb718a1","getAllDeletedProposalIds()":"1242b737","getAllProposalAuthors()":"946369b5","getAllProposalIds()":"efa90d36","getComment(uint256)":"0800e300","getNumProposalsWithThisManyForVotes(uint256)":"9ba197af","getOnlyProposalIdWithThisManyForVotes(uint256)":"b66d1da3","getProposal(uint256)":"c7f758a8","getProposalComments(uint256)":"c05f4104","getProposalsWithThisManyForVotes(uint256)":"c9a1b6b2","getRankIndex(uint256)":"5c7107d8","getSortedRanks()":"6fd3636b","hashComment((address,uint256,uint256,string))":"409fd030","hashProposal((address,bool,string,(address),(address[],uint256)))":"458da87d","isOrIsBelowTiedRank(uint256)":"9174778c","maxProposalCount()":"fb9bf8d4","name()":"06fdde03","numAllowedProposalSubmissions()":"832009af","numSubmissions(address)":"75e509c5","officialRewardsModule()":"785ddfe5","percentageToCreator()":"edcd1be4","prompt()":"7c65d711","proposalAddressVotes(uint256,address)":"6e4eb810","proposalAddressesHaveVoted(uint256)":"b323580d","proposalAuthors(uint256)":"0aa25e44","proposalComments(uint256,uint256)":"f61736f4","proposalIds(uint256)":"9b644a23","proposalIsDeleted(uint256)":"f79c0172","proposalVotes(uint256)":"544ffc9c","proposalVotesStructs(uint256)":"070dc5d9","proposals(uint256)":"013cf08b","propose((address,bool,string,(address),(address[],uint256)),bytes32[])":"c0ffaa78","proposeWithoutProof((address,bool,string,(address),(address[],uint256)))":"476f4d8a","rankLimit()":"0414126a","setOfficialRewardsModule(address)":"f4f3d7ec","setSubmissionMerkleRoot(bytes32)":"daf762db","setVotingMerkleRoot(bytes32)":"544c7bb4","sortedRanks(uint256)":"325cc6d9","sortingEnabled()":"366ecf5b","state()":"c19d93fb","submissionMerkleRoot()":"bddc1641","totalVotesCast()":"7de418d5","validateProposalData((address,bool,string,(address),(address[],uint256)))":"fb8ddab4","verifyProposer(address,bytes32[])":"20b3e845","verifyVoter(address,uint256,bytes32[])":"531bd812","version()":"54fd4d50","voteStart()":"e031535b","votingDelay()":"3932abb1","votingMerkleRoot()":"dd96a19d","votingPeriod()":"02a251a3"},"id":28}