{
  "abi": [
    {
      "inputs": [
        {
          "internalType": "uint256[]",
          "name": "payees",
          "type": "uint256[]"
        },
        {
          "internalType": "uint256[]",
          "name": "shares_",
          "type": "uint256[]"
        },
        {
          "internalType": "contract GovernorCountingSimple",
          "name": "underlyingContest_",
          "type": "address"
        }
      ],
      "stateMutability": "payable",
      "type": "constructor"
    },
    {
      "anonymous": false,
      "inputs": [
        {
          "indexed": true,
          "internalType": "contract IERC20",
          "name": "token",
          "type": "address"
        },
        {
          "indexed": false,
          "internalType": "address",
          "name": "to",
          "type": "address"
        },
        {
          "indexed": false,
          "internalType": "uint256",
          "name": "amount",
          "type": "uint256"
        }
      ],
      "name": "ERC20PaymentReleased",
      "type": "event"
    },
    {
      "anonymous": false,
      "inputs": [
        {
          "indexed": true,
          "internalType": "contract IERC20",
          "name": "token",
          "type": "address"
        },
        {
          "indexed": false,
          "internalType": "address",
          "name": "by",
          "type": "address"
        },
        {
          "indexed": false,
          "internalType": "uint256",
          "name": "amount",
          "type": "uint256"
        }
      ],
      "name": "ERC20RewardWithdrawn",
      "type": "event"
    },
    {
      "anonymous": false,
      "inputs": [
        {
          "indexed": false,
          "internalType": "uint256",
          "name": "ranking",
          "type": "uint256"
        },
        {
          "indexed": false,
          "internalType": "uint256",
          "name": "shares",
          "type": "uint256"
        }
      ],
      "name": "PayeeAdded",
      "type": "event"
    },
    {
      "anonymous": false,
      "inputs": [
        {
          "indexed": false,
          "internalType": "address",
          "name": "from",
          "type": "address"
        },
        {
          "indexed": false,
          "internalType": "uint256",
          "name": "amount",
          "type": "uint256"
        }
      ],
      "name": "PaymentReceived",
      "type": "event"
    },
    {
      "anonymous": false,
      "inputs": [
        {
          "indexed": false,
          "internalType": "address",
          "name": "to",
          "type": "address"
        },
        {
          "indexed": false,
          "internalType": "uint256",
          "name": "amount",
          "type": "uint256"
        }
      ],
      "name": "PaymentReleased",
      "type": "event"
    },
    {
      "anonymous": false,
      "inputs": [
        {
          "indexed": false,
          "internalType": "address",
          "name": "by",
          "type": "address"
        },
        {
          "indexed": false,
          "internalType": "uint256",
          "name": "amount",
          "type": "uint256"
        }
      ],
      "name": "RewardWithdrawn",
      "type": "event"
    },
    {
      "inputs": [],
      "name": "creator",
      "outputs": [
        {
          "internalType": "address",
          "name": "",
          "type": "address"
        }
      ],
      "stateMutability": "view",
      "type": "function"
    },
    {
      "inputs": [],
      "name": "getPayees",
      "outputs": [
        {
          "internalType": "uint256[]",
          "name": "",
          "type": "uint256[]"
        }
      ],
      "stateMutability": "view",
      "type": "function"
    },
    {
      "inputs": [],
      "name": "highestTiedRanking",
      "outputs": [
        {
          "internalType": "uint256",
          "name": "",
          "type": "uint256"
        }
      ],
      "stateMutability": "view",
      "type": "function"
    },
    {
      "inputs": [
        {
          "internalType": "uint256",
          "name": "ranking",
          "type": "uint256"
        }
      ],
      "name": "isTied",
      "outputs": [
        {
          "internalType": "bool",
          "name": "",
          "type": "bool"
        }
      ],
      "stateMutability": "view",
      "type": "function"
    },
    {
      "inputs": [],
      "name": "lowestRanking",
      "outputs": [
        {
          "internalType": "uint256",
          "name": "",
          "type": "uint256"
        }
      ],
      "stateMutability": "view",
      "type": "function"
    },
    {
      "inputs": [
        {
          "internalType": "uint256",
          "name": "ranking",
          "type": "uint256"
        }
      ],
      "name": "rankingPosition",
      "outputs": [
        {
          "internalType": "uint256",
          "name": "",
          "type": "uint256"
        }
      ],
      "stateMutability": "view",
      "type": "function"
    },
    {
      "inputs": [
        {
          "internalType": "contract IERC20",
          "name": "token",
          "type": "address"
        },
        {
          "internalType": "uint256",
          "name": "ranking",
          "type": "uint256"
        }
      ],
      "name": "releasable",
      "outputs": [
        {
          "internalType": "uint256",
          "name": "",
          "type": "uint256"
        }
      ],
      "stateMutability": "view",
      "type": "function"
    },
    {
      "inputs": [
        {
          "internalType": "uint256",
          "name": "ranking",
          "type": "uint256"
        }
      ],
      "name": "releasable",
      "outputs": [
        {
          "internalType": "uint256",
          "name": "",
          "type": "uint256"
        }
      ],
      "stateMutability": "view",
      "type": "function"
    },
    {
      "inputs": [
        {
          "internalType": "contract IERC20",
          "name": "token",
          "type": "address"
        },
        {
          "internalType": "uint256",
          "name": "ranking",
          "type": "uint256"
        }
      ],
      "name": "release",
      "outputs": [],
      "stateMutability": "nonpayable",
      "type": "function"
    },
    {
      "inputs": [
        {
          "internalType": "uint256",
          "name": "ranking",
          "type": "uint256"
        }
      ],
      "name": "release",
      "outputs": [],
      "stateMutability": "nonpayable",
      "type": "function"
    },
    {
      "inputs": [
        {
          "internalType": "uint256",
          "name": "ranking",
          "type": "uint256"
        }
      ],
      "name": "released",
      "outputs": [
        {
          "internalType": "uint256",
          "name": "",
          "type": "uint256"
        }
      ],
      "stateMutability": "view",
      "type": "function"
    },
    {
      "inputs": [
        {
          "internalType": "contract IERC20",
          "name": "token",
          "type": "address"
        },
        {
          "internalType": "uint256",
          "name": "ranking",
          "type": "uint256"
        }
      ],
      "name": "released",
      "outputs": [
        {
          "internalType": "uint256",
          "name": "",
          "type": "uint256"
        }
      ],
      "stateMutability": "view",
      "type": "function"
    },
    {
      "inputs": [],
      "name": "setSortedAndTiedProposals",
      "outputs": [],
      "stateMutability": "nonpayable",
      "type": "function"
    },
    {
      "inputs": [
        {
          "internalType": "uint256",
          "name": "ranking",
          "type": "uint256"
        }
      ],
      "name": "shares",
      "outputs": [
        {
          "internalType": "uint256",
          "name": "",
          "type": "uint256"
        }
      ],
      "stateMutability": "view",
      "type": "function"
    },
    {
      "inputs": [],
      "name": "sortedProposalIds",
      "outputs": [
        {
          "internalType": "uint256[]",
          "name": "",
          "type": "uint256[]"
        }
      ],
      "stateMutability": "view",
      "type": "function"
    },
    {
      "inputs": [
        {
          "internalType": "contract IERC20",
          "name": "token",
          "type": "address"
        }
      ],
      "name": "totalReleased",
      "outputs": [
        {
          "internalType": "uint256",
          "name": "",
          "type": "uint256"
        }
      ],
      "stateMutability": "view",
      "type": "function"
    },
    {
      "inputs": [],
      "name": "totalReleased",
      "outputs": [
        {
          "internalType": "uint256",
          "name": "",
          "type": "uint256"
        }
      ],
      "stateMutability": "view",
      "type": "function"
    },
    {
      "inputs": [],
      "name": "totalShares",
      "outputs": [
        {
          "internalType": "uint256",
          "name": "",
          "type": "uint256"
        }
      ],
      "stateMutability": "view",
      "type": "function"
    },
    {
      "inputs": [],
      "name": "underlyingContest",
      "outputs": [
        {
          "internalType": "contract GovernorCountingSimple",
          "name": "",
          "type": "address"
        }
      ],
      "stateMutability": "view",
      "type": "function"
    },
    {
      "inputs": [],
      "name": "version",
      "outputs": [
        {
          "internalType": "string",
          "name": "",
          "type": "string"
        }
      ],
      "stateMutability": "view",
      "type": "function"
    },
    {
      "inputs": [
        {
          "internalType": "contract IERC20",
          "name": "token",
          "type": "address"
        }
      ],
      "name": "withdrawRewards",
      "outputs": [],
      "stateMutability": "nonpayable",
      "type": "function"
    },
    {
      "inputs": [],
      "name": "withdrawRewards",
      "outputs": [],
      "stateMutability": "nonpayable",
      "type": "function"
    },
    {
      "stateMutability": "payable",
      "type": "receive"
    }
  ],
  "bytecode": {
    "object": "0x608060408190526008805460ff60a01b191690556200235c38819003908190833981016040819052620000329162000406565b8151835114620000a25760405162461bcd60e51b815260206004820152603060248201527f526577617264734d6f64756c653a2070617965657320616e642073686172657360448201526f040d8cadccee8d040dad2e6dac2e8c6d60831b60648201526084015b60405180910390fd5b6000835111620000f55760405162461bcd60e51b815260206004820152601860248201527f526577617264734d6f64756c653a206e6f207061796565730000000000000000604482015260640162000099565b60005b835181101562000161576200014c8482815181106200011b576200011b62000493565b602002602001015184838151811062000138576200013862000493565b60200260200101516200019460201b60201c565b806200015881620004bf565b915050620000f8565b50600780546001600160a01b039092166001600160a01b0319928316179055600880549091163317905550620004f79050565b60008211620001fb5760405162461bcd60e51b815260206004820152602c60248201527f526577617264734d6f64756c653a2072616e6b696e6720697320302c206d757360448201526b3a1031329033b932b0ba32b960a11b606482015260840162000099565b600081116200024d5760405162461bcd60e51b815260206004820152601b60248201527f526577617264734d6f64756c653a207368617265732061726520300000000000604482015260640162000099565b60008281526002602052604090205415620002bd5760405162461bcd60e51b815260206004820152602960248201527f526577617264734d6f64756c653a206163636f756e7420616c7265616479206860448201526861732073686172657360b81b606482015260840162000099565b60048054600181019091557f8a35acfbc15ff81a39ae7d344fd709f28e8600b4aa8c65c6b64bfe7fe36bd19b018290556000828152600260205260408120829055546200030c908290620004db565b60005560408051838152602081018390527f78bc0e219b874bf2620f7316737ec16d4bda1bb7136961e4dcb5ff0dc031cee4910160405180910390a15050565b634e487b7160e01b600052604160045260246000fd5b600082601f8301126200037457600080fd5b815160206001600160401b03808311156200039357620003936200034c565b8260051b604051601f19603f83011681018181108482111715620003bb57620003bb6200034c565b604052938452858101830193838101925087851115620003da57600080fd5b83870191505b84821015620003fb57815183529183019190830190620003e0565b979650505050505050565b6000806000606084860312156200041c57600080fd5b83516001600160401b03808211156200043457600080fd5b620004428783880162000362565b945060208601519150808211156200045957600080fd5b50620004688682870162000362565b604086015190935090506001600160a01b03811681146200048857600080fd5b809150509250925092565b634e487b7160e01b600052603260045260246000fd5b634e487b7160e01b600052601160045260246000fd5b600060018201620004d457620004d4620004a9565b5060010190565b80820180821115620004f157620004f1620004a9565b92915050565b611e5580620005076000396000f3fe6080604052600436106101395760003560e01c806386187488116100ab578063cfe830701161006f578063cfe83070146103b5578063d79779b2146103f8578063e33b7de31461042e578063e4bf01a814610443578063ebc18b9b14610463578063f3f44fb71461047857600080fd5b806386187488146103295780638a9cd5501461034957806396f0e9621461035e578063a94d373b14610373578063c7b8981c146103a057600080fd5b806337bdc99b116100fd57806337bdc99b146102605780633a98ef391461028057806342d866931461029557806354fd4d50146102b557806357a858fc146102e75780636ca1a2c71461031457600080fd5b806302d05d3f146101875780630357371d146101be5780632081d631146101e05780632399c6601461020e57806327f381131461023e57600080fd5b36610182577f6ef95f06320e7a25a04a175ca677b7052bdd97131872c2192525a629f51be77033604080516001600160a01b0390921682523460208301520160405180910390a1005b600080fd5b34801561019357600080fd5b506008546001600160a01b03165b6040516001600160a01b0390911681526020015b60405180910390f35b3480156101ca57600080fd5b506101de6101d9366004611761565b610496565b005b3480156101ec57600080fd5b506102006101fb366004611761565b6107c1565b6040519081526020016101b5565b34801561021a57600080fd5b5061022e61022936600461178d565b610891565b60405190151581526020016101b5565b34801561024a57600080fd5b506102536108d3565b6040516101b591906117a6565b34801561026c57600080fd5b506101de61027b36600461178d565b61092b565b34801561028c57600080fd5b50600054610200565b3480156102a157600080fd5b506101de6102b03660046117ea565b610c1b565b3480156102c157600080fd5b506040805180820182526003815262332e3160e81b602082015290516101b5919061182b565b3480156102f357600080fd5b5061020061030236600461178d565b60009081526002602052604090205490565b34801561032057600080fd5b50610200610d7f565b34801561033557600080fd5b5061020061034436600461178d565b610db2565b34801561035557600080fd5b50610253610df1565b34801561036a57600080fd5b506101de610e71565b34801561037f57600080fd5b5061020061038e36600461178d565b60009081526003602052604090205490565b3480156103ac57600080fd5b506101de611253565b3480156103c157600080fd5b506102006103d0366004611761565b6001600160a01b03919091166000908152600660209081526040808320938352929052205490565b34801561040457600080fd5b506102006104133660046117ea565b6001600160a01b031660009081526005602052604090205490565b34801561043a57600080fd5b50600154610200565b34801561044f57600080fd5b5061020061045e36600461178d565b6112da565b34801561046f57600080fd5b50610200611314565b34801561048457600080fd5b506007546001600160a01b03166101a1565b806000036104bf5760405162461bcd60e51b81526004016104b69061185e565b60405180910390fd5b6007546040805163c19d93fb60e01b815290516004926001600160a01b03169163c19d93fb918185019160209190819003860181865afa158015610507573d6000803e3d6000fd5b505050506040513d601f19601f8201168201806040525081019061052b91906118bf565b600481111561053c5761053c6118a9565b146105595760405162461bcd60e51b81526004016104b6906118e0565b6000818152600260205260409020546105c05760405162461bcd60e51b8152602060048201526024808201527f526577617264734d6f64756c653a206163636f756e7420686173206e6f2073686044820152636172657360e01b60648201526084016104b6565b60006105cc83836107c1565b9050806000036105ee5760405162461bcd60e51b81526004016104b690611949565b6001600160a01b038316600090815260056020526040812080548392906106169084906119a8565b90915550506001600160a01b03831660009081526006602090815260408083208584529091529020805482019055600854600160a01b900460ff1661065d5761065d610e71565b600c5482111561067f5760405162461bcd60e51b81526004016104b6906119bb565b6000600d54831061069b576008546001600160a01b0316610742565b6007546000848152600b6020526040902054600980546001600160a01b039093169263c7f758a8929081106106d2576106d2611a48565b90600052602060002001546040518263ffffffff1660e01b81526004016106fb91815260200190565b600060405180830381865afa158015610718573d6000803e3d6000fd5b505050506040513d6000823e601f3d908101601f191682016040526107409190810190611ae3565b515b90506001600160a01b03811661076a5760405162461bcd60e51b81526004016104b690611bc4565b610775848284611347565b604080516001600160a01b038381168252602082018590528616917f3be5b7a71e84ed12875d241991c70855ac5817d847039e17a9d895c1ceb0f18a910160405180910390a250505050565b6001600160a01b03821660009081526005602052604081205481906040516370a0823160e01b81523060048201526001600160a01b038616906370a0823190602401602060405180830381865afa158015610820573d6000803e3d6000fd5b505050506040513d601f19601f820116820180604052508101906108449190611c0e565b61084e91906119a8565b9050610887838261088287876001600160a01b03919091166000908152600660209081526040808320938352929052205490565b61139e565b9150505b92915050565b600854600090600160a01b900460ff166108bd5760405162461bcd60e51b81526004016104b690611c27565b506000908152600a602052604090205460ff1690565b6060600480548060200260200160405190810160405280929190818152602001828054801561092157602002820191906000526020600020905b81548152602001906001019080831161090d575b5050505050905090565b8060000361094b5760405162461bcd60e51b81526004016104b69061185e565b6007546040805163c19d93fb60e01b815290516004926001600160a01b03169163c19d93fb918185019160209190819003860181865afa158015610993573d6000803e3d6000fd5b505050506040513d601f19601f820116820180604052508101906109b791906118bf565b60048111156109c8576109c86118a9565b146109e55760405162461bcd60e51b81526004016104b6906118e0565b600081815260026020526040902054610a4c5760405162461bcd60e51b8152602060048201526024808201527f526577617264734d6f64756c653a2072616e6b696e6720686173206e6f2073686044820152636172657360e01b60648201526084016104b6565b6000610a57826112da565b905080600003610a795760405162461bcd60e51b81526004016104b690611949565b8060016000828254610a8b91906119a8565b90915550506000828152600360205260409020805482019055600854600160a01b900460ff16610abd57610abd610e71565b600c54821115610adf5760405162461bcd60e51b81526004016104b6906119bb565b6000600d548310610afb576008546001600160a01b0316610ba2565b6007546000848152600b6020526040902054600980546001600160a01b039093169263c7f758a892908110610b3257610b32611a48565b90600052602060002001546040518263ffffffff1660e01b8152600401610b5b91815260200190565b600060405180830381865afa158015610b78573d6000803e3d6000fd5b505050506040513d6000823e601f3d908101601f19168201604052610ba09190810190611ae3565b515b90506001600160a01b038116610bca5760405162461bcd60e51b81526004016104b690611bc4565b610bd481836113d8565b604080516001600160a01b0383168152602081018490527fdf20fd1e76bc69d672e4814fafb2c449bba3a5369d8359adf9e05e6fde87b056910160405180910390a1505050565b6008546001600160a01b03163314610c3257600080fd5b610cb581610c486008546001600160a01b031690565b6040516370a0823160e01b81523060048201526001600160a01b038516906370a0823190602401602060405180830381865afa158015610c8c573d6000803e3d6000fd5b505050506040513d601f19601f82011682018060405250810190610cb09190611c0e565b611347565b806001600160a01b03167f6e5fc1cbd1629d9837bd657d23cf585bbc4e9127184972606cc4c0dd406f7572610cf26008546001600160a01b031690565b6040516370a0823160e01b81523060048201526001600160a01b038516906370a0823190602401602060405180830381865afa158015610d36573d6000803e3d6000fd5b505050506040513d601f19601f82011682018060405250810190610d5a9190611c0e565b604080516001600160a01b03909316835260208301919091520160405180910390a250565b600854600090600160a01b900460ff16610dab5760405162461bcd60e51b81526004016104b690611c27565b50600c5490565b600854600090600160a01b900460ff16610dde5760405162461bcd60e51b81526004016104b690611c27565b506000908152600b602052604090205490565b600854606090600160a01b900460ff16610e1d5760405162461bcd60e51b81526004016104b690611c27565b6009805480602002602001604051908101604052809291908181526020018280548015610921576020028201919060005260206000209081548152602001906001019080831161090d575050505050905090565b6007546040805163c19d93fb60e01b815290516004926001600160a01b03169163c19d93fb918185019160209190819003860181865afa158015610eb9573d6000803e3d6000fd5b505050506040513d601f19601f82011682018060405250810190610edd91906118bf565b6004811115610eee57610eee6118a9565b14610f0b5760405162461bcd60e51b81526004016104b6906118e0565b600854600160a01b900460ff1615610fe85760405162461bcd60e51b815260206004820152608860248201527f526577617264734d6f64756c653a20746869732066756e6374696f6e2068617360448201527f20616c7265616479206265656e2072756e20616e64206974732072657370656360648201527f746976652076616c75657320736574202874686573652076616c75657320776960848201527f6c6c206e6f74206368616e6765206f6e6365206120636f6e746573742069732060a482015267636f6d706c65746560c01b60c482015260e4016104b6565b60075460405163213eab6160e11b8152600160048201526001600160a01b039091169063427d56c290602401600060405180830381865afa158015611031573d6000803e3d6000fd5b505050506040513d6000823e601f3d908101601f191682016040526110599190810190611c92565b805161106d916009916020909101906116e9565b5060095460009060019061108190826119a8565b600d5560005b60095481101561123b576009546000906110a390600190611d38565b60075490915060009081906001600160a01b031663544ffc9c60096110c88787611d38565b815481106110d8576110d8611a48565b90600052602060002001546040518263ffffffff1660e01b815260040161110191815260200190565b6040805180830381865afa15801561111d573d6000803e3d6000fd5b505050506040513d601f19601f820116820180604052508101906111419190611d4b565b909250905060006111528284611d6f565b90508460000361116757955061122992505050565b8681036111bf576000868152600a602052604090205460ff1661119e576000868152600a60205260409020805460ff191660011790555b6009546111ac9060016119a8565b600d54036111ba57600d8690555b6111f1565b6111c98585611d38565b6111d49060016119a8565b6000878152600b6020526040902055856111ed81611d96565b9650505b6009546111ff8660016119a8565b036112235761120e8585611d38565b6000878152600b6020526040902055600c8690555b95505050505b8061123381611d96565b915050611087565b50506008805460ff60a01b1916600160a01b17905550565b6008546001600160a01b0316331461126a57600080fd5b61128561127f6008546001600160a01b031690565b476113d8565b7f1d3eee4ca001cff39eec6ec7615aacf2f2bd61791273830728ba00ccbd6e13376112b86008546001600160a01b031690565b604080516001600160a01b0390921682524760208301520160405180910390a1565b6000806112e660015490565b6112f090476119a8565b905061130d83826108828660009081526003602052604090205490565b9392505050565b600854600090600160a01b900460ff166113405760405162461bcd60e51b81526004016104b690611c27565b50600d5490565b604080516001600160a01b038416602482015260448082018490528251808303909101815260649091019091526020810180516001600160e01b031663a9059cbb60e01b1790526113999084906114f1565b505050565b60008054848252600260205260408220548391906113bc9086611daf565b6113c69190611dc6565b6113d09190611d38565b949350505050565b804710156114285760405162461bcd60e51b815260206004820152601d60248201527f416464726573733a20696e73756666696369656e742062616c616e636500000060448201526064016104b6565b6000826001600160a01b03168260405160006040518083038185875af1925050503d8060008114611475576040519150601f19603f3d011682016040523d82523d6000602084013e61147a565b606091505b50509050806113995760405162461bcd60e51b815260206004820152603a60248201527f416464726573733a20756e61626c6520746f2073656e642076616c75652c207260448201527f6563697069656e74206d6179206861766520726576657274656400000000000060648201526084016104b6565b6000611546826040518060400160405280602081526020017f5361666545524332303a206c6f772d6c6576656c2063616c6c206661696c6564815250856001600160a01b03166115c69092919063ffffffff16565b90508051600014806115675750808060200190518101906115679190611de8565b6113995760405162461bcd60e51b815260206004820152602a60248201527f5361666545524332303a204552433230206f7065726174696f6e20646964206e6044820152691bdd081cdd58d8d9595960b21b60648201526084016104b6565b60606113d0848460008585600080866001600160a01b031685876040516115ed9190611e03565b60006040518083038185875af1925050503d806000811461162a576040519150601f19603f3d011682016040523d82523d6000602084013e61162f565b606091505b50915091506116408783838761164b565b979650505050505050565b606083156116ba5782516000036116b3576001600160a01b0385163b6116b35760405162461bcd60e51b815260206004820152601d60248201527f416464726573733a2063616c6c20746f206e6f6e2d636f6e747261637400000060448201526064016104b6565b50816113d0565b6113d083838151156116cf5781518083602001fd5b8060405162461bcd60e51b81526004016104b6919061182b565b828054828255906000526020600020908101928215611724579160200282015b82811115611724578251825591602001919060010190611709565b50611730929150611734565b5090565b5b808211156117305760008155600101611735565b6001600160a01b038116811461175e57600080fd5b50565b6000806040838503121561177457600080fd5b823561177f81611749565b946020939093013593505050565b60006020828403121561179f57600080fd5b5035919050565b6020808252825182820181905260009190848201906040850190845b818110156117de578351835292840192918401916001016117c2565b50909695505050505050565b6000602082840312156117fc57600080fd5b813561130d81611749565b60005b8381101561182257818101518382015260200161180a565b50506000910152565b602081526000825180602084015261184a816040850160208701611807565b601f01601f19169190910160400192915050565b6020808252602b908201527f526577617264734d6f64756c653a2072616e6b696e67206d757374206265203160408201526a1037b91033b932b0ba32b960a91b606082015260800190565b634e487b7160e01b600052602160045260246000fd5b6000602082840312156118d157600080fd5b81516005811061130d57600080fd5b60208082526043908201527f526577617264734d6f64756c653a20636f6e74657374206d757374206265206360408201527f6f6d706c6574656420666f72207265776172647320746f2062652070616964206060820152621bdd5d60ea1b608082015260a00190565b60208082526029908201527f526577617264734d6f64756c653a206163636f756e74206973206e6f7420647560408201526819481c185e5b595b9d60ba1b606082015260800190565b634e487b7160e01b600052601160045260246000fd5b8082018082111561088b5761088b611992565b60208082526061908201527f526577617264734d6f64756c653a20746865726520617265206e6f7420656e6f60408201527f7567682070726f706f73616c7320666f7220746861742072616e6b696e67207460608201527f6f2065786973742c2074616b696e67207469657320696e746f206163636f756e6080820152601d60fa1b60a082015260c00190565b634e487b7160e01b600052603260045260246000fd5b634e487b7160e01b600052604160045260246000fd5b6040516060810167ffffffffffffffff81118282101715611a9757611a97611a5e565b60405290565b604051601f8201601f1916810167ffffffffffffffff81118282101715611ac657611ac6611a5e565b604052919050565b80518015158114611ade57600080fd5b919050565b60006020808385031215611af657600080fd5b825167ffffffffffffffff80821115611b0e57600080fd5b9084019060608287031215611b2257600080fd5b611b2a611a74565b8251611b3581611749565b81528284015182811115611b4857600080fd5b8301601f81018813611b5957600080fd5b805183811115611b6b57611b6b611a5e565b611b7d601f8201601f19168701611a9d565b93508084528886828401011115611b9357600080fd5b611ba281878601888501611807565b50508184820152611bb560408401611ace565b60408201529695505050505050565b6020808252602a908201527f526577617264734d6f64756c653a206163636f756e7420697320746865207a65604082015269726f206164647265737360b01b606082015260800190565b600060208284031215611c2057600080fd5b5051919050565b60208082526045908201527f526577617264734d6f64756c653a2072756e20736574536f72746564416e645460408201527f69656450726f706f73616c73282920746f20706f70756c61746520746869732060608201526476616c756560d81b608082015260a00190565b60006020808385031215611ca557600080fd5b825167ffffffffffffffff80821115611cbd57600080fd5b818501915085601f830112611cd157600080fd5b815181811115611ce357611ce3611a5e565b8060051b9150611cf4848301611a9d565b8181529183018401918481019088841115611d0e57600080fd5b938501935b83851015611d2c57845182529385019390850190611d13565b98975050505050505050565b8181038181111561088b5761088b611992565b60008060408385031215611d5e57600080fd5b505080516020909101519092909150565b8181036000831280158383131683831282161715611d8f57611d8f611992565b5092915050565b600060018201611da857611da8611992565b5060010190565b808202811582820484141761088b5761088b611992565b600082611de357634e487b7160e01b600052601260045260246000fd5b500490565b600060208284031215611dfa57600080fd5b61130d82611ace565b60008251611e15818460208701611807565b919091019291505056fea2646970667358221220afd3a226938780245a0433679cb9d838c9adebcb4f1e051f056cdbe1935b028264736f6c63430008120033",
    "linkReferences": {}
  },
  "methodIdentifiers": {
    "creator()": "02d05d3f",
    "getPayees()": "27f38113",
    "highestTiedRanking()": "ebc18b9b",
    "isTied(uint256)": "2399c660",
    "lowestRanking()": "6ca1a2c7",
    "rankingPosition(uint256)": "86187488",
    "releasable(address,uint256)": "2081d631",
    "releasable(uint256)": "e4bf01a8",
    "release(address,uint256)": "0357371d",
    "release(uint256)": "37bdc99b",
    "released(address,uint256)": "cfe83070",
    "released(uint256)": "a94d373b",
    "setSortedAndTiedProposals()": "96f0e962",
    "shares(uint256)": "57a858fc",
    "sortedProposalIds()": "8a9cd550",
    "totalReleased()": "e33b7de3",
    "totalReleased(address)": "d79779b2",
    "totalShares()": "3a98ef39",
    "underlyingContest()": "f3f44fb7",
    "version()": "54fd4d50",
    "withdrawRewards()": "c7b8981c",
    "withdrawRewards(address)": "42d86693"
  },
  "id": 43
}