{
  "abi": [
    {
      "inputs": [
        {
          "internalType": "string",
          "name": "_name",
          "type": "string"
        },
        {
          "internalType": "string",
          "name": "_prompt",
          "type": "string"
        },
        {
          "internalType": "bytes32",
          "name": "_submissionMerkleRoot",
          "type": "bytes32"
        },
        {
          "internalType": "bytes32",
          "name": "_votingMerkleRoot",
          "type": "bytes32"
        },
        {
          "internalType": "uint256",
          "name": "_costToPropose",
          "type": "uint256"
        },
        {
          "internalType": "uint256",
          "name": "_percentageToCreator",
          "type": "uint256"
        },
        {
          "internalType": "uint256[]",
          "name": "_constructorIntParams",
          "type": "uint256[]"
        }
      ],
      "stateMutability": "nonpayable",
      "type": "constructor"
    },
    {
      "inputs": [],
      "name": "InvalidShortString",
      "type": "error"
    },
    {
      "inputs": [],
      "name": "NotInMerkle",
      "type": "error"
    },
    {
      "inputs": [
        {
          "internalType": "string",
          "name": "str",
          "type": "string"
        }
      ],
      "name": "StringTooLong",
      "type": "error"
    },
    {
      "inputs": [],
      "name": "TooManyMetadatas",
      "type": "error"
    },
    {
      "anonymous": false,
      "inputs": [],
      "name": "ContestCanceled",
      "type": "event"
    },
    {
      "anonymous": false,
      "inputs": [
        {
          "indexed": false,
          "internalType": "uint256",
          "name": "oldContestStart",
          "type": "uint256"
        },
        {
          "indexed": false,
          "internalType": "uint256",
          "name": "newContestStart",
          "type": "uint256"
        }
      ],
      "name": "ContestStartSet",
      "type": "event"
    },
    {
      "anonymous": false,
      "inputs": [
        {
          "indexed": false,
          "internalType": "address",
          "name": "oldCreator",
          "type": "address"
        },
        {
          "indexed": false,
          "internalType": "address",
          "name": "newCreator",
          "type": "address"
        }
      ],
      "name": "CreatorSet",
      "type": "event"
    },
    {
      "anonymous": false,
      "inputs": [
        {
          "indexed": false,
          "internalType": "uint256",
          "name": "oldDownvotingAllowed",
          "type": "uint256"
        },
        {
          "indexed": false,
          "internalType": "uint256",
          "name": "newDownvotingAllowed",
          "type": "uint256"
        }
      ],
      "name": "DownvotingAllowedSet",
      "type": "event"
    },
    {
      "anonymous": false,
      "inputs": [],
      "name": "EIP712DomainChanged",
      "type": "event"
    },
    {
      "anonymous": false,
      "inputs": [
        {
          "indexed": false,
          "internalType": "string",
          "name": "name",
          "type": "string"
        },
        {
          "indexed": false,
          "internalType": "address",
          "name": "creator",
          "type": "address"
        }
      ],
      "name": "JokeraceCreated",
      "type": "event"
    },
    {
      "anonymous": false,
      "inputs": [
        {
          "indexed": false,
          "internalType": "uint256",
          "name": "oldMaxProposalCount",
          "type": "uint256"
        },
        {
          "indexed": false,
          "internalType": "uint256",
          "name": "newMaxProposalCount",
          "type": "uint256"
        }
      ],
      "name": "MaxProposalCountSet",
      "type": "event"
    },
    {
      "anonymous": false,
      "inputs": [
        {
          "indexed": false,
          "internalType": "uint256",
          "name": "oldNumAllowedProposalSubmissions",
          "type": "uint256"
        },
        {
          "indexed": false,
          "internalType": "uint256",
          "name": "newNumAllowedProposalSubmissions",
          "type": "uint256"
        }
      ],
      "name": "NumAllowedProposalSubmissionsSet",
      "type": "event"
    },
    {
      "anonymous": false,
      "inputs": [
        {
          "indexed": false,
          "internalType": "contract RewardsModule",
          "name": "oldOfficialRewardsModule",
          "type": "address"
        },
        {
          "indexed": false,
          "internalType": "contract RewardsModule",
          "name": "newOfficialRewardsModule",
          "type": "address"
        }
      ],
      "name": "OfficialRewardsModuleSet",
      "type": "event"
    },
    {
      "anonymous": false,
      "inputs": [
        {
          "indexed": false,
          "internalType": "address",
          "name": "to",
          "type": "address"
        },
        {
          "indexed": false,
          "internalType": "uint256",
          "name": "amount",
          "type": "uint256"
        }
      ],
      "name": "PaymentReleased",
      "type": "event"
    },
    {
      "anonymous": false,
      "inputs": [
        {
          "indexed": false,
          "internalType": "uint256",
          "name": "proposalId",
          "type": "uint256"
        },
        {
          "indexed": false,
          "internalType": "address",
          "name": "proposer",
          "type": "address"
        }
      ],
      "name": "ProposalCreated",
      "type": "event"
    },
    {
      "anonymous": false,
      "inputs": [
        {
          "indexed": false,
          "internalType": "uint256[]",
          "name": "proposalIds",
          "type": "uint256[]"
        }
      ],
      "name": "ProposalsDeleted",
      "type": "event"
    },
    {
      "anonymous": false,
      "inputs": [
        {
          "indexed": true,
          "internalType": "address",
          "name": "voter",
          "type": "address"
        },
        {
          "indexed": false,
          "internalType": "uint256",
          "name": "proposalId",
          "type": "uint256"
        },
        {
          "indexed": false,
          "internalType": "uint8",
          "name": "support",
          "type": "uint8"
        },
        {
          "indexed": false,
          "internalType": "uint256",
          "name": "numVotes",
          "type": "uint256"
        }
      ],
      "name": "VoteCast",
      "type": "event"
    },
    {
      "anonymous": false,
      "inputs": [
        {
          "indexed": false,
          "internalType": "uint256",
          "name": "oldVotingDelay",
          "type": "uint256"
        },
        {
          "indexed": false,
          "internalType": "uint256",
          "name": "newVotingDelay",
          "type": "uint256"
        }
      ],
      "name": "VotingDelaySet",
      "type": "event"
    },
    {
      "anonymous": false,
      "inputs": [
        {
          "indexed": false,
          "internalType": "uint256",
          "name": "oldVotingPeriod",
          "type": "uint256"
        },
        {
          "indexed": false,
          "internalType": "uint256",
          "name": "newVotingPeriod",
          "type": "uint256"
        }
      ],
      "name": "VotingPeriodSet",
      "type": "event"
    },
    {
      "inputs": [],
      "name": "AMOUNT_FOR_SUMBITTER_PROOF",
      "outputs": [
        {
          "internalType": "uint256",
          "name": "",
          "type": "uint256"
        }
      ],
      "stateMutability": "view",
      "type": "function"
    },
    {
      "inputs": [],
      "name": "JK_LABS_ADDRESS",
      "outputs": [
        {
          "internalType": "address",
          "name": "",
          "type": "address"
        }
      ],
      "stateMutability": "view",
      "type": "function"
    },
    {
      "inputs": [],
      "name": "METADATAS_COUNT",
      "outputs": [
        {
          "internalType": "uint256",
          "name": "",
          "type": "uint256"
        }
      ],
      "stateMutability": "view",
      "type": "function"
    },
    {
      "inputs": [
        {
          "internalType": "address",
          "name": "",
          "type": "address"
        }
      ],
      "name": "addressSubmitterVerified",
      "outputs": [
        {
          "internalType": "bool",
          "name": "",
          "type": "bool"
        }
      ],
      "stateMutability": "view",
      "type": "function"
    },
    {
      "inputs": [
        {
          "internalType": "address",
          "name": "",
          "type": "address"
        }
      ],
      "name": "addressTotalCastVoteCounts",
      "outputs": [
        {
          "internalType": "uint256",
          "name": "",
          "type": "uint256"
        }
      ],
      "stateMutability": "view",
      "type": "function"
    },
    {
      "inputs": [
        {
          "internalType": "address",
          "name": "",
          "type": "address"
        }
      ],
      "name": "addressTotalVotes",
      "outputs": [
        {
          "internalType": "uint256",
          "name": "",
          "type": "uint256"
        }
      ],
      "stateMutability": "view",
      "type": "function"
    },
    {
      "inputs": [
        {
          "internalType": "address",
          "name": "",
          "type": "address"
        }
      ],
      "name": "addressTotalVotesVerified",
      "outputs": [
        {
          "internalType": "bool",
          "name": "",
          "type": "bool"
        }
      ],
      "stateMutability": "view",
      "type": "function"
    },
    {
      "inputs": [
        {
          "internalType": "uint256",
          "name": "",
          "type": "uint256"
        }
      ],
      "name": "addressesThatHaveVoted",
      "outputs": [
        {
          "internalType": "address",
          "name": "",
          "type": "address"
        }
      ],
      "stateMutability": "view",
      "type": "function"
    },
    {
      "inputs": [],
      "name": "allProposalTotalVotes",
      "outputs": [
        {
          "internalType": "uint256[]",
          "name": "proposalIdsReturn",
          "type": "uint256[]"
        },
        {
          "components": [
            {
              "internalType": "uint256",
              "name": "forVotes",
              "type": "uint256"
            },
            {
              "internalType": "uint256",
              "name": "againstVotes",
              "type": "uint256"
            }
          ],
          "internalType": "struct GovernorCountingSimple.VoteCounts[]",
          "name": "proposalVoteCountsArrayReturn",
          "type": "tuple[]"
        }
      ],
      "stateMutability": "view",
      "type": "function"
    },
    {
      "inputs": [],
      "name": "allProposalTotalVotesWithoutDeleted",
      "outputs": [
        {
          "internalType": "uint256[]",
          "name": "proposalIdsReturn",
          "type": "uint256[]"
        },
        {
          "components": [
            {
              "internalType": "uint256",
              "name": "forVotes",
              "type": "uint256"
            },
            {
              "internalType": "uint256",
              "name": "againstVotes",
              "type": "uint256"
            }
          ],
          "internalType": "struct GovernorCountingSimple.VoteCounts[]",
          "name": "proposalVoteCountsArrayReturn",
          "type": "tuple[]"
        }
      ],
      "stateMutability": "view",
      "type": "function"
    },
    {
      "inputs": [],
      "name": "cancel",
      "outputs": [],
      "stateMutability": "nonpayable",
      "type": "function"
    },
    {
      "inputs": [],
      "name": "canceled",
      "outputs": [
        {
          "internalType": "bool",
          "name": "",
          "type": "bool"
        }
      ],
      "stateMutability": "view",
      "type": "function"
    },
    {
      "inputs": [
        {
          "internalType": "uint256",
          "name": "proposalId",
          "type": "uint256"
        },
        {
          "internalType": "uint8",
          "name": "support",
          "type": "uint8"
        },
        {
          "internalType": "uint256",
          "name": "totalVotes",
          "type": "uint256"
        },
        {
          "internalType": "uint256",
          "name": "numVotes",
          "type": "uint256"
        },
        {
          "internalType": "bytes32[]",
          "name": "proof",
          "type": "bytes32[]"
        }
      ],
      "name": "castVote",
      "outputs": [
        {
          "internalType": "uint256",
          "name": "",
          "type": "uint256"
        }
      ],
      "stateMutability": "nonpayable",
      "type": "function"
    },
    {
      "inputs": [
        {
          "internalType": "uint256",
          "name": "proposalId",
          "type": "uint256"
        },
        {
          "internalType": "uint8",
          "name": "support",
          "type": "uint8"
        },
        {
          "internalType": "uint256",
          "name": "numVotes",
          "type": "uint256"
        }
      ],
      "name": "castVoteWithoutProof",
      "outputs": [
        {
          "internalType": "uint256",
          "name": "",
          "type": "uint256"
        }
      ],
      "stateMutability": "nonpayable",
      "type": "function"
    },
    {
      "inputs": [
        {
          "internalType": "address",
          "name": "addressToCheck",
          "type": "address"
        },
        {
          "internalType": "uint256",
          "name": "amount",
          "type": "uint256"
        },
        {
          "internalType": "bytes32[]",
          "name": "proof",
          "type": "bytes32[]"
        },
        {
          "internalType": "bool",
          "name": "voting",
          "type": "bool"
        }
      ],
      "name": "checkProof",
      "outputs": [
        {
          "internalType": "bool",
          "name": "verified",
          "type": "bool"
        }
      ],
      "stateMutability": "view",
      "type": "function"
    },
    {
      "inputs": [
        {
          "internalType": "address",
          "name": "userAddress",
          "type": "address"
        }
      ],
      "name": "contestAddressTotalVotesCast",
      "outputs": [
        {
          "internalType": "uint256",
          "name": "userTotalVotesCast",
          "type": "uint256"
        }
      ],
      "stateMutability": "view",
      "type": "function"
    },
    {
      "inputs": [],
      "name": "contestDeadline",
      "outputs": [
        {
          "internalType": "uint256",
          "name": "",
          "type": "uint256"
        }
      ],
      "stateMutability": "view",
      "type": "function"
    },
    {
      "inputs": [],
      "name": "contestStart",
      "outputs": [
        {
          "internalType": "uint256",
          "name": "",
          "type": "uint256"
        }
      ],
      "stateMutability": "view",
      "type": "function"
    },
    {
      "inputs": [],
      "name": "costToPropose",
      "outputs": [
        {
          "internalType": "uint256",
          "name": "",
          "type": "uint256"
        }
      ],
      "stateMutability": "view",
      "type": "function"
    },
    {
      "inputs": [],
      "name": "creator",
      "outputs": [
        {
          "internalType": "address",
          "name": "",
          "type": "address"
        }
      ],
      "stateMutability": "view",
      "type": "function"
    },
    {
      "inputs": [
        {
          "internalType": "uint256[]",
          "name": "proposalIdsToDelete",
          "type": "uint256[]"
        }
      ],
      "name": "deleteProposals",
      "outputs": [],
      "stateMutability": "nonpayable",
      "type": "function"
    },
    {
      "inputs": [
        {
          "internalType": "uint256",
          "name": "",
          "type": "uint256"
        }
      ],
      "name": "deletedProposalIds",
      "outputs": [
        {
          "internalType": "uint256",
          "name": "",
          "type": "uint256"
        }
      ],
      "stateMutability": "view",
      "type": "function"
    },
    {
      "inputs": [],
      "name": "downvotingAllowed",
      "outputs": [
        {
          "internalType": "uint256",
          "name": "",
          "type": "uint256"
        }
      ],
      "stateMutability": "view",
      "type": "function"
    },
    {
      "inputs": [],
      "name": "eip712Domain",
      "outputs": [
        {
          "internalType": "bytes1",
          "name": "fields",
          "type": "bytes1"
        },
        {
          "internalType": "string",
          "name": "name",
          "type": "string"
        },
        {
          "internalType": "string",
          "name": "version",
          "type": "string"
        },
        {
          "internalType": "uint256",
          "name": "chainId",
          "type": "uint256"
        },
        {
          "internalType": "address",
          "name": "verifyingContract",
          "type": "address"
        },
        {
          "internalType": "bytes32",
          "name": "salt",
          "type": "bytes32"
        },
        {
          "internalType": "uint256[]",
          "name": "extensions",
          "type": "uint256[]"
        }
      ],
      "stateMutability": "view",
      "type": "function"
    },
    {
      "inputs": [],
      "name": "getAllAddressesThatHaveVoted",
      "outputs": [
        {
          "internalType": "address[]",
          "name": "",
          "type": "address[]"
        }
      ],
      "stateMutability": "view",
      "type": "function"
    },
    {
      "inputs": [],
      "name": "getAllDeletedProposalIds",
      "outputs": [
        {
          "internalType": "uint256[]",
          "name": "",
          "type": "uint256[]"
        }
      ],
      "stateMutability": "view",
      "type": "function"
    },
    {
      "inputs": [],
      "name": "getAllProposalAuthors",
      "outputs": [
        {
          "internalType": "address[]",
          "name": "",
          "type": "address[]"
        }
      ],
      "stateMutability": "view",
      "type": "function"
    },
    {
      "inputs": [],
      "name": "getAllProposalIds",
      "outputs": [
        {
          "internalType": "uint256[]",
          "name": "",
          "type": "uint256[]"
        }
      ],
      "stateMutability": "view",
      "type": "function"
    },
    {
      "inputs": [
        {
          "internalType": "address",
          "name": "account",
          "type": "address"
        }
      ],
      "name": "getNumSubmissions",
      "outputs": [
        {
          "internalType": "uint256",
          "name": "",
          "type": "uint256"
        }
      ],
      "stateMutability": "view",
      "type": "function"
    },
    {
      "inputs": [
        {
          "internalType": "uint256",
          "name": "proposalId",
          "type": "uint256"
        }
      ],
      "name": "getProposal",
      "outputs": [
        {
          "components": [
            {
              "internalType": "address",
              "name": "author",
              "type": "address"
            },
            {
              "internalType": "bool",
              "name": "exists",
              "type": "bool"
            },
            {
              "internalType": "string",
              "name": "description",
              "type": "string"
            },
            {
              "components": [
                {
                  "internalType": "address",
                  "name": "targetAddress",
                  "type": "address"
                }
              ],
              "internalType": "struct IGovernor.TargetMetadata",
              "name": "targetMetadata",
              "type": "tuple"
            },
            {
              "components": [
                {
                  "internalType": "address[]",
                  "name": "signers",
                  "type": "address[]"
                },
                {
                  "internalType": "uint256",
                  "name": "threshold",
                  "type": "uint256"
                }
              ],
              "internalType": "struct IGovernor.SafeMetadata",
              "name": "safeMetadata",
              "type": "tuple"
            }
          ],
          "internalType": "struct IGovernor.ProposalCore",
          "name": "",
          "type": "tuple"
        }
      ],
      "stateMutability": "view",
      "type": "function"
    },
    {
      "inputs": [
        {
          "components": [
            {
              "internalType": "address",
              "name": "author",
              "type": "address"
            },
            {
              "internalType": "bool",
              "name": "exists",
              "type": "bool"
            },
            {
              "internalType": "string",
              "name": "description",
              "type": "string"
            },
            {
              "components": [
                {
                  "internalType": "address",
                  "name": "targetAddress",
                  "type": "address"
                }
              ],
              "internalType": "struct IGovernor.TargetMetadata",
              "name": "targetMetadata",
              "type": "tuple"
            },
            {
              "components": [
                {
                  "internalType": "address[]",
                  "name": "signers",
                  "type": "address[]"
                },
                {
                  "internalType": "uint256",
                  "name": "threshold",
                  "type": "uint256"
                }
              ],
              "internalType": "struct IGovernor.SafeMetadata",
              "name": "safeMetadata",
              "type": "tuple"
            }
          ],
          "internalType": "struct IGovernor.ProposalCore",
          "name": "proposal",
          "type": "tuple"
        }
      ],
      "name": "hashProposal",
      "outputs": [
        {
          "internalType": "uint256",
          "name": "",
          "type": "uint256"
        }
      ],
      "stateMutability": "pure",
      "type": "function"
    },
    {
      "inputs": [],
      "name": "highestTiedRanking",
      "outputs": [
        {
          "internalType": "uint256",
          "name": "",
          "type": "uint256"
        }
      ],
      "stateMutability": "view",
      "type": "function"
    },
    {
      "inputs": [
        {
          "internalType": "uint256",
          "name": "proposalId",
          "type": "uint256"
        }
      ],
      "name": "isProposalDeleted",
      "outputs": [
        {
          "internalType": "bool",
          "name": "",
          "type": "bool"
        }
      ],
      "stateMutability": "view",
      "type": "function"
    },
    {
      "inputs": [
        {
          "internalType": "uint256",
          "name": "ranking",
          "type": "uint256"
        }
      ],
      "name": "isTied",
      "outputs": [
        {
          "internalType": "bool",
          "name": "",
          "type": "bool"
        }
      ],
      "stateMutability": "view",
      "type": "function"
    },
    {
      "inputs": [],
      "name": "lowestRanking",
      "outputs": [
        {
          "internalType": "uint256",
          "name": "",
          "type": "uint256"
        }
      ],
      "stateMutability": "view",
      "type": "function"
    },
    {
      "inputs": [],
      "name": "maxProposalCount",
      "outputs": [
        {
          "internalType": "uint256",
          "name": "",
          "type": "uint256"
        }
      ],
      "stateMutability": "view",
      "type": "function"
    },
    {
      "inputs": [],
      "name": "name",
      "outputs": [
        {
          "internalType": "string",
          "name": "",
          "type": "string"
        }
      ],
      "stateMutability": "view",
      "type": "function"
    },
    {
      "inputs": [],
      "name": "numAllowedProposalSubmissions",
      "outputs": [
        {
          "internalType": "uint256",
          "name": "",
          "type": "uint256"
        }
      ],
      "stateMutability": "view",
      "type": "function"
    },
    {
      "inputs": [
        {
          "internalType": "address",
          "name": "",
          "type": "address"
        }
      ],
      "name": "numSubmissions",
      "outputs": [
        {
          "internalType": "uint256",
          "name": "",
          "type": "uint256"
        }
      ],
      "stateMutability": "view",
      "type": "function"
    },
    {
      "inputs": [],
      "name": "officialRewardsModule",
      "outputs": [
        {
          "internalType": "contract RewardsModule",
          "name": "",
          "type": "address"
        }
      ],
      "stateMutability": "view",
      "type": "function"
    },
    {
      "inputs": [],
      "name": "percentageToCreator",
      "outputs": [
        {
          "internalType": "uint256",
          "name": "",
          "type": "uint256"
        }
      ],
      "stateMutability": "view",
      "type": "function"
    },
    {
      "inputs": [],
      "name": "prompt",
      "outputs": [
        {
          "internalType": "string",
          "name": "",
          "type": "string"
        }
      ],
      "stateMutability": "view",
      "type": "function"
    },
    {
      "inputs": [
        {
          "internalType": "uint256",
          "name": "proposalId",
          "type": "uint256"
        },
        {
          "internalType": "address",
          "name": "userAddress",
          "type": "address"
        }
      ],
      "name": "proposalAddressVotes",
      "outputs": [
        {
          "internalType": "uint256",
          "name": "forVotes",
          "type": "uint256"
        },
        {
          "internalType": "uint256",
          "name": "againstVotes",
          "type": "uint256"
        }
      ],
      "stateMutability": "view",
      "type": "function"
    },
    {
      "inputs": [
        {
          "internalType": "uint256",
          "name": "proposalId",
          "type": "uint256"
        }
      ],
      "name": "proposalAddressesHaveVoted",
      "outputs": [
        {
          "internalType": "address[]",
          "name": "",
          "type": "address[]"
        }
      ],
      "stateMutability": "view",
      "type": "function"
    },
    {
      "inputs": [
        {
          "internalType": "uint256",
          "name": "",
          "type": "uint256"
        }
      ],
      "name": "proposalAuthors",
      "outputs": [
        {
          "internalType": "address",
          "name": "",
          "type": "address"
        }
      ],
      "stateMutability": "view",
      "type": "function"
    },
    {
      "inputs": [
        {
          "internalType": "uint256",
          "name": "",
          "type": "uint256"
        }
      ],
      "name": "proposalIds",
      "outputs": [
        {
          "internalType": "uint256",
          "name": "",
          "type": "uint256"
        }
      ],
      "stateMutability": "view",
      "type": "function"
    },
    {
      "inputs": [
        {
          "internalType": "uint256",
          "name": "",
          "type": "uint256"
        }
      ],
      "name": "proposalIsDeleted",
      "outputs": [
        {
          "internalType": "bool",
          "name": "",
          "type": "bool"
        }
      ],
      "stateMutability": "view",
      "type": "function"
    },
    {
      "inputs": [
        {
          "internalType": "uint256",
          "name": "proposalId",
          "type": "uint256"
        }
      ],
      "name": "proposalVotes",
      "outputs": [
        {
          "internalType": "uint256",
          "name": "forVotes",
          "type": "uint256"
        },
        {
          "internalType": "uint256",
          "name": "againstVotes",
          "type": "uint256"
        }
      ],
      "stateMutability": "view",
      "type": "function"
    },
    {
      "inputs": [
        {
          "internalType": "uint256",
          "name": "",
          "type": "uint256"
        }
      ],
      "name": "proposalVotesStructs",
      "outputs": [
        {
          "components": [
            {
              "internalType": "uint256",
              "name": "forVotes",
              "type": "uint256"
            },
            {
              "internalType": "uint256",
              "name": "againstVotes",
              "type": "uint256"
            }
          ],
          "internalType": "struct GovernorCountingSimple.VoteCounts",
          "name": "proposalVoteCounts",
          "type": "tuple"
        }
      ],
      "stateMutability": "view",
      "type": "function"
    },
    {
      "inputs": [
        {
          "internalType": "uint256",
          "name": "",
          "type": "uint256"
        }
      ],
      "name": "proposals",
      "outputs": [
        {
          "internalType": "address",
          "name": "author",
          "type": "address"
        },
        {
          "internalType": "bool",
          "name": "exists",
          "type": "bool"
        },
        {
          "internalType": "string",
          "name": "description",
          "type": "string"
        },
        {
          "components": [
            {
              "internalType": "address",
              "name": "targetAddress",
              "type": "address"
            }
          ],
          "internalType": "struct IGovernor.TargetMetadata",
          "name": "targetMetadata",
          "type": "tuple"
        },
        {
          "components": [
            {
              "internalType": "address[]",
              "name": "signers",
              "type": "address[]"
            },
            {
              "internalType": "uint256",
              "name": "threshold",
              "type": "uint256"
            }
          ],
          "internalType": "struct IGovernor.SafeMetadata",
          "name": "safeMetadata",
          "type": "tuple"
        }
      ],
      "stateMutability": "view",
      "type": "function"
    },
    {
      "inputs": [
        {
          "components": [
            {
              "internalType": "address",
              "name": "author",
              "type": "address"
            },
            {
              "internalType": "bool",
              "name": "exists",
              "type": "bool"
            },
            {
              "internalType": "string",
              "name": "description",
              "type": "string"
            },
            {
              "components": [
                {
                  "internalType": "address",
                  "name": "targetAddress",
                  "type": "address"
                }
              ],
              "internalType": "struct IGovernor.TargetMetadata",
              "name": "targetMetadata",
              "type": "tuple"
            },
            {
              "components": [
                {
                  "internalType": "address[]",
                  "name": "signers",
                  "type": "address[]"
                },
                {
                  "internalType": "uint256",
                  "name": "threshold",
                  "type": "uint256"
                }
              ],
              "internalType": "struct IGovernor.SafeMetadata",
              "name": "safeMetadata",
              "type": "tuple"
            }
          ],
          "internalType": "struct IGovernor.ProposalCore",
          "name": "proposal",
          "type": "tuple"
        },
        {
          "internalType": "bytes32[]",
          "name": "proof",
          "type": "bytes32[]"
        }
      ],
      "name": "propose",
      "outputs": [
        {
          "internalType": "uint256",
          "name": "",
          "type": "uint256"
        }
      ],
      "stateMutability": "payable",
      "type": "function"
    },
    {
      "inputs": [
        {
          "components": [
            {
              "internalType": "address",
              "name": "author",
              "type": "address"
            },
            {
              "internalType": "bool",
              "name": "exists",
              "type": "bool"
            },
            {
              "internalType": "string",
              "name": "description",
              "type": "string"
            },
            {
              "components": [
                {
                  "internalType": "address",
                  "name": "targetAddress",
                  "type": "address"
                }
              ],
              "internalType": "struct IGovernor.TargetMetadata",
              "name": "targetMetadata",
              "type": "tuple"
            },
            {
              "components": [
                {
                  "internalType": "address[]",
                  "name": "signers",
                  "type": "address[]"
                },
                {
                  "internalType": "uint256",
                  "name": "threshold",
                  "type": "uint256"
                }
              ],
              "internalType": "struct IGovernor.SafeMetadata",
              "name": "safeMetadata",
              "type": "tuple"
            }
          ],
          "internalType": "struct IGovernor.ProposalCore",
          "name": "proposal",
          "type": "tuple"
        }
      ],
      "name": "proposeWithoutProof",
      "outputs": [
        {
          "internalType": "uint256",
          "name": "",
          "type": "uint256"
        }
      ],
      "stateMutability": "nonpayable",
      "type": "function"
    },
    {
      "inputs": [
        {
          "internalType": "uint256",
          "name": "ranking",
          "type": "uint256"
        }
      ],
      "name": "rankingPosition",
      "outputs": [
        {
          "internalType": "uint256",
          "name": "",
          "type": "uint256"
        }
      ],
      "stateMutability": "view",
      "type": "function"
    },
    {
      "inputs": [
        {
          "internalType": "contract RewardsModule",
          "name": "officialRewardsModule_",
          "type": "address"
        }
      ],
      "name": "setOfficialRewardsModule",
      "outputs": [],
      "stateMutability": "nonpayable",
      "type": "function"
    },
    {
      "inputs": [],
      "name": "setSortedAndTiedProposals",
      "outputs": [],
      "stateMutability": "nonpayable",
      "type": "function"
    },
    {
      "inputs": [],
      "name": "setSortedAndTiedProposalsHasBeenRun",
      "outputs": [
        {
          "internalType": "bool",
          "name": "",
          "type": "bool"
        }
      ],
      "stateMutability": "view",
      "type": "function"
    },
    {
      "inputs": [],
      "name": "sortedProposalIds",
      "outputs": [
        {
          "internalType": "uint256[]",
          "name": "",
          "type": "uint256[]"
        }
      ],
      "stateMutability": "view",
      "type": "function"
    },
    {
      "inputs": [
        {
          "internalType": "bool",
          "name": "excludeDeletedProposals",
          "type": "bool"
        }
      ],
      "name": "sortedProposals",
      "outputs": [
        {
          "internalType": "uint256[]",
          "name": "sortedProposalIdsReturn",
          "type": "uint256[]"
        }
      ],
      "stateMutability": "view",
      "type": "function"
    },
    {
      "inputs": [],
      "name": "state",
      "outputs": [
        {
          "internalType": "enum IGovernor.ContestState",
          "name": "",
          "type": "uint8"
        }
      ],
      "stateMutability": "view",
      "type": "function"
    },
    {
      "inputs": [],
      "name": "submissionMerkleRoot",
      "outputs": [
        {
          "internalType": "bytes32",
          "name": "",
          "type": "bytes32"
        }
      ],
      "stateMutability": "view",
      "type": "function"
    },
    {
      "inputs": [
        {
          "internalType": "bytes4",
          "name": "interfaceId",
          "type": "bytes4"
        }
      ],
      "name": "supportsInterface",
      "outputs": [
        {
          "internalType": "bool",
          "name": "",
          "type": "bool"
        }
      ],
      "stateMutability": "view",
      "type": "function"
    },
    {
      "inputs": [
        {
          "internalType": "uint256",
          "name": "",
          "type": "uint256"
        }
      ],
      "name": "tiedAdjustedRankingPosition",
      "outputs": [
        {
          "internalType": "uint256",
          "name": "",
          "type": "uint256"
        }
      ],
      "stateMutability": "view",
      "type": "function"
    },
    {
      "inputs": [],
      "name": "totalVotesCast",
      "outputs": [
        {
          "internalType": "uint256",
          "name": "",
          "type": "uint256"
        }
      ],
      "stateMutability": "view",
      "type": "function"
    },
    {
      "inputs": [
        {
          "components": [
            {
              "internalType": "address",
              "name": "author",
              "type": "address"
            },
            {
              "internalType": "bool",
              "name": "exists",
              "type": "bool"
            },
            {
              "internalType": "string",
              "name": "description",
              "type": "string"
            },
            {
              "components": [
                {
                  "internalType": "address",
                  "name": "targetAddress",
                  "type": "address"
                }
              ],
              "internalType": "struct IGovernor.TargetMetadata",
              "name": "targetMetadata",
              "type": "tuple"
            },
            {
              "components": [
                {
                  "internalType": "address[]",
                  "name": "signers",
                  "type": "address[]"
                },
                {
                  "internalType": "uint256",
                  "name": "threshold",
                  "type": "uint256"
                }
              ],
              "internalType": "struct IGovernor.SafeMetadata",
              "name": "safeMetadata",
              "type": "tuple"
            }
          ],
          "internalType": "struct IGovernor.ProposalCore",
          "name": "proposal",
          "type": "tuple"
        }
      ],
      "name": "validateProposalData",
      "outputs": [
        {
          "internalType": "bool",
          "name": "dataValidated",
          "type": "bool"
        }
      ],
      "stateMutability": "nonpayable",
      "type": "function"
    },
    {
      "inputs": [
        {
          "internalType": "address",
          "name": "account",
          "type": "address"
        },
        {
          "internalType": "bytes32[]",
          "name": "proof",
          "type": "bytes32[]"
        }
      ],
      "name": "verifyProposer",
      "outputs": [
        {
          "internalType": "bool",
          "name": "verified",
          "type": "bool"
        }
      ],
      "stateMutability": "nonpayable",
      "type": "function"
    },
    {
      "inputs": [
        {
          "internalType": "address",
          "name": "account",
          "type": "address"
        },
        {
          "internalType": "uint256",
          "name": "totalVotes",
          "type": "uint256"
        },
        {
          "internalType": "bytes32[]",
          "name": "proof",
          "type": "bytes32[]"
        }
      ],
      "name": "verifyVoter",
      "outputs": [
        {
          "internalType": "bool",
          "name": "verified",
          "type": "bool"
        }
      ],
      "stateMutability": "nonpayable",
      "type": "function"
    },
    {
      "inputs": [],
      "name": "version",
      "outputs": [
        {
          "internalType": "string",
          "name": "",
          "type": "string"
        }
      ],
      "stateMutability": "view",
      "type": "function"
    },
    {
      "inputs": [],
      "name": "voteStart",
      "outputs": [
        {
          "internalType": "uint256",
          "name": "",
          "type": "uint256"
        }
      ],
      "stateMutability": "view",
      "type": "function"
    },
    {
      "inputs": [],
      "name": "votingDelay",
      "outputs": [
        {
          "internalType": "uint256",
          "name": "",
          "type": "uint256"
        }
      ],
      "stateMutability": "view",
      "type": "function"
    },
    {
      "inputs": [],
      "name": "votingMerkleRoot",
      "outputs": [
        {
          "internalType": "bytes32",
          "name": "",
          "type": "bytes32"
        }
      ],
      "stateMutability": "view",
      "type": "function"
    },
    {
      "inputs": [],
      "name": "votingPeriod",
      "outputs": [
        {
          "internalType": "uint256",
          "name": "",
          "type": "uint256"
        }
      ],
      "stateMutability": "view",
      "type": "function"
    }
  ],
  "bytecode": {
    "object": "0x6101a0604052601b805460ff191690553480156200001c57600080fd5b506040516200534d3803806200534d8339810160408190526200003f916200066d565b8060008151811062000055576200005562000791565b60200260200101518160018151811062000073576200007362000791565b60200260200101518260028151811062000091576200009162000791565b602002602001015183600381518110620000af57620000af62000791565b602002602001015184600481518110620000cd57620000cd62000791565b602002602001015185600581518110620000eb57620000eb62000791565b60200260200101518c8c8c8c8c8c8383876200010c6200029c60201b60201c565b62000119826000620002b9565b610120526200012a816001620002b9565b61014052815160208084019190912060e052815190820120610100524660a052620001b860e05161010051604080517f8b73c3c69bb8fe3d512ecc4cf759cc79239f7b179b0ffacaa9a75d522b39400f60208201529081019290925260608201524660808201523060a082015260009060c00160405160208183030381529060405280519060200120905090565b60805250503060c05261016091909152610180526002620001da878262000836565b506003620001e9868262000836565b50600c829055600d8190556040517f1eae03a78f765227bc1e8574db32390cefa5b3c0a954017973e497e40a1237349062000228908890339062000930565b60405180910390a15050505050506200024786620002f260201b60201c565b620002528562000333565b6200025d8462000374565b62000268836200041b565b62000273826200045c565b6200027e816200049d565b6200028933620004de565b505050505050505050505050506200099d565b604080518082019091526003815262342e3160e81b602082015290565b6000602083511015620002d957620002d18362000547565b9050620002ec565b81620002e6848262000836565b5060ff90505b92915050565b60115460408051918252602082018390527fd299feb1d7d9345a48559601c471c3be7eea9a11f21d5e86809198f40a974db4910160405180910390a1601155565b60125460408051918252602082018390527fc565b045403dc03c2eea82b81a0465edad9e2e7fc4d97e11421c209da93d7a93910160405180910390a1601255565b60008111620003da5760405162461bcd60e51b815260206004820152602760248201527f476f7665726e6f7253657474696e67733a20766f74696e6720706572696f6420604482015266746f6f206c6f7760c81b60648201526084015b60405180910390fd5b60135460408051918252602082018390527f7e3f7f0708a84de9203036abaa450dccc85ad5ff52f78c170f3edb55cf5e8828910160405180910390a1601355565b60145460408051918252602082018390527fe971b819c7fb95c72451f557226aceb5baaf4994a9d39a79bbfa0040e87500b9910160405180910390a1601455565b60155460408051918252602082018390527f4984ec996723330ee95979ed65a2a4b41edd914e68a187efe92596474643bdff910160405180910390a1601555565b60165460408051918252602082018390527f9c7b27f091caef3a83be73d89320404fa0c4a52993685ff0651672e49e6e55ab910160405180910390a1601655565b601754604080516001600160a01b03928316815291831660208301527fc30034fc2e9697980e08935bbc287db3eaa44a4aa113ef4c108b356adbf911ce910160405180910390a1601780546001600160a01b0319166001600160a01b0392909216919091179055565b600080829050601f8151111562000575578260405163305a27a960e01b8152600401620003d191906200095c565b8051620005828262000978565b179392505050565b634e487b7160e01b600052604160045260246000fd5b604051601f8201601f191681016001600160401b0381118282101715620005cb57620005cb6200058a565b604052919050565b60005b83811015620005f0578181015183820152602001620005d6565b50506000910152565b600082601f8301126200060b57600080fd5b81516001600160401b038111156200062757620006276200058a565b6200063c601f8201601f1916602001620005a0565b8181528460208386010111156200065257600080fd5b62000665826020830160208701620005d3565b949350505050565b600080600080600080600060e0888a0312156200068957600080fd5b87516001600160401b0380821115620006a157600080fd5b620006af8b838c01620005f9565b985060209150818a015181811115620006c757600080fd5b620006d58c828d01620005f9565b98505060408a0151965060608a0151955060808a0151945060a08a0151935060c08a0151818111156200070757600080fd5b8a01601f81018c136200071957600080fd5b8051828111156200072e576200072e6200058a565b8060051b925062000741848401620005a0565b818152928201840192848101908e8511156200075c57600080fd5b928501925b848410156200077c5783518252928501929085019062000761565b80965050505050505092959891949750929550565b634e487b7160e01b600052603260045260246000fd5b600181811c90821680620007bc57607f821691505b602082108103620007dd57634e487b7160e01b600052602260045260246000fd5b50919050565b601f8211156200083157600081815260208120601f850160051c810160208610156200080c5750805b601f850160051c820191505b818110156200082d5782815560010162000818565b5050505b505050565b81516001600160401b038111156200085257620008526200058a565b6200086a81620008638454620007a7565b84620007e3565b602080601f831160018114620008a25760008415620008895750858301515b600019600386901b1c1916600185901b1785556200082d565b600085815260208120601f198616915b82811015620008d357888601518255948401946001909101908401620008b2565b5085821015620008f25787850151600019600388901b60f8161c191681555b5050505050600190811b01905550565b600081518084526200091c816020860160208601620005d3565b601f01601f19169290920160200192915050565b60408152600062000945604083018562000902565b905060018060a01b03831660208301529392505050565b60208152600062000971602083018462000902565b9392505050565b80516020808301519190811015620007dd5760001960209190910360031b1b16919050565b60805160a05160c05160e051610100516101205161014051610160516101805161493262000a1b60003960008181610bd901526112a8015260008181610ae40152818161108f0152818161124301526115a5015260006119b60152600061198c015260005050600050506000505060005050600050506149326000f3fe60806040526004361061040f5760003560e01c806375e509c51161021e578063c7f758a811610123578063ebc18b9b116100ab578063f0a7db0a1161007a578063f0a7db0a14610ce6578063f4f3d7ec14610d06578063f79c017214610d26578063fb8ddab414610d56578063fb9bf8d414610d7657600080fd5b8063ebc18b9b14610c7f578063edcd1be414610c94578063eef18e1714610ca9578063efa90d3614610cd157600080fd5b8063dd96a19d116100f2578063dd96a19d14610bc7578063dea5f6a614610bfb578063e031535b14610c28578063e5eb5a4814610c3d578063ea8a1af014610c6a57600080fd5b8063c7f758a814610b3b578063cb85395014610b68578063d45a010b14610b98578063d889161914610bad57600080fd5b8063946369b5116101a6578063aec116b611610175578063aec116b614610a7c578063b323580d14610ab2578063bddc164114610ad2578063c0ffaa7814610b06578063c19d93fb14610b1957600080fd5b8063946369b514610a0357806396f0e96214610a185780639b644a2314610a2f578063a1ac6cb214610a4f57600080fd5b8063832009af116101ed578063832009af1461096157806384b0196e14610976578063861874881461099e5780638a9cd550146109be578063930de979146109d357600080fd5b806375e509c5146108e9578063785ddfe5146109165780637c65d711146109365780637de418d51461094b57600080fd5b80633b6d199b11610324578063531bd812116102ac57806360506ff61161027b57806360506ff61461086a57806365f162631461087f5780636ca1a2c71461089f5780636e4eb810146108b45780636ed815ad146108d457600080fd5b8063531bd8121461079e578063544ffc9c146107be57806354fd4d50146108085780635f953a031461083457600080fd5b8063458da87d116102f3578063458da87d14610706578063476f4d8a146107265780634d24a67f1461074657806350a5e5241461075b57806350c4b6161461077e57600080fd5b80633b6d199b1461067c5780633f9942ff146106ac578063419c533c146106c6578063427d56c2146106e657600080fd5b80630aa25e44116103a7578063262e59e911610376578063262e59e9146105f45780632c39805f1461060957806332763c221461062b578063347cf6651461064b5780633932abb11461066757600080fd5b80630aa25e44146105725780631242b7371461059257806320b3e845146105b45780632399c660146105d457600080fd5b806302d05d3f116103e357806302d05d3f146104b257806305846cae146104df57806306fdde03146104ff578063070dc5d91461052157600080fd5b80624114a814610414578063013cf08b1461043c57806301ffc9a71461046d57806302a251a31461049d575b600080fd5b34801561042057600080fd5b50610429610d8b565b6040519081526020015b60405180910390f35b34801561044857600080fd5b5061045c610457366004613b77565b610d9b565b604051610433959493929190613c2f565b34801561047957600080fd5b5061048d610488366004613c81565b610ee3565b6040519015158152602001610433565b3480156104a957600080fd5b50610429610f1a565b3480156104be57600080fd5b506104c7610f25565b6040516001600160a01b039091168152602001610433565b3480156104eb57600080fd5b506104296104fa366004613b77565b610f39565b34801561050b57600080fd5b50610514610f5a565b6040516104339190613cab565b34801561052d57600080fd5b5061056561053c366004613b77565b601a60209081526000918252604091829020825180840190935280548352600101549082015281565b6040516104339190613cbe565b34801561057e57600080fd5b506104c761058d366004613b77565b610fec565b34801561059e57600080fd5b506105a7611016565b6040516104339190613d10565b3480156105c057600080fd5b5061048d6105cf366004613d7f565b61106d565b3480156105e057600080fd5b5061048d6105ef366004613b77565b611103565b34801561060057600080fd5b50610429611147565b34801561061557600080fd5b5061061e611163565b6040516104339190613dd3565b34801561063757600080fd5b5061048d610646366004613e35565b6111c4565b34801561065757600080fd5b50610429678ac7230489e8000081565b34801561067357600080fd5b50610429611301565b34801561068857600080fd5b5061048d610697366004613b77565b60009081526006602052604090205460ff1690565b3480156106b857600080fd5b5060075461048d9060ff1681565b3480156106d257600080fd5b506104296106e1366004613eb6565b61130c565b3480156106f257600080fd5b506105a7610701366004613f26565b6113c8565b34801561071257600080fd5b506104296107213660046141dd565b611570565b34801561073257600080fd5b50610429610741366004614229565b6115a1565b34801561075257600080fd5b50610429611631565b34801561076757600080fd5b5061077061163f565b60405161043392919061425d565b34801561078a57600080fd5b506104c7610799366004613b77565b61178e565b3480156107aa57600080fd5b5061048d6107b93660046142c6565b61179e565b3480156107ca57600080fd5b506107f36107d9366004613b77565b6000908152601a6020526040902080546001909101549091565b60408051928352602083019190915201610433565b34801561081457600080fd5b50604080518082019091526003815262342e3160e81b6020820152610514565b34801561084057600080fd5b5061042961084f366004614321565b6001600160a01b031660009081526009602052604090205490565b34801561087657600080fd5b50610429611809565b34801561088b57600080fd5b5061042961089a36600461433e565b611814565b3480156108ab57600080fd5b50610429611903565b3480156108c057600080fd5b506107f36108cf366004614373565b61192f565b3480156108e057600080fd5b50600c54610429565b3480156108f557600080fd5b50610429610904366004614321565b60096020526000908152604090205481565b34801561092257600080fd5b506021546104c7906001600160a01b031681565b34801561094257600080fd5b50610514611964565b34801561095757600080fd5b5061042960185481565b34801561096d57600080fd5b50610429611973565b34801561098257600080fd5b5061098b61197e565b60405161043397969594939291906143a3565b3480156109aa57600080fd5b506104296109b9366004613b77565b611a06565b3480156109ca57600080fd5b506105a7611a3e565b3480156109df57600080fd5b5061048d6109ee366004614321565b600f6020526000908152604090205460ff1681565b348015610a0f57600080fd5b5061061e611ab7565b348015610a2457600080fd5b50610a2d611b17565b005b348015610a3b57600080fd5b50610429610a4a366004613b77565b611e34565b348015610a5b57600080fd5b50610429610a6a366004614321565b60196020526000908152604090205481565b348015610a8857600080fd5b50610429610a97366004614321565b6001600160a01b031660009081526019602052604090205490565b348015610abe57600080fd5b5061061e610acd366004613b77565b611e44565b348015610ade57600080fd5b506104297f000000000000000000000000000000000000000000000000000000000000000081565b610429610b14366004614413565b611eb6565b348015610b2557600080fd5b50610b2e6120d3565b6040516104339190614484565b348015610b4757600080fd5b50610b5b610b56366004613b77565b612145565b60405161043391906144ac565b348015610b7457600080fd5b5061048d610b83366004614321565b60106020526000908152604090205460ff1681565b348015610ba457600080fd5b506107706122bf565b348015610bb957600080fd5b50601b5461048d9060ff1681565b348015610bd357600080fd5b506104297f000000000000000000000000000000000000000000000000000000000000000081565b348015610c0757600080fd5b50610429610c16366004614321565b600e6020526000908152604090205481565b348015610c3457600080fd5b506104296124d3565b348015610c4957600080fd5b50610429610c58366004613b77565b601c6020526000908152604090205481565b348015610c7657600080fd5b50610a2d6124e5565b348015610c8b57600080fd5b5061042961264f565b348015610ca057600080fd5b50600d54610429565b348015610cb557600080fd5b506104c773dc652c746a8f85e18ce632d97c6118e8a52fa73881565b348015610cdd57600080fd5b506105a761267b565b348015610cf257600080fd5b50610a2d610d01366004614513565b6126d1565b348015610d1257600080fd5b50610a2d610d21366004614321565b6128e1565b348015610d3257600080fd5b5061048d610d41366004613b77565b60066020526000908152604090205460ff1681565b348015610d6257600080fd5b5061048d610d713660046141dd565b6129de565b348015610d8257600080fd5b50610429612c7d565b6000610d9660115490565b905090565b600860205260009081526040902080546001820180546001600160a01b03831693600160a01b90930460ff16929190610dd390614554565b80601f0160208091040260200160405190810160405280929190818152602001828054610dff90614554565b8015610e4c5780601f10610e2157610100808354040283529160200191610e4c565b820191906000526020600020905b815481529060010190602001808311610e2f57829003601f168201915b5050604080516020808201835260028801546001600160a01b031682528251600389018054606093810283018401865294820185815298999398939750909550935084928491840182828015610ecb57602002820191906000526020600020905b81546001600160a01b03168152600190910190602001808311610ead575b50505050508152602001600182015481525050905085565b60006001600160e01b0319821663b082528b60e01b1480610f1457506301ffc9a760e01b6001600160e01b03198316145b92915050565b6000610d9660135490565b6000610d966017546001600160a01b031690565b60058181548110610f4957600080fd5b600091825260209091200154905081565b606060028054610f6990614554565b80601f0160208091040260200160405190810160405280929190818152602001828054610f9590614554565b8015610fe25780601f10610fb757610100808354040283529160200191610fe2565b820191906000526020600020905b815481529060010190602001808311610fc557829003601f168201915b5050505050905090565b600a8181548110610ffc57600080fd5b6000918252602090912001546001600160a01b0316905081565b60606005805480602002602001604051908101604052809291908181526020018280548015610fe257602002820191906000526020600020905b815481526020019060010190808311611050575050505050905090565b6001600160a01b03831660009081526010602052604081205460ff166110f8577f00000000000000000000000000000000000000000000000000000000000000006000036110bd575060016110fc565b6110d384678ac7230489e80000858560006111c4565b506001600160a01b0384166000908152601060205260409020805460ff191660011790555b5060015b9392505050565b601b5460009060ff166111315760405162461bcd60e51b815260040161112890614588565b60405180910390fd5b506000908152601d602052604090205460ff1690565b6000611151610f1a565b6111596124d3565b610d969190614609565b6060600b805480602002602001604051908101604052809291908181526020018280548015610fe257602002820191906000526020600020905b81546001600160a01b0316815260019091019060200180831161119d575050505050905090565b6040516bffffffffffffffffffffffff19606087901b1660208201526034810185905260009081906054016040516020818303038152906040528051906020012090506000836112735761126e8686808060200260200160405190810160405280939291908181526020018383602002808284376000920191909152507f00000000000000000000000000000000000000000000000000000000000000009250869150612c889050565b6112d3565b6112d38686808060200260200160405190810160405280939291908181526020018383602002808284376000920191909152507f00000000000000000000000000000000000000000000000000000000000000009250869150612c889050565b9050806112f35760405163452c2df160e11b815260040160405180910390fd5b506001979650505050505050565b6000610d9660125490565b600086815260066020526040812054339060ff161561133d5760405162461bcd60e51b81526004016111289061461c565b6113498187868661179e565b6113b05760405162461bcd60e51b815260206004820152603260248201527f476f7665726e6f723a20746869732061646472657373206973206e6f74207065604482015271726d697373696f6e656420746f20766f746560701b6064820152608401611128565b6113bc88828988612c9e565b98975050505050505050565b6060600080836113df576113da61163f565b6113e7565b6113e76122bf565b9150915060008251116114575760405162461bcd60e51b815260206004820152603260248201527f476f7665726e6f72536f7274696e673a2063616e6e6f7420736f72742061206c6044820152710d2e6e840decc40f4cae4de40d8cadccee8d60731b6064820152608401611128565b600082516001600160401b0381111561147257611472613f41565b60405190808252806020026020018201604052801561149b578160200160208202803683370190505b50905060005b825181101561152f576114d08382815181106114bf576114bf61466b565b602002602001015160200151612f00565b6114f68483815181106114e5576114e561466b565b602002602001015160000151612f00565b6115009190614681565b8282815181106115125761151261466b565b602090810291909101015280611527816146a8565b9150506114a1565b5060005b6001845161154191906146c1565b81101561156657611553818386612f6e565b508061155e816146a8565b915050611533565b5091949350505050565b60008160405160200161158391906144ac565b60408051601f19818403018152919052805160209091012092915050565b60007f0000000000000000000000000000000000000000000000000000000000000000156115f8573360009081526010602052604090205460ff166115f85760405162461bcd60e51b8152600401611128906146d4565b611604610d7183614723565b6116205760405162461bcd60e51b81526004016111289061472f565b610f1461162c83614723565b6130d4565b61163c600180614609565b81565b6060806000600480548060200260200160405190810160405280929190818152602001828054801561169057602002820191906000526020600020905b81548152602001906001019080831161167c575b50505050509050600081516001600160401b038111156116b2576116b2613f41565b6040519080825280602002602001820160405280156116f757816020015b60408051808201909152600080825260208201528152602001906001900390816116d05790505b50905060005b825181101561178457601a600084838151811061171c5761171c61466b565b60200260200101518152602001908152602001600020600001604051806040016040529081600082015481526020016001820154815250508282815181106117665761176661466b565b6020026020010181905250808061177c906146a8565b9150506116fd565b5090939092509050565b600b8181548110610ffc57600080fd5b6001600160a01b0384166000908152600f602052604081205460ff166117fe576117cc8585858560016111c4565b506001600160a01b0385166000908152600e60209081526040808320879055600f9091529020805460ff191660011790555b506001949350505050565b6000610d9660165490565b600083815260066020526040812054339060ff16156118455760405162461bcd60e51b81526004016111289061461c565b6001600160a01b0381166000908152600f602052604090205460ff166118ee5760405162461bcd60e51b815260206004820152605260248201527f476f7665726e6f723a20796f75206e65656420746f2063617374206120766f7460448201527f652077697468207468652070726f6f66206174206c65617374206f6e636520616064820152711b99081e5bdd481a185d995b89dd081e595d60721b608482015260a401611128565b6118fa85828686612c9e565b95945050505050565b601b5460009060ff166119285760405162461bcd60e51b815260040161112890614588565b50601f5490565b6000828152601a602090815260408083206001600160a01b0385168452600301909152902080546001909101545b9250929050565b606060038054610f6990614554565b6000610d9660145490565b6000606080828080836119b17f0000000000000000000000000000000000000000000000000000000000000000836134b5565b6119dc7f000000000000000000000000000000000000000000000000000000000000000060016134b5565b60408051600080825260208201909252600f60f81b9b939a50919850469750309650945092509050565b601b5460009060ff16611a2b5760405162461bcd60e51b815260040161112890614588565b506000908152601c602052604090205490565b601b5460609060ff16611a635760405162461bcd60e51b815260040161112890614588565b601e805480602002602001604051908101604052809291908181526020018280548015610fe25760200282019190600052602060002090815481526020019060010190808311611050575050505050905090565b6060600a805480602002602001604051908101604052809291908181526020018280548015610fe2576020028201919060005260206000209081546001600160a01b0316815260019091019060200180831161119d575050505050905090565b6004611b216120d3565b6004811115611b3257611b3261446e565b14611bb55760405162461bcd60e51b815260206004820152604760248201527f476f7665726e6f72536f7274696e673a20636f6e74657374206d75737420626560448201527f20746f2063616c63756c61746520736f7274656420616e6420746965642070726064820152666f706f73616c7360c81b608482015260a401611128565b601b5460ff1615611c545760405162461bcd60e51b815260206004820152605f60248201527f476f7665726e6f72536f7274696e673a20736574536f72746564416e6454696560448201527f6450726f706f73616c7328292068617320616c7265616479206265656e20727560648201527f6e20616e642069747320726573706563746976652076616c7565732073657400608482015260a401611128565b611c5e60016113c8565b8051611c7291601e91602090910190613a55565b50601e54600090600190611c869082614609565b602055601e5460005b81811015611e2157601e54600090611ca9906001906146c1565b9050600080611cf2601e611cbd86866146c1565b81548110611ccd57611ccd61466b565b90600052602060002001546000908152601a6020526040902080546001909101549091565b915091506000611d0182612f00565b611d0a84612f00565b611d149190614681565b905084600003611d4d57601e549097508790600103611d44576000878152601c60205260409020849055601f8790555b50505050611e0f565b878103611da5576000878152601d602052604090205460ff16611d84576000878152601d60205260409020805460ff191660011790555b601e54611d92906001614609565b60205403611da05760208790555b611dd7565b611daf85856146c1565b611dba906001614609565b6000888152601c602052604090205586611dd3816146a8565b9750505b601e54611de5866001614609565b03611e0957611df485856146c1565b6000888152601c6020526040902055601f8790555b96505050505b80611e19816146a8565b915050611c8f565b5050601b805460ff191660011790555050565b60048181548110610f4957600080fd5b6000818152601a60209081526040918290206002810180548451818502810185019095528085526060949293830182828015611ea957602002820191906000526020600020905b81546001600160a01b03168152600190910190602001808311611e8b575b5050505050915050919050565b6000600c543414611f555760405162461bcd60e51b815260206004820152605a60248201527f476f7665726e6f723a2074686973207472616e73616374696f6e20776173206e60448201527f6f742073656e7420776974682074686520636f727265637420616d6f756e742060648201527f6f662066756e6473206e656564656420746f2070726f706f7365000000000000608482015260a401611128565b611f6033848461106d565b611f7c5760405162461bcd60e51b8152600401611128906146d4565b611f88610d7185614723565b611fa45760405162461bcd60e51b81526004016111289061472f565b6000611fb261162c86614723565b600c54909150156120cb5760006064600d546064611fd091906146c1565b611fda903461477b565b611fe49190614792565b905080156120585761200a73dc652c746a8f85e18ce632d97c6118e8a52fa73882613561565b6040805173dc652c746a8f85e18ce632d97c6118e8a52fa7388152602081018390527fdf20fd1e76bc69d672e4814fafb2c449bba3a5369d8359adf9e05e6fde87b056910160405180910390a15b600061206482346146c1565b905080156120c85761207d612077610f25565b82613561565b7fdf20fd1e76bc69d672e4814fafb2c449bba3a5369d8359adf9e05e6fde87b0566120a6610f25565b604080516001600160a01b039092168252602082018490520160405180910390a15b50505b949350505050565b60075460009060ff16156120e75750600290565b60006120f1610d8b565b905042811061210257600091505090565b600061210c6124d3565b905042811061211e5760039250505090565b6000612128611147565b905042811061213b576001935050505090565b6004935050505090565b61214d613a9c565b600082815260086020908152604091829020825160a08101845281546001600160a01b0381168252600160a01b900460ff16151592810192909252600181018054929391929184019161219f90614554565b80601f01602080910402602001604051908101604052809291908181526020018280546121cb90614554565b80156122185780601f106121ed57610100808354040283529160200191612218565b820191906000526020600020905b8154815290600101906020018083116121fb57829003601f168201915b5050509183525050604080516020818101835260028501546001600160a01b031682528084019190915281516003850180546060938102830184018552828501818152949095019491939092849284918401828280156122a157602002820191906000526020600020905b81546001600160a01b03168152600190910190602001808311612283575b50505050508152602001600182015481525050815250509050919050565b6060806000600480548060200260200160405190810160405280929190818152602001828054801561231057602002820191906000526020600020905b8154815260200190600101908083116122fc575b50505050509050600081516001600160401b0381111561233257612332613f41565b60405190808252806020026020018201604052801561235b578160200160208202803683370190505b509050600082516001600160401b0381111561237957612379613f41565b6040519080825280602002602001820160405280156123be57816020015b60408051808201909152600080825260208201528152602001906001900390816123975790505b5090506000805b84518110156124c7576124008582815181106123e3576123e361466b565b602002602001015160009081526006602052604090205460ff1690565b6124b5578481815181106124165761241661466b565b60200260200101518483815181106124305761243061466b565b602002602001018181525050601a60008683815181106124525761245261466b565b602002602001015181526020019081526020016000206000016040518060400160405290816000820154815260200160018201548152505083838151811061249c5761249c61466b565b60209081029190910101526124b2600183614609565b91505b806124bf816146a8565b9150506123c5565b50919590945092505050565b60006124dd611301565b611159610d8b565b6124ed610f25565b6001600160a01b0316336001600160a01b0316148061251f57503373dc652c746a8f85e18ce632d97c6118e8a52fa738145b61258a5760405162461bcd60e51b815260206004820152603660248201527f476f7665726e6f723a206f6e6c792063726561746f72206f72206a6b206c61626044820152751cc818d85b8818d85b98d95b08184818dbdb9d195cdd60521b6064820152608401611128565b60006125946120d3565b905060028160048111156125aa576125aa61446e565b141580156125ca575060048160048111156125c7576125c761446e565b14155b6126165760405162461bcd60e51b815260206004820152601c60248201527f476f7665726e6f723a20636f6e74657374206e6f7420616374697665000000006044820152606401611128565b6007805460ff191660011790556040517f4cd963a081760a54f571abc0f1db4dde31b4a07d8d6da3e844b8c6f47eeaaa4290600090a150565b601b5460009060ff166126745760405162461bcd60e51b815260040161112890614588565b5060205490565b60606004805480602002602001604051908101604052809291908181526020018280548015610fe25760200282019190600052602060002090815481526020019060010190808311611050575050505050905090565b6126d9610f25565b6001600160a01b0316336001600160a01b03161461275f5760405162461bcd60e51b815260206004820152603760248201527f476f7665726e6f723a206f6e6c792074686520636f6e7465737420637265617460448201527f6f722063616e2064656c6574652070726f706f73616c730000000000000000006064820152608401611128565b60046127696120d3565b600481111561277a5761277a61446e565b036127ff5760405162461bcd60e51b815260206004820152604960248201527f476f7665726e6f723a2064656c6574696f6e206f662070726f706f73616c732060448201527f61667465722074686520656e64206f66206120636f6e74657374206973206e6f6064820152681d08185b1b1bddd95960ba1b608482015260a401611128565b60005b818110156128a457600083838381811061281e5761281e61466b565b60209081029290920135600081815260069093526040909220549192505060ff16612891576000818152600660205260408120805460ff191660019081179091556005805491820181559091527f036b6384b5eca791c62761152d0c79bb0604c104a5fb6f4eb0703f3154bb3db0018190555b508061289c816146a8565b915050612802565b507f75a75cf5c561892f4cc5b26c1b8e933849b42238c96dd073d080d1ae96c5141660046040516128d591906147b4565b60405180910390a15050565b6128e9610f25565b6001600160a01b0316336001600160a01b0316146129845760405162461bcd60e51b815260206004820152604c60248201527f476f7665726e6f724d6f64756c6552656769737472793a206f6e6c792074686560448201527f2063726561746f722063616e2073657420746865206f6666696369616c20726560648201526b7761726473206d6f64756c6560a01b608482015260a401611128565b602180546001600160a01b038381166001600160a01b031983168117909355604080519190921680825260208201939093527f753a2cf8d360cff631674504210913e48247f8e56b3e6d2006c2103d4095999f91016128d5565b80516000906001600160a01b03163314612a535760405162461bcd60e51b815260206004820152603060248201527f476f7665726e6f723a207468652070726f706f73616c20617574686f72206d7560448201526f39ba1031329036b9b39739b2b73232b960811b6064820152608401611128565b60005b612a61600180614609565b811015612c01576000816001811115612a7c57612a7c61446e565b90506000816001811115612a9257612a9261446e565b03612a9d5750612bef565b6001816001811115612ab157612ab161446e565b03612bd45760808401515151600003612b435760405162461bcd60e51b815260206004820152604860248201527f476f7665726e6f724d6574616461746156616c69646174696f6e3a207468657260448201527f652063616e6e6f74206265207a65726f207369676e65727320696e20736166656064820152674d6574616461746160c01b608482015260a401611128565b836080015160200151600003612bcf5760405162461bcd60e51b8152602060048201526044602482018190527f476f7665726e6f724d6574616461746156616c69646174696f6e3a2074687265908201527f73686f6c642063616e6e6f74206265207a65726f20696e20736166654d6574616064820152636461746160e01b608482015260a401611128565b612bed565b6040516308b6566d60e11b815260040160405180910390fd5b505b80612bf9816146a8565b915050612a56565b50816040015151600003612c755760405162461bcd60e51b815260206004820152603560248201527f476f7665726e6f723a20656d7074792070726f706f73616c20646573637269706044820152741d1a5bdb9cc8185c99481b9bdd08185b1b1bddd959605a1b6064820152608401611128565b506001919050565b6000610d9660155490565b600082612c95858461367f565b14949350505050565b60006001612caa6120d3565b6004811115612cbb57612cbb61446e565b14612d145760405162461bcd60e51b815260206004820152602360248201527f476f7665726e6f723a20766f7465206e6f742063757272656e746c792061637460448201526269766560e81b6064820152608401611128565b60008211612d785760405162461bcd60e51b815260206004820152602b60248201527f476f7665726e6f723a2063616e6e6f7420766f746520776974682030206f722060448201526a666577657220766f74657360a81b6064820152608401611128565b6001600160a01b0384166000908152600f602052604090205460ff16612e1e5760405162461bcd60e51b815260206004820152604f60248201527f476f7665726e6f723a20796f75206e65656420746f2076657269667920796f7560448201527f72206e756d626572206f6620766f74657320616761696e737420746865206d6560648201526e1c9adb19481c9bdbdd08199a5c9cdd608a1b608482015260a401611128565b612e5085858585600e60008a6001600160a01b03166001600160a01b03168152602001908152602001600020546136cc565b600b80546001810182556000919091527f0175b7a638427703f0dbe7bb9bbf987a2551717b34e79f33b5b1008d1fa01db90180546001600160a01b031916331790556040805186815260ff851660208201529081018390526001600160a01b038516907f2c9deb38f462962eadbd85a9d3a4120503ee091f1582eaaa10aa8c6797651d299060600160405180910390a25050506001600160a01b03166000908152600e6020526040902054919050565b60006001600160ff1b03821115612f6a5760405162461bcd60e51b815260206004820152602860248201527f53616665436173743a2076616c756520646f65736e27742066697420696e2061604482015267371034b73a191a9b60c11b6064820152608401611128565b5090565b600083805b8451811015612fcc57848281518110612f8e57612f8e61466b565b6020026020010151858281518110612fa857612fa861466b565b60200260200101511215612fba578091505b80612fc4816146a8565b915050612f73565b50848103612fde5760009150506110fc565b6000848681518110612ff257612ff261466b565b6020026020010151905084828151811061300e5761300e61466b565b60200260200101518587815181106130285761302861466b565b602002602001018181525050808583815181106130475761304761466b565b60200260200101818152505060008487815181106130675761306761466b565b602002602001015190508483815181106130835761308361466b565b602002602001015185888151811061309d5761309d61466b565b602002602001018181525050808584815181106130bc576130bc61466b565b60209081029190910101525060019695505050505050565b600060036130e06120d3565b60048111156130f1576130f161446e565b146131645760405162461bcd60e51b815260206004820152603e60248201527f476f7665726e6f723a20636f6e74657374206d7573742062652071756575656460448201527f20666f722070726f706f73616c7320746f206265207375626d697474656400006064820152608401611128565b61316c611973565b33600090815260096020526040902054106132235760405162461bcd60e51b815260206004820152606560248201527f476f7665726e6f723a207468652073616d6520616464726573732063616e6e6f60448201527f74207375626d6974206d6f7265207468616e20746865206e756d416c6c6f776560648201527f6450726f706f73616c5375626d697373696f6e7320666f72207468697320636f6084820152641b9d195cdd60da1b60a482015260c401611128565b61322b612c7d565b60055460045461323b91906146c1565b106132ae5760405162461bcd60e51b815260206004820152603960248201527f476f7665726e6f723a20746865206d6178206e756d626572206f662070726f7060448201527f6f73616c732068617665206265656e207375626d6974746564000000000000006064820152608401611128565b60006132b983611570565b600081815260086020526040902054909150600160a01b900460ff16156133345760405162461bcd60e51b815260206004820152602960248201527f476f7665726e6f723a206475706c69636174652070726f706f73616c73206e6f6044820152681d08185b1b1bddd95960ba1b6064820152608401611128565b6004805460018181019092557f8a35acfbc15ff81a39ae7d344fd709f28e8600b4aa8c65c6b64bfe7fe36bd19b0182905560008281526008602090815260409182902086518154928801511515600160a01b026001600160a81b03199093166001600160a01b03909116179190911781559085015185928201906133b8908261483d565b506060820151516002820180546001600160a01b0319166001600160a01b0390921691909117905560808201518051805160038401916133fd91839160200190613b0d565b506020918201516001918201553360009081526009909252604082208054919450925061342b908490614609565b9091555050600a80546001810182556000919091527fc65a7bb8d6351c1cf70c95a316cc6a92839c986682d98bc35f958f4883f9d2a80180546001600160a01b031916339081179091556040805183815260208101929092527fcd423cc1203c0af96b9b3d68d73b3064a69de2d14450bb7181c5e5df2132b358910160405180910390a192915050565b606060ff83146134cf576134c8836139c2565b9050610f14565b8180546134db90614554565b80601f016020809104026020016040519081016040528092919081815260200182805461350790614554565b80156135545780601f1061352957610100808354040283529160200191613554565b820191906000526020600020905b81548152906001019060200180831161353757829003601f168201915b5050505050905092915050565b804710156135b15760405162461bcd60e51b815260206004820152601d60248201527f416464726573733a20696e73756666696369656e742062616c616e63650000006044820152606401611128565b6000826001600160a01b03168260405160006040518083038185875af1925050503d80600081146135fe576040519150601f19603f3d011682016040523d82523d6000602084013e613603565b606091505b505090508061367a5760405162461bcd60e51b815260206004820152603a60248201527f416464726573733a20756e61626c6520746f2073656e642076616c75652c207260448201527f6563697069656e74206d617920686176652072657665727465640000000000006064820152608401611128565b505050565b600081815b84518110156136c4576136b0828683815181106136a3576136a361466b565b6020026020010151613a01565b9150806136bc816146a8565b915050613684565b509392505050565b6000858152601a602090815260408083206001600160a01b03881684526019909252909120546136fc90836146c1565b8311156137675760405162461bcd60e51b815260206004820152603360248201527f476f7665726e6f72566f74696e6753696d706c653a206e6f7420656e6f756768604482015272081d9bdd195cc81b19599d081d1bc818d85cdd606a1b6064820152608401611128565b6001600160a01b03851660009081526003820160205260408120541580156137aa57506001600160a01b0386166000908152600383016020526040902060010154155b905060ff8516613802578154849083906000906137c8908490614609565b90915550506001600160a01b0386166000908152600383016020526040812080548692906137f7908490614609565b9091555061393c9050565b60001960ff8616016138d657613816611809565b60011461388d576040805162461bcd60e51b81526020600482015260248101919091527f476f7665726e6f72566f74696e6753696d706c653a20646f776e766f74696e6760448201527f206973206e6f7420656e61626c656420666f72207468697320436f6e746573746064820152608401611128565b838260000160010160008282546138a49190614609565b90915550506001600160a01b0386166000908152600383016020526040812060010180548692906137f7908490614609565b60405162461bcd60e51b815260206004820152603560248201527f476f7665726e6f72566f74696e6753696d706c653a20696e76616c69642076616044820152746c756520666f7220656e756d20566f74655479706560581b6064820152608401611128565b801561397357600282018054600181018255600091825260209091200180546001600160a01b0319166001600160a01b0388161790555b6001600160a01b0386166000908152601960205260408120805486929061399b908490614609565b9250508190555083601860008282546139b49190614609565b909155505050505050505050565b606060006139cf83613a2d565b604080516020808252818301909252919250600091906020820181803683375050509182525060208101929092525090565b6000818310613a1d5760008281526020849052604090206110fc565b5060009182526020526040902090565b600060ff8216601f811115610f1457604051632cd44ac360e21b815260040160405180910390fd5b828054828255906000526020600020908101928215613a90579160200282015b82811115613a90578251825591602001919060010190613a75565b50612f6a929150613b62565b6040518060a0016040528060006001600160a01b0316815260200160001515815260200160608152602001613ae6604051806020016040528060006001600160a01b031681525090565b8152602001613b08604051806040016040528060608152602001600081525090565b905290565b828054828255906000526020600020908101928215613a90579160200282015b82811115613a9057825182546001600160a01b0319166001600160a01b03909116178255602090920191600190910190613b2d565b5b80821115612f6a5760008155600101613b63565b600060208284031215613b8957600080fd5b5035919050565b6000815180845260005b81811015613bb657602081850181015186830182015201613b9a565b506000602082860101526020601f19601f83011685010191505092915050565b805160408084528151908401819052600091602091908201906060860190845b81811015613c1b5783516001600160a01b031683529284019291840191600101613bf6565b505093820151949091019390935250919050565b600060018060a01b038088168352861515602084015260a06040840152613c5960a0840187613b90565b8186511660608501528381036080850152613c748186613bd6565b9998505050505050505050565b600060208284031215613c9357600080fd5b81356001600160e01b0319811681146110fc57600080fd5b6020815260006110fc6020830184613b90565b815181526020808301519082015260408101610f14565b600081518084526020808501945080840160005b83811015613d0557815187529582019590820190600101613ce9565b509495945050505050565b6020815260006110fc6020830184613cd5565b6001600160a01b0381168114613d3857600080fd5b50565b60008083601f840112613d4d57600080fd5b5081356001600160401b03811115613d6457600080fd5b6020830191508360208260051b850101111561195d57600080fd5b600080600060408486031215613d9457600080fd5b8335613d9f81613d23565b925060208401356001600160401b03811115613dba57600080fd5b613dc686828701613d3b565b9497909650939450505050565b6020808252825182820181905260009190848201906040850190845b81811015613e145783516001600160a01b031683529284019291840191600101613def565b50909695505050505050565b80358015158114613e3057600080fd5b919050565b600080600080600060808688031215613e4d57600080fd5b8535613e5881613d23565b94506020860135935060408601356001600160401b03811115613e7a57600080fd5b613e8688828901613d3b565b9094509250613e99905060608701613e20565b90509295509295909350565b803560ff81168114613e3057600080fd5b60008060008060008060a08789031215613ecf57600080fd5b86359550613edf60208801613ea5565b9450604087013593506060870135925060808701356001600160401b03811115613f0857600080fd5b613f1489828a01613d3b565b979a9699509497509295939492505050565b600060208284031215613f3857600080fd5b6110fc82613e20565b634e487b7160e01b600052604160045260246000fd5b604080519081016001600160401b0381118282101715613f7957613f79613f41565b60405290565b60405160a081016001600160401b0381118282101715613f7957613f79613f41565b604051601f8201601f191681016001600160401b0381118282101715613fc957613fc9613f41565b604052919050565b600060208284031215613fe357600080fd5b604051602081018181106001600160401b038211171561400557614005613f41565b604052905080823561401681613d23565b905292915050565b60006040828403121561403057600080fd5b614038613f57565b905081356001600160401b038082111561405157600080fd5b818401915084601f83011261406557600080fd5b813560208282111561407957614079613f41565b8160051b925061408a818401613fa1565b82815292840181019281810190888511156140a457600080fd5b948201945b848610156140ce57853593506140be84613d23565b83825294820194908201906140a9565b808752505080860135818601525050505092915050565b600060a082840312156140f757600080fd5b6140ff613f7f565b9050813561410c81613d23565b8152602061411b838201613e20565b8183015260408301356001600160401b038082111561413957600080fd5b818501915085601f83011261414d57600080fd5b81358181111561415f5761415f613f41565b614171601f8201601f19168501613fa1565b818152878583860101111561418557600080fd5b8185850186830137600085838301015280604087015250506141aa8660608701613fd1565b606085015260808501359250808311156141c357600080fd5b50506141d18482850161401e565b60808301525092915050565b6000602082840312156141ef57600080fd5b81356001600160401b0381111561420557600080fd5b6120cb848285016140e5565b600060a0828403121561422357600080fd5b50919050565b60006020828403121561423b57600080fd5b81356001600160401b0381111561425157600080fd5b6120cb84828501614211565b6000604080835261427081840186613cd5565b83810360208581019190915285518083528682019282019060005b818110156142b8576142a883865180518252602090810151910152565b938301939185019160010161428b565b509098975050505050505050565b600080600080606085870312156142dc57600080fd5b84356142e781613d23565b93506020850135925060408501356001600160401b0381111561430957600080fd5b61431587828801613d3b565b95989497509550505050565b60006020828403121561433357600080fd5b81356110fc81613d23565b60008060006060848603121561435357600080fd5b8335925061436360208501613ea5565b9150604084013590509250925092565b6000806040838503121561438657600080fd5b82359150602083013561439881613d23565b809150509250929050565b60ff60f81b8816815260e0602082015260006143c260e0830189613b90565b82810360408401526143d48189613b90565b606084018890526001600160a01b038716608085015260a0840186905283810360c085015290506144058185613cd5565b9a9950505050505050505050565b60008060006040848603121561442857600080fd5b83356001600160401b038082111561443f57600080fd5b61444b87838801614211565b9450602086013591508082111561446157600080fd5b50613dc686828701613d3b565b634e487b7160e01b600052602160045260246000fd5b60208101600583106144a657634e487b7160e01b600052602160045260246000fd5b91905290565b60208152600060018060a01b03808451166020840152602084015115156040840152604084015160a060608501526144e760c0850182613b90565b90508160608601515116608085015260808501519150601f198482030160a08501526118fa8183613bd6565b6000806020838503121561452657600080fd5b82356001600160401b0381111561453c57600080fd5b61454885828601613d3b565b90969095509350505050565b600181811c9082168061456857607f821691505b60208210810361422357634e487b7160e01b600052602260045260246000fd5b60208082526045908201527f526577617264734d6f64756c653a2072756e20736574536f72746564416e645460408201527f69656450726f706f73616c73282920746f20706f70756c61746520746869732060608201526476616c756560d81b608082015260a00190565b634e487b7160e01b600052601160045260246000fd5b80820180821115610f1457610f146145f3565b6020808252602f908201527f476f7665726e6f723a20796f752063616e6e6f7420766f7465206f6e2061206460408201526e195b195d1959081c1c9bdc1bdcd85b608a1b606082015260800190565b634e487b7160e01b600052603260045260246000fd5b81810360008312801583831316838312821617156146a1576146a16145f3565b5092915050565b6000600182016146ba576146ba6145f3565b5060010190565b81810381811115610f1457610f146145f3565b6020808252602f908201527f476f7665726e6f723a2061646472657373206973206e6f74207065726d69737360408201526e1a5bdb9959081d1bc81cdd589b5a5d608a1b606082015260800190565b6000610f1436836140e5565b6020808252602c908201527f476f7665726e6f723a2070726f706f73616c20636f6e74656e74206661696c6560408201526b32103b30b634b230ba34b7b760a11b606082015260800190565b8082028115828204841417610f1457610f146145f3565b6000826147af57634e487b7160e01b600052601260045260246000fd5b500490565b6020808252825482820181905260008481528281209092916040850190845b81811015613e14578354835260019384019392850192016147d3565b601f82111561367a57600081815260208120601f850160051c810160208610156148165750805b601f850160051c820191505b8181101561483557828155600101614822565b505050505050565b81516001600160401b0381111561485657614856613f41565b61486a816148648454614554565b846147ef565b602080601f83116001811461489f57600084156148875750858301515b600019600386901b1c1916600185901b178555614835565b600085815260208120601f198616915b828110156148ce578886015182559484019460019091019084016148af565b50858210156148ec5787850151600019600388901b60f8161c191681555b5050505050600190811b0190555056fea264697066735822122071d08d73c4b2774416e6a0333728cbc287aede7c55a706917ff79085043cf98264736f6c63430008130033",
    "linkReferences": {}
  },
  "methodIdentifiers": {
    "AMOUNT_FOR_SUMBITTER_PROOF()": "347cf665",
    "JK_LABS_ADDRESS()": "eef18e17",
    "METADATAS_COUNT()": "4d24a67f",
    "addressSubmitterVerified(address)": "cb853950",
    "addressTotalCastVoteCounts(address)": "a1ac6cb2",
    "addressTotalVotes(address)": "dea5f6a6",
    "addressTotalVotesVerified(address)": "930de979",
    "addressesThatHaveVoted(uint256)": "50c4b616",
    "allProposalTotalVotes()": "50a5e524",
    "allProposalTotalVotesWithoutDeleted()": "d45a010b",
    "cancel()": "ea8a1af0",
    "canceled()": "3f9942ff",
    "castVote(uint256,uint8,uint256,uint256,bytes32[])": "419c533c",
    "castVoteWithoutProof(uint256,uint8,uint256)": "65f16263",
    "checkProof(address,uint256,bytes32[],bool)": "32763c22",
    "contestAddressTotalVotesCast(address)": "aec116b6",
    "contestDeadline()": "262e59e9",
    "contestStart()": "004114a8",
    "costToPropose()": "6ed815ad",
    "creator()": "02d05d3f",
    "deleteProposals(uint256[])": "f0a7db0a",
    "deletedProposalIds(uint256)": "05846cae",
    "downvotingAllowed()": "60506ff6",
    "eip712Domain()": "84b0196e",
    "getAllAddressesThatHaveVoted()": "2c39805f",
    "getAllDeletedProposalIds()": "1242b737",
    "getAllProposalAuthors()": "946369b5",
    "getAllProposalIds()": "efa90d36",
    "getNumSubmissions(address)": "5f953a03",
    "getProposal(uint256)": "c7f758a8",
    "hashProposal((address,bool,string,(address),(address[],uint256)))": "458da87d",
    "highestTiedRanking()": "ebc18b9b",
    "isProposalDeleted(uint256)": "3b6d199b",
    "isTied(uint256)": "2399c660",
    "lowestRanking()": "6ca1a2c7",
    "maxProposalCount()": "fb9bf8d4",
    "name()": "06fdde03",
    "numAllowedProposalSubmissions()": "832009af",
    "numSubmissions(address)": "75e509c5",
    "officialRewardsModule()": "785ddfe5",
    "percentageToCreator()": "edcd1be4",
    "prompt()": "7c65d711",
    "proposalAddressVotes(uint256,address)": "6e4eb810",
    "proposalAddressesHaveVoted(uint256)": "b323580d",
    "proposalAuthors(uint256)": "0aa25e44",
    "proposalIds(uint256)": "9b644a23",
    "proposalIsDeleted(uint256)": "f79c0172",
    "proposalVotes(uint256)": "544ffc9c",
    "proposalVotesStructs(uint256)": "070dc5d9",
    "proposals(uint256)": "013cf08b",
    "propose((address,bool,string,(address),(address[],uint256)),bytes32[])": "c0ffaa78",
    "proposeWithoutProof((address,bool,string,(address),(address[],uint256)))": "476f4d8a",
    "rankingPosition(uint256)": "86187488",
    "setOfficialRewardsModule(address)": "f4f3d7ec",
    "setSortedAndTiedProposals()": "96f0e962",
    "setSortedAndTiedProposalsHasBeenRun()": "d8891619",
    "sortedProposalIds()": "8a9cd550",
    "sortedProposals(bool)": "427d56c2",
    "state()": "c19d93fb",
    "submissionMerkleRoot()": "bddc1641",
    "supportsInterface(bytes4)": "01ffc9a7",
    "tiedAdjustedRankingPosition(uint256)": "e5eb5a48",
    "totalVotesCast()": "7de418d5",
    "validateProposalData((address,bool,string,(address),(address[],uint256)))": "fb8ddab4",
    "verifyProposer(address,bytes32[])": "20b3e845",
    "verifyVoter(address,uint256,bytes32[])": "531bd812",
    "version()": "54fd4d50",
    "voteStart()": "e031535b",
    "votingDelay()": "3932abb1",
    "votingMerkleRoot()": "dd96a19d",
    "votingPeriod()": "02a251a3"
  },
  "id": 40
}