{
  "abi": [
    {
      "inputs": [
        {
          "internalType": "string",
          "name": "_name",
          "type": "string"
        },
        {
          "internalType": "string",
          "name": "_prompt",
          "type": "string"
        },
        {
          "internalType": "bytes32",
          "name": "_submissionMerkleRoot",
          "type": "bytes32"
        },
        {
          "internalType": "bytes32",
          "name": "_votingMerkleRoot",
          "type": "bytes32"
        },
        {
          "internalType": "uint256",
          "name": "_costToPropose",
          "type": "uint256"
        },
        {
          "internalType": "uint256",
          "name": "_percentageToCreator",
          "type": "uint256"
        },
        {
          "internalType": "uint256[]",
          "name": "_constructorIntParams",
          "type": "uint256[]"
        }
      ],
      "stateMutability": "nonpayable",
      "type": "constructor"
    },
    {
      "inputs": [],
      "name": "InvalidShortString",
      "type": "error"
    },
    {
      "inputs": [],
      "name": "NotInMerkle",
      "type": "error"
    },
    {
      "inputs": [
        {
          "internalType": "string",
          "name": "str",
          "type": "string"
        }
      ],
      "name": "StringTooLong",
      "type": "error"
    },
    {
      "inputs": [],
      "name": "TooManyMetadatas",
      "type": "error"
    },
    {
      "anonymous": false,
      "inputs": [],
      "name": "ContestCanceled",
      "type": "event"
    },
    {
      "anonymous": false,
      "inputs": [
        {
          "indexed": false,
          "internalType": "uint256",
          "name": "oldContestStart",
          "type": "uint256"
        },
        {
          "indexed": false,
          "internalType": "uint256",
          "name": "newContestStart",
          "type": "uint256"
        }
      ],
      "name": "ContestStartSet",
      "type": "event"
    },
    {
      "anonymous": false,
      "inputs": [
        {
          "indexed": false,
          "internalType": "address",
          "name": "oldCreator",
          "type": "address"
        },
        {
          "indexed": false,
          "internalType": "address",
          "name": "newCreator",
          "type": "address"
        }
      ],
      "name": "CreatorSet",
      "type": "event"
    },
    {
      "anonymous": false,
      "inputs": [
        {
          "indexed": false,
          "internalType": "uint256",
          "name": "oldDownvotingAllowed",
          "type": "uint256"
        },
        {
          "indexed": false,
          "internalType": "uint256",
          "name": "newDownvotingAllowed",
          "type": "uint256"
        }
      ],
      "name": "DownvotingAllowedSet",
      "type": "event"
    },
    {
      "anonymous": false,
      "inputs": [],
      "name": "EIP712DomainChanged",
      "type": "event"
    },
    {
      "anonymous": false,
      "inputs": [
        {
          "indexed": false,
          "internalType": "string",
          "name": "name",
          "type": "string"
        },
        {
          "indexed": false,
          "internalType": "address",
          "name": "creator",
          "type": "address"
        }
      ],
      "name": "JokeraceCreated",
      "type": "event"
    },
    {
      "anonymous": false,
      "inputs": [
        {
          "indexed": false,
          "internalType": "uint256",
          "name": "oldMaxProposalCount",
          "type": "uint256"
        },
        {
          "indexed": false,
          "internalType": "uint256",
          "name": "newMaxProposalCount",
          "type": "uint256"
        }
      ],
      "name": "MaxProposalCountSet",
      "type": "event"
    },
    {
      "anonymous": false,
      "inputs": [
        {
          "indexed": false,
          "internalType": "uint256",
          "name": "oldNumAllowedProposalSubmissions",
          "type": "uint256"
        },
        {
          "indexed": false,
          "internalType": "uint256",
          "name": "newNumAllowedProposalSubmissions",
          "type": "uint256"
        }
      ],
      "name": "NumAllowedProposalSubmissionsSet",
      "type": "event"
    },
    {
      "anonymous": false,
      "inputs": [
        {
          "indexed": false,
          "internalType": "contract RewardsModule",
          "name": "oldOfficialRewardsModule",
          "type": "address"
        },
        {
          "indexed": false,
          "internalType": "contract RewardsModule",
          "name": "newOfficialRewardsModule",
          "type": "address"
        }
      ],
      "name": "OfficialRewardsModuleSet",
      "type": "event"
    },
    {
      "anonymous": false,
      "inputs": [
        {
          "indexed": false,
          "internalType": "address",
          "name": "to",
          "type": "address"
        },
        {
          "indexed": false,
          "internalType": "uint256",
          "name": "amount",
          "type": "uint256"
        }
      ],
      "name": "PaymentReleased",
      "type": "event"
    },
    {
      "anonymous": false,
      "inputs": [
        {
          "indexed": false,
          "internalType": "uint256",
          "name": "proposalId",
          "type": "uint256"
        },
        {
          "indexed": false,
          "internalType": "address",
          "name": "proposer",
          "type": "address"
        }
      ],
      "name": "ProposalCreated",
      "type": "event"
    },
    {
      "anonymous": false,
      "inputs": [
        {
          "indexed": false,
          "internalType": "uint256[]",
          "name": "proposalIds",
          "type": "uint256[]"
        }
      ],
      "name": "ProposalsDeleted",
      "type": "event"
    },
    {
      "anonymous": false,
      "inputs": [
        {
          "indexed": true,
          "internalType": "address",
          "name": "voter",
          "type": "address"
        },
        {
          "indexed": false,
          "internalType": "uint256",
          "name": "proposalId",
          "type": "uint256"
        },
        {
          "indexed": false,
          "internalType": "uint8",
          "name": "support",
          "type": "uint8"
        },
        {
          "indexed": false,
          "internalType": "uint256",
          "name": "numVotes",
          "type": "uint256"
        }
      ],
      "name": "VoteCast",
      "type": "event"
    },
    {
      "anonymous": false,
      "inputs": [
        {
          "indexed": false,
          "internalType": "uint256",
          "name": "oldVotingDelay",
          "type": "uint256"
        },
        {
          "indexed": false,
          "internalType": "uint256",
          "name": "newVotingDelay",
          "type": "uint256"
        }
      ],
      "name": "VotingDelaySet",
      "type": "event"
    },
    {
      "anonymous": false,
      "inputs": [
        {
          "indexed": false,
          "internalType": "uint256",
          "name": "oldVotingPeriod",
          "type": "uint256"
        },
        {
          "indexed": false,
          "internalType": "uint256",
          "name": "newVotingPeriod",
          "type": "uint256"
        }
      ],
      "name": "VotingPeriodSet",
      "type": "event"
    },
    {
      "inputs": [],
      "name": "AMOUNT_FOR_SUMBITTER_PROOF",
      "outputs": [
        {
          "internalType": "uint256",
          "name": "",
          "type": "uint256"
        }
      ],
      "stateMutability": "view",
      "type": "function"
    },
    {
      "inputs": [],
      "name": "JK_LABS_ADDRESS",
      "outputs": [
        {
          "internalType": "address",
          "name": "",
          "type": "address"
        }
      ],
      "stateMutability": "view",
      "type": "function"
    },
    {
      "inputs": [],
      "name": "METADATAS_COUNT",
      "outputs": [
        {
          "internalType": "uint256",
          "name": "",
          "type": "uint256"
        }
      ],
      "stateMutability": "view",
      "type": "function"
    },
    {
      "inputs": [
        {
          "internalType": "address",
          "name": "",
          "type": "address"
        }
      ],
      "name": "addressSubmitterVerified",
      "outputs": [
        {
          "internalType": "bool",
          "name": "",
          "type": "bool"
        }
      ],
      "stateMutability": "view",
      "type": "function"
    },
    {
      "inputs": [
        {
          "internalType": "address",
          "name": "",
          "type": "address"
        }
      ],
      "name": "addressTotalCastVoteCounts",
      "outputs": [
        {
          "internalType": "uint256",
          "name": "",
          "type": "uint256"
        }
      ],
      "stateMutability": "view",
      "type": "function"
    },
    {
      "inputs": [
        {
          "internalType": "address",
          "name": "",
          "type": "address"
        }
      ],
      "name": "addressTotalVotes",
      "outputs": [
        {
          "internalType": "uint256",
          "name": "",
          "type": "uint256"
        }
      ],
      "stateMutability": "view",
      "type": "function"
    },
    {
      "inputs": [
        {
          "internalType": "address",
          "name": "",
          "type": "address"
        }
      ],
      "name": "addressTotalVotesVerified",
      "outputs": [
        {
          "internalType": "bool",
          "name": "",
          "type": "bool"
        }
      ],
      "stateMutability": "view",
      "type": "function"
    },
    {
      "inputs": [
        {
          "internalType": "uint256",
          "name": "",
          "type": "uint256"
        }
      ],
      "name": "addressesThatHaveVoted",
      "outputs": [
        {
          "internalType": "address",
          "name": "",
          "type": "address"
        }
      ],
      "stateMutability": "view",
      "type": "function"
    },
    {
      "inputs": [],
      "name": "allProposalTotalVotes",
      "outputs": [
        {
          "internalType": "uint256[]",
          "name": "proposalIdsReturn",
          "type": "uint256[]"
        },
        {
          "components": [
            {
              "internalType": "uint256",
              "name": "forVotes",
              "type": "uint256"
            },
            {
              "internalType": "uint256",
              "name": "againstVotes",
              "type": "uint256"
            }
          ],
          "internalType": "struct GovernorCountingSimple.VoteCounts[]",
          "name": "proposalVoteCountsArrayReturn",
          "type": "tuple[]"
        }
      ],
      "stateMutability": "view",
      "type": "function"
    },
    {
      "inputs": [],
      "name": "allProposalTotalVotesWithoutDeleted",
      "outputs": [
        {
          "internalType": "uint256[]",
          "name": "proposalIdsReturn",
          "type": "uint256[]"
        },
        {
          "components": [
            {
              "internalType": "uint256",
              "name": "forVotes",
              "type": "uint256"
            },
            {
              "internalType": "uint256",
              "name": "againstVotes",
              "type": "uint256"
            }
          ],
          "internalType": "struct GovernorCountingSimple.VoteCounts[]",
          "name": "proposalVoteCountsArrayReturn",
          "type": "tuple[]"
        }
      ],
      "stateMutability": "view",
      "type": "function"
    },
    {
      "inputs": [],
      "name": "cancel",
      "outputs": [],
      "stateMutability": "nonpayable",
      "type": "function"
    },
    {
      "inputs": [],
      "name": "canceled",
      "outputs": [
        {
          "internalType": "bool",
          "name": "",
          "type": "bool"
        }
      ],
      "stateMutability": "view",
      "type": "function"
    },
    {
      "inputs": [
        {
          "internalType": "uint256",
          "name": "proposalId",
          "type": "uint256"
        },
        {
          "internalType": "uint8",
          "name": "support",
          "type": "uint8"
        },
        {
          "internalType": "uint256",
          "name": "totalVotes",
          "type": "uint256"
        },
        {
          "internalType": "uint256",
          "name": "numVotes",
          "type": "uint256"
        },
        {
          "internalType": "bytes32[]",
          "name": "proof",
          "type": "bytes32[]"
        }
      ],
      "name": "castVote",
      "outputs": [
        {
          "internalType": "uint256",
          "name": "",
          "type": "uint256"
        }
      ],
      "stateMutability": "nonpayable",
      "type": "function"
    },
    {
      "inputs": [
        {
          "internalType": "uint256",
          "name": "proposalId",
          "type": "uint256"
        },
        {
          "internalType": "uint8",
          "name": "support",
          "type": "uint8"
        },
        {
          "internalType": "uint256",
          "name": "numVotes",
          "type": "uint256"
        }
      ],
      "name": "castVoteWithoutProof",
      "outputs": [
        {
          "internalType": "uint256",
          "name": "",
          "type": "uint256"
        }
      ],
      "stateMutability": "nonpayable",
      "type": "function"
    },
    {
      "inputs": [
        {
          "internalType": "address",
          "name": "addressToCheck",
          "type": "address"
        },
        {
          "internalType": "uint256",
          "name": "amount",
          "type": "uint256"
        },
        {
          "internalType": "bytes32[]",
          "name": "proof",
          "type": "bytes32[]"
        },
        {
          "internalType": "bool",
          "name": "voting",
          "type": "bool"
        }
      ],
      "name": "checkProof",
      "outputs": [
        {
          "internalType": "bool",
          "name": "verified",
          "type": "bool"
        }
      ],
      "stateMutability": "view",
      "type": "function"
    },
    {
      "inputs": [
        {
          "internalType": "address",
          "name": "userAddress",
          "type": "address"
        }
      ],
      "name": "contestAddressTotalVotesCast",
      "outputs": [
        {
          "internalType": "uint256",
          "name": "userTotalVotesCast",
          "type": "uint256"
        }
      ],
      "stateMutability": "view",
      "type": "function"
    },
    {
      "inputs": [],
      "name": "contestDeadline",
      "outputs": [
        {
          "internalType": "uint256",
          "name": "",
          "type": "uint256"
        }
      ],
      "stateMutability": "view",
      "type": "function"
    },
    {
      "inputs": [],
      "name": "contestStart",
      "outputs": [
        {
          "internalType": "uint256",
          "name": "",
          "type": "uint256"
        }
      ],
      "stateMutability": "view",
      "type": "function"
    },
    {
      "inputs": [],
      "name": "costToPropose",
      "outputs": [
        {
          "internalType": "uint256",
          "name": "",
          "type": "uint256"
        }
      ],
      "stateMutability": "view",
      "type": "function"
    },
    {
      "inputs": [],
      "name": "creator",
      "outputs": [
        {
          "internalType": "address",
          "name": "",
          "type": "address"
        }
      ],
      "stateMutability": "view",
      "type": "function"
    },
    {
      "inputs": [
        {
          "internalType": "uint256[]",
          "name": "proposalIdsToDelete",
          "type": "uint256[]"
        }
      ],
      "name": "deleteProposals",
      "outputs": [],
      "stateMutability": "nonpayable",
      "type": "function"
    },
    {
      "inputs": [
        {
          "internalType": "uint256",
          "name": "",
          "type": "uint256"
        }
      ],
      "name": "deletedProposalIds",
      "outputs": [
        {
          "internalType": "uint256",
          "name": "",
          "type": "uint256"
        }
      ],
      "stateMutability": "view",
      "type": "function"
    },
    {
      "inputs": [],
      "name": "downvotingAllowed",
      "outputs": [
        {
          "internalType": "uint256",
          "name": "",
          "type": "uint256"
        }
      ],
      "stateMutability": "view",
      "type": "function"
    },
    {
      "inputs": [],
      "name": "eip712Domain",
      "outputs": [
        {
          "internalType": "bytes1",
          "name": "fields",
          "type": "bytes1"
        },
        {
          "internalType": "string",
          "name": "name",
          "type": "string"
        },
        {
          "internalType": "string",
          "name": "version",
          "type": "string"
        },
        {
          "internalType": "uint256",
          "name": "chainId",
          "type": "uint256"
        },
        {
          "internalType": "address",
          "name": "verifyingContract",
          "type": "address"
        },
        {
          "internalType": "bytes32",
          "name": "salt",
          "type": "bytes32"
        },
        {
          "internalType": "uint256[]",
          "name": "extensions",
          "type": "uint256[]"
        }
      ],
      "stateMutability": "view",
      "type": "function"
    },
    {
      "inputs": [],
      "name": "getAllAddressesThatHaveVoted",
      "outputs": [
        {
          "internalType": "address[]",
          "name": "",
          "type": "address[]"
        }
      ],
      "stateMutability": "view",
      "type": "function"
    },
    {
      "inputs": [],
      "name": "getAllDeletedProposalIds",
      "outputs": [
        {
          "internalType": "uint256[]",
          "name": "",
          "type": "uint256[]"
        }
      ],
      "stateMutability": "view",
      "type": "function"
    },
    {
      "inputs": [],
      "name": "getAllProposalAuthors",
      "outputs": [
        {
          "internalType": "address[]",
          "name": "",
          "type": "address[]"
        }
      ],
      "stateMutability": "view",
      "type": "function"
    },
    {
      "inputs": [],
      "name": "getAllProposalIds",
      "outputs": [
        {
          "internalType": "uint256[]",
          "name": "",
          "type": "uint256[]"
        }
      ],
      "stateMutability": "view",
      "type": "function"
    },
    {
      "inputs": [
        {
          "internalType": "address",
          "name": "account",
          "type": "address"
        }
      ],
      "name": "getNumSubmissions",
      "outputs": [
        {
          "internalType": "uint256",
          "name": "",
          "type": "uint256"
        }
      ],
      "stateMutability": "view",
      "type": "function"
    },
    {
      "inputs": [
        {
          "internalType": "uint256",
          "name": "proposalId",
          "type": "uint256"
        }
      ],
      "name": "getProposal",
      "outputs": [
        {
          "components": [
            {
              "internalType": "address",
              "name": "author",
              "type": "address"
            },
            {
              "internalType": "bool",
              "name": "exists",
              "type": "bool"
            },
            {
              "internalType": "string",
              "name": "description",
              "type": "string"
            },
            {
              "components": [
                {
                  "internalType": "address",
                  "name": "targetAddress",
                  "type": "address"
                }
              ],
              "internalType": "struct IGovernor.TargetMetadata",
              "name": "targetMetadata",
              "type": "tuple"
            },
            {
              "components": [
                {
                  "internalType": "address[]",
                  "name": "signers",
                  "type": "address[]"
                },
                {
                  "internalType": "uint256",
                  "name": "threshold",
                  "type": "uint256"
                }
              ],
              "internalType": "struct IGovernor.SafeMetadata",
              "name": "safeMetadata",
              "type": "tuple"
            }
          ],
          "internalType": "struct IGovernor.ProposalCore",
          "name": "",
          "type": "tuple"
        }
      ],
      "stateMutability": "view",
      "type": "function"
    },
    {
      "inputs": [
        {
          "components": [
            {
              "internalType": "address",
              "name": "author",
              "type": "address"
            },
            {
              "internalType": "bool",
              "name": "exists",
              "type": "bool"
            },
            {
              "internalType": "string",
              "name": "description",
              "type": "string"
            },
            {
              "components": [
                {
                  "internalType": "address",
                  "name": "targetAddress",
                  "type": "address"
                }
              ],
              "internalType": "struct IGovernor.TargetMetadata",
              "name": "targetMetadata",
              "type": "tuple"
            },
            {
              "components": [
                {
                  "internalType": "address[]",
                  "name": "signers",
                  "type": "address[]"
                },
                {
                  "internalType": "uint256",
                  "name": "threshold",
                  "type": "uint256"
                }
              ],
              "internalType": "struct IGovernor.SafeMetadata",
              "name": "safeMetadata",
              "type": "tuple"
            }
          ],
          "internalType": "struct IGovernor.ProposalCore",
          "name": "proposal",
          "type": "tuple"
        }
      ],
      "name": "hashProposal",
      "outputs": [
        {
          "internalType": "uint256",
          "name": "",
          "type": "uint256"
        }
      ],
      "stateMutability": "pure",
      "type": "function"
    },
    {
      "inputs": [],
      "name": "highestTiedRanking",
      "outputs": [
        {
          "internalType": "uint256",
          "name": "",
          "type": "uint256"
        }
      ],
      "stateMutability": "view",
      "type": "function"
    },
    {
      "inputs": [
        {
          "internalType": "uint256",
          "name": "proposalId",
          "type": "uint256"
        }
      ],
      "name": "isProposalDeleted",
      "outputs": [
        {
          "internalType": "bool",
          "name": "",
          "type": "bool"
        }
      ],
      "stateMutability": "view",
      "type": "function"
    },
    {
      "inputs": [
        {
          "internalType": "uint256",
          "name": "ranking",
          "type": "uint256"
        }
      ],
      "name": "isTied",
      "outputs": [
        {
          "internalType": "bool",
          "name": "",
          "type": "bool"
        }
      ],
      "stateMutability": "view",
      "type": "function"
    },
    {
      "inputs": [],
      "name": "lowestRanking",
      "outputs": [
        {
          "internalType": "uint256",
          "name": "",
          "type": "uint256"
        }
      ],
      "stateMutability": "view",
      "type": "function"
    },
    {
      "inputs": [],
      "name": "maxProposalCount",
      "outputs": [
        {
          "internalType": "uint256",
          "name": "",
          "type": "uint256"
        }
      ],
      "stateMutability": "view",
      "type": "function"
    },
    {
      "inputs": [],
      "name": "name",
      "outputs": [
        {
          "internalType": "string",
          "name": "",
          "type": "string"
        }
      ],
      "stateMutability": "view",
      "type": "function"
    },
    {
      "inputs": [],
      "name": "numAllowedProposalSubmissions",
      "outputs": [
        {
          "internalType": "uint256",
          "name": "",
          "type": "uint256"
        }
      ],
      "stateMutability": "view",
      "type": "function"
    },
    {
      "inputs": [
        {
          "internalType": "address",
          "name": "",
          "type": "address"
        }
      ],
      "name": "numSubmissions",
      "outputs": [
        {
          "internalType": "uint256",
          "name": "",
          "type": "uint256"
        }
      ],
      "stateMutability": "view",
      "type": "function"
    },
    {
      "inputs": [],
      "name": "officialRewardsModule",
      "outputs": [
        {
          "internalType": "contract RewardsModule",
          "name": "",
          "type": "address"
        }
      ],
      "stateMutability": "view",
      "type": "function"
    },
    {
      "inputs": [],
      "name": "percentageToCreator",
      "outputs": [
        {
          "internalType": "uint256",
          "name": "",
          "type": "uint256"
        }
      ],
      "stateMutability": "view",
      "type": "function"
    },
    {
      "inputs": [],
      "name": "prompt",
      "outputs": [
        {
          "internalType": "string",
          "name": "",
          "type": "string"
        }
      ],
      "stateMutability": "view",
      "type": "function"
    },
    {
      "inputs": [
        {
          "internalType": "uint256",
          "name": "proposalId",
          "type": "uint256"
        },
        {
          "internalType": "address",
          "name": "userAddress",
          "type": "address"
        }
      ],
      "name": "proposalAddressVotes",
      "outputs": [
        {
          "internalType": "uint256",
          "name": "forVotes",
          "type": "uint256"
        },
        {
          "internalType": "uint256",
          "name": "againstVotes",
          "type": "uint256"
        }
      ],
      "stateMutability": "view",
      "type": "function"
    },
    {
      "inputs": [
        {
          "internalType": "uint256",
          "name": "proposalId",
          "type": "uint256"
        }
      ],
      "name": "proposalAddressesHaveVoted",
      "outputs": [
        {
          "internalType": "address[]",
          "name": "",
          "type": "address[]"
        }
      ],
      "stateMutability": "view",
      "type": "function"
    },
    {
      "inputs": [
        {
          "internalType": "uint256",
          "name": "",
          "type": "uint256"
        }
      ],
      "name": "proposalAuthors",
      "outputs": [
        {
          "internalType": "address",
          "name": "",
          "type": "address"
        }
      ],
      "stateMutability": "view",
      "type": "function"
    },
    {
      "inputs": [
        {
          "internalType": "uint256",
          "name": "",
          "type": "uint256"
        }
      ],
      "name": "proposalIds",
      "outputs": [
        {
          "internalType": "uint256",
          "name": "",
          "type": "uint256"
        }
      ],
      "stateMutability": "view",
      "type": "function"
    },
    {
      "inputs": [
        {
          "internalType": "uint256",
          "name": "",
          "type": "uint256"
        }
      ],
      "name": "proposalIsDeleted",
      "outputs": [
        {
          "internalType": "bool",
          "name": "",
          "type": "bool"
        }
      ],
      "stateMutability": "view",
      "type": "function"
    },
    {
      "inputs": [
        {
          "internalType": "uint256",
          "name": "proposalId",
          "type": "uint256"
        }
      ],
      "name": "proposalVotes",
      "outputs": [
        {
          "internalType": "uint256",
          "name": "forVotes",
          "type": "uint256"
        },
        {
          "internalType": "uint256",
          "name": "againstVotes",
          "type": "uint256"
        }
      ],
      "stateMutability": "view",
      "type": "function"
    },
    {
      "inputs": [
        {
          "internalType": "uint256",
          "name": "",
          "type": "uint256"
        }
      ],
      "name": "proposalVotesStructs",
      "outputs": [
        {
          "components": [
            {
              "internalType": "uint256",
              "name": "forVotes",
              "type": "uint256"
            },
            {
              "internalType": "uint256",
              "name": "againstVotes",
              "type": "uint256"
            }
          ],
          "internalType": "struct GovernorCountingSimple.VoteCounts",
          "name": "proposalVoteCounts",
          "type": "tuple"
        }
      ],
      "stateMutability": "view",
      "type": "function"
    },
    {
      "inputs": [
        {
          "internalType": "uint256",
          "name": "",
          "type": "uint256"
        }
      ],
      "name": "proposals",
      "outputs": [
        {
          "internalType": "address",
          "name": "author",
          "type": "address"
        },
        {
          "internalType": "bool",
          "name": "exists",
          "type": "bool"
        },
        {
          "internalType": "string",
          "name": "description",
          "type": "string"
        },
        {
          "components": [
            {
              "internalType": "address",
              "name": "targetAddress",
              "type": "address"
            }
          ],
          "internalType": "struct IGovernor.TargetMetadata",
          "name": "targetMetadata",
          "type": "tuple"
        },
        {
          "components": [
            {
              "internalType": "address[]",
              "name": "signers",
              "type": "address[]"
            },
            {
              "internalType": "uint256",
              "name": "threshold",
              "type": "uint256"
            }
          ],
          "internalType": "struct IGovernor.SafeMetadata",
          "name": "safeMetadata",
          "type": "tuple"
        }
      ],
      "stateMutability": "view",
      "type": "function"
    },
    {
      "inputs": [
        {
          "components": [
            {
              "internalType": "address",
              "name": "author",
              "type": "address"
            },
            {
              "internalType": "bool",
              "name": "exists",
              "type": "bool"
            },
            {
              "internalType": "string",
              "name": "description",
              "type": "string"
            },
            {
              "components": [
                {
                  "internalType": "address",
                  "name": "targetAddress",
                  "type": "address"
                }
              ],
              "internalType": "struct IGovernor.TargetMetadata",
              "name": "targetMetadata",
              "type": "tuple"
            },
            {
              "components": [
                {
                  "internalType": "address[]",
                  "name": "signers",
                  "type": "address[]"
                },
                {
                  "internalType": "uint256",
                  "name": "threshold",
                  "type": "uint256"
                }
              ],
              "internalType": "struct IGovernor.SafeMetadata",
              "name": "safeMetadata",
              "type": "tuple"
            }
          ],
          "internalType": "struct IGovernor.ProposalCore",
          "name": "proposal",
          "type": "tuple"
        },
        {
          "internalType": "bytes32[]",
          "name": "proof",
          "type": "bytes32[]"
        }
      ],
      "name": "propose",
      "outputs": [
        {
          "internalType": "uint256",
          "name": "",
          "type": "uint256"
        }
      ],
      "stateMutability": "payable",
      "type": "function"
    },
    {
      "inputs": [
        {
          "components": [
            {
              "internalType": "address",
              "name": "author",
              "type": "address"
            },
            {
              "internalType": "bool",
              "name": "exists",
              "type": "bool"
            },
            {
              "internalType": "string",
              "name": "description",
              "type": "string"
            },
            {
              "components": [
                {
                  "internalType": "address",
                  "name": "targetAddress",
                  "type": "address"
                }
              ],
              "internalType": "struct IGovernor.TargetMetadata",
              "name": "targetMetadata",
              "type": "tuple"
            },
            {
              "components": [
                {
                  "internalType": "address[]",
                  "name": "signers",
                  "type": "address[]"
                },
                {
                  "internalType": "uint256",
                  "name": "threshold",
                  "type": "uint256"
                }
              ],
              "internalType": "struct IGovernor.SafeMetadata",
              "name": "safeMetadata",
              "type": "tuple"
            }
          ],
          "internalType": "struct IGovernor.ProposalCore",
          "name": "proposal",
          "type": "tuple"
        }
      ],
      "name": "proposeWithoutProof",
      "outputs": [
        {
          "internalType": "uint256",
          "name": "",
          "type": "uint256"
        }
      ],
      "stateMutability": "payable",
      "type": "function"
    },
    {
      "inputs": [
        {
          "internalType": "uint256",
          "name": "ranking",
          "type": "uint256"
        }
      ],
      "name": "rankingPosition",
      "outputs": [
        {
          "internalType": "uint256",
          "name": "",
          "type": "uint256"
        }
      ],
      "stateMutability": "view",
      "type": "function"
    },
    {
      "inputs": [
        {
          "internalType": "contract RewardsModule",
          "name": "officialRewardsModule_",
          "type": "address"
        }
      ],
      "name": "setOfficialRewardsModule",
      "outputs": [],
      "stateMutability": "nonpayable",
      "type": "function"
    },
    {
      "inputs": [],
      "name": "setSortedAndTiedProposals",
      "outputs": [],
      "stateMutability": "nonpayable",
      "type": "function"
    },
    {
      "inputs": [],
      "name": "setSortedAndTiedProposalsHasBeenRun",
      "outputs": [
        {
          "internalType": "bool",
          "name": "",
          "type": "bool"
        }
      ],
      "stateMutability": "view",
      "type": "function"
    },
    {
      "inputs": [],
      "name": "sortedProposalIds",
      "outputs": [
        {
          "internalType": "uint256[]",
          "name": "",
          "type": "uint256[]"
        }
      ],
      "stateMutability": "view",
      "type": "function"
    },
    {
      "inputs": [
        {
          "internalType": "bool",
          "name": "excludeDeletedProposals",
          "type": "bool"
        }
      ],
      "name": "sortedProposals",
      "outputs": [
        {
          "internalType": "uint256[]",
          "name": "sortedProposalIdsReturn",
          "type": "uint256[]"
        }
      ],
      "stateMutability": "view",
      "type": "function"
    },
    {
      "inputs": [],
      "name": "state",
      "outputs": [
        {
          "internalType": "enum IGovernor.ContestState",
          "name": "",
          "type": "uint8"
        }
      ],
      "stateMutability": "view",
      "type": "function"
    },
    {
      "inputs": [],
      "name": "submissionMerkleRoot",
      "outputs": [
        {
          "internalType": "bytes32",
          "name": "",
          "type": "bytes32"
        }
      ],
      "stateMutability": "view",
      "type": "function"
    },
    {
      "inputs": [
        {
          "internalType": "bytes4",
          "name": "interfaceId",
          "type": "bytes4"
        }
      ],
      "name": "supportsInterface",
      "outputs": [
        {
          "internalType": "bool",
          "name": "",
          "type": "bool"
        }
      ],
      "stateMutability": "view",
      "type": "function"
    },
    {
      "inputs": [
        {
          "internalType": "uint256",
          "name": "",
          "type": "uint256"
        }
      ],
      "name": "tiedAdjustedRankingPosition",
      "outputs": [
        {
          "internalType": "uint256",
          "name": "",
          "type": "uint256"
        }
      ],
      "stateMutability": "view",
      "type": "function"
    },
    {
      "inputs": [],
      "name": "totalVotesCast",
      "outputs": [
        {
          "internalType": "uint256",
          "name": "",
          "type": "uint256"
        }
      ],
      "stateMutability": "view",
      "type": "function"
    },
    {
      "inputs": [
        {
          "components": [
            {
              "internalType": "address",
              "name": "author",
              "type": "address"
            },
            {
              "internalType": "bool",
              "name": "exists",
              "type": "bool"
            },
            {
              "internalType": "string",
              "name": "description",
              "type": "string"
            },
            {
              "components": [
                {
                  "internalType": "address",
                  "name": "targetAddress",
                  "type": "address"
                }
              ],
              "internalType": "struct IGovernor.TargetMetadata",
              "name": "targetMetadata",
              "type": "tuple"
            },
            {
              "components": [
                {
                  "internalType": "address[]",
                  "name": "signers",
                  "type": "address[]"
                },
                {
                  "internalType": "uint256",
                  "name": "threshold",
                  "type": "uint256"
                }
              ],
              "internalType": "struct IGovernor.SafeMetadata",
              "name": "safeMetadata",
              "type": "tuple"
            }
          ],
          "internalType": "struct IGovernor.ProposalCore",
          "name": "proposal",
          "type": "tuple"
        }
      ],
      "name": "validateProposalData",
      "outputs": [
        {
          "internalType": "bool",
          "name": "dataValidated",
          "type": "bool"
        }
      ],
      "stateMutability": "nonpayable",
      "type": "function"
    },
    {
      "inputs": [
        {
          "internalType": "address",
          "name": "account",
          "type": "address"
        },
        {
          "internalType": "bytes32[]",
          "name": "proof",
          "type": "bytes32[]"
        }
      ],
      "name": "verifyProposer",
      "outputs": [
        {
          "internalType": "bool",
          "name": "verified",
          "type": "bool"
        }
      ],
      "stateMutability": "nonpayable",
      "type": "function"
    },
    {
      "inputs": [
        {
          "internalType": "address",
          "name": "account",
          "type": "address"
        },
        {
          "internalType": "uint256",
          "name": "totalVotes",
          "type": "uint256"
        },
        {
          "internalType": "bytes32[]",
          "name": "proof",
          "type": "bytes32[]"
        }
      ],
      "name": "verifyVoter",
      "outputs": [
        {
          "internalType": "bool",
          "name": "verified",
          "type": "bool"
        }
      ],
      "stateMutability": "nonpayable",
      "type": "function"
    },
    {
      "inputs": [],
      "name": "version",
      "outputs": [
        {
          "internalType": "string",
          "name": "",
          "type": "string"
        }
      ],
      "stateMutability": "view",
      "type": "function"
    },
    {
      "inputs": [],
      "name": "voteStart",
      "outputs": [
        {
          "internalType": "uint256",
          "name": "",
          "type": "uint256"
        }
      ],
      "stateMutability": "view",
      "type": "function"
    },
    {
      "inputs": [],
      "name": "votingDelay",
      "outputs": [
        {
          "internalType": "uint256",
          "name": "",
          "type": "uint256"
        }
      ],
      "stateMutability": "view",
      "type": "function"
    },
    {
      "inputs": [],
      "name": "votingMerkleRoot",
      "outputs": [
        {
          "internalType": "bytes32",
          "name": "",
          "type": "bytes32"
        }
      ],
      "stateMutability": "view",
      "type": "function"
    },
    {
      "inputs": [],
      "name": "votingPeriod",
      "outputs": [
        {
          "internalType": "uint256",
          "name": "",
          "type": "uint256"
        }
      ],
      "stateMutability": "view",
      "type": "function"
    }
  ],
  "bytecode": {
    "object": "0x6101a0604052601b805460ff191690553480156200001c57600080fd5b5060405162005379380380620053798339810160408190526200003f916200066d565b8060008151811062000055576200005562000791565b60200260200101518160018151811062000073576200007362000791565b60200260200101518260028151811062000091576200009162000791565b602002602001015183600381518110620000af57620000af62000791565b602002602001015184600481518110620000cd57620000cd62000791565b602002602001015185600581518110620000eb57620000eb62000791565b60200260200101518c8c8c8c8c8c8383876200010c6200029c60201b60201c565b62000119826000620002b9565b610120526200012a816001620002b9565b61014052815160208084019190912060e052815190820120610100524660a052620001b860e05161010051604080517f8b73c3c69bb8fe3d512ecc4cf759cc79239f7b179b0ffacaa9a75d522b39400f60208201529081019290925260608201524660808201523060a082015260009060c00160405160208183030381529060405280519060200120905090565b60805250503060c05261016091909152610180526002620001da878262000836565b506003620001e9868262000836565b50600c829055600d8190556040517f1eae03a78f765227bc1e8574db32390cefa5b3c0a954017973e497e40a1237349062000228908890339062000930565b60405180910390a15050505050506200024786620002f260201b60201c565b620002528562000333565b6200025d8462000374565b62000268836200041b565b62000273826200045c565b6200027e816200049d565b6200028933620004de565b505050505050505050505050506200099d565b604080518082019091526003815262342e3160e81b602082015290565b6000602083511015620002d957620002d18362000547565b9050620002ec565b81620002e6848262000836565b5060ff90505b92915050565b60115460408051918252602082018390527fd299feb1d7d9345a48559601c471c3be7eea9a11f21d5e86809198f40a974db4910160405180910390a1601155565b60125460408051918252602082018390527fc565b045403dc03c2eea82b81a0465edad9e2e7fc4d97e11421c209da93d7a93910160405180910390a1601255565b60008111620003da5760405162461bcd60e51b815260206004820152602760248201527f476f7665726e6f7253657474696e67733a20766f74696e6720706572696f6420604482015266746f6f206c6f7760c81b60648201526084015b60405180910390fd5b60135460408051918252602082018390527f7e3f7f0708a84de9203036abaa450dccc85ad5ff52f78c170f3edb55cf5e8828910160405180910390a1601355565b60145460408051918252602082018390527fe971b819c7fb95c72451f557226aceb5baaf4994a9d39a79bbfa0040e87500b9910160405180910390a1601455565b60155460408051918252602082018390527f4984ec996723330ee95979ed65a2a4b41edd914e68a187efe92596474643bdff910160405180910390a1601555565b60165460408051918252602082018390527f9c7b27f091caef3a83be73d89320404fa0c4a52993685ff0651672e49e6e55ab910160405180910390a1601655565b601754604080516001600160a01b03928316815291831660208301527fc30034fc2e9697980e08935bbc287db3eaa44a4aa113ef4c108b356adbf911ce910160405180910390a1601780546001600160a01b0319166001600160a01b0392909216919091179055565b600080829050601f8151111562000575578260405163305a27a960e01b8152600401620003d191906200095c565b8051620005828262000978565b179392505050565b634e487b7160e01b600052604160045260246000fd5b604051601f8201601f191681016001600160401b0381118282101715620005cb57620005cb6200058a565b604052919050565b60005b83811015620005f0578181015183820152602001620005d6565b50506000910152565b600082601f8301126200060b57600080fd5b81516001600160401b038111156200062757620006276200058a565b6200063c601f8201601f1916602001620005a0565b8181528460208386010111156200065257600080fd5b62000665826020830160208701620005d3565b949350505050565b600080600080600080600060e0888a0312156200068957600080fd5b87516001600160401b0380821115620006a157600080fd5b620006af8b838c01620005f9565b985060209150818a015181811115620006c757600080fd5b620006d58c828d01620005f9565b98505060408a0151965060608a0151955060808a0151945060a08a0151935060c08a0151818111156200070757600080fd5b8a01601f81018c136200071957600080fd5b8051828111156200072e576200072e6200058a565b8060051b925062000741848401620005a0565b818152928201840192848101908e8511156200075c57600080fd5b928501925b848410156200077c5783518252928501929085019062000761565b80965050505050505092959891949750929550565b634e487b7160e01b600052603260045260246000fd5b600181811c90821680620007bc57607f821691505b602082108103620007dd57634e487b7160e01b600052602260045260246000fd5b50919050565b601f8211156200083157600081815260208120601f850160051c810160208610156200080c5750805b601f850160051c820191505b818110156200082d5782815560010162000818565b5050505b505050565b81516001600160401b038111156200085257620008526200058a565b6200086a81620008638454620007a7565b84620007e3565b602080601f831160018114620008a25760008415620008895750858301515b600019600386901b1c1916600185901b1785556200082d565b600085815260208120601f198616915b82811015620008d357888601518255948401946001909101908401620008b2565b5085821015620008f25787850151600019600388901b60f8161c191681555b5050505050600190811b01905550565b600081518084526200091c816020860160208601620005d3565b601f01601f19169290920160200192915050565b60408152600062000945604083018562000902565b905060018060a01b03831660208301529392505050565b60208152600062000971602083018462000902565b9392505050565b80516020808301519190811015620007dd5760001960209190910360031b1b16919050565b60805160a05160c05160e051610100516101205161014051610160516101805161495e62000a1b60003960008181610bcc015261129b015260008181610ad7015281816110820152818161123601526115b9015260006119d6015260006119ac0152600050506000505060005050600050506000505061495e6000f3fe60806040526004361061040f5760003560e01c806375e509c51161021e578063c7f758a811610123578063ebc18b9b116100ab578063f0a7db0a1161007a578063f0a7db0a14610cd9578063f4f3d7ec14610cf9578063f79c017214610d19578063fb8ddab414610d49578063fb9bf8d414610d6957600080fd5b8063ebc18b9b14610c72578063edcd1be414610c87578063eef18e1714610c9c578063efa90d3614610cc457600080fd5b8063dd96a19d116100f2578063dd96a19d14610bba578063dea5f6a614610bee578063e031535b14610c1b578063e5eb5a4814610c30578063ea8a1af014610c5d57600080fd5b8063c7f758a814610b2e578063cb85395014610b5b578063d45a010b14610b8b578063d889161914610ba057600080fd5b8063946369b5116101a6578063aec116b611610175578063aec116b614610a6f578063b323580d14610aa5578063bddc164114610ac5578063c0ffaa7814610af9578063c19d93fb14610b0c57600080fd5b8063946369b5146109f657806396f0e96214610a0b5780639b644a2314610a22578063a1ac6cb214610a4257600080fd5b8063832009af116101ed578063832009af1461095457806384b0196e1461096957806386187488146109915780638a9cd550146109b1578063930de979146109c657600080fd5b806375e509c5146108dc578063785ddfe5146109095780637c65d711146109295780637de418d51461093e57600080fd5b80633b6d199b11610324578063531bd812116102ac57806360506ff61161027b57806360506ff61461085d57806365f16263146108725780636ca1a2c7146108925780636e4eb810146108a75780636ed815ad146108c757600080fd5b8063531bd81214610791578063544ffc9c146107b157806354fd4d50146107fb5780635f953a031461082757600080fd5b8063458da87d116102f3578063458da87d14610706578063476f4d8a146107265780634d24a67f1461073957806350a5e5241461074e57806350c4b6161461077157600080fd5b80633b6d199b1461067c5780633f9942ff146106ac578063419c533c146106c6578063427d56c2146106e657600080fd5b80630aa25e44116103a7578063262e59e911610376578063262e59e9146105f45780632c39805f1461060957806332763c221461062b578063347cf6651461064b5780633932abb11461066757600080fd5b80630aa25e44146105725780631242b7371461059257806320b3e845146105b45780632399c660146105d457600080fd5b806302d05d3f116103e357806302d05d3f146104b257806305846cae146104df57806306fdde03146104ff578063070dc5d91461052157600080fd5b80624114a814610414578063013cf08b1461043c57806301ffc9a71461046d57806302a251a31461049d575b600080fd5b34801561042057600080fd5b50610429610d7e565b6040519081526020015b60405180910390f35b34801561044857600080fd5b5061045c610457366004613b20565b610d8e565b604051610433959493929190613bd8565b34801561047957600080fd5b5061048d610488366004613c2a565b610ed6565b6040519015158152602001610433565b3480156104a957600080fd5b50610429610f0d565b3480156104be57600080fd5b506104c7610f18565b6040516001600160a01b039091168152602001610433565b3480156104eb57600080fd5b506104296104fa366004613b20565b610f2c565b34801561050b57600080fd5b50610514610f4d565b6040516104339190613c54565b34801561052d57600080fd5b5061056561053c366004613b20565b601a60209081526000918252604091829020825180840190935280548352600101549082015281565b6040516104339190613c67565b34801561057e57600080fd5b506104c761058d366004613b20565b610fdf565b34801561059e57600080fd5b506105a7611009565b6040516104339190613cb9565b3480156105c057600080fd5b5061048d6105cf366004613d28565b611060565b3480156105e057600080fd5b5061048d6105ef366004613b20565b6110f6565b34801561060057600080fd5b5061042961113a565b34801561061557600080fd5b5061061e611156565b6040516104339190613d7c565b34801561063757600080fd5b5061048d610646366004613dde565b6111b7565b34801561065757600080fd5b50610429678ac7230489e8000081565b34801561067357600080fd5b506104296112f4565b34801561068857600080fd5b5061048d610697366004613b20565b60009081526006602052604090205460ff1690565b3480156106b857600080fd5b5060075461048d9060ff1681565b3480156106d257600080fd5b506104296106e1366004613e5f565b6112ff565b3480156106f257600080fd5b506105a7610701366004613ecf565b6113bb565b34801561071257600080fd5b50610429610721366004614186565b611563565b6104296107343660046141d2565b611594565b34801561074557600080fd5b50610429611651565b34801561075a57600080fd5b5061076361165f565b604051610433929190614206565b34801561077d57600080fd5b506104c761078c366004613b20565b6117ae565b34801561079d57600080fd5b5061048d6107ac36600461426f565b6117be565b3480156107bd57600080fd5b506107e66107cc366004613b20565b6000908152601a6020526040902080546001909101549091565b60408051928352602083019190915201610433565b34801561080757600080fd5b50604080518082019091526003815262342e3160e81b6020820152610514565b34801561083357600080fd5b506104296108423660046142ca565b6001600160a01b031660009081526009602052604090205490565b34801561086957600080fd5b50610429611829565b34801561087e57600080fd5b5061042961088d3660046142e7565b611834565b34801561089e57600080fd5b50610429611923565b3480156108b357600080fd5b506107e66108c236600461431c565b61194f565b3480156108d357600080fd5b50600c54610429565b3480156108e857600080fd5b506104296108f73660046142ca565b60096020526000908152604090205481565b34801561091557600080fd5b506021546104c7906001600160a01b031681565b34801561093557600080fd5b50610514611984565b34801561094a57600080fd5b5061042960185481565b34801561096057600080fd5b50610429611993565b34801561097557600080fd5b5061097e61199e565b604051610433979695949392919061434c565b34801561099d57600080fd5b506104296109ac366004613b20565b611a26565b3480156109bd57600080fd5b506105a7611a5e565b3480156109d257600080fd5b5061048d6109e13660046142ca565b600f6020526000908152604090205460ff1681565b348015610a0257600080fd5b5061061e611ad7565b348015610a1757600080fd5b50610a20611b37565b005b348015610a2e57600080fd5b50610429610a3d366004613b20565b611e54565b348015610a4e57600080fd5b50610429610a5d3660046142ca565b60196020526000908152604090205481565b348015610a7b57600080fd5b50610429610a8a3660046142ca565b6001600160a01b031660009081526019602052604090205490565b348015610ab157600080fd5b5061061e610ac0366004613b20565b611e64565b348015610ad157600080fd5b506104297f000000000000000000000000000000000000000000000000000000000000000081565b610429610b073660046143bc565b611ed6565b348015610b1857600080fd5b50610b21611f68565b604051610433919061442d565b348015610b3a57600080fd5b50610b4e610b49366004613b20565b611fda565b6040516104339190614455565b348015610b6757600080fd5b5061048d610b763660046142ca565b60106020526000908152604090205460ff1681565b348015610b9757600080fd5b50610763612154565b348015610bac57600080fd5b50601b5461048d9060ff1681565b348015610bc657600080fd5b506104297f000000000000000000000000000000000000000000000000000000000000000081565b348015610bfa57600080fd5b50610429610c093660046142ca565b600e6020526000908152604090205481565b348015610c2757600080fd5b50610429612368565b348015610c3c57600080fd5b50610429610c4b366004613b20565b601c6020526000908152604090205481565b348015610c6957600080fd5b50610a2061237a565b348015610c7e57600080fd5b506104296124e4565b348015610c9357600080fd5b50600d54610429565b348015610ca857600080fd5b506104c773dc652c746a8f85e18ce632d97c6118e8a52fa73881565b348015610cd057600080fd5b506105a7612510565b348015610ce557600080fd5b50610a20610cf43660046144bc565b612566565b348015610d0557600080fd5b50610a20610d143660046142ca565b612776565b348015610d2557600080fd5b5061048d610d34366004613b20565b60066020526000908152604090205460ff1681565b348015610d5557600080fd5b5061048d610d64366004614186565b612873565b348015610d7557600080fd5b50610429612b12565b6000610d8960115490565b905090565b600860205260009081526040902080546001820180546001600160a01b03831693600160a01b90930460ff16929190610dc6906144fd565b80601f0160208091040260200160405190810160405280929190818152602001828054610df2906144fd565b8015610e3f5780601f10610e1457610100808354040283529160200191610e3f565b820191906000526020600020905b815481529060010190602001808311610e2257829003601f168201915b5050604080516020808201835260028801546001600160a01b031682528251600389018054606093810283018401865294820185815298999398939750909550935084928491840182828015610ebe57602002820191906000526020600020905b81546001600160a01b03168152600190910190602001808311610ea0575b50505050508152602001600182015481525050905085565b60006001600160e01b0319821663b082528b60e01b1480610f0757506301ffc9a760e01b6001600160e01b03198316145b92915050565b6000610d8960135490565b6000610d896017546001600160a01b031690565b60058181548110610f3c57600080fd5b600091825260209091200154905081565b606060028054610f5c906144fd565b80601f0160208091040260200160405190810160405280929190818152602001828054610f88906144fd565b8015610fd55780601f10610faa57610100808354040283529160200191610fd5565b820191906000526020600020905b815481529060010190602001808311610fb857829003601f168201915b5050505050905090565b600a8181548110610fef57600080fd5b6000918252602090912001546001600160a01b0316905081565b60606005805480602002602001604051908101604052809291908181526020018280548015610fd557602002820191906000526020600020905b815481526020019060010190808311611043575050505050905090565b6001600160a01b03831660009081526010602052604081205460ff166110eb577f00000000000000000000000000000000000000000000000000000000000000006000036110b0575060016110ef565b6110c684678ac7230489e80000858560006111b7565b506001600160a01b0384166000908152601060205260409020805460ff191660011790555b5060015b9392505050565b601b5460009060ff166111245760405162461bcd60e51b815260040161111b90614531565b60405180910390fd5b506000908152601d602052604090205460ff1690565b6000611144610f0d565b61114c612368565b610d8991906145b2565b6060600b805480602002602001604051908101604052809291908181526020018280548015610fd557602002820191906000526020600020905b81546001600160a01b03168152600190910190602001808311611190575050505050905090565b6040516bffffffffffffffffffffffff19606087901b166020820152603481018590526000908190605401604051602081830303815290604052805190602001209050600083611266576112618686808060200260200160405190810160405280939291908181526020018383602002808284376000920191909152507f00000000000000000000000000000000000000000000000000000000000000009250869150612b1d9050565b6112c6565b6112c68686808060200260200160405190810160405280939291908181526020018383602002808284376000920191909152507f00000000000000000000000000000000000000000000000000000000000000009250869150612b1d9050565b9050806112e65760405163452c2df160e11b815260040160405180910390fd5b506001979650505050505050565b6000610d8960125490565b600086815260066020526040812054339060ff16156113305760405162461bcd60e51b815260040161111b906145c5565b61133c818786866117be565b6113a35760405162461bcd60e51b815260206004820152603260248201527f476f7665726e6f723a20746869732061646472657373206973206e6f74207065604482015271726d697373696f6e656420746f20766f746560701b606482015260840161111b565b6113af88828988612b33565b98975050505050505050565b6060600080836113d2576113cd61165f565b6113da565b6113da612154565b91509150600082511161144a5760405162461bcd60e51b815260206004820152603260248201527f476f7665726e6f72536f7274696e673a2063616e6e6f7420736f72742061206c6044820152710d2e6e840decc40f4cae4de40d8cadccee8d60731b606482015260840161111b565b600082516001600160401b0381111561146557611465613eea565b60405190808252806020026020018201604052801561148e578160200160208202803683370190505b50905060005b8251811015611522576114c38382815181106114b2576114b2614614565b602002602001015160200151612d95565b6114e98483815181106114d8576114d8614614565b602002602001015160000151612d95565b6114f3919061462a565b82828151811061150557611505614614565b60209081029190910101528061151a81614651565b915050611494565b5060005b60018451611534919061466a565b81101561155957611546818386612e03565b508061155181614651565b915050611526565b5091949350505050565b6000816040516020016115769190614455565b60408051601f19818403018152919052805160209091012092915050565b6000600c5434146115b75760405162461bcd60e51b815260040161111b9061467d565b7f00000000000000000000000000000000000000000000000000000000000000001561160c573360009081526010602052604090205460ff1661160c5760405162461bcd60e51b815260040161111b90614700565b611618610d648361474f565b6116345760405162461bcd60e51b815260040161111b9061475b565b60006116476116428461474f565b612f69565b9050610f0761334a565b61165c6001806145b2565b81565b606080600060048054806020026020016040519081016040528092919081815260200182805480156116b057602002820191906000526020600020905b81548152602001906001019080831161169c575b50505050509050600081516001600160401b038111156116d2576116d2613eea565b60405190808252806020026020018201604052801561171757816020015b60408051808201909152600080825260208201528152602001906001900390816116f05790505b50905060005b82518110156117a457601a600084838151811061173c5761173c614614565b602002602001015181526020019081526020016000206000016040518060400160405290816000820154815260200160018201548152505082828151811061178657611786614614565b6020026020010181905250808061179c90614651565b91505061171d565b5090939092509050565b600b8181548110610fef57600080fd5b6001600160a01b0384166000908152600f602052604081205460ff1661181e576117ec8585858560016111b7565b506001600160a01b0385166000908152600e60209081526040808320879055600f9091529020805460ff191660011790555b506001949350505050565b6000610d8960165490565b600083815260066020526040812054339060ff16156118655760405162461bcd60e51b815260040161111b906145c5565b6001600160a01b0381166000908152600f602052604090205460ff1661190e5760405162461bcd60e51b815260206004820152605260248201527f476f7665726e6f723a20796f75206e65656420746f2063617374206120766f7460448201527f652077697468207468652070726f6f66206174206c65617374206f6e636520616064820152711b99081e5bdd481a185d995b89dd081e595d60721b608482015260a40161111b565b61191a85828686612b33565b95945050505050565b601b5460009060ff166119485760405162461bcd60e51b815260040161111b90614531565b50601f5490565b6000828152601a602090815260408083206001600160a01b0385168452600301909152902080546001909101545b9250929050565b606060038054610f5c906144fd565b6000610d8960145490565b6000606080828080836119d17f00000000000000000000000000000000000000000000000000000000000000008361345e565b6119fc7f0000000000000000000000000000000000000000000000000000000000000000600161345e565b60408051600080825260208201909252600f60f81b9b939a50919850469750309650945092509050565b601b5460009060ff16611a4b5760405162461bcd60e51b815260040161111b90614531565b506000908152601c602052604090205490565b601b5460609060ff16611a835760405162461bcd60e51b815260040161111b90614531565b601e805480602002602001604051908101604052809291908181526020018280548015610fd55760200282019190600052602060002090815481526020019060010190808311611043575050505050905090565b6060600a805480602002602001604051908101604052809291908181526020018280548015610fd5576020028201919060005260206000209081546001600160a01b03168152600190910190602001808311611190575050505050905090565b6004611b41611f68565b6004811115611b5257611b52614417565b14611bd55760405162461bcd60e51b815260206004820152604760248201527f476f7665726e6f72536f7274696e673a20636f6e74657374206d75737420626560448201527f20746f2063616c63756c61746520736f7274656420616e6420746965642070726064820152666f706f73616c7360c81b608482015260a40161111b565b601b5460ff1615611c745760405162461bcd60e51b815260206004820152605f60248201527f476f7665726e6f72536f7274696e673a20736574536f72746564416e6454696560448201527f6450726f706f73616c7328292068617320616c7265616479206265656e20727560648201527f6e20616e642069747320726573706563746976652076616c7565732073657400608482015260a40161111b565b611c7e60016113bb565b8051611c9291601e916020909101906139fe565b50601e54600090600190611ca690826145b2565b602055601e5460005b81811015611e4157601e54600090611cc99060019061466a565b9050600080611d12601e611cdd868661466a565b81548110611ced57611ced614614565b90600052602060002001546000908152601a6020526040902080546001909101549091565b915091506000611d2182612d95565b611d2a84612d95565b611d34919061462a565b905084600003611d6d57601e549097508790600103611d64576000878152601c60205260409020849055601f8790555b50505050611e2f565b878103611dc5576000878152601d602052604090205460ff16611da4576000878152601d60205260409020805460ff191660011790555b601e54611db29060016145b2565b60205403611dc05760208790555b611df7565b611dcf858561466a565b611dda9060016145b2565b6000888152601c602052604090205586611df381614651565b9750505b601e54611e058660016145b2565b03611e2957611e14858561466a565b6000888152601c6020526040902055601f8790555b96505050505b80611e3981614651565b915050611caf565b5050601b805460ff191660011790555050565b60048181548110610f3c57600080fd5b6000818152601a60209081526040918290206002810180548451818502810185019095528085526060949293830182828015611ec957602002820191906000526020600020905b81546001600160a01b03168152600190910190602001808311611eab575b5050505050915050919050565b6000600c543414611ef95760405162461bcd60e51b815260040161111b9061467d565b611f04338484611060565b611f205760405162461bcd60e51b815260040161111b90614700565b611f2c610d648561474f565b611f485760405162461bcd60e51b815260040161111b9061475b565b6000611f566116428661474f565b9050611f6061334a565b949350505050565b60075460009060ff1615611f7c5750600290565b6000611f86610d7e565b9050428110611f9757600091505090565b6000611fa1612368565b9050428110611fb35760039250505090565b6000611fbd61113a565b9050428110611fd0576001935050505090565b6004935050505090565b611fe2613a45565b600082815260086020908152604091829020825160a08101845281546001600160a01b0381168252600160a01b900460ff161515928101929092526001810180549293919291840191612034906144fd565b80601f0160208091040260200160405190810160405280929190818152602001828054612060906144fd565b80156120ad5780601f10612082576101008083540402835291602001916120ad565b820191906000526020600020905b81548152906001019060200180831161209057829003601f168201915b5050509183525050604080516020818101835260028501546001600160a01b0316825280840191909152815160038501805460609381028301840185528285018181529490950194919390928492849184018282801561213657602002820191906000526020600020905b81546001600160a01b03168152600190910190602001808311612118575b50505050508152602001600182015481525050815250509050919050565b606080600060048054806020026020016040519081016040528092919081815260200182805480156121a557602002820191906000526020600020905b815481526020019060010190808311612191575b50505050509050600081516001600160401b038111156121c7576121c7613eea565b6040519080825280602002602001820160405280156121f0578160200160208202803683370190505b509050600082516001600160401b0381111561220e5761220e613eea565b60405190808252806020026020018201604052801561225357816020015b604080518082019091526000808252602082015281526020019060019003908161222c5790505b5090506000805b845181101561235c5761229585828151811061227857612278614614565b602002602001015160009081526006602052604090205460ff1690565b61234a578481815181106122ab576122ab614614565b60200260200101518483815181106122c5576122c5614614565b602002602001018181525050601a60008683815181106122e7576122e7614614565b602002602001015181526020019081526020016000206000016040518060400160405290816000820154815260200160018201548152505083838151811061233157612331614614565b60209081029190910101526123476001836145b2565b91505b8061235481614651565b91505061225a565b50919590945092505050565b60006123726112f4565b61114c610d7e565b612382610f18565b6001600160a01b0316336001600160a01b031614806123b457503373dc652c746a8f85e18ce632d97c6118e8a52fa738145b61241f5760405162461bcd60e51b815260206004820152603660248201527f476f7665726e6f723a206f6e6c792063726561746f72206f72206a6b206c61626044820152751cc818d85b8818d85b98d95b08184818dbdb9d195cdd60521b606482015260840161111b565b6000612429611f68565b9050600281600481111561243f5761243f614417565b1415801561245f5750600481600481111561245c5761245c614417565b14155b6124ab5760405162461bcd60e51b815260206004820152601c60248201527f476f7665726e6f723a20636f6e74657374206e6f742061637469766500000000604482015260640161111b565b6007805460ff191660011790556040517f4cd963a081760a54f571abc0f1db4dde31b4a07d8d6da3e844b8c6f47eeaaa4290600090a150565b601b5460009060ff166125095760405162461bcd60e51b815260040161111b90614531565b5060205490565b60606004805480602002602001604051908101604052809291908181526020018280548015610fd55760200282019190600052602060002090815481526020019060010190808311611043575050505050905090565b61256e610f18565b6001600160a01b0316336001600160a01b0316146125f45760405162461bcd60e51b815260206004820152603760248201527f476f7665726e6f723a206f6e6c792074686520636f6e7465737420637265617460448201527f6f722063616e2064656c6574652070726f706f73616c73000000000000000000606482015260840161111b565b60046125fe611f68565b600481111561260f5761260f614417565b036126945760405162461bcd60e51b815260206004820152604960248201527f476f7665726e6f723a2064656c6574696f6e206f662070726f706f73616c732060448201527f61667465722074686520656e64206f66206120636f6e74657374206973206e6f6064820152681d08185b1b1bddd95960ba1b608482015260a40161111b565b60005b818110156127395760008383838181106126b3576126b3614614565b60209081029290920135600081815260069093526040909220549192505060ff16612726576000818152600660205260408120805460ff191660019081179091556005805491820181559091527f036b6384b5eca791c62761152d0c79bb0604c104a5fb6f4eb0703f3154bb3db0018190555b508061273181614651565b915050612697565b507f75a75cf5c561892f4cc5b26c1b8e933849b42238c96dd073d080d1ae96c51416600460405161276a91906147a7565b60405180910390a15050565b61277e610f18565b6001600160a01b0316336001600160a01b0316146128195760405162461bcd60e51b815260206004820152604c60248201527f476f7665726e6f724d6f64756c6552656769737472793a206f6e6c792074686560448201527f2063726561746f722063616e2073657420746865206f6666696369616c20726560648201526b7761726473206d6f64756c6560a01b608482015260a40161111b565b602180546001600160a01b038381166001600160a01b031983168117909355604080519190921680825260208201939093527f753a2cf8d360cff631674504210913e48247f8e56b3e6d2006c2103d4095999f910161276a565b80516000906001600160a01b031633146128e85760405162461bcd60e51b815260206004820152603060248201527f476f7665726e6f723a207468652070726f706f73616c20617574686f72206d7560448201526f39ba1031329036b9b39739b2b73232b960811b606482015260840161111b565b60005b6128f66001806145b2565b811015612a9657600081600181111561291157612911614417565b9050600081600181111561292757612927614417565b036129325750612a84565b600181600181111561294657612946614417565b03612a6957608084015151516000036129d85760405162461bcd60e51b815260206004820152604860248201527f476f7665726e6f724d6574616461746156616c69646174696f6e3a207468657260448201527f652063616e6e6f74206265207a65726f207369676e65727320696e20736166656064820152674d6574616461746160c01b608482015260a40161111b565b836080015160200151600003612a645760405162461bcd60e51b8152602060048201526044602482018190527f476f7665726e6f724d6574616461746156616c69646174696f6e3a2074687265908201527f73686f6c642063616e6e6f74206265207a65726f20696e20736166654d6574616064820152636461746160e01b608482015260a40161111b565b612a82565b6040516308b6566d60e11b815260040160405180910390fd5b505b80612a8e81614651565b9150506128eb565b50816040015151600003612b0a5760405162461bcd60e51b815260206004820152603560248201527f476f7665726e6f723a20656d7074792070726f706f73616c20646573637269706044820152741d1a5bdb9cc8185c99481b9bdd08185b1b1bddd959605a1b606482015260840161111b565b506001919050565b6000610d8960155490565b600082612b2a858461350a565b14949350505050565b60006001612b3f611f68565b6004811115612b5057612b50614417565b14612ba95760405162461bcd60e51b815260206004820152602360248201527f476f7665726e6f723a20766f7465206e6f742063757272656e746c792061637460448201526269766560e81b606482015260840161111b565b60008211612c0d5760405162461bcd60e51b815260206004820152602b60248201527f476f7665726e6f723a2063616e6e6f7420766f746520776974682030206f722060448201526a666577657220766f74657360a81b606482015260840161111b565b6001600160a01b0384166000908152600f602052604090205460ff16612cb35760405162461bcd60e51b815260206004820152604f60248201527f476f7665726e6f723a20796f75206e65656420746f2076657269667920796f7560448201527f72206e756d626572206f6620766f74657320616761696e737420746865206d6560648201526e1c9adb19481c9bdbdd08199a5c9cdd608a1b608482015260a40161111b565b612ce585858585600e60008a6001600160a01b03166001600160a01b0316815260200190815260200160002054613557565b600b80546001810182556000919091527f0175b7a638427703f0dbe7bb9bbf987a2551717b34e79f33b5b1008d1fa01db90180546001600160a01b031916331790556040805186815260ff851660208201529081018390526001600160a01b038516907f2c9deb38f462962eadbd85a9d3a4120503ee091f1582eaaa10aa8c6797651d299060600160405180910390a25050506001600160a01b03166000908152600e6020526040902054919050565b60006001600160ff1b03821115612dff5760405162461bcd60e51b815260206004820152602860248201527f53616665436173743a2076616c756520646f65736e27742066697420696e2061604482015267371034b73a191a9b60c11b606482015260840161111b565b5090565b600083805b8451811015612e6157848281518110612e2357612e23614614565b6020026020010151858281518110612e3d57612e3d614614565b60200260200101511215612e4f578091505b80612e5981614651565b915050612e08565b50848103612e735760009150506110ef565b6000848681518110612e8757612e87614614565b60200260200101519050848281518110612ea357612ea3614614565b6020026020010151858781518110612ebd57612ebd614614565b60200260200101818152505080858381518110612edc57612edc614614565b6020026020010181815250506000848781518110612efc57612efc614614565b60200260200101519050848381518110612f1857612f18614614565b6020026020010151858881518110612f3257612f32614614565b60200260200101818152505080858481518110612f5157612f51614614565b60209081029190910101525060019695505050505050565b60006003612f75611f68565b6004811115612f8657612f86614417565b14612ff95760405162461bcd60e51b815260206004820152603e60248201527f476f7665726e6f723a20636f6e74657374206d7573742062652071756575656460448201527f20666f722070726f706f73616c7320746f206265207375626d69747465640000606482015260840161111b565b613001611993565b33600090815260096020526040902054106130b85760405162461bcd60e51b815260206004820152606560248201527f476f7665726e6f723a207468652073616d6520616464726573732063616e6e6f60448201527f74207375626d6974206d6f7265207468616e20746865206e756d416c6c6f776560648201527f6450726f706f73616c5375626d697373696f6e7320666f72207468697320636f6084820152641b9d195cdd60da1b60a482015260c40161111b565b6130c0612b12565b6005546004546130d0919061466a565b106131435760405162461bcd60e51b815260206004820152603960248201527f476f7665726e6f723a20746865206d6178206e756d626572206f662070726f7060448201527f6f73616c732068617665206265656e207375626d697474656400000000000000606482015260840161111b565b600061314e83611563565b600081815260086020526040902054909150600160a01b900460ff16156131c95760405162461bcd60e51b815260206004820152602960248201527f476f7665726e6f723a206475706c69636174652070726f706f73616c73206e6f6044820152681d08185b1b1bddd95960ba1b606482015260840161111b565b6004805460018181019092557f8a35acfbc15ff81a39ae7d344fd709f28e8600b4aa8c65c6b64bfe7fe36bd19b0182905560008281526008602090815260409182902086518154928801511515600160a01b026001600160a81b03199093166001600160a01b039091161791909117815590850151859282019061324d9082614830565b506060820151516002820180546001600160a01b0319166001600160a01b03909216919091179055608082015180518051600384019161329291839160200190613ab6565b50602091820151600191820155336000908152600990925260408220805491945092506132c09084906145b2565b9091555050600a80546001810182556000919091527fc65a7bb8d6351c1cf70c95a316cc6a92839c986682d98bc35f958f4883f9d2a80180546001600160a01b031916339081179091556040805183815260208101929092527fcd423cc1203c0af96b9b3d68d73b3064a69de2d14450bb7181c5e5df2132b358910160405180910390a192915050565b600c541561345c5760006064600d546064613365919061466a565b61336f90346148ef565b6133799190614906565b905080156133ed5761339f73dc652c746a8f85e18ce632d97c6118e8a52fa7388261384d565b6040805173dc652c746a8f85e18ce632d97c6118e8a52fa7388152602081018390527fdf20fd1e76bc69d672e4814fafb2c449bba3a5369d8359adf9e05e6fde87b056910160405180910390a15b60006133f9823461466a565b905080156134595761341261340c610f18565b8261384d565b7fdf20fd1e76bc69d672e4814fafb2c449bba3a5369d8359adf9e05e6fde87b05661343b610f18565b604080516001600160a01b039092168252602082018490520161276a565b50505b565b606060ff8314613478576134718361396b565b9050610f07565b818054613484906144fd565b80601f01602080910402602001604051908101604052809291908181526020018280546134b0906144fd565b80156134fd5780601f106134d2576101008083540402835291602001916134fd565b820191906000526020600020905b8154815290600101906020018083116134e057829003601f168201915b5050505050905092915050565b600081815b845181101561354f5761353b8286838151811061352e5761352e614614565b60200260200101516139aa565b91508061354781614651565b91505061350f565b509392505050565b6000858152601a602090815260408083206001600160a01b0388168452601990925290912054613587908361466a565b8311156135f25760405162461bcd60e51b815260206004820152603360248201527f476f7665726e6f72566f74696e6753696d706c653a206e6f7420656e6f756768604482015272081d9bdd195cc81b19599d081d1bc818d85cdd606a1b606482015260840161111b565b6001600160a01b038516600090815260038201602052604081205415801561363557506001600160a01b0386166000908152600383016020526040902060010154155b905060ff851661368d578154849083906000906136539084906145b2565b90915550506001600160a01b0386166000908152600383016020526040812080548692906136829084906145b2565b909155506137c79050565b60001960ff861601613761576136a1611829565b600114613718576040805162461bcd60e51b81526020600482015260248101919091527f476f7665726e6f72566f74696e6753696d706c653a20646f776e766f74696e6760448201527f206973206e6f7420656e61626c656420666f72207468697320436f6e74657374606482015260840161111b565b8382600001600101600082825461372f91906145b2565b90915550506001600160a01b0386166000908152600383016020526040812060010180548692906136829084906145b2565b60405162461bcd60e51b815260206004820152603560248201527f476f7665726e6f72566f74696e6753696d706c653a20696e76616c69642076616044820152746c756520666f7220656e756d20566f74655479706560581b606482015260840161111b565b80156137fe57600282018054600181018255600091825260209091200180546001600160a01b0319166001600160a01b0388161790555b6001600160a01b038616600090815260196020526040812080548692906138269084906145b2565b92505081905550836018600082825461383f91906145b2565b909155505050505050505050565b8047101561389d5760405162461bcd60e51b815260206004820152601d60248201527f416464726573733a20696e73756666696369656e742062616c616e6365000000604482015260640161111b565b6000826001600160a01b03168260405160006040518083038185875af1925050503d80600081146138ea576040519150601f19603f3d011682016040523d82523d6000602084013e6138ef565b606091505b50509050806139665760405162461bcd60e51b815260206004820152603a60248201527f416464726573733a20756e61626c6520746f2073656e642076616c75652c207260448201527f6563697069656e74206d61792068617665207265766572746564000000000000606482015260840161111b565b505050565b60606000613978836139d6565b604080516020808252818301909252919250600091906020820181803683375050509182525060208101929092525090565b60008183106139c65760008281526020849052604090206110ef565b5060009182526020526040902090565b600060ff8216601f811115610f0757604051632cd44ac360e21b815260040160405180910390fd5b828054828255906000526020600020908101928215613a39579160200282015b82811115613a39578251825591602001919060010190613a1e565b50612dff929150613b0b565b6040518060a0016040528060006001600160a01b0316815260200160001515815260200160608152602001613a8f604051806020016040528060006001600160a01b031681525090565b8152602001613ab1604051806040016040528060608152602001600081525090565b905290565b828054828255906000526020600020908101928215613a39579160200282015b82811115613a3957825182546001600160a01b0319166001600160a01b03909116178255602090920191600190910190613ad6565b5b80821115612dff5760008155600101613b0c565b600060208284031215613b3257600080fd5b5035919050565b6000815180845260005b81811015613b5f57602081850181015186830182015201613b43565b506000602082860101526020601f19601f83011685010191505092915050565b805160408084528151908401819052600091602091908201906060860190845b81811015613bc45783516001600160a01b031683529284019291840191600101613b9f565b505093820151949091019390935250919050565b600060018060a01b038088168352861515602084015260a06040840152613c0260a0840187613b39565b8186511660608501528381036080850152613c1d8186613b7f565b9998505050505050505050565b600060208284031215613c3c57600080fd5b81356001600160e01b0319811681146110ef57600080fd5b6020815260006110ef6020830184613b39565b815181526020808301519082015260408101610f07565b600081518084526020808501945080840160005b83811015613cae57815187529582019590820190600101613c92565b509495945050505050565b6020815260006110ef6020830184613c7e565b6001600160a01b0381168114613ce157600080fd5b50565b60008083601f840112613cf657600080fd5b5081356001600160401b03811115613d0d57600080fd5b6020830191508360208260051b850101111561197d57600080fd5b600080600060408486031215613d3d57600080fd5b8335613d4881613ccc565b925060208401356001600160401b03811115613d6357600080fd5b613d6f86828701613ce4565b9497909650939450505050565b6020808252825182820181905260009190848201906040850190845b81811015613dbd5783516001600160a01b031683529284019291840191600101613d98565b50909695505050505050565b80358015158114613dd957600080fd5b919050565b600080600080600060808688031215613df657600080fd5b8535613e0181613ccc565b94506020860135935060408601356001600160401b03811115613e2357600080fd5b613e2f88828901613ce4565b9094509250613e42905060608701613dc9565b90509295509295909350565b803560ff81168114613dd957600080fd5b60008060008060008060a08789031215613e7857600080fd5b86359550613e8860208801613e4e565b9450604087013593506060870135925060808701356001600160401b03811115613eb157600080fd5b613ebd89828a01613ce4565b979a9699509497509295939492505050565b600060208284031215613ee157600080fd5b6110ef82613dc9565b634e487b7160e01b600052604160045260246000fd5b604080519081016001600160401b0381118282101715613f2257613f22613eea565b60405290565b60405160a081016001600160401b0381118282101715613f2257613f22613eea565b604051601f8201601f191681016001600160401b0381118282101715613f7257613f72613eea565b604052919050565b600060208284031215613f8c57600080fd5b604051602081018181106001600160401b0382111715613fae57613fae613eea565b6040529050808235613fbf81613ccc565b905292915050565b600060408284031215613fd957600080fd5b613fe1613f00565b905081356001600160401b0380821115613ffa57600080fd5b818401915084601f83011261400e57600080fd5b813560208282111561402257614022613eea565b8160051b9250614033818401613f4a565b828152928401810192818101908885111561404d57600080fd5b948201945b84861015614077578535935061406784613ccc565b8382529482019490820190614052565b808752505080860135818601525050505092915050565b600060a082840312156140a057600080fd5b6140a8613f28565b905081356140b581613ccc565b815260206140c4838201613dc9565b8183015260408301356001600160401b03808211156140e257600080fd5b818501915085601f8301126140f657600080fd5b81358181111561410857614108613eea565b61411a601f8201601f19168501613f4a565b818152878583860101111561412e57600080fd5b8185850186830137600085838301015280604087015250506141538660608701613f7a565b6060850152608085013592508083111561416c57600080fd5b505061417a84828501613fc7565b60808301525092915050565b60006020828403121561419857600080fd5b81356001600160401b038111156141ae57600080fd5b611f608482850161408e565b600060a082840312156141cc57600080fd5b50919050565b6000602082840312156141e457600080fd5b81356001600160401b038111156141fa57600080fd5b611f60848285016141ba565b6000604080835261421981840186613c7e565b83810360208581019190915285518083528682019282019060005b818110156142615761425183865180518252602090810151910152565b9383019391850191600101614234565b509098975050505050505050565b6000806000806060858703121561428557600080fd5b843561429081613ccc565b93506020850135925060408501356001600160401b038111156142b257600080fd5b6142be87828801613ce4565b95989497509550505050565b6000602082840312156142dc57600080fd5b81356110ef81613ccc565b6000806000606084860312156142fc57600080fd5b8335925061430c60208501613e4e565b9150604084013590509250925092565b6000806040838503121561432f57600080fd5b82359150602083013561434181613ccc565b809150509250929050565b60ff60f81b8816815260e06020820152600061436b60e0830189613b39565b828103604084015261437d8189613b39565b606084018890526001600160a01b038716608085015260a0840186905283810360c085015290506143ae8185613c7e565b9a9950505050505050505050565b6000806000604084860312156143d157600080fd5b83356001600160401b03808211156143e857600080fd5b6143f4878388016141ba565b9450602086013591508082111561440a57600080fd5b50613d6f86828701613ce4565b634e487b7160e01b600052602160045260246000fd5b602081016005831061444f57634e487b7160e01b600052602160045260246000fd5b91905290565b60208152600060018060a01b03808451166020840152602084015115156040840152604084015160a0606085015261449060c0850182613b39565b90508160608601515116608085015260808501519150601f198482030160a085015261191a8183613b7f565b600080602083850312156144cf57600080fd5b82356001600160401b038111156144e557600080fd5b6144f185828601613ce4565b90969095509350505050565b600181811c9082168061451157607f821691505b6020821081036141cc57634e487b7160e01b600052602260045260246000fd5b60208082526045908201527f526577617264734d6f64756c653a2072756e20736574536f72746564416e645460408201527f69656450726f706f73616c73282920746f20706f70756c61746520746869732060608201526476616c756560d81b608082015260a00190565b634e487b7160e01b600052601160045260246000fd5b80820180821115610f0757610f0761459c565b6020808252602f908201527f476f7665726e6f723a20796f752063616e6e6f7420766f7465206f6e2061206460408201526e195b195d1959081c1c9bdc1bdcd85b608a1b606082015260800190565b634e487b7160e01b600052603260045260246000fd5b818103600083128015838313168383128216171561464a5761464a61459c565b5092915050565b6000600182016146635761466361459c565b5060010190565b81810381811115610f0757610f0761459c565b6020808252605a908201527f476f7665726e6f723a2074686973207472616e73616374696f6e20776173206e60408201527f6f742073656e7420776974682074686520636f727265637420616d6f756e742060608201527f6f662066756e6473206e656564656420746f2070726f706f7365000000000000608082015260a00190565b6020808252602f908201527f476f7665726e6f723a2061646472657373206973206e6f74207065726d69737360408201526e1a5bdb9959081d1bc81cdd589b5a5d608a1b606082015260800190565b6000610f07368361408e565b6020808252602c908201527f476f7665726e6f723a2070726f706f73616c20636f6e74656e74206661696c6560408201526b32103b30b634b230ba34b7b760a11b606082015260800190565b6020808252825482820181905260008481528281209092916040850190845b81811015613dbd578354835260019384019392850192016147c6565b601f82111561396657600081815260208120601f850160051c810160208610156148095750805b601f850160051c820191505b8181101561482857828155600101614815565b505050505050565b81516001600160401b0381111561484957614849613eea565b61485d8161485784546144fd565b846147e2565b602080601f831160018114614892576000841561487a5750858301515b600019600386901b1c1916600185901b178555614828565b600085815260208120601f198616915b828110156148c1578886015182559484019460019091019084016148a2565b50858210156148df5787850151600019600388901b60f8161c191681555b5050505050600190811b01905550565b8082028115828204841417610f0757610f0761459c565b60008261492357634e487b7160e01b600052601260045260246000fd5b50049056fea264697066735822122004115867b498e9ac1e310e4ab09971f480dc736cff5c99164bcd28b47f9eb4ed64736f6c63430008130033",
    "linkReferences": {}
  },
  "methodIdentifiers": {
    "AMOUNT_FOR_SUMBITTER_PROOF()": "347cf665",
    "JK_LABS_ADDRESS()": "eef18e17",
    "METADATAS_COUNT()": "4d24a67f",
    "addressSubmitterVerified(address)": "cb853950",
    "addressTotalCastVoteCounts(address)": "a1ac6cb2",
    "addressTotalVotes(address)": "dea5f6a6",
    "addressTotalVotesVerified(address)": "930de979",
    "addressesThatHaveVoted(uint256)": "50c4b616",
    "allProposalTotalVotes()": "50a5e524",
    "allProposalTotalVotesWithoutDeleted()": "d45a010b",
    "cancel()": "ea8a1af0",
    "canceled()": "3f9942ff",
    "castVote(uint256,uint8,uint256,uint256,bytes32[])": "419c533c",
    "castVoteWithoutProof(uint256,uint8,uint256)": "65f16263",
    "checkProof(address,uint256,bytes32[],bool)": "32763c22",
    "contestAddressTotalVotesCast(address)": "aec116b6",
    "contestDeadline()": "262e59e9",
    "contestStart()": "004114a8",
    "costToPropose()": "6ed815ad",
    "creator()": "02d05d3f",
    "deleteProposals(uint256[])": "f0a7db0a",
    "deletedProposalIds(uint256)": "05846cae",
    "downvotingAllowed()": "60506ff6",
    "eip712Domain()": "84b0196e",
    "getAllAddressesThatHaveVoted()": "2c39805f",
    "getAllDeletedProposalIds()": "1242b737",
    "getAllProposalAuthors()": "946369b5",
    "getAllProposalIds()": "efa90d36",
    "getNumSubmissions(address)": "5f953a03",
    "getProposal(uint256)": "c7f758a8",
    "hashProposal((address,bool,string,(address),(address[],uint256)))": "458da87d",
    "highestTiedRanking()": "ebc18b9b",
    "isProposalDeleted(uint256)": "3b6d199b",
    "isTied(uint256)": "2399c660",
    "lowestRanking()": "6ca1a2c7",
    "maxProposalCount()": "fb9bf8d4",
    "name()": "06fdde03",
    "numAllowedProposalSubmissions()": "832009af",
    "numSubmissions(address)": "75e509c5",
    "officialRewardsModule()": "785ddfe5",
    "percentageToCreator()": "edcd1be4",
    "prompt()": "7c65d711",
    "proposalAddressVotes(uint256,address)": "6e4eb810",
    "proposalAddressesHaveVoted(uint256)": "b323580d",
    "proposalAuthors(uint256)": "0aa25e44",
    "proposalIds(uint256)": "9b644a23",
    "proposalIsDeleted(uint256)": "f79c0172",
    "proposalVotes(uint256)": "544ffc9c",
    "proposalVotesStructs(uint256)": "070dc5d9",
    "proposals(uint256)": "013cf08b",
    "propose((address,bool,string,(address),(address[],uint256)),bytes32[])": "c0ffaa78",
    "proposeWithoutProof((address,bool,string,(address),(address[],uint256)))": "476f4d8a",
    "rankingPosition(uint256)": "86187488",
    "setOfficialRewardsModule(address)": "f4f3d7ec",
    "setSortedAndTiedProposals()": "96f0e962",
    "setSortedAndTiedProposalsHasBeenRun()": "d8891619",
    "sortedProposalIds()": "8a9cd550",
    "sortedProposals(bool)": "427d56c2",
    "state()": "c19d93fb",
    "submissionMerkleRoot()": "bddc1641",
    "supportsInterface(bytes4)": "01ffc9a7",
    "tiedAdjustedRankingPosition(uint256)": "e5eb5a48",
    "totalVotesCast()": "7de418d5",
    "validateProposalData((address,bool,string,(address),(address[],uint256)))": "fb8ddab4",
    "verifyProposer(address,bytes32[])": "20b3e845",
    "verifyVoter(address,uint256,bytes32[])": "531bd812",
    "version()": "54fd4d50",
    "voteStart()": "e031535b",
    "votingDelay()": "3932abb1",
    "votingMerkleRoot()": "dd96a19d",
    "votingPeriod()": "02a251a3"
  },
  "id": 40
}