{
  "abi": [
    {
      "inputs": [
        {
          "internalType": "string",
          "name": "_name",
          "type": "string"
        },
        {
          "internalType": "string",
          "name": "_prompt",
          "type": "string"
        },
        {
          "internalType": "bytes32",
          "name": "_submissionMerkleRoot",
          "type": "bytes32"
        },
        {
          "internalType": "bytes32",
          "name": "_votingMerkleRoot",
          "type": "bytes32"
        },
        {
          "internalType": "uint256[]",
          "name": "_constructorIntParams",
          "type": "uint256[]"
        }
      ],
      "stateMutability": "nonpayable",
      "type": "constructor"
    },
    {
      "inputs": [],
      "name": "AddressNotPermissionedToSubmit",
      "type": "error"
    },
    {
      "inputs": [
        {
          "internalType": "address",
          "name": "author",
          "type": "address"
        },
        {
          "internalType": "address",
          "name": "sender",
          "type": "address"
        }
      ],
      "name": "AuthorIsNotSender",
      "type": "error"
    },
    {
      "inputs": [],
      "name": "CannotCancelACompletedContest",
      "type": "error"
    },
    {
      "inputs": [],
      "name": "CannotDeleteWhenCompleted",
      "type": "error"
    },
    {
      "inputs": [],
      "name": "CannotVoteOnDeletedProposal",
      "type": "error"
    },
    {
      "inputs": [],
      "name": "ContestAlreadyCancelled",
      "type": "error"
    },
    {
      "inputs": [
        {
          "internalType": "enum Governor.ContestState",
          "name": "currentState",
          "type": "uint8"
        }
      ],
      "name": "ContestMustBeActiveToVote",
      "type": "error"
    },
    {
      "inputs": [
        {
          "internalType": "enum Governor.ContestState",
          "name": "currentState",
          "type": "uint8"
        }
      ],
      "name": "ContestMustBeQueuedToPropose",
      "type": "error"
    },
    {
      "inputs": [
        {
          "internalType": "uint256",
          "name": "maxProposalCount",
          "type": "uint256"
        }
      ],
      "name": "ContestSubmissionLimitReached",
      "type": "error"
    },
    {
      "inputs": [
        {
          "internalType": "uint256",
          "name": "proposalId",
          "type": "uint256"
        }
      ],
      "name": "DuplicateSubmission",
      "type": "error"
    },
    {
      "inputs": [],
      "name": "EmptyProposalDescription",
      "type": "error"
    },
    {
      "inputs": [
        {
          "internalType": "uint256",
          "name": "msgValue",
          "type": "uint256"
        },
        {
          "internalType": "uint256",
          "name": "costToPropose",
          "type": "uint256"
        }
      ],
      "name": "IncorrectCostToProposeSent",
      "type": "error"
    },
    {
      "inputs": [],
      "name": "IndexHasNotBeenPopulated",
      "type": "error"
    },
    {
      "inputs": [],
      "name": "InvalidVoteType",
      "type": "error"
    },
    {
      "inputs": [],
      "name": "MoreThanOneProposalWithThisManyVotes",
      "type": "error"
    },
    {
      "inputs": [],
      "name": "NeedAtLeastOneVoteToVote",
      "type": "error"
    },
    {
      "inputs": [],
      "name": "NeedToSubmitWithProofFirst",
      "type": "error"
    },
    {
      "inputs": [],
      "name": "NeedToVoteWithProofFirst",
      "type": "error"
    },
    {
      "inputs": [],
      "name": "NotEnoughVotesLeft",
      "type": "error"
    },
    {
      "inputs": [],
      "name": "NotInMerkle",
      "type": "error"
    },
    {
      "inputs": [],
      "name": "OnlyCreatorCanDelete",
      "type": "error"
    },
    {
      "inputs": [],
      "name": "OnlyCreatorCanSetRewardsModule",
      "type": "error"
    },
    {
      "inputs": [],
      "name": "OnlyJkLabsOrCreatorCanCancel",
      "type": "error"
    },
    {
      "inputs": [],
      "name": "RankCannotBeZero",
      "type": "error"
    },
    {
      "inputs": [],
      "name": "RankIsNotInSortedRanks",
      "type": "error"
    },
    {
      "inputs": [
        {
          "internalType": "uint256",
          "name": "numAllowedProposalSubmissions",
          "type": "uint256"
        }
      ],
      "name": "SenderSubmissionLimitReached",
      "type": "error"
    },
    {
      "inputs": [
        {
          "internalType": "enum Governor.Metadatas",
          "name": "unexpectedMetadata",
          "type": "uint8"
        }
      ],
      "name": "UnexpectedMetadata",
      "type": "error"
    },
    {
      "inputs": [],
      "name": "ZeroSignersInSafeMetadata",
      "type": "error"
    },
    {
      "inputs": [],
      "name": "ZeroThresholdInSafeMetadata",
      "type": "error"
    },
    {
      "anonymous": false,
      "inputs": [],
      "name": "ContestCanceled",
      "type": "event"
    },
    {
      "anonymous": false,
      "inputs": [
        {
          "indexed": false,
          "internalType": "string",
          "name": "name",
          "type": "string"
        },
        {
          "indexed": false,
          "internalType": "address",
          "name": "creator",
          "type": "address"
        }
      ],
      "name": "JokeraceCreated",
      "type": "event"
    },
    {
      "anonymous": false,
      "inputs": [
        {
          "indexed": false,
          "internalType": "contract RewardsModule",
          "name": "oldOfficialRewardsModule",
          "type": "address"
        },
        {
          "indexed": false,
          "internalType": "contract RewardsModule",
          "name": "newOfficialRewardsModule",
          "type": "address"
        }
      ],
      "name": "OfficialRewardsModuleSet",
      "type": "event"
    },
    {
      "anonymous": false,
      "inputs": [
        {
          "indexed": false,
          "internalType": "address",
          "name": "to",
          "type": "address"
        },
        {
          "indexed": false,
          "internalType": "uint256",
          "name": "amount",
          "type": "uint256"
        }
      ],
      "name": "PaymentReleased",
      "type": "event"
    },
    {
      "anonymous": false,
      "inputs": [
        {
          "indexed": false,
          "internalType": "uint256",
          "name": "proposalId",
          "type": "uint256"
        },
        {
          "indexed": false,
          "internalType": "address",
          "name": "proposer",
          "type": "address"
        }
      ],
      "name": "ProposalCreated",
      "type": "event"
    },
    {
      "anonymous": false,
      "inputs": [
        {
          "indexed": false,
          "internalType": "uint256[]",
          "name": "proposalIds",
          "type": "uint256[]"
        }
      ],
      "name": "ProposalsDeleted",
      "type": "event"
    },
    {
      "anonymous": false,
      "inputs": [
        {
          "indexed": true,
          "internalType": "address",
          "name": "voter",
          "type": "address"
        },
        {
          "indexed": false,
          "internalType": "uint256",
          "name": "proposalId",
          "type": "uint256"
        },
        {
          "indexed": false,
          "internalType": "uint256",
          "name": "numVotes",
          "type": "uint256"
        }
      ],
      "name": "VoteCast",
      "type": "event"
    },
    {
      "inputs": [],
      "name": "AMOUNT_FOR_SUMBITTER_PROOF",
      "outputs": [
        {
          "internalType": "uint256",
          "name": "",
          "type": "uint256"
        }
      ],
      "stateMutability": "view",
      "type": "function"
    },
    {
      "inputs": [],
      "name": "JK_LABS_ADDRESS",
      "outputs": [
        {
          "internalType": "address",
          "name": "",
          "type": "address"
        }
      ],
      "stateMutability": "view",
      "type": "function"
    },
    {
      "inputs": [],
      "name": "METADATAS_COUNT",
      "outputs": [
        {
          "internalType": "uint256",
          "name": "",
          "type": "uint256"
        }
      ],
      "stateMutability": "view",
      "type": "function"
    },
    {
      "inputs": [
        {
          "internalType": "address",
          "name": "",
          "type": "address"
        }
      ],
      "name": "addressSubmitterVerified",
      "outputs": [
        {
          "internalType": "bool",
          "name": "",
          "type": "bool"
        }
      ],
      "stateMutability": "view",
      "type": "function"
    },
    {
      "inputs": [
        {
          "internalType": "address",
          "name": "",
          "type": "address"
        }
      ],
      "name": "addressTotalCastVoteCounts",
      "outputs": [
        {
          "internalType": "uint256",
          "name": "",
          "type": "uint256"
        }
      ],
      "stateMutability": "view",
      "type": "function"
    },
    {
      "inputs": [
        {
          "internalType": "address",
          "name": "",
          "type": "address"
        }
      ],
      "name": "addressTotalVotes",
      "outputs": [
        {
          "internalType": "uint256",
          "name": "",
          "type": "uint256"
        }
      ],
      "stateMutability": "view",
      "type": "function"
    },
    {
      "inputs": [
        {
          "internalType": "address",
          "name": "",
          "type": "address"
        }
      ],
      "name": "addressTotalVotesVerified",
      "outputs": [
        {
          "internalType": "bool",
          "name": "",
          "type": "bool"
        }
      ],
      "stateMutability": "view",
      "type": "function"
    },
    {
      "inputs": [
        {
          "internalType": "uint256",
          "name": "",
          "type": "uint256"
        }
      ],
      "name": "addressesThatHaveVoted",
      "outputs": [
        {
          "internalType": "address",
          "name": "",
          "type": "address"
        }
      ],
      "stateMutability": "view",
      "type": "function"
    },
    {
      "inputs": [],
      "name": "allProposalTotalVotes",
      "outputs": [
        {
          "internalType": "uint256[]",
          "name": "proposalIdsReturn",
          "type": "uint256[]"
        },
        {
          "internalType": "uint256[]",
          "name": "proposalForVotesArrayReturn",
          "type": "uint256[]"
        }
      ],
      "stateMutability": "view",
      "type": "function"
    },
    {
      "inputs": [],
      "name": "allProposalTotalVotesWithoutDeleted",
      "outputs": [
        {
          "internalType": "uint256[]",
          "name": "proposalIdsReturn",
          "type": "uint256[]"
        },
        {
          "internalType": "uint256[]",
          "name": "proposalForVotesArrayReturn",
          "type": "uint256[]"
        }
      ],
      "stateMutability": "view",
      "type": "function"
    },
    {
      "inputs": [],
      "name": "cancel",
      "outputs": [],
      "stateMutability": "nonpayable",
      "type": "function"
    },
    {
      "inputs": [],
      "name": "canceled",
      "outputs": [
        {
          "internalType": "bool",
          "name": "",
          "type": "bool"
        }
      ],
      "stateMutability": "view",
      "type": "function"
    },
    {
      "inputs": [
        {
          "internalType": "uint256",
          "name": "proposalId",
          "type": "uint256"
        },
        {
          "internalType": "uint256",
          "name": "totalVotes",
          "type": "uint256"
        },
        {
          "internalType": "uint256",
          "name": "numVotes",
          "type": "uint256"
        },
        {
          "internalType": "bytes32[]",
          "name": "proof",
          "type": "bytes32[]"
        }
      ],
      "name": "castVote",
      "outputs": [
        {
          "internalType": "uint256",
          "name": "",
          "type": "uint256"
        }
      ],
      "stateMutability": "nonpayable",
      "type": "function"
    },
    {
      "inputs": [
        {
          "internalType": "uint256",
          "name": "proposalId",
          "type": "uint256"
        },
        {
          "internalType": "uint256",
          "name": "numVotes",
          "type": "uint256"
        }
      ],
      "name": "castVoteWithoutProof",
      "outputs": [
        {
          "internalType": "uint256",
          "name": "",
          "type": "uint256"
        }
      ],
      "stateMutability": "nonpayable",
      "type": "function"
    },
    {
      "inputs": [
        {
          "internalType": "address",
          "name": "addressToCheck",
          "type": "address"
        },
        {
          "internalType": "uint256",
          "name": "amount",
          "type": "uint256"
        },
        {
          "internalType": "bytes32[]",
          "name": "proof",
          "type": "bytes32[]"
        },
        {
          "internalType": "bool",
          "name": "voting",
          "type": "bool"
        }
      ],
      "name": "checkProof",
      "outputs": [
        {
          "internalType": "bool",
          "name": "verified",
          "type": "bool"
        }
      ],
      "stateMutability": "view",
      "type": "function"
    },
    {
      "inputs": [],
      "name": "contestDeadline",
      "outputs": [
        {
          "internalType": "uint256",
          "name": "",
          "type": "uint256"
        }
      ],
      "stateMutability": "view",
      "type": "function"
    },
    {
      "inputs": [],
      "name": "contestStart",
      "outputs": [
        {
          "internalType": "uint256",
          "name": "",
          "type": "uint256"
        }
      ],
      "stateMutability": "view",
      "type": "function"
    },
    {
      "inputs": [],
      "name": "costToPropose",
      "outputs": [
        {
          "internalType": "uint256",
          "name": "",
          "type": "uint256"
        }
      ],
      "stateMutability": "view",
      "type": "function"
    },
    {
      "inputs": [],
      "name": "creator",
      "outputs": [
        {
          "internalType": "address",
          "name": "",
          "type": "address"
        }
      ],
      "stateMutability": "view",
      "type": "function"
    },
    {
      "inputs": [
        {
          "internalType": "uint256[]",
          "name": "proposalIdsToDelete",
          "type": "uint256[]"
        }
      ],
      "name": "deleteProposals",
      "outputs": [],
      "stateMutability": "nonpayable",
      "type": "function"
    },
    {
      "inputs": [
        {
          "internalType": "uint256",
          "name": "",
          "type": "uint256"
        }
      ],
      "name": "deletedProposalIds",
      "outputs": [
        {
          "internalType": "uint256",
          "name": "",
          "type": "uint256"
        }
      ],
      "stateMutability": "view",
      "type": "function"
    },
    {
      "inputs": [
        {
          "internalType": "uint256",
          "name": "",
          "type": "uint256"
        },
        {
          "internalType": "uint256",
          "name": "",
          "type": "uint256"
        }
      ],
      "name": "forVotesToProposalIds",
      "outputs": [
        {
          "internalType": "uint256",
          "name": "",
          "type": "uint256"
        }
      ],
      "stateMutability": "view",
      "type": "function"
    },
    {
      "inputs": [],
      "name": "getAllAddressesThatHaveVoted",
      "outputs": [
        {
          "internalType": "address[]",
          "name": "",
          "type": "address[]"
        }
      ],
      "stateMutability": "view",
      "type": "function"
    },
    {
      "inputs": [],
      "name": "getAllDeletedProposalIds",
      "outputs": [
        {
          "internalType": "uint256[]",
          "name": "",
          "type": "uint256[]"
        }
      ],
      "stateMutability": "view",
      "type": "function"
    },
    {
      "inputs": [],
      "name": "getAllProposalAuthors",
      "outputs": [
        {
          "internalType": "address[]",
          "name": "",
          "type": "address[]"
        }
      ],
      "stateMutability": "view",
      "type": "function"
    },
    {
      "inputs": [],
      "name": "getAllProposalIds",
      "outputs": [
        {
          "internalType": "uint256[]",
          "name": "",
          "type": "uint256[]"
        }
      ],
      "stateMutability": "view",
      "type": "function"
    },
    {
      "inputs": [
        {
          "internalType": "uint256",
          "name": "forVotes",
          "type": "uint256"
        }
      ],
      "name": "getNumProposalsWithThisManyForVotes",
      "outputs": [
        {
          "internalType": "uint256",
          "name": "count",
          "type": "uint256"
        }
      ],
      "stateMutability": "view",
      "type": "function"
    },
    {
      "inputs": [
        {
          "internalType": "uint256",
          "name": "forVotes",
          "type": "uint256"
        }
      ],
      "name": "getOnlyProposalIdWithThisManyForVotes",
      "outputs": [
        {
          "internalType": "uint256",
          "name": "proposalId",
          "type": "uint256"
        }
      ],
      "stateMutability": "view",
      "type": "function"
    },
    {
      "inputs": [
        {
          "internalType": "uint256",
          "name": "proposalId",
          "type": "uint256"
        }
      ],
      "name": "getProposal",
      "outputs": [
        {
          "components": [
            {
              "internalType": "address",
              "name": "author",
              "type": "address"
            },
            {
              "internalType": "bool",
              "name": "exists",
              "type": "bool"
            },
            {
              "internalType": "string",
              "name": "description",
              "type": "string"
            },
            {
              "components": [
                {
                  "internalType": "address",
                  "name": "targetAddress",
                  "type": "address"
                }
              ],
              "internalType": "struct Governor.TargetMetadata",
              "name": "targetMetadata",
              "type": "tuple"
            },
            {
              "components": [
                {
                  "internalType": "address[]",
                  "name": "signers",
                  "type": "address[]"
                },
                {
                  "internalType": "uint256",
                  "name": "threshold",
                  "type": "uint256"
                }
              ],
              "internalType": "struct Governor.SafeMetadata",
              "name": "safeMetadata",
              "type": "tuple"
            }
          ],
          "internalType": "struct Governor.ProposalCore",
          "name": "",
          "type": "tuple"
        }
      ],
      "stateMutability": "view",
      "type": "function"
    },
    {
      "inputs": [
        {
          "internalType": "uint256",
          "name": "forVotes",
          "type": "uint256"
        }
      ],
      "name": "getProposalsWithThisManyForVotes",
      "outputs": [
        {
          "internalType": "uint256[]",
          "name": "proposalsWithThisManyForVotes",
          "type": "uint256[]"
        }
      ],
      "stateMutability": "view",
      "type": "function"
    },
    {
      "inputs": [
        {
          "internalType": "uint256",
          "name": "rank",
          "type": "uint256"
        }
      ],
      "name": "getRankIndex",
      "outputs": [
        {
          "internalType": "uint256",
          "name": "rankIndex",
          "type": "uint256"
        }
      ],
      "stateMutability": "view",
      "type": "function"
    },
    {
      "inputs": [],
      "name": "getSortedRanks",
      "outputs": [
        {
          "internalType": "uint256[]",
          "name": "sortedRanksArray",
          "type": "uint256[]"
        }
      ],
      "stateMutability": "view",
      "type": "function"
    },
    {
      "inputs": [
        {
          "components": [
            {
              "internalType": "address",
              "name": "author",
              "type": "address"
            },
            {
              "internalType": "bool",
              "name": "exists",
              "type": "bool"
            },
            {
              "internalType": "string",
              "name": "description",
              "type": "string"
            },
            {
              "components": [
                {
                  "internalType": "address",
                  "name": "targetAddress",
                  "type": "address"
                }
              ],
              "internalType": "struct Governor.TargetMetadata",
              "name": "targetMetadata",
              "type": "tuple"
            },
            {
              "components": [
                {
                  "internalType": "address[]",
                  "name": "signers",
                  "type": "address[]"
                },
                {
                  "internalType": "uint256",
                  "name": "threshold",
                  "type": "uint256"
                }
              ],
              "internalType": "struct Governor.SafeMetadata",
              "name": "safeMetadata",
              "type": "tuple"
            }
          ],
          "internalType": "struct Governor.ProposalCore",
          "name": "proposal",
          "type": "tuple"
        }
      ],
      "name": "hashProposal",
      "outputs": [
        {
          "internalType": "uint256",
          "name": "",
          "type": "uint256"
        }
      ],
      "stateMutability": "pure",
      "type": "function"
    },
    {
      "inputs": [
        {
          "internalType": "uint256",
          "name": "idx",
          "type": "uint256"
        }
      ],
      "name": "isOrIsBelowTiedRank",
      "outputs": [
        {
          "internalType": "bool",
          "name": "atOrBelowTiedRank",
          "type": "bool"
        }
      ],
      "stateMutability": "view",
      "type": "function"
    },
    {
      "inputs": [],
      "name": "maxProposalCount",
      "outputs": [
        {
          "internalType": "uint256",
          "name": "",
          "type": "uint256"
        }
      ],
      "stateMutability": "view",
      "type": "function"
    },
    {
      "inputs": [],
      "name": "name",
      "outputs": [
        {
          "internalType": "string",
          "name": "",
          "type": "string"
        }
      ],
      "stateMutability": "view",
      "type": "function"
    },
    {
      "inputs": [],
      "name": "numAllowedProposalSubmissions",
      "outputs": [
        {
          "internalType": "uint256",
          "name": "",
          "type": "uint256"
        }
      ],
      "stateMutability": "view",
      "type": "function"
    },
    {
      "inputs": [
        {
          "internalType": "address",
          "name": "",
          "type": "address"
        }
      ],
      "name": "numSubmissions",
      "outputs": [
        {
          "internalType": "uint256",
          "name": "",
          "type": "uint256"
        }
      ],
      "stateMutability": "view",
      "type": "function"
    },
    {
      "inputs": [],
      "name": "officialRewardsModule",
      "outputs": [
        {
          "internalType": "contract RewardsModule",
          "name": "",
          "type": "address"
        }
      ],
      "stateMutability": "view",
      "type": "function"
    },
    {
      "inputs": [],
      "name": "percentageToCreator",
      "outputs": [
        {
          "internalType": "uint256",
          "name": "",
          "type": "uint256"
        }
      ],
      "stateMutability": "view",
      "type": "function"
    },
    {
      "inputs": [],
      "name": "prompt",
      "outputs": [
        {
          "internalType": "string",
          "name": "",
          "type": "string"
        }
      ],
      "stateMutability": "view",
      "type": "function"
    },
    {
      "inputs": [
        {
          "internalType": "uint256",
          "name": "proposalId",
          "type": "uint256"
        },
        {
          "internalType": "address",
          "name": "userAddress",
          "type": "address"
        }
      ],
      "name": "proposalAddressVotes",
      "outputs": [
        {
          "internalType": "uint256",
          "name": "forVotes",
          "type": "uint256"
        }
      ],
      "stateMutability": "view",
      "type": "function"
    },
    {
      "inputs": [
        {
          "internalType": "uint256",
          "name": "proposalId",
          "type": "uint256"
        }
      ],
      "name": "proposalAddressesHaveVoted",
      "outputs": [
        {
          "internalType": "address[]",
          "name": "",
          "type": "address[]"
        }
      ],
      "stateMutability": "view",
      "type": "function"
    },
    {
      "inputs": [
        {
          "internalType": "uint256",
          "name": "",
          "type": "uint256"
        }
      ],
      "name": "proposalAuthors",
      "outputs": [
        {
          "internalType": "address",
          "name": "",
          "type": "address"
        }
      ],
      "stateMutability": "view",
      "type": "function"
    },
    {
      "inputs": [
        {
          "internalType": "uint256",
          "name": "",
          "type": "uint256"
        }
      ],
      "name": "proposalIds",
      "outputs": [
        {
          "internalType": "uint256",
          "name": "",
          "type": "uint256"
        }
      ],
      "stateMutability": "view",
      "type": "function"
    },
    {
      "inputs": [
        {
          "internalType": "uint256",
          "name": "",
          "type": "uint256"
        }
      ],
      "name": "proposalIsDeleted",
      "outputs": [
        {
          "internalType": "bool",
          "name": "",
          "type": "bool"
        }
      ],
      "stateMutability": "view",
      "type": "function"
    },
    {
      "inputs": [
        {
          "internalType": "uint256",
          "name": "proposalId",
          "type": "uint256"
        }
      ],
      "name": "proposalVotes",
      "outputs": [
        {
          "internalType": "uint256",
          "name": "forVotes",
          "type": "uint256"
        }
      ],
      "stateMutability": "view",
      "type": "function"
    },
    {
      "inputs": [
        {
          "internalType": "uint256",
          "name": "",
          "type": "uint256"
        }
      ],
      "name": "proposalVotesStructs",
      "outputs": [
        {
          "internalType": "uint256",
          "name": "forVotes",
          "type": "uint256"
        }
      ],
      "stateMutability": "view",
      "type": "function"
    },
    {
      "inputs": [
        {
          "internalType": "uint256",
          "name": "",
          "type": "uint256"
        }
      ],
      "name": "proposals",
      "outputs": [
        {
          "internalType": "address",
          "name": "author",
          "type": "address"
        },
        {
          "internalType": "bool",
          "name": "exists",
          "type": "bool"
        },
        {
          "internalType": "string",
          "name": "description",
          "type": "string"
        },
        {
          "components": [
            {
              "internalType": "address",
              "name": "targetAddress",
              "type": "address"
            }
          ],
          "internalType": "struct Governor.TargetMetadata",
          "name": "targetMetadata",
          "type": "tuple"
        },
        {
          "components": [
            {
              "internalType": "address[]",
              "name": "signers",
              "type": "address[]"
            },
            {
              "internalType": "uint256",
              "name": "threshold",
              "type": "uint256"
            }
          ],
          "internalType": "struct Governor.SafeMetadata",
          "name": "safeMetadata",
          "type": "tuple"
        }
      ],
      "stateMutability": "view",
      "type": "function"
    },
    {
      "inputs": [
        {
          "components": [
            {
              "internalType": "address",
              "name": "author",
              "type": "address"
            },
            {
              "internalType": "bool",
              "name": "exists",
              "type": "bool"
            },
            {
              "internalType": "string",
              "name": "description",
              "type": "string"
            },
            {
              "components": [
                {
                  "internalType": "address",
                  "name": "targetAddress",
                  "type": "address"
                }
              ],
              "internalType": "struct Governor.TargetMetadata",
              "name": "targetMetadata",
              "type": "tuple"
            },
            {
              "components": [
                {
                  "internalType": "address[]",
                  "name": "signers",
                  "type": "address[]"
                },
                {
                  "internalType": "uint256",
                  "name": "threshold",
                  "type": "uint256"
                }
              ],
              "internalType": "struct Governor.SafeMetadata",
              "name": "safeMetadata",
              "type": "tuple"
            }
          ],
          "internalType": "struct Governor.ProposalCore",
          "name": "proposal",
          "type": "tuple"
        },
        {
          "internalType": "bytes32[]",
          "name": "proof",
          "type": "bytes32[]"
        }
      ],
      "name": "propose",
      "outputs": [
        {
          "internalType": "uint256",
          "name": "",
          "type": "uint256"
        }
      ],
      "stateMutability": "payable",
      "type": "function"
    },
    {
      "inputs": [
        {
          "components": [
            {
              "internalType": "address",
              "name": "author",
              "type": "address"
            },
            {
              "internalType": "bool",
              "name": "exists",
              "type": "bool"
            },
            {
              "internalType": "string",
              "name": "description",
              "type": "string"
            },
            {
              "components": [
                {
                  "internalType": "address",
                  "name": "targetAddress",
                  "type": "address"
                }
              ],
              "internalType": "struct Governor.TargetMetadata",
              "name": "targetMetadata",
              "type": "tuple"
            },
            {
              "components": [
                {
                  "internalType": "address[]",
                  "name": "signers",
                  "type": "address[]"
                },
                {
                  "internalType": "uint256",
                  "name": "threshold",
                  "type": "uint256"
                }
              ],
              "internalType": "struct Governor.SafeMetadata",
              "name": "safeMetadata",
              "type": "tuple"
            }
          ],
          "internalType": "struct Governor.ProposalCore",
          "name": "proposal",
          "type": "tuple"
        }
      ],
      "name": "proposeWithoutProof",
      "outputs": [
        {
          "internalType": "uint256",
          "name": "",
          "type": "uint256"
        }
      ],
      "stateMutability": "payable",
      "type": "function"
    },
    {
      "inputs": [],
      "name": "rankLimit",
      "outputs": [
        {
          "internalType": "uint256",
          "name": "",
          "type": "uint256"
        }
      ],
      "stateMutability": "view",
      "type": "function"
    },
    {
      "inputs": [
        {
          "internalType": "contract RewardsModule",
          "name": "officialRewardsModule_",
          "type": "address"
        }
      ],
      "name": "setOfficialRewardsModule",
      "outputs": [],
      "stateMutability": "nonpayable",
      "type": "function"
    },
    {
      "inputs": [
        {
          "internalType": "uint256",
          "name": "",
          "type": "uint256"
        }
      ],
      "name": "sortedRanks",
      "outputs": [
        {
          "internalType": "uint256",
          "name": "",
          "type": "uint256"
        }
      ],
      "stateMutability": "view",
      "type": "function"
    },
    {
      "inputs": [],
      "name": "sortingEnabled",
      "outputs": [
        {
          "internalType": "uint256",
          "name": "",
          "type": "uint256"
        }
      ],
      "stateMutability": "view",
      "type": "function"
    },
    {
      "inputs": [],
      "name": "state",
      "outputs": [
        {
          "internalType": "enum Governor.ContestState",
          "name": "",
          "type": "uint8"
        }
      ],
      "stateMutability": "view",
      "type": "function"
    },
    {
      "inputs": [],
      "name": "submissionMerkleRoot",
      "outputs": [
        {
          "internalType": "bytes32",
          "name": "",
          "type": "bytes32"
        }
      ],
      "stateMutability": "view",
      "type": "function"
    },
    {
      "inputs": [],
      "name": "totalVotesCast",
      "outputs": [
        {
          "internalType": "uint256",
          "name": "",
          "type": "uint256"
        }
      ],
      "stateMutability": "view",
      "type": "function"
    },
    {
      "inputs": [
        {
          "components": [
            {
              "internalType": "address",
              "name": "author",
              "type": "address"
            },
            {
              "internalType": "bool",
              "name": "exists",
              "type": "bool"
            },
            {
              "internalType": "string",
              "name": "description",
              "type": "string"
            },
            {
              "components": [
                {
                  "internalType": "address",
                  "name": "targetAddress",
                  "type": "address"
                }
              ],
              "internalType": "struct Governor.TargetMetadata",
              "name": "targetMetadata",
              "type": "tuple"
            },
            {
              "components": [
                {
                  "internalType": "address[]",
                  "name": "signers",
                  "type": "address[]"
                },
                {
                  "internalType": "uint256",
                  "name": "threshold",
                  "type": "uint256"
                }
              ],
              "internalType": "struct Governor.SafeMetadata",
              "name": "safeMetadata",
              "type": "tuple"
            }
          ],
          "internalType": "struct Governor.ProposalCore",
          "name": "proposal",
          "type": "tuple"
        }
      ],
      "name": "validateProposalData",
      "outputs": [],
      "stateMutability": "view",
      "type": "function"
    },
    {
      "inputs": [
        {
          "internalType": "address",
          "name": "account",
          "type": "address"
        },
        {
          "internalType": "bytes32[]",
          "name": "proof",
          "type": "bytes32[]"
        }
      ],
      "name": "verifyProposer",
      "outputs": [],
      "stateMutability": "nonpayable",
      "type": "function"
    },
    {
      "inputs": [
        {
          "internalType": "address",
          "name": "account",
          "type": "address"
        },
        {
          "internalType": "uint256",
          "name": "totalVotes",
          "type": "uint256"
        },
        {
          "internalType": "bytes32[]",
          "name": "proof",
          "type": "bytes32[]"
        }
      ],
      "name": "verifyVoter",
      "outputs": [],
      "stateMutability": "nonpayable",
      "type": "function"
    },
    {
      "inputs": [],
      "name": "version",
      "outputs": [
        {
          "internalType": "string",
          "name": "",
          "type": "string"
        }
      ],
      "stateMutability": "pure",
      "type": "function"
    },
    {
      "inputs": [],
      "name": "voteStart",
      "outputs": [
        {
          "internalType": "uint256",
          "name": "",
          "type": "uint256"
        }
      ],
      "stateMutability": "view",
      "type": "function"
    },
    {
      "inputs": [],
      "name": "votingDelay",
      "outputs": [
        {
          "internalType": "uint256",
          "name": "",
          "type": "uint256"
        }
      ],
      "stateMutability": "view",
      "type": "function"
    },
    {
      "inputs": [],
      "name": "votingMerkleRoot",
      "outputs": [
        {
          "internalType": "bytes32",
          "name": "",
          "type": "bytes32"
        }
      ],
      "stateMutability": "view",
      "type": "function"
    },
    {
      "inputs": [],
      "name": "votingPeriod",
      "outputs": [
        {
          "internalType": "uint256",
          "name": "",
          "type": "uint256"
        }
      ],
      "stateMutability": "view",
      "type": "function"
    }
  ],
  "bytecode": {
    "object": "0x60806040523480156200001157600080fd5b5060405162003e3938038062003e398339810160408190526200003491620002e7565b84848484846000815181106200004e576200004e620003f8565b6020026020010151856001815181106200006c576200006c620003f8565b6020026020010151866002815181106200008a576200008a620003f8565b602002602001015187600381518110620000a857620000a8620003f8565b602002602001015188600481518110620000c657620000c6620003f8565b602002602001015189600581518110620000e457620000e4620003f8565b60200260200101518a600681518110620001025762000102620003f8565b602002602001015188888d600781518110620001225762000122620003f8565b60200260200101518e600881518110620001405762000140620003f8565b602090810291909101015160009190915560015560039190915560045560056200016b8c826200049d565b5060066200017a8b826200049d565b50600780546001600160a01b0319163390811790915560088890556009879055600a869055600b859055600c849055600d839055600e8290556040517f1eae03a78f765227bc1e8574db32390cefa5b3c0a954017973e497e40a12373491620001e6918e919062000569565b60405180910390a150505050505050505050505050505050620005af565b634e487b7160e01b600052604160045260246000fd5b604051601f8201601f191681016001600160401b038111828210171562000245576200024562000204565b604052919050565b60005b838110156200026a57818101518382015260200162000250565b50506000910152565b600082601f8301126200028557600080fd5b81516001600160401b03811115620002a157620002a162000204565b620002b6601f8201601f19166020016200021a565b818152846020838601011115620002cc57600080fd5b620002df8260208301602087016200024d565b949350505050565b600080600080600060a086880312156200030057600080fd5b85516001600160401b03808211156200031857600080fd5b6200032689838a0162000273565b96506020915081880151818111156200033e57600080fd5b6200034c8a828b0162000273565b96505060408801519450606088015193506080880151818111156200037057600080fd5b8801601f81018a136200038257600080fd5b80518281111562000397576200039762000204565b8060051b9250620003aa8484016200021a565b818152928201840192848101908c851115620003c557600080fd5b928501925b84841015620003e557835182529285019290850190620003ca565b8096505050505050509295509295909350565b634e487b7160e01b600052603260045260246000fd5b600181811c908216806200042357607f821691505b6020821081036200044457634e487b7160e01b600052602260045260246000fd5b50919050565b601f8211156200049857600081815260208120601f850160051c81016020861015620004735750805b601f850160051c820191505b8181101562000494578281556001016200047f565b5050505b505050565b81516001600160401b03811115620004b957620004b962000204565b620004d181620004ca84546200040e565b846200044a565b602080601f831160018114620005095760008415620004f05750858301515b600019600386901b1c1916600185901b17855562000494565b600085815260208120601f198616915b828110156200053a5788860151825594840194600190910190840162000519565b5085821015620005595787850151600019600388901b60f8161c191681555b5050505050600190811b01905550565b60408152600083518060408401526200058a8160608501602088016200024d565b6001600160a01b0393909316602083015250601f91909101601f191601606001919050565b61387a80620005bf6000396000f3fe6080604052600436106103d85760003560e01c8063785ddfe5116101fd578063c19d93fb11610118578063ea8a1af0116100ab578063f0a7db0a1161007a578063f0a7db0a14610b98578063f4f3d7ec14610bb8578063f79c017214610bd8578063fb8ddab414610c08578063fb9bf8d414610c2857600080fd5b8063ea8a1af014610b30578063edcd1be414610b45578063eef18e1714610b5b578063efa90d3614610b8357600080fd5b8063d45a010b116100e7578063d45a010b14610ac3578063dd96a19d14610ad8578063dea5f6a614610aee578063e031535b14610b1b57600080fd5b8063c19d93fb14610a24578063c7f758a814610a46578063c9a1b6b214610a73578063cb85395014610a9357600080fd5b80639b644a2311610190578063b323580d1161015f578063b323580d146109bb578063b66d1da3146109db578063bddc1641146109fb578063c0ffaa7814610a1157600080fd5b80639b644a23146109215780639ba197af14610941578063a1ac6cb21461096e578063a84ff54b1461099b57600080fd5b806389ab5f54116101cc57806389ab5f541461089c5780639174778c146108bc578063930de979146108dc578063946369b51461090c57600080fd5b8063785ddfe51461083b5780637c65d7111461085b5780637de418d514610870578063832009af1461088657600080fd5b8063366ecf5b116102f8578063531bd8121161028b5780636e4eb8101161025a5780636e4eb8101461077c5780636ed815ad146107c35780636fd3636b146107d9578063711effc8146107ee57806375e509c51461080e57600080fd5b8063531bd812146106e2578063544ffc9c1461070257806354fd4d501461072f5780635c7107d81461075c57600080fd5b8063476f4d8a116102c7578063476f4d8a146106775780634d24a67f1461068a57806350a5e5241461069f57806350c4b616146106c257600080fd5b8063366ecf5b146106115780633932abb1146106275780633f9942ff1461063d578063458da87d1461065757600080fd5b80630aa25e44116103705780632c39805f1161033f5780632c39805f14610583578063325cc6d9146105a557806332763c22146105c5578063347cf665146105f557600080fd5b80630aa25e441461050a5780631242b7371461052a57806320b3e8451461054c578063262e59e91461056e57600080fd5b80630414126a116103ac5780630414126a1461048557806305846cae1461049b57806306fdde03146104bb578063070dc5d9146104dd57600080fd5b80624114a8146103dd578063013cf08b1461040657806302a251a31461043757806302d05d3f1461044d575b600080fd5b3480156103e957600080fd5b506103f360085481565b6040519081526020015b60405180910390f35b34801561041257600080fd5b50610426610421366004612d5e565b610c3e565b6040516103fd959493929190612e16565b34801561044357600080fd5b506103f3600a5481565b34801561045957600080fd5b5060075461046d906001600160a01b031681565b6040516001600160a01b0390911681526020016103fd565b34801561049157600080fd5b506103f360015481565b3480156104a757600080fd5b506103f36104b6366004612d5e565b610d86565b3480156104c757600080fd5b506104d0610da7565b6040516103fd9190612e68565b3480156104e957600080fd5b506103f36104f8366004612d5e565b601c6020526000908152604090205481565b34801561051657600080fd5b5061046d610525366004612d5e565b610e35565b34801561053657600080fd5b5061053f610e5f565b6040516103fd9190612eb6565b34801561055857600080fd5b5061056c610567366004612f29565b610eb7565b005b34801561057a57600080fd5b506103f3610f26565b34801561058f57600080fd5b50610598610f42565b6040516103fd9190612f7d565b3480156105b157600080fd5b506103f36105c0366004612d5e565b610fa3565b3480156105d157600080fd5b506105e56105e0366004612fdf565b610fb3565b60405190151581526020016103fd565b34801561060157600080fd5b506103f3678ac7230489e8000081565b34801561061d57600080fd5b506103f360005481565b34801561063357600080fd5b506103f360095481565b34801561064957600080fd5b506012546105e59060ff1681565b34801561066357600080fd5b506103f36106723660046132eb565b6110b2565b6103f3610685366004613337565b6110e3565b34801561069657600080fd5b506103f3611180565b3480156106ab57600080fd5b506106b461118e565b6040516103fd92919061336b565b3480156106ce57600080fd5b5061046d6106dd366004612d5e565b611259565b3480156106ee57600080fd5b5061056c6106fd366004613399565b611269565b34801561070e57600080fd5b506103f361071d366004612d5e565b6000908152601c602052604090205490565b34801561073b57600080fd5b50604080518082019091526004815263342e313160e01b60208201526104d0565b34801561076857600080fd5b506103f3610777366004612d5e565b6112cf565b34801561078857600080fd5b506103f36107973660046133f4565b6000828152601c602090815260408083206001600160a01b038516845260020190915290205492915050565b3480156107cf57600080fd5b506103f3600d5481565b3480156107e557600080fd5b5061053f6113d6565b3480156107fa57600080fd5b506103f3610809366004613424565b61142c565b34801561081a57600080fd5b506103f3610829366004613446565b60146020526000908152604090205481565b34801561084757600080fd5b50601e5461046d906001600160a01b031681565b34801561086757600080fd5b506104d061145d565b34801561087c57600080fd5b506103f3601a5481565b34801561089257600080fd5b506103f3600b5481565b3480156108a857600080fd5b506103f36108b7366004613424565b61146a565b3480156108c857600080fd5b506105e56108d7366004612d5e565b6114e8565b3480156108e857600080fd5b506105e56108f7366004613446565b60186020526000908152604090205460ff1681565b34801561091857600080fd5b5061059861158e565b34801561092d57600080fd5b506103f361093c366004612d5e565b6115ee565b34801561094d57600080fd5b506103f361095c366004612d5e565b6000908152601d602052604090205490565b34801561097a57600080fd5b506103f3610989366004613446565b601b6020526000908152604090205481565b3480156109a757600080fd5b506103f36109b6366004613463565b6115fe565b3480156109c757600080fd5b506105986109d6366004612d5e565b611652565b3480156109e757600080fd5b506103f36109f6366004612d5e565b6116c1565b348015610a0757600080fd5b506103f360035481565b6103f3610a1f3660046134c3565b611721565b348015610a3057600080fd5b50610a39611781565b6040516103fd9190613534565b348015610a5257600080fd5b50610a66610a61366004612d5e565b6117d2565b6040516103fd919061354e565b348015610a7f57600080fd5b5061053f610a8e366004612d5e565b61194c565b348015610a9f57600080fd5b506105e5610aae366004613446565b60196020526000908152604090205460ff1681565b348015610acf57600080fd5b506106b46119ad565b348015610ae457600080fd5b506103f360045481565b348015610afa57600080fd5b506103f3610b09366004613446565b60176020526000908152604090205481565b348015610b2757600080fd5b506103f3611b64565b348015610b3c57600080fd5b5061056c611b76565b348015610b5157600080fd5b506103f3600e5481565b348015610b6757600080fd5b5061046d73dc652c746a8f85e18ce632d97c6118e8a52fa73881565b348015610b8f57600080fd5b5061053f611c6c565b348015610ba457600080fd5b5061056c610bb33660046135b5565b611cc2565b348015610bc457600080fd5b5061056c610bd3366004613446565b611e1c565b348015610be457600080fd5b506105e5610bf3366004612d5e565b60116020526000908152604090205460ff1681565b348015610c1457600080fd5b5061056c610c233660046132eb565b611ea1565b348015610c3457600080fd5b506103f3600c5481565b601360205260009081526040902080546001820180546001600160a01b03831693600160a01b90930460ff16929190610c76906135f6565b80601f0160208091040260200160405190810160405280929190818152602001828054610ca2906135f6565b8015610cef5780601f10610cc457610100808354040283529160200191610cef565b820191906000526020600020905b815481529060010190602001808311610cd257829003601f168201915b5050604080516020808201835260028801546001600160a01b031682528251600389018054606093810283018401865294820185815298999398939750909550935084928491840182828015610d6e57602002820191906000526020600020905b81546001600160a01b03168152600190910190602001808311610d50575b50505050508152602001600182015481525050905085565b60108181548110610d9657600080fd5b600091825260209091200154905081565b60058054610db4906135f6565b80601f0160208091040260200160405190810160405280929190818152602001828054610de0906135f6565b8015610e2d5780601f10610e0257610100808354040283529160200191610e2d565b820191906000526020600020905b815481529060010190602001808311610e1057829003601f168201915b505050505081565b60158181548110610e4557600080fd5b6000918252602090912001546001600160a01b0316905081565b60606010805480602002602001604051908101604052809291908181526020018280548015610ead57602002820191906000526020600020905b815481526020019060010190808311610e99575b5050505050905090565b6001600160a01b03831660009081526019602052604090205460ff16610f2157600354600003610ee657505050565b610efc83678ac7230489e8000084846000610fb3565b506001600160a01b0383166000908152601960205260409020805460ff191660011790555b505050565b6000600a54610f33611b64565b610f3d9190613640565b905090565b60606016805480602002602001604051908101604052809291908181526020018280548015610ead57602002820191906000526020600020905b81546001600160a01b03168152600190910190602001808311610f7c575050505050905090565b60028181548110610d9657600080fd5b6040516bffffffffffffffffffffffff19606087901b1660208201526034810185905260009081906054016040516020818303038152906040528051906020012090506000836110435761103e868680806020026020016040519081016040528093929190818152602001838360200280828437600092019190915250506003549150859050611ff0565b611084565b611084868680806020026020016040519081016040528093929190818152602001838360200280828437600092019190915250506004549150859050611ff0565b9050806110a45760405163452c2df160e11b815260040160405180910390fd5b506001979650505050505050565b6000816040516020016110c5919061354e565b60408051601f19818403018152919052805160209091012092915050565b6000600d54341461111957600d546040516380a7af9f60e01b815234600482015260248101919091526044015b60405180910390fd5b60035415611151573360009081526019602052604090205460ff1661115157604051631f22097560e01b815260040160405180910390fd5b61115d610c2383613653565b600061117061116b84613653565b612006565b905061117a612281565b92915050565b61118b600180613640565b81565b606080600061119b611c6c565b9050600081516001600160401b038111156111b8576111b861304f565b6040519080825280602002602001820160405280156111e1578160200160208202803683370190505b50905060005b825181101561124f57601c60008483815181106112065761120661365f565b60200260200101518152602001908152602001600020600001548282815181106112325761123261365f565b60209081029190910101528061124781613675565b9150506111e7565b5090939092509050565b60168181548110610e4557600080fd5b6001600160a01b03841660009081526018602052604090205460ff166112c957611297848484846001610fb3565b506001600160a01b038416600090815260176020908152604080832086905560189091529020805460ff191660011790555b50505050565b6000816000036112f257604051630ec90a1760e31b815260040160405180910390fd5b6002805460408051602080840282018101909252828152919260009291849083018282801561134057602002820191906000526020600020905b81548152602001906001019080831161132c575b5050505050905060006001905060005b838110156113bc5761138783828151811061136d5761136d61365f565b60200260200101516000908152601d602052604090205490565b156113aa5785820361139c5795945050505050565b816113a681613675565b9250505b806113b481613675565b915050611350565b50604051632cc2ab7360e11b815260040160405180910390fd5b60606002805480602002602001604051908101604052809291908181526020018280548015610ead5760200282019190600052602060002090815481526020019060010190808311610e99575050505050905090565b601d602052816000526040600020818154811061144857600080fd5b90600052602060002001600091509150505481565b60068054610db4906135f6565b600082815260116020526040812054339060ff161561149c576040516358f1119560e01b815260040160405180910390fd5b6001600160a01b03811660009081526018602052604090205460ff166114d55760405163126ec6d160e31b815260040160405180910390fd5b6114e0848285612396565b949350505050565b6002546000906114fa9060019061368e565b82111561151a576040516365d6f35160e11b815260040160405180910390fd5b60005b611528836001613640565b811015611585576001611564600283815481106115475761154761365f565b90600052602060002001546000908152601d602052604090205490565b11156115735750600192915050565b8061157d81613675565b91505061151d565b50600092915050565b60606015805480602002602001604051908101604052809291908181526020018280548015610ead576020028201919060005260206000209081546001600160a01b03168152600190910190602001808311610f7c575050505050905090565b600f8181548110610d9657600080fd5b600085815260116020526040812054339060ff1615611630576040516358f1119560e01b815260040160405180910390fd5b61163c81878686611269565b611647878287612396565b979650505050505050565b6000818152601c60209081526040918290206001018054835181840281018401909452808452606093928301828280156116b557602002820191906000526020600020905b81546001600160a01b03168152600190910190602001808311611697575b50505050509050919050565b6000818152601d60205260408120546001146116f057604051633832a15560e21b815260040160405180910390fd5b6000828152601d60205260408120805490919061170f5761170f61365f565b90600052602060002001549050919050565b6000600d54341461175257600d546040516380a7af9f60e01b81523460048201526024810191909152604401611110565b61175d338484610eb7565b611769610c2385613653565b600061177761116b86613653565b90506114e0612281565b60125460009060ff16156117955750600290565b42600854106117a45750600090565b426117ad611b64565b106117b85750600390565b426117c1610f26565b106117cc5750600190565b50600490565b6117da612c73565b600082815260136020908152604091829020825160a08101845281546001600160a01b0381168252600160a01b900460ff16151592810192909252600181018054929391929184019161182c906135f6565b80601f0160208091040260200160405190810160405280929190818152602001828054611858906135f6565b80156118a55780601f1061187a576101008083540402835291602001916118a5565b820191906000526020600020905b81548152906001019060200180831161188857829003601f168201915b5050509183525050604080516020818101835260028501546001600160a01b0316825280840191909152815160038501805460609381028301840185528285018181529490950194919390928492849184018282801561192e57602002820191906000526020600020905b81546001600160a01b03168152600190910190602001808311611910575b50505050508152602001600182015481525050815250509050919050565b6000818152601d60209081526040918290208054835181840281018401909452808452606093928301828280156116b557602002820191906000526020600020905b81548152602001906001019080831161198e5750505050509050919050565b60608060006119ba610e5f565b51905060006119c7611c6c565b905060008282516119d8919061368e565b6001600160401b038111156119ef576119ef61304f565b604051908082528060200260200182016040528015611a18578160200160208202803683370190505b5090506000838351611a2a919061368e565b6001600160401b03811115611a4157611a4161304f565b604051908082528060200260200182016040528015611a6a578160200160208202803683370190505b5090506000805b8451811015611b575760116000868381518110611a9057611a9061365f565b60209081029190910181015182528101919091526040016000205460ff16611b4557848181518110611ac457611ac461365f565b6020026020010151848381518110611ade57611ade61365f565b602002602001018181525050601c6000868381518110611b0057611b0061365f565b6020026020010151815260200190815260200160002060000154838381518110611b2c57611b2c61365f565b6020908102919091010152611b42600183613640565b91505b80611b4f81613675565b915050611a71565b5091969095509350505050565b6000600954600854610f3d9190613640565b6007546001600160a01b03163314801590611ba557503373dc652c746a8f85e18ce632d97c6118e8a52fa73814155b15611bc3576040516301dbf46f60e71b815260040160405180910390fd5b6000611bcd611781565b90506002816004811115611be357611be361351e565b03611c0157604051633c30acbf60e01b815260040160405180910390fd5b6004816004811115611c1557611c1561351e565b03611c33576040516307b9d0f760e01b815260040160405180910390fd5b6012805460ff191660011790556040517f4cd963a081760a54f571abc0f1db4dde31b4a07d8d6da3e844b8c6f47eeaaa4290600090a150565b6060600f805480602002602001604051908101604052809291908181526020018280548015610ead5760200282019190600052602060002090815481526020019060010190808311610e99575050505050905090565b6007546001600160a01b03163314611ced5760405163b8d4540960e01b815260040160405180910390fd5b6004611cf7611781565b6004811115611d0857611d0861351e565b03611d26576040516331da1c8b60e11b815260040160405180910390fd5b60005b81811015611dcb576000838383818110611d4557611d4561365f565b60209081029290920135600081815260119093526040909220549192505060ff16611db8576000818152601160205260408120805460ff191660019081179091556010805491820181559091527f1b6847dc741a1b0cd08d278845f9d819d87b734759afb55fe2de5cb82a9ae672018190555b5080611dc381613675565b915050611d29565b50600054600103611de057611de082826124c8565b7f75a75cf5c561892f4cc5b26c1b8e933849b42238c96dd073d080d1ae96c51416600f604051611e1091906136a1565b60405180910390a15050565b6007546001600160a01b03163314611e4757604051630f4cb1bd60e11b815260040160405180910390fd5b601e80546001600160a01b038381166001600160a01b031983168117909355604080519190921680825260208201939093527f753a2cf8d360cff631674504210913e48247f8e56b3e6d2006c2103d4095999f9101611e10565b80516001600160a01b03163314611edf57805160405163fbbf4d7f60e01b81526001600160a01b039091166004820152336024820152604401611110565b60005b611eed600180613640565b811015611fc6576000816001811115611f0857611f0861351e565b90506000816001811115611f1e57611f1e61351e565b03611f295750611fb4565b6001816001811115611f3d57611f3d61351e565b03611f975760808301515151600003611f695760405163c3b2798b60e01b815260040160405180910390fd5b826080015160200151600003611f92576040516392fb9a3560e01b815260040160405180910390fd5b611fb2565b8060405163d2277d4960e01b815260040161111091906136dc565b505b80611fbe81613675565b915050611ee2565b50806040015151600003611fed5760405163e182473360e01b815260040160405180910390fd5b50565b600082611ffd8584612525565b14949350505050565b60006003612012611781565b60048111156120235761202361351e565b1461204a57612030611781565b604051632889531360e01b81526004016111109190613534565b600b54336000908152601460205260409020540361208157600b54604051632bd6d93960e21b815260040161111091815260200190565b600c54601054600f54612094919061368e565b036120b857600c546040516302217f5360e51b815260040161111091815260200190565b60006120c3836110b2565b600081815260136020526040902054909150600160a01b900460ff16156121005760405163baffc42360e01b815260048101829052602401611110565b600f805460018181019092557f8d1108e10bcb7c27dddfc02ed9d693a074039d026cf4ea4240b40f7d581ac8020182905560008281526013602090815260409182902086518154928801511515600160a01b026001600160a81b03199093166001600160a01b03909116179190911781559085015185928201906121849082613736565b506060820151516002820180546001600160a01b0319166001600160a01b0390921691909117905560808201518051805160038401916121c991839160200190612ce4565b50602091820151600191820155336000908152601490925260408220805491945092506121f7908490613640565b9091555050601580546001810182556000919091527f55f448fdea98c4d29eb340757ef0a66cd03dbb9538908a6a81d96026b71ec4750180546001600160a01b031916339081179091556040805183815260208101929092527fcd423cc1203c0af96b9b3d68d73b3064a69de2d14450bb7181c5e5df2132b358910160405180910390a192915050565b600d54156123945760006064600e54606461229c919061368e565b6122a690346137f5565b6122b0919061380c565b90508015612324576122d673dc652c746a8f85e18ce632d97c6118e8a52fa73882612572565b6040805173dc652c746a8f85e18ce632d97c6118e8a52fa7388152602081018390527fdf20fd1e76bc69d672e4814fafb2c449bba3a5369d8359adf9e05e6fde87b056910160405180910390a15b6000612330823461368e565b905080156123915760075461234e906001600160a01b031682612572565b600754604080516001600160a01b039092168252602082018390527fdf20fd1e76bc69d672e4814fafb2c449bba3a5369d8359adf9e05e6fde87b0569101611e10565b50505b565b600060016123a2611781565b60048111156123b3576123b361351e565b146123da576123c0611781565b60405163049cab4960e51b81526004016111109190613534565b816000036123fb5760405163502e1c2960e01b815260040160405180910390fd5b6001600160a01b0383166000908152601760205260409020546124239085908590859061268b565b601680546001810182556000919091527fd833147d7dc355ba459fc788f669e58cfaf9dc25ddcd0702e87d69c7b51242890180546001600160a01b0319163317905560408051858152602081018490526001600160a01b038516917fb4cfecf70861b7b150d8337780d34fb4cbc2114b5fb1fe51a5c5fca1849f7274910160405180910390a250506001600160a01b0316600090815260176020526040902054919050565b60005b81811015610f215760008383838181106124e7576124e761365f565b602090810292909201356000818152601c9093526040909220549192506125109050828261281b565b5050808061251d90613675565b9150506124cb565b600081815b845181101561256a57612556828683815181106125495761254961365f565b602002602001015161294c565b91508061256281613675565b91505061252a565b509392505050565b804710156125c25760405162461bcd60e51b815260206004820152601d60248201527f416464726573733a20696e73756666696369656e742062616c616e63650000006044820152606401611110565b6000826001600160a01b03168260405160006040518083038185875af1925050503d806000811461260f576040519150601f19603f3d011682016040523d82523d6000602084013e612614565b606091505b5050905080610f215760405162461bcd60e51b815260206004820152603a60248201527f416464726573733a20756e61626c6520746f2073656e642076616c75652c207260448201527f6563697069656e74206d617920686176652072657665727465640000000000006064820152608401611110565b6000848152601c602090815260408083206001600160a01b0387168452601b909252909120546126bb908361368e565b8311156126db5760405163660fa07360e11b815260040160405180910390fd5b6001600160a01b03841660009081526002820160205260408120548254901591859184919061270b908490613640565b90915550506001600160a01b03851660009081526002830160205260408120805486929061273a908490613640565b90915550508015612775576001828101805491820181556000908152602090200180546001600160a01b0319166001600160a01b0387161790555b6001600160a01b0385166000908152601b60205260408120805486929061279d908490613640565b9250508190555083601a60008282546127b69190613640565b909155505060005460010361281357815460006127d3868361368e565b905080156127e5576127e5888261281b565b6000828152601d6020908152604082208054600181018255908352912001889055612810818361297e565b50505b505050505050565b6000818152601d602090815260408083208054825181850281018501909352808352919290919083018282801561287157602002820191906000526020600020905b81548152602001906001019080831161285d575b5050505050905060005b81518110156112c957838282815181106128975761289761365f565b60200260200101510361293a5781600183516128b3919061368e565b815181106128c3576128c361365f565b6020026020010151601d600085815260200190815260200160002082815481106128ef576128ef61365f565b9060005260206000200181905550601d600084815260200190815260200160002080548061291f5761291f61382e565b600190038181906000526020600020016000905590556112c9565b8061294481613675565b91505061287b565b6000818310612968576000828152602084905260409020612977565b60008381526020839052604090205b9392505050565b600280546040805160208084028201810190925282815291926000929184908301828280156129cc57602002820191906000526020600020905b8154815260200190600101908083116129b8575b5050505050905081600003612a13575050600280546001810182556000919091527f405787fa12a823e0f2b7631cc41b3ba8828b3321ca811111fa75cd3aa3bb5ace015550565b80612a1f60018461368e565b81518110612a2f57612a2f61365f565b6020026020010151831015612a85576001548203612a4d5750505050565b5050600280546001810182556000919091527f405787fa12a823e0f2b7631cc41b3ba8828b3321ca811111fa75cd3aa3bb5ace015550565b6112c9848484846000805b83811015612afa57828181518110612aaa57612aaa61365f565b60200260200101518503612abf5750506112c9565b828181518110612ad157612ad161365f565b6020026020010151851115612ae857809150612afa565b80612af281613675565b915050612a90565b5060008086118015612b1857506000868152601d6020526040902054155b90506000818015612b41575086848481518110612b3757612b3761365f565b6020026020010151145b612c4a57612b5060018661368e565b8314612bf8576000612b63846001613640565b90505b85811015612bf65784612b7a60018361368e565b81518110612b8a57612b8a61365f565b602002602001015160028281548110612ba557612ba561365f565b600091825260209091200155828015612bd6575087858281518110612bcc57612bcc61365f565b6020026020010151145b15612be45760019150612bf6565b80612bee81613675565b915050612b66565b505b80158015612c07575060015485105b15612c4a57600284612c1a60018861368e565b81518110612c2a57612c2a61365f565b602090810291909101810151825460018101845560009384529190922001555b8560028481548110612c5e57612c5e61365f565b60009182526020909120015550505050505050565b6040518060a0016040528060006001600160a01b0316815260200160001515815260200160608152602001612cbd604051806020016040528060006001600160a01b031681525090565b8152602001612cdf604051806040016040528060608152602001600081525090565b905290565b828054828255906000526020600020908101928215612d39579160200282015b82811115612d3957825182546001600160a01b0319166001600160a01b03909116178255602090920191600190910190612d04565b50612d45929150612d49565b5090565b5b80821115612d455760008155600101612d4a565b600060208284031215612d7057600080fd5b5035919050565b6000815180845260005b81811015612d9d57602081850181015186830182015201612d81565b506000602082860101526020601f19601f83011685010191505092915050565b805160408084528151908401819052600091602091908201906060860190845b81811015612e025783516001600160a01b031683529284019291840191600101612ddd565b505093820151949091019390935250919050565b600060018060a01b038088168352861515602084015260a06040840152612e4060a0840187612d77565b8186511660608501528381036080850152612e5b8186612dbd565b9998505050505050505050565b6020815260006129776020830184612d77565b600081518084526020808501945080840160005b83811015612eab57815187529582019590820190600101612e8f565b509495945050505050565b6020815260006129776020830184612e7b565b6001600160a01b0381168114611fed57600080fd5b60008083601f840112612ef057600080fd5b5081356001600160401b03811115612f0757600080fd5b6020830191508360208260051b8501011115612f2257600080fd5b9250929050565b600080600060408486031215612f3e57600080fd5b8335612f4981612ec9565b925060208401356001600160401b03811115612f6457600080fd5b612f7086828701612ede565b9497909650939450505050565b6020808252825182820181905260009190848201906040850190845b81811015612fbe5783516001600160a01b031683529284019291840191600101612f99565b50909695505050505050565b80358015158114612fda57600080fd5b919050565b600080600080600060808688031215612ff757600080fd5b853561300281612ec9565b94506020860135935060408601356001600160401b0381111561302457600080fd5b61303088828901612ede565b9094509250613043905060608701612fca565b90509295509295909350565b634e487b7160e01b600052604160045260246000fd5b604080519081016001600160401b03811182821017156130875761308761304f565b60405290565b60405160a081016001600160401b03811182821017156130875761308761304f565b604051601f8201601f191681016001600160401b03811182821017156130d7576130d761304f565b604052919050565b6000602082840312156130f157600080fd5b604051602081018181106001600160401b03821117156131135761311361304f565b604052905080823561312481612ec9565b905292915050565b60006040828403121561313e57600080fd5b613146613065565b905081356001600160401b038082111561315f57600080fd5b818401915084601f83011261317357600080fd5b81356020828211156131875761318761304f565b8160051b92506131988184016130af565b82815292840181019281810190888511156131b257600080fd5b948201945b848610156131dc57853593506131cc84612ec9565b83825294820194908201906131b7565b808752505080860135818601525050505092915050565b600060a0828403121561320557600080fd5b61320d61308d565b9050813561321a81612ec9565b81526020613229838201612fca565b8183015260408301356001600160401b038082111561324757600080fd5b818501915085601f83011261325b57600080fd5b81358181111561326d5761326d61304f565b61327f601f8201601f191685016130af565b818152878583860101111561329357600080fd5b8185850186830137600085838301015280604087015250506132b886606087016130df565b606085015260808501359250808311156132d157600080fd5b50506132df8482850161312c565b60808301525092915050565b6000602082840312156132fd57600080fd5b81356001600160401b0381111561331357600080fd5b6114e0848285016131f3565b600060a0828403121561333157600080fd5b50919050565b60006020828403121561334957600080fd5b81356001600160401b0381111561335f57600080fd5b6114e08482850161331f565b60408152600061337e6040830185612e7b565b82810360208401526133908185612e7b565b95945050505050565b600080600080606085870312156133af57600080fd5b84356133ba81612ec9565b93506020850135925060408501356001600160401b038111156133dc57600080fd5b6133e887828801612ede565b95989497509550505050565b6000806040838503121561340757600080fd5b82359150602083013561341981612ec9565b809150509250929050565b6000806040838503121561343757600080fd5b50508035926020909101359150565b60006020828403121561345857600080fd5b813561297781612ec9565b60008060008060006080868803121561347b57600080fd5b85359450602086013593506040860135925060608601356001600160401b038111156134a657600080fd5b6134b288828901612ede565b969995985093965092949392505050565b6000806000604084860312156134d857600080fd5b83356001600160401b03808211156134ef57600080fd5b6134fb8783880161331f565b9450602086013591508082111561351157600080fd5b50612f7086828701612ede565b634e487b7160e01b600052602160045260246000fd5b60208101600583106135485761354861351e565b91905290565b60208152600060018060a01b03808451166020840152602084015115156040840152604084015160a0606085015261358960c0850182612d77565b90508160608601515116608085015260808501519150601f198482030160a08501526133908183612dbd565b600080602083850312156135c857600080fd5b82356001600160401b038111156135de57600080fd5b6135ea85828601612ede565b90969095509350505050565b600181811c9082168061360a57607f821691505b60208210810361333157634e487b7160e01b600052602260045260246000fd5b634e487b7160e01b600052601160045260246000fd5b8082018082111561117a5761117a61362a565b600061117a36836131f3565b634e487b7160e01b600052603260045260246000fd5b6000600182016136875761368761362a565b5060010190565b8181038181111561117a5761117a61362a565b6020808252825482820181905260008481528281209092916040850190845b81811015612fbe578354835260019384019392850192016136c0565b60208101600283106135485761354861351e565b601f821115610f2157600081815260208120601f850160051c810160208610156137175750805b601f850160051c820191505b8181101561281357828155600101613723565b81516001600160401b0381111561374f5761374f61304f565b6137638161375d84546135f6565b846136f0565b602080601f83116001811461379857600084156137805750858301515b600019600386901b1c1916600185901b178555612813565b600085815260208120601f198616915b828110156137c7578886015182559484019460019091019084016137a8565b50858210156137e55787850151600019600388901b60f8161c191681555b5050505050600190811b01905550565b808202811582820484141761117a5761117a61362a565b60008261382957634e487b7160e01b600052601260045260246000fd5b500490565b634e487b7160e01b600052603160045260246000fdfea2646970667358221220639e50db2420cc7dbb41936bc492a3161dddd1a88e3ea58a5e742c55be6f5ca064736f6c63430008130033",
    "linkReferences": {}
  },
  "methodIdentifiers": {
    "AMOUNT_FOR_SUMBITTER_PROOF()": "347cf665",
    "JK_LABS_ADDRESS()": "eef18e17",
    "METADATAS_COUNT()": "4d24a67f",
    "addressSubmitterVerified(address)": "cb853950",
    "addressTotalCastVoteCounts(address)": "a1ac6cb2",
    "addressTotalVotes(address)": "dea5f6a6",
    "addressTotalVotesVerified(address)": "930de979",
    "addressesThatHaveVoted(uint256)": "50c4b616",
    "allProposalTotalVotes()": "50a5e524",
    "allProposalTotalVotesWithoutDeleted()": "d45a010b",
    "cancel()": "ea8a1af0",
    "canceled()": "3f9942ff",
    "castVote(uint256,uint256,uint256,bytes32[])": "a84ff54b",
    "castVoteWithoutProof(uint256,uint256)": "89ab5f54",
    "checkProof(address,uint256,bytes32[],bool)": "32763c22",
    "contestDeadline()": "262e59e9",
    "contestStart()": "004114a8",
    "costToPropose()": "6ed815ad",
    "creator()": "02d05d3f",
    "deleteProposals(uint256[])": "f0a7db0a",
    "deletedProposalIds(uint256)": "05846cae",
    "forVotesToProposalIds(uint256,uint256)": "711effc8",
    "getAllAddressesThatHaveVoted()": "2c39805f",
    "getAllDeletedProposalIds()": "1242b737",
    "getAllProposalAuthors()": "946369b5",
    "getAllProposalIds()": "efa90d36",
    "getNumProposalsWithThisManyForVotes(uint256)": "9ba197af",
    "getOnlyProposalIdWithThisManyForVotes(uint256)": "b66d1da3",
    "getProposal(uint256)": "c7f758a8",
    "getProposalsWithThisManyForVotes(uint256)": "c9a1b6b2",
    "getRankIndex(uint256)": "5c7107d8",
    "getSortedRanks()": "6fd3636b",
    "hashProposal((address,bool,string,(address),(address[],uint256)))": "458da87d",
    "isOrIsBelowTiedRank(uint256)": "9174778c",
    "maxProposalCount()": "fb9bf8d4",
    "name()": "06fdde03",
    "numAllowedProposalSubmissions()": "832009af",
    "numSubmissions(address)": "75e509c5",
    "officialRewardsModule()": "785ddfe5",
    "percentageToCreator()": "edcd1be4",
    "prompt()": "7c65d711",
    "proposalAddressVotes(uint256,address)": "6e4eb810",
    "proposalAddressesHaveVoted(uint256)": "b323580d",
    "proposalAuthors(uint256)": "0aa25e44",
    "proposalIds(uint256)": "9b644a23",
    "proposalIsDeleted(uint256)": "f79c0172",
    "proposalVotes(uint256)": "544ffc9c",
    "proposalVotesStructs(uint256)": "070dc5d9",
    "proposals(uint256)": "013cf08b",
    "propose((address,bool,string,(address),(address[],uint256)),bytes32[])": "c0ffaa78",
    "proposeWithoutProof((address,bool,string,(address),(address[],uint256)))": "476f4d8a",
    "rankLimit()": "0414126a",
    "setOfficialRewardsModule(address)": "f4f3d7ec",
    "sortedRanks(uint256)": "325cc6d9",
    "sortingEnabled()": "366ecf5b",
    "state()": "c19d93fb",
    "submissionMerkleRoot()": "bddc1641",
    "totalVotesCast()": "7de418d5",
    "validateProposalData((address,bool,string,(address),(address[],uint256)))": "fb8ddab4",
    "verifyProposer(address,bytes32[])": "20b3e845",
    "verifyVoter(address,uint256,bytes32[])": "531bd812",
    "version()": "54fd4d50",
    "voteStart()": "e031535b",
    "votingDelay()": "3932abb1",
    "votingMerkleRoot()": "dd96a19d",
    "votingPeriod()": "02a251a3"
  },
  "id": 28
}