{
  "_format": "hh-sol-artifact-1",
  "contractName": "Contest",
  "sourceName": "contracts/Contest.sol",
  "abi": [
    {
      "inputs": [
        {
          "internalType": "string",
          "name": "_name",
          "type": "string"
        },
        {
          "internalType": "string",
          "name": "_prompt",
          "type": "string"
        },
        {
          "internalType": "contract IVotesTimestamp",
          "name": "_token",
          "type": "address"
        },
        {
          "internalType": "contract IVotesTimestamp",
          "name": "_submissionToken",
          "type": "address"
        },
        {
          "internalType": "uint256[]",
          "name": "_constructorIntParams",
          "type": "uint256[]"
        }
      ],
      "stateMutability": "nonpayable",
      "type": "constructor"
    },
    {
      "anonymous": false,
      "inputs": [],
      "name": "ContestCanceled",
      "type": "event"
    },
    {
      "anonymous": false,
      "inputs": [
        {
          "indexed": false,
          "internalType": "uint256",
          "name": "oldContestSnapshot",
          "type": "uint256"
        },
        {
          "indexed": false,
          "internalType": "uint256",
          "name": "newContestSnapshot",
          "type": "uint256"
        }
      ],
      "name": "ContestSnapshotSet",
      "type": "event"
    },
    {
      "anonymous": false,
      "inputs": [
        {
          "indexed": false,
          "internalType": "uint256",
          "name": "oldContestStart",
          "type": "uint256"
        },
        {
          "indexed": false,
          "internalType": "uint256",
          "name": "newContestStart",
          "type": "uint256"
        }
      ],
      "name": "ContestStartSet",
      "type": "event"
    },
    {
      "anonymous": false,
      "inputs": [
        {
          "indexed": false,
          "internalType": "address",
          "name": "oldCreator",
          "type": "address"
        },
        {
          "indexed": false,
          "internalType": "address",
          "name": "newCreator",
          "type": "address"
        }
      ],
      "name": "CreatorSet",
      "type": "event"
    },
    {
      "anonymous": false,
      "inputs": [
        {
          "indexed": false,
          "internalType": "uint256",
          "name": "oldDownvotingAllowed",
          "type": "uint256"
        },
        {
          "indexed": false,
          "internalType": "uint256",
          "name": "newDownvotingAllowed",
          "type": "uint256"
        }
      ],
      "name": "DownvotingAllowedSet",
      "type": "event"
    },
    {
      "anonymous": false,
      "inputs": [
        {
          "indexed": false,
          "internalType": "uint256",
          "name": "oldMaxProposalCount",
          "type": "uint256"
        },
        {
          "indexed": false,
          "internalType": "uint256",
          "name": "newMaxProposalCount",
          "type": "uint256"
        }
      ],
      "name": "MaxProposalCountSet",
      "type": "event"
    },
    {
      "anonymous": false,
      "inputs": [
        {
          "indexed": false,
          "internalType": "uint256",
          "name": "oldNumAllowedProposalSubmissions",
          "type": "uint256"
        },
        {
          "indexed": false,
          "internalType": "uint256",
          "name": "newNumAllowedProposalSubmissions",
          "type": "uint256"
        }
      ],
      "name": "NumAllowedProposalSubmissionsSet",
      "type": "event"
    },
    {
      "anonymous": false,
      "inputs": [
        {
          "indexed": false,
          "internalType": "contract RewardsModule",
          "name": "oldOfficialRewardsModule",
          "type": "address"
        },
        {
          "indexed": false,
          "internalType": "contract RewardsModule",
          "name": "newOfficialRewardsModule",
          "type": "address"
        }
      ],
      "name": "OfficialRewardsModuleSet",
      "type": "event"
    },
    {
      "anonymous": false,
      "inputs": [
        {
          "indexed": false,
          "internalType": "uint256",
          "name": "proposalId",
          "type": "uint256"
        },
        {
          "indexed": false,
          "internalType": "string",
          "name": "description",
          "type": "string"
        },
        {
          "indexed": false,
          "internalType": "address",
          "name": "proposer",
          "type": "address"
        }
      ],
      "name": "ProposalCreated",
      "type": "event"
    },
    {
      "anonymous": false,
      "inputs": [
        {
          "indexed": false,
          "internalType": "uint256",
          "name": "oldProposalThreshold",
          "type": "uint256"
        },
        {
          "indexed": false,
          "internalType": "uint256",
          "name": "newProposalThreshold",
          "type": "uint256"
        }
      ],
      "name": "ProposalThresholdSet",
      "type": "event"
    },
    {
      "anonymous": false,
      "inputs": [
        {
          "indexed": false,
          "internalType": "uint256[]",
          "name": "proposalIds",
          "type": "uint256[]"
        }
      ],
      "name": "ProposalsDeleted",
      "type": "event"
    },
    {
      "anonymous": false,
      "inputs": [
        {
          "indexed": false,
          "internalType": "uint256",
          "name": "oldSubmissionGatingByVotingToken",
          "type": "uint256"
        },
        {
          "indexed": false,
          "internalType": "uint256",
          "name": "newSubmissionGatingByVotingToken",
          "type": "uint256"
        }
      ],
      "name": "SubmissionGatingByVotingTokenSet",
      "type": "event"
    },
    {
      "anonymous": false,
      "inputs": [
        {
          "indexed": true,
          "internalType": "address",
          "name": "voter",
          "type": "address"
        },
        {
          "indexed": false,
          "internalType": "uint256",
          "name": "proposalId",
          "type": "uint256"
        },
        {
          "indexed": false,
          "internalType": "uint8",
          "name": "support",
          "type": "uint8"
        },
        {
          "indexed": false,
          "internalType": "uint256",
          "name": "numVotes",
          "type": "uint256"
        },
        {
          "indexed": false,
          "internalType": "string",
          "name": "reason",
          "type": "string"
        }
      ],
      "name": "VoteCast",
      "type": "event"
    },
    {
      "anonymous": false,
      "inputs": [
        {
          "indexed": false,
          "internalType": "uint256",
          "name": "oldVotingDelay",
          "type": "uint256"
        },
        {
          "indexed": false,
          "internalType": "uint256",
          "name": "newVotingDelay",
          "type": "uint256"
        }
      ],
      "name": "VotingDelaySet",
      "type": "event"
    },
    {
      "anonymous": false,
      "inputs": [
        {
          "indexed": false,
          "internalType": "uint256",
          "name": "oldVotingPeriod",
          "type": "uint256"
        },
        {
          "indexed": false,
          "internalType": "uint256",
          "name": "newVotingPeriod",
          "type": "uint256"
        }
      ],
      "name": "VotingPeriodSet",
      "type": "event"
    },
    {
      "inputs": [],
      "name": "BALLOT_TYPEHASH",
      "outputs": [
        {
          "internalType": "bytes32",
          "name": "",
          "type": "bytes32"
        }
      ],
      "stateMutability": "view",
      "type": "function"
    },
    {
      "inputs": [],
      "name": "COUNTING_MODE",
      "outputs": [
        {
          "internalType": "string",
          "name": "",
          "type": "string"
        }
      ],
      "stateMutability": "pure",
      "type": "function"
    },
    {
      "inputs": [],
      "name": "allProposalTotalVotes",
      "outputs": [
        {
          "internalType": "uint256[]",
          "name": "proposalIdsReturn",
          "type": "uint256[]"
        },
        {
          "components": [
            {
              "internalType": "uint256",
              "name": "forVotes",
              "type": "uint256"
            },
            {
              "internalType": "uint256",
              "name": "againstVotes",
              "type": "uint256"
            }
          ],
          "internalType": "struct GovernorCountingSimple.VoteCounts[]",
          "name": "proposalVoteCountsArrayReturn",
          "type": "tuple[]"
        }
      ],
      "stateMutability": "view",
      "type": "function"
    },
    {
      "inputs": [],
      "name": "allProposalTotalVotesWithoutDeleted",
      "outputs": [
        {
          "internalType": "uint256[]",
          "name": "proposalIdsReturn",
          "type": "uint256[]"
        },
        {
          "components": [
            {
              "internalType": "uint256",
              "name": "forVotes",
              "type": "uint256"
            },
            {
              "internalType": "uint256",
              "name": "againstVotes",
              "type": "uint256"
            }
          ],
          "internalType": "struct GovernorCountingSimple.VoteCounts[]",
          "name": "proposalVoteCountsArrayReturn",
          "type": "tuple[]"
        }
      ],
      "stateMutability": "view",
      "type": "function"
    },
    {
      "inputs": [],
      "name": "cancel",
      "outputs": [],
      "stateMutability": "nonpayable",
      "type": "function"
    },
    {
      "inputs": [
        {
          "internalType": "uint256",
          "name": "proposalId",
          "type": "uint256"
        },
        {
          "internalType": "uint8",
          "name": "support",
          "type": "uint8"
        },
        {
          "internalType": "uint256",
          "name": "numVotes",
          "type": "uint256"
        }
      ],
      "name": "castVote",
      "outputs": [
        {
          "internalType": "uint256",
          "name": "",
          "type": "uint256"
        }
      ],
      "stateMutability": "nonpayable",
      "type": "function"
    },
    {
      "inputs": [
        {
          "internalType": "uint256",
          "name": "proposalId",
          "type": "uint256"
        },
        {
          "internalType": "uint8",
          "name": "support",
          "type": "uint8"
        },
        {
          "internalType": "uint256",
          "name": "numVotes",
          "type": "uint256"
        },
        {
          "internalType": "uint8",
          "name": "v",
          "type": "uint8"
        },
        {
          "internalType": "bytes32",
          "name": "r",
          "type": "bytes32"
        },
        {
          "internalType": "bytes32",
          "name": "s",
          "type": "bytes32"
        }
      ],
      "name": "castVoteBySig",
      "outputs": [
        {
          "internalType": "uint256",
          "name": "",
          "type": "uint256"
        }
      ],
      "stateMutability": "nonpayable",
      "type": "function"
    },
    {
      "inputs": [
        {
          "internalType": "uint256",
          "name": "proposalId",
          "type": "uint256"
        },
        {
          "internalType": "uint8",
          "name": "support",
          "type": "uint8"
        },
        {
          "internalType": "uint256",
          "name": "numVotes",
          "type": "uint256"
        },
        {
          "internalType": "string",
          "name": "reason",
          "type": "string"
        }
      ],
      "name": "castVoteWithReason",
      "outputs": [
        {
          "internalType": "uint256",
          "name": "",
          "type": "uint256"
        }
      ],
      "stateMutability": "nonpayable",
      "type": "function"
    },
    {
      "inputs": [
        {
          "internalType": "address",
          "name": "userAddress",
          "type": "address"
        }
      ],
      "name": "contestAddressTotalVotesCast",
      "outputs": [
        {
          "internalType": "uint256",
          "name": "totalVotesCast",
          "type": "uint256"
        }
      ],
      "stateMutability": "view",
      "type": "function"
    },
    {
      "inputs": [],
      "name": "contestDeadline",
      "outputs": [
        {
          "internalType": "uint256",
          "name": "",
          "type": "uint256"
        }
      ],
      "stateMutability": "view",
      "type": "function"
    },
    {
      "inputs": [],
      "name": "contestSnapshot",
      "outputs": [
        {
          "internalType": "uint256",
          "name": "",
          "type": "uint256"
        }
      ],
      "stateMutability": "view",
      "type": "function"
    },
    {
      "inputs": [],
      "name": "contestStart",
      "outputs": [
        {
          "internalType": "uint256",
          "name": "",
          "type": "uint256"
        }
      ],
      "stateMutability": "view",
      "type": "function"
    },
    {
      "inputs": [],
      "name": "creator",
      "outputs": [
        {
          "internalType": "address",
          "name": "",
          "type": "address"
        }
      ],
      "stateMutability": "view",
      "type": "function"
    },
    {
      "inputs": [
        {
          "internalType": "uint256[]",
          "name": "proposalIds",
          "type": "uint256[]"
        }
      ],
      "name": "deleteProposals",
      "outputs": [],
      "stateMutability": "nonpayable",
      "type": "function"
    },
    {
      "inputs": [],
      "name": "downvotingAllowed",
      "outputs": [
        {
          "internalType": "uint256",
          "name": "",
          "type": "uint256"
        }
      ],
      "stateMutability": "view",
      "type": "function"
    },
    {
      "inputs": [],
      "name": "getAllProposalIds",
      "outputs": [
        {
          "internalType": "uint256[]",
          "name": "",
          "type": "uint256[]"
        }
      ],
      "stateMutability": "view",
      "type": "function"
    },
    {
      "inputs": [
        {
          "internalType": "address",
          "name": "account",
          "type": "address"
        }
      ],
      "name": "getCurrentSubmissionTokenVotes",
      "outputs": [
        {
          "internalType": "uint256",
          "name": "",
          "type": "uint256"
        }
      ],
      "stateMutability": "view",
      "type": "function"
    },
    {
      "inputs": [
        {
          "internalType": "address",
          "name": "account",
          "type": "address"
        }
      ],
      "name": "getCurrentVotes",
      "outputs": [
        {
          "internalType": "uint256",
          "name": "",
          "type": "uint256"
        }
      ],
      "stateMutability": "view",
      "type": "function"
    },
    {
      "inputs": [
        {
          "internalType": "address",
          "name": "account",
          "type": "address"
        }
      ],
      "name": "getNumSubmissions",
      "outputs": [
        {
          "internalType": "uint256",
          "name": "",
          "type": "uint256"
        }
      ],
      "stateMutability": "view",
      "type": "function"
    },
    {
      "inputs": [
        {
          "internalType": "uint256",
          "name": "proposalId",
          "type": "uint256"
        }
      ],
      "name": "getProposal",
      "outputs": [
        {
          "components": [
            {
              "internalType": "address",
              "name": "author",
              "type": "address"
            },
            {
              "internalType": "string",
              "name": "description",
              "type": "string"
            },
            {
              "internalType": "bool",
              "name": "exists",
              "type": "bool"
            }
          ],
          "internalType": "struct Governor.ProposalCore",
          "name": "",
          "type": "tuple"
        }
      ],
      "stateMutability": "view",
      "type": "function"
    },
    {
      "inputs": [
        {
          "internalType": "address",
          "name": "account",
          "type": "address"
        },
        {
          "internalType": "uint256",
          "name": "timestamp",
          "type": "uint256"
        }
      ],
      "name": "getVotes",
      "outputs": [
        {
          "internalType": "uint256",
          "name": "",
          "type": "uint256"
        }
      ],
      "stateMutability": "view",
      "type": "function"
    },
    {
      "inputs": [
        {
          "internalType": "string",
          "name": "proposalDescription",
          "type": "string"
        }
      ],
      "name": "hashProposal",
      "outputs": [
        {
          "internalType": "uint256",
          "name": "",
          "type": "uint256"
        }
      ],
      "stateMutability": "pure",
      "type": "function"
    },
    {
      "inputs": [
        {
          "internalType": "uint256",
          "name": "proposalId",
          "type": "uint256"
        }
      ],
      "name": "isProposalDeleted",
      "outputs": [
        {
          "internalType": "uint256",
          "name": "",
          "type": "uint256"
        }
      ],
      "stateMutability": "view",
      "type": "function"
    },
    {
      "inputs": [],
      "name": "maxProposalCount",
      "outputs": [
        {
          "internalType": "uint256",
          "name": "",
          "type": "uint256"
        }
      ],
      "stateMutability": "view",
      "type": "function"
    },
    {
      "inputs": [],
      "name": "name",
      "outputs": [
        {
          "internalType": "string",
          "name": "",
          "type": "string"
        }
      ],
      "stateMutability": "view",
      "type": "function"
    },
    {
      "inputs": [],
      "name": "numAllowedProposalSubmissions",
      "outputs": [
        {
          "internalType": "uint256",
          "name": "",
          "type": "uint256"
        }
      ],
      "stateMutability": "view",
      "type": "function"
    },
    {
      "inputs": [],
      "name": "officialRewardsModule",
      "outputs": [
        {
          "internalType": "contract RewardsModule",
          "name": "",
          "type": "address"
        }
      ],
      "stateMutability": "view",
      "type": "function"
    },
    {
      "inputs": [],
      "name": "prompt",
      "outputs": [
        {
          "internalType": "string",
          "name": "",
          "type": "string"
        }
      ],
      "stateMutability": "view",
      "type": "function"
    },
    {
      "inputs": [
        {
          "internalType": "uint256",
          "name": "proposalId",
          "type": "uint256"
        },
        {
          "internalType": "address",
          "name": "userAddress",
          "type": "address"
        }
      ],
      "name": "proposalAddressVotes",
      "outputs": [
        {
          "internalType": "uint256",
          "name": "forVotes",
          "type": "uint256"
        },
        {
          "internalType": "uint256",
          "name": "againstVotes",
          "type": "uint256"
        }
      ],
      "stateMutability": "view",
      "type": "function"
    },
    {
      "inputs": [
        {
          "internalType": "uint256",
          "name": "proposalId",
          "type": "uint256"
        }
      ],
      "name": "proposalAddressesHaveVoted",
      "outputs": [
        {
          "internalType": "address[]",
          "name": "",
          "type": "address[]"
        }
      ],
      "stateMutability": "view",
      "type": "function"
    },
    {
      "inputs": [],
      "name": "proposalThreshold",
      "outputs": [
        {
          "internalType": "uint256",
          "name": "",
          "type": "uint256"
        }
      ],
      "stateMutability": "view",
      "type": "function"
    },
    {
      "inputs": [
        {
          "internalType": "uint256",
          "name": "proposalId",
          "type": "uint256"
        }
      ],
      "name": "proposalVotes",
      "outputs": [
        {
          "internalType": "uint256",
          "name": "forVotes",
          "type": "uint256"
        },
        {
          "internalType": "uint256",
          "name": "againstVotes",
          "type": "uint256"
        }
      ],
      "stateMutability": "view",
      "type": "function"
    },
    {
      "inputs": [
        {
          "internalType": "string",
          "name": "proposalDescription",
          "type": "string"
        }
      ],
      "name": "propose",
      "outputs": [
        {
          "internalType": "uint256",
          "name": "",
          "type": "uint256"
        }
      ],
      "stateMutability": "nonpayable",
      "type": "function"
    },
    {
      "inputs": [
        {
          "internalType": "contract RewardsModule",
          "name": "officialRewardsModule_",
          "type": "address"
        }
      ],
      "name": "setOfficialRewardsModule",
      "outputs": [],
      "stateMutability": "nonpayable",
      "type": "function"
    },
    {
      "inputs": [
        {
          "internalType": "bool",
          "name": "excludeDeletedProposals",
          "type": "bool"
        }
      ],
      "name": "sortedProposals",
      "outputs": [
        {
          "internalType": "uint256[]",
          "name": "sortedProposalIdsReturn",
          "type": "uint256[]"
        }
      ],
      "stateMutability": "view",
      "type": "function"
    },
    {
      "inputs": [],
      "name": "state",
      "outputs": [
        {
          "internalType": "enum IGovernor.ContestState",
          "name": "",
          "type": "uint8"
        }
      ],
      "stateMutability": "view",
      "type": "function"
    },
    {
      "inputs": [],
      "name": "submissionGatingByVotingToken",
      "outputs": [
        {
          "internalType": "uint256",
          "name": "",
          "type": "uint256"
        }
      ],
      "stateMutability": "view",
      "type": "function"
    },
    {
      "inputs": [],
      "name": "submissionToken",
      "outputs": [
        {
          "internalType": "contract IVotesTimestamp",
          "name": "",
          "type": "address"
        }
      ],
      "stateMutability": "view",
      "type": "function"
    },
    {
      "inputs": [
        {
          "internalType": "bytes4",
          "name": "interfaceId",
          "type": "bytes4"
        }
      ],
      "name": "supportsInterface",
      "outputs": [
        {
          "internalType": "bool",
          "name": "",
          "type": "bool"
        }
      ],
      "stateMutability": "view",
      "type": "function"
    },
    {
      "inputs": [],
      "name": "token",
      "outputs": [
        {
          "internalType": "contract IVotesTimestamp",
          "name": "",
          "type": "address"
        }
      ],
      "stateMutability": "view",
      "type": "function"
    },
    {
      "inputs": [],
      "name": "version",
      "outputs": [
        {
          "internalType": "string",
          "name": "",
          "type": "string"
        }
      ],
      "stateMutability": "view",
      "type": "function"
    },
    {
      "inputs": [],
      "name": "voteStart",
      "outputs": [
        {
          "internalType": "uint256",
          "name": "",
          "type": "uint256"
        }
      ],
      "stateMutability": "view",
      "type": "function"
    },
    {
      "inputs": [],
      "name": "votingDelay",
      "outputs": [
        {
          "internalType": "uint256",
          "name": "",
          "type": "uint256"
        }
      ],
      "stateMutability": "view",
      "type": "function"
    },
    {
      "inputs": [],
      "name": "votingPeriod",
      "outputs": [
        {
          "internalType": "uint256",
          "name": "",
          "type": "uint256"
        }
      ],
      "stateMutability": "view",
      "type": "function"
    },
    {
      "stateMutability": "payable",
      "type": "receive"
    }
  ],
  "bytecode": "0x6101806040523480156200001257600080fd5b5060405162003aa338038062003aa38339810160408190526200003591620007b6565b8282826000815181106200005957634e487b7160e01b600052603260045260246000fd5b6020026020010151836001815181106200008357634e487b7160e01b600052603260045260246000fd5b602002602001015184600281518110620000ad57634e487b7160e01b600052603260045260246000fd5b602002602001015185600381518110620000d757634e487b7160e01b600052603260045260246000fd5b6020026020010151866004815181106200010157634e487b7160e01b600052603260045260246000fd5b6020026020010151876005815181106200012b57634e487b7160e01b600052603260045260246000fd5b6020026020010151886006815181106200015557634e487b7160e01b600052603260045260246000fd5b6020026020010151896007815181106200017f57634e487b7160e01b600052603260045260246000fd5b60200260200101518a600881518110620001a957634e487b7160e01b600052603260045260246000fd5b60200260200101518f8f81620001c46200032e60201b60201c565b815160208084019190912082518383012060e08290526101008190524660a0818152604080517f8b73c3c69bb8fe3d512ecc4cf759cc79239f7b179b0ffacaa9a75d522b39400f81880181905281830187905260608201869052608082019490945230818401528151808203909301835260c00190528051940193909320919290916080523060601b60c05261012052505083516200026d925060029150602085019062000662565b5080516200028390600390602084019062000662565b50505062000297896200034b60201b60201c565b620002a2886200038c565b620002ad87620003cd565b620002b88662000473565b620002c385620004b4565b620002ce84620004f5565b620002d98362000536565b620002e48262000577565b620002ef81620005b8565b620002fa33620005f9565b5050506001600160601b0319606098891b8116610140529690971b90951661016052506200095f9950505050505050505050565b604080518082019091526003815262322e3760e81b602082015290565b60075460408051918252602082018390527fd299feb1d7d9345a48559601c471c3be7eea9a11f21d5e86809198f40a974db4910160405180910390a1600755565b60085460408051918252602082018390527fc565b045403dc03c2eea82b81a0465edad9e2e7fc4d97e11421c209da93d7a93910160405180910390a1600855565b60008111620004325760405162461bcd60e51b815260206004820152602760248201527f476f7665726e6f7253657474696e67733a20766f74696e6720706572696f6420604482015266746f6f206c6f7760c81b606482015260840160405180910390fd5b60095460408051918252602082018390527f7e3f7f0708a84de9203036abaa450dccc85ad5ff52f78c170f3edb55cf5e8828910160405180910390a1600955565b600a5460408051918252602082018390527f70d92b9b65fcaa7708049081fd0ad601c9af76bd86d38df0337dfce3d025ec83910160405180910390a1600a55565b600b5460408051918252602082018390527fccb45da8d5717e6c4544694297c4ba5cf151d455c9bb0ed4fc7a38411bc05461910160405180910390a1600b55565b600c5460408051918252602082018390527fe971b819c7fb95c72451f557226aceb5baaf4994a9d39a79bbfa0040e87500b9910160405180910390a1600c55565b600d5460408051918252602082018390527f4984ec996723330ee95979ed65a2a4b41edd914e68a187efe92596474643bdff910160405180910390a1600d55565b600e5460408051918252602082018390527f9c7b27f091caef3a83be73d89320404fa0c4a52993685ff0651672e49e6e55ab910160405180910390a1600e55565b600f5460408051918252602082018390527f5f16486d27561553b443370316cba86e966b1e5ec1691fa07c81944abf314441910160405180910390a1600f55565b601054604080516001600160a01b03928316815291831660208301527fc30034fc2e9697980e08935bbc287db3eaa44a4aa113ef4c108b356adbf911ce910160405180910390a1601080546001600160a01b0319166001600160a01b0392909216919091179055565b82805462000670906200090c565b90600052602060002090601f016020900481019282620006945760008555620006df565b82601f10620006af57805160ff1916838001178555620006df565b82800160010185558215620006df579182015b82811115620006df578251825591602001919060010190620006c2565b50620006ed929150620006f1565b5090565b5b80821115620006ed5760008155600101620006f2565b80516001600160a01b03811681146200072057600080fd5b919050565b600082601f83011262000736578081fd5b81516001600160401b0381111562000752576200075262000949565b602062000768601f8301601f19168201620008d9565b82815285828487010111156200077c578384fd5b835b838110156200079b5785810183015182820184015282016200077e565b83811115620007ac57848385840101525b5095945050505050565b600080600080600060a08688031215620007ce578081fd5b85516001600160401b0380821115620007e5578283fd5b620007f389838a0162000725565b96506020915081880151818111156200080a578384fd5b620008188a828b0162000725565b965050620008296040890162000708565b9450620008396060890162000708565b93506080880151818111156200084d578384fd5b8801601f81018a136200085e578384fd5b80518281111562000873576200087362000949565b8060051b925062000886848401620008d9565b8181528481019083860185850187018e1015620008a1578788fd5b8795505b83861015620008c5578051835260019590950194918601918601620008a5565b508096505050505050509295509295909350565b604051601f8201601f191681016001600160401b038111828210171562000904576200090462000949565b604052919050565b600181811c908216806200092157607f821691505b602082108114156200094357634e487b7160e01b600052602260045260246000fd5b50919050565b634e487b7160e01b600052604160045260246000fd5b60805160a05160c05160601c60e05161010051610120516101405160601c6101605160601c6130c0620009e3600039600081816103ea015261204b01526000818161088d015281816120ea01526121ba01526000612574015260006125c30152600061259e015260006124f7015260006125210152600061254b01526130c06000f3fe60806040526004361061026a5760003560e01c80639c02817611610144578063dd4e2ba5116100b6578063efa90d361161007a578063efa90d36146107fc578063f0a7db0a14610811578063f36310b114610831578063f4f3d7ec14610846578063fb9bf8d414610866578063fc0c546a1461087b57600080fd5b8063dd4e2ba514610738578063deaaa7cc1461077e578063e031535b146107b2578063ea8a1af0146107c7578063eb9019d4146107dc57600080fd5b8063b58131b011610108578063b58131b01461067f578063bd65e80a14610694578063c19d93fb146106b4578063c7f758a8146106d6578063d17ad2d414610703578063d45a010b1461072357600080fd5b80639c028176146105bc578063aa98df39146105dc578063aec116b6146105fc578063b323580d14610632578063b4b5ea571461065f57600080fd5b8063462a2ad8116101dd5780635f953a03116101a15780635f953a03146104da57806360506ff6146105105780636e4eb81014610525578063785ddfe5146105745780637c65d71114610592578063832009af146105a757600080fd5b8063462a2ad81461040c57806350a5e5241461042c578063540a91901461044f578063544ffc9c1461046457806354fd4d50146104ae57600080fd5b80631566f60d1161022f5780631566f60d14610334578063262e59e9146103545780633932abb1146103695780633b6d199b1461037e578063427d56c2146103ab5780634367aa40146103d857600080fd5b80624114a81461027857806301ffc9a7146102a057806302a251a3146102d057806302d05d3f146102e557806306fdde031461031257600080fd5b3661027357005b005b600080fd5b34801561028457600080fd5b5061028d6108af565b6040519081526020015b60405180910390f35b3480156102ac57600080fd5b506102c06102bb366004612ac0565b6108bf565b6040519015158152602001610297565b3480156102dc57600080fd5b5061028d6108f6565b3480156102f157600080fd5b506102fa610901565b6040516001600160a01b039091168152602001610297565b34801561031e57600080fd5b50610327610915565b6040516102979190612e5b565b34801561034057600080fd5b5061028d61034f366004612c08565b6109a7565b34801561036057600080fd5b5061028d6109fb565b34801561037557600080fd5b5061028d610a17565b34801561038a57600080fd5b5061028d610399366004612b75565b60009081526001602052604090205490565b3480156103b757600080fd5b506103cb6103c6366004612aa0565b610a22565b6040516102979190612dc0565b3480156103e457600080fd5b506102fa7f000000000000000000000000000000000000000000000000000000000000000081565b34801561041857600080fd5b5061028d6104273660046129b1565b610b87565b34801561043857600080fd5b50610441610b92565b604051610297929190612dd3565b34801561045b57600080fd5b50600a5461028d565b34801561047057600080fd5b5061049961047f366004612b75565b600090815260126020526040902080546001909101549091565b60408051928352602083019190915201610297565b3480156104ba57600080fd5b50604080518082019091526003815262322e3760e81b6020820152610327565b3480156104e657600080fd5b5061028d6104f53660046129b1565b6001600160a01b031660009081526006602052604090205490565b34801561051c57600080fd5b5061028d610cc3565b34801561053157600080fd5b50610499610540366004612ba5565b60008281526012602090815260408083206001600160a01b0385168452600301909152902080546001909101549250929050565b34801561058057600080fd5b506013546001600160a01b03166102fa565b34801561059e57600080fd5b50610327610cce565b3480156105b357600080fd5b5061028d610cdd565b3480156105c857600080fd5b5061028d6105d7366004612bd4565b610ce8565b3480156105e857600080fd5b5061028d6105f7366004612ae8565b610d15565b34801561060857600080fd5b5061028d6106173660046129b1565b6001600160a01b031660009081526011602052604090205490565b34801561063e57600080fd5b5061065261064d366004612b75565b6112a2565b6040516102979190612d73565b34801561066b57600080fd5b5061028d61067a3660046129b1565b611314565b34801561068b57600080fd5b5061028d61131f565b3480156106a057600080fd5b5061028d6106af366004612ae8565b61132a565b3480156106c057600080fd5b506106c961135b565b6040516102979190612e33565b3480156106e257600080fd5b506106f66106f1366004612b75565b6113af565b6040516102979190612e6e565b34801561070f57600080fd5b5061028d61071e366004612c97565b6114b3565b34801561072f57600080fd5b50610441611549565b34801561074457600080fd5b5060408051808201909152601881527f737570706f72743d627261766f2671756f72756d3d666f7200000000000000006020820152610327565b34801561078a57600080fd5b5061028d7f150214d74d59b7d1e90c73fc22ef3d991dd0a76b046543d4d80ab92d2a50328f81565b3480156107be57600080fd5b5061028d611778565b3480156107d357600080fd5b5061027161178a565b3480156107e857600080fd5b5061028d6107f73660046129cd565b611890565b34801561080857600080fd5b506103cb61189c565b34801561081d57600080fd5b5061027161082c3660046129f8565b6118f3565b34801561083d57600080fd5b5061028d611b75565b34801561085257600080fd5b506102716108613660046129b1565b611b80565b34801561087257600080fd5b5061028d611c1b565b34801561088757600080fd5b506102fa7f000000000000000000000000000000000000000000000000000000000000000081565b60006108ba60075490565b905090565b60006001600160e01b031982166333d3a7df60e21b14806108f057506301ffc9a760e01b6001600160e01b03198316145b92915050565b60006108ba60095490565b60006108ba6010546001600160a01b031690565b60606002805461092490612fb6565b80601f016020809104026020016040519081016040528092919081815260200182805461095090612fb6565b801561099d5780601f106109725761010080835404028352916020019161099d565b820191906000526020600020905b81548152906001019060200180831161098057829003601f168201915b5050505050905090565b6000803390506109f08782888888888080601f016020809104026020016040519081016040528093929190818152602001838380828437600092019190915250611c2692505050565b979650505050505050565b6000610a056108f6565b610a0d611778565b6108ba9190612f48565b60006108ba60085490565b606060008083610a3957610a34610b92565b610a41565b610a41611549565b915091506000825167ffffffffffffffff811115610a6f57634e487b7160e01b600052604160045260246000fd5b604051908082528060200260200182016040528015610a98578160200160208202803683370190505b50905060005b8251811015610b4657828181518110610ac757634e487b7160e01b600052603260045260246000fd5b602002602001015160200151838281518110610af357634e487b7160e01b600052603260045260246000fd5b602002602001015160000151610b099190612f60565b828281518110610b2957634e487b7160e01b600052603260045260246000fd5b602090810291909101015280610b3e81612ff1565b915050610a9e565b5060005b60018451610b589190612f9f565b811015610b7d57610b6a818386611e36565b5080610b7581612ff1565b915050610b4a565b5091949350505050565b60006108f082612029565b6060806000610b9f61189c565b90506000815167ffffffffffffffff811115610bcb57634e487b7160e01b600052604160045260246000fd5b604051908082528060200260200182016040528015610c1057816020015b6040805180820190915260008082526020820152815260200190600190039081610be95790505b50905060005b8251811015610cb95760126000848381518110610c4357634e487b7160e01b600052603260045260246000fd5b6020026020010151815260200190815260200160002060000160405180604001604052908160008201548152602001600182015481525050828281518110610c9b57634e487b7160e01b600052603260045260246000fd5b60200260200101819052508080610cb190612ff1565b915050610c16565b5090939092509050565b60006108ba600e5490565b60606003805461092490612fb6565b60006108ba600c5490565b600080339050610d0a8582868660405180602001604052806000815250611c26565b9150505b9392505050565b60006002610d2161135b565b6003811115610d4057634e487b7160e01b600052602160045260246000fd5b14610db85760405162461bcd60e51b815260206004820152603e60248201527f476f7665726e6f723a20636f6e74657374206d7573742062652071756575656460448201527f20666f722070726f706f73616c7320746f206265207375626d6974746564000060648201526084015b60405180910390fd5b610dc0610cdd565b3360009081526006602052604090205410610e695760405162461bcd60e51b815260206004820152605d60248201527f476f7665726e6f723a207468652073616d652063616e6e6f74207375626d697460448201527f206d6f7265207468616e20746865206e756d416c6c6f77656450726f706f736160648201527f6c5375626d697373696f6e7320666f72207468697320636f6e74657374000000608482015260a401610daf565b610e71611c1b565b60005410610ee75760405162461bcd60e51b815260206004820152603960248201527f476f7665726e6f723a20746865206d6178206e756d626572206f662070726f7060448201527f6f73616c732068617665206265656e207375626d6974746564000000000000006064820152608401610daf565b610eef611b75565b60011415610f8d57610eff61131f565b610f0833611314565b1015610f885760405162461bcd60e51b815260206004820152604360248201527f476f7665726e6f72436f6d7061746962696c697479427261766f3a2070726f7060448201527f6f73657220766f7465732062656c6f772070726f706f73616c207468726573686064820152621bdb1960ea1b608482015260a401610daf565b6110c4565b610f95611b75565b61104457610fa161131f565b610faa33610b87565b1015610f885760405162461bcd60e51b815260206004820152605b60248201527f476f7665726e6f72436f6d7061746962696c697479427261766f3a2070726f7060448201527f6f736572207375626d697373696f6e20676174696e6720746f6b656e20766f7460648201527f65732062656c6f772070726f706f73616c207468726573686f6c640000000000608482015260a401610daf565b60405162461bcd60e51b815260206004820152604960248201527f7375626d697373696f6e476174696e674279566f74696e67546f6b656e206d7560448201527f73742062652073657420746f20656974686572207472756520283129206f722060648201526866616c73652028302960b81b608482015260a401610daf565b81516111125760405162461bcd60e51b815260206004820152601860248201527f476f7665726e6f723a20656d7074792070726f706f73616c00000000000000006044820152606401610daf565b600061111d8361132a565b60008181526005602052604090206002015490915060ff16156111945760405162461bcd60e51b815260206004820152602960248201527f476f7665726e6f723a206475706c69636174652070726f706f73616c73206e6f6044820152681d08185b1b1bddd95960ba1b6064820152608401610daf565b60008054600180820183557f290decd9548b62a8d60345a988386fc84ba6bc95484008f6362f93160ef3e5639091018390556040805160608101825233815260208082018881528284018590528686526005825292909420815181546001600160a01b0319166001600160a01b0390911617815591518051919492936112209390850192910190612902565b50604091820151600291909101805460ff1916911515919091179055336000908152600660205290812080546001929061125b908490612f48565b909155507fc8c078bfee58e5822588f08b4509ed1eb5058e03f666cca84dd2d44bf5c288a8905081843360405161129493929190612eb4565b60405180910390a192915050565b600081815260126020908152604091829020600281018054845181850281018501909552808552606094929383018282801561130757602002820191906000526020600020905b81546001600160a01b031681526001909101906020018083116112e9575b5050505050915050919050565b60006108f0826120c8565b60006108ba600b5490565b60008160405160200161133d9190612e5b565b60408051601f19818403018152919052805160209091012092915050565b60045460009060ff161561136f5750600190565b6000611379611778565b905042811061138a57600291505090565b60006113946109fb565b90504281106113a65760009250505090565b60039250505090565b6113de604051806060016040528060006001600160a01b03168152602001606081526020016000151581525090565b60008281526005602090815260409182902082516060810190935280546001600160a01b03168352600181018054919284019161141a90612fb6565b80601f016020809104026020016040519081016040528092919081815260200182805461144690612fb6565b80156114935780601f1061146857610100808354040283529160200191611493565b820191906000526020600020905b81548152906001019060200180831161147657829003601f168201915b50505091835250506002919091015460ff16151560209091015292915050565b604080517f150214d74d59b7d1e90c73fc22ef3d991dd0a76b046543d4d80ab92d2a50328f602082015290810187905260ff86166060820152600090819061151f90611517906080016040516020818303038152906040528051906020012061211b565b868686612169565b905061153d8882898960405180602001604052806000815250611c26565b98975050505050505050565b606080600061155661189c565b90506000815167ffffffffffffffff81111561158257634e487b7160e01b600052604160045260246000fd5b6040519080825280602002602001820160405280156115ab578160200160208202803683370190505b5090506000825167ffffffffffffffff8111156115d857634e487b7160e01b600052604160045260246000fd5b60405190808252806020026020018201604052801561161d57816020015b60408051808201909152600080825260208201528152602001906001900390816115f65790505b5090506000805b845181101561176c5761166a85828151811061165057634e487b7160e01b600052603260045260246000fd5b602002602001015160009081526001602052604090205490565b60011461175a5784818151811061169157634e487b7160e01b600052603260045260246000fd5b60200260200101518483815181106116b957634e487b7160e01b600052603260045260246000fd5b602002602001018181525050601260008683815181106116e957634e487b7160e01b600052603260045260246000fd5b602002602001015181526020019081526020016000206000016040518060400160405290816000820154815260200160018201548152505083838151811061174157634e487b7160e01b600052603260045260246000fd5b6020908102919091010152611757600183612f48565b91505b8061176481612ff1565b915050611624565b50919590945092505050565b6000611782610a17565b610a0d6108af565b611792610901565b6001600160a01b0316336001600160a01b0316146117af57600080fd5b60006117b961135b565b905060018160038111156117dd57634e487b7160e01b600052602160045260246000fd5b1415801561180b5750600381600381111561180857634e487b7160e01b600052602160045260246000fd5b14155b6118575760405162461bcd60e51b815260206004820152601c60248201527f476f7665726e6f723a20636f6e74657374206e6f7420616374697665000000006044820152606401610daf565b6004805460ff191660011790556040517f4cd963a081760a54f571abc0f1db4dde31b4a07d8d6da3e844b8c6f47eeaaa4290600090a150565b6000610d0e8383612191565b6060600080548060200260200160405190810160405280929190818152602001828054801561099d57602002820191906000526020600020905b8154815260200190600101908083116118d6575050505050905090565b6118fb610901565b6001600160a01b0316336001600160a01b0316146119815760405162461bcd60e51b815260206004820152603760248201527f476f7665726e6f723a206f6e6c792074686520636f6e7465737420637265617460448201527f6f722063616e2064656c6574652070726f706f73616c730000000000000000006064820152608401610daf565b600361198b61135b565b60038111156119aa57634e487b7160e01b600052602160045260246000fd5b1415611a305760405162461bcd60e51b815260206004820152604960248201527f476f7665726e6f723a2064656c6574696f6e206f662070726f706f73616c732060448201527f61667465722074686520656e64206f66206120636f6e74657374206973206e6f6064820152681d08185b1b1bddd95960ba1b608482015260a401610daf565b60005b8151811015611b3a5760016000838381518110611a6057634e487b7160e01b600052603260045260246000fd5b6020026020010151815260200190815260200160002054600114611b28576001806000848481518110611aa357634e487b7160e01b600052603260045260246000fd5b60200260200101518152602001908152602001600020819055506040518060600160405280603d815260200161304e603d913960056000848481518110611afa57634e487b7160e01b600052603260045260246000fd5b602002602001015181526020019081526020016000206001019080519060200190611b26929190612902565b505b80611b3281612ff1565b915050611a33565b507f75a75cf5c561892f4cc5b26c1b8e933849b42238c96dd073d080d1ae96c5141681604051611b6a9190612dc0565b60405180910390a150565b60006108ba600f5490565b611b88610901565b6001600160a01b0316336001600160a01b031614611ba557600080fd5b6000611bb96013546001600160a01b031690565b601380546001600160a01b0319166001600160a01b0385811691821790925560408051928416835260208301919091529192507f753a2cf8d360cff631674504210913e48247f8e56b3e6d2006c2103d4095999f910160405180910390a15050565b60006108ba600d5490565b600080611c3161135b565b6003811115611c5057634e487b7160e01b600052602160045260246000fd5b14611ca95760405162461bcd60e51b815260206004820152602360248201527f476f7665726e6f723a20766f7465206e6f742063757272656e746c792061637460448201526269766560e81b6064820152608401610daf565b60008311611d1f5760405162461bcd60e51b815260206004820152603760248201527f476f7665726e6f72566f74696e6753696d706c653a2063616e6e6f7420766f7460448201527f6520776974682030206f7220666577657220766f7465730000000000000000006064820152608401610daf565b6000611d2e866107f7600a5490565b905060008111611dd85760405162461bcd60e51b815260206004820152606360248201527f476f7665726e6f72566f74696e6753696d706c653a20796f75206d757374206860448201527f6176652067726561746572207468616e20302064656c65676174656420766f7460648201527f65732061742074686520736e617073686f7420696e206f7264657220746f20766084820152626f746560e81b60a482015260c401610daf565b611de58787878785612236565b856001600160a01b03167fb8e138887d0aa13bab447e82de9d5c1777041ecd21ca36ba824ff1e6c07ddda488878787604051611e249493929190612ee5565b60405180910390a29695505050505050565b600083805b8451811015611eb057848281518110611e6457634e487b7160e01b600052603260045260246000fd5b6020026020010151858281518110611e8c57634e487b7160e01b600052603260045260246000fd5b60200260200101511215611e9e578091505b80611ea881612ff1565b915050611e3b565b5084811415611ec3576000915050610d0e565b6000848681518110611ee557634e487b7160e01b600052603260045260246000fd5b60200260200101519050848281518110611f0f57634e487b7160e01b600052603260045260246000fd5b6020026020010151858781518110611f3757634e487b7160e01b600052603260045260246000fd5b60200260200101818152505080858381518110611f6457634e487b7160e01b600052603260045260246000fd5b6020026020010181815250506000848781518110611f9257634e487b7160e01b600052603260045260246000fd5b60200260200101519050848381518110611fbc57634e487b7160e01b600052603260045260246000fd5b6020026020010151858881518110611fe457634e487b7160e01b600052603260045260246000fd5b6020026020010181815250508085848151811061201157634e487b7160e01b600052603260045260246000fd5b60209081029190910101525060019695505050505050565b6040516309ab24eb60e41b81526001600160a01b0382811660048301526000917f000000000000000000000000000000000000000000000000000000000000000090911690639ab24eb0906024015b60206040518083038186803b15801561209057600080fd5b505afa1580156120a4573d6000803e3d6000fd5b505050506040513d601f19601f820116820180604052508101906108f09190612b8d565b6040516309ab24eb60e41b81526001600160a01b0382811660048301526000917f000000000000000000000000000000000000000000000000000000000000000090911690639ab24eb090602401612078565b60006108f06121286124ea565b8360405161190160f01b6020820152602281018390526042810182905260009060620160405160208183030381529060405280519060200120905092915050565b600080600061217a87878787612611565b91509150612187816126fe565b5095945050505050565b604051630748d63560e31b81526001600160a01b038381166004830152602482018390526000917f000000000000000000000000000000000000000000000000000000000000000090911690633a46b1a89060440160206040518083038186803b1580156121fe57600080fd5b505afa158015612212573d6000803e3d6000fd5b505050506040513d601f19601f82011682018060405250810190610d0e9190612b8d565b60008581526012602090815260408083206001600160a01b03881684526011909252909120546122669083612f9f565b8311156122d15760405162461bcd60e51b815260206004820152603360248201527f476f7665726e6f72566f74696e6753696d706c653a206e6f7420656e6f756768604482015272081d9bdd195cc81b19599d081d1bc818d85cdd606a1b6064820152608401610daf565b6001600160a01b03851660009081526003820160205260409020541560ff851661234357815484908390600090612309908490612f48565b90915550506001600160a01b038616600090815260038301602052604081208054869290612338908490612f48565b9091555061247d9050565b60ff85166001141561241757612357610cc3565b6001146123ce576040805162461bcd60e51b81526020600482015260248101919091527f476f7665726e6f72566f74696e6753696d706c653a20646f776e766f74696e6760448201527f206973206e6f7420656e61626c656420666f72207468697320436f6e746573746064820152608401610daf565b838260000160010160008282546123e59190612f48565b90915550506001600160a01b038616600090815260038301602052604081206001018054869290612338908490612f48565b60405162461bcd60e51b815260206004820152603560248201527f476f7665726e6f72566f74696e6753696d706c653a20696e76616c69642076616044820152746c756520666f7220656e756d20566f74655479706560581b6064820152608401610daf565b80156124b457600282018054600181018255600091825260209091200180546001600160a01b0319166001600160a01b0388161790555b6001600160a01b038616600090815260116020526040812080548692906124dc908490612f48565b909155505050505050505050565b6000306001600160a01b037f00000000000000000000000000000000000000000000000000000000000000001614801561254357507f000000000000000000000000000000000000000000000000000000000000000046145b1561256d57507f000000000000000000000000000000000000000000000000000000000000000090565b50604080517f00000000000000000000000000000000000000000000000000000000000000006020808301919091527f0000000000000000000000000000000000000000000000000000000000000000828401527f000000000000000000000000000000000000000000000000000000000000000060608301524660808301523060a0808401919091528351808403909101815260c0909201909252805191012090565b6000807f7fffffffffffffffffffffffffffffff5d576e7357a4501ddfe92f46681b20a083111561264857506000905060036126f5565b8460ff16601b1415801561266057508460ff16601c14155b1561267157506000905060046126f5565b6040805160008082526020820180845289905260ff881692820192909252606081018690526080810185905260019060a0016020604051602081039080840390855afa1580156126c5573d6000803e3d6000fd5b5050604051601f1901519150506001600160a01b0381166126ee576000600192509250506126f5565b9150600090505b94509492505050565b600081600481111561272057634e487b7160e01b600052602160045260246000fd5b14156127295750565b600181600481111561274b57634e487b7160e01b600052602160045260246000fd5b14156127995760405162461bcd60e51b815260206004820152601860248201527f45434453413a20696e76616c6964207369676e617475726500000000000000006044820152606401610daf565b60028160048111156127bb57634e487b7160e01b600052602160045260246000fd5b14156128095760405162461bcd60e51b815260206004820152601f60248201527f45434453413a20696e76616c6964207369676e6174757265206c656e677468006044820152606401610daf565b600381600481111561282b57634e487b7160e01b600052602160045260246000fd5b14156128845760405162461bcd60e51b815260206004820152602260248201527f45434453413a20696e76616c6964207369676e6174757265202773272076616c604482015261756560f01b6064820152608401610daf565b60048160048111156128a657634e487b7160e01b600052602160045260246000fd5b14156128ff5760405162461bcd60e51b815260206004820152602260248201527f45434453413a20696e76616c6964207369676e6174757265202776272076616c604482015261756560f01b6064820152608401610daf565b50565b82805461290e90612fb6565b90600052602060002090601f0160209004810192826129305760008555612976565b82601f1061294957805160ff1916838001178555612976565b82800160010185558215612976579182015b8281111561297657825182559160200191906001019061295b565b50612982929150612986565b5090565b5b808211156129825760008155600101612987565b803560ff811681146129ac57600080fd5b919050565b6000602082840312156129c2578081fd5b8135610d0e81613038565b600080604083850312156129df578081fd5b82356129ea81613038565b946020939093013593505050565b60006020808385031215612a0a578182fd5b823567ffffffffffffffff80821115612a21578384fd5b818501915085601f830112612a34578384fd5b813581811115612a4657612a46613022565b8060051b9150612a57848301612f17565b8181528481019084860184860187018a1015612a71578788fd5b8795505b83861015612a93578035835260019590950194918601918601612a75565b5098975050505050505050565b600060208284031215612ab1578081fd5b81358015158114610d0e578182fd5b600060208284031215612ad1578081fd5b81356001600160e01b031981168114610d0e578182fd5b60006020808385031215612afa578182fd5b823567ffffffffffffffff80821115612b11578384fd5b818501915085601f830112612b24578384fd5b813581811115612b3657612b36613022565b612b48601f8201601f19168501612f17565b91508082528684828501011115612b5d578485fd5b80848401858401378101909201929092529392505050565b600060208284031215612b86578081fd5b5035919050565b600060208284031215612b9e578081fd5b5051919050565b60008060408385031215612bb7578182fd5b823591506020830135612bc981613038565b809150509250929050565b600080600060608486031215612be8578081fd5b83359250612bf86020850161299b565b9150604084013590509250925092565b600080600080600060808688031215612c1f578081fd5b85359450612c2f6020870161299b565b935060408601359250606086013567ffffffffffffffff80821115612c52578283fd5b818801915088601f830112612c65578283fd5b813581811115612c73578384fd5b896020828501011115612c84578384fd5b9699959850939650602001949392505050565b60008060008060008060c08789031215612caf578384fd5b86359550612cbf6020880161299b565b945060408701359350612cd46060880161299b565b92506080870135915060a087013590509295509295509295565b6000815180845260208085019450808401835b83811015612d1d57815187529582019590820190600101612d01565b509495945050505050565b60008151808452815b81811015612d4d57602081850181015186830182015201612d31565b81811115612d5e5782602083870101525b50601f01601f19169290920160200192915050565b6020808252825182820181905260009190848201906040850190845b81811015612db45783516001600160a01b031683529284019291840191600101612d8f565b50909695505050505050565b602081526000610d0e6020830184612cee565b60006040808352612de681840186612cee565b838103602085810191909152855180835286820192820190855b81811015612e2557845180518452840151848401529383019391850191600101612e00565b509098975050505050505050565b6020810160048310612e5557634e487b7160e01b600052602160045260246000fd5b91905290565b602081526000610d0e6020830184612d28565b602080825282516001600160a01b03168282015282015160606040830152600090612e9c6080840182612d28565b90506040840151151560608401528091505092915050565b838152606060208201526000612ecd6060830185612d28565b905060018060a01b0383166040830152949350505050565b84815260ff84166020820152826040820152608060608201526000612f0d6080830184612d28565b9695505050505050565b604051601f8201601f1916810167ffffffffffffffff81118282101715612f4057612f40613022565b604052919050565b60008219821115612f5b57612f5b61300c565b500190565b60008083128015600160ff1b850184121615612f7e57612f7e61300c565b6001600160ff1b0384018313811615612f9957612f9961300c565b50500390565b600082821015612fb157612fb161300c565b500390565b600181811c90821680612fca57607f821691505b60208210811415612feb57634e487b7160e01b600052602260045260246000fd5b50919050565b60006000198214156130055761300561300c565b5060010190565b634e487b7160e01b600052601160045260246000fd5b634e487b7160e01b600052604160045260246000fd5b6001600160a01b03811681146128ff57600080fdfe546869732070726f706f73616c20686173206265656e2064656c65746564206279207468652063726561746f72206f662074686520636f6e746573742ea26469706673582212204d91a4109ee3ba5e4e1f30c13728a03395f1f05961dd5bab61c5d643911d5be864736f6c63430008040033",
  "linkReferences": {},
  "deployedLinkReferences": {}
}