{
  "_format": "hh-sol-artifact-1",
  "contractName": "RewardsModule",
  "sourceName": "contracts/modules/RewardsModule.sol",
  "abi": [
    {
      "inputs": [
        {
          "internalType": "uint256[]",
          "name": "payees",
          "type": "uint256[]"
        },
        {
          "internalType": "uint256[]",
          "name": "shares_",
          "type": "uint256[]"
        },
        {
          "internalType": "contract GovernorCountingSimple",
          "name": "underlyingContest_",
          "type": "address"
        }
      ],
      "stateMutability": "payable",
      "type": "constructor"
    },
    {
      "anonymous": false,
      "inputs": [
        {
          "indexed": true,
          "internalType": "contract IERC20",
          "name": "token",
          "type": "address"
        },
        {
          "indexed": false,
          "internalType": "address",
          "name": "to",
          "type": "address"
        },
        {
          "indexed": false,
          "internalType": "uint256",
          "name": "amount",
          "type": "uint256"
        }
      ],
      "name": "ERC20PaymentReleased",
      "type": "event"
    },
    {
      "anonymous": false,
      "inputs": [
        {
          "indexed": true,
          "internalType": "contract IERC20",
          "name": "token",
          "type": "address"
        },
        {
          "indexed": false,
          "internalType": "address",
          "name": "by",
          "type": "address"
        },
        {
          "indexed": false,
          "internalType": "uint256",
          "name": "amount",
          "type": "uint256"
        }
      ],
      "name": "ERC20RewardWithdrawn",
      "type": "event"
    },
    {
      "anonymous": false,
      "inputs": [
        {
          "indexed": false,
          "internalType": "uint256",
          "name": "ranking",
          "type": "uint256"
        },
        {
          "indexed": false,
          "internalType": "uint256",
          "name": "shares",
          "type": "uint256"
        }
      ],
      "name": "PayeeAdded",
      "type": "event"
    },
    {
      "anonymous": false,
      "inputs": [
        {
          "indexed": false,
          "internalType": "address",
          "name": "from",
          "type": "address"
        },
        {
          "indexed": false,
          "internalType": "uint256",
          "name": "amount",
          "type": "uint256"
        }
      ],
      "name": "PaymentReceived",
      "type": "event"
    },
    {
      "anonymous": false,
      "inputs": [
        {
          "indexed": false,
          "internalType": "address",
          "name": "to",
          "type": "address"
        },
        {
          "indexed": false,
          "internalType": "uint256",
          "name": "amount",
          "type": "uint256"
        }
      ],
      "name": "PaymentReleased",
      "type": "event"
    },
    {
      "anonymous": false,
      "inputs": [
        {
          "indexed": false,
          "internalType": "address",
          "name": "by",
          "type": "address"
        },
        {
          "indexed": false,
          "internalType": "uint256",
          "name": "amount",
          "type": "uint256"
        }
      ],
      "name": "RewardWithdrawn",
      "type": "event"
    },
    {
      "inputs": [],
      "name": "atLeastOnePayeeTied",
      "outputs": [
        {
          "internalType": "bool",
          "name": "",
          "type": "bool"
        }
      ],
      "stateMutability": "view",
      "type": "function"
    },
    {
      "inputs": [],
      "name": "creator",
      "outputs": [
        {
          "internalType": "address",
          "name": "",
          "type": "address"
        }
      ],
      "stateMutability": "view",
      "type": "function"
    },
    {
      "inputs": [],
      "name": "getPayees",
      "outputs": [
        {
          "internalType": "uint256[]",
          "name": "",
          "type": "uint256[]"
        }
      ],
      "stateMutability": "view",
      "type": "function"
    },
    {
      "inputs": [
        {
          "internalType": "uint256",
          "name": "ranking",
          "type": "uint256"
        }
      ],
      "name": "isTied",
      "outputs": [
        {
          "internalType": "bool",
          "name": "",
          "type": "bool"
        }
      ],
      "stateMutability": "view",
      "type": "function"
    },
    {
      "inputs": [],
      "name": "maxRanking",
      "outputs": [
        {
          "internalType": "uint256",
          "name": "",
          "type": "uint256"
        }
      ],
      "stateMutability": "view",
      "type": "function"
    },
    {
      "inputs": [],
      "name": "rankingPositionsAndSortedProposals",
      "outputs": [
        {
          "internalType": "uint256[]",
          "name": "",
          "type": "uint256[]"
        },
        {
          "internalType": "uint256[]",
          "name": "",
          "type": "uint256[]"
        }
      ],
      "stateMutability": "view",
      "type": "function"
    },
    {
      "inputs": [
        {
          "internalType": "contract IERC20",
          "name": "token",
          "type": "address"
        },
        {
          "internalType": "uint256",
          "name": "ranking",
          "type": "uint256"
        }
      ],
      "name": "releasable",
      "outputs": [
        {
          "internalType": "uint256",
          "name": "",
          "type": "uint256"
        }
      ],
      "stateMutability": "view",
      "type": "function"
    },
    {
      "inputs": [
        {
          "internalType": "uint256",
          "name": "ranking",
          "type": "uint256"
        }
      ],
      "name": "releasable",
      "outputs": [
        {
          "internalType": "uint256",
          "name": "",
          "type": "uint256"
        }
      ],
      "stateMutability": "view",
      "type": "function"
    },
    {
      "inputs": [
        {
          "internalType": "contract IERC20",
          "name": "token",
          "type": "address"
        },
        {
          "internalType": "uint256",
          "name": "ranking",
          "type": "uint256"
        }
      ],
      "name": "release",
      "outputs": [],
      "stateMutability": "nonpayable",
      "type": "function"
    },
    {
      "inputs": [
        {
          "internalType": "uint256",
          "name": "ranking",
          "type": "uint256"
        }
      ],
      "name": "release",
      "outputs": [],
      "stateMutability": "nonpayable",
      "type": "function"
    },
    {
      "inputs": [
        {
          "internalType": "uint256",
          "name": "ranking",
          "type": "uint256"
        }
      ],
      "name": "released",
      "outputs": [
        {
          "internalType": "uint256",
          "name": "",
          "type": "uint256"
        }
      ],
      "stateMutability": "view",
      "type": "function"
    },
    {
      "inputs": [
        {
          "internalType": "contract IERC20",
          "name": "token",
          "type": "address"
        },
        {
          "internalType": "uint256",
          "name": "ranking",
          "type": "uint256"
        }
      ],
      "name": "released",
      "outputs": [
        {
          "internalType": "uint256",
          "name": "",
          "type": "uint256"
        }
      ],
      "stateMutability": "view",
      "type": "function"
    },
    {
      "inputs": [
        {
          "internalType": "uint256",
          "name": "ranking",
          "type": "uint256"
        }
      ],
      "name": "shares",
      "outputs": [
        {
          "internalType": "uint256",
          "name": "",
          "type": "uint256"
        }
      ],
      "stateMutability": "view",
      "type": "function"
    },
    {
      "inputs": [
        {
          "internalType": "contract IERC20",
          "name": "token",
          "type": "address"
        }
      ],
      "name": "totalReleased",
      "outputs": [
        {
          "internalType": "uint256",
          "name": "",
          "type": "uint256"
        }
      ],
      "stateMutability": "view",
      "type": "function"
    },
    {
      "inputs": [],
      "name": "totalReleased",
      "outputs": [
        {
          "internalType": "uint256",
          "name": "",
          "type": "uint256"
        }
      ],
      "stateMutability": "view",
      "type": "function"
    },
    {
      "inputs": [],
      "name": "totalShares",
      "outputs": [
        {
          "internalType": "uint256",
          "name": "",
          "type": "uint256"
        }
      ],
      "stateMutability": "view",
      "type": "function"
    },
    {
      "inputs": [],
      "name": "underlyingContest",
      "outputs": [
        {
          "internalType": "contract GovernorCountingSimple",
          "name": "",
          "type": "address"
        }
      ],
      "stateMutability": "view",
      "type": "function"
    },
    {
      "inputs": [
        {
          "internalType": "contract IERC20",
          "name": "token",
          "type": "address"
        }
      ],
      "name": "withdrawRewards",
      "outputs": [],
      "stateMutability": "nonpayable",
      "type": "function"
    },
    {
      "inputs": [],
      "name": "withdrawRewards",
      "outputs": [],
      "stateMutability": "nonpayable",
      "type": "function"
    },
    {
      "stateMutability": "payable",
      "type": "receive"
    }
  ],
  "bytecode": "0x6080604052604051620022e5380380620022e583398101604081905262000026916200044d565b8151835114620000965760405162461bcd60e51b815260206004820152603060248201527f526577617264734d6f64756c653a2070617965657320616e642073686172657360448201526f040d8cadccee8d040dad2e6dac2e8c6d60831b60648201526084015b60405180910390fd5b6000835111620000e95760405162461bcd60e51b815260206004820152601860248201527f526577617264734d6f64756c653a206e6f20706179656573000000000000000060448201526064016200008d565b60005b83518110156200016d57620001588482815181106200011b57634e487b7160e01b600052603260045260246000fd5b60200260200101518483815181106200014457634e487b7160e01b600052603260045260246000fd5b6020026020010151620001a060201b60201c565b806200016481620004f1565b915050620000ec565b50600780546001600160a01b039092166001600160a01b03199283161790556008805490911633179055506200053b9050565b60008211620002075760405162461bcd60e51b815260206004820152602c60248201527f526577617264734d6f64756c653a2072616e6b696e6720697320302c206d757360448201526b3a1031329033b932b0ba32b960a11b60648201526084016200008d565b60008111620002595760405162461bcd60e51b815260206004820152601b60248201527f526577617264734d6f64756c653a20736861726573206172652030000000000060448201526064016200008d565b60008281526002602052604090205415620002b85760405162461bcd60e51b81526020600482015260296024820152600080516020620022c583398151915260448201526861732073686172657360b81b60648201526084016200008d565b60008281526002602052604090205415620003175760405162461bcd60e51b81526020600482015260296024820152600080516020620022c583398151915260448201526861732073686172657360b81b60648201526084016200008d565b60048054600181019091557f8a35acfbc15ff81a39ae7d344fd709f28e8600b4aa8c65c6b64bfe7fe36bd19b0182905560008281526002602052604081208290555462000366908290620004d6565b60005560408051838152602081018390527f78bc0e219b874bf2620f7316737ec16d4bda1bb7136961e4dcb5ff0dc031cee4910160405180910390a15050565b600082601f830112620003b7578081fd5b815160206001600160401b0380831115620003d657620003d662000525565b8260051b604051601f19603f83011681018181108482111715620003fe57620003fe62000525565b604052848152838101925086840182880185018910156200041d578687fd5b8692505b858310156200044157805184529284019260019290920191840162000421565b50979650505050505050565b60008060006060848603121562000462578283fd5b83516001600160401b038082111562000479578485fd5b6200048787838801620003a6565b945060208601519150808211156200049d578384fd5b50620004ac86828701620003a6565b604086015190935090506001600160a01b0381168114620004cb578182fd5b809150509250925092565b60008219821115620004ec57620004ec6200050f565b500190565b60006000198214156200050857620005086200050f565b5060010190565b634e487b7160e01b600052601160045260246000fd5b634e487b7160e01b600052604160045260246000fd5b611d7a806200054b6000396000f3fe6080604052600436106101185760003560e01c80636c6d7a7c116100a0578063cfe8307011610064578063cfe8307014610353578063d79779b214610396578063e33b7de3146103cc578063e4bf01a8146103e1578063f3f44fb71461040157600080fd5b80636c6d7a7c146102c157806396cce4b3146102e4578063a94d373b146102fc578063bc9f248e14610329578063c7b8981c1461033e57600080fd5b806327f38113116100e757806327f381131461021d57806337bdc99b1461023f5780633a98ef391461025f57806342d866931461027457806357a858fc1461029457600080fd5b806302d05d3f146101665780630357371d1461019d5780632081d631146101bf5780632399c660146101ed57600080fd5b36610161577f6ef95f06320e7a25a04a175ca677b7052bdd97131872c2192525a629f51be77033604080516001600160a01b0390921682523460208301520160405180910390a1005b600080fd5b34801561017257600080fd5b506008546001600160a01b03165b6040516001600160a01b0390911681526020015b60405180910390f35b3480156101a957600080fd5b506101bd6101b8366004611798565b61041f565b005b3480156101cb57600080fd5b506101df6101da366004611798565b610833565b604051908152602001610194565b3480156101f957600080fd5b5061020d6102083660046118bd565b610910565b6040519015158152602001610194565b34801561022957600080fd5b5061023261095a565b6040516101949190611966565b34801561024b57600080fd5b506101bd61025a3660046118bd565b6109b2565b34801561026b57600080fd5b506000546101df565b34801561028057600080fd5b506101bd61028f36600461177c565b610d8b565b3480156102a057600080fd5b506101df6102af3660046118bd565b60009081526002602052604090205490565b3480156102cd57600080fd5b506102d6610f0d565b604051610194929190611979565b3480156102f057600080fd5b50600d5460ff1661020d565b34801561030857600080fd5b506101df6103173660046118bd565b60009081526003602052604090205490565b34801561033557600080fd5b50600c546101df565b34801561034a57600080fd5b506101bd610fc0565b34801561035f57600080fd5b506101df61036e366004611798565b6001600160a01b03919091166000908152600660209081526040808320938352929052205490565b3480156103a257600080fd5b506101df6103b136600461177c565b6001600160a01b031660009081526005602052604090205490565b3480156103d857600080fd5b506001546101df565b3480156103ed57600080fd5b506101df6103fc3660046118bd565b611047565b34801561040d57600080fd5b506007546001600160a01b0316610180565b806104455760405162461bcd60e51b815260040161043c906119da565b60405180910390fd5b6007546040805163c19d93fb60e01b815290516003926001600160a01b03169163c19d93fb916004808301926020929190829003018186803b15801561048a57600080fd5b505afa15801561049e573d6000803e3d6000fd5b505050506040513d601f19601f820116820180604052508101906104c291906117c3565b60038111156104e157634e487b7160e01b600052602160045260246000fd5b146104fe5760405162461bcd60e51b815260040161043c90611a25565b6000818152600260205260409020546105655760405162461bcd60e51b8152602060048201526024808201527f526577617264734d6f64756c653a206163636f756e7420686173206e6f2073686044820152636172657360e01b606482015260840161043c565b60006105718383610833565b9050806105905760405162461bcd60e51b815260040161043c90611a8e565b6001600160a01b038316600090815260056020526040812080548392906105b8908490611c08565b90915550506001600160a01b038316600090815260066020908152604080832085845290915290208054820190556009546106835760075460405163213eab6160e11b8152600160048201526001600160a01b039091169063427d56c29060240160006040518083038186803b15801561063157600080fd5b505afa158015610645573d6000803e3d6000fd5b505050506040513d6000823e601f3d908101601f1916820160405261066d91908101906116ba565b805161068191600991602090910190611645565b505b600b5461069257610692611081565b600c548211156106b45760405162461bcd60e51b815260040161043c90611b21565b600d5460009060ff166107a757600754600b80546001600160a01b039092169163c7f758a891600991879081106106fb57634e487b7160e01b600052603260045260246000fd5b90600052602060002001548154811061072457634e487b7160e01b600052603260045260246000fd5b90600052602060002001546040518263ffffffff1660e01b815260040161074d91815260200190565b60006040518083038186803b15801561076557600080fd5b505afa158015610779573d6000803e3d6000fd5b505050506040513d6000823e601f3d908101601f191682016040526107a191908101906117e2565b516107b4565b6008546001600160a01b03165b90506001600160a01b0381166107dc5760405162461bcd60e51b815260040161043c90611ad7565b6107e78482846112c2565b604080516001600160a01b038381168252602082018590528616917f3be5b7a71e84ed12875d241991c70855ac5817d847039e17a9d895c1ceb0f18a910160405180910390a250505050565b6001600160a01b03821660009081526005602052604081205481906040516370a0823160e01b81523060048201526001600160a01b038616906370a082319060240160206040518083038186803b15801561088d57600080fd5b505afa1580156108a1573d6000803e3d6000fd5b505050506040513d601f19601f820116820180604052508101906108c591906118d5565b6108cf9190611c08565b9050610908838261090387876001600160a01b03919091166000908152600660209081526040808320938352929052205490565b611314565b949350505050565b6000600a828154811061093357634e487b7160e01b600052603260045260246000fd5b90600052602060002090602091828204019190069054906101000a900460ff169050919050565b606060048054806020026020016040519081016040528092919081815260200182805480156109a857602002820191906000526020600020905b815481526020019060010190808311610994575b5050505050905090565b806109cf5760405162461bcd60e51b815260040161043c906119da565b6007546040805163c19d93fb60e01b815290516003926001600160a01b03169163c19d93fb916004808301926020929190829003018186803b158015610a1457600080fd5b505afa158015610a28573d6000803e3d6000fd5b505050506040513d601f19601f82011682018060405250810190610a4c91906117c3565b6003811115610a6b57634e487b7160e01b600052602160045260246000fd5b14610a885760405162461bcd60e51b815260040161043c90611a25565b600081815260026020526040902054610aef5760405162461bcd60e51b8152602060048201526024808201527f526577617264734d6f64756c653a2072616e6b696e6720686173206e6f2073686044820152636172657360e01b606482015260840161043c565b6000610afa82611047565b905080610b195760405162461bcd60e51b815260040161043c90611a8e565b8060016000828254610b2b9190611c08565b90915550506000828152600360205260409020805482019055600954610be15760075460405163213eab6160e11b8152600160048201526001600160a01b039091169063427d56c29060240160006040518083038186803b158015610b8f57600080fd5b505afa158015610ba3573d6000803e3d6000fd5b505050506040513d6000823e601f3d908101601f19168201604052610bcb91908101906116ba565b8051610bdf91600991602090910190611645565b505b600b54610bf057610bf0611081565b600c54821115610c125760405162461bcd60e51b815260040161043c90611b21565b600d5460009060ff16610d0557600754600b80546001600160a01b039092169163c7f758a89160099187908110610c5957634e487b7160e01b600052603260045260246000fd5b906000526020600020015481548110610c8257634e487b7160e01b600052603260045260246000fd5b90600052602060002001546040518263ffffffff1660e01b8152600401610cab91815260200190565b60006040518083038186803b158015610cc357600080fd5b505afa158015610cd7573d6000803e3d6000fd5b505050506040513d6000823e601f3d908101601f19168201604052610cff91908101906117e2565b51610d12565b6008546001600160a01b03165b90506001600160a01b038116610d3a5760405162461bcd60e51b815260040161043c90611ad7565b610d448183611346565b604080516001600160a01b0383168152602081018490527fdf20fd1e76bc69d672e4814fafb2c449bba3a5369d8359adf9e05e6fde87b056910160405180910390a1505050565b6008546001600160a01b03163314610da257600080fd5b610e3481610db86008546001600160a01b031690565b6040516370a0823160e01b81523060048201526001600160a01b038516906370a082319060240160206040518083038186803b158015610df757600080fd5b505afa158015610e0b573d6000803e3d6000fd5b505050506040513d601f19601f82011682018060405250810190610e2f91906118d5565b6112c2565b806001600160a01b03167f6e5fc1cbd1629d9837bd657d23cf585bbc4e9127184972606cc4c0dd406f7572610e716008546001600160a01b031690565b6040516370a0823160e01b81523060048201526001600160a01b038516906370a082319060240160206040518083038186803b158015610eb057600080fd5b505afa158015610ec4573d6000803e3d6000fd5b505050506040513d601f19601f82011682018060405250810190610ee891906118d5565b604080516001600160a01b03909316835260208301919091520160405180910390a250565b606080600b600981805480602002602001604051908101604052809291908181526020018280548015610f5f57602002820191906000526020600020905b815481526020019060010190808311610f4b575b5050505050915080805480602002602001604051908101604052809291908181526020018280548015610fb157602002820191906000526020600020905b815481526020019060010190808311610f9d575b50505050509050915091509091565b6008546001600160a01b03163314610fd757600080fd5b610ff2610fec6008546001600160a01b031690565b47611346565b7f1d3eee4ca001cff39eec6ec7615aacf2f2bd61791273830728ba00ccbd6e13376110256008546001600160a01b031690565b604080516001600160a01b0390921682524760208301520160405180910390a1565b60008061105360015490565b61105d9047611c08565b905061107a83826109038660009081526003602052604090205490565b9392505050565b60006001815b6009548110156112bd576009546000906110a390600190611c9e565b60075490915060009081906001600160a01b031663544ffc9c60096110c88787611c9e565b815481106110e657634e487b7160e01b600052603260045260246000fd5b90600052602060002001546040518263ffffffff1660e01b815260040161110f91815260200190565b604080518083038186803b15801561112657600080fd5b505afa15801561113a573d6000803e3d6000fd5b505050506040513d601f19601f8201168201806040525081019061115e91906118ed565b9092509050600061116f8284611c5f565b9050846111815795506112ab92505050565b86811415611204576001600a87815481106111ac57634e487b7160e01b600052603260045260246000fd5b90600052602060002090602091828204019190066101000a81548160ff0219169083151502179055506000600260008881526020019081526020016000205411156111ff57600d805460ff191660011790555b611254565b61120e8585611c9e565b611219906001611c08565b600b878154811061123a57634e487b7160e01b600052603260045260246000fd5b6000918252602090912001558561125081611ce5565b9650505b600954611262866001611c08565b14156112a5576112728585611c9e565b600b878154811061129357634e487b7160e01b600052603260045260246000fd5b600091825260209091200155600c8690555b95505050505b806112b581611ce5565b915050611087565b505050565b604080516001600160a01b038416602482015260448082018490528251808303909101815260649091019091526020810180516001600160e01b031663a9059cbb60e01b1790526112bd90849061145f565b60008054848252600260205260408220548391906113329086611c40565b61133c9190611c20565b6109089190611c9e565b804710156113965760405162461bcd60e51b815260206004820152601d60248201527f416464726573733a20696e73756666696369656e742062616c616e6365000000604482015260640161043c565b6000826001600160a01b03168260405160006040518083038185875af1925050503d80600081146113e3576040519150601f19603f3d011682016040523d82523d6000602084013e6113e8565b606091505b50509050806112bd5760405162461bcd60e51b815260206004820152603a60248201527f416464726573733a20756e61626c6520746f2073656e642076616c75652c207260448201527f6563697069656e74206d61792068617665207265766572746564000000000000606482015260840161043c565b60006114b4826040518060400160405280602081526020017f5361666545524332303a206c6f772d6c6576656c2063616c6c206661696c6564815250856001600160a01b03166115319092919063ffffffff16565b8051909150156112bd57808060200190518101906114d29190611762565b6112bd5760405162461bcd60e51b815260206004820152602a60248201527f5361666545524332303a204552433230206f7065726174696f6e20646964206e6044820152691bdd081cdd58d8d9595960b21b606482015260840161043c565b60606109088484600085856001600160a01b0385163b6115935760405162461bcd60e51b815260206004820152601d60248201527f416464726573733a2063616c6c20746f206e6f6e2d636f6e7472616374000000604482015260640161043c565b600080866001600160a01b031685876040516115af919061194a565b60006040518083038185875af1925050503d80600081146115ec576040519150601f19603f3d011682016040523d82523d6000602084013e6115f1565b606091505b509150915061160182828661160c565b979650505050505050565b6060831561161b57508161107a565b82511561162b5782518084602001fd5b8160405162461bcd60e51b815260040161043c91906119a7565b828054828255906000526020600020908101928215611680579160200282015b82811115611680578251825591602001919060010190611665565b5061168c929150611690565b5090565b5b8082111561168c5760008155600101611691565b805180151581146116b557600080fd5b919050565b600060208083850312156116cc578182fd5b825167ffffffffffffffff808211156116e3578384fd5b818501915085601f8301126116f6578384fd5b81518181111561170857611708611d16565b8060051b9150611719848301611bd7565b8181528481019084860184860187018a1015611733578788fd5b8795505b83861015611755578051835260019590950194918601918601611737565b5098975050505050505050565b600060208284031215611773578081fd5b61107a826116a5565b60006020828403121561178d578081fd5b813561107a81611d2c565b600080604083850312156117aa578081fd5b82356117b581611d2c565b946020939093013593505050565b6000602082840312156117d4578081fd5b81516004811061107a578182fd5b600060208083850312156117f4578182fd5b825167ffffffffffffffff8082111561180b578384fd5b908401906060828703121561181e578384fd5b611826611bae565b825161183181611d2c565b81528284015182811115611843578586fd5b8301601f81018813611853578586fd5b80518381111561186557611865611d16565b611877601f8201601f19168701611bd7565b9350808452888682840101111561188c578687fd5b61189b81878601888501611cb5565b505081848201526118ae604084016116a5565b60408201529695505050505050565b6000602082840312156118ce578081fd5b5035919050565b6000602082840312156118e6578081fd5b5051919050565b600080604083850312156118ff578182fd5b505080516020909101519092909150565b6000815180845260208085019450808401835b8381101561193f57815187529582019590820190600101611923565b509495945050505050565b6000825161195c818460208701611cb5565b9190910192915050565b60208152600061107a6020830184611910565b60408152600061198c6040830185611910565b828103602084015261199e8185611910565b95945050505050565b60208152600082518060208401526119c6816040850160208701611cb5565b601f01601f19169190910160400192915050565b6020808252602b908201527f526577617264734d6f64756c653a2072616e6b696e67206d757374206265203160408201526a1037b91033b932b0ba32b960a91b606082015260800190565b60208082526043908201527f526577617264734d6f64756c653a20636f6e74657374206d757374206265206360408201527f6f6d706c6574656420666f72207265776172647320746f2062652070616964206060820152621bdd5d60ea1b608082015260a00190565b60208082526029908201527f526577617264734d6f64756c653a206163636f756e74206973206e6f7420647560408201526819481c185e5b595b9d60ba1b606082015260800190565b6020808252602a908201527f526577617264734d6f64756c653a206163636f756e7420697320746865207a65604082015269726f206164647265737360b01b606082015260800190565b60208082526061908201527f526577617264734d6f64756c653a20746865726520617265206e6f7420656e6f60408201527f7567682070726f706f73616c7320666f7220746861742072616e6b696e67207460608201527f6f2065786973742c2074616b696e67207469657320696e746f206163636f756e6080820152601d60fa1b60a082015260c00190565b6040516060810167ffffffffffffffff81118282101715611bd157611bd1611d16565b60405290565b604051601f8201601f1916810167ffffffffffffffff81118282101715611c0057611c00611d16565b604052919050565b60008219821115611c1b57611c1b611d00565b500190565b600082611c3b57634e487b7160e01b81526012600452602481fd5b500490565b6000816000190483118215151615611c5a57611c5a611d00565b500290565b60008083128015600160ff1b850184121615611c7d57611c7d611d00565b6001600160ff1b0384018313811615611c9857611c98611d00565b50500390565b600082821015611cb057611cb0611d00565b500390565b60005b83811015611cd0578181015183820152602001611cb8565b83811115611cdf576000848401525b50505050565b6000600019821415611cf957611cf9611d00565b5060010190565b634e487b7160e01b600052601160045260246000fd5b634e487b7160e01b600052604160045260246000fd5b6001600160a01b0381168114611d4157600080fd5b5056fea2646970667358221220247b28f015b5fa7ae6924d44bd74a70fa156eacece31d86a7bfbab9f6000726564736f6c63430008040033526577617264734d6f64756c653a206163636f756e7420616c72656164792068",
  "linkReferences": {},
  "deployedLinkReferences": {}
}