{
  "_format": "hh-sol-artifact-1",
  "contractName": "RewardsModule",
  "sourceName": "contracts/modules/RewardsModule.sol",
  "abi": [
    {
      "inputs": [
        {
          "internalType": "uint256[]",
          "name": "payees",
          "type": "uint256[]"
        },
        {
          "internalType": "uint256[]",
          "name": "shares_",
          "type": "uint256[]"
        },
        {
          "internalType": "contract GovernorCountingSimple",
          "name": "underlyingContest_",
          "type": "address"
        }
      ],
      "stateMutability": "payable",
      "type": "constructor"
    },
    {
      "anonymous": false,
      "inputs": [
        {
          "indexed": true,
          "internalType": "contract IERC20",
          "name": "token",
          "type": "address"
        },
        {
          "indexed": false,
          "internalType": "address",
          "name": "to",
          "type": "address"
        },
        {
          "indexed": false,
          "internalType": "uint256",
          "name": "amount",
          "type": "uint256"
        }
      ],
      "name": "ERC20PaymentReleased",
      "type": "event"
    },
    {
      "anonymous": false,
      "inputs": [
        {
          "indexed": true,
          "internalType": "contract IERC20",
          "name": "token",
          "type": "address"
        },
        {
          "indexed": false,
          "internalType": "address",
          "name": "by",
          "type": "address"
        },
        {
          "indexed": false,
          "internalType": "uint256",
          "name": "amount",
          "type": "uint256"
        }
      ],
      "name": "ERC20RewardWithdrawn",
      "type": "event"
    },
    {
      "anonymous": false,
      "inputs": [
        {
          "indexed": false,
          "internalType": "uint256",
          "name": "ranking",
          "type": "uint256"
        },
        {
          "indexed": false,
          "internalType": "uint256",
          "name": "shares",
          "type": "uint256"
        }
      ],
      "name": "PayeeAdded",
      "type": "event"
    },
    {
      "anonymous": false,
      "inputs": [
        {
          "indexed": false,
          "internalType": "address",
          "name": "from",
          "type": "address"
        },
        {
          "indexed": false,
          "internalType": "uint256",
          "name": "amount",
          "type": "uint256"
        }
      ],
      "name": "PaymentReceived",
      "type": "event"
    },
    {
      "anonymous": false,
      "inputs": [
        {
          "indexed": false,
          "internalType": "address",
          "name": "to",
          "type": "address"
        },
        {
          "indexed": false,
          "internalType": "uint256",
          "name": "amount",
          "type": "uint256"
        }
      ],
      "name": "PaymentReleased",
      "type": "event"
    },
    {
      "anonymous": false,
      "inputs": [
        {
          "indexed": false,
          "internalType": "address",
          "name": "by",
          "type": "address"
        },
        {
          "indexed": false,
          "internalType": "uint256",
          "name": "amount",
          "type": "uint256"
        }
      ],
      "name": "RewardWithdrawn",
      "type": "event"
    },
    {
      "inputs": [],
      "name": "atLeastOnePayeeTied",
      "outputs": [
        {
          "internalType": "bool",
          "name": "",
          "type": "bool"
        }
      ],
      "stateMutability": "view",
      "type": "function"
    },
    {
      "inputs": [],
      "name": "creator",
      "outputs": [
        {
          "internalType": "address",
          "name": "",
          "type": "address"
        }
      ],
      "stateMutability": "view",
      "type": "function"
    },
    {
      "inputs": [],
      "name": "getPayees",
      "outputs": [
        {
          "internalType": "uint256[]",
          "name": "",
          "type": "uint256[]"
        }
      ],
      "stateMutability": "view",
      "type": "function"
    },
    {
      "inputs": [
        {
          "internalType": "uint256",
          "name": "ranking",
          "type": "uint256"
        }
      ],
      "name": "isTied",
      "outputs": [
        {
          "internalType": "bool",
          "name": "",
          "type": "bool"
        }
      ],
      "stateMutability": "view",
      "type": "function"
    },
    {
      "inputs": [],
      "name": "maxRanking",
      "outputs": [
        {
          "internalType": "uint256",
          "name": "",
          "type": "uint256"
        }
      ],
      "stateMutability": "view",
      "type": "function"
    },
    {
      "inputs": [
        {
          "internalType": "uint256",
          "name": "ranking",
          "type": "uint256"
        }
      ],
      "name": "rankingPosition",
      "outputs": [
        {
          "internalType": "uint256",
          "name": "",
          "type": "uint256"
        }
      ],
      "stateMutability": "view",
      "type": "function"
    },
    {
      "inputs": [
        {
          "internalType": "contract IERC20",
          "name": "token",
          "type": "address"
        },
        {
          "internalType": "uint256",
          "name": "ranking",
          "type": "uint256"
        }
      ],
      "name": "releasable",
      "outputs": [
        {
          "internalType": "uint256",
          "name": "",
          "type": "uint256"
        }
      ],
      "stateMutability": "view",
      "type": "function"
    },
    {
      "inputs": [
        {
          "internalType": "uint256",
          "name": "ranking",
          "type": "uint256"
        }
      ],
      "name": "releasable",
      "outputs": [
        {
          "internalType": "uint256",
          "name": "",
          "type": "uint256"
        }
      ],
      "stateMutability": "view",
      "type": "function"
    },
    {
      "inputs": [
        {
          "internalType": "contract IERC20",
          "name": "token",
          "type": "address"
        },
        {
          "internalType": "uint256",
          "name": "ranking",
          "type": "uint256"
        }
      ],
      "name": "release",
      "outputs": [],
      "stateMutability": "nonpayable",
      "type": "function"
    },
    {
      "inputs": [
        {
          "internalType": "uint256",
          "name": "ranking",
          "type": "uint256"
        }
      ],
      "name": "release",
      "outputs": [],
      "stateMutability": "nonpayable",
      "type": "function"
    },
    {
      "inputs": [
        {
          "internalType": "uint256",
          "name": "ranking",
          "type": "uint256"
        }
      ],
      "name": "released",
      "outputs": [
        {
          "internalType": "uint256",
          "name": "",
          "type": "uint256"
        }
      ],
      "stateMutability": "view",
      "type": "function"
    },
    {
      "inputs": [
        {
          "internalType": "contract IERC20",
          "name": "token",
          "type": "address"
        },
        {
          "internalType": "uint256",
          "name": "ranking",
          "type": "uint256"
        }
      ],
      "name": "released",
      "outputs": [
        {
          "internalType": "uint256",
          "name": "",
          "type": "uint256"
        }
      ],
      "stateMutability": "view",
      "type": "function"
    },
    {
      "inputs": [],
      "name": "setSortedAndTiedProposals",
      "outputs": [],
      "stateMutability": "nonpayable",
      "type": "function"
    },
    {
      "inputs": [
        {
          "internalType": "uint256",
          "name": "ranking",
          "type": "uint256"
        }
      ],
      "name": "shares",
      "outputs": [
        {
          "internalType": "uint256",
          "name": "",
          "type": "uint256"
        }
      ],
      "stateMutability": "view",
      "type": "function"
    },
    {
      "inputs": [],
      "name": "sortedProposalIds",
      "outputs": [
        {
          "internalType": "uint256[]",
          "name": "",
          "type": "uint256[]"
        }
      ],
      "stateMutability": "view",
      "type": "function"
    },
    {
      "inputs": [
        {
          "internalType": "contract IERC20",
          "name": "token",
          "type": "address"
        }
      ],
      "name": "totalReleased",
      "outputs": [
        {
          "internalType": "uint256",
          "name": "",
          "type": "uint256"
        }
      ],
      "stateMutability": "view",
      "type": "function"
    },
    {
      "inputs": [],
      "name": "totalReleased",
      "outputs": [
        {
          "internalType": "uint256",
          "name": "",
          "type": "uint256"
        }
      ],
      "stateMutability": "view",
      "type": "function"
    },
    {
      "inputs": [],
      "name": "totalShares",
      "outputs": [
        {
          "internalType": "uint256",
          "name": "",
          "type": "uint256"
        }
      ],
      "stateMutability": "view",
      "type": "function"
    },
    {
      "inputs": [],
      "name": "underlyingContest",
      "outputs": [
        {
          "internalType": "contract GovernorCountingSimple",
          "name": "",
          "type": "address"
        }
      ],
      "stateMutability": "view",
      "type": "function"
    },
    {
      "inputs": [
        {
          "internalType": "contract IERC20",
          "name": "token",
          "type": "address"
        }
      ],
      "name": "withdrawRewards",
      "outputs": [],
      "stateMutability": "nonpayable",
      "type": "function"
    },
    {
      "inputs": [],
      "name": "withdrawRewards",
      "outputs": [],
      "stateMutability": "nonpayable",
      "type": "function"
    },
    {
      "stateMutability": "payable",
      "type": "receive"
    }
  ],
  "bytecode": "0x6080604052604051620024293803806200242983398101604081905262000026916200044d565b8151835114620000965760405162461bcd60e51b815260206004820152603060248201527f526577617264734d6f64756c653a2070617965657320616e642073686172657360448201526f040d8cadccee8d040dad2e6dac2e8c6d60831b60648201526084015b60405180910390fd5b6000835111620000e95760405162461bcd60e51b815260206004820152601860248201527f526577617264734d6f64756c653a206e6f20706179656573000000000000000060448201526064016200008d565b60005b83518110156200016d57620001588482815181106200011b57634e487b7160e01b600052603260045260246000fd5b60200260200101518483815181106200014457634e487b7160e01b600052603260045260246000fd5b6020026020010151620001a060201b60201c565b806200016481620004f1565b915050620000ec565b50600780546001600160a01b039092166001600160a01b03199283161790556008805490911633179055506200053b9050565b60008211620002075760405162461bcd60e51b815260206004820152602c60248201527f526577617264734d6f64756c653a2072616e6b696e6720697320302c206d757360448201526b3a1031329033b932b0ba32b960a11b60648201526084016200008d565b60008111620002595760405162461bcd60e51b815260206004820152601b60248201527f526577617264734d6f64756c653a20736861726573206172652030000000000060448201526064016200008d565b60008281526002602052604090205415620002b85760405162461bcd60e51b815260206004820152602960248201526000805160206200240983398151915260448201526861732073686172657360b81b60648201526084016200008d565b60008281526002602052604090205415620003175760405162461bcd60e51b815260206004820152602960248201526000805160206200240983398151915260448201526861732073686172657360b81b60648201526084016200008d565b60048054600181019091557f8a35acfbc15ff81a39ae7d344fd709f28e8600b4aa8c65c6b64bfe7fe36bd19b0182905560008281526002602052604081208290555462000366908290620004d6565b60005560408051838152602081018390527f78bc0e219b874bf2620f7316737ec16d4bda1bb7136961e4dcb5ff0dc031cee4910160405180910390a15050565b600082601f830112620003b7578081fd5b815160206001600160401b0380831115620003d657620003d662000525565b8260051b604051601f19603f83011681018181108482111715620003fe57620003fe62000525565b604052848152838101925086840182880185018910156200041d578687fd5b8692505b858310156200044157805184529284019260019290920191840162000421565b50979650505050505050565b60008060006060848603121562000462578283fd5b83516001600160401b038082111562000479578485fd5b6200048787838801620003a6565b945060208601519150808211156200049d578384fd5b50620004ac86828701620003a6565b604086015190935090506001600160a01b0381168114620004cb578182fd5b809150509250925092565b60008219821115620004ec57620004ec6200050f565b500190565b60006000198214156200050857620005086200050f565b5060010190565b634e487b7160e01b600052601160045260246000fd5b634e487b7160e01b600052604160045260246000fd5b611ebe806200054b6000396000f3fe60806040526004361061012e5760003560e01c80638a9cd550116100ab578063c7b8981c1161006f578063c7b8981c14610378578063cfe830701461038d578063d79779b2146103d0578063e33b7de314610406578063e4bf01a81461041b578063f3f44fb71461043b57600080fd5b80638a9cd550146102f757806396cce4b31461030c57806396f0e96214610321578063a94d373b14610336578063bc9f248e1461036357600080fd5b806337bdc99b116100f257806337bdc99b146102555780633a98ef391461027557806342d866931461028a57806357a858fc146102aa57806386187488146102d757600080fd5b806302d05d3f1461017c5780630357371d146101b35780632081d631146101d55780632399c6601461020357806327f381131461023357600080fd5b36610177577f6ef95f06320e7a25a04a175ca677b7052bdd97131872c2192525a629f51be77033604080516001600160a01b0390921682523460208301520160405180910390a1005b600080fd5b34801561018857600080fd5b506008546001600160a01b03165b6040516001600160a01b0390911681526020015b60405180910390f35b3480156101bf57600080fd5b506101d36101ce3660046118a8565b610459565b005b3480156101e157600080fd5b506101f56101f03660046118a8565b6107bc565b6040519081526020016101aa565b34801561020f57600080fd5b5061022361021e3660046119cd565b610899565b60405190151581526020016101aa565b34801561023f57600080fd5b506102486108db565b6040516101aa9190611a3c565b34801561026157600080fd5b506101d36102703660046119cd565b610933565b34801561028157600080fd5b506000546101f5565b34801561029657600080fd5b506101d36102a536600461188c565b610c5b565b3480156102b657600080fd5b506101f56102c53660046119cd565b60009081526002602052604090205490565b3480156102e357600080fd5b506101f56102f23660046119cd565b610ddd565b34801561030357600080fd5b50610248610e1c565b34801561031857600080fd5b50610223610e9d565b34801561032d57600080fd5b506101d3610ed4565b34801561034257600080fd5b506101f56103513660046119cd565b60009081526003602052604090205490565b34801561036f57600080fd5b506101f56112d8565b34801561038457600080fd5b506101d361130c565b34801561039957600080fd5b506101f56103a83660046118a8565b6001600160a01b03919091166000908152600660209081526040808320938352929052205490565b3480156103dc57600080fd5b506101f56103eb36600461188c565b6001600160a01b031660009081526005602052604090205490565b34801561041257600080fd5b506001546101f5565b34801561042757600080fd5b506101f56104363660046119cd565b611393565b34801561044757600080fd5b506007546001600160a01b0316610196565b8061047f5760405162461bcd60e51b815260040161047690611ab3565b60405180910390fd5b6007546040805163c19d93fb60e01b815290516003926001600160a01b03169163c19d93fb916004808301926020929190829003018186803b1580156104c457600080fd5b505afa1580156104d8573d6000803e3d6000fd5b505050506040513d601f19601f820116820180604052508101906104fc91906118d3565b600381111561051b57634e487b7160e01b600052602160045260246000fd5b146105385760405162461bcd60e51b815260040161047690611b69565b60008181526002602052604090205461059f5760405162461bcd60e51b8152602060048201526024808201527f526577617264734d6f64756c653a206163636f756e7420686173206e6f2073686044820152636172657360e01b6064820152608401610476565b60006105ab83836107bc565b9050806105ca5760405162461bcd60e51b815260040161047690611bd2565b6001600160a01b038316600090815260056020526040812080548392906105f2908490611d4c565b90915550506001600160a01b03831660009081526006602090815260408083208584529091529020805482019055600854600160a01b900460ff1661063957610639610ed4565b600c5482111561065b5760405162461bcd60e51b815260040161047690611c65565b600d5460009060ff16610730576007546000848152600b6020526040902054600980546001600160a01b039093169263c7f758a8929081106106ad57634e487b7160e01b600052603260045260246000fd5b90600052602060002001546040518263ffffffff1660e01b81526004016106d691815260200190565b60006040518083038186803b1580156106ee57600080fd5b505afa158015610702573d6000803e3d6000fd5b505050506040513d6000823e601f3d908101601f1916820160405261072a91908101906118f2565b5161073d565b6008546001600160a01b03165b90506001600160a01b0381166107655760405162461bcd60e51b815260040161047690611c1b565b6107708482846113cd565b604080516001600160a01b038381168252602082018590528616917f3be5b7a71e84ed12875d241991c70855ac5817d847039e17a9d895c1ceb0f18a910160405180910390a250505050565b6001600160a01b03821660009081526005602052604081205481906040516370a0823160e01b81523060048201526001600160a01b038616906370a082319060240160206040518083038186803b15801561081657600080fd5b505afa15801561082a573d6000803e3d6000fd5b505050506040513d601f19601f8201168201806040525081019061084e91906119e5565b6108589190611d4c565b9050610891838261088c87876001600160a01b03919091166000908152600660209081526040808320938352929052205490565b611424565b949350505050565b600854600090600160a01b900460ff166108c55760405162461bcd60e51b815260040161047690611afe565b506000908152600a602052604090205460ff1690565b6060600480548060200260200160405190810160405280929190818152602001828054801561092957602002820191906000526020600020905b815481526020019060010190808311610915575b5050505050905090565b806109505760405162461bcd60e51b815260040161047690611ab3565b6007546040805163c19d93fb60e01b815290516003926001600160a01b03169163c19d93fb916004808301926020929190829003018186803b15801561099557600080fd5b505afa1580156109a9573d6000803e3d6000fd5b505050506040513d601f19601f820116820180604052508101906109cd91906118d3565b60038111156109ec57634e487b7160e01b600052602160045260246000fd5b14610a095760405162461bcd60e51b815260040161047690611b69565b600081815260026020526040902054610a705760405162461bcd60e51b8152602060048201526024808201527f526577617264734d6f64756c653a2072616e6b696e6720686173206e6f2073686044820152636172657360e01b6064820152608401610476565b6000610a7b82611393565b905080610a9a5760405162461bcd60e51b815260040161047690611bd2565b8060016000828254610aac9190611d4c565b90915550506000828152600360205260409020805482019055600854600160a01b900460ff16610ade57610ade610ed4565b600c54821115610b005760405162461bcd60e51b815260040161047690611c65565b600d5460009060ff16610bd5576007546000848152600b6020526040902054600980546001600160a01b039093169263c7f758a892908110610b5257634e487b7160e01b600052603260045260246000fd5b90600052602060002001546040518263ffffffff1660e01b8152600401610b7b91815260200190565b60006040518083038186803b158015610b9357600080fd5b505afa158015610ba7573d6000803e3d6000fd5b505050506040513d6000823e601f3d908101601f19168201604052610bcf91908101906118f2565b51610be2565b6008546001600160a01b03165b90506001600160a01b038116610c0a5760405162461bcd60e51b815260040161047690611c1b565b610c148183611456565b604080516001600160a01b0383168152602081018490527fdf20fd1e76bc69d672e4814fafb2c449bba3a5369d8359adf9e05e6fde87b056910160405180910390a1505050565b6008546001600160a01b03163314610c7257600080fd5b610d0481610c886008546001600160a01b031690565b6040516370a0823160e01b81523060048201526001600160a01b038516906370a082319060240160206040518083038186803b158015610cc757600080fd5b505afa158015610cdb573d6000803e3d6000fd5b505050506040513d601f19601f82011682018060405250810190610cff91906119e5565b6113cd565b806001600160a01b03167f6e5fc1cbd1629d9837bd657d23cf585bbc4e9127184972606cc4c0dd406f7572610d416008546001600160a01b031690565b6040516370a0823160e01b81523060048201526001600160a01b038516906370a082319060240160206040518083038186803b158015610d8057600080fd5b505afa158015610d94573d6000803e3d6000fd5b505050506040513d601f19601f82011682018060405250810190610db891906119e5565b604080516001600160a01b03909316835260208301919091520160405180910390a250565b600854600090600160a01b900460ff16610e095760405162461bcd60e51b815260040161047690611afe565b506000908152600b602052604090205490565b600854606090600160a01b900460ff1615610e495760405162461bcd60e51b815260040161047690611afe565b60098054806020026020016040519081016040528092919081815260200182805480156109295760200282019190600052602060002090815481526020019060010190808311610915575050505050905090565b600854600090600160a01b900460ff1615610eca5760405162461bcd60e51b815260040161047690611afe565b50600d5460ff1690565b6007546040805163c19d93fb60e01b815290516003926001600160a01b03169163c19d93fb916004808301926020929190829003018186803b158015610f1957600080fd5b505afa158015610f2d573d6000803e3d6000fd5b505050506040513d601f19601f82011682018060405250810190610f5191906118d3565b6003811115610f7057634e487b7160e01b600052602160045260246000fd5b14610f8d5760405162461bcd60e51b815260040161047690611b69565b600854600160a01b900460ff161561106a5760405162461bcd60e51b815260206004820152608860248201527f526577617264734d6f64756c653a20746869732066756e6374696f6e2068617360448201527f20616c7265616479206265656e2072756e20616e64206974732072657370656360648201527f746976652076616c75657320736574202874686573652076616c75657320776960848201527f6c6c206e6f74206368616e6765206f6e6365206120636f6e746573742069732060a482015267636f6d706c65746560c01b60c482015260e401610476565b60075460405163213eab6160e11b8152600160048201526001600160a01b039091169063427d56c29060240160006040518083038186803b1580156110ae57600080fd5b505afa1580156110c2573d6000803e3d6000fd5b505050506040513d6000823e601f3d908101601f191682016040526110ea91908101906117ca565b80516110fe91600991602090910190611755565b5060006001815b6009548110156112c05760095460009061112190600190611de2565b60075490915060009081906001600160a01b031663544ffc9c60096111468787611de2565b8154811061116457634e487b7160e01b600052603260045260246000fd5b90600052602060002001546040518263ffffffff1660e01b815260040161118d91815260200190565b604080518083038186803b1580156111a457600080fd5b505afa1580156111b8573d6000803e3d6000fd5b505050506040513d601f19601f820116820180604052508101906111dc91906119fd565b909250905060006111ed8284611da3565b9050846111ff5795506112ae92505050565b86811415611243576000868152600a60209081526040808320805460ff1916600117905560029091529020541561123e57600d805460ff191660011790555b611275565b61124d8585611de2565b611258906001611d4c565b6000878152600b60205260409020558561127181611e29565b9650505b600954611283866001611d4c565b14156112a8576112938585611de2565b6000878152600b6020526040902055600c8690555b95505050505b806112b881611e29565b915050611105565b50506008805460ff60a01b1916600160a01b17905550565b600854600090600160a01b900460ff16156113055760405162461bcd60e51b815260040161047690611afe565b50600c5490565b6008546001600160a01b0316331461132357600080fd5b61133e6113386008546001600160a01b031690565b47611456565b7f1d3eee4ca001cff39eec6ec7615aacf2f2bd61791273830728ba00ccbd6e13376113716008546001600160a01b031690565b604080516001600160a01b0390921682524760208301520160405180910390a1565b60008061139f60015490565b6113a99047611d4c565b90506113c6838261088c8660009081526003602052604090205490565b9392505050565b604080516001600160a01b038416602482015260448082018490528251808303909101815260649091019091526020810180516001600160e01b031663a9059cbb60e01b17905261141f90849061156f565b505050565b60008054848252600260205260408220548391906114429086611d84565b61144c9190611d64565b6108919190611de2565b804710156114a65760405162461bcd60e51b815260206004820152601d60248201527f416464726573733a20696e73756666696369656e742062616c616e63650000006044820152606401610476565b6000826001600160a01b03168260405160006040518083038185875af1925050503d80600081146114f3576040519150601f19603f3d011682016040523d82523d6000602084013e6114f8565b606091505b505090508061141f5760405162461bcd60e51b815260206004820152603a60248201527f416464726573733a20756e61626c6520746f2073656e642076616c75652c207260448201527f6563697069656e74206d617920686176652072657665727465640000000000006064820152608401610476565b60006115c4826040518060400160405280602081526020017f5361666545524332303a206c6f772d6c6576656c2063616c6c206661696c6564815250856001600160a01b03166116419092919063ffffffff16565b80519091501561141f57808060200190518101906115e29190611872565b61141f5760405162461bcd60e51b815260206004820152602a60248201527f5361666545524332303a204552433230206f7065726174696f6e20646964206e6044820152691bdd081cdd58d8d9595960b21b6064820152608401610476565b60606108918484600085856001600160a01b0385163b6116a35760405162461bcd60e51b815260206004820152601d60248201527f416464726573733a2063616c6c20746f206e6f6e2d636f6e74726163740000006044820152606401610476565b600080866001600160a01b031685876040516116bf9190611a20565b60006040518083038185875af1925050503d80600081146116fc576040519150601f19603f3d011682016040523d82523d6000602084013e611701565b606091505b509150915061171182828661171c565b979650505050505050565b6060831561172b5750816113c6565b82511561173b5782518084602001fd5b8160405162461bcd60e51b81526004016104769190611a80565b828054828255906000526020600020908101928215611790579160200282015b82811115611790578251825591602001919060010190611775565b5061179c9291506117a0565b5090565b5b8082111561179c57600081556001016117a1565b805180151581146117c557600080fd5b919050565b600060208083850312156117dc578182fd5b825167ffffffffffffffff808211156117f3578384fd5b818501915085601f830112611806578384fd5b81518181111561181857611818611e5a565b8060051b9150611829848301611d1b565b8181528481019084860184860187018a1015611843578788fd5b8795505b83861015611865578051835260019590950194918601918601611847565b5098975050505050505050565b600060208284031215611883578081fd5b6113c6826117b5565b60006020828403121561189d578081fd5b81356113c681611e70565b600080604083850312156118ba578081fd5b82356118c581611e70565b946020939093013593505050565b6000602082840312156118e4578081fd5b8151600481106113c6578182fd5b60006020808385031215611904578182fd5b825167ffffffffffffffff8082111561191b578384fd5b908401906060828703121561192e578384fd5b611936611cf2565b825161194181611e70565b81528284015182811115611953578586fd5b8301601f81018813611963578586fd5b80518381111561197557611975611e5a565b611987601f8201601f19168701611d1b565b9350808452888682840101111561199c578687fd5b6119ab81878601888501611df9565b505081848201526119be604084016117b5565b60408201529695505050505050565b6000602082840312156119de578081fd5b5035919050565b6000602082840312156119f6578081fd5b5051919050565b60008060408385031215611a0f578182fd5b505080516020909101519092909150565b60008251611a32818460208701611df9565b9190910192915050565b6020808252825182820181905260009190848201906040850190845b81811015611a7457835183529284019291840191600101611a58565b50909695505050505050565b6020815260008251806020840152611a9f816040850160208701611df9565b601f01601f19169190910160400192915050565b6020808252602b908201527f526577617264734d6f64756c653a2072616e6b696e67206d757374206265203160408201526a1037b91033b932b0ba32b960a91b606082015260800190565b60208082526045908201527f526577617264734d6f64756c653a2072756e20736574536f72746564416e645460408201527f69656450726f706f73616c73282920746f20706f70756c61746520746869732060608201526476616c756560d81b608082015260a00190565b60208082526043908201527f526577617264734d6f64756c653a20636f6e74657374206d757374206265206360408201527f6f6d706c6574656420666f72207265776172647320746f2062652070616964206060820152621bdd5d60ea1b608082015260a00190565b60208082526029908201527f526577617264734d6f64756c653a206163636f756e74206973206e6f7420647560408201526819481c185e5b595b9d60ba1b606082015260800190565b6020808252602a908201527f526577617264734d6f64756c653a206163636f756e7420697320746865207a65604082015269726f206164647265737360b01b606082015260800190565b60208082526061908201527f526577617264734d6f64756c653a20746865726520617265206e6f7420656e6f60408201527f7567682070726f706f73616c7320666f7220746861742072616e6b696e67207460608201527f6f2065786973742c2074616b696e67207469657320696e746f206163636f756e6080820152601d60fa1b60a082015260c00190565b6040516060810167ffffffffffffffff81118282101715611d1557611d15611e5a565b60405290565b604051601f8201601f1916810167ffffffffffffffff81118282101715611d4457611d44611e5a565b604052919050565b60008219821115611d5f57611d5f611e44565b500190565b600082611d7f57634e487b7160e01b81526012600452602481fd5b500490565b6000816000190483118215151615611d9e57611d9e611e44565b500290565b60008083128015600160ff1b850184121615611dc157611dc1611e44565b6001600160ff1b0384018313811615611ddc57611ddc611e44565b50500390565b600082821015611df457611df4611e44565b500390565b60005b83811015611e14578181015183820152602001611dfc565b83811115611e23576000848401525b50505050565b6000600019821415611e3d57611e3d611e44565b5060010190565b634e487b7160e01b600052601160045260246000fd5b634e487b7160e01b600052604160045260246000fd5b6001600160a01b0381168114611e8557600080fd5b5056fea264697066735822122090523bc747ddd172d439514e564ee19e7cedd20f793b2440de039bc28fd03dcd64736f6c63430008040033526577617264734d6f64756c653a206163636f756e7420616c72656164792068",
  "linkReferences": {},
  "deployedLinkReferences": {}
}