{
  "abi": [
    {
      "inputs": [
        {
          "internalType": "uint256[]",
          "name": "payees",
          "type": "uint256[]"
        },
        {
          "internalType": "uint256[]",
          "name": "shares_",
          "type": "uint256[]"
        },
        {
          "internalType": "contract GovernorCountingSimple",
          "name": "underlyingContest_",
          "type": "address"
        },
        {
          "internalType": "bool",
          "name": "paysOutTarget_",
          "type": "bool"
        }
      ],
      "stateMutability": "payable",
      "type": "constructor"
    },
    {
      "anonymous": false,
      "inputs": [
        {
          "indexed": true,
          "internalType": "contract IERC20",
          "name": "token",
          "type": "address"
        },
        {
          "indexed": false,
          "internalType": "address",
          "name": "to",
          "type": "address"
        },
        {
          "indexed": false,
          "internalType": "uint256",
          "name": "amount",
          "type": "uint256"
        }
      ],
      "name": "ERC20PaymentReleased",
      "type": "event"
    },
    {
      "anonymous": false,
      "inputs": [
        {
          "indexed": true,
          "internalType": "contract IERC20",
          "name": "token",
          "type": "address"
        },
        {
          "indexed": false,
          "internalType": "address",
          "name": "by",
          "type": "address"
        },
        {
          "indexed": false,
          "internalType": "uint256",
          "name": "amount",
          "type": "uint256"
        }
      ],
      "name": "ERC20RewardWithdrawn",
      "type": "event"
    },
    {
      "anonymous": false,
      "inputs": [
        {
          "indexed": false,
          "internalType": "uint256",
          "name": "ranking",
          "type": "uint256"
        },
        {
          "indexed": false,
          "internalType": "uint256",
          "name": "shares",
          "type": "uint256"
        }
      ],
      "name": "PayeeAdded",
      "type": "event"
    },
    {
      "anonymous": false,
      "inputs": [
        {
          "indexed": false,
          "internalType": "address",
          "name": "from",
          "type": "address"
        },
        {
          "indexed": false,
          "internalType": "uint256",
          "name": "amount",
          "type": "uint256"
        }
      ],
      "name": "PaymentReceived",
      "type": "event"
    },
    {
      "anonymous": false,
      "inputs": [
        {
          "indexed": false,
          "internalType": "address",
          "name": "to",
          "type": "address"
        },
        {
          "indexed": false,
          "internalType": "uint256",
          "name": "amount",
          "type": "uint256"
        }
      ],
      "name": "PaymentReleased",
      "type": "event"
    },
    {
      "anonymous": false,
      "inputs": [
        {
          "indexed": false,
          "internalType": "address",
          "name": "by",
          "type": "address"
        },
        {
          "indexed": false,
          "internalType": "uint256",
          "name": "amount",
          "type": "uint256"
        }
      ],
      "name": "RewardWithdrawn",
      "type": "event"
    },
    {
      "inputs": [],
      "name": "creator",
      "outputs": [
        {
          "internalType": "address",
          "name": "",
          "type": "address"
        }
      ],
      "stateMutability": "view",
      "type": "function"
    },
    {
      "inputs": [],
      "name": "getPayees",
      "outputs": [
        {
          "internalType": "uint256[]",
          "name": "",
          "type": "uint256[]"
        }
      ],
      "stateMutability": "view",
      "type": "function"
    },
    {
      "inputs": [],
      "name": "highestTiedRanking",
      "outputs": [
        {
          "internalType": "uint256",
          "name": "",
          "type": "uint256"
        }
      ],
      "stateMutability": "view",
      "type": "function"
    },
    {
      "inputs": [
        {
          "internalType": "uint256",
          "name": "ranking",
          "type": "uint256"
        }
      ],
      "name": "isTied",
      "outputs": [
        {
          "internalType": "bool",
          "name": "",
          "type": "bool"
        }
      ],
      "stateMutability": "view",
      "type": "function"
    },
    {
      "inputs": [],
      "name": "lowestRanking",
      "outputs": [
        {
          "internalType": "uint256",
          "name": "",
          "type": "uint256"
        }
      ],
      "stateMutability": "view",
      "type": "function"
    },
    {
      "inputs": [],
      "name": "paysOutTarget",
      "outputs": [
        {
          "internalType": "bool",
          "name": "",
          "type": "bool"
        }
      ],
      "stateMutability": "view",
      "type": "function"
    },
    {
      "inputs": [
        {
          "internalType": "uint256",
          "name": "ranking",
          "type": "uint256"
        }
      ],
      "name": "rankingPosition",
      "outputs": [
        {
          "internalType": "uint256",
          "name": "",
          "type": "uint256"
        }
      ],
      "stateMutability": "view",
      "type": "function"
    },
    {
      "inputs": [
        {
          "internalType": "contract IERC20",
          "name": "token",
          "type": "address"
        },
        {
          "internalType": "uint256",
          "name": "ranking",
          "type": "uint256"
        }
      ],
      "name": "releasable",
      "outputs": [
        {
          "internalType": "uint256",
          "name": "",
          "type": "uint256"
        }
      ],
      "stateMutability": "view",
      "type": "function"
    },
    {
      "inputs": [
        {
          "internalType": "uint256",
          "name": "ranking",
          "type": "uint256"
        }
      ],
      "name": "releasable",
      "outputs": [
        {
          "internalType": "uint256",
          "name": "",
          "type": "uint256"
        }
      ],
      "stateMutability": "view",
      "type": "function"
    },
    {
      "inputs": [
        {
          "internalType": "contract IERC20",
          "name": "token",
          "type": "address"
        },
        {
          "internalType": "uint256",
          "name": "ranking",
          "type": "uint256"
        }
      ],
      "name": "release",
      "outputs": [],
      "stateMutability": "nonpayable",
      "type": "function"
    },
    {
      "inputs": [
        {
          "internalType": "uint256",
          "name": "ranking",
          "type": "uint256"
        }
      ],
      "name": "release",
      "outputs": [],
      "stateMutability": "nonpayable",
      "type": "function"
    },
    {
      "inputs": [
        {
          "internalType": "uint256",
          "name": "ranking",
          "type": "uint256"
        }
      ],
      "name": "released",
      "outputs": [
        {
          "internalType": "uint256",
          "name": "",
          "type": "uint256"
        }
      ],
      "stateMutability": "view",
      "type": "function"
    },
    {
      "inputs": [
        {
          "internalType": "contract IERC20",
          "name": "token",
          "type": "address"
        },
        {
          "internalType": "uint256",
          "name": "ranking",
          "type": "uint256"
        }
      ],
      "name": "released",
      "outputs": [
        {
          "internalType": "uint256",
          "name": "",
          "type": "uint256"
        }
      ],
      "stateMutability": "view",
      "type": "function"
    },
    {
      "inputs": [],
      "name": "setSortedAndTiedProposals",
      "outputs": [],
      "stateMutability": "nonpayable",
      "type": "function"
    },
    {
      "inputs": [
        {
          "internalType": "uint256",
          "name": "ranking",
          "type": "uint256"
        }
      ],
      "name": "shares",
      "outputs": [
        {
          "internalType": "uint256",
          "name": "",
          "type": "uint256"
        }
      ],
      "stateMutability": "view",
      "type": "function"
    },
    {
      "inputs": [],
      "name": "sortedProposalIds",
      "outputs": [
        {
          "internalType": "uint256[]",
          "name": "",
          "type": "uint256[]"
        }
      ],
      "stateMutability": "view",
      "type": "function"
    },
    {
      "inputs": [
        {
          "internalType": "contract IERC20",
          "name": "token",
          "type": "address"
        }
      ],
      "name": "totalReleased",
      "outputs": [
        {
          "internalType": "uint256",
          "name": "",
          "type": "uint256"
        }
      ],
      "stateMutability": "view",
      "type": "function"
    },
    {
      "inputs": [],
      "name": "totalReleased",
      "outputs": [
        {
          "internalType": "uint256",
          "name": "",
          "type": "uint256"
        }
      ],
      "stateMutability": "view",
      "type": "function"
    },
    {
      "inputs": [],
      "name": "totalShares",
      "outputs": [
        {
          "internalType": "uint256",
          "name": "",
          "type": "uint256"
        }
      ],
      "stateMutability": "view",
      "type": "function"
    },
    {
      "inputs": [],
      "name": "underlyingContest",
      "outputs": [
        {
          "internalType": "contract GovernorCountingSimple",
          "name": "",
          "type": "address"
        }
      ],
      "stateMutability": "view",
      "type": "function"
    },
    {
      "inputs": [],
      "name": "version",
      "outputs": [
        {
          "internalType": "string",
          "name": "",
          "type": "string"
        }
      ],
      "stateMutability": "view",
      "type": "function"
    },
    {
      "inputs": [
        {
          "internalType": "contract IERC20",
          "name": "token",
          "type": "address"
        }
      ],
      "name": "withdrawRewards",
      "outputs": [],
      "stateMutability": "nonpayable",
      "type": "function"
    },
    {
      "inputs": [],
      "name": "withdrawRewards",
      "outputs": [],
      "stateMutability": "nonpayable",
      "type": "function"
    },
    {
      "stateMutability": "payable",
      "type": "receive"
    }
  ],
  "bytecode": {
    "object": "0x608060408190526008805460ff60a81b191690556200250f3881900390819083398101604081905262000032916200041d565b8251845114620000a25760405162461bcd60e51b815260206004820152603060248201527f526577617264734d6f64756c653a2070617965657320616e642073686172657360448201526f040d8cadccee8d040dad2e6dac2e8c6d60831b60648201526084015b60405180910390fd5b6000845111620000f55760405162461bcd60e51b815260206004820152601860248201527f526577617264734d6f64756c653a206e6f207061796565730000000000000000604482015260640162000099565b60005b845181101562000161576200014c8582815181106200011b576200011b620004c2565b6020026020010151858381518110620001385762000138620004c2565b6020026020010151620001ab60201b60201c565b806200015881620004ee565b915050620000f8565b5060088054600780546001600160a01b039095166001600160a01b0319958616179055911515600160a01b02929092166001600160a81b0319909116173317905550620005269050565b60008211620002125760405162461bcd60e51b815260206004820152602c60248201527f526577617264734d6f64756c653a2072616e6b696e6720697320302c206d757360448201526b3a1031329033b932b0ba32b960a11b606482015260840162000099565b60008111620002645760405162461bcd60e51b815260206004820152601b60248201527f526577617264734d6f64756c653a207368617265732061726520300000000000604482015260640162000099565b60008281526002602052604090205415620002d45760405162461bcd60e51b815260206004820152602960248201527f526577617264734d6f64756c653a206163636f756e7420616c7265616479206860448201526861732073686172657360b81b606482015260840162000099565b60048054600181019091557f8a35acfbc15ff81a39ae7d344fd709f28e8600b4aa8c65c6b64bfe7fe36bd19b01829055600082815260026020526040812082905554620003239082906200050a565b60005560408051838152602081018390527f78bc0e219b874bf2620f7316737ec16d4bda1bb7136961e4dcb5ff0dc031cee4910160405180910390a15050565b634e487b7160e01b600052604160045260246000fd5b600082601f8301126200038b57600080fd5b815160206001600160401b0380831115620003aa57620003aa62000363565b8260051b604051601f19603f83011681018181108482111715620003d257620003d262000363565b604052938452858101830193838101925087851115620003f157600080fd5b83870191505b848210156200041257815183529183019190830190620003f7565b979650505050505050565b600080600080608085870312156200043457600080fd5b84516001600160401b03808211156200044c57600080fd5b6200045a8883890162000379565b955060208701519150808211156200047157600080fd5b50620004808782880162000379565b604087015190945090506001600160a01b0381168114620004a057600080fd5b60608601519092508015158114620004b757600080fd5b939692955090935050565b634e487b7160e01b600052603260045260246000fd5b634e487b7160e01b600052601160045260246000fd5b600060018201620005035762000503620004d8565b5060010190565b80820180821115620005205762000520620004d8565b92915050565b611fd980620005366000396000f3fe6080604052600436106101445760003560e01c80636ca1a2c7116100b6578063cfe830701161006f578063cfe83070146103db578063d79779b21461041e578063e33b7de314610454578063e4bf01a814610469578063ebc18b9b14610489578063f3f44fb71461049e57600080fd5b80636ca1a2c71461033a578063861874881461034f5780638a9cd5501461036f57806396f0e96214610384578063a94d373b14610399578063c7b8981c146103c657600080fd5b806327f381131161010857806327f381131461026457806337bdc99b146102865780633a98ef39146102a657806342d86693146102bb57806354fd4d50146102db57806357a858fc1461030d57600080fd5b806302d05d3f146101925780630357371d146101c95780631e5b4634146101eb5780632081d631146102165780632399c6601461024457600080fd5b3661018d577f6ef95f06320e7a25a04a175ca677b7052bdd97131872c2192525a629f51be77033604080516001600160a01b0390921682523460208301520160405180910390a1005b600080fd5b34801561019e57600080fd5b506008546001600160a01b03165b6040516001600160a01b0390911681526020015b60405180910390f35b3480156101d557600080fd5b506101e96101e4366004611741565b6104bc565b005b3480156101f757600080fd5b50600854600160a01b900460ff165b60405190151581526020016101c0565b34801561022257600080fd5b50610236610231366004611741565b6107cb565b6040519081526020016101c0565b34801561025057600080fd5b5061020661025f36600461176d565b61089b565b34801561027057600080fd5b506102796108dd565b6040516101c09190611786565b34801561029257600080fd5b506101e96102a136600461176d565b610935565b3480156102b257600080fd5b50600054610236565b3480156102c757600080fd5b506101e96102d63660046117ca565b610c09565b3480156102e757600080fd5b506040805180820182526003815262332e3160e81b602082015290516101c0919061180b565b34801561031957600080fd5b5061023661032836600461176d565b60009081526002602052604090205490565b34801561034657600080fd5b50610236610d6d565b34801561035b57600080fd5b5061023661036a36600461176d565b610da0565b34801561037b57600080fd5b50610279610ddf565b34801561039057600080fd5b506101e9610e5f565b3480156103a557600080fd5b506102366103b436600461176d565b60009081526003602052604090205490565b3480156103d257600080fd5b506101e9611233565b3480156103e757600080fd5b506102366103f6366004611741565b6001600160a01b03919091166000908152600660209081526040808320938352929052205490565b34801561042a57600080fd5b506102366104393660046117ca565b6001600160a01b031660009081526005602052604090205490565b34801561046057600080fd5b50600154610236565b34801561047557600080fd5b5061023661048436600461176d565b6112ba565b34801561049557600080fd5b506102366112f4565b3480156104aa57600080fd5b506007546001600160a01b03166101ac565b806000036104e55760405162461bcd60e51b81526004016104dc9061183e565b60405180910390fd5b6007546040805163c19d93fb60e01b815290516004926001600160a01b03169163c19d93fb918185019160209190819003860181865afa15801561052d573d6000803e3d6000fd5b505050506040513d601f19601f82011682018060405250810190610551919061189f565b600481111561056257610562611889565b1461057f5760405162461bcd60e51b81526004016104dc906118c0565b6000818152600260205260409020546105aa5760405162461bcd60e51b81526004016104dc90611929565b60006105b683836107cb565b9050806000036105d85760405162461bcd60e51b81526004016104dc9061196d565b6001600160a01b038316600090815260056020526040812080548392906106009084906119cc565b90915550506001600160a01b03831660009081526006602090815260408083208584529091529020805482019055600854600160a81b900460ff1661064757610647610e5f565b600c548211156106695760405162461bcd60e51b81526004016104dc906119df565b6007546000838152600b60205260408120546009805492936001600160a01b03169263c7f758a8929081106106a0576106a0611a6c565b90600052602060002001546040518263ffffffff1660e01b81526004016106c991815260200190565b600060405180830381865afa1580156106e6573d6000803e3d6000fd5b505050506040513d6000823e601f3d908101601f1916820160405261070e9190810190611c52565b90506000600d54841061072c576008546001600160a01b031661074b565b600854600160a01b900460ff1661074457815161074b565b6060820151515b90506001600160a01b0381166107735760405162461bcd60e51b81526004016104dc90611d68565b61077e858285611327565b604080516001600160a01b038381168252602082018690528716917f3be5b7a71e84ed12875d241991c70855ac5817d847039e17a9d895c1ceb0f18a910160405180910390a25050505050565b6001600160a01b03821660009081526005602052604081205481906040516370a0823160e01b81523060048201526001600160a01b038616906370a0823190602401602060405180830381865afa15801561082a573d6000803e3d6000fd5b505050506040513d601f19601f8201168201806040525081019061084e9190611db2565b61085891906119cc565b9050610891838261088c87876001600160a01b03919091166000908152600660209081526040808320938352929052205490565b61137e565b9150505b92915050565b600854600090600160a81b900460ff166108c75760405162461bcd60e51b81526004016104dc90611dcb565b506000908152600a602052604090205460ff1690565b6060600480548060200260200160405190810160405280929190818152602001828054801561092b57602002820191906000526020600020905b815481526020019060010190808311610917575b5050505050905090565b806000036109555760405162461bcd60e51b81526004016104dc9061183e565b6007546040805163c19d93fb60e01b815290516004926001600160a01b03169163c19d93fb918185019160209190819003860181865afa15801561099d573d6000803e3d6000fd5b505050506040513d601f19601f820116820180604052508101906109c1919061189f565b60048111156109d2576109d2611889565b146109ef5760405162461bcd60e51b81526004016104dc906118c0565b600081815260026020526040902054610a1a5760405162461bcd60e51b81526004016104dc90611929565b6000610a25826112ba565b905080600003610a475760405162461bcd60e51b81526004016104dc9061196d565b8060016000828254610a5991906119cc565b90915550506000828152600360205260409020805482019055600854600160a81b900460ff16610a8b57610a8b610e5f565b600c54821115610aad5760405162461bcd60e51b81526004016104dc906119df565b6007546000838152600b60205260408120546009805492936001600160a01b03169263c7f758a892908110610ae457610ae4611a6c565b90600052602060002001546040518263ffffffff1660e01b8152600401610b0d91815260200190565b600060405180830381865afa158015610b2a573d6000803e3d6000fd5b505050506040513d6000823e601f3d908101601f19168201604052610b529190810190611c52565b90506000600d548410610b70576008546001600160a01b0316610b8f565b600854600160a01b900460ff16610b88578151610b8f565b6060820151515b90506001600160a01b038116610bb75760405162461bcd60e51b81526004016104dc90611d68565b610bc181846113b8565b604080516001600160a01b0383168152602081018590527fdf20fd1e76bc69d672e4814fafb2c449bba3a5369d8359adf9e05e6fde87b056910160405180910390a150505050565b6008546001600160a01b03163314610c2057600080fd5b610ca381610c366008546001600160a01b031690565b6040516370a0823160e01b81523060048201526001600160a01b038516906370a0823190602401602060405180830381865afa158015610c7a573d6000803e3d6000fd5b505050506040513d601f19601f82011682018060405250810190610c9e9190611db2565b611327565b806001600160a01b03167f6e5fc1cbd1629d9837bd657d23cf585bbc4e9127184972606cc4c0dd406f7572610ce06008546001600160a01b031690565b6040516370a0823160e01b81523060048201526001600160a01b038516906370a0823190602401602060405180830381865afa158015610d24573d6000803e3d6000fd5b505050506040513d601f19601f82011682018060405250810190610d489190611db2565b604080516001600160a01b03909316835260208301919091520160405180910390a250565b600854600090600160a81b900460ff16610d995760405162461bcd60e51b81526004016104dc90611dcb565b50600c5490565b600854600090600160a81b900460ff16610dcc5760405162461bcd60e51b81526004016104dc90611dcb565b506000908152600b602052604090205490565b600854606090600160a81b900460ff16610e0b5760405162461bcd60e51b81526004016104dc90611dcb565b600980548060200260200160405190810160405280929190818152602001828054801561092b5760200282019190600052602060002090815481526020019060010190808311610917575050505050905090565b6007546040805163c19d93fb60e01b815290516004926001600160a01b03169163c19d93fb918185019160209190819003860181865afa158015610ea7573d6000803e3d6000fd5b505050506040513d601f19601f82011682018060405250810190610ecb919061189f565b6004811115610edc57610edc611889565b14610ef95760405162461bcd60e51b81526004016104dc906118c0565b600854600160a81b900460ff1615610f915760405162461bcd60e51b815260206004820152604f60248201527f526577617264734d6f64756c653a20746869732066756e6374696f6e2068617360448201527f20616c7265616479206265656e2072756e20616e64206974732072657370656360648201526e1d1a5d99481d985b1d595cc81cd95d608a1b608482015260a4016104dc565b60075460405163213eab6160e11b8152600160048201526001600160a01b039091169063427d56c290602401600060405180830381865afa158015610fda573d6000803e3d6000fd5b505050506040513d6000823e601f3d908101601f191682016040526110029190810190611e36565b8051611016916009916020909101906116c9565b5060095460009060019061102a90826119cc565b600d5560005b60095481101561121b5760095460009061104c90600190611ebc565b60075490915060009081906001600160a01b031663544ffc9c60096110718787611ebc565b8154811061108157611081611a6c565b90600052602060002001546040518263ffffffff1660e01b81526004016110aa91815260200190565b6040805180830381865afa1580156110c6573d6000803e3d6000fd5b505050506040513d601f19601f820116820180604052508101906110ea9190611ecf565b909250905060006110fb8284611ef3565b9050846000036111455760095490965086906111188660016119cc565b0361113c576111278585611ebc565b6000878152600b6020526040902055600c8690555b50505050611209565b868103611198576000868152600a602052604090205460ff1661117c576000868152600a60205260409020805460ff191660011790555b60095461118a9060016119cc565b600d540361119857600d8690555b8681146111d1576111a98585611ebc565b6111b49060016119cc565b6000878152600b6020526040902055856111cd81611f1a565b9650505b6009546111df8660016119cc565b03611203576111ee8585611ebc565b6000878152600b6020526040902055600c8690555b95505050505b8061121381611f1a565b915050611030565b50506008805460ff60a81b1916600160a81b17905550565b6008546001600160a01b0316331461124a57600080fd5b61126561125f6008546001600160a01b031690565b476113b8565b7f1d3eee4ca001cff39eec6ec7615aacf2f2bd61791273830728ba00ccbd6e13376112986008546001600160a01b031690565b604080516001600160a01b0390921682524760208301520160405180910390a1565b6000806112c660015490565b6112d090476119cc565b90506112ed838261088c8660009081526003602052604090205490565b9392505050565b600854600090600160a81b900460ff166113205760405162461bcd60e51b81526004016104dc90611dcb565b50600d5490565b604080516001600160a01b038416602482015260448082018490528251808303909101815260649091019091526020810180516001600160e01b031663a9059cbb60e01b1790526113799084906114d1565b505050565b600080548482526002602052604082205483919061139c9086611f33565b6113a69190611f4a565b6113b09190611ebc565b949350505050565b804710156114085760405162461bcd60e51b815260206004820152601d60248201527f416464726573733a20696e73756666696369656e742062616c616e636500000060448201526064016104dc565b6000826001600160a01b03168260405160006040518083038185875af1925050503d8060008114611455576040519150601f19603f3d011682016040523d82523d6000602084013e61145a565b606091505b50509050806113795760405162461bcd60e51b815260206004820152603a60248201527f416464726573733a20756e61626c6520746f2073656e642076616c75652c207260448201527f6563697069656e74206d6179206861766520726576657274656400000000000060648201526084016104dc565b6000611526826040518060400160405280602081526020017f5361666545524332303a206c6f772d6c6576656c2063616c6c206661696c6564815250856001600160a01b03166115a69092919063ffffffff16565b90508051600014806115475750808060200190518101906115479190611f6c565b6113795760405162461bcd60e51b815260206004820152602a60248201527f5361666545524332303a204552433230206f7065726174696f6e20646964206e6044820152691bdd081cdd58d8d9595960b21b60648201526084016104dc565b60606113b0848460008585600080866001600160a01b031685876040516115cd9190611f87565b60006040518083038185875af1925050503d806000811461160a576040519150601f19603f3d011682016040523d82523d6000602084013e61160f565b606091505b50915091506116208783838761162b565b979650505050505050565b6060831561169a578251600003611693576001600160a01b0385163b6116935760405162461bcd60e51b815260206004820152601d60248201527f416464726573733a2063616c6c20746f206e6f6e2d636f6e747261637400000060448201526064016104dc565b50816113b0565b6113b083838151156116af5781518083602001fd5b8060405162461bcd60e51b81526004016104dc919061180b565b828054828255906000526020600020908101928215611704579160200282015b828111156117045782518255916020019190600101906116e9565b50611710929150611714565b5090565b5b808211156117105760008155600101611715565b6001600160a01b038116811461173e57600080fd5b50565b6000806040838503121561175457600080fd5b823561175f81611729565b946020939093013593505050565b60006020828403121561177f57600080fd5b5035919050565b6020808252825182820181905260009190848201906040850190845b818110156117be578351835292840192918401916001016117a2565b50909695505050505050565b6000602082840312156117dc57600080fd5b81356112ed81611729565b60005b838110156118025781810151838201526020016117ea565b50506000910152565b602081526000825180602084015261182a8160408501602087016117e7565b601f01601f19169190910160400192915050565b6020808252602b908201527f526577617264734d6f64756c653a2072616e6b696e67206d757374206265203160408201526a1037b91033b932b0ba32b960a91b606082015260800190565b634e487b7160e01b600052602160045260246000fd5b6000602082840312156118b157600080fd5b8151600581106112ed57600080fd5b60208082526043908201527f526577617264734d6f64756c653a20636f6e74657374206d757374206265206360408201527f6f6d706c6574656420666f72207265776172647320746f2062652070616964206060820152621bdd5d60ea1b608082015260a00190565b60208082526024908201527f526577617264734d6f64756c653a2072616e6b696e6720686173206e6f2073686040820152636172657360e01b606082015260800190565b60208082526029908201527f526577617264734d6f64756c653a206163636f756e74206973206e6f7420647560408201526819481c185e5b595b9d60ba1b606082015260800190565b634e487b7160e01b600052601160045260246000fd5b80820180821115610895576108956119b6565b60208082526061908201527f526577617264734d6f64756c653a20746865726520617265206e6f7420656e6f60408201527f7567682070726f706f73616c7320666f7220746861742072616e6b696e67207460608201527f6f2065786973742c2074616b696e67207469657320696e746f206163636f756e6080820152601d60fa1b60a082015260c00190565b634e487b7160e01b600052603260045260246000fd5b634e487b7160e01b600052604160045260246000fd5b6040805190810167ffffffffffffffff81118282101715611abb57611abb611a82565b60405290565b60405160a0810167ffffffffffffffff81118282101715611abb57611abb611a82565b604051601f8201601f1916810167ffffffffffffffff81118282101715611b0d57611b0d611a82565b604052919050565b80518015158114611b2557600080fd5b919050565b600060208284031215611b3c57600080fd5b6040516020810181811067ffffffffffffffff82111715611b5f57611b5f611a82565b80604052508091508251611b7281611729565b905292915050565b600067ffffffffffffffff821115611b9457611b94611a82565b5060051b60200190565b600060408284031215611bb057600080fd5b611bb8611a98565b9050815167ffffffffffffffff811115611bd157600080fd5b8201601f81018413611be257600080fd5b80516020611bf7611bf283611b7a565b611ae4565b82815260059290921b83018101918181019087841115611c1657600080fd5b938201935b83851015611c3d578451611c2e81611729565b82529382019390820190611c1b565b85525093840151938301939093525092915050565b60006020808385031215611c6557600080fd5b825167ffffffffffffffff80821115611c7d57600080fd5b9084019060a08287031215611c9157600080fd5b611c99611ac1565b8251611ca481611729565b81528284015182811115611cb757600080fd5b8301601f81018813611cc857600080fd5b805183811115611cda57611cda611a82565b611cec601f8201601f19168701611ae4565b8181528987838501011115611d0057600080fd5b611d0f828883018986016117e7565b8387015250611d22905060408401611b15565b6040820152611d348760608501611b2a565b60608201526080830151935081841115611d4d57600080fd5b611d5987858501611b9e565b60808201529695505050505050565b6020808252602a908201527f526577617264734d6f64756c653a206163636f756e7420697320746865207a65604082015269726f206164647265737360b01b606082015260800190565b600060208284031215611dc457600080fd5b5051919050565b60208082526045908201527f526577617264734d6f64756c653a2072756e20736574536f72746564416e645460408201527f69656450726f706f73616c73282920746f20706f70756c61746520746869732060608201526476616c756560d81b608082015260a00190565b60006020808385031215611e4957600080fd5b825167ffffffffffffffff811115611e6057600080fd5b8301601f81018513611e7157600080fd5b8051611e7f611bf282611b7a565b81815260059190911b82018301908381019087831115611e9e57600080fd5b928401925b8284101561162057835182529284019290840190611ea3565b81810381811115610895576108956119b6565b60008060408385031215611ee257600080fd5b505080516020909101519092909150565b8181036000831280158383131683831282161715611f1357611f136119b6565b5092915050565b600060018201611f2c57611f2c6119b6565b5060010190565b8082028115828204841417610895576108956119b6565b600082611f6757634e487b7160e01b600052601260045260246000fd5b500490565b600060208284031215611f7e57600080fd5b6112ed82611b15565b60008251611f998184602087016117e7565b919091019291505056fea264697066735822122070eeaf8e735ac9ca95c7d410548b71634b0fe6f4155d3a6907633d3dab9b5de264736f6c63430008120033",
    "linkReferences": {}
  },
  "methodIdentifiers": {
    "creator()": "02d05d3f",
    "getPayees()": "27f38113",
    "highestTiedRanking()": "ebc18b9b",
    "isTied(uint256)": "2399c660",
    "lowestRanking()": "6ca1a2c7",
    "paysOutTarget()": "1e5b4634",
    "rankingPosition(uint256)": "86187488",
    "releasable(address,uint256)": "2081d631",
    "releasable(uint256)": "e4bf01a8",
    "release(address,uint256)": "0357371d",
    "release(uint256)": "37bdc99b",
    "released(address,uint256)": "cfe83070",
    "released(uint256)": "a94d373b",
    "setSortedAndTiedProposals()": "96f0e962",
    "shares(uint256)": "57a858fc",
    "sortedProposalIds()": "8a9cd550",
    "totalReleased()": "e33b7de3",
    "totalReleased(address)": "d79779b2",
    "totalShares()": "3a98ef39",
    "underlyingContest()": "f3f44fb7",
    "version()": "54fd4d50",
    "withdrawRewards()": "c7b8981c",
    "withdrawRewards(address)": "42d86693"
  },
  "id": 43
}