{
  "_format": "hh-sol-artifact-1",
  "contractName": "RewardsModule",
  "sourceName": "contracts/modules/RewardsModule.sol",
  "abi": [
    {
      "inputs": [
        {
          "internalType": "uint256[]",
          "name": "payees",
          "type": "uint256[]"
        },
        {
          "internalType": "uint256[]",
          "name": "shares_",
          "type": "uint256[]"
        },
        {
          "internalType": "contract GovernorCountingSimple",
          "name": "underlyingContest_",
          "type": "address"
        }
      ],
      "stateMutability": "payable",
      "type": "constructor"
    },
    {
      "anonymous": false,
      "inputs": [
        {
          "indexed": true,
          "internalType": "contract IERC20",
          "name": "token",
          "type": "address"
        },
        {
          "indexed": false,
          "internalType": "address",
          "name": "to",
          "type": "address"
        },
        {
          "indexed": false,
          "internalType": "uint256",
          "name": "amount",
          "type": "uint256"
        }
      ],
      "name": "ERC20PaymentReleased",
      "type": "event"
    },
    {
      "anonymous": false,
      "inputs": [
        {
          "indexed": true,
          "internalType": "contract IERC20",
          "name": "token",
          "type": "address"
        },
        {
          "indexed": false,
          "internalType": "address",
          "name": "by",
          "type": "address"
        },
        {
          "indexed": false,
          "internalType": "uint256",
          "name": "amount",
          "type": "uint256"
        }
      ],
      "name": "ERC20RewardWithdrawn",
      "type": "event"
    },
    {
      "anonymous": false,
      "inputs": [
        {
          "indexed": false,
          "internalType": "uint256",
          "name": "ranking",
          "type": "uint256"
        },
        {
          "indexed": false,
          "internalType": "uint256",
          "name": "shares",
          "type": "uint256"
        }
      ],
      "name": "PayeeAdded",
      "type": "event"
    },
    {
      "anonymous": false,
      "inputs": [
        {
          "indexed": false,
          "internalType": "address",
          "name": "from",
          "type": "address"
        },
        {
          "indexed": false,
          "internalType": "uint256",
          "name": "amount",
          "type": "uint256"
        }
      ],
      "name": "PaymentReceived",
      "type": "event"
    },
    {
      "anonymous": false,
      "inputs": [
        {
          "indexed": false,
          "internalType": "address",
          "name": "to",
          "type": "address"
        },
        {
          "indexed": false,
          "internalType": "uint256",
          "name": "amount",
          "type": "uint256"
        }
      ],
      "name": "PaymentReleased",
      "type": "event"
    },
    {
      "anonymous": false,
      "inputs": [
        {
          "indexed": false,
          "internalType": "address",
          "name": "by",
          "type": "address"
        },
        {
          "indexed": false,
          "internalType": "uint256",
          "name": "amount",
          "type": "uint256"
        }
      ],
      "name": "RewardWithdrawn",
      "type": "event"
    },
    {
      "inputs": [],
      "name": "creator",
      "outputs": [
        {
          "internalType": "address",
          "name": "",
          "type": "address"
        }
      ],
      "stateMutability": "view",
      "type": "function"
    },
    {
      "inputs": [],
      "name": "getPayees",
      "outputs": [
        {
          "internalType": "uint256[]",
          "name": "",
          "type": "uint256[]"
        }
      ],
      "stateMutability": "view",
      "type": "function"
    },
    {
      "inputs": [],
      "name": "highestTiedRanking",
      "outputs": [
        {
          "internalType": "uint256",
          "name": "",
          "type": "uint256"
        }
      ],
      "stateMutability": "view",
      "type": "function"
    },
    {
      "inputs": [
        {
          "internalType": "uint256",
          "name": "ranking",
          "type": "uint256"
        }
      ],
      "name": "isTied",
      "outputs": [
        {
          "internalType": "bool",
          "name": "",
          "type": "bool"
        }
      ],
      "stateMutability": "view",
      "type": "function"
    },
    {
      "inputs": [],
      "name": "lowestRanking",
      "outputs": [
        {
          "internalType": "uint256",
          "name": "",
          "type": "uint256"
        }
      ],
      "stateMutability": "view",
      "type": "function"
    },
    {
      "inputs": [
        {
          "internalType": "uint256",
          "name": "ranking",
          "type": "uint256"
        }
      ],
      "name": "rankingPosition",
      "outputs": [
        {
          "internalType": "uint256",
          "name": "",
          "type": "uint256"
        }
      ],
      "stateMutability": "view",
      "type": "function"
    },
    {
      "inputs": [
        {
          "internalType": "contract IERC20",
          "name": "token",
          "type": "address"
        },
        {
          "internalType": "uint256",
          "name": "ranking",
          "type": "uint256"
        }
      ],
      "name": "releasable",
      "outputs": [
        {
          "internalType": "uint256",
          "name": "",
          "type": "uint256"
        }
      ],
      "stateMutability": "view",
      "type": "function"
    },
    {
      "inputs": [
        {
          "internalType": "uint256",
          "name": "ranking",
          "type": "uint256"
        }
      ],
      "name": "releasable",
      "outputs": [
        {
          "internalType": "uint256",
          "name": "",
          "type": "uint256"
        }
      ],
      "stateMutability": "view",
      "type": "function"
    },
    {
      "inputs": [
        {
          "internalType": "contract IERC20",
          "name": "token",
          "type": "address"
        },
        {
          "internalType": "uint256",
          "name": "ranking",
          "type": "uint256"
        }
      ],
      "name": "release",
      "outputs": [],
      "stateMutability": "nonpayable",
      "type": "function"
    },
    {
      "inputs": [
        {
          "internalType": "uint256",
          "name": "ranking",
          "type": "uint256"
        }
      ],
      "name": "release",
      "outputs": [],
      "stateMutability": "nonpayable",
      "type": "function"
    },
    {
      "inputs": [
        {
          "internalType": "uint256",
          "name": "ranking",
          "type": "uint256"
        }
      ],
      "name": "released",
      "outputs": [
        {
          "internalType": "uint256",
          "name": "",
          "type": "uint256"
        }
      ],
      "stateMutability": "view",
      "type": "function"
    },
    {
      "inputs": [
        {
          "internalType": "contract IERC20",
          "name": "token",
          "type": "address"
        },
        {
          "internalType": "uint256",
          "name": "ranking",
          "type": "uint256"
        }
      ],
      "name": "released",
      "outputs": [
        {
          "internalType": "uint256",
          "name": "",
          "type": "uint256"
        }
      ],
      "stateMutability": "view",
      "type": "function"
    },
    {
      "inputs": [],
      "name": "setSortedAndTiedProposals",
      "outputs": [],
      "stateMutability": "nonpayable",
      "type": "function"
    },
    {
      "inputs": [
        {
          "internalType": "uint256",
          "name": "ranking",
          "type": "uint256"
        }
      ],
      "name": "shares",
      "outputs": [
        {
          "internalType": "uint256",
          "name": "",
          "type": "uint256"
        }
      ],
      "stateMutability": "view",
      "type": "function"
    },
    {
      "inputs": [],
      "name": "sortedProposalIds",
      "outputs": [
        {
          "internalType": "uint256[]",
          "name": "",
          "type": "uint256[]"
        }
      ],
      "stateMutability": "view",
      "type": "function"
    },
    {
      "inputs": [
        {
          "internalType": "contract IERC20",
          "name": "token",
          "type": "address"
        }
      ],
      "name": "totalReleased",
      "outputs": [
        {
          "internalType": "uint256",
          "name": "",
          "type": "uint256"
        }
      ],
      "stateMutability": "view",
      "type": "function"
    },
    {
      "inputs": [],
      "name": "totalReleased",
      "outputs": [
        {
          "internalType": "uint256",
          "name": "",
          "type": "uint256"
        }
      ],
      "stateMutability": "view",
      "type": "function"
    },
    {
      "inputs": [],
      "name": "totalShares",
      "outputs": [
        {
          "internalType": "uint256",
          "name": "",
          "type": "uint256"
        }
      ],
      "stateMutability": "view",
      "type": "function"
    },
    {
      "inputs": [],
      "name": "underlyingContest",
      "outputs": [
        {
          "internalType": "contract GovernorCountingSimple",
          "name": "",
          "type": "address"
        }
      ],
      "stateMutability": "view",
      "type": "function"
    },
    {
      "inputs": [
        {
          "internalType": "contract IERC20",
          "name": "token",
          "type": "address"
        }
      ],
      "name": "withdrawRewards",
      "outputs": [],
      "stateMutability": "nonpayable",
      "type": "function"
    },
    {
      "inputs": [],
      "name": "withdrawRewards",
      "outputs": [],
      "stateMutability": "nonpayable",
      "type": "function"
    },
    {
      "stateMutability": "payable",
      "type": "receive"
    }
  ],
  "bytecode": "0x608060408190526008805460ff60a01b19169055620023e03881900390819083398101604081905262000032916200040b565b8151835114620000a25760405162461bcd60e51b815260206004820152603060248201527f526577617264734d6f64756c653a2070617965657320616e642073686172657360448201526f040d8cadccee8d040dad2e6dac2e8c6d60831b60648201526084015b60405180910390fd5b6000835111620000f55760405162461bcd60e51b815260206004820152601860248201527f526577617264734d6f64756c653a206e6f207061796565730000000000000000604482015260640162000099565b60005b83518110156200017957620001648482815181106200012757634e487b7160e01b600052603260045260246000fd5b60200260200101518483815181106200015057634e487b7160e01b600052603260045260246000fd5b6020026020010151620001ac60201b60201c565b806200017081620004af565b915050620000f8565b50600780546001600160a01b039092166001600160a01b0319928316179055600880549091163317905550620004f99050565b60008211620002135760405162461bcd60e51b815260206004820152602c60248201527f526577617264734d6f64756c653a2072616e6b696e6720697320302c206d757360448201526b3a1031329033b932b0ba32b960a11b606482015260840162000099565b60008111620002655760405162461bcd60e51b815260206004820152601b60248201527f526577617264734d6f64756c653a207368617265732061726520300000000000604482015260640162000099565b60008281526002602052604090205415620002d55760405162461bcd60e51b815260206004820152602960248201527f526577617264734d6f64756c653a206163636f756e7420616c7265616479206860448201526861732073686172657360b81b606482015260840162000099565b60048054600181019091557f8a35acfbc15ff81a39ae7d344fd709f28e8600b4aa8c65c6b64bfe7fe36bd19b018290556000828152600260205260408120829055546200032490829062000494565b60005560408051838152602081018390527f78bc0e219b874bf2620f7316737ec16d4bda1bb7136961e4dcb5ff0dc031cee4910160405180910390a15050565b600082601f83011262000375578081fd5b815160206001600160401b0380831115620003945762000394620004e3565b8260051b604051601f19603f83011681018181108482111715620003bc57620003bc620004e3565b60405284815283810192508684018288018501891015620003db578687fd5b8692505b85831015620003ff578051845292840192600192909201918401620003df565b50979650505050505050565b60008060006060848603121562000420578283fd5b83516001600160401b038082111562000437578485fd5b620004458783880162000364565b945060208601519150808211156200045b578384fd5b506200046a8682870162000364565b604086015190935090506001600160a01b038116811462000489578182fd5b809150509250925092565b60008219821115620004aa57620004aa620004cd565b500190565b6000600019821415620004c657620004c6620004cd565b5060010190565b634e487b7160e01b600052601160045260246000fd5b634e487b7160e01b600052604160045260246000fd5b611ed780620005096000396000f3fe60806040526004361061012e5760003560e01c806386187488116100ab578063cfe830701161006f578063cfe8307014610378578063d79779b2146103bb578063e33b7de3146103f1578063e4bf01a814610406578063ebc18b9b14610426578063f3f44fb71461043b57600080fd5b806386187488146102ec5780638a9cd5501461030c57806396f0e96214610321578063a94d373b14610336578063c7b8981c1461036357600080fd5b806337bdc99b116100f257806337bdc99b146102555780633a98ef391461027557806342d866931461028a57806357a858fc146102aa5780636ca1a2c7146102d757600080fd5b806302d05d3f1461017c5780630357371d146101b35780632081d631146101d55780632399c6601461020357806327f381131461023357600080fd5b36610177577f6ef95f06320e7a25a04a175ca677b7052bdd97131872c2192525a629f51be77033604080516001600160a01b0390921682523460208301520160405180910390a1005b600080fd5b34801561018857600080fd5b506008546001600160a01b03165b6040516001600160a01b0390911681526020015b60405180910390f35b3480156101bf57600080fd5b506101d36101ce3660046118c1565b610459565b005b3480156101e157600080fd5b506101f56101f03660046118c1565b6107b8565b6040519081526020016101aa565b34801561020f57600080fd5b5061022361021e3660046119e6565b610895565b60405190151581526020016101aa565b34801561023f57600080fd5b506102486108d7565b6040516101aa9190611a55565b34801561026157600080fd5b506101d36102703660046119e6565b61092f565b34801561028157600080fd5b506000546101f5565b34801561029657600080fd5b506101d36102a53660046118a5565b610c53565b3480156102b657600080fd5b506101f56102c53660046119e6565b60009081526002602052604090205490565b3480156102e357600080fd5b506101f5610dd5565b3480156102f857600080fd5b506101f56103073660046119e6565b610e08565b34801561031857600080fd5b50610248610e47565b34801561032d57600080fd5b506101d3610ec7565b34801561034257600080fd5b506101f56103513660046119e6565b60009081526003602052604090205490565b34801561036f57600080fd5b506101d36112f2565b34801561038457600080fd5b506101f56103933660046118c1565b6001600160a01b03919091166000908152600660209081526040808320938352929052205490565b3480156103c757600080fd5b506101f56103d63660046118a5565b6001600160a01b031660009081526005602052604090205490565b3480156103fd57600080fd5b506001546101f5565b34801561041257600080fd5b506101f56104213660046119e6565b611379565b34801561043257600080fd5b506101f56113b3565b34801561044757600080fd5b506007546001600160a01b0316610196565b8061047f5760405162461bcd60e51b815260040161047690611acc565b60405180910390fd5b6007546040805163c19d93fb60e01b815290516004926001600160a01b03169163c19d93fb91818501916020919081900386018186803b1580156104c257600080fd5b505afa1580156104d6573d6000803e3d6000fd5b505050506040513d601f19601f820116820180604052508101906104fa91906118ec565b600481111561051957634e487b7160e01b600052602160045260246000fd5b146105365760405162461bcd60e51b815260040161047690611b82565b60008181526002602052604090205461059d5760405162461bcd60e51b8152602060048201526024808201527f526577617264734d6f64756c653a206163636f756e7420686173206e6f2073686044820152636172657360e01b6064820152608401610476565b60006105a983836107b8565b9050806105c85760405162461bcd60e51b815260040161047690611beb565b6001600160a01b038316600090815260056020526040812080548392906105f0908490611d65565b90915550506001600160a01b03831660009081526006602090815260408083208584529091529020805482019055600854600160a01b900460ff1661063757610637610ec7565b600c548211156106595760405162461bcd60e51b815260040161047690611c7e565b6000600d548310610675576008546001600160a01b0316610739565b6007546000848152600b6020526040902054600980546001600160a01b039093169263c7f758a8929081106106ba57634e487b7160e01b600052603260045260246000fd5b90600052602060002001546040518263ffffffff1660e01b81526004016106e391815260200190565b60006040518083038186803b1580156106fb57600080fd5b505afa15801561070f573d6000803e3d6000fd5b505050506040513d6000823e601f3d908101601f19168201604052610737919081019061190b565b515b90506001600160a01b0381166107615760405162461bcd60e51b815260040161047690611c34565b61076c8482846113e6565b604080516001600160a01b038381168252602082018590528616917f3be5b7a71e84ed12875d241991c70855ac5817d847039e17a9d895c1ceb0f18a910160405180910390a250505050565b6001600160a01b03821660009081526005602052604081205481906040516370a0823160e01b81523060048201526001600160a01b038616906370a082319060240160206040518083038186803b15801561081257600080fd5b505afa158015610826573d6000803e3d6000fd5b505050506040513d601f19601f8201168201806040525081019061084a91906119fe565b6108549190611d65565b905061088d838261088887876001600160a01b03919091166000908152600660209081526040808320938352929052205490565b61143d565b949350505050565b600854600090600160a01b900460ff166108c15760405162461bcd60e51b815260040161047690611b17565b506000908152600a602052604090205460ff1690565b6060600480548060200260200160405190810160405280929190818152602001828054801561092557602002820191906000526020600020905b815481526020019060010190808311610911575b5050505050905090565b8061094c5760405162461bcd60e51b815260040161047690611acc565b6007546040805163c19d93fb60e01b815290516004926001600160a01b03169163c19d93fb91818501916020919081900386018186803b15801561098f57600080fd5b505afa1580156109a3573d6000803e3d6000fd5b505050506040513d601f19601f820116820180604052508101906109c791906118ec565b60048111156109e657634e487b7160e01b600052602160045260246000fd5b14610a035760405162461bcd60e51b815260040161047690611b82565b600081815260026020526040902054610a6a5760405162461bcd60e51b8152602060048201526024808201527f526577617264734d6f64756c653a2072616e6b696e6720686173206e6f2073686044820152636172657360e01b6064820152608401610476565b6000610a7582611379565b905080610a945760405162461bcd60e51b815260040161047690611beb565b8060016000828254610aa69190611d65565b90915550506000828152600360205260409020805482019055600854600160a01b900460ff16610ad857610ad8610ec7565b600c54821115610afa5760405162461bcd60e51b815260040161047690611c7e565b6000600d548310610b16576008546001600160a01b0316610bda565b6007546000848152600b6020526040902054600980546001600160a01b039093169263c7f758a892908110610b5b57634e487b7160e01b600052603260045260246000fd5b90600052602060002001546040518263ffffffff1660e01b8152600401610b8491815260200190565b60006040518083038186803b158015610b9c57600080fd5b505afa158015610bb0573d6000803e3d6000fd5b505050506040513d6000823e601f3d908101601f19168201604052610bd8919081019061190b565b515b90506001600160a01b038116610c025760405162461bcd60e51b815260040161047690611c34565b610c0c818361146f565b604080516001600160a01b0383168152602081018490527fdf20fd1e76bc69d672e4814fafb2c449bba3a5369d8359adf9e05e6fde87b056910160405180910390a1505050565b6008546001600160a01b03163314610c6a57600080fd5b610cfc81610c806008546001600160a01b031690565b6040516370a0823160e01b81523060048201526001600160a01b038516906370a082319060240160206040518083038186803b158015610cbf57600080fd5b505afa158015610cd3573d6000803e3d6000fd5b505050506040513d601f19601f82011682018060405250810190610cf791906119fe565b6113e6565b806001600160a01b03167f6e5fc1cbd1629d9837bd657d23cf585bbc4e9127184972606cc4c0dd406f7572610d396008546001600160a01b031690565b6040516370a0823160e01b81523060048201526001600160a01b038516906370a082319060240160206040518083038186803b158015610d7857600080fd5b505afa158015610d8c573d6000803e3d6000fd5b505050506040513d601f19601f82011682018060405250810190610db091906119fe565b604080516001600160a01b03909316835260208301919091520160405180910390a250565b600854600090600160a01b900460ff16610e015760405162461bcd60e51b815260040161047690611b17565b50600c5490565b600854600090600160a01b900460ff16610e345760405162461bcd60e51b815260040161047690611b17565b506000908152600b602052604090205490565b600854606090600160a01b900460ff16610e735760405162461bcd60e51b815260040161047690611b17565b60098054806020026020016040519081016040528092919081815260200182805480156109255760200282019190600052602060002090815481526020019060010190808311610911575050505050905090565b6007546040805163c19d93fb60e01b815290516004926001600160a01b03169163c19d93fb91818501916020919081900386018186803b158015610f0a57600080fd5b505afa158015610f1e573d6000803e3d6000fd5b505050506040513d601f19601f82011682018060405250810190610f4291906118ec565b6004811115610f6157634e487b7160e01b600052602160045260246000fd5b14610f7e5760405162461bcd60e51b815260040161047690611b82565b600854600160a01b900460ff161561105b5760405162461bcd60e51b815260206004820152608860248201527f526577617264734d6f64756c653a20746869732066756e6374696f6e2068617360448201527f20616c7265616479206265656e2072756e20616e64206974732072657370656360648201527f746976652076616c75657320736574202874686573652076616c75657320776960848201527f6c6c206e6f74206368616e6765206f6e6365206120636f6e746573742069732060a482015267636f6d706c65746560c01b60c482015260e401610476565b60075460405163213eab6160e11b8152600160048201526001600160a01b039091169063427d56c29060240160006040518083038186803b15801561109f57600080fd5b505afa1580156110b3573d6000803e3d6000fd5b505050506040513d6000823e601f3d908101601f191682016040526110db91908101906117e3565b80516110ef9160099160209091019061176e565b506009546000906001906111039082611d65565b600d5560005b6009548110156112da5760095460009061112590600190611dfb565b60075490915060009081906001600160a01b031663544ffc9c600961114a8787611dfb565b8154811061116857634e487b7160e01b600052603260045260246000fd5b90600052602060002001546040518263ffffffff1660e01b815260040161119191815260200190565b604080518083038186803b1580156111a857600080fd5b505afa1580156111bc573d6000803e3d6000fd5b505050506040513d601f19601f820116820180604052508101906111e09190611a16565b909250905060006111f18284611dbc565b9050846112035795506112c892505050565b8681141561125d576000868152600a602052604090205460ff1661123b576000868152600a60205260409020805460ff191660011790555b600954611249906001611d65565b600d54141561125857600d8690555b61128f565b6112678585611dfb565b611272906001611d65565b6000878152600b60205260409020558561128b81611e42565b9650505b60095461129d866001611d65565b14156112c2576112ad8585611dfb565b6000878152600b6020526040902055600c8690555b95505050505b806112d281611e42565b915050611109565b50506008805460ff60a01b1916600160a01b17905550565b6008546001600160a01b0316331461130957600080fd5b61132461131e6008546001600160a01b031690565b4761146f565b7f1d3eee4ca001cff39eec6ec7615aacf2f2bd61791273830728ba00ccbd6e13376113576008546001600160a01b031690565b604080516001600160a01b0390921682524760208301520160405180910390a1565b60008061138560015490565b61138f9047611d65565b90506113ac83826108888660009081526003602052604090205490565b9392505050565b600854600090600160a01b900460ff166113df5760405162461bcd60e51b815260040161047690611b17565b50600d5490565b604080516001600160a01b038416602482015260448082018490528251808303909101815260649091019091526020810180516001600160e01b031663a9059cbb60e01b179052611438908490611588565b505050565b600080548482526002602052604082205483919061145b9086611d9d565b6114659190611d7d565b61088d9190611dfb565b804710156114bf5760405162461bcd60e51b815260206004820152601d60248201527f416464726573733a20696e73756666696369656e742062616c616e63650000006044820152606401610476565b6000826001600160a01b03168260405160006040518083038185875af1925050503d806000811461150c576040519150601f19603f3d011682016040523d82523d6000602084013e611511565b606091505b50509050806114385760405162461bcd60e51b815260206004820152603a60248201527f416464726573733a20756e61626c6520746f2073656e642076616c75652c207260448201527f6563697069656e74206d617920686176652072657665727465640000000000006064820152608401610476565b60006115dd826040518060400160405280602081526020017f5361666545524332303a206c6f772d6c6576656c2063616c6c206661696c6564815250856001600160a01b031661165a9092919063ffffffff16565b80519091501561143857808060200190518101906115fb919061188b565b6114385760405162461bcd60e51b815260206004820152602a60248201527f5361666545524332303a204552433230206f7065726174696f6e20646964206e6044820152691bdd081cdd58d8d9595960b21b6064820152608401610476565b606061088d8484600085856001600160a01b0385163b6116bc5760405162461bcd60e51b815260206004820152601d60248201527f416464726573733a2063616c6c20746f206e6f6e2d636f6e74726163740000006044820152606401610476565b600080866001600160a01b031685876040516116d89190611a39565b60006040518083038185875af1925050503d8060008114611715576040519150601f19603f3d011682016040523d82523d6000602084013e61171a565b606091505b509150915061172a828286611735565b979650505050505050565b606083156117445750816113ac565b8251156117545782518084602001fd5b8160405162461bcd60e51b81526004016104769190611a99565b8280548282559060005260206000209081019282156117a9579160200282015b828111156117a957825182559160200191906001019061178e565b506117b59291506117b9565b5090565b5b808211156117b557600081556001016117ba565b805180151581146117de57600080fd5b919050565b600060208083850312156117f5578182fd5b825167ffffffffffffffff8082111561180c578384fd5b818501915085601f83011261181f578384fd5b81518181111561183157611831611e73565b8060051b9150611842848301611d34565b8181528481019084860184860187018a101561185c578788fd5b8795505b8386101561187e578051835260019590950194918601918601611860565b5098975050505050505050565b60006020828403121561189c578081fd5b6113ac826117ce565b6000602082840312156118b6578081fd5b81356113ac81611e89565b600080604083850312156118d3578081fd5b82356118de81611e89565b946020939093013593505050565b6000602082840312156118fd578081fd5b8151600581106113ac578182fd5b6000602080838503121561191d578182fd5b825167ffffffffffffffff80821115611934578384fd5b9084019060608287031215611947578384fd5b61194f611d0b565b825161195a81611e89565b8152828401518281111561196c578586fd5b8301601f8101881361197c578586fd5b80518381111561198e5761198e611e73565b6119a0601f8201601f19168701611d34565b935080845288868284010111156119b5578687fd5b6119c481878601888501611e12565b505081848201526119d7604084016117ce565b60408201529695505050505050565b6000602082840312156119f7578081fd5b5035919050565b600060208284031215611a0f578081fd5b5051919050565b60008060408385031215611a28578182fd5b505080516020909101519092909150565b60008251611a4b818460208701611e12565b9190910192915050565b6020808252825182820181905260009190848201906040850190845b81811015611a8d57835183529284019291840191600101611a71565b50909695505050505050565b6020815260008251806020840152611ab8816040850160208701611e12565b601f01601f19169190910160400192915050565b6020808252602b908201527f526577617264734d6f64756c653a2072616e6b696e67206d757374206265203160408201526a1037b91033b932b0ba32b960a91b606082015260800190565b60208082526045908201527f526577617264734d6f64756c653a2072756e20736574536f72746564416e645460408201527f69656450726f706f73616c73282920746f20706f70756c61746520746869732060608201526476616c756560d81b608082015260a00190565b60208082526043908201527f526577617264734d6f64756c653a20636f6e74657374206d757374206265206360408201527f6f6d706c6574656420666f72207265776172647320746f2062652070616964206060820152621bdd5d60ea1b608082015260a00190565b60208082526029908201527f526577617264734d6f64756c653a206163636f756e74206973206e6f7420647560408201526819481c185e5b595b9d60ba1b606082015260800190565b6020808252602a908201527f526577617264734d6f64756c653a206163636f756e7420697320746865207a65604082015269726f206164647265737360b01b606082015260800190565b60208082526061908201527f526577617264734d6f64756c653a20746865726520617265206e6f7420656e6f60408201527f7567682070726f706f73616c7320666f7220746861742072616e6b696e67207460608201527f6f2065786973742c2074616b696e67207469657320696e746f206163636f756e6080820152601d60fa1b60a082015260c00190565b6040516060810167ffffffffffffffff81118282101715611d2e57611d2e611e73565b60405290565b604051601f8201601f1916810167ffffffffffffffff81118282101715611d5d57611d5d611e73565b604052919050565b60008219821115611d7857611d78611e5d565b500190565b600082611d9857634e487b7160e01b81526012600452602481fd5b500490565b6000816000190483118215151615611db757611db7611e5d565b500290565b60008083128015600160ff1b850184121615611dda57611dda611e5d565b6001600160ff1b0384018313811615611df557611df5611e5d565b50500390565b600082821015611e0d57611e0d611e5d565b500390565b60005b83811015611e2d578181015183820152602001611e15565b83811115611e3c576000848401525b50505050565b6000600019821415611e5657611e56611e5d565b5060010190565b634e487b7160e01b600052601160045260246000fd5b634e487b7160e01b600052604160045260246000fd5b6001600160a01b0381168114611e9e57600080fd5b5056fea264697066735822122003bc83d4c7668d49c3e47f922205f3eb6fb178b0c750c31128fc1242220b3e3964736f6c63430008040033",
  "linkReferences": {},
  "deployedLinkReferences": {}
}