{
  "_format": "hh-sol-artifact-1",
  "contractName": "RewardsModule",
  "sourceName": "contracts/modules/RewardsModule.sol",
  "abi": [
    {
      "inputs": [
        {
          "internalType": "uint256[]",
          "name": "payees",
          "type": "uint256[]"
        },
        {
          "internalType": "uint256[]",
          "name": "shares_",
          "type": "uint256[]"
        },
        {
          "internalType": "contract GovernorCountingSimple",
          "name": "underlyingContest_",
          "type": "address"
        }
      ],
      "stateMutability": "payable",
      "type": "constructor"
    },
    {
      "anonymous": false,
      "inputs": [
        {
          "indexed": true,
          "internalType": "contract IERC20",
          "name": "token",
          "type": "address"
        },
        {
          "indexed": false,
          "internalType": "address",
          "name": "to",
          "type": "address"
        },
        {
          "indexed": false,
          "internalType": "uint256",
          "name": "amount",
          "type": "uint256"
        }
      ],
      "name": "ERC20PaymentReleased",
      "type": "event"
    },
    {
      "anonymous": false,
      "inputs": [
        {
          "indexed": true,
          "internalType": "contract IERC20",
          "name": "token",
          "type": "address"
        },
        {
          "indexed": false,
          "internalType": "address",
          "name": "by",
          "type": "address"
        },
        {
          "indexed": false,
          "internalType": "uint256",
          "name": "amount",
          "type": "uint256"
        }
      ],
      "name": "ERC20RewardWithdrawn",
      "type": "event"
    },
    {
      "anonymous": false,
      "inputs": [
        {
          "indexed": false,
          "internalType": "uint256",
          "name": "ranking",
          "type": "uint256"
        },
        {
          "indexed": false,
          "internalType": "uint256",
          "name": "shares",
          "type": "uint256"
        }
      ],
      "name": "PayeeAdded",
      "type": "event"
    },
    {
      "anonymous": false,
      "inputs": [
        {
          "indexed": false,
          "internalType": "address",
          "name": "from",
          "type": "address"
        },
        {
          "indexed": false,
          "internalType": "uint256",
          "name": "amount",
          "type": "uint256"
        }
      ],
      "name": "PaymentReceived",
      "type": "event"
    },
    {
      "anonymous": false,
      "inputs": [
        {
          "indexed": false,
          "internalType": "address",
          "name": "to",
          "type": "address"
        },
        {
          "indexed": false,
          "internalType": "uint256",
          "name": "amount",
          "type": "uint256"
        }
      ],
      "name": "PaymentReleased",
      "type": "event"
    },
    {
      "anonymous": false,
      "inputs": [
        {
          "indexed": false,
          "internalType": "address",
          "name": "by",
          "type": "address"
        },
        {
          "indexed": false,
          "internalType": "uint256",
          "name": "amount",
          "type": "uint256"
        }
      ],
      "name": "RewardWithdrawn",
      "type": "event"
    },
    {
      "inputs": [],
      "name": "creator",
      "outputs": [
        {
          "internalType": "address",
          "name": "",
          "type": "address"
        }
      ],
      "stateMutability": "view",
      "type": "function"
    },
    {
      "inputs": [],
      "name": "getPayees",
      "outputs": [
        {
          "internalType": "uint256[]",
          "name": "",
          "type": "uint256[]"
        }
      ],
      "stateMutability": "view",
      "type": "function"
    },
    {
      "inputs": [
        {
          "internalType": "contract IERC20",
          "name": "token",
          "type": "address"
        },
        {
          "internalType": "uint256",
          "name": "ranking",
          "type": "uint256"
        }
      ],
      "name": "releasable",
      "outputs": [
        {
          "internalType": "uint256",
          "name": "",
          "type": "uint256"
        }
      ],
      "stateMutability": "view",
      "type": "function"
    },
    {
      "inputs": [
        {
          "internalType": "uint256",
          "name": "ranking",
          "type": "uint256"
        }
      ],
      "name": "releasable",
      "outputs": [
        {
          "internalType": "uint256",
          "name": "",
          "type": "uint256"
        }
      ],
      "stateMutability": "view",
      "type": "function"
    },
    {
      "inputs": [
        {
          "internalType": "contract IERC20",
          "name": "token",
          "type": "address"
        },
        {
          "internalType": "uint256",
          "name": "ranking",
          "type": "uint256"
        }
      ],
      "name": "release",
      "outputs": [],
      "stateMutability": "nonpayable",
      "type": "function"
    },
    {
      "inputs": [
        {
          "internalType": "uint256",
          "name": "ranking",
          "type": "uint256"
        }
      ],
      "name": "release",
      "outputs": [],
      "stateMutability": "nonpayable",
      "type": "function"
    },
    {
      "inputs": [
        {
          "internalType": "uint256",
          "name": "ranking",
          "type": "uint256"
        }
      ],
      "name": "released",
      "outputs": [
        {
          "internalType": "uint256",
          "name": "",
          "type": "uint256"
        }
      ],
      "stateMutability": "view",
      "type": "function"
    },
    {
      "inputs": [
        {
          "internalType": "contract IERC20",
          "name": "token",
          "type": "address"
        },
        {
          "internalType": "uint256",
          "name": "ranking",
          "type": "uint256"
        }
      ],
      "name": "released",
      "outputs": [
        {
          "internalType": "uint256",
          "name": "",
          "type": "uint256"
        }
      ],
      "stateMutability": "view",
      "type": "function"
    },
    {
      "inputs": [
        {
          "internalType": "uint256",
          "name": "ranking",
          "type": "uint256"
        }
      ],
      "name": "shares",
      "outputs": [
        {
          "internalType": "uint256",
          "name": "",
          "type": "uint256"
        }
      ],
      "stateMutability": "view",
      "type": "function"
    },
    {
      "inputs": [
        {
          "internalType": "contract IERC20",
          "name": "token",
          "type": "address"
        }
      ],
      "name": "totalReleased",
      "outputs": [
        {
          "internalType": "uint256",
          "name": "",
          "type": "uint256"
        }
      ],
      "stateMutability": "view",
      "type": "function"
    },
    {
      "inputs": [],
      "name": "totalReleased",
      "outputs": [
        {
          "internalType": "uint256",
          "name": "",
          "type": "uint256"
        }
      ],
      "stateMutability": "view",
      "type": "function"
    },
    {
      "inputs": [],
      "name": "totalShares",
      "outputs": [
        {
          "internalType": "uint256",
          "name": "",
          "type": "uint256"
        }
      ],
      "stateMutability": "view",
      "type": "function"
    },
    {
      "inputs": [],
      "name": "underlyingContest",
      "outputs": [
        {
          "internalType": "contract GovernorCountingSimple",
          "name": "",
          "type": "address"
        }
      ],
      "stateMutability": "view",
      "type": "function"
    },
    {
      "inputs": [
        {
          "internalType": "contract IERC20",
          "name": "token",
          "type": "address"
        }
      ],
      "name": "withdrawRewards",
      "outputs": [],
      "stateMutability": "nonpayable",
      "type": "function"
    },
    {
      "inputs": [],
      "name": "withdrawRewards",
      "outputs": [],
      "stateMutability": "nonpayable",
      "type": "function"
    },
    {
      "stateMutability": "payable",
      "type": "receive"
    }
  ],
  "bytecode": "0x608060405260405162001d9038038062001d9083398101604081905262000026916200044d565b8151835114620000965760405162461bcd60e51b815260206004820152603060248201527f526577617264734d6f64756c653a2070617965657320616e642073686172657360448201526f040d8cadccee8d040dad2e6dac2e8c6d60831b60648201526084015b60405180910390fd5b6000835111620000e95760405162461bcd60e51b815260206004820152601860248201527f526577617264734d6f64756c653a206e6f20706179656573000000000000000060448201526064016200008d565b60005b83518110156200016d57620001588482815181106200011b57634e487b7160e01b600052603260045260246000fd5b60200260200101518483815181106200014457634e487b7160e01b600052603260045260246000fd5b6020026020010151620001a060201b60201c565b806200016481620004f1565b915050620000ec565b50600780546001600160a01b039092166001600160a01b03199283161790556008805490911633179055506200053b9050565b60008211620002075760405162461bcd60e51b815260206004820152602c60248201527f526577617264734d6f64756c653a2072616e6b696e6720697320302c206d757360448201526b3a1031329033b932b0ba32b960a11b60648201526084016200008d565b60008111620002595760405162461bcd60e51b815260206004820152601b60248201527f526577617264734d6f64756c653a20736861726573206172652030000000000060448201526064016200008d565b60008281526002602052604090205415620002b85760405162461bcd60e51b8152602060048201526029602482015260008051602062001d7083398151915260448201526861732073686172657360b81b60648201526084016200008d565b60008281526002602052604090205415620003175760405162461bcd60e51b8152602060048201526029602482015260008051602062001d7083398151915260448201526861732073686172657360b81b60648201526084016200008d565b60048054600181019091557f8a35acfbc15ff81a39ae7d344fd709f28e8600b4aa8c65c6b64bfe7fe36bd19b0182905560008281526002602052604081208290555462000366908290620004d6565b60005560408051838152602081018390527f78bc0e219b874bf2620f7316737ec16d4bda1bb7136961e4dcb5ff0dc031cee4910160405180910390a15050565b600082601f830112620003b7578081fd5b815160206001600160401b0380831115620003d657620003d662000525565b8260051b604051601f19603f83011681018181108482111715620003fe57620003fe62000525565b604052848152838101925086840182880185018910156200041d578687fd5b8692505b858310156200044157805184529284019260019290920191840162000421565b50979650505050505050565b60008060006060848603121562000462578283fd5b83516001600160401b038082111562000479578485fd5b6200048787838801620003a6565b945060208601519150808211156200049d578384fd5b50620004ac86828701620003a6565b604086015190935090506001600160a01b0381168114620004cb578182fd5b809150509250925092565b60008219821115620004ec57620004ec6200050f565b500190565b60006000198214156200050857620005086200050f565b5060010190565b634e487b7160e01b600052601160045260246000fd5b634e487b7160e01b600052604160045260246000fd5b611825806200054b6000396000f3fe6080604052600436106100ec5760003560e01c806357a858fc1161008a578063d79779b211610059578063d79779b2146102ea578063e33b7de314610320578063e4bf01a814610335578063f3f44fb71461035557600080fd5b806357a858fc14610238578063a94d373b14610265578063c7b8981c14610292578063cfe83070146102a757600080fd5b806327f38113116100c657806327f38113146101c157806337bdc99b146101e35780633a98ef391461020357806342d866931461021857600080fd5b806302d05d3f1461013a5780630357371d146101715780632081d6311461019357600080fd5b36610135577f6ef95f06320e7a25a04a175ca677b7052bdd97131872c2192525a629f51be77033604080516001600160a01b0390921682523460208301520160405180910390a1005b600080fd5b34801561014657600080fd5b506008546001600160a01b03165b6040516001600160a01b0390911681526020015b60405180910390f35b34801561017d57600080fd5b5061019161018c366004611317565b610373565b005b34801561019f57600080fd5b506101b36101ae366004611317565b610739565b604051908152602001610168565b3480156101cd57600080fd5b506101d6610816565b6040516101689190611488565b3480156101ef57600080fd5b506101916101fe36600461143c565b61086e565b34801561020f57600080fd5b506000546101b3565b34801561022457600080fd5b506101916102333660046112fb565b610bf9565b34801561024457600080fd5b506101b361025336600461143c565b60009081526002602052604090205490565b34801561027157600080fd5b506101b361028036600461143c565b60009081526003602052604090205490565b34801561029e57600080fd5b50610191610d7b565b3480156102b357600080fd5b506101b36102c2366004611317565b6001600160a01b03919091166000908152600660209081526040808320938352929052205490565b3480156102f657600080fd5b506101b36103053660046112fb565b6001600160a01b031660009081526005602052604090205490565b34801561032c57600080fd5b506001546101b3565b34801561034157600080fd5b506101b361035036600461143c565b610e02565b34801561036157600080fd5b506007546001600160a01b0316610154565b806103995760405162461bcd60e51b81526004016103909061156c565b60405180910390fd5b6007546040805163c19d93fb60e01b815290516003926001600160a01b03169163c19d93fb916004808301926020929190829003018186803b1580156103de57600080fd5b505afa1580156103f2573d6000803e3d6000fd5b505050506040513d601f19601f820116820180604052508101906104169190611342565b600381111561043557634e487b7160e01b600052602160045260246000fd5b146104525760405162461bcd60e51b8152600401610390906115b7565b6000818152600260205260409020546104b95760405162461bcd60e51b8152602060048201526024808201527f526577617264734d6f64756c653a206163636f756e7420686173206e6f2073686044820152636172657360e01b6064820152608401610390565b60006104c58383610739565b9050806104e45760405162461bcd60e51b815260040161039090611620565b6001600160a01b0383166000908152600560205260408120805483929061050c90849061170d565b90915550506001600160a01b038316600090815260066020908152604080832085845290915290208054820190556009546105d75760075460405163213eab6160e11b8152600160048201526001600160a01b039091169063427d56c29060240160006040518083038186803b15801561058557600080fd5b505afa158015610599573d6000803e3d6000fd5b505050506040513d6000823e601f3d908101601f191682016040526105c19190810190611239565b80516105d5916009916020909101906111c4565b505b6009548211156105f95760405162461bcd60e51b8152600401610390906114ff565b600754600980546000926001600160a01b03169163c7f758a89161061e908790611764565b8154811061063c57634e487b7160e01b600052603260045260246000fd5b90600052602060002001546040518263ffffffff1660e01b815260040161066591815260200190565b60006040518083038186803b15801561067d57600080fd5b505afa158015610691573d6000803e3d6000fd5b505050506040513d6000823e601f3d908101601f191682016040526106b99190810190611361565b5190506001600160a01b0381166106e25760405162461bcd60e51b815260040161039090611669565b6106ed848284610e3c565b604080516001600160a01b038381168252602082018590528616917f3be5b7a71e84ed12875d241991c70855ac5817d847039e17a9d895c1ceb0f18a910160405180910390a250505050565b6001600160a01b03821660009081526005602052604081205481906040516370a0823160e01b81523060048201526001600160a01b038616906370a082319060240160206040518083038186803b15801561079357600080fd5b505afa1580156107a7573d6000803e3d6000fd5b505050506040513d601f19601f820116820180604052508101906107cb9190611454565b6107d5919061170d565b905061080e838261080987876001600160a01b03919091166000908152600660209081526040808320938352929052205490565b610e93565b949350505050565b6060600480548060200260200160405190810160405280929190818152602001828054801561086457602002820191906000526020600020905b815481526020019060010190808311610850575b5050505050905090565b8061088b5760405162461bcd60e51b81526004016103909061156c565b6007546040805163c19d93fb60e01b815290516003926001600160a01b03169163c19d93fb916004808301926020929190829003018186803b1580156108d057600080fd5b505afa1580156108e4573d6000803e3d6000fd5b505050506040513d601f19601f820116820180604052508101906109089190611342565b600381111561092757634e487b7160e01b600052602160045260246000fd5b146109445760405162461bcd60e51b8152600401610390906115b7565b6000818152600260205260409020546109ab5760405162461bcd60e51b8152602060048201526024808201527f526577617264734d6f64756c653a2072616e6b696e6720686173206e6f2073686044820152636172657360e01b6064820152608401610390565b60006109b682610e02565b9050806109d55760405162461bcd60e51b815260040161039090611620565b80600160008282546109e7919061170d565b90915550506000828152600360205260409020805482019055600954610a9d5760075460405163213eab6160e11b8152600160048201526001600160a01b039091169063427d56c29060240160006040518083038186803b158015610a4b57600080fd5b505afa158015610a5f573d6000803e3d6000fd5b505050506040513d6000823e601f3d908101601f19168201604052610a879190810190611239565b8051610a9b916009916020909101906111c4565b505b600954821115610abf5760405162461bcd60e51b8152600401610390906114ff565b600754600980546000926001600160a01b03169163c7f758a891610ae4908790611764565b81548110610b0257634e487b7160e01b600052603260045260246000fd5b90600052602060002001546040518263ffffffff1660e01b8152600401610b2b91815260200190565b60006040518083038186803b158015610b4357600080fd5b505afa158015610b57573d6000803e3d6000fd5b505050506040513d6000823e601f3d908101601f19168201604052610b7f9190810190611361565b5190506001600160a01b038116610ba85760405162461bcd60e51b815260040161039090611669565b610bb28183610ec5565b604080516001600160a01b0383168152602081018490527fdf20fd1e76bc69d672e4814fafb2c449bba3a5369d8359adf9e05e6fde87b056910160405180910390a1505050565b6008546001600160a01b03163314610c1057600080fd5b610ca281610c266008546001600160a01b031690565b6040516370a0823160e01b81523060048201526001600160a01b038516906370a082319060240160206040518083038186803b158015610c6557600080fd5b505afa158015610c79573d6000803e3d6000fd5b505050506040513d601f19601f82011682018060405250810190610c9d9190611454565b610e3c565b806001600160a01b03167f6e5fc1cbd1629d9837bd657d23cf585bbc4e9127184972606cc4c0dd406f7572610cdf6008546001600160a01b031690565b6040516370a0823160e01b81523060048201526001600160a01b038516906370a082319060240160206040518083038186803b158015610d1e57600080fd5b505afa158015610d32573d6000803e3d6000fd5b505050506040513d601f19601f82011682018060405250810190610d569190611454565b604080516001600160a01b03909316835260208301919091520160405180910390a250565b6008546001600160a01b03163314610d9257600080fd5b610dad610da76008546001600160a01b031690565b47610ec5565b7f1d3eee4ca001cff39eec6ec7615aacf2f2bd61791273830728ba00ccbd6e1337610de06008546001600160a01b031690565b604080516001600160a01b0390921682524760208301520160405180910390a1565b600080610e0e60015490565b610e18904761170d565b9050610e3583826108098660009081526003602052604090205490565b9392505050565b604080516001600160a01b038416602482015260448082018490528251808303909101815260649091019091526020810180516001600160e01b031663a9059cbb60e01b179052610e8e908490610fde565b505050565b6000805484825260026020526040822054839190610eb19086611745565b610ebb9190611725565b61080e9190611764565b80471015610f155760405162461bcd60e51b815260206004820152601d60248201527f416464726573733a20696e73756666696369656e742062616c616e63650000006044820152606401610390565b6000826001600160a01b03168260405160006040518083038185875af1925050503d8060008114610f62576040519150601f19603f3d011682016040523d82523d6000602084013e610f67565b606091505b5050905080610e8e5760405162461bcd60e51b815260206004820152603a60248201527f416464726573733a20756e61626c6520746f2073656e642076616c75652c207260448201527f6563697069656e74206d617920686176652072657665727465640000000000006064820152608401610390565b6000611033826040518060400160405280602081526020017f5361666545524332303a206c6f772d6c6576656c2063616c6c206661696c6564815250856001600160a01b03166110b09092919063ffffffff16565b805190915015610e8e578080602001905181019061105191906112e1565b610e8e5760405162461bcd60e51b815260206004820152602a60248201527f5361666545524332303a204552433230206f7065726174696f6e20646964206e6044820152691bdd081cdd58d8d9595960b21b6064820152608401610390565b606061080e8484600085856001600160a01b0385163b6111125760405162461bcd60e51b815260206004820152601d60248201527f416464726573733a2063616c6c20746f206e6f6e2d636f6e74726163740000006044820152606401610390565b600080866001600160a01b0316858760405161112e919061146c565b60006040518083038185875af1925050503d806000811461116b576040519150601f19603f3d011682016040523d82523d6000602084013e611170565b606091505b509150915061118082828661118b565b979650505050505050565b6060831561119a575081610e35565b8251156111aa5782518084602001fd5b8160405162461bcd60e51b815260040161039091906114cc565b8280548282559060005260206000209081019282156111ff579160200282015b828111156111ff5782518255916020019190600101906111e4565b5061120b92915061120f565b5090565b5b8082111561120b5760008155600101611210565b8051801515811461123457600080fd5b919050565b6000602080838503121561124b578182fd5b825167ffffffffffffffff80821115611262578384fd5b818501915085601f830112611275578384fd5b815181811115611287576112876117c1565b8060051b91506112988483016116dc565b8181528481019084860184860187018a10156112b2578788fd5b8795505b838610156112d45780518352600195909501949186019186016112b6565b5098975050505050505050565b6000602082840312156112f2578081fd5b610e3582611224565b60006020828403121561130c578081fd5b8135610e35816117d7565b60008060408385031215611329578081fd5b8235611334816117d7565b946020939093013593505050565b600060208284031215611353578081fd5b815160048110610e35578182fd5b60006020808385031215611373578182fd5b825167ffffffffffffffff8082111561138a578384fd5b908401906060828703121561139d578384fd5b6113a56116b3565b82516113b0816117d7565b815282840151828111156113c2578586fd5b8301601f810188136113d2578586fd5b8051838111156113e4576113e46117c1565b6113f6601f8201601f191687016116dc565b9350808452888682840101111561140b578687fd5b61141a8187860188850161177b565b5050818482015261142d60408401611224565b60408201529695505050505050565b60006020828403121561144d578081fd5b5035919050565b600060208284031215611465578081fd5b5051919050565b6000825161147e81846020870161177b565b9190910192915050565b6020808252825182820181905260009190848201906040850190845b818110156114c0578351835292840192918401916001016114a4565b50909695505050505050565b60208152600082518060208401526114eb81604085016020870161177b565b601f01601f19169190910160400192915050565b60208082526047908201527f526577617264734d6f64756c653a20746865726520617265206e6f7420656e6f60408201527f7567682070726f706f73616c7320666f7220746861742072616e6b696e6720746060820152661bc8195e1a5cdd60ca1b608082015260a00190565b6020808252602b908201527f526577617264734d6f64756c653a2072616e6b696e67206d757374206265203160408201526a1037b91033b932b0ba32b960a91b606082015260800190565b60208082526043908201527f526577617264734d6f64756c653a20636f6e74657374206d757374206265206360408201527f6f6d706c6574656420666f72207265776172647320746f2062652070616964206060820152621bdd5d60ea1b608082015260a00190565b60208082526029908201527f526577617264734d6f64756c653a206163636f756e74206973206e6f7420647560408201526819481c185e5b595b9d60ba1b606082015260800190565b6020808252602a908201527f526577617264734d6f64756c653a206163636f756e7420697320746865207a65604082015269726f206164647265737360b01b606082015260800190565b6040516060810167ffffffffffffffff811182821017156116d6576116d66117c1565b60405290565b604051601f8201601f1916810167ffffffffffffffff81118282101715611705576117056117c1565b604052919050565b60008219821115611720576117206117ab565b500190565b60008261174057634e487b7160e01b81526012600452602481fd5b500490565b600081600019048311821515161561175f5761175f6117ab565b500290565b600082821015611776576117766117ab565b500390565b60005b8381101561179657818101518382015260200161177e565b838111156117a5576000848401525b50505050565b634e487b7160e01b600052601160045260246000fd5b634e487b7160e01b600052604160045260246000fd5b6001600160a01b03811681146117ec57600080fd5b5056fea2646970667358221220eab720acbfe5eda02214146410f96caeaf6a89f019c2b9a7acdbfc2c406636dd64736f6c63430008040033526577617264734d6f64756c653a206163636f756e7420616c72656164792068",
  "linkReferences": {},
  "deployedLinkReferences": {}
}