{
  "_format": "hh-sol-artifact-1",
  "contractName": "RewardsModule",
  "sourceName": "contracts/modules/RewardsModule.sol",
  "abi": [
    {
      "inputs": [
        {
          "internalType": "uint256[]",
          "name": "payees",
          "type": "uint256[]"
        },
        {
          "internalType": "uint256[]",
          "name": "shares_",
          "type": "uint256[]"
        },
        {
          "internalType": "contract GovernorCountingSimple",
          "name": "underlyingContest_",
          "type": "address"
        }
      ],
      "stateMutability": "payable",
      "type": "constructor"
    },
    {
      "anonymous": false,
      "inputs": [
        {
          "indexed": true,
          "internalType": "contract IERC20",
          "name": "token",
          "type": "address"
        },
        {
          "indexed": false,
          "internalType": "address",
          "name": "to",
          "type": "address"
        },
        {
          "indexed": false,
          "internalType": "uint256",
          "name": "amount",
          "type": "uint256"
        }
      ],
      "name": "ERC20PaymentReleased",
      "type": "event"
    },
    {
      "anonymous": false,
      "inputs": [
        {
          "indexed": true,
          "internalType": "contract IERC20",
          "name": "token",
          "type": "address"
        },
        {
          "indexed": false,
          "internalType": "address",
          "name": "by",
          "type": "address"
        },
        {
          "indexed": false,
          "internalType": "uint256",
          "name": "amount",
          "type": "uint256"
        }
      ],
      "name": "ERC20RewardWithdrawn",
      "type": "event"
    },
    {
      "anonymous": false,
      "inputs": [
        {
          "indexed": false,
          "internalType": "uint256",
          "name": "ranking",
          "type": "uint256"
        },
        {
          "indexed": false,
          "internalType": "uint256",
          "name": "shares",
          "type": "uint256"
        }
      ],
      "name": "PayeeAdded",
      "type": "event"
    },
    {
      "anonymous": false,
      "inputs": [
        {
          "indexed": false,
          "internalType": "address",
          "name": "from",
          "type": "address"
        },
        {
          "indexed": false,
          "internalType": "uint256",
          "name": "amount",
          "type": "uint256"
        }
      ],
      "name": "PaymentReceived",
      "type": "event"
    },
    {
      "anonymous": false,
      "inputs": [
        {
          "indexed": false,
          "internalType": "address",
          "name": "to",
          "type": "address"
        },
        {
          "indexed": false,
          "internalType": "uint256",
          "name": "amount",
          "type": "uint256"
        }
      ],
      "name": "PaymentReleased",
      "type": "event"
    },
    {
      "anonymous": false,
      "inputs": [
        {
          "indexed": false,
          "internalType": "address",
          "name": "by",
          "type": "address"
        },
        {
          "indexed": false,
          "internalType": "uint256",
          "name": "amount",
          "type": "uint256"
        }
      ],
      "name": "RewardWithdrawn",
      "type": "event"
    },
    {
      "inputs": [],
      "name": "creator",
      "outputs": [
        {
          "internalType": "address",
          "name": "",
          "type": "address"
        }
      ],
      "stateMutability": "view",
      "type": "function"
    },
    {
      "inputs": [],
      "name": "getPayees",
      "outputs": [
        {
          "internalType": "uint256[]",
          "name": "",
          "type": "uint256[]"
        }
      ],
      "stateMutability": "view",
      "type": "function"
    },
    {
      "inputs": [
        {
          "internalType": "contract IERC20",
          "name": "token",
          "type": "address"
        },
        {
          "internalType": "uint256",
          "name": "ranking",
          "type": "uint256"
        }
      ],
      "name": "releasable",
      "outputs": [
        {
          "internalType": "uint256",
          "name": "",
          "type": "uint256"
        }
      ],
      "stateMutability": "view",
      "type": "function"
    },
    {
      "inputs": [
        {
          "internalType": "uint256",
          "name": "ranking",
          "type": "uint256"
        }
      ],
      "name": "releasable",
      "outputs": [
        {
          "internalType": "uint256",
          "name": "",
          "type": "uint256"
        }
      ],
      "stateMutability": "view",
      "type": "function"
    },
    {
      "inputs": [
        {
          "internalType": "contract IERC20",
          "name": "token",
          "type": "address"
        },
        {
          "internalType": "uint256",
          "name": "ranking",
          "type": "uint256"
        }
      ],
      "name": "release",
      "outputs": [],
      "stateMutability": "nonpayable",
      "type": "function"
    },
    {
      "inputs": [
        {
          "internalType": "uint256",
          "name": "ranking",
          "type": "uint256"
        }
      ],
      "name": "release",
      "outputs": [],
      "stateMutability": "nonpayable",
      "type": "function"
    },
    {
      "inputs": [
        {
          "internalType": "uint256",
          "name": "ranking",
          "type": "uint256"
        }
      ],
      "name": "released",
      "outputs": [
        {
          "internalType": "uint256",
          "name": "",
          "type": "uint256"
        }
      ],
      "stateMutability": "view",
      "type": "function"
    },
    {
      "inputs": [
        {
          "internalType": "contract IERC20",
          "name": "token",
          "type": "address"
        },
        {
          "internalType": "uint256",
          "name": "ranking",
          "type": "uint256"
        }
      ],
      "name": "released",
      "outputs": [
        {
          "internalType": "uint256",
          "name": "",
          "type": "uint256"
        }
      ],
      "stateMutability": "view",
      "type": "function"
    },
    {
      "inputs": [
        {
          "internalType": "uint256",
          "name": "ranking",
          "type": "uint256"
        }
      ],
      "name": "shares",
      "outputs": [
        {
          "internalType": "uint256",
          "name": "",
          "type": "uint256"
        }
      ],
      "stateMutability": "view",
      "type": "function"
    },
    {
      "inputs": [
        {
          "internalType": "contract IERC20",
          "name": "token",
          "type": "address"
        }
      ],
      "name": "totalReleased",
      "outputs": [
        {
          "internalType": "uint256",
          "name": "",
          "type": "uint256"
        }
      ],
      "stateMutability": "view",
      "type": "function"
    },
    {
      "inputs": [],
      "name": "totalReleased",
      "outputs": [
        {
          "internalType": "uint256",
          "name": "",
          "type": "uint256"
        }
      ],
      "stateMutability": "view",
      "type": "function"
    },
    {
      "inputs": [],
      "name": "totalShares",
      "outputs": [
        {
          "internalType": "uint256",
          "name": "",
          "type": "uint256"
        }
      ],
      "stateMutability": "view",
      "type": "function"
    },
    {
      "inputs": [],
      "name": "underlyingContest",
      "outputs": [
        {
          "internalType": "contract GovernorCountingSimple",
          "name": "",
          "type": "address"
        }
      ],
      "stateMutability": "view",
      "type": "function"
    },
    {
      "inputs": [
        {
          "internalType": "contract IERC20",
          "name": "token",
          "type": "address"
        }
      ],
      "name": "withdrawRewards",
      "outputs": [],
      "stateMutability": "nonpayable",
      "type": "function"
    },
    {
      "inputs": [],
      "name": "withdrawRewards",
      "outputs": [],
      "stateMutability": "nonpayable",
      "type": "function"
    },
    {
      "stateMutability": "payable",
      "type": "receive"
    }
  ],
  "bytecode": "0x608060405260405162001d9c38038062001d9c83398101604081905262000026916200044d565b8151835114620000965760405162461bcd60e51b815260206004820152603060248201527f526577617264734d6f64756c653a2070617965657320616e642073686172657360448201526f040d8cadccee8d040dad2e6dac2e8c6d60831b60648201526084015b60405180910390fd5b6000835111620000e95760405162461bcd60e51b815260206004820152601860248201527f526577617264734d6f64756c653a206e6f20706179656573000000000000000060448201526064016200008d565b60005b83518110156200016d57620001588482815181106200011b57634e487b7160e01b600052603260045260246000fd5b60200260200101518483815181106200014457634e487b7160e01b600052603260045260246000fd5b6020026020010151620001a060201b60201c565b806200016481620004f1565b915050620000ec565b50600780546001600160a01b039092166001600160a01b03199283161790556008805490911633179055506200053b9050565b60008211620002075760405162461bcd60e51b815260206004820152602c60248201527f526577617264734d6f64756c653a2072616e6b696e6720697320302c206d757360448201526b3a1031329033b932b0ba32b960a11b60648201526084016200008d565b60008111620002595760405162461bcd60e51b815260206004820152601b60248201527f526577617264734d6f64756c653a20736861726573206172652030000000000060448201526064016200008d565b60008281526002602052604090205415620002b85760405162461bcd60e51b8152602060048201526029602482015260008051602062001d7c83398151915260448201526861732073686172657360b81b60648201526084016200008d565b60008281526002602052604090205415620003175760405162461bcd60e51b8152602060048201526029602482015260008051602062001d7c83398151915260448201526861732073686172657360b81b60648201526084016200008d565b60048054600181019091557f8a35acfbc15ff81a39ae7d344fd709f28e8600b4aa8c65c6b64bfe7fe36bd19b0182905560008281526002602052604081208290555462000366908290620004d6565b60005560408051838152602081018390527f78bc0e219b874bf2620f7316737ec16d4bda1bb7136961e4dcb5ff0dc031cee4910160405180910390a15050565b600082601f830112620003b7578081fd5b815160206001600160401b0380831115620003d657620003d662000525565b8260051b604051601f19603f83011681018181108482111715620003fe57620003fe62000525565b604052848152838101925086840182880185018910156200041d578687fd5b8692505b858310156200044157805184529284019260019290920191840162000421565b50979650505050505050565b60008060006060848603121562000462578283fd5b83516001600160401b038082111562000479578485fd5b6200048787838801620003a6565b945060208601519150808211156200049d578384fd5b50620004ac86828701620003a6565b604086015190935090506001600160a01b0381168114620004cb578182fd5b809150509250925092565b60008219821115620004ec57620004ec6200050f565b500190565b60006000198214156200050857620005086200050f565b5060010190565b634e487b7160e01b600052601160045260246000fd5b634e487b7160e01b600052604160045260246000fd5b611831806200054b6000396000f3fe6080604052600436106100ec5760003560e01c806357a858fc1161008a578063d79779b211610059578063d79779b2146102ea578063e33b7de314610320578063e4bf01a814610335578063f3f44fb71461035557600080fd5b806357a858fc14610238578063a94d373b14610265578063c7b8981c14610292578063cfe83070146102a757600080fd5b806327f38113116100c657806327f38113146101c157806337bdc99b146101e35780633a98ef391461020357806342d866931461021857600080fd5b806302d05d3f1461013a5780630357371d146101715780632081d6311461019357600080fd5b36610135577f6ef95f06320e7a25a04a175ca677b7052bdd97131872c2192525a629f51be77033604080516001600160a01b0390921682523460208301520160405180910390a1005b600080fd5b34801561014657600080fd5b506008546001600160a01b03165b6040516001600160a01b0390911681526020015b60405180910390f35b34801561017d57600080fd5b5061019161018c366004611323565b610373565b005b34801561019f57600080fd5b506101b36101ae366004611323565b61073f565b604051908152602001610168565b3480156101cd57600080fd5b506101d661081c565b6040516101689190611494565b3480156101ef57600080fd5b506101916101fe366004611448565b610874565b34801561020f57600080fd5b506000546101b3565b34801561022457600080fd5b50610191610233366004611307565b610c05565b34801561024457600080fd5b506101b3610253366004611448565b60009081526002602052604090205490565b34801561027157600080fd5b506101b3610280366004611448565b60009081526003602052604090205490565b34801561029e57600080fd5b50610191610d87565b3480156102b357600080fd5b506101b36102c2366004611323565b6001600160a01b03919091166000908152600660209081526040808320938352929052205490565b3480156102f657600080fd5b506101b3610305366004611307565b6001600160a01b031660009081526005602052604090205490565b34801561032c57600080fd5b506001546101b3565b34801561034157600080fd5b506101b3610350366004611448565b610e0e565b34801561036157600080fd5b506007546001600160a01b0316610154565b806103995760405162461bcd60e51b815260040161039090611578565b60405180910390fd5b6007546040805163c19d93fb60e01b815290516003926001600160a01b03169163c19d93fb916004808301926020929190829003018186803b1580156103de57600080fd5b505afa1580156103f2573d6000803e3d6000fd5b505050506040513d601f19601f82011682018060405250810190610416919061134e565b600381111561043557634e487b7160e01b600052602160045260246000fd5b146104525760405162461bcd60e51b8152600401610390906115c3565b6000818152600260205260409020546104b95760405162461bcd60e51b8152602060048201526024808201527f526577617264734d6f64756c653a206163636f756e7420686173206e6f2073686044820152636172657360e01b6064820152608401610390565b60006104c5838361073f565b9050806104e45760405162461bcd60e51b81526004016103909061162c565b6001600160a01b0383166000908152600560205260408120805483929061050c908490611719565b90915550506001600160a01b038316600090815260066020908152604080832085845290915290208054820190556009546105d75760075460405163f23ffcd360e01b8152600160048201526001600160a01b039091169063f23ffcd39060240160006040518083038186803b15801561058557600080fd5b505afa158015610599573d6000803e3d6000fd5b505050506040513d6000823e601f3d908101601f191682016040526105c19190810190611245565b80516105d5916009916020909101906111d0565b505b6009546105e5906001611719565b82106106035760405162461bcd60e51b81526004016103909061150b565b6007546000906001600160a01b031663c7f758a86009610624600187611770565b8154811061064257634e487b7160e01b600052603260045260246000fd5b90600052602060002001546040518263ffffffff1660e01b815260040161066b91815260200190565b60006040518083038186803b15801561068357600080fd5b505afa158015610697573d6000803e3d6000fd5b505050506040513d6000823e601f3d908101601f191682016040526106bf919081019061136d565b5190506001600160a01b0381166106e85760405162461bcd60e51b815260040161039090611675565b6106f3848284610e48565b604080516001600160a01b038381168252602082018590528616917f3be5b7a71e84ed12875d241991c70855ac5817d847039e17a9d895c1ceb0f18a910160405180910390a250505050565b6001600160a01b03821660009081526005602052604081205481906040516370a0823160e01b81523060048201526001600160a01b038616906370a082319060240160206040518083038186803b15801561079957600080fd5b505afa1580156107ad573d6000803e3d6000fd5b505050506040513d601f19601f820116820180604052508101906107d19190611460565b6107db9190611719565b9050610814838261080f87876001600160a01b03919091166000908152600660209081526040808320938352929052205490565b610e9f565b949350505050565b6060600480548060200260200160405190810160405280929190818152602001828054801561086a57602002820191906000526020600020905b815481526020019060010190808311610856575b5050505050905090565b806108915760405162461bcd60e51b815260040161039090611578565b6007546040805163c19d93fb60e01b815290516003926001600160a01b03169163c19d93fb916004808301926020929190829003018186803b1580156108d657600080fd5b505afa1580156108ea573d6000803e3d6000fd5b505050506040513d601f19601f8201168201806040525081019061090e919061134e565b600381111561092d57634e487b7160e01b600052602160045260246000fd5b1461094a5760405162461bcd60e51b8152600401610390906115c3565b6000818152600260205260409020546109b15760405162461bcd60e51b8152602060048201526024808201527f526577617264734d6f64756c653a2072616e6b696e6720686173206e6f2073686044820152636172657360e01b6064820152608401610390565b60006109bc82610e0e565b9050806109db5760405162461bcd60e51b81526004016103909061162c565b80600160008282546109ed9190611719565b90915550506000828152600360205260409020805482019055600954610aa35760075460405163f23ffcd360e01b8152600160048201526001600160a01b039091169063f23ffcd39060240160006040518083038186803b158015610a5157600080fd5b505afa158015610a65573d6000803e3d6000fd5b505050506040513d6000823e601f3d908101601f19168201604052610a8d9190810190611245565b8051610aa1916009916020909101906111d0565b505b600954610ab1906001611719565b8210610acf5760405162461bcd60e51b81526004016103909061150b565b6007546000906001600160a01b031663c7f758a86009610af0600187611770565b81548110610b0e57634e487b7160e01b600052603260045260246000fd5b90600052602060002001546040518263ffffffff1660e01b8152600401610b3791815260200190565b60006040518083038186803b158015610b4f57600080fd5b505afa158015610b63573d6000803e3d6000fd5b505050506040513d6000823e601f3d908101601f19168201604052610b8b919081019061136d565b5190506001600160a01b038116610bb45760405162461bcd60e51b815260040161039090611675565b610bbe8183610ed1565b604080516001600160a01b0383168152602081018490527fdf20fd1e76bc69d672e4814fafb2c449bba3a5369d8359adf9e05e6fde87b056910160405180910390a1505050565b6008546001600160a01b03163314610c1c57600080fd5b610cae81610c326008546001600160a01b031690565b6040516370a0823160e01b81523060048201526001600160a01b038516906370a082319060240160206040518083038186803b158015610c7157600080fd5b505afa158015610c85573d6000803e3d6000fd5b505050506040513d601f19601f82011682018060405250810190610ca99190611460565b610e48565b806001600160a01b03167f6e5fc1cbd1629d9837bd657d23cf585bbc4e9127184972606cc4c0dd406f7572610ceb6008546001600160a01b031690565b6040516370a0823160e01b81523060048201526001600160a01b038516906370a082319060240160206040518083038186803b158015610d2a57600080fd5b505afa158015610d3e573d6000803e3d6000fd5b505050506040513d601f19601f82011682018060405250810190610d629190611460565b604080516001600160a01b03909316835260208301919091520160405180910390a250565b6008546001600160a01b03163314610d9e57600080fd5b610db9610db36008546001600160a01b031690565b47610ed1565b7f1d3eee4ca001cff39eec6ec7615aacf2f2bd61791273830728ba00ccbd6e1337610dec6008546001600160a01b031690565b604080516001600160a01b0390921682524760208301520160405180910390a1565b600080610e1a60015490565b610e249047611719565b9050610e41838261080f8660009081526003602052604090205490565b9392505050565b604080516001600160a01b038416602482015260448082018490528251808303909101815260649091019091526020810180516001600160e01b031663a9059cbb60e01b179052610e9a908490610fea565b505050565b6000805484825260026020526040822054839190610ebd9086611751565b610ec79190611731565b6108149190611770565b80471015610f215760405162461bcd60e51b815260206004820152601d60248201527f416464726573733a20696e73756666696369656e742062616c616e63650000006044820152606401610390565b6000826001600160a01b03168260405160006040518083038185875af1925050503d8060008114610f6e576040519150601f19603f3d011682016040523d82523d6000602084013e610f73565b606091505b5050905080610e9a5760405162461bcd60e51b815260206004820152603a60248201527f416464726573733a20756e61626c6520746f2073656e642076616c75652c207260448201527f6563697069656e74206d617920686176652072657665727465640000000000006064820152608401610390565b600061103f826040518060400160405280602081526020017f5361666545524332303a206c6f772d6c6576656c2063616c6c206661696c6564815250856001600160a01b03166110bc9092919063ffffffff16565b805190915015610e9a578080602001905181019061105d91906112ed565b610e9a5760405162461bcd60e51b815260206004820152602a60248201527f5361666545524332303a204552433230206f7065726174696f6e20646964206e6044820152691bdd081cdd58d8d9595960b21b6064820152608401610390565b60606108148484600085856001600160a01b0385163b61111e5760405162461bcd60e51b815260206004820152601d60248201527f416464726573733a2063616c6c20746f206e6f6e2d636f6e74726163740000006044820152606401610390565b600080866001600160a01b0316858760405161113a9190611478565b60006040518083038185875af1925050503d8060008114611177576040519150601f19603f3d011682016040523d82523d6000602084013e61117c565b606091505b509150915061118c828286611197565b979650505050505050565b606083156111a6575081610e41565b8251156111b65782518084602001fd5b8160405162461bcd60e51b815260040161039091906114d8565b82805482825590600052602060002090810192821561120b579160200282015b8281111561120b5782518255916020019190600101906111f0565b5061121792915061121b565b5090565b5b80821115611217576000815560010161121c565b8051801515811461124057600080fd5b919050565b60006020808385031215611257578182fd5b825167ffffffffffffffff8082111561126e578384fd5b818501915085601f830112611281578384fd5b815181811115611293576112936117cd565b8060051b91506112a48483016116e8565b8181528481019084860184860187018a10156112be578788fd5b8795505b838610156112e05780518352600195909501949186019186016112c2565b5098975050505050505050565b6000602082840312156112fe578081fd5b610e4182611230565b600060208284031215611318578081fd5b8135610e41816117e3565b60008060408385031215611335578081fd5b8235611340816117e3565b946020939093013593505050565b60006020828403121561135f578081fd5b815160048110610e41578182fd5b6000602080838503121561137f578182fd5b825167ffffffffffffffff80821115611396578384fd5b90840190606082870312156113a9578384fd5b6113b16116bf565b82516113bc816117e3565b815282840151828111156113ce578586fd5b8301601f810188136113de578586fd5b8051838111156113f0576113f06117cd565b611402601f8201601f191687016116e8565b93508084528886828401011115611417578687fd5b61142681878601888501611787565b5050818482015261143960408401611230565b60408201529695505050505050565b600060208284031215611459578081fd5b5035919050565b600060208284031215611471578081fd5b5051919050565b6000825161148a818460208701611787565b9190910192915050565b6020808252825182820181905260009190848201906040850190845b818110156114cc578351835292840192918401916001016114b0565b50909695505050505050565b60208152600082518060208401526114f7816040850160208701611787565b601f01601f19169190910160400192915050565b60208082526047908201527f526577617264734d6f64756c653a20746865726520617265206e6f7420656e6f60408201527f7567682070726f706f73616c7320666f7220746861742072616e6b696e6720746060820152661bc8195e1a5cdd60ca1b608082015260a00190565b6020808252602b908201527f526577617264734d6f64756c653a2072616e6b696e67206d757374206265203160408201526a1037b91033b932b0ba32b960a91b606082015260800190565b60208082526043908201527f526577617264734d6f64756c653a20636f6e74657374206d757374206265206360408201527f6f6d706c6574656420666f72207265776172647320746f2062652070616964206060820152621bdd5d60ea1b608082015260a00190565b60208082526029908201527f526577617264734d6f64756c653a206163636f756e74206973206e6f7420647560408201526819481c185e5b595b9d60ba1b606082015260800190565b6020808252602a908201527f526577617264734d6f64756c653a206163636f756e7420697320746865207a65604082015269726f206164647265737360b01b606082015260800190565b6040516060810167ffffffffffffffff811182821017156116e2576116e26117cd565b60405290565b604051601f8201601f1916810167ffffffffffffffff81118282101715611711576117116117cd565b604052919050565b6000821982111561172c5761172c6117b7565b500190565b60008261174c57634e487b7160e01b81526012600452602481fd5b500490565b600081600019048311821515161561176b5761176b6117b7565b500290565b600082821015611782576117826117b7565b500390565b60005b838110156117a257818101518382015260200161178a565b838111156117b1576000848401525b50505050565b634e487b7160e01b600052601160045260246000fd5b634e487b7160e01b600052604160045260246000fd5b6001600160a01b03811681146117f857600080fd5b5056fea2646970667358221220f3033f6ab120b305d4b8169caa66c57a93d2dab57d45f162f2c2a4fef94d0fce64736f6c63430008040033526577617264734d6f64756c653a206163636f756e7420616c72656164792068",
  "linkReferences": {},
  "deployedLinkReferences": {}
}