{"abi":[{"type":"constructor","inputs":[{"name":"_name","type":"string","internalType":"string"},{"name":"_prompt","type":"string","internalType":"string"},{"name":"_submissionMerkleRoot","type":"bytes32","internalType":"bytes32"},{"name":"_votingMerkleRoot","type":"bytes32","internalType":"bytes32"},{"name":"_constructorArgs","type":"tuple","internalType":"struct Governor.ConstructorArgs","components":[{"name":"intConstructorArgs","type":"tuple","internalType":"struct Governor.IntConstructorArgs","components":[{"name":"contestStart","type":"uint256","internalType":"uint256"},{"name":"votingDelay","type":"uint256","internalType":"uint256"},{"name":"votingPeriod","type":"uint256","internalType":"uint256"},{"name":"numAllowedProposalSubmissions","type":"uint256","internalType":"uint256"},{"name":"maxProposalCount","type":"uint256","internalType":"uint256"},{"name":"downvotingAllowed","type":"uint256","internalType":"uint256"},{"name":"sortingEnabled","type":"uint256","internalType":"uint256"},{"name":"rankLimit","type":"uint256","internalType":"uint256"},{"name":"percentageToCreator","type":"uint256","internalType":"uint256"},{"name":"costToPropose","type":"uint256","internalType":"uint256"},{"name":"costToVote","type":"uint256","internalType":"uint256"},{"name":"payPerVote","type":"uint256","internalType":"uint256"}]},{"name":"creatorSplitDestination","type":"address","internalType":"address"},{"name":"jkLabsSplitDestination","type":"address","internalType":"address"},{"name":"metadataFieldsSchema","type":"string","internalType":"string"}]}],"stateMutability":"nonpayable"},{"type":"function","name":"AMOUNT_FOR_SUMBITTER_PROOF","inputs":[],"outputs":[{"name":"","type":"uint256","internalType":"uint256"}],"stateMutability":"view"},{"type":"function","name":"JK_LABS_ADDRESS","inputs":[],"outputs":[{"name":"","type":"address","internalType":"address"}],"stateMutability":"view"},{"type":"function","name":"MAX_FIELDS_METADATA_LENGTH","inputs":[],"outputs":[{"name":"","type":"uint256","internalType":"uint256"}],"stateMutability":"view"},{"type":"function","name":"MAX_SLICE_LENGTH","inputs":[],"outputs":[{"name":"","type":"uint256","internalType":"uint256"}],"stateMutability":"view"},{"type":"function","name":"METADATAS_COUNT","inputs":[],"outputs":[{"name":"","type":"uint256","internalType":"uint256"}],"stateMutability":"view"},{"type":"function","name":"addressSubmitterVerified","inputs":[{"name":"","type":"address","internalType":"address"}],"outputs":[{"name":"","type":"bool","internalType":"bool"}],"stateMutability":"view"},{"type":"function","name":"addressTotalCastVoteCounts","inputs":[{"name":"","type":"address","internalType":"address"}],"outputs":[{"name":"","type":"uint256","internalType":"uint256"}],"stateMutability":"view"},{"type":"function","name":"addressTotalVotes","inputs":[{"name":"","type":"address","internalType":"address"}],"outputs":[{"name":"","type":"uint256","internalType":"uint256"}],"stateMutability":"view"},{"type":"function","name":"addressTotalVotesVerified","inputs":[{"name":"","type":"address","internalType":"address"}],"outputs":[{"name":"","type":"bool","internalType":"bool"}],"stateMutability":"view"},{"type":"function","name":"addressesThatHaveVoted","inputs":[{"name":"","type":"uint256","internalType":"uint256"}],"outputs":[{"name":"","type":"address","internalType":"address"}],"stateMutability":"view"},{"type":"function","name":"allProposalTotalVotes","inputs":[],"outputs":[{"name":"proposalIdsReturn","type":"uint256[]","internalType":"uint256[]"},{"name":"proposalVoteCountsArrayReturn","type":"tuple[]","internalType":"struct GovernorCountingSimple.VoteCounts[]","components":[{"name":"forVotes","type":"uint256","internalType":"uint256"},{"name":"againstVotes","type":"uint256","internalType":"uint256"}]}],"stateMutability":"view"},{"type":"function","name":"cancel","inputs":[],"outputs":[],"stateMutability":"nonpayable"},{"type":"function","name":"canceled","inputs":[],"outputs":[{"name":"","type":"bool","internalType":"bool"}],"stateMutability":"view"},{"type":"function","name":"castVote","inputs":[{"name":"proposalId","type":"uint256","internalType":"uint256"},{"name":"support","type":"uint8","internalType":"uint8"},{"name":"totalVotes","type":"uint256","internalType":"uint256"},{"name":"numVotes","type":"uint256","internalType":"uint256"},{"name":"proof","type":"bytes32[]","internalType":"bytes32[]"}],"outputs":[{"name":"","type":"uint256","internalType":"uint256"}],"stateMutability":"payable"},{"type":"function","name":"castVoteWithoutProof","inputs":[{"name":"proposalId","type":"uint256","internalType":"uint256"},{"name":"support","type":"uint8","internalType":"uint8"},{"name":"numVotes","type":"uint256","internalType":"uint256"}],"outputs":[{"name":"","type":"uint256","internalType":"uint256"}],"stateMutability":"payable"},{"type":"function","name":"checkProof","inputs":[{"name":"addressToCheck","type":"address","internalType":"address"},{"name":"amount","type":"uint256","internalType":"uint256"},{"name":"proof","type":"bytes32[]","internalType":"bytes32[]"},{"name":"voting","type":"bool","internalType":"bool"}],"outputs":[{"name":"verified","type":"bool","internalType":"bool"}],"stateMutability":"view"},{"type":"function","name":"comment","inputs":[{"name":"proposalId","type":"uint256","internalType":"uint256"},{"name":"commentContent","type":"string","internalType":"string"}],"outputs":[{"name":"","type":"uint256","internalType":"uint256"}],"stateMutability":"nonpayable"},{"type":"function","name":"commentIds","inputs":[{"name":"","type":"uint256","internalType":"uint256"}],"outputs":[{"name":"","type":"uint256","internalType":"uint256"}],"stateMutability":"view"},{"type":"function","name":"commentIsDeleted","inputs":[{"name":"","type":"uint256","internalType":"uint256"}],"outputs":[{"name":"","type":"bool","internalType":"bool"}],"stateMutability":"view"},{"type":"function","name":"comments","inputs":[{"name":"","type":"uint256","internalType":"uint256"}],"outputs":[{"name":"author","type":"address","internalType":"address"},{"name":"timestamp","type":"uint256","internalType":"uint256"},{"name":"proposalId","type":"uint256","internalType":"uint256"},{"name":"commentContent","type":"string","internalType":"string"}],"stateMutability":"view"},{"type":"function","name":"contestAddressTotalVotesCast","inputs":[{"name":"userAddress","type":"address","internalType":"address"}],"outputs":[{"name":"userTotalVotesCast","type":"uint256","internalType":"uint256"}],"stateMutability":"view"},{"type":"function","name":"contestDeadline","inputs":[],"outputs":[{"name":"","type":"uint256","internalType":"uint256"}],"stateMutability":"view"},{"type":"function","name":"contestStart","inputs":[],"outputs":[{"name":"","type":"uint256","internalType":"uint256"}],"stateMutability":"view"},{"type":"function","name":"costToPropose","inputs":[],"outputs":[{"name":"","type":"uint256","internalType":"uint256"}],"stateMutability":"view"},{"type":"function","name":"costToVote","inputs":[],"outputs":[{"name":"","type":"uint256","internalType":"uint256"}],"stateMutability":"view"},{"type":"function","name":"creator","inputs":[],"outputs":[{"name":"","type":"address","internalType":"address"}],"stateMutability":"view"},{"type":"function","name":"creatorSplitDestination","inputs":[],"outputs":[{"name":"","type":"address","internalType":"address"}],"stateMutability":"view"},{"type":"function","name":"deleteComments","inputs":[{"name":"commentIdsParam","type":"uint256[]","internalType":"uint256[]"}],"outputs":[],"stateMutability":"nonpayable"},{"type":"function","name":"deleteProposals","inputs":[{"name":"proposalIdsToDelete","type":"uint256[]","internalType":"uint256[]"}],"outputs":[],"stateMutability":"nonpayable"},{"type":"function","name":"deletedCommentIds","inputs":[{"name":"","type":"uint256","internalType":"uint256"}],"outputs":[{"name":"","type":"uint256","internalType":"uint256"}],"stateMutability":"view"},{"type":"function","name":"deletedProposalIds","inputs":[{"name":"","type":"uint256","internalType":"uint256"}],"outputs":[{"name":"","type":"uint256","internalType":"uint256"}],"stateMutability":"view"},{"type":"function","name":"downvotingAllowed","inputs":[],"outputs":[{"name":"","type":"uint256","internalType":"uint256"}],"stateMutability":"view"},{"type":"function","name":"forVotesToProposalIds","inputs":[{"name":"","type":"uint256","internalType":"uint256"},{"name":"","type":"uint256","internalType":"uint256"}],"outputs":[{"name":"","type":"uint256","internalType":"uint256"}],"stateMutability":"view"},{"type":"function","name":"getAllAddressesThatHaveVoted","inputs":[],"outputs":[{"name":"","type":"address[]","internalType":"address[]"}],"stateMutability":"view"},{"type":"function","name":"getAllAuthorsOfDeletedProposals","inputs":[],"outputs":[{"name":"","type":"address[]","internalType":"address[]"}],"stateMutability":"view"},{"type":"function","name":"getAllCommentIds","inputs":[],"outputs":[{"name":"","type":"uint256[]","internalType":"uint256[]"}],"stateMutability":"view"},{"type":"function","name":"getAllDeletedCommentIds","inputs":[],"outputs":[{"name":"","type":"uint256[]","internalType":"uint256[]"}],"stateMutability":"view"},{"type":"function","name":"getAllDeletedProposalIds","inputs":[],"outputs":[{"name":"","type":"uint256[]","internalType":"uint256[]"}],"stateMutability":"view"},{"type":"function","name":"getAllProposalAuthors","inputs":[],"outputs":[{"name":"","type":"address[]","internalType":"address[]"}],"stateMutability":"view"},{"type":"function","name":"getAllProposalIds","inputs":[],"outputs":[{"name":"","type":"uint256[]","internalType":"uint256[]"}],"stateMutability":"view"},{"type":"function","name":"getComment","inputs":[{"name":"commentId","type":"uint256","internalType":"uint256"}],"outputs":[{"name":"","type":"tuple","internalType":"struct GovernorEngagement.CommentCore","components":[{"name":"author","type":"address","internalType":"address"},{"name":"timestamp","type":"uint256","internalType":"uint256"},{"name":"proposalId","type":"uint256","internalType":"uint256"},{"name":"commentContent","type":"string","internalType":"string"}]}],"stateMutability":"view"},{"type":"function","name":"getNumProposalsWithThisManyForVotes","inputs":[{"name":"forVotes","type":"uint256","internalType":"uint256"}],"outputs":[{"name":"count","type":"uint256","internalType":"uint256"}],"stateMutability":"view"},{"type":"function","name":"getOnlyProposalIdWithThisManyForVotes","inputs":[{"name":"forVotes","type":"uint256","internalType":"uint256"}],"outputs":[{"name":"proposalId","type":"uint256","internalType":"uint256"}],"stateMutability":"view"},{"type":"function","name":"getProposal","inputs":[{"name":"proposalId","type":"uint256","internalType":"uint256"}],"outputs":[{"name":"","type":"tuple","internalType":"struct Governor.ProposalCore","components":[{"name":"author","type":"address","internalType":"address"},{"name":"exists","type":"bool","internalType":"bool"},{"name":"description","type":"string","internalType":"string"},{"name":"targetMetadata","type":"tuple","internalType":"struct Governor.TargetMetadata","components":[{"name":"targetAddress","type":"address","internalType":"address"}]},{"name":"safeMetadata","type":"tuple","internalType":"struct Governor.SafeMetadata","components":[{"name":"signers","type":"address[]","internalType":"address[]"},{"name":"threshold","type":"uint256","internalType":"uint256"}]},{"name":"fieldsMetadata","type":"tuple","internalType":"struct Governor.FieldsMetadata","components":[{"name":"addressArray","type":"address[]","internalType":"address[]"},{"name":"stringArray","type":"string[]","internalType":"string[]"},{"name":"uintArray","type":"uint256[]","internalType":"uint256[]"}]}]}],"stateMutability":"view"},{"type":"function","name":"getProposalComments","inputs":[{"name":"proposalId","type":"uint256","internalType":"uint256"}],"outputs":[{"name":"","type":"uint256[]","internalType":"uint256[]"}],"stateMutability":"view"},{"type":"function","name":"getProposalIdsLength","inputs":[],"outputs":[{"name":"","type":"uint256","internalType":"uint256"}],"stateMutability":"view"},{"type":"function","name":"getProposalIdsSlice","inputs":[{"name":"startIndex","type":"uint256","internalType":"uint256"},{"name":"endIndex","type":"uint256","internalType":"uint256"}],"outputs":[{"name":"","type":"uint256[]","internalType":"uint256[]"}],"stateMutability":"view"},{"type":"function","name":"getProposalsWithThisManyForVotes","inputs":[{"name":"forVotes","type":"uint256","internalType":"uint256"}],"outputs":[{"name":"proposalsWithThisManyForVotes","type":"uint256[]","internalType":"uint256[]"}],"stateMutability":"view"},{"type":"function","name":"getRankIndex","inputs":[{"name":"rank","type":"uint256","internalType":"uint256"}],"outputs":[{"name":"rankIndex","type":"uint256","internalType":"uint256"}],"stateMutability":"view"},{"type":"function","name":"getSortedRanks","inputs":[],"outputs":[{"name":"sortedRanksArray","type":"uint256[]","internalType":"uint256[]"}],"stateMutability":"view"},{"type":"function","name":"hashComment","inputs":[{"name":"commentObj","type":"tuple","internalType":"struct GovernorEngagement.CommentCore","components":[{"name":"author","type":"address","internalType":"address"},{"name":"timestamp","type":"uint256","internalType":"uint256"},{"name":"proposalId","type":"uint256","internalType":"uint256"},{"name":"commentContent","type":"string","internalType":"string"}]}],"outputs":[{"name":"","type":"uint256","internalType":"uint256"}],"stateMutability":"pure"},{"type":"function","name":"hashProposal","inputs":[{"name":"proposal","type":"tuple","internalType":"struct Governor.ProposalCore","components":[{"name":"author","type":"address","internalType":"address"},{"name":"exists","type":"bool","internalType":"bool"},{"name":"description","type":"string","internalType":"string"},{"name":"targetMetadata","type":"tuple","internalType":"struct Governor.TargetMetadata","components":[{"name":"targetAddress","type":"address","internalType":"address"}]},{"name":"safeMetadata","type":"tuple","internalType":"struct Governor.SafeMetadata","components":[{"name":"signers","type":"address[]","internalType":"address[]"},{"name":"threshold","type":"uint256","internalType":"uint256"}]},{"name":"fieldsMetadata","type":"tuple","internalType":"struct Governor.FieldsMetadata","components":[{"name":"addressArray","type":"address[]","internalType":"address[]"},{"name":"stringArray","type":"string[]","internalType":"string[]"},{"name":"uintArray","type":"uint256[]","internalType":"uint256[]"}]}]}],"outputs":[{"name":"","type":"uint256","internalType":"uint256"}],"stateMutability":"pure"},{"type":"function","name":"isOrIsBelowTiedRank","inputs":[{"name":"idx","type":"uint256","internalType":"uint256"}],"outputs":[{"name":"atOrBelowTiedRank","type":"bool","internalType":"bool"}],"stateMutability":"view"},{"type":"function","name":"jkLabsSplitDestination","inputs":[],"outputs":[{"name":"","type":"address","internalType":"address"}],"stateMutability":"view"},{"type":"function","name":"maxProposalCount","inputs":[],"outputs":[{"name":"","type":"uint256","internalType":"uint256"}],"stateMutability":"view"},{"type":"function","name":"metadataFieldsSchema","inputs":[],"outputs":[{"name":"","type":"string","internalType":"string"}],"stateMutability":"view"},{"type":"function","name":"name","inputs":[],"outputs":[{"name":"","type":"string","internalType":"string"}],"stateMutability":"view"},{"type":"function","name":"numAllowedProposalSubmissions","inputs":[],"outputs":[{"name":"","type":"uint256","internalType":"uint256"}],"stateMutability":"view"},{"type":"function","name":"numSubmissions","inputs":[{"name":"","type":"address","internalType":"address"}],"outputs":[{"name":"","type":"uint256","internalType":"uint256"}],"stateMutability":"view"},{"type":"function","name":"officialRewardsModule","inputs":[],"outputs":[{"name":"","type":"address","internalType":"contract RewardsModule"}],"stateMutability":"view"},{"type":"function","name":"payPerVote","inputs":[],"outputs":[{"name":"","type":"uint256","internalType":"uint256"}],"stateMutability":"view"},{"type":"function","name":"percentageToCreator","inputs":[],"outputs":[{"name":"","type":"uint256","internalType":"uint256"}],"stateMutability":"view"},{"type":"function","name":"prompt","inputs":[],"outputs":[{"name":"","type":"string","internalType":"string"}],"stateMutability":"view"},{"type":"function","name":"proposalAddressVotes","inputs":[{"name":"proposalId","type":"uint256","internalType":"uint256"},{"name":"userAddress","type":"address","internalType":"address"}],"outputs":[{"name":"forVotes","type":"uint256","internalType":"uint256"},{"name":"againstVotes","type":"uint256","internalType":"uint256"}],"stateMutability":"view"},{"type":"function","name":"proposalAddressesHaveVoted","inputs":[{"name":"proposalId","type":"uint256","internalType":"uint256"}],"outputs":[{"name":"","type":"address[]","internalType":"address[]"}],"stateMutability":"view"},{"type":"function","name":"proposalAuthors","inputs":[{"name":"","type":"uint256","internalType":"uint256"}],"outputs":[{"name":"","type":"address","internalType":"address"}],"stateMutability":"view"},{"type":"function","name":"proposalComments","inputs":[{"name":"","type":"uint256","internalType":"uint256"},{"name":"","type":"uint256","internalType":"uint256"}],"outputs":[{"name":"","type":"uint256","internalType":"uint256"}],"stateMutability":"view"},{"type":"function","name":"proposalIds","inputs":[{"name":"","type":"uint256","internalType":"uint256"}],"outputs":[{"name":"","type":"uint256","internalType":"uint256"}],"stateMutability":"view"},{"type":"function","name":"proposalIsDeleted","inputs":[{"name":"","type":"uint256","internalType":"uint256"}],"outputs":[{"name":"","type":"bool","internalType":"bool"}],"stateMutability":"view"},{"type":"function","name":"proposalVotes","inputs":[{"name":"proposalId","type":"uint256","internalType":"uint256"}],"outputs":[{"name":"forVotes","type":"uint256","internalType":"uint256"},{"name":"againstVotes","type":"uint256","internalType":"uint256"}],"stateMutability":"view"},{"type":"function","name":"proposalVotesStructs","inputs":[{"name":"","type":"uint256","internalType":"uint256"}],"outputs":[{"name":"proposalVoteCounts","type":"tuple","internalType":"struct GovernorCountingSimple.VoteCounts","components":[{"name":"forVotes","type":"uint256","internalType":"uint256"},{"name":"againstVotes","type":"uint256","internalType":"uint256"}]}],"stateMutability":"view"},{"type":"function","name":"proposals","inputs":[{"name":"","type":"uint256","internalType":"uint256"}],"outputs":[{"name":"author","type":"address","internalType":"address"},{"name":"exists","type":"bool","internalType":"bool"},{"name":"description","type":"string","internalType":"string"},{"name":"targetMetadata","type":"tuple","internalType":"struct Governor.TargetMetadata","components":[{"name":"targetAddress","type":"address","internalType":"address"}]},{"name":"safeMetadata","type":"tuple","internalType":"struct Governor.SafeMetadata","components":[{"name":"signers","type":"address[]","internalType":"address[]"},{"name":"threshold","type":"uint256","internalType":"uint256"}]},{"name":"fieldsMetadata","type":"tuple","internalType":"struct Governor.FieldsMetadata","components":[{"name":"addressArray","type":"address[]","internalType":"address[]"},{"name":"stringArray","type":"string[]","internalType":"string[]"},{"name":"uintArray","type":"uint256[]","internalType":"uint256[]"}]}],"stateMutability":"view"},{"type":"function","name":"propose","inputs":[{"name":"proposal","type":"tuple","internalType":"struct Governor.ProposalCore","components":[{"name":"author","type":"address","internalType":"address"},{"name":"exists","type":"bool","internalType":"bool"},{"name":"description","type":"string","internalType":"string"},{"name":"targetMetadata","type":"tuple","internalType":"struct Governor.TargetMetadata","components":[{"name":"targetAddress","type":"address","internalType":"address"}]},{"name":"safeMetadata","type":"tuple","internalType":"struct Governor.SafeMetadata","components":[{"name":"signers","type":"address[]","internalType":"address[]"},{"name":"threshold","type":"uint256","internalType":"uint256"}]},{"name":"fieldsMetadata","type":"tuple","internalType":"struct Governor.FieldsMetadata","components":[{"name":"addressArray","type":"address[]","internalType":"address[]"},{"name":"stringArray","type":"string[]","internalType":"string[]"},{"name":"uintArray","type":"uint256[]","internalType":"uint256[]"}]}]},{"name":"proof","type":"bytes32[]","internalType":"bytes32[]"}],"outputs":[{"name":"","type":"uint256","internalType":"uint256"}],"stateMutability":"payable"},{"type":"function","name":"proposeWithoutProof","inputs":[{"name":"proposal","type":"tuple","internalType":"struct Governor.ProposalCore","components":[{"name":"author","type":"address","internalType":"address"},{"name":"exists","type":"bool","internalType":"bool"},{"name":"description","type":"string","internalType":"string"},{"name":"targetMetadata","type":"tuple","internalType":"struct Governor.TargetMetadata","components":[{"name":"targetAddress","type":"address","internalType":"address"}]},{"name":"safeMetadata","type":"tuple","internalType":"struct Governor.SafeMetadata","components":[{"name":"signers","type":"address[]","internalType":"address[]"},{"name":"threshold","type":"uint256","internalType":"uint256"}]},{"name":"fieldsMetadata","type":"tuple","internalType":"struct Governor.FieldsMetadata","components":[{"name":"addressArray","type":"address[]","internalType":"address[]"},{"name":"stringArray","type":"string[]","internalType":"string[]"},{"name":"uintArray","type":"uint256[]","internalType":"uint256[]"}]}]}],"outputs":[{"name":"","type":"uint256","internalType":"uint256"}],"stateMutability":"payable"},{"type":"function","name":"rankLimit","inputs":[],"outputs":[{"name":"","type":"uint256","internalType":"uint256"}],"stateMutability":"view"},{"type":"function","name":"setCreatorSplitDestination","inputs":[{"name":"newCreatorSplitDestination","type":"address","internalType":"address"}],"outputs":[],"stateMutability":"nonpayable"},{"type":"function","name":"setOfficialRewardsModule","inputs":[{"name":"officialRewardsModule_","type":"address","internalType":"contract RewardsModule"}],"outputs":[],"stateMutability":"nonpayable"},{"type":"function","name":"setSubmissionMerkleRoot","inputs":[{"name":"newSubmissionMerkleRoot","type":"bytes32","internalType":"bytes32"}],"outputs":[],"stateMutability":"nonpayable"},{"type":"function","name":"setVotingMerkleRoot","inputs":[{"name":"newVotingMerkleRoot","type":"bytes32","internalType":"bytes32"}],"outputs":[],"stateMutability":"nonpayable"},{"type":"function","name":"sortedRanks","inputs":[{"name":"","type":"uint256","internalType":"uint256"}],"outputs":[{"name":"","type":"uint256","internalType":"uint256"}],"stateMutability":"view"},{"type":"function","name":"sortingEnabled","inputs":[],"outputs":[{"name":"","type":"uint256","internalType":"uint256"}],"stateMutability":"view"},{"type":"function","name":"state","inputs":[],"outputs":[{"name":"","type":"uint8","internalType":"enum Governor.ContestState"}],"stateMutability":"view"},{"type":"function","name":"submissionMerkleRoot","inputs":[],"outputs":[{"name":"","type":"bytes32","internalType":"bytes32"}],"stateMutability":"view"},{"type":"function","name":"totalVotesCast","inputs":[],"outputs":[{"name":"","type":"uint256","internalType":"uint256"}],"stateMutability":"view"},{"type":"function","name":"validateProposalData","inputs":[{"name":"proposal","type":"tuple","internalType":"struct Governor.ProposalCore","components":[{"name":"author","type":"address","internalType":"address"},{"name":"exists","type":"bool","internalType":"bool"},{"name":"description","type":"string","internalType":"string"},{"name":"targetMetadata","type":"tuple","internalType":"struct Governor.TargetMetadata","components":[{"name":"targetAddress","type":"address","internalType":"address"}]},{"name":"safeMetadata","type":"tuple","internalType":"struct Governor.SafeMetadata","components":[{"name":"signers","type":"address[]","internalType":"address[]"},{"name":"threshold","type":"uint256","internalType":"uint256"}]},{"name":"fieldsMetadata","type":"tuple","internalType":"struct Governor.FieldsMetadata","components":[{"name":"addressArray","type":"address[]","internalType":"address[]"},{"name":"stringArray","type":"string[]","internalType":"string[]"},{"name":"uintArray","type":"uint256[]","internalType":"uint256[]"}]}]}],"outputs":[],"stateMutability":"view"},{"type":"function","name":"verifyProposer","inputs":[{"name":"account","type":"address","internalType":"address"},{"name":"proof","type":"bytes32[]","internalType":"bytes32[]"}],"outputs":[],"stateMutability":"nonpayable"},{"type":"function","name":"verifyVoter","inputs":[{"name":"account","type":"address","internalType":"address"},{"name":"totalVotes","type":"uint256","internalType":"uint256"},{"name":"proof","type":"bytes32[]","internalType":"bytes32[]"}],"outputs":[],"stateMutability":"nonpayable"},{"type":"function","name":"version","inputs":[],"outputs":[{"name":"","type":"string","internalType":"string"}],"stateMutability":"pure"},{"type":"function","name":"voteStart","inputs":[],"outputs":[{"name":"","type":"uint256","internalType":"uint256"}],"stateMutability":"view"},{"type":"function","name":"votingDelay","inputs":[],"outputs":[{"name":"","type":"uint256","internalType":"uint256"}],"stateMutability":"view"},{"type":"function","name":"votingMerkleRoot","inputs":[],"outputs":[{"name":"","type":"bytes32","internalType":"bytes32"}],"stateMutability":"view"},{"type":"function","name":"votingPeriod","inputs":[],"outputs":[{"name":"","type":"uint256","internalType":"uint256"}],"stateMutability":"view"},{"type":"event","name":"CommentCreated","inputs":[{"name":"commentId","type":"uint256","indexed":false,"internalType":"uint256"}],"anonymous":false},{"type":"event","name":"CommentsDeleted","inputs":[{"name":"commentIds","type":"uint256[]","indexed":false,"internalType":"uint256[]"}],"anonymous":false},{"type":"event","name":"ContestCanceled","inputs":[],"anonymous":false},{"type":"event","name":"CreatorPaymentReleased","inputs":[{"name":"to","type":"address","indexed":false,"internalType":"address"},{"name":"amount","type":"uint256","indexed":false,"internalType":"uint256"}],"anonymous":false},{"type":"event","name":"JkLabsPaymentReleased","inputs":[{"name":"to","type":"address","indexed":false,"internalType":"address"},{"name":"amount","type":"uint256","indexed":false,"internalType":"uint256"}],"anonymous":false},{"type":"event","name":"JokeraceCreated","inputs":[{"name":"version","type":"string","indexed":false,"internalType":"string"},{"name":"name","type":"string","indexed":false,"internalType":"string"},{"name":"prompt","type":"string","indexed":false,"internalType":"string"},{"name":"creator","type":"address","indexed":false,"internalType":"address"},{"name":"contestStart","type":"uint256","indexed":false,"internalType":"uint256"},{"name":"votingDelay","type":"uint256","indexed":false,"internalType":"uint256"},{"name":"votingPeriod","type":"uint256","indexed":false,"internalType":"uint256"}],"anonymous":false},{"type":"event","name":"OfficialRewardsModuleSet","inputs":[{"name":"oldOfficialRewardsModule","type":"address","indexed":false,"internalType":"contract RewardsModule"},{"name":"newOfficialRewardsModule","type":"address","indexed":false,"internalType":"contract RewardsModule"}],"anonymous":false},{"type":"event","name":"ProposalCreated","inputs":[{"name":"proposalId","type":"uint256","indexed":false,"internalType":"uint256"},{"name":"proposer","type":"address","indexed":false,"internalType":"address"},{"name":"proposalDescription","type":"string","indexed":false,"internalType":"string"}],"anonymous":false},{"type":"event","name":"ProposalsDeleted","inputs":[{"name":"proposalIds","type":"uint256[]","indexed":false,"internalType":"uint256[]"}],"anonymous":false},{"type":"event","name":"VoteCast","inputs":[{"name":"voter","type":"address","indexed":true,"internalType":"address"},{"name":"proposalId","type":"uint256","indexed":false,"internalType":"uint256"},{"name":"support","type":"uint8","indexed":false,"internalType":"uint8"},{"name":"numVotes","type":"uint256","indexed":false,"internalType":"uint256"}],"anonymous":false},{"type":"error","name":"AddressFieldMetadataArrayTooLong","inputs":[]},{"type":"error","name":"AddressNotPermissionedToSubmit","inputs":[]},{"type":"error","name":"AuthorIsNotSender","inputs":[{"name":"author","type":"address","internalType":"address"},{"name":"sender","type":"address","internalType":"address"}]},{"type":"error","name":"CannotDeleteWhenCompletedOrCanceled","inputs":[]},{"type":"error","name":"CannotSliceMoreThanMax","inputs":[]},{"type":"error","name":"CannotSliceZeroLengthProposalIds","inputs":[]},{"type":"error","name":"CannotUpdateWhenCompletedOrCanceled","inputs":[]},{"type":"error","name":"CannotVoteLessThanOneVoteInPayPerVote","inputs":[]},{"type":"error","name":"CannotVoteOnDeletedProposal","inputs":[]},{"type":"error","name":"ContestAlreadyCanceled","inputs":[]},{"type":"error","name":"ContestMustBeActiveToVote","inputs":[{"name":"currentState","type":"uint8","internalType":"enum Governor.ContestState"}]},{"type":"error","name":"ContestMustBeQueuedToPropose","inputs":[{"name":"currentState","type":"uint8","internalType":"enum Governor.ContestState"}]},{"type":"error","name":"ContestSubmissionLimitReached","inputs":[{"name":"maxProposalCount","type":"uint256","internalType":"uint256"}]},{"type":"error","name":"DownvotingNotEnabled","inputs":[]},{"type":"error","name":"DuplicateSubmission","inputs":[{"name":"proposalId","type":"uint256","internalType":"uint256"}]},{"type":"error","name":"EmptyProposalDescription","inputs":[]},{"type":"error","name":"EndMustBeGreaterThanStartToSlice","inputs":[]},{"type":"error","name":"IncorrectCostSent","inputs":[{"name":"msgValue","type":"uint256","internalType":"uint256"},{"name":"costToVote","type":"uint256","internalType":"uint256"}]},{"type":"error","name":"IndexHasNotBeenPopulated","inputs":[]},{"type":"error","name":"InvalidVoteType","inputs":[]},{"type":"error","name":"MoreThanOneProposalWithThisManyVotes","inputs":[]},{"type":"error","name":"NeedAtLeastOneVoteToVote","inputs":[]},{"type":"error","name":"NeedToSubmitWithProofFirst","inputs":[]},{"type":"error","name":"NeedToVoteWithProofFirst","inputs":[]},{"type":"error","name":"NotEnoughVotesLeft","inputs":[]},{"type":"error","name":"NotInMerkle","inputs":[]},{"type":"error","name":"OnlyCreatorCanAmend","inputs":[]},{"type":"error","name":"OnlyCreatorCanDelete","inputs":[]},{"type":"error","name":"OnlyCreatorCanSetRewardsModule","inputs":[]},{"type":"error","name":"OnlyCreatorOrAuthorCanDeleteComments","inputs":[{"name":"failedToDeleteCommentId","type":"uint256","internalType":"uint256"}]},{"type":"error","name":"OnlyJkLabsCanAmend","inputs":[]},{"type":"error","name":"OnlyJkLabsOrCreatorCanCancel","inputs":[]},{"type":"error","name":"PayPerVoteMustBeEnabledForAnyoneCanVote","inputs":[]},{"type":"error","name":"RankCannotBeZero","inputs":[]},{"type":"error","name":"RankIsNotInSortedRanks","inputs":[]},{"type":"error","name":"SenderSubmissionLimitReached","inputs":[{"name":"numAllowedProposalSubmissions","type":"uint256","internalType":"uint256"}]},{"type":"error","name":"SortingAndDownvotingCannotBothBeEnabled","inputs":[]},{"type":"error","name":"StringFieldMetadataArrayTooLong","inputs":[]},{"type":"error","name":"UintFieldMetadataArrayTooLong","inputs":[]},{"type":"error","name":"UnexpectedMetadata","inputs":[{"name":"unexpectedMetadata","type":"uint8","internalType":"enum Governor.Metadatas"}]},{"type":"error","name":"ZeroSignersInSafeMetadata","inputs":[]},{"type":"error","name":"ZeroThresholdInSafeMetadata","inputs":[]}],"bytecode":{"object":"0x60806040523480156200001157600080fd5b50604051620058363803806200583683398101604081905262000034916200033b565b805160c081015160e0909101516000919091556001556003839055600482905584848260056200006584826200056f565b5060066200007483826200056f565b5060078054336001600160a01b03199182161790915581518051600855602080820151600955604080830151600a55606080840151600b556080840151600c5560a0840151600d55610100840151600e55610120840151600f5561014084015160105561016090930151601155908401516012805485166001600160a01b0392831617905590840151601380549094169116179091558101516014906200011c90826200056f565b506040805180820182526003815262352e3160e81b60208083019190915283518051918101519084015193517f9a9bca21e4e51607db64fbdbcd7b2284a909c6a8969821f0d161efbdcae70160946200017d94938993899333939062000669565b60405180910390a15050815160c0015160011490508015620001a45750805160a001516001145b15620001c357604051636bff10c960e01b815260040160405180910390fd5b81158015620001d6575080516101600151155b15620001f5576040516397b6be7d60e01b815260040160405180910390fd5b5050505050620006d8565b634e487b7160e01b600052604160045260246000fd5b604051608081016001600160401b03811182821017156200023b576200023b62000200565b60405290565b60405161018081016001600160401b03811182821017156200023b576200023b62000200565b60005b83811015620002845781810151838201526020016200026a565b50506000910152565b600082601f8301126200029f57600080fd5b81516001600160401b0380821115620002bc57620002bc62000200565b604051601f8301601f19908116603f01168101908282118183101715620002e757620002e762000200565b816040528381528660208588010111156200030157600080fd5b6200031484602083016020890162000267565b9695505050505050565b80516001600160a01b03811681146200033657600080fd5b919050565b600080600080600060a086880312156200035457600080fd5b85516001600160401b03808211156200036c57600080fd5b6200037a89838a016200028d565b965060208801519150808211156200039157600080fd5b6200039f89838a016200028d565b955060408801519450606088015193506080880151915080821115620003c457600080fd5b908701908189036101e0811215620003db57600080fd5b620003e562000216565b61018080831215620003f657600080fd5b6200040062000241565b9250845183526020850151602084015260408501516040840152606085015160608401526080850151608084015260a085015160a084015260c085015160c084015260e085015160e08401526101008086015181850152506101208086015181850152506101408086015181850152506101608086015181850152508282526200048c8186016200031e565b602083015250620004a16101a085016200031e565b60408201526101c0840151915082821115620004bc57600080fd5b620004ca8b8386016200028d565b6060820152809450505050509295509295909350565b600181811c90821680620004f557607f821691505b6020821081036200051657634e487b7160e01b600052602260045260246000fd5b50919050565b601f8211156200056a57600081815260208120601f850160051c81016020861015620005455750805b601f850160051c820191505b81811015620005665782815560010162000551565b5050505b505050565b81516001600160401b038111156200058b576200058b62000200565b620005a3816200059c8454620004e0565b846200051c565b602080601f831160018114620005db5760008415620005c25750858301515b600019600386901b1c1916600185901b17855562000566565b600085815260208120601f198616915b828110156200060c57888601518255948401946001909101908401620005eb565b50858210156200062b5787850151600019600388901b60f8161c191681555b5050505050600190811b01905550565b600081518084526200065581602086016020860162000267565b601f01601f19169290920160200192915050565b60e0815260006200067e60e083018a6200063b565b828103602084015262000692818a6200063b565b90508281036040840152620006a881896200063b565b6001600160a01b039790971660608401525050608081019390935260a083019190915260c0909101529392505050565b61514e80620006e86000396000f3fe6080604052600436106104f65760003560e01c806375e509c51161028c578063c19d93fb1161015a578063e11db9d8116100cc578063f4f3d7ec11610085578063f4f3d7ec14610fc6578063f5c3641114610fe6578063f61736f414611006578063f79c017214611026578063f823f11014611056578063fb9bf8d41461106957600080fd5b8063e11db9d814610f29578063ea8a1af014610f3e578063edcd1be414610f53578063eef18e1714610f69578063efa90d3614610f91578063f0a7db0a14610fa657600080fd5b8063d140d9f01161011e578063d140d9f014610e71578063d798902514610e91578063daf762db14610eb1578063dd96a19d14610ed1578063dea5f6a614610ee7578063e031535b14610f1457600080fd5b8063c19d93fb14610dbd578063c7f758a814610ddf578063c9a1b6b214610e0c578063cb85395014610e2c578063cbdc27cb14610e5c57600080fd5b80639ba197af116101fe578063af3951f0116101b7578063af3951f014610d1d578063b323580d14610d32578063b382543f14610d52578063b66d1da314610d67578063bddc164114610d87578063c05f410414610d9d57600080fd5b80639ba197af14610c2a578063a1ac6cb214610c57578063ab5e694714610c84578063ac67f80114610c97578063ae66b8ad14610cb7578063aec116b614610ce757600080fd5b80638ebb4c15116102505780638ebb4c1514610b605780639174778c14610b9057806391b99d8914610bb0578063930de97914610bc5578063946369b514610bf55780639b644a2314610c0a57600080fd5b806375e509c514610ad2578063785ddfe514610aff5780637c65d71114610b1f5780637de418d514610b34578063832009af14610b4a57600080fd5b80633f25cd3e116103c9578063544c7bb41161033b57806360ed97a9116102f457806360ed97a914610a3f57806365f1626314610a545780636e4eb81014610a675780636ed815ad14610a875780636fd3636b14610a9d578063711effc814610ab257600080fd5b8063544c7bb41461095e578063544ffc9c1461097e57806354fd4d50146109c85780635c7107d8146109f45780635cb718a114610a1457806360506ff614610a2957600080fd5b80634a587ad41161038d5780634a587ad4146108b05780634d24a67f146108d057806350a5e524146108e557806350c4b6161461090857806351a41dec14610928578063531bd8121461093e57600080fd5b80633f25cd3e146108235780633f9942ff146108435780633fb57c921461085d578063409fd0301461087d578063419c533c1461089d57600080fd5b8063102613d81161046d5780632c39805f116104265780632c39805f14610769578063325cc6d91461078b57806332763c22146107ab578063347cf665146107db578063366ecf5b146107f75780633932abb11461080d57600080fd5b8063102613d8146106b05780631242b737146106d0578063146230f6146106f25780631805c5231461071457806320b3e84514610734578063262e59e91461075457600080fd5b80630414126a116104bf5780630414126a146105ba57806305846cae146105d057806306fdde03146105f0578063070dc5d9146106125780630800e300146106635780630aa25e441461069057600080fd5b80624114a8146104fb578063013cf08b1461052457806302a251a31461055657806302d05d3f1461056c57806303f7eed6146105a4575b600080fd5b34801561050757600080fd5b5061051160085481565b6040519081526020015b60405180910390f35b34801561053057600080fd5b5061054461053f366004614111565b61107f565b60405161051b969594939291906142a1565b34801561056257600080fd5b50610511600a5481565b34801561057857600080fd5b5060075461058c906001600160a01b031681565b6040516001600160a01b03909116815260200161051b565b3480156105b057600080fd5b5061051160115481565b3480156105c657600080fd5b5061051160015481565b3480156105dc57600080fd5b506105116105eb366004614111565b61136a565b3480156105fc57600080fd5b5061060561138b565b60405161051b91906142fb565b34801561061e57600080fd5b5061065661062d366004614111565b602260209081526000918252604091829020825180840190935280548352600101549082015281565b60405161051b919061430e565b34801561066f57600080fd5b5061068361067e366004614111565b611419565b60405161051b9190614325565b34801561069c57600080fd5b5061058c6106ab366004614111565b61152d565b3480156106bc57600080fd5b5060135461058c906001600160a01b031681565b3480156106dc57600080fd5b506106e5611557565b60405161051b919061436e565b3480156106fe57600080fd5b5061071261070d3660046143a6565b6115af565b005b34801561072057600080fd5b5061051161072f3660046144c2565b611659565b34801561074057600080fd5b5061071261074f36600461454c565b61177a565b34801561076057600080fd5b506105116117e9565b34801561077557600080fd5b5061077e611805565b60405161051b91906145a0565b34801561079757600080fd5b506105116107a6366004614111565b611866565b3480156107b757600080fd5b506107cb6107c63660046145fd565b611876565b604051901515815260200161051b565b3480156107e757600080fd5b50610511678ac7230489e8000081565b34801561080357600080fd5b5061051160005481565b34801561081957600080fd5b5061051160095481565b34801561082f57600080fd5b506106e561083e36600461466d565b611975565b34801561084f57600080fd5b506018546107cb9060ff1681565b34801561086957600080fd5b50610511610878366004614111565b611a9f565b34801561088957600080fd5b5061051161089836600461468f565b611aaf565b6105116108ab36600461474b565b611ae0565b3480156108bc57600080fd5b5060125461058c906001600160a01b031681565b3480156108dc57600080fd5b50610511611b4e565b3480156108f157600080fd5b506108fa611b5d565b60405161051b9291906147bb565b34801561091457600080fd5b5061058c610923366004614111565b611c63565b34801561093457600080fd5b5061051160105481565b34801561094a57600080fd5b50610712610959366004614824565b611c73565b34801561096a57600080fd5b50610712610979366004614111565b611ce8565b34801561098a57600080fd5b506109b3610999366004614111565b600090815260226020526040902080546001909101549091565b6040805192835260208301919091520161051b565b3480156109d457600080fd5b50604080518082019091526003815262352e3160e81b6020820152610605565b348015610a0057600080fd5b50610511610a0f366004614111565b611d7e565b348015610a2057600080fd5b506106e5611e85565b348015610a3557600080fd5b50610511600d5481565b348015610a4b57600080fd5b50610605611edb565b610511610a6236600461487f565b611ee8565b348015610a7357600080fd5b506109b3610a823660046148b4565b611f86565b348015610a9357600080fd5b50610511600f5481565b348015610aa957600080fd5b506106e5611fbb565b348015610abe57600080fd5b50610511610acd36600461466d565b612011565b348015610ade57600080fd5b50610511610aed3660046143a6565b601a6020526000908152604090205481565b348015610b0b57600080fd5b5060245461058c906001600160a01b031681565b348015610b2b57600080fd5b50610605612042565b348015610b4057600080fd5b5061051160205481565b348015610b5657600080fd5b50610511600b5481565b348015610b6c57600080fd5b50610b80610b7b366004614111565b61204f565b60405161051b94939291906148e4565b348015610b9c57600080fd5b506107cb610bab366004614111565b61210c565b348015610bbc57600080fd5b50610511601981565b348015610bd157600080fd5b506107cb610be03660046143a6565b601e6020526000908152604090205460ff1681565b348015610c0157600080fd5b5061077e6121b2565b348015610c1657600080fd5b50610511610c25366004614111565b612212565b348015610c3657600080fd5b50610511610c45366004614111565b60009081526023602052604090205490565b348015610c6357600080fd5b50610511610c723660046143a6565b60216020526000908152604090205481565b610511610c92366004614933565b612222565b348015610ca357600080fd5b50610712610cb23660046149f5565b61229c565b348015610cc357600080fd5b506107cb610cd2366004614111565b60296020526000908152604090205460ff1681565b348015610cf357600080fd5b50610511610d023660046143a6565b6001600160a01b031660009081526021602052604090205490565b348015610d2957600080fd5b50601554610511565b348015610d3e57600080fd5b5061077e610d4d366004614111565b6123d6565b348015610d5e57600080fd5b50610511600a81565b348015610d7357600080fd5b50610511610d82366004614111565b612448565b348015610d9357600080fd5b5061051160035481565b348015610da957600080fd5b506106e5610db8366004614111565b6124a8565b348015610dc957600080fd5b50610dd261250a565b60405161051b9190614a3f565b348015610deb57600080fd5b50610dff610dfa366004614111565b61255b565b60405161051b9190614a59565b348015610e1857600080fd5b506106e5610e27366004614111565b61287b565b348015610e3857600080fd5b506107cb610e473660046143a6565b601f6020526000908152604090205460ff1681565b348015610e6857600080fd5b5061077e6128db565b348015610e7d57600080fd5b50610712610e8c366004614dc8565b612a0b565b348015610e9d57600080fd5b50610511610eac366004614dc8565b612bf2565b348015610ebd57600080fd5b50610712610ecc366004614111565b612c05565b348015610edd57600080fd5b5061051160045481565b348015610ef357600080fd5b50610511610f023660046143a6565b601d6020526000908152604090205481565b348015610f2057600080fd5b50610511612c9b565b348015610f3557600080fd5b506106e5612cad565b348015610f4a57600080fd5b50610712612d03565b348015610f5f57600080fd5b50610511600e5481565b348015610f7557600080fd5b5061058c73dc652c746a8f85e18ce632d97c6118e8a52fa73881565b348015610f9d57600080fd5b506106e5612dc7565b348015610fb257600080fd5b50610712610fc1366004614dfc565b612e1d565b348015610fd257600080fd5b50610712610fe13660046143a6565b612f9c565b348015610ff257600080fd5b50610511611001366004614111565b613021565b34801561101257600080fd5b5061051161102136600461466d565b613031565b34801561103257600080fd5b506107cb611041366004614111565b60176020526000908152604090205460ff1681565b610511611064366004614e3d565b61304d565b34801561107557600080fd5b50610511600c5481565b601960205260009081526040902080546001820180546001600160a01b03831693600160a01b90930460ff169291906110b790614e98565b80601f01602080910402602001604051908101604052809291908181526020018280546110e390614e98565b80156111305780601f1061110557610100808354040283529160200191611130565b820191906000526020600020905b81548152906001019060200180831161111357829003601f168201915b5050604080516020808201835260028801546001600160a01b0316825282516003890180546060938102830184018652948201858152989993989397509095509350849284918401828280156111af57602002820191906000526020600020905b81546001600160a01b03168152600190910190602001808311611191575b5050505050815260200160018201548152505090806005016040518060600160405290816000820180548060200260200160405190810160405280929190818152602001828054801561122b57602002820191906000526020600020905b81546001600160a01b0316815260019091019060200180831161120d575b5050505050815260200160018201805480602002602001604051908101604052809291908181526020016000905b8282101561130557838290600052602060002001805461127890614e98565b80601f01602080910402602001604051908101604052809291908181526020018280546112a490614e98565b80156112f15780601f106112c6576101008083540402835291602001916112f1565b820191906000526020600020905b8154815290600101906020018083116112d457829003601f168201915b505050505081526020019060010190611259565b5050505081526020016002820180548060200260200160405190810160405280929190818152602001828054801561135c57602002820191906000526020600020905b815481526020019060010190808311611348575b505050505081525050905086565b6016818154811061137a57600080fd5b600091825260209091200154905081565b6005805461139890614e98565b80601f01602080910402602001604051908101604052809291908181526020018280546113c490614e98565b80156114115780601f106113e657610100808354040283529160200191611411565b820191906000526020600020905b8154815290600101906020018083116113f457829003601f168201915b505050505081565b61144d604051806080016040528060006001600160a01b031681526020016000815260200160008152602001606081525090565b600082815260276020908152604091829020825160808101845281546001600160a01b031681526001820154928101929092526002810154928201929092526003820180549192916060840191906114a490614e98565b80601f01602080910402602001604051908101604052809291908181526020018280546114d090614e98565b801561151d5780601f106114f25761010080835404028352916020019161151d565b820191906000526020600020905b81548152906001019060200180831161150057829003601f168201915b5050505050815250509050919050565b601b818154811061153d57600080fd5b6000918252602090912001546001600160a01b0316905081565b606060168054806020026020016040519081016040528092919081815260200182805480156115a557602002820191906000526020600020905b815481526020019060010190808311611591575b5050505050905090565b6007546001600160a01b031633146115da5760405163141dbb4960e21b815260040160405180910390fd5b60046115e461250a565b60048111156115f5576115f5614a29565b14806116195750600261160661250a565b600481111561161757611617614a29565b145b15611637576040516398fe99a560e01b815260040160405180910390fd5b601280546001600160a01b0319166001600160a01b0392909216919091179055565b60408051608081018252338152426020820152908101839052606081018290526000908161168682611aaf565b6025805460018082019092557f401968ff42a154441da5f6c4c935ac46b8671f0e062baaa62a7545ba53bb6e4c01829055600082815260276020908152604091829020865181546001600160a01b0319166001600160a01b03909116178155908601519281019290925584015160028201556060840151919250839160038201906117119082614f1a565b505050600085815260286020908152604080832080546001810182559084529190922001829055517f5a1a930fed43f34b3a07db782ebcac28a661c273e662bb98458cfba5a8ccd220906117689083815260200190565b60405180910390a19150505b92915050565b6001600160a01b0383166000908152601f602052604090205460ff166117e4576003546000036117a957505050565b6117bf83678ac7230489e8000084846000611876565b506001600160a01b0383166000908152601f60205260409020805460ff191660011790555b505050565b6000600a546117f6612c9b565b6118009190614fef565b905090565b6060601c8054806020026020016040519081016040528092919081815260200182805480156115a557602002820191906000526020600020905b81546001600160a01b0316815260019091019060200180831161183f575050505050905090565b6002818154811061137a57600080fd5b6040516bffffffffffffffffffffffff19606087901b1660208201526034810185905260009081906054016040516020818303038152906040528051906020012090506000836119065761190186868080602002602001604051908101604052809392919081815260200183836020028082843760009201919091525050600354915085905061308d565b611947565b61194786868080602002602001604051908101604052809392919081815260200183836020028082843760009201919091525050600454915085905061308d565b9050806119675760405163452c2df160e11b815260040160405180910390fd5b506001979650505050505050565b60155460609060000361199b576040516336d2467360e01b815260040160405180910390fd5b8282116119bb5760405163b5973efd60e01b815260040160405180910390fd5b60196119c78484615002565b11156119e65760405163284607f560e21b815260040160405180910390fd5b60006119f28484615002565b6001600160401b03811115611a0957611a096143c3565b604051908082528060200260200182016040528015611a32578160200160208202803683370190505b50905060005b8151811015611a97576015611a4d8287614fef565b81548110611a5d57611a5d615015565b9060005260206000200154828281518110611a7a57611a7a615015565b602090810291909101015280611a8f8161502b565b915050611a38565b509392505050565b6026818154811061137a57600080fd5b600081604051602001611ac29190614325565b60408051601f19818403018152919052805160209091012092915050565b600080611aee6001866130a3565b60008981526017602052604090205490915060ff1615611b21576040516358f1119560e01b815260040160405180910390fd5b611b2d33878686611c73565b611b368161316f565b611b4288338988613276565b98975050505050505050565b611b5a60026001614fef565b81565b6060806000611b6a612dc7565b9050600081516001600160401b03811115611b8757611b876143c3565b604051908082528060200260200182016040528015611bcc57816020015b6040805180820190915260008082526020820152815260200190600190039081611ba55790505b50905060005b8251811015611c595760226000848381518110611bf157611bf1615015565b6020026020010151815260200190815260200160002060000160405180604001604052908160008201548152602001600182015481525050828281518110611c3b57611c3b615015565b60200260200101819052508080611c519061502b565b915050611bd2565b5090939092509050565b601c818154811061153d57600080fd5b60045415801590611c9d57506001600160a01b0384166000908152601e602052604090205460ff16155b15611ce257611cb0848484846001611876565b506001600160a01b0384166000908152601d60209081526040808320869055601e9091529020805460ff191660011790555b50505050565b3373dc652c746a8f85e18ce632d97c6118e8a52fa73814611d1c5760405163de07280160e01b815260040160405180910390fd5b6004611d2661250a565b6004811115611d3757611d37614a29565b1480611d5b57506002611d4861250a565b6004811115611d5957611d59614a29565b145b15611d79576040516398fe99a560e01b815260040160405180910390fd5b600455565b600081600003611da157604051630ec90a1760e31b815260040160405180910390fd5b60028054604080516020808402820181019092528281529192600092918490830182828015611def57602002820191906000526020600020905b815481526020019060010190808311611ddb575b5050505050905060006001905060005b83811015611e6b57611e36838281518110611e1c57611e1c615015565b602002602001015160009081526023602052604090205490565b15611e5957858203611e4b5795945050505050565b81611e558161502b565b9250505b80611e638161502b565b915050611dff565b50604051632cc2ab7360e11b815260040160405180910390fd5b606060268054806020026020016040519081016040528092919081815260200182805480156115a55760200282019190600052602060002090815481526020019060010190808311611591575050505050905090565b6014805461139890614e98565b600080611ef66001846130a3565b60008681526017602052604090205490915060ff1615611f29576040516358f1119560e01b815260040160405180910390fd5b60045415801590611f4a5750336000908152601e602052604090205460ff16155b15611f685760405163126ec6d160e31b815260040160405180910390fd5b611f718161316f565b611f7d85338686613276565b95945050505050565b60008281526022602090815260408083206001600160a01b0385168452600301909152902080546001909101545b9250929050565b606060028054806020026020016040519081016040528092919081815260200182805480156115a55760200282019190600052602060002090815481526020019060010190808311611591575050505050905090565b6023602052816000526040600020818154811061202d57600080fd5b90600052602060002001600091509150505481565b6006805461139890614e98565b60276020526000908152604090208054600182015460028301546003840180546001600160a01b0390941694929391929161208990614e98565b80601f01602080910402602001604051908101604052809291908181526020018280546120b590614e98565b80156121025780601f106120d757610100808354040283529160200191612102565b820191906000526020600020905b8154815290600101906020018083116120e557829003601f168201915b5050505050905084565b60025460009061211e90600190615002565b82111561213e576040516365d6f35160e11b815260040160405180910390fd5b60005b61214c836001614fef565b8110156121a95760016121886002838154811061216b5761216b615015565b906000526020600020015460009081526023602052604090205490565b11156121975750600192915050565b806121a18161502b565b915050612141565b50600092915050565b6060601b8054806020026020016040519081016040528092919081815260200182805480156115a5576020028201919060005260206000209081546001600160a01b0316815260019091019060200180831161183f575050505050905090565b6015818154811061137a57600080fd5b6000806122306000806130a3565b6003549091501561226b57336000908152601f602052604090205460ff1661226b57604051631f22097560e01b815260040160405180910390fd5b612277610e8c84615044565b600061228a61228585615044565b6133bd565b90506122958261316f565b9392505050565b805160005b8181101561239a5760008382815181106122bd576122bd615015565b60209081029190910101516007549091506001600160a01b031633148015906122fd57506000818152602760205260409020546001600160a01b03163314155b1561232357604051635450763d60e11b8152600481018290526024015b60405180910390fd5b60008181526029602052604090205460ff16612387576000818152602960205260408120805460ff191660019081179091556026805491820181559091527f744a2cf8fd7008e3d53b67916e73460df9fa5214e3ef23dd4259ca09493a3594018190555b50806123928161502b565b9150506122a1565b507f788a4349d25bc08585923ae212bce8bb346a623bce753eeecb85fd9ce58dcb4b826040516123ca919061436e565b60405180910390a15050565b600081815260226020908152604091829020600281018054845181850281018501909552808552606094929383018282801561243b57602002820191906000526020600020905b81546001600160a01b0316815260019091019060200180831161241d575b5050505050915050919050565b60008181526023602052604081205460011461247757604051633832a15560e21b815260040160405180910390fd5b6000828152602360205260408120805490919061249657612496615015565b90600052602060002001549050919050565b6000818152602860209081526040918290208054835181840281018401909452808452606093928301828280156124fe57602002820191906000526020600020905b8154815260200190600101908083116124ea575b50505050509050919050565b60185460009060ff161561251e5750600290565b426008541061252d5750600090565b42612536612c9b565b106125415750600390565b4261254a6117e9565b106125555750600190565b50600490565b612563613f19565b600082815260196020908152604091829020825160c08101845281546001600160a01b0381168252600160a01b900460ff1615159281019290925260018101805492939192918401916125b590614e98565b80601f01602080910402602001604051908101604052809291908181526020018280546125e190614e98565b801561262e5780601f106126035761010080835404028352916020019161262e565b820191906000526020600020905b81548152906001019060200180831161261157829003601f168201915b5050509183525050604080516020818101835260028501546001600160a01b031682528084019190915281516003850180546060938102830184018552828501818152949095019491939092849284918401828280156126b757602002820191906000526020600020905b81546001600160a01b03168152600190910190602001808311612699575b505050505081526020016001820154815250508152602001600582016040518060600160405290816000820180548060200260200160405190810160405280929190818152602001828054801561273757602002820191906000526020600020905b81546001600160a01b03168152600190910190602001808311612719575b5050505050815260200160018201805480602002602001604051908101604052809291908181526020016000905b8282101561281157838290600052602060002001805461278490614e98565b80601f01602080910402602001604051908101604052809291908181526020018280546127b090614e98565b80156127fd5780601f106127d2576101008083540402835291602001916127fd565b820191906000526020600020905b8154815290600101906020018083116127e057829003601f168201915b505050505081526020019060010190612765565b5050505081526020016002820180548060200260200160405190810160405280929190818152602001828054801561286857602002820191906000526020600020905b815481526020019060010190808311612854575b5050509190925250505090525092915050565b6000818152602360209081526040918290208054835181840281018401909452808452606093928301828280156124fe57602002820191906000526020600020908154815260200190600101908083116124ea5750505050509050919050565b60606000601680548060200260200160405190810160405280929190818152602001828054801561292b57602002820191906000526020600020905b815481526020019060010190808311612917575b50505050509050600081516001600160401b0381111561294d5761294d6143c3565b604051908082528060200260200182016040528015612976578160200160208202803683370190505b50905060005b8251811015612a04576019600084838151811061299b5761299b615015565b6020026020010151815260200190815260200160002060000160009054906101000a90046001600160a01b03168282815181106129da576129da615015565b6001600160a01b0390921660209283029190910190910152806129fc8161502b565b91505061297c565b5092915050565b80516001600160a01b03163314612a4957805160405163fbbf4d7f60e01b81526001600160a01b03909116600482015233602482015260440161231a565b60005b612a5860026001614fef565b811015612bc8576000816002811115612a7357612a73614a29565b90506000816002811115612a8957612a89614a29565b03612a945750612bb6565b6001816002811115612aa857612aa8614a29565b03612b025760808301515151600003612ad45760405163c3b2798b60e01b815260040160405180910390fd5b826080015160200151600003612afd576040516392fb9a3560e01b815260040160405180910390fd5b612bb4565b6002816002811115612b1657612b16614a29565b03612b995760a08301515151600a1015612b4357604051631e38b1b160e11b815260040160405180910390fd5b600a8360a0015160200151511115612b6e5760405163a3b7dd7760e01b815260040160405180910390fd5b600a8360a0015160400151511115612afd5760405163f696406560e01b815260040160405180910390fd5b8060405163d2277d4960e01b815260040161231a9190615050565b505b80612bc08161502b565b915050612a4c565b50806040015151600003612bef5760405163e182473360e01b815260040160405180910390fd5b50565b600081604051602001611ac29190614a59565b3373dc652c746a8f85e18ce632d97c6118e8a52fa73814612c395760405163de07280160e01b815260040160405180910390fd5b6004612c4361250a565b6004811115612c5457612c54614a29565b1480612c7857506002612c6561250a565b6004811115612c7657612c76614a29565b145b15612c96576040516398fe99a560e01b815260040160405180910390fd5b600355565b60006009546008546118009190614fef565b606060258054806020026020016040519081016040528092919081815260200182805480156115a55760200282019190600052602060002090815481526020019060010190808311611591575050505050905090565b6007546001600160a01b03163314801590612d3257503373dc652c746a8f85e18ce632d97c6118e8a52fa73814155b15612d50576040516301dbf46f60e71b815260040160405180910390fd5b6000612d5a61250a565b90506002816004811115612d7057612d70614a29565b03612d8e57604051636f79584d60e01b815260040160405180910390fd5b6018805460ff191660011790556040517f4cd963a081760a54f571abc0f1db4dde31b4a07d8d6da3e844b8c6f47eeaaa4290600090a150565b606060158054806020026020016040519081016040528092919081815260200182805480156115a55760200282019190600052602060002090815481526020019060010190808311611591575050505050905090565b6007546001600160a01b03163314612e485760405163b8d4540960e01b815260040160405180910390fd5b6004612e5261250a565b6004811115612e6357612e63614a29565b1480612e8757506002612e7461250a565b6004811115612e8557612e85614a29565b145b15612ea557604051631e71d28360e21b815260040160405180910390fd5b60005b81811015612f4a576000838383818110612ec457612ec4615015565b60209081029290920135600081815260179093526040909220549192505060ff16612f37576000818152601760205260408120805460ff191660019081179091556016805491820181559091527fd833147d7dc355ba459fc788f669e58cfaf9dc25ddcd0702e87d69c7b5124289018190555b5080612f428161502b565b915050612ea8565b50600d54158015612f5d57506000546001145b15612f6c57612f6c8282613694565b7f75a75cf5c561892f4cc5b26c1b8e933849b42238c96dd073d080d1ae96c5141660156040516123ca9190615064565b6007546001600160a01b03163314612fc757604051630f4cb1bd60e11b815260040160405180910390fd5b602480546001600160a01b038381166001600160a01b031983168117909355604080519190921680825260208201939093527f753a2cf8d360cff631674504210913e48247f8e56b3e6d2006c2103d4095999f91016123ca565b6025818154811061137a57600080fd5b6028602052816000526040600020818154811061202d57600080fd5b60008061305b6000806130a3565b905061306833858561177a565b613074610e8c86615044565b600061308261228587615044565b9050611f7d8261316f565b60008261309a85846136f1565b14949350505050565b600080808460018111156130b9576130b9614a29565b036130c75750600f54613146565b60018460018111156130db576130db614a29565b036131425760115460010361313957670de0b6b3a7640000831015613113576040516346ddb8d160e01b815260040160405180910390fd5b613125670de0b6b3a76400008461509f565b60105461313291906150c1565b9050613146565b50601054613146565b5060005b803414612295576040516372c3eaa760e01b81523460048201526024810182905260440161231a565b8015612bef5760006064600e5460646131889190615002565b61319290346150c1565b61319c919061509f565b90508015613201576013546131ba906001600160a01b031682613736565b601354604080516001600160a01b039092168252602082018390527f9df63d1c00d2e332f573be591c0579caafb256b2c5a17abcc8ad471cccda1b81910160405180910390a15b600061320d8234615002565b905080156117e45760125461322b906001600160a01b031682613736565b600754604080516001600160a01b039092168252602082018390527f6dff55337c8458ae8c536a63869a48bc33541733422a796390c131d91f4238ed910160405180910390a1505050565b6000600161328261250a565b600481111561329357613293614a29565b146132ba576132a061250a565b60405163049cab4960e51b815260040161231a9190614a3f565b816000036132db5760405163502e1c2960e01b815260040160405180910390fd5b61330d85858585601d60008a6001600160a01b03166001600160a01b031681526020019081526020016000205461384f565b601c80546001810182556000919091527f0e4562a10381dec21b205ed72637e6b1b523bdd0e4d4d50af5cd23dd4500a2110180546001600160a01b031916331790556040805186815260ff851660208201529081018390526001600160a01b038516907f2c9deb38f462962eadbd85a9d3a4120503ee091f1582eaaa10aa8c6797651d299060600160405180910390a25050506001600160a01b03166000908152601d6020526040902054919050565b600060036133c961250a565b60048111156133da576133da614a29565b14613401576133e761250a565b604051632889531360e01b815260040161231a9190614a3f565b600b54336000908152601a60205260409020540361343857600b54604051632bd6d93960e21b815260040161231a91815260200190565b600c5460165460155461344b9190615002565b0361346f57600c546040516302217f5360e51b815260040161231a91815260200190565b600061347a83612bf2565b600081815260196020526040902054909150600160a01b900460ff16156134b75760405163baffc42360e01b81526004810182905260240161231a565b6015805460018181019092557f55f448fdea98c4d29eb340757ef0a66cd03dbb9538908a6a81d96026b71ec4750182905560008281526019602090815260409182902086518154928801511515600160a01b026001600160a81b03199093166001600160a01b039091161791909117815590850151859282019061353b9082614f1a565b506060820151516002820180546001600160a01b0319166001600160a01b03909216919091179055608082015180518051600384019161358091839160200190613fb3565b5060209182015160019091015560a083015180518051919260058501926135aa9284920190613fb3565b5060208281015180516135c39260018501920190614018565b50604082015180516135df91600284019160209091019061406a565b5050336000908152601a60205260408120805460019550909350909150613607908490614fef565b9091555050601b80546001810182556000919091527f3ad8aa4f87544323a9d1e5dd902f40c356527a7955687113db5f9a85ad579dc10180546001600160a01b0319163390811790915560408085015190517f7585f467599d0f008985f231af99293be388626ac16ca59505c2f8f88969cd63926136869285926150d8565b60405180910390a192915050565b60005b818110156117e45760008383838181106136b3576136b3615015565b60209081029290920135600081815260229093526040909220549192506136dc90508282613ac4565b505080806136e99061502b565b915050613697565b600081815b8451811015611a97576137228286838151811061371557613715615015565b6020026020010151613bf5565b91508061372e8161502b565b9150506136f6565b804710156137865760405162461bcd60e51b815260206004820152601d60248201527f416464726573733a20696e73756666696369656e742062616c616e6365000000604482015260640161231a565b6000826001600160a01b03168260405160006040518083038185875af1925050503d80600081146137d3576040519150601f19603f3d011682016040523d82523d6000602084013e6137d8565b606091505b50509050806117e45760405162461bcd60e51b815260206004820152603a60248201527f416464726573733a20756e61626c6520746f2073656e642076616c75652c207260448201527f6563697069656e74206d61792068617665207265766572746564000000000000606482015260840161231a565b60008581526022602052604090206004541580159061388f57506001600160a01b03851660009081526021602052604090205461388c9083615002565b83115b156138ad5760405163660fa07360e11b815260040160405180910390fd5b6001600160a01b03851660009081526003820160205260408120541580156138f057506001600160a01b0386166000908152600383016020526040902060010154155b905060ff85166139485781548490839060009061390e908490614fef565b90915550506001600160a01b03861660009081526003830160205260408120805486929061393d908490614fef565b909155506139d99050565b60001960ff8616016139c057600d5460011461397757604051639755958f60e01b815260040160405180910390fd5b8382600001600101600082825461398e9190614fef565b90915550506001600160a01b03861660009081526003830160205260408120600101805486929061393d908490614fef565b604051638eed55d160e01b815260040160405180910390fd5b8015613a1057600282018054600181018255600091825260209091200180546001600160a01b0319166001600160a01b0388161790555b6001600160a01b03861660009081526021602052604081208054869290613a38908490614fef565b925050819055508360206000828254613a519190614fef565b9091555050600d54158015613a6857506000546001145b15613abb5781546000613a7b8683615002565b90508015613a8d57613a8d8982613ac4565b600082815260236020908152604082208054600181018255908352912001899055613ab88183613c24565b50505b50505050505050565b600081815260236020908152604080832080548251818502810185019093528083529192909190830182828015613b1a57602002820191906000526020600020905b815481526020019060010190808311613b06575b5050505050905060005b8151811015611ce25783828281518110613b4057613b40615015565b602002602001015103613be3578160018351613b5c9190615002565b81518110613b6c57613b6c615015565b6020026020010151602360008581526020019081526020016000208281548110613b9857613b98615015565b906000526020600020018190555060236000848152602001908152602001600020805480613bc857613bc8615102565b60019003818190600052602060002001600090559055611ce2565b80613bed8161502b565b915050613b24565b6000818310613c11576000828152602084905260409020612295565b6000838152602083905260409020612295565b60028054604080516020808402820181019092528281529192600092918490830182828015613c7257602002820191906000526020600020905b815481526020019060010190808311613c5e575b5050505050905081600003613cb9575050600280546001810182556000919091527f405787fa12a823e0f2b7631cc41b3ba8828b3321ca811111fa75cd3aa3bb5ace015550565b80613cc5600184615002565b81518110613cd557613cd5615015565b6020026020010151831015613d2b576001548203613cf35750505050565b5050600280546001810182556000919091527f405787fa12a823e0f2b7631cc41b3ba8828b3321ca811111fa75cd3aa3bb5ace015550565b611ce2848484846000805b83811015613da057828181518110613d5057613d50615015565b60200260200101518503613d65575050611ce2565b828181518110613d7757613d77615015565b6020026020010151851115613d8e57809150613da0565b80613d988161502b565b915050613d36565b5060008086118015613dbe5750600086815260236020526040902054155b90506000818015613de7575086848481518110613ddd57613ddd615015565b6020026020010151145b613ef057613df6600186615002565b8314613e9e576000613e09846001614fef565b90505b85811015613e9c5784613e20600183615002565b81518110613e3057613e30615015565b602002602001015160028281548110613e4b57613e4b615015565b600091825260209091200155828015613e7c575087858281518110613e7257613e72615015565b6020026020010151145b15613e8a5760019150613e9c565b80613e948161502b565b915050613e0c565b505b80158015613ead575060015485105b15613ef057600284613ec0600188615002565b81518110613ed057613ed0615015565b602090810291909101810151825460018101845560009384529190922001555b8560028481548110613f0457613f04615015565b60009182526020909120015550505050505050565b6040518060c0016040528060006001600160a01b0316815260200160001515815260200160608152602001613f63604051806020016040528060006001600160a01b031681525090565b8152602001613f85604051806040016040528060608152602001600081525090565b8152602001613fae60405180606001604052806060815260200160608152602001606081525090565b905290565b828054828255906000526020600020908101928215614008579160200282015b8281111561400857825182546001600160a01b0319166001600160a01b03909116178255602090920191600190910190613fd3565b506140149291506140a5565b5090565b82805482825590600052602060002090810192821561405e579160200282015b8281111561405e578251829061404e9082614f1a565b5091602001919060010190614038565b506140149291506140ba565b828054828255906000526020600020908101928215614008579160200282015b8281111561400857825182559160200191906001019061408a565b5b8082111561401457600081556001016140a6565b808211156140145760006140ce82826140d7565b506001016140ba565b5080546140e390614e98565b6000825580601f106140f3575050565b601f016020900490600052602060002090810190612bef91906140a5565b60006020828403121561412357600080fd5b5035919050565b6000815180845260005b8181101561415057602081850181015186830182015201614134565b506000602082860101526020601f19601f83011685010191505092915050565b600081518084526020808501945080840160005b838110156141a95781516001600160a01b031687529582019590820190600101614184565b509495945050505050565b60008151604084526141c96040850182614170565b602093840151949093019390935250919050565b600081518084526020808501945080840160005b838110156141a9578151875295820195908201906001016141f1565b60008151606084526142226060850182614170565b9050602080840151858303828701528281518085528385019150838160051b860101848401935060005b8281101561427a57601f1987830301845261426882865161412a565b9486019493860193915060010161424c565b506040880151955088810360408a015261429481876141dd565b9998505050505050505050565b600060018060a01b038089168352871515602084015260c060408401526142cb60c084018861412a565b81875116606085015283810360808501526142e681876141b4565b91505082810360a0840152614294818561420d565b602081526000612295602083018461412a565b815181526020808301519082015260408101611774565b6020815260018060a01b03825116602082015260208201516040820152604082015160608201526000606083015160808084015261436660a084018261412a565b949350505050565b60208152600061229560208301846141dd565b6001600160a01b0381168114612bef57600080fd5b80356143a181614381565b919050565b6000602082840312156143b857600080fd5b813561229581614381565b634e487b7160e01b600052604160045260246000fd5b604051606081016001600160401b03811182821017156143fb576143fb6143c3565b60405290565b60405160c081016001600160401b03811182821017156143fb576143fb6143c3565b604051601f8201601f191681016001600160401b038111828210171561444b5761444b6143c3565b604052919050565b600082601f83011261446457600080fd5b81356001600160401b0381111561447d5761447d6143c3565b614490601f8201601f1916602001614423565b8181528460208386010111156144a557600080fd5b816020850160208301376000918101602001919091529392505050565b600080604083850312156144d557600080fd5b8235915060208301356001600160401b038111156144f257600080fd5b6144fe85828601614453565b9150509250929050565b60008083601f84011261451a57600080fd5b5081356001600160401b0381111561453157600080fd5b6020830191508360208260051b8501011115611fb457600080fd5b60008060006040848603121561456157600080fd5b833561456c81614381565b925060208401356001600160401b0381111561458757600080fd5b61459386828701614508565b9497909650939450505050565b6020808252825182820181905260009190848201906040850190845b818110156145e15783516001600160a01b0316835292840192918401916001016145bc565b50909695505050505050565b803580151581146143a157600080fd5b60008060008060006080868803121561461557600080fd5b853561462081614381565b94506020860135935060408601356001600160401b0381111561464257600080fd5b61464e88828901614508565b90945092506146619050606087016145ed565b90509295509295909350565b6000806040838503121561468057600080fd5b50508035926020909101359150565b6000602082840312156146a157600080fd5b81356001600160401b03808211156146b857600080fd5b90830190608082860312156146cc57600080fd5b6040516080810181811083821117156146e7576146e76143c3565b60405282356146f581614381565b80825250602083013560208201526040830135604082015260608301358281111561471f57600080fd5b61472b87828601614453565b60608301525095945050505050565b803560ff811681146143a157600080fd5b60008060008060008060a0878903121561476457600080fd5b863595506147746020880161473a565b9450604087013593506060870135925060808701356001600160401b0381111561479d57600080fd5b6147a989828a01614508565b979a9699509497509295939492505050565b600060408083526147ce818401866141dd565b83810360208581019190915285518083528682019282019060005b818110156148165761480683865180518252602090810151910152565b93830193918501916001016147e9565b509098975050505050505050565b6000806000806060858703121561483a57600080fd5b843561484581614381565b93506020850135925060408501356001600160401b0381111561486757600080fd5b61487387828801614508565b95989497509550505050565b60008060006060848603121561489457600080fd5b833592506148a46020850161473a565b9150604084013590509250925092565b600080604083850312156148c757600080fd5b8235915060208301356148d981614381565b809150509250929050565b60018060a01b0385168152836020820152826040820152608060608201526000614911608083018461412a565b9695505050505050565b600060c0828403121561492d57600080fd5b50919050565b60006020828403121561494557600080fd5b81356001600160401b0381111561495b57600080fd5b6143668482850161491b565b60006001600160401b03821115614980576149806143c3565b5060051b60200190565b600082601f83011261499b57600080fd5b813560206149b06149ab83614967565b614423565b82815260059290921b840181019181810190868411156149cf57600080fd5b8286015b848110156149ea57803583529183019183016149d3565b509695505050505050565b600060208284031215614a0757600080fd5b81356001600160401b03811115614a1d57600080fd5b6143668482850161498a565b634e487b7160e01b600052602160045260246000fd5b6020810160058310614a5357614a53614a29565b91905290565b60208152600060018060a01b03808451166020840152602084015115156040840152604084015160c06060850152614a9460e085018261412a565b90508160608601515116608085015260808501519150601f19808583030160a0860152614ac182846141b4565b925060a08601519150808584030160c086015250611f7d828261420d565b600060208284031215614af157600080fd5b604051602081018181106001600160401b0382111715614b1357614b136143c3565b6040529050808235614b2481614381565b905292915050565b600082601f830112614b3d57600080fd5b81356020614b4d6149ab83614967565b82815260059290921b84018101918181019086841115614b6c57600080fd5b8286015b848110156149ea578035614b8381614381565b8352918301918301614b70565b600060408284031215614ba257600080fd5b604051604081016001600160401b038282108183111715614bc557614bc56143c3565b816040528293508435915080821115614bdd57600080fd5b50614bea85828601614b2c565b825250602083013560208201525092915050565b600060608284031215614c1057600080fd5b614c186143d9565b905081356001600160401b0380821115614c3157600080fd5b614c3d85838601614b2c565b8352602091508184013581811115614c5457600080fd5b8401601f81018613614c6557600080fd5b8035614c736149ab82614967565b81815260059190911b82018401908481019088831115614c9257600080fd5b8584015b83811015614cca57803586811115614cae5760008081fd5b614cbc8b8983890101614453565b845250918601918601614c96565b508086880152505050506040840135915080821115614ce857600080fd5b50614cf58482850161498a565b60408301525092915050565b600060c08284031215614d1357600080fd5b614d1b614401565b9050614d2682614396565b8152614d34602083016145ed565b602082015260408201356001600160401b0380821115614d5357600080fd5b614d5f85838601614453565b6040840152614d718560608601614adf565b60608401526080840135915080821115614d8a57600080fd5b614d9685838601614b90565b608084015260a0840135915080821115614daf57600080fd5b50614dbc84828501614bfe565b60a08301525092915050565b600060208284031215614dda57600080fd5b81356001600160401b03811115614df057600080fd5b61436684828501614d01565b60008060208385031215614e0f57600080fd5b82356001600160401b03811115614e2557600080fd5b614e3185828601614508565b90969095509350505050565b600080600060408486031215614e5257600080fd5b83356001600160401b0380821115614e6957600080fd5b614e758783880161491b565b94506020860135915080821115614e8b57600080fd5b5061459386828701614508565b600181811c90821680614eac57607f821691505b60208210810361492d57634e487b7160e01b600052602260045260246000fd5b601f8211156117e457600081815260208120601f850160051c81016020861015614ef35750805b601f850160051c820191505b81811015614f1257828155600101614eff565b505050505050565b81516001600160401b03811115614f3357614f336143c3565b614f4781614f418454614e98565b84614ecc565b602080601f831160018114614f7c5760008415614f645750858301515b600019600386901b1c1916600185901b178555614f12565b600085815260208120601f198616915b82811015614fab57888601518255948401946001909101908401614f8c565b5085821015614fc95787850151600019600388901b60f8161c191681555b5050505050600190811b01905550565b634e487b7160e01b600052601160045260246000fd5b8082018082111561177457611774614fd9565b8181038181111561177457611774614fd9565b634e487b7160e01b600052603260045260246000fd5b60006001820161503d5761503d614fd9565b5060010190565b60006117743683614d01565b6020810160038310614a5357614a53614a29565b6020808252825482820181905260008481528281209092916040850190845b818110156145e157835483526001938401939285019201615083565b6000826150bc57634e487b7160e01b600052601260045260246000fd5b500490565b808202811582820484141761177457611774614fd9565b8381526001600160a01b0383166020820152606060408201819052600090611f7d9083018461412a565b634e487b7160e01b600052603160045260246000fdfea26469706673582212206e7ebac211533c02cfca75882819bb5575c8d796454cb4246c4cca33d0b5630164736f6c63430008130033","linkReferences":{}},"methodIdentifiers":{"AMOUNT_FOR_SUMBITTER_PROOF()":"347cf665","JK_LABS_ADDRESS()":"eef18e17","MAX_FIELDS_METADATA_LENGTH()":"b382543f","MAX_SLICE_LENGTH()":"91b99d89","METADATAS_COUNT()":"4d24a67f","addressSubmitterVerified(address)":"cb853950","addressTotalCastVoteCounts(address)":"a1ac6cb2","addressTotalVotes(address)":"dea5f6a6","addressTotalVotesVerified(address)":"930de979","addressesThatHaveVoted(uint256)":"50c4b616","allProposalTotalVotes()":"50a5e524","cancel()":"ea8a1af0","canceled()":"3f9942ff","castVote(uint256,uint8,uint256,uint256,bytes32[])":"419c533c","castVoteWithoutProof(uint256,uint8,uint256)":"65f16263","checkProof(address,uint256,bytes32[],bool)":"32763c22","comment(uint256,string)":"1805c523","commentIds(uint256)":"f5c36411","commentIsDeleted(uint256)":"ae66b8ad","comments(uint256)":"8ebb4c15","contestAddressTotalVotesCast(address)":"aec116b6","contestDeadline()":"262e59e9","contestStart()":"004114a8","costToPropose()":"6ed815ad","costToVote()":"51a41dec","creator()":"02d05d3f","creatorSplitDestination()":"4a587ad4","deleteComments(uint256[])":"ac67f801","deleteProposals(uint256[])":"f0a7db0a","deletedCommentIds(uint256)":"3fb57c92","deletedProposalIds(uint256)":"05846cae","downvotingAllowed()":"60506ff6","forVotesToProposalIds(uint256,uint256)":"711effc8","getAllAddressesThatHaveVoted()":"2c39805f","getAllAuthorsOfDeletedProposals()":"cbdc27cb","getAllCommentIds()":"e11db9d8","getAllDeletedCommentIds()":"5cb718a1","getAllDeletedProposalIds()":"1242b737","getAllProposalAuthors()":"946369b5","getAllProposalIds()":"efa90d36","getComment(uint256)":"0800e300","getNumProposalsWithThisManyForVotes(uint256)":"9ba197af","getOnlyProposalIdWithThisManyForVotes(uint256)":"b66d1da3","getProposal(uint256)":"c7f758a8","getProposalComments(uint256)":"c05f4104","getProposalIdsLength()":"af3951f0","getProposalIdsSlice(uint256,uint256)":"3f25cd3e","getProposalsWithThisManyForVotes(uint256)":"c9a1b6b2","getRankIndex(uint256)":"5c7107d8","getSortedRanks()":"6fd3636b","hashComment((address,uint256,uint256,string))":"409fd030","hashProposal((address,bool,string,(address),(address[],uint256),(address[],string[],uint256[])))":"d7989025","isOrIsBelowTiedRank(uint256)":"9174778c","jkLabsSplitDestination()":"102613d8","maxProposalCount()":"fb9bf8d4","metadataFieldsSchema()":"60ed97a9","name()":"06fdde03","numAllowedProposalSubmissions()":"832009af","numSubmissions(address)":"75e509c5","officialRewardsModule()":"785ddfe5","payPerVote()":"03f7eed6","percentageToCreator()":"edcd1be4","prompt()":"7c65d711","proposalAddressVotes(uint256,address)":"6e4eb810","proposalAddressesHaveVoted(uint256)":"b323580d","proposalAuthors(uint256)":"0aa25e44","proposalComments(uint256,uint256)":"f61736f4","proposalIds(uint256)":"9b644a23","proposalIsDeleted(uint256)":"f79c0172","proposalVotes(uint256)":"544ffc9c","proposalVotesStructs(uint256)":"070dc5d9","proposals(uint256)":"013cf08b","propose((address,bool,string,(address),(address[],uint256),(address[],string[],uint256[])),bytes32[])":"f823f110","proposeWithoutProof((address,bool,string,(address),(address[],uint256),(address[],string[],uint256[])))":"ab5e6947","rankLimit()":"0414126a","setCreatorSplitDestination(address)":"146230f6","setOfficialRewardsModule(address)":"f4f3d7ec","setSubmissionMerkleRoot(bytes32)":"daf762db","setVotingMerkleRoot(bytes32)":"544c7bb4","sortedRanks(uint256)":"325cc6d9","sortingEnabled()":"366ecf5b","state()":"c19d93fb","submissionMerkleRoot()":"bddc1641","totalVotesCast()":"7de418d5","validateProposalData((address,bool,string,(address),(address[],uint256),(address[],string[],uint256[])))":"d140d9f0","verifyProposer(address,bytes32[])":"20b3e845","verifyVoter(address,uint256,bytes32[])":"531bd812","version()":"54fd4d50","voteStart()":"e031535b","votingDelay()":"3932abb1","votingMerkleRoot()":"dd96a19d","votingPeriod()":"02a251a3"},"id":34}