{
  "_format": "hh-sol-artifact-1",
  "contractName": "Contest",
  "sourceName": "contracts/Contest.sol",
  "abi": [
    {
      "inputs": [
        {
          "internalType": "string",
          "name": "_name",
          "type": "string"
        },
        {
          "internalType": "string",
          "name": "_prompt",
          "type": "string"
        },
        {
          "internalType": "contract IVotesTimestamp",
          "name": "_token",
          "type": "address"
        },
        {
          "internalType": "uint256[]",
          "name": "_constructorIntParams",
          "type": "uint256[]"
        }
      ],
      "stateMutability": "nonpayable",
      "type": "constructor"
    },
    {
      "anonymous": false,
      "inputs": [],
      "name": "ContestCanceled",
      "type": "event"
    },
    {
      "anonymous": false,
      "inputs": [
        {
          "indexed": false,
          "internalType": "uint256",
          "name": "oldContestSnapshot",
          "type": "uint256"
        },
        {
          "indexed": false,
          "internalType": "uint256",
          "name": "newContestSnapshot",
          "type": "uint256"
        }
      ],
      "name": "ContestSnapshotSet",
      "type": "event"
    },
    {
      "anonymous": false,
      "inputs": [
        {
          "indexed": false,
          "internalType": "uint256",
          "name": "oldContestStart",
          "type": "uint256"
        },
        {
          "indexed": false,
          "internalType": "uint256",
          "name": "newContestStart",
          "type": "uint256"
        }
      ],
      "name": "ContestStartSet",
      "type": "event"
    },
    {
      "anonymous": false,
      "inputs": [
        {
          "indexed": false,
          "internalType": "address",
          "name": "oldCreator",
          "type": "address"
        },
        {
          "indexed": false,
          "internalType": "address",
          "name": "newCreator",
          "type": "address"
        }
      ],
      "name": "CreatorSet",
      "type": "event"
    },
    {
      "anonymous": false,
      "inputs": [
        {
          "indexed": false,
          "internalType": "uint256",
          "name": "oldMaxProposalCount",
          "type": "uint256"
        },
        {
          "indexed": false,
          "internalType": "uint256",
          "name": "newMaxProposalCount",
          "type": "uint256"
        }
      ],
      "name": "MaxProposalCountSet",
      "type": "event"
    },
    {
      "anonymous": false,
      "inputs": [
        {
          "indexed": false,
          "internalType": "uint256",
          "name": "oldNumAllowedProposalSubmissions",
          "type": "uint256"
        },
        {
          "indexed": false,
          "internalType": "uint256",
          "name": "newNumAllowedProposalSubmissions",
          "type": "uint256"
        }
      ],
      "name": "NumAllowedProposalSubmissionsSet",
      "type": "event"
    },
    {
      "anonymous": false,
      "inputs": [
        {
          "indexed": false,
          "internalType": "uint256",
          "name": "proposalId",
          "type": "uint256"
        },
        {
          "indexed": false,
          "internalType": "string",
          "name": "description",
          "type": "string"
        },
        {
          "indexed": false,
          "internalType": "address",
          "name": "proposer",
          "type": "address"
        }
      ],
      "name": "ProposalCreated",
      "type": "event"
    },
    {
      "anonymous": false,
      "inputs": [
        {
          "indexed": false,
          "internalType": "uint256",
          "name": "oldProposalThreshold",
          "type": "uint256"
        },
        {
          "indexed": false,
          "internalType": "uint256",
          "name": "newProposalThreshold",
          "type": "uint256"
        }
      ],
      "name": "ProposalThresholdSet",
      "type": "event"
    },
    {
      "anonymous": false,
      "inputs": [
        {
          "indexed": false,
          "internalType": "uint256[]",
          "name": "proposalIds",
          "type": "uint256[]"
        }
      ],
      "name": "ProposalsDeleted",
      "type": "event"
    },
    {
      "anonymous": false,
      "inputs": [
        {
          "indexed": true,
          "internalType": "address",
          "name": "voter",
          "type": "address"
        },
        {
          "indexed": false,
          "internalType": "uint256",
          "name": "proposalId",
          "type": "uint256"
        },
        {
          "indexed": false,
          "internalType": "uint8",
          "name": "support",
          "type": "uint8"
        },
        {
          "indexed": false,
          "internalType": "uint256",
          "name": "numVotes",
          "type": "uint256"
        },
        {
          "indexed": false,
          "internalType": "string",
          "name": "reason",
          "type": "string"
        }
      ],
      "name": "VoteCast",
      "type": "event"
    },
    {
      "anonymous": false,
      "inputs": [
        {
          "indexed": false,
          "internalType": "uint256",
          "name": "oldVotingDelay",
          "type": "uint256"
        },
        {
          "indexed": false,
          "internalType": "uint256",
          "name": "newVotingDelay",
          "type": "uint256"
        }
      ],
      "name": "VotingDelaySet",
      "type": "event"
    },
    {
      "anonymous": false,
      "inputs": [
        {
          "indexed": false,
          "internalType": "uint256",
          "name": "oldVotingPeriod",
          "type": "uint256"
        },
        {
          "indexed": false,
          "internalType": "uint256",
          "name": "newVotingPeriod",
          "type": "uint256"
        }
      ],
      "name": "VotingPeriodSet",
      "type": "event"
    },
    {
      "inputs": [],
      "name": "BALLOT_TYPEHASH",
      "outputs": [
        {
          "internalType": "bytes32",
          "name": "",
          "type": "bytes32"
        }
      ],
      "stateMutability": "view",
      "type": "function"
    },
    {
      "inputs": [],
      "name": "COUNTING_MODE",
      "outputs": [
        {
          "internalType": "string",
          "name": "",
          "type": "string"
        }
      ],
      "stateMutability": "pure",
      "type": "function"
    },
    {
      "inputs": [],
      "name": "allProposalTotalVotes",
      "outputs": [
        {
          "internalType": "uint256[]",
          "name": "proposalIdsReturn",
          "type": "uint256[]"
        },
        {
          "components": [
            {
              "internalType": "uint256",
              "name": "forVotes",
              "type": "uint256"
            }
          ],
          "internalType": "struct GovernorCountingSimple.VoteCounts[]",
          "name": "proposalVoteCountsArrayReturn",
          "type": "tuple[]"
        }
      ],
      "stateMutability": "view",
      "type": "function"
    },
    {
      "inputs": [],
      "name": "cancel",
      "outputs": [],
      "stateMutability": "nonpayable",
      "type": "function"
    },
    {
      "inputs": [
        {
          "internalType": "uint256",
          "name": "proposalId",
          "type": "uint256"
        },
        {
          "internalType": "uint8",
          "name": "support",
          "type": "uint8"
        },
        {
          "internalType": "uint256",
          "name": "numVotes",
          "type": "uint256"
        }
      ],
      "name": "castVote",
      "outputs": [
        {
          "internalType": "uint256",
          "name": "",
          "type": "uint256"
        }
      ],
      "stateMutability": "nonpayable",
      "type": "function"
    },
    {
      "inputs": [
        {
          "internalType": "uint256",
          "name": "proposalId",
          "type": "uint256"
        },
        {
          "internalType": "uint8",
          "name": "support",
          "type": "uint8"
        },
        {
          "internalType": "uint256",
          "name": "numVotes",
          "type": "uint256"
        },
        {
          "internalType": "uint8",
          "name": "v",
          "type": "uint8"
        },
        {
          "internalType": "bytes32",
          "name": "r",
          "type": "bytes32"
        },
        {
          "internalType": "bytes32",
          "name": "s",
          "type": "bytes32"
        }
      ],
      "name": "castVoteBySig",
      "outputs": [
        {
          "internalType": "uint256",
          "name": "",
          "type": "uint256"
        }
      ],
      "stateMutability": "nonpayable",
      "type": "function"
    },
    {
      "inputs": [
        {
          "internalType": "uint256",
          "name": "proposalId",
          "type": "uint256"
        },
        {
          "internalType": "uint8",
          "name": "support",
          "type": "uint8"
        },
        {
          "internalType": "uint256",
          "name": "numVotes",
          "type": "uint256"
        },
        {
          "internalType": "string",
          "name": "reason",
          "type": "string"
        }
      ],
      "name": "castVoteWithReason",
      "outputs": [
        {
          "internalType": "uint256",
          "name": "",
          "type": "uint256"
        }
      ],
      "stateMutability": "nonpayable",
      "type": "function"
    },
    {
      "inputs": [
        {
          "internalType": "address",
          "name": "userAddress",
          "type": "address"
        }
      ],
      "name": "contestAddressTotalVotesCast",
      "outputs": [
        {
          "internalType": "uint256",
          "name": "totalVotesCast",
          "type": "uint256"
        }
      ],
      "stateMutability": "view",
      "type": "function"
    },
    {
      "inputs": [],
      "name": "contestDeadline",
      "outputs": [
        {
          "internalType": "uint256",
          "name": "",
          "type": "uint256"
        }
      ],
      "stateMutability": "view",
      "type": "function"
    },
    {
      "inputs": [],
      "name": "contestSnapshot",
      "outputs": [
        {
          "internalType": "uint256",
          "name": "",
          "type": "uint256"
        }
      ],
      "stateMutability": "view",
      "type": "function"
    },
    {
      "inputs": [],
      "name": "contestStart",
      "outputs": [
        {
          "internalType": "uint256",
          "name": "",
          "type": "uint256"
        }
      ],
      "stateMutability": "view",
      "type": "function"
    },
    {
      "inputs": [],
      "name": "creator",
      "outputs": [
        {
          "internalType": "address",
          "name": "",
          "type": "address"
        }
      ],
      "stateMutability": "view",
      "type": "function"
    },
    {
      "inputs": [
        {
          "internalType": "uint256[]",
          "name": "proposalIds",
          "type": "uint256[]"
        }
      ],
      "name": "deleteProposals",
      "outputs": [],
      "stateMutability": "nonpayable",
      "type": "function"
    },
    {
      "inputs": [],
      "name": "getAllProposalIds",
      "outputs": [
        {
          "internalType": "uint256[]",
          "name": "",
          "type": "uint256[]"
        }
      ],
      "stateMutability": "view",
      "type": "function"
    },
    {
      "inputs": [
        {
          "internalType": "address",
          "name": "account",
          "type": "address"
        }
      ],
      "name": "getCurrentVotes",
      "outputs": [
        {
          "internalType": "uint256",
          "name": "",
          "type": "uint256"
        }
      ],
      "stateMutability": "view",
      "type": "function"
    },
    {
      "inputs": [
        {
          "internalType": "address",
          "name": "account",
          "type": "address"
        }
      ],
      "name": "getNumSubmissions",
      "outputs": [
        {
          "internalType": "uint256",
          "name": "",
          "type": "uint256"
        }
      ],
      "stateMutability": "view",
      "type": "function"
    },
    {
      "inputs": [
        {
          "internalType": "uint256",
          "name": "proposalId",
          "type": "uint256"
        }
      ],
      "name": "getProposal",
      "outputs": [
        {
          "components": [
            {
              "internalType": "address",
              "name": "author",
              "type": "address"
            },
            {
              "internalType": "string",
              "name": "description",
              "type": "string"
            },
            {
              "internalType": "bool",
              "name": "exists",
              "type": "bool"
            }
          ],
          "internalType": "struct Governor.ProposalCore",
          "name": "",
          "type": "tuple"
        }
      ],
      "stateMutability": "view",
      "type": "function"
    },
    {
      "inputs": [
        {
          "internalType": "address",
          "name": "account",
          "type": "address"
        },
        {
          "internalType": "uint256",
          "name": "timestamp",
          "type": "uint256"
        }
      ],
      "name": "getVotes",
      "outputs": [
        {
          "internalType": "uint256",
          "name": "",
          "type": "uint256"
        }
      ],
      "stateMutability": "view",
      "type": "function"
    },
    {
      "inputs": [
        {
          "internalType": "string",
          "name": "proposalDescription",
          "type": "string"
        }
      ],
      "name": "hashProposal",
      "outputs": [
        {
          "internalType": "uint256",
          "name": "",
          "type": "uint256"
        }
      ],
      "stateMutability": "pure",
      "type": "function"
    },
    {
      "inputs": [],
      "name": "maxProposalCount",
      "outputs": [
        {
          "internalType": "uint256",
          "name": "",
          "type": "uint256"
        }
      ],
      "stateMutability": "view",
      "type": "function"
    },
    {
      "inputs": [],
      "name": "name",
      "outputs": [
        {
          "internalType": "string",
          "name": "",
          "type": "string"
        }
      ],
      "stateMutability": "view",
      "type": "function"
    },
    {
      "inputs": [],
      "name": "numAllowedProposalSubmissions",
      "outputs": [
        {
          "internalType": "uint256",
          "name": "",
          "type": "uint256"
        }
      ],
      "stateMutability": "view",
      "type": "function"
    },
    {
      "inputs": [],
      "name": "prompt",
      "outputs": [
        {
          "internalType": "string",
          "name": "",
          "type": "string"
        }
      ],
      "stateMutability": "view",
      "type": "function"
    },
    {
      "inputs": [
        {
          "internalType": "uint256",
          "name": "proposalId",
          "type": "uint256"
        },
        {
          "internalType": "address",
          "name": "userAddress",
          "type": "address"
        }
      ],
      "name": "proposalAddressVotes",
      "outputs": [
        {
          "internalType": "uint256",
          "name": "forVotes",
          "type": "uint256"
        }
      ],
      "stateMutability": "view",
      "type": "function"
    },
    {
      "inputs": [
        {
          "internalType": "uint256",
          "name": "proposalId",
          "type": "uint256"
        }
      ],
      "name": "proposalAddressesHaveVoted",
      "outputs": [
        {
          "internalType": "address[]",
          "name": "",
          "type": "address[]"
        }
      ],
      "stateMutability": "view",
      "type": "function"
    },
    {
      "inputs": [],
      "name": "proposalThreshold",
      "outputs": [
        {
          "internalType": "uint256",
          "name": "",
          "type": "uint256"
        }
      ],
      "stateMutability": "view",
      "type": "function"
    },
    {
      "inputs": [
        {
          "internalType": "uint256",
          "name": "proposalId",
          "type": "uint256"
        }
      ],
      "name": "proposalVotes",
      "outputs": [
        {
          "internalType": "uint256",
          "name": "forVotes",
          "type": "uint256"
        }
      ],
      "stateMutability": "view",
      "type": "function"
    },
    {
      "inputs": [
        {
          "internalType": "string",
          "name": "proposalDescription",
          "type": "string"
        }
      ],
      "name": "propose",
      "outputs": [
        {
          "internalType": "uint256",
          "name": "",
          "type": "uint256"
        }
      ],
      "stateMutability": "nonpayable",
      "type": "function"
    },
    {
      "inputs": [],
      "name": "state",
      "outputs": [
        {
          "internalType": "enum IGovernor.ContestState",
          "name": "",
          "type": "uint8"
        }
      ],
      "stateMutability": "view",
      "type": "function"
    },
    {
      "inputs": [
        {
          "internalType": "bytes4",
          "name": "interfaceId",
          "type": "bytes4"
        }
      ],
      "name": "supportsInterface",
      "outputs": [
        {
          "internalType": "bool",
          "name": "",
          "type": "bool"
        }
      ],
      "stateMutability": "view",
      "type": "function"
    },
    {
      "inputs": [],
      "name": "token",
      "outputs": [
        {
          "internalType": "contract IVotesTimestamp",
          "name": "",
          "type": "address"
        }
      ],
      "stateMutability": "view",
      "type": "function"
    },
    {
      "inputs": [],
      "name": "version",
      "outputs": [
        {
          "internalType": "string",
          "name": "",
          "type": "string"
        }
      ],
      "stateMutability": "view",
      "type": "function"
    },
    {
      "inputs": [],
      "name": "voteStart",
      "outputs": [
        {
          "internalType": "uint256",
          "name": "",
          "type": "uint256"
        }
      ],
      "stateMutability": "view",
      "type": "function"
    },
    {
      "inputs": [],
      "name": "votingDelay",
      "outputs": [
        {
          "internalType": "uint256",
          "name": "",
          "type": "uint256"
        }
      ],
      "stateMutability": "view",
      "type": "function"
    },
    {
      "inputs": [],
      "name": "votingPeriod",
      "outputs": [
        {
          "internalType": "uint256",
          "name": "",
          "type": "uint256"
        }
      ],
      "stateMutability": "view",
      "type": "function"
    },
    {
      "stateMutability": "payable",
      "type": "receive"
    }
  ],
  "bytecode": "0x6101606040523480156200001257600080fd5b5060405162002cea38038062002cea83398101604081905262000035916200069c565b81816000815181106200005857634e487b7160e01b600052603260045260246000fd5b6020026020010151826001815181106200008257634e487b7160e01b600052603260045260246000fd5b602002602001015183600281518110620000ac57634e487b7160e01b600052603260045260246000fd5b602002602001015184600381518110620000d657634e487b7160e01b600052603260045260246000fd5b6020026020010151856004815181106200010057634e487b7160e01b600052603260045260246000fd5b6020026020010151866005815181106200012a57634e487b7160e01b600052603260045260246000fd5b6020026020010151876006815181106200015457634e487b7160e01b600052603260045260246000fd5b60200260200101518b8b816200016f620002b560201b60201c565b815160208084019190912082518383012060e08290526101008190524660a0818152604080517f8b73c3c69bb8fe3d512ecc4cf759cc79239f7b179b0ffacaa9a75d522b39400f81880181905281830187905260608201869052608082019490945230818401528151808203909301835260c00190528051940193909320919290916080523060601b60c052610120525050835162000218925060019150602085019062000565565b5080516200022e90600290602084019062000565565b5050506200024287620002d060201b60201c565b6200024d8662000311565b620002588562000352565b6200026384620003f8565b6200026e8362000439565b62000279826200047a565b6200028481620004bb565b6200028f33620004fc565b505050505060609290921b6001600160601b03191661014052506200083f945050505050565b6040805180820190915260018152603160f81b602082015290565b60065460408051918252602082018390527fd299feb1d7d9345a48559601c471c3be7eea9a11f21d5e86809198f40a974db4910160405180910390a1600655565b60075460408051918252602082018390527fc565b045403dc03c2eea82b81a0465edad9e2e7fc4d97e11421c209da93d7a93910160405180910390a1600755565b60008111620003b75760405162461bcd60e51b815260206004820152602760248201527f476f7665726e6f7253657474696e67733a20766f74696e6720706572696f6420604482015266746f6f206c6f7760c81b606482015260840160405180910390fd5b60085460408051918252602082018390527f7e3f7f0708a84de9203036abaa450dccc85ad5ff52f78c170f3edb55cf5e8828910160405180910390a1600855565b60095460408051918252602082018390527f70d92b9b65fcaa7708049081fd0ad601c9af76bd86d38df0337dfce3d025ec83910160405180910390a1600955565b600a5460408051918252602082018390527fccb45da8d5717e6c4544694297c4ba5cf151d455c9bb0ed4fc7a38411bc05461910160405180910390a1600a55565b600b5460408051918252602082018390527fe971b819c7fb95c72451f557226aceb5baaf4994a9d39a79bbfa0040e87500b9910160405180910390a1600b55565b600c5460408051918252602082018390527f4984ec996723330ee95979ed65a2a4b41edd914e68a187efe92596474643bdff910160405180910390a1600c55565b600d54604080516001600160a01b03928316815291831660208301527fc30034fc2e9697980e08935bbc287db3eaa44a4aa113ef4c108b356adbf911ce910160405180910390a1600d80546001600160a01b0319166001600160a01b0392909216919091179055565b8280546200057390620007ec565b90600052602060002090601f016020900481019282620005975760008555620005e2565b82601f10620005b257805160ff1916838001178555620005e2565b82800160010185558215620005e2579182015b82811115620005e2578251825591602001919060010190620005c5565b50620005f0929150620005f4565b5090565b5b80821115620005f05760008155600101620005f5565b600082601f8301126200061c578081fd5b81516001600160401b0381111562000638576200063862000829565b60206200064e601f8301601f19168201620007b9565b828152858284870101111562000662578384fd5b835b838110156200068157858101830151828201840152820162000664565b838111156200069257848385840101525b5095945050505050565b60008060008060808587031215620006b2578384fd5b84516001600160401b0380821115620006c9578586fd5b620006d7888389016200060b565b9550602091508187015181811115620006ee578586fd5b620006fc89828a016200060b565b604089015190965090506001600160a01b03811681146200071b578485fd5b60608801519094508181111562000730578384fd5b8701601f8101891362000741578384fd5b80518281111562000756576200075662000829565b8060051b925062000769848401620007b9565b8181528481019083860185850187018d101562000784578788fd5b8795505b83861015620007a857805183526001959095019491860191860162000788565b50989b979a50959850505050505050565b604051601f8201601f191681016001600160401b0381118282101715620007e457620007e462000829565b604052919050565b600181811c908216806200080157607f821691505b602082108114156200082357634e487b7160e01b600052602260045260246000fd5b50919050565b634e487b7160e01b600052604160045260246000fd5b60805160a05160c05160601c60e05161010051610120516101405160601c61243c620008ae600039600081816106d30152818161155e01526116790152600061195e015260006119ad01526000611988015260006118e10152600061190b01526000611935015261243c6000f3fe6080604052600436106102075760003560e01c8063aa98df3911610118578063dd4e2ba5116100a0578063eb9019d41161006f578063eb9019d41461064a578063efa90d361461066a578063f0a7db0a1461068c578063fb9bf8d4146106ac578063fc0c546a146106c157600080fd5b8063dd4e2ba5146105b8578063deaaa7cc146105ec578063e031535b14610620578063ea8a1af01461063557600080fd5b8063b58131b0116100e7578063b58131b014610514578063bd65e80a14610529578063c19d93fb14610549578063c7f758a81461056b578063d17ad2d41461059857600080fd5b8063aa98df3914610471578063aec116b614610491578063b323580d146104c7578063b4b5ea57146104f457600080fd5b806350a5e5241161019b5780635f953a031161016a5780635f953a03146103aa5780636e4eb810146103e05780637c65d71114610427578063832009af1461043c5780639c0281761461045157600080fd5b806350a5e5241461031b578063540a91901461033e578063544ffc9c1461035357806354fd4d501461038057600080fd5b806306fdde03116101d757806306fdde03146102af5780631566f60d146102d1578063262e59e9146102f15780633932abb11461030657600080fd5b80624114a81461021557806301ffc9a71461023d57806302a251a31461026d57806302d05d3f1461028257600080fd5b3661021057005b005b600080fd5b34801561022157600080fd5b5061022a6106f5565b6040519081526020015b60405180910390f35b34801561024957600080fd5b5061025d610258366004611e9d565b610705565b6040519015158152602001610234565b34801561027957600080fd5b5061022a61073c565b34801561028e57600080fd5b50610297610747565b6040516001600160a01b039091168152602001610234565b3480156102bb57600080fd5b506102c461075b565b604051610234919061222b565b3480156102dd57600080fd5b5061022a6102ec366004611fe1565b6107ed565b3480156102fd57600080fd5b5061022a610841565b34801561031257600080fd5b5061022a61085d565b34801561032757600080fd5b50610330610868565b6040516102349291906121ac565b34801561034a57600080fd5b5060095461022a565b34801561035f57600080fd5b5061022a61036e366004611f52565b6000908152600f602052604090205490565b34801561038c57600080fd5b506040805180820190915260018152603160f81b60208201526102c4565b3480156103b657600080fd5b5061022a6103c5366004611db2565b6001600160a01b031660009081526005602052604090205490565b3480156103ec57600080fd5b5061022a6103fb366004611f82565b6000828152600f602090815260408083206001600160a01b038516845260020190915290205492915050565b34801561043357600080fd5b506102c461098a565b34801561044857600080fd5b5061022a610999565b34801561045d57600080fd5b5061022a61046c366004611fad565b6109a4565b34801561047d57600080fd5b5061022a61048c366004611ec5565b6109cf565b34801561049d57600080fd5b5061022a6104ac366004611db2565b6001600160a01b03166000908152600e602052604090205490565b3480156104d357600080fd5b506104e76104e2366004611f52565b610e10565b604051610234919061214c565b34801561050057600080fd5b5061022a61050f366004611db2565b610e82565b34801561052057600080fd5b5061022a610e8d565b34801561053557600080fd5b5061022a610544366004611ec5565b610e98565b34801561055557600080fd5b5061055e610ec9565b6040516102349190612203565b34801561057757600080fd5b5061058b610586366004611f52565b610f1d565b604051610234919061223e565b3480156105a457600080fd5b5061022a6105b3366004612070565b611021565b3480156105c457600080fd5b5060408051808201909152600b81526a39bab83837b93a1eb337b960a91b60208201526102c4565b3480156105f857600080fd5b5061022a7f150214d74d59b7d1e90c73fc22ef3d991dd0a76b046543d4d80ab92d2a50328f81565b34801561062c57600080fd5b5061022a6110b7565b34801561064157600080fd5b5061020e6110c9565b34801561065657600080fd5b5061022a610665366004611dcc565b6111cf565b34801561067657600080fd5b5061067f6111e2565b6040516102349190612199565b34801561069857600080fd5b5061020e6106a7366004611df5565b611239565b3480156106b857600080fd5b5061022a611321565b3480156106cd57600080fd5b506102977f000000000000000000000000000000000000000000000000000000000000000081565b600061070060065490565b905090565b60006001600160e01b031982166322592d6960e21b148061073657506301ffc9a760e01b6001600160e01b03198316145b92915050565b600061070060085490565b6000610700600d546001600160a01b031690565b60606001805461076a90612347565b80601f016020809104026020016040519081016040528092919081815260200182805461079690612347565b80156107e35780601f106107b8576101008083540402835291602001916107e3565b820191906000526020600020905b8154815290600101906020018083116107c657829003601f168201915b5050505050905090565b6000803390506108368782888888888080601f01602080910402602001604051908101604052809392919081815260200183838082843760009201919091525061132c92505050565b979650505050505050565b600061084b61073c565b6108536110b7565b6107009190612318565b600061070060075490565b60608060006108756111e2565b90506000815167ffffffffffffffff8111156108a157634e487b7160e01b600052604160045260246000fd5b6040519080825280602002602001820160405280156108e157816020015b6040805160208101909152600081528152602001906001900390816108bf5790505b50905060005b825181101561098057600f600084838151811061091457634e487b7160e01b600052603260045260246000fd5b6020026020010151815260200190815260200160002060000160405180602001604052908160008201548152505082828151811061096257634e487b7160e01b600052603260045260246000fd5b6020026020010181905250808061097890612382565b9150506108e7565b5090939092509050565b60606002805461076a90612347565b6000610700600b5490565b6000803390506109c6858286866040518060200160405280600081525061132c565b95945050505050565b600060026109db610ec9565b60038111156109fa57634e487b7160e01b600052602160045260246000fd5b14610a725760405162461bcd60e51b815260206004820152603e60248201527f476f7665726e6f723a20636f6e74657374206d7573742062652071756575656460448201527f20666f722070726f706f73616c7320746f206265207375626d6974746564000060648201526084015b60405180910390fd5b610a7a610999565b3360009081526005602052604090205410610b235760405162461bcd60e51b815260206004820152605d60248201527f476f7665726e6f723a207468652073616d652063616e6e6f74207375626d697460448201527f206d6f7265207468616e20746865206e756d416c6c6f77656450726f706f736160648201527f6c5375626d697373696f6e7320666f72207468697320636f6e74657374000000608482015260a401610a69565b610b2b611321565b60005410610ba15760405162461bcd60e51b815260206004820152603960248201527f476f7665726e6f723a20746865206d6178206e756d626572206f662070726f7060448201527f6f73616c732068617665206265656e207375626d6974746564000000000000006064820152608401610a69565b610ba9610e8d565b610bb233610e82565b1015610c325760405162461bcd60e51b815260206004820152604360248201527f476f7665726e6f72436f6d7061746962696c697479427261766f3a2070726f7060448201527f6f73657220766f7465732062656c6f772070726f706f73616c207468726573686064820152621bdb1960ea1b608482015260a401610a69565b8151610c805760405162461bcd60e51b815260206004820152601860248201527f476f7665726e6f723a20656d7074792070726f706f73616c00000000000000006044820152606401610a69565b6000610c8b83610e98565b60008181526004602052604090206002015490915060ff1615610d025760405162461bcd60e51b815260206004820152602960248201527f476f7665726e6f723a206475706c69636174652070726f706f73616c73206e6f6044820152681d08185b1b1bddd95960ba1b6064820152608401610a69565b60008054600180820183557f290decd9548b62a8d60345a988386fc84ba6bc95484008f6362f93160ef3e5639091018390556040805160608101825233815260208082018881528284018590528686526004825292909420815181546001600160a01b0319166001600160a01b039091161781559151805191949293610d8e9390850192910190611cec565b50604091820151600291909101805460ff19169115159190911790553360009081526005602052908120805460019290610dc9908490612318565b909155507fc8c078bfee58e5822588f08b4509ed1eb5058e03f666cca84dd2d44bf5c288a89050818433604051610e0293929190612284565b60405180910390a192915050565b6000818152600f60209081526040918290206001810180548451818502810185019095528085526060949293830182828015610e7557602002820191906000526020600020905b81546001600160a01b03168152600190910190602001808311610e57575b5050505050915050919050565b60006107368261153c565b6000610700600a5490565b600081604051602001610eab919061222b565b60408051601f19818403018152919052805160209091012092915050565b60035460009060ff1615610edd5750600190565b6000610ee76110b7565b9050428110610ef857600291505090565b6000610f02610841565b9050428110610f145760009250505090565b60039250505090565b610f4c604051806060016040528060006001600160a01b03168152602001606081526020016000151581525090565b60008281526004602090815260409182902082516060810190935280546001600160a01b031683526001810180549192840191610f8890612347565b80601f0160208091040260200160405190810160405280929190818152602001828054610fb490612347565b80156110015780601f10610fd657610100808354040283529160200191611001565b820191906000526020600020905b815481529060010190602001808311610fe457829003601f168201915b50505091835250506002919091015460ff16151560209091015292915050565b604080517f150214d74d59b7d1e90c73fc22ef3d991dd0a76b046543d4d80ab92d2a50328f602082015290810187905260ff86166060820152600090819061108d9061108590608001604051602081830303815290604052805190602001206115da565b868686611628565b90506110ab888289896040518060200160405280600081525061132c565b98975050505050505050565b60006110c161085d565b6108536106f5565b6110d1610747565b6001600160a01b0316336001600160a01b0316146110ee57600080fd5b60006110f8610ec9565b9050600181600381111561111c57634e487b7160e01b600052602160045260246000fd5b1415801561114a5750600381600381111561114757634e487b7160e01b600052602160045260246000fd5b14155b6111965760405162461bcd60e51b815260206004820152601c60248201527f476f7665726e6f723a20636f6e74657374206e6f7420616374697665000000006044820152606401610a69565b6003805460ff191660011790556040517f4cd963a081760a54f571abc0f1db4dde31b4a07d8d6da3e844b8c6f47eeaaa4290600090a150565b60006111db8383611650565b9392505050565b606060008054806020026020016040519081016040528092919081815260200182805480156107e357602002820191906000526020600020905b81548152602001906001019080831161121c575050505050905090565b611241610747565b6001600160a01b0316336001600160a01b03161461125e57600080fd5b60005b81518110156112e6576040518060600160405280603d81526020016123ca603d9139600460008484815181106112a757634e487b7160e01b600052603260045260246000fd5b6020026020010151815260200190815260200160002060010190805190602001906112d3929190611cec565b50806112de81612382565b915050611261565b507f75a75cf5c561892f4cc5b26c1b8e933849b42238c96dd073d080d1ae96c51416816040516113169190612199565b60405180910390a150565b6000610700600c5490565b600080611337610ec9565b600381111561135657634e487b7160e01b600052602160045260246000fd5b146113af5760405162461bcd60e51b815260206004820152602360248201527f476f7665726e6f723a20766f7465206e6f742063757272656e746c792061637460448201526269766560e81b6064820152608401610a69565b600083116114255760405162461bcd60e51b815260206004820152603760248201527f476f7665726e6f72566f74696e6753696d706c653a2063616e6e6f7420766f7460448201527f6520776974682030206f7220666577657220766f7465730000000000000000006064820152608401610a69565b60006114348661066560095490565b9050600081116114de5760405162461bcd60e51b815260206004820152606360248201527f476f7665726e6f72566f74696e6753696d706c653a20796f75206d757374206860448201527f6176652067726561746572207468616e20302064656c65676174656420766f7460648201527f65732061742074686520736e617073686f7420696e206f7264657220746f20766084820152626f746560e81b60a482015260c401610a69565b6114eb87878787856116f5565b856001600160a01b03167fb8e138887d0aa13bab447e82de9d5c1777041ecd21ca36ba824ff1e6c07ddda48887878760405161152a94939291906122b5565b60405180910390a29695505050505050565b6040516309ab24eb60e41b81526001600160a01b0382811660048301526000917f000000000000000000000000000000000000000000000000000000000000000090911690639ab24eb09060240160206040518083038186803b1580156115a257600080fd5b505afa1580156115b6573d6000803e3d6000fd5b505050506040513d601f19601f820116820180604052508101906107369190611f6a565b60006107366115e76118d4565b8360405161190160f01b6020820152602281018390526042810182905260009060620160405160208183030381529060405280519060200120905092915050565b6000806000611639878787876119fb565b9150915061164681611ae8565b5095945050505050565b604051630748d63560e31b81526001600160a01b038381166004830152602482018390526000917f000000000000000000000000000000000000000000000000000000000000000090911690633a46b1a89060440160206040518083038186803b1580156116bd57600080fd5b505afa1580156116d1573d6000803e3d6000fd5b505050506040513d601f19601f820116820180604052508101906111db9190611f6a565b6000858152600f602090815260408083206001600160a01b0388168452600e909252909120546117259083612330565b8311156117905760405162461bcd60e51b815260206004820152603360248201527f476f7665726e6f72566f74696e6753696d706c653a206e6f7420656e6f756768604482015272081d9bdd195cc81b19599d081d1bc818d85cdd606a1b6064820152608401610a69565b6001600160a01b03851660009081526002820160205260409020541560ff8516611802578154849083906000906117c8908490612318565b90915550506001600160a01b0386166000908152600283016020526040812080548692906117f7908490612318565b909155506118689050565b60405162461bcd60e51b815260206004820152603560248201527f476f7665726e6f72566f74696e6753696d706c653a20696e76616c69642076616044820152746c756520666f7220656e756d20566f74655479706560581b6064820152608401610a69565b801561189e576001828101805491820181556000908152602090200180546001600160a01b0319166001600160a01b0388161790555b6001600160a01b0386166000908152600e6020526040812080548692906118c6908490612318565b909155505050505050505050565b6000306001600160a01b037f00000000000000000000000000000000000000000000000000000000000000001614801561192d57507f000000000000000000000000000000000000000000000000000000000000000046145b1561195757507f000000000000000000000000000000000000000000000000000000000000000090565b50604080517f00000000000000000000000000000000000000000000000000000000000000006020808301919091527f0000000000000000000000000000000000000000000000000000000000000000828401527f000000000000000000000000000000000000000000000000000000000000000060608301524660808301523060a0808401919091528351808403909101815260c0909201909252805191012090565b6000807f7fffffffffffffffffffffffffffffff5d576e7357a4501ddfe92f46681b20a0831115611a325750600090506003611adf565b8460ff16601b14158015611a4a57508460ff16601c14155b15611a5b5750600090506004611adf565b6040805160008082526020820180845289905260ff881692820192909252606081018690526080810185905260019060a0016020604051602081039080840390855afa158015611aaf573d6000803e3d6000fd5b5050604051601f1901519150506001600160a01b038116611ad857600060019250925050611adf565b9150600090505b94509492505050565b6000816004811115611b0a57634e487b7160e01b600052602160045260246000fd5b1415611b135750565b6001816004811115611b3557634e487b7160e01b600052602160045260246000fd5b1415611b835760405162461bcd60e51b815260206004820152601860248201527f45434453413a20696e76616c6964207369676e617475726500000000000000006044820152606401610a69565b6002816004811115611ba557634e487b7160e01b600052602160045260246000fd5b1415611bf35760405162461bcd60e51b815260206004820152601f60248201527f45434453413a20696e76616c6964207369676e6174757265206c656e677468006044820152606401610a69565b6003816004811115611c1557634e487b7160e01b600052602160045260246000fd5b1415611c6e5760405162461bcd60e51b815260206004820152602260248201527f45434453413a20696e76616c6964207369676e6174757265202773272076616c604482015261756560f01b6064820152608401610a69565b6004816004811115611c9057634e487b7160e01b600052602160045260246000fd5b1415611ce95760405162461bcd60e51b815260206004820152602260248201527f45434453413a20696e76616c6964207369676e6174757265202776272076616c604482015261756560f01b6064820152608401610a69565b50565b828054611cf890612347565b90600052602060002090601f016020900481019282611d1a5760008555611d60565b82601f10611d3357805160ff1916838001178555611d60565b82800160010185558215611d60579182015b82811115611d60578251825591602001919060010190611d45565b50611d6c929150611d70565b5090565b5b80821115611d6c5760008155600101611d71565b80356001600160a01b0381168114611d9c57600080fd5b919050565b803560ff81168114611d9c57600080fd5b600060208284031215611dc3578081fd5b6111db82611d85565b60008060408385031215611dde578081fd5b611de783611d85565b946020939093013593505050565b60006020808385031215611e07578182fd5b823567ffffffffffffffff80821115611e1e578384fd5b818501915085601f830112611e31578384fd5b813581811115611e4357611e436123b3565b8060051b9150611e548483016122e7565b8181528481019084860184860187018a1015611e6e578788fd5b8795505b83861015611e90578035835260019590950194918601918601611e72565b5098975050505050505050565b600060208284031215611eae578081fd5b81356001600160e01b0319811681146111db578182fd5b60006020808385031215611ed7578182fd5b823567ffffffffffffffff80821115611eee578384fd5b818501915085601f830112611f01578384fd5b813581811115611f1357611f136123b3565b611f25601f8201601f191685016122e7565b91508082528684828501011115611f3a578485fd5b80848401858401378101909201929092529392505050565b600060208284031215611f63578081fd5b5035919050565b600060208284031215611f7b578081fd5b5051919050565b60008060408385031215611f94578182fd5b82359150611fa460208401611d85565b90509250929050565b600080600060608486031215611fc1578081fd5b83359250611fd160208501611da1565b9150604084013590509250925092565b600080600080600060808688031215611ff8578081fd5b8535945061200860208701611da1565b935060408601359250606086013567ffffffffffffffff8082111561202b578283fd5b818801915088601f83011261203e578283fd5b81358181111561204c578384fd5b89602082850101111561205d578384fd5b9699959850939650602001949392505050565b60008060008060008060c08789031215612088578081fd5b8635955061209860208801611da1565b9450604087013593506120ad60608801611da1565b92506080870135915060a087013590509295509295509295565b6000815180845260208085019450808401835b838110156120f6578151875295820195908201906001016120da565b509495945050505050565b60008151808452815b818110156121265760208185018101518683018201520161210a565b818111156121375782602083870101525b50601f01601f19169290920160200192915050565b6020808252825182820181905260009190848201906040850190845b8181101561218d5783516001600160a01b031683529284019291840191600101612168565b50909695505050505050565b6020815260006111db60208301846120c7565b6040815260006121bf60408301856120c7565b828103602084810191909152845180835285820192820190845b818110156121f657845151835293830193918301916001016121d9565b5090979650505050505050565b602081016004831061222557634e487b7160e01b600052602160045260246000fd5b91905290565b6020815260006111db6020830184612101565b602080825282516001600160a01b0316828201528201516060604083015260009061226c6080840182612101565b90506040840151151560608401528091505092915050565b83815260606020820152600061229d6060830185612101565b905060018060a01b0383166040830152949350505050565b84815260ff841660208201528260408201526080606082015260006122dd6080830184612101565b9695505050505050565b604051601f8201601f1916810167ffffffffffffffff81118282101715612310576123106123b3565b604052919050565b6000821982111561232b5761232b61239d565b500190565b6000828210156123425761234261239d565b500390565b600181811c9082168061235b57607f821691505b6020821081141561237c57634e487b7160e01b600052602260045260246000fd5b50919050565b60006000198214156123965761239661239d565b5060010190565b634e487b7160e01b600052601160045260246000fd5b634e487b7160e01b600052604160045260246000fdfe546869732070726f706f73616c20686173206265656e2064656c65746564206279207468652063726561746f72206f662074686520636f6e746573742ea264697066735822122086058e4b8aff28576bbbe8d6f8d404b83b2bfa01747523628b5a2ae13ea7ca8c64736f6c63430008040033",
  "linkReferences": {},
  "deployedLinkReferences": {}
}