{"abi":[{"type":"constructor","inputs":[{"name":"_name","type":"string","internalType":"string"},{"name":"_prompt","type":"string","internalType":"string"},{"name":"_submissionMerkleRoot","type":"bytes32","internalType":"bytes32"},{"name":"_votingMerkleRoot","type":"bytes32","internalType":"bytes32"},{"name":"_constructorArgs","type":"tuple","internalType":"struct Governor.ConstructorArgs","components":[{"name":"intConstructorArgs","type":"tuple","internalType":"struct Governor.IntConstructorArgs","components":[{"name":"contestStart","type":"uint256","internalType":"uint256"},{"name":"votingDelay","type":"uint256","internalType":"uint256"},{"name":"votingPeriod","type":"uint256","internalType":"uint256"},{"name":"numAllowedProposalSubmissions","type":"uint256","internalType":"uint256"},{"name":"maxProposalCount","type":"uint256","internalType":"uint256"},{"name":"downvotingAllowed","type":"uint256","internalType":"uint256"},{"name":"sortingEnabled","type":"uint256","internalType":"uint256"},{"name":"rankLimit","type":"uint256","internalType":"uint256"},{"name":"percentageToCreator","type":"uint256","internalType":"uint256"},{"name":"costToPropose","type":"uint256","internalType":"uint256"},{"name":"costToVote","type":"uint256","internalType":"uint256"},{"name":"payPerVote","type":"uint256","internalType":"uint256"}]},{"name":"creatorSplitDestination","type":"address","internalType":"address"},{"name":"jkLabsSplitDestination","type":"address","internalType":"address"},{"name":"metadataFieldsSchema","type":"string","internalType":"string"}]}],"stateMutability":"nonpayable"},{"type":"function","name":"AMOUNT_FOR_SUMBITTER_PROOF","inputs":[],"outputs":[{"name":"","type":"uint256","internalType":"uint256"}],"stateMutability":"view"},{"type":"function","name":"JK_LABS_ADDRESS","inputs":[],"outputs":[{"name":"","type":"address","internalType":"address"}],"stateMutability":"view"},{"type":"function","name":"MAX_FIELDS_METADATA_LENGTH","inputs":[],"outputs":[{"name":"","type":"uint256","internalType":"uint256"}],"stateMutability":"view"},{"type":"function","name":"METADATAS_COUNT","inputs":[],"outputs":[{"name":"","type":"uint256","internalType":"uint256"}],"stateMutability":"view"},{"type":"function","name":"addressSubmitterVerified","inputs":[{"name":"","type":"address","internalType":"address"}],"outputs":[{"name":"","type":"bool","internalType":"bool"}],"stateMutability":"view"},{"type":"function","name":"addressTotalCastVoteCounts","inputs":[{"name":"","type":"address","internalType":"address"}],"outputs":[{"name":"","type":"uint256","internalType":"uint256"}],"stateMutability":"view"},{"type":"function","name":"addressTotalVotes","inputs":[{"name":"","type":"address","internalType":"address"}],"outputs":[{"name":"","type":"uint256","internalType":"uint256"}],"stateMutability":"view"},{"type":"function","name":"addressTotalVotesVerified","inputs":[{"name":"","type":"address","internalType":"address"}],"outputs":[{"name":"","type":"bool","internalType":"bool"}],"stateMutability":"view"},{"type":"function","name":"addressesThatHaveVoted","inputs":[{"name":"","type":"uint256","internalType":"uint256"}],"outputs":[{"name":"","type":"address","internalType":"address"}],"stateMutability":"view"},{"type":"function","name":"allProposalTotalVotes","inputs":[],"outputs":[{"name":"proposalIdsReturn","type":"uint256[]","internalType":"uint256[]"},{"name":"proposalVoteCountsArrayReturn","type":"tuple[]","internalType":"struct GovernorCountingSimple.VoteCounts[]","components":[{"name":"forVotes","type":"uint256","internalType":"uint256"},{"name":"againstVotes","type":"uint256","internalType":"uint256"}]}],"stateMutability":"view"},{"type":"function","name":"cancel","inputs":[],"outputs":[],"stateMutability":"nonpayable"},{"type":"function","name":"canceled","inputs":[],"outputs":[{"name":"","type":"bool","internalType":"bool"}],"stateMutability":"view"},{"type":"function","name":"castVote","inputs":[{"name":"proposalId","type":"uint256","internalType":"uint256"},{"name":"support","type":"uint8","internalType":"uint8"},{"name":"totalVotes","type":"uint256","internalType":"uint256"},{"name":"numVotes","type":"uint256","internalType":"uint256"},{"name":"proof","type":"bytes32[]","internalType":"bytes32[]"}],"outputs":[{"name":"","type":"uint256","internalType":"uint256"}],"stateMutability":"payable"},{"type":"function","name":"castVoteWithoutProof","inputs":[{"name":"proposalId","type":"uint256","internalType":"uint256"},{"name":"support","type":"uint8","internalType":"uint8"},{"name":"numVotes","type":"uint256","internalType":"uint256"}],"outputs":[{"name":"","type":"uint256","internalType":"uint256"}],"stateMutability":"payable"},{"type":"function","name":"checkProof","inputs":[{"name":"addressToCheck","type":"address","internalType":"address"},{"name":"amount","type":"uint256","internalType":"uint256"},{"name":"proof","type":"bytes32[]","internalType":"bytes32[]"},{"name":"voting","type":"bool","internalType":"bool"}],"outputs":[{"name":"verified","type":"bool","internalType":"bool"}],"stateMutability":"view"},{"type":"function","name":"comment","inputs":[{"name":"proposalId","type":"uint256","internalType":"uint256"},{"name":"commentContent","type":"string","internalType":"string"}],"outputs":[{"name":"","type":"uint256","internalType":"uint256"}],"stateMutability":"nonpayable"},{"type":"function","name":"commentIds","inputs":[{"name":"","type":"uint256","internalType":"uint256"}],"outputs":[{"name":"","type":"uint256","internalType":"uint256"}],"stateMutability":"view"},{"type":"function","name":"commentIsDeleted","inputs":[{"name":"","type":"uint256","internalType":"uint256"}],"outputs":[{"name":"","type":"bool","internalType":"bool"}],"stateMutability":"view"},{"type":"function","name":"comments","inputs":[{"name":"","type":"uint256","internalType":"uint256"}],"outputs":[{"name":"author","type":"address","internalType":"address"},{"name":"timestamp","type":"uint256","internalType":"uint256"},{"name":"proposalId","type":"uint256","internalType":"uint256"},{"name":"commentContent","type":"string","internalType":"string"}],"stateMutability":"view"},{"type":"function","name":"contestAddressTotalVotesCast","inputs":[{"name":"userAddress","type":"address","internalType":"address"}],"outputs":[{"name":"userTotalVotesCast","type":"uint256","internalType":"uint256"}],"stateMutability":"view"},{"type":"function","name":"contestDeadline","inputs":[],"outputs":[{"name":"","type":"uint256","internalType":"uint256"}],"stateMutability":"view"},{"type":"function","name":"contestStart","inputs":[],"outputs":[{"name":"","type":"uint256","internalType":"uint256"}],"stateMutability":"view"},{"type":"function","name":"costToPropose","inputs":[],"outputs":[{"name":"","type":"uint256","internalType":"uint256"}],"stateMutability":"view"},{"type":"function","name":"costToVote","inputs":[],"outputs":[{"name":"","type":"uint256","internalType":"uint256"}],"stateMutability":"view"},{"type":"function","name":"creator","inputs":[],"outputs":[{"name":"","type":"address","internalType":"address"}],"stateMutability":"view"},{"type":"function","name":"creatorSplitDestination","inputs":[],"outputs":[{"name":"","type":"address","internalType":"address"}],"stateMutability":"view"},{"type":"function","name":"deleteComments","inputs":[{"name":"commentIdsParam","type":"uint256[]","internalType":"uint256[]"}],"outputs":[],"stateMutability":"nonpayable"},{"type":"function","name":"deleteProposals","inputs":[{"name":"proposalIdsToDelete","type":"uint256[]","internalType":"uint256[]"}],"outputs":[],"stateMutability":"nonpayable"},{"type":"function","name":"deletedCommentIds","inputs":[{"name":"","type":"uint256","internalType":"uint256"}],"outputs":[{"name":"","type":"uint256","internalType":"uint256"}],"stateMutability":"view"},{"type":"function","name":"deletedProposalIds","inputs":[{"name":"","type":"uint256","internalType":"uint256"}],"outputs":[{"name":"","type":"uint256","internalType":"uint256"}],"stateMutability":"view"},{"type":"function","name":"downvotingAllowed","inputs":[],"outputs":[{"name":"","type":"uint256","internalType":"uint256"}],"stateMutability":"view"},{"type":"function","name":"forVotesToProposalIds","inputs":[{"name":"","type":"uint256","internalType":"uint256"},{"name":"","type":"uint256","internalType":"uint256"}],"outputs":[{"name":"","type":"uint256","internalType":"uint256"}],"stateMutability":"view"},{"type":"function","name":"getAllAddressesThatHaveVoted","inputs":[],"outputs":[{"name":"","type":"address[]","internalType":"address[]"}],"stateMutability":"view"},{"type":"function","name":"getAllAuthorsOfDeletedProposals","inputs":[],"outputs":[{"name":"","type":"address[]","internalType":"address[]"}],"stateMutability":"view"},{"type":"function","name":"getAllCommentIds","inputs":[],"outputs":[{"name":"","type":"uint256[]","internalType":"uint256[]"}],"stateMutability":"view"},{"type":"function","name":"getAllDeletedCommentIds","inputs":[],"outputs":[{"name":"","type":"uint256[]","internalType":"uint256[]"}],"stateMutability":"view"},{"type":"function","name":"getAllDeletedProposalIds","inputs":[],"outputs":[{"name":"","type":"uint256[]","internalType":"uint256[]"}],"stateMutability":"view"},{"type":"function","name":"getAllProposalAuthors","inputs":[],"outputs":[{"name":"","type":"address[]","internalType":"address[]"}],"stateMutability":"view"},{"type":"function","name":"getAllProposalIds","inputs":[],"outputs":[{"name":"","type":"uint256[]","internalType":"uint256[]"}],"stateMutability":"view"},{"type":"function","name":"getComment","inputs":[{"name":"commentId","type":"uint256","internalType":"uint256"}],"outputs":[{"name":"","type":"tuple","internalType":"struct GovernorEngagement.CommentCore","components":[{"name":"author","type":"address","internalType":"address"},{"name":"timestamp","type":"uint256","internalType":"uint256"},{"name":"proposalId","type":"uint256","internalType":"uint256"},{"name":"commentContent","type":"string","internalType":"string"}]}],"stateMutability":"view"},{"type":"function","name":"getNumProposalsWithThisManyForVotes","inputs":[{"name":"forVotes","type":"uint256","internalType":"uint256"}],"outputs":[{"name":"count","type":"uint256","internalType":"uint256"}],"stateMutability":"view"},{"type":"function","name":"getOnlyProposalIdWithThisManyForVotes","inputs":[{"name":"forVotes","type":"uint256","internalType":"uint256"}],"outputs":[{"name":"proposalId","type":"uint256","internalType":"uint256"}],"stateMutability":"view"},{"type":"function","name":"getProposal","inputs":[{"name":"proposalId","type":"uint256","internalType":"uint256"}],"outputs":[{"name":"","type":"tuple","internalType":"struct Governor.ProposalCore","components":[{"name":"author","type":"address","internalType":"address"},{"name":"exists","type":"bool","internalType":"bool"},{"name":"description","type":"string","internalType":"string"},{"name":"targetMetadata","type":"tuple","internalType":"struct Governor.TargetMetadata","components":[{"name":"targetAddress","type":"address","internalType":"address"}]},{"name":"safeMetadata","type":"tuple","internalType":"struct Governor.SafeMetadata","components":[{"name":"signers","type":"address[]","internalType":"address[]"},{"name":"threshold","type":"uint256","internalType":"uint256"}]},{"name":"fieldsMetadata","type":"tuple","internalType":"struct Governor.FieldsMetadata","components":[{"name":"addressArray","type":"address[]","internalType":"address[]"},{"name":"stringArray","type":"string[]","internalType":"string[]"},{"name":"uintArray","type":"uint256[]","internalType":"uint256[]"}]}]}],"stateMutability":"view"},{"type":"function","name":"getProposalComments","inputs":[{"name":"proposalId","type":"uint256","internalType":"uint256"}],"outputs":[{"name":"","type":"uint256[]","internalType":"uint256[]"}],"stateMutability":"view"},{"type":"function","name":"getProposalsWithThisManyForVotes","inputs":[{"name":"forVotes","type":"uint256","internalType":"uint256"}],"outputs":[{"name":"proposalsWithThisManyForVotes","type":"uint256[]","internalType":"uint256[]"}],"stateMutability":"view"},{"type":"function","name":"getRankIndex","inputs":[{"name":"rank","type":"uint256","internalType":"uint256"}],"outputs":[{"name":"rankIndex","type":"uint256","internalType":"uint256"}],"stateMutability":"view"},{"type":"function","name":"getSortedRanks","inputs":[],"outputs":[{"name":"sortedRanksArray","type":"uint256[]","internalType":"uint256[]"}],"stateMutability":"view"},{"type":"function","name":"hashComment","inputs":[{"name":"commentObj","type":"tuple","internalType":"struct GovernorEngagement.CommentCore","components":[{"name":"author","type":"address","internalType":"address"},{"name":"timestamp","type":"uint256","internalType":"uint256"},{"name":"proposalId","type":"uint256","internalType":"uint256"},{"name":"commentContent","type":"string","internalType":"string"}]}],"outputs":[{"name":"","type":"uint256","internalType":"uint256"}],"stateMutability":"pure"},{"type":"function","name":"hashProposal","inputs":[{"name":"proposal","type":"tuple","internalType":"struct Governor.ProposalCore","components":[{"name":"author","type":"address","internalType":"address"},{"name":"exists","type":"bool","internalType":"bool"},{"name":"description","type":"string","internalType":"string"},{"name":"targetMetadata","type":"tuple","internalType":"struct Governor.TargetMetadata","components":[{"name":"targetAddress","type":"address","internalType":"address"}]},{"name":"safeMetadata","type":"tuple","internalType":"struct Governor.SafeMetadata","components":[{"name":"signers","type":"address[]","internalType":"address[]"},{"name":"threshold","type":"uint256","internalType":"uint256"}]},{"name":"fieldsMetadata","type":"tuple","internalType":"struct Governor.FieldsMetadata","components":[{"name":"addressArray","type":"address[]","internalType":"address[]"},{"name":"stringArray","type":"string[]","internalType":"string[]"},{"name":"uintArray","type":"uint256[]","internalType":"uint256[]"}]}]}],"outputs":[{"name":"","type":"uint256","internalType":"uint256"}],"stateMutability":"pure"},{"type":"function","name":"isOrIsBelowTiedRank","inputs":[{"name":"idx","type":"uint256","internalType":"uint256"}],"outputs":[{"name":"atOrBelowTiedRank","type":"bool","internalType":"bool"}],"stateMutability":"view"},{"type":"function","name":"jkLabsSplitDestination","inputs":[],"outputs":[{"name":"","type":"address","internalType":"address"}],"stateMutability":"view"},{"type":"function","name":"maxProposalCount","inputs":[],"outputs":[{"name":"","type":"uint256","internalType":"uint256"}],"stateMutability":"view"},{"type":"function","name":"metadataFieldsSchema","inputs":[],"outputs":[{"name":"","type":"string","internalType":"string"}],"stateMutability":"view"},{"type":"function","name":"name","inputs":[],"outputs":[{"name":"","type":"string","internalType":"string"}],"stateMutability":"view"},{"type":"function","name":"numAllowedProposalSubmissions","inputs":[],"outputs":[{"name":"","type":"uint256","internalType":"uint256"}],"stateMutability":"view"},{"type":"function","name":"numSubmissions","inputs":[{"name":"","type":"address","internalType":"address"}],"outputs":[{"name":"","type":"uint256","internalType":"uint256"}],"stateMutability":"view"},{"type":"function","name":"officialRewardsModule","inputs":[],"outputs":[{"name":"","type":"address","internalType":"contract RewardsModule"}],"stateMutability":"view"},{"type":"function","name":"payPerVote","inputs":[],"outputs":[{"name":"","type":"uint256","internalType":"uint256"}],"stateMutability":"view"},{"type":"function","name":"percentageToCreator","inputs":[],"outputs":[{"name":"","type":"uint256","internalType":"uint256"}],"stateMutability":"view"},{"type":"function","name":"prompt","inputs":[],"outputs":[{"name":"","type":"string","internalType":"string"}],"stateMutability":"view"},{"type":"function","name":"proposalAddressVotes","inputs":[{"name":"proposalId","type":"uint256","internalType":"uint256"},{"name":"userAddress","type":"address","internalType":"address"}],"outputs":[{"name":"forVotes","type":"uint256","internalType":"uint256"},{"name":"againstVotes","type":"uint256","internalType":"uint256"}],"stateMutability":"view"},{"type":"function","name":"proposalAddressesHaveVoted","inputs":[{"name":"proposalId","type":"uint256","internalType":"uint256"}],"outputs":[{"name":"","type":"address[]","internalType":"address[]"}],"stateMutability":"view"},{"type":"function","name":"proposalAuthors","inputs":[{"name":"","type":"uint256","internalType":"uint256"}],"outputs":[{"name":"","type":"address","internalType":"address"}],"stateMutability":"view"},{"type":"function","name":"proposalComments","inputs":[{"name":"","type":"uint256","internalType":"uint256"},{"name":"","type":"uint256","internalType":"uint256"}],"outputs":[{"name":"","type":"uint256","internalType":"uint256"}],"stateMutability":"view"},{"type":"function","name":"proposalIds","inputs":[{"name":"","type":"uint256","internalType":"uint256"}],"outputs":[{"name":"","type":"uint256","internalType":"uint256"}],"stateMutability":"view"},{"type":"function","name":"proposalIsDeleted","inputs":[{"name":"","type":"uint256","internalType":"uint256"}],"outputs":[{"name":"","type":"bool","internalType":"bool"}],"stateMutability":"view"},{"type":"function","name":"proposalVotes","inputs":[{"name":"proposalId","type":"uint256","internalType":"uint256"}],"outputs":[{"name":"forVotes","type":"uint256","internalType":"uint256"},{"name":"againstVotes","type":"uint256","internalType":"uint256"}],"stateMutability":"view"},{"type":"function","name":"proposalVotesStructs","inputs":[{"name":"","type":"uint256","internalType":"uint256"}],"outputs":[{"name":"proposalVoteCounts","type":"tuple","internalType":"struct GovernorCountingSimple.VoteCounts","components":[{"name":"forVotes","type":"uint256","internalType":"uint256"},{"name":"againstVotes","type":"uint256","internalType":"uint256"}]}],"stateMutability":"view"},{"type":"function","name":"proposals","inputs":[{"name":"","type":"uint256","internalType":"uint256"}],"outputs":[{"name":"author","type":"address","internalType":"address"},{"name":"exists","type":"bool","internalType":"bool"},{"name":"description","type":"string","internalType":"string"},{"name":"targetMetadata","type":"tuple","internalType":"struct Governor.TargetMetadata","components":[{"name":"targetAddress","type":"address","internalType":"address"}]},{"name":"safeMetadata","type":"tuple","internalType":"struct Governor.SafeMetadata","components":[{"name":"signers","type":"address[]","internalType":"address[]"},{"name":"threshold","type":"uint256","internalType":"uint256"}]},{"name":"fieldsMetadata","type":"tuple","internalType":"struct Governor.FieldsMetadata","components":[{"name":"addressArray","type":"address[]","internalType":"address[]"},{"name":"stringArray","type":"string[]","internalType":"string[]"},{"name":"uintArray","type":"uint256[]","internalType":"uint256[]"}]}],"stateMutability":"view"},{"type":"function","name":"propose","inputs":[{"name":"proposal","type":"tuple","internalType":"struct Governor.ProposalCore","components":[{"name":"author","type":"address","internalType":"address"},{"name":"exists","type":"bool","internalType":"bool"},{"name":"description","type":"string","internalType":"string"},{"name":"targetMetadata","type":"tuple","internalType":"struct Governor.TargetMetadata","components":[{"name":"targetAddress","type":"address","internalType":"address"}]},{"name":"safeMetadata","type":"tuple","internalType":"struct Governor.SafeMetadata","components":[{"name":"signers","type":"address[]","internalType":"address[]"},{"name":"threshold","type":"uint256","internalType":"uint256"}]},{"name":"fieldsMetadata","type":"tuple","internalType":"struct Governor.FieldsMetadata","components":[{"name":"addressArray","type":"address[]","internalType":"address[]"},{"name":"stringArray","type":"string[]","internalType":"string[]"},{"name":"uintArray","type":"uint256[]","internalType":"uint256[]"}]}]},{"name":"proof","type":"bytes32[]","internalType":"bytes32[]"}],"outputs":[{"name":"","type":"uint256","internalType":"uint256"}],"stateMutability":"payable"},{"type":"function","name":"proposeWithoutProof","inputs":[{"name":"proposal","type":"tuple","internalType":"struct Governor.ProposalCore","components":[{"name":"author","type":"address","internalType":"address"},{"name":"exists","type":"bool","internalType":"bool"},{"name":"description","type":"string","internalType":"string"},{"name":"targetMetadata","type":"tuple","internalType":"struct Governor.TargetMetadata","components":[{"name":"targetAddress","type":"address","internalType":"address"}]},{"name":"safeMetadata","type":"tuple","internalType":"struct Governor.SafeMetadata","components":[{"name":"signers","type":"address[]","internalType":"address[]"},{"name":"threshold","type":"uint256","internalType":"uint256"}]},{"name":"fieldsMetadata","type":"tuple","internalType":"struct Governor.FieldsMetadata","components":[{"name":"addressArray","type":"address[]","internalType":"address[]"},{"name":"stringArray","type":"string[]","internalType":"string[]"},{"name":"uintArray","type":"uint256[]","internalType":"uint256[]"}]}]}],"outputs":[{"name":"","type":"uint256","internalType":"uint256"}],"stateMutability":"payable"},{"type":"function","name":"rankLimit","inputs":[],"outputs":[{"name":"","type":"uint256","internalType":"uint256"}],"stateMutability":"view"},{"type":"function","name":"setCreatorSplitDestination","inputs":[{"name":"newCreatorSplitDestination","type":"address","internalType":"address"}],"outputs":[],"stateMutability":"nonpayable"},{"type":"function","name":"setJkLabsSplitDestination","inputs":[{"name":"newJkLabsSplitDestination","type":"address","internalType":"address"}],"outputs":[],"stateMutability":"nonpayable"},{"type":"function","name":"setName","inputs":[{"name":"newName","type":"string","internalType":"string"}],"outputs":[{"name":"","type":"string","internalType":"string"}],"stateMutability":"nonpayable"},{"type":"function","name":"setOfficialRewardsModule","inputs":[{"name":"officialRewardsModule_","type":"address","internalType":"contract RewardsModule"}],"outputs":[],"stateMutability":"nonpayable"},{"type":"function","name":"setPrompt","inputs":[{"name":"newPrompt","type":"string","internalType":"string"}],"outputs":[{"name":"","type":"string","internalType":"string"}],"stateMutability":"nonpayable"},{"type":"function","name":"setSubmissionMerkleRoot","inputs":[{"name":"newSubmissionMerkleRoot","type":"bytes32","internalType":"bytes32"}],"outputs":[],"stateMutability":"nonpayable"},{"type":"function","name":"setVotingMerkleRoot","inputs":[{"name":"newVotingMerkleRoot","type":"bytes32","internalType":"bytes32"}],"outputs":[],"stateMutability":"nonpayable"},{"type":"function","name":"sortedRanks","inputs":[{"name":"","type":"uint256","internalType":"uint256"}],"outputs":[{"name":"","type":"uint256","internalType":"uint256"}],"stateMutability":"view"},{"type":"function","name":"sortingEnabled","inputs":[],"outputs":[{"name":"","type":"uint256","internalType":"uint256"}],"stateMutability":"view"},{"type":"function","name":"state","inputs":[],"outputs":[{"name":"","type":"uint8","internalType":"enum Governor.ContestState"}],"stateMutability":"view"},{"type":"function","name":"submissionMerkleRoot","inputs":[],"outputs":[{"name":"","type":"bytes32","internalType":"bytes32"}],"stateMutability":"view"},{"type":"function","name":"totalVotesCast","inputs":[],"outputs":[{"name":"","type":"uint256","internalType":"uint256"}],"stateMutability":"view"},{"type":"function","name":"validateProposalData","inputs":[{"name":"proposal","type":"tuple","internalType":"struct Governor.ProposalCore","components":[{"name":"author","type":"address","internalType":"address"},{"name":"exists","type":"bool","internalType":"bool"},{"name":"description","type":"string","internalType":"string"},{"name":"targetMetadata","type":"tuple","internalType":"struct Governor.TargetMetadata","components":[{"name":"targetAddress","type":"address","internalType":"address"}]},{"name":"safeMetadata","type":"tuple","internalType":"struct Governor.SafeMetadata","components":[{"name":"signers","type":"address[]","internalType":"address[]"},{"name":"threshold","type":"uint256","internalType":"uint256"}]},{"name":"fieldsMetadata","type":"tuple","internalType":"struct Governor.FieldsMetadata","components":[{"name":"addressArray","type":"address[]","internalType":"address[]"},{"name":"stringArray","type":"string[]","internalType":"string[]"},{"name":"uintArray","type":"uint256[]","internalType":"uint256[]"}]}]}],"outputs":[],"stateMutability":"view"},{"type":"function","name":"verifyProposer","inputs":[{"name":"account","type":"address","internalType":"address"},{"name":"proof","type":"bytes32[]","internalType":"bytes32[]"}],"outputs":[],"stateMutability":"nonpayable"},{"type":"function","name":"verifyVoter","inputs":[{"name":"account","type":"address","internalType":"address"},{"name":"totalVotes","type":"uint256","internalType":"uint256"},{"name":"proof","type":"bytes32[]","internalType":"bytes32[]"}],"outputs":[],"stateMutability":"nonpayable"},{"type":"function","name":"version","inputs":[],"outputs":[{"name":"","type":"string","internalType":"string"}],"stateMutability":"pure"},{"type":"function","name":"voteStart","inputs":[],"outputs":[{"name":"","type":"uint256","internalType":"uint256"}],"stateMutability":"view"},{"type":"function","name":"votingDelay","inputs":[],"outputs":[{"name":"","type":"uint256","internalType":"uint256"}],"stateMutability":"view"},{"type":"function","name":"votingMerkleRoot","inputs":[],"outputs":[{"name":"","type":"bytes32","internalType":"bytes32"}],"stateMutability":"view"},{"type":"function","name":"votingPeriod","inputs":[],"outputs":[{"name":"","type":"uint256","internalType":"uint256"}],"stateMutability":"view"},{"type":"event","name":"CommentCreated","inputs":[{"name":"commentId","type":"uint256","indexed":false,"internalType":"uint256"}],"anonymous":false},{"type":"event","name":"CommentsDeleted","inputs":[{"name":"commentIds","type":"uint256[]","indexed":false,"internalType":"uint256[]"}],"anonymous":false},{"type":"event","name":"ContestCanceled","inputs":[],"anonymous":false},{"type":"event","name":"CreatorPaymentReleased","inputs":[{"name":"to","type":"address","indexed":false,"internalType":"address"},{"name":"amount","type":"uint256","indexed":false,"internalType":"uint256"}],"anonymous":false},{"type":"event","name":"JkLabsPaymentReleased","inputs":[{"name":"to","type":"address","indexed":false,"internalType":"address"},{"name":"amount","type":"uint256","indexed":false,"internalType":"uint256"}],"anonymous":false},{"type":"event","name":"JokeraceCreated","inputs":[{"name":"version","type":"string","indexed":false,"internalType":"string"},{"name":"name","type":"string","indexed":false,"internalType":"string"},{"name":"prompt","type":"string","indexed":false,"internalType":"string"},{"name":"creator","type":"address","indexed":false,"internalType":"address"},{"name":"contestStart","type":"uint256","indexed":false,"internalType":"uint256"},{"name":"votingDelay","type":"uint256","indexed":false,"internalType":"uint256"},{"name":"votingPeriod","type":"uint256","indexed":false,"internalType":"uint256"}],"anonymous":false},{"type":"event","name":"OfficialRewardsModuleSet","inputs":[{"name":"oldOfficialRewardsModule","type":"address","indexed":false,"internalType":"contract RewardsModule"},{"name":"newOfficialRewardsModule","type":"address","indexed":false,"internalType":"contract RewardsModule"}],"anonymous":false},{"type":"event","name":"ProposalCreated","inputs":[{"name":"proposalId","type":"uint256","indexed":false,"internalType":"uint256"},{"name":"proposer","type":"address","indexed":false,"internalType":"address"},{"name":"proposalDescription","type":"string","indexed":false,"internalType":"string"}],"anonymous":false},{"type":"event","name":"ProposalsDeleted","inputs":[{"name":"proposalIds","type":"uint256[]","indexed":false,"internalType":"uint256[]"}],"anonymous":false},{"type":"event","name":"VoteCast","inputs":[{"name":"voter","type":"address","indexed":true,"internalType":"address"},{"name":"proposalId","type":"uint256","indexed":false,"internalType":"uint256"},{"name":"support","type":"uint8","indexed":false,"internalType":"uint8"},{"name":"numVotes","type":"uint256","indexed":false,"internalType":"uint256"}],"anonymous":false},{"type":"error","name":"AddressFieldMetadataArrayTooLong","inputs":[]},{"type":"error","name":"AddressNotPermissionedToSubmit","inputs":[]},{"type":"error","name":"AuthorIsNotSender","inputs":[{"name":"author","type":"address","internalType":"address"},{"name":"sender","type":"address","internalType":"address"}]},{"type":"error","name":"CannotCancelWhenCompletedOrCanceled","inputs":[]},{"type":"error","name":"CannotCommentWhenCompletedOrCanceled","inputs":[]},{"type":"error","name":"CannotDeleteWhenCompletedOrCanceled","inputs":[]},{"type":"error","name":"CannotSetWhenCompletedOrCanceled","inputs":[]},{"type":"error","name":"CannotUpdateWhenCompletedOrCanceled","inputs":[]},{"type":"error","name":"CannotVoteLessThanOneVoteInPayPerVote","inputs":[]},{"type":"error","name":"CannotVoteOnDeletedProposal","inputs":[]},{"type":"error","name":"ContestAlreadyCanceled","inputs":[]},{"type":"error","name":"ContestMustBeActiveToVote","inputs":[{"name":"currentState","type":"uint8","internalType":"enum Governor.ContestState"}]},{"type":"error","name":"ContestMustBeQueuedToPropose","inputs":[{"name":"currentState","type":"uint8","internalType":"enum Governor.ContestState"}]},{"type":"error","name":"ContestSubmissionLimitReached","inputs":[{"name":"maxProposalCount","type":"uint256","internalType":"uint256"}]},{"type":"error","name":"DownvotingNotEnabled","inputs":[]},{"type":"error","name":"DuplicateSubmission","inputs":[{"name":"proposalId","type":"uint256","internalType":"uint256"}]},{"type":"error","name":"EmptyProposalDescription","inputs":[]},{"type":"error","name":"IncorrectCostSent","inputs":[{"name":"msgValue","type":"uint256","internalType":"uint256"},{"name":"costToVote","type":"uint256","internalType":"uint256"}]},{"type":"error","name":"IndexHasNotBeenPopulated","inputs":[]},{"type":"error","name":"InvalidVoteType","inputs":[]},{"type":"error","name":"MoreThanOneProposalWithThisManyVotes","inputs":[]},{"type":"error","name":"NeedAtLeastOneVoteToVote","inputs":[]},{"type":"error","name":"NeedToSubmitWithProofFirst","inputs":[]},{"type":"error","name":"NeedToVoteWithProofFirst","inputs":[]},{"type":"error","name":"NotEnoughVotesLeft","inputs":[]},{"type":"error","name":"NotInMerkle","inputs":[]},{"type":"error","name":"OnlyCreatorCanAmend","inputs":[]},{"type":"error","name":"OnlyCreatorCanDelete","inputs":[]},{"type":"error","name":"OnlyCreatorCanSetName","inputs":[]},{"type":"error","name":"OnlyCreatorCanSetPrompt","inputs":[]},{"type":"error","name":"OnlyCreatorCanSetRewardsModule","inputs":[]},{"type":"error","name":"OnlyCreatorOrAuthorCanDeleteComments","inputs":[{"name":"failedToDeleteCommentId","type":"uint256","internalType":"uint256"}]},{"type":"error","name":"OnlyCreatorOrJkLabsCanCancel","inputs":[]},{"type":"error","name":"OnlyJkLabsCanAmend","inputs":[]},{"type":"error","name":"PayPerVoteMustBeEnabledForAnyoneCanVote","inputs":[]},{"type":"error","name":"RankCannotBeZero","inputs":[]},{"type":"error","name":"RankIsNotInSortedRanks","inputs":[]},{"type":"error","name":"SenderSubmissionLimitReached","inputs":[{"name":"numAllowedProposalSubmissions","type":"uint256","internalType":"uint256"}]},{"type":"error","name":"SortingAndDownvotingCannotBothBeEnabled","inputs":[]},{"type":"error","name":"StringFieldMetadataArrayTooLong","inputs":[]},{"type":"error","name":"UintFieldMetadataArrayTooLong","inputs":[]},{"type":"error","name":"UnexpectedMetadata","inputs":[{"name":"unexpectedMetadata","type":"uint8","internalType":"enum Governor.Metadatas"}]},{"type":"error","name":"ZeroSignersInSafeMetadata","inputs":[]},{"type":"error","name":"ZeroThresholdInSafeMetadata","inputs":[]}],"bytecode":{"object":"0x60806040523480156200001157600080fd5b5060405162005a0d38038062005a0d83398101604081905262000034916200033c565b805160c081015160e09091015160009190915560015560038390556004829055848482600562000065848262000570565b50600662000074838262000570565b5060078054336001600160a01b03199182161790915581518051600855602080820151600955604080830151600a55606080840151600b556080840151600c5560a0840151600d55610100840151600e55610120840151600f5561014084015160105561016090930151601155908401516012805485166001600160a01b0392831617905590840151601380549094169116179091558101516014906200011c908262000570565b506040805180820182526004815263342e333760e01b60208083019190915283518051918101519084015193517f9a9bca21e4e51607db64fbdbcd7b2284a909c6a8969821f0d161efbdcae70160946200017e9493899389933393906200066a565b60405180910390a15050815160c0015160011490508015620001a55750805160a001516001145b15620001c457604051636bff10c960e01b815260040160405180910390fd5b81158015620001d7575080516101600151155b15620001f6576040516397b6be7d60e01b815260040160405180910390fd5b5050505050620006d9565b634e487b7160e01b600052604160045260246000fd5b604051608081016001600160401b03811182821017156200023c576200023c62000201565b60405290565b60405161018081016001600160401b03811182821017156200023c576200023c62000201565b60005b83811015620002855781810151838201526020016200026b565b50506000910152565b600082601f830112620002a057600080fd5b81516001600160401b0380821115620002bd57620002bd62000201565b604051601f8301601f19908116603f01168101908282118183101715620002e857620002e862000201565b816040528381528660208588010111156200030257600080fd5b6200031584602083016020890162000268565b9695505050505050565b80516001600160a01b03811681146200033757600080fd5b919050565b600080600080600060a086880312156200035557600080fd5b85516001600160401b03808211156200036d57600080fd5b6200037b89838a016200028e565b965060208801519150808211156200039257600080fd5b620003a089838a016200028e565b955060408801519450606088015193506080880151915080821115620003c557600080fd5b908701908189036101e0811215620003dc57600080fd5b620003e662000217565b61018080831215620003f757600080fd5b6200040162000242565b9250845183526020850151602084015260408501516040840152606085015160608401526080850151608084015260a085015160a084015260c085015160c084015260e085015160e08401526101008086015181850152506101208086015181850152506101408086015181850152506101608086015181850152508282526200048d8186016200031f565b602083015250620004a26101a085016200031f565b60408201526101c0840151915082821115620004bd57600080fd5b620004cb8b8386016200028e565b6060820152809450505050509295509295909350565b600181811c90821680620004f657607f821691505b6020821081036200051757634e487b7160e01b600052602260045260246000fd5b50919050565b601f8211156200056b57600081815260208120601f850160051c81016020861015620005465750805b601f850160051c820191505b81811015620005675782815560010162000552565b5050505b505050565b81516001600160401b038111156200058c576200058c62000201565b620005a4816200059d8454620004e1565b846200051d565b602080601f831160018114620005dc5760008415620005c35750858301515b600019600386901b1c1916600185901b17855562000567565b600085815260208120601f198616915b828110156200060d57888601518255948401946001909101908401620005ec565b50858210156200062c5787850151600019600388901b60f8161c191681555b5050505050600190811b01905550565b600081518084526200065681602086016020860162000268565b601f01601f19169290920160200192915050565b60e0815260006200067f60e083018a6200063c565b828103602084015262000693818a6200063c565b90508281036040840152620006a981896200063c565b6001600160a01b039790971660608401525050608081019390935260a083019190915260c0909101529392505050565b61532480620006e96000396000f3fe6080604052600436106104f65760003560e01c8063785ddfe51161028c578063c47f00271161015a578063e11db9d8116100cc578063f4f3d7ec11610085578063f4f3d7ec14610fdd578063f5c3641114610ffd578063f61736f41461101d578063f79c01721461103d578063f823f1101461106d578063fb9bf8d41461108057600080fd5b8063e11db9d814610f40578063ea8a1af014610f55578063edcd1be414610f6a578063eef18e1714610f80578063efa90d3614610fa8578063f0a7db0a14610fbd57600080fd5b8063d140d9f01161011e578063d140d9f014610e88578063d798902514610ea8578063daf762db14610ec8578063dd96a19d14610ee8578063dea5f6a614610efe578063e031535b14610f2b57600080fd5b8063c47f002714610dd6578063c7f758a814610df6578063c9a1b6b214610e23578063cb85395014610e43578063cbdc27cb14610e7357600080fd5b8063a1ac6cb2116101fe578063b382543f116101b7578063b382543f14610d29578063b4ac024f14610d3e578063b66d1da314610d5e578063bddc164114610d7e578063c05f410414610d94578063c19d93fb14610db457600080fd5b8063a1ac6cb214610c43578063ab5e694714610c70578063ac67f80114610c83578063ae66b8ad14610ca3578063aec116b614610cd3578063b323580d14610d0957600080fd5b80639174778c116102505780639174778c14610b71578063930de97914610b91578063946369b514610bc15780639b338aa014610bd65780639b644a2314610bf65780639ba197af14610c1657600080fd5b8063785ddfe514610ae05780637c65d71114610b005780637de418d514610b15578063832009af14610b2b5780638ebb4c1514610b4157600080fd5b80633f9942ff116103c9578063544ffc9c1161033b57806365f16263116102f457806365f1626314610a355780636e4eb81014610a485780636ed815ad14610a685780636fd3636b14610a7e578063711effc814610a9357806375e509c514610ab357600080fd5b8063544ffc9c1461095e57806354fd4d50146109a85780635c7107d8146109d55780635cb718a1146109f557806360506ff614610a0a57806360ed97a914610a2057600080fd5b80634d24a67f1161038d5780634d24a67f146108b057806350a5e524146108c557806350c4b616146108e857806351a41dec14610908578063531bd8121461091e578063544c7bb41461093e57600080fd5b80633f9942ff146108235780633fb57c921461083d578063409fd0301461085d578063419c533c1461087d5780634a587ad41461089057600080fd5b8063102613d81161046d5780632c39805f116104265780632c39805f14610769578063325cc6d91461078b57806332763c22146107ab578063347cf665146107db578063366ecf5b146107f75780633932abb11461080d57600080fd5b8063102613d8146106b05780631242b737146106d0578063146230f6146106f25780631805c5231461071457806320b3e84514610734578063262e59e91461075457600080fd5b80630414126a116104bf5780630414126a146105ba57806305846cae146105d057806306fdde03146105f0578063070dc5d9146106125780630800e300146106635780630aa25e441461069057600080fd5b80624114a8146104fb578063013cf08b1461052457806302a251a31461055657806302d05d3f1461056c57806303f7eed6146105a4575b600080fd5b34801561050757600080fd5b5061051160085481565b6040519081526020015b60405180910390f35b34801561053057600080fd5b5061054461053f3660046142b3565b611096565b60405161051b96959493929190614443565b34801561056257600080fd5b50610511600a5481565b34801561057857600080fd5b5060075461058c906001600160a01b031681565b6040516001600160a01b03909116815260200161051b565b3480156105b057600080fd5b5061051160115481565b3480156105c657600080fd5b5061051160015481565b3480156105dc57600080fd5b506105116105eb3660046142b3565b611381565b3480156105fc57600080fd5b506106056113a2565b60405161051b919061449d565b34801561061e57600080fd5b5061065661062d3660046142b3565b602260209081526000918252604091829020825180840190935280548352600101549082015281565b60405161051b91906144b0565b34801561066f57600080fd5b5061068361067e3660046142b3565b611430565b60405161051b91906144c7565b34801561069c57600080fd5b5061058c6106ab3660046142b3565b611544565b3480156106bc57600080fd5b5060135461058c906001600160a01b031681565b3480156106dc57600080fd5b506106e561156e565b60405161051b9190614510565b3480156106fe57600080fd5b5061071261070d366004614548565b6115c6565b005b34801561072057600080fd5b5061051161072f366004614664565b611670565b34801561074057600080fd5b5061071261074f3660046146ee565b6117ed565b34801561076057600080fd5b5061051161185c565b34801561077557600080fd5b5061077e611878565b60405161051b9190614742565b34801561079757600080fd5b506105116107a63660046142b3565b6118d9565b3480156107b757600080fd5b506107cb6107c636600461479f565b6118e9565b604051901515815260200161051b565b3480156107e757600080fd5b50610511678ac7230489e8000081565b34801561080357600080fd5b5061051160005481565b34801561081957600080fd5b5061051160095481565b34801561082f57600080fd5b506018546107cb9060ff1681565b34801561084957600080fd5b506105116108583660046142b3565b6119e8565b34801561086957600080fd5b5061051161087836600461480f565b6119f8565b61051161088b3660046148cb565b611a29565b34801561089c57600080fd5b5060125461058c906001600160a01b031681565b3480156108bc57600080fd5b50610511611a97565b3480156108d157600080fd5b506108da611aa6565b60405161051b92919061493b565b3480156108f457600080fd5b5061058c6109033660046142b3565b611bac565b34801561091457600080fd5b5061051160105481565b34801561092a57600080fd5b506107126109393660046149a4565b611bbc565b34801561094a57600080fd5b506107126109593660046142b3565b611c31565b34801561096a57600080fd5b506109936109793660046142b3565b600090815260226020526040902080546001909101549091565b6040805192835260208301919091520161051b565b3480156109b457600080fd5b50604080518082019091526004815263342e333760e01b6020820152610605565b3480156109e157600080fd5b506105116109f03660046142b3565b611cbe565b348015610a0157600080fd5b506106e5611dc5565b348015610a1657600080fd5b50610511600d5481565b348015610a2c57600080fd5b50610605611e1b565b610511610a433660046149ff565b611e28565b348015610a5457600080fd5b50610993610a63366004614a34565b611ec6565b348015610a7457600080fd5b50610511600f5481565b348015610a8a57600080fd5b506106e5611efb565b348015610a9f57600080fd5b50610511610aae366004614a64565b611f51565b348015610abf57600080fd5b50610511610ace366004614548565b601a6020526000908152604090205481565b348015610aec57600080fd5b5060245461058c906001600160a01b031681565b348015610b0c57600080fd5b50610605611f82565b348015610b2157600080fd5b5061051160205481565b348015610b3757600080fd5b50610511600b5481565b348015610b4d57600080fd5b50610b61610b5c3660046142b3565b611f8f565b60405161051b9493929190614a86565b348015610b7d57600080fd5b506107cb610b8c3660046142b3565b61204c565b348015610b9d57600080fd5b506107cb610bac366004614548565b601e6020526000908152604090205460ff1681565b348015610bcd57600080fd5b5061077e6120f2565b348015610be257600080fd5b50610712610bf1366004614548565b612152565b348015610c0257600080fd5b50610511610c113660046142b3565b612205565b348015610c2257600080fd5b50610511610c313660046142b3565b60009081526023602052604090205490565b348015610c4f57600080fd5b50610511610c5e366004614548565b60216020526000908152604090205481565b610511610c7e366004614ad5565b612215565b348015610c8f57600080fd5b50610712610c9e366004614b97565b61228f565b348015610caf57600080fd5b506107cb610cbe3660046142b3565b60296020526000908152604090205460ff1681565b348015610cdf57600080fd5b50610511610cee366004614548565b6001600160a01b031660009081526021602052604090205490565b348015610d1557600080fd5b5061077e610d243660046142b3565b612426565b348015610d3557600080fd5b50610511600a81565b348015610d4a57600080fd5b50610605610d59366004614bcb565b612498565b348015610d6a57600080fd5b50610511610d793660046142b3565b612536565b348015610d8a57600080fd5b5061051160035481565b348015610da057600080fd5b506106e5610daf3660046142b3565b612596565b348015610dc057600080fd5b50610dc96125f8565b60405161051b9190614c15565b348015610de257600080fd5b50610605610df1366004614bcb565b612649565b348015610e0257600080fd5b50610e16610e113660046142b3565b6126e0565b60405161051b9190614c2f565b348015610e2f57600080fd5b506106e5610e3e3660046142b3565b612a00565b348015610e4f57600080fd5b506107cb610e5e366004614548565b601f6020526000908152604090205460ff1681565b348015610e7f57600080fd5b5061077e612a60565b348015610e9457600080fd5b50610712610ea3366004614f9e565b612b90565b348015610eb457600080fd5b50610511610ec3366004614f9e565b612d77565b348015610ed457600080fd5b50610712610ee33660046142b3565b612d8a565b348015610ef457600080fd5b5061051160045481565b348015610f0a57600080fd5b50610511610f19366004614548565b601d6020526000908152604090205481565b348015610f3757600080fd5b50610511612e17565b348015610f4c57600080fd5b506106e5612e29565b348015610f6157600080fd5b50610712612e7f565b348015610f7657600080fd5b50610511600e5481565b348015610f8c57600080fd5b5061058c73dc652c746a8f85e18ce632d97c6118e8a52fa73881565b348015610fb457600080fd5b506106e5612f61565b348015610fc957600080fd5b50610712610fd8366004614fd2565b612fb7565b348015610fe957600080fd5b50610712610ff8366004614548565b613136565b34801561100957600080fd5b506105116110183660046142b3565b6131bb565b34801561102957600080fd5b50610511611038366004614a64565b6131cb565b34801561104957600080fd5b506107cb6110583660046142b3565b60176020526000908152604090205460ff1681565b61051161107b366004615013565b6131e7565b34801561108c57600080fd5b50610511600c5481565b601960205260009081526040902080546001820180546001600160a01b03831693600160a01b90930460ff169291906110ce9061506e565b80601f01602080910402602001604051908101604052809291908181526020018280546110fa9061506e565b80156111475780601f1061111c57610100808354040283529160200191611147565b820191906000526020600020905b81548152906001019060200180831161112a57829003601f168201915b5050604080516020808201835260028801546001600160a01b0316825282516003890180546060938102830184018652948201858152989993989397509095509350849284918401828280156111c657602002820191906000526020600020905b81546001600160a01b031681526001909101906020018083116111a8575b5050505050815260200160018201548152505090806005016040518060600160405290816000820180548060200260200160405190810160405280929190818152602001828054801561124257602002820191906000526020600020905b81546001600160a01b03168152600190910190602001808311611224575b5050505050815260200160018201805480602002602001604051908101604052809291908181526020016000905b8282101561131c57838290600052602060002001805461128f9061506e565b80601f01602080910402602001604051908101604052809291908181526020018280546112bb9061506e565b80156113085780601f106112dd57610100808354040283529160200191611308565b820191906000526020600020905b8154815290600101906020018083116112eb57829003601f168201915b505050505081526020019060010190611270565b5050505081526020016002820180548060200260200160405190810160405280929190818152602001828054801561137357602002820191906000526020600020905b81548152602001906001019080831161135f575b505050505081525050905086565b6016818154811061139157600080fd5b600091825260209091200154905081565b600580546113af9061506e565b80601f01602080910402602001604051908101604052809291908181526020018280546113db9061506e565b80156114285780601f106113fd57610100808354040283529160200191611428565b820191906000526020600020905b81548152906001019060200180831161140b57829003601f168201915b505050505081565b611464604051806080016040528060006001600160a01b031681526020016000815260200160008152602001606081525090565b600082815260276020908152604091829020825160808101845281546001600160a01b031681526001820154928101929092526002810154928201929092526003820180549192916060840191906114bb9061506e565b80601f01602080910402602001604051908101604052809291908181526020018280546114e79061506e565b80156115345780601f1061150957610100808354040283529160200191611534565b820191906000526020600020905b81548152906001019060200180831161151757829003601f168201915b5050505050815250509050919050565b601b818154811061155457600080fd5b6000918252602090912001546001600160a01b0316905081565b606060168054806020026020016040519081016040528092919081815260200182805480156115bc57602002820191906000526020600020905b8154815260200190600101908083116115a8575b5050505050905090565b6007546001600160a01b031633146115f15760405163141dbb4960e21b815260040160405180910390fd5b60046115fb6125f8565b600481111561160c5761160c614bff565b14806116305750600261161d6125f8565b600481111561162e5761162e614bff565b145b1561164e576040516398fe99a560e01b815260040160405180910390fd5b601280546001600160a01b0319166001600160a01b0392909216919091179055565b6000600461167c6125f8565b600481111561168d5761168d614bff565b14806116b15750600261169e6125f8565b60048111156116af576116af614bff565b145b156116ce5760405162f3e73d60e81b815260040160405180910390fd5b604080516080810182523381524260208201529081018490526060810183905260006116f9826119f8565b6025805460018082019092557f401968ff42a154441da5f6c4c935ac46b8671f0e062baaa62a7545ba53bb6e4c01829055600082815260276020908152604091829020865181546001600160a01b0319166001600160a01b039091161781559086015192810192909255840151600282015560608401519192508391600382019061178490826150f0565b505050600085815260286020908152604080832080546001810182559084529190922001829055517f5a1a930fed43f34b3a07db782ebcac28a661c273e662bb98458cfba5a8ccd220906117db9083815260200190565b60405180910390a19150505b92915050565b6001600160a01b0383166000908152601f602052604090205460ff166118575760035460000361181c57505050565b61183283678ac7230489e80000848460006118e9565b506001600160a01b0383166000908152601f60205260409020805460ff191660011790555b505050565b6000600a54611869612e17565b61187391906151c5565b905090565b6060601c8054806020026020016040519081016040528092919081815260200182805480156115bc57602002820191906000526020600020905b81546001600160a01b031681526001909101906020018083116118b2575050505050905090565b6002818154811061139157600080fd5b6040516bffffffffffffffffffffffff19606087901b16602082015260348101859052600090819060540160405160208183030381529060405280519060200120905060008361197957611974868680806020026020016040519081016040528093929190818152602001838360200280828437600092019190915250506003549150859050613227565b6119ba565b6119ba868680806020026020016040519081016040528093929190818152602001838360200280828437600092019190915250506004549150859050613227565b9050806119da5760405163452c2df160e11b815260040160405180910390fd5b506001979650505050505050565b6026818154811061139157600080fd5b600081604051602001611a0b91906144c7565b60408051601f19818403018152919052805160209091012092915050565b600080611a3760018661323d565b60008981526017602052604090205490915060ff1615611a6a576040516358f1119560e01b815260040160405180910390fd5b611a7633878686611bbc565b611a7f81613309565b611a8b88338988613410565b98975050505050505050565b611aa3600260016151c5565b81565b6060806000611ab3612f61565b9050600081516001600160401b03811115611ad057611ad0614565565b604051908082528060200260200182016040528015611b1557816020015b6040805180820190915260008082526020820152815260200190600190039081611aee5790505b50905060005b8251811015611ba25760226000848381518110611b3a57611b3a6151d8565b6020026020010151815260200190815260200160002060000160405180604001604052908160008201548152602001600182015481525050828281518110611b8457611b846151d8565b60200260200101819052508080611b9a906151ee565b915050611b1b565b5090939092509050565b601c818154811061155457600080fd5b60045415801590611be657506001600160a01b0384166000908152601e602052604090205460ff16155b15611c2b57611bf98484848460016118e9565b506001600160a01b0384166000908152601d60209081526040808320869055601e9091529020805460ff191660011790555b50505050565b6007546001600160a01b03163314611c5c5760405163141dbb4960e21b815260040160405180910390fd5b6004611c666125f8565b6004811115611c7757611c77614bff565b1480611c9b57506002611c886125f8565b6004811115611c9957611c99614bff565b145b15611cb9576040516398fe99a560e01b815260040160405180910390fd5b600455565b600081600003611ce157604051630ec90a1760e31b815260040160405180910390fd5b60028054604080516020808402820181019092528281529192600092918490830182828015611d2f57602002820191906000526020600020905b815481526020019060010190808311611d1b575b5050505050905060006001905060005b83811015611dab57611d76838281518110611d5c57611d5c6151d8565b602002602001015160009081526023602052604090205490565b15611d9957858203611d8b5795945050505050565b81611d95816151ee565b9250505b80611da3816151ee565b915050611d3f565b50604051632cc2ab7360e11b815260040160405180910390fd5b606060268054806020026020016040519081016040528092919081815260200182805480156115bc57602002820191906000526020600020908154815260200190600101908083116115a8575050505050905090565b601480546113af9061506e565b600080611e3660018461323d565b60008681526017602052604090205490915060ff1615611e69576040516358f1119560e01b815260040160405180910390fd5b60045415801590611e8a5750336000908152601e602052604090205460ff16155b15611ea85760405163126ec6d160e31b815260040160405180910390fd5b611eb181613309565b611ebd85338686613410565b95945050505050565b60008281526022602090815260408083206001600160a01b0385168452600301909152902080546001909101545b9250929050565b606060028054806020026020016040519081016040528092919081815260200182805480156115bc57602002820191906000526020600020908154815260200190600101908083116115a8575050505050905090565b60236020528160005260406000208181548110611f6d57600080fd5b90600052602060002001600091509150505481565b600680546113af9061506e565b60276020526000908152604090208054600182015460028301546003840180546001600160a01b03909416949293919291611fc99061506e565b80601f0160208091040260200160405190810160405280929190818152602001828054611ff59061506e565b80156120425780601f1061201757610100808354040283529160200191612042565b820191906000526020600020905b81548152906001019060200180831161202557829003601f168201915b5050505050905084565b60025460009061205e90600190615207565b82111561207e576040516365d6f35160e11b815260040160405180910390fd5b60005b61208c8360016151c5565b8110156120e95760016120c8600283815481106120ab576120ab6151d8565b906000526020600020015460009081526023602052604090205490565b11156120d75750600192915050565b806120e1816151ee565b915050612081565b50600092915050565b6060601b8054806020026020016040519081016040528092919081815260200182805480156115bc576020028201919060005260206000209081546001600160a01b031681526001909101906020018083116118b2575050505050905090565b3373dc652c746a8f85e18ce632d97c6118e8a52fa738146121865760405163de07280160e01b815260040160405180910390fd5b60046121906125f8565b60048111156121a1576121a1614bff565b14806121c5575060026121b26125f8565b60048111156121c3576121c3614bff565b145b156121e3576040516398fe99a560e01b815260040160405180910390fd5b601380546001600160a01b0319166001600160a01b0392909216919091179055565b6015818154811061139157600080fd5b60008061222360008061323d565b6003549091501561225e57336000908152601f602052604090205460ff1661225e57604051631f22097560e01b815260040160405180910390fd5b61226a610ea38461521a565b600061227d6122788561521a565b613557565b905061228882613309565b9392505050565b60046122996125f8565b60048111156122aa576122aa614bff565b14806122ce575060026122bb6125f8565b60048111156122cc576122cc614bff565b145b156122ec57604051631e71d28360e21b815260040160405180910390fd5b805160005b818110156123ea57600083828151811061230d5761230d6151d8565b60209081029190910101516007549091506001600160a01b0316331480159061234d57506000818152602760205260409020546001600160a01b03163314155b1561237357604051635450763d60e11b8152600481018290526024015b60405180910390fd5b60008181526029602052604090205460ff166123d7576000818152602960205260408120805460ff191660019081179091556026805491820181559091527f744a2cf8fd7008e3d53b67916e73460df9fa5214e3ef23dd4259ca09493a3594018190555b50806123e2816151ee565b9150506122f1565b507f788a4349d25bc08585923ae212bce8bb346a623bce753eeecb85fd9ce58dcb4b8260405161241a9190614510565b60405180910390a15050565b600081815260226020908152604091829020600281018054845181850281018501909552808552606094929383018282801561248b57602002820191906000526020600020905b81546001600160a01b0316815260019091019060200180831161246d575b5050505050915050919050565b6007546060906001600160a01b031633146124c657604051630aca3d7160e11b815260040160405180910390fd5b60046124d06125f8565b60048111156124e1576124e1614bff565b1480612505575060026124f26125f8565b600481111561250357612503614bff565b145b1561252357604051635b0747e760e01b815260040160405180910390fd5b600661252f83826150f0565b5090919050565b60008181526023602052604081205460011461256557604051633832a15560e21b815260040160405180910390fd5b60008281526023602052604081208054909190612584576125846151d8565b90600052602060002001549050919050565b6000818152602860209081526040918290208054835181840281018401909452808452606093928301828280156125ec57602002820191906000526020600020905b8154815260200190600101908083116125d8575b50505050509050919050565b60185460009060ff161561260c5750600290565b426008541061261b5750600090565b42612624612e17565b1061262f5750600390565b4261263861185c565b106126435750600190565b50600490565b6007546060906001600160a01b0316331461267757604051637d1cb2b160e01b815260040160405180910390fd5b60046126816125f8565b600481111561269257612692614bff565b14806126b6575060026126a36125f8565b60048111156126b4576126b4614bff565b145b156126d457604051635b0747e760e01b815260040160405180910390fd5b600561252f83826150f0565b6126e86140bb565b600082815260196020908152604091829020825160c08101845281546001600160a01b0381168252600160a01b900460ff16151592810192909252600181018054929391929184019161273a9061506e565b80601f01602080910402602001604051908101604052809291908181526020018280546127669061506e565b80156127b35780601f10612788576101008083540402835291602001916127b3565b820191906000526020600020905b81548152906001019060200180831161279657829003601f168201915b5050509183525050604080516020818101835260028501546001600160a01b0316825280840191909152815160038501805460609381028301840185528285018181529490950194919390928492849184018282801561283c57602002820191906000526020600020905b81546001600160a01b0316815260019091019060200180831161281e575b50505050508152602001600182015481525050815260200160058201604051806060016040529081600082018054806020026020016040519081016040528092919081815260200182805480156128bc57602002820191906000526020600020905b81546001600160a01b0316815260019091019060200180831161289e575b5050505050815260200160018201805480602002602001604051908101604052809291908181526020016000905b828210156129965783829060005260206000200180546129099061506e565b80601f01602080910402602001604051908101604052809291908181526020018280546129359061506e565b80156129825780601f1061295757610100808354040283529160200191612982565b820191906000526020600020905b81548152906001019060200180831161296557829003601f168201915b5050505050815260200190600101906128ea565b505050508152602001600282018054806020026020016040519081016040528092919081815260200182805480156129ed57602002820191906000526020600020905b8154815260200190600101908083116129d9575b5050509190925250505090525092915050565b6000818152602360209081526040918290208054835181840281018401909452808452606093928301828280156125ec57602002820191906000526020600020908154815260200190600101908083116125d85750505050509050919050565b606060006016805480602002602001604051908101604052809291908181526020018280548015612ab057602002820191906000526020600020905b815481526020019060010190808311612a9c575b50505050509050600081516001600160401b03811115612ad257612ad2614565565b604051908082528060200260200182016040528015612afb578160200160208202803683370190505b50905060005b8251811015612b895760196000848381518110612b2057612b206151d8565b6020026020010151815260200190815260200160002060000160009054906101000a90046001600160a01b0316828281518110612b5f57612b5f6151d8565b6001600160a01b039092166020928302919091019091015280612b81816151ee565b915050612b01565b5092915050565b80516001600160a01b03163314612bce57805160405163fbbf4d7f60e01b81526001600160a01b03909116600482015233602482015260440161236a565b60005b612bdd600260016151c5565b811015612d4d576000816002811115612bf857612bf8614bff565b90506000816002811115612c0e57612c0e614bff565b03612c195750612d3b565b6001816002811115612c2d57612c2d614bff565b03612c875760808301515151600003612c595760405163c3b2798b60e01b815260040160405180910390fd5b826080015160200151600003612c82576040516392fb9a3560e01b815260040160405180910390fd5b612d39565b6002816002811115612c9b57612c9b614bff565b03612d1e5760a08301515151600a1015612cc857604051631e38b1b160e11b815260040160405180910390fd5b600a8360a0015160200151511115612cf35760405163a3b7dd7760e01b815260040160405180910390fd5b600a8360a0015160400151511115612c825760405163f696406560e01b815260040160405180910390fd5b8060405163d2277d4960e01b815260040161236a9190615226565b505b80612d45816151ee565b915050612bd1565b50806040015151600003612d745760405163e182473360e01b815260040160405180910390fd5b50565b600081604051602001611a0b9190614c2f565b6007546001600160a01b03163314612db55760405163141dbb4960e21b815260040160405180910390fd5b6004612dbf6125f8565b6004811115612dd057612dd0614bff565b1480612df457506002612de16125f8565b6004811115612df257612df2614bff565b145b15612e12576040516398fe99a560e01b815260040160405180910390fd5b600355565b600060095460085461187391906151c5565b606060258054806020026020016040519081016040528092919081815260200182805480156115bc57602002820191906000526020600020908154815260200190600101908083116115a8575050505050905090565b6007546001600160a01b03163314801590612eae57503373dc652c746a8f85e18ce632d97c6118e8a52fa73814155b15612ecc57604051637601acaf60e11b815260040160405180910390fd5b6004612ed66125f8565b6004811115612ee757612ee7614bff565b1480612f0b57506002612ef86125f8565b6004811115612f0957612f09614bff565b145b15612f2957604051635777604560e01b815260040160405180910390fd5b6018805460ff191660011790556040517f4cd963a081760a54f571abc0f1db4dde31b4a07d8d6da3e844b8c6f47eeaaa4290600090a1565b606060158054806020026020016040519081016040528092919081815260200182805480156115bc57602002820191906000526020600020908154815260200190600101908083116115a8575050505050905090565b6007546001600160a01b03163314612fe25760405163b8d4540960e01b815260040160405180910390fd5b6004612fec6125f8565b6004811115612ffd57612ffd614bff565b14806130215750600261300e6125f8565b600481111561301f5761301f614bff565b145b1561303f57604051631e71d28360e21b815260040160405180910390fd5b60005b818110156130e457600083838381811061305e5761305e6151d8565b60209081029290920135600081815260179093526040909220549192505060ff166130d1576000818152601760205260408120805460ff191660019081179091556016805491820181559091527fd833147d7dc355ba459fc788f669e58cfaf9dc25ddcd0702e87d69c7b5124289018190555b50806130dc816151ee565b915050613042565b50600d541580156130f757506000546001145b1561310657613106828261382e565b7f75a75cf5c561892f4cc5b26c1b8e933849b42238c96dd073d080d1ae96c51416601560405161241a919061523a565b6007546001600160a01b0316331461316157604051630f4cb1bd60e11b815260040160405180910390fd5b602480546001600160a01b038381166001600160a01b031983168117909355604080519190921680825260208201939093527f753a2cf8d360cff631674504210913e48247f8e56b3e6d2006c2103d4095999f910161241a565b6025818154811061139157600080fd5b60286020528160005260406000208181548110611f6d57600080fd5b6000806131f560008061323d565b90506132023385856117ed565b61320e610ea38661521a565b600061321c6122788761521a565b9050611ebd82613309565b600082613234858461388b565b14949350505050565b6000808084600181111561325357613253614bff565b036132615750600f546132e0565b600184600181111561327557613275614bff565b036132dc576011546001036132d357670de0b6b3a76400008310156132ad576040516346ddb8d160e01b815260040160405180910390fd5b6132bf670de0b6b3a764000084615275565b6010546132cc9190615297565b90506132e0565b506010546132e0565b5060005b803414612288576040516372c3eaa760e01b81523460048201526024810182905260440161236a565b8015612d745760006064600e5460646133229190615207565b61332c9034615297565b6133369190615275565b9050801561339b57601354613354906001600160a01b0316826138d8565b601354604080516001600160a01b039092168252602082018390527f9df63d1c00d2e332f573be591c0579caafb256b2c5a17abcc8ad471cccda1b81910160405180910390a15b60006133a78234615207565b90508015611857576012546133c5906001600160a01b0316826138d8565b600754604080516001600160a01b039092168252602082018390527f6dff55337c8458ae8c536a63869a48bc33541733422a796390c131d91f4238ed910160405180910390a1505050565b6000600161341c6125f8565b600481111561342d5761342d614bff565b146134545761343a6125f8565b60405163049cab4960e51b815260040161236a9190614c15565b816000036134755760405163502e1c2960e01b815260040160405180910390fd5b6134a785858585601d60008a6001600160a01b03166001600160a01b03168152602001908152602001600020546139f1565b601c80546001810182556000919091527f0e4562a10381dec21b205ed72637e6b1b523bdd0e4d4d50af5cd23dd4500a2110180546001600160a01b031916331790556040805186815260ff851660208201529081018390526001600160a01b038516907f2c9deb38f462962eadbd85a9d3a4120503ee091f1582eaaa10aa8c6797651d299060600160405180910390a25050506001600160a01b03166000908152601d6020526040902054919050565b600060036135636125f8565b600481111561357457613574614bff565b1461359b576135816125f8565b604051632889531360e01b815260040161236a9190614c15565b600b54336000908152601a6020526040902054036135d257600b54604051632bd6d93960e21b815260040161236a91815260200190565b600c546016546015546135e59190615207565b0361360957600c546040516302217f5360e51b815260040161236a91815260200190565b600061361483612d77565b600081815260196020526040902054909150600160a01b900460ff16156136515760405163baffc42360e01b81526004810182905260240161236a565b6015805460018181019092557f55f448fdea98c4d29eb340757ef0a66cd03dbb9538908a6a81d96026b71ec4750182905560008281526019602090815260409182902086518154928801511515600160a01b026001600160a81b03199093166001600160a01b03909116179190911781559085015185928201906136d590826150f0565b506060820151516002820180546001600160a01b0319166001600160a01b03909216919091179055608082015180518051600384019161371a91839160200190614155565b5060209182015160019091015560a083015180518051919260058501926137449284920190614155565b50602082810151805161375d92600185019201906141ba565b506040820151805161377991600284019160209091019061420c565b5050336000908152601a602052604081208054600195509093509091506137a19084906151c5565b9091555050601b80546001810182556000919091527f3ad8aa4f87544323a9d1e5dd902f40c356527a7955687113db5f9a85ad579dc10180546001600160a01b0319163390811790915560408085015190517f7585f467599d0f008985f231af99293be388626ac16ca59505c2f8f88969cd63926138209285926152ae565b60405180910390a192915050565b60005b8181101561185757600083838381811061384d5761384d6151d8565b602090810292909201356000818152602290935260409092205491925061387690508282613c66565b50508080613883906151ee565b915050613831565b600081815b84518110156138d0576138bc828683815181106138af576138af6151d8565b6020026020010151613d97565b9150806138c8816151ee565b915050613890565b509392505050565b804710156139285760405162461bcd60e51b815260206004820152601d60248201527f416464726573733a20696e73756666696369656e742062616c616e6365000000604482015260640161236a565b6000826001600160a01b03168260405160006040518083038185875af1925050503d8060008114613975576040519150601f19603f3d011682016040523d82523d6000602084013e61397a565b606091505b50509050806118575760405162461bcd60e51b815260206004820152603a60248201527f416464726573733a20756e61626c6520746f2073656e642076616c75652c207260448201527f6563697069656e74206d61792068617665207265766572746564000000000000606482015260840161236a565b600085815260226020526040902060045415801590613a3157506001600160a01b038516600090815260216020526040902054613a2e9083615207565b83115b15613a4f5760405163660fa07360e11b815260040160405180910390fd5b6001600160a01b0385166000908152600382016020526040812054158015613a9257506001600160a01b0386166000908152600383016020526040902060010154155b905060ff8516613aea57815484908390600090613ab09084906151c5565b90915550506001600160a01b038616600090815260038301602052604081208054869290613adf9084906151c5565b90915550613b7b9050565b60001960ff861601613b6257600d54600114613b1957604051639755958f60e01b815260040160405180910390fd5b83826000016001016000828254613b3091906151c5565b90915550506001600160a01b038616600090815260038301602052604081206001018054869290613adf9084906151c5565b604051638eed55d160e01b815260040160405180910390fd5b8015613bb257600282018054600181018255600091825260209091200180546001600160a01b0319166001600160a01b0388161790555b6001600160a01b03861660009081526021602052604081208054869290613bda9084906151c5565b925050819055508360206000828254613bf391906151c5565b9091555050600d54158015613c0a57506000546001145b15613c5d5781546000613c1d8683615207565b90508015613c2f57613c2f8982613c66565b600082815260236020908152604082208054600181018255908352912001899055613c5a8183613dc6565b50505b50505050505050565b600081815260236020908152604080832080548251818502810185019093528083529192909190830182828015613cbc57602002820191906000526020600020905b815481526020019060010190808311613ca8575b5050505050905060005b8151811015611c2b5783828281518110613ce257613ce26151d8565b602002602001015103613d85578160018351613cfe9190615207565b81518110613d0e57613d0e6151d8565b6020026020010151602360008581526020019081526020016000208281548110613d3a57613d3a6151d8565b906000526020600020018190555060236000848152602001908152602001600020805480613d6a57613d6a6152d8565b60019003818190600052602060002001600090559055611c2b565b80613d8f816151ee565b915050613cc6565b6000818310613db3576000828152602084905260409020612288565b6000838152602083905260409020612288565b60028054604080516020808402820181019092528281529192600092918490830182828015613e1457602002820191906000526020600020905b815481526020019060010190808311613e00575b5050505050905081600003613e5b575050600280546001810182556000919091527f405787fa12a823e0f2b7631cc41b3ba8828b3321ca811111fa75cd3aa3bb5ace015550565b80613e67600184615207565b81518110613e7757613e776151d8565b6020026020010151831015613ecd576001548203613e955750505050565b5050600280546001810182556000919091527f405787fa12a823e0f2b7631cc41b3ba8828b3321ca811111fa75cd3aa3bb5ace015550565b611c2b848484846000805b83811015613f4257828181518110613ef257613ef26151d8565b60200260200101518503613f07575050611c2b565b828181518110613f1957613f196151d8565b6020026020010151851115613f3057809150613f42565b80613f3a816151ee565b915050613ed8565b5060008086118015613f605750600086815260236020526040902054155b90506000818015613f89575086848481518110613f7f57613f7f6151d8565b6020026020010151145b61409257613f98600186615207565b8314614040576000613fab8460016151c5565b90505b8581101561403e5784613fc2600183615207565b81518110613fd257613fd26151d8565b602002602001015160028281548110613fed57613fed6151d8565b60009182526020909120015582801561401e575087858281518110614014576140146151d8565b6020026020010151145b1561402c576001915061403e565b80614036816151ee565b915050613fae565b505b8015801561404f575060015485105b1561409257600284614062600188615207565b81518110614072576140726151d8565b602090810291909101810151825460018101845560009384529190922001555b85600284815481106140a6576140a66151d8565b60009182526020909120015550505050505050565b6040518060c0016040528060006001600160a01b0316815260200160001515815260200160608152602001614105604051806020016040528060006001600160a01b031681525090565b8152602001614127604051806040016040528060608152602001600081525090565b815260200161415060405180606001604052806060815260200160608152602001606081525090565b905290565b8280548282559060005260206000209081019282156141aa579160200282015b828111156141aa57825182546001600160a01b0319166001600160a01b03909116178255602090920191600190910190614175565b506141b6929150614247565b5090565b828054828255906000526020600020908101928215614200579160200282015b8281111561420057825182906141f090826150f0565b50916020019190600101906141da565b506141b692915061425c565b8280548282559060005260206000209081019282156141aa579160200282015b828111156141aa57825182559160200191906001019061422c565b5b808211156141b65760008155600101614248565b808211156141b65760006142708282614279565b5060010161425c565b5080546142859061506e565b6000825580601f10614295575050565b601f016020900490600052602060002090810190612d749190614247565b6000602082840312156142c557600080fd5b5035919050565b6000815180845260005b818110156142f2576020818501810151868301820152016142d6565b506000602082860101526020601f19601f83011685010191505092915050565b600081518084526020808501945080840160005b8381101561434b5781516001600160a01b031687529582019590820190600101614326565b509495945050505050565b600081516040845261436b6040850182614312565b602093840151949093019390935250919050565b600081518084526020808501945080840160005b8381101561434b57815187529582019590820190600101614393565b60008151606084526143c46060850182614312565b9050602080840151858303828701528281518085528385019150838160051b860101848401935060005b8281101561441c57601f1987830301845261440a8286516142cc565b948601949386019391506001016143ee565b506040880151955088810360408a0152614436818761437f565b9998505050505050505050565b600060018060a01b038089168352871515602084015260c0604084015261446d60c08401886142cc565b81875116606085015283810360808501526144888187614356565b91505082810360a084015261443681856143af565b60208152600061228860208301846142cc565b8151815260208083015190820152604081016117e7565b6020815260018060a01b03825116602082015260208201516040820152604082015160608201526000606083015160808084015261450860a08401826142cc565b949350505050565b602081526000612288602083018461437f565b6001600160a01b0381168114612d7457600080fd5b803561454381614523565b919050565b60006020828403121561455a57600080fd5b813561228881614523565b634e487b7160e01b600052604160045260246000fd5b604051606081016001600160401b038111828210171561459d5761459d614565565b60405290565b60405160c081016001600160401b038111828210171561459d5761459d614565565b604051601f8201601f191681016001600160401b03811182821017156145ed576145ed614565565b604052919050565b600082601f83011261460657600080fd5b81356001600160401b0381111561461f5761461f614565565b614632601f8201601f19166020016145c5565b81815284602083860101111561464757600080fd5b816020850160208301376000918101602001919091529392505050565b6000806040838503121561467757600080fd5b8235915060208301356001600160401b0381111561469457600080fd5b6146a0858286016145f5565b9150509250929050565b60008083601f8401126146bc57600080fd5b5081356001600160401b038111156146d357600080fd5b6020830191508360208260051b8501011115611ef457600080fd5b60008060006040848603121561470357600080fd5b833561470e81614523565b925060208401356001600160401b0381111561472957600080fd5b614735868287016146aa565b9497909650939450505050565b6020808252825182820181905260009190848201906040850190845b818110156147835783516001600160a01b03168352928401929184019160010161475e565b50909695505050505050565b8035801515811461454357600080fd5b6000806000806000608086880312156147b757600080fd5b85356147c281614523565b94506020860135935060408601356001600160401b038111156147e457600080fd5b6147f0888289016146aa565b909450925061480390506060870161478f565b90509295509295909350565b60006020828403121561482157600080fd5b81356001600160401b038082111561483857600080fd5b908301906080828603121561484c57600080fd5b60405160808101818110838211171561486757614867614565565b604052823561487581614523565b80825250602083013560208201526040830135604082015260608301358281111561489f57600080fd5b6148ab878286016145f5565b60608301525095945050505050565b803560ff8116811461454357600080fd5b60008060008060008060a087890312156148e457600080fd5b863595506148f4602088016148ba565b9450604087013593506060870135925060808701356001600160401b0381111561491d57600080fd5b61492989828a016146aa565b979a9699509497509295939492505050565b6000604080835261494e8184018661437f565b83810360208581019190915285518083528682019282019060005b818110156149965761498683865180518252602090810151910152565b9383019391850191600101614969565b509098975050505050505050565b600080600080606085870312156149ba57600080fd5b84356149c581614523565b93506020850135925060408501356001600160401b038111156149e757600080fd5b6149f3878288016146aa565b95989497509550505050565b600080600060608486031215614a1457600080fd5b83359250614a24602085016148ba565b9150604084013590509250925092565b60008060408385031215614a4757600080fd5b823591506020830135614a5981614523565b809150509250929050565b60008060408385031215614a7757600080fd5b50508035926020909101359150565b60018060a01b0385168152836020820152826040820152608060608201526000614ab360808301846142cc565b9695505050505050565b600060c08284031215614acf57600080fd5b50919050565b600060208284031215614ae757600080fd5b81356001600160401b03811115614afd57600080fd5b61450884828501614abd565b60006001600160401b03821115614b2257614b22614565565b5060051b60200190565b600082601f830112614b3d57600080fd5b81356020614b52614b4d83614b09565b6145c5565b82815260059290921b84018101918181019086841115614b7157600080fd5b8286015b84811015614b8c5780358352918301918301614b75565b509695505050505050565b600060208284031215614ba957600080fd5b81356001600160401b03811115614bbf57600080fd5b61450884828501614b2c565b600060208284031215614bdd57600080fd5b81356001600160401b03811115614bf357600080fd5b614508848285016145f5565b634e487b7160e01b600052602160045260246000fd5b6020810160058310614c2957614c29614bff565b91905290565b60208152600060018060a01b03808451166020840152602084015115156040840152604084015160c06060850152614c6a60e08501826142cc565b90508160608601515116608085015260808501519150601f19808583030160a0860152614c978284614356565b925060a08601519150808584030160c086015250611ebd82826143af565b600060208284031215614cc757600080fd5b604051602081018181106001600160401b0382111715614ce957614ce9614565565b6040529050808235614cfa81614523565b905292915050565b600082601f830112614d1357600080fd5b81356020614d23614b4d83614b09565b82815260059290921b84018101918181019086841115614d4257600080fd5b8286015b84811015614b8c578035614d5981614523565b8352918301918301614d46565b600060408284031215614d7857600080fd5b604051604081016001600160401b038282108183111715614d9b57614d9b614565565b816040528293508435915080821115614db357600080fd5b50614dc085828601614d02565b825250602083013560208201525092915050565b600060608284031215614de657600080fd5b614dee61457b565b905081356001600160401b0380821115614e0757600080fd5b614e1385838601614d02565b8352602091508184013581811115614e2a57600080fd5b8401601f81018613614e3b57600080fd5b8035614e49614b4d82614b09565b81815260059190911b82018401908481019088831115614e6857600080fd5b8584015b83811015614ea057803586811115614e845760008081fd5b614e928b89838901016145f5565b845250918601918601614e6c565b508086880152505050506040840135915080821115614ebe57600080fd5b50614ecb84828501614b2c565b60408301525092915050565b600060c08284031215614ee957600080fd5b614ef16145a3565b9050614efc82614538565b8152614f0a6020830161478f565b602082015260408201356001600160401b0380821115614f2957600080fd5b614f35858386016145f5565b6040840152614f478560608601614cb5565b60608401526080840135915080821115614f6057600080fd5b614f6c85838601614d66565b608084015260a0840135915080821115614f8557600080fd5b50614f9284828501614dd4565b60a08301525092915050565b600060208284031215614fb057600080fd5b81356001600160401b03811115614fc657600080fd5b61450884828501614ed7565b60008060208385031215614fe557600080fd5b82356001600160401b03811115614ffb57600080fd5b615007858286016146aa565b90969095509350505050565b60008060006040848603121561502857600080fd5b83356001600160401b038082111561503f57600080fd5b61504b87838801614abd565b9450602086013591508082111561506157600080fd5b50614735868287016146aa565b600181811c9082168061508257607f821691505b602082108103614acf57634e487b7160e01b600052602260045260246000fd5b601f82111561185757600081815260208120601f850160051c810160208610156150c95750805b601f850160051c820191505b818110156150e8578281556001016150d5565b505050505050565b81516001600160401b0381111561510957615109614565565b61511d81615117845461506e565b846150a2565b602080601f831160018114615152576000841561513a5750858301515b600019600386901b1c1916600185901b1785556150e8565b600085815260208120601f198616915b8281101561518157888601518255948401946001909101908401615162565b508582101561519f5787850151600019600388901b60f8161c191681555b5050505050600190811b01905550565b634e487b7160e01b600052601160045260246000fd5b808201808211156117e7576117e76151af565b634e487b7160e01b600052603260045260246000fd5b600060018201615200576152006151af565b5060010190565b818103818111156117e7576117e76151af565b60006117e73683614ed7565b6020810160038310614c2957614c29614bff565b6020808252825482820181905260008481528281209092916040850190845b8181101561478357835483526001938401939285019201615259565b60008261529257634e487b7160e01b600052601260045260246000fd5b500490565b80820281158282048414176117e7576117e76151af565b8381526001600160a01b0383166020820152606060408201819052600090611ebd908301846142cc565b634e487b7160e01b600052603160045260246000fdfea264697066735822122056106be17cb347d9af57528fe770985325575739ccc471f2c8bb65fc899359cb64736f6c63430008130033","linkReferences":{}},"methodIdentifiers":{"AMOUNT_FOR_SUMBITTER_PROOF()":"347cf665","JK_LABS_ADDRESS()":"eef18e17","MAX_FIELDS_METADATA_LENGTH()":"b382543f","METADATAS_COUNT()":"4d24a67f","addressSubmitterVerified(address)":"cb853950","addressTotalCastVoteCounts(address)":"a1ac6cb2","addressTotalVotes(address)":"dea5f6a6","addressTotalVotesVerified(address)":"930de979","addressesThatHaveVoted(uint256)":"50c4b616","allProposalTotalVotes()":"50a5e524","cancel()":"ea8a1af0","canceled()":"3f9942ff","castVote(uint256,uint8,uint256,uint256,bytes32[])":"419c533c","castVoteWithoutProof(uint256,uint8,uint256)":"65f16263","checkProof(address,uint256,bytes32[],bool)":"32763c22","comment(uint256,string)":"1805c523","commentIds(uint256)":"f5c36411","commentIsDeleted(uint256)":"ae66b8ad","comments(uint256)":"8ebb4c15","contestAddressTotalVotesCast(address)":"aec116b6","contestDeadline()":"262e59e9","contestStart()":"004114a8","costToPropose()":"6ed815ad","costToVote()":"51a41dec","creator()":"02d05d3f","creatorSplitDestination()":"4a587ad4","deleteComments(uint256[])":"ac67f801","deleteProposals(uint256[])":"f0a7db0a","deletedCommentIds(uint256)":"3fb57c92","deletedProposalIds(uint256)":"05846cae","downvotingAllowed()":"60506ff6","forVotesToProposalIds(uint256,uint256)":"711effc8","getAllAddressesThatHaveVoted()":"2c39805f","getAllAuthorsOfDeletedProposals()":"cbdc27cb","getAllCommentIds()":"e11db9d8","getAllDeletedCommentIds()":"5cb718a1","getAllDeletedProposalIds()":"1242b737","getAllProposalAuthors()":"946369b5","getAllProposalIds()":"efa90d36","getComment(uint256)":"0800e300","getNumProposalsWithThisManyForVotes(uint256)":"9ba197af","getOnlyProposalIdWithThisManyForVotes(uint256)":"b66d1da3","getProposal(uint256)":"c7f758a8","getProposalComments(uint256)":"c05f4104","getProposalsWithThisManyForVotes(uint256)":"c9a1b6b2","getRankIndex(uint256)":"5c7107d8","getSortedRanks()":"6fd3636b","hashComment((address,uint256,uint256,string))":"409fd030","hashProposal((address,bool,string,(address),(address[],uint256),(address[],string[],uint256[])))":"d7989025","isOrIsBelowTiedRank(uint256)":"9174778c","jkLabsSplitDestination()":"102613d8","maxProposalCount()":"fb9bf8d4","metadataFieldsSchema()":"60ed97a9","name()":"06fdde03","numAllowedProposalSubmissions()":"832009af","numSubmissions(address)":"75e509c5","officialRewardsModule()":"785ddfe5","payPerVote()":"03f7eed6","percentageToCreator()":"edcd1be4","prompt()":"7c65d711","proposalAddressVotes(uint256,address)":"6e4eb810","proposalAddressesHaveVoted(uint256)":"b323580d","proposalAuthors(uint256)":"0aa25e44","proposalComments(uint256,uint256)":"f61736f4","proposalIds(uint256)":"9b644a23","proposalIsDeleted(uint256)":"f79c0172","proposalVotes(uint256)":"544ffc9c","proposalVotesStructs(uint256)":"070dc5d9","proposals(uint256)":"013cf08b","propose((address,bool,string,(address),(address[],uint256),(address[],string[],uint256[])),bytes32[])":"f823f110","proposeWithoutProof((address,bool,string,(address),(address[],uint256),(address[],string[],uint256[])))":"ab5e6947","rankLimit()":"0414126a","setCreatorSplitDestination(address)":"146230f6","setJkLabsSplitDestination(address)":"9b338aa0","setName(string)":"c47f0027","setOfficialRewardsModule(address)":"f4f3d7ec","setPrompt(string)":"b4ac024f","setSubmissionMerkleRoot(bytes32)":"daf762db","setVotingMerkleRoot(bytes32)":"544c7bb4","sortedRanks(uint256)":"325cc6d9","sortingEnabled()":"366ecf5b","state()":"c19d93fb","submissionMerkleRoot()":"bddc1641","totalVotesCast()":"7de418d5","validateProposalData((address,bool,string,(address),(address[],uint256),(address[],string[],uint256[])))":"d140d9f0","verifyProposer(address,bytes32[])":"20b3e845","verifyVoter(address,uint256,bytes32[])":"531bd812","version()":"54fd4d50","voteStart()":"e031535b","votingDelay()":"3932abb1","votingMerkleRoot()":"dd96a19d","votingPeriod()":"02a251a3"},"id":34}