{"abi":[{"type":"constructor","inputs":[{"name":"_name","type":"string","internalType":"string"},{"name":"_prompt","type":"string","internalType":"string"},{"name":"_submissionMerkleRoot","type":"bytes32","internalType":"bytes32"},{"name":"_votingMerkleRoot","type":"bytes32","internalType":"bytes32"},{"name":"_constructorArgs","type":"tuple","internalType":"struct Governor.ConstructorArgs","components":[{"name":"intConstructorArgs","type":"tuple","internalType":"struct Governor.IntConstructorArgs","components":[{"name":"contestStart","type":"uint256","internalType":"uint256"},{"name":"votingDelay","type":"uint256","internalType":"uint256"},{"name":"votingPeriod","type":"uint256","internalType":"uint256"},{"name":"numAllowedProposalSubmissions","type":"uint256","internalType":"uint256"},{"name":"maxProposalCount","type":"uint256","internalType":"uint256"},{"name":"downvotingAllowed","type":"uint256","internalType":"uint256"},{"name":"sortingEnabled","type":"uint256","internalType":"uint256"},{"name":"rankLimit","type":"uint256","internalType":"uint256"},{"name":"percentageToCreator","type":"uint256","internalType":"uint256"},{"name":"costToPropose","type":"uint256","internalType":"uint256"},{"name":"costToVote","type":"uint256","internalType":"uint256"},{"name":"payPerVote","type":"uint256","internalType":"uint256"}]},{"name":"creatorSplitDestination","type":"address","internalType":"address"},{"name":"jkLabsSplitDestination","type":"address","internalType":"address"},{"name":"metadataFieldsSchema","type":"string","internalType":"string"}]}],"stateMutability":"nonpayable"},{"type":"function","name":"AMOUNT_FOR_SUMBITTER_PROOF","inputs":[],"outputs":[{"name":"","type":"uint256","internalType":"uint256"}],"stateMutability":"view"},{"type":"function","name":"JK_LABS_ADDRESS","inputs":[],"outputs":[{"name":"","type":"address","internalType":"address"}],"stateMutability":"view"},{"type":"function","name":"MAX_FIELDS_METADATA_LENGTH","inputs":[],"outputs":[{"name":"","type":"uint256","internalType":"uint256"}],"stateMutability":"view"},{"type":"function","name":"METADATAS_COUNT","inputs":[],"outputs":[{"name":"","type":"uint256","internalType":"uint256"}],"stateMutability":"view"},{"type":"function","name":"addressSubmitterVerified","inputs":[{"name":"","type":"address","internalType":"address"}],"outputs":[{"name":"","type":"bool","internalType":"bool"}],"stateMutability":"view"},{"type":"function","name":"addressTotalCastVoteCounts","inputs":[{"name":"","type":"address","internalType":"address"}],"outputs":[{"name":"","type":"uint256","internalType":"uint256"}],"stateMutability":"view"},{"type":"function","name":"addressTotalVotes","inputs":[{"name":"","type":"address","internalType":"address"}],"outputs":[{"name":"","type":"uint256","internalType":"uint256"}],"stateMutability":"view"},{"type":"function","name":"addressTotalVotesVerified","inputs":[{"name":"","type":"address","internalType":"address"}],"outputs":[{"name":"","type":"bool","internalType":"bool"}],"stateMutability":"view"},{"type":"function","name":"addressesThatHaveVoted","inputs":[{"name":"","type":"uint256","internalType":"uint256"}],"outputs":[{"name":"","type":"address","internalType":"address"}],"stateMutability":"view"},{"type":"function","name":"allProposalTotalVotes","inputs":[],"outputs":[{"name":"proposalIdsReturn","type":"uint256[]","internalType":"uint256[]"},{"name":"proposalVoteCountsArrayReturn","type":"tuple[]","internalType":"struct GovernorCountingSimple.VoteCounts[]","components":[{"name":"forVotes","type":"uint256","internalType":"uint256"},{"name":"againstVotes","type":"uint256","internalType":"uint256"}]}],"stateMutability":"view"},{"type":"function","name":"cancel","inputs":[],"outputs":[],"stateMutability":"nonpayable"},{"type":"function","name":"canceled","inputs":[],"outputs":[{"name":"","type":"bool","internalType":"bool"}],"stateMutability":"view"},{"type":"function","name":"castVote","inputs":[{"name":"proposalId","type":"uint256","internalType":"uint256"},{"name":"support","type":"uint8","internalType":"uint8"},{"name":"totalVotes","type":"uint256","internalType":"uint256"},{"name":"numVotes","type":"uint256","internalType":"uint256"},{"name":"proof","type":"bytes32[]","internalType":"bytes32[]"}],"outputs":[{"name":"","type":"uint256","internalType":"uint256"}],"stateMutability":"payable"},{"type":"function","name":"castVoteWithoutProof","inputs":[{"name":"proposalId","type":"uint256","internalType":"uint256"},{"name":"support","type":"uint8","internalType":"uint8"},{"name":"numVotes","type":"uint256","internalType":"uint256"}],"outputs":[{"name":"","type":"uint256","internalType":"uint256"}],"stateMutability":"payable"},{"type":"function","name":"checkProof","inputs":[{"name":"addressToCheck","type":"address","internalType":"address"},{"name":"amount","type":"uint256","internalType":"uint256"},{"name":"proof","type":"bytes32[]","internalType":"bytes32[]"},{"name":"voting","type":"bool","internalType":"bool"}],"outputs":[{"name":"verified","type":"bool","internalType":"bool"}],"stateMutability":"view"},{"type":"function","name":"comment","inputs":[{"name":"proposalId","type":"uint256","internalType":"uint256"},{"name":"commentContent","type":"string","internalType":"string"}],"outputs":[{"name":"","type":"uint256","internalType":"uint256"}],"stateMutability":"nonpayable"},{"type":"function","name":"commentIds","inputs":[{"name":"","type":"uint256","internalType":"uint256"}],"outputs":[{"name":"","type":"uint256","internalType":"uint256"}],"stateMutability":"view"},{"type":"function","name":"commentIsDeleted","inputs":[{"name":"","type":"uint256","internalType":"uint256"}],"outputs":[{"name":"","type":"bool","internalType":"bool"}],"stateMutability":"view"},{"type":"function","name":"comments","inputs":[{"name":"","type":"uint256","internalType":"uint256"}],"outputs":[{"name":"author","type":"address","internalType":"address"},{"name":"timestamp","type":"uint256","internalType":"uint256"},{"name":"proposalId","type":"uint256","internalType":"uint256"},{"name":"commentContent","type":"string","internalType":"string"}],"stateMutability":"view"},{"type":"function","name":"contestAddressTotalVotesCast","inputs":[{"name":"userAddress","type":"address","internalType":"address"}],"outputs":[{"name":"userTotalVotesCast","type":"uint256","internalType":"uint256"}],"stateMutability":"view"},{"type":"function","name":"contestDeadline","inputs":[],"outputs":[{"name":"","type":"uint256","internalType":"uint256"}],"stateMutability":"view"},{"type":"function","name":"contestStart","inputs":[],"outputs":[{"name":"","type":"uint256","internalType":"uint256"}],"stateMutability":"view"},{"type":"function","name":"costToPropose","inputs":[],"outputs":[{"name":"","type":"uint256","internalType":"uint256"}],"stateMutability":"view"},{"type":"function","name":"costToVote","inputs":[],"outputs":[{"name":"","type":"uint256","internalType":"uint256"}],"stateMutability":"view"},{"type":"function","name":"creator","inputs":[],"outputs":[{"name":"","type":"address","internalType":"address"}],"stateMutability":"view"},{"type":"function","name":"creatorSplitDestination","inputs":[],"outputs":[{"name":"","type":"address","internalType":"address"}],"stateMutability":"view"},{"type":"function","name":"deleteComments","inputs":[{"name":"commentIdsParam","type":"uint256[]","internalType":"uint256[]"}],"outputs":[],"stateMutability":"nonpayable"},{"type":"function","name":"deleteProposals","inputs":[{"name":"proposalIdsToDelete","type":"uint256[]","internalType":"uint256[]"}],"outputs":[],"stateMutability":"nonpayable"},{"type":"function","name":"deletedCommentIds","inputs":[{"name":"","type":"uint256","internalType":"uint256"}],"outputs":[{"name":"","type":"uint256","internalType":"uint256"}],"stateMutability":"view"},{"type":"function","name":"deletedProposalIds","inputs":[{"name":"","type":"uint256","internalType":"uint256"}],"outputs":[{"name":"","type":"uint256","internalType":"uint256"}],"stateMutability":"view"},{"type":"function","name":"downvotingAllowed","inputs":[],"outputs":[{"name":"","type":"uint256","internalType":"uint256"}],"stateMutability":"view"},{"type":"function","name":"forVotesToProposalIds","inputs":[{"name":"","type":"uint256","internalType":"uint256"},{"name":"","type":"uint256","internalType":"uint256"}],"outputs":[{"name":"","type":"uint256","internalType":"uint256"}],"stateMutability":"view"},{"type":"function","name":"getAllAddressesThatHaveVoted","inputs":[],"outputs":[{"name":"","type":"address[]","internalType":"address[]"}],"stateMutability":"view"},{"type":"function","name":"getAllAuthorsOfDeletedProposals","inputs":[],"outputs":[{"name":"","type":"address[]","internalType":"address[]"}],"stateMutability":"view"},{"type":"function","name":"getAllCommentIds","inputs":[],"outputs":[{"name":"","type":"uint256[]","internalType":"uint256[]"}],"stateMutability":"view"},{"type":"function","name":"getAllDeletedCommentIds","inputs":[],"outputs":[{"name":"","type":"uint256[]","internalType":"uint256[]"}],"stateMutability":"view"},{"type":"function","name":"getAllDeletedProposalIds","inputs":[],"outputs":[{"name":"","type":"uint256[]","internalType":"uint256[]"}],"stateMutability":"view"},{"type":"function","name":"getAllProposalAuthors","inputs":[],"outputs":[{"name":"","type":"address[]","internalType":"address[]"}],"stateMutability":"view"},{"type":"function","name":"getAllProposalIds","inputs":[],"outputs":[{"name":"","type":"uint256[]","internalType":"uint256[]"}],"stateMutability":"view"},{"type":"function","name":"getComment","inputs":[{"name":"commentId","type":"uint256","internalType":"uint256"}],"outputs":[{"name":"","type":"tuple","internalType":"struct GovernorEngagement.CommentCore","components":[{"name":"author","type":"address","internalType":"address"},{"name":"timestamp","type":"uint256","internalType":"uint256"},{"name":"proposalId","type":"uint256","internalType":"uint256"},{"name":"commentContent","type":"string","internalType":"string"}]}],"stateMutability":"view"},{"type":"function","name":"getNumProposalsWithThisManyForVotes","inputs":[{"name":"forVotes","type":"uint256","internalType":"uint256"}],"outputs":[{"name":"count","type":"uint256","internalType":"uint256"}],"stateMutability":"view"},{"type":"function","name":"getOnlyProposalIdWithThisManyForVotes","inputs":[{"name":"forVotes","type":"uint256","internalType":"uint256"}],"outputs":[{"name":"proposalId","type":"uint256","internalType":"uint256"}],"stateMutability":"view"},{"type":"function","name":"getProposal","inputs":[{"name":"proposalId","type":"uint256","internalType":"uint256"}],"outputs":[{"name":"","type":"tuple","internalType":"struct Governor.ProposalCore","components":[{"name":"author","type":"address","internalType":"address"},{"name":"exists","type":"bool","internalType":"bool"},{"name":"description","type":"string","internalType":"string"},{"name":"targetMetadata","type":"tuple","internalType":"struct Governor.TargetMetadata","components":[{"name":"targetAddress","type":"address","internalType":"address"}]},{"name":"safeMetadata","type":"tuple","internalType":"struct Governor.SafeMetadata","components":[{"name":"signers","type":"address[]","internalType":"address[]"},{"name":"threshold","type":"uint256","internalType":"uint256"}]},{"name":"fieldsMetadata","type":"tuple","internalType":"struct Governor.FieldsMetadata","components":[{"name":"addressArray","type":"address[]","internalType":"address[]"},{"name":"stringArray","type":"string[]","internalType":"string[]"},{"name":"uintArray","type":"uint256[]","internalType":"uint256[]"}]}]}],"stateMutability":"view"},{"type":"function","name":"getProposalComments","inputs":[{"name":"proposalId","type":"uint256","internalType":"uint256"}],"outputs":[{"name":"","type":"uint256[]","internalType":"uint256[]"}],"stateMutability":"view"},{"type":"function","name":"getProposalsWithThisManyForVotes","inputs":[{"name":"forVotes","type":"uint256","internalType":"uint256"}],"outputs":[{"name":"proposalsWithThisManyForVotes","type":"uint256[]","internalType":"uint256[]"}],"stateMutability":"view"},{"type":"function","name":"getRankIndex","inputs":[{"name":"rank","type":"uint256","internalType":"uint256"}],"outputs":[{"name":"rankIndex","type":"uint256","internalType":"uint256"}],"stateMutability":"view"},{"type":"function","name":"getSortedRanks","inputs":[],"outputs":[{"name":"sortedRanksArray","type":"uint256[]","internalType":"uint256[]"}],"stateMutability":"view"},{"type":"function","name":"hashComment","inputs":[{"name":"commentObj","type":"tuple","internalType":"struct GovernorEngagement.CommentCore","components":[{"name":"author","type":"address","internalType":"address"},{"name":"timestamp","type":"uint256","internalType":"uint256"},{"name":"proposalId","type":"uint256","internalType":"uint256"},{"name":"commentContent","type":"string","internalType":"string"}]}],"outputs":[{"name":"","type":"uint256","internalType":"uint256"}],"stateMutability":"pure"},{"type":"function","name":"hashProposal","inputs":[{"name":"proposal","type":"tuple","internalType":"struct Governor.ProposalCore","components":[{"name":"author","type":"address","internalType":"address"},{"name":"exists","type":"bool","internalType":"bool"},{"name":"description","type":"string","internalType":"string"},{"name":"targetMetadata","type":"tuple","internalType":"struct Governor.TargetMetadata","components":[{"name":"targetAddress","type":"address","internalType":"address"}]},{"name":"safeMetadata","type":"tuple","internalType":"struct Governor.SafeMetadata","components":[{"name":"signers","type":"address[]","internalType":"address[]"},{"name":"threshold","type":"uint256","internalType":"uint256"}]},{"name":"fieldsMetadata","type":"tuple","internalType":"struct Governor.FieldsMetadata","components":[{"name":"addressArray","type":"address[]","internalType":"address[]"},{"name":"stringArray","type":"string[]","internalType":"string[]"},{"name":"uintArray","type":"uint256[]","internalType":"uint256[]"}]}]}],"outputs":[{"name":"","type":"uint256","internalType":"uint256"}],"stateMutability":"pure"},{"type":"function","name":"isOrIsBelowTiedRank","inputs":[{"name":"idx","type":"uint256","internalType":"uint256"}],"outputs":[{"name":"atOrBelowTiedRank","type":"bool","internalType":"bool"}],"stateMutability":"view"},{"type":"function","name":"jkLabsSplitDestination","inputs":[],"outputs":[{"name":"","type":"address","internalType":"address"}],"stateMutability":"view"},{"type":"function","name":"maxProposalCount","inputs":[],"outputs":[{"name":"","type":"uint256","internalType":"uint256"}],"stateMutability":"view"},{"type":"function","name":"metadataFieldsSchema","inputs":[],"outputs":[{"name":"","type":"string","internalType":"string"}],"stateMutability":"view"},{"type":"function","name":"name","inputs":[],"outputs":[{"name":"","type":"string","internalType":"string"}],"stateMutability":"view"},{"type":"function","name":"numAllowedProposalSubmissions","inputs":[],"outputs":[{"name":"","type":"uint256","internalType":"uint256"}],"stateMutability":"view"},{"type":"function","name":"numSubmissions","inputs":[{"name":"","type":"address","internalType":"address"}],"outputs":[{"name":"","type":"uint256","internalType":"uint256"}],"stateMutability":"view"},{"type":"function","name":"officialRewardsModule","inputs":[],"outputs":[{"name":"","type":"address","internalType":"contract RewardsModule"}],"stateMutability":"view"},{"type":"function","name":"payPerVote","inputs":[],"outputs":[{"name":"","type":"uint256","internalType":"uint256"}],"stateMutability":"view"},{"type":"function","name":"percentageToCreator","inputs":[],"outputs":[{"name":"","type":"uint256","internalType":"uint256"}],"stateMutability":"view"},{"type":"function","name":"prompt","inputs":[],"outputs":[{"name":"","type":"string","internalType":"string"}],"stateMutability":"view"},{"type":"function","name":"proposalAddressVotes","inputs":[{"name":"proposalId","type":"uint256","internalType":"uint256"},{"name":"userAddress","type":"address","internalType":"address"}],"outputs":[{"name":"forVotes","type":"uint256","internalType":"uint256"},{"name":"againstVotes","type":"uint256","internalType":"uint256"}],"stateMutability":"view"},{"type":"function","name":"proposalAddressesHaveVoted","inputs":[{"name":"proposalId","type":"uint256","internalType":"uint256"}],"outputs":[{"name":"","type":"address[]","internalType":"address[]"}],"stateMutability":"view"},{"type":"function","name":"proposalAuthors","inputs":[{"name":"","type":"uint256","internalType":"uint256"}],"outputs":[{"name":"","type":"address","internalType":"address"}],"stateMutability":"view"},{"type":"function","name":"proposalComments","inputs":[{"name":"","type":"uint256","internalType":"uint256"},{"name":"","type":"uint256","internalType":"uint256"}],"outputs":[{"name":"","type":"uint256","internalType":"uint256"}],"stateMutability":"view"},{"type":"function","name":"proposalIds","inputs":[{"name":"","type":"uint256","internalType":"uint256"}],"outputs":[{"name":"","type":"uint256","internalType":"uint256"}],"stateMutability":"view"},{"type":"function","name":"proposalIsDeleted","inputs":[{"name":"","type":"uint256","internalType":"uint256"}],"outputs":[{"name":"","type":"bool","internalType":"bool"}],"stateMutability":"view"},{"type":"function","name":"proposalVotes","inputs":[{"name":"proposalId","type":"uint256","internalType":"uint256"}],"outputs":[{"name":"forVotes","type":"uint256","internalType":"uint256"},{"name":"againstVotes","type":"uint256","internalType":"uint256"}],"stateMutability":"view"},{"type":"function","name":"proposalVotesStructs","inputs":[{"name":"","type":"uint256","internalType":"uint256"}],"outputs":[{"name":"proposalVoteCounts","type":"tuple","internalType":"struct GovernorCountingSimple.VoteCounts","components":[{"name":"forVotes","type":"uint256","internalType":"uint256"},{"name":"againstVotes","type":"uint256","internalType":"uint256"}]}],"stateMutability":"view"},{"type":"function","name":"proposals","inputs":[{"name":"","type":"uint256","internalType":"uint256"}],"outputs":[{"name":"author","type":"address","internalType":"address"},{"name":"exists","type":"bool","internalType":"bool"},{"name":"description","type":"string","internalType":"string"},{"name":"targetMetadata","type":"tuple","internalType":"struct Governor.TargetMetadata","components":[{"name":"targetAddress","type":"address","internalType":"address"}]},{"name":"safeMetadata","type":"tuple","internalType":"struct Governor.SafeMetadata","components":[{"name":"signers","type":"address[]","internalType":"address[]"},{"name":"threshold","type":"uint256","internalType":"uint256"}]},{"name":"fieldsMetadata","type":"tuple","internalType":"struct Governor.FieldsMetadata","components":[{"name":"addressArray","type":"address[]","internalType":"address[]"},{"name":"stringArray","type":"string[]","internalType":"string[]"},{"name":"uintArray","type":"uint256[]","internalType":"uint256[]"}]}],"stateMutability":"view"},{"type":"function","name":"propose","inputs":[{"name":"proposal","type":"tuple","internalType":"struct Governor.ProposalCore","components":[{"name":"author","type":"address","internalType":"address"},{"name":"exists","type":"bool","internalType":"bool"},{"name":"description","type":"string","internalType":"string"},{"name":"targetMetadata","type":"tuple","internalType":"struct Governor.TargetMetadata","components":[{"name":"targetAddress","type":"address","internalType":"address"}]},{"name":"safeMetadata","type":"tuple","internalType":"struct Governor.SafeMetadata","components":[{"name":"signers","type":"address[]","internalType":"address[]"},{"name":"threshold","type":"uint256","internalType":"uint256"}]},{"name":"fieldsMetadata","type":"tuple","internalType":"struct Governor.FieldsMetadata","components":[{"name":"addressArray","type":"address[]","internalType":"address[]"},{"name":"stringArray","type":"string[]","internalType":"string[]"},{"name":"uintArray","type":"uint256[]","internalType":"uint256[]"}]}]},{"name":"proof","type":"bytes32[]","internalType":"bytes32[]"}],"outputs":[{"name":"","type":"uint256","internalType":"uint256"}],"stateMutability":"payable"},{"type":"function","name":"proposeWithoutProof","inputs":[{"name":"proposal","type":"tuple","internalType":"struct Governor.ProposalCore","components":[{"name":"author","type":"address","internalType":"address"},{"name":"exists","type":"bool","internalType":"bool"},{"name":"description","type":"string","internalType":"string"},{"name":"targetMetadata","type":"tuple","internalType":"struct Governor.TargetMetadata","components":[{"name":"targetAddress","type":"address","internalType":"address"}]},{"name":"safeMetadata","type":"tuple","internalType":"struct Governor.SafeMetadata","components":[{"name":"signers","type":"address[]","internalType":"address[]"},{"name":"threshold","type":"uint256","internalType":"uint256"}]},{"name":"fieldsMetadata","type":"tuple","internalType":"struct Governor.FieldsMetadata","components":[{"name":"addressArray","type":"address[]","internalType":"address[]"},{"name":"stringArray","type":"string[]","internalType":"string[]"},{"name":"uintArray","type":"uint256[]","internalType":"uint256[]"}]}]}],"outputs":[{"name":"","type":"uint256","internalType":"uint256"}],"stateMutability":"payable"},{"type":"function","name":"rankLimit","inputs":[],"outputs":[{"name":"","type":"uint256","internalType":"uint256"}],"stateMutability":"view"},{"type":"function","name":"setCreatorSplitDestination","inputs":[{"name":"newCreatorSplitDestination","type":"address","internalType":"address"}],"outputs":[],"stateMutability":"nonpayable"},{"type":"function","name":"setJkLabsSplitDestination","inputs":[{"name":"newJkLabsSplitDestination","type":"address","internalType":"address"}],"outputs":[],"stateMutability":"nonpayable"},{"type":"function","name":"setOfficialRewardsModule","inputs":[{"name":"officialRewardsModule_","type":"address","internalType":"contract RewardsModule"}],"outputs":[],"stateMutability":"nonpayable"},{"type":"function","name":"setSubmissionMerkleRoot","inputs":[{"name":"newSubmissionMerkleRoot","type":"bytes32","internalType":"bytes32"}],"outputs":[],"stateMutability":"nonpayable"},{"type":"function","name":"setVotingMerkleRoot","inputs":[{"name":"newVotingMerkleRoot","type":"bytes32","internalType":"bytes32"}],"outputs":[],"stateMutability":"nonpayable"},{"type":"function","name":"sortedRanks","inputs":[{"name":"","type":"uint256","internalType":"uint256"}],"outputs":[{"name":"","type":"uint256","internalType":"uint256"}],"stateMutability":"view"},{"type":"function","name":"sortingEnabled","inputs":[],"outputs":[{"name":"","type":"uint256","internalType":"uint256"}],"stateMutability":"view"},{"type":"function","name":"state","inputs":[],"outputs":[{"name":"","type":"uint8","internalType":"enum Governor.ContestState"}],"stateMutability":"view"},{"type":"function","name":"submissionMerkleRoot","inputs":[],"outputs":[{"name":"","type":"bytes32","internalType":"bytes32"}],"stateMutability":"view"},{"type":"function","name":"totalVotesCast","inputs":[],"outputs":[{"name":"","type":"uint256","internalType":"uint256"}],"stateMutability":"view"},{"type":"function","name":"validateProposalData","inputs":[{"name":"proposal","type":"tuple","internalType":"struct Governor.ProposalCore","components":[{"name":"author","type":"address","internalType":"address"},{"name":"exists","type":"bool","internalType":"bool"},{"name":"description","type":"string","internalType":"string"},{"name":"targetMetadata","type":"tuple","internalType":"struct Governor.TargetMetadata","components":[{"name":"targetAddress","type":"address","internalType":"address"}]},{"name":"safeMetadata","type":"tuple","internalType":"struct Governor.SafeMetadata","components":[{"name":"signers","type":"address[]","internalType":"address[]"},{"name":"threshold","type":"uint256","internalType":"uint256"}]},{"name":"fieldsMetadata","type":"tuple","internalType":"struct Governor.FieldsMetadata","components":[{"name":"addressArray","type":"address[]","internalType":"address[]"},{"name":"stringArray","type":"string[]","internalType":"string[]"},{"name":"uintArray","type":"uint256[]","internalType":"uint256[]"}]}]}],"outputs":[],"stateMutability":"view"},{"type":"function","name":"verifyProposer","inputs":[{"name":"account","type":"address","internalType":"address"},{"name":"proof","type":"bytes32[]","internalType":"bytes32[]"}],"outputs":[],"stateMutability":"nonpayable"},{"type":"function","name":"verifyVoter","inputs":[{"name":"account","type":"address","internalType":"address"},{"name":"totalVotes","type":"uint256","internalType":"uint256"},{"name":"proof","type":"bytes32[]","internalType":"bytes32[]"}],"outputs":[],"stateMutability":"nonpayable"},{"type":"function","name":"version","inputs":[],"outputs":[{"name":"","type":"string","internalType":"string"}],"stateMutability":"pure"},{"type":"function","name":"voteStart","inputs":[],"outputs":[{"name":"","type":"uint256","internalType":"uint256"}],"stateMutability":"view"},{"type":"function","name":"votingDelay","inputs":[],"outputs":[{"name":"","type":"uint256","internalType":"uint256"}],"stateMutability":"view"},{"type":"function","name":"votingMerkleRoot","inputs":[],"outputs":[{"name":"","type":"bytes32","internalType":"bytes32"}],"stateMutability":"view"},{"type":"function","name":"votingPeriod","inputs":[],"outputs":[{"name":"","type":"uint256","internalType":"uint256"}],"stateMutability":"view"},{"type":"event","name":"CommentCreated","inputs":[{"name":"commentId","type":"uint256","indexed":false,"internalType":"uint256"}],"anonymous":false},{"type":"event","name":"CommentsDeleted","inputs":[{"name":"commentIds","type":"uint256[]","indexed":false,"internalType":"uint256[]"}],"anonymous":false},{"type":"event","name":"ContestCanceled","inputs":[],"anonymous":false},{"type":"event","name":"CreatorPaymentReleased","inputs":[{"name":"to","type":"address","indexed":false,"internalType":"address"},{"name":"amount","type":"uint256","indexed":false,"internalType":"uint256"}],"anonymous":false},{"type":"event","name":"JkLabsPaymentReleased","inputs":[{"name":"to","type":"address","indexed":false,"internalType":"address"},{"name":"amount","type":"uint256","indexed":false,"internalType":"uint256"}],"anonymous":false},{"type":"event","name":"JokeraceCreated","inputs":[{"name":"version","type":"string","indexed":false,"internalType":"string"},{"name":"name","type":"string","indexed":false,"internalType":"string"},{"name":"prompt","type":"string","indexed":false,"internalType":"string"},{"name":"creator","type":"address","indexed":false,"internalType":"address"},{"name":"contestStart","type":"uint256","indexed":false,"internalType":"uint256"},{"name":"votingDelay","type":"uint256","indexed":false,"internalType":"uint256"},{"name":"votingPeriod","type":"uint256","indexed":false,"internalType":"uint256"}],"anonymous":false},{"type":"event","name":"OfficialRewardsModuleSet","inputs":[{"name":"oldOfficialRewardsModule","type":"address","indexed":false,"internalType":"contract RewardsModule"},{"name":"newOfficialRewardsModule","type":"address","indexed":false,"internalType":"contract RewardsModule"}],"anonymous":false},{"type":"event","name":"ProposalCreated","inputs":[{"name":"proposalId","type":"uint256","indexed":false,"internalType":"uint256"},{"name":"proposer","type":"address","indexed":false,"internalType":"address"},{"name":"proposalDescription","type":"string","indexed":false,"internalType":"string"}],"anonymous":false},{"type":"event","name":"ProposalsDeleted","inputs":[{"name":"proposalIds","type":"uint256[]","indexed":false,"internalType":"uint256[]"}],"anonymous":false},{"type":"event","name":"VoteCast","inputs":[{"name":"voter","type":"address","indexed":true,"internalType":"address"},{"name":"proposalId","type":"uint256","indexed":false,"internalType":"uint256"},{"name":"support","type":"uint8","indexed":false,"internalType":"uint8"},{"name":"numVotes","type":"uint256","indexed":false,"internalType":"uint256"}],"anonymous":false},{"type":"error","name":"AddressFieldMetadataArrayTooLong","inputs":[]},{"type":"error","name":"AddressNotPermissionedToSubmit","inputs":[]},{"type":"error","name":"AuthorIsNotSender","inputs":[{"name":"author","type":"address","internalType":"address"},{"name":"sender","type":"address","internalType":"address"}]},{"type":"error","name":"CannotCommentWhenCompletedOrCanceled","inputs":[]},{"type":"error","name":"CannotDeleteWhenCompletedOrCanceled","inputs":[]},{"type":"error","name":"CannotUpdateWhenCompletedOrCanceled","inputs":[]},{"type":"error","name":"CannotVoteLessThanOneVoteInPayPerVote","inputs":[]},{"type":"error","name":"CannotVoteOnDeletedProposal","inputs":[]},{"type":"error","name":"ContestAlreadyCanceled","inputs":[]},{"type":"error","name":"ContestMustBeActiveToVote","inputs":[{"name":"currentState","type":"uint8","internalType":"enum Governor.ContestState"}]},{"type":"error","name":"ContestMustBeQueuedToPropose","inputs":[{"name":"currentState","type":"uint8","internalType":"enum Governor.ContestState"}]},{"type":"error","name":"ContestSubmissionLimitReached","inputs":[{"name":"maxProposalCount","type":"uint256","internalType":"uint256"}]},{"type":"error","name":"DownvotingNotEnabled","inputs":[]},{"type":"error","name":"DuplicateSubmission","inputs":[{"name":"proposalId","type":"uint256","internalType":"uint256"}]},{"type":"error","name":"EmptyProposalDescription","inputs":[]},{"type":"error","name":"IncorrectCostSent","inputs":[{"name":"msgValue","type":"uint256","internalType":"uint256"},{"name":"costToVote","type":"uint256","internalType":"uint256"}]},{"type":"error","name":"IndexHasNotBeenPopulated","inputs":[]},{"type":"error","name":"InvalidVoteType","inputs":[]},{"type":"error","name":"MoreThanOneProposalWithThisManyVotes","inputs":[]},{"type":"error","name":"NeedAtLeastOneVoteToVote","inputs":[]},{"type":"error","name":"NeedToSubmitWithProofFirst","inputs":[]},{"type":"error","name":"NeedToVoteWithProofFirst","inputs":[]},{"type":"error","name":"NotEnoughVotesLeft","inputs":[]},{"type":"error","name":"NotInMerkle","inputs":[]},{"type":"error","name":"OnlyCreatorCanAmend","inputs":[]},{"type":"error","name":"OnlyCreatorCanDelete","inputs":[]},{"type":"error","name":"OnlyCreatorCanSetRewardsModule","inputs":[]},{"type":"error","name":"OnlyCreatorOrAuthorCanDeleteComments","inputs":[{"name":"failedToDeleteCommentId","type":"uint256","internalType":"uint256"}]},{"type":"error","name":"OnlyCreatorOrJkLabsCanCancel","inputs":[]},{"type":"error","name":"OnlyJkLabsCanAmend","inputs":[]},{"type":"error","name":"PayPerVoteMustBeEnabledForAnyoneCanVote","inputs":[]},{"type":"error","name":"RankCannotBeZero","inputs":[]},{"type":"error","name":"RankIsNotInSortedRanks","inputs":[]},{"type":"error","name":"SenderSubmissionLimitReached","inputs":[{"name":"numAllowedProposalSubmissions","type":"uint256","internalType":"uint256"}]},{"type":"error","name":"SortingAndDownvotingCannotBothBeEnabled","inputs":[]},{"type":"error","name":"StringFieldMetadataArrayTooLong","inputs":[]},{"type":"error","name":"UintFieldMetadataArrayTooLong","inputs":[]},{"type":"error","name":"UnexpectedMetadata","inputs":[{"name":"unexpectedMetadata","type":"uint8","internalType":"enum Governor.Metadatas"}]},{"type":"error","name":"ZeroSignersInSafeMetadata","inputs":[]},{"type":"error","name":"ZeroThresholdInSafeMetadata","inputs":[]}],"bytecode":{"object":"0x60806040523480156200001157600080fd5b50604051620058303803806200583083398101604081905262000034916200033c565b805160c081015160e09091015160009190915560015560038390556004829055848482600562000065848262000570565b50600662000074838262000570565b5060078054336001600160a01b03199182161790915581518051600855602080820151600955604080830151600a55606080840151600b556080840151600c5560a0840151600d55610100840151600e55610120840151600f5561014084015160105561016090930151601155908401516012805485166001600160a01b0392831617905590840151601380549094169116179091558101516014906200011c908262000570565b5060408051808201825260048152631a17199b60e11b60208083019190915283518051918101519084015193517f9a9bca21e4e51607db64fbdbcd7b2284a909c6a8969821f0d161efbdcae70160946200017e9493899389933393906200066a565b60405180910390a15050815160c0015160011490508015620001a55750805160a001516001145b15620001c457604051636bff10c960e01b815260040160405180910390fd5b81158015620001d7575080516101600151155b15620001f6576040516397b6be7d60e01b815260040160405180910390fd5b5050505050620006d9565b634e487b7160e01b600052604160045260246000fd5b604051608081016001600160401b03811182821017156200023c576200023c62000201565b60405290565b60405161018081016001600160401b03811182821017156200023c576200023c62000201565b60005b83811015620002855781810151838201526020016200026b565b50506000910152565b600082601f830112620002a057600080fd5b81516001600160401b0380821115620002bd57620002bd62000201565b604051601f8301601f19908116603f01168101908282118183101715620002e857620002e862000201565b816040528381528660208588010111156200030257600080fd5b6200031584602083016020890162000268565b9695505050505050565b80516001600160a01b03811681146200033757600080fd5b919050565b600080600080600060a086880312156200035557600080fd5b85516001600160401b03808211156200036d57600080fd5b6200037b89838a016200028e565b965060208801519150808211156200039257600080fd5b620003a089838a016200028e565b955060408801519450606088015193506080880151915080821115620003c557600080fd5b908701908189036101e0811215620003dc57600080fd5b620003e662000217565b61018080831215620003f757600080fd5b6200040162000242565b9250845183526020850151602084015260408501516040840152606085015160608401526080850151608084015260a085015160a084015260c085015160c084015260e085015160e08401526101008086015181850152506101208086015181850152506101408086015181850152506101608086015181850152508282526200048d8186016200031f565b602083015250620004a26101a085016200031f565b60408201526101c0840151915082821115620004bd57600080fd5b620004cb8b8386016200028e565b6060820152809450505050509295509295909350565b600181811c90821680620004f657607f821691505b6020821081036200051757634e487b7160e01b600052602260045260246000fd5b50919050565b601f8211156200056b57600081815260208120601f850160051c81016020861015620005465750805b601f850160051c820191505b81811015620005675782815560010162000552565b5050505b505050565b81516001600160401b038111156200058c576200058c62000201565b620005a4816200059d8454620004e1565b846200051d565b602080601f831160018114620005dc5760008415620005c35750858301515b600019600386901b1c1916600185901b17855562000567565b600085815260208120601f198616915b828110156200060d57888601518255948401946001909101908401620005ec565b50858210156200062c5787850151600019600388901b60f8161c191681555b5050505050600190811b01905550565b600081518084526200065681602086016020860162000268565b601f01601f19169290920160200192915050565b60e0815260006200067f60e083018a6200063c565b828103602084015262000693818a6200063c565b90508281036040840152620006a981896200063c565b6001600160a01b039790971660608401525050608081019390935260a083019190915260c0909101529392505050565b61514780620006e96000396000f3fe6080604052600436106104e05760003560e01c806375e509c511610281578063c19d93fb1161015a578063e11db9d8116100cc578063f4f3d7ec11610085578063f4f3d7ec14610f87578063f5c3641114610fa7578063f61736f414610fc7578063f79c017214610fe7578063f823f11014611017578063fb9bf8d41461102a57600080fd5b8063e11db9d814610eea578063ea8a1af014610eff578063edcd1be414610f14578063eef18e1714610f2a578063efa90d3614610f52578063f0a7db0a14610f6757600080fd5b8063d140d9f01161011e578063d140d9f014610e32578063d798902514610e52578063daf762db14610e72578063dd96a19d14610e92578063dea5f6a614610ea8578063e031535b14610ed557600080fd5b8063c19d93fb14610d7e578063c7f758a814610da0578063c9a1b6b214610dcd578063cb85395014610ded578063cbdc27cb14610e1d57600080fd5b80639ba197af116101f3578063aec116b6116101b7578063aec116b614610cbd578063b323580d14610cf3578063b382543f14610d13578063b66d1da314610d28578063bddc164114610d48578063c05f410414610d5e57600080fd5b80639ba197af14610c00578063a1ac6cb214610c2d578063ab5e694714610c5a578063ac67f80114610c6d578063ae66b8ad14610c8d57600080fd5b80638ebb4c15116102455780638ebb4c1514610b2b5780639174778c14610b5b578063930de97914610b7b578063946369b514610bab5780639b338aa014610bc05780639b644a2314610be057600080fd5b806375e509c514610a9d578063785ddfe514610aca5780637c65d71114610aea5780637de418d514610aff578063832009af14610b1557600080fd5b80633932abb1116103be578063544c7bb41161033057806360ed97a9116102e957806360ed97a914610a0a57806365f1626314610a1f5780636e4eb81014610a325780636ed815ad14610a525780636fd3636b14610a68578063711effc814610a7d57600080fd5b8063544c7bb414610928578063544ffc9c1461094857806354fd4d50146109925780635c7107d8146109bf5780635cb718a1146109df57806360506ff6146109f457600080fd5b80634a587ad4116103825780634a587ad41461087a5780634d24a67f1461089a57806350a5e524146108af57806350c4b616146108d257806351a41dec146108f2578063531bd8121461090857600080fd5b80633932abb1146107f75780633f9942ff1461080d5780633fb57c9214610827578063409fd03014610847578063419c533c1461086757600080fd5b8063102613d811610457578063262e59e91161041b578063262e59e91461073e5780632c39805f14610753578063325cc6d91461077557806332763c2214610795578063347cf665146107c5578063366ecf5b146107e157600080fd5b8063102613d81461069a5780631242b737146106ba578063146230f6146106dc5780631805c523146106fe57806320b3e8451461071e57600080fd5b80630414126a116104a95780630414126a146105a457806305846cae146105ba57806306fdde03146105da578063070dc5d9146105fc5780630800e3001461064d5780630aa25e441461067a57600080fd5b80624114a8146104e5578063013cf08b1461050e57806302a251a31461054057806302d05d3f1461055657806303f7eed61461058e575b600080fd5b3480156104f157600080fd5b506104fb60085481565b6040519081526020015b60405180910390f35b34801561051a57600080fd5b5061052e61052936600461410a565b611040565b6040516105059695949392919061429a565b34801561054c57600080fd5b506104fb600a5481565b34801561056257600080fd5b50600754610576906001600160a01b031681565b6040516001600160a01b039091168152602001610505565b34801561059a57600080fd5b506104fb60115481565b3480156105b057600080fd5b506104fb60015481565b3480156105c657600080fd5b506104fb6105d536600461410a565b61132b565b3480156105e657600080fd5b506105ef61134c565b60405161050591906142f4565b34801561060857600080fd5b5061064061061736600461410a565b602260209081526000918252604091829020825180840190935280548352600101549082015281565b6040516105059190614307565b34801561065957600080fd5b5061066d61066836600461410a565b6113da565b604051610505919061431e565b34801561068657600080fd5b5061057661069536600461410a565b6114ee565b3480156106a657600080fd5b50601354610576906001600160a01b031681565b3480156106c657600080fd5b506106cf611518565b6040516105059190614367565b3480156106e857600080fd5b506106fc6106f736600461439f565b611570565b005b34801561070a57600080fd5b506104fb6107193660046144bb565b61161a565b34801561072a57600080fd5b506106fc610739366004614545565b611797565b34801561074a57600080fd5b506104fb611806565b34801561075f57600080fd5b50610768611822565b6040516105059190614599565b34801561078157600080fd5b506104fb61079036600461410a565b611883565b3480156107a157600080fd5b506107b56107b03660046145f6565b611893565b6040519015158152602001610505565b3480156107d157600080fd5b506104fb678ac7230489e8000081565b3480156107ed57600080fd5b506104fb60005481565b34801561080357600080fd5b506104fb60095481565b34801561081957600080fd5b506018546107b59060ff1681565b34801561083357600080fd5b506104fb61084236600461410a565b611992565b34801561085357600080fd5b506104fb610862366004614666565b6119a2565b6104fb610875366004614722565b6119d3565b34801561088657600080fd5b50601254610576906001600160a01b031681565b3480156108a657600080fd5b506104fb611a41565b3480156108bb57600080fd5b506108c4611a50565b604051610505929190614792565b3480156108de57600080fd5b506105766108ed36600461410a565b611b56565b3480156108fe57600080fd5b506104fb60105481565b34801561091457600080fd5b506106fc6109233660046147fb565b611b66565b34801561093457600080fd5b506106fc61094336600461410a565b611bdb565b34801561095457600080fd5b5061097d61096336600461410a565b600090815260226020526040902080546001909101549091565b60408051928352602083019190915201610505565b34801561099e57600080fd5b506040805180820190915260048152631a17199b60e11b60208201526105ef565b3480156109cb57600080fd5b506104fb6109da36600461410a565b611c68565b3480156109eb57600080fd5b506106cf611d6f565b348015610a0057600080fd5b506104fb600d5481565b348015610a1657600080fd5b506105ef611dc5565b6104fb610a2d366004614856565b611dd2565b348015610a3e57600080fd5b5061097d610a4d36600461488b565b611e70565b348015610a5e57600080fd5b506104fb600f5481565b348015610a7457600080fd5b506106cf611ea5565b348015610a8957600080fd5b506104fb610a983660046148bb565b611efb565b348015610aa957600080fd5b506104fb610ab836600461439f565b601a6020526000908152604090205481565b348015610ad657600080fd5b50602454610576906001600160a01b031681565b348015610af657600080fd5b506105ef611f2c565b348015610b0b57600080fd5b506104fb60205481565b348015610b2157600080fd5b506104fb600b5481565b348015610b3757600080fd5b50610b4b610b4636600461410a565b611f39565b60405161050594939291906148dd565b348015610b6757600080fd5b506107b5610b7636600461410a565b611ff6565b348015610b8757600080fd5b506107b5610b9636600461439f565b601e6020526000908152604090205460ff1681565b348015610bb757600080fd5b5061076861209c565b348015610bcc57600080fd5b506106fc610bdb36600461439f565b6120fc565b348015610bec57600080fd5b506104fb610bfb36600461410a565b6121af565b348015610c0c57600080fd5b506104fb610c1b36600461410a565b60009081526023602052604090205490565b348015610c3957600080fd5b506104fb610c4836600461439f565b60216020526000908152604090205481565b6104fb610c6836600461492c565b6121bf565b348015610c7957600080fd5b506106fc610c883660046149ee565b612239565b348015610c9957600080fd5b506107b5610ca836600461410a565b60296020526000908152604090205460ff1681565b348015610cc957600080fd5b506104fb610cd836600461439f565b6001600160a01b031660009081526021602052604090205490565b348015610cff57600080fd5b50610768610d0e36600461410a565b6123d0565b348015610d1f57600080fd5b506104fb600a81565b348015610d3457600080fd5b506104fb610d4336600461410a565b612442565b348015610d5457600080fd5b506104fb60035481565b348015610d6a57600080fd5b506106cf610d7936600461410a565b6124a2565b348015610d8a57600080fd5b50610d93612504565b6040516105059190614a38565b348015610dac57600080fd5b50610dc0610dbb36600461410a565b612555565b6040516105059190614a52565b348015610dd957600080fd5b506106cf610de836600461410a565b612875565b348015610df957600080fd5b506107b5610e0836600461439f565b601f6020526000908152604090205460ff1681565b348015610e2957600080fd5b506107686128d5565b348015610e3e57600080fd5b506106fc610e4d366004614dc1565b612a05565b348015610e5e57600080fd5b506104fb610e6d366004614dc1565b612bec565b348015610e7e57600080fd5b506106fc610e8d36600461410a565b612bff565b348015610e9e57600080fd5b506104fb60045481565b348015610eb457600080fd5b506104fb610ec336600461439f565b601d6020526000908152604090205481565b348015610ee157600080fd5b506104fb612c8c565b348015610ef657600080fd5b506106cf612c9e565b348015610f0b57600080fd5b506106fc612cf4565b348015610f2057600080fd5b506104fb600e5481565b348015610f3657600080fd5b5061057673dc652c746a8f85e18ce632d97c6118e8a52fa73881565b348015610f5e57600080fd5b506106cf612db8565b348015610f7357600080fd5b506106fc610f82366004614df5565b612e0e565b348015610f9357600080fd5b506106fc610fa236600461439f565b612f8d565b348015610fb357600080fd5b506104fb610fc236600461410a565b613012565b348015610fd357600080fd5b506104fb610fe23660046148bb565b613022565b348015610ff357600080fd5b506107b561100236600461410a565b60176020526000908152604090205460ff1681565b6104fb611025366004614e36565b61303e565b34801561103657600080fd5b506104fb600c5481565b601960205260009081526040902080546001820180546001600160a01b03831693600160a01b90930460ff1692919061107890614e91565b80601f01602080910402602001604051908101604052809291908181526020018280546110a490614e91565b80156110f15780601f106110c6576101008083540402835291602001916110f1565b820191906000526020600020905b8154815290600101906020018083116110d457829003601f168201915b5050604080516020808201835260028801546001600160a01b03168252825160038901805460609381028301840186529482018581529899939893975090955093508492849184018282801561117057602002820191906000526020600020905b81546001600160a01b03168152600190910190602001808311611152575b505050505081526020016001820154815250509080600501604051806060016040529081600082018054806020026020016040519081016040528092919081815260200182805480156111ec57602002820191906000526020600020905b81546001600160a01b031681526001909101906020018083116111ce575b5050505050815260200160018201805480602002602001604051908101604052809291908181526020016000905b828210156112c657838290600052602060002001805461123990614e91565b80601f016020809104026020016040519081016040528092919081815260200182805461126590614e91565b80156112b25780601f10611287576101008083540402835291602001916112b2565b820191906000526020600020905b81548152906001019060200180831161129557829003601f168201915b50505050508152602001906001019061121a565b5050505081526020016002820180548060200260200160405190810160405280929190818152602001828054801561131d57602002820191906000526020600020905b815481526020019060010190808311611309575b505050505081525050905086565b6016818154811061133b57600080fd5b600091825260209091200154905081565b6005805461135990614e91565b80601f016020809104026020016040519081016040528092919081815260200182805461138590614e91565b80156113d25780601f106113a7576101008083540402835291602001916113d2565b820191906000526020600020905b8154815290600101906020018083116113b557829003601f168201915b505050505081565b61140e604051806080016040528060006001600160a01b031681526020016000815260200160008152602001606081525090565b600082815260276020908152604091829020825160808101845281546001600160a01b0316815260018201549281019290925260028101549282019290925260038201805491929160608401919061146590614e91565b80601f016020809104026020016040519081016040528092919081815260200182805461149190614e91565b80156114de5780601f106114b3576101008083540402835291602001916114de565b820191906000526020600020905b8154815290600101906020018083116114c157829003601f168201915b5050505050815250509050919050565b601b81815481106114fe57600080fd5b6000918252602090912001546001600160a01b0316905081565b6060601680548060200260200160405190810160405280929190818152602001828054801561156657602002820191906000526020600020905b815481526020019060010190808311611552575b5050505050905090565b6007546001600160a01b0316331461159b5760405163141dbb4960e21b815260040160405180910390fd5b60046115a5612504565b60048111156115b6576115b6614a22565b14806115da575060026115c7612504565b60048111156115d8576115d8614a22565b145b156115f8576040516398fe99a560e01b815260040160405180910390fd5b601280546001600160a01b0319166001600160a01b0392909216919091179055565b60006004611626612504565b600481111561163757611637614a22565b148061165b57506002611648612504565b600481111561165957611659614a22565b145b156116785760405162f3e73d60e81b815260040160405180910390fd5b604080516080810182523381524260208201529081018490526060810183905260006116a3826119a2565b6025805460018082019092557f401968ff42a154441da5f6c4c935ac46b8671f0e062baaa62a7545ba53bb6e4c01829055600082815260276020908152604091829020865181546001600160a01b0319166001600160a01b039091161781559086015192810192909255840151600282015560608401519192508391600382019061172e9082614f13565b505050600085815260286020908152604080832080546001810182559084529190922001829055517f5a1a930fed43f34b3a07db782ebcac28a661c273e662bb98458cfba5a8ccd220906117859083815260200190565b60405180910390a19150505b92915050565b6001600160a01b0383166000908152601f602052604090205460ff16611801576003546000036117c657505050565b6117dc83678ac7230489e8000084846000611893565b506001600160a01b0383166000908152601f60205260409020805460ff191660011790555b505050565b6000600a54611813612c8c565b61181d9190614fe8565b905090565b6060601c80548060200260200160405190810160405280929190818152602001828054801561156657602002820191906000526020600020905b81546001600160a01b0316815260019091019060200180831161185c575050505050905090565b6002818154811061133b57600080fd5b6040516bffffffffffffffffffffffff19606087901b1660208201526034810185905260009081906054016040516020818303038152906040528051906020012090506000836119235761191e86868080602002602001604051908101604052809392919081815260200183836020028082843760009201919091525050600354915085905061307e565b611964565b61196486868080602002602001604051908101604052809392919081815260200183836020028082843760009201919091525050600454915085905061307e565b9050806119845760405163452c2df160e11b815260040160405180910390fd5b506001979650505050505050565b6026818154811061133b57600080fd5b6000816040516020016119b5919061431e565b60408051601f19818403018152919052805160209091012092915050565b6000806119e1600186613094565b60008981526017602052604090205490915060ff1615611a14576040516358f1119560e01b815260040160405180910390fd5b611a2033878686611b66565b611a2981613160565b611a3588338988613267565b98975050505050505050565b611a4d60026001614fe8565b81565b6060806000611a5d612db8565b9050600081516001600160401b03811115611a7a57611a7a6143bc565b604051908082528060200260200182016040528015611abf57816020015b6040805180820190915260008082526020820152815260200190600190039081611a985790505b50905060005b8251811015611b4c5760226000848381518110611ae457611ae4614ffb565b6020026020010151815260200190815260200160002060000160405180604001604052908160008201548152602001600182015481525050828281518110611b2e57611b2e614ffb565b60200260200101819052508080611b4490615011565b915050611ac5565b5090939092509050565b601c81815481106114fe57600080fd5b60045415801590611b9057506001600160a01b0384166000908152601e602052604090205460ff16155b15611bd557611ba3848484846001611893565b506001600160a01b0384166000908152601d60209081526040808320869055601e9091529020805460ff191660011790555b50505050565b6007546001600160a01b03163314611c065760405163141dbb4960e21b815260040160405180910390fd5b6004611c10612504565b6004811115611c2157611c21614a22565b1480611c4557506002611c32612504565b6004811115611c4357611c43614a22565b145b15611c63576040516398fe99a560e01b815260040160405180910390fd5b600455565b600081600003611c8b57604051630ec90a1760e31b815260040160405180910390fd5b60028054604080516020808402820181019092528281529192600092918490830182828015611cd957602002820191906000526020600020905b815481526020019060010190808311611cc5575b5050505050905060006001905060005b83811015611d5557611d20838281518110611d0657611d06614ffb565b602002602001015160009081526023602052604090205490565b15611d4357858203611d355795945050505050565b81611d3f81615011565b9250505b80611d4d81615011565b915050611ce9565b50604051632cc2ab7360e11b815260040160405180910390fd5b606060268054806020026020016040519081016040528092919081815260200182805480156115665760200282019190600052602060002090815481526020019060010190808311611552575050505050905090565b6014805461135990614e91565b600080611de0600184613094565b60008681526017602052604090205490915060ff1615611e13576040516358f1119560e01b815260040160405180910390fd5b60045415801590611e345750336000908152601e602052604090205460ff16155b15611e525760405163126ec6d160e31b815260040160405180910390fd5b611e5b81613160565b611e6785338686613267565b95945050505050565b60008281526022602090815260408083206001600160a01b0385168452600301909152902080546001909101545b9250929050565b606060028054806020026020016040519081016040528092919081815260200182805480156115665760200282019190600052602060002090815481526020019060010190808311611552575050505050905090565b60236020528160005260406000208181548110611f1757600080fd5b90600052602060002001600091509150505481565b6006805461135990614e91565b60276020526000908152604090208054600182015460028301546003840180546001600160a01b03909416949293919291611f7390614e91565b80601f0160208091040260200160405190810160405280929190818152602001828054611f9f90614e91565b8015611fec5780601f10611fc157610100808354040283529160200191611fec565b820191906000526020600020905b815481529060010190602001808311611fcf57829003601f168201915b5050505050905084565b6002546000906120089060019061502a565b821115612028576040516365d6f35160e11b815260040160405180910390fd5b60005b612036836001614fe8565b8110156120935760016120726002838154811061205557612055614ffb565b906000526020600020015460009081526023602052604090205490565b11156120815750600192915050565b8061208b81615011565b91505061202b565b50600092915050565b6060601b805480602002602001604051908101604052809291908181526020018280548015611566576020028201919060005260206000209081546001600160a01b0316815260019091019060200180831161185c575050505050905090565b3373dc652c746a8f85e18ce632d97c6118e8a52fa738146121305760405163de07280160e01b815260040160405180910390fd5b600461213a612504565b600481111561214b5761214b614a22565b148061216f5750600261215c612504565b600481111561216d5761216d614a22565b145b1561218d576040516398fe99a560e01b815260040160405180910390fd5b601380546001600160a01b0319166001600160a01b0392909216919091179055565b6015818154811061133b57600080fd5b6000806121cd600080613094565b6003549091501561220857336000908152601f602052604090205460ff1661220857604051631f22097560e01b815260040160405180910390fd5b612214610e4d8461503d565b60006122276122228561503d565b6133ae565b905061223282613160565b9392505050565b6004612243612504565b600481111561225457612254614a22565b148061227857506002612265612504565b600481111561227657612276614a22565b145b1561229657604051631e71d28360e21b815260040160405180910390fd5b805160005b818110156123945760008382815181106122b7576122b7614ffb565b60209081029190910101516007549091506001600160a01b031633148015906122f757506000818152602760205260409020546001600160a01b03163314155b1561231d57604051635450763d60e11b8152600481018290526024015b60405180910390fd5b60008181526029602052604090205460ff16612381576000818152602960205260408120805460ff191660019081179091556026805491820181559091527f744a2cf8fd7008e3d53b67916e73460df9fa5214e3ef23dd4259ca09493a3594018190555b508061238c81615011565b91505061229b565b507f788a4349d25bc08585923ae212bce8bb346a623bce753eeecb85fd9ce58dcb4b826040516123c49190614367565b60405180910390a15050565b600081815260226020908152604091829020600281018054845181850281018501909552808552606094929383018282801561243557602002820191906000526020600020905b81546001600160a01b03168152600190910190602001808311612417575b5050505050915050919050565b60008181526023602052604081205460011461247157604051633832a15560e21b815260040160405180910390fd5b6000828152602360205260408120805490919061249057612490614ffb565b90600052602060002001549050919050565b6000818152602860209081526040918290208054835181840281018401909452808452606093928301828280156124f857602002820191906000526020600020905b8154815260200190600101908083116124e4575b50505050509050919050565b60185460009060ff16156125185750600290565b42600854106125275750600090565b42612530612c8c565b1061253b5750600390565b42612544611806565b1061254f5750600190565b50600490565b61255d613f12565b600082815260196020908152604091829020825160c08101845281546001600160a01b0381168252600160a01b900460ff1615159281019290925260018101805492939192918401916125af90614e91565b80601f01602080910402602001604051908101604052809291908181526020018280546125db90614e91565b80156126285780601f106125fd57610100808354040283529160200191612628565b820191906000526020600020905b81548152906001019060200180831161260b57829003601f168201915b5050509183525050604080516020818101835260028501546001600160a01b031682528084019190915281516003850180546060938102830184018552828501818152949095019491939092849284918401828280156126b157602002820191906000526020600020905b81546001600160a01b03168152600190910190602001808311612693575b505050505081526020016001820154815250508152602001600582016040518060600160405290816000820180548060200260200160405190810160405280929190818152602001828054801561273157602002820191906000526020600020905b81546001600160a01b03168152600190910190602001808311612713575b5050505050815260200160018201805480602002602001604051908101604052809291908181526020016000905b8282101561280b57838290600052602060002001805461277e90614e91565b80601f01602080910402602001604051908101604052809291908181526020018280546127aa90614e91565b80156127f75780601f106127cc576101008083540402835291602001916127f7565b820191906000526020600020905b8154815290600101906020018083116127da57829003601f168201915b50505050508152602001906001019061275f565b5050505081526020016002820180548060200260200160405190810160405280929190818152602001828054801561286257602002820191906000526020600020905b81548152602001906001019080831161284e575b5050509190925250505090525092915050565b6000818152602360209081526040918290208054835181840281018401909452808452606093928301828280156124f857602002820191906000526020600020908154815260200190600101908083116124e45750505050509050919050565b60606000601680548060200260200160405190810160405280929190818152602001828054801561292557602002820191906000526020600020905b815481526020019060010190808311612911575b50505050509050600081516001600160401b03811115612947576129476143bc565b604051908082528060200260200182016040528015612970578160200160208202803683370190505b50905060005b82518110156129fe576019600084838151811061299557612995614ffb565b6020026020010151815260200190815260200160002060000160009054906101000a90046001600160a01b03168282815181106129d4576129d4614ffb565b6001600160a01b0390921660209283029190910190910152806129f681615011565b915050612976565b5092915050565b80516001600160a01b03163314612a4357805160405163fbbf4d7f60e01b81526001600160a01b039091166004820152336024820152604401612314565b60005b612a5260026001614fe8565b811015612bc2576000816002811115612a6d57612a6d614a22565b90506000816002811115612a8357612a83614a22565b03612a8e5750612bb0565b6001816002811115612aa257612aa2614a22565b03612afc5760808301515151600003612ace5760405163c3b2798b60e01b815260040160405180910390fd5b826080015160200151600003612af7576040516392fb9a3560e01b815260040160405180910390fd5b612bae565b6002816002811115612b1057612b10614a22565b03612b935760a08301515151600a1015612b3d57604051631e38b1b160e11b815260040160405180910390fd5b600a8360a0015160200151511115612b685760405163a3b7dd7760e01b815260040160405180910390fd5b600a8360a0015160400151511115612af75760405163f696406560e01b815260040160405180910390fd5b8060405163d2277d4960e01b81526004016123149190615049565b505b80612bba81615011565b915050612a46565b50806040015151600003612be95760405163e182473360e01b815260040160405180910390fd5b50565b6000816040516020016119b59190614a52565b6007546001600160a01b03163314612c2a5760405163141dbb4960e21b815260040160405180910390fd5b6004612c34612504565b6004811115612c4557612c45614a22565b1480612c6957506002612c56612504565b6004811115612c6757612c67614a22565b145b15612c87576040516398fe99a560e01b815260040160405180910390fd5b600355565b600060095460085461181d9190614fe8565b606060258054806020026020016040519081016040528092919081815260200182805480156115665760200282019190600052602060002090815481526020019060010190808311611552575050505050905090565b6007546001600160a01b03163314801590612d2357503373dc652c746a8f85e18ce632d97c6118e8a52fa73814155b15612d4157604051637601acaf60e11b815260040160405180910390fd5b6000612d4b612504565b90506002816004811115612d6157612d61614a22565b03612d7f57604051636f79584d60e01b815260040160405180910390fd5b6018805460ff191660011790556040517f4cd963a081760a54f571abc0f1db4dde31b4a07d8d6da3e844b8c6f47eeaaa4290600090a150565b606060158054806020026020016040519081016040528092919081815260200182805480156115665760200282019190600052602060002090815481526020019060010190808311611552575050505050905090565b6007546001600160a01b03163314612e395760405163b8d4540960e01b815260040160405180910390fd5b6004612e43612504565b6004811115612e5457612e54614a22565b1480612e7857506002612e65612504565b6004811115612e7657612e76614a22565b145b15612e9657604051631e71d28360e21b815260040160405180910390fd5b60005b81811015612f3b576000838383818110612eb557612eb5614ffb565b60209081029290920135600081815260179093526040909220549192505060ff16612f28576000818152601760205260408120805460ff191660019081179091556016805491820181559091527fd833147d7dc355ba459fc788f669e58cfaf9dc25ddcd0702e87d69c7b5124289018190555b5080612f3381615011565b915050612e99565b50600d54158015612f4e57506000546001145b15612f5d57612f5d8282613685565b7f75a75cf5c561892f4cc5b26c1b8e933849b42238c96dd073d080d1ae96c5141660156040516123c4919061505d565b6007546001600160a01b03163314612fb857604051630f4cb1bd60e11b815260040160405180910390fd5b602480546001600160a01b038381166001600160a01b031983168117909355604080519190921680825260208201939093527f753a2cf8d360cff631674504210913e48247f8e56b3e6d2006c2103d4095999f91016123c4565b6025818154811061133b57600080fd5b60286020528160005260406000208181548110611f1757600080fd5b60008061304c600080613094565b9050613059338585611797565b613065610e4d8661503d565b60006130736122228761503d565b9050611e6782613160565b60008261308b85846136e2565b14949350505050565b600080808460018111156130aa576130aa614a22565b036130b85750600f54613137565b60018460018111156130cc576130cc614a22565b036131335760115460010361312a57670de0b6b3a7640000831015613104576040516346ddb8d160e01b815260040160405180910390fd5b613116670de0b6b3a764000084615098565b60105461312391906150ba565b9050613137565b50601054613137565b5060005b803414612232576040516372c3eaa760e01b815234600482015260248101829052604401612314565b8015612be95760006064600e546064613179919061502a565b61318390346150ba565b61318d9190615098565b905080156131f2576013546131ab906001600160a01b03168261372f565b601354604080516001600160a01b039092168252602082018390527f9df63d1c00d2e332f573be591c0579caafb256b2c5a17abcc8ad471cccda1b81910160405180910390a15b60006131fe823461502a565b905080156118015760125461321c906001600160a01b03168261372f565b600754604080516001600160a01b039092168252602082018390527f6dff55337c8458ae8c536a63869a48bc33541733422a796390c131d91f4238ed910160405180910390a1505050565b60006001613273612504565b600481111561328457613284614a22565b146132ab57613291612504565b60405163049cab4960e51b81526004016123149190614a38565b816000036132cc5760405163502e1c2960e01b815260040160405180910390fd5b6132fe85858585601d60008a6001600160a01b03166001600160a01b0316815260200190815260200160002054613848565b601c80546001810182556000919091527f0e4562a10381dec21b205ed72637e6b1b523bdd0e4d4d50af5cd23dd4500a2110180546001600160a01b031916331790556040805186815260ff851660208201529081018390526001600160a01b038516907f2c9deb38f462962eadbd85a9d3a4120503ee091f1582eaaa10aa8c6797651d299060600160405180910390a25050506001600160a01b03166000908152601d6020526040902054919050565b600060036133ba612504565b60048111156133cb576133cb614a22565b146133f2576133d8612504565b604051632889531360e01b81526004016123149190614a38565b600b54336000908152601a60205260409020540361342957600b54604051632bd6d93960e21b815260040161231491815260200190565b600c5460165460155461343c919061502a565b0361346057600c546040516302217f5360e51b815260040161231491815260200190565b600061346b83612bec565b600081815260196020526040902054909150600160a01b900460ff16156134a85760405163baffc42360e01b815260048101829052602401612314565b6015805460018181019092557f55f448fdea98c4d29eb340757ef0a66cd03dbb9538908a6a81d96026b71ec4750182905560008281526019602090815260409182902086518154928801511515600160a01b026001600160a81b03199093166001600160a01b039091161791909117815590850151859282019061352c9082614f13565b506060820151516002820180546001600160a01b0319166001600160a01b03909216919091179055608082015180518051600384019161357191839160200190613fac565b5060209182015160019091015560a0830151805180519192600585019261359b9284920190613fac565b5060208281015180516135b49260018501920190614011565b50604082015180516135d0916002840191602090910190614063565b5050336000908152601a602052604081208054600195509093509091506135f8908490614fe8565b9091555050601b80546001810182556000919091527f3ad8aa4f87544323a9d1e5dd902f40c356527a7955687113db5f9a85ad579dc10180546001600160a01b0319163390811790915560408085015190517f7585f467599d0f008985f231af99293be388626ac16ca59505c2f8f88969cd63926136779285926150d1565b60405180910390a192915050565b60005b818110156118015760008383838181106136a4576136a4614ffb565b60209081029290920135600081815260229093526040909220549192506136cd90508282613abd565b505080806136da90615011565b915050613688565b600081815b8451811015613727576137138286838151811061370657613706614ffb565b6020026020010151613bee565b91508061371f81615011565b9150506136e7565b509392505050565b8047101561377f5760405162461bcd60e51b815260206004820152601d60248201527f416464726573733a20696e73756666696369656e742062616c616e63650000006044820152606401612314565b6000826001600160a01b03168260405160006040518083038185875af1925050503d80600081146137cc576040519150601f19603f3d011682016040523d82523d6000602084013e6137d1565b606091505b50509050806118015760405162461bcd60e51b815260206004820152603a60248201527f416464726573733a20756e61626c6520746f2073656e642076616c75652c207260448201527f6563697069656e74206d617920686176652072657665727465640000000000006064820152608401612314565b60008581526022602052604090206004541580159061388857506001600160a01b038516600090815260216020526040902054613885908361502a565b83115b156138a65760405163660fa07360e11b815260040160405180910390fd5b6001600160a01b03851660009081526003820160205260408120541580156138e957506001600160a01b0386166000908152600383016020526040902060010154155b905060ff851661394157815484908390600090613907908490614fe8565b90915550506001600160a01b038616600090815260038301602052604081208054869290613936908490614fe8565b909155506139d29050565b60001960ff8616016139b957600d5460011461397057604051639755958f60e01b815260040160405180910390fd5b838260000160010160008282546139879190614fe8565b90915550506001600160a01b038616600090815260038301602052604081206001018054869290613936908490614fe8565b604051638eed55d160e01b815260040160405180910390fd5b8015613a0957600282018054600181018255600091825260209091200180546001600160a01b0319166001600160a01b0388161790555b6001600160a01b03861660009081526021602052604081208054869290613a31908490614fe8565b925050819055508360206000828254613a4a9190614fe8565b9091555050600d54158015613a6157506000546001145b15613ab45781546000613a74868361502a565b90508015613a8657613a868982613abd565b600082815260236020908152604082208054600181018255908352912001899055613ab18183613c1d565b50505b50505050505050565b600081815260236020908152604080832080548251818502810185019093528083529192909190830182828015613b1357602002820191906000526020600020905b815481526020019060010190808311613aff575b5050505050905060005b8151811015611bd55783828281518110613b3957613b39614ffb565b602002602001015103613bdc578160018351613b55919061502a565b81518110613b6557613b65614ffb565b6020026020010151602360008581526020019081526020016000208281548110613b9157613b91614ffb565b906000526020600020018190555060236000848152602001908152602001600020805480613bc157613bc16150fb565b60019003818190600052602060002001600090559055611bd5565b80613be681615011565b915050613b1d565b6000818310613c0a576000828152602084905260409020612232565b6000838152602083905260409020612232565b60028054604080516020808402820181019092528281529192600092918490830182828015613c6b57602002820191906000526020600020905b815481526020019060010190808311613c57575b5050505050905081600003613cb2575050600280546001810182556000919091527f405787fa12a823e0f2b7631cc41b3ba8828b3321ca811111fa75cd3aa3bb5ace015550565b80613cbe60018461502a565b81518110613cce57613cce614ffb565b6020026020010151831015613d24576001548203613cec5750505050565b5050600280546001810182556000919091527f405787fa12a823e0f2b7631cc41b3ba8828b3321ca811111fa75cd3aa3bb5ace015550565b611bd5848484846000805b83811015613d9957828181518110613d4957613d49614ffb565b60200260200101518503613d5e575050611bd5565b828181518110613d7057613d70614ffb565b6020026020010151851115613d8757809150613d99565b80613d9181615011565b915050613d2f565b5060008086118015613db75750600086815260236020526040902054155b90506000818015613de0575086848481518110613dd657613dd6614ffb565b6020026020010151145b613ee957613def60018661502a565b8314613e97576000613e02846001614fe8565b90505b85811015613e955784613e1960018361502a565b81518110613e2957613e29614ffb565b602002602001015160028281548110613e4457613e44614ffb565b600091825260209091200155828015613e75575087858281518110613e6b57613e6b614ffb565b6020026020010151145b15613e835760019150613e95565b80613e8d81615011565b915050613e05565b505b80158015613ea6575060015485105b15613ee957600284613eb960018861502a565b81518110613ec957613ec9614ffb565b602090810291909101810151825460018101845560009384529190922001555b8560028481548110613efd57613efd614ffb565b60009182526020909120015550505050505050565b6040518060c0016040528060006001600160a01b0316815260200160001515815260200160608152602001613f5c604051806020016040528060006001600160a01b031681525090565b8152602001613f7e604051806040016040528060608152602001600081525090565b8152602001613fa760405180606001604052806060815260200160608152602001606081525090565b905290565b828054828255906000526020600020908101928215614001579160200282015b8281111561400157825182546001600160a01b0319166001600160a01b03909116178255602090920191600190910190613fcc565b5061400d92915061409e565b5090565b828054828255906000526020600020908101928215614057579160200282015b8281111561405757825182906140479082614f13565b5091602001919060010190614031565b5061400d9291506140b3565b828054828255906000526020600020908101928215614001579160200282015b82811115614001578251825591602001919060010190614083565b5b8082111561400d576000815560010161409f565b8082111561400d5760006140c782826140d0565b506001016140b3565b5080546140dc90614e91565b6000825580601f106140ec575050565b601f016020900490600052602060002090810190612be9919061409e565b60006020828403121561411c57600080fd5b5035919050565b6000815180845260005b818110156141495760208185018101518683018201520161412d565b506000602082860101526020601f19601f83011685010191505092915050565b600081518084526020808501945080840160005b838110156141a25781516001600160a01b03168752958201959082019060010161417d565b509495945050505050565b60008151604084526141c26040850182614169565b602093840151949093019390935250919050565b600081518084526020808501945080840160005b838110156141a2578151875295820195908201906001016141ea565b600081516060845261421b6060850182614169565b9050602080840151858303828701528281518085528385019150838160051b860101848401935060005b8281101561427357601f19878303018452614261828651614123565b94860194938601939150600101614245565b506040880151955088810360408a015261428d81876141d6565b9998505050505050505050565b600060018060a01b038089168352871515602084015260c060408401526142c460c0840188614123565b81875116606085015283810360808501526142df81876141ad565b91505082810360a084015261428d8185614206565b6020815260006122326020830184614123565b815181526020808301519082015260408101611791565b6020815260018060a01b03825116602082015260208201516040820152604082015160608201526000606083015160808084015261435f60a0840182614123565b949350505050565b60208152600061223260208301846141d6565b6001600160a01b0381168114612be957600080fd5b803561439a8161437a565b919050565b6000602082840312156143b157600080fd5b81356122328161437a565b634e487b7160e01b600052604160045260246000fd5b604051606081016001600160401b03811182821017156143f4576143f46143bc565b60405290565b60405160c081016001600160401b03811182821017156143f4576143f46143bc565b604051601f8201601f191681016001600160401b0381118282101715614444576144446143bc565b604052919050565b600082601f83011261445d57600080fd5b81356001600160401b03811115614476576144766143bc565b614489601f8201601f191660200161441c565b81815284602083860101111561449e57600080fd5b816020850160208301376000918101602001919091529392505050565b600080604083850312156144ce57600080fd5b8235915060208301356001600160401b038111156144eb57600080fd5b6144f78582860161444c565b9150509250929050565b60008083601f84011261451357600080fd5b5081356001600160401b0381111561452a57600080fd5b6020830191508360208260051b8501011115611e9e57600080fd5b60008060006040848603121561455a57600080fd5b83356145658161437a565b925060208401356001600160401b0381111561458057600080fd5b61458c86828701614501565b9497909650939450505050565b6020808252825182820181905260009190848201906040850190845b818110156145da5783516001600160a01b0316835292840192918401916001016145b5565b50909695505050505050565b8035801515811461439a57600080fd5b60008060008060006080868803121561460e57600080fd5b85356146198161437a565b94506020860135935060408601356001600160401b0381111561463b57600080fd5b61464788828901614501565b909450925061465a9050606087016145e6565b90509295509295909350565b60006020828403121561467857600080fd5b81356001600160401b038082111561468f57600080fd5b90830190608082860312156146a357600080fd5b6040516080810181811083821117156146be576146be6143bc565b60405282356146cc8161437a565b8082525060208301356020820152604083013560408201526060830135828111156146f657600080fd5b6147028782860161444c565b60608301525095945050505050565b803560ff8116811461439a57600080fd5b60008060008060008060a0878903121561473b57600080fd5b8635955061474b60208801614711565b9450604087013593506060870135925060808701356001600160401b0381111561477457600080fd5b61478089828a01614501565b979a9699509497509295939492505050565b600060408083526147a5818401866141d6565b83810360208581019190915285518083528682019282019060005b818110156147ed576147dd83865180518252602090810151910152565b93830193918501916001016147c0565b509098975050505050505050565b6000806000806060858703121561481157600080fd5b843561481c8161437a565b93506020850135925060408501356001600160401b0381111561483e57600080fd5b61484a87828801614501565b95989497509550505050565b60008060006060848603121561486b57600080fd5b8335925061487b60208501614711565b9150604084013590509250925092565b6000806040838503121561489e57600080fd5b8235915060208301356148b08161437a565b809150509250929050565b600080604083850312156148ce57600080fd5b50508035926020909101359150565b60018060a01b038516815283602082015282604082015260806060820152600061490a6080830184614123565b9695505050505050565b600060c0828403121561492657600080fd5b50919050565b60006020828403121561493e57600080fd5b81356001600160401b0381111561495457600080fd5b61435f84828501614914565b60006001600160401b03821115614979576149796143bc565b5060051b60200190565b600082601f83011261499457600080fd5b813560206149a96149a483614960565b61441c565b82815260059290921b840181019181810190868411156149c857600080fd5b8286015b848110156149e357803583529183019183016149cc565b509695505050505050565b600060208284031215614a0057600080fd5b81356001600160401b03811115614a1657600080fd5b61435f84828501614983565b634e487b7160e01b600052602160045260246000fd5b6020810160058310614a4c57614a4c614a22565b91905290565b60208152600060018060a01b03808451166020840152602084015115156040840152604084015160c06060850152614a8d60e0850182614123565b90508160608601515116608085015260808501519150601f19808583030160a0860152614aba82846141ad565b925060a08601519150808584030160c086015250611e678282614206565b600060208284031215614aea57600080fd5b604051602081018181106001600160401b0382111715614b0c57614b0c6143bc565b6040529050808235614b1d8161437a565b905292915050565b600082601f830112614b3657600080fd5b81356020614b466149a483614960565b82815260059290921b84018101918181019086841115614b6557600080fd5b8286015b848110156149e3578035614b7c8161437a565b8352918301918301614b69565b600060408284031215614b9b57600080fd5b604051604081016001600160401b038282108183111715614bbe57614bbe6143bc565b816040528293508435915080821115614bd657600080fd5b50614be385828601614b25565b825250602083013560208201525092915050565b600060608284031215614c0957600080fd5b614c116143d2565b905081356001600160401b0380821115614c2a57600080fd5b614c3685838601614b25565b8352602091508184013581811115614c4d57600080fd5b8401601f81018613614c5e57600080fd5b8035614c6c6149a482614960565b81815260059190911b82018401908481019088831115614c8b57600080fd5b8584015b83811015614cc357803586811115614ca75760008081fd5b614cb58b898389010161444c565b845250918601918601614c8f565b508086880152505050506040840135915080821115614ce157600080fd5b50614cee84828501614983565b60408301525092915050565b600060c08284031215614d0c57600080fd5b614d146143fa565b9050614d1f8261438f565b8152614d2d602083016145e6565b602082015260408201356001600160401b0380821115614d4c57600080fd5b614d588583860161444c565b6040840152614d6a8560608601614ad8565b60608401526080840135915080821115614d8357600080fd5b614d8f85838601614b89565b608084015260a0840135915080821115614da857600080fd5b50614db584828501614bf7565b60a08301525092915050565b600060208284031215614dd357600080fd5b81356001600160401b03811115614de957600080fd5b61435f84828501614cfa565b60008060208385031215614e0857600080fd5b82356001600160401b03811115614e1e57600080fd5b614e2a85828601614501565b90969095509350505050565b600080600060408486031215614e4b57600080fd5b83356001600160401b0380821115614e6257600080fd5b614e6e87838801614914565b94506020860135915080821115614e8457600080fd5b5061458c86828701614501565b600181811c90821680614ea557607f821691505b60208210810361492657634e487b7160e01b600052602260045260246000fd5b601f82111561180157600081815260208120601f850160051c81016020861015614eec5750805b601f850160051c820191505b81811015614f0b57828155600101614ef8565b505050505050565b81516001600160401b03811115614f2c57614f2c6143bc565b614f4081614f3a8454614e91565b84614ec5565b602080601f831160018114614f755760008415614f5d5750858301515b600019600386901b1c1916600185901b178555614f0b565b600085815260208120601f198616915b82811015614fa457888601518255948401946001909101908401614f85565b5085821015614fc25787850151600019600388901b60f8161c191681555b5050505050600190811b01905550565b634e487b7160e01b600052601160045260246000fd5b8082018082111561179157611791614fd2565b634e487b7160e01b600052603260045260246000fd5b60006001820161502357615023614fd2565b5060010190565b8181038181111561179157611791614fd2565b60006117913683614cfa565b6020810160038310614a4c57614a4c614a22565b6020808252825482820181905260008481528281209092916040850190845b818110156145da5783548352600193840193928501920161507c565b6000826150b557634e487b7160e01b600052601260045260246000fd5b500490565b808202811582820484141761179157611791614fd2565b8381526001600160a01b0383166020820152606060408201819052600090611e6790830184614123565b634e487b7160e01b600052603160045260246000fdfea264697066735822122065bd8d6a9679029d385b04226190e1f5e5e27e6a89c25aee076eb2f44371f35e64736f6c63430008130033","linkReferences":{}},"methodIdentifiers":{"AMOUNT_FOR_SUMBITTER_PROOF()":"347cf665","JK_LABS_ADDRESS()":"eef18e17","MAX_FIELDS_METADATA_LENGTH()":"b382543f","METADATAS_COUNT()":"4d24a67f","addressSubmitterVerified(address)":"cb853950","addressTotalCastVoteCounts(address)":"a1ac6cb2","addressTotalVotes(address)":"dea5f6a6","addressTotalVotesVerified(address)":"930de979","addressesThatHaveVoted(uint256)":"50c4b616","allProposalTotalVotes()":"50a5e524","cancel()":"ea8a1af0","canceled()":"3f9942ff","castVote(uint256,uint8,uint256,uint256,bytes32[])":"419c533c","castVoteWithoutProof(uint256,uint8,uint256)":"65f16263","checkProof(address,uint256,bytes32[],bool)":"32763c22","comment(uint256,string)":"1805c523","commentIds(uint256)":"f5c36411","commentIsDeleted(uint256)":"ae66b8ad","comments(uint256)":"8ebb4c15","contestAddressTotalVotesCast(address)":"aec116b6","contestDeadline()":"262e59e9","contestStart()":"004114a8","costToPropose()":"6ed815ad","costToVote()":"51a41dec","creator()":"02d05d3f","creatorSplitDestination()":"4a587ad4","deleteComments(uint256[])":"ac67f801","deleteProposals(uint256[])":"f0a7db0a","deletedCommentIds(uint256)":"3fb57c92","deletedProposalIds(uint256)":"05846cae","downvotingAllowed()":"60506ff6","forVotesToProposalIds(uint256,uint256)":"711effc8","getAllAddressesThatHaveVoted()":"2c39805f","getAllAuthorsOfDeletedProposals()":"cbdc27cb","getAllCommentIds()":"e11db9d8","getAllDeletedCommentIds()":"5cb718a1","getAllDeletedProposalIds()":"1242b737","getAllProposalAuthors()":"946369b5","getAllProposalIds()":"efa90d36","getComment(uint256)":"0800e300","getNumProposalsWithThisManyForVotes(uint256)":"9ba197af","getOnlyProposalIdWithThisManyForVotes(uint256)":"b66d1da3","getProposal(uint256)":"c7f758a8","getProposalComments(uint256)":"c05f4104","getProposalsWithThisManyForVotes(uint256)":"c9a1b6b2","getRankIndex(uint256)":"5c7107d8","getSortedRanks()":"6fd3636b","hashComment((address,uint256,uint256,string))":"409fd030","hashProposal((address,bool,string,(address),(address[],uint256),(address[],string[],uint256[])))":"d7989025","isOrIsBelowTiedRank(uint256)":"9174778c","jkLabsSplitDestination()":"102613d8","maxProposalCount()":"fb9bf8d4","metadataFieldsSchema()":"60ed97a9","name()":"06fdde03","numAllowedProposalSubmissions()":"832009af","numSubmissions(address)":"75e509c5","officialRewardsModule()":"785ddfe5","payPerVote()":"03f7eed6","percentageToCreator()":"edcd1be4","prompt()":"7c65d711","proposalAddressVotes(uint256,address)":"6e4eb810","proposalAddressesHaveVoted(uint256)":"b323580d","proposalAuthors(uint256)":"0aa25e44","proposalComments(uint256,uint256)":"f61736f4","proposalIds(uint256)":"9b644a23","proposalIsDeleted(uint256)":"f79c0172","proposalVotes(uint256)":"544ffc9c","proposalVotesStructs(uint256)":"070dc5d9","proposals(uint256)":"013cf08b","propose((address,bool,string,(address),(address[],uint256),(address[],string[],uint256[])),bytes32[])":"f823f110","proposeWithoutProof((address,bool,string,(address),(address[],uint256),(address[],string[],uint256[])))":"ab5e6947","rankLimit()":"0414126a","setCreatorSplitDestination(address)":"146230f6","setJkLabsSplitDestination(address)":"9b338aa0","setOfficialRewardsModule(address)":"f4f3d7ec","setSubmissionMerkleRoot(bytes32)":"daf762db","setVotingMerkleRoot(bytes32)":"544c7bb4","sortedRanks(uint256)":"325cc6d9","sortingEnabled()":"366ecf5b","state()":"c19d93fb","submissionMerkleRoot()":"bddc1641","totalVotesCast()":"7de418d5","validateProposalData((address,bool,string,(address),(address[],uint256),(address[],string[],uint256[])))":"d140d9f0","verifyProposer(address,bytes32[])":"20b3e845","verifyVoter(address,uint256,bytes32[])":"531bd812","version()":"54fd4d50","voteStart()":"e031535b","votingDelay()":"3932abb1","votingMerkleRoot()":"dd96a19d","votingPeriod()":"02a251a3"},"id":34}