{
  "_format": "hh-sol-artifact-1",
  "contractName": "RewardsModule",
  "sourceName": "contracts/modules/RewardsModule.sol",
  "abi": [
    {
      "inputs": [
        {
          "internalType": "uint256[]",
          "name": "payees",
          "type": "uint256[]"
        },
        {
          "internalType": "uint256[]",
          "name": "shares_",
          "type": "uint256[]"
        },
        {
          "internalType": "contract GovernorCountingSimple",
          "name": "underlyingContest_",
          "type": "address"
        }
      ],
      "stateMutability": "payable",
      "type": "constructor"
    },
    {
      "anonymous": false,
      "inputs": [
        {
          "indexed": true,
          "internalType": "contract IERC20",
          "name": "token",
          "type": "address"
        },
        {
          "indexed": false,
          "internalType": "address",
          "name": "to",
          "type": "address"
        },
        {
          "indexed": false,
          "internalType": "uint256",
          "name": "amount",
          "type": "uint256"
        }
      ],
      "name": "ERC20PaymentReleased",
      "type": "event"
    },
    {
      "anonymous": false,
      "inputs": [
        {
          "indexed": true,
          "internalType": "contract IERC20",
          "name": "token",
          "type": "address"
        },
        {
          "indexed": false,
          "internalType": "address",
          "name": "by",
          "type": "address"
        },
        {
          "indexed": false,
          "internalType": "uint256",
          "name": "amount",
          "type": "uint256"
        }
      ],
      "name": "ERC20RewardWithdrawn",
      "type": "event"
    },
    {
      "anonymous": false,
      "inputs": [
        {
          "indexed": false,
          "internalType": "uint256",
          "name": "ranking",
          "type": "uint256"
        },
        {
          "indexed": false,
          "internalType": "uint256",
          "name": "shares",
          "type": "uint256"
        }
      ],
      "name": "PayeeAdded",
      "type": "event"
    },
    {
      "anonymous": false,
      "inputs": [
        {
          "indexed": false,
          "internalType": "address",
          "name": "from",
          "type": "address"
        },
        {
          "indexed": false,
          "internalType": "uint256",
          "name": "amount",
          "type": "uint256"
        }
      ],
      "name": "PaymentReceived",
      "type": "event"
    },
    {
      "anonymous": false,
      "inputs": [
        {
          "indexed": false,
          "internalType": "address",
          "name": "to",
          "type": "address"
        },
        {
          "indexed": false,
          "internalType": "uint256",
          "name": "amount",
          "type": "uint256"
        }
      ],
      "name": "PaymentReleased",
      "type": "event"
    },
    {
      "anonymous": false,
      "inputs": [
        {
          "indexed": false,
          "internalType": "address",
          "name": "by",
          "type": "address"
        },
        {
          "indexed": false,
          "internalType": "uint256",
          "name": "amount",
          "type": "uint256"
        }
      ],
      "name": "RewardWithdrawn",
      "type": "event"
    },
    {
      "inputs": [],
      "name": "creator",
      "outputs": [
        {
          "internalType": "address",
          "name": "",
          "type": "address"
        }
      ],
      "stateMutability": "view",
      "type": "function"
    },
    {
      "inputs": [],
      "name": "getPayees",
      "outputs": [
        {
          "internalType": "uint256[]",
          "name": "",
          "type": "uint256[]"
        }
      ],
      "stateMutability": "view",
      "type": "function"
    },
    {
      "inputs": [],
      "name": "highestTiedRanking",
      "outputs": [
        {
          "internalType": "uint256",
          "name": "",
          "type": "uint256"
        }
      ],
      "stateMutability": "view",
      "type": "function"
    },
    {
      "inputs": [
        {
          "internalType": "uint256",
          "name": "ranking",
          "type": "uint256"
        }
      ],
      "name": "isTied",
      "outputs": [
        {
          "internalType": "bool",
          "name": "",
          "type": "bool"
        }
      ],
      "stateMutability": "view",
      "type": "function"
    },
    {
      "inputs": [],
      "name": "lowestRanking",
      "outputs": [
        {
          "internalType": "uint256",
          "name": "",
          "type": "uint256"
        }
      ],
      "stateMutability": "view",
      "type": "function"
    },
    {
      "inputs": [
        {
          "internalType": "uint256",
          "name": "ranking",
          "type": "uint256"
        }
      ],
      "name": "rankingPosition",
      "outputs": [
        {
          "internalType": "uint256",
          "name": "",
          "type": "uint256"
        }
      ],
      "stateMutability": "view",
      "type": "function"
    },
    {
      "inputs": [
        {
          "internalType": "contract IERC20",
          "name": "token",
          "type": "address"
        },
        {
          "internalType": "uint256",
          "name": "ranking",
          "type": "uint256"
        }
      ],
      "name": "releasable",
      "outputs": [
        {
          "internalType": "uint256",
          "name": "",
          "type": "uint256"
        }
      ],
      "stateMutability": "view",
      "type": "function"
    },
    {
      "inputs": [
        {
          "internalType": "uint256",
          "name": "ranking",
          "type": "uint256"
        }
      ],
      "name": "releasable",
      "outputs": [
        {
          "internalType": "uint256",
          "name": "",
          "type": "uint256"
        }
      ],
      "stateMutability": "view",
      "type": "function"
    },
    {
      "inputs": [
        {
          "internalType": "contract IERC20",
          "name": "token",
          "type": "address"
        },
        {
          "internalType": "uint256",
          "name": "ranking",
          "type": "uint256"
        }
      ],
      "name": "release",
      "outputs": [],
      "stateMutability": "nonpayable",
      "type": "function"
    },
    {
      "inputs": [
        {
          "internalType": "uint256",
          "name": "ranking",
          "type": "uint256"
        }
      ],
      "name": "release",
      "outputs": [],
      "stateMutability": "nonpayable",
      "type": "function"
    },
    {
      "inputs": [
        {
          "internalType": "uint256",
          "name": "ranking",
          "type": "uint256"
        }
      ],
      "name": "released",
      "outputs": [
        {
          "internalType": "uint256",
          "name": "",
          "type": "uint256"
        }
      ],
      "stateMutability": "view",
      "type": "function"
    },
    {
      "inputs": [
        {
          "internalType": "contract IERC20",
          "name": "token",
          "type": "address"
        },
        {
          "internalType": "uint256",
          "name": "ranking",
          "type": "uint256"
        }
      ],
      "name": "released",
      "outputs": [
        {
          "internalType": "uint256",
          "name": "",
          "type": "uint256"
        }
      ],
      "stateMutability": "view",
      "type": "function"
    },
    {
      "inputs": [],
      "name": "setSortedAndTiedProposals",
      "outputs": [],
      "stateMutability": "nonpayable",
      "type": "function"
    },
    {
      "inputs": [
        {
          "internalType": "uint256",
          "name": "ranking",
          "type": "uint256"
        }
      ],
      "name": "shares",
      "outputs": [
        {
          "internalType": "uint256",
          "name": "",
          "type": "uint256"
        }
      ],
      "stateMutability": "view",
      "type": "function"
    },
    {
      "inputs": [],
      "name": "sortedProposalIds",
      "outputs": [
        {
          "internalType": "uint256[]",
          "name": "",
          "type": "uint256[]"
        }
      ],
      "stateMutability": "view",
      "type": "function"
    },
    {
      "inputs": [
        {
          "internalType": "contract IERC20",
          "name": "token",
          "type": "address"
        }
      ],
      "name": "totalReleased",
      "outputs": [
        {
          "internalType": "uint256",
          "name": "",
          "type": "uint256"
        }
      ],
      "stateMutability": "view",
      "type": "function"
    },
    {
      "inputs": [],
      "name": "totalReleased",
      "outputs": [
        {
          "internalType": "uint256",
          "name": "",
          "type": "uint256"
        }
      ],
      "stateMutability": "view",
      "type": "function"
    },
    {
      "inputs": [],
      "name": "totalShares",
      "outputs": [
        {
          "internalType": "uint256",
          "name": "",
          "type": "uint256"
        }
      ],
      "stateMutability": "view",
      "type": "function"
    },
    {
      "inputs": [],
      "name": "underlyingContest",
      "outputs": [
        {
          "internalType": "contract GovernorCountingSimple",
          "name": "",
          "type": "address"
        }
      ],
      "stateMutability": "view",
      "type": "function"
    },
    {
      "inputs": [],
      "name": "version",
      "outputs": [
        {
          "internalType": "string",
          "name": "",
          "type": "string"
        }
      ],
      "stateMutability": "view",
      "type": "function"
    },
    {
      "inputs": [
        {
          "internalType": "contract IERC20",
          "name": "token",
          "type": "address"
        }
      ],
      "name": "withdrawRewards",
      "outputs": [],
      "stateMutability": "nonpayable",
      "type": "function"
    },
    {
      "inputs": [],
      "name": "withdrawRewards",
      "outputs": [],
      "stateMutability": "nonpayable",
      "type": "function"
    },
    {
      "stateMutability": "payable",
      "type": "receive"
    }
  ],
  "bytecode": "0x608060408190526008805460ff60a01b191690556200241d3881900390819083398101604081905262000032916200040b565b8151835114620000a25760405162461bcd60e51b815260206004820152603060248201527f526577617264734d6f64756c653a2070617965657320616e642073686172657360448201526f040d8cadccee8d040dad2e6dac2e8c6d60831b60648201526084015b60405180910390fd5b6000835111620000f55760405162461bcd60e51b815260206004820152601860248201527f526577617264734d6f64756c653a206e6f207061796565730000000000000000604482015260640162000099565b60005b83518110156200017957620001648482815181106200012757634e487b7160e01b600052603260045260246000fd5b60200260200101518483815181106200015057634e487b7160e01b600052603260045260246000fd5b6020026020010151620001ac60201b60201c565b806200017081620004af565b915050620000f8565b50600780546001600160a01b039092166001600160a01b0319928316179055600880549091163317905550620004f99050565b60008211620002135760405162461bcd60e51b815260206004820152602c60248201527f526577617264734d6f64756c653a2072616e6b696e6720697320302c206d757360448201526b3a1031329033b932b0ba32b960a11b606482015260840162000099565b60008111620002655760405162461bcd60e51b815260206004820152601b60248201527f526577617264734d6f64756c653a207368617265732061726520300000000000604482015260640162000099565b60008281526002602052604090205415620002d55760405162461bcd60e51b815260206004820152602960248201527f526577617264734d6f64756c653a206163636f756e7420616c7265616479206860448201526861732073686172657360b81b606482015260840162000099565b60048054600181019091557f8a35acfbc15ff81a39ae7d344fd709f28e8600b4aa8c65c6b64bfe7fe36bd19b018290556000828152600260205260408120829055546200032490829062000494565b60005560408051838152602081018390527f78bc0e219b874bf2620f7316737ec16d4bda1bb7136961e4dcb5ff0dc031cee4910160405180910390a15050565b600082601f83011262000375578081fd5b815160206001600160401b0380831115620003945762000394620004e3565b8260051b604051601f19603f83011681018181108482111715620003bc57620003bc620004e3565b60405284815283810192508684018288018501891015620003db578687fd5b8692505b85831015620003ff578051845292840192600192909201918401620003df565b50979650505050505050565b60008060006060848603121562000420578283fd5b83516001600160401b038082111562000437578485fd5b620004458783880162000364565b945060208601519150808211156200045b578384fd5b506200046a8682870162000364565b604086015190935090506001600160a01b038116811462000489578182fd5b809150509250925092565b60008219821115620004aa57620004aa620004cd565b500190565b6000600019821415620004c657620004c6620004cd565b5060010190565b634e487b7160e01b600052601160045260246000fd5b634e487b7160e01b600052604160045260246000fd5b611f1480620005096000396000f3fe6080604052600436106101395760003560e01c806386187488116100ab578063cfe830701161006f578063cfe83070146103b5578063d79779b2146103f8578063e33b7de31461042e578063e4bf01a814610443578063ebc18b9b14610463578063f3f44fb71461047857600080fd5b806386187488146103295780638a9cd5501461034957806396f0e9621461035e578063a94d373b14610373578063c7b8981c146103a057600080fd5b806337bdc99b116100fd57806337bdc99b146102605780633a98ef391461028057806342d866931461029557806354fd4d50146102b557806357a858fc146102e75780636ca1a2c71461031457600080fd5b806302d05d3f146101875780630357371d146101be5780632081d631146101e05780632399c6601461020e57806327f381131461023e57600080fd5b36610182577f6ef95f06320e7a25a04a175ca677b7052bdd97131872c2192525a629f51be77033604080516001600160a01b0390921682523460208301520160405180910390a1005b600080fd5b34801561019357600080fd5b506008546001600160a01b03165b6040516001600160a01b0390911681526020015b60405180910390f35b3480156101ca57600080fd5b506101de6101d93660046118fe565b610496565b005b3480156101ec57600080fd5b506102006101fb3660046118fe565b6107f5565b6040519081526020016101b5565b34801561021a57600080fd5b5061022e610229366004611a23565b6108d2565b60405190151581526020016101b5565b34801561024a57600080fd5b50610253610914565b6040516101b59190611a92565b34801561026c57600080fd5b506101de61027b366004611a23565b61096c565b34801561028c57600080fd5b50600054610200565b3480156102a157600080fd5b506101de6102b03660046118e2565b610c90565b3480156102c157600080fd5b5060408051808201825260038152620c8b8d60ea1b602082015290516101b59190611ad6565b3480156102f357600080fd5b50610200610302366004611a23565b60009081526002602052604090205490565b34801561032057600080fd5b50610200610e12565b34801561033557600080fd5b50610200610344366004611a23565b610e45565b34801561035557600080fd5b50610253610e84565b34801561036a57600080fd5b506101de610f04565b34801561037f57600080fd5b5061020061038e366004611a23565b60009081526003602052604090205490565b3480156103ac57600080fd5b506101de61132f565b3480156103c157600080fd5b506102006103d03660046118fe565b6001600160a01b03919091166000908152600660209081526040808320938352929052205490565b34801561040457600080fd5b506102006104133660046118e2565b6001600160a01b031660009081526005602052604090205490565b34801561043a57600080fd5b50600154610200565b34801561044f57600080fd5b5061020061045e366004611a23565b6113b6565b34801561046f57600080fd5b506102006113f0565b34801561048457600080fd5b506007546001600160a01b03166101a1565b806104bc5760405162461bcd60e51b81526004016104b390611b09565b60405180910390fd5b6007546040805163c19d93fb60e01b815290516004926001600160a01b03169163c19d93fb91818501916020919081900386018186803b1580156104ff57600080fd5b505afa158015610513573d6000803e3d6000fd5b505050506040513d601f19601f820116820180604052508101906105379190611929565b600481111561055657634e487b7160e01b600052602160045260246000fd5b146105735760405162461bcd60e51b81526004016104b390611bbf565b6000818152600260205260409020546105da5760405162461bcd60e51b8152602060048201526024808201527f526577617264734d6f64756c653a206163636f756e7420686173206e6f2073686044820152636172657360e01b60648201526084016104b3565b60006105e683836107f5565b9050806106055760405162461bcd60e51b81526004016104b390611c28565b6001600160a01b0383166000908152600560205260408120805483929061062d908490611da2565b90915550506001600160a01b03831660009081526006602090815260408083208584529091529020805482019055600854600160a01b900460ff1661067457610674610f04565b600c548211156106965760405162461bcd60e51b81526004016104b390611cbb565b6000600d5483106106b2576008546001600160a01b0316610776565b6007546000848152600b6020526040902054600980546001600160a01b039093169263c7f758a8929081106106f757634e487b7160e01b600052603260045260246000fd5b90600052602060002001546040518263ffffffff1660e01b815260040161072091815260200190565b60006040518083038186803b15801561073857600080fd5b505afa15801561074c573d6000803e3d6000fd5b505050506040513d6000823e601f3d908101601f191682016040526107749190810190611948565b515b90506001600160a01b03811661079e5760405162461bcd60e51b81526004016104b390611c71565b6107a9848284611423565b604080516001600160a01b038381168252602082018590528616917f3be5b7a71e84ed12875d241991c70855ac5817d847039e17a9d895c1ceb0f18a910160405180910390a250505050565b6001600160a01b03821660009081526005602052604081205481906040516370a0823160e01b81523060048201526001600160a01b038616906370a082319060240160206040518083038186803b15801561084f57600080fd5b505afa158015610863573d6000803e3d6000fd5b505050506040513d601f19601f820116820180604052508101906108879190611a3b565b6108919190611da2565b90506108ca83826108c587876001600160a01b03919091166000908152600660209081526040808320938352929052205490565b61147a565b949350505050565b600854600090600160a01b900460ff166108fe5760405162461bcd60e51b81526004016104b390611b54565b506000908152600a602052604090205460ff1690565b6060600480548060200260200160405190810160405280929190818152602001828054801561096257602002820191906000526020600020905b81548152602001906001019080831161094e575b5050505050905090565b806109895760405162461bcd60e51b81526004016104b390611b09565b6007546040805163c19d93fb60e01b815290516004926001600160a01b03169163c19d93fb91818501916020919081900386018186803b1580156109cc57600080fd5b505afa1580156109e0573d6000803e3d6000fd5b505050506040513d601f19601f82011682018060405250810190610a049190611929565b6004811115610a2357634e487b7160e01b600052602160045260246000fd5b14610a405760405162461bcd60e51b81526004016104b390611bbf565b600081815260026020526040902054610aa75760405162461bcd60e51b8152602060048201526024808201527f526577617264734d6f64756c653a2072616e6b696e6720686173206e6f2073686044820152636172657360e01b60648201526084016104b3565b6000610ab2826113b6565b905080610ad15760405162461bcd60e51b81526004016104b390611c28565b8060016000828254610ae39190611da2565b90915550506000828152600360205260409020805482019055600854600160a01b900460ff16610b1557610b15610f04565b600c54821115610b375760405162461bcd60e51b81526004016104b390611cbb565b6000600d548310610b53576008546001600160a01b0316610c17565b6007546000848152600b6020526040902054600980546001600160a01b039093169263c7f758a892908110610b9857634e487b7160e01b600052603260045260246000fd5b90600052602060002001546040518263ffffffff1660e01b8152600401610bc191815260200190565b60006040518083038186803b158015610bd957600080fd5b505afa158015610bed573d6000803e3d6000fd5b505050506040513d6000823e601f3d908101601f19168201604052610c159190810190611948565b515b90506001600160a01b038116610c3f5760405162461bcd60e51b81526004016104b390611c71565b610c4981836114ac565b604080516001600160a01b0383168152602081018490527fdf20fd1e76bc69d672e4814fafb2c449bba3a5369d8359adf9e05e6fde87b056910160405180910390a1505050565b6008546001600160a01b03163314610ca757600080fd5b610d3981610cbd6008546001600160a01b031690565b6040516370a0823160e01b81523060048201526001600160a01b038516906370a082319060240160206040518083038186803b158015610cfc57600080fd5b505afa158015610d10573d6000803e3d6000fd5b505050506040513d601f19601f82011682018060405250810190610d349190611a3b565b611423565b806001600160a01b03167f6e5fc1cbd1629d9837bd657d23cf585bbc4e9127184972606cc4c0dd406f7572610d766008546001600160a01b031690565b6040516370a0823160e01b81523060048201526001600160a01b038516906370a082319060240160206040518083038186803b158015610db557600080fd5b505afa158015610dc9573d6000803e3d6000fd5b505050506040513d601f19601f82011682018060405250810190610ded9190611a3b565b604080516001600160a01b03909316835260208301919091520160405180910390a250565b600854600090600160a01b900460ff16610e3e5760405162461bcd60e51b81526004016104b390611b54565b50600c5490565b600854600090600160a01b900460ff16610e715760405162461bcd60e51b81526004016104b390611b54565b506000908152600b602052604090205490565b600854606090600160a01b900460ff16610eb05760405162461bcd60e51b81526004016104b390611b54565b6009805480602002602001604051908101604052809291908181526020018280548015610962576020028201919060005260206000209081548152602001906001019080831161094e575050505050905090565b6007546040805163c19d93fb60e01b815290516004926001600160a01b03169163c19d93fb91818501916020919081900386018186803b158015610f4757600080fd5b505afa158015610f5b573d6000803e3d6000fd5b505050506040513d601f19601f82011682018060405250810190610f7f9190611929565b6004811115610f9e57634e487b7160e01b600052602160045260246000fd5b14610fbb5760405162461bcd60e51b81526004016104b390611bbf565b600854600160a01b900460ff16156110985760405162461bcd60e51b815260206004820152608860248201527f526577617264734d6f64756c653a20746869732066756e6374696f6e2068617360448201527f20616c7265616479206265656e2072756e20616e64206974732072657370656360648201527f746976652076616c75657320736574202874686573652076616c75657320776960848201527f6c6c206e6f74206368616e6765206f6e6365206120636f6e746573742069732060a482015267636f6d706c65746560c01b60c482015260e4016104b3565b60075460405163213eab6160e11b8152600160048201526001600160a01b039091169063427d56c29060240160006040518083038186803b1580156110dc57600080fd5b505afa1580156110f0573d6000803e3d6000fd5b505050506040513d6000823e601f3d908101601f191682016040526111189190810190611820565b805161112c916009916020909101906117ab565b506009546000906001906111409082611da2565b600d5560005b6009548110156113175760095460009061116290600190611e38565b60075490915060009081906001600160a01b031663544ffc9c60096111878787611e38565b815481106111a557634e487b7160e01b600052603260045260246000fd5b90600052602060002001546040518263ffffffff1660e01b81526004016111ce91815260200190565b604080518083038186803b1580156111e557600080fd5b505afa1580156111f9573d6000803e3d6000fd5b505050506040513d601f19601f8201168201806040525081019061121d9190611a53565b9092509050600061122e8284611df9565b90508461124057955061130592505050565b8681141561129a576000868152600a602052604090205460ff16611278576000868152600a60205260409020805460ff191660011790555b600954611286906001611da2565b600d54141561129557600d8690555b6112cc565b6112a48585611e38565b6112af906001611da2565b6000878152600b6020526040902055856112c881611e7f565b9650505b6009546112da866001611da2565b14156112ff576112ea8585611e38565b6000878152600b6020526040902055600c8690555b95505050505b8061130f81611e7f565b915050611146565b50506008805460ff60a01b1916600160a01b17905550565b6008546001600160a01b0316331461134657600080fd5b61136161135b6008546001600160a01b031690565b476114ac565b7f1d3eee4ca001cff39eec6ec7615aacf2f2bd61791273830728ba00ccbd6e13376113946008546001600160a01b031690565b604080516001600160a01b0390921682524760208301520160405180910390a1565b6000806113c260015490565b6113cc9047611da2565b90506113e983826108c58660009081526003602052604090205490565b9392505050565b600854600090600160a01b900460ff1661141c5760405162461bcd60e51b81526004016104b390611b54565b50600d5490565b604080516001600160a01b038416602482015260448082018490528251808303909101815260649091019091526020810180516001600160e01b031663a9059cbb60e01b1790526114759084906115c5565b505050565b60008054848252600260205260408220548391906114989086611dda565b6114a29190611dba565b6108ca9190611e38565b804710156114fc5760405162461bcd60e51b815260206004820152601d60248201527f416464726573733a20696e73756666696369656e742062616c616e636500000060448201526064016104b3565b6000826001600160a01b03168260405160006040518083038185875af1925050503d8060008114611549576040519150601f19603f3d011682016040523d82523d6000602084013e61154e565b606091505b50509050806114755760405162461bcd60e51b815260206004820152603a60248201527f416464726573733a20756e61626c6520746f2073656e642076616c75652c207260448201527f6563697069656e74206d6179206861766520726576657274656400000000000060648201526084016104b3565b600061161a826040518060400160405280602081526020017f5361666545524332303a206c6f772d6c6576656c2063616c6c206661696c6564815250856001600160a01b03166116979092919063ffffffff16565b805190915015611475578080602001905181019061163891906118c8565b6114755760405162461bcd60e51b815260206004820152602a60248201527f5361666545524332303a204552433230206f7065726174696f6e20646964206e6044820152691bdd081cdd58d8d9595960b21b60648201526084016104b3565b60606108ca8484600085856001600160a01b0385163b6116f95760405162461bcd60e51b815260206004820152601d60248201527f416464726573733a2063616c6c20746f206e6f6e2d636f6e747261637400000060448201526064016104b3565b600080866001600160a01b031685876040516117159190611a76565b60006040518083038185875af1925050503d8060008114611752576040519150601f19603f3d011682016040523d82523d6000602084013e611757565b606091505b5091509150611767828286611772565b979650505050505050565b606083156117815750816113e9565b8251156117915782518084602001fd5b8160405162461bcd60e51b81526004016104b39190611ad6565b8280548282559060005260206000209081019282156117e6579160200282015b828111156117e65782518255916020019190600101906117cb565b506117f29291506117f6565b5090565b5b808211156117f257600081556001016117f7565b8051801515811461181b57600080fd5b919050565b60006020808385031215611832578182fd5b825167ffffffffffffffff80821115611849578384fd5b818501915085601f83011261185c578384fd5b81518181111561186e5761186e611eb0565b8060051b915061187f848301611d71565b8181528481019084860184860187018a1015611899578788fd5b8795505b838610156118bb57805183526001959095019491860191860161189d565b5098975050505050505050565b6000602082840312156118d9578081fd5b6113e98261180b565b6000602082840312156118f3578081fd5b81356113e981611ec6565b60008060408385031215611910578081fd5b823561191b81611ec6565b946020939093013593505050565b60006020828403121561193a578081fd5b8151600581106113e9578182fd5b6000602080838503121561195a578182fd5b825167ffffffffffffffff80821115611971578384fd5b9084019060608287031215611984578384fd5b61198c611d48565b825161199781611ec6565b815282840151828111156119a9578586fd5b8301601f810188136119b9578586fd5b8051838111156119cb576119cb611eb0565b6119dd601f8201601f19168701611d71565b935080845288868284010111156119f2578687fd5b611a0181878601888501611e4f565b50508184820152611a146040840161180b565b60408201529695505050505050565b600060208284031215611a34578081fd5b5035919050565b600060208284031215611a4c578081fd5b5051919050565b60008060408385031215611a65578182fd5b505080516020909101519092909150565b60008251611a88818460208701611e4f565b9190910192915050565b6020808252825182820181905260009190848201906040850190845b81811015611aca57835183529284019291840191600101611aae565b50909695505050505050565b6020815260008251806020840152611af5816040850160208701611e4f565b601f01601f19169190910160400192915050565b6020808252602b908201527f526577617264734d6f64756c653a2072616e6b696e67206d757374206265203160408201526a1037b91033b932b0ba32b960a91b606082015260800190565b60208082526045908201527f526577617264734d6f64756c653a2072756e20736574536f72746564416e645460408201527f69656450726f706f73616c73282920746f20706f70756c61746520746869732060608201526476616c756560d81b608082015260a00190565b60208082526043908201527f526577617264734d6f64756c653a20636f6e74657374206d757374206265206360408201527f6f6d706c6574656420666f72207265776172647320746f2062652070616964206060820152621bdd5d60ea1b608082015260a00190565b60208082526029908201527f526577617264734d6f64756c653a206163636f756e74206973206e6f7420647560408201526819481c185e5b595b9d60ba1b606082015260800190565b6020808252602a908201527f526577617264734d6f64756c653a206163636f756e7420697320746865207a65604082015269726f206164647265737360b01b606082015260800190565b60208082526061908201527f526577617264734d6f64756c653a20746865726520617265206e6f7420656e6f60408201527f7567682070726f706f73616c7320666f7220746861742072616e6b696e67207460608201527f6f2065786973742c2074616b696e67207469657320696e746f206163636f756e6080820152601d60fa1b60a082015260c00190565b6040516060810167ffffffffffffffff81118282101715611d6b57611d6b611eb0565b60405290565b604051601f8201601f1916810167ffffffffffffffff81118282101715611d9a57611d9a611eb0565b604052919050565b60008219821115611db557611db5611e9a565b500190565b600082611dd557634e487b7160e01b81526012600452602481fd5b500490565b6000816000190483118215151615611df457611df4611e9a565b500290565b60008083128015600160ff1b850184121615611e1757611e17611e9a565b6001600160ff1b0384018313811615611e3257611e32611e9a565b50500390565b600082821015611e4a57611e4a611e9a565b500390565b60005b83811015611e6a578181015183820152602001611e52565b83811115611e79576000848401525b50505050565b6000600019821415611e9357611e93611e9a565b5060010190565b634e487b7160e01b600052601160045260246000fd5b634e487b7160e01b600052604160045260246000fd5b6001600160a01b0381168114611edb57600080fd5b5056fea264697066735822122098504dd7195129ff9cb2203a030bf1e54d064d593650e7fee1d7b9de96aeb3f964736f6c63430008040033",
  "linkReferences": {},
  "deployedLinkReferences": {}
}