{
  "_format": "hh-sol-artifact-1",
  "contractName": "GenericVotesTimestampToken",
  "sourceName": "contracts/GenericVotesTimestampToken.sol",
  "abi": [
    {
      "inputs": [
        {
          "internalType": "string",
          "name": "_name",
          "type": "string"
        },
        {
          "internalType": "string",
          "name": "_symbol",
          "type": "string"
        },
        {
          "internalType": "address",
          "name": "_mintRecipient",
          "type": "address"
        },
        {
          "internalType": "uint256",
          "name": "_amountToMint",
          "type": "uint256"
        }
      ],
      "stateMutability": "nonpayable",
      "type": "constructor"
    },
    {
      "anonymous": false,
      "inputs": [
        {
          "indexed": true,
          "internalType": "address",
          "name": "owner",
          "type": "address"
        },
        {
          "indexed": true,
          "internalType": "address",
          "name": "spender",
          "type": "address"
        },
        {
          "indexed": false,
          "internalType": "uint256",
          "name": "value",
          "type": "uint256"
        }
      ],
      "name": "Approval",
      "type": "event"
    },
    {
      "anonymous": false,
      "inputs": [
        {
          "indexed": true,
          "internalType": "address",
          "name": "delegator",
          "type": "address"
        },
        {
          "indexed": true,
          "internalType": "address",
          "name": "fromDelegate",
          "type": "address"
        },
        {
          "indexed": true,
          "internalType": "address",
          "name": "toDelegate",
          "type": "address"
        }
      ],
      "name": "DelegateChanged",
      "type": "event"
    },
    {
      "anonymous": false,
      "inputs": [
        {
          "indexed": true,
          "internalType": "address",
          "name": "delegate",
          "type": "address"
        },
        {
          "indexed": false,
          "internalType": "uint256",
          "name": "previousBalance",
          "type": "uint256"
        },
        {
          "indexed": false,
          "internalType": "uint256",
          "name": "newBalance",
          "type": "uint256"
        }
      ],
      "name": "DelegateVotesChanged",
      "type": "event"
    },
    {
      "anonymous": false,
      "inputs": [
        {
          "indexed": true,
          "internalType": "address",
          "name": "from",
          "type": "address"
        },
        {
          "indexed": true,
          "internalType": "address",
          "name": "to",
          "type": "address"
        },
        {
          "indexed": false,
          "internalType": "uint256",
          "name": "value",
          "type": "uint256"
        }
      ],
      "name": "Transfer",
      "type": "event"
    },
    {
      "inputs": [],
      "name": "DOMAIN_SEPARATOR",
      "outputs": [
        {
          "internalType": "bytes32",
          "name": "",
          "type": "bytes32"
        }
      ],
      "stateMutability": "view",
      "type": "function"
    },
    {
      "inputs": [
        {
          "internalType": "address",
          "name": "owner",
          "type": "address"
        },
        {
          "internalType": "address",
          "name": "spender",
          "type": "address"
        }
      ],
      "name": "allowance",
      "outputs": [
        {
          "internalType": "uint256",
          "name": "",
          "type": "uint256"
        }
      ],
      "stateMutability": "view",
      "type": "function"
    },
    {
      "inputs": [
        {
          "internalType": "address",
          "name": "spender",
          "type": "address"
        },
        {
          "internalType": "uint256",
          "name": "amount",
          "type": "uint256"
        }
      ],
      "name": "approve",
      "outputs": [
        {
          "internalType": "bool",
          "name": "",
          "type": "bool"
        }
      ],
      "stateMutability": "nonpayable",
      "type": "function"
    },
    {
      "inputs": [
        {
          "internalType": "address",
          "name": "account",
          "type": "address"
        }
      ],
      "name": "balanceOf",
      "outputs": [
        {
          "internalType": "uint256",
          "name": "",
          "type": "uint256"
        }
      ],
      "stateMutability": "view",
      "type": "function"
    },
    {
      "inputs": [
        {
          "internalType": "address",
          "name": "account",
          "type": "address"
        },
        {
          "internalType": "uint32",
          "name": "pos",
          "type": "uint32"
        }
      ],
      "name": "checkpoints",
      "outputs": [
        {
          "components": [
            {
              "internalType": "uint256",
              "name": "fromTimestamp",
              "type": "uint256"
            },
            {
              "internalType": "uint224",
              "name": "votes",
              "type": "uint224"
            }
          ],
          "internalType": "struct ERC20VotesTimestamp.Checkpoint",
          "name": "",
          "type": "tuple"
        }
      ],
      "stateMutability": "view",
      "type": "function"
    },
    {
      "inputs": [],
      "name": "decimals",
      "outputs": [
        {
          "internalType": "uint8",
          "name": "",
          "type": "uint8"
        }
      ],
      "stateMutability": "view",
      "type": "function"
    },
    {
      "inputs": [
        {
          "internalType": "address",
          "name": "spender",
          "type": "address"
        },
        {
          "internalType": "uint256",
          "name": "subtractedValue",
          "type": "uint256"
        }
      ],
      "name": "decreaseAllowance",
      "outputs": [
        {
          "internalType": "bool",
          "name": "",
          "type": "bool"
        }
      ],
      "stateMutability": "nonpayable",
      "type": "function"
    },
    {
      "inputs": [
        {
          "internalType": "address",
          "name": "delegatee",
          "type": "address"
        }
      ],
      "name": "delegate",
      "outputs": [],
      "stateMutability": "nonpayable",
      "type": "function"
    },
    {
      "inputs": [
        {
          "internalType": "address",
          "name": "delegatee",
          "type": "address"
        },
        {
          "internalType": "uint256",
          "name": "nonce",
          "type": "uint256"
        },
        {
          "internalType": "uint256",
          "name": "expiry",
          "type": "uint256"
        },
        {
          "internalType": "uint8",
          "name": "v",
          "type": "uint8"
        },
        {
          "internalType": "bytes32",
          "name": "r",
          "type": "bytes32"
        },
        {
          "internalType": "bytes32",
          "name": "s",
          "type": "bytes32"
        }
      ],
      "name": "delegateBySig",
      "outputs": [],
      "stateMutability": "nonpayable",
      "type": "function"
    },
    {
      "inputs": [
        {
          "internalType": "address",
          "name": "account",
          "type": "address"
        }
      ],
      "name": "delegates",
      "outputs": [
        {
          "internalType": "address",
          "name": "",
          "type": "address"
        }
      ],
      "stateMutability": "view",
      "type": "function"
    },
    {
      "inputs": [
        {
          "internalType": "uint256",
          "name": "timestamp",
          "type": "uint256"
        }
      ],
      "name": "getPastTotalSupply",
      "outputs": [
        {
          "internalType": "uint256",
          "name": "",
          "type": "uint256"
        }
      ],
      "stateMutability": "view",
      "type": "function"
    },
    {
      "inputs": [
        {
          "internalType": "address",
          "name": "account",
          "type": "address"
        },
        {
          "internalType": "uint256",
          "name": "timestamp",
          "type": "uint256"
        }
      ],
      "name": "getPastVotes",
      "outputs": [
        {
          "internalType": "uint256",
          "name": "",
          "type": "uint256"
        }
      ],
      "stateMutability": "view",
      "type": "function"
    },
    {
      "inputs": [
        {
          "internalType": "address",
          "name": "account",
          "type": "address"
        }
      ],
      "name": "getVotes",
      "outputs": [
        {
          "internalType": "uint256",
          "name": "",
          "type": "uint256"
        }
      ],
      "stateMutability": "view",
      "type": "function"
    },
    {
      "inputs": [
        {
          "internalType": "address",
          "name": "spender",
          "type": "address"
        },
        {
          "internalType": "uint256",
          "name": "addedValue",
          "type": "uint256"
        }
      ],
      "name": "increaseAllowance",
      "outputs": [
        {
          "internalType": "bool",
          "name": "",
          "type": "bool"
        }
      ],
      "stateMutability": "nonpayable",
      "type": "function"
    },
    {
      "inputs": [],
      "name": "name",
      "outputs": [
        {
          "internalType": "string",
          "name": "",
          "type": "string"
        }
      ],
      "stateMutability": "view",
      "type": "function"
    },
    {
      "inputs": [
        {
          "internalType": "address",
          "name": "owner",
          "type": "address"
        }
      ],
      "name": "nonces",
      "outputs": [
        {
          "internalType": "uint256",
          "name": "",
          "type": "uint256"
        }
      ],
      "stateMutability": "view",
      "type": "function"
    },
    {
      "inputs": [
        {
          "internalType": "address",
          "name": "account",
          "type": "address"
        }
      ],
      "name": "numCheckpoints",
      "outputs": [
        {
          "internalType": "uint32",
          "name": "",
          "type": "uint32"
        }
      ],
      "stateMutability": "view",
      "type": "function"
    },
    {
      "inputs": [
        {
          "internalType": "address",
          "name": "owner",
          "type": "address"
        },
        {
          "internalType": "address",
          "name": "spender",
          "type": "address"
        },
        {
          "internalType": "uint256",
          "name": "value",
          "type": "uint256"
        },
        {
          "internalType": "uint256",
          "name": "deadline",
          "type": "uint256"
        },
        {
          "internalType": "uint8",
          "name": "v",
          "type": "uint8"
        },
        {
          "internalType": "bytes32",
          "name": "r",
          "type": "bytes32"
        },
        {
          "internalType": "bytes32",
          "name": "s",
          "type": "bytes32"
        }
      ],
      "name": "permit",
      "outputs": [],
      "stateMutability": "nonpayable",
      "type": "function"
    },
    {
      "inputs": [],
      "name": "symbol",
      "outputs": [
        {
          "internalType": "string",
          "name": "",
          "type": "string"
        }
      ],
      "stateMutability": "view",
      "type": "function"
    },
    {
      "inputs": [],
      "name": "totalSupply",
      "outputs": [
        {
          "internalType": "uint256",
          "name": "",
          "type": "uint256"
        }
      ],
      "stateMutability": "view",
      "type": "function"
    },
    {
      "inputs": [
        {
          "internalType": "address",
          "name": "to",
          "type": "address"
        },
        {
          "internalType": "uint256",
          "name": "amount",
          "type": "uint256"
        }
      ],
      "name": "transfer",
      "outputs": [
        {
          "internalType": "bool",
          "name": "",
          "type": "bool"
        }
      ],
      "stateMutability": "nonpayable",
      "type": "function"
    },
    {
      "inputs": [
        {
          "internalType": "address",
          "name": "from",
          "type": "address"
        },
        {
          "internalType": "address",
          "name": "to",
          "type": "address"
        },
        {
          "internalType": "uint256",
          "name": "amount",
          "type": "uint256"
        }
      ],
      "name": "transferFrom",
      "outputs": [
        {
          "internalType": "bool",
          "name": "",
          "type": "bool"
        }
      ],
      "stateMutability": "nonpayable",
      "type": "function"
    }
  ],
  "bytecode": "0x6101606040527f6e71edae12b1b97f4d1f60370fef10105fa2faae0126114a169c64845d6126c9610140523480156200003757600080fd5b50604051620026df380380620026df8339810160408190526200005a91620008b1565b8380604051806040016040528060018152602001603160f81b815250868681600390805190602001906200009092919062000762565b508051620000a690600490602084019062000762565b5050825160208085019190912083518483012060e08290526101008190524660a0818152604080517f8b73c3c69bb8fe3d512ecc4cf759cc79239f7b179b0ffacaa9a75d522b39400f81880181905281830187905260608201869052608082019490945230818401528151808203909301835260c0019052805194019390932091935091906080523060601b60c05261012052506200014d93508592508491505062000157565b50505050620009de565b6200016e82826200017260201b620009ff1760201c565b5050565b6200018982826200023660201b62000a9c1760201c565b6001600160e01b036200019d620003258216565b1115620002175760405162461bcd60e51b815260206004820152603960248201527f4552433230566f74657354696d657374616d703a20746f74616c20737570706c60448201527f79207269736b73206f766572666c6f77696e6720766f7465730000000000000060648201526084015b60405180910390fd5b62000230600862000b876200032b60201b178362000340565b50505050565b6001600160a01b0382166200028e5760405162461bcd60e51b815260206004820152601f60248201527f45524332303a206d696e7420746f20746865207a65726f20616464726573730060448201526064016200020e565b8060026000828254620002a2919062000940565b90915550506001600160a01b03821660009081526020819052604081208054839290620002d190849062000940565b90915550506040518181526001600160a01b038316906000907fddf252ad1be2c89b69c2b068fc378daa952ba7f163c4a11628f55a4df523b3ef9060200160405180910390a36200016e600083836200050e565b60025490565b600062000339828462000940565b9392505050565b8254600090819080156200039e57856200035c6001836200095b565b815481106200037b57634e487b7160e01b600052603260045260246000fd5b60009182526020909120600160029092020101546001600160e01b0316620003a1565b60005b6001600160e01b03169250620003b883858760201c565b91506000811180156200040857504286620003d56001846200095b565b81548110620003f457634e487b7160e01b600052603260045260246000fd5b906000526020600020906002020160000154145b156200048c5762000424826200052660201b62000b931760201c565b86620004326001846200095b565b815481106200045157634e487b7160e01b600052603260045260246000fd5b906000526020600020906002020160010160006101000a8154816001600160e01b0302191690836001600160e01b0316021790555062000500565b856040518060400160405280428152602001620004b4856200052660201b62000b931760201c565b6001600160e01b03908116909152825460018181018555600094855260209485902084516002909302019182559390920151919092018054919092166001600160e01b03199091161790555b50935093915050565b505050565b620005098383836200059560201b62000c001760201c565b60006001600160e01b03821115620005915760405162461bcd60e51b815260206004820152602760248201527f53616665436173743a2076616c756520646f65736e27742066697420696e20326044820152663234206269747360c81b60648201526084016200020e565b5090565b620005ad8383836200050960201b62000c1b1760201c565b62000509620005bc84620005ce565b620005c784620005ce565b8362000619565b6001600160a01b03818116600090815260066020526040812054909116620005f7578162000613565b6001600160a01b03808316600090815260066020526040902054165b92915050565b816001600160a01b0316836001600160a01b0316141580156200063c5750600081115b1562000509576001600160a01b03831615620006c9576001600160a01b03831660009081526007602090815260408220829162000686919062000754901b62000c20178562000340565b91509150846001600160a01b0316600080516020620026bf8339815191528383604051620006be929190918252602082015260400190565b60405180910390a250505b6001600160a01b0382161562000509576001600160a01b0382166000908152600760209081526040822082916200070d91906200032b901b62000b87178562000340565b91509150836001600160a01b0316600080516020620026bf833981519152838360405162000745929190918252602082015260400190565b60405180910390a25050505050565b60006200033982846200095b565b828054620007709062000975565b90600052602060002090601f016020900481019282620007945760008555620007df565b82601f10620007af57805160ff1916838001178555620007df565b82800160010185558215620007df579182015b82811115620007df578251825591602001919060010190620007c2565b50620005919291505b80821115620005915760008155600101620007e8565b600082601f8301126200080f578081fd5b81516001600160401b03808211156200082c576200082c620009c8565b604051601f8301601f19908116603f01168101908282118183101715620008575762000857620009c8565b8160405283815260209250868385880101111562000873578485fd5b8491505b8382101562000896578582018301518183018401529082019062000877565b83821115620008a757848385830101525b9695505050505050565b60008060008060808587031215620008c7578384fd5b84516001600160401b0380821115620008de578586fd5b620008ec88838901620007fe565b9550602087015191508082111562000902578485fd5b506200091187828801620007fe565b604087015190945090506001600160a01b038116811462000930578283fd5b6060959095015193969295505050565b60008219821115620009565762000956620009b2565b500190565b600082821015620009705762000970620009b2565b500390565b600181811c908216806200098a57607f821691505b60208210811415620009ac57634e487b7160e01b600052602260045260246000fd5b50919050565b634e487b7160e01b600052601160045260246000fd5b634e487b7160e01b600052604160045260246000fd5b60805160a05160c05160601c60e051610100516101205161014051611c8362000a3c600039600061083701526000611022015260006110710152600061104c01526000610fa501526000610fcf01526000610ff90152611c836000f3fe608060405234801561001057600080fd5b50600436106101425760003560e01c806370a08231116100b8578063a457c2d71161007c578063a457c2d7146102bc578063a9059cbb146102cf578063c3cda520146102e2578063d505accf146102f5578063dd62ed3e14610308578063f1127ed81461031b57600080fd5b806370a08231146102525780637ecebe001461027b5780638e539e8c1461028e57806395d89b41146102a15780639ab24eb0146102a957600080fd5b80633644e5151161010a5780633644e515146101bc57806339509351146101c45780633a46b1a8146101d7578063587cde1e146101ea5780635c19a95c146102155780636fcfff451461022a57600080fd5b806306fdde0314610147578063095ea7b31461016557806318160ddd1461018857806323b872dd1461019a578063313ce567146101ad575b600080fd5b61014f610352565b60405161015c9190611b18565b60405180910390f35b610178610173366004611a42565b6103e4565b604051901515815260200161015c565b6002545b60405190815260200161015c565b6101786101a836600461199e565b6103fc565b6040516012815260200161015c565b61018c610420565b6101786101d2366004611a42565b61042f565b61018c6101e5366004611a42565b610451565b6101fd6101f8366004611952565b6104a4565b6040516001600160a01b03909116815260200161015c565b610228610223366004611952565b6104ed565b005b61023d610238366004611952565b6104fa565b60405163ffffffff909116815260200161015c565b61018c610260366004611952565b6001600160a01b031660009081526020819052604090205490565b61018c610289366004611952565b61051c565b61018c61029c366004611b00565b61053a565b61014f610566565b61018c6102b7366004611952565b610575565b6101786102ca366004611a42565b61060a565b6101786102dd366004611a42565b610685565b6102286102f0366004611a6b565b610693565b6102286103033660046119d9565b6107e3565b61018c61031636600461196c565b610947565b61032e610329366004611ac2565b610972565b60408051825181526020928301516001600160e01b0316928101929092520161015c565b60606003805461036190611c02565b80601f016020809104026020016040519081016040528092919081815260200182805461038d90611c02565b80156103da5780601f106103af576101008083540402835291602001916103da565b820191906000526020600020905b8154815290600101906020018083116103bd57829003601f168201915b5050505050905090565b6000336103f2818585610c2c565b5060019392505050565b60003361040a858285610d50565b610415858585610dc4565b506001949350505050565b600061042a610f98565b905090565b6000336103f28185856104428383610947565b61044c9190611bb3565b610c2c565b600042821061047b5760405162461bcd60e51b815260040161047290611b6b565b60405180910390fd5b6001600160a01b038316600090815260076020526040902061049d90836110bf565b9392505050565b6001600160a01b038181166000908152600660205260408120549091166104cb57816104e7565b6001600160a01b03808316600090815260066020526040902054165b92915050565b6104f73382611198565b50565b6001600160a01b0381166000908152600760205260408120546104e79061122e565b6001600160a01b0381166000908152600560205260408120546104e7565b600042821061055b5760405162461bcd60e51b815260040161047290611b6b565b6104e76008836110bf565b60606004805461036190611c02565b6001600160a01b03811660009081526007602052604081205480156105f7576001600160a01b03831660009081526007602052604090206105b7600183611beb565b815481106105d557634e487b7160e01b600052603260045260246000fd5b60009182526020909120600160029092020101546001600160e01b03166105fa565b60005b6001600160e01b03169392505050565b600033816106188286610947565b9050838110156106785760405162461bcd60e51b815260206004820152602560248201527f45524332303a2064656372656173656420616c6c6f77616e63652062656c6f77604482015264207a65726f60d81b6064820152608401610472565b6104158286868403610c2c565b6000336103f2818585610dc4565b834211156106f25760405162461bcd60e51b815260206004820152602660248201527f4552433230566f74657354696d657374616d703a207369676e617475726520656044820152651e1c1a5c995960d21b6064820152608401610472565b604080517fe48329057bfd03d55e49b547132e39cffd9c1820ad7b9d4c5307691425d15adf60208201526001600160a01b03881691810191909152606081018690526080810185905260009061076c906107649060a00160405160208183030381529060405280519060200120611293565b8585856112e1565b905061077781611309565b86146107d05760405162461bcd60e51b815260206004820152602260248201527f4552433230566f74657354696d657374616d703a20696e76616c6964206e6f6e604482015261636560f01b6064820152608401610472565b6107da8188611198565b50505050505050565b834211156108335760405162461bcd60e51b815260206004820152601d60248201527f45524332305065726d69743a206578706972656420646561646c696e650000006044820152606401610472565b60007f00000000000000000000000000000000000000000000000000000000000000008888886108628c611309565b6040805160208101969096526001600160a01b0394851690860152929091166060840152608083015260a082015260c0810186905260e00160405160208183030381529060405280519060200120905060006108bd82611293565b905060006108cd828787876112e1565b9050896001600160a01b0316816001600160a01b0316146109305760405162461bcd60e51b815260206004820152601e60248201527f45524332305065726d69743a20696e76616c6964207369676e617475726500006044820152606401610472565b61093b8a8a8a610c2c565b50505050505050505050565b6001600160a01b03918216600090815260016020908152604080832093909416825291909152205490565b60408051808201909152600080825260208201526001600160a01b0383166000908152600760205260409020805463ffffffff84169081106109c457634e487b7160e01b600052603260045260246000fd5b60009182526020918290206040805180820190915260029092020180548252600101546001600160e01b031691810191909152905092915050565b610a098282610a9c565b6002546001600160e01b031015610a885760405162461bcd60e51b815260206004820152603960248201527f4552433230566f74657354696d657374616d703a20746f74616c20737570706c60448201527f79207269736b73206f766572666c6f77696e6720766f746573000000000000006064820152608401610472565b610a966008610b8783611331565b50505050565b6001600160a01b038216610af25760405162461bcd60e51b815260206004820152601f60248201527f45524332303a206d696e7420746f20746865207a65726f2061646472657373006044820152606401610472565b8060026000828254610b049190611bb3565b90915550506001600160a01b03821660009081526020819052604081208054839290610b31908490611bb3565b90915550506040518181526001600160a01b038316906000907fddf252ad1be2c89b69c2b068fc378daa952ba7f163c4a11628f55a4df523b3ef9060200160405180910390a3610b83600083836114d4565b5050565b600061049d8284611bb3565b60006001600160e01b03821115610bfc5760405162461bcd60e51b815260206004820152602760248201527f53616665436173743a2076616c756520646f65736e27742066697420696e20326044820152663234206269747360c81b6064820152608401610472565b5090565b610c1b610c0c846104a4565b610c15846104a4565b836114df565b505050565b600061049d8284611beb565b6001600160a01b038316610c8e5760405162461bcd60e51b8152602060048201526024808201527f45524332303a20617070726f76652066726f6d20746865207a65726f206164646044820152637265737360e01b6064820152608401610472565b6001600160a01b038216610cef5760405162461bcd60e51b815260206004820152602260248201527f45524332303a20617070726f766520746f20746865207a65726f206164647265604482015261737360f01b6064820152608401610472565b6001600160a01b0383811660008181526001602090815260408083209487168084529482529182902085905590518481527f8c5be1e5ebec7d5bd14f71427d1e84f3dd0314c0f7b2291e5b200ac8c7c3b925910160405180910390a3505050565b6000610d5c8484610947565b90506000198114610a965781811015610db75760405162461bcd60e51b815260206004820152601d60248201527f45524332303a20696e73756666696369656e7420616c6c6f77616e63650000006044820152606401610472565b610a968484848403610c2c565b6001600160a01b038316610e285760405162461bcd60e51b815260206004820152602560248201527f45524332303a207472616e736665722066726f6d20746865207a65726f206164604482015264647265737360d81b6064820152608401610472565b6001600160a01b038216610e8a5760405162461bcd60e51b815260206004820152602360248201527f45524332303a207472616e7366657220746f20746865207a65726f206164647260448201526265737360e81b6064820152608401610472565b6001600160a01b03831660009081526020819052604090205481811015610f025760405162461bcd60e51b815260206004820152602660248201527f45524332303a207472616e7366657220616d6f756e7420657863656564732062604482015265616c616e636560d01b6064820152608401610472565b6001600160a01b03808516600090815260208190526040808220858503905591851681529081208054849290610f39908490611bb3565b92505081905550826001600160a01b0316846001600160a01b03167fddf252ad1be2c89b69c2b068fc378daa952ba7f163c4a11628f55a4df523b3ef84604051610f8591815260200190565b60405180910390a3610a968484846114d4565b6000306001600160a01b037f000000000000000000000000000000000000000000000000000000000000000016148015610ff157507f000000000000000000000000000000000000000000000000000000000000000046145b1561101b57507f000000000000000000000000000000000000000000000000000000000000000090565b50604080517f00000000000000000000000000000000000000000000000000000000000000006020808301919091527f0000000000000000000000000000000000000000000000000000000000000000828401527f000000000000000000000000000000000000000000000000000000000000000060608301524660808301523060a0808401919091528351808403909101815260c0909201909252805191012090565b8154600090815b818110156111315760006110da828461161c565b9050848682815481106110fd57634e487b7160e01b600052603260045260246000fd5b906000526020600020906002020160000154111561111d5780925061112b565b611128816001611bb3565b91505b506110c6565b81156111835784611143600184611beb565b8154811061116157634e487b7160e01b600052603260045260246000fd5b60009182526020909120600160029092020101546001600160e01b0316611186565b60005b6001600160e01b031695945050505050565b60006111a3836104a4565b905060006111c6846001600160a01b031660009081526020819052604090205490565b6001600160a01b0385811660008181526006602052604080822080546001600160a01b031916898616908117909155905194955093928616927f3134e8a2e6d97e929a7e54011ea5485d7d196dd5f0ba4d4ef95803e8e3fc257f9190a4610a968284836114df565b600063ffffffff821115610bfc5760405162461bcd60e51b815260206004820152602660248201527f53616665436173743a2076616c756520646f65736e27742066697420696e203360448201526532206269747360d01b6064820152608401610472565b60006104e76112a0610f98565b8360405161190160f01b6020820152602281018390526042810182905260009060620160405160208183030381529060405280519060200120905092915050565b60008060006112f287878787611637565b915091506112ff81611724565b5095945050505050565b6001600160a01b03811660009081526005602052604090208054600181018255905b50919050565b82546000908190801561138a578561134a600183611beb565b8154811061136857634e487b7160e01b600052603260045260246000fd5b60009182526020909120600160029092020101546001600160e01b031661138d565b60005b6001600160e01b031692506113a683858763ffffffff16565b91506000811180156113f2575042866113c0600184611beb565b815481106113de57634e487b7160e01b600052603260045260246000fd5b906000526020600020906002020160000154145b156114645761140082610b93565b8661140c600184611beb565b8154811061142a57634e487b7160e01b600052603260045260246000fd5b906000526020600020906002020160010160006101000a8154816001600160e01b0302191690836001600160e01b031602179055506114cb565b85604051806040016040528042815260200161147f85610b93565b6001600160e01b03908116909152825460018181018555600094855260209485902084516002909302019182559390920151919092018054919092166001600160e01b03199091161790555b50935093915050565b610c1b838383610c00565b816001600160a01b0316836001600160a01b0316141580156115015750600081115b15610c1b576001600160a01b0383161561158f576001600160a01b0383166000908152600760205260408120819061153c90610c2085611331565b91509150846001600160a01b03167fdec2bacdd2f05b59de34da9b523dff8be42e5e38e818c82fdb0bae774387a7248383604051611584929190918252602082015260400190565b60405180910390a250505b6001600160a01b03821615610c1b576001600160a01b038216600090815260076020526040812081906115c590610b8785611331565b91509150836001600160a01b03167fdec2bacdd2f05b59de34da9b523dff8be42e5e38e818c82fdb0bae774387a724838360405161160d929190918252602082015260400190565b60405180910390a25050505050565b600061162b6002848418611bcb565b61049d90848416611bb3565b6000807f7fffffffffffffffffffffffffffffff5d576e7357a4501ddfe92f46681b20a083111561166e575060009050600361171b565b8460ff16601b1415801561168657508460ff16601c14155b15611697575060009050600461171b565b6040805160008082526020820180845289905260ff881692820192909252606081018690526080810185905260019060a0016020604051602081039080840390855afa1580156116eb573d6000803e3d6000fd5b5050604051601f1901519150506001600160a01b0381166117145760006001925092505061171b565b9150600090505b94509492505050565b600081600481111561174657634e487b7160e01b600052602160045260246000fd5b141561174f5750565b600181600481111561177157634e487b7160e01b600052602160045260246000fd5b14156117bf5760405162461bcd60e51b815260206004820152601860248201527f45434453413a20696e76616c6964207369676e617475726500000000000000006044820152606401610472565b60028160048111156117e157634e487b7160e01b600052602160045260246000fd5b141561182f5760405162461bcd60e51b815260206004820152601f60248201527f45434453413a20696e76616c6964207369676e6174757265206c656e677468006044820152606401610472565b600381600481111561185157634e487b7160e01b600052602160045260246000fd5b14156118aa5760405162461bcd60e51b815260206004820152602260248201527f45434453413a20696e76616c6964207369676e6174757265202773272076616c604482015261756560f01b6064820152608401610472565b60048160048111156118cc57634e487b7160e01b600052602160045260246000fd5b14156104f75760405162461bcd60e51b815260206004820152602260248201527f45434453413a20696e76616c6964207369676e6174757265202776272076616c604482015261756560f01b6064820152608401610472565b80356001600160a01b038116811461193c57600080fd5b919050565b803560ff8116811461193c57600080fd5b600060208284031215611963578081fd5b61049d82611925565b6000806040838503121561197e578081fd5b61198783611925565b915061199560208401611925565b90509250929050565b6000806000606084860312156119b2578081fd5b6119bb84611925565b92506119c960208501611925565b9150604084013590509250925092565b600080600080600080600060e0888a0312156119f3578283fd5b6119fc88611925565b9650611a0a60208901611925565b95506040880135945060608801359350611a2660808901611941565b925060a0880135915060c0880135905092959891949750929550565b60008060408385031215611a54578182fd5b611a5d83611925565b946020939093013593505050565b60008060008060008060c08789031215611a83578182fd5b611a8c87611925565b95506020870135945060408701359350611aa860608801611941565b92506080870135915060a087013590509295509295509295565b60008060408385031215611ad4578182fd5b611add83611925565b9150602083013563ffffffff81168114611af5578182fd5b809150509250929050565b600060208284031215611b11578081fd5b5035919050565b6000602080835283518082850152825b81811015611b4457858101830151858201604001528201611b28565b81811115611b555783604083870101525b50601f01601f1916929092016040019392505050565b60208082526028908201527f4552433230566f74657354696d657374616d703a20626c6f636b206e6f742079604082015267195d081b5a5b995960c21b606082015260800190565b60008219821115611bc657611bc6611c37565b500190565b600082611be657634e487b7160e01b81526012600452602481fd5b500490565b600082821015611bfd57611bfd611c37565b500390565b600181811c90821680611c1657607f821691505b6020821081141561132b57634e487b7160e01b600052602260045260246000fd5b634e487b7160e01b600052601160045260246000fdfea2646970667358221220fd7c9f8b955009c882a57e1989493b8536f85edc78901b2227bef93f137b9bd864736f6c63430008040033dec2bacdd2f05b59de34da9b523dff8be42e5e38e818c82fdb0bae774387a724",
  "linkReferences": {},
  "deployedLinkReferences": {}
}