{
  "_format": "hh-sol-artifact-1",
  "contractName": "GenericVotesTimestampToken",
  "sourceName": "contracts/GenericVotesTimestampToken.sol",
  "abi": [
    {
      "inputs": [
        {
          "internalType": "string",
          "name": "_name",
          "type": "string"
        },
        {
          "internalType": "string",
          "name": "_symbol",
          "type": "string"
        },
        {
          "internalType": "address",
          "name": "_mintRecipient",
          "type": "address"
        },
        {
          "internalType": "uint256",
          "name": "_amountToMint",
          "type": "uint256"
        },
        {
          "internalType": "bool",
          "name": "_nontransferable",
          "type": "bool"
        }
      ],
      "stateMutability": "nonpayable",
      "type": "constructor"
    },
    {
      "anonymous": false,
      "inputs": [
        {
          "indexed": true,
          "internalType": "address",
          "name": "owner",
          "type": "address"
        },
        {
          "indexed": true,
          "internalType": "address",
          "name": "spender",
          "type": "address"
        },
        {
          "indexed": false,
          "internalType": "uint256",
          "name": "value",
          "type": "uint256"
        }
      ],
      "name": "Approval",
      "type": "event"
    },
    {
      "anonymous": false,
      "inputs": [
        {
          "indexed": true,
          "internalType": "address",
          "name": "delegator",
          "type": "address"
        },
        {
          "indexed": true,
          "internalType": "address",
          "name": "fromDelegate",
          "type": "address"
        },
        {
          "indexed": true,
          "internalType": "address",
          "name": "toDelegate",
          "type": "address"
        }
      ],
      "name": "DelegateChanged",
      "type": "event"
    },
    {
      "anonymous": false,
      "inputs": [
        {
          "indexed": true,
          "internalType": "address",
          "name": "delegate",
          "type": "address"
        },
        {
          "indexed": false,
          "internalType": "uint256",
          "name": "previousBalance",
          "type": "uint256"
        },
        {
          "indexed": false,
          "internalType": "uint256",
          "name": "newBalance",
          "type": "uint256"
        }
      ],
      "name": "DelegateVotesChanged",
      "type": "event"
    },
    {
      "anonymous": false,
      "inputs": [
        {
          "indexed": true,
          "internalType": "address",
          "name": "from",
          "type": "address"
        },
        {
          "indexed": true,
          "internalType": "address",
          "name": "to",
          "type": "address"
        },
        {
          "indexed": false,
          "internalType": "uint256",
          "name": "value",
          "type": "uint256"
        }
      ],
      "name": "Transfer",
      "type": "event"
    },
    {
      "inputs": [],
      "name": "DOMAIN_SEPARATOR",
      "outputs": [
        {
          "internalType": "bytes32",
          "name": "",
          "type": "bytes32"
        }
      ],
      "stateMutability": "view",
      "type": "function"
    },
    {
      "inputs": [],
      "name": "_minter",
      "outputs": [
        {
          "internalType": "address",
          "name": "",
          "type": "address"
        }
      ],
      "stateMutability": "view",
      "type": "function"
    },
    {
      "inputs": [],
      "name": "_nontransferable",
      "outputs": [
        {
          "internalType": "bool",
          "name": "",
          "type": "bool"
        }
      ],
      "stateMutability": "view",
      "type": "function"
    },
    {
      "inputs": [
        {
          "internalType": "address",
          "name": "owner",
          "type": "address"
        },
        {
          "internalType": "address",
          "name": "spender",
          "type": "address"
        }
      ],
      "name": "allowance",
      "outputs": [
        {
          "internalType": "uint256",
          "name": "",
          "type": "uint256"
        }
      ],
      "stateMutability": "view",
      "type": "function"
    },
    {
      "inputs": [
        {
          "internalType": "address",
          "name": "spender",
          "type": "address"
        },
        {
          "internalType": "uint256",
          "name": "amount",
          "type": "uint256"
        }
      ],
      "name": "approve",
      "outputs": [
        {
          "internalType": "bool",
          "name": "",
          "type": "bool"
        }
      ],
      "stateMutability": "nonpayable",
      "type": "function"
    },
    {
      "inputs": [
        {
          "internalType": "address",
          "name": "account",
          "type": "address"
        }
      ],
      "name": "balanceOf",
      "outputs": [
        {
          "internalType": "uint256",
          "name": "",
          "type": "uint256"
        }
      ],
      "stateMutability": "view",
      "type": "function"
    },
    {
      "inputs": [
        {
          "internalType": "address",
          "name": "account",
          "type": "address"
        },
        {
          "internalType": "uint32",
          "name": "pos",
          "type": "uint32"
        }
      ],
      "name": "checkpoints",
      "outputs": [
        {
          "components": [
            {
              "internalType": "uint256",
              "name": "fromTimestamp",
              "type": "uint256"
            },
            {
              "internalType": "uint224",
              "name": "votes",
              "type": "uint224"
            }
          ],
          "internalType": "struct ERC20VotesTimestamp.Checkpoint",
          "name": "",
          "type": "tuple"
        }
      ],
      "stateMutability": "view",
      "type": "function"
    },
    {
      "inputs": [],
      "name": "decimals",
      "outputs": [
        {
          "internalType": "uint8",
          "name": "",
          "type": "uint8"
        }
      ],
      "stateMutability": "view",
      "type": "function"
    },
    {
      "inputs": [
        {
          "internalType": "address",
          "name": "spender",
          "type": "address"
        },
        {
          "internalType": "uint256",
          "name": "subtractedValue",
          "type": "uint256"
        }
      ],
      "name": "decreaseAllowance",
      "outputs": [
        {
          "internalType": "bool",
          "name": "",
          "type": "bool"
        }
      ],
      "stateMutability": "nonpayable",
      "type": "function"
    },
    {
      "inputs": [
        {
          "internalType": "address",
          "name": "delegatee",
          "type": "address"
        }
      ],
      "name": "delegate",
      "outputs": [],
      "stateMutability": "nonpayable",
      "type": "function"
    },
    {
      "inputs": [
        {
          "internalType": "address",
          "name": "delegatee",
          "type": "address"
        },
        {
          "internalType": "uint256",
          "name": "nonce",
          "type": "uint256"
        },
        {
          "internalType": "uint256",
          "name": "expiry",
          "type": "uint256"
        },
        {
          "internalType": "uint8",
          "name": "v",
          "type": "uint8"
        },
        {
          "internalType": "bytes32",
          "name": "r",
          "type": "bytes32"
        },
        {
          "internalType": "bytes32",
          "name": "s",
          "type": "bytes32"
        }
      ],
      "name": "delegateBySig",
      "outputs": [],
      "stateMutability": "nonpayable",
      "type": "function"
    },
    {
      "inputs": [
        {
          "internalType": "address",
          "name": "account",
          "type": "address"
        }
      ],
      "name": "delegates",
      "outputs": [
        {
          "internalType": "address",
          "name": "",
          "type": "address"
        }
      ],
      "stateMutability": "view",
      "type": "function"
    },
    {
      "inputs": [
        {
          "internalType": "uint256",
          "name": "timestamp",
          "type": "uint256"
        }
      ],
      "name": "getPastTotalSupply",
      "outputs": [
        {
          "internalType": "uint256",
          "name": "",
          "type": "uint256"
        }
      ],
      "stateMutability": "view",
      "type": "function"
    },
    {
      "inputs": [
        {
          "internalType": "address",
          "name": "account",
          "type": "address"
        },
        {
          "internalType": "uint256",
          "name": "timestamp",
          "type": "uint256"
        }
      ],
      "name": "getPastVotes",
      "outputs": [
        {
          "internalType": "uint256",
          "name": "",
          "type": "uint256"
        }
      ],
      "stateMutability": "view",
      "type": "function"
    },
    {
      "inputs": [
        {
          "internalType": "address",
          "name": "account",
          "type": "address"
        }
      ],
      "name": "getVotes",
      "outputs": [
        {
          "internalType": "uint256",
          "name": "",
          "type": "uint256"
        }
      ],
      "stateMutability": "view",
      "type": "function"
    },
    {
      "inputs": [
        {
          "internalType": "address",
          "name": "spender",
          "type": "address"
        },
        {
          "internalType": "uint256",
          "name": "addedValue",
          "type": "uint256"
        }
      ],
      "name": "increaseAllowance",
      "outputs": [
        {
          "internalType": "bool",
          "name": "",
          "type": "bool"
        }
      ],
      "stateMutability": "nonpayable",
      "type": "function"
    },
    {
      "inputs": [],
      "name": "name",
      "outputs": [
        {
          "internalType": "string",
          "name": "",
          "type": "string"
        }
      ],
      "stateMutability": "view",
      "type": "function"
    },
    {
      "inputs": [
        {
          "internalType": "address",
          "name": "owner",
          "type": "address"
        }
      ],
      "name": "nonces",
      "outputs": [
        {
          "internalType": "uint256",
          "name": "",
          "type": "uint256"
        }
      ],
      "stateMutability": "view",
      "type": "function"
    },
    {
      "inputs": [
        {
          "internalType": "address",
          "name": "account",
          "type": "address"
        }
      ],
      "name": "numCheckpoints",
      "outputs": [
        {
          "internalType": "uint32",
          "name": "",
          "type": "uint32"
        }
      ],
      "stateMutability": "view",
      "type": "function"
    },
    {
      "inputs": [
        {
          "internalType": "address",
          "name": "owner",
          "type": "address"
        },
        {
          "internalType": "address",
          "name": "spender",
          "type": "address"
        },
        {
          "internalType": "uint256",
          "name": "value",
          "type": "uint256"
        },
        {
          "internalType": "uint256",
          "name": "deadline",
          "type": "uint256"
        },
        {
          "internalType": "uint8",
          "name": "v",
          "type": "uint8"
        },
        {
          "internalType": "bytes32",
          "name": "r",
          "type": "bytes32"
        },
        {
          "internalType": "bytes32",
          "name": "s",
          "type": "bytes32"
        }
      ],
      "name": "permit",
      "outputs": [],
      "stateMutability": "nonpayable",
      "type": "function"
    },
    {
      "inputs": [],
      "name": "symbol",
      "outputs": [
        {
          "internalType": "string",
          "name": "",
          "type": "string"
        }
      ],
      "stateMutability": "view",
      "type": "function"
    },
    {
      "inputs": [],
      "name": "totalSupply",
      "outputs": [
        {
          "internalType": "uint256",
          "name": "",
          "type": "uint256"
        }
      ],
      "stateMutability": "view",
      "type": "function"
    },
    {
      "inputs": [
        {
          "internalType": "address",
          "name": "to",
          "type": "address"
        },
        {
          "internalType": "uint256",
          "name": "amount",
          "type": "uint256"
        }
      ],
      "name": "transfer",
      "outputs": [
        {
          "internalType": "bool",
          "name": "",
          "type": "bool"
        }
      ],
      "stateMutability": "nonpayable",
      "type": "function"
    },
    {
      "inputs": [
        {
          "internalType": "address",
          "name": "from",
          "type": "address"
        },
        {
          "internalType": "address",
          "name": "to",
          "type": "address"
        },
        {
          "internalType": "uint256",
          "name": "amount",
          "type": "uint256"
        }
      ],
      "name": "transferFrom",
      "outputs": [
        {
          "internalType": "bool",
          "name": "",
          "type": "bool"
        }
      ],
      "stateMutability": "nonpayable",
      "type": "function"
    }
  ],
  "bytecode": "0x6101606040527f6e71edae12b1b97f4d1f60370fef10105fa2faae0126114a169c64845d6126c9610140523480156200003757600080fd5b50604051620029fd380380620029fd8339810160408190526200005a9162000a3b565b808580604051806040016040528060018152602001603160f81b8152508888816003908051906020019062000091929190620008ec565b508051620000a7906004906020840190620008ec565b5050825160208085019190912083518483012060e08290526101008190524660a0818152604080517f8b73c3c69bb8fe3d512ecc4cf759cc79239f7b179b0ffacaa9a75d522b39400f81880181905281830187905260608201869052608082019490945230818401528151808203909301835260c0019052805194019390932091935091906080523060601b60c05261012052505060098054941515600160a01b0260ff60a01b1990951694909417909355506200016a91508490508362000175565b505050505062000b85565b6200018c82826200019060201b62000a3c1760201c565b5050565b620001a782826200026f60201b62000af41760201c565b6001600160e01b03620001bb6200036c8216565b1115620002355760405162461bcd60e51b815260206004820152603960248201527f4552433230566f74657354696d657374616d703a20746f74616c20737570706c60448201527f79207269736b73206f766572666c6f77696e6720766f7465730000000000000060648201526084015b60405180910390fd5b600980546001600160a01b0319166001600160a01b0384161790556200026960086200037260201b62000beb178362000387565b50505050565b6001600160a01b038216620002c75760405162461bcd60e51b815260206004820152601f60248201527f45524332303a206d696e7420746f20746865207a65726f20616464726573730060448201526064016200022c565b620002d56000838362000550565b8060026000828254620002e9919062000ae7565b90915550506001600160a01b038216600090815260208190526040812080548392906200031890849062000ae7565b90915550506040518181526001600160a01b038316906000907fddf252ad1be2c89b69c2b068fc378daa952ba7f163c4a11628f55a4df523b3ef9060200160405180910390a36200018c600083836200056d565b60025490565b600062000380828462000ae7565b9392505050565b825460009081908015620003e55785620003a360018362000b02565b81548110620003c257634e487b7160e01b600052603260045260246000fd5b60009182526020909120600160029092020101546001600160e01b0316620003e8565b60005b6001600160e01b03169250620003ff83858760201c565b91506000811180156200044f575042866200041c60018462000b02565b815481106200043b57634e487b7160e01b600052603260045260246000fd5b906000526020600020906002020160000154145b15620004d3576200046b826200058560201b62000bf71760201c565b866200047960018462000b02565b815481106200049857634e487b7160e01b600052603260045260246000fd5b906000526020600020906002020160010160006101000a8154816001600160e01b0302191690836001600160e01b0316021790555062000547565b856040518060400160405280428152602001620004fb856200058560201b62000bf71760201c565b6001600160e01b03908116909152825460018181018555600094855260209485902084516002909302019182559390920151919092018054919092166001600160e01b03199091161790555b50935093915050565b62000568838383620005f460201b62000c641760201c565b505050565b620005688383836200071f60201b62000d661760201c565b60006001600160e01b03821115620005f05760405162461bcd60e51b815260206004820152602760248201527f53616665436173743a2076616c756520646f65736e27742066697420696e20326044820152663234206269747360c81b60648201526084016200022c565b5090565b6200060c8383836200056860201b62000d611760201c565b600954600160a01b900460ff161562000568576009546001600160a01b03848116911614806200066357506009546001600160a01b0390811660009081526001602090815260408083209387168352929052205415155b806200067657506001600160a01b038316155b620005685760405162461bcd60e51b815260206004820152606660248201527f4552433230566f74657354696d657374616d703a20746f6b656e206973206e6f60448201527f6e2d7472616e7366657261626c6520756e6c6573732066726f6d206d696e746560648201527f72206f7220616e206164647265737320617070726f766564206279207468652060848201526536b4b73a32b960d11b60a482015260c4016200022c565b620007378383836200056860201b62000d611760201c565b62000568620007468462000758565b620007518462000758565b83620007a3565b6001600160a01b038181166000908152600660205260408120549091166200078157816200079d565b6001600160a01b03808316600090815260066020526040902054165b92915050565b816001600160a01b0316836001600160a01b031614158015620007c65750600081115b1562000568576001600160a01b0383161562000853576001600160a01b038316600090815260076020908152604082208291620008109190620008de901b62000d81178562000387565b91509150846001600160a01b0316600080516020620029dd833981519152838360405162000848929190918252602082015260400190565b60405180910390a250505b6001600160a01b0382161562000568576001600160a01b03821660009081526007602090815260408220829162000897919062000372901b62000beb178562000387565b91509150836001600160a01b0316600080516020620029dd8339815191528383604051620008cf929190918252602082015260400190565b60405180910390a25050505050565b600062000380828462000b02565b828054620008fa9062000b1c565b90600052602060002090601f0160209004810192826200091e576000855562000969565b82601f106200093957805160ff191683800117855562000969565b8280016001018555821562000969579182015b82811115620009695782518255916020019190600101906200094c565b50620005f09291505b80821115620005f0576000815560010162000972565b600082601f83011262000999578081fd5b81516001600160401b0380821115620009b657620009b662000b6f565b604051601f8301601f19908116603f01168101908282118183101715620009e157620009e162000b6f565b81604052838152602092508683858801011115620009fd578485fd5b8491505b8382101562000a20578582018301518183018401529082019062000a01565b8382111562000a3157848385830101525b9695505050505050565b600080600080600060a0868803121562000a53578081fd5b85516001600160401b038082111562000a6a578283fd5b62000a7889838a0162000988565b9650602088015191508082111562000a8e578283fd5b5062000a9d8882890162000988565b604088015190955090506001600160a01b038116811462000abc578182fd5b606087015160808801519194509250801515811462000ad9578182fd5b809150509295509295909350565b6000821982111562000afd5762000afd62000b59565b500190565b60008282101562000b175762000b1762000b59565b500390565b600181811c9082168062000b3157607f821691505b6020821081141562000b5357634e487b7160e01b600052602260045260246000fd5b50919050565b634e487b7160e01b600052601160045260246000fd5b634e487b7160e01b600052604160045260246000fd5b60805160a05160c05160601c60e051610100516101205161014051611dfa62000be360003960006108740152600061118e015260006111dd015260006111b8015260006111110152600061113b015260006111650152611dfa6000f3fe608060405234801561001057600080fd5b50600436106101585760003560e01c8063709f6950116100c3578063a457c2d71161007c578063a457c2d7146102f9578063a9059cbb1461030c578063c3cda5201461031f578063d505accf14610332578063dd62ed3e14610345578063f1127ed81461035857600080fd5b8063709f69501461027b57806370a082311461028f5780637ecebe00146102b85780638e539e8c146102cb57806395d89b41146102de5780639ab24eb0146102e657600080fd5b8063395093511161011557806339509351146101da5780633a46b1a8146101ed578063578ec33f14610200578063587cde1e1461022b5780635c19a95c1461023e5780636fcfff451461025357600080fd5b806306fdde031461015d578063095ea7b31461017b57806318160ddd1461019e57806323b872dd146101b0578063313ce567146101c35780633644e515146101d2575b600080fd5b61016561038f565b6040516101729190611c8f565b60405180910390f35b61018e610189366004611bb9565b610421565b6040519015158152602001610172565b6002545b604051908152602001610172565b61018e6101be366004611b15565b610439565b60405160128152602001610172565b6101a261045d565b61018e6101e8366004611bb9565b61046c565b6101a26101fb366004611bb9565b61048e565b600954610213906001600160a01b031681565b6040516001600160a01b039091168152602001610172565b610213610239366004611ac9565b6104e1565b61025161024c366004611ac9565b61052a565b005b610266610261366004611ac9565b610537565b60405163ffffffff9091168152602001610172565b60095461018e90600160a01b900460ff1681565b6101a261029d366004611ac9565b6001600160a01b031660009081526020819052604090205490565b6101a26102c6366004611ac9565b610559565b6101a26102d9366004611c77565b610577565b6101656105a3565b6101a26102f4366004611ac9565b6105b2565b61018e610307366004611bb9565b610647565b61018e61031a366004611bb9565b6106c2565b61025161032d366004611be2565b6106d0565b610251610340366004611b50565b610820565b6101a2610353366004611ae3565b610984565b61036b610366366004611c39565b6109af565b60408051825181526020928301516001600160e01b03169281019290925201610172565b60606003805461039e90611d79565b80601f01602080910402602001604051908101604052809291908181526020018280546103ca90611d79565b80156104175780601f106103ec57610100808354040283529160200191610417565b820191906000526020600020905b8154815290600101906020018083116103fa57829003601f168201915b5050505050905090565b60003361042f818585610d8d565b5060019392505050565b600033610447858285610eb1565b610452858585610f25565b506001949350505050565b6000610467611104565b905090565b60003361042f81858561047f8383610984565b6104899190611d2a565b610d8d565b60004282106104b85760405162461bcd60e51b81526004016104af90611ce2565b60405180910390fd5b6001600160a01b03831660009081526007602052604090206104da908361122b565b9392505050565b6001600160a01b038181166000908152600660205260408120549091166105085781610524565b6001600160a01b03808316600090815260066020526040902054165b92915050565b6105343382611304565b50565b6001600160a01b0381166000908152600760205260408120546105249061139a565b6001600160a01b038116600090815260056020526040812054610524565b60004282106105985760405162461bcd60e51b81526004016104af90611ce2565b61052460088361122b565b60606004805461039e90611d79565b6001600160a01b0381166000908152600760205260408120548015610634576001600160a01b03831660009081526007602052604090206105f4600183611d62565b8154811061061257634e487b7160e01b600052603260045260246000fd5b60009182526020909120600160029092020101546001600160e01b0316610637565b60005b6001600160e01b03169392505050565b600033816106558286610984565b9050838110156106b55760405162461bcd60e51b815260206004820152602560248201527f45524332303a2064656372656173656420616c6c6f77616e63652062656c6f77604482015264207a65726f60d81b60648201526084016104af565b6104528286868403610d8d565b60003361042f818585610f25565b8342111561072f5760405162461bcd60e51b815260206004820152602660248201527f4552433230566f74657354696d657374616d703a207369676e617475726520656044820152651e1c1a5c995960d21b60648201526084016104af565b604080517fe48329057bfd03d55e49b547132e39cffd9c1820ad7b9d4c5307691425d15adf60208201526001600160a01b0388169181019190915260608101869052608081018590526000906107a9906107a19060a001604051602081830303815290604052805190602001206113ff565b85858561144d565b90506107b481611475565b861461080d5760405162461bcd60e51b815260206004820152602260248201527f4552433230566f74657354696d657374616d703a20696e76616c6964206e6f6e604482015261636560f01b60648201526084016104af565b6108178188611304565b50505050505050565b834211156108705760405162461bcd60e51b815260206004820152601d60248201527f45524332305065726d69743a206578706972656420646561646c696e6500000060448201526064016104af565b60007f000000000000000000000000000000000000000000000000000000000000000088888861089f8c611475565b6040805160208101969096526001600160a01b0394851690860152929091166060840152608083015260a082015260c0810186905260e00160405160208183030381529060405280519060200120905060006108fa826113ff565b9050600061090a8287878761144d565b9050896001600160a01b0316816001600160a01b03161461096d5760405162461bcd60e51b815260206004820152601e60248201527f45524332305065726d69743a20696e76616c6964207369676e6174757265000060448201526064016104af565b6109788a8a8a610d8d565b50505050505050505050565b6001600160a01b03918216600090815260016020908152604080832093909416825291909152205490565b60408051808201909152600080825260208201526001600160a01b0383166000908152600760205260409020805463ffffffff8416908110610a0157634e487b7160e01b600052603260045260246000fd5b60009182526020918290206040805180820190915260029092020180548252600101546001600160e01b031691810191909152905092915050565b610a468282610af4565b6002546001600160e01b031015610ac55760405162461bcd60e51b815260206004820152603960248201527f4552433230566f74657354696d657374616d703a20746f74616c20737570706c60448201527f79207269736b73206f766572666c6f77696e6720766f7465730000000000000060648201526084016104af565b600980546001600160a01b0319166001600160a01b038416179055610aee6008610beb8361149d565b50505050565b6001600160a01b038216610b4a5760405162461bcd60e51b815260206004820152601f60248201527f45524332303a206d696e7420746f20746865207a65726f20616464726573730060448201526064016104af565b610b5660008383611640565b8060026000828254610b689190611d2a565b90915550506001600160a01b03821660009081526020819052604081208054839290610b95908490611d2a565b90915550506040518181526001600160a01b038316906000907fddf252ad1be2c89b69c2b068fc378daa952ba7f163c4a11628f55a4df523b3ef9060200160405180910390a3610be76000838361164b565b5050565b60006104da8284611d2a565b60006001600160e01b03821115610c605760405162461bcd60e51b815260206004820152602760248201527f53616665436173743a2076616c756520646f65736e27742066697420696e20326044820152663234206269747360c81b60648201526084016104af565b5090565b600954600160a01b900460ff1615610d61576009546001600160a01b0384811691161480610ca85750600954600090610ca6906001600160a01b031685610984565b115b80610cba57506001600160a01b038316155b610d615760405162461bcd60e51b815260206004820152606660248201527f4552433230566f74657354696d657374616d703a20746f6b656e206973206e6f60448201527f6e2d7472616e7366657261626c6520756e6c6573732066726f6d206d696e746560648201527f72206f7220616e206164647265737320617070726f766564206279207468652060848201526536b4b73a32b960d11b60a482015260c4016104af565b505050565b610d61610d72846104e1565b610d7b846104e1565b83611656565b60006104da8284611d62565b6001600160a01b038316610def5760405162461bcd60e51b8152602060048201526024808201527f45524332303a20617070726f76652066726f6d20746865207a65726f206164646044820152637265737360e01b60648201526084016104af565b6001600160a01b038216610e505760405162461bcd60e51b815260206004820152602260248201527f45524332303a20617070726f766520746f20746865207a65726f206164647265604482015261737360f01b60648201526084016104af565b6001600160a01b0383811660008181526001602090815260408083209487168084529482529182902085905590518481527f8c5be1e5ebec7d5bd14f71427d1e84f3dd0314c0f7b2291e5b200ac8c7c3b925910160405180910390a3505050565b6000610ebd8484610984565b90506000198114610aee5781811015610f185760405162461bcd60e51b815260206004820152601d60248201527f45524332303a20696e73756666696369656e7420616c6c6f77616e636500000060448201526064016104af565b610aee8484848403610d8d565b6001600160a01b038316610f895760405162461bcd60e51b815260206004820152602560248201527f45524332303a207472616e736665722066726f6d20746865207a65726f206164604482015264647265737360d81b60648201526084016104af565b6001600160a01b038216610feb5760405162461bcd60e51b815260206004820152602360248201527f45524332303a207472616e7366657220746f20746865207a65726f206164647260448201526265737360e81b60648201526084016104af565b610ff6838383611640565b6001600160a01b0383166000908152602081905260409020548181101561106e5760405162461bcd60e51b815260206004820152602660248201527f45524332303a207472616e7366657220616d6f756e7420657863656564732062604482015265616c616e636560d01b60648201526084016104af565b6001600160a01b038085166000908152602081905260408082208585039055918516815290812080548492906110a5908490611d2a565b92505081905550826001600160a01b0316846001600160a01b03167fddf252ad1be2c89b69c2b068fc378daa952ba7f163c4a11628f55a4df523b3ef846040516110f191815260200190565b60405180910390a3610aee84848461164b565b6000306001600160a01b037f00000000000000000000000000000000000000000000000000000000000000001614801561115d57507f000000000000000000000000000000000000000000000000000000000000000046145b1561118757507f000000000000000000000000000000000000000000000000000000000000000090565b50604080517f00000000000000000000000000000000000000000000000000000000000000006020808301919091527f0000000000000000000000000000000000000000000000000000000000000000828401527f000000000000000000000000000000000000000000000000000000000000000060608301524660808301523060a0808401919091528351808403909101815260c0909201909252805191012090565b8154600090815b8181101561129d5760006112468284611793565b90508486828154811061126957634e487b7160e01b600052603260045260246000fd5b906000526020600020906002020160000154111561128957809250611297565b611294816001611d2a565b91505b50611232565b81156112ef57846112af600184611d62565b815481106112cd57634e487b7160e01b600052603260045260246000fd5b60009182526020909120600160029092020101546001600160e01b03166112f2565b60005b6001600160e01b031695945050505050565b600061130f836104e1565b90506000611332846001600160a01b031660009081526020819052604090205490565b6001600160a01b0385811660008181526006602052604080822080546001600160a01b031916898616908117909155905194955093928616927f3134e8a2e6d97e929a7e54011ea5485d7d196dd5f0ba4d4ef95803e8e3fc257f9190a4610aee828483611656565b600063ffffffff821115610c605760405162461bcd60e51b815260206004820152602660248201527f53616665436173743a2076616c756520646f65736e27742066697420696e203360448201526532206269747360d01b60648201526084016104af565b600061052461140c611104565b8360405161190160f01b6020820152602281018390526042810182905260009060620160405160208183030381529060405280519060200120905092915050565b600080600061145e878787876117ae565b9150915061146b8161189b565b5095945050505050565b6001600160a01b03811660009081526005602052604090208054600181018255905b50919050565b8254600090819080156114f657856114b6600183611d62565b815481106114d457634e487b7160e01b600052603260045260246000fd5b60009182526020909120600160029092020101546001600160e01b03166114f9565b60005b6001600160e01b0316925061151283858763ffffffff16565b915060008111801561155e5750428661152c600184611d62565b8154811061154a57634e487b7160e01b600052603260045260246000fd5b906000526020600020906002020160000154145b156115d05761156c82610bf7565b86611578600184611d62565b8154811061159657634e487b7160e01b600052603260045260246000fd5b906000526020600020906002020160010160006101000a8154816001600160e01b0302191690836001600160e01b03160217905550611637565b8560405180604001604052804281526020016115eb85610bf7565b6001600160e01b03908116909152825460018181018555600094855260209485902084516002909302019182559390920151919092018054919092166001600160e01b03199091161790555b50935093915050565b610d61838383610c64565b610d61838383610d66565b816001600160a01b0316836001600160a01b0316141580156116785750600081115b15610d61576001600160a01b03831615611706576001600160a01b038316600090815260076020526040812081906116b390610d818561149d565b91509150846001600160a01b03167fdec2bacdd2f05b59de34da9b523dff8be42e5e38e818c82fdb0bae774387a72483836040516116fb929190918252602082015260400190565b60405180910390a250505b6001600160a01b03821615610d61576001600160a01b0382166000908152600760205260408120819061173c90610beb8561149d565b91509150836001600160a01b03167fdec2bacdd2f05b59de34da9b523dff8be42e5e38e818c82fdb0bae774387a7248383604051611784929190918252602082015260400190565b60405180910390a25050505050565b60006117a26002848418611d42565b6104da90848416611d2a565b6000807f7fffffffffffffffffffffffffffffff5d576e7357a4501ddfe92f46681b20a08311156117e55750600090506003611892565b8460ff16601b141580156117fd57508460ff16601c14155b1561180e5750600090506004611892565b6040805160008082526020820180845289905260ff881692820192909252606081018690526080810185905260019060a0016020604051602081039080840390855afa158015611862573d6000803e3d6000fd5b5050604051601f1901519150506001600160a01b03811661188b57600060019250925050611892565b9150600090505b94509492505050565b60008160048111156118bd57634e487b7160e01b600052602160045260246000fd5b14156118c65750565b60018160048111156118e857634e487b7160e01b600052602160045260246000fd5b14156119365760405162461bcd60e51b815260206004820152601860248201527f45434453413a20696e76616c6964207369676e6174757265000000000000000060448201526064016104af565b600281600481111561195857634e487b7160e01b600052602160045260246000fd5b14156119a65760405162461bcd60e51b815260206004820152601f60248201527f45434453413a20696e76616c6964207369676e6174757265206c656e6774680060448201526064016104af565b60038160048111156119c857634e487b7160e01b600052602160045260246000fd5b1415611a215760405162461bcd60e51b815260206004820152602260248201527f45434453413a20696e76616c6964207369676e6174757265202773272076616c604482015261756560f01b60648201526084016104af565b6004816004811115611a4357634e487b7160e01b600052602160045260246000fd5b14156105345760405162461bcd60e51b815260206004820152602260248201527f45434453413a20696e76616c6964207369676e6174757265202776272076616c604482015261756560f01b60648201526084016104af565b80356001600160a01b0381168114611ab357600080fd5b919050565b803560ff81168114611ab357600080fd5b600060208284031215611ada578081fd5b6104da82611a9c565b60008060408385031215611af5578081fd5b611afe83611a9c565b9150611b0c60208401611a9c565b90509250929050565b600080600060608486031215611b29578081fd5b611b3284611a9c565b9250611b4060208501611a9c565b9150604084013590509250925092565b600080600080600080600060e0888a031215611b6a578283fd5b611b7388611a9c565b9650611b8160208901611a9c565b95506040880135945060608801359350611b9d60808901611ab8565b925060a0880135915060c0880135905092959891949750929550565b60008060408385031215611bcb578182fd5b611bd483611a9c565b946020939093013593505050565b60008060008060008060c08789031215611bfa578182fd5b611c0387611a9c565b95506020870135945060408701359350611c1f60608801611ab8565b92506080870135915060a087013590509295509295509295565b60008060408385031215611c4b578182fd5b611c5483611a9c565b9150602083013563ffffffff81168114611c6c578182fd5b809150509250929050565b600060208284031215611c88578081fd5b5035919050565b6000602080835283518082850152825b81811015611cbb57858101830151858201604001528201611c9f565b81811115611ccc5783604083870101525b50601f01601f1916929092016040019392505050565b60208082526028908201527f4552433230566f74657354696d657374616d703a20626c6f636b206e6f742079604082015267195d081b5a5b995960c21b606082015260800190565b60008219821115611d3d57611d3d611dae565b500190565b600082611d5d57634e487b7160e01b81526012600452602481fd5b500490565b600082821015611d7457611d74611dae565b500390565b600181811c90821680611d8d57607f821691505b6020821081141561149757634e487b7160e01b600052602260045260246000fd5b634e487b7160e01b600052601160045260246000fdfea2646970667358221220a9c84ae35fdea4f0a3cbcdb100d2f2c4243671d0e4dac7cbab5c1790737e040c64736f6c63430008040033dec2bacdd2f05b59de34da9b523dff8be42e5e38e818c82fdb0bae774387a724",
  "linkReferences": {},
  "deployedLinkReferences": {}
}