{
  "abi": [
    {
      "inputs": [
        {
          "internalType": "string",
          "name": "_name",
          "type": "string"
        },
        {
          "internalType": "string",
          "name": "_prompt",
          "type": "string"
        },
        {
          "internalType": "bytes32",
          "name": "_submissionMerkleRoot",
          "type": "bytes32"
        },
        {
          "internalType": "bytes32",
          "name": "_votingMerkleRoot",
          "type": "bytes32"
        },
        {
          "internalType": "uint256[]",
          "name": "_constructorIntParams",
          "type": "uint256[]"
        }
      ],
      "stateMutability": "nonpayable",
      "type": "constructor"
    },
    {
      "inputs": [],
      "name": "InvalidShortString",
      "type": "error"
    },
    {
      "inputs": [],
      "name": "NotInMerkle",
      "type": "error"
    },
    {
      "inputs": [
        {
          "internalType": "string",
          "name": "str",
          "type": "string"
        }
      ],
      "name": "StringTooLong",
      "type": "error"
    },
    {
      "anonymous": false,
      "inputs": [],
      "name": "ContestCanceled",
      "type": "event"
    },
    {
      "anonymous": false,
      "inputs": [
        {
          "indexed": false,
          "internalType": "uint256",
          "name": "oldContestStart",
          "type": "uint256"
        },
        {
          "indexed": false,
          "internalType": "uint256",
          "name": "newContestStart",
          "type": "uint256"
        }
      ],
      "name": "ContestStartSet",
      "type": "event"
    },
    {
      "anonymous": false,
      "inputs": [
        {
          "indexed": false,
          "internalType": "address",
          "name": "oldCreator",
          "type": "address"
        },
        {
          "indexed": false,
          "internalType": "address",
          "name": "newCreator",
          "type": "address"
        }
      ],
      "name": "CreatorSet",
      "type": "event"
    },
    {
      "anonymous": false,
      "inputs": [
        {
          "indexed": false,
          "internalType": "uint256",
          "name": "oldDownvotingAllowed",
          "type": "uint256"
        },
        {
          "indexed": false,
          "internalType": "uint256",
          "name": "newDownvotingAllowed",
          "type": "uint256"
        }
      ],
      "name": "DownvotingAllowedSet",
      "type": "event"
    },
    {
      "anonymous": false,
      "inputs": [],
      "name": "EIP712DomainChanged",
      "type": "event"
    },
    {
      "anonymous": false,
      "inputs": [
        {
          "indexed": false,
          "internalType": "uint256",
          "name": "oldMaxProposalCount",
          "type": "uint256"
        },
        {
          "indexed": false,
          "internalType": "uint256",
          "name": "newMaxProposalCount",
          "type": "uint256"
        }
      ],
      "name": "MaxProposalCountSet",
      "type": "event"
    },
    {
      "anonymous": false,
      "inputs": [
        {
          "indexed": false,
          "internalType": "uint256",
          "name": "oldNumAllowedProposalSubmissions",
          "type": "uint256"
        },
        {
          "indexed": false,
          "internalType": "uint256",
          "name": "newNumAllowedProposalSubmissions",
          "type": "uint256"
        }
      ],
      "name": "NumAllowedProposalSubmissionsSet",
      "type": "event"
    },
    {
      "anonymous": false,
      "inputs": [
        {
          "indexed": false,
          "internalType": "contract RewardsModule",
          "name": "oldOfficialRewardsModule",
          "type": "address"
        },
        {
          "indexed": false,
          "internalType": "contract RewardsModule",
          "name": "newOfficialRewardsModule",
          "type": "address"
        }
      ],
      "name": "OfficialRewardsModuleSet",
      "type": "event"
    },
    {
      "anonymous": false,
      "inputs": [
        {
          "indexed": false,
          "internalType": "uint256",
          "name": "proposalId",
          "type": "uint256"
        },
        {
          "indexed": false,
          "internalType": "string",
          "name": "description",
          "type": "string"
        },
        {
          "indexed": false,
          "internalType": "address",
          "name": "proposer",
          "type": "address"
        }
      ],
      "name": "ProposalCreated",
      "type": "event"
    },
    {
      "anonymous": false,
      "inputs": [
        {
          "indexed": false,
          "internalType": "uint256[]",
          "name": "proposalIds",
          "type": "uint256[]"
        }
      ],
      "name": "ProposalsDeleted",
      "type": "event"
    },
    {
      "anonymous": false,
      "inputs": [
        {
          "indexed": true,
          "internalType": "address",
          "name": "voter",
          "type": "address"
        },
        {
          "indexed": false,
          "internalType": "uint256",
          "name": "proposalId",
          "type": "uint256"
        },
        {
          "indexed": false,
          "internalType": "uint8",
          "name": "support",
          "type": "uint8"
        },
        {
          "indexed": false,
          "internalType": "uint256",
          "name": "numVotes",
          "type": "uint256"
        },
        {
          "indexed": false,
          "internalType": "string",
          "name": "reason",
          "type": "string"
        }
      ],
      "name": "VoteCast",
      "type": "event"
    },
    {
      "anonymous": false,
      "inputs": [
        {
          "indexed": false,
          "internalType": "uint256",
          "name": "oldVotingDelay",
          "type": "uint256"
        },
        {
          "indexed": false,
          "internalType": "uint256",
          "name": "newVotingDelay",
          "type": "uint256"
        }
      ],
      "name": "VotingDelaySet",
      "type": "event"
    },
    {
      "anonymous": false,
      "inputs": [
        {
          "indexed": false,
          "internalType": "uint256",
          "name": "oldVotingPeriod",
          "type": "uint256"
        },
        {
          "indexed": false,
          "internalType": "uint256",
          "name": "newVotingPeriod",
          "type": "uint256"
        }
      ],
      "name": "VotingPeriodSet",
      "type": "event"
    },
    {
      "inputs": [],
      "name": "AMOUNT_FOR_SUMBITTER_PROOF",
      "outputs": [
        {
          "internalType": "uint64",
          "name": "",
          "type": "uint64"
        }
      ],
      "stateMutability": "view",
      "type": "function"
    },
    {
      "inputs": [],
      "name": "BALLOT_TYPEHASH",
      "outputs": [
        {
          "internalType": "bytes32",
          "name": "",
          "type": "bytes32"
        }
      ],
      "stateMutability": "view",
      "type": "function"
    },
    {
      "inputs": [],
      "name": "COUNTING_MODE",
      "outputs": [
        {
          "internalType": "string",
          "name": "",
          "type": "string"
        }
      ],
      "stateMutability": "pure",
      "type": "function"
    },
    {
      "inputs": [
        {
          "internalType": "address",
          "name": "",
          "type": "address"
        }
      ],
      "name": "addressTotalVotes",
      "outputs": [
        {
          "internalType": "uint256",
          "name": "",
          "type": "uint256"
        }
      ],
      "stateMutability": "view",
      "type": "function"
    },
    {
      "inputs": [],
      "name": "allProposalTotalVotes",
      "outputs": [
        {
          "internalType": "uint256[]",
          "name": "proposalIdsReturn",
          "type": "uint256[]"
        },
        {
          "components": [
            {
              "internalType": "uint256",
              "name": "forVotes",
              "type": "uint256"
            },
            {
              "internalType": "uint256",
              "name": "againstVotes",
              "type": "uint256"
            }
          ],
          "internalType": "struct GovernorCountingSimple.VoteCounts[]",
          "name": "proposalVoteCountsArrayReturn",
          "type": "tuple[]"
        }
      ],
      "stateMutability": "view",
      "type": "function"
    },
    {
      "inputs": [],
      "name": "allProposalTotalVotesWithoutDeleted",
      "outputs": [
        {
          "internalType": "uint256[]",
          "name": "proposalIdsReturn",
          "type": "uint256[]"
        },
        {
          "components": [
            {
              "internalType": "uint256",
              "name": "forVotes",
              "type": "uint256"
            },
            {
              "internalType": "uint256",
              "name": "againstVotes",
              "type": "uint256"
            }
          ],
          "internalType": "struct GovernorCountingSimple.VoteCounts[]",
          "name": "proposalVoteCountsArrayReturn",
          "type": "tuple[]"
        }
      ],
      "stateMutability": "view",
      "type": "function"
    },
    {
      "inputs": [],
      "name": "cancel",
      "outputs": [],
      "stateMutability": "nonpayable",
      "type": "function"
    },
    {
      "inputs": [
        {
          "internalType": "uint256",
          "name": "proposalId",
          "type": "uint256"
        },
        {
          "internalType": "uint8",
          "name": "support",
          "type": "uint8"
        },
        {
          "internalType": "uint256",
          "name": "totalVotes",
          "type": "uint256"
        },
        {
          "internalType": "uint256",
          "name": "numVotes",
          "type": "uint256"
        },
        {
          "internalType": "bytes32[]",
          "name": "proof",
          "type": "bytes32[]"
        }
      ],
      "name": "castVote",
      "outputs": [
        {
          "internalType": "uint256",
          "name": "",
          "type": "uint256"
        }
      ],
      "stateMutability": "nonpayable",
      "type": "function"
    },
    {
      "inputs": [
        {
          "internalType": "uint256",
          "name": "proposalId",
          "type": "uint256"
        },
        {
          "internalType": "uint8",
          "name": "support",
          "type": "uint8"
        },
        {
          "internalType": "uint256",
          "name": "numVotes",
          "type": "uint256"
        }
      ],
      "name": "castVoteWithoutProof",
      "outputs": [
        {
          "internalType": "uint256",
          "name": "",
          "type": "uint256"
        }
      ],
      "stateMutability": "nonpayable",
      "type": "function"
    },
    {
      "inputs": [
        {
          "internalType": "address",
          "name": "addressToCheck",
          "type": "address"
        },
        {
          "internalType": "uint256",
          "name": "amount",
          "type": "uint256"
        },
        {
          "internalType": "bytes32[]",
          "name": "proof",
          "type": "bytes32[]"
        },
        {
          "internalType": "bool",
          "name": "voting",
          "type": "bool"
        }
      ],
      "name": "checkProof",
      "outputs": [
        {
          "internalType": "bool",
          "name": "verified",
          "type": "bool"
        }
      ],
      "stateMutability": "view",
      "type": "function"
    },
    {
      "inputs": [
        {
          "internalType": "address",
          "name": "userAddress",
          "type": "address"
        }
      ],
      "name": "contestAddressTotalVotesCast",
      "outputs": [
        {
          "internalType": "uint256",
          "name": "totalVotesCast",
          "type": "uint256"
        }
      ],
      "stateMutability": "view",
      "type": "function"
    },
    {
      "inputs": [],
      "name": "contestDeadline",
      "outputs": [
        {
          "internalType": "uint256",
          "name": "",
          "type": "uint256"
        }
      ],
      "stateMutability": "view",
      "type": "function"
    },
    {
      "inputs": [],
      "name": "contestStart",
      "outputs": [
        {
          "internalType": "uint256",
          "name": "",
          "type": "uint256"
        }
      ],
      "stateMutability": "view",
      "type": "function"
    },
    {
      "inputs": [],
      "name": "creator",
      "outputs": [
        {
          "internalType": "address",
          "name": "",
          "type": "address"
        }
      ],
      "stateMutability": "view",
      "type": "function"
    },
    {
      "inputs": [
        {
          "internalType": "uint256[]",
          "name": "proposalIds",
          "type": "uint256[]"
        }
      ],
      "name": "deleteProposals",
      "outputs": [],
      "stateMutability": "nonpayable",
      "type": "function"
    },
    {
      "inputs": [],
      "name": "downvotingAllowed",
      "outputs": [
        {
          "internalType": "uint256",
          "name": "",
          "type": "uint256"
        }
      ],
      "stateMutability": "view",
      "type": "function"
    },
    {
      "inputs": [],
      "name": "eip712Domain",
      "outputs": [
        {
          "internalType": "bytes1",
          "name": "fields",
          "type": "bytes1"
        },
        {
          "internalType": "string",
          "name": "name",
          "type": "string"
        },
        {
          "internalType": "string",
          "name": "version",
          "type": "string"
        },
        {
          "internalType": "uint256",
          "name": "chainId",
          "type": "uint256"
        },
        {
          "internalType": "address",
          "name": "verifyingContract",
          "type": "address"
        },
        {
          "internalType": "bytes32",
          "name": "salt",
          "type": "bytes32"
        },
        {
          "internalType": "uint256[]",
          "name": "extensions",
          "type": "uint256[]"
        }
      ],
      "stateMutability": "view",
      "type": "function"
    },
    {
      "inputs": [],
      "name": "getAllProposalIds",
      "outputs": [
        {
          "internalType": "uint256[]",
          "name": "",
          "type": "uint256[]"
        }
      ],
      "stateMutability": "view",
      "type": "function"
    },
    {
      "inputs": [
        {
          "internalType": "address",
          "name": "account",
          "type": "address"
        }
      ],
      "name": "getNumSubmissions",
      "outputs": [
        {
          "internalType": "uint256",
          "name": "",
          "type": "uint256"
        }
      ],
      "stateMutability": "view",
      "type": "function"
    },
    {
      "inputs": [
        {
          "internalType": "uint256",
          "name": "proposalId",
          "type": "uint256"
        }
      ],
      "name": "getProposal",
      "outputs": [
        {
          "components": [
            {
              "internalType": "address",
              "name": "author",
              "type": "address"
            },
            {
              "internalType": "string",
              "name": "description",
              "type": "string"
            },
            {
              "internalType": "bool",
              "name": "exists",
              "type": "bool"
            }
          ],
          "internalType": "struct Governor.ProposalCore",
          "name": "",
          "type": "tuple"
        }
      ],
      "stateMutability": "view",
      "type": "function"
    },
    {
      "inputs": [
        {
          "internalType": "string",
          "name": "proposalDescription",
          "type": "string"
        }
      ],
      "name": "hashProposal",
      "outputs": [
        {
          "internalType": "uint256",
          "name": "",
          "type": "uint256"
        }
      ],
      "stateMutability": "pure",
      "type": "function"
    },
    {
      "inputs": [
        {
          "internalType": "uint256",
          "name": "proposalId",
          "type": "uint256"
        }
      ],
      "name": "isProposalDeleted",
      "outputs": [
        {
          "internalType": "uint256",
          "name": "",
          "type": "uint256"
        }
      ],
      "stateMutability": "view",
      "type": "function"
    },
    {
      "inputs": [],
      "name": "maxProposalCount",
      "outputs": [
        {
          "internalType": "uint256",
          "name": "",
          "type": "uint256"
        }
      ],
      "stateMutability": "view",
      "type": "function"
    },
    {
      "inputs": [],
      "name": "name",
      "outputs": [
        {
          "internalType": "string",
          "name": "",
          "type": "string"
        }
      ],
      "stateMutability": "view",
      "type": "function"
    },
    {
      "inputs": [],
      "name": "numAllowedProposalSubmissions",
      "outputs": [
        {
          "internalType": "uint256",
          "name": "",
          "type": "uint256"
        }
      ],
      "stateMutability": "view",
      "type": "function"
    },
    {
      "inputs": [],
      "name": "officialRewardsModule",
      "outputs": [
        {
          "internalType": "contract RewardsModule",
          "name": "",
          "type": "address"
        }
      ],
      "stateMutability": "view",
      "type": "function"
    },
    {
      "inputs": [],
      "name": "prompt",
      "outputs": [
        {
          "internalType": "string",
          "name": "",
          "type": "string"
        }
      ],
      "stateMutability": "view",
      "type": "function"
    },
    {
      "inputs": [
        {
          "internalType": "uint256",
          "name": "proposalId",
          "type": "uint256"
        },
        {
          "internalType": "address",
          "name": "userAddress",
          "type": "address"
        }
      ],
      "name": "proposalAddressVotes",
      "outputs": [
        {
          "internalType": "uint256",
          "name": "forVotes",
          "type": "uint256"
        },
        {
          "internalType": "uint256",
          "name": "againstVotes",
          "type": "uint256"
        }
      ],
      "stateMutability": "view",
      "type": "function"
    },
    {
      "inputs": [
        {
          "internalType": "uint256",
          "name": "proposalId",
          "type": "uint256"
        }
      ],
      "name": "proposalAddressesHaveVoted",
      "outputs": [
        {
          "internalType": "address[]",
          "name": "",
          "type": "address[]"
        }
      ],
      "stateMutability": "view",
      "type": "function"
    },
    {
      "inputs": [
        {
          "internalType": "uint256",
          "name": "proposalId",
          "type": "uint256"
        }
      ],
      "name": "proposalVotes",
      "outputs": [
        {
          "internalType": "uint256",
          "name": "forVotes",
          "type": "uint256"
        },
        {
          "internalType": "uint256",
          "name": "againstVotes",
          "type": "uint256"
        }
      ],
      "stateMutability": "view",
      "type": "function"
    },
    {
      "inputs": [
        {
          "internalType": "string",
          "name": "proposalDescription",
          "type": "string"
        },
        {
          "internalType": "bytes32[]",
          "name": "proof",
          "type": "bytes32[]"
        }
      ],
      "name": "propose",
      "outputs": [
        {
          "internalType": "uint256",
          "name": "",
          "type": "uint256"
        }
      ],
      "stateMutability": "nonpayable",
      "type": "function"
    },
    {
      "inputs": [
        {
          "internalType": "contract RewardsModule",
          "name": "officialRewardsModule_",
          "type": "address"
        }
      ],
      "name": "setOfficialRewardsModule",
      "outputs": [],
      "stateMutability": "nonpayable",
      "type": "function"
    },
    {
      "inputs": [
        {
          "internalType": "bool",
          "name": "excludeDeletedProposals",
          "type": "bool"
        }
      ],
      "name": "sortedProposals",
      "outputs": [
        {
          "internalType": "uint256[]",
          "name": "sortedProposalIdsReturn",
          "type": "uint256[]"
        }
      ],
      "stateMutability": "view",
      "type": "function"
    },
    {
      "inputs": [],
      "name": "state",
      "outputs": [
        {
          "internalType": "enum IGovernor.ContestState",
          "name": "",
          "type": "uint8"
        }
      ],
      "stateMutability": "view",
      "type": "function"
    },
    {
      "inputs": [],
      "name": "submissionMerkleRoot",
      "outputs": [
        {
          "internalType": "bytes32",
          "name": "",
          "type": "bytes32"
        }
      ],
      "stateMutability": "view",
      "type": "function"
    },
    {
      "inputs": [
        {
          "internalType": "bytes4",
          "name": "interfaceId",
          "type": "bytes4"
        }
      ],
      "name": "supportsInterface",
      "outputs": [
        {
          "internalType": "bool",
          "name": "",
          "type": "bool"
        }
      ],
      "stateMutability": "view",
      "type": "function"
    },
    {
      "inputs": [
        {
          "internalType": "address",
          "name": "account",
          "type": "address"
        },
        {
          "internalType": "bytes32[]",
          "name": "proof",
          "type": "bytes32[]"
        }
      ],
      "name": "verifySubmitter",
      "outputs": [
        {
          "internalType": "bool",
          "name": "verified",
          "type": "bool"
        }
      ],
      "stateMutability": "nonpayable",
      "type": "function"
    },
    {
      "inputs": [
        {
          "internalType": "address",
          "name": "account",
          "type": "address"
        },
        {
          "internalType": "uint256",
          "name": "totalVotes",
          "type": "uint256"
        },
        {
          "internalType": "bytes32[]",
          "name": "proof",
          "type": "bytes32[]"
        }
      ],
      "name": "verifyTotalVotes",
      "outputs": [
        {
          "internalType": "bool",
          "name": "verified",
          "type": "bool"
        }
      ],
      "stateMutability": "nonpayable",
      "type": "function"
    },
    {
      "inputs": [],
      "name": "version",
      "outputs": [
        {
          "internalType": "string",
          "name": "",
          "type": "string"
        }
      ],
      "stateMutability": "view",
      "type": "function"
    },
    {
      "inputs": [],
      "name": "voteStart",
      "outputs": [
        {
          "internalType": "uint256",
          "name": "",
          "type": "uint256"
        }
      ],
      "stateMutability": "view",
      "type": "function"
    },
    {
      "inputs": [],
      "name": "votingDelay",
      "outputs": [
        {
          "internalType": "uint256",
          "name": "",
          "type": "uint256"
        }
      ],
      "stateMutability": "view",
      "type": "function"
    },
    {
      "inputs": [],
      "name": "votingMerkleRoot",
      "outputs": [
        {
          "internalType": "bytes32",
          "name": "",
          "type": "bytes32"
        }
      ],
      "stateMutability": "view",
      "type": "function"
    },
    {
      "inputs": [],
      "name": "votingPeriod",
      "outputs": [
        {
          "internalType": "uint256",
          "name": "",
          "type": "uint256"
        }
      ],
      "stateMutability": "view",
      "type": "function"
    },
    {
      "stateMutability": "payable",
      "type": "receive"
    }
  ],
  "bytecode": {
    "object": "0x6101a06040523480156200001257600080fd5b50604051620038003803806200380083398101604081905262000035916200064c565b806000815181106200004b576200004b6200075d565b6020026020010151816001815181106200006957620000696200075d565b6020026020010151826002815181106200008757620000876200075d565b602002602001015183600381518110620000a557620000a56200075d565b602002602001015184600481518110620000c357620000c36200075d565b602002602001015185600581518110620000e157620000e16200075d565b60200260200101518a8a8a8a818185620001006200026160201b60201c565b6200011b6000836200027e60201b62001c111790919060201c565b60e052620001378160016200027e602090811b62001c1117901c565b61010052815160208084019190912061012052815190820120610140524660a052620001c76101205161014051604080517f8b73c3c69bb8fe3d512ecc4cf759cc79239f7b179b0ffacaa9a75d522b39400f60208201529081019290925260608201524660808201523060a082015260009060c00160405160208183030381529060405280519060200120905090565b60805250503060c05261016091909152610180526007620001e9858262000802565b506008620001f8848262000802565b50505050506200020e86620002ce60201b60201c565b62000219856200030f565b620002248462000350565b6200022f83620003f7565b6200023a8262000438565b620002458162000479565b6200025033620004ba565b505050505050505050505062000928565b604080518082019091526003815262332e3160e81b602082015290565b60006020835110156200029e57620002968362000523565b9050620002c8565b82620002b5836200056660201b62001c421760201c565b90620002c2908262000802565b5060ff90505b92915050565b600c5460408051918252602082018390527fd299feb1d7d9345a48559601c471c3be7eea9a11f21d5e86809198f40a974db4910160405180910390a1600c55565b600d5460408051918252602082018390527fc565b045403dc03c2eea82b81a0465edad9e2e7fc4d97e11421c209da93d7a93910160405180910390a1600d55565b60008111620003b65760405162461bcd60e51b815260206004820152602760248201527f476f7665726e6f7253657474696e67733a20766f74696e6720706572696f6420604482015266746f6f206c6f7760c81b60648201526084015b60405180910390fd5b600e5460408051918252602082018390527f7e3f7f0708a84de9203036abaa450dccc85ad5ff52f78c170f3edb55cf5e8828910160405180910390a1600e55565b600f5460408051918252602082018390527fe971b819c7fb95c72451f557226aceb5baaf4994a9d39a79bbfa0040e87500b9910160405180910390a1600f55565b60105460408051918252602082018390527f4984ec996723330ee95979ed65a2a4b41edd914e68a187efe92596474643bdff910160405180910390a1601055565b60115460408051918252602082018390527f9c7b27f091caef3a83be73d89320404fa0c4a52993685ff0651672e49e6e55ab910160405180910390a1601155565b601254604080516001600160a01b03928316815291831660208301527fc30034fc2e9697980e08935bbc287db3eaa44a4aa113ef4c108b356adbf911ce910160405180910390a1601280546001600160a01b0319166001600160a01b0392909216919091179055565b600080829050601f8151111562000551578260405163305a27a960e01b8152600401620003ad9190620008ce565b80516200055e8262000903565b179392505050565b90565b634e487b7160e01b600052604160045260246000fd5b604051601f8201601f191681016001600160401b0381118282101715620005aa57620005aa62000569565b604052919050565b60005b83811015620005cf578181015183820152602001620005b5565b50506000910152565b600082601f830112620005ea57600080fd5b81516001600160401b0381111562000606576200060662000569565b6200061b601f8201601f19166020016200057f565b8181528460208386010111156200063157600080fd5b62000644826020830160208701620005b2565b949350505050565b600080600080600060a086880312156200066557600080fd5b85516001600160401b03808211156200067d57600080fd5b6200068b89838a01620005d8565b9650602091508188015181811115620006a357600080fd5b620006b18a828b01620005d8565b9650506040880151945060608801519350608088015181811115620006d557600080fd5b8801601f81018a13620006e757600080fd5b805182811115620006fc57620006fc62000569565b8060051b92506200070f8484016200057f565b818152928201840192848101908c8511156200072a57600080fd5b928501925b848410156200074a578351825292850192908501906200072f565b8096505050505050509295509295909350565b634e487b7160e01b600052603260045260246000fd5b600181811c908216806200078857607f821691505b602082108103620007a957634e487b7160e01b600052602260045260246000fd5b50919050565b601f821115620007fd57600081815260208120601f850160051c81016020861015620007d85750805b601f850160051c820191505b81811015620007f957828155600101620007e4565b5050505b505050565b81516001600160401b038111156200081e576200081e62000569565b62000836816200082f845462000773565b84620007af565b602080601f8311600181146200086e5760008415620008555750858301515b600019600386901b1c1916600185901b178555620007f9565b600085815260208120601f198616915b828110156200089f578886015182559484019460019091019084016200087e565b5085821015620008be5787850151600019600388901b60f8161c191681555b5050505050600190811b01905550565b6020815260008251806020840152620008ef816040850160208701620005b2565b601f01601f19169190910160400192915050565b80516020808301519190811015620007a95760001960209190910360031b1b16919050565b60805160a05160c05160e0516101005161012051610140516101605161018051612e6862000998600039600081816107880152610ea90152600081816106aa0152610e4401526000505060005050600061133c015260006113120152600050506000505060005050612e686000f3fe60806040526004361061025f5760003560e01c80637c65d71111610144578063d45a010b116100b6578063e031535b1161007a578063e031535b1461080b578063ea8a1af014610820578063efa90d3614610835578063f0a7db0a1461084a578063f4f3d7ec1461086a578063fb9bf8d41461088a57600080fd5b8063d45a010b1461071b578063dd4e2ba514610730578063dd96a19d14610776578063dea5f6a6146107aa578063deaaa7cc146107d757600080fd5b8063aec116b611610108578063aec116b614610615578063b323580d1461064b578063bd65e80a14610678578063bddc164114610698578063c19d93fb146106cc578063c7f758a8146106ee57600080fd5b80637c65d711146105835780637d8bfc4414610598578063832009af146105b857806384b0196e146105cd5780638d50dc6b146105f557600080fd5b80633b6d199b116101dd57806354fd4d50116101a157806354fd4d50146104ae5780635f953a03146104da57806360506ff61461051057806365f16263146105255780636e4eb81014610545578063785ddfe51461056557600080fd5b80633b6d199b146103c7578063419c533c146103f4578063427d56c21461041457806350a5e52414610441578063544ffc9c1461046457600080fd5b806306fdde031161022457806306fdde0314610327578063262e59e91461034957806332763c221461035e578063347cf6651461037e5780633932abb1146103b257600080fd5b80624114a81461026d57806301cbcdbe1461029557806301ffc9a7146102b557806302a251a3146102e557806302d05d3f146102fa57600080fd5b3661026857005b005b600080fd5b34801561027957600080fd5b5061028261089f565b6040519081526020015b60405180910390f35b3480156102a157600080fd5b506102826102b036600461256e565b6108af565b3480156102c157600080fd5b506102d56102d03660046125d6565b610cc1565b604051901515815260200161028c565b3480156102f157600080fd5b50610282610cf8565b34801561030657600080fd5b5061030f610d03565b6040516001600160a01b03909116815260200161028c565b34801561033357600080fd5b5061033c610d17565b60405161028c9190612646565b34801561035557600080fd5b50610282610da9565b34801561036a57600080fd5b506102d5610379366004612686565b610dc5565b34801561038a57600080fd5b5061039a678ac7230489e8000081565b6040516001600160401b03909116815260200161028c565b3480156103be57600080fd5b50610282610f02565b3480156103d357600080fd5b506102826103e23660046126f6565b60009081526006602052604090205490565b34801561040057600080fd5b5061028261040f366004612720565b610f0d565b34801561042057600080fd5b5061043461042f366004612790565b610f45565b60405161028c91906127e6565b34801561044d57600080fd5b50610456611071565b60405161028c9291906127f9565b34801561047057600080fd5b5061049961047f3660046126f6565b600090815260146020526040902080546001909101549091565b6040805192835260208301919091520161028c565b3480156104ba57600080fd5b50604080518082019091526003815262332e3160e81b602082015261033c565b3480156104e657600080fd5b506102826104f536600461285a565b6001600160a01b03166000908152600b602052604090205490565b34801561051c57600080fd5b50610282611177565b34801561053157600080fd5b50610282610540366004612877565b611182565b34801561055157600080fd5b506104996105603660046128ac565b61124a565b34801561057157600080fd5b506015546001600160a01b031661030f565b34801561058f57600080fd5b5061033c61127f565b3480156105a457600080fd5b506102d56105b33660046128dc565b61128e565b3480156105c457600080fd5b506102826112f9565b3480156105d957600080fd5b506105e2611304565b60405161028c9796959493929190612937565b34801561060157600080fd5b506102d56106103660046129a7565b61138c565b34801561062157600080fd5b5061028261063036600461285a565b6001600160a01b031660009081526013602052604090205490565b34801561065757600080fd5b5061066b6106663660046126f6565b6113f1565b60405161028c91906129ee565b34801561068457600080fd5b50610282610693366004612a3b565b611463565b3480156106a457600080fd5b506102827f000000000000000000000000000000000000000000000000000000000000000081565b3480156106d857600080fd5b506106e1611494565b60405161028c9190612a8d565b3480156106fa57600080fd5b5061070e6107093660046126f6565b611506565b60405161028c9190612ab5565b34801561072757600080fd5b5061045661160a565b34801561073c57600080fd5b5060408051808201909152601881527f737570706f72743d627261766f2671756f72756d3d666f720000000000000000602082015261033c565b34801561078257600080fd5b506102827f000000000000000000000000000000000000000000000000000000000000000081565b3480156107b657600080fd5b506102826107c536600461285a565b60026020526000908152604090205481565b3480156107e357600080fd5b506102827f150214d74d59b7d1e90c73fc22ef3d991dd0a76b046543d4d80ab92d2a50328f81565b34801561081757600080fd5b506102826117d5565b34801561082c57600080fd5b506102666117e7565b34801561084157600080fd5b506104346118d1565b34801561085657600080fd5b50610266610865366004612afb565b611928565b34801561087657600080fd5b5061026661088536600461285a565b611b6b565b34801561089657600080fd5b50610282611c06565b60006108aa600c5490565b905090565b600060036108bb611494565b60048111156108cc576108cc612a77565b146109445760405162461bcd60e51b815260206004820152603e60248201527f476f7665726e6f723a20636f6e74657374206d7573742062652071756575656460448201527f20666f722070726f706f73616c7320746f206265207375626d6974746564000060648201526084015b60405180910390fd5b61094c6112f9565b336000908152600b6020526040902054106109f55760405162461bcd60e51b815260206004820152605d60248201527f476f7665726e6f723a207468652073616d652063616e6e6f74207375626d697460448201527f206d6f7265207468616e20746865206e756d416c6c6f77656450726f706f736160648201527f6c5375626d697373696f6e7320666f72207468697320636f6e74657374000000608482015260a40161093b565b6109fd611c06565b60055410610a735760405162461bcd60e51b815260206004820152603960248201527f476f7665726e6f723a20746865206d6178206e756d626572206f662070726f7060448201527f6f73616c732068617665206265656e207375626d697474656400000000000000606482015260840161093b565b610a7e33848461138c565b610ae25760405162461bcd60e51b815260206004820152602f60248201527f476f7665726e6f723a2061646472657373206973206e6f74207065726d69737360448201526e1a5bdb9959081d1bc81cdd589b5a5d608a1b606482015260840161093b565b8351600003610b335760405162461bcd60e51b815260206004820152601860248201527f476f7665726e6f723a20656d7074792070726f706f73616c0000000000000000604482015260640161093b565b6000610b3e85611463565b6000818152600a602052604090206002015490915060ff1615610bb55760405162461bcd60e51b815260206004820152602960248201527f476f7665726e6f723a206475706c69636174652070726f706f73616c73206e6f6044820152681d08185b1b1bddd95960ba1b606482015260840161093b565b6005805460018082019092557f036b6384b5eca791c62761152d0c79bb0604c104a5fb6f4eb0703f3154bb3db0018290556040805160608101825233815260208082018981528284018590526000868152600a909252929020815181546001600160a01b0319166001600160a01b0390911617815591519092820190610c3b9082612c1d565b50604091820151600291909101805460ff1916911515919091179055336000908152600b602052908120805460019290610c76908490612cf2565b909155507fc8c078bfee58e5822588f08b4509ed1eb5058e03f666cca84dd2d44bf5c288a89050818633604051610caf93929190612d05565b60405180910390a190505b9392505050565b60006001600160e01b0319821663a5b071ef60e01b1480610cf257506301ffc9a760e01b6001600160e01b03198316145b92915050565b60006108aa600e5490565b60006108aa6012546001600160a01b031690565b606060078054610d2690612b94565b80601f0160208091040260200160405190810160405280929190818152602001828054610d5290612b94565b8015610d9f5780601f10610d7457610100808354040283529160200191610d9f565b820191906000526020600020905b815481529060010190602001808311610d8257829003601f168201915b5050505050905090565b6000610db3610cf8565b610dbb6117d5565b6108aa9190612cf2565b6040516bffffffffffffffffffffffff19606087901b166020820152603481018590526000908190605401604051602081830303815290604052805190602001209050600083610e7457610e6f8686808060200260200160405190810160405280939291908181526020018383602002808284376000920191909152507f00000000000000000000000000000000000000000000000000000000000000009250869150611c459050565b610ed4565b610ed48686808060200260200160405190810160405280939291908181526020018383602002808284376000920191909152507f00000000000000000000000000000000000000000000000000000000000000009250869150611c459050565b905080610ef45760405163452c2df160e11b815260040160405180910390fd5b506001979650505050505050565b60006108aa600d5490565b600033610f1c8187868661128e565b50610f398882898860405180602001604052806000815250611c5b565b98975050505050505050565b606060008083610f5c57610f57611071565b610f64565b610f6461160a565b91509150600082516001600160401b03811115610f8357610f83612475565b604051908082528060200260200182016040528015610fac578160200160208202803683370190505b50905060005b825181101561103057828181518110610fcd57610fcd612d36565b602002602001015160200151838281518110610feb57610feb612d36565b6020026020010151600001516110019190612d4c565b82828151811061101357611013612d36565b60209081029190910101528061102881612d73565b915050610fb2565b5060005b600184516110429190612d8c565b81101561106757611054818386611e99565b508061105f81612d73565b915050611034565b5091949350505050565b606080600061107e6118d1565b9050600081516001600160401b0381111561109b5761109b612475565b6040519080825280602002602001820160405280156110e057816020015b60408051808201909152600080825260208201528152602001906001900390816110b95790505b50905060005b825181101561116d576014600084838151811061110557611105612d36565b602002602001015181526020019081526020016000206000016040518060400160405290816000820154815260200160018201548152505082828151811061114f5761114f612d36565b6020026020010181905250808061116590612d73565b9150506110e6565b5090939092509050565b60006108aa60115490565b3360008181526003602052604081205490919060ff166112255760405162461bcd60e51b815260206004820152605260248201527f476f7665726e6f723a20796f75206e65656420746f2063617374206120766f7460448201527f652077697468207468652070726f6f66206174206c65617374206f6e636520616064820152711b99081e5bdd481a185d995b89dd081e595d60721b608482015260a40161093b565b6112418582868660405180602001604052806000815250611c5b565b95945050505050565b60008281526014602090815260408083206001600160a01b0385168452600301909152902080546001909101545b9250929050565b606060088054610d2690612b94565b6001600160a01b03841660009081526003602052604081205460ff166112ee576112bc858585856000610dc5565b506001600160a01b038516600090815260026020908152604080832087905560039091529020805460ff191660011790555b506001949350505050565b60006108aa600f5490565b6000606080828080836113377f000000000000000000000000000000000000000000000000000000000000000083611fff565b6113627f00000000000000000000000000000000000000000000000000000000000000006001611fff565b60408051600080825260208201909252600f60f81b9b939a50919850469750309650945092509050565b6001600160a01b03831660009081526004602052604081205460ff166113e7576113c284678ac7230489e8000085856000610dc5565b506001600160a01b0384166000908152600460205260409020805460ff191660011790555b5060019392505050565b600081815260146020908152604091829020600281018054845181850281018501909552808552606094929383018282801561145657602002820191906000526020600020905b81546001600160a01b03168152600190910190602001808311611438575b5050505050915050919050565b6000816040516020016114769190612646565b60408051601f19818403018152919052805160209091012092915050565b60095460009060ff16156114a85750600290565b60006114b261089f565b90504281106114c357600091505090565b60006114cd6117d5565b90504281106114df5760039250505090565b60006114e9610da9565b90504281106114fc576001935050505090565b6004935050505090565b611535604051806060016040528060006001600160a01b03168152602001606081526020016000151581525090565b6000828152600a602090815260409182902082516060810190935280546001600160a01b03168352600181018054919284019161157190612b94565b80601f016020809104026020016040519081016040528092919081815260200182805461159d90612b94565b80156115ea5780601f106115bf576101008083540402835291602001916115ea565b820191906000526020600020905b8154815290600101906020018083116115cd57829003601f168201915b50505091835250506002919091015460ff16151560209091015292915050565b60608060006116176118d1565b9050600081516001600160401b0381111561163457611634612475565b60405190808252806020026020018201604052801561165d578160200160208202803683370190505b509050600082516001600160401b0381111561167b5761167b612475565b6040519080825280602002602001820160405280156116c057816020015b60408051808201909152600080825260208201528152602001906001900390816116995790505b5090506000805b84518110156117c9576116ff8582815181106116e5576116e5612d36565b602002602001015160009081526006602052604090205490565b6001146117b75784818151811061171857611718612d36565b602002602001015184838151811061173257611732612d36565b6020026020010181815250506014600086838151811061175457611754612d36565b602002602001015181526020019081526020016000206000016040518060400160405290816000820154815260200160018201548152505083838151811061179e5761179e612d36565b60209081029190910101526117b4600183612cf2565b91505b806117c181612d73565b9150506116c7565b50919590945092505050565b60006117df610f02565b610dbb61089f565b6117ef610d03565b6001600160a01b0316336001600160a01b03161461180c57600080fd5b6000611816611494565b9050600281600481111561182c5761182c612a77565b1415801561184c5750600481600481111561184957611849612a77565b14155b6118985760405162461bcd60e51b815260206004820152601c60248201527f476f7665726e6f723a20636f6e74657374206e6f742061637469766500000000604482015260640161093b565b6009805460ff191660011790556040517f4cd963a081760a54f571abc0f1db4dde31b4a07d8d6da3e844b8c6f47eeaaa4290600090a150565b60606005805480602002602001604051908101604052809291908181526020018280548015610d9f57602002820191906000526020600020905b81548152602001906001019080831161190b575050505050905090565b611930610d03565b6001600160a01b0316336001600160a01b0316146119b65760405162461bcd60e51b815260206004820152603760248201527f476f7665726e6f723a206f6e6c792074686520636f6e7465737420637265617460448201527f6f722063616e2064656c6574652070726f706f73616c73000000000000000000606482015260840161093b565b60046119c0611494565b60048111156119d1576119d1612a77565b03611a565760405162461bcd60e51b815260206004820152604960248201527f476f7665726e6f723a2064656c6574696f6e206f662070726f706f73616c732060448201527f61667465722074686520656e64206f66206120636f6e74657374206973206e6f6064820152681d08185b1b1bddd95960ba1b608482015260a40161093b565b60005b8151811015611b305760066000838381518110611a7857611a78612d36565b6020026020010151815260200190815260200160002054600114611b1e57600160066000848481518110611aae57611aae612d36565b60200260200101518152602001908152602001600020819055506040518060600160405280603d8152602001612df6603d9139600a6000848481518110611af757611af7612d36565b602002602001015181526020019081526020016000206001019081611b1c9190612c1d565b505b80611b2881612d73565b915050611a59565b507f75a75cf5c561892f4cc5b26c1b8e933849b42238c96dd073d080d1ae96c5141681604051611b6091906127e6565b60405180910390a150565b611b73610d03565b6001600160a01b0316336001600160a01b031614611b9057600080fd5b6000611ba46015546001600160a01b031690565b601580546001600160a01b0319166001600160a01b0385811691821790925560408051928416835260208301919091529192507f753a2cf8d360cff631674504210913e48247f8e56b3e6d2006c2103d4095999f910160405180910390a15050565b60006108aa60105490565b6000602083511015611c2d57611c26836120a3565b9050610cf2565b81611c388482612c1d565b5060ff9392505050565b90565b600082611c5285846120e1565b14949350505050565b60006001611c67611494565b6004811115611c7857611c78612a77565b14611cd15760405162461bcd60e51b815260206004820152602360248201527f476f7665726e6f723a20766f7465206e6f742063757272656e746c792061637460448201526269766560e81b606482015260840161093b565b60008311611d355760405162461bcd60e51b815260206004820152602b60248201527f476f7665726e6f723a2063616e6e6f7420766f746520776974682030206f722060448201526a666577657220766f74657360a81b606482015260840161093b565b6001600160a01b03851660009081526003602052604090205460ff16611dff5760405162461bcd60e51b815260206004820152606d60248201527f476f7665726e6f723a206e6f74207375726520686f7720796f7520676f74206860448201527f6572652062757420796f75206e65656420746f2076657269667920796f75722060648201527f6e756d626572206f6620766f74657320616761696e737420746865206d65726b60848201526c1b19481c9bdbdd08199a5c9cdd609a1b60a482015260c40161093b565b611e3186868686600260008b6001600160a01b03166001600160a01b031681526020019081526020016000205461212e565b846001600160a01b03167fb8e138887d0aa13bab447e82de9d5c1777041ecd21ca36ba824ff1e6c07ddda487868686604051611e709493929190612d9f565b60405180910390a2505050506001600160a01b0316600090815260026020526040902054919050565b600083805b8451811015611ef757848281518110611eb957611eb9612d36565b6020026020010151858281518110611ed357611ed3612d36565b60200260200101511215611ee5578091505b80611eef81612d73565b915050611e9e565b50848103611f09576000915050610cba565b6000848681518110611f1d57611f1d612d36565b60200260200101519050848281518110611f3957611f39612d36565b6020026020010151858781518110611f5357611f53612d36565b60200260200101818152505080858381518110611f7257611f72612d36565b6020026020010181815250506000848781518110611f9257611f92612d36565b60200260200101519050848381518110611fae57611fae612d36565b6020026020010151858881518110611fc857611fc8612d36565b60200260200101818152505080858481518110611fe757611fe7612d36565b60209081029190910101525060019695505050505050565b606060ff831461201257611c26836123e2565b81805461201e90612b94565b80601f016020809104026020016040519081016040528092919081815260200182805461204a90612b94565b80156120975780601f1061206c57610100808354040283529160200191612097565b820191906000526020600020905b81548152906001019060200180831161207a57829003601f168201915b50505050509050610cf2565b600080829050601f815111156120ce578260405163305a27a960e01b815260040161093b9190612646565b80516120d982612dd1565b179392505050565b600081815b8451811015612126576121128286838151811061210557612105612d36565b6020026020010151612421565b91508061211e81612d73565b9150506120e6565b509392505050565b60008581526014602090815260408083206001600160a01b038816845260139092529091205461215e9083612d8c565b8311156121c95760405162461bcd60e51b815260206004820152603360248201527f476f7665726e6f72566f74696e6753696d706c653a206e6f7420656e6f756768604482015272081d9bdd195cc81b19599d081d1bc818d85cdd606a1b606482015260840161093b565b6001600160a01b03851660009081526003820160205260409020541560ff851661223b57815484908390600090612201908490612cf2565b90915550506001600160a01b038616600090815260038301602052604081208054869290612230908490612cf2565b909155506123759050565b60001960ff86160161230f5761224f611177565b6001146122c6576040805162461bcd60e51b81526020600482015260248101919091527f476f7665726e6f72566f74696e6753696d706c653a20646f776e766f74696e6760448201527f206973206e6f7420656e61626c656420666f72207468697320436f6e74657374606482015260840161093b565b838260000160010160008282546122dd9190612cf2565b90915550506001600160a01b038616600090815260038301602052604081206001018054869290612230908490612cf2565b60405162461bcd60e51b815260206004820152603560248201527f476f7665726e6f72566f74696e6753696d706c653a20696e76616c69642076616044820152746c756520666f7220656e756d20566f74655479706560581b606482015260840161093b565b80156123ac57600282018054600181018255600091825260209091200180546001600160a01b0319166001600160a01b0388161790555b6001600160a01b038616600090815260136020526040812080548692906123d4908490612cf2565b909155505050505050505050565b606060006123ef8361244d565b604080516020808252818301909252919250600091906020820181803683375050509182525060208101929092525090565b600081831061243d576000828152602084905260409020610cba565b5060009182526020526040902090565b600060ff8216601f811115610cf257604051632cd44ac360e21b815260040160405180910390fd5b634e487b7160e01b600052604160045260246000fd5b604051601f8201601f191681016001600160401b03811182821017156124b3576124b3612475565b604052919050565b600082601f8301126124cc57600080fd5b81356001600160401b038111156124e5576124e5612475565b6124f8601f8201601f191660200161248b565b81815284602083860101111561250d57600080fd5b816020850160208301376000918101602001919091529392505050565b60008083601f84011261253c57600080fd5b5081356001600160401b0381111561255357600080fd5b6020830191508360208260051b850101111561127857600080fd5b60008060006040848603121561258357600080fd5b83356001600160401b038082111561259a57600080fd5b6125a6878388016124bb565b945060208601359150808211156125bc57600080fd5b506125c98682870161252a565b9497909650939450505050565b6000602082840312156125e857600080fd5b81356001600160e01b031981168114610cba57600080fd5b6000815180845260005b818110156126265760208185018101518683018201520161260a565b506000602082860101526020601f19601f83011685010191505092915050565b602081526000610cba6020830184612600565b6001600160a01b038116811461266e57600080fd5b50565b8035801515811461268157600080fd5b919050565b60008060008060006080868803121561269e57600080fd5b85356126a981612659565b94506020860135935060408601356001600160401b038111156126cb57600080fd5b6126d78882890161252a565b90945092506126ea905060608701612671565b90509295509295909350565b60006020828403121561270857600080fd5b5035919050565b803560ff8116811461268157600080fd5b60008060008060008060a0878903121561273957600080fd5b863595506127496020880161270f565b9450604087013593506060870135925060808701356001600160401b0381111561277257600080fd5b61277e89828a0161252a565b979a9699509497509295939492505050565b6000602082840312156127a257600080fd5b610cba82612671565b600081518084526020808501945080840160005b838110156127db578151875295820195908201906001016127bf565b509495945050505050565b602081526000610cba60208301846127ab565b6000604080835261280c818401866127ab565b83810360208581019190915285518083528682019282019060005b8181101561284c57845180518452840151848401529383019391850191600101612827565b509098975050505050505050565b60006020828403121561286c57600080fd5b8135610cba81612659565b60008060006060848603121561288c57600080fd5b8335925061289c6020850161270f565b9150604084013590509250925092565b600080604083850312156128bf57600080fd5b8235915060208301356128d181612659565b809150509250929050565b600080600080606085870312156128f257600080fd5b84356128fd81612659565b93506020850135925060408501356001600160401b0381111561291f57600080fd5b61292b8782880161252a565b95989497509550505050565b60ff60f81b8816815260e06020820152600061295660e0830189612600565b82810360408401526129688189612600565b606084018890526001600160a01b038716608085015260a0840186905283810360c0850152905061299981856127ab565b9a9950505050505050505050565b6000806000604084860312156129bc57600080fd5b83356129c781612659565b925060208401356001600160401b038111156129e257600080fd5b6125c98682870161252a565b6020808252825182820181905260009190848201906040850190845b81811015612a2f5783516001600160a01b031683529284019291840191600101612a0a565b50909695505050505050565b600060208284031215612a4d57600080fd5b81356001600160401b03811115612a6357600080fd5b612a6f848285016124bb565b949350505050565b634e487b7160e01b600052602160045260246000fd5b6020810160058310612aaf57634e487b7160e01b600052602160045260246000fd5b91905290565b602080825282516001600160a01b03168282015282015160606040830152600090612ae36080840182612600565b90506040840151151560608401528091505092915050565b60006020808385031215612b0e57600080fd5b82356001600160401b0380821115612b2557600080fd5b818501915085601f830112612b3957600080fd5b813581811115612b4b57612b4b612475565b8060051b9150612b5c84830161248b565b8181529183018401918481019088841115612b7657600080fd5b938501935b83851015610f3957843582529385019390850190612b7b565b600181811c90821680612ba857607f821691505b602082108103612bc857634e487b7160e01b600052602260045260246000fd5b50919050565b601f821115612c1857600081815260208120601f850160051c81016020861015612bf55750805b601f850160051c820191505b81811015612c1457828155600101612c01565b5050505b505050565b81516001600160401b03811115612c3657612c36612475565b612c4a81612c448454612b94565b84612bce565b602080601f831160018114612c7f5760008415612c675750858301515b600019600386901b1c1916600185901b178555612c14565b600085815260208120601f198616915b82811015612cae57888601518255948401946001909101908401612c8f565b5085821015612ccc5787850151600019600388901b60f8161c191681555b5050505050600190811b01905550565b634e487b7160e01b600052601160045260246000fd5b80820180821115610cf257610cf2612cdc565b838152606060208201526000612d1e6060830185612600565b905060018060a01b0383166040830152949350505050565b634e487b7160e01b600052603260045260246000fd5b8181036000831280158383131683831282161715612d6c57612d6c612cdc565b5092915050565b600060018201612d8557612d85612cdc565b5060010190565b81810381811115610cf257610cf2612cdc565b84815260ff84166020820152826040820152608060608201526000612dc76080830184612600565b9695505050505050565b80516020808301519190811015612bc85760001960209190910360031b1b1691905056fe546869732070726f706f73616c20686173206265656e2064656c65746564206279207468652063726561746f72206f662074686520636f6e746573742ea2646970667358221220d49da05971dd0d3310d63c13d1990058b8e7097cb65a43fbd86ad1409373fe4064736f6c63430008120033",
    "linkReferences": {}
  },
  "methodIdentifiers": {
    "AMOUNT_FOR_SUMBITTER_PROOF()": "347cf665",
    "BALLOT_TYPEHASH()": "deaaa7cc",
    "COUNTING_MODE()": "dd4e2ba5",
    "addressTotalVotes(address)": "dea5f6a6",
    "allProposalTotalVotes()": "50a5e524",
    "allProposalTotalVotesWithoutDeleted()": "d45a010b",
    "cancel()": "ea8a1af0",
    "castVote(uint256,uint8,uint256,uint256,bytes32[])": "419c533c",
    "castVoteWithoutProof(uint256,uint8,uint256)": "65f16263",
    "checkProof(address,uint256,bytes32[],bool)": "32763c22",
    "contestAddressTotalVotesCast(address)": "aec116b6",
    "contestDeadline()": "262e59e9",
    "contestStart()": "004114a8",
    "creator()": "02d05d3f",
    "deleteProposals(uint256[])": "f0a7db0a",
    "downvotingAllowed()": "60506ff6",
    "eip712Domain()": "84b0196e",
    "getAllProposalIds()": "efa90d36",
    "getNumSubmissions(address)": "5f953a03",
    "getProposal(uint256)": "c7f758a8",
    "hashProposal(string)": "bd65e80a",
    "isProposalDeleted(uint256)": "3b6d199b",
    "maxProposalCount()": "fb9bf8d4",
    "name()": "06fdde03",
    "numAllowedProposalSubmissions()": "832009af",
    "officialRewardsModule()": "785ddfe5",
    "prompt()": "7c65d711",
    "proposalAddressVotes(uint256,address)": "6e4eb810",
    "proposalAddressesHaveVoted(uint256)": "b323580d",
    "proposalVotes(uint256)": "544ffc9c",
    "propose(string,bytes32[])": "01cbcdbe",
    "setOfficialRewardsModule(address)": "f4f3d7ec",
    "sortedProposals(bool)": "427d56c2",
    "state()": "c19d93fb",
    "submissionMerkleRoot()": "bddc1641",
    "supportsInterface(bytes4)": "01ffc9a7",
    "verifySubmitter(address,bytes32[])": "8d50dc6b",
    "verifyTotalVotes(address,uint256,bytes32[])": "7d8bfc44",
    "version()": "54fd4d50",
    "voteStart()": "e031535b",
    "votingDelay()": "3932abb1",
    "votingMerkleRoot()": "dd96a19d",
    "votingPeriod()": "02a251a3"
  },
  "id": 36
}