{
  "abi": [
    {
      "inputs": [
        {
          "internalType": "string",
          "name": "_name",
          "type": "string"
        },
        {
          "internalType": "string",
          "name": "_prompt",
          "type": "string"
        },
        {
          "internalType": "bytes32",
          "name": "_submissionMerkleRoot",
          "type": "bytes32"
        },
        {
          "internalType": "bytes32",
          "name": "_votingMerkleRoot",
          "type": "bytes32"
        },
        {
          "internalType": "uint256[]",
          "name": "_constructorIntParams",
          "type": "uint256[]"
        }
      ],
      "stateMutability": "nonpayable",
      "type": "constructor"
    },
    {
      "inputs": [],
      "name": "InvalidShortString",
      "type": "error"
    },
    {
      "inputs": [],
      "name": "NotInMerkle",
      "type": "error"
    },
    {
      "inputs": [
        {
          "internalType": "string",
          "name": "str",
          "type": "string"
        }
      ],
      "name": "StringTooLong",
      "type": "error"
    },
    {
      "inputs": [],
      "name": "TooManyMetadatas",
      "type": "error"
    },
    {
      "anonymous": false,
      "inputs": [],
      "name": "ContestCanceled",
      "type": "event"
    },
    {
      "anonymous": false,
      "inputs": [
        {
          "indexed": false,
          "internalType": "uint256",
          "name": "oldContestStart",
          "type": "uint256"
        },
        {
          "indexed": false,
          "internalType": "uint256",
          "name": "newContestStart",
          "type": "uint256"
        }
      ],
      "name": "ContestStartSet",
      "type": "event"
    },
    {
      "anonymous": false,
      "inputs": [
        {
          "indexed": false,
          "internalType": "address",
          "name": "oldCreator",
          "type": "address"
        },
        {
          "indexed": false,
          "internalType": "address",
          "name": "newCreator",
          "type": "address"
        }
      ],
      "name": "CreatorSet",
      "type": "event"
    },
    {
      "anonymous": false,
      "inputs": [
        {
          "indexed": false,
          "internalType": "uint256",
          "name": "oldDownvotingAllowed",
          "type": "uint256"
        },
        {
          "indexed": false,
          "internalType": "uint256",
          "name": "newDownvotingAllowed",
          "type": "uint256"
        }
      ],
      "name": "DownvotingAllowedSet",
      "type": "event"
    },
    {
      "anonymous": false,
      "inputs": [],
      "name": "EIP712DomainChanged",
      "type": "event"
    },
    {
      "anonymous": false,
      "inputs": [
        {
          "indexed": false,
          "internalType": "uint256",
          "name": "oldMaxProposalCount",
          "type": "uint256"
        },
        {
          "indexed": false,
          "internalType": "uint256",
          "name": "newMaxProposalCount",
          "type": "uint256"
        }
      ],
      "name": "MaxProposalCountSet",
      "type": "event"
    },
    {
      "anonymous": false,
      "inputs": [
        {
          "indexed": false,
          "internalType": "uint256",
          "name": "oldNumAllowedProposalSubmissions",
          "type": "uint256"
        },
        {
          "indexed": false,
          "internalType": "uint256",
          "name": "newNumAllowedProposalSubmissions",
          "type": "uint256"
        }
      ],
      "name": "NumAllowedProposalSubmissionsSet",
      "type": "event"
    },
    {
      "anonymous": false,
      "inputs": [
        {
          "indexed": false,
          "internalType": "contract RewardsModule",
          "name": "oldOfficialRewardsModule",
          "type": "address"
        },
        {
          "indexed": false,
          "internalType": "contract RewardsModule",
          "name": "newOfficialRewardsModule",
          "type": "address"
        }
      ],
      "name": "OfficialRewardsModuleSet",
      "type": "event"
    },
    {
      "anonymous": false,
      "inputs": [
        {
          "indexed": false,
          "internalType": "uint256",
          "name": "proposalId",
          "type": "uint256"
        },
        {
          "indexed": false,
          "internalType": "address",
          "name": "proposer",
          "type": "address"
        }
      ],
      "name": "ProposalCreated",
      "type": "event"
    },
    {
      "anonymous": false,
      "inputs": [
        {
          "indexed": false,
          "internalType": "uint256[]",
          "name": "proposalIds",
          "type": "uint256[]"
        }
      ],
      "name": "ProposalsDeleted",
      "type": "event"
    },
    {
      "anonymous": false,
      "inputs": [
        {
          "indexed": true,
          "internalType": "address",
          "name": "voter",
          "type": "address"
        },
        {
          "indexed": false,
          "internalType": "uint256",
          "name": "proposalId",
          "type": "uint256"
        },
        {
          "indexed": false,
          "internalType": "uint8",
          "name": "support",
          "type": "uint8"
        },
        {
          "indexed": false,
          "internalType": "uint256",
          "name": "numVotes",
          "type": "uint256"
        },
        {
          "indexed": false,
          "internalType": "string",
          "name": "reason",
          "type": "string"
        }
      ],
      "name": "VoteCast",
      "type": "event"
    },
    {
      "anonymous": false,
      "inputs": [
        {
          "indexed": false,
          "internalType": "uint256",
          "name": "oldVotingDelay",
          "type": "uint256"
        },
        {
          "indexed": false,
          "internalType": "uint256",
          "name": "newVotingDelay",
          "type": "uint256"
        }
      ],
      "name": "VotingDelaySet",
      "type": "event"
    },
    {
      "anonymous": false,
      "inputs": [
        {
          "indexed": false,
          "internalType": "uint256",
          "name": "oldVotingPeriod",
          "type": "uint256"
        },
        {
          "indexed": false,
          "internalType": "uint256",
          "name": "newVotingPeriod",
          "type": "uint256"
        }
      ],
      "name": "VotingPeriodSet",
      "type": "event"
    },
    {
      "inputs": [],
      "name": "AMOUNT_FOR_SUMBITTER_PROOF",
      "outputs": [
        {
          "internalType": "uint256",
          "name": "",
          "type": "uint256"
        }
      ],
      "stateMutability": "view",
      "type": "function"
    },
    {
      "inputs": [],
      "name": "BALLOT_TYPEHASH",
      "outputs": [
        {
          "internalType": "bytes32",
          "name": "",
          "type": "bytes32"
        }
      ],
      "stateMutability": "view",
      "type": "function"
    },
    {
      "inputs": [],
      "name": "COUNTING_MODE",
      "outputs": [
        {
          "internalType": "string",
          "name": "",
          "type": "string"
        }
      ],
      "stateMutability": "pure",
      "type": "function"
    },
    {
      "inputs": [],
      "name": "METADATAS_COUNT",
      "outputs": [
        {
          "internalType": "uint256",
          "name": "",
          "type": "uint256"
        }
      ],
      "stateMutability": "view",
      "type": "function"
    },
    {
      "inputs": [
        {
          "internalType": "address",
          "name": "",
          "type": "address"
        }
      ],
      "name": "addressSubmitterVerified",
      "outputs": [
        {
          "internalType": "bool",
          "name": "",
          "type": "bool"
        }
      ],
      "stateMutability": "view",
      "type": "function"
    },
    {
      "inputs": [
        {
          "internalType": "address",
          "name": "",
          "type": "address"
        }
      ],
      "name": "addressTotalCastVoteCounts",
      "outputs": [
        {
          "internalType": "uint256",
          "name": "",
          "type": "uint256"
        }
      ],
      "stateMutability": "view",
      "type": "function"
    },
    {
      "inputs": [
        {
          "internalType": "address",
          "name": "",
          "type": "address"
        }
      ],
      "name": "addressTotalVotes",
      "outputs": [
        {
          "internalType": "uint256",
          "name": "",
          "type": "uint256"
        }
      ],
      "stateMutability": "view",
      "type": "function"
    },
    {
      "inputs": [
        {
          "internalType": "address",
          "name": "",
          "type": "address"
        }
      ],
      "name": "addressTotalVotesVerified",
      "outputs": [
        {
          "internalType": "bool",
          "name": "",
          "type": "bool"
        }
      ],
      "stateMutability": "view",
      "type": "function"
    },
    {
      "inputs": [],
      "name": "allProposalTotalVotes",
      "outputs": [
        {
          "internalType": "uint256[]",
          "name": "proposalIdsReturn",
          "type": "uint256[]"
        },
        {
          "components": [
            {
              "internalType": "uint256",
              "name": "forVotes",
              "type": "uint256"
            },
            {
              "internalType": "uint256",
              "name": "againstVotes",
              "type": "uint256"
            }
          ],
          "internalType": "struct GovernorCountingSimple.VoteCounts[]",
          "name": "proposalVoteCountsArrayReturn",
          "type": "tuple[]"
        }
      ],
      "stateMutability": "view",
      "type": "function"
    },
    {
      "inputs": [],
      "name": "allProposalTotalVotesWithoutDeleted",
      "outputs": [
        {
          "internalType": "uint256[]",
          "name": "proposalIdsReturn",
          "type": "uint256[]"
        },
        {
          "components": [
            {
              "internalType": "uint256",
              "name": "forVotes",
              "type": "uint256"
            },
            {
              "internalType": "uint256",
              "name": "againstVotes",
              "type": "uint256"
            }
          ],
          "internalType": "struct GovernorCountingSimple.VoteCounts[]",
          "name": "proposalVoteCountsArrayReturn",
          "type": "tuple[]"
        }
      ],
      "stateMutability": "view",
      "type": "function"
    },
    {
      "inputs": [],
      "name": "cancel",
      "outputs": [],
      "stateMutability": "nonpayable",
      "type": "function"
    },
    {
      "inputs": [
        {
          "internalType": "uint256",
          "name": "proposalId",
          "type": "uint256"
        },
        {
          "internalType": "uint8",
          "name": "support",
          "type": "uint8"
        },
        {
          "internalType": "uint256",
          "name": "totalVotes",
          "type": "uint256"
        },
        {
          "internalType": "uint256",
          "name": "numVotes",
          "type": "uint256"
        },
        {
          "internalType": "bytes32[]",
          "name": "proof",
          "type": "bytes32[]"
        }
      ],
      "name": "castVote",
      "outputs": [
        {
          "internalType": "uint256",
          "name": "",
          "type": "uint256"
        }
      ],
      "stateMutability": "nonpayable",
      "type": "function"
    },
    {
      "inputs": [
        {
          "internalType": "uint256",
          "name": "proposalId",
          "type": "uint256"
        },
        {
          "internalType": "uint8",
          "name": "support",
          "type": "uint8"
        },
        {
          "internalType": "uint256",
          "name": "numVotes",
          "type": "uint256"
        }
      ],
      "name": "castVoteWithoutProof",
      "outputs": [
        {
          "internalType": "uint256",
          "name": "",
          "type": "uint256"
        }
      ],
      "stateMutability": "nonpayable",
      "type": "function"
    },
    {
      "inputs": [
        {
          "internalType": "address",
          "name": "addressToCheck",
          "type": "address"
        },
        {
          "internalType": "uint256",
          "name": "amount",
          "type": "uint256"
        },
        {
          "internalType": "bytes32[]",
          "name": "proof",
          "type": "bytes32[]"
        },
        {
          "internalType": "bool",
          "name": "voting",
          "type": "bool"
        }
      ],
      "name": "checkProof",
      "outputs": [
        {
          "internalType": "bool",
          "name": "verified",
          "type": "bool"
        }
      ],
      "stateMutability": "view",
      "type": "function"
    },
    {
      "inputs": [
        {
          "internalType": "address",
          "name": "userAddress",
          "type": "address"
        }
      ],
      "name": "contestAddressTotalVotesCast",
      "outputs": [
        {
          "internalType": "uint256",
          "name": "userTotalVotesCast",
          "type": "uint256"
        }
      ],
      "stateMutability": "view",
      "type": "function"
    },
    {
      "inputs": [],
      "name": "contestDeadline",
      "outputs": [
        {
          "internalType": "uint256",
          "name": "",
          "type": "uint256"
        }
      ],
      "stateMutability": "view",
      "type": "function"
    },
    {
      "inputs": [],
      "name": "contestStart",
      "outputs": [
        {
          "internalType": "uint256",
          "name": "",
          "type": "uint256"
        }
      ],
      "stateMutability": "view",
      "type": "function"
    },
    {
      "inputs": [],
      "name": "creator",
      "outputs": [
        {
          "internalType": "address",
          "name": "",
          "type": "address"
        }
      ],
      "stateMutability": "view",
      "type": "function"
    },
    {
      "inputs": [
        {
          "internalType": "uint256[]",
          "name": "proposalIds",
          "type": "uint256[]"
        }
      ],
      "name": "deleteProposals",
      "outputs": [],
      "stateMutability": "nonpayable",
      "type": "function"
    },
    {
      "inputs": [],
      "name": "downvotingAllowed",
      "outputs": [
        {
          "internalType": "uint256",
          "name": "",
          "type": "uint256"
        }
      ],
      "stateMutability": "view",
      "type": "function"
    },
    {
      "inputs": [],
      "name": "eip712Domain",
      "outputs": [
        {
          "internalType": "bytes1",
          "name": "fields",
          "type": "bytes1"
        },
        {
          "internalType": "string",
          "name": "name",
          "type": "string"
        },
        {
          "internalType": "string",
          "name": "version",
          "type": "string"
        },
        {
          "internalType": "uint256",
          "name": "chainId",
          "type": "uint256"
        },
        {
          "internalType": "address",
          "name": "verifyingContract",
          "type": "address"
        },
        {
          "internalType": "bytes32",
          "name": "salt",
          "type": "bytes32"
        },
        {
          "internalType": "uint256[]",
          "name": "extensions",
          "type": "uint256[]"
        }
      ],
      "stateMutability": "view",
      "type": "function"
    },
    {
      "inputs": [],
      "name": "getAllDeletedProposalIds",
      "outputs": [
        {
          "internalType": "uint256[]",
          "name": "",
          "type": "uint256[]"
        }
      ],
      "stateMutability": "view",
      "type": "function"
    },
    {
      "inputs": [],
      "name": "getAllProposalIds",
      "outputs": [
        {
          "internalType": "uint256[]",
          "name": "",
          "type": "uint256[]"
        }
      ],
      "stateMutability": "view",
      "type": "function"
    },
    {
      "inputs": [
        {
          "internalType": "address",
          "name": "account",
          "type": "address"
        }
      ],
      "name": "getNumSubmissions",
      "outputs": [
        {
          "internalType": "uint256",
          "name": "",
          "type": "uint256"
        }
      ],
      "stateMutability": "view",
      "type": "function"
    },
    {
      "inputs": [
        {
          "internalType": "uint256",
          "name": "proposalId",
          "type": "uint256"
        }
      ],
      "name": "getProposal",
      "outputs": [
        {
          "components": [
            {
              "internalType": "address",
              "name": "author",
              "type": "address"
            },
            {
              "internalType": "bool",
              "name": "exists",
              "type": "bool"
            },
            {
              "internalType": "string",
              "name": "description",
              "type": "string"
            },
            {
              "components": [
                {
                  "internalType": "address",
                  "name": "targetAddress",
                  "type": "address"
                }
              ],
              "internalType": "struct IGovernor.TargetMetadata",
              "name": "targetMetadata",
              "type": "tuple"
            },
            {
              "components": [
                {
                  "internalType": "address[]",
                  "name": "signers",
                  "type": "address[]"
                },
                {
                  "internalType": "uint256",
                  "name": "threshold",
                  "type": "uint256"
                }
              ],
              "internalType": "struct IGovernor.SafeMetadata",
              "name": "safeMetadata",
              "type": "tuple"
            }
          ],
          "internalType": "struct IGovernor.ProposalCore",
          "name": "",
          "type": "tuple"
        }
      ],
      "stateMutability": "view",
      "type": "function"
    },
    {
      "inputs": [
        {
          "components": [
            {
              "internalType": "address",
              "name": "author",
              "type": "address"
            },
            {
              "internalType": "bool",
              "name": "exists",
              "type": "bool"
            },
            {
              "internalType": "string",
              "name": "description",
              "type": "string"
            },
            {
              "components": [
                {
                  "internalType": "address",
                  "name": "targetAddress",
                  "type": "address"
                }
              ],
              "internalType": "struct IGovernor.TargetMetadata",
              "name": "targetMetadata",
              "type": "tuple"
            },
            {
              "components": [
                {
                  "internalType": "address[]",
                  "name": "signers",
                  "type": "address[]"
                },
                {
                  "internalType": "uint256",
                  "name": "threshold",
                  "type": "uint256"
                }
              ],
              "internalType": "struct IGovernor.SafeMetadata",
              "name": "safeMetadata",
              "type": "tuple"
            }
          ],
          "internalType": "struct IGovernor.ProposalCore",
          "name": "proposal",
          "type": "tuple"
        }
      ],
      "name": "hashProposal",
      "outputs": [
        {
          "internalType": "uint256",
          "name": "",
          "type": "uint256"
        }
      ],
      "stateMutability": "pure",
      "type": "function"
    },
    {
      "inputs": [],
      "name": "highestTiedRanking",
      "outputs": [
        {
          "internalType": "uint256",
          "name": "",
          "type": "uint256"
        }
      ],
      "stateMutability": "view",
      "type": "function"
    },
    {
      "inputs": [
        {
          "internalType": "uint256",
          "name": "proposalId",
          "type": "uint256"
        }
      ],
      "name": "isProposalDeleted",
      "outputs": [
        {
          "internalType": "bool",
          "name": "",
          "type": "bool"
        }
      ],
      "stateMutability": "view",
      "type": "function"
    },
    {
      "inputs": [
        {
          "internalType": "uint256",
          "name": "ranking",
          "type": "uint256"
        }
      ],
      "name": "isTied",
      "outputs": [
        {
          "internalType": "bool",
          "name": "",
          "type": "bool"
        }
      ],
      "stateMutability": "view",
      "type": "function"
    },
    {
      "inputs": [],
      "name": "lowestRanking",
      "outputs": [
        {
          "internalType": "uint256",
          "name": "",
          "type": "uint256"
        }
      ],
      "stateMutability": "view",
      "type": "function"
    },
    {
      "inputs": [],
      "name": "maxProposalCount",
      "outputs": [
        {
          "internalType": "uint256",
          "name": "",
          "type": "uint256"
        }
      ],
      "stateMutability": "view",
      "type": "function"
    },
    {
      "inputs": [],
      "name": "name",
      "outputs": [
        {
          "internalType": "string",
          "name": "",
          "type": "string"
        }
      ],
      "stateMutability": "view",
      "type": "function"
    },
    {
      "inputs": [],
      "name": "numAllowedProposalSubmissions",
      "outputs": [
        {
          "internalType": "uint256",
          "name": "",
          "type": "uint256"
        }
      ],
      "stateMutability": "view",
      "type": "function"
    },
    {
      "inputs": [],
      "name": "officialRewardsModule",
      "outputs": [
        {
          "internalType": "contract RewardsModule",
          "name": "",
          "type": "address"
        }
      ],
      "stateMutability": "view",
      "type": "function"
    },
    {
      "inputs": [],
      "name": "prompt",
      "outputs": [
        {
          "internalType": "string",
          "name": "",
          "type": "string"
        }
      ],
      "stateMutability": "view",
      "type": "function"
    },
    {
      "inputs": [
        {
          "internalType": "uint256",
          "name": "proposalId",
          "type": "uint256"
        },
        {
          "internalType": "address",
          "name": "userAddress",
          "type": "address"
        }
      ],
      "name": "proposalAddressVotes",
      "outputs": [
        {
          "internalType": "uint256",
          "name": "forVotes",
          "type": "uint256"
        },
        {
          "internalType": "uint256",
          "name": "againstVotes",
          "type": "uint256"
        }
      ],
      "stateMutability": "view",
      "type": "function"
    },
    {
      "inputs": [
        {
          "internalType": "uint256",
          "name": "proposalId",
          "type": "uint256"
        }
      ],
      "name": "proposalAddressesHaveVoted",
      "outputs": [
        {
          "internalType": "address[]",
          "name": "",
          "type": "address[]"
        }
      ],
      "stateMutability": "view",
      "type": "function"
    },
    {
      "inputs": [
        {
          "internalType": "uint256",
          "name": "proposalId",
          "type": "uint256"
        }
      ],
      "name": "proposalVotes",
      "outputs": [
        {
          "internalType": "uint256",
          "name": "forVotes",
          "type": "uint256"
        },
        {
          "internalType": "uint256",
          "name": "againstVotes",
          "type": "uint256"
        }
      ],
      "stateMutability": "view",
      "type": "function"
    },
    {
      "inputs": [
        {
          "internalType": "uint256",
          "name": "",
          "type": "uint256"
        }
      ],
      "name": "proposalVotesStructs",
      "outputs": [
        {
          "components": [
            {
              "internalType": "uint256",
              "name": "forVotes",
              "type": "uint256"
            },
            {
              "internalType": "uint256",
              "name": "againstVotes",
              "type": "uint256"
            }
          ],
          "internalType": "struct GovernorCountingSimple.VoteCounts",
          "name": "proposalVoteCounts",
          "type": "tuple"
        }
      ],
      "stateMutability": "view",
      "type": "function"
    },
    {
      "inputs": [
        {
          "components": [
            {
              "internalType": "address",
              "name": "author",
              "type": "address"
            },
            {
              "internalType": "bool",
              "name": "exists",
              "type": "bool"
            },
            {
              "internalType": "string",
              "name": "description",
              "type": "string"
            },
            {
              "components": [
                {
                  "internalType": "address",
                  "name": "targetAddress",
                  "type": "address"
                }
              ],
              "internalType": "struct IGovernor.TargetMetadata",
              "name": "targetMetadata",
              "type": "tuple"
            },
            {
              "components": [
                {
                  "internalType": "address[]",
                  "name": "signers",
                  "type": "address[]"
                },
                {
                  "internalType": "uint256",
                  "name": "threshold",
                  "type": "uint256"
                }
              ],
              "internalType": "struct IGovernor.SafeMetadata",
              "name": "safeMetadata",
              "type": "tuple"
            }
          ],
          "internalType": "struct IGovernor.ProposalCore",
          "name": "proposal",
          "type": "tuple"
        },
        {
          "internalType": "bytes32[]",
          "name": "proof",
          "type": "bytes32[]"
        }
      ],
      "name": "propose",
      "outputs": [
        {
          "internalType": "uint256",
          "name": "",
          "type": "uint256"
        }
      ],
      "stateMutability": "nonpayable",
      "type": "function"
    },
    {
      "inputs": [
        {
          "components": [
            {
              "internalType": "address",
              "name": "author",
              "type": "address"
            },
            {
              "internalType": "bool",
              "name": "exists",
              "type": "bool"
            },
            {
              "internalType": "string",
              "name": "description",
              "type": "string"
            },
            {
              "components": [
                {
                  "internalType": "address",
                  "name": "targetAddress",
                  "type": "address"
                }
              ],
              "internalType": "struct IGovernor.TargetMetadata",
              "name": "targetMetadata",
              "type": "tuple"
            },
            {
              "components": [
                {
                  "internalType": "address[]",
                  "name": "signers",
                  "type": "address[]"
                },
                {
                  "internalType": "uint256",
                  "name": "threshold",
                  "type": "uint256"
                }
              ],
              "internalType": "struct IGovernor.SafeMetadata",
              "name": "safeMetadata",
              "type": "tuple"
            }
          ],
          "internalType": "struct IGovernor.ProposalCore",
          "name": "proposal",
          "type": "tuple"
        }
      ],
      "name": "proposeWithoutProof",
      "outputs": [
        {
          "internalType": "uint256",
          "name": "",
          "type": "uint256"
        }
      ],
      "stateMutability": "nonpayable",
      "type": "function"
    },
    {
      "inputs": [
        {
          "internalType": "uint256",
          "name": "ranking",
          "type": "uint256"
        }
      ],
      "name": "rankingPosition",
      "outputs": [
        {
          "internalType": "uint256",
          "name": "",
          "type": "uint256"
        }
      ],
      "stateMutability": "view",
      "type": "function"
    },
    {
      "inputs": [
        {
          "internalType": "contract RewardsModule",
          "name": "officialRewardsModule_",
          "type": "address"
        }
      ],
      "name": "setOfficialRewardsModule",
      "outputs": [],
      "stateMutability": "nonpayable",
      "type": "function"
    },
    {
      "inputs": [],
      "name": "setSortedAndTiedProposals",
      "outputs": [],
      "stateMutability": "nonpayable",
      "type": "function"
    },
    {
      "inputs": [],
      "name": "setSortedAndTiedProposalsHasBeenRun",
      "outputs": [
        {
          "internalType": "bool",
          "name": "",
          "type": "bool"
        }
      ],
      "stateMutability": "view",
      "type": "function"
    },
    {
      "inputs": [],
      "name": "sortedProposalIds",
      "outputs": [
        {
          "internalType": "uint256[]",
          "name": "",
          "type": "uint256[]"
        }
      ],
      "stateMutability": "view",
      "type": "function"
    },
    {
      "inputs": [
        {
          "internalType": "bool",
          "name": "excludeDeletedProposals",
          "type": "bool"
        },
        {
          "internalType": "uint256",
          "name": "startIndex",
          "type": "uint256"
        },
        {
          "internalType": "uint256",
          "name": "endIndex",
          "type": "uint256"
        }
      ],
      "name": "sortedProposals",
      "outputs": [
        {
          "internalType": "uint256[]",
          "name": "sortedProposalIdsReturn",
          "type": "uint256[]"
        }
      ],
      "stateMutability": "view",
      "type": "function"
    },
    {
      "inputs": [],
      "name": "state",
      "outputs": [
        {
          "internalType": "enum IGovernor.ContestState",
          "name": "",
          "type": "uint8"
        }
      ],
      "stateMutability": "view",
      "type": "function"
    },
    {
      "inputs": [],
      "name": "submissionMerkleRoot",
      "outputs": [
        {
          "internalType": "bytes32",
          "name": "",
          "type": "bytes32"
        }
      ],
      "stateMutability": "view",
      "type": "function"
    },
    {
      "inputs": [
        {
          "internalType": "bytes4",
          "name": "interfaceId",
          "type": "bytes4"
        }
      ],
      "name": "supportsInterface",
      "outputs": [
        {
          "internalType": "bool",
          "name": "",
          "type": "bool"
        }
      ],
      "stateMutability": "view",
      "type": "function"
    },
    {
      "inputs": [
        {
          "internalType": "uint256",
          "name": "",
          "type": "uint256"
        }
      ],
      "name": "tiedAdjustedRankingPosition",
      "outputs": [
        {
          "internalType": "uint256",
          "name": "",
          "type": "uint256"
        }
      ],
      "stateMutability": "view",
      "type": "function"
    },
    {
      "inputs": [],
      "name": "totalVotesCast",
      "outputs": [
        {
          "internalType": "uint256",
          "name": "",
          "type": "uint256"
        }
      ],
      "stateMutability": "view",
      "type": "function"
    },
    {
      "inputs": [
        {
          "components": [
            {
              "internalType": "address",
              "name": "author",
              "type": "address"
            },
            {
              "internalType": "bool",
              "name": "exists",
              "type": "bool"
            },
            {
              "internalType": "string",
              "name": "description",
              "type": "string"
            },
            {
              "components": [
                {
                  "internalType": "address",
                  "name": "targetAddress",
                  "type": "address"
                }
              ],
              "internalType": "struct IGovernor.TargetMetadata",
              "name": "targetMetadata",
              "type": "tuple"
            },
            {
              "components": [
                {
                  "internalType": "address[]",
                  "name": "signers",
                  "type": "address[]"
                },
                {
                  "internalType": "uint256",
                  "name": "threshold",
                  "type": "uint256"
                }
              ],
              "internalType": "struct IGovernor.SafeMetadata",
              "name": "safeMetadata",
              "type": "tuple"
            }
          ],
          "internalType": "struct IGovernor.ProposalCore",
          "name": "proposal",
          "type": "tuple"
        }
      ],
      "name": "validateProposalData",
      "outputs": [
        {
          "internalType": "bool",
          "name": "dataValidated",
          "type": "bool"
        }
      ],
      "stateMutability": "nonpayable",
      "type": "function"
    },
    {
      "inputs": [
        {
          "internalType": "address",
          "name": "account",
          "type": "address"
        },
        {
          "internalType": "bytes32[]",
          "name": "proof",
          "type": "bytes32[]"
        }
      ],
      "name": "verifyProposer",
      "outputs": [
        {
          "internalType": "bool",
          "name": "verified",
          "type": "bool"
        }
      ],
      "stateMutability": "nonpayable",
      "type": "function"
    },
    {
      "inputs": [
        {
          "internalType": "address",
          "name": "account",
          "type": "address"
        },
        {
          "internalType": "uint256",
          "name": "totalVotes",
          "type": "uint256"
        },
        {
          "internalType": "bytes32[]",
          "name": "proof",
          "type": "bytes32[]"
        }
      ],
      "name": "verifyVoter",
      "outputs": [
        {
          "internalType": "bool",
          "name": "verified",
          "type": "bool"
        }
      ],
      "stateMutability": "nonpayable",
      "type": "function"
    },
    {
      "inputs": [],
      "name": "version",
      "outputs": [
        {
          "internalType": "string",
          "name": "",
          "type": "string"
        }
      ],
      "stateMutability": "view",
      "type": "function"
    },
    {
      "inputs": [],
      "name": "voteStart",
      "outputs": [
        {
          "internalType": "uint256",
          "name": "",
          "type": "uint256"
        }
      ],
      "stateMutability": "view",
      "type": "function"
    },
    {
      "inputs": [],
      "name": "votingDelay",
      "outputs": [
        {
          "internalType": "uint256",
          "name": "",
          "type": "uint256"
        }
      ],
      "stateMutability": "view",
      "type": "function"
    },
    {
      "inputs": [],
      "name": "votingMerkleRoot",
      "outputs": [
        {
          "internalType": "bytes32",
          "name": "",
          "type": "bytes32"
        }
      ],
      "stateMutability": "view",
      "type": "function"
    },
    {
      "inputs": [],
      "name": "votingPeriod",
      "outputs": [
        {
          "internalType": "uint256",
          "name": "",
          "type": "uint256"
        }
      ],
      "stateMutability": "view",
      "type": "function"
    },
    {
      "stateMutability": "payable",
      "type": "receive"
    }
  ],
  "bytecode": {
    "object": "0x6101a06040526017805460ff191690553480156200001c57600080fd5b5060405162004806380380620048068339810160408190526200003f9162000622565b8060008151811062000055576200005562000733565b60200260200101518160018151811062000073576200007362000733565b60200260200101518260028151811062000091576200009162000733565b602002602001015183600381518110620000af57620000af62000733565b602002602001015184600481518110620000cd57620000cd62000733565b602002602001015185600581518110620000eb57620000eb62000733565b60200260200101518a8a8a8a8181856200010a6200025060201b60201c565b620001178260006200026e565b61012052620001288160016200026e565b61014052815160208084019190912060e052815190820120610100524660a052620001b660e05161010051604080517f8b73c3c69bb8fe3d512ecc4cf759cc79239f7b179b0ffacaa9a75d522b39400f60208201529081019290925260608201524660808201523060a082015260009060c00160405160208183030381529060405280519060200120905090565b60805250503060c05261016091909152610180526008620001d88582620007d8565b506009620001e78482620007d8565b5050505050620001fd86620002a760201b60201c565b6200020885620002e8565b620002138462000329565b6200021e83620003d0565b620002298262000411565b620002348162000452565b6200023f3362000493565b5050505050505050505050620008fe565b604080518082019091526004815263332e313160e01b602082015290565b60006020835110156200028e576200028683620004fc565b9050620002a1565b816200029b8482620007d8565b5060ff90505b92915050565b600d5460408051918252602082018390527fd299feb1d7d9345a48559601c471c3be7eea9a11f21d5e86809198f40a974db4910160405180910390a1600d55565b600e5460408051918252602082018390527fc565b045403dc03c2eea82b81a0465edad9e2e7fc4d97e11421c209da93d7a93910160405180910390a1600e55565b600081116200038f5760405162461bcd60e51b815260206004820152602760248201527f476f7665726e6f7253657474696e67733a20766f74696e6720706572696f6420604482015266746f6f206c6f7760c81b60648201526084015b60405180910390fd5b600f5460408051918252602082018390527f7e3f7f0708a84de9203036abaa450dccc85ad5ff52f78c170f3edb55cf5e8828910160405180910390a1600f55565b60105460408051918252602082018390527fe971b819c7fb95c72451f557226aceb5baaf4994a9d39a79bbfa0040e87500b9910160405180910390a1601055565b60115460408051918252602082018390527f4984ec996723330ee95979ed65a2a4b41edd914e68a187efe92596474643bdff910160405180910390a1601155565b60125460408051918252602082018390527f9c7b27f091caef3a83be73d89320404fa0c4a52993685ff0651672e49e6e55ab910160405180910390a1601255565b601354604080516001600160a01b03928316815291831660208301527fc30034fc2e9697980e08935bbc287db3eaa44a4aa113ef4c108b356adbf911ce910160405180910390a1601380546001600160a01b0319166001600160a01b0392909216919091179055565b600080829050601f815111156200052a578260405163305a27a960e01b8152600401620003869190620008a4565b80516200053782620008d9565b179392505050565b634e487b7160e01b600052604160045260246000fd5b604051601f8201601f191681016001600160401b03811182821017156200058057620005806200053f565b604052919050565b60005b83811015620005a55781810151838201526020016200058b565b50506000910152565b600082601f830112620005c057600080fd5b81516001600160401b03811115620005dc57620005dc6200053f565b620005f1601f8201601f191660200162000555565b8181528460208386010111156200060757600080fd5b6200061a82602083016020870162000588565b949350505050565b600080600080600060a086880312156200063b57600080fd5b85516001600160401b03808211156200065357600080fd5b6200066189838a01620005ae565b96506020915081880151818111156200067957600080fd5b620006878a828b01620005ae565b9650506040880151945060608801519350608088015181811115620006ab57600080fd5b8801601f81018a13620006bd57600080fd5b805182811115620006d257620006d26200053f565b8060051b9250620006e584840162000555565b818152928201840192848101908c8511156200070057600080fd5b928501925b84841015620007205783518252928501929085019062000705565b8096505050505050509295509295909350565b634e487b7160e01b600052603260045260246000fd5b600181811c908216806200075e57607f821691505b6020821081036200077f57634e487b7160e01b600052602260045260246000fd5b50919050565b601f821115620007d357600081815260208120601f850160051c81016020861015620007ae5750805b601f850160051c820191505b81811015620007cf57828155600101620007ba565b5050505b505050565b81516001600160401b03811115620007f457620007f46200053f565b6200080c8162000805845462000749565b8462000785565b602080601f8311600181146200084457600084156200082b5750858301515b600019600386901b1c1916600185901b178555620007cf565b600085815260208120601f198616915b82811015620008755788860151825594840194600190910190840162000854565b5085821015620008945787850151600019600388901b60f8161c191681555b5050505050600190811b01905550565b6020815260008251806020840152620008c581604085016020870162000588565b601f01601f19169190910160400192915050565b805160208083015191908110156200077f5760001960209190910360031b1b16919050565b60805160a05160c05160e0516101005161012051610140516101605161018051613e8a6200097c60003960008181610a860152610f2801526000818161091e01528181610d7001528181610ec30152611027015260006113bb0152600061139101526000505060005050600050506000505060005050613e8a6000f3fe60806040526004361061039a5760003560e01c8063832009af116101dc578063d889161911610102578063e5eb5a48116100a0578063f0a7db0a1161006f578063f0a7db0a14610b8a578063f4f3d7ec14610baa578063fb8ddab414610bca578063fb9bf8d414610bea57600080fd5b8063e5eb5a4814610b1e578063ea8a1af014610b4b578063ebc18b9b14610b60578063efa90d3614610b7557600080fd5b8063dd96a19d116100dc578063dd96a19d14610a74578063dea5f6a614610aa8578063deaaa7cc14610ad5578063e031535b14610b0957600080fd5b8063d8891619146109f4578063da3d308514610a0e578063dd4e2ba514610a2e57600080fd5b8063aec116b61161017a578063c19d93fb11610149578063c19d93fb14610960578063c7f758a814610982578063cb853950146109af578063d45a010b146109df57600080fd5b8063aec116b6146108a9578063b323580d146108df578063bddc16411461090c578063c0ffaa781461094057600080fd5b80638a9cd550116101b65780638a9cd55014610822578063930de9791461083757806396f0e96214610867578063a1ac6cb21461087c57600080fd5b8063832009af146107c557806384b0196e146107da578063861874881461080257600080fd5b8063458da87d116102c15780635f953a031161025f5780636e4eb8101161022e5780636e4eb8101461075c578063785ddfe51461077c5780637c65d7111461079a5780637de418d5146107af57600080fd5b80635f953a03146106dc57806360506ff61461071257806365f16263146107275780636ca1a2c71461074757600080fd5b806350a5e5241161029b57806350a5e52414610622578063531bd81214610645578063544ffc9c1461066557806354fd4d50146106af57600080fd5b8063458da87d146105cd578063476f4d8a146105ed5780634d24a67f1461060d57600080fd5b806320b3e84511610339578063347cf66511610308578063347cf6651461054c5780633932abb1146105685780633b6d199b1461057d578063419c533c146105ad57600080fd5b806320b3e845146104d75780632399c660146104f7578063262e59e91461051757806332763c221461052c57600080fd5b806302d05d3f1161037557806302d05d3f1461041557806306fdde0314610442578063070dc5d9146104645780631242b737146104b557600080fd5b80624114a8146103a857806301ffc9a7146103d057806302a251a31461040057600080fd5b366103a357005b005b600080fd5b3480156103b457600080fd5b506103bd610bff565b6040519081526020015b60405180910390f35b3480156103dc57600080fd5b506103f06103eb3660046131c5565b610c0f565b60405190151581526020016103c7565b34801561040c57600080fd5b506103bd610c46565b34801561042157600080fd5b5061042a610c51565b6040516001600160a01b0390911681526020016103c7565b34801561044e57600080fd5b50610457610c65565b6040516103c79190613235565b34801561047057600080fd5b506104a861047f366004613248565b601660209081526000918252604091829020825180840190935280548352600101549082015281565b6040516103c79190613261565b3480156104c157600080fd5b506104ca610cf7565b6040516103c791906132b3565b3480156104e357600080fd5b506103f06104f2366004613322565b610d4e565b34801561050357600080fd5b506103f0610512366004613248565b610de4565b34801561052357600080fd5b506103bd610e28565b34801561053857600080fd5b506103f061054736600461338b565b610e44565b34801561055857600080fd5b506103bd678ac7230489e8000081565b34801561057457600080fd5b506103bd610f81565b34801561058957600080fd5b506103f0610598366004613248565b60009081526007602052604090205460ff1690565b3480156105b957600080fd5b506103bd6105c836600461340c565b610f8c565b3480156105d957600080fd5b506103bd6105e8366004613727565b610ff2565b3480156105f957600080fd5b506103bd610608366004613727565b611023565b34801561061957600080fd5b506103bd600281565b34801561062e57600080fd5b5061063761108d565b6040516103c792919061375b565b34801561065157600080fd5b506103f06106603660046137c4565b611193565b34801561067157600080fd5b5061069a610680366004613248565b600090815260166020526040902080546001909101549091565b604080519283526020830191909152016103c7565b3480156106bb57600080fd5b50604080518082019091526004815263332e313160e01b6020820152610457565b3480156106e857600080fd5b506103bd6106f736600461381f565b6001600160a01b03166000908152600c602052604090205490565b34801561071e57600080fd5b506103bd6111fe565b34801561073357600080fd5b506103bd61074236600461383c565b611209565b34801561075357600080fd5b506103bd611308565b34801561076857600080fd5b5061069a610777366004613871565b611334565b34801561078857600080fd5b50601d546001600160a01b031661042a565b3480156107a657600080fd5b50610457611369565b3480156107bb57600080fd5b506103bd60145481565b3480156107d157600080fd5b506103bd611378565b3480156107e657600080fd5b506107ef611383565b6040516103c797969594939291906138a1565b34801561080e57600080fd5b506103bd61081d366004613248565b61140b565b34801561082e57600080fd5b506104ca611443565b34801561084357600080fd5b506103f061085236600461381f565b60036020526000908152604090205460ff1681565b34801561087357600080fd5b506103a16114bc565b34801561088857600080fd5b506103bd61089736600461381f565b60156020526000908152604090205481565b3480156108b557600080fd5b506103bd6108c436600461381f565b6001600160a01b031660009081526015602052604090205490565b3480156108eb57600080fd5b506108ff6108fa366004613248565b6117d3565b6040516103c7919061394a565b34801561091857600080fd5b506103bd7f000000000000000000000000000000000000000000000000000000000000000081565b34801561094c57600080fd5b506103bd61095b36600461395d565b611845565b34801561096c57600080fd5b50610975611889565b6040516103c791906139ce565b34801561098e57600080fd5b506109a261099d366004613248565b6118fb565b6040516103c791906139f6565b3480156109bb57600080fd5b506103f06109ca36600461381f565b60046020526000908152604090205460ff1681565b3480156109eb57600080fd5b50610637611a75565b348015610a0057600080fd5b506017546103f09060ff1681565b348015610a1a57600080fd5b506104ca610a29366004613a7c565b611c40565b348015610a3a57600080fd5b5060408051808201909152601881527f737570706f72743d627261766f2671756f72756d3d666f7200000000000000006020820152610457565b348015610a8057600080fd5b506103bd7f000000000000000000000000000000000000000000000000000000000000000081565b348015610ab457600080fd5b506103bd610ac336600461381f565b60026020526000908152604090205481565b348015610ae157600080fd5b506103bd7f150214d74d59b7d1e90c73fc22ef3d991dd0a76b046543d4d80ab92d2a50328f81565b348015610b1557600080fd5b506103bd611e57565b348015610b2a57600080fd5b506103bd610b39366004613248565b60186020526000908152604090205481565b348015610b5757600080fd5b506103a1611e69565b348015610b6c57600080fd5b506103bd611f53565b348015610b8157600080fd5b506104ca611f7f565b348015610b9657600080fd5b506103a1610ba5366004613aaf565b611fd5565b348015610bb657600080fd5b506103a1610bc536600461381f565b6121e5565b348015610bd657600080fd5b506103f0610be5366004613727565b612280565b348015610bf657600080fd5b506103bd61250b565b6000610c0a600d5490565b905090565b60006001600160e01b0319821663eed9776760e01b1480610c4057506301ffc9a760e01b6001600160e01b03198316145b92915050565b6000610c0a600f5490565b6000610c0a6013546001600160a01b031690565b606060088054610c7490613b3f565b80601f0160208091040260200160405190810160405280929190818152602001828054610ca090613b3f565b8015610ced5780601f10610cc257610100808354040283529160200191610ced565b820191906000526020600020905b815481529060010190602001808311610cd057829003601f168201915b5050505050905090565b60606006805480602002602001604051908101604052809291908181526020018280548015610ced57602002820191906000526020600020905b815481526020019060010190808311610d31575050505050905090565b6001600160a01b03831660009081526004602052604081205460ff16610dd9577f0000000000000000000000000000000000000000000000000000000000000000600003610d9e57506001610ddd565b610db484678ac7230489e8000085856000610e44565b506001600160a01b0384166000908152600460205260409020805460ff191660011790555b5060015b9392505050565b60175460009060ff16610e125760405162461bcd60e51b8152600401610e0990613b79565b60405180910390fd5b5060009081526019602052604090205460ff1690565b6000610e32610c46565b610e3a611e57565b610c0a9190613bfa565b6040516bffffffffffffffffffffffff19606087901b166020820152603481018590526000908190605401604051602081830303815290604052805190602001209050600083610ef357610eee8686808060200260200160405190810160405280939291908181526020018383602002808284376000920191909152507f000000000000000000000000000000000000000000000000000000000000000092508691506125169050565b610f53565b610f538686808060200260200160405190810160405280939291908181526020018383602002808284376000920191909152507f000000000000000000000000000000000000000000000000000000000000000092508691506125169050565b905080610f735760405163452c2df160e11b815260040160405180910390fd5b506001979650505050505050565b6000610c0a600e5490565b600086815260076020526040812054339060ff1615610fbd5760405162461bcd60e51b8152600401610e0990613c0d565b610fc981878686611193565b50610fe6888289886040518060200160405280600081525061252c565b98975050505050505050565b60008160405160200161100591906139f6565b60408051601f19818403018152919052805160209091012092915050565b60007f00000000000000000000000000000000000000000000000000000000000000001561107a573360009081526004602052604090205460ff1661107a5760405162461bcd60e51b8152600401610e0990613c5c565b61108382612280565b50610c4082612746565b606080600061109a611f7f565b9050600081516001600160401b038111156110b7576110b761347c565b6040519080825280602002602001820160405280156110fc57816020015b60408051808201909152600080825260208201528152602001906001900390816110d55790505b50905060005b8251811015611189576016600084838151811061112157611121613cab565b602002602001015181526020019081526020016000206000016040518060400160405290816000820154815260200160018201548152505082828151811061116b5761116b613cab565b6020026020010181905250808061118190613cc1565b915050611102565b5090939092509050565b6001600160a01b03841660009081526003602052604081205460ff166111f3576111c1858585856001610e44565b506001600160a01b038516600090815260026020908152604080832087905560039091529020805460ff191660011790555b506001949350505050565b6000610c0a60125490565b600083815260076020526040812054339060ff161561123a5760405162461bcd60e51b8152600401610e0990613c0d565b6001600160a01b03811660009081526003602052604090205460ff166112e35760405162461bcd60e51b815260206004820152605260248201527f476f7665726e6f723a20796f75206e65656420746f2063617374206120766f7460448201527f652077697468207468652070726f6f66206174206c65617374206f6e636520616064820152711b99081e5bdd481a185d995b89dd081e595d60721b608482015260a401610e09565b6112ff858286866040518060200160405280600081525061252c565b95945050505050565b60175460009060ff1661132d5760405162461bcd60e51b8152600401610e0990613b79565b50601b5490565b60008281526016602090815260408083206001600160a01b0385168452600301909152902080546001909101545b9250929050565b606060098054610c7490613b3f565b6000610c0a60105490565b6000606080828080836113b67f000000000000000000000000000000000000000000000000000000000000000083612ae0565b6113e17f00000000000000000000000000000000000000000000000000000000000000006001612ae0565b60408051600080825260208201909252600f60f81b9b939a50919850469750309650945092509050565b60175460009060ff166114305760405162461bcd60e51b8152600401610e0990613b79565b5060009081526018602052604090205490565b60175460609060ff166114685760405162461bcd60e51b8152600401610e0990613b79565b601a805480602002602001604051908101604052809291908181526020018280548015610ced5760200282019190600052602060002090815481526020019060010190808311610d31575050505050905090565b60046114c6611889565b60048111156114d7576114d76139b8565b1461155a5760405162461bcd60e51b815260206004820152604760248201527f476f7665726e6f72536f7274696e673a20636f6e74657374206d75737420626560448201527f20746f2063616c63756c61746520736f7274656420616e6420746965642070726064820152666f706f73616c7360c81b608482015260a401610e09565b60175460ff16156115f95760405162461bcd60e51b815260206004820152605f60248201527f476f7665726e6f72536f7274696e673a20736574536f72746564416e6454696560448201527f6450726f706f73616c7328292068617320616c7265616479206265656e20727560648201527f6e20616e642069747320726573706563746976652076616c7565732073657400608482015260a401610e09565b6116066001600080611c40565b805161161a91601a9160209091019061309f565b50601a5460009060019061162e9082613bfa565b601c5560005b601a548110156117c157601a5460009061165090600190613cda565b9050600080611699601a6116648686613cda565b8154811061167457611674613cab565b9060005260206000200154600090815260166020526040902080546001909101549091565b909250905060006116aa8284613ced565b9050846000036116eb57601a5490965086906001036116e2576116cd8585613cda565b600087815260186020526040902055601b8690555b505050506117af565b86810361173e5760008681526019602052604090205460ff16611722576000868152601960205260409020805460ff191660011790555b601a54611730906001613bfa565b601c540361173e57601c8690555b8681146117775761174f8585613cda565b61175a906001613bfa565b6000878152601860205260409020558561177381613cc1565b9650505b601a54611785866001613bfa565b036117a9576117948585613cda565b600087815260186020526040902055601b8690555b95505050505b806117b981613cc1565b915050611634565b50506017805460ff1916600117905550565b600081815260166020908152604091829020600281018054845181850281018501909552808552606094929383018282801561183857602002820191906000526020600020905b81546001600160a01b0316815260019091019060200180831161181a575b5050505050915050919050565b6000611852338484610d4e565b61186e5760405162461bcd60e51b8152600401610e0990613c5c565b61187784612280565b5061188184612746565b949350505050565b600a5460009060ff161561189d5750600290565b60006118a7610bff565b90504281106118b857600091505090565b60006118c2611e57565b90504281106118d45760039250505090565b60006118de610e28565b90504281106118f1576001935050505090565b6004935050505090565b6119036130ea565b6000828152600b6020908152604091829020825160a08101845281546001600160a01b0381168252600160a01b900460ff16151592810192909252600181018054929391929184019161195590613b3f565b80601f016020809104026020016040519081016040528092919081815260200182805461198190613b3f565b80156119ce5780601f106119a3576101008083540402835291602001916119ce565b820191906000526020600020905b8154815290600101906020018083116119b157829003601f168201915b5050509183525050604080516020818101835260028501546001600160a01b03168252808401919091528151600385018054606093810283018401855282850181815294909501949193909284928491840182828015611a5757602002820191906000526020600020905b81546001600160a01b03168152600190910190602001808311611a39575b50505050508152602001600182015481525050815250509050919050565b6060806000611a82611f7f565b9050600081516001600160401b03811115611a9f57611a9f61347c565b604051908082528060200260200182016040528015611ac8578160200160208202803683370190505b509050600082516001600160401b03811115611ae657611ae661347c565b604051908082528060200260200182016040528015611b2b57816020015b6040805180820190915260008082526020820152815260200190600190039081611b045790505b5090506000805b8451811015611c3457611b6d858281518110611b5057611b50613cab565b602002602001015160009081526007602052604090205460ff1690565b611c2257848181518110611b8357611b83613cab565b6020026020010151848381518110611b9d57611b9d613cab565b60200260200101818152505060166000868381518110611bbf57611bbf613cab565b6020026020010151815260200190815260200160002060000160405180604001604052908160008201548152602001600182015481525050838381518110611c0957611c09613cab565b6020908102919091010152611c1f600183613bfa565b91505b80611c2c81613cc1565b915050611b32565b50919590945092505050565b606060008085611c5757611c5261108d565b611c5f565b611c5f611a75565b915091506000825111611ccf5760405162461bcd60e51b815260206004820152603260248201527f476f7665726e6f72536f7274696e673a2063616e6e6f7420736f72742061206c6044820152710d2e6e840decc40f4cae4de40d8cadccee8d60731b6064820152608401610e09565b600082516001600160401b03811115611cea57611cea61347c565b604051908082528060200260200182016040528015611d13578160200160208202803683370190505b50905060005b8251811015611d9757828181518110611d3457611d34613cab565b602002602001015160200151838281518110611d5257611d52613cab565b602002602001015160000151611d689190613ced565b828281518110611d7a57611d7a613cab565b602090810291909101015280611d8f81613cc1565b915050611d19565b5060005b60018451611da99190613cda565b811015611dce57611dbb818386612b8c565b5080611dc681613cc1565b915050611d9b565b5085158015611ddb575084155b15611deb57829350505050610ddd565b6060865b86811015611e4b57848181518110611e0957611e09613cab565b6020026020010151828983611e1e9190613cda565b81518110611e2e57611e2e613cab565b602090810291909101015280611e4381613cc1565b915050611def565b50979650505050505050565b6000611e61610f81565b610e3a610bff565b611e71610c51565b6001600160a01b0316336001600160a01b031614611e8e57600080fd5b6000611e98611889565b90506002816004811115611eae57611eae6139b8565b14158015611ece57506004816004811115611ecb57611ecb6139b8565b14155b611f1a5760405162461bcd60e51b815260206004820152601c60248201527f476f7665726e6f723a20636f6e74657374206e6f7420616374697665000000006044820152606401610e09565b600a805460ff191660011790556040517f4cd963a081760a54f571abc0f1db4dde31b4a07d8d6da3e844b8c6f47eeaaa4290600090a150565b60175460009060ff16611f785760405162461bcd60e51b8152600401610e0990613b79565b50601c5490565b60606005805480602002602001604051908101604052809291908181526020018280548015610ced5760200282019190600052602060002090815481526020019060010190808311610d31575050505050905090565b611fdd610c51565b6001600160a01b0316336001600160a01b0316146120635760405162461bcd60e51b815260206004820152603760248201527f476f7665726e6f723a206f6e6c792074686520636f6e7465737420637265617460448201527f6f722063616e2064656c6574652070726f706f73616c730000000000000000006064820152608401610e09565b600461206d611889565b600481111561207e5761207e6139b8565b036121035760405162461bcd60e51b815260206004820152604960248201527f476f7665726e6f723a2064656c6574696f6e206f662070726f706f73616c732060448201527f61667465722074686520656e64206f66206120636f6e74657374206973206e6f6064820152681d08185b1b1bddd95960ba1b608482015260a401610e09565b60005b81518110156121aa57600082828151811061212357612123613cab565b6020908102919091018101516000818152600790925260409091205490915060ff16612197576000818152600760205260408120805460ff191660019081179091556006805491820181559091527ff652222313e28459528d920b65115c16c04f3efc82aaedc97be59f3f377c0d3f018190555b50806121a281613cc1565b915050612106565b507f75a75cf5c561892f4cc5b26c1b8e933849b42238c96dd073d080d1ae96c51416816040516121da91906132b3565b60405180910390a150565b6121ed610c51565b6001600160a01b0316336001600160a01b03161461220a57600080fd5b600061221e601d546001600160a01b031690565b601d80546001600160a01b0319166001600160a01b0385811691821790925560408051928416835260208301919091529192507f753a2cf8d360cff631674504210913e48247f8e56b3e6d2006c2103d4095999f910160405180910390a15050565b80516000906001600160a01b031633146122f55760405162461bcd60e51b815260206004820152603060248201527f476f7665726e6f723a207468652070726f706f73616c20617574686f72206d7560448201526f39ba1031329036b9b39739b2b73232b960811b6064820152608401610e09565b60005b60028110156124ad576000816001811115612315576123156139b8565b9050600081600181111561232b5761232b6139b8565b03612336575061249b565b600181600181111561234a5761234a6139b8565b0361248057608084015151516000036123dc5760405162461bcd60e51b815260206004820152604860248201527f476f7665726e6f724d6574616461746156616c69646174696f6e3a207468657260448201527f652063616e6e6f74206265207a65726f207369676e65727320696e20736166656064820152674d6574616461746160c01b608482015260a401610e09565b8360800151602001516000036124685760405162461bcd60e51b8152602060048201526044602482018190527f476f7665726e6f724d6574616461746156616c69646174696f6e3a2074687265908201527f73686f6c642063616e6e6f74206265207a65726f20696e20736166654d6574616064820152636461746160e01b608482015260a401610e09565b6080840151515160000361247b57600080fd5b612499565b6040516308b6566d60e11b815260040160405180910390fd5b505b806124a581613cc1565b9150506122f8565b508160400151516000036125035760405162461bcd60e51b815260206004820152601860248201527f476f7665726e6f723a20656d7074792070726f706f73616c00000000000000006044820152606401610e09565b506001919050565b6000610c0a60115490565b6000826125238584612cf2565b14949350505050565b60006001612538611889565b6004811115612549576125496139b8565b146125a25760405162461bcd60e51b815260206004820152602360248201527f476f7665726e6f723a20766f7465206e6f742063757272656e746c792061637460448201526269766560e81b6064820152608401610e09565b600083116126065760405162461bcd60e51b815260206004820152602b60248201527f476f7665726e6f723a2063616e6e6f7420766f746520776974682030206f722060448201526a666577657220766f74657360a81b6064820152608401610e09565b6001600160a01b03851660009081526003602052604090205460ff166126ac5760405162461bcd60e51b815260206004820152604f60248201527f476f7665726e6f723a20796f75206e65656420746f2076657269667920796f7560448201527f72206e756d626572206f6620766f74657320616761696e737420746865206d6560648201526e1c9adb19481c9bdbdd08199a5c9cdd608a1b608482015260a401610e09565b6126de86868686600260008b6001600160a01b03166001600160a01b0316815260200190815260200160002054612d3f565b846001600160a01b03167fb8e138887d0aa13bab447e82de9d5c1777041ecd21ca36ba824ff1e6c07ddda48786868660405161271d9493929190613d14565b60405180910390a2505050506001600160a01b0316600090815260026020526040902054919050565b60006003612752611889565b6004811115612763576127636139b8565b146127d65760405162461bcd60e51b815260206004820152603e60248201527f476f7665726e6f723a20636f6e74657374206d7573742062652071756575656460448201527f20666f722070726f706f73616c7320746f206265207375626d697474656400006064820152608401610e09565b6127de611378565b336000908152600c6020526040902054106128955760405162461bcd60e51b815260206004820152606560248201527f476f7665726e6f723a207468652073616d6520616464726573732063616e6e6f60448201527f74207375626d6974206d6f7265207468616e20746865206e756d416c6c6f776560648201527f6450726f706f73616c5375626d697373696f6e7320666f72207468697320636f6084820152641b9d195cdd60da1b60a482015260c401610e09565b61289d61250b565b6006546005546128ad9190613cda565b106129205760405162461bcd60e51b815260206004820152603960248201527f476f7665726e6f723a20746865206d6178206e756d626572206f662070726f7060448201527f6f73616c732068617665206265656e207375626d6974746564000000000000006064820152608401610e09565b600061292b83610ff2565b6000818152600b6020526040902054909150600160a01b900460ff16156129a65760405162461bcd60e51b815260206004820152602960248201527f476f7665726e6f723a206475706c69636174652070726f706f73616c73206e6f6044820152681d08185b1b1bddd95960ba1b6064820152608401610e09565b6005805460018181019092557f036b6384b5eca791c62761152d0c79bb0604c104a5fb6f4eb0703f3154bb3db0018290556000828152600b602090815260409182902086518154928801511515600160a01b026001600160a81b03199093166001600160a01b0390911617919091178155908501518592820190612a2a9082613d95565b506060820151516002820180546001600160a01b0319166001600160a01b039092169190911790556080820151805180516003840191612a6f9183916020019061315b565b50602091820151600191820155336000908152600c9092526040822080549194509250612a9d908490613bfa565b9091555050604080518281523360208201527fcd423cc1203c0af96b9b3d68d73b3064a69de2d14450bb7181c5e5df2132b358910160405180910390a192915050565b606060ff8314612afa57612af38361300c565b9050610c40565b818054612b0690613b3f565b80601f0160208091040260200160405190810160405280929190818152602001828054612b3290613b3f565b8015612b7f5780601f10612b5457610100808354040283529160200191612b7f565b820191906000526020600020905b815481529060010190602001808311612b6257829003601f168201915b5050505050905092915050565b600083805b8451811015612bea57848281518110612bac57612bac613cab565b6020026020010151858281518110612bc657612bc6613cab565b60200260200101511215612bd8578091505b80612be281613cc1565b915050612b91565b50848103612bfc576000915050610ddd565b6000848681518110612c1057612c10613cab565b60200260200101519050848281518110612c2c57612c2c613cab565b6020026020010151858781518110612c4657612c46613cab565b60200260200101818152505080858381518110612c6557612c65613cab565b6020026020010181815250506000848781518110612c8557612c85613cab565b60200260200101519050848381518110612ca157612ca1613cab565b6020026020010151858881518110612cbb57612cbb613cab565b60200260200101818152505080858481518110612cda57612cda613cab565b60209081029190910101525060019695505050505050565b600081815b8451811015612d3757612d2382868381518110612d1657612d16613cab565b602002602001015161304b565b915080612d2f81613cc1565b915050612cf7565b509392505050565b60008581526016602090815260408083206001600160a01b0388168452601590925290912054612d6f9083613cda565b831115612dda5760405162461bcd60e51b815260206004820152603360248201527f476f7665726e6f72566f74696e6753696d706c653a206e6f7420656e6f756768604482015272081d9bdd195cc81b19599d081d1bc818d85cdd606a1b6064820152608401610e09565b6001600160a01b03851660009081526003820160205260409020541560ff8516612e4c57815484908390600090612e12908490613bfa565b90915550506001600160a01b038616600090815260038301602052604081208054869290612e41908490613bfa565b90915550612f869050565b60001960ff861601612f2057612e606111fe565b600114612ed7576040805162461bcd60e51b81526020600482015260248101919091527f476f7665726e6f72566f74696e6753696d706c653a20646f776e766f74696e6760448201527f206973206e6f7420656e61626c656420666f72207468697320436f6e746573746064820152608401610e09565b83826000016001016000828254612eee9190613bfa565b90915550506001600160a01b038616600090815260038301602052604081206001018054869290612e41908490613bfa565b60405162461bcd60e51b815260206004820152603560248201527f476f7665726e6f72566f74696e6753696d706c653a20696e76616c69642076616044820152746c756520666f7220656e756d20566f74655479706560581b6064820152608401610e09565b8015612fbd57600282018054600181018255600091825260209091200180546001600160a01b0319166001600160a01b0388161790555b6001600160a01b03861660009081526015602052604081208054869290612fe5908490613bfa565b925050819055508360146000828254612ffe9190613bfa565b909155505050505050505050565b6060600061301983613077565b604080516020808252818301909252919250600091906020820181803683375050509182525060208101929092525090565b6000818310613067576000828152602084905260409020610ddd565b5060009182526020526040902090565b600060ff8216601f811115610c4057604051632cd44ac360e21b815260040160405180910390fd5b8280548282559060005260206000209081019282156130da579160200282015b828111156130da5782518255916020019190600101906130bf565b506130e69291506131b0565b5090565b6040518060a0016040528060006001600160a01b0316815260200160001515815260200160608152602001613134604051806020016040528060006001600160a01b031681525090565b8152602001613156604051806040016040528060608152602001600081525090565b905290565b8280548282559060005260206000209081019282156130da579160200282015b828111156130da57825182546001600160a01b0319166001600160a01b0390911617825560209092019160019091019061317b565b5b808211156130e657600081556001016131b1565b6000602082840312156131d757600080fd5b81356001600160e01b031981168114610ddd57600080fd5b6000815180845260005b81811015613215576020818501810151868301820152016131f9565b506000602082860101526020601f19601f83011685010191505092915050565b602081526000610ddd60208301846131ef565b60006020828403121561325a57600080fd5b5035919050565b815181526020808301519082015260408101610c40565b600081518084526020808501945080840160005b838110156132a85781518752958201959082019060010161328c565b509495945050505050565b602081526000610ddd6020830184613278565b6001600160a01b03811681146132db57600080fd5b50565b60008083601f8401126132f057600080fd5b5081356001600160401b0381111561330757600080fd5b6020830191508360208260051b850101111561136257600080fd5b60008060006040848603121561333757600080fd5b8335613342816132c6565b925060208401356001600160401b0381111561335d57600080fd5b613369868287016132de565b9497909650939450505050565b8035801515811461338657600080fd5b919050565b6000806000806000608086880312156133a357600080fd5b85356133ae816132c6565b94506020860135935060408601356001600160401b038111156133d057600080fd5b6133dc888289016132de565b90945092506133ef905060608701613376565b90509295509295909350565b803560ff8116811461338657600080fd5b60008060008060008060a0878903121561342557600080fd5b86359550613435602088016133fb565b9450604087013593506060870135925060808701356001600160401b0381111561345e57600080fd5b61346a89828a016132de565b979a9699509497509295939492505050565b634e487b7160e01b600052604160045260246000fd5b604080519081016001600160401b03811182821017156134b4576134b461347c565b60405290565b60405160a081016001600160401b03811182821017156134b4576134b461347c565b604051601f8201601f191681016001600160401b03811182821017156135045761350461347c565b604052919050565b60006020828403121561351e57600080fd5b604051602081018181106001600160401b03821117156135405761354061347c565b6040529050808235613551816132c6565b905292915050565b60006001600160401b038211156135725761357261347c565b5060051b60200190565b60006040828403121561358e57600080fd5b613596613492565b905081356001600160401b038111156135ae57600080fd5b8201601f810184136135bf57600080fd5b803560206135d46135cf83613559565b6134dc565b82815260059290921b830181019181810190878411156135f357600080fd5b938201935b8385101561361a57843561360b816132c6565b825293820193908201906135f8565b85525093840135938301939093525092915050565b600060a0828403121561364157600080fd5b6136496134ba565b90508135613656816132c6565b81526020613665838201613376565b8183015260408301356001600160401b038082111561368357600080fd5b818501915085601f83011261369757600080fd5b8135818111156136a9576136a961347c565b6136bb601f8201601f191685016134dc565b81815287858386010111156136cf57600080fd5b8185850186830137600085838301015280604087015250506136f4866060870161350c565b6060850152608085013592508083111561370d57600080fd5b505061371b8482850161357c565b60808301525092915050565b60006020828403121561373957600080fd5b81356001600160401b0381111561374f57600080fd5b6118818482850161362f565b6000604080835261376e81840186613278565b83810360208581019190915285518083528682019282019060005b818110156137b6576137a683865180518252602090810151910152565b9383019391850191600101613789565b509098975050505050505050565b600080600080606085870312156137da57600080fd5b84356137e5816132c6565b93506020850135925060408501356001600160401b0381111561380757600080fd5b613813878288016132de565b95989497509550505050565b60006020828403121561383157600080fd5b8135610ddd816132c6565b60008060006060848603121561385157600080fd5b83359250613861602085016133fb565b9150604084013590509250925092565b6000806040838503121561388457600080fd5b823591506020830135613896816132c6565b809150509250929050565b60ff60f81b8816815260e0602082015260006138c060e08301896131ef565b82810360408401526138d281896131ef565b606084018890526001600160a01b038716608085015260a0840186905283810360c085015290506139038185613278565b9a9950505050505050505050565b600081518084526020808501945080840160005b838110156132a85781516001600160a01b031687529582019590820190600101613925565b602081526000610ddd6020830184613911565b60008060006040848603121561397257600080fd5b83356001600160401b038082111561398957600080fd5b6139958783880161362f565b945060208601359150808211156139ab57600080fd5b50613369868287016132de565b634e487b7160e01b600052602160045260246000fd5b60208101600583106139f057634e487b7160e01b600052602160045260246000fd5b91905290565b60208152600060018060a01b03808451166020840152602084015115156040840152604084015160a06060850152613a3160c08501826131ef565b90508160608601515116608085015260808501519150601f198482030160a0850152815160408252613a666040830182613911565b6020938401519290930191909152509392505050565b600080600060608486031215613a9157600080fd5b613a9a84613376565b95602085013595506040909401359392505050565b60006020808385031215613ac257600080fd5b82356001600160401b03811115613ad857600080fd5b8301601f81018513613ae957600080fd5b8035613af76135cf82613559565b81815260059190911b82018301908381019087831115613b1657600080fd5b928401925b82841015613b3457833582529284019290840190613b1b565b979650505050505050565b600181811c90821680613b5357607f821691505b602082108103613b7357634e487b7160e01b600052602260045260246000fd5b50919050565b60208082526045908201527f526577617264734d6f64756c653a2072756e20736574536f72746564416e645460408201527f69656450726f706f73616c73282920746f20706f70756c61746520746869732060608201526476616c756560d81b608082015260a00190565b634e487b7160e01b600052601160045260246000fd5b80820180821115610c4057610c40613be4565b6020808252602f908201527f476f7665726e6f723a20796f752063616e6e6f7420766f7465206f6e2061206460408201526e195b195d1959081c1c9bdc1bdcd85b608a1b606082015260800190565b6020808252602f908201527f476f7665726e6f723a2061646472657373206973206e6f74207065726d69737360408201526e1a5bdb9959081d1bc81cdd589b5a5d608a1b606082015260800190565b634e487b7160e01b600052603260045260246000fd5b600060018201613cd357613cd3613be4565b5060010190565b81810381811115610c4057610c40613be4565b8181036000831280158383131683831282161715613d0d57613d0d613be4565b5092915050565b84815260ff84166020820152826040820152608060608201526000613d3c60808301846131ef565b9695505050505050565b601f821115613d9057600081815260208120601f850160051c81016020861015613d6d5750805b601f850160051c820191505b81811015613d8c57828155600101613d79565b5050505b505050565b81516001600160401b03811115613dae57613dae61347c565b613dc281613dbc8454613b3f565b84613d46565b602080601f831160018114613df75760008415613ddf5750858301515b600019600386901b1c1916600185901b178555613d8c565b600085815260208120601f198616915b82811015613e2657888601518255948401946001909101908401613e07565b5085821015613e445787850151600019600388901b60f8161c191681555b5050505050600190811b0190555056fea26469706673582212207ddac4472a25771ce66fc935691409e341be0248e1720bfe6440474b8eec80ea64736f6c63430008130033",
    "linkReferences": {}
  },
  "methodIdentifiers": {
    "AMOUNT_FOR_SUMBITTER_PROOF()": "347cf665",
    "BALLOT_TYPEHASH()": "deaaa7cc",
    "COUNTING_MODE()": "dd4e2ba5",
    "METADATAS_COUNT()": "4d24a67f",
    "addressSubmitterVerified(address)": "cb853950",
    "addressTotalCastVoteCounts(address)": "a1ac6cb2",
    "addressTotalVotes(address)": "dea5f6a6",
    "addressTotalVotesVerified(address)": "930de979",
    "allProposalTotalVotes()": "50a5e524",
    "allProposalTotalVotesWithoutDeleted()": "d45a010b",
    "cancel()": "ea8a1af0",
    "castVote(uint256,uint8,uint256,uint256,bytes32[])": "419c533c",
    "castVoteWithoutProof(uint256,uint8,uint256)": "65f16263",
    "checkProof(address,uint256,bytes32[],bool)": "32763c22",
    "contestAddressTotalVotesCast(address)": "aec116b6",
    "contestDeadline()": "262e59e9",
    "contestStart()": "004114a8",
    "creator()": "02d05d3f",
    "deleteProposals(uint256[])": "f0a7db0a",
    "downvotingAllowed()": "60506ff6",
    "eip712Domain()": "84b0196e",
    "getAllDeletedProposalIds()": "1242b737",
    "getAllProposalIds()": "efa90d36",
    "getNumSubmissions(address)": "5f953a03",
    "getProposal(uint256)": "c7f758a8",
    "hashProposal((address,bool,string,(address),(address[],uint256)))": "458da87d",
    "highestTiedRanking()": "ebc18b9b",
    "isProposalDeleted(uint256)": "3b6d199b",
    "isTied(uint256)": "2399c660",
    "lowestRanking()": "6ca1a2c7",
    "maxProposalCount()": "fb9bf8d4",
    "name()": "06fdde03",
    "numAllowedProposalSubmissions()": "832009af",
    "officialRewardsModule()": "785ddfe5",
    "prompt()": "7c65d711",
    "proposalAddressVotes(uint256,address)": "6e4eb810",
    "proposalAddressesHaveVoted(uint256)": "b323580d",
    "proposalVotes(uint256)": "544ffc9c",
    "proposalVotesStructs(uint256)": "070dc5d9",
    "propose((address,bool,string,(address),(address[],uint256)),bytes32[])": "c0ffaa78",
    "proposeWithoutProof((address,bool,string,(address),(address[],uint256)))": "476f4d8a",
    "rankingPosition(uint256)": "86187488",
    "setOfficialRewardsModule(address)": "f4f3d7ec",
    "setSortedAndTiedProposals()": "96f0e962",
    "setSortedAndTiedProposalsHasBeenRun()": "d8891619",
    "sortedProposalIds()": "8a9cd550",
    "sortedProposals(bool,uint256,uint256)": "da3d3085",
    "state()": "c19d93fb",
    "submissionMerkleRoot()": "bddc1641",
    "supportsInterface(bytes4)": "01ffc9a7",
    "tiedAdjustedRankingPosition(uint256)": "e5eb5a48",
    "totalVotesCast()": "7de418d5",
    "validateProposalData((address,bool,string,(address),(address[],uint256)))": "fb8ddab4",
    "verifyProposer(address,bytes32[])": "20b3e845",
    "verifyVoter(address,uint256,bytes32[])": "531bd812",
    "version()": "54fd4d50",
    "voteStart()": "e031535b",
    "votingDelay()": "3932abb1",
    "votingMerkleRoot()": "dd96a19d",
    "votingPeriod()": "02a251a3"
  },
  "id": 40
}