{
  "abi": [
    {
      "inputs": [
        {
          "internalType": "string",
          "name": "_name",
          "type": "string"
        },
        {
          "internalType": "string",
          "name": "_prompt",
          "type": "string"
        },
        {
          "internalType": "bytes32",
          "name": "_submissionMerkleRoot",
          "type": "bytes32"
        },
        {
          "internalType": "bytes32",
          "name": "_votingMerkleRoot",
          "type": "bytes32"
        },
        {
          "internalType": "uint256[]",
          "name": "_constructorIntParams",
          "type": "uint256[]"
        }
      ],
      "stateMutability": "nonpayable",
      "type": "constructor"
    },
    {
      "inputs": [],
      "name": "AddressNotPermissionedToSubmit",
      "type": "error"
    },
    {
      "inputs": [
        {
          "internalType": "address",
          "name": "author",
          "type": "address"
        },
        {
          "internalType": "address",
          "name": "sender",
          "type": "address"
        }
      ],
      "name": "AuthorIsNotSender",
      "type": "error"
    },
    {
      "inputs": [],
      "name": "CannotCancelACompletedContest",
      "type": "error"
    },
    {
      "inputs": [],
      "name": "CannotDeleteWhenCompleted",
      "type": "error"
    },
    {
      "inputs": [],
      "name": "CannotVoteOnDeletedProposal",
      "type": "error"
    },
    {
      "inputs": [],
      "name": "ContestAlreadyCancelled",
      "type": "error"
    },
    {
      "inputs": [
        {
          "internalType": "enum Governor.ContestState",
          "name": "currentState",
          "type": "uint8"
        }
      ],
      "name": "ContestMustBeActiveToVote",
      "type": "error"
    },
    {
      "inputs": [
        {
          "internalType": "enum Governor.ContestState",
          "name": "currentState",
          "type": "uint8"
        }
      ],
      "name": "ContestMustBeQueuedToPropose",
      "type": "error"
    },
    {
      "inputs": [
        {
          "internalType": "uint256",
          "name": "maxProposalCount",
          "type": "uint256"
        }
      ],
      "name": "ContestSubmissionLimitReached",
      "type": "error"
    },
    {
      "inputs": [],
      "name": "DownvotingNotEnabled",
      "type": "error"
    },
    {
      "inputs": [
        {
          "internalType": "uint256",
          "name": "proposalId",
          "type": "uint256"
        }
      ],
      "name": "DuplicateSubmission",
      "type": "error"
    },
    {
      "inputs": [],
      "name": "EmptyProposalDescription",
      "type": "error"
    },
    {
      "inputs": [
        {
          "internalType": "uint256",
          "name": "msgValue",
          "type": "uint256"
        },
        {
          "internalType": "uint256",
          "name": "costToPropose",
          "type": "uint256"
        }
      ],
      "name": "IncorrectCostToProposeSent",
      "type": "error"
    },
    {
      "inputs": [],
      "name": "IndexHasNotBeenPopulated",
      "type": "error"
    },
    {
      "inputs": [],
      "name": "InvalidVoteType",
      "type": "error"
    },
    {
      "inputs": [],
      "name": "MoreThanOneProposalWithThisManyVotes",
      "type": "error"
    },
    {
      "inputs": [],
      "name": "NeedAtLeastOneVoteToVote",
      "type": "error"
    },
    {
      "inputs": [],
      "name": "NeedToSubmitWithProofFirst",
      "type": "error"
    },
    {
      "inputs": [],
      "name": "NeedToVoteWithProofFirst",
      "type": "error"
    },
    {
      "inputs": [],
      "name": "NotEnoughVotesLeft",
      "type": "error"
    },
    {
      "inputs": [],
      "name": "NotInMerkle",
      "type": "error"
    },
    {
      "inputs": [],
      "name": "OnlyCreatorCanDelete",
      "type": "error"
    },
    {
      "inputs": [],
      "name": "OnlyCreatorCanSetRewardsModule",
      "type": "error"
    },
    {
      "inputs": [],
      "name": "OnlyJkLabsOrCreatorCanCancel",
      "type": "error"
    },
    {
      "inputs": [],
      "name": "RankCannotBeZero",
      "type": "error"
    },
    {
      "inputs": [],
      "name": "RankIsNotInSortedRanks",
      "type": "error"
    },
    {
      "inputs": [
        {
          "internalType": "uint256",
          "name": "numAllowedProposalSubmissions",
          "type": "uint256"
        }
      ],
      "name": "SenderSubmissionLimitReached",
      "type": "error"
    },
    {
      "inputs": [
        {
          "internalType": "enum Governor.Metadatas",
          "name": "unexpectedMetadata",
          "type": "uint8"
        }
      ],
      "name": "UnexpectedMetadata",
      "type": "error"
    },
    {
      "inputs": [],
      "name": "ZeroSignersInSafeMetadata",
      "type": "error"
    },
    {
      "inputs": [],
      "name": "ZeroThresholdInSafeMetadata",
      "type": "error"
    },
    {
      "anonymous": false,
      "inputs": [],
      "name": "ContestCanceled",
      "type": "event"
    },
    {
      "anonymous": false,
      "inputs": [
        {
          "indexed": false,
          "internalType": "string",
          "name": "name",
          "type": "string"
        },
        {
          "indexed": false,
          "internalType": "address",
          "name": "creator",
          "type": "address"
        }
      ],
      "name": "JokeraceCreated",
      "type": "event"
    },
    {
      "anonymous": false,
      "inputs": [
        {
          "indexed": false,
          "internalType": "contract RewardsModule",
          "name": "oldOfficialRewardsModule",
          "type": "address"
        },
        {
          "indexed": false,
          "internalType": "contract RewardsModule",
          "name": "newOfficialRewardsModule",
          "type": "address"
        }
      ],
      "name": "OfficialRewardsModuleSet",
      "type": "event"
    },
    {
      "anonymous": false,
      "inputs": [
        {
          "indexed": false,
          "internalType": "address",
          "name": "to",
          "type": "address"
        },
        {
          "indexed": false,
          "internalType": "uint256",
          "name": "amount",
          "type": "uint256"
        }
      ],
      "name": "PaymentReleased",
      "type": "event"
    },
    {
      "anonymous": false,
      "inputs": [
        {
          "indexed": false,
          "internalType": "uint256",
          "name": "proposalId",
          "type": "uint256"
        },
        {
          "indexed": false,
          "internalType": "address",
          "name": "proposer",
          "type": "address"
        }
      ],
      "name": "ProposalCreated",
      "type": "event"
    },
    {
      "anonymous": false,
      "inputs": [
        {
          "indexed": false,
          "internalType": "uint256[]",
          "name": "proposalIds",
          "type": "uint256[]"
        }
      ],
      "name": "ProposalsDeleted",
      "type": "event"
    },
    {
      "anonymous": false,
      "inputs": [
        {
          "indexed": true,
          "internalType": "address",
          "name": "voter",
          "type": "address"
        },
        {
          "indexed": false,
          "internalType": "uint256",
          "name": "proposalId",
          "type": "uint256"
        },
        {
          "indexed": false,
          "internalType": "uint8",
          "name": "support",
          "type": "uint8"
        },
        {
          "indexed": false,
          "internalType": "uint256",
          "name": "numVotes",
          "type": "uint256"
        }
      ],
      "name": "VoteCast",
      "type": "event"
    },
    {
      "inputs": [],
      "name": "AMOUNT_FOR_SUMBITTER_PROOF",
      "outputs": [
        {
          "internalType": "uint256",
          "name": "",
          "type": "uint256"
        }
      ],
      "stateMutability": "view",
      "type": "function"
    },
    {
      "inputs": [],
      "name": "JK_LABS_ADDRESS",
      "outputs": [
        {
          "internalType": "address",
          "name": "",
          "type": "address"
        }
      ],
      "stateMutability": "view",
      "type": "function"
    },
    {
      "inputs": [],
      "name": "METADATAS_COUNT",
      "outputs": [
        {
          "internalType": "uint256",
          "name": "",
          "type": "uint256"
        }
      ],
      "stateMutability": "view",
      "type": "function"
    },
    {
      "inputs": [
        {
          "internalType": "address",
          "name": "",
          "type": "address"
        }
      ],
      "name": "addressSubmitterVerified",
      "outputs": [
        {
          "internalType": "bool",
          "name": "",
          "type": "bool"
        }
      ],
      "stateMutability": "view",
      "type": "function"
    },
    {
      "inputs": [
        {
          "internalType": "address",
          "name": "",
          "type": "address"
        }
      ],
      "name": "addressTotalCastVoteCounts",
      "outputs": [
        {
          "internalType": "uint256",
          "name": "",
          "type": "uint256"
        }
      ],
      "stateMutability": "view",
      "type": "function"
    },
    {
      "inputs": [
        {
          "internalType": "address",
          "name": "",
          "type": "address"
        }
      ],
      "name": "addressTotalVotes",
      "outputs": [
        {
          "internalType": "uint256",
          "name": "",
          "type": "uint256"
        }
      ],
      "stateMutability": "view",
      "type": "function"
    },
    {
      "inputs": [
        {
          "internalType": "address",
          "name": "",
          "type": "address"
        }
      ],
      "name": "addressTotalVotesVerified",
      "outputs": [
        {
          "internalType": "bool",
          "name": "",
          "type": "bool"
        }
      ],
      "stateMutability": "view",
      "type": "function"
    },
    {
      "inputs": [
        {
          "internalType": "uint256",
          "name": "",
          "type": "uint256"
        }
      ],
      "name": "addressesThatHaveVoted",
      "outputs": [
        {
          "internalType": "address",
          "name": "",
          "type": "address"
        }
      ],
      "stateMutability": "view",
      "type": "function"
    },
    {
      "inputs": [],
      "name": "allProposalTotalVotes",
      "outputs": [
        {
          "internalType": "uint256[]",
          "name": "proposalIdsReturn",
          "type": "uint256[]"
        },
        {
          "components": [
            {
              "internalType": "uint256",
              "name": "forVotes",
              "type": "uint256"
            },
            {
              "internalType": "uint256",
              "name": "againstVotes",
              "type": "uint256"
            }
          ],
          "internalType": "struct GovernorCountingSimple.VoteCounts[]",
          "name": "proposalVoteCountsArrayReturn",
          "type": "tuple[]"
        }
      ],
      "stateMutability": "view",
      "type": "function"
    },
    {
      "inputs": [],
      "name": "allProposalTotalVotesWithoutDeleted",
      "outputs": [
        {
          "internalType": "uint256[]",
          "name": "proposalIdsReturn",
          "type": "uint256[]"
        },
        {
          "components": [
            {
              "internalType": "uint256",
              "name": "forVotes",
              "type": "uint256"
            },
            {
              "internalType": "uint256",
              "name": "againstVotes",
              "type": "uint256"
            }
          ],
          "internalType": "struct GovernorCountingSimple.VoteCounts[]",
          "name": "proposalVoteCountsArrayReturn",
          "type": "tuple[]"
        }
      ],
      "stateMutability": "view",
      "type": "function"
    },
    {
      "inputs": [],
      "name": "cancel",
      "outputs": [],
      "stateMutability": "nonpayable",
      "type": "function"
    },
    {
      "inputs": [],
      "name": "canceled",
      "outputs": [
        {
          "internalType": "bool",
          "name": "",
          "type": "bool"
        }
      ],
      "stateMutability": "view",
      "type": "function"
    },
    {
      "inputs": [
        {
          "internalType": "uint256",
          "name": "proposalId",
          "type": "uint256"
        },
        {
          "internalType": "uint8",
          "name": "support",
          "type": "uint8"
        },
        {
          "internalType": "uint256",
          "name": "totalVotes",
          "type": "uint256"
        },
        {
          "internalType": "uint256",
          "name": "numVotes",
          "type": "uint256"
        },
        {
          "internalType": "bytes32[]",
          "name": "proof",
          "type": "bytes32[]"
        }
      ],
      "name": "castVote",
      "outputs": [
        {
          "internalType": "uint256",
          "name": "",
          "type": "uint256"
        }
      ],
      "stateMutability": "nonpayable",
      "type": "function"
    },
    {
      "inputs": [
        {
          "internalType": "uint256",
          "name": "proposalId",
          "type": "uint256"
        },
        {
          "internalType": "uint8",
          "name": "support",
          "type": "uint8"
        },
        {
          "internalType": "uint256",
          "name": "numVotes",
          "type": "uint256"
        }
      ],
      "name": "castVoteWithoutProof",
      "outputs": [
        {
          "internalType": "uint256",
          "name": "",
          "type": "uint256"
        }
      ],
      "stateMutability": "nonpayable",
      "type": "function"
    },
    {
      "inputs": [
        {
          "internalType": "address",
          "name": "addressToCheck",
          "type": "address"
        },
        {
          "internalType": "uint256",
          "name": "amount",
          "type": "uint256"
        },
        {
          "internalType": "bytes32[]",
          "name": "proof",
          "type": "bytes32[]"
        },
        {
          "internalType": "bool",
          "name": "voting",
          "type": "bool"
        }
      ],
      "name": "checkProof",
      "outputs": [
        {
          "internalType": "bool",
          "name": "verified",
          "type": "bool"
        }
      ],
      "stateMutability": "view",
      "type": "function"
    },
    {
      "inputs": [
        {
          "internalType": "address",
          "name": "userAddress",
          "type": "address"
        }
      ],
      "name": "contestAddressTotalVotesCast",
      "outputs": [
        {
          "internalType": "uint256",
          "name": "userTotalVotesCast",
          "type": "uint256"
        }
      ],
      "stateMutability": "view",
      "type": "function"
    },
    {
      "inputs": [],
      "name": "contestDeadline",
      "outputs": [
        {
          "internalType": "uint256",
          "name": "",
          "type": "uint256"
        }
      ],
      "stateMutability": "view",
      "type": "function"
    },
    {
      "inputs": [],
      "name": "contestStart",
      "outputs": [
        {
          "internalType": "uint256",
          "name": "",
          "type": "uint256"
        }
      ],
      "stateMutability": "view",
      "type": "function"
    },
    {
      "inputs": [],
      "name": "costToPropose",
      "outputs": [
        {
          "internalType": "uint256",
          "name": "",
          "type": "uint256"
        }
      ],
      "stateMutability": "view",
      "type": "function"
    },
    {
      "inputs": [],
      "name": "creator",
      "outputs": [
        {
          "internalType": "address",
          "name": "",
          "type": "address"
        }
      ],
      "stateMutability": "view",
      "type": "function"
    },
    {
      "inputs": [
        {
          "internalType": "uint256[]",
          "name": "proposalIdsToDelete",
          "type": "uint256[]"
        }
      ],
      "name": "deleteProposals",
      "outputs": [],
      "stateMutability": "nonpayable",
      "type": "function"
    },
    {
      "inputs": [
        {
          "internalType": "uint256",
          "name": "",
          "type": "uint256"
        }
      ],
      "name": "deletedProposalIds",
      "outputs": [
        {
          "internalType": "uint256",
          "name": "",
          "type": "uint256"
        }
      ],
      "stateMutability": "view",
      "type": "function"
    },
    {
      "inputs": [],
      "name": "downvotingAllowed",
      "outputs": [
        {
          "internalType": "uint256",
          "name": "",
          "type": "uint256"
        }
      ],
      "stateMutability": "view",
      "type": "function"
    },
    {
      "inputs": [
        {
          "internalType": "uint256",
          "name": "",
          "type": "uint256"
        },
        {
          "internalType": "uint256",
          "name": "",
          "type": "uint256"
        }
      ],
      "name": "forVotesToProposalIds",
      "outputs": [
        {
          "internalType": "uint256",
          "name": "",
          "type": "uint256"
        }
      ],
      "stateMutability": "view",
      "type": "function"
    },
    {
      "inputs": [],
      "name": "getAllAddressesThatHaveVoted",
      "outputs": [
        {
          "internalType": "address[]",
          "name": "",
          "type": "address[]"
        }
      ],
      "stateMutability": "view",
      "type": "function"
    },
    {
      "inputs": [],
      "name": "getAllDeletedProposalIds",
      "outputs": [
        {
          "internalType": "uint256[]",
          "name": "",
          "type": "uint256[]"
        }
      ],
      "stateMutability": "view",
      "type": "function"
    },
    {
      "inputs": [],
      "name": "getAllProposalAuthors",
      "outputs": [
        {
          "internalType": "address[]",
          "name": "",
          "type": "address[]"
        }
      ],
      "stateMutability": "view",
      "type": "function"
    },
    {
      "inputs": [],
      "name": "getAllProposalIds",
      "outputs": [
        {
          "internalType": "uint256[]",
          "name": "",
          "type": "uint256[]"
        }
      ],
      "stateMutability": "view",
      "type": "function"
    },
    {
      "inputs": [
        {
          "internalType": "uint256",
          "name": "forVotes",
          "type": "uint256"
        }
      ],
      "name": "getNumProposalsWithThisManyForVotes",
      "outputs": [
        {
          "internalType": "uint256",
          "name": "count",
          "type": "uint256"
        }
      ],
      "stateMutability": "view",
      "type": "function"
    },
    {
      "inputs": [
        {
          "internalType": "uint256",
          "name": "forVotes",
          "type": "uint256"
        }
      ],
      "name": "getOnlyProposalIdWithThisManyForVotes",
      "outputs": [
        {
          "internalType": "uint256",
          "name": "proposalId",
          "type": "uint256"
        }
      ],
      "stateMutability": "view",
      "type": "function"
    },
    {
      "inputs": [
        {
          "internalType": "uint256",
          "name": "proposalId",
          "type": "uint256"
        }
      ],
      "name": "getProposal",
      "outputs": [
        {
          "components": [
            {
              "internalType": "address",
              "name": "author",
              "type": "address"
            },
            {
              "internalType": "bool",
              "name": "exists",
              "type": "bool"
            },
            {
              "internalType": "string",
              "name": "description",
              "type": "string"
            },
            {
              "components": [
                {
                  "internalType": "address",
                  "name": "targetAddress",
                  "type": "address"
                }
              ],
              "internalType": "struct Governor.TargetMetadata",
              "name": "targetMetadata",
              "type": "tuple"
            },
            {
              "components": [
                {
                  "internalType": "address[]",
                  "name": "signers",
                  "type": "address[]"
                },
                {
                  "internalType": "uint256",
                  "name": "threshold",
                  "type": "uint256"
                }
              ],
              "internalType": "struct Governor.SafeMetadata",
              "name": "safeMetadata",
              "type": "tuple"
            }
          ],
          "internalType": "struct Governor.ProposalCore",
          "name": "",
          "type": "tuple"
        }
      ],
      "stateMutability": "view",
      "type": "function"
    },
    {
      "inputs": [
        {
          "internalType": "uint256",
          "name": "forVotes",
          "type": "uint256"
        }
      ],
      "name": "getProposalsWithThisManyForVotes",
      "outputs": [
        {
          "internalType": "uint256[]",
          "name": "proposalsWithThisManyForVotes",
          "type": "uint256[]"
        }
      ],
      "stateMutability": "view",
      "type": "function"
    },
    {
      "inputs": [
        {
          "internalType": "uint256",
          "name": "rank",
          "type": "uint256"
        }
      ],
      "name": "getRankIndex",
      "outputs": [
        {
          "internalType": "uint256",
          "name": "rankIndex",
          "type": "uint256"
        }
      ],
      "stateMutability": "view",
      "type": "function"
    },
    {
      "inputs": [],
      "name": "getSortedRanks",
      "outputs": [
        {
          "internalType": "uint256[]",
          "name": "sortedRanksArray",
          "type": "uint256[]"
        }
      ],
      "stateMutability": "view",
      "type": "function"
    },
    {
      "inputs": [
        {
          "components": [
            {
              "internalType": "address",
              "name": "author",
              "type": "address"
            },
            {
              "internalType": "bool",
              "name": "exists",
              "type": "bool"
            },
            {
              "internalType": "string",
              "name": "description",
              "type": "string"
            },
            {
              "components": [
                {
                  "internalType": "address",
                  "name": "targetAddress",
                  "type": "address"
                }
              ],
              "internalType": "struct Governor.TargetMetadata",
              "name": "targetMetadata",
              "type": "tuple"
            },
            {
              "components": [
                {
                  "internalType": "address[]",
                  "name": "signers",
                  "type": "address[]"
                },
                {
                  "internalType": "uint256",
                  "name": "threshold",
                  "type": "uint256"
                }
              ],
              "internalType": "struct Governor.SafeMetadata",
              "name": "safeMetadata",
              "type": "tuple"
            }
          ],
          "internalType": "struct Governor.ProposalCore",
          "name": "proposal",
          "type": "tuple"
        }
      ],
      "name": "hashProposal",
      "outputs": [
        {
          "internalType": "uint256",
          "name": "",
          "type": "uint256"
        }
      ],
      "stateMutability": "pure",
      "type": "function"
    },
    {
      "inputs": [
        {
          "internalType": "uint256",
          "name": "idx",
          "type": "uint256"
        }
      ],
      "name": "isOrIsBelowTiedRank",
      "outputs": [
        {
          "internalType": "bool",
          "name": "atOrBelowTiedRank",
          "type": "bool"
        }
      ],
      "stateMutability": "view",
      "type": "function"
    },
    {
      "inputs": [],
      "name": "maxProposalCount",
      "outputs": [
        {
          "internalType": "uint256",
          "name": "",
          "type": "uint256"
        }
      ],
      "stateMutability": "view",
      "type": "function"
    },
    {
      "inputs": [],
      "name": "name",
      "outputs": [
        {
          "internalType": "string",
          "name": "",
          "type": "string"
        }
      ],
      "stateMutability": "view",
      "type": "function"
    },
    {
      "inputs": [],
      "name": "numAllowedProposalSubmissions",
      "outputs": [
        {
          "internalType": "uint256",
          "name": "",
          "type": "uint256"
        }
      ],
      "stateMutability": "view",
      "type": "function"
    },
    {
      "inputs": [
        {
          "internalType": "address",
          "name": "",
          "type": "address"
        }
      ],
      "name": "numSubmissions",
      "outputs": [
        {
          "internalType": "uint256",
          "name": "",
          "type": "uint256"
        }
      ],
      "stateMutability": "view",
      "type": "function"
    },
    {
      "inputs": [],
      "name": "officialRewardsModule",
      "outputs": [
        {
          "internalType": "contract RewardsModule",
          "name": "",
          "type": "address"
        }
      ],
      "stateMutability": "view",
      "type": "function"
    },
    {
      "inputs": [],
      "name": "percentageToCreator",
      "outputs": [
        {
          "internalType": "uint256",
          "name": "",
          "type": "uint256"
        }
      ],
      "stateMutability": "view",
      "type": "function"
    },
    {
      "inputs": [],
      "name": "prompt",
      "outputs": [
        {
          "internalType": "string",
          "name": "",
          "type": "string"
        }
      ],
      "stateMutability": "view",
      "type": "function"
    },
    {
      "inputs": [
        {
          "internalType": "uint256",
          "name": "proposalId",
          "type": "uint256"
        },
        {
          "internalType": "address",
          "name": "userAddress",
          "type": "address"
        }
      ],
      "name": "proposalAddressVotes",
      "outputs": [
        {
          "internalType": "uint256",
          "name": "forVotes",
          "type": "uint256"
        },
        {
          "internalType": "uint256",
          "name": "againstVotes",
          "type": "uint256"
        }
      ],
      "stateMutability": "view",
      "type": "function"
    },
    {
      "inputs": [
        {
          "internalType": "uint256",
          "name": "proposalId",
          "type": "uint256"
        }
      ],
      "name": "proposalAddressesHaveVoted",
      "outputs": [
        {
          "internalType": "address[]",
          "name": "",
          "type": "address[]"
        }
      ],
      "stateMutability": "view",
      "type": "function"
    },
    {
      "inputs": [
        {
          "internalType": "uint256",
          "name": "",
          "type": "uint256"
        }
      ],
      "name": "proposalAuthors",
      "outputs": [
        {
          "internalType": "address",
          "name": "",
          "type": "address"
        }
      ],
      "stateMutability": "view",
      "type": "function"
    },
    {
      "inputs": [
        {
          "internalType": "uint256",
          "name": "",
          "type": "uint256"
        }
      ],
      "name": "proposalIds",
      "outputs": [
        {
          "internalType": "uint256",
          "name": "",
          "type": "uint256"
        }
      ],
      "stateMutability": "view",
      "type": "function"
    },
    {
      "inputs": [
        {
          "internalType": "uint256",
          "name": "",
          "type": "uint256"
        }
      ],
      "name": "proposalIsDeleted",
      "outputs": [
        {
          "internalType": "bool",
          "name": "",
          "type": "bool"
        }
      ],
      "stateMutability": "view",
      "type": "function"
    },
    {
      "inputs": [
        {
          "internalType": "uint256",
          "name": "proposalId",
          "type": "uint256"
        }
      ],
      "name": "proposalVotes",
      "outputs": [
        {
          "internalType": "uint256",
          "name": "forVotes",
          "type": "uint256"
        },
        {
          "internalType": "uint256",
          "name": "againstVotes",
          "type": "uint256"
        }
      ],
      "stateMutability": "view",
      "type": "function"
    },
    {
      "inputs": [
        {
          "internalType": "uint256",
          "name": "",
          "type": "uint256"
        }
      ],
      "name": "proposalVotesStructs",
      "outputs": [
        {
          "components": [
            {
              "internalType": "uint256",
              "name": "forVotes",
              "type": "uint256"
            },
            {
              "internalType": "uint256",
              "name": "againstVotes",
              "type": "uint256"
            }
          ],
          "internalType": "struct GovernorCountingSimple.VoteCounts",
          "name": "proposalVoteCounts",
          "type": "tuple"
        }
      ],
      "stateMutability": "view",
      "type": "function"
    },
    {
      "inputs": [
        {
          "internalType": "uint256",
          "name": "",
          "type": "uint256"
        }
      ],
      "name": "proposals",
      "outputs": [
        {
          "internalType": "address",
          "name": "author",
          "type": "address"
        },
        {
          "internalType": "bool",
          "name": "exists",
          "type": "bool"
        },
        {
          "internalType": "string",
          "name": "description",
          "type": "string"
        },
        {
          "components": [
            {
              "internalType": "address",
              "name": "targetAddress",
              "type": "address"
            }
          ],
          "internalType": "struct Governor.TargetMetadata",
          "name": "targetMetadata",
          "type": "tuple"
        },
        {
          "components": [
            {
              "internalType": "address[]",
              "name": "signers",
              "type": "address[]"
            },
            {
              "internalType": "uint256",
              "name": "threshold",
              "type": "uint256"
            }
          ],
          "internalType": "struct Governor.SafeMetadata",
          "name": "safeMetadata",
          "type": "tuple"
        }
      ],
      "stateMutability": "view",
      "type": "function"
    },
    {
      "inputs": [
        {
          "components": [
            {
              "internalType": "address",
              "name": "author",
              "type": "address"
            },
            {
              "internalType": "bool",
              "name": "exists",
              "type": "bool"
            },
            {
              "internalType": "string",
              "name": "description",
              "type": "string"
            },
            {
              "components": [
                {
                  "internalType": "address",
                  "name": "targetAddress",
                  "type": "address"
                }
              ],
              "internalType": "struct Governor.TargetMetadata",
              "name": "targetMetadata",
              "type": "tuple"
            },
            {
              "components": [
                {
                  "internalType": "address[]",
                  "name": "signers",
                  "type": "address[]"
                },
                {
                  "internalType": "uint256",
                  "name": "threshold",
                  "type": "uint256"
                }
              ],
              "internalType": "struct Governor.SafeMetadata",
              "name": "safeMetadata",
              "type": "tuple"
            }
          ],
          "internalType": "struct Governor.ProposalCore",
          "name": "proposal",
          "type": "tuple"
        },
        {
          "internalType": "bytes32[]",
          "name": "proof",
          "type": "bytes32[]"
        }
      ],
      "name": "propose",
      "outputs": [
        {
          "internalType": "uint256",
          "name": "",
          "type": "uint256"
        }
      ],
      "stateMutability": "payable",
      "type": "function"
    },
    {
      "inputs": [
        {
          "components": [
            {
              "internalType": "address",
              "name": "author",
              "type": "address"
            },
            {
              "internalType": "bool",
              "name": "exists",
              "type": "bool"
            },
            {
              "internalType": "string",
              "name": "description",
              "type": "string"
            },
            {
              "components": [
                {
                  "internalType": "address",
                  "name": "targetAddress",
                  "type": "address"
                }
              ],
              "internalType": "struct Governor.TargetMetadata",
              "name": "targetMetadata",
              "type": "tuple"
            },
            {
              "components": [
                {
                  "internalType": "address[]",
                  "name": "signers",
                  "type": "address[]"
                },
                {
                  "internalType": "uint256",
                  "name": "threshold",
                  "type": "uint256"
                }
              ],
              "internalType": "struct Governor.SafeMetadata",
              "name": "safeMetadata",
              "type": "tuple"
            }
          ],
          "internalType": "struct Governor.ProposalCore",
          "name": "proposal",
          "type": "tuple"
        }
      ],
      "name": "proposeWithoutProof",
      "outputs": [
        {
          "internalType": "uint256",
          "name": "",
          "type": "uint256"
        }
      ],
      "stateMutability": "payable",
      "type": "function"
    },
    {
      "inputs": [],
      "name": "rankLimit",
      "outputs": [
        {
          "internalType": "uint256",
          "name": "",
          "type": "uint256"
        }
      ],
      "stateMutability": "view",
      "type": "function"
    },
    {
      "inputs": [
        {
          "internalType": "contract RewardsModule",
          "name": "officialRewardsModule_",
          "type": "address"
        }
      ],
      "name": "setOfficialRewardsModule",
      "outputs": [],
      "stateMutability": "nonpayable",
      "type": "function"
    },
    {
      "inputs": [
        {
          "internalType": "uint256",
          "name": "",
          "type": "uint256"
        }
      ],
      "name": "sortedRanks",
      "outputs": [
        {
          "internalType": "uint256",
          "name": "",
          "type": "uint256"
        }
      ],
      "stateMutability": "view",
      "type": "function"
    },
    {
      "inputs": [],
      "name": "sortingEnabled",
      "outputs": [
        {
          "internalType": "uint256",
          "name": "",
          "type": "uint256"
        }
      ],
      "stateMutability": "view",
      "type": "function"
    },
    {
      "inputs": [],
      "name": "state",
      "outputs": [
        {
          "internalType": "enum Governor.ContestState",
          "name": "",
          "type": "uint8"
        }
      ],
      "stateMutability": "view",
      "type": "function"
    },
    {
      "inputs": [],
      "name": "submissionMerkleRoot",
      "outputs": [
        {
          "internalType": "bytes32",
          "name": "",
          "type": "bytes32"
        }
      ],
      "stateMutability": "view",
      "type": "function"
    },
    {
      "inputs": [],
      "name": "totalVotesCast",
      "outputs": [
        {
          "internalType": "uint256",
          "name": "",
          "type": "uint256"
        }
      ],
      "stateMutability": "view",
      "type": "function"
    },
    {
      "inputs": [
        {
          "components": [
            {
              "internalType": "address",
              "name": "author",
              "type": "address"
            },
            {
              "internalType": "bool",
              "name": "exists",
              "type": "bool"
            },
            {
              "internalType": "string",
              "name": "description",
              "type": "string"
            },
            {
              "components": [
                {
                  "internalType": "address",
                  "name": "targetAddress",
                  "type": "address"
                }
              ],
              "internalType": "struct Governor.TargetMetadata",
              "name": "targetMetadata",
              "type": "tuple"
            },
            {
              "components": [
                {
                  "internalType": "address[]",
                  "name": "signers",
                  "type": "address[]"
                },
                {
                  "internalType": "uint256",
                  "name": "threshold",
                  "type": "uint256"
                }
              ],
              "internalType": "struct Governor.SafeMetadata",
              "name": "safeMetadata",
              "type": "tuple"
            }
          ],
          "internalType": "struct Governor.ProposalCore",
          "name": "proposal",
          "type": "tuple"
        }
      ],
      "name": "validateProposalData",
      "outputs": [],
      "stateMutability": "view",
      "type": "function"
    },
    {
      "inputs": [
        {
          "internalType": "address",
          "name": "account",
          "type": "address"
        },
        {
          "internalType": "bytes32[]",
          "name": "proof",
          "type": "bytes32[]"
        }
      ],
      "name": "verifyProposer",
      "outputs": [],
      "stateMutability": "nonpayable",
      "type": "function"
    },
    {
      "inputs": [
        {
          "internalType": "address",
          "name": "account",
          "type": "address"
        },
        {
          "internalType": "uint256",
          "name": "totalVotes",
          "type": "uint256"
        },
        {
          "internalType": "bytes32[]",
          "name": "proof",
          "type": "bytes32[]"
        }
      ],
      "name": "verifyVoter",
      "outputs": [],
      "stateMutability": "nonpayable",
      "type": "function"
    },
    {
      "inputs": [],
      "name": "version",
      "outputs": [
        {
          "internalType": "string",
          "name": "",
          "type": "string"
        }
      ],
      "stateMutability": "pure",
      "type": "function"
    },
    {
      "inputs": [],
      "name": "voteStart",
      "outputs": [
        {
          "internalType": "uint256",
          "name": "",
          "type": "uint256"
        }
      ],
      "stateMutability": "view",
      "type": "function"
    },
    {
      "inputs": [],
      "name": "votingDelay",
      "outputs": [
        {
          "internalType": "uint256",
          "name": "",
          "type": "uint256"
        }
      ],
      "stateMutability": "view",
      "type": "function"
    },
    {
      "inputs": [],
      "name": "votingMerkleRoot",
      "outputs": [
        {
          "internalType": "bytes32",
          "name": "",
          "type": "bytes32"
        }
      ],
      "stateMutability": "view",
      "type": "function"
    },
    {
      "inputs": [],
      "name": "votingPeriod",
      "outputs": [
        {
          "internalType": "uint256",
          "name": "",
          "type": "uint256"
        }
      ],
      "stateMutability": "view",
      "type": "function"
    }
  ],
  "bytecode": {
    "object": "0x60806040523480156200001157600080fd5b50604051620041113803806200411183398101604081905262000034916200030b565b84848484846000815181106200004e576200004e6200041c565b6020026020010151856001815181106200006c576200006c6200041c565b6020026020010151866002815181106200008a576200008a6200041c565b602002602001015187600381518110620000a857620000a86200041c565b602002602001015188600481518110620000c657620000c66200041c565b602002602001015189600581518110620000e457620000e46200041c565b60200260200101518a6006815181106200010257620001026200041c565b60200260200101518b6007815181106200012057620001206200041c565b602002602001015189898e6008815181106200014057620001406200041c565b60200260200101518f6009815181106200015e576200015e6200041c565b60209081029190910101516000919091556001556003919091556004556005620001898d82620004c1565b506006620001988c82620004c1565b50600780546001600160a01b0319163390811790915560088990556009889055600a879055600b869055600c859055600d849055600e839055600f8290556040517f1eae03a78f765227bc1e8574db32390cefa5b3c0a954017973e497e40a1237349162000209918f91906200058d565b60405180910390a15050505050505050505050505050505050620005d3565b634e487b7160e01b600052604160045260246000fd5b604051601f8201601f191681016001600160401b038111828210171562000269576200026962000228565b604052919050565b60005b838110156200028e57818101518382015260200162000274565b50506000910152565b600082601f830112620002a957600080fd5b81516001600160401b03811115620002c557620002c562000228565b620002da601f8201601f19166020016200023e565b818152846020838601011115620002f057600080fd5b6200030382602083016020870162000271565b949350505050565b600080600080600060a086880312156200032457600080fd5b85516001600160401b03808211156200033c57600080fd5b6200034a89838a0162000297565b96506020915081880151818111156200036257600080fd5b620003708a828b0162000297565b96505060408801519450606088015193506080880151818111156200039457600080fd5b8801601f81018a13620003a657600080fd5b805182811115620003bb57620003bb62000228565b8060051b9250620003ce8484016200023e565b818152928201840192848101908c851115620003e957600080fd5b928501925b848410156200040957835182529285019290850190620003ee565b8096505050505050509295509295909350565b634e487b7160e01b600052603260045260246000fd5b600181811c908216806200044757607f821691505b6020821081036200046857634e487b7160e01b600052602260045260246000fd5b50919050565b601f821115620004bc57600081815260208120601f850160051c81016020861015620004975750805b601f850160051c820191505b81811015620004b857828155600101620004a3565b5050505b505050565b81516001600160401b03811115620004dd57620004dd62000228565b620004f581620004ee845462000432565b846200046e565b602080601f8311600181146200052d5760008415620005145750858301515b600019600386901b1c1916600185901b178555620004b8565b600085815260208120601f198616915b828110156200055e578886015182559484019460019091019084016200053d565b50858210156200057d5787850151600019600388901b60f8161c191681555b5050505050600190811b01905550565b6040815260008351806040840152620005ae81606085016020880162000271565b6001600160a01b0393909316602083015250601f91909101601f191601606001919050565b613b2e80620005e36000396000f3fe6080604052600436106103ee5760003560e01c8063711effc811610208578063c19d93fb11610118578063ea8a1af0116100ab578063f0a7db0a1161007a578063f0a7db0a14610c14578063f4f3d7ec14610c34578063f79c017214610c54578063fb8ddab414610c84578063fb9bf8d414610ca457600080fd5b8063ea8a1af014610bac578063edcd1be414610bc1578063eef18e1714610bd7578063efa90d3614610bff57600080fd5b8063d45a010b116100e7578063d45a010b14610b3f578063dd96a19d14610b54578063dea5f6a614610b6a578063e031535b14610b9757600080fd5b8063c19d93fb14610aa0578063c7f758a814610ac2578063c9a1b6b214610aef578063cb85395014610b0f57600080fd5b8063946369b51161019b578063aec116b61161016a578063aec116b614610a01578063b323580d14610a37578063b66d1da314610a57578063bddc164114610a77578063c0ffaa7814610a8d57600080fd5b8063946369b5146109725780639b644a23146109875780639ba197af146109a7578063a1ac6cb2146109d457600080fd5b80637de418d5116101d75780637de418d5146108f6578063832009af1461090c5780639174778c14610922578063930de9791461094257600080fd5b8063711effc81461087457806375e509c514610894578063785ddfe5146108c15780637c65d711146108e157600080fd5b80633932abb111610303578063531bd8121161029657806360506ff61161026557806360506ff6146107f357806365f16263146108095780636e4eb810146108295780636ed815ad146108495780636fd3636b1461085f57600080fd5b8063531bd8121461073c578063544ffc9c1461075c57806354fd4d50146107a65780635c7107d8146107d357600080fd5b8063476f4d8a116102d2578063476f4d8a146106d15780634d24a67f146106e457806350a5e524146106f957806350c4b6161461071c57600080fd5b80633932abb1146106615780633f9942ff14610677578063419c533c14610691578063458da87d146106b157600080fd5b80630aa25e44116103865780632c39805f116103555780632c39805f146105bd578063325cc6d9146105df57806332763c22146105ff578063347cf6651461062f578063366ecf5b1461064b57600080fd5b80630aa25e44146105445780631242b7371461056457806320b3e84514610586578063262e59e9146105a857600080fd5b80630414126a116103c25780630414126a1461049b57806305846cae146104b157806306fdde03146104d1578063070dc5d9146104f357600080fd5b80624114a8146103f3578063013cf08b1461041c57806302a251a31461044d57806302d05d3f14610463575b600080fd5b3480156103ff57600080fd5b5061040960085481565b6040519081526020015b60405180910390f35b34801561042857600080fd5b5061043c610437366004612f69565b610cba565b604051610413959493929190613021565b34801561045957600080fd5b50610409600a5481565b34801561046f57600080fd5b50600754610483906001600160a01b031681565b6040516001600160a01b039091168152602001610413565b3480156104a757600080fd5b5061040960015481565b3480156104bd57600080fd5b506104096104cc366004612f69565b610e02565b3480156104dd57600080fd5b506104e6610e23565b6040516104139190613073565b3480156104ff57600080fd5b5061053761050e366004612f69565b601d60209081526000918252604091829020825180840190935280548352600101549082015281565b6040516104139190613086565b34801561055057600080fd5b5061048361055f366004612f69565b610eb1565b34801561057057600080fd5b50610579610edb565b60405161041391906130d8565b34801561059257600080fd5b506105a66105a1366004613144565b610f33565b005b3480156105b457600080fd5b50610409610fa2565b3480156105c957600080fd5b506105d2610fbe565b6040516104139190613198565b3480156105eb57600080fd5b506104096105fa366004612f69565b61101f565b34801561060b57600080fd5b5061061f61061a3660046131fa565b61102f565b6040519015158152602001610413565b34801561063b57600080fd5b50610409678ac7230489e8000081565b34801561065757600080fd5b5061040960005481565b34801561066d57600080fd5b5061040960095481565b34801561068357600080fd5b5060135461061f9060ff1681565b34801561069d57600080fd5b506104096106ac36600461327b565b61112e565b3480156106bd57600080fd5b506104096106cc366004613587565b611184565b6104096106df3660046135d3565b6111b5565b3480156106f057600080fd5b50610409611252565b34801561070557600080fd5b5061070e611260565b604051610413929190613607565b34801561072857600080fd5b50610483610737366004612f69565b611366565b34801561074857600080fd5b506105a6610757366004613670565b611376565b34801561076857600080fd5b50610791610777366004612f69565b6000908152601d6020526040902080546001909101549091565b60408051928352602083019190915201610413565b3480156107b257600080fd5b50604080518082019091526004815263342e313160e01b60208201526104e6565b3480156107df57600080fd5b506104096107ee366004612f69565b6113dc565b3480156107ff57600080fd5b50610409600d5481565b34801561081557600080fd5b506104096108243660046136cb565b6114e3565b34801561083557600080fd5b50610791610844366004613700565b611563565b34801561085557600080fd5b50610409600e5481565b34801561086b57600080fd5b50610579611598565b34801561088057600080fd5b5061040961088f366004613730565b6115ee565b3480156108a057600080fd5b506104096108af366004613752565b60156020526000908152604090205481565b3480156108cd57600080fd5b50601f54610483906001600160a01b031681565b3480156108ed57600080fd5b506104e661161f565b34801561090257600080fd5b50610409601b5481565b34801561091857600080fd5b50610409600b5481565b34801561092e57600080fd5b5061061f61093d366004612f69565b61162c565b34801561094e57600080fd5b5061061f61095d366004613752565b60196020526000908152604090205460ff1681565b34801561097e57600080fd5b506105d26116d2565b34801561099357600080fd5b506104096109a2366004612f69565b611732565b3480156109b357600080fd5b506104096109c2366004612f69565b6000908152601e602052604090205490565b3480156109e057600080fd5b506104096109ef366004613752565b601c6020526000908152604090205481565b348015610a0d57600080fd5b50610409610a1c366004613752565b6001600160a01b03166000908152601c602052604090205490565b348015610a4357600080fd5b506105d2610a52366004612f69565b611742565b348015610a6357600080fd5b50610409610a72366004612f69565b6117b4565b348015610a8357600080fd5b5061040960035481565b610409610a9b36600461376f565b611814565b348015610aac57600080fd5b50610ab561187c565b60405161041391906137e0565b348015610ace57600080fd5b50610ae2610add366004612f69565b6118cd565b60405161041391906137fa565b348015610afb57600080fd5b50610579610b0a366004612f69565b611a47565b348015610b1b57600080fd5b5061061f610b2a366004613752565b601a6020526000908152604090205460ff1681565b348015610b4b57600080fd5b5061070e611aa9565b348015610b6057600080fd5b5061040960045481565b348015610b7657600080fd5b50610409610b85366004613752565b60186020526000908152604090205481565b348015610ba357600080fd5b50610409611c76565b348015610bb857600080fd5b506105a6611c88565b348015610bcd57600080fd5b50610409600f5481565b348015610be357600080fd5b5061048373dc652c746a8f85e18ce632d97c6118e8a52fa73881565b348015610c0b57600080fd5b50610579611d7e565b348015610c2057600080fd5b506105a6610c2f366004613861565b611dd4565b348015610c4057600080fd5b506105a6610c4f366004613752565b611f3b565b348015610c6057600080fd5b5061061f610c6f366004612f69565b60126020526000908152604090205460ff1681565b348015610c9057600080fd5b506105a6610c9f366004613587565b611fc0565b348015610cb057600080fd5b50610409600c5481565b601460205260009081526040902080546001820180546001600160a01b03831693600160a01b90930460ff16929190610cf2906138a2565b80601f0160208091040260200160405190810160405280929190818152602001828054610d1e906138a2565b8015610d6b5780601f10610d4057610100808354040283529160200191610d6b565b820191906000526020600020905b815481529060010190602001808311610d4e57829003601f168201915b5050604080516020808201835260028801546001600160a01b031682528251600389018054606093810283018401865294820185815298999398939750909550935084928491840182828015610dea57602002820191906000526020600020905b81546001600160a01b03168152600190910190602001808311610dcc575b50505050508152602001600182015481525050905085565b60118181548110610e1257600080fd5b600091825260209091200154905081565b60058054610e30906138a2565b80601f0160208091040260200160405190810160405280929190818152602001828054610e5c906138a2565b8015610ea95780601f10610e7e57610100808354040283529160200191610ea9565b820191906000526020600020905b815481529060010190602001808311610e8c57829003601f168201915b505050505081565b60168181548110610ec157600080fd5b6000918252602090912001546001600160a01b0316905081565b60606011805480602002602001604051908101604052809291908181526020018280548015610f2957602002820191906000526020600020905b815481526020019060010190808311610f15575b5050505050905090565b6001600160a01b0383166000908152601a602052604090205460ff16610f9d57600354600003610f6257505050565b610f7883678ac7230489e800008484600061102f565b506001600160a01b0383166000908152601a60205260409020805460ff191660011790555b505050565b6000600a54610faf611c76565b610fb991906138ec565b905090565b60606017805480602002602001604051908101604052809291908181526020018280548015610f2957602002820191906000526020600020905b81546001600160a01b03168152600190910190602001808311610ff8575050505050905090565b60028181548110610e1257600080fd5b6040516bffffffffffffffffffffffff19606087901b1660208201526034810185905260009081906054016040516020818303038152906040528051906020012090506000836110bf576110ba86868080602002602001604051908101604052809392919081815260200183836020028082843760009201919091525050600354915085905061210f565b611100565b61110086868080602002602001604051908101604052809392919081815260200183836020028082843760009201919091525050600454915085905061210f565b9050806111205760405163452c2df160e11b815260040160405180910390fd5b506001979650505050505050565b600086815260126020526040812054339060ff1615611160576040516358f1119560e01b815260040160405180910390fd5b61116c81878686611376565b61117888828988612125565b98975050505050505050565b60008160405160200161119791906137fa565b60408051601f19818403018152919052805160209091012092915050565b6000600e5434146111eb57600e546040516380a7af9f60e01b815234600482015260248101919091526044015b60405180910390fd5b6003541561122357336000908152601a602052604090205460ff1661122357604051631f22097560e01b815260040160405180910390fd5b61122f610c9f836138ff565b600061124261123d846138ff565b61226c565b905061124c6124e7565b92915050565b61125d6001806138ec565b81565b606080600061126d611d7e565b9050600081516001600160401b0381111561128a5761128a6132eb565b6040519080825280602002602001820160405280156112cf57816020015b60408051808201909152600080825260208201528152602001906001900390816112a85790505b50905060005b825181101561135c57601d60008483815181106112f4576112f461390b565b602002602001015181526020019081526020016000206000016040518060400160405290816000820154815260200160018201548152505082828151811061133e5761133e61390b565b6020026020010181905250808061135490613921565b9150506112d5565b5090939092509050565b60178181548110610ec157600080fd5b6001600160a01b03841660009081526019602052604090205460ff166113d6576113a484848484600161102f565b506001600160a01b038416600090815260186020908152604080832086905560199091529020805460ff191660011790555b50505050565b6000816000036113ff57604051630ec90a1760e31b815260040160405180910390fd5b6002805460408051602080840282018101909252828152919260009291849083018282801561144d57602002820191906000526020600020905b815481526020019060010190808311611439575b5050505050905060006001905060005b838110156114c95761149483828151811061147a5761147a61390b565b60200260200101516000908152601e602052604090205490565b156114b7578582036114a95795945050505050565b816114b381613921565b9250505b806114c181613921565b91505061145d565b50604051632cc2ab7360e11b815260040160405180910390fd5b600083815260126020526040812054339060ff1615611515576040516358f1119560e01b815260040160405180910390fd5b6001600160a01b03811660009081526019602052604090205460ff1661154e5760405163126ec6d160e31b815260040160405180910390fd5b61155a85828686612125565b95945050505050565b6000828152601d602090815260408083206001600160a01b0385168452600301909152902080546001909101545b9250929050565b60606002805480602002602001604051908101604052809291908181526020018280548015610f295760200282019190600052602060002090815481526020019060010190808311610f15575050505050905090565b601e602052816000526040600020818154811061160a57600080fd5b90600052602060002001600091509150505481565b60068054610e30906138a2565b60025460009061163e9060019061393a565b82111561165e576040516365d6f35160e11b815260040160405180910390fd5b60005b61166c8360016138ec565b8110156116c95760016116a86002838154811061168b5761168b61390b565b90600052602060002001546000908152601e602052604090205490565b11156116b75750600192915050565b806116c181613921565b915050611661565b50600092915050565b60606016805480602002602001604051908101604052809291908181526020018280548015610f29576020028201919060005260206000209081546001600160a01b03168152600190910190602001808311610ff8575050505050905090565b60108181548110610e1257600080fd5b6000818152601d602090815260409182902060028101805484518185028101850190955280855260609492938301828280156117a757602002820191906000526020600020905b81546001600160a01b03168152600190910190602001808311611789575b5050505050915050919050565b6000818152601e60205260408120546001146117e357604051633832a15560e21b815260040160405180910390fd5b6000828152601e6020526040812080549091906118025761180261390b565b90600052602060002001549050919050565b6000600e54341461184557600e546040516380a7af9f60e01b815234600482015260248101919091526044016111e2565b611850338484610f33565b61185c610c9f856138ff565b600061186a61123d866138ff565b90506118746124e7565b949350505050565b60135460009060ff16156118905750600290565b426008541061189f5750600090565b426118a8611c76565b106118b35750600390565b426118bc610fa2565b106118c75750600190565b50600490565b6118d5612e7e565b600082815260146020908152604091829020825160a08101845281546001600160a01b0381168252600160a01b900460ff161515928101929092526001810180549293919291840191611927906138a2565b80601f0160208091040260200160405190810160405280929190818152602001828054611953906138a2565b80156119a05780601f10611975576101008083540402835291602001916119a0565b820191906000526020600020905b81548152906001019060200180831161198357829003601f168201915b5050509183525050604080516020818101835260028501546001600160a01b03168252808401919091528151600385018054606093810283018401855282850181815294909501949193909284928491840182828015611a2957602002820191906000526020600020905b81546001600160a01b03168152600190910190602001808311611a0b575b50505050508152602001600182015481525050815250509050919050565b6000818152601e6020908152604091829020805483518184028101840190945280845260609392830182828015611a9d57602002820191906000526020600020905b815481526020019060010190808311611a89575b50505050509050919050565b6060806000611ab6611d7e565b9050600081516001600160401b03811115611ad357611ad36132eb565b604051908082528060200260200182016040528015611afc578160200160208202803683370190505b509050600082516001600160401b03811115611b1a57611b1a6132eb565b604051908082528060200260200182016040528015611b5f57816020015b6040805180820190915260008082526020820152815260200190600190039081611b385790505b5090506000805b8451811015611c6a5760126000868381518110611b8557611b8561390b565b60209081029190910181015182528101919091526040016000205460ff16611c5857848181518110611bb957611bb961390b565b6020026020010151848381518110611bd357611bd361390b565b602002602001018181525050601d6000868381518110611bf557611bf561390b565b6020026020010151815260200190815260200160002060000160405180604001604052908160008201548152602001600182015481525050838381518110611c3f57611c3f61390b565b6020908102919091010152611c556001836138ec565b91505b80611c6281613921565b915050611b66565b50919590945092505050565b6000600954600854610fb991906138ec565b6007546001600160a01b03163314801590611cb757503373dc652c746a8f85e18ce632d97c6118e8a52fa73814155b15611cd5576040516301dbf46f60e71b815260040160405180910390fd5b6000611cdf61187c565b90506002816004811115611cf557611cf56137ca565b03611d1357604051633c30acbf60e01b815260040160405180910390fd5b6004816004811115611d2757611d276137ca565b03611d45576040516307b9d0f760e01b815260040160405180910390fd5b6013805460ff191660011790556040517f4cd963a081760a54f571abc0f1db4dde31b4a07d8d6da3e844b8c6f47eeaaa4290600090a150565b60606010805480602002602001604051908101604052809291908181526020018280548015610f295760200282019190600052602060002090815481526020019060010190808311610f15575050505050905090565b6007546001600160a01b03163314611dff5760405163b8d4540960e01b815260040160405180910390fd5b6004611e0961187c565b6004811115611e1a57611e1a6137ca565b03611e38576040516331da1c8b60e11b815260040160405180910390fd5b60005b81811015611edd576000838383818110611e5757611e5761390b565b60209081029290920135600081815260129093526040909220549192505060ff16611eca576000818152601260205260408120805460ff191660019081179091556011805491820181559091527f31ecc21a745e3968a04e9570e4425bc18fa8019c68028196b546d1669c200c68018190555b5080611ed581613921565b915050611e3b565b50600d54158015611ef057506000546001145b15611eff57611eff82826125fc565b7f75a75cf5c561892f4cc5b26c1b8e933849b42238c96dd073d080d1ae96c514166010604051611f2f919061394d565b60405180910390a15050565b6007546001600160a01b03163314611f6657604051630f4cb1bd60e11b815260040160405180910390fd5b601f80546001600160a01b038381166001600160a01b031983168117909355604080519190921680825260208201939093527f753a2cf8d360cff631674504210913e48247f8e56b3e6d2006c2103d4095999f9101611f2f565b80516001600160a01b03163314611ffe57805160405163fbbf4d7f60e01b81526001600160a01b0390911660048201523360248201526044016111e2565b60005b61200c6001806138ec565b8110156120e5576000816001811115612027576120276137ca565b9050600081600181111561203d5761203d6137ca565b0361204857506120d3565b600181600181111561205c5761205c6137ca565b036120b657608083015151516000036120885760405163c3b2798b60e01b815260040160405180910390fd5b8260800151602001516000036120b1576040516392fb9a3560e01b815260040160405180910390fd5b6120d1565b8060405163d2277d4960e01b81526004016111e29190613988565b505b806120dd81613921565b915050612001565b5080604001515160000361210c5760405163e182473360e01b815260040160405180910390fd5b50565b60008261211c8584612659565b14949350505050565b6000600161213161187c565b6004811115612142576121426137ca565b146121695761214f61187c565b60405163049cab4960e51b81526004016111e291906137e0565b8160000361218a5760405163502e1c2960e01b815260040160405180910390fd5b6121bc85858585601860008a6001600160a01b03166001600160a01b03168152602001908152602001600020546126a6565b601780546001810182556000919091527fc624b66cc0138b8fabc209247f72d758e1cf3343756d543badbf24212bed8c150180546001600160a01b031916331790556040805186815260ff851660208201529081018390526001600160a01b038516907f2c9deb38f462962eadbd85a9d3a4120503ee091f1582eaaa10aa8c6797651d299060600160405180910390a25050506001600160a01b0316600090815260186020526040902054919050565b6000600361227861187c565b6004811115612289576122896137ca565b146122b05761229661187c565b604051632889531360e01b81526004016111e291906137e0565b600b5433600090815260156020526040902054036122e757600b54604051632bd6d93960e21b81526004016111e291815260200190565b600c546011546010546122fa919061393a565b0361231e57600c546040516302217f5360e51b81526004016111e291815260200190565b600061232983611184565b600081815260146020526040902054909150600160a01b900460ff16156123665760405163baffc42360e01b8152600481018290526024016111e2565b6010805460018181019092557f1b6847dc741a1b0cd08d278845f9d819d87b734759afb55fe2de5cb82a9ae6720182905560008281526014602090815260409182902086518154928801511515600160a01b026001600160a81b03199093166001600160a01b03909116179190911781559085015185928201906123ea90826139ea565b506060820151516002820180546001600160a01b0319166001600160a01b03909216919091179055608082015180518051600384019161242f91839160200190612eef565b506020918201516001918201553360009081526015909252604082208054919450925061245d9084906138ec565b9091555050601680546001810182556000919091527fd833147d7dc355ba459fc788f669e58cfaf9dc25ddcd0702e87d69c7b51242890180546001600160a01b031916339081179091556040805183815260208101929092527fcd423cc1203c0af96b9b3d68d73b3064a69de2d14450bb7181c5e5df2132b358910160405180910390a192915050565b600e54156125fa5760006064600f546064612502919061393a565b61250c9034613aa9565b6125169190613ac0565b9050801561258a5761253c73dc652c746a8f85e18ce632d97c6118e8a52fa7388261290d565b6040805173dc652c746a8f85e18ce632d97c6118e8a52fa7388152602081018390527fdf20fd1e76bc69d672e4814fafb2c449bba3a5369d8359adf9e05e6fde87b056910160405180910390a15b6000612596823461393a565b905080156125f7576007546125b4906001600160a01b03168261290d565b600754604080516001600160a01b039092168252602082018390527fdf20fd1e76bc69d672e4814fafb2c449bba3a5369d8359adf9e05e6fde87b0569101611f2f565b50505b565b60005b81811015610f9d57600083838381811061261b5761261b61390b565b602090810292909201356000818152601d90935260409092205491925061264490508282612a26565b5050808061265190613921565b9150506125ff565b600081815b845181101561269e5761268a8286838151811061267d5761267d61390b565b6020026020010151612b57565b91508061269681613921565b91505061265e565b509392505050565b6000858152601d602090815260408083206001600160a01b0388168452601c909252909120546126d6908361393a565b8311156126f65760405163660fa07360e11b815260040160405180910390fd5b6001600160a01b038516600090815260038201602052604081205415801561273957506001600160a01b0386166000908152600383016020526040902060010154155b905060ff8516612791578154849083906000906127579084906138ec565b90915550506001600160a01b0386166000908152600383016020526040812080548692906127869084906138ec565b909155506128229050565b60001960ff86160161280957600d546001146127c057604051639755958f60e01b815260040160405180910390fd5b838260000160010160008282546127d791906138ec565b90915550506001600160a01b0386166000908152600383016020526040812060010180548692906127869084906138ec565b604051638eed55d160e01b815260040160405180910390fd5b801561285957600282018054600181018255600091825260209091200180546001600160a01b0319166001600160a01b0388161790555b6001600160a01b0386166000908152601c6020526040812080548692906128819084906138ec565b9250508190555083601b600082825461289a91906138ec565b9091555050600d541580156128b157506000546001145b1561290457815460006128c4868361393a565b905080156128d6576128d68982612a26565b6000828152601e60209081526040822080546001810182559083529120018990556129018183612b89565b50505b50505050505050565b8047101561295d5760405162461bcd60e51b815260206004820152601d60248201527f416464726573733a20696e73756666696369656e742062616c616e636500000060448201526064016111e2565b6000826001600160a01b03168260405160006040518083038185875af1925050503d80600081146129aa576040519150601f19603f3d011682016040523d82523d6000602084013e6129af565b606091505b5050905080610f9d5760405162461bcd60e51b815260206004820152603a60248201527f416464726573733a20756e61626c6520746f2073656e642076616c75652c207260448201527f6563697069656e74206d6179206861766520726576657274656400000000000060648201526084016111e2565b6000818152601e6020908152604080832080548251818502810185019093528083529192909190830182828015612a7c57602002820191906000526020600020905b815481526020019060010190808311612a68575b5050505050905060005b81518110156113d65783828281518110612aa257612aa261390b565b602002602001015103612b45578160018351612abe919061393a565b81518110612ace57612ace61390b565b6020026020010151601e60008581526020019081526020016000208281548110612afa57612afa61390b565b9060005260206000200181905550601e6000848152602001908152602001600020805480612b2a57612b2a613ae2565b600190038181906000526020600020016000905590556113d6565b80612b4f81613921565b915050612a86565b6000818310612b73576000828152602084905260409020612b82565b60008381526020839052604090205b9392505050565b60028054604080516020808402820181019092528281529192600092918490830182828015612bd757602002820191906000526020600020905b815481526020019060010190808311612bc3575b5050505050905081600003612c1e575050600280546001810182556000919091527f405787fa12a823e0f2b7631cc41b3ba8828b3321ca811111fa75cd3aa3bb5ace015550565b80612c2a60018461393a565b81518110612c3a57612c3a61390b565b6020026020010151831015612c90576001548203612c585750505050565b5050600280546001810182556000919091527f405787fa12a823e0f2b7631cc41b3ba8828b3321ca811111fa75cd3aa3bb5ace015550565b6113d6848484846000805b83811015612d0557828181518110612cb557612cb561390b565b60200260200101518503612cca5750506113d6565b828181518110612cdc57612cdc61390b565b6020026020010151851115612cf357809150612d05565b80612cfd81613921565b915050612c9b565b5060008086118015612d2357506000868152601e6020526040902054155b90506000818015612d4c575086848481518110612d4257612d4261390b565b6020026020010151145b612e5557612d5b60018661393a565b8314612e03576000612d6e8460016138ec565b90505b85811015612e015784612d8560018361393a565b81518110612d9557612d9561390b565b602002602001015160028281548110612db057612db061390b565b600091825260209091200155828015612de1575087858281518110612dd757612dd761390b565b6020026020010151145b15612def5760019150612e01565b80612df981613921565b915050612d71565b505b80158015612e12575060015485105b15612e5557600284612e2560018861393a565b81518110612e3557612e3561390b565b602090810291909101810151825460018101845560009384529190922001555b8560028481548110612e6957612e6961390b565b60009182526020909120015550505050505050565b6040518060a0016040528060006001600160a01b0316815260200160001515815260200160608152602001612ec8604051806020016040528060006001600160a01b031681525090565b8152602001612eea604051806040016040528060608152602001600081525090565b905290565b828054828255906000526020600020908101928215612f44579160200282015b82811115612f4457825182546001600160a01b0319166001600160a01b03909116178255602090920191600190910190612f0f565b50612f50929150612f54565b5090565b5b80821115612f505760008155600101612f55565b600060208284031215612f7b57600080fd5b5035919050565b6000815180845260005b81811015612fa857602081850181015186830182015201612f8c565b506000602082860101526020601f19601f83011685010191505092915050565b805160408084528151908401819052600091602091908201906060860190845b8181101561300d5783516001600160a01b031683529284019291840191600101612fe8565b505093820151949091019390935250919050565b600060018060a01b038088168352861515602084015260a0604084015261304b60a0840187612f82565b81865116606085015283810360808501526130668186612fc8565b9998505050505050505050565b602081526000612b826020830184612f82565b81518152602080830151908201526040810161124c565b600081518084526020808501945080840160005b838110156130cd578151875295820195908201906001016130b1565b509495945050505050565b602081526000612b82602083018461309d565b6001600160a01b038116811461210c57600080fd5b60008083601f84011261311257600080fd5b5081356001600160401b0381111561312957600080fd5b6020830191508360208260051b850101111561159157600080fd5b60008060006040848603121561315957600080fd5b8335613164816130eb565b925060208401356001600160401b0381111561317f57600080fd5b61318b86828701613100565b9497909650939450505050565b6020808252825182820181905260009190848201906040850190845b818110156131d95783516001600160a01b0316835292840192918401916001016131b4565b50909695505050505050565b803580151581146131f557600080fd5b919050565b60008060008060006080868803121561321257600080fd5b853561321d816130eb565b94506020860135935060408601356001600160401b0381111561323f57600080fd5b61324b88828901613100565b909450925061325e9050606087016131e5565b90509295509295909350565b803560ff811681146131f557600080fd5b60008060008060008060a0878903121561329457600080fd5b863595506132a46020880161326a565b9450604087013593506060870135925060808701356001600160401b038111156132cd57600080fd5b6132d989828a01613100565b979a9699509497509295939492505050565b634e487b7160e01b600052604160045260246000fd5b604080519081016001600160401b0381118282101715613323576133236132eb565b60405290565b60405160a081016001600160401b0381118282101715613323576133236132eb565b604051601f8201601f191681016001600160401b0381118282101715613373576133736132eb565b604052919050565b60006020828403121561338d57600080fd5b604051602081018181106001600160401b03821117156133af576133af6132eb565b60405290508082356133c0816130eb565b905292915050565b6000604082840312156133da57600080fd5b6133e2613301565b905081356001600160401b03808211156133fb57600080fd5b818401915084601f83011261340f57600080fd5b8135602082821115613423576134236132eb565b8160051b925061343481840161334b565b828152928401810192818101908885111561344e57600080fd5b948201945b848610156134785785359350613468846130eb565b8382529482019490820190613453565b808752505080860135818601525050505092915050565b600060a082840312156134a157600080fd5b6134a9613329565b905081356134b6816130eb565b815260206134c58382016131e5565b8183015260408301356001600160401b03808211156134e357600080fd5b818501915085601f8301126134f757600080fd5b813581811115613509576135096132eb565b61351b601f8201601f1916850161334b565b818152878583860101111561352f57600080fd5b818585018683013760008583830101528060408701525050613554866060870161337b565b6060850152608085013592508083111561356d57600080fd5b505061357b848285016133c8565b60808301525092915050565b60006020828403121561359957600080fd5b81356001600160401b038111156135af57600080fd5b6118748482850161348f565b600060a082840312156135cd57600080fd5b50919050565b6000602082840312156135e557600080fd5b81356001600160401b038111156135fb57600080fd5b611874848285016135bb565b6000604080835261361a8184018661309d565b83810360208581019190915285518083528682019282019060005b818110156136625761365283865180518252602090810151910152565b9383019391850191600101613635565b509098975050505050505050565b6000806000806060858703121561368657600080fd5b8435613691816130eb565b93506020850135925060408501356001600160401b038111156136b357600080fd5b6136bf87828801613100565b95989497509550505050565b6000806000606084860312156136e057600080fd5b833592506136f06020850161326a565b9150604084013590509250925092565b6000806040838503121561371357600080fd5b823591506020830135613725816130eb565b809150509250929050565b6000806040838503121561374357600080fd5b50508035926020909101359150565b60006020828403121561376457600080fd5b8135612b82816130eb565b60008060006040848603121561378457600080fd5b83356001600160401b038082111561379b57600080fd5b6137a7878388016135bb565b945060208601359150808211156137bd57600080fd5b5061318b86828701613100565b634e487b7160e01b600052602160045260246000fd5b60208101600583106137f4576137f46137ca565b91905290565b60208152600060018060a01b03808451166020840152602084015115156040840152604084015160a0606085015261383560c0850182612f82565b90508160608601515116608085015260808501519150601f198482030160a085015261155a8183612fc8565b6000806020838503121561387457600080fd5b82356001600160401b0381111561388a57600080fd5b61389685828601613100565b90969095509350505050565b600181811c908216806138b657607f821691505b6020821081036135cd57634e487b7160e01b600052602260045260246000fd5b634e487b7160e01b600052601160045260246000fd5b8082018082111561124c5761124c6138d6565b600061124c368361348f565b634e487b7160e01b600052603260045260246000fd5b600060018201613933576139336138d6565b5060010190565b8181038181111561124c5761124c6138d6565b6020808252825482820181905260008481528281209092916040850190845b818110156131d95783548352600193840193928501920161396c565b60208101600283106137f4576137f46137ca565b601f821115610f9d57600081815260208120601f850160051c810160208610156139c35750805b601f850160051c820191505b818110156139e2578281556001016139cf565b505050505050565b81516001600160401b03811115613a0357613a036132eb565b613a1781613a1184546138a2565b8461399c565b602080601f831160018114613a4c5760008415613a345750858301515b600019600386901b1c1916600185901b1785556139e2565b600085815260208120601f198616915b82811015613a7b57888601518255948401946001909101908401613a5c565b5085821015613a995787850151600019600388901b60f8161c191681555b5050505050600190811b01905550565b808202811582820484141761124c5761124c6138d6565b600082613add57634e487b7160e01b600052601260045260246000fd5b500490565b634e487b7160e01b600052603160045260246000fdfea26469706673582212209528c94bdde2791991cdbded0f0c7b56dd07df310a27f1c9fd0be8b4a7b5adde64736f6c63430008130033",
    "linkReferences": {}
  },
  "methodIdentifiers": {
    "AMOUNT_FOR_SUMBITTER_PROOF()": "347cf665",
    "JK_LABS_ADDRESS()": "eef18e17",
    "METADATAS_COUNT()": "4d24a67f",
    "addressSubmitterVerified(address)": "cb853950",
    "addressTotalCastVoteCounts(address)": "a1ac6cb2",
    "addressTotalVotes(address)": "dea5f6a6",
    "addressTotalVotesVerified(address)": "930de979",
    "addressesThatHaveVoted(uint256)": "50c4b616",
    "allProposalTotalVotes()": "50a5e524",
    "allProposalTotalVotesWithoutDeleted()": "d45a010b",
    "cancel()": "ea8a1af0",
    "canceled()": "3f9942ff",
    "castVote(uint256,uint8,uint256,uint256,bytes32[])": "419c533c",
    "castVoteWithoutProof(uint256,uint8,uint256)": "65f16263",
    "checkProof(address,uint256,bytes32[],bool)": "32763c22",
    "contestAddressTotalVotesCast(address)": "aec116b6",
    "contestDeadline()": "262e59e9",
    "contestStart()": "004114a8",
    "costToPropose()": "6ed815ad",
    "creator()": "02d05d3f",
    "deleteProposals(uint256[])": "f0a7db0a",
    "deletedProposalIds(uint256)": "05846cae",
    "downvotingAllowed()": "60506ff6",
    "forVotesToProposalIds(uint256,uint256)": "711effc8",
    "getAllAddressesThatHaveVoted()": "2c39805f",
    "getAllDeletedProposalIds()": "1242b737",
    "getAllProposalAuthors()": "946369b5",
    "getAllProposalIds()": "efa90d36",
    "getNumProposalsWithThisManyForVotes(uint256)": "9ba197af",
    "getOnlyProposalIdWithThisManyForVotes(uint256)": "b66d1da3",
    "getProposal(uint256)": "c7f758a8",
    "getProposalsWithThisManyForVotes(uint256)": "c9a1b6b2",
    "getRankIndex(uint256)": "5c7107d8",
    "getSortedRanks()": "6fd3636b",
    "hashProposal((address,bool,string,(address),(address[],uint256)))": "458da87d",
    "isOrIsBelowTiedRank(uint256)": "9174778c",
    "maxProposalCount()": "fb9bf8d4",
    "name()": "06fdde03",
    "numAllowedProposalSubmissions()": "832009af",
    "numSubmissions(address)": "75e509c5",
    "officialRewardsModule()": "785ddfe5",
    "percentageToCreator()": "edcd1be4",
    "prompt()": "7c65d711",
    "proposalAddressVotes(uint256,address)": "6e4eb810",
    "proposalAddressesHaveVoted(uint256)": "b323580d",
    "proposalAuthors(uint256)": "0aa25e44",
    "proposalIds(uint256)": "9b644a23",
    "proposalIsDeleted(uint256)": "f79c0172",
    "proposalVotes(uint256)": "544ffc9c",
    "proposalVotesStructs(uint256)": "070dc5d9",
    "proposals(uint256)": "013cf08b",
    "propose((address,bool,string,(address),(address[],uint256)),bytes32[])": "c0ffaa78",
    "proposeWithoutProof((address,bool,string,(address),(address[],uint256)))": "476f4d8a",
    "rankLimit()": "0414126a",
    "setOfficialRewardsModule(address)": "f4f3d7ec",
    "sortedRanks(uint256)": "325cc6d9",
    "sortingEnabled()": "366ecf5b",
    "state()": "c19d93fb",
    "submissionMerkleRoot()": "bddc1641",
    "totalVotesCast()": "7de418d5",
    "validateProposalData((address,bool,string,(address),(address[],uint256)))": "fb8ddab4",
    "verifyProposer(address,bytes32[])": "20b3e845",
    "verifyVoter(address,uint256,bytes32[])": "531bd812",
    "version()": "54fd4d50",
    "voteStart()": "e031535b",
    "votingDelay()": "3932abb1",
    "votingMerkleRoot()": "dd96a19d",
    "votingPeriod()": "02a251a3"
  },
  "id": 28
}