{
  "abi": [
    {
      "inputs": [
        {
          "internalType": "string",
          "name": "_name",
          "type": "string"
        },
        {
          "internalType": "string",
          "name": "_prompt",
          "type": "string"
        },
        {
          "internalType": "bytes32",
          "name": "_submissionMerkleRoot",
          "type": "bytes32"
        },
        {
          "internalType": "bytes32",
          "name": "_votingMerkleRoot",
          "type": "bytes32"
        },
        {
          "internalType": "uint256[]",
          "name": "_constructorIntParams",
          "type": "uint256[]"
        }
      ],
      "stateMutability": "nonpayable",
      "type": "constructor"
    },
    {
      "inputs": [],
      "name": "InvalidShortString",
      "type": "error"
    },
    {
      "inputs": [],
      "name": "NotInMerkle",
      "type": "error"
    },
    {
      "inputs": [
        {
          "internalType": "string",
          "name": "str",
          "type": "string"
        }
      ],
      "name": "StringTooLong",
      "type": "error"
    },
    {
      "anonymous": false,
      "inputs": [],
      "name": "ContestCanceled",
      "type": "event"
    },
    {
      "anonymous": false,
      "inputs": [
        {
          "indexed": false,
          "internalType": "uint256",
          "name": "oldContestSnapshot",
          "type": "uint256"
        },
        {
          "indexed": false,
          "internalType": "uint256",
          "name": "newContestSnapshot",
          "type": "uint256"
        }
      ],
      "name": "ContestSnapshotSet",
      "type": "event"
    },
    {
      "anonymous": false,
      "inputs": [
        {
          "indexed": false,
          "internalType": "uint256",
          "name": "oldContestStart",
          "type": "uint256"
        },
        {
          "indexed": false,
          "internalType": "uint256",
          "name": "newContestStart",
          "type": "uint256"
        }
      ],
      "name": "ContestStartSet",
      "type": "event"
    },
    {
      "anonymous": false,
      "inputs": [
        {
          "indexed": false,
          "internalType": "address",
          "name": "oldCreator",
          "type": "address"
        },
        {
          "indexed": false,
          "internalType": "address",
          "name": "newCreator",
          "type": "address"
        }
      ],
      "name": "CreatorSet",
      "type": "event"
    },
    {
      "anonymous": false,
      "inputs": [
        {
          "indexed": false,
          "internalType": "uint256",
          "name": "oldDownvotingAllowed",
          "type": "uint256"
        },
        {
          "indexed": false,
          "internalType": "uint256",
          "name": "newDownvotingAllowed",
          "type": "uint256"
        }
      ],
      "name": "DownvotingAllowedSet",
      "type": "event"
    },
    {
      "anonymous": false,
      "inputs": [],
      "name": "EIP712DomainChanged",
      "type": "event"
    },
    {
      "anonymous": false,
      "inputs": [
        {
          "indexed": false,
          "internalType": "uint256",
          "name": "oldMaxProposalCount",
          "type": "uint256"
        },
        {
          "indexed": false,
          "internalType": "uint256",
          "name": "newMaxProposalCount",
          "type": "uint256"
        }
      ],
      "name": "MaxProposalCountSet",
      "type": "event"
    },
    {
      "anonymous": false,
      "inputs": [
        {
          "indexed": false,
          "internalType": "uint256",
          "name": "oldNumAllowedProposalSubmissions",
          "type": "uint256"
        },
        {
          "indexed": false,
          "internalType": "uint256",
          "name": "newNumAllowedProposalSubmissions",
          "type": "uint256"
        }
      ],
      "name": "NumAllowedProposalSubmissionsSet",
      "type": "event"
    },
    {
      "anonymous": false,
      "inputs": [
        {
          "indexed": false,
          "internalType": "contract RewardsModule",
          "name": "oldOfficialRewardsModule",
          "type": "address"
        },
        {
          "indexed": false,
          "internalType": "contract RewardsModule",
          "name": "newOfficialRewardsModule",
          "type": "address"
        }
      ],
      "name": "OfficialRewardsModuleSet",
      "type": "event"
    },
    {
      "anonymous": false,
      "inputs": [
        {
          "indexed": false,
          "internalType": "uint256",
          "name": "proposalId",
          "type": "uint256"
        },
        {
          "indexed": false,
          "internalType": "string",
          "name": "description",
          "type": "string"
        },
        {
          "indexed": false,
          "internalType": "address",
          "name": "proposer",
          "type": "address"
        }
      ],
      "name": "ProposalCreated",
      "type": "event"
    },
    {
      "anonymous": false,
      "inputs": [
        {
          "indexed": false,
          "internalType": "uint256",
          "name": "oldProposalThreshold",
          "type": "uint256"
        },
        {
          "indexed": false,
          "internalType": "uint256",
          "name": "newProposalThreshold",
          "type": "uint256"
        }
      ],
      "name": "ProposalThresholdSet",
      "type": "event"
    },
    {
      "anonymous": false,
      "inputs": [
        {
          "indexed": false,
          "internalType": "uint256[]",
          "name": "proposalIds",
          "type": "uint256[]"
        }
      ],
      "name": "ProposalsDeleted",
      "type": "event"
    },
    {
      "anonymous": false,
      "inputs": [
        {
          "indexed": false,
          "internalType": "uint256",
          "name": "oldSubmissionGatingByVotingToken",
          "type": "uint256"
        },
        {
          "indexed": false,
          "internalType": "uint256",
          "name": "newSubmissionGatingByVotingToken",
          "type": "uint256"
        }
      ],
      "name": "SubmissionGatingByVotingTokenSet",
      "type": "event"
    },
    {
      "anonymous": false,
      "inputs": [
        {
          "indexed": true,
          "internalType": "address",
          "name": "voter",
          "type": "address"
        },
        {
          "indexed": false,
          "internalType": "uint256",
          "name": "proposalId",
          "type": "uint256"
        },
        {
          "indexed": false,
          "internalType": "uint8",
          "name": "support",
          "type": "uint8"
        },
        {
          "indexed": false,
          "internalType": "uint256",
          "name": "numVotes",
          "type": "uint256"
        },
        {
          "indexed": false,
          "internalType": "string",
          "name": "reason",
          "type": "string"
        }
      ],
      "name": "VoteCast",
      "type": "event"
    },
    {
      "anonymous": false,
      "inputs": [
        {
          "indexed": false,
          "internalType": "uint256",
          "name": "oldVotingDelay",
          "type": "uint256"
        },
        {
          "indexed": false,
          "internalType": "uint256",
          "name": "newVotingDelay",
          "type": "uint256"
        }
      ],
      "name": "VotingDelaySet",
      "type": "event"
    },
    {
      "anonymous": false,
      "inputs": [
        {
          "indexed": false,
          "internalType": "uint256",
          "name": "oldVotingPeriod",
          "type": "uint256"
        },
        {
          "indexed": false,
          "internalType": "uint256",
          "name": "newVotingPeriod",
          "type": "uint256"
        }
      ],
      "name": "VotingPeriodSet",
      "type": "event"
    },
    {
      "inputs": [],
      "name": "AMOUNT_FOR_SUMBITTER_PROOF",
      "outputs": [
        {
          "internalType": "uint8",
          "name": "",
          "type": "uint8"
        }
      ],
      "stateMutability": "view",
      "type": "function"
    },
    {
      "inputs": [],
      "name": "BALLOT_TYPEHASH",
      "outputs": [
        {
          "internalType": "bytes32",
          "name": "",
          "type": "bytes32"
        }
      ],
      "stateMutability": "view",
      "type": "function"
    },
    {
      "inputs": [],
      "name": "COUNTING_MODE",
      "outputs": [
        {
          "internalType": "string",
          "name": "",
          "type": "string"
        }
      ],
      "stateMutability": "pure",
      "type": "function"
    },
    {
      "inputs": [
        {
          "internalType": "address",
          "name": "",
          "type": "address"
        }
      ],
      "name": "addressTotalVotes",
      "outputs": [
        {
          "internalType": "uint256",
          "name": "",
          "type": "uint256"
        }
      ],
      "stateMutability": "view",
      "type": "function"
    },
    {
      "inputs": [],
      "name": "allProposalTotalVotes",
      "outputs": [
        {
          "internalType": "uint256[]",
          "name": "proposalIdsReturn",
          "type": "uint256[]"
        },
        {
          "components": [
            {
              "internalType": "uint256",
              "name": "forVotes",
              "type": "uint256"
            },
            {
              "internalType": "uint256",
              "name": "againstVotes",
              "type": "uint256"
            }
          ],
          "internalType": "struct GovernorCountingSimple.VoteCounts[]",
          "name": "proposalVoteCountsArrayReturn",
          "type": "tuple[]"
        }
      ],
      "stateMutability": "view",
      "type": "function"
    },
    {
      "inputs": [],
      "name": "allProposalTotalVotesWithoutDeleted",
      "outputs": [
        {
          "internalType": "uint256[]",
          "name": "proposalIdsReturn",
          "type": "uint256[]"
        },
        {
          "components": [
            {
              "internalType": "uint256",
              "name": "forVotes",
              "type": "uint256"
            },
            {
              "internalType": "uint256",
              "name": "againstVotes",
              "type": "uint256"
            }
          ],
          "internalType": "struct GovernorCountingSimple.VoteCounts[]",
          "name": "proposalVoteCountsArrayReturn",
          "type": "tuple[]"
        }
      ],
      "stateMutability": "view",
      "type": "function"
    },
    {
      "inputs": [],
      "name": "cancel",
      "outputs": [],
      "stateMutability": "nonpayable",
      "type": "function"
    },
    {
      "inputs": [
        {
          "internalType": "uint256",
          "name": "proposalId",
          "type": "uint256"
        },
        {
          "internalType": "uint8",
          "name": "support",
          "type": "uint8"
        },
        {
          "internalType": "uint256",
          "name": "totalVotes",
          "type": "uint256"
        },
        {
          "internalType": "uint256",
          "name": "numVotes",
          "type": "uint256"
        },
        {
          "internalType": "bytes32[]",
          "name": "proof",
          "type": "bytes32[]"
        }
      ],
      "name": "castVote",
      "outputs": [
        {
          "internalType": "uint256",
          "name": "",
          "type": "uint256"
        }
      ],
      "stateMutability": "nonpayable",
      "type": "function"
    },
    {
      "inputs": [
        {
          "internalType": "uint256",
          "name": "proposalId",
          "type": "uint256"
        },
        {
          "internalType": "uint8",
          "name": "support",
          "type": "uint8"
        },
        {
          "internalType": "uint256",
          "name": "numVotes",
          "type": "uint256"
        }
      ],
      "name": "castVoteWithoutProof",
      "outputs": [
        {
          "internalType": "uint256",
          "name": "",
          "type": "uint256"
        }
      ],
      "stateMutability": "nonpayable",
      "type": "function"
    },
    {
      "inputs": [
        {
          "internalType": "address",
          "name": "addressToCheck",
          "type": "address"
        },
        {
          "internalType": "uint256",
          "name": "amount",
          "type": "uint256"
        },
        {
          "internalType": "bytes32[]",
          "name": "proof",
          "type": "bytes32[]"
        },
        {
          "internalType": "bool",
          "name": "voting",
          "type": "bool"
        }
      ],
      "name": "checkProof",
      "outputs": [
        {
          "internalType": "bool",
          "name": "verified",
          "type": "bool"
        }
      ],
      "stateMutability": "view",
      "type": "function"
    },
    {
      "inputs": [
        {
          "internalType": "address",
          "name": "userAddress",
          "type": "address"
        }
      ],
      "name": "contestAddressTotalVotesCast",
      "outputs": [
        {
          "internalType": "uint256",
          "name": "totalVotesCast",
          "type": "uint256"
        }
      ],
      "stateMutability": "view",
      "type": "function"
    },
    {
      "inputs": [],
      "name": "contestDeadline",
      "outputs": [
        {
          "internalType": "uint256",
          "name": "",
          "type": "uint256"
        }
      ],
      "stateMutability": "view",
      "type": "function"
    },
    {
      "inputs": [],
      "name": "contestSnapshot",
      "outputs": [
        {
          "internalType": "uint256",
          "name": "",
          "type": "uint256"
        }
      ],
      "stateMutability": "view",
      "type": "function"
    },
    {
      "inputs": [],
      "name": "contestStart",
      "outputs": [
        {
          "internalType": "uint256",
          "name": "",
          "type": "uint256"
        }
      ],
      "stateMutability": "view",
      "type": "function"
    },
    {
      "inputs": [],
      "name": "creator",
      "outputs": [
        {
          "internalType": "address",
          "name": "",
          "type": "address"
        }
      ],
      "stateMutability": "view",
      "type": "function"
    },
    {
      "inputs": [
        {
          "internalType": "uint256[]",
          "name": "proposalIds",
          "type": "uint256[]"
        }
      ],
      "name": "deleteProposals",
      "outputs": [],
      "stateMutability": "nonpayable",
      "type": "function"
    },
    {
      "inputs": [],
      "name": "downvotingAllowed",
      "outputs": [
        {
          "internalType": "uint256",
          "name": "",
          "type": "uint256"
        }
      ],
      "stateMutability": "view",
      "type": "function"
    },
    {
      "inputs": [],
      "name": "eip712Domain",
      "outputs": [
        {
          "internalType": "bytes1",
          "name": "fields",
          "type": "bytes1"
        },
        {
          "internalType": "string",
          "name": "name",
          "type": "string"
        },
        {
          "internalType": "string",
          "name": "version",
          "type": "string"
        },
        {
          "internalType": "uint256",
          "name": "chainId",
          "type": "uint256"
        },
        {
          "internalType": "address",
          "name": "verifyingContract",
          "type": "address"
        },
        {
          "internalType": "bytes32",
          "name": "salt",
          "type": "bytes32"
        },
        {
          "internalType": "uint256[]",
          "name": "extensions",
          "type": "uint256[]"
        }
      ],
      "stateMutability": "view",
      "type": "function"
    },
    {
      "inputs": [],
      "name": "getAllProposalIds",
      "outputs": [
        {
          "internalType": "uint256[]",
          "name": "",
          "type": "uint256[]"
        }
      ],
      "stateMutability": "view",
      "type": "function"
    },
    {
      "inputs": [
        {
          "internalType": "address",
          "name": "account",
          "type": "address"
        }
      ],
      "name": "getNumSubmissions",
      "outputs": [
        {
          "internalType": "uint256",
          "name": "",
          "type": "uint256"
        }
      ],
      "stateMutability": "view",
      "type": "function"
    },
    {
      "inputs": [
        {
          "internalType": "uint256",
          "name": "proposalId",
          "type": "uint256"
        }
      ],
      "name": "getProposal",
      "outputs": [
        {
          "components": [
            {
              "internalType": "address",
              "name": "author",
              "type": "address"
            },
            {
              "internalType": "string",
              "name": "description",
              "type": "string"
            },
            {
              "internalType": "bool",
              "name": "exists",
              "type": "bool"
            }
          ],
          "internalType": "struct Governor.ProposalCore",
          "name": "",
          "type": "tuple"
        }
      ],
      "stateMutability": "view",
      "type": "function"
    },
    {
      "inputs": [
        {
          "internalType": "string",
          "name": "proposalDescription",
          "type": "string"
        }
      ],
      "name": "hashProposal",
      "outputs": [
        {
          "internalType": "uint256",
          "name": "",
          "type": "uint256"
        }
      ],
      "stateMutability": "pure",
      "type": "function"
    },
    {
      "inputs": [
        {
          "internalType": "uint256",
          "name": "proposalId",
          "type": "uint256"
        }
      ],
      "name": "isProposalDeleted",
      "outputs": [
        {
          "internalType": "uint256",
          "name": "",
          "type": "uint256"
        }
      ],
      "stateMutability": "view",
      "type": "function"
    },
    {
      "inputs": [],
      "name": "maxProposalCount",
      "outputs": [
        {
          "internalType": "uint256",
          "name": "",
          "type": "uint256"
        }
      ],
      "stateMutability": "view",
      "type": "function"
    },
    {
      "inputs": [],
      "name": "name",
      "outputs": [
        {
          "internalType": "string",
          "name": "",
          "type": "string"
        }
      ],
      "stateMutability": "view",
      "type": "function"
    },
    {
      "inputs": [],
      "name": "numAllowedProposalSubmissions",
      "outputs": [
        {
          "internalType": "uint256",
          "name": "",
          "type": "uint256"
        }
      ],
      "stateMutability": "view",
      "type": "function"
    },
    {
      "inputs": [],
      "name": "officialRewardsModule",
      "outputs": [
        {
          "internalType": "contract RewardsModule",
          "name": "",
          "type": "address"
        }
      ],
      "stateMutability": "view",
      "type": "function"
    },
    {
      "inputs": [],
      "name": "prompt",
      "outputs": [
        {
          "internalType": "string",
          "name": "",
          "type": "string"
        }
      ],
      "stateMutability": "view",
      "type": "function"
    },
    {
      "inputs": [
        {
          "internalType": "uint256",
          "name": "proposalId",
          "type": "uint256"
        },
        {
          "internalType": "address",
          "name": "userAddress",
          "type": "address"
        }
      ],
      "name": "proposalAddressVotes",
      "outputs": [
        {
          "internalType": "uint256",
          "name": "forVotes",
          "type": "uint256"
        },
        {
          "internalType": "uint256",
          "name": "againstVotes",
          "type": "uint256"
        }
      ],
      "stateMutability": "view",
      "type": "function"
    },
    {
      "inputs": [
        {
          "internalType": "uint256",
          "name": "proposalId",
          "type": "uint256"
        }
      ],
      "name": "proposalAddressesHaveVoted",
      "outputs": [
        {
          "internalType": "address[]",
          "name": "",
          "type": "address[]"
        }
      ],
      "stateMutability": "view",
      "type": "function"
    },
    {
      "inputs": [],
      "name": "proposalThreshold",
      "outputs": [
        {
          "internalType": "uint256",
          "name": "",
          "type": "uint256"
        }
      ],
      "stateMutability": "view",
      "type": "function"
    },
    {
      "inputs": [
        {
          "internalType": "uint256",
          "name": "proposalId",
          "type": "uint256"
        }
      ],
      "name": "proposalVotes",
      "outputs": [
        {
          "internalType": "uint256",
          "name": "forVotes",
          "type": "uint256"
        },
        {
          "internalType": "uint256",
          "name": "againstVotes",
          "type": "uint256"
        }
      ],
      "stateMutability": "view",
      "type": "function"
    },
    {
      "inputs": [
        {
          "internalType": "string",
          "name": "proposalDescription",
          "type": "string"
        },
        {
          "internalType": "bytes32[]",
          "name": "proof",
          "type": "bytes32[]"
        }
      ],
      "name": "propose",
      "outputs": [
        {
          "internalType": "uint256",
          "name": "",
          "type": "uint256"
        }
      ],
      "stateMutability": "nonpayable",
      "type": "function"
    },
    {
      "inputs": [
        {
          "internalType": "contract RewardsModule",
          "name": "officialRewardsModule_",
          "type": "address"
        }
      ],
      "name": "setOfficialRewardsModule",
      "outputs": [],
      "stateMutability": "nonpayable",
      "type": "function"
    },
    {
      "inputs": [
        {
          "internalType": "bool",
          "name": "excludeDeletedProposals",
          "type": "bool"
        }
      ],
      "name": "sortedProposals",
      "outputs": [
        {
          "internalType": "uint256[]",
          "name": "sortedProposalIdsReturn",
          "type": "uint256[]"
        }
      ],
      "stateMutability": "view",
      "type": "function"
    },
    {
      "inputs": [],
      "name": "state",
      "outputs": [
        {
          "internalType": "enum IGovernor.ContestState",
          "name": "",
          "type": "uint8"
        }
      ],
      "stateMutability": "view",
      "type": "function"
    },
    {
      "inputs": [],
      "name": "submissionMerkleRoot",
      "outputs": [
        {
          "internalType": "bytes32",
          "name": "",
          "type": "bytes32"
        }
      ],
      "stateMutability": "view",
      "type": "function"
    },
    {
      "inputs": [
        {
          "internalType": "bytes4",
          "name": "interfaceId",
          "type": "bytes4"
        }
      ],
      "name": "supportsInterface",
      "outputs": [
        {
          "internalType": "bool",
          "name": "",
          "type": "bool"
        }
      ],
      "stateMutability": "view",
      "type": "function"
    },
    {
      "inputs": [
        {
          "internalType": "address",
          "name": "account",
          "type": "address"
        },
        {
          "internalType": "bytes32[]",
          "name": "proof",
          "type": "bytes32[]"
        }
      ],
      "name": "verifySubmitter",
      "outputs": [
        {
          "internalType": "bool",
          "name": "verified",
          "type": "bool"
        }
      ],
      "stateMutability": "nonpayable",
      "type": "function"
    },
    {
      "inputs": [
        {
          "internalType": "address",
          "name": "account",
          "type": "address"
        },
        {
          "internalType": "uint256",
          "name": "totalVotes",
          "type": "uint256"
        },
        {
          "internalType": "bytes32[]",
          "name": "proof",
          "type": "bytes32[]"
        }
      ],
      "name": "verifyTotalVotes",
      "outputs": [
        {
          "internalType": "bool",
          "name": "verified",
          "type": "bool"
        }
      ],
      "stateMutability": "nonpayable",
      "type": "function"
    },
    {
      "inputs": [],
      "name": "version",
      "outputs": [
        {
          "internalType": "string",
          "name": "",
          "type": "string"
        }
      ],
      "stateMutability": "view",
      "type": "function"
    },
    {
      "inputs": [],
      "name": "voteStart",
      "outputs": [
        {
          "internalType": "uint256",
          "name": "",
          "type": "uint256"
        }
      ],
      "stateMutability": "view",
      "type": "function"
    },
    {
      "inputs": [],
      "name": "votingDelay",
      "outputs": [
        {
          "internalType": "uint256",
          "name": "",
          "type": "uint256"
        }
      ],
      "stateMutability": "view",
      "type": "function"
    },
    {
      "inputs": [],
      "name": "votingMerkleRoot",
      "outputs": [
        {
          "internalType": "bytes32",
          "name": "",
          "type": "bytes32"
        }
      ],
      "stateMutability": "view",
      "type": "function"
    },
    {
      "inputs": [],
      "name": "votingPeriod",
      "outputs": [
        {
          "internalType": "uint256",
          "name": "",
          "type": "uint256"
        }
      ],
      "stateMutability": "view",
      "type": "function"
    },
    {
      "stateMutability": "payable",
      "type": "receive"
    }
  ],
  "bytecode": {
    "object": "0x6101a06040523480156200001257600080fd5b50604051620039783803806200397883398101604081905262000035916200078d565b806000815181106200004b576200004b6200089e565b6020026020010151816001815181106200006957620000696200089e565b6020026020010151826002815181106200008757620000876200089e565b602002602001015183600381518110620000a557620000a56200089e565b602002602001015184600481518110620000c357620000c36200089e565b602002602001015185600581518110620000e157620000e16200089e565b602002602001015186600681518110620000ff57620000ff6200089e565b6020026020010151876007815181106200011d576200011d6200089e565b6020026020010151886008815181106200013b576200013b6200089e565b60200260200101518d8d8d8d8181856200015a620002df60201b60201c565b62000175600083620002fc60201b62001c481790919060201c565b60e05262000191816001620002fc602090811b62001c4817901c565b61010052815160208084019190912061012052815190820120610140524660a052620002216101205161014051604080517f8b73c3c69bb8fe3d512ecc4cf759cc79239f7b179b0ffacaa9a75d522b39400f60208201529081019290925260608201524660808201523060a082015260009060c00160405160208183030381529060405280519060200120905090565b60805250503060c0526101609190915261018052600762000243858262000943565b50600862000252848262000943565b505050505062000268896200034c60201b60201c565b62000273886200038d565b6200027e87620003ce565b620002898662000475565b6200029485620004b6565b6200029f84620004f7565b620002aa8362000538565b620002b58262000579565b620002c081620005ba565b620002cb33620005fb565b505050505050505050505050505062000a69565b604080518082019091526003815262332e3160e81b602082015290565b60006020835110156200031c57620003148362000664565b905062000346565b826200033383620006a760201b62001c791760201c565b9062000340908262000943565b5060ff90505b92915050565b600c5460408051918252602082018390527fd299feb1d7d9345a48559601c471c3be7eea9a11f21d5e86809198f40a974db4910160405180910390a1600c55565b600d5460408051918252602082018390527fc565b045403dc03c2eea82b81a0465edad9e2e7fc4d97e11421c209da93d7a93910160405180910390a1600d55565b60008111620004345760405162461bcd60e51b815260206004820152602760248201527f476f7665726e6f7253657474696e67733a20766f74696e6720706572696f6420604482015266746f6f206c6f7760c81b60648201526084015b60405180910390fd5b600e5460408051918252602082018390527f7e3f7f0708a84de9203036abaa450dccc85ad5ff52f78c170f3edb55cf5e8828910160405180910390a1600e55565b600f5460408051918252602082018390527f70d92b9b65fcaa7708049081fd0ad601c9af76bd86d38df0337dfce3d025ec83910160405180910390a1600f55565b60105460408051918252602082018390527fccb45da8d5717e6c4544694297c4ba5cf151d455c9bb0ed4fc7a38411bc05461910160405180910390a1601055565b60115460408051918252602082018390527fe971b819c7fb95c72451f557226aceb5baaf4994a9d39a79bbfa0040e87500b9910160405180910390a1601155565b60125460408051918252602082018390527f4984ec996723330ee95979ed65a2a4b41edd914e68a187efe92596474643bdff910160405180910390a1601255565b60135460408051918252602082018390527f9c7b27f091caef3a83be73d89320404fa0c4a52993685ff0651672e49e6e55ab910160405180910390a1601355565b60145460408051918252602082018390527f5f16486d27561553b443370316cba86e966b1e5ec1691fa07c81944abf314441910160405180910390a1601455565b601554604080516001600160a01b03928316815291831660208301527fc30034fc2e9697980e08935bbc287db3eaa44a4aa113ef4c108b356adbf911ce910160405180910390a1601580546001600160a01b0319166001600160a01b0392909216919091179055565b600080829050601f8151111562000692578260405163305a27a960e01b81526004016200042b919062000a0f565b80516200069f8262000a44565b179392505050565b90565b634e487b7160e01b600052604160045260246000fd5b604051601f8201601f191681016001600160401b0381118282101715620006eb57620006eb620006aa565b604052919050565b60005b8381101562000710578181015183820152602001620006f6565b50506000910152565b600082601f8301126200072b57600080fd5b81516001600160401b03811115620007475762000747620006aa565b6200075c601f8201601f1916602001620006c0565b8181528460208386010111156200077257600080fd5b62000785826020830160208701620006f3565b949350505050565b600080600080600060a08688031215620007a657600080fd5b85516001600160401b0380821115620007be57600080fd5b620007cc89838a0162000719565b9650602091508188015181811115620007e457600080fd5b620007f28a828b0162000719565b96505060408801519450606088015193506080880151818111156200081657600080fd5b8801601f81018a136200082857600080fd5b8051828111156200083d576200083d620006aa565b8060051b925062000850848401620006c0565b818152928201840192848101908c8511156200086b57600080fd5b928501925b848410156200088b5783518252928501929085019062000870565b8096505050505050509295509295909350565b634e487b7160e01b600052603260045260246000fd5b600181811c90821680620008c957607f821691505b602082108103620008ea57634e487b7160e01b600052602260045260246000fd5b50919050565b601f8211156200093e57600081815260208120601f850160051c81016020861015620009195750805b601f850160051c820191505b818110156200093a5782815560010162000925565b5050505b505050565b81516001600160401b038111156200095f576200095f620006aa565b6200097781620009708454620008b4565b84620008f0565b602080601f831160018114620009af5760008415620009965750858301515b600019600386901b1c1916600185901b1785556200093a565b600085815260208120601f198616915b82811015620009e057888601518255948401946001909101908401620009bf565b5085821015620009ff5787850151600019600388901b60f8161c191681555b5050505050600190811b01905550565b602081526000825180602084015262000a30816040850160208701620006f3565b601f01601f19169190910160400192915050565b80516020808301519190811015620008ea5760001960209190910360031b1b16919050565b60805160a05160c05160e0516101005161012051610140516101605161018051612e9f62000ad9600039600081816107bb0152610edc0152600081816106dd0152610e7701526000505060005050600061136f015260006113450152600050506000505060005050612e9f6000f3fe6080604052600436106102755760003560e01c80637c65d7111161014f578063c7f758a8116100c1578063e031535b1161007a578063e031535b1461083e578063ea8a1af014610853578063efa90d3614610868578063f0a7db0a1461087d578063f4f3d7ec1461089d578063fb9bf8d4146108bd57600080fd5b8063c7f758a814610721578063d45a010b1461074e578063dd4e2ba514610763578063dd96a19d146107a9578063dea5f6a6146107dd578063deaaa7cc1461080a57600080fd5b8063aec116b611610113578063aec116b614610633578063b323580d14610669578063b58131b014610696578063bd65e80a146106ab578063bddc1641146106cb578063c19d93fb146106ff57600080fd5b80637c65d711146105a15780637d8bfc44146105b6578063832009af146105d657806384b0196e146105eb5780638d50dc6b1461061357600080fd5b8063419c533c116101e857806354fd4d50116101ac57806354fd4d50146104cc5780635f953a03146104f857806360506ff61461052e57806365f16263146105435780636e4eb81014610563578063785ddfe51461058357600080fd5b8063419c533c146103fd578063427d56c21461041d57806350a5e5241461044a578063540a91901461046d578063544ffc9c1461048257600080fd5b806306fdde031161023a57806306fdde031461033d578063262e59e91461035f57806332763c2214610374578063347cf665146103945780633932abb1146103bb5780633b6d199b146103d057600080fd5b80624114a81461028357806301cbcdbe146102ab57806301ffc9a7146102cb57806302a251a3146102fb57806302d05d3f1461031057600080fd5b3661027e57005b005b600080fd5b34801561028f57600080fd5b506102986108d2565b6040519081526020015b60405180910390f35b3480156102b757600080fd5b506102986102c63660046125a5565b6108e2565b3480156102d757600080fd5b506102eb6102e636600461260d565b610cf4565b60405190151581526020016102a2565b34801561030757600080fd5b50610298610d2b565b34801561031c57600080fd5b50610325610d36565b6040516001600160a01b0390911681526020016102a2565b34801561034957600080fd5b50610352610d4a565b6040516102a2919061267d565b34801561036b57600080fd5b50610298610ddc565b34801561038057600080fd5b506102eb61038f3660046126bd565b610df8565b3480156103a057600080fd5b506103a9600181565b60405160ff90911681526020016102a2565b3480156103c757600080fd5b50610298610f35565b3480156103dc57600080fd5b506102986103eb36600461272d565b60009081526006602052604090205490565b34801561040957600080fd5b50610298610418366004612757565b610f40565b34801561042957600080fd5b5061043d6104383660046127c7565b610f78565b6040516102a2919061281d565b34801561045657600080fd5b5061045f6110a4565b6040516102a2929190612830565b34801561047957600080fd5b50600f54610298565b34801561048e57600080fd5b506104b761049d36600461272d565b600090815260176020526040902080546001909101549091565b604080519283526020830191909152016102a2565b3480156104d857600080fd5b50604080518082019091526003815262332e3160e81b6020820152610352565b34801561050457600080fd5b50610298610513366004612891565b6001600160a01b03166000908152600b602052604090205490565b34801561053a57600080fd5b506102986111aa565b34801561054f57600080fd5b5061029861055e3660046128ae565b6111b5565b34801561056f57600080fd5b506104b761057e3660046128e3565b61127d565b34801561058f57600080fd5b506018546001600160a01b0316610325565b3480156105ad57600080fd5b506103526112b2565b3480156105c257600080fd5b506102eb6105d1366004612913565b6112c1565b3480156105e257600080fd5b5061029861132c565b3480156105f757600080fd5b50610600611337565b6040516102a2979695949392919061296e565b34801561061f57600080fd5b506102eb61062e3660046129de565b6113bf565b34801561063f57600080fd5b5061029861064e366004612891565b6001600160a01b031660009081526016602052604090205490565b34801561067557600080fd5b5061068961068436600461272d565b61141d565b6040516102a29190612a25565b3480156106a257600080fd5b5061029861148f565b3480156106b757600080fd5b506102986106c6366004612a72565b61149a565b3480156106d757600080fd5b506102987f000000000000000000000000000000000000000000000000000000000000000081565b34801561070b57600080fd5b506107146114cb565b6040516102a29190612ac4565b34801561072d57600080fd5b5061074161073c36600461272d565b61153d565b6040516102a29190612aec565b34801561075a57600080fd5b5061045f611641565b34801561076f57600080fd5b5060408051808201909152601881527f737570706f72743d627261766f2671756f72756d3d666f7200000000000000006020820152610352565b3480156107b557600080fd5b506102987f000000000000000000000000000000000000000000000000000000000000000081565b3480156107e957600080fd5b506102986107f8366004612891565b60026020526000908152604090205481565b34801561081657600080fd5b506102987f150214d74d59b7d1e90c73fc22ef3d991dd0a76b046543d4d80ab92d2a50328f81565b34801561084a57600080fd5b5061029861180c565b34801561085f57600080fd5b5061027c61181e565b34801561087457600080fd5b5061043d611908565b34801561088957600080fd5b5061027c610898366004612b32565b61195f565b3480156108a957600080fd5b5061027c6108b8366004612891565b611ba2565b3480156108c957600080fd5b50610298611c3d565b60006108dd600c5490565b905090565b600060036108ee6114cb565b60048111156108ff576108ff612aae565b146109775760405162461bcd60e51b815260206004820152603e60248201527f476f7665726e6f723a20636f6e74657374206d7573742062652071756575656460448201527f20666f722070726f706f73616c7320746f206265207375626d6974746564000060648201526084015b60405180910390fd5b61097f61132c565b336000908152600b602052604090205410610a285760405162461bcd60e51b815260206004820152605d60248201527f476f7665726e6f723a207468652073616d652063616e6e6f74207375626d697460448201527f206d6f7265207468616e20746865206e756d416c6c6f77656450726f706f736160648201527f6c5375626d697373696f6e7320666f72207468697320636f6e74657374000000608482015260a40161096e565b610a30611c3d565b60055410610aa65760405162461bcd60e51b815260206004820152603960248201527f476f7665726e6f723a20746865206d6178206e756d626572206f662070726f7060448201527f6f73616c732068617665206265656e207375626d697474656400000000000000606482015260840161096e565b610ab13384846113bf565b610b155760405162461bcd60e51b815260206004820152602f60248201527f476f7665726e6f723a2061646472657373206973206e6f74207065726d69737360448201526e1a5bdb9959081d1bc81cdd589b5a5d608a1b606482015260840161096e565b8351600003610b665760405162461bcd60e51b815260206004820152601860248201527f476f7665726e6f723a20656d7074792070726f706f73616c0000000000000000604482015260640161096e565b6000610b718561149a565b6000818152600a602052604090206002015490915060ff1615610be85760405162461bcd60e51b815260206004820152602960248201527f476f7665726e6f723a206475706c69636174652070726f706f73616c73206e6f6044820152681d08185b1b1bddd95960ba1b606482015260840161096e565b6005805460018082019092557f036b6384b5eca791c62761152d0c79bb0604c104a5fb6f4eb0703f3154bb3db0018290556040805160608101825233815260208082018981528284018590526000868152600a909252929020815181546001600160a01b0319166001600160a01b0390911617815591519092820190610c6e9082612c54565b50604091820151600291909101805460ff1916911515919091179055336000908152600b602052908120805460019290610ca9908490612d29565b909155507fc8c078bfee58e5822588f08b4509ed1eb5058e03f666cca84dd2d44bf5c288a89050818633604051610ce293929190612d3c565b60405180910390a190505b9392505050565b60006001600160e01b0319821663f1bae07f60e01b1480610d2557506301ffc9a760e01b6001600160e01b03198316145b92915050565b60006108dd600e5490565b60006108dd6015546001600160a01b031690565b606060078054610d5990612bcb565b80601f0160208091040260200160405190810160405280929190818152602001828054610d8590612bcb565b8015610dd25780601f10610da757610100808354040283529160200191610dd2565b820191906000526020600020905b815481529060010190602001808311610db557829003601f168201915b5050505050905090565b6000610de6610d2b565b610dee61180c565b6108dd9190612d29565b6040516bffffffffffffffffffffffff19606087901b166020820152603481018590526000908190605401604051602081830303815290604052805190602001209050600083610ea757610ea28686808060200260200160405190810160405280939291908181526020018383602002808284376000920191909152507f00000000000000000000000000000000000000000000000000000000000000009250869150611c7c9050565b610f07565b610f078686808060200260200160405190810160405280939291908181526020018383602002808284376000920191909152507f00000000000000000000000000000000000000000000000000000000000000009250869150611c7c9050565b905080610f275760405163452c2df160e11b815260040160405180910390fd5b506001979650505050505050565b60006108dd600d5490565b600033610f4f818786866112c1565b50610f6c8882898860405180602001604052806000815250611c92565b98975050505050505050565b606060008083610f8f57610f8a6110a4565b610f97565b610f97611641565b91509150600082516001600160401b03811115610fb657610fb66124ac565b604051908082528060200260200182016040528015610fdf578160200160208202803683370190505b50905060005b82518110156110635782818151811061100057611000612d6d565b60200260200101516020015183828151811061101e5761101e612d6d565b6020026020010151600001516110349190612d83565b82828151811061104657611046612d6d565b60209081029190910101528061105b81612daa565b915050610fe5565b5060005b600184516110759190612dc3565b81101561109a57611087818386611ed0565b508061109281612daa565b915050611067565b5091949350505050565b60608060006110b1611908565b9050600081516001600160401b038111156110ce576110ce6124ac565b60405190808252806020026020018201604052801561111357816020015b60408051808201909152600080825260208201528152602001906001900390816110ec5790505b50905060005b82518110156111a0576017600084838151811061113857611138612d6d565b602002602001015181526020019081526020016000206000016040518060400160405290816000820154815260200160018201548152505082828151811061118257611182612d6d565b6020026020010181905250808061119890612daa565b915050611119565b5090939092509050565b60006108dd60135490565b3360008181526003602052604081205490919060ff166112585760405162461bcd60e51b815260206004820152605260248201527f476f7665726e6f723a20796f75206e65656420746f2063617374206120766f7460448201527f652077697468207468652070726f6f66206174206c65617374206f6e636520616064820152711b99081e5bdd481a185d995b89dd081e595d60721b608482015260a40161096e565b6112748582868660405180602001604052806000815250611c92565b95945050505050565b60008281526017602090815260408083206001600160a01b0385168452600301909152902080546001909101545b9250929050565b606060088054610d5990612bcb565b6001600160a01b03841660009081526003602052604081205460ff16611321576112ef858585856000610df8565b506001600160a01b038516600090815260026020908152604080832087905560039091529020805460ff191660011790555b506001949350505050565b60006108dd60115490565b60006060808280808361136a7f000000000000000000000000000000000000000000000000000000000000000083612036565b6113957f00000000000000000000000000000000000000000000000000000000000000006001612036565b60408051600080825260208201909252600f60f81b9b939a50919850469750309650945092509050565b6001600160a01b03831660009081526004602052604081205460ff16611413576113ee84600185856000610df8565b506001600160a01b0384166000908152600460205260409020805460ff191660011790555b5060019392505050565b600081815260176020908152604091829020600281018054845181850281018501909552808552606094929383018282801561148257602002820191906000526020600020905b81546001600160a01b03168152600190910190602001808311611464575b5050505050915050919050565b60006108dd60105490565b6000816040516020016114ad919061267d565b60408051601f19818403018152919052805160209091012092915050565b60095460009060ff16156114df5750600290565b60006114e96108d2565b90504281106114fa57600091505090565b600061150461180c565b90504281106115165760039250505090565b6000611520610ddc565b9050428110611533576001935050505090565b6004935050505090565b61156c604051806060016040528060006001600160a01b03168152602001606081526020016000151581525090565b6000828152600a602090815260409182902082516060810190935280546001600160a01b0316835260018101805491928401916115a890612bcb565b80601f01602080910402602001604051908101604052809291908181526020018280546115d490612bcb565b80156116215780601f106115f657610100808354040283529160200191611621565b820191906000526020600020905b81548152906001019060200180831161160457829003601f168201915b50505091835250506002919091015460ff16151560209091015292915050565b606080600061164e611908565b9050600081516001600160401b0381111561166b5761166b6124ac565b604051908082528060200260200182016040528015611694578160200160208202803683370190505b509050600082516001600160401b038111156116b2576116b26124ac565b6040519080825280602002602001820160405280156116f757816020015b60408051808201909152600080825260208201528152602001906001900390816116d05790505b5090506000805b84518110156118005761173685828151811061171c5761171c612d6d565b602002602001015160009081526006602052604090205490565b6001146117ee5784818151811061174f5761174f612d6d565b602002602001015184838151811061176957611769612d6d565b6020026020010181815250506017600086838151811061178b5761178b612d6d565b60200260200101518152602001908152602001600020600001604051806040016040529081600082015481526020016001820154815250508383815181106117d5576117d5612d6d565b60209081029190910101526117eb600183612d29565b91505b806117f881612daa565b9150506116fe565b50919590945092505050565b6000611816610f35565b610dee6108d2565b611826610d36565b6001600160a01b0316336001600160a01b03161461184357600080fd5b600061184d6114cb565b9050600281600481111561186357611863612aae565b141580156118835750600481600481111561188057611880612aae565b14155b6118cf5760405162461bcd60e51b815260206004820152601c60248201527f476f7665726e6f723a20636f6e74657374206e6f742061637469766500000000604482015260640161096e565b6009805460ff191660011790556040517f4cd963a081760a54f571abc0f1db4dde31b4a07d8d6da3e844b8c6f47eeaaa4290600090a150565b60606005805480602002602001604051908101604052809291908181526020018280548015610dd257602002820191906000526020600020905b815481526020019060010190808311611942575050505050905090565b611967610d36565b6001600160a01b0316336001600160a01b0316146119ed5760405162461bcd60e51b815260206004820152603760248201527f476f7665726e6f723a206f6e6c792074686520636f6e7465737420637265617460448201527f6f722063616e2064656c6574652070726f706f73616c73000000000000000000606482015260840161096e565b60046119f76114cb565b6004811115611a0857611a08612aae565b03611a8d5760405162461bcd60e51b815260206004820152604960248201527f476f7665726e6f723a2064656c6574696f6e206f662070726f706f73616c732060448201527f61667465722074686520656e64206f66206120636f6e74657374206973206e6f6064820152681d08185b1b1bddd95960ba1b608482015260a40161096e565b60005b8151811015611b675760066000838381518110611aaf57611aaf612d6d565b6020026020010151815260200190815260200160002054600114611b5557600160066000848481518110611ae557611ae5612d6d565b60200260200101518152602001908152602001600020819055506040518060600160405280603d8152602001612e2d603d9139600a6000848481518110611b2e57611b2e612d6d565b602002602001015181526020019081526020016000206001019081611b539190612c54565b505b80611b5f81612daa565b915050611a90565b507f75a75cf5c561892f4cc5b26c1b8e933849b42238c96dd073d080d1ae96c5141681604051611b97919061281d565b60405180910390a150565b611baa610d36565b6001600160a01b0316336001600160a01b031614611bc757600080fd5b6000611bdb6018546001600160a01b031690565b601880546001600160a01b0319166001600160a01b0385811691821790925560408051928416835260208301919091529192507f753a2cf8d360cff631674504210913e48247f8e56b3e6d2006c2103d4095999f910160405180910390a15050565b60006108dd60125490565b6000602083511015611c6457611c5d836120da565b9050610d25565b81611c6f8482612c54565b5060ff9392505050565b90565b600082611c898584612118565b14949350505050565b60006001611c9e6114cb565b6004811115611caf57611caf612aae565b14611d085760405162461bcd60e51b815260206004820152602360248201527f476f7665726e6f723a20766f7465206e6f742063757272656e746c792061637460448201526269766560e81b606482015260840161096e565b60008311611d6c5760405162461bcd60e51b815260206004820152602b60248201527f476f7665726e6f723a2063616e6e6f7420766f746520776974682030206f722060448201526a666577657220766f74657360a81b606482015260840161096e565b6001600160a01b03851660009081526003602052604090205460ff16611e365760405162461bcd60e51b815260206004820152606d60248201527f476f7665726e6f723a206e6f74207375726520686f7720796f7520676f74206860448201527f6572652062757420796f75206e65656420746f2076657269667920796f75722060648201527f6e756d626572206f6620766f74657320616761696e737420746865206d65726b60848201526c1b19481c9bdbdd08199a5c9cdd609a1b60a482015260c40161096e565b611e6886868686600260008b6001600160a01b03166001600160a01b0316815260200190815260200160002054612165565b846001600160a01b03167fb8e138887d0aa13bab447e82de9d5c1777041ecd21ca36ba824ff1e6c07ddda487868686604051611ea79493929190612dd6565b60405180910390a2505050506001600160a01b0316600090815260026020526040902054919050565b600083805b8451811015611f2e57848281518110611ef057611ef0612d6d565b6020026020010151858281518110611f0a57611f0a612d6d565b60200260200101511215611f1c578091505b80611f2681612daa565b915050611ed5565b50848103611f40576000915050610ced565b6000848681518110611f5457611f54612d6d565b60200260200101519050848281518110611f7057611f70612d6d565b6020026020010151858781518110611f8a57611f8a612d6d565b60200260200101818152505080858381518110611fa957611fa9612d6d565b6020026020010181815250506000848781518110611fc957611fc9612d6d565b60200260200101519050848381518110611fe557611fe5612d6d565b6020026020010151858881518110611fff57611fff612d6d565b6020026020010181815250508085848151811061201e5761201e612d6d565b60209081029190910101525060019695505050505050565b606060ff831461204957611c5d83612419565b81805461205590612bcb565b80601f016020809104026020016040519081016040528092919081815260200182805461208190612bcb565b80156120ce5780601f106120a3576101008083540402835291602001916120ce565b820191906000526020600020905b8154815290600101906020018083116120b157829003601f168201915b50505050509050610d25565b600080829050601f81511115612105578260405163305a27a960e01b815260040161096e919061267d565b805161211082612e08565b179392505050565b600081815b845181101561215d576121498286838151811061213c5761213c612d6d565b6020026020010151612458565b91508061215581612daa565b91505061211d565b509392505050565b60008581526017602090815260408083206001600160a01b03881684526016909252909120546121959083612dc3565b8311156122005760405162461bcd60e51b815260206004820152603360248201527f476f7665726e6f72566f74696e6753696d706c653a206e6f7420656e6f756768604482015272081d9bdd195cc81b19599d081d1bc818d85cdd606a1b606482015260840161096e565b6001600160a01b03851660009081526003820160205260409020541560ff851661227257815484908390600090612238908490612d29565b90915550506001600160a01b038616600090815260038301602052604081208054869290612267908490612d29565b909155506123ac9050565b60001960ff861601612346576122866111aa565b6001146122fd576040805162461bcd60e51b81526020600482015260248101919091527f476f7665726e6f72566f74696e6753696d706c653a20646f776e766f74696e6760448201527f206973206e6f7420656e61626c656420666f72207468697320436f6e74657374606482015260840161096e565b838260000160010160008282546123149190612d29565b90915550506001600160a01b038616600090815260038301602052604081206001018054869290612267908490612d29565b60405162461bcd60e51b815260206004820152603560248201527f476f7665726e6f72566f74696e6753696d706c653a20696e76616c69642076616044820152746c756520666f7220656e756d20566f74655479706560581b606482015260840161096e565b80156123e357600282018054600181018255600091825260209091200180546001600160a01b0319166001600160a01b0388161790555b6001600160a01b0386166000908152601660205260408120805486929061240b908490612d29565b909155505050505050505050565b6060600061242683612484565b604080516020808252818301909252919250600091906020820181803683375050509182525060208101929092525090565b6000818310612474576000828152602084905260409020610ced565b5060009182526020526040902090565b600060ff8216601f811115610d2557604051632cd44ac360e21b815260040160405180910390fd5b634e487b7160e01b600052604160045260246000fd5b604051601f8201601f191681016001600160401b03811182821017156124ea576124ea6124ac565b604052919050565b600082601f83011261250357600080fd5b81356001600160401b0381111561251c5761251c6124ac565b61252f601f8201601f19166020016124c2565b81815284602083860101111561254457600080fd5b816020850160208301376000918101602001919091529392505050565b60008083601f84011261257357600080fd5b5081356001600160401b0381111561258a57600080fd5b6020830191508360208260051b85010111156112ab57600080fd5b6000806000604084860312156125ba57600080fd5b83356001600160401b03808211156125d157600080fd5b6125dd878388016124f2565b945060208601359150808211156125f357600080fd5b5061260086828701612561565b9497909650939450505050565b60006020828403121561261f57600080fd5b81356001600160e01b031981168114610ced57600080fd5b6000815180845260005b8181101561265d57602081850181015186830182015201612641565b506000602082860101526020601f19601f83011685010191505092915050565b602081526000610ced6020830184612637565b6001600160a01b03811681146126a557600080fd5b50565b803580151581146126b857600080fd5b919050565b6000806000806000608086880312156126d557600080fd5b85356126e081612690565b94506020860135935060408601356001600160401b0381111561270257600080fd5b61270e88828901612561565b90945092506127219050606087016126a8565b90509295509295909350565b60006020828403121561273f57600080fd5b5035919050565b803560ff811681146126b857600080fd5b60008060008060008060a0878903121561277057600080fd5b8635955061278060208801612746565b9450604087013593506060870135925060808701356001600160401b038111156127a957600080fd5b6127b589828a01612561565b979a9699509497509295939492505050565b6000602082840312156127d957600080fd5b610ced826126a8565b600081518084526020808501945080840160005b83811015612812578151875295820195908201906001016127f6565b509495945050505050565b602081526000610ced60208301846127e2565b60006040808352612843818401866127e2565b83810360208581019190915285518083528682019282019060005b818110156128835784518051845284015184840152938301939185019160010161285e565b509098975050505050505050565b6000602082840312156128a357600080fd5b8135610ced81612690565b6000806000606084860312156128c357600080fd5b833592506128d360208501612746565b9150604084013590509250925092565b600080604083850312156128f657600080fd5b82359150602083013561290881612690565b809150509250929050565b6000806000806060858703121561292957600080fd5b843561293481612690565b93506020850135925060408501356001600160401b0381111561295657600080fd5b61296287828801612561565b95989497509550505050565b60ff60f81b8816815260e06020820152600061298d60e0830189612637565b828103604084015261299f8189612637565b606084018890526001600160a01b038716608085015260a0840186905283810360c085015290506129d081856127e2565b9a9950505050505050505050565b6000806000604084860312156129f357600080fd5b83356129fe81612690565b925060208401356001600160401b03811115612a1957600080fd5b61260086828701612561565b6020808252825182820181905260009190848201906040850190845b81811015612a665783516001600160a01b031683529284019291840191600101612a41565b50909695505050505050565b600060208284031215612a8457600080fd5b81356001600160401b03811115612a9a57600080fd5b612aa6848285016124f2565b949350505050565b634e487b7160e01b600052602160045260246000fd5b6020810160058310612ae657634e487b7160e01b600052602160045260246000fd5b91905290565b602080825282516001600160a01b03168282015282015160606040830152600090612b1a6080840182612637565b90506040840151151560608401528091505092915050565b60006020808385031215612b4557600080fd5b82356001600160401b0380821115612b5c57600080fd5b818501915085601f830112612b7057600080fd5b813581811115612b8257612b826124ac565b8060051b9150612b938483016124c2565b8181529183018401918481019088841115612bad57600080fd5b938501935b83851015610f6c57843582529385019390850190612bb2565b600181811c90821680612bdf57607f821691505b602082108103612bff57634e487b7160e01b600052602260045260246000fd5b50919050565b601f821115612c4f57600081815260208120601f850160051c81016020861015612c2c5750805b601f850160051c820191505b81811015612c4b57828155600101612c38565b5050505b505050565b81516001600160401b03811115612c6d57612c6d6124ac565b612c8181612c7b8454612bcb565b84612c05565b602080601f831160018114612cb65760008415612c9e5750858301515b600019600386901b1c1916600185901b178555612c4b565b600085815260208120601f198616915b82811015612ce557888601518255948401946001909101908401612cc6565b5085821015612d035787850151600019600388901b60f8161c191681555b5050505050600190811b01905550565b634e487b7160e01b600052601160045260246000fd5b80820180821115610d2557610d25612d13565b838152606060208201526000612d556060830185612637565b905060018060a01b0383166040830152949350505050565b634e487b7160e01b600052603260045260246000fd5b8181036000831280158383131683831282161715612da357612da3612d13565b5092915050565b600060018201612dbc57612dbc612d13565b5060010190565b81810381811115610d2557610d25612d13565b84815260ff84166020820152826040820152608060608201526000612dfe6080830184612637565b9695505050505050565b80516020808301519190811015612bff5760001960209190910360031b1b1691905056fe546869732070726f706f73616c20686173206265656e2064656c65746564206279207468652063726561746f72206f662074686520636f6e746573742ea264697066735822122081053db4b2624a18c19bd403258420c7a7eb726c4117323063eaffe47b1d92da64736f6c63430008120033",
    "linkReferences": {}
  },
  "methodIdentifiers": {
    "AMOUNT_FOR_SUMBITTER_PROOF()": "347cf665",
    "BALLOT_TYPEHASH()": "deaaa7cc",
    "COUNTING_MODE()": "dd4e2ba5",
    "addressTotalVotes(address)": "dea5f6a6",
    "allProposalTotalVotes()": "50a5e524",
    "allProposalTotalVotesWithoutDeleted()": "d45a010b",
    "cancel()": "ea8a1af0",
    "castVote(uint256,uint8,uint256,uint256,bytes32[])": "419c533c",
    "castVoteWithoutProof(uint256,uint8,uint256)": "65f16263",
    "checkProof(address,uint256,bytes32[],bool)": "32763c22",
    "contestAddressTotalVotesCast(address)": "aec116b6",
    "contestDeadline()": "262e59e9",
    "contestSnapshot()": "540a9190",
    "contestStart()": "004114a8",
    "creator()": "02d05d3f",
    "deleteProposals(uint256[])": "f0a7db0a",
    "downvotingAllowed()": "60506ff6",
    "eip712Domain()": "84b0196e",
    "getAllProposalIds()": "efa90d36",
    "getNumSubmissions(address)": "5f953a03",
    "getProposal(uint256)": "c7f758a8",
    "hashProposal(string)": "bd65e80a",
    "isProposalDeleted(uint256)": "3b6d199b",
    "maxProposalCount()": "fb9bf8d4",
    "name()": "06fdde03",
    "numAllowedProposalSubmissions()": "832009af",
    "officialRewardsModule()": "785ddfe5",
    "prompt()": "7c65d711",
    "proposalAddressVotes(uint256,address)": "6e4eb810",
    "proposalAddressesHaveVoted(uint256)": "b323580d",
    "proposalThreshold()": "b58131b0",
    "proposalVotes(uint256)": "544ffc9c",
    "propose(string,bytes32[])": "01cbcdbe",
    "setOfficialRewardsModule(address)": "f4f3d7ec",
    "sortedProposals(bool)": "427d56c2",
    "state()": "c19d93fb",
    "submissionMerkleRoot()": "bddc1641",
    "supportsInterface(bytes4)": "01ffc9a7",
    "verifySubmitter(address,bytes32[])": "8d50dc6b",
    "verifyTotalVotes(address,uint256,bytes32[])": "7d8bfc44",
    "version()": "54fd4d50",
    "voteStart()": "e031535b",
    "votingDelay()": "3932abb1",
    "votingMerkleRoot()": "dd96a19d",
    "votingPeriod()": "02a251a3"
  },
  "id": 19
}