{"abi":[{"type":"constructor","inputs":[{"name":"_name","type":"string","internalType":"string"},{"name":"_prompt","type":"string","internalType":"string"},{"name":"_submissionMerkleRoot","type":"bytes32","internalType":"bytes32"},{"name":"_votingMerkleRoot","type":"bytes32","internalType":"bytes32"},{"name":"_constructorArgs","type":"tuple","internalType":"struct Governor.ConstructorArgs","components":[{"name":"contestStart","type":"uint256","internalType":"uint256"},{"name":"votingDelay","type":"uint256","internalType":"uint256"},{"name":"votingPeriod","type":"uint256","internalType":"uint256"},{"name":"numAllowedProposalSubmissions","type":"uint256","internalType":"uint256"},{"name":"maxProposalCount","type":"uint256","internalType":"uint256"},{"name":"downvotingAllowed","type":"uint256","internalType":"uint256"},{"name":"sortingEnabled","type":"uint256","internalType":"uint256"},{"name":"rankLimit","type":"uint256","internalType":"uint256"},{"name":"percentageToCreator","type":"uint256","internalType":"uint256"},{"name":"costToPropose","type":"uint256","internalType":"uint256"},{"name":"costToVote","type":"uint256","internalType":"uint256"},{"name":"payPerVote","type":"uint256","internalType":"uint256"},{"name":"creatorSplitDestination","type":"address","internalType":"address"}]}],"stateMutability":"nonpayable"},{"type":"function","name":"AMOUNT_FOR_SUMBITTER_PROOF","inputs":[],"outputs":[{"name":"","type":"uint256","internalType":"uint256"}],"stateMutability":"view"},{"type":"function","name":"JK_LABS_ADDRESS","inputs":[],"outputs":[{"name":"","type":"address","internalType":"address"}],"stateMutability":"view"},{"type":"function","name":"METADATAS_COUNT","inputs":[],"outputs":[{"name":"","type":"uint256","internalType":"uint256"}],"stateMutability":"view"},{"type":"function","name":"addressSubmitterVerified","inputs":[{"name":"","type":"address","internalType":"address"}],"outputs":[{"name":"","type":"bool","internalType":"bool"}],"stateMutability":"view"},{"type":"function","name":"addressTotalCastVoteCounts","inputs":[{"name":"","type":"address","internalType":"address"}],"outputs":[{"name":"","type":"uint256","internalType":"uint256"}],"stateMutability":"view"},{"type":"function","name":"addressTotalVotes","inputs":[{"name":"","type":"address","internalType":"address"}],"outputs":[{"name":"","type":"uint256","internalType":"uint256"}],"stateMutability":"view"},{"type":"function","name":"addressTotalVotesVerified","inputs":[{"name":"","type":"address","internalType":"address"}],"outputs":[{"name":"","type":"bool","internalType":"bool"}],"stateMutability":"view"},{"type":"function","name":"addressesThatHaveVoted","inputs":[{"name":"","type":"uint256","internalType":"uint256"}],"outputs":[{"name":"","type":"address","internalType":"address"}],"stateMutability":"view"},{"type":"function","name":"allProposalTotalVotes","inputs":[],"outputs":[{"name":"proposalIdsReturn","type":"uint256[]","internalType":"uint256[]"},{"name":"proposalVoteCountsArrayReturn","type":"tuple[]","internalType":"struct GovernorCountingSimple.VoteCounts[]","components":[{"name":"forVotes","type":"uint256","internalType":"uint256"},{"name":"againstVotes","type":"uint256","internalType":"uint256"}]}],"stateMutability":"view"},{"type":"function","name":"cancel","inputs":[],"outputs":[],"stateMutability":"nonpayable"},{"type":"function","name":"canceled","inputs":[],"outputs":[{"name":"","type":"bool","internalType":"bool"}],"stateMutability":"view"},{"type":"function","name":"castVote","inputs":[{"name":"proposalId","type":"uint256","internalType":"uint256"},{"name":"support","type":"uint8","internalType":"uint8"},{"name":"totalVotes","type":"uint256","internalType":"uint256"},{"name":"numVotes","type":"uint256","internalType":"uint256"},{"name":"proof","type":"bytes32[]","internalType":"bytes32[]"}],"outputs":[{"name":"","type":"uint256","internalType":"uint256"}],"stateMutability":"payable"},{"type":"function","name":"castVoteWithoutProof","inputs":[{"name":"proposalId","type":"uint256","internalType":"uint256"},{"name":"support","type":"uint8","internalType":"uint8"},{"name":"numVotes","type":"uint256","internalType":"uint256"}],"outputs":[{"name":"","type":"uint256","internalType":"uint256"}],"stateMutability":"payable"},{"type":"function","name":"checkProof","inputs":[{"name":"addressToCheck","type":"address","internalType":"address"},{"name":"amount","type":"uint256","internalType":"uint256"},{"name":"proof","type":"bytes32[]","internalType":"bytes32[]"},{"name":"voting","type":"bool","internalType":"bool"}],"outputs":[{"name":"verified","type":"bool","internalType":"bool"}],"stateMutability":"view"},{"type":"function","name":"comment","inputs":[{"name":"proposalId","type":"uint256","internalType":"uint256"},{"name":"commentContent","type":"string","internalType":"string"}],"outputs":[{"name":"","type":"uint256","internalType":"uint256"}],"stateMutability":"nonpayable"},{"type":"function","name":"commentIds","inputs":[{"name":"","type":"uint256","internalType":"uint256"}],"outputs":[{"name":"","type":"uint256","internalType":"uint256"}],"stateMutability":"view"},{"type":"function","name":"commentIsDeleted","inputs":[{"name":"","type":"uint256","internalType":"uint256"}],"outputs":[{"name":"","type":"bool","internalType":"bool"}],"stateMutability":"view"},{"type":"function","name":"comments","inputs":[{"name":"","type":"uint256","internalType":"uint256"}],"outputs":[{"name":"author","type":"address","internalType":"address"},{"name":"timestamp","type":"uint256","internalType":"uint256"},{"name":"proposalId","type":"uint256","internalType":"uint256"},{"name":"commentContent","type":"string","internalType":"string"}],"stateMutability":"view"},{"type":"function","name":"contestAddressTotalVotesCast","inputs":[{"name":"userAddress","type":"address","internalType":"address"}],"outputs":[{"name":"userTotalVotesCast","type":"uint256","internalType":"uint256"}],"stateMutability":"view"},{"type":"function","name":"contestDeadline","inputs":[],"outputs":[{"name":"","type":"uint256","internalType":"uint256"}],"stateMutability":"view"},{"type":"function","name":"contestStart","inputs":[],"outputs":[{"name":"","type":"uint256","internalType":"uint256"}],"stateMutability":"view"},{"type":"function","name":"costToPropose","inputs":[],"outputs":[{"name":"","type":"uint256","internalType":"uint256"}],"stateMutability":"view"},{"type":"function","name":"costToVote","inputs":[],"outputs":[{"name":"","type":"uint256","internalType":"uint256"}],"stateMutability":"view"},{"type":"function","name":"creator","inputs":[],"outputs":[{"name":"","type":"address","internalType":"address"}],"stateMutability":"view"},{"type":"function","name":"creatorSplitDestination","inputs":[],"outputs":[{"name":"","type":"address","internalType":"address"}],"stateMutability":"view"},{"type":"function","name":"deleteComments","inputs":[{"name":"commentIdsParam","type":"uint256[]","internalType":"uint256[]"}],"outputs":[],"stateMutability":"nonpayable"},{"type":"function","name":"deleteProposals","inputs":[{"name":"proposalIdsToDelete","type":"uint256[]","internalType":"uint256[]"}],"outputs":[],"stateMutability":"nonpayable"},{"type":"function","name":"deletedCommentIds","inputs":[{"name":"","type":"uint256","internalType":"uint256"}],"outputs":[{"name":"","type":"uint256","internalType":"uint256"}],"stateMutability":"view"},{"type":"function","name":"deletedProposalIds","inputs":[{"name":"","type":"uint256","internalType":"uint256"}],"outputs":[{"name":"","type":"uint256","internalType":"uint256"}],"stateMutability":"view"},{"type":"function","name":"downvotingAllowed","inputs":[],"outputs":[{"name":"","type":"uint256","internalType":"uint256"}],"stateMutability":"view"},{"type":"function","name":"forVotesToProposalIds","inputs":[{"name":"","type":"uint256","internalType":"uint256"},{"name":"","type":"uint256","internalType":"uint256"}],"outputs":[{"name":"","type":"uint256","internalType":"uint256"}],"stateMutability":"view"},{"type":"function","name":"getAllAddressesThatHaveVoted","inputs":[],"outputs":[{"name":"","type":"address[]","internalType":"address[]"}],"stateMutability":"view"},{"type":"function","name":"getAllAuthorsOfDeletedProposals","inputs":[],"outputs":[{"name":"","type":"address[]","internalType":"address[]"}],"stateMutability":"view"},{"type":"function","name":"getAllCommentIds","inputs":[],"outputs":[{"name":"","type":"uint256[]","internalType":"uint256[]"}],"stateMutability":"view"},{"type":"function","name":"getAllDeletedCommentIds","inputs":[],"outputs":[{"name":"","type":"uint256[]","internalType":"uint256[]"}],"stateMutability":"view"},{"type":"function","name":"getAllDeletedProposalIds","inputs":[],"outputs":[{"name":"","type":"uint256[]","internalType":"uint256[]"}],"stateMutability":"view"},{"type":"function","name":"getAllProposalAuthors","inputs":[],"outputs":[{"name":"","type":"address[]","internalType":"address[]"}],"stateMutability":"view"},{"type":"function","name":"getAllProposalIds","inputs":[],"outputs":[{"name":"","type":"uint256[]","internalType":"uint256[]"}],"stateMutability":"view"},{"type":"function","name":"getComment","inputs":[{"name":"commentId","type":"uint256","internalType":"uint256"}],"outputs":[{"name":"","type":"tuple","internalType":"struct GovernorEngagement.CommentCore","components":[{"name":"author","type":"address","internalType":"address"},{"name":"timestamp","type":"uint256","internalType":"uint256"},{"name":"proposalId","type":"uint256","internalType":"uint256"},{"name":"commentContent","type":"string","internalType":"string"}]}],"stateMutability":"view"},{"type":"function","name":"getNumProposalsWithThisManyForVotes","inputs":[{"name":"forVotes","type":"uint256","internalType":"uint256"}],"outputs":[{"name":"count","type":"uint256","internalType":"uint256"}],"stateMutability":"view"},{"type":"function","name":"getOnlyProposalIdWithThisManyForVotes","inputs":[{"name":"forVotes","type":"uint256","internalType":"uint256"}],"outputs":[{"name":"proposalId","type":"uint256","internalType":"uint256"}],"stateMutability":"view"},{"type":"function","name":"getProposal","inputs":[{"name":"proposalId","type":"uint256","internalType":"uint256"}],"outputs":[{"name":"","type":"tuple","internalType":"struct Governor.ProposalCore","components":[{"name":"author","type":"address","internalType":"address"},{"name":"exists","type":"bool","internalType":"bool"},{"name":"description","type":"string","internalType":"string"},{"name":"targetMetadata","type":"tuple","internalType":"struct Governor.TargetMetadata","components":[{"name":"targetAddress","type":"address","internalType":"address"}]},{"name":"safeMetadata","type":"tuple","internalType":"struct Governor.SafeMetadata","components":[{"name":"signers","type":"address[]","internalType":"address[]"},{"name":"threshold","type":"uint256","internalType":"uint256"}]}]}],"stateMutability":"view"},{"type":"function","name":"getProposalComments","inputs":[{"name":"proposalId","type":"uint256","internalType":"uint256"}],"outputs":[{"name":"","type":"uint256[]","internalType":"uint256[]"}],"stateMutability":"view"},{"type":"function","name":"getProposalsWithThisManyForVotes","inputs":[{"name":"forVotes","type":"uint256","internalType":"uint256"}],"outputs":[{"name":"proposalsWithThisManyForVotes","type":"uint256[]","internalType":"uint256[]"}],"stateMutability":"view"},{"type":"function","name":"getRankIndex","inputs":[{"name":"rank","type":"uint256","internalType":"uint256"}],"outputs":[{"name":"rankIndex","type":"uint256","internalType":"uint256"}],"stateMutability":"view"},{"type":"function","name":"getSortedRanks","inputs":[],"outputs":[{"name":"sortedRanksArray","type":"uint256[]","internalType":"uint256[]"}],"stateMutability":"view"},{"type":"function","name":"hashComment","inputs":[{"name":"commentObj","type":"tuple","internalType":"struct GovernorEngagement.CommentCore","components":[{"name":"author","type":"address","internalType":"address"},{"name":"timestamp","type":"uint256","internalType":"uint256"},{"name":"proposalId","type":"uint256","internalType":"uint256"},{"name":"commentContent","type":"string","internalType":"string"}]}],"outputs":[{"name":"","type":"uint256","internalType":"uint256"}],"stateMutability":"pure"},{"type":"function","name":"hashProposal","inputs":[{"name":"proposal","type":"tuple","internalType":"struct Governor.ProposalCore","components":[{"name":"author","type":"address","internalType":"address"},{"name":"exists","type":"bool","internalType":"bool"},{"name":"description","type":"string","internalType":"string"},{"name":"targetMetadata","type":"tuple","internalType":"struct Governor.TargetMetadata","components":[{"name":"targetAddress","type":"address","internalType":"address"}]},{"name":"safeMetadata","type":"tuple","internalType":"struct Governor.SafeMetadata","components":[{"name":"signers","type":"address[]","internalType":"address[]"},{"name":"threshold","type":"uint256","internalType":"uint256"}]}]}],"outputs":[{"name":"","type":"uint256","internalType":"uint256"}],"stateMutability":"pure"},{"type":"function","name":"isOrIsBelowTiedRank","inputs":[{"name":"idx","type":"uint256","internalType":"uint256"}],"outputs":[{"name":"atOrBelowTiedRank","type":"bool","internalType":"bool"}],"stateMutability":"view"},{"type":"function","name":"maxProposalCount","inputs":[],"outputs":[{"name":"","type":"uint256","internalType":"uint256"}],"stateMutability":"view"},{"type":"function","name":"name","inputs":[],"outputs":[{"name":"","type":"string","internalType":"string"}],"stateMutability":"view"},{"type":"function","name":"numAllowedProposalSubmissions","inputs":[],"outputs":[{"name":"","type":"uint256","internalType":"uint256"}],"stateMutability":"view"},{"type":"function","name":"numSubmissions","inputs":[{"name":"","type":"address","internalType":"address"}],"outputs":[{"name":"","type":"uint256","internalType":"uint256"}],"stateMutability":"view"},{"type":"function","name":"officialRewardsModule","inputs":[],"outputs":[{"name":"","type":"address","internalType":"contract RewardsModule"}],"stateMutability":"view"},{"type":"function","name":"payPerVote","inputs":[],"outputs":[{"name":"","type":"uint256","internalType":"uint256"}],"stateMutability":"view"},{"type":"function","name":"percentageToCreator","inputs":[],"outputs":[{"name":"","type":"uint256","internalType":"uint256"}],"stateMutability":"view"},{"type":"function","name":"prompt","inputs":[],"outputs":[{"name":"","type":"string","internalType":"string"}],"stateMutability":"view"},{"type":"function","name":"proposalAddressVotes","inputs":[{"name":"proposalId","type":"uint256","internalType":"uint256"},{"name":"userAddress","type":"address","internalType":"address"}],"outputs":[{"name":"forVotes","type":"uint256","internalType":"uint256"},{"name":"againstVotes","type":"uint256","internalType":"uint256"}],"stateMutability":"view"},{"type":"function","name":"proposalAddressesHaveVoted","inputs":[{"name":"proposalId","type":"uint256","internalType":"uint256"}],"outputs":[{"name":"","type":"address[]","internalType":"address[]"}],"stateMutability":"view"},{"type":"function","name":"proposalAuthors","inputs":[{"name":"","type":"uint256","internalType":"uint256"}],"outputs":[{"name":"","type":"address","internalType":"address"}],"stateMutability":"view"},{"type":"function","name":"proposalComments","inputs":[{"name":"","type":"uint256","internalType":"uint256"},{"name":"","type":"uint256","internalType":"uint256"}],"outputs":[{"name":"","type":"uint256","internalType":"uint256"}],"stateMutability":"view"},{"type":"function","name":"proposalIds","inputs":[{"name":"","type":"uint256","internalType":"uint256"}],"outputs":[{"name":"","type":"uint256","internalType":"uint256"}],"stateMutability":"view"},{"type":"function","name":"proposalIsDeleted","inputs":[{"name":"","type":"uint256","internalType":"uint256"}],"outputs":[{"name":"","type":"bool","internalType":"bool"}],"stateMutability":"view"},{"type":"function","name":"proposalVotes","inputs":[{"name":"proposalId","type":"uint256","internalType":"uint256"}],"outputs":[{"name":"forVotes","type":"uint256","internalType":"uint256"},{"name":"againstVotes","type":"uint256","internalType":"uint256"}],"stateMutability":"view"},{"type":"function","name":"proposalVotesStructs","inputs":[{"name":"","type":"uint256","internalType":"uint256"}],"outputs":[{"name":"proposalVoteCounts","type":"tuple","internalType":"struct GovernorCountingSimple.VoteCounts","components":[{"name":"forVotes","type":"uint256","internalType":"uint256"},{"name":"againstVotes","type":"uint256","internalType":"uint256"}]}],"stateMutability":"view"},{"type":"function","name":"proposals","inputs":[{"name":"","type":"uint256","internalType":"uint256"}],"outputs":[{"name":"author","type":"address","internalType":"address"},{"name":"exists","type":"bool","internalType":"bool"},{"name":"description","type":"string","internalType":"string"},{"name":"targetMetadata","type":"tuple","internalType":"struct Governor.TargetMetadata","components":[{"name":"targetAddress","type":"address","internalType":"address"}]},{"name":"safeMetadata","type":"tuple","internalType":"struct Governor.SafeMetadata","components":[{"name":"signers","type":"address[]","internalType":"address[]"},{"name":"threshold","type":"uint256","internalType":"uint256"}]}],"stateMutability":"view"},{"type":"function","name":"propose","inputs":[{"name":"proposal","type":"tuple","internalType":"struct Governor.ProposalCore","components":[{"name":"author","type":"address","internalType":"address"},{"name":"exists","type":"bool","internalType":"bool"},{"name":"description","type":"string","internalType":"string"},{"name":"targetMetadata","type":"tuple","internalType":"struct Governor.TargetMetadata","components":[{"name":"targetAddress","type":"address","internalType":"address"}]},{"name":"safeMetadata","type":"tuple","internalType":"struct Governor.SafeMetadata","components":[{"name":"signers","type":"address[]","internalType":"address[]"},{"name":"threshold","type":"uint256","internalType":"uint256"}]}]},{"name":"proof","type":"bytes32[]","internalType":"bytes32[]"}],"outputs":[{"name":"","type":"uint256","internalType":"uint256"}],"stateMutability":"payable"},{"type":"function","name":"proposeWithoutProof","inputs":[{"name":"proposal","type":"tuple","internalType":"struct Governor.ProposalCore","components":[{"name":"author","type":"address","internalType":"address"},{"name":"exists","type":"bool","internalType":"bool"},{"name":"description","type":"string","internalType":"string"},{"name":"targetMetadata","type":"tuple","internalType":"struct Governor.TargetMetadata","components":[{"name":"targetAddress","type":"address","internalType":"address"}]},{"name":"safeMetadata","type":"tuple","internalType":"struct Governor.SafeMetadata","components":[{"name":"signers","type":"address[]","internalType":"address[]"},{"name":"threshold","type":"uint256","internalType":"uint256"}]}]}],"outputs":[{"name":"","type":"uint256","internalType":"uint256"}],"stateMutability":"payable"},{"type":"function","name":"rankLimit","inputs":[],"outputs":[{"name":"","type":"uint256","internalType":"uint256"}],"stateMutability":"view"},{"type":"function","name":"setCreatorSplitDestination","inputs":[{"name":"newCreatorSplitDestination","type":"address","internalType":"address"}],"outputs":[],"stateMutability":"nonpayable"},{"type":"function","name":"setOfficialRewardsModule","inputs":[{"name":"officialRewardsModule_","type":"address","internalType":"contract RewardsModule"}],"outputs":[],"stateMutability":"nonpayable"},{"type":"function","name":"setSubmissionMerkleRoot","inputs":[{"name":"newSubmissionMerkleRoot","type":"bytes32","internalType":"bytes32"}],"outputs":[],"stateMutability":"nonpayable"},{"type":"function","name":"setVotingMerkleRoot","inputs":[{"name":"newVotingMerkleRoot","type":"bytes32","internalType":"bytes32"}],"outputs":[],"stateMutability":"nonpayable"},{"type":"function","name":"sortedRanks","inputs":[{"name":"","type":"uint256","internalType":"uint256"}],"outputs":[{"name":"","type":"uint256","internalType":"uint256"}],"stateMutability":"view"},{"type":"function","name":"sortingEnabled","inputs":[],"outputs":[{"name":"","type":"uint256","internalType":"uint256"}],"stateMutability":"view"},{"type":"function","name":"state","inputs":[],"outputs":[{"name":"","type":"uint8","internalType":"enum Governor.ContestState"}],"stateMutability":"view"},{"type":"function","name":"submissionMerkleRoot","inputs":[],"outputs":[{"name":"","type":"bytes32","internalType":"bytes32"}],"stateMutability":"view"},{"type":"function","name":"totalVotesCast","inputs":[],"outputs":[{"name":"","type":"uint256","internalType":"uint256"}],"stateMutability":"view"},{"type":"function","name":"validateProposalData","inputs":[{"name":"proposal","type":"tuple","internalType":"struct Governor.ProposalCore","components":[{"name":"author","type":"address","internalType":"address"},{"name":"exists","type":"bool","internalType":"bool"},{"name":"description","type":"string","internalType":"string"},{"name":"targetMetadata","type":"tuple","internalType":"struct Governor.TargetMetadata","components":[{"name":"targetAddress","type":"address","internalType":"address"}]},{"name":"safeMetadata","type":"tuple","internalType":"struct Governor.SafeMetadata","components":[{"name":"signers","type":"address[]","internalType":"address[]"},{"name":"threshold","type":"uint256","internalType":"uint256"}]}]}],"outputs":[],"stateMutability":"view"},{"type":"function","name":"verifyProposer","inputs":[{"name":"account","type":"address","internalType":"address"},{"name":"proof","type":"bytes32[]","internalType":"bytes32[]"}],"outputs":[],"stateMutability":"nonpayable"},{"type":"function","name":"verifyVoter","inputs":[{"name":"account","type":"address","internalType":"address"},{"name":"totalVotes","type":"uint256","internalType":"uint256"},{"name":"proof","type":"bytes32[]","internalType":"bytes32[]"}],"outputs":[],"stateMutability":"nonpayable"},{"type":"function","name":"version","inputs":[],"outputs":[{"name":"","type":"string","internalType":"string"}],"stateMutability":"pure"},{"type":"function","name":"voteStart","inputs":[],"outputs":[{"name":"","type":"uint256","internalType":"uint256"}],"stateMutability":"view"},{"type":"function","name":"votingDelay","inputs":[],"outputs":[{"name":"","type":"uint256","internalType":"uint256"}],"stateMutability":"view"},{"type":"function","name":"votingMerkleRoot","inputs":[],"outputs":[{"name":"","type":"bytes32","internalType":"bytes32"}],"stateMutability":"view"},{"type":"function","name":"votingPeriod","inputs":[],"outputs":[{"name":"","type":"uint256","internalType":"uint256"}],"stateMutability":"view"},{"type":"event","name":"CommentCreated","inputs":[{"name":"commentId","type":"uint256","indexed":false,"internalType":"uint256"}],"anonymous":false},{"type":"event","name":"CommentsDeleted","inputs":[{"name":"commentIds","type":"uint256[]","indexed":false,"internalType":"uint256[]"}],"anonymous":false},{"type":"event","name":"ContestCanceled","inputs":[],"anonymous":false},{"type":"event","name":"JokeraceCreated","inputs":[{"name":"version","type":"string","indexed":false,"internalType":"string"},{"name":"name","type":"string","indexed":false,"internalType":"string"},{"name":"prompt","type":"string","indexed":false,"internalType":"string"},{"name":"creator","type":"address","indexed":false,"internalType":"address"},{"name":"contestStart","type":"uint256","indexed":false,"internalType":"uint256"},{"name":"votingDelay","type":"uint256","indexed":false,"internalType":"uint256"},{"name":"votingPeriod","type":"uint256","indexed":false,"internalType":"uint256"}],"anonymous":false},{"type":"event","name":"OfficialRewardsModuleSet","inputs":[{"name":"oldOfficialRewardsModule","type":"address","indexed":false,"internalType":"contract RewardsModule"},{"name":"newOfficialRewardsModule","type":"address","indexed":false,"internalType":"contract RewardsModule"}],"anonymous":false},{"type":"event","name":"PaymentReleased","inputs":[{"name":"to","type":"address","indexed":false,"internalType":"address"},{"name":"amount","type":"uint256","indexed":false,"internalType":"uint256"}],"anonymous":false},{"type":"event","name":"ProposalCreated","inputs":[{"name":"proposalId","type":"uint256","indexed":false,"internalType":"uint256"},{"name":"proposer","type":"address","indexed":false,"internalType":"address"},{"name":"proposalDescription","type":"string","indexed":false,"internalType":"string"}],"anonymous":false},{"type":"event","name":"ProposalsDeleted","inputs":[{"name":"proposalIds","type":"uint256[]","indexed":false,"internalType":"uint256[]"}],"anonymous":false},{"type":"event","name":"VoteCast","inputs":[{"name":"voter","type":"address","indexed":true,"internalType":"address"},{"name":"proposalId","type":"uint256","indexed":false,"internalType":"uint256"},{"name":"support","type":"uint8","indexed":false,"internalType":"uint8"},{"name":"numVotes","type":"uint256","indexed":false,"internalType":"uint256"}],"anonymous":false},{"type":"error","name":"AddressNotPermissionedToSubmit","inputs":[]},{"type":"error","name":"AuthorIsNotSender","inputs":[{"name":"author","type":"address","internalType":"address"},{"name":"sender","type":"address","internalType":"address"}]},{"type":"error","name":"CannotDeleteWhenCompleted","inputs":[]},{"type":"error","name":"CannotUpdateAfterCompleted","inputs":[]},{"type":"error","name":"CannotVoteLessThanOneVoteInPayPerVote","inputs":[]},{"type":"error","name":"CannotVoteOnDeletedProposal","inputs":[]},{"type":"error","name":"ContestAlreadyCancelled","inputs":[]},{"type":"error","name":"ContestMustBeActiveToVote","inputs":[{"name":"currentState","type":"uint8","internalType":"enum Governor.ContestState"}]},{"type":"error","name":"ContestMustBeQueuedToPropose","inputs":[{"name":"currentState","type":"uint8","internalType":"enum Governor.ContestState"}]},{"type":"error","name":"ContestSubmissionLimitReached","inputs":[{"name":"maxProposalCount","type":"uint256","internalType":"uint256"}]},{"type":"error","name":"DownvotingNotEnabled","inputs":[]},{"type":"error","name":"DuplicateSubmission","inputs":[{"name":"proposalId","type":"uint256","internalType":"uint256"}]},{"type":"error","name":"EmptyProposalDescription","inputs":[]},{"type":"error","name":"IncorrectCostSent","inputs":[{"name":"msgValue","type":"uint256","internalType":"uint256"},{"name":"costToVote","type":"uint256","internalType":"uint256"}]},{"type":"error","name":"IndexHasNotBeenPopulated","inputs":[]},{"type":"error","name":"InvalidVoteType","inputs":[]},{"type":"error","name":"MoreThanOneProposalWithThisManyVotes","inputs":[]},{"type":"error","name":"NeedAtLeastOneVoteToVote","inputs":[]},{"type":"error","name":"NeedToSubmitWithProofFirst","inputs":[]},{"type":"error","name":"NeedToVoteWithProofFirst","inputs":[]},{"type":"error","name":"NotEnoughVotesLeft","inputs":[]},{"type":"error","name":"NotInMerkle","inputs":[]},{"type":"error","name":"OnlyCreatorCanAmend","inputs":[]},{"type":"error","name":"OnlyCreatorCanDelete","inputs":[]},{"type":"error","name":"OnlyCreatorCanSetRewardsModule","inputs":[]},{"type":"error","name":"OnlyCreatorOrAuthorCanDeleteComments","inputs":[{"name":"failedToDeleteCommentId","type":"uint256","internalType":"uint256"}]},{"type":"error","name":"OnlyJkLabsCanAmend","inputs":[]},{"type":"error","name":"OnlyJkLabsOrCreatorCanCancel","inputs":[]},{"type":"error","name":"PayPerVoteMustBeEnabledForAnyoneCanVote","inputs":[]},{"type":"error","name":"RankCannotBeZero","inputs":[]},{"type":"error","name":"RankIsNotInSortedRanks","inputs":[]},{"type":"error","name":"SenderSubmissionLimitReached","inputs":[{"name":"numAllowedProposalSubmissions","type":"uint256","internalType":"uint256"}]},{"type":"error","name":"SortingAndDownvotingCannotBothBeEnabled","inputs":[]},{"type":"error","name":"UnexpectedMetadata","inputs":[{"name":"unexpectedMetadata","type":"uint8","internalType":"enum Governor.Metadatas"}]},{"type":"error","name":"ZeroSignersInSafeMetadata","inputs":[]},{"type":"error","name":"ZeroThresholdInSafeMetadata","inputs":[]}],"bytecode":{"object":"0x60806040523480156200001157600080fd5b5060405162004d7738038062004d778339810160408190526200003491620002e6565b60c081015160e0820151600091909155600155600383905560048290558484826005620000628482620004b1565b506006620000718382620004b1565b5060078054336001600160a01b0319918216811790925582516008556020808401805160095560408086018051600a556060870151600b556080870151600c5560a0870151600d55610100870151600e55610120870151600f55610140870151601055610160870151601155610180870151601280549096166001600160a01b0390911617909455805180820182526004815263342e323960e01b9381019390935285519151935190517f9a9bca21e4e51607db64fbdbcd7b2284a909c6a8969821f0d161efbdcae701609562000151958a948a949293909290620005ab565b60405180910390a15050508060c0015160011480156200017557508060a001516001145b156200019457604051636bff10c960e01b815260040160405180910390fd5b81158015620001a65750610160810151155b15620001c5576040516397b6be7d60e01b815260040160405180910390fd5b50505050506200061a565b634e487b7160e01b600052604160045260246000fd5b6040516101a081016001600160401b03811182821017156200020c576200020c620001d0565b60405290565b60005b838110156200022f57818101518382015260200162000215565b50506000910152565b600082601f8301126200024a57600080fd5b81516001600160401b0380821115620002675762000267620001d0565b604051601f8301601f19908116603f01168101908282118183101715620002925762000292620001d0565b81604052838152866020858801011115620002ac57600080fd5b620002bf84602083016020890162000212565b9695505050505050565b80516001600160a01b0381168114620002e157600080fd5b919050565b60008060008060008587036102208112156200030157600080fd5b86516001600160401b03808211156200031957600080fd5b620003278a838b0162000238565b975060208901519150808211156200033e57600080fd5b506200034d89828a0162000238565b95505060408701519350606087015192506101a080607f19830112156200037357600080fd5b6200037d620001e6565b91506080880151825260a0880151602083015260c0880151604083015260e08801516060830152610100808901516080840152610120808a015160a0850152610140808b015160c0860152610160808c015160e0870152610180808d015185880152858d0151848801526101c08d0151838801526101e08d0151828801526200040a6102008e01620002c9565b81880152505050505050809150509295509295909350565b600181811c908216806200043757607f821691505b6020821081036200045857634e487b7160e01b600052602260045260246000fd5b50919050565b601f821115620004ac57600081815260208120601f850160051c81016020861015620004875750805b601f850160051c820191505b81811015620004a85782815560010162000493565b5050505b505050565b81516001600160401b03811115620004cd57620004cd620001d0565b620004e581620004de845462000422565b846200045e565b602080601f8311600181146200051d5760008415620005045750858301515b600019600386901b1c1916600185901b178555620004a8565b600085815260208120601f198616915b828110156200054e578886015182559484019460019091019084016200052d565b50858210156200056d5787850151600019600388901b60f8161c191681555b5050505050600190811b01905550565b600081518084526200059781602086016020860162000212565b601f01601f19169290920160200192915050565b60e081526000620005c060e083018a6200057d565b8281036020840152620005d4818a6200057d565b90508281036040840152620005ea81896200057d565b6001600160a01b039790971660608401525050608081019390935260a083019190915260c0909101529392505050565b61474d806200062a6000396000f3fe6080604052600436106104b45760003560e01c80636fd3636b1161026b578063c0ffaa781161014f578063ea8a1af0116100c1578063f4f3d7ec11610085578063f4f3d7ec14610ee0578063f5c3641114610f00578063f61736f414610f20578063f79c017214610f40578063fb8ddab414610f70578063fb9bf8d414610f9057600080fd5b8063ea8a1af014610e58578063edcd1be414610e6d578063eef18e1714610e83578063efa90d3614610eab578063f0a7db0a14610ec057600080fd5b8063cbdc27cb11610113578063cbdc27cb14610db6578063daf762db14610dcb578063dd96a19d14610deb578063dea5f6a614610e01578063e031535b14610e2e578063e11db9d814610e4357600080fd5b8063c0ffaa7814610d04578063c19d93fb14610d17578063c7f758a814610d39578063c9a1b6b214610d66578063cb85395014610d8657600080fd5b8063946369b5116101e8578063ae66b8ad116101ac578063ae66b8ad14610c28578063aec116b614610c58578063b323580d14610c8e578063b66d1da314610cae578063bddc164114610cce578063c05f410414610ce457600080fd5b8063946369b514610b795780639b644a2314610b8e5780639ba197af14610bae578063a1ac6cb214610bdb578063ac67f80114610c0857600080fd5b80637de418d51161022f5780637de418d514610acd578063832009af14610ae35780638ebb4c1514610af95780639174778c14610b29578063930de97914610b4957600080fd5b80636fd3636b14610a36578063711effc814610a4b57806375e509c514610a6b578063785ddfe514610a985780637c65d71114610ab857600080fd5b80633932abb11161039d57806351a41dec1161030f5780635c7107d8116102d35780635c7107d8146109a25780635cb718a1146109c257806360506ff6146109d757806365f16263146109ed5780636e4eb81014610a005780636ed815ad14610a2057600080fd5b806351a41dec146108d6578063531bd812146108ec578063544c7bb41461090c578063544ffc9c1461092c57806354fd4d501461097557600080fd5b8063458da87d11610361578063458da87d1461082b578063476f4d8a1461084b5780634a587ad41461085e5780634d24a67f1461087e57806350a5e5241461089357806350c4b616146108b657600080fd5b80633932abb1146107a85780633f9942ff146107be5780633fb57c92146107d8578063409fd030146107f8578063419c533c1461081857600080fd5b80630aa25e4411610436578063262e59e9116103fa578063262e59e9146106ef5780632c39805f14610704578063325cc6d91461072657806332763c2214610746578063347cf66514610776578063366ecf5b1461079257600080fd5b80630aa25e441461064b5780631242b7371461066b578063146230f61461068d5780631805c523146106af57806320b3e845146106cf57600080fd5b80630414126a1161047d5780630414126a1461057757806305846cae1461058d57806306fdde03146105ad578063070dc5d9146105cf5780630800e3001461061e57600080fd5b80624114a8146104b9578063013cf08b146104e257806302a251a31461051357806302d05d3f1461052957806303f7eed614610561575b600080fd5b3480156104c557600080fd5b506104cf60085481565b6040519081526020015b60405180910390f35b3480156104ee57600080fd5b506105026104fd366004613939565b610fa6565b6040516104d99594939291906139f1565b34801561051f57600080fd5b506104cf600a5481565b34801561053557600080fd5b50600754610549906001600160a01b031681565b6040516001600160a01b0390911681526020016104d9565b34801561056d57600080fd5b506104cf60115481565b34801561058357600080fd5b506104cf60015481565b34801561059957600080fd5b506104cf6105a8366004613939565b6110ee565b3480156105b957600080fd5b506105c261110f565b6040516104d99190613a43565b3480156105db57600080fd5b506106116105ea366004613939565b60208080526000918252604091829020825180840190935280548352600101549082015281565b6040516104d99190613a56565b34801561062a57600080fd5b5061063e610639366004613939565b61119d565b6040516104d99190613a6d565b34801561065757600080fd5b50610549610666366004613939565b6112b1565b34801561067757600080fd5b506106806112db565b6040516104d99190613af1565b34801561069957600080fd5b506106ad6106a8366004613b19565b611333565b005b3480156106bb57600080fd5b506104cf6106ca366004613c57565b6113b9565b3480156106db57600080fd5b506106ad6106ea366004613ce1565b6114da565b3480156106fb57600080fd5b506104cf611549565b34801561071057600080fd5b50610719611565565b6040516104d99190613d35565b34801561073257600080fd5b506104cf610741366004613939565b6115c6565b34801561075257600080fd5b50610766610761366004613d97565b6115d6565b60405190151581526020016104d9565b34801561078257600080fd5b506104cf678ac7230489e8000081565b34801561079e57600080fd5b506104cf60005481565b3480156107b457600080fd5b506104cf60095481565b3480156107ca57600080fd5b506016546107669060ff1681565b3480156107e457600080fd5b506104cf6107f3366004613939565b6116d5565b34801561080457600080fd5b506104cf610813366004613e07565b6116e5565b6104cf610826366004613ec3565b611716565b34801561083757600080fd5b506104cf6108463660046140d2565b611784565b6104cf61085936600461411e565b611797565b34801561086a57600080fd5b50601254610549906001600160a01b031681565b34801561088a57600080fd5b506104cf611811565b34801561089f57600080fd5b506108a861181f565b6040516104d9929190614152565b3480156108c257600080fd5b506105496108d1366004613939565b611925565b3480156108e257600080fd5b506104cf60105481565b3480156108f857600080fd5b506106ad6109073660046141bb565b611935565b34801561091857600080fd5b506106ad610927366004613939565b6119aa565b34801561093857600080fd5b50610960610947366004613939565b6000908152602080526040902080546001909101549091565b604080519283526020830191909152016104d9565b34801561098157600080fd5b50604080518082019091526004815263342e323960e01b60208201526105c2565b3480156109ae57600080fd5b506104cf6109bd366004613939565b611a1c565b3480156109ce57600080fd5b50610680611b23565b3480156109e357600080fd5b506104cf600d5481565b6104cf6109fb366004614216565b611b79565b348015610a0c57600080fd5b50610960610a1b36600461424b565b611c17565b348015610a2c57600080fd5b506104cf600f5481565b348015610a4257600080fd5b50610680611c4a565b348015610a5757600080fd5b506104cf610a6636600461427b565b611ca0565b348015610a7757600080fd5b506104cf610a86366004613b19565b60186020526000908152604090205481565b348015610aa457600080fd5b50602254610549906001600160a01b031681565b348015610ac457600080fd5b506105c2611cd1565b348015610ad957600080fd5b506104cf601e5481565b348015610aef57600080fd5b506104cf600b5481565b348015610b0557600080fd5b50610b19610b14366004613939565b611cde565b6040516104d9949392919061429d565b348015610b3557600080fd5b50610766610b44366004613939565b611d9b565b348015610b5557600080fd5b50610766610b64366004613b19565b601c6020526000908152604090205460ff1681565b348015610b8557600080fd5b50610719611e41565b348015610b9a57600080fd5b506104cf610ba9366004613939565b611ea1565b348015610bba57600080fd5b506104cf610bc9366004613939565b60009081526021602052604090205490565b348015610be757600080fd5b506104cf610bf6366004613b19565b601f6020526000908152604090205481565b348015610c1457600080fd5b506106ad610c233660046142d4565b611eb1565b348015610c3457600080fd5b50610766610c43366004613939565b60276020526000908152604090205460ff1681565b348015610c6457600080fd5b506104cf610c73366004613b19565b6001600160a01b03166000908152601f602052604090205490565b348015610c9a57600080fd5b50610719610ca9366004613939565b611feb565b348015610cba57600080fd5b506104cf610cc9366004613939565b61205b565b348015610cda57600080fd5b506104cf60035481565b348015610cf057600080fd5b50610680610cff366004613939565b6120bb565b6104cf610d12366004614364565b61211d565b348015610d2357600080fd5b50610d2c61215d565b6040516104d991906143d5565b348015610d4557600080fd5b50610d59610d54366004613939565b6121ae565b6040516104d991906143ef565b348015610d7257600080fd5b50610680610d81366004613939565b612328565b348015610d9257600080fd5b50610766610da1366004613b19565b601d6020526000908152604090205460ff1681565b348015610dc257600080fd5b50610719612388565b348015610dd757600080fd5b506106ad610de6366004613939565b6124b8565b348015610df757600080fd5b506104cf60045481565b348015610e0d57600080fd5b506104cf610e1c366004613b19565b601b6020526000908152604090205481565b348015610e3a57600080fd5b506104cf61252a565b348015610e4f57600080fd5b5061068061253c565b348015610e6457600080fd5b506106ad612592565b348015610e7957600080fd5b506104cf600e5481565b348015610e8f57600080fd5b5061054973dc652c746a8f85e18ce632d97c6118e8a52fa73881565b348015610eb757600080fd5b50610680612656565b348015610ecc57600080fd5b506106ad610edb366004614456565b6126ac565b348015610eec57600080fd5b506106ad610efb366004613b19565b612807565b348015610f0c57600080fd5b506104cf610f1b366004613939565b61288c565b348015610f2c57600080fd5b506104cf610f3b36600461427b565b61289c565b348015610f4c57600080fd5b50610766610f5b366004613939565b60156020526000908152604090205460ff1681565b348015610f7c57600080fd5b506106ad610f8b3660046140d2565b6128b8565b348015610f9c57600080fd5b506104cf600c5481565b601760205260009081526040902080546001820180546001600160a01b03831693600160a01b90930460ff16929190610fde90614497565b80601f016020809104026020016040519081016040528092919081815260200182805461100a90614497565b80156110575780601f1061102c57610100808354040283529160200191611057565b820191906000526020600020905b81548152906001019060200180831161103a57829003601f168201915b5050604080516020808201835260028801546001600160a01b0316825282516003890180546060938102830184018652948201858152989993989397509095509350849284918401828280156110d657602002820191906000526020600020905b81546001600160a01b031681526001909101906020018083116110b8575b50505050508152602001600182015481525050905085565b601481815481106110fe57600080fd5b600091825260209091200154905081565b6005805461111c90614497565b80601f016020809104026020016040519081016040528092919081815260200182805461114890614497565b80156111955780601f1061116a57610100808354040283529160200191611195565b820191906000526020600020905b81548152906001019060200180831161117857829003601f168201915b505050505081565b6111d1604051806080016040528060006001600160a01b031681526020016000815260200160008152602001606081525090565b600082815260256020908152604091829020825160808101845281546001600160a01b0316815260018201549281019290925260028101549282019290925260038201805491929160608401919061122890614497565b80601f016020809104026020016040519081016040528092919081815260200182805461125490614497565b80156112a15780601f10611276576101008083540402835291602001916112a1565b820191906000526020600020905b81548152906001019060200180831161128457829003601f168201915b5050505050815250509050919050565b601981815481106112c157600080fd5b6000918252602090912001546001600160a01b0316905081565b6060601480548060200260200160405190810160405280929190818152602001828054801561132957602002820191906000526020600020905b815481526020019060010190808311611315575b5050505050905090565b6007546001600160a01b0316331461135e5760405163141dbb4960e21b815260040160405180910390fd5b600461136861215d565b6004811115611379576113796143bf565b036113975760405163ac61508760e01b815260040160405180910390fd5b601280546001600160a01b0319166001600160a01b0392909216919091179055565b6040805160808101825233815242602082015290810183905260608101829052600090816113e6826116e5565b6023805460018082019092557fd57b2b5166478fd4318d2acc6cc2c704584312bdd8781b32d5d06abda57f423001829055600082815260256020908152604091829020865181546001600160a01b0319166001600160a01b03909116178155908601519281019290925584015160028201556060840151919250839160038201906114719082614519565b505050600085815260266020908152604080832080546001810182559084529190922001829055517f5a1a930fed43f34b3a07db782ebcac28a661c273e662bb98458cfba5a8ccd220906114c89083815260200190565b60405180910390a19150505b92915050565b6001600160a01b0383166000908152601d602052604090205460ff166115445760035460000361150957505050565b61151f83678ac7230489e80000848460006115d6565b506001600160a01b0383166000908152601d60205260409020805460ff191660011790555b505050565b6000600a5461155661252a565b61156091906145ee565b905090565b6060601a80548060200260200160405190810160405280929190818152602001828054801561132957602002820191906000526020600020905b81546001600160a01b0316815260019091019060200180831161159f575050505050905090565b600281815481106110fe57600080fd5b6040516bffffffffffffffffffffffff19606087901b16602082015260348101859052600090819060540160405160208183030381529060405280519060200120905060008361166657611661868680806020026020016040519081016040528093929190818152602001838360200280828437600092019190915250506003549150859050612a07565b6116a7565b6116a7868680806020026020016040519081016040528093929190818152602001838360200280828437600092019190915250506004549150859050612a07565b9050806116c75760405163452c2df160e11b815260040160405180910390fd5b506001979650505050505050565b602481815481106110fe57600080fd5b6000816040516020016116f89190613a6d565b60408051601f19818403018152919052805160209091012092915050565b600080611724600186612a1d565b60008981526015602052604090205490915060ff1615611757576040516358f1119560e01b815260040160405180910390fd5b61176333878686611935565b61176c81612ae9565b61177888338988612bff565b98975050505050505050565b6000816040516020016116f891906143ef565b6000806117a5600080612a1d565b600354909150156117e057336000908152601d602052604090205460ff166117e057604051631f22097560e01b815260040160405180910390fd5b6117ec610f8b84614601565b60006117ff6117fa85614601565b612d46565b905061180a82612ae9565b9392505050565b61181c6001806145ee565b81565b606080600061182c612656565b9050600081516001600160401b0381111561184957611849613b36565b60405190808252806020026020018201604052801561188e57816020015b60408051808201909152600080825260208201528152602001906001900390816118675790505b50905060005b825181101561191b57602060008483815181106118b3576118b361460d565b60200260200101518152602001908152602001600020600001604051806040016040529081600082015481526020016001820154815250508282815181106118fd576118fd61460d565b6020026020010181905250808061191390614623565b915050611894565b5090939092509050565b601a81815481106112c157600080fd5b6004541580159061195f57506001600160a01b0384166000908152601c602052604090205460ff16155b156119a4576119728484848460016115d6565b506001600160a01b0384166000908152601b60209081526040808320869055601c9091529020805460ff191660011790555b50505050565b3373dc652c746a8f85e18ce632d97c6118e8a52fa738146119de5760405163de07280160e01b815260040160405180910390fd5b60046119e861215d565b60048111156119f9576119f96143bf565b03611a175760405163ac61508760e01b815260040160405180910390fd5b600455565b600081600003611a3f57604051630ec90a1760e31b815260040160405180910390fd5b60028054604080516020808402820181019092528281529192600092918490830182828015611a8d57602002820191906000526020600020905b815481526020019060010190808311611a79575b5050505050905060006001905060005b83811015611b0957611ad4838281518110611aba57611aba61460d565b602002602001015160009081526021602052604090205490565b15611af757858203611ae95795945050505050565b81611af381614623565b9250505b80611b0181614623565b915050611a9d565b50604051632cc2ab7360e11b815260040160405180910390fd5b606060248054806020026020016040519081016040528092919081815260200182805480156113295760200282019190600052602060002090815481526020019060010190808311611315575050505050905090565b600080611b87600184612a1d565b60008681526015602052604090205490915060ff1615611bba576040516358f1119560e01b815260040160405180910390fd5b60045415801590611bdb5750336000908152601c602052604090205460ff16155b15611bf95760405163126ec6d160e31b815260040160405180910390fd5b611c0281612ae9565b611c0e85338686612bff565b95945050505050565b6000828152602080805260408083206001600160a01b0385168452600301909152902080546001909101545b9250929050565b606060028054806020026020016040519081016040528092919081815260200182805480156113295760200282019190600052602060002090815481526020019060010190808311611315575050505050905090565b60216020528160005260406000208181548110611cbc57600080fd5b90600052602060002001600091509150505481565b6006805461111c90614497565b60256020526000908152604090208054600182015460028301546003840180546001600160a01b03909416949293919291611d1890614497565b80601f0160208091040260200160405190810160405280929190818152602001828054611d4490614497565b8015611d915780601f10611d6657610100808354040283529160200191611d91565b820191906000526020600020905b815481529060010190602001808311611d7457829003601f168201915b5050505050905084565b600254600090611dad9060019061463c565b821115611dcd576040516365d6f35160e11b815260040160405180910390fd5b60005b611ddb8360016145ee565b811015611e38576001611e1760028381548110611dfa57611dfa61460d565b906000526020600020015460009081526021602052604090205490565b1115611e265750600192915050565b80611e3081614623565b915050611dd0565b50600092915050565b60606019805480602002602001604051908101604052809291908181526020018280548015611329576020028201919060005260206000209081546001600160a01b0316815260019091019060200180831161159f575050505050905090565b601381815481106110fe57600080fd5b805160005b81811015611faf576000838281518110611ed257611ed261460d565b60209081029190910101516007549091506001600160a01b03163314801590611f1257506000818152602560205260409020546001600160a01b03163314155b15611f3857604051635450763d60e11b8152600481018290526024015b60405180910390fd5b60008181526027602052604090205460ff16611f9c576000818152602760205260408120805460ff191660019081179091556024805491820181559091527f7cd332d19b93bcabe3cce7ca0c18a052f57e5fd03b4758a09f30f5ddc4b22ec4018190555b5080611fa781614623565b915050611eb6565b507f788a4349d25bc08585923ae212bce8bb346a623bce753eeecb85fd9ce58dcb4b82604051611fdf9190613af1565b60405180910390a15050565b60008181526020808052604091829020600281018054845181850281018501909552808552606094929383018282801561204e57602002820191906000526020600020905b81546001600160a01b03168152600190910190602001808311612030575b5050505050915050919050565b60008181526021602052604081205460011461208a57604051633832a15560e21b815260040160405180910390fd5b600082815260216020526040812080549091906120a9576120a961460d565b90600052602060002001549050919050565b60008181526026602090815260409182902080548351818402810184019094528084526060939283018282801561211157602002820191906000526020600020905b8154815260200190600101908083116120fd575b50505050509050919050565b60008061212b600080612a1d565b90506121383385856114da565b612144610f8b86614601565b60006121526117fa87614601565b9050611c0e82612ae9565b60165460009060ff16156121715750600290565b42600854106121805750600090565b4261218961252a565b106121945750600390565b4261219d611549565b106121a85750600190565b50600490565b6121b661384e565b600082815260176020908152604091829020825160a08101845281546001600160a01b0381168252600160a01b900460ff16151592810192909252600181018054929391929184019161220890614497565b80601f016020809104026020016040519081016040528092919081815260200182805461223490614497565b80156122815780601f1061225657610100808354040283529160200191612281565b820191906000526020600020905b81548152906001019060200180831161226457829003601f168201915b5050509183525050604080516020818101835260028501546001600160a01b0316825280840191909152815160038501805460609381028301840185528285018181529490950194919390928492849184018282801561230a57602002820191906000526020600020905b81546001600160a01b031681526001909101906020018083116122ec575b50505050508152602001600182015481525050815250509050919050565b60008181526021602090815260409182902080548351818402810184019094528084526060939283018282801561211157602002820191906000526020600020908154815260200190600101908083116120fd5750505050509050919050565b6060600060148054806020026020016040519081016040528092919081815260200182805480156123d857602002820191906000526020600020905b8154815260200190600101908083116123c4575b50505050509050600081516001600160401b038111156123fa576123fa613b36565b604051908082528060200260200182016040528015612423578160200160208202803683370190505b50905060005b82518110156124b157601760008483815181106124485761244861460d565b6020026020010151815260200190815260200160002060000160009054906101000a90046001600160a01b03168282815181106124875761248761460d565b6001600160a01b0390921660209283029190910190910152806124a981614623565b915050612429565b5092915050565b3373dc652c746a8f85e18ce632d97c6118e8a52fa738146124ec5760405163de07280160e01b815260040160405180910390fd5b60046124f661215d565b6004811115612507576125076143bf565b036125255760405163ac61508760e01b815260040160405180910390fd5b600355565b600060095460085461156091906145ee565b606060238054806020026020016040519081016040528092919081815260200182805480156113295760200282019190600052602060002090815481526020019060010190808311611315575050505050905090565b6007546001600160a01b031633148015906125c157503373dc652c746a8f85e18ce632d97c6118e8a52fa73814155b156125df576040516301dbf46f60e71b815260040160405180910390fd5b60006125e961215d565b905060028160048111156125ff576125ff6143bf565b0361261d57604051633c30acbf60e01b815260040160405180910390fd5b6016805460ff191660011790556040517f4cd963a081760a54f571abc0f1db4dde31b4a07d8d6da3e844b8c6f47eeaaa4290600090a150565b606060138054806020026020016040519081016040528092919081815260200182805480156113295760200282019190600052602060002090815481526020019060010190808311611315575050505050905090565b6007546001600160a01b031633146126d75760405163b8d4540960e01b815260040160405180910390fd5b60046126e161215d565b60048111156126f2576126f26143bf565b03612710576040516331da1c8b60e11b815260040160405180910390fd5b60005b818110156127b557600083838381811061272f5761272f61460d565b60209081029290920135600081815260159093526040909220549192505060ff166127a2576000818152601560205260408120805460ff191660019081179091556014805491820181559091527fce6d7b5282bd9a3661ae061feed1dbda4e52ab073b1f9285be6e155d9c38d4ec018190555b50806127ad81614623565b915050612713565b50600d541580156127c857506000546001145b156127d7576127d78282612fc4565b7f75a75cf5c561892f4cc5b26c1b8e933849b42238c96dd073d080d1ae96c514166013604051611fdf919061464f565b6007546001600160a01b0316331461283257604051630f4cb1bd60e11b815260040160405180910390fd5b602280546001600160a01b038381166001600160a01b031983168117909355604080519190921680825260208201939093527f753a2cf8d360cff631674504210913e48247f8e56b3e6d2006c2103d4095999f9101611fdf565b602381815481106110fe57600080fd5b60266020528160005260406000208181548110611cbc57600080fd5b80516001600160a01b031633146128f657805160405163fbbf4d7f60e01b81526001600160a01b039091166004820152336024820152604401611f2f565b60005b6129046001806145ee565b8110156129dd57600081600181111561291f5761291f6143bf565b90506000816001811115612935576129356143bf565b0361294057506129cb565b6001816001811115612954576129546143bf565b036129ae57608083015151516000036129805760405163c3b2798b60e01b815260040160405180910390fd5b8260800151602001516000036129a9576040516392fb9a3560e01b815260040160405180910390fd5b6129c9565b8060405163d2277d4960e01b8152600401611f2f919061468a565b505b806129d581614623565b9150506128f9565b50806040015151600003612a045760405163e182473360e01b815260040160405180910390fd5b50565b600082612a14858461301f565b14949350505050565b60008080846001811115612a3357612a336143bf565b03612a415750600f54612ac0565b6001846001811115612a5557612a556143bf565b03612abc57601154600103612ab357670de0b6b3a7640000831015612a8d576040516346ddb8d160e01b815260040160405180910390fd5b612a9f670de0b6b3a76400008461469e565b601054612aac91906146c0565b9050612ac0565b50601054612ac0565b5060005b80341461180a576040516372c3eaa760e01b815234600482015260248101829052604401611f2f565b8015612a045760006064600e546064612b02919061463c565b612b0c90346146c0565b612b16919061469e565b90508015612b8a57612b3c73dc652c746a8f85e18ce632d97c6118e8a52fa7388261306c565b6040805173dc652c746a8f85e18ce632d97c6118e8a52fa7388152602081018390527fdf20fd1e76bc69d672e4814fafb2c449bba3a5369d8359adf9e05e6fde87b056910160405180910390a15b6000612b96823461463c565b9050801561154457601254612bb4906001600160a01b03168261306c565b600754604080516001600160a01b039092168252602082018390527fdf20fd1e76bc69d672e4814fafb2c449bba3a5369d8359adf9e05e6fde87b056910160405180910390a1505050565b60006001612c0b61215d565b6004811115612c1c57612c1c6143bf565b14612c4357612c2961215d565b60405163049cab4960e51b8152600401611f2f91906143d5565b81600003612c645760405163502e1c2960e01b815260040160405180910390fd5b612c9685858585601b60008a6001600160a01b03166001600160a01b0316815260200190815260200160002054613185565b601a80546001810182556000919091527f057c384a7d1c54f3a1b2e5e67b2617b8224fdfd1ea7234eea573a6ff665ff63e0180546001600160a01b031916331790556040805186815260ff851660208201529081018390526001600160a01b038516907f2c9deb38f462962eadbd85a9d3a4120503ee091f1582eaaa10aa8c6797651d299060600160405180910390a25050506001600160a01b03166000908152601b6020526040902054919050565b60006003612d5261215d565b6004811115612d6357612d636143bf565b14612d8a57612d7061215d565b604051632889531360e01b8152600401611f2f91906143d5565b600b543360009081526018602052604090205403612dc157600b54604051632bd6d93960e21b8152600401611f2f91815260200190565b600c54601454601354612dd4919061463c565b03612df857600c546040516302217f5360e51b8152600401611f2f91815260200190565b6000612e0383611784565b600081815260176020526040902054909150600160a01b900460ff1615612e405760405163baffc42360e01b815260048101829052602401611f2f565b6013805460018181019092557f66de8ffda797e3de9c05e8fc57b3bf0ec28a930d40b0d285d93c06501cf6a0900182905560008281526017602090815260409182902086518154928801511515600160a01b026001600160a81b03199093166001600160a01b0390911617919091178155908501518592820190612ec49082614519565b506060820151516002820180546001600160a01b0319166001600160a01b039092169190911790556080820151805180516003840191612f09918391602001906138bf565b5060209182015160019182015533600090815260189092526040822080549194509250612f379084906145ee565b9091555050601980546001810182556000919091527f944998273e477b495144fb8794c914197f3ccb46be2900f4698fd0ef743c96950180546001600160a01b0319163390811790915560408085015190517f7585f467599d0f008985f231af99293be388626ac16ca59505c2f8f88969cd6392612fb69285926146d7565b60405180910390a192915050565b60005b81811015611544576000838383818110612fe357612fe361460d565b60209081029290920135600081815292805260409092205491925061300a905082826133f9565b5050808061301790614623565b915050612fc7565b600081815b845181101561306457613050828683815181106130435761304361460d565b602002602001015161352a565b91508061305c81614623565b915050613024565b509392505050565b804710156130bc5760405162461bcd60e51b815260206004820152601d60248201527f416464726573733a20696e73756666696369656e742062616c616e63650000006044820152606401611f2f565b6000826001600160a01b03168260405160006040518083038185875af1925050503d8060008114613109576040519150601f19603f3d011682016040523d82523d6000602084013e61310e565b606091505b50509050806115445760405162461bcd60e51b815260206004820152603a60248201527f416464726573733a20756e61626c6520746f2073656e642076616c75652c207260448201527f6563697069656e74206d617920686176652072657665727465640000000000006064820152608401611f2f565b60008581526020805260409020600454158015906131c457506001600160a01b0385166000908152601f60205260409020546131c1908361463c565b83115b156131e25760405163660fa07360e11b815260040160405180910390fd5b6001600160a01b038516600090815260038201602052604081205415801561322557506001600160a01b0386166000908152600383016020526040902060010154155b905060ff851661327d578154849083906000906132439084906145ee565b90915550506001600160a01b0386166000908152600383016020526040812080548692906132729084906145ee565b9091555061330e9050565b60001960ff8616016132f557600d546001146132ac57604051639755958f60e01b815260040160405180910390fd5b838260000160010160008282546132c391906145ee565b90915550506001600160a01b0386166000908152600383016020526040812060010180548692906132729084906145ee565b604051638eed55d160e01b815260040160405180910390fd5b801561334557600282018054600181018255600091825260209091200180546001600160a01b0319166001600160a01b0388161790555b6001600160a01b0386166000908152601f60205260408120805486929061336d9084906145ee565b9250508190555083601e600082825461338691906145ee565b9091555050600d5415801561339d57506000546001145b156133f057815460006133b0868361463c565b905080156133c2576133c289826133f9565b6000828152602160209081526040822080546001810182559083529120018990556133ed8183613559565b50505b50505050505050565b60008181526021602090815260408083208054825181850281018501909352808352919290919083018282801561344f57602002820191906000526020600020905b81548152602001906001019080831161343b575b5050505050905060005b81518110156119a457838282815181106134755761347561460d565b602002602001015103613518578160018351613491919061463c565b815181106134a1576134a161460d565b60200260200101516021600085815260200190815260200160002082815481106134cd576134cd61460d565b9060005260206000200181905550602160008481526020019081526020016000208054806134fd576134fd614701565b600190038181906000526020600020016000905590556119a4565b8061352281614623565b915050613459565b600081831061354657600082815260208490526040902061180a565b600083815260208390526040902061180a565b600280546040805160208084028201810190925282815291926000929184908301828280156135a757602002820191906000526020600020905b815481526020019060010190808311613593575b50505050509050816000036135ee575050600280546001810182556000919091527f405787fa12a823e0f2b7631cc41b3ba8828b3321ca811111fa75cd3aa3bb5ace015550565b806135fa60018461463c565b8151811061360a5761360a61460d565b60200260200101518310156136605760015482036136285750505050565b5050600280546001810182556000919091527f405787fa12a823e0f2b7631cc41b3ba8828b3321ca811111fa75cd3aa3bb5ace015550565b6119a4848484846000805b838110156136d5578281815181106136855761368561460d565b6020026020010151850361369a5750506119a4565b8281815181106136ac576136ac61460d565b60200260200101518511156136c3578091506136d5565b806136cd81614623565b91505061366b565b50600080861180156136f35750600086815260216020526040902054155b9050600081801561371c5750868484815181106137125761371261460d565b6020026020010151145b6138255761372b60018661463c565b83146137d357600061373e8460016145ee565b90505b858110156137d1578461375560018361463c565b815181106137655761376561460d565b6020026020010151600282815481106137805761378061460d565b6000918252602090912001558280156137b15750878582815181106137a7576137a761460d565b6020026020010151145b156137bf57600191506137d1565b806137c981614623565b915050613741565b505b801580156137e2575060015485105b15613825576002846137f560018861463c565b815181106138055761380561460d565b602090810291909101810151825460018101845560009384529190922001555b85600284815481106138395761383961460d565b60009182526020909120015550505050505050565b6040518060a0016040528060006001600160a01b0316815260200160001515815260200160608152602001613898604051806020016040528060006001600160a01b031681525090565b81526020016138ba604051806040016040528060608152602001600081525090565b905290565b828054828255906000526020600020908101928215613914579160200282015b8281111561391457825182546001600160a01b0319166001600160a01b039091161782556020909201916001909101906138df565b50613920929150613924565b5090565b5b808211156139205760008155600101613925565b60006020828403121561394b57600080fd5b5035919050565b6000815180845260005b818110156139785760208185018101518683018201520161395c565b506000602082860101526020601f19601f83011685010191505092915050565b805160408084528151908401819052600091602091908201906060860190845b818110156139dd5783516001600160a01b0316835292840192918401916001016139b8565b505093820151949091019390935250919050565b600060018060a01b038088168352861515602084015260a06040840152613a1b60a0840187613952565b8186511660608501528381036080850152613a368186613998565b9998505050505050505050565b60208152600061180a6020830184613952565b8151815260208083015190820152604081016114d4565b6020815260018060a01b038251166020820152602082015160408201526040820151606082015260006060830151608080840152613aae60a0840182613952565b949350505050565b600081518084526020808501945080840160005b83811015613ae657815187529582019590820190600101613aca565b509495945050505050565b60208152600061180a6020830184613ab6565b6001600160a01b0381168114612a0457600080fd5b600060208284031215613b2b57600080fd5b813561180a81613b04565b634e487b7160e01b600052604160045260246000fd5b604080519081016001600160401b0381118282101715613b6e57613b6e613b36565b60405290565b60405160a081016001600160401b0381118282101715613b6e57613b6e613b36565b604051602081016001600160401b0381118282101715613b6e57613b6e613b36565b604051601f8201601f191681016001600160401b0381118282101715613be057613be0613b36565b604052919050565b600082601f830112613bf957600080fd5b81356001600160401b03811115613c1257613c12613b36565b613c25601f8201601f1916602001613bb8565b818152846020838601011115613c3a57600080fd5b816020850160208301376000918101602001919091529392505050565b60008060408385031215613c6a57600080fd5b8235915060208301356001600160401b03811115613c8757600080fd5b613c9385828601613be8565b9150509250929050565b60008083601f840112613caf57600080fd5b5081356001600160401b03811115613cc657600080fd5b6020830191508360208260051b8501011115611c4357600080fd5b600080600060408486031215613cf657600080fd5b8335613d0181613b04565b925060208401356001600160401b03811115613d1c57600080fd5b613d2886828701613c9d565b9497909650939450505050565b6020808252825182820181905260009190848201906040850190845b81811015613d765783516001600160a01b031683529284019291840191600101613d51565b50909695505050505050565b80358015158114613d9257600080fd5b919050565b600080600080600060808688031215613daf57600080fd5b8535613dba81613b04565b94506020860135935060408601356001600160401b03811115613ddc57600080fd5b613de888828901613c9d565b9094509250613dfb905060608701613d82565b90509295509295909350565b600060208284031215613e1957600080fd5b81356001600160401b0380821115613e3057600080fd5b9083019060808286031215613e4457600080fd5b604051608081018181108382111715613e5f57613e5f613b36565b6040528235613e6d81613b04565b808252506020830135602082015260408301356040820152606083013582811115613e9757600080fd5b613ea387828601613be8565b60608301525095945050505050565b803560ff81168114613d9257600080fd5b60008060008060008060a08789031215613edc57600080fd5b86359550613eec60208801613eb2565b9450604087013593506060870135925060808701356001600160401b03811115613f1557600080fd5b613f2189828a01613c9d565b979a9699509497509295939492505050565b60006001600160401b03821115613f4c57613f4c613b36565b5060051b60200190565b600060408284031215613f6857600080fd5b613f70613b4c565b905081356001600160401b03811115613f8857600080fd5b8201601f81018413613f9957600080fd5b80356020613fae613fa983613f33565b613bb8565b82815260059290921b83018101918181019087841115613fcd57600080fd5b938201935b83851015613ff4578435613fe581613b04565b82529382019390820190613fd2565b85525093840135938301939093525092915050565b600081830360a081121561401c57600080fd5b614024613b74565b9150823561403181613b04565b825261403f60208401613d82565b602083015260408301356001600160401b038082111561405e57600080fd5b61406a86838701613be8565b60408501526020605f198401121561408157600080fd5b614089613b96565b92506060850135915061409b82613b04565b81835282606085015260808501359250808311156140b857600080fd5b50506140c684828501613f56565b60808301525092915050565b6000602082840312156140e457600080fd5b81356001600160401b038111156140fa57600080fd5b613aae84828501614009565b600060a0828403121561411857600080fd5b50919050565b60006020828403121561413057600080fd5b81356001600160401b0381111561414657600080fd5b613aae84828501614106565b6000604080835261416581840186613ab6565b83810360208581019190915285518083528682019282019060005b818110156141ad5761419d83865180518252602090810151910152565b9383019391850191600101614180565b509098975050505050505050565b600080600080606085870312156141d157600080fd5b84356141dc81613b04565b93506020850135925060408501356001600160401b038111156141fe57600080fd5b61420a87828801613c9d565b95989497509550505050565b60008060006060848603121561422b57600080fd5b8335925061423b60208501613eb2565b9150604084013590509250925092565b6000806040838503121561425e57600080fd5b82359150602083013561427081613b04565b809150509250929050565b6000806040838503121561428e57600080fd5b50508035926020909101359150565b60018060a01b03851681528360208201528260408201526080606082015260006142ca6080830184613952565b9695505050505050565b600060208083850312156142e757600080fd5b82356001600160401b038111156142fd57600080fd5b8301601f8101851361430e57600080fd5b803561431c613fa982613f33565b81815260059190911b8201830190838101908783111561433b57600080fd5b928401925b8284101561435957833582529284019290840190614340565b979650505050505050565b60008060006040848603121561437957600080fd5b83356001600160401b038082111561439057600080fd5b61439c87838801614106565b945060208601359150808211156143b257600080fd5b50613d2886828701613c9d565b634e487b7160e01b600052602160045260246000fd5b60208101600583106143e9576143e96143bf565b91905290565b60208152600060018060a01b03808451166020840152602084015115156040840152604084015160a0606085015261442a60c0850182613952565b90508160608601515116608085015260808501519150601f198482030160a0850152611c0e8183613998565b6000806020838503121561446957600080fd5b82356001600160401b0381111561447f57600080fd5b61448b85828601613c9d565b90969095509350505050565b600181811c908216806144ab57607f821691505b60208210810361411857634e487b7160e01b600052602260045260246000fd5b601f82111561154457600081815260208120601f850160051c810160208610156144f25750805b601f850160051c820191505b81811015614511578281556001016144fe565b505050505050565b81516001600160401b0381111561453257614532613b36565b614546816145408454614497565b846144cb565b602080601f83116001811461457b57600084156145635750858301515b600019600386901b1c1916600185901b178555614511565b600085815260208120601f198616915b828110156145aa5788860151825594840194600190910190840161458b565b50858210156145c85787850151600019600388901b60f8161c191681555b5050505050600190811b01905550565b634e487b7160e01b600052601160045260246000fd5b808201808211156114d4576114d46145d8565b60006114d43683614009565b634e487b7160e01b600052603260045260246000fd5b600060018201614635576146356145d8565b5060010190565b818103818111156114d4576114d46145d8565b6020808252825482820181905260008481528281209092916040850190845b81811015613d765783548352600193840193928501920161466e565b60208101600283106143e9576143e96143bf565b6000826146bb57634e487b7160e01b600052601260045260246000fd5b500490565b80820281158282048414176114d4576114d46145d8565b8381526001600160a01b0383166020820152606060408201819052600090611c0e90830184613952565b634e487b7160e01b600052603160045260246000fdfea264697066735822122027b865c0dea8f0375f89edc4cd7ffdc44786d662e9c77a6de5896c06588d3c9f64736f6c63430008130033","linkReferences":{}},"methodIdentifiers":{"AMOUNT_FOR_SUMBITTER_PROOF()":"347cf665","JK_LABS_ADDRESS()":"eef18e17","METADATAS_COUNT()":"4d24a67f","addressSubmitterVerified(address)":"cb853950","addressTotalCastVoteCounts(address)":"a1ac6cb2","addressTotalVotes(address)":"dea5f6a6","addressTotalVotesVerified(address)":"930de979","addressesThatHaveVoted(uint256)":"50c4b616","allProposalTotalVotes()":"50a5e524","cancel()":"ea8a1af0","canceled()":"3f9942ff","castVote(uint256,uint8,uint256,uint256,bytes32[])":"419c533c","castVoteWithoutProof(uint256,uint8,uint256)":"65f16263","checkProof(address,uint256,bytes32[],bool)":"32763c22","comment(uint256,string)":"1805c523","commentIds(uint256)":"f5c36411","commentIsDeleted(uint256)":"ae66b8ad","comments(uint256)":"8ebb4c15","contestAddressTotalVotesCast(address)":"aec116b6","contestDeadline()":"262e59e9","contestStart()":"004114a8","costToPropose()":"6ed815ad","costToVote()":"51a41dec","creator()":"02d05d3f","creatorSplitDestination()":"4a587ad4","deleteComments(uint256[])":"ac67f801","deleteProposals(uint256[])":"f0a7db0a","deletedCommentIds(uint256)":"3fb57c92","deletedProposalIds(uint256)":"05846cae","downvotingAllowed()":"60506ff6","forVotesToProposalIds(uint256,uint256)":"711effc8","getAllAddressesThatHaveVoted()":"2c39805f","getAllAuthorsOfDeletedProposals()":"cbdc27cb","getAllCommentIds()":"e11db9d8","getAllDeletedCommentIds()":"5cb718a1","getAllDeletedProposalIds()":"1242b737","getAllProposalAuthors()":"946369b5","getAllProposalIds()":"efa90d36","getComment(uint256)":"0800e300","getNumProposalsWithThisManyForVotes(uint256)":"9ba197af","getOnlyProposalIdWithThisManyForVotes(uint256)":"b66d1da3","getProposal(uint256)":"c7f758a8","getProposalComments(uint256)":"c05f4104","getProposalsWithThisManyForVotes(uint256)":"c9a1b6b2","getRankIndex(uint256)":"5c7107d8","getSortedRanks()":"6fd3636b","hashComment((address,uint256,uint256,string))":"409fd030","hashProposal((address,bool,string,(address),(address[],uint256)))":"458da87d","isOrIsBelowTiedRank(uint256)":"9174778c","maxProposalCount()":"fb9bf8d4","name()":"06fdde03","numAllowedProposalSubmissions()":"832009af","numSubmissions(address)":"75e509c5","officialRewardsModule()":"785ddfe5","payPerVote()":"03f7eed6","percentageToCreator()":"edcd1be4","prompt()":"7c65d711","proposalAddressVotes(uint256,address)":"6e4eb810","proposalAddressesHaveVoted(uint256)":"b323580d","proposalAuthors(uint256)":"0aa25e44","proposalComments(uint256,uint256)":"f61736f4","proposalIds(uint256)":"9b644a23","proposalIsDeleted(uint256)":"f79c0172","proposalVotes(uint256)":"544ffc9c","proposalVotesStructs(uint256)":"070dc5d9","proposals(uint256)":"013cf08b","propose((address,bool,string,(address),(address[],uint256)),bytes32[])":"c0ffaa78","proposeWithoutProof((address,bool,string,(address),(address[],uint256)))":"476f4d8a","rankLimit()":"0414126a","setCreatorSplitDestination(address)":"146230f6","setOfficialRewardsModule(address)":"f4f3d7ec","setSubmissionMerkleRoot(bytes32)":"daf762db","setVotingMerkleRoot(bytes32)":"544c7bb4","sortedRanks(uint256)":"325cc6d9","sortingEnabled()":"366ecf5b","state()":"c19d93fb","submissionMerkleRoot()":"bddc1641","totalVotesCast()":"7de418d5","validateProposalData((address,bool,string,(address),(address[],uint256)))":"fb8ddab4","verifyProposer(address,bytes32[])":"20b3e845","verifyVoter(address,uint256,bytes32[])":"531bd812","version()":"54fd4d50","voteStart()":"e031535b","votingDelay()":"3932abb1","votingMerkleRoot()":"dd96a19d","votingPeriod()":"02a251a3"},"id":34}