{"abi":[{"type":"constructor","inputs":[{"name":"_name","type":"string","internalType":"string"},{"name":"_prompt","type":"string","internalType":"string"},{"name":"_submissionMerkleRoot","type":"bytes32","internalType":"bytes32"},{"name":"_votingMerkleRoot","type":"bytes32","internalType":"bytes32"},{"name":"_constructorArgs","type":"tuple","internalType":"struct Governor.ConstructorArgs","components":[{"name":"intConstructorArgs","type":"tuple","internalType":"struct Governor.IntConstructorArgs","components":[{"name":"contestStart","type":"uint256","internalType":"uint256"},{"name":"votingDelay","type":"uint256","internalType":"uint256"},{"name":"votingPeriod","type":"uint256","internalType":"uint256"},{"name":"numAllowedProposalSubmissions","type":"uint256","internalType":"uint256"},{"name":"maxProposalCount","type":"uint256","internalType":"uint256"},{"name":"sortingEnabled","type":"uint256","internalType":"uint256"},{"name":"rankLimit","type":"uint256","internalType":"uint256"},{"name":"percentageToCreator","type":"uint256","internalType":"uint256"},{"name":"costToPropose","type":"uint256","internalType":"uint256"},{"name":"costToVote","type":"uint256","internalType":"uint256"},{"name":"payPerVote","type":"uint256","internalType":"uint256"}]},{"name":"creatorSplitDestination","type":"address","internalType":"address"},{"name":"jkLabsSplitDestination","type":"address","internalType":"address"},{"name":"metadataFieldsSchema","type":"string","internalType":"string"}]}],"stateMutability":"nonpayable"},{"type":"function","name":"AMOUNT_FOR_SUMBITTER_PROOF","inputs":[],"outputs":[{"name":"","type":"uint256","internalType":"uint256"}],"stateMutability":"view"},{"type":"function","name":"JK_LABS_ADDRESS","inputs":[],"outputs":[{"name":"","type":"address","internalType":"address"}],"stateMutability":"view"},{"type":"function","name":"MAX_FIELDS_METADATA_LENGTH","inputs":[],"outputs":[{"name":"","type":"uint256","internalType":"uint256"}],"stateMutability":"view"},{"type":"function","name":"METADATAS_COUNT","inputs":[],"outputs":[{"name":"","type":"uint256","internalType":"uint256"}],"stateMutability":"view"},{"type":"function","name":"addressSubmitterVerified","inputs":[{"name":"","type":"address","internalType":"address"}],"outputs":[{"name":"","type":"bool","internalType":"bool"}],"stateMutability":"view"},{"type":"function","name":"addressTotalCastVoteCount","inputs":[{"name":"","type":"address","internalType":"address"}],"outputs":[{"name":"","type":"uint256","internalType":"uint256"}],"stateMutability":"view"},{"type":"function","name":"addressTotalVotes","inputs":[{"name":"","type":"address","internalType":"address"}],"outputs":[{"name":"","type":"uint256","internalType":"uint256"}],"stateMutability":"view"},{"type":"function","name":"addressTotalVotesVerified","inputs":[{"name":"","type":"address","internalType":"address"}],"outputs":[{"name":"","type":"bool","internalType":"bool"}],"stateMutability":"view"},{"type":"function","name":"addressesThatHaveVoted","inputs":[{"name":"","type":"uint256","internalType":"uint256"}],"outputs":[{"name":"","type":"address","internalType":"address"}],"stateMutability":"view"},{"type":"function","name":"allProposalTotalVotes","inputs":[],"outputs":[{"name":"proposalIdsReturn","type":"uint256[]","internalType":"uint256[]"},{"name":"proposalVoteCountsArrayReturn","type":"uint256[]","internalType":"uint256[]"}],"stateMutability":"view"},{"type":"function","name":"cancel","inputs":[],"outputs":[],"stateMutability":"nonpayable"},{"type":"function","name":"canceled","inputs":[],"outputs":[{"name":"","type":"bool","internalType":"bool"}],"stateMutability":"view"},{"type":"function","name":"castVote","inputs":[{"name":"proposalId","type":"uint256","internalType":"uint256"},{"name":"totalVotes","type":"uint256","internalType":"uint256"},{"name":"numVotes","type":"uint256","internalType":"uint256"},{"name":"proof","type":"bytes32[]","internalType":"bytes32[]"}],"outputs":[{"name":"","type":"uint256","internalType":"uint256"}],"stateMutability":"payable"},{"type":"function","name":"castVoteWithoutProof","inputs":[{"name":"proposalId","type":"uint256","internalType":"uint256"},{"name":"numVotes","type":"uint256","internalType":"uint256"}],"outputs":[{"name":"","type":"uint256","internalType":"uint256"}],"stateMutability":"payable"},{"type":"function","name":"checkProof","inputs":[{"name":"addressToCheck","type":"address","internalType":"address"},{"name":"amount","type":"uint256","internalType":"uint256"},{"name":"proof","type":"bytes32[]","internalType":"bytes32[]"},{"name":"voting","type":"bool","internalType":"bool"}],"outputs":[{"name":"verified","type":"bool","internalType":"bool"}],"stateMutability":"view"},{"type":"function","name":"comment","inputs":[{"name":"proposalId","type":"uint256","internalType":"uint256"},{"name":"commentContent","type":"string","internalType":"string"}],"outputs":[{"name":"","type":"uint256","internalType":"uint256"}],"stateMutability":"nonpayable"},{"type":"function","name":"commentIds","inputs":[{"name":"","type":"uint256","internalType":"uint256"}],"outputs":[{"name":"","type":"uint256","internalType":"uint256"}],"stateMutability":"view"},{"type":"function","name":"commentIsDeleted","inputs":[{"name":"","type":"uint256","internalType":"uint256"}],"outputs":[{"name":"","type":"bool","internalType":"bool"}],"stateMutability":"view"},{"type":"function","name":"comments","inputs":[{"name":"","type":"uint256","internalType":"uint256"}],"outputs":[{"name":"author","type":"address","internalType":"address"},{"name":"timestamp","type":"uint256","internalType":"uint256"},{"name":"proposalId","type":"uint256","internalType":"uint256"},{"name":"commentContent","type":"string","internalType":"string"}],"stateMutability":"view"},{"type":"function","name":"contestAddressTotalVotesCast","inputs":[{"name":"userAddress","type":"address","internalType":"address"}],"outputs":[{"name":"userTotalVotesCast","type":"uint256","internalType":"uint256"}],"stateMutability":"view"},{"type":"function","name":"contestDeadline","inputs":[],"outputs":[{"name":"","type":"uint256","internalType":"uint256"}],"stateMutability":"view"},{"type":"function","name":"contestStart","inputs":[],"outputs":[{"name":"","type":"uint256","internalType":"uint256"}],"stateMutability":"view"},{"type":"function","name":"costToPropose","inputs":[],"outputs":[{"name":"","type":"uint256","internalType":"uint256"}],"stateMutability":"view"},{"type":"function","name":"costToVote","inputs":[],"outputs":[{"name":"","type":"uint256","internalType":"uint256"}],"stateMutability":"view"},{"type":"function","name":"creator","inputs":[],"outputs":[{"name":"","type":"address","internalType":"address"}],"stateMutability":"view"},{"type":"function","name":"creatorSplitDestination","inputs":[],"outputs":[{"name":"","type":"address","internalType":"address"}],"stateMutability":"view"},{"type":"function","name":"deleteComments","inputs":[{"name":"commentIdsParam","type":"uint256[]","internalType":"uint256[]"}],"outputs":[],"stateMutability":"nonpayable"},{"type":"function","name":"deleteProposals","inputs":[{"name":"proposalIdsToDelete","type":"uint256[]","internalType":"uint256[]"}],"outputs":[],"stateMutability":"nonpayable"},{"type":"function","name":"deletedCommentIds","inputs":[{"name":"","type":"uint256","internalType":"uint256"}],"outputs":[{"name":"","type":"uint256","internalType":"uint256"}],"stateMutability":"view"},{"type":"function","name":"deletedProposalIds","inputs":[{"name":"","type":"uint256","internalType":"uint256"}],"outputs":[{"name":"","type":"uint256","internalType":"uint256"}],"stateMutability":"view"},{"type":"function","name":"getAllAddressesThatHaveVoted","inputs":[],"outputs":[{"name":"","type":"address[]","internalType":"address[]"}],"stateMutability":"view"},{"type":"function","name":"getAllAuthorsOfDeletedProposals","inputs":[],"outputs":[{"name":"","type":"address[]","internalType":"address[]"}],"stateMutability":"view"},{"type":"function","name":"getAllCommentIds","inputs":[],"outputs":[{"name":"","type":"uint256[]","internalType":"uint256[]"}],"stateMutability":"view"},{"type":"function","name":"getAllDeletedCommentIds","inputs":[],"outputs":[{"name":"","type":"uint256[]","internalType":"uint256[]"}],"stateMutability":"view"},{"type":"function","name":"getAllDeletedProposalIds","inputs":[],"outputs":[{"name":"","type":"uint256[]","internalType":"uint256[]"}],"stateMutability":"view"},{"type":"function","name":"getAllProposalAuthors","inputs":[],"outputs":[{"name":"","type":"address[]","internalType":"address[]"}],"stateMutability":"view"},{"type":"function","name":"getAllProposalIds","inputs":[],"outputs":[{"name":"","type":"uint256[]","internalType":"uint256[]"}],"stateMutability":"view"},{"type":"function","name":"getComment","inputs":[{"name":"commentId","type":"uint256","internalType":"uint256"}],"outputs":[{"name":"","type":"tuple","internalType":"struct GovernorEngagement.CommentCore","components":[{"name":"author","type":"address","internalType":"address"},{"name":"timestamp","type":"uint256","internalType":"uint256"},{"name":"proposalId","type":"uint256","internalType":"uint256"},{"name":"commentContent","type":"string","internalType":"string"}]}],"stateMutability":"view"},{"type":"function","name":"getNumProposalsWithThisManyVotes","inputs":[{"name":"votes","type":"uint256","internalType":"uint256"}],"outputs":[{"name":"count","type":"uint256","internalType":"uint256"}],"stateMutability":"view"},{"type":"function","name":"getOnlyProposalIdWithThisManyVotes","inputs":[{"name":"votes","type":"uint256","internalType":"uint256"}],"outputs":[{"name":"proposalId","type":"uint256","internalType":"uint256"}],"stateMutability":"view"},{"type":"function","name":"getProposal","inputs":[{"name":"proposalId","type":"uint256","internalType":"uint256"}],"outputs":[{"name":"","type":"tuple","internalType":"struct Governor.ProposalCore","components":[{"name":"author","type":"address","internalType":"address"},{"name":"exists","type":"bool","internalType":"bool"},{"name":"description","type":"string","internalType":"string"},{"name":"targetMetadata","type":"tuple","internalType":"struct Governor.TargetMetadata","components":[{"name":"targetAddress","type":"address","internalType":"address"}]},{"name":"safeMetadata","type":"tuple","internalType":"struct Governor.SafeMetadata","components":[{"name":"signers","type":"address[]","internalType":"address[]"},{"name":"threshold","type":"uint256","internalType":"uint256"}]},{"name":"fieldsMetadata","type":"tuple","internalType":"struct Governor.FieldsMetadata","components":[{"name":"addressArray","type":"address[]","internalType":"address[]"},{"name":"stringArray","type":"string[]","internalType":"string[]"},{"name":"uintArray","type":"uint256[]","internalType":"uint256[]"}]}]}],"stateMutability":"view"},{"type":"function","name":"getProposalComments","inputs":[{"name":"proposalId","type":"uint256","internalType":"uint256"}],"outputs":[{"name":"","type":"uint256[]","internalType":"uint256[]"}],"stateMutability":"view"},{"type":"function","name":"getProposalsWithThisManyVotes","inputs":[{"name":"votes","type":"uint256","internalType":"uint256"}],"outputs":[{"name":"proposalsWithThisManyVotes","type":"uint256[]","internalType":"uint256[]"}],"stateMutability":"view"},{"type":"function","name":"getRankIndex","inputs":[{"name":"rank","type":"uint256","internalType":"uint256"}],"outputs":[{"name":"rankIndex","type":"uint256","internalType":"uint256"}],"stateMutability":"view"},{"type":"function","name":"getSortedRanks","inputs":[],"outputs":[{"name":"sortedRanksArray","type":"uint256[]","internalType":"uint256[]"}],"stateMutability":"view"},{"type":"function","name":"hashComment","inputs":[{"name":"commentObj","type":"tuple","internalType":"struct GovernorEngagement.CommentCore","components":[{"name":"author","type":"address","internalType":"address"},{"name":"timestamp","type":"uint256","internalType":"uint256"},{"name":"proposalId","type":"uint256","internalType":"uint256"},{"name":"commentContent","type":"string","internalType":"string"}]}],"outputs":[{"name":"","type":"uint256","internalType":"uint256"}],"stateMutability":"pure"},{"type":"function","name":"hashProposal","inputs":[{"name":"proposal","type":"tuple","internalType":"struct Governor.ProposalCore","components":[{"name":"author","type":"address","internalType":"address"},{"name":"exists","type":"bool","internalType":"bool"},{"name":"description","type":"string","internalType":"string"},{"name":"targetMetadata","type":"tuple","internalType":"struct Governor.TargetMetadata","components":[{"name":"targetAddress","type":"address","internalType":"address"}]},{"name":"safeMetadata","type":"tuple","internalType":"struct Governor.SafeMetadata","components":[{"name":"signers","type":"address[]","internalType":"address[]"},{"name":"threshold","type":"uint256","internalType":"uint256"}]},{"name":"fieldsMetadata","type":"tuple","internalType":"struct Governor.FieldsMetadata","components":[{"name":"addressArray","type":"address[]","internalType":"address[]"},{"name":"stringArray","type":"string[]","internalType":"string[]"},{"name":"uintArray","type":"uint256[]","internalType":"uint256[]"}]}]}],"outputs":[{"name":"","type":"uint256","internalType":"uint256"}],"stateMutability":"pure"},{"type":"function","name":"isOrIsBelowTiedRank","inputs":[{"name":"idx","type":"uint256","internalType":"uint256"}],"outputs":[{"name":"atOrBelowTiedRank","type":"bool","internalType":"bool"}],"stateMutability":"view"},{"type":"function","name":"jkLabsSplitDestination","inputs":[],"outputs":[{"name":"","type":"address","internalType":"address"}],"stateMutability":"view"},{"type":"function","name":"maxProposalCount","inputs":[],"outputs":[{"name":"","type":"uint256","internalType":"uint256"}],"stateMutability":"view"},{"type":"function","name":"metadataFieldsSchema","inputs":[],"outputs":[{"name":"","type":"string","internalType":"string"}],"stateMutability":"view"},{"type":"function","name":"name","inputs":[],"outputs":[{"name":"","type":"string","internalType":"string"}],"stateMutability":"view"},{"type":"function","name":"numAllowedProposalSubmissions","inputs":[],"outputs":[{"name":"","type":"uint256","internalType":"uint256"}],"stateMutability":"view"},{"type":"function","name":"numSubmissions","inputs":[{"name":"","type":"address","internalType":"address"}],"outputs":[{"name":"","type":"uint256","internalType":"uint256"}],"stateMutability":"view"},{"type":"function","name":"officialRewardsModule","inputs":[],"outputs":[{"name":"","type":"address","internalType":"address"}],"stateMutability":"view"},{"type":"function","name":"payPerVote","inputs":[],"outputs":[{"name":"","type":"uint256","internalType":"uint256"}],"stateMutability":"view"},{"type":"function","name":"percentageToCreator","inputs":[],"outputs":[{"name":"","type":"uint256","internalType":"uint256"}],"stateMutability":"view"},{"type":"function","name":"prompt","inputs":[],"outputs":[{"name":"","type":"string","internalType":"string"}],"stateMutability":"view"},{"type":"function","name":"proposalAddressVotes","inputs":[{"name":"proposalId","type":"uint256","internalType":"uint256"},{"name":"userAddress","type":"address","internalType":"address"}],"outputs":[{"name":"voteCount","type":"uint256","internalType":"uint256"}],"stateMutability":"view"},{"type":"function","name":"proposalAddressesHaveVoted","inputs":[{"name":"proposalId","type":"uint256","internalType":"uint256"}],"outputs":[{"name":"","type":"address[]","internalType":"address[]"}],"stateMutability":"view"},{"type":"function","name":"proposalAuthors","inputs":[{"name":"","type":"uint256","internalType":"uint256"}],"outputs":[{"name":"","type":"address","internalType":"address"}],"stateMutability":"view"},{"type":"function","name":"proposalComments","inputs":[{"name":"","type":"uint256","internalType":"uint256"},{"name":"","type":"uint256","internalType":"uint256"}],"outputs":[{"name":"","type":"uint256","internalType":"uint256"}],"stateMutability":"view"},{"type":"function","name":"proposalIds","inputs":[{"name":"","type":"uint256","internalType":"uint256"}],"outputs":[{"name":"","type":"uint256","internalType":"uint256"}],"stateMutability":"view"},{"type":"function","name":"proposalIsDeleted","inputs":[{"name":"","type":"uint256","internalType":"uint256"}],"outputs":[{"name":"","type":"bool","internalType":"bool"}],"stateMutability":"view"},{"type":"function","name":"proposalVoteStructs","inputs":[{"name":"","type":"uint256","internalType":"uint256"}],"outputs":[{"name":"proposalVoteCount","type":"uint256","internalType":"uint256"}],"stateMutability":"view"},{"type":"function","name":"proposalVotes","inputs":[{"name":"proposalId","type":"uint256","internalType":"uint256"}],"outputs":[{"name":"voteCount","type":"uint256","internalType":"uint256"}],"stateMutability":"view"},{"type":"function","name":"proposals","inputs":[{"name":"","type":"uint256","internalType":"uint256"}],"outputs":[{"name":"author","type":"address","internalType":"address"},{"name":"exists","type":"bool","internalType":"bool"},{"name":"description","type":"string","internalType":"string"},{"name":"targetMetadata","type":"tuple","internalType":"struct Governor.TargetMetadata","components":[{"name":"targetAddress","type":"address","internalType":"address"}]},{"name":"safeMetadata","type":"tuple","internalType":"struct Governor.SafeMetadata","components":[{"name":"signers","type":"address[]","internalType":"address[]"},{"name":"threshold","type":"uint256","internalType":"uint256"}]},{"name":"fieldsMetadata","type":"tuple","internalType":"struct Governor.FieldsMetadata","components":[{"name":"addressArray","type":"address[]","internalType":"address[]"},{"name":"stringArray","type":"string[]","internalType":"string[]"},{"name":"uintArray","type":"uint256[]","internalType":"uint256[]"}]}],"stateMutability":"view"},{"type":"function","name":"propose","inputs":[{"name":"proposal","type":"tuple","internalType":"struct Governor.ProposalCore","components":[{"name":"author","type":"address","internalType":"address"},{"name":"exists","type":"bool","internalType":"bool"},{"name":"description","type":"string","internalType":"string"},{"name":"targetMetadata","type":"tuple","internalType":"struct Governor.TargetMetadata","components":[{"name":"targetAddress","type":"address","internalType":"address"}]},{"name":"safeMetadata","type":"tuple","internalType":"struct Governor.SafeMetadata","components":[{"name":"signers","type":"address[]","internalType":"address[]"},{"name":"threshold","type":"uint256","internalType":"uint256"}]},{"name":"fieldsMetadata","type":"tuple","internalType":"struct Governor.FieldsMetadata","components":[{"name":"addressArray","type":"address[]","internalType":"address[]"},{"name":"stringArray","type":"string[]","internalType":"string[]"},{"name":"uintArray","type":"uint256[]","internalType":"uint256[]"}]}]},{"name":"proof","type":"bytes32[]","internalType":"bytes32[]"}],"outputs":[{"name":"","type":"uint256","internalType":"uint256"}],"stateMutability":"payable"},{"type":"function","name":"proposeWithoutProof","inputs":[{"name":"proposal","type":"tuple","internalType":"struct Governor.ProposalCore","components":[{"name":"author","type":"address","internalType":"address"},{"name":"exists","type":"bool","internalType":"bool"},{"name":"description","type":"string","internalType":"string"},{"name":"targetMetadata","type":"tuple","internalType":"struct Governor.TargetMetadata","components":[{"name":"targetAddress","type":"address","internalType":"address"}]},{"name":"safeMetadata","type":"tuple","internalType":"struct Governor.SafeMetadata","components":[{"name":"signers","type":"address[]","internalType":"address[]"},{"name":"threshold","type":"uint256","internalType":"uint256"}]},{"name":"fieldsMetadata","type":"tuple","internalType":"struct Governor.FieldsMetadata","components":[{"name":"addressArray","type":"address[]","internalType":"address[]"},{"name":"stringArray","type":"string[]","internalType":"string[]"},{"name":"uintArray","type":"uint256[]","internalType":"uint256[]"}]}]}],"outputs":[{"name":"","type":"uint256","internalType":"uint256"}],"stateMutability":"payable"},{"type":"function","name":"rankLimit","inputs":[],"outputs":[{"name":"","type":"uint256","internalType":"uint256"}],"stateMutability":"view"},{"type":"function","name":"setCreatorSplitDestination","inputs":[{"name":"newCreatorSplitDestination","type":"address","internalType":"address"}],"outputs":[],"stateMutability":"nonpayable"},{"type":"function","name":"setJkLabsSplitDestination","inputs":[{"name":"newJkLabsSplitDestination","type":"address","internalType":"address"}],"outputs":[],"stateMutability":"nonpayable"},{"type":"function","name":"setName","inputs":[{"name":"newName","type":"string","internalType":"string"}],"outputs":[{"name":"","type":"string","internalType":"string"}],"stateMutability":"nonpayable"},{"type":"function","name":"setOfficialRewardsModule","inputs":[{"name":"officialRewardsModule_","type":"address","internalType":"address"}],"outputs":[],"stateMutability":"nonpayable"},{"type":"function","name":"setPrompt","inputs":[{"name":"newPrompt","type":"string","internalType":"string"}],"outputs":[{"name":"","type":"string","internalType":"string"}],"stateMutability":"nonpayable"},{"type":"function","name":"setSubmissionMerkleRoot","inputs":[{"name":"newSubmissionMerkleRoot","type":"bytes32","internalType":"bytes32"}],"outputs":[],"stateMutability":"nonpayable"},{"type":"function","name":"setVotingMerkleRoot","inputs":[{"name":"newVotingMerkleRoot","type":"bytes32","internalType":"bytes32"}],"outputs":[],"stateMutability":"nonpayable"},{"type":"function","name":"sortedRanks","inputs":[{"name":"","type":"uint256","internalType":"uint256"}],"outputs":[{"name":"","type":"uint256","internalType":"uint256"}],"stateMutability":"view"},{"type":"function","name":"sortingEnabled","inputs":[],"outputs":[{"name":"","type":"uint256","internalType":"uint256"}],"stateMutability":"view"},{"type":"function","name":"state","inputs":[],"outputs":[{"name":"","type":"uint8","internalType":"enum Governor.ContestState"}],"stateMutability":"view"},{"type":"function","name":"submissionMerkleRoot","inputs":[],"outputs":[{"name":"","type":"bytes32","internalType":"bytes32"}],"stateMutability":"view"},{"type":"function","name":"totalVotesCast","inputs":[],"outputs":[{"name":"","type":"uint256","internalType":"uint256"}],"stateMutability":"view"},{"type":"function","name":"validateProposalData","inputs":[{"name":"proposal","type":"tuple","internalType":"struct Governor.ProposalCore","components":[{"name":"author","type":"address","internalType":"address"},{"name":"exists","type":"bool","internalType":"bool"},{"name":"description","type":"string","internalType":"string"},{"name":"targetMetadata","type":"tuple","internalType":"struct Governor.TargetMetadata","components":[{"name":"targetAddress","type":"address","internalType":"address"}]},{"name":"safeMetadata","type":"tuple","internalType":"struct Governor.SafeMetadata","components":[{"name":"signers","type":"address[]","internalType":"address[]"},{"name":"threshold","type":"uint256","internalType":"uint256"}]},{"name":"fieldsMetadata","type":"tuple","internalType":"struct Governor.FieldsMetadata","components":[{"name":"addressArray","type":"address[]","internalType":"address[]"},{"name":"stringArray","type":"string[]","internalType":"string[]"},{"name":"uintArray","type":"uint256[]","internalType":"uint256[]"}]}]}],"outputs":[],"stateMutability":"view"},{"type":"function","name":"verifyProposer","inputs":[{"name":"account","type":"address","internalType":"address"},{"name":"proof","type":"bytes32[]","internalType":"bytes32[]"}],"outputs":[],"stateMutability":"nonpayable"},{"type":"function","name":"verifyVoter","inputs":[{"name":"account","type":"address","internalType":"address"},{"name":"totalVotes","type":"uint256","internalType":"uint256"},{"name":"proof","type":"bytes32[]","internalType":"bytes32[]"}],"outputs":[],"stateMutability":"nonpayable"},{"type":"function","name":"version","inputs":[],"outputs":[{"name":"","type":"string","internalType":"string"}],"stateMutability":"pure"},{"type":"function","name":"voteStart","inputs":[],"outputs":[{"name":"","type":"uint256","internalType":"uint256"}],"stateMutability":"view"},{"type":"function","name":"votesToProposalIds","inputs":[{"name":"","type":"uint256","internalType":"uint256"},{"name":"","type":"uint256","internalType":"uint256"}],"outputs":[{"name":"","type":"uint256","internalType":"uint256"}],"stateMutability":"view"},{"type":"function","name":"votingDelay","inputs":[],"outputs":[{"name":"","type":"uint256","internalType":"uint256"}],"stateMutability":"view"},{"type":"function","name":"votingMerkleRoot","inputs":[],"outputs":[{"name":"","type":"bytes32","internalType":"bytes32"}],"stateMutability":"view"},{"type":"function","name":"votingPeriod","inputs":[],"outputs":[{"name":"","type":"uint256","internalType":"uint256"}],"stateMutability":"view"},{"type":"event","name":"CommentCreated","inputs":[{"name":"commentId","type":"uint256","indexed":false,"internalType":"uint256"}],"anonymous":false},{"type":"event","name":"CommentsDeleted","inputs":[{"name":"commentIds","type":"uint256[]","indexed":false,"internalType":"uint256[]"}],"anonymous":false},{"type":"event","name":"ContestCanceled","inputs":[],"anonymous":false},{"type":"event","name":"CreatorPaymentReleased","inputs":[{"name":"to","type":"address","indexed":false,"internalType":"address"},{"name":"amount","type":"uint256","indexed":false,"internalType":"uint256"}],"anonymous":false},{"type":"event","name":"JkLabsPaymentReleased","inputs":[{"name":"to","type":"address","indexed":false,"internalType":"address"},{"name":"amount","type":"uint256","indexed":false,"internalType":"uint256"}],"anonymous":false},{"type":"event","name":"JokeraceCreated","inputs":[{"name":"version","type":"string","indexed":false,"internalType":"string"},{"name":"name","type":"string","indexed":false,"internalType":"string"},{"name":"prompt","type":"string","indexed":false,"internalType":"string"},{"name":"creator","type":"address","indexed":false,"internalType":"address"},{"name":"contestStart","type":"uint256","indexed":false,"internalType":"uint256"},{"name":"votingDelay","type":"uint256","indexed":false,"internalType":"uint256"},{"name":"votingPeriod","type":"uint256","indexed":false,"internalType":"uint256"}],"anonymous":false},{"type":"event","name":"OfficialRewardsModuleSet","inputs":[{"name":"oldOfficialRewardsModule","type":"address","indexed":false,"internalType":"address"},{"name":"newOfficialRewardsModule","type":"address","indexed":false,"internalType":"address"}],"anonymous":false},{"type":"event","name":"ProposalCreated","inputs":[{"name":"proposalId","type":"uint256","indexed":false,"internalType":"uint256"},{"name":"proposer","type":"address","indexed":false,"internalType":"address"},{"name":"proposalDescription","type":"string","indexed":false,"internalType":"string"}],"anonymous":false},{"type":"event","name":"ProposalsDeleted","inputs":[{"name":"proposalIds","type":"uint256[]","indexed":false,"internalType":"uint256[]"}],"anonymous":false},{"type":"event","name":"VoteCast","inputs":[{"name":"voter","type":"address","indexed":true,"internalType":"address"},{"name":"proposalId","type":"uint256","indexed":false,"internalType":"uint256"},{"name":"numVotes","type":"uint256","indexed":false,"internalType":"uint256"}],"anonymous":false},{"type":"error","name":"AddressFieldMetadataArrayTooLong","inputs":[]},{"type":"error","name":"AddressNotPermissionedToSubmit","inputs":[]},{"type":"error","name":"AuthorIsNotSender","inputs":[{"name":"author","type":"address","internalType":"address"},{"name":"sender","type":"address","internalType":"address"}]},{"type":"error","name":"CannotCancelWhenCompletedOrCanceled","inputs":[]},{"type":"error","name":"CannotCommentWhenCompletedOrCanceled","inputs":[]},{"type":"error","name":"CannotDeleteWhenCompletedOrCanceled","inputs":[]},{"type":"error","name":"CannotSetWhenCompletedOrCanceled","inputs":[]},{"type":"error","name":"CannotUpdateWhenCompletedOrCanceled","inputs":[]},{"type":"error","name":"CannotVoteLessThanOneVoteInPayPerVote","inputs":[]},{"type":"error","name":"CannotVoteOnDeletedProposal","inputs":[]},{"type":"error","name":"ContestAlreadyCanceled","inputs":[]},{"type":"error","name":"ContestMustBeActiveToVote","inputs":[{"name":"currentState","type":"uint8","internalType":"enum Governor.ContestState"}]},{"type":"error","name":"ContestMustBeQueuedToPropose","inputs":[{"name":"currentState","type":"uint8","internalType":"enum Governor.ContestState"}]},{"type":"error","name":"ContestSubmissionLimitReached","inputs":[{"name":"maxProposalCount","type":"uint256","internalType":"uint256"}]},{"type":"error","name":"DuplicateSubmission","inputs":[{"name":"proposalId","type":"uint256","internalType":"uint256"}]},{"type":"error","name":"EmptyProposalDescription","inputs":[]},{"type":"error","name":"IncorrectCostSent","inputs":[{"name":"msgValue","type":"uint256","internalType":"uint256"},{"name":"costToVote","type":"uint256","internalType":"uint256"}]},{"type":"error","name":"IndexHasNotBeenPopulated","inputs":[]},{"type":"error","name":"MoreThanOneProposalWithThisManyVotes","inputs":[]},{"type":"error","name":"NeedAtLeastOneVoteToVote","inputs":[]},{"type":"error","name":"NeedToSubmitWithProofFirst","inputs":[]},{"type":"error","name":"NeedToVoteWithProofFirst","inputs":[]},{"type":"error","name":"NotEnoughVotesLeft","inputs":[]},{"type":"error","name":"NotInMerkle","inputs":[]},{"type":"error","name":"OfficialRewardsModuleMustPointToThisContest","inputs":[]},{"type":"error","name":"OnlyCreatorCanAmend","inputs":[]},{"type":"error","name":"OnlyCreatorCanSetName","inputs":[]},{"type":"error","name":"OnlyCreatorCanSetPrompt","inputs":[]},{"type":"error","name":"OnlyCreatorCanSetRewardsModule","inputs":[]},{"type":"error","name":"OnlyCreatorOrAuthorCanDeleteComments","inputs":[{"name":"failedToDeleteCommentId","type":"uint256","internalType":"uint256"}]},{"type":"error","name":"OnlyCreatorOrEntrantCanDelete","inputs":[]},{"type":"error","name":"OnlyCreatorOrJkLabsCanCancel","inputs":[]},{"type":"error","name":"OnlyJkLabsCanAmend","inputs":[]},{"type":"error","name":"PayPerVoteMustBeEnabledForAnyoneCanVote","inputs":[]},{"type":"error","name":"RankCannotBeZero","inputs":[]},{"type":"error","name":"RankIsNotInSortedRanks","inputs":[]},{"type":"error","name":"SenderSubmissionLimitReached","inputs":[{"name":"numAllowedProposalSubmissions","type":"uint256","internalType":"uint256"}]},{"type":"error","name":"StringFieldMetadataArrayTooLong","inputs":[]},{"type":"error","name":"UintFieldMetadataArrayTooLong","inputs":[]},{"type":"error","name":"UnexpectedMetadata","inputs":[{"name":"unexpectedMetadata","type":"uint8","internalType":"enum Governor.Metadatas"}]},{"type":"error","name":"ZeroSignersInSafeMetadata","inputs":[]},{"type":"error","name":"ZeroThresholdInSafeMetadata","inputs":[]}],"bytecode":{"object":"0x60806040523480156200001157600080fd5b5060405162005833380380620058338339810160408190526200003491620002f8565b805160a081015160c09091015160009190915560015560038390556004829055848482600562000065848262000520565b50600662000074838262000520565b5060078054336001600160a01b03199182161790915581518051600855602080820151600955604080830151600a55606080840151600b556080840151600c5560e0840151600d55610100840151600e55610120840151600f5561014090930151601055908401516011805485166001600160a01b03928316179055908401516012805490941691161790915581015160139062000113908262000520565b506040805180820182526003815262352e3560e81b60208083019190915283518051918101519084015193517f9a9bca21e4e51607db64fbdbcd7b2284a909c6a8969821f0d161efbdcae7016094620001749493899389933393906200061a565b60405180910390a1505082159050801562000193575080516101400151155b15620001b2576040516397b6be7d60e01b815260040160405180910390fd5b505050505062000689565b634e487b7160e01b600052604160045260246000fd5b604051608081016001600160401b0381118282101715620001f857620001f8620001bd565b60405290565b60405161016081016001600160401b0381118282101715620001f857620001f8620001bd565b60005b838110156200024157818101518382015260200162000227565b50506000910152565b600082601f8301126200025c57600080fd5b81516001600160401b0380821115620002795762000279620001bd565b604051601f8301601f19908116603f01168101908282118183101715620002a457620002a4620001bd565b81604052838152866020858801011115620002be57600080fd5b620002d184602083016020890162000224565b9695505050505050565b80516001600160a01b0381168114620002f357600080fd5b919050565b600080600080600060a086880312156200031157600080fd5b85516001600160401b03808211156200032957600080fd5b6200033789838a016200024a565b965060208801519150808211156200034e57600080fd5b6200035c89838a016200024a565b9550604088015194506060880151935060808801519150808211156200038157600080fd5b908701908189036101c08112156200039857600080fd5b620003a2620001d3565b61016080831215620003b357600080fd5b620003bd620001fe565b9250845183526020850151602084015260408501516040840152606085015160608401526080850151608084015260a085015160a084015260c085015160c084015260e085015160e08401526101008086015181850152506101208086015181850152506101408086015181850152508282526200043d818601620002db565b602083015250620004526101808501620002db565b60408201526101a08401519150828211156200046d57600080fd5b6200047b8b8386016200024a565b6060820152809450505050509295509295909350565b600181811c90821680620004a657607f821691505b602082108103620004c757634e487b7160e01b600052602260045260246000fd5b50919050565b601f8211156200051b57600081815260208120601f850160051c81016020861015620004f65750805b601f850160051c820191505b81811015620005175782815560010162000502565b5050505b505050565b81516001600160401b038111156200053c576200053c620001bd565b62000554816200054d845462000491565b84620004cd565b602080601f8311600181146200058c5760008415620005735750858301515b600019600386901b1c1916600185901b17855562000517565b600085815260208120601f198616915b82811015620005bd578886015182559484019460019091019084016200059c565b5085821015620005dc5787850151600019600388901b60f8161c191681555b5050505050600190811b01905550565b600081518084526200060681602086016020860162000224565b601f01601f19169290920160200192915050565b60e0815260006200062f60e083018a620005ec565b828103602084015262000643818a620005ec565b90508281036040840152620006598189620005ec565b6001600160a01b039790971660608401525050608081019390935260a083019190915260c0909101529392505050565b61519a80620006996000396000f3fe6080604052600436106104eb5760003560e01c80637de418d51161028c578063cb8539501161015a578063ea8a1af0116100cc578063f5c3641111610085578063f5c3641114610f9f578063f61736f414610fbf578063f79c017214610fdf578063f823f1101461100f578063f82e54c014611022578063fb9bf8d41461104257600080fd5b8063ea8a1af014610ef7578063edcd1be414610f0c578063eef18e1714610f22578063efa90d3614610f4a578063f0a7db0a14610f5f578063f4f3d7ec14610f7f57600080fd5b8063daf762db1161011e578063daf762db14610e3e578063dd96a19d14610e5e578063dda54fcf14610e74578063dea5f6a614610ea0578063e031535b14610ecd578063e11db9d814610ee257600080fd5b8063cb85395014610d99578063cbdc27cb14610dc9578063d140d9f014610dde578063d576b81d14610dfe578063d798902514610e1e57600080fd5b8063ac67f801116101fe578063bc022c98116101b7578063bc022c9814610cc7578063bddc164114610cf4578063c05f410414610d0a578063c19d93fb14610d2a578063c47f002714610d4c578063c7f758a814610d6c57600080fd5b8063ac67f80114610bed578063ae66b8ad14610c0d578063aec116b614610c3d578063b323580d14610c72578063b382543f14610c92578063b4ac024f14610ca757600080fd5b8063930de97911610250578063930de97914610b42578063946369b514610b725780639b338aa014610b875780639b644a2314610ba7578063a84ff54b14610bc7578063ab5e694714610bda57600080fd5b80637de418d514610ab3578063832009af14610ac957806389ab5f5414610adf5780638ebb4c1514610af25780639174778c14610b2257600080fd5b80633932abb1116103c9578063544ffc9c1161033b5780636e4eb810116102f45780636e4eb810146109df5780636ed815ad14610a265780636fd3636b14610a3c57806375e509c514610a51578063785ddfe514610a7e5780637c65d71114610a9e57600080fd5b8063544ffc9c1461091c57806354fd4d50146109495780635c7107d8146109755780635cb718a11461099557806360ed97a9146109aa5780636d030621146109bf57600080fd5b80634d24a67f1161038d5780634d24a67f1461086e57806350a5e5241461088357806350c4b616146108a657806351a41dec146108c6578063531bd812146108dc578063544c7bb4146108fc57600080fd5b80633932abb1146107de5780633f9942ff146107f45780633fb57c921461080e578063409fd0301461082e5780634a587ad41461084e57600080fd5b80631242b73711610462578063262e59e911610426578063262e59e9146107255780632c39805f1461073a578063325cc6d91461075c57806332763c221461077c578063347cf665146107ac578063366ecf5b146107c857600080fd5b80631242b73714610674578063146230f61461069657806315dee7cd146106b85780631805c523146106e557806320b3e8451461070557600080fd5b80630414126a116104b45780630414126a146105af57806305846cae146105c557806306fdde03146105e55780630800e300146106075780630aa25e4414610634578063102613d81461065457600080fd5b80624114a8146104f0578063013cf08b1461051957806302a251a31461054b57806302d05d3f1461056157806303f7eed614610599575b600080fd5b3480156104fc57600080fd5b5061050660085481565b6040519081526020015b60405180910390f35b34801561052557600080fd5b506105396105343660046141c6565b611058565b60405161051096959493929190614356565b34801561055757600080fd5b50610506600a5481565b34801561056d57600080fd5b50600754610581906001600160a01b031681565b6040516001600160a01b039091168152602001610510565b3480156105a557600080fd5b5061050660105481565b3480156105bb57600080fd5b5061050660015481565b3480156105d157600080fd5b506105066105e03660046141c6565b611343565b3480156105f157600080fd5b506105fa611364565b60405161051091906143b0565b34801561061357600080fd5b506106276106223660046141c6565b6113f2565b60405161051091906143c3565b34801561064057600080fd5b5061058161064f3660046141c6565b611506565b34801561066057600080fd5b50601254610581906001600160a01b031681565b34801561068057600080fd5b50610689611530565b6040516105109190614404565b3480156106a257600080fd5b506106b66106b136600461443c565b611588565b005b3480156106c457600080fd5b506105066106d33660046141c6565b60216020526000908152604090205481565b3480156106f157600080fd5b50610506610700366004614558565b611632565b34801561071157600080fd5b506106b66107203660046145e9565b6117af565b34801561073157600080fd5b5061050661181e565b34801561074657600080fd5b5061074f61183a565b604051610510919061463d565b34801561076857600080fd5b506105066107773660046141c6565b61189b565b34801561078857600080fd5b5061079c61079736600461469a565b6118ab565b6040519015158152602001610510565b3480156107b857600080fd5b50610506678ac7230489e8000081565b3480156107d457600080fd5b5061050660005481565b3480156107ea57600080fd5b5061050660095481565b34801561080057600080fd5b5060175461079c9060ff1681565b34801561081a57600080fd5b506105066108293660046141c6565b6119aa565b34801561083a57600080fd5b5061050661084936600461470a565b6119ba565b34801561085a57600080fd5b50601154610581906001600160a01b031681565b34801561087a57600080fd5b506105066119eb565b34801561088f57600080fd5b506108986119fa565b6040516105109291906147b5565b3480156108b257600080fd5b506105816108c13660046141c6565b611ac5565b3480156108d257600080fd5b50610506600f5481565b3480156108e857600080fd5b506106b66108f73660046147da565b611ad5565b34801561090857600080fd5b506106b66109173660046141c6565b611b4a565b34801561092857600080fd5b506105066109373660046141c6565b60009081526021602052604090205490565b34801561095557600080fd5b50604080518082019091526003815262352e3560e81b60208201526105fa565b34801561098157600080fd5b506105066109903660046141c6565b611bd7565b3480156109a157600080fd5b50610689611cde565b3480156109b657600080fd5b506105fa611d34565b3480156109cb57600080fd5b506105066109da366004614835565b611d41565b3480156109eb57600080fd5b506105066109fa366004614857565b60008281526021602090815260408083206001600160a01b038516845260020190915290205492915050565b348015610a3257600080fd5b50610506600e5481565b348015610a4857600080fd5b50610689611d72565b348015610a5d57600080fd5b50610506610a6c36600461443c565b60196020526000908152604090205481565b348015610a8a57600080fd5b50602354610581906001600160a01b031681565b348015610aaa57600080fd5b506105fa611dc8565b348015610abf57600080fd5b50610506601f5481565b348015610ad557600080fd5b50610506600b5481565b610506610aed366004614835565b611dd5565b348015610afe57600080fd5b50610b12610b0d3660046141c6565b611e71565b6040516105109493929190614887565b348015610b2e57600080fd5b5061079c610b3d3660046141c6565b611f2e565b348015610b4e57600080fd5b5061079c610b5d36600461443c565b601d6020526000908152604090205460ff1681565b348015610b7e57600080fd5b5061074f611fd4565b348015610b9357600080fd5b506106b6610ba236600461443c565b612034565b348015610bb357600080fd5b50610506610bc23660046141c6565b6120e7565b610506610bd53660046148be565b6120f7565b610506610be8366004614936565b612163565b348015610bf957600080fd5b506106b6610c083660046149f8565b6121dd565b348015610c1957600080fd5b5061079c610c283660046141c6565b60286020526000908152604090205460ff1681565b348015610c4957600080fd5b50610506610c5836600461443c565b6001600160a01b0316600090815260208052604090205490565b348015610c7e57600080fd5b5061074f610c8d3660046141c6565b612374565b348015610c9e57600080fd5b50610506600a81565b348015610cb357600080fd5b506105fa610cc2366004614a2c565b6123e6565b348015610cd357600080fd5b50610506610ce23660046141c6565b60009081526022602052604090205490565b348015610d0057600080fd5b5061050660035481565b348015610d1657600080fd5b50610689610d253660046141c6565b612484565b348015610d3657600080fd5b50610d3f6124e6565b6040516105109190614a76565b348015610d5857600080fd5b506105fa610d67366004614a2c565b612537565b348015610d7857600080fd5b50610d8c610d873660046141c6565b6125ce565b6040516105109190614a90565b348015610da557600080fd5b5061079c610db436600461443c565b601e6020526000908152604090205460ff1681565b348015610dd557600080fd5b5061074f6128ee565b348015610dea57600080fd5b506106b6610df9366004614dff565b612a1e565b348015610e0a57600080fd5b50610506610e193660046141c6565b612c05565b348015610e2a57600080fd5b50610506610e39366004614dff565b612c65565b348015610e4a57600080fd5b506106b6610e593660046141c6565b612c78565b348015610e6a57600080fd5b5061050660045481565b348015610e8057600080fd5b50610506610e8f36600461443c565b602080526000908152604090205481565b348015610eac57600080fd5b50610506610ebb36600461443c565b601c6020526000908152604090205481565b348015610ed957600080fd5b50610506612d05565b348015610eee57600080fd5b50610689612d17565b348015610f0357600080fd5b506106b6612d6d565b348015610f1857600080fd5b50610506600d5481565b348015610f2e57600080fd5b5061058173dc652c746a8f85e18ce632d97c6118e8a52fa73881565b348015610f5657600080fd5b50610689612e4f565b348015610f6b57600080fd5b506106b6610f7a366004614e33565b612ea5565b348015610f8b57600080fd5b506106b6610f9a36600461443c565b61303b565b348015610fab57600080fd5b50610506610fba3660046141c6565b613153565b348015610fcb57600080fd5b50610506610fda366004614835565b613163565b348015610feb57600080fd5b5061079c610ffa3660046141c6565b60166020526000908152604090205460ff1681565b61050661101d366004614e74565b61317f565b34801561102e57600080fd5b5061068961103d3660046141c6565b6131c8565b34801561104e57600080fd5b50610506600c5481565b601860205260009081526040902080546001820180546001600160a01b03831693600160a01b90930460ff1692919061109090614ecf565b80601f01602080910402602001604051908101604052809291908181526020018280546110bc90614ecf565b80156111095780601f106110de57610100808354040283529160200191611109565b820191906000526020600020905b8154815290600101906020018083116110ec57829003601f168201915b5050604080516020808201835260028801546001600160a01b03168252825160038901805460609381028301840186529482018581529899939893975090955093508492849184018282801561118857602002820191906000526020600020905b81546001600160a01b0316815260019091019060200180831161116a575b5050505050815260200160018201548152505090806005016040518060600160405290816000820180548060200260200160405190810160405280929190818152602001828054801561120457602002820191906000526020600020905b81546001600160a01b031681526001909101906020018083116111e6575b5050505050815260200160018201805480602002602001604051908101604052809291908181526020016000905b828210156112de57838290600052602060002001805461125190614ecf565b80601f016020809104026020016040519081016040528092919081815260200182805461127d90614ecf565b80156112ca5780601f1061129f576101008083540402835291602001916112ca565b820191906000526020600020905b8154815290600101906020018083116112ad57829003601f168201915b505050505081526020019060010190611232565b5050505081526020016002820180548060200260200160405190810160405280929190818152602001828054801561133557602002820191906000526020600020905b815481526020019060010190808311611321575b505050505081525050905086565b6015818154811061135357600080fd5b600091825260209091200154905081565b6005805461137190614ecf565b80601f016020809104026020016040519081016040528092919081815260200182805461139d90614ecf565b80156113ea5780601f106113bf576101008083540402835291602001916113ea565b820191906000526020600020905b8154815290600101906020018083116113cd57829003601f168201915b505050505081565b611426604051806080016040528060006001600160a01b031681526020016000815260200160008152602001606081525090565b600082815260266020908152604091829020825160808101845281546001600160a01b0316815260018201549281019290925260028101549282019290925260038201805491929160608401919061147d90614ecf565b80601f01602080910402602001604051908101604052809291908181526020018280546114a990614ecf565b80156114f65780601f106114cb576101008083540402835291602001916114f6565b820191906000526020600020905b8154815290600101906020018083116114d957829003601f168201915b5050505050815250509050919050565b601a818154811061151657600080fd5b6000918252602090912001546001600160a01b0316905081565b6060601580548060200260200160405190810160405280929190818152602001828054801561157e57602002820191906000526020600020905b81548152602001906001019080831161156a575b5050505050905090565b6007546001600160a01b031633146115b35760405163141dbb4960e21b815260040160405180910390fd5b60046115bd6124e6565b60048111156115ce576115ce614a60565b14806115f2575060026115df6124e6565b60048111156115f0576115f0614a60565b145b15611610576040516398fe99a560e01b815260040160405180910390fd5b601180546001600160a01b0319166001600160a01b0392909216919091179055565b6000600461163e6124e6565b600481111561164f5761164f614a60565b1480611673575060026116606124e6565b600481111561167157611671614a60565b145b156116905760405162f3e73d60e81b815260040160405180910390fd5b604080516080810182523381524260208201529081018490526060810183905260006116bb826119ba565b6024805460018082019092557f7cd332d19b93bcabe3cce7ca0c18a052f57e5fd03b4758a09f30f5ddc4b22ec401829055600082815260266020908152604091829020865181546001600160a01b0319166001600160a01b03909116178155908601519281019290925584015160028201556060840151919250839160038201906117469082614f49565b505050600085815260276020908152604080832080546001810182559084529190922001829055517f5a1a930fed43f34b3a07db782ebcac28a661c273e662bb98458cfba5a8ccd2209061179d9083815260200190565b60405180910390a19150505b92915050565b6001600160a01b0383166000908152601e602052604090205460ff16611819576003546000036117de57505050565b6117f483678ac7230489e80000848460006118ab565b506001600160a01b0383166000908152601e60205260409020805460ff191660011790555b505050565b6000600a5461182b612d05565b611835919061501e565b905090565b6060601b80548060200260200160405190810160405280929190818152602001828054801561157e57602002820191906000526020600020905b81546001600160a01b03168152600190910190602001808311611874575050505050905090565b6002818154811061135357600080fd5b6040516bffffffffffffffffffffffff19606087901b16602082015260348101859052600090819060540160405160208183030381529060405280519060200120905060008361193b57611936868680806020026020016040519081016040528093929190818152602001838360200280828437600092019190915250506003549150859050613228565b61197c565b61197c868680806020026020016040519081016040528093929190818152602001838360200280828437600092019190915250506004549150859050613228565b90508061199c5760405163452c2df160e11b815260040160405180910390fd5b506001979650505050505050565b6025818154811061135357600080fd5b6000816040516020016119cd91906143c3565b60408051601f19818403018152919052805160209091012092915050565b6119f76002600161501e565b81565b6060806000611a07612e4f565b9050600081516001600160401b03811115611a2457611a24614459565b604051908082528060200260200182016040528015611a4d578160200160208202803683370190505b50905060005b8251811015611abb5760216000848381518110611a7257611a72615031565b6020026020010151815260200190815260200160002060000154828281518110611a9e57611a9e615031565b602090810291909101015280611ab381615047565b915050611a53565b5090939092509050565b601b818154811061151657600080fd5b60045415801590611aff57506001600160a01b0384166000908152601d602052604090205460ff16155b15611b4457611b128484848460016118ab565b506001600160a01b0384166000908152601c60209081526040808320869055601d9091529020805460ff191660011790555b50505050565b6007546001600160a01b03163314611b755760405163141dbb4960e21b815260040160405180910390fd5b6004611b7f6124e6565b6004811115611b9057611b90614a60565b1480611bb457506002611ba16124e6565b6004811115611bb257611bb2614a60565b145b15611bd2576040516398fe99a560e01b815260040160405180910390fd5b600455565b600081600003611bfa57604051630ec90a1760e31b815260040160405180910390fd5b60028054604080516020808402820181019092528281529192600092918490830182828015611c4857602002820191906000526020600020905b815481526020019060010190808311611c34575b5050505050905060006001905060005b83811015611cc457611c8f838281518110611c7557611c75615031565b602002602001015160009081526022602052604090205490565b15611cb257858203611ca45795945050505050565b81611cae81615047565b9250505b80611cbc81615047565b915050611c58565b50604051632cc2ab7360e11b815260040160405180910390fd5b6060602580548060200260200160405190810160405280929190818152602001828054801561157e576020028201919060005260206000209081548152602001906001019080831161156a575050505050905090565b6013805461137190614ecf565b60226020528160005260406000208181548110611d5d57600080fd5b90600052602060002001600091509150505481565b6060600280548060200260200160405190810160405280929190818152602001828054801561157e576020028201919060005260206000209081548152602001906001019080831161156a575050505050905090565b6006805461137190614ecf565b600080611de360018461323e565b60008581526016602052604090205490915060ff1615611e16576040516358f1119560e01b815260040160405180910390fd5b60045415801590611e375750336000908152601d602052604090205460ff16155b15611e555760405163126ec6d160e31b815260040160405180910390fd5b611e5e8161330a565b611e69843385613411565b949350505050565b60266020526000908152604090208054600182015460028301546003840180546001600160a01b03909416949293919291611eab90614ecf565b80601f0160208091040260200160405190810160405280929190818152602001828054611ed790614ecf565b8015611f245780601f10611ef957610100808354040283529160200191611f24565b820191906000526020600020905b815481529060010190602001808311611f0757829003601f168201915b5050505050905084565b600254600090611f4090600190615060565b821115611f60576040516365d6f35160e11b815260040160405180910390fd5b60005b611f6e83600161501e565b811015611fcb576001611faa60028381548110611f8d57611f8d615031565b906000526020600020015460009081526022602052604090205490565b1115611fb95750600192915050565b80611fc381615047565b915050611f63565b50600092915050565b6060601a80548060200260200160405190810160405280929190818152602001828054801561157e576020028201919060005260206000209081546001600160a01b03168152600190910190602001808311611874575050505050905090565b3373dc652c746a8f85e18ce632d97c6118e8a52fa738146120685760405163de07280160e01b815260040160405180910390fd5b60046120726124e6565b600481111561208357612083614a60565b14806120a7575060026120946124e6565b60048111156120a5576120a5614a60565b145b156120c5576040516398fe99a560e01b815260040160405180910390fd5b601280546001600160a01b0319166001600160a01b0392909216919091179055565b6014818154811061135357600080fd5b60008061210560018661323e565b60008881526016602052604090205490915060ff1615612138576040516358f1119560e01b815260040160405180910390fd5b61214433878686611ad5565b61214d8161330a565b612158873387613411565b979650505050505050565b60008061217160008061323e565b600354909150156121ac57336000908152601e602052604090205460ff166121ac57604051631f22097560e01b815260040160405180910390fd5b6121b8610df984615073565b60006121cb6121c685615073565b613543565b90506121d68261330a565b9392505050565b60046121e76124e6565b60048111156121f8576121f8614a60565b148061221c575060026122096124e6565b600481111561221a5761221a614a60565b145b1561223a57604051631e71d28360e21b815260040160405180910390fd5b805160005b8181101561233857600083828151811061225b5761225b615031565b60209081029190910101516007549091506001600160a01b0316331480159061229b57506000818152602660205260409020546001600160a01b03163314155b156122c157604051635450763d60e11b8152600481018290526024015b60405180910390fd5b60008181526028602052604090205460ff16612325576000818152602860205260408120805460ff191660019081179091556025805491820181559091527f401968ff42a154441da5f6c4c935ac46b8671f0e062baaa62a7545ba53bb6e4c018190555b508061233081615047565b91505061223f565b507f788a4349d25bc08585923ae212bce8bb346a623bce753eeecb85fd9ce58dcb4b826040516123689190614404565b60405180910390a15050565b60008181526021602090815260409182902060018101805484518185028101850190955280855260609492938301828280156123d957602002820191906000526020600020905b81546001600160a01b031681526001909101906020018083116123bb575b5050505050915050919050565b6007546060906001600160a01b0316331461241457604051630aca3d7160e11b815260040160405180910390fd5b600461241e6124e6565b600481111561242f5761242f614a60565b1480612453575060026124406124e6565b600481111561245157612451614a60565b145b1561247157604051635b0747e760e01b815260040160405180910390fd5b600661247d8382614f49565b5090919050565b6000818152602760209081526040918290208054835181840281018401909452808452606093928301828280156124da57602002820191906000526020600020905b8154815260200190600101908083116124c6575b50505050509050919050565b60175460009060ff16156124fa5750600290565b42600854106125095750600090565b42612512612d05565b1061251d5750600390565b4261252661181e565b106125315750600190565b50600490565b6007546060906001600160a01b0316331461256557604051637d1cb2b160e01b815260040160405180910390fd5b600461256f6124e6565b600481111561258057612580614a60565b14806125a4575060026125916124e6565b60048111156125a2576125a2614a60565b145b156125c257604051635b0747e760e01b815260040160405180910390fd5b600561247d8382614f49565b6125d6613fce565b600082815260186020908152604091829020825160c08101845281546001600160a01b0381168252600160a01b900460ff16151592810192909252600181018054929391929184019161262890614ecf565b80601f016020809104026020016040519081016040528092919081815260200182805461265490614ecf565b80156126a15780601f10612676576101008083540402835291602001916126a1565b820191906000526020600020905b81548152906001019060200180831161268457829003601f168201915b5050509183525050604080516020818101835260028501546001600160a01b0316825280840191909152815160038501805460609381028301840185528285018181529490950194919390928492849184018282801561272a57602002820191906000526020600020905b81546001600160a01b0316815260019091019060200180831161270c575b50505050508152602001600182015481525050815260200160058201604051806060016040529081600082018054806020026020016040519081016040528092919081815260200182805480156127aa57602002820191906000526020600020905b81546001600160a01b0316815260019091019060200180831161278c575b5050505050815260200160018201805480602002602001604051908101604052809291908181526020016000905b828210156128845783829060005260206000200180546127f790614ecf565b80601f016020809104026020016040519081016040528092919081815260200182805461282390614ecf565b80156128705780601f1061284557610100808354040283529160200191612870565b820191906000526020600020905b81548152906001019060200180831161285357829003601f168201915b5050505050815260200190600101906127d8565b505050508152602001600282018054806020026020016040519081016040528092919081815260200182805480156128db57602002820191906000526020600020905b8154815260200190600101908083116128c7575b5050509190925250505090525092915050565b60606000601580548060200260200160405190810160405280929190818152602001828054801561293e57602002820191906000526020600020905b81548152602001906001019080831161292a575b50505050509050600081516001600160401b0381111561296057612960614459565b604051908082528060200260200182016040528015612989578160200160208202803683370190505b50905060005b8251811015612a1757601860008483815181106129ae576129ae615031565b6020026020010151815260200190815260200160002060000160009054906101000a90046001600160a01b03168282815181106129ed576129ed615031565b6001600160a01b039092166020928302919091019091015280612a0f81615047565b91505061298f565b5092915050565b80516001600160a01b03163314612a5c57805160405163fbbf4d7f60e01b81526001600160a01b0390911660048201523360248201526044016122b8565b60005b612a6b6002600161501e565b811015612bdb576000816002811115612a8657612a86614a60565b90506000816002811115612a9c57612a9c614a60565b03612aa75750612bc9565b6001816002811115612abb57612abb614a60565b03612b155760808301515151600003612ae75760405163c3b2798b60e01b815260040160405180910390fd5b826080015160200151600003612b10576040516392fb9a3560e01b815260040160405180910390fd5b612bc7565b6002816002811115612b2957612b29614a60565b03612bac5760a08301515151600a1015612b5657604051631e38b1b160e11b815260040160405180910390fd5b600a8360a0015160200151511115612b815760405163a3b7dd7760e01b815260040160405180910390fd5b600a8360a0015160400151511115612b105760405163f696406560e01b815260040160405180910390fd5b8060405163d2277d4960e01b81526004016122b8919061507f565b505b80612bd381615047565b915050612a5f565b50806040015151600003612c025760405163e182473360e01b815260040160405180910390fd5b50565b600081815260226020526040812054600114612c3457604051633832a15560e21b815260040160405180910390fd5b60008281526022602052604081208054909190612c5357612c53615031565b90600052602060002001549050919050565b6000816040516020016119cd9190614a90565b6007546001600160a01b03163314612ca35760405163141dbb4960e21b815260040160405180910390fd5b6004612cad6124e6565b6004811115612cbe57612cbe614a60565b1480612ce257506002612ccf6124e6565b6004811115612ce057612ce0614a60565b145b15612d00576040516398fe99a560e01b815260040160405180910390fd5b600355565b6000600954600854611835919061501e565b6060602480548060200260200160405190810160405280929190818152602001828054801561157e576020028201919060005260206000209081548152602001906001019080831161156a575050505050905090565b6007546001600160a01b03163314801590612d9c57503373dc652c746a8f85e18ce632d97c6118e8a52fa73814155b15612dba57604051637601acaf60e11b815260040160405180910390fd5b6004612dc46124e6565b6004811115612dd557612dd5614a60565b1480612df957506002612de66124e6565b6004811115612df757612df7614a60565b145b15612e1757604051635777604560e01b815260040160405180910390fd5b6017805460ff191660011790556040517f4cd963a081760a54f571abc0f1db4dde31b4a07d8d6da3e844b8c6f47eeaaa4290600090a1565b6060601480548060200260200160405190810160405280929190818152602001828054801561157e576020028201919060005260206000209081548152602001906001019080831161156a575050505050905090565b6004612eaf6124e6565b6004811115612ec057612ec0614a60565b1480612ee457506002612ed16124e6565b6004811115612ee257612ee2614a60565b145b15612f0257604051631e71d28360e21b815260040160405180910390fd5b60005b81811015612ff6576000838383818110612f2157612f21615031565b60075460209190910292909201359250506001600160a01b03163314801590612f6157506000818152601860205260409020546001600160a01b03163314155b15612f7f5760405163018db70560e11b815260040160405180910390fd5b60008181526016602052604090205460ff16612fe3576000818152601660205260408120805460ff191660019081179091556015805491820181559091527f55f448fdea98c4d29eb340757ef0a66cd03dbb9538908a6a81d96026b71ec475018190555b5080612fee81615047565b915050612f05565b5060005460010361300b5761300b828261381a565b7f75a75cf5c561892f4cc5b26c1b8e933849b42238c96dd073d080d1ae96c5141660146040516123689190615093565b6007546001600160a01b0316331461306657604051630f4cb1bd60e11b815260040160405180910390fd5b306001600160a01b0316816001600160a01b031663f3f44fb76040518163ffffffff1660e01b8152600401602060405180830381865afa1580156130ae573d6000803e3d6000fd5b505050506040513d601f19601f820116820180604052508101906130d291906150ce565b6001600160a01b0316146130f957604051635b310aaf60e01b815260040160405180910390fd5b602380546001600160a01b038381166001600160a01b031983168117909355604080519190921680825260208201939093527f753a2cf8d360cff631674504210913e48247f8e56b3e6d2006c2103d4095999f9101612368565b6024818154811061135357600080fd5b60276020528160005260406000208181548110611d5d57600080fd5b60008061318d60008061323e565b905061319a3385856117af565b6131a6610df986615073565b60006131b46121c687615073565b90506131bf8261330a565b95945050505050565b6000818152602260209081526040918290208054835181840281018401909452808452606093928301828280156124da57602002820191906000526020600020908154815260200190600101908083116124c65750505050509050919050565b6000826132358584613877565b14949350505050565b6000808084600181111561325457613254614a60565b036132625750600e546132e1565b600184600181111561327657613276614a60565b036132dd576010546001036132d457670de0b6b3a76400008310156132ae576040516346ddb8d160e01b815260040160405180910390fd5b6132c0670de0b6b3a7640000846150eb565b600f546132cd919061510d565b90506132e1565b50600f546132e1565b5060005b8034146121d6576040516372c3eaa760e01b8152346004820152602481018290526044016122b8565b8015612c025760006064600d5460646133239190615060565b61332d903461510d565b61333791906150eb565b9050801561339c57601254613355906001600160a01b0316826138c4565b601254604080516001600160a01b039092168252602082018390527f9df63d1c00d2e332f573be591c0579caafb256b2c5a17abcc8ad471cccda1b81910160405180910390a15b60006133a88234615060565b90508015611819576011546133c6906001600160a01b0316826138c4565b600754604080516001600160a01b039092168252602082018390527f6dff55337c8458ae8c536a63869a48bc33541733422a796390c131d91f4238ed910160405180910390a1505050565b6000600161341d6124e6565b600481111561342e5761342e614a60565b146134555761343b6124e6565b60405163049cab4960e51b81526004016122b89190614a76565b816000036134765760405163502e1c2960e01b815260040160405180910390fd5b6001600160a01b0383166000908152601c602052604090205461349e908590859085906139dd565b601b80546001810182556000919091527f3ad8aa4f87544323a9d1e5dd902f40c356527a7955687113db5f9a85ad579dc10180546001600160a01b0319163317905560408051858152602081018490526001600160a01b038516917fb4cfecf70861b7b150d8337780d34fb4cbc2114b5fb1fe51a5c5fca1849f7274910160405180910390a250506001600160a01b03166000908152601c6020526040902054919050565b6000600361354f6124e6565b600481111561356057613560614a60565b146135875761356d6124e6565b604051632889531360e01b81526004016122b89190614a76565b600b5433600090815260196020526040902054036135be57600b54604051632bd6d93960e21b81526004016122b891815260200190565b600c546015546014546135d19190615060565b036135f557600c546040516302217f5360e51b81526004016122b891815260200190565b600061360083612c65565b600081815260186020526040902054909150600160a01b900460ff161561363d5760405163baffc42360e01b8152600481018290526024016122b8565b6014805460018181019092557fce6d7b5282bd9a3661ae061feed1dbda4e52ab073b1f9285be6e155d9c38d4ec0182905560008281526018602090815260409182902086518154928801511515600160a01b026001600160a81b03199093166001600160a01b03909116179190911781559085015185928201906136c19082614f49565b506060820151516002820180546001600160a01b0319166001600160a01b03909216919091179055608082015180518051600384019161370691839160200190614068565b5060209182015160019091015560a083015180518051919260058501926137309284920190614068565b50602082810151805161374992600185019201906140cd565b506040820151805161376591600284019160209091019061411f565b505033600090815260196020526040812080546001955090935090915061378d90849061501e565b9091555050601a80546001810182556000919091527f057c384a7d1c54f3a1b2e5e67b2617b8224fdfd1ea7234eea573a6ff665ff63e0180546001600160a01b0319163390811790915560408085015190517f7585f467599d0f008985f231af99293be388626ac16ca59505c2f8f88969cd639261380c928592615124565b60405180910390a192915050565b60005b8181101561181957600083838381811061383957613839615031565b602090810292909201356000818152602190935260409092205491925061386290508282613b79565b5050808061386f90615047565b91505061381d565b600081815b84518110156138bc576138a88286838151811061389b5761389b615031565b6020026020010151613caa565b9150806138b481615047565b91505061387c565b509392505050565b804710156139145760405162461bcd60e51b815260206004820152601d60248201527f416464726573733a20696e73756666696369656e742062616c616e636500000060448201526064016122b8565b6000826001600160a01b03168260405160006040518083038185875af1925050503d8060008114613961576040519150601f19603f3d011682016040523d82523d6000602084013e613966565b606091505b50509050806118195760405162461bcd60e51b815260206004820152603a60248201527f416464726573733a20756e61626c6520746f2073656e642076616c75652c207260448201527f6563697069656e74206d6179206861766520726576657274656400000000000060648201526084016122b8565b600084815260216020526040902060045415801590613a1c57506001600160a01b0384166000908152602080526040902054613a199083615060565b83115b15613a3a5760405163660fa07360e11b815260040160405180910390fd5b6001600160a01b038416600090815260028201602052604081205482549015918591849190613a6a90849061501e565b90915550506001600160a01b038516600090815260028301602052604081208054869290613a9990849061501e565b90915550508015613ad4576001828101805491820181556000908152602090200180546001600160a01b0319166001600160a01b0387161790555b6001600160a01b038516600090815260208052604081208054869290613afb90849061501e565b9250508190555083601f6000828254613b14919061501e565b9091555050600054600103613b715781546000613b318683615060565b90508015613b4357613b438882613b79565b600082815260226020908152604082208054600181018255908352912001889055613b6e8183613cd9565b50505b505050505050565b600081815260226020908152604080832080548251818502810185019093528083529192909190830182828015613bcf57602002820191906000526020600020905b815481526020019060010190808311613bbb575b5050505050905060005b8151811015611b445783828281518110613bf557613bf5615031565b602002602001015103613c98578160018351613c119190615060565b81518110613c2157613c21615031565b6020026020010151602260008581526020019081526020016000208281548110613c4d57613c4d615031565b906000526020600020018190555060226000848152602001908152602001600020805480613c7d57613c7d61514e565b60019003818190600052602060002001600090559055611b44565b80613ca281615047565b915050613bd9565b6000818310613cc65760008281526020849052604090206121d6565b60008381526020839052604090206121d6565b60028054604080516020808402820181019092528281529192600092918490830182828015613d2757602002820191906000526020600020905b815481526020019060010190808311613d13575b5050505050905081600003613d6e575050600280546001810182556000919091527f405787fa12a823e0f2b7631cc41b3ba8828b3321ca811111fa75cd3aa3bb5ace015550565b80613d7a600184615060565b81518110613d8a57613d8a615031565b6020026020010151831015613de0576001548203613da85750505050565b5050600280546001810182556000919091527f405787fa12a823e0f2b7631cc41b3ba8828b3321ca811111fa75cd3aa3bb5ace015550565b611b44848484846000805b83811015613e5557828181518110613e0557613e05615031565b60200260200101518503613e1a575050611b44565b828181518110613e2c57613e2c615031565b6020026020010151851115613e4357809150613e55565b80613e4d81615047565b915050613deb565b5060008086118015613e735750600086815260226020526040902054155b90506000818015613e9c575086848481518110613e9257613e92615031565b6020026020010151145b613fa557613eab600186615060565b8314613f53576000613ebe84600161501e565b90505b85811015613f515784613ed5600183615060565b81518110613ee557613ee5615031565b602002602001015160028281548110613f0057613f00615031565b600091825260209091200155828015613f31575087858281518110613f2757613f27615031565b6020026020010151145b15613f3f5760019150613f51565b80613f4981615047565b915050613ec1565b505b80158015613f62575060015485105b15613fa557600284613f75600188615060565b81518110613f8557613f85615031565b602090810291909101810151825460018101845560009384529190922001555b8560028481548110613fb957613fb9615031565b60009182526020909120015550505050505050565b6040518060c0016040528060006001600160a01b0316815260200160001515815260200160608152602001614018604051806020016040528060006001600160a01b031681525090565b815260200161403a604051806040016040528060608152602001600081525090565b815260200161406360405180606001604052806060815260200160608152602001606081525090565b905290565b8280548282559060005260206000209081019282156140bd579160200282015b828111156140bd57825182546001600160a01b0319166001600160a01b03909116178255602090920191600190910190614088565b506140c992915061415a565b5090565b828054828255906000526020600020908101928215614113579160200282015b8281111561411357825182906141039082614f49565b50916020019190600101906140ed565b506140c992915061416f565b8280548282559060005260206000209081019282156140bd579160200282015b828111156140bd57825182559160200191906001019061413f565b5b808211156140c9576000815560010161415b565b808211156140c9576000614183828261418c565b5060010161416f565b50805461419890614ecf565b6000825580601f106141a8575050565b601f016020900490600052602060002090810190612c02919061415a565b6000602082840312156141d857600080fd5b5035919050565b6000815180845260005b81811015614205576020818501810151868301820152016141e9565b506000602082860101526020601f19601f83011685010191505092915050565b600081518084526020808501945080840160005b8381101561425e5781516001600160a01b031687529582019590820190600101614239565b509495945050505050565b600081516040845261427e6040850182614225565b602093840151949093019390935250919050565b600081518084526020808501945080840160005b8381101561425e578151875295820195908201906001016142a6565b60008151606084526142d76060850182614225565b9050602080840151858303828701528281518085528385019150838160051b860101848401935060005b8281101561432f57601f1987830301845261431d8286516141df565b94860194938601939150600101614301565b506040880151955088810360408a01526143498187614292565b9998505050505050505050565b600060018060a01b038089168352871515602084015260c0604084015261438060c08401886141df565b818751166060850152838103608085015261439b8187614269565b91505082810360a084015261434981856142c2565b6020815260006121d660208301846141df565b6020815260018060a01b038251166020820152602082015160408201526040820151606082015260006060830151608080840152611e6960a08401826141df565b6020815260006121d66020830184614292565b6001600160a01b0381168114612c0257600080fd5b803561443781614417565b919050565b60006020828403121561444e57600080fd5b81356121d681614417565b634e487b7160e01b600052604160045260246000fd5b604051606081016001600160401b038111828210171561449157614491614459565b60405290565b60405160c081016001600160401b038111828210171561449157614491614459565b604051601f8201601f191681016001600160401b03811182821017156144e1576144e1614459565b604052919050565b600082601f8301126144fa57600080fd5b81356001600160401b0381111561451357614513614459565b614526601f8201601f19166020016144b9565b81815284602083860101111561453b57600080fd5b816020850160208301376000918101602001919091529392505050565b6000806040838503121561456b57600080fd5b8235915060208301356001600160401b0381111561458857600080fd5b614594858286016144e9565b9150509250929050565b60008083601f8401126145b057600080fd5b5081356001600160401b038111156145c757600080fd5b6020830191508360208260051b85010111156145e257600080fd5b9250929050565b6000806000604084860312156145fe57600080fd5b833561460981614417565b925060208401356001600160401b0381111561462457600080fd5b6146308682870161459e565b9497909650939450505050565b6020808252825182820181905260009190848201906040850190845b8181101561467e5783516001600160a01b031683529284019291840191600101614659565b50909695505050505050565b8035801515811461443757600080fd5b6000806000806000608086880312156146b257600080fd5b85356146bd81614417565b94506020860135935060408601356001600160401b038111156146df57600080fd5b6146eb8882890161459e565b90945092506146fe90506060870161468a565b90509295509295909350565b60006020828403121561471c57600080fd5b81356001600160401b038082111561473357600080fd5b908301906080828603121561474757600080fd5b60405160808101818110838211171561476257614762614459565b604052823561477081614417565b80825250602083013560208201526040830135604082015260608301358281111561479a57600080fd5b6147a6878286016144e9565b60608301525095945050505050565b6040815260006147c86040830185614292565b82810360208401526131bf8185614292565b600080600080606085870312156147f057600080fd5b84356147fb81614417565b93506020850135925060408501356001600160401b0381111561481d57600080fd5b6148298782880161459e565b95989497509550505050565b6000806040838503121561484857600080fd5b50508035926020909101359150565b6000806040838503121561486a57600080fd5b82359150602083013561487c81614417565b809150509250929050565b60018060a01b03851681528360208201528260408201526080606082015260006148b460808301846141df565b9695505050505050565b6000806000806000608086880312156148d657600080fd5b85359450602086013593506040860135925060608601356001600160401b0381111561490157600080fd5b61490d8882890161459e565b969995985093965092949392505050565b600060c0828403121561493057600080fd5b50919050565b60006020828403121561494857600080fd5b81356001600160401b0381111561495e57600080fd5b611e698482850161491e565b60006001600160401b0382111561498357614983614459565b5060051b60200190565b600082601f83011261499e57600080fd5b813560206149b36149ae8361496a565b6144b9565b82815260059290921b840181019181810190868411156149d257600080fd5b8286015b848110156149ed57803583529183019183016149d6565b509695505050505050565b600060208284031215614a0a57600080fd5b81356001600160401b03811115614a2057600080fd5b611e698482850161498d565b600060208284031215614a3e57600080fd5b81356001600160401b03811115614a5457600080fd5b611e69848285016144e9565b634e487b7160e01b600052602160045260246000fd5b6020810160058310614a8a57614a8a614a60565b91905290565b60208152600060018060a01b03808451166020840152602084015115156040840152604084015160c06060850152614acb60e08501826141df565b90508160608601515116608085015260808501519150601f19808583030160a0860152614af88284614269565b925060a08601519150808584030160c0860152506131bf82826142c2565b600060208284031215614b2857600080fd5b604051602081018181106001600160401b0382111715614b4a57614b4a614459565b6040529050808235614b5b81614417565b905292915050565b600082601f830112614b7457600080fd5b81356020614b846149ae8361496a565b82815260059290921b84018101918181019086841115614ba357600080fd5b8286015b848110156149ed578035614bba81614417565b8352918301918301614ba7565b600060408284031215614bd957600080fd5b604051604081016001600160401b038282108183111715614bfc57614bfc614459565b816040528293508435915080821115614c1457600080fd5b50614c2185828601614b63565b825250602083013560208201525092915050565b600060608284031215614c4757600080fd5b614c4f61446f565b905081356001600160401b0380821115614c6857600080fd5b614c7485838601614b63565b8352602091508184013581811115614c8b57600080fd5b8401601f81018613614c9c57600080fd5b8035614caa6149ae8261496a565b81815260059190911b82018401908481019088831115614cc957600080fd5b8584015b83811015614d0157803586811115614ce55760008081fd5b614cf38b89838901016144e9565b845250918601918601614ccd565b508086880152505050506040840135915080821115614d1f57600080fd5b50614d2c8482850161498d565b60408301525092915050565b600060c08284031215614d4a57600080fd5b614d52614497565b9050614d5d8261442c565b8152614d6b6020830161468a565b602082015260408201356001600160401b0380821115614d8a57600080fd5b614d96858386016144e9565b6040840152614da88560608601614b16565b60608401526080840135915080821115614dc157600080fd5b614dcd85838601614bc7565b608084015260a0840135915080821115614de657600080fd5b50614df384828501614c35565b60a08301525092915050565b600060208284031215614e1157600080fd5b81356001600160401b03811115614e2757600080fd5b611e6984828501614d38565b60008060208385031215614e4657600080fd5b82356001600160401b03811115614e5c57600080fd5b614e688582860161459e565b90969095509350505050565b600080600060408486031215614e8957600080fd5b83356001600160401b0380821115614ea057600080fd5b614eac8783880161491e565b94506020860135915080821115614ec257600080fd5b506146308682870161459e565b600181811c90821680614ee357607f821691505b60208210810361493057634e487b7160e01b600052602260045260246000fd5b601f82111561181957600081815260208120601f850160051c81016020861015614f2a5750805b601f850160051c820191505b81811015613b7157828155600101614f36565b81516001600160401b03811115614f6257614f62614459565b614f7681614f708454614ecf565b84614f03565b602080601f831160018114614fab5760008415614f935750858301515b600019600386901b1c1916600185901b178555613b71565b600085815260208120601f198616915b82811015614fda57888601518255948401946001909101908401614fbb565b5085821015614ff85787850151600019600388901b60f8161c191681555b5050505050600190811b01905550565b634e487b7160e01b600052601160045260246000fd5b808201808211156117a9576117a9615008565b634e487b7160e01b600052603260045260246000fd5b60006001820161505957615059615008565b5060010190565b818103818111156117a9576117a9615008565b60006117a93683614d38565b6020810160038310614a8a57614a8a614a60565b6020808252825482820181905260008481528281209092916040850190845b8181101561467e578354835260019384019392850192016150b2565b6000602082840312156150e057600080fd5b81516121d681614417565b60008261510857634e487b7160e01b600052601260045260246000fd5b500490565b80820281158282048414176117a9576117a9615008565b8381526001600160a01b03831660208201526060604082018190526000906131bf908301846141df565b634e487b7160e01b600052603160045260246000fdfea264697066735822122078a4168a90c30fba3f4a5738ac82aa1ca98d298db5ac4e628f20e7befd297dd764736f6c63430008130033","linkReferences":{}},"methodIdentifiers":{"AMOUNT_FOR_SUMBITTER_PROOF()":"347cf665","JK_LABS_ADDRESS()":"eef18e17","MAX_FIELDS_METADATA_LENGTH()":"b382543f","METADATAS_COUNT()":"4d24a67f","addressSubmitterVerified(address)":"cb853950","addressTotalCastVoteCount(address)":"dda54fcf","addressTotalVotes(address)":"dea5f6a6","addressTotalVotesVerified(address)":"930de979","addressesThatHaveVoted(uint256)":"50c4b616","allProposalTotalVotes()":"50a5e524","cancel()":"ea8a1af0","canceled()":"3f9942ff","castVote(uint256,uint256,uint256,bytes32[])":"a84ff54b","castVoteWithoutProof(uint256,uint256)":"89ab5f54","checkProof(address,uint256,bytes32[],bool)":"32763c22","comment(uint256,string)":"1805c523","commentIds(uint256)":"f5c36411","commentIsDeleted(uint256)":"ae66b8ad","comments(uint256)":"8ebb4c15","contestAddressTotalVotesCast(address)":"aec116b6","contestDeadline()":"262e59e9","contestStart()":"004114a8","costToPropose()":"6ed815ad","costToVote()":"51a41dec","creator()":"02d05d3f","creatorSplitDestination()":"4a587ad4","deleteComments(uint256[])":"ac67f801","deleteProposals(uint256[])":"f0a7db0a","deletedCommentIds(uint256)":"3fb57c92","deletedProposalIds(uint256)":"05846cae","getAllAddressesThatHaveVoted()":"2c39805f","getAllAuthorsOfDeletedProposals()":"cbdc27cb","getAllCommentIds()":"e11db9d8","getAllDeletedCommentIds()":"5cb718a1","getAllDeletedProposalIds()":"1242b737","getAllProposalAuthors()":"946369b5","getAllProposalIds()":"efa90d36","getComment(uint256)":"0800e300","getNumProposalsWithThisManyVotes(uint256)":"bc022c98","getOnlyProposalIdWithThisManyVotes(uint256)":"d576b81d","getProposal(uint256)":"c7f758a8","getProposalComments(uint256)":"c05f4104","getProposalsWithThisManyVotes(uint256)":"f82e54c0","getRankIndex(uint256)":"5c7107d8","getSortedRanks()":"6fd3636b","hashComment((address,uint256,uint256,string))":"409fd030","hashProposal((address,bool,string,(address),(address[],uint256),(address[],string[],uint256[])))":"d7989025","isOrIsBelowTiedRank(uint256)":"9174778c","jkLabsSplitDestination()":"102613d8","maxProposalCount()":"fb9bf8d4","metadataFieldsSchema()":"60ed97a9","name()":"06fdde03","numAllowedProposalSubmissions()":"832009af","numSubmissions(address)":"75e509c5","officialRewardsModule()":"785ddfe5","payPerVote()":"03f7eed6","percentageToCreator()":"edcd1be4","prompt()":"7c65d711","proposalAddressVotes(uint256,address)":"6e4eb810","proposalAddressesHaveVoted(uint256)":"b323580d","proposalAuthors(uint256)":"0aa25e44","proposalComments(uint256,uint256)":"f61736f4","proposalIds(uint256)":"9b644a23","proposalIsDeleted(uint256)":"f79c0172","proposalVoteStructs(uint256)":"15dee7cd","proposalVotes(uint256)":"544ffc9c","proposals(uint256)":"013cf08b","propose((address,bool,string,(address),(address[],uint256),(address[],string[],uint256[])),bytes32[])":"f823f110","proposeWithoutProof((address,bool,string,(address),(address[],uint256),(address[],string[],uint256[])))":"ab5e6947","rankLimit()":"0414126a","setCreatorSplitDestination(address)":"146230f6","setJkLabsSplitDestination(address)":"9b338aa0","setName(string)":"c47f0027","setOfficialRewardsModule(address)":"f4f3d7ec","setPrompt(string)":"b4ac024f","setSubmissionMerkleRoot(bytes32)":"daf762db","setVotingMerkleRoot(bytes32)":"544c7bb4","sortedRanks(uint256)":"325cc6d9","sortingEnabled()":"366ecf5b","state()":"c19d93fb","submissionMerkleRoot()":"bddc1641","totalVotesCast()":"7de418d5","validateProposalData((address,bool,string,(address),(address[],uint256),(address[],string[],uint256[])))":"d140d9f0","verifyProposer(address,bytes32[])":"20b3e845","verifyVoter(address,uint256,bytes32[])":"531bd812","version()":"54fd4d50","voteStart()":"e031535b","votesToProposalIds(uint256,uint256)":"6d030621","votingDelay()":"3932abb1","votingMerkleRoot()":"dd96a19d","votingPeriod()":"02a251a3"},"id":34}