{
  "abi": [
    {
      "inputs": [
        {
          "internalType": "string",
          "name": "_name",
          "type": "string"
        },
        {
          "internalType": "string",
          "name": "_prompt",
          "type": "string"
        },
        {
          "internalType": "bytes32",
          "name": "_submissionMerkleRoot",
          "type": "bytes32"
        },
        {
          "internalType": "bytes32",
          "name": "_votingMerkleRoot",
          "type": "bytes32"
        },
        {
          "internalType": "uint256[]",
          "name": "_constructorIntParams",
          "type": "uint256[]"
        }
      ],
      "stateMutability": "nonpayable",
      "type": "constructor"
    },
    {
      "inputs": [],
      "name": "InvalidShortString",
      "type": "error"
    },
    {
      "inputs": [],
      "name": "NotInMerkle",
      "type": "error"
    },
    {
      "inputs": [
        {
          "internalType": "string",
          "name": "str",
          "type": "string"
        }
      ],
      "name": "StringTooLong",
      "type": "error"
    },
    {
      "anonymous": false,
      "inputs": [],
      "name": "ContestCanceled",
      "type": "event"
    },
    {
      "anonymous": false,
      "inputs": [
        {
          "indexed": false,
          "internalType": "uint256",
          "name": "oldContestStart",
          "type": "uint256"
        },
        {
          "indexed": false,
          "internalType": "uint256",
          "name": "newContestStart",
          "type": "uint256"
        }
      ],
      "name": "ContestStartSet",
      "type": "event"
    },
    {
      "anonymous": false,
      "inputs": [
        {
          "indexed": false,
          "internalType": "address",
          "name": "oldCreator",
          "type": "address"
        },
        {
          "indexed": false,
          "internalType": "address",
          "name": "newCreator",
          "type": "address"
        }
      ],
      "name": "CreatorSet",
      "type": "event"
    },
    {
      "anonymous": false,
      "inputs": [
        {
          "indexed": false,
          "internalType": "uint256",
          "name": "oldDownvotingAllowed",
          "type": "uint256"
        },
        {
          "indexed": false,
          "internalType": "uint256",
          "name": "newDownvotingAllowed",
          "type": "uint256"
        }
      ],
      "name": "DownvotingAllowedSet",
      "type": "event"
    },
    {
      "anonymous": false,
      "inputs": [],
      "name": "EIP712DomainChanged",
      "type": "event"
    },
    {
      "anonymous": false,
      "inputs": [
        {
          "indexed": false,
          "internalType": "uint256",
          "name": "oldMaxProposalCount",
          "type": "uint256"
        },
        {
          "indexed": false,
          "internalType": "uint256",
          "name": "newMaxProposalCount",
          "type": "uint256"
        }
      ],
      "name": "MaxProposalCountSet",
      "type": "event"
    },
    {
      "anonymous": false,
      "inputs": [
        {
          "indexed": false,
          "internalType": "uint256",
          "name": "oldNumAllowedProposalSubmissions",
          "type": "uint256"
        },
        {
          "indexed": false,
          "internalType": "uint256",
          "name": "newNumAllowedProposalSubmissions",
          "type": "uint256"
        }
      ],
      "name": "NumAllowedProposalSubmissionsSet",
      "type": "event"
    },
    {
      "anonymous": false,
      "inputs": [
        {
          "indexed": false,
          "internalType": "contract RewardsModule",
          "name": "oldOfficialRewardsModule",
          "type": "address"
        },
        {
          "indexed": false,
          "internalType": "contract RewardsModule",
          "name": "newOfficialRewardsModule",
          "type": "address"
        }
      ],
      "name": "OfficialRewardsModuleSet",
      "type": "event"
    },
    {
      "anonymous": false,
      "inputs": [
        {
          "indexed": false,
          "internalType": "uint256",
          "name": "proposalId",
          "type": "uint256"
        },
        {
          "indexed": false,
          "internalType": "address",
          "name": "proposer",
          "type": "address"
        }
      ],
      "name": "ProposalCreated",
      "type": "event"
    },
    {
      "anonymous": false,
      "inputs": [
        {
          "indexed": false,
          "internalType": "uint256[]",
          "name": "proposalIds",
          "type": "uint256[]"
        }
      ],
      "name": "ProposalsDeleted",
      "type": "event"
    },
    {
      "anonymous": false,
      "inputs": [
        {
          "indexed": true,
          "internalType": "address",
          "name": "voter",
          "type": "address"
        },
        {
          "indexed": false,
          "internalType": "uint256",
          "name": "proposalId",
          "type": "uint256"
        },
        {
          "indexed": false,
          "internalType": "uint8",
          "name": "support",
          "type": "uint8"
        },
        {
          "indexed": false,
          "internalType": "uint256",
          "name": "numVotes",
          "type": "uint256"
        },
        {
          "indexed": false,
          "internalType": "string",
          "name": "reason",
          "type": "string"
        }
      ],
      "name": "VoteCast",
      "type": "event"
    },
    {
      "anonymous": false,
      "inputs": [
        {
          "indexed": false,
          "internalType": "uint256",
          "name": "oldVotingDelay",
          "type": "uint256"
        },
        {
          "indexed": false,
          "internalType": "uint256",
          "name": "newVotingDelay",
          "type": "uint256"
        }
      ],
      "name": "VotingDelaySet",
      "type": "event"
    },
    {
      "anonymous": false,
      "inputs": [
        {
          "indexed": false,
          "internalType": "uint256",
          "name": "oldVotingPeriod",
          "type": "uint256"
        },
        {
          "indexed": false,
          "internalType": "uint256",
          "name": "newVotingPeriod",
          "type": "uint256"
        }
      ],
      "name": "VotingPeriodSet",
      "type": "event"
    },
    {
      "inputs": [],
      "name": "AMOUNT_FOR_SUMBITTER_PROOF",
      "outputs": [
        {
          "internalType": "uint64",
          "name": "",
          "type": "uint64"
        }
      ],
      "stateMutability": "view",
      "type": "function"
    },
    {
      "inputs": [],
      "name": "BALLOT_TYPEHASH",
      "outputs": [
        {
          "internalType": "bytes32",
          "name": "",
          "type": "bytes32"
        }
      ],
      "stateMutability": "view",
      "type": "function"
    },
    {
      "inputs": [],
      "name": "COUNTING_MODE",
      "outputs": [
        {
          "internalType": "string",
          "name": "",
          "type": "string"
        }
      ],
      "stateMutability": "pure",
      "type": "function"
    },
    {
      "inputs": [],
      "name": "METADATAS_COUNT",
      "outputs": [
        {
          "internalType": "uint8",
          "name": "",
          "type": "uint8"
        }
      ],
      "stateMutability": "view",
      "type": "function"
    },
    {
      "inputs": [
        {
          "internalType": "address",
          "name": "",
          "type": "address"
        }
      ],
      "name": "addressSubmitterVerified",
      "outputs": [
        {
          "internalType": "bool",
          "name": "",
          "type": "bool"
        }
      ],
      "stateMutability": "view",
      "type": "function"
    },
    {
      "inputs": [
        {
          "internalType": "address",
          "name": "",
          "type": "address"
        }
      ],
      "name": "addressTotalVotes",
      "outputs": [
        {
          "internalType": "uint256",
          "name": "",
          "type": "uint256"
        }
      ],
      "stateMutability": "view",
      "type": "function"
    },
    {
      "inputs": [
        {
          "internalType": "address",
          "name": "",
          "type": "address"
        }
      ],
      "name": "addressTotalVotesVerified",
      "outputs": [
        {
          "internalType": "bool",
          "name": "",
          "type": "bool"
        }
      ],
      "stateMutability": "view",
      "type": "function"
    },
    {
      "inputs": [],
      "name": "allProposalTotalVotes",
      "outputs": [
        {
          "internalType": "uint256[]",
          "name": "proposalIdsReturn",
          "type": "uint256[]"
        },
        {
          "components": [
            {
              "internalType": "uint256",
              "name": "forVotes",
              "type": "uint256"
            },
            {
              "internalType": "uint256",
              "name": "againstVotes",
              "type": "uint256"
            }
          ],
          "internalType": "struct GovernorCountingSimple.VoteCounts[]",
          "name": "proposalVoteCountsArrayReturn",
          "type": "tuple[]"
        }
      ],
      "stateMutability": "view",
      "type": "function"
    },
    {
      "inputs": [],
      "name": "allProposalTotalVotesWithoutDeleted",
      "outputs": [
        {
          "internalType": "uint256[]",
          "name": "proposalIdsReturn",
          "type": "uint256[]"
        },
        {
          "components": [
            {
              "internalType": "uint256",
              "name": "forVotes",
              "type": "uint256"
            },
            {
              "internalType": "uint256",
              "name": "againstVotes",
              "type": "uint256"
            }
          ],
          "internalType": "struct GovernorCountingSimple.VoteCounts[]",
          "name": "proposalVoteCountsArrayReturn",
          "type": "tuple[]"
        }
      ],
      "stateMutability": "view",
      "type": "function"
    },
    {
      "inputs": [],
      "name": "cancel",
      "outputs": [],
      "stateMutability": "nonpayable",
      "type": "function"
    },
    {
      "inputs": [
        {
          "internalType": "uint256",
          "name": "proposalId",
          "type": "uint256"
        },
        {
          "internalType": "uint8",
          "name": "support",
          "type": "uint8"
        },
        {
          "internalType": "uint256",
          "name": "totalVotes",
          "type": "uint256"
        },
        {
          "internalType": "uint256",
          "name": "numVotes",
          "type": "uint256"
        },
        {
          "internalType": "bytes32[]",
          "name": "proof",
          "type": "bytes32[]"
        }
      ],
      "name": "castVote",
      "outputs": [
        {
          "internalType": "uint256",
          "name": "",
          "type": "uint256"
        }
      ],
      "stateMutability": "nonpayable",
      "type": "function"
    },
    {
      "inputs": [
        {
          "internalType": "uint256",
          "name": "proposalId",
          "type": "uint256"
        },
        {
          "internalType": "uint8",
          "name": "support",
          "type": "uint8"
        },
        {
          "internalType": "uint256",
          "name": "numVotes",
          "type": "uint256"
        }
      ],
      "name": "castVoteWithoutProof",
      "outputs": [
        {
          "internalType": "uint256",
          "name": "",
          "type": "uint256"
        }
      ],
      "stateMutability": "nonpayable",
      "type": "function"
    },
    {
      "inputs": [
        {
          "internalType": "address",
          "name": "addressToCheck",
          "type": "address"
        },
        {
          "internalType": "uint256",
          "name": "amount",
          "type": "uint256"
        },
        {
          "internalType": "bytes32[]",
          "name": "proof",
          "type": "bytes32[]"
        },
        {
          "internalType": "bool",
          "name": "voting",
          "type": "bool"
        }
      ],
      "name": "checkProof",
      "outputs": [
        {
          "internalType": "bool",
          "name": "verified",
          "type": "bool"
        }
      ],
      "stateMutability": "view",
      "type": "function"
    },
    {
      "inputs": [
        {
          "internalType": "address",
          "name": "userAddress",
          "type": "address"
        }
      ],
      "name": "contestAddressTotalVotesCast",
      "outputs": [
        {
          "internalType": "uint256",
          "name": "totalVotesCast",
          "type": "uint256"
        }
      ],
      "stateMutability": "view",
      "type": "function"
    },
    {
      "inputs": [],
      "name": "contestDeadline",
      "outputs": [
        {
          "internalType": "uint256",
          "name": "",
          "type": "uint256"
        }
      ],
      "stateMutability": "view",
      "type": "function"
    },
    {
      "inputs": [],
      "name": "contestStart",
      "outputs": [
        {
          "internalType": "uint256",
          "name": "",
          "type": "uint256"
        }
      ],
      "stateMutability": "view",
      "type": "function"
    },
    {
      "inputs": [],
      "name": "creator",
      "outputs": [
        {
          "internalType": "address",
          "name": "",
          "type": "address"
        }
      ],
      "stateMutability": "view",
      "type": "function"
    },
    {
      "inputs": [
        {
          "internalType": "uint256[]",
          "name": "proposalIds",
          "type": "uint256[]"
        }
      ],
      "name": "deleteProposals",
      "outputs": [],
      "stateMutability": "nonpayable",
      "type": "function"
    },
    {
      "inputs": [],
      "name": "downvotingAllowed",
      "outputs": [
        {
          "internalType": "uint256",
          "name": "",
          "type": "uint256"
        }
      ],
      "stateMutability": "view",
      "type": "function"
    },
    {
      "inputs": [],
      "name": "eip712Domain",
      "outputs": [
        {
          "internalType": "bytes1",
          "name": "fields",
          "type": "bytes1"
        },
        {
          "internalType": "string",
          "name": "name",
          "type": "string"
        },
        {
          "internalType": "string",
          "name": "version",
          "type": "string"
        },
        {
          "internalType": "uint256",
          "name": "chainId",
          "type": "uint256"
        },
        {
          "internalType": "address",
          "name": "verifyingContract",
          "type": "address"
        },
        {
          "internalType": "bytes32",
          "name": "salt",
          "type": "bytes32"
        },
        {
          "internalType": "uint256[]",
          "name": "extensions",
          "type": "uint256[]"
        }
      ],
      "stateMutability": "view",
      "type": "function"
    },
    {
      "inputs": [],
      "name": "getAllProposalIds",
      "outputs": [
        {
          "internalType": "uint256[]",
          "name": "",
          "type": "uint256[]"
        }
      ],
      "stateMutability": "view",
      "type": "function"
    },
    {
      "inputs": [
        {
          "internalType": "address",
          "name": "account",
          "type": "address"
        }
      ],
      "name": "getNumSubmissions",
      "outputs": [
        {
          "internalType": "uint256",
          "name": "",
          "type": "uint256"
        }
      ],
      "stateMutability": "view",
      "type": "function"
    },
    {
      "inputs": [
        {
          "internalType": "uint256",
          "name": "proposalId",
          "type": "uint256"
        }
      ],
      "name": "getProposal",
      "outputs": [
        {
          "components": [
            {
              "internalType": "address",
              "name": "author",
              "type": "address"
            },
            {
              "internalType": "string",
              "name": "description",
              "type": "string"
            },
            {
              "internalType": "bool",
              "name": "exists",
              "type": "bool"
            },
            {
              "components": [
                {
                  "internalType": "address",
                  "name": "targetAddress",
                  "type": "address"
                }
              ],
              "internalType": "struct IGovernor.TargetMetadata",
              "name": "targetMetadata",
              "type": "tuple"
            },
            {
              "components": [
                {
                  "internalType": "address[]",
                  "name": "signers",
                  "type": "address[]"
                },
                {
                  "internalType": "uint256",
                  "name": "threshold",
                  "type": "uint256"
                }
              ],
              "internalType": "struct IGovernor.SafeMetadata",
              "name": "safeMetadata",
              "type": "tuple"
            }
          ],
          "internalType": "struct IGovernor.ProposalCore",
          "name": "",
          "type": "tuple"
        }
      ],
      "stateMutability": "view",
      "type": "function"
    },
    {
      "inputs": [
        {
          "components": [
            {
              "internalType": "address",
              "name": "author",
              "type": "address"
            },
            {
              "internalType": "string",
              "name": "description",
              "type": "string"
            },
            {
              "internalType": "bool",
              "name": "exists",
              "type": "bool"
            },
            {
              "components": [
                {
                  "internalType": "address",
                  "name": "targetAddress",
                  "type": "address"
                }
              ],
              "internalType": "struct IGovernor.TargetMetadata",
              "name": "targetMetadata",
              "type": "tuple"
            },
            {
              "components": [
                {
                  "internalType": "address[]",
                  "name": "signers",
                  "type": "address[]"
                },
                {
                  "internalType": "uint256",
                  "name": "threshold",
                  "type": "uint256"
                }
              ],
              "internalType": "struct IGovernor.SafeMetadata",
              "name": "safeMetadata",
              "type": "tuple"
            }
          ],
          "internalType": "struct IGovernor.ProposalCore",
          "name": "proposal",
          "type": "tuple"
        }
      ],
      "name": "hashProposal",
      "outputs": [
        {
          "internalType": "uint256",
          "name": "",
          "type": "uint256"
        }
      ],
      "stateMutability": "pure",
      "type": "function"
    },
    {
      "inputs": [
        {
          "internalType": "uint256",
          "name": "proposalId",
          "type": "uint256"
        }
      ],
      "name": "isProposalDeleted",
      "outputs": [
        {
          "internalType": "uint256",
          "name": "",
          "type": "uint256"
        }
      ],
      "stateMutability": "view",
      "type": "function"
    },
    {
      "inputs": [],
      "name": "maxProposalCount",
      "outputs": [
        {
          "internalType": "uint256",
          "name": "",
          "type": "uint256"
        }
      ],
      "stateMutability": "view",
      "type": "function"
    },
    {
      "inputs": [],
      "name": "name",
      "outputs": [
        {
          "internalType": "string",
          "name": "",
          "type": "string"
        }
      ],
      "stateMutability": "view",
      "type": "function"
    },
    {
      "inputs": [],
      "name": "numAllowedProposalSubmissions",
      "outputs": [
        {
          "internalType": "uint256",
          "name": "",
          "type": "uint256"
        }
      ],
      "stateMutability": "view",
      "type": "function"
    },
    {
      "inputs": [],
      "name": "officialRewardsModule",
      "outputs": [
        {
          "internalType": "contract RewardsModule",
          "name": "",
          "type": "address"
        }
      ],
      "stateMutability": "view",
      "type": "function"
    },
    {
      "inputs": [],
      "name": "prompt",
      "outputs": [
        {
          "internalType": "string",
          "name": "",
          "type": "string"
        }
      ],
      "stateMutability": "view",
      "type": "function"
    },
    {
      "inputs": [
        {
          "internalType": "uint256",
          "name": "proposalId",
          "type": "uint256"
        },
        {
          "internalType": "address",
          "name": "userAddress",
          "type": "address"
        }
      ],
      "name": "proposalAddressVotes",
      "outputs": [
        {
          "internalType": "uint256",
          "name": "forVotes",
          "type": "uint256"
        },
        {
          "internalType": "uint256",
          "name": "againstVotes",
          "type": "uint256"
        }
      ],
      "stateMutability": "view",
      "type": "function"
    },
    {
      "inputs": [
        {
          "internalType": "uint256",
          "name": "proposalId",
          "type": "uint256"
        }
      ],
      "name": "proposalAddressesHaveVoted",
      "outputs": [
        {
          "internalType": "address[]",
          "name": "",
          "type": "address[]"
        }
      ],
      "stateMutability": "view",
      "type": "function"
    },
    {
      "inputs": [
        {
          "internalType": "uint256",
          "name": "proposalId",
          "type": "uint256"
        }
      ],
      "name": "proposalVotes",
      "outputs": [
        {
          "internalType": "uint256",
          "name": "forVotes",
          "type": "uint256"
        },
        {
          "internalType": "uint256",
          "name": "againstVotes",
          "type": "uint256"
        }
      ],
      "stateMutability": "view",
      "type": "function"
    },
    {
      "inputs": [
        {
          "components": [
            {
              "internalType": "address",
              "name": "author",
              "type": "address"
            },
            {
              "internalType": "string",
              "name": "description",
              "type": "string"
            },
            {
              "internalType": "bool",
              "name": "exists",
              "type": "bool"
            },
            {
              "components": [
                {
                  "internalType": "address",
                  "name": "targetAddress",
                  "type": "address"
                }
              ],
              "internalType": "struct IGovernor.TargetMetadata",
              "name": "targetMetadata",
              "type": "tuple"
            },
            {
              "components": [
                {
                  "internalType": "address[]",
                  "name": "signers",
                  "type": "address[]"
                },
                {
                  "internalType": "uint256",
                  "name": "threshold",
                  "type": "uint256"
                }
              ],
              "internalType": "struct IGovernor.SafeMetadata",
              "name": "safeMetadata",
              "type": "tuple"
            }
          ],
          "internalType": "struct IGovernor.ProposalCore",
          "name": "proposal",
          "type": "tuple"
        },
        {
          "internalType": "bytes32[]",
          "name": "proof",
          "type": "bytes32[]"
        }
      ],
      "name": "propose",
      "outputs": [
        {
          "internalType": "uint256",
          "name": "",
          "type": "uint256"
        }
      ],
      "stateMutability": "nonpayable",
      "type": "function"
    },
    {
      "inputs": [
        {
          "components": [
            {
              "internalType": "address",
              "name": "author",
              "type": "address"
            },
            {
              "internalType": "string",
              "name": "description",
              "type": "string"
            },
            {
              "internalType": "bool",
              "name": "exists",
              "type": "bool"
            },
            {
              "components": [
                {
                  "internalType": "address",
                  "name": "targetAddress",
                  "type": "address"
                }
              ],
              "internalType": "struct IGovernor.TargetMetadata",
              "name": "targetMetadata",
              "type": "tuple"
            },
            {
              "components": [
                {
                  "internalType": "address[]",
                  "name": "signers",
                  "type": "address[]"
                },
                {
                  "internalType": "uint256",
                  "name": "threshold",
                  "type": "uint256"
                }
              ],
              "internalType": "struct IGovernor.SafeMetadata",
              "name": "safeMetadata",
              "type": "tuple"
            }
          ],
          "internalType": "struct IGovernor.ProposalCore",
          "name": "proposal",
          "type": "tuple"
        }
      ],
      "name": "proposeWithoutProof",
      "outputs": [
        {
          "internalType": "uint256",
          "name": "",
          "type": "uint256"
        }
      ],
      "stateMutability": "nonpayable",
      "type": "function"
    },
    {
      "inputs": [
        {
          "internalType": "contract RewardsModule",
          "name": "officialRewardsModule_",
          "type": "address"
        }
      ],
      "name": "setOfficialRewardsModule",
      "outputs": [],
      "stateMutability": "nonpayable",
      "type": "function"
    },
    {
      "inputs": [
        {
          "internalType": "bool",
          "name": "excludeDeletedProposals",
          "type": "bool"
        }
      ],
      "name": "sortedProposals",
      "outputs": [
        {
          "internalType": "uint256[]",
          "name": "sortedProposalIdsReturn",
          "type": "uint256[]"
        }
      ],
      "stateMutability": "view",
      "type": "function"
    },
    {
      "inputs": [],
      "name": "state",
      "outputs": [
        {
          "internalType": "enum IGovernor.ContestState",
          "name": "",
          "type": "uint8"
        }
      ],
      "stateMutability": "view",
      "type": "function"
    },
    {
      "inputs": [],
      "name": "submissionMerkleRoot",
      "outputs": [
        {
          "internalType": "bytes32",
          "name": "",
          "type": "bytes32"
        }
      ],
      "stateMutability": "view",
      "type": "function"
    },
    {
      "inputs": [
        {
          "internalType": "bytes4",
          "name": "interfaceId",
          "type": "bytes4"
        }
      ],
      "name": "supportsInterface",
      "outputs": [
        {
          "internalType": "bool",
          "name": "",
          "type": "bool"
        }
      ],
      "stateMutability": "view",
      "type": "function"
    },
    {
      "inputs": [
        {
          "components": [
            {
              "internalType": "address",
              "name": "author",
              "type": "address"
            },
            {
              "internalType": "string",
              "name": "description",
              "type": "string"
            },
            {
              "internalType": "bool",
              "name": "exists",
              "type": "bool"
            },
            {
              "components": [
                {
                  "internalType": "address",
                  "name": "targetAddress",
                  "type": "address"
                }
              ],
              "internalType": "struct IGovernor.TargetMetadata",
              "name": "targetMetadata",
              "type": "tuple"
            },
            {
              "components": [
                {
                  "internalType": "address[]",
                  "name": "signers",
                  "type": "address[]"
                },
                {
                  "internalType": "uint256",
                  "name": "threshold",
                  "type": "uint256"
                }
              ],
              "internalType": "struct IGovernor.SafeMetadata",
              "name": "safeMetadata",
              "type": "tuple"
            }
          ],
          "internalType": "struct IGovernor.ProposalCore",
          "name": "proposal",
          "type": "tuple"
        }
      ],
      "name": "validateProposalData",
      "outputs": [
        {
          "internalType": "bool",
          "name": "dataValidated",
          "type": "bool"
        }
      ],
      "stateMutability": "nonpayable",
      "type": "function"
    },
    {
      "inputs": [
        {
          "internalType": "address",
          "name": "account",
          "type": "address"
        },
        {
          "internalType": "bytes32[]",
          "name": "proof",
          "type": "bytes32[]"
        }
      ],
      "name": "verifySubmitter",
      "outputs": [
        {
          "internalType": "bool",
          "name": "verified",
          "type": "bool"
        }
      ],
      "stateMutability": "nonpayable",
      "type": "function"
    },
    {
      "inputs": [
        {
          "internalType": "address",
          "name": "account",
          "type": "address"
        },
        {
          "internalType": "uint256",
          "name": "totalVotes",
          "type": "uint256"
        },
        {
          "internalType": "bytes32[]",
          "name": "proof",
          "type": "bytes32[]"
        }
      ],
      "name": "verifyTotalVotes",
      "outputs": [
        {
          "internalType": "bool",
          "name": "verified",
          "type": "bool"
        }
      ],
      "stateMutability": "nonpayable",
      "type": "function"
    },
    {
      "inputs": [],
      "name": "version",
      "outputs": [
        {
          "internalType": "string",
          "name": "",
          "type": "string"
        }
      ],
      "stateMutability": "view",
      "type": "function"
    },
    {
      "inputs": [],
      "name": "voteStart",
      "outputs": [
        {
          "internalType": "uint256",
          "name": "",
          "type": "uint256"
        }
      ],
      "stateMutability": "view",
      "type": "function"
    },
    {
      "inputs": [],
      "name": "votingDelay",
      "outputs": [
        {
          "internalType": "uint256",
          "name": "",
          "type": "uint256"
        }
      ],
      "stateMutability": "view",
      "type": "function"
    },
    {
      "inputs": [],
      "name": "votingMerkleRoot",
      "outputs": [
        {
          "internalType": "bytes32",
          "name": "",
          "type": "bytes32"
        }
      ],
      "stateMutability": "view",
      "type": "function"
    },
    {
      "inputs": [],
      "name": "votingPeriod",
      "outputs": [
        {
          "internalType": "uint256",
          "name": "",
          "type": "uint256"
        }
      ],
      "stateMutability": "view",
      "type": "function"
    },
    {
      "stateMutability": "payable",
      "type": "receive"
    }
  ],
  "bytecode": {
    "object": "0x6101a06040523480156200001257600080fd5b5060405162003e7038038062003e7083398101604081905262000035916200064c565b806000815181106200004b576200004b6200075d565b6020026020010151816001815181106200006957620000696200075d565b6020026020010151826002815181106200008757620000876200075d565b602002602001015183600381518110620000a557620000a56200075d565b602002602001015184600481518110620000c357620000c36200075d565b602002602001015185600581518110620000e157620000e16200075d565b60200260200101518a8a8a8a818185620001006200026160201b60201c565b6200011b6000836200027e60201b62001bf61790919060201c565b60e052620001378160016200027e602090811b62001bf617901c565b61010052815160208084019190912061012052815190820120610140524660a052620001c76101205161014051604080517f8b73c3c69bb8fe3d512ecc4cf759cc79239f7b179b0ffacaa9a75d522b39400f60208201529081019290925260608201524660808201523060a082015260009060c00160405160208183030381529060405280519060200120905090565b60805250503060c05261016091909152610180526007620001e9858262000802565b506008620001f8848262000802565b50505050506200020e86620002ce60201b60201c565b62000219856200030f565b620002248462000350565b6200022f83620003f7565b6200023a8262000438565b620002458162000479565b6200025033620004ba565b505050505050505050505062000928565b604080518082019091526003815262332e3160e81b602082015290565b60006020835110156200029e57620002968362000523565b9050620002c8565b82620002b5836200056660201b62001c271760201c565b90620002c2908262000802565b5060ff90505b92915050565b600c5460408051918252602082018390527fd299feb1d7d9345a48559601c471c3be7eea9a11f21d5e86809198f40a974db4910160405180910390a1600c55565b600d5460408051918252602082018390527fc565b045403dc03c2eea82b81a0465edad9e2e7fc4d97e11421c209da93d7a93910160405180910390a1600d55565b60008111620003b65760405162461bcd60e51b815260206004820152602760248201527f476f7665726e6f7253657474696e67733a20766f74696e6720706572696f6420604482015266746f6f206c6f7760c81b60648201526084015b60405180910390fd5b600e5460408051918252602082018390527f7e3f7f0708a84de9203036abaa450dccc85ad5ff52f78c170f3edb55cf5e8828910160405180910390a1600e55565b600f5460408051918252602082018390527fe971b819c7fb95c72451f557226aceb5baaf4994a9d39a79bbfa0040e87500b9910160405180910390a1600f55565b60105460408051918252602082018390527f4984ec996723330ee95979ed65a2a4b41edd914e68a187efe92596474643bdff910160405180910390a1601055565b60115460408051918252602082018390527f9c7b27f091caef3a83be73d89320404fa0c4a52993685ff0651672e49e6e55ab910160405180910390a1601155565b601254604080516001600160a01b03928316815291831660208301527fc30034fc2e9697980e08935bbc287db3eaa44a4aa113ef4c108b356adbf911ce910160405180910390a1601280546001600160a01b0319166001600160a01b0392909216919091179055565b600080829050601f8151111562000551578260405163305a27a960e01b8152600401620003ad9190620008ce565b80516200055e8262000903565b179392505050565b90565b634e487b7160e01b600052604160045260246000fd5b604051601f8201601f191681016001600160401b0381118282101715620005aa57620005aa62000569565b604052919050565b60005b83811015620005cf578181015183820152602001620005b5565b50506000910152565b600082601f830112620005ea57600080fd5b81516001600160401b0381111562000606576200060662000569565b6200061b601f8201601f19166020016200057f565b8181528460208386010111156200063157600080fd5b62000644826020830160208701620005b2565b949350505050565b600080600080600060a086880312156200066557600080fd5b85516001600160401b03808211156200067d57600080fd5b6200068b89838a01620005d8565b9650602091508188015181811115620006a357600080fd5b620006b18a828b01620005d8565b9650506040880151945060608801519350608088015181811115620006d557600080fd5b8801601f81018a13620006e757600080fd5b805182811115620006fc57620006fc62000569565b8060051b92506200070f8484016200057f565b818152928201840192848101908c8511156200072a57600080fd5b928501925b848410156200074a578351825292850192908501906200072f565b8096505050505050509295509295909350565b634e487b7160e01b600052603260045260246000fd5b600181811c908216806200078857607f821691505b602082108103620007a957634e487b7160e01b600052602260045260246000fd5b50919050565b601f821115620007fd57600081815260208120601f850160051c81016020861015620007d85750805b601f850160051c820191505b81811015620007f957828155600101620007e4565b5050505b505050565b81516001600160401b038111156200081e576200081e62000569565b62000836816200082f845462000773565b84620007af565b602080601f8311600181146200086e5760008415620008555750858301515b600019600386901b1c1916600185901b178555620007f9565b600085815260208120601f198616915b828110156200089f578886015182559484019460019091019084016200087e565b5085821015620008be5787850151600019600388901b60f8161c191681555b5050505050600190811b01905550565b6020815260008251806020840152620008ef816040850160208701620005b2565b601f01601f19169190910160400192915050565b80516020808301519190811015620007a95760001960209190910360031b1b16919050565b60805160a05160c05160e05161010051610120516101405161016051610180516134d862000998600039600081816108860152610b950152600081816107380152610b3001526000505060005050600061126e0152600061124401526000505060005050600050506134d86000f3fe6080604052600436106102965760003560e01c80637f57a0ba1161015a578063cf6afbae116100c1578063e031535b1161007a578063e031535b14610909578063ea8a1af01461091e578063efa90d3614610933578063f0a7db0a14610948578063f4f3d7ec14610968578063fb9bf8d41461098857600080fd5b8063cf6afbae146107f9578063d45a010b14610819578063dd4e2ba51461082e578063dd96a19d14610874578063dea5f6a6146108a8578063deaaa7cc146108d557600080fd5b8063b323580d11610113578063b323580d146106f9578063bddc164114610726578063bfe45b591461075a578063c19d93fb1461077a578063c7f758a81461079c578063cb853950146107c957600080fd5b80637f57a0ba14610616578063832009af1461063657806384b0196e1461064b5780638d50dc6b14610673578063930de97914610693578063aec116b6146106c357600080fd5b80634970ab2f116101fe57806360506ff6116101b757806360506ff61461056e57806365f16263146105835780636e4eb810146105a3578063785ddfe5146105c35780637c65d711146105e15780637d8bfc44146105f657600080fd5b80634970ab2f146104585780634d24a67f1461047857806350a5e5241461049f578063544ffc9c146104c257806354fd4d501461050c5780635f953a031461053857600080fd5b806332763c221161025057806332763c2214610375578063347cf665146103955780633932abb1146103c95780633b6d199b146103de578063419c533c1461040b578063427d56c21461042b57600080fd5b80624114a8146102a457806301ffc9a7146102cc57806302a251a3146102fc57806302d05d3f1461031157806306fdde031461033e578063262e59e91461036057600080fd5b3661029f57005b005b600080fd5b3480156102b057600080fd5b506102b961099d565b6040519081526020015b60405180910390f35b3480156102d857600080fd5b506102ec6102e73660046128a3565b6109ad565b60405190151581526020016102c3565b34801561030857600080fd5b506102b96109e4565b34801561031d57600080fd5b506103266109ef565b6040516001600160a01b0390911681526020016102c3565b34801561034a57600080fd5b50610353610a03565b6040516102c39190612913565b34801561036c57600080fd5b506102b9610a95565b34801561038157600080fd5b506102ec610390366004612997565b610ab1565b3480156103a157600080fd5b506103b1678ac7230489e8000081565b6040516001600160401b0390911681526020016102c3565b3480156103d557600080fd5b506102b9610bee565b3480156103ea57600080fd5b506102b96103f9366004612a07565b60009081526006602052604090205490565b34801561041757600080fd5b506102b9610426366004612a31565b610bf9565b34801561043757600080fd5b5061044b610446366004612aa1565b610c31565b6040516102c39190612af7565b34801561046457600080fd5b506102b9610473366004612db5565b610d5d565b34801561048457600080fd5b5061048d600281565b60405160ff90911681526020016102c3565b3480156104ab57600080fd5b506104b4610da8565b6040516102c3929190612de9565b3480156104ce57600080fd5b506104f76104dd366004612a07565b600090815260146020526040902080546001909101549091565b604080519283526020830191909152016102c3565b34801561051857600080fd5b50604080518082019091526003815262332e3160e81b6020820152610353565b34801561054457600080fd5b506102b9610553366004612e4a565b6001600160a01b03166000908152600b602052604090205490565b34801561057a57600080fd5b506102b9610eae565b34801561058f57600080fd5b506102b961059e366004612e67565b610eb9565b3480156105af57600080fd5b506104f76105be366004612e9c565b610f83565b3480156105cf57600080fd5b506015546001600160a01b0316610326565b3480156105ed57600080fd5b50610353610fb8565b34801561060257600080fd5b506102ec610611366004612ecc565b610fc7565b34801561062257600080fd5b506102ec610631366004612db5565b611032565b34801561064257600080fd5b506102b961122b565b34801561065757600080fd5b50610660611236565b6040516102c39796959493929190612f27565b34801561067f57600080fd5b506102ec61068e366004612f97565b6112be565b34801561069f57600080fd5b506102ec6106ae366004612e4a565b60036020526000908152604090205460ff1681565b3480156106cf57600080fd5b506102b96106de366004612e4a565b6001600160a01b031660009081526013602052604090205490565b34801561070557600080fd5b50610719610714366004612a07565b611323565b6040516102c39190613024565b34801561073257600080fd5b506102b97f000000000000000000000000000000000000000000000000000000000000000081565b34801561076657600080fd5b506102b9610775366004613037565b611395565b34801561078657600080fd5b5061078f6113d9565b6040516102c391906130a8565b3480156107a857600080fd5b506107bc6107b7366004612a07565b61144b565b6040516102c391906130d0565b3480156107d557600080fd5b506102ec6107e4366004612e4a565b60046020526000908152604090205460ff1681565b34801561080557600080fd5b506102b9610814366004612db5565b6115be565b34801561082557600080fd5b506104b46115ef565b34801561083a57600080fd5b5060408051808201909152601881527f737570706f72743d627261766f2671756f72756d3d666f7200000000000000006020820152610353565b34801561088057600080fd5b506102b97f000000000000000000000000000000000000000000000000000000000000000081565b3480156108b457600080fd5b506102b96108c3366004612e4a565b60026020526000908152604090205481565b3480156108e157600080fd5b506102b97f150214d74d59b7d1e90c73fc22ef3d991dd0a76b046543d4d80ab92d2a50328f81565b34801561091557600080fd5b506102b96117ba565b34801561092a57600080fd5b5061029d6117cc565b34801561093f57600080fd5b5061044b6118b6565b34801561095457600080fd5b5061029d610963366004613156565b61190d565b34801561097457600080fd5b5061029d610983366004612e4a565b611b50565b34801561099457600080fd5b506102b9611beb565b60006109a8600c5490565b905090565b60006001600160e01b03198216630949aca360e11b14806109de57506301ffc9a760e01b6001600160e01b03198316145b92915050565b60006109a8600e5490565b60006109a86012546001600160a01b031690565b606060078054610a12906131e6565b80601f0160208091040260200160405190810160405280929190818152602001828054610a3e906131e6565b8015610a8b5780601f10610a6057610100808354040283529160200191610a8b565b820191906000526020600020905b815481529060010190602001808311610a6e57829003601f168201915b5050505050905090565b6000610a9f6109e4565b610aa76117ba565b6109a89190613236565b6040516bffffffffffffffffffffffff19606087901b166020820152603481018590526000908190605401604051602081830303815290604052805190602001209050600083610b6057610b5b8686808060200260200160405190810160405280939291908181526020018383602002808284376000920191909152507f00000000000000000000000000000000000000000000000000000000000000009250869150611c2a9050565b610bc0565b610bc08686808060200260200160405190810160405280939291908181526020018383602002808284376000920191909152507f00000000000000000000000000000000000000000000000000000000000000009250869150611c2a9050565b905080610be05760405163452c2df160e11b815260040160405180910390fd5b506001979650505050505050565b60006109a8600d5490565b600033610c0881878686610fc7565b50610c258882898860405180602001604052806000815250611c40565b98975050505050505050565b606060008083610c4857610c43610da8565b610c50565b610c506115ef565b91509150600082516001600160401b03811115610c6f57610c6f612b0a565b604051908082528060200260200182016040528015610c98578160200160208202803683370190505b50905060005b8251811015610d1c57828181518110610cb957610cb9613249565b602002602001015160200151838281518110610cd757610cd7613249565b602002602001015160000151610ced919061325f565b828281518110610cff57610cff613249565b602090810291909101015280610d1481613286565b915050610c9e565b5060005b60018451610d2e919061329f565b811015610d5357610d40818386611e5a565b5080610d4b81613286565b915050610d20565b5091949350505050565b3360009081526004602052604081205460ff16610d955760405162461bcd60e51b8152600401610d8c906132b2565b60405180910390fd5b610d9e82611032565b506109de82611fc0565b6060806000610db56118b6565b9050600081516001600160401b03811115610dd257610dd2612b0a565b604051908082528060200260200182016040528015610e1757816020015b6040805180820190915260008082526020820152815260200190600190039081610df05790505b50905060005b8251811015610ea45760146000848381518110610e3c57610e3c613249565b6020026020010151815260200190815260200160002060000160405180604001604052908160008201548152602001600182015481525050828281518110610e8657610e86613249565b60200260200101819052508080610e9c90613286565b915050610e1d565b5090939092509050565b60006109a860115490565b3360008181526003602052604081205490919060ff16610f5c5760405162461bcd60e51b815260206004820152605260248201527f476f7665726e6f723a20796f75206e65656420746f2063617374206120766f7460448201527f652077697468207468652070726f6f66206174206c65617374206f6e636520616064820152711b99081e5bdd481a185d995b89dd081e595d60721b608482015260a401610d8c565b610f788582868660405180602001604052806000815250611c40565b9150505b9392505050565b60008281526014602090815260408083206001600160a01b0385168452600301909152902080546001909101545b9250929050565b606060088054610a12906131e6565b6001600160a01b03841660009081526003602052604081205460ff1661102757610ff5858585856000610ab1565b506001600160a01b038516600090815260026020908152604080832087905560039091529020805460ff191660011790555b506001949350505050565b6000805b60028110156111cd57600081600181111561105357611053613092565b9050600081600181111561106957611069613092565b0361107457506111bb565b600181600181111561108857611088613092565b036111b9576080840151515160000361111a5760405162461bcd60e51b815260206004820152604860248201527f476f7665726e6f724d6574616461746156616c69646174696f6e3a207468657260448201527f652063616e6e6f74206265207a65726f207369676e65727320696e20736166656064820152674d6574616461746160c01b608482015260a401610d8c565b8360800151602001516000036111a65760405162461bcd60e51b8152602060048201526044602482018190527f476f7665726e6f724d6574616461746156616c69646174696f6e3a2074687265908201527f73686f6c642063616e6e6f74206265207a65726f20696e20736166654d6574616064820152636461746160e01b608482015260a401610d8c565b608084015151516000036111b957600080fd5b505b806111c581613286565b915050611036565b508160200151516000036112235760405162461bcd60e51b815260206004820152601860248201527f476f7665726e6f723a20656d7074792070726f706f73616c00000000000000006044820152606401610d8c565b506001919050565b60006109a8600f5490565b6000606080828080836112697f000000000000000000000000000000000000000000000000000000000000000083612342565b6112947f00000000000000000000000000000000000000000000000000000000000000006001612342565b60408051600080825260208201909252600f60f81b9b939a50919850469750309650945092509050565b6001600160a01b03831660009081526004602052604081205460ff16611319576112f484678ac7230489e8000085856000610ab1565b506001600160a01b0384166000908152600460205260409020805460ff191660011790555b5060019392505050565b600081815260146020908152604091829020600281018054845181850281018501909552808552606094929383018282801561138857602002820191906000526020600020905b81546001600160a01b0316815260019091019060200180831161136a575b5050505050915050919050565b60006113a23384846112be565b6113be5760405162461bcd60e51b8152600401610d8c906132b2565b6113c784611032565b506113d184611fc0565b949350505050565b60095460009060ff16156113ed5750600290565b60006113f761099d565b905042811061140857600091505090565b60006114126117ba565b90504281106114245760039250505090565b600061142e610a95565b9050428110611441576001935050505090565b6004935050505090565b6114536127b8565b6000828152600a6020908152604091829020825160a0810190935280546001600160a01b03168352600181018054919284019161148f906131e6565b80601f01602080910402602001604051908101604052809291908181526020018280546114bb906131e6565b80156115085780601f106114dd57610100808354040283529160200191611508565b820191906000526020600020905b8154815290600101906020018083116114eb57829003601f168201915b5050509183525050600282015460ff16151560208083019190915260408051808301825260038501546001600160a01b03168152818401528051600485018054938402820160609081018452928201848152948301949193909284929184918401828280156115a057602002820191906000526020600020905b81546001600160a01b03168152600190910190602001808311611582575b50505050508152602001600182015481525050815250509050919050565b6000816040516020016115d191906130d0565b60408051601f19818403018152919052805160209091012092915050565b60608060006115fc6118b6565b9050600081516001600160401b0381111561161957611619612b0a565b604051908082528060200260200182016040528015611642578160200160208202803683370190505b509050600082516001600160401b0381111561166057611660612b0a565b6040519080825280602002602001820160405280156116a557816020015b604080518082019091526000808252602082015281526020019060019003908161167e5790505b5090506000805b84518110156117ae576116e48582815181106116ca576116ca613249565b602002602001015160009081526006602052604090205490565b60011461179c578481815181106116fd576116fd613249565b602002602001015184838151811061171757611717613249565b6020026020010181815250506014600086838151811061173957611739613249565b602002602001015181526020019081526020016000206000016040518060400160405290816000820154815260200160018201548152505083838151811061178357611783613249565b6020908102919091010152611799600183613236565b91505b806117a681613286565b9150506116ac565b50919590945092505050565b60006117c4610bee565b610aa761099d565b6117d46109ef565b6001600160a01b0316336001600160a01b0316146117f157600080fd5b60006117fb6113d9565b9050600281600481111561181157611811613092565b141580156118315750600481600481111561182e5761182e613092565b14155b61187d5760405162461bcd60e51b815260206004820152601c60248201527f476f7665726e6f723a20636f6e74657374206e6f7420616374697665000000006044820152606401610d8c565b6009805460ff191660011790556040517f4cd963a081760a54f571abc0f1db4dde31b4a07d8d6da3e844b8c6f47eeaaa4290600090a150565b60606005805480602002602001604051908101604052809291908181526020018280548015610a8b57602002820191906000526020600020905b8154815260200190600101908083116118f0575050505050905090565b6119156109ef565b6001600160a01b0316336001600160a01b03161461199b5760405162461bcd60e51b815260206004820152603760248201527f476f7665726e6f723a206f6e6c792074686520636f6e7465737420637265617460448201527f6f722063616e2064656c6574652070726f706f73616c730000000000000000006064820152608401610d8c565b60046119a56113d9565b60048111156119b6576119b6613092565b03611a3b5760405162461bcd60e51b815260206004820152604960248201527f476f7665726e6f723a2064656c6574696f6e206f662070726f706f73616c732060448201527f61667465722074686520656e64206f66206120636f6e74657374206973206e6f6064820152681d08185b1b1bddd95960ba1b608482015260a401610d8c565b60005b8151811015611b155760066000838381518110611a5d57611a5d613249565b6020026020010151815260200190815260200160002054600114611b0357600160066000848481518110611a9357611a93613249565b60200260200101518152602001908152602001600020819055506040518060600160405280603d8152602001613466603d9139600a6000848481518110611adc57611adc613249565b602002602001015181526020019081526020016000206001019081611b019190613350565b505b80611b0d81613286565b915050611a3e565b507f75a75cf5c561892f4cc5b26c1b8e933849b42238c96dd073d080d1ae96c5141681604051611b459190612af7565b60405180910390a150565b611b586109ef565b6001600160a01b0316336001600160a01b031614611b7557600080fd5b6000611b896015546001600160a01b031690565b601580546001600160a01b0319166001600160a01b0385811691821790925560408051928416835260208301919091529192507f753a2cf8d360cff631674504210913e48247f8e56b3e6d2006c2103d4095999f910160405180910390a15050565b60006109a860105490565b6000602083511015611c1257611c0b836123e6565b90506109de565b81611c1d8482613350565b5060ff9392505050565b90565b600082611c378584612424565b14949350505050565b60006001611c4c6113d9565b6004811115611c5d57611c5d613092565b14611cb65760405162461bcd60e51b815260206004820152602360248201527f476f7665726e6f723a20766f7465206e6f742063757272656e746c792061637460448201526269766560e81b6064820152608401610d8c565b60008311611d1a5760405162461bcd60e51b815260206004820152602b60248201527f476f7665726e6f723a2063616e6e6f7420766f746520776974682030206f722060448201526a666577657220766f74657360a81b6064820152608401610d8c565b6001600160a01b03851660009081526003602052604090205460ff16611dc05760405162461bcd60e51b815260206004820152604f60248201527f476f7665726e6f723a20796f75206e65656420746f2076657269667920796f7560448201527f72206e756d626572206f6620766f74657320616761696e737420746865206d6560648201526e1c9adb19481c9bdbdd08199a5c9cdd608a1b608482015260a401610d8c565b611df286868686600260008b6001600160a01b03166001600160a01b0316815260200190815260200160002054612471565b846001600160a01b03167fb8e138887d0aa13bab447e82de9d5c1777041ecd21ca36ba824ff1e6c07ddda487868686604051611e31949392919061340f565b60405180910390a2505050506001600160a01b0316600090815260026020526040902054919050565b600083805b8451811015611eb857848281518110611e7a57611e7a613249565b6020026020010151858281518110611e9457611e94613249565b60200260200101511215611ea6578091505b80611eb081613286565b915050611e5f565b50848103611eca576000915050610f7c565b6000848681518110611ede57611ede613249565b60200260200101519050848281518110611efa57611efa613249565b6020026020010151858781518110611f1457611f14613249565b60200260200101818152505080858381518110611f3357611f33613249565b6020026020010181815250506000848781518110611f5357611f53613249565b60200260200101519050848381518110611f6f57611f6f613249565b6020026020010151858881518110611f8957611f89613249565b60200260200101818152505080858481518110611fa857611fa8613249565b60209081029190910101525060019695505050505050565b60006003611fcc6113d9565b6004811115611fdd57611fdd613092565b146120505760405162461bcd60e51b815260206004820152603e60248201527f476f7665726e6f723a20636f6e74657374206d7573742062652071756575656460448201527f20666f722070726f706f73616c7320746f206265207375626d697474656400006064820152608401610d8c565b61205861122b565b336000908152600b6020526040902054106121015760405162461bcd60e51b815260206004820152605d60248201527f476f7665726e6f723a207468652073616d652063616e6e6f74207375626d697460448201527f206d6f7265207468616e20746865206e756d416c6c6f77656450726f706f736160648201527f6c5375626d697373696f6e7320666f72207468697320636f6e74657374000000608482015260a401610d8c565b612109611beb565b6005541061217f5760405162461bcd60e51b815260206004820152603960248201527f476f7665726e6f723a20746865206d6178206e756d626572206f662070726f7060448201527f6f73616c732068617665206265656e207375626d6974746564000000000000006064820152608401610d8c565b600061218a836115be565b6000818152600a602052604090206002015490915060ff16156122015760405162461bcd60e51b815260206004820152602960248201527f476f7665726e6f723a206475706c69636174652070726f706f73616c73206e6f6044820152681d08185b1b1bddd95960ba1b6064820152608401610d8c565b6005805460018082019092557f036b6384b5eca791c62761152d0c79bb0604c104a5fb6f4eb0703f3154bb3db0018290556000828152600a60209081526040909120855181546001600160a01b0319166001600160a01b039091161781559085015185928201906122729082613350565b50604082015160028201805460ff19169115159190911790556060820151516003820180546001600160a01b0319166001600160a01b0390921691909117905560808201518051805160048401916122cf91839160200190612829565b50602091820151600191820155336000908152600b90925260408220805491945092506122fd908490613236565b90915550506040805182815233602082015281517fcd423cc1203c0af96b9b3d68d73b3064a69de2d14450bb7181c5e5df2132b358929181900390910190a192915050565b606060ff831461235557611c0b83612725565b818054612361906131e6565b80601f016020809104026020016040519081016040528092919081815260200182805461238d906131e6565b80156123da5780601f106123af576101008083540402835291602001916123da565b820191906000526020600020905b8154815290600101906020018083116123bd57829003601f168201915b505050505090506109de565b600080829050601f81511115612411578260405163305a27a960e01b8152600401610d8c9190612913565b805161241c82613441565b179392505050565b600081815b8451811015612469576124558286838151811061244857612448613249565b6020026020010151612764565b91508061246181613286565b915050612429565b509392505050565b60008581526014602090815260408083206001600160a01b03881684526013909252909120546124a1908361329f565b83111561250c5760405162461bcd60e51b815260206004820152603360248201527f476f7665726e6f72566f74696e6753696d706c653a206e6f7420656e6f756768604482015272081d9bdd195cc81b19599d081d1bc818d85cdd606a1b6064820152608401610d8c565b6001600160a01b03851660009081526003820160205260409020541560ff851661257e57815484908390600090612544908490613236565b90915550506001600160a01b038616600090815260038301602052604081208054869290612573908490613236565b909155506126b89050565b60001960ff86160161265257612592610eae565b600114612609576040805162461bcd60e51b81526020600482015260248101919091527f476f7665726e6f72566f74696e6753696d706c653a20646f776e766f74696e6760448201527f206973206e6f7420656e61626c656420666f72207468697320436f6e746573746064820152608401610d8c565b838260000160010160008282546126209190613236565b90915550506001600160a01b038616600090815260038301602052604081206001018054869290612573908490613236565b60405162461bcd60e51b815260206004820152603560248201527f476f7665726e6f72566f74696e6753696d706c653a20696e76616c69642076616044820152746c756520666f7220656e756d20566f74655479706560581b6064820152608401610d8c565b80156126ef57600282018054600181018255600091825260209091200180546001600160a01b0319166001600160a01b0388161790555b6001600160a01b03861660009081526013602052604081208054869290612717908490613236565b909155505050505050505050565b6060600061273283612790565b604080516020808252818301909252919250600091906020820181803683375050509182525060208101929092525090565b6000818310612780576000828152602084905260409020610f7c565b5060009182526020526040902090565b600060ff8216601f8111156109de57604051632cd44ac360e21b815260040160405180910390fd5b6040518060a0016040528060006001600160a01b0316815260200160608152602001600015158152602001612802604051806020016040528060006001600160a01b031681525090565b8152602001612824604051806040016040528060608152602001600081525090565b905290565b82805482825590600052602060002090810192821561287e579160200282015b8281111561287e57825182546001600160a01b0319166001600160a01b03909116178255602090920191600190910190612849565b5061288a92915061288e565b5090565b5b8082111561288a576000815560010161288f565b6000602082840312156128b557600080fd5b81356001600160e01b031981168114610f7c57600080fd5b6000815180845260005b818110156128f3576020818501810151868301820152016128d7565b506000602082860101526020601f19601f83011685010191505092915050565b602081526000610f7c60208301846128cd565b6001600160a01b038116811461293b57600080fd5b50565b60008083601f84011261295057600080fd5b5081356001600160401b0381111561296757600080fd5b6020830191508360208260051b8501011115610fb157600080fd5b8035801515811461299257600080fd5b919050565b6000806000806000608086880312156129af57600080fd5b85356129ba81612926565b94506020860135935060408601356001600160401b038111156129dc57600080fd5b6129e88882890161293e565b90945092506129fb905060608701612982565b90509295509295909350565b600060208284031215612a1957600080fd5b5035919050565b803560ff8116811461299257600080fd5b60008060008060008060a08789031215612a4a57600080fd5b86359550612a5a60208801612a20565b9450604087013593506060870135925060808701356001600160401b03811115612a8357600080fd5b612a8f89828a0161293e565b979a9699509497509295939492505050565b600060208284031215612ab357600080fd5b610f7c82612982565b600081518084526020808501945080840160005b83811015612aec57815187529582019590820190600101612ad0565b509495945050505050565b602081526000610f7c6020830184612abc565b634e487b7160e01b600052604160045260246000fd5b604080519081016001600160401b0381118282101715612b4257612b42612b0a565b60405290565b60405160a081016001600160401b0381118282101715612b4257612b42612b0a565b604051601f8201601f191681016001600160401b0381118282101715612b9257612b92612b0a565b604052919050565b600060208284031215612bac57600080fd5b604051602081018181106001600160401b0382111715612bce57612bce612b0a565b6040529050808235612bdf81612926565b905292915050565b60006001600160401b03821115612c0057612c00612b0a565b5060051b60200190565b600060408284031215612c1c57600080fd5b612c24612b20565b905081356001600160401b03811115612c3c57600080fd5b8201601f81018413612c4d57600080fd5b80356020612c62612c5d83612be7565b612b6a565b82815260059290921b83018101918181019087841115612c8157600080fd5b938201935b83851015612ca8578435612c9981612926565b82529382019390820190612c86565b85525093840135938301939093525092915050565b600060a08284031215612ccf57600080fd5b612cd7612b48565b90508135612ce481612926565b81526020828101356001600160401b0380821115612d0157600080fd5b818501915085601f830112612d1557600080fd5b813581811115612d2757612d27612b0a565b612d39601f8201601f19168501612b6a565b8181528785838601011115612d4d57600080fd5b8185850186830137600085838301015280858701525050612d7060408601612982565b6040850152612d828660608701612b9a565b60608501526080850135925080831115612d9b57600080fd5b5050612da984828501612c0a565b60808301525092915050565b600060208284031215612dc757600080fd5b81356001600160401b03811115612ddd57600080fd5b6113d184828501612cbd565b60006040808352612dfc81840186612abc565b83810360208581019190915285518083528682019282019060005b81811015612e3c57845180518452840151848401529383019391850191600101612e17565b509098975050505050505050565b600060208284031215612e5c57600080fd5b8135610f7c81612926565b600080600060608486031215612e7c57600080fd5b83359250612e8c60208501612a20565b9150604084013590509250925092565b60008060408385031215612eaf57600080fd5b823591506020830135612ec181612926565b809150509250929050565b60008060008060608587031215612ee257600080fd5b8435612eed81612926565b93506020850135925060408501356001600160401b03811115612f0f57600080fd5b612f1b8782880161293e565b95989497509550505050565b60ff60f81b8816815260e060208201526000612f4660e08301896128cd565b8281036040840152612f5881896128cd565b606084018890526001600160a01b038716608085015260a0840186905283810360c08501529050612f898185612abc565b9a9950505050505050505050565b600080600060408486031215612fac57600080fd5b8335612fb781612926565b925060208401356001600160401b03811115612fd257600080fd5b612fde8682870161293e565b9497909650939450505050565b600081518084526020808501945080840160005b83811015612aec5781516001600160a01b031687529582019590820190600101612fff565b602081526000610f7c6020830184612feb565b60008060006040848603121561304c57600080fd5b83356001600160401b038082111561306357600080fd5b61306f87838801612cbd565b9450602086013591508082111561308557600080fd5b50612fde8682870161293e565b634e487b7160e01b600052602160045260246000fd5b60208101600583106130ca57634e487b7160e01b600052602160045260246000fd5b91905290565b60208152600060018060a01b03808451166020840152602084015160a060408501526130ff60c08501826128cd565b90506040850151151560608501528160608601515116608085015260808501519150601f198482030160a08501528151604082526131406040830182612feb565b6020938401519290930191909152509392505050565b6000602080838503121561316957600080fd5b82356001600160401b0381111561317f57600080fd5b8301601f8101851361319057600080fd5b803561319e612c5d82612be7565b81815260059190911b820183019083810190878311156131bd57600080fd5b928401925b828410156131db578335825292840192908401906131c2565b979650505050505050565b600181811c908216806131fa57607f821691505b60208210810361321a57634e487b7160e01b600052602260045260246000fd5b50919050565b634e487b7160e01b600052601160045260246000fd5b808201808211156109de576109de613220565b634e487b7160e01b600052603260045260246000fd5b818103600083128015838313168383128216171561327f5761327f613220565b5092915050565b60006001820161329857613298613220565b5060010190565b818103818111156109de576109de613220565b6020808252602f908201527f476f7665726e6f723a2061646472657373206973206e6f74207065726d69737360408201526e1a5bdb9959081d1bc81cdd589b5a5d608a1b606082015260800190565b601f82111561334b57600081815260208120601f850160051c810160208610156133285750805b601f850160051c820191505b8181101561334757828155600101613334565b5050505b505050565b81516001600160401b0381111561336957613369612b0a565b61337d8161337784546131e6565b84613301565b602080601f8311600181146133b2576000841561339a5750858301515b600019600386901b1c1916600185901b178555613347565b600085815260208120601f198616915b828110156133e1578886015182559484019460019091019084016133c2565b50858210156133ff5787850151600019600388901b60f8161c191681555b5050505050600190811b01905550565b84815260ff8416602082015282604082015260806060820152600061343760808301846128cd565b9695505050505050565b8051602080830151919081101561321a5760001960209190910360031b1b1691905056fe546869732070726f706f73616c20686173206265656e2064656c65746564206279207468652063726561746f72206f662074686520636f6e746573742ea2646970667358221220b4389551a9ea8d1ca93750f264982ee0f306694b9676b3f6ad586ab9aee4b9b464736f6c63430008120033",
    "linkReferences": {}
  },
  "methodIdentifiers": {
    "AMOUNT_FOR_SUMBITTER_PROOF()": "347cf665",
    "BALLOT_TYPEHASH()": "deaaa7cc",
    "COUNTING_MODE()": "dd4e2ba5",
    "METADATAS_COUNT()": "4d24a67f",
    "addressSubmitterVerified(address)": "cb853950",
    "addressTotalVotes(address)": "dea5f6a6",
    "addressTotalVotesVerified(address)": "930de979",
    "allProposalTotalVotes()": "50a5e524",
    "allProposalTotalVotesWithoutDeleted()": "d45a010b",
    "cancel()": "ea8a1af0",
    "castVote(uint256,uint8,uint256,uint256,bytes32[])": "419c533c",
    "castVoteWithoutProof(uint256,uint8,uint256)": "65f16263",
    "checkProof(address,uint256,bytes32[],bool)": "32763c22",
    "contestAddressTotalVotesCast(address)": "aec116b6",
    "contestDeadline()": "262e59e9",
    "contestStart()": "004114a8",
    "creator()": "02d05d3f",
    "deleteProposals(uint256[])": "f0a7db0a",
    "downvotingAllowed()": "60506ff6",
    "eip712Domain()": "84b0196e",
    "getAllProposalIds()": "efa90d36",
    "getNumSubmissions(address)": "5f953a03",
    "getProposal(uint256)": "c7f758a8",
    "hashProposal((address,string,bool,(address),(address[],uint256)))": "cf6afbae",
    "isProposalDeleted(uint256)": "3b6d199b",
    "maxProposalCount()": "fb9bf8d4",
    "name()": "06fdde03",
    "numAllowedProposalSubmissions()": "832009af",
    "officialRewardsModule()": "785ddfe5",
    "prompt()": "7c65d711",
    "proposalAddressVotes(uint256,address)": "6e4eb810",
    "proposalAddressesHaveVoted(uint256)": "b323580d",
    "proposalVotes(uint256)": "544ffc9c",
    "propose((address,string,bool,(address),(address[],uint256)),bytes32[])": "bfe45b59",
    "proposeWithoutProof((address,string,bool,(address),(address[],uint256)))": "4970ab2f",
    "setOfficialRewardsModule(address)": "f4f3d7ec",
    "sortedProposals(bool)": "427d56c2",
    "state()": "c19d93fb",
    "submissionMerkleRoot()": "bddc1641",
    "supportsInterface(bytes4)": "01ffc9a7",
    "validateProposalData((address,string,bool,(address),(address[],uint256)))": "7f57a0ba",
    "verifySubmitter(address,bytes32[])": "8d50dc6b",
    "verifyTotalVotes(address,uint256,bytes32[])": "7d8bfc44",
    "version()": "54fd4d50",
    "voteStart()": "e031535b",
    "votingDelay()": "3932abb1",
    "votingMerkleRoot()": "dd96a19d",
    "votingPeriod()": "02a251a3"
  },
  "id": 36
}