{
  "abi": [
    {
      "inputs": [
        {
          "internalType": "string",
          "name": "_name",
          "type": "string"
        },
        {
          "internalType": "string",
          "name": "_prompt",
          "type": "string"
        },
        {
          "internalType": "bytes32",
          "name": "_submissionMerkleRoot",
          "type": "bytes32"
        },
        {
          "internalType": "bytes32",
          "name": "_votingMerkleRoot",
          "type": "bytes32"
        },
        {
          "internalType": "uint256[]",
          "name": "_constructorIntParams",
          "type": "uint256[]"
        }
      ],
      "stateMutability": "nonpayable",
      "type": "constructor"
    },
    {
      "inputs": [],
      "name": "InvalidShortString",
      "type": "error"
    },
    {
      "inputs": [],
      "name": "NotInMerkle",
      "type": "error"
    },
    {
      "inputs": [
        {
          "internalType": "string",
          "name": "str",
          "type": "string"
        }
      ],
      "name": "StringTooLong",
      "type": "error"
    },
    {
      "anonymous": false,
      "inputs": [],
      "name": "ContestCanceled",
      "type": "event"
    },
    {
      "anonymous": false,
      "inputs": [
        {
          "indexed": false,
          "internalType": "uint256",
          "name": "oldContestStart",
          "type": "uint256"
        },
        {
          "indexed": false,
          "internalType": "uint256",
          "name": "newContestStart",
          "type": "uint256"
        }
      ],
      "name": "ContestStartSet",
      "type": "event"
    },
    {
      "anonymous": false,
      "inputs": [
        {
          "indexed": false,
          "internalType": "address",
          "name": "oldCreator",
          "type": "address"
        },
        {
          "indexed": false,
          "internalType": "address",
          "name": "newCreator",
          "type": "address"
        }
      ],
      "name": "CreatorSet",
      "type": "event"
    },
    {
      "anonymous": false,
      "inputs": [
        {
          "indexed": false,
          "internalType": "uint256",
          "name": "oldDownvotingAllowed",
          "type": "uint256"
        },
        {
          "indexed": false,
          "internalType": "uint256",
          "name": "newDownvotingAllowed",
          "type": "uint256"
        }
      ],
      "name": "DownvotingAllowedSet",
      "type": "event"
    },
    {
      "anonymous": false,
      "inputs": [],
      "name": "EIP712DomainChanged",
      "type": "event"
    },
    {
      "anonymous": false,
      "inputs": [
        {
          "indexed": false,
          "internalType": "uint256",
          "name": "oldMaxProposalCount",
          "type": "uint256"
        },
        {
          "indexed": false,
          "internalType": "uint256",
          "name": "newMaxProposalCount",
          "type": "uint256"
        }
      ],
      "name": "MaxProposalCountSet",
      "type": "event"
    },
    {
      "anonymous": false,
      "inputs": [
        {
          "indexed": false,
          "internalType": "uint256",
          "name": "oldNumAllowedProposalSubmissions",
          "type": "uint256"
        },
        {
          "indexed": false,
          "internalType": "uint256",
          "name": "newNumAllowedProposalSubmissions",
          "type": "uint256"
        }
      ],
      "name": "NumAllowedProposalSubmissionsSet",
      "type": "event"
    },
    {
      "anonymous": false,
      "inputs": [
        {
          "indexed": false,
          "internalType": "contract RewardsModule",
          "name": "oldOfficialRewardsModule",
          "type": "address"
        },
        {
          "indexed": false,
          "internalType": "contract RewardsModule",
          "name": "newOfficialRewardsModule",
          "type": "address"
        }
      ],
      "name": "OfficialRewardsModuleSet",
      "type": "event"
    },
    {
      "anonymous": false,
      "inputs": [
        {
          "indexed": false,
          "internalType": "uint256",
          "name": "proposalId",
          "type": "uint256"
        },
        {
          "indexed": false,
          "internalType": "address",
          "name": "proposer",
          "type": "address"
        }
      ],
      "name": "ProposalCreated",
      "type": "event"
    },
    {
      "anonymous": false,
      "inputs": [
        {
          "indexed": false,
          "internalType": "uint256[]",
          "name": "proposalIds",
          "type": "uint256[]"
        }
      ],
      "name": "ProposalsDeleted",
      "type": "event"
    },
    {
      "anonymous": false,
      "inputs": [
        {
          "indexed": true,
          "internalType": "address",
          "name": "voter",
          "type": "address"
        },
        {
          "indexed": false,
          "internalType": "uint256",
          "name": "proposalId",
          "type": "uint256"
        },
        {
          "indexed": false,
          "internalType": "uint8",
          "name": "support",
          "type": "uint8"
        },
        {
          "indexed": false,
          "internalType": "uint256",
          "name": "numVotes",
          "type": "uint256"
        },
        {
          "indexed": false,
          "internalType": "string",
          "name": "reason",
          "type": "string"
        }
      ],
      "name": "VoteCast",
      "type": "event"
    },
    {
      "anonymous": false,
      "inputs": [
        {
          "indexed": false,
          "internalType": "uint256",
          "name": "oldVotingDelay",
          "type": "uint256"
        },
        {
          "indexed": false,
          "internalType": "uint256",
          "name": "newVotingDelay",
          "type": "uint256"
        }
      ],
      "name": "VotingDelaySet",
      "type": "event"
    },
    {
      "anonymous": false,
      "inputs": [
        {
          "indexed": false,
          "internalType": "uint256",
          "name": "oldVotingPeriod",
          "type": "uint256"
        },
        {
          "indexed": false,
          "internalType": "uint256",
          "name": "newVotingPeriod",
          "type": "uint256"
        }
      ],
      "name": "VotingPeriodSet",
      "type": "event"
    },
    {
      "inputs": [],
      "name": "AMOUNT_FOR_SUMBITTER_PROOF",
      "outputs": [
        {
          "internalType": "uint64",
          "name": "",
          "type": "uint64"
        }
      ],
      "stateMutability": "view",
      "type": "function"
    },
    {
      "inputs": [],
      "name": "BALLOT_TYPEHASH",
      "outputs": [
        {
          "internalType": "bytes32",
          "name": "",
          "type": "bytes32"
        }
      ],
      "stateMutability": "view",
      "type": "function"
    },
    {
      "inputs": [],
      "name": "COUNTING_MODE",
      "outputs": [
        {
          "internalType": "string",
          "name": "",
          "type": "string"
        }
      ],
      "stateMutability": "pure",
      "type": "function"
    },
    {
      "inputs": [],
      "name": "METADATAS_COUNT",
      "outputs": [
        {
          "internalType": "uint8",
          "name": "",
          "type": "uint8"
        }
      ],
      "stateMutability": "view",
      "type": "function"
    },
    {
      "inputs": [
        {
          "internalType": "address",
          "name": "",
          "type": "address"
        }
      ],
      "name": "addressSubmitterVerified",
      "outputs": [
        {
          "internalType": "bool",
          "name": "",
          "type": "bool"
        }
      ],
      "stateMutability": "view",
      "type": "function"
    },
    {
      "inputs": [
        {
          "internalType": "address",
          "name": "",
          "type": "address"
        }
      ],
      "name": "addressTotalCastVoteCounts",
      "outputs": [
        {
          "internalType": "uint256",
          "name": "",
          "type": "uint256"
        }
      ],
      "stateMutability": "view",
      "type": "function"
    },
    {
      "inputs": [
        {
          "internalType": "address",
          "name": "",
          "type": "address"
        }
      ],
      "name": "addressTotalVotes",
      "outputs": [
        {
          "internalType": "uint256",
          "name": "",
          "type": "uint256"
        }
      ],
      "stateMutability": "view",
      "type": "function"
    },
    {
      "inputs": [
        {
          "internalType": "address",
          "name": "",
          "type": "address"
        }
      ],
      "name": "addressTotalVotesVerified",
      "outputs": [
        {
          "internalType": "bool",
          "name": "",
          "type": "bool"
        }
      ],
      "stateMutability": "view",
      "type": "function"
    },
    {
      "inputs": [],
      "name": "allProposalTotalVotes",
      "outputs": [
        {
          "internalType": "uint256[]",
          "name": "proposalIdsReturn",
          "type": "uint256[]"
        },
        {
          "components": [
            {
              "internalType": "uint256",
              "name": "forVotes",
              "type": "uint256"
            },
            {
              "internalType": "uint256",
              "name": "againstVotes",
              "type": "uint256"
            }
          ],
          "internalType": "struct GovernorCountingSimple.VoteCounts[]",
          "name": "proposalVoteCountsArrayReturn",
          "type": "tuple[]"
        }
      ],
      "stateMutability": "view",
      "type": "function"
    },
    {
      "inputs": [],
      "name": "allProposalTotalVotesWithoutDeleted",
      "outputs": [
        {
          "internalType": "uint256[]",
          "name": "proposalIdsReturn",
          "type": "uint256[]"
        },
        {
          "components": [
            {
              "internalType": "uint256",
              "name": "forVotes",
              "type": "uint256"
            },
            {
              "internalType": "uint256",
              "name": "againstVotes",
              "type": "uint256"
            }
          ],
          "internalType": "struct GovernorCountingSimple.VoteCounts[]",
          "name": "proposalVoteCountsArrayReturn",
          "type": "tuple[]"
        }
      ],
      "stateMutability": "view",
      "type": "function"
    },
    {
      "inputs": [],
      "name": "cancel",
      "outputs": [],
      "stateMutability": "nonpayable",
      "type": "function"
    },
    {
      "inputs": [
        {
          "internalType": "uint256",
          "name": "proposalId",
          "type": "uint256"
        },
        {
          "internalType": "uint8",
          "name": "support",
          "type": "uint8"
        },
        {
          "internalType": "uint256",
          "name": "totalVotes",
          "type": "uint256"
        },
        {
          "internalType": "uint256",
          "name": "numVotes",
          "type": "uint256"
        },
        {
          "internalType": "bytes32[]",
          "name": "proof",
          "type": "bytes32[]"
        }
      ],
      "name": "castVote",
      "outputs": [
        {
          "internalType": "uint256",
          "name": "",
          "type": "uint256"
        }
      ],
      "stateMutability": "nonpayable",
      "type": "function"
    },
    {
      "inputs": [
        {
          "internalType": "uint256",
          "name": "proposalId",
          "type": "uint256"
        },
        {
          "internalType": "uint8",
          "name": "support",
          "type": "uint8"
        },
        {
          "internalType": "uint256",
          "name": "numVotes",
          "type": "uint256"
        }
      ],
      "name": "castVoteWithoutProof",
      "outputs": [
        {
          "internalType": "uint256",
          "name": "",
          "type": "uint256"
        }
      ],
      "stateMutability": "nonpayable",
      "type": "function"
    },
    {
      "inputs": [
        {
          "internalType": "address",
          "name": "addressToCheck",
          "type": "address"
        },
        {
          "internalType": "uint256",
          "name": "amount",
          "type": "uint256"
        },
        {
          "internalType": "bytes32[]",
          "name": "proof",
          "type": "bytes32[]"
        },
        {
          "internalType": "bool",
          "name": "voting",
          "type": "bool"
        }
      ],
      "name": "checkProof",
      "outputs": [
        {
          "internalType": "bool",
          "name": "verified",
          "type": "bool"
        }
      ],
      "stateMutability": "view",
      "type": "function"
    },
    {
      "inputs": [
        {
          "internalType": "address",
          "name": "userAddress",
          "type": "address"
        }
      ],
      "name": "contestAddressTotalVotesCast",
      "outputs": [
        {
          "internalType": "uint256",
          "name": "totalVotesCast",
          "type": "uint256"
        }
      ],
      "stateMutability": "view",
      "type": "function"
    },
    {
      "inputs": [],
      "name": "contestDeadline",
      "outputs": [
        {
          "internalType": "uint256",
          "name": "",
          "type": "uint256"
        }
      ],
      "stateMutability": "view",
      "type": "function"
    },
    {
      "inputs": [],
      "name": "contestStart",
      "outputs": [
        {
          "internalType": "uint256",
          "name": "",
          "type": "uint256"
        }
      ],
      "stateMutability": "view",
      "type": "function"
    },
    {
      "inputs": [],
      "name": "creator",
      "outputs": [
        {
          "internalType": "address",
          "name": "",
          "type": "address"
        }
      ],
      "stateMutability": "view",
      "type": "function"
    },
    {
      "inputs": [
        {
          "internalType": "uint256[]",
          "name": "proposalIds",
          "type": "uint256[]"
        }
      ],
      "name": "deleteProposals",
      "outputs": [],
      "stateMutability": "nonpayable",
      "type": "function"
    },
    {
      "inputs": [],
      "name": "downvotingAllowed",
      "outputs": [
        {
          "internalType": "uint256",
          "name": "",
          "type": "uint256"
        }
      ],
      "stateMutability": "view",
      "type": "function"
    },
    {
      "inputs": [],
      "name": "eip712Domain",
      "outputs": [
        {
          "internalType": "bytes1",
          "name": "fields",
          "type": "bytes1"
        },
        {
          "internalType": "string",
          "name": "name",
          "type": "string"
        },
        {
          "internalType": "string",
          "name": "version",
          "type": "string"
        },
        {
          "internalType": "uint256",
          "name": "chainId",
          "type": "uint256"
        },
        {
          "internalType": "address",
          "name": "verifyingContract",
          "type": "address"
        },
        {
          "internalType": "bytes32",
          "name": "salt",
          "type": "bytes32"
        },
        {
          "internalType": "uint256[]",
          "name": "extensions",
          "type": "uint256[]"
        }
      ],
      "stateMutability": "view",
      "type": "function"
    },
    {
      "inputs": [],
      "name": "getAllProposalIds",
      "outputs": [
        {
          "internalType": "uint256[]",
          "name": "",
          "type": "uint256[]"
        }
      ],
      "stateMutability": "view",
      "type": "function"
    },
    {
      "inputs": [
        {
          "internalType": "address",
          "name": "account",
          "type": "address"
        }
      ],
      "name": "getNumSubmissions",
      "outputs": [
        {
          "internalType": "uint256",
          "name": "",
          "type": "uint256"
        }
      ],
      "stateMutability": "view",
      "type": "function"
    },
    {
      "inputs": [
        {
          "internalType": "uint256",
          "name": "proposalId",
          "type": "uint256"
        }
      ],
      "name": "getProposal",
      "outputs": [
        {
          "components": [
            {
              "internalType": "address",
              "name": "author",
              "type": "address"
            },
            {
              "internalType": "string",
              "name": "description",
              "type": "string"
            },
            {
              "internalType": "bool",
              "name": "exists",
              "type": "bool"
            },
            {
              "components": [
                {
                  "internalType": "address",
                  "name": "targetAddress",
                  "type": "address"
                }
              ],
              "internalType": "struct IGovernor.TargetMetadata",
              "name": "targetMetadata",
              "type": "tuple"
            },
            {
              "components": [
                {
                  "internalType": "address[]",
                  "name": "signers",
                  "type": "address[]"
                },
                {
                  "internalType": "uint256",
                  "name": "threshold",
                  "type": "uint256"
                }
              ],
              "internalType": "struct IGovernor.SafeMetadata",
              "name": "safeMetadata",
              "type": "tuple"
            }
          ],
          "internalType": "struct IGovernor.ProposalCore",
          "name": "",
          "type": "tuple"
        }
      ],
      "stateMutability": "view",
      "type": "function"
    },
    {
      "inputs": [
        {
          "components": [
            {
              "internalType": "address",
              "name": "author",
              "type": "address"
            },
            {
              "internalType": "string",
              "name": "description",
              "type": "string"
            },
            {
              "internalType": "bool",
              "name": "exists",
              "type": "bool"
            },
            {
              "components": [
                {
                  "internalType": "address",
                  "name": "targetAddress",
                  "type": "address"
                }
              ],
              "internalType": "struct IGovernor.TargetMetadata",
              "name": "targetMetadata",
              "type": "tuple"
            },
            {
              "components": [
                {
                  "internalType": "address[]",
                  "name": "signers",
                  "type": "address[]"
                },
                {
                  "internalType": "uint256",
                  "name": "threshold",
                  "type": "uint256"
                }
              ],
              "internalType": "struct IGovernor.SafeMetadata",
              "name": "safeMetadata",
              "type": "tuple"
            }
          ],
          "internalType": "struct IGovernor.ProposalCore",
          "name": "proposal",
          "type": "tuple"
        }
      ],
      "name": "hashProposal",
      "outputs": [
        {
          "internalType": "uint256",
          "name": "",
          "type": "uint256"
        }
      ],
      "stateMutability": "pure",
      "type": "function"
    },
    {
      "inputs": [],
      "name": "highestTiedRanking",
      "outputs": [
        {
          "internalType": "uint256",
          "name": "",
          "type": "uint256"
        }
      ],
      "stateMutability": "view",
      "type": "function"
    },
    {
      "inputs": [
        {
          "internalType": "uint256",
          "name": "proposalId",
          "type": "uint256"
        }
      ],
      "name": "isProposalDeleted",
      "outputs": [
        {
          "internalType": "uint256",
          "name": "",
          "type": "uint256"
        }
      ],
      "stateMutability": "view",
      "type": "function"
    },
    {
      "inputs": [
        {
          "internalType": "uint256",
          "name": "ranking",
          "type": "uint256"
        }
      ],
      "name": "isTied",
      "outputs": [
        {
          "internalType": "bool",
          "name": "",
          "type": "bool"
        }
      ],
      "stateMutability": "view",
      "type": "function"
    },
    {
      "inputs": [],
      "name": "lowestRanking",
      "outputs": [
        {
          "internalType": "uint256",
          "name": "",
          "type": "uint256"
        }
      ],
      "stateMutability": "view",
      "type": "function"
    },
    {
      "inputs": [],
      "name": "maxProposalCount",
      "outputs": [
        {
          "internalType": "uint256",
          "name": "",
          "type": "uint256"
        }
      ],
      "stateMutability": "view",
      "type": "function"
    },
    {
      "inputs": [],
      "name": "name",
      "outputs": [
        {
          "internalType": "string",
          "name": "",
          "type": "string"
        }
      ],
      "stateMutability": "view",
      "type": "function"
    },
    {
      "inputs": [],
      "name": "numAllowedProposalSubmissions",
      "outputs": [
        {
          "internalType": "uint256",
          "name": "",
          "type": "uint256"
        }
      ],
      "stateMutability": "view",
      "type": "function"
    },
    {
      "inputs": [],
      "name": "officialRewardsModule",
      "outputs": [
        {
          "internalType": "contract RewardsModule",
          "name": "",
          "type": "address"
        }
      ],
      "stateMutability": "view",
      "type": "function"
    },
    {
      "inputs": [],
      "name": "prompt",
      "outputs": [
        {
          "internalType": "string",
          "name": "",
          "type": "string"
        }
      ],
      "stateMutability": "view",
      "type": "function"
    },
    {
      "inputs": [
        {
          "internalType": "uint256",
          "name": "proposalId",
          "type": "uint256"
        },
        {
          "internalType": "address",
          "name": "userAddress",
          "type": "address"
        }
      ],
      "name": "proposalAddressVotes",
      "outputs": [
        {
          "internalType": "uint256",
          "name": "forVotes",
          "type": "uint256"
        },
        {
          "internalType": "uint256",
          "name": "againstVotes",
          "type": "uint256"
        }
      ],
      "stateMutability": "view",
      "type": "function"
    },
    {
      "inputs": [
        {
          "internalType": "uint256",
          "name": "proposalId",
          "type": "uint256"
        }
      ],
      "name": "proposalAddressesHaveVoted",
      "outputs": [
        {
          "internalType": "address[]",
          "name": "",
          "type": "address[]"
        }
      ],
      "stateMutability": "view",
      "type": "function"
    },
    {
      "inputs": [
        {
          "internalType": "uint256",
          "name": "proposalId",
          "type": "uint256"
        }
      ],
      "name": "proposalVotes",
      "outputs": [
        {
          "internalType": "uint256",
          "name": "forVotes",
          "type": "uint256"
        },
        {
          "internalType": "uint256",
          "name": "againstVotes",
          "type": "uint256"
        }
      ],
      "stateMutability": "view",
      "type": "function"
    },
    {
      "inputs": [
        {
          "internalType": "uint256",
          "name": "",
          "type": "uint256"
        }
      ],
      "name": "proposalVotesStructs",
      "outputs": [
        {
          "components": [
            {
              "internalType": "uint256",
              "name": "forVotes",
              "type": "uint256"
            },
            {
              "internalType": "uint256",
              "name": "againstVotes",
              "type": "uint256"
            }
          ],
          "internalType": "struct GovernorCountingSimple.VoteCounts",
          "name": "proposalVoteCounts",
          "type": "tuple"
        }
      ],
      "stateMutability": "view",
      "type": "function"
    },
    {
      "inputs": [
        {
          "components": [
            {
              "internalType": "address",
              "name": "author",
              "type": "address"
            },
            {
              "internalType": "string",
              "name": "description",
              "type": "string"
            },
            {
              "internalType": "bool",
              "name": "exists",
              "type": "bool"
            },
            {
              "components": [
                {
                  "internalType": "address",
                  "name": "targetAddress",
                  "type": "address"
                }
              ],
              "internalType": "struct IGovernor.TargetMetadata",
              "name": "targetMetadata",
              "type": "tuple"
            },
            {
              "components": [
                {
                  "internalType": "address[]",
                  "name": "signers",
                  "type": "address[]"
                },
                {
                  "internalType": "uint256",
                  "name": "threshold",
                  "type": "uint256"
                }
              ],
              "internalType": "struct IGovernor.SafeMetadata",
              "name": "safeMetadata",
              "type": "tuple"
            }
          ],
          "internalType": "struct IGovernor.ProposalCore",
          "name": "proposal",
          "type": "tuple"
        },
        {
          "internalType": "bytes32[]",
          "name": "proof",
          "type": "bytes32[]"
        }
      ],
      "name": "propose",
      "outputs": [
        {
          "internalType": "uint256",
          "name": "",
          "type": "uint256"
        }
      ],
      "stateMutability": "nonpayable",
      "type": "function"
    },
    {
      "inputs": [
        {
          "components": [
            {
              "internalType": "address",
              "name": "author",
              "type": "address"
            },
            {
              "internalType": "string",
              "name": "description",
              "type": "string"
            },
            {
              "internalType": "bool",
              "name": "exists",
              "type": "bool"
            },
            {
              "components": [
                {
                  "internalType": "address",
                  "name": "targetAddress",
                  "type": "address"
                }
              ],
              "internalType": "struct IGovernor.TargetMetadata",
              "name": "targetMetadata",
              "type": "tuple"
            },
            {
              "components": [
                {
                  "internalType": "address[]",
                  "name": "signers",
                  "type": "address[]"
                },
                {
                  "internalType": "uint256",
                  "name": "threshold",
                  "type": "uint256"
                }
              ],
              "internalType": "struct IGovernor.SafeMetadata",
              "name": "safeMetadata",
              "type": "tuple"
            }
          ],
          "internalType": "struct IGovernor.ProposalCore",
          "name": "proposal",
          "type": "tuple"
        }
      ],
      "name": "proposeWithoutProof",
      "outputs": [
        {
          "internalType": "uint256",
          "name": "",
          "type": "uint256"
        }
      ],
      "stateMutability": "nonpayable",
      "type": "function"
    },
    {
      "inputs": [
        {
          "internalType": "uint256",
          "name": "ranking",
          "type": "uint256"
        }
      ],
      "name": "rankingPosition",
      "outputs": [
        {
          "internalType": "uint256",
          "name": "",
          "type": "uint256"
        }
      ],
      "stateMutability": "view",
      "type": "function"
    },
    {
      "inputs": [
        {
          "internalType": "contract RewardsModule",
          "name": "officialRewardsModule_",
          "type": "address"
        }
      ],
      "name": "setOfficialRewardsModule",
      "outputs": [],
      "stateMutability": "nonpayable",
      "type": "function"
    },
    {
      "inputs": [],
      "name": "setSortedAndTiedProposals",
      "outputs": [],
      "stateMutability": "nonpayable",
      "type": "function"
    },
    {
      "inputs": [],
      "name": "setSortedAndTiedProposalsHasBeenRun",
      "outputs": [
        {
          "internalType": "bool",
          "name": "",
          "type": "bool"
        }
      ],
      "stateMutability": "view",
      "type": "function"
    },
    {
      "inputs": [],
      "name": "sortedProposalIds",
      "outputs": [
        {
          "internalType": "uint256[]",
          "name": "",
          "type": "uint256[]"
        }
      ],
      "stateMutability": "view",
      "type": "function"
    },
    {
      "inputs": [
        {
          "internalType": "bool",
          "name": "excludeDeletedProposals",
          "type": "bool"
        }
      ],
      "name": "sortedProposals",
      "outputs": [
        {
          "internalType": "uint256[]",
          "name": "sortedProposalIdsReturn",
          "type": "uint256[]"
        }
      ],
      "stateMutability": "view",
      "type": "function"
    },
    {
      "inputs": [],
      "name": "state",
      "outputs": [
        {
          "internalType": "enum IGovernor.ContestState",
          "name": "",
          "type": "uint8"
        }
      ],
      "stateMutability": "view",
      "type": "function"
    },
    {
      "inputs": [],
      "name": "submissionMerkleRoot",
      "outputs": [
        {
          "internalType": "bytes32",
          "name": "",
          "type": "bytes32"
        }
      ],
      "stateMutability": "view",
      "type": "function"
    },
    {
      "inputs": [
        {
          "internalType": "bytes4",
          "name": "interfaceId",
          "type": "bytes4"
        }
      ],
      "name": "supportsInterface",
      "outputs": [
        {
          "internalType": "bool",
          "name": "",
          "type": "bool"
        }
      ],
      "stateMutability": "view",
      "type": "function"
    },
    {
      "inputs": [
        {
          "internalType": "uint256",
          "name": "",
          "type": "uint256"
        }
      ],
      "name": "tiedAdjustedRankingPosition",
      "outputs": [
        {
          "internalType": "uint256",
          "name": "",
          "type": "uint256"
        }
      ],
      "stateMutability": "view",
      "type": "function"
    },
    {
      "inputs": [
        {
          "components": [
            {
              "internalType": "address",
              "name": "author",
              "type": "address"
            },
            {
              "internalType": "string",
              "name": "description",
              "type": "string"
            },
            {
              "internalType": "bool",
              "name": "exists",
              "type": "bool"
            },
            {
              "components": [
                {
                  "internalType": "address",
                  "name": "targetAddress",
                  "type": "address"
                }
              ],
              "internalType": "struct IGovernor.TargetMetadata",
              "name": "targetMetadata",
              "type": "tuple"
            },
            {
              "components": [
                {
                  "internalType": "address[]",
                  "name": "signers",
                  "type": "address[]"
                },
                {
                  "internalType": "uint256",
                  "name": "threshold",
                  "type": "uint256"
                }
              ],
              "internalType": "struct IGovernor.SafeMetadata",
              "name": "safeMetadata",
              "type": "tuple"
            }
          ],
          "internalType": "struct IGovernor.ProposalCore",
          "name": "proposal",
          "type": "tuple"
        }
      ],
      "name": "validateProposalData",
      "outputs": [
        {
          "internalType": "bool",
          "name": "dataValidated",
          "type": "bool"
        }
      ],
      "stateMutability": "nonpayable",
      "type": "function"
    },
    {
      "inputs": [
        {
          "internalType": "address",
          "name": "account",
          "type": "address"
        },
        {
          "internalType": "bytes32[]",
          "name": "proof",
          "type": "bytes32[]"
        }
      ],
      "name": "verifySubmitter",
      "outputs": [
        {
          "internalType": "bool",
          "name": "verified",
          "type": "bool"
        }
      ],
      "stateMutability": "nonpayable",
      "type": "function"
    },
    {
      "inputs": [
        {
          "internalType": "address",
          "name": "account",
          "type": "address"
        },
        {
          "internalType": "uint256",
          "name": "totalVotes",
          "type": "uint256"
        },
        {
          "internalType": "bytes32[]",
          "name": "proof",
          "type": "bytes32[]"
        }
      ],
      "name": "verifyTotalVotes",
      "outputs": [
        {
          "internalType": "bool",
          "name": "verified",
          "type": "bool"
        }
      ],
      "stateMutability": "nonpayable",
      "type": "function"
    },
    {
      "inputs": [],
      "name": "version",
      "outputs": [
        {
          "internalType": "string",
          "name": "",
          "type": "string"
        }
      ],
      "stateMutability": "view",
      "type": "function"
    },
    {
      "inputs": [],
      "name": "voteStart",
      "outputs": [
        {
          "internalType": "uint256",
          "name": "",
          "type": "uint256"
        }
      ],
      "stateMutability": "view",
      "type": "function"
    },
    {
      "inputs": [],
      "name": "votingDelay",
      "outputs": [
        {
          "internalType": "uint256",
          "name": "",
          "type": "uint256"
        }
      ],
      "stateMutability": "view",
      "type": "function"
    },
    {
      "inputs": [],
      "name": "votingMerkleRoot",
      "outputs": [
        {
          "internalType": "bytes32",
          "name": "",
          "type": "bytes32"
        }
      ],
      "stateMutability": "view",
      "type": "function"
    },
    {
      "inputs": [],
      "name": "votingPeriod",
      "outputs": [
        {
          "internalType": "uint256",
          "name": "",
          "type": "uint256"
        }
      ],
      "stateMutability": "view",
      "type": "function"
    },
    {
      "stateMutability": "payable",
      "type": "receive"
    }
  ],
  "bytecode": {
    "object": "0x6101a06040526015805460ff191690553480156200001c57600080fd5b50604051620045d5380380620045d58339810160408190526200003f9162000656565b8060008151811062000055576200005562000767565b60200260200101518160018151811062000073576200007362000767565b60200260200101518260028151811062000091576200009162000767565b602002602001015183600381518110620000af57620000af62000767565b602002602001015184600481518110620000cd57620000cd62000767565b602002602001015185600581518110620000eb57620000eb62000767565b60200260200101518a8a8a8a8181856200010a6200026b60201b60201c565b620001256000836200028860201b6200228c1790919060201c565b60e0526200014181600162000288602090811b6200228c17901c565b61010052815160208084019190912061012052815190820120610140524660a052620001d16101205161014051604080517f8b73c3c69bb8fe3d512ecc4cf759cc79239f7b179b0ffacaa9a75d522b39400f60208201529081019290925260608201524660808201523060a082015260009060c00160405160208183030381529060405280519060200120905090565b60805250503060c05261016091909152610180526007620001f385826200080c565b5060086200020284826200080c565b50505050506200021886620002d860201b60201c565b620002238562000319565b6200022e846200035a565b620002398362000401565b620002448262000442565b6200024f8162000483565b6200025a33620004c4565b505050505050505050505062000932565b604080518082019091526003815262332e3160e81b602082015290565b6000602083511015620002a857620002a0836200052d565b9050620002d2565b82620002bf836200057060201b620022bd1760201c565b90620002cc90826200080c565b5060ff90505b92915050565b600c5460408051918252602082018390527fd299feb1d7d9345a48559601c471c3be7eea9a11f21d5e86809198f40a974db4910160405180910390a1600c55565b600d5460408051918252602082018390527fc565b045403dc03c2eea82b81a0465edad9e2e7fc4d97e11421c209da93d7a93910160405180910390a1600d55565b60008111620003c05760405162461bcd60e51b815260206004820152602760248201527f476f7665726e6f7253657474696e67733a20766f74696e6720706572696f6420604482015266746f6f206c6f7760c81b60648201526084015b60405180910390fd5b600e5460408051918252602082018390527f7e3f7f0708a84de9203036abaa450dccc85ad5ff52f78c170f3edb55cf5e8828910160405180910390a1600e55565b600f5460408051918252602082018390527fe971b819c7fb95c72451f557226aceb5baaf4994a9d39a79bbfa0040e87500b9910160405180910390a1600f55565b60105460408051918252602082018390527f4984ec996723330ee95979ed65a2a4b41edd914e68a187efe92596474643bdff910160405180910390a1601055565b60115460408051918252602082018390527f9c7b27f091caef3a83be73d89320404fa0c4a52993685ff0651672e49e6e55ab910160405180910390a1601155565b601254604080516001600160a01b03928316815291831660208301527fc30034fc2e9697980e08935bbc287db3eaa44a4aa113ef4c108b356adbf911ce910160405180910390a1601280546001600160a01b0319166001600160a01b0392909216919091179055565b600080829050601f815111156200055b578260405163305a27a960e01b8152600401620003b79190620008d8565b805162000568826200090d565b179392505050565b90565b634e487b7160e01b600052604160045260246000fd5b604051601f8201601f191681016001600160401b0381118282101715620005b457620005b462000573565b604052919050565b60005b83811015620005d9578181015183820152602001620005bf565b50506000910152565b600082601f830112620005f457600080fd5b81516001600160401b0381111562000610576200061062000573565b62000625601f8201601f191660200162000589565b8181528460208386010111156200063b57600080fd5b6200064e826020830160208701620005bc565b949350505050565b600080600080600060a086880312156200066f57600080fd5b85516001600160401b03808211156200068757600080fd5b6200069589838a01620005e2565b9650602091508188015181811115620006ad57600080fd5b620006bb8a828b01620005e2565b9650506040880151945060608801519350608088015181811115620006df57600080fd5b8801601f81018a13620006f157600080fd5b80518281111562000706576200070662000573565b8060051b92506200071984840162000589565b818152928201840192848101908c8511156200073457600080fd5b928501925b84841015620007545783518252928501929085019062000739565b8096505050505050509295509295909350565b634e487b7160e01b600052603260045260246000fd5b600181811c908216806200079257607f821691505b602082108103620007b357634e487b7160e01b600052602260045260246000fd5b50919050565b601f8211156200080757600081815260208120601f850160051c81016020861015620007e25750805b601f850160051c820191505b818110156200080357828155600101620007ee565b5050505b505050565b81516001600160401b0381111562000828576200082862000573565b62000840816200083984546200077d565b84620007b9565b602080601f8311600181146200087857600084156200085f5750858301515b600019600386901b1c1916600185901b17855562000803565b600085815260208120601f198616915b82811015620008a95788860151825594840194600190910190840162000888565b5085821015620008c85787850151600019600388901b60f8161c191681555b5050505050600190811b01905550565b6020815260008251806020840152620008f9816040850160208701620005bc565b601f01601f19169190910160400192915050565b80516020808301519190811015620007b35760001960209190910360031b1b16919050565b60805160a05160c05160e0516101005161012051610140516101605161018051613c33620009a260003960008181610a8b0152610e200152600081816109230152610dbb01526000505060005050600061151c015260006114f20152600050506000505060005050613c336000f3fe6080604052600436106103845760003560e01c806384b0196e116101d1578063cf6afbae11610102578063e031535b116100a0578063efa90d361161006f578063efa90d3614610b7a578063f0a7db0a14610b8f578063f4f3d7ec14610baf578063fb9bf8d414610bcf57600080fd5b8063e031535b14610b0e578063e5eb5a4814610b23578063ea8a1af014610b50578063ebc18b9b14610b6557600080fd5b8063dd4e2ba5116100dc578063dd4e2ba514610a33578063dd96a19d14610a79578063dea5f6a614610aad578063deaaa7cc14610ada57600080fd5b8063cf6afbae146109e4578063d45a010b14610a04578063d889161914610a1957600080fd5b8063aec116b61161016f578063bfe45b5911610149578063bfe45b5914610945578063c19d93fb14610965578063c7f758a814610987578063cb853950146109b457600080fd5b8063aec116b6146108ae578063b323580d146108e4578063bddc16411461091157600080fd5b80638d50dc6b116101ab5780638d50dc6b1461081c578063930de9791461083c57806396f0e9621461086c578063a1ac6cb21461088157600080fd5b806384b0196e146107bf57806386187488146107e75780638a9cd5501461080757600080fd5b80634970ab2f116102b657806365f16263116102545780637c65d711116102235780637c65d711146107555780637d8bfc441461076a5780637f57a0ba1461078a578063832009af146107aa57600080fd5b806365f16263146106e25780636ca1a2c7146107025780636e4eb81014610717578063785ddfe51461073757600080fd5b8063544ffc9c11610290578063544ffc9c1461062157806354fd4d501461066b5780635f953a031461069757806360506ff6146106cd57600080fd5b80634970ab2f146105b75780634d24a67f146105d757806350a5e524146105fe57600080fd5b8063262e59e9116103235780633932abb1116102fd5780633932abb1146105285780633b6d199b1461053d578063419c533c1461056a578063427d56c21461058a57600080fd5b8063262e59e9146104bf57806332763c22146104d4578063347cf665146104f457600080fd5b806302d05d3f1161035f57806302d05d3f146103ff57806306fdde031461042c578063070dc5d91461044e5780632399c6601461049f57600080fd5b80624114a81461039257806301ffc9a7146103ba57806302a251a3146103ea57600080fd5b3661038d57005b005b600080fd5b34801561039e57600080fd5b506103a7610be4565b6040519081526020015b60405180910390f35b3480156103c657600080fd5b506103da6103d5366004612f74565b610bf4565b60405190151581526020016103b1565b3480156103f657600080fd5b506103a7610c2b565b34801561040b57600080fd5b50610414610c36565b6040516001600160a01b0390911681526020016103b1565b34801561043857600080fd5b50610441610c4a565b6040516103b19190612fe4565b34801561045a57600080fd5b50610492610469366004612ff7565b601460209081526000918252604091829020825180840190935280548352600101549082015281565b6040516103b19190613010565b3480156104ab57600080fd5b506103da6104ba366004612ff7565b610cdc565b3480156104cb57600080fd5b506103a7610d20565b3480156104e057600080fd5b506103da6104ef366004613098565b610d3c565b34801561050057600080fd5b50610510678ac7230489e8000081565b6040516001600160401b0390911681526020016103b1565b34801561053457600080fd5b506103a7610e79565b34801561054957600080fd5b506103a7610558366004612ff7565b60009081526006602052604090205490565b34801561057657600080fd5b506103a7610585366004613119565b610e84565b34801561059657600080fd5b506105aa6105a5366004613189565b610ebc565b6040516103b191906131df565b3480156105c357600080fd5b506103a76105d236600461349d565b610fe8565b3480156105e357600080fd5b506105ec600281565b60405160ff90911681526020016103b1565b34801561060a57600080fd5b5061061361102a565b6040516103b19291906134d1565b34801561062d57600080fd5b5061065661063c366004612ff7565b600090815260146020526040902080546001909101549091565b604080519283526020830191909152016103b1565b34801561067757600080fd5b50604080518082019091526003815262332e3160e81b6020820152610441565b3480156106a357600080fd5b506103a76106b236600461353a565b6001600160a01b03166000908152600b602052604090205490565b3480156106d957600080fd5b506103a7611130565b3480156106ee57600080fd5b506103a76106fd366004613557565b61113b565b34801561070e57600080fd5b506103a7611205565b34801561072357600080fd5b5061065661073236600461358c565b611231565b34801561074357600080fd5b50601b546001600160a01b0316610414565b34801561076157600080fd5b50610441611266565b34801561077657600080fd5b506103da6107853660046135bc565b611275565b34801561079657600080fd5b506103da6107a536600461349d565b6112e0565b3480156107b657600080fd5b506103a76114d9565b3480156107cb57600080fd5b506107d46114e4565b6040516103b19796959493929190613617565b3480156107f357600080fd5b506103a7610802366004612ff7565b61156c565b34801561081357600080fd5b506105aa6115a4565b34801561082857600080fd5b506103da610837366004613687565b61161e565b34801561084857600080fd5b506103da61085736600461353a565b60036020526000908152604090205460ff1681565b34801561087857600080fd5b5061038b611683565b34801561088d57600080fd5b506103a761089c36600461353a565b60136020526000908152604090205481565b3480156108ba57600080fd5b506103a76108c936600461353a565b6001600160a01b031660009081526013602052604090205490565b3480156108f057600080fd5b506109046108ff366004612ff7565b61198e565b6040516103b19190613714565b34801561091d57600080fd5b506103a77f000000000000000000000000000000000000000000000000000000000000000081565b34801561095157600080fd5b506103a7610960366004613727565b611a00565b34801561097157600080fd5b5061097a611a44565b6040516103b19190613798565b34801561099357600080fd5b506109a76109a2366004612ff7565b611ab6565b6040516103b191906137c0565b3480156109c057600080fd5b506103da6109cf36600461353a565b60046020526000908152604090205460ff1681565b3480156109f057600080fd5b506103a76109ff36600461349d565b611c29565b348015610a1057600080fd5b50610613611c5a565b348015610a2557600080fd5b506015546103da9060ff1681565b348015610a3f57600080fd5b5060408051808201909152601881527f737570706f72743d627261766f2671756f72756d3d666f7200000000000000006020820152610441565b348015610a8557600080fd5b506103a77f000000000000000000000000000000000000000000000000000000000000000081565b348015610ab957600080fd5b506103a7610ac836600461353a565b60026020526000908152604090205481565b348015610ae657600080fd5b506103a77f150214d74d59b7d1e90c73fc22ef3d991dd0a76b046543d4d80ab92d2a50328f81565b348015610b1a57600080fd5b506103a7611e25565b348015610b2f57600080fd5b506103a7610b3e366004612ff7565b60166020526000908152604090205481565b348015610b5c57600080fd5b5061038b611e37565b348015610b7157600080fd5b506103a7611f21565b348015610b8657600080fd5b506105aa611f4d565b348015610b9b57600080fd5b5061038b610baa366004613846565b611fa3565b348015610bbb57600080fd5b5061038b610bca36600461353a565b6121e6565b348015610bdb57600080fd5b506103a7612281565b6000610bef600c5490565b905090565b60006001600160e01b03198216630949aca360e11b1480610c2557506301ffc9a760e01b6001600160e01b03198316145b92915050565b6000610bef600e5490565b6000610bef6012546001600160a01b031690565b606060078054610c59906138d6565b80601f0160208091040260200160405190810160405280929190818152602001828054610c85906138d6565b8015610cd25780601f10610ca757610100808354040283529160200191610cd2565b820191906000526020600020905b815481529060010190602001808311610cb557829003601f168201915b5050505050905090565b60155460009060ff16610d0a5760405162461bcd60e51b8152600401610d0190613910565b60405180910390fd5b5060009081526017602052604090205460ff1690565b6000610d2a610c2b565b610d32611e25565b610bef9190613991565b6040516bffffffffffffffffffffffff19606087901b166020820152603481018590526000908190605401604051602081830303815290604052805190602001209050600083610deb57610de68686808060200260200160405190810160405280939291908181526020018383602002808284376000920191909152507f000000000000000000000000000000000000000000000000000000000000000092508691506122c09050565b610e4b565b610e4b8686808060200260200160405190810160405280939291908181526020018383602002808284376000920191909152507f000000000000000000000000000000000000000000000000000000000000000092508691506122c09050565b905080610e6b5760405163452c2df160e11b815260040160405180910390fd5b506001979650505050505050565b6000610bef600d5490565b600033610e9381878686611275565b50610eb088828988604051806020016040528060008152506122d6565b98975050505050505050565b606060008083610ed357610ece61102a565b610edb565b610edb611c5a565b91509150600082516001600160401b03811115610efa57610efa6131f2565b604051908082528060200260200182016040528015610f23578160200160208202803683370190505b50905060005b8251811015610fa757828181518110610f4457610f446139a4565b602002602001015160200151838281518110610f6257610f626139a4565b602002602001015160000151610f7891906139ba565b828281518110610f8a57610f8a6139a4565b602090810291909101015280610f9f816139e1565b915050610f29565b5060005b60018451610fb991906139fa565b811015610fde57610fcb8183866124f0565b5080610fd6816139e1565b915050610fab565b5091949350505050565b3360009081526004602052604081205460ff166110175760405162461bcd60e51b8152600401610d0190613a0d565b611020826112e0565b50610c2582612656565b6060806000611037611f4d565b9050600081516001600160401b03811115611054576110546131f2565b60405190808252806020026020018201604052801561109957816020015b60408051808201909152600080825260208201528152602001906001900390816110725790505b50905060005b825181101561112657601460008483815181106110be576110be6139a4565b6020026020010151815260200190815260200160002060000160405180604001604052908160008201548152602001600182015481525050828281518110611108576111086139a4565b6020026020010181905250808061111e906139e1565b91505061109f565b5090939092509050565b6000610bef60115490565b3360008181526003602052604081205490919060ff166111de5760405162461bcd60e51b815260206004820152605260248201527f476f7665726e6f723a20796f75206e65656420746f2063617374206120766f7460448201527f652077697468207468652070726f6f66206174206c65617374206f6e636520616064820152711b99081e5bdd481a185d995b89dd081e595d60721b608482015260a401610d01565b6111fa85828686604051806020016040528060008152506122d6565b9150505b9392505050565b60155460009060ff1661122a5760405162461bcd60e51b8152600401610d0190613910565b5060195490565b60008281526014602090815260408083206001600160a01b0385168452600301909152902080546001909101545b9250929050565b606060088054610c59906138d6565b6001600160a01b03841660009081526003602052604081205460ff166112d5576112a3858585856000610d3c565b506001600160a01b038516600090815260026020908152604080832087905560039091529020805460ff191660011790555b506001949350505050565b6000805b600281101561147b57600081600181111561130157611301613782565b9050600081600181111561131757611317613782565b036113225750611469565b600181600181111561133657611336613782565b0361146757608084015151516000036113c85760405162461bcd60e51b815260206004820152604860248201527f476f7665726e6f724d6574616461746156616c69646174696f6e3a207468657260448201527f652063616e6e6f74206265207a65726f207369676e65727320696e20736166656064820152674d6574616461746160c01b608482015260a401610d01565b8360800151602001516000036114545760405162461bcd60e51b8152602060048201526044602482018190527f476f7665726e6f724d6574616461746156616c69646174696f6e3a2074687265908201527f73686f6c642063616e6e6f74206265207a65726f20696e20736166654d6574616064820152636461746160e01b608482015260a401610d01565b6080840151515160000361146757600080fd5b505b80611473816139e1565b9150506112e4565b508160200151516000036114d15760405162461bcd60e51b815260206004820152601860248201527f476f7665726e6f723a20656d7074792070726f706f73616c00000000000000006044820152606401610d01565b506001919050565b6000610bef600f5490565b6000606080828080836115177f0000000000000000000000000000000000000000000000000000000000000000836129d8565b6115427f000000000000000000000000000000000000000000000000000000000000000060016129d8565b60408051600080825260208201909252600f60f81b9b939a50919850469750309650945092509050565b60155460009060ff166115915760405162461bcd60e51b8152600401610d0190613910565b5060009081526016602052604090205490565b60155460609060ff166115c95760405162461bcd60e51b8152600401610d0190613910565b6018805480602002602001604051908101604052809291908181526020018280548015610cd257602002820191906000526020600020905b815481526020019060010190808311611601575050505050905090565b6001600160a01b03831660009081526004602052604081205460ff166116795761165484678ac7230489e8000085856000610d3c565b506001600160a01b0384166000908152600460205260409020805460ff191660011790555b5060019392505050565b600461168d611a44565b600481111561169e5761169e613782565b1461171d5760405162461bcd60e51b815260206004820152604360248201527f526577617264734d6f64756c653a20636f6e74657374206d757374206265206360448201527f6f6d706c6574656420666f72207265776172647320746f2062652070616964206064820152621bdd5d60ea1b608482015260a401610d01565b60155460ff16156117ae5760405162461bcd60e51b815260206004820152604f60248201527f526577617264734d6f64756c653a20746869732066756e6374696f6e2068617360448201527f20616c7265616479206265656e2072756e20616e64206974732072657370656360648201526e1d1a5d99481d985b1d595cc81cd95d608a1b608482015260a401610d01565b6117b86001610ebc565b80516117cc91601891602090910190612e4e565b506018546000906001906117e09082613991565b601a5560005b60185481101561197c57601854600090611802906001906139fa565b905060008061184b601861181686866139fa565b81548110611826576118266139a4565b9060005260206000200154600090815260146020526040902080546001909101549091565b9092509050600061185c82846139ba565b9050846000036118a6576018549096508690611879866001613991565b0361189d5761188885856139fa565b60008781526016602052604090205560198690555b5050505061196a565b8681036118f95760008681526017602052604090205460ff166118dd576000868152601760205260409020805460ff191660011790555b6018546118eb906001613991565b601a54036118f957601a8690555b8681146119325761190a85856139fa565b611915906001613991565b6000878152601660205260409020558561192e816139e1565b9650505b601854611940866001613991565b036119645761194f85856139fa565b60008781526016602052604090205560198690555b95505050505b80611974816139e1565b9150506117e6565b50506015805460ff1916600117905550565b60008181526014602090815260409182902060028101805484518185028101850190955280855260609492938301828280156119f357602002820191906000526020600020905b81546001600160a01b031681526001909101906020018083116119d5575b5050505050915050919050565b6000611a0d33848461161e565b611a295760405162461bcd60e51b8152600401610d0190613a0d565b611a32846112e0565b50611a3c84612656565b949350505050565b60095460009060ff1615611a585750600290565b6000611a62610be4565b9050428110611a7357600091505090565b6000611a7d611e25565b9050428110611a8f5760039250505090565b6000611a99610d20565b9050428110611aac576001935050505090565b6004935050505090565b611abe612e99565b6000828152600a6020908152604091829020825160a0810190935280546001600160a01b031683526001810180549192840191611afa906138d6565b80601f0160208091040260200160405190810160405280929190818152602001828054611b26906138d6565b8015611b735780601f10611b4857610100808354040283529160200191611b73565b820191906000526020600020905b815481529060010190602001808311611b5657829003601f168201915b5050509183525050600282015460ff16151560208083019190915260408051808301825260038501546001600160a01b0316815281840152805160048501805493840282016060908101845292820184815294830194919390928492918491840182828015611c0b57602002820191906000526020600020905b81546001600160a01b03168152600190910190602001808311611bed575b50505050508152602001600182015481525050815250509050919050565b600081604051602001611c3c91906137c0565b60408051601f19818403018152919052805160209091012092915050565b6060806000611c67611f4d565b9050600081516001600160401b03811115611c8457611c846131f2565b604051908082528060200260200182016040528015611cad578160200160208202803683370190505b509050600082516001600160401b03811115611ccb57611ccb6131f2565b604051908082528060200260200182016040528015611d1057816020015b6040805180820190915260008082526020820152815260200190600190039081611ce95790505b5090506000805b8451811015611e1957611d4f858281518110611d3557611d356139a4565b602002602001015160009081526006602052604090205490565b600114611e0757848181518110611d6857611d686139a4565b6020026020010151848381518110611d8257611d826139a4565b60200260200101818152505060146000868381518110611da457611da46139a4565b6020026020010151815260200190815260200160002060000160405180604001604052908160008201548152602001600182015481525050838381518110611dee57611dee6139a4565b6020908102919091010152611e04600183613991565b91505b80611e11816139e1565b915050611d17565b50919590945092505050565b6000611e2f610e79565b610d32610be4565b611e3f610c36565b6001600160a01b0316336001600160a01b031614611e5c57600080fd5b6000611e66611a44565b90506002816004811115611e7c57611e7c613782565b14158015611e9c57506004816004811115611e9957611e99613782565b14155b611ee85760405162461bcd60e51b815260206004820152601c60248201527f476f7665726e6f723a20636f6e74657374206e6f7420616374697665000000006044820152606401610d01565b6009805460ff191660011790556040517f4cd963a081760a54f571abc0f1db4dde31b4a07d8d6da3e844b8c6f47eeaaa4290600090a150565b60155460009060ff16611f465760405162461bcd60e51b8152600401610d0190613910565b50601a5490565b60606005805480602002602001604051908101604052809291908181526020018280548015610cd25760200282019190600052602060002090815481526020019060010190808311611601575050505050905090565b611fab610c36565b6001600160a01b0316336001600160a01b0316146120315760405162461bcd60e51b815260206004820152603760248201527f476f7665726e6f723a206f6e6c792074686520636f6e7465737420637265617460448201527f6f722063616e2064656c6574652070726f706f73616c730000000000000000006064820152608401610d01565b600461203b611a44565b600481111561204c5761204c613782565b036120d15760405162461bcd60e51b815260206004820152604960248201527f476f7665726e6f723a2064656c6574696f6e206f662070726f706f73616c732060448201527f61667465722074686520656e64206f66206120636f6e74657374206973206e6f6064820152681d08185b1b1bddd95960ba1b608482015260a401610d01565b60005b81518110156121ab57600660008383815181106120f3576120f36139a4565b602002602001015181526020019081526020016000205460011461219957600160066000848481518110612129576121296139a4565b60200260200101518152602001908152602001600020819055506040518060600160405280603d8152602001613bc1603d9139600a6000848481518110612172576121726139a4565b6020026020010151815260200190815260200160002060010190816121979190613aab565b505b806121a3816139e1565b9150506120d4565b507f75a75cf5c561892f4cc5b26c1b8e933849b42238c96dd073d080d1ae96c51416816040516121db91906131df565b60405180910390a150565b6121ee610c36565b6001600160a01b0316336001600160a01b03161461220b57600080fd5b600061221f601b546001600160a01b031690565b601b80546001600160a01b0319166001600160a01b0385811691821790925560408051928416835260208301919091529192507f753a2cf8d360cff631674504210913e48247f8e56b3e6d2006c2103d4095999f910160405180910390a15050565b6000610bef60105490565b60006020835110156122a8576122a183612a7c565b9050610c25565b816122b38482613aab565b5060ff9392505050565b90565b6000826122cd8584612aba565b14949350505050565b600060016122e2611a44565b60048111156122f3576122f3613782565b1461234c5760405162461bcd60e51b815260206004820152602360248201527f476f7665726e6f723a20766f7465206e6f742063757272656e746c792061637460448201526269766560e81b6064820152608401610d01565b600083116123b05760405162461bcd60e51b815260206004820152602b60248201527f476f7665726e6f723a2063616e6e6f7420766f746520776974682030206f722060448201526a666577657220766f74657360a81b6064820152608401610d01565b6001600160a01b03851660009081526003602052604090205460ff166124565760405162461bcd60e51b815260206004820152604f60248201527f476f7665726e6f723a20796f75206e65656420746f2076657269667920796f7560448201527f72206e756d626572206f6620766f74657320616761696e737420746865206d6560648201526e1c9adb19481c9bdbdd08199a5c9cdd608a1b608482015260a401610d01565b61248886868686600260008b6001600160a01b03166001600160a01b0316815260200190815260200160002054612b07565b846001600160a01b03167fb8e138887d0aa13bab447e82de9d5c1777041ecd21ca36ba824ff1e6c07ddda4878686866040516124c79493929190613b6a565b60405180910390a2505050506001600160a01b0316600090815260026020526040902054919050565b600083805b845181101561254e57848281518110612510576125106139a4565b602002602001015185828151811061252a5761252a6139a4565b6020026020010151121561253c578091505b80612546816139e1565b9150506124f5565b508481036125605760009150506111fe565b6000848681518110612574576125746139a4565b60200260200101519050848281518110612590576125906139a4565b60200260200101518587815181106125aa576125aa6139a4565b602002602001018181525050808583815181106125c9576125c96139a4565b60200260200101818152505060008487815181106125e9576125e96139a4565b60200260200101519050848381518110612605576126056139a4565b602002602001015185888151811061261f5761261f6139a4565b6020026020010181815250508085848151811061263e5761263e6139a4565b60209081029190910101525060019695505050505050565b60006003612662611a44565b600481111561267357612673613782565b146126e65760405162461bcd60e51b815260206004820152603e60248201527f476f7665726e6f723a20636f6e74657374206d7573742062652071756575656460448201527f20666f722070726f706f73616c7320746f206265207375626d697474656400006064820152608401610d01565b6126ee6114d9565b336000908152600b6020526040902054106127975760405162461bcd60e51b815260206004820152605d60248201527f476f7665726e6f723a207468652073616d652063616e6e6f74207375626d697460448201527f206d6f7265207468616e20746865206e756d416c6c6f77656450726f706f736160648201527f6c5375626d697373696f6e7320666f72207468697320636f6e74657374000000608482015260a401610d01565b61279f612281565b600554106128155760405162461bcd60e51b815260206004820152603960248201527f476f7665726e6f723a20746865206d6178206e756d626572206f662070726f7060448201527f6f73616c732068617665206265656e207375626d6974746564000000000000006064820152608401610d01565b600061282083611c29565b6000818152600a602052604090206002015490915060ff16156128975760405162461bcd60e51b815260206004820152602960248201527f476f7665726e6f723a206475706c69636174652070726f706f73616c73206e6f6044820152681d08185b1b1bddd95960ba1b6064820152608401610d01565b6005805460018082019092557f036b6384b5eca791c62761152d0c79bb0604c104a5fb6f4eb0703f3154bb3db0018290556000828152600a60209081526040909120855181546001600160a01b0319166001600160a01b039091161781559085015185928201906129089082613aab565b50604082015160028201805460ff19169115159190911790556060820151516003820180546001600160a01b0319166001600160a01b03909216919091179055608082015180518051600484019161296591839160200190612f0a565b50602091820151600191820155336000908152600b9092526040822080549194509250612993908490613991565b90915550506040805182815233602082015281517fcd423cc1203c0af96b9b3d68d73b3064a69de2d14450bb7181c5e5df2132b358929181900390910190a192915050565b606060ff83146129eb576122a183612dbb565b8180546129f7906138d6565b80601f0160208091040260200160405190810160405280929190818152602001828054612a23906138d6565b8015612a705780601f10612a4557610100808354040283529160200191612a70565b820191906000526020600020905b815481529060010190602001808311612a5357829003601f168201915b50505050509050610c25565b600080829050601f81511115612aa7578260405163305a27a960e01b8152600401610d019190612fe4565b8051612ab282613b9c565b179392505050565b600081815b8451811015612aff57612aeb82868381518110612ade57612ade6139a4565b6020026020010151612dfa565b915080612af7816139e1565b915050612abf565b509392505050565b60008581526014602090815260408083206001600160a01b0388168452601390925290912054612b3790836139fa565b831115612ba25760405162461bcd60e51b815260206004820152603360248201527f476f7665726e6f72566f74696e6753696d706c653a206e6f7420656e6f756768604482015272081d9bdd195cc81b19599d081d1bc818d85cdd606a1b6064820152608401610d01565b6001600160a01b03851660009081526003820160205260409020541560ff8516612c1457815484908390600090612bda908490613991565b90915550506001600160a01b038616600090815260038301602052604081208054869290612c09908490613991565b90915550612d4e9050565b60001960ff861601612ce857612c28611130565b600114612c9f576040805162461bcd60e51b81526020600482015260248101919091527f476f7665726e6f72566f74696e6753696d706c653a20646f776e766f74696e6760448201527f206973206e6f7420656e61626c656420666f72207468697320436f6e746573746064820152608401610d01565b83826000016001016000828254612cb69190613991565b90915550506001600160a01b038616600090815260038301602052604081206001018054869290612c09908490613991565b60405162461bcd60e51b815260206004820152603560248201527f476f7665726e6f72566f74696e6753696d706c653a20696e76616c69642076616044820152746c756520666f7220656e756d20566f74655479706560581b6064820152608401610d01565b8015612d8557600282018054600181018255600091825260209091200180546001600160a01b0319166001600160a01b0388161790555b6001600160a01b03861660009081526013602052604081208054869290612dad908490613991565b909155505050505050505050565b60606000612dc883612e26565b604080516020808252818301909252919250600091906020820181803683375050509182525060208101929092525090565b6000818310612e165760008281526020849052604090206111fe565b5060009182526020526040902090565b600060ff8216601f811115610c2557604051632cd44ac360e21b815260040160405180910390fd5b828054828255906000526020600020908101928215612e89579160200282015b82811115612e89578251825591602001919060010190612e6e565b50612e95929150612f5f565b5090565b6040518060a0016040528060006001600160a01b0316815260200160608152602001600015158152602001612ee3604051806020016040528060006001600160a01b031681525090565b8152602001612f05604051806040016040528060608152602001600081525090565b905290565b828054828255906000526020600020908101928215612e89579160200282015b82811115612e8957825182546001600160a01b0319166001600160a01b03909116178255602090920191600190910190612f2a565b5b80821115612e955760008155600101612f60565b600060208284031215612f8657600080fd5b81356001600160e01b0319811681146111fe57600080fd5b6000815180845260005b81811015612fc457602081850181015186830182015201612fa8565b506000602082860101526020601f19601f83011685010191505092915050565b6020815260006111fe6020830184612f9e565b60006020828403121561300957600080fd5b5035919050565b815181526020808301519082015260408101610c25565b6001600160a01b038116811461303c57600080fd5b50565b60008083601f84011261305157600080fd5b5081356001600160401b0381111561306857600080fd5b6020830191508360208260051b850101111561125f57600080fd5b8035801515811461309357600080fd5b919050565b6000806000806000608086880312156130b057600080fd5b85356130bb81613027565b94506020860135935060408601356001600160401b038111156130dd57600080fd5b6130e98882890161303f565b90945092506130fc905060608701613083565b90509295509295909350565b803560ff8116811461309357600080fd5b60008060008060008060a0878903121561313257600080fd5b8635955061314260208801613108565b9450604087013593506060870135925060808701356001600160401b0381111561316b57600080fd5b61317789828a0161303f565b979a9699509497509295939492505050565b60006020828403121561319b57600080fd5b6111fe82613083565b600081518084526020808501945080840160005b838110156131d4578151875295820195908201906001016131b8565b509495945050505050565b6020815260006111fe60208301846131a4565b634e487b7160e01b600052604160045260246000fd5b604080519081016001600160401b038111828210171561322a5761322a6131f2565b60405290565b60405160a081016001600160401b038111828210171561322a5761322a6131f2565b604051601f8201601f191681016001600160401b038111828210171561327a5761327a6131f2565b604052919050565b60006020828403121561329457600080fd5b604051602081018181106001600160401b03821117156132b6576132b66131f2565b60405290508082356132c781613027565b905292915050565b60006001600160401b038211156132e8576132e86131f2565b5060051b60200190565b60006040828403121561330457600080fd5b61330c613208565b905081356001600160401b0381111561332457600080fd5b8201601f8101841361333557600080fd5b8035602061334a613345836132cf565b613252565b82815260059290921b8301810191818101908784111561336957600080fd5b938201935b8385101561339057843561338181613027565b8252938201939082019061336e565b85525093840135938301939093525092915050565b600060a082840312156133b757600080fd5b6133bf613230565b905081356133cc81613027565b81526020828101356001600160401b03808211156133e957600080fd5b818501915085601f8301126133fd57600080fd5b81358181111561340f5761340f6131f2565b613421601f8201601f19168501613252565b818152878583860101111561343557600080fd5b818585018683013760008583830101528085870152505061345860408601613083565b604085015261346a8660608701613282565b6060850152608085013592508083111561348357600080fd5b5050613491848285016132f2565b60808301525092915050565b6000602082840312156134af57600080fd5b81356001600160401b038111156134c557600080fd5b611a3c848285016133a5565b600060408083526134e4818401866131a4565b83810360208581019190915285518083528682019282019060005b8181101561352c5761351c83865180518252602090810151910152565b93830193918501916001016134ff565b509098975050505050505050565b60006020828403121561354c57600080fd5b81356111fe81613027565b60008060006060848603121561356c57600080fd5b8335925061357c60208501613108565b9150604084013590509250925092565b6000806040838503121561359f57600080fd5b8235915060208301356135b181613027565b809150509250929050565b600080600080606085870312156135d257600080fd5b84356135dd81613027565b93506020850135925060408501356001600160401b038111156135ff57600080fd5b61360b8782880161303f565b95989497509550505050565b60ff60f81b8816815260e06020820152600061363660e0830189612f9e565b82810360408401526136488189612f9e565b606084018890526001600160a01b038716608085015260a0840186905283810360c0850152905061367981856131a4565b9a9950505050505050505050565b60008060006040848603121561369c57600080fd5b83356136a781613027565b925060208401356001600160401b038111156136c257600080fd5b6136ce8682870161303f565b9497909650939450505050565b600081518084526020808501945080840160005b838110156131d45781516001600160a01b0316875295820195908201906001016136ef565b6020815260006111fe60208301846136db565b60008060006040848603121561373c57600080fd5b83356001600160401b038082111561375357600080fd5b61375f878388016133a5565b9450602086013591508082111561377557600080fd5b506136ce8682870161303f565b634e487b7160e01b600052602160045260246000fd5b60208101600583106137ba57634e487b7160e01b600052602160045260246000fd5b91905290565b60208152600060018060a01b03808451166020840152602084015160a060408501526137ef60c0850182612f9e565b90506040850151151560608501528160608601515116608085015260808501519150601f198482030160a085015281516040825261383060408301826136db565b6020938401519290930191909152509392505050565b6000602080838503121561385957600080fd5b82356001600160401b0381111561386f57600080fd5b8301601f8101851361388057600080fd5b803561388e613345826132cf565b81815260059190911b820183019083810190878311156138ad57600080fd5b928401925b828410156138cb578335825292840192908401906138b2565b979650505050505050565b600181811c908216806138ea57607f821691505b60208210810361390a57634e487b7160e01b600052602260045260246000fd5b50919050565b60208082526045908201527f526577617264734d6f64756c653a2072756e20736574536f72746564416e645460408201527f69656450726f706f73616c73282920746f20706f70756c61746520746869732060608201526476616c756560d81b608082015260a00190565b634e487b7160e01b600052601160045260246000fd5b80820180821115610c2557610c2561397b565b634e487b7160e01b600052603260045260246000fd5b81810360008312801583831316838312821617156139da576139da61397b565b5092915050565b6000600182016139f3576139f361397b565b5060010190565b81810381811115610c2557610c2561397b565b6020808252602f908201527f476f7665726e6f723a2061646472657373206973206e6f74207065726d69737360408201526e1a5bdb9959081d1bc81cdd589b5a5d608a1b606082015260800190565b601f821115613aa657600081815260208120601f850160051c81016020861015613a835750805b601f850160051c820191505b81811015613aa257828155600101613a8f565b5050505b505050565b81516001600160401b03811115613ac457613ac46131f2565b613ad881613ad284546138d6565b84613a5c565b602080601f831160018114613b0d5760008415613af55750858301515b600019600386901b1c1916600185901b178555613aa2565b600085815260208120601f198616915b82811015613b3c57888601518255948401946001909101908401613b1d565b5085821015613b5a5787850151600019600388901b60f8161c191681555b5050505050600190811b01905550565b84815260ff84166020820152826040820152608060608201526000613b926080830184612f9e565b9695505050505050565b8051602080830151919081101561390a5760001960209190910360031b1b1691905056fe546869732070726f706f73616c20686173206265656e2064656c65746564206279207468652063726561746f72206f662074686520636f6e746573742ea26469706673582212201edcc648acbdb7419826f7229daf334a983b645bff9d1b17ce1fe0f3d286f33d64736f6c63430008120033",
    "linkReferences": {}
  },
  "methodIdentifiers": {
    "AMOUNT_FOR_SUMBITTER_PROOF()": "347cf665",
    "BALLOT_TYPEHASH()": "deaaa7cc",
    "COUNTING_MODE()": "dd4e2ba5",
    "METADATAS_COUNT()": "4d24a67f",
    "addressSubmitterVerified(address)": "cb853950",
    "addressTotalCastVoteCounts(address)": "a1ac6cb2",
    "addressTotalVotes(address)": "dea5f6a6",
    "addressTotalVotesVerified(address)": "930de979",
    "allProposalTotalVotes()": "50a5e524",
    "allProposalTotalVotesWithoutDeleted()": "d45a010b",
    "cancel()": "ea8a1af0",
    "castVote(uint256,uint8,uint256,uint256,bytes32[])": "419c533c",
    "castVoteWithoutProof(uint256,uint8,uint256)": "65f16263",
    "checkProof(address,uint256,bytes32[],bool)": "32763c22",
    "contestAddressTotalVotesCast(address)": "aec116b6",
    "contestDeadline()": "262e59e9",
    "contestStart()": "004114a8",
    "creator()": "02d05d3f",
    "deleteProposals(uint256[])": "f0a7db0a",
    "downvotingAllowed()": "60506ff6",
    "eip712Domain()": "84b0196e",
    "getAllProposalIds()": "efa90d36",
    "getNumSubmissions(address)": "5f953a03",
    "getProposal(uint256)": "c7f758a8",
    "hashProposal((address,string,bool,(address),(address[],uint256)))": "cf6afbae",
    "highestTiedRanking()": "ebc18b9b",
    "isProposalDeleted(uint256)": "3b6d199b",
    "isTied(uint256)": "2399c660",
    "lowestRanking()": "6ca1a2c7",
    "maxProposalCount()": "fb9bf8d4",
    "name()": "06fdde03",
    "numAllowedProposalSubmissions()": "832009af",
    "officialRewardsModule()": "785ddfe5",
    "prompt()": "7c65d711",
    "proposalAddressVotes(uint256,address)": "6e4eb810",
    "proposalAddressesHaveVoted(uint256)": "b323580d",
    "proposalVotes(uint256)": "544ffc9c",
    "proposalVotesStructs(uint256)": "070dc5d9",
    "propose((address,string,bool,(address),(address[],uint256)),bytes32[])": "bfe45b59",
    "proposeWithoutProof((address,string,bool,(address),(address[],uint256)))": "4970ab2f",
    "rankingPosition(uint256)": "86187488",
    "setOfficialRewardsModule(address)": "f4f3d7ec",
    "setSortedAndTiedProposals()": "96f0e962",
    "setSortedAndTiedProposalsHasBeenRun()": "d8891619",
    "sortedProposalIds()": "8a9cd550",
    "sortedProposals(bool)": "427d56c2",
    "state()": "c19d93fb",
    "submissionMerkleRoot()": "bddc1641",
    "supportsInterface(bytes4)": "01ffc9a7",
    "tiedAdjustedRankingPosition(uint256)": "e5eb5a48",
    "validateProposalData((address,string,bool,(address),(address[],uint256)))": "7f57a0ba",
    "verifySubmitter(address,bytes32[])": "8d50dc6b",
    "verifyTotalVotes(address,uint256,bytes32[])": "7d8bfc44",
    "version()": "54fd4d50",
    "voteStart()": "e031535b",
    "votingDelay()": "3932abb1",
    "votingMerkleRoot()": "dd96a19d",
    "votingPeriod()": "02a251a3"
  },
  "id": 36
}