{
  "abi": [
    {
      "inputs": [
        {
          "internalType": "string",
          "name": "_name",
          "type": "string"
        },
        {
          "internalType": "string",
          "name": "_prompt",
          "type": "string"
        },
        {
          "internalType": "bytes32",
          "name": "_submissionMerkleRoot",
          "type": "bytes32"
        },
        {
          "internalType": "bytes32",
          "name": "_votingMerkleRoot",
          "type": "bytes32"
        },
        {
          "internalType": "uint256[]",
          "name": "_constructorIntParams",
          "type": "uint256[]"
        }
      ],
      "stateMutability": "nonpayable",
      "type": "constructor"
    },
    {
      "inputs": [],
      "name": "InvalidShortString",
      "type": "error"
    },
    {
      "inputs": [],
      "name": "NotInMerkle",
      "type": "error"
    },
    {
      "inputs": [
        {
          "internalType": "string",
          "name": "str",
          "type": "string"
        }
      ],
      "name": "StringTooLong",
      "type": "error"
    },
    {
      "inputs": [],
      "name": "TooManyMetadatas",
      "type": "error"
    },
    {
      "anonymous": false,
      "inputs": [],
      "name": "ContestCanceled",
      "type": "event"
    },
    {
      "anonymous": false,
      "inputs": [
        {
          "indexed": false,
          "internalType": "uint256",
          "name": "oldContestStart",
          "type": "uint256"
        },
        {
          "indexed": false,
          "internalType": "uint256",
          "name": "newContestStart",
          "type": "uint256"
        }
      ],
      "name": "ContestStartSet",
      "type": "event"
    },
    {
      "anonymous": false,
      "inputs": [
        {
          "indexed": false,
          "internalType": "address",
          "name": "oldCreator",
          "type": "address"
        },
        {
          "indexed": false,
          "internalType": "address",
          "name": "newCreator",
          "type": "address"
        }
      ],
      "name": "CreatorSet",
      "type": "event"
    },
    {
      "anonymous": false,
      "inputs": [
        {
          "indexed": false,
          "internalType": "uint256",
          "name": "oldDownvotingAllowed",
          "type": "uint256"
        },
        {
          "indexed": false,
          "internalType": "uint256",
          "name": "newDownvotingAllowed",
          "type": "uint256"
        }
      ],
      "name": "DownvotingAllowedSet",
      "type": "event"
    },
    {
      "anonymous": false,
      "inputs": [],
      "name": "EIP712DomainChanged",
      "type": "event"
    },
    {
      "anonymous": false,
      "inputs": [
        {
          "indexed": false,
          "internalType": "string",
          "name": "name",
          "type": "string"
        },
        {
          "indexed": false,
          "internalType": "address",
          "name": "creator",
          "type": "address"
        }
      ],
      "name": "JokeraceCreated",
      "type": "event"
    },
    {
      "anonymous": false,
      "inputs": [
        {
          "indexed": false,
          "internalType": "uint256",
          "name": "oldMaxProposalCount",
          "type": "uint256"
        },
        {
          "indexed": false,
          "internalType": "uint256",
          "name": "newMaxProposalCount",
          "type": "uint256"
        }
      ],
      "name": "MaxProposalCountSet",
      "type": "event"
    },
    {
      "anonymous": false,
      "inputs": [
        {
          "indexed": false,
          "internalType": "uint256",
          "name": "oldNumAllowedProposalSubmissions",
          "type": "uint256"
        },
        {
          "indexed": false,
          "internalType": "uint256",
          "name": "newNumAllowedProposalSubmissions",
          "type": "uint256"
        }
      ],
      "name": "NumAllowedProposalSubmissionsSet",
      "type": "event"
    },
    {
      "anonymous": false,
      "inputs": [
        {
          "indexed": false,
          "internalType": "contract RewardsModule",
          "name": "oldOfficialRewardsModule",
          "type": "address"
        },
        {
          "indexed": false,
          "internalType": "contract RewardsModule",
          "name": "newOfficialRewardsModule",
          "type": "address"
        }
      ],
      "name": "OfficialRewardsModuleSet",
      "type": "event"
    },
    {
      "anonymous": false,
      "inputs": [
        {
          "indexed": false,
          "internalType": "address",
          "name": "to",
          "type": "address"
        },
        {
          "indexed": false,
          "internalType": "uint256",
          "name": "amount",
          "type": "uint256"
        }
      ],
      "name": "PaymentReleased",
      "type": "event"
    },
    {
      "anonymous": false,
      "inputs": [
        {
          "indexed": false,
          "internalType": "uint256",
          "name": "proposalId",
          "type": "uint256"
        },
        {
          "indexed": false,
          "internalType": "address",
          "name": "proposer",
          "type": "address"
        }
      ],
      "name": "ProposalCreated",
      "type": "event"
    },
    {
      "anonymous": false,
      "inputs": [
        {
          "indexed": false,
          "internalType": "uint256[]",
          "name": "proposalIds",
          "type": "uint256[]"
        }
      ],
      "name": "ProposalsDeleted",
      "type": "event"
    },
    {
      "anonymous": false,
      "inputs": [
        {
          "indexed": true,
          "internalType": "address",
          "name": "voter",
          "type": "address"
        },
        {
          "indexed": false,
          "internalType": "uint256",
          "name": "proposalId",
          "type": "uint256"
        },
        {
          "indexed": false,
          "internalType": "uint8",
          "name": "support",
          "type": "uint8"
        },
        {
          "indexed": false,
          "internalType": "uint256",
          "name": "numVotes",
          "type": "uint256"
        }
      ],
      "name": "VoteCast",
      "type": "event"
    },
    {
      "anonymous": false,
      "inputs": [
        {
          "indexed": false,
          "internalType": "uint256",
          "name": "oldVotingDelay",
          "type": "uint256"
        },
        {
          "indexed": false,
          "internalType": "uint256",
          "name": "newVotingDelay",
          "type": "uint256"
        }
      ],
      "name": "VotingDelaySet",
      "type": "event"
    },
    {
      "anonymous": false,
      "inputs": [
        {
          "indexed": false,
          "internalType": "uint256",
          "name": "oldVotingPeriod",
          "type": "uint256"
        },
        {
          "indexed": false,
          "internalType": "uint256",
          "name": "newVotingPeriod",
          "type": "uint256"
        }
      ],
      "name": "VotingPeriodSet",
      "type": "event"
    },
    {
      "inputs": [],
      "name": "AMOUNT_FOR_SUMBITTER_PROOF",
      "outputs": [
        {
          "internalType": "uint256",
          "name": "",
          "type": "uint256"
        }
      ],
      "stateMutability": "view",
      "type": "function"
    },
    {
      "inputs": [],
      "name": "JK_LABS_ADDRESS",
      "outputs": [
        {
          "internalType": "address",
          "name": "",
          "type": "address"
        }
      ],
      "stateMutability": "view",
      "type": "function"
    },
    {
      "inputs": [],
      "name": "METADATAS_COUNT",
      "outputs": [
        {
          "internalType": "uint256",
          "name": "",
          "type": "uint256"
        }
      ],
      "stateMutability": "view",
      "type": "function"
    },
    {
      "inputs": [
        {
          "internalType": "address",
          "name": "",
          "type": "address"
        }
      ],
      "name": "addressSubmitterVerified",
      "outputs": [
        {
          "internalType": "bool",
          "name": "",
          "type": "bool"
        }
      ],
      "stateMutability": "view",
      "type": "function"
    },
    {
      "inputs": [
        {
          "internalType": "address",
          "name": "",
          "type": "address"
        }
      ],
      "name": "addressTotalCastVoteCounts",
      "outputs": [
        {
          "internalType": "uint256",
          "name": "",
          "type": "uint256"
        }
      ],
      "stateMutability": "view",
      "type": "function"
    },
    {
      "inputs": [
        {
          "internalType": "address",
          "name": "",
          "type": "address"
        }
      ],
      "name": "addressTotalVotes",
      "outputs": [
        {
          "internalType": "uint256",
          "name": "",
          "type": "uint256"
        }
      ],
      "stateMutability": "view",
      "type": "function"
    },
    {
      "inputs": [
        {
          "internalType": "address",
          "name": "",
          "type": "address"
        }
      ],
      "name": "addressTotalVotesVerified",
      "outputs": [
        {
          "internalType": "bool",
          "name": "",
          "type": "bool"
        }
      ],
      "stateMutability": "view",
      "type": "function"
    },
    {
      "inputs": [
        {
          "internalType": "uint256",
          "name": "",
          "type": "uint256"
        }
      ],
      "name": "addressesThatHaveVoted",
      "outputs": [
        {
          "internalType": "address",
          "name": "",
          "type": "address"
        }
      ],
      "stateMutability": "view",
      "type": "function"
    },
    {
      "inputs": [],
      "name": "allProposalTotalVotes",
      "outputs": [
        {
          "internalType": "uint256[]",
          "name": "proposalIdsReturn",
          "type": "uint256[]"
        },
        {
          "components": [
            {
              "internalType": "uint256",
              "name": "forVotes",
              "type": "uint256"
            },
            {
              "internalType": "uint256",
              "name": "againstVotes",
              "type": "uint256"
            }
          ],
          "internalType": "struct GovernorCountingSimple.VoteCounts[]",
          "name": "proposalVoteCountsArrayReturn",
          "type": "tuple[]"
        }
      ],
      "stateMutability": "view",
      "type": "function"
    },
    {
      "inputs": [],
      "name": "allProposalTotalVotesWithoutDeleted",
      "outputs": [
        {
          "internalType": "uint256[]",
          "name": "proposalIdsReturn",
          "type": "uint256[]"
        },
        {
          "components": [
            {
              "internalType": "uint256",
              "name": "forVotes",
              "type": "uint256"
            },
            {
              "internalType": "uint256",
              "name": "againstVotes",
              "type": "uint256"
            }
          ],
          "internalType": "struct GovernorCountingSimple.VoteCounts[]",
          "name": "proposalVoteCountsArrayReturn",
          "type": "tuple[]"
        }
      ],
      "stateMutability": "view",
      "type": "function"
    },
    {
      "inputs": [],
      "name": "cancel",
      "outputs": [],
      "stateMutability": "nonpayable",
      "type": "function"
    },
    {
      "inputs": [],
      "name": "canceled",
      "outputs": [
        {
          "internalType": "bool",
          "name": "",
          "type": "bool"
        }
      ],
      "stateMutability": "view",
      "type": "function"
    },
    {
      "inputs": [
        {
          "internalType": "uint256",
          "name": "proposalId",
          "type": "uint256"
        },
        {
          "internalType": "uint8",
          "name": "support",
          "type": "uint8"
        },
        {
          "internalType": "uint256",
          "name": "totalVotes",
          "type": "uint256"
        },
        {
          "internalType": "uint256",
          "name": "numVotes",
          "type": "uint256"
        },
        {
          "internalType": "bytes32[]",
          "name": "proof",
          "type": "bytes32[]"
        }
      ],
      "name": "castVote",
      "outputs": [
        {
          "internalType": "uint256",
          "name": "",
          "type": "uint256"
        }
      ],
      "stateMutability": "nonpayable",
      "type": "function"
    },
    {
      "inputs": [
        {
          "internalType": "uint256",
          "name": "proposalId",
          "type": "uint256"
        },
        {
          "internalType": "uint8",
          "name": "support",
          "type": "uint8"
        },
        {
          "internalType": "uint256",
          "name": "numVotes",
          "type": "uint256"
        }
      ],
      "name": "castVoteWithoutProof",
      "outputs": [
        {
          "internalType": "uint256",
          "name": "",
          "type": "uint256"
        }
      ],
      "stateMutability": "nonpayable",
      "type": "function"
    },
    {
      "inputs": [
        {
          "internalType": "address",
          "name": "addressToCheck",
          "type": "address"
        },
        {
          "internalType": "uint256",
          "name": "amount",
          "type": "uint256"
        },
        {
          "internalType": "bytes32[]",
          "name": "proof",
          "type": "bytes32[]"
        },
        {
          "internalType": "bool",
          "name": "voting",
          "type": "bool"
        }
      ],
      "name": "checkProof",
      "outputs": [
        {
          "internalType": "bool",
          "name": "verified",
          "type": "bool"
        }
      ],
      "stateMutability": "view",
      "type": "function"
    },
    {
      "inputs": [
        {
          "internalType": "address",
          "name": "userAddress",
          "type": "address"
        }
      ],
      "name": "contestAddressTotalVotesCast",
      "outputs": [
        {
          "internalType": "uint256",
          "name": "userTotalVotesCast",
          "type": "uint256"
        }
      ],
      "stateMutability": "view",
      "type": "function"
    },
    {
      "inputs": [],
      "name": "contestDeadline",
      "outputs": [
        {
          "internalType": "uint256",
          "name": "",
          "type": "uint256"
        }
      ],
      "stateMutability": "view",
      "type": "function"
    },
    {
      "inputs": [],
      "name": "contestStart",
      "outputs": [
        {
          "internalType": "uint256",
          "name": "",
          "type": "uint256"
        }
      ],
      "stateMutability": "view",
      "type": "function"
    },
    {
      "inputs": [],
      "name": "costToPropose",
      "outputs": [
        {
          "internalType": "uint256",
          "name": "",
          "type": "uint256"
        }
      ],
      "stateMutability": "view",
      "type": "function"
    },
    {
      "inputs": [],
      "name": "creator",
      "outputs": [
        {
          "internalType": "address",
          "name": "",
          "type": "address"
        }
      ],
      "stateMutability": "view",
      "type": "function"
    },
    {
      "inputs": [
        {
          "internalType": "uint256[]",
          "name": "proposalIdsToDelete",
          "type": "uint256[]"
        }
      ],
      "name": "deleteProposals",
      "outputs": [],
      "stateMutability": "nonpayable",
      "type": "function"
    },
    {
      "inputs": [
        {
          "internalType": "uint256",
          "name": "",
          "type": "uint256"
        }
      ],
      "name": "deletedProposalIds",
      "outputs": [
        {
          "internalType": "uint256",
          "name": "",
          "type": "uint256"
        }
      ],
      "stateMutability": "view",
      "type": "function"
    },
    {
      "inputs": [],
      "name": "downvotingAllowed",
      "outputs": [
        {
          "internalType": "uint256",
          "name": "",
          "type": "uint256"
        }
      ],
      "stateMutability": "view",
      "type": "function"
    },
    {
      "inputs": [],
      "name": "eip712Domain",
      "outputs": [
        {
          "internalType": "bytes1",
          "name": "fields",
          "type": "bytes1"
        },
        {
          "internalType": "string",
          "name": "name",
          "type": "string"
        },
        {
          "internalType": "string",
          "name": "version",
          "type": "string"
        },
        {
          "internalType": "uint256",
          "name": "chainId",
          "type": "uint256"
        },
        {
          "internalType": "address",
          "name": "verifyingContract",
          "type": "address"
        },
        {
          "internalType": "bytes32",
          "name": "salt",
          "type": "bytes32"
        },
        {
          "internalType": "uint256[]",
          "name": "extensions",
          "type": "uint256[]"
        }
      ],
      "stateMutability": "view",
      "type": "function"
    },
    {
      "inputs": [
        {
          "internalType": "uint256",
          "name": "",
          "type": "uint256"
        },
        {
          "internalType": "uint256",
          "name": "",
          "type": "uint256"
        }
      ],
      "name": "forVotesToProposalIds",
      "outputs": [
        {
          "internalType": "uint256",
          "name": "",
          "type": "uint256"
        }
      ],
      "stateMutability": "view",
      "type": "function"
    },
    {
      "inputs": [],
      "name": "getAllAddressesThatHaveVoted",
      "outputs": [
        {
          "internalType": "address[]",
          "name": "",
          "type": "address[]"
        }
      ],
      "stateMutability": "view",
      "type": "function"
    },
    {
      "inputs": [],
      "name": "getAllDeletedProposalIds",
      "outputs": [
        {
          "internalType": "uint256[]",
          "name": "",
          "type": "uint256[]"
        }
      ],
      "stateMutability": "view",
      "type": "function"
    },
    {
      "inputs": [],
      "name": "getAllProposalAuthors",
      "outputs": [
        {
          "internalType": "address[]",
          "name": "",
          "type": "address[]"
        }
      ],
      "stateMutability": "view",
      "type": "function"
    },
    {
      "inputs": [],
      "name": "getAllProposalIds",
      "outputs": [
        {
          "internalType": "uint256[]",
          "name": "",
          "type": "uint256[]"
        }
      ],
      "stateMutability": "view",
      "type": "function"
    },
    {
      "inputs": [
        {
          "internalType": "uint256",
          "name": "forVotes",
          "type": "uint256"
        }
      ],
      "name": "getNumProposalsWithThisManyForVotes",
      "outputs": [
        {
          "internalType": "uint256",
          "name": "count",
          "type": "uint256"
        }
      ],
      "stateMutability": "view",
      "type": "function"
    },
    {
      "inputs": [
        {
          "internalType": "address",
          "name": "account",
          "type": "address"
        }
      ],
      "name": "getNumSubmissions",
      "outputs": [
        {
          "internalType": "uint256",
          "name": "",
          "type": "uint256"
        }
      ],
      "stateMutability": "view",
      "type": "function"
    },
    {
      "inputs": [
        {
          "internalType": "uint256",
          "name": "forVotes",
          "type": "uint256"
        }
      ],
      "name": "getOnlyProposalIdWithThisManyForVotes",
      "outputs": [
        {
          "internalType": "uint256",
          "name": "proposalId",
          "type": "uint256"
        }
      ],
      "stateMutability": "view",
      "type": "function"
    },
    {
      "inputs": [
        {
          "internalType": "uint256",
          "name": "proposalId",
          "type": "uint256"
        }
      ],
      "name": "getProposal",
      "outputs": [
        {
          "components": [
            {
              "internalType": "address",
              "name": "author",
              "type": "address"
            },
            {
              "internalType": "bool",
              "name": "exists",
              "type": "bool"
            },
            {
              "internalType": "string",
              "name": "description",
              "type": "string"
            },
            {
              "components": [
                {
                  "internalType": "address",
                  "name": "targetAddress",
                  "type": "address"
                }
              ],
              "internalType": "struct IGovernor.TargetMetadata",
              "name": "targetMetadata",
              "type": "tuple"
            },
            {
              "components": [
                {
                  "internalType": "address[]",
                  "name": "signers",
                  "type": "address[]"
                },
                {
                  "internalType": "uint256",
                  "name": "threshold",
                  "type": "uint256"
                }
              ],
              "internalType": "struct IGovernor.SafeMetadata",
              "name": "safeMetadata",
              "type": "tuple"
            }
          ],
          "internalType": "struct IGovernor.ProposalCore",
          "name": "",
          "type": "tuple"
        }
      ],
      "stateMutability": "view",
      "type": "function"
    },
    {
      "inputs": [
        {
          "internalType": "uint256",
          "name": "rank",
          "type": "uint256"
        }
      ],
      "name": "getRankIndex",
      "outputs": [
        {
          "internalType": "uint256",
          "name": "rankIndex",
          "type": "uint256"
        }
      ],
      "stateMutability": "view",
      "type": "function"
    },
    {
      "inputs": [],
      "name": "getSortedRanks",
      "outputs": [
        {
          "internalType": "uint256[]",
          "name": "sortedRanksArray",
          "type": "uint256[]"
        }
      ],
      "stateMutability": "view",
      "type": "function"
    },
    {
      "inputs": [
        {
          "components": [
            {
              "internalType": "address",
              "name": "author",
              "type": "address"
            },
            {
              "internalType": "bool",
              "name": "exists",
              "type": "bool"
            },
            {
              "internalType": "string",
              "name": "description",
              "type": "string"
            },
            {
              "components": [
                {
                  "internalType": "address",
                  "name": "targetAddress",
                  "type": "address"
                }
              ],
              "internalType": "struct IGovernor.TargetMetadata",
              "name": "targetMetadata",
              "type": "tuple"
            },
            {
              "components": [
                {
                  "internalType": "address[]",
                  "name": "signers",
                  "type": "address[]"
                },
                {
                  "internalType": "uint256",
                  "name": "threshold",
                  "type": "uint256"
                }
              ],
              "internalType": "struct IGovernor.SafeMetadata",
              "name": "safeMetadata",
              "type": "tuple"
            }
          ],
          "internalType": "struct IGovernor.ProposalCore",
          "name": "proposal",
          "type": "tuple"
        }
      ],
      "name": "hashProposal",
      "outputs": [
        {
          "internalType": "uint256",
          "name": "",
          "type": "uint256"
        }
      ],
      "stateMutability": "pure",
      "type": "function"
    },
    {
      "inputs": [
        {
          "internalType": "uint256",
          "name": "idx",
          "type": "uint256"
        }
      ],
      "name": "isOrIsBelowTiedRank",
      "outputs": [
        {
          "internalType": "bool",
          "name": "atOrBelowTiedRank",
          "type": "bool"
        }
      ],
      "stateMutability": "view",
      "type": "function"
    },
    {
      "inputs": [
        {
          "internalType": "uint256",
          "name": "proposalId",
          "type": "uint256"
        }
      ],
      "name": "isProposalDeleted",
      "outputs": [
        {
          "internalType": "bool",
          "name": "",
          "type": "bool"
        }
      ],
      "stateMutability": "view",
      "type": "function"
    },
    {
      "inputs": [],
      "name": "maxProposalCount",
      "outputs": [
        {
          "internalType": "uint256",
          "name": "",
          "type": "uint256"
        }
      ],
      "stateMutability": "view",
      "type": "function"
    },
    {
      "inputs": [],
      "name": "name",
      "outputs": [
        {
          "internalType": "string",
          "name": "",
          "type": "string"
        }
      ],
      "stateMutability": "view",
      "type": "function"
    },
    {
      "inputs": [],
      "name": "numAllowedProposalSubmissions",
      "outputs": [
        {
          "internalType": "uint256",
          "name": "",
          "type": "uint256"
        }
      ],
      "stateMutability": "view",
      "type": "function"
    },
    {
      "inputs": [
        {
          "internalType": "address",
          "name": "",
          "type": "address"
        }
      ],
      "name": "numSubmissions",
      "outputs": [
        {
          "internalType": "uint256",
          "name": "",
          "type": "uint256"
        }
      ],
      "stateMutability": "view",
      "type": "function"
    },
    {
      "inputs": [],
      "name": "officialRewardsModule",
      "outputs": [
        {
          "internalType": "contract RewardsModule",
          "name": "",
          "type": "address"
        }
      ],
      "stateMutability": "view",
      "type": "function"
    },
    {
      "inputs": [],
      "name": "percentageToCreator",
      "outputs": [
        {
          "internalType": "uint256",
          "name": "",
          "type": "uint256"
        }
      ],
      "stateMutability": "view",
      "type": "function"
    },
    {
      "inputs": [],
      "name": "prompt",
      "outputs": [
        {
          "internalType": "string",
          "name": "",
          "type": "string"
        }
      ],
      "stateMutability": "view",
      "type": "function"
    },
    {
      "inputs": [
        {
          "internalType": "uint256",
          "name": "proposalId",
          "type": "uint256"
        },
        {
          "internalType": "address",
          "name": "userAddress",
          "type": "address"
        }
      ],
      "name": "proposalAddressVotes",
      "outputs": [
        {
          "internalType": "uint256",
          "name": "forVotes",
          "type": "uint256"
        },
        {
          "internalType": "uint256",
          "name": "againstVotes",
          "type": "uint256"
        }
      ],
      "stateMutability": "view",
      "type": "function"
    },
    {
      "inputs": [
        {
          "internalType": "uint256",
          "name": "proposalId",
          "type": "uint256"
        }
      ],
      "name": "proposalAddressesHaveVoted",
      "outputs": [
        {
          "internalType": "address[]",
          "name": "",
          "type": "address[]"
        }
      ],
      "stateMutability": "view",
      "type": "function"
    },
    {
      "inputs": [
        {
          "internalType": "uint256",
          "name": "",
          "type": "uint256"
        }
      ],
      "name": "proposalAuthors",
      "outputs": [
        {
          "internalType": "address",
          "name": "",
          "type": "address"
        }
      ],
      "stateMutability": "view",
      "type": "function"
    },
    {
      "inputs": [
        {
          "internalType": "uint256",
          "name": "",
          "type": "uint256"
        }
      ],
      "name": "proposalIds",
      "outputs": [
        {
          "internalType": "uint256",
          "name": "",
          "type": "uint256"
        }
      ],
      "stateMutability": "view",
      "type": "function"
    },
    {
      "inputs": [
        {
          "internalType": "uint256",
          "name": "",
          "type": "uint256"
        }
      ],
      "name": "proposalIsDeleted",
      "outputs": [
        {
          "internalType": "bool",
          "name": "",
          "type": "bool"
        }
      ],
      "stateMutability": "view",
      "type": "function"
    },
    {
      "inputs": [
        {
          "internalType": "uint256",
          "name": "proposalId",
          "type": "uint256"
        }
      ],
      "name": "proposalVotes",
      "outputs": [
        {
          "internalType": "uint256",
          "name": "forVotes",
          "type": "uint256"
        },
        {
          "internalType": "uint256",
          "name": "againstVotes",
          "type": "uint256"
        }
      ],
      "stateMutability": "view",
      "type": "function"
    },
    {
      "inputs": [
        {
          "internalType": "uint256",
          "name": "",
          "type": "uint256"
        }
      ],
      "name": "proposalVotesStructs",
      "outputs": [
        {
          "components": [
            {
              "internalType": "uint256",
              "name": "forVotes",
              "type": "uint256"
            },
            {
              "internalType": "uint256",
              "name": "againstVotes",
              "type": "uint256"
            }
          ],
          "internalType": "struct GovernorCountingSimple.VoteCounts",
          "name": "proposalVoteCounts",
          "type": "tuple"
        }
      ],
      "stateMutability": "view",
      "type": "function"
    },
    {
      "inputs": [
        {
          "internalType": "uint256",
          "name": "",
          "type": "uint256"
        }
      ],
      "name": "proposals",
      "outputs": [
        {
          "internalType": "address",
          "name": "author",
          "type": "address"
        },
        {
          "internalType": "bool",
          "name": "exists",
          "type": "bool"
        },
        {
          "internalType": "string",
          "name": "description",
          "type": "string"
        },
        {
          "components": [
            {
              "internalType": "address",
              "name": "targetAddress",
              "type": "address"
            }
          ],
          "internalType": "struct IGovernor.TargetMetadata",
          "name": "targetMetadata",
          "type": "tuple"
        },
        {
          "components": [
            {
              "internalType": "address[]",
              "name": "signers",
              "type": "address[]"
            },
            {
              "internalType": "uint256",
              "name": "threshold",
              "type": "uint256"
            }
          ],
          "internalType": "struct IGovernor.SafeMetadata",
          "name": "safeMetadata",
          "type": "tuple"
        }
      ],
      "stateMutability": "view",
      "type": "function"
    },
    {
      "inputs": [
        {
          "components": [
            {
              "internalType": "address",
              "name": "author",
              "type": "address"
            },
            {
              "internalType": "bool",
              "name": "exists",
              "type": "bool"
            },
            {
              "internalType": "string",
              "name": "description",
              "type": "string"
            },
            {
              "components": [
                {
                  "internalType": "address",
                  "name": "targetAddress",
                  "type": "address"
                }
              ],
              "internalType": "struct IGovernor.TargetMetadata",
              "name": "targetMetadata",
              "type": "tuple"
            },
            {
              "components": [
                {
                  "internalType": "address[]",
                  "name": "signers",
                  "type": "address[]"
                },
                {
                  "internalType": "uint256",
                  "name": "threshold",
                  "type": "uint256"
                }
              ],
              "internalType": "struct IGovernor.SafeMetadata",
              "name": "safeMetadata",
              "type": "tuple"
            }
          ],
          "internalType": "struct IGovernor.ProposalCore",
          "name": "proposal",
          "type": "tuple"
        },
        {
          "internalType": "bytes32[]",
          "name": "proof",
          "type": "bytes32[]"
        }
      ],
      "name": "propose",
      "outputs": [
        {
          "internalType": "uint256",
          "name": "",
          "type": "uint256"
        }
      ],
      "stateMutability": "payable",
      "type": "function"
    },
    {
      "inputs": [
        {
          "components": [
            {
              "internalType": "address",
              "name": "author",
              "type": "address"
            },
            {
              "internalType": "bool",
              "name": "exists",
              "type": "bool"
            },
            {
              "internalType": "string",
              "name": "description",
              "type": "string"
            },
            {
              "components": [
                {
                  "internalType": "address",
                  "name": "targetAddress",
                  "type": "address"
                }
              ],
              "internalType": "struct IGovernor.TargetMetadata",
              "name": "targetMetadata",
              "type": "tuple"
            },
            {
              "components": [
                {
                  "internalType": "address[]",
                  "name": "signers",
                  "type": "address[]"
                },
                {
                  "internalType": "uint256",
                  "name": "threshold",
                  "type": "uint256"
                }
              ],
              "internalType": "struct IGovernor.SafeMetadata",
              "name": "safeMetadata",
              "type": "tuple"
            }
          ],
          "internalType": "struct IGovernor.ProposalCore",
          "name": "proposal",
          "type": "tuple"
        }
      ],
      "name": "proposeWithoutProof",
      "outputs": [
        {
          "internalType": "uint256",
          "name": "",
          "type": "uint256"
        }
      ],
      "stateMutability": "payable",
      "type": "function"
    },
    {
      "inputs": [],
      "name": "rankLimit",
      "outputs": [
        {
          "internalType": "uint256",
          "name": "",
          "type": "uint256"
        }
      ],
      "stateMutability": "view",
      "type": "function"
    },
    {
      "inputs": [
        {
          "internalType": "contract RewardsModule",
          "name": "officialRewardsModule_",
          "type": "address"
        }
      ],
      "name": "setOfficialRewardsModule",
      "outputs": [],
      "stateMutability": "nonpayable",
      "type": "function"
    },
    {
      "inputs": [
        {
          "internalType": "uint256",
          "name": "",
          "type": "uint256"
        }
      ],
      "name": "sortedRanks",
      "outputs": [
        {
          "internalType": "uint256",
          "name": "",
          "type": "uint256"
        }
      ],
      "stateMutability": "view",
      "type": "function"
    },
    {
      "inputs": [],
      "name": "sortingEnabled",
      "outputs": [
        {
          "internalType": "uint256",
          "name": "",
          "type": "uint256"
        }
      ],
      "stateMutability": "view",
      "type": "function"
    },
    {
      "inputs": [],
      "name": "state",
      "outputs": [
        {
          "internalType": "enum IGovernor.ContestState",
          "name": "",
          "type": "uint8"
        }
      ],
      "stateMutability": "view",
      "type": "function"
    },
    {
      "inputs": [],
      "name": "submissionMerkleRoot",
      "outputs": [
        {
          "internalType": "bytes32",
          "name": "",
          "type": "bytes32"
        }
      ],
      "stateMutability": "view",
      "type": "function"
    },
    {
      "inputs": [
        {
          "internalType": "bytes4",
          "name": "interfaceId",
          "type": "bytes4"
        }
      ],
      "name": "supportsInterface",
      "outputs": [
        {
          "internalType": "bool",
          "name": "",
          "type": "bool"
        }
      ],
      "stateMutability": "view",
      "type": "function"
    },
    {
      "inputs": [],
      "name": "totalVotesCast",
      "outputs": [
        {
          "internalType": "uint256",
          "name": "",
          "type": "uint256"
        }
      ],
      "stateMutability": "view",
      "type": "function"
    },
    {
      "inputs": [
        {
          "components": [
            {
              "internalType": "address",
              "name": "author",
              "type": "address"
            },
            {
              "internalType": "bool",
              "name": "exists",
              "type": "bool"
            },
            {
              "internalType": "string",
              "name": "description",
              "type": "string"
            },
            {
              "components": [
                {
                  "internalType": "address",
                  "name": "targetAddress",
                  "type": "address"
                }
              ],
              "internalType": "struct IGovernor.TargetMetadata",
              "name": "targetMetadata",
              "type": "tuple"
            },
            {
              "components": [
                {
                  "internalType": "address[]",
                  "name": "signers",
                  "type": "address[]"
                },
                {
                  "internalType": "uint256",
                  "name": "threshold",
                  "type": "uint256"
                }
              ],
              "internalType": "struct IGovernor.SafeMetadata",
              "name": "safeMetadata",
              "type": "tuple"
            }
          ],
          "internalType": "struct IGovernor.ProposalCore",
          "name": "proposal",
          "type": "tuple"
        }
      ],
      "name": "validateProposalData",
      "outputs": [
        {
          "internalType": "bool",
          "name": "dataValidated",
          "type": "bool"
        }
      ],
      "stateMutability": "nonpayable",
      "type": "function"
    },
    {
      "inputs": [
        {
          "internalType": "address",
          "name": "account",
          "type": "address"
        },
        {
          "internalType": "bytes32[]",
          "name": "proof",
          "type": "bytes32[]"
        }
      ],
      "name": "verifyProposer",
      "outputs": [
        {
          "internalType": "bool",
          "name": "verified",
          "type": "bool"
        }
      ],
      "stateMutability": "nonpayable",
      "type": "function"
    },
    {
      "inputs": [
        {
          "internalType": "address",
          "name": "account",
          "type": "address"
        },
        {
          "internalType": "uint256",
          "name": "totalVotes",
          "type": "uint256"
        },
        {
          "internalType": "bytes32[]",
          "name": "proof",
          "type": "bytes32[]"
        }
      ],
      "name": "verifyVoter",
      "outputs": [
        {
          "internalType": "bool",
          "name": "verified",
          "type": "bool"
        }
      ],
      "stateMutability": "nonpayable",
      "type": "function"
    },
    {
      "inputs": [],
      "name": "version",
      "outputs": [
        {
          "internalType": "string",
          "name": "",
          "type": "string"
        }
      ],
      "stateMutability": "view",
      "type": "function"
    },
    {
      "inputs": [],
      "name": "voteStart",
      "outputs": [
        {
          "internalType": "uint256",
          "name": "",
          "type": "uint256"
        }
      ],
      "stateMutability": "view",
      "type": "function"
    },
    {
      "inputs": [],
      "name": "votingDelay",
      "outputs": [
        {
          "internalType": "uint256",
          "name": "",
          "type": "uint256"
        }
      ],
      "stateMutability": "view",
      "type": "function"
    },
    {
      "inputs": [],
      "name": "votingMerkleRoot",
      "outputs": [
        {
          "internalType": "bytes32",
          "name": "",
          "type": "bytes32"
        }
      ],
      "stateMutability": "view",
      "type": "function"
    },
    {
      "inputs": [],
      "name": "votingPeriod",
      "outputs": [
        {
          "internalType": "uint256",
          "name": "",
          "type": "uint256"
        }
      ],
      "stateMutability": "view",
      "type": "function"
    }
  ],
  "bytecode": {
    "object": "0x6101e06040523480156200001257600080fd5b5060405162005527380380620055278339810160408190526200003591620006e2565b806000815181106200004b576200004b620007f3565b602002602001015181600181518110620000695762000069620007f3565b602002602001015182600281518110620000875762000087620007f3565b602002602001015183600381518110620000a557620000a5620007f3565b602002602001015184600481518110620000c357620000c3620007f3565b602002602001015185600581518110620000e157620000e1620007f3565b60200260200101518a8a8a8a8a600681518110620001035762000103620007f3565b60200260200101518b600781518110620001215762000121620007f3565b602002602001015183838e600881518110620001415762000141620007f3565b60200260200101518f6009815181106200015f576200015f620007f3565b602002602001015189620001786200031160201b60201c565b620001858260006200032e565b61012052620001968160016200032e565b61014052815160208084019190912060e052815190820120610100524660a0526200022460e05161010051604080517f8b73c3c69bb8fe3d512ecc4cf759cc79239f7b179b0ffacaa9a75d522b39400f60208201529081019290925260608201524660808201523060a082015260009060c00160405160208183030381529060405280519060200120905090565b60805250503060c05261016091909152610180526101a0919091526101c052600362000251878262000898565b50600462000260868262000898565b50600d829055600e8190556040517f1eae03a78f765227bc1e8574db32390cefa5b3c0a954017973e497e40a123734906200029f908890339062000992565b60405180910390a1505050505050620002be866200036760201b60201c565b620002c985620003a8565b620002d484620003e9565b620002df8362000490565b620002ea82620004d1565b620002f58162000512565b620003003362000553565b5050505050505050505050620009ff565b6040805180820190915260038152621a171960e91b602082015290565b60006020835110156200034e576200034683620005bc565b905062000361565b816200035b848262000898565b5060ff90505b92915050565b60165460408051918252602082018390527fd299feb1d7d9345a48559601c471c3be7eea9a11f21d5e86809198f40a974db4910160405180910390a1601655565b60175460408051918252602082018390527fc565b045403dc03c2eea82b81a0465edad9e2e7fc4d97e11421c209da93d7a93910160405180910390a1601755565b600081116200044f5760405162461bcd60e51b815260206004820152602760248201527f476f7665726e6f7253657474696e67733a20766f74696e6720706572696f6420604482015266746f6f206c6f7760c81b60648201526084015b60405180910390fd5b60185460408051918252602082018390527f7e3f7f0708a84de9203036abaa450dccc85ad5ff52f78c170f3edb55cf5e8828910160405180910390a1601855565b60195460408051918252602082018390527fe971b819c7fb95c72451f557226aceb5baaf4994a9d39a79bbfa0040e87500b9910160405180910390a1601955565b601a5460408051918252602082018390527f4984ec996723330ee95979ed65a2a4b41edd914e68a187efe92596474643bdff910160405180910390a1601a55565b601b5460408051918252602082018390527f9c7b27f091caef3a83be73d89320404fa0c4a52993685ff0651672e49e6e55ab910160405180910390a1601b55565b601c54604080516001600160a01b03928316815291831660208301527fc30034fc2e9697980e08935bbc287db3eaa44a4aa113ef4c108b356adbf911ce910160405180910390a1601c80546001600160a01b0319166001600160a01b0392909216919091179055565b600080829050601f81511115620005ea578260405163305a27a960e01b8152600401620004469190620009be565b8051620005f782620009da565b179392505050565b634e487b7160e01b600052604160045260246000fd5b604051601f8201601f191681016001600160401b0381118282101715620006405762000640620005ff565b604052919050565b60005b83811015620006655781810151838201526020016200064b565b50506000910152565b600082601f8301126200068057600080fd5b81516001600160401b038111156200069c576200069c620005ff565b620006b1601f8201601f191660200162000615565b818152846020838601011115620006c757600080fd5b620006da82602083016020870162000648565b949350505050565b600080600080600060a08688031215620006fb57600080fd5b85516001600160401b03808211156200071357600080fd5b6200072189838a016200066e565b96506020915081880151818111156200073957600080fd5b620007478a828b016200066e565b96505060408801519450606088015193506080880151818111156200076b57600080fd5b8801601f81018a136200077d57600080fd5b805182811115620007925762000792620005ff565b8060051b9250620007a584840162000615565b818152928201840192848101908c851115620007c057600080fd5b928501925b84841015620007e057835182529285019290850190620007c5565b8096505050505050509295509295909350565b634e487b7160e01b600052603260045260246000fd5b600181811c908216806200081e57607f821691505b6020821081036200083f57634e487b7160e01b600052602260045260246000fd5b50919050565b601f8211156200089357600081815260208120601f850160051c810160208610156200086e5750805b601f850160051c820191505b818110156200088f578281556001016200087a565b5050505b505050565b81516001600160401b03811115620008b457620008b4620005ff565b620008cc81620008c5845462000809565b8462000845565b602080601f831160018114620009045760008415620008eb5750858301515b600019600386901b1c1916600185901b1785556200088f565b600085815260208120601f198616915b82811015620009355788860151825594840194600190910190840162000914565b5085821015620009545787850151600019600388901b60f8161c191681555b5050505050600190811b01905550565b600081518084526200097e81602086016020860162000648565b601f01601f19169290920160200192915050565b604081526000620009a7604083018562000964565b905060018060a01b03831660208301529392505050565b602081526000620009d3602083018462000964565b9392505050565b805160208083015191908110156200083f5760001960209190910360031b1b16919050565b60805160a05160c05160e05161010051610120516101405161016051610180516101a0516101c051614a7862000aaf60003960008181610c5b01526112b6015260008181610b80015281816110d10152818161125101526114350152600081816104f10152818161394f0152613b360152600081816106ad01528181612545015261353601526000611a5201526000611a2801526000505060005050600050506000505060005050614a786000f3fe60806040526004361061040f5760003560e01c80636ed815ad1161021e578063bddc164111610123578063ea8a1af0116100ab578063f0a7db0a1161007a578063f0a7db0a14610d28578063f4f3d7ec14610d48578063f79c017214610d68578063fb8ddab414610d98578063fb9bf8d414610db857600080fd5b8063ea8a1af014610cbf578063edcd1be414610cd6578063eef18e1714610ceb578063efa90d3614610d1357600080fd5b8063cb853950116100f2578063cb85395014610c04578063d45a010b14610c34578063dd96a19d14610c49578063dea5f6a614610c7d578063e031535b14610caa57600080fd5b8063bddc164114610b6e578063c0ffaa7814610ba2578063c19d93fb14610bb5578063c7f758a814610bd757600080fd5b80639174778c116101a65780639ba197af116101755780639ba197af14610a9e578063a1ac6cb214610acb578063aec116b614610af8578063b323580d14610b2e578063b66d1da314610b4e57600080fd5b80639174778c14610a19578063930de97914610a39578063946369b514610a695780639b644a2314610a7e57600080fd5b8063785ddfe5116101ed578063785ddfe5146109915780637c65d711146109b15780637de418d5146109c6578063832009af146109dc57806384b0196e146109f157600080fd5b80636ed815ad1461091a5780636fd3636b1461092f578063711effc81461094457806375e509c51461096457600080fd5b8063366ecf5b1161032457806350c4b616116102ac5780635c7107d81161027b5780635c7107d81461086f5780635f953a031461088f57806360506ff6146108c557806365f16263146108da5780636e4eb810146108fa57600080fd5b806350c4b616146107b9578063531bd812146107d9578063544ffc9c146107f957806354fd4d501461084357600080fd5b8063419c533c116102f3578063419c533c1461072e578063458da87d1461074e578063476f4d8a1461076e5780634d24a67f1461078157806350a5e5241461079657600080fd5b8063366ecf5b1461069b5780633932abb1146106cf5780633b6d199b146106e45780633f9942ff1461071457600080fd5b8063070dc5d9116103a7578063262e59e911610376578063262e59e9146106085780632c39805f1461061d578063325cc6d91461063f57806332763c221461065f578063347cf6651461067f57600080fd5b8063070dc5d9146105555780630aa25e44146105a65780631242b737146105c657806320b3e845146105e857600080fd5b806302d05d3f116103e357806302d05d3f146104b25780630414126a146104df57806305846cae1461051357806306fdde031461053357600080fd5b80624114a814610414578063013cf08b1461043c57806301ffc9a71461046d57806302a251a31461049d575b600080fd5b34801561042057600080fd5b50610429610dcd565b6040519081526020015b60405180910390f35b34801561044857600080fd5b5061045c610457366004613caf565b610ddd565b604051610433959493929190613d67565b34801561047957600080fd5b5061048d610488366004613db9565b610f25565b6040519015158152602001610433565b3480156104a957600080fd5b50610429610f5c565b3480156104be57600080fd5b506104c7610f67565b6040516001600160a01b039091168152602001610433565b3480156104eb57600080fd5b506104297f000000000000000000000000000000000000000000000000000000000000000081565b34801561051f57600080fd5b5061042961052e366004613caf565b610f7b565b34801561053f57600080fd5b50610548610f9c565b6040516104339190613de3565b34801561056157600080fd5b50610599610570366004613caf565b601460209081526000918252604091829020825180840190935280548352600101549082015281565b6040516104339190613df6565b3480156105b257600080fd5b506104c76105c1366004613caf565b61102e565b3480156105d257600080fd5b506105db611058565b6040516104339190613e48565b3480156105f457600080fd5b5061048d610603366004613eb7565b6110af565b34801561061457600080fd5b50610429611145565b34801561062957600080fd5b50610632611161565b6040516104339190613f0b565b34801561064b57600080fd5b5061042961065a366004613caf565b6111c2565b34801561066b57600080fd5b5061048d61067a366004613f6d565b6111d2565b34801561068b57600080fd5b50610429678ac7230489e8000081565b3480156106a757600080fd5b506104297f000000000000000000000000000000000000000000000000000000000000000081565b3480156106db57600080fd5b5061042961130f565b3480156106f057600080fd5b5061048d6106ff366004613caf565b60009081526007602052604090205460ff1690565b34801561072057600080fd5b5060085461048d9060ff1681565b34801561073a57600080fd5b50610429610749366004613fee565b61131a565b34801561075a57600080fd5b506104296107693660046142fa565b6113df565b61042961077c366004614346565b611410565b34801561078d57600080fd5b506104296114cd565b3480156107a257600080fd5b506107ab6114db565b60405161043392919061437a565b3480156107c557600080fd5b506104c76107d4366004613caf565b6115e1565b3480156107e557600080fd5b5061048d6107f43660046143e3565b6115f1565b34801561080557600080fd5b5061082e610814366004613caf565b600090815260146020526040902080546001909101549091565b60408051928352602083019190915201610433565b34801561084f57600080fd5b506040805180820190915260038152621a171960e91b6020820152610548565b34801561087b57600080fd5b5061042961088a366004613caf565b61165c565b34801561089b57600080fd5b506104296108aa36600461443e565b6001600160a01b03166000908152600a602052604090205490565b3480156108d157600080fd5b5061042961184a565b3480156108e657600080fd5b506104296108f536600461445b565b611855565b34801561090657600080fd5b5061082e610915366004614490565b611944565b34801561092657600080fd5b50600d54610429565b34801561093b57600080fd5b506105db611979565b34801561095057600080fd5b5061042961095f3660046144c0565b6119cf565b34801561097057600080fd5b5061042961097f36600461443e565b600a6020526000908152604090205481565b34801561099d57600080fd5b50601d546104c7906001600160a01b031681565b3480156109bd57600080fd5b50610548611a00565b3480156109d257600080fd5b5061042960125481565b3480156109e857600080fd5b50610429611a0f565b3480156109fd57600080fd5b50610a06611a1a565b60405161043397969594939291906144e2565b348015610a2557600080fd5b5061048d610a34366004613caf565b611aa2565b348015610a4557600080fd5b5061048d610a5436600461443e565b60106020526000908152604090205460ff1681565b348015610a7557600080fd5b50610632611b92565b348015610a8a57600080fd5b50610429610a99366004613caf565b611bf2565b348015610aaa57600080fd5b50610429610ab9366004613caf565b60009081526015602052604090205490565b348015610ad757600080fd5b50610429610ae636600461443e565b60136020526000908152604090205481565b348015610b0457600080fd5b50610429610b1336600461443e565b6001600160a01b031660009081526013602052604090205490565b348015610b3a57600080fd5b50610632610b49366004613caf565b611c02565b348015610b5a57600080fd5b50610429610b69366004613caf565b611c74565b348015610b7a57600080fd5b506104297f000000000000000000000000000000000000000000000000000000000000000081565b610429610bb0366004614552565b611d59565b348015610bc157600080fd5b50610bca611deb565b60405161043391906145c3565b348015610be357600080fd5b50610bf7610bf2366004613caf565b611e5d565b60405161043391906145eb565b348015610c1057600080fd5b5061048d610c1f36600461443e565b60116020526000908152604090205460ff1681565b348015610c4057600080fd5b506107ab611fd7565b348015610c5557600080fd5b506104297f000000000000000000000000000000000000000000000000000000000000000081565b348015610c8957600080fd5b50610429610c9836600461443e565b600f6020526000908152604090205481565b348015610cb657600080fd5b506104296121a2565b348015610ccb57600080fd5b50610cd46121b4565b005b348015610ce257600080fd5b50600e54610429565b348015610cf757600080fd5b506104c773dc652c746a8f85e18ce632d97c6118e8a52fa73881565b348015610d1f57600080fd5b506105db61231e565b348015610d3457600080fd5b50610cd4610d43366004614652565b612374565b348015610d5457600080fd5b50610cd4610d6336600461443e565b6125c7565b348015610d7457600080fd5b5061048d610d83366004613caf565b60076020526000908152604090205460ff1681565b348015610da457600080fd5b5061048d610db33660046142fa565b6126c4565b348015610dc457600080fd5b50610429612963565b6000610dd860165490565b905090565b600960205260009081526040902080546001820180546001600160a01b03831693600160a01b90930460ff16929190610e1590614693565b80601f0160208091040260200160405190810160405280929190818152602001828054610e4190614693565b8015610e8e5780601f10610e6357610100808354040283529160200191610e8e565b820191906000526020600020905b815481529060010190602001808311610e7157829003601f168201915b5050604080516020808201835260028801546001600160a01b031682528251600389018054606093810283018401865294820185815298999398939750909550935084928491840182828015610f0d57602002820191906000526020600020905b81546001600160a01b03168152600190910190602001808311610eef575b50505050508152602001600182015481525050905085565b60006001600160e01b0319821663b082528b60e01b1480610f5657506301ffc9a760e01b6001600160e01b03198316145b92915050565b6000610dd860185490565b6000610dd8601c546001600160a01b031690565b60068181548110610f8b57600080fd5b600091825260209091200154905081565b606060038054610fab90614693565b80601f0160208091040260200160405190810160405280929190818152602001828054610fd790614693565b80156110245780601f10610ff957610100808354040283529160200191611024565b820191906000526020600020905b81548152906001019060200180831161100757829003601f168201915b5050505050905090565b600b818154811061103e57600080fd5b6000918252602090912001546001600160a01b0316905081565b6060600680548060200260200160405190810160405280929190818152602001828054801561102457602002820191906000526020600020905b815481526020019060010190808311611092575050505050905090565b6001600160a01b03831660009081526011602052604081205460ff1661113a577f00000000000000000000000000000000000000000000000000000000000000006000036110ff5750600161113e565b61111584678ac7230489e80000858560006111d2565b506001600160a01b0384166000908152601160205260409020805460ff191660011790555b5060015b9392505050565b600061114f610f5c565b6111576121a2565b610dd891906146dd565b6060600c80548060200260200160405190810160405280929190818152602001828054801561102457602002820191906000526020600020905b81546001600160a01b0316815260019091019060200180831161119b575050505050905090565b60028181548110610f8b57600080fd5b6040516bffffffffffffffffffffffff19606087901b1660208201526034810185905260009081906054016040516020818303038152906040528051906020012090506000836112815761127c8686808060200260200160405190810160405280939291908181526020018383602002808284376000920191909152507f0000000000000000000000000000000000000000000000000000000000000000925086915061296e9050565b6112e1565b6112e18686808060200260200160405190810160405280939291908181526020018383602002808284376000920191909152507f0000000000000000000000000000000000000000000000000000000000000000925086915061296e9050565b9050806113015760405163452c2df160e11b815260040160405180910390fd5b506001979650505050505050565b6000610dd860175490565b600086815260076020526040812054339060ff16156113545760405162461bcd60e51b815260040161134b906146f0565b60405180910390fd5b611360818786866115f1565b6113c75760405162461bcd60e51b815260206004820152603260248201527f476f7665726e6f723a20746869732061646472657373206973206e6f74207065604482015271726d697373696f6e656420746f20766f746560701b606482015260840161134b565b6113d388828988612984565b98975050505050505050565b6000816040516020016113f291906145eb565b60408051601f19818403018152919052805160209091012092915050565b6000600d5434146114335760405162461bcd60e51b815260040161134b9061473f565b7f000000000000000000000000000000000000000000000000000000000000000015611488573360009081526011602052604090205460ff166114885760405162461bcd60e51b815260040161134b906147c2565b611494610db383614811565b6114b05760405162461bcd60e51b815260040161134b9061481d565b60006114c36114be84614811565b612be6565b9050610f56612fc7565b6114d86001806146dd565b81565b60608060006114e861231e565b9050600081516001600160401b038111156115055761150561405e565b60405190808252806020026020018201604052801561154a57816020015b60408051808201909152600080825260208201528152602001906001900390816115235790505b50905060005b82518110156115d7576014600084838151811061156f5761156f614869565b60200260200101518152602001908152602001600020600001604051806040016040529081600082015481526020016001820154815250508282815181106115b9576115b9614869565b602002602001018190525080806115cf9061487f565b915050611550565b5090939092509050565b600c818154811061103e57600080fd5b6001600160a01b03841660009081526010602052604081205460ff166116515761161f8585858560016111d2565b506001600160a01b0385166000908152600f6020908152604080832087905560109091529020805460ff191660011790555b506001949350505050565b6000816000036116ba5760405162461bcd60e51b8152602060048201526024808201527f476f7665726e6f72536f7274696e673a2072616e6b2063616e6e6f74206571756044820152630616c20360e41b606482015260840161134b565b6002805460408051602080840282018101909252828152919260009291849083018282801561170857602002820191906000526020600020905b8154815260200190600101908083116116f4575b5050505050905060006001905060005b838110156117845761174f83828151811061173557611735614869565b602002602001015160009081526015602052604090205490565b15611772578582036117645795945050505050565b8161176e8161487f565b9250505b8061177c8161487f565b915050611718565b5060405162461bcd60e51b815260206004820152608260248201527f476f7665726e6f72536f7274696e673a20746869732072616e6b20646f65732060448201527f6e6f74206578697374206f72206973206f7574206f662074686520616c6c6f7760648201527f65642072616e6b20747261636b696e672072616e67652074616b696e6720646560848201527f6c657465642070726f706f73616c73202b2054547320696e746f206163636f7560a4820152611b9d60f21b60c482015260e40161134b565b6000610dd8601b5490565b600083815260076020526040812054339060ff16156118865760405162461bcd60e51b815260040161134b906146f0565b6001600160a01b03811660009081526010602052604090205460ff1661192f5760405162461bcd60e51b815260206004820152605260248201527f476f7665726e6f723a20796f75206e65656420746f2063617374206120766f7460448201527f652077697468207468652070726f6f66206174206c65617374206f6e636520616064820152711b99081e5bdd481a185d995b89dd081e595d60721b608482015260a40161134b565b61193b85828686612984565b95945050505050565b60008281526014602090815260408083206001600160a01b0385168452600301909152902080546001909101545b9250929050565b606060028054806020026020016040519081016040528092919081815260200182805480156110245760200282019190600052602060002090815481526020019060010190808311611092575050505050905090565b601560205281600052604060002081815481106119eb57600080fd5b90600052602060002001600091509150505481565b606060048054610fab90614693565b6000610dd860195490565b600060608082808083611a4d7f0000000000000000000000000000000000000000000000000000000000000000836130db565b611a787f000000000000000000000000000000000000000000000000000000000000000060016130db565b60408051600080825260208201909252600f60f81b9b939a50919850469750309650945092509050565b600254600090611ab490600190614898565b821115611b1e5760405162461bcd60e51b815260206004820152603260248201527f476f7665726e6f72536f7274696e673a207468697320696e64657820686173206044820152711b9bdd081899595b881c1bdc1d5b185d195960721b606482015260840161134b565b60005b611b2c8360016146dd565b811015611b89576001611b6860028381548110611b4b57611b4b614869565b906000526020600020015460009081526015602052604090205490565b1115611b775750600192915050565b80611b818161487f565b915050611b21565b50600092915050565b6060600b805480602002602001604051908101604052809291908181526020018280548015611024576020028201919060005260206000209081546001600160a01b0316815260019091019060200180831161119b575050505050905090565b60058181548110610f8b57600080fd5b6000818152601460209081526040918290206002810180548451818502810185019095528085526060949293830182828015611c6757602002820191906000526020600020905b81546001600160a01b03168152600190910190602001808311611c49575b5050505050915050919050565b600081815260156020526040812054600114611d285760405162461bcd60e51b815260206004820152606160248201527f476f7665726e6f72436f756e74696e6753696d706c653a20747269656420746f60448201527f2063616c6c206765744f6e6c7950726f706f73616c496457697468546869734d60648201527f616e79466f72566f74657320616e6420636f756c646e27742066696e64206f6e6084820152606560f81b60a482015260c40161134b565b60008281526015602052604081208054909190611d4757611d47614869565b90600052602060002001549050919050565b6000600d543414611d7c5760405162461bcd60e51b815260040161134b9061473f565b611d873384846110af565b611da35760405162461bcd60e51b815260040161134b906147c2565b611daf610db385614811565b611dcb5760405162461bcd60e51b815260040161134b9061481d565b6000611dd96114be86614811565b9050611de3612fc7565b949350505050565b60085460009060ff1615611dff5750600290565b6000611e09610dcd565b9050428110611e1a57600091505090565b6000611e246121a2565b9050428110611e365760039250505090565b6000611e40611145565b9050428110611e53576001935050505090565b6004935050505090565b611e65613bc4565b600082815260096020908152604091829020825160a08101845281546001600160a01b0381168252600160a01b900460ff161515928101929092526001810180549293919291840191611eb790614693565b80601f0160208091040260200160405190810160405280929190818152602001828054611ee390614693565b8015611f305780601f10611f0557610100808354040283529160200191611f30565b820191906000526020600020905b815481529060010190602001808311611f1357829003601f168201915b5050509183525050604080516020818101835260028501546001600160a01b03168252808401919091528151600385018054606093810283018401855282850181815294909501949193909284928491840182828015611fb957602002820191906000526020600020905b81546001600160a01b03168152600190910190602001808311611f9b575b50505050508152602001600182015481525050815250509050919050565b6060806000611fe461231e565b9050600081516001600160401b038111156120015761200161405e565b60405190808252806020026020018201604052801561202a578160200160208202803683370190505b509050600082516001600160401b038111156120485761204861405e565b60405190808252806020026020018201604052801561208d57816020015b60408051808201909152600080825260208201528152602001906001900390816120665790505b5090506000805b8451811015612196576120cf8582815181106120b2576120b2614869565b602002602001015160009081526007602052604090205460ff1690565b612184578481815181106120e5576120e5614869565b60200260200101518483815181106120ff576120ff614869565b6020026020010181815250506014600086838151811061212157612121614869565b602002602001015181526020019081526020016000206000016040518060400160405290816000820154815260200160018201548152505083838151811061216b5761216b614869565b60209081029190910101526121816001836146dd565b91505b8061218e8161487f565b915050612094565b50919590945092505050565b60006121ac61130f565b611157610dcd565b6121bc610f67565b6001600160a01b0316336001600160a01b031614806121ee57503373dc652c746a8f85e18ce632d97c6118e8a52fa738145b6122595760405162461bcd60e51b815260206004820152603660248201527f476f7665726e6f723a206f6e6c792063726561746f72206f72206a6b206c61626044820152751cc818d85b8818d85b98d95b08184818dbdb9d195cdd60521b606482015260840161134b565b6000612263611deb565b90506002816004811115612279576122796145ad565b1415801561229957506004816004811115612296576122966145ad565b14155b6122e55760405162461bcd60e51b815260206004820152601c60248201527f476f7665726e6f723a20636f6e74657374206e6f742061637469766500000000604482015260640161134b565b6008805460ff191660011790556040517f4cd963a081760a54f571abc0f1db4dde31b4a07d8d6da3e844b8c6f47eeaaa4290600090a150565b606060058054806020026020016040519081016040528092919081815260200182805480156110245760200282019190600052602060002090815481526020019060010190808311611092575050505050905090565b61237c610f67565b6001600160a01b0316336001600160a01b0316146124025760405162461bcd60e51b815260206004820152603760248201527f476f7665726e6f723a206f6e6c792074686520636f6e7465737420637265617460448201527f6f722063616e2064656c6574652070726f706f73616c73000000000000000000606482015260840161134b565b600461240c611deb565b600481111561241d5761241d6145ad565b036124a25760405162461bcd60e51b815260206004820152604960248201527f476f7665726e6f723a2064656c6574696f6e206f662070726f706f73616c732060448201527f61667465722074686520656e64206f66206120636f6e74657374206973206e6f6064820152681d08185b1b1bddd95960ba1b608482015260a40161134b565b60005b8181101561258a5760008383838181106124c1576124c1614869565b60209081029290920135600081815260079093526040909220549192505060ff16612577576000818152600760205260408120805460ff191660019081179091556006805491820181559091527ff652222313e28459528d920b65115c16c04f3efc82aaedc97be59f3f377c0d3f0181905561253b61184a565b15801561256857507f00000000000000000000000000000000000000000000000000000000000000006001145b15612577576125778484613187565b50806125828161487f565b9150506124a5565b507f75a75cf5c561892f4cc5b26c1b8e933849b42238c96dd073d080d1ae96c5141660056040516125bb91906148ab565b60405180910390a15050565b6125cf610f67565b6001600160a01b0316336001600160a01b03161461266a5760405162461bcd60e51b815260206004820152604c60248201527f476f7665726e6f724d6f64756c6552656769737472793a206f6e6c792074686560448201527f2063726561746f722063616e2073657420746865206f6666696369616c20726560648201526b7761726473206d6f64756c6560a01b608482015260a40161134b565b601d80546001600160a01b038381166001600160a01b031983168117909355604080519190921680825260208201939093527f753a2cf8d360cff631674504210913e48247f8e56b3e6d2006c2103d4095999f91016125bb565b80516000906001600160a01b031633146127395760405162461bcd60e51b815260206004820152603060248201527f476f7665726e6f723a207468652070726f706f73616c20617574686f72206d7560448201526f39ba1031329036b9b39739b2b73232b960811b606482015260840161134b565b60005b6127476001806146dd565b8110156128e7576000816001811115612762576127626145ad565b90506000816001811115612778576127786145ad565b0361278357506128d5565b6001816001811115612797576127976145ad565b036128ba57608084015151516000036128295760405162461bcd60e51b815260206004820152604860248201527f476f7665726e6f724d6574616461746156616c69646174696f6e3a207468657260448201527f652063616e6e6f74206265207a65726f207369676e65727320696e20736166656064820152674d6574616461746160c01b608482015260a40161134b565b8360800151602001516000036128b55760405162461bcd60e51b8152602060048201526044602482018190527f476f7665726e6f724d6574616461746156616c69646174696f6e3a2074687265908201527f73686f6c642063616e6e6f74206265207a65726f20696e20736166654d6574616064820152636461746160e01b608482015260a40161134b565b6128d3565b6040516308b6566d60e11b815260040160405180910390fd5b505b806128df8161487f565b91505061273c565b5081604001515160000361295b5760405162461bcd60e51b815260206004820152603560248201527f476f7665726e6f723a20656d7074792070726f706f73616c20646573637269706044820152741d1a5bdb9cc8185c99481b9bdd08185b1b1bddd959605a1b606482015260840161134b565b506001919050565b6000610dd8601a5490565b60008261297b85846131e9565b14949350505050565b60006001612990611deb565b60048111156129a1576129a16145ad565b146129fa5760405162461bcd60e51b815260206004820152602360248201527f476f7665726e6f723a20766f7465206e6f742063757272656e746c792061637460448201526269766560e81b606482015260840161134b565b60008211612a5e5760405162461bcd60e51b815260206004820152602b60248201527f476f7665726e6f723a2063616e6e6f7420766f746520776974682030206f722060448201526a666577657220766f74657360a81b606482015260840161134b565b6001600160a01b03841660009081526010602052604090205460ff16612b045760405162461bcd60e51b815260206004820152604f60248201527f476f7665726e6f723a20796f75206e65656420746f2076657269667920796f7560448201527f72206e756d626572206f6620766f74657320616761696e737420746865206d6560648201526e1c9adb19481c9bdbdd08199a5c9cdd608a1b608482015260a40161134b565b612b3685858585600f60008a6001600160a01b03166001600160a01b0316815260200190815260200160002054613236565b600c80546001810182556000919091527fdf6966c971051c3d54ec59162606531493a51404a002842f56009d7e5cf4a8c70180546001600160a01b031916331790556040805186815260ff851660208201529081018390526001600160a01b038516907f2c9deb38f462962eadbd85a9d3a4120503ee091f1582eaaa10aa8c6797651d299060600160405180910390a25050506001600160a01b03166000908152600f6020526040902054919050565b60006003612bf2611deb565b6004811115612c0357612c036145ad565b14612c765760405162461bcd60e51b815260206004820152603e60248201527f476f7665726e6f723a20636f6e74657374206d7573742062652071756575656460448201527f20666f722070726f706f73616c7320746f206265207375626d69747465640000606482015260840161134b565b612c7e611a0f565b336000908152600a602052604090205410612d355760405162461bcd60e51b815260206004820152606560248201527f476f7665726e6f723a207468652073616d6520616464726573732063616e6e6f60448201527f74207375626d6974206d6f7265207468616e20746865206e756d416c6c6f776560648201527f6450726f706f73616c5375626d697373696f6e7320666f72207468697320636f6084820152641b9d195cdd60da1b60a482015260c40161134b565b612d3d612963565b600654600554612d4d9190614898565b10612dc05760405162461bcd60e51b815260206004820152603960248201527f476f7665726e6f723a20746865206d6178206e756d626572206f662070726f7060448201527f6f73616c732068617665206265656e207375626d697474656400000000000000606482015260840161134b565b6000612dcb836113df565b600081815260096020526040902054909150600160a01b900460ff1615612e465760405162461bcd60e51b815260206004820152602960248201527f476f7665726e6f723a206475706c69636174652070726f706f73616c73206e6f6044820152681d08185b1b1bddd95960ba1b606482015260840161134b565b6005805460018181019092557f036b6384b5eca791c62761152d0c79bb0604c104a5fb6f4eb0703f3154bb3db00182905560008281526009602090815260409182902086518154928801511515600160a01b026001600160a81b03199093166001600160a01b0390911617919091178155908501518592820190612eca9082614934565b506060820151516002820180546001600160a01b0319166001600160a01b039092169190911790556080820151805180516003840191612f0f91839160200190613c35565b50602091820151600191820155336000908152600a9092526040822080549194509250612f3d9084906146dd565b9091555050600b80546001810182556000919091527f0175b7a638427703f0dbe7bb9bbf987a2551717b34e79f33b5b1008d1fa01db90180546001600160a01b031916339081179091556040805183815260208101929092527fcd423cc1203c0af96b9b3d68d73b3064a69de2d14450bb7181c5e5df2132b358910160405180910390a192915050565b600d54156130d95760006064600e546064612fe29190614898565b612fec90346149f3565b612ff69190614a0a565b9050801561306a5761301c73dc652c746a8f85e18ce632d97c6118e8a52fa738826135b5565b6040805173dc652c746a8f85e18ce632d97c6118e8a52fa7388152602081018390527fdf20fd1e76bc69d672e4814fafb2c449bba3a5369d8359adf9e05e6fde87b056910160405180910390a15b60006130768234614898565b905080156130d65761308f613089610f67565b826135b5565b7fdf20fd1e76bc69d672e4814fafb2c449bba3a5369d8359adf9e05e6fde87b0566130b8610f67565b604080516001600160a01b03909216825260208201849052016125bb565b50505b565b606060ff83146130f5576130ee836136ce565b9050610f56565b81805461310190614693565b80601f016020809104026020016040519081016040528092919081815260200182805461312d90614693565b801561317a5780601f1061314f5761010080835404028352916020019161317a565b820191906000526020600020905b81548152906001019060200180831161315d57829003601f168201915b5050505050905092915050565b60005b818110156131e45760008383838181106131a6576131a6614869565b60209081029290920135600081815260149093526040909220549192506131cf9050828261370d565b505080806131dc9061487f565b91505061318a565b505050565b600081815b845181101561322e5761321a8286838151811061320d5761320d614869565b6020026020010151613844565b9150806132268161487f565b9150506131ee565b509392505050565b60008581526014602090815260408083206001600160a01b03881684526013909252909120546132669083614898565b8311156132d15760405162461bcd60e51b815260206004820152603360248201527f476f7665726e6f72566f74696e6753696d706c653a206e6f7420656e6f756768604482015272081d9bdd195cc81b19599d081d1bc818d85cdd606a1b606482015260840161134b565b6001600160a01b038516600090815260038201602052604081205415801561331457506001600160a01b0386166000908152600383016020526040902060010154155b905060ff851661336c578154849083906000906133329084906146dd565b90915550506001600160a01b0386166000908152600383016020526040812080548692906133619084906146dd565b909155506134a69050565b60001960ff8616016134405761338061184a565b6001146133f7576040805162461bcd60e51b81526020600482015260248101919091527f476f7665726e6f72566f74696e6753696d706c653a20646f776e766f74696e6760448201527f206973206e6f7420656e61626c656420666f72207468697320436f6e74657374606482015260840161134b565b8382600001600101600082825461340e91906146dd565b90915550506001600160a01b0386166000908152600383016020526040812060010180548692906133619084906146dd565b60405162461bcd60e51b815260206004820152603560248201527f476f7665726e6f72566f74696e6753696d706c653a20696e76616c69642076616044820152746c756520666f7220656e756d20566f74655479706560581b606482015260840161134b565b80156134dd57600282018054600181018255600091825260209091200180546001600160a01b0319166001600160a01b0388161790555b6001600160a01b038616600090815260136020526040812080548692906135059084906146dd565b92505081905550836012600082825461351e91906146dd565b9091555061352c905061184a565b15801561355957507f00000000000000000000000000000000000000000000000000000000000000006001145b156135ac578154600061356c8683614898565b9050801561357e5761357e898261370d565b6000828152601560209081526040822080546001810182559083529120018990556135a98183613870565b50505b50505050505050565b804710156136055760405162461bcd60e51b815260206004820152601d60248201527f416464726573733a20696e73756666696369656e742062616c616e6365000000604482015260640161134b565b6000826001600160a01b03168260405160006040518083038185875af1925050503d8060008114613652576040519150601f19603f3d011682016040523d82523d6000602084013e613657565b606091505b50509050806131e45760405162461bcd60e51b815260206004820152603a60248201527f416464726573733a20756e61626c6520746f2073656e642076616c75652c207260448201527f6563697069656e74206d61792068617665207265766572746564000000000000606482015260840161134b565b606060006136db836139be565b604080516020808252818301909252919250600091906020820181803683375050509182525060208101929092525090565b60008181526015602090815260408083208054825181850281018501909352808352919290919083018282801561376357602002820191906000526020600020905b81548152602001906001019080831161374f575b5050505050905060005b815181101561383e578382828151811061378957613789614869565b60200260200101510361382c5781600183516137a59190614898565b815181106137b5576137b5614869565b60200260200101516015600085815260200190815260200160002082815481106137e1576137e1614869565b90600052602060002001819055506015600084815260200190815260200160002080548061381157613811614a2c565b6001900381819060005260206000200160009055905561383e565b806138368161487f565b91505061376d565b50505050565b600081831061386057600082815260208490526040902061113e565b5060009182526020526040902090565b600280546040805160208084028201810190925282815291926000929184908301828280156138be57602002820191906000526020600020905b8154815260200190600101908083116138aa575b5050505050905081600003613905575050600280546001810182556000919091527f405787fa12a823e0f2b7631cc41b3ba8828b3321ca811111fa75cd3aa3bb5ace015550565b600083815260156020526040902054600110156139225750505050565b8061392e600184614898565b8151811061393e5761393e614869565b60200260200101518310156139b2577f0000000000000000000000000000000000000000000000000000000000000000820361397a5750505050565b5050600280546001810182556000919091527f405787fa12a823e0f2b7631cc41b3ba8828b3321ca811111fa75cd3aa3bb5ace015550565b61383e848484846139e6565b600060ff8216601f811115610f5657604051632cd44ac360e21b815260040160405180910390fd5b6000805b83811015613a2d57828181518110613a0457613a04614869565b6020026020010151851115613a1b57809150613a2d565b80613a258161487f565b9150506139ea565b5060008086118015613a4b5750600086815260156020526040902054155b90506000818015613a74575086848481518110613a6a57613a6a614869565b6020026020010151145b613b9b57613a83600186614898565b8314613b2b576000613a968460016146dd565b90505b85811015613b295784613aad600183614898565b81518110613abd57613abd614869565b602002602001015160028281548110613ad857613ad8614869565b600091825260209091200155828015613b09575087858281518110613aff57613aff614869565b6020026020010151145b15613b175760019150613b29565b80613b218161487f565b915050613a99565b505b80158015613b5857507f000000000000000000000000000000000000000000000000000000000000000085105b15613b9b57600284613b6b600188614898565b81518110613b7b57613b7b614869565b602090810291909101810151825460018101845560009384529190922001555b8560028481548110613baf57613baf614869565b60009182526020909120015550505050505050565b6040518060a0016040528060006001600160a01b0316815260200160001515815260200160608152602001613c0e604051806020016040528060006001600160a01b031681525090565b8152602001613c30604051806040016040528060608152602001600081525090565b905290565b828054828255906000526020600020908101928215613c8a579160200282015b82811115613c8a57825182546001600160a01b0319166001600160a01b03909116178255602090920191600190910190613c55565b50613c96929150613c9a565b5090565b5b80821115613c965760008155600101613c9b565b600060208284031215613cc157600080fd5b5035919050565b6000815180845260005b81811015613cee57602081850181015186830182015201613cd2565b506000602082860101526020601f19601f83011685010191505092915050565b805160408084528151908401819052600091602091908201906060860190845b81811015613d535783516001600160a01b031683529284019291840191600101613d2e565b505093820151949091019390935250919050565b600060018060a01b038088168352861515602084015260a06040840152613d9160a0840187613cc8565b8186511660608501528381036080850152613dac8186613d0e565b9998505050505050505050565b600060208284031215613dcb57600080fd5b81356001600160e01b03198116811461113e57600080fd5b60208152600061113e6020830184613cc8565b815181526020808301519082015260408101610f56565b600081518084526020808501945080840160005b83811015613e3d57815187529582019590820190600101613e21565b509495945050505050565b60208152600061113e6020830184613e0d565b6001600160a01b0381168114613e7057600080fd5b50565b60008083601f840112613e8557600080fd5b5081356001600160401b03811115613e9c57600080fd5b6020830191508360208260051b850101111561197257600080fd5b600080600060408486031215613ecc57600080fd5b8335613ed781613e5b565b925060208401356001600160401b03811115613ef257600080fd5b613efe86828701613e73565b9497909650939450505050565b6020808252825182820181905260009190848201906040850190845b81811015613f4c5783516001600160a01b031683529284019291840191600101613f27565b50909695505050505050565b80358015158114613f6857600080fd5b919050565b600080600080600060808688031215613f8557600080fd5b8535613f9081613e5b565b94506020860135935060408601356001600160401b03811115613fb257600080fd5b613fbe88828901613e73565b9094509250613fd1905060608701613f58565b90509295509295909350565b803560ff81168114613f6857600080fd5b60008060008060008060a0878903121561400757600080fd5b8635955061401760208801613fdd565b9450604087013593506060870135925060808701356001600160401b0381111561404057600080fd5b61404c89828a01613e73565b979a9699509497509295939492505050565b634e487b7160e01b600052604160045260246000fd5b604080519081016001600160401b03811182821017156140965761409661405e565b60405290565b60405160a081016001600160401b03811182821017156140965761409661405e565b604051601f8201601f191681016001600160401b03811182821017156140e6576140e661405e565b604052919050565b60006020828403121561410057600080fd5b604051602081018181106001600160401b03821117156141225761412261405e565b604052905080823561413381613e5b565b905292915050565b60006040828403121561414d57600080fd5b614155614074565b905081356001600160401b038082111561416e57600080fd5b818401915084601f83011261418257600080fd5b81356020828211156141965761419661405e565b8160051b92506141a78184016140be565b82815292840181019281810190888511156141c157600080fd5b948201945b848610156141eb57853593506141db84613e5b565b83825294820194908201906141c6565b808752505080860135818601525050505092915050565b600060a0828403121561421457600080fd5b61421c61409c565b9050813561422981613e5b565b81526020614238838201613f58565b8183015260408301356001600160401b038082111561425657600080fd5b818501915085601f83011261426a57600080fd5b81358181111561427c5761427c61405e565b61428e601f8201601f191685016140be565b81815287858386010111156142a257600080fd5b8185850186830137600085838301015280604087015250506142c786606087016140ee565b606085015260808501359250808311156142e057600080fd5b50506142ee8482850161413b565b60808301525092915050565b60006020828403121561430c57600080fd5b81356001600160401b0381111561432257600080fd5b611de384828501614202565b600060a0828403121561434057600080fd5b50919050565b60006020828403121561435857600080fd5b81356001600160401b0381111561436e57600080fd5b611de38482850161432e565b6000604080835261438d81840186613e0d565b83810360208581019190915285518083528682019282019060005b818110156143d5576143c583865180518252602090810151910152565b93830193918501916001016143a8565b509098975050505050505050565b600080600080606085870312156143f957600080fd5b843561440481613e5b565b93506020850135925060408501356001600160401b0381111561442657600080fd5b61443287828801613e73565b95989497509550505050565b60006020828403121561445057600080fd5b813561113e81613e5b565b60008060006060848603121561447057600080fd5b8335925061448060208501613fdd565b9150604084013590509250925092565b600080604083850312156144a357600080fd5b8235915060208301356144b581613e5b565b809150509250929050565b600080604083850312156144d357600080fd5b50508035926020909101359150565b60ff60f81b8816815260e06020820152600061450160e0830189613cc8565b82810360408401526145138189613cc8565b606084018890526001600160a01b038716608085015260a0840186905283810360c085015290506145448185613e0d565b9a9950505050505050505050565b60008060006040848603121561456757600080fd5b83356001600160401b038082111561457e57600080fd5b61458a8783880161432e565b945060208601359150808211156145a057600080fd5b50613efe86828701613e73565b634e487b7160e01b600052602160045260246000fd5b60208101600583106145e557634e487b7160e01b600052602160045260246000fd5b91905290565b60208152600060018060a01b03808451166020840152602084015115156040840152604084015160a0606085015261462660c0850182613cc8565b90508160608601515116608085015260808501519150601f198482030160a085015261193b8183613d0e565b6000806020838503121561466557600080fd5b82356001600160401b0381111561467b57600080fd5b61468785828601613e73565b90969095509350505050565b600181811c908216806146a757607f821691505b60208210810361434057634e487b7160e01b600052602260045260246000fd5b634e487b7160e01b600052601160045260246000fd5b80820180821115610f5657610f566146c7565b6020808252602f908201527f476f7665726e6f723a20796f752063616e6e6f7420766f7465206f6e2061206460408201526e195b195d1959081c1c9bdc1bdcd85b608a1b606082015260800190565b6020808252605a908201527f476f7665726e6f723a2074686973207472616e73616374696f6e20776173206e60408201527f6f742073656e7420776974682074686520636f727265637420616d6f756e742060608201527f6f662066756e6473206e656564656420746f2070726f706f7365000000000000608082015260a00190565b6020808252602f908201527f476f7665726e6f723a2061646472657373206973206e6f74207065726d69737360408201526e1a5bdb9959081d1bc81cdd589b5a5d608a1b606082015260800190565b6000610f563683614202565b6020808252602c908201527f476f7665726e6f723a2070726f706f73616c20636f6e74656e74206661696c6560408201526b32103b30b634b230ba34b7b760a11b606082015260800190565b634e487b7160e01b600052603260045260246000fd5b600060018201614891576148916146c7565b5060010190565b81810381811115610f5657610f566146c7565b6020808252825482820181905260008481528281209092916040850190845b81811015613f4c578354835260019384019392850192016148ca565b601f8211156131e457600081815260208120601f850160051c8101602086101561490d5750805b601f850160051c820191505b8181101561492c57828155600101614919565b505050505050565b81516001600160401b0381111561494d5761494d61405e565b6149618161495b8454614693565b846148e6565b602080601f831160018114614996576000841561497e5750858301515b600019600386901b1c1916600185901b17855561492c565b600085815260208120601f198616915b828110156149c5578886015182559484019460019091019084016149a6565b50858210156149e35787850151600019600388901b60f8161c191681555b5050505050600190811b01905550565b8082028115828204841417610f5657610f566146c7565b600082614a2757634e487b7160e01b600052601260045260246000fd5b500490565b634e487b7160e01b600052603160045260246000fdfea2646970667358221220e88716f4e7cc6939ff03d166bf8df016ff1e0dba94c587554e96790f435bee4f64736f6c63430008130033",
    "linkReferences": {}
  },
  "methodIdentifiers": {
    "AMOUNT_FOR_SUMBITTER_PROOF()": "347cf665",
    "JK_LABS_ADDRESS()": "eef18e17",
    "METADATAS_COUNT()": "4d24a67f",
    "addressSubmitterVerified(address)": "cb853950",
    "addressTotalCastVoteCounts(address)": "a1ac6cb2",
    "addressTotalVotes(address)": "dea5f6a6",
    "addressTotalVotesVerified(address)": "930de979",
    "addressesThatHaveVoted(uint256)": "50c4b616",
    "allProposalTotalVotes()": "50a5e524",
    "allProposalTotalVotesWithoutDeleted()": "d45a010b",
    "cancel()": "ea8a1af0",
    "canceled()": "3f9942ff",
    "castVote(uint256,uint8,uint256,uint256,bytes32[])": "419c533c",
    "castVoteWithoutProof(uint256,uint8,uint256)": "65f16263",
    "checkProof(address,uint256,bytes32[],bool)": "32763c22",
    "contestAddressTotalVotesCast(address)": "aec116b6",
    "contestDeadline()": "262e59e9",
    "contestStart()": "004114a8",
    "costToPropose()": "6ed815ad",
    "creator()": "02d05d3f",
    "deleteProposals(uint256[])": "f0a7db0a",
    "deletedProposalIds(uint256)": "05846cae",
    "downvotingAllowed()": "60506ff6",
    "eip712Domain()": "84b0196e",
    "forVotesToProposalIds(uint256,uint256)": "711effc8",
    "getAllAddressesThatHaveVoted()": "2c39805f",
    "getAllDeletedProposalIds()": "1242b737",
    "getAllProposalAuthors()": "946369b5",
    "getAllProposalIds()": "efa90d36",
    "getNumProposalsWithThisManyForVotes(uint256)": "9ba197af",
    "getNumSubmissions(address)": "5f953a03",
    "getOnlyProposalIdWithThisManyForVotes(uint256)": "b66d1da3",
    "getProposal(uint256)": "c7f758a8",
    "getRankIndex(uint256)": "5c7107d8",
    "getSortedRanks()": "6fd3636b",
    "hashProposal((address,bool,string,(address),(address[],uint256)))": "458da87d",
    "isOrIsBelowTiedRank(uint256)": "9174778c",
    "isProposalDeleted(uint256)": "3b6d199b",
    "maxProposalCount()": "fb9bf8d4",
    "name()": "06fdde03",
    "numAllowedProposalSubmissions()": "832009af",
    "numSubmissions(address)": "75e509c5",
    "officialRewardsModule()": "785ddfe5",
    "percentageToCreator()": "edcd1be4",
    "prompt()": "7c65d711",
    "proposalAddressVotes(uint256,address)": "6e4eb810",
    "proposalAddressesHaveVoted(uint256)": "b323580d",
    "proposalAuthors(uint256)": "0aa25e44",
    "proposalIds(uint256)": "9b644a23",
    "proposalIsDeleted(uint256)": "f79c0172",
    "proposalVotes(uint256)": "544ffc9c",
    "proposalVotesStructs(uint256)": "070dc5d9",
    "proposals(uint256)": "013cf08b",
    "propose((address,bool,string,(address),(address[],uint256)),bytes32[])": "c0ffaa78",
    "proposeWithoutProof((address,bool,string,(address),(address[],uint256)))": "476f4d8a",
    "rankLimit()": "0414126a",
    "setOfficialRewardsModule(address)": "f4f3d7ec",
    "sortedRanks(uint256)": "325cc6d9",
    "sortingEnabled()": "366ecf5b",
    "state()": "c19d93fb",
    "submissionMerkleRoot()": "bddc1641",
    "supportsInterface(bytes4)": "01ffc9a7",
    "totalVotesCast()": "7de418d5",
    "validateProposalData((address,bool,string,(address),(address[],uint256)))": "fb8ddab4",
    "verifyProposer(address,bytes32[])": "20b3e845",
    "verifyVoter(address,uint256,bytes32[])": "531bd812",
    "version()": "54fd4d50",
    "voteStart()": "e031535b",
    "votingDelay()": "3932abb1",
    "votingMerkleRoot()": "dd96a19d",
    "votingPeriod()": "02a251a3"
  },
  "id": 40
}