{
  "abi": [
    {
      "inputs": [
        {
          "internalType": "string",
          "name": "_name",
          "type": "string"
        },
        {
          "internalType": "string",
          "name": "_prompt",
          "type": "string"
        },
        {
          "internalType": "bytes32",
          "name": "_submissionMerkleRoot",
          "type": "bytes32"
        },
        {
          "internalType": "bytes32",
          "name": "_votingMerkleRoot",
          "type": "bytes32"
        },
        {
          "internalType": "uint256[]",
          "name": "_constructorIntParams",
          "type": "uint256[]"
        }
      ],
      "stateMutability": "nonpayable",
      "type": "constructor"
    },
    {
      "inputs": [],
      "name": "InvalidShortString",
      "type": "error"
    },
    {
      "inputs": [],
      "name": "NotInMerkle",
      "type": "error"
    },
    {
      "inputs": [
        {
          "internalType": "string",
          "name": "str",
          "type": "string"
        }
      ],
      "name": "StringTooLong",
      "type": "error"
    },
    {
      "inputs": [],
      "name": "TooManyMetadatas",
      "type": "error"
    },
    {
      "anonymous": false,
      "inputs": [],
      "name": "ContestCanceled",
      "type": "event"
    },
    {
      "anonymous": false,
      "inputs": [
        {
          "indexed": false,
          "internalType": "uint256",
          "name": "oldContestStart",
          "type": "uint256"
        },
        {
          "indexed": false,
          "internalType": "uint256",
          "name": "newContestStart",
          "type": "uint256"
        }
      ],
      "name": "ContestStartSet",
      "type": "event"
    },
    {
      "anonymous": false,
      "inputs": [
        {
          "indexed": false,
          "internalType": "address",
          "name": "oldCreator",
          "type": "address"
        },
        {
          "indexed": false,
          "internalType": "address",
          "name": "newCreator",
          "type": "address"
        }
      ],
      "name": "CreatorSet",
      "type": "event"
    },
    {
      "anonymous": false,
      "inputs": [
        {
          "indexed": false,
          "internalType": "uint256",
          "name": "oldDownvotingAllowed",
          "type": "uint256"
        },
        {
          "indexed": false,
          "internalType": "uint256",
          "name": "newDownvotingAllowed",
          "type": "uint256"
        }
      ],
      "name": "DownvotingAllowedSet",
      "type": "event"
    },
    {
      "anonymous": false,
      "inputs": [],
      "name": "EIP712DomainChanged",
      "type": "event"
    },
    {
      "anonymous": false,
      "inputs": [
        {
          "indexed": false,
          "internalType": "uint256",
          "name": "oldMaxProposalCount",
          "type": "uint256"
        },
        {
          "indexed": false,
          "internalType": "uint256",
          "name": "newMaxProposalCount",
          "type": "uint256"
        }
      ],
      "name": "MaxProposalCountSet",
      "type": "event"
    },
    {
      "anonymous": false,
      "inputs": [
        {
          "indexed": false,
          "internalType": "uint256",
          "name": "oldNumAllowedProposalSubmissions",
          "type": "uint256"
        },
        {
          "indexed": false,
          "internalType": "uint256",
          "name": "newNumAllowedProposalSubmissions",
          "type": "uint256"
        }
      ],
      "name": "NumAllowedProposalSubmissionsSet",
      "type": "event"
    },
    {
      "anonymous": false,
      "inputs": [
        {
          "indexed": false,
          "internalType": "contract RewardsModule",
          "name": "oldOfficialRewardsModule",
          "type": "address"
        },
        {
          "indexed": false,
          "internalType": "contract RewardsModule",
          "name": "newOfficialRewardsModule",
          "type": "address"
        }
      ],
      "name": "OfficialRewardsModuleSet",
      "type": "event"
    },
    {
      "anonymous": false,
      "inputs": [
        {
          "indexed": false,
          "internalType": "uint256",
          "name": "proposalId",
          "type": "uint256"
        },
        {
          "indexed": false,
          "internalType": "address",
          "name": "proposer",
          "type": "address"
        }
      ],
      "name": "ProposalCreated",
      "type": "event"
    },
    {
      "anonymous": false,
      "inputs": [
        {
          "indexed": false,
          "internalType": "uint256[]",
          "name": "proposalIds",
          "type": "uint256[]"
        }
      ],
      "name": "ProposalsDeleted",
      "type": "event"
    },
    {
      "anonymous": false,
      "inputs": [
        {
          "indexed": true,
          "internalType": "address",
          "name": "voter",
          "type": "address"
        },
        {
          "indexed": false,
          "internalType": "uint256",
          "name": "proposalId",
          "type": "uint256"
        },
        {
          "indexed": false,
          "internalType": "uint8",
          "name": "support",
          "type": "uint8"
        },
        {
          "indexed": false,
          "internalType": "uint256",
          "name": "numVotes",
          "type": "uint256"
        },
        {
          "indexed": false,
          "internalType": "string",
          "name": "reason",
          "type": "string"
        }
      ],
      "name": "VoteCast",
      "type": "event"
    },
    {
      "anonymous": false,
      "inputs": [
        {
          "indexed": false,
          "internalType": "uint256",
          "name": "oldVotingDelay",
          "type": "uint256"
        },
        {
          "indexed": false,
          "internalType": "uint256",
          "name": "newVotingDelay",
          "type": "uint256"
        }
      ],
      "name": "VotingDelaySet",
      "type": "event"
    },
    {
      "anonymous": false,
      "inputs": [
        {
          "indexed": false,
          "internalType": "uint256",
          "name": "oldVotingPeriod",
          "type": "uint256"
        },
        {
          "indexed": false,
          "internalType": "uint256",
          "name": "newVotingPeriod",
          "type": "uint256"
        }
      ],
      "name": "VotingPeriodSet",
      "type": "event"
    },
    {
      "inputs": [],
      "name": "AMOUNT_FOR_SUMBITTER_PROOF",
      "outputs": [
        {
          "internalType": "uint64",
          "name": "",
          "type": "uint64"
        }
      ],
      "stateMutability": "view",
      "type": "function"
    },
    {
      "inputs": [],
      "name": "BALLOT_TYPEHASH",
      "outputs": [
        {
          "internalType": "bytes32",
          "name": "",
          "type": "bytes32"
        }
      ],
      "stateMutability": "view",
      "type": "function"
    },
    {
      "inputs": [],
      "name": "COUNTING_MODE",
      "outputs": [
        {
          "internalType": "string",
          "name": "",
          "type": "string"
        }
      ],
      "stateMutability": "pure",
      "type": "function"
    },
    {
      "inputs": [],
      "name": "METADATAS_COUNT",
      "outputs": [
        {
          "internalType": "uint8",
          "name": "",
          "type": "uint8"
        }
      ],
      "stateMutability": "view",
      "type": "function"
    },
    {
      "inputs": [
        {
          "internalType": "address",
          "name": "",
          "type": "address"
        }
      ],
      "name": "addressSubmitterVerified",
      "outputs": [
        {
          "internalType": "bool",
          "name": "",
          "type": "bool"
        }
      ],
      "stateMutability": "view",
      "type": "function"
    },
    {
      "inputs": [
        {
          "internalType": "address",
          "name": "",
          "type": "address"
        }
      ],
      "name": "addressTotalCastVoteCounts",
      "outputs": [
        {
          "internalType": "uint256",
          "name": "",
          "type": "uint256"
        }
      ],
      "stateMutability": "view",
      "type": "function"
    },
    {
      "inputs": [
        {
          "internalType": "address",
          "name": "",
          "type": "address"
        }
      ],
      "name": "addressTotalVotes",
      "outputs": [
        {
          "internalType": "uint256",
          "name": "",
          "type": "uint256"
        }
      ],
      "stateMutability": "view",
      "type": "function"
    },
    {
      "inputs": [
        {
          "internalType": "address",
          "name": "",
          "type": "address"
        }
      ],
      "name": "addressTotalVotesVerified",
      "outputs": [
        {
          "internalType": "bool",
          "name": "",
          "type": "bool"
        }
      ],
      "stateMutability": "view",
      "type": "function"
    },
    {
      "inputs": [],
      "name": "allProposalTotalVotes",
      "outputs": [
        {
          "internalType": "uint256[]",
          "name": "proposalIdsReturn",
          "type": "uint256[]"
        },
        {
          "components": [
            {
              "internalType": "uint256",
              "name": "forVotes",
              "type": "uint256"
            },
            {
              "internalType": "uint256",
              "name": "againstVotes",
              "type": "uint256"
            }
          ],
          "internalType": "struct GovernorCountingSimple.VoteCounts[]",
          "name": "proposalVoteCountsArrayReturn",
          "type": "tuple[]"
        }
      ],
      "stateMutability": "view",
      "type": "function"
    },
    {
      "inputs": [],
      "name": "allProposalTotalVotesWithoutDeleted",
      "outputs": [
        {
          "internalType": "uint256[]",
          "name": "proposalIdsReturn",
          "type": "uint256[]"
        },
        {
          "components": [
            {
              "internalType": "uint256",
              "name": "forVotes",
              "type": "uint256"
            },
            {
              "internalType": "uint256",
              "name": "againstVotes",
              "type": "uint256"
            }
          ],
          "internalType": "struct GovernorCountingSimple.VoteCounts[]",
          "name": "proposalVoteCountsArrayReturn",
          "type": "tuple[]"
        }
      ],
      "stateMutability": "view",
      "type": "function"
    },
    {
      "inputs": [],
      "name": "cancel",
      "outputs": [],
      "stateMutability": "nonpayable",
      "type": "function"
    },
    {
      "inputs": [
        {
          "internalType": "uint256",
          "name": "proposalId",
          "type": "uint256"
        },
        {
          "internalType": "uint8",
          "name": "support",
          "type": "uint8"
        },
        {
          "internalType": "uint256",
          "name": "totalVotes",
          "type": "uint256"
        },
        {
          "internalType": "uint256",
          "name": "numVotes",
          "type": "uint256"
        },
        {
          "internalType": "bytes32[]",
          "name": "proof",
          "type": "bytes32[]"
        }
      ],
      "name": "castVote",
      "outputs": [
        {
          "internalType": "uint256",
          "name": "",
          "type": "uint256"
        }
      ],
      "stateMutability": "nonpayable",
      "type": "function"
    },
    {
      "inputs": [
        {
          "internalType": "uint256",
          "name": "proposalId",
          "type": "uint256"
        },
        {
          "internalType": "uint8",
          "name": "support",
          "type": "uint8"
        },
        {
          "internalType": "uint256",
          "name": "numVotes",
          "type": "uint256"
        }
      ],
      "name": "castVoteWithoutProof",
      "outputs": [
        {
          "internalType": "uint256",
          "name": "",
          "type": "uint256"
        }
      ],
      "stateMutability": "nonpayable",
      "type": "function"
    },
    {
      "inputs": [
        {
          "internalType": "address",
          "name": "addressToCheck",
          "type": "address"
        },
        {
          "internalType": "uint256",
          "name": "amount",
          "type": "uint256"
        },
        {
          "internalType": "bytes32[]",
          "name": "proof",
          "type": "bytes32[]"
        },
        {
          "internalType": "bool",
          "name": "voting",
          "type": "bool"
        }
      ],
      "name": "checkProof",
      "outputs": [
        {
          "internalType": "bool",
          "name": "verified",
          "type": "bool"
        }
      ],
      "stateMutability": "view",
      "type": "function"
    },
    {
      "inputs": [
        {
          "internalType": "address",
          "name": "userAddress",
          "type": "address"
        }
      ],
      "name": "contestAddressTotalVotesCast",
      "outputs": [
        {
          "internalType": "uint256",
          "name": "totalVotesCast",
          "type": "uint256"
        }
      ],
      "stateMutability": "view",
      "type": "function"
    },
    {
      "inputs": [],
      "name": "contestDeadline",
      "outputs": [
        {
          "internalType": "uint256",
          "name": "",
          "type": "uint256"
        }
      ],
      "stateMutability": "view",
      "type": "function"
    },
    {
      "inputs": [],
      "name": "contestStart",
      "outputs": [
        {
          "internalType": "uint256",
          "name": "",
          "type": "uint256"
        }
      ],
      "stateMutability": "view",
      "type": "function"
    },
    {
      "inputs": [],
      "name": "creator",
      "outputs": [
        {
          "internalType": "address",
          "name": "",
          "type": "address"
        }
      ],
      "stateMutability": "view",
      "type": "function"
    },
    {
      "inputs": [
        {
          "internalType": "uint256[]",
          "name": "proposalIds",
          "type": "uint256[]"
        }
      ],
      "name": "deleteProposals",
      "outputs": [],
      "stateMutability": "nonpayable",
      "type": "function"
    },
    {
      "inputs": [],
      "name": "downvotingAllowed",
      "outputs": [
        {
          "internalType": "uint256",
          "name": "",
          "type": "uint256"
        }
      ],
      "stateMutability": "view",
      "type": "function"
    },
    {
      "inputs": [],
      "name": "eip712Domain",
      "outputs": [
        {
          "internalType": "bytes1",
          "name": "fields",
          "type": "bytes1"
        },
        {
          "internalType": "string",
          "name": "name",
          "type": "string"
        },
        {
          "internalType": "string",
          "name": "version",
          "type": "string"
        },
        {
          "internalType": "uint256",
          "name": "chainId",
          "type": "uint256"
        },
        {
          "internalType": "address",
          "name": "verifyingContract",
          "type": "address"
        },
        {
          "internalType": "bytes32",
          "name": "salt",
          "type": "bytes32"
        },
        {
          "internalType": "uint256[]",
          "name": "extensions",
          "type": "uint256[]"
        }
      ],
      "stateMutability": "view",
      "type": "function"
    },
    {
      "inputs": [],
      "name": "getAllProposalIds",
      "outputs": [
        {
          "internalType": "uint256[]",
          "name": "",
          "type": "uint256[]"
        }
      ],
      "stateMutability": "view",
      "type": "function"
    },
    {
      "inputs": [
        {
          "internalType": "address",
          "name": "account",
          "type": "address"
        }
      ],
      "name": "getNumSubmissions",
      "outputs": [
        {
          "internalType": "uint256",
          "name": "",
          "type": "uint256"
        }
      ],
      "stateMutability": "view",
      "type": "function"
    },
    {
      "inputs": [
        {
          "internalType": "uint256",
          "name": "proposalId",
          "type": "uint256"
        }
      ],
      "name": "getProposal",
      "outputs": [
        {
          "components": [
            {
              "internalType": "address",
              "name": "author",
              "type": "address"
            },
            {
              "internalType": "string",
              "name": "description",
              "type": "string"
            },
            {
              "internalType": "bool",
              "name": "exists",
              "type": "bool"
            },
            {
              "components": [
                {
                  "internalType": "address",
                  "name": "targetAddress",
                  "type": "address"
                }
              ],
              "internalType": "struct IGovernor.TargetMetadata",
              "name": "targetMetadata",
              "type": "tuple"
            },
            {
              "components": [
                {
                  "internalType": "address[]",
                  "name": "signers",
                  "type": "address[]"
                },
                {
                  "internalType": "uint256",
                  "name": "threshold",
                  "type": "uint256"
                }
              ],
              "internalType": "struct IGovernor.SafeMetadata",
              "name": "safeMetadata",
              "type": "tuple"
            }
          ],
          "internalType": "struct IGovernor.ProposalCore",
          "name": "",
          "type": "tuple"
        }
      ],
      "stateMutability": "view",
      "type": "function"
    },
    {
      "inputs": [
        {
          "components": [
            {
              "internalType": "address",
              "name": "author",
              "type": "address"
            },
            {
              "internalType": "string",
              "name": "description",
              "type": "string"
            },
            {
              "internalType": "bool",
              "name": "exists",
              "type": "bool"
            },
            {
              "components": [
                {
                  "internalType": "address",
                  "name": "targetAddress",
                  "type": "address"
                }
              ],
              "internalType": "struct IGovernor.TargetMetadata",
              "name": "targetMetadata",
              "type": "tuple"
            },
            {
              "components": [
                {
                  "internalType": "address[]",
                  "name": "signers",
                  "type": "address[]"
                },
                {
                  "internalType": "uint256",
                  "name": "threshold",
                  "type": "uint256"
                }
              ],
              "internalType": "struct IGovernor.SafeMetadata",
              "name": "safeMetadata",
              "type": "tuple"
            }
          ],
          "internalType": "struct IGovernor.ProposalCore",
          "name": "proposal",
          "type": "tuple"
        }
      ],
      "name": "hashProposal",
      "outputs": [
        {
          "internalType": "uint256",
          "name": "",
          "type": "uint256"
        }
      ],
      "stateMutability": "pure",
      "type": "function"
    },
    {
      "inputs": [],
      "name": "highestTiedRanking",
      "outputs": [
        {
          "internalType": "uint256",
          "name": "",
          "type": "uint256"
        }
      ],
      "stateMutability": "view",
      "type": "function"
    },
    {
      "inputs": [
        {
          "internalType": "uint256",
          "name": "proposalId",
          "type": "uint256"
        }
      ],
      "name": "isProposalDeleted",
      "outputs": [
        {
          "internalType": "uint256",
          "name": "",
          "type": "uint256"
        }
      ],
      "stateMutability": "view",
      "type": "function"
    },
    {
      "inputs": [
        {
          "internalType": "uint256",
          "name": "ranking",
          "type": "uint256"
        }
      ],
      "name": "isTied",
      "outputs": [
        {
          "internalType": "bool",
          "name": "",
          "type": "bool"
        }
      ],
      "stateMutability": "view",
      "type": "function"
    },
    {
      "inputs": [],
      "name": "lowestRanking",
      "outputs": [
        {
          "internalType": "uint256",
          "name": "",
          "type": "uint256"
        }
      ],
      "stateMutability": "view",
      "type": "function"
    },
    {
      "inputs": [],
      "name": "maxProposalCount",
      "outputs": [
        {
          "internalType": "uint256",
          "name": "",
          "type": "uint256"
        }
      ],
      "stateMutability": "view",
      "type": "function"
    },
    {
      "inputs": [],
      "name": "name",
      "outputs": [
        {
          "internalType": "string",
          "name": "",
          "type": "string"
        }
      ],
      "stateMutability": "view",
      "type": "function"
    },
    {
      "inputs": [],
      "name": "numAllowedProposalSubmissions",
      "outputs": [
        {
          "internalType": "uint256",
          "name": "",
          "type": "uint256"
        }
      ],
      "stateMutability": "view",
      "type": "function"
    },
    {
      "inputs": [],
      "name": "officialRewardsModule",
      "outputs": [
        {
          "internalType": "contract RewardsModule",
          "name": "",
          "type": "address"
        }
      ],
      "stateMutability": "view",
      "type": "function"
    },
    {
      "inputs": [],
      "name": "prompt",
      "outputs": [
        {
          "internalType": "string",
          "name": "",
          "type": "string"
        }
      ],
      "stateMutability": "view",
      "type": "function"
    },
    {
      "inputs": [
        {
          "internalType": "uint256",
          "name": "proposalId",
          "type": "uint256"
        },
        {
          "internalType": "address",
          "name": "userAddress",
          "type": "address"
        }
      ],
      "name": "proposalAddressVotes",
      "outputs": [
        {
          "internalType": "uint256",
          "name": "forVotes",
          "type": "uint256"
        },
        {
          "internalType": "uint256",
          "name": "againstVotes",
          "type": "uint256"
        }
      ],
      "stateMutability": "view",
      "type": "function"
    },
    {
      "inputs": [
        {
          "internalType": "uint256",
          "name": "proposalId",
          "type": "uint256"
        }
      ],
      "name": "proposalAddressesHaveVoted",
      "outputs": [
        {
          "internalType": "address[]",
          "name": "",
          "type": "address[]"
        }
      ],
      "stateMutability": "view",
      "type": "function"
    },
    {
      "inputs": [
        {
          "internalType": "uint256",
          "name": "proposalId",
          "type": "uint256"
        }
      ],
      "name": "proposalVotes",
      "outputs": [
        {
          "internalType": "uint256",
          "name": "forVotes",
          "type": "uint256"
        },
        {
          "internalType": "uint256",
          "name": "againstVotes",
          "type": "uint256"
        }
      ],
      "stateMutability": "view",
      "type": "function"
    },
    {
      "inputs": [
        {
          "internalType": "uint256",
          "name": "",
          "type": "uint256"
        }
      ],
      "name": "proposalVotesStructs",
      "outputs": [
        {
          "components": [
            {
              "internalType": "uint256",
              "name": "forVotes",
              "type": "uint256"
            },
            {
              "internalType": "uint256",
              "name": "againstVotes",
              "type": "uint256"
            }
          ],
          "internalType": "struct GovernorCountingSimple.VoteCounts",
          "name": "proposalVoteCounts",
          "type": "tuple"
        }
      ],
      "stateMutability": "view",
      "type": "function"
    },
    {
      "inputs": [
        {
          "components": [
            {
              "internalType": "address",
              "name": "author",
              "type": "address"
            },
            {
              "internalType": "string",
              "name": "description",
              "type": "string"
            },
            {
              "internalType": "bool",
              "name": "exists",
              "type": "bool"
            },
            {
              "components": [
                {
                  "internalType": "address",
                  "name": "targetAddress",
                  "type": "address"
                }
              ],
              "internalType": "struct IGovernor.TargetMetadata",
              "name": "targetMetadata",
              "type": "tuple"
            },
            {
              "components": [
                {
                  "internalType": "address[]",
                  "name": "signers",
                  "type": "address[]"
                },
                {
                  "internalType": "uint256",
                  "name": "threshold",
                  "type": "uint256"
                }
              ],
              "internalType": "struct IGovernor.SafeMetadata",
              "name": "safeMetadata",
              "type": "tuple"
            }
          ],
          "internalType": "struct IGovernor.ProposalCore",
          "name": "proposal",
          "type": "tuple"
        },
        {
          "internalType": "bytes32[]",
          "name": "proof",
          "type": "bytes32[]"
        }
      ],
      "name": "propose",
      "outputs": [
        {
          "internalType": "uint256",
          "name": "",
          "type": "uint256"
        }
      ],
      "stateMutability": "nonpayable",
      "type": "function"
    },
    {
      "inputs": [
        {
          "components": [
            {
              "internalType": "address",
              "name": "author",
              "type": "address"
            },
            {
              "internalType": "string",
              "name": "description",
              "type": "string"
            },
            {
              "internalType": "bool",
              "name": "exists",
              "type": "bool"
            },
            {
              "components": [
                {
                  "internalType": "address",
                  "name": "targetAddress",
                  "type": "address"
                }
              ],
              "internalType": "struct IGovernor.TargetMetadata",
              "name": "targetMetadata",
              "type": "tuple"
            },
            {
              "components": [
                {
                  "internalType": "address[]",
                  "name": "signers",
                  "type": "address[]"
                },
                {
                  "internalType": "uint256",
                  "name": "threshold",
                  "type": "uint256"
                }
              ],
              "internalType": "struct IGovernor.SafeMetadata",
              "name": "safeMetadata",
              "type": "tuple"
            }
          ],
          "internalType": "struct IGovernor.ProposalCore",
          "name": "proposal",
          "type": "tuple"
        }
      ],
      "name": "proposeWithoutProof",
      "outputs": [
        {
          "internalType": "uint256",
          "name": "",
          "type": "uint256"
        }
      ],
      "stateMutability": "nonpayable",
      "type": "function"
    },
    {
      "inputs": [
        {
          "internalType": "uint256",
          "name": "ranking",
          "type": "uint256"
        }
      ],
      "name": "rankingPosition",
      "outputs": [
        {
          "internalType": "uint256",
          "name": "",
          "type": "uint256"
        }
      ],
      "stateMutability": "view",
      "type": "function"
    },
    {
      "inputs": [
        {
          "internalType": "contract RewardsModule",
          "name": "officialRewardsModule_",
          "type": "address"
        }
      ],
      "name": "setOfficialRewardsModule",
      "outputs": [],
      "stateMutability": "nonpayable",
      "type": "function"
    },
    {
      "inputs": [],
      "name": "setSortedAndTiedProposals",
      "outputs": [],
      "stateMutability": "nonpayable",
      "type": "function"
    },
    {
      "inputs": [],
      "name": "setSortedAndTiedProposalsHasBeenRun",
      "outputs": [
        {
          "internalType": "bool",
          "name": "",
          "type": "bool"
        }
      ],
      "stateMutability": "view",
      "type": "function"
    },
    {
      "inputs": [],
      "name": "sortedProposalIds",
      "outputs": [
        {
          "internalType": "uint256[]",
          "name": "",
          "type": "uint256[]"
        }
      ],
      "stateMutability": "view",
      "type": "function"
    },
    {
      "inputs": [
        {
          "internalType": "bool",
          "name": "excludeDeletedProposals",
          "type": "bool"
        }
      ],
      "name": "sortedProposals",
      "outputs": [
        {
          "internalType": "uint256[]",
          "name": "sortedProposalIdsReturn",
          "type": "uint256[]"
        }
      ],
      "stateMutability": "view",
      "type": "function"
    },
    {
      "inputs": [],
      "name": "state",
      "outputs": [
        {
          "internalType": "enum IGovernor.ContestState",
          "name": "",
          "type": "uint8"
        }
      ],
      "stateMutability": "view",
      "type": "function"
    },
    {
      "inputs": [],
      "name": "submissionMerkleRoot",
      "outputs": [
        {
          "internalType": "bytes32",
          "name": "",
          "type": "bytes32"
        }
      ],
      "stateMutability": "view",
      "type": "function"
    },
    {
      "inputs": [
        {
          "internalType": "bytes4",
          "name": "interfaceId",
          "type": "bytes4"
        }
      ],
      "name": "supportsInterface",
      "outputs": [
        {
          "internalType": "bool",
          "name": "",
          "type": "bool"
        }
      ],
      "stateMutability": "view",
      "type": "function"
    },
    {
      "inputs": [
        {
          "internalType": "uint256",
          "name": "",
          "type": "uint256"
        }
      ],
      "name": "tiedAdjustedRankingPosition",
      "outputs": [
        {
          "internalType": "uint256",
          "name": "",
          "type": "uint256"
        }
      ],
      "stateMutability": "view",
      "type": "function"
    },
    {
      "inputs": [
        {
          "components": [
            {
              "internalType": "address",
              "name": "author",
              "type": "address"
            },
            {
              "internalType": "string",
              "name": "description",
              "type": "string"
            },
            {
              "internalType": "bool",
              "name": "exists",
              "type": "bool"
            },
            {
              "components": [
                {
                  "internalType": "address",
                  "name": "targetAddress",
                  "type": "address"
                }
              ],
              "internalType": "struct IGovernor.TargetMetadata",
              "name": "targetMetadata",
              "type": "tuple"
            },
            {
              "components": [
                {
                  "internalType": "address[]",
                  "name": "signers",
                  "type": "address[]"
                },
                {
                  "internalType": "uint256",
                  "name": "threshold",
                  "type": "uint256"
                }
              ],
              "internalType": "struct IGovernor.SafeMetadata",
              "name": "safeMetadata",
              "type": "tuple"
            }
          ],
          "internalType": "struct IGovernor.ProposalCore",
          "name": "proposal",
          "type": "tuple"
        }
      ],
      "name": "validateProposalData",
      "outputs": [
        {
          "internalType": "bool",
          "name": "dataValidated",
          "type": "bool"
        }
      ],
      "stateMutability": "nonpayable",
      "type": "function"
    },
    {
      "inputs": [
        {
          "internalType": "address",
          "name": "account",
          "type": "address"
        },
        {
          "internalType": "bytes32[]",
          "name": "proof",
          "type": "bytes32[]"
        }
      ],
      "name": "verifyProposer",
      "outputs": [
        {
          "internalType": "bool",
          "name": "verified",
          "type": "bool"
        }
      ],
      "stateMutability": "nonpayable",
      "type": "function"
    },
    {
      "inputs": [
        {
          "internalType": "address",
          "name": "account",
          "type": "address"
        },
        {
          "internalType": "uint256",
          "name": "totalVotes",
          "type": "uint256"
        },
        {
          "internalType": "bytes32[]",
          "name": "proof",
          "type": "bytes32[]"
        }
      ],
      "name": "verifyVoter",
      "outputs": [
        {
          "internalType": "bool",
          "name": "verified",
          "type": "bool"
        }
      ],
      "stateMutability": "nonpayable",
      "type": "function"
    },
    {
      "inputs": [],
      "name": "version",
      "outputs": [
        {
          "internalType": "string",
          "name": "",
          "type": "string"
        }
      ],
      "stateMutability": "view",
      "type": "function"
    },
    {
      "inputs": [],
      "name": "voteStart",
      "outputs": [
        {
          "internalType": "uint256",
          "name": "",
          "type": "uint256"
        }
      ],
      "stateMutability": "view",
      "type": "function"
    },
    {
      "inputs": [],
      "name": "votingDelay",
      "outputs": [
        {
          "internalType": "uint256",
          "name": "",
          "type": "uint256"
        }
      ],
      "stateMutability": "view",
      "type": "function"
    },
    {
      "inputs": [],
      "name": "votingMerkleRoot",
      "outputs": [
        {
          "internalType": "bytes32",
          "name": "",
          "type": "bytes32"
        }
      ],
      "stateMutability": "view",
      "type": "function"
    },
    {
      "inputs": [],
      "name": "votingPeriod",
      "outputs": [
        {
          "internalType": "uint256",
          "name": "",
          "type": "uint256"
        }
      ],
      "stateMutability": "view",
      "type": "function"
    },
    {
      "stateMutability": "payable",
      "type": "receive"
    }
  ],
  "bytecode": {
    "object": "0x6101a06040526015805460ff191690553480156200001c57600080fd5b50604051620045ab380380620045ab8339810160408190526200003f9162000622565b8060008151811062000055576200005562000733565b60200260200101518160018151811062000073576200007362000733565b60200260200101518260028151811062000091576200009162000733565b602002602001015183600381518110620000af57620000af62000733565b602002602001015184600481518110620000cd57620000cd62000733565b602002602001015185600581518110620000eb57620000eb62000733565b60200260200101518a8a8a8a8181856200010a6200025160201b60201c565b620001178260006200026e565b60e052620001278160016200026e565b61010052815160208084019190912061012052815190820120610140524660a052620001b76101205161014051604080517f8b73c3c69bb8fe3d512ecc4cf759cc79239f7b179b0ffacaa9a75d522b39400f60208201529081019290925260608201524660808201523060a082015260009060c00160405160208183030381529060405280519060200120905090565b60805250503060c05261016091909152610180526007620001d98582620007d8565b506008620001e88482620007d8565b5050505050620001fe86620002a760201b60201c565b6200020985620002e8565b620002148462000329565b6200021f83620003d0565b6200022a8262000411565b620002358162000452565b620002403362000493565b5050505050505050505050620008fe565b604080518082019091526003815262332e3160e81b602082015290565b60006020835110156200028e576200028683620004fc565b9050620002a1565b816200029b8482620007d8565b5060ff90505b92915050565b600c5460408051918252602082018390527fd299feb1d7d9345a48559601c471c3be7eea9a11f21d5e86809198f40a974db4910160405180910390a1600c55565b600d5460408051918252602082018390527fc565b045403dc03c2eea82b81a0465edad9e2e7fc4d97e11421c209da93d7a93910160405180910390a1600d55565b600081116200038f5760405162461bcd60e51b815260206004820152602760248201527f476f7665726e6f7253657474696e67733a20766f74696e6720706572696f6420604482015266746f6f206c6f7760c81b60648201526084015b60405180910390fd5b600e5460408051918252602082018390527f7e3f7f0708a84de9203036abaa450dccc85ad5ff52f78c170f3edb55cf5e8828910160405180910390a1600e55565b600f5460408051918252602082018390527fe971b819c7fb95c72451f557226aceb5baaf4994a9d39a79bbfa0040e87500b9910160405180910390a1600f55565b60105460408051918252602082018390527f4984ec996723330ee95979ed65a2a4b41edd914e68a187efe92596474643bdff910160405180910390a1601055565b60115460408051918252602082018390527f9c7b27f091caef3a83be73d89320404fa0c4a52993685ff0651672e49e6e55ab910160405180910390a1601155565b601254604080516001600160a01b03928316815291831660208301527fc30034fc2e9697980e08935bbc287db3eaa44a4aa113ef4c108b356adbf911ce910160405180910390a1601280546001600160a01b0319166001600160a01b0392909216919091179055565b600080829050601f815111156200052a578260405163305a27a960e01b8152600401620003869190620008a4565b80516200053782620008d9565b179392505050565b634e487b7160e01b600052604160045260246000fd5b604051601f8201601f191681016001600160401b03811182821017156200058057620005806200053f565b604052919050565b60005b83811015620005a55781810151838201526020016200058b565b50506000910152565b600082601f830112620005c057600080fd5b81516001600160401b03811115620005dc57620005dc6200053f565b620005f1601f8201601f191660200162000555565b8181528460208386010111156200060757600080fd5b6200061a82602083016020870162000588565b949350505050565b600080600080600060a086880312156200063b57600080fd5b85516001600160401b03808211156200065357600080fd5b6200066189838a01620005ae565b96506020915081880151818111156200067957600080fd5b620006878a828b01620005ae565b9650506040880151945060608801519350608088015181811115620006ab57600080fd5b8801601f81018a13620006bd57600080fd5b805182811115620006d257620006d26200053f565b8060051b9250620006e584840162000555565b818152928201840192848101908c8511156200070057600080fd5b928501925b84841015620007205783518252928501929085019062000705565b8096505050505050509295509295909350565b634e487b7160e01b600052603260045260246000fd5b600181811c908216806200075e57607f821691505b6020821081036200077f57634e487b7160e01b600052602260045260246000fd5b50919050565b601f821115620007d357600081815260208120601f850160051c81016020861015620007ae5750805b601f850160051c820191505b81811015620007cf57828155600101620007ba565b5050505b505050565b81516001600160401b03811115620007f457620007f46200053f565b6200080c8162000805845462000749565b8462000785565b602080601f8311600181146200084457600084156200082b5750858301515b600019600386901b1c1916600185901b178555620007cf565b600085815260208120601f198616915b82811015620008755788860151825594840194600190910190840162000854565b5085821015620008945787850151600019600388901b60f8161c191681555b5050505050600190811b01905550565b6020815260008251806020840152620008c581604085016020870162000588565b601f01601f19169190910160400192915050565b805160208083015191908110156200077f5760001960209190910360031b1b16919050565b60805160a05160c05160e0516101005161012051610140516101605161018051613c3d6200096e60003960008181610a8b0152610e860152600081816109230152610e21015260005050600050506000611612015260006115e80152600050506000505060005050613c3d6000f3fe6080604052600436106103845760003560e01c8063832009af116101d1578063cf6afbae11610102578063e031535b116100a0578063efa90d361161006f578063efa90d3614610b7a578063f0a7db0a14610b8f578063f4f3d7ec14610baf578063fb9bf8d414610bcf57600080fd5b8063e031535b14610b0e578063e5eb5a4814610b23578063ea8a1af014610b50578063ebc18b9b14610b6557600080fd5b8063dd4e2ba5116100dc578063dd4e2ba514610a33578063dd96a19d14610a79578063dea5f6a614610aad578063deaaa7cc14610ada57600080fd5b8063cf6afbae146109e4578063d45a010b14610a04578063d889161914610a1957600080fd5b8063aec116b61161016f578063bfe45b5911610149578063bfe45b5914610945578063c19d93fb14610965578063c7f758a814610987578063cb853950146109b457600080fd5b8063aec116b6146108ae578063b323580d146108e4578063bddc16411461091157600080fd5b80638a9cd550116101ab5780638a9cd55014610827578063930de9791461083c57806396f0e9621461086c578063a1ac6cb21461088157600080fd5b8063832009af146107ca57806384b0196e146107df578063861874881461080757600080fd5b8063427d56c2116102b65780635f953a03116102545780636e4eb810116102235780636e4eb81014610757578063785ddfe5146107775780637c65d711146107955780637f57a0ba146107aa57600080fd5b80635f953a03146106d757806360506ff61461070d57806365f16263146107225780636ca1a2c71461074257600080fd5b806350a5e5241161029057806350a5e5241461061e578063531bd81214610641578063544ffc9c1461066157806354fd4d50146106ab57600080fd5b8063427d56c2146105aa5780634970ab2f146105d75780634d24a67f146105f757600080fd5b80632399c66011610323578063347cf665116102fd578063347cf665146105145780633932abb1146105485780633b6d199b1461055d578063419c533c1461058a57600080fd5b80632399c660146104bf578063262e59e9146104df57806332763c22146104f457600080fd5b806302d05d3f1161035f57806302d05d3f146103ff57806306fdde031461042c578063070dc5d91461044e57806320b3e8451461049f57600080fd5b80624114a81461039257806301ffc9a7146103ba57806302a251a3146103ea57600080fd5b3661038d57005b005b600080fd5b34801561039e57600080fd5b506103a7610be4565b6040519081526020015b60405180910390f35b3480156103c657600080fd5b506103da6103d5366004612fa2565b610bf4565b60405190151581526020016103b1565b3480156103f657600080fd5b506103a7610c2b565b34801561040b57600080fd5b50610414610c36565b6040516001600160a01b0390911681526020016103b1565b34801561043857600080fd5b50610441610c4a565b6040516103b19190613012565b34801561045a57600080fd5b50610492610469366004613025565b601460209081526000918252604091829020825180840190935280548352600101549082015281565b6040516103b1919061303e565b3480156104ab57600080fd5b506103da6104ba3660046130b1565b610cdc565b3480156104cb57600080fd5b506103da6104da366004613025565b610d42565b3480156104eb57600080fd5b506103a7610d86565b34801561050057600080fd5b506103da61050f36600461311a565b610da2565b34801561052057600080fd5b50610530678ac7230489e8000081565b6040516001600160401b0390911681526020016103b1565b34801561055457600080fd5b506103a7610edf565b34801561056957600080fd5b506103a7610578366004613025565b60009081526006602052604090205490565b34801561059657600080fd5b506103a76105a536600461319b565b610eea565b3480156105b657600080fd5b506105ca6105c536600461320b565b610f22565b6040516103b19190613261565b3480156105e357600080fd5b506103a76105f236600461351f565b61104e565b34801561060357600080fd5b5061060c600281565b60405160ff90911681526020016103b1565b34801561062a57600080fd5b50610633611090565b6040516103b1929190613553565b34801561064d57600080fd5b506103da61065c3660046135bc565b611196565b34801561066d57600080fd5b5061069661067c366004613025565b600090815260146020526040902080546001909101549091565b604080519283526020830191909152016103b1565b3480156106b757600080fd5b50604080518082019091526003815262332e3160e81b6020820152610441565b3480156106e357600080fd5b506103a76106f2366004613617565b6001600160a01b03166000908152600b602052604090205490565b34801561071957600080fd5b506103a7611201565b34801561072e57600080fd5b506103a761073d366004613634565b61120c565b34801561074e57600080fd5b506103a76112d4565b34801561076357600080fd5b50610696610772366004613669565b611300565b34801561078357600080fd5b50601b546001600160a01b0316610414565b3480156107a157600080fd5b50610441611335565b3480156107b657600080fd5b506103da6107c536600461351f565b611344565b3480156107d657600080fd5b506103a76115cf565b3480156107eb57600080fd5b506107f46115da565b6040516103b19796959493929190613699565b34801561081357600080fd5b506103a7610822366004613025565b611662565b34801561083357600080fd5b506105ca61169a565b34801561084857600080fd5b506103da610857366004613617565b60036020526000908152604090205460ff1681565b34801561087857600080fd5b5061038b611714565b34801561088d57600080fd5b506103a761089c366004613617565b60136020526000908152604090205481565b3480156108ba57600080fd5b506103a76108c9366004613617565b6001600160a01b031660009081526013602052604090205490565b3480156108f057600080fd5b506109046108ff366004613025565b611a28565b6040516103b19190613742565b34801561091d57600080fd5b506103a77f000000000000000000000000000000000000000000000000000000000000000081565b34801561095157600080fd5b506103a7610960366004613755565b611a9a565b34801561097157600080fd5b5061097a611ade565b6040516103b191906137c6565b34801561099357600080fd5b506109a76109a2366004613025565b611b50565b6040516103b191906137ee565b3480156109c057600080fd5b506103da6109cf366004613617565b60046020526000908152604090205460ff1681565b3480156109f057600080fd5b506103a76109ff36600461351f565b611cc3565b348015610a1057600080fd5b50610633611cf4565b348015610a2557600080fd5b506015546103da9060ff1681565b348015610a3f57600080fd5b5060408051808201909152601881527f737570706f72743d627261766f2671756f72756d3d666f7200000000000000006020820152610441565b348015610a8557600080fd5b506103a77f000000000000000000000000000000000000000000000000000000000000000081565b348015610ab957600080fd5b506103a7610ac8366004613617565b60026020526000908152604090205481565b348015610ae657600080fd5b506103a77f150214d74d59b7d1e90c73fc22ef3d991dd0a76b046543d4d80ab92d2a50328f81565b348015610b1a57600080fd5b506103a7611ebf565b348015610b2f57600080fd5b506103a7610b3e366004613025565b60166020526000908152604090205481565b348015610b5c57600080fd5b5061038b611ed1565b348015610b7157600080fd5b506103a7611fbb565b348015610b8657600080fd5b506105ca611fe7565b348015610b9b57600080fd5b5061038b610baa366004613874565b61203d565b348015610bbb57600080fd5b5061038b610bca366004613617565b612280565b348015610bdb57600080fd5b506103a761231b565b6000610bef600c5490565b905090565b60006001600160e01b031982166348f0249f60e11b1480610c2557506301ffc9a760e01b6001600160e01b03198316145b92915050565b6000610bef600e5490565b6000610bef6012546001600160a01b031690565b606060078054610c5990613904565b80601f0160208091040260200160405190810160405280929190818152602001828054610c8590613904565b8015610cd25780601f10610ca757610100808354040283529160200191610cd2565b820191906000526020600020905b815481529060010190602001808311610cb557829003601f168201915b5050505050905090565b6001600160a01b03831660009081526004602052604081205460ff16610d3757610d1284678ac7230489e8000085856000610da2565b506001600160a01b0384166000908152600460205260409020805460ff191660011790555b5060015b9392505050565b60155460009060ff16610d705760405162461bcd60e51b8152600401610d679061393e565b60405180910390fd5b5060009081526017602052604090205460ff1690565b6000610d90610c2b565b610d98611ebf565b610bef91906139bf565b6040516bffffffffffffffffffffffff19606087901b166020820152603481018590526000908190605401604051602081830303815290604052805190602001209050600083610e5157610e4c8686808060200260200160405190810160405280939291908181526020018383602002808284376000920191909152507f000000000000000000000000000000000000000000000000000000000000000092508691506123269050565b610eb1565b610eb18686808060200260200160405190810160405280939291908181526020018383602002808284376000920191909152507f000000000000000000000000000000000000000000000000000000000000000092508691506123269050565b905080610ed15760405163452c2df160e11b815260040160405180910390fd5b506001979650505050505050565b6000610bef600d5490565b600033610ef981878686611196565b50610f16888289886040518060200160405280600081525061233c565b98975050505050505050565b606060008083610f3957610f34611090565b610f41565b610f41611cf4565b91509150600082516001600160401b03811115610f6057610f60613274565b604051908082528060200260200182016040528015610f89578160200160208202803683370190505b50905060005b825181101561100d57828181518110610faa57610faa6139d2565b602002602001015160200151838281518110610fc857610fc86139d2565b602002602001015160000151610fde91906139e8565b828281518110610ff057610ff06139d2565b60209081029190910101528061100581613a0f565b915050610f8f565b5060005b6001845161101f9190613a28565b81101561104457611031818386612556565b508061103c81613a0f565b915050611011565b5091949350505050565b3360009081526004602052604081205460ff1661107d5760405162461bcd60e51b8152600401610d6790613a3b565b61108682611344565b50610c25826126bc565b606080600061109d611fe7565b9050600081516001600160401b038111156110ba576110ba613274565b6040519080825280602002602001820160405280156110ff57816020015b60408051808201909152600080825260208201528152602001906001900390816110d85790505b50905060005b825181101561118c5760146000848381518110611124576111246139d2565b602002602001015181526020019081526020016000206000016040518060400160405290816000820154815260200160018201548152505082828151811061116e5761116e6139d2565b6020026020010181905250808061118490613a0f565b915050611105565b5090939092509050565b6001600160a01b03841660009081526003602052604081205460ff166111f6576111c4858585856000610da2565b506001600160a01b038516600090815260026020908152604080832087905560039091529020805460ff191660011790555b506001949350505050565b6000610bef60115490565b3360008181526003602052604081205490919060ff166112af5760405162461bcd60e51b815260206004820152605260248201527f476f7665726e6f723a20796f75206e65656420746f2063617374206120766f7460448201527f652077697468207468652070726f6f66206174206c65617374206f6e636520616064820152711b99081e5bdd481a185d995b89dd081e595d60721b608482015260a401610d67565b6112cb858286866040518060200160405280600081525061233c565b95945050505050565b60155460009060ff166112f95760405162461bcd60e51b8152600401610d679061393e565b5060195490565b60008281526014602090815260408083206001600160a01b0385168452600301909152902080546001909101545b9250929050565b606060088054610c5990613904565b80516000906001600160a01b031633146113b95760405162461bcd60e51b815260206004820152603060248201527f476f7665726e6f723a207468652070726f706f73616c20617574686f72206d7560448201526f39ba1031329036b9b39739b2b73232b960811b6064820152608401610d67565b60005b60028110156115715760008160018111156113d9576113d96137b0565b905060008160018111156113ef576113ef6137b0565b036113fa575061155f565b600181600181111561140e5761140e6137b0565b0361154457608084015151516000036114a05760405162461bcd60e51b815260206004820152604860248201527f476f7665726e6f724d6574616461746156616c69646174696f6e3a207468657260448201527f652063616e6e6f74206265207a65726f207369676e65727320696e20736166656064820152674d6574616461746160c01b608482015260a401610d67565b83608001516020015160000361152c5760405162461bcd60e51b8152602060048201526044602482018190527f476f7665726e6f724d6574616461746156616c69646174696f6e3a2074687265908201527f73686f6c642063616e6e6f74206265207a65726f20696e20736166654d6574616064820152636461746160e01b608482015260a401610d67565b6080840151515160000361153f57600080fd5b61155d565b6040516308b6566d60e11b815260040160405180910390fd5b505b8061156981613a0f565b9150506113bc565b508160200151516000036115c75760405162461bcd60e51b815260206004820152601860248201527f476f7665726e6f723a20656d7074792070726f706f73616c00000000000000006044820152606401610d67565b506001919050565b6000610bef600f5490565b60006060808280808361160d7f000000000000000000000000000000000000000000000000000000000000000083612a3c565b6116387f00000000000000000000000000000000000000000000000000000000000000006001612a3c565b60408051600080825260208201909252600f60f81b9b939a50919850469750309650945092509050565b60155460009060ff166116875760405162461bcd60e51b8152600401610d679061393e565b5060009081526016602052604090205490565b60155460609060ff166116bf5760405162461bcd60e51b8152600401610d679061393e565b6018805480602002602001604051908101604052809291908181526020018280548015610cd257602002820191906000526020600020905b8154815260200190600101908083116116f7575050505050905090565b600461171e611ade565b600481111561172f5761172f6137b0565b146117b25760405162461bcd60e51b815260206004820152604760248201527f476f7665726e6f72536f7274696e673a20636f6e74657374206d75737420626560448201527f20746f2063616c63756c61746520736f7274656420616e6420746965642070726064820152666f706f73616c7360c81b608482015260a401610d67565b60155460ff16156118515760405162461bcd60e51b815260206004820152605f60248201527f476f7665726e6f72536f7274696e673a20736574536f72746564416e6454696560448201527f6450726f706f73616c7328292068617320616c7265616479206265656e20727560648201527f6e20616e642069747320726573706563746976652076616c7565732073657400608482015260a401610d67565b61185b6001610f22565b805161186f91601891602090910190612e7c565b5060185460009060019061188390826139bf565b601a5560005b601854811015611a16576018546000906118a590600190613a28565b90506000806118ee60186118b98686613a28565b815481106118c9576118c96139d2565b9060005260206000200154600090815260146020526040902080546001909101549091565b909250905060006118ff82846139e8565b905084600003611940576018549096508690600103611937576119228585613a28565b60008781526016602052604090205560198690555b50505050611a04565b8681036119935760008681526017602052604090205460ff16611977576000868152601760205260409020805460ff191660011790555b6018546119859060016139bf565b601a540361199357601a8690555b8681146119cc576119a48585613a28565b6119af9060016139bf565b600087815260166020526040902055856119c881613a0f565b9650505b6018546119da8660016139bf565b036119fe576119e98585613a28565b60008781526016602052604090205560198690555b95505050505b80611a0e81613a0f565b915050611889565b50506015805460ff1916600117905550565b6000818152601460209081526040918290206002810180548451818502810185019095528085526060949293830182828015611a8d57602002820191906000526020600020905b81546001600160a01b03168152600190910190602001808311611a6f575b5050505050915050919050565b6000611aa7338484610cdc565b611ac35760405162461bcd60e51b8152600401610d6790613a3b565b611acc84611344565b50611ad6846126bc565b949350505050565b60095460009060ff1615611af25750600290565b6000611afc610be4565b9050428110611b0d57600091505090565b6000611b17611ebf565b9050428110611b295760039250505090565b6000611b33610d86565b9050428110611b46576001935050505090565b6004935050505090565b611b58612ec7565b6000828152600a6020908152604091829020825160a0810190935280546001600160a01b031683526001810180549192840191611b9490613904565b80601f0160208091040260200160405190810160405280929190818152602001828054611bc090613904565b8015611c0d5780601f10611be257610100808354040283529160200191611c0d565b820191906000526020600020905b815481529060010190602001808311611bf057829003601f168201915b5050509183525050600282015460ff16151560208083019190915260408051808301825260038501546001600160a01b0316815281840152805160048501805493840282016060908101845292820184815294830194919390928492918491840182828015611ca557602002820191906000526020600020905b81546001600160a01b03168152600190910190602001808311611c87575b50505050508152602001600182015481525050815250509050919050565b600081604051602001611cd691906137ee565b60408051601f19818403018152919052805160209091012092915050565b6060806000611d01611fe7565b9050600081516001600160401b03811115611d1e57611d1e613274565b604051908082528060200260200182016040528015611d47578160200160208202803683370190505b509050600082516001600160401b03811115611d6557611d65613274565b604051908082528060200260200182016040528015611daa57816020015b6040805180820190915260008082526020820152815260200190600190039081611d835790505b5090506000805b8451811015611eb357611de9858281518110611dcf57611dcf6139d2565b602002602001015160009081526006602052604090205490565b600114611ea157848181518110611e0257611e026139d2565b6020026020010151848381518110611e1c57611e1c6139d2565b60200260200101818152505060146000868381518110611e3e57611e3e6139d2565b6020026020010151815260200190815260200160002060000160405180604001604052908160008201548152602001600182015481525050838381518110611e8857611e886139d2565b6020908102919091010152611e9e6001836139bf565b91505b80611eab81613a0f565b915050611db1565b50919590945092505050565b6000611ec9610edf565b610d98610be4565b611ed9610c36565b6001600160a01b0316336001600160a01b031614611ef657600080fd5b6000611f00611ade565b90506002816004811115611f1657611f166137b0565b14158015611f3657506004816004811115611f3357611f336137b0565b14155b611f825760405162461bcd60e51b815260206004820152601c60248201527f476f7665726e6f723a20636f6e74657374206e6f7420616374697665000000006044820152606401610d67565b6009805460ff191660011790556040517f4cd963a081760a54f571abc0f1db4dde31b4a07d8d6da3e844b8c6f47eeaaa4290600090a150565b60155460009060ff16611fe05760405162461bcd60e51b8152600401610d679061393e565b50601a5490565b60606005805480602002602001604051908101604052809291908181526020018280548015610cd257602002820191906000526020600020908154815260200190600101908083116116f7575050505050905090565b612045610c36565b6001600160a01b0316336001600160a01b0316146120cb5760405162461bcd60e51b815260206004820152603760248201527f476f7665726e6f723a206f6e6c792074686520636f6e7465737420637265617460448201527f6f722063616e2064656c6574652070726f706f73616c730000000000000000006064820152608401610d67565b60046120d5611ade565b60048111156120e6576120e66137b0565b0361216b5760405162461bcd60e51b815260206004820152604960248201527f476f7665726e6f723a2064656c6574696f6e206f662070726f706f73616c732060448201527f61667465722074686520656e64206f66206120636f6e74657374206973206e6f6064820152681d08185b1b1bddd95960ba1b608482015260a401610d67565b60005b8151811015612245576006600083838151811061218d5761218d6139d2565b6020026020010151815260200190815260200160002054600114612233576001600660008484815181106121c3576121c36139d2565b60200260200101518152602001908152602001600020819055506040518060600160405280603d8152602001613bcb603d9139600a600084848151811061220c5761220c6139d2565b6020026020010151815260200190815260200160002060010190816122319190613ad9565b505b8061223d81613a0f565b91505061216e565b507f75a75cf5c561892f4cc5b26c1b8e933849b42238c96dd073d080d1ae96c51416816040516122759190613261565b60405180910390a150565b612288610c36565b6001600160a01b0316336001600160a01b0316146122a557600080fd5b60006122b9601b546001600160a01b031690565b601b80546001600160a01b0319166001600160a01b0385811691821790925560408051928416835260208301919091529192507f753a2cf8d360cff631674504210913e48247f8e56b3e6d2006c2103d4095999f910160405180910390a15050565b6000610bef60105490565b6000826123338584612ae8565b14949350505050565b60006001612348611ade565b6004811115612359576123596137b0565b146123b25760405162461bcd60e51b815260206004820152602360248201527f476f7665726e6f723a20766f7465206e6f742063757272656e746c792061637460448201526269766560e81b6064820152608401610d67565b600083116124165760405162461bcd60e51b815260206004820152602b60248201527f476f7665726e6f723a2063616e6e6f7420766f746520776974682030206f722060448201526a666577657220766f74657360a81b6064820152608401610d67565b6001600160a01b03851660009081526003602052604090205460ff166124bc5760405162461bcd60e51b815260206004820152604f60248201527f476f7665726e6f723a20796f75206e65656420746f2076657269667920796f7560448201527f72206e756d626572206f6620766f74657320616761696e737420746865206d6560648201526e1c9adb19481c9bdbdd08199a5c9cdd608a1b608482015260a401610d67565b6124ee86868686600260008b6001600160a01b03166001600160a01b0316815260200190815260200160002054612b35565b846001600160a01b03167fb8e138887d0aa13bab447e82de9d5c1777041ecd21ca36ba824ff1e6c07ddda48786868660405161252d9493929190613b98565b60405180910390a2505050506001600160a01b0316600090815260026020526040902054919050565b600083805b84518110156125b457848281518110612576576125766139d2565b6020026020010151858281518110612590576125906139d2565b602002602001015112156125a2578091505b806125ac81613a0f565b91505061255b565b508481036125c6576000915050610d3b565b60008486815181106125da576125da6139d2565b602002602001015190508482815181106125f6576125f66139d2565b6020026020010151858781518110612610576126106139d2565b6020026020010181815250508085838151811061262f5761262f6139d2565b602002602001018181525050600084878151811061264f5761264f6139d2565b6020026020010151905084838151811061266b5761266b6139d2565b6020026020010151858881518110612685576126856139d2565b602002602001018181525050808584815181106126a4576126a46139d2565b60209081029190910101525060019695505050505050565b600060036126c8611ade565b60048111156126d9576126d96137b0565b1461274c5760405162461bcd60e51b815260206004820152603e60248201527f476f7665726e6f723a20636f6e74657374206d7573742062652071756575656460448201527f20666f722070726f706f73616c7320746f206265207375626d697474656400006064820152608401610d67565b6127546115cf565b336000908152600b6020526040902054106127fd5760405162461bcd60e51b815260206004820152605d60248201527f476f7665726e6f723a207468652073616d652063616e6e6f74207375626d697460448201527f206d6f7265207468616e20746865206e756d416c6c6f77656450726f706f736160648201527f6c5375626d697373696f6e7320666f72207468697320636f6e74657374000000608482015260a401610d67565b61280561231b565b6005541061287b5760405162461bcd60e51b815260206004820152603960248201527f476f7665726e6f723a20746865206d6178206e756d626572206f662070726f7060448201527f6f73616c732068617665206265656e207375626d6974746564000000000000006064820152608401610d67565b600061288683611cc3565b6000818152600a602052604090206002015490915060ff16156128fd5760405162461bcd60e51b815260206004820152602960248201527f476f7665726e6f723a206475706c69636174652070726f706f73616c73206e6f6044820152681d08185b1b1bddd95960ba1b6064820152608401610d67565b6005805460018082019092557f036b6384b5eca791c62761152d0c79bb0604c104a5fb6f4eb0703f3154bb3db0018290556000828152600a60209081526040909120855181546001600160a01b0319166001600160a01b0390911617815590850151859282019061296e9082613ad9565b50604082015160028201805460ff19169115159190911790556060820151516003820180546001600160a01b0319166001600160a01b0390921691909117905560808201518051805160048401916129cb91839160200190612f38565b50602091820151600191820155336000908152600b90925260408220805491945092506129f99084906139bf565b9091555050604080518281523360208201527fcd423cc1203c0af96b9b3d68d73b3064a69de2d14450bb7181c5e5df2132b358910160405180910390a192915050565b606060ff8314612a5657612a4f83612de9565b9050610c25565b818054612a6290613904565b80601f0160208091040260200160405190810160405280929190818152602001828054612a8e90613904565b8015612adb5780601f10612ab057610100808354040283529160200191612adb565b820191906000526020600020905b815481529060010190602001808311612abe57829003601f168201915b5050505050905092915050565b600081815b8451811015612b2d57612b1982868381518110612b0c57612b0c6139d2565b6020026020010151612e28565b915080612b2581613a0f565b915050612aed565b509392505050565b60008581526014602090815260408083206001600160a01b0388168452601390925290912054612b659083613a28565b831115612bd05760405162461bcd60e51b815260206004820152603360248201527f476f7665726e6f72566f74696e6753696d706c653a206e6f7420656e6f756768604482015272081d9bdd195cc81b19599d081d1bc818d85cdd606a1b6064820152608401610d67565b6001600160a01b03851660009081526003820160205260409020541560ff8516612c4257815484908390600090612c089084906139bf565b90915550506001600160a01b038616600090815260038301602052604081208054869290612c379084906139bf565b90915550612d7c9050565b60001960ff861601612d1657612c56611201565b600114612ccd576040805162461bcd60e51b81526020600482015260248101919091527f476f7665726e6f72566f74696e6753696d706c653a20646f776e766f74696e6760448201527f206973206e6f7420656e61626c656420666f72207468697320436f6e746573746064820152608401610d67565b83826000016001016000828254612ce491906139bf565b90915550506001600160a01b038616600090815260038301602052604081206001018054869290612c379084906139bf565b60405162461bcd60e51b815260206004820152603560248201527f476f7665726e6f72566f74696e6753696d706c653a20696e76616c69642076616044820152746c756520666f7220656e756d20566f74655479706560581b6064820152608401610d67565b8015612db357600282018054600181018255600091825260209091200180546001600160a01b0319166001600160a01b0388161790555b6001600160a01b03861660009081526013602052604081208054869290612ddb9084906139bf565b909155505050505050505050565b60606000612df683612e54565b604080516020808252818301909252919250600091906020820181803683375050509182525060208101929092525090565b6000818310612e44576000828152602084905260409020610d3b565b5060009182526020526040902090565b600060ff8216601f811115610c2557604051632cd44ac360e21b815260040160405180910390fd5b828054828255906000526020600020908101928215612eb7579160200282015b82811115612eb7578251825591602001919060010190612e9c565b50612ec3929150612f8d565b5090565b6040518060a0016040528060006001600160a01b0316815260200160608152602001600015158152602001612f11604051806020016040528060006001600160a01b031681525090565b8152602001612f33604051806040016040528060608152602001600081525090565b905290565b828054828255906000526020600020908101928215612eb7579160200282015b82811115612eb757825182546001600160a01b0319166001600160a01b03909116178255602090920191600190910190612f58565b5b80821115612ec35760008155600101612f8e565b600060208284031215612fb457600080fd5b81356001600160e01b031981168114610d3b57600080fd5b6000815180845260005b81811015612ff257602081850181015186830182015201612fd6565b506000602082860101526020601f19601f83011685010191505092915050565b602081526000610d3b6020830184612fcc565b60006020828403121561303757600080fd5b5035919050565b815181526020808301519082015260408101610c25565b6001600160a01b038116811461306a57600080fd5b50565b60008083601f84011261307f57600080fd5b5081356001600160401b0381111561309657600080fd5b6020830191508360208260051b850101111561132e57600080fd5b6000806000604084860312156130c657600080fd5b83356130d181613055565b925060208401356001600160401b038111156130ec57600080fd5b6130f88682870161306d565b9497909650939450505050565b8035801515811461311557600080fd5b919050565b60008060008060006080868803121561313257600080fd5b853561313d81613055565b94506020860135935060408601356001600160401b0381111561315f57600080fd5b61316b8882890161306d565b909450925061317e905060608701613105565b90509295509295909350565b803560ff8116811461311557600080fd5b60008060008060008060a087890312156131b457600080fd5b863595506131c46020880161318a565b9450604087013593506060870135925060808701356001600160401b038111156131ed57600080fd5b6131f989828a0161306d565b979a9699509497509295939492505050565b60006020828403121561321d57600080fd5b610d3b82613105565b600081518084526020808501945080840160005b838110156132565781518752958201959082019060010161323a565b509495945050505050565b602081526000610d3b6020830184613226565b634e487b7160e01b600052604160045260246000fd5b604080519081016001600160401b03811182821017156132ac576132ac613274565b60405290565b60405160a081016001600160401b03811182821017156132ac576132ac613274565b604051601f8201601f191681016001600160401b03811182821017156132fc576132fc613274565b604052919050565b60006020828403121561331657600080fd5b604051602081018181106001600160401b038211171561333857613338613274565b604052905080823561334981613055565b905292915050565b60006001600160401b0382111561336a5761336a613274565b5060051b60200190565b60006040828403121561338657600080fd5b61338e61328a565b905081356001600160401b038111156133a657600080fd5b8201601f810184136133b757600080fd5b803560206133cc6133c783613351565b6132d4565b82815260059290921b830181019181810190878411156133eb57600080fd5b938201935b8385101561341257843561340381613055565b825293820193908201906133f0565b85525093840135938301939093525092915050565b600060a0828403121561343957600080fd5b6134416132b2565b9050813561344e81613055565b81526020828101356001600160401b038082111561346b57600080fd5b818501915085601f83011261347f57600080fd5b81358181111561349157613491613274565b6134a3601f8201601f191685016132d4565b81815287858386010111156134b757600080fd5b81858501868301376000858383010152808587015250506134da60408601613105565b60408501526134ec8660608701613304565b6060850152608085013592508083111561350557600080fd5b505061351384828501613374565b60808301525092915050565b60006020828403121561353157600080fd5b81356001600160401b0381111561354757600080fd5b611ad684828501613427565b6000604080835261356681840186613226565b83810360208581019190915285518083528682019282019060005b818110156135ae5761359e83865180518252602090810151910152565b9383019391850191600101613581565b509098975050505050505050565b600080600080606085870312156135d257600080fd5b84356135dd81613055565b93506020850135925060408501356001600160401b038111156135ff57600080fd5b61360b8782880161306d565b95989497509550505050565b60006020828403121561362957600080fd5b8135610d3b81613055565b60008060006060848603121561364957600080fd5b833592506136596020850161318a565b9150604084013590509250925092565b6000806040838503121561367c57600080fd5b82359150602083013561368e81613055565b809150509250929050565b60ff60f81b8816815260e0602082015260006136b860e0830189612fcc565b82810360408401526136ca8189612fcc565b606084018890526001600160a01b038716608085015260a0840186905283810360c085015290506136fb8185613226565b9a9950505050505050505050565b600081518084526020808501945080840160005b838110156132565781516001600160a01b03168752958201959082019060010161371d565b602081526000610d3b6020830184613709565b60008060006040848603121561376a57600080fd5b83356001600160401b038082111561378157600080fd5b61378d87838801613427565b945060208601359150808211156137a357600080fd5b506130f88682870161306d565b634e487b7160e01b600052602160045260246000fd5b60208101600583106137e857634e487b7160e01b600052602160045260246000fd5b91905290565b60208152600060018060a01b03808451166020840152602084015160a0604085015261381d60c0850182612fcc565b90506040850151151560608501528160608601515116608085015260808501519150601f198482030160a085015281516040825261385e6040830182613709565b6020938401519290930191909152509392505050565b6000602080838503121561388757600080fd5b82356001600160401b0381111561389d57600080fd5b8301601f810185136138ae57600080fd5b80356138bc6133c782613351565b81815260059190911b820183019083810190878311156138db57600080fd5b928401925b828410156138f9578335825292840192908401906138e0565b979650505050505050565b600181811c9082168061391857607f821691505b60208210810361393857634e487b7160e01b600052602260045260246000fd5b50919050565b60208082526045908201527f526577617264734d6f64756c653a2072756e20736574536f72746564416e645460408201527f69656450726f706f73616c73282920746f20706f70756c61746520746869732060608201526476616c756560d81b608082015260a00190565b634e487b7160e01b600052601160045260246000fd5b80820180821115610c2557610c256139a9565b634e487b7160e01b600052603260045260246000fd5b8181036000831280158383131683831282161715613a0857613a086139a9565b5092915050565b600060018201613a2157613a216139a9565b5060010190565b81810381811115610c2557610c256139a9565b6020808252602f908201527f476f7665726e6f723a2061646472657373206973206e6f74207065726d69737360408201526e1a5bdb9959081d1bc81cdd589b5a5d608a1b606082015260800190565b601f821115613ad457600081815260208120601f850160051c81016020861015613ab15750805b601f850160051c820191505b81811015613ad057828155600101613abd565b5050505b505050565b81516001600160401b03811115613af257613af2613274565b613b0681613b008454613904565b84613a8a565b602080601f831160018114613b3b5760008415613b235750858301515b600019600386901b1c1916600185901b178555613ad0565b600085815260208120601f198616915b82811015613b6a57888601518255948401946001909101908401613b4b565b5085821015613b885787850151600019600388901b60f8161c191681555b5050505050600190811b01905550565b84815260ff84166020820152826040820152608060608201526000613bc06080830184612fcc565b969550505050505056fe546869732070726f706f73616c20686173206265656e2064656c65746564206279207468652063726561746f72206f662074686520636f6e746573742ea2646970667358221220b3f3bcafd54d6073aa5ae0be66819433b21a7f3edaaeaadab556da724949dadc64736f6c63430008130033",
    "linkReferences": {}
  },
  "methodIdentifiers": {
    "AMOUNT_FOR_SUMBITTER_PROOF()": "347cf665",
    "BALLOT_TYPEHASH()": "deaaa7cc",
    "COUNTING_MODE()": "dd4e2ba5",
    "METADATAS_COUNT()": "4d24a67f",
    "addressSubmitterVerified(address)": "cb853950",
    "addressTotalCastVoteCounts(address)": "a1ac6cb2",
    "addressTotalVotes(address)": "dea5f6a6",
    "addressTotalVotesVerified(address)": "930de979",
    "allProposalTotalVotes()": "50a5e524",
    "allProposalTotalVotesWithoutDeleted()": "d45a010b",
    "cancel()": "ea8a1af0",
    "castVote(uint256,uint8,uint256,uint256,bytes32[])": "419c533c",
    "castVoteWithoutProof(uint256,uint8,uint256)": "65f16263",
    "checkProof(address,uint256,bytes32[],bool)": "32763c22",
    "contestAddressTotalVotesCast(address)": "aec116b6",
    "contestDeadline()": "262e59e9",
    "contestStart()": "004114a8",
    "creator()": "02d05d3f",
    "deleteProposals(uint256[])": "f0a7db0a",
    "downvotingAllowed()": "60506ff6",
    "eip712Domain()": "84b0196e",
    "getAllProposalIds()": "efa90d36",
    "getNumSubmissions(address)": "5f953a03",
    "getProposal(uint256)": "c7f758a8",
    "hashProposal((address,string,bool,(address),(address[],uint256)))": "cf6afbae",
    "highestTiedRanking()": "ebc18b9b",
    "isProposalDeleted(uint256)": "3b6d199b",
    "isTied(uint256)": "2399c660",
    "lowestRanking()": "6ca1a2c7",
    "maxProposalCount()": "fb9bf8d4",
    "name()": "06fdde03",
    "numAllowedProposalSubmissions()": "832009af",
    "officialRewardsModule()": "785ddfe5",
    "prompt()": "7c65d711",
    "proposalAddressVotes(uint256,address)": "6e4eb810",
    "proposalAddressesHaveVoted(uint256)": "b323580d",
    "proposalVotes(uint256)": "544ffc9c",
    "proposalVotesStructs(uint256)": "070dc5d9",
    "propose((address,string,bool,(address),(address[],uint256)),bytes32[])": "bfe45b59",
    "proposeWithoutProof((address,string,bool,(address),(address[],uint256)))": "4970ab2f",
    "rankingPosition(uint256)": "86187488",
    "setOfficialRewardsModule(address)": "f4f3d7ec",
    "setSortedAndTiedProposals()": "96f0e962",
    "setSortedAndTiedProposalsHasBeenRun()": "d8891619",
    "sortedProposalIds()": "8a9cd550",
    "sortedProposals(bool)": "427d56c2",
    "state()": "c19d93fb",
    "submissionMerkleRoot()": "bddc1641",
    "supportsInterface(bytes4)": "01ffc9a7",
    "tiedAdjustedRankingPosition(uint256)": "e5eb5a48",
    "validateProposalData((address,string,bool,(address),(address[],uint256)))": "7f57a0ba",
    "verifyProposer(address,bytes32[])": "20b3e845",
    "verifyVoter(address,uint256,bytes32[])": "531bd812",
    "version()": "54fd4d50",
    "voteStart()": "e031535b",
    "votingDelay()": "3932abb1",
    "votingMerkleRoot()": "dd96a19d",
    "votingPeriod()": "02a251a3"
  },
  "id": 36
}