{
  "_format": "hh-sol-artifact-1",
  "contractName": "Contest",
  "sourceName": "contracts/Contest.sol",
  "abi": [
    {
      "inputs": [
        {
          "internalType": "string",
          "name": "_name",
          "type": "string"
        },
        {
          "internalType": "string",
          "name": "_prompt",
          "type": "string"
        },
        {
          "internalType": "contract IVotesTimestamp",
          "name": "_token",
          "type": "address"
        },
        {
          "internalType": "contract IVotesTimestamp",
          "name": "_submissionToken",
          "type": "address"
        },
        {
          "internalType": "uint256[]",
          "name": "_constructorIntParams",
          "type": "uint256[]"
        }
      ],
      "stateMutability": "nonpayable",
      "type": "constructor"
    },
    {
      "anonymous": false,
      "inputs": [],
      "name": "ContestCanceled",
      "type": "event"
    },
    {
      "anonymous": false,
      "inputs": [
        {
          "indexed": false,
          "internalType": "uint256",
          "name": "oldContestSnapshot",
          "type": "uint256"
        },
        {
          "indexed": false,
          "internalType": "uint256",
          "name": "newContestSnapshot",
          "type": "uint256"
        }
      ],
      "name": "ContestSnapshotSet",
      "type": "event"
    },
    {
      "anonymous": false,
      "inputs": [
        {
          "indexed": false,
          "internalType": "uint256",
          "name": "oldContestStart",
          "type": "uint256"
        },
        {
          "indexed": false,
          "internalType": "uint256",
          "name": "newContestStart",
          "type": "uint256"
        }
      ],
      "name": "ContestStartSet",
      "type": "event"
    },
    {
      "anonymous": false,
      "inputs": [
        {
          "indexed": false,
          "internalType": "address",
          "name": "oldCreator",
          "type": "address"
        },
        {
          "indexed": false,
          "internalType": "address",
          "name": "newCreator",
          "type": "address"
        }
      ],
      "name": "CreatorSet",
      "type": "event"
    },
    {
      "anonymous": false,
      "inputs": [
        {
          "indexed": false,
          "internalType": "uint256",
          "name": "oldDownvotingAllowed",
          "type": "uint256"
        },
        {
          "indexed": false,
          "internalType": "uint256",
          "name": "newDownvotingAllowed",
          "type": "uint256"
        }
      ],
      "name": "DownvotingAllowedSet",
      "type": "event"
    },
    {
      "anonymous": false,
      "inputs": [
        {
          "indexed": false,
          "internalType": "uint256",
          "name": "oldMaxProposalCount",
          "type": "uint256"
        },
        {
          "indexed": false,
          "internalType": "uint256",
          "name": "newMaxProposalCount",
          "type": "uint256"
        }
      ],
      "name": "MaxProposalCountSet",
      "type": "event"
    },
    {
      "anonymous": false,
      "inputs": [
        {
          "indexed": false,
          "internalType": "uint256",
          "name": "oldNumAllowedProposalSubmissions",
          "type": "uint256"
        },
        {
          "indexed": false,
          "internalType": "uint256",
          "name": "newNumAllowedProposalSubmissions",
          "type": "uint256"
        }
      ],
      "name": "NumAllowedProposalSubmissionsSet",
      "type": "event"
    },
    {
      "anonymous": false,
      "inputs": [
        {
          "indexed": false,
          "internalType": "contract RewardsModule",
          "name": "oldOfficialRewardsModule",
          "type": "address"
        },
        {
          "indexed": false,
          "internalType": "contract RewardsModule",
          "name": "newOfficialRewardsModule",
          "type": "address"
        }
      ],
      "name": "OfficialRewardsModuleSet",
      "type": "event"
    },
    {
      "anonymous": false,
      "inputs": [
        {
          "indexed": false,
          "internalType": "uint256",
          "name": "proposalId",
          "type": "uint256"
        },
        {
          "indexed": false,
          "internalType": "string",
          "name": "description",
          "type": "string"
        },
        {
          "indexed": false,
          "internalType": "address",
          "name": "proposer",
          "type": "address"
        }
      ],
      "name": "ProposalCreated",
      "type": "event"
    },
    {
      "anonymous": false,
      "inputs": [
        {
          "indexed": false,
          "internalType": "uint256",
          "name": "oldProposalThreshold",
          "type": "uint256"
        },
        {
          "indexed": false,
          "internalType": "uint256",
          "name": "newProposalThreshold",
          "type": "uint256"
        }
      ],
      "name": "ProposalThresholdSet",
      "type": "event"
    },
    {
      "anonymous": false,
      "inputs": [
        {
          "indexed": false,
          "internalType": "uint256[]",
          "name": "proposalIds",
          "type": "uint256[]"
        }
      ],
      "name": "ProposalsDeleted",
      "type": "event"
    },
    {
      "anonymous": false,
      "inputs": [
        {
          "indexed": false,
          "internalType": "uint256",
          "name": "oldSubmissionGatingByVotingToken",
          "type": "uint256"
        },
        {
          "indexed": false,
          "internalType": "uint256",
          "name": "newSubmissionGatingByVotingToken",
          "type": "uint256"
        }
      ],
      "name": "SubmissionGatingByVotingTokenSet",
      "type": "event"
    },
    {
      "anonymous": false,
      "inputs": [
        {
          "indexed": true,
          "internalType": "address",
          "name": "voter",
          "type": "address"
        },
        {
          "indexed": false,
          "internalType": "uint256",
          "name": "proposalId",
          "type": "uint256"
        },
        {
          "indexed": false,
          "internalType": "uint8",
          "name": "support",
          "type": "uint8"
        },
        {
          "indexed": false,
          "internalType": "uint256",
          "name": "numVotes",
          "type": "uint256"
        },
        {
          "indexed": false,
          "internalType": "string",
          "name": "reason",
          "type": "string"
        }
      ],
      "name": "VoteCast",
      "type": "event"
    },
    {
      "anonymous": false,
      "inputs": [
        {
          "indexed": false,
          "internalType": "uint256",
          "name": "oldVotingDelay",
          "type": "uint256"
        },
        {
          "indexed": false,
          "internalType": "uint256",
          "name": "newVotingDelay",
          "type": "uint256"
        }
      ],
      "name": "VotingDelaySet",
      "type": "event"
    },
    {
      "anonymous": false,
      "inputs": [
        {
          "indexed": false,
          "internalType": "uint256",
          "name": "oldVotingPeriod",
          "type": "uint256"
        },
        {
          "indexed": false,
          "internalType": "uint256",
          "name": "newVotingPeriod",
          "type": "uint256"
        }
      ],
      "name": "VotingPeriodSet",
      "type": "event"
    },
    {
      "inputs": [],
      "name": "BALLOT_TYPEHASH",
      "outputs": [
        {
          "internalType": "bytes32",
          "name": "",
          "type": "bytes32"
        }
      ],
      "stateMutability": "view",
      "type": "function"
    },
    {
      "inputs": [],
      "name": "COUNTING_MODE",
      "outputs": [
        {
          "internalType": "string",
          "name": "",
          "type": "string"
        }
      ],
      "stateMutability": "pure",
      "type": "function"
    },
    {
      "inputs": [],
      "name": "allProposalTotalVotes",
      "outputs": [
        {
          "internalType": "uint256[]",
          "name": "proposalIdsReturn",
          "type": "uint256[]"
        },
        {
          "components": [
            {
              "internalType": "uint256",
              "name": "forVotes",
              "type": "uint256"
            },
            {
              "internalType": "uint256",
              "name": "againstVotes",
              "type": "uint256"
            }
          ],
          "internalType": "struct GovernorCountingSimple.VoteCounts[]",
          "name": "proposalVoteCountsArrayReturn",
          "type": "tuple[]"
        }
      ],
      "stateMutability": "view",
      "type": "function"
    },
    {
      "inputs": [],
      "name": "allProposalTotalVotesWithoutDeleted",
      "outputs": [
        {
          "internalType": "uint256[]",
          "name": "proposalIdsReturn",
          "type": "uint256[]"
        },
        {
          "components": [
            {
              "internalType": "uint256",
              "name": "forVotes",
              "type": "uint256"
            },
            {
              "internalType": "uint256",
              "name": "againstVotes",
              "type": "uint256"
            }
          ],
          "internalType": "struct GovernorCountingSimple.VoteCounts[]",
          "name": "proposalVoteCountsArrayReturn",
          "type": "tuple[]"
        }
      ],
      "stateMutability": "view",
      "type": "function"
    },
    {
      "inputs": [],
      "name": "cancel",
      "outputs": [],
      "stateMutability": "nonpayable",
      "type": "function"
    },
    {
      "inputs": [
        {
          "internalType": "uint256",
          "name": "proposalId",
          "type": "uint256"
        },
        {
          "internalType": "uint8",
          "name": "support",
          "type": "uint8"
        },
        {
          "internalType": "uint256",
          "name": "numVotes",
          "type": "uint256"
        }
      ],
      "name": "castVote",
      "outputs": [
        {
          "internalType": "uint256",
          "name": "",
          "type": "uint256"
        }
      ],
      "stateMutability": "nonpayable",
      "type": "function"
    },
    {
      "inputs": [
        {
          "internalType": "uint256",
          "name": "proposalId",
          "type": "uint256"
        },
        {
          "internalType": "uint8",
          "name": "support",
          "type": "uint8"
        },
        {
          "internalType": "uint256",
          "name": "numVotes",
          "type": "uint256"
        },
        {
          "internalType": "uint8",
          "name": "v",
          "type": "uint8"
        },
        {
          "internalType": "bytes32",
          "name": "r",
          "type": "bytes32"
        },
        {
          "internalType": "bytes32",
          "name": "s",
          "type": "bytes32"
        }
      ],
      "name": "castVoteBySig",
      "outputs": [
        {
          "internalType": "uint256",
          "name": "",
          "type": "uint256"
        }
      ],
      "stateMutability": "nonpayable",
      "type": "function"
    },
    {
      "inputs": [
        {
          "internalType": "uint256",
          "name": "proposalId",
          "type": "uint256"
        },
        {
          "internalType": "uint8",
          "name": "support",
          "type": "uint8"
        },
        {
          "internalType": "uint256",
          "name": "numVotes",
          "type": "uint256"
        },
        {
          "internalType": "string",
          "name": "reason",
          "type": "string"
        }
      ],
      "name": "castVoteWithReason",
      "outputs": [
        {
          "internalType": "uint256",
          "name": "",
          "type": "uint256"
        }
      ],
      "stateMutability": "nonpayable",
      "type": "function"
    },
    {
      "inputs": [
        {
          "internalType": "address",
          "name": "userAddress",
          "type": "address"
        }
      ],
      "name": "contestAddressTotalVotesCast",
      "outputs": [
        {
          "internalType": "uint256",
          "name": "totalVotesCast",
          "type": "uint256"
        }
      ],
      "stateMutability": "view",
      "type": "function"
    },
    {
      "inputs": [],
      "name": "contestDeadline",
      "outputs": [
        {
          "internalType": "uint256",
          "name": "",
          "type": "uint256"
        }
      ],
      "stateMutability": "view",
      "type": "function"
    },
    {
      "inputs": [],
      "name": "contestSnapshot",
      "outputs": [
        {
          "internalType": "uint256",
          "name": "",
          "type": "uint256"
        }
      ],
      "stateMutability": "view",
      "type": "function"
    },
    {
      "inputs": [],
      "name": "contestStart",
      "outputs": [
        {
          "internalType": "uint256",
          "name": "",
          "type": "uint256"
        }
      ],
      "stateMutability": "view",
      "type": "function"
    },
    {
      "inputs": [],
      "name": "creator",
      "outputs": [
        {
          "internalType": "address",
          "name": "",
          "type": "address"
        }
      ],
      "stateMutability": "view",
      "type": "function"
    },
    {
      "inputs": [
        {
          "internalType": "uint256[]",
          "name": "proposalIds",
          "type": "uint256[]"
        }
      ],
      "name": "deleteProposals",
      "outputs": [],
      "stateMutability": "nonpayable",
      "type": "function"
    },
    {
      "inputs": [],
      "name": "downvotingAllowed",
      "outputs": [
        {
          "internalType": "uint256",
          "name": "",
          "type": "uint256"
        }
      ],
      "stateMutability": "view",
      "type": "function"
    },
    {
      "inputs": [],
      "name": "getAllProposalIds",
      "outputs": [
        {
          "internalType": "uint256[]",
          "name": "",
          "type": "uint256[]"
        }
      ],
      "stateMutability": "view",
      "type": "function"
    },
    {
      "inputs": [
        {
          "internalType": "address",
          "name": "account",
          "type": "address"
        }
      ],
      "name": "getCurrentSubmissionTokenVotes",
      "outputs": [
        {
          "internalType": "uint256",
          "name": "",
          "type": "uint256"
        }
      ],
      "stateMutability": "view",
      "type": "function"
    },
    {
      "inputs": [
        {
          "internalType": "address",
          "name": "account",
          "type": "address"
        }
      ],
      "name": "getCurrentVotes",
      "outputs": [
        {
          "internalType": "uint256",
          "name": "",
          "type": "uint256"
        }
      ],
      "stateMutability": "view",
      "type": "function"
    },
    {
      "inputs": [
        {
          "internalType": "address",
          "name": "account",
          "type": "address"
        }
      ],
      "name": "getNumSubmissions",
      "outputs": [
        {
          "internalType": "uint256",
          "name": "",
          "type": "uint256"
        }
      ],
      "stateMutability": "view",
      "type": "function"
    },
    {
      "inputs": [
        {
          "internalType": "uint256",
          "name": "proposalId",
          "type": "uint256"
        }
      ],
      "name": "getProposal",
      "outputs": [
        {
          "components": [
            {
              "internalType": "address",
              "name": "author",
              "type": "address"
            },
            {
              "internalType": "string",
              "name": "description",
              "type": "string"
            },
            {
              "internalType": "bool",
              "name": "exists",
              "type": "bool"
            }
          ],
          "internalType": "struct Governor.ProposalCore",
          "name": "",
          "type": "tuple"
        }
      ],
      "stateMutability": "view",
      "type": "function"
    },
    {
      "inputs": [
        {
          "internalType": "address",
          "name": "account",
          "type": "address"
        },
        {
          "internalType": "uint256",
          "name": "timestamp",
          "type": "uint256"
        }
      ],
      "name": "getVotes",
      "outputs": [
        {
          "internalType": "uint256",
          "name": "",
          "type": "uint256"
        }
      ],
      "stateMutability": "view",
      "type": "function"
    },
    {
      "inputs": [
        {
          "internalType": "string",
          "name": "proposalDescription",
          "type": "string"
        }
      ],
      "name": "hashProposal",
      "outputs": [
        {
          "internalType": "uint256",
          "name": "",
          "type": "uint256"
        }
      ],
      "stateMutability": "pure",
      "type": "function"
    },
    {
      "inputs": [
        {
          "internalType": "uint256",
          "name": "proposalId",
          "type": "uint256"
        }
      ],
      "name": "isProposalDeleted",
      "outputs": [
        {
          "internalType": "uint256",
          "name": "",
          "type": "uint256"
        }
      ],
      "stateMutability": "view",
      "type": "function"
    },
    {
      "inputs": [],
      "name": "maxProposalCount",
      "outputs": [
        {
          "internalType": "uint256",
          "name": "",
          "type": "uint256"
        }
      ],
      "stateMutability": "view",
      "type": "function"
    },
    {
      "inputs": [],
      "name": "name",
      "outputs": [
        {
          "internalType": "string",
          "name": "",
          "type": "string"
        }
      ],
      "stateMutability": "view",
      "type": "function"
    },
    {
      "inputs": [],
      "name": "numAllowedProposalSubmissions",
      "outputs": [
        {
          "internalType": "uint256",
          "name": "",
          "type": "uint256"
        }
      ],
      "stateMutability": "view",
      "type": "function"
    },
    {
      "inputs": [],
      "name": "officialRewardsModule",
      "outputs": [
        {
          "internalType": "contract RewardsModule",
          "name": "",
          "type": "address"
        }
      ],
      "stateMutability": "view",
      "type": "function"
    },
    {
      "inputs": [],
      "name": "prompt",
      "outputs": [
        {
          "internalType": "string",
          "name": "",
          "type": "string"
        }
      ],
      "stateMutability": "view",
      "type": "function"
    },
    {
      "inputs": [
        {
          "internalType": "uint256",
          "name": "proposalId",
          "type": "uint256"
        },
        {
          "internalType": "address",
          "name": "userAddress",
          "type": "address"
        }
      ],
      "name": "proposalAddressVotes",
      "outputs": [
        {
          "internalType": "uint256",
          "name": "forVotes",
          "type": "uint256"
        },
        {
          "internalType": "uint256",
          "name": "againstVotes",
          "type": "uint256"
        }
      ],
      "stateMutability": "view",
      "type": "function"
    },
    {
      "inputs": [
        {
          "internalType": "uint256",
          "name": "proposalId",
          "type": "uint256"
        }
      ],
      "name": "proposalAddressesHaveVoted",
      "outputs": [
        {
          "internalType": "address[]",
          "name": "",
          "type": "address[]"
        }
      ],
      "stateMutability": "view",
      "type": "function"
    },
    {
      "inputs": [],
      "name": "proposalThreshold",
      "outputs": [
        {
          "internalType": "uint256",
          "name": "",
          "type": "uint256"
        }
      ],
      "stateMutability": "view",
      "type": "function"
    },
    {
      "inputs": [
        {
          "internalType": "uint256",
          "name": "proposalId",
          "type": "uint256"
        }
      ],
      "name": "proposalVotes",
      "outputs": [
        {
          "internalType": "uint256",
          "name": "forVotes",
          "type": "uint256"
        },
        {
          "internalType": "uint256",
          "name": "againstVotes",
          "type": "uint256"
        }
      ],
      "stateMutability": "view",
      "type": "function"
    },
    {
      "inputs": [
        {
          "internalType": "string",
          "name": "proposalDescription",
          "type": "string"
        }
      ],
      "name": "propose",
      "outputs": [
        {
          "internalType": "uint256",
          "name": "",
          "type": "uint256"
        }
      ],
      "stateMutability": "nonpayable",
      "type": "function"
    },
    {
      "inputs": [
        {
          "internalType": "contract RewardsModule",
          "name": "officialRewardsModule_",
          "type": "address"
        }
      ],
      "name": "setOfficialRewardsModule",
      "outputs": [],
      "stateMutability": "nonpayable",
      "type": "function"
    },
    {
      "inputs": [
        {
          "internalType": "bool",
          "name": "excludeDeletedProposals",
          "type": "bool"
        }
      ],
      "name": "sortedProposals",
      "outputs": [
        {
          "internalType": "uint256[]",
          "name": "sortedProposalIdsReturn",
          "type": "uint256[]"
        }
      ],
      "stateMutability": "view",
      "type": "function"
    },
    {
      "inputs": [],
      "name": "state",
      "outputs": [
        {
          "internalType": "enum IGovernor.ContestState",
          "name": "",
          "type": "uint8"
        }
      ],
      "stateMutability": "view",
      "type": "function"
    },
    {
      "inputs": [],
      "name": "submissionGatingByVotingToken",
      "outputs": [
        {
          "internalType": "uint256",
          "name": "",
          "type": "uint256"
        }
      ],
      "stateMutability": "view",
      "type": "function"
    },
    {
      "inputs": [],
      "name": "submissionToken",
      "outputs": [
        {
          "internalType": "contract IVotesTimestamp",
          "name": "",
          "type": "address"
        }
      ],
      "stateMutability": "view",
      "type": "function"
    },
    {
      "inputs": [
        {
          "internalType": "bytes4",
          "name": "interfaceId",
          "type": "bytes4"
        }
      ],
      "name": "supportsInterface",
      "outputs": [
        {
          "internalType": "bool",
          "name": "",
          "type": "bool"
        }
      ],
      "stateMutability": "view",
      "type": "function"
    },
    {
      "inputs": [],
      "name": "token",
      "outputs": [
        {
          "internalType": "contract IVotesTimestamp",
          "name": "",
          "type": "address"
        }
      ],
      "stateMutability": "view",
      "type": "function"
    },
    {
      "inputs": [],
      "name": "version",
      "outputs": [
        {
          "internalType": "string",
          "name": "",
          "type": "string"
        }
      ],
      "stateMutability": "view",
      "type": "function"
    },
    {
      "inputs": [],
      "name": "voteStart",
      "outputs": [
        {
          "internalType": "uint256",
          "name": "",
          "type": "uint256"
        }
      ],
      "stateMutability": "view",
      "type": "function"
    },
    {
      "inputs": [],
      "name": "votingDelay",
      "outputs": [
        {
          "internalType": "uint256",
          "name": "",
          "type": "uint256"
        }
      ],
      "stateMutability": "view",
      "type": "function"
    },
    {
      "inputs": [],
      "name": "votingPeriod",
      "outputs": [
        {
          "internalType": "uint256",
          "name": "",
          "type": "uint256"
        }
      ],
      "stateMutability": "view",
      "type": "function"
    },
    {
      "stateMutability": "payable",
      "type": "receive"
    }
  ],
  "bytecode": "0x6101806040523480156200001257600080fd5b5060405162003ac238038062003ac28339810160408190526200003591620007b6565b8282826000815181106200005957634e487b7160e01b600052603260045260246000fd5b6020026020010151836001815181106200008357634e487b7160e01b600052603260045260246000fd5b602002602001015184600281518110620000ad57634e487b7160e01b600052603260045260246000fd5b602002602001015185600381518110620000d757634e487b7160e01b600052603260045260246000fd5b6020026020010151866004815181106200010157634e487b7160e01b600052603260045260246000fd5b6020026020010151876005815181106200012b57634e487b7160e01b600052603260045260246000fd5b6020026020010151886006815181106200015557634e487b7160e01b600052603260045260246000fd5b6020026020010151896007815181106200017f57634e487b7160e01b600052603260045260246000fd5b60200260200101518a600881518110620001a957634e487b7160e01b600052603260045260246000fd5b60200260200101518f8f81620001c46200032e60201b60201c565b815160208084019190912082518383012060e08290526101008190524660a0818152604080517f8b73c3c69bb8fe3d512ecc4cf759cc79239f7b179b0ffacaa9a75d522b39400f81880181905281830187905260608201869052608082019490945230818401528151808203909301835260c00190528051940193909320919290916080523060601b60c05261012052505083516200026d925060029150602085019062000662565b5080516200028390600390602084019062000662565b50505062000297896200034b60201b60201c565b620002a2886200038c565b620002ad87620003cd565b620002b88662000473565b620002c385620004b4565b620002ce84620004f5565b620002d98362000536565b620002e48262000577565b620002ef81620005b8565b620002fa33620005f9565b5050506001600160601b0319606098891b8116610140529690971b90951661016052506200095f9950505050505050505050565b604080518082019091526003815262322e3960e81b602082015290565b60075460408051918252602082018390527fd299feb1d7d9345a48559601c471c3be7eea9a11f21d5e86809198f40a974db4910160405180910390a1600755565b60085460408051918252602082018390527fc565b045403dc03c2eea82b81a0465edad9e2e7fc4d97e11421c209da93d7a93910160405180910390a1600855565b60008111620004325760405162461bcd60e51b815260206004820152602760248201527f476f7665726e6f7253657474696e67733a20766f74696e6720706572696f6420604482015266746f6f206c6f7760c81b606482015260840160405180910390fd5b60095460408051918252602082018390527f7e3f7f0708a84de9203036abaa450dccc85ad5ff52f78c170f3edb55cf5e8828910160405180910390a1600955565b600a5460408051918252602082018390527f70d92b9b65fcaa7708049081fd0ad601c9af76bd86d38df0337dfce3d025ec83910160405180910390a1600a55565b600b5460408051918252602082018390527fccb45da8d5717e6c4544694297c4ba5cf151d455c9bb0ed4fc7a38411bc05461910160405180910390a1600b55565b600c5460408051918252602082018390527fe971b819c7fb95c72451f557226aceb5baaf4994a9d39a79bbfa0040e87500b9910160405180910390a1600c55565b600d5460408051918252602082018390527f4984ec996723330ee95979ed65a2a4b41edd914e68a187efe92596474643bdff910160405180910390a1600d55565b600e5460408051918252602082018390527f9c7b27f091caef3a83be73d89320404fa0c4a52993685ff0651672e49e6e55ab910160405180910390a1600e55565b600f5460408051918252602082018390527f5f16486d27561553b443370316cba86e966b1e5ec1691fa07c81944abf314441910160405180910390a1600f55565b601054604080516001600160a01b03928316815291831660208301527fc30034fc2e9697980e08935bbc287db3eaa44a4aa113ef4c108b356adbf911ce910160405180910390a1601080546001600160a01b0319166001600160a01b0392909216919091179055565b82805462000670906200090c565b90600052602060002090601f016020900481019282620006945760008555620006df565b82601f10620006af57805160ff1916838001178555620006df565b82800160010185558215620006df579182015b82811115620006df578251825591602001919060010190620006c2565b50620006ed929150620006f1565b5090565b5b80821115620006ed5760008155600101620006f2565b80516001600160a01b03811681146200072057600080fd5b919050565b600082601f83011262000736578081fd5b81516001600160401b0381111562000752576200075262000949565b602062000768601f8301601f19168201620008d9565b82815285828487010111156200077c578384fd5b835b838110156200079b5785810183015182820184015282016200077e565b83811115620007ac57848385840101525b5095945050505050565b600080600080600060a08688031215620007ce578081fd5b85516001600160401b0380821115620007e5578283fd5b620007f389838a0162000725565b96506020915081880151818111156200080a578384fd5b620008188a828b0162000725565b965050620008296040890162000708565b9450620008396060890162000708565b93506080880151818111156200084d578384fd5b8801601f81018a136200085e578384fd5b80518281111562000873576200087362000949565b8060051b925062000886848401620008d9565b8181528481019083860185850187018e1015620008a1578788fd5b8795505b83861015620008c5578051835260019590950194918601918601620008a5565b508096505050505050509295509295909350565b604051601f8201601f191681016001600160401b038111828210171562000904576200090462000949565b604052919050565b600181811c908216806200092157607f821691505b602082108114156200094357634e487b7160e01b600052602260045260246000fd5b50919050565b634e487b7160e01b600052604160045260246000fd5b60805160a05160c05160601c60e05161010051610120516101405160601c6101605160601c6130df620009e3600039600081816103ea015261206a01526000818161088d0152818161210901526121d901526000612593015260006125e2015260006125bd01526000612516015260006125400152600061256a01526130df6000f3fe60806040526004361061026a5760003560e01c80639c02817611610144578063dd4e2ba5116100b6578063efa90d361161007a578063efa90d36146107fc578063f0a7db0a14610811578063f36310b114610831578063f4f3d7ec14610846578063fb9bf8d414610866578063fc0c546a1461087b57600080fd5b8063dd4e2ba514610738578063deaaa7cc1461077e578063e031535b146107b2578063ea8a1af0146107c7578063eb9019d4146107dc57600080fd5b8063b58131b011610108578063b58131b01461067f578063bd65e80a14610694578063c19d93fb146106b4578063c7f758a8146106d6578063d17ad2d414610703578063d45a010b1461072357600080fd5b80639c028176146105bc578063aa98df39146105dc578063aec116b6146105fc578063b323580d14610632578063b4b5ea571461065f57600080fd5b8063462a2ad8116101dd5780635f953a03116101a15780635f953a03146104da57806360506ff6146105105780636e4eb81014610525578063785ddfe5146105745780637c65d71114610592578063832009af146105a757600080fd5b8063462a2ad81461040c57806350a5e5241461042c578063540a91901461044f578063544ffc9c1461046457806354fd4d50146104ae57600080fd5b80631566f60d1161022f5780631566f60d14610334578063262e59e9146103545780633932abb1146103695780633b6d199b1461037e578063427d56c2146103ab5780634367aa40146103d857600080fd5b80624114a81461027857806301ffc9a7146102a057806302a251a3146102d057806302d05d3f146102e557806306fdde031461031257600080fd5b3661027357005b005b600080fd5b34801561028457600080fd5b5061028d6108af565b6040519081526020015b60405180910390f35b3480156102ac57600080fd5b506102c06102bb366004612adf565b6108bf565b6040519015158152602001610297565b3480156102dc57600080fd5b5061028d6108f6565b3480156102f157600080fd5b506102fa610901565b6040516001600160a01b039091168152602001610297565b34801561031e57600080fd5b50610327610915565b6040516102979190612e7a565b34801561034057600080fd5b5061028d61034f366004612c27565b6109a7565b34801561036057600080fd5b5061028d6109fb565b34801561037557600080fd5b5061028d610a17565b34801561038a57600080fd5b5061028d610399366004612b94565b60009081526001602052604090205490565b3480156103b757600080fd5b506103cb6103c6366004612abf565b610a22565b6040516102979190612ddf565b3480156103e457600080fd5b506102fa7f000000000000000000000000000000000000000000000000000000000000000081565b34801561041857600080fd5b5061028d6104273660046129d0565b610b87565b34801561043857600080fd5b50610441610b92565b604051610297929190612df2565b34801561045b57600080fd5b50600a5461028d565b34801561047057600080fd5b5061049961047f366004612b94565b600090815260126020526040902080546001909101549091565b60408051928352602083019190915201610297565b3480156104ba57600080fd5b50604080518082019091526003815262322e3960e81b6020820152610327565b3480156104e657600080fd5b5061028d6104f53660046129d0565b6001600160a01b031660009081526006602052604090205490565b34801561051c57600080fd5b5061028d610cc3565b34801561053157600080fd5b50610499610540366004612bc4565b60008281526012602090815260408083206001600160a01b0385168452600301909152902080546001909101549250929050565b34801561058057600080fd5b506013546001600160a01b03166102fa565b34801561059e57600080fd5b50610327610cce565b3480156105b357600080fd5b5061028d610cdd565b3480156105c857600080fd5b5061028d6105d7366004612bf3565b610ce8565b3480156105e857600080fd5b5061028d6105f7366004612b07565b610d15565b34801561060857600080fd5b5061028d6106173660046129d0565b6001600160a01b031660009081526011602052604090205490565b34801561063e57600080fd5b5061065261064d366004612b94565b6112a2565b6040516102979190612d92565b34801561066b57600080fd5b5061028d61067a3660046129d0565b611314565b34801561068b57600080fd5b5061028d61131f565b3480156106a057600080fd5b5061028d6106af366004612b07565b61132a565b3480156106c057600080fd5b506106c961135b565b6040516102979190612e52565b3480156106e257600080fd5b506106f66106f1366004612b94565b6113cd565b6040516102979190612e8d565b34801561070f57600080fd5b5061028d61071e366004612cb6565b6114d1565b34801561072f57600080fd5b50610441611567565b34801561074457600080fd5b5060408051808201909152601881527f737570706f72743d627261766f2671756f72756d3d666f7200000000000000006020820152610327565b34801561078a57600080fd5b5061028d7f150214d74d59b7d1e90c73fc22ef3d991dd0a76b046543d4d80ab92d2a50328f81565b3480156107be57600080fd5b5061028d611796565b3480156107d357600080fd5b506102716117a8565b3480156107e857600080fd5b5061028d6107f73660046129ec565b6118ae565b34801561080857600080fd5b506103cb6118ba565b34801561081d57600080fd5b5061027161082c366004612a17565b611911565b34801561083d57600080fd5b5061028d611b93565b34801561085257600080fd5b506102716108613660046129d0565b611b9e565b34801561087257600080fd5b5061028d611c39565b34801561088757600080fd5b506102fa7f000000000000000000000000000000000000000000000000000000000000000081565b60006108ba60075490565b905090565b60006001600160e01b031982166333d3a7df60e21b14806108f057506301ffc9a760e01b6001600160e01b03198316145b92915050565b60006108ba60095490565b60006108ba6010546001600160a01b031690565b60606002805461092490612fd5565b80601f016020809104026020016040519081016040528092919081815260200182805461095090612fd5565b801561099d5780601f106109725761010080835404028352916020019161099d565b820191906000526020600020905b81548152906001019060200180831161098057829003601f168201915b5050505050905090565b6000803390506109f08782888888888080601f016020809104026020016040519081016040528093929190818152602001838380828437600092019190915250611c4492505050565b979650505050505050565b6000610a056108f6565b610a0d611796565b6108ba9190612f67565b60006108ba60085490565b606060008083610a3957610a34610b92565b610a41565b610a41611567565b915091506000825167ffffffffffffffff811115610a6f57634e487b7160e01b600052604160045260246000fd5b604051908082528060200260200182016040528015610a98578160200160208202803683370190505b50905060005b8251811015610b4657828181518110610ac757634e487b7160e01b600052603260045260246000fd5b602002602001015160200151838281518110610af357634e487b7160e01b600052603260045260246000fd5b602002602001015160000151610b099190612f7f565b828281518110610b2957634e487b7160e01b600052603260045260246000fd5b602090810291909101015280610b3e81613010565b915050610a9e565b5060005b60018451610b589190612fbe565b811015610b7d57610b6a818386611e55565b5080610b7581613010565b915050610b4a565b5091949350505050565b60006108f082612048565b6060806000610b9f6118ba565b90506000815167ffffffffffffffff811115610bcb57634e487b7160e01b600052604160045260246000fd5b604051908082528060200260200182016040528015610c1057816020015b6040805180820190915260008082526020820152815260200190600190039081610be95790505b50905060005b8251811015610cb95760126000848381518110610c4357634e487b7160e01b600052603260045260246000fd5b6020026020010151815260200190815260200160002060000160405180604001604052908160008201548152602001600182015481525050828281518110610c9b57634e487b7160e01b600052603260045260246000fd5b60200260200101819052508080610cb190613010565b915050610c16565b5090939092509050565b60006108ba600e5490565b60606003805461092490612fd5565b60006108ba600c5490565b600080339050610d0a8582868660405180602001604052806000815250611c44565b9150505b9392505050565b60006003610d2161135b565b6004811115610d4057634e487b7160e01b600052602160045260246000fd5b14610db85760405162461bcd60e51b815260206004820152603e60248201527f476f7665726e6f723a20636f6e74657374206d7573742062652071756575656460448201527f20666f722070726f706f73616c7320746f206265207375626d6974746564000060648201526084015b60405180910390fd5b610dc0610cdd565b3360009081526006602052604090205410610e695760405162461bcd60e51b815260206004820152605d60248201527f476f7665726e6f723a207468652073616d652063616e6e6f74207375626d697460448201527f206d6f7265207468616e20746865206e756d416c6c6f77656450726f706f736160648201527f6c5375626d697373696f6e7320666f72207468697320636f6e74657374000000608482015260a401610daf565b610e71611c39565b60005410610ee75760405162461bcd60e51b815260206004820152603960248201527f476f7665726e6f723a20746865206d6178206e756d626572206f662070726f7060448201527f6f73616c732068617665206265656e207375626d6974746564000000000000006064820152608401610daf565b610eef611b93565b60011415610f8d57610eff61131f565b610f0833611314565b1015610f885760405162461bcd60e51b815260206004820152604360248201527f476f7665726e6f72436f6d7061746962696c697479427261766f3a2070726f7060448201527f6f73657220766f7465732062656c6f772070726f706f73616c207468726573686064820152621bdb1960ea1b608482015260a401610daf565b6110c4565b610f95611b93565b61104457610fa161131f565b610faa33610b87565b1015610f885760405162461bcd60e51b815260206004820152605b60248201527f476f7665726e6f72436f6d7061746962696c697479427261766f3a2070726f7060448201527f6f736572207375626d697373696f6e20676174696e6720746f6b656e20766f7460648201527f65732062656c6f772070726f706f73616c207468726573686f6c640000000000608482015260a401610daf565b60405162461bcd60e51b815260206004820152604960248201527f7375626d697373696f6e476174696e674279566f74696e67546f6b656e206d7560448201527f73742062652073657420746f20656974686572207472756520283129206f722060648201526866616c73652028302960b81b608482015260a401610daf565b81516111125760405162461bcd60e51b815260206004820152601860248201527f476f7665726e6f723a20656d7074792070726f706f73616c00000000000000006044820152606401610daf565b600061111d8361132a565b60008181526005602052604090206002015490915060ff16156111945760405162461bcd60e51b815260206004820152602960248201527f476f7665726e6f723a206475706c69636174652070726f706f73616c73206e6f6044820152681d08185b1b1bddd95960ba1b6064820152608401610daf565b60008054600180820183557f290decd9548b62a8d60345a988386fc84ba6bc95484008f6362f93160ef3e5639091018390556040805160608101825233815260208082018881528284018590528686526005825292909420815181546001600160a01b0319166001600160a01b0390911617815591518051919492936112209390850192910190612921565b50604091820151600291909101805460ff1916911515919091179055336000908152600660205290812080546001929061125b908490612f67565b909155507fc8c078bfee58e5822588f08b4509ed1eb5058e03f666cca84dd2d44bf5c288a8905081843360405161129493929190612ed3565b60405180910390a192915050565b600081815260126020908152604091829020600281018054845181850281018501909552808552606094929383018282801561130757602002820191906000526020600020905b81546001600160a01b031681526001909101906020018083116112e9575b5050505050915050919050565b60006108f0826120e7565b60006108ba600b5490565b60008160405160200161133d9190612e7a565b60408051601f19818403018152919052805160209091012092915050565b60045460009060ff161561136f5750600290565b60006113796108af565b905042811061138a57600091505090565b6000611394611796565b90504281106113a65760039250505090565b60006113b06109fb565b90504281106113c3576001935050505090565b6004935050505090565b6113fc604051806060016040528060006001600160a01b03168152602001606081526020016000151581525090565b60008281526005602090815260409182902082516060810190935280546001600160a01b03168352600181018054919284019161143890612fd5565b80601f016020809104026020016040519081016040528092919081815260200182805461146490612fd5565b80156114b15780601f10611486576101008083540402835291602001916114b1565b820191906000526020600020905b81548152906001019060200180831161149457829003601f168201915b50505091835250506002919091015460ff16151560209091015292915050565b604080517f150214d74d59b7d1e90c73fc22ef3d991dd0a76b046543d4d80ab92d2a50328f602082015290810187905260ff86166060820152600090819061153d90611535906080016040516020818303038152906040528051906020012061213a565b868686612188565b905061155b8882898960405180602001604052806000815250611c44565b98975050505050505050565b60608060006115746118ba565b90506000815167ffffffffffffffff8111156115a057634e487b7160e01b600052604160045260246000fd5b6040519080825280602002602001820160405280156115c9578160200160208202803683370190505b5090506000825167ffffffffffffffff8111156115f657634e487b7160e01b600052604160045260246000fd5b60405190808252806020026020018201604052801561163b57816020015b60408051808201909152600080825260208201528152602001906001900390816116145790505b5090506000805b845181101561178a5761168885828151811061166e57634e487b7160e01b600052603260045260246000fd5b602002602001015160009081526001602052604090205490565b600114611778578481815181106116af57634e487b7160e01b600052603260045260246000fd5b60200260200101518483815181106116d757634e487b7160e01b600052603260045260246000fd5b6020026020010181815250506012600086838151811061170757634e487b7160e01b600052603260045260246000fd5b602002602001015181526020019081526020016000206000016040518060400160405290816000820154815260200160018201548152505083838151811061175f57634e487b7160e01b600052603260045260246000fd5b6020908102919091010152611775600183612f67565b91505b8061178281613010565b915050611642565b50919590945092505050565b60006117a0610a17565b610a0d6108af565b6117b0610901565b6001600160a01b0316336001600160a01b0316146117cd57600080fd5b60006117d761135b565b905060028160048111156117fb57634e487b7160e01b600052602160045260246000fd5b141580156118295750600481600481111561182657634e487b7160e01b600052602160045260246000fd5b14155b6118755760405162461bcd60e51b815260206004820152601c60248201527f476f7665726e6f723a20636f6e74657374206e6f7420616374697665000000006044820152606401610daf565b6004805460ff191660011790556040517f4cd963a081760a54f571abc0f1db4dde31b4a07d8d6da3e844b8c6f47eeaaa4290600090a150565b6000610d0e83836121b0565b6060600080548060200260200160405190810160405280929190818152602001828054801561099d57602002820191906000526020600020905b8154815260200190600101908083116118f4575050505050905090565b611919610901565b6001600160a01b0316336001600160a01b03161461199f5760405162461bcd60e51b815260206004820152603760248201527f476f7665726e6f723a206f6e6c792074686520636f6e7465737420637265617460448201527f6f722063616e2064656c6574652070726f706f73616c730000000000000000006064820152608401610daf565b60046119a961135b565b60048111156119c857634e487b7160e01b600052602160045260246000fd5b1415611a4e5760405162461bcd60e51b815260206004820152604960248201527f476f7665726e6f723a2064656c6574696f6e206f662070726f706f73616c732060448201527f61667465722074686520656e64206f66206120636f6e74657374206973206e6f6064820152681d08185b1b1bddd95960ba1b608482015260a401610daf565b60005b8151811015611b585760016000838381518110611a7e57634e487b7160e01b600052603260045260246000fd5b6020026020010151815260200190815260200160002054600114611b46576001806000848481518110611ac157634e487b7160e01b600052603260045260246000fd5b60200260200101518152602001908152602001600020819055506040518060600160405280603d815260200161306d603d913960056000848481518110611b1857634e487b7160e01b600052603260045260246000fd5b602002602001015181526020019081526020016000206001019080519060200190611b44929190612921565b505b80611b5081613010565b915050611a51565b507f75a75cf5c561892f4cc5b26c1b8e933849b42238c96dd073d080d1ae96c5141681604051611b889190612ddf565b60405180910390a150565b60006108ba600f5490565b611ba6610901565b6001600160a01b0316336001600160a01b031614611bc357600080fd5b6000611bd76013546001600160a01b031690565b601380546001600160a01b0319166001600160a01b0385811691821790925560408051928416835260208301919091529192507f753a2cf8d360cff631674504210913e48247f8e56b3e6d2006c2103d4095999f910160405180910390a15050565b60006108ba600d5490565b60006001611c5061135b565b6004811115611c6f57634e487b7160e01b600052602160045260246000fd5b14611cc85760405162461bcd60e51b815260206004820152602360248201527f476f7665726e6f723a20766f7465206e6f742063757272656e746c792061637460448201526269766560e81b6064820152608401610daf565b60008311611d3e5760405162461bcd60e51b815260206004820152603760248201527f476f7665726e6f72566f74696e6753696d706c653a2063616e6e6f7420766f7460448201527f6520776974682030206f7220666577657220766f7465730000000000000000006064820152608401610daf565b6000611d4d866107f7600a5490565b905060008111611df75760405162461bcd60e51b815260206004820152606360248201527f476f7665726e6f72566f74696e6753696d706c653a20796f75206d757374206860448201527f6176652067726561746572207468616e20302064656c65676174656420766f7460648201527f65732061742074686520736e617073686f7420696e206f7264657220746f20766084820152626f746560e81b60a482015260c401610daf565b611e048787878785612255565b856001600160a01b03167fb8e138887d0aa13bab447e82de9d5c1777041ecd21ca36ba824ff1e6c07ddda488878787604051611e439493929190612f04565b60405180910390a29695505050505050565b600083805b8451811015611ecf57848281518110611e8357634e487b7160e01b600052603260045260246000fd5b6020026020010151858281518110611eab57634e487b7160e01b600052603260045260246000fd5b60200260200101511215611ebd578091505b80611ec781613010565b915050611e5a565b5084811415611ee2576000915050610d0e565b6000848681518110611f0457634e487b7160e01b600052603260045260246000fd5b60200260200101519050848281518110611f2e57634e487b7160e01b600052603260045260246000fd5b6020026020010151858781518110611f5657634e487b7160e01b600052603260045260246000fd5b60200260200101818152505080858381518110611f8357634e487b7160e01b600052603260045260246000fd5b6020026020010181815250506000848781518110611fb157634e487b7160e01b600052603260045260246000fd5b60200260200101519050848381518110611fdb57634e487b7160e01b600052603260045260246000fd5b602002602001015185888151811061200357634e487b7160e01b600052603260045260246000fd5b6020026020010181815250508085848151811061203057634e487b7160e01b600052603260045260246000fd5b60209081029190910101525060019695505050505050565b6040516309ab24eb60e41b81526001600160a01b0382811660048301526000917f000000000000000000000000000000000000000000000000000000000000000090911690639ab24eb0906024015b60206040518083038186803b1580156120af57600080fd5b505afa1580156120c3573d6000803e3d6000fd5b505050506040513d601f19601f820116820180604052508101906108f09190612bac565b6040516309ab24eb60e41b81526001600160a01b0382811660048301526000917f000000000000000000000000000000000000000000000000000000000000000090911690639ab24eb090602401612097565b60006108f0612147612509565b8360405161190160f01b6020820152602281018390526042810182905260009060620160405160208183030381529060405280519060200120905092915050565b600080600061219987878787612630565b915091506121a68161271d565b5095945050505050565b604051630748d63560e31b81526001600160a01b038381166004830152602482018390526000917f000000000000000000000000000000000000000000000000000000000000000090911690633a46b1a89060440160206040518083038186803b15801561221d57600080fd5b505afa158015612231573d6000803e3d6000fd5b505050506040513d601f19601f82011682018060405250810190610d0e9190612bac565b60008581526012602090815260408083206001600160a01b03881684526011909252909120546122859083612fbe565b8311156122f05760405162461bcd60e51b815260206004820152603360248201527f476f7665726e6f72566f74696e6753696d706c653a206e6f7420656e6f756768604482015272081d9bdd195cc81b19599d081d1bc818d85cdd606a1b6064820152608401610daf565b6001600160a01b03851660009081526003820160205260409020541560ff851661236257815484908390600090612328908490612f67565b90915550506001600160a01b038616600090815260038301602052604081208054869290612357908490612f67565b9091555061249c9050565b60ff85166001141561243657612376610cc3565b6001146123ed576040805162461bcd60e51b81526020600482015260248101919091527f476f7665726e6f72566f74696e6753696d706c653a20646f776e766f74696e6760448201527f206973206e6f7420656e61626c656420666f72207468697320436f6e746573746064820152608401610daf565b838260000160010160008282546124049190612f67565b90915550506001600160a01b038616600090815260038301602052604081206001018054869290612357908490612f67565b60405162461bcd60e51b815260206004820152603560248201527f476f7665726e6f72566f74696e6753696d706c653a20696e76616c69642076616044820152746c756520666f7220656e756d20566f74655479706560581b6064820152608401610daf565b80156124d357600282018054600181018255600091825260209091200180546001600160a01b0319166001600160a01b0388161790555b6001600160a01b038616600090815260116020526040812080548692906124fb908490612f67565b909155505050505050505050565b6000306001600160a01b037f00000000000000000000000000000000000000000000000000000000000000001614801561256257507f000000000000000000000000000000000000000000000000000000000000000046145b1561258c57507f000000000000000000000000000000000000000000000000000000000000000090565b50604080517f00000000000000000000000000000000000000000000000000000000000000006020808301919091527f0000000000000000000000000000000000000000000000000000000000000000828401527f000000000000000000000000000000000000000000000000000000000000000060608301524660808301523060a0808401919091528351808403909101815260c0909201909252805191012090565b6000807f7fffffffffffffffffffffffffffffff5d576e7357a4501ddfe92f46681b20a08311156126675750600090506003612714565b8460ff16601b1415801561267f57508460ff16601c14155b156126905750600090506004612714565b6040805160008082526020820180845289905260ff881692820192909252606081018690526080810185905260019060a0016020604051602081039080840390855afa1580156126e4573d6000803e3d6000fd5b5050604051601f1901519150506001600160a01b03811661270d57600060019250925050612714565b9150600090505b94509492505050565b600081600481111561273f57634e487b7160e01b600052602160045260246000fd5b14156127485750565b600181600481111561276a57634e487b7160e01b600052602160045260246000fd5b14156127b85760405162461bcd60e51b815260206004820152601860248201527f45434453413a20696e76616c6964207369676e617475726500000000000000006044820152606401610daf565b60028160048111156127da57634e487b7160e01b600052602160045260246000fd5b14156128285760405162461bcd60e51b815260206004820152601f60248201527f45434453413a20696e76616c6964207369676e6174757265206c656e677468006044820152606401610daf565b600381600481111561284a57634e487b7160e01b600052602160045260246000fd5b14156128a35760405162461bcd60e51b815260206004820152602260248201527f45434453413a20696e76616c6964207369676e6174757265202773272076616c604482015261756560f01b6064820152608401610daf565b60048160048111156128c557634e487b7160e01b600052602160045260246000fd5b141561291e5760405162461bcd60e51b815260206004820152602260248201527f45434453413a20696e76616c6964207369676e6174757265202776272076616c604482015261756560f01b6064820152608401610daf565b50565b82805461292d90612fd5565b90600052602060002090601f01602090048101928261294f5760008555612995565b82601f1061296857805160ff1916838001178555612995565b82800160010185558215612995579182015b8281111561299557825182559160200191906001019061297a565b506129a19291506129a5565b5090565b5b808211156129a157600081556001016129a6565b803560ff811681146129cb57600080fd5b919050565b6000602082840312156129e1578081fd5b8135610d0e81613057565b600080604083850312156129fe578081fd5b8235612a0981613057565b946020939093013593505050565b60006020808385031215612a29578182fd5b823567ffffffffffffffff80821115612a40578384fd5b818501915085601f830112612a53578384fd5b813581811115612a6557612a65613041565b8060051b9150612a76848301612f36565b8181528481019084860184860187018a1015612a90578788fd5b8795505b83861015612ab2578035835260019590950194918601918601612a94565b5098975050505050505050565b600060208284031215612ad0578081fd5b81358015158114610d0e578182fd5b600060208284031215612af0578081fd5b81356001600160e01b031981168114610d0e578182fd5b60006020808385031215612b19578182fd5b823567ffffffffffffffff80821115612b30578384fd5b818501915085601f830112612b43578384fd5b813581811115612b5557612b55613041565b612b67601f8201601f19168501612f36565b91508082528684828501011115612b7c578485fd5b80848401858401378101909201929092529392505050565b600060208284031215612ba5578081fd5b5035919050565b600060208284031215612bbd578081fd5b5051919050565b60008060408385031215612bd6578182fd5b823591506020830135612be881613057565b809150509250929050565b600080600060608486031215612c07578081fd5b83359250612c17602085016129ba565b9150604084013590509250925092565b600080600080600060808688031215612c3e578081fd5b85359450612c4e602087016129ba565b935060408601359250606086013567ffffffffffffffff80821115612c71578283fd5b818801915088601f830112612c84578283fd5b813581811115612c92578384fd5b896020828501011115612ca3578384fd5b9699959850939650602001949392505050565b60008060008060008060c08789031215612cce578384fd5b86359550612cde602088016129ba565b945060408701359350612cf3606088016129ba565b92506080870135915060a087013590509295509295509295565b6000815180845260208085019450808401835b83811015612d3c57815187529582019590820190600101612d20565b509495945050505050565b60008151808452815b81811015612d6c57602081850181015186830182015201612d50565b81811115612d7d5782602083870101525b50601f01601f19169290920160200192915050565b6020808252825182820181905260009190848201906040850190845b81811015612dd35783516001600160a01b031683529284019291840191600101612dae565b50909695505050505050565b602081526000610d0e6020830184612d0d565b60006040808352612e0581840186612d0d565b838103602085810191909152855180835286820192820190855b81811015612e4457845180518452840151848401529383019391850191600101612e1f565b509098975050505050505050565b6020810160058310612e7457634e487b7160e01b600052602160045260246000fd5b91905290565b602081526000610d0e6020830184612d47565b602080825282516001600160a01b03168282015282015160606040830152600090612ebb6080840182612d47565b90506040840151151560608401528091505092915050565b838152606060208201526000612eec6060830185612d47565b905060018060a01b0383166040830152949350505050565b84815260ff84166020820152826040820152608060608201526000612f2c6080830184612d47565b9695505050505050565b604051601f8201601f1916810167ffffffffffffffff81118282101715612f5f57612f5f613041565b604052919050565b60008219821115612f7a57612f7a61302b565b500190565b60008083128015600160ff1b850184121615612f9d57612f9d61302b565b6001600160ff1b0384018313811615612fb857612fb861302b565b50500390565b600082821015612fd057612fd061302b565b500390565b600181811c90821680612fe957607f821691505b6020821081141561300a57634e487b7160e01b600052602260045260246000fd5b50919050565b60006000198214156130245761302461302b565b5060010190565b634e487b7160e01b600052601160045260246000fd5b634e487b7160e01b600052604160045260246000fd5b6001600160a01b038116811461291e57600080fdfe546869732070726f706f73616c20686173206265656e2064656c65746564206279207468652063726561746f72206f662074686520636f6e746573742ea26469706673582212202bbfed9ea43c8c32d277ad5ea2cad5dbd66bb6143df4ef161fb3fdb7278f822a64736f6c63430008040033",
  "linkReferences": {},
  "deployedLinkReferences": {}
}