{
  "abi": [
    {
      "inputs": [
        {
          "internalType": "uint256[]",
          "name": "payees",
          "type": "uint256[]"
        },
        {
          "internalType": "uint256[]",
          "name": "shares_",
          "type": "uint256[]"
        },
        {
          "internalType": "contract GovernorCountingSimple",
          "name": "underlyingContest_",
          "type": "address"
        },
        {
          "internalType": "bool",
          "name": "paysOutTarget_",
          "type": "bool"
        }
      ],
      "stateMutability": "payable",
      "type": "constructor"
    },
    {
      "inputs": [],
      "name": "AccountAlreadyHasShares",
      "type": "error"
    },
    {
      "inputs": [],
      "name": "AccountNotDueERC20Payment",
      "type": "error"
    },
    {
      "inputs": [],
      "name": "AccountNotDueNativePayment",
      "type": "error"
    },
    {
      "inputs": [],
      "name": "CannotPayOutToZeroAddress",
      "type": "error"
    },
    {
      "inputs": [],
      "name": "ContestMustBeCompleted",
      "type": "error"
    },
    {
      "inputs": [],
      "name": "MustHaveAtLeastOnePayee",
      "type": "error"
    },
    {
      "inputs": [],
      "name": "MustHaveDownvotingDisabled",
      "type": "error"
    },
    {
      "inputs": [],
      "name": "MustHaveSortingEnabled",
      "type": "error"
    },
    {
      "inputs": [],
      "name": "OnlyCreatorCanWithdraw",
      "type": "error"
    },
    {
      "inputs": [],
      "name": "PayeesSharesLengthMismatch",
      "type": "error"
    },
    {
      "inputs": [],
      "name": "PayoutRankCannotBeZero",
      "type": "error"
    },
    {
      "inputs": [],
      "name": "RankingCannotBeZero",
      "type": "error"
    },
    {
      "inputs": [],
      "name": "RankingHasNoShares",
      "type": "error"
    },
    {
      "inputs": [],
      "name": "SharesCannotBeZero",
      "type": "error"
    },
    {
      "inputs": [],
      "name": "TotalSharesCannotBeZero",
      "type": "error"
    },
    {
      "anonymous": false,
      "inputs": [
        {
          "indexed": true,
          "internalType": "contract IERC20",
          "name": "token",
          "type": "address"
        },
        {
          "indexed": false,
          "internalType": "address",
          "name": "to",
          "type": "address"
        },
        {
          "indexed": false,
          "internalType": "uint256",
          "name": "amount",
          "type": "uint256"
        }
      ],
      "name": "ERC20PaymentReleased",
      "type": "event"
    },
    {
      "anonymous": false,
      "inputs": [
        {
          "indexed": true,
          "internalType": "contract IERC20",
          "name": "token",
          "type": "address"
        },
        {
          "indexed": false,
          "internalType": "address",
          "name": "by",
          "type": "address"
        },
        {
          "indexed": false,
          "internalType": "uint256",
          "name": "amount",
          "type": "uint256"
        }
      ],
      "name": "ERC20RewardWithdrawn",
      "type": "event"
    },
    {
      "anonymous": false,
      "inputs": [
        {
          "indexed": false,
          "internalType": "uint256",
          "name": "ranking",
          "type": "uint256"
        },
        {
          "indexed": false,
          "internalType": "uint256",
          "name": "shares",
          "type": "uint256"
        }
      ],
      "name": "PayeeAdded",
      "type": "event"
    },
    {
      "anonymous": false,
      "inputs": [
        {
          "indexed": false,
          "internalType": "address",
          "name": "from",
          "type": "address"
        },
        {
          "indexed": false,
          "internalType": "uint256",
          "name": "amount",
          "type": "uint256"
        }
      ],
      "name": "PaymentReceived",
      "type": "event"
    },
    {
      "anonymous": false,
      "inputs": [
        {
          "indexed": false,
          "internalType": "address",
          "name": "to",
          "type": "address"
        },
        {
          "indexed": false,
          "internalType": "uint256",
          "name": "amount",
          "type": "uint256"
        }
      ],
      "name": "PaymentReleased",
      "type": "event"
    },
    {
      "anonymous": false,
      "inputs": [
        {
          "indexed": false,
          "internalType": "address",
          "name": "by",
          "type": "address"
        },
        {
          "indexed": false,
          "internalType": "uint256",
          "name": "amount",
          "type": "uint256"
        }
      ],
      "name": "RewardWithdrawn",
      "type": "event"
    },
    {
      "inputs": [],
      "name": "creator",
      "outputs": [
        {
          "internalType": "address",
          "name": "",
          "type": "address"
        }
      ],
      "stateMutability": "view",
      "type": "function"
    },
    {
      "inputs": [
        {
          "internalType": "uint256",
          "name": "ranking",
          "type": "uint256"
        }
      ],
      "name": "getAddressToPayOut",
      "outputs": [
        {
          "internalType": "address",
          "name": "",
          "type": "address"
        }
      ],
      "stateMutability": "view",
      "type": "function"
    },
    {
      "inputs": [],
      "name": "getPayees",
      "outputs": [
        {
          "internalType": "uint256[]",
          "name": "",
          "type": "uint256[]"
        }
      ],
      "stateMutability": "view",
      "type": "function"
    },
    {
      "inputs": [],
      "name": "paysOutTarget",
      "outputs": [
        {
          "internalType": "bool",
          "name": "",
          "type": "bool"
        }
      ],
      "stateMutability": "view",
      "type": "function"
    },
    {
      "inputs": [
        {
          "internalType": "contract IERC20",
          "name": "token",
          "type": "address"
        },
        {
          "internalType": "uint256",
          "name": "ranking",
          "type": "uint256"
        }
      ],
      "name": "releasable",
      "outputs": [
        {
          "internalType": "uint256",
          "name": "",
          "type": "uint256"
        }
      ],
      "stateMutability": "view",
      "type": "function"
    },
    {
      "inputs": [
        {
          "internalType": "uint256",
          "name": "ranking",
          "type": "uint256"
        }
      ],
      "name": "releasable",
      "outputs": [
        {
          "internalType": "uint256",
          "name": "",
          "type": "uint256"
        }
      ],
      "stateMutability": "view",
      "type": "function"
    },
    {
      "inputs": [
        {
          "internalType": "contract IERC20",
          "name": "token",
          "type": "address"
        },
        {
          "internalType": "uint256",
          "name": "ranking",
          "type": "uint256"
        }
      ],
      "name": "release",
      "outputs": [],
      "stateMutability": "nonpayable",
      "type": "function"
    },
    {
      "inputs": [
        {
          "internalType": "uint256",
          "name": "ranking",
          "type": "uint256"
        }
      ],
      "name": "release",
      "outputs": [],
      "stateMutability": "nonpayable",
      "type": "function"
    },
    {
      "inputs": [
        {
          "internalType": "uint256",
          "name": "ranking",
          "type": "uint256"
        }
      ],
      "name": "released",
      "outputs": [
        {
          "internalType": "uint256",
          "name": "",
          "type": "uint256"
        }
      ],
      "stateMutability": "view",
      "type": "function"
    },
    {
      "inputs": [
        {
          "internalType": "contract IERC20",
          "name": "token",
          "type": "address"
        },
        {
          "internalType": "uint256",
          "name": "ranking",
          "type": "uint256"
        }
      ],
      "name": "released",
      "outputs": [
        {
          "internalType": "uint256",
          "name": "",
          "type": "uint256"
        }
      ],
      "stateMutability": "view",
      "type": "function"
    },
    {
      "inputs": [
        {
          "internalType": "uint256",
          "name": "ranking",
          "type": "uint256"
        }
      ],
      "name": "runReleaseChecks",
      "outputs": [],
      "stateMutability": "view",
      "type": "function"
    },
    {
      "inputs": [
        {
          "internalType": "uint256",
          "name": "ranking",
          "type": "uint256"
        }
      ],
      "name": "shares",
      "outputs": [
        {
          "internalType": "uint256",
          "name": "",
          "type": "uint256"
        }
      ],
      "stateMutability": "view",
      "type": "function"
    },
    {
      "inputs": [
        {
          "internalType": "contract IERC20",
          "name": "token",
          "type": "address"
        }
      ],
      "name": "totalReleased",
      "outputs": [
        {
          "internalType": "uint256",
          "name": "",
          "type": "uint256"
        }
      ],
      "stateMutability": "view",
      "type": "function"
    },
    {
      "inputs": [],
      "name": "totalReleased",
      "outputs": [
        {
          "internalType": "uint256",
          "name": "",
          "type": "uint256"
        }
      ],
      "stateMutability": "view",
      "type": "function"
    },
    {
      "inputs": [],
      "name": "totalShares",
      "outputs": [
        {
          "internalType": "uint256",
          "name": "",
          "type": "uint256"
        }
      ],
      "stateMutability": "view",
      "type": "function"
    },
    {
      "inputs": [],
      "name": "underlyingContest",
      "outputs": [
        {
          "internalType": "contract GovernorCountingSimple",
          "name": "",
          "type": "address"
        }
      ],
      "stateMutability": "view",
      "type": "function"
    },
    {
      "inputs": [],
      "name": "version",
      "outputs": [
        {
          "internalType": "string",
          "name": "",
          "type": "string"
        }
      ],
      "stateMutability": "view",
      "type": "function"
    },
    {
      "inputs": [
        {
          "internalType": "contract IERC20",
          "name": "token",
          "type": "address"
        }
      ],
      "name": "withdrawRewards",
      "outputs": [],
      "stateMutability": "nonpayable",
      "type": "function"
    },
    {
      "inputs": [],
      "name": "withdrawRewards",
      "outputs": [],
      "stateMutability": "nonpayable",
      "type": "function"
    },
    {
      "stateMutability": "payable",
      "type": "receive"
    }
  ],
  "bytecode": {
    "object": "0x60e060405260405162001ce238038062001ce28339810160408190526200002691620002d5565b825184511462000049576040516324e23b4160e01b815260040160405180910390fd5b83516000036200006c57604051634c87c40160e01b815260040160405180910390fd5b60005b8451811015620000d857620000c38582815181106200009257620000926200037a565b6020026020010151858381518110620000af57620000af6200037a565b60200260200101516200011a60201b60201c565b80620000cf81620003a6565b9150506200006f565b50600054600003620000fd576040516306db759b60e21b815260040160405180910390fd5b151560c0526001600160a01b031660805250503360a052620003de565b816000036200013c5760405163d6fbfe2560e01b815260040160405180910390fd5b806000036200015e57604051633122bc0960e21b815260040160405180910390fd5b600082815260026020526040902054156200018c57604051637b4f7fb560e01b815260040160405180910390fd5b60048054600181019091557f8a35acfbc15ff81a39ae7d344fd709f28e8600b4aa8c65c6b64bfe7fe36bd19b01829055600082815260026020526040812082905554620001db908290620003c2565b60005560408051838152602081018390527f78bc0e219b874bf2620f7316737ec16d4bda1bb7136961e4dcb5ff0dc031cee4910160405180910390a15050565b634e487b7160e01b600052604160045260246000fd5b600082601f8301126200024357600080fd5b815160206001600160401b03808311156200026257620002626200021b565b8260051b604051601f19603f830116810181811084821117156200028a576200028a6200021b565b604052938452858101830193838101925087851115620002a957600080fd5b83870191505b84821015620002ca57815183529183019190830190620002af565b979650505050505050565b60008060008060808587031215620002ec57600080fd5b84516001600160401b03808211156200030457600080fd5b620003128883890162000231565b955060208701519150808211156200032957600080fd5b50620003388782880162000231565b604087015190945090506001600160a01b03811681146200035857600080fd5b606086015190925080151581146200036f57600080fd5b939692955090935050565b634e487b7160e01b600052603260045260246000fd5b634e487b7160e01b600052601160045260246000fd5b600060018201620003bb57620003bb62000390565b5060010190565b80820180821115620003d857620003d862000390565b92915050565b60805160a05160c05161186b62000477600039600081816101dc0152610c1d01526000818161016b0152818161079d01528181610808015281816108b701528181610a6d01528181610ea901528181610f0a0152610f4e01526000818161044a0152818161094d015281816109f301528181610aac01528181610b4301528181610c5c01528181610cfc0152610da0015261186b6000f3fe6080604052600436106101185760003560e01c806357a858fc116100a0578063cfe8307011610064578063cfe830701461038d578063d79779b2146103d0578063e33b7de314610406578063e4bf01a81461041b578063f3f44fb71461043b57600080fd5b806357a858fc146102de57806396f7ff6e1461030b578063a94d373b1461032b578063c710404614610358578063c7b8981c1461037857600080fd5b806327f38113116100e757806327f381131461023557806337bdc99b146102575780633a98ef391461027757806342d866931461028c57806354fd4d50146102ac57600080fd5b806302d05d3f1461015c5780630357371d146101a85780631e5b4634146101ca5780632081d6311461020757600080fd5b3661015757604080513381523460208201527f6ef95f06320e7a25a04a175ca677b7052bdd97131872c2192525a629f51be770910160405180910390a1005b600080fd5b34801561016857600080fd5b507f00000000000000000000000000000000000000000000000000000000000000005b6040516001600160a01b0390911681526020015b60405180910390f35b3480156101b457600080fd5b506101c86101c3366004611366565b61046e565b005b3480156101d657600080fd5b506040517f00000000000000000000000000000000000000000000000000000000000000001515815260200161019f565b34801561021357600080fd5b50610227610222366004611366565b610585565b60405190815260200161019f565b34801561024157600080fd5b5061024a610655565b60405161019f9190611392565b34801561026357600080fd5b506101c86102723660046113d6565b6106ad565b34801561028357600080fd5b50600054610227565b34801561029857600080fd5b506101c86102a73660046113ef565b610792565b3480156102b857600080fd5b5060408051808201825260038152620d0b8d60ea1b6020820152905161019f9190611430565b3480156102ea57600080fd5b506102276102f93660046113d6565b60009081526002602052604090205490565b34801561031757600080fd5b5061018b6103263660046113d6565b610946565b34801561033757600080fd5b506102276103463660046113d6565b60009081526003602052604090205490565b34801561036457600080fd5b506101c86103733660046113d6565b610c5a565b34801561038457600080fd5b506101c8610e9e565b34801561039957600080fd5b506102276103a8366004611366565b6001600160a01b03919091166000908152600660209081526040808320938352929052205490565b3480156103dc57600080fd5b506102276103eb3660046113ef565b6001600160a01b031660009081526005602052604090205490565b34801561041257600080fd5b50600154610227565b34801561042757600080fd5b506102276104363660046113d6565b610f75565b34801561044757600080fd5b507f000000000000000000000000000000000000000000000000000000000000000061018b565b61047781610c5a565b60006104838383610585565b9050806000036104a657604051635fe559bd60e01b815260040160405180910390fd5b6001600160a01b038316600090815260056020526040812080548392906104ce908490611479565b90915550506001600160a01b0383166000908152600660209081526040808320858452909152812080548301905561050583610946565b90506001600160a01b03811661052e576040516346a3c2f960e01b815260040160405180910390fd5b604080516001600160a01b038381168252602082018590528616917f3be5b7a71e84ed12875d241991c70855ac5817d847039e17a9d895c1ceb0f18a910160405180910390a261057f848284610faf565b50505050565b6001600160a01b03821660009081526005602052604081205481906040516370a0823160e01b81523060048201526001600160a01b038616906370a0823190602401602060405180830381865afa1580156105e4573d6000803e3d6000fd5b505050506040513d601f19601f82011682018060405250810190610608919061148c565b6106129190611479565b905061064b838261064687876001600160a01b03919091166000908152600660209081526040808320938352929052205490565b611001565b9150505b92915050565b606060048054806020026020016040519081016040528092919081815260200182805480156106a357602002820191906000526020600020905b81548152602001906001019080831161068f575b5050505050905090565b6106b681610c5a565b60006106c182610f75565b9050806000036106e457604051631d1514e960e21b815260040160405180910390fd5b80600160008282546106f69190611479565b9091555050600082815260036020526040812080548301905561071883610946565b90506001600160a01b038116610741576040516346a3c2f960e01b815260040160405180910390fd5b604080516001600160a01b0383168152602081018490527fdf20fd1e76bc69d672e4814fafb2c449bba3a5369d8359adf9e05e6fde87b056910160405180910390a161078d818361103b565b505050565b336001600160a01b037f000000000000000000000000000000000000000000000000000000000000000016146107db57604051631eab0da960e01b815260040160405180910390fd5b6001600160a01b0381167f6e5fc1cbd1629d9837bd657d23cf585bbc4e9127184972606cc4c0dd406f75727f00000000000000000000000000000000000000000000000000000000000000006040516370a0823160e01b81523060048201526001600160a01b038516906370a0823190602401602060405180830381865afa15801561086b573d6000803e3d6000fd5b505050506040513d601f19601f8201168201806040525081019061088f919061148c565b604080516001600160a01b03909316835260208301919091520160405180910390a2610943817f00000000000000000000000000000000000000000000000000000000000000006040516370a0823160e01b81523060048201526001600160a01b038516906370a0823190602401602060405180830381865afa15801561091a573d6000803e3d6000fd5b505050506040513d601f19601f8201168201806040525081019061093e919061148c565b610faf565b50565b60008060007f00000000000000000000000000000000000000000000000000000000000000006001600160a01b0316635c7107d8856040518263ffffffff1660e01b815260040161099991815260200190565b602060405180830381865afa1580156109b6573d6000803e3d6000fd5b505050506040513d601f19601f820116820180604052508101906109da919061148c565b60405163245d1de360e21b8152600481018290529091507f00000000000000000000000000000000000000000000000000000000000000006001600160a01b031690639174778c90602401602060405180830381865afa158015610a42573d6000803e3d6000fd5b505050506040513d601f19601f82011682018060405250810190610a6691906114ba565b15610a93577f00000000000000000000000000000000000000000000000000000000000000009150610c53565b60405163325cc6d960e01b8152600481018290526000907f00000000000000000000000000000000000000000000000000000000000000006001600160a01b03169063325cc6d990602401602060405180830381865afa158015610afb573d6000803e3d6000fd5b505050506040513d601f19601f82011682018060405250810190610b1f919061148c565b60405163b66d1da360e01b8152600481018290529091506000906001600160a01b037f0000000000000000000000000000000000000000000000000000000000000000169063c7f758a890829063b66d1da390602401602060405180830381865afa158015610b92573d6000803e3d6000fd5b505050506040513d601f19601f82011682018060405250810190610bb6919061148c565b6040518263ffffffff1660e01b8152600401610bd491815260200190565b600060405180830381865afa158015610bf1573d6000803e3d6000fd5b505050506040513d6000823e601f3d908101601f19168201604052610c199190810190611680565b90507f0000000000000000000000000000000000000000000000000000000000000000610c47578051610c4e565b6060810151515b935050505b5092915050565b7f00000000000000000000000000000000000000000000000000000000000000006001600160a01b03166360506ff66040518163ffffffff1660e01b8152600401602060405180830381865afa158015610cb8573d6000803e3d6000fd5b505050506040513d601f19601f82011682018060405250810190610cdc919061148c565b15610cfa5760405163018e187760e61b815260040160405180910390fd5b7f00000000000000000000000000000000000000000000000000000000000000006001600160a01b031663366ecf5b6040518163ffffffff1660e01b8152600401602060405180830381865afa158015610d58573d6000803e3d6000fd5b505050506040513d601f19601f82011682018060405250810190610d7c919061148c565b600114610d9c57604051630fcdfffd60e41b815260040160405180910390fd5b60047f00000000000000000000000000000000000000000000000000000000000000006001600160a01b031663c19d93fb6040518163ffffffff1660e01b8152600401602060405180830381865afa158015610dfc573d6000803e3d6000fd5b505050506040513d601f19601f82011682018060405250810190610e2091906117ac565b6004811115610e3157610e31611796565b14610e4f57604051639c2d4c7960e01b815260040160405180910390fd5b80600003610e705760405163f9668e2960e01b815260040160405180910390fd5b600081815260026020526040812054900361094357604051632534bdfb60e11b815260040160405180910390fd5b336001600160a01b037f00000000000000000000000000000000000000000000000000000000000000001614610ee757604051631eab0da960e01b815260040160405180910390fd5b7f1d3eee4ca001cff39eec6ec7615aacf2f2bd61791273830728ba00ccbd6e13377f0000000000000000000000000000000000000000000000000000000000000000604080516001600160a01b0390921682524760208301520160405180910390a1610f737f00000000000000000000000000000000000000000000000000000000000000004761103b565b565b600080610f8160015490565b610f8b9047611479565b9050610fa883826106468660009081526003602052604090205490565b9392505050565b604080516001600160a01b038416602482015260448082018490528251808303909101815260649091019091526020810180516001600160e01b031663a9059cbb60e01b17905261078d908490611159565b600080548482526002602052604082205483919061101f90866117cd565b61102991906117e4565b6110339190611806565b949350505050565b804710156110905760405162461bcd60e51b815260206004820152601d60248201527f416464726573733a20696e73756666696369656e742062616c616e636500000060448201526064015b60405180910390fd5b6000826001600160a01b03168260405160006040518083038185875af1925050503d80600081146110dd576040519150601f19603f3d011682016040523d82523d6000602084013e6110e2565b606091505b505090508061078d5760405162461bcd60e51b815260206004820152603a60248201527f416464726573733a20756e61626c6520746f2073656e642076616c75652c207260448201527f6563697069656e74206d617920686176652072657665727465640000000000006064820152608401611087565b60006111ae826040518060400160405280602081526020017f5361666545524332303a206c6f772d6c6576656c2063616c6c206661696c6564815250856001600160a01b031661122e9092919063ffffffff16565b90508051600014806111cf5750808060200190518101906111cf91906114ba565b61078d5760405162461bcd60e51b815260206004820152602a60248201527f5361666545524332303a204552433230206f7065726174696f6e20646964206e6044820152691bdd081cdd58d8d9595960b21b6064820152608401611087565b6060611033848460008585600080866001600160a01b031685876040516112559190611819565b60006040518083038185875af1925050503d8060008114611292576040519150601f19603f3d011682016040523d82523d6000602084013e611297565b606091505b50915091506112a8878383876112b3565b979650505050505050565b6060831561132257825160000361131b576001600160a01b0385163b61131b5760405162461bcd60e51b815260206004820152601d60248201527f416464726573733a2063616c6c20746f206e6f6e2d636f6e74726163740000006044820152606401611087565b5081611033565b61103383838151156113375781518083602001fd5b8060405162461bcd60e51b81526004016110879190611430565b6001600160a01b038116811461094357600080fd5b6000806040838503121561137957600080fd5b823561138481611351565b946020939093013593505050565b6020808252825182820181905260009190848201906040850190845b818110156113ca578351835292840192918401916001016113ae565b50909695505050505050565b6000602082840312156113e857600080fd5b5035919050565b60006020828403121561140157600080fd5b8135610fa881611351565b60005b8381101561142757818101518382015260200161140f565b50506000910152565b602081526000825180602084015261144f81604085016020870161140c565b601f01601f19169190910160400192915050565b634e487b7160e01b600052601160045260246000fd5b8082018082111561064f5761064f611463565b60006020828403121561149e57600080fd5b5051919050565b805180151581146114b557600080fd5b919050565b6000602082840312156114cc57600080fd5b610fa8826114a5565b634e487b7160e01b600052604160045260246000fd5b6040805190810167ffffffffffffffff8111828210171561150e5761150e6114d5565b60405290565b60405160a0810167ffffffffffffffff8111828210171561150e5761150e6114d5565b604051601f8201601f1916810167ffffffffffffffff81118282101715611560576115606114d5565b604052919050565b60006020828403121561157a57600080fd5b6040516020810181811067ffffffffffffffff8211171561159d5761159d6114d5565b806040525080915082516115b081611351565b905292915050565b6000604082840312156115ca57600080fd5b6115d26114eb565b9050815167ffffffffffffffff808211156115ec57600080fd5b818401915084601f83011261160057600080fd5b8151602082821115611614576116146114d5565b8160051b9250611625818401611537565b828152928401810192818101908885111561163f57600080fd5b948201945b84861015611669578551935061165984611351565b8382529482019490820190611644565b808752505080860151818601525050505092915050565b6000602080838503121561169357600080fd5b825167ffffffffffffffff808211156116ab57600080fd5b9084019060a082870312156116bf57600080fd5b6116c7611514565b82516116d281611351565b81526116df8385016114a5565b848201526040830151828111156116f557600080fd5b8301601f8101881361170657600080fd5b805183811115611718576117186114d5565b61172a601f8201601f19168701611537565b818152898783850101111561173e57600080fd5b61174d8288830189860161140c565b60408401525061176290508760608501611568565b6060820152608083015193508184111561177b57600080fd5b611787878585016115b8565b60808201529695505050505050565b634e487b7160e01b600052602160045260246000fd5b6000602082840312156117be57600080fd5b815160058110610fa857600080fd5b808202811582820484141761064f5761064f611463565b60008261180157634e487b7160e01b600052601260045260246000fd5b500490565b8181038181111561064f5761064f611463565b6000825161182b81846020870161140c565b919091019291505056fea264697066735822122050d7c74343ae01547bb1537b64ed7ed60a56cce7d3181c8a53afff64aef1e1e964736f6c63430008130033",
    "linkReferences": {}
  },
  "methodIdentifiers": {
    "creator()": "02d05d3f",
    "getAddressToPayOut(uint256)": "96f7ff6e",
    "getPayees()": "27f38113",
    "paysOutTarget()": "1e5b4634",
    "releasable(address,uint256)": "2081d631",
    "releasable(uint256)": "e4bf01a8",
    "release(address,uint256)": "0357371d",
    "release(uint256)": "37bdc99b",
    "released(address,uint256)": "cfe83070",
    "released(uint256)": "a94d373b",
    "runReleaseChecks(uint256)": "c7104046",
    "shares(uint256)": "57a858fc",
    "totalReleased()": "e33b7de3",
    "totalReleased(address)": "d79779b2",
    "totalShares()": "3a98ef39",
    "underlyingContest()": "f3f44fb7",
    "version()": "54fd4d50",
    "withdrawRewards()": "c7b8981c",
    "withdrawRewards(address)": "42d86693"
  },
  "id": 36
}