{"abi":[{"type":"constructor","inputs":[{"name":"_name","type":"string","internalType":"string"},{"name":"_prompt","type":"string","internalType":"string"},{"name":"_submissionMerkleRoot","type":"bytes32","internalType":"bytes32"},{"name":"_votingMerkleRoot","type":"bytes32","internalType":"bytes32"},{"name":"_constructorIntParams","type":"uint256[]","internalType":"uint256[]"}],"stateMutability":"nonpayable"},{"type":"function","name":"AMOUNT_FOR_SUMBITTER_PROOF","inputs":[],"outputs":[{"name":"","type":"uint256","internalType":"uint256"}],"stateMutability":"view"},{"type":"function","name":"JK_LABS_ADDRESS","inputs":[],"outputs":[{"name":"","type":"address","internalType":"address"}],"stateMutability":"view"},{"type":"function","name":"METADATAS_COUNT","inputs":[],"outputs":[{"name":"","type":"uint256","internalType":"uint256"}],"stateMutability":"view"},{"type":"function","name":"addressSubmitterVerified","inputs":[{"name":"","type":"address","internalType":"address"}],"outputs":[{"name":"","type":"bool","internalType":"bool"}],"stateMutability":"view"},{"type":"function","name":"addressTotalCastVoteCounts","inputs":[{"name":"","type":"address","internalType":"address"}],"outputs":[{"name":"","type":"uint256","internalType":"uint256"}],"stateMutability":"view"},{"type":"function","name":"addressTotalVotes","inputs":[{"name":"","type":"address","internalType":"address"}],"outputs":[{"name":"","type":"uint256","internalType":"uint256"}],"stateMutability":"view"},{"type":"function","name":"addressTotalVotesVerified","inputs":[{"name":"","type":"address","internalType":"address"}],"outputs":[{"name":"","type":"bool","internalType":"bool"}],"stateMutability":"view"},{"type":"function","name":"addressesThatHaveVoted","inputs":[{"name":"","type":"uint256","internalType":"uint256"}],"outputs":[{"name":"","type":"address","internalType":"address"}],"stateMutability":"view"},{"type":"function","name":"allProposalTotalVotes","inputs":[],"outputs":[{"name":"proposalIdsReturn","type":"uint256[]","internalType":"uint256[]"},{"name":"proposalVoteCountsArrayReturn","type":"tuple[]","internalType":"struct GovernorCountingSimple.VoteCounts[]","components":[{"name":"forVotes","type":"uint256","internalType":"uint256"},{"name":"againstVotes","type":"uint256","internalType":"uint256"}]}],"stateMutability":"view"},{"type":"function","name":"cancel","inputs":[],"outputs":[],"stateMutability":"nonpayable"},{"type":"function","name":"canceled","inputs":[],"outputs":[{"name":"","type":"bool","internalType":"bool"}],"stateMutability":"view"},{"type":"function","name":"castVote","inputs":[{"name":"proposalId","type":"uint256","internalType":"uint256"},{"name":"support","type":"uint8","internalType":"uint8"},{"name":"totalVotes","type":"uint256","internalType":"uint256"},{"name":"numVotes","type":"uint256","internalType":"uint256"},{"name":"proof","type":"bytes32[]","internalType":"bytes32[]"}],"outputs":[{"name":"","type":"uint256","internalType":"uint256"}],"stateMutability":"nonpayable"},{"type":"function","name":"castVoteWithoutProof","inputs":[{"name":"proposalId","type":"uint256","internalType":"uint256"},{"name":"support","type":"uint8","internalType":"uint8"},{"name":"numVotes","type":"uint256","internalType":"uint256"}],"outputs":[{"name":"","type":"uint256","internalType":"uint256"}],"stateMutability":"nonpayable"},{"type":"function","name":"checkProof","inputs":[{"name":"addressToCheck","type":"address","internalType":"address"},{"name":"amount","type":"uint256","internalType":"uint256"},{"name":"proof","type":"bytes32[]","internalType":"bytes32[]"},{"name":"voting","type":"bool","internalType":"bool"}],"outputs":[{"name":"verified","type":"bool","internalType":"bool"}],"stateMutability":"view"},{"type":"function","name":"comment","inputs":[{"name":"proposalId","type":"uint256","internalType":"uint256"},{"name":"commentContent","type":"string","internalType":"string"}],"outputs":[{"name":"","type":"uint256","internalType":"uint256"}],"stateMutability":"nonpayable"},{"type":"function","name":"commentIds","inputs":[{"name":"","type":"uint256","internalType":"uint256"}],"outputs":[{"name":"","type":"uint256","internalType":"uint256"}],"stateMutability":"view"},{"type":"function","name":"commentIsDeleted","inputs":[{"name":"","type":"uint256","internalType":"uint256"}],"outputs":[{"name":"","type":"bool","internalType":"bool"}],"stateMutability":"view"},{"type":"function","name":"comments","inputs":[{"name":"","type":"uint256","internalType":"uint256"}],"outputs":[{"name":"author","type":"address","internalType":"address"},{"name":"timestamp","type":"uint256","internalType":"uint256"},{"name":"proposalId","type":"uint256","internalType":"uint256"},{"name":"commentContent","type":"string","internalType":"string"}],"stateMutability":"view"},{"type":"function","name":"contestAddressTotalVotesCast","inputs":[{"name":"userAddress","type":"address","internalType":"address"}],"outputs":[{"name":"userTotalVotesCast","type":"uint256","internalType":"uint256"}],"stateMutability":"view"},{"type":"function","name":"contestDeadline","inputs":[],"outputs":[{"name":"","type":"uint256","internalType":"uint256"}],"stateMutability":"view"},{"type":"function","name":"contestStart","inputs":[],"outputs":[{"name":"","type":"uint256","internalType":"uint256"}],"stateMutability":"view"},{"type":"function","name":"costToPropose","inputs":[],"outputs":[{"name":"","type":"uint256","internalType":"uint256"}],"stateMutability":"view"},{"type":"function","name":"creator","inputs":[],"outputs":[{"name":"","type":"address","internalType":"address"}],"stateMutability":"view"},{"type":"function","name":"deleteComments","inputs":[{"name":"commentIdsParam","type":"uint256[]","internalType":"uint256[]"}],"outputs":[],"stateMutability":"nonpayable"},{"type":"function","name":"deleteProposals","inputs":[{"name":"proposalIdsToDelete","type":"uint256[]","internalType":"uint256[]"}],"outputs":[],"stateMutability":"nonpayable"},{"type":"function","name":"deletedCommentIds","inputs":[{"name":"","type":"uint256","internalType":"uint256"}],"outputs":[{"name":"","type":"uint256","internalType":"uint256"}],"stateMutability":"view"},{"type":"function","name":"deletedProposalIds","inputs":[{"name":"","type":"uint256","internalType":"uint256"}],"outputs":[{"name":"","type":"uint256","internalType":"uint256"}],"stateMutability":"view"},{"type":"function","name":"downvotingAllowed","inputs":[],"outputs":[{"name":"","type":"uint256","internalType":"uint256"}],"stateMutability":"view"},{"type":"function","name":"forVotesToProposalIds","inputs":[{"name":"","type":"uint256","internalType":"uint256"},{"name":"","type":"uint256","internalType":"uint256"}],"outputs":[{"name":"","type":"uint256","internalType":"uint256"}],"stateMutability":"view"},{"type":"function","name":"getAllAddressesThatHaveVoted","inputs":[],"outputs":[{"name":"","type":"address[]","internalType":"address[]"}],"stateMutability":"view"},{"type":"function","name":"getAllAuthorsOfDeletedProposals","inputs":[],"outputs":[{"name":"","type":"address[]","internalType":"address[]"}],"stateMutability":"view"},{"type":"function","name":"getAllCommentIds","inputs":[],"outputs":[{"name":"","type":"uint256[]","internalType":"uint256[]"}],"stateMutability":"view"},{"type":"function","name":"getAllDeletedCommentIds","inputs":[],"outputs":[{"name":"","type":"uint256[]","internalType":"uint256[]"}],"stateMutability":"view"},{"type":"function","name":"getAllDeletedProposalIds","inputs":[],"outputs":[{"name":"","type":"uint256[]","internalType":"uint256[]"}],"stateMutability":"view"},{"type":"function","name":"getAllProposalAuthors","inputs":[],"outputs":[{"name":"","type":"address[]","internalType":"address[]"}],"stateMutability":"view"},{"type":"function","name":"getAllProposalIds","inputs":[],"outputs":[{"name":"","type":"uint256[]","internalType":"uint256[]"}],"stateMutability":"view"},{"type":"function","name":"getComment","inputs":[{"name":"commentId","type":"uint256","internalType":"uint256"}],"outputs":[{"name":"","type":"tuple","internalType":"struct GovernorEngagement.CommentCore","components":[{"name":"author","type":"address","internalType":"address"},{"name":"timestamp","type":"uint256","internalType":"uint256"},{"name":"proposalId","type":"uint256","internalType":"uint256"},{"name":"commentContent","type":"string","internalType":"string"}]}],"stateMutability":"view"},{"type":"function","name":"getNumProposalsWithThisManyForVotes","inputs":[{"name":"forVotes","type":"uint256","internalType":"uint256"}],"outputs":[{"name":"count","type":"uint256","internalType":"uint256"}],"stateMutability":"view"},{"type":"function","name":"getOnlyProposalIdWithThisManyForVotes","inputs":[{"name":"forVotes","type":"uint256","internalType":"uint256"}],"outputs":[{"name":"proposalId","type":"uint256","internalType":"uint256"}],"stateMutability":"view"},{"type":"function","name":"getProposal","inputs":[{"name":"proposalId","type":"uint256","internalType":"uint256"}],"outputs":[{"name":"","type":"tuple","internalType":"struct Governor.ProposalCore","components":[{"name":"author","type":"address","internalType":"address"},{"name":"exists","type":"bool","internalType":"bool"},{"name":"description","type":"string","internalType":"string"},{"name":"targetMetadata","type":"tuple","internalType":"struct Governor.TargetMetadata","components":[{"name":"targetAddress","type":"address","internalType":"address"}]},{"name":"safeMetadata","type":"tuple","internalType":"struct Governor.SafeMetadata","components":[{"name":"signers","type":"address[]","internalType":"address[]"},{"name":"threshold","type":"uint256","internalType":"uint256"}]}]}],"stateMutability":"view"},{"type":"function","name":"getProposalComments","inputs":[{"name":"proposalId","type":"uint256","internalType":"uint256"}],"outputs":[{"name":"","type":"uint256[]","internalType":"uint256[]"}],"stateMutability":"view"},{"type":"function","name":"getProposalsWithThisManyForVotes","inputs":[{"name":"forVotes","type":"uint256","internalType":"uint256"}],"outputs":[{"name":"proposalsWithThisManyForVotes","type":"uint256[]","internalType":"uint256[]"}],"stateMutability":"view"},{"type":"function","name":"getRankIndex","inputs":[{"name":"rank","type":"uint256","internalType":"uint256"}],"outputs":[{"name":"rankIndex","type":"uint256","internalType":"uint256"}],"stateMutability":"view"},{"type":"function","name":"getSortedRanks","inputs":[],"outputs":[{"name":"sortedRanksArray","type":"uint256[]","internalType":"uint256[]"}],"stateMutability":"view"},{"type":"function","name":"hashComment","inputs":[{"name":"commentObj","type":"tuple","internalType":"struct GovernorEngagement.CommentCore","components":[{"name":"author","type":"address","internalType":"address"},{"name":"timestamp","type":"uint256","internalType":"uint256"},{"name":"proposalId","type":"uint256","internalType":"uint256"},{"name":"commentContent","type":"string","internalType":"string"}]}],"outputs":[{"name":"","type":"uint256","internalType":"uint256"}],"stateMutability":"pure"},{"type":"function","name":"hashProposal","inputs":[{"name":"proposal","type":"tuple","internalType":"struct Governor.ProposalCore","components":[{"name":"author","type":"address","internalType":"address"},{"name":"exists","type":"bool","internalType":"bool"},{"name":"description","type":"string","internalType":"string"},{"name":"targetMetadata","type":"tuple","internalType":"struct Governor.TargetMetadata","components":[{"name":"targetAddress","type":"address","internalType":"address"}]},{"name":"safeMetadata","type":"tuple","internalType":"struct Governor.SafeMetadata","components":[{"name":"signers","type":"address[]","internalType":"address[]"},{"name":"threshold","type":"uint256","internalType":"uint256"}]}]}],"outputs":[{"name":"","type":"uint256","internalType":"uint256"}],"stateMutability":"pure"},{"type":"function","name":"isOrIsBelowTiedRank","inputs":[{"name":"idx","type":"uint256","internalType":"uint256"}],"outputs":[{"name":"atOrBelowTiedRank","type":"bool","internalType":"bool"}],"stateMutability":"view"},{"type":"function","name":"maxProposalCount","inputs":[],"outputs":[{"name":"","type":"uint256","internalType":"uint256"}],"stateMutability":"view"},{"type":"function","name":"name","inputs":[],"outputs":[{"name":"","type":"string","internalType":"string"}],"stateMutability":"view"},{"type":"function","name":"numAllowedProposalSubmissions","inputs":[],"outputs":[{"name":"","type":"uint256","internalType":"uint256"}],"stateMutability":"view"},{"type":"function","name":"numSubmissions","inputs":[{"name":"","type":"address","internalType":"address"}],"outputs":[{"name":"","type":"uint256","internalType":"uint256"}],"stateMutability":"view"},{"type":"function","name":"officialRewardsModule","inputs":[],"outputs":[{"name":"","type":"address","internalType":"contract RewardsModule"}],"stateMutability":"view"},{"type":"function","name":"percentageToCreator","inputs":[],"outputs":[{"name":"","type":"uint256","internalType":"uint256"}],"stateMutability":"view"},{"type":"function","name":"prompt","inputs":[],"outputs":[{"name":"","type":"string","internalType":"string"}],"stateMutability":"view"},{"type":"function","name":"proposalAddressVotes","inputs":[{"name":"proposalId","type":"uint256","internalType":"uint256"},{"name":"userAddress","type":"address","internalType":"address"}],"outputs":[{"name":"forVotes","type":"uint256","internalType":"uint256"},{"name":"againstVotes","type":"uint256","internalType":"uint256"}],"stateMutability":"view"},{"type":"function","name":"proposalAddressesHaveVoted","inputs":[{"name":"proposalId","type":"uint256","internalType":"uint256"}],"outputs":[{"name":"","type":"address[]","internalType":"address[]"}],"stateMutability":"view"},{"type":"function","name":"proposalAuthors","inputs":[{"name":"","type":"uint256","internalType":"uint256"}],"outputs":[{"name":"","type":"address","internalType":"address"}],"stateMutability":"view"},{"type":"function","name":"proposalComments","inputs":[{"name":"","type":"uint256","internalType":"uint256"},{"name":"","type":"uint256","internalType":"uint256"}],"outputs":[{"name":"","type":"uint256","internalType":"uint256"}],"stateMutability":"view"},{"type":"function","name":"proposalIds","inputs":[{"name":"","type":"uint256","internalType":"uint256"}],"outputs":[{"name":"","type":"uint256","internalType":"uint256"}],"stateMutability":"view"},{"type":"function","name":"proposalIsDeleted","inputs":[{"name":"","type":"uint256","internalType":"uint256"}],"outputs":[{"name":"","type":"bool","internalType":"bool"}],"stateMutability":"view"},{"type":"function","name":"proposalVotes","inputs":[{"name":"proposalId","type":"uint256","internalType":"uint256"}],"outputs":[{"name":"forVotes","type":"uint256","internalType":"uint256"},{"name":"againstVotes","type":"uint256","internalType":"uint256"}],"stateMutability":"view"},{"type":"function","name":"proposalVotesStructs","inputs":[{"name":"","type":"uint256","internalType":"uint256"}],"outputs":[{"name":"proposalVoteCounts","type":"tuple","internalType":"struct GovernorCountingSimple.VoteCounts","components":[{"name":"forVotes","type":"uint256","internalType":"uint256"},{"name":"againstVotes","type":"uint256","internalType":"uint256"}]}],"stateMutability":"view"},{"type":"function","name":"proposals","inputs":[{"name":"","type":"uint256","internalType":"uint256"}],"outputs":[{"name":"author","type":"address","internalType":"address"},{"name":"exists","type":"bool","internalType":"bool"},{"name":"description","type":"string","internalType":"string"},{"name":"targetMetadata","type":"tuple","internalType":"struct Governor.TargetMetadata","components":[{"name":"targetAddress","type":"address","internalType":"address"}]},{"name":"safeMetadata","type":"tuple","internalType":"struct Governor.SafeMetadata","components":[{"name":"signers","type":"address[]","internalType":"address[]"},{"name":"threshold","type":"uint256","internalType":"uint256"}]}],"stateMutability":"view"},{"type":"function","name":"propose","inputs":[{"name":"proposal","type":"tuple","internalType":"struct Governor.ProposalCore","components":[{"name":"author","type":"address","internalType":"address"},{"name":"exists","type":"bool","internalType":"bool"},{"name":"description","type":"string","internalType":"string"},{"name":"targetMetadata","type":"tuple","internalType":"struct Governor.TargetMetadata","components":[{"name":"targetAddress","type":"address","internalType":"address"}]},{"name":"safeMetadata","type":"tuple","internalType":"struct Governor.SafeMetadata","components":[{"name":"signers","type":"address[]","internalType":"address[]"},{"name":"threshold","type":"uint256","internalType":"uint256"}]}]},{"name":"proof","type":"bytes32[]","internalType":"bytes32[]"}],"outputs":[{"name":"","type":"uint256","internalType":"uint256"}],"stateMutability":"payable"},{"type":"function","name":"proposeWithoutProof","inputs":[{"name":"proposal","type":"tuple","internalType":"struct Governor.ProposalCore","components":[{"name":"author","type":"address","internalType":"address"},{"name":"exists","type":"bool","internalType":"bool"},{"name":"description","type":"string","internalType":"string"},{"name":"targetMetadata","type":"tuple","internalType":"struct Governor.TargetMetadata","components":[{"name":"targetAddress","type":"address","internalType":"address"}]},{"name":"safeMetadata","type":"tuple","internalType":"struct Governor.SafeMetadata","components":[{"name":"signers","type":"address[]","internalType":"address[]"},{"name":"threshold","type":"uint256","internalType":"uint256"}]}]}],"outputs":[{"name":"","type":"uint256","internalType":"uint256"}],"stateMutability":"payable"},{"type":"function","name":"rankLimit","inputs":[],"outputs":[{"name":"","type":"uint256","internalType":"uint256"}],"stateMutability":"view"},{"type":"function","name":"setOfficialRewardsModule","inputs":[{"name":"officialRewardsModule_","type":"address","internalType":"contract RewardsModule"}],"outputs":[],"stateMutability":"nonpayable"},{"type":"function","name":"setSubmissionMerkleRoot","inputs":[{"name":"newSubmissionMerkleRoot","type":"bytes32","internalType":"bytes32"}],"outputs":[],"stateMutability":"nonpayable"},{"type":"function","name":"setVotingMerkleRoot","inputs":[{"name":"newVotingMerkleRoot","type":"bytes32","internalType":"bytes32"}],"outputs":[],"stateMutability":"nonpayable"},{"type":"function","name":"sortedRanks","inputs":[{"name":"","type":"uint256","internalType":"uint256"}],"outputs":[{"name":"","type":"uint256","internalType":"uint256"}],"stateMutability":"view"},{"type":"function","name":"sortingEnabled","inputs":[],"outputs":[{"name":"","type":"uint256","internalType":"uint256"}],"stateMutability":"view"},{"type":"function","name":"state","inputs":[],"outputs":[{"name":"","type":"uint8","internalType":"enum Governor.ContestState"}],"stateMutability":"view"},{"type":"function","name":"submissionMerkleRoot","inputs":[],"outputs":[{"name":"","type":"bytes32","internalType":"bytes32"}],"stateMutability":"view"},{"type":"function","name":"totalVotesCast","inputs":[],"outputs":[{"name":"","type":"uint256","internalType":"uint256"}],"stateMutability":"view"},{"type":"function","name":"validateProposalData","inputs":[{"name":"proposal","type":"tuple","internalType":"struct Governor.ProposalCore","components":[{"name":"author","type":"address","internalType":"address"},{"name":"exists","type":"bool","internalType":"bool"},{"name":"description","type":"string","internalType":"string"},{"name":"targetMetadata","type":"tuple","internalType":"struct Governor.TargetMetadata","components":[{"name":"targetAddress","type":"address","internalType":"address"}]},{"name":"safeMetadata","type":"tuple","internalType":"struct Governor.SafeMetadata","components":[{"name":"signers","type":"address[]","internalType":"address[]"},{"name":"threshold","type":"uint256","internalType":"uint256"}]}]}],"outputs":[],"stateMutability":"view"},{"type":"function","name":"verifyProposer","inputs":[{"name":"account","type":"address","internalType":"address"},{"name":"proof","type":"bytes32[]","internalType":"bytes32[]"}],"outputs":[],"stateMutability":"nonpayable"},{"type":"function","name":"verifyVoter","inputs":[{"name":"account","type":"address","internalType":"address"},{"name":"totalVotes","type":"uint256","internalType":"uint256"},{"name":"proof","type":"bytes32[]","internalType":"bytes32[]"}],"outputs":[],"stateMutability":"nonpayable"},{"type":"function","name":"version","inputs":[],"outputs":[{"name":"","type":"string","internalType":"string"}],"stateMutability":"pure"},{"type":"function","name":"voteStart","inputs":[],"outputs":[{"name":"","type":"uint256","internalType":"uint256"}],"stateMutability":"view"},{"type":"function","name":"votingDelay","inputs":[],"outputs":[{"name":"","type":"uint256","internalType":"uint256"}],"stateMutability":"view"},{"type":"function","name":"votingMerkleRoot","inputs":[],"outputs":[{"name":"","type":"bytes32","internalType":"bytes32"}],"stateMutability":"view"},{"type":"function","name":"votingPeriod","inputs":[],"outputs":[{"name":"","type":"uint256","internalType":"uint256"}],"stateMutability":"view"},{"type":"event","name":"CommentCreated","inputs":[{"name":"commentId","type":"uint256","indexed":false,"internalType":"uint256"}],"anonymous":false},{"type":"event","name":"CommentsDeleted","inputs":[{"name":"commentIds","type":"uint256[]","indexed":false,"internalType":"uint256[]"}],"anonymous":false},{"type":"event","name":"ContestCanceled","inputs":[],"anonymous":false},{"type":"event","name":"JokeraceCreated","inputs":[{"name":"version","type":"string","indexed":false,"internalType":"string"},{"name":"name","type":"string","indexed":false,"internalType":"string"},{"name":"prompt","type":"string","indexed":false,"internalType":"string"},{"name":"creator","type":"address","indexed":false,"internalType":"address"},{"name":"contestStart","type":"uint256","indexed":false,"internalType":"uint256"},{"name":"votingDelay","type":"uint256","indexed":false,"internalType":"uint256"},{"name":"votingPeriod","type":"uint256","indexed":false,"internalType":"uint256"}],"anonymous":false},{"type":"event","name":"OfficialRewardsModuleSet","inputs":[{"name":"oldOfficialRewardsModule","type":"address","indexed":false,"internalType":"contract RewardsModule"},{"name":"newOfficialRewardsModule","type":"address","indexed":false,"internalType":"contract RewardsModule"}],"anonymous":false},{"type":"event","name":"PaymentReleased","inputs":[{"name":"to","type":"address","indexed":false,"internalType":"address"},{"name":"amount","type":"uint256","indexed":false,"internalType":"uint256"}],"anonymous":false},{"type":"event","name":"ProposalCreated","inputs":[{"name":"proposalId","type":"uint256","indexed":false,"internalType":"uint256"},{"name":"proposer","type":"address","indexed":false,"internalType":"address"},{"name":"proposalDescription","type":"string","indexed":false,"internalType":"string"}],"anonymous":false},{"type":"event","name":"ProposalsDeleted","inputs":[{"name":"proposalIds","type":"uint256[]","indexed":false,"internalType":"uint256[]"}],"anonymous":false},{"type":"event","name":"VoteCast","inputs":[{"name":"voter","type":"address","indexed":true,"internalType":"address"},{"name":"proposalId","type":"uint256","indexed":false,"internalType":"uint256"},{"name":"support","type":"uint8","indexed":false,"internalType":"uint8"},{"name":"numVotes","type":"uint256","indexed":false,"internalType":"uint256"}],"anonymous":false},{"type":"error","name":"AddressNotPermissionedToSubmit","inputs":[]},{"type":"error","name":"AuthorIsNotSender","inputs":[{"name":"author","type":"address","internalType":"address"},{"name":"sender","type":"address","internalType":"address"}]},{"type":"error","name":"CannotDeleteWhenCompleted","inputs":[]},{"type":"error","name":"CannotVoteOnDeletedProposal","inputs":[]},{"type":"error","name":"ContestAlreadyCancelled","inputs":[]},{"type":"error","name":"ContestMustBeActiveToVote","inputs":[{"name":"currentState","type":"uint8","internalType":"enum Governor.ContestState"}]},{"type":"error","name":"ContestMustBeQueuedToPropose","inputs":[{"name":"currentState","type":"uint8","internalType":"enum Governor.ContestState"}]},{"type":"error","name":"ContestSubmissionLimitReached","inputs":[{"name":"maxProposalCount","type":"uint256","internalType":"uint256"}]},{"type":"error","name":"DownvotingNotEnabled","inputs":[]},{"type":"error","name":"DuplicateSubmission","inputs":[{"name":"proposalId","type":"uint256","internalType":"uint256"}]},{"type":"error","name":"EmptyProposalDescription","inputs":[]},{"type":"error","name":"IncorrectCostToProposeSent","inputs":[{"name":"msgValue","type":"uint256","internalType":"uint256"},{"name":"costToPropose","type":"uint256","internalType":"uint256"}]},{"type":"error","name":"IndexHasNotBeenPopulated","inputs":[]},{"type":"error","name":"InvalidVoteType","inputs":[]},{"type":"error","name":"MoreThanOneProposalWithThisManyVotes","inputs":[]},{"type":"error","name":"NeedAtLeastOneVoteToVote","inputs":[]},{"type":"error","name":"NeedToSubmitWithProofFirst","inputs":[]},{"type":"error","name":"NeedToVoteWithProofFirst","inputs":[]},{"type":"error","name":"NotEnoughVotesLeft","inputs":[]},{"type":"error","name":"NotInMerkle","inputs":[]},{"type":"error","name":"OnlyCreatorCanDelete","inputs":[]},{"type":"error","name":"OnlyCreatorCanSetRewardsModule","inputs":[]},{"type":"error","name":"OnlyCreatorOrAuthorCanDeleteComments","inputs":[{"name":"failedToDeleteCommentId","type":"uint256","internalType":"uint256"}]},{"type":"error","name":"OnlyJkLabsCanAmend","inputs":[]},{"type":"error","name":"OnlyJkLabsOrCreatorCanCancel","inputs":[]},{"type":"error","name":"RankCannotBeZero","inputs":[]},{"type":"error","name":"RankIsNotInSortedRanks","inputs":[]},{"type":"error","name":"SenderSubmissionLimitReached","inputs":[{"name":"numAllowedProposalSubmissions","type":"uint256","internalType":"uint256"}]},{"type":"error","name":"UnexpectedMetadata","inputs":[{"name":"unexpectedMetadata","type":"uint8","internalType":"enum Governor.Metadatas"}]},{"type":"error","name":"ZeroSignersInSafeMetadata","inputs":[]},{"type":"error","name":"ZeroThresholdInSafeMetadata","inputs":[]}],"bytecode":{"object":"0x60806040523480156200001157600080fd5b5060405162004b7c38038062004b7c833981016040819052620000349162000353565b84848484846000815181106200004e576200004e62000464565b6020026020010151856001815181106200006c576200006c62000464565b6020026020010151866002815181106200008a576200008a62000464565b602002602001015187600381518110620000a857620000a862000464565b602002602001015188600481518110620000c657620000c662000464565b602002602001015189600581518110620000e457620000e462000464565b60200260200101518a60068151811062000102576200010262000464565b60200260200101518b60078151811062000120576200012062000464565b602002602001015189898e60088151811062000140576200014062000464565b60200260200101518f6009815181106200015e576200015e62000464565b60209081029190910101516000919091556001556003919091556004556005620001898d8262000509565b506006620001988c8262000509565b5033600760006101000a8154816001600160a01b0302191690836001600160a01b03160217905550876008819055508660098190555085600a8190555084600b8190555083600c8190555082600d8190555081600e8190555080600f819055507f9a9bca21e4e51607db64fbdbcd7b2284a909c6a8969821f0d161efbdcae7016060405180604001604052806004815260200163342e323160e01b8152508d8d338c8c8c60405162000251979695949392919062000603565b60405180910390a1505050505050505050505050505050505062000672565b634e487b7160e01b600052604160045260246000fd5b604051601f8201601f191681016001600160401b0381118282101715620002b157620002b162000270565b604052919050565b60005b83811015620002d6578181015183820152602001620002bc565b50506000910152565b600082601f830112620002f157600080fd5b81516001600160401b038111156200030d576200030d62000270565b62000322601f8201601f191660200162000286565b8181528460208386010111156200033857600080fd5b6200034b826020830160208701620002b9565b949350505050565b600080600080600060a086880312156200036c57600080fd5b85516001600160401b03808211156200038457600080fd5b6200039289838a01620002df565b9650602091508188015181811115620003aa57600080fd5b620003b88a828b01620002df565b9650506040880151945060608801519350608088015181811115620003dc57600080fd5b8801601f81018a13620003ee57600080fd5b80518281111562000403576200040362000270565b8060051b92506200041684840162000286565b818152928201840192848101908c8511156200043157600080fd5b928501925b84841015620004515783518252928501929085019062000436565b8096505050505050509295509295909350565b634e487b7160e01b600052603260045260246000fd5b600181811c908216806200048f57607f821691505b602082108103620004b057634e487b7160e01b600052602260045260246000fd5b50919050565b601f8211156200050457600081815260208120601f850160051c81016020861015620004df5750805b601f850160051c820191505b818110156200050057828155600101620004eb565b5050505b505050565b81516001600160401b0381111562000525576200052562000270565b6200053d816200053684546200047a565b84620004b6565b602080601f8311600181146200057557600084156200055c5750858301515b600019600386901b1c1916600185901b17855562000500565b600085815260208120601f198616915b82811015620005a65788860151825594840194600190910190840162000585565b5085821015620005c55787850151600019600388901b60f8161c191681555b5050505050600190811b01905550565b60008151808452620005ef816020860160208601620002b9565b601f01601f19169290920160200192915050565b60e0815260006200061860e083018a620005d5565b82810360208401526200062c818a620005d5565b90508281036040840152620006428189620005d5565b6001600160a01b039790971660608401525050608081019390935260a083019190915260c0909101529392505050565b6144fa80620006826000396000f3fe6080604052600436106104885760003560e01c806375e509c511610255578063c19d93fb11610144578063ea8a1af0116100c1578063f4f3d7ec11610085578063f4f3d7ec14610e65578063f5c3641114610e85578063f61736f414610ea5578063f79c017214610ec5578063fb8ddab414610ef5578063fb9bf8d414610f1557600080fd5b8063ea8a1af014610ddd578063edcd1be414610df2578063eef18e1714610e08578063efa90d3614610e30578063f0a7db0a14610e4557600080fd5b8063daf762db11610108578063daf762db14610d50578063dd96a19d14610d70578063dea5f6a614610d86578063e031535b14610db3578063e11db9d814610dc857600080fd5b8063c19d93fb14610c9c578063c7f758a814610cbe578063c9a1b6b214610ceb578063cb85395014610d0b578063cbdc27cb14610d3b57600080fd5b80639ba197af116101d2578063b323580d11610196578063b323580d14610c13578063b66d1da314610c33578063bddc164114610c53578063c05f410414610c69578063c0ffaa7814610c8957600080fd5b80639ba197af14610b33578063a1ac6cb214610b60578063ac67f80114610b8d578063ae66b8ad14610bad578063aec116b614610bdd57600080fd5b80638ebb4c15116102195780638ebb4c1514610a7e5780639174778c14610aae578063930de97914610ace578063946369b514610afe5780639b644a2314610b1357600080fd5b806375e509c5146109f0578063785ddfe514610a1d5780637c65d71114610a3d5780637de418d514610a52578063832009af14610a6857600080fd5b80633f9942ff1161037c578063544c7bb4116102f957806360506ff6116102bd57806360506ff61461094f57806365f16263146109655780636e4eb810146109855780636ed815ad146109a55780636fd3636b146109bb578063711effc8146109d057600080fd5b8063544c7bb414610883578063544ffc9c146108a357806354fd4d50146108ed5780635c7107d81461091a5780635cb718a11461093a57600080fd5b8063476f4d8a11610340578063476f4d8a146107f85780634d24a67f1461080b57806350a5e5241461082057806350c4b61614610843578063531bd8121461086357600080fd5b80633f9942ff1461075e5780633fb57c9214610778578063409fd03014610798578063419c533c146107b8578063458da87d146107d857600080fd5b80631242b7371161040a578063325cc6d9116103ce578063325cc6d9146106c657806332763c22146106e6578063347cf66514610716578063366ecf5b146107325780633932abb11461074857600080fd5b80631242b7371461062b5780631805c5231461064d57806320b3e8451461066d578063262e59e91461068f5780632c39805f146106a457600080fd5b806305846cae1161045157806305846cae1461054b57806306fdde031461056b578063070dc5d91461058d5780630800e300146105de5780630aa25e441461060b57600080fd5b80624114a81461048d578063013cf08b146104b657806302a251a3146104e757806302d05d3f146104fd5780630414126a14610535575b600080fd5b34801561049957600080fd5b506104a360085481565b6040519081526020015b60405180910390f35b3480156104c257600080fd5b506104d66104d13660046136ee565b610f2b565b6040516104ad9594939291906137a6565b3480156104f357600080fd5b506104a3600a5481565b34801561050957600080fd5b5060075461051d906001600160a01b031681565b6040516001600160a01b0390911681526020016104ad565b34801561054157600080fd5b506104a360015481565b34801561055757600080fd5b506104a36105663660046136ee565b611073565b34801561057757600080fd5b50610580611094565b6040516104ad91906137f8565b34801561059957600080fd5b506105d16105a83660046136ee565b601d60209081526000918252604091829020825180840190935280548352600101549082015281565b6040516104ad919061380b565b3480156105ea57600080fd5b506105fe6105f93660046136ee565b611122565b6040516104ad9190613822565b34801561061757600080fd5b5061051d6106263660046136ee565b611236565b34801561063757600080fd5b50610640611260565b6040516104ad919061389e565b34801561065957600080fd5b506104a36106683660046139d2565b6112b8565b34801561067957600080fd5b5061068d610688366004613a71565b6113d7565b005b34801561069b57600080fd5b506104a3611446565b3480156106b057600080fd5b506106b9611462565b6040516104ad9190613ac5565b3480156106d257600080fd5b506104a36106e13660046136ee565b6114c3565b3480156106f257600080fd5b50610706610701366004613b27565b6114d3565b60405190151581526020016104ad565b34801561072257600080fd5b506104a3678ac7230489e8000081565b34801561073e57600080fd5b506104a360005481565b34801561075457600080fd5b506104a360095481565b34801561076a57600080fd5b506013546107069060ff1681565b34801561078457600080fd5b506104a36107933660046136ee565b6115d2565b3480156107a457600080fd5b506104a36107b3366004613b97565b6115e2565b3480156107c457600080fd5b506104a36107d3366004613c53565b611613565b3480156107e457600080fd5b506104a36107f3366004613e62565b611669565b6104a3610806366004613eae565b61167c565b34801561081757600080fd5b506104a3611713565b34801561082c57600080fd5b50610835611721565b6040516104ad929190613ee2565b34801561084f57600080fd5b5061051d61085e3660046136ee565b611827565b34801561086f57600080fd5b5061068d61087e366004613f4b565b611837565b34801561088f57600080fd5b5061068d61089e3660046136ee565b61189d565b3480156108af57600080fd5b506108d86108be3660046136ee565b6000908152601d6020526040902080546001909101549091565b604080519283526020830191909152016104ad565b3480156108f957600080fd5b50604080518082019091526004815263342e323160e01b6020820152610580565b34801561092657600080fd5b506104a36109353660046136ee565b6118d6565b34801561094657600080fd5b506106406119dd565b34801561095b57600080fd5b506104a3600d5481565b34801561097157600080fd5b506104a3610980366004613fa6565b611a33565b34801561099157600080fd5b506108d86109a0366004613fdb565b611ab3565b3480156109b157600080fd5b506104a3600e5481565b3480156109c757600080fd5b50610640611ae8565b3480156109dc57600080fd5b506104a36109eb36600461400b565b611b3e565b3480156109fc57600080fd5b506104a3610a0b36600461402d565b60156020526000908152604090205481565b348015610a2957600080fd5b50601f5461051d906001600160a01b031681565b348015610a4957600080fd5b50610580611b6f565b348015610a5e57600080fd5b506104a3601b5481565b348015610a7457600080fd5b506104a3600b5481565b348015610a8a57600080fd5b50610a9e610a993660046136ee565b611b7c565b6040516104ad949392919061404a565b348015610aba57600080fd5b50610706610ac93660046136ee565b611c39565b348015610ada57600080fd5b50610706610ae936600461402d565b60196020526000908152604090205460ff1681565b348015610b0a57600080fd5b506106b9611cdf565b348015610b1f57600080fd5b506104a3610b2e3660046136ee565b611d3f565b348015610b3f57600080fd5b506104a3610b4e3660046136ee565b6000908152601e602052604090205490565b348015610b6c57600080fd5b506104a3610b7b36600461402d565b601c6020526000908152604090205481565b348015610b9957600080fd5b5061068d610ba8366004614081565b611d4f565b348015610bb957600080fd5b50610706610bc83660046136ee565b60246020526000908152604090205460ff1681565b348015610be957600080fd5b506104a3610bf836600461402d565b6001600160a01b03166000908152601c602052604090205490565b348015610c1f57600080fd5b506106b9610c2e3660046136ee565b611e84565b348015610c3f57600080fd5b506104a3610c4e3660046136ee565b611ef6565b348015610c5f57600080fd5b506104a360035481565b348015610c7557600080fd5b50610640610c843660046136ee565b611f56565b6104a3610c97366004614111565b611fb8565b348015610ca857600080fd5b50610cb1612020565b6040516104ad9190614182565b348015610cca57600080fd5b50610cde610cd93660046136ee565b612071565b6040516104ad919061419c565b348015610cf757600080fd5b50610640610d063660046136ee565b6121eb565b348015610d1757600080fd5b50610706610d2636600461402d565b601a6020526000908152604090205460ff1681565b348015610d4757600080fd5b506106b961224b565b348015610d5c57600080fd5b5061068d610d6b3660046136ee565b61237b565b348015610d7c57600080fd5b506104a360045481565b348015610d9257600080fd5b506104a3610da136600461402d565b60186020526000908152604090205481565b348015610dbf57600080fd5b506104a36123b4565b348015610dd457600080fd5b506106406123c6565b348015610de957600080fd5b5061068d61241c565b348015610dfe57600080fd5b506104a3600f5481565b348015610e1457600080fd5b5061051d73dc652c746a8f85e18ce632d97c6118e8a52fa73881565b348015610e3c57600080fd5b506106406124e0565b348015610e5157600080fd5b5061068d610e60366004614203565b612536565b348015610e7157600080fd5b5061068d610e8036600461402d565b612691565b348015610e9157600080fd5b506104a3610ea03660046136ee565b612716565b348015610eb157600080fd5b506104a3610ec036600461400b565b612726565b348015610ed157600080fd5b50610706610ee03660046136ee565b60126020526000908152604090205460ff1681565b348015610f0157600080fd5b5061068d610f10366004613e62565b612742565b348015610f2157600080fd5b506104a3600c5481565b601460205260009081526040902080546001820180546001600160a01b03831693600160a01b90930460ff16929190610f6390614244565b80601f0160208091040260200160405190810160405280929190818152602001828054610f8f90614244565b8015610fdc5780601f10610fb157610100808354040283529160200191610fdc565b820191906000526020600020905b815481529060010190602001808311610fbf57829003601f168201915b5050604080516020808201835260028801546001600160a01b03168252825160038901805460609381028301840186529482018581529899939893975090955093508492849184018282801561105b57602002820191906000526020600020905b81546001600160a01b0316815260019091019060200180831161103d575b50505050508152602001600182015481525050905085565b6011818154811061108357600080fd5b600091825260209091200154905081565b600580546110a190614244565b80601f01602080910402602001604051908101604052809291908181526020018280546110cd90614244565b801561111a5780601f106110ef5761010080835404028352916020019161111a565b820191906000526020600020905b8154815290600101906020018083116110fd57829003601f168201915b505050505081565b611156604051806080016040528060006001600160a01b031681526020016000815260200160008152602001606081525090565b600082815260226020908152604091829020825160808101845281546001600160a01b031681526001820154928101929092526002810154928201929092526003820180549192916060840191906111ad90614244565b80601f01602080910402602001604051908101604052809291908181526020018280546111d990614244565b80156112265780601f106111fb57610100808354040283529160200191611226565b820191906000526020600020905b81548152906001019060200180831161120957829003601f168201915b5050505050815250509050919050565b6016818154811061124657600080fd5b6000918252602090912001546001600160a01b0316905081565b606060118054806020026020016040519081016040528092919081815260200182805480156112ae57602002820191906000526020600020905b81548152602001906001019080831161129a575b5050505050905090565b6040805160808101825233815242602082015290810183905260608101829052600090816112e5826115e2565b60208054600180820183557fc97bfaf2f8ee708c303a06d134f5ecd8389ae0432af62dc132a24118292866bb909101839055600083815260228352604090819020865181546001600160a01b0319166001600160a01b039091161781559286015191830191909155840151600282015560608401519192508391600382019061136e90826142c6565b505050600085815260236020908152604080832080546001810182559084529190922001829055517f5a1a930fed43f34b3a07db782ebcac28a661c273e662bb98458cfba5a8ccd220906113c59083815260200190565b60405180910390a19150505b92915050565b6001600160a01b0383166000908152601a602052604090205460ff166114415760035460000361140657505050565b61141c83678ac7230489e80000848460006114d3565b506001600160a01b0383166000908152601a60205260409020805460ff191660011790555b505050565b6000600a546114536123b4565b61145d919061439b565b905090565b606060178054806020026020016040519081016040528092919081815260200182805480156112ae57602002820191906000526020600020905b81546001600160a01b0316815260019091019060200180831161149c575050505050905090565b6002818154811061108357600080fd5b6040516bffffffffffffffffffffffff19606087901b1660208201526034810185905260009081906054016040516020818303038152906040528051906020012090506000836115635761155e868680806020026020016040519081016040528093929190818152602001838360200280828437600092019190915250506003549150859050612891565b6115a4565b6115a4868680806020026020016040519081016040528093929190818152602001838360200280828437600092019190915250506004549150859050612891565b9050806115c45760405163452c2df160e11b815260040160405180910390fd5b506001979650505050505050565b6021818154811061108357600080fd5b6000816040516020016115f59190613822565b60408051601f19818403018152919052805160209091012092915050565b600086815260126020526040812054339060ff1615611645576040516358f1119560e01b815260040160405180910390fd5b61165181878686611837565b61165d888289886128a7565b98975050505050505050565b6000816040516020016115f5919061419c565b6000600e5434146116b257600e546040516380a7af9f60e01b815234600482015260248101919091526044015b60405180910390fd5b600354156116ea57336000908152601a602052604090205460ff166116ea57604051631f22097560e01b815260040160405180910390fd5b6116f6610f10836143ae565b6000611709611704846143ae565b6129ee565b90506113d1612c6c565b61171e60018061439b565b81565b606080600061172e6124e0565b9050600081516001600160401b0381111561174b5761174b6138b1565b60405190808252806020026020018201604052801561179057816020015b60408051808201909152600080825260208201528152602001906001900390816117695790505b50905060005b825181101561181d57601d60008483815181106117b5576117b56143ba565b60200260200101518152602001908152602001600020600001604051806040016040529081600082015481526020016001820154815250508282815181106117ff576117ff6143ba565b60200260200101819052508080611815906143d0565b915050611796565b5090939092509050565b6017818154811061124657600080fd5b6001600160a01b03841660009081526019602052604090205460ff16611897576118658484848460016114d3565b506001600160a01b038416600090815260186020908152604080832086905560199091529020805460ff191660011790555b50505050565b3373dc652c746a8f85e18ce632d97c6118e8a52fa738146118d15760405163de07280160e01b815260040160405180910390fd5b600455565b6000816000036118f957604051630ec90a1760e31b815260040160405180910390fd5b6002805460408051602080840282018101909252828152919260009291849083018282801561194757602002820191906000526020600020905b815481526020019060010190808311611933575b5050505050905060006001905060005b838110156119c35761198e838281518110611974576119746143ba565b60200260200101516000908152601e602052604090205490565b156119b1578582036119a35795945050505050565b816119ad816143d0565b9250505b806119bb816143d0565b915050611957565b50604051632cc2ab7360e11b815260040160405180910390fd5b606060218054806020026020016040519081016040528092919081815260200182805480156112ae576020028201919060005260206000209081548152602001906001019080831161129a575050505050905090565b600083815260126020526040812054339060ff1615611a65576040516358f1119560e01b815260040160405180910390fd5b6001600160a01b03811660009081526019602052604090205460ff16611a9e5760405163126ec6d160e31b815260040160405180910390fd5b611aaa858286866128a7565b95945050505050565b6000828152601d602090815260408083206001600160a01b0385168452600301909152902080546001909101545b9250929050565b606060028054806020026020016040519081016040528092919081815260200182805480156112ae576020028201919060005260206000209081548152602001906001019080831161129a575050505050905090565b601e6020528160005260406000208181548110611b5a57600080fd5b90600052602060002001600091509150505481565b600680546110a190614244565b60226020526000908152604090208054600182015460028301546003840180546001600160a01b03909416949293919291611bb690614244565b80601f0160208091040260200160405190810160405280929190818152602001828054611be290614244565b8015611c2f5780601f10611c0457610100808354040283529160200191611c2f565b820191906000526020600020905b815481529060010190602001808311611c1257829003601f168201915b5050505050905084565b600254600090611c4b906001906143e9565b821115611c6b576040516365d6f35160e11b815260040160405180910390fd5b60005b611c7983600161439b565b811015611cd6576001611cb560028381548110611c9857611c986143ba565b90600052602060002001546000908152601e602052604090205490565b1115611cc45750600192915050565b80611cce816143d0565b915050611c6e565b50600092915050565b606060168054806020026020016040519081016040528092919081815260200182805480156112ae576020028201919060005260206000209081546001600160a01b0316815260019091019060200180831161149c575050505050905090565b6010818154811061108357600080fd5b805160005b81811015611e48576000838281518110611d7057611d706143ba565b60209081029190910101516007549091506001600160a01b03163314801590611db057506000818152602260205260409020546001600160a01b03163314155b15611dd157604051635450763d60e11b8152600481018290526024016116a9565b60008181526024602052604090205460ff16611e35576000818152602460205260408120805460ff191660019081179091556021805491820181559091527f3a6357012c1a3ae0a17d304c9920310382d968ebcc4b1771f41c6b304205b570018190555b5080611e40816143d0565b915050611d54565b507f788a4349d25bc08585923ae212bce8bb346a623bce753eeecb85fd9ce58dcb4b82604051611e78919061389e565b60405180910390a15050565b6000818152601d60209081526040918290206002810180548451818502810185019095528085526060949293830182828015611ee957602002820191906000526020600020905b81546001600160a01b03168152600190910190602001808311611ecb575b5050505050915050919050565b6000818152601e6020526040812054600114611f2557604051633832a15560e21b815260040160405180910390fd5b6000828152601e602052604081208054909190611f4457611f446143ba565b90600052602060002001549050919050565b600081815260236020908152604091829020805483518184028101840190945280845260609392830182828015611fac57602002820191906000526020600020905b815481526020019060010190808311611f98575b50505050509050919050565b6000600e543414611fe957600e546040516380a7af9f60e01b815234600482015260248101919091526044016116a9565b611ff43384846113d7565b612000610f10856143ae565b600061200e611704866143ae565b9050612018612c6c565b949350505050565b60135460009060ff16156120345750600290565b42600854106120435750600090565b4261204c6123b4565b106120575750600390565b42612060611446565b1061206b5750600190565b50600490565b612079613603565b600082815260146020908152604091829020825160a08101845281546001600160a01b0381168252600160a01b900460ff1615159281019290925260018101805492939192918401916120cb90614244565b80601f01602080910402602001604051908101604052809291908181526020018280546120f790614244565b80156121445780601f1061211957610100808354040283529160200191612144565b820191906000526020600020905b81548152906001019060200180831161212757829003601f168201915b5050509183525050604080516020818101835260028501546001600160a01b031682528084019190915281516003850180546060938102830184018552828501818152949095019491939092849284918401828280156121cd57602002820191906000526020600020905b81546001600160a01b031681526001909101906020018083116121af575b50505050508152602001600182015481525050815250509050919050565b6000818152601e6020908152604091829020805483518184028101840190945280845260609392830182828015611fac5760200282019190600052602060002090815481526020019060010190808311611f985750505050509050919050565b60606000601180548060200260200160405190810160405280929190818152602001828054801561229b57602002820191906000526020600020905b815481526020019060010190808311612287575b50505050509050600081516001600160401b038111156122bd576122bd6138b1565b6040519080825280602002602001820160405280156122e6578160200160208202803683370190505b50905060005b8251811015612374576014600084838151811061230b5761230b6143ba565b6020026020010151815260200190815260200160002060000160009054906101000a90046001600160a01b031682828151811061234a5761234a6143ba565b6001600160a01b03909216602092830291909101909101528061236c816143d0565b9150506122ec565b5092915050565b3373dc652c746a8f85e18ce632d97c6118e8a52fa738146123af5760405163de07280160e01b815260040160405180910390fd5b600355565b600060095460085461145d919061439b565b606060208054806020026020016040519081016040528092919081815260200182805480156112ae576020028201919060005260206000209081548152602001906001019080831161129a575050505050905090565b6007546001600160a01b0316331480159061244b57503373dc652c746a8f85e18ce632d97c6118e8a52fa73814155b15612469576040516301dbf46f60e71b815260040160405180910390fd5b6000612473612020565b905060028160048111156124895761248961416c565b036124a757604051633c30acbf60e01b815260040160405180910390fd5b6013805460ff191660011790556040517f4cd963a081760a54f571abc0f1db4dde31b4a07d8d6da3e844b8c6f47eeaaa4290600090a150565b606060108054806020026020016040519081016040528092919081815260200182805480156112ae576020028201919060005260206000209081548152602001906001019080831161129a575050505050905090565b6007546001600160a01b031633146125615760405163b8d4540960e01b815260040160405180910390fd5b600461256b612020565b600481111561257c5761257c61416c565b0361259a576040516331da1c8b60e11b815260040160405180910390fd5b60005b8181101561263f5760008383838181106125b9576125b96143ba565b60209081029290920135600081815260129093526040909220549192505060ff1661262c576000818152601260205260408120805460ff191660019081179091556011805491820181559091527f31ecc21a745e3968a04e9570e4425bc18fa8019c68028196b546d1669c200c68018190555b5080612637816143d0565b91505061259d565b50600d5415801561265257506000546001145b15612661576126618282612d81565b7f75a75cf5c561892f4cc5b26c1b8e933849b42238c96dd073d080d1ae96c514166010604051611e7891906143fc565b6007546001600160a01b031633146126bc57604051630f4cb1bd60e11b815260040160405180910390fd5b601f80546001600160a01b038381166001600160a01b031983168117909355604080519190921680825260208201939093527f753a2cf8d360cff631674504210913e48247f8e56b3e6d2006c2103d4095999f9101611e78565b6020818154811061108357600080fd5b60236020528160005260406000208181548110611b5a57600080fd5b80516001600160a01b0316331461278057805160405163fbbf4d7f60e01b81526001600160a01b0390911660048201523360248201526044016116a9565b60005b61278e60018061439b565b8110156128675760008160018111156127a9576127a961416c565b905060008160018111156127bf576127bf61416c565b036127ca5750612855565b60018160018111156127de576127de61416c565b03612838576080830151515160000361280a5760405163c3b2798b60e01b815260040160405180910390fd5b826080015160200151600003612833576040516392fb9a3560e01b815260040160405180910390fd5b612853565b8060405163d2277d4960e01b81526004016116a99190614437565b505b8061285f816143d0565b915050612783565b5080604001515160000361288e5760405163e182473360e01b815260040160405180910390fd5b50565b60008261289e8584612dde565b14949350505050565b600060016128b3612020565b60048111156128c4576128c461416c565b146128eb576128d1612020565b60405163049cab4960e51b81526004016116a99190614182565b8160000361290c5760405163502e1c2960e01b815260040160405180910390fd5b61293e85858585601860008a6001600160a01b03166001600160a01b0316815260200190815260200160002054612e2b565b601780546001810182556000919091527fc624b66cc0138b8fabc209247f72d758e1cf3343756d543badbf24212bed8c150180546001600160a01b031916331790556040805186815260ff851660208201529081018390526001600160a01b038516907f2c9deb38f462962eadbd85a9d3a4120503ee091f1582eaaa10aa8c6797651d299060600160405180910390a25050506001600160a01b0316600090815260186020526040902054919050565b600060036129fa612020565b6004811115612a0b57612a0b61416c565b14612a3257612a18612020565b604051632889531360e01b81526004016116a99190614182565b600b543360009081526015602052604090205403612a6957600b54604051632bd6d93960e21b81526004016116a991815260200190565b600c54601154601054612a7c91906143e9565b03612aa057600c546040516302217f5360e51b81526004016116a991815260200190565b6000612aab83611669565b600081815260146020526040902054909150600160a01b900460ff1615612ae85760405163baffc42360e01b8152600481018290526024016116a9565b6010805460018181019092557f1b6847dc741a1b0cd08d278845f9d819d87b734759afb55fe2de5cb82a9ae6720182905560008281526014602090815260409182902086518154928801511515600160a01b026001600160a81b03199093166001600160a01b0390911617919091178155908501518592820190612b6c90826142c6565b506060820151516002820180546001600160a01b0319166001600160a01b039092169190911790556080820151805180516003840191612bb191839160200190613674565b5060209182015160019182015533600090815260159092526040822080549194509250612bdf90849061439b565b9091555050601680546001810182556000919091527fd833147d7dc355ba459fc788f669e58cfaf9dc25ddcd0702e87d69c7b51242890180546001600160a01b0319163390811790915560408085015190517f7585f467599d0f008985f231af99293be388626ac16ca59505c2f8f88969cd6392612c5e92859261444b565b60405180910390a192915050565b600e5415612d7f5760006064600f546064612c8791906143e9565b612c919034614475565b612c9b919061448c565b90508015612d0f57612cc173dc652c746a8f85e18ce632d97c6118e8a52fa73882613092565b6040805173dc652c746a8f85e18ce632d97c6118e8a52fa7388152602081018390527fdf20fd1e76bc69d672e4814fafb2c449bba3a5369d8359adf9e05e6fde87b056910160405180910390a15b6000612d1b82346143e9565b90508015612d7c57600754612d39906001600160a01b031682613092565b600754604080516001600160a01b039092168252602082018390527fdf20fd1e76bc69d672e4814fafb2c449bba3a5369d8359adf9e05e6fde87b0569101611e78565b50505b565b60005b81811015611441576000838383818110612da057612da06143ba565b602090810292909201356000818152601d909352604090922054919250612dc9905082826131ab565b50508080612dd6906143d0565b915050612d84565b600081815b8451811015612e2357612e0f82868381518110612e0257612e026143ba565b60200260200101516132dc565b915080612e1b816143d0565b915050612de3565b509392505050565b6000858152601d602090815260408083206001600160a01b0388168452601c90925290912054612e5b90836143e9565b831115612e7b5760405163660fa07360e11b815260040160405180910390fd5b6001600160a01b0385166000908152600382016020526040812054158015612ebe57506001600160a01b0386166000908152600383016020526040902060010154155b905060ff8516612f1657815484908390600090612edc90849061439b565b90915550506001600160a01b038616600090815260038301602052604081208054869290612f0b90849061439b565b90915550612fa79050565b60001960ff861601612f8e57600d54600114612f4557604051639755958f60e01b815260040160405180910390fd5b83826000016001016000828254612f5c919061439b565b90915550506001600160a01b038616600090815260038301602052604081206001018054869290612f0b90849061439b565b604051638eed55d160e01b815260040160405180910390fd5b8015612fde57600282018054600181018255600091825260209091200180546001600160a01b0319166001600160a01b0388161790555b6001600160a01b0386166000908152601c60205260408120805486929061300690849061439b565b9250508190555083601b600082825461301f919061439b565b9091555050600d5415801561303657506000546001145b15613089578154600061304986836143e9565b9050801561305b5761305b89826131ab565b6000828152601e6020908152604082208054600181018255908352912001899055613086818361330e565b50505b50505050505050565b804710156130e25760405162461bcd60e51b815260206004820152601d60248201527f416464726573733a20696e73756666696369656e742062616c616e636500000060448201526064016116a9565b6000826001600160a01b03168260405160006040518083038185875af1925050503d806000811461312f576040519150601f19603f3d011682016040523d82523d6000602084013e613134565b606091505b50509050806114415760405162461bcd60e51b815260206004820152603a60248201527f416464726573733a20756e61626c6520746f2073656e642076616c75652c207260448201527f6563697069656e74206d6179206861766520726576657274656400000000000060648201526084016116a9565b6000818152601e602090815260408083208054825181850281018501909352808352919290919083018282801561320157602002820191906000526020600020905b8154815260200190600101908083116131ed575b5050505050905060005b81518110156118975783828281518110613227576132276143ba565b6020026020010151036132ca57816001835161324391906143e9565b81518110613253576132536143ba565b6020026020010151601e6000858152602001908152602001600020828154811061327f5761327f6143ba565b9060005260206000200181905550601e60008481526020019081526020016000208054806132af576132af6144ae565b60019003818190600052602060002001600090559055611897565b806132d4816143d0565b91505061320b565b60008183106132f8576000828152602084905260409020613307565b60008381526020839052604090205b9392505050565b6002805460408051602080840282018101909252828152919260009291849083018282801561335c57602002820191906000526020600020905b815481526020019060010190808311613348575b50505050509050816000036133a3575050600280546001810182556000919091527f405787fa12a823e0f2b7631cc41b3ba8828b3321ca811111fa75cd3aa3bb5ace015550565b806133af6001846143e9565b815181106133bf576133bf6143ba565b60200260200101518310156134155760015482036133dd5750505050565b5050600280546001810182556000919091527f405787fa12a823e0f2b7631cc41b3ba8828b3321ca811111fa75cd3aa3bb5ace015550565b611897848484846000805b8381101561348a5782818151811061343a5761343a6143ba565b6020026020010151850361344f575050611897565b828181518110613461576134616143ba565b60200260200101518511156134785780915061348a565b80613482816143d0565b915050613420565b50600080861180156134a857506000868152601e6020526040902054155b905060008180156134d15750868484815181106134c7576134c76143ba565b6020026020010151145b6135da576134e06001866143e9565b83146135885760006134f384600161439b565b90505b85811015613586578461350a6001836143e9565b8151811061351a5761351a6143ba565b602002602001015160028281548110613535576135356143ba565b60009182526020909120015582801561356657508785828151811061355c5761355c6143ba565b6020026020010151145b156135745760019150613586565b8061357e816143d0565b9150506134f6565b505b80158015613597575060015485105b156135da576002846135aa6001886143e9565b815181106135ba576135ba6143ba565b602090810291909101810151825460018101845560009384529190922001555b85600284815481106135ee576135ee6143ba565b60009182526020909120015550505050505050565b6040518060a0016040528060006001600160a01b031681526020016000151581526020016060815260200161364d604051806020016040528060006001600160a01b031681525090565b815260200161366f604051806040016040528060608152602001600081525090565b905290565b8280548282559060005260206000209081019282156136c9579160200282015b828111156136c957825182546001600160a01b0319166001600160a01b03909116178255602090920191600190910190613694565b506136d59291506136d9565b5090565b5b808211156136d557600081556001016136da565b60006020828403121561370057600080fd5b5035919050565b6000815180845260005b8181101561372d57602081850181015186830182015201613711565b506000602082860101526020601f19601f83011685010191505092915050565b805160408084528151908401819052600091602091908201906060860190845b818110156137925783516001600160a01b03168352928401929184019160010161376d565b505093820151949091019390935250919050565b600060018060a01b038088168352861515602084015260a060408401526137d060a0840187613707565b81865116606085015283810360808501526137eb818661374d565b9998505050505050505050565b6020815260006133076020830184613707565b8151815260208083015190820152604081016113d1565b6020815260018060a01b03825116602082015260208201516040820152604082015160608201526000606083015160808084015261201860a0840182613707565b600081518084526020808501945080840160005b8381101561389357815187529582019590820190600101613877565b509495945050505050565b6020815260006133076020830184613863565b634e487b7160e01b600052604160045260246000fd5b604080519081016001600160401b03811182821017156138e9576138e96138b1565b60405290565b60405160a081016001600160401b03811182821017156138e9576138e96138b1565b604051602081016001600160401b03811182821017156138e9576138e96138b1565b604051601f8201601f191681016001600160401b038111828210171561395b5761395b6138b1565b604052919050565b600082601f83011261397457600080fd5b81356001600160401b0381111561398d5761398d6138b1565b6139a0601f8201601f1916602001613933565b8181528460208386010111156139b557600080fd5b816020850160208301376000918101602001919091529392505050565b600080604083850312156139e557600080fd5b8235915060208301356001600160401b03811115613a0257600080fd5b613a0e85828601613963565b9150509250929050565b6001600160a01b038116811461288e57600080fd5b60008083601f840112613a3f57600080fd5b5081356001600160401b03811115613a5657600080fd5b6020830191508360208260051b8501011115611ae157600080fd5b600080600060408486031215613a8657600080fd5b8335613a9181613a18565b925060208401356001600160401b03811115613aac57600080fd5b613ab886828701613a2d565b9497909650939450505050565b6020808252825182820181905260009190848201906040850190845b81811015613b065783516001600160a01b031683529284019291840191600101613ae1565b50909695505050505050565b80358015158114613b2257600080fd5b919050565b600080600080600060808688031215613b3f57600080fd5b8535613b4a81613a18565b94506020860135935060408601356001600160401b03811115613b6c57600080fd5b613b7888828901613a2d565b9094509250613b8b905060608701613b12565b90509295509295909350565b600060208284031215613ba957600080fd5b81356001600160401b0380821115613bc057600080fd5b9083019060808286031215613bd457600080fd5b604051608081018181108382111715613bef57613bef6138b1565b6040528235613bfd81613a18565b808252506020830135602082015260408301356040820152606083013582811115613c2757600080fd5b613c3387828601613963565b60608301525095945050505050565b803560ff81168114613b2257600080fd5b60008060008060008060a08789031215613c6c57600080fd5b86359550613c7c60208801613c42565b9450604087013593506060870135925060808701356001600160401b03811115613ca557600080fd5b613cb189828a01613a2d565b979a9699509497509295939492505050565b60006001600160401b03821115613cdc57613cdc6138b1565b5060051b60200190565b600060408284031215613cf857600080fd5b613d006138c7565b905081356001600160401b03811115613d1857600080fd5b8201601f81018413613d2957600080fd5b80356020613d3e613d3983613cc3565b613933565b82815260059290921b83018101918181019087841115613d5d57600080fd5b938201935b83851015613d84578435613d7581613a18565b82529382019390820190613d62565b85525093840135938301939093525092915050565b600081830360a0811215613dac57600080fd5b613db46138ef565b91508235613dc181613a18565b8252613dcf60208401613b12565b602083015260408301356001600160401b0380821115613dee57600080fd5b613dfa86838701613963565b60408501526020605f1984011215613e1157600080fd5b613e19613911565b925060608501359150613e2b82613a18565b8183528260608501526080850135925080831115613e4857600080fd5b5050613e5684828501613ce6565b60808301525092915050565b600060208284031215613e7457600080fd5b81356001600160401b03811115613e8a57600080fd5b61201884828501613d99565b600060a08284031215613ea857600080fd5b50919050565b600060208284031215613ec057600080fd5b81356001600160401b03811115613ed657600080fd5b61201884828501613e96565b60006040808352613ef581840186613863565b83810360208581019190915285518083528682019282019060005b81811015613f3d57613f2d83865180518252602090810151910152565b9383019391850191600101613f10565b509098975050505050505050565b60008060008060608587031215613f6157600080fd5b8435613f6c81613a18565b93506020850135925060408501356001600160401b03811115613f8e57600080fd5b613f9a87828801613a2d565b95989497509550505050565b600080600060608486031215613fbb57600080fd5b83359250613fcb60208501613c42565b9150604084013590509250925092565b60008060408385031215613fee57600080fd5b82359150602083013561400081613a18565b809150509250929050565b6000806040838503121561401e57600080fd5b50508035926020909101359150565b60006020828403121561403f57600080fd5b813561330781613a18565b60018060a01b03851681528360208201528260408201526080606082015260006140776080830184613707565b9695505050505050565b6000602080838503121561409457600080fd5b82356001600160401b038111156140aa57600080fd5b8301601f810185136140bb57600080fd5b80356140c9613d3982613cc3565b81815260059190911b820183019083810190878311156140e857600080fd5b928401925b82841015614106578335825292840192908401906140ed565b979650505050505050565b60008060006040848603121561412657600080fd5b83356001600160401b038082111561413d57600080fd5b61414987838801613e96565b9450602086013591508082111561415f57600080fd5b50613ab886828701613a2d565b634e487b7160e01b600052602160045260246000fd5b60208101600583106141965761419661416c565b91905290565b60208152600060018060a01b03808451166020840152602084015115156040840152604084015160a060608501526141d760c0850182613707565b90508160608601515116608085015260808501519150601f198482030160a0850152611aaa818361374d565b6000806020838503121561421657600080fd5b82356001600160401b0381111561422c57600080fd5b61423885828601613a2d565b90969095509350505050565b600181811c9082168061425857607f821691505b602082108103613ea857634e487b7160e01b600052602260045260246000fd5b601f82111561144157600081815260208120601f850160051c8101602086101561429f5750805b601f850160051c820191505b818110156142be578281556001016142ab565b505050505050565b81516001600160401b038111156142df576142df6138b1565b6142f3816142ed8454614244565b84614278565b602080601f83116001811461432857600084156143105750858301515b600019600386901b1c1916600185901b1785556142be565b600085815260208120601f198616915b8281101561435757888601518255948401946001909101908401614338565b50858210156143755787850151600019600388901b60f8161c191681555b5050505050600190811b01905550565b634e487b7160e01b600052601160045260246000fd5b808201808211156113d1576113d1614385565b60006113d13683613d99565b634e487b7160e01b600052603260045260246000fd5b6000600182016143e2576143e2614385565b5060010190565b818103818111156113d1576113d1614385565b6020808252825482820181905260008481528281209092916040850190845b81811015613b065783548352600193840193928501920161441b565b60208101600283106141965761419661416c565b8381526001600160a01b0383166020820152606060408201819052600090611aaa90830184613707565b80820281158282048414176113d1576113d1614385565b6000826144a957634e487b7160e01b600052601260045260246000fd5b500490565b634e487b7160e01b600052603160045260246000fdfea2646970667358221220d257e2b06f2c8b3b01d16fa0a672179ee3cc091ce909c7e9f0c5cb66a5b02f3864736f6c63430008130033","linkReferences":{}},"methodIdentifiers":{"AMOUNT_FOR_SUMBITTER_PROOF()":"347cf665","JK_LABS_ADDRESS()":"eef18e17","METADATAS_COUNT()":"4d24a67f","addressSubmitterVerified(address)":"cb853950","addressTotalCastVoteCounts(address)":"a1ac6cb2","addressTotalVotes(address)":"dea5f6a6","addressTotalVotesVerified(address)":"930de979","addressesThatHaveVoted(uint256)":"50c4b616","allProposalTotalVotes()":"50a5e524","cancel()":"ea8a1af0","canceled()":"3f9942ff","castVote(uint256,uint8,uint256,uint256,bytes32[])":"419c533c","castVoteWithoutProof(uint256,uint8,uint256)":"65f16263","checkProof(address,uint256,bytes32[],bool)":"32763c22","comment(uint256,string)":"1805c523","commentIds(uint256)":"f5c36411","commentIsDeleted(uint256)":"ae66b8ad","comments(uint256)":"8ebb4c15","contestAddressTotalVotesCast(address)":"aec116b6","contestDeadline()":"262e59e9","contestStart()":"004114a8","costToPropose()":"6ed815ad","creator()":"02d05d3f","deleteComments(uint256[])":"ac67f801","deleteProposals(uint256[])":"f0a7db0a","deletedCommentIds(uint256)":"3fb57c92","deletedProposalIds(uint256)":"05846cae","downvotingAllowed()":"60506ff6","forVotesToProposalIds(uint256,uint256)":"711effc8","getAllAddressesThatHaveVoted()":"2c39805f","getAllAuthorsOfDeletedProposals()":"cbdc27cb","getAllCommentIds()":"e11db9d8","getAllDeletedCommentIds()":"5cb718a1","getAllDeletedProposalIds()":"1242b737","getAllProposalAuthors()":"946369b5","getAllProposalIds()":"efa90d36","getComment(uint256)":"0800e300","getNumProposalsWithThisManyForVotes(uint256)":"9ba197af","getOnlyProposalIdWithThisManyForVotes(uint256)":"b66d1da3","getProposal(uint256)":"c7f758a8","getProposalComments(uint256)":"c05f4104","getProposalsWithThisManyForVotes(uint256)":"c9a1b6b2","getRankIndex(uint256)":"5c7107d8","getSortedRanks()":"6fd3636b","hashComment((address,uint256,uint256,string))":"409fd030","hashProposal((address,bool,string,(address),(address[],uint256)))":"458da87d","isOrIsBelowTiedRank(uint256)":"9174778c","maxProposalCount()":"fb9bf8d4","name()":"06fdde03","numAllowedProposalSubmissions()":"832009af","numSubmissions(address)":"75e509c5","officialRewardsModule()":"785ddfe5","percentageToCreator()":"edcd1be4","prompt()":"7c65d711","proposalAddressVotes(uint256,address)":"6e4eb810","proposalAddressesHaveVoted(uint256)":"b323580d","proposalAuthors(uint256)":"0aa25e44","proposalComments(uint256,uint256)":"f61736f4","proposalIds(uint256)":"9b644a23","proposalIsDeleted(uint256)":"f79c0172","proposalVotes(uint256)":"544ffc9c","proposalVotesStructs(uint256)":"070dc5d9","proposals(uint256)":"013cf08b","propose((address,bool,string,(address),(address[],uint256)),bytes32[])":"c0ffaa78","proposeWithoutProof((address,bool,string,(address),(address[],uint256)))":"476f4d8a","rankLimit()":"0414126a","setOfficialRewardsModule(address)":"f4f3d7ec","setSubmissionMerkleRoot(bytes32)":"daf762db","setVotingMerkleRoot(bytes32)":"544c7bb4","sortedRanks(uint256)":"325cc6d9","sortingEnabled()":"366ecf5b","state()":"c19d93fb","submissionMerkleRoot()":"bddc1641","totalVotesCast()":"7de418d5","validateProposalData((address,bool,string,(address),(address[],uint256)))":"fb8ddab4","verifyProposer(address,bytes32[])":"20b3e845","verifyVoter(address,uint256,bytes32[])":"531bd812","version()":"54fd4d50","voteStart()":"e031535b","votingDelay()":"3932abb1","votingMerkleRoot()":"dd96a19d","votingPeriod()":"02a251a3"},"id":28}