{
  "abi": [
    {
      "inputs": [
        {
          "internalType": "string",
          "name": "_name",
          "type": "string"
        },
        {
          "internalType": "string",
          "name": "_prompt",
          "type": "string"
        },
        {
          "internalType": "bytes32",
          "name": "_submissionMerkleRoot",
          "type": "bytes32"
        },
        {
          "internalType": "bytes32",
          "name": "_votingMerkleRoot",
          "type": "bytes32"
        },
        {
          "internalType": "uint256[]",
          "name": "_constructorIntParams",
          "type": "uint256[]"
        }
      ],
      "stateMutability": "nonpayable",
      "type": "constructor"
    },
    {
      "inputs": [],
      "name": "NotInMerkle",
      "type": "error"
    },
    {
      "anonymous": false,
      "inputs": [],
      "name": "ContestCanceled",
      "type": "event"
    },
    {
      "anonymous": false,
      "inputs": [
        {
          "indexed": false,
          "internalType": "uint256",
          "name": "oldContestSnapshot",
          "type": "uint256"
        },
        {
          "indexed": false,
          "internalType": "uint256",
          "name": "newContestSnapshot",
          "type": "uint256"
        }
      ],
      "name": "ContestSnapshotSet",
      "type": "event"
    },
    {
      "anonymous": false,
      "inputs": [
        {
          "indexed": false,
          "internalType": "uint256",
          "name": "oldContestStart",
          "type": "uint256"
        },
        {
          "indexed": false,
          "internalType": "uint256",
          "name": "newContestStart",
          "type": "uint256"
        }
      ],
      "name": "ContestStartSet",
      "type": "event"
    },
    {
      "anonymous": false,
      "inputs": [
        {
          "indexed": false,
          "internalType": "address",
          "name": "oldCreator",
          "type": "address"
        },
        {
          "indexed": false,
          "internalType": "address",
          "name": "newCreator",
          "type": "address"
        }
      ],
      "name": "CreatorSet",
      "type": "event"
    },
    {
      "anonymous": false,
      "inputs": [
        {
          "indexed": false,
          "internalType": "uint256",
          "name": "oldDownvotingAllowed",
          "type": "uint256"
        },
        {
          "indexed": false,
          "internalType": "uint256",
          "name": "newDownvotingAllowed",
          "type": "uint256"
        }
      ],
      "name": "DownvotingAllowedSet",
      "type": "event"
    },
    {
      "anonymous": false,
      "inputs": [
        {
          "indexed": false,
          "internalType": "uint256",
          "name": "oldMaxProposalCount",
          "type": "uint256"
        },
        {
          "indexed": false,
          "internalType": "uint256",
          "name": "newMaxProposalCount",
          "type": "uint256"
        }
      ],
      "name": "MaxProposalCountSet",
      "type": "event"
    },
    {
      "anonymous": false,
      "inputs": [
        {
          "indexed": false,
          "internalType": "uint256",
          "name": "oldNumAllowedProposalSubmissions",
          "type": "uint256"
        },
        {
          "indexed": false,
          "internalType": "uint256",
          "name": "newNumAllowedProposalSubmissions",
          "type": "uint256"
        }
      ],
      "name": "NumAllowedProposalSubmissionsSet",
      "type": "event"
    },
    {
      "anonymous": false,
      "inputs": [
        {
          "indexed": false,
          "internalType": "contract RewardsModule",
          "name": "oldOfficialRewardsModule",
          "type": "address"
        },
        {
          "indexed": false,
          "internalType": "contract RewardsModule",
          "name": "newOfficialRewardsModule",
          "type": "address"
        }
      ],
      "name": "OfficialRewardsModuleSet",
      "type": "event"
    },
    {
      "anonymous": false,
      "inputs": [
        {
          "indexed": false,
          "internalType": "uint256",
          "name": "proposalId",
          "type": "uint256"
        },
        {
          "indexed": false,
          "internalType": "string",
          "name": "description",
          "type": "string"
        },
        {
          "indexed": false,
          "internalType": "address",
          "name": "proposer",
          "type": "address"
        }
      ],
      "name": "ProposalCreated",
      "type": "event"
    },
    {
      "anonymous": false,
      "inputs": [
        {
          "indexed": false,
          "internalType": "uint256",
          "name": "oldProposalThreshold",
          "type": "uint256"
        },
        {
          "indexed": false,
          "internalType": "uint256",
          "name": "newProposalThreshold",
          "type": "uint256"
        }
      ],
      "name": "ProposalThresholdSet",
      "type": "event"
    },
    {
      "anonymous": false,
      "inputs": [
        {
          "indexed": false,
          "internalType": "uint256[]",
          "name": "proposalIds",
          "type": "uint256[]"
        }
      ],
      "name": "ProposalsDeleted",
      "type": "event"
    },
    {
      "anonymous": false,
      "inputs": [
        {
          "indexed": false,
          "internalType": "uint256",
          "name": "oldSubmissionGatingByVotingToken",
          "type": "uint256"
        },
        {
          "indexed": false,
          "internalType": "uint256",
          "name": "newSubmissionGatingByVotingToken",
          "type": "uint256"
        }
      ],
      "name": "SubmissionGatingByVotingTokenSet",
      "type": "event"
    },
    {
      "anonymous": false,
      "inputs": [
        {
          "indexed": true,
          "internalType": "address",
          "name": "voter",
          "type": "address"
        },
        {
          "indexed": false,
          "internalType": "uint256",
          "name": "proposalId",
          "type": "uint256"
        },
        {
          "indexed": false,
          "internalType": "uint8",
          "name": "support",
          "type": "uint8"
        },
        {
          "indexed": false,
          "internalType": "uint256",
          "name": "numVotes",
          "type": "uint256"
        },
        {
          "indexed": false,
          "internalType": "string",
          "name": "reason",
          "type": "string"
        }
      ],
      "name": "VoteCast",
      "type": "event"
    },
    {
      "anonymous": false,
      "inputs": [
        {
          "indexed": false,
          "internalType": "uint256",
          "name": "oldVotingDelay",
          "type": "uint256"
        },
        {
          "indexed": false,
          "internalType": "uint256",
          "name": "newVotingDelay",
          "type": "uint256"
        }
      ],
      "name": "VotingDelaySet",
      "type": "event"
    },
    {
      "anonymous": false,
      "inputs": [
        {
          "indexed": false,
          "internalType": "uint256",
          "name": "oldVotingPeriod",
          "type": "uint256"
        },
        {
          "indexed": false,
          "internalType": "uint256",
          "name": "newVotingPeriod",
          "type": "uint256"
        }
      ],
      "name": "VotingPeriodSet",
      "type": "event"
    },
    {
      "inputs": [],
      "name": "AMOUNT_FOR_SUMBITTER_PROOF",
      "outputs": [
        {
          "internalType": "uint8",
          "name": "",
          "type": "uint8"
        }
      ],
      "stateMutability": "view",
      "type": "function"
    },
    {
      "inputs": [],
      "name": "BALLOT_TYPEHASH",
      "outputs": [
        {
          "internalType": "bytes32",
          "name": "",
          "type": "bytes32"
        }
      ],
      "stateMutability": "view",
      "type": "function"
    },
    {
      "inputs": [],
      "name": "COUNTING_MODE",
      "outputs": [
        {
          "internalType": "string",
          "name": "",
          "type": "string"
        }
      ],
      "stateMutability": "pure",
      "type": "function"
    },
    {
      "inputs": [
        {
          "internalType": "address",
          "name": "",
          "type": "address"
        }
      ],
      "name": "addressTotalVotes",
      "outputs": [
        {
          "internalType": "uint256",
          "name": "",
          "type": "uint256"
        }
      ],
      "stateMutability": "view",
      "type": "function"
    },
    {
      "inputs": [],
      "name": "allProposalTotalVotes",
      "outputs": [
        {
          "internalType": "uint256[]",
          "name": "proposalIdsReturn",
          "type": "uint256[]"
        },
        {
          "components": [
            {
              "internalType": "uint256",
              "name": "forVotes",
              "type": "uint256"
            },
            {
              "internalType": "uint256",
              "name": "againstVotes",
              "type": "uint256"
            }
          ],
          "internalType": "struct GovernorCountingSimple.VoteCounts[]",
          "name": "proposalVoteCountsArrayReturn",
          "type": "tuple[]"
        }
      ],
      "stateMutability": "view",
      "type": "function"
    },
    {
      "inputs": [],
      "name": "allProposalTotalVotesWithoutDeleted",
      "outputs": [
        {
          "internalType": "uint256[]",
          "name": "proposalIdsReturn",
          "type": "uint256[]"
        },
        {
          "components": [
            {
              "internalType": "uint256",
              "name": "forVotes",
              "type": "uint256"
            },
            {
              "internalType": "uint256",
              "name": "againstVotes",
              "type": "uint256"
            }
          ],
          "internalType": "struct GovernorCountingSimple.VoteCounts[]",
          "name": "proposalVoteCountsArrayReturn",
          "type": "tuple[]"
        }
      ],
      "stateMutability": "view",
      "type": "function"
    },
    {
      "inputs": [],
      "name": "cancel",
      "outputs": [],
      "stateMutability": "nonpayable",
      "type": "function"
    },
    {
      "inputs": [
        {
          "internalType": "uint256",
          "name": "proposalId",
          "type": "uint256"
        },
        {
          "internalType": "uint8",
          "name": "support",
          "type": "uint8"
        },
        {
          "internalType": "uint256",
          "name": "totalVotes",
          "type": "uint256"
        },
        {
          "internalType": "uint256",
          "name": "numVotes",
          "type": "uint256"
        },
        {
          "internalType": "bytes32[]",
          "name": "proof",
          "type": "bytes32[]"
        }
      ],
      "name": "castVote",
      "outputs": [
        {
          "internalType": "uint256",
          "name": "",
          "type": "uint256"
        }
      ],
      "stateMutability": "nonpayable",
      "type": "function"
    },
    {
      "inputs": [
        {
          "internalType": "uint256",
          "name": "proposalId",
          "type": "uint256"
        },
        {
          "internalType": "uint8",
          "name": "support",
          "type": "uint8"
        },
        {
          "internalType": "uint256",
          "name": "numVotes",
          "type": "uint256"
        }
      ],
      "name": "castVoteWithoutProof",
      "outputs": [
        {
          "internalType": "uint256",
          "name": "",
          "type": "uint256"
        }
      ],
      "stateMutability": "nonpayable",
      "type": "function"
    },
    {
      "inputs": [
        {
          "internalType": "address",
          "name": "addressToCheck",
          "type": "address"
        },
        {
          "internalType": "uint256",
          "name": "amount",
          "type": "uint256"
        },
        {
          "internalType": "bytes32[]",
          "name": "proof",
          "type": "bytes32[]"
        },
        {
          "internalType": "bool",
          "name": "voting",
          "type": "bool"
        }
      ],
      "name": "checkProof",
      "outputs": [
        {
          "internalType": "bool",
          "name": "verified",
          "type": "bool"
        }
      ],
      "stateMutability": "view",
      "type": "function"
    },
    {
      "inputs": [
        {
          "internalType": "address",
          "name": "userAddress",
          "type": "address"
        }
      ],
      "name": "contestAddressTotalVotesCast",
      "outputs": [
        {
          "internalType": "uint256",
          "name": "totalVotesCast",
          "type": "uint256"
        }
      ],
      "stateMutability": "view",
      "type": "function"
    },
    {
      "inputs": [],
      "name": "contestDeadline",
      "outputs": [
        {
          "internalType": "uint256",
          "name": "",
          "type": "uint256"
        }
      ],
      "stateMutability": "view",
      "type": "function"
    },
    {
      "inputs": [],
      "name": "contestSnapshot",
      "outputs": [
        {
          "internalType": "uint256",
          "name": "",
          "type": "uint256"
        }
      ],
      "stateMutability": "view",
      "type": "function"
    },
    {
      "inputs": [],
      "name": "contestStart",
      "outputs": [
        {
          "internalType": "uint256",
          "name": "",
          "type": "uint256"
        }
      ],
      "stateMutability": "view",
      "type": "function"
    },
    {
      "inputs": [],
      "name": "creator",
      "outputs": [
        {
          "internalType": "address",
          "name": "",
          "type": "address"
        }
      ],
      "stateMutability": "view",
      "type": "function"
    },
    {
      "inputs": [
        {
          "internalType": "uint256[]",
          "name": "proposalIds",
          "type": "uint256[]"
        }
      ],
      "name": "deleteProposals",
      "outputs": [],
      "stateMutability": "nonpayable",
      "type": "function"
    },
    {
      "inputs": [],
      "name": "downvotingAllowed",
      "outputs": [
        {
          "internalType": "uint256",
          "name": "",
          "type": "uint256"
        }
      ],
      "stateMutability": "view",
      "type": "function"
    },
    {
      "inputs": [],
      "name": "getAllProposalIds",
      "outputs": [
        {
          "internalType": "uint256[]",
          "name": "",
          "type": "uint256[]"
        }
      ],
      "stateMutability": "view",
      "type": "function"
    },
    {
      "inputs": [
        {
          "internalType": "address",
          "name": "account",
          "type": "address"
        }
      ],
      "name": "getNumSubmissions",
      "outputs": [
        {
          "internalType": "uint256",
          "name": "",
          "type": "uint256"
        }
      ],
      "stateMutability": "view",
      "type": "function"
    },
    {
      "inputs": [
        {
          "internalType": "uint256",
          "name": "proposalId",
          "type": "uint256"
        }
      ],
      "name": "getProposal",
      "outputs": [
        {
          "components": [
            {
              "internalType": "address",
              "name": "author",
              "type": "address"
            },
            {
              "internalType": "string",
              "name": "description",
              "type": "string"
            },
            {
              "internalType": "bool",
              "name": "exists",
              "type": "bool"
            }
          ],
          "internalType": "struct Governor.ProposalCore",
          "name": "",
          "type": "tuple"
        }
      ],
      "stateMutability": "view",
      "type": "function"
    },
    {
      "inputs": [
        {
          "internalType": "string",
          "name": "proposalDescription",
          "type": "string"
        }
      ],
      "name": "hashProposal",
      "outputs": [
        {
          "internalType": "uint256",
          "name": "",
          "type": "uint256"
        }
      ],
      "stateMutability": "pure",
      "type": "function"
    },
    {
      "inputs": [
        {
          "internalType": "uint256",
          "name": "proposalId",
          "type": "uint256"
        }
      ],
      "name": "isProposalDeleted",
      "outputs": [
        {
          "internalType": "uint256",
          "name": "",
          "type": "uint256"
        }
      ],
      "stateMutability": "view",
      "type": "function"
    },
    {
      "inputs": [],
      "name": "maxProposalCount",
      "outputs": [
        {
          "internalType": "uint256",
          "name": "",
          "type": "uint256"
        }
      ],
      "stateMutability": "view",
      "type": "function"
    },
    {
      "inputs": [],
      "name": "name",
      "outputs": [
        {
          "internalType": "string",
          "name": "",
          "type": "string"
        }
      ],
      "stateMutability": "view",
      "type": "function"
    },
    {
      "inputs": [],
      "name": "numAllowedProposalSubmissions",
      "outputs": [
        {
          "internalType": "uint256",
          "name": "",
          "type": "uint256"
        }
      ],
      "stateMutability": "view",
      "type": "function"
    },
    {
      "inputs": [],
      "name": "officialRewardsModule",
      "outputs": [
        {
          "internalType": "contract RewardsModule",
          "name": "",
          "type": "address"
        }
      ],
      "stateMutability": "view",
      "type": "function"
    },
    {
      "inputs": [],
      "name": "prompt",
      "outputs": [
        {
          "internalType": "string",
          "name": "",
          "type": "string"
        }
      ],
      "stateMutability": "view",
      "type": "function"
    },
    {
      "inputs": [
        {
          "internalType": "uint256",
          "name": "proposalId",
          "type": "uint256"
        },
        {
          "internalType": "address",
          "name": "userAddress",
          "type": "address"
        }
      ],
      "name": "proposalAddressVotes",
      "outputs": [
        {
          "internalType": "uint256",
          "name": "forVotes",
          "type": "uint256"
        },
        {
          "internalType": "uint256",
          "name": "againstVotes",
          "type": "uint256"
        }
      ],
      "stateMutability": "view",
      "type": "function"
    },
    {
      "inputs": [
        {
          "internalType": "uint256",
          "name": "proposalId",
          "type": "uint256"
        }
      ],
      "name": "proposalAddressesHaveVoted",
      "outputs": [
        {
          "internalType": "address[]",
          "name": "",
          "type": "address[]"
        }
      ],
      "stateMutability": "view",
      "type": "function"
    },
    {
      "inputs": [],
      "name": "proposalThreshold",
      "outputs": [
        {
          "internalType": "uint256",
          "name": "",
          "type": "uint256"
        }
      ],
      "stateMutability": "view",
      "type": "function"
    },
    {
      "inputs": [
        {
          "internalType": "uint256",
          "name": "proposalId",
          "type": "uint256"
        }
      ],
      "name": "proposalVotes",
      "outputs": [
        {
          "internalType": "uint256",
          "name": "forVotes",
          "type": "uint256"
        },
        {
          "internalType": "uint256",
          "name": "againstVotes",
          "type": "uint256"
        }
      ],
      "stateMutability": "view",
      "type": "function"
    },
    {
      "inputs": [
        {
          "internalType": "string",
          "name": "proposalDescription",
          "type": "string"
        },
        {
          "internalType": "bytes32[]",
          "name": "proof",
          "type": "bytes32[]"
        }
      ],
      "name": "propose",
      "outputs": [
        {
          "internalType": "uint256",
          "name": "",
          "type": "uint256"
        }
      ],
      "stateMutability": "nonpayable",
      "type": "function"
    },
    {
      "inputs": [
        {
          "internalType": "contract RewardsModule",
          "name": "officialRewardsModule_",
          "type": "address"
        }
      ],
      "name": "setOfficialRewardsModule",
      "outputs": [],
      "stateMutability": "nonpayable",
      "type": "function"
    },
    {
      "inputs": [
        {
          "internalType": "bool",
          "name": "excludeDeletedProposals",
          "type": "bool"
        }
      ],
      "name": "sortedProposals",
      "outputs": [
        {
          "internalType": "uint256[]",
          "name": "sortedProposalIdsReturn",
          "type": "uint256[]"
        }
      ],
      "stateMutability": "view",
      "type": "function"
    },
    {
      "inputs": [],
      "name": "state",
      "outputs": [
        {
          "internalType": "enum IGovernor.ContestState",
          "name": "",
          "type": "uint8"
        }
      ],
      "stateMutability": "view",
      "type": "function"
    },
    {
      "inputs": [],
      "name": "submissionMerkleRoot",
      "outputs": [
        {
          "internalType": "bytes32",
          "name": "",
          "type": "bytes32"
        }
      ],
      "stateMutability": "view",
      "type": "function"
    },
    {
      "inputs": [
        {
          "internalType": "bytes4",
          "name": "interfaceId",
          "type": "bytes4"
        }
      ],
      "name": "supportsInterface",
      "outputs": [
        {
          "internalType": "bool",
          "name": "",
          "type": "bool"
        }
      ],
      "stateMutability": "view",
      "type": "function"
    },
    {
      "inputs": [
        {
          "internalType": "address",
          "name": "account",
          "type": "address"
        },
        {
          "internalType": "bytes32[]",
          "name": "proof",
          "type": "bytes32[]"
        }
      ],
      "name": "verifySubmitter",
      "outputs": [
        {
          "internalType": "bool",
          "name": "verified",
          "type": "bool"
        }
      ],
      "stateMutability": "nonpayable",
      "type": "function"
    },
    {
      "inputs": [
        {
          "internalType": "address",
          "name": "account",
          "type": "address"
        },
        {
          "internalType": "uint256",
          "name": "totalVotes",
          "type": "uint256"
        },
        {
          "internalType": "bytes32[]",
          "name": "proof",
          "type": "bytes32[]"
        }
      ],
      "name": "verifyTotalVotes",
      "outputs": [
        {
          "internalType": "bool",
          "name": "verified",
          "type": "bool"
        }
      ],
      "stateMutability": "nonpayable",
      "type": "function"
    },
    {
      "inputs": [],
      "name": "version",
      "outputs": [
        {
          "internalType": "string",
          "name": "",
          "type": "string"
        }
      ],
      "stateMutability": "view",
      "type": "function"
    },
    {
      "inputs": [],
      "name": "voteStart",
      "outputs": [
        {
          "internalType": "uint256",
          "name": "",
          "type": "uint256"
        }
      ],
      "stateMutability": "view",
      "type": "function"
    },
    {
      "inputs": [],
      "name": "votingDelay",
      "outputs": [
        {
          "internalType": "uint256",
          "name": "",
          "type": "uint256"
        }
      ],
      "stateMutability": "view",
      "type": "function"
    },
    {
      "inputs": [],
      "name": "votingMerkleRoot",
      "outputs": [
        {
          "internalType": "bytes32",
          "name": "",
          "type": "bytes32"
        }
      ],
      "stateMutability": "view",
      "type": "function"
    },
    {
      "inputs": [],
      "name": "votingPeriod",
      "outputs": [
        {
          "internalType": "uint256",
          "name": "",
          "type": "uint256"
        }
      ],
      "stateMutability": "view",
      "type": "function"
    },
    {
      "stateMutability": "payable",
      "type": "receive"
    }
  ],
  "bytecode": {
    "object": "0x6101806040523480156200001257600080fd5b506040516200355b3803806200355b8339810160408190526200003591620006aa565b806000815181106200004b576200004b620007bb565b602002602001015181600181518110620000695762000069620007bb565b602002602001015182600281518110620000875762000087620007bb565b602002602001015183600381518110620000a557620000a5620007bb565b602002602001015184600481518110620000c357620000c3620007bb565b602002602001015185600581518110620000e157620000e1620007bb565b602002602001015186600681518110620000ff57620000ff620007bb565b6020026020010151876007815181106200011d576200011d620007bb565b6020026020010151886008815181106200013b576200013b620007bb565b60200260200101518d8d8d8d8181856200015a620002a060201b60201c565b815160208084019190912082518383012060e08290526101008190524660a0818152604080517f8b73c3c69bb8fe3d512ecc4cf759cc79239f7b179b0ffacaa9a75d522b39400f81880181905281830187905260608201869052608082019490945230818401528151808203909301835260c00190528051940193909320919290916080523060c05261012052505050610140929092526101605250600562000204858262000860565b50600662000213848262000860565b50505050506200022989620002bd60201b60201c565b6200023488620002fe565b6200023f876200033f565b6200024a86620003e5565b620002558562000426565b620002608462000467565b6200026b83620004a8565b6200027682620004e9565b62000281816200052a565b6200028c336200056b565b50505050505050505050505050506200092c565b604080518082019091526003815262332e3160e81b602082015290565b600a5460408051918252602082018390527fd299feb1d7d9345a48559601c471c3be7eea9a11f21d5e86809198f40a974db4910160405180910390a1600a55565b600b5460408051918252602082018390527fc565b045403dc03c2eea82b81a0465edad9e2e7fc4d97e11421c209da93d7a93910160405180910390a1600b55565b60008111620003a45760405162461bcd60e51b815260206004820152602760248201527f476f7665726e6f7253657474696e67733a20766f74696e6720706572696f6420604482015266746f6f206c6f7760c81b606482015260840160405180910390fd5b600c5460408051918252602082018390527f7e3f7f0708a84de9203036abaa450dccc85ad5ff52f78c170f3edb55cf5e8828910160405180910390a1600c55565b600d5460408051918252602082018390527f70d92b9b65fcaa7708049081fd0ad601c9af76bd86d38df0337dfce3d025ec83910160405180910390a1600d55565b600e5460408051918252602082018390527fccb45da8d5717e6c4544694297c4ba5cf151d455c9bb0ed4fc7a38411bc05461910160405180910390a1600e55565b600f5460408051918252602082018390527fe971b819c7fb95c72451f557226aceb5baaf4994a9d39a79bbfa0040e87500b9910160405180910390a1600f55565b60105460408051918252602082018390527f4984ec996723330ee95979ed65a2a4b41edd914e68a187efe92596474643bdff910160405180910390a1601055565b60115460408051918252602082018390527f9c7b27f091caef3a83be73d89320404fa0c4a52993685ff0651672e49e6e55ab910160405180910390a1601155565b60125460408051918252602082018390527f5f16486d27561553b443370316cba86e966b1e5ec1691fa07c81944abf314441910160405180910390a1601255565b601354604080516001600160a01b03928316815291831660208301527fc30034fc2e9697980e08935bbc287db3eaa44a4aa113ef4c108b356adbf911ce910160405180910390a1601380546001600160a01b0319166001600160a01b0392909216919091179055565b634e487b7160e01b600052604160045260246000fd5b604051601f8201601f191681016001600160401b0381118282101715620006155762000615620005d4565b604052919050565b600082601f8301126200062f57600080fd5b81516001600160401b038111156200064b576200064b620005d4565b602062000661601f8301601f19168201620005ea565b82815285828487010111156200067657600080fd5b60005b838110156200069657858101830151828201840152820162000679565b506000928101909101919091529392505050565b600080600080600060a08688031215620006c357600080fd5b85516001600160401b0380821115620006db57600080fd5b620006e989838a016200061d565b96506020915081880151818111156200070157600080fd5b6200070f8a828b016200061d565b96505060408801519450606088015193506080880151818111156200073357600080fd5b8801601f81018a136200074557600080fd5b8051828111156200075a576200075a620005d4565b8060051b92506200076d848401620005ea565b818152928201840192848101908c8511156200078857600080fd5b928501925b84841015620007a8578351825292850192908501906200078d565b8096505050505050509295509295909350565b634e487b7160e01b600052603260045260246000fd5b600181811c90821680620007e657607f821691505b6020821081036200080757634e487b7160e01b600052602260045260246000fd5b50919050565b601f8211156200085b57600081815260208120601f850160051c81016020861015620008365750805b601f850160051c820191505b81811015620008575782815560010162000842565b5050505b505050565b81516001600160401b038111156200087c576200087c620005d4565b62000894816200088d8454620007d1565b846200080d565b602080601f831160018114620008cc5760008415620008b35750858301515b600019600386901b1c1916600185901b17855562000857565b600085815260208120601f198616915b82811015620008fd57888601518255948401946001909101908401620008dc565b50858210156200091c5787850151600019600388901b60f8161c191681555b5050505050600190811b01905550565b60805160a05160c05160e05161010051610120516101405161016051612bcd6200098e600039600081816107880152610ea90152600081816106aa0152610e440152600050506000505060005050600050506000505060005050612bcd6000f3fe60806040526004361061026a5760003560e01c80637c65d71111610144578063d45a010b116100b6578063e031535b1161007a578063e031535b1461080b578063ea8a1af014610820578063efa90d3614610835578063f0a7db0a1461084a578063f4f3d7ec1461086a578063fb9bf8d41461088a57600080fd5b8063d45a010b1461071b578063dd4e2ba514610730578063dd96a19d14610776578063dea5f6a6146107aa578063deaaa7cc146107d757600080fd5b8063b323580d11610108578063b323580d14610636578063b58131b014610663578063bd65e80a14610678578063bddc164114610698578063c19d93fb146106cc578063c7f758a8146106ee57600080fd5b80637c65d711146105965780637d8bfc44146105ab578063832009af146105cb5780638d50dc6b146105e0578063aec116b61461060057600080fd5b8063419c533c116101dd57806354fd4d50116101a157806354fd4d50146104c15780635f953a03146104ed57806360506ff61461052357806365f16263146105385780636e4eb81014610558578063785ddfe51461057857600080fd5b8063419c533c146103f2578063427d56c21461041257806350a5e5241461043f578063540a919014610462578063544ffc9c1461047757600080fd5b806306fdde031161022f57806306fdde0314610332578063262e59e91461035457806332763c2214610369578063347cf665146103895780633932abb1146103b05780633b6d199b146103c557600080fd5b80624114a81461027857806301cbcdbe146102a057806301ffc9a7146102c057806302a251a3146102f057806302d05d3f1461030557600080fd5b3661027357005b005b600080fd5b34801561028457600080fd5b5061028d61089f565b6040519081526020015b60405180910390f35b3480156102ac57600080fd5b5061028d6102bb366004612367565b6108af565b3480156102cc57600080fd5b506102e06102db3660046123cf565b610cc1565b6040519015158152602001610297565b3480156102fc57600080fd5b5061028d610cf8565b34801561031157600080fd5b5061031a610d03565b6040516001600160a01b039091168152602001610297565b34801561033e57600080fd5b50610347610d17565b604051610297919061243f565b34801561036057600080fd5b5061028d610da9565b34801561037557600080fd5b506102e061038436600461247f565b610dc5565b34801561039557600080fd5b5061039e600181565b60405160ff9091168152602001610297565b3480156103bc57600080fd5b5061028d610f02565b3480156103d157600080fd5b5061028d6103e03660046124ef565b60009081526004602052604090205490565b3480156103fe57600080fd5b5061028d61040d366004612519565b610f0d565b34801561041e57600080fd5b5061043261042d366004612589565b610f45565b60405161029791906125df565b34801561044b57600080fd5b50610454611071565b6040516102979291906125f2565b34801561046e57600080fd5b50600d5461028d565b34801561048357600080fd5b506104ac6104923660046124ef565b600090815260156020526040902080546001909101549091565b60408051928352602083019190915201610297565b3480156104cd57600080fd5b50604080518082019091526003815262332e3160e81b6020820152610347565b3480156104f957600080fd5b5061028d610508366004612653565b6001600160a01b031660009081526009602052604090205490565b34801561052f57600080fd5b5061028d611177565b34801561054457600080fd5b5061028d610553366004612670565b611182565b34801561056457600080fd5b506104ac6105733660046126a5565b61124a565b34801561058457600080fd5b506016546001600160a01b031661031a565b3480156105a257600080fd5b5061034761127f565b3480156105b757600080fd5b506102e06105c63660046126d5565b61128e565b3480156105d757600080fd5b5061028d6112f9565b3480156105ec57600080fd5b506102e06105fb366004612730565b611304565b34801561060c57600080fd5b5061028d61061b366004612653565b6001600160a01b031660009081526014602052604090205490565b34801561064257600080fd5b506106566106513660046124ef565b611362565b6040516102979190612777565b34801561066f57600080fd5b5061028d6113d4565b34801561068457600080fd5b5061028d6106933660046127c4565b6113df565b3480156106a457600080fd5b5061028d7f000000000000000000000000000000000000000000000000000000000000000081565b3480156106d857600080fd5b506106e1611410565b6040516102979190612816565b3480156106fa57600080fd5b5061070e6107093660046124ef565b611482565b604051610297919061283e565b34801561072757600080fd5b50610454611586565b34801561073c57600080fd5b5060408051808201909152601881527f737570706f72743d627261766f2671756f72756d3d666f7200000000000000006020820152610347565b34801561078257600080fd5b5061028d7f000000000000000000000000000000000000000000000000000000000000000081565b3480156107b657600080fd5b5061028d6107c5366004612653565b60006020819052908152604090205481565b3480156107e357600080fd5b5061028d7f150214d74d59b7d1e90c73fc22ef3d991dd0a76b046543d4d80ab92d2a50328f81565b34801561081757600080fd5b5061028d611751565b34801561082c57600080fd5b50610271611763565b34801561084157600080fd5b5061043261184d565b34801561085657600080fd5b50610271610865366004612884565b6118a4565b34801561087657600080fd5b50610271610885366004612653565b611ae7565b34801561089657600080fd5b5061028d611b82565b60006108aa600a5490565b905090565b600060036108bb611410565b60048111156108cc576108cc612800565b146109445760405162461bcd60e51b815260206004820152603e60248201527f476f7665726e6f723a20636f6e74657374206d7573742062652071756575656460448201527f20666f722070726f706f73616c7320746f206265207375626d6974746564000060648201526084015b60405180910390fd5b61094c6112f9565b33600090815260096020526040902054106109f55760405162461bcd60e51b815260206004820152605d60248201527f476f7665726e6f723a207468652073616d652063616e6e6f74207375626d697460448201527f206d6f7265207468616e20746865206e756d416c6c6f77656450726f706f736160648201527f6c5375626d697373696f6e7320666f72207468697320636f6e74657374000000608482015260a40161093b565b6109fd611b82565b60035410610a735760405162461bcd60e51b815260206004820152603960248201527f476f7665726e6f723a20746865206d6178206e756d626572206f662070726f7060448201527f6f73616c732068617665206265656e207375626d697474656400000000000000606482015260840161093b565b610a7e338484611304565b610ae25760405162461bcd60e51b815260206004820152602f60248201527f476f7665726e6f723a2061646472657373206973206e6f74207065726d69737360448201526e1a5bdb9959081d1bc81cdd589b5a5d608a1b606482015260840161093b565b8351600003610b335760405162461bcd60e51b815260206004820152601860248201527f476f7665726e6f723a20656d7074792070726f706f73616c0000000000000000604482015260640161093b565b6000610b3e856113df565b60008181526008602052604090206002015490915060ff1615610bb55760405162461bcd60e51b815260206004820152602960248201527f476f7665726e6f723a206475706c69636174652070726f706f73616c73206e6f6044820152681d08185b1b1bddd95960ba1b606482015260840161093b565b6003805460018082019092557fc2575a0e9e593c00f959f8c92f12db2869c3395a3b0502d05e2516446f71f85b0182905560408051606081018252338152602080820189815282840185905260008681526008909252929020815181546001600160a01b0319166001600160a01b0390911617815591519092820190610c3b90826129a6565b50604091820151600291909101805460ff19169115159190911790553360009081526009602052908120805460019290610c76908490612a7b565b909155507fc8c078bfee58e5822588f08b4509ed1eb5058e03f666cca84dd2d44bf5c288a89050818633604051610caf93929190612a8e565b60405180910390a190505b9392505050565b60006001600160e01b0319821663f1bae07f60e01b1480610cf257506301ffc9a760e01b6001600160e01b03198316145b92915050565b60006108aa600c5490565b60006108aa6013546001600160a01b031690565b606060058054610d269061291d565b80601f0160208091040260200160405190810160405280929190818152602001828054610d529061291d565b8015610d9f5780601f10610d7457610100808354040283529160200191610d9f565b820191906000526020600020905b815481529060010190602001808311610d8257829003601f168201915b5050505050905090565b6000610db3610cf8565b610dbb611751565b6108aa9190612a7b565b6040516bffffffffffffffffffffffff19606087901b166020820152603481018590526000908190605401604051602081830303815290604052805190602001209050600083610e7457610e6f8686808060200260200160405190810160405280939291908181526020018383602002808284376000920191909152507f00000000000000000000000000000000000000000000000000000000000000009250869150611b8d9050565b610ed4565b610ed48686808060200260200160405190810160405280939291908181526020018383602002808284376000920191909152507f00000000000000000000000000000000000000000000000000000000000000009250869150611b8d9050565b905080610ef45760405163452c2df160e11b815260040160405180910390fd5b506001979650505050505050565b60006108aa600b5490565b600033610f1c8187868661128e565b50610f398882898860405180602001604052806000815250611ba3565b98975050505050505050565b606060008083610f5c57610f57611071565b610f64565b610f64611586565b91509150600082516001600160401b03811115610f8357610f8361226e565b604051908082528060200260200182016040528015610fac578160200160208202803683370190505b50905060005b825181101561103057828181518110610fcd57610fcd612abf565b602002602001015160200151838281518110610feb57610feb612abf565b6020026020010151600001516110019190612ad5565b82828151811061101357611013612abf565b60209081029190910101528061102881612afc565b915050610fb2565b5060005b600184516110429190612b15565b81101561106757611054818386611de0565b508061105f81612afc565b915050611034565b5091949350505050565b606080600061107e61184d565b9050600081516001600160401b0381111561109b5761109b61226e565b6040519080825280602002602001820160405280156110e057816020015b60408051808201909152600080825260208201528152602001906001900390816110b95790505b50905060005b825181101561116d576015600084838151811061110557611105612abf565b602002602001015181526020019081526020016000206000016040518060400160405290816000820154815260200160018201548152505082828151811061114f5761114f612abf565b6020026020010181905250808061116590612afc565b9150506110e6565b5090939092509050565b60006108aa60115490565b3360008181526001602052604081205490919060ff166112255760405162461bcd60e51b815260206004820152605260248201527f476f7665726e6f723a20796f75206e65656420746f2063617374206120766f7460448201527f652077697468207468652070726f6f66206174206c65617374206f6e636520616064820152711b99081e5bdd481a185d995b89dd081e595d60721b608482015260a40161093b565b6112418582868660405180602001604052806000815250611ba3565b95945050505050565b60008281526015602090815260408083206001600160a01b0385168452600301909152902080546001909101545b9250929050565b606060068054610d269061291d565b6001600160a01b03841660009081526001602052604081205460ff166112ee576112bc858585856000610dc5565b506001600160a01b038516600090815260208181526040808320879055600191829052909120805460ff191690911790555b506001949350505050565b60006108aa600f5490565b6001600160a01b03831660009081526002602052604081205460ff166113585761133384600185856000610dc5565b506001600160a01b0384166000908152600260205260409020805460ff191660011790555b5060019392505050565b60008181526015602090815260409182902060028101805484518185028101850190955280855260609492938301828280156113c757602002820191906000526020600020905b81546001600160a01b031681526001909101906020018083116113a9575b5050505050915050919050565b60006108aa600e5490565b6000816040516020016113f2919061243f565b60408051601f19818403018152919052805160209091012092915050565b60075460009060ff16156114245750600290565b600061142e61089f565b905042811061143f57600091505090565b6000611449611751565b905042811061145b5760039250505090565b6000611465610da9565b9050428110611478576001935050505090565b6004935050505090565b6114b1604051806060016040528060006001600160a01b03168152602001606081526020016000151581525090565b60008281526008602090815260409182902082516060810190935280546001600160a01b0316835260018101805491928401916114ed9061291d565b80601f01602080910402602001604051908101604052809291908181526020018280546115199061291d565b80156115665780601f1061153b57610100808354040283529160200191611566565b820191906000526020600020905b81548152906001019060200180831161154957829003601f168201915b50505091835250506002919091015460ff16151560209091015292915050565b606080600061159361184d565b9050600081516001600160401b038111156115b0576115b061226e565b6040519080825280602002602001820160405280156115d9578160200160208202803683370190505b509050600082516001600160401b038111156115f7576115f761226e565b60405190808252806020026020018201604052801561163c57816020015b60408051808201909152600080825260208201528152602001906001900390816116155790505b5090506000805b84518110156117455761167b85828151811061166157611661612abf565b602002602001015160009081526004602052604090205490565b6001146117335784818151811061169457611694612abf565b60200260200101518483815181106116ae576116ae612abf565b602002602001018181525050601560008683815181106116d0576116d0612abf565b602002602001015181526020019081526020016000206000016040518060400160405290816000820154815260200160018201548152505083838151811061171a5761171a612abf565b6020908102919091010152611730600183612a7b565b91505b8061173d81612afc565b915050611643565b50919590945092505050565b600061175b610f02565b610dbb61089f565b61176b610d03565b6001600160a01b0316336001600160a01b03161461178857600080fd5b6000611792611410565b905060028160048111156117a8576117a8612800565b141580156117c8575060048160048111156117c5576117c5612800565b14155b6118145760405162461bcd60e51b815260206004820152601c60248201527f476f7665726e6f723a20636f6e74657374206e6f742061637469766500000000604482015260640161093b565b6007805460ff191660011790556040517f4cd963a081760a54f571abc0f1db4dde31b4a07d8d6da3e844b8c6f47eeaaa4290600090a150565b60606003805480602002602001604051908101604052809291908181526020018280548015610d9f57602002820191906000526020600020905b815481526020019060010190808311611887575050505050905090565b6118ac610d03565b6001600160a01b0316336001600160a01b0316146119325760405162461bcd60e51b815260206004820152603760248201527f476f7665726e6f723a206f6e6c792074686520636f6e7465737420637265617460448201527f6f722063616e2064656c6574652070726f706f73616c73000000000000000000606482015260840161093b565b600461193c611410565b600481111561194d5761194d612800565b036119d25760405162461bcd60e51b815260206004820152604960248201527f476f7665726e6f723a2064656c6574696f6e206f662070726f706f73616c732060448201527f61667465722074686520656e64206f66206120636f6e74657374206973206e6f6064820152681d08185b1b1bddd95960ba1b608482015260a40161093b565b60005b8151811015611aac57600460008383815181106119f4576119f4612abf565b6020026020010151815260200190815260200160002054600114611a9a57600160046000848481518110611a2a57611a2a612abf565b60200260200101518152602001908152602001600020819055506040518060600160405280603d8152602001612b5b603d913960086000848481518110611a7357611a73612abf565b602002602001015181526020019081526020016000206001019081611a9891906129a6565b505b80611aa481612afc565b9150506119d5565b507f75a75cf5c561892f4cc5b26c1b8e933849b42238c96dd073d080d1ae96c5141681604051611adc91906125df565b60405180910390a150565b611aef610d03565b6001600160a01b0316336001600160a01b031614611b0c57600080fd5b6000611b206016546001600160a01b031690565b601680546001600160a01b0319166001600160a01b0385811691821790925560408051928416835260208301919091529192507f753a2cf8d360cff631674504210913e48247f8e56b3e6d2006c2103d4095999f910160405180910390a15050565b60006108aa60105490565b600082611b9a8584611f46565b14949350505050565b60006001611baf611410565b6004811115611bc057611bc0612800565b14611c195760405162461bcd60e51b815260206004820152602360248201527f476f7665726e6f723a20766f7465206e6f742063757272656e746c792061637460448201526269766560e81b606482015260840161093b565b60008311611c7d5760405162461bcd60e51b815260206004820152602b60248201527f476f7665726e6f723a2063616e6e6f7420766f746520776974682030206f722060448201526a666577657220766f74657360a81b606482015260840161093b565b6001600160a01b03851660009081526001602052604090205460ff16611d475760405162461bcd60e51b815260206004820152606d60248201527f476f7665726e6f723a206e6f74207375726520686f7720796f7520676f74206860448201527f6572652062757420796f75206e65656420746f2076657269667920796f75722060648201527f6e756d626572206f6620766f74657320616761696e737420746865206d65726b60848201526c1b19481c9bdbdd08199a5c9cdd609a1b60a482015260c40161093b565b611d78868686866000808b6001600160a01b03166001600160a01b0316815260200190815260200160002054611fba565b846001600160a01b03167fb8e138887d0aa13bab447e82de9d5c1777041ecd21ca36ba824ff1e6c07ddda487868686604051611db79493929190612b28565b60405180910390a2505050506001600160a01b0316600090815260208190526040902054919050565b600083805b8451811015611e3e57848281518110611e0057611e00612abf565b6020026020010151858281518110611e1a57611e1a612abf565b60200260200101511215611e2c578091505b80611e3681612afc565b915050611de5565b50848103611e50576000915050610cba565b6000848681518110611e6457611e64612abf565b60200260200101519050848281518110611e8057611e80612abf565b6020026020010151858781518110611e9a57611e9a612abf565b60200260200101818152505080858381518110611eb957611eb9612abf565b6020026020010181815250506000848781518110611ed957611ed9612abf565b60200260200101519050848381518110611ef557611ef5612abf565b6020026020010151858881518110611f0f57611f0f612abf565b60200260200101818152505080858481518110611f2e57611f2e612abf565b60209081029190910101525060019695505050505050565b600081815b8451811015611fb2576000858281518110611f6857611f68612abf565b60200260200101519050808311611f8e5760008381526020829052604090209250611f9f565b600081815260208490526040902092505b5080611faa81612afc565b915050611f4b565b509392505050565b60008581526015602090815260408083206001600160a01b0388168452601490925290912054611fea9083612b15565b8311156120555760405162461bcd60e51b815260206004820152603360248201527f476f7665726e6f72566f74696e6753696d706c653a206e6f7420656e6f756768604482015272081d9bdd195cc81b19599d081d1bc818d85cdd606a1b606482015260840161093b565b6001600160a01b03851660009081526003820160205260409020541560ff85166120c75781548490839060009061208d908490612a7b565b90915550506001600160a01b0386166000908152600383016020526040812080548692906120bc908490612a7b565b909155506122019050565b60001960ff86160161219b576120db611177565b600114612152576040805162461bcd60e51b81526020600482015260248101919091527f476f7665726e6f72566f74696e6753696d706c653a20646f776e766f74696e6760448201527f206973206e6f7420656e61626c656420666f72207468697320436f6e74657374606482015260840161093b565b838260000160010160008282546121699190612a7b565b90915550506001600160a01b0386166000908152600383016020526040812060010180548692906120bc908490612a7b565b60405162461bcd60e51b815260206004820152603560248201527f476f7665726e6f72566f74696e6753696d706c653a20696e76616c69642076616044820152746c756520666f7220656e756d20566f74655479706560581b606482015260840161093b565b801561223857600282018054600181018255600091825260209091200180546001600160a01b0319166001600160a01b0388161790555b6001600160a01b03861660009081526014602052604081208054869290612260908490612a7b565b909155505050505050505050565b634e487b7160e01b600052604160045260246000fd5b604051601f8201601f191681016001600160401b03811182821017156122ac576122ac61226e565b604052919050565b600082601f8301126122c557600080fd5b81356001600160401b038111156122de576122de61226e565b6122f1601f8201601f1916602001612284565b81815284602083860101111561230657600080fd5b816020850160208301376000918101602001919091529392505050565b60008083601f84011261233557600080fd5b5081356001600160401b0381111561234c57600080fd5b6020830191508360208260051b850101111561127857600080fd5b60008060006040848603121561237c57600080fd5b83356001600160401b038082111561239357600080fd5b61239f878388016122b4565b945060208601359150808211156123b557600080fd5b506123c286828701612323565b9497909650939450505050565b6000602082840312156123e157600080fd5b81356001600160e01b031981168114610cba57600080fd5b6000815180845260005b8181101561241f57602081850181015186830182015201612403565b506000602082860101526020601f19601f83011685010191505092915050565b602081526000610cba60208301846123f9565b6001600160a01b038116811461246757600080fd5b50565b8035801515811461247a57600080fd5b919050565b60008060008060006080868803121561249757600080fd5b85356124a281612452565b94506020860135935060408601356001600160401b038111156124c457600080fd5b6124d088828901612323565b90945092506124e390506060870161246a565b90509295509295909350565b60006020828403121561250157600080fd5b5035919050565b803560ff8116811461247a57600080fd5b60008060008060008060a0878903121561253257600080fd5b8635955061254260208801612508565b9450604087013593506060870135925060808701356001600160401b0381111561256b57600080fd5b61257789828a01612323565b979a9699509497509295939492505050565b60006020828403121561259b57600080fd5b610cba8261246a565b600081518084526020808501945080840160005b838110156125d4578151875295820195908201906001016125b8565b509495945050505050565b602081526000610cba60208301846125a4565b60006040808352612605818401866125a4565b83810360208581019190915285518083528682019282019060005b8181101561264557845180518452840151848401529383019391850191600101612620565b509098975050505050505050565b60006020828403121561266557600080fd5b8135610cba81612452565b60008060006060848603121561268557600080fd5b8335925061269560208501612508565b9150604084013590509250925092565b600080604083850312156126b857600080fd5b8235915060208301356126ca81612452565b809150509250929050565b600080600080606085870312156126eb57600080fd5b84356126f681612452565b93506020850135925060408501356001600160401b0381111561271857600080fd5b61272487828801612323565b95989497509550505050565b60008060006040848603121561274557600080fd5b833561275081612452565b925060208401356001600160401b0381111561276b57600080fd5b6123c286828701612323565b6020808252825182820181905260009190848201906040850190845b818110156127b85783516001600160a01b031683529284019291840191600101612793565b50909695505050505050565b6000602082840312156127d657600080fd5b81356001600160401b038111156127ec57600080fd5b6127f8848285016122b4565b949350505050565b634e487b7160e01b600052602160045260246000fd5b602081016005831061283857634e487b7160e01b600052602160045260246000fd5b91905290565b602080825282516001600160a01b0316828201528201516060604083015260009061286c60808401826123f9565b90506040840151151560608401528091505092915050565b6000602080838503121561289757600080fd5b82356001600160401b03808211156128ae57600080fd5b818501915085601f8301126128c257600080fd5b8135818111156128d4576128d461226e565b8060051b91506128e5848301612284565b81815291830184019184810190888411156128ff57600080fd5b938501935b83851015610f3957843582529385019390850190612904565b600181811c9082168061293157607f821691505b60208210810361295157634e487b7160e01b600052602260045260246000fd5b50919050565b601f8211156129a157600081815260208120601f850160051c8101602086101561297e5750805b601f850160051c820191505b8181101561299d5782815560010161298a565b5050505b505050565b81516001600160401b038111156129bf576129bf61226e565b6129d3816129cd845461291d565b84612957565b602080601f831160018114612a0857600084156129f05750858301515b600019600386901b1c1916600185901b17855561299d565b600085815260208120601f198616915b82811015612a3757888601518255948401946001909101908401612a18565b5085821015612a555787850151600019600388901b60f8161c191681555b5050505050600190811b01905550565b634e487b7160e01b600052601160045260246000fd5b80820180821115610cf257610cf2612a65565b838152606060208201526000612aa760608301856123f9565b905060018060a01b0383166040830152949350505050565b634e487b7160e01b600052603260045260246000fd5b8181036000831280158383131683831282161715612af557612af5612a65565b5092915050565b600060018201612b0e57612b0e612a65565b5060010190565b81810381811115610cf257610cf2612a65565b84815260ff84166020820152826040820152608060608201526000612b5060808301846123f9565b969550505050505056fe546869732070726f706f73616c20686173206265656e2064656c65746564206279207468652063726561746f72206f662074686520636f6e746573742ea26469706673582212201437b6ac820f11353cd9f37ab65b9687bf4b3a3cc7fddecd8713185ce0dad27864736f6c63430008120033",
    "linkReferences": {}
  },
  "methodIdentifiers": {
    "AMOUNT_FOR_SUMBITTER_PROOF()": "347cf665",
    "BALLOT_TYPEHASH()": "deaaa7cc",
    "COUNTING_MODE()": "dd4e2ba5",
    "addressTotalVotes(address)": "dea5f6a6",
    "allProposalTotalVotes()": "50a5e524",
    "allProposalTotalVotesWithoutDeleted()": "d45a010b",
    "cancel()": "ea8a1af0",
    "castVote(uint256,uint8,uint256,uint256,bytes32[])": "419c533c",
    "castVoteWithoutProof(uint256,uint8,uint256)": "65f16263",
    "checkProof(address,uint256,bytes32[],bool)": "32763c22",
    "contestAddressTotalVotesCast(address)": "aec116b6",
    "contestDeadline()": "262e59e9",
    "contestSnapshot()": "540a9190",
    "contestStart()": "004114a8",
    "creator()": "02d05d3f",
    "deleteProposals(uint256[])": "f0a7db0a",
    "downvotingAllowed()": "60506ff6",
    "getAllProposalIds()": "efa90d36",
    "getNumSubmissions(address)": "5f953a03",
    "getProposal(uint256)": "c7f758a8",
    "hashProposal(string)": "bd65e80a",
    "isProposalDeleted(uint256)": "3b6d199b",
    "maxProposalCount()": "fb9bf8d4",
    "name()": "06fdde03",
    "numAllowedProposalSubmissions()": "832009af",
    "officialRewardsModule()": "785ddfe5",
    "prompt()": "7c65d711",
    "proposalAddressVotes(uint256,address)": "6e4eb810",
    "proposalAddressesHaveVoted(uint256)": "b323580d",
    "proposalThreshold()": "b58131b0",
    "proposalVotes(uint256)": "544ffc9c",
    "propose(string,bytes32[])": "01cbcdbe",
    "setOfficialRewardsModule(address)": "f4f3d7ec",
    "sortedProposals(bool)": "427d56c2",
    "state()": "c19d93fb",
    "submissionMerkleRoot()": "bddc1641",
    "supportsInterface(bytes4)": "01ffc9a7",
    "verifySubmitter(address,bytes32[])": "8d50dc6b",
    "verifyTotalVotes(address,uint256,bytes32[])": "7d8bfc44",
    "version()": "54fd4d50",
    "voteStart()": "e031535b",
    "votingDelay()": "3932abb1",
    "votingMerkleRoot()": "dd96a19d",
    "votingPeriod()": "02a251a3"
  },
  "id": 13
}