{
  "abi": [
    {
      "inputs": [
        {
          "internalType": "string",
          "name": "_name",
          "type": "string"
        },
        {
          "internalType": "string",
          "name": "_prompt",
          "type": "string"
        },
        {
          "internalType": "bytes32",
          "name": "_submissionMerkleRoot",
          "type": "bytes32"
        },
        {
          "internalType": "bytes32",
          "name": "_votingMerkleRoot",
          "type": "bytes32"
        },
        {
          "internalType": "uint256[]",
          "name": "_constructorIntParams",
          "type": "uint256[]"
        }
      ],
      "stateMutability": "nonpayable",
      "type": "constructor"
    },
    {
      "inputs": [],
      "name": "InvalidShortString",
      "type": "error"
    },
    {
      "inputs": [],
      "name": "NotInMerkle",
      "type": "error"
    },
    {
      "inputs": [
        {
          "internalType": "string",
          "name": "str",
          "type": "string"
        }
      ],
      "name": "StringTooLong",
      "type": "error"
    },
    {
      "inputs": [],
      "name": "TooManyMetadatas",
      "type": "error"
    },
    {
      "anonymous": false,
      "inputs": [],
      "name": "ContestCanceled",
      "type": "event"
    },
    {
      "anonymous": false,
      "inputs": [
        {
          "indexed": false,
          "internalType": "uint256",
          "name": "oldContestStart",
          "type": "uint256"
        },
        {
          "indexed": false,
          "internalType": "uint256",
          "name": "newContestStart",
          "type": "uint256"
        }
      ],
      "name": "ContestStartSet",
      "type": "event"
    },
    {
      "anonymous": false,
      "inputs": [
        {
          "indexed": false,
          "internalType": "address",
          "name": "oldCreator",
          "type": "address"
        },
        {
          "indexed": false,
          "internalType": "address",
          "name": "newCreator",
          "type": "address"
        }
      ],
      "name": "CreatorSet",
      "type": "event"
    },
    {
      "anonymous": false,
      "inputs": [
        {
          "indexed": false,
          "internalType": "uint256",
          "name": "oldDownvotingAllowed",
          "type": "uint256"
        },
        {
          "indexed": false,
          "internalType": "uint256",
          "name": "newDownvotingAllowed",
          "type": "uint256"
        }
      ],
      "name": "DownvotingAllowedSet",
      "type": "event"
    },
    {
      "anonymous": false,
      "inputs": [],
      "name": "EIP712DomainChanged",
      "type": "event"
    },
    {
      "anonymous": false,
      "inputs": [
        {
          "indexed": false,
          "internalType": "uint256",
          "name": "oldMaxProposalCount",
          "type": "uint256"
        },
        {
          "indexed": false,
          "internalType": "uint256",
          "name": "newMaxProposalCount",
          "type": "uint256"
        }
      ],
      "name": "MaxProposalCountSet",
      "type": "event"
    },
    {
      "anonymous": false,
      "inputs": [
        {
          "indexed": false,
          "internalType": "uint256",
          "name": "oldNumAllowedProposalSubmissions",
          "type": "uint256"
        },
        {
          "indexed": false,
          "internalType": "uint256",
          "name": "newNumAllowedProposalSubmissions",
          "type": "uint256"
        }
      ],
      "name": "NumAllowedProposalSubmissionsSet",
      "type": "event"
    },
    {
      "anonymous": false,
      "inputs": [
        {
          "indexed": false,
          "internalType": "contract RewardsModule",
          "name": "oldOfficialRewardsModule",
          "type": "address"
        },
        {
          "indexed": false,
          "internalType": "contract RewardsModule",
          "name": "newOfficialRewardsModule",
          "type": "address"
        }
      ],
      "name": "OfficialRewardsModuleSet",
      "type": "event"
    },
    {
      "anonymous": false,
      "inputs": [
        {
          "indexed": false,
          "internalType": "uint256",
          "name": "proposalId",
          "type": "uint256"
        },
        {
          "indexed": false,
          "internalType": "address",
          "name": "proposer",
          "type": "address"
        }
      ],
      "name": "ProposalCreated",
      "type": "event"
    },
    {
      "anonymous": false,
      "inputs": [
        {
          "indexed": false,
          "internalType": "uint256[]",
          "name": "proposalIds",
          "type": "uint256[]"
        }
      ],
      "name": "ProposalsDeleted",
      "type": "event"
    },
    {
      "anonymous": false,
      "inputs": [
        {
          "indexed": true,
          "internalType": "address",
          "name": "voter",
          "type": "address"
        },
        {
          "indexed": false,
          "internalType": "uint256",
          "name": "proposalId",
          "type": "uint256"
        },
        {
          "indexed": false,
          "internalType": "uint8",
          "name": "support",
          "type": "uint8"
        },
        {
          "indexed": false,
          "internalType": "uint256",
          "name": "numVotes",
          "type": "uint256"
        },
        {
          "indexed": false,
          "internalType": "string",
          "name": "reason",
          "type": "string"
        }
      ],
      "name": "VoteCast",
      "type": "event"
    },
    {
      "anonymous": false,
      "inputs": [
        {
          "indexed": false,
          "internalType": "uint256",
          "name": "oldVotingDelay",
          "type": "uint256"
        },
        {
          "indexed": false,
          "internalType": "uint256",
          "name": "newVotingDelay",
          "type": "uint256"
        }
      ],
      "name": "VotingDelaySet",
      "type": "event"
    },
    {
      "anonymous": false,
      "inputs": [
        {
          "indexed": false,
          "internalType": "uint256",
          "name": "oldVotingPeriod",
          "type": "uint256"
        },
        {
          "indexed": false,
          "internalType": "uint256",
          "name": "newVotingPeriod",
          "type": "uint256"
        }
      ],
      "name": "VotingPeriodSet",
      "type": "event"
    },
    {
      "inputs": [],
      "name": "AMOUNT_FOR_SUMBITTER_PROOF",
      "outputs": [
        {
          "internalType": "uint256",
          "name": "",
          "type": "uint256"
        }
      ],
      "stateMutability": "view",
      "type": "function"
    },
    {
      "inputs": [],
      "name": "BALLOT_TYPEHASH",
      "outputs": [
        {
          "internalType": "bytes32",
          "name": "",
          "type": "bytes32"
        }
      ],
      "stateMutability": "view",
      "type": "function"
    },
    {
      "inputs": [],
      "name": "COUNTING_MODE",
      "outputs": [
        {
          "internalType": "string",
          "name": "",
          "type": "string"
        }
      ],
      "stateMutability": "pure",
      "type": "function"
    },
    {
      "inputs": [],
      "name": "METADATAS_COUNT",
      "outputs": [
        {
          "internalType": "uint256",
          "name": "",
          "type": "uint256"
        }
      ],
      "stateMutability": "view",
      "type": "function"
    },
    {
      "inputs": [
        {
          "internalType": "address",
          "name": "",
          "type": "address"
        }
      ],
      "name": "addressSubmitterVerified",
      "outputs": [
        {
          "internalType": "bool",
          "name": "",
          "type": "bool"
        }
      ],
      "stateMutability": "view",
      "type": "function"
    },
    {
      "inputs": [
        {
          "internalType": "address",
          "name": "",
          "type": "address"
        }
      ],
      "name": "addressTotalCastVoteCounts",
      "outputs": [
        {
          "internalType": "uint256",
          "name": "",
          "type": "uint256"
        }
      ],
      "stateMutability": "view",
      "type": "function"
    },
    {
      "inputs": [
        {
          "internalType": "address",
          "name": "",
          "type": "address"
        }
      ],
      "name": "addressTotalVotes",
      "outputs": [
        {
          "internalType": "uint256",
          "name": "",
          "type": "uint256"
        }
      ],
      "stateMutability": "view",
      "type": "function"
    },
    {
      "inputs": [
        {
          "internalType": "address",
          "name": "",
          "type": "address"
        }
      ],
      "name": "addressTotalVotesVerified",
      "outputs": [
        {
          "internalType": "bool",
          "name": "",
          "type": "bool"
        }
      ],
      "stateMutability": "view",
      "type": "function"
    },
    {
      "inputs": [],
      "name": "allProposalTotalVotes",
      "outputs": [
        {
          "internalType": "uint256[]",
          "name": "proposalIdsReturn",
          "type": "uint256[]"
        },
        {
          "components": [
            {
              "internalType": "uint256",
              "name": "forVotes",
              "type": "uint256"
            },
            {
              "internalType": "uint256",
              "name": "againstVotes",
              "type": "uint256"
            }
          ],
          "internalType": "struct GovernorCountingSimple.VoteCounts[]",
          "name": "proposalVoteCountsArrayReturn",
          "type": "tuple[]"
        }
      ],
      "stateMutability": "view",
      "type": "function"
    },
    {
      "inputs": [],
      "name": "allProposalTotalVotesWithoutDeleted",
      "outputs": [
        {
          "internalType": "uint256[]",
          "name": "proposalIdsReturn",
          "type": "uint256[]"
        },
        {
          "components": [
            {
              "internalType": "uint256",
              "name": "forVotes",
              "type": "uint256"
            },
            {
              "internalType": "uint256",
              "name": "againstVotes",
              "type": "uint256"
            }
          ],
          "internalType": "struct GovernorCountingSimple.VoteCounts[]",
          "name": "proposalVoteCountsArrayReturn",
          "type": "tuple[]"
        }
      ],
      "stateMutability": "view",
      "type": "function"
    },
    {
      "inputs": [],
      "name": "cancel",
      "outputs": [],
      "stateMutability": "nonpayable",
      "type": "function"
    },
    {
      "inputs": [
        {
          "internalType": "uint256",
          "name": "proposalId",
          "type": "uint256"
        },
        {
          "internalType": "uint8",
          "name": "support",
          "type": "uint8"
        },
        {
          "internalType": "uint256",
          "name": "totalVotes",
          "type": "uint256"
        },
        {
          "internalType": "uint256",
          "name": "numVotes",
          "type": "uint256"
        },
        {
          "internalType": "bytes32[]",
          "name": "proof",
          "type": "bytes32[]"
        }
      ],
      "name": "castVote",
      "outputs": [
        {
          "internalType": "uint256",
          "name": "",
          "type": "uint256"
        }
      ],
      "stateMutability": "nonpayable",
      "type": "function"
    },
    {
      "inputs": [
        {
          "internalType": "uint256",
          "name": "proposalId",
          "type": "uint256"
        },
        {
          "internalType": "uint8",
          "name": "support",
          "type": "uint8"
        },
        {
          "internalType": "uint256",
          "name": "numVotes",
          "type": "uint256"
        }
      ],
      "name": "castVoteWithoutProof",
      "outputs": [
        {
          "internalType": "uint256",
          "name": "",
          "type": "uint256"
        }
      ],
      "stateMutability": "nonpayable",
      "type": "function"
    },
    {
      "inputs": [
        {
          "internalType": "address",
          "name": "addressToCheck",
          "type": "address"
        },
        {
          "internalType": "uint256",
          "name": "amount",
          "type": "uint256"
        },
        {
          "internalType": "bytes32[]",
          "name": "proof",
          "type": "bytes32[]"
        },
        {
          "internalType": "bool",
          "name": "voting",
          "type": "bool"
        }
      ],
      "name": "checkProof",
      "outputs": [
        {
          "internalType": "bool",
          "name": "verified",
          "type": "bool"
        }
      ],
      "stateMutability": "view",
      "type": "function"
    },
    {
      "inputs": [
        {
          "internalType": "address",
          "name": "userAddress",
          "type": "address"
        }
      ],
      "name": "contestAddressTotalVotesCast",
      "outputs": [
        {
          "internalType": "uint256",
          "name": "totalVotesCast",
          "type": "uint256"
        }
      ],
      "stateMutability": "view",
      "type": "function"
    },
    {
      "inputs": [],
      "name": "contestDeadline",
      "outputs": [
        {
          "internalType": "uint256",
          "name": "",
          "type": "uint256"
        }
      ],
      "stateMutability": "view",
      "type": "function"
    },
    {
      "inputs": [],
      "name": "contestStart",
      "outputs": [
        {
          "internalType": "uint256",
          "name": "",
          "type": "uint256"
        }
      ],
      "stateMutability": "view",
      "type": "function"
    },
    {
      "inputs": [],
      "name": "creator",
      "outputs": [
        {
          "internalType": "address",
          "name": "",
          "type": "address"
        }
      ],
      "stateMutability": "view",
      "type": "function"
    },
    {
      "inputs": [
        {
          "internalType": "uint256[]",
          "name": "proposalIds",
          "type": "uint256[]"
        }
      ],
      "name": "deleteProposals",
      "outputs": [],
      "stateMutability": "nonpayable",
      "type": "function"
    },
    {
      "inputs": [],
      "name": "downvotingAllowed",
      "outputs": [
        {
          "internalType": "uint256",
          "name": "",
          "type": "uint256"
        }
      ],
      "stateMutability": "view",
      "type": "function"
    },
    {
      "inputs": [],
      "name": "eip712Domain",
      "outputs": [
        {
          "internalType": "bytes1",
          "name": "fields",
          "type": "bytes1"
        },
        {
          "internalType": "string",
          "name": "name",
          "type": "string"
        },
        {
          "internalType": "string",
          "name": "version",
          "type": "string"
        },
        {
          "internalType": "uint256",
          "name": "chainId",
          "type": "uint256"
        },
        {
          "internalType": "address",
          "name": "verifyingContract",
          "type": "address"
        },
        {
          "internalType": "bytes32",
          "name": "salt",
          "type": "bytes32"
        },
        {
          "internalType": "uint256[]",
          "name": "extensions",
          "type": "uint256[]"
        }
      ],
      "stateMutability": "view",
      "type": "function"
    },
    {
      "inputs": [],
      "name": "getAllProposalIds",
      "outputs": [
        {
          "internalType": "uint256[]",
          "name": "",
          "type": "uint256[]"
        }
      ],
      "stateMutability": "view",
      "type": "function"
    },
    {
      "inputs": [
        {
          "internalType": "address",
          "name": "account",
          "type": "address"
        }
      ],
      "name": "getNumSubmissions",
      "outputs": [
        {
          "internalType": "uint256",
          "name": "",
          "type": "uint256"
        }
      ],
      "stateMutability": "view",
      "type": "function"
    },
    {
      "inputs": [
        {
          "internalType": "uint256",
          "name": "proposalId",
          "type": "uint256"
        }
      ],
      "name": "getProposal",
      "outputs": [
        {
          "components": [
            {
              "internalType": "address",
              "name": "author",
              "type": "address"
            },
            {
              "internalType": "bool",
              "name": "exists",
              "type": "bool"
            },
            {
              "internalType": "string",
              "name": "description",
              "type": "string"
            },
            {
              "components": [
                {
                  "internalType": "address",
                  "name": "targetAddress",
                  "type": "address"
                }
              ],
              "internalType": "struct IGovernor.TargetMetadata",
              "name": "targetMetadata",
              "type": "tuple"
            },
            {
              "components": [
                {
                  "internalType": "address[]",
                  "name": "signers",
                  "type": "address[]"
                },
                {
                  "internalType": "uint256",
                  "name": "threshold",
                  "type": "uint256"
                }
              ],
              "internalType": "struct IGovernor.SafeMetadata",
              "name": "safeMetadata",
              "type": "tuple"
            }
          ],
          "internalType": "struct IGovernor.ProposalCore",
          "name": "",
          "type": "tuple"
        }
      ],
      "stateMutability": "view",
      "type": "function"
    },
    {
      "inputs": [
        {
          "components": [
            {
              "internalType": "address",
              "name": "author",
              "type": "address"
            },
            {
              "internalType": "bool",
              "name": "exists",
              "type": "bool"
            },
            {
              "internalType": "string",
              "name": "description",
              "type": "string"
            },
            {
              "components": [
                {
                  "internalType": "address",
                  "name": "targetAddress",
                  "type": "address"
                }
              ],
              "internalType": "struct IGovernor.TargetMetadata",
              "name": "targetMetadata",
              "type": "tuple"
            },
            {
              "components": [
                {
                  "internalType": "address[]",
                  "name": "signers",
                  "type": "address[]"
                },
                {
                  "internalType": "uint256",
                  "name": "threshold",
                  "type": "uint256"
                }
              ],
              "internalType": "struct IGovernor.SafeMetadata",
              "name": "safeMetadata",
              "type": "tuple"
            }
          ],
          "internalType": "struct IGovernor.ProposalCore",
          "name": "proposal",
          "type": "tuple"
        }
      ],
      "name": "hashProposal",
      "outputs": [
        {
          "internalType": "uint256",
          "name": "",
          "type": "uint256"
        }
      ],
      "stateMutability": "pure",
      "type": "function"
    },
    {
      "inputs": [],
      "name": "highestTiedRanking",
      "outputs": [
        {
          "internalType": "uint256",
          "name": "",
          "type": "uint256"
        }
      ],
      "stateMutability": "view",
      "type": "function"
    },
    {
      "inputs": [
        {
          "internalType": "uint256",
          "name": "proposalId",
          "type": "uint256"
        }
      ],
      "name": "isProposalDeleted",
      "outputs": [
        {
          "internalType": "uint256",
          "name": "",
          "type": "uint256"
        }
      ],
      "stateMutability": "view",
      "type": "function"
    },
    {
      "inputs": [
        {
          "internalType": "uint256",
          "name": "ranking",
          "type": "uint256"
        }
      ],
      "name": "isTied",
      "outputs": [
        {
          "internalType": "bool",
          "name": "",
          "type": "bool"
        }
      ],
      "stateMutability": "view",
      "type": "function"
    },
    {
      "inputs": [],
      "name": "lowestRanking",
      "outputs": [
        {
          "internalType": "uint256",
          "name": "",
          "type": "uint256"
        }
      ],
      "stateMutability": "view",
      "type": "function"
    },
    {
      "inputs": [],
      "name": "maxProposalCount",
      "outputs": [
        {
          "internalType": "uint256",
          "name": "",
          "type": "uint256"
        }
      ],
      "stateMutability": "view",
      "type": "function"
    },
    {
      "inputs": [],
      "name": "name",
      "outputs": [
        {
          "internalType": "string",
          "name": "",
          "type": "string"
        }
      ],
      "stateMutability": "view",
      "type": "function"
    },
    {
      "inputs": [],
      "name": "numAllowedProposalSubmissions",
      "outputs": [
        {
          "internalType": "uint256",
          "name": "",
          "type": "uint256"
        }
      ],
      "stateMutability": "view",
      "type": "function"
    },
    {
      "inputs": [],
      "name": "officialRewardsModule",
      "outputs": [
        {
          "internalType": "contract RewardsModule",
          "name": "",
          "type": "address"
        }
      ],
      "stateMutability": "view",
      "type": "function"
    },
    {
      "inputs": [],
      "name": "prompt",
      "outputs": [
        {
          "internalType": "string",
          "name": "",
          "type": "string"
        }
      ],
      "stateMutability": "view",
      "type": "function"
    },
    {
      "inputs": [
        {
          "internalType": "uint256",
          "name": "proposalId",
          "type": "uint256"
        },
        {
          "internalType": "address",
          "name": "userAddress",
          "type": "address"
        }
      ],
      "name": "proposalAddressVotes",
      "outputs": [
        {
          "internalType": "uint256",
          "name": "forVotes",
          "type": "uint256"
        },
        {
          "internalType": "uint256",
          "name": "againstVotes",
          "type": "uint256"
        }
      ],
      "stateMutability": "view",
      "type": "function"
    },
    {
      "inputs": [
        {
          "internalType": "uint256",
          "name": "proposalId",
          "type": "uint256"
        }
      ],
      "name": "proposalAddressesHaveVoted",
      "outputs": [
        {
          "internalType": "address[]",
          "name": "",
          "type": "address[]"
        }
      ],
      "stateMutability": "view",
      "type": "function"
    },
    {
      "inputs": [
        {
          "internalType": "uint256",
          "name": "proposalId",
          "type": "uint256"
        }
      ],
      "name": "proposalVotes",
      "outputs": [
        {
          "internalType": "uint256",
          "name": "forVotes",
          "type": "uint256"
        },
        {
          "internalType": "uint256",
          "name": "againstVotes",
          "type": "uint256"
        }
      ],
      "stateMutability": "view",
      "type": "function"
    },
    {
      "inputs": [
        {
          "internalType": "uint256",
          "name": "",
          "type": "uint256"
        }
      ],
      "name": "proposalVotesStructs",
      "outputs": [
        {
          "components": [
            {
              "internalType": "uint256",
              "name": "forVotes",
              "type": "uint256"
            },
            {
              "internalType": "uint256",
              "name": "againstVotes",
              "type": "uint256"
            }
          ],
          "internalType": "struct GovernorCountingSimple.VoteCounts",
          "name": "proposalVoteCounts",
          "type": "tuple"
        }
      ],
      "stateMutability": "view",
      "type": "function"
    },
    {
      "inputs": [
        {
          "components": [
            {
              "internalType": "address",
              "name": "author",
              "type": "address"
            },
            {
              "internalType": "bool",
              "name": "exists",
              "type": "bool"
            },
            {
              "internalType": "string",
              "name": "description",
              "type": "string"
            },
            {
              "components": [
                {
                  "internalType": "address",
                  "name": "targetAddress",
                  "type": "address"
                }
              ],
              "internalType": "struct IGovernor.TargetMetadata",
              "name": "targetMetadata",
              "type": "tuple"
            },
            {
              "components": [
                {
                  "internalType": "address[]",
                  "name": "signers",
                  "type": "address[]"
                },
                {
                  "internalType": "uint256",
                  "name": "threshold",
                  "type": "uint256"
                }
              ],
              "internalType": "struct IGovernor.SafeMetadata",
              "name": "safeMetadata",
              "type": "tuple"
            }
          ],
          "internalType": "struct IGovernor.ProposalCore",
          "name": "proposal",
          "type": "tuple"
        },
        {
          "internalType": "bytes32[]",
          "name": "proof",
          "type": "bytes32[]"
        }
      ],
      "name": "propose",
      "outputs": [
        {
          "internalType": "uint256",
          "name": "",
          "type": "uint256"
        }
      ],
      "stateMutability": "nonpayable",
      "type": "function"
    },
    {
      "inputs": [
        {
          "components": [
            {
              "internalType": "address",
              "name": "author",
              "type": "address"
            },
            {
              "internalType": "bool",
              "name": "exists",
              "type": "bool"
            },
            {
              "internalType": "string",
              "name": "description",
              "type": "string"
            },
            {
              "components": [
                {
                  "internalType": "address",
                  "name": "targetAddress",
                  "type": "address"
                }
              ],
              "internalType": "struct IGovernor.TargetMetadata",
              "name": "targetMetadata",
              "type": "tuple"
            },
            {
              "components": [
                {
                  "internalType": "address[]",
                  "name": "signers",
                  "type": "address[]"
                },
                {
                  "internalType": "uint256",
                  "name": "threshold",
                  "type": "uint256"
                }
              ],
              "internalType": "struct IGovernor.SafeMetadata",
              "name": "safeMetadata",
              "type": "tuple"
            }
          ],
          "internalType": "struct IGovernor.ProposalCore",
          "name": "proposal",
          "type": "tuple"
        }
      ],
      "name": "proposeWithoutProof",
      "outputs": [
        {
          "internalType": "uint256",
          "name": "",
          "type": "uint256"
        }
      ],
      "stateMutability": "nonpayable",
      "type": "function"
    },
    {
      "inputs": [
        {
          "internalType": "uint256",
          "name": "ranking",
          "type": "uint256"
        }
      ],
      "name": "rankingPosition",
      "outputs": [
        {
          "internalType": "uint256",
          "name": "",
          "type": "uint256"
        }
      ],
      "stateMutability": "view",
      "type": "function"
    },
    {
      "inputs": [
        {
          "internalType": "contract RewardsModule",
          "name": "officialRewardsModule_",
          "type": "address"
        }
      ],
      "name": "setOfficialRewardsModule",
      "outputs": [],
      "stateMutability": "nonpayable",
      "type": "function"
    },
    {
      "inputs": [],
      "name": "setSortedAndTiedProposals",
      "outputs": [],
      "stateMutability": "nonpayable",
      "type": "function"
    },
    {
      "inputs": [],
      "name": "setSortedAndTiedProposalsHasBeenRun",
      "outputs": [
        {
          "internalType": "bool",
          "name": "",
          "type": "bool"
        }
      ],
      "stateMutability": "view",
      "type": "function"
    },
    {
      "inputs": [],
      "name": "sortedProposalIds",
      "outputs": [
        {
          "internalType": "uint256[]",
          "name": "",
          "type": "uint256[]"
        }
      ],
      "stateMutability": "view",
      "type": "function"
    },
    {
      "inputs": [
        {
          "internalType": "bool",
          "name": "excludeDeletedProposals",
          "type": "bool"
        }
      ],
      "name": "sortedProposals",
      "outputs": [
        {
          "internalType": "uint256[]",
          "name": "sortedProposalIdsReturn",
          "type": "uint256[]"
        }
      ],
      "stateMutability": "view",
      "type": "function"
    },
    {
      "inputs": [],
      "name": "state",
      "outputs": [
        {
          "internalType": "enum IGovernor.ContestState",
          "name": "",
          "type": "uint8"
        }
      ],
      "stateMutability": "view",
      "type": "function"
    },
    {
      "inputs": [],
      "name": "submissionMerkleRoot",
      "outputs": [
        {
          "internalType": "bytes32",
          "name": "",
          "type": "bytes32"
        }
      ],
      "stateMutability": "view",
      "type": "function"
    },
    {
      "inputs": [
        {
          "internalType": "bytes4",
          "name": "interfaceId",
          "type": "bytes4"
        }
      ],
      "name": "supportsInterface",
      "outputs": [
        {
          "internalType": "bool",
          "name": "",
          "type": "bool"
        }
      ],
      "stateMutability": "view",
      "type": "function"
    },
    {
      "inputs": [
        {
          "internalType": "uint256",
          "name": "",
          "type": "uint256"
        }
      ],
      "name": "tiedAdjustedRankingPosition",
      "outputs": [
        {
          "internalType": "uint256",
          "name": "",
          "type": "uint256"
        }
      ],
      "stateMutability": "view",
      "type": "function"
    },
    {
      "inputs": [
        {
          "components": [
            {
              "internalType": "address",
              "name": "author",
              "type": "address"
            },
            {
              "internalType": "bool",
              "name": "exists",
              "type": "bool"
            },
            {
              "internalType": "string",
              "name": "description",
              "type": "string"
            },
            {
              "components": [
                {
                  "internalType": "address",
                  "name": "targetAddress",
                  "type": "address"
                }
              ],
              "internalType": "struct IGovernor.TargetMetadata",
              "name": "targetMetadata",
              "type": "tuple"
            },
            {
              "components": [
                {
                  "internalType": "address[]",
                  "name": "signers",
                  "type": "address[]"
                },
                {
                  "internalType": "uint256",
                  "name": "threshold",
                  "type": "uint256"
                }
              ],
              "internalType": "struct IGovernor.SafeMetadata",
              "name": "safeMetadata",
              "type": "tuple"
            }
          ],
          "internalType": "struct IGovernor.ProposalCore",
          "name": "proposal",
          "type": "tuple"
        }
      ],
      "name": "validateProposalData",
      "outputs": [
        {
          "internalType": "bool",
          "name": "dataValidated",
          "type": "bool"
        }
      ],
      "stateMutability": "nonpayable",
      "type": "function"
    },
    {
      "inputs": [
        {
          "internalType": "address",
          "name": "account",
          "type": "address"
        },
        {
          "internalType": "bytes32[]",
          "name": "proof",
          "type": "bytes32[]"
        }
      ],
      "name": "verifyProposer",
      "outputs": [
        {
          "internalType": "bool",
          "name": "verified",
          "type": "bool"
        }
      ],
      "stateMutability": "nonpayable",
      "type": "function"
    },
    {
      "inputs": [
        {
          "internalType": "address",
          "name": "account",
          "type": "address"
        },
        {
          "internalType": "uint256",
          "name": "totalVotes",
          "type": "uint256"
        },
        {
          "internalType": "bytes32[]",
          "name": "proof",
          "type": "bytes32[]"
        }
      ],
      "name": "verifyVoter",
      "outputs": [
        {
          "internalType": "bool",
          "name": "verified",
          "type": "bool"
        }
      ],
      "stateMutability": "nonpayable",
      "type": "function"
    },
    {
      "inputs": [],
      "name": "version",
      "outputs": [
        {
          "internalType": "string",
          "name": "",
          "type": "string"
        }
      ],
      "stateMutability": "view",
      "type": "function"
    },
    {
      "inputs": [],
      "name": "voteStart",
      "outputs": [
        {
          "internalType": "uint256",
          "name": "",
          "type": "uint256"
        }
      ],
      "stateMutability": "view",
      "type": "function"
    },
    {
      "inputs": [],
      "name": "votingDelay",
      "outputs": [
        {
          "internalType": "uint256",
          "name": "",
          "type": "uint256"
        }
      ],
      "stateMutability": "view",
      "type": "function"
    },
    {
      "inputs": [],
      "name": "votingMerkleRoot",
      "outputs": [
        {
          "internalType": "bytes32",
          "name": "",
          "type": "bytes32"
        }
      ],
      "stateMutability": "view",
      "type": "function"
    },
    {
      "inputs": [],
      "name": "votingPeriod",
      "outputs": [
        {
          "internalType": "uint256",
          "name": "",
          "type": "uint256"
        }
      ],
      "stateMutability": "view",
      "type": "function"
    },
    {
      "stateMutability": "payable",
      "type": "receive"
    }
  ],
  "bytecode": {
    "object": "0x6101a06040526015805460ff191690553480156200001c57600080fd5b5060405162004666380380620046668339810160408190526200003f9162000621565b8060008151811062000055576200005562000732565b60200260200101518160018151811062000073576200007362000732565b60200260200101518260028151811062000091576200009162000732565b602002602001015183600381518110620000af57620000af62000732565b602002602001015184600481518110620000cd57620000cd62000732565b602002602001015185600581518110620000eb57620000eb62000732565b60200260200101518a8a8a8a8181856200010a6200025060201b60201c565b620001178260006200026d565b61012052620001288160016200026d565b61014052815160208084019190912060e052815190820120610100524660a052620001b660e05161010051604080517f8b73c3c69bb8fe3d512ecc4cf759cc79239f7b179b0ffacaa9a75d522b39400f60208201529081019290925260608201524660808201523060a082015260009060c00160405160208183030381529060405280519060200120905090565b60805250503060c05261016091909152610180526007620001d88582620007d7565b506008620001e78482620007d7565b5050505050620001fd86620002a660201b60201c565b6200020885620002e7565b620002138462000328565b6200021e83620003cf565b620002298262000410565b620002348162000451565b6200023f3362000492565b5050505050505050505050620008fd565b604080518082019091526003815262332e3160e81b602082015290565b60006020835110156200028d576200028583620004fb565b9050620002a0565b816200029a8482620007d7565b5060ff90505b92915050565b600c5460408051918252602082018390527fd299feb1d7d9345a48559601c471c3be7eea9a11f21d5e86809198f40a974db4910160405180910390a1600c55565b600d5460408051918252602082018390527fc565b045403dc03c2eea82b81a0465edad9e2e7fc4d97e11421c209da93d7a93910160405180910390a1600d55565b600081116200038e5760405162461bcd60e51b815260206004820152602760248201527f476f7665726e6f7253657474696e67733a20766f74696e6720706572696f6420604482015266746f6f206c6f7760c81b60648201526084015b60405180910390fd5b600e5460408051918252602082018390527f7e3f7f0708a84de9203036abaa450dccc85ad5ff52f78c170f3edb55cf5e8828910160405180910390a1600e55565b600f5460408051918252602082018390527fe971b819c7fb95c72451f557226aceb5baaf4994a9d39a79bbfa0040e87500b9910160405180910390a1600f55565b60105460408051918252602082018390527f4984ec996723330ee95979ed65a2a4b41edd914e68a187efe92596474643bdff910160405180910390a1601055565b60115460408051918252602082018390527f9c7b27f091caef3a83be73d89320404fa0c4a52993685ff0651672e49e6e55ab910160405180910390a1601155565b601254604080516001600160a01b03928316815291831660208301527fc30034fc2e9697980e08935bbc287db3eaa44a4aa113ef4c108b356adbf911ce910160405180910390a1601280546001600160a01b0319166001600160a01b0392909216919091179055565b600080829050601f8151111562000529578260405163305a27a960e01b8152600401620003859190620008a3565b80516200053682620008d8565b179392505050565b634e487b7160e01b600052604160045260246000fd5b604051601f8201601f191681016001600160401b03811182821017156200057f576200057f6200053e565b604052919050565b60005b83811015620005a45781810151838201526020016200058a565b50506000910152565b600082601f830112620005bf57600080fd5b81516001600160401b03811115620005db57620005db6200053e565b620005f0601f8201601f191660200162000554565b8181528460208386010111156200060657600080fd5b6200061982602083016020870162000587565b949350505050565b600080600080600060a086880312156200063a57600080fd5b85516001600160401b03808211156200065257600080fd5b6200066089838a01620005ad565b96506020915081880151818111156200067857600080fd5b620006868a828b01620005ad565b9650506040880151945060608801519350608088015181811115620006aa57600080fd5b8801601f81018a13620006bc57600080fd5b805182811115620006d157620006d16200053e565b8060051b9250620006e484840162000554565b818152928201840192848101908c851115620006ff57600080fd5b928501925b848410156200071f5783518252928501929085019062000704565b8096505050505050509295509295909350565b634e487b7160e01b600052603260045260246000fd5b600181811c908216806200075d57607f821691505b6020821081036200077e57634e487b7160e01b600052602260045260246000fd5b50919050565b601f821115620007d257600081815260208120601f850160051c81016020861015620007ad5750805b601f850160051c820191505b81811015620007ce57828155600101620007b9565b5050505b505050565b81516001600160401b03811115620007f357620007f36200053e565b6200080b8162000804845462000748565b8462000784565b602080601f8311600181146200084357600084156200082a5750858301515b600019600386901b1c1916600185901b178555620007ce565b600085815260208120601f198616915b82811015620008745788860151825594840194600190910190840162000853565b5085821015620008935787850151600019600388901b60f8161c191681555b5050505050600190811b01905550565b6020815260008251806020840152620008c481604085016020870162000587565b601f01601f19169190910160400192915050565b805160208083015191908110156200077e5760001960209190910360031b1b16919050565b60805160a05160c05160e0516101005161012051610140516101605161018051613ceb6200097b60003960008181610a410152610e8c0152600081816108f901528181610cd401528181610e2701526110f5015260006114520152600061142801526000505060005050600050506000505060005050613ceb6000f3fe6080604052600436106103845760003560e01c8063832009af116101d1578063d45a010b11610102578063e5eb5a48116100a0578063f0a7db0a1161006f578063f0a7db0a14610b45578063f4f3d7ec14610b65578063fb8ddab414610b85578063fb9bf8d414610ba557600080fd5b8063e5eb5a4814610ad9578063ea8a1af014610b06578063ebc18b9b14610b1b578063efa90d3614610b3057600080fd5b8063dd96a19d116100dc578063dd96a19d14610a2f578063dea5f6a614610a63578063deaaa7cc14610a90578063e031535b14610ac457600080fd5b8063d45a010b146109ba578063d8891619146109cf578063dd4e2ba5146109e957600080fd5b8063aec116b61161016f578063c0ffaa7811610149578063c0ffaa781461091b578063c19d93fb1461093b578063c7f758a81461095d578063cb8539501461098a57600080fd5b8063aec116b614610884578063b323580d146108ba578063bddc1641146108e757600080fd5b80638a9cd550116101ab5780638a9cd550146107fd578063930de9791461081257806396f0e96214610842578063a1ac6cb21461085757600080fd5b8063832009af146107a057806384b0196e146107b557806386187488146107dd57600080fd5b8063427d56c2116102b657806354fd4d50116102545780636ca1a2c7116102235780636ca1a2c7146107385780636e4eb8101461074d578063785ddfe51461076d5780637c65d7111461078b57600080fd5b806354fd4d50146106a15780635f953a03146106cd57806360506ff61461070357806365f162631461071857600080fd5b80634d24a67f116102905780634d24a67f146105ff57806350a5e52414610614578063531bd81214610637578063544ffc9c1461065757600080fd5b8063427d56c214610592578063458da87d146105bf578063476f4d8a146105df57600080fd5b80632399c66011610323578063347cf665116102fd578063347cf665146105145780633932abb1146105305780633b6d199b14610545578063419c533c1461057257600080fd5b80632399c660146104bf578063262e59e9146104df57806332763c22146104f457600080fd5b806302d05d3f1161035f57806302d05d3f146103ff57806306fdde031461042c578063070dc5d91461044e57806320b3e8451461049f57600080fd5b80624114a81461039257806301ffc9a7146103ba57806302a251a3146103ea57600080fd5b3661038d57005b005b600080fd5b34801561039e57600080fd5b506103a7610bba565b6040519081526020015b60405180910390f35b3480156103c657600080fd5b506103da6103d5366004613050565b610bca565b60405190151581526020016103b1565b3480156103f657600080fd5b506103a7610c01565b34801561040b57600080fd5b50610414610c0c565b6040516001600160a01b0390911681526020016103b1565b34801561043857600080fd5b50610441610c20565b6040516103b191906130c0565b34801561045a57600080fd5b506104926104693660046130d3565b601460209081526000918252604091829020825180840190935280548352600101549082015281565b6040516103b191906130ec565b3480156104ab57600080fd5b506103da6104ba36600461315f565b610cb2565b3480156104cb57600080fd5b506103da6104da3660046130d3565b610d48565b3480156104eb57600080fd5b506103a7610d8c565b34801561050057600080fd5b506103da61050f3660046131c8565b610da8565b34801561052057600080fd5b506103a7678ac7230489e8000081565b34801561053c57600080fd5b506103a7610ee5565b34801561055157600080fd5b506103a76105603660046130d3565b60009081526006602052604090205490565b34801561057e57600080fd5b506103a761058d366004613249565b610ef0565b34801561059e57600080fd5b506105b26105ad3660046132b9565b610f28565b6040516103b1919061330f565b3480156105cb57600080fd5b506103a76105da3660046135cd565b6110c0565b3480156105eb57600080fd5b506103a76105fa3660046135cd565b6110f1565b34801561060b57600080fd5b506103a7600281565b34801561062057600080fd5b5061062961115b565b6040516103b1929190613601565b34801561064357600080fd5b506103da61065236600461366a565b611261565b34801561066357600080fd5b5061068c6106723660046130d3565b600090815260146020526040902080546001909101549091565b604080519283526020830191909152016103b1565b3480156106ad57600080fd5b50604080518082019091526003815262332e3160e81b6020820152610441565b3480156106d957600080fd5b506103a76106e83660046136c5565b6001600160a01b03166000908152600b602052604090205490565b34801561070f57600080fd5b506103a76112cc565b34801561072457600080fd5b506103a76107333660046136e2565b6112d7565b34801561074457600080fd5b506103a761139f565b34801561075957600080fd5b5061068c610768366004613717565b6113cb565b34801561077957600080fd5b50601b546001600160a01b0316610414565b34801561079757600080fd5b50610441611400565b3480156107ac57600080fd5b506103a761140f565b3480156107c157600080fd5b506107ca61141a565b6040516103b19796959493929190613747565b3480156107e957600080fd5b506103a76107f83660046130d3565b6114a2565b34801561080957600080fd5b506105b26114da565b34801561081e57600080fd5b506103da61082d3660046136c5565b60036020526000908152604090205460ff1681565b34801561084e57600080fd5b5061038b611554565b34801561086357600080fd5b506103a76108723660046136c5565b60136020526000908152604090205481565b34801561089057600080fd5b506103a761089f3660046136c5565b6001600160a01b031660009081526013602052604090205490565b3480156108c657600080fd5b506108da6108d53660046130d3565b611868565b6040516103b191906137f0565b3480156108f357600080fd5b506103a77f000000000000000000000000000000000000000000000000000000000000000081565b34801561092757600080fd5b506103a7610936366004613803565b6118da565b34801561094757600080fd5b5061095061191e565b6040516103b19190613874565b34801561096957600080fd5b5061097d6109783660046130d3565b611990565b6040516103b1919061389c565b34801561099657600080fd5b506103da6109a53660046136c5565b60046020526000908152604090205460ff1681565b3480156109c657600080fd5b50610629611b0a565b3480156109db57600080fd5b506015546103da9060ff1681565b3480156109f557600080fd5b5060408051808201909152601881527f737570706f72743d627261766f2671756f72756d3d666f7200000000000000006020820152610441565b348015610a3b57600080fd5b506103a77f000000000000000000000000000000000000000000000000000000000000000081565b348015610a6f57600080fd5b506103a7610a7e3660046136c5565b60026020526000908152604090205481565b348015610a9c57600080fd5b506103a77f150214d74d59b7d1e90c73fc22ef3d991dd0a76b046543d4d80ab92d2a50328f81565b348015610ad057600080fd5b506103a7611cd5565b348015610ae557600080fd5b506103a7610af43660046130d3565b60166020526000908152604090205481565b348015610b1257600080fd5b5061038b611ce7565b348015610b2757600080fd5b506103a7611dd1565b348015610b3c57600080fd5b506105b2611dfd565b348015610b5157600080fd5b5061038b610b60366004613922565b611e53565b348015610b7157600080fd5b5061038b610b803660046136c5565b612096565b348015610b9157600080fd5b506103da610ba03660046135cd565b612131565b348015610bb157600080fd5b506103a76123bc565b6000610bc5600c5490565b905090565b60006001600160e01b0319821663eed9776760e01b1480610bfb57506301ffc9a760e01b6001600160e01b03198316145b92915050565b6000610bc5600e5490565b6000610bc56012546001600160a01b031690565b606060078054610c2f906139b2565b80601f0160208091040260200160405190810160405280929190818152602001828054610c5b906139b2565b8015610ca85780601f10610c7d57610100808354040283529160200191610ca8565b820191906000526020600020905b815481529060010190602001808311610c8b57829003601f168201915b5050505050905090565b6001600160a01b03831660009081526004602052604081205460ff16610d3d577f0000000000000000000000000000000000000000000000000000000000000000600003610d0257506001610d41565b610d1884678ac7230489e8000085856000610da8565b506001600160a01b0384166000908152600460205260409020805460ff191660011790555b5060015b9392505050565b60155460009060ff16610d765760405162461bcd60e51b8152600401610d6d906139ec565b60405180910390fd5b5060009081526017602052604090205460ff1690565b6000610d96610c01565b610d9e611cd5565b610bc59190613a6d565b6040516bffffffffffffffffffffffff19606087901b166020820152603481018590526000908190605401604051602081830303815290604052805190602001209050600083610e5757610e528686808060200260200160405190810160405280939291908181526020018383602002808284376000920191909152507f000000000000000000000000000000000000000000000000000000000000000092508691506123c79050565b610eb7565b610eb78686808060200260200160405190810160405280939291908181526020018383602002808284376000920191909152507f000000000000000000000000000000000000000000000000000000000000000092508691506123c79050565b905080610ed75760405163452c2df160e11b815260040160405180910390fd5b506001979650505050505050565b6000610bc5600d5490565b600033610eff81878686611261565b50610f1c88828988604051806020016040528060008152506123dd565b98975050505050505050565b606060008083610f3f57610f3a61115b565b610f47565b610f47611b0a565b915091506000825111610fb75760405162461bcd60e51b815260206004820152603260248201527f476f7665726e6f72536f7274696e673a2063616e6e6f7420736f72742061206c6044820152710d2e6e840decc40f4cae4de40d8cadccee8d60731b6064820152608401610d6d565b600082516001600160401b03811115610fd257610fd2613322565b604051908082528060200260200182016040528015610ffb578160200160208202803683370190505b50905060005b825181101561107f5782818151811061101c5761101c613a80565b60200260200101516020015183828151811061103a5761103a613a80565b6020026020010151600001516110509190613a96565b82828151811061106257611062613a80565b60209081029190910101528061107781613abd565b915050611001565b5060005b600184516110919190613ad6565b8110156110b6576110a38183866125f7565b50806110ae81613abd565b915050611083565b5091949350505050565b6000816040516020016110d3919061389c565b60408051601f19818403018152919052805160209091012092915050565b60007f000000000000000000000000000000000000000000000000000000000000000015611148573360009081526004602052604090205460ff166111485760405162461bcd60e51b8152600401610d6d90613ae9565b61115182612131565b50610bfb8261275d565b6060806000611168611dfd565b9050600081516001600160401b0381111561118557611185613322565b6040519080825280602002602001820160405280156111ca57816020015b60408051808201909152600080825260208201528152602001906001900390816111a35790505b50905060005b825181101561125757601460008483815181106111ef576111ef613a80565b602002602001015181526020019081526020016000206000016040518060400160405290816000820154815260200160018201548152505082828151811061123957611239613a80565b6020026020010181905250808061124f90613abd565b9150506111d0565b5090939092509050565b6001600160a01b03841660009081526003602052604081205460ff166112c15761128f858585856001610da8565b506001600160a01b038516600090815260026020908152604080832087905560039091529020805460ff191660011790555b506001949350505050565b6000610bc560115490565b3360008181526003602052604081205490919060ff1661137a5760405162461bcd60e51b815260206004820152605260248201527f476f7665726e6f723a20796f75206e65656420746f2063617374206120766f7460448201527f652077697468207468652070726f6f66206174206c65617374206f6e636520616064820152711b99081e5bdd481a185d995b89dd081e595d60721b608482015260a401610d6d565b61139685828686604051806020016040528060008152506123dd565b95945050505050565b60155460009060ff166113c45760405162461bcd60e51b8152600401610d6d906139ec565b5060195490565b60008281526014602090815260408083206001600160a01b0385168452600301909152902080546001909101545b9250929050565b606060088054610c2f906139b2565b6000610bc5600f5490565b60006060808280808361144d7f000000000000000000000000000000000000000000000000000000000000000083612aea565b6114787f00000000000000000000000000000000000000000000000000000000000000006001612aea565b60408051600080825260208201909252600f60f81b9b939a50919850469750309650945092509050565b60155460009060ff166114c75760405162461bcd60e51b8152600401610d6d906139ec565b5060009081526016602052604090205490565b60155460609060ff166114ff5760405162461bcd60e51b8152600401610d6d906139ec565b6018805480602002602001604051908101604052809291908181526020018280548015610ca857602002820191906000526020600020905b815481526020019060010190808311611537575050505050905090565b600461155e61191e565b600481111561156f5761156f61385e565b146115f25760405162461bcd60e51b815260206004820152604760248201527f476f7665726e6f72536f7274696e673a20636f6e74657374206d75737420626560448201527f20746f2063616c63756c61746520736f7274656420616e6420746965642070726064820152666f706f73616c7360c81b608482015260a401610d6d565b60155460ff16156116915760405162461bcd60e51b815260206004820152605f60248201527f476f7665726e6f72536f7274696e673a20736574536f72746564416e6454696560448201527f6450726f706f73616c7328292068617320616c7265616479206265656e20727560648201527f6e20616e642069747320726573706563746976652076616c7565732073657400608482015260a401610d6d565b61169b6001610f28565b80516116af91601891602090910190612f2a565b506018546000906001906116c39082613a6d565b601a5560005b601854811015611856576018546000906116e590600190613ad6565b905060008061172e60186116f98686613ad6565b8154811061170957611709613a80565b9060005260206000200154600090815260146020526040902080546001909101549091565b9092509050600061173f8284613a96565b905084600003611780576018549096508690600103611777576117628585613ad6565b60008781526016602052604090205560198690555b50505050611844565b8681036117d35760008681526017602052604090205460ff166117b7576000868152601760205260409020805460ff191660011790555b6018546117c5906001613a6d565b601a54036117d357601a8690555b86811461180c576117e48585613ad6565b6117ef906001613a6d565b6000878152601660205260409020558561180881613abd565b9650505b60185461181a866001613a6d565b0361183e576118298585613ad6565b60008781526016602052604090205560198690555b95505050505b8061184e81613abd565b9150506116c9565b50506015805460ff1916600117905550565b60008181526014602090815260409182902060028101805484518185028101850190955280855260609492938301828280156118cd57602002820191906000526020600020905b81546001600160a01b031681526001909101906020018083116118af575b5050505050915050919050565b60006118e7338484610cb2565b6119035760405162461bcd60e51b8152600401610d6d90613ae9565b61190c84612131565b506119168461275d565b949350505050565b60095460009060ff16156119325750600290565b600061193c610bba565b905042811061194d57600091505090565b6000611957611cd5565b90504281106119695760039250505090565b6000611973610d8c565b9050428110611986576001935050505090565b6004935050505090565b611998612f75565b6000828152600a6020908152604091829020825160a08101845281546001600160a01b0381168252600160a01b900460ff1615159281019290925260018101805492939192918401916119ea906139b2565b80601f0160208091040260200160405190810160405280929190818152602001828054611a16906139b2565b8015611a635780601f10611a3857610100808354040283529160200191611a63565b820191906000526020600020905b815481529060010190602001808311611a4657829003601f168201915b5050509183525050604080516020818101835260028501546001600160a01b03168252808401919091528151600385018054606093810283018401855282850181815294909501949193909284928491840182828015611aec57602002820191906000526020600020905b81546001600160a01b03168152600190910190602001808311611ace575b50505050508152602001600182015481525050815250509050919050565b6060806000611b17611dfd565b9050600081516001600160401b03811115611b3457611b34613322565b604051908082528060200260200182016040528015611b5d578160200160208202803683370190505b509050600082516001600160401b03811115611b7b57611b7b613322565b604051908082528060200260200182016040528015611bc057816020015b6040805180820190915260008082526020820152815260200190600190039081611b995790505b5090506000805b8451811015611cc957611bff858281518110611be557611be5613a80565b602002602001015160009081526006602052604090205490565b600114611cb757848181518110611c1857611c18613a80565b6020026020010151848381518110611c3257611c32613a80565b60200260200101818152505060146000868381518110611c5457611c54613a80565b6020026020010151815260200190815260200160002060000160405180604001604052908160008201548152602001600182015481525050838381518110611c9e57611c9e613a80565b6020908102919091010152611cb4600183613a6d565b91505b80611cc181613abd565b915050611bc7565b50919590945092505050565b6000611cdf610ee5565b610d9e610bba565b611cef610c0c565b6001600160a01b0316336001600160a01b031614611d0c57600080fd5b6000611d1661191e565b90506002816004811115611d2c57611d2c61385e565b14158015611d4c57506004816004811115611d4957611d4961385e565b14155b611d985760405162461bcd60e51b815260206004820152601c60248201527f476f7665726e6f723a20636f6e74657374206e6f7420616374697665000000006044820152606401610d6d565b6009805460ff191660011790556040517f4cd963a081760a54f571abc0f1db4dde31b4a07d8d6da3e844b8c6f47eeaaa4290600090a150565b60155460009060ff16611df65760405162461bcd60e51b8152600401610d6d906139ec565b50601a5490565b60606005805480602002602001604051908101604052809291908181526020018280548015610ca85760200282019190600052602060002090815481526020019060010190808311611537575050505050905090565b611e5b610c0c565b6001600160a01b0316336001600160a01b031614611ee15760405162461bcd60e51b815260206004820152603760248201527f476f7665726e6f723a206f6e6c792074686520636f6e7465737420637265617460448201527f6f722063616e2064656c6574652070726f706f73616c730000000000000000006064820152608401610d6d565b6004611eeb61191e565b6004811115611efc57611efc61385e565b03611f815760405162461bcd60e51b815260206004820152604960248201527f476f7665726e6f723a2064656c6574696f6e206f662070726f706f73616c732060448201527f61667465722074686520656e64206f66206120636f6e74657374206973206e6f6064820152681d08185b1b1bddd95960ba1b608482015260a401610d6d565b60005b815181101561205b5760066000838381518110611fa357611fa3613a80565b602002602001015181526020019081526020016000205460011461204957600160066000848481518110611fd957611fd9613a80565b60200260200101518152602001908152602001600020819055506040518060600160405280603d8152602001613c79603d9139600a600084848151811061202257612022613a80565b6020026020010151815260200190815260200160002060010190816120479190613b87565b505b8061205381613abd565b915050611f84565b507f75a75cf5c561892f4cc5b26c1b8e933849b42238c96dd073d080d1ae96c514168160405161208b919061330f565b60405180910390a150565b61209e610c0c565b6001600160a01b0316336001600160a01b0316146120bb57600080fd5b60006120cf601b546001600160a01b031690565b601b80546001600160a01b0319166001600160a01b0385811691821790925560408051928416835260208301919091529192507f753a2cf8d360cff631674504210913e48247f8e56b3e6d2006c2103d4095999f910160405180910390a15050565b80516000906001600160a01b031633146121a65760405162461bcd60e51b815260206004820152603060248201527f476f7665726e6f723a207468652070726f706f73616c20617574686f72206d7560448201526f39ba1031329036b9b39739b2b73232b960811b6064820152608401610d6d565b60005b600281101561235e5760008160018111156121c6576121c661385e565b905060008160018111156121dc576121dc61385e565b036121e7575061234c565b60018160018111156121fb576121fb61385e565b03612331576080840151515160000361228d5760405162461bcd60e51b815260206004820152604860248201527f476f7665726e6f724d6574616461746156616c69646174696f6e3a207468657260448201527f652063616e6e6f74206265207a65726f207369676e65727320696e20736166656064820152674d6574616461746160c01b608482015260a401610d6d565b8360800151602001516000036123195760405162461bcd60e51b8152602060048201526044602482018190527f476f7665726e6f724d6574616461746156616c69646174696f6e3a2074687265908201527f73686f6c642063616e6e6f74206265207a65726f20696e20736166654d6574616064820152636461746160e01b608482015260a401610d6d565b6080840151515160000361232c57600080fd5b61234a565b6040516308b6566d60e11b815260040160405180910390fd5b505b8061235681613abd565b9150506121a9565b508160400151516000036123b45760405162461bcd60e51b815260206004820152601860248201527f476f7665726e6f723a20656d7074792070726f706f73616c00000000000000006044820152606401610d6d565b506001919050565b6000610bc560105490565b6000826123d48584612b96565b14949350505050565b600060016123e961191e565b60048111156123fa576123fa61385e565b146124535760405162461bcd60e51b815260206004820152602360248201527f476f7665726e6f723a20766f7465206e6f742063757272656e746c792061637460448201526269766560e81b6064820152608401610d6d565b600083116124b75760405162461bcd60e51b815260206004820152602b60248201527f476f7665726e6f723a2063616e6e6f7420766f746520776974682030206f722060448201526a666577657220766f74657360a81b6064820152608401610d6d565b6001600160a01b03851660009081526003602052604090205460ff1661255d5760405162461bcd60e51b815260206004820152604f60248201527f476f7665726e6f723a20796f75206e65656420746f2076657269667920796f7560448201527f72206e756d626572206f6620766f74657320616761696e737420746865206d6560648201526e1c9adb19481c9bdbdd08199a5c9cdd608a1b608482015260a401610d6d565b61258f86868686600260008b6001600160a01b03166001600160a01b0316815260200190815260200160002054612be3565b846001600160a01b03167fb8e138887d0aa13bab447e82de9d5c1777041ecd21ca36ba824ff1e6c07ddda4878686866040516125ce9493929190613c46565b60405180910390a2505050506001600160a01b0316600090815260026020526040902054919050565b600083805b84518110156126555784828151811061261757612617613a80565b602002602001015185828151811061263157612631613a80565b60200260200101511215612643578091505b8061264d81613abd565b9150506125fc565b50848103612667576000915050610d41565b600084868151811061267b5761267b613a80565b6020026020010151905084828151811061269757612697613a80565b60200260200101518587815181106126b1576126b1613a80565b602002602001018181525050808583815181106126d0576126d0613a80565b60200260200101818152505060008487815181106126f0576126f0613a80565b6020026020010151905084838151811061270c5761270c613a80565b602002602001015185888151811061272657612726613a80565b6020026020010181815250508085848151811061274557612745613a80565b60209081029190910101525060019695505050505050565b6000600361276961191e565b600481111561277a5761277a61385e565b146127ed5760405162461bcd60e51b815260206004820152603e60248201527f476f7665726e6f723a20636f6e74657374206d7573742062652071756575656460448201527f20666f722070726f706f73616c7320746f206265207375626d697474656400006064820152608401610d6d565b6127f561140f565b336000908152600b6020526040902054106128ac5760405162461bcd60e51b815260206004820152606560248201527f476f7665726e6f723a207468652073616d6520616464726573732063616e6e6f60448201527f74207375626d6974206d6f7265207468616e20746865206e756d416c6c6f776560648201527f6450726f706f73616c5375626d697373696f6e7320666f72207468697320636f6084820152641b9d195cdd60da1b60a482015260c401610d6d565b6128b46123bc565b6005541061292a5760405162461bcd60e51b815260206004820152603960248201527f476f7665726e6f723a20746865206d6178206e756d626572206f662070726f7060448201527f6f73616c732068617665206265656e207375626d6974746564000000000000006064820152608401610d6d565b6000612935836110c0565b6000818152600a6020526040902054909150600160a01b900460ff16156129b05760405162461bcd60e51b815260206004820152602960248201527f476f7665726e6f723a206475706c69636174652070726f706f73616c73206e6f6044820152681d08185b1b1bddd95960ba1b6064820152608401610d6d565b6005805460018181019092557f036b6384b5eca791c62761152d0c79bb0604c104a5fb6f4eb0703f3154bb3db0018290556000828152600a602090815260409182902086518154928801511515600160a01b026001600160a81b03199093166001600160a01b0390911617919091178155908501518592820190612a349082613b87565b506060820151516002820180546001600160a01b0319166001600160a01b039092169190911790556080820151805180516003840191612a7991839160200190612fe6565b50602091820151600191820155336000908152600b9092526040822080549194509250612aa7908490613a6d565b9091555050604080518281523360208201527fcd423cc1203c0af96b9b3d68d73b3064a69de2d14450bb7181c5e5df2132b358910160405180910390a192915050565b606060ff8314612b0457612afd83612e97565b9050610bfb565b818054612b10906139b2565b80601f0160208091040260200160405190810160405280929190818152602001828054612b3c906139b2565b8015612b895780601f10612b5e57610100808354040283529160200191612b89565b820191906000526020600020905b815481529060010190602001808311612b6c57829003601f168201915b5050505050905092915050565b600081815b8451811015612bdb57612bc782868381518110612bba57612bba613a80565b6020026020010151612ed6565b915080612bd381613abd565b915050612b9b565b509392505050565b60008581526014602090815260408083206001600160a01b0388168452601390925290912054612c139083613ad6565b831115612c7e5760405162461bcd60e51b815260206004820152603360248201527f476f7665726e6f72566f74696e6753696d706c653a206e6f7420656e6f756768604482015272081d9bdd195cc81b19599d081d1bc818d85cdd606a1b6064820152608401610d6d565b6001600160a01b03851660009081526003820160205260409020541560ff8516612cf057815484908390600090612cb6908490613a6d565b90915550506001600160a01b038616600090815260038301602052604081208054869290612ce5908490613a6d565b90915550612e2a9050565b60001960ff861601612dc457612d046112cc565b600114612d7b576040805162461bcd60e51b81526020600482015260248101919091527f476f7665726e6f72566f74696e6753696d706c653a20646f776e766f74696e6760448201527f206973206e6f7420656e61626c656420666f72207468697320436f6e746573746064820152608401610d6d565b83826000016001016000828254612d929190613a6d565b90915550506001600160a01b038616600090815260038301602052604081206001018054869290612ce5908490613a6d565b60405162461bcd60e51b815260206004820152603560248201527f476f7665726e6f72566f74696e6753696d706c653a20696e76616c69642076616044820152746c756520666f7220656e756d20566f74655479706560581b6064820152608401610d6d565b8015612e6157600282018054600181018255600091825260209091200180546001600160a01b0319166001600160a01b0388161790555b6001600160a01b03861660009081526013602052604081208054869290612e89908490613a6d565b909155505050505050505050565b60606000612ea483612f02565b604080516020808252818301909252919250600091906020820181803683375050509182525060208101929092525090565b6000818310612ef2576000828152602084905260409020610d41565b5060009182526020526040902090565b600060ff8216601f811115610bfb57604051632cd44ac360e21b815260040160405180910390fd5b828054828255906000526020600020908101928215612f65579160200282015b82811115612f65578251825591602001919060010190612f4a565b50612f7192915061303b565b5090565b6040518060a0016040528060006001600160a01b0316815260200160001515815260200160608152602001612fbf604051806020016040528060006001600160a01b031681525090565b8152602001612fe1604051806040016040528060608152602001600081525090565b905290565b828054828255906000526020600020908101928215612f65579160200282015b82811115612f6557825182546001600160a01b0319166001600160a01b03909116178255602090920191600190910190613006565b5b80821115612f71576000815560010161303c565b60006020828403121561306257600080fd5b81356001600160e01b031981168114610d4157600080fd5b6000815180845260005b818110156130a057602081850181015186830182015201613084565b506000602082860101526020601f19601f83011685010191505092915050565b602081526000610d41602083018461307a565b6000602082840312156130e557600080fd5b5035919050565b815181526020808301519082015260408101610bfb565b6001600160a01b038116811461311857600080fd5b50565b60008083601f84011261312d57600080fd5b5081356001600160401b0381111561314457600080fd5b6020830191508360208260051b85010111156113f957600080fd5b60008060006040848603121561317457600080fd5b833561317f81613103565b925060208401356001600160401b0381111561319a57600080fd5b6131a68682870161311b565b9497909650939450505050565b803580151581146131c357600080fd5b919050565b6000806000806000608086880312156131e057600080fd5b85356131eb81613103565b94506020860135935060408601356001600160401b0381111561320d57600080fd5b6132198882890161311b565b909450925061322c9050606087016131b3565b90509295509295909350565b803560ff811681146131c357600080fd5b60008060008060008060a0878903121561326257600080fd5b8635955061327260208801613238565b9450604087013593506060870135925060808701356001600160401b0381111561329b57600080fd5b6132a789828a0161311b565b979a9699509497509295939492505050565b6000602082840312156132cb57600080fd5b610d41826131b3565b600081518084526020808501945080840160005b83811015613304578151875295820195908201906001016132e8565b509495945050505050565b602081526000610d4160208301846132d4565b634e487b7160e01b600052604160045260246000fd5b604080519081016001600160401b038111828210171561335a5761335a613322565b60405290565b60405160a081016001600160401b038111828210171561335a5761335a613322565b604051601f8201601f191681016001600160401b03811182821017156133aa576133aa613322565b604052919050565b6000602082840312156133c457600080fd5b604051602081018181106001600160401b03821117156133e6576133e6613322565b60405290508082356133f781613103565b905292915050565b60006001600160401b0382111561341857613418613322565b5060051b60200190565b60006040828403121561343457600080fd5b61343c613338565b905081356001600160401b0381111561345457600080fd5b8201601f8101841361346557600080fd5b8035602061347a613475836133ff565b613382565b82815260059290921b8301810191818101908784111561349957600080fd5b938201935b838510156134c05784356134b181613103565b8252938201939082019061349e565b85525093840135938301939093525092915050565b600060a082840312156134e757600080fd5b6134ef613360565b905081356134fc81613103565b8152602061350b8382016131b3565b8183015260408301356001600160401b038082111561352957600080fd5b818501915085601f83011261353d57600080fd5b81358181111561354f5761354f613322565b613561601f8201601f19168501613382565b818152878583860101111561357557600080fd5b81858501868301376000858383010152806040870152505061359a86606087016133b2565b606085015260808501359250808311156135b357600080fd5b50506135c184828501613422565b60808301525092915050565b6000602082840312156135df57600080fd5b81356001600160401b038111156135f557600080fd5b611916848285016134d5565b60006040808352613614818401866132d4565b83810360208581019190915285518083528682019282019060005b8181101561365c5761364c83865180518252602090810151910152565b938301939185019160010161362f565b509098975050505050505050565b6000806000806060858703121561368057600080fd5b843561368b81613103565b93506020850135925060408501356001600160401b038111156136ad57600080fd5b6136b98782880161311b565b95989497509550505050565b6000602082840312156136d757600080fd5b8135610d4181613103565b6000806000606084860312156136f757600080fd5b8335925061370760208501613238565b9150604084013590509250925092565b6000806040838503121561372a57600080fd5b82359150602083013561373c81613103565b809150509250929050565b60ff60f81b8816815260e06020820152600061376660e083018961307a565b8281036040840152613778818961307a565b606084018890526001600160a01b038716608085015260a0840186905283810360c085015290506137a981856132d4565b9a9950505050505050505050565b600081518084526020808501945080840160005b838110156133045781516001600160a01b0316875295820195908201906001016137cb565b602081526000610d4160208301846137b7565b60008060006040848603121561381857600080fd5b83356001600160401b038082111561382f57600080fd5b61383b878388016134d5565b9450602086013591508082111561385157600080fd5b506131a68682870161311b565b634e487b7160e01b600052602160045260246000fd5b602081016005831061389657634e487b7160e01b600052602160045260246000fd5b91905290565b60208152600060018060a01b03808451166020840152602084015115156040840152604084015160a060608501526138d760c085018261307a565b90508160608601515116608085015260808501519150601f198482030160a085015281516040825261390c60408301826137b7565b6020938401519290930191909152509392505050565b6000602080838503121561393557600080fd5b82356001600160401b0381111561394b57600080fd5b8301601f8101851361395c57600080fd5b803561396a613475826133ff565b81815260059190911b8201830190838101908783111561398957600080fd5b928401925b828410156139a75783358252928401929084019061398e565b979650505050505050565b600181811c908216806139c657607f821691505b6020821081036139e657634e487b7160e01b600052602260045260246000fd5b50919050565b60208082526045908201527f526577617264734d6f64756c653a2072756e20736574536f72746564416e645460408201527f69656450726f706f73616c73282920746f20706f70756c61746520746869732060608201526476616c756560d81b608082015260a00190565b634e487b7160e01b600052601160045260246000fd5b80820180821115610bfb57610bfb613a57565b634e487b7160e01b600052603260045260246000fd5b8181036000831280158383131683831282161715613ab657613ab6613a57565b5092915050565b600060018201613acf57613acf613a57565b5060010190565b81810381811115610bfb57610bfb613a57565b6020808252602f908201527f476f7665726e6f723a2061646472657373206973206e6f74207065726d69737360408201526e1a5bdb9959081d1bc81cdd589b5a5d608a1b606082015260800190565b601f821115613b8257600081815260208120601f850160051c81016020861015613b5f5750805b601f850160051c820191505b81811015613b7e57828155600101613b6b565b5050505b505050565b81516001600160401b03811115613ba057613ba0613322565b613bb481613bae84546139b2565b84613b38565b602080601f831160018114613be95760008415613bd15750858301515b600019600386901b1c1916600185901b178555613b7e565b600085815260208120601f198616915b82811015613c1857888601518255948401946001909101908401613bf9565b5085821015613c365787850151600019600388901b60f8161c191681555b5050505050600190811b01905550565b84815260ff84166020820152826040820152608060608201526000613c6e608083018461307a565b969550505050505056fe546869732070726f706f73616c20686173206265656e2064656c65746564206279207468652063726561746f72206f662074686520636f6e746573742ea2646970667358221220ce25e2a301b6a10fd3132683fbb8d70b2364f3e55b1a86b6788fff60d318d1f764736f6c63430008130033",
    "linkReferences": {}
  },
  "methodIdentifiers": {
    "AMOUNT_FOR_SUMBITTER_PROOF()": "347cf665",
    "BALLOT_TYPEHASH()": "deaaa7cc",
    "COUNTING_MODE()": "dd4e2ba5",
    "METADATAS_COUNT()": "4d24a67f",
    "addressSubmitterVerified(address)": "cb853950",
    "addressTotalCastVoteCounts(address)": "a1ac6cb2",
    "addressTotalVotes(address)": "dea5f6a6",
    "addressTotalVotesVerified(address)": "930de979",
    "allProposalTotalVotes()": "50a5e524",
    "allProposalTotalVotesWithoutDeleted()": "d45a010b",
    "cancel()": "ea8a1af0",
    "castVote(uint256,uint8,uint256,uint256,bytes32[])": "419c533c",
    "castVoteWithoutProof(uint256,uint8,uint256)": "65f16263",
    "checkProof(address,uint256,bytes32[],bool)": "32763c22",
    "contestAddressTotalVotesCast(address)": "aec116b6",
    "contestDeadline()": "262e59e9",
    "contestStart()": "004114a8",
    "creator()": "02d05d3f",
    "deleteProposals(uint256[])": "f0a7db0a",
    "downvotingAllowed()": "60506ff6",
    "eip712Domain()": "84b0196e",
    "getAllProposalIds()": "efa90d36",
    "getNumSubmissions(address)": "5f953a03",
    "getProposal(uint256)": "c7f758a8",
    "hashProposal((address,bool,string,(address),(address[],uint256)))": "458da87d",
    "highestTiedRanking()": "ebc18b9b",
    "isProposalDeleted(uint256)": "3b6d199b",
    "isTied(uint256)": "2399c660",
    "lowestRanking()": "6ca1a2c7",
    "maxProposalCount()": "fb9bf8d4",
    "name()": "06fdde03",
    "numAllowedProposalSubmissions()": "832009af",
    "officialRewardsModule()": "785ddfe5",
    "prompt()": "7c65d711",
    "proposalAddressVotes(uint256,address)": "6e4eb810",
    "proposalAddressesHaveVoted(uint256)": "b323580d",
    "proposalVotes(uint256)": "544ffc9c",
    "proposalVotesStructs(uint256)": "070dc5d9",
    "propose((address,bool,string,(address),(address[],uint256)),bytes32[])": "c0ffaa78",
    "proposeWithoutProof((address,bool,string,(address),(address[],uint256)))": "476f4d8a",
    "rankingPosition(uint256)": "86187488",
    "setOfficialRewardsModule(address)": "f4f3d7ec",
    "setSortedAndTiedProposals()": "96f0e962",
    "setSortedAndTiedProposalsHasBeenRun()": "d8891619",
    "sortedProposalIds()": "8a9cd550",
    "sortedProposals(bool)": "427d56c2",
    "state()": "c19d93fb",
    "submissionMerkleRoot()": "bddc1641",
    "supportsInterface(bytes4)": "01ffc9a7",
    "tiedAdjustedRankingPosition(uint256)": "e5eb5a48",
    "validateProposalData((address,bool,string,(address),(address[],uint256)))": "fb8ddab4",
    "verifyProposer(address,bytes32[])": "20b3e845",
    "verifyVoter(address,uint256,bytes32[])": "531bd812",
    "version()": "54fd4d50",
    "voteStart()": "e031535b",
    "votingDelay()": "3932abb1",
    "votingMerkleRoot()": "dd96a19d",
    "votingPeriod()": "02a251a3"
  },
  "id": 36
}