{
  "_format": "hh-sol-artifact-1",
  "contractName": "Contest",
  "sourceName": "contracts/Contest.sol",
  "abi": [
    {
      "inputs": [
        {
          "internalType": "string",
          "name": "_name",
          "type": "string"
        },
        {
          "internalType": "string",
          "name": "_prompt",
          "type": "string"
        },
        {
          "internalType": "bytes32",
          "name": "_submissionMerkleRoot",
          "type": "bytes32"
        },
        {
          "internalType": "bytes32",
          "name": "_votingMerkleRoot",
          "type": "bytes32"
        },
        {
          "internalType": "uint256[]",
          "name": "_constructorIntParams",
          "type": "uint256[]"
        }
      ],
      "stateMutability": "nonpayable",
      "type": "constructor"
    },
    {
      "inputs": [],
      "name": "NotInMerkle",
      "type": "error"
    },
    {
      "anonymous": false,
      "inputs": [],
      "name": "ContestCanceled",
      "type": "event"
    },
    {
      "anonymous": false,
      "inputs": [
        {
          "indexed": false,
          "internalType": "uint256",
          "name": "oldContestSnapshot",
          "type": "uint256"
        },
        {
          "indexed": false,
          "internalType": "uint256",
          "name": "newContestSnapshot",
          "type": "uint256"
        }
      ],
      "name": "ContestSnapshotSet",
      "type": "event"
    },
    {
      "anonymous": false,
      "inputs": [
        {
          "indexed": false,
          "internalType": "uint256",
          "name": "oldContestStart",
          "type": "uint256"
        },
        {
          "indexed": false,
          "internalType": "uint256",
          "name": "newContestStart",
          "type": "uint256"
        }
      ],
      "name": "ContestStartSet",
      "type": "event"
    },
    {
      "anonymous": false,
      "inputs": [
        {
          "indexed": false,
          "internalType": "address",
          "name": "oldCreator",
          "type": "address"
        },
        {
          "indexed": false,
          "internalType": "address",
          "name": "newCreator",
          "type": "address"
        }
      ],
      "name": "CreatorSet",
      "type": "event"
    },
    {
      "anonymous": false,
      "inputs": [
        {
          "indexed": false,
          "internalType": "uint256",
          "name": "oldDownvotingAllowed",
          "type": "uint256"
        },
        {
          "indexed": false,
          "internalType": "uint256",
          "name": "newDownvotingAllowed",
          "type": "uint256"
        }
      ],
      "name": "DownvotingAllowedSet",
      "type": "event"
    },
    {
      "anonymous": false,
      "inputs": [
        {
          "indexed": false,
          "internalType": "uint256",
          "name": "oldMaxProposalCount",
          "type": "uint256"
        },
        {
          "indexed": false,
          "internalType": "uint256",
          "name": "newMaxProposalCount",
          "type": "uint256"
        }
      ],
      "name": "MaxProposalCountSet",
      "type": "event"
    },
    {
      "anonymous": false,
      "inputs": [
        {
          "indexed": false,
          "internalType": "uint256",
          "name": "oldNumAllowedProposalSubmissions",
          "type": "uint256"
        },
        {
          "indexed": false,
          "internalType": "uint256",
          "name": "newNumAllowedProposalSubmissions",
          "type": "uint256"
        }
      ],
      "name": "NumAllowedProposalSubmissionsSet",
      "type": "event"
    },
    {
      "anonymous": false,
      "inputs": [
        {
          "indexed": false,
          "internalType": "contract RewardsModule",
          "name": "oldOfficialRewardsModule",
          "type": "address"
        },
        {
          "indexed": false,
          "internalType": "contract RewardsModule",
          "name": "newOfficialRewardsModule",
          "type": "address"
        }
      ],
      "name": "OfficialRewardsModuleSet",
      "type": "event"
    },
    {
      "anonymous": false,
      "inputs": [
        {
          "indexed": false,
          "internalType": "uint256",
          "name": "proposalId",
          "type": "uint256"
        },
        {
          "indexed": false,
          "internalType": "string",
          "name": "description",
          "type": "string"
        },
        {
          "indexed": false,
          "internalType": "address",
          "name": "proposer",
          "type": "address"
        }
      ],
      "name": "ProposalCreated",
      "type": "event"
    },
    {
      "anonymous": false,
      "inputs": [
        {
          "indexed": false,
          "internalType": "uint256",
          "name": "oldProposalThreshold",
          "type": "uint256"
        },
        {
          "indexed": false,
          "internalType": "uint256",
          "name": "newProposalThreshold",
          "type": "uint256"
        }
      ],
      "name": "ProposalThresholdSet",
      "type": "event"
    },
    {
      "anonymous": false,
      "inputs": [
        {
          "indexed": false,
          "internalType": "uint256[]",
          "name": "proposalIds",
          "type": "uint256[]"
        }
      ],
      "name": "ProposalsDeleted",
      "type": "event"
    },
    {
      "anonymous": false,
      "inputs": [
        {
          "indexed": false,
          "internalType": "uint256",
          "name": "oldSubmissionGatingByVotingToken",
          "type": "uint256"
        },
        {
          "indexed": false,
          "internalType": "uint256",
          "name": "newSubmissionGatingByVotingToken",
          "type": "uint256"
        }
      ],
      "name": "SubmissionGatingByVotingTokenSet",
      "type": "event"
    },
    {
      "anonymous": false,
      "inputs": [
        {
          "indexed": true,
          "internalType": "address",
          "name": "voter",
          "type": "address"
        },
        {
          "indexed": false,
          "internalType": "uint256",
          "name": "proposalId",
          "type": "uint256"
        },
        {
          "indexed": false,
          "internalType": "uint8",
          "name": "support",
          "type": "uint8"
        },
        {
          "indexed": false,
          "internalType": "uint256",
          "name": "numVotes",
          "type": "uint256"
        },
        {
          "indexed": false,
          "internalType": "string",
          "name": "reason",
          "type": "string"
        }
      ],
      "name": "VoteCast",
      "type": "event"
    },
    {
      "anonymous": false,
      "inputs": [
        {
          "indexed": false,
          "internalType": "uint256",
          "name": "oldVotingDelay",
          "type": "uint256"
        },
        {
          "indexed": false,
          "internalType": "uint256",
          "name": "newVotingDelay",
          "type": "uint256"
        }
      ],
      "name": "VotingDelaySet",
      "type": "event"
    },
    {
      "anonymous": false,
      "inputs": [
        {
          "indexed": false,
          "internalType": "uint256",
          "name": "oldVotingPeriod",
          "type": "uint256"
        },
        {
          "indexed": false,
          "internalType": "uint256",
          "name": "newVotingPeriod",
          "type": "uint256"
        }
      ],
      "name": "VotingPeriodSet",
      "type": "event"
    },
    {
      "inputs": [],
      "name": "AMOUNT_FOR_SUMBITTER_PROOF",
      "outputs": [
        {
          "internalType": "uint8",
          "name": "",
          "type": "uint8"
        }
      ],
      "stateMutability": "view",
      "type": "function"
    },
    {
      "inputs": [],
      "name": "BALLOT_TYPEHASH",
      "outputs": [
        {
          "internalType": "bytes32",
          "name": "",
          "type": "bytes32"
        }
      ],
      "stateMutability": "view",
      "type": "function"
    },
    {
      "inputs": [],
      "name": "COUNTING_MODE",
      "outputs": [
        {
          "internalType": "string",
          "name": "",
          "type": "string"
        }
      ],
      "stateMutability": "pure",
      "type": "function"
    },
    {
      "inputs": [
        {
          "internalType": "address",
          "name": "",
          "type": "address"
        }
      ],
      "name": "addressTotalVotes",
      "outputs": [
        {
          "internalType": "uint256",
          "name": "",
          "type": "uint256"
        }
      ],
      "stateMutability": "view",
      "type": "function"
    },
    {
      "inputs": [],
      "name": "allProposalTotalVotes",
      "outputs": [
        {
          "internalType": "uint256[]",
          "name": "proposalIdsReturn",
          "type": "uint256[]"
        },
        {
          "components": [
            {
              "internalType": "uint256",
              "name": "forVotes",
              "type": "uint256"
            },
            {
              "internalType": "uint256",
              "name": "againstVotes",
              "type": "uint256"
            }
          ],
          "internalType": "struct GovernorCountingSimple.VoteCounts[]",
          "name": "proposalVoteCountsArrayReturn",
          "type": "tuple[]"
        }
      ],
      "stateMutability": "view",
      "type": "function"
    },
    {
      "inputs": [],
      "name": "allProposalTotalVotesWithoutDeleted",
      "outputs": [
        {
          "internalType": "uint256[]",
          "name": "proposalIdsReturn",
          "type": "uint256[]"
        },
        {
          "components": [
            {
              "internalType": "uint256",
              "name": "forVotes",
              "type": "uint256"
            },
            {
              "internalType": "uint256",
              "name": "againstVotes",
              "type": "uint256"
            }
          ],
          "internalType": "struct GovernorCountingSimple.VoteCounts[]",
          "name": "proposalVoteCountsArrayReturn",
          "type": "tuple[]"
        }
      ],
      "stateMutability": "view",
      "type": "function"
    },
    {
      "inputs": [],
      "name": "cancel",
      "outputs": [],
      "stateMutability": "nonpayable",
      "type": "function"
    },
    {
      "inputs": [
        {
          "internalType": "uint256",
          "name": "proposalId",
          "type": "uint256"
        },
        {
          "internalType": "uint8",
          "name": "support",
          "type": "uint8"
        },
        {
          "internalType": "uint256",
          "name": "totalVotes",
          "type": "uint256"
        },
        {
          "internalType": "uint256",
          "name": "numVotes",
          "type": "uint256"
        },
        {
          "internalType": "bytes32[]",
          "name": "proof",
          "type": "bytes32[]"
        }
      ],
      "name": "castVote",
      "outputs": [
        {
          "internalType": "uint256",
          "name": "",
          "type": "uint256"
        }
      ],
      "stateMutability": "nonpayable",
      "type": "function"
    },
    {
      "inputs": [
        {
          "internalType": "uint256",
          "name": "proposalId",
          "type": "uint256"
        },
        {
          "internalType": "uint8",
          "name": "support",
          "type": "uint8"
        },
        {
          "internalType": "uint256",
          "name": "numVotes",
          "type": "uint256"
        }
      ],
      "name": "castVoteWithoutProof",
      "outputs": [
        {
          "internalType": "uint256",
          "name": "",
          "type": "uint256"
        }
      ],
      "stateMutability": "nonpayable",
      "type": "function"
    },
    {
      "inputs": [
        {
          "internalType": "address",
          "name": "addressToCheck",
          "type": "address"
        },
        {
          "internalType": "uint256",
          "name": "amount",
          "type": "uint256"
        },
        {
          "internalType": "bytes32[]",
          "name": "proof",
          "type": "bytes32[]"
        },
        {
          "internalType": "bool",
          "name": "voting",
          "type": "bool"
        }
      ],
      "name": "checkProof",
      "outputs": [
        {
          "internalType": "bool",
          "name": "verified",
          "type": "bool"
        }
      ],
      "stateMutability": "view",
      "type": "function"
    },
    {
      "inputs": [
        {
          "internalType": "address",
          "name": "userAddress",
          "type": "address"
        }
      ],
      "name": "contestAddressTotalVotesCast",
      "outputs": [
        {
          "internalType": "uint256",
          "name": "totalVotesCast",
          "type": "uint256"
        }
      ],
      "stateMutability": "view",
      "type": "function"
    },
    {
      "inputs": [],
      "name": "contestDeadline",
      "outputs": [
        {
          "internalType": "uint256",
          "name": "",
          "type": "uint256"
        }
      ],
      "stateMutability": "view",
      "type": "function"
    },
    {
      "inputs": [],
      "name": "contestSnapshot",
      "outputs": [
        {
          "internalType": "uint256",
          "name": "",
          "type": "uint256"
        }
      ],
      "stateMutability": "view",
      "type": "function"
    },
    {
      "inputs": [],
      "name": "contestStart",
      "outputs": [
        {
          "internalType": "uint256",
          "name": "",
          "type": "uint256"
        }
      ],
      "stateMutability": "view",
      "type": "function"
    },
    {
      "inputs": [],
      "name": "creator",
      "outputs": [
        {
          "internalType": "address",
          "name": "",
          "type": "address"
        }
      ],
      "stateMutability": "view",
      "type": "function"
    },
    {
      "inputs": [
        {
          "internalType": "uint256[]",
          "name": "proposalIds",
          "type": "uint256[]"
        }
      ],
      "name": "deleteProposals",
      "outputs": [],
      "stateMutability": "nonpayable",
      "type": "function"
    },
    {
      "inputs": [],
      "name": "downvotingAllowed",
      "outputs": [
        {
          "internalType": "uint256",
          "name": "",
          "type": "uint256"
        }
      ],
      "stateMutability": "view",
      "type": "function"
    },
    {
      "inputs": [],
      "name": "getAllProposalIds",
      "outputs": [
        {
          "internalType": "uint256[]",
          "name": "",
          "type": "uint256[]"
        }
      ],
      "stateMutability": "view",
      "type": "function"
    },
    {
      "inputs": [
        {
          "internalType": "address",
          "name": "account",
          "type": "address"
        }
      ],
      "name": "getNumSubmissions",
      "outputs": [
        {
          "internalType": "uint256",
          "name": "",
          "type": "uint256"
        }
      ],
      "stateMutability": "view",
      "type": "function"
    },
    {
      "inputs": [
        {
          "internalType": "uint256",
          "name": "proposalId",
          "type": "uint256"
        }
      ],
      "name": "getProposal",
      "outputs": [
        {
          "components": [
            {
              "internalType": "address",
              "name": "author",
              "type": "address"
            },
            {
              "internalType": "string",
              "name": "description",
              "type": "string"
            },
            {
              "internalType": "bool",
              "name": "exists",
              "type": "bool"
            }
          ],
          "internalType": "struct Governor.ProposalCore",
          "name": "",
          "type": "tuple"
        }
      ],
      "stateMutability": "view",
      "type": "function"
    },
    {
      "inputs": [
        {
          "internalType": "string",
          "name": "proposalDescription",
          "type": "string"
        }
      ],
      "name": "hashProposal",
      "outputs": [
        {
          "internalType": "uint256",
          "name": "",
          "type": "uint256"
        }
      ],
      "stateMutability": "pure",
      "type": "function"
    },
    {
      "inputs": [
        {
          "internalType": "uint256",
          "name": "proposalId",
          "type": "uint256"
        }
      ],
      "name": "isProposalDeleted",
      "outputs": [
        {
          "internalType": "uint256",
          "name": "",
          "type": "uint256"
        }
      ],
      "stateMutability": "view",
      "type": "function"
    },
    {
      "inputs": [],
      "name": "maxProposalCount",
      "outputs": [
        {
          "internalType": "uint256",
          "name": "",
          "type": "uint256"
        }
      ],
      "stateMutability": "view",
      "type": "function"
    },
    {
      "inputs": [],
      "name": "name",
      "outputs": [
        {
          "internalType": "string",
          "name": "",
          "type": "string"
        }
      ],
      "stateMutability": "view",
      "type": "function"
    },
    {
      "inputs": [],
      "name": "numAllowedProposalSubmissions",
      "outputs": [
        {
          "internalType": "uint256",
          "name": "",
          "type": "uint256"
        }
      ],
      "stateMutability": "view",
      "type": "function"
    },
    {
      "inputs": [],
      "name": "officialRewardsModule",
      "outputs": [
        {
          "internalType": "contract RewardsModule",
          "name": "",
          "type": "address"
        }
      ],
      "stateMutability": "view",
      "type": "function"
    },
    {
      "inputs": [],
      "name": "prompt",
      "outputs": [
        {
          "internalType": "string",
          "name": "",
          "type": "string"
        }
      ],
      "stateMutability": "view",
      "type": "function"
    },
    {
      "inputs": [
        {
          "internalType": "uint256",
          "name": "proposalId",
          "type": "uint256"
        },
        {
          "internalType": "address",
          "name": "userAddress",
          "type": "address"
        }
      ],
      "name": "proposalAddressVotes",
      "outputs": [
        {
          "internalType": "uint256",
          "name": "forVotes",
          "type": "uint256"
        },
        {
          "internalType": "uint256",
          "name": "againstVotes",
          "type": "uint256"
        }
      ],
      "stateMutability": "view",
      "type": "function"
    },
    {
      "inputs": [
        {
          "internalType": "uint256",
          "name": "proposalId",
          "type": "uint256"
        }
      ],
      "name": "proposalAddressesHaveVoted",
      "outputs": [
        {
          "internalType": "address[]",
          "name": "",
          "type": "address[]"
        }
      ],
      "stateMutability": "view",
      "type": "function"
    },
    {
      "inputs": [],
      "name": "proposalThreshold",
      "outputs": [
        {
          "internalType": "uint256",
          "name": "",
          "type": "uint256"
        }
      ],
      "stateMutability": "view",
      "type": "function"
    },
    {
      "inputs": [
        {
          "internalType": "uint256",
          "name": "proposalId",
          "type": "uint256"
        }
      ],
      "name": "proposalVotes",
      "outputs": [
        {
          "internalType": "uint256",
          "name": "forVotes",
          "type": "uint256"
        },
        {
          "internalType": "uint256",
          "name": "againstVotes",
          "type": "uint256"
        }
      ],
      "stateMutability": "view",
      "type": "function"
    },
    {
      "inputs": [
        {
          "internalType": "string",
          "name": "proposalDescription",
          "type": "string"
        },
        {
          "internalType": "bytes32[]",
          "name": "proof",
          "type": "bytes32[]"
        }
      ],
      "name": "propose",
      "outputs": [
        {
          "internalType": "uint256",
          "name": "",
          "type": "uint256"
        }
      ],
      "stateMutability": "nonpayable",
      "type": "function"
    },
    {
      "inputs": [
        {
          "internalType": "contract RewardsModule",
          "name": "officialRewardsModule_",
          "type": "address"
        }
      ],
      "name": "setOfficialRewardsModule",
      "outputs": [],
      "stateMutability": "nonpayable",
      "type": "function"
    },
    {
      "inputs": [
        {
          "internalType": "bool",
          "name": "excludeDeletedProposals",
          "type": "bool"
        }
      ],
      "name": "sortedProposals",
      "outputs": [
        {
          "internalType": "uint256[]",
          "name": "sortedProposalIdsReturn",
          "type": "uint256[]"
        }
      ],
      "stateMutability": "view",
      "type": "function"
    },
    {
      "inputs": [],
      "name": "state",
      "outputs": [
        {
          "internalType": "enum IGovernor.ContestState",
          "name": "",
          "type": "uint8"
        }
      ],
      "stateMutability": "view",
      "type": "function"
    },
    {
      "inputs": [],
      "name": "submissionMerkleRoot",
      "outputs": [
        {
          "internalType": "bytes32",
          "name": "",
          "type": "bytes32"
        }
      ],
      "stateMutability": "view",
      "type": "function"
    },
    {
      "inputs": [
        {
          "internalType": "bytes4",
          "name": "interfaceId",
          "type": "bytes4"
        }
      ],
      "name": "supportsInterface",
      "outputs": [
        {
          "internalType": "bool",
          "name": "",
          "type": "bool"
        }
      ],
      "stateMutability": "view",
      "type": "function"
    },
    {
      "inputs": [
        {
          "internalType": "address",
          "name": "account",
          "type": "address"
        },
        {
          "internalType": "bytes32[]",
          "name": "proof",
          "type": "bytes32[]"
        }
      ],
      "name": "verifySubmitter",
      "outputs": [
        {
          "internalType": "bool",
          "name": "verified",
          "type": "bool"
        }
      ],
      "stateMutability": "nonpayable",
      "type": "function"
    },
    {
      "inputs": [
        {
          "internalType": "address",
          "name": "account",
          "type": "address"
        },
        {
          "internalType": "uint256",
          "name": "totalVotes",
          "type": "uint256"
        },
        {
          "internalType": "bytes32[]",
          "name": "proof",
          "type": "bytes32[]"
        }
      ],
      "name": "verifyTotalVotes",
      "outputs": [
        {
          "internalType": "bool",
          "name": "verified",
          "type": "bool"
        }
      ],
      "stateMutability": "nonpayable",
      "type": "function"
    },
    {
      "inputs": [],
      "name": "version",
      "outputs": [
        {
          "internalType": "string",
          "name": "",
          "type": "string"
        }
      ],
      "stateMutability": "view",
      "type": "function"
    },
    {
      "inputs": [],
      "name": "voteStart",
      "outputs": [
        {
          "internalType": "uint256",
          "name": "",
          "type": "uint256"
        }
      ],
      "stateMutability": "view",
      "type": "function"
    },
    {
      "inputs": [],
      "name": "votingDelay",
      "outputs": [
        {
          "internalType": "uint256",
          "name": "",
          "type": "uint256"
        }
      ],
      "stateMutability": "view",
      "type": "function"
    },
    {
      "inputs": [],
      "name": "votingMerkleRoot",
      "outputs": [
        {
          "internalType": "bytes32",
          "name": "",
          "type": "bytes32"
        }
      ],
      "stateMutability": "view",
      "type": "function"
    },
    {
      "inputs": [],
      "name": "votingPeriod",
      "outputs": [
        {
          "internalType": "uint256",
          "name": "",
          "type": "uint256"
        }
      ],
      "stateMutability": "view",
      "type": "function"
    },
    {
      "stateMutability": "payable",
      "type": "receive"
    }
  ],
  "bytecode": "0x6101806040523480156200001257600080fd5b50604051620036a5380380620036a5833981016040819052620000359162000788565b806000815181106200005757634e487b7160e01b600052603260045260246000fd5b6020026020010151816001815181106200008157634e487b7160e01b600052603260045260246000fd5b602002602001015182600281518110620000ab57634e487b7160e01b600052603260045260246000fd5b602002602001015183600381518110620000d557634e487b7160e01b600052603260045260246000fd5b602002602001015184600481518110620000ff57634e487b7160e01b600052603260045260246000fd5b6020026020010151856005815181106200012957634e487b7160e01b600052603260045260246000fd5b6020026020010151866006815181106200015357634e487b7160e01b600052603260045260246000fd5b6020026020010151876007815181106200017d57634e487b7160e01b600052603260045260246000fd5b602002602001015188600881518110620001a757634e487b7160e01b600052603260045260246000fd5b60200260200101518d8d8d8d818185620001c66200031d60201b60201c565b815160208084019190912082518383012060e08290526101008190524660a0818152604080517f8b73c3c69bb8fe3d512ecc4cf759cc79239f7b179b0ffacaa9a75d522b39400f81880181905281830187905260608201869052608082019490945230818401528151808203909301835260c00190528051940193909320919290916080523060601b60c0526101205250505061014092909252610160525083516200027a90600590602087019062000651565b5082516200029090600690602086019062000651565b5050505050620002a6896200033a60201b60201c565b620002b1886200037b565b620002bc87620003bc565b620002c78662000462565b620002d285620004a3565b620002dd84620004e4565b620002e88362000525565b620002f38262000566565b620002fe81620005a7565b6200030933620005e8565b50505050505050505050505050506200091f565b604080518082019091526003815262332e3160e81b602082015290565b600a5460408051918252602082018390527fd299feb1d7d9345a48559601c471c3be7eea9a11f21d5e86809198f40a974db4910160405180910390a1600a55565b600b5460408051918252602082018390527fc565b045403dc03c2eea82b81a0465edad9e2e7fc4d97e11421c209da93d7a93910160405180910390a1600b55565b60008111620004215760405162461bcd60e51b815260206004820152602760248201527f476f7665726e6f7253657474696e67733a20766f74696e6720706572696f6420604482015266746f6f206c6f7760c81b606482015260840160405180910390fd5b600c5460408051918252602082018390527f7e3f7f0708a84de9203036abaa450dccc85ad5ff52f78c170f3edb55cf5e8828910160405180910390a1600c55565b600d5460408051918252602082018390527f70d92b9b65fcaa7708049081fd0ad601c9af76bd86d38df0337dfce3d025ec83910160405180910390a1600d55565b600e5460408051918252602082018390527fccb45da8d5717e6c4544694297c4ba5cf151d455c9bb0ed4fc7a38411bc05461910160405180910390a1600e55565b600f5460408051918252602082018390527fe971b819c7fb95c72451f557226aceb5baaf4994a9d39a79bbfa0040e87500b9910160405180910390a1600f55565b60105460408051918252602082018390527f4984ec996723330ee95979ed65a2a4b41edd914e68a187efe92596474643bdff910160405180910390a1601055565b60115460408051918252602082018390527f9c7b27f091caef3a83be73d89320404fa0c4a52993685ff0651672e49e6e55ab910160405180910390a1601155565b60125460408051918252602082018390527f5f16486d27561553b443370316cba86e966b1e5ec1691fa07c81944abf314441910160405180910390a1601255565b601354604080516001600160a01b03928316815291831660208301527fc30034fc2e9697980e08935bbc287db3eaa44a4aa113ef4c108b356adbf911ce910160405180910390a1601380546001600160a01b0319166001600160a01b0392909216919091179055565b8280546200065f90620008cc565b90600052602060002090601f016020900481019282620006835760008555620006ce565b82601f106200069e57805160ff1916838001178555620006ce565b82800160010185558215620006ce579182015b82811115620006ce578251825591602001919060010190620006b1565b50620006dc929150620006e0565b5090565b5b80821115620006dc5760008155600101620006e1565b600082601f83011262000708578081fd5b81516001600160401b0381111562000724576200072462000909565b60206200073a601f8301601f1916820162000899565b82815285828487010111156200074e578384fd5b835b838110156200076d57858101830151828201840152820162000750565b838111156200077e57848385840101525b5095945050505050565b600080600080600060a08688031215620007a0578081fd5b85516001600160401b0380821115620007b7578283fd5b620007c589838a01620006f7565b9650602091508188015181811115620007dc578384fd5b620007ea8a828b01620006f7565b96505060408801519450606088015193506080880151818111156200080d578384fd5b8801601f81018a136200081e578384fd5b80518281111562000833576200083362000909565b8060051b92506200084684840162000899565b8181528481019083860185850187018e101562000861578788fd5b8795505b838610156200088557805183526001959095019491860191860162000865565b508096505050505050509295509295909350565b604051601f8201601f191681016001600160401b0381118282101715620008c457620008c462000909565b604052919050565b600181811c90821680620008e157607f821691505b602082108114156200090357634e487b7160e01b600052602260045260246000fd5b50919050565b634e487b7160e01b600052604160045260246000fd5b60805160a05160c05160601c60e05161010051610120516101405161016051612d2162000984600039600081816107880152610ebb0152600081816106aa0152610e560152600050506000505060005050600050506000505060005050612d216000f3fe60806040526004361061026a5760003560e01c80637c65d71111610144578063d45a010b116100b6578063e031535b1161007a578063e031535b1461080b578063ea8a1af014610820578063efa90d3614610835578063f0a7db0a1461084a578063f4f3d7ec1461086a578063fb9bf8d41461088a57600080fd5b8063d45a010b1461071b578063dd4e2ba514610730578063dd96a19d14610776578063dea5f6a6146107aa578063deaaa7cc146107d757600080fd5b8063b323580d11610108578063b323580d14610636578063b58131b014610663578063bd65e80a14610678578063bddc164114610698578063c19d93fb146106cc578063c7f758a8146106ee57600080fd5b80637c65d711146105965780637d8bfc44146105ab578063832009af146105cb5780638d50dc6b146105e0578063aec116b61461060057600080fd5b8063419c533c116101dd57806354fd4d50116101a157806354fd4d50146104c15780635f953a03146104ed57806360506ff61461052357806365f16263146105385780636e4eb81014610558578063785ddfe51461057857600080fd5b8063419c533c146103f2578063427d56c21461041257806350a5e5241461043f578063540a919014610462578063544ffc9c1461047757600080fd5b806306fdde031161022f57806306fdde0314610332578063262e59e91461035457806332763c2214610369578063347cf665146103895780633932abb1146103b05780633b6d199b146103c557600080fd5b80624114a81461027857806301cbcdbe146102a057806301ffc9a7146102c057806302a251a3146102f057806302d05d3f1461030557600080fd5b3661027357005b005b600080fd5b34801561028457600080fd5b5061028d61089f565b6040519081526020015b60405180910390f35b3480156102ac57600080fd5b5061028d6102bb36600461280c565b6108af565b3480156102cc57600080fd5b506102e06102db3660046127aa565b610cd3565b6040519015158152602001610297565b3480156102fc57600080fd5b5061028d610d0a565b34801561031157600080fd5b5061031a610d15565b6040516001600160a01b039091168152602001610297565b34801561033e57600080fd5b50610347610d29565b6040516102979190612aba565b34801561036057600080fd5b5061028d610dbb565b34801561037557600080fd5b506102e061038436600461267b565b610dd7565b34801561039557600080fd5b5061039e600181565b60405160ff9091168152602001610297565b3480156103bc57600080fd5b5061028d610f14565b3480156103d157600080fd5b5061028d6103e0366004612864565b60009081526004602052604090205490565b3480156103fe57600080fd5b5061028d61040d3660046128df565b610f1f565b34801561041e57600080fd5b5061043261042d366004612790565b610f57565b6040516102979190612a1f565b34801561044b57600080fd5b506104546110bb565b604051610297929190612a32565b34801561046e57600080fd5b50600d5461028d565b34801561048357600080fd5b506104ac610492366004612864565b600090815260156020526040902080546001909101549091565b60408051928352602083019190915201610297565b3480156104cd57600080fd5b50604080518082019091526003815262332e3160e81b6020820152610347565b3480156104f957600080fd5b5061028d6105083660046125b4565b6001600160a01b031660009081526009602052604090205490565b34801561052f57600080fd5b5061028d6111eb565b34801561054457600080fd5b5061028d6105533660046128ab565b6111f6565b34801561056457600080fd5b506104ac61057336600461287c565b6112be565b34801561058457600080fd5b506016546001600160a01b031661031a565b3480156105a257600080fd5b506103476112f3565b3480156105b757600080fd5b506102e06105c6366004612622565b611302565b3480156105d757600080fd5b5061028d61136d565b3480156105ec57600080fd5b506102e06105fb3660046125d0565b611378565b34801561060c57600080fd5b5061028d61061b3660046125b4565b6001600160a01b031660009081526014602052604090205490565b34801561064257600080fd5b50610656610651366004612864565b6113d6565b60405161029791906129d2565b34801561066f57600080fd5b5061028d611448565b34801561068457600080fd5b5061028d6106933660046127d2565b611453565b3480156106a457600080fd5b5061028d7f000000000000000000000000000000000000000000000000000000000000000081565b3480156106d857600080fd5b506106e1611484565b6040516102979190612a92565b3480156106fa57600080fd5b5061070e610709366004612864565b6114f6565b6040516102979190612acd565b34801561072757600080fd5b506104546115fa565b34801561073c57600080fd5b5060408051808201909152601881527f737570706f72743d627261766f2671756f72756d3d666f7200000000000000006020820152610347565b34801561078257600080fd5b5061028d7f000000000000000000000000000000000000000000000000000000000000000081565b3480156107b657600080fd5b5061028d6107c53660046125b4565b60006020819052908152604090205481565b3480156107e357600080fd5b5061028d7f150214d74d59b7d1e90c73fc22ef3d991dd0a76b046543d4d80ab92d2a50328f81565b34801561081757600080fd5b5061028d611827565b34801561082c57600080fd5b50610271611839565b34801561084157600080fd5b5061043261193f565b34801561085657600080fd5b506102716108653660046126e9565b611996565b34801561087657600080fd5b506102716108853660046125b4565b611c19565b34801561089657600080fd5b5061028d611cb4565b60006108aa600a5490565b905090565b600060036108bb611484565b60048111156108da57634e487b7160e01b600052602160045260246000fd5b146109525760405162461bcd60e51b815260206004820152603e60248201527f476f7665726e6f723a20636f6e74657374206d7573742062652071756575656460448201527f20666f722070726f706f73616c7320746f206265207375626d6974746564000060648201526084015b60405180910390fd5b61095a61136d565b3360009081526009602052604090205410610a035760405162461bcd60e51b815260206004820152605d60248201527f476f7665726e6f723a207468652073616d652063616e6e6f74207375626d697460448201527f206d6f7265207468616e20746865206e756d416c6c6f77656450726f706f736160648201527f6c5375626d697373696f6e7320666f72207468697320636f6e74657374000000608482015260a401610949565b610a0b611cb4565b60035410610a815760405162461bcd60e51b815260206004820152603960248201527f476f7665726e6f723a20746865206d6178206e756d626572206f662070726f7060448201527f6f73616c732068617665206265656e207375626d6974746564000000000000006064820152608401610949565b610a8c338484611378565b610af05760405162461bcd60e51b815260206004820152602f60248201527f476f7665726e6f723a2061646472657373206973206e6f74207065726d69737360448201526e1a5bdb9959081d1bc81cdd589b5a5d608a1b6064820152608401610949565b8351610b3e5760405162461bcd60e51b815260206004820152601860248201527f476f7665726e6f723a20656d7074792070726f706f73616c00000000000000006044820152606401610949565b6000610b4985611453565b60008181526008602052604090206002015490915060ff1615610bc05760405162461bcd60e51b815260206004820152602960248201527f476f7665726e6f723a206475706c69636174652070726f706f73616c73206e6f6044820152681d08185b1b1bddd95960ba1b6064820152608401610949565b6003805460018082019092557fc2575a0e9e593c00f959f8c92f12db2869c3395a3b0502d05e2516446f71f85b0182905560408051606081018252338152602080820189815282840185905260008681526008835293909320825181546001600160a01b0319166001600160a01b03909116178155925180519294610c4d93908501929190910190612449565b50604091820151600291909101805460ff19169115159190911790553360009081526009602052908120805460019290610c88908490612ba6565b909155507fc8c078bfee58e5822588f08b4509ed1eb5058e03f666cca84dd2d44bf5c288a89050818633604051610cc193929190612b13565b60405180910390a190505b9392505050565b60006001600160e01b0319821663f1bae07f60e01b1480610d0457506301ffc9a760e01b6001600160e01b03198316145b92915050565b60006108aa600c5490565b60006108aa6013546001600160a01b031690565b606060058054610d3890612c14565b80601f0160208091040260200160405190810160405280929190818152602001828054610d6490612c14565b8015610db15780601f10610d8657610100808354040283529160200191610db1565b820191906000526020600020905b815481529060010190602001808311610d9457829003601f168201915b5050505050905090565b6000610dc5610d0a565b610dcd611827565b6108aa9190612ba6565b6040516bffffffffffffffffffffffff19606087901b166020820152603481018590526000908190605401604051602081830303815290604052805190602001209050600083610e8657610e818686808060200260200160405190810160405280939291908181526020018383602002808284376000920191909152507f00000000000000000000000000000000000000000000000000000000000000009250869150611cbf9050565b610ee6565b610ee68686808060200260200160405190810160405280939291908181526020018383602002808284376000920191909152507f00000000000000000000000000000000000000000000000000000000000000009250869150611cbf9050565b905080610f065760405163452c2df160e11b815260040160405180910390fd5b506001979650505050505050565b60006108aa600b5490565b600033610f2e81878686611302565b50610f4b8882898860405180602001604052806000815250611cd5565b98975050505050505050565b606060008083610f6e57610f696110bb565b610f76565b610f766115fa565b91509150600082516001600160401b03811115610fa357634e487b7160e01b600052604160045260246000fd5b604051908082528060200260200182016040528015610fcc578160200160208202803683370190505b50905060005b825181101561107a57828181518110610ffb57634e487b7160e01b600052603260045260246000fd5b60200260200101516020015183828151811061102757634e487b7160e01b600052603260045260246000fd5b60200260200101516000015161103d9190612bbe565b82828151811061105d57634e487b7160e01b600052603260045260246000fd5b60209081029190910101528061107281612c4f565b915050610fd2565b5060005b6001845161108c9190612bfd565b8110156110b15761109e818386611f20565b50806110a981612c4f565b91505061107e565b5091949350505050565b60608060006110c861193f565b9050600081516001600160401b038111156110f357634e487b7160e01b600052604160045260246000fd5b60405190808252806020026020018201604052801561113857816020015b60408051808201909152600080825260208201528152602001906001900390816111115790505b50905060005b82518110156111e1576015600084838151811061116b57634e487b7160e01b600052603260045260246000fd5b60200260200101518152602001908152602001600020600001604051806040016040529081600082015481526020016001820154815250508282815181106111c357634e487b7160e01b600052603260045260246000fd5b602002602001018190525080806111d990612c4f565b91505061113e565b5090939092509050565b60006108aa60115490565b3360008181526001602052604081205490919060ff166112995760405162461bcd60e51b815260206004820152605260248201527f476f7665726e6f723a20796f75206e65656420746f2063617374206120766f7460448201527f652077697468207468652070726f6f66206174206c65617374206f6e636520616064820152711b99081e5bdd481a185d995b89dd081e595d60721b608482015260a401610949565b6112b58582868660405180602001604052806000815250611cd5565b95945050505050565b60008281526015602090815260408083206001600160a01b0385168452600301909152902080546001909101545b9250929050565b606060068054610d3890612c14565b6001600160a01b03841660009081526001602052604081205460ff1661136257611330858585856000610dd7565b506001600160a01b038516600090815260208181526040808320879055600191829052909120805460ff191690911790555b506001949350505050565b60006108aa600f5490565b6001600160a01b03831660009081526002602052604081205460ff166113cc576113a784600185856000610dd7565b506001600160a01b0384166000908152600260205260409020805460ff191660011790555b5060019392505050565b600081815260156020908152604091829020600281018054845181850281018501909552808552606094929383018282801561143b57602002820191906000526020600020905b81546001600160a01b0316815260019091019060200180831161141d575b5050505050915050919050565b60006108aa600e5490565b6000816040516020016114669190612aba565b60408051601f19818403018152919052805160209091012092915050565b60075460009060ff16156114985750600290565b60006114a261089f565b90504281106114b357600091505090565b60006114bd611827565b90504281106114cf5760039250505090565b60006114d9610dbb565b90504281106114ec576001935050505090565b6004935050505090565b611525604051806060016040528060006001600160a01b03168152602001606081526020016000151581525090565b60008281526008602090815260409182902082516060810190935280546001600160a01b03168352600181018054919284019161156190612c14565b80601f016020809104026020016040519081016040528092919081815260200182805461158d90612c14565b80156115da5780601f106115af576101008083540402835291602001916115da565b820191906000526020600020905b8154815290600101906020018083116115bd57829003601f168201915b50505091835250506002919091015460ff16151560209091015292915050565b606080600061160761193f565b9050600081516001600160401b0381111561163257634e487b7160e01b600052604160045260246000fd5b60405190808252806020026020018201604052801561165b578160200160208202803683370190505b509050600082516001600160401b0381111561168757634e487b7160e01b600052604160045260246000fd5b6040519080825280602002602001820160405280156116cc57816020015b60408051808201909152600080825260208201528152602001906001900390816116a55790505b5090506000805b845181101561181b576117198582815181106116ff57634e487b7160e01b600052603260045260246000fd5b602002602001015160009081526004602052604090205490565b6001146118095784818151811061174057634e487b7160e01b600052603260045260246000fd5b602002602001015184838151811061176857634e487b7160e01b600052603260045260246000fd5b6020026020010181815250506015600086838151811061179857634e487b7160e01b600052603260045260246000fd5b60200260200101518152602001908152602001600020600001604051806040016040529081600082015481526020016001820154815250508383815181106117f057634e487b7160e01b600052603260045260246000fd5b6020908102919091010152611806600183612ba6565b91505b8061181381612c4f565b9150506116d3565b50919590945092505050565b6000611831610f14565b610dcd61089f565b611841610d15565b6001600160a01b0316336001600160a01b03161461185e57600080fd5b6000611868611484565b9050600281600481111561188c57634e487b7160e01b600052602160045260246000fd5b141580156118ba575060048160048111156118b757634e487b7160e01b600052602160045260246000fd5b14155b6119065760405162461bcd60e51b815260206004820152601c60248201527f476f7665726e6f723a20636f6e74657374206e6f7420616374697665000000006044820152606401610949565b6007805460ff191660011790556040517f4cd963a081760a54f571abc0f1db4dde31b4a07d8d6da3e844b8c6f47eeaaa4290600090a150565b60606003805480602002602001604051908101604052809291908181526020018280548015610db157602002820191906000526020600020905b815481526020019060010190808311611979575050505050905090565b61199e610d15565b6001600160a01b0316336001600160a01b031614611a245760405162461bcd60e51b815260206004820152603760248201527f476f7665726e6f723a206f6e6c792074686520636f6e7465737420637265617460448201527f6f722063616e2064656c6574652070726f706f73616c730000000000000000006064820152608401610949565b6004611a2e611484565b6004811115611a4d57634e487b7160e01b600052602160045260246000fd5b1415611ad35760405162461bcd60e51b815260206004820152604960248201527f476f7665726e6f723a2064656c6574696f6e206f662070726f706f73616c732060448201527f61667465722074686520656e64206f66206120636f6e74657374206973206e6f6064820152681d08185b1b1bddd95960ba1b608482015260a401610949565b60005b8151811015611bde5760046000838381518110611b0357634e487b7160e01b600052603260045260246000fd5b6020026020010151815260200190815260200160002054600114611bcc57600160046000848481518110611b4757634e487b7160e01b600052603260045260246000fd5b60200260200101518152602001908152602001600020819055506040518060600160405280603d8152602001612caf603d913960086000848481518110611b9e57634e487b7160e01b600052603260045260246000fd5b602002602001015181526020019081526020016000206001019080519060200190611bca929190612449565b505b80611bd681612c4f565b915050611ad6565b507f75a75cf5c561892f4cc5b26c1b8e933849b42238c96dd073d080d1ae96c5141681604051611c0e9190612a1f565b60405180910390a150565b611c21610d15565b6001600160a01b0316336001600160a01b031614611c3e57600080fd5b6000611c526016546001600160a01b031690565b601680546001600160a01b0319166001600160a01b0385811691821790925560408051928416835260208301919091529192507f753a2cf8d360cff631674504210913e48247f8e56b3e6d2006c2103d4095999f910160405180910390a15050565b60006108aa60105490565b600082611ccc8584612113565b14949350505050565b60006001611ce1611484565b6004811115611d0057634e487b7160e01b600052602160045260246000fd5b14611d595760405162461bcd60e51b815260206004820152602360248201527f476f7665726e6f723a20766f7465206e6f742063757272656e746c792061637460448201526269766560e81b6064820152608401610949565b60008311611dbd5760405162461bcd60e51b815260206004820152602b60248201527f476f7665726e6f723a2063616e6e6f7420766f746520776974682030206f722060448201526a666577657220766f74657360a81b6064820152608401610949565b6001600160a01b03851660009081526001602052604090205460ff16611e875760405162461bcd60e51b815260206004820152606d60248201527f476f7665726e6f723a206e6f74207375726520686f7720796f7520676f74206860448201527f6572652062757420796f75206e65656420746f2076657269667920796f75722060648201527f6e756d626572206f6620766f74657320616761696e737420746865206d65726b60848201526c1b19481c9bdbdd08199a5c9cdd609a1b60a482015260c401610949565b611eb8868686866000808b6001600160a01b03166001600160a01b0316815260200190815260200160002054612195565b846001600160a01b03167fb8e138887d0aa13bab447e82de9d5c1777041ecd21ca36ba824ff1e6c07ddda487868686604051611ef79493929190612b44565b60405180910390a2505050506001600160a01b0316600090815260208190526040902054919050565b600083805b8451811015611f9a57848281518110611f4e57634e487b7160e01b600052603260045260246000fd5b6020026020010151858281518110611f7657634e487b7160e01b600052603260045260246000fd5b60200260200101511215611f88578091505b80611f9281612c4f565b915050611f25565b5084811415611fad576000915050610ccc565b6000848681518110611fcf57634e487b7160e01b600052603260045260246000fd5b60200260200101519050848281518110611ff957634e487b7160e01b600052603260045260246000fd5b602002602001015185878151811061202157634e487b7160e01b600052603260045260246000fd5b6020026020010181815250508085838151811061204e57634e487b7160e01b600052603260045260246000fd5b602002602001018181525050600084878151811061207c57634e487b7160e01b600052603260045260246000fd5b602002602001015190508483815181106120a657634e487b7160e01b600052603260045260246000fd5b60200260200101518588815181106120ce57634e487b7160e01b600052603260045260246000fd5b602002602001018181525050808584815181106120fb57634e487b7160e01b600052603260045260246000fd5b60209081029190910101525060019695505050505050565b600081815b845181101561218d57600085828151811061214357634e487b7160e01b600052603260045260246000fd5b60200260200101519050808311612169576000838152602082905260409020925061217a565b600081815260208490526040902092505b508061218581612c4f565b915050612118565b509392505050565b60008581526015602090815260408083206001600160a01b03881684526014909252909120546121c59083612bfd565b8311156122305760405162461bcd60e51b815260206004820152603360248201527f476f7665726e6f72566f74696e6753696d706c653a206e6f7420656e6f756768604482015272081d9bdd195cc81b19599d081d1bc818d85cdd606a1b6064820152608401610949565b6001600160a01b03851660009081526003820160205260409020541560ff85166122a257815484908390600090612268908490612ba6565b90915550506001600160a01b038616600090815260038301602052604081208054869290612297908490612ba6565b909155506123dc9050565b60ff851660011415612376576122b66111eb565b60011461232d576040805162461bcd60e51b81526020600482015260248101919091527f476f7665726e6f72566f74696e6753696d706c653a20646f776e766f74696e6760448201527f206973206e6f7420656e61626c656420666f72207468697320436f6e746573746064820152608401610949565b838260000160010160008282546123449190612ba6565b90915550506001600160a01b038616600090815260038301602052604081206001018054869290612297908490612ba6565b60405162461bcd60e51b815260206004820152603560248201527f476f7665726e6f72566f74696e6753696d706c653a20696e76616c69642076616044820152746c756520666f7220656e756d20566f74655479706560581b6064820152608401610949565b801561241357600282018054600181018255600091825260209091200180546001600160a01b0319166001600160a01b0388161790555b6001600160a01b0386166000908152601460205260408120805486929061243b908490612ba6565b909155505050505050505050565b82805461245590612c14565b90600052602060002090601f01602090048101928261247757600085556124bd565b82601f1061249057805160ff19168380011785556124bd565b828001600101855582156124bd579182015b828111156124bd5782518255916020019190600101906124a2565b506124c99291506124cd565b5090565b5b808211156124c957600081556001016124ce565b60008083601f8401126124f3578182fd5b5081356001600160401b03811115612509578182fd5b6020830191508360208260051b85010111156112ec57600080fd5b8035801515811461253457600080fd5b919050565b600082601f830112612549578081fd5b81356001600160401b0381111561256257612562612c80565b612575601f8201601f1916602001612b76565b818152846020838601011115612589578283fd5b816020850160208301379081016020019190915292915050565b803560ff8116811461253457600080fd5b6000602082840312156125c5578081fd5b8135610ccc81612c96565b6000806000604084860312156125e4578182fd5b83356125ef81612c96565b925060208401356001600160401b03811115612609578283fd5b612615868287016124e2565b9497909650939450505050565b60008060008060608587031215612637578081fd5b843561264281612c96565b93506020850135925060408501356001600160401b03811115612663578182fd5b61266f878288016124e2565b95989497509550505050565b600080600080600060808688031215612692578081fd5b853561269d81612c96565b94506020860135935060408601356001600160401b038111156126be578182fd5b6126ca888289016124e2565b90945092506126dd905060608701612524565b90509295509295909350565b600060208083850312156126fb578182fd5b82356001600160401b0380821115612711578384fd5b818501915085601f830112612724578384fd5b81358181111561273657612736612c80565b8060051b9150612747848301612b76565b8181528481019084860184860187018a1015612761578788fd5b8795505b83861015612783578035835260019590950194918601918601612765565b5098975050505050505050565b6000602082840312156127a1578081fd5b610ccc82612524565b6000602082840312156127bb578081fd5b81356001600160e01b031981168114610ccc578182fd5b6000602082840312156127e3578081fd5b81356001600160401b038111156127f8578182fd5b61280484828501612539565b949350505050565b600080600060408486031215612820578283fd5b83356001600160401b0380821115612836578485fd5b61284287838801612539565b94506020860135915080821115612857578384fd5b50612615868287016124e2565b600060208284031215612875578081fd5b5035919050565b6000806040838503121561288e578182fd5b8235915060208301356128a081612c96565b809150509250929050565b6000806000606084860312156128bf578283fd5b833592506128cf602085016125a3565b9150604084013590509250925092565b60008060008060008060a087890312156128f7578384fd5b86359550612907602088016125a3565b9450604087013593506060870135925060808701356001600160401b0381111561292f578182fd5b61293b89828a016124e2565b979a9699509497509295939492505050565b6000815180845260208085019450808401835b8381101561297c57815187529582019590820190600101612960565b509495945050505050565b60008151808452815b818110156129ac57602081850181015186830182015201612990565b818111156129bd5782602083870101525b50601f01601f19169290920160200192915050565b6020808252825182820181905260009190848201906040850190845b81811015612a135783516001600160a01b0316835292840192918401916001016129ee565b50909695505050505050565b602081526000610ccc602083018461294d565b60006040808352612a458184018661294d565b838103602085810191909152855180835286820192820190855b81811015612a8457845180518452840151848401529383019391850191600101612a5f565b509098975050505050505050565b6020810160058310612ab457634e487b7160e01b600052602160045260246000fd5b91905290565b602081526000610ccc6020830184612987565b602080825282516001600160a01b03168282015282015160606040830152600090612afb6080840182612987565b90506040840151151560608401528091505092915050565b838152606060208201526000612b2c6060830185612987565b905060018060a01b0383166040830152949350505050565b84815260ff84166020820152826040820152608060608201526000612b6c6080830184612987565b9695505050505050565b604051601f8201601f191681016001600160401b0381118282101715612b9e57612b9e612c80565b604052919050565b60008219821115612bb957612bb9612c6a565b500190565b60008083128015600160ff1b850184121615612bdc57612bdc612c6a565b6001600160ff1b0384018313811615612bf757612bf7612c6a565b50500390565b600082821015612c0f57612c0f612c6a565b500390565b600181811c90821680612c2857607f821691505b60208210811415612c4957634e487b7160e01b600052602260045260246000fd5b50919050565b6000600019821415612c6357612c63612c6a565b5060010190565b634e487b7160e01b600052601160045260246000fd5b634e487b7160e01b600052604160045260246000fd5b6001600160a01b0381168114612cab57600080fd5b5056fe546869732070726f706f73616c20686173206265656e2064656c65746564206279207468652063726561746f72206f662074686520636f6e746573742ea264697066735822122015435039000f120cfd20cac06d73a59143eaefaba2bbd5f4d1091fc50fadfa1964736f6c63430008040033",
  "linkReferences": {},
  "deployedLinkReferences": {}
}