{
  "abi": [
    {
      "inputs": [
        {
          "internalType": "uint256[]",
          "name": "payees",
          "type": "uint256[]"
        },
        {
          "internalType": "uint256[]",
          "name": "shares_",
          "type": "uint256[]"
        },
        {
          "internalType": "contract GovernorCountingSimple",
          "name": "underlyingContest_",
          "type": "address"
        },
        {
          "internalType": "bool",
          "name": "paysOutTarget_",
          "type": "bool"
        }
      ],
      "stateMutability": "payable",
      "type": "constructor"
    },
    {
      "anonymous": false,
      "inputs": [
        {
          "indexed": true,
          "internalType": "contract IERC20",
          "name": "token",
          "type": "address"
        },
        {
          "indexed": false,
          "internalType": "address",
          "name": "to",
          "type": "address"
        },
        {
          "indexed": false,
          "internalType": "uint256",
          "name": "amount",
          "type": "uint256"
        }
      ],
      "name": "ERC20PaymentReleased",
      "type": "event"
    },
    {
      "anonymous": false,
      "inputs": [
        {
          "indexed": true,
          "internalType": "contract IERC20",
          "name": "token",
          "type": "address"
        },
        {
          "indexed": false,
          "internalType": "address",
          "name": "by",
          "type": "address"
        },
        {
          "indexed": false,
          "internalType": "uint256",
          "name": "amount",
          "type": "uint256"
        }
      ],
      "name": "ERC20RewardWithdrawn",
      "type": "event"
    },
    {
      "anonymous": false,
      "inputs": [
        {
          "indexed": false,
          "internalType": "uint256",
          "name": "ranking",
          "type": "uint256"
        },
        {
          "indexed": false,
          "internalType": "uint256",
          "name": "shares",
          "type": "uint256"
        }
      ],
      "name": "PayeeAdded",
      "type": "event"
    },
    {
      "anonymous": false,
      "inputs": [
        {
          "indexed": false,
          "internalType": "address",
          "name": "from",
          "type": "address"
        },
        {
          "indexed": false,
          "internalType": "uint256",
          "name": "amount",
          "type": "uint256"
        }
      ],
      "name": "PaymentReceived",
      "type": "event"
    },
    {
      "anonymous": false,
      "inputs": [
        {
          "indexed": false,
          "internalType": "address",
          "name": "to",
          "type": "address"
        },
        {
          "indexed": false,
          "internalType": "uint256",
          "name": "amount",
          "type": "uint256"
        }
      ],
      "name": "PaymentReleased",
      "type": "event"
    },
    {
      "anonymous": false,
      "inputs": [
        {
          "indexed": false,
          "internalType": "address",
          "name": "by",
          "type": "address"
        },
        {
          "indexed": false,
          "internalType": "uint256",
          "name": "amount",
          "type": "uint256"
        }
      ],
      "name": "RewardWithdrawn",
      "type": "event"
    },
    {
      "inputs": [],
      "name": "creator",
      "outputs": [
        {
          "internalType": "address",
          "name": "",
          "type": "address"
        }
      ],
      "stateMutability": "view",
      "type": "function"
    },
    {
      "inputs": [
        {
          "internalType": "uint256",
          "name": "ranking",
          "type": "uint256"
        }
      ],
      "name": "getAddressToPayOut",
      "outputs": [
        {
          "internalType": "address",
          "name": "",
          "type": "address"
        }
      ],
      "stateMutability": "view",
      "type": "function"
    },
    {
      "inputs": [],
      "name": "getPayees",
      "outputs": [
        {
          "internalType": "uint256[]",
          "name": "",
          "type": "uint256[]"
        }
      ],
      "stateMutability": "view",
      "type": "function"
    },
    {
      "inputs": [],
      "name": "paysOutTarget",
      "outputs": [
        {
          "internalType": "bool",
          "name": "",
          "type": "bool"
        }
      ],
      "stateMutability": "view",
      "type": "function"
    },
    {
      "inputs": [
        {
          "internalType": "contract IERC20",
          "name": "token",
          "type": "address"
        },
        {
          "internalType": "uint256",
          "name": "ranking",
          "type": "uint256"
        }
      ],
      "name": "releasable",
      "outputs": [
        {
          "internalType": "uint256",
          "name": "",
          "type": "uint256"
        }
      ],
      "stateMutability": "view",
      "type": "function"
    },
    {
      "inputs": [
        {
          "internalType": "uint256",
          "name": "ranking",
          "type": "uint256"
        }
      ],
      "name": "releasable",
      "outputs": [
        {
          "internalType": "uint256",
          "name": "",
          "type": "uint256"
        }
      ],
      "stateMutability": "view",
      "type": "function"
    },
    {
      "inputs": [
        {
          "internalType": "contract IERC20",
          "name": "token",
          "type": "address"
        },
        {
          "internalType": "uint256",
          "name": "ranking",
          "type": "uint256"
        }
      ],
      "name": "release",
      "outputs": [],
      "stateMutability": "nonpayable",
      "type": "function"
    },
    {
      "inputs": [
        {
          "internalType": "uint256",
          "name": "ranking",
          "type": "uint256"
        }
      ],
      "name": "release",
      "outputs": [],
      "stateMutability": "nonpayable",
      "type": "function"
    },
    {
      "inputs": [
        {
          "internalType": "uint256",
          "name": "ranking",
          "type": "uint256"
        }
      ],
      "name": "released",
      "outputs": [
        {
          "internalType": "uint256",
          "name": "",
          "type": "uint256"
        }
      ],
      "stateMutability": "view",
      "type": "function"
    },
    {
      "inputs": [
        {
          "internalType": "contract IERC20",
          "name": "token",
          "type": "address"
        },
        {
          "internalType": "uint256",
          "name": "ranking",
          "type": "uint256"
        }
      ],
      "name": "released",
      "outputs": [
        {
          "internalType": "uint256",
          "name": "",
          "type": "uint256"
        }
      ],
      "stateMutability": "view",
      "type": "function"
    },
    {
      "inputs": [
        {
          "internalType": "uint256",
          "name": "ranking",
          "type": "uint256"
        }
      ],
      "name": "runReleaseChecks",
      "outputs": [],
      "stateMutability": "view",
      "type": "function"
    },
    {
      "inputs": [
        {
          "internalType": "uint256",
          "name": "ranking",
          "type": "uint256"
        }
      ],
      "name": "shares",
      "outputs": [
        {
          "internalType": "uint256",
          "name": "",
          "type": "uint256"
        }
      ],
      "stateMutability": "view",
      "type": "function"
    },
    {
      "inputs": [
        {
          "internalType": "contract IERC20",
          "name": "token",
          "type": "address"
        }
      ],
      "name": "totalReleased",
      "outputs": [
        {
          "internalType": "uint256",
          "name": "",
          "type": "uint256"
        }
      ],
      "stateMutability": "view",
      "type": "function"
    },
    {
      "inputs": [],
      "name": "totalReleased",
      "outputs": [
        {
          "internalType": "uint256",
          "name": "",
          "type": "uint256"
        }
      ],
      "stateMutability": "view",
      "type": "function"
    },
    {
      "inputs": [],
      "name": "totalShares",
      "outputs": [
        {
          "internalType": "uint256",
          "name": "",
          "type": "uint256"
        }
      ],
      "stateMutability": "view",
      "type": "function"
    },
    {
      "inputs": [],
      "name": "underlyingContest",
      "outputs": [
        {
          "internalType": "contract GovernorCountingSimple",
          "name": "",
          "type": "address"
        }
      ],
      "stateMutability": "view",
      "type": "function"
    },
    {
      "inputs": [],
      "name": "version",
      "outputs": [
        {
          "internalType": "string",
          "name": "",
          "type": "string"
        }
      ],
      "stateMutability": "view",
      "type": "function"
    },
    {
      "inputs": [
        {
          "internalType": "contract IERC20",
          "name": "token",
          "type": "address"
        }
      ],
      "name": "withdrawRewards",
      "outputs": [],
      "stateMutability": "nonpayable",
      "type": "function"
    },
    {
      "inputs": [],
      "name": "withdrawRewards",
      "outputs": [],
      "stateMutability": "nonpayable",
      "type": "function"
    },
    {
      "stateMutability": "payable",
      "type": "receive"
    }
  ],
  "bytecode": {
    "object": "0x60e0604052604051620020333803806200203383398101604081905262000026916200045f565b8251845114620000965760405162461bcd60e51b815260206004820152603060248201527f526577617264734d6f64756c653a2070617965657320616e642073686172657360448201526f040d8cadccee8d040dad2e6dac2e8c6d60831b60648201526084015b60405180910390fd5b6000845111620000e95760405162461bcd60e51b815260206004820152601860248201527f526577617264734d6f64756c653a206e6f20706179656573000000000000000060448201526064016200008d565b60005b84518110156200015557620001408582815181106200010f576200010f62000504565b60200260200101518583815181106200012c576200012c62000504565b6020026020010151620001ed60201b60201c565b806200014c8162000530565b915050620000ec565b50600054600003620001d05760405162461bcd60e51b815260206004820152603860248201527f526577617264734d6f64756c653a2074686520746f74616c206e756d6265722060448201527f6f66207368617265732063616e6e6f7420657175616c2030000000000000000060648201526084016200008d565b151560c0526001600160a01b031660805250503360a05262000568565b60008211620002545760405162461bcd60e51b815260206004820152602c60248201527f526577617264734d6f64756c653a2072616e6b696e6720697320302c206d757360448201526b3a1031329033b932b0ba32b960a11b60648201526084016200008d565b60008111620002a65760405162461bcd60e51b815260206004820152601b60248201527f526577617264734d6f64756c653a20736861726573206172652030000000000060448201526064016200008d565b60008281526002602052604090205415620003165760405162461bcd60e51b815260206004820152602960248201527f526577617264734d6f64756c653a206163636f756e7420616c7265616479206860448201526861732073686172657360b81b60648201526084016200008d565b60048054600181019091557f8a35acfbc15ff81a39ae7d344fd709f28e8600b4aa8c65c6b64bfe7fe36bd19b01829055600082815260026020526040812082905554620003659082906200054c565b60005560408051838152602081018390527f78bc0e219b874bf2620f7316737ec16d4bda1bb7136961e4dcb5ff0dc031cee4910160405180910390a15050565b634e487b7160e01b600052604160045260246000fd5b600082601f830112620003cd57600080fd5b815160206001600160401b0380831115620003ec57620003ec620003a5565b8260051b604051601f19603f83011681018181108482111715620004145762000414620003a5565b6040529384528581018301938381019250878511156200043357600080fd5b83870191505b84821015620004545781518352918301919083019062000439565b979650505050505050565b600080600080608085870312156200047657600080fd5b84516001600160401b03808211156200048e57600080fd5b6200049c88838901620003bb565b95506020870151915080821115620004b357600080fd5b50620004c287828801620003bb565b604087015190945090506001600160a01b0381168114620004e257600080fd5b60608601519092508015158114620004f957600080fd5b939692955090935050565b634e487b7160e01b600052603260045260246000fd5b634e487b7160e01b600052601160045260246000fd5b6000600182016200054557620005456200051a565b5060010190565b808201808211156200056257620005626200051a565b92915050565b60805160a05160c051611a39620005fa600039600081816101dc0152610c2101526000818161016b015281816107a20152818161080c015281816108bb01528181610a7101528181610f4f01528181610faf0152610ff301526000818161044a01528181610951015281816109f701528181610ab001528181610b4701528181610c600152610d690152611a396000f3fe6080604052600436106101185760003560e01c806357a858fc116100a0578063cfe8307011610064578063cfe830701461038d578063d79779b2146103d0578063e33b7de314610406578063e4bf01a81461041b578063f3f44fb71461043b57600080fd5b806357a858fc146102de57806396f7ff6e1461030b578063a94d373b1461032b578063c710404614610358578063c7b8981c1461037857600080fd5b806327f38113116100e757806327f381131461023557806337bdc99b146102575780633a98ef391461027757806342d866931461028c57806354fd4d50146102ac57600080fd5b806302d05d3f1461015c5780630357371d146101a85780631e5b4634146101ca5780632081d6311461020757600080fd5b3661015757604080513381523460208201527f6ef95f06320e7a25a04a175ca677b7052bdd97131872c2192525a629f51be770910160405180910390a1005b600080fd5b34801561016857600080fd5b507f00000000000000000000000000000000000000000000000000000000000000005b6040516001600160a01b0390911681526020015b60405180910390f35b3480156101b457600080fd5b506101c86101c3366004611406565b61046e565b005b3480156101d657600080fd5b506040517f00000000000000000000000000000000000000000000000000000000000000001515815260200161019f565b34801561021357600080fd5b50610227610222366004611406565b61058c565b60405190815260200161019f565b34801561024157600080fd5b5061024a61065c565b60405161019f9190611432565b34801561026357600080fd5b506101c8610272366004611476565b6106b4565b34801561028357600080fd5b50600054610227565b34801561029857600080fd5b506101c86102a736600461148f565b610797565b3480156102b857600080fd5b5060408051808201825260038152621a171960e91b6020820152905161019f91906114d0565b3480156102ea57600080fd5b506102276102f9366004611476565b60009081526002602052604090205490565b34801561031757600080fd5b5061018b610326366004611476565b61094a565b34801561033757600080fd5b50610227610346366004611476565b60009081526003602052604090205490565b34801561036457600080fd5b506101c8610373366004611476565b610c5e565b34801561038457600080fd5b506101c8610f44565b34801561039957600080fd5b506102276103a8366004611406565b6001600160a01b03919091166000908152600660209081526040808320938352929052205490565b3480156103dc57600080fd5b506102276103eb36600461148f565b6001600160a01b031660009081526005602052604090205490565b34801561041257600080fd5b50600154610227565b34801561042757600080fd5b50610227610436366004611476565b61101a565b34801561044757600080fd5b507f000000000000000000000000000000000000000000000000000000000000000061018b565b61047781610c5e565b6000610483838361058c565b9050806000036104ae5760405162461bcd60e51b81526004016104a590611503565b60405180910390fd5b6001600160a01b038316600090815260056020526040812080548392906104d69084906115a9565b90915550506001600160a01b0383166000908152600660209081526040808320858452909152812080548301905561050d8361094a565b90506001600160a01b0381166105355760405162461bcd60e51b81526004016104a5906115bc565b604080516001600160a01b038381168252602082018590528616917f3be5b7a71e84ed12875d241991c70855ac5817d847039e17a9d895c1ceb0f18a910160405180910390a2610586848284611054565b50505050565b6001600160a01b03821660009081526005602052604081205481906040516370a0823160e01b81523060048201526001600160a01b038616906370a0823190602401602060405180830381865afa1580156105eb573d6000803e3d6000fd5b505050506040513d601f19601f8201168201806040525081019061060f9190611606565b61061991906115a9565b9050610652838261064d87876001600160a01b03919091166000908152600660209081526040808320938352929052205490565b6110a6565b9150505b92915050565b606060048054806020026020016040519081016040528092919081815260200182805480156106aa57602002820191906000526020600020905b815481526020019060010190808311610696575b5050505050905090565b6106bd81610c5e565b60006106c88261101a565b9050806000036106ea5760405162461bcd60e51b81526004016104a590611503565b80600160008282546106fc91906115a9565b9091555050600082815260036020526040812080548301905561071e8361094a565b90506001600160a01b0381166107465760405162461bcd60e51b81526004016104a5906115bc565b604080516001600160a01b0383168152602081018490527fdf20fd1e76bc69d672e4814fafb2c449bba3a5369d8359adf9e05e6fde87b056910160405180910390a161079281836110e0565b505050565b336001600160a01b037f000000000000000000000000000000000000000000000000000000000000000016146107df5760405162461bcd60e51b81526004016104a59061161f565b6001600160a01b0381167f6e5fc1cbd1629d9837bd657d23cf585bbc4e9127184972606cc4c0dd406f75727f00000000000000000000000000000000000000000000000000000000000000006040516370a0823160e01b81523060048201526001600160a01b038516906370a0823190602401602060405180830381865afa15801561086f573d6000803e3d6000fd5b505050506040513d601f19601f820116820180604052508101906108939190611606565b604080516001600160a01b03909316835260208301919091520160405180910390a2610947817f00000000000000000000000000000000000000000000000000000000000000006040516370a0823160e01b81523060048201526001600160a01b038516906370a0823190602401602060405180830381865afa15801561091e573d6000803e3d6000fd5b505050506040513d601f19601f820116820180604052508101906109429190611606565b611054565b50565b60008060007f00000000000000000000000000000000000000000000000000000000000000006001600160a01b0316635c7107d8856040518263ffffffff1660e01b815260040161099d91815260200190565b602060405180830381865afa1580156109ba573d6000803e3d6000fd5b505050506040513d601f19601f820116820180604052508101906109de9190611606565b60405163245d1de360e21b8152600481018290529091507f00000000000000000000000000000000000000000000000000000000000000006001600160a01b031690639174778c90602401602060405180830381865afa158015610a46573d6000803e3d6000fd5b505050506040513d601f19601f82011682018060405250810190610a6a9190611688565b15610a97577f00000000000000000000000000000000000000000000000000000000000000009150610c57565b60405163325cc6d960e01b8152600481018290526000907f00000000000000000000000000000000000000000000000000000000000000006001600160a01b03169063325cc6d990602401602060405180830381865afa158015610aff573d6000803e3d6000fd5b505050506040513d601f19601f82011682018060405250810190610b239190611606565b60405163b66d1da360e01b8152600481018290529091506000906001600160a01b037f0000000000000000000000000000000000000000000000000000000000000000169063c7f758a890829063b66d1da390602401602060405180830381865afa158015610b96573d6000803e3d6000fd5b505050506040513d601f19601f82011682018060405250810190610bba9190611606565b6040518263ffffffff1660e01b8152600401610bd891815260200190565b600060405180830381865afa158015610bf5573d6000803e3d6000fd5b505050506040513d6000823e601f3d908101601f19168201604052610c1d919081019061184e565b90507f0000000000000000000000000000000000000000000000000000000000000000610c4b578051610c52565b6060810151515b935050505b5092915050565b7f00000000000000000000000000000000000000000000000000000000000000006001600160a01b03166360506ff66040518163ffffffff1660e01b8152600401602060405180830381865afa158015610cbc573d6000803e3d6000fd5b505050506040513d601f19601f82011682018060405250810190610ce09190611606565b15610d655760405162461bcd60e51b815260206004820152604960248201527f526577617264734d6f64756c653a2072616e6b696e677320646f6e277420776f60448201527f726b207769746820646f776e766f74696e6720656e61626c6564206f6e207468606482015268194818dbdb9d195cdd60ba1b608482015260a4016104a5565b60047f00000000000000000000000000000000000000000000000000000000000000006001600160a01b031663c19d93fb6040518163ffffffff1660e01b8152600401602060405180830381865afa158015610dc5573d6000803e3d6000fd5b505050506040513d601f19601f82011682018060405250810190610de9919061197a565b6004811115610dfa57610dfa611964565b14610e795760405162461bcd60e51b815260206004820152604360248201527f526577617264734d6f64756c653a20636f6e74657374206d757374206265206360448201527f6f6d706c6574656420666f72207265776172647320746f2062652070616964206064820152621bdd5d60ea1b608482015260a4016104a5565b80600003610edd5760405162461bcd60e51b815260206004820152602b60248201527f526577617264734d6f64756c653a2072616e6b696e67206d757374206265203160448201526a1037b91033b932b0ba32b960a91b60648201526084016104a5565b6000818152600260205260409020546109475760405162461bcd60e51b8152602060048201526024808201527f526577617264734d6f64756c653a2072616e6b696e6720686173206e6f2073686044820152636172657360e01b60648201526084016104a5565b336001600160a01b037f00000000000000000000000000000000000000000000000000000000000000001614610f8c5760405162461bcd60e51b81526004016104a59061161f565b7f1d3eee4ca001cff39eec6ec7615aacf2f2bd61791273830728ba00ccbd6e13377f0000000000000000000000000000000000000000000000000000000000000000604080516001600160a01b0390921682524760208301520160405180910390a16110187f0000000000000000000000000000000000000000000000000000000000000000476110e0565b565b60008061102660015490565b61103090476115a9565b905061104d838261064d8660009081526003602052604090205490565b9392505050565b604080516001600160a01b038416602482015260448082018490528251808303909101815260649091019091526020810180516001600160e01b031663a9059cbb60e01b1790526107929084906111f9565b60008054848252600260205260408220548391906110c4908661199b565b6110ce91906119b2565b6110d891906119d4565b949350505050565b804710156111305760405162461bcd60e51b815260206004820152601d60248201527f416464726573733a20696e73756666696369656e742062616c616e636500000060448201526064016104a5565b6000826001600160a01b03168260405160006040518083038185875af1925050503d806000811461117d576040519150601f19603f3d011682016040523d82523d6000602084013e611182565b606091505b50509050806107925760405162461bcd60e51b815260206004820152603a60248201527f416464726573733a20756e61626c6520746f2073656e642076616c75652c207260448201527f6563697069656e74206d6179206861766520726576657274656400000000000060648201526084016104a5565b600061124e826040518060400160405280602081526020017f5361666545524332303a206c6f772d6c6576656c2063616c6c206661696c6564815250856001600160a01b03166112ce9092919063ffffffff16565b905080516000148061126f57508080602001905181019061126f9190611688565b6107925760405162461bcd60e51b815260206004820152602a60248201527f5361666545524332303a204552433230206f7065726174696f6e20646964206e6044820152691bdd081cdd58d8d9595960b21b60648201526084016104a5565b60606110d8848460008585600080866001600160a01b031685876040516112f591906119e7565b60006040518083038185875af1925050503d8060008114611332576040519150601f19603f3d011682016040523d82523d6000602084013e611337565b606091505b509150915061134887838387611353565b979650505050505050565b606083156113c25782516000036113bb576001600160a01b0385163b6113bb5760405162461bcd60e51b815260206004820152601d60248201527f416464726573733a2063616c6c20746f206e6f6e2d636f6e747261637400000060448201526064016104a5565b50816110d8565b6110d883838151156113d75781518083602001fd5b8060405162461bcd60e51b81526004016104a591906114d0565b6001600160a01b038116811461094757600080fd5b6000806040838503121561141957600080fd5b8235611424816113f1565b946020939093013593505050565b6020808252825182820181905260009190848201906040850190845b8181101561146a5783518352928401929184019160010161144e565b50909695505050505050565b60006020828403121561148857600080fd5b5035919050565b6000602082840312156114a157600080fd5b813561104d816113f1565b60005b838110156114c75781810151838201526020016114af565b50506000910152565b60208152600082518060208401526114ef8160408501602087016114ac565b601f01601f19169190910160400192915050565b60208082526064908201527f526577617264734d6f64756c653a206163636f756e742069736e27742064756560408201527f207061796d656e742061732074686572652069736e277420616e79206e61746960608201527f76652063757272656e637920696e20746865206d6f64756c6520746f20706179608082015263081bdd5d60e21b60a082015260c00190565b634e487b7160e01b600052601160045260246000fd5b8082018082111561065657610656611593565b6020808252602a908201527f526577617264734d6f64756c653a206163636f756e7420697320746865207a65604082015269726f206164647265737360b01b606082015260800190565b60006020828403121561161857600080fd5b5051919050565b60208082526034908201527f526577617264734d6f64756c653a206f6e6c79207468652063726561746f722060408201527363616e207769746864726177207265776172647360601b606082015260800190565b8051801515811461168357600080fd5b919050565b60006020828403121561169a57600080fd5b61104d82611673565b634e487b7160e01b600052604160045260246000fd5b6040805190810167ffffffffffffffff811182821017156116dc576116dc6116a3565b60405290565b60405160a0810167ffffffffffffffff811182821017156116dc576116dc6116a3565b604051601f8201601f1916810167ffffffffffffffff8111828210171561172e5761172e6116a3565b604052919050565b60006020828403121561174857600080fd5b6040516020810181811067ffffffffffffffff8211171561176b5761176b6116a3565b8060405250809150825161177e816113f1565b905292915050565b60006040828403121561179857600080fd5b6117a06116b9565b9050815167ffffffffffffffff808211156117ba57600080fd5b818401915084601f8301126117ce57600080fd5b81516020828211156117e2576117e26116a3565b8160051b92506117f3818401611705565b828152928401810192818101908885111561180d57600080fd5b948201945b848610156118375785519350611827846113f1565b8382529482019490820190611812565b808752505080860151818601525050505092915050565b6000602080838503121561186157600080fd5b825167ffffffffffffffff8082111561187957600080fd5b9084019060a0828703121561188d57600080fd5b6118956116e2565b82516118a0816113f1565b81526118ad838501611673565b848201526040830151828111156118c357600080fd5b8301601f810188136118d457600080fd5b8051838111156118e6576118e66116a3565b6118f8601f8201601f19168701611705565b818152898783850101111561190c57600080fd5b61191b828883018986016114ac565b60408401525061193090508760608501611736565b6060820152608083015193508184111561194957600080fd5b61195587858501611786565b60808201529695505050505050565b634e487b7160e01b600052602160045260246000fd5b60006020828403121561198c57600080fd5b81516005811061104d57600080fd5b808202811582820484141761065657610656611593565b6000826119cf57634e487b7160e01b600052601260045260246000fd5b500490565b8181038181111561065657610656611593565b600082516119f98184602087016114ac565b919091019291505056fea26469706673582212200ee0d1a7155850d5568f69eedcc87d426bb4ac80ba726402e87c711b9289e91064736f6c63430008130033",
    "linkReferences": {}
  },
  "methodIdentifiers": {
    "creator()": "02d05d3f",
    "getAddressToPayOut(uint256)": "96f7ff6e",
    "getPayees()": "27f38113",
    "paysOutTarget()": "1e5b4634",
    "releasable(address,uint256)": "2081d631",
    "releasable(uint256)": "e4bf01a8",
    "release(address,uint256)": "0357371d",
    "release(uint256)": "37bdc99b",
    "released(address,uint256)": "cfe83070",
    "released(uint256)": "a94d373b",
    "runReleaseChecks(uint256)": "c7104046",
    "shares(uint256)": "57a858fc",
    "totalReleased()": "e33b7de3",
    "totalReleased(address)": "d79779b2",
    "totalShares()": "3a98ef39",
    "underlyingContest()": "f3f44fb7",
    "version()": "54fd4d50",
    "withdrawRewards()": "c7b8981c",
    "withdrawRewards(address)": "42d86693"
  },
  "id": 48
}