{
  "abi": [
    {
      "inputs": [
        {
          "internalType": "string",
          "name": "_name",
          "type": "string"
        },
        {
          "internalType": "string",
          "name": "_prompt",
          "type": "string"
        },
        {
          "internalType": "bytes32",
          "name": "_submissionMerkleRoot",
          "type": "bytes32"
        },
        {
          "internalType": "bytes32",
          "name": "_votingMerkleRoot",
          "type": "bytes32"
        },
        {
          "internalType": "uint256[]",
          "name": "_constructorIntParams",
          "type": "uint256[]"
        }
      ],
      "stateMutability": "nonpayable",
      "type": "constructor"
    },
    {
      "inputs": [],
      "name": "AddressNotPermissionedToSubmit",
      "type": "error"
    },
    {
      "inputs": [
        {
          "internalType": "address",
          "name": "author",
          "type": "address"
        },
        {
          "internalType": "address",
          "name": "sender",
          "type": "address"
        }
      ],
      "name": "AuthorIsNotSender",
      "type": "error"
    },
    {
      "inputs": [],
      "name": "CannotCancelACompletedContest",
      "type": "error"
    },
    {
      "inputs": [],
      "name": "CannotDeleteWhenCompleted",
      "type": "error"
    },
    {
      "inputs": [],
      "name": "CannotVoteOnDeletedProposal",
      "type": "error"
    },
    {
      "inputs": [],
      "name": "ContestAlreadyCancelled",
      "type": "error"
    },
    {
      "inputs": [
        {
          "internalType": "enum Governor.ContestState",
          "name": "currentState",
          "type": "uint8"
        }
      ],
      "name": "ContestMustBeActiveToVote",
      "type": "error"
    },
    {
      "inputs": [
        {
          "internalType": "enum Governor.ContestState",
          "name": "currentState",
          "type": "uint8"
        }
      ],
      "name": "ContestMustBeQueuedToPropose",
      "type": "error"
    },
    {
      "inputs": [
        {
          "internalType": "uint256",
          "name": "maxProposalCount",
          "type": "uint256"
        }
      ],
      "name": "ContestSubmissionLimitReached",
      "type": "error"
    },
    {
      "inputs": [],
      "name": "DownvotingNotEnabled",
      "type": "error"
    },
    {
      "inputs": [
        {
          "internalType": "uint256",
          "name": "proposalId",
          "type": "uint256"
        }
      ],
      "name": "DuplicateSubmission",
      "type": "error"
    },
    {
      "inputs": [],
      "name": "EmptyProposalDescription",
      "type": "error"
    },
    {
      "inputs": [
        {
          "internalType": "uint256",
          "name": "msgValue",
          "type": "uint256"
        },
        {
          "internalType": "uint256",
          "name": "costToPropose",
          "type": "uint256"
        }
      ],
      "name": "IncorrectCostToProposeSent",
      "type": "error"
    },
    {
      "inputs": [],
      "name": "IndexHasNotBeenPopulated",
      "type": "error"
    },
    {
      "inputs": [],
      "name": "InvalidVoteType",
      "type": "error"
    },
    {
      "inputs": [],
      "name": "MoreThanOneProposalWithThisManyVotes",
      "type": "error"
    },
    {
      "inputs": [],
      "name": "NeedAtLeastOneVoteToVote",
      "type": "error"
    },
    {
      "inputs": [],
      "name": "NeedToSubmitWithProofFirst",
      "type": "error"
    },
    {
      "inputs": [],
      "name": "NeedToVoteWithProofFirst",
      "type": "error"
    },
    {
      "inputs": [],
      "name": "NotEnoughVotesLeft",
      "type": "error"
    },
    {
      "inputs": [],
      "name": "NotInMerkle",
      "type": "error"
    },
    {
      "inputs": [],
      "name": "OnlyCreatorCanDelete",
      "type": "error"
    },
    {
      "inputs": [],
      "name": "OnlyCreatorCanSetRewardsModule",
      "type": "error"
    },
    {
      "inputs": [],
      "name": "OnlyJkLabsOrCreatorCanCancel",
      "type": "error"
    },
    {
      "inputs": [],
      "name": "RankCannotBeZero",
      "type": "error"
    },
    {
      "inputs": [],
      "name": "RankIsNotInSortedRanks",
      "type": "error"
    },
    {
      "inputs": [
        {
          "internalType": "uint256",
          "name": "numAllowedProposalSubmissions",
          "type": "uint256"
        }
      ],
      "name": "SenderSubmissionLimitReached",
      "type": "error"
    },
    {
      "inputs": [
        {
          "internalType": "enum Governor.Metadatas",
          "name": "unexpectedMetadata",
          "type": "uint8"
        }
      ],
      "name": "UnexpectedMetadata",
      "type": "error"
    },
    {
      "inputs": [],
      "name": "ZeroSignersInSafeMetadata",
      "type": "error"
    },
    {
      "inputs": [],
      "name": "ZeroThresholdInSafeMetadata",
      "type": "error"
    },
    {
      "anonymous": false,
      "inputs": [],
      "name": "ContestCanceled",
      "type": "event"
    },
    {
      "anonymous": false,
      "inputs": [
        {
          "indexed": false,
          "internalType": "string",
          "name": "name",
          "type": "string"
        },
        {
          "indexed": false,
          "internalType": "address",
          "name": "creator",
          "type": "address"
        }
      ],
      "name": "JokeraceCreated",
      "type": "event"
    },
    {
      "anonymous": false,
      "inputs": [
        {
          "indexed": false,
          "internalType": "contract RewardsModule",
          "name": "oldOfficialRewardsModule",
          "type": "address"
        },
        {
          "indexed": false,
          "internalType": "contract RewardsModule",
          "name": "newOfficialRewardsModule",
          "type": "address"
        }
      ],
      "name": "OfficialRewardsModuleSet",
      "type": "event"
    },
    {
      "anonymous": false,
      "inputs": [
        {
          "indexed": false,
          "internalType": "address",
          "name": "to",
          "type": "address"
        },
        {
          "indexed": false,
          "internalType": "uint256",
          "name": "amount",
          "type": "uint256"
        }
      ],
      "name": "PaymentReleased",
      "type": "event"
    },
    {
      "anonymous": false,
      "inputs": [
        {
          "indexed": false,
          "internalType": "uint256",
          "name": "proposalId",
          "type": "uint256"
        },
        {
          "indexed": false,
          "internalType": "address",
          "name": "proposer",
          "type": "address"
        }
      ],
      "name": "ProposalCreated",
      "type": "event"
    },
    {
      "anonymous": false,
      "inputs": [
        {
          "indexed": false,
          "internalType": "uint256[]",
          "name": "proposalIds",
          "type": "uint256[]"
        }
      ],
      "name": "ProposalsDeleted",
      "type": "event"
    },
    {
      "anonymous": false,
      "inputs": [
        {
          "indexed": true,
          "internalType": "address",
          "name": "voter",
          "type": "address"
        },
        {
          "indexed": false,
          "internalType": "uint256",
          "name": "proposalId",
          "type": "uint256"
        },
        {
          "indexed": false,
          "internalType": "uint8",
          "name": "support",
          "type": "uint8"
        },
        {
          "indexed": false,
          "internalType": "uint256",
          "name": "numVotes",
          "type": "uint256"
        }
      ],
      "name": "VoteCast",
      "type": "event"
    },
    {
      "inputs": [],
      "name": "AMOUNT_FOR_SUMBITTER_PROOF",
      "outputs": [
        {
          "internalType": "uint256",
          "name": "",
          "type": "uint256"
        }
      ],
      "stateMutability": "view",
      "type": "function"
    },
    {
      "inputs": [],
      "name": "JK_LABS_ADDRESS",
      "outputs": [
        {
          "internalType": "address",
          "name": "",
          "type": "address"
        }
      ],
      "stateMutability": "view",
      "type": "function"
    },
    {
      "inputs": [],
      "name": "METADATAS_COUNT",
      "outputs": [
        {
          "internalType": "uint256",
          "name": "",
          "type": "uint256"
        }
      ],
      "stateMutability": "view",
      "type": "function"
    },
    {
      "inputs": [
        {
          "internalType": "address",
          "name": "",
          "type": "address"
        }
      ],
      "name": "addressSubmitterVerified",
      "outputs": [
        {
          "internalType": "bool",
          "name": "",
          "type": "bool"
        }
      ],
      "stateMutability": "view",
      "type": "function"
    },
    {
      "inputs": [
        {
          "internalType": "address",
          "name": "",
          "type": "address"
        }
      ],
      "name": "addressTotalCastVoteCounts",
      "outputs": [
        {
          "internalType": "uint256",
          "name": "",
          "type": "uint256"
        }
      ],
      "stateMutability": "view",
      "type": "function"
    },
    {
      "inputs": [
        {
          "internalType": "address",
          "name": "",
          "type": "address"
        }
      ],
      "name": "addressTotalVotes",
      "outputs": [
        {
          "internalType": "uint256",
          "name": "",
          "type": "uint256"
        }
      ],
      "stateMutability": "view",
      "type": "function"
    },
    {
      "inputs": [
        {
          "internalType": "address",
          "name": "",
          "type": "address"
        }
      ],
      "name": "addressTotalVotesVerified",
      "outputs": [
        {
          "internalType": "bool",
          "name": "",
          "type": "bool"
        }
      ],
      "stateMutability": "view",
      "type": "function"
    },
    {
      "inputs": [
        {
          "internalType": "uint256",
          "name": "",
          "type": "uint256"
        }
      ],
      "name": "addressesThatHaveVoted",
      "outputs": [
        {
          "internalType": "address",
          "name": "",
          "type": "address"
        }
      ],
      "stateMutability": "view",
      "type": "function"
    },
    {
      "inputs": [],
      "name": "allProposalTotalVotes",
      "outputs": [
        {
          "internalType": "uint256[]",
          "name": "proposalIdsReturn",
          "type": "uint256[]"
        },
        {
          "components": [
            {
              "internalType": "uint256",
              "name": "forVotes",
              "type": "uint256"
            },
            {
              "internalType": "uint256",
              "name": "againstVotes",
              "type": "uint256"
            }
          ],
          "internalType": "struct GovernorCountingSimple.VoteCounts[]",
          "name": "proposalVoteCountsArrayReturn",
          "type": "tuple[]"
        }
      ],
      "stateMutability": "view",
      "type": "function"
    },
    {
      "inputs": [],
      "name": "allProposalTotalVotesWithoutDeleted",
      "outputs": [
        {
          "internalType": "uint256[]",
          "name": "proposalIdsReturn",
          "type": "uint256[]"
        },
        {
          "components": [
            {
              "internalType": "uint256",
              "name": "forVotes",
              "type": "uint256"
            },
            {
              "internalType": "uint256",
              "name": "againstVotes",
              "type": "uint256"
            }
          ],
          "internalType": "struct GovernorCountingSimple.VoteCounts[]",
          "name": "proposalVoteCountsArrayReturn",
          "type": "tuple[]"
        }
      ],
      "stateMutability": "view",
      "type": "function"
    },
    {
      "inputs": [],
      "name": "cancel",
      "outputs": [],
      "stateMutability": "nonpayable",
      "type": "function"
    },
    {
      "inputs": [],
      "name": "canceled",
      "outputs": [
        {
          "internalType": "bool",
          "name": "",
          "type": "bool"
        }
      ],
      "stateMutability": "view",
      "type": "function"
    },
    {
      "inputs": [
        {
          "internalType": "uint256",
          "name": "proposalId",
          "type": "uint256"
        },
        {
          "internalType": "uint8",
          "name": "support",
          "type": "uint8"
        },
        {
          "internalType": "uint256",
          "name": "totalVotes",
          "type": "uint256"
        },
        {
          "internalType": "uint256",
          "name": "numVotes",
          "type": "uint256"
        },
        {
          "internalType": "bytes32[]",
          "name": "proof",
          "type": "bytes32[]"
        }
      ],
      "name": "castVote",
      "outputs": [
        {
          "internalType": "uint256",
          "name": "",
          "type": "uint256"
        }
      ],
      "stateMutability": "nonpayable",
      "type": "function"
    },
    {
      "inputs": [
        {
          "internalType": "uint256",
          "name": "proposalId",
          "type": "uint256"
        },
        {
          "internalType": "uint8",
          "name": "support",
          "type": "uint8"
        },
        {
          "internalType": "uint256",
          "name": "numVotes",
          "type": "uint256"
        }
      ],
      "name": "castVoteWithoutProof",
      "outputs": [
        {
          "internalType": "uint256",
          "name": "",
          "type": "uint256"
        }
      ],
      "stateMutability": "nonpayable",
      "type": "function"
    },
    {
      "inputs": [
        {
          "internalType": "address",
          "name": "addressToCheck",
          "type": "address"
        },
        {
          "internalType": "uint256",
          "name": "amount",
          "type": "uint256"
        },
        {
          "internalType": "bytes32[]",
          "name": "proof",
          "type": "bytes32[]"
        },
        {
          "internalType": "bool",
          "name": "voting",
          "type": "bool"
        }
      ],
      "name": "checkProof",
      "outputs": [
        {
          "internalType": "bool",
          "name": "verified",
          "type": "bool"
        }
      ],
      "stateMutability": "view",
      "type": "function"
    },
    {
      "inputs": [
        {
          "internalType": "address",
          "name": "userAddress",
          "type": "address"
        }
      ],
      "name": "contestAddressTotalVotesCast",
      "outputs": [
        {
          "internalType": "uint256",
          "name": "userTotalVotesCast",
          "type": "uint256"
        }
      ],
      "stateMutability": "view",
      "type": "function"
    },
    {
      "inputs": [],
      "name": "contestDeadline",
      "outputs": [
        {
          "internalType": "uint256",
          "name": "",
          "type": "uint256"
        }
      ],
      "stateMutability": "view",
      "type": "function"
    },
    {
      "inputs": [],
      "name": "contestStart",
      "outputs": [
        {
          "internalType": "uint256",
          "name": "",
          "type": "uint256"
        }
      ],
      "stateMutability": "view",
      "type": "function"
    },
    {
      "inputs": [],
      "name": "costToPropose",
      "outputs": [
        {
          "internalType": "uint256",
          "name": "",
          "type": "uint256"
        }
      ],
      "stateMutability": "view",
      "type": "function"
    },
    {
      "inputs": [],
      "name": "creator",
      "outputs": [
        {
          "internalType": "address",
          "name": "",
          "type": "address"
        }
      ],
      "stateMutability": "view",
      "type": "function"
    },
    {
      "inputs": [
        {
          "internalType": "uint256[]",
          "name": "proposalIdsToDelete",
          "type": "uint256[]"
        }
      ],
      "name": "deleteProposals",
      "outputs": [],
      "stateMutability": "nonpayable",
      "type": "function"
    },
    {
      "inputs": [
        {
          "internalType": "uint256",
          "name": "",
          "type": "uint256"
        }
      ],
      "name": "deletedProposalIds",
      "outputs": [
        {
          "internalType": "uint256",
          "name": "",
          "type": "uint256"
        }
      ],
      "stateMutability": "view",
      "type": "function"
    },
    {
      "inputs": [],
      "name": "downvotingAllowed",
      "outputs": [
        {
          "internalType": "uint256",
          "name": "",
          "type": "uint256"
        }
      ],
      "stateMutability": "view",
      "type": "function"
    },
    {
      "inputs": [
        {
          "internalType": "uint256",
          "name": "",
          "type": "uint256"
        },
        {
          "internalType": "uint256",
          "name": "",
          "type": "uint256"
        }
      ],
      "name": "forVotesToProposalIds",
      "outputs": [
        {
          "internalType": "uint256",
          "name": "",
          "type": "uint256"
        }
      ],
      "stateMutability": "view",
      "type": "function"
    },
    {
      "inputs": [],
      "name": "getAllAddressesThatHaveVoted",
      "outputs": [
        {
          "internalType": "address[]",
          "name": "",
          "type": "address[]"
        }
      ],
      "stateMutability": "view",
      "type": "function"
    },
    {
      "inputs": [],
      "name": "getAllDeletedProposalIds",
      "outputs": [
        {
          "internalType": "uint256[]",
          "name": "",
          "type": "uint256[]"
        }
      ],
      "stateMutability": "view",
      "type": "function"
    },
    {
      "inputs": [],
      "name": "getAllProposalAuthors",
      "outputs": [
        {
          "internalType": "address[]",
          "name": "",
          "type": "address[]"
        }
      ],
      "stateMutability": "view",
      "type": "function"
    },
    {
      "inputs": [],
      "name": "getAllProposalIds",
      "outputs": [
        {
          "internalType": "uint256[]",
          "name": "",
          "type": "uint256[]"
        }
      ],
      "stateMutability": "view",
      "type": "function"
    },
    {
      "inputs": [
        {
          "internalType": "uint256",
          "name": "forVotes",
          "type": "uint256"
        }
      ],
      "name": "getNumProposalsWithThisManyForVotes",
      "outputs": [
        {
          "internalType": "uint256",
          "name": "count",
          "type": "uint256"
        }
      ],
      "stateMutability": "view",
      "type": "function"
    },
    {
      "inputs": [
        {
          "internalType": "uint256",
          "name": "forVotes",
          "type": "uint256"
        }
      ],
      "name": "getOnlyProposalIdWithThisManyForVotes",
      "outputs": [
        {
          "internalType": "uint256",
          "name": "proposalId",
          "type": "uint256"
        }
      ],
      "stateMutability": "view",
      "type": "function"
    },
    {
      "inputs": [
        {
          "internalType": "uint256",
          "name": "proposalId",
          "type": "uint256"
        }
      ],
      "name": "getProposal",
      "outputs": [
        {
          "components": [
            {
              "internalType": "address",
              "name": "author",
              "type": "address"
            },
            {
              "internalType": "bool",
              "name": "exists",
              "type": "bool"
            },
            {
              "internalType": "string",
              "name": "description",
              "type": "string"
            },
            {
              "components": [
                {
                  "internalType": "address",
                  "name": "targetAddress",
                  "type": "address"
                }
              ],
              "internalType": "struct Governor.TargetMetadata",
              "name": "targetMetadata",
              "type": "tuple"
            },
            {
              "components": [
                {
                  "internalType": "address[]",
                  "name": "signers",
                  "type": "address[]"
                },
                {
                  "internalType": "uint256",
                  "name": "threshold",
                  "type": "uint256"
                }
              ],
              "internalType": "struct Governor.SafeMetadata",
              "name": "safeMetadata",
              "type": "tuple"
            }
          ],
          "internalType": "struct Governor.ProposalCore",
          "name": "",
          "type": "tuple"
        }
      ],
      "stateMutability": "view",
      "type": "function"
    },
    {
      "inputs": [
        {
          "internalType": "uint256",
          "name": "rank",
          "type": "uint256"
        }
      ],
      "name": "getRankIndex",
      "outputs": [
        {
          "internalType": "uint256",
          "name": "rankIndex",
          "type": "uint256"
        }
      ],
      "stateMutability": "view",
      "type": "function"
    },
    {
      "inputs": [],
      "name": "getSortedRanks",
      "outputs": [
        {
          "internalType": "uint256[]",
          "name": "sortedRanksArray",
          "type": "uint256[]"
        }
      ],
      "stateMutability": "view",
      "type": "function"
    },
    {
      "inputs": [
        {
          "components": [
            {
              "internalType": "address",
              "name": "author",
              "type": "address"
            },
            {
              "internalType": "bool",
              "name": "exists",
              "type": "bool"
            },
            {
              "internalType": "string",
              "name": "description",
              "type": "string"
            },
            {
              "components": [
                {
                  "internalType": "address",
                  "name": "targetAddress",
                  "type": "address"
                }
              ],
              "internalType": "struct Governor.TargetMetadata",
              "name": "targetMetadata",
              "type": "tuple"
            },
            {
              "components": [
                {
                  "internalType": "address[]",
                  "name": "signers",
                  "type": "address[]"
                },
                {
                  "internalType": "uint256",
                  "name": "threshold",
                  "type": "uint256"
                }
              ],
              "internalType": "struct Governor.SafeMetadata",
              "name": "safeMetadata",
              "type": "tuple"
            }
          ],
          "internalType": "struct Governor.ProposalCore",
          "name": "proposal",
          "type": "tuple"
        }
      ],
      "name": "hashProposal",
      "outputs": [
        {
          "internalType": "uint256",
          "name": "",
          "type": "uint256"
        }
      ],
      "stateMutability": "pure",
      "type": "function"
    },
    {
      "inputs": [
        {
          "internalType": "uint256",
          "name": "idx",
          "type": "uint256"
        }
      ],
      "name": "isOrIsBelowTiedRank",
      "outputs": [
        {
          "internalType": "bool",
          "name": "atOrBelowTiedRank",
          "type": "bool"
        }
      ],
      "stateMutability": "view",
      "type": "function"
    },
    {
      "inputs": [],
      "name": "maxProposalCount",
      "outputs": [
        {
          "internalType": "uint256",
          "name": "",
          "type": "uint256"
        }
      ],
      "stateMutability": "view",
      "type": "function"
    },
    {
      "inputs": [],
      "name": "name",
      "outputs": [
        {
          "internalType": "string",
          "name": "",
          "type": "string"
        }
      ],
      "stateMutability": "view",
      "type": "function"
    },
    {
      "inputs": [],
      "name": "numAllowedProposalSubmissions",
      "outputs": [
        {
          "internalType": "uint256",
          "name": "",
          "type": "uint256"
        }
      ],
      "stateMutability": "view",
      "type": "function"
    },
    {
      "inputs": [
        {
          "internalType": "address",
          "name": "",
          "type": "address"
        }
      ],
      "name": "numSubmissions",
      "outputs": [
        {
          "internalType": "uint256",
          "name": "",
          "type": "uint256"
        }
      ],
      "stateMutability": "view",
      "type": "function"
    },
    {
      "inputs": [],
      "name": "officialRewardsModule",
      "outputs": [
        {
          "internalType": "contract RewardsModule",
          "name": "",
          "type": "address"
        }
      ],
      "stateMutability": "view",
      "type": "function"
    },
    {
      "inputs": [],
      "name": "percentageToCreator",
      "outputs": [
        {
          "internalType": "uint256",
          "name": "",
          "type": "uint256"
        }
      ],
      "stateMutability": "view",
      "type": "function"
    },
    {
      "inputs": [],
      "name": "prompt",
      "outputs": [
        {
          "internalType": "string",
          "name": "",
          "type": "string"
        }
      ],
      "stateMutability": "view",
      "type": "function"
    },
    {
      "inputs": [
        {
          "internalType": "uint256",
          "name": "proposalId",
          "type": "uint256"
        },
        {
          "internalType": "address",
          "name": "userAddress",
          "type": "address"
        }
      ],
      "name": "proposalAddressVotes",
      "outputs": [
        {
          "internalType": "uint256",
          "name": "forVotes",
          "type": "uint256"
        },
        {
          "internalType": "uint256",
          "name": "againstVotes",
          "type": "uint256"
        }
      ],
      "stateMutability": "view",
      "type": "function"
    },
    {
      "inputs": [
        {
          "internalType": "uint256",
          "name": "proposalId",
          "type": "uint256"
        }
      ],
      "name": "proposalAddressesHaveVoted",
      "outputs": [
        {
          "internalType": "address[]",
          "name": "",
          "type": "address[]"
        }
      ],
      "stateMutability": "view",
      "type": "function"
    },
    {
      "inputs": [
        {
          "internalType": "uint256",
          "name": "",
          "type": "uint256"
        }
      ],
      "name": "proposalAuthors",
      "outputs": [
        {
          "internalType": "address",
          "name": "",
          "type": "address"
        }
      ],
      "stateMutability": "view",
      "type": "function"
    },
    {
      "inputs": [
        {
          "internalType": "uint256",
          "name": "",
          "type": "uint256"
        }
      ],
      "name": "proposalIds",
      "outputs": [
        {
          "internalType": "uint256",
          "name": "",
          "type": "uint256"
        }
      ],
      "stateMutability": "view",
      "type": "function"
    },
    {
      "inputs": [
        {
          "internalType": "uint256",
          "name": "",
          "type": "uint256"
        }
      ],
      "name": "proposalIsDeleted",
      "outputs": [
        {
          "internalType": "bool",
          "name": "",
          "type": "bool"
        }
      ],
      "stateMutability": "view",
      "type": "function"
    },
    {
      "inputs": [
        {
          "internalType": "uint256",
          "name": "proposalId",
          "type": "uint256"
        }
      ],
      "name": "proposalVotes",
      "outputs": [
        {
          "internalType": "uint256",
          "name": "forVotes",
          "type": "uint256"
        },
        {
          "internalType": "uint256",
          "name": "againstVotes",
          "type": "uint256"
        }
      ],
      "stateMutability": "view",
      "type": "function"
    },
    {
      "inputs": [
        {
          "internalType": "uint256",
          "name": "",
          "type": "uint256"
        }
      ],
      "name": "proposalVotesStructs",
      "outputs": [
        {
          "components": [
            {
              "internalType": "uint256",
              "name": "forVotes",
              "type": "uint256"
            },
            {
              "internalType": "uint256",
              "name": "againstVotes",
              "type": "uint256"
            }
          ],
          "internalType": "struct GovernorCountingSimple.VoteCounts",
          "name": "proposalVoteCounts",
          "type": "tuple"
        }
      ],
      "stateMutability": "view",
      "type": "function"
    },
    {
      "inputs": [
        {
          "internalType": "uint256",
          "name": "",
          "type": "uint256"
        }
      ],
      "name": "proposals",
      "outputs": [
        {
          "internalType": "address",
          "name": "author",
          "type": "address"
        },
        {
          "internalType": "bool",
          "name": "exists",
          "type": "bool"
        },
        {
          "internalType": "string",
          "name": "description",
          "type": "string"
        },
        {
          "components": [
            {
              "internalType": "address",
              "name": "targetAddress",
              "type": "address"
            }
          ],
          "internalType": "struct Governor.TargetMetadata",
          "name": "targetMetadata",
          "type": "tuple"
        },
        {
          "components": [
            {
              "internalType": "address[]",
              "name": "signers",
              "type": "address[]"
            },
            {
              "internalType": "uint256",
              "name": "threshold",
              "type": "uint256"
            }
          ],
          "internalType": "struct Governor.SafeMetadata",
          "name": "safeMetadata",
          "type": "tuple"
        }
      ],
      "stateMutability": "view",
      "type": "function"
    },
    {
      "inputs": [
        {
          "components": [
            {
              "internalType": "address",
              "name": "author",
              "type": "address"
            },
            {
              "internalType": "bool",
              "name": "exists",
              "type": "bool"
            },
            {
              "internalType": "string",
              "name": "description",
              "type": "string"
            },
            {
              "components": [
                {
                  "internalType": "address",
                  "name": "targetAddress",
                  "type": "address"
                }
              ],
              "internalType": "struct Governor.TargetMetadata",
              "name": "targetMetadata",
              "type": "tuple"
            },
            {
              "components": [
                {
                  "internalType": "address[]",
                  "name": "signers",
                  "type": "address[]"
                },
                {
                  "internalType": "uint256",
                  "name": "threshold",
                  "type": "uint256"
                }
              ],
              "internalType": "struct Governor.SafeMetadata",
              "name": "safeMetadata",
              "type": "tuple"
            }
          ],
          "internalType": "struct Governor.ProposalCore",
          "name": "proposal",
          "type": "tuple"
        },
        {
          "internalType": "bytes32[]",
          "name": "proof",
          "type": "bytes32[]"
        }
      ],
      "name": "propose",
      "outputs": [
        {
          "internalType": "uint256",
          "name": "",
          "type": "uint256"
        }
      ],
      "stateMutability": "payable",
      "type": "function"
    },
    {
      "inputs": [
        {
          "components": [
            {
              "internalType": "address",
              "name": "author",
              "type": "address"
            },
            {
              "internalType": "bool",
              "name": "exists",
              "type": "bool"
            },
            {
              "internalType": "string",
              "name": "description",
              "type": "string"
            },
            {
              "components": [
                {
                  "internalType": "address",
                  "name": "targetAddress",
                  "type": "address"
                }
              ],
              "internalType": "struct Governor.TargetMetadata",
              "name": "targetMetadata",
              "type": "tuple"
            },
            {
              "components": [
                {
                  "internalType": "address[]",
                  "name": "signers",
                  "type": "address[]"
                },
                {
                  "internalType": "uint256",
                  "name": "threshold",
                  "type": "uint256"
                }
              ],
              "internalType": "struct Governor.SafeMetadata",
              "name": "safeMetadata",
              "type": "tuple"
            }
          ],
          "internalType": "struct Governor.ProposalCore",
          "name": "proposal",
          "type": "tuple"
        }
      ],
      "name": "proposeWithoutProof",
      "outputs": [
        {
          "internalType": "uint256",
          "name": "",
          "type": "uint256"
        }
      ],
      "stateMutability": "payable",
      "type": "function"
    },
    {
      "inputs": [],
      "name": "rankLimit",
      "outputs": [
        {
          "internalType": "uint256",
          "name": "",
          "type": "uint256"
        }
      ],
      "stateMutability": "view",
      "type": "function"
    },
    {
      "inputs": [
        {
          "internalType": "contract RewardsModule",
          "name": "officialRewardsModule_",
          "type": "address"
        }
      ],
      "name": "setOfficialRewardsModule",
      "outputs": [],
      "stateMutability": "nonpayable",
      "type": "function"
    },
    {
      "inputs": [
        {
          "internalType": "uint256",
          "name": "",
          "type": "uint256"
        }
      ],
      "name": "sortedRanks",
      "outputs": [
        {
          "internalType": "uint256",
          "name": "",
          "type": "uint256"
        }
      ],
      "stateMutability": "view",
      "type": "function"
    },
    {
      "inputs": [],
      "name": "sortingEnabled",
      "outputs": [
        {
          "internalType": "uint256",
          "name": "",
          "type": "uint256"
        }
      ],
      "stateMutability": "view",
      "type": "function"
    },
    {
      "inputs": [],
      "name": "state",
      "outputs": [
        {
          "internalType": "enum Governor.ContestState",
          "name": "",
          "type": "uint8"
        }
      ],
      "stateMutability": "view",
      "type": "function"
    },
    {
      "inputs": [],
      "name": "submissionMerkleRoot",
      "outputs": [
        {
          "internalType": "bytes32",
          "name": "",
          "type": "bytes32"
        }
      ],
      "stateMutability": "view",
      "type": "function"
    },
    {
      "inputs": [],
      "name": "totalVotesCast",
      "outputs": [
        {
          "internalType": "uint256",
          "name": "",
          "type": "uint256"
        }
      ],
      "stateMutability": "view",
      "type": "function"
    },
    {
      "inputs": [
        {
          "components": [
            {
              "internalType": "address",
              "name": "author",
              "type": "address"
            },
            {
              "internalType": "bool",
              "name": "exists",
              "type": "bool"
            },
            {
              "internalType": "string",
              "name": "description",
              "type": "string"
            },
            {
              "components": [
                {
                  "internalType": "address",
                  "name": "targetAddress",
                  "type": "address"
                }
              ],
              "internalType": "struct Governor.TargetMetadata",
              "name": "targetMetadata",
              "type": "tuple"
            },
            {
              "components": [
                {
                  "internalType": "address[]",
                  "name": "signers",
                  "type": "address[]"
                },
                {
                  "internalType": "uint256",
                  "name": "threshold",
                  "type": "uint256"
                }
              ],
              "internalType": "struct Governor.SafeMetadata",
              "name": "safeMetadata",
              "type": "tuple"
            }
          ],
          "internalType": "struct Governor.ProposalCore",
          "name": "proposal",
          "type": "tuple"
        }
      ],
      "name": "validateProposalData",
      "outputs": [],
      "stateMutability": "view",
      "type": "function"
    },
    {
      "inputs": [
        {
          "internalType": "address",
          "name": "account",
          "type": "address"
        },
        {
          "internalType": "bytes32[]",
          "name": "proof",
          "type": "bytes32[]"
        }
      ],
      "name": "verifyProposer",
      "outputs": [],
      "stateMutability": "nonpayable",
      "type": "function"
    },
    {
      "inputs": [
        {
          "internalType": "address",
          "name": "account",
          "type": "address"
        },
        {
          "internalType": "uint256",
          "name": "totalVotes",
          "type": "uint256"
        },
        {
          "internalType": "bytes32[]",
          "name": "proof",
          "type": "bytes32[]"
        }
      ],
      "name": "verifyVoter",
      "outputs": [],
      "stateMutability": "nonpayable",
      "type": "function"
    },
    {
      "inputs": [],
      "name": "version",
      "outputs": [
        {
          "internalType": "string",
          "name": "",
          "type": "string"
        }
      ],
      "stateMutability": "pure",
      "type": "function"
    },
    {
      "inputs": [],
      "name": "voteStart",
      "outputs": [
        {
          "internalType": "uint256",
          "name": "",
          "type": "uint256"
        }
      ],
      "stateMutability": "view",
      "type": "function"
    },
    {
      "inputs": [],
      "name": "votingDelay",
      "outputs": [
        {
          "internalType": "uint256",
          "name": "",
          "type": "uint256"
        }
      ],
      "stateMutability": "view",
      "type": "function"
    },
    {
      "inputs": [],
      "name": "votingMerkleRoot",
      "outputs": [
        {
          "internalType": "bytes32",
          "name": "",
          "type": "bytes32"
        }
      ],
      "stateMutability": "view",
      "type": "function"
    },
    {
      "inputs": [],
      "name": "votingPeriod",
      "outputs": [
        {
          "internalType": "uint256",
          "name": "",
          "type": "uint256"
        }
      ],
      "stateMutability": "view",
      "type": "function"
    }
  ],
  "bytecode": {
    "object": "0x6101006040523480156200001257600080fd5b50604051620042473803806200424783398101604081905262000035916200030c565b84848484846000815181106200004f576200004f6200041d565b6020026020010151856001815181106200006d576200006d6200041d565b6020026020010151866002815181106200008b576200008b6200041d565b602002602001015187600381518110620000a957620000a96200041d565b602002602001015188600481518110620000c757620000c76200041d565b602002602001015189600581518110620000e557620000e56200041d565b60200260200101518a6006815181106200010357620001036200041d565b60200260200101518b6007815181106200012157620001216200041d565b602002602001015189898e6008815181106200014157620001416200041d565b60200260200101518f6009815181106200015f576200015f6200041d565b602090810291909101015160809190915260a05260c09190915260e05260016200018a8d82620004c2565b506002620001998c82620004c2565b50600380546001600160a01b03191633908117909155600489905560058890556006879055600786905560088590556009849055600a839055600b8290556040517f1eae03a78f765227bc1e8574db32390cefa5b3c0a954017973e497e40a123734916200020a918f91906200058e565b60405180910390a15050505050505050505050505050505050620005d4565b634e487b7160e01b600052604160045260246000fd5b604051601f8201601f191681016001600160401b03811182821017156200026a576200026a62000229565b604052919050565b60005b838110156200028f57818101518382015260200162000275565b50506000910152565b600082601f830112620002aa57600080fd5b81516001600160401b03811115620002c657620002c662000229565b620002db601f8201601f19166020016200023f565b818152846020838601011115620002f157600080fd5b6200030482602083016020870162000272565b949350505050565b600080600080600060a086880312156200032557600080fd5b85516001600160401b03808211156200033d57600080fd5b6200034b89838a0162000298565b96506020915081880151818111156200036357600080fd5b620003718a828b0162000298565b96505060408801519450606088015193506080880151818111156200039557600080fd5b8801601f81018a13620003a757600080fd5b805182811115620003bc57620003bc62000229565b8060051b9250620003cf8484016200023f565b818152928201840192848101908c851115620003ea57600080fd5b928501925b848410156200040a57835182529285019290850190620003ef565b8096505050505050509295509295909350565b634e487b7160e01b600052603260045260246000fd5b600181811c908216806200044857607f821691505b6020821081036200046957634e487b7160e01b600052602260045260246000fd5b50919050565b601f821115620004bd57600081815260208120601f850160051c81016020861015620004985750805b601f850160051c820191505b81811015620004b957828155600101620004a4565b5050505b505050565b81516001600160401b03811115620004de57620004de62000229565b620004f681620004ef845462000433565b846200046f565b602080601f8311600181146200052e5760008415620005155750858301515b600019600386901b1c1916600185901b178555620004b9565b600085815260208120601f198616915b828110156200055f578886015182559484019460019091019084016200053e565b50858210156200057e5787850151600019600388901b60f8161c191681555b5050505050600190811b01905550565b6040815260008351806040840152620005af81606085016020880162000272565b6001600160a01b0393909316602083015250601f91909101601f191601606001919050565b60805160a05160c05160e051613c016200064660003960008181610b94015261117d015260008181610ab901528181610fa10152818161111801526112950152600081816104a201528181612ce50152612ec301526000818161067001528181611f38015261292b0152613c016000f3fe6080604052600436106103e35760003560e01c80636fd3636b11610208578063c0ffaa7811610118578063ea8a1af0116100ab578063f0a7db0a1161007a578063f0a7db0a14610c60578063f4f3d7ec14610c80578063f79c017214610ca0578063fb8ddab414610cd0578063fb9bf8d414610cf057600080fd5b8063ea8a1af014610bf8578063edcd1be414610c0d578063eef18e1714610c23578063efa90d3614610c4b57600080fd5b8063d45a010b116100e7578063d45a010b14610b6d578063dd96a19d14610b82578063dea5f6a614610bb6578063e031535b14610be357600080fd5b8063c0ffaa7814610adb578063c19d93fb14610aee578063c7f758a814610b10578063cb85395014610b3d57600080fd5b8063930de9791161019b578063a1ac6cb21161016a578063a1ac6cb214610a04578063aec116b614610a31578063b323580d14610a67578063b66d1da314610a87578063bddc164114610aa757600080fd5b8063930de97914610972578063946369b5146109a25780639b644a23146109b75780639ba197af146109d757600080fd5b80637c65d711116101d75780637c65d711146109115780637de418d514610926578063832009af1461093c5780639174778c1461095257600080fd5b80636fd3636b1461088f578063711effc8146108a457806375e509c5146108c4578063785ddfe5146108f157600080fd5b8063366ecf5b1161030357806350c4b616116102965780635c7107d8116102655780635c7107d81461080357806360506ff61461082357806365f16263146108395780636e4eb810146108595780636ed815ad1461087957600080fd5b806350c4b6161461074d578063531bd8121461076d578063544ffc9c1461078d57806354fd4d50146107d757600080fd5b8063458da87d116102d2578063458da87d146106e2578063476f4d8a146107025780634d24a67f1461071557806350a5e5241461072a57600080fd5b8063366ecf5b1461065e5780633932abb1146106925780633f9942ff146106a8578063419c533c146106c257600080fd5b80630aa25e441161037b5780632c39805f1161034a5780632c39805f146105d0578063325cc6d9146105f257806332763c2214610612578063347cf6651461064257600080fd5b80630aa25e44146105575780631242b7371461057757806320b3e84514610599578063262e59e9146105bb57600080fd5b80630414126a116103b75780630414126a1461049057806305846cae146104c457806306fdde03146104e4578063070dc5d91461050657600080fd5b80624114a8146103e8578063013cf08b1461041157806302a251a31461044257806302d05d3f14610458575b600080fd5b3480156103f457600080fd5b506103fe60045481565b6040519081526020015b60405180910390f35b34801561041d57600080fd5b5061043161042c36600461303c565b610d06565b6040516104089594939291906130f4565b34801561044e57600080fd5b506103fe60065481565b34801561046457600080fd5b50600354610478906001600160a01b031681565b6040516001600160a01b039091168152602001610408565b34801561049c57600080fd5b506103fe7f000000000000000000000000000000000000000000000000000000000000000081565b3480156104d057600080fd5b506103fe6104df36600461303c565b610e4e565b3480156104f057600080fd5b506104f9610e6f565b6040516104089190613146565b34801561051257600080fd5b5061054a61052136600461303c565b601960209081526000918252604091829020825180840190935280548352600101549082015281565b6040516104089190613159565b34801561056357600080fd5b5061047861057236600461303c565b610efd565b34801561058357600080fd5b5061058c610f27565b60405161040891906131ab565b3480156105a557600080fd5b506105b96105b4366004613217565b610f7f565b005b3480156105c757600080fd5b506103fe61100c565b3480156105dc57600080fd5b506105e5611028565b604051610408919061326b565b3480156105fe57600080fd5b506103fe61060d36600461303c565b611089565b34801561061e57600080fd5b5061063261062d3660046132cd565b611099565b6040519015158152602001610408565b34801561064e57600080fd5b506103fe678ac7230489e8000081565b34801561066a57600080fd5b506103fe7f000000000000000000000000000000000000000000000000000000000000000081565b34801561069e57600080fd5b506103fe60055481565b3480156106b457600080fd5b50600f546106329060ff1681565b3480156106ce57600080fd5b506103fe6106dd36600461334e565b6111d6565b3480156106ee57600080fd5b506103fe6106fd36600461365a565b61122c565b6103fe6107103660046136a6565b61125d565b34801561072157600080fd5b506103fe611318565b34801561073657600080fd5b5061073f611326565b6040516104089291906136da565b34801561075957600080fd5b5061047861076836600461303c565b61142c565b34801561077957600080fd5b506105b9610788366004613743565b61143c565b34801561079957600080fd5b506107c26107a836600461303c565b600090815260196020526040902080546001909101549091565b60408051928352602083019190915201610408565b3480156107e357600080fd5b50604080518082019091526003815262342e3760e81b60208201526104f9565b34801561080f57600080fd5b506103fe61081e36600461303c565b6114a2565b34801561082f57600080fd5b506103fe60095481565b34801561084557600080fd5b506103fe61085436600461379e565b6115a9565b34801561086557600080fd5b506107c26108743660046137d3565b611629565b34801561088557600080fd5b506103fe600a5481565b34801561089b57600080fd5b5061058c61165e565b3480156108b057600080fd5b506103fe6108bf366004613803565b6116b4565b3480156108d057600080fd5b506103fe6108df366004613825565b60116020526000908152604090205481565b3480156108fd57600080fd5b50601b54610478906001600160a01b031681565b34801561091d57600080fd5b506104f96116e5565b34801561093257600080fd5b506103fe60175481565b34801561094857600080fd5b506103fe60075481565b34801561095e57600080fd5b5061063261096d36600461303c565b6116f2565b34801561097e57600080fd5b5061063261098d366004613825565b60156020526000908152604090205460ff1681565b3480156109ae57600080fd5b506105e5611796565b3480156109c357600080fd5b506103fe6109d236600461303c565b6117f6565b3480156109e357600080fd5b506103fe6109f236600461303c565b6000908152601a602052604090205490565b348015610a1057600080fd5b506103fe610a1f366004613825565b60186020526000908152604090205481565b348015610a3d57600080fd5b506103fe610a4c366004613825565b6001600160a01b031660009081526018602052604090205490565b348015610a7357600080fd5b506105e5610a8236600461303c565b611806565b348015610a9357600080fd5b506103fe610aa236600461303c565b611878565b348015610ab357600080fd5b506103fe7f000000000000000000000000000000000000000000000000000000000000000081565b6103fe610ae9366004613842565b6118d8565b348015610afa57600080fd5b50610b03611940565b60405161040891906138b3565b348015610b1c57600080fd5b50610b30610b2b36600461303c565b611991565b60405161040891906138cd565b348015610b4957600080fd5b50610632610b58366004613825565b60166020526000908152604090205460ff1681565b348015610b7957600080fd5b5061073f611b0b565b348015610b8e57600080fd5b506103fe7f000000000000000000000000000000000000000000000000000000000000000081565b348015610bc257600080fd5b506103fe610bd1366004613825565b60146020526000908152604090205481565b348015610bef57600080fd5b506103fe611cd8565b348015610c0457600080fd5b506105b9611cea565b348015610c1957600080fd5b506103fe600b5481565b348015610c2f57600080fd5b5061047873dc652c746a8f85e18ce632d97c6118e8a52fa73881565b348015610c5757600080fd5b5061058c611de0565b348015610c6c57600080fd5b506105b9610c7b366004613934565b611e36565b348015610c8c57600080fd5b506105b9610c9b366004613825565b611fba565b348015610cac57600080fd5b50610632610cbb36600461303c565b600e6020526000908152604090205460ff1681565b348015610cdc57600080fd5b506105b9610ceb36600461365a565b61203f565b348015610cfc57600080fd5b506103fe60085481565b601060205260009081526040902080546001820180546001600160a01b03831693600160a01b90930460ff16929190610d3e90613975565b80601f0160208091040260200160405190810160405280929190818152602001828054610d6a90613975565b8015610db75780601f10610d8c57610100808354040283529160200191610db7565b820191906000526020600020905b815481529060010190602001808311610d9a57829003601f168201915b5050604080516020808201835260028801546001600160a01b031682528251600389018054606093810283018401865294820185815298999398939750909550935084928491840182828015610e3657602002820191906000526020600020905b81546001600160a01b03168152600190910190602001808311610e18575b50505050508152602001600182015481525050905085565b600d8181548110610e5e57600080fd5b600091825260209091200154905081565b60018054610e7c90613975565b80601f0160208091040260200160405190810160405280929190818152602001828054610ea890613975565b8015610ef55780601f10610eca57610100808354040283529160200191610ef5565b820191906000526020600020905b815481529060010190602001808311610ed857829003601f168201915b505050505081565b60128181548110610f0d57600080fd5b6000918252602090912001546001600160a01b0316905081565b6060600d805480602002602001604051908101604052809291908181526020018280548015610f7557602002820191906000526020600020905b815481526020019060010190808311610f61575b5050505050905090565b6001600160a01b03831660009081526016602052604090205460ff16611007577f0000000000000000000000000000000000000000000000000000000000000000600003610fcc57505050565b610fe283678ac7230489e8000084846000611099565b506001600160a01b0383166000908152601660205260409020805460ff191660011790555b505050565b6000600654611019611cd8565b61102391906139bf565b905090565b60606013805480602002602001604051908101604052809291908181526020018280548015610f7557602002820191906000526020600020905b81546001600160a01b03168152600190910190602001808311611062575050505050905090565b60008181548110610e5e57600080fd5b6040516bffffffffffffffffffffffff19606087901b166020820152603481018590526000908190605401604051602081830303815290604052805190602001209050600083611148576111438686808060200260200160405190810160405280939291908181526020018383602002808284376000920191909152507f0000000000000000000000000000000000000000000000000000000000000000925086915061218e9050565b6111a8565b6111a88686808060200260200160405190810160405280939291908181526020018383602002808284376000920191909152507f0000000000000000000000000000000000000000000000000000000000000000925086915061218e9050565b9050806111c85760405163452c2df160e11b815260040160405180910390fd5b506001979650505050505050565b6000868152600e6020526040812054339060ff1615611208576040516358f1119560e01b815260040160405180910390fd5b6112148187868661143c565b611220888289886121a4565b98975050505050505050565b60008160405160200161123f91906138cd565b60408051601f19818403018152919052805160209091012092915050565b6000600a54341461129357600a546040516380a7af9f60e01b815234600482015260248101919091526044015b60405180910390fd5b7f0000000000000000000000000000000000000000000000000000000000000000156112e9573360009081526016602052604090205460ff166112e957604051631f22097560e01b815260040160405180910390fd5b6112f5610ceb836139d2565b6000611308611303846139d2565b6122eb565b9050611312612566565b92915050565b6113236001806139bf565b81565b6060806000611333611de0565b9050600081516001600160401b03811115611350576113506133be565b60405190808252806020026020018201604052801561139557816020015b604080518082019091526000808252602082015281526020019060019003908161136e5790505b50905060005b825181101561142257601960008483815181106113ba576113ba6139de565b6020026020010151815260200190815260200160002060000160405180604001604052908160008201548152602001600182015481525050828281518110611404576114046139de565b6020026020010181905250808061141a906139f4565b91505061139b565b5090939092509050565b60138181548110610f0d57600080fd5b6001600160a01b03841660009081526015602052604090205460ff1661149c5761146a848484846001611099565b506001600160a01b038416600090815260146020908152604080832086905560159091529020805460ff191660011790555b50505050565b6000816000036114c557604051630ec90a1760e31b815260040160405180910390fd5b6000805460408051602080840282018101909252828152919291908290849083018282801561151357602002820191906000526020600020905b8154815260200190600101908083116114ff575b5050505050905060006001905060005b8381101561158f5761155a838281518110611540576115406139de565b60200260200101516000908152601a602052604090205490565b1561157d5785820361156f5795945050505050565b81611579816139f4565b9250505b80611587816139f4565b915050611523565b50604051632cc2ab7360e11b815260040160405180910390fd5b6000838152600e6020526040812054339060ff16156115db576040516358f1119560e01b815260040160405180910390fd5b6001600160a01b03811660009081526015602052604090205460ff166116145760405163126ec6d160e31b815260040160405180910390fd5b611620858286866121a4565b95945050505050565b60008281526019602090815260408083206001600160a01b0385168452600301909152902080546001909101545b9250929050565b60606000805480602002602001604051908101604052809291908181526020018280548015610f755760200282019190600052602060002090815481526020019060010190808311610f61575050505050905090565b601a60205281600052604060002081815481106116d057600080fd5b90600052602060002001600091509150505481565b60028054610e7c90613975565b6000805461170290600190613a0d565b821115611722576040516365d6f35160e11b815260040160405180910390fd5b60005b6117308360016139bf565b81101561178d57600161176c6000838154811061174f5761174f6139de565b90600052602060002001546000908152601a602052604090205490565b111561177b5750600192915050565b80611785816139f4565b915050611725565b50600092915050565b60606012805480602002602001604051908101604052809291908181526020018280548015610f75576020028201919060005260206000209081546001600160a01b03168152600190910190602001808311611062575050505050905090565b600c8181548110610e5e57600080fd5b600081815260196020908152604091829020600281018054845181850281018501909552808552606094929383018282801561186b57602002820191906000526020600020905b81546001600160a01b0316815260019091019060200180831161184d575b5050505050915050919050565b6000818152601a60205260408120546001146118a757604051633832a15560e21b815260040160405180910390fd5b6000828152601a6020526040812080549091906118c6576118c66139de565b90600052602060002001549050919050565b6000600a54341461190957600a546040516380a7af9f60e01b8152346004820152602481019190915260440161128a565b611914338484610f7f565b611920610ceb856139d2565b600061192e611303866139d2565b9050611938612566565b949350505050565b600f5460009060ff16156119545750600290565b42600454106119635750600090565b4261196c611cd8565b106119775750600390565b4261198061100c565b1061198b5750600190565b50600490565b611999612f51565b600082815260106020908152604091829020825160a08101845281546001600160a01b0381168252600160a01b900460ff1615159281019290925260018101805492939192918401916119eb90613975565b80601f0160208091040260200160405190810160405280929190818152602001828054611a1790613975565b8015611a645780601f10611a3957610100808354040283529160200191611a64565b820191906000526020600020905b815481529060010190602001808311611a4757829003601f168201915b5050509183525050604080516020818101835260028501546001600160a01b03168252808401919091528151600385018054606093810283018401855282850181815294909501949193909284928491840182828015611aed57602002820191906000526020600020905b81546001600160a01b03168152600190910190602001808311611acf575b50505050508152602001600182015481525050815250509050919050565b6060806000611b18611de0565b9050600081516001600160401b03811115611b3557611b356133be565b604051908082528060200260200182016040528015611b5e578160200160208202803683370190505b509050600082516001600160401b03811115611b7c57611b7c6133be565b604051908082528060200260200182016040528015611bc157816020015b6040805180820190915260008082526020820152815260200190600190039081611b9a5790505b5090506000805b8451811015611ccc57600e6000868381518110611be757611be76139de565b60209081029190910181015182528101919091526040016000205460ff16611cba57848181518110611c1b57611c1b6139de565b6020026020010151848381518110611c3557611c356139de565b60200260200101818152505060196000868381518110611c5757611c576139de565b6020026020010151815260200190815260200160002060000160405180604001604052908160008201548152602001600182015481525050838381518110611ca157611ca16139de565b6020908102919091010152611cb76001836139bf565b91505b80611cc4816139f4565b915050611bc8565b50919590945092505050565b600060055460045461102391906139bf565b6003546001600160a01b03163314801590611d1957503373dc652c746a8f85e18ce632d97c6118e8a52fa73814155b15611d37576040516301dbf46f60e71b815260040160405180910390fd5b6000611d41611940565b90506002816004811115611d5757611d5761389d565b03611d7557604051633c30acbf60e01b815260040160405180910390fd5b6004816004811115611d8957611d8961389d565b03611da7576040516307b9d0f760e01b815260040160405180910390fd5b600f805460ff191660011790556040517f4cd963a081760a54f571abc0f1db4dde31b4a07d8d6da3e844b8c6f47eeaaa4290600090a150565b6060600c805480602002602001604051908101604052809291908181526020018280548015610f755760200282019190600052602060002090815481526020019060010190808311610f61575050505050905090565b6003546001600160a01b03163314611e615760405163b8d4540960e01b815260040160405180910390fd5b6004611e6b611940565b6004811115611e7c57611e7c61389d565b03611e9a576040516331da1c8b60e11b815260040160405180910390fd5b60005b81811015611f7d576000838383818110611eb957611eb96139de565b602090810292909201356000818152600e9093526040909220549192505060ff16611f6a576000818152600e60205260408120805460ff19166001908117909155600d805491820181559091527fd7b6990105719101dabeb77144f2a3385c8033acd3af97e9423a695e81ad1eb501819055600954158015611f5b57507f00000000000000000000000000000000000000000000000000000000000000006001145b15611f6a57611f6a848461267b565b5080611f75816139f4565b915050611e9d565b507f75a75cf5c561892f4cc5b26c1b8e933849b42238c96dd073d080d1ae96c51416600c604051611fae9190613a20565b60405180910390a15050565b6003546001600160a01b03163314611fe557604051630f4cb1bd60e11b815260040160405180910390fd5b601b80546001600160a01b038381166001600160a01b031983168117909355604080519190921680825260208201939093527f753a2cf8d360cff631674504210913e48247f8e56b3e6d2006c2103d4095999f9101611fae565b80516001600160a01b0316331461207d57805160405163fbbf4d7f60e01b81526001600160a01b03909116600482015233602482015260440161128a565b60005b61208b6001806139bf565b8110156121645760008160018111156120a6576120a661389d565b905060008160018111156120bc576120bc61389d565b036120c75750612152565b60018160018111156120db576120db61389d565b0361213557608083015151516000036121075760405163c3b2798b60e01b815260040160405180910390fd5b826080015160200151600003612130576040516392fb9a3560e01b815260040160405180910390fd5b612150565b8060405163d2277d4960e01b815260040161128a9190613a5b565b505b8061215c816139f4565b915050612080565b5080604001515160000361218b5760405163e182473360e01b815260040160405180910390fd5b50565b60008261219b85846126d8565b14949350505050565b600060016121b0611940565b60048111156121c1576121c161389d565b146121e8576121ce611940565b60405163049cab4960e51b815260040161128a91906138b3565b816000036122095760405163502e1c2960e01b815260040160405180910390fd5b61223b85858585601460008a6001600160a01b03166001600160a01b0316815260200190815260200160002054612725565b601380546001810182556000919091527f66de8ffda797e3de9c05e8fc57b3bf0ec28a930d40b0d285d93c06501cf6a0900180546001600160a01b031916331790556040805186815260ff851660208201529081018390526001600160a01b038516907f2c9deb38f462962eadbd85a9d3a4120503ee091f1582eaaa10aa8c6797651d299060600160405180910390a25050506001600160a01b0316600090815260146020526040902054919050565b600060036122f7611940565b60048111156123085761230861389d565b1461232f57612315611940565b604051632889531360e01b815260040161128a91906138b3565b600754336000908152601160205260409020540361236657600754604051632bd6d93960e21b815260040161128a91815260200190565b600854600d54600c546123799190613a0d565b0361239d576008546040516302217f5360e51b815260040161128a91815260200190565b60006123a88361122c565b600081815260106020526040902054909150600160a01b900460ff16156123e55760405163baffc42360e01b81526004810182905260240161128a565b600c805460018181019092557fdf6966c971051c3d54ec59162606531493a51404a002842f56009d7e5cf4a8c70182905560008281526010602090815260409182902086518154928801511515600160a01b026001600160a81b03199093166001600160a01b03909116179190911781559085015185928201906124699082613abd565b506060820151516002820180546001600160a01b0319166001600160a01b0390921691909117905560808201518051805160038401916124ae91839160200190612fc2565b50602091820151600191820155336000908152601190925260408220805491945092506124dc9084906139bf565b9091555050601280546001810182556000919091527fbb8a6a4669ba250d26cd7a459eca9d215f8307e33aebe50379bc5a3617ec34440180546001600160a01b031916339081179091556040805183815260208101929092527fcd423cc1203c0af96b9b3d68d73b3064a69de2d14450bb7181c5e5df2132b358910160405180910390a192915050565b600a54156126795760006064600b5460646125819190613a0d565b61258b9034613b7c565b6125959190613b93565b90508015612609576125bb73dc652c746a8f85e18ce632d97c6118e8a52fa738826129aa565b6040805173dc652c746a8f85e18ce632d97c6118e8a52fa7388152602081018390527fdf20fd1e76bc69d672e4814fafb2c449bba3a5369d8359adf9e05e6fde87b056910160405180910390a15b60006126158234613a0d565b9050801561267657600354612633906001600160a01b0316826129aa565b600354604080516001600160a01b039092168252602082018390527fdf20fd1e76bc69d672e4814fafb2c449bba3a5369d8359adf9e05e6fde87b0569101611fae565b50505b565b60005b8181101561100757600083838381811061269a5761269a6139de565b60209081029290920135600081815260199093526040909220549192506126c390508282612ac3565b505080806126d0906139f4565b91505061267e565b600081815b845181101561271d57612709828683815181106126fc576126fc6139de565b6020026020010151612bf4565b915080612715816139f4565b9150506126dd565b509392505050565b60008581526019602090815260408083206001600160a01b03881684526018909252909120546127559083613a0d565b8311156127755760405163660fa07360e11b815260040160405180910390fd5b6001600160a01b03851660009081526003820160205260408120541580156127b857506001600160a01b0386166000908152600383016020526040902060010154155b905060ff8516612810578154849083906000906127d69084906139bf565b90915550506001600160a01b0386166000908152600383016020526040812080548692906128059084906139bf565b909155506128a19050565b60001960ff8616016128885760095460011461283f57604051639755958f60e01b815260040160405180910390fd5b8382600001600101600082825461285691906139bf565b90915550506001600160a01b0386166000908152600383016020526040812060010180548692906128059084906139bf565b604051638eed55d160e01b815260040160405180910390fd5b80156128d857600282018054600181018255600091825260209091200180546001600160a01b0319166001600160a01b0388161790555b6001600160a01b038616600090815260186020526040812080548692906129009084906139bf565b92505081905550836017600082825461291991906139bf565b909155505060095415801561294e57507f00000000000000000000000000000000000000000000000000000000000000006001145b156129a157815460006129618683613a0d565b90508015612973576129738982612ac3565b6000828152601a602090815260408220805460018101825590835291200189905561299e8183612c26565b50505b50505050505050565b804710156129fa5760405162461bcd60e51b815260206004820152601d60248201527f416464726573733a20696e73756666696369656e742062616c616e6365000000604482015260640161128a565b6000826001600160a01b03168260405160006040518083038185875af1925050503d8060008114612a47576040519150601f19603f3d011682016040523d82523d6000602084013e612a4c565b606091505b50509050806110075760405162461bcd60e51b815260206004820152603a60248201527f416464726573733a20756e61626c6520746f2073656e642076616c75652c207260448201527f6563697069656e74206d61792068617665207265766572746564000000000000606482015260840161128a565b6000818152601a6020908152604080832080548251818502810185019093528083529192909190830182828015612b1957602002820191906000526020600020905b815481526020019060010190808311612b05575b5050505050905060005b815181101561149c5783828281518110612b3f57612b3f6139de565b602002602001015103612be2578160018351612b5b9190613a0d565b81518110612b6b57612b6b6139de565b6020026020010151601a60008581526020019081526020016000208281548110612b9757612b976139de565b9060005260206000200181905550601a6000848152602001908152602001600020805480612bc757612bc7613bb5565b6001900381819060005260206000200160009055905561149c565b80612bec816139f4565b915050612b23565b6000818310612c10576000828152602084905260409020612c1f565b60008381526020839052604090205b9392505050565b60008054604080516020808402820181019092528281529192919082908490830182828015612c7457602002820191906000526020600020905b815481526020019060010190808311612c60575b5050505050905081600003612cb8575050600080546001810182559080527f290decd9548b62a8d60345a988386fc84ba6bc95484008f6362f93160ef3e563015550565b80612cc4600184613a0d565b81518110612cd457612cd46139de565b6020026020010151831015612d45577f00000000000000000000000000000000000000000000000000000000000000008203612d105750505050565b5050600080546001810182559080527f290decd9548b62a8d60345a988386fc84ba6bc95484008f6362f93160ef3e563015550565b61149c848484846000805b83811015612dba57828181518110612d6a57612d6a6139de565b60200260200101518503612d7f57505061149c565b828181518110612d9157612d916139de565b6020026020010151851115612da857809150612dba565b80612db2816139f4565b915050612d50565b5060008086118015612dd857506000868152601a6020526040902054155b90506000818015612e01575086848481518110612df757612df76139de565b6020026020010151145b612f2857612e10600186613a0d565b8314612eb8576000612e238460016139bf565b90505b85811015612eb65784612e3a600183613a0d565b81518110612e4a57612e4a6139de565b602002602001015160008281548110612e6557612e656139de565b600091825260209091200155828015612e96575087858281518110612e8c57612e8c6139de565b6020026020010151145b15612ea45760019150612eb6565b80612eae816139f4565b915050612e26565b505b80158015612ee557507f000000000000000000000000000000000000000000000000000000000000000085105b15612f2857600084612ef8600188613a0d565b81518110612f0857612f086139de565b602090810291909101810151825460018101845560009384529190922001555b8560008481548110612f3c57612f3c6139de565b60009182526020909120015550505050505050565b6040518060a0016040528060006001600160a01b0316815260200160001515815260200160608152602001612f9b604051806020016040528060006001600160a01b031681525090565b8152602001612fbd604051806040016040528060608152602001600081525090565b905290565b828054828255906000526020600020908101928215613017579160200282015b8281111561301757825182546001600160a01b0319166001600160a01b03909116178255602090920191600190910190612fe2565b50613023929150613027565b5090565b5b808211156130235760008155600101613028565b60006020828403121561304e57600080fd5b5035919050565b6000815180845260005b8181101561307b5760208185018101518683018201520161305f565b506000602082860101526020601f19601f83011685010191505092915050565b805160408084528151908401819052600091602091908201906060860190845b818110156130e05783516001600160a01b0316835292840192918401916001016130bb565b505093820151949091019390935250919050565b600060018060a01b038088168352861515602084015260a0604084015261311e60a0840187613055565b8186511660608501528381036080850152613139818661309b565b9998505050505050505050565b602081526000612c1f6020830184613055565b815181526020808301519082015260408101611312565b600081518084526020808501945080840160005b838110156131a057815187529582019590820190600101613184565b509495945050505050565b602081526000612c1f6020830184613170565b6001600160a01b038116811461218b57600080fd5b60008083601f8401126131e557600080fd5b5081356001600160401b038111156131fc57600080fd5b6020830191508360208260051b850101111561165757600080fd5b60008060006040848603121561322c57600080fd5b8335613237816131be565b925060208401356001600160401b0381111561325257600080fd5b61325e868287016131d3565b9497909650939450505050565b6020808252825182820181905260009190848201906040850190845b818110156132ac5783516001600160a01b031683529284019291840191600101613287565b50909695505050505050565b803580151581146132c857600080fd5b919050565b6000806000806000608086880312156132e557600080fd5b85356132f0816131be565b94506020860135935060408601356001600160401b0381111561331257600080fd5b61331e888289016131d3565b90945092506133319050606087016132b8565b90509295509295909350565b803560ff811681146132c857600080fd5b60008060008060008060a0878903121561336757600080fd5b863595506133776020880161333d565b9450604087013593506060870135925060808701356001600160401b038111156133a057600080fd5b6133ac89828a016131d3565b979a9699509497509295939492505050565b634e487b7160e01b600052604160045260246000fd5b604080519081016001600160401b03811182821017156133f6576133f66133be565b60405290565b60405160a081016001600160401b03811182821017156133f6576133f66133be565b604051601f8201601f191681016001600160401b0381118282101715613446576134466133be565b604052919050565b60006020828403121561346057600080fd5b604051602081018181106001600160401b0382111715613482576134826133be565b6040529050808235613493816131be565b905292915050565b6000604082840312156134ad57600080fd5b6134b56133d4565b905081356001600160401b03808211156134ce57600080fd5b818401915084601f8301126134e257600080fd5b81356020828211156134f6576134f66133be565b8160051b925061350781840161341e565b828152928401810192818101908885111561352157600080fd5b948201945b8486101561354b578535935061353b846131be565b8382529482019490820190613526565b808752505080860135818601525050505092915050565b600060a0828403121561357457600080fd5b61357c6133fc565b90508135613589816131be565b815260206135988382016132b8565b8183015260408301356001600160401b03808211156135b657600080fd5b818501915085601f8301126135ca57600080fd5b8135818111156135dc576135dc6133be565b6135ee601f8201601f1916850161341e565b818152878583860101111561360257600080fd5b818585018683013760008583830101528060408701525050613627866060870161344e565b6060850152608085013592508083111561364057600080fd5b505061364e8482850161349b565b60808301525092915050565b60006020828403121561366c57600080fd5b81356001600160401b0381111561368257600080fd5b61193884828501613562565b600060a082840312156136a057600080fd5b50919050565b6000602082840312156136b857600080fd5b81356001600160401b038111156136ce57600080fd5b6119388482850161368e565b600060408083526136ed81840186613170565b83810360208581019190915285518083528682019282019060005b818110156137355761372583865180518252602090810151910152565b9383019391850191600101613708565b509098975050505050505050565b6000806000806060858703121561375957600080fd5b8435613764816131be565b93506020850135925060408501356001600160401b0381111561378657600080fd5b613792878288016131d3565b95989497509550505050565b6000806000606084860312156137b357600080fd5b833592506137c36020850161333d565b9150604084013590509250925092565b600080604083850312156137e657600080fd5b8235915060208301356137f8816131be565b809150509250929050565b6000806040838503121561381657600080fd5b50508035926020909101359150565b60006020828403121561383757600080fd5b8135612c1f816131be565b60008060006040848603121561385757600080fd5b83356001600160401b038082111561386e57600080fd5b61387a8783880161368e565b9450602086013591508082111561389057600080fd5b5061325e868287016131d3565b634e487b7160e01b600052602160045260246000fd5b60208101600583106138c7576138c761389d565b91905290565b60208152600060018060a01b03808451166020840152602084015115156040840152604084015160a0606085015261390860c0850182613055565b90508160608601515116608085015260808501519150601f198482030160a0850152611620818361309b565b6000806020838503121561394757600080fd5b82356001600160401b0381111561395d57600080fd5b613969858286016131d3565b90969095509350505050565b600181811c9082168061398957607f821691505b6020821081036136a057634e487b7160e01b600052602260045260246000fd5b634e487b7160e01b600052601160045260246000fd5b80820180821115611312576113126139a9565b60006113123683613562565b634e487b7160e01b600052603260045260246000fd5b600060018201613a0657613a066139a9565b5060010190565b81810381811115611312576113126139a9565b6020808252825482820181905260008481528281209092916040850190845b818110156132ac57835483526001938401939285019201613a3f565b60208101600283106138c7576138c761389d565b601f82111561100757600081815260208120601f850160051c81016020861015613a965750805b601f850160051c820191505b81811015613ab557828155600101613aa2565b505050505050565b81516001600160401b03811115613ad657613ad66133be565b613aea81613ae48454613975565b84613a6f565b602080601f831160018114613b1f5760008415613b075750858301515b600019600386901b1c1916600185901b178555613ab5565b600085815260208120601f198616915b82811015613b4e57888601518255948401946001909101908401613b2f565b5085821015613b6c5787850151600019600388901b60f8161c191681555b5050505050600190811b01905550565b8082028115828204841417611312576113126139a9565b600082613bb057634e487b7160e01b600052601260045260246000fd5b500490565b634e487b7160e01b600052603160045260246000fdfea26469706673582212205ed47a416a56fdba89cd48046a445ef64a5f4381ffde15c0c0ab0c9cf928ab5564736f6c63430008130033",
    "linkReferences": {}
  },
  "methodIdentifiers": {
    "AMOUNT_FOR_SUMBITTER_PROOF()": "347cf665",
    "JK_LABS_ADDRESS()": "eef18e17",
    "METADATAS_COUNT()": "4d24a67f",
    "addressSubmitterVerified(address)": "cb853950",
    "addressTotalCastVoteCounts(address)": "a1ac6cb2",
    "addressTotalVotes(address)": "dea5f6a6",
    "addressTotalVotesVerified(address)": "930de979",
    "addressesThatHaveVoted(uint256)": "50c4b616",
    "allProposalTotalVotes()": "50a5e524",
    "allProposalTotalVotesWithoutDeleted()": "d45a010b",
    "cancel()": "ea8a1af0",
    "canceled()": "3f9942ff",
    "castVote(uint256,uint8,uint256,uint256,bytes32[])": "419c533c",
    "castVoteWithoutProof(uint256,uint8,uint256)": "65f16263",
    "checkProof(address,uint256,bytes32[],bool)": "32763c22",
    "contestAddressTotalVotesCast(address)": "aec116b6",
    "contestDeadline()": "262e59e9",
    "contestStart()": "004114a8",
    "costToPropose()": "6ed815ad",
    "creator()": "02d05d3f",
    "deleteProposals(uint256[])": "f0a7db0a",
    "deletedProposalIds(uint256)": "05846cae",
    "downvotingAllowed()": "60506ff6",
    "forVotesToProposalIds(uint256,uint256)": "711effc8",
    "getAllAddressesThatHaveVoted()": "2c39805f",
    "getAllDeletedProposalIds()": "1242b737",
    "getAllProposalAuthors()": "946369b5",
    "getAllProposalIds()": "efa90d36",
    "getNumProposalsWithThisManyForVotes(uint256)": "9ba197af",
    "getOnlyProposalIdWithThisManyForVotes(uint256)": "b66d1da3",
    "getProposal(uint256)": "c7f758a8",
    "getRankIndex(uint256)": "5c7107d8",
    "getSortedRanks()": "6fd3636b",
    "hashProposal((address,bool,string,(address),(address[],uint256)))": "458da87d",
    "isOrIsBelowTiedRank(uint256)": "9174778c",
    "maxProposalCount()": "fb9bf8d4",
    "name()": "06fdde03",
    "numAllowedProposalSubmissions()": "832009af",
    "numSubmissions(address)": "75e509c5",
    "officialRewardsModule()": "785ddfe5",
    "percentageToCreator()": "edcd1be4",
    "prompt()": "7c65d711",
    "proposalAddressVotes(uint256,address)": "6e4eb810",
    "proposalAddressesHaveVoted(uint256)": "b323580d",
    "proposalAuthors(uint256)": "0aa25e44",
    "proposalIds(uint256)": "9b644a23",
    "proposalIsDeleted(uint256)": "f79c0172",
    "proposalVotes(uint256)": "544ffc9c",
    "proposalVotesStructs(uint256)": "070dc5d9",
    "proposals(uint256)": "013cf08b",
    "propose((address,bool,string,(address),(address[],uint256)),bytes32[])": "c0ffaa78",
    "proposeWithoutProof((address,bool,string,(address),(address[],uint256)))": "476f4d8a",
    "rankLimit()": "0414126a",
    "setOfficialRewardsModule(address)": "f4f3d7ec",
    "sortedRanks(uint256)": "325cc6d9",
    "sortingEnabled()": "366ecf5b",
    "state()": "c19d93fb",
    "submissionMerkleRoot()": "bddc1641",
    "totalVotesCast()": "7de418d5",
    "validateProposalData((address,bool,string,(address),(address[],uint256)))": "fb8ddab4",
    "verifyProposer(address,bytes32[])": "20b3e845",
    "verifyVoter(address,uint256,bytes32[])": "531bd812",
    "version()": "54fd4d50",
    "voteStart()": "e031535b",
    "votingDelay()": "3932abb1",
    "votingMerkleRoot()": "dd96a19d",
    "votingPeriod()": "02a251a3"
  },
  "id": 28
}