{
  "_format": "hh-sol-artifact-1",
  "contractName": "Contest",
  "sourceName": "contracts/Contest.sol",
  "abi": [
    {
      "inputs": [
        {
          "internalType": "string",
          "name": "_name",
          "type": "string"
        },
        {
          "internalType": "string",
          "name": "_prompt",
          "type": "string"
        },
        {
          "internalType": "contract IVotesTimestamp",
          "name": "_token",
          "type": "address"
        },
        {
          "internalType": "uint256[]",
          "name": "_constructorIntParams",
          "type": "uint256[]"
        }
      ],
      "stateMutability": "nonpayable",
      "type": "constructor"
    },
    {
      "anonymous": false,
      "inputs": [],
      "name": "ContestCanceled",
      "type": "event"
    },
    {
      "anonymous": false,
      "inputs": [
        {
          "indexed": false,
          "internalType": "uint256",
          "name": "oldContestSnapshot",
          "type": "uint256"
        },
        {
          "indexed": false,
          "internalType": "uint256",
          "name": "newContestSnapshot",
          "type": "uint256"
        }
      ],
      "name": "ContestSnapshotSet",
      "type": "event"
    },
    {
      "anonymous": false,
      "inputs": [
        {
          "indexed": false,
          "internalType": "uint256",
          "name": "oldContestStart",
          "type": "uint256"
        },
        {
          "indexed": false,
          "internalType": "uint256",
          "name": "newContestStart",
          "type": "uint256"
        }
      ],
      "name": "ContestStartSet",
      "type": "event"
    },
    {
      "anonymous": false,
      "inputs": [
        {
          "indexed": false,
          "internalType": "address",
          "name": "oldCreator",
          "type": "address"
        },
        {
          "indexed": false,
          "internalType": "address",
          "name": "newCreator",
          "type": "address"
        }
      ],
      "name": "CreatorSet",
      "type": "event"
    },
    {
      "anonymous": false,
      "inputs": [
        {
          "indexed": false,
          "internalType": "uint256",
          "name": "oldDownvotingAllowed",
          "type": "uint256"
        },
        {
          "indexed": false,
          "internalType": "uint256",
          "name": "newDownvotingAllowed",
          "type": "uint256"
        }
      ],
      "name": "DownvotingAllowedSet",
      "type": "event"
    },
    {
      "anonymous": false,
      "inputs": [
        {
          "indexed": false,
          "internalType": "uint256",
          "name": "oldMaxProposalCount",
          "type": "uint256"
        },
        {
          "indexed": false,
          "internalType": "uint256",
          "name": "newMaxProposalCount",
          "type": "uint256"
        }
      ],
      "name": "MaxProposalCountSet",
      "type": "event"
    },
    {
      "anonymous": false,
      "inputs": [
        {
          "indexed": false,
          "internalType": "uint256",
          "name": "oldNumAllowedProposalSubmissions",
          "type": "uint256"
        },
        {
          "indexed": false,
          "internalType": "uint256",
          "name": "newNumAllowedProposalSubmissions",
          "type": "uint256"
        }
      ],
      "name": "NumAllowedProposalSubmissionsSet",
      "type": "event"
    },
    {
      "anonymous": false,
      "inputs": [
        {
          "indexed": false,
          "internalType": "uint256",
          "name": "proposalId",
          "type": "uint256"
        },
        {
          "indexed": false,
          "internalType": "string",
          "name": "description",
          "type": "string"
        },
        {
          "indexed": false,
          "internalType": "address",
          "name": "proposer",
          "type": "address"
        }
      ],
      "name": "ProposalCreated",
      "type": "event"
    },
    {
      "anonymous": false,
      "inputs": [
        {
          "indexed": false,
          "internalType": "uint256",
          "name": "oldProposalThreshold",
          "type": "uint256"
        },
        {
          "indexed": false,
          "internalType": "uint256",
          "name": "newProposalThreshold",
          "type": "uint256"
        }
      ],
      "name": "ProposalThresholdSet",
      "type": "event"
    },
    {
      "anonymous": false,
      "inputs": [
        {
          "indexed": false,
          "internalType": "uint256[]",
          "name": "proposalIds",
          "type": "uint256[]"
        }
      ],
      "name": "ProposalsDeleted",
      "type": "event"
    },
    {
      "anonymous": false,
      "inputs": [
        {
          "indexed": true,
          "internalType": "address",
          "name": "voter",
          "type": "address"
        },
        {
          "indexed": false,
          "internalType": "uint256",
          "name": "proposalId",
          "type": "uint256"
        },
        {
          "indexed": false,
          "internalType": "uint8",
          "name": "support",
          "type": "uint8"
        },
        {
          "indexed": false,
          "internalType": "uint256",
          "name": "numVotes",
          "type": "uint256"
        },
        {
          "indexed": false,
          "internalType": "string",
          "name": "reason",
          "type": "string"
        }
      ],
      "name": "VoteCast",
      "type": "event"
    },
    {
      "anonymous": false,
      "inputs": [
        {
          "indexed": false,
          "internalType": "uint256",
          "name": "oldVotingDelay",
          "type": "uint256"
        },
        {
          "indexed": false,
          "internalType": "uint256",
          "name": "newVotingDelay",
          "type": "uint256"
        }
      ],
      "name": "VotingDelaySet",
      "type": "event"
    },
    {
      "anonymous": false,
      "inputs": [
        {
          "indexed": false,
          "internalType": "uint256",
          "name": "oldVotingPeriod",
          "type": "uint256"
        },
        {
          "indexed": false,
          "internalType": "uint256",
          "name": "newVotingPeriod",
          "type": "uint256"
        }
      ],
      "name": "VotingPeriodSet",
      "type": "event"
    },
    {
      "inputs": [],
      "name": "BALLOT_TYPEHASH",
      "outputs": [
        {
          "internalType": "bytes32",
          "name": "",
          "type": "bytes32"
        }
      ],
      "stateMutability": "view",
      "type": "function"
    },
    {
      "inputs": [],
      "name": "COUNTING_MODE",
      "outputs": [
        {
          "internalType": "string",
          "name": "",
          "type": "string"
        }
      ],
      "stateMutability": "pure",
      "type": "function"
    },
    {
      "inputs": [],
      "name": "allProposalTotalVotes",
      "outputs": [
        {
          "internalType": "uint256[]",
          "name": "proposalIdsReturn",
          "type": "uint256[]"
        },
        {
          "components": [
            {
              "internalType": "uint256",
              "name": "forVotes",
              "type": "uint256"
            },
            {
              "internalType": "uint256",
              "name": "againstVotes",
              "type": "uint256"
            }
          ],
          "internalType": "struct GovernorCountingSimple.VoteCounts[]",
          "name": "proposalVoteCountsArrayReturn",
          "type": "tuple[]"
        }
      ],
      "stateMutability": "view",
      "type": "function"
    },
    {
      "inputs": [],
      "name": "cancel",
      "outputs": [],
      "stateMutability": "nonpayable",
      "type": "function"
    },
    {
      "inputs": [
        {
          "internalType": "uint256",
          "name": "proposalId",
          "type": "uint256"
        },
        {
          "internalType": "uint8",
          "name": "support",
          "type": "uint8"
        },
        {
          "internalType": "uint256",
          "name": "numVotes",
          "type": "uint256"
        }
      ],
      "name": "castVote",
      "outputs": [
        {
          "internalType": "uint256",
          "name": "",
          "type": "uint256"
        }
      ],
      "stateMutability": "nonpayable",
      "type": "function"
    },
    {
      "inputs": [
        {
          "internalType": "uint256",
          "name": "proposalId",
          "type": "uint256"
        },
        {
          "internalType": "uint8",
          "name": "support",
          "type": "uint8"
        },
        {
          "internalType": "uint256",
          "name": "numVotes",
          "type": "uint256"
        },
        {
          "internalType": "uint8",
          "name": "v",
          "type": "uint8"
        },
        {
          "internalType": "bytes32",
          "name": "r",
          "type": "bytes32"
        },
        {
          "internalType": "bytes32",
          "name": "s",
          "type": "bytes32"
        }
      ],
      "name": "castVoteBySig",
      "outputs": [
        {
          "internalType": "uint256",
          "name": "",
          "type": "uint256"
        }
      ],
      "stateMutability": "nonpayable",
      "type": "function"
    },
    {
      "inputs": [
        {
          "internalType": "uint256",
          "name": "proposalId",
          "type": "uint256"
        },
        {
          "internalType": "uint8",
          "name": "support",
          "type": "uint8"
        },
        {
          "internalType": "uint256",
          "name": "numVotes",
          "type": "uint256"
        },
        {
          "internalType": "string",
          "name": "reason",
          "type": "string"
        }
      ],
      "name": "castVoteWithReason",
      "outputs": [
        {
          "internalType": "uint256",
          "name": "",
          "type": "uint256"
        }
      ],
      "stateMutability": "nonpayable",
      "type": "function"
    },
    {
      "inputs": [
        {
          "internalType": "address",
          "name": "userAddress",
          "type": "address"
        }
      ],
      "name": "contestAddressTotalVotesCast",
      "outputs": [
        {
          "internalType": "uint256",
          "name": "totalVotesCast",
          "type": "uint256"
        }
      ],
      "stateMutability": "view",
      "type": "function"
    },
    {
      "inputs": [],
      "name": "contestDeadline",
      "outputs": [
        {
          "internalType": "uint256",
          "name": "",
          "type": "uint256"
        }
      ],
      "stateMutability": "view",
      "type": "function"
    },
    {
      "inputs": [],
      "name": "contestSnapshot",
      "outputs": [
        {
          "internalType": "uint256",
          "name": "",
          "type": "uint256"
        }
      ],
      "stateMutability": "view",
      "type": "function"
    },
    {
      "inputs": [],
      "name": "contestStart",
      "outputs": [
        {
          "internalType": "uint256",
          "name": "",
          "type": "uint256"
        }
      ],
      "stateMutability": "view",
      "type": "function"
    },
    {
      "inputs": [],
      "name": "creator",
      "outputs": [
        {
          "internalType": "address",
          "name": "",
          "type": "address"
        }
      ],
      "stateMutability": "view",
      "type": "function"
    },
    {
      "inputs": [
        {
          "internalType": "uint256[]",
          "name": "proposalIds",
          "type": "uint256[]"
        }
      ],
      "name": "deleteProposals",
      "outputs": [],
      "stateMutability": "nonpayable",
      "type": "function"
    },
    {
      "inputs": [],
      "name": "downvotingAllowed",
      "outputs": [
        {
          "internalType": "uint256",
          "name": "",
          "type": "uint256"
        }
      ],
      "stateMutability": "view",
      "type": "function"
    },
    {
      "inputs": [],
      "name": "getAllProposalIds",
      "outputs": [
        {
          "internalType": "uint256[]",
          "name": "",
          "type": "uint256[]"
        }
      ],
      "stateMutability": "view",
      "type": "function"
    },
    {
      "inputs": [
        {
          "internalType": "address",
          "name": "account",
          "type": "address"
        }
      ],
      "name": "getCurrentVotes",
      "outputs": [
        {
          "internalType": "uint256",
          "name": "",
          "type": "uint256"
        }
      ],
      "stateMutability": "view",
      "type": "function"
    },
    {
      "inputs": [
        {
          "internalType": "address",
          "name": "account",
          "type": "address"
        }
      ],
      "name": "getNumSubmissions",
      "outputs": [
        {
          "internalType": "uint256",
          "name": "",
          "type": "uint256"
        }
      ],
      "stateMutability": "view",
      "type": "function"
    },
    {
      "inputs": [
        {
          "internalType": "uint256",
          "name": "proposalId",
          "type": "uint256"
        }
      ],
      "name": "getProposal",
      "outputs": [
        {
          "components": [
            {
              "internalType": "address",
              "name": "author",
              "type": "address"
            },
            {
              "internalType": "string",
              "name": "description",
              "type": "string"
            },
            {
              "internalType": "bool",
              "name": "exists",
              "type": "bool"
            }
          ],
          "internalType": "struct Governor.ProposalCore",
          "name": "",
          "type": "tuple"
        }
      ],
      "stateMutability": "view",
      "type": "function"
    },
    {
      "inputs": [
        {
          "internalType": "address",
          "name": "account",
          "type": "address"
        },
        {
          "internalType": "uint256",
          "name": "timestamp",
          "type": "uint256"
        }
      ],
      "name": "getVotes",
      "outputs": [
        {
          "internalType": "uint256",
          "name": "",
          "type": "uint256"
        }
      ],
      "stateMutability": "view",
      "type": "function"
    },
    {
      "inputs": [
        {
          "internalType": "string",
          "name": "proposalDescription",
          "type": "string"
        }
      ],
      "name": "hashProposal",
      "outputs": [
        {
          "internalType": "uint256",
          "name": "",
          "type": "uint256"
        }
      ],
      "stateMutability": "pure",
      "type": "function"
    },
    {
      "inputs": [],
      "name": "maxProposalCount",
      "outputs": [
        {
          "internalType": "uint256",
          "name": "",
          "type": "uint256"
        }
      ],
      "stateMutability": "view",
      "type": "function"
    },
    {
      "inputs": [],
      "name": "name",
      "outputs": [
        {
          "internalType": "string",
          "name": "",
          "type": "string"
        }
      ],
      "stateMutability": "view",
      "type": "function"
    },
    {
      "inputs": [],
      "name": "numAllowedProposalSubmissions",
      "outputs": [
        {
          "internalType": "uint256",
          "name": "",
          "type": "uint256"
        }
      ],
      "stateMutability": "view",
      "type": "function"
    },
    {
      "inputs": [],
      "name": "prompt",
      "outputs": [
        {
          "internalType": "string",
          "name": "",
          "type": "string"
        }
      ],
      "stateMutability": "view",
      "type": "function"
    },
    {
      "inputs": [
        {
          "internalType": "uint256",
          "name": "proposalId",
          "type": "uint256"
        },
        {
          "internalType": "address",
          "name": "userAddress",
          "type": "address"
        }
      ],
      "name": "proposalAddressVotes",
      "outputs": [
        {
          "internalType": "uint256",
          "name": "forVotes",
          "type": "uint256"
        },
        {
          "internalType": "uint256",
          "name": "againstVotes",
          "type": "uint256"
        }
      ],
      "stateMutability": "view",
      "type": "function"
    },
    {
      "inputs": [
        {
          "internalType": "uint256",
          "name": "proposalId",
          "type": "uint256"
        }
      ],
      "name": "proposalAddressesHaveVoted",
      "outputs": [
        {
          "internalType": "address[]",
          "name": "",
          "type": "address[]"
        }
      ],
      "stateMutability": "view",
      "type": "function"
    },
    {
      "inputs": [],
      "name": "proposalThreshold",
      "outputs": [
        {
          "internalType": "uint256",
          "name": "",
          "type": "uint256"
        }
      ],
      "stateMutability": "view",
      "type": "function"
    },
    {
      "inputs": [
        {
          "internalType": "uint256",
          "name": "proposalId",
          "type": "uint256"
        }
      ],
      "name": "proposalVotes",
      "outputs": [
        {
          "internalType": "uint256",
          "name": "forVotes",
          "type": "uint256"
        },
        {
          "internalType": "uint256",
          "name": "againstVotes",
          "type": "uint256"
        }
      ],
      "stateMutability": "view",
      "type": "function"
    },
    {
      "inputs": [
        {
          "internalType": "string",
          "name": "proposalDescription",
          "type": "string"
        }
      ],
      "name": "propose",
      "outputs": [
        {
          "internalType": "uint256",
          "name": "",
          "type": "uint256"
        }
      ],
      "stateMutability": "nonpayable",
      "type": "function"
    },
    {
      "inputs": [],
      "name": "state",
      "outputs": [
        {
          "internalType": "enum IGovernor.ContestState",
          "name": "",
          "type": "uint8"
        }
      ],
      "stateMutability": "view",
      "type": "function"
    },
    {
      "inputs": [
        {
          "internalType": "bytes4",
          "name": "interfaceId",
          "type": "bytes4"
        }
      ],
      "name": "supportsInterface",
      "outputs": [
        {
          "internalType": "bool",
          "name": "",
          "type": "bool"
        }
      ],
      "stateMutability": "view",
      "type": "function"
    },
    {
      "inputs": [],
      "name": "token",
      "outputs": [
        {
          "internalType": "contract IVotesTimestamp",
          "name": "",
          "type": "address"
        }
      ],
      "stateMutability": "view",
      "type": "function"
    },
    {
      "inputs": [],
      "name": "version",
      "outputs": [
        {
          "internalType": "string",
          "name": "",
          "type": "string"
        }
      ],
      "stateMutability": "view",
      "type": "function"
    },
    {
      "inputs": [],
      "name": "voteStart",
      "outputs": [
        {
          "internalType": "uint256",
          "name": "",
          "type": "uint256"
        }
      ],
      "stateMutability": "view",
      "type": "function"
    },
    {
      "inputs": [],
      "name": "votingDelay",
      "outputs": [
        {
          "internalType": "uint256",
          "name": "",
          "type": "uint256"
        }
      ],
      "stateMutability": "view",
      "type": "function"
    },
    {
      "inputs": [],
      "name": "votingPeriod",
      "outputs": [
        {
          "internalType": "uint256",
          "name": "",
          "type": "uint256"
        }
      ],
      "stateMutability": "view",
      "type": "function"
    },
    {
      "stateMutability": "payable",
      "type": "receive"
    }
  ],
  "bytecode": "0x6101606040523480156200001257600080fd5b5060405162002eb038038062002eb0833981016040819052620000359162000713565b81816000815181106200005857634e487b7160e01b600052603260045260246000fd5b6020026020010151826001815181106200008257634e487b7160e01b600052603260045260246000fd5b602002602001015183600281518110620000ac57634e487b7160e01b600052603260045260246000fd5b602002602001015184600381518110620000d657634e487b7160e01b600052603260045260246000fd5b6020026020010151856004815181106200010057634e487b7160e01b600052603260045260246000fd5b6020026020010151866005815181106200012a57634e487b7160e01b600052603260045260246000fd5b6020026020010151876006815181106200015457634e487b7160e01b600052603260045260246000fd5b6020026020010151886007815181106200017e57634e487b7160e01b600052603260045260246000fd5b60200260200101518c8c8162000199620002eb60201b60201c565b815160208084019190912082518383012060e08290526101008190524660a0818152604080517f8b73c3c69bb8fe3d512ecc4cf759cc79239f7b179b0ffacaa9a75d522b39400f81880181905281830187905260608201869052608082019490945230818401528151808203909301835260c00190528051940193909320919290916080523060601b60c0526101205250508351620002429250600191506020850190620005dc565b50805162000258906002906020840190620005dc565b5050506200026c886200030660201b60201c565b620002778762000347565b620002828662000388565b6200028d856200042e565b62000298846200046f565b620002a383620004b0565b620002ae82620004f1565b620002b98162000532565b620002c43362000573565b505050505060609390931b6001600160601b0319166101405250620008b695505050505050565b6040805180820190915260018152603160f81b602082015290565b60065460408051918252602082018390527fd299feb1d7d9345a48559601c471c3be7eea9a11f21d5e86809198f40a974db4910160405180910390a1600655565b60075460408051918252602082018390527fc565b045403dc03c2eea82b81a0465edad9e2e7fc4d97e11421c209da93d7a93910160405180910390a1600755565b60008111620003ed5760405162461bcd60e51b815260206004820152602760248201527f476f7665726e6f7253657474696e67733a20766f74696e6720706572696f6420604482015266746f6f206c6f7760c81b606482015260840160405180910390fd5b60085460408051918252602082018390527f7e3f7f0708a84de9203036abaa450dccc85ad5ff52f78c170f3edb55cf5e8828910160405180910390a1600855565b60095460408051918252602082018390527f70d92b9b65fcaa7708049081fd0ad601c9af76bd86d38df0337dfce3d025ec83910160405180910390a1600955565b600a5460408051918252602082018390527fccb45da8d5717e6c4544694297c4ba5cf151d455c9bb0ed4fc7a38411bc05461910160405180910390a1600a55565b600b5460408051918252602082018390527fe971b819c7fb95c72451f557226aceb5baaf4994a9d39a79bbfa0040e87500b9910160405180910390a1600b55565b600c5460408051918252602082018390527f4984ec996723330ee95979ed65a2a4b41edd914e68a187efe92596474643bdff910160405180910390a1600c55565b600d5460408051918252602082018390527f9c7b27f091caef3a83be73d89320404fa0c4a52993685ff0651672e49e6e55ab910160405180910390a1600d55565b600e54604080516001600160a01b03928316815291831660208301527fc30034fc2e9697980e08935bbc287db3eaa44a4aa113ef4c108b356adbf911ce910160405180910390a1600e80546001600160a01b0319166001600160a01b0392909216919091179055565b828054620005ea9062000863565b90600052602060002090601f0160209004810192826200060e576000855562000659565b82601f106200062957805160ff191683800117855562000659565b8280016001018555821562000659579182015b82811115620006595782518255916020019190600101906200063c565b50620006679291506200066b565b5090565b5b808211156200066757600081556001016200066c565b600082601f83011262000693578081fd5b81516001600160401b03811115620006af57620006af620008a0565b6020620006c5601f8301601f1916820162000830565b8281528582848701011115620006d9578384fd5b835b83811015620006f8578581018301518282018401528201620006db565b838111156200070957848385840101525b5095945050505050565b6000806000806080858703121562000729578384fd5b84516001600160401b038082111562000740578586fd5b6200074e8883890162000682565b955060209150818701518181111562000765578586fd5b6200077389828a0162000682565b604089015190965090506001600160a01b038116811462000792578485fd5b606088015190945081811115620007a7578384fd5b8701601f81018913620007b8578384fd5b805182811115620007cd57620007cd620008a0565b8060051b9250620007e084840162000830565b8181528481019083860185850187018d1015620007fb578788fd5b8795505b838610156200081f578051835260019590950194918601918601620007ff565b50989b979a50959850505050505050565b604051601f8201601f191681016001600160401b03811182821017156200085b576200085b620008a0565b604052919050565b600181811c908216806200087857607f821691505b602082108114156200089a57634e487b7160e01b600052602260045260246000fd5b50919050565b634e487b7160e01b600052604160045260246000fd5b60805160a05160c05160601c60e05161010051610120516101405160601c61258b620009256000396000818161072a015281816115cf01526116ea01526000611aa401526000611af301526000611ace01526000611a2701526000611a5101526000611a7b015261258b6000f3fe6080604052600436106102125760003560e01c8063aa98df3911610118578063dd4e2ba5116100a0578063eb9019d41161006f578063eb9019d4146106a1578063efa90d36146106c1578063f0a7db0a146106e3578063fb9bf8d414610703578063fc0c546a1461071857600080fd5b8063dd4e2ba5146105fd578063deaaa7cc14610643578063e031535b14610677578063ea8a1af01461068c57600080fd5b8063b58131b0116100e7578063b58131b014610559578063bd65e80a1461056e578063c19d93fb1461058e578063c7f758a8146105b0578063d17ad2d4146105dd57600080fd5b8063aa98df39146104b6578063aec116b6146104d6578063b323580d1461050c578063b4b5ea571461053957600080fd5b8063540a91901161019b57806360506ff61161016a57806360506ff6146104085780636e4eb8101461041d5780637c65d7111461046c578063832009af146104815780639c0281761461049657600080fd5b8063540a919014610349578063544ffc9c1461035e57806354fd4d50146103a85780635f953a03146103d257600080fd5b806306fdde03116101e257806306fdde03146102ba5780631566f60d146102dc578063262e59e9146102fc5780633932abb11461031157806350a5e5241461032657600080fd5b80624114a81461022057806301ffc9a71461024857806302a251a31461027857806302d05d3f1461028d57600080fd5b3661021b57005b005b600080fd5b34801561022c57600080fd5b5061023561074c565b6040519081526020015b60405180910390f35b34801561025457600080fd5b50610268610263366004611fe3565b61075c565b604051901515815260200161023f565b34801561028457600080fd5b50610235610793565b34801561029957600080fd5b506102a261079e565b6040516001600160a01b03909116815260200161023f565b3480156102c657600080fd5b506102cf6107b2565b60405161023f919061237a565b3480156102e857600080fd5b506102356102f7366004612127565b610844565b34801561030857600080fd5b50610235610898565b34801561031d57600080fd5b506102356108b4565b34801561033257600080fd5b5061033b6108bf565b60405161023f9291906122f2565b34801561035557600080fd5b50600954610235565b34801561036a57600080fd5b50610393610379366004612098565b600090815260106020526040902080546001909101549091565b6040805192835260208301919091520161023f565b3480156103b457600080fd5b506040805180820190915260018152603160f81b60208201526102cf565b3480156103de57600080fd5b506102356103ed366004611ef8565b6001600160a01b031660009081526005602052604090205490565b34801561041457600080fd5b506102356109f0565b34801561042957600080fd5b506103936104383660046120c8565b60008281526010602090815260408083206001600160a01b0385168452600301909152902080546001909101549250929050565b34801561047857600080fd5b506102cf6109fb565b34801561048d57600080fd5b50610235610a0a565b3480156104a257600080fd5b506102356104b13660046120f3565b610a15565b3480156104c257600080fd5b506102356104d136600461200b565b610a40565b3480156104e257600080fd5b506102356104f1366004611ef8565b6001600160a01b03166000908152600f602052604090205490565b34801561051857600080fd5b5061052c610527366004612098565b610e81565b60405161023f9190612292565b34801561054557600080fd5b50610235610554366004611ef8565b610ef3565b34801561056557600080fd5b50610235610efe565b34801561057a57600080fd5b5061023561058936600461200b565b610f09565b34801561059a57600080fd5b506105a3610f3a565b60405161023f9190612352565b3480156105bc57600080fd5b506105d06105cb366004612098565b610f8e565b60405161023f919061238d565b3480156105e957600080fd5b506102356105f83660046121b6565b611092565b34801561060957600080fd5b5060408051808201909152601881527f737570706f72743d627261766f2671756f72756d3d666f72000000000000000060208201526102cf565b34801561064f57600080fd5b506102357f150214d74d59b7d1e90c73fc22ef3d991dd0a76b046543d4d80ab92d2a50328f81565b34801561068357600080fd5b50610235611128565b34801561069857600080fd5b5061021961113a565b3480156106ad57600080fd5b506102356106bc366004611f12565b611240565b3480156106cd57600080fd5b506106d6611253565b60405161023f91906122df565b3480156106ef57600080fd5b506102196106fe366004611f3b565b6112aa565b34801561070f57600080fd5b50610235611392565b34801561072457600080fd5b506102a27f000000000000000000000000000000000000000000000000000000000000000081565b600061075760065490565b905090565b60006001600160e01b031982166322592d6960e21b148061078d57506301ffc9a760e01b6001600160e01b03198316145b92915050565b600061075760085490565b6000610757600e546001600160a01b031690565b6060600180546107c190612496565b80601f01602080910402602001604051908101604052809291908181526020018280546107ed90612496565b801561083a5780601f1061080f5761010080835404028352916020019161083a565b820191906000526020600020905b81548152906001019060200180831161081d57829003601f168201915b5050505050905090565b60008033905061088d8782888888888080601f01602080910402602001604051908101604052809392919081815260200183838082843760009201919091525061139d92505050565b979650505050505050565b60006108a2610793565b6108aa611128565b6107579190612467565b600061075760075490565b60608060006108cc611253565b90506000815167ffffffffffffffff8111156108f857634e487b7160e01b600052604160045260246000fd5b60405190808252806020026020018201604052801561093d57816020015b60408051808201909152600080825260208201528152602001906001900390816109165790505b50905060005b82518110156109e6576010600084838151811061097057634e487b7160e01b600052603260045260246000fd5b60200260200101518152602001908152602001600020600001604051806040016040529081600082015481526020016001820154815250508282815181106109c857634e487b7160e01b600052603260045260246000fd5b602002602001018190525080806109de906124d1565b915050610943565b5090939092509050565b6000610757600d5490565b6060600280546107c190612496565b6000610757600b5490565b600080339050610a37858286866040518060200160405280600081525061139d565b95945050505050565b60006002610a4c610f3a565b6003811115610a6b57634e487b7160e01b600052602160045260246000fd5b14610ae35760405162461bcd60e51b815260206004820152603e60248201527f476f7665726e6f723a20636f6e74657374206d7573742062652071756575656460448201527f20666f722070726f706f73616c7320746f206265207375626d6974746564000060648201526084015b60405180910390fd5b610aeb610a0a565b3360009081526005602052604090205410610b945760405162461bcd60e51b815260206004820152605d60248201527f476f7665726e6f723a207468652073616d652063616e6e6f74207375626d697460448201527f206d6f7265207468616e20746865206e756d416c6c6f77656450726f706f736160648201527f6c5375626d697373696f6e7320666f72207468697320636f6e74657374000000608482015260a401610ada565b610b9c611392565b60005410610c125760405162461bcd60e51b815260206004820152603960248201527f476f7665726e6f723a20746865206d6178206e756d626572206f662070726f7060448201527f6f73616c732068617665206265656e207375626d6974746564000000000000006064820152608401610ada565b610c1a610efe565b610c2333610ef3565b1015610ca35760405162461bcd60e51b815260206004820152604360248201527f476f7665726e6f72436f6d7061746962696c697479427261766f3a2070726f7060448201527f6f73657220766f7465732062656c6f772070726f706f73616c207468726573686064820152621bdb1960ea1b608482015260a401610ada565b8151610cf15760405162461bcd60e51b815260206004820152601860248201527f476f7665726e6f723a20656d7074792070726f706f73616c00000000000000006044820152606401610ada565b6000610cfc83610f09565b60008181526004602052604090206002015490915060ff1615610d735760405162461bcd60e51b815260206004820152602960248201527f476f7665726e6f723a206475706c69636174652070726f706f73616c73206e6f6044820152681d08185b1b1bddd95960ba1b6064820152608401610ada565b60008054600180820183557f290decd9548b62a8d60345a988386fc84ba6bc95484008f6362f93160ef3e5639091018390556040805160608101825233815260208082018881528284018590528686526004825292909420815181546001600160a01b0319166001600160a01b039091161781559151805191949293610dff9390850192910190611e32565b50604091820151600291909101805460ff19169115159190911790553360009081526005602052908120805460019290610e3a908490612467565b909155507fc8c078bfee58e5822588f08b4509ed1eb5058e03f666cca84dd2d44bf5c288a89050818433604051610e73939291906123d3565b60405180910390a192915050565b6000818152601060209081526040918290206002810180548451818502810185019095528085526060949293830182828015610ee657602002820191906000526020600020905b81546001600160a01b03168152600190910190602001808311610ec8575b5050505050915050919050565b600061078d826115ad565b6000610757600a5490565b600081604051602001610f1c919061237a565b60408051601f19818403018152919052805160209091012092915050565b60035460009060ff1615610f4e5750600190565b6000610f58611128565b9050428110610f6957600291505090565b6000610f73610898565b9050428110610f855760009250505090565b60039250505090565b610fbd604051806060016040528060006001600160a01b03168152602001606081526020016000151581525090565b60008281526004602090815260409182902082516060810190935280546001600160a01b031683526001810180549192840191610ff990612496565b80601f016020809104026020016040519081016040528092919081815260200182805461102590612496565b80156110725780601f1061104757610100808354040283529160200191611072565b820191906000526020600020905b81548152906001019060200180831161105557829003601f168201915b50505091835250506002919091015460ff16151560209091015292915050565b604080517f150214d74d59b7d1e90c73fc22ef3d991dd0a76b046543d4d80ab92d2a50328f602082015290810187905260ff8616606082015260009081906110fe906110f6906080016040516020818303038152906040528051906020012061164b565b868686611699565b905061111c888289896040518060200160405280600081525061139d565b98975050505050505050565b60006111326108b4565b6108aa61074c565b61114261079e565b6001600160a01b0316336001600160a01b03161461115f57600080fd5b6000611169610f3a565b9050600181600381111561118d57634e487b7160e01b600052602160045260246000fd5b141580156111bb575060038160038111156111b857634e487b7160e01b600052602160045260246000fd5b14155b6112075760405162461bcd60e51b815260206004820152601c60248201527f476f7665726e6f723a20636f6e74657374206e6f7420616374697665000000006044820152606401610ada565b6003805460ff191660011790556040517f4cd963a081760a54f571abc0f1db4dde31b4a07d8d6da3e844b8c6f47eeaaa4290600090a150565b600061124c83836116c1565b9392505050565b6060600080548060200260200160405190810160405280929190818152602001828054801561083a57602002820191906000526020600020905b81548152602001906001019080831161128d575050505050905090565b6112b261079e565b6001600160a01b0316336001600160a01b0316146112cf57600080fd5b60005b8151811015611357576040518060600160405280603d8152602001612519603d91396004600084848151811061131857634e487b7160e01b600052603260045260246000fd5b602002602001015181526020019081526020016000206001019080519060200190611344929190611e32565b508061134f816124d1565b9150506112d2565b507f75a75cf5c561892f4cc5b26c1b8e933849b42238c96dd073d080d1ae96c514168160405161138791906122df565b60405180910390a150565b6000610757600c5490565b6000806113a8610f3a565b60038111156113c757634e487b7160e01b600052602160045260246000fd5b146114205760405162461bcd60e51b815260206004820152602360248201527f476f7665726e6f723a20766f7465206e6f742063757272656e746c792061637460448201526269766560e81b6064820152608401610ada565b600083116114965760405162461bcd60e51b815260206004820152603760248201527f476f7665726e6f72566f74696e6753696d706c653a2063616e6e6f7420766f7460448201527f6520776974682030206f7220666577657220766f7465730000000000000000006064820152608401610ada565b60006114a5866106bc60095490565b90506000811161154f5760405162461bcd60e51b815260206004820152606360248201527f476f7665726e6f72566f74696e6753696d706c653a20796f75206d757374206860448201527f6176652067726561746572207468616e20302064656c65676174656420766f7460648201527f65732061742074686520736e617073686f7420696e206f7264657220746f20766084820152626f746560e81b60a482015260c401610ada565b61155c8787878785611766565b856001600160a01b03167fb8e138887d0aa13bab447e82de9d5c1777041ecd21ca36ba824ff1e6c07ddda48887878760405161159b9493929190612404565b60405180910390a29695505050505050565b6040516309ab24eb60e41b81526001600160a01b0382811660048301526000917f000000000000000000000000000000000000000000000000000000000000000090911690639ab24eb09060240160206040518083038186803b15801561161357600080fd5b505afa158015611627573d6000803e3d6000fd5b505050506040513d601f19601f8201168201806040525081019061078d91906120b0565b600061078d611658611a1a565b8360405161190160f01b6020820152602281018390526042810182905260009060620160405160208183030381529060405280519060200120905092915050565b60008060006116aa87878787611b41565b915091506116b781611c2e565b5095945050505050565b604051630748d63560e31b81526001600160a01b038381166004830152602482018390526000917f000000000000000000000000000000000000000000000000000000000000000090911690633a46b1a89060440160206040518083038186803b15801561172e57600080fd5b505afa158015611742573d6000803e3d6000fd5b505050506040513d601f19601f8201168201806040525081019061124c91906120b0565b60008581526010602090815260408083206001600160a01b0388168452600f90925290912054611796908361247f565b8311156118015760405162461bcd60e51b815260206004820152603360248201527f476f7665726e6f72566f74696e6753696d706c653a206e6f7420656e6f756768604482015272081d9bdd195cc81b19599d081d1bc818d85cdd606a1b6064820152608401610ada565b6001600160a01b03851660009081526003820160205260409020541560ff851661187357815484908390600090611839908490612467565b90915550506001600160a01b038616600090815260038301602052604081208054869290611868908490612467565b909155506119ad9050565b60ff851660011415611947576118876109f0565b6001146118fe576040805162461bcd60e51b81526020600482015260248101919091527f476f7665726e6f72566f74696e6753696d706c653a20646f776e766f74696e6760448201527f206973206e6f7420656e61626c656420666f72207468697320436f6e746573746064820152608401610ada565b838260000160010160008282546119159190612467565b90915550506001600160a01b038616600090815260038301602052604081206001018054869290611868908490612467565b60405162461bcd60e51b815260206004820152603560248201527f476f7665726e6f72566f74696e6753696d706c653a20696e76616c69642076616044820152746c756520666f7220656e756d20566f74655479706560581b6064820152608401610ada565b80156119e457600282018054600181018255600091825260209091200180546001600160a01b0319166001600160a01b0388161790555b6001600160a01b0386166000908152600f602052604081208054869290611a0c908490612467565b909155505050505050505050565b6000306001600160a01b037f000000000000000000000000000000000000000000000000000000000000000016148015611a7357507f000000000000000000000000000000000000000000000000000000000000000046145b15611a9d57507f000000000000000000000000000000000000000000000000000000000000000090565b50604080517f00000000000000000000000000000000000000000000000000000000000000006020808301919091527f0000000000000000000000000000000000000000000000000000000000000000828401527f000000000000000000000000000000000000000000000000000000000000000060608301524660808301523060a0808401919091528351808403909101815260c0909201909252805191012090565b6000807f7fffffffffffffffffffffffffffffff5d576e7357a4501ddfe92f46681b20a0831115611b785750600090506003611c25565b8460ff16601b14158015611b9057508460ff16601c14155b15611ba15750600090506004611c25565b6040805160008082526020820180845289905260ff881692820192909252606081018690526080810185905260019060a0016020604051602081039080840390855afa158015611bf5573d6000803e3d6000fd5b5050604051601f1901519150506001600160a01b038116611c1e57600060019250925050611c25565b9150600090505b94509492505050565b6000816004811115611c5057634e487b7160e01b600052602160045260246000fd5b1415611c595750565b6001816004811115611c7b57634e487b7160e01b600052602160045260246000fd5b1415611cc95760405162461bcd60e51b815260206004820152601860248201527f45434453413a20696e76616c6964207369676e617475726500000000000000006044820152606401610ada565b6002816004811115611ceb57634e487b7160e01b600052602160045260246000fd5b1415611d395760405162461bcd60e51b815260206004820152601f60248201527f45434453413a20696e76616c6964207369676e6174757265206c656e677468006044820152606401610ada565b6003816004811115611d5b57634e487b7160e01b600052602160045260246000fd5b1415611db45760405162461bcd60e51b815260206004820152602260248201527f45434453413a20696e76616c6964207369676e6174757265202773272076616c604482015261756560f01b6064820152608401610ada565b6004816004811115611dd657634e487b7160e01b600052602160045260246000fd5b1415611e2f5760405162461bcd60e51b815260206004820152602260248201527f45434453413a20696e76616c6964207369676e6174757265202776272076616c604482015261756560f01b6064820152608401610ada565b50565b828054611e3e90612496565b90600052602060002090601f016020900481019282611e605760008555611ea6565b82601f10611e7957805160ff1916838001178555611ea6565b82800160010185558215611ea6579182015b82811115611ea6578251825591602001919060010190611e8b565b50611eb2929150611eb6565b5090565b5b80821115611eb25760008155600101611eb7565b80356001600160a01b0381168114611ee257600080fd5b919050565b803560ff81168114611ee257600080fd5b600060208284031215611f09578081fd5b61124c82611ecb565b60008060408385031215611f24578081fd5b611f2d83611ecb565b946020939093013593505050565b60006020808385031215611f4d578182fd5b823567ffffffffffffffff80821115611f64578384fd5b818501915085601f830112611f77578384fd5b813581811115611f8957611f89612502565b8060051b9150611f9a848301612436565b8181528481019084860184860187018a1015611fb4578788fd5b8795505b83861015611fd6578035835260019590950194918601918601611fb8565b5098975050505050505050565b600060208284031215611ff4578081fd5b81356001600160e01b03198116811461124c578182fd5b6000602080838503121561201d578182fd5b823567ffffffffffffffff80821115612034578384fd5b818501915085601f830112612047578384fd5b81358181111561205957612059612502565b61206b601f8201601f19168501612436565b91508082528684828501011115612080578485fd5b80848401858401378101909201929092529392505050565b6000602082840312156120a9578081fd5b5035919050565b6000602082840312156120c1578081fd5b5051919050565b600080604083850312156120da578182fd5b823591506120ea60208401611ecb565b90509250929050565b600080600060608486031215612107578081fd5b8335925061211760208501611ee7565b9150604084013590509250925092565b60008060008060006080868803121561213e578081fd5b8535945061214e60208701611ee7565b935060408601359250606086013567ffffffffffffffff80821115612171578283fd5b818801915088601f830112612184578283fd5b813581811115612192578384fd5b8960208285010111156121a3578384fd5b9699959850939650602001949392505050565b60008060008060008060c087890312156121ce578081fd5b863595506121de60208801611ee7565b9450604087013593506121f360608801611ee7565b92506080870135915060a087013590509295509295509295565b6000815180845260208085019450808401835b8381101561223c57815187529582019590820190600101612220565b509495945050505050565b60008151808452815b8181101561226c57602081850181015186830182015201612250565b8181111561227d5782602083870101525b50601f01601f19169290920160200192915050565b6020808252825182820181905260009190848201906040850190845b818110156122d35783516001600160a01b0316835292840192918401916001016122ae565b50909695505050505050565b60208152600061124c602083018461220d565b600060408083526123058184018661220d565b838103602085810191909152855180835286820192820190855b818110156123445784518051845284015184840152938301939185019160010161231f565b509098975050505050505050565b602081016004831061237457634e487b7160e01b600052602160045260246000fd5b91905290565b60208152600061124c6020830184612247565b602080825282516001600160a01b031682820152820151606060408301526000906123bb6080840182612247565b90506040840151151560608401528091505092915050565b8381526060602082015260006123ec6060830185612247565b905060018060a01b0383166040830152949350505050565b84815260ff8416602082015282604082015260806060820152600061242c6080830184612247565b9695505050505050565b604051601f8201601f1916810167ffffffffffffffff8111828210171561245f5761245f612502565b604052919050565b6000821982111561247a5761247a6124ec565b500190565b600082821015612491576124916124ec565b500390565b600181811c908216806124aa57607f821691505b602082108114156124cb57634e487b7160e01b600052602260045260246000fd5b50919050565b60006000198214156124e5576124e56124ec565b5060010190565b634e487b7160e01b600052601160045260246000fd5b634e487b7160e01b600052604160045260246000fdfe546869732070726f706f73616c20686173206265656e2064656c65746564206279207468652063726561746f72206f662074686520636f6e746573742ea2646970667358221220002c441c58ff9139b44f92538c666ac6d2f9f3ef0d0891323e7615d5ead1c79c64736f6c63430008040033",
  "linkReferences": {},
  "deployedLinkReferences": {}
}