{"abi":[{"type":"constructor","inputs":[{"name":"_name","type":"string","internalType":"string"},{"name":"_prompt","type":"string","internalType":"string"},{"name":"_submissionMerkleRoot","type":"bytes32","internalType":"bytes32"},{"name":"_votingMerkleRoot","type":"bytes32","internalType":"bytes32"},{"name":"_constructorIntArgs","type":"tuple","internalType":"struct Governor.ConstructorIntArgs","components":[{"name":"contestStart","type":"uint256","internalType":"uint256"},{"name":"votingDelay","type":"uint256","internalType":"uint256"},{"name":"votingPeriod","type":"uint256","internalType":"uint256"},{"name":"numAllowedProposalSubmissions","type":"uint256","internalType":"uint256"},{"name":"maxProposalCount","type":"uint256","internalType":"uint256"},{"name":"downvotingAllowed","type":"uint256","internalType":"uint256"},{"name":"sortingEnabled","type":"uint256","internalType":"uint256"},{"name":"rankLimit","type":"uint256","internalType":"uint256"},{"name":"percentageToCreator","type":"uint256","internalType":"uint256"},{"name":"costToPropose","type":"uint256","internalType":"uint256"},{"name":"costToVote","type":"uint256","internalType":"uint256"},{"name":"payPerVote","type":"uint256","internalType":"uint256"}]}],"stateMutability":"nonpayable"},{"type":"function","name":"AMOUNT_FOR_SUMBITTER_PROOF","inputs":[],"outputs":[{"name":"","type":"uint256","internalType":"uint256"}],"stateMutability":"view"},{"type":"function","name":"JK_LABS_ADDRESS","inputs":[],"outputs":[{"name":"","type":"address","internalType":"address"}],"stateMutability":"view"},{"type":"function","name":"METADATAS_COUNT","inputs":[],"outputs":[{"name":"","type":"uint256","internalType":"uint256"}],"stateMutability":"view"},{"type":"function","name":"addressSubmitterVerified","inputs":[{"name":"","type":"address","internalType":"address"}],"outputs":[{"name":"","type":"bool","internalType":"bool"}],"stateMutability":"view"},{"type":"function","name":"addressTotalCastVoteCounts","inputs":[{"name":"","type":"address","internalType":"address"}],"outputs":[{"name":"","type":"uint256","internalType":"uint256"}],"stateMutability":"view"},{"type":"function","name":"addressTotalVotes","inputs":[{"name":"","type":"address","internalType":"address"}],"outputs":[{"name":"","type":"uint256","internalType":"uint256"}],"stateMutability":"view"},{"type":"function","name":"addressTotalVotesVerified","inputs":[{"name":"","type":"address","internalType":"address"}],"outputs":[{"name":"","type":"bool","internalType":"bool"}],"stateMutability":"view"},{"type":"function","name":"addressesThatHaveVoted","inputs":[{"name":"","type":"uint256","internalType":"uint256"}],"outputs":[{"name":"","type":"address","internalType":"address"}],"stateMutability":"view"},{"type":"function","name":"allProposalTotalVotes","inputs":[],"outputs":[{"name":"proposalIdsReturn","type":"uint256[]","internalType":"uint256[]"},{"name":"proposalVoteCountsArrayReturn","type":"tuple[]","internalType":"struct GovernorCountingSimple.VoteCounts[]","components":[{"name":"forVotes","type":"uint256","internalType":"uint256"},{"name":"againstVotes","type":"uint256","internalType":"uint256"}]}],"stateMutability":"view"},{"type":"function","name":"cancel","inputs":[],"outputs":[],"stateMutability":"nonpayable"},{"type":"function","name":"canceled","inputs":[],"outputs":[{"name":"","type":"bool","internalType":"bool"}],"stateMutability":"view"},{"type":"function","name":"castVote","inputs":[{"name":"proposalId","type":"uint256","internalType":"uint256"},{"name":"support","type":"uint8","internalType":"uint8"},{"name":"totalVotes","type":"uint256","internalType":"uint256"},{"name":"numVotes","type":"uint256","internalType":"uint256"},{"name":"proof","type":"bytes32[]","internalType":"bytes32[]"}],"outputs":[{"name":"","type":"uint256","internalType":"uint256"}],"stateMutability":"payable"},{"type":"function","name":"castVoteWithoutProof","inputs":[{"name":"proposalId","type":"uint256","internalType":"uint256"},{"name":"support","type":"uint8","internalType":"uint8"},{"name":"numVotes","type":"uint256","internalType":"uint256"}],"outputs":[{"name":"","type":"uint256","internalType":"uint256"}],"stateMutability":"payable"},{"type":"function","name":"checkProof","inputs":[{"name":"addressToCheck","type":"address","internalType":"address"},{"name":"amount","type":"uint256","internalType":"uint256"},{"name":"proof","type":"bytes32[]","internalType":"bytes32[]"},{"name":"voting","type":"bool","internalType":"bool"}],"outputs":[{"name":"verified","type":"bool","internalType":"bool"}],"stateMutability":"view"},{"type":"function","name":"comment","inputs":[{"name":"proposalId","type":"uint256","internalType":"uint256"},{"name":"commentContent","type":"string","internalType":"string"}],"outputs":[{"name":"","type":"uint256","internalType":"uint256"}],"stateMutability":"nonpayable"},{"type":"function","name":"commentIds","inputs":[{"name":"","type":"uint256","internalType":"uint256"}],"outputs":[{"name":"","type":"uint256","internalType":"uint256"}],"stateMutability":"view"},{"type":"function","name":"commentIsDeleted","inputs":[{"name":"","type":"uint256","internalType":"uint256"}],"outputs":[{"name":"","type":"bool","internalType":"bool"}],"stateMutability":"view"},{"type":"function","name":"comments","inputs":[{"name":"","type":"uint256","internalType":"uint256"}],"outputs":[{"name":"author","type":"address","internalType":"address"},{"name":"timestamp","type":"uint256","internalType":"uint256"},{"name":"proposalId","type":"uint256","internalType":"uint256"},{"name":"commentContent","type":"string","internalType":"string"}],"stateMutability":"view"},{"type":"function","name":"contestAddressTotalVotesCast","inputs":[{"name":"userAddress","type":"address","internalType":"address"}],"outputs":[{"name":"userTotalVotesCast","type":"uint256","internalType":"uint256"}],"stateMutability":"view"},{"type":"function","name":"contestDeadline","inputs":[],"outputs":[{"name":"","type":"uint256","internalType":"uint256"}],"stateMutability":"view"},{"type":"function","name":"contestStart","inputs":[],"outputs":[{"name":"","type":"uint256","internalType":"uint256"}],"stateMutability":"view"},{"type":"function","name":"costToPropose","inputs":[],"outputs":[{"name":"","type":"uint256","internalType":"uint256"}],"stateMutability":"view"},{"type":"function","name":"costToVote","inputs":[],"outputs":[{"name":"","type":"uint256","internalType":"uint256"}],"stateMutability":"view"},{"type":"function","name":"creator","inputs":[],"outputs":[{"name":"","type":"address","internalType":"address"}],"stateMutability":"view"},{"type":"function","name":"deleteComments","inputs":[{"name":"commentIdsParam","type":"uint256[]","internalType":"uint256[]"}],"outputs":[],"stateMutability":"nonpayable"},{"type":"function","name":"deleteProposals","inputs":[{"name":"proposalIdsToDelete","type":"uint256[]","internalType":"uint256[]"}],"outputs":[],"stateMutability":"nonpayable"},{"type":"function","name":"deletedCommentIds","inputs":[{"name":"","type":"uint256","internalType":"uint256"}],"outputs":[{"name":"","type":"uint256","internalType":"uint256"}],"stateMutability":"view"},{"type":"function","name":"deletedProposalIds","inputs":[{"name":"","type":"uint256","internalType":"uint256"}],"outputs":[{"name":"","type":"uint256","internalType":"uint256"}],"stateMutability":"view"},{"type":"function","name":"downvotingAllowed","inputs":[],"outputs":[{"name":"","type":"uint256","internalType":"uint256"}],"stateMutability":"view"},{"type":"function","name":"forVotesToProposalIds","inputs":[{"name":"","type":"uint256","internalType":"uint256"},{"name":"","type":"uint256","internalType":"uint256"}],"outputs":[{"name":"","type":"uint256","internalType":"uint256"}],"stateMutability":"view"},{"type":"function","name":"getAllAddressesThatHaveVoted","inputs":[],"outputs":[{"name":"","type":"address[]","internalType":"address[]"}],"stateMutability":"view"},{"type":"function","name":"getAllAuthorsOfDeletedProposals","inputs":[],"outputs":[{"name":"","type":"address[]","internalType":"address[]"}],"stateMutability":"view"},{"type":"function","name":"getAllCommentIds","inputs":[],"outputs":[{"name":"","type":"uint256[]","internalType":"uint256[]"}],"stateMutability":"view"},{"type":"function","name":"getAllDeletedCommentIds","inputs":[],"outputs":[{"name":"","type":"uint256[]","internalType":"uint256[]"}],"stateMutability":"view"},{"type":"function","name":"getAllDeletedProposalIds","inputs":[],"outputs":[{"name":"","type":"uint256[]","internalType":"uint256[]"}],"stateMutability":"view"},{"type":"function","name":"getAllProposalAuthors","inputs":[],"outputs":[{"name":"","type":"address[]","internalType":"address[]"}],"stateMutability":"view"},{"type":"function","name":"getAllProposalIds","inputs":[],"outputs":[{"name":"","type":"uint256[]","internalType":"uint256[]"}],"stateMutability":"view"},{"type":"function","name":"getComment","inputs":[{"name":"commentId","type":"uint256","internalType":"uint256"}],"outputs":[{"name":"","type":"tuple","internalType":"struct GovernorEngagement.CommentCore","components":[{"name":"author","type":"address","internalType":"address"},{"name":"timestamp","type":"uint256","internalType":"uint256"},{"name":"proposalId","type":"uint256","internalType":"uint256"},{"name":"commentContent","type":"string","internalType":"string"}]}],"stateMutability":"view"},{"type":"function","name":"getNumProposalsWithThisManyForVotes","inputs":[{"name":"forVotes","type":"uint256","internalType":"uint256"}],"outputs":[{"name":"count","type":"uint256","internalType":"uint256"}],"stateMutability":"view"},{"type":"function","name":"getOnlyProposalIdWithThisManyForVotes","inputs":[{"name":"forVotes","type":"uint256","internalType":"uint256"}],"outputs":[{"name":"proposalId","type":"uint256","internalType":"uint256"}],"stateMutability":"view"},{"type":"function","name":"getProposal","inputs":[{"name":"proposalId","type":"uint256","internalType":"uint256"}],"outputs":[{"name":"","type":"tuple","internalType":"struct Governor.ProposalCore","components":[{"name":"author","type":"address","internalType":"address"},{"name":"exists","type":"bool","internalType":"bool"},{"name":"description","type":"string","internalType":"string"},{"name":"targetMetadata","type":"tuple","internalType":"struct Governor.TargetMetadata","components":[{"name":"targetAddress","type":"address","internalType":"address"}]},{"name":"safeMetadata","type":"tuple","internalType":"struct Governor.SafeMetadata","components":[{"name":"signers","type":"address[]","internalType":"address[]"},{"name":"threshold","type":"uint256","internalType":"uint256"}]}]}],"stateMutability":"view"},{"type":"function","name":"getProposalComments","inputs":[{"name":"proposalId","type":"uint256","internalType":"uint256"}],"outputs":[{"name":"","type":"uint256[]","internalType":"uint256[]"}],"stateMutability":"view"},{"type":"function","name":"getProposalsWithThisManyForVotes","inputs":[{"name":"forVotes","type":"uint256","internalType":"uint256"}],"outputs":[{"name":"proposalsWithThisManyForVotes","type":"uint256[]","internalType":"uint256[]"}],"stateMutability":"view"},{"type":"function","name":"getRankIndex","inputs":[{"name":"rank","type":"uint256","internalType":"uint256"}],"outputs":[{"name":"rankIndex","type":"uint256","internalType":"uint256"}],"stateMutability":"view"},{"type":"function","name":"getSortedRanks","inputs":[],"outputs":[{"name":"sortedRanksArray","type":"uint256[]","internalType":"uint256[]"}],"stateMutability":"view"},{"type":"function","name":"hashComment","inputs":[{"name":"commentObj","type":"tuple","internalType":"struct GovernorEngagement.CommentCore","components":[{"name":"author","type":"address","internalType":"address"},{"name":"timestamp","type":"uint256","internalType":"uint256"},{"name":"proposalId","type":"uint256","internalType":"uint256"},{"name":"commentContent","type":"string","internalType":"string"}]}],"outputs":[{"name":"","type":"uint256","internalType":"uint256"}],"stateMutability":"pure"},{"type":"function","name":"hashProposal","inputs":[{"name":"proposal","type":"tuple","internalType":"struct Governor.ProposalCore","components":[{"name":"author","type":"address","internalType":"address"},{"name":"exists","type":"bool","internalType":"bool"},{"name":"description","type":"string","internalType":"string"},{"name":"targetMetadata","type":"tuple","internalType":"struct Governor.TargetMetadata","components":[{"name":"targetAddress","type":"address","internalType":"address"}]},{"name":"safeMetadata","type":"tuple","internalType":"struct Governor.SafeMetadata","components":[{"name":"signers","type":"address[]","internalType":"address[]"},{"name":"threshold","type":"uint256","internalType":"uint256"}]}]}],"outputs":[{"name":"","type":"uint256","internalType":"uint256"}],"stateMutability":"pure"},{"type":"function","name":"isOrIsBelowTiedRank","inputs":[{"name":"idx","type":"uint256","internalType":"uint256"}],"outputs":[{"name":"atOrBelowTiedRank","type":"bool","internalType":"bool"}],"stateMutability":"view"},{"type":"function","name":"maxProposalCount","inputs":[],"outputs":[{"name":"","type":"uint256","internalType":"uint256"}],"stateMutability":"view"},{"type":"function","name":"name","inputs":[],"outputs":[{"name":"","type":"string","internalType":"string"}],"stateMutability":"view"},{"type":"function","name":"numAllowedProposalSubmissions","inputs":[],"outputs":[{"name":"","type":"uint256","internalType":"uint256"}],"stateMutability":"view"},{"type":"function","name":"numSubmissions","inputs":[{"name":"","type":"address","internalType":"address"}],"outputs":[{"name":"","type":"uint256","internalType":"uint256"}],"stateMutability":"view"},{"type":"function","name":"officialRewardsModule","inputs":[],"outputs":[{"name":"","type":"address","internalType":"contract RewardsModule"}],"stateMutability":"view"},{"type":"function","name":"payPerVote","inputs":[],"outputs":[{"name":"","type":"uint256","internalType":"uint256"}],"stateMutability":"view"},{"type":"function","name":"percentageToCreator","inputs":[],"outputs":[{"name":"","type":"uint256","internalType":"uint256"}],"stateMutability":"view"},{"type":"function","name":"prompt","inputs":[],"outputs":[{"name":"","type":"string","internalType":"string"}],"stateMutability":"view"},{"type":"function","name":"proposalAddressVotes","inputs":[{"name":"proposalId","type":"uint256","internalType":"uint256"},{"name":"userAddress","type":"address","internalType":"address"}],"outputs":[{"name":"forVotes","type":"uint256","internalType":"uint256"},{"name":"againstVotes","type":"uint256","internalType":"uint256"}],"stateMutability":"view"},{"type":"function","name":"proposalAddressesHaveVoted","inputs":[{"name":"proposalId","type":"uint256","internalType":"uint256"}],"outputs":[{"name":"","type":"address[]","internalType":"address[]"}],"stateMutability":"view"},{"type":"function","name":"proposalAuthors","inputs":[{"name":"","type":"uint256","internalType":"uint256"}],"outputs":[{"name":"","type":"address","internalType":"address"}],"stateMutability":"view"},{"type":"function","name":"proposalComments","inputs":[{"name":"","type":"uint256","internalType":"uint256"},{"name":"","type":"uint256","internalType":"uint256"}],"outputs":[{"name":"","type":"uint256","internalType":"uint256"}],"stateMutability":"view"},{"type":"function","name":"proposalIds","inputs":[{"name":"","type":"uint256","internalType":"uint256"}],"outputs":[{"name":"","type":"uint256","internalType":"uint256"}],"stateMutability":"view"},{"type":"function","name":"proposalIsDeleted","inputs":[{"name":"","type":"uint256","internalType":"uint256"}],"outputs":[{"name":"","type":"bool","internalType":"bool"}],"stateMutability":"view"},{"type":"function","name":"proposalVotes","inputs":[{"name":"proposalId","type":"uint256","internalType":"uint256"}],"outputs":[{"name":"forVotes","type":"uint256","internalType":"uint256"},{"name":"againstVotes","type":"uint256","internalType":"uint256"}],"stateMutability":"view"},{"type":"function","name":"proposalVotesStructs","inputs":[{"name":"","type":"uint256","internalType":"uint256"}],"outputs":[{"name":"proposalVoteCounts","type":"tuple","internalType":"struct GovernorCountingSimple.VoteCounts","components":[{"name":"forVotes","type":"uint256","internalType":"uint256"},{"name":"againstVotes","type":"uint256","internalType":"uint256"}]}],"stateMutability":"view"},{"type":"function","name":"proposals","inputs":[{"name":"","type":"uint256","internalType":"uint256"}],"outputs":[{"name":"author","type":"address","internalType":"address"},{"name":"exists","type":"bool","internalType":"bool"},{"name":"description","type":"string","internalType":"string"},{"name":"targetMetadata","type":"tuple","internalType":"struct Governor.TargetMetadata","components":[{"name":"targetAddress","type":"address","internalType":"address"}]},{"name":"safeMetadata","type":"tuple","internalType":"struct Governor.SafeMetadata","components":[{"name":"signers","type":"address[]","internalType":"address[]"},{"name":"threshold","type":"uint256","internalType":"uint256"}]}],"stateMutability":"view"},{"type":"function","name":"propose","inputs":[{"name":"proposal","type":"tuple","internalType":"struct Governor.ProposalCore","components":[{"name":"author","type":"address","internalType":"address"},{"name":"exists","type":"bool","internalType":"bool"},{"name":"description","type":"string","internalType":"string"},{"name":"targetMetadata","type":"tuple","internalType":"struct Governor.TargetMetadata","components":[{"name":"targetAddress","type":"address","internalType":"address"}]},{"name":"safeMetadata","type":"tuple","internalType":"struct Governor.SafeMetadata","components":[{"name":"signers","type":"address[]","internalType":"address[]"},{"name":"threshold","type":"uint256","internalType":"uint256"}]}]},{"name":"proof","type":"bytes32[]","internalType":"bytes32[]"}],"outputs":[{"name":"","type":"uint256","internalType":"uint256"}],"stateMutability":"payable"},{"type":"function","name":"proposeWithoutProof","inputs":[{"name":"proposal","type":"tuple","internalType":"struct Governor.ProposalCore","components":[{"name":"author","type":"address","internalType":"address"},{"name":"exists","type":"bool","internalType":"bool"},{"name":"description","type":"string","internalType":"string"},{"name":"targetMetadata","type":"tuple","internalType":"struct Governor.TargetMetadata","components":[{"name":"targetAddress","type":"address","internalType":"address"}]},{"name":"safeMetadata","type":"tuple","internalType":"struct Governor.SafeMetadata","components":[{"name":"signers","type":"address[]","internalType":"address[]"},{"name":"threshold","type":"uint256","internalType":"uint256"}]}]}],"outputs":[{"name":"","type":"uint256","internalType":"uint256"}],"stateMutability":"payable"},{"type":"function","name":"rankLimit","inputs":[],"outputs":[{"name":"","type":"uint256","internalType":"uint256"}],"stateMutability":"view"},{"type":"function","name":"setOfficialRewardsModule","inputs":[{"name":"officialRewardsModule_","type":"address","internalType":"contract RewardsModule"}],"outputs":[],"stateMutability":"nonpayable"},{"type":"function","name":"setSubmissionMerkleRoot","inputs":[{"name":"newSubmissionMerkleRoot","type":"bytes32","internalType":"bytes32"}],"outputs":[],"stateMutability":"nonpayable"},{"type":"function","name":"setVotingMerkleRoot","inputs":[{"name":"newVotingMerkleRoot","type":"bytes32","internalType":"bytes32"}],"outputs":[],"stateMutability":"nonpayable"},{"type":"function","name":"sortedRanks","inputs":[{"name":"","type":"uint256","internalType":"uint256"}],"outputs":[{"name":"","type":"uint256","internalType":"uint256"}],"stateMutability":"view"},{"type":"function","name":"sortingEnabled","inputs":[],"outputs":[{"name":"","type":"uint256","internalType":"uint256"}],"stateMutability":"view"},{"type":"function","name":"state","inputs":[],"outputs":[{"name":"","type":"uint8","internalType":"enum Governor.ContestState"}],"stateMutability":"view"},{"type":"function","name":"submissionMerkleRoot","inputs":[],"outputs":[{"name":"","type":"bytes32","internalType":"bytes32"}],"stateMutability":"view"},{"type":"function","name":"totalVotesCast","inputs":[],"outputs":[{"name":"","type":"uint256","internalType":"uint256"}],"stateMutability":"view"},{"type":"function","name":"validateProposalData","inputs":[{"name":"proposal","type":"tuple","internalType":"struct Governor.ProposalCore","components":[{"name":"author","type":"address","internalType":"address"},{"name":"exists","type":"bool","internalType":"bool"},{"name":"description","type":"string","internalType":"string"},{"name":"targetMetadata","type":"tuple","internalType":"struct Governor.TargetMetadata","components":[{"name":"targetAddress","type":"address","internalType":"address"}]},{"name":"safeMetadata","type":"tuple","internalType":"struct Governor.SafeMetadata","components":[{"name":"signers","type":"address[]","internalType":"address[]"},{"name":"threshold","type":"uint256","internalType":"uint256"}]}]}],"outputs":[],"stateMutability":"view"},{"type":"function","name":"verifyProposer","inputs":[{"name":"account","type":"address","internalType":"address"},{"name":"proof","type":"bytes32[]","internalType":"bytes32[]"}],"outputs":[],"stateMutability":"nonpayable"},{"type":"function","name":"verifyVoter","inputs":[{"name":"account","type":"address","internalType":"address"},{"name":"totalVotes","type":"uint256","internalType":"uint256"},{"name":"proof","type":"bytes32[]","internalType":"bytes32[]"}],"outputs":[],"stateMutability":"nonpayable"},{"type":"function","name":"version","inputs":[],"outputs":[{"name":"","type":"string","internalType":"string"}],"stateMutability":"pure"},{"type":"function","name":"voteStart","inputs":[],"outputs":[{"name":"","type":"uint256","internalType":"uint256"}],"stateMutability":"view"},{"type":"function","name":"votingDelay","inputs":[],"outputs":[{"name":"","type":"uint256","internalType":"uint256"}],"stateMutability":"view"},{"type":"function","name":"votingMerkleRoot","inputs":[],"outputs":[{"name":"","type":"bytes32","internalType":"bytes32"}],"stateMutability":"view"},{"type":"function","name":"votingPeriod","inputs":[],"outputs":[{"name":"","type":"uint256","internalType":"uint256"}],"stateMutability":"view"},{"type":"event","name":"CommentCreated","inputs":[{"name":"commentId","type":"uint256","indexed":false,"internalType":"uint256"}],"anonymous":false},{"type":"event","name":"CommentsDeleted","inputs":[{"name":"commentIds","type":"uint256[]","indexed":false,"internalType":"uint256[]"}],"anonymous":false},{"type":"event","name":"ContestCanceled","inputs":[],"anonymous":false},{"type":"event","name":"JokeraceCreated","inputs":[{"name":"version","type":"string","indexed":false,"internalType":"string"},{"name":"name","type":"string","indexed":false,"internalType":"string"},{"name":"prompt","type":"string","indexed":false,"internalType":"string"},{"name":"creator","type":"address","indexed":false,"internalType":"address"},{"name":"contestStart","type":"uint256","indexed":false,"internalType":"uint256"},{"name":"votingDelay","type":"uint256","indexed":false,"internalType":"uint256"},{"name":"votingPeriod","type":"uint256","indexed":false,"internalType":"uint256"}],"anonymous":false},{"type":"event","name":"OfficialRewardsModuleSet","inputs":[{"name":"oldOfficialRewardsModule","type":"address","indexed":false,"internalType":"contract RewardsModule"},{"name":"newOfficialRewardsModule","type":"address","indexed":false,"internalType":"contract RewardsModule"}],"anonymous":false},{"type":"event","name":"PaymentReleased","inputs":[{"name":"to","type":"address","indexed":false,"internalType":"address"},{"name":"amount","type":"uint256","indexed":false,"internalType":"uint256"}],"anonymous":false},{"type":"event","name":"ProposalCreated","inputs":[{"name":"proposalId","type":"uint256","indexed":false,"internalType":"uint256"},{"name":"proposer","type":"address","indexed":false,"internalType":"address"},{"name":"proposalDescription","type":"string","indexed":false,"internalType":"string"}],"anonymous":false},{"type":"event","name":"ProposalsDeleted","inputs":[{"name":"proposalIds","type":"uint256[]","indexed":false,"internalType":"uint256[]"}],"anonymous":false},{"type":"event","name":"VoteCast","inputs":[{"name":"voter","type":"address","indexed":true,"internalType":"address"},{"name":"proposalId","type":"uint256","indexed":false,"internalType":"uint256"},{"name":"support","type":"uint8","indexed":false,"internalType":"uint8"},{"name":"numVotes","type":"uint256","indexed":false,"internalType":"uint256"}],"anonymous":false},{"type":"error","name":"AddressNotPermissionedToSubmit","inputs":[]},{"type":"error","name":"AuthorIsNotSender","inputs":[{"name":"author","type":"address","internalType":"address"},{"name":"sender","type":"address","internalType":"address"}]},{"type":"error","name":"CannotDeleteWhenCompleted","inputs":[]},{"type":"error","name":"CannotVoteOnDeletedProposal","inputs":[]},{"type":"error","name":"ContestAlreadyCancelled","inputs":[]},{"type":"error","name":"ContestMustBeActiveToVote","inputs":[{"name":"currentState","type":"uint8","internalType":"enum Governor.ContestState"}]},{"type":"error","name":"ContestMustBeQueuedToPropose","inputs":[{"name":"currentState","type":"uint8","internalType":"enum Governor.ContestState"}]},{"type":"error","name":"ContestSubmissionLimitReached","inputs":[{"name":"maxProposalCount","type":"uint256","internalType":"uint256"}]},{"type":"error","name":"DownvotingNotEnabled","inputs":[]},{"type":"error","name":"DuplicateSubmission","inputs":[{"name":"proposalId","type":"uint256","internalType":"uint256"}]},{"type":"error","name":"EmptyProposalDescription","inputs":[]},{"type":"error","name":"IncorrectCostSent","inputs":[{"name":"msgValue","type":"uint256","internalType":"uint256"},{"name":"costToVote","type":"uint256","internalType":"uint256"}]},{"type":"error","name":"IndexHasNotBeenPopulated","inputs":[]},{"type":"error","name":"InvalidVoteType","inputs":[]},{"type":"error","name":"MoreThanOneProposalWithThisManyVotes","inputs":[]},{"type":"error","name":"NeedAtLeastOneVoteToVote","inputs":[]},{"type":"error","name":"NeedToSubmitWithProofFirst","inputs":[]},{"type":"error","name":"NeedToVoteWithProofFirst","inputs":[]},{"type":"error","name":"NotEnoughVotesLeft","inputs":[]},{"type":"error","name":"NotInMerkle","inputs":[]},{"type":"error","name":"OnlyCreatorCanDelete","inputs":[]},{"type":"error","name":"OnlyCreatorCanSetRewardsModule","inputs":[]},{"type":"error","name":"OnlyCreatorOrAuthorCanDeleteComments","inputs":[{"name":"failedToDeleteCommentId","type":"uint256","internalType":"uint256"}]},{"type":"error","name":"OnlyJkLabsCanAmend","inputs":[]},{"type":"error","name":"OnlyJkLabsOrCreatorCanCancel","inputs":[]},{"type":"error","name":"RankCannotBeZero","inputs":[]},{"type":"error","name":"RankIsNotInSortedRanks","inputs":[]},{"type":"error","name":"SenderSubmissionLimitReached","inputs":[{"name":"numAllowedProposalSubmissions","type":"uint256","internalType":"uint256"}]},{"type":"error","name":"UnexpectedMetadata","inputs":[{"name":"unexpectedMetadata","type":"uint8","internalType":"enum Governor.Metadatas"}]},{"type":"error","name":"ZeroSignersInSafeMetadata","inputs":[]},{"type":"error","name":"ZeroThresholdInSafeMetadata","inputs":[]}],"bytecode":{"object":"0x60806040523480156200001157600080fd5b5060405162004b0738038062004b07833981016040819052620000349162000248565b60c081015160e08201516000919091556001556003839055600482905584848484846005620000648682620003fe565b506006620000738582620003fe565b50600780546001600160a01b0319163390811790915581516008556020808301805160095560408085018051600a556060860151600b556080860151600c5560a0860151600d55610100860151600e55610120860151600f55610140860151601055610160860151601155815180830183526004815263342e323560e01b9481019490945285519251905191517f9a9bca21e4e51607db64fbdbcd7b2284a909c6a8969821f0d161efbdcae70160956200013795948c948c949293919291620004f8565b60405180910390a15050505050505050505062000567565b634e487b7160e01b600052604160045260246000fd5b60405161018081016001600160401b03811182821017156200018b576200018b6200014f565b60405290565b60005b83811015620001ae57818101518382015260200162000194565b50506000910152565b600082601f830112620001c957600080fd5b81516001600160401b0380821115620001e657620001e66200014f565b604051601f8301601f19908116603f011681019082821181831017156200021157620002116200014f565b816040528381528660208588010111156200022b57600080fd5b6200023e84602083016020890162000191565b9695505050505050565b60008060008060008587036102008112156200026357600080fd5b86516001600160401b03808211156200027b57600080fd5b620002898a838b01620001b7565b97506020890151915080821115620002a057600080fd5b50620002af89828a01620001b7565b955050604087015193506060870151925061018080607f1983011215620002d557600080fd5b620002df62000165565b91506080880151825260a0880151602083015260c0880151604083015260e08801516060830152610100808901516080840152610120808a015160a0850152610140808b015160c0860152610160808c015160e0870152848c0151848701526101a08c0151838701526101c08c0151828701526101e08c0151818701525050505050809150509295509295909350565b600181811c908216806200038457607f821691505b602082108103620003a557634e487b7160e01b600052602260045260246000fd5b50919050565b601f821115620003f957600081815260208120601f850160051c81016020861015620003d45750805b601f850160051c820191505b81811015620003f557828155600101620003e0565b5050505b505050565b81516001600160401b038111156200041a576200041a6200014f565b62000432816200042b84546200036f565b84620003ab565b602080601f8311600181146200046a5760008415620004515750858301515b600019600386901b1c1916600185901b178555620003f5565b600085815260208120601f198616915b828110156200049b578886015182559484019460019091019084016200047a565b5085821015620004ba5787850151600019600388901b60f8161c191681555b5050505050600190811b01905550565b60008151808452620004e481602086016020860162000191565b601f01601f19169290920160200192915050565b60e0815260006200050d60e083018a620004ca565b828103602084015262000521818a620004ca565b90508281036040840152620005378189620004ca565b6001600160a01b039790971660608401525050608081019390935260a083019190915260c0909101529392505050565b61459080620005776000396000f3fe60806040526004361061049e5760003560e01c8063711effc811610260578063c19d93fb11610144578063ea8a1af0116100c1578063f4f3d7ec11610085578063f4f3d7ec14610e8c578063f5c3641114610eac578063f61736f414610ecc578063f79c017214610eec578063fb8ddab414610f1c578063fb9bf8d414610f3c57600080fd5b8063ea8a1af014610e04578063edcd1be414610e19578063eef18e1714610e2f578063efa90d3614610e57578063f0a7db0a14610e6c57600080fd5b8063daf762db11610108578063daf762db14610d77578063dd96a19d14610d97578063dea5f6a614610dad578063e031535b14610dda578063e11db9d814610def57600080fd5b8063c19d93fb14610cc3578063c7f758a814610ce5578063c9a1b6b214610d12578063cb85395014610d32578063cbdc27cb14610d6257600080fd5b80639b644a23116101dd578063aec116b6116101a1578063aec116b614610c04578063b323580d14610c3a578063b66d1da314610c5a578063bddc164114610c7a578063c05f410414610c90578063c0ffaa7814610cb057600080fd5b80639b644a2314610b3b5780639ba197af14610b5b578063a1ac6cb214610b87578063ac67f80114610bb4578063ae66b8ad14610bd457600080fd5b8063832009af11610224578063832009af14610a905780638ebb4c1514610aa65780639174778c14610ad6578063930de97914610af6578063946369b514610b2657600080fd5b8063711effc8146109f857806375e509c514610a18578063785ddfe514610a455780637c65d71114610a655780637de418d514610a7a57600080fd5b80633f9942ff11610387578063531bd812116103045780635cb718a1116102c85780635cb718a11461096f57806360506ff61461098457806365f162631461099a5780636e4eb810146109ad5780636ed815ad146109cd5780636fd3636b146109e357600080fd5b8063531bd81214610898578063544c7bb4146108b8578063544ffc9c146108d857806354fd4d50146109225780635c7107d81461094f57600080fd5b8063476f4d8a1161034b578063476f4d8a146108175780634d24a67f1461082a57806350a5e5241461083f57806350c4b6161461086257806351a41dec1461088257600080fd5b80633f9942ff1461078a5780633fb57c92146107a4578063409fd030146107c4578063419c533c146107e4578063458da87d146107f757600080fd5b80630aa25e44116104205780632c39805f116103e45780632c39805f146106d0578063325cc6d9146106f257806332763c2214610712578063347cf66514610742578063366ecf5b1461075e5780633932abb11461077457600080fd5b80630aa25e44146106375780631242b737146106575780631805c5231461067957806320b3e84514610699578063262e59e9146106bb57600080fd5b80630414126a116104675780630414126a1461056157806305846cae1461057757806306fdde0314610597578063070dc5d9146105b95780630800e3001461060a57600080fd5b80624114a8146104a3578063013cf08b146104cc57806302a251a3146104fd57806302d05d3f1461051357806303f7eed61461054b575b600080fd5b3480156104af57600080fd5b506104b960085481565b6040519081526020015b60405180910390f35b3480156104d857600080fd5b506104ec6104e7366004613793565b610f52565b6040516104c395949392919061384b565b34801561050957600080fd5b506104b9600a5481565b34801561051f57600080fd5b50600754610533906001600160a01b031681565b6040516001600160a01b0390911681526020016104c3565b34801561055757600080fd5b506104b960115481565b34801561056d57600080fd5b506104b960015481565b34801561058357600080fd5b506104b9610592366004613793565b61109a565b3480156105a357600080fd5b506105ac6110bb565b6040516104c39190613890565b3480156105c557600080fd5b506105fd6105d4366004613793565b601f60209081526000918252604091829020825180840190935280548352600101549082015281565b6040516104c391906138a3565b34801561061657600080fd5b5061062a610625366004613793565b611149565b6040516104c391906138ba565b34801561064357600080fd5b50610533610652366004613793565b61125d565b34801561066357600080fd5b5061066c611287565b6040516104c3919061393e565b34801561068557600080fd5b506104b9610694366004613a72565b6112df565b3480156106a557600080fd5b506106b96106b4366004613b11565b611400565b005b3480156106c757600080fd5b506104b961146f565b3480156106dc57600080fd5b506106e561148b565b6040516104c39190613b65565b3480156106fe57600080fd5b506104b961070d366004613793565b6114ec565b34801561071e57600080fd5b5061073261072d366004613bc7565b6114fc565b60405190151581526020016104c3565b34801561074e57600080fd5b506104b9678ac7230489e8000081565b34801561076a57600080fd5b506104b960005481565b34801561078057600080fd5b506104b960095481565b34801561079657600080fd5b506015546107329060ff1681565b3480156107b057600080fd5b506104b96107bf366004613793565b6115fb565b3480156107d057600080fd5b506104b96107df366004613c37565b61160b565b6104b96107f2366004613cf3565b61163c565b34801561080357600080fd5b506104b9610812366004613f02565b6116ad565b6104b9610825366004613f4e565b6116c0565b34801561083657600080fd5b506104b961173a565b34801561084b57600080fd5b50610854611748565b6040516104c3929190613f82565b34801561086e57600080fd5b5061053361087d366004613793565b61184e565b34801561088e57600080fd5b506104b960105481565b3480156108a457600080fd5b506106b96108b3366004613feb565b61185e565b3480156108c457600080fd5b506106b96108d3366004613793565b6118c4565b3480156108e457600080fd5b5061090d6108f3366004613793565b6000908152601f6020526040902080546001909101549091565b604080519283526020830191909152016104c3565b34801561092e57600080fd5b50604080518082019091526004815263342e323560e01b60208201526105ac565b34801561095b57600080fd5b506104b961096a366004613793565b6118fd565b34801561097b57600080fd5b5061066c611a03565b34801561099057600080fd5b506104b9600d5481565b6104b96109a8366004614046565b611a59565b3480156109b957600080fd5b5061090d6109c836600461407b565b611af4565b3480156109d957600080fd5b506104b9600f5481565b3480156109ef57600080fd5b5061066c611b29565b348015610a0457600080fd5b506104b9610a133660046140ab565b611b7f565b348015610a2457600080fd5b506104b9610a333660046140cd565b60176020526000908152604090205481565b348015610a5157600080fd5b50602154610533906001600160a01b031681565b348015610a7157600080fd5b506105ac611baf565b348015610a8657600080fd5b506104b9601d5481565b348015610a9c57600080fd5b506104b9600b5481565b348015610ab257600080fd5b50610ac6610ac1366004613793565b611bbc565b6040516104c394939291906140ea565b348015610ae257600080fd5b50610732610af1366004613793565b611c79565b348015610b0257600080fd5b50610732610b113660046140cd565b601b6020526000908152604090205460ff1681565b348015610b3257600080fd5b506106e5611d1e565b348015610b4757600080fd5b506104b9610b56366004613793565b611d7e565b348015610b6757600080fd5b506104b9610b76366004613793565b600090815260208052604090205490565b348015610b9357600080fd5b506104b9610ba23660046140cd565b601e6020526000908152604090205481565b348015610bc057600080fd5b506106b9610bcf366004614117565b611d8e565b348015610be057600080fd5b50610732610bef366004613793565b60266020526000908152604090205460ff1681565b348015610c1057600080fd5b506104b9610c1f3660046140cd565b6001600160a01b03166000908152601e602052604090205490565b348015610c4657600080fd5b506106e5610c55366004613793565b611ec8565b348015610c6657600080fd5b506104b9610c75366004613793565b611f3a565b348015610c8657600080fd5b506104b960035481565b348015610c9c57600080fd5b5061066c610cab366004613793565b611f98565b6104b9610cbe3660046141a7565b611ffa565b348015610ccf57600080fd5b50610cd8612043565b6040516104c39190614218565b348015610cf157600080fd5b50610d05610d00366004613793565b612094565b6040516104c39190614232565b348015610d1e57600080fd5b5061066c610d2d366004613793565b61220e565b348015610d3e57600080fd5b50610732610d4d3660046140cd565b601c6020526000908152604090205460ff1681565b348015610d6e57600080fd5b506106e561226c565b348015610d8357600080fd5b506106b9610d92366004613793565b61239c565b348015610da357600080fd5b506104b960045481565b348015610db957600080fd5b506104b9610dc83660046140cd565b601a6020526000908152604090205481565b348015610de657600080fd5b506104b96123d5565b348015610dfb57600080fd5b5061066c6123e7565b348015610e1057600080fd5b506106b961243d565b348015610e2557600080fd5b506104b9600e5481565b348015610e3b57600080fd5b5061053373dc652c746a8f85e18ce632d97c6118e8a52fa73881565b348015610e6357600080fd5b5061066c612501565b348015610e7857600080fd5b506106b9610e87366004614299565b612557565b348015610e9857600080fd5b506106b9610ea73660046140cd565b6126b2565b348015610eb857600080fd5b506104b9610ec7366004613793565b612737565b348015610ed857600080fd5b506104b9610ee73660046140ab565b612747565b348015610ef857600080fd5b50610732610f07366004613793565b60146020526000908152604090205460ff1681565b348015610f2857600080fd5b506106b9610f37366004613f02565b612763565b348015610f4857600080fd5b506104b9600c5481565b601660205260009081526040902080546001820180546001600160a01b03831693600160a01b90930460ff16929190610f8a906142da565b80601f0160208091040260200160405190810160405280929190818152602001828054610fb6906142da565b80156110035780601f10610fd857610100808354040283529160200191611003565b820191906000526020600020905b815481529060010190602001808311610fe657829003601f168201915b5050604080516020808201835260028801546001600160a01b03168252825160038901805460609381028301840186529482018581529899939893975090955093508492849184018282801561108257602002820191906000526020600020905b81546001600160a01b03168152600190910190602001808311611064575b50505050508152602001600182015481525050905085565b601381815481106110aa57600080fd5b600091825260209091200154905081565b600580546110c8906142da565b80601f01602080910402602001604051908101604052809291908181526020018280546110f4906142da565b80156111415780601f1061111657610100808354040283529160200191611141565b820191906000526020600020905b81548152906001019060200180831161112457829003601f168201915b505050505081565b61117d604051806080016040528060006001600160a01b031681526020016000815260200160008152602001606081525090565b600082815260246020908152604091829020825160808101845281546001600160a01b031681526001820154928101929092526002810154928201929092526003820180549192916060840191906111d4906142da565b80601f0160208091040260200160405190810160405280929190818152602001828054611200906142da565b801561124d5780601f106112225761010080835404028352916020019161124d565b820191906000526020600020905b81548152906001019060200180831161123057829003601f168201915b5050505050815250509050919050565b6018818154811061126d57600080fd5b6000918252602090912001546001600160a01b0316905081565b606060138054806020026020016040519081016040528092919081815260200182805480156112d557602002820191906000526020600020905b8154815260200190600101908083116112c1575b5050505050905090565b60408051608081018252338152426020820152908101839052606081018290526000908161130c8261160b565b6022805460018082019092557f61035b26e3e9eee00e0d72fd1ee8ddca6894550dca6916ea2ac6baa90d11e51001829055600082815260246020908152604091829020865181546001600160a01b0319166001600160a01b0390911617815590860151928101929092558401516002820155606084015191925083916003820190611397908261435c565b505050600085815260256020908152604080832080546001810182559084529190922001829055517f5a1a930fed43f34b3a07db782ebcac28a661c273e662bb98458cfba5a8ccd220906113ee9083815260200190565b60405180910390a19150505b92915050565b6001600160a01b0383166000908152601c602052604090205460ff1661146a5760035460000361142f57505050565b61144583678ac7230489e80000848460006114fc565b506001600160a01b0383166000908152601c60205260409020805460ff191660011790555b505050565b6000600a5461147c6123d5565b6114869190614431565b905090565b606060198054806020026020016040519081016040528092919081815260200182805480156112d557602002820191906000526020600020905b81546001600160a01b031681526001909101906020018083116114c5575050505050905090565b600281815481106110aa57600080fd5b6040516bffffffffffffffffffffffff19606087901b16602082015260348101859052600090819060540160405160208183030381529060405280519060200120905060008361158c576115878686808060200260200160405190810160405280939291908181526020018383602002808284376000920191909152505060035491508590506128b2565b6115cd565b6115cd8686808060200260200160405190810160405280939291908181526020018383602002808284376000920191909152505060045491508590506128b2565b9050806115ed5760405163452c2df160e11b815260040160405180910390fd5b506001979650505050505050565b602381815481106110aa57600080fd5b60008160405160200161161e91906138ba565b60408051601f19818403018152919052805160209091012092915050565b60008061164a6001866128c8565b600089815260146020526040902054909150339060ff161561167f576040516358f1119560e01b815260040160405180910390fd5b61168b8188878761185e565b61169482612959565b6116a089828a89612a6f565b9998505050505050505050565b60008160405160200161161e9190614232565b6000806116ce6000806128c8565b6003549091501561170957336000908152601c602052604090205460ff1661170957604051631f22097560e01b815260040160405180910390fd5b611715610f3784614444565b600061172861172385614444565b612bb6565b905061173382612959565b9392505050565b611745600180614431565b81565b6060806000611755612501565b9050600081516001600160401b0381111561177257611772613951565b6040519080825280602002602001820160405280156117b757816020015b60408051808201909152600080825260208201528152602001906001900390816117905790505b50905060005b825181101561184457601f60008483815181106117dc576117dc614450565b602002602001015181526020019081526020016000206000016040518060400160405290816000820154815260200160018201548152505082828151811061182657611826614450565b6020026020010181905250808061183c90614466565b9150506117bd565b5090939092509050565b6019818154811061126d57600080fd5b6001600160a01b0384166000908152601b602052604090205460ff166118be5761188c8484848460016114fc565b506001600160a01b0384166000908152601a60209081526040808320869055601b9091529020805460ff191660011790555b50505050565b3373dc652c746a8f85e18ce632d97c6118e8a52fa738146118f85760405163de07280160e01b815260040160405180910390fd5b600455565b60008160000361192057604051630ec90a1760e31b815260040160405180910390fd5b6002805460408051602080840282018101909252828152919260009291849083018282801561196e57602002820191906000526020600020905b81548152602001906001019080831161195a575b5050505050905060006001905060005b838110156119e9576119b483828151811061199b5761199b614450565b6020026020010151600090815260208052604090205490565b156119d7578582036119c95795945050505050565b816119d381614466565b9250505b806119e181614466565b91505061197e565b50604051632cc2ab7360e11b815260040160405180910390fd5b606060238054806020026020016040519081016040528092919081815260200182805480156112d557602002820191906000526020600020908154815260200190600101908083116112c1575050505050905090565b600080611a676001846128c8565b600086815260146020526040902054909150339060ff1615611a9c576040516358f1119560e01b815260040160405180910390fd5b6001600160a01b0381166000908152601b602052604090205460ff16611ad55760405163126ec6d160e31b815260040160405180910390fd5b611ade82612959565b611aea86828787612a6f565b9695505050505050565b6000828152601f602090815260408083206001600160a01b0385168452600301909152902080546001909101545b9250929050565b606060028054806020026020016040519081016040528092919081815260200182805480156112d557602002820191906000526020600020908154815260200190600101908083116112c1575050505050905090565b602080528160005260406000208181548110611b9a57600080fd5b90600052602060002001600091509150505481565b600680546110c8906142da565b60246020526000908152604090208054600182015460028301546003840180546001600160a01b03909416949293919291611bf6906142da565b80601f0160208091040260200160405190810160405280929190818152602001828054611c22906142da565b8015611c6f5780601f10611c4457610100808354040283529160200191611c6f565b820191906000526020600020905b815481529060010190602001808311611c5257829003601f168201915b5050505050905084565b600254600090611c8b9060019061447f565b821115611cab576040516365d6f35160e11b815260040160405180910390fd5b60005b611cb9836001614431565b811015611d15576001611cf460028381548110611cd857611cd8614450565b9060005260206000200154600090815260208052604090205490565b1115611d035750600192915050565b80611d0d81614466565b915050611cae565b50600092915050565b606060188054806020026020016040519081016040528092919081815260200182805480156112d5576020028201919060005260206000209081546001600160a01b031681526001909101906020018083116114c5575050505050905090565b601281815481106110aa57600080fd5b805160005b81811015611e8c576000838281518110611daf57611daf614450565b60209081029190910101516007549091506001600160a01b03163314801590611def57506000818152602460205260409020546001600160a01b03163314155b15611e1557604051635450763d60e11b8152600481018290526024015b60405180910390fd5b60008181526026602052604090205460ff16611e79576000818152602660205260408120805460ff191660019081179091556023805491820181559091527fd57b2b5166478fd4318d2acc6cc2c704584312bdd8781b32d5d06abda57f4230018190555b5080611e8481614466565b915050611d93565b507f788a4349d25bc08585923ae212bce8bb346a623bce753eeecb85fd9ce58dcb4b82604051611ebc919061393e565b60405180910390a15050565b6000818152601f60209081526040918290206002810180548451818502810185019095528085526060949293830182828015611f2d57602002820191906000526020600020905b81546001600160a01b03168152600190910190602001808311611f0f575b5050505050915050919050565b6000818152602080526040812054600114611f6857604051633832a15560e21b815260040160405180910390fd5b600082815260208052604081208054909190611f8657611f86614450565b90600052602060002001549050919050565b600081815260256020908152604091829020805483518184028101840190945280845260609392830182828015611fee57602002820191906000526020600020905b815481526020019060010190808311611fda575b50505050509050919050565b6000806120086000806128c8565b9050612015338585611400565b612021610f3786614444565b600061202f61172387614444565b905061203a82612959565b95945050505050565b60155460009060ff16156120575750600290565b42600854106120665750600090565b4261206f6123d5565b1061207a5750600390565b4261208361146f565b1061208e5750600190565b50600490565b61209c6136a8565b600082815260166020908152604091829020825160a08101845281546001600160a01b0381168252600160a01b900460ff1615159281019290925260018101805492939192918401916120ee906142da565b80601f016020809104026020016040519081016040528092919081815260200182805461211a906142da565b80156121675780601f1061213c57610100808354040283529160200191612167565b820191906000526020600020905b81548152906001019060200180831161214a57829003601f168201915b5050509183525050604080516020818101835260028501546001600160a01b031682528084019190915281516003850180546060938102830184018552828501818152949095019491939092849284918401828280156121f057602002820191906000526020600020905b81546001600160a01b031681526001909101906020018083116121d2575b50505050508152602001600182015481525050815250509050919050565b60008181526020808052604091829020805483518184028101840190945280845260609392830182828015611fee5760200282019190600052602060002090815481526020019060010190808311611fda5750505050509050919050565b6060600060138054806020026020016040519081016040528092919081815260200182805480156122bc57602002820191906000526020600020905b8154815260200190600101908083116122a8575b50505050509050600081516001600160401b038111156122de576122de613951565b604051908082528060200260200182016040528015612307578160200160208202803683370190505b50905060005b8251811015612395576016600084838151811061232c5761232c614450565b6020026020010151815260200190815260200160002060000160009054906101000a90046001600160a01b031682828151811061236b5761236b614450565b6001600160a01b03909216602092830291909101909101528061238d81614466565b91505061230d565b5092915050565b3373dc652c746a8f85e18ce632d97c6118e8a52fa738146123d05760405163de07280160e01b815260040160405180910390fd5b600355565b60006009546008546114869190614431565b606060228054806020026020016040519081016040528092919081815260200182805480156112d557602002820191906000526020600020908154815260200190600101908083116112c1575050505050905090565b6007546001600160a01b0316331480159061246c57503373dc652c746a8f85e18ce632d97c6118e8a52fa73814155b1561248a576040516301dbf46f60e71b815260040160405180910390fd5b6000612494612043565b905060028160048111156124aa576124aa614202565b036124c857604051633c30acbf60e01b815260040160405180910390fd5b6015805460ff191660011790556040517f4cd963a081760a54f571abc0f1db4dde31b4a07d8d6da3e844b8c6f47eeaaa4290600090a150565b606060128054806020026020016040519081016040528092919081815260200182805480156112d557602002820191906000526020600020908154815260200190600101908083116112c1575050505050905090565b6007546001600160a01b031633146125825760405163b8d4540960e01b815260040160405180910390fd5b600461258c612043565b600481111561259d5761259d614202565b036125bb576040516331da1c8b60e11b815260040160405180910390fd5b60005b818110156126605760008383838181106125da576125da614450565b60209081029290920135600081815260149093526040909220549192505060ff1661264d576000818152601460205260408120805460ff191660019081179091556013805491820181559091527f66de8ffda797e3de9c05e8fc57b3bf0ec28a930d40b0d285d93c06501cf6a090018190555b508061265881614466565b9150506125be565b50600d5415801561267357506000546001145b15612682576126828282612e34565b7f75a75cf5c561892f4cc5b26c1b8e933849b42238c96dd073d080d1ae96c514166012604051611ebc9190614492565b6007546001600160a01b031633146126dd57604051630f4cb1bd60e11b815260040160405180910390fd5b602180546001600160a01b038381166001600160a01b031983168117909355604080519190921680825260208201939093527f753a2cf8d360cff631674504210913e48247f8e56b3e6d2006c2103d4095999f9101611ebc565b602281815481106110aa57600080fd5b60256020528160005260406000208181548110611b9a57600080fd5b80516001600160a01b031633146127a157805160405163fbbf4d7f60e01b81526001600160a01b039091166004820152336024820152604401611e0c565b60005b6127af600180614431565b8110156128885760008160018111156127ca576127ca614202565b905060008160018111156127e0576127e0614202565b036127eb5750612876565b60018160018111156127ff576127ff614202565b03612859576080830151515160000361282b5760405163c3b2798b60e01b815260040160405180910390fd5b826080015160200151600003612854576040516392fb9a3560e01b815260040160405180910390fd5b612874565b8060405163d2277d4960e01b8152600401611e0c91906144cd565b505b8061288081614466565b9150506127a4565b508060400151516000036128af5760405163e182473360e01b815260040160405180910390fd5b50565b6000826128bf8584612e91565b14949350505050565b600080808460018111156128de576128de614202565b036128ec5750600f54612930565b600184600181111561290057612900614202565b0361292c5760115460011461291757601054612925565b8260105461292591906144e1565b9050612930565b5060005b803414611733576040516372c3eaa760e01b815234600482015260248101829052604401611e0c565b80156128af5760006064600e546064612972919061447f565b61297c90346144e1565b61298691906144f8565b905080156129fa576129ac73dc652c746a8f85e18ce632d97c6118e8a52fa73882612ede565b6040805173dc652c746a8f85e18ce632d97c6118e8a52fa7388152602081018390527fdf20fd1e76bc69d672e4814fafb2c449bba3a5369d8359adf9e05e6fde87b056910160405180910390a15b6000612a06823461447f565b9050801561146a57600754612a24906001600160a01b031682612ede565b600754604080516001600160a01b039092168252602082018390527fdf20fd1e76bc69d672e4814fafb2c449bba3a5369d8359adf9e05e6fde87b056910160405180910390a1505050565b60006001612a7b612043565b6004811115612a8c57612a8c614202565b14612ab357612a99612043565b60405163049cab4960e51b8152600401611e0c9190614218565b81600003612ad45760405163502e1c2960e01b815260040160405180910390fd5b612b0685858585601a60008a6001600160a01b03166001600160a01b0316815260200190815260200160002054612ff7565b601980546001810182556000919091527f944998273e477b495144fb8794c914197f3ccb46be2900f4698fd0ef743c96950180546001600160a01b031916331790556040805186815260ff851660208201529081018390526001600160a01b038516907f2c9deb38f462962eadbd85a9d3a4120503ee091f1582eaaa10aa8c6797651d299060600160405180910390a25050506001600160a01b03166000908152601a6020526040902054919050565b60006003612bc2612043565b6004811115612bd357612bd3614202565b14612bfa57612be0612043565b604051632889531360e01b8152600401611e0c9190614218565b600b543360009081526017602052604090205403612c3157600b54604051632bd6d93960e21b8152600401611e0c91815260200190565b600c54601354601254612c44919061447f565b03612c6857600c546040516302217f5360e51b8152600401611e0c91815260200190565b6000612c73836116ad565b600081815260166020526040902054909150600160a01b900460ff1615612cb05760405163baffc42360e01b815260048101829052602401611e0c565b6012805460018181019092557fbb8a6a4669ba250d26cd7a459eca9d215f8307e33aebe50379bc5a3617ec34440182905560008281526016602090815260409182902086518154928801511515600160a01b026001600160a81b03199093166001600160a01b0390911617919091178155908501518592820190612d34908261435c565b506060820151516002820180546001600160a01b0319166001600160a01b039092169190911790556080820151805180516003840191612d7991839160200190613719565b5060209182015160019182015533600090815260179092526040822080549194509250612da7908490614431565b9091555050601880546001810182556000919091527fb13d2d76d1f4b7be834882e410b3e3a8afaf69f83600ae24db354391d2378d2e0180546001600160a01b0319163390811790915560408085015190517f7585f467599d0f008985f231af99293be388626ac16ca59505c2f8f88969cd6392612e2692859261451a565b60405180910390a192915050565b60005b8181101561146a576000838383818110612e5357612e53614450565b602090810292909201356000818152601f909352604090922054919250612e7c9050828261325c565b50508080612e8990614466565b915050612e37565b600081815b8451811015612ed657612ec282868381518110612eb557612eb5614450565b6020026020010151613385565b915080612ece81614466565b915050612e96565b509392505050565b80471015612f2e5760405162461bcd60e51b815260206004820152601d60248201527f416464726573733a20696e73756666696369656e742062616c616e63650000006044820152606401611e0c565b6000826001600160a01b03168260405160006040518083038185875af1925050503d8060008114612f7b576040519150601f19603f3d011682016040523d82523d6000602084013e612f80565b606091505b505090508061146a5760405162461bcd60e51b815260206004820152603a60248201527f416464726573733a20756e61626c6520746f2073656e642076616c75652c207260448201527f6563697069656e74206d617920686176652072657665727465640000000000006064820152608401611e0c565b6000858152601f602090815260408083206001600160a01b0388168452601e90925290912054613027908361447f565b8311156130475760405163660fa07360e11b815260040160405180910390fd5b6001600160a01b038516600090815260038201602052604081205415801561308a57506001600160a01b0386166000908152600383016020526040902060010154155b905060ff85166130e2578154849083906000906130a8908490614431565b90915550506001600160a01b0386166000908152600383016020526040812080548692906130d7908490614431565b909155506131739050565b60001960ff86160161315a57600d5460011461311157604051639755958f60e01b815260040160405180910390fd5b838260000160010160008282546131289190614431565b90915550506001600160a01b0386166000908152600383016020526040812060010180548692906130d7908490614431565b604051638eed55d160e01b815260040160405180910390fd5b80156131aa57600282018054600181018255600091825260209091200180546001600160a01b0319166001600160a01b0388161790555b6001600160a01b0386166000908152601e6020526040812080548692906131d2908490614431565b9250508190555083601d60008282546131eb9190614431565b9091555050600d5415801561320257506000546001145b156132535781546000613215868361447f565b9050801561322757613227898261325c565b6000828152602080805260408220805460018101825590835291200189905561325081836133b4565b50505b50505050505050565b600081815260208080526040808320805482518185028101850190935280835291929091908301828280156132b057602002820191906000526020600020905b81548152602001906001019080831161329c575b5050505050905060005b81518110156118be57838282815181106132d6576132d6614450565b6020026020010151036133735781600183516132f2919061447f565b8151811061330257613302614450565b602002602001015160206000858152602001908152602001600020828154811061332e5761332e614450565b60009182526020808320909101929092558481529080526040902080548061335857613358614544565b600190038181906000526020600020016000905590556118be565b8061337d81614466565b9150506132ba565b60008183106133a1576000828152602084905260409020611733565b6000838152602083905260409020611733565b6002805460408051602080840282018101909252828152919260009291849083018282801561340257602002820191906000526020600020905b8154815260200190600101908083116133ee575b5050505050905081600003613449575050600280546001810182556000919091527f405787fa12a823e0f2b7631cc41b3ba8828b3321ca811111fa75cd3aa3bb5ace015550565b8061345560018461447f565b8151811061346557613465614450565b60200260200101518310156134bb5760015482036134835750505050565b5050600280546001810182556000919091527f405787fa12a823e0f2b7631cc41b3ba8828b3321ca811111fa75cd3aa3bb5ace015550565b6118be848484846000805b83811015613530578281815181106134e0576134e0614450565b602002602001015185036134f55750506118be565b82818151811061350757613507614450565b602002602001015185111561351e57809150613530565b8061352881614466565b9150506134c6565b506000808611801561354d57506000868152602080526040902054155b9050600081801561357657508684848151811061356c5761356c614450565b6020026020010151145b61367f5761358560018661447f565b831461362d576000613598846001614431565b90505b8581101561362b57846135af60018361447f565b815181106135bf576135bf614450565b6020026020010151600282815481106135da576135da614450565b60009182526020909120015582801561360b57508785828151811061360157613601614450565b6020026020010151145b15613619576001915061362b565b8061362381614466565b91505061359b565b505b8015801561363c575060015485105b1561367f5760028461364f60018861447f565b8151811061365f5761365f614450565b602090810291909101810151825460018101845560009384529190922001555b856002848154811061369357613693614450565b60009182526020909120015550505050505050565b6040518060a0016040528060006001600160a01b03168152602001600015158152602001606081526020016136f2604051806020016040528060006001600160a01b031681525090565b8152602001613714604051806040016040528060608152602001600081525090565b905290565b82805482825590600052602060002090810192821561376e579160200282015b8281111561376e57825182546001600160a01b0319166001600160a01b03909116178255602090920191600190910190613739565b5061377a92915061377e565b5090565b5b8082111561377a576000815560010161377f565b6000602082840312156137a557600080fd5b5035919050565b6000815180845260005b818110156137d2576020818501810151868301820152016137b6565b506000602082860101526020601f19601f83011685010191505092915050565b805160408084528151908401819052600091602091908201906060860190845b818110156138375783516001600160a01b031683529284019291840191600101613812565b505093820151949091019390935250919050565b600060018060a01b038088168352861515602084015260a0604084015261387560a08401876137ac565b81865116606085015283810360808501526116a081866137f2565b60208152600061173360208301846137ac565b8151815260208083015190820152604081016113fa565b6020815260018060a01b0382511660208201526020820151604082015260408201516060820152600060608301516080808401526138fb60a08401826137ac565b949350505050565b600081518084526020808501945080840160005b8381101561393357815187529582019590820190600101613917565b509495945050505050565b6020815260006117336020830184613903565b634e487b7160e01b600052604160045260246000fd5b604080519081016001600160401b038111828210171561398957613989613951565b60405290565b60405160a081016001600160401b038111828210171561398957613989613951565b604051602081016001600160401b038111828210171561398957613989613951565b604051601f8201601f191681016001600160401b03811182821017156139fb576139fb613951565b604052919050565b600082601f830112613a1457600080fd5b81356001600160401b03811115613a2d57613a2d613951565b613a40601f8201601f19166020016139d3565b818152846020838601011115613a5557600080fd5b816020850160208301376000918101602001919091529392505050565b60008060408385031215613a8557600080fd5b8235915060208301356001600160401b03811115613aa257600080fd5b613aae85828601613a03565b9150509250929050565b6001600160a01b03811681146128af57600080fd5b60008083601f840112613adf57600080fd5b5081356001600160401b03811115613af657600080fd5b6020830191508360208260051b8501011115611b2257600080fd5b600080600060408486031215613b2657600080fd5b8335613b3181613ab8565b925060208401356001600160401b03811115613b4c57600080fd5b613b5886828701613acd565b9497909650939450505050565b6020808252825182820181905260009190848201906040850190845b81811015613ba65783516001600160a01b031683529284019291840191600101613b81565b50909695505050505050565b80358015158114613bc257600080fd5b919050565b600080600080600060808688031215613bdf57600080fd5b8535613bea81613ab8565b94506020860135935060408601356001600160401b03811115613c0c57600080fd5b613c1888828901613acd565b9094509250613c2b905060608701613bb2565b90509295509295909350565b600060208284031215613c4957600080fd5b81356001600160401b0380821115613c6057600080fd5b9083019060808286031215613c7457600080fd5b604051608081018181108382111715613c8f57613c8f613951565b6040528235613c9d81613ab8565b808252506020830135602082015260408301356040820152606083013582811115613cc757600080fd5b613cd387828601613a03565b60608301525095945050505050565b803560ff81168114613bc257600080fd5b60008060008060008060a08789031215613d0c57600080fd5b86359550613d1c60208801613ce2565b9450604087013593506060870135925060808701356001600160401b03811115613d4557600080fd5b613d5189828a01613acd565b979a9699509497509295939492505050565b60006001600160401b03821115613d7c57613d7c613951565b5060051b60200190565b600060408284031215613d9857600080fd5b613da0613967565b905081356001600160401b03811115613db857600080fd5b8201601f81018413613dc957600080fd5b80356020613dde613dd983613d63565b6139d3565b82815260059290921b83018101918181019087841115613dfd57600080fd5b938201935b83851015613e24578435613e1581613ab8565b82529382019390820190613e02565b85525093840135938301939093525092915050565b600081830360a0811215613e4c57600080fd5b613e5461398f565b91508235613e6181613ab8565b8252613e6f60208401613bb2565b602083015260408301356001600160401b0380821115613e8e57600080fd5b613e9a86838701613a03565b60408501526020605f1984011215613eb157600080fd5b613eb96139b1565b925060608501359150613ecb82613ab8565b8183528260608501526080850135925080831115613ee857600080fd5b5050613ef684828501613d86565b60808301525092915050565b600060208284031215613f1457600080fd5b81356001600160401b03811115613f2a57600080fd5b6138fb84828501613e39565b600060a08284031215613f4857600080fd5b50919050565b600060208284031215613f6057600080fd5b81356001600160401b03811115613f7657600080fd5b6138fb84828501613f36565b60006040808352613f9581840186613903565b83810360208581019190915285518083528682019282019060005b81811015613fdd57613fcd83865180518252602090810151910152565b9383019391850191600101613fb0565b509098975050505050505050565b6000806000806060858703121561400157600080fd5b843561400c81613ab8565b93506020850135925060408501356001600160401b0381111561402e57600080fd5b61403a87828801613acd565b95989497509550505050565b60008060006060848603121561405b57600080fd5b8335925061406b60208501613ce2565b9150604084013590509250925092565b6000806040838503121561408e57600080fd5b8235915060208301356140a081613ab8565b809150509250929050565b600080604083850312156140be57600080fd5b50508035926020909101359150565b6000602082840312156140df57600080fd5b813561173381613ab8565b60018060a01b0385168152836020820152826040820152608060608201526000611aea60808301846137ac565b6000602080838503121561412a57600080fd5b82356001600160401b0381111561414057600080fd5b8301601f8101851361415157600080fd5b803561415f613dd982613d63565b81815260059190911b8201830190838101908783111561417e57600080fd5b928401925b8284101561419c57833582529284019290840190614183565b979650505050505050565b6000806000604084860312156141bc57600080fd5b83356001600160401b03808211156141d357600080fd5b6141df87838801613f36565b945060208601359150808211156141f557600080fd5b50613b5886828701613acd565b634e487b7160e01b600052602160045260246000fd5b602081016005831061422c5761422c614202565b91905290565b60208152600060018060a01b03808451166020840152602084015115156040840152604084015160a0606085015261426d60c08501826137ac565b90508160608601515116608085015260808501519150601f198482030160a085015261203a81836137f2565b600080602083850312156142ac57600080fd5b82356001600160401b038111156142c257600080fd5b6142ce85828601613acd565b90969095509350505050565b600181811c908216806142ee57607f821691505b602082108103613f4857634e487b7160e01b600052602260045260246000fd5b601f82111561146a57600081815260208120601f850160051c810160208610156143355750805b601f850160051c820191505b8181101561435457828155600101614341565b505050505050565b81516001600160401b0381111561437557614375613951565b6143898161438384546142da565b8461430e565b602080601f8311600181146143be57600084156143a65750858301515b600019600386901b1c1916600185901b178555614354565b600085815260208120601f198616915b828110156143ed578886015182559484019460019091019084016143ce565b508582101561440b5787850151600019600388901b60f8161c191681555b5050505050600190811b01905550565b634e487b7160e01b600052601160045260246000fd5b808201808211156113fa576113fa61441b565b60006113fa3683613e39565b634e487b7160e01b600052603260045260246000fd5b6000600182016144785761447861441b565b5060010190565b818103818111156113fa576113fa61441b565b6020808252825482820181905260008481528281209092916040850190845b81811015613ba6578354835260019384019392850192016144b1565b602081016002831061422c5761422c614202565b80820281158282048414176113fa576113fa61441b565b60008261451557634e487b7160e01b600052601260045260246000fd5b500490565b8381526001600160a01b038316602082015260606040820181905260009061203a908301846137ac565b634e487b7160e01b600052603160045260246000fdfea2646970667358221220d8632d070aa1bd45c806f7d296296c3d449dc65530c8bdc5f2f54fa9f32c226d64736f6c63430008130033","linkReferences":{}},"methodIdentifiers":{"AMOUNT_FOR_SUMBITTER_PROOF()":"347cf665","JK_LABS_ADDRESS()":"eef18e17","METADATAS_COUNT()":"4d24a67f","addressSubmitterVerified(address)":"cb853950","addressTotalCastVoteCounts(address)":"a1ac6cb2","addressTotalVotes(address)":"dea5f6a6","addressTotalVotesVerified(address)":"930de979","addressesThatHaveVoted(uint256)":"50c4b616","allProposalTotalVotes()":"50a5e524","cancel()":"ea8a1af0","canceled()":"3f9942ff","castVote(uint256,uint8,uint256,uint256,bytes32[])":"419c533c","castVoteWithoutProof(uint256,uint8,uint256)":"65f16263","checkProof(address,uint256,bytes32[],bool)":"32763c22","comment(uint256,string)":"1805c523","commentIds(uint256)":"f5c36411","commentIsDeleted(uint256)":"ae66b8ad","comments(uint256)":"8ebb4c15","contestAddressTotalVotesCast(address)":"aec116b6","contestDeadline()":"262e59e9","contestStart()":"004114a8","costToPropose()":"6ed815ad","costToVote()":"51a41dec","creator()":"02d05d3f","deleteComments(uint256[])":"ac67f801","deleteProposals(uint256[])":"f0a7db0a","deletedCommentIds(uint256)":"3fb57c92","deletedProposalIds(uint256)":"05846cae","downvotingAllowed()":"60506ff6","forVotesToProposalIds(uint256,uint256)":"711effc8","getAllAddressesThatHaveVoted()":"2c39805f","getAllAuthorsOfDeletedProposals()":"cbdc27cb","getAllCommentIds()":"e11db9d8","getAllDeletedCommentIds()":"5cb718a1","getAllDeletedProposalIds()":"1242b737","getAllProposalAuthors()":"946369b5","getAllProposalIds()":"efa90d36","getComment(uint256)":"0800e300","getNumProposalsWithThisManyForVotes(uint256)":"9ba197af","getOnlyProposalIdWithThisManyForVotes(uint256)":"b66d1da3","getProposal(uint256)":"c7f758a8","getProposalComments(uint256)":"c05f4104","getProposalsWithThisManyForVotes(uint256)":"c9a1b6b2","getRankIndex(uint256)":"5c7107d8","getSortedRanks()":"6fd3636b","hashComment((address,uint256,uint256,string))":"409fd030","hashProposal((address,bool,string,(address),(address[],uint256)))":"458da87d","isOrIsBelowTiedRank(uint256)":"9174778c","maxProposalCount()":"fb9bf8d4","name()":"06fdde03","numAllowedProposalSubmissions()":"832009af","numSubmissions(address)":"75e509c5","officialRewardsModule()":"785ddfe5","payPerVote()":"03f7eed6","percentageToCreator()":"edcd1be4","prompt()":"7c65d711","proposalAddressVotes(uint256,address)":"6e4eb810","proposalAddressesHaveVoted(uint256)":"b323580d","proposalAuthors(uint256)":"0aa25e44","proposalComments(uint256,uint256)":"f61736f4","proposalIds(uint256)":"9b644a23","proposalIsDeleted(uint256)":"f79c0172","proposalVotes(uint256)":"544ffc9c","proposalVotesStructs(uint256)":"070dc5d9","proposals(uint256)":"013cf08b","propose((address,bool,string,(address),(address[],uint256)),bytes32[])":"c0ffaa78","proposeWithoutProof((address,bool,string,(address),(address[],uint256)))":"476f4d8a","rankLimit()":"0414126a","setOfficialRewardsModule(address)":"f4f3d7ec","setSubmissionMerkleRoot(bytes32)":"daf762db","setVotingMerkleRoot(bytes32)":"544c7bb4","sortedRanks(uint256)":"325cc6d9","sortingEnabled()":"366ecf5b","state()":"c19d93fb","submissionMerkleRoot()":"bddc1641","totalVotesCast()":"7de418d5","validateProposalData((address,bool,string,(address),(address[],uint256)))":"fb8ddab4","verifyProposer(address,bytes32[])":"20b3e845","verifyVoter(address,uint256,bytes32[])":"531bd812","version()":"54fd4d50","voteStart()":"e031535b","votingDelay()":"3932abb1","votingMerkleRoot()":"dd96a19d","votingPeriod()":"02a251a3"},"id":28}