{"abi":[{"type":"constructor","inputs":[{"name":"_constructorArgs","type":"tuple","internalType":"struct Governor.ConstructorArgs","components":[{"name":"name","type":"string","internalType":"string"},{"name":"prompt","type":"string","internalType":"string"},{"name":"intConstructorArgs","type":"tuple","internalType":"struct Governor.IntConstructorArgs","components":[{"name":"anyoneCanSubmit","type":"uint256","internalType":"uint256"},{"name":"contestStart","type":"uint256","internalType":"uint256"},{"name":"votingDelay","type":"uint256","internalType":"uint256"},{"name":"votingPeriod","type":"uint256","internalType":"uint256"},{"name":"numAllowedProposalSubmissions","type":"uint256","internalType":"uint256"},{"name":"maxProposalCount","type":"uint256","internalType":"uint256"},{"name":"sortingEnabled","type":"uint256","internalType":"uint256"},{"name":"rankLimit","type":"uint256","internalType":"uint256"},{"name":"percentageToRewards","type":"uint256","internalType":"uint256"},{"name":"costToVote","type":"uint256","internalType":"uint256"},{"name":"priceCurveType","type":"uint256","internalType":"uint256"},{"name":"multiple","type":"uint256","internalType":"uint256"},{"name":"creatorSplitEnabled","type":"uint256","internalType":"uint256"}]},{"name":"jkLabsSplitDestination","type":"address","internalType":"address"},{"name":"metadataFieldsSchema","type":"string","internalType":"string"}]}],"stateMutability":"nonpayable"},{"type":"function","name":"AMOUNT_FOR_SUMBITTER_PROOF","inputs":[],"outputs":[{"name":"","type":"uint256","internalType":"uint256"}],"stateMutability":"view"},{"type":"function","name":"COST_ROUNDING_VALUE","inputs":[],"outputs":[{"name":"","type":"uint256","internalType":"uint256"}],"stateMutability":"view"},{"type":"function","name":"JK_LABS_ADDRESS","inputs":[],"outputs":[{"name":"","type":"address","internalType":"address"}],"stateMutability":"view"},{"type":"function","name":"MAX_FIELDS_METADATA_LENGTH","inputs":[],"outputs":[{"name":"","type":"uint256","internalType":"uint256"}],"stateMutability":"view"},{"type":"function","name":"METADATAS_COUNT","inputs":[],"outputs":[{"name":"","type":"uint256","internalType":"uint256"}],"stateMutability":"view"},{"type":"function","name":"PRICE_CURVE_UPDATE_INTERVAL","inputs":[],"outputs":[{"name":"","type":"uint256","internalType":"uint256"}],"stateMutability":"view"},{"type":"function","name":"SECONDS_IN_DAY","inputs":[],"outputs":[{"name":"","type":"uint256","internalType":"uint256"}],"stateMutability":"view"},{"type":"function","name":"addressTotalCastVoteCount","inputs":[{"name":"","type":"address","internalType":"address"}],"outputs":[{"name":"","type":"uint256","internalType":"uint256"}],"stateMutability":"view"},{"type":"function","name":"addressesThatHaveVoted","inputs":[{"name":"","type":"uint256","internalType":"uint256"}],"outputs":[{"name":"","type":"address","internalType":"address"}],"stateMutability":"view"},{"type":"function","name":"allProposalTotalVotes","inputs":[],"outputs":[{"name":"proposalIdsReturn","type":"uint256[]","internalType":"uint256[]"},{"name":"proposalVoteCountsArrayReturn","type":"uint256[]","internalType":"uint256[]"}],"stateMutability":"view"},{"type":"function","name":"anyoneCanSubmit","inputs":[],"outputs":[{"name":"","type":"uint256","internalType":"uint256"}],"stateMutability":"view"},{"type":"function","name":"cancel","inputs":[],"outputs":[],"stateMutability":"nonpayable"},{"type":"function","name":"canceled","inputs":[],"outputs":[{"name":"","type":"bool","internalType":"bool"}],"stateMutability":"view"},{"type":"function","name":"castVote","inputs":[{"name":"proposalId","type":"uint256","internalType":"uint256"},{"name":"numVotes","type":"uint256","internalType":"uint256"}],"outputs":[{"name":"","type":"uint256","internalType":"uint256"}],"stateMutability":"payable"},{"type":"function","name":"comment","inputs":[{"name":"proposalId","type":"uint256","internalType":"uint256"},{"name":"commentContent","type":"string","internalType":"string"}],"outputs":[{"name":"","type":"uint256","internalType":"uint256"}],"stateMutability":"nonpayable"},{"type":"function","name":"commentIds","inputs":[{"name":"","type":"uint256","internalType":"uint256"}],"outputs":[{"name":"","type":"uint256","internalType":"uint256"}],"stateMutability":"view"},{"type":"function","name":"commentIsDeleted","inputs":[{"name":"","type":"uint256","internalType":"uint256"}],"outputs":[{"name":"","type":"bool","internalType":"bool"}],"stateMutability":"view"},{"type":"function","name":"comments","inputs":[{"name":"","type":"uint256","internalType":"uint256"}],"outputs":[{"name":"author","type":"address","internalType":"address"},{"name":"timestamp","type":"uint256","internalType":"uint256"},{"name":"proposalId","type":"uint256","internalType":"uint256"},{"name":"commentContent","type":"string","internalType":"string"}],"stateMutability":"view"},{"type":"function","name":"contestAddressTotalVotesCast","inputs":[{"name":"userAddress","type":"address","internalType":"address"}],"outputs":[{"name":"userTotalVotesCast","type":"uint256","internalType":"uint256"}],"stateMutability":"view"},{"type":"function","name":"contestDeadline","inputs":[],"outputs":[{"name":"","type":"uint256","internalType":"uint256"}],"stateMutability":"view"},{"type":"function","name":"contestStart","inputs":[],"outputs":[{"name":"","type":"uint256","internalType":"uint256"}],"stateMutability":"view"},{"type":"function","name":"costToVote","inputs":[],"outputs":[{"name":"","type":"uint256","internalType":"uint256"}],"stateMutability":"view"},{"type":"function","name":"creator","inputs":[],"outputs":[{"name":"","type":"address","internalType":"address"}],"stateMutability":"view"},{"type":"function","name":"creatorSplitEnabled","inputs":[],"outputs":[{"name":"","type":"uint256","internalType":"uint256"}],"stateMutability":"view"},{"type":"function","name":"currentPricePerVote","inputs":[],"outputs":[{"name":"","type":"uint256","internalType":"uint256"}],"stateMutability":"view"},{"type":"function","name":"deleteComments","inputs":[{"name":"commentIdsParam","type":"uint256[]","internalType":"uint256[]"}],"outputs":[],"stateMutability":"nonpayable"},{"type":"function","name":"deleteProposals","inputs":[{"name":"proposalIdsToDelete","type":"uint256[]","internalType":"uint256[]"}],"outputs":[],"stateMutability":"nonpayable"},{"type":"function","name":"deletedCommentIds","inputs":[{"name":"","type":"uint256","internalType":"uint256"}],"outputs":[{"name":"","type":"uint256","internalType":"uint256"}],"stateMutability":"view"},{"type":"function","name":"deletedProposalIds","inputs":[{"name":"","type":"uint256","internalType":"uint256"}],"outputs":[{"name":"","type":"uint256","internalType":"uint256"}],"stateMutability":"view"},{"type":"function","name":"getAllAddressesThatHaveVoted","inputs":[],"outputs":[{"name":"","type":"address[]","internalType":"address[]"}],"stateMutability":"view"},{"type":"function","name":"getAllAuthorsOfDeletedProposals","inputs":[],"outputs":[{"name":"","type":"address[]","internalType":"address[]"}],"stateMutability":"view"},{"type":"function","name":"getAllCommentIds","inputs":[],"outputs":[{"name":"","type":"uint256[]","internalType":"uint256[]"}],"stateMutability":"view"},{"type":"function","name":"getAllDeletedCommentIds","inputs":[],"outputs":[{"name":"","type":"uint256[]","internalType":"uint256[]"}],"stateMutability":"view"},{"type":"function","name":"getAllDeletedProposalIds","inputs":[],"outputs":[{"name":"","type":"uint256[]","internalType":"uint256[]"}],"stateMutability":"view"},{"type":"function","name":"getAllProposalAuthors","inputs":[],"outputs":[{"name":"","type":"address[]","internalType":"address[]"}],"stateMutability":"view"},{"type":"function","name":"getAllProposalIds","inputs":[],"outputs":[{"name":"","type":"uint256[]","internalType":"uint256[]"}],"stateMutability":"view"},{"type":"function","name":"getComment","inputs":[{"name":"commentId","type":"uint256","internalType":"uint256"}],"outputs":[{"name":"","type":"tuple","internalType":"struct GovernorEngagement.CommentCore","components":[{"name":"author","type":"address","internalType":"address"},{"name":"timestamp","type":"uint256","internalType":"uint256"},{"name":"proposalId","type":"uint256","internalType":"uint256"},{"name":"commentContent","type":"string","internalType":"string"}]}],"stateMutability":"view"},{"type":"function","name":"getNumProposalsWithThisManyVotes","inputs":[{"name":"votes","type":"uint256","internalType":"uint256"}],"outputs":[{"name":"count","type":"uint256","internalType":"uint256"}],"stateMutability":"view"},{"type":"function","name":"getOnlyProposalIdWithThisManyVotes","inputs":[{"name":"votes","type":"uint256","internalType":"uint256"}],"outputs":[{"name":"proposalId","type":"uint256","internalType":"uint256"}],"stateMutability":"view"},{"type":"function","name":"getProposal","inputs":[{"name":"proposalId","type":"uint256","internalType":"uint256"}],"outputs":[{"name":"","type":"tuple","internalType":"struct Governor.ProposalCore","components":[{"name":"author","type":"address","internalType":"address"},{"name":"exists","type":"bool","internalType":"bool"},{"name":"description","type":"string","internalType":"string"},{"name":"targetMetadata","type":"tuple","internalType":"struct Governor.TargetMetadata","components":[{"name":"targetAddress","type":"address","internalType":"address"}]},{"name":"safeMetadata","type":"tuple","internalType":"struct Governor.SafeMetadata","components":[{"name":"signers","type":"address[]","internalType":"address[]"},{"name":"threshold","type":"uint256","internalType":"uint256"}]},{"name":"fieldsMetadata","type":"tuple","internalType":"struct Governor.FieldsMetadata","components":[{"name":"addressArray","type":"address[]","internalType":"address[]"},{"name":"stringArray","type":"string[]","internalType":"string[]"},{"name":"uintArray","type":"uint256[]","internalType":"uint256[]"}]}]}],"stateMutability":"view"},{"type":"function","name":"getProposalComments","inputs":[{"name":"proposalId","type":"uint256","internalType":"uint256"}],"outputs":[{"name":"","type":"uint256[]","internalType":"uint256[]"}],"stateMutability":"view"},{"type":"function","name":"getProposalsWithThisManyVotes","inputs":[{"name":"votes","type":"uint256","internalType":"uint256"}],"outputs":[{"name":"proposalsWithThisManyVotes","type":"uint256[]","internalType":"uint256[]"}],"stateMutability":"view"},{"type":"function","name":"getRankIndex","inputs":[{"name":"rank","type":"uint256","internalType":"uint256"}],"outputs":[{"name":"rankIndex","type":"uint256","internalType":"uint256"}],"stateMutability":"view"},{"type":"function","name":"getSortedRanks","inputs":[],"outputs":[{"name":"sortedRanksArray","type":"uint256[]","internalType":"uint256[]"}],"stateMutability":"view"},{"type":"function","name":"hashComment","inputs":[{"name":"commentObj","type":"tuple","internalType":"struct GovernorEngagement.CommentCore","components":[{"name":"author","type":"address","internalType":"address"},{"name":"timestamp","type":"uint256","internalType":"uint256"},{"name":"proposalId","type":"uint256","internalType":"uint256"},{"name":"commentContent","type":"string","internalType":"string"}]}],"outputs":[{"name":"","type":"uint256","internalType":"uint256"}],"stateMutability":"pure"},{"type":"function","name":"hashProposal","inputs":[{"name":"proposal","type":"tuple","internalType":"struct Governor.ProposalCore","components":[{"name":"author","type":"address","internalType":"address"},{"name":"exists","type":"bool","internalType":"bool"},{"name":"description","type":"string","internalType":"string"},{"name":"targetMetadata","type":"tuple","internalType":"struct Governor.TargetMetadata","components":[{"name":"targetAddress","type":"address","internalType":"address"}]},{"name":"safeMetadata","type":"tuple","internalType":"struct Governor.SafeMetadata","components":[{"name":"signers","type":"address[]","internalType":"address[]"},{"name":"threshold","type":"uint256","internalType":"uint256"}]},{"name":"fieldsMetadata","type":"tuple","internalType":"struct Governor.FieldsMetadata","components":[{"name":"addressArray","type":"address[]","internalType":"address[]"},{"name":"stringArray","type":"string[]","internalType":"string[]"},{"name":"uintArray","type":"uint256[]","internalType":"uint256[]"}]}]}],"outputs":[{"name":"","type":"uint256","internalType":"uint256"}],"stateMutability":"pure"},{"type":"function","name":"isOrIsBelowTiedRank","inputs":[{"name":"idx","type":"uint256","internalType":"uint256"}],"outputs":[{"name":"atOrBelowTiedRank","type":"bool","internalType":"bool"}],"stateMutability":"view"},{"type":"function","name":"jkLabsSplitDestination","inputs":[],"outputs":[{"name":"","type":"address","internalType":"address"}],"stateMutability":"view"},{"type":"function","name":"maxProposalCount","inputs":[],"outputs":[{"name":"","type":"uint256","internalType":"uint256"}],"stateMutability":"view"},{"type":"function","name":"metadataFieldsSchema","inputs":[],"outputs":[{"name":"","type":"string","internalType":"string"}],"stateMutability":"view"},{"type":"function","name":"multiple","inputs":[],"outputs":[{"name":"","type":"uint256","internalType":"uint256"}],"stateMutability":"view"},{"type":"function","name":"name","inputs":[],"outputs":[{"name":"","type":"string","internalType":"string"}],"stateMutability":"view"},{"type":"function","name":"numAllowedProposalSubmissions","inputs":[],"outputs":[{"name":"","type":"uint256","internalType":"uint256"}],"stateMutability":"view"},{"type":"function","name":"numSubmissions","inputs":[{"name":"","type":"address","internalType":"address"}],"outputs":[{"name":"","type":"uint256","internalType":"uint256"}],"stateMutability":"view"},{"type":"function","name":"officialRewardsModule","inputs":[],"outputs":[{"name":"","type":"address","internalType":"address"}],"stateMutability":"view"},{"type":"function","name":"percentageToRewards","inputs":[],"outputs":[{"name":"","type":"uint256","internalType":"uint256"}],"stateMutability":"view"},{"type":"function","name":"priceCurveType","inputs":[],"outputs":[{"name":"","type":"uint256","internalType":"uint256"}],"stateMutability":"view"},{"type":"function","name":"prompt","inputs":[],"outputs":[{"name":"","type":"string","internalType":"string"}],"stateMutability":"view"},{"type":"function","name":"proposalAddressVotes","inputs":[{"name":"proposalId","type":"uint256","internalType":"uint256"},{"name":"userAddress","type":"address","internalType":"address"}],"outputs":[{"name":"voteCount","type":"uint256","internalType":"uint256"}],"stateMutability":"view"},{"type":"function","name":"proposalAddressesHaveVoted","inputs":[{"name":"proposalId","type":"uint256","internalType":"uint256"}],"outputs":[{"name":"","type":"address[]","internalType":"address[]"}],"stateMutability":"view"},{"type":"function","name":"proposalAuthors","inputs":[{"name":"","type":"uint256","internalType":"uint256"}],"outputs":[{"name":"","type":"address","internalType":"address"}],"stateMutability":"view"},{"type":"function","name":"proposalComments","inputs":[{"name":"","type":"uint256","internalType":"uint256"},{"name":"","type":"uint256","internalType":"uint256"}],"outputs":[{"name":"","type":"uint256","internalType":"uint256"}],"stateMutability":"view"},{"type":"function","name":"proposalIds","inputs":[{"name":"","type":"uint256","internalType":"uint256"}],"outputs":[{"name":"","type":"uint256","internalType":"uint256"}],"stateMutability":"view"},{"type":"function","name":"proposalIsDeleted","inputs":[{"name":"","type":"uint256","internalType":"uint256"}],"outputs":[{"name":"","type":"bool","internalType":"bool"}],"stateMutability":"view"},{"type":"function","name":"proposalVoteStructs","inputs":[{"name":"","type":"uint256","internalType":"uint256"}],"outputs":[{"name":"proposalVoteCount","type":"uint256","internalType":"uint256"}],"stateMutability":"view"},{"type":"function","name":"proposalVotes","inputs":[{"name":"proposalId","type":"uint256","internalType":"uint256"}],"outputs":[{"name":"voteCount","type":"uint256","internalType":"uint256"}],"stateMutability":"view"},{"type":"function","name":"proposals","inputs":[{"name":"","type":"uint256","internalType":"uint256"}],"outputs":[{"name":"author","type":"address","internalType":"address"},{"name":"exists","type":"bool","internalType":"bool"},{"name":"description","type":"string","internalType":"string"},{"name":"targetMetadata","type":"tuple","internalType":"struct Governor.TargetMetadata","components":[{"name":"targetAddress","type":"address","internalType":"address"}]},{"name":"safeMetadata","type":"tuple","internalType":"struct Governor.SafeMetadata","components":[{"name":"signers","type":"address[]","internalType":"address[]"},{"name":"threshold","type":"uint256","internalType":"uint256"}]},{"name":"fieldsMetadata","type":"tuple","internalType":"struct Governor.FieldsMetadata","components":[{"name":"addressArray","type":"address[]","internalType":"address[]"},{"name":"stringArray","type":"string[]","internalType":"string[]"},{"name":"uintArray","type":"uint256[]","internalType":"uint256[]"}]}],"stateMutability":"view"},{"type":"function","name":"propose","inputs":[{"name":"proposal","type":"tuple","internalType":"struct Governor.ProposalCore","components":[{"name":"author","type":"address","internalType":"address"},{"name":"exists","type":"bool","internalType":"bool"},{"name":"description","type":"string","internalType":"string"},{"name":"targetMetadata","type":"tuple","internalType":"struct Governor.TargetMetadata","components":[{"name":"targetAddress","type":"address","internalType":"address"}]},{"name":"safeMetadata","type":"tuple","internalType":"struct Governor.SafeMetadata","components":[{"name":"signers","type":"address[]","internalType":"address[]"},{"name":"threshold","type":"uint256","internalType":"uint256"}]},{"name":"fieldsMetadata","type":"tuple","internalType":"struct Governor.FieldsMetadata","components":[{"name":"addressArray","type":"address[]","internalType":"address[]"},{"name":"stringArray","type":"string[]","internalType":"string[]"},{"name":"uintArray","type":"uint256[]","internalType":"uint256[]"}]}]}],"outputs":[{"name":"","type":"uint256","internalType":"uint256"}],"stateMutability":"payable"},{"type":"function","name":"rankLimit","inputs":[],"outputs":[{"name":"","type":"uint256","internalType":"uint256"}],"stateMutability":"view"},{"type":"function","name":"setJkLabsSplitDestination","inputs":[{"name":"newJkLabsSplitDestination","type":"address","internalType":"address"}],"outputs":[],"stateMutability":"nonpayable"},{"type":"function","name":"setName","inputs":[{"name":"newName","type":"string","internalType":"string"}],"outputs":[{"name":"","type":"string","internalType":"string"}],"stateMutability":"nonpayable"},{"type":"function","name":"setOfficialRewardsModule","inputs":[{"name":"officialRewardsModule_","type":"address","internalType":"address"}],"outputs":[],"stateMutability":"nonpayable"},{"type":"function","name":"setPrompt","inputs":[{"name":"newPrompt","type":"string","internalType":"string"}],"outputs":[{"name":"","type":"string","internalType":"string"}],"stateMutability":"nonpayable"},{"type":"function","name":"sortedRanks","inputs":[{"name":"","type":"uint256","internalType":"uint256"}],"outputs":[{"name":"","type":"uint256","internalType":"uint256"}],"stateMutability":"view"},{"type":"function","name":"sortingEnabled","inputs":[],"outputs":[{"name":"","type":"uint256","internalType":"uint256"}],"stateMutability":"view"},{"type":"function","name":"state","inputs":[],"outputs":[{"name":"","type":"uint8","internalType":"enum Governor.ContestState"}],"stateMutability":"view"},{"type":"function","name":"totalVotesCast","inputs":[],"outputs":[{"name":"","type":"uint256","internalType":"uint256"}],"stateMutability":"view"},{"type":"function","name":"totalVotesCastIsZero","inputs":[],"outputs":[{"name":"totalVotesCastZero","type":"bool","internalType":"bool"}],"stateMutability":"view"},{"type":"function","name":"validateProposalData","inputs":[{"name":"proposal","type":"tuple","internalType":"struct Governor.ProposalCore","components":[{"name":"author","type":"address","internalType":"address"},{"name":"exists","type":"bool","internalType":"bool"},{"name":"description","type":"string","internalType":"string"},{"name":"targetMetadata","type":"tuple","internalType":"struct Governor.TargetMetadata","components":[{"name":"targetAddress","type":"address","internalType":"address"}]},{"name":"safeMetadata","type":"tuple","internalType":"struct Governor.SafeMetadata","components":[{"name":"signers","type":"address[]","internalType":"address[]"},{"name":"threshold","type":"uint256","internalType":"uint256"}]},{"name":"fieldsMetadata","type":"tuple","internalType":"struct Governor.FieldsMetadata","components":[{"name":"addressArray","type":"address[]","internalType":"address[]"},{"name":"stringArray","type":"string[]","internalType":"string[]"},{"name":"uintArray","type":"uint256[]","internalType":"uint256[]"}]}]}],"outputs":[],"stateMutability":"view"},{"type":"function","name":"verifyProposer","inputs":[],"outputs":[],"stateMutability":"view"},{"type":"function","name":"version","inputs":[],"outputs":[{"name":"","type":"string","internalType":"string"}],"stateMutability":"pure"},{"type":"function","name":"voteStart","inputs":[],"outputs":[{"name":"","type":"uint256","internalType":"uint256"}],"stateMutability":"view"},{"type":"function","name":"votesToProposalIds","inputs":[{"name":"","type":"uint256","internalType":"uint256"},{"name":"","type":"uint256","internalType":"uint256"}],"outputs":[{"name":"","type":"uint256","internalType":"uint256"}],"stateMutability":"view"},{"type":"function","name":"votingDelay","inputs":[],"outputs":[{"name":"","type":"uint256","internalType":"uint256"}],"stateMutability":"view"},{"type":"function","name":"votingPeriod","inputs":[],"outputs":[{"name":"","type":"uint256","internalType":"uint256"}],"stateMutability":"view"},{"type":"event","name":"CommentCreated","inputs":[{"name":"commentId","type":"uint256","indexed":false,"internalType":"uint256"}],"anonymous":false},{"type":"event","name":"CommentsDeleted","inputs":[{"name":"commentIds","type":"uint256[]","indexed":false,"internalType":"uint256[]"}],"anonymous":false},{"type":"event","name":"ContestCanceled","inputs":[],"anonymous":false},{"type":"event","name":"CreatorPaymentReleased","inputs":[{"name":"to","type":"address","indexed":false,"internalType":"address"},{"name":"amount","type":"uint256","indexed":false,"internalType":"uint256"}],"anonymous":false},{"type":"event","name":"JkLabsPaymentReleased","inputs":[{"name":"to","type":"address","indexed":false,"internalType":"address"},{"name":"amount","type":"uint256","indexed":false,"internalType":"uint256"}],"anonymous":false},{"type":"event","name":"JokeraceCreated","inputs":[{"name":"version","type":"string","indexed":false,"internalType":"string"},{"name":"name","type":"string","indexed":false,"internalType":"string"},{"name":"prompt","type":"string","indexed":false,"internalType":"string"},{"name":"creator","type":"address","indexed":false,"internalType":"address"},{"name":"contestStart","type":"uint256","indexed":false,"internalType":"uint256"},{"name":"votingDelay","type":"uint256","indexed":false,"internalType":"uint256"},{"name":"votingPeriod","type":"uint256","indexed":false,"internalType":"uint256"}],"anonymous":false},{"type":"event","name":"OfficialRewardsModuleSet","inputs":[{"name":"oldOfficialRewardsModule","type":"address","indexed":false,"internalType":"address"},{"name":"newOfficialRewardsModule","type":"address","indexed":false,"internalType":"address"}],"anonymous":false},{"type":"event","name":"ProposalCreated","inputs":[{"name":"proposalId","type":"uint256","indexed":false,"internalType":"uint256"},{"name":"proposer","type":"address","indexed":false,"internalType":"address"},{"name":"proposalDescription","type":"string","indexed":false,"internalType":"string"}],"anonymous":false},{"type":"event","name":"ProposalsDeleted","inputs":[{"name":"proposalIds","type":"uint256[]","indexed":false,"internalType":"uint256[]"}],"anonymous":false},{"type":"event","name":"RewardsPaymentReleased","inputs":[{"name":"to","type":"address","indexed":false,"internalType":"address"},{"name":"amount","type":"uint256","indexed":false,"internalType":"uint256"}],"anonymous":false},{"type":"event","name":"VoteCast","inputs":[{"name":"voter","type":"address","indexed":true,"internalType":"address"},{"name":"proposalId","type":"uint256","indexed":false,"internalType":"uint256"},{"name":"numVotes","type":"uint256","indexed":false,"internalType":"uint256"}],"anonymous":false},{"type":"error","name":"AddressFieldMetadataArrayTooLong","inputs":[]},{"type":"error","name":"AuthorIsNotSender","inputs":[{"name":"author","type":"address","internalType":"address"},{"name":"sender","type":"address","internalType":"address"}]},{"type":"error","name":"CanOnlyCancelBeforeFirstVote","inputs":[]},{"type":"error","name":"CanOnlyDeleteWhenQueued","inputs":[]},{"type":"error","name":"CannotCommentWhenCompletedOrCanceled","inputs":[]},{"type":"error","name":"CannotDeleteWhenCompletedOrCanceled","inputs":[]},{"type":"error","name":"CannotSetWhenCompletedOrCanceled","inputs":[]},{"type":"error","name":"CannotUpdateWhenCompletedOrCanceled","inputs":[]},{"type":"error","name":"CannotVoteLessThanOneVoteInPayPerVote","inputs":[]},{"type":"error","name":"CannotVoteOnDeletedProposal","inputs":[]},{"type":"error","name":"ContestAlreadyCanceled","inputs":[]},{"type":"error","name":"ContestMustBeActiveToGetCurrentVotePrice","inputs":[]},{"type":"error","name":"ContestMustBeActiveToVote","inputs":[]},{"type":"error","name":"ContestMustBeQueuedToPropose","inputs":[]},{"type":"error","name":"ContestSubmissionLimitReached","inputs":[{"name":"maxProposalCount","type":"uint256","internalType":"uint256"}]},{"type":"error","name":"DuplicateSubmission","inputs":[{"name":"proposalId","type":"uint256","internalType":"uint256"}]},{"type":"error","name":"EmptyProposalDescription","inputs":[]},{"type":"error","name":"IncorrectCostSent","inputs":[{"name":"msgValue","type":"uint256","internalType":"uint256"},{"name":"costToVote","type":"uint256","internalType":"uint256"}]},{"type":"error","name":"IndexHasNotBeenPopulated","inputs":[]},{"type":"error","name":"MoreThanOneProposalWithThisManyVotes","inputs":[]},{"type":"error","name":"NeedAtLeastOneVoteToVote","inputs":[]},{"type":"error","name":"NotEnoughVotesLeft","inputs":[]},{"type":"error","name":"OfficialModuleMustBeSetToEnter","inputs":[]},{"type":"error","name":"OfficialRewardsModuleCanOnlyBeSetOnce","inputs":[]},{"type":"error","name":"OfficialRewardsModuleMustPointToThisContest","inputs":[]},{"type":"error","name":"OnlyCreatorCanAmend","inputs":[]},{"type":"error","name":"OnlyCreatorCanSetName","inputs":[]},{"type":"error","name":"OnlyCreatorCanSetPrompt","inputs":[]},{"type":"error","name":"OnlyCreatorCanSetRewardsModule","inputs":[]},{"type":"error","name":"OnlyCreatorCanSubmit","inputs":[]},{"type":"error","name":"OnlyCreatorOrAuthorCanDeleteComments","inputs":[{"name":"failedToDeleteCommentId","type":"uint256","internalType":"uint256"}]},{"type":"error","name":"OnlyCreatorOrEntrantCanDelete","inputs":[]},{"type":"error","name":"OnlyCreatorOrJkLabsCanCancel","inputs":[]},{"type":"error","name":"OnlyJkLabsCanAmend","inputs":[]},{"type":"error","name":"PRBMath_MulDiv18_Overflow","inputs":[{"name":"x","type":"uint256","internalType":"uint256"},{"name":"y","type":"uint256","internalType":"uint256"}]},{"type":"error","name":"PRBMath_MulDiv_Overflow","inputs":[{"name":"x","type":"uint256","internalType":"uint256"},{"name":"y","type":"uint256","internalType":"uint256"},{"name":"denominator","type":"uint256","internalType":"uint256"}]},{"type":"error","name":"PRBMath_UD60x18_Exp2_InputTooBig","inputs":[{"name":"x","type":"uint256","internalType":"UD60x18"}]},{"type":"error","name":"PeriodsOutsideBounds","inputs":[]},{"type":"error","name":"RankCannotBeZero","inputs":[]},{"type":"error","name":"RankIsNotInSortedRanks","inputs":[]},{"type":"error","name":"RankLimitCannotBeZero","inputs":[]},{"type":"error","name":"SenderSubmissionLimitReached","inputs":[{"name":"numAllowedProposalSubmissions","type":"uint256","internalType":"uint256"}]},{"type":"error","name":"StringFieldMetadataArrayTooLong","inputs":[]},{"type":"error","name":"UintFieldMetadataArrayTooLong","inputs":[]},{"type":"error","name":"UnexpectedMetadata","inputs":[{"name":"unexpectedMetadata","type":"uint8","internalType":"enum Governor.Metadatas"}]},{"type":"error","name":"ZeroSignersInSafeMetadata","inputs":[]},{"type":"error","name":"ZeroThresholdInSafeMetadata","inputs":[]}],"bytecode":{"object":"0x60806040523480156200001157600080fd5b5060405162005b6838038062005b688339810160408190526200003491620003f6565b604081015160c081015160e0909101516000919091556001558051819060039062000060908262000571565b50602081015160049062000075908262000571565b50604081810151805160065560058054336001600160a01b031991821617909155602082015160075591810151600855606080820151600955608080830151600a5560a0830151600b55610100830151600c55610120830151600d55610140830151600e55610160830151600f5561018090920151601055830151601180549093166001600160a01b039091161790915581015160129062000118908262000571565b506040805180820182526004808252631b17189960e11b602083015260055460075460085460095495517f9a9bca21e4e51607db64fbdbcd7b2284a909c6a8969821f0d161efbdcae701609662000186969560039590946001600160a01b03909116939092909190620006c2565b60405180910390a1506200019f62015180601e62000750565b8160400151604001511180620001bf575062015180816040015160600151115b15620001de576040516341b2f4db60e01b815260040160405180910390fd5b806040015160e00151600003620002085760405163769f473560e11b815260040160405180910390fd5b506200077c565b634e487b7160e01b600052604160045260246000fd5b6040516101a081016001600160401b03811182821017156200024b576200024b6200020f565b60405290565b60405160a081016001600160401b03811182821017156200024b576200024b6200020f565b60005b838110156200029357818101518382015260200162000279565b50506000910152565b600082601f830112620002ae57600080fd5b81516001600160401b0380821115620002cb57620002cb6200020f565b604051601f8301601f19908116603f01168101908282118183101715620002f657620002f66200020f565b816040528381528660208588010111156200031057600080fd5b6200032384602083016020890162000276565b9695505050505050565b60006101a082840312156200034157600080fd5b6200034b62000225565b9050815181526020820151602082015260408201516040820152606082015160608201526080820151608082015260a082015160a082015260c082015160c082015260e082015160e082015261010080830151818301525061012080830151818301525061014080830151818301525061016080830151818301525061018080830151818301525092915050565b80516001600160a01b0381168114620003f157600080fd5b919050565b6000602082840312156200040957600080fd5b81516001600160401b03808211156200042157600080fd5b9083019061022082860312156200043757600080fd5b6200044162000251565b8251828111156200045157600080fd5b6200045f878286016200029c565b8252506020830151828111156200047557600080fd5b62000483878286016200029c565b6020830152506200049886604085016200032d565b6040820152620004ac6101e08401620003d9565b606082015261020083015182811115620004c557600080fd5b620004d3878286016200029c565b60808301525095945050505050565b600181811c90821680620004f757607f821691505b6020821081036200051857634e487b7160e01b600052602260045260246000fd5b50919050565b601f8211156200056c57600081815260208120601f850160051c81016020861015620005475750805b601f850160051c820191505b81811015620005685782815560010162000553565b5050505b505050565b81516001600160401b038111156200058d576200058d6200020f565b620005a5816200059e8454620004e2565b846200051e565b602080601f831160018114620005dd5760008415620005c45750858301515b600019600386901b1c1916600185901b17855562000568565b600085815260208120601f198616915b828110156200060e57888601518255948401946001909101908401620005ed565b50858210156200062d5787850151600019600388901b60f8161c191681555b5050505050600190811b01905550565b600081546200064c81620004e2565b8085526020600183811680156200066c57600181146200068757620006b7565b60ff1985168884015283151560051b880183019550620006b7565b866000528260002060005b85811015620006af5781548a820186015290830190840162000692565b890184019650505b505050505092915050565b60e08152600088518060e0840152610100620006e58282860160208e0162000276565b601f19601f8301168401915080848303016020850152620007098183018b6200063d565b91505082810360408401526200072081896200063d565b6001600160a01b039790971660608401525050608081019390935260a083019190915260c0909101529392505050565b80820281158282048414176200077657634e487b7160e01b600052601160045260246000fd5b92915050565b6153dc806200078c6000396000f3fe6080604052600436106104a95760003560e01c8063785ddfe51161026b578063c47f00271161014f578063ea8a1af0116100c1578063f5c3641111610085578063f5c3641114610e50578063f61736f414610e70578063f79c017214610e90578063f82e54c014610ec0578063fb9bf8d414610ee0578063fd7971c914610ef657600080fd5b8063ea8a1af014610dbe578063eef18e1714610dd3578063efa90d3614610dfb578063f0a7db0a14610e10578063f4f3d7ec14610e3057600080fd5b8063d576b81d11610113578063d576b81d14610d0e578063d798902514610d2e578063dda54fcf14610d4e578063e031535b14610d7b578063e11db9d814610d90578063e269cefe14610da557600080fd5b8063c47f002714610c77578063c7f758a814610c97578063ca09a4c414610cc4578063cbdc27cb14610cd9578063d140d9f014610cee57600080fd5b80639b644a23116101e8578063b323580d116101ac578063b323580d14610bb3578063b382543f14610bd3578063b4ac024f14610be8578063bc022c9814610c08578063c05f410414610c35578063c19d93fb14610c5557600080fd5b80639b644a2314610af75780639decae3114610b17578063ac67f80114610b2d578063ae66b8ad14610b4d578063aec116b614610b7d57600080fd5b80638ebb4c151161022f5780638ebb4c1514610a5f5780639174778c14610a8f578063946369b514610aaf5780639a04ede814610ac45780639b338aa014610ad757600080fd5b8063785ddfe5146109e85780637c65d71114610a085780637d74292514610a1d5780637de418d514610a33578063832009af14610a4957600080fd5b80633f9942ff116103925780635358b80e1161030f57806360ed97a9116102d357806360ed97a91461091357806361a52a36146109285780636d0306211461093f5780636e4eb8101461095f5780636fd3636b146109a657806375e509c5146109bb57600080fd5b80635358b80e1461086e578063544ffc9c1461088457806354fd4d50146108b15780635c7107d8146108de5780635cb718a1146108fe57600080fd5b80634a2c96ec116103565780634a2c96ec146107ea5780634d24a67f1461080057806350a5e5241461081557806350c4b6161461083857806351a41dec1461085857600080fd5b80633f9942ff146107535780633fb57c921461077d578063409fd0301461079d578063437a8ae6146107bd578063476106c8146107d357600080fd5b8063102613d81161042b5780632c0a3f89116103ef5780632c0a3f89146106b65780632c39805f146106c9578063325cc6d9146106eb578063347cf6651461070b578063366ecf5b146107275780633932abb11461073d57600080fd5b8063102613d8146106125780631242b7371461063257806315dee7cd146106545780631805c52314610681578063262e59e9146106a157600080fd5b806305846cae1161047257806305846cae1461056d57806306b2193f1461058d57806306fdde03146105a35780630800e300146105c55780630aa25e44146105f257600080fd5b80624114a8146104ae578063013cf08b146104d757806302a251a31461050957806302d05d3f1461051f5780630414126a14610557575b600080fd5b3480156104ba57600080fd5b506104c460075481565b6040519081526020015b60405180910390f35b3480156104e357600080fd5b506104f76104f23660046145df565b610f0b565b6040516104ce9695949392919061476f565b34801561051557600080fd5b506104c460095481565b34801561052b57600080fd5b5060055461053f906001600160a01b031681565b6040516001600160a01b0390911681526020016104ce565b34801561056357600080fd5b506104c460015481565b34801561057957600080fd5b506104c46105883660046145df565b6111f6565b34801561059957600080fd5b506104c4600c5481565b3480156105af57600080fd5b506105b8611217565b6040516104ce91906147c9565b3480156105d157600080fd5b506105e56105e03660046145df565b6112a5565b6040516104ce91906147dc565b3480156105fe57600080fd5b5061053f61060d3660046145df565b6113b9565b34801561061e57600080fd5b5060115461053f906001600160a01b031681565b34801561063e57600080fd5b506106476113e3565b6040516104ce919061481d565b34801561066057600080fd5b506104c461066f3660046145df565b601d6020526000908152604090205481565b34801561068d57600080fd5b506104c461069c36600461492f565b61143b565b3480156106ad57600080fd5b506104c46115b6565b6104c46106c4366004614975565b6115d2565b3480156106d557600080fd5b506106de61162f565b6040516104ce9190614997565b3480156106f757600080fd5b506104c46107063660046145df565b611690565b34801561071757600080fd5b506104c4678ac7230489e8000081565b34801561073357600080fd5b506104c460005481565b34801561074957600080fd5b506104c460085481565b34801561075f57600080fd5b5060165461076d9060ff1681565b60405190151581526020016104ce565b34801561078957600080fd5b506104c46107983660046145df565b6116a0565b3480156107a957600080fd5b506104c46107b8366004614a09565b6116b0565b3480156107c957600080fd5b506104c4600f5481565b3480156107df57600080fd5b506107e86116e1565b005b3480156107f657600080fd5b506104c4600e5481565b34801561080c57600080fd5b506104c461171f565b34801561082157600080fd5b5061082a61172e565b6040516104ce929190614ab4565b34801561084457600080fd5b5061053f6108533660046145df565b6117f9565b34801561086457600080fd5b506104c4600d5481565b34801561087a57600080fd5b506104c460065481565b34801561089057600080fd5b506104c461089f3660046145df565b6000908152601d602052604090205490565b3480156108bd57600080fd5b506040805180820190915260048152631b17189960e11b60208201526105b8565b3480156108ea57600080fd5b506104c46108f93660046145df565b611809565b34801561090a57600080fd5b50610647611910565b34801561091f57600080fd5b506105b8611966565b34801561093457600080fd5b506104c46201518081565b34801561094b57600080fd5b506104c461095a366004614975565b611973565b34801561096b57600080fd5b506104c461097a366004614ae2565b6000828152601d602090815260408083206001600160a01b038516845260020190915290205492915050565b3480156109b257600080fd5b506106476119a4565b3480156109c757600080fd5b506104c46109d6366004614b12565b60186020526000908152604090205481565b3480156109f457600080fd5b50601f5461053f906001600160a01b031681565b348015610a1457600080fd5b506105b86119fa565b348015610a2957600080fd5b50601b541561076d565b348015610a3f57600080fd5b506104c4601b5481565b348015610a5557600080fd5b506104c4600a5481565b348015610a6b57600080fd5b50610a7f610a7a3660046145df565b611a07565b6040516104ce9493929190614b2f565b348015610a9b57600080fd5b5061076d610aaa3660046145df565b611ac4565b348015610abb57600080fd5b506106de611b6a565b6104c4610ad2366004614b66565b611bca565b348015610ae357600080fd5b506107e8610af2366004614b12565b611c4e565b348015610b0357600080fd5b506104c4610b123660046145df565b611d01565b348015610b2357600080fd5b506104c460105481565b348015610b3957600080fd5b506107e8610b48366004614c2e565b611d11565b348015610b5957600080fd5b5061076d610b683660046145df565b60246020526000908152604090205460ff1681565b348015610b8957600080fd5b506104c4610b98366004614b12565b6001600160a01b03166000908152601c602052604090205490565b348015610bbf57600080fd5b506106de610bce3660046145df565b611ea8565b348015610bdf57600080fd5b506104c4600a81565b348015610bf457600080fd5b506105b8610c03366004614c62565b611f1a565b348015610c1457600080fd5b506104c4610c233660046145df565b6000908152601e602052604090205490565b348015610c4157600080fd5b50610647610c503660046145df565b611fb8565b348015610c6157600080fd5b50610c6a61201a565b6040516104ce9190614cac565b348015610c8357600080fd5b506105b8610c92366004614c62565b61206b565b348015610ca357600080fd5b50610cb7610cb23660046145df565b612102565b6040516104ce9190614cc6565b348015610cd057600080fd5b506104c4612422565b348015610ce557600080fd5b506106de612593565b348015610cfa57600080fd5b506107e8610d09366004615045565b6126c3565b348015610d1a57600080fd5b506104c4610d293660046145df565b6128aa565b348015610d3a57600080fd5b506104c4610d49366004615045565b61290a565b348015610d5a57600080fd5b506104c4610d69366004614b12565b601c6020526000908152604090205481565b348015610d8757600080fd5b506104c461291d565b348015610d9c57600080fd5b5061064761292f565b348015610db157600080fd5b506104c464e8d4a5100081565b348015610dca57600080fd5b506107e8612985565b348015610ddf57600080fd5b5061053f73dc652c746a8f85e18ce632d97c6118e8a52fa73881565b348015610e0757600080fd5b50610647612a52565b348015610e1c57600080fd5b506107e8610e2b366004615079565b612aa8565b348015610e3c57600080fd5b506107e8610e4b366004614b12565b612c06565b348015610e5c57600080fd5b506104c4610e6b3660046145df565b612d48565b348015610e7c57600080fd5b506104c4610e8b366004614975565b612d58565b348015610e9c57600080fd5b5061076d610eab3660046145df565b60156020526000908152604090205460ff1681565b348015610ecc57600080fd5b50610647610edb3660046145df565b612d74565b348015610eec57600080fd5b506104c4600b5481565b348015610f0257600080fd5b506104c4603c81565b601760205260009081526040902080546001820180546001600160a01b03831693600160a01b90930460ff16929190610f43906150ed565b80601f0160208091040260200160405190810160405280929190818152602001828054610f6f906150ed565b8015610fbc5780601f10610f9157610100808354040283529160200191610fbc565b820191906000526020600020905b815481529060010190602001808311610f9f57829003601f168201915b5050604080516020808201835260028801546001600160a01b03168252825160038901805460609381028301840186529482018581529899939893975090955093508492849184018282801561103b57602002820191906000526020600020905b81546001600160a01b0316815260019091019060200180831161101d575b505050505081526020016001820154815250509080600501604051806060016040529081600082018054806020026020016040519081016040528092919081815260200182805480156110b757602002820191906000526020600020905b81546001600160a01b03168152600190910190602001808311611099575b5050505050815260200160018201805480602002602001604051908101604052809291908181526020016000905b82821015611191578382906000526020600020018054611104906150ed565b80601f0160208091040260200160405190810160405280929190818152602001828054611130906150ed565b801561117d5780601f106111525761010080835404028352916020019161117d565b820191906000526020600020905b81548152906001019060200180831161116057829003601f168201915b5050505050815260200190600101906110e5565b505050508152602001600282018054806020026020016040519081016040528092919081815260200182805480156111e857602002820191906000526020600020905b8154815260200190600101908083116111d4575b505050505081525050905086565b6014818154811061120657600080fd5b600091825260209091200154905081565b60038054611224906150ed565b80601f0160208091040260200160405190810160405280929190818152602001828054611250906150ed565b801561129d5780601f106112725761010080835404028352916020019161129d565b820191906000526020600020905b81548152906001019060200180831161128057829003601f168201915b505050505081565b6112d9604051806080016040528060006001600160a01b031681526020016000815260200160008152602001606081525090565b600082815260226020908152604091829020825160808101845281546001600160a01b03168152600182015492810192909252600281015492820192909252600382018054919291606084019190611330906150ed565b80601f016020809104026020016040519081016040528092919081815260200182805461135c906150ed565b80156113a95780601f1061137e576101008083540402835291602001916113a9565b820191906000526020600020905b81548152906001019060200180831161138c57829003601f168201915b5050505050815250509050919050565b601981815481106113c957600080fd5b6000918252602090912001546001600160a01b0316905081565b6060601480548060200260200160405190810160405280929190818152602001828054801561143157602002820191906000526020600020905b81548152602001906001019080831161141d575b5050505050905090565b6000600461144761201a565b600481111561145857611458614c96565b148061147c5750600261146961201a565b600481111561147a5761147a614c96565b145b156114995760405162f3e73d60e81b815260040160405180910390fd5b604080516080810182523381524260208201529081018490526060810183905260006114c4826116b0565b60208054600180820183557fc97bfaf2f8ee708c303a06d134f5ecd8389ae0432af62dc132a24118292866bb909101839055600083815260228352604090819020865181546001600160a01b0319166001600160a01b039091161781559286015191830191909155840151600282015560608401519192508391600382019061154d9082615175565b505050600085815260236020908152604080832080546001810182559084529190922001829055517f5a1a930fed43f34b3a07db782ebcac28a661c273e662bb98458cfba5a8ccd220906115a49083815260200190565b60405180910390a19150505b92915050565b60006009546115c361291d565b6115cd919061524a565b905090565b6000806115e0600184612dd4565b60008581526015602052604090205490915060ff1615611613576040516358f1119560e01b815260040160405180910390fd5b61161c81612e71565b61162784338561302d565b949350505050565b6060601a80548060200260200160405190810160405280929190818152602001828054801561143157602002820191906000526020600020905b81546001600160a01b03168152600190910190602001808311611669575050505050905090565b6002818154811061120657600080fd5b6021818154811061120657600080fd5b6000816040516020016116c391906147dc565b60408051601f19818403018152919052805160209091012092915050565b6006546001141580156116ff57506005546001600160a01b03163314155b1561171d57604051639a4a529360e01b815260040160405180910390fd5b565b61172b6002600161524a565b81565b606080600061173b612a52565b9050600081516001600160401b0381111561175857611758614830565b604051908082528060200260200182016040528015611781578160200160208202803683370190505b50905060005b82518110156117ef57601d60008483815181106117a6576117a661525d565b60200260200101518152602001908152602001600020600001548282815181106117d2576117d261525d565b6020908102919091010152806117e781615273565b915050611787565b5090939092509050565b601a81815481106113c957600080fd5b60008160000361182c57604051630ec90a1760e31b815260040160405180910390fd5b6002805460408051602080840282018101909252828152919260009291849083018282801561187a57602002820191906000526020600020905b815481526020019060010190808311611866575b5050505050905060006001905060005b838110156118f6576118c18382815181106118a7576118a761525d565b60200260200101516000908152601e602052604090205490565b156118e4578582036118d65795945050505050565b816118e081615273565b9250505b806118ee81615273565b91505061188a565b50604051632cc2ab7360e11b815260040160405180910390fd5b60606021805480602002602001604051908101604052809291908181526020018280548015611431576020028201919060005260206000209081548152602001906001019080831161141d575050505050905090565b60128054611224906150ed565b601e602052816000526040600020818154811061198f57600080fd5b90600052602060002001600091509150505481565b60606002805480602002602001604051908101604052809291908181526020018280548015611431576020028201919060005260206000209081548152602001906001019080831161141d575050505050905090565b60048054611224906150ed565b60226020526000908152604090208054600182015460028301546003840180546001600160a01b03909416949293919291611a41906150ed565b80601f0160208091040260200160405190810160405280929190818152602001828054611a6d906150ed565b8015611aba5780601f10611a8f57610100808354040283529160200191611aba565b820191906000526020600020905b815481529060010190602001808311611a9d57829003601f168201915b5050505050905084565b600254600090611ad69060019061528c565b821115611af6576040516365d6f35160e11b815260040160405180910390fd5b60005b611b0483600161524a565b811015611b61576001611b4060028381548110611b2357611b2361525d565b90600052602060002001546000908152601e602052604090205490565b1115611b4f5750600192915050565b80611b5981615273565b915050611af9565b50600092915050565b60606019805480602002602001604051908101604052809291908181526020018280548015611431576020028201919060005260206000209081546001600160a01b03168152600190910190602001808311611669575050505050905090565b600080611bd8600080612dd4565b90506000611bee601f546001600160a01b031690565b6001600160a01b031603611c155760405163fa4f07a360e01b815260040160405180910390fd5b611c1d6116e1565b611c29610d098461529f565b6000611c3c611c378561529f565b613121565b9050611c4782612e71565b9392505050565b3373dc652c746a8f85e18ce632d97c6118e8a52fa73814611c825760405163de07280160e01b815260040160405180910390fd5b6004611c8c61201a565b6004811115611c9d57611c9d614c96565b1480611cc157506002611cae61201a565b6004811115611cbf57611cbf614c96565b145b15611cdf576040516398fe99a560e01b815260040160405180910390fd5b601180546001600160a01b0319166001600160a01b0392909216919091179055565b6013818154811061120657600080fd5b6004611d1b61201a565b6004811115611d2c57611d2c614c96565b1480611d5057506002611d3d61201a565b6004811115611d4e57611d4e614c96565b145b15611d6e57604051631e71d28360e21b815260040160405180910390fd5b805160005b81811015611e6c576000838281518110611d8f57611d8f61525d565b60209081029190910101516005549091506001600160a01b03163314801590611dcf57506000818152602260205260409020546001600160a01b03163314155b15611df557604051635450763d60e11b8152600481018290526024015b60405180910390fd5b60008181526024602052604090205460ff16611e59576000818152602460205260408120805460ff191660019081179091556021805491820181559091527f3a6357012c1a3ae0a17d304c9920310382d968ebcc4b1771f41c6b304205b570018190555b5080611e6481615273565b915050611d73565b507f788a4349d25bc08585923ae212bce8bb346a623bce753eeecb85fd9ce58dcb4b82604051611e9c919061481d565b60405180910390a15050565b6000818152601d60209081526040918290206001810180548451818502810185019095528085526060949293830182828015611f0d57602002820191906000526020600020905b81546001600160a01b03168152600190910190602001808311611eef575b5050505050915050919050565b6005546060906001600160a01b03163314611f4857604051630aca3d7160e11b815260040160405180910390fd5b6004611f5261201a565b6004811115611f6357611f63614c96565b1480611f8757506002611f7461201a565b6004811115611f8557611f85614c96565b145b15611fa557604051635b0747e760e01b815260040160405180910390fd5b6004611fb18382615175565b5090919050565b60008181526023602090815260409182902080548351818402810184019094528084526060939283018282801561200e57602002820191906000526020600020905b815481526020019060010190808311611ffa575b50505050509050919050565b60165460009060ff161561202e5750600290565b426007541061203d5750600090565b4261204661291d565b106120515750600390565b4261205a6115b6565b106120655750600190565b50600490565b6005546060906001600160a01b0316331461209957604051637d1cb2b160e01b815260040160405180910390fd5b60046120a361201a565b60048111156120b4576120b4614c96565b14806120d8575060026120c561201a565b60048111156120d6576120d6614c96565b145b156120f657604051635b0747e760e01b815260040160405180910390fd5b6003611fb18382615175565b61210a6143e7565b600082815260176020908152604091829020825160c08101845281546001600160a01b0381168252600160a01b900460ff16151592810192909252600181018054929391929184019161215c906150ed565b80601f0160208091040260200160405190810160405280929190818152602001828054612188906150ed565b80156121d55780601f106121aa576101008083540402835291602001916121d5565b820191906000526020600020905b8154815290600101906020018083116121b857829003601f168201915b5050509183525050604080516020818101835260028501546001600160a01b0316825280840191909152815160038501805460609381028301840185528285018181529490950194919390928492849184018282801561225e57602002820191906000526020600020905b81546001600160a01b03168152600190910190602001808311612240575b50505050508152602001600182015481525050815260200160058201604051806060016040529081600082018054806020026020016040519081016040528092919081815260200182805480156122de57602002820191906000526020600020905b81546001600160a01b031681526001909101906020018083116122c0575b5050505050815260200160018201805480602002602001604051908101604052809291908181526020016000905b828210156123b857838290600052602060002001805461232b906150ed565b80601f0160208091040260200160405190810160405280929190818152602001828054612357906150ed565b80156123a45780601f10612379576101008083540402835291602001916123a4565b820191906000526020600020905b81548152906001019060200180831161238757829003601f168201915b50505050508152602001906001019061230c565b5050505081526020016002820180548060200260200160405190810160405280929190818152602001828054801561240f57602002820191906000526020600020905b8154815260200190600101908083116123fb575b5050509190925250505090525092915050565b6000600161242e61201a565b600481111561243f5761243f614c96565b1461245d5760405163a6f7b85360e01b815260040160405180910390fd5b6000600e54801561247057612470614c96565b801561247e5761247e614c96565b0361258c576000603c61248f61291d565b61249a90600161524a565b6124a4904261528c565b6124ae91906152c1565b9050600061251b6125076124d06124cd85670de0b6b3a76400006152e3565b90565b6125026124ec600954670de0b6b3a76400006124cd91906152e3565b6125026124cd603c670de0b6b3a76400006152e3565b6133ef565b68056bc75e2d63100000613407565b613407565b9050600061253d8261251661252f600f5490565b670de0b6b3a76400006133ef565b9050600061254a82613416565b905060006125666124cd61256061252f600d5490565b84613407565b905064e8d4a5100061257881836152c1565b61258291906152e3565b9550505050505090565b50600d5490565b6060600060148054806020026020016040519081016040528092919081815260200182805480156125e357602002820191906000526020600020905b8154815260200190600101908083116125cf575b50505050509050600081516001600160401b0381111561260557612605614830565b60405190808252806020026020018201604052801561262e578160200160208202803683370190505b50905060005b82518110156126bc57601760008483815181106126535761265361525d565b6020026020010151815260200190815260200160002060000160009054906101000a90046001600160a01b03168282815181106126925761269261525d565b6001600160a01b0390921660209283029190910190910152806126b481615273565b915050612634565b5092915050565b80516001600160a01b0316331461270157805160405163fbbf4d7f60e01b81526001600160a01b039091166004820152336024820152604401611dec565b60005b6127106002600161524a565b81101561288057600081600281111561272b5761272b614c96565b9050600081600281111561274157612741614c96565b0361274c575061286e565b600181600281111561276057612760614c96565b036127ba576080830151515160000361278c5760405163c3b2798b60e01b815260040160405180910390fd5b8260800151602001516000036127b5576040516392fb9a3560e01b815260040160405180910390fd5b61286c565b60028160028111156127ce576127ce614c96565b036128515760a08301515151600a10156127fb57604051631e38b1b160e11b815260040160405180910390fd5b600a8360a00151602001515111156128265760405163a3b7dd7760e01b815260040160405180910390fd5b600a8360a00151604001515111156127b55760405163f696406560e01b815260040160405180910390fd5b8060405163d2277d4960e01b8152600401611dec91906152fa565b505b8061287881615273565b915050612704565b508060400151516000036128a75760405163e182473360e01b815260040160405180910390fd5b50565b6000818152601e60205260408120546001146128d957604051633832a15560e21b815260040160405180910390fd5b6000828152601e6020526040812080549091906128f8576128f861525d565b90600052602060002001549050919050565b6000816040516020016116c39190614cc6565b60006008546007546115cd919061524a565b60606020805480602002602001604051908101604052809291908181526020018280548015611431576020028201919060005260206000209081548152602001906001019080831161141d575050505050905090565b6005546001600160a01b031633148015906129b457503373dc652c746a8f85e18ce632d97c6118e8a52fa73814155b156129d257604051637601acaf60e11b815260040160405180910390fd5b60165460ff16156129f657604051636f79584d60e01b815260040160405180910390fd5b601b5415600114612a1a5760405163043d8d1b60e21b815260040160405180910390fd5b6016805460ff191660011790556040517f4cd963a081760a54f571abc0f1db4dde31b4a07d8d6da3e844b8c6f47eeaaa4290600090a1565b60606013805480602002602001604051908101604052809291908181526020018280548015611431576020028201919060005260206000209081548152602001906001019080831161141d575050505050905090565b6003612ab261201a565b6004811115612ac357612ac3614c96565b14612ae15760405163554806bb60e11b815260040160405180910390fd5b60005b81811015612bd5576000838383818110612b0057612b0061525d565b60055460209190910292909201359250506001600160a01b03163314801590612b4057506000818152601760205260409020546001600160a01b03163314155b15612b5e5760405163018db70560e11b815260040160405180910390fd5b60008181526015602052604090205460ff16612bc2576000818152601560205260408120805460ff191660019081179091556014805491820181559091527fce6d7b5282bd9a3661ae061feed1dbda4e52ab073b1f9285be6e155d9c38d4ec018190555b5080612bcd81615273565b915050612ae4565b507f75a75cf5c561892f4cc5b26c1b8e933849b42238c96dd073d080d1ae96c514166013604051611e9c919061530e565b6005546001600160a01b03163314612c3157604051630f4cb1bd60e11b815260040160405180910390fd5b601f546001600160a01b031615612c5b57604051630ff4b80b60e01b815260040160405180910390fd5b306001600160a01b0316816001600160a01b031663f3f44fb76040518163ffffffff1660e01b8152600401602060405180830381865afa158015612ca3573d6000803e3d6000fd5b505050506040513d601f19601f82011682018060405250810190612cc79190615349565b6001600160a01b031614612cee57604051635b310aaf60e01b815260040160405180910390fd5b601f80546001600160a01b038381166001600160a01b031983168117909355604080519190921680825260208201939093527f753a2cf8d360cff631674504210913e48247f8e56b3e6d2006c2103d4095999f9101611e9c565b6020818154811061120657600080fd5b6023602052816000526040600020818154811061198f57600080fd5b6000818152601e602090815260409182902080548351818402810184019094528084526060939283018282801561200e5760200282019190600052602060002090815481526020019060010190808311611ffa5750505050509050919050565b6000806001846001811115612deb57612deb614c96565b03612e4457670de0b6b3a7640000831015612e19576040516346ddb8d160e01b815260040160405180910390fd5b612e2b670de0b6b3a7640000846152c1565b612e33612422565b612e3d91906152e3565b9050612e48565b5060005b803414611c47576040516372c3eaa760e01b815234600482015260248101829052604401611dec565b80156128a75760006064600c546064612e8a919061528c565b612e9490346152e3565b612e9e91906152c1565b90508015612fa4576000601054600114612eb9576000612ec4565b612ec46002836152c1565b90508015612f2957600554612ee2906001600160a01b03168261346c565b600554604080516001600160a01b039092168252602082018390527f6dff55337c8458ae8c536a63869a48bc33541733422a796390c131d91f4238ed910160405180910390a15b601154612f48906001600160a01b0316612f43838561528c565b61346c565b6011547f9df63d1c00d2e332f573be591c0579caafb256b2c5a17abcc8ad471cccda1b81906001600160a01b0316612f80838561528c565b604080516001600160a01b03909316835260208301919091520160405180910390a1505b6000612fb0823461528c565b9050801561302857612fd3612fcd601f546001600160a01b031690565b8261346c565b7f2c7d70ceb5af79cc37f1832a7908bad1815c2d634ae0f5480dac8eaecddc2e67613006601f546001600160a01b031690565b604080516001600160a01b039092168252602082018490520160405180910390a15b505050565b6000600161303961201a565b600481111561304a5761304a614c96565b146130685760405163f569a2b960e01b815260040160405180910390fd5b816000036130895760405163502e1c2960e01b815260040160405180910390fd5b613094848484613585565b601a80546001810182556000919091527f057c384a7d1c54f3a1b2e5e67b2617b8224fdfd1ea7234eea573a6ff665ff63e0180546001600160a01b0319163317905560408051858152602081018490526001600160a01b038516917fb4cfecf70861b7b150d8337780d34fb4cbc2114b5fb1fe51a5c5fca1849f7274910160405180910390a25092915050565b6000600361312d61201a565b600481111561313e5761313e614c96565b1461315c5760405163152839c360e31b815260040160405180910390fd5b600a54336000908152601860205260409020540361319357600a54604051632bd6d93960e21b8152600401611dec91815260200190565b600b546014546013546131a6919061528c565b036131ca57600b546040516302217f5360e51b8152600401611dec91815260200190565b60006131d58361290a565b600081815260176020526040902054909150600160a01b900460ff16156132125760405163baffc42360e01b815260048101829052602401611dec565b6013805460018181019092557f66de8ffda797e3de9c05e8fc57b3bf0ec28a930d40b0d285d93c06501cf6a0900182905560008281526017602090815260409182902086518154928801511515600160a01b026001600160a81b03199093166001600160a01b03909116179190911781559085015185928201906132969082615175565b506060820151516002820180546001600160a01b0319166001600160a01b0390921691909117905560808201518051805160038401916132db91839160200190614481565b5060209182015160019091015560a083015180518051919260058501926133059284920190614481565b50602082810151805161331e92600185019201906144e6565b506040820151805161333a916002840191602090910190614538565b505033600090815260186020526040812080546001955090935090915061336290849061524a565b9091555050601980546001810182556000919091527f944998273e477b495144fb8794c914197f3ccb46be2900f4698fd0ef743c96950180546001600160a01b0319163390811790915560408085015190517f7585f467599d0f008985f231af99293be388626ac16ca59505c2f8f88969cd63926133e1928592615366565b60405180910390a192915050565b6000611c476124cd84670de0b6b3a7640000856136d1565b6000611c476124cd84846137a5565b600081680a688906bd8affffff8111156134465760405163b3b6ba1f60e01b815260048101849052602401611dec565b600061345e670de0b6b3a7640000604084901b6152c1565b90506116276124cd8261385b565b804710156134bc5760405162461bcd60e51b815260206004820152601d60248201527f416464726573733a20696e73756666696369656e742062616c616e63650000006044820152606401611dec565b6000826001600160a01b03168260405160006040518083038185875af1925050503d8060008114613509576040519150601f19603f3d011682016040523d82523d6000602084013e61350e565b606091505b50509050806130285760405162461bcd60e51b815260206004820152603a60248201527f416464726573733a20756e61626c6520746f2073656e642076616c75652c207260448201527f6563697069656e74206d617920686176652072657665727465640000000000006064820152608401611dec565b6000838152601d602090815260408083206001600160a01b03861684526002810190925282205481549192901591849184916135c290849061524a565b90915550506001600160a01b0384166000908152600283016020526040812080548592906135f190849061524a565b9091555050801561362c576001828101805491820181556000908152602090200180546001600160a01b0319166001600160a01b0386161790555b6001600160a01b0384166000908152601c60205260408120805485929061365490849061524a565b9250508190555082601b600082825461366d919061524a565b90915550506000546001036136ca578154600061368a858361528c565b9050801561369c5761369c8782613fbb565b6000828152601e60209081526040822080546001810182559083529120018790556136c781836140f2565b50505b5050505050565b600080806000198587098587029250828110838203039150508060000361370b57838281613701576137016152ab565b0492505050611c47565b83811061373c57604051630c740aef60e31b8152600481018790526024810186905260448101859052606401611dec565b60008486880960026001871981018816978890046003810283188082028403028082028403028082028403028082028403028082028403029081029092039091026000889003889004909101858311909403939093029303949094049190911702949350505050565b60008080600019848609848602925082811083820303915050806000036137d95750670de0b6b3a7640000900490506115b0565b670de0b6b3a7640000811061380b57604051635173648d60e01b81526004810186905260248101859052604401611dec565b6000670de0b6b3a764000085870962040000818503049310909103600160ee1b02919091177faccb18165bd6fe31ae1cf318dc5b51eee0e1ba569b88cd74c1773b91fac106690291505092915050565b600160bf1b67ff000000000000008216156139685767800000000000000082161561388f5768016a09e667f3bcc9090260401c5b6740000000000000008216156138ae576801306fe0a31b7152df0260401c5b6720000000000000008216156138cd576801172b83c7d517adce0260401c5b6710000000000000008216156138ec5768010b5586cf9890f62a0260401c5b67080000000000000082161561390b576801059b0d31585743ae0260401c5b67040000000000000082161561392a57680102c9a3e778060ee70260401c5b6702000000000000008216156139495768010163da9fb33356d80260401c5b67010000000000000082161561396857680100b1afa5abcbed610260401c5b66ff000000000000821615613a675766800000000000008216156139955768010058c86da1c09ea20260401c5b66400000000000008216156139b3576801002c605e2e8cec500260401c5b66200000000000008216156139d157680100162f3904051fa10260401c5b66100000000000008216156139ef576801000b175effdc76ba0260401c5b6608000000000000821615613a0d57680100058ba01fb9f96d0260401c5b6604000000000000821615613a2b5768010002c5cc37da94920260401c5b6602000000000000821615613a49576801000162e525ee05470260401c5b6601000000000000821615613a675768010000b17255775c040260401c5b65ff0000000000821615613b5d5765800000000000821615613a92576801000058b91b5bc9ae0260401c5b65400000000000821615613aaf57680100002c5c89d5ec6d0260401c5b65200000000000821615613acc5768010000162e43f4f8310260401c5b65100000000000821615613ae957680100000b1721bcfc9a0260401c5b65080000000000821615613b065768010000058b90cf1e6e0260401c5b65040000000000821615613b23576801000002c5c863b73f0260401c5b65020000000000821615613b4057680100000162e430e5a20260401c5b65010000000000821615613b5d576801000000b1721835510260401c5b64ff00000000821615613c4a57648000000000821615613b8657680100000058b90c0b490260401c5b644000000000821615613ba25768010000002c5c8601cc0260401c5b642000000000821615613bbe576801000000162e42fff00260401c5b641000000000821615613bda5768010000000b17217fbb0260401c5b640800000000821615613bf6576801000000058b90bfce0260401c5b640400000000821615613c1257680100000002c5c85fe30260401c5b640200000000821615613c2e5768010000000162e42ff10260401c5b640100000000821615613c4a57680100000000b17217f80260401c5b63ff000000821615613d2e576380000000821615613c715768010000000058b90bfc0260401c5b6340000000821615613c8c576801000000002c5c85fe0260401c5b6320000000821615613ca757680100000000162e42ff0260401c5b6310000000821615613cc2576801000000000b17217f0260401c5b6308000000821615613cdd57680100000000058b90c00260401c5b6304000000821615613cf85768010000000002c5c8600260401c5b6302000000821615613d13576801000000000162e4300260401c5b6301000000821615613d2e5768010000000000b172180260401c5b62ff0000821615613e095762800000821615613d53576801000000000058b90c0260401c5b62400000821615613d6d57680100000000002c5c860260401c5b62200000821615613d875768010000000000162e430260401c5b62100000821615613da157680100000000000b17210260401c5b62080000821615613dbb5768010000000000058b910260401c5b62040000821615613dd5576801000000000002c5c80260401c5b62020000821615613def57680100000000000162e40260401c5b62010000821615613e09576801000000000000b1720260401c5b61ff00821615613edb57618000821615613e2c57680100000000000058b90260401c5b614000821615613e455768010000000000002c5d0260401c5b612000821615613e5e576801000000000000162e0260401c5b611000821615613e775768010000000000000b170260401c5b610800821615613e90576801000000000000058c0260401c5b610400821615613ea957680100000000000002c60260401c5b610200821615613ec257680100000000000001630260401c5b610100821615613edb57680100000000000000b10260401c5b60ff821615613fa4576080821615613efc57680100000000000000590260401c5b6040821615613f14576801000000000000002c0260401c5b6020821615613f2c57680100000000000000160260401c5b6010821615613f44576801000000000000000b0260401c5b6008821615613f5c57680100000000000000060260401c5b6004821615613f7457680100000000000000030260401c5b6002821615613f8c57680100000000000000010260401c5b6001821615613fa457680100000000000000010260401c5b670de0b6b3a76400000260409190911c60bf031c90565b6000818152601e602090815260408083208054825181850281018501909352808352919290919083018282801561401157602002820191906000526020600020905b815481526020019060010190808311613ffd575b5050505050905060005b81518110156140ec57838282815181106140375761403761525d565b6020026020010151036140da578160018351614053919061528c565b815181106140635761406361525d565b6020026020010151601e6000858152602001908152602001600020828154811061408f5761408f61525d565b9060005260206000200181905550601e60008481526020019081526020016000208054806140bf576140bf615390565b600190038181906000526020600020016000905590556140ec565b806140e481615273565b91505061401b565b50505050565b6002805460408051602080840282018101909252828152919260009291849083018282801561414057602002820191906000526020600020905b81548152602001906001019080831161412c575b5050505050905081600003614187575050600280546001810182556000919091527f405787fa12a823e0f2b7631cc41b3ba8828b3321ca811111fa75cd3aa3bb5ace015550565b8061419360018461528c565b815181106141a3576141a361525d565b60200260200101518310156141f95760015482036141c15750505050565b5050600280546001810182556000919091527f405787fa12a823e0f2b7631cc41b3ba8828b3321ca811111fa75cd3aa3bb5ace015550565b6140ec848484846000805b8381101561426e5782818151811061421e5761421e61525d565b602002602001015185036142335750506140ec565b8281815181106142455761424561525d565b602002602001015185111561425c5780915061426e565b8061426681615273565b915050614204565b506000808611801561428c57506000868152601e6020526040902054155b905060008180156142b55750868484815181106142ab576142ab61525d565b6020026020010151145b6143be576142c460018661528c565b831461436c5760006142d784600161524a565b90505b8581101561436a57846142ee60018361528c565b815181106142fe576142fe61525d565b6020026020010151600282815481106143195761431961525d565b60009182526020909120015582801561434a5750878582815181106143405761434061525d565b6020026020010151145b15614358576001915061436a565b8061436281615273565b9150506142da565b505b8015801561437b575060015485105b156143be5760028461438e60018861528c565b8151811061439e5761439e61525d565b602090810291909101810151825460018101845560009384529190922001555b85600284815481106143d2576143d261525d565b60009182526020909120015550505050505050565b6040518060c0016040528060006001600160a01b0316815260200160001515815260200160608152602001614431604051806020016040528060006001600160a01b031681525090565b8152602001614453604051806040016040528060608152602001600081525090565b815260200161447c60405180606001604052806060815260200160608152602001606081525090565b905290565b8280548282559060005260206000209081019282156144d6579160200282015b828111156144d657825182546001600160a01b0319166001600160a01b039091161782556020909201916001909101906144a1565b506144e2929150614573565b5090565b82805482825590600052602060002090810192821561452c579160200282015b8281111561452c578251829061451c9082615175565b5091602001919060010190614506565b506144e2929150614588565b8280548282559060005260206000209081019282156144d6579160200282015b828111156144d6578251825591602001919060010190614558565b5b808211156144e25760008155600101614574565b808211156144e257600061459c82826145a5565b50600101614588565b5080546145b1906150ed565b6000825580601f106145c1575050565b601f0160209004906000526020600020908101906128a79190614573565b6000602082840312156145f157600080fd5b5035919050565b6000815180845260005b8181101561461e57602081850181015186830182015201614602565b506000602082860101526020601f19601f83011685010191505092915050565b600081518084526020808501945080840160005b838110156146775781516001600160a01b031687529582019590820190600101614652565b509495945050505050565b6000815160408452614697604085018261463e565b602093840151949093019390935250919050565b600081518084526020808501945080840160005b83811015614677578151875295820195908201906001016146bf565b60008151606084526146f0606085018261463e565b9050602080840151858303828701528281518085528385019150838160051b860101848401935060005b8281101561474857601f198783030184526147368286516145f8565b9486019493860193915060010161471a565b506040880151955088810360408a015261476281876146ab565b9998505050505050505050565b600060018060a01b038089168352871515602084015260c0604084015261479960c08401886145f8565b81875116606085015283810360808501526147b48187614682565b91505082810360a084015261476281856146db565b602081526000611c4760208301846145f8565b6020815260018060a01b03825116602082015260208201516040820152604082015160608201526000606083015160808084015261162760a08401826145f8565b602081526000611c4760208301846146ab565b634e487b7160e01b600052604160045260246000fd5b604051606081016001600160401b038111828210171561486857614868614830565b60405290565b60405160c081016001600160401b038111828210171561486857614868614830565b604051601f8201601f191681016001600160401b03811182821017156148b8576148b8614830565b604052919050565b600082601f8301126148d157600080fd5b81356001600160401b038111156148ea576148ea614830565b6148fd601f8201601f1916602001614890565b81815284602083860101111561491257600080fd5b816020850160208301376000918101602001919091529392505050565b6000806040838503121561494257600080fd5b8235915060208301356001600160401b0381111561495f57600080fd5b61496b858286016148c0565b9150509250929050565b6000806040838503121561498857600080fd5b50508035926020909101359150565b6020808252825182820181905260009190848201906040850190845b818110156149d85783516001600160a01b0316835292840192918401916001016149b3565b50909695505050505050565b6001600160a01b03811681146128a757600080fd5b8035614a04816149e4565b919050565b600060208284031215614a1b57600080fd5b81356001600160401b0380821115614a3257600080fd5b9083019060808286031215614a4657600080fd5b604051608081018181108382111715614a6157614a61614830565b6040528235614a6f816149e4565b808252506020830135602082015260408301356040820152606083013582811115614a9957600080fd5b614aa5878286016148c0565b60608301525095945050505050565b604081526000614ac760408301856146ab565b8281036020840152614ad981856146ab565b95945050505050565b60008060408385031215614af557600080fd5b823591506020830135614b07816149e4565b809150509250929050565b600060208284031215614b2457600080fd5b8135611c47816149e4565b60018060a01b0385168152836020820152826040820152608060608201526000614b5c60808301846145f8565b9695505050505050565b600060208284031215614b7857600080fd5b81356001600160401b03811115614b8e57600080fd5b820160c08185031215611c4757600080fd5b60006001600160401b03821115614bb957614bb9614830565b5060051b60200190565b600082601f830112614bd457600080fd5b81356020614be9614be483614ba0565b614890565b82815260059290921b84018101918181019086841115614c0857600080fd5b8286015b84811015614c235780358352918301918301614c0c565b509695505050505050565b600060208284031215614c4057600080fd5b81356001600160401b03811115614c5657600080fd5b61162784828501614bc3565b600060208284031215614c7457600080fd5b81356001600160401b03811115614c8a57600080fd5b611627848285016148c0565b634e487b7160e01b600052602160045260246000fd5b6020810160058310614cc057614cc0614c96565b91905290565b60208152600060018060a01b03808451166020840152602084015115156040840152604084015160c06060850152614d0160e08501826145f8565b90508160608601515116608085015260808501519150601f19808583030160a0860152614d2e8284614682565b925060a08601519150808584030160c086015250614ad982826146db565b80358015158114614a0457600080fd5b600060208284031215614d6e57600080fd5b604051602081018181106001600160401b0382111715614d9057614d90614830565b6040529050808235614da1816149e4565b905292915050565b600082601f830112614dba57600080fd5b81356020614dca614be483614ba0565b82815260059290921b84018101918181019086841115614de957600080fd5b8286015b84811015614c23578035614e00816149e4565b8352918301918301614ded565b600060408284031215614e1f57600080fd5b604051604081016001600160401b038282108183111715614e4257614e42614830565b816040528293508435915080821115614e5a57600080fd5b50614e6785828601614da9565b825250602083013560208201525092915050565b600060608284031215614e8d57600080fd5b614e95614846565b905081356001600160401b0380821115614eae57600080fd5b614eba85838601614da9565b8352602091508184013581811115614ed157600080fd5b8401601f81018613614ee257600080fd5b8035614ef0614be482614ba0565b81815260059190911b82018401908481019088831115614f0f57600080fd5b8584015b83811015614f4757803586811115614f2b5760008081fd5b614f398b89838901016148c0565b845250918601918601614f13565b508086880152505050506040840135915080821115614f6557600080fd5b50614f7284828501614bc3565b60408301525092915050565b600060c08284031215614f9057600080fd5b614f9861486e565b9050614fa3826149f9565b8152614fb160208301614d4c565b602082015260408201356001600160401b0380821115614fd057600080fd5b614fdc858386016148c0565b6040840152614fee8560608601614d5c565b6060840152608084013591508082111561500757600080fd5b61501385838601614e0d565b608084015260a084013591508082111561502c57600080fd5b5061503984828501614e7b565b60a08301525092915050565b60006020828403121561505757600080fd5b81356001600160401b0381111561506d57600080fd5b61162784828501614f7e565b6000806020838503121561508c57600080fd5b82356001600160401b03808211156150a357600080fd5b818501915085601f8301126150b757600080fd5b8135818111156150c657600080fd5b8660208260051b85010111156150db57600080fd5b60209290920196919550909350505050565b600181811c9082168061510157607f821691505b60208210810361512157634e487b7160e01b600052602260045260246000fd5b50919050565b601f82111561302857600081815260208120601f850160051c8101602086101561514e5750805b601f850160051c820191505b8181101561516d5782815560010161515a565b505050505050565b81516001600160401b0381111561518e5761518e614830565b6151a28161519c84546150ed565b84615127565b602080601f8311600181146151d757600084156151bf5750858301515b600019600386901b1c1916600185901b17855561516d565b600085815260208120601f198616915b82811015615206578886015182559484019460019091019084016151e7565b50858210156152245787850151600019600388901b60f8161c191681555b5050505050600190811b01905550565b634e487b7160e01b600052601160045260246000fd5b808201808211156115b0576115b0615234565b634e487b7160e01b600052603260045260246000fd5b60006001820161528557615285615234565b5060010190565b818103818111156115b0576115b0615234565b60006115b03683614f7e565b634e487b7160e01b600052601260045260246000fd5b6000826152de57634e487b7160e01b600052601260045260246000fd5b500490565b80820281158282048414176115b0576115b0615234565b6020810160038310614cc057614cc0614c96565b6020808252825482820181905260008481528281209092916040850190845b818110156149d85783548352600193840193928501920161532d565b60006020828403121561535b57600080fd5b8151611c47816149e4565b8381526001600160a01b0383166020820152606060408201819052600090614ad9908301846145f8565b634e487b7160e01b600052603160045260246000fdfea264697066735822122055a240e72f8ba04985b121b64787d392abd45eedd5e80b94d779e5b90f52f01664736f6c63430008130033","linkReferences":{}},"methodIdentifiers":{"AMOUNT_FOR_SUMBITTER_PROOF()":"347cf665","COST_ROUNDING_VALUE()":"e269cefe","JK_LABS_ADDRESS()":"eef18e17","MAX_FIELDS_METADATA_LENGTH()":"b382543f","METADATAS_COUNT()":"4d24a67f","PRICE_CURVE_UPDATE_INTERVAL()":"fd7971c9","SECONDS_IN_DAY()":"61a52a36","addressTotalCastVoteCount(address)":"dda54fcf","addressesThatHaveVoted(uint256)":"50c4b616","allProposalTotalVotes()":"50a5e524","anyoneCanSubmit()":"5358b80e","cancel()":"ea8a1af0","canceled()":"3f9942ff","castVote(uint256,uint256)":"2c0a3f89","comment(uint256,string)":"1805c523","commentIds(uint256)":"f5c36411","commentIsDeleted(uint256)":"ae66b8ad","comments(uint256)":"8ebb4c15","contestAddressTotalVotesCast(address)":"aec116b6","contestDeadline()":"262e59e9","contestStart()":"004114a8","costToVote()":"51a41dec","creator()":"02d05d3f","creatorSplitEnabled()":"9decae31","currentPricePerVote()":"ca09a4c4","deleteComments(uint256[])":"ac67f801","deleteProposals(uint256[])":"f0a7db0a","deletedCommentIds(uint256)":"3fb57c92","deletedProposalIds(uint256)":"05846cae","getAllAddressesThatHaveVoted()":"2c39805f","getAllAuthorsOfDeletedProposals()":"cbdc27cb","getAllCommentIds()":"e11db9d8","getAllDeletedCommentIds()":"5cb718a1","getAllDeletedProposalIds()":"1242b737","getAllProposalAuthors()":"946369b5","getAllProposalIds()":"efa90d36","getComment(uint256)":"0800e300","getNumProposalsWithThisManyVotes(uint256)":"bc022c98","getOnlyProposalIdWithThisManyVotes(uint256)":"d576b81d","getProposal(uint256)":"c7f758a8","getProposalComments(uint256)":"c05f4104","getProposalsWithThisManyVotes(uint256)":"f82e54c0","getRankIndex(uint256)":"5c7107d8","getSortedRanks()":"6fd3636b","hashComment((address,uint256,uint256,string))":"409fd030","hashProposal((address,bool,string,(address),(address[],uint256),(address[],string[],uint256[])))":"d7989025","isOrIsBelowTiedRank(uint256)":"9174778c","jkLabsSplitDestination()":"102613d8","maxProposalCount()":"fb9bf8d4","metadataFieldsSchema()":"60ed97a9","multiple()":"437a8ae6","name()":"06fdde03","numAllowedProposalSubmissions()":"832009af","numSubmissions(address)":"75e509c5","officialRewardsModule()":"785ddfe5","percentageToRewards()":"06b2193f","priceCurveType()":"4a2c96ec","prompt()":"7c65d711","proposalAddressVotes(uint256,address)":"6e4eb810","proposalAddressesHaveVoted(uint256)":"b323580d","proposalAuthors(uint256)":"0aa25e44","proposalComments(uint256,uint256)":"f61736f4","proposalIds(uint256)":"9b644a23","proposalIsDeleted(uint256)":"f79c0172","proposalVoteStructs(uint256)":"15dee7cd","proposalVotes(uint256)":"544ffc9c","proposals(uint256)":"013cf08b","propose((address,bool,string,(address),(address[],uint256),(address[],string[],uint256[])))":"9a04ede8","rankLimit()":"0414126a","setJkLabsSplitDestination(address)":"9b338aa0","setName(string)":"c47f0027","setOfficialRewardsModule(address)":"f4f3d7ec","setPrompt(string)":"b4ac024f","sortedRanks(uint256)":"325cc6d9","sortingEnabled()":"366ecf5b","state()":"c19d93fb","totalVotesCast()":"7de418d5","totalVotesCastIsZero()":"7d742925","validateProposalData((address,bool,string,(address),(address[],uint256),(address[],string[],uint256[])))":"d140d9f0","verifyProposer()":"476106c8","version()":"54fd4d50","voteStart()":"e031535b","votesToProposalIds(uint256,uint256)":"6d030621","votingDelay()":"3932abb1","votingPeriod()":"02a251a3"},"id":52}