{"abi":[{"type":"constructor","inputs":[{"name":"payees_","type":"uint256[]","internalType":"uint256[]"},{"name":"shares_","type":"uint256[]","internalType":"uint256[]"},{"name":"underlyingContest_","type":"address","internalType":"contract GovernorCountingSimple"},{"name":"paysOutTarget_","type":"bool","internalType":"bool"}],"stateMutability":"payable"},{"type":"receive","stateMutability":"payable"},{"type":"function","name":"creator","inputs":[],"outputs":[{"name":"","type":"address","internalType":"address"}],"stateMutability":"view"},{"type":"function","name":"erc20Released","inputs":[{"name":"","type":"address","internalType":"contract IERC20"},{"name":"","type":"uint256","internalType":"uint256"}],"outputs":[{"name":"","type":"uint256","internalType":"uint256"}],"stateMutability":"view"},{"type":"function","name":"erc20TotalReleased","inputs":[{"name":"","type":"address","internalType":"contract IERC20"}],"outputs":[{"name":"","type":"uint256","internalType":"uint256"}],"stateMutability":"view"},{"type":"function","name":"getAddressToPayOut","inputs":[{"name":"ranking","type":"uint256","internalType":"uint256"}],"outputs":[{"name":"","type":"address","internalType":"address"}],"stateMutability":"view"},{"type":"function","name":"getPayees","inputs":[],"outputs":[{"name":"","type":"uint256[]","internalType":"uint256[]"}],"stateMutability":"view"},{"type":"function","name":"getUnderlyingContest","inputs":[],"outputs":[{"name":"","type":"address","internalType":"contract GovernorCountingSimple"}],"stateMutability":"view"},{"type":"function","name":"payees","inputs":[{"name":"","type":"uint256","internalType":"uint256"}],"outputs":[{"name":"","type":"uint256","internalType":"uint256"}],"stateMutability":"view"},{"type":"function","name":"paysOutTarget","inputs":[],"outputs":[{"name":"","type":"bool","internalType":"bool"}],"stateMutability":"view"},{"type":"function","name":"releasable","inputs":[{"name":"token","type":"address","internalType":"contract IERC20"},{"name":"ranking","type":"uint256","internalType":"uint256"}],"outputs":[{"name":"","type":"uint256","internalType":"uint256"}],"stateMutability":"view"},{"type":"function","name":"releasable","inputs":[{"name":"ranking","type":"uint256","internalType":"uint256"}],"outputs":[{"name":"","type":"uint256","internalType":"uint256"}],"stateMutability":"view"},{"type":"function","name":"release","inputs":[{"name":"token","type":"address","internalType":"contract IERC20"},{"name":"ranking","type":"uint256","internalType":"uint256"}],"outputs":[],"stateMutability":"nonpayable"},{"type":"function","name":"release","inputs":[{"name":"ranking","type":"uint256","internalType":"uint256"}],"outputs":[],"stateMutability":"nonpayable"},{"type":"function","name":"released","inputs":[{"name":"","type":"uint256","internalType":"uint256"}],"outputs":[{"name":"","type":"uint256","internalType":"uint256"}],"stateMutability":"view"},{"type":"function","name":"runReleaseChecks","inputs":[{"name":"ranking","type":"uint256","internalType":"uint256"}],"outputs":[],"stateMutability":"view"},{"type":"function","name":"shares","inputs":[{"name":"","type":"uint256","internalType":"uint256"}],"outputs":[{"name":"","type":"uint256","internalType":"uint256"}],"stateMutability":"view"},{"type":"function","name":"totalReleased","inputs":[],"outputs":[{"name":"","type":"uint256","internalType":"uint256"}],"stateMutability":"view"},{"type":"function","name":"totalShares","inputs":[],"outputs":[{"name":"","type":"uint256","internalType":"uint256"}],"stateMutability":"view"},{"type":"function","name":"underlyingContest","inputs":[],"outputs":[{"name":"","type":"address","internalType":"contract GovernorCountingSimple"}],"stateMutability":"view"},{"type":"function","name":"version","inputs":[],"outputs":[{"name":"","type":"string","internalType":"string"}],"stateMutability":"pure"},{"type":"function","name":"withdrawRewards","inputs":[{"name":"token","type":"address","internalType":"contract IERC20"}],"outputs":[],"stateMutability":"nonpayable"},{"type":"function","name":"withdrawRewards","inputs":[],"outputs":[],"stateMutability":"nonpayable"},{"type":"event","name":"ERC20PaymentReleased","inputs":[{"name":"token","type":"address","indexed":true,"internalType":"contract IERC20"},{"name":"to","type":"address","indexed":false,"internalType":"address"},{"name":"amount","type":"uint256","indexed":false,"internalType":"uint256"}],"anonymous":false},{"type":"event","name":"ERC20RewardWithdrawn","inputs":[{"name":"token","type":"address","indexed":true,"internalType":"contract IERC20"},{"name":"by","type":"address","indexed":false,"internalType":"address"},{"name":"amount","type":"uint256","indexed":false,"internalType":"uint256"}],"anonymous":false},{"type":"event","name":"PayeeAdded","inputs":[{"name":"ranking","type":"uint256","indexed":false,"internalType":"uint256"},{"name":"shares","type":"uint256","indexed":false,"internalType":"uint256"}],"anonymous":false},{"type":"event","name":"PaymentReceived","inputs":[{"name":"from","type":"address","indexed":false,"internalType":"address"},{"name":"amount","type":"uint256","indexed":false,"internalType":"uint256"}],"anonymous":false},{"type":"event","name":"PaymentReleased","inputs":[{"name":"to","type":"address","indexed":false,"internalType":"address"},{"name":"amount","type":"uint256","indexed":false,"internalType":"uint256"}],"anonymous":false},{"type":"event","name":"RewardWithdrawn","inputs":[{"name":"by","type":"address","indexed":false,"internalType":"address"},{"name":"amount","type":"uint256","indexed":false,"internalType":"uint256"}],"anonymous":false},{"type":"error","name":"AccountAlreadyHasShares","inputs":[]},{"type":"error","name":"AccountNotDueERC20Payment","inputs":[]},{"type":"error","name":"AccountNotDueNativePayment","inputs":[]},{"type":"error","name":"CannotPayOutToZeroAddress","inputs":[]},{"type":"error","name":"ContestMustBeCompleted","inputs":[]},{"type":"error","name":"MustHaveAtLeastOnePayee","inputs":[]},{"type":"error","name":"MustHaveDownvotingDisabled","inputs":[]},{"type":"error","name":"MustHaveSortingEnabled","inputs":[]},{"type":"error","name":"OnlyCreatorCanWithdraw","inputs":[]},{"type":"error","name":"PayeesSharesLengthMismatch","inputs":[]},{"type":"error","name":"PayoutRankCannotBeZero","inputs":[]},{"type":"error","name":"RankingCannotBeZero","inputs":[]},{"type":"error","name":"RankingHasNoShares","inputs":[]},{"type":"error","name":"SharesCannotBeZero","inputs":[]},{"type":"error","name":"TotalSharesCannotBeZero","inputs":[]}],"bytecode":{"object":"0x608060405260405162001b3538038062001b35833981016040819052620000269162000301565b825184511462000049576040516324e23b4160e01b815260040160405180910390fd5b83516000036200006c57604051634c87c40160e01b815260040160405180910390fd5b60005b8451811015620000d857620000c3858281518110620000925762000092620003a6565b6020026020010151858381518110620000af57620000af620003a6565b60200260200101516200014660201b60201c565b80620000cf81620003d2565b9150506200006f565b50600054600003620000fd576040516306db759b60e21b815260040160405180910390fd5b60088054600780546001600160a01b039095166001600160a01b0319958616179055911515600160a01b02929092166001600160a81b03199091161733179055506200040a9050565b81600003620001685760405163d6fbfe2560e01b815260040160405180910390fd5b806000036200018a57604051633122bc0960e21b815260040160405180910390fd5b60008281526002602052604090205415620001b857604051637b4f7fb560e01b815260040160405180910390fd5b60048054600181019091557f8a35acfbc15ff81a39ae7d344fd709f28e8600b4aa8c65c6b64bfe7fe36bd19b0182905560008281526002602052604081208290555462000207908290620003ee565b60005560408051838152602081018390527f78bc0e219b874bf2620f7316737ec16d4bda1bb7136961e4dcb5ff0dc031cee4910160405180910390a15050565b634e487b7160e01b600052604160045260246000fd5b600082601f8301126200026f57600080fd5b815160206001600160401b03808311156200028e576200028e62000247565b8260051b604051601f19603f83011681018181108482111715620002b657620002b662000247565b604052938452858101830193838101925087851115620002d557600080fd5b83870191505b84821015620002f657815183529183019190830190620002db565b979650505050505050565b600080600080608085870312156200031857600080fd5b84516001600160401b03808211156200033057600080fd5b6200033e888389016200025d565b955060208701519150808211156200035557600080fd5b5062000364878288016200025d565b604087015190945090506001600160a01b03811681146200038457600080fd5b606086015190925080151581146200039b57600080fd5b939692955090935050565b634e487b7160e01b600052603260045260246000fd5b634e487b7160e01b600052601160045260246000fd5b600060018201620003e757620003e7620003bc565b5060010190565b80820180821115620004045762000404620003bc565b92915050565b61171b806200041a6000396000f3fe60806040526004361061012e5760003560e01c806354fd4d50116100ab578063a94d373b1161006f578063a94d373b146103cb578063c7104046146103f8578063c7b8981c14610418578063e33b7de31461042d578063e4bf01a814610443578063f3f44fb71461046357600080fd5b806354fd4d501461030d57806357a858fc1461034057806363037b0c1461036d578063828ce44b1461038d57806396f7ff6e146103ab57600080fd5b80633375bbdc116100f25780633375bbdc1461025257806337bdc99b1461027f5780633a98ef391461029f57806342d86693146102b55780634b945338146102d557600080fd5b806302d05d3f146101725780630357371d146101af5780631e5b4634146101d15780632081d6311461020257806327f381131461023057600080fd5b3661016d57604080513381523460208201527f6ef95f06320e7a25a04a175ca677b7052bdd97131872c2192525a629f51be770910160405180910390a1005b600080fd5b34801561017e57600080fd5b50600854610192906001600160a01b031681565b6040516001600160a01b0390911681526020015b60405180910390f35b3480156101bb57600080fd5b506101cf6101ca366004611216565b610483565b005b3480156101dd57600080fd5b506008546101f290600160a01b900460ff1681565b60405190151581526020016101a6565b34801561020e57600080fd5b5061022261021d366004611216565b61059a565b6040519081526020016101a6565b34801561023c57600080fd5b5061024561065c565b6040516101a69190611242565b34801561025e57600080fd5b5061022261026d366004611286565b60056020526000908152604090205481565b34801561028b57600080fd5b506101cf61029a3660046112a3565b6106b4565b3480156102ab57600080fd5b5061022260005481565b3480156102c157600080fd5b506101cf6102d0366004611286565b610799565b3480156102e157600080fd5b506102226102f0366004611216565b600660209081526000928352604080842090915290825290205481565b34801561031957600080fd5b506040805180820182526004815263342e323760e01b602082015290516101a691906112e0565b34801561034c57600080fd5b5061022261035b3660046112a3565b60026020526000908152604090205481565b34801561037957600080fd5b506102226103883660046112a3565b6108f6565b34801561039957600080fd5b506007546001600160a01b0316610192565b3480156103b757600080fd5b506101926103c63660046112a3565b610917565b3480156103d757600080fd5b506102226103e63660046112a3565b60036020526000908152604090205481565b34801561040457600080fd5b506101cf6104133660046112a3565b610b89565b34801561042457600080fd5b506101cf610d9f565b34801561043957600080fd5b5061022260015481565b34801561044f57600080fd5b5061022261045e3660046112a3565b610e27565b34801561046f57600080fd5b50600754610192906001600160a01b031681565b61048c81610b89565b6000610498838361059a565b9050806000036104bb57604051635fe559bd60e01b815260040160405180910390fd5b6001600160a01b038316600090815260056020526040812080548392906104e3908490611329565b90915550506001600160a01b0383166000908152600660209081526040808320858452909152812080548301905561051a83610917565b90506001600160a01b038116610543576040516346a3c2f960e01b815260040160405180910390fd5b604080516001600160a01b038381168252602082018590528616917f3be5b7a71e84ed12875d241991c70855ac5817d847039e17a9d895c1ceb0f18a910160405180910390a2610594848284610e5f565b50505050565b6001600160a01b0382166000818152600560205260408082205490516370a0823160e01b8152306004820152919283926370a0823190602401602060405180830381865afa1580156105f0573d6000803e3d6000fd5b505050506040513d601f19601f82011682018060405250810190610614919061133c565b61061e9190611329565b6001600160a01b03851660009081526006602090815260408083208784529091529020549091506106529084908390610eb1565b9150505b92915050565b606060048054806020026020016040519081016040528092919081815260200182805480156106aa57602002820191906000526020600020905b815481526020019060010190808311610696575b5050505050905090565b6106bd81610b89565b60006106c882610e27565b9050806000036106eb57604051631d1514e960e21b815260040160405180910390fd5b80600160008282546106fd9190611329565b9091555050600082815260036020526040812080548301905561071f83610917565b90506001600160a01b038116610748576040516346a3c2f960e01b815260040160405180910390fd5b604080516001600160a01b0383168152602081018490527fdf20fd1e76bc69d672e4814fafb2c449bba3a5369d8359adf9e05e6fde87b056910160405180910390a16107948183610eeb565b505050565b6008546001600160a01b031633146107c457604051631eab0da960e01b815260040160405180910390fd5b6008546040516370a0823160e01b81523060048201526001600160a01b03838116927f6e5fc1cbd1629d9837bd657d23cf585bbc4e9127184972606cc4c0dd406f75729291169083906370a0823190602401602060405180830381865afa158015610833573d6000803e3d6000fd5b505050506040513d601f19601f82011682018060405250810190610857919061133c565b604080516001600160a01b03909316835260208301919091520160405180910390a26008546040516370a0823160e01b81523060048201526108f39183916001600160a01b03918216918316906370a0823190602401602060405180830381865afa1580156108ca573d6000803e3d6000fd5b505050506040513d601f19601f820116820180604052508101906108ee919061133c565b610e5f565b50565b6004818154811061090657600080fd5b600091825260209091200154905081565b600754604051630b8e20fb60e31b815260048101839052600091829182916001600160a01b031690635c7107d890602401602060405180830381865afa158015610965573d6000803e3d6000fd5b505050506040513d601f19601f82011682018060405250810190610989919061133c565b60075460405163245d1de360e21b8152600481018390529192506001600160a01b031690639174778c90602401602060405180830381865afa1580156109d3573d6000803e3d6000fd5b505050506040513d601f19601f820116820180604052508101906109f7919061136a565b15610a0f576008546001600160a01b03169150610b82565b60075460405163325cc6d960e01b8152600481018390526000916001600160a01b03169063325cc6d990602401602060405180830381865afa158015610a59573d6000803e3d6000fd5b505050506040513d601f19601f82011682018060405250810190610a7d919061133c565b60075460405163b66d1da360e01b8152600481018390529192506000916001600160a01b039091169063c7f758a890829063b66d1da390602401602060405180830381865afa158015610ad4573d6000803e3d6000fd5b505050506040513d601f19601f82011682018060405250810190610af8919061133c565b6040518263ffffffff1660e01b8152600401610b1691815260200190565b600060405180830381865afa158015610b33573d6000803e3d6000fd5b505050506040513d6000823e601f3d908101601f19168201604052610b5b9190810190611530565b600854909150600160a01b900460ff16610b76578051610b7d565b6060810151515b935050505b5092915050565b600760009054906101000a90046001600160a01b03166001600160a01b03166360506ff66040518163ffffffff1660e01b8152600401602060405180830381865afa158015610bdc573d6000803e3d6000fd5b505050506040513d601f19601f82011682018060405250810190610c00919061133c565b15610c1e5760405163018e187760e61b815260040160405180910390fd5b600760009054906101000a90046001600160a01b03166001600160a01b031663366ecf5b6040518163ffffffff1660e01b8152600401602060405180830381865afa158015610c71573d6000803e3d6000fd5b505050506040513d601f19601f82011682018060405250810190610c95919061133c565b600114610cb557604051630fcdfffd60e41b815260040160405180910390fd5b6007546040805163c19d93fb60e01b815290516004926001600160a01b03169163c19d93fb918185019160209190819003860181865afa158015610cfd573d6000803e3d6000fd5b505050506040513d601f19601f82011682018060405250810190610d21919061165c565b6004811115610d3257610d32611646565b14610d5057604051639c2d4c7960e01b815260040160405180910390fd5b80600003610d715760405163f9668e2960e01b815260040160405180910390fd5b60008181526002602052604081205490036108f357604051632534bdfb60e11b815260040160405180910390fd5b6008546001600160a01b03163314610dca57604051631eab0da960e01b815260040160405180910390fd5b600854604080516001600160a01b0390921682524760208301527f1d3eee4ca001cff39eec6ec7615aacf2f2bd61791273830728ba00ccbd6e1337910160405180910390a1600854610e25906001600160a01b031647610eeb565b565b60008060015447610e389190611329565b9050610e5883826003600087815260200190815260200160002054610eb1565b9392505050565b604080516001600160a01b038416602482015260448082018490528251808303909101815260649091019091526020810180516001600160e01b031663a9059cbb60e01b179052610794908490611009565b6000805484825260026020526040822054839190610ecf908661167d565b610ed99190611694565b610ee391906116b6565b949350505050565b80471015610f405760405162461bcd60e51b815260206004820152601d60248201527f416464726573733a20696e73756666696369656e742062616c616e636500000060448201526064015b60405180910390fd5b6000826001600160a01b03168260405160006040518083038185875af1925050503d8060008114610f8d576040519150601f19603f3d011682016040523d82523d6000602084013e610f92565b606091505b50509050806107945760405162461bcd60e51b815260206004820152603a60248201527f416464726573733a20756e61626c6520746f2073656e642076616c75652c207260448201527f6563697069656e74206d617920686176652072657665727465640000000000006064820152608401610f37565b600061105e826040518060400160405280602081526020017f5361666545524332303a206c6f772d6c6576656c2063616c6c206661696c6564815250856001600160a01b03166110de9092919063ffffffff16565b905080516000148061107f57508080602001905181019061107f919061136a565b6107945760405162461bcd60e51b815260206004820152602a60248201527f5361666545524332303a204552433230206f7065726174696f6e20646964206e6044820152691bdd081cdd58d8d9595960b21b6064820152608401610f37565b6060610ee3848460008585600080866001600160a01b0316858760405161110591906116c9565b60006040518083038185875af1925050503d8060008114611142576040519150601f19603f3d011682016040523d82523d6000602084013e611147565b606091505b509150915061115887838387611163565b979650505050505050565b606083156111d25782516000036111cb576001600160a01b0385163b6111cb5760405162461bcd60e51b815260206004820152601d60248201527f416464726573733a2063616c6c20746f206e6f6e2d636f6e74726163740000006044820152606401610f37565b5081610ee3565b610ee383838151156111e75781518083602001fd5b8060405162461bcd60e51b8152600401610f3791906112e0565b6001600160a01b03811681146108f357600080fd5b6000806040838503121561122957600080fd5b823561123481611201565b946020939093013593505050565b6020808252825182820181905260009190848201906040850190845b8181101561127a5783518352928401929184019160010161125e565b50909695505050505050565b60006020828403121561129857600080fd5b8135610e5881611201565b6000602082840312156112b557600080fd5b5035919050565b60005b838110156112d75781810151838201526020016112bf565b50506000910152565b60208152600082518060208401526112ff8160408501602087016112bc565b601f01601f19169190910160400192915050565b634e487b7160e01b600052601160045260246000fd5b8082018082111561065657610656611313565b60006020828403121561134e57600080fd5b5051919050565b8051801515811461136557600080fd5b919050565b60006020828403121561137c57600080fd5b610e5882611355565b634e487b7160e01b600052604160045260246000fd5b6040805190810167ffffffffffffffff811182821017156113be576113be611385565b60405290565b60405160a0810167ffffffffffffffff811182821017156113be576113be611385565b604051601f8201601f1916810167ffffffffffffffff8111828210171561141057611410611385565b604052919050565b60006020828403121561142a57600080fd5b6040516020810181811067ffffffffffffffff8211171561144d5761144d611385565b8060405250809150825161146081611201565b905292915050565b60006040828403121561147a57600080fd5b61148261139b565b9050815167ffffffffffffffff8082111561149c57600080fd5b818401915084601f8301126114b057600080fd5b81516020828211156114c4576114c4611385565b8160051b92506114d58184016113e7565b82815292840181019281810190888511156114ef57600080fd5b948201945b84861015611519578551935061150984611201565b83825294820194908201906114f4565b808752505080860151818601525050505092915050565b6000602080838503121561154357600080fd5b825167ffffffffffffffff8082111561155b57600080fd5b9084019060a0828703121561156f57600080fd5b6115776113c4565b825161158281611201565b815261158f838501611355565b848201526040830151828111156115a557600080fd5b8301601f810188136115b657600080fd5b8051838111156115c8576115c8611385565b6115da601f8201601f191687016113e7565b81815289878385010111156115ee57600080fd5b6115fd828883018986016112bc565b60408401525061161290508760608501611418565b6060820152608083015193508184111561162b57600080fd5b61163787858501611468565b60808201529695505050505050565b634e487b7160e01b600052602160045260246000fd5b60006020828403121561166e57600080fd5b815160058110610e5857600080fd5b808202811582820484141761065657610656611313565b6000826116b157634e487b7160e01b600052601260045260246000fd5b500490565b8181038181111561065657610656611313565b600082516116db8184602087016112bc565b919091019291505056fea2646970667358221220c63f154fce78740745c839698743c05f605bf16a9eda935f3d8dc7f0e1d0f27764736f6c63430008130033","linkReferences":{}},"methodIdentifiers":{"creator()":"02d05d3f","erc20Released(address,uint256)":"4b945338","erc20TotalReleased(address)":"3375bbdc","getAddressToPayOut(uint256)":"96f7ff6e","getPayees()":"27f38113","getUnderlyingContest()":"828ce44b","payees(uint256)":"63037b0c","paysOutTarget()":"1e5b4634","releasable(address,uint256)":"2081d631","releasable(uint256)":"e4bf01a8","release(address,uint256)":"0357371d","release(uint256)":"37bdc99b","released(uint256)":"a94d373b","runReleaseChecks(uint256)":"c7104046","shares(uint256)":"57a858fc","totalReleased()":"e33b7de3","totalShares()":"3a98ef39","underlyingContest()":"f3f44fb7","version()":"54fd4d50","withdrawRewards()":"c7b8981c","withdrawRewards(address)":"42d86693"},"id":35}