{
  "abi": [
    {
      "inputs": [
        {
          "internalType": "string",
          "name": "_name",
          "type": "string"
        },
        {
          "internalType": "string",
          "name": "_prompt",
          "type": "string"
        },
        {
          "internalType": "bytes32",
          "name": "_submissionMerkleRoot",
          "type": "bytes32"
        },
        {
          "internalType": "bytes32",
          "name": "_votingMerkleRoot",
          "type": "bytes32"
        },
        {
          "internalType": "uint256[]",
          "name": "_constructorIntParams",
          "type": "uint256[]"
        }
      ],
      "stateMutability": "nonpayable",
      "type": "constructor"
    },
    {
      "inputs": [],
      "name": "InvalidShortString",
      "type": "error"
    },
    {
      "inputs": [],
      "name": "NotInMerkle",
      "type": "error"
    },
    {
      "inputs": [
        {
          "internalType": "string",
          "name": "str",
          "type": "string"
        }
      ],
      "name": "StringTooLong",
      "type": "error"
    },
    {
      "inputs": [],
      "name": "TooManyMetadatas",
      "type": "error"
    },
    {
      "anonymous": false,
      "inputs": [],
      "name": "ContestCanceled",
      "type": "event"
    },
    {
      "anonymous": false,
      "inputs": [
        {
          "indexed": false,
          "internalType": "uint256",
          "name": "oldContestStart",
          "type": "uint256"
        },
        {
          "indexed": false,
          "internalType": "uint256",
          "name": "newContestStart",
          "type": "uint256"
        }
      ],
      "name": "ContestStartSet",
      "type": "event"
    },
    {
      "anonymous": false,
      "inputs": [
        {
          "indexed": false,
          "internalType": "address",
          "name": "oldCreator",
          "type": "address"
        },
        {
          "indexed": false,
          "internalType": "address",
          "name": "newCreator",
          "type": "address"
        }
      ],
      "name": "CreatorSet",
      "type": "event"
    },
    {
      "anonymous": false,
      "inputs": [
        {
          "indexed": false,
          "internalType": "uint256",
          "name": "oldDownvotingAllowed",
          "type": "uint256"
        },
        {
          "indexed": false,
          "internalType": "uint256",
          "name": "newDownvotingAllowed",
          "type": "uint256"
        }
      ],
      "name": "DownvotingAllowedSet",
      "type": "event"
    },
    {
      "anonymous": false,
      "inputs": [],
      "name": "EIP712DomainChanged",
      "type": "event"
    },
    {
      "anonymous": false,
      "inputs": [
        {
          "indexed": false,
          "internalType": "uint256",
          "name": "oldMaxProposalCount",
          "type": "uint256"
        },
        {
          "indexed": false,
          "internalType": "uint256",
          "name": "newMaxProposalCount",
          "type": "uint256"
        }
      ],
      "name": "MaxProposalCountSet",
      "type": "event"
    },
    {
      "anonymous": false,
      "inputs": [
        {
          "indexed": false,
          "internalType": "uint256",
          "name": "oldNumAllowedProposalSubmissions",
          "type": "uint256"
        },
        {
          "indexed": false,
          "internalType": "uint256",
          "name": "newNumAllowedProposalSubmissions",
          "type": "uint256"
        }
      ],
      "name": "NumAllowedProposalSubmissionsSet",
      "type": "event"
    },
    {
      "anonymous": false,
      "inputs": [
        {
          "indexed": false,
          "internalType": "contract RewardsModule",
          "name": "oldOfficialRewardsModule",
          "type": "address"
        },
        {
          "indexed": false,
          "internalType": "contract RewardsModule",
          "name": "newOfficialRewardsModule",
          "type": "address"
        }
      ],
      "name": "OfficialRewardsModuleSet",
      "type": "event"
    },
    {
      "anonymous": false,
      "inputs": [
        {
          "indexed": false,
          "internalType": "uint256",
          "name": "proposalId",
          "type": "uint256"
        },
        {
          "indexed": false,
          "internalType": "address",
          "name": "proposer",
          "type": "address"
        }
      ],
      "name": "ProposalCreated",
      "type": "event"
    },
    {
      "anonymous": false,
      "inputs": [
        {
          "indexed": false,
          "internalType": "uint256[]",
          "name": "proposalIds",
          "type": "uint256[]"
        }
      ],
      "name": "ProposalsDeleted",
      "type": "event"
    },
    {
      "anonymous": false,
      "inputs": [
        {
          "indexed": true,
          "internalType": "address",
          "name": "voter",
          "type": "address"
        },
        {
          "indexed": false,
          "internalType": "uint256",
          "name": "proposalId",
          "type": "uint256"
        },
        {
          "indexed": false,
          "internalType": "uint8",
          "name": "support",
          "type": "uint8"
        },
        {
          "indexed": false,
          "internalType": "uint256",
          "name": "numVotes",
          "type": "uint256"
        },
        {
          "indexed": false,
          "internalType": "string",
          "name": "reason",
          "type": "string"
        }
      ],
      "name": "VoteCast",
      "type": "event"
    },
    {
      "anonymous": false,
      "inputs": [
        {
          "indexed": false,
          "internalType": "uint256",
          "name": "oldVotingDelay",
          "type": "uint256"
        },
        {
          "indexed": false,
          "internalType": "uint256",
          "name": "newVotingDelay",
          "type": "uint256"
        }
      ],
      "name": "VotingDelaySet",
      "type": "event"
    },
    {
      "anonymous": false,
      "inputs": [
        {
          "indexed": false,
          "internalType": "uint256",
          "name": "oldVotingPeriod",
          "type": "uint256"
        },
        {
          "indexed": false,
          "internalType": "uint256",
          "name": "newVotingPeriod",
          "type": "uint256"
        }
      ],
      "name": "VotingPeriodSet",
      "type": "event"
    },
    {
      "inputs": [],
      "name": "AMOUNT_FOR_SUMBITTER_PROOF",
      "outputs": [
        {
          "internalType": "uint256",
          "name": "",
          "type": "uint256"
        }
      ],
      "stateMutability": "view",
      "type": "function"
    },
    {
      "inputs": [],
      "name": "BALLOT_TYPEHASH",
      "outputs": [
        {
          "internalType": "bytes32",
          "name": "",
          "type": "bytes32"
        }
      ],
      "stateMutability": "view",
      "type": "function"
    },
    {
      "inputs": [],
      "name": "COUNTING_MODE",
      "outputs": [
        {
          "internalType": "string",
          "name": "",
          "type": "string"
        }
      ],
      "stateMutability": "pure",
      "type": "function"
    },
    {
      "inputs": [],
      "name": "METADATAS_COUNT",
      "outputs": [
        {
          "internalType": "uint256",
          "name": "",
          "type": "uint256"
        }
      ],
      "stateMutability": "view",
      "type": "function"
    },
    {
      "inputs": [
        {
          "internalType": "uint256",
          "name": "",
          "type": "uint256"
        }
      ],
      "name": "_deletedProposalIds",
      "outputs": [
        {
          "internalType": "uint256",
          "name": "",
          "type": "uint256"
        }
      ],
      "stateMutability": "view",
      "type": "function"
    },
    {
      "inputs": [
        {
          "internalType": "address",
          "name": "",
          "type": "address"
        }
      ],
      "name": "addressSubmitterVerified",
      "outputs": [
        {
          "internalType": "bool",
          "name": "",
          "type": "bool"
        }
      ],
      "stateMutability": "view",
      "type": "function"
    },
    {
      "inputs": [
        {
          "internalType": "address",
          "name": "",
          "type": "address"
        }
      ],
      "name": "addressTotalCastVoteCounts",
      "outputs": [
        {
          "internalType": "uint256",
          "name": "",
          "type": "uint256"
        }
      ],
      "stateMutability": "view",
      "type": "function"
    },
    {
      "inputs": [
        {
          "internalType": "address",
          "name": "",
          "type": "address"
        }
      ],
      "name": "addressTotalVotes",
      "outputs": [
        {
          "internalType": "uint256",
          "name": "",
          "type": "uint256"
        }
      ],
      "stateMutability": "view",
      "type": "function"
    },
    {
      "inputs": [
        {
          "internalType": "address",
          "name": "",
          "type": "address"
        }
      ],
      "name": "addressTotalVotesVerified",
      "outputs": [
        {
          "internalType": "bool",
          "name": "",
          "type": "bool"
        }
      ],
      "stateMutability": "view",
      "type": "function"
    },
    {
      "inputs": [],
      "name": "allProposalTotalVotes",
      "outputs": [
        {
          "internalType": "uint256[]",
          "name": "proposalIdsReturn",
          "type": "uint256[]"
        },
        {
          "components": [
            {
              "internalType": "uint256",
              "name": "forVotes",
              "type": "uint256"
            },
            {
              "internalType": "uint256",
              "name": "againstVotes",
              "type": "uint256"
            }
          ],
          "internalType": "struct GovernorCountingSimple.VoteCounts[]",
          "name": "proposalVoteCountsArrayReturn",
          "type": "tuple[]"
        }
      ],
      "stateMutability": "view",
      "type": "function"
    },
    {
      "inputs": [],
      "name": "allProposalTotalVotesWithoutDeleted",
      "outputs": [
        {
          "internalType": "uint256[]",
          "name": "proposalIdsReturn",
          "type": "uint256[]"
        },
        {
          "components": [
            {
              "internalType": "uint256",
              "name": "forVotes",
              "type": "uint256"
            },
            {
              "internalType": "uint256",
              "name": "againstVotes",
              "type": "uint256"
            }
          ],
          "internalType": "struct GovernorCountingSimple.VoteCounts[]",
          "name": "proposalVoteCountsArrayReturn",
          "type": "tuple[]"
        }
      ],
      "stateMutability": "view",
      "type": "function"
    },
    {
      "inputs": [],
      "name": "cancel",
      "outputs": [],
      "stateMutability": "nonpayable",
      "type": "function"
    },
    {
      "inputs": [
        {
          "internalType": "uint256",
          "name": "proposalId",
          "type": "uint256"
        },
        {
          "internalType": "uint8",
          "name": "support",
          "type": "uint8"
        },
        {
          "internalType": "uint256",
          "name": "totalVotes",
          "type": "uint256"
        },
        {
          "internalType": "uint256",
          "name": "numVotes",
          "type": "uint256"
        },
        {
          "internalType": "bytes32[]",
          "name": "proof",
          "type": "bytes32[]"
        }
      ],
      "name": "castVote",
      "outputs": [
        {
          "internalType": "uint256",
          "name": "",
          "type": "uint256"
        }
      ],
      "stateMutability": "nonpayable",
      "type": "function"
    },
    {
      "inputs": [
        {
          "internalType": "uint256",
          "name": "proposalId",
          "type": "uint256"
        },
        {
          "internalType": "uint8",
          "name": "support",
          "type": "uint8"
        },
        {
          "internalType": "uint256",
          "name": "numVotes",
          "type": "uint256"
        }
      ],
      "name": "castVoteWithoutProof",
      "outputs": [
        {
          "internalType": "uint256",
          "name": "",
          "type": "uint256"
        }
      ],
      "stateMutability": "nonpayable",
      "type": "function"
    },
    {
      "inputs": [
        {
          "internalType": "address",
          "name": "addressToCheck",
          "type": "address"
        },
        {
          "internalType": "uint256",
          "name": "amount",
          "type": "uint256"
        },
        {
          "internalType": "bytes32[]",
          "name": "proof",
          "type": "bytes32[]"
        },
        {
          "internalType": "bool",
          "name": "voting",
          "type": "bool"
        }
      ],
      "name": "checkProof",
      "outputs": [
        {
          "internalType": "bool",
          "name": "verified",
          "type": "bool"
        }
      ],
      "stateMutability": "view",
      "type": "function"
    },
    {
      "inputs": [
        {
          "internalType": "address",
          "name": "userAddress",
          "type": "address"
        }
      ],
      "name": "contestAddressTotalVotesCast",
      "outputs": [
        {
          "internalType": "uint256",
          "name": "userTotalVotesCast",
          "type": "uint256"
        }
      ],
      "stateMutability": "view",
      "type": "function"
    },
    {
      "inputs": [],
      "name": "contestDeadline",
      "outputs": [
        {
          "internalType": "uint256",
          "name": "",
          "type": "uint256"
        }
      ],
      "stateMutability": "view",
      "type": "function"
    },
    {
      "inputs": [],
      "name": "contestStart",
      "outputs": [
        {
          "internalType": "uint256",
          "name": "",
          "type": "uint256"
        }
      ],
      "stateMutability": "view",
      "type": "function"
    },
    {
      "inputs": [],
      "name": "creator",
      "outputs": [
        {
          "internalType": "address",
          "name": "",
          "type": "address"
        }
      ],
      "stateMutability": "view",
      "type": "function"
    },
    {
      "inputs": [
        {
          "internalType": "uint256[]",
          "name": "proposalIds",
          "type": "uint256[]"
        }
      ],
      "name": "deleteProposals",
      "outputs": [],
      "stateMutability": "nonpayable",
      "type": "function"
    },
    {
      "inputs": [],
      "name": "downvotingAllowed",
      "outputs": [
        {
          "internalType": "uint256",
          "name": "",
          "type": "uint256"
        }
      ],
      "stateMutability": "view",
      "type": "function"
    },
    {
      "inputs": [],
      "name": "eip712Domain",
      "outputs": [
        {
          "internalType": "bytes1",
          "name": "fields",
          "type": "bytes1"
        },
        {
          "internalType": "string",
          "name": "name",
          "type": "string"
        },
        {
          "internalType": "string",
          "name": "version",
          "type": "string"
        },
        {
          "internalType": "uint256",
          "name": "chainId",
          "type": "uint256"
        },
        {
          "internalType": "address",
          "name": "verifyingContract",
          "type": "address"
        },
        {
          "internalType": "bytes32",
          "name": "salt",
          "type": "bytes32"
        },
        {
          "internalType": "uint256[]",
          "name": "extensions",
          "type": "uint256[]"
        }
      ],
      "stateMutability": "view",
      "type": "function"
    },
    {
      "inputs": [],
      "name": "getAllDeletedProposalIds",
      "outputs": [
        {
          "internalType": "uint256[]",
          "name": "",
          "type": "uint256[]"
        }
      ],
      "stateMutability": "view",
      "type": "function"
    },
    {
      "inputs": [],
      "name": "getAllProposalIds",
      "outputs": [
        {
          "internalType": "uint256[]",
          "name": "",
          "type": "uint256[]"
        }
      ],
      "stateMutability": "view",
      "type": "function"
    },
    {
      "inputs": [
        {
          "internalType": "address",
          "name": "account",
          "type": "address"
        }
      ],
      "name": "getNumSubmissions",
      "outputs": [
        {
          "internalType": "uint256",
          "name": "",
          "type": "uint256"
        }
      ],
      "stateMutability": "view",
      "type": "function"
    },
    {
      "inputs": [
        {
          "internalType": "uint256",
          "name": "proposalId",
          "type": "uint256"
        }
      ],
      "name": "getProposal",
      "outputs": [
        {
          "components": [
            {
              "internalType": "address",
              "name": "author",
              "type": "address"
            },
            {
              "internalType": "bool",
              "name": "exists",
              "type": "bool"
            },
            {
              "internalType": "string",
              "name": "description",
              "type": "string"
            },
            {
              "components": [
                {
                  "internalType": "address",
                  "name": "targetAddress",
                  "type": "address"
                }
              ],
              "internalType": "struct IGovernor.TargetMetadata",
              "name": "targetMetadata",
              "type": "tuple"
            },
            {
              "components": [
                {
                  "internalType": "address[]",
                  "name": "signers",
                  "type": "address[]"
                },
                {
                  "internalType": "uint256",
                  "name": "threshold",
                  "type": "uint256"
                }
              ],
              "internalType": "struct IGovernor.SafeMetadata",
              "name": "safeMetadata",
              "type": "tuple"
            }
          ],
          "internalType": "struct IGovernor.ProposalCore",
          "name": "",
          "type": "tuple"
        }
      ],
      "stateMutability": "view",
      "type": "function"
    },
    {
      "inputs": [
        {
          "components": [
            {
              "internalType": "address",
              "name": "author",
              "type": "address"
            },
            {
              "internalType": "bool",
              "name": "exists",
              "type": "bool"
            },
            {
              "internalType": "string",
              "name": "description",
              "type": "string"
            },
            {
              "components": [
                {
                  "internalType": "address",
                  "name": "targetAddress",
                  "type": "address"
                }
              ],
              "internalType": "struct IGovernor.TargetMetadata",
              "name": "targetMetadata",
              "type": "tuple"
            },
            {
              "components": [
                {
                  "internalType": "address[]",
                  "name": "signers",
                  "type": "address[]"
                },
                {
                  "internalType": "uint256",
                  "name": "threshold",
                  "type": "uint256"
                }
              ],
              "internalType": "struct IGovernor.SafeMetadata",
              "name": "safeMetadata",
              "type": "tuple"
            }
          ],
          "internalType": "struct IGovernor.ProposalCore",
          "name": "proposal",
          "type": "tuple"
        }
      ],
      "name": "hashProposal",
      "outputs": [
        {
          "internalType": "uint256",
          "name": "",
          "type": "uint256"
        }
      ],
      "stateMutability": "pure",
      "type": "function"
    },
    {
      "inputs": [],
      "name": "highestTiedRanking",
      "outputs": [
        {
          "internalType": "uint256",
          "name": "",
          "type": "uint256"
        }
      ],
      "stateMutability": "view",
      "type": "function"
    },
    {
      "inputs": [
        {
          "internalType": "uint256",
          "name": "proposalId",
          "type": "uint256"
        }
      ],
      "name": "isProposalDeleted",
      "outputs": [
        {
          "internalType": "bool",
          "name": "",
          "type": "bool"
        }
      ],
      "stateMutability": "view",
      "type": "function"
    },
    {
      "inputs": [
        {
          "internalType": "uint256",
          "name": "ranking",
          "type": "uint256"
        }
      ],
      "name": "isTied",
      "outputs": [
        {
          "internalType": "bool",
          "name": "",
          "type": "bool"
        }
      ],
      "stateMutability": "view",
      "type": "function"
    },
    {
      "inputs": [],
      "name": "lowestRanking",
      "outputs": [
        {
          "internalType": "uint256",
          "name": "",
          "type": "uint256"
        }
      ],
      "stateMutability": "view",
      "type": "function"
    },
    {
      "inputs": [],
      "name": "maxProposalCount",
      "outputs": [
        {
          "internalType": "uint256",
          "name": "",
          "type": "uint256"
        }
      ],
      "stateMutability": "view",
      "type": "function"
    },
    {
      "inputs": [],
      "name": "name",
      "outputs": [
        {
          "internalType": "string",
          "name": "",
          "type": "string"
        }
      ],
      "stateMutability": "view",
      "type": "function"
    },
    {
      "inputs": [],
      "name": "numAllowedProposalSubmissions",
      "outputs": [
        {
          "internalType": "uint256",
          "name": "",
          "type": "uint256"
        }
      ],
      "stateMutability": "view",
      "type": "function"
    },
    {
      "inputs": [],
      "name": "officialRewardsModule",
      "outputs": [
        {
          "internalType": "contract RewardsModule",
          "name": "",
          "type": "address"
        }
      ],
      "stateMutability": "view",
      "type": "function"
    },
    {
      "inputs": [],
      "name": "prompt",
      "outputs": [
        {
          "internalType": "string",
          "name": "",
          "type": "string"
        }
      ],
      "stateMutability": "view",
      "type": "function"
    },
    {
      "inputs": [
        {
          "internalType": "uint256",
          "name": "proposalId",
          "type": "uint256"
        },
        {
          "internalType": "address",
          "name": "userAddress",
          "type": "address"
        }
      ],
      "name": "proposalAddressVotes",
      "outputs": [
        {
          "internalType": "uint256",
          "name": "forVotes",
          "type": "uint256"
        },
        {
          "internalType": "uint256",
          "name": "againstVotes",
          "type": "uint256"
        }
      ],
      "stateMutability": "view",
      "type": "function"
    },
    {
      "inputs": [
        {
          "internalType": "uint256",
          "name": "proposalId",
          "type": "uint256"
        }
      ],
      "name": "proposalAddressesHaveVoted",
      "outputs": [
        {
          "internalType": "address[]",
          "name": "",
          "type": "address[]"
        }
      ],
      "stateMutability": "view",
      "type": "function"
    },
    {
      "inputs": [
        {
          "internalType": "uint256",
          "name": "proposalId",
          "type": "uint256"
        }
      ],
      "name": "proposalVotes",
      "outputs": [
        {
          "internalType": "uint256",
          "name": "forVotes",
          "type": "uint256"
        },
        {
          "internalType": "uint256",
          "name": "againstVotes",
          "type": "uint256"
        }
      ],
      "stateMutability": "view",
      "type": "function"
    },
    {
      "inputs": [
        {
          "internalType": "uint256",
          "name": "",
          "type": "uint256"
        }
      ],
      "name": "proposalVotesStructs",
      "outputs": [
        {
          "components": [
            {
              "internalType": "uint256",
              "name": "forVotes",
              "type": "uint256"
            },
            {
              "internalType": "uint256",
              "name": "againstVotes",
              "type": "uint256"
            }
          ],
          "internalType": "struct GovernorCountingSimple.VoteCounts",
          "name": "proposalVoteCounts",
          "type": "tuple"
        }
      ],
      "stateMutability": "view",
      "type": "function"
    },
    {
      "inputs": [
        {
          "components": [
            {
              "internalType": "address",
              "name": "author",
              "type": "address"
            },
            {
              "internalType": "bool",
              "name": "exists",
              "type": "bool"
            },
            {
              "internalType": "string",
              "name": "description",
              "type": "string"
            },
            {
              "components": [
                {
                  "internalType": "address",
                  "name": "targetAddress",
                  "type": "address"
                }
              ],
              "internalType": "struct IGovernor.TargetMetadata",
              "name": "targetMetadata",
              "type": "tuple"
            },
            {
              "components": [
                {
                  "internalType": "address[]",
                  "name": "signers",
                  "type": "address[]"
                },
                {
                  "internalType": "uint256",
                  "name": "threshold",
                  "type": "uint256"
                }
              ],
              "internalType": "struct IGovernor.SafeMetadata",
              "name": "safeMetadata",
              "type": "tuple"
            }
          ],
          "internalType": "struct IGovernor.ProposalCore",
          "name": "proposal",
          "type": "tuple"
        },
        {
          "internalType": "bytes32[]",
          "name": "proof",
          "type": "bytes32[]"
        }
      ],
      "name": "propose",
      "outputs": [
        {
          "internalType": "uint256",
          "name": "",
          "type": "uint256"
        }
      ],
      "stateMutability": "nonpayable",
      "type": "function"
    },
    {
      "inputs": [
        {
          "components": [
            {
              "internalType": "address",
              "name": "author",
              "type": "address"
            },
            {
              "internalType": "bool",
              "name": "exists",
              "type": "bool"
            },
            {
              "internalType": "string",
              "name": "description",
              "type": "string"
            },
            {
              "components": [
                {
                  "internalType": "address",
                  "name": "targetAddress",
                  "type": "address"
                }
              ],
              "internalType": "struct IGovernor.TargetMetadata",
              "name": "targetMetadata",
              "type": "tuple"
            },
            {
              "components": [
                {
                  "internalType": "address[]",
                  "name": "signers",
                  "type": "address[]"
                },
                {
                  "internalType": "uint256",
                  "name": "threshold",
                  "type": "uint256"
                }
              ],
              "internalType": "struct IGovernor.SafeMetadata",
              "name": "safeMetadata",
              "type": "tuple"
            }
          ],
          "internalType": "struct IGovernor.ProposalCore",
          "name": "proposal",
          "type": "tuple"
        }
      ],
      "name": "proposeWithoutProof",
      "outputs": [
        {
          "internalType": "uint256",
          "name": "",
          "type": "uint256"
        }
      ],
      "stateMutability": "nonpayable",
      "type": "function"
    },
    {
      "inputs": [
        {
          "internalType": "uint256",
          "name": "ranking",
          "type": "uint256"
        }
      ],
      "name": "rankingPosition",
      "outputs": [
        {
          "internalType": "uint256",
          "name": "",
          "type": "uint256"
        }
      ],
      "stateMutability": "view",
      "type": "function"
    },
    {
      "inputs": [
        {
          "internalType": "contract RewardsModule",
          "name": "officialRewardsModule_",
          "type": "address"
        }
      ],
      "name": "setOfficialRewardsModule",
      "outputs": [],
      "stateMutability": "nonpayable",
      "type": "function"
    },
    {
      "inputs": [],
      "name": "setSortedAndTiedProposals",
      "outputs": [],
      "stateMutability": "nonpayable",
      "type": "function"
    },
    {
      "inputs": [],
      "name": "setSortedAndTiedProposalsHasBeenRun",
      "outputs": [
        {
          "internalType": "bool",
          "name": "",
          "type": "bool"
        }
      ],
      "stateMutability": "view",
      "type": "function"
    },
    {
      "inputs": [],
      "name": "sortedProposalIds",
      "outputs": [
        {
          "internalType": "uint256[]",
          "name": "",
          "type": "uint256[]"
        }
      ],
      "stateMutability": "view",
      "type": "function"
    },
    {
      "inputs": [
        {
          "internalType": "bool",
          "name": "excludeDeletedProposals",
          "type": "bool"
        }
      ],
      "name": "sortedProposals",
      "outputs": [
        {
          "internalType": "uint256[]",
          "name": "sortedProposalIdsReturn",
          "type": "uint256[]"
        }
      ],
      "stateMutability": "view",
      "type": "function"
    },
    {
      "inputs": [],
      "name": "state",
      "outputs": [
        {
          "internalType": "enum IGovernor.ContestState",
          "name": "",
          "type": "uint8"
        }
      ],
      "stateMutability": "view",
      "type": "function"
    },
    {
      "inputs": [],
      "name": "submissionMerkleRoot",
      "outputs": [
        {
          "internalType": "bytes32",
          "name": "",
          "type": "bytes32"
        }
      ],
      "stateMutability": "view",
      "type": "function"
    },
    {
      "inputs": [
        {
          "internalType": "bytes4",
          "name": "interfaceId",
          "type": "bytes4"
        }
      ],
      "name": "supportsInterface",
      "outputs": [
        {
          "internalType": "bool",
          "name": "",
          "type": "bool"
        }
      ],
      "stateMutability": "view",
      "type": "function"
    },
    {
      "inputs": [
        {
          "internalType": "uint256",
          "name": "",
          "type": "uint256"
        }
      ],
      "name": "tiedAdjustedRankingPosition",
      "outputs": [
        {
          "internalType": "uint256",
          "name": "",
          "type": "uint256"
        }
      ],
      "stateMutability": "view",
      "type": "function"
    },
    {
      "inputs": [],
      "name": "totalVotesCast",
      "outputs": [
        {
          "internalType": "uint256",
          "name": "",
          "type": "uint256"
        }
      ],
      "stateMutability": "view",
      "type": "function"
    },
    {
      "inputs": [
        {
          "components": [
            {
              "internalType": "address",
              "name": "author",
              "type": "address"
            },
            {
              "internalType": "bool",
              "name": "exists",
              "type": "bool"
            },
            {
              "internalType": "string",
              "name": "description",
              "type": "string"
            },
            {
              "components": [
                {
                  "internalType": "address",
                  "name": "targetAddress",
                  "type": "address"
                }
              ],
              "internalType": "struct IGovernor.TargetMetadata",
              "name": "targetMetadata",
              "type": "tuple"
            },
            {
              "components": [
                {
                  "internalType": "address[]",
                  "name": "signers",
                  "type": "address[]"
                },
                {
                  "internalType": "uint256",
                  "name": "threshold",
                  "type": "uint256"
                }
              ],
              "internalType": "struct IGovernor.SafeMetadata",
              "name": "safeMetadata",
              "type": "tuple"
            }
          ],
          "internalType": "struct IGovernor.ProposalCore",
          "name": "proposal",
          "type": "tuple"
        }
      ],
      "name": "validateProposalData",
      "outputs": [
        {
          "internalType": "bool",
          "name": "dataValidated",
          "type": "bool"
        }
      ],
      "stateMutability": "nonpayable",
      "type": "function"
    },
    {
      "inputs": [
        {
          "internalType": "address",
          "name": "account",
          "type": "address"
        },
        {
          "internalType": "bytes32[]",
          "name": "proof",
          "type": "bytes32[]"
        }
      ],
      "name": "verifyProposer",
      "outputs": [
        {
          "internalType": "bool",
          "name": "verified",
          "type": "bool"
        }
      ],
      "stateMutability": "nonpayable",
      "type": "function"
    },
    {
      "inputs": [
        {
          "internalType": "address",
          "name": "account",
          "type": "address"
        },
        {
          "internalType": "uint256",
          "name": "totalVotes",
          "type": "uint256"
        },
        {
          "internalType": "bytes32[]",
          "name": "proof",
          "type": "bytes32[]"
        }
      ],
      "name": "verifyVoter",
      "outputs": [
        {
          "internalType": "bool",
          "name": "verified",
          "type": "bool"
        }
      ],
      "stateMutability": "nonpayable",
      "type": "function"
    },
    {
      "inputs": [],
      "name": "version",
      "outputs": [
        {
          "internalType": "string",
          "name": "",
          "type": "string"
        }
      ],
      "stateMutability": "view",
      "type": "function"
    },
    {
      "inputs": [],
      "name": "voteStart",
      "outputs": [
        {
          "internalType": "uint256",
          "name": "",
          "type": "uint256"
        }
      ],
      "stateMutability": "view",
      "type": "function"
    },
    {
      "inputs": [],
      "name": "votingDelay",
      "outputs": [
        {
          "internalType": "uint256",
          "name": "",
          "type": "uint256"
        }
      ],
      "stateMutability": "view",
      "type": "function"
    },
    {
      "inputs": [],
      "name": "votingMerkleRoot",
      "outputs": [
        {
          "internalType": "bytes32",
          "name": "",
          "type": "bytes32"
        }
      ],
      "stateMutability": "view",
      "type": "function"
    },
    {
      "inputs": [],
      "name": "votingPeriod",
      "outputs": [
        {
          "internalType": "uint256",
          "name": "",
          "type": "uint256"
        }
      ],
      "stateMutability": "view",
      "type": "function"
    },
    {
      "stateMutability": "payable",
      "type": "receive"
    }
  ],
  "bytecode": {
    "object": "0x6101a06040526017805460ff191690553480156200001c57600080fd5b5060405162004702380380620047028339810160408190526200003f9162000621565b8060008151811062000055576200005562000732565b60200260200101518160018151811062000073576200007362000732565b60200260200101518260028151811062000091576200009162000732565b602002602001015183600381518110620000af57620000af62000732565b602002602001015184600481518110620000cd57620000cd62000732565b602002602001015185600581518110620000eb57620000eb62000732565b60200260200101518a8a8a8a8181856200010a6200025060201b60201c565b620001178260006200026d565b61012052620001288160016200026d565b61014052815160208084019190912060e052815190820120610100524660a052620001b660e05161010051604080517f8b73c3c69bb8fe3d512ecc4cf759cc79239f7b179b0ffacaa9a75d522b39400f60208201529081019290925260608201524660808201523060a082015260009060c00160405160208183030381529060405280519060200120905090565b60805250503060c05261016091909152610180526007620001d88582620007d7565b506008620001e78482620007d7565b5050505050620001fd86620002a660201b60201c565b6200020885620002e7565b620002138462000328565b6200021e83620003cf565b620002298262000410565b620002348162000451565b6200023f3362000492565b5050505050505050505050620008fd565b6040805180820190915260038152620665c760eb1b602082015290565b60006020835110156200028d576200028583620004fb565b9050620002a0565b816200029a8482620007d7565b5060ff90505b92915050565b600d5460408051918252602082018390527fd299feb1d7d9345a48559601c471c3be7eea9a11f21d5e86809198f40a974db4910160405180910390a1600d55565b600e5460408051918252602082018390527fc565b045403dc03c2eea82b81a0465edad9e2e7fc4d97e11421c209da93d7a93910160405180910390a1600e55565b600081116200038e5760405162461bcd60e51b815260206004820152602760248201527f476f7665726e6f7253657474696e67733a20766f74696e6720706572696f6420604482015266746f6f206c6f7760c81b60648201526084015b60405180910390fd5b600f5460408051918252602082018390527f7e3f7f0708a84de9203036abaa450dccc85ad5ff52f78c170f3edb55cf5e8828910160405180910390a1600f55565b60105460408051918252602082018390527fe971b819c7fb95c72451f557226aceb5baaf4994a9d39a79bbfa0040e87500b9910160405180910390a1601055565b60115460408051918252602082018390527f4984ec996723330ee95979ed65a2a4b41edd914e68a187efe92596474643bdff910160405180910390a1601155565b60125460408051918252602082018390527f9c7b27f091caef3a83be73d89320404fa0c4a52993685ff0651672e49e6e55ab910160405180910390a1601255565b601354604080516001600160a01b03928316815291831660208301527fc30034fc2e9697980e08935bbc287db3eaa44a4aa113ef4c108b356adbf911ce910160405180910390a1601380546001600160a01b0319166001600160a01b0392909216919091179055565b600080829050601f8151111562000529578260405163305a27a960e01b8152600401620003859190620008a3565b80516200053682620008d8565b179392505050565b634e487b7160e01b600052604160045260246000fd5b604051601f8201601f191681016001600160401b03811182821017156200057f576200057f6200053e565b604052919050565b60005b83811015620005a45781810151838201526020016200058a565b50506000910152565b600082601f830112620005bf57600080fd5b81516001600160401b03811115620005db57620005db6200053e565b620005f0601f8201601f191660200162000554565b8181528460208386010111156200060657600080fd5b6200061982602083016020870162000587565b949350505050565b600080600080600060a086880312156200063a57600080fd5b85516001600160401b03808211156200065257600080fd5b6200066089838a01620005ad565b96506020915081880151818111156200067857600080fd5b620006868a828b01620005ad565b9650506040880151945060608801519350608088015181811115620006aa57600080fd5b8801601f81018a13620006bc57600080fd5b805182811115620006d157620006d16200053e565b8060051b9250620006e484840162000554565b818152928201840192848101908c851115620006ff57600080fd5b928501925b848410156200071f5783518252928501929085019062000704565b8096505050505050509295509295909350565b634e487b7160e01b600052603260045260246000fd5b600181811c908216806200075d57607f821691505b6020821081036200077e57634e487b7160e01b600052602260045260246000fd5b50919050565b601f821115620007d257600081815260208120601f850160051c81016020861015620007ad5750805b601f850160051c820191505b81811015620007ce57828155600101620007b9565b5050505b505050565b81516001600160401b03811115620007f357620007f36200053e565b6200080b8162000804845462000748565b8462000784565b602080601f8311600181146200084357600084156200082a5750858301515b600019600386901b1c1916600185901b178555620007ce565b600085815260208120601f198616915b82811015620008745788860151825594840194600190910190840162000853565b5085821015620008935787850151600019600388901b60f8161c191681555b5050505050600190811b01905550565b6020815260008251806020840152620008c481604085016020870162000587565b601f01601f19169190910160400192915050565b805160208083015191908110156200077e5760001960209190910360031b1b16919050565b60805160a05160c05160e0516101005161012051610140516101605161018051613d876200097b60003960008181610ab00152610f5201526000818161096801528181610d9a01528181610eed01526111bb015260006115390152600061150f01526000505060005050600050506000505060005050613d876000f3fe6080604052600436106103a55760003560e01c80637c65d711116101e7578063cb8539501161010d578063e5eb5a48116100a0578063f0a7db0a1161006f578063f0a7db0a14610bb4578063f4f3d7ec14610bd4578063fb8ddab414610bf4578063fb9bf8d414610c1457600080fd5b8063e5eb5a4814610b48578063ea8a1af014610b75578063ebc18b9b14610b8a578063efa90d3614610b9f57600080fd5b8063dd96a19d116100dc578063dd96a19d14610a9e578063dea5f6a614610ad2578063deaaa7cc14610aff578063e031535b14610b3357600080fd5b8063cb853950146109f9578063d45a010b14610a29578063d889161914610a3e578063dd4e2ba514610a5857600080fd5b806396f0e96211610185578063bddc164111610154578063bddc164114610956578063c0ffaa781461098a578063c19d93fb146109aa578063c7f758a8146109cc57600080fd5b806396f0e962146108b1578063a1ac6cb2146108c6578063aec116b6146108f3578063b323580d1461092957600080fd5b806384b0196e116101c157806384b0196e14610824578063861874881461084c5780638a9cd5501461086c578063930de9791461088157600080fd5b80637c65d711146107e45780637de418d5146107f9578063832009af1461080f57600080fd5b8063427d56c2116102cc57806354fd4d501161026a57806365f162631161023957806365f16263146107715780636ca1a2c7146107915780636e4eb810146107a6578063785ddfe5146107c657600080fd5b806354fd4d50146106da5780635f953a031461070657806360506ff61461073c578063653d29031461075157600080fd5b80634d24a67f116102a65780634d24a67f1461063857806350a5e5241461064d578063531bd81214610670578063544ffc9c1461069057600080fd5b8063427d56c2146105d8578063458da87d146105f8578063476f4d8a1461061857600080fd5b806320b3e84511610344578063347cf66511610313578063347cf665146105575780633932abb1146105735780633b6d199b14610588578063419c533c146105b857600080fd5b806320b3e845146104e25780632399c66014610502578063262e59e91461052257806332763c221461053757600080fd5b806302d05d3f1161038057806302d05d3f1461042057806306fdde031461044d578063070dc5d91461046f5780631242b737146104c057600080fd5b80624114a8146103b357806301ffc9a7146103db57806302a251a31461040b57600080fd5b366103ae57005b005b600080fd5b3480156103bf57600080fd5b506103c8610c29565b6040519081526020015b60405180910390f35b3480156103e757600080fd5b506103fb6103f6366004613129565b610c39565b60405190151581526020016103d2565b34801561041757600080fd5b506103c8610c70565b34801561042c57600080fd5b50610435610c7b565b6040516001600160a01b0390911681526020016103d2565b34801561045957600080fd5b50610462610c8f565b6040516103d29190613199565b34801561047b57600080fd5b506104b361048a3660046131ac565b601660209081526000918252604091829020825180840190935280548352600101549082015281565b6040516103d291906131c5565b3480156104cc57600080fd5b506104d5610d21565b6040516103d29190613217565b3480156104ee57600080fd5b506103fb6104fd366004613286565b610d78565b34801561050e57600080fd5b506103fb61051d3660046131ac565b610e0e565b34801561052e57600080fd5b506103c8610e52565b34801561054357600080fd5b506103fb6105523660046132ef565b610e6e565b34801561056357600080fd5b506103c8678ac7230489e8000081565b34801561057f57600080fd5b506103c8610fab565b34801561059457600080fd5b506103fb6105a33660046131ac565b60009081526006602052604090205460ff1690565b3480156105c457600080fd5b506103c86105d3366004613370565b610fb6565b3480156105e457600080fd5b506104d56105f33660046133e0565b610fee565b34801561060457600080fd5b506103c86106133660046136a6565b611186565b34801561062457600080fd5b506103c86106333660046136a6565b6111b7565b34801561064457600080fd5b506103c8600281565b34801561065957600080fd5b50610662611221565b6040516103d29291906136da565b34801561067c57600080fd5b506103fb61068b366004613743565b611327565b34801561069c57600080fd5b506106c56106ab3660046131ac565b600090815260166020526040902080546001909101549091565b604080519283526020830191909152016103d2565b3480156106e657600080fd5b506040805180820190915260038152620665c760eb1b6020820152610462565b34801561071257600080fd5b506103c861072136600461379e565b6001600160a01b03166000908152600b602052604090205490565b34801561074857600080fd5b506103c8611392565b34801561075d57600080fd5b506103c861076c3660046131ac565b61139d565b34801561077d57600080fd5b506103c861078c3660046137bb565b6113be565b34801561079d57600080fd5b506103c8611486565b3480156107b257600080fd5b506106c56107c13660046137f0565b6114b2565b3480156107d257600080fd5b50601d546001600160a01b0316610435565b3480156107f057600080fd5b506104626114e7565b34801561080557600080fd5b506103c860145481565b34801561081b57600080fd5b506103c86114f6565b34801561083057600080fd5b50610839611501565b6040516103d29796959493929190613820565b34801561085857600080fd5b506103c86108673660046131ac565b611589565b34801561087857600080fd5b506104d56115c1565b34801561088d57600080fd5b506103fb61089c36600461379e565b60036020526000908152604090205460ff1681565b3480156108bd57600080fd5b506103ac61163a565b3480156108d257600080fd5b506103c86108e136600461379e565b60156020526000908152604090205481565b3480156108ff57600080fd5b506103c861090e36600461379e565b6001600160a01b031660009081526015602052604090205490565b34801561093557600080fd5b506109496109443660046131ac565b61194e565b6040516103d291906138c9565b34801561096257600080fd5b506103c87f000000000000000000000000000000000000000000000000000000000000000081565b34801561099657600080fd5b506103c86109a53660046138dc565b6119c0565b3480156109b657600080fd5b506109bf611a04565b6040516103d2919061394d565b3480156109d857600080fd5b506109ec6109e73660046131ac565b611a76565b6040516103d29190613975565b348015610a0557600080fd5b506103fb610a1436600461379e565b60046020526000908152604090205460ff1681565b348015610a3557600080fd5b50610662611bf0565b348015610a4a57600080fd5b506017546103fb9060ff1681565b348015610a6457600080fd5b5060408051808201909152601881527f737570706f72743d627261766f2671756f72756d3d666f7200000000000000006020820152610462565b348015610aaa57600080fd5b506103c87f000000000000000000000000000000000000000000000000000000000000000081565b348015610ade57600080fd5b506103c8610aed36600461379e565b60026020526000908152604090205481565b348015610b0b57600080fd5b506103c87f150214d74d59b7d1e90c73fc22ef3d991dd0a76b046543d4d80ab92d2a50328f81565b348015610b3f57600080fd5b506103c8611dbb565b348015610b5457600080fd5b506103c8610b633660046131ac565b60186020526000908152604090205481565b348015610b8157600080fd5b506103ac611dcd565b348015610b9657600080fd5b506103c8611eb7565b348015610bab57600080fd5b506104d5611ee3565b348015610bc057600080fd5b506103ac610bcf3660046139fb565b611f39565b348015610be057600080fd5b506103ac610bef36600461379e565b612149565b348015610c0057600080fd5b506103fb610c0f3660046136a6565b6121e4565b348015610c2057600080fd5b506103c861246f565b6000610c34600d5490565b905090565b60006001600160e01b0319821663eed9776760e01b1480610c6a57506301ffc9a760e01b6001600160e01b03198316145b92915050565b6000610c34600f5490565b6000610c346013546001600160a01b031690565b606060078054610c9e90613a8b565b80601f0160208091040260200160405190810160405280929190818152602001828054610cca90613a8b565b8015610d175780601f10610cec57610100808354040283529160200191610d17565b820191906000526020600020905b815481529060010190602001808311610cfa57829003601f168201915b5050505050905090565b6060600c805480602002602001604051908101604052809291908181526020018280548015610d1757602002820191906000526020600020905b815481526020019060010190808311610d5b575050505050905090565b6001600160a01b03831660009081526004602052604081205460ff16610e03577f0000000000000000000000000000000000000000000000000000000000000000600003610dc857506001610e07565b610dde84678ac7230489e8000085856000610e6e565b506001600160a01b0384166000908152600460205260409020805460ff191660011790555b5060015b9392505050565b60175460009060ff16610e3c5760405162461bcd60e51b8152600401610e3390613ac5565b60405180910390fd5b5060009081526019602052604090205460ff1690565b6000610e5c610c70565b610e64611dbb565b610c349190613b46565b6040516bffffffffffffffffffffffff19606087901b166020820152603481018590526000908190605401604051602081830303815290604052805190602001209050600083610f1d57610f188686808060200260200160405190810160405280939291908181526020018383602002808284376000920191909152507f0000000000000000000000000000000000000000000000000000000000000000925086915061247a9050565b610f7d565b610f7d8686808060200260200160405190810160405280939291908181526020018383602002808284376000920191909152507f0000000000000000000000000000000000000000000000000000000000000000925086915061247a9050565b905080610f9d5760405163452c2df160e11b815260040160405180910390fd5b506001979650505050505050565b6000610c34600e5490565b600033610fc581878686611327565b50610fe28882898860405180602001604052806000815250612490565b98975050505050505050565b60606000808361100557611000611221565b61100d565b61100d611bf0565b91509150600082511161107d5760405162461bcd60e51b815260206004820152603260248201527f476f7665726e6f72536f7274696e673a2063616e6e6f7420736f72742061206c6044820152710d2e6e840decc40f4cae4de40d8cadccee8d60731b6064820152608401610e33565b600082516001600160401b03811115611098576110986133fb565b6040519080825280602002602001820160405280156110c1578160200160208202803683370190505b50905060005b8251811015611145578281815181106110e2576110e2613b59565b60200260200101516020015183828151811061110057611100613b59565b6020026020010151600001516111169190613b6f565b82828151811061112857611128613b59565b60209081029190910101528061113d81613b96565b9150506110c7565b5060005b600184516111579190613baf565b81101561117c576111698183866126aa565b508061117481613b96565b915050611149565b5091949350505050565b6000816040516020016111999190613975565b60408051601f19818403018152919052805160209091012092915050565b60007f00000000000000000000000000000000000000000000000000000000000000001561120e573360009081526004602052604090205460ff1661120e5760405162461bcd60e51b8152600401610e3390613bc2565b611217826121e4565b50610c6a82612810565b606080600061122e611ee3565b9050600081516001600160401b0381111561124b5761124b6133fb565b60405190808252806020026020018201604052801561129057816020015b60408051808201909152600080825260208201528152602001906001900390816112695790505b50905060005b825181101561131d57601660008483815181106112b5576112b5613b59565b60200260200101518152602001908152602001600020600001604051806040016040529081600082015481526020016001820154815250508282815181106112ff576112ff613b59565b6020026020010181905250808061131590613b96565b915050611296565b5090939092509050565b6001600160a01b03841660009081526003602052604081205460ff1661138757611355858585856001610e6e565b506001600160a01b038516600090815260026020908152604080832087905560039091529020805460ff191660011790555b506001949350505050565b6000610c3460125490565b600c81815481106113ad57600080fd5b600091825260209091200154905081565b3360008181526003602052604081205490919060ff166114615760405162461bcd60e51b815260206004820152605260248201527f476f7665726e6f723a20796f75206e65656420746f2063617374206120766f7460448201527f652077697468207468652070726f6f66206174206c65617374206f6e636520616064820152711b99081e5bdd481a185d995b89dd081e595d60721b608482015260a401610e33565b61147d8582868660405180602001604052806000815250612490565b95945050505050565b60175460009060ff166114ab5760405162461bcd60e51b8152600401610e3390613ac5565b50601b5490565b60008281526016602090815260408083206001600160a01b0385168452600301909152902080546001909101545b9250929050565b606060088054610c9e90613a8b565b6000610c3460105490565b6000606080828080836115347f000000000000000000000000000000000000000000000000000000000000000083612baa565b61155f7f00000000000000000000000000000000000000000000000000000000000000006001612baa565b60408051600080825260208201909252600f60f81b9b939a50919850469750309650945092509050565b60175460009060ff166115ae5760405162461bcd60e51b8152600401610e3390613ac5565b5060009081526018602052604090205490565b60175460609060ff166115e65760405162461bcd60e51b8152600401610e3390613ac5565b601a805480602002602001604051908101604052809291908181526020018280548015610d175760200282019190600052602060002090815481526020019060010190808311610d5b575050505050905090565b6004611644611a04565b600481111561165557611655613937565b146116d85760405162461bcd60e51b815260206004820152604760248201527f476f7665726e6f72536f7274696e673a20636f6e74657374206d75737420626560448201527f20746f2063616c63756c61746520736f7274656420616e6420746965642070726064820152666f706f73616c7360c81b608482015260a401610e33565b60175460ff16156117775760405162461bcd60e51b815260206004820152605f60248201527f476f7665726e6f72536f7274696e673a20736574536f72746564416e6454696560448201527f6450726f706f73616c7328292068617320616c7265616479206265656e20727560648201527f6e20616e642069747320726573706563746976652076616c7565732073657400608482015260a401610e33565b6117816001610fee565b805161179591601a91602090910190613003565b50601a546000906001906117a99082613b46565b601c5560005b601a5481101561193c57601a546000906117cb90600190613baf565b9050600080611814601a6117df8686613baf565b815481106117ef576117ef613b59565b9060005260206000200154600090815260166020526040902080546001909101549091565b909250905060006118258284613b6f565b90508460000361186657601a54909650869060010361185d576118488585613baf565b600087815260186020526040902055601b8690555b5050505061192a565b8681036118b95760008681526019602052604090205460ff1661189d576000868152601960205260409020805460ff191660011790555b601a546118ab906001613b46565b601c54036118b957601c8690555b8681146118f2576118ca8585613baf565b6118d5906001613b46565b600087815260186020526040902055856118ee81613b96565b9650505b601a54611900866001613b46565b036119245761190f8585613baf565b600087815260186020526040902055601b8690555b95505050505b8061193481613b96565b9150506117af565b50506017805460ff1916600117905550565b60008181526016602090815260409182902060028101805484518185028101850190955280855260609492938301828280156119b357602002820191906000526020600020905b81546001600160a01b03168152600190910190602001808311611995575b5050505050915050919050565b60006119cd338484610d78565b6119e95760405162461bcd60e51b8152600401610e3390613bc2565b6119f2846121e4565b506119fc84612810565b949350505050565b60095460009060ff1615611a185750600290565b6000611a22610c29565b9050428110611a3357600091505090565b6000611a3d611dbb565b9050428110611a4f5760039250505090565b6000611a59610e52565b9050428110611a6c576001935050505090565b6004935050505090565b611a7e61304e565b6000828152600a6020908152604091829020825160a08101845281546001600160a01b0381168252600160a01b900460ff161515928101929092526001810180549293919291840191611ad090613a8b565b80601f0160208091040260200160405190810160405280929190818152602001828054611afc90613a8b565b8015611b495780601f10611b1e57610100808354040283529160200191611b49565b820191906000526020600020905b815481529060010190602001808311611b2c57829003601f168201915b5050509183525050604080516020818101835260028501546001600160a01b03168252808401919091528151600385018054606093810283018401855282850181815294909501949193909284928491840182828015611bd257602002820191906000526020600020905b81546001600160a01b03168152600190910190602001808311611bb4575b50505050508152602001600182015481525050815250509050919050565b6060806000611bfd611ee3565b9050600081516001600160401b03811115611c1a57611c1a6133fb565b604051908082528060200260200182016040528015611c43578160200160208202803683370190505b509050600082516001600160401b03811115611c6157611c616133fb565b604051908082528060200260200182016040528015611ca657816020015b6040805180820190915260008082526020820152815260200190600190039081611c7f5790505b5090506000805b8451811015611daf57611ce8858281518110611ccb57611ccb613b59565b602002602001015160009081526006602052604090205460ff1690565b611d9d57848181518110611cfe57611cfe613b59565b6020026020010151848381518110611d1857611d18613b59565b60200260200101818152505060166000868381518110611d3a57611d3a613b59565b6020026020010151815260200190815260200160002060000160405180604001604052908160008201548152602001600182015481525050838381518110611d8457611d84613b59565b6020908102919091010152611d9a600183613b46565b91505b80611da781613b96565b915050611cad565b50919590945092505050565b6000611dc5610fab565b610e64610c29565b611dd5610c7b565b6001600160a01b0316336001600160a01b031614611df257600080fd5b6000611dfc611a04565b90506002816004811115611e1257611e12613937565b14158015611e3257506004816004811115611e2f57611e2f613937565b14155b611e7e5760405162461bcd60e51b815260206004820152601c60248201527f476f7665726e6f723a20636f6e74657374206e6f7420616374697665000000006044820152606401610e33565b6009805460ff191660011790556040517f4cd963a081760a54f571abc0f1db4dde31b4a07d8d6da3e844b8c6f47eeaaa4290600090a150565b60175460009060ff16611edc5760405162461bcd60e51b8152600401610e3390613ac5565b50601c5490565b60606005805480602002602001604051908101604052809291908181526020018280548015610d175760200282019190600052602060002090815481526020019060010190808311610d5b575050505050905090565b611f41610c7b565b6001600160a01b0316336001600160a01b031614611fc75760405162461bcd60e51b815260206004820152603760248201527f476f7665726e6f723a206f6e6c792074686520636f6e7465737420637265617460448201527f6f722063616e2064656c6574652070726f706f73616c730000000000000000006064820152608401610e33565b6004611fd1611a04565b6004811115611fe257611fe2613937565b036120675760405162461bcd60e51b815260206004820152604960248201527f476f7665726e6f723a2064656c6574696f6e206f662070726f706f73616c732060448201527f61667465722074686520656e64206f66206120636f6e74657374206973206e6f6064820152681d08185b1b1bddd95960ba1b608482015260a401610e33565b60005b815181101561210e57600082828151811061208757612087613b59565b6020908102919091018101516000818152600690925260409091205490915060ff166120fb576000818152600660205260408120805460ff19166001908117909155600c805491820181559091527fdf6966c971051c3d54ec59162606531493a51404a002842f56009d7e5cf4a8c7018190555b508061210681613b96565b91505061206a565b507f75a75cf5c561892f4cc5b26c1b8e933849b42238c96dd073d080d1ae96c514168160405161213e9190613217565b60405180910390a150565b612151610c7b565b6001600160a01b0316336001600160a01b03161461216e57600080fd5b6000612182601d546001600160a01b031690565b601d80546001600160a01b0319166001600160a01b0385811691821790925560408051928416835260208301919091529192507f753a2cf8d360cff631674504210913e48247f8e56b3e6d2006c2103d4095999f910160405180910390a15050565b80516000906001600160a01b031633146122595760405162461bcd60e51b815260206004820152603060248201527f476f7665726e6f723a207468652070726f706f73616c20617574686f72206d7560448201526f39ba1031329036b9b39739b2b73232b960811b6064820152608401610e33565b60005b600281101561241157600081600181111561227957612279613937565b9050600081600181111561228f5761228f613937565b0361229a57506123ff565b60018160018111156122ae576122ae613937565b036123e457608084015151516000036123405760405162461bcd60e51b815260206004820152604860248201527f476f7665726e6f724d6574616461746156616c69646174696f6e3a207468657260448201527f652063616e6e6f74206265207a65726f207369676e65727320696e20736166656064820152674d6574616461746160c01b608482015260a401610e33565b8360800151602001516000036123cc5760405162461bcd60e51b8152602060048201526044602482018190527f476f7665726e6f724d6574616461746156616c69646174696f6e3a2074687265908201527f73686f6c642063616e6e6f74206265207a65726f20696e20736166654d6574616064820152636461746160e01b608482015260a401610e33565b608084015151516000036123df57600080fd5b6123fd565b6040516308b6566d60e11b815260040160405180910390fd5b505b8061240981613b96565b91505061225c565b508160400151516000036124675760405162461bcd60e51b815260206004820152601860248201527f476f7665726e6f723a20656d7074792070726f706f73616c00000000000000006044820152606401610e33565b506001919050565b6000610c3460115490565b6000826124878584612c56565b14949350505050565b6000600161249c611a04565b60048111156124ad576124ad613937565b146125065760405162461bcd60e51b815260206004820152602360248201527f476f7665726e6f723a20766f7465206e6f742063757272656e746c792061637460448201526269766560e81b6064820152608401610e33565b6000831161256a5760405162461bcd60e51b815260206004820152602b60248201527f476f7665726e6f723a2063616e6e6f7420766f746520776974682030206f722060448201526a666577657220766f74657360a81b6064820152608401610e33565b6001600160a01b03851660009081526003602052604090205460ff166126105760405162461bcd60e51b815260206004820152604f60248201527f476f7665726e6f723a20796f75206e65656420746f2076657269667920796f7560448201527f72206e756d626572206f6620766f74657320616761696e737420746865206d6560648201526e1c9adb19481c9bdbdd08199a5c9cdd608a1b608482015260a401610e33565b61264286868686600260008b6001600160a01b03166001600160a01b0316815260200190815260200160002054612ca3565b846001600160a01b03167fb8e138887d0aa13bab447e82de9d5c1777041ecd21ca36ba824ff1e6c07ddda4878686866040516126819493929190613c11565b60405180910390a2505050506001600160a01b0316600090815260026020526040902054919050565b600083805b8451811015612708578482815181106126ca576126ca613b59565b60200260200101518582815181106126e4576126e4613b59565b602002602001015112156126f6578091505b8061270081613b96565b9150506126af565b5084810361271a576000915050610e07565b600084868151811061272e5761272e613b59565b6020026020010151905084828151811061274a5761274a613b59565b602002602001015185878151811061276457612764613b59565b6020026020010181815250508085838151811061278357612783613b59565b60200260200101818152505060008487815181106127a3576127a3613b59565b602002602001015190508483815181106127bf576127bf613b59565b60200260200101518588815181106127d9576127d9613b59565b602002602001018181525050808584815181106127f8576127f8613b59565b60209081029190910101525060019695505050505050565b6000600361281c611a04565b600481111561282d5761282d613937565b146128a05760405162461bcd60e51b815260206004820152603e60248201527f476f7665726e6f723a20636f6e74657374206d7573742062652071756575656460448201527f20666f722070726f706f73616c7320746f206265207375626d697474656400006064820152608401610e33565b6128a86114f6565b336000908152600b60205260409020541061295f5760405162461bcd60e51b815260206004820152606560248201527f476f7665726e6f723a207468652073616d6520616464726573732063616e6e6f60448201527f74207375626d6974206d6f7265207468616e20746865206e756d416c6c6f776560648201527f6450726f706f73616c5375626d697373696f6e7320666f72207468697320636f6084820152641b9d195cdd60da1b60a482015260c401610e33565b61296761246f565b600c546005546129779190613baf565b106129ea5760405162461bcd60e51b815260206004820152603960248201527f476f7665726e6f723a20746865206d6178206e756d626572206f662070726f7060448201527f6f73616c732068617665206265656e207375626d6974746564000000000000006064820152608401610e33565b60006129f583611186565b6000818152600a6020526040902054909150600160a01b900460ff1615612a705760405162461bcd60e51b815260206004820152602960248201527f476f7665726e6f723a206475706c69636174652070726f706f73616c73206e6f6044820152681d08185b1b1bddd95960ba1b6064820152608401610e33565b6005805460018181019092557f036b6384b5eca791c62761152d0c79bb0604c104a5fb6f4eb0703f3154bb3db0018290556000828152600a602090815260409182902086518154928801511515600160a01b026001600160a81b03199093166001600160a01b0390911617919091178155908501518592820190612af49082613c92565b506060820151516002820180546001600160a01b0319166001600160a01b039092169190911790556080820151805180516003840191612b39918391602001906130bf565b50602091820151600191820155336000908152600b9092526040822080549194509250612b67908490613b46565b9091555050604080518281523360208201527fcd423cc1203c0af96b9b3d68d73b3064a69de2d14450bb7181c5e5df2132b358910160405180910390a192915050565b606060ff8314612bc457612bbd83612f70565b9050610c6a565b818054612bd090613a8b565b80601f0160208091040260200160405190810160405280929190818152602001828054612bfc90613a8b565b8015612c495780601f10612c1e57610100808354040283529160200191612c49565b820191906000526020600020905b815481529060010190602001808311612c2c57829003601f168201915b5050505050905092915050565b600081815b8451811015612c9b57612c8782868381518110612c7a57612c7a613b59565b6020026020010151612faf565b915080612c9381613b96565b915050612c5b565b509392505050565b60008581526016602090815260408083206001600160a01b0388168452601590925290912054612cd39083613baf565b831115612d3e5760405162461bcd60e51b815260206004820152603360248201527f476f7665726e6f72566f74696e6753696d706c653a206e6f7420656e6f756768604482015272081d9bdd195cc81b19599d081d1bc818d85cdd606a1b6064820152608401610e33565b6001600160a01b03851660009081526003820160205260409020541560ff8516612db057815484908390600090612d76908490613b46565b90915550506001600160a01b038616600090815260038301602052604081208054869290612da5908490613b46565b90915550612eea9050565b60001960ff861601612e8457612dc4611392565b600114612e3b576040805162461bcd60e51b81526020600482015260248101919091527f476f7665726e6f72566f74696e6753696d706c653a20646f776e766f74696e6760448201527f206973206e6f7420656e61626c656420666f72207468697320436f6e746573746064820152608401610e33565b83826000016001016000828254612e529190613b46565b90915550506001600160a01b038616600090815260038301602052604081206001018054869290612da5908490613b46565b60405162461bcd60e51b815260206004820152603560248201527f476f7665726e6f72566f74696e6753696d706c653a20696e76616c69642076616044820152746c756520666f7220656e756d20566f74655479706560581b6064820152608401610e33565b8015612f2157600282018054600181018255600091825260209091200180546001600160a01b0319166001600160a01b0388161790555b6001600160a01b03861660009081526015602052604081208054869290612f49908490613b46565b925050819055508360146000828254612f629190613b46565b909155505050505050505050565b60606000612f7d83612fdb565b604080516020808252818301909252919250600091906020820181803683375050509182525060208101929092525090565b6000818310612fcb576000828152602084905260409020610e07565b5060009182526020526040902090565b600060ff8216601f811115610c6a57604051632cd44ac360e21b815260040160405180910390fd5b82805482825590600052602060002090810192821561303e579160200282015b8281111561303e578251825591602001919060010190613023565b5061304a929150613114565b5090565b6040518060a0016040528060006001600160a01b0316815260200160001515815260200160608152602001613098604051806020016040528060006001600160a01b031681525090565b81526020016130ba604051806040016040528060608152602001600081525090565b905290565b82805482825590600052602060002090810192821561303e579160200282015b8281111561303e57825182546001600160a01b0319166001600160a01b039091161782556020909201916001909101906130df565b5b8082111561304a5760008155600101613115565b60006020828403121561313b57600080fd5b81356001600160e01b031981168114610e0757600080fd5b6000815180845260005b818110156131795760208185018101518683018201520161315d565b506000602082860101526020601f19601f83011685010191505092915050565b602081526000610e076020830184613153565b6000602082840312156131be57600080fd5b5035919050565b815181526020808301519082015260408101610c6a565b600081518084526020808501945080840160005b8381101561320c578151875295820195908201906001016131f0565b509495945050505050565b602081526000610e0760208301846131dc565b6001600160a01b038116811461323f57600080fd5b50565b60008083601f84011261325457600080fd5b5081356001600160401b0381111561326b57600080fd5b6020830191508360208260051b85010111156114e057600080fd5b60008060006040848603121561329b57600080fd5b83356132a68161322a565b925060208401356001600160401b038111156132c157600080fd5b6132cd86828701613242565b9497909650939450505050565b803580151581146132ea57600080fd5b919050565b60008060008060006080868803121561330757600080fd5b85356133128161322a565b94506020860135935060408601356001600160401b0381111561333457600080fd5b61334088828901613242565b90945092506133539050606087016132da565b90509295509295909350565b803560ff811681146132ea57600080fd5b60008060008060008060a0878903121561338957600080fd5b863595506133996020880161335f565b9450604087013593506060870135925060808701356001600160401b038111156133c257600080fd5b6133ce89828a01613242565b979a9699509497509295939492505050565b6000602082840312156133f257600080fd5b610e07826132da565b634e487b7160e01b600052604160045260246000fd5b604080519081016001600160401b0381118282101715613433576134336133fb565b60405290565b60405160a081016001600160401b0381118282101715613433576134336133fb565b604051601f8201601f191681016001600160401b0381118282101715613483576134836133fb565b604052919050565b60006020828403121561349d57600080fd5b604051602081018181106001600160401b03821117156134bf576134bf6133fb565b60405290508082356134d08161322a565b905292915050565b60006001600160401b038211156134f1576134f16133fb565b5060051b60200190565b60006040828403121561350d57600080fd5b613515613411565b905081356001600160401b0381111561352d57600080fd5b8201601f8101841361353e57600080fd5b8035602061355361354e836134d8565b61345b565b82815260059290921b8301810191818101908784111561357257600080fd5b938201935b8385101561359957843561358a8161322a565b82529382019390820190613577565b85525093840135938301939093525092915050565b600060a082840312156135c057600080fd5b6135c8613439565b905081356135d58161322a565b815260206135e48382016132da565b8183015260408301356001600160401b038082111561360257600080fd5b818501915085601f83011261361657600080fd5b813581811115613628576136286133fb565b61363a601f8201601f1916850161345b565b818152878583860101111561364e57600080fd5b818585018683013760008583830101528060408701525050613673866060870161348b565b6060850152608085013592508083111561368c57600080fd5b505061369a848285016134fb565b60808301525092915050565b6000602082840312156136b857600080fd5b81356001600160401b038111156136ce57600080fd5b6119fc848285016135ae565b600060408083526136ed818401866131dc565b83810360208581019190915285518083528682019282019060005b818110156137355761372583865180518252602090810151910152565b9383019391850191600101613708565b509098975050505050505050565b6000806000806060858703121561375957600080fd5b84356137648161322a565b93506020850135925060408501356001600160401b0381111561378657600080fd5b61379287828801613242565b95989497509550505050565b6000602082840312156137b057600080fd5b8135610e078161322a565b6000806000606084860312156137d057600080fd5b833592506137e06020850161335f565b9150604084013590509250925092565b6000806040838503121561380357600080fd5b8235915060208301356138158161322a565b809150509250929050565b60ff60f81b8816815260e06020820152600061383f60e0830189613153565b82810360408401526138518189613153565b606084018890526001600160a01b038716608085015260a0840186905283810360c0850152905061388281856131dc565b9a9950505050505050505050565b600081518084526020808501945080840160005b8381101561320c5781516001600160a01b0316875295820195908201906001016138a4565b602081526000610e076020830184613890565b6000806000604084860312156138f157600080fd5b83356001600160401b038082111561390857600080fd5b613914878388016135ae565b9450602086013591508082111561392a57600080fd5b506132cd86828701613242565b634e487b7160e01b600052602160045260246000fd5b602081016005831061396f57634e487b7160e01b600052602160045260246000fd5b91905290565b60208152600060018060a01b03808451166020840152602084015115156040840152604084015160a060608501526139b060c0850182613153565b90508160608601515116608085015260808501519150601f198482030160a08501528151604082526139e56040830182613890565b6020938401519290930191909152509392505050565b60006020808385031215613a0e57600080fd5b82356001600160401b03811115613a2457600080fd5b8301601f81018513613a3557600080fd5b8035613a4361354e826134d8565b81815260059190911b82018301908381019087831115613a6257600080fd5b928401925b82841015613a8057833582529284019290840190613a67565b979650505050505050565b600181811c90821680613a9f57607f821691505b602082108103613abf57634e487b7160e01b600052602260045260246000fd5b50919050565b60208082526045908201527f526577617264734d6f64756c653a2072756e20736574536f72746564416e645460408201527f69656450726f706f73616c73282920746f20706f70756c61746520746869732060608201526476616c756560d81b608082015260a00190565b634e487b7160e01b600052601160045260246000fd5b80820180821115610c6a57610c6a613b30565b634e487b7160e01b600052603260045260246000fd5b8181036000831280158383131683831282161715613b8f57613b8f613b30565b5092915050565b600060018201613ba857613ba8613b30565b5060010190565b81810381811115610c6a57610c6a613b30565b6020808252602f908201527f476f7665726e6f723a2061646472657373206973206e6f74207065726d69737360408201526e1a5bdb9959081d1bc81cdd589b5a5d608a1b606082015260800190565b84815260ff84166020820152826040820152608060608201526000613c396080830184613153565b9695505050505050565b601f821115613c8d57600081815260208120601f850160051c81016020861015613c6a5750805b601f850160051c820191505b81811015613c8957828155600101613c76565b5050505b505050565b81516001600160401b03811115613cab57613cab6133fb565b613cbf81613cb98454613a8b565b84613c43565b602080601f831160018114613cf45760008415613cdc5750858301515b600019600386901b1c1916600185901b178555613c89565b600085815260208120601f198616915b82811015613d2357888601518255948401946001909101908401613d04565b5085821015613d415787850151600019600388901b60f8161c191681555b5050505050600190811b0190555056fea2646970667358221220e7cbfa3c93baae84fce46a6a1924d469232b2841433e6d2748f60c69d72d0c3464736f6c63430008130033",
    "linkReferences": {}
  },
  "methodIdentifiers": {
    "AMOUNT_FOR_SUMBITTER_PROOF()": "347cf665",
    "BALLOT_TYPEHASH()": "deaaa7cc",
    "COUNTING_MODE()": "dd4e2ba5",
    "METADATAS_COUNT()": "4d24a67f",
    "_deletedProposalIds(uint256)": "653d2903",
    "addressSubmitterVerified(address)": "cb853950",
    "addressTotalCastVoteCounts(address)": "a1ac6cb2",
    "addressTotalVotes(address)": "dea5f6a6",
    "addressTotalVotesVerified(address)": "930de979",
    "allProposalTotalVotes()": "50a5e524",
    "allProposalTotalVotesWithoutDeleted()": "d45a010b",
    "cancel()": "ea8a1af0",
    "castVote(uint256,uint8,uint256,uint256,bytes32[])": "419c533c",
    "castVoteWithoutProof(uint256,uint8,uint256)": "65f16263",
    "checkProof(address,uint256,bytes32[],bool)": "32763c22",
    "contestAddressTotalVotesCast(address)": "aec116b6",
    "contestDeadline()": "262e59e9",
    "contestStart()": "004114a8",
    "creator()": "02d05d3f",
    "deleteProposals(uint256[])": "f0a7db0a",
    "downvotingAllowed()": "60506ff6",
    "eip712Domain()": "84b0196e",
    "getAllDeletedProposalIds()": "1242b737",
    "getAllProposalIds()": "efa90d36",
    "getNumSubmissions(address)": "5f953a03",
    "getProposal(uint256)": "c7f758a8",
    "hashProposal((address,bool,string,(address),(address[],uint256)))": "458da87d",
    "highestTiedRanking()": "ebc18b9b",
    "isProposalDeleted(uint256)": "3b6d199b",
    "isTied(uint256)": "2399c660",
    "lowestRanking()": "6ca1a2c7",
    "maxProposalCount()": "fb9bf8d4",
    "name()": "06fdde03",
    "numAllowedProposalSubmissions()": "832009af",
    "officialRewardsModule()": "785ddfe5",
    "prompt()": "7c65d711",
    "proposalAddressVotes(uint256,address)": "6e4eb810",
    "proposalAddressesHaveVoted(uint256)": "b323580d",
    "proposalVotes(uint256)": "544ffc9c",
    "proposalVotesStructs(uint256)": "070dc5d9",
    "propose((address,bool,string,(address),(address[],uint256)),bytes32[])": "c0ffaa78",
    "proposeWithoutProof((address,bool,string,(address),(address[],uint256)))": "476f4d8a",
    "rankingPosition(uint256)": "86187488",
    "setOfficialRewardsModule(address)": "f4f3d7ec",
    "setSortedAndTiedProposals()": "96f0e962",
    "setSortedAndTiedProposalsHasBeenRun()": "d8891619",
    "sortedProposalIds()": "8a9cd550",
    "sortedProposals(bool)": "427d56c2",
    "state()": "c19d93fb",
    "submissionMerkleRoot()": "bddc1641",
    "supportsInterface(bytes4)": "01ffc9a7",
    "tiedAdjustedRankingPosition(uint256)": "e5eb5a48",
    "totalVotesCast()": "7de418d5",
    "validateProposalData((address,bool,string,(address),(address[],uint256)))": "fb8ddab4",
    "verifyProposer(address,bytes32[])": "20b3e845",
    "verifyVoter(address,uint256,bytes32[])": "531bd812",
    "version()": "54fd4d50",
    "voteStart()": "e031535b",
    "votingDelay()": "3932abb1",
    "votingMerkleRoot()": "dd96a19d",
    "votingPeriod()": "02a251a3"
  },
  "id": 40
}