{"abi":[{"type":"constructor","inputs":[{"name":"_name","type":"string","internalType":"string"},{"name":"_prompt","type":"string","internalType":"string"},{"name":"_submissionMerkleRoot","type":"bytes32","internalType":"bytes32"},{"name":"_votingMerkleRoot","type":"bytes32","internalType":"bytes32"},{"name":"_constructorArgs","type":"tuple","internalType":"struct Governor.ConstructorArgs","components":[{"name":"intConstructorArgs","type":"tuple","internalType":"struct Governor.IntConstructorArgs","components":[{"name":"contestStart","type":"uint256","internalType":"uint256"},{"name":"votingDelay","type":"uint256","internalType":"uint256"},{"name":"votingPeriod","type":"uint256","internalType":"uint256"},{"name":"numAllowedProposalSubmissions","type":"uint256","internalType":"uint256"},{"name":"maxProposalCount","type":"uint256","internalType":"uint256"},{"name":"downvotingAllowed","type":"uint256","internalType":"uint256"},{"name":"sortingEnabled","type":"uint256","internalType":"uint256"},{"name":"rankLimit","type":"uint256","internalType":"uint256"},{"name":"percentageToCreator","type":"uint256","internalType":"uint256"},{"name":"costToPropose","type":"uint256","internalType":"uint256"},{"name":"costToVote","type":"uint256","internalType":"uint256"},{"name":"payPerVote","type":"uint256","internalType":"uint256"}]},{"name":"creatorSplitDestination","type":"address","internalType":"address"},{"name":"jkLabsSplitDestination","type":"address","internalType":"address"},{"name":"metadataFieldsSchema","type":"string","internalType":"string"}]}],"stateMutability":"nonpayable"},{"type":"function","name":"AMOUNT_FOR_SUMBITTER_PROOF","inputs":[],"outputs":[{"name":"","type":"uint256","internalType":"uint256"}],"stateMutability":"view"},{"type":"function","name":"JK_LABS_ADDRESS","inputs":[],"outputs":[{"name":"","type":"address","internalType":"address"}],"stateMutability":"view"},{"type":"function","name":"MAX_FIELDS_METADATA_LENGTH","inputs":[],"outputs":[{"name":"","type":"uint256","internalType":"uint256"}],"stateMutability":"view"},{"type":"function","name":"METADATAS_COUNT","inputs":[],"outputs":[{"name":"","type":"uint256","internalType":"uint256"}],"stateMutability":"view"},{"type":"function","name":"addressSubmitterVerified","inputs":[{"name":"","type":"address","internalType":"address"}],"outputs":[{"name":"","type":"bool","internalType":"bool"}],"stateMutability":"view"},{"type":"function","name":"addressTotalCastVoteCounts","inputs":[{"name":"","type":"address","internalType":"address"}],"outputs":[{"name":"","type":"uint256","internalType":"uint256"}],"stateMutability":"view"},{"type":"function","name":"addressTotalVotes","inputs":[{"name":"","type":"address","internalType":"address"}],"outputs":[{"name":"","type":"uint256","internalType":"uint256"}],"stateMutability":"view"},{"type":"function","name":"addressTotalVotesVerified","inputs":[{"name":"","type":"address","internalType":"address"}],"outputs":[{"name":"","type":"bool","internalType":"bool"}],"stateMutability":"view"},{"type":"function","name":"addressesThatHaveVoted","inputs":[{"name":"","type":"uint256","internalType":"uint256"}],"outputs":[{"name":"","type":"address","internalType":"address"}],"stateMutability":"view"},{"type":"function","name":"allProposalTotalVotes","inputs":[],"outputs":[{"name":"proposalIdsReturn","type":"uint256[]","internalType":"uint256[]"},{"name":"proposalVoteCountsArrayReturn","type":"tuple[]","internalType":"struct GovernorCountingSimple.VoteCounts[]","components":[{"name":"forVotes","type":"uint256","internalType":"uint256"},{"name":"againstVotes","type":"uint256","internalType":"uint256"}]}],"stateMutability":"view"},{"type":"function","name":"cancel","inputs":[],"outputs":[],"stateMutability":"nonpayable"},{"type":"function","name":"canceled","inputs":[],"outputs":[{"name":"","type":"bool","internalType":"bool"}],"stateMutability":"view"},{"type":"function","name":"castVote","inputs":[{"name":"proposalId","type":"uint256","internalType":"uint256"},{"name":"support","type":"uint8","internalType":"uint8"},{"name":"totalVotes","type":"uint256","internalType":"uint256"},{"name":"numVotes","type":"uint256","internalType":"uint256"},{"name":"proof","type":"bytes32[]","internalType":"bytes32[]"}],"outputs":[{"name":"","type":"uint256","internalType":"uint256"}],"stateMutability":"payable"},{"type":"function","name":"castVoteWithoutProof","inputs":[{"name":"proposalId","type":"uint256","internalType":"uint256"},{"name":"support","type":"uint8","internalType":"uint8"},{"name":"numVotes","type":"uint256","internalType":"uint256"}],"outputs":[{"name":"","type":"uint256","internalType":"uint256"}],"stateMutability":"payable"},{"type":"function","name":"checkProof","inputs":[{"name":"addressToCheck","type":"address","internalType":"address"},{"name":"amount","type":"uint256","internalType":"uint256"},{"name":"proof","type":"bytes32[]","internalType":"bytes32[]"},{"name":"voting","type":"bool","internalType":"bool"}],"outputs":[{"name":"verified","type":"bool","internalType":"bool"}],"stateMutability":"view"},{"type":"function","name":"comment","inputs":[{"name":"proposalId","type":"uint256","internalType":"uint256"},{"name":"commentContent","type":"string","internalType":"string"}],"outputs":[{"name":"","type":"uint256","internalType":"uint256"}],"stateMutability":"nonpayable"},{"type":"function","name":"commentIds","inputs":[{"name":"","type":"uint256","internalType":"uint256"}],"outputs":[{"name":"","type":"uint256","internalType":"uint256"}],"stateMutability":"view"},{"type":"function","name":"commentIsDeleted","inputs":[{"name":"","type":"uint256","internalType":"uint256"}],"outputs":[{"name":"","type":"bool","internalType":"bool"}],"stateMutability":"view"},{"type":"function","name":"comments","inputs":[{"name":"","type":"uint256","internalType":"uint256"}],"outputs":[{"name":"author","type":"address","internalType":"address"},{"name":"timestamp","type":"uint256","internalType":"uint256"},{"name":"proposalId","type":"uint256","internalType":"uint256"},{"name":"commentContent","type":"string","internalType":"string"}],"stateMutability":"view"},{"type":"function","name":"contestAddressTotalVotesCast","inputs":[{"name":"userAddress","type":"address","internalType":"address"}],"outputs":[{"name":"userTotalVotesCast","type":"uint256","internalType":"uint256"}],"stateMutability":"view"},{"type":"function","name":"contestDeadline","inputs":[],"outputs":[{"name":"","type":"uint256","internalType":"uint256"}],"stateMutability":"view"},{"type":"function","name":"contestStart","inputs":[],"outputs":[{"name":"","type":"uint256","internalType":"uint256"}],"stateMutability":"view"},{"type":"function","name":"costToPropose","inputs":[],"outputs":[{"name":"","type":"uint256","internalType":"uint256"}],"stateMutability":"view"},{"type":"function","name":"costToVote","inputs":[],"outputs":[{"name":"","type":"uint256","internalType":"uint256"}],"stateMutability":"view"},{"type":"function","name":"creator","inputs":[],"outputs":[{"name":"","type":"address","internalType":"address"}],"stateMutability":"view"},{"type":"function","name":"creatorSplitDestination","inputs":[],"outputs":[{"name":"","type":"address","internalType":"address"}],"stateMutability":"view"},{"type":"function","name":"deleteComments","inputs":[{"name":"commentIdsParam","type":"uint256[]","internalType":"uint256[]"}],"outputs":[],"stateMutability":"nonpayable"},{"type":"function","name":"deleteProposals","inputs":[{"name":"proposalIdsToDelete","type":"uint256[]","internalType":"uint256[]"}],"outputs":[],"stateMutability":"nonpayable"},{"type":"function","name":"deletedCommentIds","inputs":[{"name":"","type":"uint256","internalType":"uint256"}],"outputs":[{"name":"","type":"uint256","internalType":"uint256"}],"stateMutability":"view"},{"type":"function","name":"deletedProposalIds","inputs":[{"name":"","type":"uint256","internalType":"uint256"}],"outputs":[{"name":"","type":"uint256","internalType":"uint256"}],"stateMutability":"view"},{"type":"function","name":"downvotingAllowed","inputs":[],"outputs":[{"name":"","type":"uint256","internalType":"uint256"}],"stateMutability":"view"},{"type":"function","name":"forVotesToProposalIds","inputs":[{"name":"","type":"uint256","internalType":"uint256"},{"name":"","type":"uint256","internalType":"uint256"}],"outputs":[{"name":"","type":"uint256","internalType":"uint256"}],"stateMutability":"view"},{"type":"function","name":"getAllAddressesThatHaveVoted","inputs":[],"outputs":[{"name":"","type":"address[]","internalType":"address[]"}],"stateMutability":"view"},{"type":"function","name":"getAllAuthorsOfDeletedProposals","inputs":[],"outputs":[{"name":"","type":"address[]","internalType":"address[]"}],"stateMutability":"view"},{"type":"function","name":"getAllCommentIds","inputs":[],"outputs":[{"name":"","type":"uint256[]","internalType":"uint256[]"}],"stateMutability":"view"},{"type":"function","name":"getAllDeletedCommentIds","inputs":[],"outputs":[{"name":"","type":"uint256[]","internalType":"uint256[]"}],"stateMutability":"view"},{"type":"function","name":"getAllDeletedProposalIds","inputs":[],"outputs":[{"name":"","type":"uint256[]","internalType":"uint256[]"}],"stateMutability":"view"},{"type":"function","name":"getAllProposalAuthors","inputs":[],"outputs":[{"name":"","type":"address[]","internalType":"address[]"}],"stateMutability":"view"},{"type":"function","name":"getAllProposalIds","inputs":[],"outputs":[{"name":"","type":"uint256[]","internalType":"uint256[]"}],"stateMutability":"view"},{"type":"function","name":"getComment","inputs":[{"name":"commentId","type":"uint256","internalType":"uint256"}],"outputs":[{"name":"","type":"tuple","internalType":"struct GovernorEngagement.CommentCore","components":[{"name":"author","type":"address","internalType":"address"},{"name":"timestamp","type":"uint256","internalType":"uint256"},{"name":"proposalId","type":"uint256","internalType":"uint256"},{"name":"commentContent","type":"string","internalType":"string"}]}],"stateMutability":"view"},{"type":"function","name":"getNumProposalsWithThisManyForVotes","inputs":[{"name":"forVotes","type":"uint256","internalType":"uint256"}],"outputs":[{"name":"count","type":"uint256","internalType":"uint256"}],"stateMutability":"view"},{"type":"function","name":"getOnlyProposalIdWithThisManyForVotes","inputs":[{"name":"forVotes","type":"uint256","internalType":"uint256"}],"outputs":[{"name":"proposalId","type":"uint256","internalType":"uint256"}],"stateMutability":"view"},{"type":"function","name":"getProposal","inputs":[{"name":"proposalId","type":"uint256","internalType":"uint256"}],"outputs":[{"name":"","type":"tuple","internalType":"struct Governor.ProposalCore","components":[{"name":"author","type":"address","internalType":"address"},{"name":"exists","type":"bool","internalType":"bool"},{"name":"description","type":"string","internalType":"string"},{"name":"targetMetadata","type":"tuple","internalType":"struct Governor.TargetMetadata","components":[{"name":"targetAddress","type":"address","internalType":"address"}]},{"name":"safeMetadata","type":"tuple","internalType":"struct Governor.SafeMetadata","components":[{"name":"signers","type":"address[]","internalType":"address[]"},{"name":"threshold","type":"uint256","internalType":"uint256"}]},{"name":"fieldsMetadata","type":"tuple","internalType":"struct Governor.FieldsMetadata","components":[{"name":"addressArray","type":"address[]","internalType":"address[]"},{"name":"stringArray","type":"string[]","internalType":"string[]"},{"name":"uintArray","type":"uint256[]","internalType":"uint256[]"}]}]}],"stateMutability":"view"},{"type":"function","name":"getProposalComments","inputs":[{"name":"proposalId","type":"uint256","internalType":"uint256"}],"outputs":[{"name":"","type":"uint256[]","internalType":"uint256[]"}],"stateMutability":"view"},{"type":"function","name":"getProposalsWithThisManyForVotes","inputs":[{"name":"forVotes","type":"uint256","internalType":"uint256"}],"outputs":[{"name":"proposalsWithThisManyForVotes","type":"uint256[]","internalType":"uint256[]"}],"stateMutability":"view"},{"type":"function","name":"getRankIndex","inputs":[{"name":"rank","type":"uint256","internalType":"uint256"}],"outputs":[{"name":"rankIndex","type":"uint256","internalType":"uint256"}],"stateMutability":"view"},{"type":"function","name":"getSortedRanks","inputs":[],"outputs":[{"name":"sortedRanksArray","type":"uint256[]","internalType":"uint256[]"}],"stateMutability":"view"},{"type":"function","name":"hashComment","inputs":[{"name":"commentObj","type":"tuple","internalType":"struct GovernorEngagement.CommentCore","components":[{"name":"author","type":"address","internalType":"address"},{"name":"timestamp","type":"uint256","internalType":"uint256"},{"name":"proposalId","type":"uint256","internalType":"uint256"},{"name":"commentContent","type":"string","internalType":"string"}]}],"outputs":[{"name":"","type":"uint256","internalType":"uint256"}],"stateMutability":"pure"},{"type":"function","name":"hashProposal","inputs":[{"name":"proposal","type":"tuple","internalType":"struct Governor.ProposalCore","components":[{"name":"author","type":"address","internalType":"address"},{"name":"exists","type":"bool","internalType":"bool"},{"name":"description","type":"string","internalType":"string"},{"name":"targetMetadata","type":"tuple","internalType":"struct Governor.TargetMetadata","components":[{"name":"targetAddress","type":"address","internalType":"address"}]},{"name":"safeMetadata","type":"tuple","internalType":"struct Governor.SafeMetadata","components":[{"name":"signers","type":"address[]","internalType":"address[]"},{"name":"threshold","type":"uint256","internalType":"uint256"}]},{"name":"fieldsMetadata","type":"tuple","internalType":"struct Governor.FieldsMetadata","components":[{"name":"addressArray","type":"address[]","internalType":"address[]"},{"name":"stringArray","type":"string[]","internalType":"string[]"},{"name":"uintArray","type":"uint256[]","internalType":"uint256[]"}]}]}],"outputs":[{"name":"","type":"uint256","internalType":"uint256"}],"stateMutability":"pure"},{"type":"function","name":"isOrIsBelowTiedRank","inputs":[{"name":"idx","type":"uint256","internalType":"uint256"}],"outputs":[{"name":"atOrBelowTiedRank","type":"bool","internalType":"bool"}],"stateMutability":"view"},{"type":"function","name":"jkLabsSplitDestination","inputs":[],"outputs":[{"name":"","type":"address","internalType":"address"}],"stateMutability":"view"},{"type":"function","name":"maxProposalCount","inputs":[],"outputs":[{"name":"","type":"uint256","internalType":"uint256"}],"stateMutability":"view"},{"type":"function","name":"metadataFieldsSchema","inputs":[],"outputs":[{"name":"","type":"string","internalType":"string"}],"stateMutability":"view"},{"type":"function","name":"name","inputs":[],"outputs":[{"name":"","type":"string","internalType":"string"}],"stateMutability":"view"},{"type":"function","name":"numAllowedProposalSubmissions","inputs":[],"outputs":[{"name":"","type":"uint256","internalType":"uint256"}],"stateMutability":"view"},{"type":"function","name":"numSubmissions","inputs":[{"name":"","type":"address","internalType":"address"}],"outputs":[{"name":"","type":"uint256","internalType":"uint256"}],"stateMutability":"view"},{"type":"function","name":"officialRewardsModule","inputs":[],"outputs":[{"name":"","type":"address","internalType":"contract RewardsModule"}],"stateMutability":"view"},{"type":"function","name":"payPerVote","inputs":[],"outputs":[{"name":"","type":"uint256","internalType":"uint256"}],"stateMutability":"view"},{"type":"function","name":"percentageToCreator","inputs":[],"outputs":[{"name":"","type":"uint256","internalType":"uint256"}],"stateMutability":"view"},{"type":"function","name":"prompt","inputs":[],"outputs":[{"name":"","type":"string","internalType":"string"}],"stateMutability":"view"},{"type":"function","name":"proposalAddressVotes","inputs":[{"name":"proposalId","type":"uint256","internalType":"uint256"},{"name":"userAddress","type":"address","internalType":"address"}],"outputs":[{"name":"forVotes","type":"uint256","internalType":"uint256"},{"name":"againstVotes","type":"uint256","internalType":"uint256"}],"stateMutability":"view"},{"type":"function","name":"proposalAddressesHaveVoted","inputs":[{"name":"proposalId","type":"uint256","internalType":"uint256"}],"outputs":[{"name":"","type":"address[]","internalType":"address[]"}],"stateMutability":"view"},{"type":"function","name":"proposalAuthors","inputs":[{"name":"","type":"uint256","internalType":"uint256"}],"outputs":[{"name":"","type":"address","internalType":"address"}],"stateMutability":"view"},{"type":"function","name":"proposalComments","inputs":[{"name":"","type":"uint256","internalType":"uint256"},{"name":"","type":"uint256","internalType":"uint256"}],"outputs":[{"name":"","type":"uint256","internalType":"uint256"}],"stateMutability":"view"},{"type":"function","name":"proposalIds","inputs":[{"name":"","type":"uint256","internalType":"uint256"}],"outputs":[{"name":"","type":"uint256","internalType":"uint256"}],"stateMutability":"view"},{"type":"function","name":"proposalIsDeleted","inputs":[{"name":"","type":"uint256","internalType":"uint256"}],"outputs":[{"name":"","type":"bool","internalType":"bool"}],"stateMutability":"view"},{"type":"function","name":"proposalVotes","inputs":[{"name":"proposalId","type":"uint256","internalType":"uint256"}],"outputs":[{"name":"forVotes","type":"uint256","internalType":"uint256"},{"name":"againstVotes","type":"uint256","internalType":"uint256"}],"stateMutability":"view"},{"type":"function","name":"proposalVotesStructs","inputs":[{"name":"","type":"uint256","internalType":"uint256"}],"outputs":[{"name":"proposalVoteCounts","type":"tuple","internalType":"struct GovernorCountingSimple.VoteCounts","components":[{"name":"forVotes","type":"uint256","internalType":"uint256"},{"name":"againstVotes","type":"uint256","internalType":"uint256"}]}],"stateMutability":"view"},{"type":"function","name":"proposals","inputs":[{"name":"","type":"uint256","internalType":"uint256"}],"outputs":[{"name":"author","type":"address","internalType":"address"},{"name":"exists","type":"bool","internalType":"bool"},{"name":"description","type":"string","internalType":"string"},{"name":"targetMetadata","type":"tuple","internalType":"struct Governor.TargetMetadata","components":[{"name":"targetAddress","type":"address","internalType":"address"}]},{"name":"safeMetadata","type":"tuple","internalType":"struct Governor.SafeMetadata","components":[{"name":"signers","type":"address[]","internalType":"address[]"},{"name":"threshold","type":"uint256","internalType":"uint256"}]},{"name":"fieldsMetadata","type":"tuple","internalType":"struct Governor.FieldsMetadata","components":[{"name":"addressArray","type":"address[]","internalType":"address[]"},{"name":"stringArray","type":"string[]","internalType":"string[]"},{"name":"uintArray","type":"uint256[]","internalType":"uint256[]"}]}],"stateMutability":"view"},{"type":"function","name":"propose","inputs":[{"name":"proposal","type":"tuple","internalType":"struct Governor.ProposalCore","components":[{"name":"author","type":"address","internalType":"address"},{"name":"exists","type":"bool","internalType":"bool"},{"name":"description","type":"string","internalType":"string"},{"name":"targetMetadata","type":"tuple","internalType":"struct Governor.TargetMetadata","components":[{"name":"targetAddress","type":"address","internalType":"address"}]},{"name":"safeMetadata","type":"tuple","internalType":"struct Governor.SafeMetadata","components":[{"name":"signers","type":"address[]","internalType":"address[]"},{"name":"threshold","type":"uint256","internalType":"uint256"}]},{"name":"fieldsMetadata","type":"tuple","internalType":"struct Governor.FieldsMetadata","components":[{"name":"addressArray","type":"address[]","internalType":"address[]"},{"name":"stringArray","type":"string[]","internalType":"string[]"},{"name":"uintArray","type":"uint256[]","internalType":"uint256[]"}]}]},{"name":"proof","type":"bytes32[]","internalType":"bytes32[]"}],"outputs":[{"name":"","type":"uint256","internalType":"uint256"}],"stateMutability":"payable"},{"type":"function","name":"proposeWithoutProof","inputs":[{"name":"proposal","type":"tuple","internalType":"struct Governor.ProposalCore","components":[{"name":"author","type":"address","internalType":"address"},{"name":"exists","type":"bool","internalType":"bool"},{"name":"description","type":"string","internalType":"string"},{"name":"targetMetadata","type":"tuple","internalType":"struct Governor.TargetMetadata","components":[{"name":"targetAddress","type":"address","internalType":"address"}]},{"name":"safeMetadata","type":"tuple","internalType":"struct Governor.SafeMetadata","components":[{"name":"signers","type":"address[]","internalType":"address[]"},{"name":"threshold","type":"uint256","internalType":"uint256"}]},{"name":"fieldsMetadata","type":"tuple","internalType":"struct Governor.FieldsMetadata","components":[{"name":"addressArray","type":"address[]","internalType":"address[]"},{"name":"stringArray","type":"string[]","internalType":"string[]"},{"name":"uintArray","type":"uint256[]","internalType":"uint256[]"}]}]}],"outputs":[{"name":"","type":"uint256","internalType":"uint256"}],"stateMutability":"payable"},{"type":"function","name":"rankLimit","inputs":[],"outputs":[{"name":"","type":"uint256","internalType":"uint256"}],"stateMutability":"view"},{"type":"function","name":"setCreatorSplitDestination","inputs":[{"name":"newCreatorSplitDestination","type":"address","internalType":"address"}],"outputs":[],"stateMutability":"nonpayable"},{"type":"function","name":"setOfficialRewardsModule","inputs":[{"name":"officialRewardsModule_","type":"address","internalType":"contract RewardsModule"}],"outputs":[],"stateMutability":"nonpayable"},{"type":"function","name":"setSubmissionMerkleRoot","inputs":[{"name":"newSubmissionMerkleRoot","type":"bytes32","internalType":"bytes32"}],"outputs":[],"stateMutability":"nonpayable"},{"type":"function","name":"setVotingMerkleRoot","inputs":[{"name":"newVotingMerkleRoot","type":"bytes32","internalType":"bytes32"}],"outputs":[],"stateMutability":"nonpayable"},{"type":"function","name":"sortedRanks","inputs":[{"name":"","type":"uint256","internalType":"uint256"}],"outputs":[{"name":"","type":"uint256","internalType":"uint256"}],"stateMutability":"view"},{"type":"function","name":"sortingEnabled","inputs":[],"outputs":[{"name":"","type":"uint256","internalType":"uint256"}],"stateMutability":"view"},{"type":"function","name":"state","inputs":[],"outputs":[{"name":"","type":"uint8","internalType":"enum Governor.ContestState"}],"stateMutability":"view"},{"type":"function","name":"submissionMerkleRoot","inputs":[],"outputs":[{"name":"","type":"bytes32","internalType":"bytes32"}],"stateMutability":"view"},{"type":"function","name":"totalVotesCast","inputs":[],"outputs":[{"name":"","type":"uint256","internalType":"uint256"}],"stateMutability":"view"},{"type":"function","name":"validateProposalData","inputs":[{"name":"proposal","type":"tuple","internalType":"struct Governor.ProposalCore","components":[{"name":"author","type":"address","internalType":"address"},{"name":"exists","type":"bool","internalType":"bool"},{"name":"description","type":"string","internalType":"string"},{"name":"targetMetadata","type":"tuple","internalType":"struct Governor.TargetMetadata","components":[{"name":"targetAddress","type":"address","internalType":"address"}]},{"name":"safeMetadata","type":"tuple","internalType":"struct Governor.SafeMetadata","components":[{"name":"signers","type":"address[]","internalType":"address[]"},{"name":"threshold","type":"uint256","internalType":"uint256"}]},{"name":"fieldsMetadata","type":"tuple","internalType":"struct Governor.FieldsMetadata","components":[{"name":"addressArray","type":"address[]","internalType":"address[]"},{"name":"stringArray","type":"string[]","internalType":"string[]"},{"name":"uintArray","type":"uint256[]","internalType":"uint256[]"}]}]}],"outputs":[],"stateMutability":"view"},{"type":"function","name":"verifyProposer","inputs":[{"name":"account","type":"address","internalType":"address"},{"name":"proof","type":"bytes32[]","internalType":"bytes32[]"}],"outputs":[],"stateMutability":"nonpayable"},{"type":"function","name":"verifyVoter","inputs":[{"name":"account","type":"address","internalType":"address"},{"name":"totalVotes","type":"uint256","internalType":"uint256"},{"name":"proof","type":"bytes32[]","internalType":"bytes32[]"}],"outputs":[],"stateMutability":"nonpayable"},{"type":"function","name":"version","inputs":[],"outputs":[{"name":"","type":"string","internalType":"string"}],"stateMutability":"pure"},{"type":"function","name":"voteStart","inputs":[],"outputs":[{"name":"","type":"uint256","internalType":"uint256"}],"stateMutability":"view"},{"type":"function","name":"votingDelay","inputs":[],"outputs":[{"name":"","type":"uint256","internalType":"uint256"}],"stateMutability":"view"},{"type":"function","name":"votingMerkleRoot","inputs":[],"outputs":[{"name":"","type":"bytes32","internalType":"bytes32"}],"stateMutability":"view"},{"type":"function","name":"votingPeriod","inputs":[],"outputs":[{"name":"","type":"uint256","internalType":"uint256"}],"stateMutability":"view"},{"type":"event","name":"CommentCreated","inputs":[{"name":"commentId","type":"uint256","indexed":false,"internalType":"uint256"}],"anonymous":false},{"type":"event","name":"CommentsDeleted","inputs":[{"name":"commentIds","type":"uint256[]","indexed":false,"internalType":"uint256[]"}],"anonymous":false},{"type":"event","name":"ContestCanceled","inputs":[],"anonymous":false},{"type":"event","name":"CreatorPaymentReleased","inputs":[{"name":"to","type":"address","indexed":false,"internalType":"address"},{"name":"amount","type":"uint256","indexed":false,"internalType":"uint256"}],"anonymous":false},{"type":"event","name":"JkLabsPaymentReleased","inputs":[{"name":"to","type":"address","indexed":false,"internalType":"address"},{"name":"amount","type":"uint256","indexed":false,"internalType":"uint256"}],"anonymous":false},{"type":"event","name":"JokeraceCreated","inputs":[{"name":"version","type":"string","indexed":false,"internalType":"string"},{"name":"name","type":"string","indexed":false,"internalType":"string"},{"name":"prompt","type":"string","indexed":false,"internalType":"string"},{"name":"creator","type":"address","indexed":false,"internalType":"address"},{"name":"contestStart","type":"uint256","indexed":false,"internalType":"uint256"},{"name":"votingDelay","type":"uint256","indexed":false,"internalType":"uint256"},{"name":"votingPeriod","type":"uint256","indexed":false,"internalType":"uint256"}],"anonymous":false},{"type":"event","name":"OfficialRewardsModuleSet","inputs":[{"name":"oldOfficialRewardsModule","type":"address","indexed":false,"internalType":"contract RewardsModule"},{"name":"newOfficialRewardsModule","type":"address","indexed":false,"internalType":"contract RewardsModule"}],"anonymous":false},{"type":"event","name":"ProposalCreated","inputs":[{"name":"proposalId","type":"uint256","indexed":false,"internalType":"uint256"},{"name":"proposer","type":"address","indexed":false,"internalType":"address"},{"name":"proposalDescription","type":"string","indexed":false,"internalType":"string"}],"anonymous":false},{"type":"event","name":"ProposalsDeleted","inputs":[{"name":"proposalIds","type":"uint256[]","indexed":false,"internalType":"uint256[]"}],"anonymous":false},{"type":"event","name":"VoteCast","inputs":[{"name":"voter","type":"address","indexed":true,"internalType":"address"},{"name":"proposalId","type":"uint256","indexed":false,"internalType":"uint256"},{"name":"support","type":"uint8","indexed":false,"internalType":"uint8"},{"name":"numVotes","type":"uint256","indexed":false,"internalType":"uint256"}],"anonymous":false},{"type":"error","name":"AddressFieldMetadataArrayTooLong","inputs":[]},{"type":"error","name":"AddressNotPermissionedToSubmit","inputs":[]},{"type":"error","name":"AuthorIsNotSender","inputs":[{"name":"author","type":"address","internalType":"address"},{"name":"sender","type":"address","internalType":"address"}]},{"type":"error","name":"CannotDeleteWhenCompletedOrCanceled","inputs":[]},{"type":"error","name":"CannotUpdateWhenCompletedOrCanceled","inputs":[]},{"type":"error","name":"CannotVoteLessThanOneVoteInPayPerVote","inputs":[]},{"type":"error","name":"CannotVoteOnDeletedProposal","inputs":[]},{"type":"error","name":"ContestAlreadyCanceled","inputs":[]},{"type":"error","name":"ContestMustBeActiveToVote","inputs":[{"name":"currentState","type":"uint8","internalType":"enum Governor.ContestState"}]},{"type":"error","name":"ContestMustBeQueuedToPropose","inputs":[{"name":"currentState","type":"uint8","internalType":"enum Governor.ContestState"}]},{"type":"error","name":"ContestSubmissionLimitReached","inputs":[{"name":"maxProposalCount","type":"uint256","internalType":"uint256"}]},{"type":"error","name":"DownvotingNotEnabled","inputs":[]},{"type":"error","name":"DuplicateSubmission","inputs":[{"name":"proposalId","type":"uint256","internalType":"uint256"}]},{"type":"error","name":"EmptyProposalDescription","inputs":[]},{"type":"error","name":"IncorrectCostSent","inputs":[{"name":"msgValue","type":"uint256","internalType":"uint256"},{"name":"costToVote","type":"uint256","internalType":"uint256"}]},{"type":"error","name":"IndexHasNotBeenPopulated","inputs":[]},{"type":"error","name":"InvalidVoteType","inputs":[]},{"type":"error","name":"MoreThanOneProposalWithThisManyVotes","inputs":[]},{"type":"error","name":"NeedAtLeastOneVoteToVote","inputs":[]},{"type":"error","name":"NeedToSubmitWithProofFirst","inputs":[]},{"type":"error","name":"NeedToVoteWithProofFirst","inputs":[]},{"type":"error","name":"NotEnoughVotesLeft","inputs":[]},{"type":"error","name":"NotInMerkle","inputs":[]},{"type":"error","name":"OnlyCreatorCanAmend","inputs":[]},{"type":"error","name":"OnlyCreatorCanDelete","inputs":[]},{"type":"error","name":"OnlyCreatorCanSetRewardsModule","inputs":[]},{"type":"error","name":"OnlyCreatorOrAuthorCanDeleteComments","inputs":[{"name":"failedToDeleteCommentId","type":"uint256","internalType":"uint256"}]},{"type":"error","name":"OnlyJkLabsCanAmend","inputs":[]},{"type":"error","name":"OnlyJkLabsOrCreatorCanCancel","inputs":[]},{"type":"error","name":"PayPerVoteMustBeEnabledForAnyoneCanVote","inputs":[]},{"type":"error","name":"RankCannotBeZero","inputs":[]},{"type":"error","name":"RankIsNotInSortedRanks","inputs":[]},{"type":"error","name":"SenderSubmissionLimitReached","inputs":[{"name":"numAllowedProposalSubmissions","type":"uint256","internalType":"uint256"}]},{"type":"error","name":"SortingAndDownvotingCannotBothBeEnabled","inputs":[]},{"type":"error","name":"StringFieldMetadataArrayTooLong","inputs":[]},{"type":"error","name":"UintFieldMetadataArrayTooLong","inputs":[]},{"type":"error","name":"UnexpectedMetadata","inputs":[{"name":"unexpectedMetadata","type":"uint8","internalType":"enum Governor.Metadatas"}]},{"type":"error","name":"ZeroSignersInSafeMetadata","inputs":[]},{"type":"error","name":"ZeroThresholdInSafeMetadata","inputs":[]}],"bytecode":{"object":"0x60806040523480156200001157600080fd5b50604051620056ab380380620056ab83398101604081905262000034916200033c565b805160c081015160e09091015160009190915560015560038390556004829055848482600562000065848262000570565b50600662000074838262000570565b5060078054336001600160a01b03199182161790915581518051600855602080820151600955604080830151600a55606080840151600b556080840151600c5560a0840151600d55610100840151600e55610120840151600f5561014084015160105561016090930151601155908401516012805485166001600160a01b0392831617905590840151601380549094169116179091558101516014906200011c908262000570565b5060408051808201825260048152631a17199960e11b60208083019190915283518051918101519084015193517f9a9bca21e4e51607db64fbdbcd7b2284a909c6a8969821f0d161efbdcae70160946200017e9493899389933393906200066a565b60405180910390a15050815160c0015160011490508015620001a55750805160a001516001145b15620001c457604051636bff10c960e01b815260040160405180910390fd5b81158015620001d7575080516101600151155b15620001f6576040516397b6be7d60e01b815260040160405180910390fd5b5050505050620006d9565b634e487b7160e01b600052604160045260246000fd5b604051608081016001600160401b03811182821017156200023c576200023c62000201565b60405290565b60405161018081016001600160401b03811182821017156200023c576200023c62000201565b60005b83811015620002855781810151838201526020016200026b565b50506000910152565b600082601f830112620002a057600080fd5b81516001600160401b0380821115620002bd57620002bd62000201565b604051601f8301601f19908116603f01168101908282118183101715620002e857620002e862000201565b816040528381528660208588010111156200030257600080fd5b6200031584602083016020890162000268565b9695505050505050565b80516001600160a01b03811681146200033757600080fd5b919050565b600080600080600060a086880312156200035557600080fd5b85516001600160401b03808211156200036d57600080fd5b6200037b89838a016200028e565b965060208801519150808211156200039257600080fd5b620003a089838a016200028e565b955060408801519450606088015193506080880151915080821115620003c557600080fd5b908701908189036101e0811215620003dc57600080fd5b620003e662000217565b61018080831215620003f757600080fd5b6200040162000242565b9250845183526020850151602084015260408501516040840152606085015160608401526080850151608084015260a085015160a084015260c085015160c084015260e085015160e08401526101008086015181850152506101208086015181850152506101408086015181850152506101608086015181850152508282526200048d8186016200031f565b602083015250620004a26101a085016200031f565b60408201526101c0840151915082821115620004bd57600080fd5b620004cb8b8386016200028e565b6060820152809450505050509295509295909350565b600181811c90821680620004f657607f821691505b6020821081036200051757634e487b7160e01b600052602260045260246000fd5b50919050565b601f8211156200056b57600081815260208120601f850160051c81016020861015620005465750805b601f850160051c820191505b81811015620005675782815560010162000552565b5050505b505050565b81516001600160401b038111156200058c576200058c62000201565b620005a4816200059d8454620004e1565b846200051d565b602080601f831160018114620005dc5760008415620005c35750858301515b600019600386901b1c1916600185901b17855562000567565b600085815260208120601f198616915b828110156200060d57888601518255948401946001909101908401620005ec565b50858210156200062c5787850151600019600388901b60f8161c191681555b5050505050600190811b01905550565b600081518084526200065681602086016020860162000268565b601f01601f19169290920160200192915050565b60e0815260006200067f60e083018a6200063c565b828103602084015262000693818a6200063c565b90508281036040840152620006a981896200063c565b6001600160a01b039790971660608401525050608081019390935260a083019190915260c0909101529392505050565b614fc280620006e96000396000f3fe6080604052600436106104d55760003560e01c8063711effc811610281578063c19d93fb1161015a578063e11db9d8116100cc578063f4f3d7ec11610085578063f4f3d7ec14610f5c578063f5c3641114610f7c578063f61736f414610f9c578063f79c017214610fbc578063f823f11014610fec578063fb9bf8d414610fff57600080fd5b8063e11db9d814610ebf578063ea8a1af014610ed4578063edcd1be414610ee9578063eef18e1714610eff578063efa90d3614610f27578063f0a7db0a14610f3c57600080fd5b8063d140d9f01161011e578063d140d9f014610e07578063d798902514610e27578063daf762db14610e47578063dd96a19d14610e67578063dea5f6a614610e7d578063e031535b14610eaa57600080fd5b8063c19d93fb14610d53578063c7f758a814610d75578063c9a1b6b214610da2578063cb85395014610dc2578063cbdc27cb14610df257600080fd5b80639ba197af116101f3578063aec116b6116101b7578063aec116b614610c92578063b323580d14610cc8578063b382543f14610ce8578063b66d1da314610cfd578063bddc164114610d1d578063c05f410414610d3357600080fd5b80639ba197af14610bd5578063a1ac6cb214610c02578063ab5e694714610c2f578063ac67f80114610c42578063ae66b8ad14610c6257600080fd5b8063832009af11610245578063832009af14610b0a5780638ebb4c1514610b205780639174778c14610b50578063930de97914610b70578063946369b514610ba05780639b644a2314610bb557600080fd5b8063711effc814610a7257806375e509c514610a92578063785ddfe514610abf5780637c65d71114610adf5780637de418d514610af457600080fd5b80633932abb1116103b3578063544c7bb41161032557806360506ff6116102e957806360506ff6146109e957806360ed97a9146109ff57806365f1626314610a145780636e4eb81014610a275780636ed815ad14610a475780636fd3636b14610a5d57600080fd5b8063544c7bb41461091d578063544ffc9c1461093d57806354fd4d50146109875780635c7107d8146109b45780635cb718a1146109d457600080fd5b80634a587ad4116103775780634a587ad41461086f5780634d24a67f1461088f57806350a5e524146108a457806350c4b616146108c757806351a41dec146108e7578063531bd812146108fd57600080fd5b80633932abb1146107ec5780633f9942ff146108025780633fb57c921461081c578063409fd0301461083c578063419c533c1461085c57600080fd5b8063102613d81161044c578063262e59e911610410578063262e59e9146107335780632c39805f14610748578063325cc6d91461076a57806332763c221461078a578063347cf665146107ba578063366ecf5b146107d657600080fd5b8063102613d81461068f5780631242b737146106af578063146230f6146106d15780631805c523146106f357806320b3e8451461071357600080fd5b80630414126a1161049e5780630414126a1461059957806305846cae146105af57806306fdde03146105cf578063070dc5d9146105f15780630800e300146106425780630aa25e441461066f57600080fd5b80624114a8146104da578063013cf08b1461050357806302a251a31461053557806302d05d3f1461054b57806303f7eed614610583575b600080fd5b3480156104e657600080fd5b506104f060085481565b6040519081526020015b60405180910390f35b34801561050f57600080fd5b5061052361051e366004613f85565b611015565b6040516104fa96959493929190614115565b34801561054157600080fd5b506104f0600a5481565b34801561055757600080fd5b5060075461056b906001600160a01b031681565b6040516001600160a01b0390911681526020016104fa565b34801561058f57600080fd5b506104f060115481565b3480156105a557600080fd5b506104f060015481565b3480156105bb57600080fd5b506104f06105ca366004613f85565b611300565b3480156105db57600080fd5b506105e4611321565b6040516104fa919061416f565b3480156105fd57600080fd5b5061063561060c366004613f85565b602260209081526000918252604091829020825180840190935280548352600101549082015281565b6040516104fa9190614182565b34801561064e57600080fd5b5061066261065d366004613f85565b6113af565b6040516104fa9190614199565b34801561067b57600080fd5b5061056b61068a366004613f85565b6114c3565b34801561069b57600080fd5b5060135461056b906001600160a01b031681565b3480156106bb57600080fd5b506106c46114ed565b6040516104fa91906141e2565b3480156106dd57600080fd5b506106f16106ec36600461421a565b611545565b005b3480156106ff57600080fd5b506104f061070e366004614336565b6115ef565b34801561071f57600080fd5b506106f161072e3660046143c0565b611710565b34801561073f57600080fd5b506104f061177f565b34801561075457600080fd5b5061075d61179b565b6040516104fa9190614414565b34801561077657600080fd5b506104f0610785366004613f85565b6117fc565b34801561079657600080fd5b506107aa6107a5366004614471565b61180c565b60405190151581526020016104fa565b3480156107c657600080fd5b506104f0678ac7230489e8000081565b3480156107e257600080fd5b506104f060005481565b3480156107f857600080fd5b506104f060095481565b34801561080e57600080fd5b506018546107aa9060ff1681565b34801561082857600080fd5b506104f0610837366004613f85565b61190b565b34801561084857600080fd5b506104f06108573660046144e1565b61191b565b6104f061086a36600461459d565b61194c565b34801561087b57600080fd5b5060125461056b906001600160a01b031681565b34801561089b57600080fd5b506104f06119ba565b3480156108b057600080fd5b506108b96119c9565b6040516104fa92919061460d565b3480156108d357600080fd5b5061056b6108e2366004613f85565b611acf565b3480156108f357600080fd5b506104f060105481565b34801561090957600080fd5b506106f1610918366004614676565b611adf565b34801561092957600080fd5b506106f1610938366004613f85565b611b54565b34801561094957600080fd5b50610972610958366004613f85565b600090815260226020526040902080546001909101549091565b604080519283526020830191909152016104fa565b34801561099357600080fd5b506040805180820190915260048152631a17199960e11b60208201526105e4565b3480156109c057600080fd5b506104f06109cf366004613f85565b611bea565b3480156109e057600080fd5b506106c4611cf1565b3480156109f557600080fd5b506104f0600d5481565b348015610a0b57600080fd5b506105e4611d47565b6104f0610a223660046146d1565b611d54565b348015610a3357600080fd5b50610972610a42366004614706565b611df2565b348015610a5357600080fd5b506104f0600f5481565b348015610a6957600080fd5b506106c4611e27565b348015610a7e57600080fd5b506104f0610a8d366004614736565b611e7d565b348015610a9e57600080fd5b506104f0610aad36600461421a565b601a6020526000908152604090205481565b348015610acb57600080fd5b5060245461056b906001600160a01b031681565b348015610aeb57600080fd5b506105e4611eae565b348015610b0057600080fd5b506104f060205481565b348015610b1657600080fd5b506104f0600b5481565b348015610b2c57600080fd5b50610b40610b3b366004613f85565b611ebb565b6040516104fa9493929190614758565b348015610b5c57600080fd5b506107aa610b6b366004613f85565b611f78565b348015610b7c57600080fd5b506107aa610b8b36600461421a565b601e6020526000908152604090205460ff1681565b348015610bac57600080fd5b5061075d61201e565b348015610bc157600080fd5b506104f0610bd0366004613f85565b61207e565b348015610be157600080fd5b506104f0610bf0366004613f85565b60009081526023602052604090205490565b348015610c0e57600080fd5b506104f0610c1d36600461421a565b60216020526000908152604090205481565b6104f0610c3d3660046147a7565b61208e565b348015610c4e57600080fd5b506106f1610c5d366004614869565b612108565b348015610c6e57600080fd5b506107aa610c7d366004613f85565b60296020526000908152604090205460ff1681565b348015610c9e57600080fd5b506104f0610cad36600461421a565b6001600160a01b031660009081526021602052604090205490565b348015610cd457600080fd5b5061075d610ce3366004613f85565b612242565b348015610cf457600080fd5b506104f0600a81565b348015610d0957600080fd5b506104f0610d18366004613f85565b6122b4565b348015610d2957600080fd5b506104f060035481565b348015610d3f57600080fd5b506106c4610d4e366004613f85565b612314565b348015610d5f57600080fd5b50610d68612376565b6040516104fa91906148b3565b348015610d8157600080fd5b50610d95610d90366004613f85565b6123c7565b6040516104fa91906148cd565b348015610dae57600080fd5b506106c4610dbd366004613f85565b6126e7565b348015610dce57600080fd5b506107aa610ddd36600461421a565b601f6020526000908152604090205460ff1681565b348015610dfe57600080fd5b5061075d612747565b348015610e1357600080fd5b506106f1610e22366004614c3c565b612877565b348015610e3357600080fd5b506104f0610e42366004614c3c565b612a5e565b348015610e5357600080fd5b506106f1610e62366004613f85565b612a71565b348015610e7357600080fd5b506104f060045481565b348015610e8957600080fd5b506104f0610e9836600461421a565b601d6020526000908152604090205481565b348015610eb657600080fd5b506104f0612b07565b348015610ecb57600080fd5b506106c4612b19565b348015610ee057600080fd5b506106f1612b6f565b348015610ef557600080fd5b506104f0600e5481565b348015610f0b57600080fd5b5061056b73dc652c746a8f85e18ce632d97c6118e8a52fa73881565b348015610f3357600080fd5b506106c4612c33565b348015610f4857600080fd5b506106f1610f57366004614c70565b612c89565b348015610f6857600080fd5b506106f1610f7736600461421a565b612e08565b348015610f8857600080fd5b506104f0610f97366004613f85565b612e8d565b348015610fa857600080fd5b506104f0610fb7366004614736565b612e9d565b348015610fc857600080fd5b506107aa610fd7366004613f85565b60176020526000908152604090205460ff1681565b6104f0610ffa366004614cb1565b612eb9565b34801561100b57600080fd5b506104f0600c5481565b601960205260009081526040902080546001820180546001600160a01b03831693600160a01b90930460ff1692919061104d90614d0c565b80601f016020809104026020016040519081016040528092919081815260200182805461107990614d0c565b80156110c65780601f1061109b576101008083540402835291602001916110c6565b820191906000526020600020905b8154815290600101906020018083116110a957829003601f168201915b5050604080516020808201835260028801546001600160a01b03168252825160038901805460609381028301840186529482018581529899939893975090955093508492849184018282801561114557602002820191906000526020600020905b81546001600160a01b03168152600190910190602001808311611127575b505050505081526020016001820154815250509080600501604051806060016040529081600082018054806020026020016040519081016040528092919081815260200182805480156111c157602002820191906000526020600020905b81546001600160a01b031681526001909101906020018083116111a3575b5050505050815260200160018201805480602002602001604051908101604052809291908181526020016000905b8282101561129b57838290600052602060002001805461120e90614d0c565b80601f016020809104026020016040519081016040528092919081815260200182805461123a90614d0c565b80156112875780601f1061125c57610100808354040283529160200191611287565b820191906000526020600020905b81548152906001019060200180831161126a57829003601f168201915b5050505050815260200190600101906111ef565b505050508152602001600282018054806020026020016040519081016040528092919081815260200182805480156112f257602002820191906000526020600020905b8154815260200190600101908083116112de575b505050505081525050905086565b6016818154811061131057600080fd5b600091825260209091200154905081565b6005805461132e90614d0c565b80601f016020809104026020016040519081016040528092919081815260200182805461135a90614d0c565b80156113a75780601f1061137c576101008083540402835291602001916113a7565b820191906000526020600020905b81548152906001019060200180831161138a57829003601f168201915b505050505081565b6113e3604051806080016040528060006001600160a01b031681526020016000815260200160008152602001606081525090565b600082815260276020908152604091829020825160808101845281546001600160a01b0316815260018201549281019290925260028101549282019290925260038201805491929160608401919061143a90614d0c565b80601f016020809104026020016040519081016040528092919081815260200182805461146690614d0c565b80156114b35780601f10611488576101008083540402835291602001916114b3565b820191906000526020600020905b81548152906001019060200180831161149657829003601f168201915b5050505050815250509050919050565b601b81815481106114d357600080fd5b6000918252602090912001546001600160a01b0316905081565b6060601680548060200260200160405190810160405280929190818152602001828054801561153b57602002820191906000526020600020905b815481526020019060010190808311611527575b5050505050905090565b6007546001600160a01b031633146115705760405163141dbb4960e21b815260040160405180910390fd5b600461157a612376565b600481111561158b5761158b61489d565b14806115af5750600261159c612376565b60048111156115ad576115ad61489d565b145b156115cd576040516398fe99a560e01b815260040160405180910390fd5b601280546001600160a01b0319166001600160a01b0392909216919091179055565b60408051608081018252338152426020820152908101839052606081018290526000908161161c8261191b565b6025805460018082019092557f401968ff42a154441da5f6c4c935ac46b8671f0e062baaa62a7545ba53bb6e4c01829055600082815260276020908152604091829020865181546001600160a01b0319166001600160a01b03909116178155908601519281019290925584015160028201556060840151919250839160038201906116a79082614d8e565b505050600085815260286020908152604080832080546001810182559084529190922001829055517f5a1a930fed43f34b3a07db782ebcac28a661c273e662bb98458cfba5a8ccd220906116fe9083815260200190565b60405180910390a19150505b92915050565b6001600160a01b0383166000908152601f602052604090205460ff1661177a5760035460000361173f57505050565b61175583678ac7230489e800008484600061180c565b506001600160a01b0383166000908152601f60205260409020805460ff191660011790555b505050565b6000600a5461178c612b07565b6117969190614e63565b905090565b6060601c80548060200260200160405190810160405280929190818152602001828054801561153b57602002820191906000526020600020905b81546001600160a01b031681526001909101906020018083116117d5575050505050905090565b6002818154811061131057600080fd5b6040516bffffffffffffffffffffffff19606087901b16602082015260348101859052600090819060540160405160208183030381529060405280519060200120905060008361189c57611897868680806020026020016040519081016040528093929190818152602001838360200280828437600092019190915250506003549150859050612ef9565b6118dd565b6118dd868680806020026020016040519081016040528093929190818152602001838360200280828437600092019190915250506004549150859050612ef9565b9050806118fd5760405163452c2df160e11b815260040160405180910390fd5b506001979650505050505050565b6026818154811061131057600080fd5b60008160405160200161192e9190614199565b60408051601f19818403018152919052805160209091012092915050565b60008061195a600186612f0f565b60008981526017602052604090205490915060ff161561198d576040516358f1119560e01b815260040160405180910390fd5b61199933878686611adf565b6119a281612fdb565b6119ae883389886130e2565b98975050505050505050565b6119c660026001614e63565b81565b60608060006119d6612c33565b9050600081516001600160401b038111156119f3576119f3614237565b604051908082528060200260200182016040528015611a3857816020015b6040805180820190915260008082526020820152815260200190600190039081611a115790505b50905060005b8251811015611ac55760226000848381518110611a5d57611a5d614e76565b6020026020010151815260200190815260200160002060000160405180604001604052908160008201548152602001600182015481525050828281518110611aa757611aa7614e76565b60200260200101819052508080611abd90614e8c565b915050611a3e565b5090939092509050565b601c81815481106114d357600080fd5b60045415801590611b0957506001600160a01b0384166000908152601e602052604090205460ff16155b15611b4e57611b1c84848484600161180c565b506001600160a01b0384166000908152601d60209081526040808320869055601e9091529020805460ff191660011790555b50505050565b3373dc652c746a8f85e18ce632d97c6118e8a52fa73814611b885760405163de07280160e01b815260040160405180910390fd5b6004611b92612376565b6004811115611ba357611ba361489d565b1480611bc757506002611bb4612376565b6004811115611bc557611bc561489d565b145b15611be5576040516398fe99a560e01b815260040160405180910390fd5b600455565b600081600003611c0d57604051630ec90a1760e31b815260040160405180910390fd5b60028054604080516020808402820181019092528281529192600092918490830182828015611c5b57602002820191906000526020600020905b815481526020019060010190808311611c47575b5050505050905060006001905060005b83811015611cd757611ca2838281518110611c8857611c88614e76565b602002602001015160009081526023602052604090205490565b15611cc557858203611cb75795945050505050565b81611cc181614e8c565b9250505b80611ccf81614e8c565b915050611c6b565b50604051632cc2ab7360e11b815260040160405180910390fd5b6060602680548060200260200160405190810160405280929190818152602001828054801561153b5760200282019190600052602060002090815481526020019060010190808311611527575050505050905090565b6014805461132e90614d0c565b600080611d62600184612f0f565b60008681526017602052604090205490915060ff1615611d95576040516358f1119560e01b815260040160405180910390fd5b60045415801590611db65750336000908152601e602052604090205460ff16155b15611dd45760405163126ec6d160e31b815260040160405180910390fd5b611ddd81612fdb565b611de9853386866130e2565b95945050505050565b60008281526022602090815260408083206001600160a01b0385168452600301909152902080546001909101545b9250929050565b6060600280548060200260200160405190810160405280929190818152602001828054801561153b5760200282019190600052602060002090815481526020019060010190808311611527575050505050905090565b60236020528160005260406000208181548110611e9957600080fd5b90600052602060002001600091509150505481565b6006805461132e90614d0c565b60276020526000908152604090208054600182015460028301546003840180546001600160a01b03909416949293919291611ef590614d0c565b80601f0160208091040260200160405190810160405280929190818152602001828054611f2190614d0c565b8015611f6e5780601f10611f4357610100808354040283529160200191611f6e565b820191906000526020600020905b815481529060010190602001808311611f5157829003601f168201915b5050505050905084565b600254600090611f8a90600190614ea5565b821115611faa576040516365d6f35160e11b815260040160405180910390fd5b60005b611fb8836001614e63565b811015612015576001611ff460028381548110611fd757611fd7614e76565b906000526020600020015460009081526023602052604090205490565b11156120035750600192915050565b8061200d81614e8c565b915050611fad565b50600092915050565b6060601b80548060200260200160405190810160405280929190818152602001828054801561153b576020028201919060005260206000209081546001600160a01b031681526001909101906020018083116117d5575050505050905090565b6015818154811061131057600080fd5b60008061209c600080612f0f565b600354909150156120d757336000908152601f602052604090205460ff166120d757604051631f22097560e01b815260040160405180910390fd5b6120e3610e2284614eb8565b60006120f66120f185614eb8565b613229565b905061210182612fdb565b9392505050565b805160005b8181101561220657600083828151811061212957612129614e76565b60209081029190910101516007549091506001600160a01b0316331480159061216957506000818152602760205260409020546001600160a01b03163314155b1561218f57604051635450763d60e11b8152600481018290526024015b60405180910390fd5b60008181526029602052604090205460ff166121f3576000818152602960205260408120805460ff191660019081179091556026805491820181559091527f744a2cf8fd7008e3d53b67916e73460df9fa5214e3ef23dd4259ca09493a3594018190555b50806121fe81614e8c565b91505061210d565b507f788a4349d25bc08585923ae212bce8bb346a623bce753eeecb85fd9ce58dcb4b8260405161223691906141e2565b60405180910390a15050565b60008181526022602090815260409182902060028101805484518185028101850190955280855260609492938301828280156122a757602002820191906000526020600020905b81546001600160a01b03168152600190910190602001808311612289575b5050505050915050919050565b6000818152602360205260408120546001146122e357604051633832a15560e21b815260040160405180910390fd5b6000828152602360205260408120805490919061230257612302614e76565b90600052602060002001549050919050565b60008181526028602090815260409182902080548351818402810184019094528084526060939283018282801561236a57602002820191906000526020600020905b815481526020019060010190808311612356575b50505050509050919050565b60185460009060ff161561238a5750600290565b42600854106123995750600090565b426123a2612b07565b106123ad5750600390565b426123b661177f565b106123c15750600190565b50600490565b6123cf613d8d565b600082815260196020908152604091829020825160c08101845281546001600160a01b0381168252600160a01b900460ff16151592810192909252600181018054929391929184019161242190614d0c565b80601f016020809104026020016040519081016040528092919081815260200182805461244d90614d0c565b801561249a5780601f1061246f5761010080835404028352916020019161249a565b820191906000526020600020905b81548152906001019060200180831161247d57829003601f168201915b5050509183525050604080516020818101835260028501546001600160a01b0316825280840191909152815160038501805460609381028301840185528285018181529490950194919390928492849184018282801561252357602002820191906000526020600020905b81546001600160a01b03168152600190910190602001808311612505575b50505050508152602001600182015481525050815260200160058201604051806060016040529081600082018054806020026020016040519081016040528092919081815260200182805480156125a357602002820191906000526020600020905b81546001600160a01b03168152600190910190602001808311612585575b5050505050815260200160018201805480602002602001604051908101604052809291908181526020016000905b8282101561267d5783829060005260206000200180546125f090614d0c565b80601f016020809104026020016040519081016040528092919081815260200182805461261c90614d0c565b80156126695780601f1061263e57610100808354040283529160200191612669565b820191906000526020600020905b81548152906001019060200180831161264c57829003601f168201915b5050505050815260200190600101906125d1565b505050508152602001600282018054806020026020016040519081016040528092919081815260200182805480156126d457602002820191906000526020600020905b8154815260200190600101908083116126c0575b5050509190925250505090525092915050565b60008181526023602090815260409182902080548351818402810184019094528084526060939283018282801561236a57602002820191906000526020600020908154815260200190600101908083116123565750505050509050919050565b60606000601680548060200260200160405190810160405280929190818152602001828054801561279757602002820191906000526020600020905b815481526020019060010190808311612783575b50505050509050600081516001600160401b038111156127b9576127b9614237565b6040519080825280602002602001820160405280156127e2578160200160208202803683370190505b50905060005b8251811015612870576019600084838151811061280757612807614e76565b6020026020010151815260200190815260200160002060000160009054906101000a90046001600160a01b031682828151811061284657612846614e76565b6001600160a01b03909216602092830291909101909101528061286881614e8c565b9150506127e8565b5092915050565b80516001600160a01b031633146128b557805160405163fbbf4d7f60e01b81526001600160a01b039091166004820152336024820152604401612186565b60005b6128c460026001614e63565b811015612a345760008160028111156128df576128df61489d565b905060008160028111156128f5576128f561489d565b036129005750612a22565b60018160028111156129145761291461489d565b0361296e57608083015151516000036129405760405163c3b2798b60e01b815260040160405180910390fd5b826080015160200151600003612969576040516392fb9a3560e01b815260040160405180910390fd5b612a20565b60028160028111156129825761298261489d565b03612a055760a08301515151600a10156129af57604051631e38b1b160e11b815260040160405180910390fd5b600a8360a00151602001515111156129da5760405163a3b7dd7760e01b815260040160405180910390fd5b600a8360a00151604001515111156129695760405163f696406560e01b815260040160405180910390fd5b8060405163d2277d4960e01b81526004016121869190614ec4565b505b80612a2c81614e8c565b9150506128b8565b50806040015151600003612a5b5760405163e182473360e01b815260040160405180910390fd5b50565b60008160405160200161192e91906148cd565b3373dc652c746a8f85e18ce632d97c6118e8a52fa73814612aa55760405163de07280160e01b815260040160405180910390fd5b6004612aaf612376565b6004811115612ac057612ac061489d565b1480612ae457506002612ad1612376565b6004811115612ae257612ae261489d565b145b15612b02576040516398fe99a560e01b815260040160405180910390fd5b600355565b60006009546008546117969190614e63565b6060602580548060200260200160405190810160405280929190818152602001828054801561153b5760200282019190600052602060002090815481526020019060010190808311611527575050505050905090565b6007546001600160a01b03163314801590612b9e57503373dc652c746a8f85e18ce632d97c6118e8a52fa73814155b15612bbc576040516301dbf46f60e71b815260040160405180910390fd5b6000612bc6612376565b90506002816004811115612bdc57612bdc61489d565b03612bfa57604051636f79584d60e01b815260040160405180910390fd5b6018805460ff191660011790556040517f4cd963a081760a54f571abc0f1db4dde31b4a07d8d6da3e844b8c6f47eeaaa4290600090a150565b6060601580548060200260200160405190810160405280929190818152602001828054801561153b5760200282019190600052602060002090815481526020019060010190808311611527575050505050905090565b6007546001600160a01b03163314612cb45760405163b8d4540960e01b815260040160405180910390fd5b6004612cbe612376565b6004811115612ccf57612ccf61489d565b1480612cf357506002612ce0612376565b6004811115612cf157612cf161489d565b145b15612d1157604051631e71d28360e21b815260040160405180910390fd5b60005b81811015612db6576000838383818110612d3057612d30614e76565b60209081029290920135600081815260179093526040909220549192505060ff16612da3576000818152601760205260408120805460ff191660019081179091556016805491820181559091527fd833147d7dc355ba459fc788f669e58cfaf9dc25ddcd0702e87d69c7b5124289018190555b5080612dae81614e8c565b915050612d14565b50600d54158015612dc957506000546001145b15612dd857612dd88282613500565b7f75a75cf5c561892f4cc5b26c1b8e933849b42238c96dd073d080d1ae96c5141660156040516122369190614ed8565b6007546001600160a01b03163314612e3357604051630f4cb1bd60e11b815260040160405180910390fd5b602480546001600160a01b038381166001600160a01b031983168117909355604080519190921680825260208201939093527f753a2cf8d360cff631674504210913e48247f8e56b3e6d2006c2103d4095999f9101612236565b6025818154811061131057600080fd5b60286020528160005260406000208181548110611e9957600080fd5b600080612ec7600080612f0f565b9050612ed4338585611710565b612ee0610e2286614eb8565b6000612eee6120f187614eb8565b9050611de982612fdb565b600082612f06858461355d565b14949350505050565b60008080846001811115612f2557612f2561489d565b03612f335750600f54612fb2565b6001846001811115612f4757612f4761489d565b03612fae57601154600103612fa557670de0b6b3a7640000831015612f7f576040516346ddb8d160e01b815260040160405180910390fd5b612f91670de0b6b3a764000084614f13565b601054612f9e9190614f35565b9050612fb2565b50601054612fb2565b5060005b803414612101576040516372c3eaa760e01b815234600482015260248101829052604401612186565b8015612a5b5760006064600e546064612ff49190614ea5565b612ffe9034614f35565b6130089190614f13565b9050801561306d57601354613026906001600160a01b0316826135aa565b601354604080516001600160a01b039092168252602082018390527f9df63d1c00d2e332f573be591c0579caafb256b2c5a17abcc8ad471cccda1b81910160405180910390a15b60006130798234614ea5565b9050801561177a57601254613097906001600160a01b0316826135aa565b600754604080516001600160a01b039092168252602082018390527f6dff55337c8458ae8c536a63869a48bc33541733422a796390c131d91f4238ed910160405180910390a1505050565b600060016130ee612376565b60048111156130ff576130ff61489d565b146131265761310c612376565b60405163049cab4960e51b815260040161218691906148b3565b816000036131475760405163502e1c2960e01b815260040160405180910390fd5b61317985858585601d60008a6001600160a01b03166001600160a01b03168152602001908152602001600020546136c3565b601c80546001810182556000919091527f0e4562a10381dec21b205ed72637e6b1b523bdd0e4d4d50af5cd23dd4500a2110180546001600160a01b031916331790556040805186815260ff851660208201529081018390526001600160a01b038516907f2c9deb38f462962eadbd85a9d3a4120503ee091f1582eaaa10aa8c6797651d299060600160405180910390a25050506001600160a01b03166000908152601d6020526040902054919050565b60006003613235612376565b60048111156132465761324661489d565b1461326d57613253612376565b604051632889531360e01b815260040161218691906148b3565b600b54336000908152601a6020526040902054036132a457600b54604051632bd6d93960e21b815260040161218691815260200190565b600c546016546015546132b79190614ea5565b036132db57600c546040516302217f5360e51b815260040161218691815260200190565b60006132e683612a5e565b600081815260196020526040902054909150600160a01b900460ff16156133235760405163baffc42360e01b815260048101829052602401612186565b6015805460018181019092557f55f448fdea98c4d29eb340757ef0a66cd03dbb9538908a6a81d96026b71ec4750182905560008281526019602090815260409182902086518154928801511515600160a01b026001600160a81b03199093166001600160a01b03909116179190911781559085015185928201906133a79082614d8e565b506060820151516002820180546001600160a01b0319166001600160a01b0390921691909117905560808201518051805160038401916133ec91839160200190613e27565b5060209182015160019091015560a083015180518051919260058501926134169284920190613e27565b50602082810151805161342f9260018501920190613e8c565b506040820151805161344b916002840191602090910190613ede565b5050336000908152601a60205260408120805460019550909350909150613473908490614e63565b9091555050601b80546001810182556000919091527f3ad8aa4f87544323a9d1e5dd902f40c356527a7955687113db5f9a85ad579dc10180546001600160a01b0319163390811790915560408085015190517f7585f467599d0f008985f231af99293be388626ac16ca59505c2f8f88969cd63926134f2928592614f4c565b60405180910390a192915050565b60005b8181101561177a57600083838381811061351f5761351f614e76565b602090810292909201356000818152602290935260409092205491925061354890508282613938565b5050808061355590614e8c565b915050613503565b600081815b84518110156135a25761358e8286838151811061358157613581614e76565b6020026020010151613a69565b91508061359a81614e8c565b915050613562565b509392505050565b804710156135fa5760405162461bcd60e51b815260206004820152601d60248201527f416464726573733a20696e73756666696369656e742062616c616e63650000006044820152606401612186565b6000826001600160a01b03168260405160006040518083038185875af1925050503d8060008114613647576040519150601f19603f3d011682016040523d82523d6000602084013e61364c565b606091505b505090508061177a5760405162461bcd60e51b815260206004820152603a60248201527f416464726573733a20756e61626c6520746f2073656e642076616c75652c207260448201527f6563697069656e74206d617920686176652072657665727465640000000000006064820152608401612186565b60008581526022602052604090206004541580159061370357506001600160a01b0385166000908152602160205260409020546137009083614ea5565b83115b156137215760405163660fa07360e11b815260040160405180910390fd5b6001600160a01b038516600090815260038201602052604081205415801561376457506001600160a01b0386166000908152600383016020526040902060010154155b905060ff85166137bc57815484908390600090613782908490614e63565b90915550506001600160a01b0386166000908152600383016020526040812080548692906137b1908490614e63565b9091555061384d9050565b60001960ff86160161383457600d546001146137eb57604051639755958f60e01b815260040160405180910390fd5b838260000160010160008282546138029190614e63565b90915550506001600160a01b0386166000908152600383016020526040812060010180548692906137b1908490614e63565b604051638eed55d160e01b815260040160405180910390fd5b801561388457600282018054600181018255600091825260209091200180546001600160a01b0319166001600160a01b0388161790555b6001600160a01b038616600090815260216020526040812080548692906138ac908490614e63565b9250508190555083602060008282546138c59190614e63565b9091555050600d541580156138dc57506000546001145b1561392f57815460006138ef8683614ea5565b90508015613901576139018982613938565b60008281526023602090815260408220805460018101825590835291200189905561392c8183613a98565b50505b50505050505050565b60008181526023602090815260408083208054825181850281018501909352808352919290919083018282801561398e57602002820191906000526020600020905b81548152602001906001019080831161397a575b5050505050905060005b8151811015611b4e57838282815181106139b4576139b4614e76565b602002602001015103613a575781600183516139d09190614ea5565b815181106139e0576139e0614e76565b6020026020010151602360008581526020019081526020016000208281548110613a0c57613a0c614e76565b906000526020600020018190555060236000848152602001908152602001600020805480613a3c57613a3c614f76565b60019003818190600052602060002001600090559055611b4e565b80613a6181614e8c565b915050613998565b6000818310613a85576000828152602084905260409020612101565b6000838152602083905260409020612101565b60028054604080516020808402820181019092528281529192600092918490830182828015613ae657602002820191906000526020600020905b815481526020019060010190808311613ad2575b5050505050905081600003613b2d575050600280546001810182556000919091527f405787fa12a823e0f2b7631cc41b3ba8828b3321ca811111fa75cd3aa3bb5ace015550565b80613b39600184614ea5565b81518110613b4957613b49614e76565b6020026020010151831015613b9f576001548203613b675750505050565b5050600280546001810182556000919091527f405787fa12a823e0f2b7631cc41b3ba8828b3321ca811111fa75cd3aa3bb5ace015550565b611b4e848484846000805b83811015613c1457828181518110613bc457613bc4614e76565b60200260200101518503613bd9575050611b4e565b828181518110613beb57613beb614e76565b6020026020010151851115613c0257809150613c14565b80613c0c81614e8c565b915050613baa565b5060008086118015613c325750600086815260236020526040902054155b90506000818015613c5b575086848481518110613c5157613c51614e76565b6020026020010151145b613d6457613c6a600186614ea5565b8314613d12576000613c7d846001614e63565b90505b85811015613d105784613c94600183614ea5565b81518110613ca457613ca4614e76565b602002602001015160028281548110613cbf57613cbf614e76565b600091825260209091200155828015613cf0575087858281518110613ce657613ce6614e76565b6020026020010151145b15613cfe5760019150613d10565b80613d0881614e8c565b915050613c80565b505b80158015613d21575060015485105b15613d6457600284613d34600188614ea5565b81518110613d4457613d44614e76565b602090810291909101810151825460018101845560009384529190922001555b8560028481548110613d7857613d78614e76565b60009182526020909120015550505050505050565b6040518060c0016040528060006001600160a01b0316815260200160001515815260200160608152602001613dd7604051806020016040528060006001600160a01b031681525090565b8152602001613df9604051806040016040528060608152602001600081525090565b8152602001613e2260405180606001604052806060815260200160608152602001606081525090565b905290565b828054828255906000526020600020908101928215613e7c579160200282015b82811115613e7c57825182546001600160a01b0319166001600160a01b03909116178255602090920191600190910190613e47565b50613e88929150613f19565b5090565b828054828255906000526020600020908101928215613ed2579160200282015b82811115613ed25782518290613ec29082614d8e565b5091602001919060010190613eac565b50613e88929150613f2e565b828054828255906000526020600020908101928215613e7c579160200282015b82811115613e7c578251825591602001919060010190613efe565b5b80821115613e885760008155600101613f1a565b80821115613e88576000613f428282613f4b565b50600101613f2e565b508054613f5790614d0c565b6000825580601f10613f67575050565b601f016020900490600052602060002090810190612a5b9190613f19565b600060208284031215613f9757600080fd5b5035919050565b6000815180845260005b81811015613fc457602081850181015186830182015201613fa8565b506000602082860101526020601f19601f83011685010191505092915050565b600081518084526020808501945080840160005b8381101561401d5781516001600160a01b031687529582019590820190600101613ff8565b509495945050505050565b600081516040845261403d6040850182613fe4565b602093840151949093019390935250919050565b600081518084526020808501945080840160005b8381101561401d57815187529582019590820190600101614065565b60008151606084526140966060850182613fe4565b9050602080840151858303828701528281518085528385019150838160051b860101848401935060005b828110156140ee57601f198783030184526140dc828651613f9e565b948601949386019391506001016140c0565b506040880151955088810360408a01526141088187614051565b9998505050505050505050565b600060018060a01b038089168352871515602084015260c0604084015261413f60c0840188613f9e565b818751166060850152838103608085015261415a8187614028565b91505082810360a08401526141088185614081565b6020815260006121016020830184613f9e565b81518152602080830151908201526040810161170a565b6020815260018060a01b0382511660208201526020820151604082015260408201516060820152600060608301516080808401526141da60a0840182613f9e565b949350505050565b6020815260006121016020830184614051565b6001600160a01b0381168114612a5b57600080fd5b8035614215816141f5565b919050565b60006020828403121561422c57600080fd5b8135612101816141f5565b634e487b7160e01b600052604160045260246000fd5b604051606081016001600160401b038111828210171561426f5761426f614237565b60405290565b60405160c081016001600160401b038111828210171561426f5761426f614237565b604051601f8201601f191681016001600160401b03811182821017156142bf576142bf614237565b604052919050565b600082601f8301126142d857600080fd5b81356001600160401b038111156142f1576142f1614237565b614304601f8201601f1916602001614297565b81815284602083860101111561431957600080fd5b816020850160208301376000918101602001919091529392505050565b6000806040838503121561434957600080fd5b8235915060208301356001600160401b0381111561436657600080fd5b614372858286016142c7565b9150509250929050565b60008083601f84011261438e57600080fd5b5081356001600160401b038111156143a557600080fd5b6020830191508360208260051b8501011115611e2057600080fd5b6000806000604084860312156143d557600080fd5b83356143e0816141f5565b925060208401356001600160401b038111156143fb57600080fd5b6144078682870161437c565b9497909650939450505050565b6020808252825182820181905260009190848201906040850190845b818110156144555783516001600160a01b031683529284019291840191600101614430565b50909695505050505050565b8035801515811461421557600080fd5b60008060008060006080868803121561448957600080fd5b8535614494816141f5565b94506020860135935060408601356001600160401b038111156144b657600080fd5b6144c28882890161437c565b90945092506144d5905060608701614461565b90509295509295909350565b6000602082840312156144f357600080fd5b81356001600160401b038082111561450a57600080fd5b908301906080828603121561451e57600080fd5b60405160808101818110838211171561453957614539614237565b6040528235614547816141f5565b80825250602083013560208201526040830135604082015260608301358281111561457157600080fd5b61457d878286016142c7565b60608301525095945050505050565b803560ff8116811461421557600080fd5b60008060008060008060a087890312156145b657600080fd5b863595506145c66020880161458c565b9450604087013593506060870135925060808701356001600160401b038111156145ef57600080fd5b6145fb89828a0161437c565b979a9699509497509295939492505050565b6000604080835261462081840186614051565b83810360208581019190915285518083528682019282019060005b818110156146685761465883865180518252602090810151910152565b938301939185019160010161463b565b509098975050505050505050565b6000806000806060858703121561468c57600080fd5b8435614697816141f5565b93506020850135925060408501356001600160401b038111156146b957600080fd5b6146c58782880161437c565b95989497509550505050565b6000806000606084860312156146e657600080fd5b833592506146f66020850161458c565b9150604084013590509250925092565b6000806040838503121561471957600080fd5b82359150602083013561472b816141f5565b809150509250929050565b6000806040838503121561474957600080fd5b50508035926020909101359150565b60018060a01b03851681528360208201528260408201526080606082015260006147856080830184613f9e565b9695505050505050565b600060c082840312156147a157600080fd5b50919050565b6000602082840312156147b957600080fd5b81356001600160401b038111156147cf57600080fd5b6141da8482850161478f565b60006001600160401b038211156147f4576147f4614237565b5060051b60200190565b600082601f83011261480f57600080fd5b8135602061482461481f836147db565b614297565b82815260059290921b8401810191818101908684111561484357600080fd5b8286015b8481101561485e5780358352918301918301614847565b509695505050505050565b60006020828403121561487b57600080fd5b81356001600160401b0381111561489157600080fd5b6141da848285016147fe565b634e487b7160e01b600052602160045260246000fd5b60208101600583106148c7576148c761489d565b91905290565b60208152600060018060a01b03808451166020840152602084015115156040840152604084015160c0606085015261490860e0850182613f9e565b90508160608601515116608085015260808501519150601f19808583030160a08601526149358284614028565b925060a08601519150808584030160c086015250611de98282614081565b60006020828403121561496557600080fd5b604051602081018181106001600160401b038211171561498757614987614237565b6040529050808235614998816141f5565b905292915050565b600082601f8301126149b157600080fd5b813560206149c161481f836147db565b82815260059290921b840181019181810190868411156149e057600080fd5b8286015b8481101561485e5780356149f7816141f5565b83529183019183016149e4565b600060408284031215614a1657600080fd5b604051604081016001600160401b038282108183111715614a3957614a39614237565b816040528293508435915080821115614a5157600080fd5b50614a5e858286016149a0565b825250602083013560208201525092915050565b600060608284031215614a8457600080fd5b614a8c61424d565b905081356001600160401b0380821115614aa557600080fd5b614ab1858386016149a0565b8352602091508184013581811115614ac857600080fd5b8401601f81018613614ad957600080fd5b8035614ae761481f826147db565b81815260059190911b82018401908481019088831115614b0657600080fd5b8584015b83811015614b3e57803586811115614b225760008081fd5b614b308b89838901016142c7565b845250918601918601614b0a565b508086880152505050506040840135915080821115614b5c57600080fd5b50614b69848285016147fe565b60408301525092915050565b600060c08284031215614b8757600080fd5b614b8f614275565b9050614b9a8261420a565b8152614ba860208301614461565b602082015260408201356001600160401b0380821115614bc757600080fd5b614bd3858386016142c7565b6040840152614be58560608601614953565b60608401526080840135915080821115614bfe57600080fd5b614c0a85838601614a04565b608084015260a0840135915080821115614c2357600080fd5b50614c3084828501614a72565b60a08301525092915050565b600060208284031215614c4e57600080fd5b81356001600160401b03811115614c6457600080fd5b6141da84828501614b75565b60008060208385031215614c8357600080fd5b82356001600160401b03811115614c9957600080fd5b614ca58582860161437c565b90969095509350505050565b600080600060408486031215614cc657600080fd5b83356001600160401b0380821115614cdd57600080fd5b614ce98783880161478f565b94506020860135915080821115614cff57600080fd5b506144078682870161437c565b600181811c90821680614d2057607f821691505b6020821081036147a157634e487b7160e01b600052602260045260246000fd5b601f82111561177a57600081815260208120601f850160051c81016020861015614d675750805b601f850160051c820191505b81811015614d8657828155600101614d73565b505050505050565b81516001600160401b03811115614da757614da7614237565b614dbb81614db58454614d0c565b84614d40565b602080601f831160018114614df05760008415614dd85750858301515b600019600386901b1c1916600185901b178555614d86565b600085815260208120601f198616915b82811015614e1f57888601518255948401946001909101908401614e00565b5085821015614e3d5787850151600019600388901b60f8161c191681555b5050505050600190811b01905550565b634e487b7160e01b600052601160045260246000fd5b8082018082111561170a5761170a614e4d565b634e487b7160e01b600052603260045260246000fd5b600060018201614e9e57614e9e614e4d565b5060010190565b8181038181111561170a5761170a614e4d565b600061170a3683614b75565b60208101600383106148c7576148c761489d565b6020808252825482820181905260008481528281209092916040850190845b8181101561445557835483526001938401939285019201614ef7565b600082614f3057634e487b7160e01b600052601260045260246000fd5b500490565b808202811582820484141761170a5761170a614e4d565b8381526001600160a01b0383166020820152606060408201819052600090611de990830184613f9e565b634e487b7160e01b600052603160045260246000fdfea2646970667358221220ca65dc4df782810f3b2446949a961894eeb141ba020da8bc308cea9329cfdb4f64736f6c63430008130033","linkReferences":{}},"methodIdentifiers":{"AMOUNT_FOR_SUMBITTER_PROOF()":"347cf665","JK_LABS_ADDRESS()":"eef18e17","MAX_FIELDS_METADATA_LENGTH()":"b382543f","METADATAS_COUNT()":"4d24a67f","addressSubmitterVerified(address)":"cb853950","addressTotalCastVoteCounts(address)":"a1ac6cb2","addressTotalVotes(address)":"dea5f6a6","addressTotalVotesVerified(address)":"930de979","addressesThatHaveVoted(uint256)":"50c4b616","allProposalTotalVotes()":"50a5e524","cancel()":"ea8a1af0","canceled()":"3f9942ff","castVote(uint256,uint8,uint256,uint256,bytes32[])":"419c533c","castVoteWithoutProof(uint256,uint8,uint256)":"65f16263","checkProof(address,uint256,bytes32[],bool)":"32763c22","comment(uint256,string)":"1805c523","commentIds(uint256)":"f5c36411","commentIsDeleted(uint256)":"ae66b8ad","comments(uint256)":"8ebb4c15","contestAddressTotalVotesCast(address)":"aec116b6","contestDeadline()":"262e59e9","contestStart()":"004114a8","costToPropose()":"6ed815ad","costToVote()":"51a41dec","creator()":"02d05d3f","creatorSplitDestination()":"4a587ad4","deleteComments(uint256[])":"ac67f801","deleteProposals(uint256[])":"f0a7db0a","deletedCommentIds(uint256)":"3fb57c92","deletedProposalIds(uint256)":"05846cae","downvotingAllowed()":"60506ff6","forVotesToProposalIds(uint256,uint256)":"711effc8","getAllAddressesThatHaveVoted()":"2c39805f","getAllAuthorsOfDeletedProposals()":"cbdc27cb","getAllCommentIds()":"e11db9d8","getAllDeletedCommentIds()":"5cb718a1","getAllDeletedProposalIds()":"1242b737","getAllProposalAuthors()":"946369b5","getAllProposalIds()":"efa90d36","getComment(uint256)":"0800e300","getNumProposalsWithThisManyForVotes(uint256)":"9ba197af","getOnlyProposalIdWithThisManyForVotes(uint256)":"b66d1da3","getProposal(uint256)":"c7f758a8","getProposalComments(uint256)":"c05f4104","getProposalsWithThisManyForVotes(uint256)":"c9a1b6b2","getRankIndex(uint256)":"5c7107d8","getSortedRanks()":"6fd3636b","hashComment((address,uint256,uint256,string))":"409fd030","hashProposal((address,bool,string,(address),(address[],uint256),(address[],string[],uint256[])))":"d7989025","isOrIsBelowTiedRank(uint256)":"9174778c","jkLabsSplitDestination()":"102613d8","maxProposalCount()":"fb9bf8d4","metadataFieldsSchema()":"60ed97a9","name()":"06fdde03","numAllowedProposalSubmissions()":"832009af","numSubmissions(address)":"75e509c5","officialRewardsModule()":"785ddfe5","payPerVote()":"03f7eed6","percentageToCreator()":"edcd1be4","prompt()":"7c65d711","proposalAddressVotes(uint256,address)":"6e4eb810","proposalAddressesHaveVoted(uint256)":"b323580d","proposalAuthors(uint256)":"0aa25e44","proposalComments(uint256,uint256)":"f61736f4","proposalIds(uint256)":"9b644a23","proposalIsDeleted(uint256)":"f79c0172","proposalVotes(uint256)":"544ffc9c","proposalVotesStructs(uint256)":"070dc5d9","proposals(uint256)":"013cf08b","propose((address,bool,string,(address),(address[],uint256),(address[],string[],uint256[])),bytes32[])":"f823f110","proposeWithoutProof((address,bool,string,(address),(address[],uint256),(address[],string[],uint256[])))":"ab5e6947","rankLimit()":"0414126a","setCreatorSplitDestination(address)":"146230f6","setOfficialRewardsModule(address)":"f4f3d7ec","setSubmissionMerkleRoot(bytes32)":"daf762db","setVotingMerkleRoot(bytes32)":"544c7bb4","sortedRanks(uint256)":"325cc6d9","sortingEnabled()":"366ecf5b","state()":"c19d93fb","submissionMerkleRoot()":"bddc1641","totalVotesCast()":"7de418d5","validateProposalData((address,bool,string,(address),(address[],uint256),(address[],string[],uint256[])))":"d140d9f0","verifyProposer(address,bytes32[])":"20b3e845","verifyVoter(address,uint256,bytes32[])":"531bd812","version()":"54fd4d50","voteStart()":"e031535b","votingDelay()":"3932abb1","votingMerkleRoot()":"dd96a19d","votingPeriod()":"02a251a3"},"id":34}