{
  "abi": [
    {
      "inputs": [
        {
          "internalType": "string",
          "name": "_name",
          "type": "string"
        },
        {
          "internalType": "string",
          "name": "_prompt",
          "type": "string"
        },
        {
          "internalType": "bytes32",
          "name": "_submissionMerkleRoot",
          "type": "bytes32"
        },
        {
          "internalType": "bytes32",
          "name": "_votingMerkleRoot",
          "type": "bytes32"
        },
        {
          "internalType": "uint256[]",
          "name": "_constructorIntParams",
          "type": "uint256[]"
        }
      ],
      "stateMutability": "nonpayable",
      "type": "constructor"
    },
    {
      "inputs": [],
      "name": "InvalidShortString",
      "type": "error"
    },
    {
      "inputs": [],
      "name": "NotInMerkle",
      "type": "error"
    },
    {
      "inputs": [
        {
          "internalType": "string",
          "name": "str",
          "type": "string"
        }
      ],
      "name": "StringTooLong",
      "type": "error"
    },
    {
      "inputs": [],
      "name": "TooManyMetadatas",
      "type": "error"
    },
    {
      "anonymous": false,
      "inputs": [],
      "name": "ContestCanceled",
      "type": "event"
    },
    {
      "anonymous": false,
      "inputs": [
        {
          "indexed": false,
          "internalType": "uint256",
          "name": "oldContestStart",
          "type": "uint256"
        },
        {
          "indexed": false,
          "internalType": "uint256",
          "name": "newContestStart",
          "type": "uint256"
        }
      ],
      "name": "ContestStartSet",
      "type": "event"
    },
    {
      "anonymous": false,
      "inputs": [
        {
          "indexed": false,
          "internalType": "address",
          "name": "oldCreator",
          "type": "address"
        },
        {
          "indexed": false,
          "internalType": "address",
          "name": "newCreator",
          "type": "address"
        }
      ],
      "name": "CreatorSet",
      "type": "event"
    },
    {
      "anonymous": false,
      "inputs": [
        {
          "indexed": false,
          "internalType": "uint256",
          "name": "oldDownvotingAllowed",
          "type": "uint256"
        },
        {
          "indexed": false,
          "internalType": "uint256",
          "name": "newDownvotingAllowed",
          "type": "uint256"
        }
      ],
      "name": "DownvotingAllowedSet",
      "type": "event"
    },
    {
      "anonymous": false,
      "inputs": [],
      "name": "EIP712DomainChanged",
      "type": "event"
    },
    {
      "anonymous": false,
      "inputs": [
        {
          "indexed": false,
          "internalType": "uint256",
          "name": "oldMaxProposalCount",
          "type": "uint256"
        },
        {
          "indexed": false,
          "internalType": "uint256",
          "name": "newMaxProposalCount",
          "type": "uint256"
        }
      ],
      "name": "MaxProposalCountSet",
      "type": "event"
    },
    {
      "anonymous": false,
      "inputs": [
        {
          "indexed": false,
          "internalType": "uint256",
          "name": "oldNumAllowedProposalSubmissions",
          "type": "uint256"
        },
        {
          "indexed": false,
          "internalType": "uint256",
          "name": "newNumAllowedProposalSubmissions",
          "type": "uint256"
        }
      ],
      "name": "NumAllowedProposalSubmissionsSet",
      "type": "event"
    },
    {
      "anonymous": false,
      "inputs": [
        {
          "indexed": false,
          "internalType": "contract RewardsModule",
          "name": "oldOfficialRewardsModule",
          "type": "address"
        },
        {
          "indexed": false,
          "internalType": "contract RewardsModule",
          "name": "newOfficialRewardsModule",
          "type": "address"
        }
      ],
      "name": "OfficialRewardsModuleSet",
      "type": "event"
    },
    {
      "anonymous": false,
      "inputs": [
        {
          "indexed": false,
          "internalType": "uint256",
          "name": "proposalId",
          "type": "uint256"
        },
        {
          "indexed": false,
          "internalType": "address",
          "name": "proposer",
          "type": "address"
        }
      ],
      "name": "ProposalCreated",
      "type": "event"
    },
    {
      "anonymous": false,
      "inputs": [
        {
          "indexed": false,
          "internalType": "uint256[]",
          "name": "proposalIds",
          "type": "uint256[]"
        }
      ],
      "name": "ProposalsDeleted",
      "type": "event"
    },
    {
      "anonymous": false,
      "inputs": [
        {
          "indexed": true,
          "internalType": "address",
          "name": "voter",
          "type": "address"
        },
        {
          "indexed": false,
          "internalType": "uint256",
          "name": "proposalId",
          "type": "uint256"
        },
        {
          "indexed": false,
          "internalType": "uint8",
          "name": "support",
          "type": "uint8"
        },
        {
          "indexed": false,
          "internalType": "uint256",
          "name": "numVotes",
          "type": "uint256"
        }
      ],
      "name": "VoteCast",
      "type": "event"
    },
    {
      "anonymous": false,
      "inputs": [
        {
          "indexed": false,
          "internalType": "uint256",
          "name": "oldVotingDelay",
          "type": "uint256"
        },
        {
          "indexed": false,
          "internalType": "uint256",
          "name": "newVotingDelay",
          "type": "uint256"
        }
      ],
      "name": "VotingDelaySet",
      "type": "event"
    },
    {
      "anonymous": false,
      "inputs": [
        {
          "indexed": false,
          "internalType": "uint256",
          "name": "oldVotingPeriod",
          "type": "uint256"
        },
        {
          "indexed": false,
          "internalType": "uint256",
          "name": "newVotingPeriod",
          "type": "uint256"
        }
      ],
      "name": "VotingPeriodSet",
      "type": "event"
    },
    {
      "inputs": [],
      "name": "AMOUNT_FOR_SUMBITTER_PROOF",
      "outputs": [
        {
          "internalType": "uint256",
          "name": "",
          "type": "uint256"
        }
      ],
      "stateMutability": "view",
      "type": "function"
    },
    {
      "inputs": [],
      "name": "METADATAS_COUNT",
      "outputs": [
        {
          "internalType": "uint256",
          "name": "",
          "type": "uint256"
        }
      ],
      "stateMutability": "view",
      "type": "function"
    },
    {
      "inputs": [
        {
          "internalType": "address",
          "name": "",
          "type": "address"
        }
      ],
      "name": "addressSubmitterVerified",
      "outputs": [
        {
          "internalType": "bool",
          "name": "",
          "type": "bool"
        }
      ],
      "stateMutability": "view",
      "type": "function"
    },
    {
      "inputs": [
        {
          "internalType": "address",
          "name": "",
          "type": "address"
        }
      ],
      "name": "addressTotalCastVoteCounts",
      "outputs": [
        {
          "internalType": "uint256",
          "name": "",
          "type": "uint256"
        }
      ],
      "stateMutability": "view",
      "type": "function"
    },
    {
      "inputs": [
        {
          "internalType": "address",
          "name": "",
          "type": "address"
        }
      ],
      "name": "addressTotalVotes",
      "outputs": [
        {
          "internalType": "uint256",
          "name": "",
          "type": "uint256"
        }
      ],
      "stateMutability": "view",
      "type": "function"
    },
    {
      "inputs": [
        {
          "internalType": "address",
          "name": "",
          "type": "address"
        }
      ],
      "name": "addressTotalVotesVerified",
      "outputs": [
        {
          "internalType": "bool",
          "name": "",
          "type": "bool"
        }
      ],
      "stateMutability": "view",
      "type": "function"
    },
    {
      "inputs": [],
      "name": "allProposalTotalVotes",
      "outputs": [
        {
          "internalType": "uint256[]",
          "name": "proposalIdsReturn",
          "type": "uint256[]"
        },
        {
          "components": [
            {
              "internalType": "uint256",
              "name": "forVotes",
              "type": "uint256"
            },
            {
              "internalType": "uint256",
              "name": "againstVotes",
              "type": "uint256"
            }
          ],
          "internalType": "struct GovernorCountingSimple.VoteCounts[]",
          "name": "proposalVoteCountsArrayReturn",
          "type": "tuple[]"
        }
      ],
      "stateMutability": "view",
      "type": "function"
    },
    {
      "inputs": [],
      "name": "allProposalTotalVotesWithoutDeleted",
      "outputs": [
        {
          "internalType": "uint256[]",
          "name": "proposalIdsReturn",
          "type": "uint256[]"
        },
        {
          "components": [
            {
              "internalType": "uint256",
              "name": "forVotes",
              "type": "uint256"
            },
            {
              "internalType": "uint256",
              "name": "againstVotes",
              "type": "uint256"
            }
          ],
          "internalType": "struct GovernorCountingSimple.VoteCounts[]",
          "name": "proposalVoteCountsArrayReturn",
          "type": "tuple[]"
        }
      ],
      "stateMutability": "view",
      "type": "function"
    },
    {
      "inputs": [],
      "name": "cancel",
      "outputs": [],
      "stateMutability": "nonpayable",
      "type": "function"
    },
    {
      "inputs": [
        {
          "internalType": "uint256",
          "name": "proposalId",
          "type": "uint256"
        },
        {
          "internalType": "uint8",
          "name": "support",
          "type": "uint8"
        },
        {
          "internalType": "uint256",
          "name": "totalVotes",
          "type": "uint256"
        },
        {
          "internalType": "uint256",
          "name": "numVotes",
          "type": "uint256"
        },
        {
          "internalType": "bytes32[]",
          "name": "proof",
          "type": "bytes32[]"
        }
      ],
      "name": "castVote",
      "outputs": [
        {
          "internalType": "uint256",
          "name": "",
          "type": "uint256"
        }
      ],
      "stateMutability": "nonpayable",
      "type": "function"
    },
    {
      "inputs": [
        {
          "internalType": "uint256",
          "name": "proposalId",
          "type": "uint256"
        },
        {
          "internalType": "uint8",
          "name": "support",
          "type": "uint8"
        },
        {
          "internalType": "uint256",
          "name": "numVotes",
          "type": "uint256"
        }
      ],
      "name": "castVoteWithoutProof",
      "outputs": [
        {
          "internalType": "uint256",
          "name": "",
          "type": "uint256"
        }
      ],
      "stateMutability": "nonpayable",
      "type": "function"
    },
    {
      "inputs": [
        {
          "internalType": "address",
          "name": "addressToCheck",
          "type": "address"
        },
        {
          "internalType": "uint256",
          "name": "amount",
          "type": "uint256"
        },
        {
          "internalType": "bytes32[]",
          "name": "proof",
          "type": "bytes32[]"
        },
        {
          "internalType": "bool",
          "name": "voting",
          "type": "bool"
        }
      ],
      "name": "checkProof",
      "outputs": [
        {
          "internalType": "bool",
          "name": "verified",
          "type": "bool"
        }
      ],
      "stateMutability": "view",
      "type": "function"
    },
    {
      "inputs": [
        {
          "internalType": "address",
          "name": "userAddress",
          "type": "address"
        }
      ],
      "name": "contestAddressTotalVotesCast",
      "outputs": [
        {
          "internalType": "uint256",
          "name": "userTotalVotesCast",
          "type": "uint256"
        }
      ],
      "stateMutability": "view",
      "type": "function"
    },
    {
      "inputs": [],
      "name": "contestDeadline",
      "outputs": [
        {
          "internalType": "uint256",
          "name": "",
          "type": "uint256"
        }
      ],
      "stateMutability": "view",
      "type": "function"
    },
    {
      "inputs": [],
      "name": "contestStart",
      "outputs": [
        {
          "internalType": "uint256",
          "name": "",
          "type": "uint256"
        }
      ],
      "stateMutability": "view",
      "type": "function"
    },
    {
      "inputs": [],
      "name": "creator",
      "outputs": [
        {
          "internalType": "address",
          "name": "",
          "type": "address"
        }
      ],
      "stateMutability": "view",
      "type": "function"
    },
    {
      "inputs": [
        {
          "internalType": "uint256[]",
          "name": "proposalIds",
          "type": "uint256[]"
        }
      ],
      "name": "deleteProposals",
      "outputs": [],
      "stateMutability": "nonpayable",
      "type": "function"
    },
    {
      "inputs": [],
      "name": "downvotingAllowed",
      "outputs": [
        {
          "internalType": "uint256",
          "name": "",
          "type": "uint256"
        }
      ],
      "stateMutability": "view",
      "type": "function"
    },
    {
      "inputs": [],
      "name": "eip712Domain",
      "outputs": [
        {
          "internalType": "bytes1",
          "name": "fields",
          "type": "bytes1"
        },
        {
          "internalType": "string",
          "name": "name",
          "type": "string"
        },
        {
          "internalType": "string",
          "name": "version",
          "type": "string"
        },
        {
          "internalType": "uint256",
          "name": "chainId",
          "type": "uint256"
        },
        {
          "internalType": "address",
          "name": "verifyingContract",
          "type": "address"
        },
        {
          "internalType": "bytes32",
          "name": "salt",
          "type": "bytes32"
        },
        {
          "internalType": "uint256[]",
          "name": "extensions",
          "type": "uint256[]"
        }
      ],
      "stateMutability": "view",
      "type": "function"
    },
    {
      "inputs": [],
      "name": "getAllDeletedProposalIds",
      "outputs": [
        {
          "internalType": "uint256[]",
          "name": "",
          "type": "uint256[]"
        }
      ],
      "stateMutability": "view",
      "type": "function"
    },
    {
      "inputs": [],
      "name": "getAllProposalAuthors",
      "outputs": [
        {
          "internalType": "address[]",
          "name": "",
          "type": "address[]"
        }
      ],
      "stateMutability": "view",
      "type": "function"
    },
    {
      "inputs": [],
      "name": "getAllProposalIds",
      "outputs": [
        {
          "internalType": "uint256[]",
          "name": "",
          "type": "uint256[]"
        }
      ],
      "stateMutability": "view",
      "type": "function"
    },
    {
      "inputs": [
        {
          "internalType": "address",
          "name": "account",
          "type": "address"
        }
      ],
      "name": "getNumSubmissions",
      "outputs": [
        {
          "internalType": "uint256",
          "name": "",
          "type": "uint256"
        }
      ],
      "stateMutability": "view",
      "type": "function"
    },
    {
      "inputs": [
        {
          "internalType": "uint256",
          "name": "proposalId",
          "type": "uint256"
        }
      ],
      "name": "getProposal",
      "outputs": [
        {
          "components": [
            {
              "internalType": "address",
              "name": "author",
              "type": "address"
            },
            {
              "internalType": "bool",
              "name": "exists",
              "type": "bool"
            },
            {
              "internalType": "string",
              "name": "description",
              "type": "string"
            },
            {
              "components": [
                {
                  "internalType": "address",
                  "name": "targetAddress",
                  "type": "address"
                }
              ],
              "internalType": "struct IGovernor.TargetMetadata",
              "name": "targetMetadata",
              "type": "tuple"
            },
            {
              "components": [
                {
                  "internalType": "address[]",
                  "name": "signers",
                  "type": "address[]"
                },
                {
                  "internalType": "uint256",
                  "name": "threshold",
                  "type": "uint256"
                }
              ],
              "internalType": "struct IGovernor.SafeMetadata",
              "name": "safeMetadata",
              "type": "tuple"
            }
          ],
          "internalType": "struct IGovernor.ProposalCore",
          "name": "",
          "type": "tuple"
        }
      ],
      "stateMutability": "view",
      "type": "function"
    },
    {
      "inputs": [
        {
          "components": [
            {
              "internalType": "address",
              "name": "author",
              "type": "address"
            },
            {
              "internalType": "bool",
              "name": "exists",
              "type": "bool"
            },
            {
              "internalType": "string",
              "name": "description",
              "type": "string"
            },
            {
              "components": [
                {
                  "internalType": "address",
                  "name": "targetAddress",
                  "type": "address"
                }
              ],
              "internalType": "struct IGovernor.TargetMetadata",
              "name": "targetMetadata",
              "type": "tuple"
            },
            {
              "components": [
                {
                  "internalType": "address[]",
                  "name": "signers",
                  "type": "address[]"
                },
                {
                  "internalType": "uint256",
                  "name": "threshold",
                  "type": "uint256"
                }
              ],
              "internalType": "struct IGovernor.SafeMetadata",
              "name": "safeMetadata",
              "type": "tuple"
            }
          ],
          "internalType": "struct IGovernor.ProposalCore",
          "name": "proposal",
          "type": "tuple"
        }
      ],
      "name": "hashProposal",
      "outputs": [
        {
          "internalType": "uint256",
          "name": "",
          "type": "uint256"
        }
      ],
      "stateMutability": "pure",
      "type": "function"
    },
    {
      "inputs": [],
      "name": "highestTiedRanking",
      "outputs": [
        {
          "internalType": "uint256",
          "name": "",
          "type": "uint256"
        }
      ],
      "stateMutability": "view",
      "type": "function"
    },
    {
      "inputs": [
        {
          "internalType": "uint256",
          "name": "proposalId",
          "type": "uint256"
        }
      ],
      "name": "isProposalDeleted",
      "outputs": [
        {
          "internalType": "bool",
          "name": "",
          "type": "bool"
        }
      ],
      "stateMutability": "view",
      "type": "function"
    },
    {
      "inputs": [
        {
          "internalType": "uint256",
          "name": "ranking",
          "type": "uint256"
        }
      ],
      "name": "isTied",
      "outputs": [
        {
          "internalType": "bool",
          "name": "",
          "type": "bool"
        }
      ],
      "stateMutability": "view",
      "type": "function"
    },
    {
      "inputs": [],
      "name": "lowestRanking",
      "outputs": [
        {
          "internalType": "uint256",
          "name": "",
          "type": "uint256"
        }
      ],
      "stateMutability": "view",
      "type": "function"
    },
    {
      "inputs": [],
      "name": "maxProposalCount",
      "outputs": [
        {
          "internalType": "uint256",
          "name": "",
          "type": "uint256"
        }
      ],
      "stateMutability": "view",
      "type": "function"
    },
    {
      "inputs": [],
      "name": "name",
      "outputs": [
        {
          "internalType": "string",
          "name": "",
          "type": "string"
        }
      ],
      "stateMutability": "view",
      "type": "function"
    },
    {
      "inputs": [],
      "name": "numAllowedProposalSubmissions",
      "outputs": [
        {
          "internalType": "uint256",
          "name": "",
          "type": "uint256"
        }
      ],
      "stateMutability": "view",
      "type": "function"
    },
    {
      "inputs": [],
      "name": "officialRewardsModule",
      "outputs": [
        {
          "internalType": "contract RewardsModule",
          "name": "",
          "type": "address"
        }
      ],
      "stateMutability": "view",
      "type": "function"
    },
    {
      "inputs": [],
      "name": "prompt",
      "outputs": [
        {
          "internalType": "string",
          "name": "",
          "type": "string"
        }
      ],
      "stateMutability": "view",
      "type": "function"
    },
    {
      "inputs": [
        {
          "internalType": "uint256",
          "name": "proposalId",
          "type": "uint256"
        },
        {
          "internalType": "address",
          "name": "userAddress",
          "type": "address"
        }
      ],
      "name": "proposalAddressVotes",
      "outputs": [
        {
          "internalType": "uint256",
          "name": "forVotes",
          "type": "uint256"
        },
        {
          "internalType": "uint256",
          "name": "againstVotes",
          "type": "uint256"
        }
      ],
      "stateMutability": "view",
      "type": "function"
    },
    {
      "inputs": [
        {
          "internalType": "uint256",
          "name": "proposalId",
          "type": "uint256"
        }
      ],
      "name": "proposalAddressesHaveVoted",
      "outputs": [
        {
          "internalType": "address[]",
          "name": "",
          "type": "address[]"
        }
      ],
      "stateMutability": "view",
      "type": "function"
    },
    {
      "inputs": [
        {
          "internalType": "uint256",
          "name": "proposalId",
          "type": "uint256"
        }
      ],
      "name": "proposalVotes",
      "outputs": [
        {
          "internalType": "uint256",
          "name": "forVotes",
          "type": "uint256"
        },
        {
          "internalType": "uint256",
          "name": "againstVotes",
          "type": "uint256"
        }
      ],
      "stateMutability": "view",
      "type": "function"
    },
    {
      "inputs": [
        {
          "internalType": "uint256",
          "name": "",
          "type": "uint256"
        }
      ],
      "name": "proposalVotesStructs",
      "outputs": [
        {
          "components": [
            {
              "internalType": "uint256",
              "name": "forVotes",
              "type": "uint256"
            },
            {
              "internalType": "uint256",
              "name": "againstVotes",
              "type": "uint256"
            }
          ],
          "internalType": "struct GovernorCountingSimple.VoteCounts",
          "name": "proposalVoteCounts",
          "type": "tuple"
        }
      ],
      "stateMutability": "view",
      "type": "function"
    },
    {
      "inputs": [
        {
          "components": [
            {
              "internalType": "address",
              "name": "author",
              "type": "address"
            },
            {
              "internalType": "bool",
              "name": "exists",
              "type": "bool"
            },
            {
              "internalType": "string",
              "name": "description",
              "type": "string"
            },
            {
              "components": [
                {
                  "internalType": "address",
                  "name": "targetAddress",
                  "type": "address"
                }
              ],
              "internalType": "struct IGovernor.TargetMetadata",
              "name": "targetMetadata",
              "type": "tuple"
            },
            {
              "components": [
                {
                  "internalType": "address[]",
                  "name": "signers",
                  "type": "address[]"
                },
                {
                  "internalType": "uint256",
                  "name": "threshold",
                  "type": "uint256"
                }
              ],
              "internalType": "struct IGovernor.SafeMetadata",
              "name": "safeMetadata",
              "type": "tuple"
            }
          ],
          "internalType": "struct IGovernor.ProposalCore",
          "name": "proposal",
          "type": "tuple"
        },
        {
          "internalType": "bytes32[]",
          "name": "proof",
          "type": "bytes32[]"
        }
      ],
      "name": "propose",
      "outputs": [
        {
          "internalType": "uint256",
          "name": "",
          "type": "uint256"
        }
      ],
      "stateMutability": "nonpayable",
      "type": "function"
    },
    {
      "inputs": [
        {
          "components": [
            {
              "internalType": "address",
              "name": "author",
              "type": "address"
            },
            {
              "internalType": "bool",
              "name": "exists",
              "type": "bool"
            },
            {
              "internalType": "string",
              "name": "description",
              "type": "string"
            },
            {
              "components": [
                {
                  "internalType": "address",
                  "name": "targetAddress",
                  "type": "address"
                }
              ],
              "internalType": "struct IGovernor.TargetMetadata",
              "name": "targetMetadata",
              "type": "tuple"
            },
            {
              "components": [
                {
                  "internalType": "address[]",
                  "name": "signers",
                  "type": "address[]"
                },
                {
                  "internalType": "uint256",
                  "name": "threshold",
                  "type": "uint256"
                }
              ],
              "internalType": "struct IGovernor.SafeMetadata",
              "name": "safeMetadata",
              "type": "tuple"
            }
          ],
          "internalType": "struct IGovernor.ProposalCore",
          "name": "proposal",
          "type": "tuple"
        }
      ],
      "name": "proposeWithoutProof",
      "outputs": [
        {
          "internalType": "uint256",
          "name": "",
          "type": "uint256"
        }
      ],
      "stateMutability": "nonpayable",
      "type": "function"
    },
    {
      "inputs": [
        {
          "internalType": "uint256",
          "name": "ranking",
          "type": "uint256"
        }
      ],
      "name": "rankingPosition",
      "outputs": [
        {
          "internalType": "uint256",
          "name": "",
          "type": "uint256"
        }
      ],
      "stateMutability": "view",
      "type": "function"
    },
    {
      "inputs": [
        {
          "internalType": "contract RewardsModule",
          "name": "officialRewardsModule_",
          "type": "address"
        }
      ],
      "name": "setOfficialRewardsModule",
      "outputs": [],
      "stateMutability": "nonpayable",
      "type": "function"
    },
    {
      "inputs": [],
      "name": "setSortedAndTiedProposals",
      "outputs": [],
      "stateMutability": "nonpayable",
      "type": "function"
    },
    {
      "inputs": [],
      "name": "setSortedAndTiedProposalsHasBeenRun",
      "outputs": [
        {
          "internalType": "bool",
          "name": "",
          "type": "bool"
        }
      ],
      "stateMutability": "view",
      "type": "function"
    },
    {
      "inputs": [],
      "name": "sortedProposalIds",
      "outputs": [
        {
          "internalType": "uint256[]",
          "name": "",
          "type": "uint256[]"
        }
      ],
      "stateMutability": "view",
      "type": "function"
    },
    {
      "inputs": [
        {
          "internalType": "bool",
          "name": "excludeDeletedProposals",
          "type": "bool"
        }
      ],
      "name": "sortedProposals",
      "outputs": [
        {
          "internalType": "uint256[]",
          "name": "sortedProposalIdsReturn",
          "type": "uint256[]"
        }
      ],
      "stateMutability": "view",
      "type": "function"
    },
    {
      "inputs": [],
      "name": "state",
      "outputs": [
        {
          "internalType": "enum IGovernor.ContestState",
          "name": "",
          "type": "uint8"
        }
      ],
      "stateMutability": "view",
      "type": "function"
    },
    {
      "inputs": [],
      "name": "submissionMerkleRoot",
      "outputs": [
        {
          "internalType": "bytes32",
          "name": "",
          "type": "bytes32"
        }
      ],
      "stateMutability": "view",
      "type": "function"
    },
    {
      "inputs": [
        {
          "internalType": "bytes4",
          "name": "interfaceId",
          "type": "bytes4"
        }
      ],
      "name": "supportsInterface",
      "outputs": [
        {
          "internalType": "bool",
          "name": "",
          "type": "bool"
        }
      ],
      "stateMutability": "view",
      "type": "function"
    },
    {
      "inputs": [
        {
          "internalType": "uint256",
          "name": "",
          "type": "uint256"
        }
      ],
      "name": "tiedAdjustedRankingPosition",
      "outputs": [
        {
          "internalType": "uint256",
          "name": "",
          "type": "uint256"
        }
      ],
      "stateMutability": "view",
      "type": "function"
    },
    {
      "inputs": [],
      "name": "totalVotesCast",
      "outputs": [
        {
          "internalType": "uint256",
          "name": "",
          "type": "uint256"
        }
      ],
      "stateMutability": "view",
      "type": "function"
    },
    {
      "inputs": [
        {
          "components": [
            {
              "internalType": "address",
              "name": "author",
              "type": "address"
            },
            {
              "internalType": "bool",
              "name": "exists",
              "type": "bool"
            },
            {
              "internalType": "string",
              "name": "description",
              "type": "string"
            },
            {
              "components": [
                {
                  "internalType": "address",
                  "name": "targetAddress",
                  "type": "address"
                }
              ],
              "internalType": "struct IGovernor.TargetMetadata",
              "name": "targetMetadata",
              "type": "tuple"
            },
            {
              "components": [
                {
                  "internalType": "address[]",
                  "name": "signers",
                  "type": "address[]"
                },
                {
                  "internalType": "uint256",
                  "name": "threshold",
                  "type": "uint256"
                }
              ],
              "internalType": "struct IGovernor.SafeMetadata",
              "name": "safeMetadata",
              "type": "tuple"
            }
          ],
          "internalType": "struct IGovernor.ProposalCore",
          "name": "proposal",
          "type": "tuple"
        }
      ],
      "name": "validateProposalData",
      "outputs": [
        {
          "internalType": "bool",
          "name": "dataValidated",
          "type": "bool"
        }
      ],
      "stateMutability": "nonpayable",
      "type": "function"
    },
    {
      "inputs": [
        {
          "internalType": "address",
          "name": "account",
          "type": "address"
        },
        {
          "internalType": "bytes32[]",
          "name": "proof",
          "type": "bytes32[]"
        }
      ],
      "name": "verifyProposer",
      "outputs": [
        {
          "internalType": "bool",
          "name": "verified",
          "type": "bool"
        }
      ],
      "stateMutability": "nonpayable",
      "type": "function"
    },
    {
      "inputs": [
        {
          "internalType": "address",
          "name": "account",
          "type": "address"
        },
        {
          "internalType": "uint256",
          "name": "totalVotes",
          "type": "uint256"
        },
        {
          "internalType": "bytes32[]",
          "name": "proof",
          "type": "bytes32[]"
        }
      ],
      "name": "verifyVoter",
      "outputs": [
        {
          "internalType": "bool",
          "name": "verified",
          "type": "bool"
        }
      ],
      "stateMutability": "nonpayable",
      "type": "function"
    },
    {
      "inputs": [],
      "name": "version",
      "outputs": [
        {
          "internalType": "string",
          "name": "",
          "type": "string"
        }
      ],
      "stateMutability": "view",
      "type": "function"
    },
    {
      "inputs": [],
      "name": "voteStart",
      "outputs": [
        {
          "internalType": "uint256",
          "name": "",
          "type": "uint256"
        }
      ],
      "stateMutability": "view",
      "type": "function"
    },
    {
      "inputs": [],
      "name": "votingDelay",
      "outputs": [
        {
          "internalType": "uint256",
          "name": "",
          "type": "uint256"
        }
      ],
      "stateMutability": "view",
      "type": "function"
    },
    {
      "inputs": [],
      "name": "votingMerkleRoot",
      "outputs": [
        {
          "internalType": "bytes32",
          "name": "",
          "type": "bytes32"
        }
      ],
      "stateMutability": "view",
      "type": "function"
    },
    {
      "inputs": [],
      "name": "votingPeriod",
      "outputs": [
        {
          "internalType": "uint256",
          "name": "",
          "type": "uint256"
        }
      ],
      "stateMutability": "view",
      "type": "function"
    }
  ],
  "bytecode": {
    "object": "0x6101a06040526018805460ff191690553480156200001c57600080fd5b5060405162004722380380620047228339810160408190526200003f9162000622565b8060008151811062000055576200005562000733565b60200260200101518160018151811062000073576200007362000733565b60200260200101518260028151811062000091576200009162000733565b602002602001015183600381518110620000af57620000af62000733565b602002602001015184600481518110620000cd57620000cd62000733565b602002602001015185600581518110620000eb57620000eb62000733565b60200260200101518a8a8a8a8181856200010a6200025060201b60201c565b620001178260006200026e565b61012052620001288160016200026e565b61014052815160208084019190912060e052815190820120610100524660a052620001b660e05161010051604080517f8b73c3c69bb8fe3d512ecc4cf759cc79239f7b179b0ffacaa9a75d522b39400f60208201529081019290925260608201524660808201523060a082015260009060c00160405160208183030381529060405280519060200120905090565b60805250503060c05261016091909152610180526008620001d88582620007d8565b506009620001e78482620007d8565b5050505050620001fd86620002a760201b60201c565b6200020885620002e8565b620002138462000329565b6200021e83620003d0565b620002298262000411565b620002348162000452565b6200023f3362000493565b5050505050505050505050620008fe565b6040805180820190915260048152630ccb8c4d60e21b602082015290565b60006020835110156200028e576200028683620004fc565b9050620002a1565b816200029b8482620007d8565b5060ff90505b92915050565b600e5460408051918252602082018390527fd299feb1d7d9345a48559601c471c3be7eea9a11f21d5e86809198f40a974db4910160405180910390a1600e55565b600f5460408051918252602082018390527fc565b045403dc03c2eea82b81a0465edad9e2e7fc4d97e11421c209da93d7a93910160405180910390a1600f55565b600081116200038f5760405162461bcd60e51b815260206004820152602760248201527f476f7665726e6f7253657474696e67733a20766f74696e6720706572696f6420604482015266746f6f206c6f7760c81b60648201526084015b60405180910390fd5b60105460408051918252602082018390527f7e3f7f0708a84de9203036abaa450dccc85ad5ff52f78c170f3edb55cf5e8828910160405180910390a1601055565b60115460408051918252602082018390527fe971b819c7fb95c72451f557226aceb5baaf4994a9d39a79bbfa0040e87500b9910160405180910390a1601155565b60125460408051918252602082018390527f4984ec996723330ee95979ed65a2a4b41edd914e68a187efe92596474643bdff910160405180910390a1601255565b60135460408051918252602082018390527f9c7b27f091caef3a83be73d89320404fa0c4a52993685ff0651672e49e6e55ab910160405180910390a1601355565b601454604080516001600160a01b03928316815291831660208301527fc30034fc2e9697980e08935bbc287db3eaa44a4aa113ef4c108b356adbf911ce910160405180910390a1601480546001600160a01b0319166001600160a01b0392909216919091179055565b600080829050601f815111156200052a578260405163305a27a960e01b8152600401620003869190620008a4565b80516200053782620008d9565b179392505050565b634e487b7160e01b600052604160045260246000fd5b604051601f8201601f191681016001600160401b03811182821017156200058057620005806200053f565b604052919050565b60005b83811015620005a55781810151838201526020016200058b565b50506000910152565b600082601f830112620005c057600080fd5b81516001600160401b03811115620005dc57620005dc6200053f565b620005f1601f8201601f191660200162000555565b8181528460208386010111156200060757600080fd5b6200061a82602083016020870162000588565b949350505050565b600080600080600060a086880312156200063b57600080fd5b85516001600160401b03808211156200065357600080fd5b6200066189838a01620005ae565b96506020915081880151818111156200067957600080fd5b620006878a828b01620005ae565b9650506040880151945060608801519350608088015181811115620006ab57600080fd5b8801601f81018a13620006bd57600080fd5b805182811115620006d257620006d26200053f565b8060051b9250620006e584840162000555565b818152928201840192848101908c8511156200070057600080fd5b928501925b84841015620007205783518252928501929085019062000705565b8096505050505050509295509295909350565b634e487b7160e01b600052603260045260246000fd5b600181811c908216806200075e57607f821691505b6020821081036200077f57634e487b7160e01b600052602260045260246000fd5b50919050565b601f821115620007d357600081815260208120601f850160051c81016020861015620007ae5750805b601f850160051c820191505b81811015620007cf57828155600101620007ba565b5050505b505050565b81516001600160401b03811115620007f457620007f46200053f565b6200080c8162000805845462000749565b8462000785565b602080601f8311600181146200084457600084156200082b5750858301515b600019600386901b1c1916600185901b178555620007cf565b600085815260208120601f198616915b82811015620008755788860151825594840194600190910190840162000854565b5085821015620008945787850151600019600388901b60f8161c191681555b5050505050600190811b01905550565b6020815260008251806020840152620008c581604085016020870162000588565b601f01601f19169190910160400192915050565b805160208083015191908110156200077f5760001960209190910360031b1b16919050565b60805160a05160c05160e0516101005161012051610140516101605161018051613da66200097c600039600081816107cf0152610bbb01526000818161072801528181610a0301528181610b560152610eb8015260006112700152600061124601526000505060005050600050506000505060005050613da66000f3fe608060405234801561001057600080fd5b50600436106103985760003560e01c80637c65d711116101e9578063c7f758a81161010f578063e5eb5a48116100ad578063f0a7db0a1161007c578063f0a7db0a14610851578063f4f3d7ec14610864578063fb8ddab414610877578063fb9bf8d41461088a57600080fd5b8063e5eb5a4814610819578063ea8a1af014610839578063ebc18b9b14610841578063efa90d361461084957600080fd5b8063d8891619116100e9578063d8891619146107bd578063dd96a19d146107ca578063dea5f6a6146107f1578063e031535b1461081157600080fd5b8063c7f758a814610772578063cb85395014610792578063d45a010b146107b557600080fd5b8063946369b511610187578063b323580d11610156578063b323580d14610710578063bddc164114610723578063c0ffaa781461074a578063c19d93fb1461075d57600080fd5b8063946369b5146106a857806396f0e962146106bd578063a1ac6cb2146106c7578063aec116b6146106e757600080fd5b806384b0196e116101c357806384b0196e1461064f578063861874881461066a5780638a9cd5501461067d578063930de9791461068557600080fd5b80637c65d711146106365780637de418d51461063e578063832009af1461064757600080fd5b8063419c533c116102ce578063544ffc9c1161026c57806365f162631161023b57806365f16263146105f75780636ca1a2c71461060a5780636e4eb81014610612578063785ddfe51461062557600080fd5b8063544ffc9c1461056957806354fd4d50146105a65780635f953a03146105c657806360506ff6146105ef57600080fd5b8063476f4d8a116102a8578063476f4d8a146105255780634d24a67f1461053857806350a5e52414610540578063531bd8121461055657600080fd5b8063419c533c146104ec578063427d56c2146104ff578063458da87d1461051257600080fd5b806320b3e8451161033b57806332763c221161031557806332763c221461049f578063347cf665146104b25780633932abb1146104c15780633b6d199b146104c957600080fd5b806320b3e845146104715780632399c66014610484578063262e59e91461049757600080fd5b806302d05d3f1161037757806302d05d3f146103e357806306fdde0314610403578063070dc5d9146104185780631242b7371461045c57600080fd5b80624114a81461039d57806301ffc9a7146103b857806302a251a3146103db575b600080fd5b6103a5610892565b6040519081526020015b60405180910390f35b6103cb6103c63660046130b2565b6108a2565b60405190151581526020016103af565b6103a56108d9565b6103eb6108e4565b6040516001600160a01b0390911681526020016103af565b61040b6108f8565b6040516103af9190613122565b61044f610426366004613135565b601760209081526000918252604091829020825180840190935280548352600101549082015281565b6040516103af919061314e565b61046461098a565b6040516103af91906131a0565b6103cb61047f36600461320f565b6109e1565b6103cb610492366004613135565b610a77565b6103a5610abb565b6103cb6104ad366004613278565b610ad7565b6103a5678ac7230489e8000081565b6103a5610c14565b6103cb6104d7366004613135565b60009081526007602052604090205460ff1690565b6103a56104fa3660046132f9565b610c1f565b61046461050d366004613369565b610cdb565b6103a5610520366004613620565b610e83565b6103a561053336600461366c565b610eb4565b6103a5610f44565b610548610f52565b6040516103af9291906136a0565b6103cb610564366004613709565b611058565b610591610577366004613135565b600090815260176020526040902080546001909101549091565b604080519283526020830191909152016103af565b6040805180820190915260048152630ccb8c4d60e21b602082015261040b565b6103a56105d4366004613764565b6001600160a01b03166000908152600c602052604090205490565b6103a56110c3565b6103a5610605366004613781565b6110ce565b6103a56111bd565b6105916106203660046137b6565b6111e9565b601e546001600160a01b03166103eb565b61040b61121e565b6103a560155481565b6103a561122d565b610657611238565b6040516103af97969594939291906137e6565b6103a5610678366004613135565b6112c0565b6104646112f8565b6103cb610693366004613764565b60036020526000908152604090205460ff1681565b6106b0611371565b6040516103af919061388f565b6106c56113d2565b005b6103a56106d5366004613764565b60166020526000908152604090205481565b6103a56106f5366004613764565b6001600160a01b031660009081526016602052604090205490565b6106b061071e366004613135565b6116ef565b6103a57f000000000000000000000000000000000000000000000000000000000000000081565b6103a56107583660046138a2565b611761565b6107656117c6565b6040516103af9190613913565b610785610780366004613135565b611838565b6040516103af919061393b565b6103cb6107a0366004613764565b60046020526000908152604090205460ff1681565b6105486119b2565b6018546103cb9060ff1681565b6103a57f000000000000000000000000000000000000000000000000000000000000000081565b6103a56107ff366004613764565b60026020526000908152604090205481565b6103a5611b7d565b6103a5610827366004613135565b60196020526000908152604090205481565b6106c5611b8f565b6103a5611cd4565b610464611d00565b6106c561085f3660046139c1565b611d56565b6106c5610872366004613764565b611f67565b6103cb610885366004613620565b612079565b6103a5612318565b600061089d600e5490565b905090565b60006001600160e01b031982166319cbae6160e11b14806108d357506301ffc9a760e01b6001600160e01b03198316145b92915050565b600061089d60105490565b600061089d6014546001600160a01b031690565b60606008805461090790613a02565b80601f016020809104026020016040519081016040528092919081815260200182805461093390613a02565b80156109805780601f1061095557610100808354040283529160200191610980565b820191906000526020600020905b81548152906001019060200180831161096357829003601f168201915b5050505050905090565b6060600680548060200260200160405190810160405280929190818152602001828054801561098057602002820191906000526020600020905b8154815260200190600101908083116109c4575050505050905090565b6001600160a01b03831660009081526004602052604081205460ff16610a6c577f0000000000000000000000000000000000000000000000000000000000000000600003610a3157506001610a70565b610a4784678ac7230489e8000085856000610ad7565b506001600160a01b0384166000908152600460205260409020805460ff191660011790555b5060015b9392505050565b60185460009060ff16610aa55760405162461bcd60e51b8152600401610a9c90613a36565b60405180910390fd5b506000908152601a602052604090205460ff1690565b6000610ac56108d9565b610acd611b7d565b61089d9190613ab7565b6040516bffffffffffffffffffffffff19606087901b166020820152603481018590526000908190605401604051602081830303815290604052805190602001209050600083610b8657610b818686808060200260200160405190810160405280939291908181526020018383602002808284376000920191909152507f000000000000000000000000000000000000000000000000000000000000000092508691506123239050565b610be6565b610be68686808060200260200160405190810160405280939291908181526020018383602002808284376000920191909152507f000000000000000000000000000000000000000000000000000000000000000092508691506123239050565b905080610c065760405163452c2df160e11b815260040160405180910390fd5b506001979650505050505050565b600061089d600f5490565b600086815260076020526040812054339060ff1615610c505760405162461bcd60e51b8152600401610a9c90613aca565b610c5c81878686611058565b610cc35760405162461bcd60e51b815260206004820152603260248201527f476f7665726e6f723a20746869732061646472657373206973206e6f74207065604482015271726d697373696f6e656420746f20766f746560701b6064820152608401610a9c565b610ccf88828988612339565b98975050505050505050565b606060008083610cf257610ced610f52565b610cfa565b610cfa6119b2565b915091506000825111610d6a5760405162461bcd60e51b815260206004820152603260248201527f476f7665726e6f72536f7274696e673a2063616e6e6f7420736f72742061206c6044820152710d2e6e840decc40f4cae4de40d8cadccee8d60731b6064820152608401610a9c565b600082516001600160401b03811115610d8557610d85613384565b604051908082528060200260200182016040528015610dae578160200160208202803683370190505b50905060005b8251811015610e4257610de3838281518110610dd257610dd2613b19565b602002602001015160200151612559565b610e09848381518110610df857610df8613b19565b602002602001015160000151612559565b610e139190613b2f565b828281518110610e2557610e25613b19565b602090810291909101015280610e3a81613b56565b915050610db4565b5060005b60018451610e549190613b6f565b811015610e7957610e668183866125c7565b5080610e7181613b56565b915050610e46565b5091949350505050565b600081604051602001610e96919061393b565b60408051601f19818403018152919052805160209091012092915050565b60007f000000000000000000000000000000000000000000000000000000000000000015610f0b573360009081526004602052604090205460ff16610f0b5760405162461bcd60e51b8152600401610a9c90613b82565b610f1761088583613bd1565b610f335760405162461bcd60e51b8152600401610a9c90613bdd565b6108d3610f3f83613bd1565b61272d565b610f4f600180613ab7565b81565b6060806000610f5f611d00565b9050600081516001600160401b03811115610f7c57610f7c613384565b604051908082528060200260200182016040528015610fc157816020015b6040805180820190915260008082526020820152815260200190600190039081610f9a5790505b50905060005b825181101561104e5760176000848381518110610fe657610fe6613b19565b602002602001015181526020019081526020016000206000016040518060400160405290816000820154815260200160018201548152505082828151811061103057611030613b19565b6020026020010181905250808061104690613b56565b915050610fc7565b5090939092509050565b6001600160a01b03841660009081526003602052604081205460ff166110b857611086858585856001610ad7565b506001600160a01b038516600090815260026020908152604080832087905560039091529020805460ff191660011790555b506001949350505050565b600061089d60135490565b600083815260076020526040812054339060ff16156110ff5760405162461bcd60e51b8152600401610a9c90613aca565b6001600160a01b03811660009081526003602052604090205460ff166111a85760405162461bcd60e51b815260206004820152605260248201527f476f7665726e6f723a20796f75206e65656420746f2063617374206120766f7460448201527f652077697468207468652070726f6f66206174206c65617374206f6e636520616064820152711b99081e5bdd481a185d995b89dd081e595d60721b608482015260a401610a9c565b6111b485828686612339565b95945050505050565b60185460009060ff166111e25760405162461bcd60e51b8152600401610a9c90613a36565b50601c5490565b60008281526017602090815260408083206001600160a01b0385168452600301909152902080546001909101545b9250929050565b60606009805461090790613a02565b600061089d60115490565b60006060808280808361126b7f000000000000000000000000000000000000000000000000000000000000000083612b0e565b6112967f00000000000000000000000000000000000000000000000000000000000000006001612b0e565b60408051600080825260208201909252600f60f81b9b939a50919850469750309650945092509050565b60185460009060ff166112e55760405162461bcd60e51b8152600401610a9c90613a36565b5060009081526019602052604090205490565b60185460609060ff1661131d5760405162461bcd60e51b8152600401610a9c90613a36565b601b80548060200260200160405190810160405280929190818152602001828054801561098057602002820191906000526020600020908154815260200190600101908083116109c4575050505050905090565b6060600d80548060200260200160405190810160405280929190818152602001828054801561098057602002820191906000526020600020905b81546001600160a01b031681526001909101906020018083116113ab575050505050905090565b60046113dc6117c6565b60048111156113ed576113ed6138fd565b146114705760405162461bcd60e51b815260206004820152604760248201527f476f7665726e6f72536f7274696e673a20636f6e74657374206d75737420626560448201527f20746f2063616c63756c61746520736f7274656420616e6420746965642070726064820152666f706f73616c7360c81b608482015260a401610a9c565b60185460ff161561150f5760405162461bcd60e51b815260206004820152605f60248201527f476f7665726e6f72536f7274696e673a20736574536f72746564416e6454696560448201527f6450726f706f73616c7328292068617320616c7265616479206265656e20727560648201527f6e20616e642069747320726573706563746976652076616c7565732073657400608482015260a401610a9c565b6115196001610cdb565b805161152d91601b91602090910190612f90565b50601b546000906001906115419082613ab7565b601d55601b5460005b818110156116dc57601b5460009061156490600190613b6f565b90506000806115ad601b6115788686613b6f565b8154811061158857611588613b19565b9060005260206000200154600090815260176020526040902080546001909101549091565b9150915060006115bc82612559565b6115c584612559565b6115cf9190613b2f565b90508460000361160857601b5490975087906001036115ff576000878152601960205260409020849055601c8790555b505050506116ca565b878103611660576000878152601a602052604090205460ff1661163f576000878152601a60205260409020805460ff191660011790555b601b5461164d906001613ab7565b601d540361165b57601d8790555b611692565b61166a8585613b6f565b611675906001613ab7565b6000888152601960205260409020558661168e81613b56565b9750505b601b546116a0866001613ab7565b036116c4576116af8585613b6f565b600088815260196020526040902055601c8790555b96505050505b806116d481613b56565b91505061154a565b50506018805460ff191660011790555050565b600081815260176020908152604091829020600281018054845181850281018501909552808552606094929383018282801561175457602002820191906000526020600020905b81546001600160a01b03168152600190910190602001808311611736575b5050505050915050919050565b600061176e3384846109e1565b61178a5760405162461bcd60e51b8152600401610a9c90613b82565b61179661088585613bd1565b6117b25760405162461bcd60e51b8152600401610a9c90613bdd565b6117be610f3f85613bd1565b949350505050565b600a5460009060ff16156117da5750600290565b60006117e4610892565b90504281106117f557600091505090565b60006117ff611b7d565b90504281106118115760039250505090565b600061181b610abb565b905042811061182e576001935050505090565b6004935050505090565b611840612fd7565b6000828152600b6020908152604091829020825160a08101845281546001600160a01b0381168252600160a01b900460ff16151592810192909252600181018054929391929184019161189290613a02565b80601f01602080910402602001604051908101604052809291908181526020018280546118be90613a02565b801561190b5780601f106118e05761010080835404028352916020019161190b565b820191906000526020600020905b8154815290600101906020018083116118ee57829003601f168201915b5050509183525050604080516020818101835260028501546001600160a01b0316825280840191909152815160038501805460609381028301840185528285018181529490950194919390928492849184018282801561199457602002820191906000526020600020905b81546001600160a01b03168152600190910190602001808311611976575b50505050508152602001600182015481525050815250509050919050565b60608060006119bf611d00565b9050600081516001600160401b038111156119dc576119dc613384565b604051908082528060200260200182016040528015611a05578160200160208202803683370190505b509050600082516001600160401b03811115611a2357611a23613384565b604051908082528060200260200182016040528015611a6857816020015b6040805180820190915260008082526020820152815260200190600190039081611a415790505b5090506000805b8451811015611b7157611aaa858281518110611a8d57611a8d613b19565b602002602001015160009081526007602052604090205460ff1690565b611b5f57848181518110611ac057611ac0613b19565b6020026020010151848381518110611ada57611ada613b19565b60200260200101818152505060176000868381518110611afc57611afc613b19565b6020026020010151815260200190815260200160002060000160405180604001604052908160008201548152602001600182015481525050838381518110611b4657611b46613b19565b6020908102919091010152611b5c600183613ab7565b91505b80611b6981613b56565b915050611a6f565b50919590945092505050565b6000611b87610c14565b610acd610892565b611b976108e4565b6001600160a01b0316336001600160a01b031614611c0f5760405162461bcd60e51b815260206004820152602f60248201527f476f7665726e6f723a206f6e6c79207468652063726561746f722063616e206360448201526e185b98d95b08184818dbdb9d195cdd608a1b6064820152608401610a9c565b6000611c196117c6565b90506002816004811115611c2f57611c2f6138fd565b14158015611c4f57506004816004811115611c4c57611c4c6138fd565b14155b611c9b5760405162461bcd60e51b815260206004820152601c60248201527f476f7665726e6f723a20636f6e74657374206e6f7420616374697665000000006044820152606401610a9c565b600a805460ff191660011790556040517f4cd963a081760a54f571abc0f1db4dde31b4a07d8d6da3e844b8c6f47eeaaa4290600090a150565b60185460009060ff16611cf95760405162461bcd60e51b8152600401610a9c90613a36565b50601d5490565b6060600580548060200260200160405190810160405280929190818152602001828054801561098057602002820191906000526020600020908154815260200190600101908083116109c4575050505050905090565b611d5e6108e4565b6001600160a01b0316336001600160a01b031614611de45760405162461bcd60e51b815260206004820152603760248201527f476f7665726e6f723a206f6e6c792074686520636f6e7465737420637265617460448201527f6f722063616e2064656c6574652070726f706f73616c730000000000000000006064820152608401610a9c565b6004611dee6117c6565b6004811115611dff57611dff6138fd565b03611e845760405162461bcd60e51b815260206004820152604960248201527f476f7665726e6f723a2064656c6574696f6e206f662070726f706f73616c732060448201527f61667465722074686520656e64206f66206120636f6e74657374206973206e6f6064820152681d08185b1b1bddd95960ba1b608482015260a401610a9c565b60005b81811015611f29576000838383818110611ea357611ea3613b19565b60209081029290920135600081815260079093526040909220549192505060ff16611f16576000818152600760205260408120805460ff191660019081179091556006805491820181559091527ff652222313e28459528d920b65115c16c04f3efc82aaedc97be59f3f377c0d3f018190555b5080611f2181613b56565b915050611e87565b507f75a75cf5c561892f4cc5b26c1b8e933849b42238c96dd073d080d1ae96c514168282604051611f5b929190613c29565b60405180910390a15050565b611f6f6108e4565b6001600160a01b0316336001600160a01b03161461200a5760405162461bcd60e51b815260206004820152604c60248201527f476f7665726e6f724d6f64756c6552656769737472793a206f6e6c792074686560448201527f2063726561746f722063616e2073657420746865206f6666696369616c20726560648201526b7761726473206d6f64756c6560a01b608482015260a401610a9c565b600061201e601e546001600160a01b031690565b601e80546001600160a01b0319166001600160a01b0385811691821790925560408051928416835260208301919091529192507f753a2cf8d360cff631674504210913e48247f8e56b3e6d2006c2103d4095999f9101611f5b565b80516000906001600160a01b031633146120ee5760405162461bcd60e51b815260206004820152603060248201527f476f7665726e6f723a207468652070726f706f73616c20617574686f72206d7560448201526f39ba1031329036b9b39739b2b73232b960811b6064820152608401610a9c565b60005b6120fc600180613ab7565b81101561229c576000816001811115612117576121176138fd565b9050600081600181111561212d5761212d6138fd565b03612138575061228a565b600181600181111561214c5761214c6138fd565b0361226f57608084015151516000036121de5760405162461bcd60e51b815260206004820152604860248201527f476f7665726e6f724d6574616461746156616c69646174696f6e3a207468657260448201527f652063616e6e6f74206265207a65726f207369676e65727320696e20736166656064820152674d6574616461746160c01b608482015260a401610a9c565b83608001516020015160000361226a5760405162461bcd60e51b8152602060048201526044602482018190527f476f7665726e6f724d6574616461746156616c69646174696f6e3a2074687265908201527f73686f6c642063616e6e6f74206265207a65726f20696e20736166654d6574616064820152636461746160e01b608482015260a401610a9c565b612288565b6040516308b6566d60e11b815260040160405180910390fd5b505b8061229481613b56565b9150506120f1565b508160400151516000036123105760405162461bcd60e51b815260206004820152603560248201527f476f7665726e6f723a20656d7074792070726f706f73616c20646573637269706044820152741d1a5bdb9cc8185c99481b9bdd08185b1b1bddd959605a1b6064820152608401610a9c565b506001919050565b600061089d60125490565b6000826123308584612bba565b14949350505050565b600060016123456117c6565b6004811115612356576123566138fd565b146123af5760405162461bcd60e51b815260206004820152602360248201527f476f7665726e6f723a20766f7465206e6f742063757272656e746c792061637460448201526269766560e81b6064820152608401610a9c565b600082116124135760405162461bcd60e51b815260206004820152602b60248201527f476f7665726e6f723a2063616e6e6f7420766f746520776974682030206f722060448201526a666577657220766f74657360a81b6064820152608401610a9c565b6001600160a01b03841660009081526003602052604090205460ff166124b95760405162461bcd60e51b815260206004820152604f60248201527f476f7665726e6f723a20796f75206e65656420746f2076657269667920796f7560448201527f72206e756d626572206f6620766f74657320616761696e737420746865206d6560648201526e1c9adb19481c9bdbdd08199a5c9cdd608a1b608482015260a401610a9c565b6124eb85858585600260008a6001600160a01b03166001600160a01b0316815260200190815260200160002054612c07565b6040805186815260ff851660208201529081018390526001600160a01b038516907f2c9deb38f462962eadbd85a9d3a4120503ee091f1582eaaa10aa8c6797651d299060600160405180910390a25050506001600160a01b0316600090815260026020526040902054919050565b60006001600160ff1b038211156125c35760405162461bcd60e51b815260206004820152602860248201527f53616665436173743a2076616c756520646f65736e27742066697420696e2061604482015267371034b73a191a9b60c11b6064820152608401610a9c565b5090565b600083805b8451811015612625578482815181106125e7576125e7613b19565b602002602001015185828151811061260157612601613b19565b60200260200101511215612613578091505b8061261d81613b56565b9150506125cc565b50848103612637576000915050610a70565b600084868151811061264b5761264b613b19565b6020026020010151905084828151811061266757612667613b19565b602002602001015185878151811061268157612681613b19565b602002602001018181525050808583815181106126a0576126a0613b19565b60200260200101818152505060008487815181106126c0576126c0613b19565b602002602001015190508483815181106126dc576126dc613b19565b60200260200101518588815181106126f6576126f6613b19565b6020026020010181815250508085848151811061271557612715613b19565b60209081029190910101525060019695505050505050565b600060036127396117c6565b600481111561274a5761274a6138fd565b146127bd5760405162461bcd60e51b815260206004820152603e60248201527f476f7665726e6f723a20636f6e74657374206d7573742062652071756575656460448201527f20666f722070726f706f73616c7320746f206265207375626d697474656400006064820152608401610a9c565b6127c561122d565b336000908152600c60205260409020541061287c5760405162461bcd60e51b815260206004820152606560248201527f476f7665726e6f723a207468652073616d6520616464726573732063616e6e6f60448201527f74207375626d6974206d6f7265207468616e20746865206e756d416c6c6f776560648201527f6450726f706f73616c5375626d697373696f6e7320666f72207468697320636f6084820152641b9d195cdd60da1b60a482015260c401610a9c565b612884612318565b6006546005546128949190613b6f565b106129075760405162461bcd60e51b815260206004820152603960248201527f476f7665726e6f723a20746865206d6178206e756d626572206f662070726f7060448201527f6f73616c732068617665206265656e207375626d6974746564000000000000006064820152608401610a9c565b600061291283610e83565b6000818152600b6020526040902054909150600160a01b900460ff161561298d5760405162461bcd60e51b815260206004820152602960248201527f476f7665726e6f723a206475706c69636174652070726f706f73616c73206e6f6044820152681d08185b1b1bddd95960ba1b6064820152608401610a9c565b6005805460018181019092557f036b6384b5eca791c62761152d0c79bb0604c104a5fb6f4eb0703f3154bb3db0018290556000828152600b602090815260409182902086518154928801511515600160a01b026001600160a81b03199093166001600160a01b0390911617919091178155908501518592820190612a119082613cb1565b506060820151516002820180546001600160a01b0319166001600160a01b039092169190911790556080820151805180516003840191612a5691839160200190613048565b50602091820151600191820155336000908152600c9092526040822080549194509250612a84908490613ab7565b9091555050600d80546001810182556000919091527fd7b6990105719101dabeb77144f2a3385c8033acd3af97e9423a695e81ad1eb50180546001600160a01b031916339081179091556040805183815260208101929092527fcd423cc1203c0af96b9b3d68d73b3064a69de2d14450bb7181c5e5df2132b358910160405180910390a192915050565b606060ff8314612b2857612b2183612efd565b90506108d3565b818054612b3490613a02565b80601f0160208091040260200160405190810160405280929190818152602001828054612b6090613a02565b8015612bad5780601f10612b8257610100808354040283529160200191612bad565b820191906000526020600020905b815481529060010190602001808311612b9057829003601f168201915b5050505050905092915050565b600081815b8451811015612bff57612beb82868381518110612bde57612bde613b19565b6020026020010151612f3c565b915080612bf781613b56565b915050612bbf565b509392505050565b60008581526017602090815260408083206001600160a01b0388168452601690925290912054612c379083613b6f565b831115612ca25760405162461bcd60e51b815260206004820152603360248201527f476f7665726e6f72566f74696e6753696d706c653a206e6f7420656e6f756768604482015272081d9bdd195cc81b19599d081d1bc818d85cdd606a1b6064820152608401610a9c565b6001600160a01b0385166000908152600382016020526040812054158015612ce557506001600160a01b0386166000908152600383016020526040902060010154155b905060ff8516612d3d57815484908390600090612d03908490613ab7565b90915550506001600160a01b038616600090815260038301602052604081208054869290612d32908490613ab7565b90915550612e779050565b60001960ff861601612e1157612d516110c3565b600114612dc8576040805162461bcd60e51b81526020600482015260248101919091527f476f7665726e6f72566f74696e6753696d706c653a20646f776e766f74696e6760448201527f206973206e6f7420656e61626c656420666f72207468697320436f6e746573746064820152608401610a9c565b83826000016001016000828254612ddf9190613ab7565b90915550506001600160a01b038616600090815260038301602052604081206001018054869290612d32908490613ab7565b60405162461bcd60e51b815260206004820152603560248201527f476f7665726e6f72566f74696e6753696d706c653a20696e76616c69642076616044820152746c756520666f7220656e756d20566f74655479706560581b6064820152608401610a9c565b8015612eae57600282018054600181018255600091825260209091200180546001600160a01b0319166001600160a01b0388161790555b6001600160a01b03861660009081526016602052604081208054869290612ed6908490613ab7565b925050819055508360156000828254612eef9190613ab7565b909155505050505050505050565b60606000612f0a83612f68565b604080516020808252818301909252919250600091906020820181803683375050509182525060208101929092525090565b6000818310612f58576000828152602084905260409020610a70565b5060009182526020526040902090565b600060ff8216601f8111156108d357604051632cd44ac360e21b815260040160405180910390fd5b828054828255906000526020600020908101928215612fcb579160200282015b82811115612fcb578251825591602001919060010190612fb0565b506125c392915061309d565b6040518060a0016040528060006001600160a01b0316815260200160001515815260200160608152602001613021604051806020016040528060006001600160a01b031681525090565b8152602001613043604051806040016040528060608152602001600081525090565b905290565b828054828255906000526020600020908101928215612fcb579160200282015b82811115612fcb57825182546001600160a01b0319166001600160a01b03909116178255602090920191600190910190613068565b5b808211156125c3576000815560010161309e565b6000602082840312156130c457600080fd5b81356001600160e01b031981168114610a7057600080fd5b6000815180845260005b81811015613102576020818501810151868301820152016130e6565b506000602082860101526020601f19601f83011685010191505092915050565b602081526000610a7060208301846130dc565b60006020828403121561314757600080fd5b5035919050565b8151815260208083015190820152604081016108d3565b600081518084526020808501945080840160005b8381101561319557815187529582019590820190600101613179565b509495945050505050565b602081526000610a706020830184613165565b6001600160a01b03811681146131c857600080fd5b50565b60008083601f8401126131dd57600080fd5b5081356001600160401b038111156131f457600080fd5b6020830191508360208260051b850101111561121757600080fd5b60008060006040848603121561322457600080fd5b833561322f816131b3565b925060208401356001600160401b0381111561324a57600080fd5b613256868287016131cb565b9497909650939450505050565b8035801515811461327357600080fd5b919050565b60008060008060006080868803121561329057600080fd5b853561329b816131b3565b94506020860135935060408601356001600160401b038111156132bd57600080fd5b6132c9888289016131cb565b90945092506132dc905060608701613263565b90509295509295909350565b803560ff8116811461327357600080fd5b60008060008060008060a0878903121561331257600080fd5b86359550613322602088016132e8565b9450604087013593506060870135925060808701356001600160401b0381111561334b57600080fd5b61335789828a016131cb565b979a9699509497509295939492505050565b60006020828403121561337b57600080fd5b610a7082613263565b634e487b7160e01b600052604160045260246000fd5b604080519081016001600160401b03811182821017156133bc576133bc613384565b60405290565b60405160a081016001600160401b03811182821017156133bc576133bc613384565b604051601f8201601f191681016001600160401b038111828210171561340c5761340c613384565b604052919050565b60006020828403121561342657600080fd5b604051602081018181106001600160401b038211171561344857613448613384565b6040529050808235613459816131b3565b905292915050565b60006040828403121561347357600080fd5b61347b61339a565b905081356001600160401b038082111561349457600080fd5b818401915084601f8301126134a857600080fd5b81356020828211156134bc576134bc613384565b8160051b92506134cd8184016133e4565b82815292840181019281810190888511156134e757600080fd5b948201945b848610156135115785359350613501846131b3565b83825294820194908201906134ec565b808752505080860135818601525050505092915050565b600060a0828403121561353a57600080fd5b6135426133c2565b9050813561354f816131b3565b8152602061355e838201613263565b8183015260408301356001600160401b038082111561357c57600080fd5b818501915085601f83011261359057600080fd5b8135818111156135a2576135a2613384565b6135b4601f8201601f191685016133e4565b81815287858386010111156135c857600080fd5b8185850186830137600085838301015280604087015250506135ed8660608701613414565b6060850152608085013592508083111561360657600080fd5b505061361484828501613461565b60808301525092915050565b60006020828403121561363257600080fd5b81356001600160401b0381111561364857600080fd5b6117be84828501613528565b600060a0828403121561366657600080fd5b50919050565b60006020828403121561367e57600080fd5b81356001600160401b0381111561369457600080fd5b6117be84828501613654565b600060408083526136b381840186613165565b83810360208581019190915285518083528682019282019060005b818110156136fb576136eb83865180518252602090810151910152565b93830193918501916001016136ce565b509098975050505050505050565b6000806000806060858703121561371f57600080fd5b843561372a816131b3565b93506020850135925060408501356001600160401b0381111561374c57600080fd5b613758878288016131cb565b95989497509550505050565b60006020828403121561377657600080fd5b8135610a70816131b3565b60008060006060848603121561379657600080fd5b833592506137a6602085016132e8565b9150604084013590509250925092565b600080604083850312156137c957600080fd5b8235915060208301356137db816131b3565b809150509250929050565b60ff60f81b8816815260e06020820152600061380560e08301896130dc565b828103604084015261381781896130dc565b606084018890526001600160a01b038716608085015260a0840186905283810360c085015290506138488185613165565b9a9950505050505050505050565b600081518084526020808501945080840160005b838110156131955781516001600160a01b03168752958201959082019060010161386a565b602081526000610a706020830184613856565b6000806000604084860312156138b757600080fd5b83356001600160401b03808211156138ce57600080fd5b6138da87838801613654565b945060208601359150808211156138f057600080fd5b50613256868287016131cb565b634e487b7160e01b600052602160045260246000fd5b602081016005831061393557634e487b7160e01b600052602160045260246000fd5b91905290565b60208152600060018060a01b03808451166020840152602084015115156040840152604084015160a0606085015261397660c08501826130dc565b90508160608601515116608085015260808501519150601f198482030160a08501528151604082526139ab6040830182613856565b6020938401519290930191909152509392505050565b600080602083850312156139d457600080fd5b82356001600160401b038111156139ea57600080fd5b6139f6858286016131cb565b90969095509350505050565b600181811c90821680613a1657607f821691505b60208210810361366657634e487b7160e01b600052602260045260246000fd5b60208082526045908201527f526577617264734d6f64756c653a2072756e20736574536f72746564416e645460408201527f69656450726f706f73616c73282920746f20706f70756c61746520746869732060608201526476616c756560d81b608082015260a00190565b634e487b7160e01b600052601160045260246000fd5b808201808211156108d3576108d3613aa1565b6020808252602f908201527f476f7665726e6f723a20796f752063616e6e6f7420766f7465206f6e2061206460408201526e195b195d1959081c1c9bdc1bdcd85b608a1b606082015260800190565b634e487b7160e01b600052603260045260246000fd5b8181036000831280158383131683831282161715613b4f57613b4f613aa1565b5092915050565b600060018201613b6857613b68613aa1565b5060010190565b818103818111156108d3576108d3613aa1565b6020808252602f908201527f476f7665726e6f723a2061646472657373206973206e6f74207065726d69737360408201526e1a5bdb9959081d1bc81cdd589b5a5d608a1b606082015260800190565b60006108d33683613528565b6020808252602c908201527f476f7665726e6f723a2070726f706f73616c20636f6e74656e74206661696c6560408201526b32103b30b634b230ba34b7b760a11b606082015260800190565b6020808252810182905260006001600160fb1b03831115613c4957600080fd5b8260051b80856040850137919091016040019392505050565b601f821115613cac57600081815260208120601f850160051c81016020861015613c895750805b601f850160051c820191505b81811015613ca857828155600101613c95565b5050505b505050565b81516001600160401b03811115613cca57613cca613384565b613cde81613cd88454613a02565b84613c62565b602080601f831160018114613d135760008415613cfb5750858301515b600019600386901b1c1916600185901b178555613ca8565b600085815260208120601f198616915b82811015613d4257888601518255948401946001909101908401613d23565b5085821015613d605787850151600019600388901b60f8161c191681555b5050505050600190811b0190555056fea2646970667358221220d8e0f3b9ea46efdf9b11110d4433a5f1f4f1aee492b4f7ac03d7a0d5fbeb783a64736f6c63430008130033",
    "linkReferences": {}
  },
  "methodIdentifiers": {
    "AMOUNT_FOR_SUMBITTER_PROOF()": "347cf665",
    "METADATAS_COUNT()": "4d24a67f",
    "addressSubmitterVerified(address)": "cb853950",
    "addressTotalCastVoteCounts(address)": "a1ac6cb2",
    "addressTotalVotes(address)": "dea5f6a6",
    "addressTotalVotesVerified(address)": "930de979",
    "allProposalTotalVotes()": "50a5e524",
    "allProposalTotalVotesWithoutDeleted()": "d45a010b",
    "cancel()": "ea8a1af0",
    "castVote(uint256,uint8,uint256,uint256,bytes32[])": "419c533c",
    "castVoteWithoutProof(uint256,uint8,uint256)": "65f16263",
    "checkProof(address,uint256,bytes32[],bool)": "32763c22",
    "contestAddressTotalVotesCast(address)": "aec116b6",
    "contestDeadline()": "262e59e9",
    "contestStart()": "004114a8",
    "creator()": "02d05d3f",
    "deleteProposals(uint256[])": "f0a7db0a",
    "downvotingAllowed()": "60506ff6",
    "eip712Domain()": "84b0196e",
    "getAllDeletedProposalIds()": "1242b737",
    "getAllProposalAuthors()": "946369b5",
    "getAllProposalIds()": "efa90d36",
    "getNumSubmissions(address)": "5f953a03",
    "getProposal(uint256)": "c7f758a8",
    "hashProposal((address,bool,string,(address),(address[],uint256)))": "458da87d",
    "highestTiedRanking()": "ebc18b9b",
    "isProposalDeleted(uint256)": "3b6d199b",
    "isTied(uint256)": "2399c660",
    "lowestRanking()": "6ca1a2c7",
    "maxProposalCount()": "fb9bf8d4",
    "name()": "06fdde03",
    "numAllowedProposalSubmissions()": "832009af",
    "officialRewardsModule()": "785ddfe5",
    "prompt()": "7c65d711",
    "proposalAddressVotes(uint256,address)": "6e4eb810",
    "proposalAddressesHaveVoted(uint256)": "b323580d",
    "proposalVotes(uint256)": "544ffc9c",
    "proposalVotesStructs(uint256)": "070dc5d9",
    "propose((address,bool,string,(address),(address[],uint256)),bytes32[])": "c0ffaa78",
    "proposeWithoutProof((address,bool,string,(address),(address[],uint256)))": "476f4d8a",
    "rankingPosition(uint256)": "86187488",
    "setOfficialRewardsModule(address)": "f4f3d7ec",
    "setSortedAndTiedProposals()": "96f0e962",
    "setSortedAndTiedProposalsHasBeenRun()": "d8891619",
    "sortedProposalIds()": "8a9cd550",
    "sortedProposals(bool)": "427d56c2",
    "state()": "c19d93fb",
    "submissionMerkleRoot()": "bddc1641",
    "supportsInterface(bytes4)": "01ffc9a7",
    "tiedAdjustedRankingPosition(uint256)": "e5eb5a48",
    "totalVotesCast()": "7de418d5",
    "validateProposalData((address,bool,string,(address),(address[],uint256)))": "fb8ddab4",
    "verifyProposer(address,bytes32[])": "20b3e845",
    "verifyVoter(address,uint256,bytes32[])": "531bd812",
    "version()": "54fd4d50",
    "voteStart()": "e031535b",
    "votingDelay()": "3932abb1",
    "votingMerkleRoot()": "dd96a19d",
    "votingPeriod()": "02a251a3"
  },
  "id": 40
}