{
  "abi": [
    {
      "inputs": [
        {
          "internalType": "string",
          "name": "_name",
          "type": "string"
        },
        {
          "internalType": "string",
          "name": "_prompt",
          "type": "string"
        },
        {
          "internalType": "bytes32",
          "name": "_submissionMerkleRoot",
          "type": "bytes32"
        },
        {
          "internalType": "bytes32",
          "name": "_votingMerkleRoot",
          "type": "bytes32"
        },
        {
          "internalType": "uint256[]",
          "name": "_constructorIntParams",
          "type": "uint256[]"
        }
      ],
      "stateMutability": "nonpayable",
      "type": "constructor"
    },
    {
      "inputs": [],
      "name": "AddressNotPermissionedToSubmit",
      "type": "error"
    },
    {
      "inputs": [
        {
          "internalType": "address",
          "name": "author",
          "type": "address"
        },
        {
          "internalType": "address",
          "name": "sender",
          "type": "address"
        }
      ],
      "name": "AuthorIsNotSender",
      "type": "error"
    },
    {
      "inputs": [],
      "name": "CannotDeleteWhenCompleted",
      "type": "error"
    },
    {
      "inputs": [],
      "name": "CannotVoteOnDeletedProposal",
      "type": "error"
    },
    {
      "inputs": [],
      "name": "ContestAlreadyCancelled",
      "type": "error"
    },
    {
      "inputs": [
        {
          "internalType": "enum Governor.ContestState",
          "name": "currentState",
          "type": "uint8"
        }
      ],
      "name": "ContestMustBeActiveToVote",
      "type": "error"
    },
    {
      "inputs": [
        {
          "internalType": "enum Governor.ContestState",
          "name": "currentState",
          "type": "uint8"
        }
      ],
      "name": "ContestMustBeQueuedToPropose",
      "type": "error"
    },
    {
      "inputs": [
        {
          "internalType": "uint256",
          "name": "maxProposalCount",
          "type": "uint256"
        }
      ],
      "name": "ContestSubmissionLimitReached",
      "type": "error"
    },
    {
      "inputs": [],
      "name": "DownvotingNotEnabled",
      "type": "error"
    },
    {
      "inputs": [
        {
          "internalType": "uint256",
          "name": "proposalId",
          "type": "uint256"
        }
      ],
      "name": "DuplicateSubmission",
      "type": "error"
    },
    {
      "inputs": [],
      "name": "EmptyProposalDescription",
      "type": "error"
    },
    {
      "inputs": [
        {
          "internalType": "uint256",
          "name": "msgValue",
          "type": "uint256"
        },
        {
          "internalType": "uint256",
          "name": "costToPropose",
          "type": "uint256"
        }
      ],
      "name": "IncorrectCostToProposeSent",
      "type": "error"
    },
    {
      "inputs": [],
      "name": "IndexHasNotBeenPopulated",
      "type": "error"
    },
    {
      "inputs": [],
      "name": "InvalidVoteType",
      "type": "error"
    },
    {
      "inputs": [],
      "name": "MoreThanOneProposalWithThisManyVotes",
      "type": "error"
    },
    {
      "inputs": [],
      "name": "NeedAtLeastOneVoteToVote",
      "type": "error"
    },
    {
      "inputs": [],
      "name": "NeedToSubmitWithProofFirst",
      "type": "error"
    },
    {
      "inputs": [],
      "name": "NeedToVoteWithProofFirst",
      "type": "error"
    },
    {
      "inputs": [],
      "name": "NotEnoughVotesLeft",
      "type": "error"
    },
    {
      "inputs": [],
      "name": "NotInMerkle",
      "type": "error"
    },
    {
      "inputs": [],
      "name": "OnlyCreatorCanDelete",
      "type": "error"
    },
    {
      "inputs": [],
      "name": "OnlyCreatorCanSetRewardsModule",
      "type": "error"
    },
    {
      "inputs": [
        {
          "internalType": "uint256",
          "name": "failedToDeleteCommentId",
          "type": "uint256"
        }
      ],
      "name": "OnlyCreatorOrAuthorCanDeleteComments",
      "type": "error"
    },
    {
      "inputs": [],
      "name": "OnlyJkLabsOrCreatorCanCancel",
      "type": "error"
    },
    {
      "inputs": [],
      "name": "RankCannotBeZero",
      "type": "error"
    },
    {
      "inputs": [],
      "name": "RankIsNotInSortedRanks",
      "type": "error"
    },
    {
      "inputs": [
        {
          "internalType": "uint256",
          "name": "numAllowedProposalSubmissions",
          "type": "uint256"
        }
      ],
      "name": "SenderSubmissionLimitReached",
      "type": "error"
    },
    {
      "inputs": [
        {
          "internalType": "enum Governor.Metadatas",
          "name": "unexpectedMetadata",
          "type": "uint8"
        }
      ],
      "name": "UnexpectedMetadata",
      "type": "error"
    },
    {
      "inputs": [],
      "name": "ZeroSignersInSafeMetadata",
      "type": "error"
    },
    {
      "inputs": [],
      "name": "ZeroThresholdInSafeMetadata",
      "type": "error"
    },
    {
      "anonymous": false,
      "inputs": [
        {
          "indexed": false,
          "internalType": "uint256",
          "name": "commentId",
          "type": "uint256"
        }
      ],
      "name": "CommentCreated",
      "type": "event"
    },
    {
      "anonymous": false,
      "inputs": [
        {
          "indexed": false,
          "internalType": "uint256[]",
          "name": "commentIds",
          "type": "uint256[]"
        }
      ],
      "name": "CommentsDeleted",
      "type": "event"
    },
    {
      "anonymous": false,
      "inputs": [],
      "name": "ContestCanceled",
      "type": "event"
    },
    {
      "anonymous": false,
      "inputs": [
        {
          "indexed": false,
          "internalType": "string",
          "name": "name",
          "type": "string"
        },
        {
          "indexed": false,
          "internalType": "address",
          "name": "creator",
          "type": "address"
        }
      ],
      "name": "JokeraceCreated",
      "type": "event"
    },
    {
      "anonymous": false,
      "inputs": [
        {
          "indexed": false,
          "internalType": "contract RewardsModule",
          "name": "oldOfficialRewardsModule",
          "type": "address"
        },
        {
          "indexed": false,
          "internalType": "contract RewardsModule",
          "name": "newOfficialRewardsModule",
          "type": "address"
        }
      ],
      "name": "OfficialRewardsModuleSet",
      "type": "event"
    },
    {
      "anonymous": false,
      "inputs": [
        {
          "indexed": false,
          "internalType": "address",
          "name": "to",
          "type": "address"
        },
        {
          "indexed": false,
          "internalType": "uint256",
          "name": "amount",
          "type": "uint256"
        }
      ],
      "name": "PaymentReleased",
      "type": "event"
    },
    {
      "anonymous": false,
      "inputs": [
        {
          "indexed": false,
          "internalType": "uint256",
          "name": "proposalId",
          "type": "uint256"
        },
        {
          "indexed": false,
          "internalType": "address",
          "name": "proposer",
          "type": "address"
        }
      ],
      "name": "ProposalCreated",
      "type": "event"
    },
    {
      "anonymous": false,
      "inputs": [
        {
          "indexed": false,
          "internalType": "uint256[]",
          "name": "proposalIds",
          "type": "uint256[]"
        }
      ],
      "name": "ProposalsDeleted",
      "type": "event"
    },
    {
      "anonymous": false,
      "inputs": [
        {
          "indexed": true,
          "internalType": "address",
          "name": "voter",
          "type": "address"
        },
        {
          "indexed": false,
          "internalType": "uint256",
          "name": "proposalId",
          "type": "uint256"
        },
        {
          "indexed": false,
          "internalType": "uint8",
          "name": "support",
          "type": "uint8"
        },
        {
          "indexed": false,
          "internalType": "uint256",
          "name": "numVotes",
          "type": "uint256"
        }
      ],
      "name": "VoteCast",
      "type": "event"
    },
    {
      "inputs": [],
      "name": "AMOUNT_FOR_SUMBITTER_PROOF",
      "outputs": [
        {
          "internalType": "uint256",
          "name": "",
          "type": "uint256"
        }
      ],
      "stateMutability": "view",
      "type": "function"
    },
    {
      "inputs": [],
      "name": "JK_LABS_ADDRESS",
      "outputs": [
        {
          "internalType": "address",
          "name": "",
          "type": "address"
        }
      ],
      "stateMutability": "view",
      "type": "function"
    },
    {
      "inputs": [],
      "name": "METADATAS_COUNT",
      "outputs": [
        {
          "internalType": "uint256",
          "name": "",
          "type": "uint256"
        }
      ],
      "stateMutability": "view",
      "type": "function"
    },
    {
      "inputs": [
        {
          "internalType": "address",
          "name": "",
          "type": "address"
        }
      ],
      "name": "addressSubmitterVerified",
      "outputs": [
        {
          "internalType": "bool",
          "name": "",
          "type": "bool"
        }
      ],
      "stateMutability": "view",
      "type": "function"
    },
    {
      "inputs": [
        {
          "internalType": "address",
          "name": "",
          "type": "address"
        }
      ],
      "name": "addressTotalCastVoteCounts",
      "outputs": [
        {
          "internalType": "uint256",
          "name": "",
          "type": "uint256"
        }
      ],
      "stateMutability": "view",
      "type": "function"
    },
    {
      "inputs": [
        {
          "internalType": "address",
          "name": "",
          "type": "address"
        }
      ],
      "name": "addressTotalVotes",
      "outputs": [
        {
          "internalType": "uint256",
          "name": "",
          "type": "uint256"
        }
      ],
      "stateMutability": "view",
      "type": "function"
    },
    {
      "inputs": [
        {
          "internalType": "address",
          "name": "",
          "type": "address"
        }
      ],
      "name": "addressTotalVotesVerified",
      "outputs": [
        {
          "internalType": "bool",
          "name": "",
          "type": "bool"
        }
      ],
      "stateMutability": "view",
      "type": "function"
    },
    {
      "inputs": [
        {
          "internalType": "uint256",
          "name": "",
          "type": "uint256"
        }
      ],
      "name": "addressesThatHaveVoted",
      "outputs": [
        {
          "internalType": "address",
          "name": "",
          "type": "address"
        }
      ],
      "stateMutability": "view",
      "type": "function"
    },
    {
      "inputs": [],
      "name": "allProposalTotalVotes",
      "outputs": [
        {
          "internalType": "uint256[]",
          "name": "proposalIdsReturn",
          "type": "uint256[]"
        },
        {
          "components": [
            {
              "internalType": "uint256",
              "name": "forVotes",
              "type": "uint256"
            },
            {
              "internalType": "uint256",
              "name": "againstVotes",
              "type": "uint256"
            }
          ],
          "internalType": "struct GovernorCountingSimple.VoteCounts[]",
          "name": "proposalVoteCountsArrayReturn",
          "type": "tuple[]"
        }
      ],
      "stateMutability": "view",
      "type": "function"
    },
    {
      "inputs": [],
      "name": "allProposalTotalVotesWithoutDeleted",
      "outputs": [
        {
          "internalType": "uint256[]",
          "name": "proposalIdsReturn",
          "type": "uint256[]"
        },
        {
          "components": [
            {
              "internalType": "uint256",
              "name": "forVotes",
              "type": "uint256"
            },
            {
              "internalType": "uint256",
              "name": "againstVotes",
              "type": "uint256"
            }
          ],
          "internalType": "struct GovernorCountingSimple.VoteCounts[]",
          "name": "proposalVoteCountsArrayReturn",
          "type": "tuple[]"
        }
      ],
      "stateMutability": "view",
      "type": "function"
    },
    {
      "inputs": [],
      "name": "cancel",
      "outputs": [],
      "stateMutability": "nonpayable",
      "type": "function"
    },
    {
      "inputs": [],
      "name": "canceled",
      "outputs": [
        {
          "internalType": "bool",
          "name": "",
          "type": "bool"
        }
      ],
      "stateMutability": "view",
      "type": "function"
    },
    {
      "inputs": [
        {
          "internalType": "uint256",
          "name": "proposalId",
          "type": "uint256"
        },
        {
          "internalType": "uint8",
          "name": "support",
          "type": "uint8"
        },
        {
          "internalType": "uint256",
          "name": "totalVotes",
          "type": "uint256"
        },
        {
          "internalType": "uint256",
          "name": "numVotes",
          "type": "uint256"
        },
        {
          "internalType": "bytes32[]",
          "name": "proof",
          "type": "bytes32[]"
        }
      ],
      "name": "castVote",
      "outputs": [
        {
          "internalType": "uint256",
          "name": "",
          "type": "uint256"
        }
      ],
      "stateMutability": "nonpayable",
      "type": "function"
    },
    {
      "inputs": [
        {
          "internalType": "uint256",
          "name": "proposalId",
          "type": "uint256"
        },
        {
          "internalType": "uint8",
          "name": "support",
          "type": "uint8"
        },
        {
          "internalType": "uint256",
          "name": "numVotes",
          "type": "uint256"
        }
      ],
      "name": "castVoteWithoutProof",
      "outputs": [
        {
          "internalType": "uint256",
          "name": "",
          "type": "uint256"
        }
      ],
      "stateMutability": "nonpayable",
      "type": "function"
    },
    {
      "inputs": [
        {
          "internalType": "address",
          "name": "addressToCheck",
          "type": "address"
        },
        {
          "internalType": "uint256",
          "name": "amount",
          "type": "uint256"
        },
        {
          "internalType": "bytes32[]",
          "name": "proof",
          "type": "bytes32[]"
        },
        {
          "internalType": "bool",
          "name": "voting",
          "type": "bool"
        }
      ],
      "name": "checkProof",
      "outputs": [
        {
          "internalType": "bool",
          "name": "verified",
          "type": "bool"
        }
      ],
      "stateMutability": "view",
      "type": "function"
    },
    {
      "inputs": [
        {
          "internalType": "uint256",
          "name": "proposalId",
          "type": "uint256"
        },
        {
          "internalType": "string",
          "name": "commentContent",
          "type": "string"
        }
      ],
      "name": "comment",
      "outputs": [
        {
          "internalType": "uint256",
          "name": "",
          "type": "uint256"
        }
      ],
      "stateMutability": "nonpayable",
      "type": "function"
    },
    {
      "inputs": [
        {
          "internalType": "uint256",
          "name": "",
          "type": "uint256"
        }
      ],
      "name": "commentIds",
      "outputs": [
        {
          "internalType": "uint256",
          "name": "",
          "type": "uint256"
        }
      ],
      "stateMutability": "view",
      "type": "function"
    },
    {
      "inputs": [
        {
          "internalType": "uint256",
          "name": "",
          "type": "uint256"
        }
      ],
      "name": "commentIsDeleted",
      "outputs": [
        {
          "internalType": "bool",
          "name": "",
          "type": "bool"
        }
      ],
      "stateMutability": "view",
      "type": "function"
    },
    {
      "inputs": [
        {
          "internalType": "uint256",
          "name": "",
          "type": "uint256"
        }
      ],
      "name": "comments",
      "outputs": [
        {
          "internalType": "address",
          "name": "author",
          "type": "address"
        },
        {
          "internalType": "uint256",
          "name": "timestamp",
          "type": "uint256"
        },
        {
          "internalType": "uint256",
          "name": "proposalId",
          "type": "uint256"
        },
        {
          "internalType": "string",
          "name": "commentContent",
          "type": "string"
        }
      ],
      "stateMutability": "view",
      "type": "function"
    },
    {
      "inputs": [
        {
          "internalType": "address",
          "name": "userAddress",
          "type": "address"
        }
      ],
      "name": "contestAddressTotalVotesCast",
      "outputs": [
        {
          "internalType": "uint256",
          "name": "userTotalVotesCast",
          "type": "uint256"
        }
      ],
      "stateMutability": "view",
      "type": "function"
    },
    {
      "inputs": [],
      "name": "contestDeadline",
      "outputs": [
        {
          "internalType": "uint256",
          "name": "",
          "type": "uint256"
        }
      ],
      "stateMutability": "view",
      "type": "function"
    },
    {
      "inputs": [],
      "name": "contestStart",
      "outputs": [
        {
          "internalType": "uint256",
          "name": "",
          "type": "uint256"
        }
      ],
      "stateMutability": "view",
      "type": "function"
    },
    {
      "inputs": [],
      "name": "costToPropose",
      "outputs": [
        {
          "internalType": "uint256",
          "name": "",
          "type": "uint256"
        }
      ],
      "stateMutability": "view",
      "type": "function"
    },
    {
      "inputs": [],
      "name": "creator",
      "outputs": [
        {
          "internalType": "address",
          "name": "",
          "type": "address"
        }
      ],
      "stateMutability": "view",
      "type": "function"
    },
    {
      "inputs": [
        {
          "internalType": "uint256[]",
          "name": "commentIdsParam",
          "type": "uint256[]"
        }
      ],
      "name": "deleteComments",
      "outputs": [],
      "stateMutability": "nonpayable",
      "type": "function"
    },
    {
      "inputs": [
        {
          "internalType": "uint256[]",
          "name": "proposalIdsToDelete",
          "type": "uint256[]"
        }
      ],
      "name": "deleteProposals",
      "outputs": [],
      "stateMutability": "nonpayable",
      "type": "function"
    },
    {
      "inputs": [
        {
          "internalType": "uint256",
          "name": "",
          "type": "uint256"
        }
      ],
      "name": "deletedCommentIds",
      "outputs": [
        {
          "internalType": "uint256",
          "name": "",
          "type": "uint256"
        }
      ],
      "stateMutability": "view",
      "type": "function"
    },
    {
      "inputs": [
        {
          "internalType": "uint256",
          "name": "",
          "type": "uint256"
        }
      ],
      "name": "deletedProposalIds",
      "outputs": [
        {
          "internalType": "uint256",
          "name": "",
          "type": "uint256"
        }
      ],
      "stateMutability": "view",
      "type": "function"
    },
    {
      "inputs": [],
      "name": "downvotingAllowed",
      "outputs": [
        {
          "internalType": "uint256",
          "name": "",
          "type": "uint256"
        }
      ],
      "stateMutability": "view",
      "type": "function"
    },
    {
      "inputs": [
        {
          "internalType": "uint256",
          "name": "",
          "type": "uint256"
        },
        {
          "internalType": "uint256",
          "name": "",
          "type": "uint256"
        }
      ],
      "name": "forVotesToProposalIds",
      "outputs": [
        {
          "internalType": "uint256",
          "name": "",
          "type": "uint256"
        }
      ],
      "stateMutability": "view",
      "type": "function"
    },
    {
      "inputs": [],
      "name": "getAllAddressesThatHaveVoted",
      "outputs": [
        {
          "internalType": "address[]",
          "name": "",
          "type": "address[]"
        }
      ],
      "stateMutability": "view",
      "type": "function"
    },
    {
      "inputs": [],
      "name": "getAllCommentIds",
      "outputs": [
        {
          "internalType": "uint256[]",
          "name": "",
          "type": "uint256[]"
        }
      ],
      "stateMutability": "view",
      "type": "function"
    },
    {
      "inputs": [],
      "name": "getAllDeletedCommentIds",
      "outputs": [
        {
          "internalType": "uint256[]",
          "name": "",
          "type": "uint256[]"
        }
      ],
      "stateMutability": "view",
      "type": "function"
    },
    {
      "inputs": [],
      "name": "getAllDeletedProposalIds",
      "outputs": [
        {
          "internalType": "uint256[]",
          "name": "",
          "type": "uint256[]"
        }
      ],
      "stateMutability": "view",
      "type": "function"
    },
    {
      "inputs": [],
      "name": "getAllProposalAuthors",
      "outputs": [
        {
          "internalType": "address[]",
          "name": "",
          "type": "address[]"
        }
      ],
      "stateMutability": "view",
      "type": "function"
    },
    {
      "inputs": [],
      "name": "getAllProposalIds",
      "outputs": [
        {
          "internalType": "uint256[]",
          "name": "",
          "type": "uint256[]"
        }
      ],
      "stateMutability": "view",
      "type": "function"
    },
    {
      "inputs": [
        {
          "internalType": "uint256",
          "name": "commentId",
          "type": "uint256"
        }
      ],
      "name": "getComment",
      "outputs": [
        {
          "components": [
            {
              "internalType": "address",
              "name": "author",
              "type": "address"
            },
            {
              "internalType": "uint256",
              "name": "timestamp",
              "type": "uint256"
            },
            {
              "internalType": "uint256",
              "name": "proposalId",
              "type": "uint256"
            },
            {
              "internalType": "string",
              "name": "commentContent",
              "type": "string"
            }
          ],
          "internalType": "struct GovernorEngagement.CommentCore",
          "name": "",
          "type": "tuple"
        }
      ],
      "stateMutability": "view",
      "type": "function"
    },
    {
      "inputs": [
        {
          "internalType": "uint256",
          "name": "forVotes",
          "type": "uint256"
        }
      ],
      "name": "getNumProposalsWithThisManyForVotes",
      "outputs": [
        {
          "internalType": "uint256",
          "name": "count",
          "type": "uint256"
        }
      ],
      "stateMutability": "view",
      "type": "function"
    },
    {
      "inputs": [
        {
          "internalType": "uint256",
          "name": "forVotes",
          "type": "uint256"
        }
      ],
      "name": "getOnlyProposalIdWithThisManyForVotes",
      "outputs": [
        {
          "internalType": "uint256",
          "name": "proposalId",
          "type": "uint256"
        }
      ],
      "stateMutability": "view",
      "type": "function"
    },
    {
      "inputs": [
        {
          "internalType": "uint256",
          "name": "proposalId",
          "type": "uint256"
        }
      ],
      "name": "getProposal",
      "outputs": [
        {
          "components": [
            {
              "internalType": "address",
              "name": "author",
              "type": "address"
            },
            {
              "internalType": "bool",
              "name": "exists",
              "type": "bool"
            },
            {
              "internalType": "string",
              "name": "description",
              "type": "string"
            },
            {
              "components": [
                {
                  "internalType": "address",
                  "name": "targetAddress",
                  "type": "address"
                }
              ],
              "internalType": "struct Governor.TargetMetadata",
              "name": "targetMetadata",
              "type": "tuple"
            },
            {
              "components": [
                {
                  "internalType": "address[]",
                  "name": "signers",
                  "type": "address[]"
                },
                {
                  "internalType": "uint256",
                  "name": "threshold",
                  "type": "uint256"
                }
              ],
              "internalType": "struct Governor.SafeMetadata",
              "name": "safeMetadata",
              "type": "tuple"
            }
          ],
          "internalType": "struct Governor.ProposalCore",
          "name": "",
          "type": "tuple"
        }
      ],
      "stateMutability": "view",
      "type": "function"
    },
    {
      "inputs": [
        {
          "internalType": "uint256",
          "name": "proposalId",
          "type": "uint256"
        }
      ],
      "name": "getProposalComments",
      "outputs": [
        {
          "internalType": "uint256[]",
          "name": "",
          "type": "uint256[]"
        }
      ],
      "stateMutability": "view",
      "type": "function"
    },
    {
      "inputs": [
        {
          "internalType": "uint256",
          "name": "forVotes",
          "type": "uint256"
        }
      ],
      "name": "getProposalsWithThisManyForVotes",
      "outputs": [
        {
          "internalType": "uint256[]",
          "name": "proposalsWithThisManyForVotes",
          "type": "uint256[]"
        }
      ],
      "stateMutability": "view",
      "type": "function"
    },
    {
      "inputs": [
        {
          "internalType": "uint256",
          "name": "rank",
          "type": "uint256"
        }
      ],
      "name": "getRankIndex",
      "outputs": [
        {
          "internalType": "uint256",
          "name": "rankIndex",
          "type": "uint256"
        }
      ],
      "stateMutability": "view",
      "type": "function"
    },
    {
      "inputs": [],
      "name": "getSortedRanks",
      "outputs": [
        {
          "internalType": "uint256[]",
          "name": "sortedRanksArray",
          "type": "uint256[]"
        }
      ],
      "stateMutability": "view",
      "type": "function"
    },
    {
      "inputs": [
        {
          "components": [
            {
              "internalType": "address",
              "name": "author",
              "type": "address"
            },
            {
              "internalType": "uint256",
              "name": "timestamp",
              "type": "uint256"
            },
            {
              "internalType": "uint256",
              "name": "proposalId",
              "type": "uint256"
            },
            {
              "internalType": "string",
              "name": "commentContent",
              "type": "string"
            }
          ],
          "internalType": "struct GovernorEngagement.CommentCore",
          "name": "commentObj",
          "type": "tuple"
        }
      ],
      "name": "hashComment",
      "outputs": [
        {
          "internalType": "uint256",
          "name": "",
          "type": "uint256"
        }
      ],
      "stateMutability": "pure",
      "type": "function"
    },
    {
      "inputs": [
        {
          "components": [
            {
              "internalType": "address",
              "name": "author",
              "type": "address"
            },
            {
              "internalType": "bool",
              "name": "exists",
              "type": "bool"
            },
            {
              "internalType": "string",
              "name": "description",
              "type": "string"
            },
            {
              "components": [
                {
                  "internalType": "address",
                  "name": "targetAddress",
                  "type": "address"
                }
              ],
              "internalType": "struct Governor.TargetMetadata",
              "name": "targetMetadata",
              "type": "tuple"
            },
            {
              "components": [
                {
                  "internalType": "address[]",
                  "name": "signers",
                  "type": "address[]"
                },
                {
                  "internalType": "uint256",
                  "name": "threshold",
                  "type": "uint256"
                }
              ],
              "internalType": "struct Governor.SafeMetadata",
              "name": "safeMetadata",
              "type": "tuple"
            }
          ],
          "internalType": "struct Governor.ProposalCore",
          "name": "proposal",
          "type": "tuple"
        }
      ],
      "name": "hashProposal",
      "outputs": [
        {
          "internalType": "uint256",
          "name": "",
          "type": "uint256"
        }
      ],
      "stateMutability": "pure",
      "type": "function"
    },
    {
      "inputs": [
        {
          "internalType": "uint256",
          "name": "idx",
          "type": "uint256"
        }
      ],
      "name": "isOrIsBelowTiedRank",
      "outputs": [
        {
          "internalType": "bool",
          "name": "atOrBelowTiedRank",
          "type": "bool"
        }
      ],
      "stateMutability": "view",
      "type": "function"
    },
    {
      "inputs": [],
      "name": "maxProposalCount",
      "outputs": [
        {
          "internalType": "uint256",
          "name": "",
          "type": "uint256"
        }
      ],
      "stateMutability": "view",
      "type": "function"
    },
    {
      "inputs": [],
      "name": "name",
      "outputs": [
        {
          "internalType": "string",
          "name": "",
          "type": "string"
        }
      ],
      "stateMutability": "view",
      "type": "function"
    },
    {
      "inputs": [],
      "name": "numAllowedProposalSubmissions",
      "outputs": [
        {
          "internalType": "uint256",
          "name": "",
          "type": "uint256"
        }
      ],
      "stateMutability": "view",
      "type": "function"
    },
    {
      "inputs": [
        {
          "internalType": "address",
          "name": "",
          "type": "address"
        }
      ],
      "name": "numSubmissions",
      "outputs": [
        {
          "internalType": "uint256",
          "name": "",
          "type": "uint256"
        }
      ],
      "stateMutability": "view",
      "type": "function"
    },
    {
      "inputs": [],
      "name": "officialRewardsModule",
      "outputs": [
        {
          "internalType": "contract RewardsModule",
          "name": "",
          "type": "address"
        }
      ],
      "stateMutability": "view",
      "type": "function"
    },
    {
      "inputs": [],
      "name": "percentageToCreator",
      "outputs": [
        {
          "internalType": "uint256",
          "name": "",
          "type": "uint256"
        }
      ],
      "stateMutability": "view",
      "type": "function"
    },
    {
      "inputs": [],
      "name": "prompt",
      "outputs": [
        {
          "internalType": "string",
          "name": "",
          "type": "string"
        }
      ],
      "stateMutability": "view",
      "type": "function"
    },
    {
      "inputs": [
        {
          "internalType": "uint256",
          "name": "proposalId",
          "type": "uint256"
        },
        {
          "internalType": "address",
          "name": "userAddress",
          "type": "address"
        }
      ],
      "name": "proposalAddressVotes",
      "outputs": [
        {
          "internalType": "uint256",
          "name": "forVotes",
          "type": "uint256"
        },
        {
          "internalType": "uint256",
          "name": "againstVotes",
          "type": "uint256"
        }
      ],
      "stateMutability": "view",
      "type": "function"
    },
    {
      "inputs": [
        {
          "internalType": "uint256",
          "name": "proposalId",
          "type": "uint256"
        }
      ],
      "name": "proposalAddressesHaveVoted",
      "outputs": [
        {
          "internalType": "address[]",
          "name": "",
          "type": "address[]"
        }
      ],
      "stateMutability": "view",
      "type": "function"
    },
    {
      "inputs": [
        {
          "internalType": "uint256",
          "name": "",
          "type": "uint256"
        }
      ],
      "name": "proposalAuthors",
      "outputs": [
        {
          "internalType": "address",
          "name": "",
          "type": "address"
        }
      ],
      "stateMutability": "view",
      "type": "function"
    },
    {
      "inputs": [
        {
          "internalType": "uint256",
          "name": "",
          "type": "uint256"
        },
        {
          "internalType": "uint256",
          "name": "",
          "type": "uint256"
        }
      ],
      "name": "proposalComments",
      "outputs": [
        {
          "internalType": "uint256",
          "name": "",
          "type": "uint256"
        }
      ],
      "stateMutability": "view",
      "type": "function"
    },
    {
      "inputs": [
        {
          "internalType": "uint256",
          "name": "",
          "type": "uint256"
        }
      ],
      "name": "proposalIds",
      "outputs": [
        {
          "internalType": "uint256",
          "name": "",
          "type": "uint256"
        }
      ],
      "stateMutability": "view",
      "type": "function"
    },
    {
      "inputs": [
        {
          "internalType": "uint256",
          "name": "",
          "type": "uint256"
        }
      ],
      "name": "proposalIsDeleted",
      "outputs": [
        {
          "internalType": "bool",
          "name": "",
          "type": "bool"
        }
      ],
      "stateMutability": "view",
      "type": "function"
    },
    {
      "inputs": [
        {
          "internalType": "uint256",
          "name": "proposalId",
          "type": "uint256"
        }
      ],
      "name": "proposalVotes",
      "outputs": [
        {
          "internalType": "uint256",
          "name": "forVotes",
          "type": "uint256"
        },
        {
          "internalType": "uint256",
          "name": "againstVotes",
          "type": "uint256"
        }
      ],
      "stateMutability": "view",
      "type": "function"
    },
    {
      "inputs": [
        {
          "internalType": "uint256",
          "name": "",
          "type": "uint256"
        }
      ],
      "name": "proposalVotesStructs",
      "outputs": [
        {
          "components": [
            {
              "internalType": "uint256",
              "name": "forVotes",
              "type": "uint256"
            },
            {
              "internalType": "uint256",
              "name": "againstVotes",
              "type": "uint256"
            }
          ],
          "internalType": "struct GovernorCountingSimple.VoteCounts",
          "name": "proposalVoteCounts",
          "type": "tuple"
        }
      ],
      "stateMutability": "view",
      "type": "function"
    },
    {
      "inputs": [
        {
          "internalType": "uint256",
          "name": "",
          "type": "uint256"
        }
      ],
      "name": "proposals",
      "outputs": [
        {
          "internalType": "address",
          "name": "author",
          "type": "address"
        },
        {
          "internalType": "bool",
          "name": "exists",
          "type": "bool"
        },
        {
          "internalType": "string",
          "name": "description",
          "type": "string"
        },
        {
          "components": [
            {
              "internalType": "address",
              "name": "targetAddress",
              "type": "address"
            }
          ],
          "internalType": "struct Governor.TargetMetadata",
          "name": "targetMetadata",
          "type": "tuple"
        },
        {
          "components": [
            {
              "internalType": "address[]",
              "name": "signers",
              "type": "address[]"
            },
            {
              "internalType": "uint256",
              "name": "threshold",
              "type": "uint256"
            }
          ],
          "internalType": "struct Governor.SafeMetadata",
          "name": "safeMetadata",
          "type": "tuple"
        }
      ],
      "stateMutability": "view",
      "type": "function"
    },
    {
      "inputs": [
        {
          "components": [
            {
              "internalType": "address",
              "name": "author",
              "type": "address"
            },
            {
              "internalType": "bool",
              "name": "exists",
              "type": "bool"
            },
            {
              "internalType": "string",
              "name": "description",
              "type": "string"
            },
            {
              "components": [
                {
                  "internalType": "address",
                  "name": "targetAddress",
                  "type": "address"
                }
              ],
              "internalType": "struct Governor.TargetMetadata",
              "name": "targetMetadata",
              "type": "tuple"
            },
            {
              "components": [
                {
                  "internalType": "address[]",
                  "name": "signers",
                  "type": "address[]"
                },
                {
                  "internalType": "uint256",
                  "name": "threshold",
                  "type": "uint256"
                }
              ],
              "internalType": "struct Governor.SafeMetadata",
              "name": "safeMetadata",
              "type": "tuple"
            }
          ],
          "internalType": "struct Governor.ProposalCore",
          "name": "proposal",
          "type": "tuple"
        },
        {
          "internalType": "bytes32[]",
          "name": "proof",
          "type": "bytes32[]"
        }
      ],
      "name": "propose",
      "outputs": [
        {
          "internalType": "uint256",
          "name": "",
          "type": "uint256"
        }
      ],
      "stateMutability": "payable",
      "type": "function"
    },
    {
      "inputs": [
        {
          "components": [
            {
              "internalType": "address",
              "name": "author",
              "type": "address"
            },
            {
              "internalType": "bool",
              "name": "exists",
              "type": "bool"
            },
            {
              "internalType": "string",
              "name": "description",
              "type": "string"
            },
            {
              "components": [
                {
                  "internalType": "address",
                  "name": "targetAddress",
                  "type": "address"
                }
              ],
              "internalType": "struct Governor.TargetMetadata",
              "name": "targetMetadata",
              "type": "tuple"
            },
            {
              "components": [
                {
                  "internalType": "address[]",
                  "name": "signers",
                  "type": "address[]"
                },
                {
                  "internalType": "uint256",
                  "name": "threshold",
                  "type": "uint256"
                }
              ],
              "internalType": "struct Governor.SafeMetadata",
              "name": "safeMetadata",
              "type": "tuple"
            }
          ],
          "internalType": "struct Governor.ProposalCore",
          "name": "proposal",
          "type": "tuple"
        }
      ],
      "name": "proposeWithoutProof",
      "outputs": [
        {
          "internalType": "uint256",
          "name": "",
          "type": "uint256"
        }
      ],
      "stateMutability": "payable",
      "type": "function"
    },
    {
      "inputs": [],
      "name": "rankLimit",
      "outputs": [
        {
          "internalType": "uint256",
          "name": "",
          "type": "uint256"
        }
      ],
      "stateMutability": "view",
      "type": "function"
    },
    {
      "inputs": [
        {
          "internalType": "contract RewardsModule",
          "name": "officialRewardsModule_",
          "type": "address"
        }
      ],
      "name": "setOfficialRewardsModule",
      "outputs": [],
      "stateMutability": "nonpayable",
      "type": "function"
    },
    {
      "inputs": [
        {
          "internalType": "uint256",
          "name": "",
          "type": "uint256"
        }
      ],
      "name": "sortedRanks",
      "outputs": [
        {
          "internalType": "uint256",
          "name": "",
          "type": "uint256"
        }
      ],
      "stateMutability": "view",
      "type": "function"
    },
    {
      "inputs": [],
      "name": "sortingEnabled",
      "outputs": [
        {
          "internalType": "uint256",
          "name": "",
          "type": "uint256"
        }
      ],
      "stateMutability": "view",
      "type": "function"
    },
    {
      "inputs": [],
      "name": "state",
      "outputs": [
        {
          "internalType": "enum Governor.ContestState",
          "name": "",
          "type": "uint8"
        }
      ],
      "stateMutability": "view",
      "type": "function"
    },
    {
      "inputs": [],
      "name": "submissionMerkleRoot",
      "outputs": [
        {
          "internalType": "bytes32",
          "name": "",
          "type": "bytes32"
        }
      ],
      "stateMutability": "view",
      "type": "function"
    },
    {
      "inputs": [],
      "name": "totalVotesCast",
      "outputs": [
        {
          "internalType": "uint256",
          "name": "",
          "type": "uint256"
        }
      ],
      "stateMutability": "view",
      "type": "function"
    },
    {
      "inputs": [
        {
          "components": [
            {
              "internalType": "address",
              "name": "author",
              "type": "address"
            },
            {
              "internalType": "bool",
              "name": "exists",
              "type": "bool"
            },
            {
              "internalType": "string",
              "name": "description",
              "type": "string"
            },
            {
              "components": [
                {
                  "internalType": "address",
                  "name": "targetAddress",
                  "type": "address"
                }
              ],
              "internalType": "struct Governor.TargetMetadata",
              "name": "targetMetadata",
              "type": "tuple"
            },
            {
              "components": [
                {
                  "internalType": "address[]",
                  "name": "signers",
                  "type": "address[]"
                },
                {
                  "internalType": "uint256",
                  "name": "threshold",
                  "type": "uint256"
                }
              ],
              "internalType": "struct Governor.SafeMetadata",
              "name": "safeMetadata",
              "type": "tuple"
            }
          ],
          "internalType": "struct Governor.ProposalCore",
          "name": "proposal",
          "type": "tuple"
        }
      ],
      "name": "validateProposalData",
      "outputs": [],
      "stateMutability": "view",
      "type": "function"
    },
    {
      "inputs": [
        {
          "internalType": "address",
          "name": "account",
          "type": "address"
        },
        {
          "internalType": "bytes32[]",
          "name": "proof",
          "type": "bytes32[]"
        }
      ],
      "name": "verifyProposer",
      "outputs": [],
      "stateMutability": "nonpayable",
      "type": "function"
    },
    {
      "inputs": [
        {
          "internalType": "address",
          "name": "account",
          "type": "address"
        },
        {
          "internalType": "uint256",
          "name": "totalVotes",
          "type": "uint256"
        },
        {
          "internalType": "bytes32[]",
          "name": "proof",
          "type": "bytes32[]"
        }
      ],
      "name": "verifyVoter",
      "outputs": [],
      "stateMutability": "nonpayable",
      "type": "function"
    },
    {
      "inputs": [],
      "name": "version",
      "outputs": [
        {
          "internalType": "string",
          "name": "",
          "type": "string"
        }
      ],
      "stateMutability": "pure",
      "type": "function"
    },
    {
      "inputs": [],
      "name": "voteStart",
      "outputs": [
        {
          "internalType": "uint256",
          "name": "",
          "type": "uint256"
        }
      ],
      "stateMutability": "view",
      "type": "function"
    },
    {
      "inputs": [],
      "name": "votingDelay",
      "outputs": [
        {
          "internalType": "uint256",
          "name": "",
          "type": "uint256"
        }
      ],
      "stateMutability": "view",
      "type": "function"
    },
    {
      "inputs": [],
      "name": "votingMerkleRoot",
      "outputs": [
        {
          "internalType": "bytes32",
          "name": "",
          "type": "bytes32"
        }
      ],
      "stateMutability": "view",
      "type": "function"
    },
    {
      "inputs": [],
      "name": "votingPeriod",
      "outputs": [
        {
          "internalType": "uint256",
          "name": "",
          "type": "uint256"
        }
      ],
      "stateMutability": "view",
      "type": "function"
    }
  ],
  "bytecode": {
    "object": "0x60806040523480156200001157600080fd5b5060405162004a8538038062004a8583398101604081905262000034916200030b565b84848484846000815181106200004e576200004e6200041c565b6020026020010151856001815181106200006c576200006c6200041c565b6020026020010151866002815181106200008a576200008a6200041c565b602002602001015187600381518110620000a857620000a86200041c565b602002602001015188600481518110620000c657620000c66200041c565b602002602001015189600581518110620000e457620000e46200041c565b60200260200101518a6006815181106200010257620001026200041c565b60200260200101518b6007815181106200012057620001206200041c565b602002602001015189898e6008815181106200014057620001406200041c565b60200260200101518f6009815181106200015e576200015e6200041c565b60209081029190910101516000919091556001556003919091556004556005620001898d82620004c1565b506006620001988c82620004c1565b50600780546001600160a01b0319163390811790915560088990556009889055600a879055600b869055600c859055600d849055600e839055600f8290556040517f1eae03a78f765227bc1e8574db32390cefa5b3c0a954017973e497e40a1237349162000209918f91906200058d565b60405180910390a15050505050505050505050505050505050620005d3565b634e487b7160e01b600052604160045260246000fd5b604051601f8201601f191681016001600160401b038111828210171562000269576200026962000228565b604052919050565b60005b838110156200028e57818101518382015260200162000274565b50506000910152565b600082601f830112620002a957600080fd5b81516001600160401b03811115620002c557620002c562000228565b620002da601f8201601f19166020016200023e565b818152846020838601011115620002f057600080fd5b6200030382602083016020870162000271565b949350505050565b600080600080600060a086880312156200032457600080fd5b85516001600160401b03808211156200033c57600080fd5b6200034a89838a0162000297565b96506020915081880151818111156200036257600080fd5b620003708a828b0162000297565b96505060408801519450606088015193506080880151818111156200039457600080fd5b8801601f81018a13620003a657600080fd5b805182811115620003bb57620003bb62000228565b8060051b9250620003ce8484016200023e565b818152928201840192848101908c851115620003e957600080fd5b928501925b848410156200040957835182529285019290850190620003ee565b8096505050505050509295509295909350565b634e487b7160e01b600052603260045260246000fd5b600181811c908216806200044757607f821691505b6020821081036200046857634e487b7160e01b600052602260045260246000fd5b50919050565b601f821115620004bc57600081815260208120601f850160051c81016020861015620004975750805b601f850160051c820191505b81811015620004b857828155600101620004a3565b5050505b505050565b81516001600160401b03811115620004dd57620004dd62000228565b620004f581620004ee845462000432565b846200046e565b602080601f8311600181146200052d5760008415620005145750858301515b600019600386901b1c1916600185901b178555620004b8565b600085815260208120601f198616915b828110156200055e578886015182559484019460019091019084016200053d565b50858210156200057d5787850151600019600388901b60f8161c191681555b5050505050600190811b01905550565b6040815260008351806040840152620005ae81606085016020880162000271565b6001600160a01b0393909316602083015250601f91909101601f191601606001919050565b6144a280620005e36000396000f3fe6080604052600436106104725760003560e01c806375e509c51161024a578063c19d93fb11610139578063edcd1be4116100b6578063f5c364111161007a578063f5c3641114610e2f578063f61736f414610e4f578063f79c017214610e6f578063fb8ddab414610e9f578063fb9bf8d414610ebf57600080fd5b8063edcd1be414610d9c578063eef18e1714610db2578063efa90d3614610dda578063f0a7db0a14610def578063f4f3d7ec14610e0f57600080fd5b8063dd96a19d116100fd578063dd96a19d14610d1a578063dea5f6a614610d30578063e031535b14610d5d578063e11db9d814610d72578063ea8a1af014610d8757600080fd5b8063c19d93fb14610c66578063c7f758a814610c88578063c9a1b6b214610cb5578063cb85395014610cd5578063d45a010b14610d0557600080fd5b80639ba197af116101c7578063b323580d1161018b578063b323580d14610bdd578063b66d1da314610bfd578063bddc164114610c1d578063c05f410414610c33578063c0ffaa7814610c5357600080fd5b80639ba197af14610afd578063a1ac6cb214610b2a578063ac67f80114610b57578063ae66b8ad14610b77578063aec116b614610ba757600080fd5b80638ebb4c151161020e5780638ebb4c1514610a485780639174778c14610a78578063930de97914610a98578063946369b514610ac85780639b644a2314610add57600080fd5b806375e509c5146109ba578063785ddfe5146109e75780637c65d71114610a075780637de418d514610a1c578063832009af14610a3257600080fd5b80633f9942ff11610366578063544ffc9c116102e357806365f16263116102a757806365f162631461092f5780636e4eb8101461094f5780636ed815ad1461096f5780636fd3636b14610985578063711effc81461099a57600080fd5b8063544ffc9c1461086d57806354fd4d50146108b75780635c7107d8146108e45780635cb718a11461090457806360506ff61461091957600080fd5b8063476f4d8a1161032a578063476f4d8a146107e25780634d24a67f146107f557806350a5e5241461080a57806350c4b6161461082d578063531bd8121461084d57600080fd5b80633f9942ff146107485780633fb57c9214610762578063409fd03014610782578063419c533c146107a2578063458da87d146107c257600080fd5b80631242b737116103f4578063325cc6d9116103b8578063325cc6d9146106b057806332763c22146106d0578063347cf66514610700578063366ecf5b1461071c5780633932abb11461073257600080fd5b80631242b737146106155780631805c5231461063757806320b3e84514610657578063262e59e9146106795780632c39805f1461068e57600080fd5b806305846cae1161043b57806305846cae1461053557806306fdde0314610555578063070dc5d9146105775780630800e300146105c85780630aa25e44146105f557600080fd5b80624114a814610477578063013cf08b146104a057806302a251a3146104d157806302d05d3f146104e75780630414126a1461051f575b600080fd5b34801561048357600080fd5b5061048d60085481565b6040519081526020015b60405180910390f35b3480156104ac57600080fd5b506104c06104bb3660046136c0565b610ed5565b604051610497959493929190613778565b3480156104dd57600080fd5b5061048d600a5481565b3480156104f357600080fd5b50600754610507906001600160a01b031681565b6040516001600160a01b039091168152602001610497565b34801561052b57600080fd5b5061048d60015481565b34801561054157600080fd5b5061048d6105503660046136c0565b61101d565b34801561056157600080fd5b5061056a61103e565b60405161049791906137ca565b34801561058357600080fd5b506105bb6105923660046136c0565b601d60209081526000918252604091829020825180840190935280548352600101549082015281565b60405161049791906137dd565b3480156105d457600080fd5b506105e86105e33660046136c0565b6110cc565b60405161049791906137f4565b34801561060157600080fd5b506105076106103660046136c0565b6111e0565b34801561062157600080fd5b5061062a61120a565b6040516104979190613870565b34801561064357600080fd5b5061048d6106523660046139a4565b611262565b34801561066357600080fd5b50610677610672366004613a43565b611381565b005b34801561068557600080fd5b5061048d6113f0565b34801561069a57600080fd5b506106a361140c565b6040516104979190613a97565b3480156106bc57600080fd5b5061048d6106cb3660046136c0565b61146d565b3480156106dc57600080fd5b506106f06106eb366004613af9565b61147d565b6040519015158152602001610497565b34801561070c57600080fd5b5061048d678ac7230489e8000081565b34801561072857600080fd5b5061048d60005481565b34801561073e57600080fd5b5061048d60095481565b34801561075457600080fd5b506013546106f09060ff1681565b34801561076e57600080fd5b5061048d61077d3660046136c0565b61157c565b34801561078e57600080fd5b5061048d61079d366004613b69565b61158c565b3480156107ae57600080fd5b5061048d6107bd366004613c25565b6115bd565b3480156107ce57600080fd5b5061048d6107dd366004613e34565b611613565b61048d6107f0366004613e80565b611626565b34801561080157600080fd5b5061048d6116bd565b34801561081657600080fd5b5061081f6116cb565b604051610497929190613eb4565b34801561083957600080fd5b506105076108483660046136c0565b6117d1565b34801561085957600080fd5b50610677610868366004613f1d565b6117e1565b34801561087957600080fd5b506108a26108883660046136c0565b6000908152601d6020526040902080546001909101549091565b60408051928352602083019190915201610497565b3480156108c357600080fd5b506040805180820190915260048152630d0b8c4d60e21b602082015261056a565b3480156108f057600080fd5b5061048d6108ff3660046136c0565b611847565b34801561091057600080fd5b5061062a61194e565b34801561092557600080fd5b5061048d600d5481565b34801561093b57600080fd5b5061048d61094a366004613f78565b6119a4565b34801561095b57600080fd5b506108a261096a366004613fad565b611a24565b34801561097b57600080fd5b5061048d600e5481565b34801561099157600080fd5b5061062a611a59565b3480156109a657600080fd5b5061048d6109b5366004613fdd565b611aaf565b3480156109c657600080fd5b5061048d6109d5366004613fff565b60156020526000908152604090205481565b3480156109f357600080fd5b50601f54610507906001600160a01b031681565b348015610a1357600080fd5b5061056a611ae0565b348015610a2857600080fd5b5061048d601b5481565b348015610a3e57600080fd5b5061048d600b5481565b348015610a5457600080fd5b50610a68610a633660046136c0565b611aed565b604051610497949392919061401c565b348015610a8457600080fd5b506106f0610a933660046136c0565b611baa565b348015610aa457600080fd5b506106f0610ab3366004613fff565b60196020526000908152604090205460ff1681565b348015610ad457600080fd5b506106a3611c50565b348015610ae957600080fd5b5061048d610af83660046136c0565b611cb0565b348015610b0957600080fd5b5061048d610b183660046136c0565b6000908152601e602052604090205490565b348015610b3657600080fd5b5061048d610b45366004613fff565b601c6020526000908152604090205481565b348015610b6357600080fd5b50610677610b72366004614053565b611cc0565b348015610b8357600080fd5b506106f0610b923660046136c0565b60246020526000908152604090205460ff1681565b348015610bb357600080fd5b5061048d610bc2366004613fff565b6001600160a01b03166000908152601c602052604090205490565b348015610be957600080fd5b506106a3610bf83660046136c0565b611df5565b348015610c0957600080fd5b5061048d610c183660046136c0565b611e67565b348015610c2957600080fd5b5061048d60035481565b348015610c3f57600080fd5b5061062a610c4e3660046136c0565b611ec7565b61048d610c613660046140e3565b611f29565b348015610c7257600080fd5b50610c7b611f91565b6040516104979190614154565b348015610c9457600080fd5b50610ca8610ca33660046136c0565b611fe2565b604051610497919061416e565b348015610cc157600080fd5b5061062a610cd03660046136c0565b61215c565b348015610ce157600080fd5b506106f0610cf0366004613fff565b601a6020526000908152604090205460ff1681565b348015610d1157600080fd5b5061081f6121bc565b348015610d2657600080fd5b5061048d60045481565b348015610d3c57600080fd5b5061048d610d4b366004613fff565b60186020526000908152604090205481565b348015610d6957600080fd5b5061048d612389565b348015610d7e57600080fd5b5061062a61239b565b348015610d9357600080fd5b506106776123f1565b348015610da857600080fd5b5061048d600f5481565b348015610dbe57600080fd5b5061050773dc652c746a8f85e18ce632d97c6118e8a52fa73881565b348015610de657600080fd5b5061062a6124b5565b348015610dfb57600080fd5b50610677610e0a3660046141d5565b61250b565b348015610e1b57600080fd5b50610677610e2a366004613fff565b612666565b348015610e3b57600080fd5b5061048d610e4a3660046136c0565b6126eb565b348015610e5b57600080fd5b5061048d610e6a366004613fdd565b6126fb565b348015610e7b57600080fd5b506106f0610e8a3660046136c0565b60126020526000908152604090205460ff1681565b348015610eab57600080fd5b50610677610eba366004613e34565b612717565b348015610ecb57600080fd5b5061048d600c5481565b601460205260009081526040902080546001820180546001600160a01b03831693600160a01b90930460ff16929190610f0d90614216565b80601f0160208091040260200160405190810160405280929190818152602001828054610f3990614216565b8015610f865780601f10610f5b57610100808354040283529160200191610f86565b820191906000526020600020905b815481529060010190602001808311610f6957829003601f168201915b5050604080516020808201835260028801546001600160a01b03168252825160038901805460609381028301840186529482018581529899939893975090955093508492849184018282801561100557602002820191906000526020600020905b81546001600160a01b03168152600190910190602001808311610fe7575b50505050508152602001600182015481525050905085565b6011818154811061102d57600080fd5b600091825260209091200154905081565b6005805461104b90614216565b80601f016020809104026020016040519081016040528092919081815260200182805461107790614216565b80156110c45780601f10611099576101008083540402835291602001916110c4565b820191906000526020600020905b8154815290600101906020018083116110a757829003601f168201915b505050505081565b611100604051806080016040528060006001600160a01b031681526020016000815260200160008152602001606081525090565b600082815260226020908152604091829020825160808101845281546001600160a01b0316815260018201549281019290925260028101549282019290925260038201805491929160608401919061115790614216565b80601f016020809104026020016040519081016040528092919081815260200182805461118390614216565b80156111d05780601f106111a5576101008083540402835291602001916111d0565b820191906000526020600020905b8154815290600101906020018083116111b357829003601f168201915b5050505050815250509050919050565b601681815481106111f057600080fd5b6000918252602090912001546001600160a01b0316905081565b6060601180548060200260200160405190810160405280929190818152602001828054801561125857602002820191906000526020600020905b815481526020019060010190808311611244575b5050505050905090565b60408051608081018252338152426020820152908101839052606081018290526000908161128f8261158c565b60208054600180820183557fc97bfaf2f8ee708c303a06d134f5ecd8389ae0432af62dc132a24118292866bb909101839055600083815260228352604090819020865181546001600160a01b0319166001600160a01b03909116178155928601519183019190915584015160028201556060840151919250839160038201906113189082614298565b505050600085815260236020908152604080832080546001810182559084529190922001829055517f5a1a930fed43f34b3a07db782ebcac28a661c273e662bb98458cfba5a8ccd2209061136f9083815260200190565b60405180910390a19150505b92915050565b6001600160a01b0383166000908152601a602052604090205460ff166113eb576003546000036113b057505050565b6113c683678ac7230489e800008484600061147d565b506001600160a01b0383166000908152601a60205260409020805460ff191660011790555b505050565b6000600a546113fd612389565b611407919061436d565b905090565b6060601780548060200260200160405190810160405280929190818152602001828054801561125857602002820191906000526020600020905b81546001600160a01b03168152600190910190602001808311611446575050505050905090565b6002818154811061102d57600080fd5b6040516bffffffffffffffffffffffff19606087901b16602082015260348101859052600090819060540160405160208183030381529060405280519060200120905060008361150d57611508868680806020026020016040519081016040528093929190818152602001838360200280828437600092019190915250506003549150859050612866565b61154e565b61154e868680806020026020016040519081016040528093929190818152602001838360200280828437600092019190915250506004549150859050612866565b90508061156e5760405163452c2df160e11b815260040160405180910390fd5b506001979650505050505050565b6021818154811061102d57600080fd5b60008160405160200161159f91906137f4565b60408051601f19818403018152919052805160209091012092915050565b600086815260126020526040812054339060ff16156115ef576040516358f1119560e01b815260040160405180910390fd5b6115fb818786866117e1565b6116078882898861287c565b98975050505050505050565b60008160405160200161159f919061416e565b6000600e54341461165c57600e546040516380a7af9f60e01b815234600482015260248101919091526044015b60405180910390fd5b6003541561169457336000908152601a602052604090205460ff1661169457604051631f22097560e01b815260040160405180910390fd5b6116a0610eba83614380565b60006116b36116ae84614380565b6129c3565b905061137b612c3e565b6116c860018061436d565b81565b60608060006116d86124b5565b9050600081516001600160401b038111156116f5576116f5613883565b60405190808252806020026020018201604052801561173a57816020015b60408051808201909152600080825260208201528152602001906001900390816117135790505b50905060005b82518110156117c757601d600084838151811061175f5761175f61438c565b60200260200101518152602001908152602001600020600001604051806040016040529081600082015481526020016001820154815250508282815181106117a9576117a961438c565b602002602001018190525080806117bf906143a2565b915050611740565b5090939092509050565b601781815481106111f057600080fd5b6001600160a01b03841660009081526019602052604090205460ff166118415761180f84848484600161147d565b506001600160a01b038416600090815260186020908152604080832086905560199091529020805460ff191660011790555b50505050565b60008160000361186a57604051630ec90a1760e31b815260040160405180910390fd5b600280546040805160208084028201810190925282815291926000929184908301828280156118b857602002820191906000526020600020905b8154815260200190600101908083116118a4575b5050505050905060006001905060005b83811015611934576118ff8382815181106118e5576118e561438c565b60200260200101516000908152601e602052604090205490565b15611922578582036119145795945050505050565b8161191e816143a2565b9250505b8061192c816143a2565b9150506118c8565b50604051632cc2ab7360e11b815260040160405180910390fd5b606060218054806020026020016040519081016040528092919081815260200182805480156112585760200282019190600052602060002090815481526020019060010190808311611244575050505050905090565b600083815260126020526040812054339060ff16156119d6576040516358f1119560e01b815260040160405180910390fd5b6001600160a01b03811660009081526019602052604090205460ff16611a0f5760405163126ec6d160e31b815260040160405180910390fd5b611a1b8582868661287c565b95945050505050565b6000828152601d602090815260408083206001600160a01b0385168452600301909152902080546001909101545b9250929050565b606060028054806020026020016040519081016040528092919081815260200182805480156112585760200282019190600052602060002090815481526020019060010190808311611244575050505050905090565b601e6020528160005260406000208181548110611acb57600080fd5b90600052602060002001600091509150505481565b6006805461104b90614216565b60226020526000908152604090208054600182015460028301546003840180546001600160a01b03909416949293919291611b2790614216565b80601f0160208091040260200160405190810160405280929190818152602001828054611b5390614216565b8015611ba05780601f10611b7557610100808354040283529160200191611ba0565b820191906000526020600020905b815481529060010190602001808311611b8357829003601f168201915b5050505050905084565b600254600090611bbc906001906143bb565b821115611bdc576040516365d6f35160e11b815260040160405180910390fd5b60005b611bea83600161436d565b811015611c47576001611c2660028381548110611c0957611c0961438c565b90600052602060002001546000908152601e602052604090205490565b1115611c355750600192915050565b80611c3f816143a2565b915050611bdf565b50600092915050565b60606016805480602002602001604051908101604052809291908181526020018280548015611258576020028201919060005260206000209081546001600160a01b03168152600190910190602001808311611446575050505050905090565b6010818154811061102d57600080fd5b805160005b81811015611db9576000838281518110611ce157611ce161438c565b60209081029190910101516007549091506001600160a01b03163314801590611d2157506000818152602260205260409020546001600160a01b03163314155b15611d4257604051635450763d60e11b815260048101829052602401611653565b60008181526024602052604090205460ff16611da6576000818152602460205260408120805460ff191660019081179091556021805491820181559091527f3a6357012c1a3ae0a17d304c9920310382d968ebcc4b1771f41c6b304205b570018190555b5080611db1816143a2565b915050611cc5565b507f788a4349d25bc08585923ae212bce8bb346a623bce753eeecb85fd9ce58dcb4b82604051611de99190613870565b60405180910390a15050565b6000818152601d60209081526040918290206002810180548451818502810185019095528085526060949293830182828015611e5a57602002820191906000526020600020905b81546001600160a01b03168152600190910190602001808311611e3c575b5050505050915050919050565b6000818152601e6020526040812054600114611e9657604051633832a15560e21b815260040160405180910390fd5b6000828152601e602052604081208054909190611eb557611eb561438c565b90600052602060002001549050919050565b600081815260236020908152604091829020805483518184028101840190945280845260609392830182828015611f1d57602002820191906000526020600020905b815481526020019060010190808311611f09575b50505050509050919050565b6000600e543414611f5a57600e546040516380a7af9f60e01b81523460048201526024810191909152604401611653565b611f65338484611381565b611f71610eba85614380565b6000611f7f6116ae86614380565b9050611f89612c3e565b949350505050565b60135460009060ff1615611fa55750600290565b4260085410611fb45750600090565b42611fbd612389565b10611fc85750600390565b42611fd16113f0565b10611fdc5750600190565b50600490565b611fea6135d5565b600082815260146020908152604091829020825160a08101845281546001600160a01b0381168252600160a01b900460ff16151592810192909252600181018054929391929184019161203c90614216565b80601f016020809104026020016040519081016040528092919081815260200182805461206890614216565b80156120b55780601f1061208a576101008083540402835291602001916120b5565b820191906000526020600020905b81548152906001019060200180831161209857829003601f168201915b5050509183525050604080516020818101835260028501546001600160a01b0316825280840191909152815160038501805460609381028301840185528285018181529490950194919390928492849184018282801561213e57602002820191906000526020600020905b81546001600160a01b03168152600190910190602001808311612120575b50505050508152602001600182015481525050815250509050919050565b6000818152601e6020908152604091829020805483518184028101840190945280845260609392830182828015611f1d5760200282019190600052602060002090815481526020019060010190808311611f095750505050509050919050565b60608060006121c96124b5565b9050600081516001600160401b038111156121e6576121e6613883565b60405190808252806020026020018201604052801561220f578160200160208202803683370190505b509050600082516001600160401b0381111561222d5761222d613883565b60405190808252806020026020018201604052801561227257816020015b604080518082019091526000808252602082015281526020019060019003908161224b5790505b5090506000805b845181101561237d57601260008683815181106122985761229861438c565b60209081029190910181015182528101919091526040016000205460ff1661236b578481815181106122cc576122cc61438c565b60200260200101518483815181106122e6576122e661438c565b602002602001018181525050601d60008683815181106123085761230861438c565b60200260200101518152602001908152602001600020600001604051806040016040529081600082015481526020016001820154815250508383815181106123525761235261438c565b602090810291909101015261236860018361436d565b91505b80612375816143a2565b915050612279565b50919590945092505050565b6000600954600854611407919061436d565b606060208054806020026020016040519081016040528092919081815260200182805480156112585760200282019190600052602060002090815481526020019060010190808311611244575050505050905090565b6007546001600160a01b0316331480159061242057503373dc652c746a8f85e18ce632d97c6118e8a52fa73814155b1561243e576040516301dbf46f60e71b815260040160405180910390fd5b6000612448611f91565b9050600281600481111561245e5761245e61413e565b0361247c57604051633c30acbf60e01b815260040160405180910390fd5b6013805460ff191660011790556040517f4cd963a081760a54f571abc0f1db4dde31b4a07d8d6da3e844b8c6f47eeaaa4290600090a150565b606060108054806020026020016040519081016040528092919081815260200182805480156112585760200282019190600052602060002090815481526020019060010190808311611244575050505050905090565b6007546001600160a01b031633146125365760405163b8d4540960e01b815260040160405180910390fd5b6004612540611f91565b60048111156125515761255161413e565b0361256f576040516331da1c8b60e11b815260040160405180910390fd5b60005b8181101561261457600083838381811061258e5761258e61438c565b60209081029290920135600081815260129093526040909220549192505060ff16612601576000818152601260205260408120805460ff191660019081179091556011805491820181559091527f31ecc21a745e3968a04e9570e4425bc18fa8019c68028196b546d1669c200c68018190555b508061260c816143a2565b915050612572565b50600d5415801561262757506000546001145b15612636576126368282612d53565b7f75a75cf5c561892f4cc5b26c1b8e933849b42238c96dd073d080d1ae96c514166010604051611de991906143ce565b6007546001600160a01b0316331461269157604051630f4cb1bd60e11b815260040160405180910390fd5b601f80546001600160a01b038381166001600160a01b031983168117909355604080519190921680825260208201939093527f753a2cf8d360cff631674504210913e48247f8e56b3e6d2006c2103d4095999f9101611de9565b6020818154811061102d57600080fd5b60236020528160005260406000208181548110611acb57600080fd5b80516001600160a01b0316331461275557805160405163fbbf4d7f60e01b81526001600160a01b039091166004820152336024820152604401611653565b60005b61276360018061436d565b81101561283c57600081600181111561277e5761277e61413e565b905060008160018111156127945761279461413e565b0361279f575061282a565b60018160018111156127b3576127b361413e565b0361280d57608083015151516000036127df5760405163c3b2798b60e01b815260040160405180910390fd5b826080015160200151600003612808576040516392fb9a3560e01b815260040160405180910390fd5b612828565b8060405163d2277d4960e01b81526004016116539190614409565b505b80612834816143a2565b915050612758565b508060400151516000036128635760405163e182473360e01b815260040160405180910390fd5b50565b6000826128738584612db0565b14949350505050565b60006001612888611f91565b60048111156128995761289961413e565b146128c0576128a6611f91565b60405163049cab4960e51b81526004016116539190614154565b816000036128e15760405163502e1c2960e01b815260040160405180910390fd5b61291385858585601860008a6001600160a01b03166001600160a01b0316815260200190815260200160002054612dfd565b601780546001810182556000919091527fc624b66cc0138b8fabc209247f72d758e1cf3343756d543badbf24212bed8c150180546001600160a01b031916331790556040805186815260ff851660208201529081018390526001600160a01b038516907f2c9deb38f462962eadbd85a9d3a4120503ee091f1582eaaa10aa8c6797651d299060600160405180910390a25050506001600160a01b0316600090815260186020526040902054919050565b600060036129cf611f91565b60048111156129e0576129e061413e565b14612a07576129ed611f91565b604051632889531360e01b81526004016116539190614154565b600b543360009081526015602052604090205403612a3e57600b54604051632bd6d93960e21b815260040161165391815260200190565b600c54601154601054612a5191906143bb565b03612a7557600c546040516302217f5360e51b815260040161165391815260200190565b6000612a8083611613565b600081815260146020526040902054909150600160a01b900460ff1615612abd5760405163baffc42360e01b815260048101829052602401611653565b6010805460018181019092557f1b6847dc741a1b0cd08d278845f9d819d87b734759afb55fe2de5cb82a9ae6720182905560008281526014602090815260409182902086518154928801511515600160a01b026001600160a81b03199093166001600160a01b0390911617919091178155908501518592820190612b419082614298565b506060820151516002820180546001600160a01b0319166001600160a01b039092169190911790556080820151805180516003840191612b8691839160200190613646565b5060209182015160019182015533600090815260159092526040822080549194509250612bb490849061436d565b9091555050601680546001810182556000919091527fd833147d7dc355ba459fc788f669e58cfaf9dc25ddcd0702e87d69c7b51242890180546001600160a01b031916339081179091556040805183815260208101929092527fcd423cc1203c0af96b9b3d68d73b3064a69de2d14450bb7181c5e5df2132b358910160405180910390a192915050565b600e5415612d515760006064600f546064612c5991906143bb565b612c63903461441d565b612c6d9190614434565b90508015612ce157612c9373dc652c746a8f85e18ce632d97c6118e8a52fa73882613064565b6040805173dc652c746a8f85e18ce632d97c6118e8a52fa7388152602081018390527fdf20fd1e76bc69d672e4814fafb2c449bba3a5369d8359adf9e05e6fde87b056910160405180910390a15b6000612ced82346143bb565b90508015612d4e57600754612d0b906001600160a01b031682613064565b600754604080516001600160a01b039092168252602082018390527fdf20fd1e76bc69d672e4814fafb2c449bba3a5369d8359adf9e05e6fde87b0569101611de9565b50505b565b60005b818110156113eb576000838383818110612d7257612d7261438c565b602090810292909201356000818152601d909352604090922054919250612d9b9050828261317d565b50508080612da8906143a2565b915050612d56565b600081815b8451811015612df557612de182868381518110612dd457612dd461438c565b60200260200101516132ae565b915080612ded816143a2565b915050612db5565b509392505050565b6000858152601d602090815260408083206001600160a01b0388168452601c90925290912054612e2d90836143bb565b831115612e4d5760405163660fa07360e11b815260040160405180910390fd5b6001600160a01b0385166000908152600382016020526040812054158015612e9057506001600160a01b0386166000908152600383016020526040902060010154155b905060ff8516612ee857815484908390600090612eae90849061436d565b90915550506001600160a01b038616600090815260038301602052604081208054869290612edd90849061436d565b90915550612f799050565b60001960ff861601612f6057600d54600114612f1757604051639755958f60e01b815260040160405180910390fd5b83826000016001016000828254612f2e919061436d565b90915550506001600160a01b038616600090815260038301602052604081206001018054869290612edd90849061436d565b604051638eed55d160e01b815260040160405180910390fd5b8015612fb057600282018054600181018255600091825260209091200180546001600160a01b0319166001600160a01b0388161790555b6001600160a01b0386166000908152601c602052604081208054869290612fd890849061436d565b9250508190555083601b6000828254612ff1919061436d565b9091555050600d5415801561300857506000546001145b1561305b578154600061301b86836143bb565b9050801561302d5761302d898261317d565b6000828152601e602090815260408220805460018101825590835291200189905561305881836132e0565b50505b50505050505050565b804710156130b45760405162461bcd60e51b815260206004820152601d60248201527f416464726573733a20696e73756666696369656e742062616c616e63650000006044820152606401611653565b6000826001600160a01b03168260405160006040518083038185875af1925050503d8060008114613101576040519150601f19603f3d011682016040523d82523d6000602084013e613106565b606091505b50509050806113eb5760405162461bcd60e51b815260206004820152603a60248201527f416464726573733a20756e61626c6520746f2073656e642076616c75652c207260448201527f6563697069656e74206d617920686176652072657665727465640000000000006064820152608401611653565b6000818152601e60209081526040808320805482518185028101850190935280835291929091908301828280156131d357602002820191906000526020600020905b8154815260200190600101908083116131bf575b5050505050905060005b815181101561184157838282815181106131f9576131f961438c565b60200260200101510361329c57816001835161321591906143bb565b815181106132255761322561438c565b6020026020010151601e600085815260200190815260200160002082815481106132515761325161438c565b9060005260206000200181905550601e600084815260200190815260200160002080548061328157613281614456565b60019003818190600052602060002001600090559055611841565b806132a6816143a2565b9150506131dd565b60008183106132ca5760008281526020849052604090206132d9565b60008381526020839052604090205b9392505050565b6002805460408051602080840282018101909252828152919260009291849083018282801561332e57602002820191906000526020600020905b81548152602001906001019080831161331a575b5050505050905081600003613375575050600280546001810182556000919091527f405787fa12a823e0f2b7631cc41b3ba8828b3321ca811111fa75cd3aa3bb5ace015550565b806133816001846143bb565b815181106133915761339161438c565b60200260200101518310156133e75760015482036133af5750505050565b5050600280546001810182556000919091527f405787fa12a823e0f2b7631cc41b3ba8828b3321ca811111fa75cd3aa3bb5ace015550565b611841848484846000805b8381101561345c5782818151811061340c5761340c61438c565b60200260200101518503613421575050611841565b8281815181106134335761343361438c565b602002602001015185111561344a5780915061345c565b80613454816143a2565b9150506133f2565b506000808611801561347a57506000868152601e6020526040902054155b905060008180156134a35750868484815181106134995761349961438c565b6020026020010151145b6135ac576134b26001866143bb565b831461355a5760006134c584600161436d565b90505b8581101561355857846134dc6001836143bb565b815181106134ec576134ec61438c565b6020026020010151600282815481106135075761350761438c565b60009182526020909120015582801561353857508785828151811061352e5761352e61438c565b6020026020010151145b156135465760019150613558565b80613550816143a2565b9150506134c8565b505b80158015613569575060015485105b156135ac5760028461357c6001886143bb565b8151811061358c5761358c61438c565b602090810291909101810151825460018101845560009384529190922001555b85600284815481106135c0576135c061438c565b60009182526020909120015550505050505050565b6040518060a0016040528060006001600160a01b031681526020016000151581526020016060815260200161361f604051806020016040528060006001600160a01b031681525090565b8152602001613641604051806040016040528060608152602001600081525090565b905290565b82805482825590600052602060002090810192821561369b579160200282015b8281111561369b57825182546001600160a01b0319166001600160a01b03909116178255602090920191600190910190613666565b506136a79291506136ab565b5090565b5b808211156136a757600081556001016136ac565b6000602082840312156136d257600080fd5b5035919050565b6000815180845260005b818110156136ff576020818501810151868301820152016136e3565b506000602082860101526020601f19601f83011685010191505092915050565b805160408084528151908401819052600091602091908201906060860190845b818110156137645783516001600160a01b03168352928401929184019160010161373f565b505093820151949091019390935250919050565b600060018060a01b038088168352861515602084015260a060408401526137a260a08401876136d9565b81865116606085015283810360808501526137bd818661371f565b9998505050505050505050565b6020815260006132d960208301846136d9565b81518152602080830151908201526040810161137b565b6020815260018060a01b038251166020820152602082015160408201526040820151606082015260006060830151608080840152611f8960a08401826136d9565b600081518084526020808501945080840160005b8381101561386557815187529582019590820190600101613849565b509495945050505050565b6020815260006132d96020830184613835565b634e487b7160e01b600052604160045260246000fd5b604080519081016001600160401b03811182821017156138bb576138bb613883565b60405290565b60405160a081016001600160401b03811182821017156138bb576138bb613883565b604051602081016001600160401b03811182821017156138bb576138bb613883565b604051601f8201601f191681016001600160401b038111828210171561392d5761392d613883565b604052919050565b600082601f83011261394657600080fd5b81356001600160401b0381111561395f5761395f613883565b613972601f8201601f1916602001613905565b81815284602083860101111561398757600080fd5b816020850160208301376000918101602001919091529392505050565b600080604083850312156139b757600080fd5b8235915060208301356001600160401b038111156139d457600080fd5b6139e085828601613935565b9150509250929050565b6001600160a01b038116811461286357600080fd5b60008083601f840112613a1157600080fd5b5081356001600160401b03811115613a2857600080fd5b6020830191508360208260051b8501011115611a5257600080fd5b600080600060408486031215613a5857600080fd5b8335613a63816139ea565b925060208401356001600160401b03811115613a7e57600080fd5b613a8a868287016139ff565b9497909650939450505050565b6020808252825182820181905260009190848201906040850190845b81811015613ad85783516001600160a01b031683529284019291840191600101613ab3565b50909695505050505050565b80358015158114613af457600080fd5b919050565b600080600080600060808688031215613b1157600080fd5b8535613b1c816139ea565b94506020860135935060408601356001600160401b03811115613b3e57600080fd5b613b4a888289016139ff565b9094509250613b5d905060608701613ae4565b90509295509295909350565b600060208284031215613b7b57600080fd5b81356001600160401b0380821115613b9257600080fd5b9083019060808286031215613ba657600080fd5b604051608081018181108382111715613bc157613bc1613883565b6040528235613bcf816139ea565b808252506020830135602082015260408301356040820152606083013582811115613bf957600080fd5b613c0587828601613935565b60608301525095945050505050565b803560ff81168114613af457600080fd5b60008060008060008060a08789031215613c3e57600080fd5b86359550613c4e60208801613c14565b9450604087013593506060870135925060808701356001600160401b03811115613c7757600080fd5b613c8389828a016139ff565b979a9699509497509295939492505050565b60006001600160401b03821115613cae57613cae613883565b5060051b60200190565b600060408284031215613cca57600080fd5b613cd2613899565b905081356001600160401b03811115613cea57600080fd5b8201601f81018413613cfb57600080fd5b80356020613d10613d0b83613c95565b613905565b82815260059290921b83018101918181019087841115613d2f57600080fd5b938201935b83851015613d56578435613d47816139ea565b82529382019390820190613d34565b85525093840135938301939093525092915050565b600081830360a0811215613d7e57600080fd5b613d866138c1565b91508235613d93816139ea565b8252613da160208401613ae4565b602083015260408301356001600160401b0380821115613dc057600080fd5b613dcc86838701613935565b60408501526020605f1984011215613de357600080fd5b613deb6138e3565b925060608501359150613dfd826139ea565b8183528260608501526080850135925080831115613e1a57600080fd5b5050613e2884828501613cb8565b60808301525092915050565b600060208284031215613e4657600080fd5b81356001600160401b03811115613e5c57600080fd5b611f8984828501613d6b565b600060a08284031215613e7a57600080fd5b50919050565b600060208284031215613e9257600080fd5b81356001600160401b03811115613ea857600080fd5b611f8984828501613e68565b60006040808352613ec781840186613835565b83810360208581019190915285518083528682019282019060005b81811015613f0f57613eff83865180518252602090810151910152565b9383019391850191600101613ee2565b509098975050505050505050565b60008060008060608587031215613f3357600080fd5b8435613f3e816139ea565b93506020850135925060408501356001600160401b03811115613f6057600080fd5b613f6c878288016139ff565b95989497509550505050565b600080600060608486031215613f8d57600080fd5b83359250613f9d60208501613c14565b9150604084013590509250925092565b60008060408385031215613fc057600080fd5b823591506020830135613fd2816139ea565b809150509250929050565b60008060408385031215613ff057600080fd5b50508035926020909101359150565b60006020828403121561401157600080fd5b81356132d9816139ea565b60018060a01b038516815283602082015282604082015260806060820152600061404960808301846136d9565b9695505050505050565b6000602080838503121561406657600080fd5b82356001600160401b0381111561407c57600080fd5b8301601f8101851361408d57600080fd5b803561409b613d0b82613c95565b81815260059190911b820183019083810190878311156140ba57600080fd5b928401925b828410156140d8578335825292840192908401906140bf565b979650505050505050565b6000806000604084860312156140f857600080fd5b83356001600160401b038082111561410f57600080fd5b61411b87838801613e68565b9450602086013591508082111561413157600080fd5b50613a8a868287016139ff565b634e487b7160e01b600052602160045260246000fd5b60208101600583106141685761416861413e565b91905290565b60208152600060018060a01b03808451166020840152602084015115156040840152604084015160a060608501526141a960c08501826136d9565b90508160608601515116608085015260808501519150601f198482030160a0850152611a1b818361371f565b600080602083850312156141e857600080fd5b82356001600160401b038111156141fe57600080fd5b61420a858286016139ff565b90969095509350505050565b600181811c9082168061422a57607f821691505b602082108103613e7a57634e487b7160e01b600052602260045260246000fd5b601f8211156113eb57600081815260208120601f850160051c810160208610156142715750805b601f850160051c820191505b818110156142905782815560010161427d565b505050505050565b81516001600160401b038111156142b1576142b1613883565b6142c5816142bf8454614216565b8461424a565b602080601f8311600181146142fa57600084156142e25750858301515b600019600386901b1c1916600185901b178555614290565b600085815260208120601f198616915b828110156143295788860151825594840194600190910190840161430a565b50858210156143475787850151600019600388901b60f8161c191681555b5050505050600190811b01905550565b634e487b7160e01b600052601160045260246000fd5b8082018082111561137b5761137b614357565b600061137b3683613d6b565b634e487b7160e01b600052603260045260246000fd5b6000600182016143b4576143b4614357565b5060010190565b8181038181111561137b5761137b614357565b6020808252825482820181905260008481528281209092916040850190845b81811015613ad8578354835260019384019392850192016143ed565b60208101600283106141685761416861413e565b808202811582820484141761137b5761137b614357565b60008261445157634e487b7160e01b600052601260045260246000fd5b500490565b634e487b7160e01b600052603160045260246000fdfea264697066735822122054132eda0fbc6cea19d7b3fa21c69660bae7a0544b6dd820f3bf698fb98859d064736f6c63430008130033",
    "linkReferences": {}
  },
  "methodIdentifiers": {
    "AMOUNT_FOR_SUMBITTER_PROOF()": "347cf665",
    "JK_LABS_ADDRESS()": "eef18e17",
    "METADATAS_COUNT()": "4d24a67f",
    "addressSubmitterVerified(address)": "cb853950",
    "addressTotalCastVoteCounts(address)": "a1ac6cb2",
    "addressTotalVotes(address)": "dea5f6a6",
    "addressTotalVotesVerified(address)": "930de979",
    "addressesThatHaveVoted(uint256)": "50c4b616",
    "allProposalTotalVotes()": "50a5e524",
    "allProposalTotalVotesWithoutDeleted()": "d45a010b",
    "cancel()": "ea8a1af0",
    "canceled()": "3f9942ff",
    "castVote(uint256,uint8,uint256,uint256,bytes32[])": "419c533c",
    "castVoteWithoutProof(uint256,uint8,uint256)": "65f16263",
    "checkProof(address,uint256,bytes32[],bool)": "32763c22",
    "comment(uint256,string)": "1805c523",
    "commentIds(uint256)": "f5c36411",
    "commentIsDeleted(uint256)": "ae66b8ad",
    "comments(uint256)": "8ebb4c15",
    "contestAddressTotalVotesCast(address)": "aec116b6",
    "contestDeadline()": "262e59e9",
    "contestStart()": "004114a8",
    "costToPropose()": "6ed815ad",
    "creator()": "02d05d3f",
    "deleteComments(uint256[])": "ac67f801",
    "deleteProposals(uint256[])": "f0a7db0a",
    "deletedCommentIds(uint256)": "3fb57c92",
    "deletedProposalIds(uint256)": "05846cae",
    "downvotingAllowed()": "60506ff6",
    "forVotesToProposalIds(uint256,uint256)": "711effc8",
    "getAllAddressesThatHaveVoted()": "2c39805f",
    "getAllCommentIds()": "e11db9d8",
    "getAllDeletedCommentIds()": "5cb718a1",
    "getAllDeletedProposalIds()": "1242b737",
    "getAllProposalAuthors()": "946369b5",
    "getAllProposalIds()": "efa90d36",
    "getComment(uint256)": "0800e300",
    "getNumProposalsWithThisManyForVotes(uint256)": "9ba197af",
    "getOnlyProposalIdWithThisManyForVotes(uint256)": "b66d1da3",
    "getProposal(uint256)": "c7f758a8",
    "getProposalComments(uint256)": "c05f4104",
    "getProposalsWithThisManyForVotes(uint256)": "c9a1b6b2",
    "getRankIndex(uint256)": "5c7107d8",
    "getSortedRanks()": "6fd3636b",
    "hashComment((address,uint256,uint256,string))": "409fd030",
    "hashProposal((address,bool,string,(address),(address[],uint256)))": "458da87d",
    "isOrIsBelowTiedRank(uint256)": "9174778c",
    "maxProposalCount()": "fb9bf8d4",
    "name()": "06fdde03",
    "numAllowedProposalSubmissions()": "832009af",
    "numSubmissions(address)": "75e509c5",
    "officialRewardsModule()": "785ddfe5",
    "percentageToCreator()": "edcd1be4",
    "prompt()": "7c65d711",
    "proposalAddressVotes(uint256,address)": "6e4eb810",
    "proposalAddressesHaveVoted(uint256)": "b323580d",
    "proposalAuthors(uint256)": "0aa25e44",
    "proposalComments(uint256,uint256)": "f61736f4",
    "proposalIds(uint256)": "9b644a23",
    "proposalIsDeleted(uint256)": "f79c0172",
    "proposalVotes(uint256)": "544ffc9c",
    "proposalVotesStructs(uint256)": "070dc5d9",
    "proposals(uint256)": "013cf08b",
    "propose((address,bool,string,(address),(address[],uint256)),bytes32[])": "c0ffaa78",
    "proposeWithoutProof((address,bool,string,(address),(address[],uint256)))": "476f4d8a",
    "rankLimit()": "0414126a",
    "setOfficialRewardsModule(address)": "f4f3d7ec",
    "sortedRanks(uint256)": "325cc6d9",
    "sortingEnabled()": "366ecf5b",
    "state()": "c19d93fb",
    "submissionMerkleRoot()": "bddc1641",
    "totalVotesCast()": "7de418d5",
    "validateProposalData((address,bool,string,(address),(address[],uint256)))": "fb8ddab4",
    "verifyProposer(address,bytes32[])": "20b3e845",
    "verifyVoter(address,uint256,bytes32[])": "531bd812",
    "version()": "54fd4d50",
    "voteStart()": "e031535b",
    "votingDelay()": "3932abb1",
    "votingMerkleRoot()": "dd96a19d",
    "votingPeriod()": "02a251a3"
  },
  "id": 28
}