{
  "abi": [
    {
      "inputs": [
        {
          "internalType": "string",
          "name": "_name",
          "type": "string"
        },
        {
          "internalType": "string",
          "name": "_prompt",
          "type": "string"
        },
        {
          "internalType": "bytes32",
          "name": "_submissionMerkleRoot",
          "type": "bytes32"
        },
        {
          "internalType": "bytes32",
          "name": "_votingMerkleRoot",
          "type": "bytes32"
        },
        {
          "internalType": "uint256[]",
          "name": "_constructorIntParams",
          "type": "uint256[]"
        }
      ],
      "stateMutability": "nonpayable",
      "type": "constructor"
    },
    {
      "inputs": [],
      "name": "AddressNotPermissionedToSubmit",
      "type": "error"
    },
    {
      "inputs": [
        {
          "internalType": "address",
          "name": "author",
          "type": "address"
        },
        {
          "internalType": "address",
          "name": "sender",
          "type": "address"
        }
      ],
      "name": "AuthorIsNotSender",
      "type": "error"
    },
    {
      "inputs": [],
      "name": "CannotCancelACompletedContest",
      "type": "error"
    },
    {
      "inputs": [],
      "name": "CannotDeleteWhenCompleted",
      "type": "error"
    },
    {
      "inputs": [],
      "name": "CannotVoteOnDeletedProposal",
      "type": "error"
    },
    {
      "inputs": [],
      "name": "ContestAlreadyCancelled",
      "type": "error"
    },
    {
      "inputs": [
        {
          "internalType": "enum IGovernor.ContestState",
          "name": "currentState",
          "type": "uint8"
        }
      ],
      "name": "ContestMustBeActiveToVote",
      "type": "error"
    },
    {
      "inputs": [
        {
          "internalType": "enum IGovernor.ContestState",
          "name": "currentState",
          "type": "uint8"
        }
      ],
      "name": "ContestMustBeQueuedToPropose",
      "type": "error"
    },
    {
      "inputs": [
        {
          "internalType": "uint256",
          "name": "maxProposalCount",
          "type": "uint256"
        }
      ],
      "name": "ContestSubmissionLimitReached",
      "type": "error"
    },
    {
      "inputs": [],
      "name": "DownvotingNotEnabled",
      "type": "error"
    },
    {
      "inputs": [
        {
          "internalType": "uint256",
          "name": "proposalId",
          "type": "uint256"
        }
      ],
      "name": "DuplicateSubmission",
      "type": "error"
    },
    {
      "inputs": [],
      "name": "EmptyProposalDescription",
      "type": "error"
    },
    {
      "inputs": [
        {
          "internalType": "uint256",
          "name": "msgValue",
          "type": "uint256"
        },
        {
          "internalType": "uint256",
          "name": "costToPropose",
          "type": "uint256"
        }
      ],
      "name": "IncorrectCostToProposeSent",
      "type": "error"
    },
    {
      "inputs": [],
      "name": "IndexHasNotBeenPopulated",
      "type": "error"
    },
    {
      "inputs": [],
      "name": "InvalidVoteType",
      "type": "error"
    },
    {
      "inputs": [],
      "name": "MoreThanOneProposalWithThisManyVotes",
      "type": "error"
    },
    {
      "inputs": [],
      "name": "NeedAtLeastOneVoteToVote",
      "type": "error"
    },
    {
      "inputs": [],
      "name": "NeedToSubmitWithProofFirst",
      "type": "error"
    },
    {
      "inputs": [],
      "name": "NeedToVoteWithProofFirst",
      "type": "error"
    },
    {
      "inputs": [],
      "name": "NotEnoughVotesLeft",
      "type": "error"
    },
    {
      "inputs": [],
      "name": "NotInMerkle",
      "type": "error"
    },
    {
      "inputs": [],
      "name": "OnlyCreatorCanDelete",
      "type": "error"
    },
    {
      "inputs": [],
      "name": "OnlyCreatorCanSetRewardsModule",
      "type": "error"
    },
    {
      "inputs": [],
      "name": "OnlyJkLabsOrCreatorCanCancel",
      "type": "error"
    },
    {
      "inputs": [],
      "name": "RankCannotBeZero",
      "type": "error"
    },
    {
      "inputs": [],
      "name": "RankIsNotInSortedRanks",
      "type": "error"
    },
    {
      "inputs": [
        {
          "internalType": "uint256",
          "name": "numAllowedProposalSubmissions",
          "type": "uint256"
        }
      ],
      "name": "SenderSubmissionLimitReached",
      "type": "error"
    },
    {
      "inputs": [
        {
          "internalType": "enum IGovernor.Metadatas",
          "name": "unexpectedMetadata",
          "type": "uint8"
        }
      ],
      "name": "UnexpectedMetadata",
      "type": "error"
    },
    {
      "inputs": [],
      "name": "VotingPeriodCannotBeZero",
      "type": "error"
    },
    {
      "inputs": [],
      "name": "ZeroSignersInSafeMetadata",
      "type": "error"
    },
    {
      "inputs": [],
      "name": "ZeroThresholdInSafeMetadata",
      "type": "error"
    },
    {
      "anonymous": false,
      "inputs": [],
      "name": "ContestCanceled",
      "type": "event"
    },
    {
      "anonymous": false,
      "inputs": [
        {
          "indexed": false,
          "internalType": "uint256",
          "name": "oldContestStart",
          "type": "uint256"
        },
        {
          "indexed": false,
          "internalType": "uint256",
          "name": "newContestStart",
          "type": "uint256"
        }
      ],
      "name": "ContestStartSet",
      "type": "event"
    },
    {
      "anonymous": false,
      "inputs": [
        {
          "indexed": false,
          "internalType": "address",
          "name": "oldCreator",
          "type": "address"
        },
        {
          "indexed": false,
          "internalType": "address",
          "name": "newCreator",
          "type": "address"
        }
      ],
      "name": "CreatorSet",
      "type": "event"
    },
    {
      "anonymous": false,
      "inputs": [
        {
          "indexed": false,
          "internalType": "uint256",
          "name": "oldDownvotingAllowed",
          "type": "uint256"
        },
        {
          "indexed": false,
          "internalType": "uint256",
          "name": "newDownvotingAllowed",
          "type": "uint256"
        }
      ],
      "name": "DownvotingAllowedSet",
      "type": "event"
    },
    {
      "anonymous": false,
      "inputs": [
        {
          "indexed": false,
          "internalType": "string",
          "name": "name",
          "type": "string"
        },
        {
          "indexed": false,
          "internalType": "address",
          "name": "creator",
          "type": "address"
        }
      ],
      "name": "JokeraceCreated",
      "type": "event"
    },
    {
      "anonymous": false,
      "inputs": [
        {
          "indexed": false,
          "internalType": "uint256",
          "name": "oldMaxProposalCount",
          "type": "uint256"
        },
        {
          "indexed": false,
          "internalType": "uint256",
          "name": "newMaxProposalCount",
          "type": "uint256"
        }
      ],
      "name": "MaxProposalCountSet",
      "type": "event"
    },
    {
      "anonymous": false,
      "inputs": [
        {
          "indexed": false,
          "internalType": "uint256",
          "name": "oldNumAllowedProposalSubmissions",
          "type": "uint256"
        },
        {
          "indexed": false,
          "internalType": "uint256",
          "name": "newNumAllowedProposalSubmissions",
          "type": "uint256"
        }
      ],
      "name": "NumAllowedProposalSubmissionsSet",
      "type": "event"
    },
    {
      "anonymous": false,
      "inputs": [
        {
          "indexed": false,
          "internalType": "contract RewardsModule",
          "name": "oldOfficialRewardsModule",
          "type": "address"
        },
        {
          "indexed": false,
          "internalType": "contract RewardsModule",
          "name": "newOfficialRewardsModule",
          "type": "address"
        }
      ],
      "name": "OfficialRewardsModuleSet",
      "type": "event"
    },
    {
      "anonymous": false,
      "inputs": [
        {
          "indexed": false,
          "internalType": "address",
          "name": "to",
          "type": "address"
        },
        {
          "indexed": false,
          "internalType": "uint256",
          "name": "amount",
          "type": "uint256"
        }
      ],
      "name": "PaymentReleased",
      "type": "event"
    },
    {
      "anonymous": false,
      "inputs": [
        {
          "indexed": false,
          "internalType": "uint256",
          "name": "proposalId",
          "type": "uint256"
        },
        {
          "indexed": false,
          "internalType": "address",
          "name": "proposer",
          "type": "address"
        }
      ],
      "name": "ProposalCreated",
      "type": "event"
    },
    {
      "anonymous": false,
      "inputs": [
        {
          "indexed": false,
          "internalType": "uint256[]",
          "name": "proposalIds",
          "type": "uint256[]"
        }
      ],
      "name": "ProposalsDeleted",
      "type": "event"
    },
    {
      "anonymous": false,
      "inputs": [
        {
          "indexed": true,
          "internalType": "address",
          "name": "voter",
          "type": "address"
        },
        {
          "indexed": false,
          "internalType": "uint256",
          "name": "proposalId",
          "type": "uint256"
        },
        {
          "indexed": false,
          "internalType": "uint8",
          "name": "support",
          "type": "uint8"
        },
        {
          "indexed": false,
          "internalType": "uint256",
          "name": "numVotes",
          "type": "uint256"
        }
      ],
      "name": "VoteCast",
      "type": "event"
    },
    {
      "anonymous": false,
      "inputs": [
        {
          "indexed": false,
          "internalType": "uint256",
          "name": "oldVotingDelay",
          "type": "uint256"
        },
        {
          "indexed": false,
          "internalType": "uint256",
          "name": "newVotingDelay",
          "type": "uint256"
        }
      ],
      "name": "VotingDelaySet",
      "type": "event"
    },
    {
      "anonymous": false,
      "inputs": [
        {
          "indexed": false,
          "internalType": "uint256",
          "name": "oldVotingPeriod",
          "type": "uint256"
        },
        {
          "indexed": false,
          "internalType": "uint256",
          "name": "newVotingPeriod",
          "type": "uint256"
        }
      ],
      "name": "VotingPeriodSet",
      "type": "event"
    },
    {
      "inputs": [],
      "name": "AMOUNT_FOR_SUMBITTER_PROOF",
      "outputs": [
        {
          "internalType": "uint256",
          "name": "",
          "type": "uint256"
        }
      ],
      "stateMutability": "view",
      "type": "function"
    },
    {
      "inputs": [],
      "name": "JK_LABS_ADDRESS",
      "outputs": [
        {
          "internalType": "address",
          "name": "",
          "type": "address"
        }
      ],
      "stateMutability": "view",
      "type": "function"
    },
    {
      "inputs": [],
      "name": "METADATAS_COUNT",
      "outputs": [
        {
          "internalType": "uint256",
          "name": "",
          "type": "uint256"
        }
      ],
      "stateMutability": "view",
      "type": "function"
    },
    {
      "inputs": [
        {
          "internalType": "address",
          "name": "",
          "type": "address"
        }
      ],
      "name": "addressSubmitterVerified",
      "outputs": [
        {
          "internalType": "bool",
          "name": "",
          "type": "bool"
        }
      ],
      "stateMutability": "view",
      "type": "function"
    },
    {
      "inputs": [
        {
          "internalType": "address",
          "name": "",
          "type": "address"
        }
      ],
      "name": "addressTotalCastVoteCounts",
      "outputs": [
        {
          "internalType": "uint256",
          "name": "",
          "type": "uint256"
        }
      ],
      "stateMutability": "view",
      "type": "function"
    },
    {
      "inputs": [
        {
          "internalType": "address",
          "name": "",
          "type": "address"
        }
      ],
      "name": "addressTotalVotes",
      "outputs": [
        {
          "internalType": "uint256",
          "name": "",
          "type": "uint256"
        }
      ],
      "stateMutability": "view",
      "type": "function"
    },
    {
      "inputs": [
        {
          "internalType": "address",
          "name": "",
          "type": "address"
        }
      ],
      "name": "addressTotalVotesVerified",
      "outputs": [
        {
          "internalType": "bool",
          "name": "",
          "type": "bool"
        }
      ],
      "stateMutability": "view",
      "type": "function"
    },
    {
      "inputs": [
        {
          "internalType": "uint256",
          "name": "",
          "type": "uint256"
        }
      ],
      "name": "addressesThatHaveVoted",
      "outputs": [
        {
          "internalType": "address",
          "name": "",
          "type": "address"
        }
      ],
      "stateMutability": "view",
      "type": "function"
    },
    {
      "inputs": [],
      "name": "allProposalTotalVotes",
      "outputs": [
        {
          "internalType": "uint256[]",
          "name": "proposalIdsReturn",
          "type": "uint256[]"
        },
        {
          "components": [
            {
              "internalType": "uint256",
              "name": "forVotes",
              "type": "uint256"
            },
            {
              "internalType": "uint256",
              "name": "againstVotes",
              "type": "uint256"
            }
          ],
          "internalType": "struct GovernorCountingSimple.VoteCounts[]",
          "name": "proposalVoteCountsArrayReturn",
          "type": "tuple[]"
        }
      ],
      "stateMutability": "view",
      "type": "function"
    },
    {
      "inputs": [],
      "name": "allProposalTotalVotesWithoutDeleted",
      "outputs": [
        {
          "internalType": "uint256[]",
          "name": "proposalIdsReturn",
          "type": "uint256[]"
        },
        {
          "components": [
            {
              "internalType": "uint256",
              "name": "forVotes",
              "type": "uint256"
            },
            {
              "internalType": "uint256",
              "name": "againstVotes",
              "type": "uint256"
            }
          ],
          "internalType": "struct GovernorCountingSimple.VoteCounts[]",
          "name": "proposalVoteCountsArrayReturn",
          "type": "tuple[]"
        }
      ],
      "stateMutability": "view",
      "type": "function"
    },
    {
      "inputs": [],
      "name": "cancel",
      "outputs": [],
      "stateMutability": "nonpayable",
      "type": "function"
    },
    {
      "inputs": [],
      "name": "canceled",
      "outputs": [
        {
          "internalType": "bool",
          "name": "",
          "type": "bool"
        }
      ],
      "stateMutability": "view",
      "type": "function"
    },
    {
      "inputs": [
        {
          "internalType": "uint256",
          "name": "proposalId",
          "type": "uint256"
        },
        {
          "internalType": "uint8",
          "name": "support",
          "type": "uint8"
        },
        {
          "internalType": "uint256",
          "name": "totalVotes",
          "type": "uint256"
        },
        {
          "internalType": "uint256",
          "name": "numVotes",
          "type": "uint256"
        },
        {
          "internalType": "bytes32[]",
          "name": "proof",
          "type": "bytes32[]"
        }
      ],
      "name": "castVote",
      "outputs": [
        {
          "internalType": "uint256",
          "name": "",
          "type": "uint256"
        }
      ],
      "stateMutability": "nonpayable",
      "type": "function"
    },
    {
      "inputs": [
        {
          "internalType": "uint256",
          "name": "proposalId",
          "type": "uint256"
        },
        {
          "internalType": "uint8",
          "name": "support",
          "type": "uint8"
        },
        {
          "internalType": "uint256",
          "name": "numVotes",
          "type": "uint256"
        }
      ],
      "name": "castVoteWithoutProof",
      "outputs": [
        {
          "internalType": "uint256",
          "name": "",
          "type": "uint256"
        }
      ],
      "stateMutability": "nonpayable",
      "type": "function"
    },
    {
      "inputs": [
        {
          "internalType": "address",
          "name": "addressToCheck",
          "type": "address"
        },
        {
          "internalType": "uint256",
          "name": "amount",
          "type": "uint256"
        },
        {
          "internalType": "bytes32[]",
          "name": "proof",
          "type": "bytes32[]"
        },
        {
          "internalType": "bool",
          "name": "voting",
          "type": "bool"
        }
      ],
      "name": "checkProof",
      "outputs": [
        {
          "internalType": "bool",
          "name": "verified",
          "type": "bool"
        }
      ],
      "stateMutability": "view",
      "type": "function"
    },
    {
      "inputs": [
        {
          "internalType": "address",
          "name": "userAddress",
          "type": "address"
        }
      ],
      "name": "contestAddressTotalVotesCast",
      "outputs": [
        {
          "internalType": "uint256",
          "name": "userTotalVotesCast",
          "type": "uint256"
        }
      ],
      "stateMutability": "view",
      "type": "function"
    },
    {
      "inputs": [],
      "name": "contestDeadline",
      "outputs": [
        {
          "internalType": "uint256",
          "name": "",
          "type": "uint256"
        }
      ],
      "stateMutability": "view",
      "type": "function"
    },
    {
      "inputs": [],
      "name": "contestStart",
      "outputs": [
        {
          "internalType": "uint256",
          "name": "",
          "type": "uint256"
        }
      ],
      "stateMutability": "view",
      "type": "function"
    },
    {
      "inputs": [],
      "name": "costToPropose",
      "outputs": [
        {
          "internalType": "uint256",
          "name": "",
          "type": "uint256"
        }
      ],
      "stateMutability": "view",
      "type": "function"
    },
    {
      "inputs": [],
      "name": "creator",
      "outputs": [
        {
          "internalType": "address",
          "name": "",
          "type": "address"
        }
      ],
      "stateMutability": "view",
      "type": "function"
    },
    {
      "inputs": [
        {
          "internalType": "uint256[]",
          "name": "proposalIdsToDelete",
          "type": "uint256[]"
        }
      ],
      "name": "deleteProposals",
      "outputs": [],
      "stateMutability": "nonpayable",
      "type": "function"
    },
    {
      "inputs": [
        {
          "internalType": "uint256",
          "name": "",
          "type": "uint256"
        }
      ],
      "name": "deletedProposalIds",
      "outputs": [
        {
          "internalType": "uint256",
          "name": "",
          "type": "uint256"
        }
      ],
      "stateMutability": "view",
      "type": "function"
    },
    {
      "inputs": [],
      "name": "downvotingAllowed",
      "outputs": [
        {
          "internalType": "uint256",
          "name": "",
          "type": "uint256"
        }
      ],
      "stateMutability": "view",
      "type": "function"
    },
    {
      "inputs": [
        {
          "internalType": "uint256",
          "name": "",
          "type": "uint256"
        },
        {
          "internalType": "uint256",
          "name": "",
          "type": "uint256"
        }
      ],
      "name": "forVotesToProposalIds",
      "outputs": [
        {
          "internalType": "uint256",
          "name": "",
          "type": "uint256"
        }
      ],
      "stateMutability": "view",
      "type": "function"
    },
    {
      "inputs": [],
      "name": "getAllAddressesThatHaveVoted",
      "outputs": [
        {
          "internalType": "address[]",
          "name": "",
          "type": "address[]"
        }
      ],
      "stateMutability": "view",
      "type": "function"
    },
    {
      "inputs": [],
      "name": "getAllDeletedProposalIds",
      "outputs": [
        {
          "internalType": "uint256[]",
          "name": "",
          "type": "uint256[]"
        }
      ],
      "stateMutability": "view",
      "type": "function"
    },
    {
      "inputs": [],
      "name": "getAllProposalAuthors",
      "outputs": [
        {
          "internalType": "address[]",
          "name": "",
          "type": "address[]"
        }
      ],
      "stateMutability": "view",
      "type": "function"
    },
    {
      "inputs": [],
      "name": "getAllProposalIds",
      "outputs": [
        {
          "internalType": "uint256[]",
          "name": "",
          "type": "uint256[]"
        }
      ],
      "stateMutability": "view",
      "type": "function"
    },
    {
      "inputs": [
        {
          "internalType": "uint256",
          "name": "forVotes",
          "type": "uint256"
        }
      ],
      "name": "getNumProposalsWithThisManyForVotes",
      "outputs": [
        {
          "internalType": "uint256",
          "name": "count",
          "type": "uint256"
        }
      ],
      "stateMutability": "view",
      "type": "function"
    },
    {
      "inputs": [
        {
          "internalType": "address",
          "name": "account",
          "type": "address"
        }
      ],
      "name": "getNumSubmissions",
      "outputs": [
        {
          "internalType": "uint256",
          "name": "",
          "type": "uint256"
        }
      ],
      "stateMutability": "view",
      "type": "function"
    },
    {
      "inputs": [
        {
          "internalType": "uint256",
          "name": "forVotes",
          "type": "uint256"
        }
      ],
      "name": "getOnlyProposalIdWithThisManyForVotes",
      "outputs": [
        {
          "internalType": "uint256",
          "name": "proposalId",
          "type": "uint256"
        }
      ],
      "stateMutability": "view",
      "type": "function"
    },
    {
      "inputs": [
        {
          "internalType": "uint256",
          "name": "proposalId",
          "type": "uint256"
        }
      ],
      "name": "getProposal",
      "outputs": [
        {
          "components": [
            {
              "internalType": "address",
              "name": "author",
              "type": "address"
            },
            {
              "internalType": "bool",
              "name": "exists",
              "type": "bool"
            },
            {
              "internalType": "string",
              "name": "description",
              "type": "string"
            },
            {
              "components": [
                {
                  "internalType": "address",
                  "name": "targetAddress",
                  "type": "address"
                }
              ],
              "internalType": "struct IGovernor.TargetMetadata",
              "name": "targetMetadata",
              "type": "tuple"
            },
            {
              "components": [
                {
                  "internalType": "address[]",
                  "name": "signers",
                  "type": "address[]"
                },
                {
                  "internalType": "uint256",
                  "name": "threshold",
                  "type": "uint256"
                }
              ],
              "internalType": "struct IGovernor.SafeMetadata",
              "name": "safeMetadata",
              "type": "tuple"
            }
          ],
          "internalType": "struct IGovernor.ProposalCore",
          "name": "",
          "type": "tuple"
        }
      ],
      "stateMutability": "view",
      "type": "function"
    },
    {
      "inputs": [
        {
          "internalType": "uint256",
          "name": "rank",
          "type": "uint256"
        }
      ],
      "name": "getRankIndex",
      "outputs": [
        {
          "internalType": "uint256",
          "name": "rankIndex",
          "type": "uint256"
        }
      ],
      "stateMutability": "view",
      "type": "function"
    },
    {
      "inputs": [],
      "name": "getSortedRanks",
      "outputs": [
        {
          "internalType": "uint256[]",
          "name": "sortedRanksArray",
          "type": "uint256[]"
        }
      ],
      "stateMutability": "view",
      "type": "function"
    },
    {
      "inputs": [
        {
          "components": [
            {
              "internalType": "address",
              "name": "author",
              "type": "address"
            },
            {
              "internalType": "bool",
              "name": "exists",
              "type": "bool"
            },
            {
              "internalType": "string",
              "name": "description",
              "type": "string"
            },
            {
              "components": [
                {
                  "internalType": "address",
                  "name": "targetAddress",
                  "type": "address"
                }
              ],
              "internalType": "struct IGovernor.TargetMetadata",
              "name": "targetMetadata",
              "type": "tuple"
            },
            {
              "components": [
                {
                  "internalType": "address[]",
                  "name": "signers",
                  "type": "address[]"
                },
                {
                  "internalType": "uint256",
                  "name": "threshold",
                  "type": "uint256"
                }
              ],
              "internalType": "struct IGovernor.SafeMetadata",
              "name": "safeMetadata",
              "type": "tuple"
            }
          ],
          "internalType": "struct IGovernor.ProposalCore",
          "name": "proposal",
          "type": "tuple"
        }
      ],
      "name": "hashProposal",
      "outputs": [
        {
          "internalType": "uint256",
          "name": "",
          "type": "uint256"
        }
      ],
      "stateMutability": "pure",
      "type": "function"
    },
    {
      "inputs": [
        {
          "internalType": "uint256",
          "name": "idx",
          "type": "uint256"
        }
      ],
      "name": "isOrIsBelowTiedRank",
      "outputs": [
        {
          "internalType": "bool",
          "name": "atOrBelowTiedRank",
          "type": "bool"
        }
      ],
      "stateMutability": "view",
      "type": "function"
    },
    {
      "inputs": [
        {
          "internalType": "uint256",
          "name": "proposalId",
          "type": "uint256"
        }
      ],
      "name": "isProposalDeleted",
      "outputs": [
        {
          "internalType": "bool",
          "name": "",
          "type": "bool"
        }
      ],
      "stateMutability": "view",
      "type": "function"
    },
    {
      "inputs": [],
      "name": "maxProposalCount",
      "outputs": [
        {
          "internalType": "uint256",
          "name": "",
          "type": "uint256"
        }
      ],
      "stateMutability": "view",
      "type": "function"
    },
    {
      "inputs": [],
      "name": "name",
      "outputs": [
        {
          "internalType": "string",
          "name": "",
          "type": "string"
        }
      ],
      "stateMutability": "view",
      "type": "function"
    },
    {
      "inputs": [],
      "name": "numAllowedProposalSubmissions",
      "outputs": [
        {
          "internalType": "uint256",
          "name": "",
          "type": "uint256"
        }
      ],
      "stateMutability": "view",
      "type": "function"
    },
    {
      "inputs": [
        {
          "internalType": "address",
          "name": "",
          "type": "address"
        }
      ],
      "name": "numSubmissions",
      "outputs": [
        {
          "internalType": "uint256",
          "name": "",
          "type": "uint256"
        }
      ],
      "stateMutability": "view",
      "type": "function"
    },
    {
      "inputs": [],
      "name": "officialRewardsModule",
      "outputs": [
        {
          "internalType": "contract RewardsModule",
          "name": "",
          "type": "address"
        }
      ],
      "stateMutability": "view",
      "type": "function"
    },
    {
      "inputs": [],
      "name": "percentageToCreator",
      "outputs": [
        {
          "internalType": "uint256",
          "name": "",
          "type": "uint256"
        }
      ],
      "stateMutability": "view",
      "type": "function"
    },
    {
      "inputs": [],
      "name": "prompt",
      "outputs": [
        {
          "internalType": "string",
          "name": "",
          "type": "string"
        }
      ],
      "stateMutability": "view",
      "type": "function"
    },
    {
      "inputs": [
        {
          "internalType": "uint256",
          "name": "proposalId",
          "type": "uint256"
        },
        {
          "internalType": "address",
          "name": "userAddress",
          "type": "address"
        }
      ],
      "name": "proposalAddressVotes",
      "outputs": [
        {
          "internalType": "uint256",
          "name": "forVotes",
          "type": "uint256"
        },
        {
          "internalType": "uint256",
          "name": "againstVotes",
          "type": "uint256"
        }
      ],
      "stateMutability": "view",
      "type": "function"
    },
    {
      "inputs": [
        {
          "internalType": "uint256",
          "name": "proposalId",
          "type": "uint256"
        }
      ],
      "name": "proposalAddressesHaveVoted",
      "outputs": [
        {
          "internalType": "address[]",
          "name": "",
          "type": "address[]"
        }
      ],
      "stateMutability": "view",
      "type": "function"
    },
    {
      "inputs": [
        {
          "internalType": "uint256",
          "name": "",
          "type": "uint256"
        }
      ],
      "name": "proposalAuthors",
      "outputs": [
        {
          "internalType": "address",
          "name": "",
          "type": "address"
        }
      ],
      "stateMutability": "view",
      "type": "function"
    },
    {
      "inputs": [
        {
          "internalType": "uint256",
          "name": "",
          "type": "uint256"
        }
      ],
      "name": "proposalIds",
      "outputs": [
        {
          "internalType": "uint256",
          "name": "",
          "type": "uint256"
        }
      ],
      "stateMutability": "view",
      "type": "function"
    },
    {
      "inputs": [
        {
          "internalType": "uint256",
          "name": "",
          "type": "uint256"
        }
      ],
      "name": "proposalIsDeleted",
      "outputs": [
        {
          "internalType": "bool",
          "name": "",
          "type": "bool"
        }
      ],
      "stateMutability": "view",
      "type": "function"
    },
    {
      "inputs": [
        {
          "internalType": "uint256",
          "name": "proposalId",
          "type": "uint256"
        }
      ],
      "name": "proposalVotes",
      "outputs": [
        {
          "internalType": "uint256",
          "name": "forVotes",
          "type": "uint256"
        },
        {
          "internalType": "uint256",
          "name": "againstVotes",
          "type": "uint256"
        }
      ],
      "stateMutability": "view",
      "type": "function"
    },
    {
      "inputs": [
        {
          "internalType": "uint256",
          "name": "",
          "type": "uint256"
        }
      ],
      "name": "proposalVotesStructs",
      "outputs": [
        {
          "components": [
            {
              "internalType": "uint256",
              "name": "forVotes",
              "type": "uint256"
            },
            {
              "internalType": "uint256",
              "name": "againstVotes",
              "type": "uint256"
            }
          ],
          "internalType": "struct GovernorCountingSimple.VoteCounts",
          "name": "proposalVoteCounts",
          "type": "tuple"
        }
      ],
      "stateMutability": "view",
      "type": "function"
    },
    {
      "inputs": [
        {
          "internalType": "uint256",
          "name": "",
          "type": "uint256"
        }
      ],
      "name": "proposals",
      "outputs": [
        {
          "internalType": "address",
          "name": "author",
          "type": "address"
        },
        {
          "internalType": "bool",
          "name": "exists",
          "type": "bool"
        },
        {
          "internalType": "string",
          "name": "description",
          "type": "string"
        },
        {
          "components": [
            {
              "internalType": "address",
              "name": "targetAddress",
              "type": "address"
            }
          ],
          "internalType": "struct IGovernor.TargetMetadata",
          "name": "targetMetadata",
          "type": "tuple"
        },
        {
          "components": [
            {
              "internalType": "address[]",
              "name": "signers",
              "type": "address[]"
            },
            {
              "internalType": "uint256",
              "name": "threshold",
              "type": "uint256"
            }
          ],
          "internalType": "struct IGovernor.SafeMetadata",
          "name": "safeMetadata",
          "type": "tuple"
        }
      ],
      "stateMutability": "view",
      "type": "function"
    },
    {
      "inputs": [
        {
          "components": [
            {
              "internalType": "address",
              "name": "author",
              "type": "address"
            },
            {
              "internalType": "bool",
              "name": "exists",
              "type": "bool"
            },
            {
              "internalType": "string",
              "name": "description",
              "type": "string"
            },
            {
              "components": [
                {
                  "internalType": "address",
                  "name": "targetAddress",
                  "type": "address"
                }
              ],
              "internalType": "struct IGovernor.TargetMetadata",
              "name": "targetMetadata",
              "type": "tuple"
            },
            {
              "components": [
                {
                  "internalType": "address[]",
                  "name": "signers",
                  "type": "address[]"
                },
                {
                  "internalType": "uint256",
                  "name": "threshold",
                  "type": "uint256"
                }
              ],
              "internalType": "struct IGovernor.SafeMetadata",
              "name": "safeMetadata",
              "type": "tuple"
            }
          ],
          "internalType": "struct IGovernor.ProposalCore",
          "name": "proposal",
          "type": "tuple"
        },
        {
          "internalType": "bytes32[]",
          "name": "proof",
          "type": "bytes32[]"
        }
      ],
      "name": "propose",
      "outputs": [
        {
          "internalType": "uint256",
          "name": "",
          "type": "uint256"
        }
      ],
      "stateMutability": "payable",
      "type": "function"
    },
    {
      "inputs": [
        {
          "components": [
            {
              "internalType": "address",
              "name": "author",
              "type": "address"
            },
            {
              "internalType": "bool",
              "name": "exists",
              "type": "bool"
            },
            {
              "internalType": "string",
              "name": "description",
              "type": "string"
            },
            {
              "components": [
                {
                  "internalType": "address",
                  "name": "targetAddress",
                  "type": "address"
                }
              ],
              "internalType": "struct IGovernor.TargetMetadata",
              "name": "targetMetadata",
              "type": "tuple"
            },
            {
              "components": [
                {
                  "internalType": "address[]",
                  "name": "signers",
                  "type": "address[]"
                },
                {
                  "internalType": "uint256",
                  "name": "threshold",
                  "type": "uint256"
                }
              ],
              "internalType": "struct IGovernor.SafeMetadata",
              "name": "safeMetadata",
              "type": "tuple"
            }
          ],
          "internalType": "struct IGovernor.ProposalCore",
          "name": "proposal",
          "type": "tuple"
        }
      ],
      "name": "proposeWithoutProof",
      "outputs": [
        {
          "internalType": "uint256",
          "name": "",
          "type": "uint256"
        }
      ],
      "stateMutability": "payable",
      "type": "function"
    },
    {
      "inputs": [],
      "name": "rankLimit",
      "outputs": [
        {
          "internalType": "uint256",
          "name": "",
          "type": "uint256"
        }
      ],
      "stateMutability": "view",
      "type": "function"
    },
    {
      "inputs": [
        {
          "internalType": "contract RewardsModule",
          "name": "officialRewardsModule_",
          "type": "address"
        }
      ],
      "name": "setOfficialRewardsModule",
      "outputs": [],
      "stateMutability": "nonpayable",
      "type": "function"
    },
    {
      "inputs": [
        {
          "internalType": "uint256",
          "name": "",
          "type": "uint256"
        }
      ],
      "name": "sortedRanks",
      "outputs": [
        {
          "internalType": "uint256",
          "name": "",
          "type": "uint256"
        }
      ],
      "stateMutability": "view",
      "type": "function"
    },
    {
      "inputs": [],
      "name": "sortingEnabled",
      "outputs": [
        {
          "internalType": "uint256",
          "name": "",
          "type": "uint256"
        }
      ],
      "stateMutability": "view",
      "type": "function"
    },
    {
      "inputs": [],
      "name": "state",
      "outputs": [
        {
          "internalType": "enum IGovernor.ContestState",
          "name": "",
          "type": "uint8"
        }
      ],
      "stateMutability": "view",
      "type": "function"
    },
    {
      "inputs": [],
      "name": "submissionMerkleRoot",
      "outputs": [
        {
          "internalType": "bytes32",
          "name": "",
          "type": "bytes32"
        }
      ],
      "stateMutability": "view",
      "type": "function"
    },
    {
      "inputs": [],
      "name": "totalVotesCast",
      "outputs": [
        {
          "internalType": "uint256",
          "name": "",
          "type": "uint256"
        }
      ],
      "stateMutability": "view",
      "type": "function"
    },
    {
      "inputs": [
        {
          "components": [
            {
              "internalType": "address",
              "name": "author",
              "type": "address"
            },
            {
              "internalType": "bool",
              "name": "exists",
              "type": "bool"
            },
            {
              "internalType": "string",
              "name": "description",
              "type": "string"
            },
            {
              "components": [
                {
                  "internalType": "address",
                  "name": "targetAddress",
                  "type": "address"
                }
              ],
              "internalType": "struct IGovernor.TargetMetadata",
              "name": "targetMetadata",
              "type": "tuple"
            },
            {
              "components": [
                {
                  "internalType": "address[]",
                  "name": "signers",
                  "type": "address[]"
                },
                {
                  "internalType": "uint256",
                  "name": "threshold",
                  "type": "uint256"
                }
              ],
              "internalType": "struct IGovernor.SafeMetadata",
              "name": "safeMetadata",
              "type": "tuple"
            }
          ],
          "internalType": "struct IGovernor.ProposalCore",
          "name": "proposal",
          "type": "tuple"
        }
      ],
      "name": "validateProposalData",
      "outputs": [],
      "stateMutability": "nonpayable",
      "type": "function"
    },
    {
      "inputs": [
        {
          "internalType": "address",
          "name": "account",
          "type": "address"
        },
        {
          "internalType": "bytes32[]",
          "name": "proof",
          "type": "bytes32[]"
        }
      ],
      "name": "verifyProposer",
      "outputs": [],
      "stateMutability": "nonpayable",
      "type": "function"
    },
    {
      "inputs": [
        {
          "internalType": "address",
          "name": "account",
          "type": "address"
        },
        {
          "internalType": "uint256",
          "name": "totalVotes",
          "type": "uint256"
        },
        {
          "internalType": "bytes32[]",
          "name": "proof",
          "type": "bytes32[]"
        }
      ],
      "name": "verifyVoter",
      "outputs": [],
      "stateMutability": "nonpayable",
      "type": "function"
    },
    {
      "inputs": [],
      "name": "version",
      "outputs": [
        {
          "internalType": "string",
          "name": "",
          "type": "string"
        }
      ],
      "stateMutability": "view",
      "type": "function"
    },
    {
      "inputs": [],
      "name": "voteStart",
      "outputs": [
        {
          "internalType": "uint256",
          "name": "",
          "type": "uint256"
        }
      ],
      "stateMutability": "view",
      "type": "function"
    },
    {
      "inputs": [],
      "name": "votingDelay",
      "outputs": [
        {
          "internalType": "uint256",
          "name": "",
          "type": "uint256"
        }
      ],
      "stateMutability": "view",
      "type": "function"
    },
    {
      "inputs": [],
      "name": "votingMerkleRoot",
      "outputs": [
        {
          "internalType": "bytes32",
          "name": "",
          "type": "bytes32"
        }
      ],
      "stateMutability": "view",
      "type": "function"
    },
    {
      "inputs": [],
      "name": "votingPeriod",
      "outputs": [
        {
          "internalType": "uint256",
          "name": "",
          "type": "uint256"
        }
      ],
      "stateMutability": "view",
      "type": "function"
    }
  ],
  "bytecode": {
    "object": "0x6101006040523480156200001257600080fd5b50604051620045ae380380620045ae83398101604081905262000035916200053e565b806000815181106200004b576200004b6200064f565b6020026020010151816001815181106200006957620000696200064f565b6020026020010151826002815181106200008757620000876200064f565b602002602001015183600381518110620000a557620000a56200064f565b602002602001015184600481518110620000c357620000c36200064f565b602002602001015185600581518110620000e157620000e16200064f565b60200260200101518a8a8a8a8a6006815181106200010357620001036200064f565b60200260200101518b6007815181106200012157620001216200064f565b602002602001015183838e6008815181106200014157620001416200064f565b60200260200101518f6009815181106200015f576200015f6200064f565b602090810291909101015160809190915260a05260c09190915260e05260016200018a8782620006f4565b506002620001998682620006f4565b50600b829055600c8190556040517f1eae03a78f765227bc1e8574db32390cefa5b3c0a954017973e497e40a12373490620001d89088903390620007c0565b60405180910390a1505050505050620001f7866200024a60201b60201c565b62000202856200028b565b6200020d84620002cc565b62000218836200032f565b620002238262000370565b6200022e81620003b1565b6200023933620003f2565b505050505050505050505062000806565b60145460408051918252602082018390527fd299feb1d7d9345a48559601c471c3be7eea9a11f21d5e86809198f40a974db4910160405180910390a1601455565b60155460408051918252602082018390527fc565b045403dc03c2eea82b81a0465edad9e2e7fc4d97e11421c209da93d7a93910160405180910390a1601555565b80600003620002ee5760405163929dd0ff60e01b815260040160405180910390fd5b60165460408051918252602082018390527f7e3f7f0708a84de9203036abaa450dccc85ad5ff52f78c170f3edb55cf5e8828910160405180910390a1601655565b60175460408051918252602082018390527fe971b819c7fb95c72451f557226aceb5baaf4994a9d39a79bbfa0040e87500b9910160405180910390a1601755565b60185460408051918252602082018390527f4984ec996723330ee95979ed65a2a4b41edd914e68a187efe92596474643bdff910160405180910390a1601855565b60195460408051918252602082018390527f9c7b27f091caef3a83be73d89320404fa0c4a52993685ff0651672e49e6e55ab910160405180910390a1601955565b601a54604080516001600160a01b03928316815291831660208301527fc30034fc2e9697980e08935bbc287db3eaa44a4aa113ef4c108b356adbf911ce910160405180910390a1601a80546001600160a01b0319166001600160a01b0392909216919091179055565b634e487b7160e01b600052604160045260246000fd5b604051601f8201601f191681016001600160401b03811182821017156200049c576200049c6200045b565b604052919050565b60005b83811015620004c1578181015183820152602001620004a7565b50506000910152565b600082601f830112620004dc57600080fd5b81516001600160401b03811115620004f857620004f86200045b565b6200050d601f8201601f191660200162000471565b8181528460208386010111156200052357600080fd5b62000536826020830160208701620004a4565b949350505050565b600080600080600060a086880312156200055757600080fd5b85516001600160401b03808211156200056f57600080fd5b6200057d89838a01620004ca565b96506020915081880151818111156200059557600080fd5b620005a38a828b01620004ca565b9650506040880151945060608801519350608088015181811115620005c757600080fd5b8801601f81018a13620005d957600080fd5b805182811115620005ee57620005ee6200045b565b8060051b92506200060184840162000471565b818152928201840192848101908c8511156200061c57600080fd5b928501925b848410156200063c5783518252928501929085019062000621565b8096505050505050509295509295909350565b634e487b7160e01b600052603260045260246000fd5b600181811c908216806200067a57607f821691505b6020821081036200069b57634e487b7160e01b600052602260045260246000fd5b50919050565b601f821115620006ef57600081815260208120601f850160051c81016020861015620006ca5750805b601f850160051c820191505b81811015620006eb57828155600101620006d6565b5050505b505050565b81516001600160401b038111156200071057620007106200045b565b620007288162000721845462000665565b84620006a1565b602080601f831160018114620007605760008415620007475750858301515b600019600386901b1c1916600185901b178555620006eb565b600085815260208120601f198616915b82811015620007915788860151825594840194600190910190840162000770565b5085821015620007b05787850151600019600388901b60f8161c191681555b5050505050600190811b01905550565b6040815260008351806040840152620007e1816060850160208801620004a4565b6001600160a01b0393909316602083015250601f91909101601f191601606001919050565b60805160a05160c05160e051613d366200087860003960008181610bff0152611218015260008181610b240152818161103c015281816111b3015261133b0152600081816104ab01528181612e1a0152612ff8015260008181610679015281816120360152612a600152613d366000f3fe6080604052600436106103f95760003560e01c80636ed815ad11610213578063bddc164111610123578063ea8a1af0116100ab578063f0a7db0a1161007a578063f0a7db0a14610cca578063f4f3d7ec14610cea578063f79c017214610d0a578063fb8ddab414610d3a578063fb9bf8d414610d5a57600080fd5b8063ea8a1af014610c63578063edcd1be414610c78578063eef18e1714610c8d578063efa90d3614610cb557600080fd5b8063cb853950116100f2578063cb85395014610ba8578063d45a010b14610bd8578063dd96a19d14610bed578063dea5f6a614610c21578063e031535b14610c4e57600080fd5b8063bddc164114610b12578063c0ffaa7814610b46578063c19d93fb14610b59578063c7f758a814610b7b57600080fd5b80639174778c116101a65780639ba197af116101755780639ba197af14610a42578063a1ac6cb214610a6f578063aec116b614610a9c578063b323580d14610ad2578063b66d1da314610af257600080fd5b80639174778c146109bd578063930de979146109dd578063946369b514610a0d5780639b644a2314610a2257600080fd5b8063785ddfe5116101e2578063785ddfe51461095d5780637c65d7111461097d5780637de418d514610992578063832009af146109a857600080fd5b80636ed815ad146108e65780636fd3636b146108fb578063711effc81461091057806375e509c51461093057600080fd5b80633932abb11161030e57806350c4b616116102a15780635c7107d8116102705780635c7107d81461083b5780635f953a031461085b57806360506ff61461089157806365f16263146108a65780636e4eb810146108c657600080fd5b806350c4b61614610785578063531bd812146107a5578063544ffc9c146107c557806354fd4d501461080f57600080fd5b8063458da87d116102dd578063458da87d1461071a578063476f4d8a1461073a5780634d24a67f1461074d57806350a5e5241461076257600080fd5b80633932abb11461069b5780633b6d199b146106b05780633f9942ff146106e0578063419c533c146106fa57600080fd5b80630aa25e44116103915780632c39805f116103605780632c39805f146105d9578063325cc6d9146105fb57806332763c221461061b578063347cf6651461064b578063366ecf5b1461066757600080fd5b80630aa25e44146105605780631242b7371461058057806320b3e845146105a2578063262e59e9146105c457600080fd5b80630414126a116103cd5780630414126a1461049957806305846cae146104cd57806306fdde03146104ed578063070dc5d91461050f57600080fd5b80624114a8146103fe578063013cf08b1461042657806302a251a31461045757806302d05d3f1461046c575b600080fd5b34801561040a57600080fd5b50610413610d6f565b6040519081526020015b60405180910390f35b34801561043257600080fd5b50610446610441366004613171565b610d7f565b60405161041d959493929190613229565b34801561046357600080fd5b50610413610ec7565b34801561047857600080fd5b50610481610ed2565b6040516001600160a01b03909116815260200161041d565b3480156104a557600080fd5b506104137f000000000000000000000000000000000000000000000000000000000000000081565b3480156104d957600080fd5b506104136104e8366004613171565b610ee6565b3480156104f957600080fd5b50610502610f07565b60405161041d919061327b565b34801561051b57600080fd5b5061055361052a366004613171565b601260209081526000918252604091829020825180840190935280548352600101549082015281565b60405161041d919061328e565b34801561056c57600080fd5b5061048161057b366004613171565b610f99565b34801561058c57600080fd5b50610595610fc3565b60405161041d91906132e0565b3480156105ae57600080fd5b506105c26105bd36600461334c565b61101a565b005b3480156105d057600080fd5b506104136110a7565b3480156105e557600080fd5b506105ee6110c3565b60405161041d91906133a0565b34801561060757600080fd5b50610413610616366004613171565b611124565b34801561062757600080fd5b5061063b610636366004613402565b611134565b604051901515815260200161041d565b34801561065757600080fd5b50610413678ac7230489e8000081565b34801561067357600080fd5b506104137f000000000000000000000000000000000000000000000000000000000000000081565b3480156106a757600080fd5b50610413611271565b3480156106bc57600080fd5b5061063b6106cb366004613171565b60009081526005602052604090205460ff1690565b3480156106ec57600080fd5b5060065461063b9060ff1681565b34801561070657600080fd5b50610413610715366004613483565b61127c565b34801561072657600080fd5b5061041361073536600461378f565b6112d2565b6104136107483660046137db565b611303565b34801561075957600080fd5b506104136113be565b34801561076e57600080fd5b506107776113cc565b60405161041d92919061380f565b34801561079157600080fd5b506104816107a0366004613171565b6114d2565b3480156107b157600080fd5b506105c26107c0366004613878565b6114e2565b3480156107d157600080fd5b506107fa6107e0366004613171565b600090815260126020526040902080546001909101549091565b6040805192835260208301919091520161041d565b34801561081b57600080fd5b50604080518082019091526003815262342e3560e81b6020820152610502565b34801561084757600080fd5b50610413610856366004613171565b611548565b34801561086757600080fd5b506104136108763660046138d3565b6001600160a01b031660009081526008602052604090205490565b34801561089d57600080fd5b5061041361164f565b3480156108b257600080fd5b506104136108c13660046138f0565b61165a565b3480156108d257600080fd5b506107fa6108e1366004613925565b6116da565b3480156108f257600080fd5b50600b54610413565b34801561090757600080fd5b5061059561170f565b34801561091c57600080fd5b5061041361092b366004613955565b611765565b34801561093c57600080fd5b5061041361094b3660046138d3565b60086020526000908152604090205481565b34801561096957600080fd5b50601b54610481906001600160a01b031681565b34801561098957600080fd5b50610502611796565b34801561099e57600080fd5b5061041360105481565b3480156109b457600080fd5b506104136117a5565b3480156109c957600080fd5b5061063b6109d8366004613171565b6117b0565b3480156109e957600080fd5b5061063b6109f83660046138d3565b600e6020526000908152604090205460ff1681565b348015610a1957600080fd5b506105ee611854565b348015610a2e57600080fd5b50610413610a3d366004613171565b6118b4565b348015610a4e57600080fd5b50610413610a5d366004613171565b60009081526013602052604090205490565b348015610a7b57600080fd5b50610413610a8a3660046138d3565b60116020526000908152604090205481565b348015610aa857600080fd5b50610413610ab73660046138d3565b6001600160a01b031660009081526011602052604090205490565b348015610ade57600080fd5b506105ee610aed366004613171565b6118c4565b348015610afe57600080fd5b50610413610b0d366004613171565b611936565b348015610b1e57600080fd5b506104137f000000000000000000000000000000000000000000000000000000000000000081565b610413610b54366004613977565b611996565b348015610b6557600080fd5b50610b6e6119fe565b60405161041d91906139e8565b348015610b8757600080fd5b50610b9b610b96366004613171565b611a70565b60405161041d9190613a02565b348015610bb457600080fd5b5061063b610bc33660046138d3565b600f6020526000908152604090205460ff1681565b348015610be457600080fd5b50610777611bea565b348015610bf957600080fd5b506104137f000000000000000000000000000000000000000000000000000000000000000081565b348015610c2d57600080fd5b50610413610c3c3660046138d3565b600d6020526000908152604090205481565b348015610c5a57600080fd5b50610413611db5565b348015610c6f57600080fd5b506105c2611dc7565b348015610c8457600080fd5b50600c54610413565b348015610c9957600080fd5b5061048173dc652c746a8f85e18ce632d97c6118e8a52fa73881565b348015610cc157600080fd5b50610595611ecb565b348015610cd657600080fd5b506105c2610ce5366004613a69565b611f21565b348015610cf657600080fd5b506105c2610d053660046138d3565b6120b8565b348015610d1657600080fd5b5061063b610d25366004613171565b60056020526000908152604090205460ff1681565b348015610d4657600080fd5b506105c2610d5536600461378f565b61214b565b348015610d6657600080fd5b5061041361229a565b6000610d7a60145490565b905090565b600760205260009081526040902080546001820180546001600160a01b03831693600160a01b90930460ff16929190610db790613aaa565b80601f0160208091040260200160405190810160405280929190818152602001828054610de390613aaa565b8015610e305780601f10610e0557610100808354040283529160200191610e30565b820191906000526020600020905b815481529060010190602001808311610e1357829003601f168201915b5050604080516020808201835260028801546001600160a01b031682528251600389018054606093810283018401865294820185815298999398939750909550935084928491840182828015610eaf57602002820191906000526020600020905b81546001600160a01b03168152600190910190602001808311610e91575b50505050508152602001600182015481525050905085565b6000610d7a60165490565b6000610d7a601a546001600160a01b031690565b60048181548110610ef657600080fd5b600091825260209091200154905081565b606060018054610f1690613aaa565b80601f0160208091040260200160405190810160405280929190818152602001828054610f4290613aaa565b8015610f8f5780601f10610f6457610100808354040283529160200191610f8f565b820191906000526020600020905b815481529060010190602001808311610f7257829003601f168201915b5050505050905090565b60098181548110610fa957600080fd5b6000918252602090912001546001600160a01b0316905081565b60606004805480602002602001604051908101604052809291908181526020018280548015610f8f57602002820191906000526020600020905b815481526020019060010190808311610ffd575050505050905090565b6001600160a01b0383166000908152600f602052604090205460ff166110a2577f000000000000000000000000000000000000000000000000000000000000000060000361106757505050565b61107d83678ac7230489e8000084846000611134565b506001600160a01b0383166000908152600f60205260409020805460ff191660011790555b505050565b60006110b1610ec7565b6110b9611db5565b610d7a9190613af4565b6060600a805480602002602001604051908101604052809291908181526020018280548015610f8f57602002820191906000526020600020905b81546001600160a01b031681526001909101906020018083116110fd575050505050905090565b60008181548110610ef657600080fd5b6040516bffffffffffffffffffffffff19606087901b1660208201526034810185905260009081906054016040516020818303038152906040528051906020012090506000836111e3576111de8686808060200260200160405190810160405280939291908181526020018383602002808284376000920191909152507f000000000000000000000000000000000000000000000000000000000000000092508691506122a59050565b611243565b6112438686808060200260200160405190810160405280939291908181526020018383602002808284376000920191909152507f000000000000000000000000000000000000000000000000000000000000000092508691506122a59050565b9050806112635760405163452c2df160e11b815260040160405180910390fd5b506001979650505050505050565b6000610d7a60155490565b600086815260056020526040812054339060ff16156112ae576040516358f1119560e01b815260040160405180910390fd5b6112ba818786866114e2565b6112c6888289886122bb565b98975050505050505050565b6000816040516020016112e59190613a02565b60408051601f19818403018152919052805160209091012092915050565b6000600b54341461133957600b546040516380a7af9f60e01b815234600482015260248101919091526044015b60405180910390fd5b7f00000000000000000000000000000000000000000000000000000000000000001561138f57336000908152600f602052604090205460ff1661138f57604051631f22097560e01b815260040160405180910390fd5b61139b610d5583613b07565b60006113ae6113a984613b07565b612402565b90506113b8612691565b92915050565b6113c9600180613af4565b81565b60608060006113d9611ecb565b9050600081516001600160401b038111156113f6576113f66134f3565b60405190808252806020026020018201604052801561143b57816020015b60408051808201909152600080825260208201528152602001906001900390816114145790505b50905060005b82518110156114c8576012600084838151811061146057611460613b13565b60200260200101518152602001908152602001600020600001604051806040016040529081600082015481526020016001820154815250508282815181106114aa576114aa613b13565b602002602001018190525080806114c090613b29565b915050611441565b5090939092509050565b600a8181548110610fa957600080fd5b6001600160a01b0384166000908152600e602052604090205460ff1661154257611510848484846001611134565b506001600160a01b0384166000908152600d60209081526040808320869055600e9091529020805460ff191660011790555b50505050565b60008160000361156b57604051630ec90a1760e31b815260040160405180910390fd5b600080546040805160208084028201810190925282815291929190829084908301828280156115b957602002820191906000526020600020905b8154815260200190600101908083116115a5575b5050505050905060006001905060005b83811015611635576116008382815181106115e6576115e6613b13565b602002602001015160009081526013602052604090205490565b15611623578582036116155795945050505050565b8161161f81613b29565b9250505b8061162d81613b29565b9150506115c9565b50604051632cc2ab7360e11b815260040160405180910390fd5b6000610d7a60195490565b600083815260056020526040812054339060ff161561168c576040516358f1119560e01b815260040160405180910390fd5b6001600160a01b0381166000908152600e602052604090205460ff166116c55760405163126ec6d160e31b815260040160405180910390fd5b6116d1858286866122bb565b95945050505050565b60008281526012602090815260408083206001600160a01b0385168452600301909152902080546001909101545b9250929050565b60606000805480602002602001604051908101604052809291908181526020018280548015610f8f5760200282019190600052602060002090815481526020019060010190808311610ffd575050505050905090565b6013602052816000526040600020818154811061178157600080fd5b90600052602060002001600091509150505481565b606060028054610f1690613aaa565b6000610d7a60175490565b600080546117c090600190613b42565b8211156117e0576040516365d6f35160e11b815260040160405180910390fd5b60005b6117ee836001613af4565b81101561184b57600161182a6000838154811061180d5761180d613b13565b906000526020600020015460009081526013602052604090205490565b11156118395750600192915050565b8061184381613b29565b9150506117e3565b50600092915050565b60606009805480602002602001604051908101604052809291908181526020018280548015610f8f576020028201919060005260206000209081546001600160a01b031681526001909101906020018083116110fd575050505050905090565b60038181548110610ef657600080fd5b600081815260126020908152604091829020600281018054845181850281018501909552808552606094929383018282801561192957602002820191906000526020600020905b81546001600160a01b0316815260019091019060200180831161190b575b5050505050915050919050565b60008181526013602052604081205460011461196557604051633832a15560e21b815260040160405180910390fd5b6000828152601360205260408120805490919061198457611984613b13565b90600052602060002001549050919050565b6000600b5434146119c757600b546040516380a7af9f60e01b81523460048201526024810191909152604401611330565b6119d233848461101a565b6119de610d5585613b07565b60006119ec6113a986613b07565b90506119f6612691565b949350505050565b60065460009060ff1615611a125750600290565b6000611a1c610d6f565b9050428110611a2d57600091505090565b6000611a37611db5565b9050428110611a495760039250505090565b6000611a536110a7565b9050428110611a66576001935050505090565b6004935050505090565b611a78613086565b600082815260076020908152604091829020825160a08101845281546001600160a01b0381168252600160a01b900460ff161515928101929092526001810180549293919291840191611aca90613aaa565b80601f0160208091040260200160405190810160405280929190818152602001828054611af690613aaa565b8015611b435780601f10611b1857610100808354040283529160200191611b43565b820191906000526020600020905b815481529060010190602001808311611b2657829003601f168201915b5050509183525050604080516020818101835260028501546001600160a01b03168252808401919091528151600385018054606093810283018401855282850181815294909501949193909284928491840182828015611bcc57602002820191906000526020600020905b81546001600160a01b03168152600190910190602001808311611bae575b50505050508152602001600182015481525050815250509050919050565b6060806000611bf7611ecb565b9050600081516001600160401b03811115611c1457611c146134f3565b604051908082528060200260200182016040528015611c3d578160200160208202803683370190505b509050600082516001600160401b03811115611c5b57611c5b6134f3565b604051908082528060200260200182016040528015611ca057816020015b6040805180820190915260008082526020820152815260200190600190039081611c795790505b5090506000805b8451811015611da957611ce2858281518110611cc557611cc5613b13565b602002602001015160009081526005602052604090205460ff1690565b611d9757848181518110611cf857611cf8613b13565b6020026020010151848381518110611d1257611d12613b13565b60200260200101818152505060126000868381518110611d3457611d34613b13565b6020026020010151815260200190815260200160002060000160405180604001604052908160008201548152602001600182015481525050838381518110611d7e57611d7e613b13565b6020908102919091010152611d94600183613af4565b91505b80611da181613b29565b915050611ca7565b50919590945092505050565b6000611dbf611271565b6110b9610d6f565b611dcf610ed2565b6001600160a01b0316336001600160a01b031614158015611e0457503373dc652c746a8f85e18ce632d97c6118e8a52fa73814155b15611e22576040516301dbf46f60e71b815260040160405180910390fd5b6000611e2c6119fe565b90506002816004811115611e4257611e426139d2565b03611e6057604051633c30acbf60e01b815260040160405180910390fd5b6004816004811115611e7457611e746139d2565b03611e92576040516307b9d0f760e01b815260040160405180910390fd5b6006805460ff191660011790556040517f4cd963a081760a54f571abc0f1db4dde31b4a07d8d6da3e844b8c6f47eeaaa4290600090a150565b60606003805480602002602001604051908101604052809291908181526020018280548015610f8f5760200282019190600052602060002090815481526020019060010190808311610ffd575050505050905090565b611f29610ed2565b6001600160a01b0316336001600160a01b031614611f5a5760405163b8d4540960e01b815260040160405180910390fd5b6004611f646119fe565b6004811115611f7557611f756139d2565b03611f93576040516331da1c8b60e11b815260040160405180910390fd5b60005b8181101561207b576000838383818110611fb257611fb2613b13565b60209081029290920135600081815260059093526040909220549192505060ff16612068576000818152600560205260408120805460ff191660019081179091556004805491820181559091527f8a35acfbc15ff81a39ae7d344fd709f28e8600b4aa8c65c6b64bfe7fe36bd19b0181905561202c61164f565b15801561205957507f00000000000000000000000000000000000000000000000000000000000000006001145b156120685761206884846127a5565b508061207381613b29565b915050611f96565b507f75a75cf5c561892f4cc5b26c1b8e933849b42238c96dd073d080d1ae96c5141660036040516120ac9190613b55565b60405180910390a15050565b6120c0610ed2565b6001600160a01b0316336001600160a01b0316146120f157604051630f4cb1bd60e11b815260040160405180910390fd5b601b80546001600160a01b038381166001600160a01b031983168117909355604080519190921680825260208201939093527f753a2cf8d360cff631674504210913e48247f8e56b3e6d2006c2103d4095999f91016120ac565b80516001600160a01b0316331461218957805160405163fbbf4d7f60e01b81526001600160a01b039091166004820152336024820152604401611330565b60005b612197600180613af4565b8110156122705760008160018111156121b2576121b26139d2565b905060008160018111156121c8576121c86139d2565b036121d3575061225e565b60018160018111156121e7576121e76139d2565b0361224157608083015151516000036122135760405163c3b2798b60e01b815260040160405180910390fd5b82608001516020015160000361223c576040516392fb9a3560e01b815260040160405180910390fd5b61225c565b8060405163d2277d4960e01b81526004016113309190613b90565b505b8061226881613b29565b91505061218c565b508060400151516000036122975760405163e182473360e01b815260040160405180910390fd5b50565b6000610d7a60185490565b6000826122b28584612802565b14949350505050565b600060016122c76119fe565b60048111156122d8576122d86139d2565b146122ff576122e56119fe565b60405163049cab4960e51b815260040161133091906139e8565b816000036123205760405163502e1c2960e01b815260040160405180910390fd5b61235285858585600d60008a6001600160a01b03166001600160a01b031681526020019081526020016000205461284f565b600a80546001810182556000919091527fc65a7bb8d6351c1cf70c95a316cc6a92839c986682d98bc35f958f4883f9d2a80180546001600160a01b031916331790556040805186815260ff851660208201529081018390526001600160a01b038516907f2c9deb38f462962eadbd85a9d3a4120503ee091f1582eaaa10aa8c6797651d299060600160405180910390a25050506001600160a01b03166000908152600d6020526040902054919050565b6000600361240e6119fe565b600481111561241f5761241f6139d2565b146124465761242c6119fe565b604051632889531360e01b815260040161133091906139e8565b61244e6117a5565b33600090815260086020526040902054036124875761246b6117a5565b604051632bd6d93960e21b815260040161133091815260200190565b61248f61229a565b60045460035461249f9190613b42565b036124c8576124ac61229a565b6040516302217f5360e51b815260040161133091815260200190565b60006124d3836112d2565b600081815260076020526040902054909150600160a01b900460ff16156125105760405163baffc42360e01b815260048101829052602401611330565b6003805460018181019092557fc2575a0e9e593c00f959f8c92f12db2869c3395a3b0502d05e2516446f71f85b0182905560008281526007602090815260409182902086518154928801511515600160a01b026001600160a81b03199093166001600160a01b03909116179190911781559085015185928201906125949082613bf2565b506060820151516002820180546001600160a01b0319166001600160a01b0390921691909117905560808201518051805160038401916125d9918391602001906130f7565b5060209182015160019182015533600090815260089092526040822080549194509250612607908490613af4565b9091555050600980546001810182556000919091527f6e1540171b6c0c960b71a7020d9f60077f6af931a8bbf590da0223dacf75c7af0180546001600160a01b031916339081179091556040805183815260208101929092527fcd423cc1203c0af96b9b3d68d73b3064a69de2d14450bb7181c5e5df2132b358910160405180910390a192915050565b600b54156127a35760006064600c5460646126ac9190613b42565b6126b69034613cb1565b6126c09190613cc8565b90508015612734576126e673dc652c746a8f85e18ce632d97c6118e8a52fa73882612adf565b6040805173dc652c746a8f85e18ce632d97c6118e8a52fa7388152602081018390527fdf20fd1e76bc69d672e4814fafb2c449bba3a5369d8359adf9e05e6fde87b056910160405180910390a15b60006127408234613b42565b905080156127a057612759612753610ed2565b82612adf565b7fdf20fd1e76bc69d672e4814fafb2c449bba3a5369d8359adf9e05e6fde87b056612782610ed2565b604080516001600160a01b03909216825260208201849052016120ac565b50505b565b60005b818110156110a25760008383838181106127c4576127c4613b13565b60209081029290920135600081815260129093526040909220549192506127ed90508282612bf8565b505080806127fa90613b29565b9150506127a8565b600081815b8451811015612847576128338286838151811061282657612826613b13565b6020026020010151612d29565b91508061283f81613b29565b915050612807565b509392505050565b60008581526012602090815260408083206001600160a01b038816845260119092529091205461287f9083613b42565b83111561289f5760405163660fa07360e11b815260040160405180910390fd5b6001600160a01b03851660009081526003820160205260408120541580156128e257506001600160a01b0386166000908152600383016020526040902060010154155b905060ff851661293a57815484908390600090612900908490613af4565b90915550506001600160a01b03861660009081526003830160205260408120805486929061292f908490613af4565b909155506129d09050565b60001960ff8616016129b75761294e61164f565b60011461296e57604051639755958f60e01b815260040160405180910390fd5b838260000160010160008282546129859190613af4565b90915550506001600160a01b03861660009081526003830160205260408120600101805486929061292f908490613af4565b604051638eed55d160e01b815260040160405180910390fd5b8015612a0757600282018054600181018255600091825260209091200180546001600160a01b0319166001600160a01b0388161790555b6001600160a01b03861660009081526011602052604081208054869290612a2f908490613af4565b925050819055508360106000828254612a489190613af4565b90915550612a56905061164f565b158015612a8357507f00000000000000000000000000000000000000000000000000000000000000006001145b15612ad65781546000612a968683613b42565b90508015612aa857612aa88982612bf8565b600082815260136020908152604082208054600181018255908352912001899055612ad38183612d5b565b50505b50505050505050565b80471015612b2f5760405162461bcd60e51b815260206004820152601d60248201527f416464726573733a20696e73756666696369656e742062616c616e63650000006044820152606401611330565b6000826001600160a01b03168260405160006040518083038185875af1925050503d8060008114612b7c576040519150601f19603f3d011682016040523d82523d6000602084013e612b81565b606091505b50509050806110a25760405162461bcd60e51b815260206004820152603a60248201527f416464726573733a20756e61626c6520746f2073656e642076616c75652c207260448201527f6563697069656e74206d617920686176652072657665727465640000000000006064820152608401611330565b600081815260136020908152604080832080548251818502810185019093528083529192909190830182828015612c4e57602002820191906000526020600020905b815481526020019060010190808311612c3a575b5050505050905060005b81518110156115425783828281518110612c7457612c74613b13565b602002602001015103612d17578160018351612c909190613b42565b81518110612ca057612ca0613b13565b6020026020010151601360008581526020019081526020016000208281548110612ccc57612ccc613b13565b906000526020600020018190555060136000848152602001908152602001600020805480612cfc57612cfc613cea565b60019003818190600052602060002001600090559055611542565b80612d2181613b29565b915050612c58565b6000818310612d45576000828152602084905260409020612d54565b60008381526020839052604090205b9392505050565b60008054604080516020808402820181019092528281529192919082908490830182828015612da957602002820191906000526020600020905b815481526020019060010190808311612d95575b5050505050905081600003612ded575050600080546001810182559080527f290decd9548b62a8d60345a988386fc84ba6bc95484008f6362f93160ef3e563015550565b80612df9600184613b42565b81518110612e0957612e09613b13565b6020026020010151831015612e7a577f00000000000000000000000000000000000000000000000000000000000000008203612e455750505050565b5050600080546001810182559080527f290decd9548b62a8d60345a988386fc84ba6bc95484008f6362f93160ef3e563015550565b611542848484846000805b83811015612eef57828181518110612e9f57612e9f613b13565b60200260200101518503612eb4575050611542565b828181518110612ec657612ec6613b13565b6020026020010151851115612edd57809150612eef565b80612ee781613b29565b915050612e85565b5060008086118015612f0d5750600086815260136020526040902054155b90506000818015612f36575086848481518110612f2c57612f2c613b13565b6020026020010151145b61305d57612f45600186613b42565b8314612fed576000612f58846001613af4565b90505b85811015612feb5784612f6f600183613b42565b81518110612f7f57612f7f613b13565b602002602001015160008281548110612f9a57612f9a613b13565b600091825260209091200155828015612fcb575087858281518110612fc157612fc1613b13565b6020026020010151145b15612fd95760019150612feb565b80612fe381613b29565b915050612f5b565b505b8015801561301a57507f000000000000000000000000000000000000000000000000000000000000000085105b1561305d5760008461302d600188613b42565b8151811061303d5761303d613b13565b602090810291909101810151825460018101845560009384529190922001555b856000848154811061307157613071613b13565b60009182526020909120015550505050505050565b6040518060a0016040528060006001600160a01b03168152602001600015158152602001606081526020016130d0604051806020016040528060006001600160a01b031681525090565b81526020016130f2604051806040016040528060608152602001600081525090565b905290565b82805482825590600052602060002090810192821561314c579160200282015b8281111561314c57825182546001600160a01b0319166001600160a01b03909116178255602090920191600190910190613117565b5061315892915061315c565b5090565b5b80821115613158576000815560010161315d565b60006020828403121561318357600080fd5b5035919050565b6000815180845260005b818110156131b057602081850181015186830182015201613194565b506000602082860101526020601f19601f83011685010191505092915050565b805160408084528151908401819052600091602091908201906060860190845b818110156132155783516001600160a01b0316835292840192918401916001016131f0565b505093820151949091019390935250919050565b600060018060a01b038088168352861515602084015260a0604084015261325360a084018761318a565b818651166060850152838103608085015261326e81866131d0565b9998505050505050505050565b602081526000612d54602083018461318a565b8151815260208083015190820152604081016113b8565b600081518084526020808501945080840160005b838110156132d5578151875295820195908201906001016132b9565b509495945050505050565b602081526000612d5460208301846132a5565b6001600160a01b038116811461229757600080fd5b60008083601f84011261331a57600080fd5b5081356001600160401b0381111561333157600080fd5b6020830191508360208260051b850101111561170857600080fd5b60008060006040848603121561336157600080fd5b833561336c816132f3565b925060208401356001600160401b0381111561338757600080fd5b61339386828701613308565b9497909650939450505050565b6020808252825182820181905260009190848201906040850190845b818110156133e15783516001600160a01b0316835292840192918401916001016133bc565b50909695505050505050565b803580151581146133fd57600080fd5b919050565b60008060008060006080868803121561341a57600080fd5b8535613425816132f3565b94506020860135935060408601356001600160401b0381111561344757600080fd5b61345388828901613308565b90945092506134669050606087016133ed565b90509295509295909350565b803560ff811681146133fd57600080fd5b60008060008060008060a0878903121561349c57600080fd5b863595506134ac60208801613472565b9450604087013593506060870135925060808701356001600160401b038111156134d557600080fd5b6134e189828a01613308565b979a9699509497509295939492505050565b634e487b7160e01b600052604160045260246000fd5b604080519081016001600160401b038111828210171561352b5761352b6134f3565b60405290565b60405160a081016001600160401b038111828210171561352b5761352b6134f3565b604051601f8201601f191681016001600160401b038111828210171561357b5761357b6134f3565b604052919050565b60006020828403121561359557600080fd5b604051602081018181106001600160401b03821117156135b7576135b76134f3565b60405290508082356135c8816132f3565b905292915050565b6000604082840312156135e257600080fd5b6135ea613509565b905081356001600160401b038082111561360357600080fd5b818401915084601f83011261361757600080fd5b813560208282111561362b5761362b6134f3565b8160051b925061363c818401613553565b828152928401810192818101908885111561365657600080fd5b948201945b848610156136805785359350613670846132f3565b838252948201949082019061365b565b808752505080860135818601525050505092915050565b600060a082840312156136a957600080fd5b6136b1613531565b905081356136be816132f3565b815260206136cd8382016133ed565b8183015260408301356001600160401b03808211156136eb57600080fd5b818501915085601f8301126136ff57600080fd5b813581811115613711576137116134f3565b613723601f8201601f19168501613553565b818152878583860101111561373757600080fd5b81858501868301376000858383010152806040870152505061375c8660608701613583565b6060850152608085013592508083111561377557600080fd5b5050613783848285016135d0565b60808301525092915050565b6000602082840312156137a157600080fd5b81356001600160401b038111156137b757600080fd5b6119f684828501613697565b600060a082840312156137d557600080fd5b50919050565b6000602082840312156137ed57600080fd5b81356001600160401b0381111561380357600080fd5b6119f6848285016137c3565b60006040808352613822818401866132a5565b83810360208581019190915285518083528682019282019060005b8181101561386a5761385a83865180518252602090810151910152565b938301939185019160010161383d565b509098975050505050505050565b6000806000806060858703121561388e57600080fd5b8435613899816132f3565b93506020850135925060408501356001600160401b038111156138bb57600080fd5b6138c787828801613308565b95989497509550505050565b6000602082840312156138e557600080fd5b8135612d54816132f3565b60008060006060848603121561390557600080fd5b8335925061391560208501613472565b9150604084013590509250925092565b6000806040838503121561393857600080fd5b82359150602083013561394a816132f3565b809150509250929050565b6000806040838503121561396857600080fd5b50508035926020909101359150565b60008060006040848603121561398c57600080fd5b83356001600160401b03808211156139a357600080fd5b6139af878388016137c3565b945060208601359150808211156139c557600080fd5b5061339386828701613308565b634e487b7160e01b600052602160045260246000fd5b60208101600583106139fc576139fc6139d2565b91905290565b60208152600060018060a01b03808451166020840152602084015115156040840152604084015160a06060850152613a3d60c085018261318a565b90508160608601515116608085015260808501519150601f198482030160a08501526116d181836131d0565b60008060208385031215613a7c57600080fd5b82356001600160401b03811115613a9257600080fd5b613a9e85828601613308565b90969095509350505050565b600181811c90821680613abe57607f821691505b6020821081036137d557634e487b7160e01b600052602260045260246000fd5b634e487b7160e01b600052601160045260246000fd5b808201808211156113b8576113b8613ade565b60006113b83683613697565b634e487b7160e01b600052603260045260246000fd5b600060018201613b3b57613b3b613ade565b5060010190565b818103818111156113b8576113b8613ade565b6020808252825482820181905260008481528281209092916040850190845b818110156133e157835483526001938401939285019201613b74565b60208101600283106139fc576139fc6139d2565b601f8211156110a257600081815260208120601f850160051c81016020861015613bcb5750805b601f850160051c820191505b81811015613bea57828155600101613bd7565b505050505050565b81516001600160401b03811115613c0b57613c0b6134f3565b613c1f81613c198454613aaa565b84613ba4565b602080601f831160018114613c545760008415613c3c5750858301515b600019600386901b1c1916600185901b178555613bea565b600085815260208120601f198616915b82811015613c8357888601518255948401946001909101908401613c64565b5085821015613ca15787850151600019600388901b60f8161c191681555b5050505050600190811b01905550565b80820281158282048414176113b8576113b8613ade565b600082613ce557634e487b7160e01b600052601260045260246000fd5b500490565b634e487b7160e01b600052603160045260246000fdfea26469706673582212206ff65a054213ba32b2b88bfa668be2531df80169cf13a4698e5919e495b7710d64736f6c63430008130033",
    "linkReferences": {}
  },
  "methodIdentifiers": {
    "AMOUNT_FOR_SUMBITTER_PROOF()": "347cf665",
    "JK_LABS_ADDRESS()": "eef18e17",
    "METADATAS_COUNT()": "4d24a67f",
    "addressSubmitterVerified(address)": "cb853950",
    "addressTotalCastVoteCounts(address)": "a1ac6cb2",
    "addressTotalVotes(address)": "dea5f6a6",
    "addressTotalVotesVerified(address)": "930de979",
    "addressesThatHaveVoted(uint256)": "50c4b616",
    "allProposalTotalVotes()": "50a5e524",
    "allProposalTotalVotesWithoutDeleted()": "d45a010b",
    "cancel()": "ea8a1af0",
    "canceled()": "3f9942ff",
    "castVote(uint256,uint8,uint256,uint256,bytes32[])": "419c533c",
    "castVoteWithoutProof(uint256,uint8,uint256)": "65f16263",
    "checkProof(address,uint256,bytes32[],bool)": "32763c22",
    "contestAddressTotalVotesCast(address)": "aec116b6",
    "contestDeadline()": "262e59e9",
    "contestStart()": "004114a8",
    "costToPropose()": "6ed815ad",
    "creator()": "02d05d3f",
    "deleteProposals(uint256[])": "f0a7db0a",
    "deletedProposalIds(uint256)": "05846cae",
    "downvotingAllowed()": "60506ff6",
    "forVotesToProposalIds(uint256,uint256)": "711effc8",
    "getAllAddressesThatHaveVoted()": "2c39805f",
    "getAllDeletedProposalIds()": "1242b737",
    "getAllProposalAuthors()": "946369b5",
    "getAllProposalIds()": "efa90d36",
    "getNumProposalsWithThisManyForVotes(uint256)": "9ba197af",
    "getNumSubmissions(address)": "5f953a03",
    "getOnlyProposalIdWithThisManyForVotes(uint256)": "b66d1da3",
    "getProposal(uint256)": "c7f758a8",
    "getRankIndex(uint256)": "5c7107d8",
    "getSortedRanks()": "6fd3636b",
    "hashProposal((address,bool,string,(address),(address[],uint256)))": "458da87d",
    "isOrIsBelowTiedRank(uint256)": "9174778c",
    "isProposalDeleted(uint256)": "3b6d199b",
    "maxProposalCount()": "fb9bf8d4",
    "name()": "06fdde03",
    "numAllowedProposalSubmissions()": "832009af",
    "numSubmissions(address)": "75e509c5",
    "officialRewardsModule()": "785ddfe5",
    "percentageToCreator()": "edcd1be4",
    "prompt()": "7c65d711",
    "proposalAddressVotes(uint256,address)": "6e4eb810",
    "proposalAddressesHaveVoted(uint256)": "b323580d",
    "proposalAuthors(uint256)": "0aa25e44",
    "proposalIds(uint256)": "9b644a23",
    "proposalIsDeleted(uint256)": "f79c0172",
    "proposalVotes(uint256)": "544ffc9c",
    "proposalVotesStructs(uint256)": "070dc5d9",
    "proposals(uint256)": "013cf08b",
    "propose((address,bool,string,(address),(address[],uint256)),bytes32[])": "c0ffaa78",
    "proposeWithoutProof((address,bool,string,(address),(address[],uint256)))": "476f4d8a",
    "rankLimit()": "0414126a",
    "setOfficialRewardsModule(address)": "f4f3d7ec",
    "sortedRanks(uint256)": "325cc6d9",
    "sortingEnabled()": "366ecf5b",
    "state()": "c19d93fb",
    "submissionMerkleRoot()": "bddc1641",
    "totalVotesCast()": "7de418d5",
    "validateProposalData((address,bool,string,(address),(address[],uint256)))": "fb8ddab4",
    "verifyProposer(address,bytes32[])": "20b3e845",
    "verifyVoter(address,uint256,bytes32[])": "531bd812",
    "version()": "54fd4d50",
    "voteStart()": "e031535b",
    "votingDelay()": "3932abb1",
    "votingMerkleRoot()": "dd96a19d",
    "votingPeriod()": "02a251a3"
  },
  "id": 28
}