{"abi":[{"type":"constructor","inputs":[{"name":"_constructorArgs","type":"tuple","internalType":"struct Governor.ConstructorArgs","components":[{"name":"name","type":"string","internalType":"string"},{"name":"prompt","type":"string","internalType":"string"},{"name":"intConstructorArgs","type":"tuple","internalType":"struct Governor.IntConstructorArgs","components":[{"name":"anyoneCanSubmit","type":"uint256","internalType":"uint256"},{"name":"contestStart","type":"uint256","internalType":"uint256"},{"name":"votingDelay","type":"uint256","internalType":"uint256"},{"name":"votingPeriod","type":"uint256","internalType":"uint256"},{"name":"numAllowedProposalSubmissions","type":"uint256","internalType":"uint256"},{"name":"maxProposalCount","type":"uint256","internalType":"uint256"},{"name":"sortingEnabled","type":"uint256","internalType":"uint256"},{"name":"rankLimit","type":"uint256","internalType":"uint256"},{"name":"percentageToCreator","type":"uint256","internalType":"uint256"},{"name":"costToPropose","type":"uint256","internalType":"uint256"},{"name":"costToVote","type":"uint256","internalType":"uint256"},{"name":"priceCurveType","type":"uint256","internalType":"uint256"},{"name":"multiple","type":"uint256","internalType":"uint256"}]},{"name":"creatorSplitDestination","type":"address","internalType":"address"},{"name":"jkLabsSplitDestination","type":"address","internalType":"address"},{"name":"metadataFieldsSchema","type":"string","internalType":"string"}]}],"stateMutability":"nonpayable"},{"type":"function","name":"AMOUNT_FOR_SUMBITTER_PROOF","inputs":[],"outputs":[{"name":"","type":"uint256","internalType":"uint256"}],"stateMutability":"view"},{"type":"function","name":"COST_ROUNDING_VALUE","inputs":[],"outputs":[{"name":"","type":"uint256","internalType":"uint256"}],"stateMutability":"view"},{"type":"function","name":"JK_LABS_ADDRESS","inputs":[],"outputs":[{"name":"","type":"address","internalType":"address"}],"stateMutability":"view"},{"type":"function","name":"MAX_FIELDS_METADATA_LENGTH","inputs":[],"outputs":[{"name":"","type":"uint256","internalType":"uint256"}],"stateMutability":"view"},{"type":"function","name":"METADATAS_COUNT","inputs":[],"outputs":[{"name":"","type":"uint256","internalType":"uint256"}],"stateMutability":"view"},{"type":"function","name":"PRICE_CURVE_UPDATE_INTERVAL","inputs":[],"outputs":[{"name":"","type":"uint256","internalType":"uint256"}],"stateMutability":"view"},{"type":"function","name":"SECONDS_IN_WEEK","inputs":[],"outputs":[{"name":"","type":"uint256","internalType":"uint256"}],"stateMutability":"view"},{"type":"function","name":"addressTotalCastVoteCount","inputs":[{"name":"","type":"address","internalType":"address"}],"outputs":[{"name":"","type":"uint256","internalType":"uint256"}],"stateMutability":"view"},{"type":"function","name":"addressesThatHaveVoted","inputs":[{"name":"","type":"uint256","internalType":"uint256"}],"outputs":[{"name":"","type":"address","internalType":"address"}],"stateMutability":"view"},{"type":"function","name":"allProposalTotalVotes","inputs":[],"outputs":[{"name":"proposalIdsReturn","type":"uint256[]","internalType":"uint256[]"},{"name":"proposalVoteCountsArrayReturn","type":"uint256[]","internalType":"uint256[]"}],"stateMutability":"view"},{"type":"function","name":"anyoneCanSubmit","inputs":[],"outputs":[{"name":"","type":"uint256","internalType":"uint256"}],"stateMutability":"view"},{"type":"function","name":"cancel","inputs":[],"outputs":[],"stateMutability":"nonpayable"},{"type":"function","name":"canceled","inputs":[],"outputs":[{"name":"","type":"bool","internalType":"bool"}],"stateMutability":"view"},{"type":"function","name":"castVote","inputs":[{"name":"proposalId","type":"uint256","internalType":"uint256"},{"name":"numVotes","type":"uint256","internalType":"uint256"}],"outputs":[{"name":"","type":"uint256","internalType":"uint256"}],"stateMutability":"payable"},{"type":"function","name":"comment","inputs":[{"name":"proposalId","type":"uint256","internalType":"uint256"},{"name":"commentContent","type":"string","internalType":"string"}],"outputs":[{"name":"","type":"uint256","internalType":"uint256"}],"stateMutability":"nonpayable"},{"type":"function","name":"commentIds","inputs":[{"name":"","type":"uint256","internalType":"uint256"}],"outputs":[{"name":"","type":"uint256","internalType":"uint256"}],"stateMutability":"view"},{"type":"function","name":"commentIsDeleted","inputs":[{"name":"","type":"uint256","internalType":"uint256"}],"outputs":[{"name":"","type":"bool","internalType":"bool"}],"stateMutability":"view"},{"type":"function","name":"comments","inputs":[{"name":"","type":"uint256","internalType":"uint256"}],"outputs":[{"name":"author","type":"address","internalType":"address"},{"name":"timestamp","type":"uint256","internalType":"uint256"},{"name":"proposalId","type":"uint256","internalType":"uint256"},{"name":"commentContent","type":"string","internalType":"string"}],"stateMutability":"view"},{"type":"function","name":"contestAddressTotalVotesCast","inputs":[{"name":"userAddress","type":"address","internalType":"address"}],"outputs":[{"name":"userTotalVotesCast","type":"uint256","internalType":"uint256"}],"stateMutability":"view"},{"type":"function","name":"contestDeadline","inputs":[],"outputs":[{"name":"","type":"uint256","internalType":"uint256"}],"stateMutability":"view"},{"type":"function","name":"contestStart","inputs":[],"outputs":[{"name":"","type":"uint256","internalType":"uint256"}],"stateMutability":"view"},{"type":"function","name":"costToPropose","inputs":[],"outputs":[{"name":"","type":"uint256","internalType":"uint256"}],"stateMutability":"view"},{"type":"function","name":"costToVote","inputs":[],"outputs":[{"name":"","type":"uint256","internalType":"uint256"}],"stateMutability":"view"},{"type":"function","name":"creator","inputs":[],"outputs":[{"name":"","type":"address","internalType":"address"}],"stateMutability":"view"},{"type":"function","name":"creatorSplitDestination","inputs":[],"outputs":[{"name":"","type":"address","internalType":"address"}],"stateMutability":"view"},{"type":"function","name":"currentPricePerVote","inputs":[],"outputs":[{"name":"","type":"uint256","internalType":"uint256"}],"stateMutability":"view"},{"type":"function","name":"deleteComments","inputs":[{"name":"commentIdsParam","type":"uint256[]","internalType":"uint256[]"}],"outputs":[],"stateMutability":"nonpayable"},{"type":"function","name":"deleteProposals","inputs":[{"name":"proposalIdsToDelete","type":"uint256[]","internalType":"uint256[]"}],"outputs":[],"stateMutability":"nonpayable"},{"type":"function","name":"deletedCommentIds","inputs":[{"name":"","type":"uint256","internalType":"uint256"}],"outputs":[{"name":"","type":"uint256","internalType":"uint256"}],"stateMutability":"view"},{"type":"function","name":"deletedProposalIds","inputs":[{"name":"","type":"uint256","internalType":"uint256"}],"outputs":[{"name":"","type":"uint256","internalType":"uint256"}],"stateMutability":"view"},{"type":"function","name":"getAllAddressesThatHaveVoted","inputs":[],"outputs":[{"name":"","type":"address[]","internalType":"address[]"}],"stateMutability":"view"},{"type":"function","name":"getAllAuthorsOfDeletedProposals","inputs":[],"outputs":[{"name":"","type":"address[]","internalType":"address[]"}],"stateMutability":"view"},{"type":"function","name":"getAllCommentIds","inputs":[],"outputs":[{"name":"","type":"uint256[]","internalType":"uint256[]"}],"stateMutability":"view"},{"type":"function","name":"getAllDeletedCommentIds","inputs":[],"outputs":[{"name":"","type":"uint256[]","internalType":"uint256[]"}],"stateMutability":"view"},{"type":"function","name":"getAllDeletedProposalIds","inputs":[],"outputs":[{"name":"","type":"uint256[]","internalType":"uint256[]"}],"stateMutability":"view"},{"type":"function","name":"getAllProposalAuthors","inputs":[],"outputs":[{"name":"","type":"address[]","internalType":"address[]"}],"stateMutability":"view"},{"type":"function","name":"getAllProposalIds","inputs":[],"outputs":[{"name":"","type":"uint256[]","internalType":"uint256[]"}],"stateMutability":"view"},{"type":"function","name":"getComment","inputs":[{"name":"commentId","type":"uint256","internalType":"uint256"}],"outputs":[{"name":"","type":"tuple","internalType":"struct GovernorEngagement.CommentCore","components":[{"name":"author","type":"address","internalType":"address"},{"name":"timestamp","type":"uint256","internalType":"uint256"},{"name":"proposalId","type":"uint256","internalType":"uint256"},{"name":"commentContent","type":"string","internalType":"string"}]}],"stateMutability":"view"},{"type":"function","name":"getNumProposalsWithThisManyVotes","inputs":[{"name":"votes","type":"uint256","internalType":"uint256"}],"outputs":[{"name":"count","type":"uint256","internalType":"uint256"}],"stateMutability":"view"},{"type":"function","name":"getOnlyProposalIdWithThisManyVotes","inputs":[{"name":"votes","type":"uint256","internalType":"uint256"}],"outputs":[{"name":"proposalId","type":"uint256","internalType":"uint256"}],"stateMutability":"view"},{"type":"function","name":"getProposal","inputs":[{"name":"proposalId","type":"uint256","internalType":"uint256"}],"outputs":[{"name":"","type":"tuple","internalType":"struct Governor.ProposalCore","components":[{"name":"author","type":"address","internalType":"address"},{"name":"exists","type":"bool","internalType":"bool"},{"name":"description","type":"string","internalType":"string"},{"name":"targetMetadata","type":"tuple","internalType":"struct Governor.TargetMetadata","components":[{"name":"targetAddress","type":"address","internalType":"address"}]},{"name":"safeMetadata","type":"tuple","internalType":"struct Governor.SafeMetadata","components":[{"name":"signers","type":"address[]","internalType":"address[]"},{"name":"threshold","type":"uint256","internalType":"uint256"}]},{"name":"fieldsMetadata","type":"tuple","internalType":"struct Governor.FieldsMetadata","components":[{"name":"addressArray","type":"address[]","internalType":"address[]"},{"name":"stringArray","type":"string[]","internalType":"string[]"},{"name":"uintArray","type":"uint256[]","internalType":"uint256[]"}]}]}],"stateMutability":"view"},{"type":"function","name":"getProposalComments","inputs":[{"name":"proposalId","type":"uint256","internalType":"uint256"}],"outputs":[{"name":"","type":"uint256[]","internalType":"uint256[]"}],"stateMutability":"view"},{"type":"function","name":"getProposalsWithThisManyVotes","inputs":[{"name":"votes","type":"uint256","internalType":"uint256"}],"outputs":[{"name":"proposalsWithThisManyVotes","type":"uint256[]","internalType":"uint256[]"}],"stateMutability":"view"},{"type":"function","name":"getRankIndex","inputs":[{"name":"rank","type":"uint256","internalType":"uint256"}],"outputs":[{"name":"rankIndex","type":"uint256","internalType":"uint256"}],"stateMutability":"view"},{"type":"function","name":"getSortedRanks","inputs":[],"outputs":[{"name":"sortedRanksArray","type":"uint256[]","internalType":"uint256[]"}],"stateMutability":"view"},{"type":"function","name":"hashComment","inputs":[{"name":"commentObj","type":"tuple","internalType":"struct GovernorEngagement.CommentCore","components":[{"name":"author","type":"address","internalType":"address"},{"name":"timestamp","type":"uint256","internalType":"uint256"},{"name":"proposalId","type":"uint256","internalType":"uint256"},{"name":"commentContent","type":"string","internalType":"string"}]}],"outputs":[{"name":"","type":"uint256","internalType":"uint256"}],"stateMutability":"pure"},{"type":"function","name":"hashProposal","inputs":[{"name":"proposal","type":"tuple","internalType":"struct Governor.ProposalCore","components":[{"name":"author","type":"address","internalType":"address"},{"name":"exists","type":"bool","internalType":"bool"},{"name":"description","type":"string","internalType":"string"},{"name":"targetMetadata","type":"tuple","internalType":"struct Governor.TargetMetadata","components":[{"name":"targetAddress","type":"address","internalType":"address"}]},{"name":"safeMetadata","type":"tuple","internalType":"struct Governor.SafeMetadata","components":[{"name":"signers","type":"address[]","internalType":"address[]"},{"name":"threshold","type":"uint256","internalType":"uint256"}]},{"name":"fieldsMetadata","type":"tuple","internalType":"struct Governor.FieldsMetadata","components":[{"name":"addressArray","type":"address[]","internalType":"address[]"},{"name":"stringArray","type":"string[]","internalType":"string[]"},{"name":"uintArray","type":"uint256[]","internalType":"uint256[]"}]}]}],"outputs":[{"name":"","type":"uint256","internalType":"uint256"}],"stateMutability":"pure"},{"type":"function","name":"isOrIsBelowTiedRank","inputs":[{"name":"idx","type":"uint256","internalType":"uint256"}],"outputs":[{"name":"atOrBelowTiedRank","type":"bool","internalType":"bool"}],"stateMutability":"view"},{"type":"function","name":"jkLabsSplitDestination","inputs":[],"outputs":[{"name":"","type":"address","internalType":"address"}],"stateMutability":"view"},{"type":"function","name":"maxProposalCount","inputs":[],"outputs":[{"name":"","type":"uint256","internalType":"uint256"}],"stateMutability":"view"},{"type":"function","name":"metadataFieldsSchema","inputs":[],"outputs":[{"name":"","type":"string","internalType":"string"}],"stateMutability":"view"},{"type":"function","name":"multiple","inputs":[],"outputs":[{"name":"","type":"uint256","internalType":"uint256"}],"stateMutability":"view"},{"type":"function","name":"name","inputs":[],"outputs":[{"name":"","type":"string","internalType":"string"}],"stateMutability":"view"},{"type":"function","name":"numAllowedProposalSubmissions","inputs":[],"outputs":[{"name":"","type":"uint256","internalType":"uint256"}],"stateMutability":"view"},{"type":"function","name":"numSubmissions","inputs":[{"name":"","type":"address","internalType":"address"}],"outputs":[{"name":"","type":"uint256","internalType":"uint256"}],"stateMutability":"view"},{"type":"function","name":"officialRewardsModule","inputs":[],"outputs":[{"name":"","type":"address","internalType":"address"}],"stateMutability":"view"},{"type":"function","name":"percentageToCreator","inputs":[],"outputs":[{"name":"","type":"uint256","internalType":"uint256"}],"stateMutability":"view"},{"type":"function","name":"priceCurveType","inputs":[],"outputs":[{"name":"","type":"uint256","internalType":"uint256"}],"stateMutability":"view"},{"type":"function","name":"prompt","inputs":[],"outputs":[{"name":"","type":"string","internalType":"string"}],"stateMutability":"view"},{"type":"function","name":"proposalAddressVotes","inputs":[{"name":"proposalId","type":"uint256","internalType":"uint256"},{"name":"userAddress","type":"address","internalType":"address"}],"outputs":[{"name":"voteCount","type":"uint256","internalType":"uint256"}],"stateMutability":"view"},{"type":"function","name":"proposalAddressesHaveVoted","inputs":[{"name":"proposalId","type":"uint256","internalType":"uint256"}],"outputs":[{"name":"","type":"address[]","internalType":"address[]"}],"stateMutability":"view"},{"type":"function","name":"proposalAuthors","inputs":[{"name":"","type":"uint256","internalType":"uint256"}],"outputs":[{"name":"","type":"address","internalType":"address"}],"stateMutability":"view"},{"type":"function","name":"proposalComments","inputs":[{"name":"","type":"uint256","internalType":"uint256"},{"name":"","type":"uint256","internalType":"uint256"}],"outputs":[{"name":"","type":"uint256","internalType":"uint256"}],"stateMutability":"view"},{"type":"function","name":"proposalIds","inputs":[{"name":"","type":"uint256","internalType":"uint256"}],"outputs":[{"name":"","type":"uint256","internalType":"uint256"}],"stateMutability":"view"},{"type":"function","name":"proposalIsDeleted","inputs":[{"name":"","type":"uint256","internalType":"uint256"}],"outputs":[{"name":"","type":"bool","internalType":"bool"}],"stateMutability":"view"},{"type":"function","name":"proposalVoteStructs","inputs":[{"name":"","type":"uint256","internalType":"uint256"}],"outputs":[{"name":"proposalVoteCount","type":"uint256","internalType":"uint256"}],"stateMutability":"view"},{"type":"function","name":"proposalVotes","inputs":[{"name":"proposalId","type":"uint256","internalType":"uint256"}],"outputs":[{"name":"voteCount","type":"uint256","internalType":"uint256"}],"stateMutability":"view"},{"type":"function","name":"proposals","inputs":[{"name":"","type":"uint256","internalType":"uint256"}],"outputs":[{"name":"author","type":"address","internalType":"address"},{"name":"exists","type":"bool","internalType":"bool"},{"name":"description","type":"string","internalType":"string"},{"name":"targetMetadata","type":"tuple","internalType":"struct Governor.TargetMetadata","components":[{"name":"targetAddress","type":"address","internalType":"address"}]},{"name":"safeMetadata","type":"tuple","internalType":"struct Governor.SafeMetadata","components":[{"name":"signers","type":"address[]","internalType":"address[]"},{"name":"threshold","type":"uint256","internalType":"uint256"}]},{"name":"fieldsMetadata","type":"tuple","internalType":"struct Governor.FieldsMetadata","components":[{"name":"addressArray","type":"address[]","internalType":"address[]"},{"name":"stringArray","type":"string[]","internalType":"string[]"},{"name":"uintArray","type":"uint256[]","internalType":"uint256[]"}]}],"stateMutability":"view"},{"type":"function","name":"propose","inputs":[{"name":"proposal","type":"tuple","internalType":"struct Governor.ProposalCore","components":[{"name":"author","type":"address","internalType":"address"},{"name":"exists","type":"bool","internalType":"bool"},{"name":"description","type":"string","internalType":"string"},{"name":"targetMetadata","type":"tuple","internalType":"struct Governor.TargetMetadata","components":[{"name":"targetAddress","type":"address","internalType":"address"}]},{"name":"safeMetadata","type":"tuple","internalType":"struct Governor.SafeMetadata","components":[{"name":"signers","type":"address[]","internalType":"address[]"},{"name":"threshold","type":"uint256","internalType":"uint256"}]},{"name":"fieldsMetadata","type":"tuple","internalType":"struct Governor.FieldsMetadata","components":[{"name":"addressArray","type":"address[]","internalType":"address[]"},{"name":"stringArray","type":"string[]","internalType":"string[]"},{"name":"uintArray","type":"uint256[]","internalType":"uint256[]"}]}]}],"outputs":[{"name":"","type":"uint256","internalType":"uint256"}],"stateMutability":"payable"},{"type":"function","name":"rankLimit","inputs":[],"outputs":[{"name":"","type":"uint256","internalType":"uint256"}],"stateMutability":"view"},{"type":"function","name":"setCreatorSplitDestination","inputs":[{"name":"newCreatorSplitDestination","type":"address","internalType":"address"}],"outputs":[],"stateMutability":"nonpayable"},{"type":"function","name":"setJkLabsSplitDestination","inputs":[{"name":"newJkLabsSplitDestination","type":"address","internalType":"address"}],"outputs":[],"stateMutability":"nonpayable"},{"type":"function","name":"setName","inputs":[{"name":"newName","type":"string","internalType":"string"}],"outputs":[{"name":"","type":"string","internalType":"string"}],"stateMutability":"nonpayable"},{"type":"function","name":"setOfficialRewardsModule","inputs":[{"name":"officialRewardsModule_","type":"address","internalType":"address"}],"outputs":[],"stateMutability":"nonpayable"},{"type":"function","name":"setPrompt","inputs":[{"name":"newPrompt","type":"string","internalType":"string"}],"outputs":[{"name":"","type":"string","internalType":"string"}],"stateMutability":"nonpayable"},{"type":"function","name":"sortedRanks","inputs":[{"name":"","type":"uint256","internalType":"uint256"}],"outputs":[{"name":"","type":"uint256","internalType":"uint256"}],"stateMutability":"view"},{"type":"function","name":"sortingEnabled","inputs":[],"outputs":[{"name":"","type":"uint256","internalType":"uint256"}],"stateMutability":"view"},{"type":"function","name":"state","inputs":[],"outputs":[{"name":"","type":"uint8","internalType":"enum Governor.ContestState"}],"stateMutability":"view"},{"type":"function","name":"totalVotesCast","inputs":[],"outputs":[{"name":"","type":"uint256","internalType":"uint256"}],"stateMutability":"view"},{"type":"function","name":"totalVotesCastIsZero","inputs":[],"outputs":[{"name":"totalVotesCastZero","type":"bool","internalType":"bool"}],"stateMutability":"view"},{"type":"function","name":"validateProposalData","inputs":[{"name":"proposal","type":"tuple","internalType":"struct Governor.ProposalCore","components":[{"name":"author","type":"address","internalType":"address"},{"name":"exists","type":"bool","internalType":"bool"},{"name":"description","type":"string","internalType":"string"},{"name":"targetMetadata","type":"tuple","internalType":"struct Governor.TargetMetadata","components":[{"name":"targetAddress","type":"address","internalType":"address"}]},{"name":"safeMetadata","type":"tuple","internalType":"struct Governor.SafeMetadata","components":[{"name":"signers","type":"address[]","internalType":"address[]"},{"name":"threshold","type":"uint256","internalType":"uint256"}]},{"name":"fieldsMetadata","type":"tuple","internalType":"struct Governor.FieldsMetadata","components":[{"name":"addressArray","type":"address[]","internalType":"address[]"},{"name":"stringArray","type":"string[]","internalType":"string[]"},{"name":"uintArray","type":"uint256[]","internalType":"uint256[]"}]}]}],"outputs":[],"stateMutability":"view"},{"type":"function","name":"verifyProposer","inputs":[],"outputs":[],"stateMutability":"view"},{"type":"function","name":"version","inputs":[],"outputs":[{"name":"","type":"string","internalType":"string"}],"stateMutability":"pure"},{"type":"function","name":"voteStart","inputs":[],"outputs":[{"name":"","type":"uint256","internalType":"uint256"}],"stateMutability":"view"},{"type":"function","name":"votesToProposalIds","inputs":[{"name":"","type":"uint256","internalType":"uint256"},{"name":"","type":"uint256","internalType":"uint256"}],"outputs":[{"name":"","type":"uint256","internalType":"uint256"}],"stateMutability":"view"},{"type":"function","name":"votingDelay","inputs":[],"outputs":[{"name":"","type":"uint256","internalType":"uint256"}],"stateMutability":"view"},{"type":"function","name":"votingPeriod","inputs":[],"outputs":[{"name":"","type":"uint256","internalType":"uint256"}],"stateMutability":"view"},{"type":"event","name":"CommentCreated","inputs":[{"name":"commentId","type":"uint256","indexed":false,"internalType":"uint256"}],"anonymous":false},{"type":"event","name":"CommentsDeleted","inputs":[{"name":"commentIds","type":"uint256[]","indexed":false,"internalType":"uint256[]"}],"anonymous":false},{"type":"event","name":"ContestCanceled","inputs":[],"anonymous":false},{"type":"event","name":"CreatorPaymentReleased","inputs":[{"name":"to","type":"address","indexed":false,"internalType":"address"},{"name":"amount","type":"uint256","indexed":false,"internalType":"uint256"}],"anonymous":false},{"type":"event","name":"JkLabsPaymentReleased","inputs":[{"name":"to","type":"address","indexed":false,"internalType":"address"},{"name":"amount","type":"uint256","indexed":false,"internalType":"uint256"}],"anonymous":false},{"type":"event","name":"JokeraceCreated","inputs":[{"name":"version","type":"string","indexed":false,"internalType":"string"},{"name":"name","type":"string","indexed":false,"internalType":"string"},{"name":"prompt","type":"string","indexed":false,"internalType":"string"},{"name":"creator","type":"address","indexed":false,"internalType":"address"},{"name":"contestStart","type":"uint256","indexed":false,"internalType":"uint256"},{"name":"votingDelay","type":"uint256","indexed":false,"internalType":"uint256"},{"name":"votingPeriod","type":"uint256","indexed":false,"internalType":"uint256"}],"anonymous":false},{"type":"event","name":"OfficialRewardsModuleSet","inputs":[{"name":"oldOfficialRewardsModule","type":"address","indexed":false,"internalType":"address"},{"name":"newOfficialRewardsModule","type":"address","indexed":false,"internalType":"address"}],"anonymous":false},{"type":"event","name":"ProposalCreated","inputs":[{"name":"proposalId","type":"uint256","indexed":false,"internalType":"uint256"},{"name":"proposer","type":"address","indexed":false,"internalType":"address"},{"name":"proposalDescription","type":"string","indexed":false,"internalType":"string"}],"anonymous":false},{"type":"event","name":"ProposalsDeleted","inputs":[{"name":"proposalIds","type":"uint256[]","indexed":false,"internalType":"uint256[]"}],"anonymous":false},{"type":"event","name":"VoteCast","inputs":[{"name":"voter","type":"address","indexed":true,"internalType":"address"},{"name":"proposalId","type":"uint256","indexed":false,"internalType":"uint256"},{"name":"numVotes","type":"uint256","indexed":false,"internalType":"uint256"}],"anonymous":false},{"type":"error","name":"AddressFieldMetadataArrayTooLong","inputs":[]},{"type":"error","name":"AuthorIsNotSender","inputs":[{"name":"author","type":"address","internalType":"address"},{"name":"sender","type":"address","internalType":"address"}]},{"type":"error","name":"CanOnlyCancelBeforeFirstVote","inputs":[]},{"type":"error","name":"CanOnlyDeleteWhenQueued","inputs":[]},{"type":"error","name":"CannotCommentWhenCompletedOrCanceled","inputs":[]},{"type":"error","name":"CannotDeleteWhenCompletedOrCanceled","inputs":[]},{"type":"error","name":"CannotSetWhenCompletedOrCanceled","inputs":[]},{"type":"error","name":"CannotUpdateWhenCompletedOrCanceled","inputs":[]},{"type":"error","name":"CannotVoteLessThanOneVoteInPayPerVote","inputs":[]},{"type":"error","name":"CannotVoteOnDeletedProposal","inputs":[]},{"type":"error","name":"ContestAlreadyCanceled","inputs":[]},{"type":"error","name":"ContestMustBeActiveToGetCurrentVotePrice","inputs":[{"name":"currentState","type":"uint8","internalType":"enum Governor.ContestState"}]},{"type":"error","name":"ContestMustBeActiveToVote","inputs":[{"name":"currentState","type":"uint8","internalType":"enum Governor.ContestState"}]},{"type":"error","name":"ContestMustBeQueuedToPropose","inputs":[{"name":"currentState","type":"uint8","internalType":"enum Governor.ContestState"}]},{"type":"error","name":"ContestSubmissionLimitReached","inputs":[{"name":"maxProposalCount","type":"uint256","internalType":"uint256"}]},{"type":"error","name":"DuplicateSubmission","inputs":[{"name":"proposalId","type":"uint256","internalType":"uint256"}]},{"type":"error","name":"EmptyProposalDescription","inputs":[]},{"type":"error","name":"IncorrectCostSent","inputs":[{"name":"msgValue","type":"uint256","internalType":"uint256"},{"name":"costToVote","type":"uint256","internalType":"uint256"}]},{"type":"error","name":"IndexHasNotBeenPopulated","inputs":[]},{"type":"error","name":"MoreThanOneProposalWithThisManyVotes","inputs":[]},{"type":"error","name":"NeedAtLeastOneVoteToVote","inputs":[]},{"type":"error","name":"NotEnoughVotesLeft","inputs":[]},{"type":"error","name":"OfficialRewardsModuleCanOnlyBeSetOnce","inputs":[]},{"type":"error","name":"OfficialRewardsModuleMustPointToThisContest","inputs":[]},{"type":"error","name":"OnlyCreatorCanAmend","inputs":[]},{"type":"error","name":"OnlyCreatorCanSetName","inputs":[]},{"type":"error","name":"OnlyCreatorCanSetPrompt","inputs":[]},{"type":"error","name":"OnlyCreatorCanSetRewardsModule","inputs":[]},{"type":"error","name":"OnlyCreatorCanSubmit","inputs":[]},{"type":"error","name":"OnlyCreatorOrAuthorCanDeleteComments","inputs":[{"name":"failedToDeleteCommentId","type":"uint256","internalType":"uint256"}]},{"type":"error","name":"OnlyCreatorOrEntrantCanDelete","inputs":[]},{"type":"error","name":"OnlyCreatorOrJkLabsCanCancel","inputs":[]},{"type":"error","name":"OnlyJkLabsCanAmend","inputs":[]},{"type":"error","name":"PRBMath_MulDiv18_Overflow","inputs":[{"name":"x","type":"uint256","internalType":"uint256"},{"name":"y","type":"uint256","internalType":"uint256"}]},{"type":"error","name":"PRBMath_MulDiv_Overflow","inputs":[{"name":"x","type":"uint256","internalType":"uint256"},{"name":"y","type":"uint256","internalType":"uint256"},{"name":"denominator","type":"uint256","internalType":"uint256"}]},{"type":"error","name":"PRBMath_UD60x18_Exp2_InputTooBig","inputs":[{"name":"x","type":"uint256","internalType":"UD60x18"}]},{"type":"error","name":"PeriodsCannotBeMoreThanAWeek","inputs":[]},{"type":"error","name":"RankCannotBeZero","inputs":[]},{"type":"error","name":"RankIsNotInSortedRanks","inputs":[]},{"type":"error","name":"RankLimitCannotBeZero","inputs":[]},{"type":"error","name":"SenderSubmissionLimitReached","inputs":[{"name":"numAllowedProposalSubmissions","type":"uint256","internalType":"uint256"}]},{"type":"error","name":"StringFieldMetadataArrayTooLong","inputs":[]},{"type":"error","name":"UintFieldMetadataArrayTooLong","inputs":[]},{"type":"error","name":"UnexpectedMetadata","inputs":[{"name":"unexpectedMetadata","type":"uint8","internalType":"enum Governor.Metadatas"}]},{"type":"error","name":"ZeroSignersInSafeMetadata","inputs":[]},{"type":"error","name":"ZeroThresholdInSafeMetadata","inputs":[]}],"bytecode":{"object":"0x60806040523480156200001157600080fd5b5060405162005ba238038062005ba28339810160408190526200003491620003f9565b604081015160c081015160e0909101516000919091556001558051819060039062000060908262000588565b50602081015160049062000075908262000588565b50604081810151805160065560058054336001600160a01b031991821617909155602082015160075591810151600855606080820151600955608080830151600a5560a080840151600b55610100840151600c55610120840151600d55610140840151600e55610160840151600f5561018090930151601055908401516011805485166001600160a01b03928316179055908401516012805490941691161790915581015160139062000129908262000588565b50604080518082018252600380825262362e3560e81b602083015260055460075460085460095495517f9a9bca21e4e51607db64fbdbcd7b2284a909c6a8969821f0d161efbdcae7016096620001959695946004946001600160a01b03909116939092909190620006d9565b60405180910390a15062093a808160400151604001511180620001c2575062093a80816040015160600151115b15620001e15760405163222e847d60e21b815260040160405180910390fd5b806040015160e001516000036200020b5760405163769f473560e11b815260040160405180910390fd5b5062000767565b634e487b7160e01b600052604160045260246000fd5b6040516101a081016001600160401b03811182821017156200024e576200024e62000212565b60405290565b60405160c081016001600160401b03811182821017156200024e576200024e62000212565b60005b83811015620002965781810151838201526020016200027c565b50506000910152565b600082601f830112620002b157600080fd5b81516001600160401b0380821115620002ce57620002ce62000212565b604051601f8301601f19908116603f01168101908282118183101715620002f957620002f962000212565b816040528381528660208588010111156200031357600080fd5b6200032684602083016020890162000279565b9695505050505050565b60006101a082840312156200034457600080fd5b6200034e62000228565b9050815181526020820151602082015260408201516040820152606082015160608201526080820151608082015260a082015160a082015260c082015160c082015260e082015160e082015261010080830151818301525061012080830151818301525061014080830151818301525061016080830151818301525061018080830151818301525092915050565b80516001600160a01b0381168114620003f457600080fd5b919050565b6000602082840312156200040c57600080fd5b81516001600160401b03808211156200042457600080fd5b9083019061024082860312156200043a57600080fd5b6200044462000254565b8251828111156200045457600080fd5b62000462878286016200029f565b8252506020830151828111156200047857600080fd5b62000486878286016200029f565b6020830152506200049b866040850162000330565b6040820152620004af6101e08401620003dc565b6060820152620004c36102008401620003dc565b608082015261022083015182811115620004dc57600080fd5b620004ea878286016200029f565b60a08301525095945050505050565b600181811c908216806200050e57607f821691505b6020821081036200052f57634e487b7160e01b600052602260045260246000fd5b50919050565b601f8211156200058357600081815260208120601f850160051c810160208610156200055e5750805b601f850160051c820191505b818110156200057f578281556001016200056a565b5050505b505050565b81516001600160401b03811115620005a457620005a462000212565b620005bc81620005b58454620004f9565b8462000535565b602080601f831160018114620005f45760008415620005db5750858301515b600019600386901b1c1916600185901b1785556200057f565b600085815260208120601f198616915b82811015620006255788860151825594840194600190910190840162000604565b5085821015620006445787850151600019600388901b60f8161c191681555b5050505050600190811b01905550565b600081546200066381620004f9565b8085526020600183811680156200068357600181146200069e57620006ce565b60ff1985168884015283151560051b880183019550620006ce565b866000528260002060005b85811015620006c65781548a8201860152908301908401620006a9565b890184019650505b505050505092915050565b60e08152600088518060e0840152610100620006fc8282860160208e0162000279565b601f19601f8301168401915080848303016020850152620007208183018b62000654565b915050828103604084015262000737818962000654565b6001600160a01b039790971660608401525050608081019390935260a083019190915260c0909101529392505050565b61542b80620007776000396000f3fe6080604052600436106104bf5760003560e01c8063785ddfe511610276578063ca09a4c41161014f578063edcd1be4116100c1578063f5c3641111610085578063f5c3641114610ea5578063f61736f414610ec5578063f79c017214610ee5578063f82e54c014610f15578063fb9bf8d414610f35578063fd7971c914610f4b57600080fd5b8063edcd1be414610e12578063eef18e1714610e28578063efa90d3614610e50578063f0a7db0a14610e65578063f4f3d7ec14610e8557600080fd5b8063dda54fcf11610113578063dda54fcf14610d76578063e031535b14610da3578063e088b29e14610db8578063e11db9d814610dcf578063e269cefe14610de4578063ea8a1af014610dfd57600080fd5b8063ca09a4c414610cec578063cbdc27cb14610d01578063d140d9f014610d16578063d576b81d14610d36578063d798902514610d5657600080fd5b8063ac67f801116101e8578063b4ac024f116101ac578063b4ac024f14610c10578063bc022c9814610c30578063c05f410414610c5d578063c19d93fb14610c7d578063c47f002714610c9f578063c7f758a814610cbf57600080fd5b8063ac67f80114610b55578063ae66b8ad14610b75578063aec116b614610ba5578063b323580d14610bdb578063b382543f14610bfb57600080fd5b80638ebb4c151161023a5780638ebb4c1514610a9d5780639174778c14610acd578063946369b514610aed5780639a04ede814610b025780639b338aa014610b155780639b644a2314610b3557600080fd5b8063785ddfe514610a265780637c65d71114610a465780637d74292514610a5b5780637de418d514610a71578063832009af14610a8757600080fd5b80633f9942ff116103a85780635358b80e1161031a57806360ed97a9116102de57806360ed97a9146109525780636d030621146109675780636e4eb810146109875780636ed815ad146109ce5780636fd3636b146109e457806375e509c5146109f957600080fd5b80635358b80e146108ae578063544ffc9c146108c457806354fd4d50146108f15780635c7107d81461091d5780635cb718a11461093d57600080fd5b80634a2c96ec1161036c5780634a2c96ec1461080a5780634a587ad4146108205780634d24a67f1461084057806350a5e5241461085557806350c4b6161461087857806351a41dec1461089857600080fd5b80633f9942ff146107755780633fb57c921461079f578063409fd030146107bf578063437a8ae6146107df578063476106c8146107f557600080fd5b80631242b737116104415780632c0a3f89116104055780632c0a3f89146106d85780632c39805f146106eb578063325cc6d91461070d578063347cf6651461072d578063366ecf5b146107495780633932abb11461075f57600080fd5b80631242b73714610632578063146230f61461065457806315dee7cd146106765780631805c523146106a3578063262e59e9146106c357600080fd5b806305846cae1161048857806305846cae1461058357806306fdde03146105a35780630800e300146105c55780630aa25e44146105f2578063102613d81461061257600080fd5b80624114a8146104c4578063013cf08b146104ed57806302a251a31461051f57806302d05d3f146105355780630414126a1461056d575b600080fd5b3480156104d057600080fd5b506104da60075481565b6040519081526020015b60405180910390f35b3480156104f957600080fd5b5061050d61050836600461462e565b610f60565b6040516104e4969594939291906147be565b34801561052b57600080fd5b506104da60095481565b34801561054157600080fd5b50600554610555906001600160a01b031681565b6040516001600160a01b0390911681526020016104e4565b34801561057957600080fd5b506104da60015481565b34801561058f57600080fd5b506104da61059e36600461462e565b61124b565b3480156105af57600080fd5b506105b861126c565b6040516104e49190614818565b3480156105d157600080fd5b506105e56105e036600461462e565b6112fa565b6040516104e4919061482b565b3480156105fe57600080fd5b5061055561060d36600461462e565b61140e565b34801561061e57600080fd5b50601254610555906001600160a01b031681565b34801561063e57600080fd5b50610647611438565b6040516104e4919061486c565b34801561066057600080fd5b5061067461066f3660046148a4565b611490565b005b34801561068257600080fd5b506104da61069136600461462e565b601e6020526000908152604090205481565b3480156106af57600080fd5b506104da6106be3660046149c0565b61153a565b3480156106cf57600080fd5b506104da6116b7565b6104da6106e6366004614a06565b6116d3565b3480156106f757600080fd5b50610700611730565b6040516104e49190614a28565b34801561071957600080fd5b506104da61072836600461462e565b611791565b34801561073957600080fd5b506104da678ac7230489e8000081565b34801561075557600080fd5b506104da60005481565b34801561076b57600080fd5b506104da60085481565b34801561078157600080fd5b5060175461078f9060ff1681565b60405190151581526020016104e4565b3480156107ab57600080fd5b506104da6107ba36600461462e565b6117a1565b3480156107cb57600080fd5b506104da6107da366004614a75565b6117b1565b3480156107eb57600080fd5b506104da60105481565b34801561080157600080fd5b506106746117e2565b34801561081657600080fd5b506104da600f5481565b34801561082c57600080fd5b50601154610555906001600160a01b031681565b34801561084c57600080fd5b506104da611820565b34801561086157600080fd5b5061086a61182f565b6040516104e4929190614b20565b34801561088457600080fd5b5061055561089336600461462e565b6118fa565b3480156108a457600080fd5b506104da600e5481565b3480156108ba57600080fd5b506104da60065481565b3480156108d057600080fd5b506104da6108df36600461462e565b6000908152601e602052604090205490565b3480156108fd57600080fd5b50604080518082019091526003815262362e3560e81b60208201526105b8565b34801561092957600080fd5b506104da61093836600461462e565b61190a565b34801561094957600080fd5b50610647611a11565b34801561095e57600080fd5b506105b8611a67565b34801561097357600080fd5b506104da610982366004614a06565b611a74565b34801561099357600080fd5b506104da6109a2366004614b4e565b6000828152601e602090815260408083206001600160a01b038516845260020190915290205492915050565b3480156109da57600080fd5b506104da600d5481565b3480156109f057600080fd5b50610647611aa5565b348015610a0557600080fd5b506104da610a143660046148a4565b60196020526000908152604090205481565b348015610a3257600080fd5b50602054610555906001600160a01b031681565b348015610a5257600080fd5b506105b8611afb565b348015610a6757600080fd5b50601c541561078f565b348015610a7d57600080fd5b506104da601c5481565b348015610a9357600080fd5b506104da600a5481565b348015610aa957600080fd5b50610abd610ab836600461462e565b611b08565b6040516104e49493929190614b7e565b348015610ad957600080fd5b5061078f610ae836600461462e565b611bc5565b348015610af957600080fd5b50610700611c6b565b6104da610b10366004614bb5565b611ccb565b348015610b2157600080fd5b50610674610b303660046148a4565b611d14565b348015610b4157600080fd5b506104da610b5036600461462e565b611dc7565b348015610b6157600080fd5b50610674610b70366004614c7d565b611dd7565b348015610b8157600080fd5b5061078f610b9036600461462e565b60256020526000908152604090205460ff1681565b348015610bb157600080fd5b506104da610bc03660046148a4565b6001600160a01b03166000908152601d602052604090205490565b348015610be757600080fd5b50610700610bf636600461462e565b611f6e565b348015610c0757600080fd5b506104da600a81565b348015610c1c57600080fd5b506105b8610c2b366004614cb1565b611fe0565b348015610c3c57600080fd5b506104da610c4b36600461462e565b6000908152601f602052604090205490565b348015610c6957600080fd5b50610647610c7836600461462e565b61207e565b348015610c8957600080fd5b50610c926120e0565b6040516104e49190614cfb565b348015610cab57600080fd5b506105b8610cba366004614cb1565b612131565b348015610ccb57600080fd5b50610cdf610cda36600461462e565b6121c8565b6040516104e49190614d15565b348015610cf857600080fd5b506104da6124e8565b348015610d0d57600080fd5b50610700612668565b348015610d2257600080fd5b50610674610d31366004615094565b612798565b348015610d4257600080fd5b506104da610d5136600461462e565b61297f565b348015610d6257600080fd5b506104da610d71366004615094565b6129df565b348015610d8257600080fd5b506104da610d913660046148a4565b601d6020526000908152604090205481565b348015610daf57600080fd5b506104da6129f2565b348015610dc457600080fd5b506104da62093a8081565b348015610ddb57600080fd5b50610647612a04565b348015610df057600080fd5b506104da64e8d4a5100081565b348015610e0957600080fd5b50610674612a5a565b348015610e1e57600080fd5b506104da600c5481565b348015610e3457600080fd5b5061055573dc652c746a8f85e18ce632d97c6118e8a52fa73881565b348015610e5c57600080fd5b50610647612b27565b348015610e7157600080fd5b50610674610e803660046150c8565b612b7d565b348015610e9157600080fd5b50610674610ea03660046148a4565b612cdb565b348015610eb157600080fd5b506104da610ec036600461462e565b612e18565b348015610ed157600080fd5b506104da610ee0366004614a06565b612e28565b348015610ef157600080fd5b5061078f610f0036600461462e565b60166020526000908152604090205460ff1681565b348015610f2157600080fd5b50610647610f3036600461462e565b612e44565b348015610f4157600080fd5b506104da600b5481565b348015610f5757600080fd5b506104da603c81565b601860205260009081526040902080546001820180546001600160a01b03831693600160a01b90930460ff16929190610f989061513c565b80601f0160208091040260200160405190810160405280929190818152602001828054610fc49061513c565b80156110115780601f10610fe657610100808354040283529160200191611011565b820191906000526020600020905b815481529060010190602001808311610ff457829003601f168201915b5050604080516020808201835260028801546001600160a01b03168252825160038901805460609381028301840186529482018581529899939893975090955093508492849184018282801561109057602002820191906000526020600020905b81546001600160a01b03168152600190910190602001808311611072575b5050505050815260200160018201548152505090806005016040518060600160405290816000820180548060200260200160405190810160405280929190818152602001828054801561110c57602002820191906000526020600020905b81546001600160a01b031681526001909101906020018083116110ee575b5050505050815260200160018201805480602002602001604051908101604052809291908181526020016000905b828210156111e65783829060005260206000200180546111599061513c565b80601f01602080910402602001604051908101604052809291908181526020018280546111859061513c565b80156111d25780601f106111a7576101008083540402835291602001916111d2565b820191906000526020600020905b8154815290600101906020018083116111b557829003601f168201915b50505050508152602001906001019061113a565b5050505081526020016002820180548060200260200160405190810160405280929190818152602001828054801561123d57602002820191906000526020600020905b815481526020019060010190808311611229575b505050505081525050905086565b6015818154811061125b57600080fd5b600091825260209091200154905081565b600380546112799061513c565b80601f01602080910402602001604051908101604052809291908181526020018280546112a59061513c565b80156112f25780601f106112c7576101008083540402835291602001916112f2565b820191906000526020600020905b8154815290600101906020018083116112d557829003601f168201915b505050505081565b61132e604051806080016040528060006001600160a01b031681526020016000815260200160008152602001606081525090565b600082815260236020908152604091829020825160808101845281546001600160a01b031681526001820154928101929092526002810154928201929092526003820180549192916060840191906113859061513c565b80601f01602080910402602001604051908101604052809291908181526020018280546113b19061513c565b80156113fe5780601f106113d3576101008083540402835291602001916113fe565b820191906000526020600020905b8154815290600101906020018083116113e157829003601f168201915b5050505050815250509050919050565b601a818154811061141e57600080fd5b6000918252602090912001546001600160a01b0316905081565b6060601580548060200260200160405190810160405280929190818152602001828054801561148657602002820191906000526020600020905b815481526020019060010190808311611472575b5050505050905090565b6005546001600160a01b031633146114bb5760405163141dbb4960e21b815260040160405180910390fd5b60046114c56120e0565b60048111156114d6576114d6614ce5565b14806114fa575060026114e76120e0565b60048111156114f8576114f8614ce5565b145b15611518576040516398fe99a560e01b815260040160405180910390fd5b601180546001600160a01b0319166001600160a01b0392909216919091179055565b600060046115466120e0565b600481111561155757611557614ce5565b148061157b575060026115686120e0565b600481111561157957611579614ce5565b145b156115985760405162f3e73d60e81b815260040160405180910390fd5b604080516080810182523381524260208201529081018490526060810183905260006115c3826117b1565b6021805460018082019092557f3a6357012c1a3ae0a17d304c9920310382d968ebcc4b1771f41c6b304205b57001829055600082815260236020908152604091829020865181546001600160a01b0319166001600160a01b039091161781559086015192810192909255840151600282015560608401519192508391600382019061164e90826151c4565b505050600085815260246020908152604080832080546001810182559084529190922001829055517f5a1a930fed43f34b3a07db782ebcac28a661c273e662bb98458cfba5a8ccd220906116a59083815260200190565b60405180910390a19150505b92915050565b60006009546116c46129f2565b6116ce9190615299565b905090565b6000806116e1600184612ea4565b60008581526016602052604090205490915060ff1615611714576040516358f1119560e01b815260040160405180910390fd5b61171d81612f62565b61172884338561306a565b949350505050565b6060601b80548060200260200160405190810160405280929190818152602001828054801561148657602002820191906000526020600020905b81546001600160a01b0316815260019091019060200180831161176a575050505050905090565b6002818154811061125b57600080fd5b6022818154811061125b57600080fd5b6000816040516020016117c4919061482b565b60408051601f19818403018152919052805160209091012092915050565b60065460011415801561180057506005546001600160a01b03163314155b1561181e57604051639a4a529360e01b815260040160405180910390fd5b565b61182c60026001615299565b81565b606080600061183c612b27565b9050600081516001600160401b03811115611859576118596148c1565b604051908082528060200260200182016040528015611882578160200160208202803683370190505b50905060005b82518110156118f057601e60008483815181106118a7576118a76152ac565b60200260200101518152602001908152602001600020600001548282815181106118d3576118d36152ac565b6020908102919091010152806118e8816152c2565b915050611888565b5090939092509050565b601b818154811061141e57600080fd5b60008160000361192d57604051630ec90a1760e31b815260040160405180910390fd5b6002805460408051602080840282018101909252828152919260009291849083018282801561197b57602002820191906000526020600020905b815481526020019060010190808311611967575b5050505050905060006001905060005b838110156119f7576119c28382815181106119a8576119a86152ac565b60200260200101516000908152601f602052604090205490565b156119e5578582036119d75795945050505050565b816119e1816152c2565b9250505b806119ef816152c2565b91505061198b565b50604051632cc2ab7360e11b815260040160405180910390fd5b606060228054806020026020016040519081016040528092919081815260200182805480156114865760200282019190600052602060002090815481526020019060010190808311611472575050505050905090565b601380546112799061513c565b601f6020528160005260406000208181548110611a9057600080fd5b90600052602060002001600091509150505481565b606060028054806020026020016040519081016040528092919081815260200182805480156114865760200282019190600052602060002090815481526020019060010190808311611472575050505050905090565b600480546112799061513c565b60236020526000908152604090208054600182015460028301546003840180546001600160a01b03909416949293919291611b429061513c565b80601f0160208091040260200160405190810160405280929190818152602001828054611b6e9061513c565b8015611bbb5780601f10611b9057610100808354040283529160200191611bbb565b820191906000526020600020905b815481529060010190602001808311611b9e57829003601f168201915b5050505050905084565b600254600090611bd7906001906152db565b821115611bf7576040516365d6f35160e11b815260040160405180910390fd5b60005b611c05836001615299565b811015611c62576001611c4160028381548110611c2457611c246152ac565b90600052602060002001546000908152601f602052604090205490565b1115611c505750600192915050565b80611c5a816152c2565b915050611bfa565b50600092915050565b6060601a805480602002602001604051908101604052809291908181526020018280548015611486576020028201919060005260206000209081546001600160a01b0316815260019091019060200180831161176a575050505050905090565b600080611cd9600080612ea4565b9050611ce36117e2565b611cef610d31846152ee565b6000611d02611cfd856152ee565b613167565b9050611d0d82612f62565b9392505050565b3373dc652c746a8f85e18ce632d97c6118e8a52fa73814611d485760405163de07280160e01b815260040160405180910390fd5b6004611d526120e0565b6004811115611d6357611d63614ce5565b1480611d8757506002611d746120e0565b6004811115611d8557611d85614ce5565b145b15611da5576040516398fe99a560e01b815260040160405180910390fd5b601280546001600160a01b0319166001600160a01b0392909216919091179055565b6014818154811061125b57600080fd5b6004611de16120e0565b6004811115611df257611df2614ce5565b1480611e1657506002611e036120e0565b6004811115611e1457611e14614ce5565b145b15611e3457604051631e71d28360e21b815260040160405180910390fd5b805160005b81811015611f32576000838281518110611e5557611e556152ac565b60209081029190910101516005549091506001600160a01b03163314801590611e9557506000818152602360205260409020546001600160a01b03163314155b15611ebb57604051635450763d60e11b8152600481018290526024015b60405180910390fd5b60008181526025602052604090205460ff16611f1f576000818152602560205260408120805460ff191660019081179091556022805491820181559091527f61035b26e3e9eee00e0d72fd1ee8ddca6894550dca6916ea2ac6baa90d11e510018190555b5080611f2a816152c2565b915050611e39565b507f788a4349d25bc08585923ae212bce8bb346a623bce753eeecb85fd9ce58dcb4b82604051611f62919061486c565b60405180910390a15050565b6000818152601e60209081526040918290206001810180548451818502810185019095528085526060949293830182828015611fd357602002820191906000526020600020905b81546001600160a01b03168152600190910190602001808311611fb5575b5050505050915050919050565b6005546060906001600160a01b0316331461200e57604051630aca3d7160e11b815260040160405180910390fd5b60046120186120e0565b600481111561202957612029614ce5565b148061204d5750600261203a6120e0565b600481111561204b5761204b614ce5565b145b1561206b57604051635b0747e760e01b815260040160405180910390fd5b600461207783826151c4565b5090919050565b6000818152602460209081526040918290208054835181840281018401909452808452606093928301828280156120d457602002820191906000526020600020905b8154815260200190600101908083116120c0575b50505050509050919050565b60175460009060ff16156120f45750600290565b42600754106121035750600090565b4261210c6129f2565b106121175750600390565b426121206116b7565b1061212b5750600190565b50600490565b6005546060906001600160a01b0316331461215f57604051637d1cb2b160e01b815260040160405180910390fd5b60046121696120e0565b600481111561217a5761217a614ce5565b148061219e5750600261218b6120e0565b600481111561219c5761219c614ce5565b145b156121bc57604051635b0747e760e01b815260040160405180910390fd5b600361207783826151c4565b6121d0614436565b600082815260186020908152604091829020825160c08101845281546001600160a01b0381168252600160a01b900460ff1615159281019290925260018101805492939192918401916122229061513c565b80601f016020809104026020016040519081016040528092919081815260200182805461224e9061513c565b801561229b5780601f106122705761010080835404028352916020019161229b565b820191906000526020600020905b81548152906001019060200180831161227e57829003601f168201915b5050509183525050604080516020818101835260028501546001600160a01b0316825280840191909152815160038501805460609381028301840185528285018181529490950194919390928492849184018282801561232457602002820191906000526020600020905b81546001600160a01b03168152600190910190602001808311612306575b50505050508152602001600182015481525050815260200160058201604051806060016040529081600082018054806020026020016040519081016040528092919081815260200182805480156123a457602002820191906000526020600020905b81546001600160a01b03168152600190910190602001808311612386575b5050505050815260200160018201805480602002602001604051908101604052809291908181526020016000905b8282101561247e5783829060005260206000200180546123f19061513c565b80601f016020809104026020016040519081016040528092919081815260200182805461241d9061513c565b801561246a5780601f1061243f5761010080835404028352916020019161246a565b820191906000526020600020905b81548152906001019060200180831161244d57829003601f168201915b5050505050815260200190600101906123d2565b505050508152602001600282018054806020026020016040519081016040528092919081815260200182805480156124d557602002820191906000526020600020905b8154815260200190600101908083116124c1575b5050509190925250505090525092915050565b600060016124f46120e0565b600481111561250557612505614ce5565b1461252c576125126120e0565b604051631827aa6760e21b8152600401611eb29190614cfb565b6001600f54600181111561254257612542614ce5565b600181111561255357612553614ce5565b03612661576000603c6125646129f2565b61256f906001615299565b61257990426152db565b6125839190615310565b905060006125f06125dc6125a56125a285670de0b6b3a7640000615332565b90565b6125d76125c1600954670de0b6b3a76400006125a29190615332565b6125d76125a2603c670de0b6b3a7640000615332565b61343e565b68056bc75e2d63100000613456565b613456565b90506000612612826125eb61260460105490565b670de0b6b3a764000061343e565b9050600061261f82613465565b9050600061263b6125a2612635612604600e5490565b84613456565b905064e8d4a5100061264d8183615310565b6126579190615332565b9550505050505090565b50600e5490565b6060600060158054806020026020016040519081016040528092919081815260200182805480156126b857602002820191906000526020600020905b8154815260200190600101908083116126a4575b50505050509050600081516001600160401b038111156126da576126da6148c1565b604051908082528060200260200182016040528015612703578160200160208202803683370190505b50905060005b82518110156127915760186000848381518110612728576127286152ac565b6020026020010151815260200190815260200160002060000160009054906101000a90046001600160a01b0316828281518110612767576127676152ac565b6001600160a01b039092166020928302919091019091015280612789816152c2565b915050612709565b5092915050565b80516001600160a01b031633146127d657805160405163fbbf4d7f60e01b81526001600160a01b039091166004820152336024820152604401611eb2565b60005b6127e560026001615299565b81101561295557600081600281111561280057612800614ce5565b9050600081600281111561281657612816614ce5565b036128215750612943565b600181600281111561283557612835614ce5565b0361288f57608083015151516000036128615760405163c3b2798b60e01b815260040160405180910390fd5b82608001516020015160000361288a576040516392fb9a3560e01b815260040160405180910390fd5b612941565b60028160028111156128a3576128a3614ce5565b036129265760a08301515151600a10156128d057604051631e38b1b160e11b815260040160405180910390fd5b600a8360a00151602001515111156128fb5760405163a3b7dd7760e01b815260040160405180910390fd5b600a8360a001516040015151111561288a5760405163f696406560e01b815260040160405180910390fd5b8060405163d2277d4960e01b8152600401611eb29190615349565b505b8061294d816152c2565b9150506127d9565b5080604001515160000361297c5760405163e182473360e01b815260040160405180910390fd5b50565b6000818152601f60205260408120546001146129ae57604051633832a15560e21b815260040160405180910390fd5b6000828152601f6020526040812080549091906129cd576129cd6152ac565b90600052602060002001549050919050565b6000816040516020016117c49190614d15565b60006008546007546116ce9190615299565b606060218054806020026020016040519081016040528092919081815260200182805480156114865760200282019190600052602060002090815481526020019060010190808311611472575050505050905090565b6005546001600160a01b03163314801590612a8957503373dc652c746a8f85e18ce632d97c6118e8a52fa73814155b15612aa757604051637601acaf60e11b815260040160405180910390fd5b60175460ff1615612acb57604051636f79584d60e01b815260040160405180910390fd5b601c5415600114612aef5760405163043d8d1b60e21b815260040160405180910390fd5b6017805460ff191660011790556040517f4cd963a081760a54f571abc0f1db4dde31b4a07d8d6da3e844b8c6f47eeaaa4290600090a1565b606060148054806020026020016040519081016040528092919081815260200182805480156114865760200282019190600052602060002090815481526020019060010190808311611472575050505050905090565b6003612b876120e0565b6004811115612b9857612b98614ce5565b14612bb65760405163554806bb60e11b815260040160405180910390fd5b60005b81811015612caa576000838383818110612bd557612bd56152ac565b60055460209190910292909201359250506001600160a01b03163314801590612c1557506000818152601860205260409020546001600160a01b03163314155b15612c335760405163018db70560e11b815260040160405180910390fd5b60008181526016602052604090205460ff16612c97576000818152601660205260408120805460ff191660019081179091556015805491820181559091527f55f448fdea98c4d29eb340757ef0a66cd03dbb9538908a6a81d96026b71ec475018190555b5080612ca2816152c2565b915050612bb9565b507f75a75cf5c561892f4cc5b26c1b8e933849b42238c96dd073d080d1ae96c514166014604051611f62919061535d565b6005546001600160a01b03163314612d0657604051630f4cb1bd60e11b815260040160405180910390fd5b6020546001600160a01b031615612d3057604051630ff4b80b60e01b815260040160405180910390fd5b306001600160a01b0316816001600160a01b031663f3f44fb76040518163ffffffff1660e01b8152600401602060405180830381865afa158015612d78573d6000803e3d6000fd5b505050506040513d601f19601f82011682018060405250810190612d9c9190615398565b6001600160a01b031614612dc357604051635b310aaf60e01b815260040160405180910390fd5b602080546001600160a01b038381166001600160a01b03198316811784556040805192909316808352938201527f753a2cf8d360cff631674504210913e48247f8e56b3e6d2006c2103d4095999f9101611f62565b6021818154811061125b57600080fd5b60246020528160005260406000208181548110611a9057600080fd5b6000818152601f60209081526040918290208054835181840281018401909452808452606093928301828280156120d457602002820191906000526020600020908154815260200190600101908083116120c05750505050509050919050565b60008080846001811115612eba57612eba614ce5565b03612ec85750600d54612f39565b6001846001811115612edc57612edc614ce5565b03612f3557670de0b6b3a7640000831015612f0a576040516346ddb8d160e01b815260040160405180910390fd5b612f1c670de0b6b3a764000084615310565b612f246124e8565b612f2e9190615332565b9050612f39565b5060005b803414611d0d576040516372c3eaa760e01b815234600482015260248101829052604401611eb2565b801561297c5760006064600c546064612f7b91906152db565b612f859034615332565b612f8f9190615310565b90508015612ff457601254612fad906001600160a01b0316826134bb565b601254604080516001600160a01b039092168252602082018390527f9df63d1c00d2e332f573be591c0579caafb256b2c5a17abcc8ad471cccda1b81910160405180910390a15b600061300082346152db565b905080156130655760115461301e906001600160a01b0316826134bb565b600554604080516001600160a01b039092168252602082018390527f6dff55337c8458ae8c536a63869a48bc33541733422a796390c131d91f4238ed910160405180910390a15b505050565b600060016130766120e0565b600481111561308757613087614ce5565b146130ae576130946120e0565b60405163049cab4960e51b8152600401611eb29190614cfb565b816000036130cf5760405163502e1c2960e01b815260040160405180910390fd5b6130da8484846135d4565b601b80546001810182556000919091527f3ad8aa4f87544323a9d1e5dd902f40c356527a7955687113db5f9a85ad579dc10180546001600160a01b0319163317905560408051858152602081018490526001600160a01b038516917fb4cfecf70861b7b150d8337780d34fb4cbc2114b5fb1fe51a5c5fca1849f7274910160405180910390a25092915050565b600060036131736120e0565b600481111561318457613184614ce5565b146131ab576131916120e0565b604051632889531360e01b8152600401611eb29190614cfb565b600a5433600090815260196020526040902054036131e257600a54604051632bd6d93960e21b8152600401611eb291815260200190565b600b546015546014546131f591906152db565b0361321957600b546040516302217f5360e51b8152600401611eb291815260200190565b6000613224836129df565b600081815260186020526040902054909150600160a01b900460ff16156132615760405163baffc42360e01b815260048101829052602401611eb2565b6014805460018181019092557fce6d7b5282bd9a3661ae061feed1dbda4e52ab073b1f9285be6e155d9c38d4ec0182905560008281526018602090815260409182902086518154928801511515600160a01b026001600160a81b03199093166001600160a01b03909116179190911781559085015185928201906132e590826151c4565b506060820151516002820180546001600160a01b0319166001600160a01b03909216919091179055608082015180518051600384019161332a918391602001906144d0565b5060209182015160019091015560a0830151805180519192600585019261335492849201906144d0565b50602082810151805161336d9260018501920190614535565b5060408201518051613389916002840191602090910190614587565b50503360009081526019602052604081208054600195509093509091506133b1908490615299565b9091555050601a80546001810182556000919091527f057c384a7d1c54f3a1b2e5e67b2617b8224fdfd1ea7234eea573a6ff665ff63e0180546001600160a01b0319163390811790915560408085015190517f7585f467599d0f008985f231af99293be388626ac16ca59505c2f8f88969cd63926134309285926153b5565b60405180910390a192915050565b6000611d0d6125a284670de0b6b3a764000085613720565b6000611d0d6125a284846137f4565b600081680a688906bd8affffff8111156134955760405163b3b6ba1f60e01b815260048101849052602401611eb2565b60006134ad670de0b6b3a7640000604084901b615310565b90506117286125a2826138aa565b8047101561350b5760405162461bcd60e51b815260206004820152601d60248201527f416464726573733a20696e73756666696369656e742062616c616e63650000006044820152606401611eb2565b6000826001600160a01b03168260405160006040518083038185875af1925050503d8060008114613558576040519150601f19603f3d011682016040523d82523d6000602084013e61355d565b606091505b50509050806130655760405162461bcd60e51b815260206004820152603a60248201527f416464726573733a20756e61626c6520746f2073656e642076616c75652c207260448201527f6563697069656e74206d617920686176652072657665727465640000000000006064820152608401611eb2565b6000838152601e602090815260408083206001600160a01b0386168452600281019092528220548154919290159184918491613611908490615299565b90915550506001600160a01b038416600090815260028301602052604081208054859290613640908490615299565b9091555050801561367b576001828101805491820181556000908152602090200180546001600160a01b0319166001600160a01b0386161790555b6001600160a01b0384166000908152601d6020526040812080548592906136a3908490615299565b9250508190555082601c60008282546136bc9190615299565b909155505060005460010361371957815460006136d985836152db565b905080156136eb576136eb878261400a565b6000828152601f60209081526040822080546001810182559083529120018790556137168183614141565b50505b5050505050565b600080806000198587098587029250828110838203039150508060000361375a57838281613750576137506152fa565b0492505050611d0d565b83811061378b57604051630c740aef60e31b8152600481018790526024810186905260448101859052606401611eb2565b60008486880960026001871981018816978890046003810283188082028403028082028403028082028403028082028403028082028403029081029092039091026000889003889004909101858311909403939093029303949094049190911702949350505050565b60008080600019848609848602925082811083820303915050806000036138285750670de0b6b3a7640000900490506116b1565b670de0b6b3a7640000811061385a57604051635173648d60e01b81526004810186905260248101859052604401611eb2565b6000670de0b6b3a764000085870962040000818503049310909103600160ee1b02919091177faccb18165bd6fe31ae1cf318dc5b51eee0e1ba569b88cd74c1773b91fac106690291505092915050565b600160bf1b67ff000000000000008216156139b7576780000000000000008216156138de5768016a09e667f3bcc9090260401c5b6740000000000000008216156138fd576801306fe0a31b7152df0260401c5b67200000000000000082161561391c576801172b83c7d517adce0260401c5b67100000000000000082161561393b5768010b5586cf9890f62a0260401c5b67080000000000000082161561395a576801059b0d31585743ae0260401c5b67040000000000000082161561397957680102c9a3e778060ee70260401c5b6702000000000000008216156139985768010163da9fb33356d80260401c5b6701000000000000008216156139b757680100b1afa5abcbed610260401c5b66ff000000000000821615613ab65766800000000000008216156139e45768010058c86da1c09ea20260401c5b6640000000000000821615613a02576801002c605e2e8cec500260401c5b6620000000000000821615613a2057680100162f3904051fa10260401c5b6610000000000000821615613a3e576801000b175effdc76ba0260401c5b6608000000000000821615613a5c57680100058ba01fb9f96d0260401c5b6604000000000000821615613a7a5768010002c5cc37da94920260401c5b6602000000000000821615613a98576801000162e525ee05470260401c5b6601000000000000821615613ab65768010000b17255775c040260401c5b65ff0000000000821615613bac5765800000000000821615613ae1576801000058b91b5bc9ae0260401c5b65400000000000821615613afe57680100002c5c89d5ec6d0260401c5b65200000000000821615613b1b5768010000162e43f4f8310260401c5b65100000000000821615613b3857680100000b1721bcfc9a0260401c5b65080000000000821615613b555768010000058b90cf1e6e0260401c5b65040000000000821615613b72576801000002c5c863b73f0260401c5b65020000000000821615613b8f57680100000162e430e5a20260401c5b65010000000000821615613bac576801000000b1721835510260401c5b64ff00000000821615613c9957648000000000821615613bd557680100000058b90c0b490260401c5b644000000000821615613bf15768010000002c5c8601cc0260401c5b642000000000821615613c0d576801000000162e42fff00260401c5b641000000000821615613c295768010000000b17217fbb0260401c5b640800000000821615613c45576801000000058b90bfce0260401c5b640400000000821615613c6157680100000002c5c85fe30260401c5b640200000000821615613c7d5768010000000162e42ff10260401c5b640100000000821615613c9957680100000000b17217f80260401c5b63ff000000821615613d7d576380000000821615613cc05768010000000058b90bfc0260401c5b6340000000821615613cdb576801000000002c5c85fe0260401c5b6320000000821615613cf657680100000000162e42ff0260401c5b6310000000821615613d11576801000000000b17217f0260401c5b6308000000821615613d2c57680100000000058b90c00260401c5b6304000000821615613d475768010000000002c5c8600260401c5b6302000000821615613d62576801000000000162e4300260401c5b6301000000821615613d7d5768010000000000b172180260401c5b62ff0000821615613e585762800000821615613da2576801000000000058b90c0260401c5b62400000821615613dbc57680100000000002c5c860260401c5b62200000821615613dd65768010000000000162e430260401c5b62100000821615613df057680100000000000b17210260401c5b62080000821615613e0a5768010000000000058b910260401c5b62040000821615613e24576801000000000002c5c80260401c5b62020000821615613e3e57680100000000000162e40260401c5b62010000821615613e58576801000000000000b1720260401c5b61ff00821615613f2a57618000821615613e7b57680100000000000058b90260401c5b614000821615613e945768010000000000002c5d0260401c5b612000821615613ead576801000000000000162e0260401c5b611000821615613ec65768010000000000000b170260401c5b610800821615613edf576801000000000000058c0260401c5b610400821615613ef857680100000000000002c60260401c5b610200821615613f1157680100000000000001630260401c5b610100821615613f2a57680100000000000000b10260401c5b60ff821615613ff3576080821615613f4b57680100000000000000590260401c5b6040821615613f63576801000000000000002c0260401c5b6020821615613f7b57680100000000000000160260401c5b6010821615613f93576801000000000000000b0260401c5b6008821615613fab57680100000000000000060260401c5b6004821615613fc357680100000000000000030260401c5b6002821615613fdb57680100000000000000010260401c5b6001821615613ff357680100000000000000010260401c5b670de0b6b3a76400000260409190911c60bf031c90565b6000818152601f602090815260408083208054825181850281018501909352808352919290919083018282801561406057602002820191906000526020600020905b81548152602001906001019080831161404c575b5050505050905060005b815181101561413b5783828281518110614086576140866152ac565b6020026020010151036141295781600183516140a291906152db565b815181106140b2576140b26152ac565b6020026020010151601f600085815260200190815260200160002082815481106140de576140de6152ac565b9060005260206000200181905550601f600084815260200190815260200160002080548061410e5761410e6153df565b6001900381819060005260206000200160009055905561413b565b80614133816152c2565b91505061406a565b50505050565b6002805460408051602080840282018101909252828152919260009291849083018282801561418f57602002820191906000526020600020905b81548152602001906001019080831161417b575b50505050509050816000036141d6575050600280546001810182556000919091527f405787fa12a823e0f2b7631cc41b3ba8828b3321ca811111fa75cd3aa3bb5ace015550565b806141e26001846152db565b815181106141f2576141f26152ac565b60200260200101518310156142485760015482036142105750505050565b5050600280546001810182556000919091527f405787fa12a823e0f2b7631cc41b3ba8828b3321ca811111fa75cd3aa3bb5ace015550565b61413b848484846000805b838110156142bd5782818151811061426d5761426d6152ac565b6020026020010151850361428257505061413b565b828181518110614294576142946152ac565b60200260200101518511156142ab578091506142bd565b806142b5816152c2565b915050614253565b50600080861180156142db57506000868152601f6020526040902054155b905060008180156143045750868484815181106142fa576142fa6152ac565b6020026020010151145b61440d576143136001866152db565b83146143bb576000614326846001615299565b90505b858110156143b9578461433d6001836152db565b8151811061434d5761434d6152ac565b602002602001015160028281548110614368576143686152ac565b60009182526020909120015582801561439957508785828151811061438f5761438f6152ac565b6020026020010151145b156143a757600191506143b9565b806143b1816152c2565b915050614329565b505b801580156143ca575060015485105b1561440d576002846143dd6001886152db565b815181106143ed576143ed6152ac565b602090810291909101810151825460018101845560009384529190922001555b8560028481548110614421576144216152ac565b60009182526020909120015550505050505050565b6040518060c0016040528060006001600160a01b0316815260200160001515815260200160608152602001614480604051806020016040528060006001600160a01b031681525090565b81526020016144a2604051806040016040528060608152602001600081525090565b81526020016144cb60405180606001604052806060815260200160608152602001606081525090565b905290565b828054828255906000526020600020908101928215614525579160200282015b8281111561452557825182546001600160a01b0319166001600160a01b039091161782556020909201916001909101906144f0565b506145319291506145c2565b5090565b82805482825590600052602060002090810192821561457b579160200282015b8281111561457b578251829061456b90826151c4565b5091602001919060010190614555565b506145319291506145d7565b828054828255906000526020600020908101928215614525579160200282015b828111156145255782518255916020019190600101906145a7565b5b8082111561453157600081556001016145c3565b808211156145315760006145eb82826145f4565b506001016145d7565b5080546146009061513c565b6000825580601f10614610575050565b601f01602090049060005260206000209081019061297c91906145c2565b60006020828403121561464057600080fd5b5035919050565b6000815180845260005b8181101561466d57602081850181015186830182015201614651565b506000602082860101526020601f19601f83011685010191505092915050565b600081518084526020808501945080840160005b838110156146c65781516001600160a01b0316875295820195908201906001016146a1565b509495945050505050565b60008151604084526146e6604085018261468d565b602093840151949093019390935250919050565b600081518084526020808501945080840160005b838110156146c65781518752958201959082019060010161470e565b600081516060845261473f606085018261468d565b9050602080840151858303828701528281518085528385019150838160051b860101848401935060005b8281101561479757601f19878303018452614785828651614647565b94860194938601939150600101614769565b506040880151955088810360408a01526147b181876146fa565b9998505050505050505050565b600060018060a01b038089168352871515602084015260c060408401526147e860c0840188614647565b818751166060850152838103608085015261480381876146d1565b91505082810360a08401526147b1818561472a565b602081526000611d0d6020830184614647565b6020815260018060a01b03825116602082015260208201516040820152604082015160608201526000606083015160808084015261172860a0840182614647565b602081526000611d0d60208301846146fa565b6001600160a01b038116811461297c57600080fd5b803561489f8161487f565b919050565b6000602082840312156148b657600080fd5b8135611d0d8161487f565b634e487b7160e01b600052604160045260246000fd5b604051606081016001600160401b03811182821017156148f9576148f96148c1565b60405290565b60405160c081016001600160401b03811182821017156148f9576148f96148c1565b604051601f8201601f191681016001600160401b0381118282101715614949576149496148c1565b604052919050565b600082601f83011261496257600080fd5b81356001600160401b0381111561497b5761497b6148c1565b61498e601f8201601f1916602001614921565b8181528460208386010111156149a357600080fd5b816020850160208301376000918101602001919091529392505050565b600080604083850312156149d357600080fd5b8235915060208301356001600160401b038111156149f057600080fd5b6149fc85828601614951565b9150509250929050565b60008060408385031215614a1957600080fd5b50508035926020909101359150565b6020808252825182820181905260009190848201906040850190845b81811015614a695783516001600160a01b031683529284019291840191600101614a44565b50909695505050505050565b600060208284031215614a8757600080fd5b81356001600160401b0380821115614a9e57600080fd5b9083019060808286031215614ab257600080fd5b604051608081018181108382111715614acd57614acd6148c1565b6040528235614adb8161487f565b808252506020830135602082015260408301356040820152606083013582811115614b0557600080fd5b614b1187828601614951565b60608301525095945050505050565b604081526000614b3360408301856146fa565b8281036020840152614b4581856146fa565b95945050505050565b60008060408385031215614b6157600080fd5b823591506020830135614b738161487f565b809150509250929050565b60018060a01b0385168152836020820152826040820152608060608201526000614bab6080830184614647565b9695505050505050565b600060208284031215614bc757600080fd5b81356001600160401b03811115614bdd57600080fd5b820160c08185031215611d0d57600080fd5b60006001600160401b03821115614c0857614c086148c1565b5060051b60200190565b600082601f830112614c2357600080fd5b81356020614c38614c3383614bef565b614921565b82815260059290921b84018101918181019086841115614c5757600080fd5b8286015b84811015614c725780358352918301918301614c5b565b509695505050505050565b600060208284031215614c8f57600080fd5b81356001600160401b03811115614ca557600080fd5b61172884828501614c12565b600060208284031215614cc357600080fd5b81356001600160401b03811115614cd957600080fd5b61172884828501614951565b634e487b7160e01b600052602160045260246000fd5b6020810160058310614d0f57614d0f614ce5565b91905290565b60208152600060018060a01b03808451166020840152602084015115156040840152604084015160c06060850152614d5060e0850182614647565b90508160608601515116608085015260808501519150601f19808583030160a0860152614d7d82846146d1565b925060a08601519150808584030160c086015250614b45828261472a565b8035801515811461489f57600080fd5b600060208284031215614dbd57600080fd5b604051602081018181106001600160401b0382111715614ddf57614ddf6148c1565b6040529050808235614df08161487f565b905292915050565b600082601f830112614e0957600080fd5b81356020614e19614c3383614bef565b82815260059290921b84018101918181019086841115614e3857600080fd5b8286015b84811015614c72578035614e4f8161487f565b8352918301918301614e3c565b600060408284031215614e6e57600080fd5b604051604081016001600160401b038282108183111715614e9157614e916148c1565b816040528293508435915080821115614ea957600080fd5b50614eb685828601614df8565b825250602083013560208201525092915050565b600060608284031215614edc57600080fd5b614ee46148d7565b905081356001600160401b0380821115614efd57600080fd5b614f0985838601614df8565b8352602091508184013581811115614f2057600080fd5b8401601f81018613614f3157600080fd5b8035614f3f614c3382614bef565b81815260059190911b82018401908481019088831115614f5e57600080fd5b8584015b83811015614f9657803586811115614f7a5760008081fd5b614f888b8983890101614951565b845250918601918601614f62565b508086880152505050506040840135915080821115614fb457600080fd5b50614fc184828501614c12565b60408301525092915050565b600060c08284031215614fdf57600080fd5b614fe76148ff565b9050614ff282614894565b815261500060208301614d9b565b602082015260408201356001600160401b038082111561501f57600080fd5b61502b85838601614951565b604084015261503d8560608601614dab565b6060840152608084013591508082111561505657600080fd5b61506285838601614e5c565b608084015260a084013591508082111561507b57600080fd5b5061508884828501614eca565b60a08301525092915050565b6000602082840312156150a657600080fd5b81356001600160401b038111156150bc57600080fd5b61172884828501614fcd565b600080602083850312156150db57600080fd5b82356001600160401b03808211156150f257600080fd5b818501915085601f83011261510657600080fd5b81358181111561511557600080fd5b8660208260051b850101111561512a57600080fd5b60209290920196919550909350505050565b600181811c9082168061515057607f821691505b60208210810361517057634e487b7160e01b600052602260045260246000fd5b50919050565b601f82111561306557600081815260208120601f850160051c8101602086101561519d5750805b601f850160051c820191505b818110156151bc578281556001016151a9565b505050505050565b81516001600160401b038111156151dd576151dd6148c1565b6151f1816151eb845461513c565b84615176565b602080601f831160018114615226576000841561520e5750858301515b600019600386901b1c1916600185901b1785556151bc565b600085815260208120601f198616915b8281101561525557888601518255948401946001909101908401615236565b50858210156152735787850151600019600388901b60f8161c191681555b5050505050600190811b01905550565b634e487b7160e01b600052601160045260246000fd5b808201808211156116b1576116b1615283565b634e487b7160e01b600052603260045260246000fd5b6000600182016152d4576152d4615283565b5060010190565b818103818111156116b1576116b1615283565b60006116b13683614fcd565b634e487b7160e01b600052601260045260246000fd5b60008261532d57634e487b7160e01b600052601260045260246000fd5b500490565b80820281158282048414176116b1576116b1615283565b6020810160038310614d0f57614d0f614ce5565b6020808252825482820181905260008481528281209092916040850190845b81811015614a695783548352600193840193928501920161537c565b6000602082840312156153aa57600080fd5b8151611d0d8161487f565b8381526001600160a01b0383166020820152606060408201819052600090614b4590830184614647565b634e487b7160e01b600052603160045260246000fdfea2646970667358221220d7e85418b2b20bc7c1f139ef18320333d5451bba4a3ead412c38d09e89ac2fa064736f6c63430008130033","linkReferences":{}},"methodIdentifiers":{"AMOUNT_FOR_SUMBITTER_PROOF()":"347cf665","COST_ROUNDING_VALUE()":"e269cefe","JK_LABS_ADDRESS()":"eef18e17","MAX_FIELDS_METADATA_LENGTH()":"b382543f","METADATAS_COUNT()":"4d24a67f","PRICE_CURVE_UPDATE_INTERVAL()":"fd7971c9","SECONDS_IN_WEEK()":"e088b29e","addressTotalCastVoteCount(address)":"dda54fcf","addressesThatHaveVoted(uint256)":"50c4b616","allProposalTotalVotes()":"50a5e524","anyoneCanSubmit()":"5358b80e","cancel()":"ea8a1af0","canceled()":"3f9942ff","castVote(uint256,uint256)":"2c0a3f89","comment(uint256,string)":"1805c523","commentIds(uint256)":"f5c36411","commentIsDeleted(uint256)":"ae66b8ad","comments(uint256)":"8ebb4c15","contestAddressTotalVotesCast(address)":"aec116b6","contestDeadline()":"262e59e9","contestStart()":"004114a8","costToPropose()":"6ed815ad","costToVote()":"51a41dec","creator()":"02d05d3f","creatorSplitDestination()":"4a587ad4","currentPricePerVote()":"ca09a4c4","deleteComments(uint256[])":"ac67f801","deleteProposals(uint256[])":"f0a7db0a","deletedCommentIds(uint256)":"3fb57c92","deletedProposalIds(uint256)":"05846cae","getAllAddressesThatHaveVoted()":"2c39805f","getAllAuthorsOfDeletedProposals()":"cbdc27cb","getAllCommentIds()":"e11db9d8","getAllDeletedCommentIds()":"5cb718a1","getAllDeletedProposalIds()":"1242b737","getAllProposalAuthors()":"946369b5","getAllProposalIds()":"efa90d36","getComment(uint256)":"0800e300","getNumProposalsWithThisManyVotes(uint256)":"bc022c98","getOnlyProposalIdWithThisManyVotes(uint256)":"d576b81d","getProposal(uint256)":"c7f758a8","getProposalComments(uint256)":"c05f4104","getProposalsWithThisManyVotes(uint256)":"f82e54c0","getRankIndex(uint256)":"5c7107d8","getSortedRanks()":"6fd3636b","hashComment((address,uint256,uint256,string))":"409fd030","hashProposal((address,bool,string,(address),(address[],uint256),(address[],string[],uint256[])))":"d7989025","isOrIsBelowTiedRank(uint256)":"9174778c","jkLabsSplitDestination()":"102613d8","maxProposalCount()":"fb9bf8d4","metadataFieldsSchema()":"60ed97a9","multiple()":"437a8ae6","name()":"06fdde03","numAllowedProposalSubmissions()":"832009af","numSubmissions(address)":"75e509c5","officialRewardsModule()":"785ddfe5","percentageToCreator()":"edcd1be4","priceCurveType()":"4a2c96ec","prompt()":"7c65d711","proposalAddressVotes(uint256,address)":"6e4eb810","proposalAddressesHaveVoted(uint256)":"b323580d","proposalAuthors(uint256)":"0aa25e44","proposalComments(uint256,uint256)":"f61736f4","proposalIds(uint256)":"9b644a23","proposalIsDeleted(uint256)":"f79c0172","proposalVoteStructs(uint256)":"15dee7cd","proposalVotes(uint256)":"544ffc9c","proposals(uint256)":"013cf08b","propose((address,bool,string,(address),(address[],uint256),(address[],string[],uint256[])))":"9a04ede8","rankLimit()":"0414126a","setCreatorSplitDestination(address)":"146230f6","setJkLabsSplitDestination(address)":"9b338aa0","setName(string)":"c47f0027","setOfficialRewardsModule(address)":"f4f3d7ec","setPrompt(string)":"b4ac024f","sortedRanks(uint256)":"325cc6d9","sortingEnabled()":"366ecf5b","state()":"c19d93fb","totalVotesCast()":"7de418d5","totalVotesCastIsZero()":"7d742925","validateProposalData((address,bool,string,(address),(address[],uint256),(address[],string[],uint256[])))":"d140d9f0","verifyProposer()":"476106c8","version()":"54fd4d50","voteStart()":"e031535b","votesToProposalIds(uint256,uint256)":"6d030621","votingDelay()":"3932abb1","votingPeriod()":"02a251a3"},"id":52}