{"abi":[{"type":"constructor","inputs":[{"name":"payees_","type":"uint256[]","internalType":"uint256[]"},{"name":"shares_","type":"uint256[]","internalType":"uint256[]"},{"name":"underlyingContest_","type":"address","internalType":"contract GovernorCountingSimple"},{"name":"paysOutTarget_","type":"bool","internalType":"bool"}],"stateMutability":"payable"},{"type":"receive","stateMutability":"payable"},{"type":"function","name":"MODULE_TYPE","inputs":[],"outputs":[{"name":"","type":"string","internalType":"string"}],"stateMutability":"view"},{"type":"function","name":"cancel","inputs":[],"outputs":[],"stateMutability":"nonpayable"},{"type":"function","name":"canceled","inputs":[],"outputs":[{"name":"","type":"bool","internalType":"bool"}],"stateMutability":"view"},{"type":"function","name":"creator","inputs":[],"outputs":[{"name":"","type":"address","internalType":"address"}],"stateMutability":"view"},{"type":"function","name":"erc20Released","inputs":[{"name":"","type":"address","internalType":"contract IERC20"},{"name":"","type":"uint256","internalType":"uint256"}],"outputs":[{"name":"","type":"uint256","internalType":"uint256"}],"stateMutability":"view"},{"type":"function","name":"erc20TotalReleased","inputs":[{"name":"","type":"address","internalType":"contract IERC20"}],"outputs":[{"name":"","type":"uint256","internalType":"uint256"}],"stateMutability":"view"},{"type":"function","name":"getAddressToPayOut","inputs":[{"name":"ranking","type":"uint256","internalType":"uint256"}],"outputs":[{"name":"","type":"address","internalType":"address"}],"stateMutability":"view"},{"type":"function","name":"getPayees","inputs":[],"outputs":[{"name":"","type":"uint256[]","internalType":"uint256[]"}],"stateMutability":"view"},{"type":"function","name":"getUnderlyingContest","inputs":[],"outputs":[{"name":"","type":"address","internalType":"contract GovernorCountingSimple"}],"stateMutability":"view"},{"type":"function","name":"payees","inputs":[{"name":"","type":"uint256","internalType":"uint256"}],"outputs":[{"name":"","type":"uint256","internalType":"uint256"}],"stateMutability":"view"},{"type":"function","name":"paysOutTarget","inputs":[],"outputs":[{"name":"","type":"bool","internalType":"bool"}],"stateMutability":"view"},{"type":"function","name":"releasable","inputs":[{"name":"token","type":"address","internalType":"contract IERC20"},{"name":"ranking","type":"uint256","internalType":"uint256"}],"outputs":[{"name":"","type":"uint256","internalType":"uint256"}],"stateMutability":"view"},{"type":"function","name":"releasable","inputs":[{"name":"ranking","type":"uint256","internalType":"uint256"}],"outputs":[{"name":"","type":"uint256","internalType":"uint256"}],"stateMutability":"view"},{"type":"function","name":"release","inputs":[{"name":"token","type":"address","internalType":"contract IERC20"},{"name":"ranking","type":"uint256","internalType":"uint256"}],"outputs":[],"stateMutability":"nonpayable"},{"type":"function","name":"release","inputs":[{"name":"ranking","type":"uint256","internalType":"uint256"}],"outputs":[],"stateMutability":"nonpayable"},{"type":"function","name":"released","inputs":[{"name":"","type":"uint256","internalType":"uint256"}],"outputs":[{"name":"","type":"uint256","internalType":"uint256"}],"stateMutability":"view"},{"type":"function","name":"runReleaseChecks","inputs":[{"name":"ranking","type":"uint256","internalType":"uint256"}],"outputs":[],"stateMutability":"view"},{"type":"function","name":"shares","inputs":[{"name":"","type":"uint256","internalType":"uint256"}],"outputs":[{"name":"","type":"uint256","internalType":"uint256"}],"stateMutability":"view"},{"type":"function","name":"totalReleased","inputs":[],"outputs":[{"name":"","type":"uint256","internalType":"uint256"}],"stateMutability":"view"},{"type":"function","name":"totalShares","inputs":[],"outputs":[{"name":"","type":"uint256","internalType":"uint256"}],"stateMutability":"view"},{"type":"function","name":"underlyingContest","inputs":[],"outputs":[{"name":"","type":"address","internalType":"contract GovernorCountingSimple"}],"stateMutability":"view"},{"type":"function","name":"version","inputs":[],"outputs":[{"name":"","type":"string","internalType":"string"}],"stateMutability":"pure"},{"type":"function","name":"withdrawRewards","inputs":[{"name":"token","type":"address","internalType":"contract IERC20"}],"outputs":[],"stateMutability":"nonpayable"},{"type":"function","name":"withdrawRewards","inputs":[],"outputs":[],"stateMutability":"nonpayable"},{"type":"event","name":"ERC20PaymentReleased","inputs":[{"name":"token","type":"address","indexed":true,"internalType":"contract IERC20"},{"name":"to","type":"address","indexed":false,"internalType":"address"},{"name":"amount","type":"uint256","indexed":false,"internalType":"uint256"}],"anonymous":false},{"type":"event","name":"ERC20RewardWithdrawn","inputs":[{"name":"token","type":"address","indexed":true,"internalType":"contract IERC20"},{"name":"by","type":"address","indexed":false,"internalType":"address"},{"name":"amount","type":"uint256","indexed":false,"internalType":"uint256"}],"anonymous":false},{"type":"event","name":"PayeeAdded","inputs":[{"name":"ranking","type":"uint256","indexed":false,"internalType":"uint256"},{"name":"shares","type":"uint256","indexed":false,"internalType":"uint256"}],"anonymous":false},{"type":"event","name":"PaymentReceived","inputs":[{"name":"from","type":"address","indexed":false,"internalType":"address"},{"name":"amount","type":"uint256","indexed":false,"internalType":"uint256"}],"anonymous":false},{"type":"event","name":"PaymentReleased","inputs":[{"name":"to","type":"address","indexed":false,"internalType":"address"},{"name":"amount","type":"uint256","indexed":false,"internalType":"uint256"}],"anonymous":false},{"type":"event","name":"RewardWithdrawn","inputs":[{"name":"by","type":"address","indexed":false,"internalType":"address"},{"name":"amount","type":"uint256","indexed":false,"internalType":"uint256"}],"anonymous":false},{"type":"error","name":"AccountAlreadyHasShares","inputs":[]},{"type":"error","name":"AccountNotDueERC20Payment","inputs":[]},{"type":"error","name":"AccountNotDueNativePayment","inputs":[]},{"type":"error","name":"CannotPayOutToZeroAddress","inputs":[]},{"type":"error","name":"CannotReleaseCanceledModule","inputs":[]},{"type":"error","name":"ContestMustBeCompleted","inputs":[]},{"type":"error","name":"MustBeCanceledToWithdraw","inputs":[]},{"type":"error","name":"MustHaveAtLeastOnePayee","inputs":[]},{"type":"error","name":"MustHaveSortingEnabled","inputs":[]},{"type":"error","name":"OnlyCreatorCanWithdraw","inputs":[]},{"type":"error","name":"PayeesSharesLengthMismatch","inputs":[]},{"type":"error","name":"PayoutRankCannotBeZero","inputs":[]},{"type":"error","name":"RankingCannotBeZero","inputs":[]},{"type":"error","name":"RankingHasNoShares","inputs":[]},{"type":"error","name":"SharesCannotBeZero","inputs":[]},{"type":"error","name":"TotalSharesCannotBeZero","inputs":[]}],"bytecode":{"object":"0x608060405260405162001db038038062001db0833981016040819052620000269162000301565b825184511462000049576040516324e23b4160e01b815260040160405180910390fd5b83516000036200006c57604051634c87c40160e01b815260040160405180910390fd5b60005b8451811015620000d857620000c3858281518110620000925762000092620003a6565b6020026020010151858381518110620000af57620000af620003a6565b60200260200101516200014660201b60201c565b80620000cf81620003d2565b9150506200006f565b50600054600003620000fd576040516306db759b60e21b815260040160405180910390fd5b60088054600780546001600160a01b039095166001600160a01b0319958616179055911515600160a01b02929092166001600160a81b03199091161733179055506200040a9050565b81600003620001685760405163d6fbfe2560e01b815260040160405180910390fd5b806000036200018a57604051633122bc0960e21b815260040160405180910390fd5b60008281526002602052604090205415620001b857604051637b4f7fb560e01b815260040160405180910390fd5b60048054600181019091557f8a35acfbc15ff81a39ae7d344fd709f28e8600b4aa8c65c6b64bfe7fe36bd19b0182905560008281526002602052604081208290555462000207908290620003ee565b60005560408051838152602081018390527f78bc0e219b874bf2620f7316737ec16d4bda1bb7136961e4dcb5ff0dc031cee4910160405180910390a15050565b634e487b7160e01b600052604160045260246000fd5b600082601f8301126200026f57600080fd5b815160206001600160401b03808311156200028e576200028e62000247565b8260051b604051601f19603f83011681018181108482111715620002b657620002b662000247565b604052938452858101830193838101925087851115620002d557600080fd5b83870191505b84821015620002f657815183529183019190830190620002db565b979650505050505050565b600080600080608085870312156200031857600080fd5b84516001600160401b03808211156200033057600080fd5b6200033e888389016200025d565b955060208701519150808211156200035557600080fd5b5062000364878288016200025d565b604087015190945090506001600160a01b03811681146200038457600080fd5b606086015190925080151581146200039b57600080fd5b939692955090935050565b634e487b7160e01b600052603260045260246000fd5b634e487b7160e01b600052601160045260246000fd5b600060018201620003e757620003e7620003bc565b5060010190565b80820180821115620004045762000404620003bc565b92915050565b611996806200041a6000396000f3fe60806040526004361061014f5760003560e01c80635775029f116100b6578063c71040461161006f578063c710404614610476578063c7b8981c14610496578063e33b7de3146104ab578063e4bf01a8146104c1578063ea8a1af0146104e1578063f3f44fb71461050657600080fd5b80635775029f1461038457806357a858fc146103be57806363037b0c146103eb578063828ce44b1461040b57806396f7ff6e14610429578063a94d373b1461044957600080fd5b806337bdc99b1161010857806337bdc99b146102a05780633a98ef39146102c05780633f9942ff146102d657806342d86693146102f75780634b9453381461031757806354fd4d501461034f57600080fd5b806302d05d3f146101935780630357371d146101d05780631e5b4634146101f25780632081d6311461022357806327f38113146102515780633375bbdc1461027357600080fd5b3661018e57604080513381523460208201527f6ef95f06320e7a25a04a175ca677b7052bdd97131872c2192525a629f51be770910160405180910390a1005b600080fd5b34801561019f57600080fd5b506008546101b3906001600160a01b031681565b6040516001600160a01b0390911681526020015b60405180910390f35b3480156101dc57600080fd5b506101f06101eb3660046112b1565b610526565b005b3480156101fe57600080fd5b5060085461021390600160a01b900460ff1681565b60405190151581526020016101c7565b34801561022f57600080fd5b5061024361023e3660046112b1565b61063d565b6040519081526020016101c7565b34801561025d57600080fd5b506102666106ff565b6040516101c791906112dd565b34801561027f57600080fd5b5061024361028e366004611321565b60056020526000908152604090205481565b3480156102ac57600080fd5b506101f06102bb36600461133e565b610757565b3480156102cc57600080fd5b5061024360005481565b3480156102e257600080fd5b5060085461021390600160a81b900460ff1681565b34801561030357600080fd5b506101f0610312366004611321565b61083c565b34801561032357600080fd5b506102436103323660046112b1565b600660209081526000928352604080842090915290825290205481565b34801561035b57600080fd5b50604080518082019091526003815262352e3560e81b60208201525b6040516101c7919061137b565b34801561039057600080fd5b506103776040518060400160405280600e81526020016d415554484f525f5245574152445360901b81525081565b3480156103ca57600080fd5b506102436103d936600461133e565b60026020526000908152604090205481565b3480156103f757600080fd5b5061024361040636600461133e565b6109c8565b34801561041757600080fd5b506007546001600160a01b03166101b3565b34801561043557600080fd5b506101b361044436600461133e565b6109e9565b34801561045557600080fd5b5061024361046436600461133e565b60036020526000908152604090205481565b34801561048257600080fd5b506101f061049136600461133e565b610c5b565b3480156104a257600080fd5b506101f0610e0b565b3480156104b757600080fd5b5061024360015481565b3480156104cd57600080fd5b506102436104dc36600461133e565b610ec2565b3480156104ed57600080fd5b506101f06008805460ff60a81b1916600160a81b179055565b34801561051257600080fd5b506007546101b3906001600160a01b031681565b61052f81610c5b565b600061053b838361063d565b90508060000361055e57604051635fe559bd60e01b815260040160405180910390fd5b6001600160a01b038316600090815260056020526040812080548392906105869084906113c4565b90915550506001600160a01b038316600090815260066020908152604080832085845290915281208054830190556105bd836109e9565b90506001600160a01b0381166105e6576040516346a3c2f960e01b815260040160405180910390fd5b604080516001600160a01b038381168252602082018590528616917f3be5b7a71e84ed12875d241991c70855ac5817d847039e17a9d895c1ceb0f18a910160405180910390a2610637848284610efa565b50505050565b6001600160a01b0382166000818152600560205260408082205490516370a0823160e01b8152306004820152919283926370a0823190602401602060405180830381865afa158015610693573d6000803e3d6000fd5b505050506040513d601f19601f820116820180604052508101906106b791906113d7565b6106c191906113c4565b6001600160a01b03851660009081526006602090815260408083208784529091529020549091506106f59084908390610f4c565b9150505b92915050565b6060600480548060200260200160405190810160405280929190818152602001828054801561074d57602002820191906000526020600020905b815481526020019060010190808311610739575b5050505050905090565b61076081610c5b565b600061076b82610ec2565b90508060000361078e57604051631d1514e960e21b815260040160405180910390fd5b80600160008282546107a091906113c4565b909155505060008281526003602052604081208054830190556107c2836109e9565b90506001600160a01b0381166107eb576040516346a3c2f960e01b815260040160405180910390fd5b604080516001600160a01b0383168152602081018490527fdf20fd1e76bc69d672e4814fafb2c449bba3a5369d8359adf9e05e6fde87b056910160405180910390a16108378183610f86565b505050565b6008546001600160a01b0316331461086757604051631eab0da960e01b815260040160405180910390fd5b600854600160a81b900460ff16151560011461089657604051633871a85960e21b815260040160405180910390fd5b6008546040516370a0823160e01b81523060048201526001600160a01b03838116927f6e5fc1cbd1629d9837bd657d23cf585bbc4e9127184972606cc4c0dd406f75729291169083906370a0823190602401602060405180830381865afa158015610905573d6000803e3d6000fd5b505050506040513d601f19601f8201168201806040525081019061092991906113d7565b604080516001600160a01b03909316835260208301919091520160405180910390a26008546040516370a0823160e01b81523060048201526109c59183916001600160a01b03918216918316906370a0823190602401602060405180830381865afa15801561099c573d6000803e3d6000fd5b505050506040513d601f19601f820116820180604052508101906109c091906113d7565b610efa565b50565b600481815481106109d857600080fd5b600091825260209091200154905081565b600754604051630b8e20fb60e31b815260048101839052600091829182916001600160a01b031690635c7107d890602401602060405180830381865afa158015610a37573d6000803e3d6000fd5b505050506040513d601f19601f82011682018060405250810190610a5b91906113d7565b60075460405163245d1de360e21b8152600481018390529192506001600160a01b031690639174778c90602401602060405180830381865afa158015610aa5573d6000803e3d6000fd5b505050506040513d601f19601f82011682018060405250810190610ac99190611405565b15610ae1576008546001600160a01b03169150610c54565b60075460405163325cc6d960e01b8152600481018390526000916001600160a01b03169063325cc6d990602401602060405180830381865afa158015610b2b573d6000803e3d6000fd5b505050506040513d601f19601f82011682018060405250810190610b4f91906113d7565b60075460405163d576b81d60e01b8152600481018390529192506000916001600160a01b039091169063c7f758a890829063d576b81d90602401602060405180830381865afa158015610ba6573d6000803e3d6000fd5b505050506040513d601f19601f82011682018060405250810190610bca91906113d7565b6040518263ffffffff1660e01b8152600401610be891815260200190565b600060405180830381865afa158015610c05573d6000803e3d6000fd5b505050506040513d6000823e601f3d908101601f19168201604052610c2d91908101906117d8565b600854909150600160a01b900460ff16610c48578051610c4f565b6060810151515b935050505b5092915050565b600760009054906101000a90046001600160a01b03166001600160a01b031663366ecf5b6040518163ffffffff1660e01b8152600401602060405180830381865afa158015610cae573d6000803e3d6000fd5b505050506040513d601f19601f82011682018060405250810190610cd291906113d7565b600114610cf257604051630fcdfffd60e41b815260040160405180910390fd5b6007546040805163c19d93fb60e01b815290516004926001600160a01b03169163c19d93fb918185019160209190819003860181865afa158015610d3a573d6000803e3d6000fd5b505050506040513d601f19601f82011682018060405250810190610d5e91906118d7565b6004811115610d6f57610d6f6118c1565b14610d8d57604051639c2d4c7960e01b815260040160405180910390fd5b80600003610dae5760405163f9668e2960e01b815260040160405180910390fd5b6000818152600260205260408120549003610ddc57604051632534bdfb60e11b815260040160405180910390fd5b600854600160a81b900460ff1615156001036109c55760405163e2f87cff60e01b815260040160405180910390fd5b6008546001600160a01b03163314610e3657604051631eab0da960e01b815260040160405180910390fd5b600854600160a81b900460ff161515600114610e6557604051633871a85960e21b815260040160405180910390fd5b600854604080516001600160a01b0390921682524760208301527f1d3eee4ca001cff39eec6ec7615aacf2f2bd61791273830728ba00ccbd6e1337910160405180910390a1600854610ec0906001600160a01b031647610f86565b565b60008060015447610ed391906113c4565b9050610ef383826003600087815260200190815260200160002054610f4c565b9392505050565b604080516001600160a01b038416602482015260448082018490528251808303909101815260649091019091526020810180516001600160e01b031663a9059cbb60e01b1790526108379084906110a4565b6000805484825260026020526040822054839190610f6a90866118f8565b610f74919061190f565b610f7e9190611931565b949350505050565b80471015610fdb5760405162461bcd60e51b815260206004820152601d60248201527f416464726573733a20696e73756666696369656e742062616c616e636500000060448201526064015b60405180910390fd5b6000826001600160a01b03168260405160006040518083038185875af1925050503d8060008114611028576040519150601f19603f3d011682016040523d82523d6000602084013e61102d565b606091505b50509050806108375760405162461bcd60e51b815260206004820152603a60248201527f416464726573733a20756e61626c6520746f2073656e642076616c75652c207260448201527f6563697069656e74206d617920686176652072657665727465640000000000006064820152608401610fd2565b60006110f9826040518060400160405280602081526020017f5361666545524332303a206c6f772d6c6576656c2063616c6c206661696c6564815250856001600160a01b03166111799092919063ffffffff16565b905080516000148061111a57508080602001905181019061111a9190611405565b6108375760405162461bcd60e51b815260206004820152602a60248201527f5361666545524332303a204552433230206f7065726174696f6e20646964206e6044820152691bdd081cdd58d8d9595960b21b6064820152608401610fd2565b6060610f7e848460008585600080866001600160a01b031685876040516111a09190611944565b60006040518083038185875af1925050503d80600081146111dd576040519150601f19603f3d011682016040523d82523d6000602084013e6111e2565b606091505b50915091506111f3878383876111fe565b979650505050505050565b6060831561126d578251600003611266576001600160a01b0385163b6112665760405162461bcd60e51b815260206004820152601d60248201527f416464726573733a2063616c6c20746f206e6f6e2d636f6e74726163740000006044820152606401610fd2565b5081610f7e565b610f7e83838151156112825781518083602001fd5b8060405162461bcd60e51b8152600401610fd2919061137b565b6001600160a01b03811681146109c557600080fd5b600080604083850312156112c457600080fd5b82356112cf8161129c565b946020939093013593505050565b6020808252825182820181905260009190848201906040850190845b81811015611315578351835292840192918401916001016112f9565b50909695505050505050565b60006020828403121561133357600080fd5b8135610ef38161129c565b60006020828403121561135057600080fd5b5035919050565b60005b8381101561137257818101518382015260200161135a565b50506000910152565b602081526000825180602084015261139a816040850160208701611357565b601f01601f19169190910160400192915050565b634e487b7160e01b600052601160045260246000fd5b808201808211156106f9576106f96113ae565b6000602082840312156113e957600080fd5b5051919050565b8051801515811461140057600080fd5b919050565b60006020828403121561141757600080fd5b610ef3826113f0565b634e487b7160e01b600052604160045260246000fd5b6040516060810167ffffffffffffffff8111828210171561145957611459611420565b60405290565b60405160c0810167ffffffffffffffff8111828210171561145957611459611420565b604051601f8201601f1916810167ffffffffffffffff811182821017156114ab576114ab611420565b604052919050565b80516114008161129c565b600082601f8301126114cf57600080fd5b815167ffffffffffffffff8111156114e9576114e9611420565b6114fc601f8201601f1916602001611482565b81815284602083860101111561151157600080fd5b610f7e826020830160208701611357565b60006020828403121561153457600080fd5b6040516020810181811067ffffffffffffffff8211171561155757611557611420565b8060405250809150825161156a8161129c565b905292915050565b600067ffffffffffffffff82111561158c5761158c611420565b5060051b60200190565b600082601f8301126115a757600080fd5b815160206115bc6115b783611572565b611482565b82815260059290921b840181019181810190868411156115db57600080fd5b8286015b848110156115ff5780516115f28161129c565b83529183019183016115df565b509695505050505050565b60006040828403121561161c57600080fd5b6040516040810167ffffffffffffffff828210818311171561164057611640611420565b81604052829350845191508082111561165857600080fd5b5061166585828601611596565b825250602083015160208201525092915050565b600082601f83011261168a57600080fd5b8151602061169a6115b783611572565b82815260059290921b840181019181810190868411156116b957600080fd5b8286015b848110156115ff57805183529183019183016116bd565b6000606082840312156116e657600080fd5b6116ee611436565b9050815167ffffffffffffffff8082111561170857600080fd5b61171485838601611596565b835260209150818401518181111561172b57600080fd5b8401601f8101861361173c57600080fd5b805161174a6115b782611572565b81815260059190911b8201840190848101908883111561176957600080fd5b8584015b838110156117a1578051868111156117855760008081fd5b6117938b89838901016114be565b84525091860191860161176d565b5080868801525050505060408401519150808211156117bf57600080fd5b506117cc84828501611679565b60408301525092915050565b6000602082840312156117ea57600080fd5b815167ffffffffffffffff8082111561180257600080fd5b9083019060c0828603121561181657600080fd5b61181e61145f565b611827836114b3565b8152611835602084016113f0565b602082015260408301518281111561184c57600080fd5b611858878286016114be565b60408301525061186b8660608501611522565b606082015260808301518281111561188257600080fd5b61188e8782860161160a565b60808301525060a0830151828111156118a657600080fd5b6118b2878286016116d4565b60a08301525095945050505050565b634e487b7160e01b600052602160045260246000fd5b6000602082840312156118e957600080fd5b815160058110610ef357600080fd5b80820281158282048414176106f9576106f96113ae565b60008261192c57634e487b7160e01b600052601260045260246000fd5b500490565b818103818111156106f9576106f96113ae565b60008251611956818460208701611357565b919091019291505056fea26469706673582212203bf98296b67553c5ddec674b04b21573b6b0f3284a0336289c31d3fe6bb5836a64736f6c63430008130033","linkReferences":{}},"methodIdentifiers":{"MODULE_TYPE()":"5775029f","cancel()":"ea8a1af0","canceled()":"3f9942ff","creator()":"02d05d3f","erc20Released(address,uint256)":"4b945338","erc20TotalReleased(address)":"3375bbdc","getAddressToPayOut(uint256)":"96f7ff6e","getPayees()":"27f38113","getUnderlyingContest()":"828ce44b","payees(uint256)":"63037b0c","paysOutTarget()":"1e5b4634","releasable(address,uint256)":"2081d631","releasable(uint256)":"e4bf01a8","release(address,uint256)":"0357371d","release(uint256)":"37bdc99b","released(uint256)":"a94d373b","runReleaseChecks(uint256)":"c7104046","shares(uint256)":"57a858fc","totalReleased()":"e33b7de3","totalShares()":"3a98ef39","underlyingContest()":"f3f44fb7","version()":"54fd4d50","withdrawRewards()":"c7b8981c","withdrawRewards(address)":"42d86693"},"id":41}