{"abi":[{"type":"constructor","inputs":[{"name":"payees_","type":"uint256[]","internalType":"uint256[]"},{"name":"shares_","type":"uint256[]","internalType":"uint256[]"},{"name":"underlyingContest_","type":"address","internalType":"contract GovernorCountingSimple"},{"name":"paysOutTarget_","type":"bool","internalType":"bool"}],"stateMutability":"payable"},{"type":"receive","stateMutability":"payable"},{"type":"function","name":"JK_LABS_ADDRESS","inputs":[],"outputs":[{"name":"","type":"address","internalType":"address"}],"stateMutability":"view"},{"type":"function","name":"MODULE_TYPE","inputs":[],"outputs":[{"name":"","type":"string","internalType":"string"}],"stateMutability":"view"},{"type":"function","name":"cancel","inputs":[],"outputs":[],"stateMutability":"nonpayable"},{"type":"function","name":"canceled","inputs":[],"outputs":[{"name":"","type":"bool","internalType":"bool"}],"stateMutability":"view"},{"type":"function","name":"canceledByJkLabs","inputs":[],"outputs":[{"name":"","type":"bool","internalType":"bool"}],"stateMutability":"view"},{"type":"function","name":"creator","inputs":[],"outputs":[{"name":"","type":"address","internalType":"address"}],"stateMutability":"view"},{"type":"function","name":"erc20Released","inputs":[{"name":"","type":"address","internalType":"contract IERC20"},{"name":"","type":"uint256","internalType":"uint256"}],"outputs":[{"name":"","type":"uint256","internalType":"uint256"}],"stateMutability":"view"},{"type":"function","name":"erc20TotalReleased","inputs":[{"name":"","type":"address","internalType":"contract IERC20"}],"outputs":[{"name":"","type":"uint256","internalType":"uint256"}],"stateMutability":"view"},{"type":"function","name":"getAddressToPayOut","inputs":[{"name":"ranking","type":"uint256","internalType":"uint256"}],"outputs":[{"name":"","type":"address","internalType":"address"}],"stateMutability":"view"},{"type":"function","name":"getPayees","inputs":[],"outputs":[{"name":"","type":"uint256[]","internalType":"uint256[]"}],"stateMutability":"view"},{"type":"function","name":"getProposalIdOfRanking","inputs":[{"name":"ranking","type":"uint256","internalType":"uint256"}],"outputs":[{"name":"","type":"uint256","internalType":"uint256"}],"stateMutability":"view"},{"type":"function","name":"getUnderlyingContest","inputs":[],"outputs":[{"name":"","type":"address","internalType":"contract GovernorCountingSimple"}],"stateMutability":"view"},{"type":"function","name":"payees","inputs":[{"name":"","type":"uint256","internalType":"uint256"}],"outputs":[{"name":"","type":"uint256","internalType":"uint256"}],"stateMutability":"view"},{"type":"function","name":"paysOutTarget","inputs":[],"outputs":[{"name":"","type":"bool","internalType":"bool"}],"stateMutability":"view"},{"type":"function","name":"releasable","inputs":[{"name":"token","type":"address","internalType":"contract IERC20"},{"name":"ranking","type":"uint256","internalType":"uint256"}],"outputs":[{"name":"","type":"uint256","internalType":"uint256"}],"stateMutability":"view"},{"type":"function","name":"releasable","inputs":[{"name":"ranking","type":"uint256","internalType":"uint256"}],"outputs":[{"name":"","type":"uint256","internalType":"uint256"}],"stateMutability":"view"},{"type":"function","name":"release","inputs":[{"name":"token","type":"address","internalType":"contract IERC20"},{"name":"ranking","type":"uint256","internalType":"uint256"}],"outputs":[],"stateMutability":"nonpayable"},{"type":"function","name":"release","inputs":[{"name":"ranking","type":"uint256","internalType":"uint256"}],"outputs":[],"stateMutability":"nonpayable"},{"type":"function","name":"released","inputs":[{"name":"","type":"uint256","internalType":"uint256"}],"outputs":[{"name":"","type":"uint256","internalType":"uint256"}],"stateMutability":"view"},{"type":"function","name":"runReleaseChecks","inputs":[{"name":"ranking","type":"uint256","internalType":"uint256"}],"outputs":[],"stateMutability":"view"},{"type":"function","name":"shares","inputs":[{"name":"","type":"uint256","internalType":"uint256"}],"outputs":[{"name":"","type":"uint256","internalType":"uint256"}],"stateMutability":"view"},{"type":"function","name":"totalReleased","inputs":[],"outputs":[{"name":"","type":"uint256","internalType":"uint256"}],"stateMutability":"view"},{"type":"function","name":"totalShares","inputs":[],"outputs":[{"name":"","type":"uint256","internalType":"uint256"}],"stateMutability":"view"},{"type":"function","name":"underlyingContest","inputs":[],"outputs":[{"name":"","type":"address","internalType":"contract GovernorCountingSimple"}],"stateMutability":"view"},{"type":"function","name":"version","inputs":[],"outputs":[{"name":"","type":"string","internalType":"string"}],"stateMutability":"pure"},{"type":"function","name":"withdrawRewards","inputs":[{"name":"token","type":"address","internalType":"contract IERC20"}],"outputs":[],"stateMutability":"nonpayable"},{"type":"function","name":"withdrawRewards","inputs":[],"outputs":[],"stateMutability":"nonpayable"},{"type":"event","name":"ERC20PaymentReleased","inputs":[{"name":"token","type":"address","indexed":true,"internalType":"contract IERC20"},{"name":"to","type":"address","indexed":false,"internalType":"address"},{"name":"amount","type":"uint256","indexed":false,"internalType":"uint256"}],"anonymous":false},{"type":"event","name":"ERC20RewardWithdrawn","inputs":[{"name":"token","type":"address","indexed":true,"internalType":"contract IERC20"},{"name":"by","type":"address","indexed":false,"internalType":"address"},{"name":"amount","type":"uint256","indexed":false,"internalType":"uint256"}],"anonymous":false},{"type":"event","name":"JokeraceRewardsModuleCreated","inputs":[{"name":"version","type":"string","indexed":false,"internalType":"string"},{"name":"underlyingContest","type":"address","indexed":false,"internalType":"address"}],"anonymous":false},{"type":"event","name":"PayeeAdded","inputs":[{"name":"ranking","type":"uint256","indexed":false,"internalType":"uint256"},{"name":"shares","type":"uint256","indexed":false,"internalType":"uint256"}],"anonymous":false},{"type":"event","name":"PaymentReceived","inputs":[{"name":"from","type":"address","indexed":false,"internalType":"address"},{"name":"amount","type":"uint256","indexed":false,"internalType":"uint256"}],"anonymous":false},{"type":"event","name":"PaymentReleased","inputs":[{"name":"to","type":"address","indexed":false,"internalType":"address"},{"name":"amount","type":"uint256","indexed":false,"internalType":"uint256"}],"anonymous":false},{"type":"event","name":"RewardWithdrawn","inputs":[{"name":"by","type":"address","indexed":false,"internalType":"address"},{"name":"amount","type":"uint256","indexed":false,"internalType":"uint256"}],"anonymous":false},{"type":"error","name":"AccountAlreadyHasShares","inputs":[]},{"type":"error","name":"AccountNotDueERC20Payment","inputs":[]},{"type":"error","name":"AccountNotDueNativePayment","inputs":[]},{"type":"error","name":"CannotPayOutToZeroAddress","inputs":[]},{"type":"error","name":"CannotReleaseCanceledModule","inputs":[]},{"type":"error","name":"ContestMustBeCompleted","inputs":[]},{"type":"error","name":"CreatorCanOnlyCancelBeforeFirstVote","inputs":[]},{"type":"error","name":"CreatorCannotWithdrawIfJkLabsCanceled","inputs":[]},{"type":"error","name":"JkLabsCanOnlyCancelAfterDelay","inputs":[]},{"type":"error","name":"ModuleAlreadyCanceled","inputs":[]},{"type":"error","name":"MustBeCanceledToWithdraw","inputs":[]},{"type":"error","name":"MustHaveAtLeastOnePayee","inputs":[]},{"type":"error","name":"MustHaveSortingEnabled","inputs":[]},{"type":"error","name":"OnlyCreatorOrJkLabsCanCancel","inputs":[]},{"type":"error","name":"OnlyCreatorOrJkLabsCanWithdraw","inputs":[]},{"type":"error","name":"PayeesSharesLengthMismatch","inputs":[]},{"type":"error","name":"PayoutRankCannotBeZero","inputs":[]},{"type":"error","name":"RankingCannotBeZero","inputs":[]},{"type":"error","name":"RankingHasNoShares","inputs":[]},{"type":"error","name":"SharesCannotBeZero","inputs":[]},{"type":"error","name":"TotalSharesCannotBeZero","inputs":[]}],"bytecode":{"object":"0x608060405262093a80600555604051620021ea380380620021ea8339810160408190526200002d916200035d565b825184511462000050576040516324e23b4160e01b815260040160405180910390fd5b83516000036200007357604051634c87c40160e01b815260040160405180910390fd5b60005b8451811015620000df57620000ca85828151811062000099576200009962000402565b6020026020010151858381518110620000b657620000b662000402565b6020026020010151620001a260201b60201c565b80620000d6816200042e565b91505062000076565b5060005460000362000104576040516306db759b60e21b815260040160405180910390fd5b60098054600880546001600160a01b0386166001600160a01b03199182168117909255841515600160a01b02166001600160a81b03199092169190911733179091556040805180820182526004815263352e313160e01b602082015290517fa662062e2d40c0f20e19ab134a030b70e07ff1fd98a93cf375bd3972c285a2c7926200019092916200044a565b60405180910390a150505050620004c8565b81600003620001c45760405163d6fbfe2560e01b815260040160405180910390fd5b80600003620001e657604051633122bc0960e21b815260040160405180910390fd5b600082815260026020526040902054156200021457604051637b4f7fb560e01b815260040160405180910390fd5b60048054600181019091557f8a35acfbc15ff81a39ae7d344fd709f28e8600b4aa8c65c6b64bfe7fe36bd19b0182905560008281526002602052604081208290555462000263908290620004ac565b60005560408051838152602081018390527f78bc0e219b874bf2620f7316737ec16d4bda1bb7136961e4dcb5ff0dc031cee4910160405180910390a15050565b634e487b7160e01b600052604160045260246000fd5b600082601f830112620002cb57600080fd5b815160206001600160401b0380831115620002ea57620002ea620002a3565b8260051b604051601f19603f83011681018181108482111715620003125762000312620002a3565b6040529384528581018301938381019250878511156200033157600080fd5b83870191505b84821015620003525781518352918301919083019062000337565b979650505050505050565b600080600080608085870312156200037457600080fd5b84516001600160401b03808211156200038c57600080fd5b6200039a88838901620002b9565b95506020870151915080821115620003b157600080fd5b50620003c087828801620002b9565b604087015190945090506001600160a01b0381168114620003e057600080fd5b60608601519092508015158114620003f757600080fd5b939692955090935050565b634e487b7160e01b600052603260045260246000fd5b634e487b7160e01b600052601160045260246000fd5b60006001820162000443576200044362000418565b5060010190565b604081526000835180604084015260005b818110156200047a57602081870181015160608684010152016200045b565b50600060608285018101919091526001600160a01b03949094166020840152601f01601f191690910190910192915050565b80820180821115620004c257620004c262000418565b92915050565b611d1280620004d86000396000f3fe6080604052600436106101a05760003560e01c806354fd4d50116100ec578063c71040461161008a578063e4bf01a811610064578063e4bf01a814610554578063ea8a1af014610574578063eef18e1714610589578063f3f44fb7146105b157600080fd5b8063c710404614610509578063c7b8981c14610529578063e33b7de31461053e57600080fd5b806363037b0c116100c657806363037b0c1461047e578063828ce44b1461049e57806396f7ff6e146104bc578063a94d373b146104dc57600080fd5b806354fd4d50146103e15780635775029f1461041757806357a858fc1461045157600080fd5b80633375bbdc116101595780633f9942ff116101335780633f9942ff1461034857806342d86693146103695780634b9453381461038957806351f63e35146103c157600080fd5b80633375bbdc146102e557806337bdc99b146103125780633a98ef391461033257600080fd5b806302d05d3f146101e45780630357371d14610221578063071fd35a146102435780631e5b4634146102745780632081d6311461029557806327f38113146102c357600080fd5b366101df57604080513381523460208201527f6ef95f06320e7a25a04a175ca677b7052bdd97131872c2192525a629f51be770910160405180910390a1005b600080fd5b3480156101f057600080fd5b50600954610204906001600160a01b031681565b6040516001600160a01b0390911681526020015b60405180910390f35b34801561022d57600080fd5b5061024161023c36600461162d565b6105d1565b005b34801561024f57600080fd5b5060095461026490600160b01b900460ff1681565b6040519015158152602001610218565b34801561028057600080fd5b5060095461026490600160a01b900460ff1681565b3480156102a157600080fd5b506102b56102b036600461162d565b6106e8565b604051908152602001610218565b3480156102cf57600080fd5b506102d86107aa565b6040516102189190611659565b3480156102f157600080fd5b506102b561030036600461169d565b60066020526000908152604090205481565b34801561031e57600080fd5b5061024161032d3660046116ba565b610802565b34801561033e57600080fd5b506102b560005481565b34801561035457600080fd5b5060095461026490600160a81b900460ff1681565b34801561037557600080fd5b5061024161038436600461169d565b6108e7565b34801561039557600080fd5b506102b56103a436600461162d565b600760209081526000928352604080842090915290825290205481565b3480156103cd57600080fd5b506102b56103dc3660046116ba565b610acc565b3480156103ed57600080fd5b50604080518082019091526004815263352e313160e01b60208201525b60405161021891906116f7565b34801561042357600080fd5b5061040a6040518060400160405280600e81526020016d415554484f525f5245574152445360901b81525081565b34801561045d57600080fd5b506102b561046c3660046116ba565b60026020526000908152604090205481565b34801561048a57600080fd5b506102b56104993660046116ba565b610ca1565b3480156104aa57600080fd5b506008546001600160a01b0316610204565b3480156104c857600080fd5b506102046104d73660046116ba565b610cc2565b3480156104e857600080fd5b506102b56104f73660046116ba565b60036020526000908152604090205481565b34801561051557600080fd5b506102416105243660046116ba565b610d87565b34801561053557600080fd5b50610241610f37565b34801561054a57600080fd5b506102b560015481565b34801561056057600080fd5b506102b561056f3660046116ba565b611038565b34801561058057600080fd5b50610241611070565b34801561059557600080fd5b5061020473dc652c746a8f85e18ce632d97c6118e8a52fa73881565b3480156105bd57600080fd5b50600854610204906001600160a01b031681565b6105da81610d87565b60006105e683836106e8565b90508060000361060957604051635fe559bd60e01b815260040160405180910390fd5b6001600160a01b03831660009081526006602052604081208054839290610631908490611740565b90915550506001600160a01b0383166000908152600760209081526040808320858452909152812080548301905561066883610cc2565b90506001600160a01b038116610691576040516346a3c2f960e01b815260040160405180910390fd5b604080516001600160a01b038381168252602082018590528616917f3be5b7a71e84ed12875d241991c70855ac5817d847039e17a9d895c1ceb0f18a910160405180910390a26106e284828461127e565b50505050565b6001600160a01b0382166000818152600660205260408082205490516370a0823160e01b8152306004820152919283926370a0823190602401602060405180830381865afa15801561073e573d6000803e3d6000fd5b505050506040513d601f19601f820116820180604052508101906107629190611753565b61076c9190611740565b6001600160a01b03851660009081526007602090815260408083208784529091529020549091506107a090849083906112d0565b9150505b92915050565b606060048054806020026020016040519081016040528092919081815260200182805480156107f857602002820191906000526020600020905b8154815260200190600101908083116107e4575b5050505050905090565b61080b81610d87565b600061081682611038565b90508060000361083957604051631d1514e960e21b815260040160405180910390fd5b806001600082825461084b9190611740565b9091555050600082815260036020526040812080548301905561086d83610cc2565b90506001600160a01b038116610896576040516346a3c2f960e01b815260040160405180910390fd5b604080516001600160a01b0383168152602081018490527fdf20fd1e76bc69d672e4814fafb2c449bba3a5369d8359adf9e05e6fde87b056910160405180910390a16108e28183611302565b505050565b6009546001600160a01b0316331480159061091657503373dc652c746a8f85e18ce632d97c6118e8a52fa73814155b15610934576040516365eea35560e11b815260040160405180910390fd5b600954600160a81b900460ff16151560011461096357604051633871a85960e21b815260040160405180910390fd5b6009546001600160a01b0316331480156109865750600954600160b01b900460ff165b156109a45760405163f7e8ac6f60e01b815260040160405180910390fd5b6040516370a0823160e01b81523060048201526001600160a01b038216907f6e5fc1cbd1629d9837bd657d23cf585bbc4e9127184972606cc4c0dd406f757290339083906370a0823190602401602060405180830381865afa158015610a0e573d6000803e3d6000fd5b505050506040513d601f19601f82011682018060405250810190610a329190611753565b604080516001600160a01b03909316835260208301919091520160405180910390a26040516370a0823160e01b8152306004820152610ac990829033906001600160a01b038316906370a0823190602401602060405180830381865afa158015610aa0573d6000803e3d6000fd5b505050506040513d601f19601f82011682018060405250810190610ac49190611753565b61127e565b50565b600854604051630b8e20fb60e31b815260048101839052600091829182916001600160a01b031690635c7107d890602401602060405180830381865afa158015610b1a573d6000803e3d6000fd5b505050506040513d601f19601f82011682018060405250810190610b3e9190611753565b60085460405163245d1de360e21b8152600481018390529192506001600160a01b031690639174778c90602401602060405180830381865afa158015610b88573d6000803e3d6000fd5b505050506040513d601f19601f82011682018060405250810190610bac9190611781565b15610bba5760009150610c9a565b60085460405163325cc6d960e01b8152600481018390526000916001600160a01b03169063325cc6d990602401602060405180830381865afa158015610c04573d6000803e3d6000fd5b505050506040513d601f19601f82011682018060405250810190610c289190611753565b60085460405163d576b81d60e01b8152600481018390529192506001600160a01b03169063d576b81d90602401602060405180830381865afa158015610c72573d6000803e3d6000fd5b505050506040513d601f19601f82011682018060405250810190610c969190611753565b9250505b5092915050565b60048181548110610cb157600080fd5b600091825260209091200154905081565b600080610cce83610acc565b905080600003610ceb5750506009546001600160a01b0316919050565b6008546040516318feeb1560e31b8152600481018390526000916001600160a01b03169063c7f758a890602401600060405180830381865afa158015610d35573d6000803e3d6000fd5b505050506040513d6000823e601f3d908101601f19168201604052610d5d9190810190611b54565b600954909150600160a01b900460ff16610d78578051610d7f565b6060810151515b949350505050565b600860009054906101000a90046001600160a01b03166001600160a01b031663366ecf5b6040518163ffffffff1660e01b8152600401602060405180830381865afa158015610dda573d6000803e3d6000fd5b505050506040513d601f19601f82011682018060405250810190610dfe9190611753565b600114610e1e57604051630fcdfffd60e41b815260040160405180910390fd5b6008546040805163c19d93fb60e01b815290516004926001600160a01b03169163c19d93fb918185019160209190819003860181865afa158015610e66573d6000803e3d6000fd5b505050506040513d601f19601f82011682018060405250810190610e8a9190611c53565b6004811115610e9b57610e9b611c3d565b14610eb957604051639c2d4c7960e01b815260040160405180910390fd5b80600003610eda5760405163f9668e2960e01b815260040160405180910390fd5b6000818152600260205260408120549003610f0857604051632534bdfb60e11b815260040160405180910390fd5b600954600160a81b900460ff161515600103610ac95760405163e2f87cff60e01b815260040160405180910390fd5b6009546001600160a01b03163314801590610f6657503373dc652c746a8f85e18ce632d97c6118e8a52fa73814155b15610f84576040516365eea35560e11b815260040160405180910390fd5b600954600160a81b900460ff161515600114610fb357604051633871a85960e21b815260040160405180910390fd5b6009546001600160a01b031633148015610fd65750600954600160b01b900460ff165b15610ff45760405163f7e8ac6f60e01b815260040160405180910390fd5b604080513381524760208201527f1d3eee4ca001cff39eec6ec7615aacf2f2bd61791273830728ba00ccbd6e1337910160405180910390a16110363347611302565b565b600080600154476110499190611740565b9050611069838260036000878152602001908152602001600020546112d0565b9392505050565b6009546001600160a01b0316331480159061109f57503373dc652c746a8f85e18ce632d97c6118e8a52fa73814155b156110bd57604051637601acaf60e11b815260040160405180910390fd5b600954600160a81b900460ff16156110e857604051638774100960e01b815260040160405180910390fd5b6009546001600160a01b0316331480156111775750600860009054906101000a90046001600160a01b03166001600160a01b0316637de418d56040518163ffffffff1660e01b8152600401602060405180830381865afa158015611150573d6000803e3d6000fd5b505050506040513d601f19601f820116820180604052508101906111749190611753565b15155b156111955760405163222e910560e01b815260040160405180910390fd5b73dc652c746a8f85e18ce632d97c6118e8a52fa73719330161126957600554600860009054906101000a90046001600160a01b03166001600160a01b031663262e59e96040518163ffffffff1660e01b8152600401602060405180830381865afa158015611207573d6000803e3d6000fd5b505050506040513d601f19601f8201168201806040525081019061122b9190611753565b6112359190611740565b4210156112555760405163f6cb8fdf60e01b815260040160405180910390fd5b6009805460ff60b01b1916600160b01b1790555b6009805460ff60a81b1916600160a81b179055565b604080516001600160a01b038416602482015260448082018490528251808303909101815260649091019091526020810180516001600160e01b031663a9059cbb60e01b1790526108e2908490611420565b60008054848252600260205260408220548391906112ee9086611c74565b6112f89190611c8b565b610d7f9190611cad565b804710156113575760405162461bcd60e51b815260206004820152601d60248201527f416464726573733a20696e73756666696369656e742062616c616e636500000060448201526064015b60405180910390fd5b6000826001600160a01b03168260405160006040518083038185875af1925050503d80600081146113a4576040519150601f19603f3d011682016040523d82523d6000602084013e6113a9565b606091505b50509050806108e25760405162461bcd60e51b815260206004820152603a60248201527f416464726573733a20756e61626c6520746f2073656e642076616c75652c207260448201527f6563697069656e74206d61792068617665207265766572746564000000000000606482015260840161134e565b6000611475826040518060400160405280602081526020017f5361666545524332303a206c6f772d6c6576656c2063616c6c206661696c6564815250856001600160a01b03166114f59092919063ffffffff16565b90508051600014806114965750808060200190518101906114969190611781565b6108e25760405162461bcd60e51b815260206004820152602a60248201527f5361666545524332303a204552433230206f7065726174696f6e20646964206e6044820152691bdd081cdd58d8d9595960b21b606482015260840161134e565b6060610d7f848460008585600080866001600160a01b0316858760405161151c9190611cc0565b60006040518083038185875af1925050503d8060008114611559576040519150601f19603f3d011682016040523d82523d6000602084013e61155e565b606091505b509150915061156f8783838761157a565b979650505050505050565b606083156115e95782516000036115e2576001600160a01b0385163b6115e25760405162461bcd60e51b815260206004820152601d60248201527f416464726573733a2063616c6c20746f206e6f6e2d636f6e7472616374000000604482015260640161134e565b5081610d7f565b610d7f83838151156115fe5781518083602001fd5b8060405162461bcd60e51b815260040161134e91906116f7565b6001600160a01b0381168114610ac957600080fd5b6000806040838503121561164057600080fd5b823561164b81611618565b946020939093013593505050565b6020808252825182820181905260009190848201906040850190845b8181101561169157835183529284019291840191600101611675565b50909695505050505050565b6000602082840312156116af57600080fd5b813561106981611618565b6000602082840312156116cc57600080fd5b5035919050565b60005b838110156116ee5781810151838201526020016116d6565b50506000910152565b60208152600082518060208401526117168160408501602087016116d3565b601f01601f19169190910160400192915050565b634e487b7160e01b600052601160045260246000fd5b808201808211156107a4576107a461172a565b60006020828403121561176557600080fd5b5051919050565b8051801515811461177c57600080fd5b919050565b60006020828403121561179357600080fd5b6110698261176c565b634e487b7160e01b600052604160045260246000fd5b6040516060810167ffffffffffffffff811182821017156117d5576117d561179c565b60405290565b60405160c0810167ffffffffffffffff811182821017156117d5576117d561179c565b604051601f8201601f1916810167ffffffffffffffff811182821017156118275761182761179c565b604052919050565b805161177c81611618565b600082601f83011261184b57600080fd5b815167ffffffffffffffff8111156118655761186561179c565b611878601f8201601f19166020016117fe565b81815284602083860101111561188d57600080fd5b610d7f8260208301602087016116d3565b6000602082840312156118b057600080fd5b6040516020810181811067ffffffffffffffff821117156118d3576118d361179c565b806040525080915082516118e681611618565b905292915050565b600067ffffffffffffffff8211156119085761190861179c565b5060051b60200190565b600082601f83011261192357600080fd5b81516020611938611933836118ee565b6117fe565b82815260059290921b8401810191818101908684111561195757600080fd5b8286015b8481101561197b57805161196e81611618565b835291830191830161195b565b509695505050505050565b60006040828403121561199857600080fd5b6040516040810167ffffffffffffffff82821081831117156119bc576119bc61179c565b8160405282935084519150808211156119d457600080fd5b506119e185828601611912565b825250602083015160208201525092915050565b600082601f830112611a0657600080fd5b81516020611a16611933836118ee565b82815260059290921b84018101918181019086841115611a3557600080fd5b8286015b8481101561197b5780518352918301918301611a39565b600060608284031215611a6257600080fd5b611a6a6117b2565b9050815167ffffffffffffffff80821115611a8457600080fd5b611a9085838601611912565b8352602091508184015181811115611aa757600080fd5b8401601f81018613611ab857600080fd5b8051611ac6611933826118ee565b81815260059190911b82018401908481019088831115611ae557600080fd5b8584015b83811015611b1d57805186811115611b015760008081fd5b611b0f8b898389010161183a565b845250918601918601611ae9565b508086880152505050506040840151915080821115611b3b57600080fd5b50611b48848285016119f5565b60408301525092915050565b600060208284031215611b6657600080fd5b815167ffffffffffffffff80821115611b7e57600080fd5b9083019060c08286031215611b9257600080fd5b611b9a6117db565b611ba38361182f565b8152611bb16020840161176c565b6020820152604083015182811115611bc857600080fd5b611bd48782860161183a565b604083015250611be7866060850161189e565b6060820152608083015182811115611bfe57600080fd5b611c0a87828601611986565b60808301525060a083015182811115611c2257600080fd5b611c2e87828601611a50565b60a08301525095945050505050565b634e487b7160e01b600052602160045260246000fd5b600060208284031215611c6557600080fd5b81516005811061106957600080fd5b80820281158282048414176107a4576107a461172a565b600082611ca857634e487b7160e01b600052601260045260246000fd5b500490565b818103818111156107a4576107a461172a565b60008251611cd28184602087016116d3565b919091019291505056fea26469706673582212200aad3115be8f0193e1accf9eb47568bb84c0530fd2f52cebee6353b2141e38f964736f6c63430008130033","linkReferences":{}},"methodIdentifiers":{"JK_LABS_ADDRESS()":"eef18e17","MODULE_TYPE()":"5775029f","cancel()":"ea8a1af0","canceled()":"3f9942ff","canceledByJkLabs()":"071fd35a","creator()":"02d05d3f","erc20Released(address,uint256)":"4b945338","erc20TotalReleased(address)":"3375bbdc","getAddressToPayOut(uint256)":"96f7ff6e","getPayees()":"27f38113","getProposalIdOfRanking(uint256)":"51f63e35","getUnderlyingContest()":"828ce44b","payees(uint256)":"63037b0c","paysOutTarget()":"1e5b4634","releasable(address,uint256)":"2081d631","releasable(uint256)":"e4bf01a8","release(address,uint256)":"0357371d","release(uint256)":"37bdc99b","released(uint256)":"a94d373b","runReleaseChecks(uint256)":"c7104046","shares(uint256)":"57a858fc","totalReleased()":"e33b7de3","totalShares()":"3a98ef39","underlyingContest()":"f3f44fb7","version()":"54fd4d50","withdrawRewards()":"c7b8981c","withdrawRewards(address)":"42d86693"},"id":60}