{
  "abi": [
    {
      "inputs": [
        {
          "internalType": "string",
          "name": "_name",
          "type": "string"
        },
        {
          "internalType": "string",
          "name": "_prompt",
          "type": "string"
        },
        {
          "internalType": "bytes32",
          "name": "_submissionMerkleRoot",
          "type": "bytes32"
        },
        {
          "internalType": "bytes32",
          "name": "_votingMerkleRoot",
          "type": "bytes32"
        },
        {
          "internalType": "uint256[]",
          "name": "_constructorIntParams",
          "type": "uint256[]"
        }
      ],
      "stateMutability": "nonpayable",
      "type": "constructor"
    },
    {
      "inputs": [],
      "name": "InvalidShortString",
      "type": "error"
    },
    {
      "inputs": [],
      "name": "NotInMerkle",
      "type": "error"
    },
    {
      "inputs": [
        {
          "internalType": "string",
          "name": "str",
          "type": "string"
        }
      ],
      "name": "StringTooLong",
      "type": "error"
    },
    {
      "inputs": [],
      "name": "TooManyMetadatas",
      "type": "error"
    },
    {
      "anonymous": false,
      "inputs": [
        {
          "indexed": false,
          "internalType": "uint256",
          "name": "commentId",
          "type": "uint256"
        }
      ],
      "name": "CommentCreated",
      "type": "event"
    },
    {
      "anonymous": false,
      "inputs": [
        {
          "indexed": false,
          "internalType": "uint256[]",
          "name": "commentIds",
          "type": "uint256[]"
        }
      ],
      "name": "CommentsDeleted",
      "type": "event"
    },
    {
      "anonymous": false,
      "inputs": [],
      "name": "ContestCanceled",
      "type": "event"
    },
    {
      "anonymous": false,
      "inputs": [
        {
          "indexed": false,
          "internalType": "uint256",
          "name": "oldContestStart",
          "type": "uint256"
        },
        {
          "indexed": false,
          "internalType": "uint256",
          "name": "newContestStart",
          "type": "uint256"
        }
      ],
      "name": "ContestStartSet",
      "type": "event"
    },
    {
      "anonymous": false,
      "inputs": [
        {
          "indexed": false,
          "internalType": "address",
          "name": "oldCreator",
          "type": "address"
        },
        {
          "indexed": false,
          "internalType": "address",
          "name": "newCreator",
          "type": "address"
        }
      ],
      "name": "CreatorSet",
      "type": "event"
    },
    {
      "anonymous": false,
      "inputs": [
        {
          "indexed": false,
          "internalType": "uint256",
          "name": "oldDownvotingAllowed",
          "type": "uint256"
        },
        {
          "indexed": false,
          "internalType": "uint256",
          "name": "newDownvotingAllowed",
          "type": "uint256"
        }
      ],
      "name": "DownvotingAllowedSet",
      "type": "event"
    },
    {
      "anonymous": false,
      "inputs": [],
      "name": "EIP712DomainChanged",
      "type": "event"
    },
    {
      "anonymous": false,
      "inputs": [
        {
          "indexed": false,
          "internalType": "uint256",
          "name": "oldMaxProposalCount",
          "type": "uint256"
        },
        {
          "indexed": false,
          "internalType": "uint256",
          "name": "newMaxProposalCount",
          "type": "uint256"
        }
      ],
      "name": "MaxProposalCountSet",
      "type": "event"
    },
    {
      "anonymous": false,
      "inputs": [
        {
          "indexed": false,
          "internalType": "uint256",
          "name": "oldNumAllowedProposalSubmissions",
          "type": "uint256"
        },
        {
          "indexed": false,
          "internalType": "uint256",
          "name": "newNumAllowedProposalSubmissions",
          "type": "uint256"
        }
      ],
      "name": "NumAllowedProposalSubmissionsSet",
      "type": "event"
    },
    {
      "anonymous": false,
      "inputs": [
        {
          "indexed": false,
          "internalType": "contract RewardsModule",
          "name": "oldOfficialRewardsModule",
          "type": "address"
        },
        {
          "indexed": false,
          "internalType": "contract RewardsModule",
          "name": "newOfficialRewardsModule",
          "type": "address"
        }
      ],
      "name": "OfficialRewardsModuleSet",
      "type": "event"
    },
    {
      "anonymous": false,
      "inputs": [
        {
          "indexed": false,
          "internalType": "uint256",
          "name": "proposalId",
          "type": "uint256"
        },
        {
          "indexed": false,
          "internalType": "address",
          "name": "proposer",
          "type": "address"
        }
      ],
      "name": "ProposalCreated",
      "type": "event"
    },
    {
      "anonymous": false,
      "inputs": [
        {
          "indexed": false,
          "internalType": "uint256[]",
          "name": "proposalIds",
          "type": "uint256[]"
        }
      ],
      "name": "ProposalsDeleted",
      "type": "event"
    },
    {
      "anonymous": false,
      "inputs": [
        {
          "indexed": true,
          "internalType": "address",
          "name": "voter",
          "type": "address"
        },
        {
          "indexed": false,
          "internalType": "uint256",
          "name": "proposalId",
          "type": "uint256"
        },
        {
          "indexed": false,
          "internalType": "uint8",
          "name": "support",
          "type": "uint8"
        },
        {
          "indexed": false,
          "internalType": "uint256",
          "name": "numVotes",
          "type": "uint256"
        },
        {
          "indexed": false,
          "internalType": "string",
          "name": "reason",
          "type": "string"
        }
      ],
      "name": "VoteCast",
      "type": "event"
    },
    {
      "anonymous": false,
      "inputs": [
        {
          "indexed": false,
          "internalType": "uint256",
          "name": "oldVotingDelay",
          "type": "uint256"
        },
        {
          "indexed": false,
          "internalType": "uint256",
          "name": "newVotingDelay",
          "type": "uint256"
        }
      ],
      "name": "VotingDelaySet",
      "type": "event"
    },
    {
      "anonymous": false,
      "inputs": [
        {
          "indexed": false,
          "internalType": "uint256",
          "name": "oldVotingPeriod",
          "type": "uint256"
        },
        {
          "indexed": false,
          "internalType": "uint256",
          "name": "newVotingPeriod",
          "type": "uint256"
        }
      ],
      "name": "VotingPeriodSet",
      "type": "event"
    },
    {
      "inputs": [],
      "name": "AMOUNT_FOR_SUMBITTER_PROOF",
      "outputs": [
        {
          "internalType": "uint256",
          "name": "",
          "type": "uint256"
        }
      ],
      "stateMutability": "view",
      "type": "function"
    },
    {
      "inputs": [],
      "name": "BALLOT_TYPEHASH",
      "outputs": [
        {
          "internalType": "bytes32",
          "name": "",
          "type": "bytes32"
        }
      ],
      "stateMutability": "view",
      "type": "function"
    },
    {
      "inputs": [],
      "name": "COUNTING_MODE",
      "outputs": [
        {
          "internalType": "string",
          "name": "",
          "type": "string"
        }
      ],
      "stateMutability": "pure",
      "type": "function"
    },
    {
      "inputs": [],
      "name": "METADATAS_COUNT",
      "outputs": [
        {
          "internalType": "uint256",
          "name": "",
          "type": "uint256"
        }
      ],
      "stateMutability": "view",
      "type": "function"
    },
    {
      "inputs": [
        {
          "internalType": "address",
          "name": "",
          "type": "address"
        }
      ],
      "name": "addressSubmitterVerified",
      "outputs": [
        {
          "internalType": "bool",
          "name": "",
          "type": "bool"
        }
      ],
      "stateMutability": "view",
      "type": "function"
    },
    {
      "inputs": [
        {
          "internalType": "address",
          "name": "",
          "type": "address"
        }
      ],
      "name": "addressTotalCastVoteCounts",
      "outputs": [
        {
          "internalType": "uint256",
          "name": "",
          "type": "uint256"
        }
      ],
      "stateMutability": "view",
      "type": "function"
    },
    {
      "inputs": [
        {
          "internalType": "address",
          "name": "",
          "type": "address"
        }
      ],
      "name": "addressTotalVotes",
      "outputs": [
        {
          "internalType": "uint256",
          "name": "",
          "type": "uint256"
        }
      ],
      "stateMutability": "view",
      "type": "function"
    },
    {
      "inputs": [
        {
          "internalType": "address",
          "name": "",
          "type": "address"
        }
      ],
      "name": "addressTotalVotesVerified",
      "outputs": [
        {
          "internalType": "bool",
          "name": "",
          "type": "bool"
        }
      ],
      "stateMutability": "view",
      "type": "function"
    },
    {
      "inputs": [],
      "name": "allProposalTotalVotes",
      "outputs": [
        {
          "internalType": "uint256[]",
          "name": "proposalIdsReturn",
          "type": "uint256[]"
        },
        {
          "components": [
            {
              "internalType": "uint256",
              "name": "forVotes",
              "type": "uint256"
            },
            {
              "internalType": "uint256",
              "name": "againstVotes",
              "type": "uint256"
            }
          ],
          "internalType": "struct GovernorCountingSimple.VoteCounts[]",
          "name": "proposalVoteCountsArrayReturn",
          "type": "tuple[]"
        }
      ],
      "stateMutability": "view",
      "type": "function"
    },
    {
      "inputs": [],
      "name": "allProposalTotalVotesWithoutDeleted",
      "outputs": [
        {
          "internalType": "uint256[]",
          "name": "proposalIdsReturn",
          "type": "uint256[]"
        },
        {
          "components": [
            {
              "internalType": "uint256",
              "name": "forVotes",
              "type": "uint256"
            },
            {
              "internalType": "uint256",
              "name": "againstVotes",
              "type": "uint256"
            }
          ],
          "internalType": "struct GovernorCountingSimple.VoteCounts[]",
          "name": "proposalVoteCountsArrayReturn",
          "type": "tuple[]"
        }
      ],
      "stateMutability": "view",
      "type": "function"
    },
    {
      "inputs": [],
      "name": "cancel",
      "outputs": [],
      "stateMutability": "nonpayable",
      "type": "function"
    },
    {
      "inputs": [
        {
          "internalType": "uint256",
          "name": "proposalId",
          "type": "uint256"
        },
        {
          "internalType": "uint8",
          "name": "support",
          "type": "uint8"
        },
        {
          "internalType": "uint256",
          "name": "totalVotes",
          "type": "uint256"
        },
        {
          "internalType": "uint256",
          "name": "numVotes",
          "type": "uint256"
        },
        {
          "internalType": "bytes32[]",
          "name": "proof",
          "type": "bytes32[]"
        }
      ],
      "name": "castVote",
      "outputs": [
        {
          "internalType": "uint256",
          "name": "",
          "type": "uint256"
        }
      ],
      "stateMutability": "nonpayable",
      "type": "function"
    },
    {
      "inputs": [
        {
          "internalType": "uint256",
          "name": "proposalId",
          "type": "uint256"
        },
        {
          "internalType": "uint8",
          "name": "support",
          "type": "uint8"
        },
        {
          "internalType": "uint256",
          "name": "numVotes",
          "type": "uint256"
        }
      ],
      "name": "castVoteWithoutProof",
      "outputs": [
        {
          "internalType": "uint256",
          "name": "",
          "type": "uint256"
        }
      ],
      "stateMutability": "nonpayable",
      "type": "function"
    },
    {
      "inputs": [
        {
          "internalType": "address",
          "name": "addressToCheck",
          "type": "address"
        },
        {
          "internalType": "uint256",
          "name": "amount",
          "type": "uint256"
        },
        {
          "internalType": "bytes32[]",
          "name": "proof",
          "type": "bytes32[]"
        },
        {
          "internalType": "bool",
          "name": "voting",
          "type": "bool"
        }
      ],
      "name": "checkProof",
      "outputs": [
        {
          "internalType": "bool",
          "name": "verified",
          "type": "bool"
        }
      ],
      "stateMutability": "view",
      "type": "function"
    },
    {
      "inputs": [
        {
          "internalType": "uint256",
          "name": "proposalId",
          "type": "uint256"
        },
        {
          "internalType": "string",
          "name": "commentContent",
          "type": "string"
        }
      ],
      "name": "comment",
      "outputs": [
        {
          "internalType": "uint256",
          "name": "",
          "type": "uint256"
        }
      ],
      "stateMutability": "nonpayable",
      "type": "function"
    },
    {
      "inputs": [
        {
          "internalType": "uint256",
          "name": "",
          "type": "uint256"
        }
      ],
      "name": "commentIds",
      "outputs": [
        {
          "internalType": "uint256",
          "name": "",
          "type": "uint256"
        }
      ],
      "stateMutability": "view",
      "type": "function"
    },
    {
      "inputs": [
        {
          "internalType": "uint256",
          "name": "",
          "type": "uint256"
        }
      ],
      "name": "comments",
      "outputs": [
        {
          "internalType": "address",
          "name": "author",
          "type": "address"
        },
        {
          "internalType": "uint256",
          "name": "timestamp",
          "type": "uint256"
        },
        {
          "internalType": "uint256",
          "name": "proposalId",
          "type": "uint256"
        },
        {
          "internalType": "string",
          "name": "commentContent",
          "type": "string"
        }
      ],
      "stateMutability": "view",
      "type": "function"
    },
    {
      "inputs": [
        {
          "internalType": "address",
          "name": "userAddress",
          "type": "address"
        }
      ],
      "name": "contestAddressTotalVotesCast",
      "outputs": [
        {
          "internalType": "uint256",
          "name": "totalVotesCast",
          "type": "uint256"
        }
      ],
      "stateMutability": "view",
      "type": "function"
    },
    {
      "inputs": [],
      "name": "contestDeadline",
      "outputs": [
        {
          "internalType": "uint256",
          "name": "",
          "type": "uint256"
        }
      ],
      "stateMutability": "view",
      "type": "function"
    },
    {
      "inputs": [],
      "name": "contestStart",
      "outputs": [
        {
          "internalType": "uint256",
          "name": "",
          "type": "uint256"
        }
      ],
      "stateMutability": "view",
      "type": "function"
    },
    {
      "inputs": [],
      "name": "creator",
      "outputs": [
        {
          "internalType": "address",
          "name": "",
          "type": "address"
        }
      ],
      "stateMutability": "view",
      "type": "function"
    },
    {
      "inputs": [
        {
          "internalType": "uint256[]",
          "name": "commentIdsParam",
          "type": "uint256[]"
        }
      ],
      "name": "deleteComments",
      "outputs": [],
      "stateMutability": "nonpayable",
      "type": "function"
    },
    {
      "inputs": [
        {
          "internalType": "uint256[]",
          "name": "proposalIds",
          "type": "uint256[]"
        }
      ],
      "name": "deleteProposals",
      "outputs": [],
      "stateMutability": "nonpayable",
      "type": "function"
    },
    {
      "inputs": [
        {
          "internalType": "uint256",
          "name": "",
          "type": "uint256"
        }
      ],
      "name": "deletedCommentIds",
      "outputs": [
        {
          "internalType": "bool",
          "name": "",
          "type": "bool"
        }
      ],
      "stateMutability": "view",
      "type": "function"
    },
    {
      "inputs": [],
      "name": "downvotingAllowed",
      "outputs": [
        {
          "internalType": "uint256",
          "name": "",
          "type": "uint256"
        }
      ],
      "stateMutability": "view",
      "type": "function"
    },
    {
      "inputs": [],
      "name": "eip712Domain",
      "outputs": [
        {
          "internalType": "bytes1",
          "name": "fields",
          "type": "bytes1"
        },
        {
          "internalType": "string",
          "name": "name",
          "type": "string"
        },
        {
          "internalType": "string",
          "name": "version",
          "type": "string"
        },
        {
          "internalType": "uint256",
          "name": "chainId",
          "type": "uint256"
        },
        {
          "internalType": "address",
          "name": "verifyingContract",
          "type": "address"
        },
        {
          "internalType": "bytes32",
          "name": "salt",
          "type": "bytes32"
        },
        {
          "internalType": "uint256[]",
          "name": "extensions",
          "type": "uint256[]"
        }
      ],
      "stateMutability": "view",
      "type": "function"
    },
    {
      "inputs": [],
      "name": "getAllProposalIds",
      "outputs": [
        {
          "internalType": "uint256[]",
          "name": "",
          "type": "uint256[]"
        }
      ],
      "stateMutability": "view",
      "type": "function"
    },
    {
      "inputs": [
        {
          "internalType": "address",
          "name": "account",
          "type": "address"
        }
      ],
      "name": "getNumSubmissions",
      "outputs": [
        {
          "internalType": "uint256",
          "name": "",
          "type": "uint256"
        }
      ],
      "stateMutability": "view",
      "type": "function"
    },
    {
      "inputs": [
        {
          "internalType": "uint256",
          "name": "proposalId",
          "type": "uint256"
        }
      ],
      "name": "getProposal",
      "outputs": [
        {
          "components": [
            {
              "internalType": "address",
              "name": "author",
              "type": "address"
            },
            {
              "internalType": "bool",
              "name": "exists",
              "type": "bool"
            },
            {
              "internalType": "string",
              "name": "description",
              "type": "string"
            },
            {
              "components": [
                {
                  "internalType": "address",
                  "name": "targetAddress",
                  "type": "address"
                }
              ],
              "internalType": "struct IGovernor.TargetMetadata",
              "name": "targetMetadata",
              "type": "tuple"
            },
            {
              "components": [
                {
                  "internalType": "address[]",
                  "name": "signers",
                  "type": "address[]"
                },
                {
                  "internalType": "uint256",
                  "name": "threshold",
                  "type": "uint256"
                }
              ],
              "internalType": "struct IGovernor.SafeMetadata",
              "name": "safeMetadata",
              "type": "tuple"
            }
          ],
          "internalType": "struct IGovernor.ProposalCore",
          "name": "",
          "type": "tuple"
        }
      ],
      "stateMutability": "view",
      "type": "function"
    },
    {
      "inputs": [
        {
          "components": [
            {
              "internalType": "address",
              "name": "author",
              "type": "address"
            },
            {
              "internalType": "uint256",
              "name": "timestamp",
              "type": "uint256"
            },
            {
              "internalType": "uint256",
              "name": "proposalId",
              "type": "uint256"
            },
            {
              "internalType": "string",
              "name": "commentContent",
              "type": "string"
            }
          ],
          "internalType": "struct IGovernor.CommentCore",
          "name": "commentObj",
          "type": "tuple"
        }
      ],
      "name": "hashComment",
      "outputs": [
        {
          "internalType": "uint256",
          "name": "",
          "type": "uint256"
        }
      ],
      "stateMutability": "pure",
      "type": "function"
    },
    {
      "inputs": [
        {
          "components": [
            {
              "internalType": "address",
              "name": "author",
              "type": "address"
            },
            {
              "internalType": "bool",
              "name": "exists",
              "type": "bool"
            },
            {
              "internalType": "string",
              "name": "description",
              "type": "string"
            },
            {
              "components": [
                {
                  "internalType": "address",
                  "name": "targetAddress",
                  "type": "address"
                }
              ],
              "internalType": "struct IGovernor.TargetMetadata",
              "name": "targetMetadata",
              "type": "tuple"
            },
            {
              "components": [
                {
                  "internalType": "address[]",
                  "name": "signers",
                  "type": "address[]"
                },
                {
                  "internalType": "uint256",
                  "name": "threshold",
                  "type": "uint256"
                }
              ],
              "internalType": "struct IGovernor.SafeMetadata",
              "name": "safeMetadata",
              "type": "tuple"
            }
          ],
          "internalType": "struct IGovernor.ProposalCore",
          "name": "proposal",
          "type": "tuple"
        }
      ],
      "name": "hashProposal",
      "outputs": [
        {
          "internalType": "uint256",
          "name": "",
          "type": "uint256"
        }
      ],
      "stateMutability": "pure",
      "type": "function"
    },
    {
      "inputs": [],
      "name": "highestTiedRanking",
      "outputs": [
        {
          "internalType": "uint256",
          "name": "",
          "type": "uint256"
        }
      ],
      "stateMutability": "view",
      "type": "function"
    },
    {
      "inputs": [
        {
          "internalType": "uint256",
          "name": "commentId",
          "type": "uint256"
        }
      ],
      "name": "isCommentDeleted",
      "outputs": [
        {
          "internalType": "bool",
          "name": "",
          "type": "bool"
        }
      ],
      "stateMutability": "view",
      "type": "function"
    },
    {
      "inputs": [
        {
          "internalType": "uint256",
          "name": "proposalId",
          "type": "uint256"
        }
      ],
      "name": "isProposalDeleted",
      "outputs": [
        {
          "internalType": "uint256",
          "name": "",
          "type": "uint256"
        }
      ],
      "stateMutability": "view",
      "type": "function"
    },
    {
      "inputs": [
        {
          "internalType": "uint256",
          "name": "ranking",
          "type": "uint256"
        }
      ],
      "name": "isTied",
      "outputs": [
        {
          "internalType": "bool",
          "name": "",
          "type": "bool"
        }
      ],
      "stateMutability": "view",
      "type": "function"
    },
    {
      "inputs": [],
      "name": "lowestRanking",
      "outputs": [
        {
          "internalType": "uint256",
          "name": "",
          "type": "uint256"
        }
      ],
      "stateMutability": "view",
      "type": "function"
    },
    {
      "inputs": [],
      "name": "maxProposalCount",
      "outputs": [
        {
          "internalType": "uint256",
          "name": "",
          "type": "uint256"
        }
      ],
      "stateMutability": "view",
      "type": "function"
    },
    {
      "inputs": [],
      "name": "name",
      "outputs": [
        {
          "internalType": "string",
          "name": "",
          "type": "string"
        }
      ],
      "stateMutability": "view",
      "type": "function"
    },
    {
      "inputs": [],
      "name": "numAllowedProposalSubmissions",
      "outputs": [
        {
          "internalType": "uint256",
          "name": "",
          "type": "uint256"
        }
      ],
      "stateMutability": "view",
      "type": "function"
    },
    {
      "inputs": [],
      "name": "officialRewardsModule",
      "outputs": [
        {
          "internalType": "contract RewardsModule",
          "name": "",
          "type": "address"
        }
      ],
      "stateMutability": "view",
      "type": "function"
    },
    {
      "inputs": [],
      "name": "prompt",
      "outputs": [
        {
          "internalType": "string",
          "name": "",
          "type": "string"
        }
      ],
      "stateMutability": "view",
      "type": "function"
    },
    {
      "inputs": [
        {
          "internalType": "uint256",
          "name": "proposalId",
          "type": "uint256"
        },
        {
          "internalType": "address",
          "name": "userAddress",
          "type": "address"
        }
      ],
      "name": "proposalAddressVotes",
      "outputs": [
        {
          "internalType": "uint256",
          "name": "forVotes",
          "type": "uint256"
        },
        {
          "internalType": "uint256",
          "name": "againstVotes",
          "type": "uint256"
        }
      ],
      "stateMutability": "view",
      "type": "function"
    },
    {
      "inputs": [
        {
          "internalType": "uint256",
          "name": "proposalId",
          "type": "uint256"
        }
      ],
      "name": "proposalAddressesHaveVoted",
      "outputs": [
        {
          "internalType": "address[]",
          "name": "",
          "type": "address[]"
        }
      ],
      "stateMutability": "view",
      "type": "function"
    },
    {
      "inputs": [
        {
          "internalType": "uint256",
          "name": "",
          "type": "uint256"
        },
        {
          "internalType": "uint256",
          "name": "",
          "type": "uint256"
        }
      ],
      "name": "proposalComments",
      "outputs": [
        {
          "internalType": "uint256",
          "name": "",
          "type": "uint256"
        }
      ],
      "stateMutability": "view",
      "type": "function"
    },
    {
      "inputs": [
        {
          "internalType": "uint256",
          "name": "proposalId",
          "type": "uint256"
        }
      ],
      "name": "proposalVotes",
      "outputs": [
        {
          "internalType": "uint256",
          "name": "forVotes",
          "type": "uint256"
        },
        {
          "internalType": "uint256",
          "name": "againstVotes",
          "type": "uint256"
        }
      ],
      "stateMutability": "view",
      "type": "function"
    },
    {
      "inputs": [
        {
          "internalType": "uint256",
          "name": "",
          "type": "uint256"
        }
      ],
      "name": "proposalVotesStructs",
      "outputs": [
        {
          "components": [
            {
              "internalType": "uint256",
              "name": "forVotes",
              "type": "uint256"
            },
            {
              "internalType": "uint256",
              "name": "againstVotes",
              "type": "uint256"
            }
          ],
          "internalType": "struct GovernorCountingSimple.VoteCounts",
          "name": "proposalVoteCounts",
          "type": "tuple"
        }
      ],
      "stateMutability": "view",
      "type": "function"
    },
    {
      "inputs": [
        {
          "components": [
            {
              "internalType": "address",
              "name": "author",
              "type": "address"
            },
            {
              "internalType": "bool",
              "name": "exists",
              "type": "bool"
            },
            {
              "internalType": "string",
              "name": "description",
              "type": "string"
            },
            {
              "components": [
                {
                  "internalType": "address",
                  "name": "targetAddress",
                  "type": "address"
                }
              ],
              "internalType": "struct IGovernor.TargetMetadata",
              "name": "targetMetadata",
              "type": "tuple"
            },
            {
              "components": [
                {
                  "internalType": "address[]",
                  "name": "signers",
                  "type": "address[]"
                },
                {
                  "internalType": "uint256",
                  "name": "threshold",
                  "type": "uint256"
                }
              ],
              "internalType": "struct IGovernor.SafeMetadata",
              "name": "safeMetadata",
              "type": "tuple"
            }
          ],
          "internalType": "struct IGovernor.ProposalCore",
          "name": "proposal",
          "type": "tuple"
        },
        {
          "internalType": "bytes32[]",
          "name": "proof",
          "type": "bytes32[]"
        }
      ],
      "name": "propose",
      "outputs": [
        {
          "internalType": "uint256",
          "name": "",
          "type": "uint256"
        }
      ],
      "stateMutability": "nonpayable",
      "type": "function"
    },
    {
      "inputs": [
        {
          "components": [
            {
              "internalType": "address",
              "name": "author",
              "type": "address"
            },
            {
              "internalType": "bool",
              "name": "exists",
              "type": "bool"
            },
            {
              "internalType": "string",
              "name": "description",
              "type": "string"
            },
            {
              "components": [
                {
                  "internalType": "address",
                  "name": "targetAddress",
                  "type": "address"
                }
              ],
              "internalType": "struct IGovernor.TargetMetadata",
              "name": "targetMetadata",
              "type": "tuple"
            },
            {
              "components": [
                {
                  "internalType": "address[]",
                  "name": "signers",
                  "type": "address[]"
                },
                {
                  "internalType": "uint256",
                  "name": "threshold",
                  "type": "uint256"
                }
              ],
              "internalType": "struct IGovernor.SafeMetadata",
              "name": "safeMetadata",
              "type": "tuple"
            }
          ],
          "internalType": "struct IGovernor.ProposalCore",
          "name": "proposal",
          "type": "tuple"
        }
      ],
      "name": "proposeWithoutProof",
      "outputs": [
        {
          "internalType": "uint256",
          "name": "",
          "type": "uint256"
        }
      ],
      "stateMutability": "nonpayable",
      "type": "function"
    },
    {
      "inputs": [
        {
          "internalType": "uint256",
          "name": "ranking",
          "type": "uint256"
        }
      ],
      "name": "rankingPosition",
      "outputs": [
        {
          "internalType": "uint256",
          "name": "",
          "type": "uint256"
        }
      ],
      "stateMutability": "view",
      "type": "function"
    },
    {
      "inputs": [
        {
          "internalType": "contract RewardsModule",
          "name": "officialRewardsModule_",
          "type": "address"
        }
      ],
      "name": "setOfficialRewardsModule",
      "outputs": [],
      "stateMutability": "nonpayable",
      "type": "function"
    },
    {
      "inputs": [],
      "name": "setSortedAndTiedProposals",
      "outputs": [],
      "stateMutability": "nonpayable",
      "type": "function"
    },
    {
      "inputs": [],
      "name": "setSortedAndTiedProposalsHasBeenRun",
      "outputs": [
        {
          "internalType": "bool",
          "name": "",
          "type": "bool"
        }
      ],
      "stateMutability": "view",
      "type": "function"
    },
    {
      "inputs": [],
      "name": "sortedProposalIds",
      "outputs": [
        {
          "internalType": "uint256[]",
          "name": "",
          "type": "uint256[]"
        }
      ],
      "stateMutability": "view",
      "type": "function"
    },
    {
      "inputs": [
        {
          "internalType": "bool",
          "name": "excludeDeletedProposals",
          "type": "bool"
        }
      ],
      "name": "sortedProposals",
      "outputs": [
        {
          "internalType": "uint256[]",
          "name": "sortedProposalIdsReturn",
          "type": "uint256[]"
        }
      ],
      "stateMutability": "view",
      "type": "function"
    },
    {
      "inputs": [],
      "name": "state",
      "outputs": [
        {
          "internalType": "enum IGovernor.ContestState",
          "name": "",
          "type": "uint8"
        }
      ],
      "stateMutability": "view",
      "type": "function"
    },
    {
      "inputs": [],
      "name": "submissionMerkleRoot",
      "outputs": [
        {
          "internalType": "bytes32",
          "name": "",
          "type": "bytes32"
        }
      ],
      "stateMutability": "view",
      "type": "function"
    },
    {
      "inputs": [
        {
          "internalType": "bytes4",
          "name": "interfaceId",
          "type": "bytes4"
        }
      ],
      "name": "supportsInterface",
      "outputs": [
        {
          "internalType": "bool",
          "name": "",
          "type": "bool"
        }
      ],
      "stateMutability": "view",
      "type": "function"
    },
    {
      "inputs": [
        {
          "internalType": "uint256",
          "name": "",
          "type": "uint256"
        }
      ],
      "name": "tiedAdjustedRankingPosition",
      "outputs": [
        {
          "internalType": "uint256",
          "name": "",
          "type": "uint256"
        }
      ],
      "stateMutability": "view",
      "type": "function"
    },
    {
      "inputs": [
        {
          "components": [
            {
              "internalType": "address",
              "name": "author",
              "type": "address"
            },
            {
              "internalType": "bool",
              "name": "exists",
              "type": "bool"
            },
            {
              "internalType": "string",
              "name": "description",
              "type": "string"
            },
            {
              "components": [
                {
                  "internalType": "address",
                  "name": "targetAddress",
                  "type": "address"
                }
              ],
              "internalType": "struct IGovernor.TargetMetadata",
              "name": "targetMetadata",
              "type": "tuple"
            },
            {
              "components": [
                {
                  "internalType": "address[]",
                  "name": "signers",
                  "type": "address[]"
                },
                {
                  "internalType": "uint256",
                  "name": "threshold",
                  "type": "uint256"
                }
              ],
              "internalType": "struct IGovernor.SafeMetadata",
              "name": "safeMetadata",
              "type": "tuple"
            }
          ],
          "internalType": "struct IGovernor.ProposalCore",
          "name": "proposal",
          "type": "tuple"
        }
      ],
      "name": "validateProposalData",
      "outputs": [
        {
          "internalType": "bool",
          "name": "dataValidated",
          "type": "bool"
        }
      ],
      "stateMutability": "nonpayable",
      "type": "function"
    },
    {
      "inputs": [
        {
          "internalType": "address",
          "name": "account",
          "type": "address"
        },
        {
          "internalType": "bytes32[]",
          "name": "proof",
          "type": "bytes32[]"
        }
      ],
      "name": "verifyProposer",
      "outputs": [
        {
          "internalType": "bool",
          "name": "verified",
          "type": "bool"
        }
      ],
      "stateMutability": "nonpayable",
      "type": "function"
    },
    {
      "inputs": [
        {
          "internalType": "address",
          "name": "account",
          "type": "address"
        },
        {
          "internalType": "uint256",
          "name": "totalVotes",
          "type": "uint256"
        },
        {
          "internalType": "bytes32[]",
          "name": "proof",
          "type": "bytes32[]"
        }
      ],
      "name": "verifyVoter",
      "outputs": [
        {
          "internalType": "bool",
          "name": "verified",
          "type": "bool"
        }
      ],
      "stateMutability": "nonpayable",
      "type": "function"
    },
    {
      "inputs": [],
      "name": "version",
      "outputs": [
        {
          "internalType": "string",
          "name": "",
          "type": "string"
        }
      ],
      "stateMutability": "view",
      "type": "function"
    },
    {
      "inputs": [],
      "name": "voteStart",
      "outputs": [
        {
          "internalType": "uint256",
          "name": "",
          "type": "uint256"
        }
      ],
      "stateMutability": "view",
      "type": "function"
    },
    {
      "inputs": [],
      "name": "votingDelay",
      "outputs": [
        {
          "internalType": "uint256",
          "name": "",
          "type": "uint256"
        }
      ],
      "stateMutability": "view",
      "type": "function"
    },
    {
      "inputs": [],
      "name": "votingMerkleRoot",
      "outputs": [
        {
          "internalType": "bytes32",
          "name": "",
          "type": "bytes32"
        }
      ],
      "stateMutability": "view",
      "type": "function"
    },
    {
      "inputs": [],
      "name": "votingPeriod",
      "outputs": [
        {
          "internalType": "uint256",
          "name": "",
          "type": "uint256"
        }
      ],
      "stateMutability": "view",
      "type": "function"
    },
    {
      "stateMutability": "payable",
      "type": "receive"
    }
  ],
  "bytecode": {
    "object": "0x6101a06040526019805460ff191690553480156200001c57600080fd5b5060405162004db638038062004db68339810160408190526200003f9162000621565b8060008151811062000055576200005562000732565b60200260200101518160018151811062000073576200007362000732565b60200260200101518260028151811062000091576200009162000732565b602002602001015183600381518110620000af57620000af62000732565b602002602001015184600481518110620000cd57620000cd62000732565b602002602001015185600581518110620000eb57620000eb62000732565b60200260200101518a8a8a8a8181856200010a6200025060201b60201c565b620001178260006200026d565b61012052620001288160016200026d565b61014052815160208084019190912060e052815190820120610100524660a052620001b660e05161010051604080517f8b73c3c69bb8fe3d512ecc4cf759cc79239f7b179b0ffacaa9a75d522b39400f60208201529081019290925260608201524660808201523060a082015260009060c00160405160208183030381529060405280519060200120905090565b60805250503060c05261016091909152610180526002620001d88582620007d7565b506003620001e78482620007d7565b5050505050620001fd86620002a660201b60201c565b6200020885620002e7565b620002138462000328565b6200021e83620003cf565b620002298262000410565b620002348162000451565b6200023f3362000492565b5050505050505050505050620008fd565b604080518082019091526003815262332e3160e81b602082015290565b60006020835110156200028d576200028583620004fb565b9050620002a0565b816200029a8482620007d7565b5060ff90505b92915050565b60105460408051918252602082018390527fd299feb1d7d9345a48559601c471c3be7eea9a11f21d5e86809198f40a974db4910160405180910390a1601055565b60115460408051918252602082018390527fc565b045403dc03c2eea82b81a0465edad9e2e7fc4d97e11421c209da93d7a93910160405180910390a1601155565b600081116200038e5760405162461bcd60e51b815260206004820152602760248201527f476f7665726e6f7253657474696e67733a20766f74696e6720706572696f6420604482015266746f6f206c6f7760c81b60648201526084015b60405180910390fd5b60125460408051918252602082018390527f7e3f7f0708a84de9203036abaa450dccc85ad5ff52f78c170f3edb55cf5e8828910160405180910390a1601255565b60135460408051918252602082018390527fe971b819c7fb95c72451f557226aceb5baaf4994a9d39a79bbfa0040e87500b9910160405180910390a1601355565b60145460408051918252602082018390527f4984ec996723330ee95979ed65a2a4b41edd914e68a187efe92596474643bdff910160405180910390a1601455565b60155460408051918252602082018390527f9c7b27f091caef3a83be73d89320404fa0c4a52993685ff0651672e49e6e55ab910160405180910390a1601555565b601654604080516001600160a01b03928316815291831660208301527fc30034fc2e9697980e08935bbc287db3eaa44a4aa113ef4c108b356adbf911ce910160405180910390a1601680546001600160a01b0319166001600160a01b0392909216919091179055565b600080829050601f8151111562000529578260405163305a27a960e01b8152600401620003859190620008a3565b80516200053682620008d8565b179392505050565b634e487b7160e01b600052604160045260246000fd5b604051601f8201601f191681016001600160401b03811182821017156200057f576200057f6200053e565b604052919050565b60005b83811015620005a45781810151838201526020016200058a565b50506000910152565b600082601f830112620005bf57600080fd5b81516001600160401b03811115620005db57620005db6200053e565b620005f0601f8201601f191660200162000554565b8181528460208386010111156200060657600080fd5b6200061982602083016020870162000587565b949350505050565b600080600080600060a086880312156200063a57600080fd5b85516001600160401b03808211156200065257600080fd5b6200066089838a01620005ad565b96506020915081880151818111156200067857600080fd5b620006868a828b01620005ad565b9650506040880151945060608801519350608088015181811115620006aa57600080fd5b8801601f81018a13620006bc57600080fd5b805182811115620006d157620006d16200053e565b8060051b9250620006e484840162000554565b818152928201840192848101908c851115620006ff57600080fd5b928501925b848410156200071f5783518252928501929085019062000704565b8096505050505050509295509295909350565b634e487b7160e01b600052603260045260246000fd5b600181811c908216806200075d57607f821691505b6020821081036200077e57634e487b7160e01b600052602260045260246000fd5b50919050565b601f821115620007d257600081815260208120601f850160051c81016020861015620007ad5750805b601f850160051c820191505b81811015620007ce57828155600101620007b9565b5050505b505050565b81516001600160401b03811115620007f357620007f36200053e565b6200080b8162000804845462000748565b8462000784565b602080601f8311600181146200084357600084156200082a5750858301515b600019600386901b1c1916600185901b178555620007ce565b600085815260208120601f198616915b82811015620008745788860151825594840194600190910190840162000853565b5085821015620008935787850151600019600388901b60f8161c191681555b5050505050600190811b01905550565b6020815260008251806020840152620008c481604085016020870162000587565b601f01601f19169190910160400192915050565b805160208083015191908110156200077e5760001960209190910360031b1b16919050565b60805160a05160c05160e051610100516101205161014051610160516101805161443b6200097b60003960008181610b890152611133015260008181610a4101528181610f7b015281816110ce01526113af0152600061170c015260006116e20152600050506000505060005050600050506000505061443b6000f3fe6080604052600436106103dc5760003560e01c806384b0196e116101fd578063d45a010b11610118578063ea8a1af0116100ab578063f4f3d7ec1161007a578063f4f3d7ec14610cad578063f5c3641114610ccd578063f61736f414610ced578063fb8ddab414610d0d578063fb9bf8d414610d2d57600080fd5b8063ea8a1af014610c4e578063ebc18b9b14610c63578063efa90d3614610c78578063f0a7db0a14610c8d57600080fd5b8063dea5f6a6116100e7578063dea5f6a614610bab578063deaaa7cc14610bd8578063e031535b14610c0c578063e5eb5a4814610c2157600080fd5b8063d45a010b14610b02578063d889161914610b17578063dd4e2ba514610b31578063dd96a19d14610b7757600080fd5b8063ac67f80111610190578063c0ffaa781161015f578063c0ffaa7814610a63578063c19d93fb14610a83578063c7f758a814610aa5578063cb85395014610ad257600080fd5b8063ac67f801146109ac578063aec116b6146109cc578063b323580d14610a02578063bddc164114610a2f57600080fd5b80638ebb4c15116101cc5780638ebb4c151461090a578063930de9791461093a57806396f0e9621461096a578063a1ac6cb21461097f57600080fd5b806384b0196e1461087d57806386187488146108a55780638a9cd550146108c55780638b265e2a146108da57600080fd5b8063419c533c116102f857806354fd4d501161028b5780636ca1a2c71161025a5780636ca1a2c7146108005780636e4eb81014610815578063785ddfe5146108355780637c65d71114610853578063832009af1461086857600080fd5b806354fd4d50146107695780635f953a031461079557806360506ff6146107cb57806365f16263146107e057600080fd5b80634d24a67f116102c75780634d24a67f146106c757806350a5e524146106dc578063531bd812146106ff578063544ffc9c1461071f57600080fd5b8063419c533c1461063a578063427d56c21461065a578063458da87d14610687578063476f4d8a146106a757600080fd5b80632399c660116103705780633932abb11161033f5780633932abb1146105a85780633b6d199b146105bd5780633fb57c92146105ea578063409fd0301461061a57600080fd5b80632399c66014610537578063262e59e91461055757806332763c221461056c578063347cf6651461058c57600080fd5b806306fdde03116103ac57806306fdde0314610484578063070dc5d9146104a65780631805c523146104f757806320b3e8451461051757600080fd5b80624114a8146103ea57806301ffc9a71461041257806302a251a31461044257806302d05d3f1461045757600080fd5b366103e557005b005b600080fd5b3480156103f657600080fd5b506103ff610d42565b6040519081526020015b60405180910390f35b34801561041e57600080fd5b5061043261042d36600461360a565b610d52565b6040519015158152602001610409565b34801561044e57600080fd5b506103ff610d89565b34801561046357600080fd5b5061046c610d94565b6040516001600160a01b039091168152602001610409565b34801561049057600080fd5b50610499610da8565b604051610409919061367a565b3480156104b257600080fd5b506104ea6104c136600461368d565b601860209081526000918252604091829020825180840190935280548352600101549082015281565b60405161040991906136a6565b34801561050357600080fd5b506103ff6105123660046137de565b610e3a565b34801561052357600080fd5b50610432610532366004613880565b610f59565b34801561054357600080fd5b5061043261055236600461368d565b610fef565b34801561056357600080fd5b506103ff611033565b34801561057857600080fd5b506104326105873660046138e9565b61104f565b34801561059857600080fd5b506103ff678ac7230489e8000081565b3480156105b457600080fd5b506103ff61118c565b3480156105c957600080fd5b506103ff6105d836600461368d565b6000908152600a602052604090205490565b3480156105f657600080fd5b5061043261060536600461368d565b600f6020526000908152604090205460ff1681565b34801561062657600080fd5b506103ff610635366004613959565b611197565b34801561064657600080fd5b506103ff610655366004613a15565b6111c8565b34801561066657600080fd5b5061067a610675366004613a85565b611200565b6040516104099190613adb565b34801561069357600080fd5b506103ff6106a2366004613c8d565b611398565b3480156106b357600080fd5b506103ff6106c2366004613c8d565b6113ab565b3480156106d357600080fd5b506103ff600281565b3480156106e857600080fd5b506106f1611415565b604051610409929190613cc1565b34801561070b57600080fd5b5061043261071a366004613d2a565b61151b565b34801561072b57600080fd5b5061075461073a36600461368d565b600090815260186020526040902080546001909101549091565b60408051928352602083019190915201610409565b34801561077557600080fd5b50604080518082019091526003815262332e3160e81b6020820152610499565b3480156107a157600080fd5b506103ff6107b0366004613d85565b6001600160a01b03166000908152600b602052604090205490565b3480156107d757600080fd5b506103ff611586565b3480156107ec57600080fd5b506103ff6107fb366004613da2565b611591565b34801561080c57600080fd5b506103ff611659565b34801561082157600080fd5b50610754610830366004613dd7565b611685565b34801561084157600080fd5b50601f546001600160a01b031661046c565b34801561085f57600080fd5b506104996116ba565b34801561087457600080fd5b506103ff6116c9565b34801561088957600080fd5b506108926116d4565b6040516104099796959493929190613e07565b3480156108b157600080fd5b506103ff6108c036600461368d565b61175c565b3480156108d157600080fd5b5061067a611794565b3480156108e657600080fd5b506104326108f536600461368d565b6000908152600f602052604090205460ff1690565b34801561091657600080fd5b5061092a61092536600461368d565b61180e565b6040516104099493929190613e77565b34801561094657600080fd5b50610432610955366004613d85565b60066020526000908152604090205460ff1681565b34801561097657600080fd5b506103e36118cb565b34801561098b57600080fd5b506103ff61099a366004613d85565b60176020526000908152604090205481565b3480156109b857600080fd5b506103e36109c7366004613eae565b611bdf565b3480156109d857600080fd5b506103ff6109e7366004613d85565b6001600160a01b031660009081526017602052604090205490565b348015610a0e57600080fd5b50610a22610a1d36600461368d565b611ddc565b6040516104099190613f77565b348015610a3b57600080fd5b506103ff7f000000000000000000000000000000000000000000000000000000000000000081565b348015610a6f57600080fd5b506103ff610a7e366004613f8a565b611e4e565b348015610a8f57600080fd5b50610a98611e92565b6040516104099190613ffb565b348015610ab157600080fd5b50610ac5610ac036600461368d565b611f04565b6040516104099190614023565b348015610ade57600080fd5b50610432610aed366004613d85565b60076020526000908152604090205460ff1681565b348015610b0e57600080fd5b506106f161207e565b348015610b2357600080fd5b506019546104329060ff1681565b348015610b3d57600080fd5b5060408051808201909152601881527f737570706f72743d627261766f2671756f72756d3d666f7200000000000000006020820152610499565b348015610b8357600080fd5b506103ff7f000000000000000000000000000000000000000000000000000000000000000081565b348015610bb757600080fd5b506103ff610bc6366004613d85565b60056020526000908152604090205481565b348015610be457600080fd5b506103ff7f150214d74d59b7d1e90c73fc22ef3d991dd0a76b046543d4d80ab92d2a50328f81565b348015610c1857600080fd5b506103ff612249565b348015610c2d57600080fd5b506103ff610c3c36600461368d565b601a6020526000908152604090205481565b348015610c5a57600080fd5b506103e361225b565b348015610c6f57600080fd5b506103ff612345565b348015610c8457600080fd5b5061067a612371565b348015610c9957600080fd5b506103e3610ca8366004613eae565b6123c7565b348015610cb957600080fd5b506103e3610cc8366004613d85565b6125ff565b348015610cd957600080fd5b506103ff610ce836600461368d565b61269a565b348015610cf957600080fd5b506103ff610d083660046140a9565b6126bb565b348015610d1957600080fd5b50610432610d28366004613c8d565b6126ec565b348015610d3957600080fd5b506103ff612977565b6000610d4d60105490565b905090565b60006001600160e01b03198216632d90d89d60e21b1480610d8357506301ffc9a760e01b6001600160e01b03198316145b92915050565b6000610d4d60125490565b6000610d4d6016546001600160a01b031690565b606060028054610db7906140cb565b80601f0160208091040260200160405190810160405280929190818152602001828054610de3906140cb565b8015610e305780601f10610e0557610100808354040283529160200191610e30565b820191906000526020600020905b815481529060010190602001808311610e1357829003601f168201915b5050505050905090565b604080516080810182523381524260208201529081018390526060810182905260009081610e6782611197565b600c805460018082019092557fdf6966c971051c3d54ec59162606531493a51404a002842f56009d7e5cf4a8c7018290556000828152600d6020908152604091829020865181546001600160a01b0319166001600160a01b0390911617815590860151928101929092558401516002820155606084015191925083916003820190610ef29082614154565b5050506000858152600e6020908152604080832080546001810182559084529190922001829055517f5a1a930fed43f34b3a07db782ebcac28a661c273e662bb98458cfba5a8ccd22090610f499083815260200190565b60405180910390a1949350505050565b6001600160a01b03831660009081526007602052604081205460ff16610fe4577f0000000000000000000000000000000000000000000000000000000000000000600003610fa957506001610fe8565b610fbf84678ac7230489e800008585600061104f565b506001600160a01b0384166000908152600760205260409020805460ff191660011790555b5060015b9392505050565b60195460009060ff1661101d5760405162461bcd60e51b815260040161101490614213565b60405180910390fd5b506000908152601b602052604090205460ff1690565b600061103d610d89565b611045612249565b610d4d9190614294565b6040516bffffffffffffffffffffffff19606087901b1660208201526034810185905260009081906054016040516020818303038152906040528051906020012090506000836110fe576110f98686808060200260200160405190810160405280939291908181526020018383602002808284376000920191909152507f000000000000000000000000000000000000000000000000000000000000000092508691506129829050565b61115e565b61115e8686808060200260200160405190810160405280939291908181526020018383602002808284376000920191909152507f000000000000000000000000000000000000000000000000000000000000000092508691506129829050565b90508061117e5760405163452c2df160e11b815260040160405180910390fd5b506001979650505050505050565b6000610d4d60115490565b6000816040516020016111aa91906142a7565b60408051601f19818403018152919052805160209091012092915050565b6000336111d78187868661151b565b506111f48882898860405180602001604052806000815250612998565b98975050505050505050565b60606000808361121757611212611415565b61121f565b61121f61207e565b91509150600082511161128f5760405162461bcd60e51b815260206004820152603260248201527f476f7665726e6f72536f7274696e673a2063616e6e6f7420736f72742061206c6044820152710d2e6e840decc40f4cae4de40d8cadccee8d60731b6064820152608401611014565b600082516001600160401b038111156112aa576112aa6136bd565b6040519080825280602002602001820160405280156112d3578160200160208202803683370190505b50905060005b8251811015611357578281815181106112f4576112f46142e8565b602002602001015160200151838281518110611312576113126142e8565b60200260200101516000015161132891906142fe565b82828151811061133a5761133a6142e8565b60209081029190910101528061134f81614325565b9150506112d9565b5060005b60018451611369919061433e565b81101561138e5761137b818386612bb2565b508061138681614325565b91505061135b565b5091949350505050565b6000816040516020016111aa9190614023565b60007f000000000000000000000000000000000000000000000000000000000000000015611402573360009081526007602052604090205460ff166114025760405162461bcd60e51b815260040161101490614351565b61140b826126ec565b50610d8382612d18565b6060806000611422612371565b9050600081516001600160401b0381111561143f5761143f6136bd565b60405190808252806020026020018201604052801561148457816020015b604080518082019091526000808252602082015281526020019060019003908161145d5790505b50905060005b825181101561151157601860008483815181106114a9576114a96142e8565b60200260200101518152602001908152602001600020600001604051806040016040529081600082015481526020016001820154815250508282815181106114f3576114f36142e8565b6020026020010181905250808061150990614325565b91505061148a565b5090939092509050565b6001600160a01b03841660009081526006602052604081205460ff1661157b5761154985858585600161104f565b506001600160a01b038516600090815260056020908152604080832087905560069091529020805460ff191660011790555b506001949350505050565b6000610d4d60155490565b3360008181526006602052604081205490919060ff166116345760405162461bcd60e51b815260206004820152605260248201527f476f7665726e6f723a20796f75206e65656420746f2063617374206120766f7460448201527f652077697468207468652070726f6f66206174206c65617374206f6e636520616064820152711b99081e5bdd481a185d995b89dd081e595d60721b608482015260a401611014565b6116508582868660405180602001604052806000815250612998565b95945050505050565b60195460009060ff1661167e5760405162461bcd60e51b815260040161101490614213565b50601d5490565b60008281526018602090815260408083206001600160a01b0385168452600301909152902080546001909101545b9250929050565b606060038054610db7906140cb565b6000610d4d60135490565b6000606080828080836117077f0000000000000000000000000000000000000000000000000000000000000000836130a5565b6117327f000000000000000000000000000000000000000000000000000000000000000060016130a5565b60408051600080825260208201909252600f60f81b9b939a50919850469750309650945092509050565b60195460009060ff166117815760405162461bcd60e51b815260040161101490614213565b506000908152601a602052604090205490565b60195460609060ff166117b95760405162461bcd60e51b815260040161101490614213565b601c805480602002602001604051908101604052809291908181526020018280548015610e3057602002820191906000526020600020905b8154815260200190600101908083116117f1575050505050905090565b600d6020526000908152604090208054600182015460028301546003840180546001600160a01b03909416949293919291611848906140cb565b80601f0160208091040260200160405190810160405280929190818152602001828054611874906140cb565b80156118c15780601f10611896576101008083540402835291602001916118c1565b820191906000526020600020905b8154815290600101906020018083116118a457829003601f168201915b5050505050905084565b60046118d5611e92565b60048111156118e6576118e6613fe5565b146119695760405162461bcd60e51b815260206004820152604760248201527f476f7665726e6f72536f7274696e673a20636f6e74657374206d75737420626560448201527f20746f2063616c63756c61746520736f7274656420616e6420746965642070726064820152666f706f73616c7360c81b608482015260a401611014565b60195460ff1615611a085760405162461bcd60e51b815260206004820152605f60248201527f476f7665726e6f72536f7274696e673a20736574536f72746564416e6454696560448201527f6450726f706f73616c7328292068617320616c7265616479206265656e20727560648201527f6e20616e642069747320726573706563746976652076616c7565732073657400608482015260a401611014565b611a126001611200565b8051611a2691601c916020909101906134e4565b50601c54600090600190611a3a9082614294565b601e5560005b601c54811015611bcd57601c54600090611a5c9060019061433e565b9050600080611aa5601c611a70868661433e565b81548110611a8057611a806142e8565b9060005260206000200154600090815260186020526040902080546001909101549091565b90925090506000611ab682846142fe565b905084600003611af757601c549096508690600103611aee57611ad9858561433e565b6000878152601a6020526040902055601d8690555b50505050611bbb565b868103611b4a576000868152601b602052604090205460ff16611b2e576000868152601b60205260409020805460ff191660011790555b601c54611b3c906001614294565b601e5403611b4a57601e8690555b868114611b8357611b5b858561433e565b611b66906001614294565b6000878152601a602052604090205585611b7f81614325565b9650505b601c54611b91866001614294565b03611bb557611ba0858561433e565b6000878152601a6020526040902055601d8690555b95505050505b80611bc581614325565b915050611a40565b50506019805460ff1916600117905550565b611be7610d94565b6001600160a01b0316336001600160a01b031614611c665760405162461bcd60e51b815260206004820152603660248201527f476f7665726e6f723a206f6e6c792074686520636f6e746573742063726561746044820152756f722063616e2064656c65746520636f6d6d656e747360501b6064820152608401611014565b6004611c70611e92565b6004811115611c8157611c81613fe5565b03611d055760405162461bcd60e51b815260206004820152604860248201527f476f7665726e6f723a2064656c6574696f6e206f6620636f6d6d656e7473206160448201527f667465722074686520656e64206f66206120636f6e74657374206973206e6f7460648201526708185b1b1bddd95960c21b608482015260a401611014565b60005b8151811015611da157600f6000838381518110611d2757611d276142e8565b60209081029190910181015182528101919091526040016000205460ff16611d8f576001600f6000848481518110611d6157611d616142e8565b6020026020010151815260200190815260200160002060006101000a81548160ff0219169083151502179055505b80611d9981614325565b915050611d08565b507f788a4349d25bc08585923ae212bce8bb346a623bce753eeecb85fd9ce58dcb4b81604051611dd19190613adb565b60405180910390a150565b6000818152601860209081526040918290206002810180548451818502810185019095528085526060949293830182828015611e4157602002820191906000526020600020905b81546001600160a01b03168152600190910190602001808311611e23575b5050505050915050919050565b6000611e5b338484610f59565b611e775760405162461bcd60e51b815260040161101490614351565b611e80846126ec565b50611e8a84612d18565b949350505050565b60045460009060ff1615611ea65750600290565b6000611eb0610d42565b9050428110611ec157600091505090565b6000611ecb612249565b9050428110611edd5760039250505090565b6000611ee7611033565b9050428110611efa576001935050505090565b6004935050505090565b611f0c61352f565b600082815260096020908152604091829020825160a08101845281546001600160a01b0381168252600160a01b900460ff161515928101929092526001810180549293919291840191611f5e906140cb565b80601f0160208091040260200160405190810160405280929190818152602001828054611f8a906140cb565b8015611fd75780601f10611fac57610100808354040283529160200191611fd7565b820191906000526020600020905b815481529060010190602001808311611fba57829003601f168201915b5050509183525050604080516020818101835260028501546001600160a01b0316825280840191909152815160038501805460609381028301840185528285018181529490950194919390928492849184018282801561206057602002820191906000526020600020905b81546001600160a01b03168152600190910190602001808311612042575b50505050508152602001600182015481525050815250509050919050565b606080600061208b612371565b9050600081516001600160401b038111156120a8576120a86136bd565b6040519080825280602002602001820160405280156120d1578160200160208202803683370190505b509050600082516001600160401b038111156120ef576120ef6136bd565b60405190808252806020026020018201604052801561213457816020015b604080518082019091526000808252602082015281526020019060019003908161210d5790505b5090506000805b845181101561223d57612173858281518110612159576121596142e8565b60200260200101516000908152600a602052604090205490565b60011461222b5784818151811061218c5761218c6142e8565b60200260200101518483815181106121a6576121a66142e8565b602002602001018181525050601860008683815181106121c8576121c86142e8565b6020026020010151815260200190815260200160002060000160405180604001604052908160008201548152602001600182015481525050838381518110612212576122126142e8565b6020908102919091010152612228600183614294565b91505b8061223581614325565b91505061213b565b50919590945092505050565b600061225361118c565b611045610d42565b612263610d94565b6001600160a01b0316336001600160a01b03161461228057600080fd5b600061228a611e92565b905060028160048111156122a0576122a0613fe5565b141580156122c0575060048160048111156122bd576122bd613fe5565b14155b61230c5760405162461bcd60e51b815260206004820152601c60248201527f476f7665726e6f723a20636f6e74657374206e6f7420616374697665000000006044820152606401611014565b6004805460ff191660011790556040517f4cd963a081760a54f571abc0f1db4dde31b4a07d8d6da3e844b8c6f47eeaaa4290600090a150565b60195460009060ff1661236a5760405162461bcd60e51b815260040161101490614213565b50601e5490565b60606008805480602002602001604051908101604052809291908181526020018280548015610e3057602002820191906000526020600020908154815260200190600101908083116117f1575050505050905090565b6123cf610d94565b6001600160a01b0316336001600160a01b0316146124555760405162461bcd60e51b815260206004820152603760248201527f476f7665726e6f723a206f6e6c792074686520636f6e7465737420637265617460448201527f6f722063616e2064656c6574652070726f706f73616c730000000000000000006064820152608401611014565b600461245f611e92565b600481111561247057612470613fe5565b036124f55760405162461bcd60e51b815260206004820152604960248201527f476f7665726e6f723a2064656c6574696f6e206f662070726f706f73616c732060448201527f61667465722074686520656e64206f66206120636f6e74657374206973206e6f6064820152681d08185b1b1bddd95960ba1b608482015260a401611014565b60005b81518110156125cf57600a6000838381518110612517576125176142e8565b60200260200101518152602001908152602001600020546001146125bd576001600a600084848151811061254d5761254d6142e8565b60200260200101518152602001908152602001600020819055506040518060600160405280603d81526020016143c9603d913960096000848481518110612596576125966142e8565b6020026020010151815260200190815260200160002060010190816125bb9190614154565b505b806125c781614325565b9150506124f8565b507f75a75cf5c561892f4cc5b26c1b8e933849b42238c96dd073d080d1ae96c5141681604051611dd19190613adb565b612607610d94565b6001600160a01b0316336001600160a01b03161461262457600080fd5b6000612638601f546001600160a01b031690565b601f80546001600160a01b0319166001600160a01b0385811691821790925560408051928416835260208301919091529192507f753a2cf8d360cff631674504210913e48247f8e56b3e6d2006c2103d4095999f910160405180910390a15050565b600c81815481106126aa57600080fd5b600091825260209091200154905081565b600e60205281600052604060002081815481106126d757600080fd5b90600052602060002001600091509150505481565b80516000906001600160a01b031633146127615760405162461bcd60e51b815260206004820152603060248201527f476f7665726e6f723a207468652070726f706f73616c20617574686f72206d7560448201526f39ba1031329036b9b39739b2b73232b960811b6064820152608401611014565b60005b600281101561291957600081600181111561278157612781613fe5565b9050600081600181111561279757612797613fe5565b036127a25750612907565b60018160018111156127b6576127b6613fe5565b036128ec57608084015151516000036128485760405162461bcd60e51b815260206004820152604860248201527f476f7665726e6f724d6574616461746156616c69646174696f6e3a207468657260448201527f652063616e6e6f74206265207a65726f207369676e65727320696e20736166656064820152674d6574616461746160c01b608482015260a401611014565b8360800151602001516000036128d45760405162461bcd60e51b8152602060048201526044602482018190527f476f7665726e6f724d6574616461746156616c69646174696f6e3a2074687265908201527f73686f6c642063616e6e6f74206265207a65726f20696e20736166654d6574616064820152636461746160e01b608482015260a401611014565b608084015151516000036128e757600080fd5b612905565b6040516308b6566d60e11b815260040160405180910390fd5b505b8061291181614325565b915050612764565b5081604001515160000361296f5760405162461bcd60e51b815260206004820152601860248201527f476f7665726e6f723a20656d7074792070726f706f73616c00000000000000006044820152606401611014565b506001919050565b6000610d4d60145490565b60008261298f8584613150565b14949350505050565b600060016129a4611e92565b60048111156129b5576129b5613fe5565b14612a0e5760405162461bcd60e51b815260206004820152602360248201527f476f7665726e6f723a20766f7465206e6f742063757272656e746c792061637460448201526269766560e81b6064820152608401611014565b60008311612a725760405162461bcd60e51b815260206004820152602b60248201527f476f7665726e6f723a2063616e6e6f7420766f746520776974682030206f722060448201526a666577657220766f74657360a81b6064820152608401611014565b6001600160a01b03851660009081526006602052604090205460ff16612b185760405162461bcd60e51b815260206004820152604f60248201527f476f7665726e6f723a20796f75206e65656420746f2076657269667920796f7560448201527f72206e756d626572206f6620766f74657320616761696e737420746865206d6560648201526e1c9adb19481c9bdbdd08199a5c9cdd608a1b608482015260a401611014565b612b4a86868686600560008b6001600160a01b03166001600160a01b031681526020019081526020016000205461319d565b846001600160a01b03167fb8e138887d0aa13bab447e82de9d5c1777041ecd21ca36ba824ff1e6c07ddda487868686604051612b8994939291906143a0565b60405180910390a2505050506001600160a01b0316600090815260056020526040902054919050565b600083805b8451811015612c1057848281518110612bd257612bd26142e8565b6020026020010151858281518110612bec57612bec6142e8565b60200260200101511215612bfe578091505b80612c0881614325565b915050612bb7565b50848103612c22576000915050610fe8565b6000848681518110612c3657612c366142e8565b60200260200101519050848281518110612c5257612c526142e8565b6020026020010151858781518110612c6c57612c6c6142e8565b60200260200101818152505080858381518110612c8b57612c8b6142e8565b6020026020010181815250506000848781518110612cab57612cab6142e8565b60200260200101519050848381518110612cc757612cc76142e8565b6020026020010151858881518110612ce157612ce16142e8565b60200260200101818152505080858481518110612d0057612d006142e8565b60209081029190910101525060019695505050505050565b60006003612d24611e92565b6004811115612d3557612d35613fe5565b14612da85760405162461bcd60e51b815260206004820152603e60248201527f476f7665726e6f723a20636f6e74657374206d7573742062652071756575656460448201527f20666f722070726f706f73616c7320746f206265207375626d697474656400006064820152608401611014565b612db06116c9565b336000908152600b602052604090205410612e675760405162461bcd60e51b815260206004820152606560248201527f476f7665726e6f723a207468652073616d6520616464726573732063616e6e6f60448201527f74207375626d6974206d6f7265207468616e20746865206e756d416c6c6f776560648201527f6450726f706f73616c5375626d697373696f6e7320666f72207468697320636f6084820152641b9d195cdd60da1b60a482015260c401611014565b612e6f612977565b60085410612ee55760405162461bcd60e51b815260206004820152603960248201527f476f7665726e6f723a20746865206d6178206e756d626572206f662070726f7060448201527f6f73616c732068617665206265656e207375626d6974746564000000000000006064820152608401611014565b6000612ef083611398565b600081815260096020526040902054909150600160a01b900460ff1615612f6b5760405162461bcd60e51b815260206004820152602960248201527f476f7665726e6f723a206475706c69636174652070726f706f73616c73206e6f6044820152681d08185b1b1bddd95960ba1b6064820152608401611014565b6008805460018181019092557ff3f7a9fe364faab93b216da50a3214154f22a0a2b415b23a84c8169e8b636ee30182905560008281526009602090815260409182902086518154928801511515600160a01b026001600160a81b03199093166001600160a01b0390911617919091178155908501518592820190612fef9082614154565b506060820151516002820180546001600160a01b0319166001600160a01b039092169190911790556080820151805180516003840191613034918391602001906135a0565b50602091820151600191820155336000908152600b9092526040822080549194509250613062908490614294565b9091555050604080518281523360208201527fcd423cc1203c0af96b9b3d68d73b3064a69de2d14450bb7181c5e5df2132b358910160405180910390a192915050565b606060ff83146130bf576130b883613451565b9050610d83565b8180546130cb906140cb565b80601f01602080910402602001604051908101604052809291908181526020018280546130f7906140cb565b80156131445780601f1061311957610100808354040283529160200191613144565b820191906000526020600020905b81548152906001019060200180831161312757829003601f168201915b50505050509050610d83565b600081815b84518110156131955761318182868381518110613174576131746142e8565b6020026020010151613490565b91508061318d81614325565b915050613155565b509392505050565b60008581526018602090815260408083206001600160a01b03881684526017909252909120546131cd908361433e565b8311156132385760405162461bcd60e51b815260206004820152603360248201527f476f7665726e6f72566f74696e6753696d706c653a206e6f7420656e6f756768604482015272081d9bdd195cc81b19599d081d1bc818d85cdd606a1b6064820152608401611014565b6001600160a01b03851660009081526003820160205260409020541560ff85166132aa57815484908390600090613270908490614294565b90915550506001600160a01b03861660009081526003830160205260408120805486929061329f908490614294565b909155506133e49050565b60001960ff86160161337e576132be611586565b600114613335576040805162461bcd60e51b81526020600482015260248101919091527f476f7665726e6f72566f74696e6753696d706c653a20646f776e766f74696e6760448201527f206973206e6f7420656e61626c656420666f72207468697320436f6e746573746064820152608401611014565b8382600001600101600082825461334c9190614294565b90915550506001600160a01b03861660009081526003830160205260408120600101805486929061329f908490614294565b60405162461bcd60e51b815260206004820152603560248201527f476f7665726e6f72566f74696e6753696d706c653a20696e76616c69642076616044820152746c756520666f7220656e756d20566f74655479706560581b6064820152608401611014565b801561341b57600282018054600181018255600091825260209091200180546001600160a01b0319166001600160a01b0388161790555b6001600160a01b03861660009081526017602052604081208054869290613443908490614294565b909155505050505050505050565b6060600061345e836134bc565b604080516020808252818301909252919250600091906020820181803683375050509182525060208101929092525090565b60008183106134ac576000828152602084905260409020610fe8565b5060009182526020526040902090565b600060ff8216601f811115610d8357604051632cd44ac360e21b815260040160405180910390fd5b82805482825590600052602060002090810192821561351f579160200282015b8281111561351f578251825591602001919060010190613504565b5061352b9291506135f5565b5090565b6040518060a0016040528060006001600160a01b0316815260200160001515815260200160608152602001613579604051806020016040528060006001600160a01b031681525090565b815260200161359b604051806040016040528060608152602001600081525090565b905290565b82805482825590600052602060002090810192821561351f579160200282015b8281111561351f57825182546001600160a01b0319166001600160a01b039091161782556020909201916001909101906135c0565b5b8082111561352b57600081556001016135f6565b60006020828403121561361c57600080fd5b81356001600160e01b031981168114610fe857600080fd5b6000815180845260005b8181101561365a5760208185018101518683018201520161363e565b506000602082860101526020601f19601f83011685010191505092915050565b602081526000610fe86020830184613634565b60006020828403121561369f57600080fd5b5035919050565b815181526020808301519082015260408101610d83565b634e487b7160e01b600052604160045260246000fd5b604080519081016001600160401b03811182821017156136f5576136f56136bd565b60405290565b60405160a081016001600160401b03811182821017156136f5576136f56136bd565b604051602081016001600160401b03811182821017156136f5576136f56136bd565b604051601f8201601f191681016001600160401b0381118282101715613767576137676136bd565b604052919050565b600082601f83011261378057600080fd5b81356001600160401b03811115613799576137996136bd565b6137ac601f8201601f191660200161373f565b8181528460208386010111156137c157600080fd5b816020850160208301376000918101602001919091529392505050565b600080604083850312156137f157600080fd5b8235915060208301356001600160401b0381111561380e57600080fd5b61381a8582860161376f565b9150509250929050565b6001600160a01b038116811461383957600080fd5b50565b60008083601f84011261384e57600080fd5b5081356001600160401b0381111561386557600080fd5b6020830191508360208260051b85010111156116b357600080fd5b60008060006040848603121561389557600080fd5b83356138a081613824565b925060208401356001600160401b038111156138bb57600080fd5b6138c78682870161383c565b9497909650939450505050565b803580151581146138e457600080fd5b919050565b60008060008060006080868803121561390157600080fd5b853561390c81613824565b94506020860135935060408601356001600160401b0381111561392e57600080fd5b61393a8882890161383c565b909450925061394d9050606087016138d4565b90509295509295909350565b60006020828403121561396b57600080fd5b81356001600160401b038082111561398257600080fd5b908301906080828603121561399657600080fd5b6040516080810181811083821117156139b1576139b16136bd565b60405282356139bf81613824565b8082525060208301356020820152604083013560408201526060830135828111156139e957600080fd5b6139f58782860161376f565b60608301525095945050505050565b803560ff811681146138e457600080fd5b60008060008060008060a08789031215613a2e57600080fd5b86359550613a3e60208801613a04565b9450604087013593506060870135925060808701356001600160401b03811115613a6757600080fd5b613a7389828a0161383c565b979a9699509497509295939492505050565b600060208284031215613a9757600080fd5b610fe8826138d4565b600081518084526020808501945080840160005b83811015613ad057815187529582019590820190600101613ab4565b509495945050505050565b602081526000610fe86020830184613aa0565b60006001600160401b03821115613b0757613b076136bd565b5060051b60200190565b600060408284031215613b2357600080fd5b613b2b6136d3565b905081356001600160401b03811115613b4357600080fd5b8201601f81018413613b5457600080fd5b80356020613b69613b6483613aee565b61373f565b82815260059290921b83018101918181019087841115613b8857600080fd5b938201935b83851015613baf578435613ba081613824565b82529382019390820190613b8d565b85525093840135938301939093525092915050565b600081830360a0811215613bd757600080fd5b613bdf6136fb565b91508235613bec81613824565b8252613bfa602084016138d4565b602083015260408301356001600160401b0380821115613c1957600080fd5b613c258683870161376f565b60408501526020605f1984011215613c3c57600080fd5b613c4461371d565b925060608501359150613c5682613824565b8183528260608501526080850135925080831115613c7357600080fd5b5050613c8184828501613b11565b60808301525092915050565b600060208284031215613c9f57600080fd5b81356001600160401b03811115613cb557600080fd5b611e8a84828501613bc4565b60006040808352613cd481840186613aa0565b83810360208581019190915285518083528682019282019060005b81811015613d1c57613d0c83865180518252602090810151910152565b9383019391850191600101613cef565b509098975050505050505050565b60008060008060608587031215613d4057600080fd5b8435613d4b81613824565b93506020850135925060408501356001600160401b03811115613d6d57600080fd5b613d798782880161383c565b95989497509550505050565b600060208284031215613d9757600080fd5b8135610fe881613824565b600080600060608486031215613db757600080fd5b83359250613dc760208501613a04565b9150604084013590509250925092565b60008060408385031215613dea57600080fd5b823591506020830135613dfc81613824565b809150509250929050565b60ff60f81b8816815260e060208201526000613e2660e0830189613634565b8281036040840152613e388189613634565b606084018890526001600160a01b038716608085015260a0840186905283810360c08501529050613e698185613aa0565b9a9950505050505050505050565b60018060a01b0385168152836020820152826040820152608060608201526000613ea46080830184613634565b9695505050505050565b60006020808385031215613ec157600080fd5b82356001600160401b03811115613ed757600080fd5b8301601f81018513613ee857600080fd5b8035613ef6613b6482613aee565b81815260059190911b82018301908381019087831115613f1557600080fd5b928401925b82841015613f3357833582529284019290840190613f1a565b979650505050505050565b600081518084526020808501945080840160005b83811015613ad05781516001600160a01b031687529582019590820190600101613f52565b602081526000610fe86020830184613f3e565b600080600060408486031215613f9f57600080fd5b83356001600160401b0380821115613fb657600080fd5b613fc287838801613bc4565b94506020860135915080821115613fd857600080fd5b506138c78682870161383c565b634e487b7160e01b600052602160045260246000fd5b602081016005831061401d57634e487b7160e01b600052602160045260246000fd5b91905290565b60208152600060018060a01b03808451166020840152602084015115156040840152604084015160a0606085015261405e60c0850182613634565b90508160608601515116608085015260808501519150601f198482030160a08501528151604082526140936040830182613f3e565b6020938401519290930191909152509392505050565b600080604083850312156140bc57600080fd5b50508035926020909101359150565b600181811c908216806140df57607f821691505b6020821081036140ff57634e487b7160e01b600052602260045260246000fd5b50919050565b601f82111561414f57600081815260208120601f850160051c8101602086101561412c5750805b601f850160051c820191505b8181101561414b57828155600101614138565b5050505b505050565b81516001600160401b0381111561416d5761416d6136bd565b6141818161417b84546140cb565b84614105565b602080601f8311600181146141b6576000841561419e5750858301515b600019600386901b1c1916600185901b17855561414b565b600085815260208120601f198616915b828110156141e5578886015182559484019460019091019084016141c6565b50858210156142035787850151600019600388901b60f8161c191681555b5050505050600190811b01905550565b60208082526045908201527f526577617264734d6f64756c653a2072756e20736574536f72746564416e645460408201527f69656450726f706f73616c73282920746f20706f70756c61746520746869732060608201526476616c756560d81b608082015260a00190565b634e487b7160e01b600052601160045260246000fd5b80820180821115610d8357610d8361427e565b6020815260018060a01b038251166020820152602082015160408201526040820151606082015260006060830151608080840152611e8a60a0840182613634565b634e487b7160e01b600052603260045260246000fd5b818103600083128015838313168383128216171561431e5761431e61427e565b5092915050565b6000600182016143375761433761427e565b5060010190565b81810381811115610d8357610d8361427e565b6020808252602f908201527f476f7665726e6f723a2061646472657373206973206e6f74207065726d69737360408201526e1a5bdb9959081d1bc81cdd589b5a5d608a1b606082015260800190565b84815260ff84166020820152826040820152608060608201526000613ea4608083018461363456fe546869732070726f706f73616c20686173206265656e2064656c65746564206279207468652063726561746f72206f662074686520636f6e746573742ea264697066735822122059b2b5220085966f0a149294137e8a806f9523a57374baf5eb2eb2f5a029f64864736f6c63430008130033",
    "linkReferences": {}
  },
  "methodIdentifiers": {
    "AMOUNT_FOR_SUMBITTER_PROOF()": "347cf665",
    "BALLOT_TYPEHASH()": "deaaa7cc",
    "COUNTING_MODE()": "dd4e2ba5",
    "METADATAS_COUNT()": "4d24a67f",
    "addressSubmitterVerified(address)": "cb853950",
    "addressTotalCastVoteCounts(address)": "a1ac6cb2",
    "addressTotalVotes(address)": "dea5f6a6",
    "addressTotalVotesVerified(address)": "930de979",
    "allProposalTotalVotes()": "50a5e524",
    "allProposalTotalVotesWithoutDeleted()": "d45a010b",
    "cancel()": "ea8a1af0",
    "castVote(uint256,uint8,uint256,uint256,bytes32[])": "419c533c",
    "castVoteWithoutProof(uint256,uint8,uint256)": "65f16263",
    "checkProof(address,uint256,bytes32[],bool)": "32763c22",
    "comment(uint256,string)": "1805c523",
    "commentIds(uint256)": "f5c36411",
    "comments(uint256)": "8ebb4c15",
    "contestAddressTotalVotesCast(address)": "aec116b6",
    "contestDeadline()": "262e59e9",
    "contestStart()": "004114a8",
    "creator()": "02d05d3f",
    "deleteComments(uint256[])": "ac67f801",
    "deleteProposals(uint256[])": "f0a7db0a",
    "deletedCommentIds(uint256)": "3fb57c92",
    "downvotingAllowed()": "60506ff6",
    "eip712Domain()": "84b0196e",
    "getAllProposalIds()": "efa90d36",
    "getNumSubmissions(address)": "5f953a03",
    "getProposal(uint256)": "c7f758a8",
    "hashComment((address,uint256,uint256,string))": "409fd030",
    "hashProposal((address,bool,string,(address),(address[],uint256)))": "458da87d",
    "highestTiedRanking()": "ebc18b9b",
    "isCommentDeleted(uint256)": "8b265e2a",
    "isProposalDeleted(uint256)": "3b6d199b",
    "isTied(uint256)": "2399c660",
    "lowestRanking()": "6ca1a2c7",
    "maxProposalCount()": "fb9bf8d4",
    "name()": "06fdde03",
    "numAllowedProposalSubmissions()": "832009af",
    "officialRewardsModule()": "785ddfe5",
    "prompt()": "7c65d711",
    "proposalAddressVotes(uint256,address)": "6e4eb810",
    "proposalAddressesHaveVoted(uint256)": "b323580d",
    "proposalComments(uint256,uint256)": "f61736f4",
    "proposalVotes(uint256)": "544ffc9c",
    "proposalVotesStructs(uint256)": "070dc5d9",
    "propose((address,bool,string,(address),(address[],uint256)),bytes32[])": "c0ffaa78",
    "proposeWithoutProof((address,bool,string,(address),(address[],uint256)))": "476f4d8a",
    "rankingPosition(uint256)": "86187488",
    "setOfficialRewardsModule(address)": "f4f3d7ec",
    "setSortedAndTiedProposals()": "96f0e962",
    "setSortedAndTiedProposalsHasBeenRun()": "d8891619",
    "sortedProposalIds()": "8a9cd550",
    "sortedProposals(bool)": "427d56c2",
    "state()": "c19d93fb",
    "submissionMerkleRoot()": "bddc1641",
    "supportsInterface(bytes4)": "01ffc9a7",
    "tiedAdjustedRankingPosition(uint256)": "e5eb5a48",
    "validateProposalData((address,bool,string,(address),(address[],uint256)))": "fb8ddab4",
    "verifyProposer(address,bytes32[])": "20b3e845",
    "verifyVoter(address,uint256,bytes32[])": "531bd812",
    "version()": "54fd4d50",
    "voteStart()": "e031535b",
    "votingDelay()": "3932abb1",
    "votingMerkleRoot()": "dd96a19d",
    "votingPeriod()": "02a251a3"
  },
  "id": 40
}