{
  "_format": "hh-sol-artifact-1",
  "contractName": "ERC20VotesTimestampWrapper",
  "sourceName": "contracts/ERC20VotesTimestampWrapper.sol",
  "abi": [
    {
      "inputs": [
        {
          "internalType": "contract IERC20",
          "name": "wrappedToken",
          "type": "address"
        },
        {
          "internalType": "string",
          "name": "tokenName",
          "type": "string"
        },
        {
          "internalType": "string",
          "name": "tokenSymbol",
          "type": "string"
        },
        {
          "internalType": "bool",
          "name": "nontransferable",
          "type": "bool"
        }
      ],
      "stateMutability": "nonpayable",
      "type": "constructor"
    },
    {
      "anonymous": false,
      "inputs": [
        {
          "indexed": true,
          "internalType": "address",
          "name": "owner",
          "type": "address"
        },
        {
          "indexed": true,
          "internalType": "address",
          "name": "spender",
          "type": "address"
        },
        {
          "indexed": false,
          "internalType": "uint256",
          "name": "value",
          "type": "uint256"
        }
      ],
      "name": "Approval",
      "type": "event"
    },
    {
      "anonymous": false,
      "inputs": [
        {
          "indexed": true,
          "internalType": "address",
          "name": "delegator",
          "type": "address"
        },
        {
          "indexed": true,
          "internalType": "address",
          "name": "fromDelegate",
          "type": "address"
        },
        {
          "indexed": true,
          "internalType": "address",
          "name": "toDelegate",
          "type": "address"
        }
      ],
      "name": "DelegateChanged",
      "type": "event"
    },
    {
      "anonymous": false,
      "inputs": [
        {
          "indexed": true,
          "internalType": "address",
          "name": "delegate",
          "type": "address"
        },
        {
          "indexed": false,
          "internalType": "uint256",
          "name": "previousBalance",
          "type": "uint256"
        },
        {
          "indexed": false,
          "internalType": "uint256",
          "name": "newBalance",
          "type": "uint256"
        }
      ],
      "name": "DelegateVotesChanged",
      "type": "event"
    },
    {
      "anonymous": false,
      "inputs": [
        {
          "indexed": true,
          "internalType": "address",
          "name": "from",
          "type": "address"
        },
        {
          "indexed": true,
          "internalType": "address",
          "name": "to",
          "type": "address"
        },
        {
          "indexed": false,
          "internalType": "uint256",
          "name": "value",
          "type": "uint256"
        }
      ],
      "name": "Transfer",
      "type": "event"
    },
    {
      "inputs": [],
      "name": "DOMAIN_SEPARATOR",
      "outputs": [
        {
          "internalType": "bytes32",
          "name": "",
          "type": "bytes32"
        }
      ],
      "stateMutability": "view",
      "type": "function"
    },
    {
      "inputs": [],
      "name": "_minter",
      "outputs": [
        {
          "internalType": "address",
          "name": "",
          "type": "address"
        }
      ],
      "stateMutability": "view",
      "type": "function"
    },
    {
      "inputs": [],
      "name": "_nontransferable",
      "outputs": [
        {
          "internalType": "bool",
          "name": "",
          "type": "bool"
        }
      ],
      "stateMutability": "view",
      "type": "function"
    },
    {
      "inputs": [
        {
          "internalType": "address",
          "name": "owner",
          "type": "address"
        },
        {
          "internalType": "address",
          "name": "spender",
          "type": "address"
        }
      ],
      "name": "allowance",
      "outputs": [
        {
          "internalType": "uint256",
          "name": "",
          "type": "uint256"
        }
      ],
      "stateMutability": "view",
      "type": "function"
    },
    {
      "inputs": [
        {
          "internalType": "address",
          "name": "spender",
          "type": "address"
        },
        {
          "internalType": "uint256",
          "name": "amount",
          "type": "uint256"
        }
      ],
      "name": "approve",
      "outputs": [
        {
          "internalType": "bool",
          "name": "",
          "type": "bool"
        }
      ],
      "stateMutability": "nonpayable",
      "type": "function"
    },
    {
      "inputs": [
        {
          "internalType": "address",
          "name": "account",
          "type": "address"
        }
      ],
      "name": "balanceOf",
      "outputs": [
        {
          "internalType": "uint256",
          "name": "",
          "type": "uint256"
        }
      ],
      "stateMutability": "view",
      "type": "function"
    },
    {
      "inputs": [
        {
          "internalType": "address",
          "name": "account",
          "type": "address"
        },
        {
          "internalType": "uint32",
          "name": "pos",
          "type": "uint32"
        }
      ],
      "name": "checkpoints",
      "outputs": [
        {
          "components": [
            {
              "internalType": "uint256",
              "name": "fromTimestamp",
              "type": "uint256"
            },
            {
              "internalType": "uint224",
              "name": "votes",
              "type": "uint224"
            }
          ],
          "internalType": "struct ERC20VotesTimestamp.Checkpoint",
          "name": "",
          "type": "tuple"
        }
      ],
      "stateMutability": "view",
      "type": "function"
    },
    {
      "inputs": [],
      "name": "decimals",
      "outputs": [
        {
          "internalType": "uint8",
          "name": "",
          "type": "uint8"
        }
      ],
      "stateMutability": "view",
      "type": "function"
    },
    {
      "inputs": [
        {
          "internalType": "address",
          "name": "spender",
          "type": "address"
        },
        {
          "internalType": "uint256",
          "name": "subtractedValue",
          "type": "uint256"
        }
      ],
      "name": "decreaseAllowance",
      "outputs": [
        {
          "internalType": "bool",
          "name": "",
          "type": "bool"
        }
      ],
      "stateMutability": "nonpayable",
      "type": "function"
    },
    {
      "inputs": [
        {
          "internalType": "address",
          "name": "delegatee",
          "type": "address"
        }
      ],
      "name": "delegate",
      "outputs": [],
      "stateMutability": "nonpayable",
      "type": "function"
    },
    {
      "inputs": [
        {
          "internalType": "address",
          "name": "delegatee",
          "type": "address"
        },
        {
          "internalType": "uint256",
          "name": "nonce",
          "type": "uint256"
        },
        {
          "internalType": "uint256",
          "name": "expiry",
          "type": "uint256"
        },
        {
          "internalType": "uint8",
          "name": "v",
          "type": "uint8"
        },
        {
          "internalType": "bytes32",
          "name": "r",
          "type": "bytes32"
        },
        {
          "internalType": "bytes32",
          "name": "s",
          "type": "bytes32"
        }
      ],
      "name": "delegateBySig",
      "outputs": [],
      "stateMutability": "nonpayable",
      "type": "function"
    },
    {
      "inputs": [
        {
          "internalType": "address",
          "name": "account",
          "type": "address"
        }
      ],
      "name": "delegates",
      "outputs": [
        {
          "internalType": "address",
          "name": "",
          "type": "address"
        }
      ],
      "stateMutability": "view",
      "type": "function"
    },
    {
      "inputs": [
        {
          "internalType": "address",
          "name": "account",
          "type": "address"
        },
        {
          "internalType": "uint256",
          "name": "amount",
          "type": "uint256"
        }
      ],
      "name": "depositFor",
      "outputs": [
        {
          "internalType": "bool",
          "name": "",
          "type": "bool"
        }
      ],
      "stateMutability": "nonpayable",
      "type": "function"
    },
    {
      "inputs": [
        {
          "internalType": "uint256",
          "name": "timestamp",
          "type": "uint256"
        }
      ],
      "name": "getPastTotalSupply",
      "outputs": [
        {
          "internalType": "uint256",
          "name": "",
          "type": "uint256"
        }
      ],
      "stateMutability": "view",
      "type": "function"
    },
    {
      "inputs": [
        {
          "internalType": "address",
          "name": "account",
          "type": "address"
        },
        {
          "internalType": "uint256",
          "name": "timestamp",
          "type": "uint256"
        }
      ],
      "name": "getPastVotes",
      "outputs": [
        {
          "internalType": "uint256",
          "name": "",
          "type": "uint256"
        }
      ],
      "stateMutability": "view",
      "type": "function"
    },
    {
      "inputs": [
        {
          "internalType": "address",
          "name": "account",
          "type": "address"
        }
      ],
      "name": "getVotes",
      "outputs": [
        {
          "internalType": "uint256",
          "name": "",
          "type": "uint256"
        }
      ],
      "stateMutability": "view",
      "type": "function"
    },
    {
      "inputs": [
        {
          "internalType": "address",
          "name": "spender",
          "type": "address"
        },
        {
          "internalType": "uint256",
          "name": "addedValue",
          "type": "uint256"
        }
      ],
      "name": "increaseAllowance",
      "outputs": [
        {
          "internalType": "bool",
          "name": "",
          "type": "bool"
        }
      ],
      "stateMutability": "nonpayable",
      "type": "function"
    },
    {
      "inputs": [],
      "name": "name",
      "outputs": [
        {
          "internalType": "string",
          "name": "",
          "type": "string"
        }
      ],
      "stateMutability": "view",
      "type": "function"
    },
    {
      "inputs": [
        {
          "internalType": "address",
          "name": "owner",
          "type": "address"
        }
      ],
      "name": "nonces",
      "outputs": [
        {
          "internalType": "uint256",
          "name": "",
          "type": "uint256"
        }
      ],
      "stateMutability": "view",
      "type": "function"
    },
    {
      "inputs": [
        {
          "internalType": "address",
          "name": "account",
          "type": "address"
        }
      ],
      "name": "numCheckpoints",
      "outputs": [
        {
          "internalType": "uint32",
          "name": "",
          "type": "uint32"
        }
      ],
      "stateMutability": "view",
      "type": "function"
    },
    {
      "inputs": [
        {
          "internalType": "address",
          "name": "owner",
          "type": "address"
        },
        {
          "internalType": "address",
          "name": "spender",
          "type": "address"
        },
        {
          "internalType": "uint256",
          "name": "value",
          "type": "uint256"
        },
        {
          "internalType": "uint256",
          "name": "deadline",
          "type": "uint256"
        },
        {
          "internalType": "uint8",
          "name": "v",
          "type": "uint8"
        },
        {
          "internalType": "bytes32",
          "name": "r",
          "type": "bytes32"
        },
        {
          "internalType": "bytes32",
          "name": "s",
          "type": "bytes32"
        }
      ],
      "name": "permit",
      "outputs": [],
      "stateMutability": "nonpayable",
      "type": "function"
    },
    {
      "inputs": [],
      "name": "symbol",
      "outputs": [
        {
          "internalType": "string",
          "name": "",
          "type": "string"
        }
      ],
      "stateMutability": "view",
      "type": "function"
    },
    {
      "inputs": [],
      "name": "totalSupply",
      "outputs": [
        {
          "internalType": "uint256",
          "name": "",
          "type": "uint256"
        }
      ],
      "stateMutability": "view",
      "type": "function"
    },
    {
      "inputs": [
        {
          "internalType": "address",
          "name": "to",
          "type": "address"
        },
        {
          "internalType": "uint256",
          "name": "amount",
          "type": "uint256"
        }
      ],
      "name": "transfer",
      "outputs": [
        {
          "internalType": "bool",
          "name": "",
          "type": "bool"
        }
      ],
      "stateMutability": "nonpayable",
      "type": "function"
    },
    {
      "inputs": [
        {
          "internalType": "address",
          "name": "from",
          "type": "address"
        },
        {
          "internalType": "address",
          "name": "to",
          "type": "address"
        },
        {
          "internalType": "uint256",
          "name": "amount",
          "type": "uint256"
        }
      ],
      "name": "transferFrom",
      "outputs": [
        {
          "internalType": "bool",
          "name": "",
          "type": "bool"
        }
      ],
      "stateMutability": "nonpayable",
      "type": "function"
    },
    {
      "inputs": [],
      "name": "underlying",
      "outputs": [
        {
          "internalType": "contract IERC20",
          "name": "",
          "type": "address"
        }
      ],
      "stateMutability": "view",
      "type": "function"
    },
    {
      "inputs": [
        {
          "internalType": "address",
          "name": "account",
          "type": "address"
        },
        {
          "internalType": "uint256",
          "name": "amount",
          "type": "uint256"
        }
      ],
      "name": "withdrawTo",
      "outputs": [
        {
          "internalType": "bool",
          "name": "",
          "type": "bool"
        }
      ],
      "stateMutability": "nonpayable",
      "type": "function"
    }
  ],
  "bytecode": "0x6101806040527f6e71edae12b1b97f4d1f60370fef10105fa2faae0126114a169c64845d6126c9610160523480156200003757600080fd5b50604051620028f8380380620028f88339810160408190526200005a91620002e4565b808380604051806040016040528060018152602001603160f81b8152508787878160039080519060200190620000929291906200018b565b508051620000a89060049060208401906200018b565b50505060601b6001600160601b03191660805281516020808401919091208251918301919091206101008290526101208190524660c0527f8b73c3c69bb8fe3d512ecc4cf759cc79239f7b179b0ffacaa9a75d522b39400f620001508184846040805160208101859052908101839052606081018290524660808201523060a082015260009060c0016040516020818303038152906040528051906020012090509392505050565b60a0523060601b60e05261014052505060098054941515600160a01b0260ff60a01b199095169490941790935550620003d595505050505050565b828054620001999062000382565b90600052602060002090601f016020900481019282620001bd576000855562000208565b82601f10620001d857805160ff191683800117855562000208565b8280016001018555821562000208579182015b8281111562000208578251825591602001919060010190620001eb565b50620002169291506200021a565b5090565b5b808211156200021657600081556001016200021b565b600082601f83011262000242578081fd5b81516001600160401b03808211156200025f576200025f620003bf565b604051601f8301601f19908116603f011681019082821181831017156200028a576200028a620003bf565b81604052838152602092508683858801011115620002a6578485fd5b8491505b83821015620002c95785820183015181830184015290820190620002aa565b83821115620002da57848385830101525b9695505050505050565b60008060008060808587031215620002fa578384fd5b84516001600160a01b038116811462000311578485fd5b60208601519094506001600160401b03808211156200032e578485fd5b6200033c8883890162000231565b9450604087015191508082111562000352578384fd5b50620003618782880162000231565b9250506060850151801515811462000377578182fd5b939692955090935050565b600181811c908216806200039757607f821691505b60208210811415620003b957634e487b7160e01b600052602260045260246000fd5b50919050565b634e487b7160e01b600052604160045260246000fd5b60805160601c60a05160c05160e05160601c610100516101205161014051610160516124a26200045660003960006109a5015260006110c601526000611115015260006110f001526000611049015260006110730152600061109d0152600081816102da015281816104f30152818161054f0152610fa601526124a26000f3fe608060405234801561001057600080fd5b50600436106101a95760003560e01c80636f307dc3116100f95780639ab24eb011610097578063c3cda52011610071578063c3cda520146103c8578063d505accf146103db578063dd62ed3e146103ee578063f1127ed81461040157600080fd5b80639ab24eb01461038f578063a457c2d7146103a2578063a9059cbb146103b557600080fd5b806370a08231116100d357806370a08231146103385780637ecebe00146103615780638e539e8c1461037457806395d89b411461038757600080fd5b80636f307dc3146102d55780636fcfff45146102fc578063709f69501461032457600080fd5b8063313ce567116101665780633a46b1a8116101405780633a46b1a81461026f578063578ec33f14610282578063587cde1e146102ad5780635c19a95c146102c057600080fd5b8063313ce5671461023a5780633644e51514610254578063395093511461025c57600080fd5b806306fdde03146101ae578063095ea7b3146101cc57806318160ddd146101ef578063205c28781461020157806323b872dd146102145780632f4f21e214610227575b600080fd5b6101b6610438565b6040516101c3919061231c565b60405180910390f35b6101df6101da3660046121ec565b6104ca565b60405190151581526020016101c3565b6002545b6040519081526020016101c3565b6101df61020f3660046121ec565b6104e2565b6101df610222366004612145565b610522565b6101df6102353660046121ec565b610548565b610242610580565b60405160ff90911681526020016101c3565b6101f361058f565b6101df61026a3660046121ec565b610599565b6101f361027d3660046121ec565b6105bb565b600954610295906001600160a01b031681565b6040516001600160a01b0390911681526020016101c3565b6102956102bb3660046120f9565b610607565b6102d36102ce3660046120f9565b610650565b005b6102957f000000000000000000000000000000000000000000000000000000000000000081565b61030f61030a3660046120f9565b61065d565b60405163ffffffff90911681526020016101c3565b6009546101df90600160a01b900460ff1681565b6101f36103463660046120f9565b6001600160a01b031660009081526020819052604090205490565b6101f361036f3660046120f9565b61067f565b6101f36103823660046122cc565b61069d565b6101b66106c9565b6101f361039d3660046120f9565b6106d8565b6101df6103b03660046121ec565b61076d565b6101df6103c33660046121ec565b6107f3565b6102d36103d6366004612215565b610801565b6102d36103e9366004612180565b610951565b6101f36103fc366004612113565b610ab5565b61041461040f36600461226e565b610ae0565b60408051825181526020928301516001600160e01b031692810192909252016101c3565b60606003805461044790612412565b80601f016020809104026020016040519081016040528092919081815260200182805461047390612412565b80156104c05780601f10610495576101008083540402835291602001916104c0565b820191906000526020600020905b8154815290600101906020018083116104a357829003601f168201915b5050505050905090565b6000336104d8818585610b6d565b5060019392505050565b60006104ee3383610c91565b6105197f00000000000000000000000000000000000000000000000000000000000000008484610c9f565b50600192915050565b600033610530858285610d07565b61053b858585610d81565b60019150505b9392505050565b60006105767f0000000000000000000000000000000000000000000000000000000000000000333085610f60565b6105198383610f98565b600061058a610fa2565b905090565b600061058a61103c565b6000336104d88185856105ac8383610ab5565b6105b69190612397565b610b6d565b60004282106105e55760405162461bcd60e51b81526004016105dc9061234f565b60405180910390fd5b6001600160a01b03831660009081526007602052604090206105419083611163565b6001600160a01b0381811660009081526006602052604081205490911661062e578161064a565b6001600160a01b03808316600090815260066020526040902054165b92915050565b61065a338261123c565b50565b6001600160a01b03811660009081526007602052604081205461064a906112d2565b6001600160a01b03811660009081526005602052604081205461064a565b60004282106106be5760405162461bcd60e51b81526004016105dc9061234f565b61064a600883611163565b60606004805461044790612412565b6001600160a01b038116600090815260076020526040812054801561075a576001600160a01b038316600090815260076020526040902061071a6001836123cf565b8154811061073857634e487b7160e01b600052603260045260246000fd5b60009182526020909120600160029092020101546001600160e01b031661075d565b60005b6001600160e01b03169392505050565b6000338161077b8286610ab5565b9050838110156107db5760405162461bcd60e51b815260206004820152602560248201527f45524332303a2064656372656173656420616c6c6f77616e63652062656c6f77604482015264207a65726f60d81b60648201526084016105dc565b6107e88286868403610b6d565b506001949350505050565b6000336104d8818585610d81565b834211156108605760405162461bcd60e51b815260206004820152602660248201527f4552433230566f74657354696d657374616d703a207369676e617475726520656044820152651e1c1a5c995960d21b60648201526084016105dc565b604080517fe48329057bfd03d55e49b547132e39cffd9c1820ad7b9d4c5307691425d15adf60208201526001600160a01b0388169181019190915260608101869052608081018590526000906108da906108d29060a0016040516020818303038152906040528051906020012061133b565b858585611389565b90506108e5816113b1565b861461093e5760405162461bcd60e51b815260206004820152602260248201527f4552433230566f74657354696d657374616d703a20696e76616c6964206e6f6e604482015261636560f01b60648201526084016105dc565b610948818861123c565b50505050505050565b834211156109a15760405162461bcd60e51b815260206004820152601d60248201527f45524332305065726d69743a206578706972656420646561646c696e6500000060448201526064016105dc565b60007f00000000000000000000000000000000000000000000000000000000000000008888886109d08c6113b1565b6040805160208101969096526001600160a01b0394851690860152929091166060840152608083015260a082015260c0810186905260e0016040516020818303038152906040528051906020012090506000610a2b8261133b565b90506000610a3b82878787611389565b9050896001600160a01b0316816001600160a01b031614610a9e5760405162461bcd60e51b815260206004820152601e60248201527f45524332305065726d69743a20696e76616c6964207369676e6174757265000060448201526064016105dc565b610aa98a8a8a610b6d565b50505050505050505050565b6001600160a01b03918216600090815260016020908152604080832093909416825291909152205490565b60408051808201909152600080825260208201526001600160a01b0383166000908152600760205260409020805463ffffffff8416908110610b3257634e487b7160e01b600052603260045260246000fd5b60009182526020918290206040805180820190915260029092020180548252600101546001600160e01b031691810191909152905092915050565b6001600160a01b038316610bcf5760405162461bcd60e51b8152602060048201526024808201527f45524332303a20617070726f76652066726f6d20746865207a65726f206164646044820152637265737360e01b60648201526084016105dc565b6001600160a01b038216610c305760405162461bcd60e51b815260206004820152602260248201527f45524332303a20617070726f766520746f20746865207a65726f206164647265604482015261737360f01b60648201526084016105dc565b6001600160a01b0383811660008181526001602090815260408083209487168084529482529182902085905590518481527f8c5be1e5ebec7d5bd14f71427d1e84f3dd0314c0f7b2291e5b200ac8c7c3b925910160405180910390a3505050565b610c9b82826113d9565b5050565b6040516001600160a01b038316602482015260448101829052610d0290849063a9059cbb60e01b906064015b60408051601f198184030181529190526020810180516001600160e01b03166001600160e01b0319909316929092179091526113f1565b505050565b6000610d138484610ab5565b90506000198114610d7b5781811015610d6e5760405162461bcd60e51b815260206004820152601d60248201527f45524332303a20696e73756666696369656e7420616c6c6f77616e636500000060448201526064016105dc565b610d7b8484848403610b6d565b50505050565b6001600160a01b038316610de55760405162461bcd60e51b815260206004820152602560248201527f45524332303a207472616e736665722066726f6d20746865207a65726f206164604482015264647265737360d81b60648201526084016105dc565b6001600160a01b038216610e475760405162461bcd60e51b815260206004820152602360248201527f45524332303a207472616e7366657220746f20746865207a65726f206164647260448201526265737360e81b60648201526084016105dc565b610e528383836114c3565b6001600160a01b03831660009081526020819052604090205481811015610eca5760405162461bcd60e51b815260206004820152602660248201527f45524332303a207472616e7366657220616d6f756e7420657863656564732062604482015265616c616e636560d01b60648201526084016105dc565b6001600160a01b03808516600090815260208190526040808220858503905591851681529081208054849290610f01908490612397565b92505081905550826001600160a01b0316846001600160a01b03167fddf252ad1be2c89b69c2b068fc378daa952ba7f163c4a11628f55a4df523b3ef84604051610f4d91815260200190565b60405180910390a3610d7b8484846114ce565b6040516001600160a01b0380851660248301528316604482015260648101829052610d7b9085906323b872dd60e01b90608401610ccb565b610c9b82826114d9565b60007f00000000000000000000000000000000000000000000000000000000000000006001600160a01b031663313ce5676040518163ffffffff1660e01b815260040160206040518083038186803b158015610ffd57600080fd5b505afa92505050801561102d575060408051601f3d908101601f1916820190925261102a918101906122e4565b60015b6110375750601290565b919050565b6000306001600160a01b037f00000000000000000000000000000000000000000000000000000000000000001614801561109557507f000000000000000000000000000000000000000000000000000000000000000046145b156110bf57507f000000000000000000000000000000000000000000000000000000000000000090565b50604080517f00000000000000000000000000000000000000000000000000000000000000006020808301919091527f0000000000000000000000000000000000000000000000000000000000000000828401527f000000000000000000000000000000000000000000000000000000000000000060608301524660808301523060a0808401919091528351808403909101815260c0909201909252805191012090565b8154600090815b818110156111d557600061117e828461158b565b9050848682815481106111a157634e487b7160e01b600052603260045260246000fd5b90600052602060002090600202016000015411156111c1578092506111cf565b6111cc816001612397565b91505b5061116a565b811561122757846111e76001846123cf565b8154811061120557634e487b7160e01b600052603260045260246000fd5b60009182526020909120600160029092020101546001600160e01b031661122a565b60005b6001600160e01b031695945050505050565b600061124783610607565b9050600061126a846001600160a01b031660009081526020819052604090205490565b6001600160a01b0385811660008181526006602052604080822080546001600160a01b031916898616908117909155905194955093928616927f3134e8a2e6d97e929a7e54011ea5485d7d196dd5f0ba4d4ef95803e8e3fc257f9190a4610d7b8284836115a6565b600063ffffffff8211156113375760405162461bcd60e51b815260206004820152602660248201527f53616665436173743a2076616c756520646f65736e27742066697420696e203360448201526532206269747360d01b60648201526084016105dc565b5090565b600061064a61134861103c565b8360405161190160f01b6020820152602281018390526042810182905260009060620160405160208183030381529060405280519060200120905092915050565b600080600061139a878787876116e3565b915091506113a7816117d0565b5095945050505050565b6001600160a01b03811660009081526005602052604090208054600181018255905b50919050565b6113e382826119d1565b610d7b6008611b3283611b3e565b6000611446826040518060400160405280602081526020017f5361666545524332303a206c6f772d6c6576656c2063616c6c206661696c6564815250856001600160a01b0316611ce19092919063ffffffff16565b805190915015610d02578080602001905181019061146491906122ac565b610d025760405162461bcd60e51b815260206004820152602a60248201527f5361666545524332303a204552433230206f7065726174696f6e20646964206e6044820152691bdd081cdd58d8d9595960b21b60648201526084016105dc565b610d02838383611cf8565b610d02838383611df5565b6114e38282611e10565b6002546001600160e01b0310156115625760405162461bcd60e51b815260206004820152603960248201527f4552433230566f74657354696d657374616d703a20746f74616c20737570706c60448201527f79207269736b73206f766572666c6f77696e6720766f7465730000000000000060648201526084016105dc565b600980546001600160a01b0319166001600160a01b038416179055610d7b6008611f0383611b3e565b600061159a60028484186123af565b61054190848416612397565b816001600160a01b0316836001600160a01b0316141580156115c85750600081115b15610d02576001600160a01b03831615611656576001600160a01b0383166000908152600760205260408120819061160390611b3285611b3e565b91509150846001600160a01b03167fdec2bacdd2f05b59de34da9b523dff8be42e5e38e818c82fdb0bae774387a724838360405161164b929190918252602082015260400190565b60405180910390a250505b6001600160a01b03821615610d02576001600160a01b0382166000908152600760205260408120819061168c90611f0385611b3e565b91509150836001600160a01b03167fdec2bacdd2f05b59de34da9b523dff8be42e5e38e818c82fdb0bae774387a72483836040516116d4929190918252602082015260400190565b60405180910390a25050505050565b6000807f7fffffffffffffffffffffffffffffff5d576e7357a4501ddfe92f46681b20a083111561171a57506000905060036117c7565b8460ff16601b1415801561173257508460ff16601c14155b1561174357506000905060046117c7565b6040805160008082526020820180845289905260ff881692820192909252606081018690526080810185905260019060a0016020604051602081039080840390855afa158015611797573d6000803e3d6000fd5b5050604051601f1901519150506001600160a01b0381166117c0576000600192509250506117c7565b9150600090505b94509492505050565b60008160048111156117f257634e487b7160e01b600052602160045260246000fd5b14156117fb5750565b600181600481111561181d57634e487b7160e01b600052602160045260246000fd5b141561186b5760405162461bcd60e51b815260206004820152601860248201527f45434453413a20696e76616c6964207369676e6174757265000000000000000060448201526064016105dc565b600281600481111561188d57634e487b7160e01b600052602160045260246000fd5b14156118db5760405162461bcd60e51b815260206004820152601f60248201527f45434453413a20696e76616c6964207369676e6174757265206c656e6774680060448201526064016105dc565b60038160048111156118fd57634e487b7160e01b600052602160045260246000fd5b14156119565760405162461bcd60e51b815260206004820152602260248201527f45434453413a20696e76616c6964207369676e6174757265202773272076616c604482015261756560f01b60648201526084016105dc565b600481600481111561197857634e487b7160e01b600052602160045260246000fd5b141561065a5760405162461bcd60e51b815260206004820152602260248201527f45434453413a20696e76616c6964207369676e6174757265202776272076616c604482015261756560f01b60648201526084016105dc565b6001600160a01b038216611a315760405162461bcd60e51b815260206004820152602160248201527f45524332303a206275726e2066726f6d20746865207a65726f206164647265736044820152607360f81b60648201526084016105dc565b611a3d826000836114c3565b6001600160a01b03821660009081526020819052604090205481811015611ab15760405162461bcd60e51b815260206004820152602260248201527f45524332303a206275726e20616d6f756e7420657863656564732062616c616e604482015261636560f01b60648201526084016105dc565b6001600160a01b0383166000908152602081905260408120838303905560028054849290611ae09084906123cf565b90915550506040518281526000906001600160a01b038516907fddf252ad1be2c89b69c2b068fc378daa952ba7f163c4a11628f55a4df523b3ef9060200160405180910390a3610d02836000846114ce565b600061054182846123cf565b825460009081908015611b975785611b576001836123cf565b81548110611b7557634e487b7160e01b600052603260045260246000fd5b60009182526020909120600160029092020101546001600160e01b0316611b9a565b60005b6001600160e01b03169250611bb383858763ffffffff16565b9150600081118015611bff57504286611bcd6001846123cf565b81548110611beb57634e487b7160e01b600052603260045260246000fd5b906000526020600020906002020160000154145b15611c7157611c0d82611f0f565b86611c196001846123cf565b81548110611c3757634e487b7160e01b600052603260045260246000fd5b906000526020600020906002020160010160006101000a8154816001600160e01b0302191690836001600160e01b03160217905550611cd8565b856040518060400160405280428152602001611c8c85611f0f565b6001600160e01b03908116909152825460018181018555600094855260209485902084516002909302019182559390920151919092018054919092166001600160e01b03199091161790555b50935093915050565b6060611cf08484600085611f78565b949350505050565b600954600160a01b900460ff1615610d02576009546001600160a01b0384811691161480611d3c5750600954600090611d3a906001600160a01b031685610ab5565b115b80611d4e57506001600160a01b038316155b610d025760405162461bcd60e51b815260206004820152606660248201527f4552433230566f74657354696d657374616d703a20746f6b656e206973206e6f60448201527f6e2d7472616e7366657261626c6520756e6c6573732066726f6d206d696e746560648201527f72206f7220616e206164647265737320617070726f766564206279207468652060848201526536b4b73a32b960d11b60a482015260c4016105dc565b610d02611e0184610607565b611e0a84610607565b836115a6565b6001600160a01b038216611e665760405162461bcd60e51b815260206004820152601f60248201527f45524332303a206d696e7420746f20746865207a65726f20616464726573730060448201526064016105dc565b611e72600083836114c3565b8060026000828254611e849190612397565b90915550506001600160a01b03821660009081526020819052604081208054839290611eb1908490612397565b90915550506040518181526001600160a01b038316906000907fddf252ad1be2c89b69c2b068fc378daa952ba7f163c4a11628f55a4df523b3ef9060200160405180910390a3610c9b600083836114ce565b60006105418284612397565b60006001600160e01b038211156113375760405162461bcd60e51b815260206004820152602760248201527f53616665436173743a2076616c756520646f65736e27742066697420696e20326044820152663234206269747360c81b60648201526084016105dc565b606082471015611fd95760405162461bcd60e51b815260206004820152602660248201527f416464726573733a20696e73756666696369656e742062616c616e636520666f6044820152651c8818d85b1b60d21b60648201526084016105dc565b6001600160a01b0385163b6120305760405162461bcd60e51b815260206004820152601d60248201527f416464726573733a2063616c6c20746f206e6f6e2d636f6e747261637400000060448201526064016105dc565b600080866001600160a01b0316858760405161204c9190612300565b60006040518083038185875af1925050503d8060008114612089576040519150601f19603f3d011682016040523d82523d6000602084013e61208e565b606091505b509150915061209e8282866120a9565b979650505050505050565b606083156120b8575081610541565b8251156120c85782518084602001fd5b8160405162461bcd60e51b81526004016105dc919061231c565b80356001600160a01b038116811461103757600080fd5b60006020828403121561210a578081fd5b610541826120e2565b60008060408385031215612125578081fd5b61212e836120e2565b915061213c602084016120e2565b90509250929050565b600080600060608486031215612159578081fd5b612162846120e2565b9250612170602085016120e2565b9150604084013590509250925092565b600080600080600080600060e0888a03121561219a578283fd5b6121a3886120e2565b96506121b1602089016120e2565b9550604088013594506060880135935060808801356121cf8161245d565b9699959850939692959460a0840135945060c09093013592915050565b600080604083850312156121fe578182fd5b612207836120e2565b946020939093013593505050565b60008060008060008060c0878903121561222d578182fd5b612236876120e2565b9550602087013594506040870135935060608701356122548161245d565b9598949750929560808101359460a0909101359350915050565b60008060408385031215612280578182fd5b612289836120e2565b9150602083013563ffffffff811681146122a1578182fd5b809150509250929050565b6000602082840312156122bd578081fd5b81518015158114610541578182fd5b6000602082840312156122dd578081fd5b5035919050565b6000602082840312156122f5578081fd5b81516105418161245d565b600082516123128184602087016123e6565b9190910192915050565b602081526000825180602084015261233b8160408501602087016123e6565b601f01601f19169190910160400192915050565b60208082526028908201527f4552433230566f74657354696d657374616d703a20626c6f636b206e6f742079604082015267195d081b5a5b995960c21b606082015260800190565b600082198211156123aa576123aa612447565b500190565b6000826123ca57634e487b7160e01b81526012600452602481fd5b500490565b6000828210156123e1576123e1612447565b500390565b60005b838110156124015781810151838201526020016123e9565b83811115610d7b5750506000910152565b600181811c9082168061242657607f821691505b602082108114156113d357634e487b7160e01b600052602260045260246000fd5b634e487b7160e01b600052601160045260246000fd5b60ff8116811461065a57600080fdfea264697066735822122092b4d5ed686afc4dd772b54acfc88f7e87714e44ba5b3d7892e88596c6fe3c5f64736f6c63430008040033",
  "linkReferences": {},
  "deployedLinkReferences": {}
}