{
  "abi": [
    {
      "inputs": [
        {
          "internalType": "string",
          "name": "_name",
          "type": "string"
        },
        {
          "internalType": "string",
          "name": "_prompt",
          "type": "string"
        },
        {
          "internalType": "bytes32",
          "name": "_submissionMerkleRoot",
          "type": "bytes32"
        },
        {
          "internalType": "bytes32",
          "name": "_votingMerkleRoot",
          "type": "bytes32"
        },
        {
          "internalType": "uint256",
          "name": "_costToPropose",
          "type": "uint256"
        },
        {
          "internalType": "uint256[]",
          "name": "_constructorIntParams",
          "type": "uint256[]"
        }
      ],
      "stateMutability": "nonpayable",
      "type": "constructor"
    },
    {
      "inputs": [],
      "name": "InvalidShortString",
      "type": "error"
    },
    {
      "inputs": [],
      "name": "NotInMerkle",
      "type": "error"
    },
    {
      "inputs": [
        {
          "internalType": "string",
          "name": "str",
          "type": "string"
        }
      ],
      "name": "StringTooLong",
      "type": "error"
    },
    {
      "inputs": [],
      "name": "TooManyMetadatas",
      "type": "error"
    },
    {
      "anonymous": false,
      "inputs": [],
      "name": "ContestCanceled",
      "type": "event"
    },
    {
      "anonymous": false,
      "inputs": [
        {
          "indexed": false,
          "internalType": "uint256",
          "name": "oldContestStart",
          "type": "uint256"
        },
        {
          "indexed": false,
          "internalType": "uint256",
          "name": "newContestStart",
          "type": "uint256"
        }
      ],
      "name": "ContestStartSet",
      "type": "event"
    },
    {
      "anonymous": false,
      "inputs": [
        {
          "indexed": false,
          "internalType": "address",
          "name": "oldCreator",
          "type": "address"
        },
        {
          "indexed": false,
          "internalType": "address",
          "name": "newCreator",
          "type": "address"
        }
      ],
      "name": "CreatorSet",
      "type": "event"
    },
    {
      "anonymous": false,
      "inputs": [
        {
          "indexed": false,
          "internalType": "uint256",
          "name": "oldDownvotingAllowed",
          "type": "uint256"
        },
        {
          "indexed": false,
          "internalType": "uint256",
          "name": "newDownvotingAllowed",
          "type": "uint256"
        }
      ],
      "name": "DownvotingAllowedSet",
      "type": "event"
    },
    {
      "anonymous": false,
      "inputs": [],
      "name": "EIP712DomainChanged",
      "type": "event"
    },
    {
      "anonymous": false,
      "inputs": [
        {
          "indexed": false,
          "internalType": "uint256",
          "name": "oldMaxProposalCount",
          "type": "uint256"
        },
        {
          "indexed": false,
          "internalType": "uint256",
          "name": "newMaxProposalCount",
          "type": "uint256"
        }
      ],
      "name": "MaxProposalCountSet",
      "type": "event"
    },
    {
      "anonymous": false,
      "inputs": [
        {
          "indexed": false,
          "internalType": "uint256",
          "name": "oldNumAllowedProposalSubmissions",
          "type": "uint256"
        },
        {
          "indexed": false,
          "internalType": "uint256",
          "name": "newNumAllowedProposalSubmissions",
          "type": "uint256"
        }
      ],
      "name": "NumAllowedProposalSubmissionsSet",
      "type": "event"
    },
    {
      "anonymous": false,
      "inputs": [
        {
          "indexed": false,
          "internalType": "contract RewardsModule",
          "name": "oldOfficialRewardsModule",
          "type": "address"
        },
        {
          "indexed": false,
          "internalType": "contract RewardsModule",
          "name": "newOfficialRewardsModule",
          "type": "address"
        }
      ],
      "name": "OfficialRewardsModuleSet",
      "type": "event"
    },
    {
      "anonymous": false,
      "inputs": [
        {
          "indexed": false,
          "internalType": "uint256",
          "name": "proposalId",
          "type": "uint256"
        },
        {
          "indexed": false,
          "internalType": "address",
          "name": "proposer",
          "type": "address"
        }
      ],
      "name": "ProposalCreated",
      "type": "event"
    },
    {
      "anonymous": false,
      "inputs": [
        {
          "indexed": false,
          "internalType": "uint256[]",
          "name": "proposalIds",
          "type": "uint256[]"
        }
      ],
      "name": "ProposalsDeleted",
      "type": "event"
    },
    {
      "anonymous": false,
      "inputs": [
        {
          "indexed": true,
          "internalType": "address",
          "name": "voter",
          "type": "address"
        },
        {
          "indexed": false,
          "internalType": "uint256",
          "name": "proposalId",
          "type": "uint256"
        },
        {
          "indexed": false,
          "internalType": "uint8",
          "name": "support",
          "type": "uint8"
        },
        {
          "indexed": false,
          "internalType": "uint256",
          "name": "numVotes",
          "type": "uint256"
        },
        {
          "indexed": false,
          "internalType": "string",
          "name": "reason",
          "type": "string"
        }
      ],
      "name": "VoteCast",
      "type": "event"
    },
    {
      "anonymous": false,
      "inputs": [
        {
          "indexed": false,
          "internalType": "uint256",
          "name": "oldVotingDelay",
          "type": "uint256"
        },
        {
          "indexed": false,
          "internalType": "uint256",
          "name": "newVotingDelay",
          "type": "uint256"
        }
      ],
      "name": "VotingDelaySet",
      "type": "event"
    },
    {
      "anonymous": false,
      "inputs": [
        {
          "indexed": false,
          "internalType": "uint256",
          "name": "oldVotingPeriod",
          "type": "uint256"
        },
        {
          "indexed": false,
          "internalType": "uint256",
          "name": "newVotingPeriod",
          "type": "uint256"
        }
      ],
      "name": "VotingPeriodSet",
      "type": "event"
    },
    {
      "inputs": [],
      "name": "AMOUNT_FOR_SUMBITTER_PROOF",
      "outputs": [
        {
          "internalType": "uint256",
          "name": "",
          "type": "uint256"
        }
      ],
      "stateMutability": "view",
      "type": "function"
    },
    {
      "inputs": [],
      "name": "BALLOT_TYPEHASH",
      "outputs": [
        {
          "internalType": "bytes32",
          "name": "",
          "type": "bytes32"
        }
      ],
      "stateMutability": "view",
      "type": "function"
    },
    {
      "inputs": [],
      "name": "COUNTING_MODE",
      "outputs": [
        {
          "internalType": "string",
          "name": "",
          "type": "string"
        }
      ],
      "stateMutability": "pure",
      "type": "function"
    },
    {
      "inputs": [],
      "name": "METADATAS_COUNT",
      "outputs": [
        {
          "internalType": "uint256",
          "name": "",
          "type": "uint256"
        }
      ],
      "stateMutability": "view",
      "type": "function"
    },
    {
      "inputs": [
        {
          "internalType": "address",
          "name": "",
          "type": "address"
        }
      ],
      "name": "addressSubmitterVerified",
      "outputs": [
        {
          "internalType": "bool",
          "name": "",
          "type": "bool"
        }
      ],
      "stateMutability": "view",
      "type": "function"
    },
    {
      "inputs": [
        {
          "internalType": "address",
          "name": "",
          "type": "address"
        }
      ],
      "name": "addressTotalCastVoteCounts",
      "outputs": [
        {
          "internalType": "uint256",
          "name": "",
          "type": "uint256"
        }
      ],
      "stateMutability": "view",
      "type": "function"
    },
    {
      "inputs": [
        {
          "internalType": "address",
          "name": "",
          "type": "address"
        }
      ],
      "name": "addressTotalVotes",
      "outputs": [
        {
          "internalType": "uint256",
          "name": "",
          "type": "uint256"
        }
      ],
      "stateMutability": "view",
      "type": "function"
    },
    {
      "inputs": [
        {
          "internalType": "address",
          "name": "",
          "type": "address"
        }
      ],
      "name": "addressTotalVotesVerified",
      "outputs": [
        {
          "internalType": "bool",
          "name": "",
          "type": "bool"
        }
      ],
      "stateMutability": "view",
      "type": "function"
    },
    {
      "inputs": [],
      "name": "allProposalTotalVotes",
      "outputs": [
        {
          "internalType": "uint256[]",
          "name": "proposalIdsReturn",
          "type": "uint256[]"
        },
        {
          "components": [
            {
              "internalType": "uint256",
              "name": "forVotes",
              "type": "uint256"
            },
            {
              "internalType": "uint256",
              "name": "againstVotes",
              "type": "uint256"
            }
          ],
          "internalType": "struct GovernorCountingSimple.VoteCounts[]",
          "name": "proposalVoteCountsArrayReturn",
          "type": "tuple[]"
        }
      ],
      "stateMutability": "view",
      "type": "function"
    },
    {
      "inputs": [],
      "name": "allProposalTotalVotesWithoutDeleted",
      "outputs": [
        {
          "internalType": "uint256[]",
          "name": "proposalIdsReturn",
          "type": "uint256[]"
        },
        {
          "components": [
            {
              "internalType": "uint256",
              "name": "forVotes",
              "type": "uint256"
            },
            {
              "internalType": "uint256",
              "name": "againstVotes",
              "type": "uint256"
            }
          ],
          "internalType": "struct GovernorCountingSimple.VoteCounts[]",
          "name": "proposalVoteCountsArrayReturn",
          "type": "tuple[]"
        }
      ],
      "stateMutability": "view",
      "type": "function"
    },
    {
      "inputs": [],
      "name": "cancel",
      "outputs": [],
      "stateMutability": "nonpayable",
      "type": "function"
    },
    {
      "inputs": [
        {
          "internalType": "uint256",
          "name": "proposalId",
          "type": "uint256"
        },
        {
          "internalType": "uint8",
          "name": "support",
          "type": "uint8"
        },
        {
          "internalType": "uint256",
          "name": "totalVotes",
          "type": "uint256"
        },
        {
          "internalType": "uint256",
          "name": "numVotes",
          "type": "uint256"
        },
        {
          "internalType": "bytes32[]",
          "name": "proof",
          "type": "bytes32[]"
        }
      ],
      "name": "castVote",
      "outputs": [
        {
          "internalType": "uint256",
          "name": "",
          "type": "uint256"
        }
      ],
      "stateMutability": "nonpayable",
      "type": "function"
    },
    {
      "inputs": [
        {
          "internalType": "uint256",
          "name": "proposalId",
          "type": "uint256"
        },
        {
          "internalType": "uint8",
          "name": "support",
          "type": "uint8"
        },
        {
          "internalType": "uint256",
          "name": "numVotes",
          "type": "uint256"
        }
      ],
      "name": "castVoteWithoutProof",
      "outputs": [
        {
          "internalType": "uint256",
          "name": "",
          "type": "uint256"
        }
      ],
      "stateMutability": "nonpayable",
      "type": "function"
    },
    {
      "inputs": [
        {
          "internalType": "address",
          "name": "addressToCheck",
          "type": "address"
        },
        {
          "internalType": "uint256",
          "name": "amount",
          "type": "uint256"
        },
        {
          "internalType": "bytes32[]",
          "name": "proof",
          "type": "bytes32[]"
        },
        {
          "internalType": "bool",
          "name": "voting",
          "type": "bool"
        }
      ],
      "name": "checkProof",
      "outputs": [
        {
          "internalType": "bool",
          "name": "verified",
          "type": "bool"
        }
      ],
      "stateMutability": "view",
      "type": "function"
    },
    {
      "inputs": [
        {
          "internalType": "address",
          "name": "userAddress",
          "type": "address"
        }
      ],
      "name": "contestAddressTotalVotesCast",
      "outputs": [
        {
          "internalType": "uint256",
          "name": "userTotalVotesCast",
          "type": "uint256"
        }
      ],
      "stateMutability": "view",
      "type": "function"
    },
    {
      "inputs": [],
      "name": "contestDeadline",
      "outputs": [
        {
          "internalType": "uint256",
          "name": "",
          "type": "uint256"
        }
      ],
      "stateMutability": "view",
      "type": "function"
    },
    {
      "inputs": [],
      "name": "contestStart",
      "outputs": [
        {
          "internalType": "uint256",
          "name": "",
          "type": "uint256"
        }
      ],
      "stateMutability": "view",
      "type": "function"
    },
    {
      "inputs": [],
      "name": "costToPropose",
      "outputs": [
        {
          "internalType": "uint256",
          "name": "",
          "type": "uint256"
        }
      ],
      "stateMutability": "view",
      "type": "function"
    },
    {
      "inputs": [],
      "name": "creator",
      "outputs": [
        {
          "internalType": "address",
          "name": "",
          "type": "address"
        }
      ],
      "stateMutability": "view",
      "type": "function"
    },
    {
      "inputs": [
        {
          "internalType": "uint256[]",
          "name": "proposalIds",
          "type": "uint256[]"
        }
      ],
      "name": "deleteProposals",
      "outputs": [],
      "stateMutability": "nonpayable",
      "type": "function"
    },
    {
      "inputs": [],
      "name": "downvotingAllowed",
      "outputs": [
        {
          "internalType": "uint256",
          "name": "",
          "type": "uint256"
        }
      ],
      "stateMutability": "view",
      "type": "function"
    },
    {
      "inputs": [],
      "name": "eip712Domain",
      "outputs": [
        {
          "internalType": "bytes1",
          "name": "fields",
          "type": "bytes1"
        },
        {
          "internalType": "string",
          "name": "name",
          "type": "string"
        },
        {
          "internalType": "string",
          "name": "version",
          "type": "string"
        },
        {
          "internalType": "uint256",
          "name": "chainId",
          "type": "uint256"
        },
        {
          "internalType": "address",
          "name": "verifyingContract",
          "type": "address"
        },
        {
          "internalType": "bytes32",
          "name": "salt",
          "type": "bytes32"
        },
        {
          "internalType": "uint256[]",
          "name": "extensions",
          "type": "uint256[]"
        }
      ],
      "stateMutability": "view",
      "type": "function"
    },
    {
      "inputs": [],
      "name": "getAllProposalIds",
      "outputs": [
        {
          "internalType": "uint256[]",
          "name": "",
          "type": "uint256[]"
        }
      ],
      "stateMutability": "view",
      "type": "function"
    },
    {
      "inputs": [
        {
          "internalType": "address",
          "name": "account",
          "type": "address"
        }
      ],
      "name": "getNumSubmissions",
      "outputs": [
        {
          "internalType": "uint256",
          "name": "",
          "type": "uint256"
        }
      ],
      "stateMutability": "view",
      "type": "function"
    },
    {
      "inputs": [
        {
          "internalType": "uint256",
          "name": "proposalId",
          "type": "uint256"
        }
      ],
      "name": "getProposal",
      "outputs": [
        {
          "components": [
            {
              "internalType": "address",
              "name": "author",
              "type": "address"
            },
            {
              "internalType": "bool",
              "name": "exists",
              "type": "bool"
            },
            {
              "internalType": "string",
              "name": "description",
              "type": "string"
            },
            {
              "components": [
                {
                  "internalType": "address",
                  "name": "targetAddress",
                  "type": "address"
                }
              ],
              "internalType": "struct IGovernor.TargetMetadata",
              "name": "targetMetadata",
              "type": "tuple"
            },
            {
              "components": [
                {
                  "internalType": "address[]",
                  "name": "signers",
                  "type": "address[]"
                },
                {
                  "internalType": "uint256",
                  "name": "threshold",
                  "type": "uint256"
                }
              ],
              "internalType": "struct IGovernor.SafeMetadata",
              "name": "safeMetadata",
              "type": "tuple"
            }
          ],
          "internalType": "struct IGovernor.ProposalCore",
          "name": "",
          "type": "tuple"
        }
      ],
      "stateMutability": "view",
      "type": "function"
    },
    {
      "inputs": [
        {
          "components": [
            {
              "internalType": "address",
              "name": "author",
              "type": "address"
            },
            {
              "internalType": "bool",
              "name": "exists",
              "type": "bool"
            },
            {
              "internalType": "string",
              "name": "description",
              "type": "string"
            },
            {
              "components": [
                {
                  "internalType": "address",
                  "name": "targetAddress",
                  "type": "address"
                }
              ],
              "internalType": "struct IGovernor.TargetMetadata",
              "name": "targetMetadata",
              "type": "tuple"
            },
            {
              "components": [
                {
                  "internalType": "address[]",
                  "name": "signers",
                  "type": "address[]"
                },
                {
                  "internalType": "uint256",
                  "name": "threshold",
                  "type": "uint256"
                }
              ],
              "internalType": "struct IGovernor.SafeMetadata",
              "name": "safeMetadata",
              "type": "tuple"
            }
          ],
          "internalType": "struct IGovernor.ProposalCore",
          "name": "proposal",
          "type": "tuple"
        }
      ],
      "name": "hashProposal",
      "outputs": [
        {
          "internalType": "uint256",
          "name": "",
          "type": "uint256"
        }
      ],
      "stateMutability": "pure",
      "type": "function"
    },
    {
      "inputs": [],
      "name": "highestTiedRanking",
      "outputs": [
        {
          "internalType": "uint256",
          "name": "",
          "type": "uint256"
        }
      ],
      "stateMutability": "view",
      "type": "function"
    },
    {
      "inputs": [
        {
          "internalType": "uint256",
          "name": "proposalId",
          "type": "uint256"
        }
      ],
      "name": "isProposalDeleted",
      "outputs": [
        {
          "internalType": "uint256",
          "name": "",
          "type": "uint256"
        }
      ],
      "stateMutability": "view",
      "type": "function"
    },
    {
      "inputs": [
        {
          "internalType": "uint256",
          "name": "ranking",
          "type": "uint256"
        }
      ],
      "name": "isTied",
      "outputs": [
        {
          "internalType": "bool",
          "name": "",
          "type": "bool"
        }
      ],
      "stateMutability": "view",
      "type": "function"
    },
    {
      "inputs": [],
      "name": "lowestRanking",
      "outputs": [
        {
          "internalType": "uint256",
          "name": "",
          "type": "uint256"
        }
      ],
      "stateMutability": "view",
      "type": "function"
    },
    {
      "inputs": [],
      "name": "maxProposalCount",
      "outputs": [
        {
          "internalType": "uint256",
          "name": "",
          "type": "uint256"
        }
      ],
      "stateMutability": "view",
      "type": "function"
    },
    {
      "inputs": [],
      "name": "name",
      "outputs": [
        {
          "internalType": "string",
          "name": "",
          "type": "string"
        }
      ],
      "stateMutability": "view",
      "type": "function"
    },
    {
      "inputs": [],
      "name": "numAllowedProposalSubmissions",
      "outputs": [
        {
          "internalType": "uint256",
          "name": "",
          "type": "uint256"
        }
      ],
      "stateMutability": "view",
      "type": "function"
    },
    {
      "inputs": [],
      "name": "officialRewardsModule",
      "outputs": [
        {
          "internalType": "contract RewardsModule",
          "name": "",
          "type": "address"
        }
      ],
      "stateMutability": "view",
      "type": "function"
    },
    {
      "inputs": [],
      "name": "prompt",
      "outputs": [
        {
          "internalType": "string",
          "name": "",
          "type": "string"
        }
      ],
      "stateMutability": "view",
      "type": "function"
    },
    {
      "inputs": [
        {
          "internalType": "uint256",
          "name": "proposalId",
          "type": "uint256"
        },
        {
          "internalType": "address",
          "name": "userAddress",
          "type": "address"
        }
      ],
      "name": "proposalAddressVotes",
      "outputs": [
        {
          "internalType": "uint256",
          "name": "forVotes",
          "type": "uint256"
        },
        {
          "internalType": "uint256",
          "name": "againstVotes",
          "type": "uint256"
        }
      ],
      "stateMutability": "view",
      "type": "function"
    },
    {
      "inputs": [
        {
          "internalType": "uint256",
          "name": "proposalId",
          "type": "uint256"
        }
      ],
      "name": "proposalAddressesHaveVoted",
      "outputs": [
        {
          "internalType": "address[]",
          "name": "",
          "type": "address[]"
        }
      ],
      "stateMutability": "view",
      "type": "function"
    },
    {
      "inputs": [
        {
          "internalType": "uint256",
          "name": "proposalId",
          "type": "uint256"
        }
      ],
      "name": "proposalVotes",
      "outputs": [
        {
          "internalType": "uint256",
          "name": "forVotes",
          "type": "uint256"
        },
        {
          "internalType": "uint256",
          "name": "againstVotes",
          "type": "uint256"
        }
      ],
      "stateMutability": "view",
      "type": "function"
    },
    {
      "inputs": [
        {
          "internalType": "uint256",
          "name": "",
          "type": "uint256"
        }
      ],
      "name": "proposalVotesStructs",
      "outputs": [
        {
          "components": [
            {
              "internalType": "uint256",
              "name": "forVotes",
              "type": "uint256"
            },
            {
              "internalType": "uint256",
              "name": "againstVotes",
              "type": "uint256"
            }
          ],
          "internalType": "struct GovernorCountingSimple.VoteCounts",
          "name": "proposalVoteCounts",
          "type": "tuple"
        }
      ],
      "stateMutability": "view",
      "type": "function"
    },
    {
      "inputs": [
        {
          "components": [
            {
              "internalType": "address",
              "name": "author",
              "type": "address"
            },
            {
              "internalType": "bool",
              "name": "exists",
              "type": "bool"
            },
            {
              "internalType": "string",
              "name": "description",
              "type": "string"
            },
            {
              "components": [
                {
                  "internalType": "address",
                  "name": "targetAddress",
                  "type": "address"
                }
              ],
              "internalType": "struct IGovernor.TargetMetadata",
              "name": "targetMetadata",
              "type": "tuple"
            },
            {
              "components": [
                {
                  "internalType": "address[]",
                  "name": "signers",
                  "type": "address[]"
                },
                {
                  "internalType": "uint256",
                  "name": "threshold",
                  "type": "uint256"
                }
              ],
              "internalType": "struct IGovernor.SafeMetadata",
              "name": "safeMetadata",
              "type": "tuple"
            }
          ],
          "internalType": "struct IGovernor.ProposalCore",
          "name": "proposal",
          "type": "tuple"
        },
        {
          "internalType": "bytes32[]",
          "name": "proof",
          "type": "bytes32[]"
        }
      ],
      "name": "propose",
      "outputs": [
        {
          "internalType": "uint256",
          "name": "",
          "type": "uint256"
        }
      ],
      "stateMutability": "nonpayable",
      "type": "function"
    },
    {
      "inputs": [
        {
          "components": [
            {
              "internalType": "address",
              "name": "author",
              "type": "address"
            },
            {
              "internalType": "bool",
              "name": "exists",
              "type": "bool"
            },
            {
              "internalType": "string",
              "name": "description",
              "type": "string"
            },
            {
              "components": [
                {
                  "internalType": "address",
                  "name": "targetAddress",
                  "type": "address"
                }
              ],
              "internalType": "struct IGovernor.TargetMetadata",
              "name": "targetMetadata",
              "type": "tuple"
            },
            {
              "components": [
                {
                  "internalType": "address[]",
                  "name": "signers",
                  "type": "address[]"
                },
                {
                  "internalType": "uint256",
                  "name": "threshold",
                  "type": "uint256"
                }
              ],
              "internalType": "struct IGovernor.SafeMetadata",
              "name": "safeMetadata",
              "type": "tuple"
            }
          ],
          "internalType": "struct IGovernor.ProposalCore",
          "name": "proposal",
          "type": "tuple"
        }
      ],
      "name": "proposeWithoutProof",
      "outputs": [
        {
          "internalType": "uint256",
          "name": "",
          "type": "uint256"
        }
      ],
      "stateMutability": "nonpayable",
      "type": "function"
    },
    {
      "inputs": [
        {
          "internalType": "uint256",
          "name": "ranking",
          "type": "uint256"
        }
      ],
      "name": "rankingPosition",
      "outputs": [
        {
          "internalType": "uint256",
          "name": "",
          "type": "uint256"
        }
      ],
      "stateMutability": "view",
      "type": "function"
    },
    {
      "inputs": [
        {
          "internalType": "contract RewardsModule",
          "name": "officialRewardsModule_",
          "type": "address"
        }
      ],
      "name": "setOfficialRewardsModule",
      "outputs": [],
      "stateMutability": "nonpayable",
      "type": "function"
    },
    {
      "inputs": [],
      "name": "setSortedAndTiedProposals",
      "outputs": [],
      "stateMutability": "nonpayable",
      "type": "function"
    },
    {
      "inputs": [],
      "name": "setSortedAndTiedProposalsHasBeenRun",
      "outputs": [
        {
          "internalType": "bool",
          "name": "",
          "type": "bool"
        }
      ],
      "stateMutability": "view",
      "type": "function"
    },
    {
      "inputs": [],
      "name": "sortedProposalIds",
      "outputs": [
        {
          "internalType": "uint256[]",
          "name": "",
          "type": "uint256[]"
        }
      ],
      "stateMutability": "view",
      "type": "function"
    },
    {
      "inputs": [
        {
          "internalType": "bool",
          "name": "excludeDeletedProposals",
          "type": "bool"
        }
      ],
      "name": "sortedProposals",
      "outputs": [
        {
          "internalType": "uint256[]",
          "name": "sortedProposalIdsReturn",
          "type": "uint256[]"
        }
      ],
      "stateMutability": "view",
      "type": "function"
    },
    {
      "inputs": [],
      "name": "state",
      "outputs": [
        {
          "internalType": "enum IGovernor.ContestState",
          "name": "",
          "type": "uint8"
        }
      ],
      "stateMutability": "view",
      "type": "function"
    },
    {
      "inputs": [],
      "name": "submissionMerkleRoot",
      "outputs": [
        {
          "internalType": "bytes32",
          "name": "",
          "type": "bytes32"
        }
      ],
      "stateMutability": "view",
      "type": "function"
    },
    {
      "inputs": [
        {
          "internalType": "bytes4",
          "name": "interfaceId",
          "type": "bytes4"
        }
      ],
      "name": "supportsInterface",
      "outputs": [
        {
          "internalType": "bool",
          "name": "",
          "type": "bool"
        }
      ],
      "stateMutability": "view",
      "type": "function"
    },
    {
      "inputs": [
        {
          "internalType": "uint256",
          "name": "",
          "type": "uint256"
        }
      ],
      "name": "tiedAdjustedRankingPosition",
      "outputs": [
        {
          "internalType": "uint256",
          "name": "",
          "type": "uint256"
        }
      ],
      "stateMutability": "view",
      "type": "function"
    },
    {
      "inputs": [],
      "name": "totalVotesCast",
      "outputs": [
        {
          "internalType": "uint256",
          "name": "",
          "type": "uint256"
        }
      ],
      "stateMutability": "view",
      "type": "function"
    },
    {
      "inputs": [
        {
          "components": [
            {
              "internalType": "address",
              "name": "author",
              "type": "address"
            },
            {
              "internalType": "bool",
              "name": "exists",
              "type": "bool"
            },
            {
              "internalType": "string",
              "name": "description",
              "type": "string"
            },
            {
              "components": [
                {
                  "internalType": "address",
                  "name": "targetAddress",
                  "type": "address"
                }
              ],
              "internalType": "struct IGovernor.TargetMetadata",
              "name": "targetMetadata",
              "type": "tuple"
            },
            {
              "components": [
                {
                  "internalType": "address[]",
                  "name": "signers",
                  "type": "address[]"
                },
                {
                  "internalType": "uint256",
                  "name": "threshold",
                  "type": "uint256"
                }
              ],
              "internalType": "struct IGovernor.SafeMetadata",
              "name": "safeMetadata",
              "type": "tuple"
            }
          ],
          "internalType": "struct IGovernor.ProposalCore",
          "name": "proposal",
          "type": "tuple"
        }
      ],
      "name": "validateProposalData",
      "outputs": [
        {
          "internalType": "bool",
          "name": "dataValidated",
          "type": "bool"
        }
      ],
      "stateMutability": "nonpayable",
      "type": "function"
    },
    {
      "inputs": [
        {
          "internalType": "address",
          "name": "account",
          "type": "address"
        },
        {
          "internalType": "bytes32[]",
          "name": "proof",
          "type": "bytes32[]"
        }
      ],
      "name": "verifyProposer",
      "outputs": [
        {
          "internalType": "bool",
          "name": "verified",
          "type": "bool"
        }
      ],
      "stateMutability": "nonpayable",
      "type": "function"
    },
    {
      "inputs": [
        {
          "internalType": "address",
          "name": "account",
          "type": "address"
        },
        {
          "internalType": "uint256",
          "name": "totalVotes",
          "type": "uint256"
        },
        {
          "internalType": "bytes32[]",
          "name": "proof",
          "type": "bytes32[]"
        }
      ],
      "name": "verifyVoter",
      "outputs": [
        {
          "internalType": "bool",
          "name": "verified",
          "type": "bool"
        }
      ],
      "stateMutability": "nonpayable",
      "type": "function"
    },
    {
      "inputs": [],
      "name": "version",
      "outputs": [
        {
          "internalType": "string",
          "name": "",
          "type": "string"
        }
      ],
      "stateMutability": "view",
      "type": "function"
    },
    {
      "inputs": [],
      "name": "voteStart",
      "outputs": [
        {
          "internalType": "uint256",
          "name": "",
          "type": "uint256"
        }
      ],
      "stateMutability": "view",
      "type": "function"
    },
    {
      "inputs": [],
      "name": "votingDelay",
      "outputs": [
        {
          "internalType": "uint256",
          "name": "",
          "type": "uint256"
        }
      ],
      "stateMutability": "view",
      "type": "function"
    },
    {
      "inputs": [],
      "name": "votingMerkleRoot",
      "outputs": [
        {
          "internalType": "bytes32",
          "name": "",
          "type": "bytes32"
        }
      ],
      "stateMutability": "view",
      "type": "function"
    },
    {
      "inputs": [],
      "name": "votingPeriod",
      "outputs": [
        {
          "internalType": "uint256",
          "name": "",
          "type": "uint256"
        }
      ],
      "stateMutability": "view",
      "type": "function"
    },
    {
      "stateMutability": "payable",
      "type": "receive"
    }
  ],
  "bytecode": {
    "object": "0x6101a06040526017805460ff191690553480156200001c57600080fd5b50604051620046c9380380620046c98339810160408190526200003f9162000622565b806000815181106200005557620000556200073b565b6020026020010151816001815181106200007357620000736200073b565b6020026020010151826002815181106200009157620000916200073b565b602002602001015183600381518110620000af57620000af6200073b565b602002602001015184600481518110620000cd57620000cd6200073b565b602002602001015185600581518110620000eb57620000eb6200073b565b60200260200101518b8b8b8b8b8282866200010b6200025160201b60201c565b620001188260006200026e565b61012052620001298160016200026e565b61014052815160208084019190912060e052815190820120610100524660a052620001b760e05161010051604080517f8b73c3c69bb8fe3d512ecc4cf759cc79239f7b179b0ffacaa9a75d522b39400f60208201529081019290925260608201524660808201523060a082015260009060c00160405160208183030381529060405280519060200120905090565b60805250503060c05261016091909152610180526007620001d98682620007e0565b506008620001e88582620007e0565b50600c5550620001fd925088915050620002a7565b6200020885620002e8565b620002138462000329565b6200021e83620003d0565b620002298262000411565b620002348162000452565b6200023f3362000493565b50505050505050505050505062000906565b6040805180820190915260038152620ccb8d60ea1b602082015290565b60006020835110156200028e576200028683620004fc565b9050620002a1565b816200029b8482620007e0565b5060ff90505b92915050565b600d5460408051918252602082018390527fd299feb1d7d9345a48559601c471c3be7eea9a11f21d5e86809198f40a974db4910160405180910390a1600d55565b600e5460408051918252602082018390527fc565b045403dc03c2eea82b81a0465edad9e2e7fc4d97e11421c209da93d7a93910160405180910390a1600e55565b600081116200038f5760405162461bcd60e51b815260206004820152602760248201527f476f7665726e6f7253657474696e67733a20766f74696e6720706572696f6420604482015266746f6f206c6f7760c81b60648201526084015b60405180910390fd5b600f5460408051918252602082018390527f7e3f7f0708a84de9203036abaa450dccc85ad5ff52f78c170f3edb55cf5e8828910160405180910390a1600f55565b60105460408051918252602082018390527fe971b819c7fb95c72451f557226aceb5baaf4994a9d39a79bbfa0040e87500b9910160405180910390a1601055565b60115460408051918252602082018390527f4984ec996723330ee95979ed65a2a4b41edd914e68a187efe92596474643bdff910160405180910390a1601155565b60125460408051918252602082018390527f9c7b27f091caef3a83be73d89320404fa0c4a52993685ff0651672e49e6e55ab910160405180910390a1601255565b601354604080516001600160a01b03928316815291831660208301527fc30034fc2e9697980e08935bbc287db3eaa44a4aa113ef4c108b356adbf911ce910160405180910390a1601380546001600160a01b0319166001600160a01b0392909216919091179055565b600080829050601f815111156200052a578260405163305a27a960e01b8152600401620003869190620008ac565b80516200053782620008e1565b179392505050565b634e487b7160e01b600052604160045260246000fd5b604051601f8201601f191681016001600160401b03811182821017156200058057620005806200053f565b604052919050565b60005b83811015620005a55781810151838201526020016200058b565b50506000910152565b600082601f830112620005c057600080fd5b81516001600160401b03811115620005dc57620005dc6200053f565b620005f1601f8201601f191660200162000555565b8181528460208386010111156200060757600080fd5b6200061a82602083016020870162000588565b949350505050565b60008060008060008060c087890312156200063c57600080fd5b86516001600160401b03808211156200065457600080fd5b620006628a838b01620005ae565b97506020915081890151818111156200067a57600080fd5b620006888b828c01620005ae565b97505060408901519550606089015194506080890151935060a089015181811115620006b357600080fd5b8901601f81018b13620006c557600080fd5b805182811115620006da57620006da6200053f565b8060051b9250620006ed84840162000555565b818152928201840192848101908d8511156200070857600080fd5b928501925b8484101562000728578351825292850192908501906200070d565b8096505050505050509295509295509295565b634e487b7160e01b600052603260045260246000fd5b600181811c908216806200076657607f821691505b6020821081036200078757634e487b7160e01b600052602260045260246000fd5b50919050565b601f821115620007db57600081815260208120601f850160051c81016020861015620007b65750805b601f850160051c820191505b81811015620007d757828155600101620007c2565b5050505b505050565b81516001600160401b03811115620007fc57620007fc6200053f565b62000814816200080d845462000751565b846200078d565b602080601f8311600181146200084c5760008415620008335750858301515b600019600386901b1c1916600185901b178555620007d7565b600085815260208120601f198616915b828110156200087d578886015182559484019460019091019084016200085c565b50858210156200089c5787850151600019600388901b60f8161c191681555b5050505050600190811b01905550565b6020815260008251806020840152620008cd81604085016020870162000588565b601f01601f19169190910160400192915050565b80516020808301519190811015620007875760001960209190910360031b1b16919050565b60805160a05160c05160e0516101005161012051610140516101605161018051613d456200098460003960008181610a820152610ecd01526000818161093a01528181610d1501528181610e680152611136015260006114930152600061146901526000505060005050600050506000505060005050613d456000f3fe60806040526004361061039a5760003560e01c80637de418d5116101dc578063d45a010b11610102578063e5eb5a48116100a0578063f0a7db0a1161006f578063f0a7db0a14610b86578063f4f3d7ec14610ba6578063fb8ddab414610bc6578063fb9bf8d414610be657600080fd5b8063e5eb5a4814610b1a578063ea8a1af014610b47578063ebc18b9b14610b5c578063efa90d3614610b7157600080fd5b8063dd96a19d116100dc578063dd96a19d14610a70578063dea5f6a614610aa4578063deaaa7cc14610ad1578063e031535b14610b0557600080fd5b8063d45a010b146109fb578063d889161914610a10578063dd4e2ba514610a2a57600080fd5b8063a1ac6cb21161017a578063c0ffaa7811610149578063c0ffaa781461095c578063c19d93fb1461097c578063c7f758a81461099e578063cb853950146109cb57600080fd5b8063a1ac6cb214610898578063aec116b6146108c5578063b323580d146108fb578063bddc16411461092857600080fd5b806386187488116101b6578063861874881461081e5780638a9cd5501461083e578063930de9791461085357806396f0e9621461088357600080fd5b80637de418d5146107cb578063832009af146107e157806384b0196e146107f657600080fd5b8063458da87d116102c15780635f953a031161025f5780636e4eb8101161022e5780636e4eb810146107635780636ed815ad14610783578063785ddfe5146107985780637c65d711146107b657600080fd5b80635f953a03146106e357806360506ff61461071957806365f162631461072e5780636ca1a2c71461074e57600080fd5b806350a5e5241161029b57806350a5e5241461062a578063531bd8121461064d578063544ffc9c1461066d57806354fd4d50146106b757600080fd5b8063458da87d146105d5578063476f4d8a146105f55780634d24a67f1461061557600080fd5b80632399c660116103395780633932abb1116103085780633932abb1146105465780633b6d199b1461055b578063419c533c14610588578063427d56c2146105a857600080fd5b80632399c660146104d5578063262e59e9146104f557806332763c221461050a578063347cf6651461052a57600080fd5b806302d05d3f1161037557806302d05d3f1461041557806306fdde0314610442578063070dc5d91461046457806320b3e845146104b557600080fd5b80624114a8146103a857806301ffc9a7146103d057806302a251a31461040057600080fd5b366103a357005b005b600080fd5b3480156103b457600080fd5b506103bd610bfb565b6040519081526020015b60405180910390f35b3480156103dc57600080fd5b506103f06103eb3660046130aa565b610c0b565b60405190151581526020016103c7565b34801561040c57600080fd5b506103bd610c42565b34801561042157600080fd5b5061042a610c4d565b6040516001600160a01b0390911681526020016103c7565b34801561044e57600080fd5b50610457610c61565b6040516103c7919061311a565b34801561047057600080fd5b506104a861047f36600461312d565b601660209081526000918252604091829020825180840190935280548352600101549082015281565b6040516103c79190613146565b3480156104c157600080fd5b506103f06104d03660046131b9565b610cf3565b3480156104e157600080fd5b506103f06104f036600461312d565b610d89565b34801561050157600080fd5b506103bd610dcd565b34801561051657600080fd5b506103f0610525366004613222565b610de9565b34801561053657600080fd5b506103bd678ac7230489e8000081565b34801561055257600080fd5b506103bd610f26565b34801561056757600080fd5b506103bd61057636600461312d565b60009081526006602052604090205490565b34801561059457600080fd5b506103bd6105a33660046132a3565b610f31565b3480156105b457600080fd5b506105c86105c3366004613313565b610f69565b6040516103c79190613369565b3480156105e157600080fd5b506103bd6105f0366004613627565b611101565b34801561060157600080fd5b506103bd610610366004613627565b611132565b34801561062157600080fd5b506103bd600281565b34801561063657600080fd5b5061063f61119c565b6040516103c792919061365b565b34801561065957600080fd5b506103f06106683660046136c4565b6112a2565b34801561067957600080fd5b506106a261068836600461312d565b600090815260166020526040902080546001909101549091565b604080519283526020830191909152016103c7565b3480156106c357600080fd5b506040805180820190915260038152620ccb8d60ea1b6020820152610457565b3480156106ef57600080fd5b506103bd6106fe36600461371f565b6001600160a01b03166000908152600b602052604090205490565b34801561072557600080fd5b506103bd61130d565b34801561073a57600080fd5b506103bd61074936600461373c565b611318565b34801561075a57600080fd5b506103bd6113e0565b34801561076f57600080fd5b506106a261077e366004613771565b61140c565b34801561078f57600080fd5b50600c546103bd565b3480156107a457600080fd5b50601d546001600160a01b031661042a565b3480156107c257600080fd5b50610457611441565b3480156107d757600080fd5b506103bd60145481565b3480156107ed57600080fd5b506103bd611450565b34801561080257600080fd5b5061080b61145b565b6040516103c797969594939291906137a1565b34801561082a57600080fd5b506103bd61083936600461312d565b6114e3565b34801561084a57600080fd5b506105c861151b565b34801561085f57600080fd5b506103f061086e36600461371f565b60036020526000908152604090205460ff1681565b34801561088f57600080fd5b506103a1611595565b3480156108a457600080fd5b506103bd6108b336600461371f565b60156020526000908152604090205481565b3480156108d157600080fd5b506103bd6108e036600461371f565b6001600160a01b031660009081526015602052604090205490565b34801561090757600080fd5b5061091b61091636600461312d565b6118a9565b6040516103c7919061384a565b34801561093457600080fd5b506103bd7f000000000000000000000000000000000000000000000000000000000000000081565b34801561096857600080fd5b506103bd61097736600461385d565b61191b565b34801561098857600080fd5b5061099161195f565b6040516103c791906138ce565b3480156109aa57600080fd5b506109be6109b936600461312d565b6119d1565b6040516103c791906138f6565b3480156109d757600080fd5b506103f06109e636600461371f565b60046020526000908152604090205460ff1681565b348015610a0757600080fd5b5061063f611b4b565b348015610a1c57600080fd5b506017546103f09060ff1681565b348015610a3657600080fd5b5060408051808201909152601881527f737570706f72743d627261766f2671756f72756d3d666f7200000000000000006020820152610457565b348015610a7c57600080fd5b506103bd7f000000000000000000000000000000000000000000000000000000000000000081565b348015610ab057600080fd5b506103bd610abf36600461371f565b60026020526000908152604090205481565b348015610add57600080fd5b506103bd7f150214d74d59b7d1e90c73fc22ef3d991dd0a76b046543d4d80ab92d2a50328f81565b348015610b1157600080fd5b506103bd611d16565b348015610b2657600080fd5b506103bd610b3536600461312d565b60186020526000908152604090205481565b348015610b5357600080fd5b506103a1611d28565b348015610b6857600080fd5b506103bd611e12565b348015610b7d57600080fd5b506105c8611e3e565b348015610b9257600080fd5b506103a1610ba136600461397c565b611e94565b348015610bb257600080fd5b506103a1610bc136600461371f565b6120d7565b348015610bd257600080fd5b506103f0610be1366004613627565b612172565b348015610bf257600080fd5b506103bd6123fd565b6000610c06600d5490565b905090565b60006001600160e01b03198216634000b16560e11b1480610c3c57506301ffc9a760e01b6001600160e01b03198316145b92915050565b6000610c06600f5490565b6000610c066013546001600160a01b031690565b606060078054610c7090613a0c565b80601f0160208091040260200160405190810160405280929190818152602001828054610c9c90613a0c565b8015610ce95780601f10610cbe57610100808354040283529160200191610ce9565b820191906000526020600020905b815481529060010190602001808311610ccc57829003601f168201915b5050505050905090565b6001600160a01b03831660009081526004602052604081205460ff16610d7e577f0000000000000000000000000000000000000000000000000000000000000000600003610d4357506001610d82565b610d5984678ac7230489e8000085856000610de9565b506001600160a01b0384166000908152600460205260409020805460ff191660011790555b5060015b9392505050565b60175460009060ff16610db75760405162461bcd60e51b8152600401610dae90613a46565b60405180910390fd5b5060009081526019602052604090205460ff1690565b6000610dd7610c42565b610ddf611d16565b610c069190613ac7565b6040516bffffffffffffffffffffffff19606087901b166020820152603481018590526000908190605401604051602081830303815290604052805190602001209050600083610e9857610e938686808060200260200160405190810160405280939291908181526020018383602002808284376000920191909152507f000000000000000000000000000000000000000000000000000000000000000092508691506124089050565b610ef8565b610ef88686808060200260200160405190810160405280939291908181526020018383602002808284376000920191909152507f000000000000000000000000000000000000000000000000000000000000000092508691506124089050565b905080610f185760405163452c2df160e11b815260040160405180910390fd5b506001979650505050505050565b6000610c06600e5490565b600033610f40818786866112a2565b50610f5d888289886040518060200160405280600081525061241e565b98975050505050505050565b606060008083610f8057610f7b61119c565b610f88565b610f88611b4b565b915091506000825111610ff85760405162461bcd60e51b815260206004820152603260248201527f476f7665726e6f72536f7274696e673a2063616e6e6f7420736f72742061206c6044820152710d2e6e840decc40f4cae4de40d8cadccee8d60731b6064820152608401610dae565b600082516001600160401b038111156110135761101361337c565b60405190808252806020026020018201604052801561103c578160200160208202803683370190505b50905060005b82518110156110c05782818151811061105d5761105d613ada565b60200260200101516020015183828151811061107b5761107b613ada565b6020026020010151600001516110919190613af0565b8282815181106110a3576110a3613ada565b6020908102919091010152806110b881613b17565b915050611042565b5060005b600184516110d29190613b30565b8110156110f7576110e4818386612638565b50806110ef81613b17565b9150506110c4565b5091949350505050565b60008160405160200161111491906138f6565b60408051601f19818403018152919052805160209091012092915050565b60007f000000000000000000000000000000000000000000000000000000000000000015611189573360009081526004602052604090205460ff166111895760405162461bcd60e51b8152600401610dae90613b43565b61119282612172565b50610c3c8261279e565b60608060006111a9611e3e565b9050600081516001600160401b038111156111c6576111c661337c565b60405190808252806020026020018201604052801561120b57816020015b60408051808201909152600080825260208201528152602001906001900390816111e45790505b50905060005b8251811015611298576016600084838151811061123057611230613ada565b602002602001015181526020019081526020016000206000016040518060400160405290816000820154815260200160018201548152505082828151811061127a5761127a613ada565b6020026020010181905250808061129090613b17565b915050611211565b5090939092509050565b6001600160a01b03841660009081526003602052604081205460ff16611302576112d0858585856001610de9565b506001600160a01b038516600090815260026020908152604080832087905560039091529020805460ff191660011790555b506001949350505050565b6000610c0660125490565b3360008181526003602052604081205490919060ff166113bb5760405162461bcd60e51b815260206004820152605260248201527f476f7665726e6f723a20796f75206e65656420746f2063617374206120766f7460448201527f652077697468207468652070726f6f66206174206c65617374206f6e636520616064820152711b99081e5bdd481a185d995b89dd081e595d60721b608482015260a401610dae565b6113d7858286866040518060200160405280600081525061241e565b95945050505050565b60175460009060ff166114055760405162461bcd60e51b8152600401610dae90613a46565b50601b5490565b60008281526016602090815260408083206001600160a01b0385168452600301909152902080546001909101545b9250929050565b606060088054610c7090613a0c565b6000610c0660105490565b60006060808280808361148e7f000000000000000000000000000000000000000000000000000000000000000083612b2b565b6114b97f00000000000000000000000000000000000000000000000000000000000000006001612b2b565b60408051600080825260208201909252600f60f81b9b939a50919850469750309650945092509050565b60175460009060ff166115085760405162461bcd60e51b8152600401610dae90613a46565b5060009081526018602052604090205490565b60175460609060ff166115405760405162461bcd60e51b8152600401610dae90613a46565b601a805480602002602001604051908101604052809291908181526020018280548015610ce957602002820191906000526020600020905b815481526020019060010190808311611578575050505050905090565b600461159f61195f565b60048111156115b0576115b06138b8565b146116335760405162461bcd60e51b815260206004820152604760248201527f476f7665726e6f72536f7274696e673a20636f6e74657374206d75737420626560448201527f20746f2063616c63756c61746520736f7274656420616e6420746965642070726064820152666f706f73616c7360c81b608482015260a401610dae565b60175460ff16156116d25760405162461bcd60e51b815260206004820152605f60248201527f476f7665726e6f72536f7274696e673a20736574536f72746564416e6454696560448201527f6450726f706f73616c7328292068617320616c7265616479206265656e20727560648201527f6e20616e642069747320726573706563746976652076616c7565732073657400608482015260a401610dae565b6116dc6001610f69565b80516116f091601a91602090910190612f84565b50601a546000906001906117049082613ac7565b601c5560005b601a5481101561189757601a5460009061172690600190613b30565b905060008061176f601a61173a8686613b30565b8154811061174a5761174a613ada565b9060005260206000200154600090815260166020526040902080546001909101549091565b909250905060006117808284613af0565b9050846000036117c157601a5490965086906001036117b8576117a38585613b30565b600087815260186020526040902055601b8690555b50505050611885565b8681036118145760008681526019602052604090205460ff166117f8576000868152601960205260409020805460ff191660011790555b601a54611806906001613ac7565b601c540361181457601c8690555b86811461184d576118258585613b30565b611830906001613ac7565b6000878152601860205260409020558561184981613b17565b9650505b601a5461185b866001613ac7565b0361187f5761186a8585613b30565b600087815260186020526040902055601b8690555b95505050505b8061188f81613b17565b91505061170a565b50506017805460ff1916600117905550565b600081815260166020908152604091829020600281018054845181850281018501909552808552606094929383018282801561190e57602002820191906000526020600020905b81546001600160a01b031681526001909101906020018083116118f0575b5050505050915050919050565b6000611928338484610cf3565b6119445760405162461bcd60e51b8152600401610dae90613b43565b61194d84612172565b506119578461279e565b949350505050565b60095460009060ff16156119735750600290565b600061197d610bfb565b905042811061198e57600091505090565b6000611998611d16565b90504281106119aa5760039250505090565b60006119b4610dcd565b90504281106119c7576001935050505090565b6004935050505090565b6119d9612fcf565b6000828152600a6020908152604091829020825160a08101845281546001600160a01b0381168252600160a01b900460ff161515928101929092526001810180549293919291840191611a2b90613a0c565b80601f0160208091040260200160405190810160405280929190818152602001828054611a5790613a0c565b8015611aa45780601f10611a7957610100808354040283529160200191611aa4565b820191906000526020600020905b815481529060010190602001808311611a8757829003601f168201915b5050509183525050604080516020818101835260028501546001600160a01b03168252808401919091528151600385018054606093810283018401855282850181815294909501949193909284928491840182828015611b2d57602002820191906000526020600020905b81546001600160a01b03168152600190910190602001808311611b0f575b50505050508152602001600182015481525050815250509050919050565b6060806000611b58611e3e565b9050600081516001600160401b03811115611b7557611b7561337c565b604051908082528060200260200182016040528015611b9e578160200160208202803683370190505b509050600082516001600160401b03811115611bbc57611bbc61337c565b604051908082528060200260200182016040528015611c0157816020015b6040805180820190915260008082526020820152815260200190600190039081611bda5790505b5090506000805b8451811015611d0a57611c40858281518110611c2657611c26613ada565b602002602001015160009081526006602052604090205490565b600114611cf857848181518110611c5957611c59613ada565b6020026020010151848381518110611c7357611c73613ada565b60200260200101818152505060166000868381518110611c9557611c95613ada565b6020026020010151815260200190815260200160002060000160405180604001604052908160008201548152602001600182015481525050838381518110611cdf57611cdf613ada565b6020908102919091010152611cf5600183613ac7565b91505b80611d0281613b17565b915050611c08565b50919590945092505050565b6000611d20610f26565b610ddf610bfb565b611d30610c4d565b6001600160a01b0316336001600160a01b031614611d4d57600080fd5b6000611d5761195f565b90506002816004811115611d6d57611d6d6138b8565b14158015611d8d57506004816004811115611d8a57611d8a6138b8565b14155b611dd95760405162461bcd60e51b815260206004820152601c60248201527f476f7665726e6f723a20636f6e74657374206e6f7420616374697665000000006044820152606401610dae565b6009805460ff191660011790556040517f4cd963a081760a54f571abc0f1db4dde31b4a07d8d6da3e844b8c6f47eeaaa4290600090a150565b60175460009060ff16611e375760405162461bcd60e51b8152600401610dae90613a46565b50601c5490565b60606005805480602002602001604051908101604052809291908181526020018280548015610ce95760200282019190600052602060002090815481526020019060010190808311611578575050505050905090565b611e9c610c4d565b6001600160a01b0316336001600160a01b031614611f225760405162461bcd60e51b815260206004820152603760248201527f476f7665726e6f723a206f6e6c792074686520636f6e7465737420637265617460448201527f6f722063616e2064656c6574652070726f706f73616c730000000000000000006064820152608401610dae565b6004611f2c61195f565b6004811115611f3d57611f3d6138b8565b03611fc25760405162461bcd60e51b815260206004820152604960248201527f476f7665726e6f723a2064656c6574696f6e206f662070726f706f73616c732060448201527f61667465722074686520656e64206f66206120636f6e74657374206973206e6f6064820152681d08185b1b1bddd95960ba1b608482015260a401610dae565b60005b815181101561209c5760066000838381518110611fe457611fe4613ada565b602002602001015181526020019081526020016000205460011461208a5760016006600084848151811061201a5761201a613ada565b60200260200101518152602001908152602001600020819055506040518060600160405280603d8152602001613cd3603d9139600a600084848151811061206357612063613ada565b6020026020010151815260200190815260200160002060010190816120889190613be1565b505b8061209481613b17565b915050611fc5565b507f75a75cf5c561892f4cc5b26c1b8e933849b42238c96dd073d080d1ae96c51416816040516120cc9190613369565b60405180910390a150565b6120df610c4d565b6001600160a01b0316336001600160a01b0316146120fc57600080fd5b6000612110601d546001600160a01b031690565b601d80546001600160a01b0319166001600160a01b0385811691821790925560408051928416835260208301919091529192507f753a2cf8d360cff631674504210913e48247f8e56b3e6d2006c2103d4095999f910160405180910390a15050565b80516000906001600160a01b031633146121e75760405162461bcd60e51b815260206004820152603060248201527f476f7665726e6f723a207468652070726f706f73616c20617574686f72206d7560448201526f39ba1031329036b9b39739b2b73232b960811b6064820152608401610dae565b60005b600281101561239f576000816001811115612207576122076138b8565b9050600081600181111561221d5761221d6138b8565b03612228575061238d565b600181600181111561223c5761223c6138b8565b0361237257608084015151516000036122ce5760405162461bcd60e51b815260206004820152604860248201527f476f7665726e6f724d6574616461746156616c69646174696f6e3a207468657260448201527f652063616e6e6f74206265207a65726f207369676e65727320696e20736166656064820152674d6574616461746160c01b608482015260a401610dae565b83608001516020015160000361235a5760405162461bcd60e51b8152602060048201526044602482018190527f476f7665726e6f724d6574616461746156616c69646174696f6e3a2074687265908201527f73686f6c642063616e6e6f74206265207a65726f20696e20736166654d6574616064820152636461746160e01b608482015260a401610dae565b6080840151515160000361236d57600080fd5b61238b565b6040516308b6566d60e11b815260040160405180910390fd5b505b8061239781613b17565b9150506121ea565b508160400151516000036123f55760405162461bcd60e51b815260206004820152601860248201527f476f7665726e6f723a20656d7074792070726f706f73616c00000000000000006044820152606401610dae565b506001919050565b6000610c0660115490565b6000826124158584612bd7565b14949350505050565b6000600161242a61195f565b600481111561243b5761243b6138b8565b146124945760405162461bcd60e51b815260206004820152602360248201527f476f7665726e6f723a20766f7465206e6f742063757272656e746c792061637460448201526269766560e81b6064820152608401610dae565b600083116124f85760405162461bcd60e51b815260206004820152602b60248201527f476f7665726e6f723a2063616e6e6f7420766f746520776974682030206f722060448201526a666577657220766f74657360a81b6064820152608401610dae565b6001600160a01b03851660009081526003602052604090205460ff1661259e5760405162461bcd60e51b815260206004820152604f60248201527f476f7665726e6f723a20796f75206e65656420746f2076657269667920796f7560448201527f72206e756d626572206f6620766f74657320616761696e737420746865206d6560648201526e1c9adb19481c9bdbdd08199a5c9cdd608a1b608482015260a401610dae565b6125d086868686600260008b6001600160a01b03166001600160a01b0316815260200190815260200160002054612c24565b846001600160a01b03167fb8e138887d0aa13bab447e82de9d5c1777041ecd21ca36ba824ff1e6c07ddda48786868660405161260f9493929190613ca0565b60405180910390a2505050506001600160a01b0316600090815260026020526040902054919050565b600083805b84518110156126965784828151811061265857612658613ada565b602002602001015185828151811061267257612672613ada565b60200260200101511215612684578091505b8061268e81613b17565b91505061263d565b508481036126a8576000915050610d82565b60008486815181106126bc576126bc613ada565b602002602001015190508482815181106126d8576126d8613ada565b60200260200101518587815181106126f2576126f2613ada565b6020026020010181815250508085838151811061271157612711613ada565b602002602001018181525050600084878151811061273157612731613ada565b6020026020010151905084838151811061274d5761274d613ada565b602002602001015185888151811061276757612767613ada565b6020026020010181815250508085848151811061278657612786613ada565b60209081029190910101525060019695505050505050565b600060036127aa61195f565b60048111156127bb576127bb6138b8565b1461282e5760405162461bcd60e51b815260206004820152603e60248201527f476f7665726e6f723a20636f6e74657374206d7573742062652071756575656460448201527f20666f722070726f706f73616c7320746f206265207375626d697474656400006064820152608401610dae565b612836611450565b336000908152600b6020526040902054106128ed5760405162461bcd60e51b815260206004820152606560248201527f476f7665726e6f723a207468652073616d6520616464726573732063616e6e6f60448201527f74207375626d6974206d6f7265207468616e20746865206e756d416c6c6f776560648201527f6450726f706f73616c5375626d697373696f6e7320666f72207468697320636f6084820152641b9d195cdd60da1b60a482015260c401610dae565b6128f56123fd565b6005541061296b5760405162461bcd60e51b815260206004820152603960248201527f476f7665726e6f723a20746865206d6178206e756d626572206f662070726f7060448201527f6f73616c732068617665206265656e207375626d6974746564000000000000006064820152608401610dae565b600061297683611101565b6000818152600a6020526040902054909150600160a01b900460ff16156129f15760405162461bcd60e51b815260206004820152602960248201527f476f7665726e6f723a206475706c69636174652070726f706f73616c73206e6f6044820152681d08185b1b1bddd95960ba1b6064820152608401610dae565b6005805460018181019092557f036b6384b5eca791c62761152d0c79bb0604c104a5fb6f4eb0703f3154bb3db0018290556000828152600a602090815260409182902086518154928801511515600160a01b026001600160a81b03199093166001600160a01b0390911617919091178155908501518592820190612a759082613be1565b506060820151516002820180546001600160a01b0319166001600160a01b039092169190911790556080820151805180516003840191612aba91839160200190613040565b50602091820151600191820155336000908152600b9092526040822080549194509250612ae8908490613ac7565b9091555050604080518281523360208201527fcd423cc1203c0af96b9b3d68d73b3064a69de2d14450bb7181c5e5df2132b358910160405180910390a192915050565b606060ff8314612b4557612b3e83612ef1565b9050610c3c565b818054612b5190613a0c565b80601f0160208091040260200160405190810160405280929190818152602001828054612b7d90613a0c565b8015612bca5780601f10612b9f57610100808354040283529160200191612bca565b820191906000526020600020905b815481529060010190602001808311612bad57829003601f168201915b5050505050905092915050565b600081815b8451811015612c1c57612c0882868381518110612bfb57612bfb613ada565b6020026020010151612f30565b915080612c1481613b17565b915050612bdc565b509392505050565b60008581526016602090815260408083206001600160a01b0388168452601590925290912054612c549083613b30565b831115612cbf5760405162461bcd60e51b815260206004820152603360248201527f476f7665726e6f72566f74696e6753696d706c653a206e6f7420656e6f756768604482015272081d9bdd195cc81b19599d081d1bc818d85cdd606a1b6064820152608401610dae565b6001600160a01b03851660009081526003820160205260409020541560ff8516612d3157815484908390600090612cf7908490613ac7565b90915550506001600160a01b038616600090815260038301602052604081208054869290612d26908490613ac7565b90915550612e6b9050565b60001960ff861601612e0557612d4561130d565b600114612dbc576040805162461bcd60e51b81526020600482015260248101919091527f476f7665726e6f72566f74696e6753696d706c653a20646f776e766f74696e6760448201527f206973206e6f7420656e61626c656420666f72207468697320436f6e746573746064820152608401610dae565b83826000016001016000828254612dd39190613ac7565b90915550506001600160a01b038616600090815260038301602052604081206001018054869290612d26908490613ac7565b60405162461bcd60e51b815260206004820152603560248201527f476f7665726e6f72566f74696e6753696d706c653a20696e76616c69642076616044820152746c756520666f7220656e756d20566f74655479706560581b6064820152608401610dae565b8015612ea257600282018054600181018255600091825260209091200180546001600160a01b0319166001600160a01b0388161790555b6001600160a01b03861660009081526015602052604081208054869290612eca908490613ac7565b925050819055508360146000828254612ee39190613ac7565b909155505050505050505050565b60606000612efe83612f5c565b604080516020808252818301909252919250600091906020820181803683375050509182525060208101929092525090565b6000818310612f4c576000828152602084905260409020610d82565b5060009182526020526040902090565b600060ff8216601f811115610c3c57604051632cd44ac360e21b815260040160405180910390fd5b828054828255906000526020600020908101928215612fbf579160200282015b82811115612fbf578251825591602001919060010190612fa4565b50612fcb929150613095565b5090565b6040518060a0016040528060006001600160a01b0316815260200160001515815260200160608152602001613019604051806020016040528060006001600160a01b031681525090565b815260200161303b604051806040016040528060608152602001600081525090565b905290565b828054828255906000526020600020908101928215612fbf579160200282015b82811115612fbf57825182546001600160a01b0319166001600160a01b03909116178255602090920191600190910190613060565b5b80821115612fcb5760008155600101613096565b6000602082840312156130bc57600080fd5b81356001600160e01b031981168114610d8257600080fd5b6000815180845260005b818110156130fa576020818501810151868301820152016130de565b506000602082860101526020601f19601f83011685010191505092915050565b602081526000610d8260208301846130d4565b60006020828403121561313f57600080fd5b5035919050565b815181526020808301519082015260408101610c3c565b6001600160a01b038116811461317257600080fd5b50565b60008083601f84011261318757600080fd5b5081356001600160401b0381111561319e57600080fd5b6020830191508360208260051b850101111561143a57600080fd5b6000806000604084860312156131ce57600080fd5b83356131d98161315d565b925060208401356001600160401b038111156131f457600080fd5b61320086828701613175565b9497909650939450505050565b8035801515811461321d57600080fd5b919050565b60008060008060006080868803121561323a57600080fd5b85356132458161315d565b94506020860135935060408601356001600160401b0381111561326757600080fd5b61327388828901613175565b909450925061328690506060870161320d565b90509295509295909350565b803560ff8116811461321d57600080fd5b60008060008060008060a087890312156132bc57600080fd5b863595506132cc60208801613292565b9450604087013593506060870135925060808701356001600160401b038111156132f557600080fd5b61330189828a01613175565b979a9699509497509295939492505050565b60006020828403121561332557600080fd5b610d828261320d565b600081518084526020808501945080840160005b8381101561335e57815187529582019590820190600101613342565b509495945050505050565b602081526000610d82602083018461332e565b634e487b7160e01b600052604160045260246000fd5b604080519081016001600160401b03811182821017156133b4576133b461337c565b60405290565b60405160a081016001600160401b03811182821017156133b4576133b461337c565b604051601f8201601f191681016001600160401b03811182821017156134045761340461337c565b604052919050565b60006020828403121561341e57600080fd5b604051602081018181106001600160401b03821117156134405761344061337c565b60405290508082356134518161315d565b905292915050565b60006001600160401b038211156134725761347261337c565b5060051b60200190565b60006040828403121561348e57600080fd5b613496613392565b905081356001600160401b038111156134ae57600080fd5b8201601f810184136134bf57600080fd5b803560206134d46134cf83613459565b6133dc565b82815260059290921b830181019181810190878411156134f357600080fd5b938201935b8385101561351a57843561350b8161315d565b825293820193908201906134f8565b85525093840135938301939093525092915050565b600060a0828403121561354157600080fd5b6135496133ba565b905081356135568161315d565b8152602061356583820161320d565b8183015260408301356001600160401b038082111561358357600080fd5b818501915085601f83011261359757600080fd5b8135818111156135a9576135a961337c565b6135bb601f8201601f191685016133dc565b81815287858386010111156135cf57600080fd5b8185850186830137600085838301015280604087015250506135f4866060870161340c565b6060850152608085013592508083111561360d57600080fd5b505061361b8482850161347c565b60808301525092915050565b60006020828403121561363957600080fd5b81356001600160401b0381111561364f57600080fd5b6119578482850161352f565b6000604080835261366e8184018661332e565b83810360208581019190915285518083528682019282019060005b818110156136b6576136a683865180518252602090810151910152565b9383019391850191600101613689565b509098975050505050505050565b600080600080606085870312156136da57600080fd5b84356136e58161315d565b93506020850135925060408501356001600160401b0381111561370757600080fd5b61371387828801613175565b95989497509550505050565b60006020828403121561373157600080fd5b8135610d828161315d565b60008060006060848603121561375157600080fd5b8335925061376160208501613292565b9150604084013590509250925092565b6000806040838503121561378457600080fd5b8235915060208301356137968161315d565b809150509250929050565b60ff60f81b8816815260e0602082015260006137c060e08301896130d4565b82810360408401526137d281896130d4565b606084018890526001600160a01b038716608085015260a0840186905283810360c08501529050613803818561332e565b9a9950505050505050505050565b600081518084526020808501945080840160005b8381101561335e5781516001600160a01b031687529582019590820190600101613825565b602081526000610d826020830184613811565b60008060006040848603121561387257600080fd5b83356001600160401b038082111561388957600080fd5b6138958783880161352f565b945060208601359150808211156138ab57600080fd5b5061320086828701613175565b634e487b7160e01b600052602160045260246000fd5b60208101600583106138f057634e487b7160e01b600052602160045260246000fd5b91905290565b60208152600060018060a01b03808451166020840152602084015115156040840152604084015160a0606085015261393160c08501826130d4565b90508160608601515116608085015260808501519150601f198482030160a08501528151604082526139666040830182613811565b6020938401519290930191909152509392505050565b6000602080838503121561398f57600080fd5b82356001600160401b038111156139a557600080fd5b8301601f810185136139b657600080fd5b80356139c46134cf82613459565b81815260059190911b820183019083810190878311156139e357600080fd5b928401925b82841015613a01578335825292840192908401906139e8565b979650505050505050565b600181811c90821680613a2057607f821691505b602082108103613a4057634e487b7160e01b600052602260045260246000fd5b50919050565b60208082526045908201527f526577617264734d6f64756c653a2072756e20736574536f72746564416e645460408201527f69656450726f706f73616c73282920746f20706f70756c61746520746869732060608201526476616c756560d81b608082015260a00190565b634e487b7160e01b600052601160045260246000fd5b80820180821115610c3c57610c3c613ab1565b634e487b7160e01b600052603260045260246000fd5b8181036000831280158383131683831282161715613b1057613b10613ab1565b5092915050565b600060018201613b2957613b29613ab1565b5060010190565b81810381811115610c3c57610c3c613ab1565b6020808252602f908201527f476f7665726e6f723a2061646472657373206973206e6f74207065726d69737360408201526e1a5bdb9959081d1bc81cdd589b5a5d608a1b606082015260800190565b601f821115613bdc57600081815260208120601f850160051c81016020861015613bb95750805b601f850160051c820191505b81811015613bd857828155600101613bc5565b5050505b505050565b81516001600160401b03811115613bfa57613bfa61337c565b613c0e81613c088454613a0c565b84613b92565b602080601f831160018114613c435760008415613c2b5750858301515b600019600386901b1c1916600185901b178555613bd8565b600085815260208120601f198616915b82811015613c7257888601518255948401946001909101908401613c53565b5085821015613c905787850151600019600388901b60f8161c191681555b5050505050600190811b01905550565b84815260ff84166020820152826040820152608060608201526000613cc860808301846130d4565b969550505050505056fe546869732070726f706f73616c20686173206265656e2064656c65746564206279207468652063726561746f72206f662074686520636f6e746573742ea264697066735822122046c8f74839a1dec6104bb4cdef20016ca20006430e1ad38a68062aecad5a000064736f6c63430008130033",
    "linkReferences": {}
  },
  "methodIdentifiers": {
    "AMOUNT_FOR_SUMBITTER_PROOF()": "347cf665",
    "BALLOT_TYPEHASH()": "deaaa7cc",
    "COUNTING_MODE()": "dd4e2ba5",
    "METADATAS_COUNT()": "4d24a67f",
    "addressSubmitterVerified(address)": "cb853950",
    "addressTotalCastVoteCounts(address)": "a1ac6cb2",
    "addressTotalVotes(address)": "dea5f6a6",
    "addressTotalVotesVerified(address)": "930de979",
    "allProposalTotalVotes()": "50a5e524",
    "allProposalTotalVotesWithoutDeleted()": "d45a010b",
    "cancel()": "ea8a1af0",
    "castVote(uint256,uint8,uint256,uint256,bytes32[])": "419c533c",
    "castVoteWithoutProof(uint256,uint8,uint256)": "65f16263",
    "checkProof(address,uint256,bytes32[],bool)": "32763c22",
    "contestAddressTotalVotesCast(address)": "aec116b6",
    "contestDeadline()": "262e59e9",
    "contestStart()": "004114a8",
    "costToPropose()": "6ed815ad",
    "creator()": "02d05d3f",
    "deleteProposals(uint256[])": "f0a7db0a",
    "downvotingAllowed()": "60506ff6",
    "eip712Domain()": "84b0196e",
    "getAllProposalIds()": "efa90d36",
    "getNumSubmissions(address)": "5f953a03",
    "getProposal(uint256)": "c7f758a8",
    "hashProposal((address,bool,string,(address),(address[],uint256)))": "458da87d",
    "highestTiedRanking()": "ebc18b9b",
    "isProposalDeleted(uint256)": "3b6d199b",
    "isTied(uint256)": "2399c660",
    "lowestRanking()": "6ca1a2c7",
    "maxProposalCount()": "fb9bf8d4",
    "name()": "06fdde03",
    "numAllowedProposalSubmissions()": "832009af",
    "officialRewardsModule()": "785ddfe5",
    "prompt()": "7c65d711",
    "proposalAddressVotes(uint256,address)": "6e4eb810",
    "proposalAddressesHaveVoted(uint256)": "b323580d",
    "proposalVotes(uint256)": "544ffc9c",
    "proposalVotesStructs(uint256)": "070dc5d9",
    "propose((address,bool,string,(address),(address[],uint256)),bytes32[])": "c0ffaa78",
    "proposeWithoutProof((address,bool,string,(address),(address[],uint256)))": "476f4d8a",
    "rankingPosition(uint256)": "86187488",
    "setOfficialRewardsModule(address)": "f4f3d7ec",
    "setSortedAndTiedProposals()": "96f0e962",
    "setSortedAndTiedProposalsHasBeenRun()": "d8891619",
    "sortedProposalIds()": "8a9cd550",
    "sortedProposals(bool)": "427d56c2",
    "state()": "c19d93fb",
    "submissionMerkleRoot()": "bddc1641",
    "supportsInterface(bytes4)": "01ffc9a7",
    "tiedAdjustedRankingPosition(uint256)": "e5eb5a48",
    "totalVotesCast()": "7de418d5",
    "validateProposalData((address,bool,string,(address),(address[],uint256)))": "fb8ddab4",
    "verifyProposer(address,bytes32[])": "20b3e845",
    "verifyVoter(address,uint256,bytes32[])": "531bd812",
    "version()": "54fd4d50",
    "voteStart()": "e031535b",
    "votingDelay()": "3932abb1",
    "votingMerkleRoot()": "dd96a19d",
    "votingPeriod()": "02a251a3"
  },
  "id": 40
}