{
  "abi": [
    {
      "inputs": [
        {
          "internalType": "string",
          "name": "_name",
          "type": "string"
        },
        {
          "internalType": "string",
          "name": "_prompt",
          "type": "string"
        },
        {
          "internalType": "bytes32",
          "name": "_submissionMerkleRoot",
          "type": "bytes32"
        },
        {
          "internalType": "bytes32",
          "name": "_votingMerkleRoot",
          "type": "bytes32"
        },
        {
          "internalType": "uint256",
          "name": "_costToPropose",
          "type": "uint256"
        },
        {
          "internalType": "uint256[]",
          "name": "_constructorIntParams",
          "type": "uint256[]"
        }
      ],
      "stateMutability": "nonpayable",
      "type": "constructor"
    },
    {
      "inputs": [],
      "name": "InvalidShortString",
      "type": "error"
    },
    {
      "inputs": [],
      "name": "NotInMerkle",
      "type": "error"
    },
    {
      "inputs": [
        {
          "internalType": "string",
          "name": "str",
          "type": "string"
        }
      ],
      "name": "StringTooLong",
      "type": "error"
    },
    {
      "inputs": [],
      "name": "TooManyMetadatas",
      "type": "error"
    },
    {
      "anonymous": false,
      "inputs": [],
      "name": "ContestCanceled",
      "type": "event"
    },
    {
      "anonymous": false,
      "inputs": [
        {
          "indexed": false,
          "internalType": "uint256",
          "name": "oldContestStart",
          "type": "uint256"
        },
        {
          "indexed": false,
          "internalType": "uint256",
          "name": "newContestStart",
          "type": "uint256"
        }
      ],
      "name": "ContestStartSet",
      "type": "event"
    },
    {
      "anonymous": false,
      "inputs": [
        {
          "indexed": false,
          "internalType": "address",
          "name": "oldCreator",
          "type": "address"
        },
        {
          "indexed": false,
          "internalType": "address",
          "name": "newCreator",
          "type": "address"
        }
      ],
      "name": "CreatorSet",
      "type": "event"
    },
    {
      "anonymous": false,
      "inputs": [
        {
          "indexed": false,
          "internalType": "uint256",
          "name": "oldDownvotingAllowed",
          "type": "uint256"
        },
        {
          "indexed": false,
          "internalType": "uint256",
          "name": "newDownvotingAllowed",
          "type": "uint256"
        }
      ],
      "name": "DownvotingAllowedSet",
      "type": "event"
    },
    {
      "anonymous": false,
      "inputs": [],
      "name": "EIP712DomainChanged",
      "type": "event"
    },
    {
      "anonymous": false,
      "inputs": [
        {
          "indexed": false,
          "internalType": "uint256",
          "name": "oldMaxProposalCount",
          "type": "uint256"
        },
        {
          "indexed": false,
          "internalType": "uint256",
          "name": "newMaxProposalCount",
          "type": "uint256"
        }
      ],
      "name": "MaxProposalCountSet",
      "type": "event"
    },
    {
      "anonymous": false,
      "inputs": [
        {
          "indexed": false,
          "internalType": "uint256",
          "name": "oldNumAllowedProposalSubmissions",
          "type": "uint256"
        },
        {
          "indexed": false,
          "internalType": "uint256",
          "name": "newNumAllowedProposalSubmissions",
          "type": "uint256"
        }
      ],
      "name": "NumAllowedProposalSubmissionsSet",
      "type": "event"
    },
    {
      "anonymous": false,
      "inputs": [
        {
          "indexed": false,
          "internalType": "contract RewardsModule",
          "name": "oldOfficialRewardsModule",
          "type": "address"
        },
        {
          "indexed": false,
          "internalType": "contract RewardsModule",
          "name": "newOfficialRewardsModule",
          "type": "address"
        }
      ],
      "name": "OfficialRewardsModuleSet",
      "type": "event"
    },
    {
      "anonymous": false,
      "inputs": [
        {
          "indexed": false,
          "internalType": "address",
          "name": "to",
          "type": "address"
        },
        {
          "indexed": false,
          "internalType": "uint256",
          "name": "amount",
          "type": "uint256"
        }
      ],
      "name": "PaymentReleased",
      "type": "event"
    },
    {
      "anonymous": false,
      "inputs": [
        {
          "indexed": false,
          "internalType": "uint256",
          "name": "proposalId",
          "type": "uint256"
        },
        {
          "indexed": false,
          "internalType": "address",
          "name": "proposer",
          "type": "address"
        }
      ],
      "name": "ProposalCreated",
      "type": "event"
    },
    {
      "anonymous": false,
      "inputs": [
        {
          "indexed": false,
          "internalType": "uint256[]",
          "name": "proposalIds",
          "type": "uint256[]"
        }
      ],
      "name": "ProposalsDeleted",
      "type": "event"
    },
    {
      "anonymous": false,
      "inputs": [
        {
          "indexed": true,
          "internalType": "address",
          "name": "voter",
          "type": "address"
        },
        {
          "indexed": false,
          "internalType": "uint256",
          "name": "proposalId",
          "type": "uint256"
        },
        {
          "indexed": false,
          "internalType": "uint8",
          "name": "support",
          "type": "uint8"
        },
        {
          "indexed": false,
          "internalType": "uint256",
          "name": "numVotes",
          "type": "uint256"
        },
        {
          "indexed": false,
          "internalType": "string",
          "name": "reason",
          "type": "string"
        }
      ],
      "name": "VoteCast",
      "type": "event"
    },
    {
      "anonymous": false,
      "inputs": [
        {
          "indexed": false,
          "internalType": "uint256",
          "name": "oldVotingDelay",
          "type": "uint256"
        },
        {
          "indexed": false,
          "internalType": "uint256",
          "name": "newVotingDelay",
          "type": "uint256"
        }
      ],
      "name": "VotingDelaySet",
      "type": "event"
    },
    {
      "anonymous": false,
      "inputs": [
        {
          "indexed": false,
          "internalType": "uint256",
          "name": "oldVotingPeriod",
          "type": "uint256"
        },
        {
          "indexed": false,
          "internalType": "uint256",
          "name": "newVotingPeriod",
          "type": "uint256"
        }
      ],
      "name": "VotingPeriodSet",
      "type": "event"
    },
    {
      "inputs": [],
      "name": "AMOUNT_FOR_SUMBITTER_PROOF",
      "outputs": [
        {
          "internalType": "uint256",
          "name": "",
          "type": "uint256"
        }
      ],
      "stateMutability": "view",
      "type": "function"
    },
    {
      "inputs": [],
      "name": "BALLOT_TYPEHASH",
      "outputs": [
        {
          "internalType": "bytes32",
          "name": "",
          "type": "bytes32"
        }
      ],
      "stateMutability": "view",
      "type": "function"
    },
    {
      "inputs": [],
      "name": "COUNTING_MODE",
      "outputs": [
        {
          "internalType": "string",
          "name": "",
          "type": "string"
        }
      ],
      "stateMutability": "pure",
      "type": "function"
    },
    {
      "inputs": [],
      "name": "JK_LABS_REVENUE_ADDRESS",
      "outputs": [
        {
          "internalType": "address",
          "name": "",
          "type": "address"
        }
      ],
      "stateMutability": "view",
      "type": "function"
    },
    {
      "inputs": [],
      "name": "METADATAS_COUNT",
      "outputs": [
        {
          "internalType": "uint256",
          "name": "",
          "type": "uint256"
        }
      ],
      "stateMutability": "view",
      "type": "function"
    },
    {
      "inputs": [
        {
          "internalType": "address",
          "name": "",
          "type": "address"
        }
      ],
      "name": "addressSubmitterVerified",
      "outputs": [
        {
          "internalType": "bool",
          "name": "",
          "type": "bool"
        }
      ],
      "stateMutability": "view",
      "type": "function"
    },
    {
      "inputs": [
        {
          "internalType": "address",
          "name": "",
          "type": "address"
        }
      ],
      "name": "addressTotalCastVoteCounts",
      "outputs": [
        {
          "internalType": "uint256",
          "name": "",
          "type": "uint256"
        }
      ],
      "stateMutability": "view",
      "type": "function"
    },
    {
      "inputs": [
        {
          "internalType": "address",
          "name": "",
          "type": "address"
        }
      ],
      "name": "addressTotalVotes",
      "outputs": [
        {
          "internalType": "uint256",
          "name": "",
          "type": "uint256"
        }
      ],
      "stateMutability": "view",
      "type": "function"
    },
    {
      "inputs": [
        {
          "internalType": "address",
          "name": "",
          "type": "address"
        }
      ],
      "name": "addressTotalVotesVerified",
      "outputs": [
        {
          "internalType": "bool",
          "name": "",
          "type": "bool"
        }
      ],
      "stateMutability": "view",
      "type": "function"
    },
    {
      "inputs": [],
      "name": "allProposalTotalVotes",
      "outputs": [
        {
          "internalType": "uint256[]",
          "name": "proposalIdsReturn",
          "type": "uint256[]"
        },
        {
          "components": [
            {
              "internalType": "uint256",
              "name": "forVotes",
              "type": "uint256"
            },
            {
              "internalType": "uint256",
              "name": "againstVotes",
              "type": "uint256"
            }
          ],
          "internalType": "struct GovernorCountingSimple.VoteCounts[]",
          "name": "proposalVoteCountsArrayReturn",
          "type": "tuple[]"
        }
      ],
      "stateMutability": "view",
      "type": "function"
    },
    {
      "inputs": [],
      "name": "allProposalTotalVotesWithoutDeleted",
      "outputs": [
        {
          "internalType": "uint256[]",
          "name": "proposalIdsReturn",
          "type": "uint256[]"
        },
        {
          "components": [
            {
              "internalType": "uint256",
              "name": "forVotes",
              "type": "uint256"
            },
            {
              "internalType": "uint256",
              "name": "againstVotes",
              "type": "uint256"
            }
          ],
          "internalType": "struct GovernorCountingSimple.VoteCounts[]",
          "name": "proposalVoteCountsArrayReturn",
          "type": "tuple[]"
        }
      ],
      "stateMutability": "view",
      "type": "function"
    },
    {
      "inputs": [],
      "name": "cancel",
      "outputs": [],
      "stateMutability": "nonpayable",
      "type": "function"
    },
    {
      "inputs": [
        {
          "internalType": "uint256",
          "name": "proposalId",
          "type": "uint256"
        },
        {
          "internalType": "uint8",
          "name": "support",
          "type": "uint8"
        },
        {
          "internalType": "uint256",
          "name": "totalVotes",
          "type": "uint256"
        },
        {
          "internalType": "uint256",
          "name": "numVotes",
          "type": "uint256"
        },
        {
          "internalType": "bytes32[]",
          "name": "proof",
          "type": "bytes32[]"
        }
      ],
      "name": "castVote",
      "outputs": [
        {
          "internalType": "uint256",
          "name": "",
          "type": "uint256"
        }
      ],
      "stateMutability": "nonpayable",
      "type": "function"
    },
    {
      "inputs": [
        {
          "internalType": "uint256",
          "name": "proposalId",
          "type": "uint256"
        },
        {
          "internalType": "uint8",
          "name": "support",
          "type": "uint8"
        },
        {
          "internalType": "uint256",
          "name": "numVotes",
          "type": "uint256"
        }
      ],
      "name": "castVoteWithoutProof",
      "outputs": [
        {
          "internalType": "uint256",
          "name": "",
          "type": "uint256"
        }
      ],
      "stateMutability": "nonpayable",
      "type": "function"
    },
    {
      "inputs": [
        {
          "internalType": "address",
          "name": "addressToCheck",
          "type": "address"
        },
        {
          "internalType": "uint256",
          "name": "amount",
          "type": "uint256"
        },
        {
          "internalType": "bytes32[]",
          "name": "proof",
          "type": "bytes32[]"
        },
        {
          "internalType": "bool",
          "name": "voting",
          "type": "bool"
        }
      ],
      "name": "checkProof",
      "outputs": [
        {
          "internalType": "bool",
          "name": "verified",
          "type": "bool"
        }
      ],
      "stateMutability": "view",
      "type": "function"
    },
    {
      "inputs": [
        {
          "internalType": "address",
          "name": "userAddress",
          "type": "address"
        }
      ],
      "name": "contestAddressTotalVotesCast",
      "outputs": [
        {
          "internalType": "uint256",
          "name": "userTotalVotesCast",
          "type": "uint256"
        }
      ],
      "stateMutability": "view",
      "type": "function"
    },
    {
      "inputs": [],
      "name": "contestDeadline",
      "outputs": [
        {
          "internalType": "uint256",
          "name": "",
          "type": "uint256"
        }
      ],
      "stateMutability": "view",
      "type": "function"
    },
    {
      "inputs": [],
      "name": "contestStart",
      "outputs": [
        {
          "internalType": "uint256",
          "name": "",
          "type": "uint256"
        }
      ],
      "stateMutability": "view",
      "type": "function"
    },
    {
      "inputs": [],
      "name": "costToPropose",
      "outputs": [
        {
          "internalType": "uint256",
          "name": "",
          "type": "uint256"
        }
      ],
      "stateMutability": "view",
      "type": "function"
    },
    {
      "inputs": [],
      "name": "creator",
      "outputs": [
        {
          "internalType": "address",
          "name": "",
          "type": "address"
        }
      ],
      "stateMutability": "view",
      "type": "function"
    },
    {
      "inputs": [
        {
          "internalType": "uint256[]",
          "name": "proposalIds",
          "type": "uint256[]"
        }
      ],
      "name": "deleteProposals",
      "outputs": [],
      "stateMutability": "nonpayable",
      "type": "function"
    },
    {
      "inputs": [],
      "name": "downvotingAllowed",
      "outputs": [
        {
          "internalType": "uint256",
          "name": "",
          "type": "uint256"
        }
      ],
      "stateMutability": "view",
      "type": "function"
    },
    {
      "inputs": [],
      "name": "eip712Domain",
      "outputs": [
        {
          "internalType": "bytes1",
          "name": "fields",
          "type": "bytes1"
        },
        {
          "internalType": "string",
          "name": "name",
          "type": "string"
        },
        {
          "internalType": "string",
          "name": "version",
          "type": "string"
        },
        {
          "internalType": "uint256",
          "name": "chainId",
          "type": "uint256"
        },
        {
          "internalType": "address",
          "name": "verifyingContract",
          "type": "address"
        },
        {
          "internalType": "bytes32",
          "name": "salt",
          "type": "bytes32"
        },
        {
          "internalType": "uint256[]",
          "name": "extensions",
          "type": "uint256[]"
        }
      ],
      "stateMutability": "view",
      "type": "function"
    },
    {
      "inputs": [],
      "name": "getAllProposalIds",
      "outputs": [
        {
          "internalType": "uint256[]",
          "name": "",
          "type": "uint256[]"
        }
      ],
      "stateMutability": "view",
      "type": "function"
    },
    {
      "inputs": [
        {
          "internalType": "address",
          "name": "account",
          "type": "address"
        }
      ],
      "name": "getNumSubmissions",
      "outputs": [
        {
          "internalType": "uint256",
          "name": "",
          "type": "uint256"
        }
      ],
      "stateMutability": "view",
      "type": "function"
    },
    {
      "inputs": [
        {
          "internalType": "uint256",
          "name": "proposalId",
          "type": "uint256"
        }
      ],
      "name": "getProposal",
      "outputs": [
        {
          "components": [
            {
              "internalType": "address",
              "name": "author",
              "type": "address"
            },
            {
              "internalType": "bool",
              "name": "exists",
              "type": "bool"
            },
            {
              "internalType": "string",
              "name": "description",
              "type": "string"
            },
            {
              "components": [
                {
                  "internalType": "address",
                  "name": "targetAddress",
                  "type": "address"
                }
              ],
              "internalType": "struct IGovernor.TargetMetadata",
              "name": "targetMetadata",
              "type": "tuple"
            },
            {
              "components": [
                {
                  "internalType": "address[]",
                  "name": "signers",
                  "type": "address[]"
                },
                {
                  "internalType": "uint256",
                  "name": "threshold",
                  "type": "uint256"
                }
              ],
              "internalType": "struct IGovernor.SafeMetadata",
              "name": "safeMetadata",
              "type": "tuple"
            }
          ],
          "internalType": "struct IGovernor.ProposalCore",
          "name": "",
          "type": "tuple"
        }
      ],
      "stateMutability": "view",
      "type": "function"
    },
    {
      "inputs": [
        {
          "components": [
            {
              "internalType": "address",
              "name": "author",
              "type": "address"
            },
            {
              "internalType": "bool",
              "name": "exists",
              "type": "bool"
            },
            {
              "internalType": "string",
              "name": "description",
              "type": "string"
            },
            {
              "components": [
                {
                  "internalType": "address",
                  "name": "targetAddress",
                  "type": "address"
                }
              ],
              "internalType": "struct IGovernor.TargetMetadata",
              "name": "targetMetadata",
              "type": "tuple"
            },
            {
              "components": [
                {
                  "internalType": "address[]",
                  "name": "signers",
                  "type": "address[]"
                },
                {
                  "internalType": "uint256",
                  "name": "threshold",
                  "type": "uint256"
                }
              ],
              "internalType": "struct IGovernor.SafeMetadata",
              "name": "safeMetadata",
              "type": "tuple"
            }
          ],
          "internalType": "struct IGovernor.ProposalCore",
          "name": "proposal",
          "type": "tuple"
        }
      ],
      "name": "hashProposal",
      "outputs": [
        {
          "internalType": "uint256",
          "name": "",
          "type": "uint256"
        }
      ],
      "stateMutability": "pure",
      "type": "function"
    },
    {
      "inputs": [],
      "name": "highestTiedRanking",
      "outputs": [
        {
          "internalType": "uint256",
          "name": "",
          "type": "uint256"
        }
      ],
      "stateMutability": "view",
      "type": "function"
    },
    {
      "inputs": [
        {
          "internalType": "uint256",
          "name": "proposalId",
          "type": "uint256"
        }
      ],
      "name": "isProposalDeleted",
      "outputs": [
        {
          "internalType": "uint256",
          "name": "",
          "type": "uint256"
        }
      ],
      "stateMutability": "view",
      "type": "function"
    },
    {
      "inputs": [
        {
          "internalType": "uint256",
          "name": "ranking",
          "type": "uint256"
        }
      ],
      "name": "isTied",
      "outputs": [
        {
          "internalType": "bool",
          "name": "",
          "type": "bool"
        }
      ],
      "stateMutability": "view",
      "type": "function"
    },
    {
      "inputs": [],
      "name": "lowestRanking",
      "outputs": [
        {
          "internalType": "uint256",
          "name": "",
          "type": "uint256"
        }
      ],
      "stateMutability": "view",
      "type": "function"
    },
    {
      "inputs": [],
      "name": "maxProposalCount",
      "outputs": [
        {
          "internalType": "uint256",
          "name": "",
          "type": "uint256"
        }
      ],
      "stateMutability": "view",
      "type": "function"
    },
    {
      "inputs": [],
      "name": "name",
      "outputs": [
        {
          "internalType": "string",
          "name": "",
          "type": "string"
        }
      ],
      "stateMutability": "view",
      "type": "function"
    },
    {
      "inputs": [],
      "name": "numAllowedProposalSubmissions",
      "outputs": [
        {
          "internalType": "uint256",
          "name": "",
          "type": "uint256"
        }
      ],
      "stateMutability": "view",
      "type": "function"
    },
    {
      "inputs": [],
      "name": "officialRewardsModule",
      "outputs": [
        {
          "internalType": "contract RewardsModule",
          "name": "",
          "type": "address"
        }
      ],
      "stateMutability": "view",
      "type": "function"
    },
    {
      "inputs": [],
      "name": "prompt",
      "outputs": [
        {
          "internalType": "string",
          "name": "",
          "type": "string"
        }
      ],
      "stateMutability": "view",
      "type": "function"
    },
    {
      "inputs": [
        {
          "internalType": "uint256",
          "name": "proposalId",
          "type": "uint256"
        },
        {
          "internalType": "address",
          "name": "userAddress",
          "type": "address"
        }
      ],
      "name": "proposalAddressVotes",
      "outputs": [
        {
          "internalType": "uint256",
          "name": "forVotes",
          "type": "uint256"
        },
        {
          "internalType": "uint256",
          "name": "againstVotes",
          "type": "uint256"
        }
      ],
      "stateMutability": "view",
      "type": "function"
    },
    {
      "inputs": [
        {
          "internalType": "uint256",
          "name": "proposalId",
          "type": "uint256"
        }
      ],
      "name": "proposalAddressesHaveVoted",
      "outputs": [
        {
          "internalType": "address[]",
          "name": "",
          "type": "address[]"
        }
      ],
      "stateMutability": "view",
      "type": "function"
    },
    {
      "inputs": [
        {
          "internalType": "uint256",
          "name": "proposalId",
          "type": "uint256"
        }
      ],
      "name": "proposalVotes",
      "outputs": [
        {
          "internalType": "uint256",
          "name": "forVotes",
          "type": "uint256"
        },
        {
          "internalType": "uint256",
          "name": "againstVotes",
          "type": "uint256"
        }
      ],
      "stateMutability": "view",
      "type": "function"
    },
    {
      "inputs": [
        {
          "internalType": "uint256",
          "name": "",
          "type": "uint256"
        }
      ],
      "name": "proposalVotesStructs",
      "outputs": [
        {
          "components": [
            {
              "internalType": "uint256",
              "name": "forVotes",
              "type": "uint256"
            },
            {
              "internalType": "uint256",
              "name": "againstVotes",
              "type": "uint256"
            }
          ],
          "internalType": "struct GovernorCountingSimple.VoteCounts",
          "name": "proposalVoteCounts",
          "type": "tuple"
        }
      ],
      "stateMutability": "view",
      "type": "function"
    },
    {
      "inputs": [
        {
          "components": [
            {
              "internalType": "address",
              "name": "author",
              "type": "address"
            },
            {
              "internalType": "bool",
              "name": "exists",
              "type": "bool"
            },
            {
              "internalType": "string",
              "name": "description",
              "type": "string"
            },
            {
              "components": [
                {
                  "internalType": "address",
                  "name": "targetAddress",
                  "type": "address"
                }
              ],
              "internalType": "struct IGovernor.TargetMetadata",
              "name": "targetMetadata",
              "type": "tuple"
            },
            {
              "components": [
                {
                  "internalType": "address[]",
                  "name": "signers",
                  "type": "address[]"
                },
                {
                  "internalType": "uint256",
                  "name": "threshold",
                  "type": "uint256"
                }
              ],
              "internalType": "struct IGovernor.SafeMetadata",
              "name": "safeMetadata",
              "type": "tuple"
            }
          ],
          "internalType": "struct IGovernor.ProposalCore",
          "name": "proposal",
          "type": "tuple"
        },
        {
          "internalType": "bytes32[]",
          "name": "proof",
          "type": "bytes32[]"
        }
      ],
      "name": "propose",
      "outputs": [
        {
          "internalType": "uint256",
          "name": "",
          "type": "uint256"
        }
      ],
      "stateMutability": "payable",
      "type": "function"
    },
    {
      "inputs": [
        {
          "components": [
            {
              "internalType": "address",
              "name": "author",
              "type": "address"
            },
            {
              "internalType": "bool",
              "name": "exists",
              "type": "bool"
            },
            {
              "internalType": "string",
              "name": "description",
              "type": "string"
            },
            {
              "components": [
                {
                  "internalType": "address",
                  "name": "targetAddress",
                  "type": "address"
                }
              ],
              "internalType": "struct IGovernor.TargetMetadata",
              "name": "targetMetadata",
              "type": "tuple"
            },
            {
              "components": [
                {
                  "internalType": "address[]",
                  "name": "signers",
                  "type": "address[]"
                },
                {
                  "internalType": "uint256",
                  "name": "threshold",
                  "type": "uint256"
                }
              ],
              "internalType": "struct IGovernor.SafeMetadata",
              "name": "safeMetadata",
              "type": "tuple"
            }
          ],
          "internalType": "struct IGovernor.ProposalCore",
          "name": "proposal",
          "type": "tuple"
        }
      ],
      "name": "proposeWithoutProof",
      "outputs": [
        {
          "internalType": "uint256",
          "name": "",
          "type": "uint256"
        }
      ],
      "stateMutability": "nonpayable",
      "type": "function"
    },
    {
      "inputs": [
        {
          "internalType": "uint256",
          "name": "ranking",
          "type": "uint256"
        }
      ],
      "name": "rankingPosition",
      "outputs": [
        {
          "internalType": "uint256",
          "name": "",
          "type": "uint256"
        }
      ],
      "stateMutability": "view",
      "type": "function"
    },
    {
      "inputs": [
        {
          "internalType": "contract RewardsModule",
          "name": "officialRewardsModule_",
          "type": "address"
        }
      ],
      "name": "setOfficialRewardsModule",
      "outputs": [],
      "stateMutability": "nonpayable",
      "type": "function"
    },
    {
      "inputs": [],
      "name": "setSortedAndTiedProposals",
      "outputs": [],
      "stateMutability": "nonpayable",
      "type": "function"
    },
    {
      "inputs": [],
      "name": "setSortedAndTiedProposalsHasBeenRun",
      "outputs": [
        {
          "internalType": "bool",
          "name": "",
          "type": "bool"
        }
      ],
      "stateMutability": "view",
      "type": "function"
    },
    {
      "inputs": [],
      "name": "sortedProposalIds",
      "outputs": [
        {
          "internalType": "uint256[]",
          "name": "",
          "type": "uint256[]"
        }
      ],
      "stateMutability": "view",
      "type": "function"
    },
    {
      "inputs": [
        {
          "internalType": "bool",
          "name": "excludeDeletedProposals",
          "type": "bool"
        }
      ],
      "name": "sortedProposals",
      "outputs": [
        {
          "internalType": "uint256[]",
          "name": "sortedProposalIdsReturn",
          "type": "uint256[]"
        }
      ],
      "stateMutability": "view",
      "type": "function"
    },
    {
      "inputs": [],
      "name": "state",
      "outputs": [
        {
          "internalType": "enum IGovernor.ContestState",
          "name": "",
          "type": "uint8"
        }
      ],
      "stateMutability": "view",
      "type": "function"
    },
    {
      "inputs": [],
      "name": "submissionMerkleRoot",
      "outputs": [
        {
          "internalType": "bytes32",
          "name": "",
          "type": "bytes32"
        }
      ],
      "stateMutability": "view",
      "type": "function"
    },
    {
      "inputs": [
        {
          "internalType": "bytes4",
          "name": "interfaceId",
          "type": "bytes4"
        }
      ],
      "name": "supportsInterface",
      "outputs": [
        {
          "internalType": "bool",
          "name": "",
          "type": "bool"
        }
      ],
      "stateMutability": "view",
      "type": "function"
    },
    {
      "inputs": [
        {
          "internalType": "uint256",
          "name": "",
          "type": "uint256"
        }
      ],
      "name": "tiedAdjustedRankingPosition",
      "outputs": [
        {
          "internalType": "uint256",
          "name": "",
          "type": "uint256"
        }
      ],
      "stateMutability": "view",
      "type": "function"
    },
    {
      "inputs": [],
      "name": "totalVotesCast",
      "outputs": [
        {
          "internalType": "uint256",
          "name": "",
          "type": "uint256"
        }
      ],
      "stateMutability": "view",
      "type": "function"
    },
    {
      "inputs": [
        {
          "components": [
            {
              "internalType": "address",
              "name": "author",
              "type": "address"
            },
            {
              "internalType": "bool",
              "name": "exists",
              "type": "bool"
            },
            {
              "internalType": "string",
              "name": "description",
              "type": "string"
            },
            {
              "components": [
                {
                  "internalType": "address",
                  "name": "targetAddress",
                  "type": "address"
                }
              ],
              "internalType": "struct IGovernor.TargetMetadata",
              "name": "targetMetadata",
              "type": "tuple"
            },
            {
              "components": [
                {
                  "internalType": "address[]",
                  "name": "signers",
                  "type": "address[]"
                },
                {
                  "internalType": "uint256",
                  "name": "threshold",
                  "type": "uint256"
                }
              ],
              "internalType": "struct IGovernor.SafeMetadata",
              "name": "safeMetadata",
              "type": "tuple"
            }
          ],
          "internalType": "struct IGovernor.ProposalCore",
          "name": "proposal",
          "type": "tuple"
        }
      ],
      "name": "validateProposalData",
      "outputs": [
        {
          "internalType": "bool",
          "name": "dataValidated",
          "type": "bool"
        }
      ],
      "stateMutability": "nonpayable",
      "type": "function"
    },
    {
      "inputs": [
        {
          "internalType": "address",
          "name": "account",
          "type": "address"
        },
        {
          "internalType": "bytes32[]",
          "name": "proof",
          "type": "bytes32[]"
        }
      ],
      "name": "verifyProposer",
      "outputs": [
        {
          "internalType": "bool",
          "name": "verified",
          "type": "bool"
        }
      ],
      "stateMutability": "nonpayable",
      "type": "function"
    },
    {
      "inputs": [
        {
          "internalType": "address",
          "name": "account",
          "type": "address"
        },
        {
          "internalType": "uint256",
          "name": "totalVotes",
          "type": "uint256"
        },
        {
          "internalType": "bytes32[]",
          "name": "proof",
          "type": "bytes32[]"
        }
      ],
      "name": "verifyVoter",
      "outputs": [
        {
          "internalType": "bool",
          "name": "verified",
          "type": "bool"
        }
      ],
      "stateMutability": "nonpayable",
      "type": "function"
    },
    {
      "inputs": [],
      "name": "version",
      "outputs": [
        {
          "internalType": "string",
          "name": "",
          "type": "string"
        }
      ],
      "stateMutability": "view",
      "type": "function"
    },
    {
      "inputs": [],
      "name": "voteStart",
      "outputs": [
        {
          "internalType": "uint256",
          "name": "",
          "type": "uint256"
        }
      ],
      "stateMutability": "view",
      "type": "function"
    },
    {
      "inputs": [],
      "name": "votingDelay",
      "outputs": [
        {
          "internalType": "uint256",
          "name": "",
          "type": "uint256"
        }
      ],
      "stateMutability": "view",
      "type": "function"
    },
    {
      "inputs": [],
      "name": "votingMerkleRoot",
      "outputs": [
        {
          "internalType": "bytes32",
          "name": "",
          "type": "bytes32"
        }
      ],
      "stateMutability": "view",
      "type": "function"
    },
    {
      "inputs": [],
      "name": "votingPeriod",
      "outputs": [
        {
          "internalType": "uint256",
          "name": "",
          "type": "uint256"
        }
      ],
      "stateMutability": "view",
      "type": "function"
    },
    {
      "stateMutability": "payable",
      "type": "receive"
    }
  ],
  "bytecode": {
    "object": "0x6101a06040526017805460ff191690553480156200001c57600080fd5b50604051620049be380380620049be8339810160408190526200003f9162000622565b806000815181106200005557620000556200073b565b6020026020010151816001815181106200007357620000736200073b565b6020026020010151826002815181106200009157620000916200073b565b602002602001015183600381518110620000af57620000af6200073b565b602002602001015184600481518110620000cd57620000cd6200073b565b602002602001015185600581518110620000eb57620000eb6200073b565b60200260200101518b8b8b8b8b8282866200010b6200025160201b60201c565b620001188260006200026e565b61012052620001298160016200026e565b61014052815160208084019190912060e052815190820120610100524660a052620001b760e05161010051604080517f8b73c3c69bb8fe3d512ecc4cf759cc79239f7b179b0ffacaa9a75d522b39400f60208201529081019290925260608201524660808201523060a082015260009060c00160405160208183030381529060405280519060200120905090565b60805250503060c05261016091909152610180526007620001d98682620007e0565b506008620001e88582620007e0565b50600c5550620001fd925088915050620002a7565b6200020885620002e8565b620002138462000329565b6200021e83620003d0565b620002298262000411565b620002348162000452565b6200023f3362000493565b50505050505050505050505062000906565b6040805180820190915260038152620ccb8d60ea1b602082015290565b60006020835110156200028e576200028683620004fc565b9050620002a1565b816200029b8482620007e0565b5060ff90505b92915050565b600d5460408051918252602082018390527fd299feb1d7d9345a48559601c471c3be7eea9a11f21d5e86809198f40a974db4910160405180910390a1600d55565b600e5460408051918252602082018390527fc565b045403dc03c2eea82b81a0465edad9e2e7fc4d97e11421c209da93d7a93910160405180910390a1600e55565b600081116200038f5760405162461bcd60e51b815260206004820152602760248201527f476f7665726e6f7253657474696e67733a20766f74696e6720706572696f6420604482015266746f6f206c6f7760c81b60648201526084015b60405180910390fd5b600f5460408051918252602082018390527f7e3f7f0708a84de9203036abaa450dccc85ad5ff52f78c170f3edb55cf5e8828910160405180910390a1600f55565b60105460408051918252602082018390527fe971b819c7fb95c72451f557226aceb5baaf4994a9d39a79bbfa0040e87500b9910160405180910390a1601055565b60115460408051918252602082018390527f4984ec996723330ee95979ed65a2a4b41edd914e68a187efe92596474643bdff910160405180910390a1601155565b60125460408051918252602082018390527f9c7b27f091caef3a83be73d89320404fa0c4a52993685ff0651672e49e6e55ab910160405180910390a1601255565b601354604080516001600160a01b03928316815291831660208301527fc30034fc2e9697980e08935bbc287db3eaa44a4aa113ef4c108b356adbf911ce910160405180910390a1601380546001600160a01b0319166001600160a01b0392909216919091179055565b600080829050601f815111156200052a578260405163305a27a960e01b8152600401620003869190620008ac565b80516200053782620008e1565b179392505050565b634e487b7160e01b600052604160045260246000fd5b604051601f8201601f191681016001600160401b03811182821017156200058057620005806200053f565b604052919050565b60005b83811015620005a55781810151838201526020016200058b565b50506000910152565b600082601f830112620005c057600080fd5b81516001600160401b03811115620005dc57620005dc6200053f565b620005f1601f8201601f191660200162000555565b8181528460208386010111156200060757600080fd5b6200061a82602083016020870162000588565b949350505050565b60008060008060008060c087890312156200063c57600080fd5b86516001600160401b03808211156200065457600080fd5b620006628a838b01620005ae565b97506020915081890151818111156200067a57600080fd5b620006888b828c01620005ae565b97505060408901519550606089015194506080890151935060a089015181811115620006b357600080fd5b8901601f81018b13620006c557600080fd5b805182811115620006da57620006da6200053f565b8060051b9250620006ed84840162000555565b818152928201840192848101908d8511156200070857600080fd5b928501925b8484101562000728578351825292850192908501906200070d565b8096505050505050509295509295509295565b634e487b7160e01b600052603260045260246000fd5b600181811c908216806200076657607f821691505b6020821081036200078757634e487b7160e01b600052602260045260246000fd5b50919050565b601f821115620007db57600081815260208120601f850160051c81016020861015620007b65750805b601f850160051c820191505b81811015620007d757828155600101620007c2565b5050505b505050565b81516001600160401b03811115620007fc57620007fc6200053f565b62000814816200080d845462000751565b846200078d565b602080601f8311600181146200084c5760008415620008335750858301515b600019600386901b1c1916600185901b178555620007d7565b600085815260208120601f198616915b828110156200087d578886015182559484019460019091019084016200085c565b50858210156200089c5787850151600019600388901b60f8161c191681555b5050505050600190811b01905550565b6020815260008251806020840152620008cd81604085016020870162000588565b601f01601f19169190910160400192915050565b80516020808301519190811015620007875760001960209190910360031b1b16919050565b60805160a05160c05160e051610100516101205161014051610160516101805161403a6200098460003960008181610aa80152610ef301526000818161096d01528181610d3b01528181610e8e015261115c015260006114b90152600061148f0152600050506000505060005050600050506000505061403a6000f3fe6080604052600436106103a55760003560e01c80637de418d5116101e7578063cb8539501161010d578063e5eb5a48116100a0578063f0a7db0a1161006f578063f0a7db0a14610bac578063f4f3d7ec14610bcc578063fb8ddab414610bec578063fb9bf8d414610c0c57600080fd5b8063e5eb5a4814610b40578063ea8a1af014610b6d578063ebc18b9b14610b82578063efa90d3614610b9757600080fd5b8063dd96a19d116100dc578063dd96a19d14610a96578063dea5f6a614610aca578063deaaa7cc14610af7578063e031535b14610b2b57600080fd5b8063cb853950146109f1578063d45a010b14610a21578063d889161914610a36578063dd4e2ba514610a5057600080fd5b806396f0e96211610185578063bddc164111610154578063bddc16411461095b578063c0ffaa781461098f578063c19d93fb146109a2578063c7f758a8146109c457600080fd5b806396f0e962146108b6578063a1ac6cb2146108cb578063aec116b6146108f8578063b323580d1461092e57600080fd5b806386187488116101c157806386187488146108295780638a9cd55014610849578063930de9791461085e57806396157fd21461088e57600080fd5b80637de418d5146107d6578063832009af146107ec57806384b0196e1461080157600080fd5b8063458da87d116102cc5780635f953a031161026a5780636e4eb810116102395780636e4eb8101461076e5780636ed815ad1461078e578063785ddfe5146107a35780637c65d711146107c157600080fd5b80635f953a03146106ee57806360506ff61461072457806365f16263146107395780636ca1a2c71461075957600080fd5b806350a5e524116102a657806350a5e52414610635578063531bd81214610658578063544ffc9c1461067857806354fd4d50146106c257600080fd5b8063458da87d146105e0578063476f4d8a146106005780634d24a67f1461062057600080fd5b80632399c660116103445780633932abb1116103135780633932abb1146105515780633b6d199b14610566578063419c533c14610593578063427d56c2146105b357600080fd5b80632399c660146104e0578063262e59e91461050057806332763c2214610515578063347cf6651461053557600080fd5b806302d05d3f1161038057806302d05d3f1461042057806306fdde031461044d578063070dc5d91461046f57806320b3e845146104c057600080fd5b80624114a8146103b357806301ffc9a7146103db57806302a251a31461040b57600080fd5b366103ae57005b005b600080fd5b3480156103bf57600080fd5b506103c8610c21565b6040519081526020015b60405180910390f35b3480156103e757600080fd5b506103fb6103f636600461337e565b610c31565b60405190151581526020016103d2565b34801561041757600080fd5b506103c8610c68565b34801561042c57600080fd5b50610435610c73565b6040516001600160a01b0390911681526020016103d2565b34801561045957600080fd5b50610462610c87565b6040516103d291906133ee565b34801561047b57600080fd5b506104b361048a366004613401565b601660209081526000918252604091829020825180840190935280548352600101549082015281565b6040516103d2919061341a565b3480156104cc57600080fd5b506103fb6104db36600461348d565b610d19565b3480156104ec57600080fd5b506103fb6104fb366004613401565b610daf565b34801561050c57600080fd5b506103c8610df3565b34801561052157600080fd5b506103fb6105303660046134f6565b610e0f565b34801561054157600080fd5b506103c8678ac7230489e8000081565b34801561055d57600080fd5b506103c8610f4c565b34801561057257600080fd5b506103c8610581366004613401565b60009081526006602052604090205490565b34801561059f57600080fd5b506103c86105ae366004613577565b610f57565b3480156105bf57600080fd5b506105d36105ce3660046135e7565b610f8f565b6040516103d2919061363d565b3480156105ec57600080fd5b506103c86105fb3660046138fb565b611127565b34801561060c57600080fd5b506103c861061b3660046138fb565b611158565b34801561062c57600080fd5b506103c8600281565b34801561064157600080fd5b5061064a6111c2565b6040516103d292919061392f565b34801561066457600080fd5b506103fb610673366004613998565b6112c8565b34801561068457600080fd5b506106ad610693366004613401565b600090815260166020526040902080546001909101549091565b604080519283526020830191909152016103d2565b3480156106ce57600080fd5b506040805180820190915260038152620ccb8d60ea1b6020820152610462565b3480156106fa57600080fd5b506103c86107093660046139f3565b6001600160a01b03166000908152600b602052604090205490565b34801561073057600080fd5b506103c8611333565b34801561074557600080fd5b506103c8610754366004613a10565b61133e565b34801561076557600080fd5b506103c8611406565b34801561077a57600080fd5b506106ad610789366004613a45565b611432565b34801561079a57600080fd5b50600c546103c8565b3480156107af57600080fd5b50601d546001600160a01b0316610435565b3480156107cd57600080fd5b50610462611467565b3480156107e257600080fd5b506103c860145481565b3480156107f857600080fd5b506103c8611476565b34801561080d57600080fd5b50610816611481565b6040516103d29796959493929190613a75565b34801561083557600080fd5b506103c8610844366004613401565b611509565b34801561085557600080fd5b506105d3611541565b34801561086a57600080fd5b506103fb6108793660046139f3565b60036020526000908152604090205460ff1681565b34801561089a57600080fd5b5061043573d698e31229ab86334924ed9dffd096a71c68690081565b3480156108c257600080fd5b506103ac6115bb565b3480156108d757600080fd5b506103c86108e63660046139f3565b60156020526000908152604090205481565b34801561090457600080fd5b506103c86109133660046139f3565b6001600160a01b031660009081526015602052604090205490565b34801561093a57600080fd5b5061094e610949366004613401565b6118cf565b6040516103d29190613b1e565b34801561096757600080fd5b506103c87f000000000000000000000000000000000000000000000000000000000000000081565b6103c861099d366004613b31565b611941565b3480156109ae57600080fd5b506109b7611b15565b6040516103d29190613ba2565b3480156109d057600080fd5b506109e46109df366004613401565b611b87565b6040516103d29190613bca565b3480156109fd57600080fd5b506103fb610a0c3660046139f3565b60046020526000908152604090205460ff1681565b348015610a2d57600080fd5b5061064a611d01565b348015610a4257600080fd5b506017546103fb9060ff1681565b348015610a5c57600080fd5b5060408051808201909152601881527f737570706f72743d627261766f2671756f72756d3d666f7200000000000000006020820152610462565b348015610aa257600080fd5b506103c87f000000000000000000000000000000000000000000000000000000000000000081565b348015610ad657600080fd5b506103c8610ae53660046139f3565b60026020526000908152604090205481565b348015610b0357600080fd5b506103c87f150214d74d59b7d1e90c73fc22ef3d991dd0a76b046543d4d80ab92d2a50328f81565b348015610b3757600080fd5b506103c8611ecc565b348015610b4c57600080fd5b506103c8610b5b366004613401565b60186020526000908152604090205481565b348015610b7957600080fd5b506103ac611ede565b348015610b8e57600080fd5b506103c8611fc8565b348015610ba357600080fd5b506105d3611ff4565b348015610bb857600080fd5b506103ac610bc7366004613c50565b61204a565b348015610bd857600080fd5b506103ac610be73660046139f3565b61228d565b348015610bf857600080fd5b506103fb610c073660046138fb565b612328565b348015610c1857600080fd5b506103c86125b3565b6000610c2c600d5490565b905090565b60006001600160e01b03198216634000b16560e11b1480610c6257506301ffc9a760e01b6001600160e01b03198316145b92915050565b6000610c2c600f5490565b6000610c2c6013546001600160a01b031690565b606060078054610c9690613ce0565b80601f0160208091040260200160405190810160405280929190818152602001828054610cc290613ce0565b8015610d0f5780601f10610ce457610100808354040283529160200191610d0f565b820191906000526020600020905b815481529060010190602001808311610cf257829003601f168201915b5050505050905090565b6001600160a01b03831660009081526004602052604081205460ff16610da4577f0000000000000000000000000000000000000000000000000000000000000000600003610d6957506001610da8565b610d7f84678ac7230489e8000085856000610e0f565b506001600160a01b0384166000908152600460205260409020805460ff191660011790555b5060015b9392505050565b60175460009060ff16610ddd5760405162461bcd60e51b8152600401610dd490613d1a565b60405180910390fd5b5060009081526019602052604090205460ff1690565b6000610dfd610c68565b610e05611ecc565b610c2c9190613d9b565b6040516bffffffffffffffffffffffff19606087901b166020820152603481018590526000908190605401604051602081830303815290604052805190602001209050600083610ebe57610eb98686808060200260200160405190810160405280939291908181526020018383602002808284376000920191909152507f000000000000000000000000000000000000000000000000000000000000000092508691506125be9050565b610f1e565b610f1e8686808060200260200160405190810160405280939291908181526020018383602002808284376000920191909152507f000000000000000000000000000000000000000000000000000000000000000092508691506125be9050565b905080610f3e5760405163452c2df160e11b815260040160405180910390fd5b506001979650505050505050565b6000610c2c600e5490565b600033610f66818786866112c8565b50610f8388828988604051806020016040528060008152506125d4565b98975050505050505050565b606060008083610fa657610fa16111c2565b610fae565b610fae611d01565b91509150600082511161101e5760405162461bcd60e51b815260206004820152603260248201527f476f7665726e6f72536f7274696e673a2063616e6e6f7420736f72742061206c6044820152710d2e6e840decc40f4cae4de40d8cadccee8d60731b6064820152608401610dd4565b600082516001600160401b0381111561103957611039613650565b604051908082528060200260200182016040528015611062578160200160208202803683370190505b50905060005b82518110156110e65782818151811061108357611083613dae565b6020026020010151602001518382815181106110a1576110a1613dae565b6020026020010151600001516110b79190613dc4565b8282815181106110c9576110c9613dae565b6020908102919091010152806110de81613deb565b915050611068565b5060005b600184516110f89190613e04565b81101561111d5761110a8183866127ee565b508061111581613deb565b9150506110ea565b5091949350505050565b60008160405160200161113a9190613bca565b60408051601f19818403018152919052805160209091012092915050565b60007f0000000000000000000000000000000000000000000000000000000000000000156111af573360009081526004602052604090205460ff166111af5760405162461bcd60e51b8152600401610dd490613e17565b6111b882612328565b50610c6282612954565b60608060006111cf611ff4565b9050600081516001600160401b038111156111ec576111ec613650565b60405190808252806020026020018201604052801561123157816020015b604080518082019091526000808252602082015281526020019060019003908161120a5790505b50905060005b82518110156112be576016600084838151811061125657611256613dae565b60200260200101518152602001908152602001600020600001604051806040016040529081600082015481526020016001820154815250508282815181106112a0576112a0613dae565b602002602001018190525080806112b690613deb565b915050611237565b5090939092509050565b6001600160a01b03841660009081526003602052604081205460ff16611328576112f6858585856001610e0f565b506001600160a01b038516600090815260026020908152604080832087905560039091529020805460ff191660011790555b506001949350505050565b6000610c2c60125490565b3360008181526003602052604081205490919060ff166113e15760405162461bcd60e51b815260206004820152605260248201527f476f7665726e6f723a20796f75206e65656420746f2063617374206120766f7460448201527f652077697468207468652070726f6f66206174206c65617374206f6e636520616064820152711b99081e5bdd481a185d995b89dd081e595d60721b608482015260a401610dd4565b6113fd85828686604051806020016040528060008152506125d4565b95945050505050565b60175460009060ff1661142b5760405162461bcd60e51b8152600401610dd490613d1a565b50601b5490565b60008281526016602090815260408083206001600160a01b0385168452600301909152902080546001909101545b9250929050565b606060088054610c9690613ce0565b6000610c2c60105490565b6000606080828080836114b47f000000000000000000000000000000000000000000000000000000000000000083612ce1565b6114df7f00000000000000000000000000000000000000000000000000000000000000006001612ce1565b60408051600080825260208201909252600f60f81b9b939a50919850469750309650945092509050565b60175460009060ff1661152e5760405162461bcd60e51b8152600401610dd490613d1a565b5060009081526018602052604090205490565b60175460609060ff166115665760405162461bcd60e51b8152600401610dd490613d1a565b601a805480602002602001604051908101604052809291908181526020018280548015610d0f57602002820191906000526020600020905b81548152602001906001019080831161159e575050505050905090565b60046115c5611b15565b60048111156115d6576115d6613b8c565b146116595760405162461bcd60e51b815260206004820152604760248201527f476f7665726e6f72536f7274696e673a20636f6e74657374206d75737420626560448201527f20746f2063616c63756c61746520736f7274656420616e6420746965642070726064820152666f706f73616c7360c81b608482015260a401610dd4565b60175460ff16156116f85760405162461bcd60e51b815260206004820152605f60248201527f476f7665726e6f72536f7274696e673a20736574536f72746564416e6454696560448201527f6450726f706f73616c7328292068617320616c7265616479206265656e20727560648201527f6e20616e642069747320726573706563746976652076616c7565732073657400608482015260a401610dd4565b6117026001610f8f565b805161171691601a91602090910190613258565b50601a5460009060019061172a9082613d9b565b601c5560005b601a548110156118bd57601a5460009061174c90600190613e04565b9050600080611795601a6117608686613e04565b8154811061177057611770613dae565b9060005260206000200154600090815260166020526040902080546001909101549091565b909250905060006117a68284613dc4565b9050846000036117e757601a5490965086906001036117de576117c98585613e04565b600087815260186020526040902055601b8690555b505050506118ab565b86810361183a5760008681526019602052604090205460ff1661181e576000868152601960205260409020805460ff191660011790555b601a5461182c906001613d9b565b601c540361183a57601c8690555b8681146118735761184b8585613e04565b611856906001613d9b565b6000878152601860205260409020558561186f81613deb565b9650505b601a54611881866001613d9b565b036118a5576118908585613e04565b600087815260186020526040902055601b8690555b95505050505b806118b581613deb565b915050611730565b50506017805460ff1916600117905550565b600081815260166020908152604091829020600281018054845181850281018501909552808552606094929383018282801561193457602002820191906000526020600020905b81546001600160a01b03168152600190910190602001808311611916575b5050505050915050919050565b6000600c5434146119e05760405162461bcd60e51b815260206004820152605a60248201527f476f7665726e6f723a2074686973207472616e73616374696f6e20776173206e60448201527f6f742073656e7420776974682074686520636f727265637420616d6f756e742060648201527f6f662066756e6473206e656564656420746f2070726f706f7365000000000000608482015260a401610dd4565b6119eb338484610d19565b611a075760405162461bcd60e51b8152600401610dd490613e17565b611a1084612328565b506000611a1c85612954565b600c5490915015611b0d576000611a34600234613e66565b9050611a5473d698e31229ab86334924ed9dffd096a71c68690082612d8d565b6040805173d698e31229ab86334924ed9dffd096a71c6869008152602081018390527fdf20fd1e76bc69d672e4814fafb2c449bba3a5369d8359adf9e05e6fde87b056910160405180910390a16000611aad8234613e04565b9050611ac0611aba610c73565b82612d8d565b7fdf20fd1e76bc69d672e4814fafb2c449bba3a5369d8359adf9e05e6fde87b056611ae9610c73565b604080516001600160a01b039092168252602082018490520160405180910390a150505b949350505050565b60095460009060ff1615611b295750600290565b6000611b33610c21565b9050428110611b4457600091505090565b6000611b4e611ecc565b9050428110611b605760039250505090565b6000611b6a610df3565b9050428110611b7d576001935050505090565b6004935050505090565b611b8f6132a3565b6000828152600a6020908152604091829020825160a08101845281546001600160a01b0381168252600160a01b900460ff161515928101929092526001810180549293919291840191611be190613ce0565b80601f0160208091040260200160405190810160405280929190818152602001828054611c0d90613ce0565b8015611c5a5780601f10611c2f57610100808354040283529160200191611c5a565b820191906000526020600020905b815481529060010190602001808311611c3d57829003601f168201915b5050509183525050604080516020818101835260028501546001600160a01b03168252808401919091528151600385018054606093810283018401855282850181815294909501949193909284928491840182828015611ce357602002820191906000526020600020905b81546001600160a01b03168152600190910190602001808311611cc5575b50505050508152602001600182015481525050815250509050919050565b6060806000611d0e611ff4565b9050600081516001600160401b03811115611d2b57611d2b613650565b604051908082528060200260200182016040528015611d54578160200160208202803683370190505b509050600082516001600160401b03811115611d7257611d72613650565b604051908082528060200260200182016040528015611db757816020015b6040805180820190915260008082526020820152815260200190600190039081611d905790505b5090506000805b8451811015611ec057611df6858281518110611ddc57611ddc613dae565b602002602001015160009081526006602052604090205490565b600114611eae57848181518110611e0f57611e0f613dae565b6020026020010151848381518110611e2957611e29613dae565b60200260200101818152505060166000868381518110611e4b57611e4b613dae565b6020026020010151815260200190815260200160002060000160405180604001604052908160008201548152602001600182015481525050838381518110611e9557611e95613dae565b6020908102919091010152611eab600183613d9b565b91505b80611eb881613deb565b915050611dbe565b50919590945092505050565b6000611ed6610f4c565b610e05610c21565b611ee6610c73565b6001600160a01b0316336001600160a01b031614611f0357600080fd5b6000611f0d611b15565b90506002816004811115611f2357611f23613b8c565b14158015611f4357506004816004811115611f4057611f40613b8c565b14155b611f8f5760405162461bcd60e51b815260206004820152601c60248201527f476f7665726e6f723a20636f6e74657374206e6f7420616374697665000000006044820152606401610dd4565b6009805460ff191660011790556040517f4cd963a081760a54f571abc0f1db4dde31b4a07d8d6da3e844b8c6f47eeaaa4290600090a150565b60175460009060ff16611fed5760405162461bcd60e51b8152600401610dd490613d1a565b50601c5490565b60606005805480602002602001604051908101604052809291908181526020018280548015610d0f576020028201919060005260206000209081548152602001906001019080831161159e575050505050905090565b612052610c73565b6001600160a01b0316336001600160a01b0316146120d85760405162461bcd60e51b815260206004820152603760248201527f476f7665726e6f723a206f6e6c792074686520636f6e7465737420637265617460448201527f6f722063616e2064656c6574652070726f706f73616c730000000000000000006064820152608401610dd4565b60046120e2611b15565b60048111156120f3576120f3613b8c565b036121785760405162461bcd60e51b815260206004820152604960248201527f476f7665726e6f723a2064656c6574696f6e206f662070726f706f73616c732060448201527f61667465722074686520656e64206f66206120636f6e74657374206973206e6f6064820152681d08185b1b1bddd95960ba1b608482015260a401610dd4565b60005b8151811015612252576006600083838151811061219a5761219a613dae565b6020026020010151815260200190815260200160002054600114612240576001600660008484815181106121d0576121d0613dae565b60200260200101518152602001908152602001600020819055506040518060600160405280603d8152602001613fc8603d9139600a600084848151811061221957612219613dae565b60200260200101518152602001908152602001600020600101908161223e9190613ed6565b505b8061224a81613deb565b91505061217b565b507f75a75cf5c561892f4cc5b26c1b8e933849b42238c96dd073d080d1ae96c5141681604051612282919061363d565b60405180910390a150565b612295610c73565b6001600160a01b0316336001600160a01b0316146122b257600080fd5b60006122c6601d546001600160a01b031690565b601d80546001600160a01b0319166001600160a01b0385811691821790925560408051928416835260208301919091529192507f753a2cf8d360cff631674504210913e48247f8e56b3e6d2006c2103d4095999f910160405180910390a15050565b80516000906001600160a01b0316331461239d5760405162461bcd60e51b815260206004820152603060248201527f476f7665726e6f723a207468652070726f706f73616c20617574686f72206d7560448201526f39ba1031329036b9b39739b2b73232b960811b6064820152608401610dd4565b60005b60028110156125555760008160018111156123bd576123bd613b8c565b905060008160018111156123d3576123d3613b8c565b036123de5750612543565b60018160018111156123f2576123f2613b8c565b0361252857608084015151516000036124845760405162461bcd60e51b815260206004820152604860248201527f476f7665726e6f724d6574616461746156616c69646174696f6e3a207468657260448201527f652063616e6e6f74206265207a65726f207369676e65727320696e20736166656064820152674d6574616461746160c01b608482015260a401610dd4565b8360800151602001516000036125105760405162461bcd60e51b8152602060048201526044602482018190527f476f7665726e6f724d6574616461746156616c69646174696f6e3a2074687265908201527f73686f6c642063616e6e6f74206265207a65726f20696e20736166654d6574616064820152636461746160e01b608482015260a401610dd4565b6080840151515160000361252357600080fd5b612541565b6040516308b6566d60e11b815260040160405180910390fd5b505b8061254d81613deb565b9150506123a0565b508160400151516000036125ab5760405162461bcd60e51b815260206004820152601860248201527f476f7665726e6f723a20656d7074792070726f706f73616c00000000000000006044820152606401610dd4565b506001919050565b6000610c2c60115490565b6000826125cb8584612eab565b14949350505050565b600060016125e0611b15565b60048111156125f1576125f1613b8c565b1461264a5760405162461bcd60e51b815260206004820152602360248201527f476f7665726e6f723a20766f7465206e6f742063757272656e746c792061637460448201526269766560e81b6064820152608401610dd4565b600083116126ae5760405162461bcd60e51b815260206004820152602b60248201527f476f7665726e6f723a2063616e6e6f7420766f746520776974682030206f722060448201526a666577657220766f74657360a81b6064820152608401610dd4565b6001600160a01b03851660009081526003602052604090205460ff166127545760405162461bcd60e51b815260206004820152604f60248201527f476f7665726e6f723a20796f75206e65656420746f2076657269667920796f7560448201527f72206e756d626572206f6620766f74657320616761696e737420746865206d6560648201526e1c9adb19481c9bdbdd08199a5c9cdd608a1b608482015260a401610dd4565b61278686868686600260008b6001600160a01b03166001600160a01b0316815260200190815260200160002054612ef8565b846001600160a01b03167fb8e138887d0aa13bab447e82de9d5c1777041ecd21ca36ba824ff1e6c07ddda4878686866040516127c59493929190613f95565b60405180910390a2505050506001600160a01b0316600090815260026020526040902054919050565b600083805b845181101561284c5784828151811061280e5761280e613dae565b602002602001015185828151811061282857612828613dae565b6020026020010151121561283a578091505b8061284481613deb565b9150506127f3565b5084810361285e576000915050610da8565b600084868151811061287257612872613dae565b6020026020010151905084828151811061288e5761288e613dae565b60200260200101518587815181106128a8576128a8613dae565b602002602001018181525050808583815181106128c7576128c7613dae565b60200260200101818152505060008487815181106128e7576128e7613dae565b6020026020010151905084838151811061290357612903613dae565b602002602001015185888151811061291d5761291d613dae565b6020026020010181815250508085848151811061293c5761293c613dae565b60209081029190910101525060019695505050505050565b60006003612960611b15565b600481111561297157612971613b8c565b146129e45760405162461bcd60e51b815260206004820152603e60248201527f476f7665726e6f723a20636f6e74657374206d7573742062652071756575656460448201527f20666f722070726f706f73616c7320746f206265207375626d697474656400006064820152608401610dd4565b6129ec611476565b336000908152600b602052604090205410612aa35760405162461bcd60e51b815260206004820152606560248201527f476f7665726e6f723a207468652073616d6520616464726573732063616e6e6f60448201527f74207375626d6974206d6f7265207468616e20746865206e756d416c6c6f776560648201527f6450726f706f73616c5375626d697373696f6e7320666f72207468697320636f6084820152641b9d195cdd60da1b60a482015260c401610dd4565b612aab6125b3565b60055410612b215760405162461bcd60e51b815260206004820152603960248201527f476f7665726e6f723a20746865206d6178206e756d626572206f662070726f7060448201527f6f73616c732068617665206265656e207375626d6974746564000000000000006064820152608401610dd4565b6000612b2c83611127565b6000818152600a6020526040902054909150600160a01b900460ff1615612ba75760405162461bcd60e51b815260206004820152602960248201527f476f7665726e6f723a206475706c69636174652070726f706f73616c73206e6f6044820152681d08185b1b1bddd95960ba1b6064820152608401610dd4565b6005805460018181019092557f036b6384b5eca791c62761152d0c79bb0604c104a5fb6f4eb0703f3154bb3db0018290556000828152600a602090815260409182902086518154928801511515600160a01b026001600160a81b03199093166001600160a01b0390911617919091178155908501518592820190612c2b9082613ed6565b506060820151516002820180546001600160a01b0319166001600160a01b039092169190911790556080820151805180516003840191612c7091839160200190613314565b50602091820151600191820155336000908152600b9092526040822080549194509250612c9e908490613d9b565b9091555050604080518281523360208201527fcd423cc1203c0af96b9b3d68d73b3064a69de2d14450bb7181c5e5df2132b358910160405180910390a192915050565b606060ff8314612cfb57612cf4836131c5565b9050610c62565b818054612d0790613ce0565b80601f0160208091040260200160405190810160405280929190818152602001828054612d3390613ce0565b8015612d805780601f10612d5557610100808354040283529160200191612d80565b820191906000526020600020905b815481529060010190602001808311612d6357829003601f168201915b5050505050905092915050565b80471015612ddd5760405162461bcd60e51b815260206004820152601d60248201527f416464726573733a20696e73756666696369656e742062616c616e63650000006044820152606401610dd4565b6000826001600160a01b03168260405160006040518083038185875af1925050503d8060008114612e2a576040519150601f19603f3d011682016040523d82523d6000602084013e612e2f565b606091505b5050905080612ea65760405162461bcd60e51b815260206004820152603a60248201527f416464726573733a20756e61626c6520746f2073656e642076616c75652c207260448201527f6563697069656e74206d617920686176652072657665727465640000000000006064820152608401610dd4565b505050565b600081815b8451811015612ef057612edc82868381518110612ecf57612ecf613dae565b6020026020010151613204565b915080612ee881613deb565b915050612eb0565b509392505050565b60008581526016602090815260408083206001600160a01b0388168452601590925290912054612f289083613e04565b831115612f935760405162461bcd60e51b815260206004820152603360248201527f476f7665726e6f72566f74696e6753696d706c653a206e6f7420656e6f756768604482015272081d9bdd195cc81b19599d081d1bc818d85cdd606a1b6064820152608401610dd4565b6001600160a01b03851660009081526003820160205260409020541560ff851661300557815484908390600090612fcb908490613d9b565b90915550506001600160a01b038616600090815260038301602052604081208054869290612ffa908490613d9b565b9091555061313f9050565b60001960ff8616016130d957613019611333565b600114613090576040805162461bcd60e51b81526020600482015260248101919091527f476f7665726e6f72566f74696e6753696d706c653a20646f776e766f74696e6760448201527f206973206e6f7420656e61626c656420666f72207468697320436f6e746573746064820152608401610dd4565b838260000160010160008282546130a79190613d9b565b90915550506001600160a01b038616600090815260038301602052604081206001018054869290612ffa908490613d9b565b60405162461bcd60e51b815260206004820152603560248201527f476f7665726e6f72566f74696e6753696d706c653a20696e76616c69642076616044820152746c756520666f7220656e756d20566f74655479706560581b6064820152608401610dd4565b801561317657600282018054600181018255600091825260209091200180546001600160a01b0319166001600160a01b0388161790555b6001600160a01b0386166000908152601560205260408120805486929061319e908490613d9b565b9250508190555083601460008282546131b79190613d9b565b909155505050505050505050565b606060006131d283613230565b604080516020808252818301909252919250600091906020820181803683375050509182525060208101929092525090565b6000818310613220576000828152602084905260409020610da8565b5060009182526020526040902090565b600060ff8216601f811115610c6257604051632cd44ac360e21b815260040160405180910390fd5b828054828255906000526020600020908101928215613293579160200282015b82811115613293578251825591602001919060010190613278565b5061329f929150613369565b5090565b6040518060a0016040528060006001600160a01b03168152602001600015158152602001606081526020016132ed604051806020016040528060006001600160a01b031681525090565b815260200161330f604051806040016040528060608152602001600081525090565b905290565b828054828255906000526020600020908101928215613293579160200282015b8281111561329357825182546001600160a01b0319166001600160a01b03909116178255602090920191600190910190613334565b5b8082111561329f576000815560010161336a565b60006020828403121561339057600080fd5b81356001600160e01b031981168114610da857600080fd5b6000815180845260005b818110156133ce576020818501810151868301820152016133b2565b506000602082860101526020601f19601f83011685010191505092915050565b602081526000610da860208301846133a8565b60006020828403121561341357600080fd5b5035919050565b815181526020808301519082015260408101610c62565b6001600160a01b038116811461344657600080fd5b50565b60008083601f84011261345b57600080fd5b5081356001600160401b0381111561347257600080fd5b6020830191508360208260051b850101111561146057600080fd5b6000806000604084860312156134a257600080fd5b83356134ad81613431565b925060208401356001600160401b038111156134c857600080fd5b6134d486828701613449565b9497909650939450505050565b803580151581146134f157600080fd5b919050565b60008060008060006080868803121561350e57600080fd5b853561351981613431565b94506020860135935060408601356001600160401b0381111561353b57600080fd5b61354788828901613449565b909450925061355a9050606087016134e1565b90509295509295909350565b803560ff811681146134f157600080fd5b60008060008060008060a0878903121561359057600080fd5b863595506135a060208801613566565b9450604087013593506060870135925060808701356001600160401b038111156135c957600080fd5b6135d589828a01613449565b979a9699509497509295939492505050565b6000602082840312156135f957600080fd5b610da8826134e1565b600081518084526020808501945080840160005b8381101561363257815187529582019590820190600101613616565b509495945050505050565b602081526000610da86020830184613602565b634e487b7160e01b600052604160045260246000fd5b604080519081016001600160401b038111828210171561368857613688613650565b60405290565b60405160a081016001600160401b038111828210171561368857613688613650565b604051601f8201601f191681016001600160401b03811182821017156136d8576136d8613650565b604052919050565b6000602082840312156136f257600080fd5b604051602081018181106001600160401b038211171561371457613714613650565b604052905080823561372581613431565b905292915050565b60006001600160401b0382111561374657613746613650565b5060051b60200190565b60006040828403121561376257600080fd5b61376a613666565b905081356001600160401b0381111561378257600080fd5b8201601f8101841361379357600080fd5b803560206137a86137a38361372d565b6136b0565b82815260059290921b830181019181810190878411156137c757600080fd5b938201935b838510156137ee5784356137df81613431565b825293820193908201906137cc565b85525093840135938301939093525092915050565b600060a0828403121561381557600080fd5b61381d61368e565b9050813561382a81613431565b815260206138398382016134e1565b8183015260408301356001600160401b038082111561385757600080fd5b818501915085601f83011261386b57600080fd5b81358181111561387d5761387d613650565b61388f601f8201601f191685016136b0565b81815287858386010111156138a357600080fd5b8185850186830137600085838301015280604087015250506138c886606087016136e0565b606085015260808501359250808311156138e157600080fd5b50506138ef84828501613750565b60808301525092915050565b60006020828403121561390d57600080fd5b81356001600160401b0381111561392357600080fd5b611b0d84828501613803565b6000604080835261394281840186613602565b83810360208581019190915285518083528682019282019060005b8181101561398a5761397a83865180518252602090810151910152565b938301939185019160010161395d565b509098975050505050505050565b600080600080606085870312156139ae57600080fd5b84356139b981613431565b93506020850135925060408501356001600160401b038111156139db57600080fd5b6139e787828801613449565b95989497509550505050565b600060208284031215613a0557600080fd5b8135610da881613431565b600080600060608486031215613a2557600080fd5b83359250613a3560208501613566565b9150604084013590509250925092565b60008060408385031215613a5857600080fd5b823591506020830135613a6a81613431565b809150509250929050565b60ff60f81b8816815260e060208201526000613a9460e08301896133a8565b8281036040840152613aa681896133a8565b606084018890526001600160a01b038716608085015260a0840186905283810360c08501529050613ad78185613602565b9a9950505050505050505050565b600081518084526020808501945080840160005b838110156136325781516001600160a01b031687529582019590820190600101613af9565b602081526000610da86020830184613ae5565b600080600060408486031215613b4657600080fd5b83356001600160401b0380821115613b5d57600080fd5b613b6987838801613803565b94506020860135915080821115613b7f57600080fd5b506134d486828701613449565b634e487b7160e01b600052602160045260246000fd5b6020810160058310613bc457634e487b7160e01b600052602160045260246000fd5b91905290565b60208152600060018060a01b03808451166020840152602084015115156040840152604084015160a06060850152613c0560c08501826133a8565b90508160608601515116608085015260808501519150601f198482030160a0850152815160408252613c3a6040830182613ae5565b6020938401519290930191909152509392505050565b60006020808385031215613c6357600080fd5b82356001600160401b03811115613c7957600080fd5b8301601f81018513613c8a57600080fd5b8035613c986137a38261372d565b81815260059190911b82018301908381019087831115613cb757600080fd5b928401925b82841015613cd557833582529284019290840190613cbc565b979650505050505050565b600181811c90821680613cf457607f821691505b602082108103613d1457634e487b7160e01b600052602260045260246000fd5b50919050565b60208082526045908201527f526577617264734d6f64756c653a2072756e20736574536f72746564416e645460408201527f69656450726f706f73616c73282920746f20706f70756c61746520746869732060608201526476616c756560d81b608082015260a00190565b634e487b7160e01b600052601160045260246000fd5b80820180821115610c6257610c62613d85565b634e487b7160e01b600052603260045260246000fd5b8181036000831280158383131683831282161715613de457613de4613d85565b5092915050565b600060018201613dfd57613dfd613d85565b5060010190565b81810381811115610c6257610c62613d85565b6020808252602f908201527f476f7665726e6f723a2061646472657373206973206e6f74207065726d69737360408201526e1a5bdb9959081d1bc81cdd589b5a5d608a1b606082015260800190565b600082613e8357634e487b7160e01b600052601260045260246000fd5b500490565b601f821115612ea657600081815260208120601f850160051c81016020861015613eaf5750805b601f850160051c820191505b81811015613ece57828155600101613ebb565b505050505050565b81516001600160401b03811115613eef57613eef613650565b613f0381613efd8454613ce0565b84613e88565b602080601f831160018114613f385760008415613f205750858301515b600019600386901b1c1916600185901b178555613ece565b600085815260208120601f198616915b82811015613f6757888601518255948401946001909101908401613f48565b5085821015613f855787850151600019600388901b60f8161c191681555b5050505050600190811b01905550565b84815260ff84166020820152826040820152608060608201526000613fbd60808301846133a8565b969550505050505056fe546869732070726f706f73616c20686173206265656e2064656c65746564206279207468652063726561746f72206f662074686520636f6e746573742ea26469706673582212203825c9491b39b8c4d90675877662217174d7d64452470e45890cd2b09f4009c064736f6c63430008130033",
    "linkReferences": {}
  },
  "methodIdentifiers": {
    "AMOUNT_FOR_SUMBITTER_PROOF()": "347cf665",
    "BALLOT_TYPEHASH()": "deaaa7cc",
    "COUNTING_MODE()": "dd4e2ba5",
    "JK_LABS_REVENUE_ADDRESS()": "96157fd2",
    "METADATAS_COUNT()": "4d24a67f",
    "addressSubmitterVerified(address)": "cb853950",
    "addressTotalCastVoteCounts(address)": "a1ac6cb2",
    "addressTotalVotes(address)": "dea5f6a6",
    "addressTotalVotesVerified(address)": "930de979",
    "allProposalTotalVotes()": "50a5e524",
    "allProposalTotalVotesWithoutDeleted()": "d45a010b",
    "cancel()": "ea8a1af0",
    "castVote(uint256,uint8,uint256,uint256,bytes32[])": "419c533c",
    "castVoteWithoutProof(uint256,uint8,uint256)": "65f16263",
    "checkProof(address,uint256,bytes32[],bool)": "32763c22",
    "contestAddressTotalVotesCast(address)": "aec116b6",
    "contestDeadline()": "262e59e9",
    "contestStart()": "004114a8",
    "costToPropose()": "6ed815ad",
    "creator()": "02d05d3f",
    "deleteProposals(uint256[])": "f0a7db0a",
    "downvotingAllowed()": "60506ff6",
    "eip712Domain()": "84b0196e",
    "getAllProposalIds()": "efa90d36",
    "getNumSubmissions(address)": "5f953a03",
    "getProposal(uint256)": "c7f758a8",
    "hashProposal((address,bool,string,(address),(address[],uint256)))": "458da87d",
    "highestTiedRanking()": "ebc18b9b",
    "isProposalDeleted(uint256)": "3b6d199b",
    "isTied(uint256)": "2399c660",
    "lowestRanking()": "6ca1a2c7",
    "maxProposalCount()": "fb9bf8d4",
    "name()": "06fdde03",
    "numAllowedProposalSubmissions()": "832009af",
    "officialRewardsModule()": "785ddfe5",
    "prompt()": "7c65d711",
    "proposalAddressVotes(uint256,address)": "6e4eb810",
    "proposalAddressesHaveVoted(uint256)": "b323580d",
    "proposalVotes(uint256)": "544ffc9c",
    "proposalVotesStructs(uint256)": "070dc5d9",
    "propose((address,bool,string,(address),(address[],uint256)),bytes32[])": "c0ffaa78",
    "proposeWithoutProof((address,bool,string,(address),(address[],uint256)))": "476f4d8a",
    "rankingPosition(uint256)": "86187488",
    "setOfficialRewardsModule(address)": "f4f3d7ec",
    "setSortedAndTiedProposals()": "96f0e962",
    "setSortedAndTiedProposalsHasBeenRun()": "d8891619",
    "sortedProposalIds()": "8a9cd550",
    "sortedProposals(bool)": "427d56c2",
    "state()": "c19d93fb",
    "submissionMerkleRoot()": "bddc1641",
    "supportsInterface(bytes4)": "01ffc9a7",
    "tiedAdjustedRankingPosition(uint256)": "e5eb5a48",
    "totalVotesCast()": "7de418d5",
    "validateProposalData((address,bool,string,(address),(address[],uint256)))": "fb8ddab4",
    "verifyProposer(address,bytes32[])": "20b3e845",
    "verifyVoter(address,uint256,bytes32[])": "531bd812",
    "version()": "54fd4d50",
    "voteStart()": "e031535b",
    "votingDelay()": "3932abb1",
    "votingMerkleRoot()": "dd96a19d",
    "votingPeriod()": "02a251a3"
  },
  "id": 40
}