{"abi":[{"type":"constructor","inputs":[{"name":"payees_","type":"uint256[]","internalType":"uint256[]"},{"name":"shares_","type":"uint256[]","internalType":"uint256[]"},{"name":"underlyingContest_","type":"address","internalType":"contract GovernorCountingSimple"},{"name":"paysOutTarget_","type":"bool","internalType":"bool"}],"stateMutability":"payable"},{"type":"receive","stateMutability":"payable"},{"type":"function","name":"MODULE_TYPE","inputs":[],"outputs":[{"name":"","type":"string","internalType":"string"}],"stateMutability":"view"},{"type":"function","name":"cancel","inputs":[],"outputs":[],"stateMutability":"nonpayable"},{"type":"function","name":"canceled","inputs":[],"outputs":[{"name":"","type":"bool","internalType":"bool"}],"stateMutability":"view"},{"type":"function","name":"creator","inputs":[],"outputs":[{"name":"","type":"address","internalType":"address"}],"stateMutability":"view"},{"type":"function","name":"erc20Released","inputs":[{"name":"","type":"address","internalType":"contract IERC20"},{"name":"","type":"uint256","internalType":"uint256"}],"outputs":[{"name":"","type":"uint256","internalType":"uint256"}],"stateMutability":"view"},{"type":"function","name":"erc20TotalReleased","inputs":[{"name":"","type":"address","internalType":"contract IERC20"}],"outputs":[{"name":"","type":"uint256","internalType":"uint256"}],"stateMutability":"view"},{"type":"function","name":"getAddressToPayOut","inputs":[{"name":"ranking","type":"uint256","internalType":"uint256"}],"outputs":[{"name":"","type":"address","internalType":"address"}],"stateMutability":"view"},{"type":"function","name":"getPayees","inputs":[],"outputs":[{"name":"","type":"uint256[]","internalType":"uint256[]"}],"stateMutability":"view"},{"type":"function","name":"getProposalIdOfRanking","inputs":[{"name":"ranking","type":"uint256","internalType":"uint256"}],"outputs":[{"name":"","type":"uint256","internalType":"uint256"}],"stateMutability":"view"},{"type":"function","name":"getUnderlyingContest","inputs":[],"outputs":[{"name":"","type":"address","internalType":"contract GovernorCountingSimple"}],"stateMutability":"view"},{"type":"function","name":"payees","inputs":[{"name":"","type":"uint256","internalType":"uint256"}],"outputs":[{"name":"","type":"uint256","internalType":"uint256"}],"stateMutability":"view"},{"type":"function","name":"paysOutTarget","inputs":[],"outputs":[{"name":"","type":"bool","internalType":"bool"}],"stateMutability":"view"},{"type":"function","name":"releasable","inputs":[{"name":"token","type":"address","internalType":"contract IERC20"},{"name":"ranking","type":"uint256","internalType":"uint256"}],"outputs":[{"name":"","type":"uint256","internalType":"uint256"}],"stateMutability":"view"},{"type":"function","name":"releasable","inputs":[{"name":"ranking","type":"uint256","internalType":"uint256"}],"outputs":[{"name":"","type":"uint256","internalType":"uint256"}],"stateMutability":"view"},{"type":"function","name":"release","inputs":[{"name":"token","type":"address","internalType":"contract IERC20"},{"name":"ranking","type":"uint256","internalType":"uint256"}],"outputs":[],"stateMutability":"nonpayable"},{"type":"function","name":"release","inputs":[{"name":"ranking","type":"uint256","internalType":"uint256"}],"outputs":[],"stateMutability":"nonpayable"},{"type":"function","name":"released","inputs":[{"name":"","type":"uint256","internalType":"uint256"}],"outputs":[{"name":"","type":"uint256","internalType":"uint256"}],"stateMutability":"view"},{"type":"function","name":"runReleaseChecks","inputs":[{"name":"ranking","type":"uint256","internalType":"uint256"}],"outputs":[],"stateMutability":"view"},{"type":"function","name":"shares","inputs":[{"name":"","type":"uint256","internalType":"uint256"}],"outputs":[{"name":"","type":"uint256","internalType":"uint256"}],"stateMutability":"view"},{"type":"function","name":"totalReleased","inputs":[],"outputs":[{"name":"","type":"uint256","internalType":"uint256"}],"stateMutability":"view"},{"type":"function","name":"totalShares","inputs":[],"outputs":[{"name":"","type":"uint256","internalType":"uint256"}],"stateMutability":"view"},{"type":"function","name":"underlyingContest","inputs":[],"outputs":[{"name":"","type":"address","internalType":"contract GovernorCountingSimple"}],"stateMutability":"view"},{"type":"function","name":"version","inputs":[],"outputs":[{"name":"","type":"string","internalType":"string"}],"stateMutability":"pure"},{"type":"function","name":"withdrawRewards","inputs":[{"name":"token","type":"address","internalType":"contract IERC20"}],"outputs":[],"stateMutability":"nonpayable"},{"type":"function","name":"withdrawRewards","inputs":[],"outputs":[],"stateMutability":"nonpayable"},{"type":"event","name":"ERC20PaymentReleased","inputs":[{"name":"token","type":"address","indexed":true,"internalType":"contract IERC20"},{"name":"to","type":"address","indexed":false,"internalType":"address"},{"name":"amount","type":"uint256","indexed":false,"internalType":"uint256"}],"anonymous":false},{"type":"event","name":"ERC20RewardWithdrawn","inputs":[{"name":"token","type":"address","indexed":true,"internalType":"contract IERC20"},{"name":"by","type":"address","indexed":false,"internalType":"address"},{"name":"amount","type":"uint256","indexed":false,"internalType":"uint256"}],"anonymous":false},{"type":"event","name":"JokeraceRewardsModuleCreated","inputs":[{"name":"version","type":"string","indexed":false,"internalType":"string"},{"name":"underlyingContest","type":"address","indexed":false,"internalType":"address"}],"anonymous":false},{"type":"event","name":"PayeeAdded","inputs":[{"name":"ranking","type":"uint256","indexed":false,"internalType":"uint256"},{"name":"shares","type":"uint256","indexed":false,"internalType":"uint256"}],"anonymous":false},{"type":"event","name":"PaymentReceived","inputs":[{"name":"from","type":"address","indexed":false,"internalType":"address"},{"name":"amount","type":"uint256","indexed":false,"internalType":"uint256"}],"anonymous":false},{"type":"event","name":"PaymentReleased","inputs":[{"name":"to","type":"address","indexed":false,"internalType":"address"},{"name":"amount","type":"uint256","indexed":false,"internalType":"uint256"}],"anonymous":false},{"type":"event","name":"RewardWithdrawn","inputs":[{"name":"by","type":"address","indexed":false,"internalType":"address"},{"name":"amount","type":"uint256","indexed":false,"internalType":"uint256"}],"anonymous":false},{"type":"error","name":"AccountAlreadyHasShares","inputs":[]},{"type":"error","name":"AccountNotDueERC20Payment","inputs":[]},{"type":"error","name":"AccountNotDueNativePayment","inputs":[]},{"type":"error","name":"CannotPayOutToZeroAddress","inputs":[]},{"type":"error","name":"CannotReleaseCanceledModule","inputs":[]},{"type":"error","name":"ContestMustBeCompleted","inputs":[]},{"type":"error","name":"MustBeCanceledToWithdraw","inputs":[]},{"type":"error","name":"MustHaveAtLeastOnePayee","inputs":[]},{"type":"error","name":"MustHaveSortingEnabled","inputs":[]},{"type":"error","name":"OnlyCreatorCanCancel","inputs":[]},{"type":"error","name":"OnlyCreatorCanWithdraw","inputs":[]},{"type":"error","name":"PayeesSharesLengthMismatch","inputs":[]},{"type":"error","name":"PayoutRankCannotBeZero","inputs":[]},{"type":"error","name":"RankingCannotBeZero","inputs":[]},{"type":"error","name":"RankingHasNoShares","inputs":[]},{"type":"error","name":"SharesCannotBeZero","inputs":[]},{"type":"error","name":"TotalSharesCannotBeZero","inputs":[]}],"bytecode":{"object":"0x608060405260405162001ef138038062001ef1833981016040819052620000269162000355565b825184511462000049576040516324e23b4160e01b815260040160405180910390fd5b83516000036200006c57604051634c87c40160e01b815260040160405180910390fd5b60005b8451811015620000d857620000c3858281518110620000925762000092620003fa565b6020026020010151858381518110620000af57620000af620003fa565b60200260200101516200019a60201b60201c565b80620000cf8162000426565b9150506200006f565b50600054600003620000fd576040516306db759b60e21b815260040160405180910390fd5b60088054600780546001600160a01b0386166001600160a01b03199182168117909255841515600160a01b02166001600160a81b0319909216919091173317909155604080518082018252600381526206a5c760eb1b602082015290517fa662062e2d40c0f20e19ab134a030b70e07ff1fd98a93cf375bd3972c285a2c79262000188929162000442565b60405180910390a150505050620004c0565b81600003620001bc5760405163d6fbfe2560e01b815260040160405180910390fd5b80600003620001de57604051633122bc0960e21b815260040160405180910390fd5b600082815260026020526040902054156200020c57604051637b4f7fb560e01b815260040160405180910390fd5b60048054600181019091557f8a35acfbc15ff81a39ae7d344fd709f28e8600b4aa8c65c6b64bfe7fe36bd19b018290556000828152600260205260408120829055546200025b908290620004a4565b60005560408051838152602081018390527f78bc0e219b874bf2620f7316737ec16d4bda1bb7136961e4dcb5ff0dc031cee4910160405180910390a15050565b634e487b7160e01b600052604160045260246000fd5b600082601f830112620002c357600080fd5b815160206001600160401b0380831115620002e257620002e26200029b565b8260051b604051601f19603f830116810181811084821117156200030a576200030a6200029b565b6040529384528581018301938381019250878511156200032957600080fd5b83870191505b848210156200034a578151835291830191908301906200032f565b979650505050505050565b600080600080608085870312156200036c57600080fd5b84516001600160401b03808211156200038457600080fd5b6200039288838901620002b1565b95506020870151915080821115620003a957600080fd5b50620003b887828801620002b1565b604087015190945090506001600160a01b0381168114620003d857600080fd5b60608601519092508015158114620003ef57600080fd5b939692955090935050565b634e487b7160e01b600052603260045260246000fd5b634e487b7160e01b600052601160045260246000fd5b6000600182016200043b576200043b62000410565b5060010190565b604081526000835180604084015260005b8181101562000472576020818701810151606086840101520162000453565b50600060608285018101919091526001600160a01b03949094166020840152601f01601f191690910190910192915050565b80820180821115620004ba57620004ba62000410565b92915050565b611a2180620004d06000396000f3fe60806040526004361061016a5760003560e01c806354fd4d50116100d1578063a94d373b1161008a578063e33b7de311610064578063e33b7de3146104e6578063e4bf01a8146104fc578063ea8a1af01461051c578063f3f44fb71461053157600080fd5b8063a94d373b14610484578063c7104046146104b1578063c7b8981c146104d157600080fd5b806354fd4d501461038a5780635775029f146103bf57806357a858fc146103f957806363037b0c14610426578063828ce44b1461044657806396f7ff6e1461046457600080fd5b806337bdc99b1161012357806337bdc99b146102bb5780633a98ef39146102db5780633f9942ff146102f157806342d86693146103125780634b9453381461033257806351f63e351461036a57600080fd5b806302d05d3f146101ae5780630357371d146101eb5780631e5b46341461020d5780632081d6311461023e57806327f381131461026c5780633375bbdc1461028e57600080fd5b366101a957604080513381523460208201527f6ef95f06320e7a25a04a175ca677b7052bdd97131872c2192525a629f51be770910160405180910390a1005b600080fd5b3480156101ba57600080fd5b506008546101ce906001600160a01b031681565b6040516001600160a01b0390911681526020015b60405180910390f35b3480156101f757600080fd5b5061020b61020636600461133c565b610551565b005b34801561021957600080fd5b5060085461022e90600160a01b900460ff1681565b60405190151581526020016101e2565b34801561024a57600080fd5b5061025e61025936600461133c565b610668565b6040519081526020016101e2565b34801561027857600080fd5b5061028161072a565b6040516101e29190611368565b34801561029a57600080fd5b5061025e6102a93660046113ac565b60056020526000908152604090205481565b3480156102c757600080fd5b5061020b6102d63660046113c9565b610782565b3480156102e757600080fd5b5061025e60005481565b3480156102fd57600080fd5b5060085461022e90600160a81b900460ff1681565b34801561031e57600080fd5b5061020b61032d3660046113ac565b610867565b34801561033e57600080fd5b5061025e61034d36600461133c565b600660209081526000928352604080842090915290825290205481565b34801561037657600080fd5b5061025e6103853660046113c9565b6109f3565b34801561039657600080fd5b5060408051808201909152600381526206a5c760eb1b60208201525b6040516101e29190611406565b3480156103cb57600080fd5b506103b26040518060400160405280600e81526020016d415554484f525f5245574152445360901b81525081565b34801561040557600080fd5b5061025e6104143660046113c9565b60026020526000908152604090205481565b34801561043257600080fd5b5061025e6104413660046113c9565b610bc8565b34801561045257600080fd5b506007546001600160a01b03166101ce565b34801561047057600080fd5b506101ce61047f3660046113c9565b610be9565b34801561049057600080fd5b5061025e61049f3660046113c9565b60036020526000908152604090205481565b3480156104bd57600080fd5b5061020b6104cc3660046113c9565b610cae565b3480156104dd57600080fd5b5061020b610e5e565b3480156104f257600080fd5b5061025e60015481565b34801561050857600080fd5b5061025e6105173660046113c9565b610f15565b34801561052857600080fd5b5061020b610f4d565b34801561053d57600080fd5b506007546101ce906001600160a01b031681565b61055a81610cae565b60006105668383610668565b90508060000361058957604051635fe559bd60e01b815260040160405180910390fd5b6001600160a01b038316600090815260056020526040812080548392906105b190849061144f565b90915550506001600160a01b038316600090815260066020908152604080832085845290915281208054830190556105e883610be9565b90506001600160a01b038116610611576040516346a3c2f960e01b815260040160405180910390fd5b604080516001600160a01b038381168252602082018590528616917f3be5b7a71e84ed12875d241991c70855ac5817d847039e17a9d895c1ceb0f18a910160405180910390a2610662848284610f8d565b50505050565b6001600160a01b0382166000818152600560205260408082205490516370a0823160e01b8152306004820152919283926370a0823190602401602060405180830381865afa1580156106be573d6000803e3d6000fd5b505050506040513d601f19601f820116820180604052508101906106e29190611462565b6106ec919061144f565b6001600160a01b03851660009081526006602090815260408083208784529091529020549091506107209084908390610fdf565b9150505b92915050565b6060600480548060200260200160405190810160405280929190818152602001828054801561077857602002820191906000526020600020905b815481526020019060010190808311610764575b5050505050905090565b61078b81610cae565b600061079682610f15565b9050806000036107b957604051631d1514e960e21b815260040160405180910390fd5b80600160008282546107cb919061144f565b909155505060008281526003602052604081208054830190556107ed83610be9565b90506001600160a01b038116610816576040516346a3c2f960e01b815260040160405180910390fd5b604080516001600160a01b0383168152602081018490527fdf20fd1e76bc69d672e4814fafb2c449bba3a5369d8359adf9e05e6fde87b056910160405180910390a16108628183611011565b505050565b6008546001600160a01b0316331461089257604051631eab0da960e01b815260040160405180910390fd5b600854600160a81b900460ff1615156001146108c157604051633871a85960e21b815260040160405180910390fd5b6008546040516370a0823160e01b81523060048201526001600160a01b03838116927f6e5fc1cbd1629d9837bd657d23cf585bbc4e9127184972606cc4c0dd406f75729291169083906370a0823190602401602060405180830381865afa158015610930573d6000803e3d6000fd5b505050506040513d601f19601f820116820180604052508101906109549190611462565b604080516001600160a01b03909316835260208301919091520160405180910390a26008546040516370a0823160e01b81523060048201526109f09183916001600160a01b03918216918316906370a0823190602401602060405180830381865afa1580156109c7573d6000803e3d6000fd5b505050506040513d601f19601f820116820180604052508101906109eb9190611462565b610f8d565b50565b600754604051630b8e20fb60e31b815260048101839052600091829182916001600160a01b031690635c7107d890602401602060405180830381865afa158015610a41573d6000803e3d6000fd5b505050506040513d601f19601f82011682018060405250810190610a659190611462565b60075460405163245d1de360e21b8152600481018390529192506001600160a01b031690639174778c90602401602060405180830381865afa158015610aaf573d6000803e3d6000fd5b505050506040513d601f19601f82011682018060405250810190610ad39190611490565b15610ae15760009150610bc1565b60075460405163325cc6d960e01b8152600481018390526000916001600160a01b03169063325cc6d990602401602060405180830381865afa158015610b2b573d6000803e3d6000fd5b505050506040513d601f19601f82011682018060405250810190610b4f9190611462565b60075460405163d576b81d60e01b8152600481018390529192506001600160a01b03169063d576b81d90602401602060405180830381865afa158015610b99573d6000803e3d6000fd5b505050506040513d601f19601f82011682018060405250810190610bbd9190611462565b9250505b5092915050565b60048181548110610bd857600080fd5b600091825260209091200154905081565b600080610bf5836109f3565b905080600003610c125750506008546001600160a01b0316919050565b6007546040516318feeb1560e31b8152600481018390526000916001600160a01b03169063c7f758a890602401600060405180830381865afa158015610c5c573d6000803e3d6000fd5b505050506040513d6000823e601f3d908101601f19168201604052610c849190810190611863565b600854909150600160a01b900460ff16610c9f578051610ca6565b6060810151515b949350505050565b600760009054906101000a90046001600160a01b03166001600160a01b031663366ecf5b6040518163ffffffff1660e01b8152600401602060405180830381865afa158015610d01573d6000803e3d6000fd5b505050506040513d601f19601f82011682018060405250810190610d259190611462565b600114610d4557604051630fcdfffd60e41b815260040160405180910390fd5b6007546040805163c19d93fb60e01b815290516004926001600160a01b03169163c19d93fb918185019160209190819003860181865afa158015610d8d573d6000803e3d6000fd5b505050506040513d601f19601f82011682018060405250810190610db19190611962565b6004811115610dc257610dc261194c565b14610de057604051639c2d4c7960e01b815260040160405180910390fd5b80600003610e015760405163f9668e2960e01b815260040160405180910390fd5b6000818152600260205260408120549003610e2f57604051632534bdfb60e11b815260040160405180910390fd5b600854600160a81b900460ff1615156001036109f05760405163e2f87cff60e01b815260040160405180910390fd5b6008546001600160a01b03163314610e8957604051631eab0da960e01b815260040160405180910390fd5b600854600160a81b900460ff161515600114610eb857604051633871a85960e21b815260040160405180910390fd5b600854604080516001600160a01b0390921682524760208301527f1d3eee4ca001cff39eec6ec7615aacf2f2bd61791273830728ba00ccbd6e1337910160405180910390a1600854610f13906001600160a01b031647611011565b565b60008060015447610f26919061144f565b9050610f4683826003600087815260200190815260200160002054610fdf565b9392505050565b6008546001600160a01b03163314610f7857604051630c06b96b60e31b815260040160405180910390fd5b6008805460ff60a81b1916600160a81b179055565b604080516001600160a01b038416602482015260448082018490528251808303909101815260649091019091526020810180516001600160e01b031663a9059cbb60e01b17905261086290849061112f565b6000805484825260026020526040822054839190610ffd9086611983565b611007919061199a565b610ca691906119bc565b804710156110665760405162461bcd60e51b815260206004820152601d60248201527f416464726573733a20696e73756666696369656e742062616c616e636500000060448201526064015b60405180910390fd5b6000826001600160a01b03168260405160006040518083038185875af1925050503d80600081146110b3576040519150601f19603f3d011682016040523d82523d6000602084013e6110b8565b606091505b50509050806108625760405162461bcd60e51b815260206004820152603a60248201527f416464726573733a20756e61626c6520746f2073656e642076616c75652c207260448201527f6563697069656e74206d61792068617665207265766572746564000000000000606482015260840161105d565b6000611184826040518060400160405280602081526020017f5361666545524332303a206c6f772d6c6576656c2063616c6c206661696c6564815250856001600160a01b03166112049092919063ffffffff16565b90508051600014806111a55750808060200190518101906111a59190611490565b6108625760405162461bcd60e51b815260206004820152602a60248201527f5361666545524332303a204552433230206f7065726174696f6e20646964206e6044820152691bdd081cdd58d8d9595960b21b606482015260840161105d565b6060610ca6848460008585600080866001600160a01b0316858760405161122b91906119cf565b60006040518083038185875af1925050503d8060008114611268576040519150601f19603f3d011682016040523d82523d6000602084013e61126d565b606091505b509150915061127e87838387611289565b979650505050505050565b606083156112f85782516000036112f1576001600160a01b0385163b6112f15760405162461bcd60e51b815260206004820152601d60248201527f416464726573733a2063616c6c20746f206e6f6e2d636f6e7472616374000000604482015260640161105d565b5081610ca6565b610ca6838381511561130d5781518083602001fd5b8060405162461bcd60e51b815260040161105d9190611406565b6001600160a01b03811681146109f057600080fd5b6000806040838503121561134f57600080fd5b823561135a81611327565b946020939093013593505050565b6020808252825182820181905260009190848201906040850190845b818110156113a057835183529284019291840191600101611384565b50909695505050505050565b6000602082840312156113be57600080fd5b8135610f4681611327565b6000602082840312156113db57600080fd5b5035919050565b60005b838110156113fd5781810151838201526020016113e5565b50506000910152565b60208152600082518060208401526114258160408501602087016113e2565b601f01601f19169190910160400192915050565b634e487b7160e01b600052601160045260246000fd5b8082018082111561072457610724611439565b60006020828403121561147457600080fd5b5051919050565b8051801515811461148b57600080fd5b919050565b6000602082840312156114a257600080fd5b610f468261147b565b634e487b7160e01b600052604160045260246000fd5b6040516060810167ffffffffffffffff811182821017156114e4576114e46114ab565b60405290565b60405160c0810167ffffffffffffffff811182821017156114e4576114e46114ab565b604051601f8201601f1916810167ffffffffffffffff81118282101715611536576115366114ab565b604052919050565b805161148b81611327565b600082601f83011261155a57600080fd5b815167ffffffffffffffff811115611574576115746114ab565b611587601f8201601f191660200161150d565b81815284602083860101111561159c57600080fd5b610ca68260208301602087016113e2565b6000602082840312156115bf57600080fd5b6040516020810181811067ffffffffffffffff821117156115e2576115e26114ab565b806040525080915082516115f581611327565b905292915050565b600067ffffffffffffffff821115611617576116176114ab565b5060051b60200190565b600082601f83011261163257600080fd5b81516020611647611642836115fd565b61150d565b82815260059290921b8401810191818101908684111561166657600080fd5b8286015b8481101561168a57805161167d81611327565b835291830191830161166a565b509695505050505050565b6000604082840312156116a757600080fd5b6040516040810167ffffffffffffffff82821081831117156116cb576116cb6114ab565b8160405282935084519150808211156116e357600080fd5b506116f085828601611621565b825250602083015160208201525092915050565b600082601f83011261171557600080fd5b81516020611725611642836115fd565b82815260059290921b8401810191818101908684111561174457600080fd5b8286015b8481101561168a5780518352918301918301611748565b60006060828403121561177157600080fd5b6117796114c1565b9050815167ffffffffffffffff8082111561179357600080fd5b61179f85838601611621565b83526020915081840151818111156117b657600080fd5b8401601f810186136117c757600080fd5b80516117d5611642826115fd565b81815260059190911b820184019084810190888311156117f457600080fd5b8584015b8381101561182c578051868111156118105760008081fd5b61181e8b8983890101611549565b8452509186019186016117f8565b50808688015250505050604084015191508082111561184a57600080fd5b5061185784828501611704565b60408301525092915050565b60006020828403121561187557600080fd5b815167ffffffffffffffff8082111561188d57600080fd5b9083019060c082860312156118a157600080fd5b6118a96114ea565b6118b28361153e565b81526118c06020840161147b565b60208201526040830151828111156118d757600080fd5b6118e387828601611549565b6040830152506118f686606085016115ad565b606082015260808301518281111561190d57600080fd5b61191987828601611695565b60808301525060a08301518281111561193157600080fd5b61193d8782860161175f565b60a08301525095945050505050565b634e487b7160e01b600052602160045260246000fd5b60006020828403121561197457600080fd5b815160058110610f4657600080fd5b808202811582820484141761072457610724611439565b6000826119b757634e487b7160e01b600052601260045260246000fd5b500490565b8181038181111561072457610724611439565b600082516119e18184602087016113e2565b919091019291505056fea26469706673582212201b86161234d83bcf4e338b83e60d1f5df8a1962a9909b906a9643fb1e32208f664736f6c63430008130033","linkReferences":{}},"methodIdentifiers":{"MODULE_TYPE()":"5775029f","cancel()":"ea8a1af0","canceled()":"3f9942ff","creator()":"02d05d3f","erc20Released(address,uint256)":"4b945338","erc20TotalReleased(address)":"3375bbdc","getAddressToPayOut(uint256)":"96f7ff6e","getPayees()":"27f38113","getProposalIdOfRanking(uint256)":"51f63e35","getUnderlyingContest()":"828ce44b","payees(uint256)":"63037b0c","paysOutTarget()":"1e5b4634","releasable(address,uint256)":"2081d631","releasable(uint256)":"e4bf01a8","release(address,uint256)":"0357371d","release(uint256)":"37bdc99b","released(uint256)":"a94d373b","runReleaseChecks(uint256)":"c7104046","shares(uint256)":"57a858fc","totalReleased()":"e33b7de3","totalShares()":"3a98ef39","underlyingContest()":"f3f44fb7","version()":"54fd4d50","withdrawRewards()":"c7b8981c","withdrawRewards(address)":"42d86693"},"id":60}