{
  "abi": [
    {
      "inputs": [
        {
          "internalType": "string",
          "name": "_name",
          "type": "string"
        },
        {
          "internalType": "string",
          "name": "_prompt",
          "type": "string"
        },
        {
          "internalType": "bytes32",
          "name": "_submissionMerkleRoot",
          "type": "bytes32"
        },
        {
          "internalType": "bytes32",
          "name": "_votingMerkleRoot",
          "type": "bytes32"
        },
        {
          "internalType": "uint256[]",
          "name": "_constructorIntParams",
          "type": "uint256[]"
        }
      ],
      "stateMutability": "nonpayable",
      "type": "constructor"
    },
    {
      "inputs": [],
      "name": "AddressNotPermissionedToSubmit",
      "type": "error"
    },
    {
      "inputs": [
        {
          "internalType": "address",
          "name": "author",
          "type": "address"
        },
        {
          "internalType": "address",
          "name": "sender",
          "type": "address"
        }
      ],
      "name": "AuthorIsNotSender",
      "type": "error"
    },
    {
      "inputs": [],
      "name": "CannotCancelACompletedContest",
      "type": "error"
    },
    {
      "inputs": [],
      "name": "CannotDeleteWhenCompleted",
      "type": "error"
    },
    {
      "inputs": [],
      "name": "CannotVoteOnDeletedProposal",
      "type": "error"
    },
    {
      "inputs": [],
      "name": "ContestAlreadyCancelled",
      "type": "error"
    },
    {
      "inputs": [
        {
          "internalType": "enum Governor.ContestState",
          "name": "currentState",
          "type": "uint8"
        }
      ],
      "name": "ContestMustBeActiveToVote",
      "type": "error"
    },
    {
      "inputs": [
        {
          "internalType": "enum Governor.ContestState",
          "name": "currentState",
          "type": "uint8"
        }
      ],
      "name": "ContestMustBeQueuedToPropose",
      "type": "error"
    },
    {
      "inputs": [
        {
          "internalType": "uint256",
          "name": "maxProposalCount",
          "type": "uint256"
        }
      ],
      "name": "ContestSubmissionLimitReached",
      "type": "error"
    },
    {
      "inputs": [],
      "name": "DownvotingNotEnabled",
      "type": "error"
    },
    {
      "inputs": [
        {
          "internalType": "uint256",
          "name": "proposalId",
          "type": "uint256"
        }
      ],
      "name": "DuplicateSubmission",
      "type": "error"
    },
    {
      "inputs": [],
      "name": "EmptyProposalDescription",
      "type": "error"
    },
    {
      "inputs": [
        {
          "internalType": "uint256",
          "name": "msgValue",
          "type": "uint256"
        },
        {
          "internalType": "uint256",
          "name": "costToPropose",
          "type": "uint256"
        }
      ],
      "name": "IncorrectCostToProposeSent",
      "type": "error"
    },
    {
      "inputs": [],
      "name": "IndexHasNotBeenPopulated",
      "type": "error"
    },
    {
      "inputs": [],
      "name": "InvalidVoteType",
      "type": "error"
    },
    {
      "inputs": [],
      "name": "MoreThanOneProposalWithThisManyVotes",
      "type": "error"
    },
    {
      "inputs": [],
      "name": "NeedAtLeastOneVoteToVote",
      "type": "error"
    },
    {
      "inputs": [],
      "name": "NeedToSubmitWithProofFirst",
      "type": "error"
    },
    {
      "inputs": [],
      "name": "NeedToVoteWithProofFirst",
      "type": "error"
    },
    {
      "inputs": [],
      "name": "NotEnoughVotesLeft",
      "type": "error"
    },
    {
      "inputs": [],
      "name": "NotInMerkle",
      "type": "error"
    },
    {
      "inputs": [],
      "name": "OnlyCreatorCanDelete",
      "type": "error"
    },
    {
      "inputs": [],
      "name": "OnlyCreatorCanSetRewardsModule",
      "type": "error"
    },
    {
      "inputs": [],
      "name": "OnlyJkLabsOrCreatorCanCancel",
      "type": "error"
    },
    {
      "inputs": [],
      "name": "RankCannotBeZero",
      "type": "error"
    },
    {
      "inputs": [],
      "name": "RankIsNotInSortedRanks",
      "type": "error"
    },
    {
      "inputs": [
        {
          "internalType": "uint256",
          "name": "numAllowedProposalSubmissions",
          "type": "uint256"
        }
      ],
      "name": "SenderSubmissionLimitReached",
      "type": "error"
    },
    {
      "inputs": [
        {
          "internalType": "enum Governor.Metadatas",
          "name": "unexpectedMetadata",
          "type": "uint8"
        }
      ],
      "name": "UnexpectedMetadata",
      "type": "error"
    },
    {
      "inputs": [],
      "name": "ZeroSignersInSafeMetadata",
      "type": "error"
    },
    {
      "inputs": [],
      "name": "ZeroThresholdInSafeMetadata",
      "type": "error"
    },
    {
      "anonymous": false,
      "inputs": [],
      "name": "ContestCanceled",
      "type": "event"
    },
    {
      "anonymous": false,
      "inputs": [
        {
          "indexed": false,
          "internalType": "string",
          "name": "name",
          "type": "string"
        },
        {
          "indexed": false,
          "internalType": "address",
          "name": "creator",
          "type": "address"
        }
      ],
      "name": "JokeraceCreated",
      "type": "event"
    },
    {
      "anonymous": false,
      "inputs": [
        {
          "indexed": false,
          "internalType": "contract RewardsModule",
          "name": "oldOfficialRewardsModule",
          "type": "address"
        },
        {
          "indexed": false,
          "internalType": "contract RewardsModule",
          "name": "newOfficialRewardsModule",
          "type": "address"
        }
      ],
      "name": "OfficialRewardsModuleSet",
      "type": "event"
    },
    {
      "anonymous": false,
      "inputs": [
        {
          "indexed": false,
          "internalType": "address",
          "name": "to",
          "type": "address"
        },
        {
          "indexed": false,
          "internalType": "uint256",
          "name": "amount",
          "type": "uint256"
        }
      ],
      "name": "PaymentReleased",
      "type": "event"
    },
    {
      "anonymous": false,
      "inputs": [
        {
          "indexed": false,
          "internalType": "uint256",
          "name": "proposalId",
          "type": "uint256"
        },
        {
          "indexed": false,
          "internalType": "address",
          "name": "proposer",
          "type": "address"
        }
      ],
      "name": "ProposalCreated",
      "type": "event"
    },
    {
      "anonymous": false,
      "inputs": [
        {
          "indexed": false,
          "internalType": "uint256[]",
          "name": "proposalIds",
          "type": "uint256[]"
        }
      ],
      "name": "ProposalsDeleted",
      "type": "event"
    },
    {
      "anonymous": false,
      "inputs": [
        {
          "indexed": true,
          "internalType": "address",
          "name": "voter",
          "type": "address"
        },
        {
          "indexed": false,
          "internalType": "uint256",
          "name": "proposalId",
          "type": "uint256"
        },
        {
          "indexed": false,
          "internalType": "uint8",
          "name": "support",
          "type": "uint8"
        },
        {
          "indexed": false,
          "internalType": "uint256",
          "name": "numVotes",
          "type": "uint256"
        }
      ],
      "name": "VoteCast",
      "type": "event"
    },
    {
      "inputs": [],
      "name": "AMOUNT_FOR_SUMBITTER_PROOF",
      "outputs": [
        {
          "internalType": "uint256",
          "name": "",
          "type": "uint256"
        }
      ],
      "stateMutability": "view",
      "type": "function"
    },
    {
      "inputs": [],
      "name": "JK_LABS_ADDRESS",
      "outputs": [
        {
          "internalType": "address",
          "name": "",
          "type": "address"
        }
      ],
      "stateMutability": "view",
      "type": "function"
    },
    {
      "inputs": [],
      "name": "METADATAS_COUNT",
      "outputs": [
        {
          "internalType": "uint256",
          "name": "",
          "type": "uint256"
        }
      ],
      "stateMutability": "view",
      "type": "function"
    },
    {
      "inputs": [
        {
          "internalType": "address",
          "name": "",
          "type": "address"
        }
      ],
      "name": "addressSubmitterVerified",
      "outputs": [
        {
          "internalType": "bool",
          "name": "",
          "type": "bool"
        }
      ],
      "stateMutability": "view",
      "type": "function"
    },
    {
      "inputs": [
        {
          "internalType": "address",
          "name": "",
          "type": "address"
        }
      ],
      "name": "addressTotalCastVoteCounts",
      "outputs": [
        {
          "internalType": "uint256",
          "name": "",
          "type": "uint256"
        }
      ],
      "stateMutability": "view",
      "type": "function"
    },
    {
      "inputs": [
        {
          "internalType": "address",
          "name": "",
          "type": "address"
        }
      ],
      "name": "addressTotalVotes",
      "outputs": [
        {
          "internalType": "uint256",
          "name": "",
          "type": "uint256"
        }
      ],
      "stateMutability": "view",
      "type": "function"
    },
    {
      "inputs": [
        {
          "internalType": "address",
          "name": "",
          "type": "address"
        }
      ],
      "name": "addressTotalVotesVerified",
      "outputs": [
        {
          "internalType": "bool",
          "name": "",
          "type": "bool"
        }
      ],
      "stateMutability": "view",
      "type": "function"
    },
    {
      "inputs": [
        {
          "internalType": "uint256",
          "name": "",
          "type": "uint256"
        }
      ],
      "name": "addressesThatHaveVoted",
      "outputs": [
        {
          "internalType": "address",
          "name": "",
          "type": "address"
        }
      ],
      "stateMutability": "view",
      "type": "function"
    },
    {
      "inputs": [],
      "name": "allProposalTotalVotes",
      "outputs": [
        {
          "internalType": "uint256[]",
          "name": "proposalIdsReturn",
          "type": "uint256[]"
        },
        {
          "components": [
            {
              "internalType": "uint256",
              "name": "forVotes",
              "type": "uint256"
            },
            {
              "internalType": "uint256",
              "name": "againstVotes",
              "type": "uint256"
            }
          ],
          "internalType": "struct GovernorCountingSimple.VoteCounts[]",
          "name": "proposalVoteCountsArrayReturn",
          "type": "tuple[]"
        }
      ],
      "stateMutability": "view",
      "type": "function"
    },
    {
      "inputs": [],
      "name": "allProposalTotalVotesWithoutDeleted",
      "outputs": [
        {
          "internalType": "uint256[]",
          "name": "proposalIdsReturn",
          "type": "uint256[]"
        },
        {
          "components": [
            {
              "internalType": "uint256",
              "name": "forVotes",
              "type": "uint256"
            },
            {
              "internalType": "uint256",
              "name": "againstVotes",
              "type": "uint256"
            }
          ],
          "internalType": "struct GovernorCountingSimple.VoteCounts[]",
          "name": "proposalVoteCountsArrayReturn",
          "type": "tuple[]"
        }
      ],
      "stateMutability": "view",
      "type": "function"
    },
    {
      "inputs": [],
      "name": "cancel",
      "outputs": [],
      "stateMutability": "nonpayable",
      "type": "function"
    },
    {
      "inputs": [],
      "name": "canceled",
      "outputs": [
        {
          "internalType": "bool",
          "name": "",
          "type": "bool"
        }
      ],
      "stateMutability": "view",
      "type": "function"
    },
    {
      "inputs": [
        {
          "internalType": "uint256",
          "name": "proposalId",
          "type": "uint256"
        },
        {
          "internalType": "uint8",
          "name": "support",
          "type": "uint8"
        },
        {
          "internalType": "uint256",
          "name": "totalVotes",
          "type": "uint256"
        },
        {
          "internalType": "uint256",
          "name": "numVotes",
          "type": "uint256"
        },
        {
          "internalType": "bytes32[]",
          "name": "proof",
          "type": "bytes32[]"
        }
      ],
      "name": "castVote",
      "outputs": [
        {
          "internalType": "uint256",
          "name": "",
          "type": "uint256"
        }
      ],
      "stateMutability": "nonpayable",
      "type": "function"
    },
    {
      "inputs": [
        {
          "internalType": "uint256",
          "name": "proposalId",
          "type": "uint256"
        },
        {
          "internalType": "uint8",
          "name": "support",
          "type": "uint8"
        },
        {
          "internalType": "uint256",
          "name": "numVotes",
          "type": "uint256"
        }
      ],
      "name": "castVoteWithoutProof",
      "outputs": [
        {
          "internalType": "uint256",
          "name": "",
          "type": "uint256"
        }
      ],
      "stateMutability": "nonpayable",
      "type": "function"
    },
    {
      "inputs": [
        {
          "internalType": "address",
          "name": "addressToCheck",
          "type": "address"
        },
        {
          "internalType": "uint256",
          "name": "amount",
          "type": "uint256"
        },
        {
          "internalType": "bytes32[]",
          "name": "proof",
          "type": "bytes32[]"
        },
        {
          "internalType": "bool",
          "name": "voting",
          "type": "bool"
        }
      ],
      "name": "checkProof",
      "outputs": [
        {
          "internalType": "bool",
          "name": "verified",
          "type": "bool"
        }
      ],
      "stateMutability": "view",
      "type": "function"
    },
    {
      "inputs": [
        {
          "internalType": "address",
          "name": "userAddress",
          "type": "address"
        }
      ],
      "name": "contestAddressTotalVotesCast",
      "outputs": [
        {
          "internalType": "uint256",
          "name": "userTotalVotesCast",
          "type": "uint256"
        }
      ],
      "stateMutability": "view",
      "type": "function"
    },
    {
      "inputs": [],
      "name": "contestDeadline",
      "outputs": [
        {
          "internalType": "uint256",
          "name": "",
          "type": "uint256"
        }
      ],
      "stateMutability": "view",
      "type": "function"
    },
    {
      "inputs": [],
      "name": "contestStart",
      "outputs": [
        {
          "internalType": "uint256",
          "name": "",
          "type": "uint256"
        }
      ],
      "stateMutability": "view",
      "type": "function"
    },
    {
      "inputs": [],
      "name": "costToPropose",
      "outputs": [
        {
          "internalType": "uint256",
          "name": "",
          "type": "uint256"
        }
      ],
      "stateMutability": "view",
      "type": "function"
    },
    {
      "inputs": [],
      "name": "creator",
      "outputs": [
        {
          "internalType": "address",
          "name": "",
          "type": "address"
        }
      ],
      "stateMutability": "view",
      "type": "function"
    },
    {
      "inputs": [
        {
          "internalType": "uint256[]",
          "name": "proposalIdsToDelete",
          "type": "uint256[]"
        }
      ],
      "name": "deleteProposals",
      "outputs": [],
      "stateMutability": "nonpayable",
      "type": "function"
    },
    {
      "inputs": [
        {
          "internalType": "uint256",
          "name": "",
          "type": "uint256"
        }
      ],
      "name": "deletedProposalIds",
      "outputs": [
        {
          "internalType": "uint256",
          "name": "",
          "type": "uint256"
        }
      ],
      "stateMutability": "view",
      "type": "function"
    },
    {
      "inputs": [],
      "name": "downvotingAllowed",
      "outputs": [
        {
          "internalType": "uint256",
          "name": "",
          "type": "uint256"
        }
      ],
      "stateMutability": "view",
      "type": "function"
    },
    {
      "inputs": [
        {
          "internalType": "uint256",
          "name": "",
          "type": "uint256"
        },
        {
          "internalType": "uint256",
          "name": "",
          "type": "uint256"
        }
      ],
      "name": "forVotesToProposalIds",
      "outputs": [
        {
          "internalType": "uint256",
          "name": "",
          "type": "uint256"
        }
      ],
      "stateMutability": "view",
      "type": "function"
    },
    {
      "inputs": [],
      "name": "getAllAddressesThatHaveVoted",
      "outputs": [
        {
          "internalType": "address[]",
          "name": "",
          "type": "address[]"
        }
      ],
      "stateMutability": "view",
      "type": "function"
    },
    {
      "inputs": [],
      "name": "getAllDeletedProposalIds",
      "outputs": [
        {
          "internalType": "uint256[]",
          "name": "",
          "type": "uint256[]"
        }
      ],
      "stateMutability": "view",
      "type": "function"
    },
    {
      "inputs": [],
      "name": "getAllProposalAuthors",
      "outputs": [
        {
          "internalType": "address[]",
          "name": "",
          "type": "address[]"
        }
      ],
      "stateMutability": "view",
      "type": "function"
    },
    {
      "inputs": [],
      "name": "getAllProposalIds",
      "outputs": [
        {
          "internalType": "uint256[]",
          "name": "",
          "type": "uint256[]"
        }
      ],
      "stateMutability": "view",
      "type": "function"
    },
    {
      "inputs": [
        {
          "internalType": "uint256",
          "name": "forVotes",
          "type": "uint256"
        }
      ],
      "name": "getNumProposalsWithThisManyForVotes",
      "outputs": [
        {
          "internalType": "uint256",
          "name": "count",
          "type": "uint256"
        }
      ],
      "stateMutability": "view",
      "type": "function"
    },
    {
      "inputs": [
        {
          "internalType": "uint256",
          "name": "forVotes",
          "type": "uint256"
        }
      ],
      "name": "getOnlyProposalIdWithThisManyForVotes",
      "outputs": [
        {
          "internalType": "uint256",
          "name": "proposalId",
          "type": "uint256"
        }
      ],
      "stateMutability": "view",
      "type": "function"
    },
    {
      "inputs": [
        {
          "internalType": "uint256",
          "name": "proposalId",
          "type": "uint256"
        }
      ],
      "name": "getProposal",
      "outputs": [
        {
          "components": [
            {
              "internalType": "address",
              "name": "author",
              "type": "address"
            },
            {
              "internalType": "bool",
              "name": "exists",
              "type": "bool"
            },
            {
              "internalType": "string",
              "name": "description",
              "type": "string"
            },
            {
              "components": [
                {
                  "internalType": "address",
                  "name": "targetAddress",
                  "type": "address"
                }
              ],
              "internalType": "struct Governor.TargetMetadata",
              "name": "targetMetadata",
              "type": "tuple"
            },
            {
              "components": [
                {
                  "internalType": "address[]",
                  "name": "signers",
                  "type": "address[]"
                },
                {
                  "internalType": "uint256",
                  "name": "threshold",
                  "type": "uint256"
                }
              ],
              "internalType": "struct Governor.SafeMetadata",
              "name": "safeMetadata",
              "type": "tuple"
            }
          ],
          "internalType": "struct Governor.ProposalCore",
          "name": "",
          "type": "tuple"
        }
      ],
      "stateMutability": "view",
      "type": "function"
    },
    {
      "inputs": [
        {
          "internalType": "uint256",
          "name": "forVotes",
          "type": "uint256"
        }
      ],
      "name": "getProposalsWithThisManyForVotes",
      "outputs": [
        {
          "internalType": "uint256[]",
          "name": "proposalsWithThisManyForVotes",
          "type": "uint256[]"
        }
      ],
      "stateMutability": "view",
      "type": "function"
    },
    {
      "inputs": [
        {
          "internalType": "uint256",
          "name": "rank",
          "type": "uint256"
        }
      ],
      "name": "getRankIndex",
      "outputs": [
        {
          "internalType": "uint256",
          "name": "rankIndex",
          "type": "uint256"
        }
      ],
      "stateMutability": "view",
      "type": "function"
    },
    {
      "inputs": [],
      "name": "getSortedRanks",
      "outputs": [
        {
          "internalType": "uint256[]",
          "name": "sortedRanksArray",
          "type": "uint256[]"
        }
      ],
      "stateMutability": "view",
      "type": "function"
    },
    {
      "inputs": [
        {
          "components": [
            {
              "internalType": "address",
              "name": "author",
              "type": "address"
            },
            {
              "internalType": "bool",
              "name": "exists",
              "type": "bool"
            },
            {
              "internalType": "string",
              "name": "description",
              "type": "string"
            },
            {
              "components": [
                {
                  "internalType": "address",
                  "name": "targetAddress",
                  "type": "address"
                }
              ],
              "internalType": "struct Governor.TargetMetadata",
              "name": "targetMetadata",
              "type": "tuple"
            },
            {
              "components": [
                {
                  "internalType": "address[]",
                  "name": "signers",
                  "type": "address[]"
                },
                {
                  "internalType": "uint256",
                  "name": "threshold",
                  "type": "uint256"
                }
              ],
              "internalType": "struct Governor.SafeMetadata",
              "name": "safeMetadata",
              "type": "tuple"
            }
          ],
          "internalType": "struct Governor.ProposalCore",
          "name": "proposal",
          "type": "tuple"
        }
      ],
      "name": "hashProposal",
      "outputs": [
        {
          "internalType": "uint256",
          "name": "",
          "type": "uint256"
        }
      ],
      "stateMutability": "pure",
      "type": "function"
    },
    {
      "inputs": [
        {
          "internalType": "uint256",
          "name": "idx",
          "type": "uint256"
        }
      ],
      "name": "isOrIsBelowTiedRank",
      "outputs": [
        {
          "internalType": "bool",
          "name": "atOrBelowTiedRank",
          "type": "bool"
        }
      ],
      "stateMutability": "view",
      "type": "function"
    },
    {
      "inputs": [],
      "name": "maxProposalCount",
      "outputs": [
        {
          "internalType": "uint256",
          "name": "",
          "type": "uint256"
        }
      ],
      "stateMutability": "view",
      "type": "function"
    },
    {
      "inputs": [],
      "name": "name",
      "outputs": [
        {
          "internalType": "string",
          "name": "",
          "type": "string"
        }
      ],
      "stateMutability": "view",
      "type": "function"
    },
    {
      "inputs": [],
      "name": "numAllowedProposalSubmissions",
      "outputs": [
        {
          "internalType": "uint256",
          "name": "",
          "type": "uint256"
        }
      ],
      "stateMutability": "view",
      "type": "function"
    },
    {
      "inputs": [
        {
          "internalType": "address",
          "name": "",
          "type": "address"
        }
      ],
      "name": "numSubmissions",
      "outputs": [
        {
          "internalType": "uint256",
          "name": "",
          "type": "uint256"
        }
      ],
      "stateMutability": "view",
      "type": "function"
    },
    {
      "inputs": [],
      "name": "officialRewardsModule",
      "outputs": [
        {
          "internalType": "contract RewardsModule",
          "name": "",
          "type": "address"
        }
      ],
      "stateMutability": "view",
      "type": "function"
    },
    {
      "inputs": [],
      "name": "percentageToCreator",
      "outputs": [
        {
          "internalType": "uint256",
          "name": "",
          "type": "uint256"
        }
      ],
      "stateMutability": "view",
      "type": "function"
    },
    {
      "inputs": [],
      "name": "prompt",
      "outputs": [
        {
          "internalType": "string",
          "name": "",
          "type": "string"
        }
      ],
      "stateMutability": "view",
      "type": "function"
    },
    {
      "inputs": [
        {
          "internalType": "uint256",
          "name": "proposalId",
          "type": "uint256"
        },
        {
          "internalType": "address",
          "name": "userAddress",
          "type": "address"
        }
      ],
      "name": "proposalAddressVotes",
      "outputs": [
        {
          "internalType": "uint256",
          "name": "forVotes",
          "type": "uint256"
        },
        {
          "internalType": "uint256",
          "name": "againstVotes",
          "type": "uint256"
        }
      ],
      "stateMutability": "view",
      "type": "function"
    },
    {
      "inputs": [
        {
          "internalType": "uint256",
          "name": "proposalId",
          "type": "uint256"
        }
      ],
      "name": "proposalAddressesHaveVoted",
      "outputs": [
        {
          "internalType": "address[]",
          "name": "",
          "type": "address[]"
        }
      ],
      "stateMutability": "view",
      "type": "function"
    },
    {
      "inputs": [
        {
          "internalType": "uint256",
          "name": "",
          "type": "uint256"
        }
      ],
      "name": "proposalAuthors",
      "outputs": [
        {
          "internalType": "address",
          "name": "",
          "type": "address"
        }
      ],
      "stateMutability": "view",
      "type": "function"
    },
    {
      "inputs": [
        {
          "internalType": "uint256",
          "name": "",
          "type": "uint256"
        }
      ],
      "name": "proposalIds",
      "outputs": [
        {
          "internalType": "uint256",
          "name": "",
          "type": "uint256"
        }
      ],
      "stateMutability": "view",
      "type": "function"
    },
    {
      "inputs": [
        {
          "internalType": "uint256",
          "name": "",
          "type": "uint256"
        }
      ],
      "name": "proposalIsDeleted",
      "outputs": [
        {
          "internalType": "bool",
          "name": "",
          "type": "bool"
        }
      ],
      "stateMutability": "view",
      "type": "function"
    },
    {
      "inputs": [
        {
          "internalType": "uint256",
          "name": "proposalId",
          "type": "uint256"
        }
      ],
      "name": "proposalVotes",
      "outputs": [
        {
          "internalType": "uint256",
          "name": "forVotes",
          "type": "uint256"
        },
        {
          "internalType": "uint256",
          "name": "againstVotes",
          "type": "uint256"
        }
      ],
      "stateMutability": "view",
      "type": "function"
    },
    {
      "inputs": [
        {
          "internalType": "uint256",
          "name": "",
          "type": "uint256"
        }
      ],
      "name": "proposalVotesStructs",
      "outputs": [
        {
          "components": [
            {
              "internalType": "uint256",
              "name": "forVotes",
              "type": "uint256"
            },
            {
              "internalType": "uint256",
              "name": "againstVotes",
              "type": "uint256"
            }
          ],
          "internalType": "struct GovernorCountingSimple.VoteCounts",
          "name": "proposalVoteCounts",
          "type": "tuple"
        }
      ],
      "stateMutability": "view",
      "type": "function"
    },
    {
      "inputs": [
        {
          "internalType": "uint256",
          "name": "",
          "type": "uint256"
        }
      ],
      "name": "proposals",
      "outputs": [
        {
          "internalType": "address",
          "name": "author",
          "type": "address"
        },
        {
          "internalType": "bool",
          "name": "exists",
          "type": "bool"
        },
        {
          "internalType": "string",
          "name": "description",
          "type": "string"
        },
        {
          "components": [
            {
              "internalType": "address",
              "name": "targetAddress",
              "type": "address"
            }
          ],
          "internalType": "struct Governor.TargetMetadata",
          "name": "targetMetadata",
          "type": "tuple"
        },
        {
          "components": [
            {
              "internalType": "address[]",
              "name": "signers",
              "type": "address[]"
            },
            {
              "internalType": "uint256",
              "name": "threshold",
              "type": "uint256"
            }
          ],
          "internalType": "struct Governor.SafeMetadata",
          "name": "safeMetadata",
          "type": "tuple"
        }
      ],
      "stateMutability": "view",
      "type": "function"
    },
    {
      "inputs": [
        {
          "components": [
            {
              "internalType": "address",
              "name": "author",
              "type": "address"
            },
            {
              "internalType": "bool",
              "name": "exists",
              "type": "bool"
            },
            {
              "internalType": "string",
              "name": "description",
              "type": "string"
            },
            {
              "components": [
                {
                  "internalType": "address",
                  "name": "targetAddress",
                  "type": "address"
                }
              ],
              "internalType": "struct Governor.TargetMetadata",
              "name": "targetMetadata",
              "type": "tuple"
            },
            {
              "components": [
                {
                  "internalType": "address[]",
                  "name": "signers",
                  "type": "address[]"
                },
                {
                  "internalType": "uint256",
                  "name": "threshold",
                  "type": "uint256"
                }
              ],
              "internalType": "struct Governor.SafeMetadata",
              "name": "safeMetadata",
              "type": "tuple"
            }
          ],
          "internalType": "struct Governor.ProposalCore",
          "name": "proposal",
          "type": "tuple"
        },
        {
          "internalType": "bytes32[]",
          "name": "proof",
          "type": "bytes32[]"
        }
      ],
      "name": "propose",
      "outputs": [
        {
          "internalType": "uint256",
          "name": "",
          "type": "uint256"
        }
      ],
      "stateMutability": "payable",
      "type": "function"
    },
    {
      "inputs": [
        {
          "components": [
            {
              "internalType": "address",
              "name": "author",
              "type": "address"
            },
            {
              "internalType": "bool",
              "name": "exists",
              "type": "bool"
            },
            {
              "internalType": "string",
              "name": "description",
              "type": "string"
            },
            {
              "components": [
                {
                  "internalType": "address",
                  "name": "targetAddress",
                  "type": "address"
                }
              ],
              "internalType": "struct Governor.TargetMetadata",
              "name": "targetMetadata",
              "type": "tuple"
            },
            {
              "components": [
                {
                  "internalType": "address[]",
                  "name": "signers",
                  "type": "address[]"
                },
                {
                  "internalType": "uint256",
                  "name": "threshold",
                  "type": "uint256"
                }
              ],
              "internalType": "struct Governor.SafeMetadata",
              "name": "safeMetadata",
              "type": "tuple"
            }
          ],
          "internalType": "struct Governor.ProposalCore",
          "name": "proposal",
          "type": "tuple"
        }
      ],
      "name": "proposeWithoutProof",
      "outputs": [
        {
          "internalType": "uint256",
          "name": "",
          "type": "uint256"
        }
      ],
      "stateMutability": "payable",
      "type": "function"
    },
    {
      "inputs": [],
      "name": "rankLimit",
      "outputs": [
        {
          "internalType": "uint256",
          "name": "",
          "type": "uint256"
        }
      ],
      "stateMutability": "view",
      "type": "function"
    },
    {
      "inputs": [
        {
          "internalType": "contract RewardsModule",
          "name": "officialRewardsModule_",
          "type": "address"
        }
      ],
      "name": "setOfficialRewardsModule",
      "outputs": [],
      "stateMutability": "nonpayable",
      "type": "function"
    },
    {
      "inputs": [
        {
          "internalType": "uint256",
          "name": "",
          "type": "uint256"
        }
      ],
      "name": "sortedRanks",
      "outputs": [
        {
          "internalType": "uint256",
          "name": "",
          "type": "uint256"
        }
      ],
      "stateMutability": "view",
      "type": "function"
    },
    {
      "inputs": [],
      "name": "sortingEnabled",
      "outputs": [
        {
          "internalType": "uint256",
          "name": "",
          "type": "uint256"
        }
      ],
      "stateMutability": "view",
      "type": "function"
    },
    {
      "inputs": [],
      "name": "state",
      "outputs": [
        {
          "internalType": "enum Governor.ContestState",
          "name": "",
          "type": "uint8"
        }
      ],
      "stateMutability": "view",
      "type": "function"
    },
    {
      "inputs": [],
      "name": "submissionMerkleRoot",
      "outputs": [
        {
          "internalType": "bytes32",
          "name": "",
          "type": "bytes32"
        }
      ],
      "stateMutability": "view",
      "type": "function"
    },
    {
      "inputs": [],
      "name": "totalVotesCast",
      "outputs": [
        {
          "internalType": "uint256",
          "name": "",
          "type": "uint256"
        }
      ],
      "stateMutability": "view",
      "type": "function"
    },
    {
      "inputs": [
        {
          "components": [
            {
              "internalType": "address",
              "name": "author",
              "type": "address"
            },
            {
              "internalType": "bool",
              "name": "exists",
              "type": "bool"
            },
            {
              "internalType": "string",
              "name": "description",
              "type": "string"
            },
            {
              "components": [
                {
                  "internalType": "address",
                  "name": "targetAddress",
                  "type": "address"
                }
              ],
              "internalType": "struct Governor.TargetMetadata",
              "name": "targetMetadata",
              "type": "tuple"
            },
            {
              "components": [
                {
                  "internalType": "address[]",
                  "name": "signers",
                  "type": "address[]"
                },
                {
                  "internalType": "uint256",
                  "name": "threshold",
                  "type": "uint256"
                }
              ],
              "internalType": "struct Governor.SafeMetadata",
              "name": "safeMetadata",
              "type": "tuple"
            }
          ],
          "internalType": "struct Governor.ProposalCore",
          "name": "proposal",
          "type": "tuple"
        }
      ],
      "name": "validateProposalData",
      "outputs": [],
      "stateMutability": "view",
      "type": "function"
    },
    {
      "inputs": [
        {
          "internalType": "address",
          "name": "account",
          "type": "address"
        },
        {
          "internalType": "bytes32[]",
          "name": "proof",
          "type": "bytes32[]"
        }
      ],
      "name": "verifyProposer",
      "outputs": [],
      "stateMutability": "nonpayable",
      "type": "function"
    },
    {
      "inputs": [
        {
          "internalType": "address",
          "name": "account",
          "type": "address"
        },
        {
          "internalType": "uint256",
          "name": "totalVotes",
          "type": "uint256"
        },
        {
          "internalType": "bytes32[]",
          "name": "proof",
          "type": "bytes32[]"
        }
      ],
      "name": "verifyVoter",
      "outputs": [],
      "stateMutability": "nonpayable",
      "type": "function"
    },
    {
      "inputs": [],
      "name": "version",
      "outputs": [
        {
          "internalType": "string",
          "name": "",
          "type": "string"
        }
      ],
      "stateMutability": "pure",
      "type": "function"
    },
    {
      "inputs": [],
      "name": "voteStart",
      "outputs": [
        {
          "internalType": "uint256",
          "name": "",
          "type": "uint256"
        }
      ],
      "stateMutability": "view",
      "type": "function"
    },
    {
      "inputs": [],
      "name": "votingDelay",
      "outputs": [
        {
          "internalType": "uint256",
          "name": "",
          "type": "uint256"
        }
      ],
      "stateMutability": "view",
      "type": "function"
    },
    {
      "inputs": [],
      "name": "votingMerkleRoot",
      "outputs": [
        {
          "internalType": "bytes32",
          "name": "",
          "type": "bytes32"
        }
      ],
      "stateMutability": "view",
      "type": "function"
    },
    {
      "inputs": [],
      "name": "votingPeriod",
      "outputs": [
        {
          "internalType": "uint256",
          "name": "",
          "type": "uint256"
        }
      ],
      "stateMutability": "view",
      "type": "function"
    }
  ],
  "bytecode": {
    "object": "0x6101006040523480156200001257600080fd5b50604051620042d5380380620042d583398101604081905262000035916200030c565b84848484846000815181106200004f576200004f6200041d565b6020026020010151856001815181106200006d576200006d6200041d565b6020026020010151866002815181106200008b576200008b6200041d565b602002602001015187600381518110620000a957620000a96200041d565b602002602001015188600481518110620000c757620000c76200041d565b602002602001015189600581518110620000e557620000e56200041d565b60200260200101518a6006815181106200010357620001036200041d565b60200260200101518b6007815181106200012157620001216200041d565b602002602001015189898e6008815181106200014157620001416200041d565b60200260200101518f6009815181106200015f576200015f6200041d565b602090810291909101015160809190915260a05260c09190915260e05260016200018a8d82620004c2565b506002620001998c82620004c2565b50600380546001600160a01b03191633908117909155600489905560058890556006879055600786905560088590556009849055600a839055600b8290556040517f1eae03a78f765227bc1e8574db32390cefa5b3c0a954017973e497e40a123734916200020a918f91906200058e565b60405180910390a15050505050505050505050505050505050620005d4565b634e487b7160e01b600052604160045260246000fd5b604051601f8201601f191681016001600160401b03811182821017156200026a576200026a62000229565b604052919050565b60005b838110156200028f57818101518382015260200162000275565b50506000910152565b600082601f830112620002aa57600080fd5b81516001600160401b03811115620002c657620002c662000229565b620002db601f8201601f19166020016200023f565b818152846020838601011115620002f157600080fd5b6200030482602083016020870162000272565b949350505050565b600080600080600060a086880312156200032557600080fd5b85516001600160401b03808211156200033d57600080fd5b6200034b89838a0162000298565b96506020915081880151818111156200036357600080fd5b620003718a828b0162000298565b96505060408801519450606088015193506080880151818111156200039557600080fd5b8801601f81018a13620003a757600080fd5b805182811115620003bc57620003bc62000229565b8060051b9250620003cf8484016200023f565b818152928201840192848101908c851115620003ea57600080fd5b928501925b848410156200040a57835182529285019290850190620003ef565b8096505050505050509295509295909350565b634e487b7160e01b600052603260045260246000fd5b600181811c908216806200044857607f821691505b6020821081036200046957634e487b7160e01b600052602260045260246000fd5b50919050565b601f821115620004bd57600081815260208120601f850160051c81016020861015620004985750805b601f850160051c820191505b81811015620004b957828155600101620004a4565b5050505b505050565b81516001600160401b03811115620004de57620004de62000229565b620004f681620004ef845462000433565b846200046f565b602080601f8311600181146200052e5760008415620005155750858301515b600019600386901b1c1916600185901b178555620004b9565b600085815260208120601f198616915b828110156200055f578886015182559484019460019091019084016200053e565b50858210156200057e5787850151600019600388901b60f8161c191681555b5050505050600190811b01905550565b6040815260008351806040840152620005af81606085016020880162000272565b6001600160a01b0393909316602083015250601f91909101601f191601606001919050565b60805160a05160c05160e051613c8f6200064660003960008181610bbf01526111a8015260008181610ac401528181610fcc0152818161114301526112c00152600081816104ad01528181612d730152612f5101526000818161067b01528181611fda01526129b90152613c8f6000f3fe6080604052600436106103ee5760003560e01c8063711effc811610208578063c19d93fb11610118578063ea8a1af0116100ab578063f0a7db0a1161007a578063f0a7db0a14610c8b578063f4f3d7ec14610cab578063f79c017214610ccb578063fb8ddab414610cfb578063fb9bf8d414610d1b57600080fd5b8063ea8a1af014610c23578063edcd1be414610c38578063eef18e1714610c4e578063efa90d3614610c7657600080fd5b8063d45a010b116100e7578063d45a010b14610b98578063dd96a19d14610bad578063dea5f6a614610be1578063e031535b14610c0e57600080fd5b8063c19d93fb14610af9578063c7f758a814610b1b578063c9a1b6b214610b48578063cb85395014610b6857600080fd5b8063946369b51161019b578063aec116b61161016a578063aec116b614610a3c578063b323580d14610a72578063b66d1da314610a92578063bddc164114610ab2578063c0ffaa7814610ae657600080fd5b8063946369b5146109ad5780639b644a23146109c25780639ba197af146109e2578063a1ac6cb214610a0f57600080fd5b80637de418d5116101d75780637de418d514610931578063832009af146109475780639174778c1461095d578063930de9791461097d57600080fd5b8063711effc8146108af57806375e509c5146108cf578063785ddfe5146108fc5780637c65d7111461091c57600080fd5b80633932abb111610303578063531bd8121161029657806360506ff61161026557806360506ff61461082e57806365f16263146108445780636e4eb810146108645780636ed815ad146108845780636fd3636b1461089a57600080fd5b8063531bd81214610778578063544ffc9c1461079857806354fd4d50146107e25780635c7107d81461080e57600080fd5b8063476f4d8a116102d2578063476f4d8a1461070d5780634d24a67f1461072057806350a5e5241461073557806350c4b6161461075857600080fd5b80633932abb11461069d5780633f9942ff146106b3578063419c533c146106cd578063458da87d146106ed57600080fd5b80630aa25e44116103865780632c39805f116103555780632c39805f146105db578063325cc6d9146105fd57806332763c221461061d578063347cf6651461064d578063366ecf5b1461066957600080fd5b80630aa25e44146105625780631242b7371461058257806320b3e845146105a4578063262e59e9146105c657600080fd5b80630414126a116103c25780630414126a1461049b57806305846cae146104cf57806306fdde03146104ef578063070dc5d91461051157600080fd5b80624114a8146103f3578063013cf08b1461041c57806302a251a31461044d57806302d05d3f14610463575b600080fd5b3480156103ff57600080fd5b5061040960045481565b6040519081526020015b60405180910390f35b34801561042857600080fd5b5061043c6104373660046130ca565b610d31565b604051610413959493929190613182565b34801561045957600080fd5b5061040960065481565b34801561046f57600080fd5b50600354610483906001600160a01b031681565b6040516001600160a01b039091168152602001610413565b3480156104a757600080fd5b506104097f000000000000000000000000000000000000000000000000000000000000000081565b3480156104db57600080fd5b506104096104ea3660046130ca565b610e79565b3480156104fb57600080fd5b50610504610e9a565b60405161041391906131d4565b34801561051d57600080fd5b5061055561052c3660046130ca565b601960209081526000918252604091829020825180840190935280548352600101549082015281565b60405161041391906131e7565b34801561056e57600080fd5b5061048361057d3660046130ca565b610f28565b34801561058e57600080fd5b50610597610f52565b6040516104139190613239565b3480156105b057600080fd5b506105c46105bf3660046132a5565b610faa565b005b3480156105d257600080fd5b50610409611037565b3480156105e757600080fd5b506105f0611053565b60405161041391906132f9565b34801561060957600080fd5b506104096106183660046130ca565b6110b4565b34801561062957600080fd5b5061063d61063836600461335b565b6110c4565b6040519015158152602001610413565b34801561065957600080fd5b50610409678ac7230489e8000081565b34801561067557600080fd5b506104097f000000000000000000000000000000000000000000000000000000000000000081565b3480156106a957600080fd5b5061040960055481565b3480156106bf57600080fd5b50600f5461063d9060ff1681565b3480156106d957600080fd5b506104096106e83660046133dc565b611201565b3480156106f957600080fd5b506104096107083660046136e8565b611257565b61040961071b366004613734565b611288565b34801561072c57600080fd5b50610409611343565b34801561074157600080fd5b5061074a611351565b604051610413929190613768565b34801561076457600080fd5b506104836107733660046130ca565b611457565b34801561078457600080fd5b506105c46107933660046137d1565b611467565b3480156107a457600080fd5b506107cd6107b33660046130ca565b600090815260196020526040902080546001909101549091565b60408051928352602083019190915201610413565b3480156107ee57600080fd5b50604080518082019091526003815262342e3960e81b6020820152610504565b34801561081a57600080fd5b506104096108293660046130ca565b6114cd565b34801561083a57600080fd5b5061040960095481565b34801561085057600080fd5b5061040961085f36600461382c565b6115d4565b34801561087057600080fd5b506107cd61087f366004613861565b611654565b34801561089057600080fd5b50610409600a5481565b3480156108a657600080fd5b50610597611689565b3480156108bb57600080fd5b506104096108ca366004613891565b6116df565b3480156108db57600080fd5b506104096108ea3660046138b3565b60116020526000908152604090205481565b34801561090857600080fd5b50601b54610483906001600160a01b031681565b34801561092857600080fd5b50610504611710565b34801561093d57600080fd5b5061040960175481565b34801561095357600080fd5b5061040960075481565b34801561096957600080fd5b5061063d6109783660046130ca565b61171d565b34801561098957600080fd5b5061063d6109983660046138b3565b60156020526000908152604090205460ff1681565b3480156109b957600080fd5b506105f06117c1565b3480156109ce57600080fd5b506104096109dd3660046130ca565b611821565b3480156109ee57600080fd5b506104096109fd3660046130ca565b6000908152601a602052604090205490565b348015610a1b57600080fd5b50610409610a2a3660046138b3565b60186020526000908152604090205481565b348015610a4857600080fd5b50610409610a573660046138b3565b6001600160a01b031660009081526018602052604090205490565b348015610a7e57600080fd5b506105f0610a8d3660046130ca565b611831565b348015610a9e57600080fd5b50610409610aad3660046130ca565b6118a3565b348015610abe57600080fd5b506104097f000000000000000000000000000000000000000000000000000000000000000081565b610409610af43660046138d0565b611903565b348015610b0557600080fd5b50610b0e61196b565b6040516104139190613941565b348015610b2757600080fd5b50610b3b610b363660046130ca565b6119bc565b604051610413919061395b565b348015610b5457600080fd5b50610597610b633660046130ca565b611b36565b348015610b7457600080fd5b5061063d610b833660046138b3565b60166020526000908152604090205460ff1681565b348015610ba457600080fd5b5061074a611b98565b348015610bb957600080fd5b506104097f000000000000000000000000000000000000000000000000000000000000000081565b348015610bed57600080fd5b50610409610bfc3660046138b3565b60146020526000908152604090205481565b348015610c1a57600080fd5b50610409611d65565b348015610c2f57600080fd5b506105c4611d77565b348015610c4457600080fd5b50610409600b5481565b348015610c5a57600080fd5b5061048373dc652c746a8f85e18ce632d97c6118e8a52fa73881565b348015610c8257600080fd5b50610597611e6d565b348015610c9757600080fd5b506105c4610ca63660046139c2565b611ec3565b348015610cb757600080fd5b506105c4610cc63660046138b3565b612048565b348015610cd757600080fd5b5061063d610ce63660046130ca565b600e6020526000908152604090205460ff1681565b348015610d0757600080fd5b506105c4610d163660046136e8565b6120cd565b348015610d2757600080fd5b5061040960085481565b601060205260009081526040902080546001820180546001600160a01b03831693600160a01b90930460ff16929190610d6990613a03565b80601f0160208091040260200160405190810160405280929190818152602001828054610d9590613a03565b8015610de25780601f10610db757610100808354040283529160200191610de2565b820191906000526020600020905b815481529060010190602001808311610dc557829003601f168201915b5050604080516020808201835260028801546001600160a01b031682528251600389018054606093810283018401865294820185815298999398939750909550935084928491840182828015610e6157602002820191906000526020600020905b81546001600160a01b03168152600190910190602001808311610e43575b50505050508152602001600182015481525050905085565b600d8181548110610e8957600080fd5b600091825260209091200154905081565b60018054610ea790613a03565b80601f0160208091040260200160405190810160405280929190818152602001828054610ed390613a03565b8015610f205780601f10610ef557610100808354040283529160200191610f20565b820191906000526020600020905b815481529060010190602001808311610f0357829003601f168201915b505050505081565b60128181548110610f3857600080fd5b6000918252602090912001546001600160a01b0316905081565b6060600d805480602002602001604051908101604052809291908181526020018280548015610fa057602002820191906000526020600020905b815481526020019060010190808311610f8c575b5050505050905090565b6001600160a01b03831660009081526016602052604090205460ff16611032577f0000000000000000000000000000000000000000000000000000000000000000600003610ff757505050565b61100d83678ac7230489e80000848460006110c4565b506001600160a01b0383166000908152601660205260409020805460ff191660011790555b505050565b6000600654611044611d65565b61104e9190613a4d565b905090565b60606013805480602002602001604051908101604052809291908181526020018280548015610fa057602002820191906000526020600020905b81546001600160a01b0316815260019091019060200180831161108d575050505050905090565b60008181548110610e8957600080fd5b6040516bffffffffffffffffffffffff19606087901b1660208201526034810185905260009081906054016040516020818303038152906040528051906020012090506000836111735761116e8686808060200260200160405190810160405280939291908181526020018383602002808284376000920191909152507f0000000000000000000000000000000000000000000000000000000000000000925086915061221c9050565b6111d3565b6111d38686808060200260200160405190810160405280939291908181526020018383602002808284376000920191909152507f0000000000000000000000000000000000000000000000000000000000000000925086915061221c9050565b9050806111f35760405163452c2df160e11b815260040160405180910390fd5b506001979650505050505050565b6000868152600e6020526040812054339060ff1615611233576040516358f1119560e01b815260040160405180910390fd5b61123f81878686611467565b61124b88828988612232565b98975050505050505050565b60008160405160200161126a919061395b565b60408051601f19818403018152919052805160209091012092915050565b6000600a5434146112be57600a546040516380a7af9f60e01b815234600482015260248101919091526044015b60405180910390fd5b7f000000000000000000000000000000000000000000000000000000000000000015611314573360009081526016602052604090205460ff1661131457604051631f22097560e01b815260040160405180910390fd5b611320610d1683613a60565b600061133361132e84613a60565b612379565b905061133d6125f4565b92915050565b61134e600180613a4d565b81565b606080600061135e611e6d565b9050600081516001600160401b0381111561137b5761137b61344c565b6040519080825280602002602001820160405280156113c057816020015b60408051808201909152600080825260208201528152602001906001900390816113995790505b50905060005b825181101561144d57601960008483815181106113e5576113e5613a6c565b602002602001015181526020019081526020016000206000016040518060400160405290816000820154815260200160018201548152505082828151811061142f5761142f613a6c565b6020026020010181905250808061144590613a82565b9150506113c6565b5090939092509050565b60138181548110610f3857600080fd5b6001600160a01b03841660009081526015602052604090205460ff166114c7576114958484848460016110c4565b506001600160a01b038416600090815260146020908152604080832086905560159091529020805460ff191660011790555b50505050565b6000816000036114f057604051630ec90a1760e31b815260040160405180910390fd5b6000805460408051602080840282018101909252828152919291908290849083018282801561153e57602002820191906000526020600020905b81548152602001906001019080831161152a575b5050505050905060006001905060005b838110156115ba5761158583828151811061156b5761156b613a6c565b60200260200101516000908152601a602052604090205490565b156115a85785820361159a5795945050505050565b816115a481613a82565b9250505b806115b281613a82565b91505061154e565b50604051632cc2ab7360e11b815260040160405180910390fd5b6000838152600e6020526040812054339060ff1615611606576040516358f1119560e01b815260040160405180910390fd5b6001600160a01b03811660009081526015602052604090205460ff1661163f5760405163126ec6d160e31b815260040160405180910390fd5b61164b85828686612232565b95945050505050565b60008281526019602090815260408083206001600160a01b0385168452600301909152902080546001909101545b9250929050565b60606000805480602002602001604051908101604052809291908181526020018280548015610fa05760200282019190600052602060002090815481526020019060010190808311610f8c575050505050905090565b601a60205281600052604060002081815481106116fb57600080fd5b90600052602060002001600091509150505481565b60028054610ea790613a03565b6000805461172d90600190613a9b565b82111561174d576040516365d6f35160e11b815260040160405180910390fd5b60005b61175b836001613a4d565b8110156117b85760016117976000838154811061177a5761177a613a6c565b90600052602060002001546000908152601a602052604090205490565b11156117a65750600192915050565b806117b081613a82565b915050611750565b50600092915050565b60606012805480602002602001604051908101604052809291908181526020018280548015610fa0576020028201919060005260206000209081546001600160a01b0316815260019091019060200180831161108d575050505050905090565b600c8181548110610e8957600080fd5b600081815260196020908152604091829020600281018054845181850281018501909552808552606094929383018282801561189657602002820191906000526020600020905b81546001600160a01b03168152600190910190602001808311611878575b5050505050915050919050565b6000818152601a60205260408120546001146118d257604051633832a15560e21b815260040160405180910390fd5b6000828152601a6020526040812080549091906118f1576118f1613a6c565b90600052602060002001549050919050565b6000600a54341461193457600a546040516380a7af9f60e01b815234600482015260248101919091526044016112b5565b61193f338484610faa565b61194b610d1685613a60565b600061195961132e86613a60565b90506119636125f4565b949350505050565b600f5460009060ff161561197f5750600290565b426004541061198e5750600090565b42611997611d65565b106119a25750600390565b426119ab611037565b106119b65750600190565b50600490565b6119c4612fdf565b600082815260106020908152604091829020825160a08101845281546001600160a01b0381168252600160a01b900460ff161515928101929092526001810180549293919291840191611a1690613a03565b80601f0160208091040260200160405190810160405280929190818152602001828054611a4290613a03565b8015611a8f5780601f10611a6457610100808354040283529160200191611a8f565b820191906000526020600020905b815481529060010190602001808311611a7257829003601f168201915b5050509183525050604080516020818101835260028501546001600160a01b03168252808401919091528151600385018054606093810283018401855282850181815294909501949193909284928491840182828015611b1857602002820191906000526020600020905b81546001600160a01b03168152600190910190602001808311611afa575b50505050508152602001600182015481525050815250509050919050565b6000818152601a6020908152604091829020805483518184028101840190945280845260609392830182828015611b8c57602002820191906000526020600020905b815481526020019060010190808311611b78575b50505050509050919050565b6060806000611ba5611e6d565b9050600081516001600160401b03811115611bc257611bc261344c565b604051908082528060200260200182016040528015611beb578160200160208202803683370190505b509050600082516001600160401b03811115611c0957611c0961344c565b604051908082528060200260200182016040528015611c4e57816020015b6040805180820190915260008082526020820152815260200190600190039081611c275790505b5090506000805b8451811015611d5957600e6000868381518110611c7457611c74613a6c565b60209081029190910181015182528101919091526040016000205460ff16611d4757848181518110611ca857611ca8613a6c565b6020026020010151848381518110611cc257611cc2613a6c565b60200260200101818152505060196000868381518110611ce457611ce4613a6c565b6020026020010151815260200190815260200160002060000160405180604001604052908160008201548152602001600182015481525050838381518110611d2e57611d2e613a6c565b6020908102919091010152611d44600183613a4d565b91505b80611d5181613a82565b915050611c55565b50919590945092505050565b600060055460045461104e9190613a4d565b6003546001600160a01b03163314801590611da657503373dc652c746a8f85e18ce632d97c6118e8a52fa73814155b15611dc4576040516301dbf46f60e71b815260040160405180910390fd5b6000611dce61196b565b90506002816004811115611de457611de461392b565b03611e0257604051633c30acbf60e01b815260040160405180910390fd5b6004816004811115611e1657611e1661392b565b03611e34576040516307b9d0f760e01b815260040160405180910390fd5b600f805460ff191660011790556040517f4cd963a081760a54f571abc0f1db4dde31b4a07d8d6da3e844b8c6f47eeaaa4290600090a150565b6060600c805480602002602001604051908101604052809291908181526020018280548015610fa05760200282019190600052602060002090815481526020019060010190808311610f8c575050505050905090565b6003546001600160a01b03163314611eee5760405163b8d4540960e01b815260040160405180910390fd5b6004611ef861196b565b6004811115611f0957611f0961392b565b03611f27576040516331da1c8b60e11b815260040160405180910390fd5b60005b81811015611fcc576000838383818110611f4657611f46613a6c565b602090810292909201356000818152600e9093526040909220549192505060ff16611fb9576000818152600e60205260408120805460ff19166001908117909155600d805491820181559091527fd7b6990105719101dabeb77144f2a3385c8033acd3af97e9423a695e81ad1eb5018190555b5080611fc481613a82565b915050611f2a565b50600954158015611ffd57507f00000000000000000000000000000000000000000000000000000000000000006001145b1561200c5761200c8282612709565b7f75a75cf5c561892f4cc5b26c1b8e933849b42238c96dd073d080d1ae96c51416600c60405161203c9190613aae565b60405180910390a15050565b6003546001600160a01b0316331461207357604051630f4cb1bd60e11b815260040160405180910390fd5b601b80546001600160a01b038381166001600160a01b031983168117909355604080519190921680825260208201939093527f753a2cf8d360cff631674504210913e48247f8e56b3e6d2006c2103d4095999f910161203c565b80516001600160a01b0316331461210b57805160405163fbbf4d7f60e01b81526001600160a01b0390911660048201523360248201526044016112b5565b60005b612119600180613a4d565b8110156121f25760008160018111156121345761213461392b565b9050600081600181111561214a5761214a61392b565b0361215557506121e0565b60018160018111156121695761216961392b565b036121c357608083015151516000036121955760405163c3b2798b60e01b815260040160405180910390fd5b8260800151602001516000036121be576040516392fb9a3560e01b815260040160405180910390fd5b6121de565b8060405163d2277d4960e01b81526004016112b59190613ae9565b505b806121ea81613a82565b91505061210e565b508060400151516000036122195760405163e182473360e01b815260040160405180910390fd5b50565b6000826122298584612766565b14949350505050565b6000600161223e61196b565b600481111561224f5761224f61392b565b146122765761225c61196b565b60405163049cab4960e51b81526004016112b59190613941565b816000036122975760405163502e1c2960e01b815260040160405180910390fd5b6122c985858585601460008a6001600160a01b03166001600160a01b03168152602001908152602001600020546127b3565b601380546001810182556000919091527f66de8ffda797e3de9c05e8fc57b3bf0ec28a930d40b0d285d93c06501cf6a0900180546001600160a01b031916331790556040805186815260ff851660208201529081018390526001600160a01b038516907f2c9deb38f462962eadbd85a9d3a4120503ee091f1582eaaa10aa8c6797651d299060600160405180910390a25050506001600160a01b0316600090815260146020526040902054919050565b6000600361238561196b565b60048111156123965761239661392b565b146123bd576123a361196b565b604051632889531360e01b81526004016112b59190613941565b60075433600090815260116020526040902054036123f457600754604051632bd6d93960e21b81526004016112b591815260200190565b600854600d54600c546124079190613a9b565b0361242b576008546040516302217f5360e51b81526004016112b591815260200190565b600061243683611257565b600081815260106020526040902054909150600160a01b900460ff16156124735760405163baffc42360e01b8152600481018290526024016112b5565b600c805460018181019092557fdf6966c971051c3d54ec59162606531493a51404a002842f56009d7e5cf4a8c70182905560008281526010602090815260409182902086518154928801511515600160a01b026001600160a81b03199093166001600160a01b03909116179190911781559085015185928201906124f79082613b4b565b506060820151516002820180546001600160a01b0319166001600160a01b03909216919091179055608082015180518051600384019161253c91839160200190613050565b506020918201516001918201553360009081526011909252604082208054919450925061256a908490613a4d565b9091555050601280546001810182556000919091527fbb8a6a4669ba250d26cd7a459eca9d215f8307e33aebe50379bc5a3617ec34440180546001600160a01b031916339081179091556040805183815260208101929092527fcd423cc1203c0af96b9b3d68d73b3064a69de2d14450bb7181c5e5df2132b358910160405180910390a192915050565b600a54156127075760006064600b54606461260f9190613a9b565b6126199034613c0a565b6126239190613c21565b905080156126975761264973dc652c746a8f85e18ce632d97c6118e8a52fa73882612a38565b6040805173dc652c746a8f85e18ce632d97c6118e8a52fa7388152602081018390527fdf20fd1e76bc69d672e4814fafb2c449bba3a5369d8359adf9e05e6fde87b056910160405180910390a15b60006126a38234613a9b565b90508015612704576003546126c1906001600160a01b031682612a38565b600354604080516001600160a01b039092168252602082018390527fdf20fd1e76bc69d672e4814fafb2c449bba3a5369d8359adf9e05e6fde87b056910161203c565b50505b565b60005b8181101561103257600083838381811061272857612728613a6c565b602090810292909201356000818152601990935260409092205491925061275190508282612b51565b5050808061275e90613a82565b91505061270c565b600081815b84518110156127ab576127978286838151811061278a5761278a613a6c565b6020026020010151612c82565b9150806127a381613a82565b91505061276b565b509392505050565b60008581526019602090815260408083206001600160a01b03881684526018909252909120546127e39083613a9b565b8311156128035760405163660fa07360e11b815260040160405180910390fd5b6001600160a01b038516600090815260038201602052604081205415801561284657506001600160a01b0386166000908152600383016020526040902060010154155b905060ff851661289e57815484908390600090612864908490613a4d565b90915550506001600160a01b038616600090815260038301602052604081208054869290612893908490613a4d565b9091555061292f9050565b60001960ff861601612916576009546001146128cd57604051639755958f60e01b815260040160405180910390fd5b838260000160010160008282546128e49190613a4d565b90915550506001600160a01b038616600090815260038301602052604081206001018054869290612893908490613a4d565b604051638eed55d160e01b815260040160405180910390fd5b801561296657600282018054600181018255600091825260209091200180546001600160a01b0319166001600160a01b0388161790555b6001600160a01b0386166000908152601860205260408120805486929061298e908490613a4d565b9250508190555083601760008282546129a79190613a4d565b90915550506009541580156129dc57507f00000000000000000000000000000000000000000000000000000000000000006001145b15612a2f57815460006129ef8683613a9b565b90508015612a0157612a018982612b51565b6000828152601a6020908152604082208054600181018255908352912001899055612a2c8183612cb4565b50505b50505050505050565b80471015612a885760405162461bcd60e51b815260206004820152601d60248201527f416464726573733a20696e73756666696369656e742062616c616e636500000060448201526064016112b5565b6000826001600160a01b03168260405160006040518083038185875af1925050503d8060008114612ad5576040519150601f19603f3d011682016040523d82523d6000602084013e612ada565b606091505b50509050806110325760405162461bcd60e51b815260206004820152603a60248201527f416464726573733a20756e61626c6520746f2073656e642076616c75652c207260448201527f6563697069656e74206d6179206861766520726576657274656400000000000060648201526084016112b5565b6000818152601a6020908152604080832080548251818502810185019093528083529192909190830182828015612ba757602002820191906000526020600020905b815481526020019060010190808311612b93575b5050505050905060005b81518110156114c75783828281518110612bcd57612bcd613a6c565b602002602001015103612c70578160018351612be99190613a9b565b81518110612bf957612bf9613a6c565b6020026020010151601a60008581526020019081526020016000208281548110612c2557612c25613a6c565b9060005260206000200181905550601a6000848152602001908152602001600020805480612c5557612c55613c43565b600190038181906000526020600020016000905590556114c7565b80612c7a81613a82565b915050612bb1565b6000818310612c9e576000828152602084905260409020612cad565b60008381526020839052604090205b9392505050565b60008054604080516020808402820181019092528281529192919082908490830182828015612d0257602002820191906000526020600020905b815481526020019060010190808311612cee575b5050505050905081600003612d46575050600080546001810182559080527f290decd9548b62a8d60345a988386fc84ba6bc95484008f6362f93160ef3e563015550565b80612d52600184613a9b565b81518110612d6257612d62613a6c565b6020026020010151831015612dd3577f00000000000000000000000000000000000000000000000000000000000000008203612d9e5750505050565b5050600080546001810182559080527f290decd9548b62a8d60345a988386fc84ba6bc95484008f6362f93160ef3e563015550565b6114c7848484846000805b83811015612e4857828181518110612df857612df8613a6c565b60200260200101518503612e0d5750506114c7565b828181518110612e1f57612e1f613a6c565b6020026020010151851115612e3657809150612e48565b80612e4081613a82565b915050612dde565b5060008086118015612e6657506000868152601a6020526040902054155b90506000818015612e8f575086848481518110612e8557612e85613a6c565b6020026020010151145b612fb657612e9e600186613a9b565b8314612f46576000612eb1846001613a4d565b90505b85811015612f445784612ec8600183613a9b565b81518110612ed857612ed8613a6c565b602002602001015160008281548110612ef357612ef3613a6c565b600091825260209091200155828015612f24575087858281518110612f1a57612f1a613a6c565b6020026020010151145b15612f325760019150612f44565b80612f3c81613a82565b915050612eb4565b505b80158015612f7357507f000000000000000000000000000000000000000000000000000000000000000085105b15612fb657600084612f86600188613a9b565b81518110612f9657612f96613a6c565b602090810291909101810151825460018101845560009384529190922001555b8560008481548110612fca57612fca613a6c565b60009182526020909120015550505050505050565b6040518060a0016040528060006001600160a01b0316815260200160001515815260200160608152602001613029604051806020016040528060006001600160a01b031681525090565b815260200161304b604051806040016040528060608152602001600081525090565b905290565b8280548282559060005260206000209081019282156130a5579160200282015b828111156130a557825182546001600160a01b0319166001600160a01b03909116178255602090920191600190910190613070565b506130b19291506130b5565b5090565b5b808211156130b157600081556001016130b6565b6000602082840312156130dc57600080fd5b5035919050565b6000815180845260005b81811015613109576020818501810151868301820152016130ed565b506000602082860101526020601f19601f83011685010191505092915050565b805160408084528151908401819052600091602091908201906060860190845b8181101561316e5783516001600160a01b031683529284019291840191600101613149565b505093820151949091019390935250919050565b600060018060a01b038088168352861515602084015260a060408401526131ac60a08401876130e3565b81865116606085015283810360808501526131c78186613129565b9998505050505050505050565b602081526000612cad60208301846130e3565b81518152602080830151908201526040810161133d565b600081518084526020808501945080840160005b8381101561322e57815187529582019590820190600101613212565b509495945050505050565b602081526000612cad60208301846131fe565b6001600160a01b038116811461221957600080fd5b60008083601f84011261327357600080fd5b5081356001600160401b0381111561328a57600080fd5b6020830191508360208260051b850101111561168257600080fd5b6000806000604084860312156132ba57600080fd5b83356132c58161324c565b925060208401356001600160401b038111156132e057600080fd5b6132ec86828701613261565b9497909650939450505050565b6020808252825182820181905260009190848201906040850190845b8181101561333a5783516001600160a01b031683529284019291840191600101613315565b50909695505050505050565b8035801515811461335657600080fd5b919050565b60008060008060006080868803121561337357600080fd5b853561337e8161324c565b94506020860135935060408601356001600160401b038111156133a057600080fd5b6133ac88828901613261565b90945092506133bf905060608701613346565b90509295509295909350565b803560ff8116811461335657600080fd5b60008060008060008060a087890312156133f557600080fd5b86359550613405602088016133cb565b9450604087013593506060870135925060808701356001600160401b0381111561342e57600080fd5b61343a89828a01613261565b979a9699509497509295939492505050565b634e487b7160e01b600052604160045260246000fd5b604080519081016001600160401b03811182821017156134845761348461344c565b60405290565b60405160a081016001600160401b03811182821017156134845761348461344c565b604051601f8201601f191681016001600160401b03811182821017156134d4576134d461344c565b604052919050565b6000602082840312156134ee57600080fd5b604051602081018181106001600160401b03821117156135105761351061344c565b60405290508082356135218161324c565b905292915050565b60006040828403121561353b57600080fd5b613543613462565b905081356001600160401b038082111561355c57600080fd5b818401915084601f83011261357057600080fd5b81356020828211156135845761358461344c565b8160051b92506135958184016134ac565b82815292840181019281810190888511156135af57600080fd5b948201945b848610156135d957853593506135c98461324c565b83825294820194908201906135b4565b808752505080860135818601525050505092915050565b600060a0828403121561360257600080fd5b61360a61348a565b905081356136178161324c565b81526020613626838201613346565b8183015260408301356001600160401b038082111561364457600080fd5b818501915085601f83011261365857600080fd5b81358181111561366a5761366a61344c565b61367c601f8201601f191685016134ac565b818152878583860101111561369057600080fd5b8185850186830137600085838301015280604087015250506136b586606087016134dc565b606085015260808501359250808311156136ce57600080fd5b50506136dc84828501613529565b60808301525092915050565b6000602082840312156136fa57600080fd5b81356001600160401b0381111561371057600080fd5b611963848285016135f0565b600060a0828403121561372e57600080fd5b50919050565b60006020828403121561374657600080fd5b81356001600160401b0381111561375c57600080fd5b6119638482850161371c565b6000604080835261377b818401866131fe565b83810360208581019190915285518083528682019282019060005b818110156137c3576137b383865180518252602090810151910152565b9383019391850191600101613796565b509098975050505050505050565b600080600080606085870312156137e757600080fd5b84356137f28161324c565b93506020850135925060408501356001600160401b0381111561381457600080fd5b61382087828801613261565b95989497509550505050565b60008060006060848603121561384157600080fd5b83359250613851602085016133cb565b9150604084013590509250925092565b6000806040838503121561387457600080fd5b8235915060208301356138868161324c565b809150509250929050565b600080604083850312156138a457600080fd5b50508035926020909101359150565b6000602082840312156138c557600080fd5b8135612cad8161324c565b6000806000604084860312156138e557600080fd5b83356001600160401b03808211156138fc57600080fd5b6139088783880161371c565b9450602086013591508082111561391e57600080fd5b506132ec86828701613261565b634e487b7160e01b600052602160045260246000fd5b60208101600583106139555761395561392b565b91905290565b60208152600060018060a01b03808451166020840152602084015115156040840152604084015160a0606085015261399660c08501826130e3565b90508160608601515116608085015260808501519150601f198482030160a085015261164b8183613129565b600080602083850312156139d557600080fd5b82356001600160401b038111156139eb57600080fd5b6139f785828601613261565b90969095509350505050565b600181811c90821680613a1757607f821691505b60208210810361372e57634e487b7160e01b600052602260045260246000fd5b634e487b7160e01b600052601160045260246000fd5b8082018082111561133d5761133d613a37565b600061133d36836135f0565b634e487b7160e01b600052603260045260246000fd5b600060018201613a9457613a94613a37565b5060010190565b8181038181111561133d5761133d613a37565b6020808252825482820181905260008481528281209092916040850190845b8181101561333a57835483526001938401939285019201613acd565b60208101600283106139555761395561392b565b601f82111561103257600081815260208120601f850160051c81016020861015613b245750805b601f850160051c820191505b81811015613b4357828155600101613b30565b505050505050565b81516001600160401b03811115613b6457613b6461344c565b613b7881613b728454613a03565b84613afd565b602080601f831160018114613bad5760008415613b955750858301515b600019600386901b1c1916600185901b178555613b43565b600085815260208120601f198616915b82811015613bdc57888601518255948401946001909101908401613bbd565b5085821015613bfa5787850151600019600388901b60f8161c191681555b5050505050600190811b01905550565b808202811582820484141761133d5761133d613a37565b600082613c3e57634e487b7160e01b600052601260045260246000fd5b500490565b634e487b7160e01b600052603160045260246000fdfea2646970667358221220ea1c4848b9c1795b2d0e8dab31076321ddf6c2a6d5b4b6862b68bca89a4563cc64736f6c63430008130033",
    "linkReferences": {}
  },
  "methodIdentifiers": {
    "AMOUNT_FOR_SUMBITTER_PROOF()": "347cf665",
    "JK_LABS_ADDRESS()": "eef18e17",
    "METADATAS_COUNT()": "4d24a67f",
    "addressSubmitterVerified(address)": "cb853950",
    "addressTotalCastVoteCounts(address)": "a1ac6cb2",
    "addressTotalVotes(address)": "dea5f6a6",
    "addressTotalVotesVerified(address)": "930de979",
    "addressesThatHaveVoted(uint256)": "50c4b616",
    "allProposalTotalVotes()": "50a5e524",
    "allProposalTotalVotesWithoutDeleted()": "d45a010b",
    "cancel()": "ea8a1af0",
    "canceled()": "3f9942ff",
    "castVote(uint256,uint8,uint256,uint256,bytes32[])": "419c533c",
    "castVoteWithoutProof(uint256,uint8,uint256)": "65f16263",
    "checkProof(address,uint256,bytes32[],bool)": "32763c22",
    "contestAddressTotalVotesCast(address)": "aec116b6",
    "contestDeadline()": "262e59e9",
    "contestStart()": "004114a8",
    "costToPropose()": "6ed815ad",
    "creator()": "02d05d3f",
    "deleteProposals(uint256[])": "f0a7db0a",
    "deletedProposalIds(uint256)": "05846cae",
    "downvotingAllowed()": "60506ff6",
    "forVotesToProposalIds(uint256,uint256)": "711effc8",
    "getAllAddressesThatHaveVoted()": "2c39805f",
    "getAllDeletedProposalIds()": "1242b737",
    "getAllProposalAuthors()": "946369b5",
    "getAllProposalIds()": "efa90d36",
    "getNumProposalsWithThisManyForVotes(uint256)": "9ba197af",
    "getOnlyProposalIdWithThisManyForVotes(uint256)": "b66d1da3",
    "getProposal(uint256)": "c7f758a8",
    "getProposalsWithThisManyForVotes(uint256)": "c9a1b6b2",
    "getRankIndex(uint256)": "5c7107d8",
    "getSortedRanks()": "6fd3636b",
    "hashProposal((address,bool,string,(address),(address[],uint256)))": "458da87d",
    "isOrIsBelowTiedRank(uint256)": "9174778c",
    "maxProposalCount()": "fb9bf8d4",
    "name()": "06fdde03",
    "numAllowedProposalSubmissions()": "832009af",
    "numSubmissions(address)": "75e509c5",
    "officialRewardsModule()": "785ddfe5",
    "percentageToCreator()": "edcd1be4",
    "prompt()": "7c65d711",
    "proposalAddressVotes(uint256,address)": "6e4eb810",
    "proposalAddressesHaveVoted(uint256)": "b323580d",
    "proposalAuthors(uint256)": "0aa25e44",
    "proposalIds(uint256)": "9b644a23",
    "proposalIsDeleted(uint256)": "f79c0172",
    "proposalVotes(uint256)": "544ffc9c",
    "proposalVotesStructs(uint256)": "070dc5d9",
    "proposals(uint256)": "013cf08b",
    "propose((address,bool,string,(address),(address[],uint256)),bytes32[])": "c0ffaa78",
    "proposeWithoutProof((address,bool,string,(address),(address[],uint256)))": "476f4d8a",
    "rankLimit()": "0414126a",
    "setOfficialRewardsModule(address)": "f4f3d7ec",
    "sortedRanks(uint256)": "325cc6d9",
    "sortingEnabled()": "366ecf5b",
    "state()": "c19d93fb",
    "submissionMerkleRoot()": "bddc1641",
    "totalVotesCast()": "7de418d5",
    "validateProposalData((address,bool,string,(address),(address[],uint256)))": "fb8ddab4",
    "verifyProposer(address,bytes32[])": "20b3e845",
    "verifyVoter(address,uint256,bytes32[])": "531bd812",
    "version()": "54fd4d50",
    "voteStart()": "e031535b",
    "votingDelay()": "3932abb1",
    "votingMerkleRoot()": "dd96a19d",
    "votingPeriod()": "02a251a3"
  },
  "id": 28
}