{
  "abi": [
    {
      "inputs": [
        {
          "internalType": "string",
          "name": "_name",
          "type": "string"
        },
        {
          "internalType": "string",
          "name": "_prompt",
          "type": "string"
        },
        {
          "internalType": "bytes32",
          "name": "_submissionMerkleRoot",
          "type": "bytes32"
        },
        {
          "internalType": "bytes32",
          "name": "_votingMerkleRoot",
          "type": "bytes32"
        },
        {
          "internalType": "uint256[]",
          "name": "_constructorIntParams",
          "type": "uint256[]"
        }
      ],
      "stateMutability": "nonpayable",
      "type": "constructor"
    },
    {
      "inputs": [],
      "name": "AddressNotPermissionedToSubmit",
      "type": "error"
    },
    {
      "inputs": [
        {
          "internalType": "address",
          "name": "author",
          "type": "address"
        },
        {
          "internalType": "address",
          "name": "sender",
          "type": "address"
        }
      ],
      "name": "AuthorIsNotSender",
      "type": "error"
    },
    {
      "inputs": [],
      "name": "CannotCancelACompletedContest",
      "type": "error"
    },
    {
      "inputs": [],
      "name": "CannotDeleteWhenCompleted",
      "type": "error"
    },
    {
      "inputs": [],
      "name": "CannotVoteOnDeletedProposal",
      "type": "error"
    },
    {
      "inputs": [],
      "name": "ContestAlreadyCancelled",
      "type": "error"
    },
    {
      "inputs": [
        {
          "internalType": "enum Governor.ContestState",
          "name": "currentState",
          "type": "uint8"
        }
      ],
      "name": "ContestMustBeActiveToVote",
      "type": "error"
    },
    {
      "inputs": [
        {
          "internalType": "enum Governor.ContestState",
          "name": "currentState",
          "type": "uint8"
        }
      ],
      "name": "ContestMustBeQueuedToPropose",
      "type": "error"
    },
    {
      "inputs": [
        {
          "internalType": "uint256",
          "name": "maxProposalCount",
          "type": "uint256"
        }
      ],
      "name": "ContestSubmissionLimitReached",
      "type": "error"
    },
    {
      "inputs": [],
      "name": "DownvotingNotEnabled",
      "type": "error"
    },
    {
      "inputs": [
        {
          "internalType": "uint256",
          "name": "proposalId",
          "type": "uint256"
        }
      ],
      "name": "DuplicateSubmission",
      "type": "error"
    },
    {
      "inputs": [],
      "name": "EmptyProposalDescription",
      "type": "error"
    },
    {
      "inputs": [
        {
          "internalType": "uint256",
          "name": "msgValue",
          "type": "uint256"
        },
        {
          "internalType": "uint256",
          "name": "costToPropose",
          "type": "uint256"
        }
      ],
      "name": "IncorrectCostToProposeSent",
      "type": "error"
    },
    {
      "inputs": [],
      "name": "IndexHasNotBeenPopulated",
      "type": "error"
    },
    {
      "inputs": [],
      "name": "InvalidVoteType",
      "type": "error"
    },
    {
      "inputs": [],
      "name": "MoreThanOneProposalWithThisManyVotes",
      "type": "error"
    },
    {
      "inputs": [],
      "name": "NeedAtLeastOneVoteToVote",
      "type": "error"
    },
    {
      "inputs": [],
      "name": "NeedToSubmitWithProofFirst",
      "type": "error"
    },
    {
      "inputs": [],
      "name": "NeedToVoteWithProofFirst",
      "type": "error"
    },
    {
      "inputs": [],
      "name": "NotEnoughVotesLeft",
      "type": "error"
    },
    {
      "inputs": [],
      "name": "NotInMerkle",
      "type": "error"
    },
    {
      "inputs": [],
      "name": "OnlyCreatorCanDelete",
      "type": "error"
    },
    {
      "inputs": [],
      "name": "OnlyCreatorCanSetRewardsModule",
      "type": "error"
    },
    {
      "inputs": [
        {
          "internalType": "uint256",
          "name": "failedToDeleteCommentId",
          "type": "uint256"
        }
      ],
      "name": "OnlyCreatorOrAuthorCanDeleteComments",
      "type": "error"
    },
    {
      "inputs": [],
      "name": "OnlyJkLabsOrCreatorCanCancel",
      "type": "error"
    },
    {
      "inputs": [],
      "name": "RankCannotBeZero",
      "type": "error"
    },
    {
      "inputs": [],
      "name": "RankIsNotInSortedRanks",
      "type": "error"
    },
    {
      "inputs": [
        {
          "internalType": "uint256",
          "name": "numAllowedProposalSubmissions",
          "type": "uint256"
        }
      ],
      "name": "SenderSubmissionLimitReached",
      "type": "error"
    },
    {
      "inputs": [
        {
          "internalType": "enum Governor.Metadatas",
          "name": "unexpectedMetadata",
          "type": "uint8"
        }
      ],
      "name": "UnexpectedMetadata",
      "type": "error"
    },
    {
      "inputs": [],
      "name": "ZeroSignersInSafeMetadata",
      "type": "error"
    },
    {
      "inputs": [],
      "name": "ZeroThresholdInSafeMetadata",
      "type": "error"
    },
    {
      "anonymous": false,
      "inputs": [
        {
          "indexed": false,
          "internalType": "uint256",
          "name": "commentId",
          "type": "uint256"
        }
      ],
      "name": "CommentCreated",
      "type": "event"
    },
    {
      "anonymous": false,
      "inputs": [
        {
          "indexed": false,
          "internalType": "uint256[]",
          "name": "commentIds",
          "type": "uint256[]"
        }
      ],
      "name": "CommentsDeleted",
      "type": "event"
    },
    {
      "anonymous": false,
      "inputs": [],
      "name": "ContestCanceled",
      "type": "event"
    },
    {
      "anonymous": false,
      "inputs": [
        {
          "indexed": false,
          "internalType": "string",
          "name": "name",
          "type": "string"
        },
        {
          "indexed": false,
          "internalType": "address",
          "name": "creator",
          "type": "address"
        }
      ],
      "name": "JokeraceCreated",
      "type": "event"
    },
    {
      "anonymous": false,
      "inputs": [
        {
          "indexed": false,
          "internalType": "contract RewardsModule",
          "name": "oldOfficialRewardsModule",
          "type": "address"
        },
        {
          "indexed": false,
          "internalType": "contract RewardsModule",
          "name": "newOfficialRewardsModule",
          "type": "address"
        }
      ],
      "name": "OfficialRewardsModuleSet",
      "type": "event"
    },
    {
      "anonymous": false,
      "inputs": [
        {
          "indexed": false,
          "internalType": "address",
          "name": "to",
          "type": "address"
        },
        {
          "indexed": false,
          "internalType": "uint256",
          "name": "amount",
          "type": "uint256"
        }
      ],
      "name": "PaymentReleased",
      "type": "event"
    },
    {
      "anonymous": false,
      "inputs": [
        {
          "indexed": false,
          "internalType": "uint256",
          "name": "proposalId",
          "type": "uint256"
        },
        {
          "indexed": false,
          "internalType": "address",
          "name": "proposer",
          "type": "address"
        }
      ],
      "name": "ProposalCreated",
      "type": "event"
    },
    {
      "anonymous": false,
      "inputs": [
        {
          "indexed": false,
          "internalType": "uint256[]",
          "name": "proposalIds",
          "type": "uint256[]"
        }
      ],
      "name": "ProposalsDeleted",
      "type": "event"
    },
    {
      "anonymous": false,
      "inputs": [
        {
          "indexed": true,
          "internalType": "address",
          "name": "voter",
          "type": "address"
        },
        {
          "indexed": false,
          "internalType": "uint256",
          "name": "proposalId",
          "type": "uint256"
        },
        {
          "indexed": false,
          "internalType": "uint8",
          "name": "support",
          "type": "uint8"
        },
        {
          "indexed": false,
          "internalType": "uint256",
          "name": "numVotes",
          "type": "uint256"
        }
      ],
      "name": "VoteCast",
      "type": "event"
    },
    {
      "inputs": [],
      "name": "AMOUNT_FOR_SUMBITTER_PROOF",
      "outputs": [
        {
          "internalType": "uint256",
          "name": "",
          "type": "uint256"
        }
      ],
      "stateMutability": "view",
      "type": "function"
    },
    {
      "inputs": [],
      "name": "JK_LABS_ADDRESS",
      "outputs": [
        {
          "internalType": "address",
          "name": "",
          "type": "address"
        }
      ],
      "stateMutability": "view",
      "type": "function"
    },
    {
      "inputs": [],
      "name": "METADATAS_COUNT",
      "outputs": [
        {
          "internalType": "uint256",
          "name": "",
          "type": "uint256"
        }
      ],
      "stateMutability": "view",
      "type": "function"
    },
    {
      "inputs": [
        {
          "internalType": "address",
          "name": "",
          "type": "address"
        }
      ],
      "name": "addressSubmitterVerified",
      "outputs": [
        {
          "internalType": "bool",
          "name": "",
          "type": "bool"
        }
      ],
      "stateMutability": "view",
      "type": "function"
    },
    {
      "inputs": [
        {
          "internalType": "address",
          "name": "",
          "type": "address"
        }
      ],
      "name": "addressTotalCastVoteCounts",
      "outputs": [
        {
          "internalType": "uint256",
          "name": "",
          "type": "uint256"
        }
      ],
      "stateMutability": "view",
      "type": "function"
    },
    {
      "inputs": [
        {
          "internalType": "address",
          "name": "",
          "type": "address"
        }
      ],
      "name": "addressTotalVotes",
      "outputs": [
        {
          "internalType": "uint256",
          "name": "",
          "type": "uint256"
        }
      ],
      "stateMutability": "view",
      "type": "function"
    },
    {
      "inputs": [
        {
          "internalType": "address",
          "name": "",
          "type": "address"
        }
      ],
      "name": "addressTotalVotesVerified",
      "outputs": [
        {
          "internalType": "bool",
          "name": "",
          "type": "bool"
        }
      ],
      "stateMutability": "view",
      "type": "function"
    },
    {
      "inputs": [
        {
          "internalType": "uint256",
          "name": "",
          "type": "uint256"
        }
      ],
      "name": "addressesThatHaveVoted",
      "outputs": [
        {
          "internalType": "address",
          "name": "",
          "type": "address"
        }
      ],
      "stateMutability": "view",
      "type": "function"
    },
    {
      "inputs": [],
      "name": "allProposalTotalVotes",
      "outputs": [
        {
          "internalType": "uint256[]",
          "name": "proposalIdsReturn",
          "type": "uint256[]"
        },
        {
          "components": [
            {
              "internalType": "uint256",
              "name": "forVotes",
              "type": "uint256"
            },
            {
              "internalType": "uint256",
              "name": "againstVotes",
              "type": "uint256"
            }
          ],
          "internalType": "struct GovernorCountingSimple.VoteCounts[]",
          "name": "proposalVoteCountsArrayReturn",
          "type": "tuple[]"
        }
      ],
      "stateMutability": "view",
      "type": "function"
    },
    {
      "inputs": [],
      "name": "allProposalTotalVotesWithoutDeleted",
      "outputs": [
        {
          "internalType": "uint256[]",
          "name": "proposalIdsReturn",
          "type": "uint256[]"
        },
        {
          "components": [
            {
              "internalType": "uint256",
              "name": "forVotes",
              "type": "uint256"
            },
            {
              "internalType": "uint256",
              "name": "againstVotes",
              "type": "uint256"
            }
          ],
          "internalType": "struct GovernorCountingSimple.VoteCounts[]",
          "name": "proposalVoteCountsArrayReturn",
          "type": "tuple[]"
        }
      ],
      "stateMutability": "view",
      "type": "function"
    },
    {
      "inputs": [],
      "name": "cancel",
      "outputs": [],
      "stateMutability": "nonpayable",
      "type": "function"
    },
    {
      "inputs": [],
      "name": "canceled",
      "outputs": [
        {
          "internalType": "bool",
          "name": "",
          "type": "bool"
        }
      ],
      "stateMutability": "view",
      "type": "function"
    },
    {
      "inputs": [
        {
          "internalType": "uint256",
          "name": "proposalId",
          "type": "uint256"
        },
        {
          "internalType": "uint8",
          "name": "support",
          "type": "uint8"
        },
        {
          "internalType": "uint256",
          "name": "totalVotes",
          "type": "uint256"
        },
        {
          "internalType": "uint256",
          "name": "numVotes",
          "type": "uint256"
        },
        {
          "internalType": "bytes32[]",
          "name": "proof",
          "type": "bytes32[]"
        }
      ],
      "name": "castVote",
      "outputs": [
        {
          "internalType": "uint256",
          "name": "",
          "type": "uint256"
        }
      ],
      "stateMutability": "nonpayable",
      "type": "function"
    },
    {
      "inputs": [
        {
          "internalType": "uint256",
          "name": "proposalId",
          "type": "uint256"
        },
        {
          "internalType": "uint8",
          "name": "support",
          "type": "uint8"
        },
        {
          "internalType": "uint256",
          "name": "numVotes",
          "type": "uint256"
        }
      ],
      "name": "castVoteWithoutProof",
      "outputs": [
        {
          "internalType": "uint256",
          "name": "",
          "type": "uint256"
        }
      ],
      "stateMutability": "nonpayable",
      "type": "function"
    },
    {
      "inputs": [
        {
          "internalType": "address",
          "name": "addressToCheck",
          "type": "address"
        },
        {
          "internalType": "uint256",
          "name": "amount",
          "type": "uint256"
        },
        {
          "internalType": "bytes32[]",
          "name": "proof",
          "type": "bytes32[]"
        },
        {
          "internalType": "bool",
          "name": "voting",
          "type": "bool"
        }
      ],
      "name": "checkProof",
      "outputs": [
        {
          "internalType": "bool",
          "name": "verified",
          "type": "bool"
        }
      ],
      "stateMutability": "view",
      "type": "function"
    },
    {
      "inputs": [
        {
          "internalType": "uint256",
          "name": "proposalId",
          "type": "uint256"
        },
        {
          "internalType": "string",
          "name": "commentContent",
          "type": "string"
        }
      ],
      "name": "comment",
      "outputs": [
        {
          "internalType": "uint256",
          "name": "",
          "type": "uint256"
        }
      ],
      "stateMutability": "nonpayable",
      "type": "function"
    },
    {
      "inputs": [
        {
          "internalType": "uint256",
          "name": "",
          "type": "uint256"
        }
      ],
      "name": "commentIds",
      "outputs": [
        {
          "internalType": "uint256",
          "name": "",
          "type": "uint256"
        }
      ],
      "stateMutability": "view",
      "type": "function"
    },
    {
      "inputs": [
        {
          "internalType": "uint256",
          "name": "",
          "type": "uint256"
        }
      ],
      "name": "commentIsDeleted",
      "outputs": [
        {
          "internalType": "bool",
          "name": "",
          "type": "bool"
        }
      ],
      "stateMutability": "view",
      "type": "function"
    },
    {
      "inputs": [
        {
          "internalType": "uint256",
          "name": "",
          "type": "uint256"
        }
      ],
      "name": "comments",
      "outputs": [
        {
          "internalType": "address",
          "name": "author",
          "type": "address"
        },
        {
          "internalType": "uint256",
          "name": "timestamp",
          "type": "uint256"
        },
        {
          "internalType": "uint256",
          "name": "proposalId",
          "type": "uint256"
        },
        {
          "internalType": "string",
          "name": "commentContent",
          "type": "string"
        }
      ],
      "stateMutability": "view",
      "type": "function"
    },
    {
      "inputs": [
        {
          "internalType": "address",
          "name": "userAddress",
          "type": "address"
        }
      ],
      "name": "contestAddressTotalVotesCast",
      "outputs": [
        {
          "internalType": "uint256",
          "name": "userTotalVotesCast",
          "type": "uint256"
        }
      ],
      "stateMutability": "view",
      "type": "function"
    },
    {
      "inputs": [],
      "name": "contestDeadline",
      "outputs": [
        {
          "internalType": "uint256",
          "name": "",
          "type": "uint256"
        }
      ],
      "stateMutability": "view",
      "type": "function"
    },
    {
      "inputs": [],
      "name": "contestStart",
      "outputs": [
        {
          "internalType": "uint256",
          "name": "",
          "type": "uint256"
        }
      ],
      "stateMutability": "view",
      "type": "function"
    },
    {
      "inputs": [],
      "name": "costToPropose",
      "outputs": [
        {
          "internalType": "uint256",
          "name": "",
          "type": "uint256"
        }
      ],
      "stateMutability": "view",
      "type": "function"
    },
    {
      "inputs": [],
      "name": "creator",
      "outputs": [
        {
          "internalType": "address",
          "name": "",
          "type": "address"
        }
      ],
      "stateMutability": "view",
      "type": "function"
    },
    {
      "inputs": [
        {
          "internalType": "uint256[]",
          "name": "commentIdsParam",
          "type": "uint256[]"
        }
      ],
      "name": "deleteComments",
      "outputs": [],
      "stateMutability": "nonpayable",
      "type": "function"
    },
    {
      "inputs": [
        {
          "internalType": "uint256[]",
          "name": "proposalIdsToDelete",
          "type": "uint256[]"
        }
      ],
      "name": "deleteProposals",
      "outputs": [],
      "stateMutability": "nonpayable",
      "type": "function"
    },
    {
      "inputs": [
        {
          "internalType": "uint256",
          "name": "",
          "type": "uint256"
        }
      ],
      "name": "deletedCommentIds",
      "outputs": [
        {
          "internalType": "uint256",
          "name": "",
          "type": "uint256"
        }
      ],
      "stateMutability": "view",
      "type": "function"
    },
    {
      "inputs": [
        {
          "internalType": "uint256",
          "name": "",
          "type": "uint256"
        }
      ],
      "name": "deletedProposalIds",
      "outputs": [
        {
          "internalType": "uint256",
          "name": "",
          "type": "uint256"
        }
      ],
      "stateMutability": "view",
      "type": "function"
    },
    {
      "inputs": [],
      "name": "downvotingAllowed",
      "outputs": [
        {
          "internalType": "uint256",
          "name": "",
          "type": "uint256"
        }
      ],
      "stateMutability": "view",
      "type": "function"
    },
    {
      "inputs": [
        {
          "internalType": "uint256",
          "name": "",
          "type": "uint256"
        },
        {
          "internalType": "uint256",
          "name": "",
          "type": "uint256"
        }
      ],
      "name": "forVotesToProposalIds",
      "outputs": [
        {
          "internalType": "uint256",
          "name": "",
          "type": "uint256"
        }
      ],
      "stateMutability": "view",
      "type": "function"
    },
    {
      "inputs": [],
      "name": "getAllAddressesThatHaveVoted",
      "outputs": [
        {
          "internalType": "address[]",
          "name": "",
          "type": "address[]"
        }
      ],
      "stateMutability": "view",
      "type": "function"
    },
    {
      "inputs": [],
      "name": "getAllCommentIds",
      "outputs": [
        {
          "internalType": "uint256[]",
          "name": "",
          "type": "uint256[]"
        }
      ],
      "stateMutability": "view",
      "type": "function"
    },
    {
      "inputs": [],
      "name": "getAllDeletedCommentIds",
      "outputs": [
        {
          "internalType": "uint256[]",
          "name": "",
          "type": "uint256[]"
        }
      ],
      "stateMutability": "view",
      "type": "function"
    },
    {
      "inputs": [],
      "name": "getAllDeletedProposalIds",
      "outputs": [
        {
          "internalType": "uint256[]",
          "name": "",
          "type": "uint256[]"
        }
      ],
      "stateMutability": "view",
      "type": "function"
    },
    {
      "inputs": [],
      "name": "getAllProposalAuthors",
      "outputs": [
        {
          "internalType": "address[]",
          "name": "",
          "type": "address[]"
        }
      ],
      "stateMutability": "view",
      "type": "function"
    },
    {
      "inputs": [],
      "name": "getAllProposalIds",
      "outputs": [
        {
          "internalType": "uint256[]",
          "name": "",
          "type": "uint256[]"
        }
      ],
      "stateMutability": "view",
      "type": "function"
    },
    {
      "inputs": [
        {
          "internalType": "uint256",
          "name": "commentId",
          "type": "uint256"
        }
      ],
      "name": "getComment",
      "outputs": [
        {
          "components": [
            {
              "internalType": "address",
              "name": "author",
              "type": "address"
            },
            {
              "internalType": "uint256",
              "name": "timestamp",
              "type": "uint256"
            },
            {
              "internalType": "uint256",
              "name": "proposalId",
              "type": "uint256"
            },
            {
              "internalType": "string",
              "name": "commentContent",
              "type": "string"
            }
          ],
          "internalType": "struct GovernorEngagement.CommentCore",
          "name": "",
          "type": "tuple"
        }
      ],
      "stateMutability": "view",
      "type": "function"
    },
    {
      "inputs": [
        {
          "internalType": "uint256",
          "name": "forVotes",
          "type": "uint256"
        }
      ],
      "name": "getNumProposalsWithThisManyForVotes",
      "outputs": [
        {
          "internalType": "uint256",
          "name": "count",
          "type": "uint256"
        }
      ],
      "stateMutability": "view",
      "type": "function"
    },
    {
      "inputs": [
        {
          "internalType": "uint256",
          "name": "forVotes",
          "type": "uint256"
        }
      ],
      "name": "getOnlyProposalIdWithThisManyForVotes",
      "outputs": [
        {
          "internalType": "uint256",
          "name": "proposalId",
          "type": "uint256"
        }
      ],
      "stateMutability": "view",
      "type": "function"
    },
    {
      "inputs": [
        {
          "internalType": "uint256",
          "name": "proposalId",
          "type": "uint256"
        }
      ],
      "name": "getProposal",
      "outputs": [
        {
          "components": [
            {
              "internalType": "address",
              "name": "author",
              "type": "address"
            },
            {
              "internalType": "bool",
              "name": "exists",
              "type": "bool"
            },
            {
              "internalType": "string",
              "name": "description",
              "type": "string"
            },
            {
              "components": [
                {
                  "internalType": "address",
                  "name": "targetAddress",
                  "type": "address"
                }
              ],
              "internalType": "struct Governor.TargetMetadata",
              "name": "targetMetadata",
              "type": "tuple"
            },
            {
              "components": [
                {
                  "internalType": "address[]",
                  "name": "signers",
                  "type": "address[]"
                },
                {
                  "internalType": "uint256",
                  "name": "threshold",
                  "type": "uint256"
                }
              ],
              "internalType": "struct Governor.SafeMetadata",
              "name": "safeMetadata",
              "type": "tuple"
            }
          ],
          "internalType": "struct Governor.ProposalCore",
          "name": "",
          "type": "tuple"
        }
      ],
      "stateMutability": "view",
      "type": "function"
    },
    {
      "inputs": [
        {
          "internalType": "uint256",
          "name": "proposalId",
          "type": "uint256"
        }
      ],
      "name": "getProposalComments",
      "outputs": [
        {
          "internalType": "uint256[]",
          "name": "",
          "type": "uint256[]"
        }
      ],
      "stateMutability": "view",
      "type": "function"
    },
    {
      "inputs": [
        {
          "internalType": "uint256",
          "name": "forVotes",
          "type": "uint256"
        }
      ],
      "name": "getProposalsWithThisManyForVotes",
      "outputs": [
        {
          "internalType": "uint256[]",
          "name": "proposalsWithThisManyForVotes",
          "type": "uint256[]"
        }
      ],
      "stateMutability": "view",
      "type": "function"
    },
    {
      "inputs": [
        {
          "internalType": "uint256",
          "name": "rank",
          "type": "uint256"
        }
      ],
      "name": "getRankIndex",
      "outputs": [
        {
          "internalType": "uint256",
          "name": "rankIndex",
          "type": "uint256"
        }
      ],
      "stateMutability": "view",
      "type": "function"
    },
    {
      "inputs": [],
      "name": "getSortedRanks",
      "outputs": [
        {
          "internalType": "uint256[]",
          "name": "sortedRanksArray",
          "type": "uint256[]"
        }
      ],
      "stateMutability": "view",
      "type": "function"
    },
    {
      "inputs": [
        {
          "components": [
            {
              "internalType": "address",
              "name": "author",
              "type": "address"
            },
            {
              "internalType": "uint256",
              "name": "timestamp",
              "type": "uint256"
            },
            {
              "internalType": "uint256",
              "name": "proposalId",
              "type": "uint256"
            },
            {
              "internalType": "string",
              "name": "commentContent",
              "type": "string"
            }
          ],
          "internalType": "struct GovernorEngagement.CommentCore",
          "name": "commentObj",
          "type": "tuple"
        }
      ],
      "name": "hashComment",
      "outputs": [
        {
          "internalType": "uint256",
          "name": "",
          "type": "uint256"
        }
      ],
      "stateMutability": "pure",
      "type": "function"
    },
    {
      "inputs": [
        {
          "components": [
            {
              "internalType": "address",
              "name": "author",
              "type": "address"
            },
            {
              "internalType": "bool",
              "name": "exists",
              "type": "bool"
            },
            {
              "internalType": "string",
              "name": "description",
              "type": "string"
            },
            {
              "components": [
                {
                  "internalType": "address",
                  "name": "targetAddress",
                  "type": "address"
                }
              ],
              "internalType": "struct Governor.TargetMetadata",
              "name": "targetMetadata",
              "type": "tuple"
            },
            {
              "components": [
                {
                  "internalType": "address[]",
                  "name": "signers",
                  "type": "address[]"
                },
                {
                  "internalType": "uint256",
                  "name": "threshold",
                  "type": "uint256"
                }
              ],
              "internalType": "struct Governor.SafeMetadata",
              "name": "safeMetadata",
              "type": "tuple"
            }
          ],
          "internalType": "struct Governor.ProposalCore",
          "name": "proposal",
          "type": "tuple"
        }
      ],
      "name": "hashProposal",
      "outputs": [
        {
          "internalType": "uint256",
          "name": "",
          "type": "uint256"
        }
      ],
      "stateMutability": "pure",
      "type": "function"
    },
    {
      "inputs": [
        {
          "internalType": "uint256",
          "name": "commentId",
          "type": "uint256"
        }
      ],
      "name": "isCommentDeleted",
      "outputs": [
        {
          "internalType": "bool",
          "name": "",
          "type": "bool"
        }
      ],
      "stateMutability": "view",
      "type": "function"
    },
    {
      "inputs": [
        {
          "internalType": "uint256",
          "name": "idx",
          "type": "uint256"
        }
      ],
      "name": "isOrIsBelowTiedRank",
      "outputs": [
        {
          "internalType": "bool",
          "name": "atOrBelowTiedRank",
          "type": "bool"
        }
      ],
      "stateMutability": "view",
      "type": "function"
    },
    {
      "inputs": [],
      "name": "maxProposalCount",
      "outputs": [
        {
          "internalType": "uint256",
          "name": "",
          "type": "uint256"
        }
      ],
      "stateMutability": "view",
      "type": "function"
    },
    {
      "inputs": [],
      "name": "name",
      "outputs": [
        {
          "internalType": "string",
          "name": "",
          "type": "string"
        }
      ],
      "stateMutability": "view",
      "type": "function"
    },
    {
      "inputs": [],
      "name": "numAllowedProposalSubmissions",
      "outputs": [
        {
          "internalType": "uint256",
          "name": "",
          "type": "uint256"
        }
      ],
      "stateMutability": "view",
      "type": "function"
    },
    {
      "inputs": [
        {
          "internalType": "address",
          "name": "",
          "type": "address"
        }
      ],
      "name": "numSubmissions",
      "outputs": [
        {
          "internalType": "uint256",
          "name": "",
          "type": "uint256"
        }
      ],
      "stateMutability": "view",
      "type": "function"
    },
    {
      "inputs": [],
      "name": "officialRewardsModule",
      "outputs": [
        {
          "internalType": "contract RewardsModule",
          "name": "",
          "type": "address"
        }
      ],
      "stateMutability": "view",
      "type": "function"
    },
    {
      "inputs": [],
      "name": "percentageToCreator",
      "outputs": [
        {
          "internalType": "uint256",
          "name": "",
          "type": "uint256"
        }
      ],
      "stateMutability": "view",
      "type": "function"
    },
    {
      "inputs": [],
      "name": "prompt",
      "outputs": [
        {
          "internalType": "string",
          "name": "",
          "type": "string"
        }
      ],
      "stateMutability": "view",
      "type": "function"
    },
    {
      "inputs": [
        {
          "internalType": "uint256",
          "name": "proposalId",
          "type": "uint256"
        },
        {
          "internalType": "address",
          "name": "userAddress",
          "type": "address"
        }
      ],
      "name": "proposalAddressVotes",
      "outputs": [
        {
          "internalType": "uint256",
          "name": "forVotes",
          "type": "uint256"
        },
        {
          "internalType": "uint256",
          "name": "againstVotes",
          "type": "uint256"
        }
      ],
      "stateMutability": "view",
      "type": "function"
    },
    {
      "inputs": [
        {
          "internalType": "uint256",
          "name": "proposalId",
          "type": "uint256"
        }
      ],
      "name": "proposalAddressesHaveVoted",
      "outputs": [
        {
          "internalType": "address[]",
          "name": "",
          "type": "address[]"
        }
      ],
      "stateMutability": "view",
      "type": "function"
    },
    {
      "inputs": [
        {
          "internalType": "uint256",
          "name": "",
          "type": "uint256"
        }
      ],
      "name": "proposalAuthors",
      "outputs": [
        {
          "internalType": "address",
          "name": "",
          "type": "address"
        }
      ],
      "stateMutability": "view",
      "type": "function"
    },
    {
      "inputs": [
        {
          "internalType": "uint256",
          "name": "",
          "type": "uint256"
        },
        {
          "internalType": "uint256",
          "name": "",
          "type": "uint256"
        }
      ],
      "name": "proposalComments",
      "outputs": [
        {
          "internalType": "uint256",
          "name": "",
          "type": "uint256"
        }
      ],
      "stateMutability": "view",
      "type": "function"
    },
    {
      "inputs": [
        {
          "internalType": "uint256",
          "name": "",
          "type": "uint256"
        }
      ],
      "name": "proposalIds",
      "outputs": [
        {
          "internalType": "uint256",
          "name": "",
          "type": "uint256"
        }
      ],
      "stateMutability": "view",
      "type": "function"
    },
    {
      "inputs": [
        {
          "internalType": "uint256",
          "name": "",
          "type": "uint256"
        }
      ],
      "name": "proposalIsDeleted",
      "outputs": [
        {
          "internalType": "bool",
          "name": "",
          "type": "bool"
        }
      ],
      "stateMutability": "view",
      "type": "function"
    },
    {
      "inputs": [
        {
          "internalType": "uint256",
          "name": "proposalId",
          "type": "uint256"
        }
      ],
      "name": "proposalVotes",
      "outputs": [
        {
          "internalType": "uint256",
          "name": "forVotes",
          "type": "uint256"
        },
        {
          "internalType": "uint256",
          "name": "againstVotes",
          "type": "uint256"
        }
      ],
      "stateMutability": "view",
      "type": "function"
    },
    {
      "inputs": [
        {
          "internalType": "uint256",
          "name": "",
          "type": "uint256"
        }
      ],
      "name": "proposalVotesStructs",
      "outputs": [
        {
          "components": [
            {
              "internalType": "uint256",
              "name": "forVotes",
              "type": "uint256"
            },
            {
              "internalType": "uint256",
              "name": "againstVotes",
              "type": "uint256"
            }
          ],
          "internalType": "struct GovernorCountingSimple.VoteCounts",
          "name": "proposalVoteCounts",
          "type": "tuple"
        }
      ],
      "stateMutability": "view",
      "type": "function"
    },
    {
      "inputs": [
        {
          "internalType": "uint256",
          "name": "",
          "type": "uint256"
        }
      ],
      "name": "proposals",
      "outputs": [
        {
          "internalType": "address",
          "name": "author",
          "type": "address"
        },
        {
          "internalType": "bool",
          "name": "exists",
          "type": "bool"
        },
        {
          "internalType": "string",
          "name": "description",
          "type": "string"
        },
        {
          "components": [
            {
              "internalType": "address",
              "name": "targetAddress",
              "type": "address"
            }
          ],
          "internalType": "struct Governor.TargetMetadata",
          "name": "targetMetadata",
          "type": "tuple"
        },
        {
          "components": [
            {
              "internalType": "address[]",
              "name": "signers",
              "type": "address[]"
            },
            {
              "internalType": "uint256",
              "name": "threshold",
              "type": "uint256"
            }
          ],
          "internalType": "struct Governor.SafeMetadata",
          "name": "safeMetadata",
          "type": "tuple"
        }
      ],
      "stateMutability": "view",
      "type": "function"
    },
    {
      "inputs": [
        {
          "components": [
            {
              "internalType": "address",
              "name": "author",
              "type": "address"
            },
            {
              "internalType": "bool",
              "name": "exists",
              "type": "bool"
            },
            {
              "internalType": "string",
              "name": "description",
              "type": "string"
            },
            {
              "components": [
                {
                  "internalType": "address",
                  "name": "targetAddress",
                  "type": "address"
                }
              ],
              "internalType": "struct Governor.TargetMetadata",
              "name": "targetMetadata",
              "type": "tuple"
            },
            {
              "components": [
                {
                  "internalType": "address[]",
                  "name": "signers",
                  "type": "address[]"
                },
                {
                  "internalType": "uint256",
                  "name": "threshold",
                  "type": "uint256"
                }
              ],
              "internalType": "struct Governor.SafeMetadata",
              "name": "safeMetadata",
              "type": "tuple"
            }
          ],
          "internalType": "struct Governor.ProposalCore",
          "name": "proposal",
          "type": "tuple"
        },
        {
          "internalType": "bytes32[]",
          "name": "proof",
          "type": "bytes32[]"
        }
      ],
      "name": "propose",
      "outputs": [
        {
          "internalType": "uint256",
          "name": "",
          "type": "uint256"
        }
      ],
      "stateMutability": "payable",
      "type": "function"
    },
    {
      "inputs": [
        {
          "components": [
            {
              "internalType": "address",
              "name": "author",
              "type": "address"
            },
            {
              "internalType": "bool",
              "name": "exists",
              "type": "bool"
            },
            {
              "internalType": "string",
              "name": "description",
              "type": "string"
            },
            {
              "components": [
                {
                  "internalType": "address",
                  "name": "targetAddress",
                  "type": "address"
                }
              ],
              "internalType": "struct Governor.TargetMetadata",
              "name": "targetMetadata",
              "type": "tuple"
            },
            {
              "components": [
                {
                  "internalType": "address[]",
                  "name": "signers",
                  "type": "address[]"
                },
                {
                  "internalType": "uint256",
                  "name": "threshold",
                  "type": "uint256"
                }
              ],
              "internalType": "struct Governor.SafeMetadata",
              "name": "safeMetadata",
              "type": "tuple"
            }
          ],
          "internalType": "struct Governor.ProposalCore",
          "name": "proposal",
          "type": "tuple"
        }
      ],
      "name": "proposeWithoutProof",
      "outputs": [
        {
          "internalType": "uint256",
          "name": "",
          "type": "uint256"
        }
      ],
      "stateMutability": "payable",
      "type": "function"
    },
    {
      "inputs": [],
      "name": "rankLimit",
      "outputs": [
        {
          "internalType": "uint256",
          "name": "",
          "type": "uint256"
        }
      ],
      "stateMutability": "view",
      "type": "function"
    },
    {
      "inputs": [
        {
          "internalType": "contract RewardsModule",
          "name": "officialRewardsModule_",
          "type": "address"
        }
      ],
      "name": "setOfficialRewardsModule",
      "outputs": [],
      "stateMutability": "nonpayable",
      "type": "function"
    },
    {
      "inputs": [
        {
          "internalType": "uint256",
          "name": "",
          "type": "uint256"
        }
      ],
      "name": "sortedRanks",
      "outputs": [
        {
          "internalType": "uint256",
          "name": "",
          "type": "uint256"
        }
      ],
      "stateMutability": "view",
      "type": "function"
    },
    {
      "inputs": [],
      "name": "sortingEnabled",
      "outputs": [
        {
          "internalType": "uint256",
          "name": "",
          "type": "uint256"
        }
      ],
      "stateMutability": "view",
      "type": "function"
    },
    {
      "inputs": [],
      "name": "state",
      "outputs": [
        {
          "internalType": "enum Governor.ContestState",
          "name": "",
          "type": "uint8"
        }
      ],
      "stateMutability": "view",
      "type": "function"
    },
    {
      "inputs": [],
      "name": "submissionMerkleRoot",
      "outputs": [
        {
          "internalType": "bytes32",
          "name": "",
          "type": "bytes32"
        }
      ],
      "stateMutability": "view",
      "type": "function"
    },
    {
      "inputs": [],
      "name": "totalVotesCast",
      "outputs": [
        {
          "internalType": "uint256",
          "name": "",
          "type": "uint256"
        }
      ],
      "stateMutability": "view",
      "type": "function"
    },
    {
      "inputs": [
        {
          "components": [
            {
              "internalType": "address",
              "name": "author",
              "type": "address"
            },
            {
              "internalType": "bool",
              "name": "exists",
              "type": "bool"
            },
            {
              "internalType": "string",
              "name": "description",
              "type": "string"
            },
            {
              "components": [
                {
                  "internalType": "address",
                  "name": "targetAddress",
                  "type": "address"
                }
              ],
              "internalType": "struct Governor.TargetMetadata",
              "name": "targetMetadata",
              "type": "tuple"
            },
            {
              "components": [
                {
                  "internalType": "address[]",
                  "name": "signers",
                  "type": "address[]"
                },
                {
                  "internalType": "uint256",
                  "name": "threshold",
                  "type": "uint256"
                }
              ],
              "internalType": "struct Governor.SafeMetadata",
              "name": "safeMetadata",
              "type": "tuple"
            }
          ],
          "internalType": "struct Governor.ProposalCore",
          "name": "proposal",
          "type": "tuple"
        }
      ],
      "name": "validateProposalData",
      "outputs": [],
      "stateMutability": "view",
      "type": "function"
    },
    {
      "inputs": [
        {
          "internalType": "address",
          "name": "account",
          "type": "address"
        },
        {
          "internalType": "bytes32[]",
          "name": "proof",
          "type": "bytes32[]"
        }
      ],
      "name": "verifyProposer",
      "outputs": [],
      "stateMutability": "nonpayable",
      "type": "function"
    },
    {
      "inputs": [
        {
          "internalType": "address",
          "name": "account",
          "type": "address"
        },
        {
          "internalType": "uint256",
          "name": "totalVotes",
          "type": "uint256"
        },
        {
          "internalType": "bytes32[]",
          "name": "proof",
          "type": "bytes32[]"
        }
      ],
      "name": "verifyVoter",
      "outputs": [],
      "stateMutability": "nonpayable",
      "type": "function"
    },
    {
      "inputs": [],
      "name": "version",
      "outputs": [
        {
          "internalType": "string",
          "name": "",
          "type": "string"
        }
      ],
      "stateMutability": "pure",
      "type": "function"
    },
    {
      "inputs": [],
      "name": "voteStart",
      "outputs": [
        {
          "internalType": "uint256",
          "name": "",
          "type": "uint256"
        }
      ],
      "stateMutability": "view",
      "type": "function"
    },
    {
      "inputs": [],
      "name": "votingDelay",
      "outputs": [
        {
          "internalType": "uint256",
          "name": "",
          "type": "uint256"
        }
      ],
      "stateMutability": "view",
      "type": "function"
    },
    {
      "inputs": [],
      "name": "votingMerkleRoot",
      "outputs": [
        {
          "internalType": "bytes32",
          "name": "",
          "type": "bytes32"
        }
      ],
      "stateMutability": "view",
      "type": "function"
    },
    {
      "inputs": [],
      "name": "votingPeriod",
      "outputs": [
        {
          "internalType": "uint256",
          "name": "",
          "type": "uint256"
        }
      ],
      "stateMutability": "view",
      "type": "function"
    }
  ],
  "bytecode": {
    "object": "0x60806040523480156200001157600080fd5b5060405162004af238038062004af283398101604081905262000034916200030b565b84848484846000815181106200004e576200004e6200041c565b6020026020010151856001815181106200006c576200006c6200041c565b6020026020010151866002815181106200008a576200008a6200041c565b602002602001015187600381518110620000a857620000a86200041c565b602002602001015188600481518110620000c657620000c66200041c565b602002602001015189600581518110620000e457620000e46200041c565b60200260200101518a6006815181106200010257620001026200041c565b60200260200101518b6007815181106200012057620001206200041c565b602002602001015189898e6008815181106200014057620001406200041c565b60200260200101518f6009815181106200015e576200015e6200041c565b60209081029190910101516000919091556001556003919091556004556005620001898d82620004c1565b506006620001988c82620004c1565b50600780546001600160a01b0319163390811790915560088990556009889055600a879055600b869055600c859055600d849055600e839055600f8290556040517f1eae03a78f765227bc1e8574db32390cefa5b3c0a954017973e497e40a1237349162000209918f91906200058d565b60405180910390a15050505050505050505050505050505050620005d3565b634e487b7160e01b600052604160045260246000fd5b604051601f8201601f191681016001600160401b038111828210171562000269576200026962000228565b604052919050565b60005b838110156200028e57818101518382015260200162000274565b50506000910152565b600082601f830112620002a957600080fd5b81516001600160401b03811115620002c557620002c562000228565b620002da601f8201601f19166020016200023e565b818152846020838601011115620002f057600080fd5b6200030382602083016020870162000271565b949350505050565b600080600080600060a086880312156200032457600080fd5b85516001600160401b03808211156200033c57600080fd5b6200034a89838a0162000297565b96506020915081880151818111156200036257600080fd5b620003708a828b0162000297565b96505060408801519450606088015193506080880151818111156200039457600080fd5b8801601f81018a13620003a657600080fd5b805182811115620003bb57620003bb62000228565b8060051b9250620003ce8484016200023e565b818152928201840192848101908c851115620003e957600080fd5b928501925b848410156200040957835182529285019290850190620003ee565b8096505050505050509295509295909350565b634e487b7160e01b600052603260045260246000fd5b600181811c908216806200044757607f821691505b6020821081036200046857634e487b7160e01b600052602260045260246000fd5b50919050565b601f821115620004bc57600081815260208120601f850160051c81016020861015620004975750805b601f850160051c820191505b81811015620004b857828155600101620004a3565b5050505b505050565b81516001600160401b03811115620004dd57620004dd62000228565b620004f581620004ee845462000432565b846200046e565b602080601f8311600181146200052d5760008415620005145750858301515b600019600386901b1c1916600185901b178555620004b8565b600085815260208120601f198616915b828110156200055e578886015182559484019460019091019084016200053d565b50858210156200057d5787850151600019600388901b60f8161c191681555b5050505050600190811b01905550565b6040815260008351806040840152620005ae81606085016020880162000271565b6001600160a01b0393909316602083015250601f91909101601f191601606001919050565b61450f80620005e36000396000f3fe60806040526004361061047d5760003560e01c806375e509c511610255578063c0ffaa7811610144578063ea8a1af0116100c1578063f4f3d7ec11610085578063f4f3d7ec14610e4a578063f5c3641114610e6a578063f61736f414610e8a578063f79c017214610eaa578063fb8ddab414610eda578063fb9bf8d414610efa57600080fd5b8063ea8a1af014610dc2578063edcd1be414610dd7578063eef18e1714610ded578063efa90d3614610e15578063f0a7db0a14610e2a57600080fd5b8063d45a010b11610108578063d45a010b14610d40578063dd96a19d14610d55578063dea5f6a614610d6b578063e031535b14610d98578063e11db9d814610dad57600080fd5b8063c0ffaa7814610c8e578063c19d93fb14610ca1578063c7f758a814610cc3578063c9a1b6b214610cf0578063cb85395014610d1057600080fd5b80639b644a23116101d2578063aec116b611610196578063aec116b614610be2578063b323580d14610c18578063b66d1da314610c38578063bddc164114610c58578063c05f410414610c6e57600080fd5b80639b644a2314610b185780639ba197af14610b38578063a1ac6cb214610b65578063ac67f80114610b92578063ae66b8ad14610bb257600080fd5b80638b265e2a116102195780638b265e2a14610a535780638ebb4c1514610a835780639174778c14610ab3578063930de97914610ad3578063946369b514610b0357600080fd5b806375e509c5146109c5578063785ddfe5146109f25780637c65d71114610a125780637de418d514610a27578063832009af14610a3d57600080fd5b80633f9942ff11610371578063544ffc9c116102ee57806365f16263116102b257806365f162631461093a5780636e4eb8101461095a5780636ed815ad1461097a5780636fd3636b14610990578063711effc8146109a557600080fd5b8063544ffc9c1461087857806354fd4d50146108c25780635c7107d8146108ef5780635cb718a11461090f57806360506ff61461092457600080fd5b8063476f4d8a11610335578063476f4d8a146107ed5780634d24a67f1461080057806350a5e5241461081557806350c4b61614610838578063531bd8121461085857600080fd5b80633f9942ff146107535780633fb57c921461076d578063409fd0301461078d578063419c533c146107ad578063458da87d146107cd57600080fd5b80631242b737116103ff578063325cc6d9116103c3578063325cc6d9146106bb57806332763c22146106db578063347cf6651461070b578063366ecf5b146107275780633932abb11461073d57600080fd5b80631242b737146106205780631805c5231461064257806320b3e84514610662578063262e59e9146106845780632c39805f1461069957600080fd5b806305846cae1161044657806305846cae1461054057806306fdde0314610560578063070dc5d9146105825780630800e300146105d35780630aa25e441461060057600080fd5b80624114a814610482578063013cf08b146104ab57806302a251a3146104dc57806302d05d3f146104f25780630414126a1461052a575b600080fd5b34801561048e57600080fd5b5061049860085481565b6040519081526020015b60405180910390f35b3480156104b757600080fd5b506104cb6104c636600461372d565b610f10565b6040516104a29594939291906137e5565b3480156104e857600080fd5b50610498600a5481565b3480156104fe57600080fd5b50600754610512906001600160a01b031681565b6040516001600160a01b0390911681526020016104a2565b34801561053657600080fd5b5061049860015481565b34801561054c57600080fd5b5061049861055b36600461372d565b611058565b34801561056c57600080fd5b50610575611079565b6040516104a29190613837565b34801561058e57600080fd5b506105c661059d36600461372d565b601d60209081526000918252604091829020825180840190935280548352600101549082015281565b6040516104a2919061384a565b3480156105df57600080fd5b506105f36105ee36600461372d565b611107565b6040516104a29190613861565b34801561060c57600080fd5b5061051261061b36600461372d565b61121b565b34801561062c57600080fd5b50610635611245565b6040516104a291906138dd565b34801561064e57600080fd5b5061049861065d366004613a11565b61129d565b34801561066e57600080fd5b5061068261067d366004613ab0565b6113bc565b005b34801561069057600080fd5b5061049861142b565b3480156106a557600080fd5b506106ae611447565b6040516104a29190613b04565b3480156106c757600080fd5b506104986106d636600461372d565b6114a8565b3480156106e757600080fd5b506106fb6106f6366004613b66565b6114b8565b60405190151581526020016104a2565b34801561071757600080fd5b50610498678ac7230489e8000081565b34801561073357600080fd5b5061049860005481565b34801561074957600080fd5b5061049860095481565b34801561075f57600080fd5b506013546106fb9060ff1681565b34801561077957600080fd5b5061049861078836600461372d565b6115b7565b34801561079957600080fd5b506104986107a8366004613bd6565b6115c7565b3480156107b957600080fd5b506104986107c8366004613c92565b6115f8565b3480156107d957600080fd5b506104986107e8366004613ea1565b61164e565b6104986107fb366004613eed565b611661565b34801561080c57600080fd5b506104986116f8565b34801561082157600080fd5b5061082a611706565b6040516104a2929190613f21565b34801561084457600080fd5b5061051261085336600461372d565b61180c565b34801561086457600080fd5b50610682610873366004613f8a565b61181c565b34801561088457600080fd5b506108ad61089336600461372d565b6000908152601d6020526040902080546001909101549091565b604080519283526020830191909152016104a2565b3480156108ce57600080fd5b50604080518082019091526004815263342e313160e01b6020820152610575565b3480156108fb57600080fd5b5061049861090a36600461372d565b611882565b34801561091b57600080fd5b50610635611989565b34801561093057600080fd5b50610498600d5481565b34801561094657600080fd5b50610498610955366004613fe5565b6119df565b34801561096657600080fd5b506108ad61097536600461401a565b611a5f565b34801561098657600080fd5b50610498600e5481565b34801561099c57600080fd5b50610635611a94565b3480156109b157600080fd5b506104986109c036600461404a565b611aea565b3480156109d157600080fd5b506104986109e036600461406c565b60156020526000908152604090205481565b3480156109fe57600080fd5b50601f54610512906001600160a01b031681565b348015610a1e57600080fd5b50610575611b1b565b348015610a3357600080fd5b50610498601b5481565b348015610a4957600080fd5b50610498600b5481565b348015610a5f57600080fd5b506106fb610a6e36600461372d565b60009081526024602052604090205460ff1690565b348015610a8f57600080fd5b50610aa3610a9e36600461372d565b611b28565b6040516104a29493929190614089565b348015610abf57600080fd5b506106fb610ace36600461372d565b611be5565b348015610adf57600080fd5b506106fb610aee36600461406c565b60196020526000908152604090205460ff1681565b348015610b0f57600080fd5b506106ae611c8b565b348015610b2457600080fd5b50610498610b3336600461372d565b611ceb565b348015610b4457600080fd5b50610498610b5336600461372d565b6000908152601e602052604090205490565b348015610b7157600080fd5b50610498610b8036600461406c565b601c6020526000908152604090205481565b348015610b9e57600080fd5b50610682610bad3660046140c0565b611cfb565b348015610bbe57600080fd5b506106fb610bcd36600461372d565b60246020526000908152604090205460ff1681565b348015610bee57600080fd5b50610498610bfd36600461406c565b6001600160a01b03166000908152601c602052604090205490565b348015610c2457600080fd5b506106ae610c3336600461372d565b611e30565b348015610c4457600080fd5b50610498610c5336600461372d565b611ea2565b348015610c6457600080fd5b5061049860035481565b348015610c7a57600080fd5b50610635610c8936600461372d565b611f02565b610498610c9c366004614150565b611f64565b348015610cad57600080fd5b50610cb6611fcc565b6040516104a291906141c1565b348015610ccf57600080fd5b50610ce3610cde36600461372d565b61201d565b6040516104a291906141db565b348015610cfc57600080fd5b50610635610d0b36600461372d565b612197565b348015610d1c57600080fd5b506106fb610d2b36600461406c565b601a6020526000908152604090205460ff1681565b348015610d4c57600080fd5b5061082a6121f7565b348015610d6157600080fd5b5061049860045481565b348015610d7757600080fd5b50610498610d8636600461406c565b60186020526000908152604090205481565b348015610da457600080fd5b506104986123c4565b348015610db957600080fd5b506106356123d6565b348015610dce57600080fd5b5061068261242c565b348015610de357600080fd5b50610498600f5481565b348015610df957600080fd5b5061051273dc652c746a8f85e18ce632d97c6118e8a52fa73881565b348015610e2157600080fd5b50610635612522565b348015610e3657600080fd5b50610682610e45366004614242565b612578565b348015610e5657600080fd5b50610682610e6536600461406c565b6126d3565b348015610e7657600080fd5b50610498610e8536600461372d565b612758565b348015610e9657600080fd5b50610498610ea536600461404a565b612768565b348015610eb657600080fd5b506106fb610ec536600461372d565b60126020526000908152604090205460ff1681565b348015610ee657600080fd5b50610682610ef5366004613ea1565b612784565b348015610f0657600080fd5b50610498600c5481565b601460205260009081526040902080546001820180546001600160a01b03831693600160a01b90930460ff16929190610f4890614283565b80601f0160208091040260200160405190810160405280929190818152602001828054610f7490614283565b8015610fc15780601f10610f9657610100808354040283529160200191610fc1565b820191906000526020600020905b815481529060010190602001808311610fa457829003601f168201915b5050604080516020808201835260028801546001600160a01b03168252825160038901805460609381028301840186529482018581529899939893975090955093508492849184018282801561104057602002820191906000526020600020905b81546001600160a01b03168152600190910190602001808311611022575b50505050508152602001600182015481525050905085565b6011818154811061106857600080fd5b600091825260209091200154905081565b6005805461108690614283565b80601f01602080910402602001604051908101604052809291908181526020018280546110b290614283565b80156110ff5780601f106110d4576101008083540402835291602001916110ff565b820191906000526020600020905b8154815290600101906020018083116110e257829003601f168201915b505050505081565b61113b604051806080016040528060006001600160a01b031681526020016000815260200160008152602001606081525090565b600082815260226020908152604091829020825160808101845281546001600160a01b0316815260018201549281019290925260028101549282019290925260038201805491929160608401919061119290614283565b80601f01602080910402602001604051908101604052809291908181526020018280546111be90614283565b801561120b5780601f106111e05761010080835404028352916020019161120b565b820191906000526020600020905b8154815290600101906020018083116111ee57829003601f168201915b5050505050815250509050919050565b6016818154811061122b57600080fd5b6000918252602090912001546001600160a01b0316905081565b6060601180548060200260200160405190810160405280929190818152602001828054801561129357602002820191906000526020600020905b81548152602001906001019080831161127f575b5050505050905090565b6040805160808101825233815242602082015290810183905260608101829052600090816112ca826115c7565b60208054600180820183557fc97bfaf2f8ee708c303a06d134f5ecd8389ae0432af62dc132a24118292866bb909101839055600083815260228352604090819020865181546001600160a01b0319166001600160a01b03909116178155928601519183019190915584015160028201556060840151919250839160038201906113539082614305565b505050600085815260236020908152604080832080546001810182559084529190922001829055517f5a1a930fed43f34b3a07db782ebcac28a661c273e662bb98458cfba5a8ccd220906113aa9083815260200190565b60405180910390a19150505b92915050565b6001600160a01b0383166000908152601a602052604090205460ff16611426576003546000036113eb57505050565b61140183678ac7230489e80000848460006114b8565b506001600160a01b0383166000908152601a60205260409020805460ff191660011790555b505050565b6000600a546114386123c4565b61144291906143da565b905090565b6060601780548060200260200160405190810160405280929190818152602001828054801561129357602002820191906000526020600020905b81546001600160a01b03168152600190910190602001808311611481575050505050905090565b6002818154811061106857600080fd5b6040516bffffffffffffffffffffffff19606087901b166020820152603481018590526000908190605401604051602081830303815290604052805190602001209050600083611548576115438686808060200260200160405190810160405280939291908181526020018383602002808284376000920191909152505060035491508590506128d3565b611589565b6115898686808060200260200160405190810160405280939291908181526020018383602002808284376000920191909152505060045491508590506128d3565b9050806115a95760405163452c2df160e11b815260040160405180910390fd5b506001979650505050505050565b6021818154811061106857600080fd5b6000816040516020016115da9190613861565b60408051601f19818403018152919052805160209091012092915050565b600086815260126020526040812054339060ff161561162a576040516358f1119560e01b815260040160405180910390fd5b6116368187868661181c565b611642888289886128e9565b98975050505050505050565b6000816040516020016115da91906141db565b6000600e54341461169757600e546040516380a7af9f60e01b815234600482015260248101919091526044015b60405180910390fd5b600354156116cf57336000908152601a602052604090205460ff166116cf57604051631f22097560e01b815260040160405180910390fd5b6116db610ef5836143ed565b60006116ee6116e9846143ed565b612a30565b90506113b6612cab565b6117036001806143da565b81565b6060806000611713612522565b9050600081516001600160401b03811115611730576117306138f0565b60405190808252806020026020018201604052801561177557816020015b604080518082019091526000808252602082015281526020019060019003908161174e5790505b50905060005b825181101561180257601d600084838151811061179a5761179a6143f9565b60200260200101518152602001908152602001600020600001604051806040016040529081600082015481526020016001820154815250508282815181106117e4576117e46143f9565b602002602001018190525080806117fa9061440f565b91505061177b565b5090939092509050565b6017818154811061122b57600080fd5b6001600160a01b03841660009081526019602052604090205460ff1661187c5761184a8484848460016114b8565b506001600160a01b038416600090815260186020908152604080832086905560199091529020805460ff191660011790555b50505050565b6000816000036118a557604051630ec90a1760e31b815260040160405180910390fd5b600280546040805160208084028201810190925282815291926000929184908301828280156118f357602002820191906000526020600020905b8154815260200190600101908083116118df575b5050505050905060006001905060005b8381101561196f5761193a838281518110611920576119206143f9565b60200260200101516000908152601e602052604090205490565b1561195d5785820361194f5795945050505050565b816119598161440f565b9250505b806119678161440f565b915050611903565b50604051632cc2ab7360e11b815260040160405180910390fd5b60606021805480602002602001604051908101604052809291908181526020018280548015611293576020028201919060005260206000209081548152602001906001019080831161127f575050505050905090565b600083815260126020526040812054339060ff1615611a11576040516358f1119560e01b815260040160405180910390fd5b6001600160a01b03811660009081526019602052604090205460ff16611a4a5760405163126ec6d160e31b815260040160405180910390fd5b611a56858286866128e9565b95945050505050565b6000828152601d602090815260408083206001600160a01b0385168452600301909152902080546001909101545b9250929050565b60606002805480602002602001604051908101604052809291908181526020018280548015611293576020028201919060005260206000209081548152602001906001019080831161127f575050505050905090565b601e6020528160005260406000208181548110611b0657600080fd5b90600052602060002001600091509150505481565b6006805461108690614283565b60226020526000908152604090208054600182015460028301546003840180546001600160a01b03909416949293919291611b6290614283565b80601f0160208091040260200160405190810160405280929190818152602001828054611b8e90614283565b8015611bdb5780601f10611bb057610100808354040283529160200191611bdb565b820191906000526020600020905b815481529060010190602001808311611bbe57829003601f168201915b5050505050905084565b600254600090611bf790600190614428565b821115611c17576040516365d6f35160e11b815260040160405180910390fd5b60005b611c258360016143da565b811015611c82576001611c6160028381548110611c4457611c446143f9565b90600052602060002001546000908152601e602052604090205490565b1115611c705750600192915050565b80611c7a8161440f565b915050611c1a565b50600092915050565b60606016805480602002602001604051908101604052809291908181526020018280548015611293576020028201919060005260206000209081546001600160a01b03168152600190910190602001808311611481575050505050905090565b6010818154811061106857600080fd5b805160005b81811015611df4576000838281518110611d1c57611d1c6143f9565b60209081029190910101516007549091506001600160a01b03163314801590611d5c57506000818152602260205260409020546001600160a01b03163314155b15611d7d57604051635450763d60e11b81526004810182905260240161168e565b60008181526024602052604090205460ff16611de1576000818152602460205260408120805460ff191660019081179091556021805491820181559091527f3a6357012c1a3ae0a17d304c9920310382d968ebcc4b1771f41c6b304205b570018190555b5080611dec8161440f565b915050611d00565b507f788a4349d25bc08585923ae212bce8bb346a623bce753eeecb85fd9ce58dcb4b82604051611e2491906138dd565b60405180910390a15050565b6000818152601d60209081526040918290206002810180548451818502810185019095528085526060949293830182828015611e9557602002820191906000526020600020905b81546001600160a01b03168152600190910190602001808311611e77575b5050505050915050919050565b6000818152601e6020526040812054600114611ed157604051633832a15560e21b815260040160405180910390fd5b6000828152601e602052604081208054909190611ef057611ef06143f9565b90600052602060002001549050919050565b600081815260236020908152604091829020805483518184028101840190945280845260609392830182828015611f5857602002820191906000526020600020905b815481526020019060010190808311611f44575b50505050509050919050565b6000600e543414611f9557600e546040516380a7af9f60e01b8152346004820152602481019190915260440161168e565b611fa03384846113bc565b611fac610ef5856143ed565b6000611fba6116e9866143ed565b9050611fc4612cab565b949350505050565b60135460009060ff1615611fe05750600290565b4260085410611fef5750600090565b42611ff86123c4565b106120035750600390565b4261200c61142b565b106120175750600190565b50600490565b612025613642565b600082815260146020908152604091829020825160a08101845281546001600160a01b0381168252600160a01b900460ff16151592810192909252600181018054929391929184019161207790614283565b80601f01602080910402602001604051908101604052809291908181526020018280546120a390614283565b80156120f05780601f106120c5576101008083540402835291602001916120f0565b820191906000526020600020905b8154815290600101906020018083116120d357829003601f168201915b5050509183525050604080516020818101835260028501546001600160a01b0316825280840191909152815160038501805460609381028301840185528285018181529490950194919390928492849184018282801561217957602002820191906000526020600020905b81546001600160a01b0316815260019091019060200180831161215b575b50505050508152602001600182015481525050815250509050919050565b6000818152601e6020908152604091829020805483518184028101840190945280845260609392830182828015611f585760200282019190600052602060002090815481526020019060010190808311611f445750505050509050919050565b6060806000612204612522565b9050600081516001600160401b03811115612221576122216138f0565b60405190808252806020026020018201604052801561224a578160200160208202803683370190505b509050600082516001600160401b03811115612268576122686138f0565b6040519080825280602002602001820160405280156122ad57816020015b60408051808201909152600080825260208201528152602001906001900390816122865790505b5090506000805b84518110156123b857601260008683815181106122d3576122d36143f9565b60209081029190910181015182528101919091526040016000205460ff166123a657848181518110612307576123076143f9565b6020026020010151848381518110612321576123216143f9565b602002602001018181525050601d6000868381518110612343576123436143f9565b602002602001015181526020019081526020016000206000016040518060400160405290816000820154815260200160018201548152505083838151811061238d5761238d6143f9565b60209081029190910101526123a36001836143da565b91505b806123b08161440f565b9150506122b4565b50919590945092505050565b600060095460085461144291906143da565b60606020805480602002602001604051908101604052809291908181526020018280548015611293576020028201919060005260206000209081548152602001906001019080831161127f575050505050905090565b6007546001600160a01b0316331480159061245b57503373dc652c746a8f85e18ce632d97c6118e8a52fa73814155b15612479576040516301dbf46f60e71b815260040160405180910390fd5b6000612483611fcc565b90506002816004811115612499576124996141ab565b036124b757604051633c30acbf60e01b815260040160405180910390fd5b60048160048111156124cb576124cb6141ab565b036124e9576040516307b9d0f760e01b815260040160405180910390fd5b6013805460ff191660011790556040517f4cd963a081760a54f571abc0f1db4dde31b4a07d8d6da3e844b8c6f47eeaaa4290600090a150565b60606010805480602002602001604051908101604052809291908181526020018280548015611293576020028201919060005260206000209081548152602001906001019080831161127f575050505050905090565b6007546001600160a01b031633146125a35760405163b8d4540960e01b815260040160405180910390fd5b60046125ad611fcc565b60048111156125be576125be6141ab565b036125dc576040516331da1c8b60e11b815260040160405180910390fd5b60005b818110156126815760008383838181106125fb576125fb6143f9565b60209081029290920135600081815260129093526040909220549192505060ff1661266e576000818152601260205260408120805460ff191660019081179091556011805491820181559091527f31ecc21a745e3968a04e9570e4425bc18fa8019c68028196b546d1669c200c68018190555b50806126798161440f565b9150506125df565b50600d5415801561269457506000546001145b156126a3576126a38282612dc0565b7f75a75cf5c561892f4cc5b26c1b8e933849b42238c96dd073d080d1ae96c514166010604051611e24919061443b565b6007546001600160a01b031633146126fe57604051630f4cb1bd60e11b815260040160405180910390fd5b601f80546001600160a01b038381166001600160a01b031983168117909355604080519190921680825260208201939093527f753a2cf8d360cff631674504210913e48247f8e56b3e6d2006c2103d4095999f9101611e24565b6020818154811061106857600080fd5b60236020528160005260406000208181548110611b0657600080fd5b80516001600160a01b031633146127c257805160405163fbbf4d7f60e01b81526001600160a01b03909116600482015233602482015260440161168e565b60005b6127d06001806143da565b8110156128a95760008160018111156127eb576127eb6141ab565b90506000816001811115612801576128016141ab565b0361280c5750612897565b6001816001811115612820576128206141ab565b0361287a576080830151515160000361284c5760405163c3b2798b60e01b815260040160405180910390fd5b826080015160200151600003612875576040516392fb9a3560e01b815260040160405180910390fd5b612895565b8060405163d2277d4960e01b815260040161168e9190614476565b505b806128a18161440f565b9150506127c5565b508060400151516000036128d05760405163e182473360e01b815260040160405180910390fd5b50565b6000826128e08584612e1d565b14949350505050565b600060016128f5611fcc565b6004811115612906576129066141ab565b1461292d57612913611fcc565b60405163049cab4960e51b815260040161168e91906141c1565b8160000361294e5760405163502e1c2960e01b815260040160405180910390fd5b61298085858585601860008a6001600160a01b03166001600160a01b0316815260200190815260200160002054612e6a565b601780546001810182556000919091527fc624b66cc0138b8fabc209247f72d758e1cf3343756d543badbf24212bed8c150180546001600160a01b031916331790556040805186815260ff851660208201529081018390526001600160a01b038516907f2c9deb38f462962eadbd85a9d3a4120503ee091f1582eaaa10aa8c6797651d299060600160405180910390a25050506001600160a01b0316600090815260186020526040902054919050565b60006003612a3c611fcc565b6004811115612a4d57612a4d6141ab565b14612a7457612a5a611fcc565b604051632889531360e01b815260040161168e91906141c1565b600b543360009081526015602052604090205403612aab57600b54604051632bd6d93960e21b815260040161168e91815260200190565b600c54601154601054612abe9190614428565b03612ae257600c546040516302217f5360e51b815260040161168e91815260200190565b6000612aed8361164e565b600081815260146020526040902054909150600160a01b900460ff1615612b2a5760405163baffc42360e01b81526004810182905260240161168e565b6010805460018181019092557f1b6847dc741a1b0cd08d278845f9d819d87b734759afb55fe2de5cb82a9ae6720182905560008281526014602090815260409182902086518154928801511515600160a01b026001600160a81b03199093166001600160a01b0390911617919091178155908501518592820190612bae9082614305565b506060820151516002820180546001600160a01b0319166001600160a01b039092169190911790556080820151805180516003840191612bf3918391602001906136b3565b5060209182015160019182015533600090815260159092526040822080549194509250612c219084906143da565b9091555050601680546001810182556000919091527fd833147d7dc355ba459fc788f669e58cfaf9dc25ddcd0702e87d69c7b51242890180546001600160a01b031916339081179091556040805183815260208101929092527fcd423cc1203c0af96b9b3d68d73b3064a69de2d14450bb7181c5e5df2132b358910160405180910390a192915050565b600e5415612dbe5760006064600f546064612cc69190614428565b612cd0903461448a565b612cda91906144a1565b90508015612d4e57612d0073dc652c746a8f85e18ce632d97c6118e8a52fa738826130d1565b6040805173dc652c746a8f85e18ce632d97c6118e8a52fa7388152602081018390527fdf20fd1e76bc69d672e4814fafb2c449bba3a5369d8359adf9e05e6fde87b056910160405180910390a15b6000612d5a8234614428565b90508015612dbb57600754612d78906001600160a01b0316826130d1565b600754604080516001600160a01b039092168252602082018390527fdf20fd1e76bc69d672e4814fafb2c449bba3a5369d8359adf9e05e6fde87b0569101611e24565b50505b565b60005b81811015611426576000838383818110612ddf57612ddf6143f9565b602090810292909201356000818152601d909352604090922054919250612e08905082826131ea565b50508080612e159061440f565b915050612dc3565b600081815b8451811015612e6257612e4e82868381518110612e4157612e416143f9565b602002602001015161331b565b915080612e5a8161440f565b915050612e22565b509392505050565b6000858152601d602090815260408083206001600160a01b0388168452601c90925290912054612e9a9083614428565b831115612eba5760405163660fa07360e11b815260040160405180910390fd5b6001600160a01b0385166000908152600382016020526040812054158015612efd57506001600160a01b0386166000908152600383016020526040902060010154155b905060ff8516612f5557815484908390600090612f1b9084906143da565b90915550506001600160a01b038616600090815260038301602052604081208054869290612f4a9084906143da565b90915550612fe69050565b60001960ff861601612fcd57600d54600114612f8457604051639755958f60e01b815260040160405180910390fd5b83826000016001016000828254612f9b91906143da565b90915550506001600160a01b038616600090815260038301602052604081206001018054869290612f4a9084906143da565b604051638eed55d160e01b815260040160405180910390fd5b801561301d57600282018054600181018255600091825260209091200180546001600160a01b0319166001600160a01b0388161790555b6001600160a01b0386166000908152601c6020526040812080548692906130459084906143da565b9250508190555083601b600082825461305e91906143da565b9091555050600d5415801561307557506000546001145b156130c857815460006130888683614428565b9050801561309a5761309a89826131ea565b6000828152601e60209081526040822080546001810182559083529120018990556130c5818361334d565b50505b50505050505050565b804710156131215760405162461bcd60e51b815260206004820152601d60248201527f416464726573733a20696e73756666696369656e742062616c616e6365000000604482015260640161168e565b6000826001600160a01b03168260405160006040518083038185875af1925050503d806000811461316e576040519150601f19603f3d011682016040523d82523d6000602084013e613173565b606091505b50509050806114265760405162461bcd60e51b815260206004820152603a60248201527f416464726573733a20756e61626c6520746f2073656e642076616c75652c207260448201527f6563697069656e74206d61792068617665207265766572746564000000000000606482015260840161168e565b6000818152601e602090815260408083208054825181850281018501909352808352919290919083018282801561324057602002820191906000526020600020905b81548152602001906001019080831161322c575b5050505050905060005b815181101561187c5783828281518110613266576132666143f9565b6020026020010151036133095781600183516132829190614428565b81518110613292576132926143f9565b6020026020010151601e600085815260200190815260200160002082815481106132be576132be6143f9565b9060005260206000200181905550601e60008481526020019081526020016000208054806132ee576132ee6144c3565b6001900381819060005260206000200160009055905561187c565b806133138161440f565b91505061324a565b6000818310613337576000828152602084905260409020613346565b60008381526020839052604090205b9392505050565b6002805460408051602080840282018101909252828152919260009291849083018282801561339b57602002820191906000526020600020905b815481526020019060010190808311613387575b50505050509050816000036133e2575050600280546001810182556000919091527f405787fa12a823e0f2b7631cc41b3ba8828b3321ca811111fa75cd3aa3bb5ace015550565b806133ee600184614428565b815181106133fe576133fe6143f9565b602002602001015183101561345457600154820361341c5750505050565b5050600280546001810182556000919091527f405787fa12a823e0f2b7631cc41b3ba8828b3321ca811111fa75cd3aa3bb5ace015550565b61187c848484846000805b838110156134c957828181518110613479576134796143f9565b6020026020010151850361348e57505061187c565b8281815181106134a0576134a06143f9565b60200260200101518511156134b7578091506134c9565b806134c18161440f565b91505061345f565b50600080861180156134e757506000868152601e6020526040902054155b90506000818015613510575086848481518110613506576135066143f9565b6020026020010151145b6136195761351f600186614428565b83146135c75760006135328460016143da565b90505b858110156135c55784613549600183614428565b81518110613559576135596143f9565b602002602001015160028281548110613574576135746143f9565b6000918252602090912001558280156135a557508785828151811061359b5761359b6143f9565b6020026020010151145b156135b357600191506135c5565b806135bd8161440f565b915050613535565b505b801580156135d6575060015485105b15613619576002846135e9600188614428565b815181106135f9576135f96143f9565b602090810291909101810151825460018101845560009384529190922001555b856002848154811061362d5761362d6143f9565b60009182526020909120015550505050505050565b6040518060a0016040528060006001600160a01b031681526020016000151581526020016060815260200161368c604051806020016040528060006001600160a01b031681525090565b81526020016136ae604051806040016040528060608152602001600081525090565b905290565b828054828255906000526020600020908101928215613708579160200282015b8281111561370857825182546001600160a01b0319166001600160a01b039091161782556020909201916001909101906136d3565b50613714929150613718565b5090565b5b808211156137145760008155600101613719565b60006020828403121561373f57600080fd5b5035919050565b6000815180845260005b8181101561376c57602081850181015186830182015201613750565b506000602082860101526020601f19601f83011685010191505092915050565b805160408084528151908401819052600091602091908201906060860190845b818110156137d15783516001600160a01b0316835292840192918401916001016137ac565b505093820151949091019390935250919050565b600060018060a01b038088168352861515602084015260a0604084015261380f60a0840187613746565b818651166060850152838103608085015261382a818661378c565b9998505050505050505050565b6020815260006133466020830184613746565b8151815260208083015190820152604081016113b6565b6020815260018060a01b038251166020820152602082015160408201526040820151606082015260006060830151608080840152611fc460a0840182613746565b600081518084526020808501945080840160005b838110156138d2578151875295820195908201906001016138b6565b509495945050505050565b60208152600061334660208301846138a2565b634e487b7160e01b600052604160045260246000fd5b604080519081016001600160401b0381118282101715613928576139286138f0565b60405290565b60405160a081016001600160401b0381118282101715613928576139286138f0565b604051602081016001600160401b0381118282101715613928576139286138f0565b604051601f8201601f191681016001600160401b038111828210171561399a5761399a6138f0565b604052919050565b600082601f8301126139b357600080fd5b81356001600160401b038111156139cc576139cc6138f0565b6139df601f8201601f1916602001613972565b8181528460208386010111156139f457600080fd5b816020850160208301376000918101602001919091529392505050565b60008060408385031215613a2457600080fd5b8235915060208301356001600160401b03811115613a4157600080fd5b613a4d858286016139a2565b9150509250929050565b6001600160a01b03811681146128d057600080fd5b60008083601f840112613a7e57600080fd5b5081356001600160401b03811115613a9557600080fd5b6020830191508360208260051b8501011115611a8d57600080fd5b600080600060408486031215613ac557600080fd5b8335613ad081613a57565b925060208401356001600160401b03811115613aeb57600080fd5b613af786828701613a6c565b9497909650939450505050565b6020808252825182820181905260009190848201906040850190845b81811015613b455783516001600160a01b031683529284019291840191600101613b20565b50909695505050505050565b80358015158114613b6157600080fd5b919050565b600080600080600060808688031215613b7e57600080fd5b8535613b8981613a57565b94506020860135935060408601356001600160401b03811115613bab57600080fd5b613bb788828901613a6c565b9094509250613bca905060608701613b51565b90509295509295909350565b600060208284031215613be857600080fd5b81356001600160401b0380821115613bff57600080fd5b9083019060808286031215613c1357600080fd5b604051608081018181108382111715613c2e57613c2e6138f0565b6040528235613c3c81613a57565b808252506020830135602082015260408301356040820152606083013582811115613c6657600080fd5b613c72878286016139a2565b60608301525095945050505050565b803560ff81168114613b6157600080fd5b60008060008060008060a08789031215613cab57600080fd5b86359550613cbb60208801613c81565b9450604087013593506060870135925060808701356001600160401b03811115613ce457600080fd5b613cf089828a01613a6c565b979a9699509497509295939492505050565b60006001600160401b03821115613d1b57613d1b6138f0565b5060051b60200190565b600060408284031215613d3757600080fd5b613d3f613906565b905081356001600160401b03811115613d5757600080fd5b8201601f81018413613d6857600080fd5b80356020613d7d613d7883613d02565b613972565b82815260059290921b83018101918181019087841115613d9c57600080fd5b938201935b83851015613dc3578435613db481613a57565b82529382019390820190613da1565b85525093840135938301939093525092915050565b600081830360a0811215613deb57600080fd5b613df361392e565b91508235613e0081613a57565b8252613e0e60208401613b51565b602083015260408301356001600160401b0380821115613e2d57600080fd5b613e39868387016139a2565b60408501526020605f1984011215613e5057600080fd5b613e58613950565b925060608501359150613e6a82613a57565b8183528260608501526080850135925080831115613e8757600080fd5b5050613e9584828501613d25565b60808301525092915050565b600060208284031215613eb357600080fd5b81356001600160401b03811115613ec957600080fd5b611fc484828501613dd8565b600060a08284031215613ee757600080fd5b50919050565b600060208284031215613eff57600080fd5b81356001600160401b03811115613f1557600080fd5b611fc484828501613ed5565b60006040808352613f34818401866138a2565b83810360208581019190915285518083528682019282019060005b81811015613f7c57613f6c83865180518252602090810151910152565b9383019391850191600101613f4f565b509098975050505050505050565b60008060008060608587031215613fa057600080fd5b8435613fab81613a57565b93506020850135925060408501356001600160401b03811115613fcd57600080fd5b613fd987828801613a6c565b95989497509550505050565b600080600060608486031215613ffa57600080fd5b8335925061400a60208501613c81565b9150604084013590509250925092565b6000806040838503121561402d57600080fd5b82359150602083013561403f81613a57565b809150509250929050565b6000806040838503121561405d57600080fd5b50508035926020909101359150565b60006020828403121561407e57600080fd5b813561334681613a57565b60018060a01b03851681528360208201528260408201526080606082015260006140b66080830184613746565b9695505050505050565b600060208083850312156140d357600080fd5b82356001600160401b038111156140e957600080fd5b8301601f810185136140fa57600080fd5b8035614108613d7882613d02565b81815260059190911b8201830190838101908783111561412757600080fd5b928401925b828410156141455783358252928401929084019061412c565b979650505050505050565b60008060006040848603121561416557600080fd5b83356001600160401b038082111561417c57600080fd5b61418887838801613ed5565b9450602086013591508082111561419e57600080fd5b50613af786828701613a6c565b634e487b7160e01b600052602160045260246000fd5b60208101600583106141d5576141d56141ab565b91905290565b60208152600060018060a01b03808451166020840152602084015115156040840152604084015160a0606085015261421660c0850182613746565b90508160608601515116608085015260808501519150601f198482030160a0850152611a56818361378c565b6000806020838503121561425557600080fd5b82356001600160401b0381111561426b57600080fd5b61427785828601613a6c565b90969095509350505050565b600181811c9082168061429757607f821691505b602082108103613ee757634e487b7160e01b600052602260045260246000fd5b601f82111561142657600081815260208120601f850160051c810160208610156142de5750805b601f850160051c820191505b818110156142fd578281556001016142ea565b505050505050565b81516001600160401b0381111561431e5761431e6138f0565b6143328161432c8454614283565b846142b7565b602080601f831160018114614367576000841561434f5750858301515b600019600386901b1c1916600185901b1785556142fd565b600085815260208120601f198616915b8281101561439657888601518255948401946001909101908401614377565b50858210156143b45787850151600019600388901b60f8161c191681555b5050505050600190811b01905550565b634e487b7160e01b600052601160045260246000fd5b808201808211156113b6576113b66143c4565b60006113b63683613dd8565b634e487b7160e01b600052603260045260246000fd5b600060018201614421576144216143c4565b5060010190565b818103818111156113b6576113b66143c4565b6020808252825482820181905260008481528281209092916040850190845b81811015613b455783548352600193840193928501920161445a565b60208101600283106141d5576141d56141ab565b80820281158282048414176113b6576113b66143c4565b6000826144be57634e487b7160e01b600052601260045260246000fd5b500490565b634e487b7160e01b600052603160045260246000fdfea264697066735822122042f9e7791f0a0a8caa1f3c0e0b57faa058cb651b85ceedbdddd018c53929e44f64736f6c63430008130033",
    "linkReferences": {}
  },
  "methodIdentifiers": {
    "AMOUNT_FOR_SUMBITTER_PROOF()": "347cf665",
    "JK_LABS_ADDRESS()": "eef18e17",
    "METADATAS_COUNT()": "4d24a67f",
    "addressSubmitterVerified(address)": "cb853950",
    "addressTotalCastVoteCounts(address)": "a1ac6cb2",
    "addressTotalVotes(address)": "dea5f6a6",
    "addressTotalVotesVerified(address)": "930de979",
    "addressesThatHaveVoted(uint256)": "50c4b616",
    "allProposalTotalVotes()": "50a5e524",
    "allProposalTotalVotesWithoutDeleted()": "d45a010b",
    "cancel()": "ea8a1af0",
    "canceled()": "3f9942ff",
    "castVote(uint256,uint8,uint256,uint256,bytes32[])": "419c533c",
    "castVoteWithoutProof(uint256,uint8,uint256)": "65f16263",
    "checkProof(address,uint256,bytes32[],bool)": "32763c22",
    "comment(uint256,string)": "1805c523",
    "commentIds(uint256)": "f5c36411",
    "commentIsDeleted(uint256)": "ae66b8ad",
    "comments(uint256)": "8ebb4c15",
    "contestAddressTotalVotesCast(address)": "aec116b6",
    "contestDeadline()": "262e59e9",
    "contestStart()": "004114a8",
    "costToPropose()": "6ed815ad",
    "creator()": "02d05d3f",
    "deleteComments(uint256[])": "ac67f801",
    "deleteProposals(uint256[])": "f0a7db0a",
    "deletedCommentIds(uint256)": "3fb57c92",
    "deletedProposalIds(uint256)": "05846cae",
    "downvotingAllowed()": "60506ff6",
    "forVotesToProposalIds(uint256,uint256)": "711effc8",
    "getAllAddressesThatHaveVoted()": "2c39805f",
    "getAllCommentIds()": "e11db9d8",
    "getAllDeletedCommentIds()": "5cb718a1",
    "getAllDeletedProposalIds()": "1242b737",
    "getAllProposalAuthors()": "946369b5",
    "getAllProposalIds()": "efa90d36",
    "getComment(uint256)": "0800e300",
    "getNumProposalsWithThisManyForVotes(uint256)": "9ba197af",
    "getOnlyProposalIdWithThisManyForVotes(uint256)": "b66d1da3",
    "getProposal(uint256)": "c7f758a8",
    "getProposalComments(uint256)": "c05f4104",
    "getProposalsWithThisManyForVotes(uint256)": "c9a1b6b2",
    "getRankIndex(uint256)": "5c7107d8",
    "getSortedRanks()": "6fd3636b",
    "hashComment((address,uint256,uint256,string))": "409fd030",
    "hashProposal((address,bool,string,(address),(address[],uint256)))": "458da87d",
    "isCommentDeleted(uint256)": "8b265e2a",
    "isOrIsBelowTiedRank(uint256)": "9174778c",
    "maxProposalCount()": "fb9bf8d4",
    "name()": "06fdde03",
    "numAllowedProposalSubmissions()": "832009af",
    "numSubmissions(address)": "75e509c5",
    "officialRewardsModule()": "785ddfe5",
    "percentageToCreator()": "edcd1be4",
    "prompt()": "7c65d711",
    "proposalAddressVotes(uint256,address)": "6e4eb810",
    "proposalAddressesHaveVoted(uint256)": "b323580d",
    "proposalAuthors(uint256)": "0aa25e44",
    "proposalComments(uint256,uint256)": "f61736f4",
    "proposalIds(uint256)": "9b644a23",
    "proposalIsDeleted(uint256)": "f79c0172",
    "proposalVotes(uint256)": "544ffc9c",
    "proposalVotesStructs(uint256)": "070dc5d9",
    "proposals(uint256)": "013cf08b",
    "propose((address,bool,string,(address),(address[],uint256)),bytes32[])": "c0ffaa78",
    "proposeWithoutProof((address,bool,string,(address),(address[],uint256)))": "476f4d8a",
    "rankLimit()": "0414126a",
    "setOfficialRewardsModule(address)": "f4f3d7ec",
    "sortedRanks(uint256)": "325cc6d9",
    "sortingEnabled()": "366ecf5b",
    "state()": "c19d93fb",
    "submissionMerkleRoot()": "bddc1641",
    "totalVotesCast()": "7de418d5",
    "validateProposalData((address,bool,string,(address),(address[],uint256)))": "fb8ddab4",
    "verifyProposer(address,bytes32[])": "20b3e845",
    "verifyVoter(address,uint256,bytes32[])": "531bd812",
    "version()": "54fd4d50",
    "voteStart()": "e031535b",
    "votingDelay()": "3932abb1",
    "votingMerkleRoot()": "dd96a19d",
    "votingPeriod()": "02a251a3"
  },
  "id": 28
}