{
  "_format": "hh-sol-artifact-1",
  "contractName": "Contest",
  "sourceName": "contracts/Contest.sol",
  "abi": [
    {
      "inputs": [
        {
          "internalType": "string",
          "name": "_name",
          "type": "string"
        },
        {
          "internalType": "string",
          "name": "_prompt",
          "type": "string"
        },
        {
          "internalType": "contract IVotesTimestamp",
          "name": "_token",
          "type": "address"
        },
        {
          "internalType": "contract IVotesTimestamp",
          "name": "_submissionToken",
          "type": "address"
        },
        {
          "internalType": "uint256[]",
          "name": "_constructorIntParams",
          "type": "uint256[]"
        }
      ],
      "stateMutability": "nonpayable",
      "type": "constructor"
    },
    {
      "anonymous": false,
      "inputs": [],
      "name": "ContestCanceled",
      "type": "event"
    },
    {
      "anonymous": false,
      "inputs": [
        {
          "indexed": false,
          "internalType": "uint256",
          "name": "oldContestSnapshot",
          "type": "uint256"
        },
        {
          "indexed": false,
          "internalType": "uint256",
          "name": "newContestSnapshot",
          "type": "uint256"
        }
      ],
      "name": "ContestSnapshotSet",
      "type": "event"
    },
    {
      "anonymous": false,
      "inputs": [
        {
          "indexed": false,
          "internalType": "uint256",
          "name": "oldContestStart",
          "type": "uint256"
        },
        {
          "indexed": false,
          "internalType": "uint256",
          "name": "newContestStart",
          "type": "uint256"
        }
      ],
      "name": "ContestStartSet",
      "type": "event"
    },
    {
      "anonymous": false,
      "inputs": [
        {
          "indexed": false,
          "internalType": "address",
          "name": "oldCreator",
          "type": "address"
        },
        {
          "indexed": false,
          "internalType": "address",
          "name": "newCreator",
          "type": "address"
        }
      ],
      "name": "CreatorSet",
      "type": "event"
    },
    {
      "anonymous": false,
      "inputs": [
        {
          "indexed": false,
          "internalType": "uint256",
          "name": "oldDownvotingAllowed",
          "type": "uint256"
        },
        {
          "indexed": false,
          "internalType": "uint256",
          "name": "newDownvotingAllowed",
          "type": "uint256"
        }
      ],
      "name": "DownvotingAllowedSet",
      "type": "event"
    },
    {
      "anonymous": false,
      "inputs": [
        {
          "indexed": false,
          "internalType": "uint256",
          "name": "oldMaxProposalCount",
          "type": "uint256"
        },
        {
          "indexed": false,
          "internalType": "uint256",
          "name": "newMaxProposalCount",
          "type": "uint256"
        }
      ],
      "name": "MaxProposalCountSet",
      "type": "event"
    },
    {
      "anonymous": false,
      "inputs": [
        {
          "indexed": false,
          "internalType": "uint256",
          "name": "oldNumAllowedProposalSubmissions",
          "type": "uint256"
        },
        {
          "indexed": false,
          "internalType": "uint256",
          "name": "newNumAllowedProposalSubmissions",
          "type": "uint256"
        }
      ],
      "name": "NumAllowedProposalSubmissionsSet",
      "type": "event"
    },
    {
      "anonymous": false,
      "inputs": [
        {
          "indexed": false,
          "internalType": "contract RewardsModule",
          "name": "oldOfficialRewardsModule",
          "type": "address"
        },
        {
          "indexed": false,
          "internalType": "contract RewardsModule",
          "name": "newOfficialRewardsModule",
          "type": "address"
        }
      ],
      "name": "OfficialRewardsModuleSet",
      "type": "event"
    },
    {
      "anonymous": false,
      "inputs": [
        {
          "indexed": false,
          "internalType": "uint256",
          "name": "proposalId",
          "type": "uint256"
        },
        {
          "indexed": false,
          "internalType": "string",
          "name": "description",
          "type": "string"
        },
        {
          "indexed": false,
          "internalType": "address",
          "name": "proposer",
          "type": "address"
        }
      ],
      "name": "ProposalCreated",
      "type": "event"
    },
    {
      "anonymous": false,
      "inputs": [
        {
          "indexed": false,
          "internalType": "uint256",
          "name": "oldProposalThreshold",
          "type": "uint256"
        },
        {
          "indexed": false,
          "internalType": "uint256",
          "name": "newProposalThreshold",
          "type": "uint256"
        }
      ],
      "name": "ProposalThresholdSet",
      "type": "event"
    },
    {
      "anonymous": false,
      "inputs": [
        {
          "indexed": false,
          "internalType": "uint256[]",
          "name": "proposalIds",
          "type": "uint256[]"
        }
      ],
      "name": "ProposalsDeleted",
      "type": "event"
    },
    {
      "anonymous": false,
      "inputs": [
        {
          "indexed": false,
          "internalType": "uint256",
          "name": "oldSubmissionGatingByVotingToken",
          "type": "uint256"
        },
        {
          "indexed": false,
          "internalType": "uint256",
          "name": "newSubmissionGatingByVotingToken",
          "type": "uint256"
        }
      ],
      "name": "SubmissionGatingByVotingTokenSet",
      "type": "event"
    },
    {
      "anonymous": false,
      "inputs": [
        {
          "indexed": true,
          "internalType": "address",
          "name": "voter",
          "type": "address"
        },
        {
          "indexed": false,
          "internalType": "uint256",
          "name": "proposalId",
          "type": "uint256"
        },
        {
          "indexed": false,
          "internalType": "uint8",
          "name": "support",
          "type": "uint8"
        },
        {
          "indexed": false,
          "internalType": "uint256",
          "name": "numVotes",
          "type": "uint256"
        },
        {
          "indexed": false,
          "internalType": "string",
          "name": "reason",
          "type": "string"
        }
      ],
      "name": "VoteCast",
      "type": "event"
    },
    {
      "anonymous": false,
      "inputs": [
        {
          "indexed": false,
          "internalType": "uint256",
          "name": "oldVotingDelay",
          "type": "uint256"
        },
        {
          "indexed": false,
          "internalType": "uint256",
          "name": "newVotingDelay",
          "type": "uint256"
        }
      ],
      "name": "VotingDelaySet",
      "type": "event"
    },
    {
      "anonymous": false,
      "inputs": [
        {
          "indexed": false,
          "internalType": "uint256",
          "name": "oldVotingPeriod",
          "type": "uint256"
        },
        {
          "indexed": false,
          "internalType": "uint256",
          "name": "newVotingPeriod",
          "type": "uint256"
        }
      ],
      "name": "VotingPeriodSet",
      "type": "event"
    },
    {
      "inputs": [],
      "name": "BALLOT_TYPEHASH",
      "outputs": [
        {
          "internalType": "bytes32",
          "name": "",
          "type": "bytes32"
        }
      ],
      "stateMutability": "view",
      "type": "function"
    },
    {
      "inputs": [],
      "name": "COUNTING_MODE",
      "outputs": [
        {
          "internalType": "string",
          "name": "",
          "type": "string"
        }
      ],
      "stateMutability": "pure",
      "type": "function"
    },
    {
      "inputs": [],
      "name": "allProposalTotalVotes",
      "outputs": [
        {
          "internalType": "uint256[]",
          "name": "proposalIdsReturn",
          "type": "uint256[]"
        },
        {
          "components": [
            {
              "internalType": "uint256",
              "name": "forVotes",
              "type": "uint256"
            },
            {
              "internalType": "uint256",
              "name": "againstVotes",
              "type": "uint256"
            }
          ],
          "internalType": "struct GovernorCountingSimple.VoteCounts[]",
          "name": "proposalVoteCountsArrayReturn",
          "type": "tuple[]"
        }
      ],
      "stateMutability": "view",
      "type": "function"
    },
    {
      "inputs": [],
      "name": "allProposalTotalVotesWithoutDeleted",
      "outputs": [
        {
          "internalType": "uint256[]",
          "name": "proposalIdsReturn",
          "type": "uint256[]"
        },
        {
          "components": [
            {
              "internalType": "uint256",
              "name": "forVotes",
              "type": "uint256"
            },
            {
              "internalType": "uint256",
              "name": "againstVotes",
              "type": "uint256"
            }
          ],
          "internalType": "struct GovernorCountingSimple.VoteCounts[]",
          "name": "proposalVoteCountsArrayReturn",
          "type": "tuple[]"
        }
      ],
      "stateMutability": "view",
      "type": "function"
    },
    {
      "inputs": [],
      "name": "cancel",
      "outputs": [],
      "stateMutability": "nonpayable",
      "type": "function"
    },
    {
      "inputs": [
        {
          "internalType": "uint256",
          "name": "proposalId",
          "type": "uint256"
        },
        {
          "internalType": "uint8",
          "name": "support",
          "type": "uint8"
        },
        {
          "internalType": "uint256",
          "name": "numVotes",
          "type": "uint256"
        }
      ],
      "name": "castVote",
      "outputs": [
        {
          "internalType": "uint256",
          "name": "",
          "type": "uint256"
        }
      ],
      "stateMutability": "nonpayable",
      "type": "function"
    },
    {
      "inputs": [
        {
          "internalType": "uint256",
          "name": "proposalId",
          "type": "uint256"
        },
        {
          "internalType": "uint8",
          "name": "support",
          "type": "uint8"
        },
        {
          "internalType": "uint256",
          "name": "numVotes",
          "type": "uint256"
        },
        {
          "internalType": "uint8",
          "name": "v",
          "type": "uint8"
        },
        {
          "internalType": "bytes32",
          "name": "r",
          "type": "bytes32"
        },
        {
          "internalType": "bytes32",
          "name": "s",
          "type": "bytes32"
        }
      ],
      "name": "castVoteBySig",
      "outputs": [
        {
          "internalType": "uint256",
          "name": "",
          "type": "uint256"
        }
      ],
      "stateMutability": "nonpayable",
      "type": "function"
    },
    {
      "inputs": [
        {
          "internalType": "uint256",
          "name": "proposalId",
          "type": "uint256"
        },
        {
          "internalType": "uint8",
          "name": "support",
          "type": "uint8"
        },
        {
          "internalType": "uint256",
          "name": "numVotes",
          "type": "uint256"
        },
        {
          "internalType": "string",
          "name": "reason",
          "type": "string"
        }
      ],
      "name": "castVoteWithReason",
      "outputs": [
        {
          "internalType": "uint256",
          "name": "",
          "type": "uint256"
        }
      ],
      "stateMutability": "nonpayable",
      "type": "function"
    },
    {
      "inputs": [
        {
          "internalType": "address",
          "name": "userAddress",
          "type": "address"
        }
      ],
      "name": "contestAddressTotalVotesCast",
      "outputs": [
        {
          "internalType": "uint256",
          "name": "totalVotesCast",
          "type": "uint256"
        }
      ],
      "stateMutability": "view",
      "type": "function"
    },
    {
      "inputs": [],
      "name": "contestDeadline",
      "outputs": [
        {
          "internalType": "uint256",
          "name": "",
          "type": "uint256"
        }
      ],
      "stateMutability": "view",
      "type": "function"
    },
    {
      "inputs": [],
      "name": "contestSnapshot",
      "outputs": [
        {
          "internalType": "uint256",
          "name": "",
          "type": "uint256"
        }
      ],
      "stateMutability": "view",
      "type": "function"
    },
    {
      "inputs": [],
      "name": "contestStart",
      "outputs": [
        {
          "internalType": "uint256",
          "name": "",
          "type": "uint256"
        }
      ],
      "stateMutability": "view",
      "type": "function"
    },
    {
      "inputs": [],
      "name": "creator",
      "outputs": [
        {
          "internalType": "address",
          "name": "",
          "type": "address"
        }
      ],
      "stateMutability": "view",
      "type": "function"
    },
    {
      "inputs": [
        {
          "internalType": "uint256[]",
          "name": "proposalIds",
          "type": "uint256[]"
        }
      ],
      "name": "deleteProposals",
      "outputs": [],
      "stateMutability": "nonpayable",
      "type": "function"
    },
    {
      "inputs": [],
      "name": "downvotingAllowed",
      "outputs": [
        {
          "internalType": "uint256",
          "name": "",
          "type": "uint256"
        }
      ],
      "stateMutability": "view",
      "type": "function"
    },
    {
      "inputs": [],
      "name": "getAllProposalIds",
      "outputs": [
        {
          "internalType": "uint256[]",
          "name": "",
          "type": "uint256[]"
        }
      ],
      "stateMutability": "view",
      "type": "function"
    },
    {
      "inputs": [
        {
          "internalType": "address",
          "name": "account",
          "type": "address"
        }
      ],
      "name": "getCurrentSubmissionTokenVotes",
      "outputs": [
        {
          "internalType": "uint256",
          "name": "",
          "type": "uint256"
        }
      ],
      "stateMutability": "view",
      "type": "function"
    },
    {
      "inputs": [
        {
          "internalType": "address",
          "name": "account",
          "type": "address"
        }
      ],
      "name": "getCurrentVotes",
      "outputs": [
        {
          "internalType": "uint256",
          "name": "",
          "type": "uint256"
        }
      ],
      "stateMutability": "view",
      "type": "function"
    },
    {
      "inputs": [
        {
          "internalType": "address",
          "name": "account",
          "type": "address"
        }
      ],
      "name": "getNumSubmissions",
      "outputs": [
        {
          "internalType": "uint256",
          "name": "",
          "type": "uint256"
        }
      ],
      "stateMutability": "view",
      "type": "function"
    },
    {
      "inputs": [
        {
          "internalType": "uint256",
          "name": "proposalId",
          "type": "uint256"
        }
      ],
      "name": "getProposal",
      "outputs": [
        {
          "components": [
            {
              "internalType": "address",
              "name": "author",
              "type": "address"
            },
            {
              "internalType": "string",
              "name": "description",
              "type": "string"
            },
            {
              "internalType": "bool",
              "name": "exists",
              "type": "bool"
            }
          ],
          "internalType": "struct Governor.ProposalCore",
          "name": "",
          "type": "tuple"
        }
      ],
      "stateMutability": "view",
      "type": "function"
    },
    {
      "inputs": [
        {
          "internalType": "address",
          "name": "account",
          "type": "address"
        },
        {
          "internalType": "uint256",
          "name": "timestamp",
          "type": "uint256"
        }
      ],
      "name": "getVotes",
      "outputs": [
        {
          "internalType": "uint256",
          "name": "",
          "type": "uint256"
        }
      ],
      "stateMutability": "view",
      "type": "function"
    },
    {
      "inputs": [
        {
          "internalType": "string",
          "name": "proposalDescription",
          "type": "string"
        }
      ],
      "name": "hashProposal",
      "outputs": [
        {
          "internalType": "uint256",
          "name": "",
          "type": "uint256"
        }
      ],
      "stateMutability": "pure",
      "type": "function"
    },
    {
      "inputs": [
        {
          "internalType": "uint256",
          "name": "proposalId",
          "type": "uint256"
        }
      ],
      "name": "isProposalDeleted",
      "outputs": [
        {
          "internalType": "uint256",
          "name": "",
          "type": "uint256"
        }
      ],
      "stateMutability": "view",
      "type": "function"
    },
    {
      "inputs": [],
      "name": "maxProposalCount",
      "outputs": [
        {
          "internalType": "uint256",
          "name": "",
          "type": "uint256"
        }
      ],
      "stateMutability": "view",
      "type": "function"
    },
    {
      "inputs": [],
      "name": "name",
      "outputs": [
        {
          "internalType": "string",
          "name": "",
          "type": "string"
        }
      ],
      "stateMutability": "view",
      "type": "function"
    },
    {
      "inputs": [],
      "name": "numAllowedProposalSubmissions",
      "outputs": [
        {
          "internalType": "uint256",
          "name": "",
          "type": "uint256"
        }
      ],
      "stateMutability": "view",
      "type": "function"
    },
    {
      "inputs": [],
      "name": "officialRewardsModule",
      "outputs": [
        {
          "internalType": "contract RewardsModule",
          "name": "",
          "type": "address"
        }
      ],
      "stateMutability": "view",
      "type": "function"
    },
    {
      "inputs": [],
      "name": "prompt",
      "outputs": [
        {
          "internalType": "string",
          "name": "",
          "type": "string"
        }
      ],
      "stateMutability": "view",
      "type": "function"
    },
    {
      "inputs": [
        {
          "internalType": "uint256",
          "name": "proposalId",
          "type": "uint256"
        },
        {
          "internalType": "address",
          "name": "userAddress",
          "type": "address"
        }
      ],
      "name": "proposalAddressVotes",
      "outputs": [
        {
          "internalType": "uint256",
          "name": "forVotes",
          "type": "uint256"
        },
        {
          "internalType": "uint256",
          "name": "againstVotes",
          "type": "uint256"
        }
      ],
      "stateMutability": "view",
      "type": "function"
    },
    {
      "inputs": [
        {
          "internalType": "uint256",
          "name": "proposalId",
          "type": "uint256"
        }
      ],
      "name": "proposalAddressesHaveVoted",
      "outputs": [
        {
          "internalType": "address[]",
          "name": "",
          "type": "address[]"
        }
      ],
      "stateMutability": "view",
      "type": "function"
    },
    {
      "inputs": [],
      "name": "proposalThreshold",
      "outputs": [
        {
          "internalType": "uint256",
          "name": "",
          "type": "uint256"
        }
      ],
      "stateMutability": "view",
      "type": "function"
    },
    {
      "inputs": [
        {
          "internalType": "uint256",
          "name": "proposalId",
          "type": "uint256"
        }
      ],
      "name": "proposalVotes",
      "outputs": [
        {
          "internalType": "uint256",
          "name": "forVotes",
          "type": "uint256"
        },
        {
          "internalType": "uint256",
          "name": "againstVotes",
          "type": "uint256"
        }
      ],
      "stateMutability": "view",
      "type": "function"
    },
    {
      "inputs": [
        {
          "internalType": "string",
          "name": "proposalDescription",
          "type": "string"
        }
      ],
      "name": "propose",
      "outputs": [
        {
          "internalType": "uint256",
          "name": "",
          "type": "uint256"
        }
      ],
      "stateMutability": "nonpayable",
      "type": "function"
    },
    {
      "inputs": [
        {
          "internalType": "bool",
          "name": "excludeDeletedProposals",
          "type": "bool"
        }
      ],
      "name": "rankedProposals",
      "outputs": [
        {
          "internalType": "uint256[]",
          "name": "sortedProposalIdsReturn",
          "type": "uint256[]"
        }
      ],
      "stateMutability": "view",
      "type": "function"
    },
    {
      "inputs": [
        {
          "internalType": "contract RewardsModule",
          "name": "officialRewardsModule_",
          "type": "address"
        }
      ],
      "name": "setOfficialRewardsModule",
      "outputs": [],
      "stateMutability": "nonpayable",
      "type": "function"
    },
    {
      "inputs": [],
      "name": "state",
      "outputs": [
        {
          "internalType": "enum IGovernor.ContestState",
          "name": "",
          "type": "uint8"
        }
      ],
      "stateMutability": "view",
      "type": "function"
    },
    {
      "inputs": [],
      "name": "submissionGatingByVotingToken",
      "outputs": [
        {
          "internalType": "uint256",
          "name": "",
          "type": "uint256"
        }
      ],
      "stateMutability": "view",
      "type": "function"
    },
    {
      "inputs": [],
      "name": "submissionToken",
      "outputs": [
        {
          "internalType": "contract IVotesTimestamp",
          "name": "",
          "type": "address"
        }
      ],
      "stateMutability": "view",
      "type": "function"
    },
    {
      "inputs": [
        {
          "internalType": "bytes4",
          "name": "interfaceId",
          "type": "bytes4"
        }
      ],
      "name": "supportsInterface",
      "outputs": [
        {
          "internalType": "bool",
          "name": "",
          "type": "bool"
        }
      ],
      "stateMutability": "view",
      "type": "function"
    },
    {
      "inputs": [],
      "name": "token",
      "outputs": [
        {
          "internalType": "contract IVotesTimestamp",
          "name": "",
          "type": "address"
        }
      ],
      "stateMutability": "view",
      "type": "function"
    },
    {
      "inputs": [],
      "name": "version",
      "outputs": [
        {
          "internalType": "string",
          "name": "",
          "type": "string"
        }
      ],
      "stateMutability": "view",
      "type": "function"
    },
    {
      "inputs": [],
      "name": "voteStart",
      "outputs": [
        {
          "internalType": "uint256",
          "name": "",
          "type": "uint256"
        }
      ],
      "stateMutability": "view",
      "type": "function"
    },
    {
      "inputs": [],
      "name": "votingDelay",
      "outputs": [
        {
          "internalType": "uint256",
          "name": "",
          "type": "uint256"
        }
      ],
      "stateMutability": "view",
      "type": "function"
    },
    {
      "inputs": [],
      "name": "votingPeriod",
      "outputs": [
        {
          "internalType": "uint256",
          "name": "",
          "type": "uint256"
        }
      ],
      "stateMutability": "view",
      "type": "function"
    },
    {
      "stateMutability": "payable",
      "type": "receive"
    }
  ],
  "bytecode": "0x6101806040523480156200001257600080fd5b5060405162003a4b38038062003a4b8339810160408190526200003591620007b4565b8282826000815181106200005957634e487b7160e01b600052603260045260246000fd5b6020026020010151836001815181106200008357634e487b7160e01b600052603260045260246000fd5b602002602001015184600281518110620000ad57634e487b7160e01b600052603260045260246000fd5b602002602001015185600381518110620000d757634e487b7160e01b600052603260045260246000fd5b6020026020010151866004815181106200010157634e487b7160e01b600052603260045260246000fd5b6020026020010151876005815181106200012b57634e487b7160e01b600052603260045260246000fd5b6020026020010151886006815181106200015557634e487b7160e01b600052603260045260246000fd5b6020026020010151896007815181106200017f57634e487b7160e01b600052603260045260246000fd5b60200260200101518a600881518110620001a957634e487b7160e01b600052603260045260246000fd5b60200260200101518f8f81620001c46200032e60201b60201c565b815160208084019190912082518383012060e08290526101008190524660a0818152604080517f8b73c3c69bb8fe3d512ecc4cf759cc79239f7b179b0ffacaa9a75d522b39400f81880181905281830187905260608201869052608082019490945230818401528151808203909301835260c00190528051940193909320919290916080523060601b60c05261012052505083516200026d925060029150602085019062000660565b5080516200028390600390602084019062000660565b50505062000297896200034960201b60201c565b620002a2886200038a565b620002ad87620003cb565b620002b88662000471565b620002c385620004b2565b620002ce84620004f3565b620002d98362000534565b620002e48262000575565b620002ef81620005b6565b620002fa33620005f7565b5050506001600160601b0319606098891b8116610140529690971b90951661016052506200095d9950505050505050505050565b6040805180820190915260018152603160f81b602082015290565b60075460408051918252602082018390527fd299feb1d7d9345a48559601c471c3be7eea9a11f21d5e86809198f40a974db4910160405180910390a1600755565b60085460408051918252602082018390527fc565b045403dc03c2eea82b81a0465edad9e2e7fc4d97e11421c209da93d7a93910160405180910390a1600855565b60008111620004305760405162461bcd60e51b815260206004820152602760248201527f476f7665726e6f7253657474696e67733a20766f74696e6720706572696f6420604482015266746f6f206c6f7760c81b606482015260840160405180910390fd5b60095460408051918252602082018390527f7e3f7f0708a84de9203036abaa450dccc85ad5ff52f78c170f3edb55cf5e8828910160405180910390a1600955565b600a5460408051918252602082018390527f70d92b9b65fcaa7708049081fd0ad601c9af76bd86d38df0337dfce3d025ec83910160405180910390a1600a55565b600b5460408051918252602082018390527fccb45da8d5717e6c4544694297c4ba5cf151d455c9bb0ed4fc7a38411bc05461910160405180910390a1600b55565b600c5460408051918252602082018390527fe971b819c7fb95c72451f557226aceb5baaf4994a9d39a79bbfa0040e87500b9910160405180910390a1600c55565b600d5460408051918252602082018390527f4984ec996723330ee95979ed65a2a4b41edd914e68a187efe92596474643bdff910160405180910390a1600d55565b600e5460408051918252602082018390527f9c7b27f091caef3a83be73d89320404fa0c4a52993685ff0651672e49e6e55ab910160405180910390a1600e55565b600f5460408051918252602082018390527f5f16486d27561553b443370316cba86e966b1e5ec1691fa07c81944abf314441910160405180910390a1600f55565b601054604080516001600160a01b03928316815291831660208301527fc30034fc2e9697980e08935bbc287db3eaa44a4aa113ef4c108b356adbf911ce910160405180910390a1601080546001600160a01b0319166001600160a01b0392909216919091179055565b8280546200066e906200090a565b90600052602060002090601f016020900481019282620006925760008555620006dd565b82601f10620006ad57805160ff1916838001178555620006dd565b82800160010185558215620006dd579182015b82811115620006dd578251825591602001919060010190620006c0565b50620006eb929150620006ef565b5090565b5b80821115620006eb5760008155600101620006f0565b80516001600160a01b03811681146200071e57600080fd5b919050565b600082601f83011262000734578081fd5b81516001600160401b0381111562000750576200075062000947565b602062000766601f8301601f19168201620008d7565b82815285828487010111156200077a578384fd5b835b83811015620007995785810183015182820184015282016200077c565b83811115620007aa57848385840101525b5095945050505050565b600080600080600060a08688031215620007cc578081fd5b85516001600160401b0380821115620007e3578283fd5b620007f189838a0162000723565b965060209150818801518181111562000808578384fd5b620008168a828b0162000723565b965050620008276040890162000706565b9450620008376060890162000706565b93506080880151818111156200084b578384fd5b8801601f81018a136200085c578384fd5b80518281111562000871576200087162000947565b8060051b925062000884848401620008d7565b8181528481019083860185850187018e10156200089f578788fd5b8795505b83861015620008c3578051835260019590950194918601918601620008a3565b508096505050505050509295509295909350565b604051601f8201601f191681016001600160401b038111828210171562000902576200090262000947565b604052919050565b600181811c908216806200091f57607f821691505b602082108114156200094157634e487b7160e01b600052602260045260246000fd5b50919050565b634e487b7160e01b600052604160045260246000fd5b60805160a05160c05160601c60e05161010051610120516101405160601c6101605160601c61306a620009e1600039600081816103bd0152611e0201526000818161088b01528181611ea10152611f710152600061251e0152600061256d01526000612548015260006124a1015260006124cb015260006124f5015261306a6000f3fe60806040526004361061026a5760003560e01c8063aa98df3911610144578063deaaa7cc116100b6578063f0a7db0a1161007a578063f0a7db0a146107ef578063f23ffcd31461080f578063f36310b11461082f578063f4f3d7ec14610844578063fb9bf8d414610864578063fc0c546a1461087957600080fd5b8063deaaa7cc1461074f578063e031535b14610783578063ea8a1af014610798578063eb9019d4146107ad578063efa90d36146107cd57600080fd5b8063bd65e80a11610108578063bd65e80a14610665578063c19d93fb14610685578063c7f758a8146106a7578063d17ad2d4146106d4578063d45a010b146106f4578063dd4e2ba51461070957600080fd5b8063aa98df39146105ad578063aec116b6146105cd578063b323580d14610603578063b4b5ea5714610630578063b58131b01461065057600080fd5b806350a5e524116101dd57806360506ff6116101a157806360506ff6146104e15780636e4eb810146104f6578063785ddfe5146105455780637c65d71114610563578063832009af146105785780639c0281761461058d57600080fd5b806350a5e524146103ff578063540a919014610422578063544ffc9c1461043757806354fd4d50146104815780635f953a03146104ab57600080fd5b80631566f60d1161022f5780631566f60d14610334578063262e59e9146103545780633932abb1146103695780633b6d199b1461037e5780634367aa40146103ab578063462a2ad8146103df57600080fd5b80624114a81461027857806301ffc9a7146102a057806302a251a3146102d057806302d05d3f146102e557806306fdde031461031257600080fd5b3661027357005b005b600080fd5b34801561028457600080fd5b5061028d6108ad565b6040519081526020015b60405180910390f35b3480156102ac57600080fd5b506102c06102bb366004612a6a565b6108bd565b6040519015158152602001610297565b3480156102dc57600080fd5b5061028d6108f4565b3480156102f157600080fd5b506102fa6108ff565b6040516001600160a01b039091168152602001610297565b34801561031e57600080fd5b50610327610913565b6040516102979190612e05565b34801561034057600080fd5b5061028d61034f366004612bb2565b6109a5565b34801561036057600080fd5b5061028d6109f9565b34801561037557600080fd5b5061028d610a15565b34801561038a57600080fd5b5061028d610399366004612b1f565b60009081526001602052604090205490565b3480156103b757600080fd5b506102fa7f000000000000000000000000000000000000000000000000000000000000000081565b3480156103eb57600080fd5b5061028d6103fa36600461295b565b610a20565b34801561040b57600080fd5b50610414610a2b565b604051610297929190612d7d565b34801561042e57600080fd5b50600a5461028d565b34801561044357600080fd5b5061046c610452366004612b1f565b600090815260126020526040902080546001909101549091565b60408051928352602083019190915201610297565b34801561048d57600080fd5b506040805180820190915260018152603160f81b6020820152610327565b3480156104b757600080fd5b5061028d6104c636600461295b565b6001600160a01b031660009081526006602052604090205490565b3480156104ed57600080fd5b5061028d610b5c565b34801561050257600080fd5b5061046c610511366004612b4f565b60008281526012602090815260408083206001600160a01b0385168452600301909152902080546001909101549250929050565b34801561055157600080fd5b506013546001600160a01b03166102fa565b34801561056f57600080fd5b50610327610b67565b34801561058457600080fd5b5061028d610b76565b34801561059957600080fd5b5061028d6105a8366004612b7e565b610b81565b3480156105b957600080fd5b5061028d6105c8366004612a92565b610bae565b3480156105d957600080fd5b5061028d6105e836600461295b565b6001600160a01b031660009081526011602052604090205490565b34801561060f57600080fd5b5061062361061e366004612b1f565b61113b565b6040516102979190612d1d565b34801561063c57600080fd5b5061028d61064b36600461295b565b6111ad565b34801561065c57600080fd5b5061028d6111b8565b34801561067157600080fd5b5061028d610680366004612a92565b6111c3565b34801561069157600080fd5b5061069a6111f4565b6040516102979190612ddd565b3480156106b357600080fd5b506106c76106c2366004612b1f565b611248565b6040516102979190612e18565b3480156106e057600080fd5b5061028d6106ef366004612c41565b61134c565b34801561070057600080fd5b506104146113e2565b34801561071557600080fd5b5060408051808201909152601881527f737570706f72743d627261766f2671756f72756d3d666f7200000000000000006020820152610327565b34801561075b57600080fd5b5061028d7f150214d74d59b7d1e90c73fc22ef3d991dd0a76b046543d4d80ab92d2a50328f81565b34801561078f57600080fd5b5061028d6115bd565b3480156107a457600080fd5b506102716115cf565b3480156107b957600080fd5b5061028d6107c8366004612977565b6116d5565b3480156107d957600080fd5b506107e26116e1565b6040516102979190612d6a565b3480156107fb57600080fd5b5061027161080a3660046129a2565b611738565b34801561081b57600080fd5b506107e261082a366004612a4a565b6119ba565b34801561083b57600080fd5b5061028d611b1f565b34801561085057600080fd5b5061027161085f36600461295b565b611b2a565b34801561087057600080fd5b5061028d611bc5565b34801561088557600080fd5b506102fa7f000000000000000000000000000000000000000000000000000000000000000081565b60006108b860075490565b905090565b60006001600160e01b031982166333d3a7df60e21b14806108ee57506301ffc9a760e01b6001600160e01b03198316145b92915050565b60006108b860095490565b60006108b86010546001600160a01b031690565b60606002805461092290612f60565b80601f016020809104026020016040519081016040528092919081815260200182805461094e90612f60565b801561099b5780601f106109705761010080835404028352916020019161099b565b820191906000526020600020905b81548152906001019060200180831161097e57829003601f168201915b5050505050905090565b6000803390506109ee8782888888888080601f016020809104026020016040519081016040528093929190818152602001838380828437600092019190915250611bd092505050565b979650505050505050565b6000610a036108f4565b610a0b6115bd565b6108b89190612ef2565b60006108b860085490565b60006108ee82611de0565b6060806000610a386116e1565b90506000815167ffffffffffffffff811115610a6457634e487b7160e01b600052604160045260246000fd5b604051908082528060200260200182016040528015610aa957816020015b6040805180820190915260008082526020820152815260200190600190039081610a825790505b50905060005b8251811015610b525760126000848381518110610adc57634e487b7160e01b600052603260045260246000fd5b6020026020010151815260200190815260200160002060000160405180604001604052908160008201548152602001600182015481525050828281518110610b3457634e487b7160e01b600052603260045260246000fd5b60200260200101819052508080610b4a90612f9b565b915050610aaf565b5090939092509050565b60006108b8600e5490565b60606003805461092290612f60565b60006108b8600c5490565b600080339050610ba38582868660405180602001604052806000815250611bd0565b9150505b9392505050565b60006002610bba6111f4565b6003811115610bd957634e487b7160e01b600052602160045260246000fd5b14610c515760405162461bcd60e51b815260206004820152603e60248201527f476f7665726e6f723a20636f6e74657374206d7573742062652071756575656460448201527f20666f722070726f706f73616c7320746f206265207375626d6974746564000060648201526084015b60405180910390fd5b610c59610b76565b3360009081526006602052604090205410610d025760405162461bcd60e51b815260206004820152605d60248201527f476f7665726e6f723a207468652073616d652063616e6e6f74207375626d697460448201527f206d6f7265207468616e20746865206e756d416c6c6f77656450726f706f736160648201527f6c5375626d697373696f6e7320666f72207468697320636f6e74657374000000608482015260a401610c48565b610d0a611bc5565b60005410610d805760405162461bcd60e51b815260206004820152603960248201527f476f7665726e6f723a20746865206d6178206e756d626572206f662070726f7060448201527f6f73616c732068617665206265656e207375626d6974746564000000000000006064820152608401610c48565b610d88611b1f565b60011415610e2657610d986111b8565b610da1336111ad565b1015610e215760405162461bcd60e51b815260206004820152604360248201527f476f7665726e6f72436f6d7061746962696c697479427261766f3a2070726f7060448201527f6f73657220766f7465732062656c6f772070726f706f73616c207468726573686064820152621bdb1960ea1b608482015260a401610c48565b610f5d565b610e2e611b1f565b610edd57610e3a6111b8565b610e4333610a20565b1015610e215760405162461bcd60e51b815260206004820152605b60248201527f476f7665726e6f72436f6d7061746962696c697479427261766f3a2070726f7060448201527f6f736572207375626d697373696f6e20676174696e6720746f6b656e20766f7460648201527f65732062656c6f772070726f706f73616c207468726573686f6c640000000000608482015260a401610c48565b60405162461bcd60e51b815260206004820152604960248201527f7375626d697373696f6e476174696e674279566f74696e67546f6b656e206d7560448201527f73742062652073657420746f20656974686572207472756520283129206f722060648201526866616c73652028302960b81b608482015260a401610c48565b8151610fab5760405162461bcd60e51b815260206004820152601860248201527f476f7665726e6f723a20656d7074792070726f706f73616c00000000000000006044820152606401610c48565b6000610fb6836111c3565b60008181526005602052604090206002015490915060ff161561102d5760405162461bcd60e51b815260206004820152602960248201527f476f7665726e6f723a206475706c69636174652070726f706f73616c73206e6f6044820152681d08185b1b1bddd95960ba1b6064820152608401610c48565b60008054600180820183557f290decd9548b62a8d60345a988386fc84ba6bc95484008f6362f93160ef3e5639091018390556040805160608101825233815260208082018881528284018590528686526005825292909420815181546001600160a01b0319166001600160a01b0390911617815591518051919492936110b993908501929101906128ac565b50604091820151600291909101805460ff191691151591909117905533600090815260066020529081208054600192906110f4908490612ef2565b909155507fc8c078bfee58e5822588f08b4509ed1eb5058e03f666cca84dd2d44bf5c288a8905081843360405161112d93929190612e5e565b60405180910390a192915050565b60008181526012602090815260409182902060028101805484518185028101850190955280855260609492938301828280156111a057602002820191906000526020600020905b81546001600160a01b03168152600190910190602001808311611182575b5050505050915050919050565b60006108ee82611e7f565b60006108b8600b5490565b6000816040516020016111d69190612e05565b60408051601f19818403018152919052805160209091012092915050565b60045460009060ff16156112085750600190565b60006112126115bd565b905042811061122357600291505090565b600061122d6109f9565b905042811061123f5760009250505090565b60039250505090565b611277604051806060016040528060006001600160a01b03168152602001606081526020016000151581525090565b60008281526005602090815260409182902082516060810190935280546001600160a01b0316835260018101805491928401916112b390612f60565b80601f01602080910402602001604051908101604052809291908181526020018280546112df90612f60565b801561132c5780601f106113015761010080835404028352916020019161132c565b820191906000526020600020905b81548152906001019060200180831161130f57829003601f168201915b50505091835250506002919091015460ff16151560209091015292915050565b604080517f150214d74d59b7d1e90c73fc22ef3d991dd0a76b046543d4d80ab92d2a50328f602082015290810187905260ff8616606082015260009081906113b8906113b09060800160405160208183030381529060405280519060200120611ed2565b868686611f20565b90506113d68882898960405180602001604052806000815250611bd0565b98975050505050505050565b60608060006113ef6116e1565b905060606000825167ffffffffffffffff81111561141d57634e487b7160e01b600052604160045260246000fd5b60405190808252806020026020018201604052801561146257816020015b604080518082019091526000808252602082015281526020019060019003908161143b5790505b5090506000805b84518110156115b1576114af85828151811061149557634e487b7160e01b600052603260045260246000fd5b602002602001015160009081526001602052604090205490565b60011461159f578481815181106114d657634e487b7160e01b600052603260045260246000fd5b60200260200101518483815181106114fe57634e487b7160e01b600052603260045260246000fd5b6020026020010181815250506012600086838151811061152e57634e487b7160e01b600052603260045260246000fd5b602002602001015181526020019081526020016000206000016040518060400160405290816000820154815260200160018201548152505083838151811061158657634e487b7160e01b600052603260045260246000fd5b602090810291909101015261159c600183612ef2565b91505b806115a981612f9b565b915050611469565b50919590945092505050565b60006115c7610a15565b610a0b6108ad565b6115d76108ff565b6001600160a01b0316336001600160a01b0316146115f457600080fd5b60006115fe6111f4565b9050600181600381111561162257634e487b7160e01b600052602160045260246000fd5b141580156116505750600381600381111561164d57634e487b7160e01b600052602160045260246000fd5b14155b61169c5760405162461bcd60e51b815260206004820152601c60248201527f476f7665726e6f723a20636f6e74657374206e6f7420616374697665000000006044820152606401610c48565b6004805460ff191660011790556040517f4cd963a081760a54f571abc0f1db4dde31b4a07d8d6da3e844b8c6f47eeaaa4290600090a150565b6000610ba78383611f48565b6060600080548060200260200160405190810160405280929190818152602001828054801561099b57602002820191906000526020600020905b81548152602001906001019080831161171b575050505050905090565b6117406108ff565b6001600160a01b0316336001600160a01b0316146117c65760405162461bcd60e51b815260206004820152603760248201527f476f7665726e6f723a206f6e6c792074686520636f6e7465737420637265617460448201527f6f722063616e2064656c6574652070726f706f73616c730000000000000000006064820152608401610c48565b60036117d06111f4565b60038111156117ef57634e487b7160e01b600052602160045260246000fd5b14156118755760405162461bcd60e51b815260206004820152604960248201527f476f7665726e6f723a2064656c6574696f6e206f662070726f706f73616c732060448201527f61667465722074686520656e64206f66206120636f6e74657374206973206e6f6064820152681d08185b1b1bddd95960ba1b608482015260a401610c48565b60005b815181101561197f57600160008383815181106118a557634e487b7160e01b600052603260045260246000fd5b602002602001015181526020019081526020016000205460011461196d5760018060008484815181106118e857634e487b7160e01b600052603260045260246000fd5b60200260200101518152602001908152602001600020819055506040518060600160405280603d8152602001612ff8603d91396005600084848151811061193f57634e487b7160e01b600052603260045260246000fd5b60200260200101518152602001908152602001600020600101908051906020019061196b9291906128ac565b505b8061197781612f9b565b915050611878565b507f75a75cf5c561892f4cc5b26c1b8e933849b42238c96dd073d080d1ae96c51416816040516119af9190612d6a565b60405180910390a150565b6060600080836119d1576119cc610a2b565b6119d9565b6119d96113e2565b915091506000825167ffffffffffffffff811115611a0757634e487b7160e01b600052604160045260246000fd5b604051908082528060200260200182016040528015611a30578160200160208202803683370190505b50905060005b8251811015611ade57828181518110611a5f57634e487b7160e01b600052603260045260246000fd5b602002602001015160200151838281518110611a8b57634e487b7160e01b600052603260045260246000fd5b602002602001015160000151611aa19190612f0a565b828281518110611ac157634e487b7160e01b600052603260045260246000fd5b602090810291909101015280611ad681612f9b565b915050611a36565b5060005b60018451611af09190612f49565b811015611b1557611b02818386611fed565b5080611b0d81612f9b565b915050611ae2565b5091949350505050565b60006108b8600f5490565b611b326108ff565b6001600160a01b0316336001600160a01b031614611b4f57600080fd5b6000611b636013546001600160a01b031690565b601380546001600160a01b0319166001600160a01b0385811691821790925560408051928416835260208301919091529192507f753a2cf8d360cff631674504210913e48247f8e56b3e6d2006c2103d4095999f910160405180910390a15050565b60006108b8600d5490565b600080611bdb6111f4565b6003811115611bfa57634e487b7160e01b600052602160045260246000fd5b14611c535760405162461bcd60e51b815260206004820152602360248201527f476f7665726e6f723a20766f7465206e6f742063757272656e746c792061637460448201526269766560e81b6064820152608401610c48565b60008311611cc95760405162461bcd60e51b815260206004820152603760248201527f476f7665726e6f72566f74696e6753696d706c653a2063616e6e6f7420766f7460448201527f6520776974682030206f7220666577657220766f7465730000000000000000006064820152608401610c48565b6000611cd8866107c8600a5490565b905060008111611d825760405162461bcd60e51b815260206004820152606360248201527f476f7665726e6f72566f74696e6753696d706c653a20796f75206d757374206860448201527f6176652067726561746572207468616e20302064656c65676174656420766f7460648201527f65732061742074686520736e617073686f7420696e206f7264657220746f20766084820152626f746560e81b60a482015260c401610c48565b611d8f87878787856121e0565b856001600160a01b03167fb8e138887d0aa13bab447e82de9d5c1777041ecd21ca36ba824ff1e6c07ddda488878787604051611dce9493929190612e8f565b60405180910390a29695505050505050565b6040516309ab24eb60e41b81526001600160a01b0382811660048301526000917f000000000000000000000000000000000000000000000000000000000000000090911690639ab24eb0906024015b60206040518083038186803b158015611e4757600080fd5b505afa158015611e5b573d6000803e3d6000fd5b505050506040513d601f19601f820116820180604052508101906108ee9190612b37565b6040516309ab24eb60e41b81526001600160a01b0382811660048301526000917f000000000000000000000000000000000000000000000000000000000000000090911690639ab24eb090602401611e2f565b60006108ee611edf612494565b8360405161190160f01b6020820152602281018390526042810182905260009060620160405160208183030381529060405280519060200120905092915050565b6000806000611f31878787876125bb565b91509150611f3e816126a8565b5095945050505050565b604051630748d63560e31b81526001600160a01b038381166004830152602482018390526000917f000000000000000000000000000000000000000000000000000000000000000090911690633a46b1a89060440160206040518083038186803b158015611fb557600080fd5b505afa158015611fc9573d6000803e3d6000fd5b505050506040513d601f19601f82011682018060405250810190610ba79190612b37565b600083805b84518110156120675784828151811061201b57634e487b7160e01b600052603260045260246000fd5b602002602001015185828151811061204357634e487b7160e01b600052603260045260246000fd5b60200260200101511215612055578091505b8061205f81612f9b565b915050611ff2565b508481141561207a576000915050610ba7565b600084868151811061209c57634e487b7160e01b600052603260045260246000fd5b602002602001015190508482815181106120c657634e487b7160e01b600052603260045260246000fd5b60200260200101518587815181106120ee57634e487b7160e01b600052603260045260246000fd5b6020026020010181815250508085838151811061211b57634e487b7160e01b600052603260045260246000fd5b602002602001018181525050600084878151811061214957634e487b7160e01b600052603260045260246000fd5b6020026020010151905084838151811061217357634e487b7160e01b600052603260045260246000fd5b602002602001015185888151811061219b57634e487b7160e01b600052603260045260246000fd5b602002602001018181525050808584815181106121c857634e487b7160e01b600052603260045260246000fd5b60209081029190910101525060019695505050505050565b60008581526012602090815260408083206001600160a01b03881684526011909252909120546122109083612f49565b83111561227b5760405162461bcd60e51b815260206004820152603360248201527f476f7665726e6f72566f74696e6753696d706c653a206e6f7420656e6f756768604482015272081d9bdd195cc81b19599d081d1bc818d85cdd606a1b6064820152608401610c48565b6001600160a01b03851660009081526003820160205260409020541560ff85166122ed578154849083906000906122b3908490612ef2565b90915550506001600160a01b0386166000908152600383016020526040812080548692906122e2908490612ef2565b909155506124279050565b60ff8516600114156123c157612301610b5c565b600114612378576040805162461bcd60e51b81526020600482015260248101919091527f476f7665726e6f72566f74696e6753696d706c653a20646f776e766f74696e6760448201527f206973206e6f7420656e61626c656420666f72207468697320436f6e746573746064820152608401610c48565b8382600001600101600082825461238f9190612ef2565b90915550506001600160a01b0386166000908152600383016020526040812060010180548692906122e2908490612ef2565b60405162461bcd60e51b815260206004820152603560248201527f476f7665726e6f72566f74696e6753696d706c653a20696e76616c69642076616044820152746c756520666f7220656e756d20566f74655479706560581b6064820152608401610c48565b801561245e57600282018054600181018255600091825260209091200180546001600160a01b0319166001600160a01b0388161790555b6001600160a01b03861660009081526011602052604081208054869290612486908490612ef2565b909155505050505050505050565b6000306001600160a01b037f0000000000000000000000000000000000000000000000000000000000000000161480156124ed57507f000000000000000000000000000000000000000000000000000000000000000046145b1561251757507f000000000000000000000000000000000000000000000000000000000000000090565b50604080517f00000000000000000000000000000000000000000000000000000000000000006020808301919091527f0000000000000000000000000000000000000000000000000000000000000000828401527f000000000000000000000000000000000000000000000000000000000000000060608301524660808301523060a0808401919091528351808403909101815260c0909201909252805191012090565b6000807f7fffffffffffffffffffffffffffffff5d576e7357a4501ddfe92f46681b20a08311156125f2575060009050600361269f565b8460ff16601b1415801561260a57508460ff16601c14155b1561261b575060009050600461269f565b6040805160008082526020820180845289905260ff881692820192909252606081018690526080810185905260019060a0016020604051602081039080840390855afa15801561266f573d6000803e3d6000fd5b5050604051601f1901519150506001600160a01b0381166126985760006001925092505061269f565b9150600090505b94509492505050565b60008160048111156126ca57634e487b7160e01b600052602160045260246000fd5b14156126d35750565b60018160048111156126f557634e487b7160e01b600052602160045260246000fd5b14156127435760405162461bcd60e51b815260206004820152601860248201527f45434453413a20696e76616c6964207369676e617475726500000000000000006044820152606401610c48565b600281600481111561276557634e487b7160e01b600052602160045260246000fd5b14156127b35760405162461bcd60e51b815260206004820152601f60248201527f45434453413a20696e76616c6964207369676e6174757265206c656e677468006044820152606401610c48565b60038160048111156127d557634e487b7160e01b600052602160045260246000fd5b141561282e5760405162461bcd60e51b815260206004820152602260248201527f45434453413a20696e76616c6964207369676e6174757265202773272076616c604482015261756560f01b6064820152608401610c48565b600481600481111561285057634e487b7160e01b600052602160045260246000fd5b14156128a95760405162461bcd60e51b815260206004820152602260248201527f45434453413a20696e76616c6964207369676e6174757265202776272076616c604482015261756560f01b6064820152608401610c48565b50565b8280546128b890612f60565b90600052602060002090601f0160209004810192826128da5760008555612920565b82601f106128f357805160ff1916838001178555612920565b82800160010185558215612920579182015b82811115612920578251825591602001919060010190612905565b5061292c929150612930565b5090565b5b8082111561292c5760008155600101612931565b803560ff8116811461295657600080fd5b919050565b60006020828403121561296c578081fd5b8135610ba781612fe2565b60008060408385031215612989578081fd5b823561299481612fe2565b946020939093013593505050565b600060208083850312156129b4578182fd5b823567ffffffffffffffff808211156129cb578384fd5b818501915085601f8301126129de578384fd5b8135818111156129f0576129f0612fcc565b8060051b9150612a01848301612ec1565b8181528481019084860184860187018a1015612a1b578788fd5b8795505b83861015612a3d578035835260019590950194918601918601612a1f565b5098975050505050505050565b600060208284031215612a5b578081fd5b81358015158114610ba7578182fd5b600060208284031215612a7b578081fd5b81356001600160e01b031981168114610ba7578182fd5b60006020808385031215612aa4578182fd5b823567ffffffffffffffff80821115612abb578384fd5b818501915085601f830112612ace578384fd5b813581811115612ae057612ae0612fcc565b612af2601f8201601f19168501612ec1565b91508082528684828501011115612b07578485fd5b80848401858401378101909201929092529392505050565b600060208284031215612b30578081fd5b5035919050565b600060208284031215612b48578081fd5b5051919050565b60008060408385031215612b61578182fd5b823591506020830135612b7381612fe2565b809150509250929050565b600080600060608486031215612b92578081fd5b83359250612ba260208501612945565b9150604084013590509250925092565b600080600080600060808688031215612bc9578081fd5b85359450612bd960208701612945565b935060408601359250606086013567ffffffffffffffff80821115612bfc578283fd5b818801915088601f830112612c0f578283fd5b813581811115612c1d578384fd5b896020828501011115612c2e578384fd5b9699959850939650602001949392505050565b60008060008060008060c08789031215612c59578384fd5b86359550612c6960208801612945565b945060408701359350612c7e60608801612945565b92506080870135915060a087013590509295509295509295565b6000815180845260208085019450808401835b83811015612cc757815187529582019590820190600101612cab565b509495945050505050565b60008151808452815b81811015612cf757602081850181015186830182015201612cdb565b81811115612d085782602083870101525b50601f01601f19169290920160200192915050565b6020808252825182820181905260009190848201906040850190845b81811015612d5e5783516001600160a01b031683529284019291840191600101612d39565b50909695505050505050565b602081526000610ba76020830184612c98565b60006040808352612d9081840186612c98565b838103602085810191909152855180835286820192820190855b81811015612dcf57845180518452840151848401529383019391850191600101612daa565b509098975050505050505050565b6020810160048310612dff57634e487b7160e01b600052602160045260246000fd5b91905290565b602081526000610ba76020830184612cd2565b602080825282516001600160a01b03168282015282015160606040830152600090612e466080840182612cd2565b90506040840151151560608401528091505092915050565b838152606060208201526000612e776060830185612cd2565b905060018060a01b0383166040830152949350505050565b84815260ff84166020820152826040820152608060608201526000612eb76080830184612cd2565b9695505050505050565b604051601f8201601f1916810167ffffffffffffffff81118282101715612eea57612eea612fcc565b604052919050565b60008219821115612f0557612f05612fb6565b500190565b60008083128015600160ff1b850184121615612f2857612f28612fb6565b6001600160ff1b0384018313811615612f4357612f43612fb6565b50500390565b600082821015612f5b57612f5b612fb6565b500390565b600181811c90821680612f7457607f821691505b60208210811415612f9557634e487b7160e01b600052602260045260246000fd5b50919050565b6000600019821415612faf57612faf612fb6565b5060010190565b634e487b7160e01b600052601160045260246000fd5b634e487b7160e01b600052604160045260246000fd5b6001600160a01b03811681146128a957600080fdfe546869732070726f706f73616c20686173206265656e2064656c65746564206279207468652063726561746f72206f662074686520636f6e746573742ea264697066735822122005a10051b0c8ee65a512612a76e9be4d5149de94a4c72ffac6e19fc1cfe7812c64736f6c63430008040033",
  "linkReferences": {},
  "deployedLinkReferences": {}
}