{
  "_format": "hh-sol-artifact-1",
  "contractName": "Contest",
  "sourceName": "contracts/Contest.sol",
  "abi": [
    {
      "inputs": [
        {
          "internalType": "string",
          "name": "_name",
          "type": "string"
        },
        {
          "internalType": "contract IVotes",
          "name": "_token",
          "type": "address"
        },
        {
          "internalType": "uint256",
          "name": "_initialVotingDelay",
          "type": "uint256"
        },
        {
          "internalType": "uint256",
          "name": "_initialVotingPeriod",
          "type": "uint256"
        },
        {
          "internalType": "uint256",
          "name": "_initialProposalThreshold",
          "type": "uint256"
        },
        {
          "internalType": "uint64",
          "name": "_voteStartBlock",
          "type": "uint64"
        },
        {
          "internalType": "uint256",
          "name": "_initialMaxProposalCount",
          "type": "uint256"
        }
      ],
      "stateMutability": "nonpayable",
      "type": "constructor"
    },
    {
      "anonymous": false,
      "inputs": [],
      "name": "ContestCanceled",
      "type": "event"
    },
    {
      "anonymous": false,
      "inputs": [
        {
          "indexed": false,
          "internalType": "uint256",
          "name": "oldMaxProposalCount",
          "type": "uint256"
        },
        {
          "indexed": false,
          "internalType": "uint256",
          "name": "newMaxProposalCount",
          "type": "uint256"
        }
      ],
      "name": "MaxProposalCountSet",
      "type": "event"
    },
    {
      "anonymous": false,
      "inputs": [
        {
          "indexed": false,
          "internalType": "address",
          "name": "oldOwner",
          "type": "address"
        },
        {
          "indexed": false,
          "internalType": "address",
          "name": "newOwner",
          "type": "address"
        }
      ],
      "name": "OwnerSet",
      "type": "event"
    },
    {
      "anonymous": false,
      "inputs": [
        {
          "indexed": false,
          "internalType": "uint256",
          "name": "proposalId",
          "type": "uint256"
        },
        {
          "indexed": false,
          "internalType": "string",
          "name": "description",
          "type": "string"
        },
        {
          "indexed": false,
          "internalType": "address",
          "name": "proposer",
          "type": "address"
        }
      ],
      "name": "ProposalCreated",
      "type": "event"
    },
    {
      "anonymous": false,
      "inputs": [
        {
          "indexed": false,
          "internalType": "uint256",
          "name": "oldProposalThreshold",
          "type": "uint256"
        },
        {
          "indexed": false,
          "internalType": "uint256",
          "name": "newProposalThreshold",
          "type": "uint256"
        }
      ],
      "name": "ProposalThresholdSet",
      "type": "event"
    },
    {
      "anonymous": false,
      "inputs": [
        {
          "indexed": true,
          "internalType": "address",
          "name": "voter",
          "type": "address"
        },
        {
          "indexed": false,
          "internalType": "uint256",
          "name": "proposalId",
          "type": "uint256"
        },
        {
          "indexed": false,
          "internalType": "uint8",
          "name": "support",
          "type": "uint8"
        },
        {
          "indexed": false,
          "internalType": "uint256",
          "name": "numVotes",
          "type": "uint256"
        },
        {
          "indexed": false,
          "internalType": "string",
          "name": "reason",
          "type": "string"
        }
      ],
      "name": "VoteCast",
      "type": "event"
    },
    {
      "anonymous": false,
      "inputs": [
        {
          "indexed": false,
          "internalType": "uint256",
          "name": "oldVoteStartBlock",
          "type": "uint256"
        },
        {
          "indexed": false,
          "internalType": "uint64",
          "name": "newVoteStartBlock",
          "type": "uint64"
        }
      ],
      "name": "VoteStartBlockSet",
      "type": "event"
    },
    {
      "anonymous": false,
      "inputs": [
        {
          "indexed": false,
          "internalType": "uint256",
          "name": "oldVotingDelay",
          "type": "uint256"
        },
        {
          "indexed": false,
          "internalType": "uint256",
          "name": "newVotingDelay",
          "type": "uint256"
        }
      ],
      "name": "VotingDelaySet",
      "type": "event"
    },
    {
      "anonymous": false,
      "inputs": [
        {
          "indexed": false,
          "internalType": "uint256",
          "name": "oldVotingPeriod",
          "type": "uint256"
        },
        {
          "indexed": false,
          "internalType": "uint256",
          "name": "newVotingPeriod",
          "type": "uint256"
        }
      ],
      "name": "VotingPeriodSet",
      "type": "event"
    },
    {
      "inputs": [],
      "name": "BALLOT_TYPEHASH",
      "outputs": [
        {
          "internalType": "bytes32",
          "name": "",
          "type": "bytes32"
        }
      ],
      "stateMutability": "view",
      "type": "function"
    },
    {
      "inputs": [],
      "name": "COUNTING_MODE",
      "outputs": [
        {
          "internalType": "string",
          "name": "",
          "type": "string"
        }
      ],
      "stateMutability": "pure",
      "type": "function"
    },
    {
      "inputs": [
        {
          "internalType": "uint256",
          "name": "",
          "type": "uint256"
        }
      ],
      "name": "_proposalIds",
      "outputs": [
        {
          "internalType": "uint256",
          "name": "",
          "type": "uint256"
        }
      ],
      "stateMutability": "view",
      "type": "function"
    },
    {
      "inputs": [],
      "name": "cancel",
      "outputs": [],
      "stateMutability": "nonpayable",
      "type": "function"
    },
    {
      "inputs": [
        {
          "internalType": "uint256",
          "name": "proposalId",
          "type": "uint256"
        },
        {
          "internalType": "uint8",
          "name": "support",
          "type": "uint8"
        },
        {
          "internalType": "uint256",
          "name": "numVotes",
          "type": "uint256"
        }
      ],
      "name": "castVote",
      "outputs": [
        {
          "internalType": "uint256",
          "name": "",
          "type": "uint256"
        }
      ],
      "stateMutability": "nonpayable",
      "type": "function"
    },
    {
      "inputs": [
        {
          "internalType": "uint256",
          "name": "proposalId",
          "type": "uint256"
        },
        {
          "internalType": "uint8",
          "name": "support",
          "type": "uint8"
        },
        {
          "internalType": "uint256",
          "name": "numVotes",
          "type": "uint256"
        },
        {
          "internalType": "uint8",
          "name": "v",
          "type": "uint8"
        },
        {
          "internalType": "bytes32",
          "name": "r",
          "type": "bytes32"
        },
        {
          "internalType": "bytes32",
          "name": "s",
          "type": "bytes32"
        }
      ],
      "name": "castVoteBySig",
      "outputs": [
        {
          "internalType": "uint256",
          "name": "",
          "type": "uint256"
        }
      ],
      "stateMutability": "nonpayable",
      "type": "function"
    },
    {
      "inputs": [
        {
          "internalType": "uint256",
          "name": "proposalId",
          "type": "uint256"
        },
        {
          "internalType": "uint8",
          "name": "support",
          "type": "uint8"
        },
        {
          "internalType": "uint256",
          "name": "numVotes",
          "type": "uint256"
        },
        {
          "internalType": "string",
          "name": "reason",
          "type": "string"
        }
      ],
      "name": "castVoteWithReason",
      "outputs": [
        {
          "internalType": "uint256",
          "name": "",
          "type": "uint256"
        }
      ],
      "stateMutability": "nonpayable",
      "type": "function"
    },
    {
      "inputs": [
        {
          "internalType": "address",
          "name": "userAddress",
          "type": "address"
        }
      ],
      "name": "contestAddressTotalVotesCast",
      "outputs": [
        {
          "internalType": "uint256",
          "name": "totalVotesCast",
          "type": "uint256"
        }
      ],
      "stateMutability": "view",
      "type": "function"
    },
    {
      "inputs": [],
      "name": "contestDeadline",
      "outputs": [
        {
          "internalType": "uint256",
          "name": "",
          "type": "uint256"
        }
      ],
      "stateMutability": "view",
      "type": "function"
    },
    {
      "inputs": [],
      "name": "contestSnapshot",
      "outputs": [
        {
          "internalType": "uint256",
          "name": "",
          "type": "uint256"
        }
      ],
      "stateMutability": "view",
      "type": "function"
    },
    {
      "inputs": [],
      "name": "contestStart",
      "outputs": [
        {
          "internalType": "uint256",
          "name": "",
          "type": "uint256"
        }
      ],
      "stateMutability": "view",
      "type": "function"
    },
    {
      "inputs": [],
      "name": "getAllProposalIds",
      "outputs": [
        {
          "internalType": "uint256[]",
          "name": "",
          "type": "uint256[]"
        }
      ],
      "stateMutability": "view",
      "type": "function"
    },
    {
      "inputs": [
        {
          "internalType": "uint256",
          "name": "proposalId",
          "type": "uint256"
        }
      ],
      "name": "getProposal",
      "outputs": [
        {
          "components": [
            {
              "internalType": "address",
              "name": "author",
              "type": "address"
            },
            {
              "internalType": "string",
              "name": "description",
              "type": "string"
            },
            {
              "internalType": "bool",
              "name": "exists",
              "type": "bool"
            }
          ],
          "internalType": "struct Governor.ProposalCore",
          "name": "",
          "type": "tuple"
        }
      ],
      "stateMutability": "view",
      "type": "function"
    },
    {
      "inputs": [
        {
          "internalType": "address",
          "name": "account",
          "type": "address"
        },
        {
          "internalType": "uint256",
          "name": "blockNumber",
          "type": "uint256"
        }
      ],
      "name": "getVotes",
      "outputs": [
        {
          "internalType": "uint256",
          "name": "",
          "type": "uint256"
        }
      ],
      "stateMutability": "view",
      "type": "function"
    },
    {
      "inputs": [
        {
          "internalType": "string",
          "name": "proposalDescription",
          "type": "string"
        }
      ],
      "name": "hashProposal",
      "outputs": [
        {
          "internalType": "uint256",
          "name": "",
          "type": "uint256"
        }
      ],
      "stateMutability": "pure",
      "type": "function"
    },
    {
      "inputs": [],
      "name": "maxProposalCount",
      "outputs": [
        {
          "internalType": "uint256",
          "name": "",
          "type": "uint256"
        }
      ],
      "stateMutability": "view",
      "type": "function"
    },
    {
      "inputs": [],
      "name": "name",
      "outputs": [
        {
          "internalType": "string",
          "name": "",
          "type": "string"
        }
      ],
      "stateMutability": "view",
      "type": "function"
    },
    {
      "inputs": [],
      "name": "owner",
      "outputs": [
        {
          "internalType": "address",
          "name": "",
          "type": "address"
        }
      ],
      "stateMutability": "view",
      "type": "function"
    },
    {
      "inputs": [
        {
          "internalType": "uint256",
          "name": "proposalId",
          "type": "uint256"
        },
        {
          "internalType": "address",
          "name": "userAddress",
          "type": "address"
        }
      ],
      "name": "proposalAddressVotes",
      "outputs": [
        {
          "internalType": "uint256",
          "name": "forVotes",
          "type": "uint256"
        }
      ],
      "stateMutability": "view",
      "type": "function"
    },
    {
      "inputs": [
        {
          "internalType": "uint256",
          "name": "proposalId",
          "type": "uint256"
        }
      ],
      "name": "proposalAddressesHaveVoted",
      "outputs": [
        {
          "internalType": "address[]",
          "name": "",
          "type": "address[]"
        }
      ],
      "stateMutability": "view",
      "type": "function"
    },
    {
      "inputs": [],
      "name": "proposalThreshold",
      "outputs": [
        {
          "internalType": "uint256",
          "name": "",
          "type": "uint256"
        }
      ],
      "stateMutability": "view",
      "type": "function"
    },
    {
      "inputs": [
        {
          "internalType": "uint256",
          "name": "proposalId",
          "type": "uint256"
        }
      ],
      "name": "proposalVotes",
      "outputs": [
        {
          "internalType": "uint256",
          "name": "forVotes",
          "type": "uint256"
        }
      ],
      "stateMutability": "view",
      "type": "function"
    },
    {
      "inputs": [
        {
          "internalType": "string",
          "name": "proposalDescription",
          "type": "string"
        }
      ],
      "name": "propose",
      "outputs": [
        {
          "internalType": "uint256",
          "name": "",
          "type": "uint256"
        }
      ],
      "stateMutability": "nonpayable",
      "type": "function"
    },
    {
      "inputs": [],
      "name": "state",
      "outputs": [
        {
          "internalType": "enum IGovernor.ContestState",
          "name": "",
          "type": "uint8"
        }
      ],
      "stateMutability": "view",
      "type": "function"
    },
    {
      "inputs": [
        {
          "internalType": "bytes4",
          "name": "interfaceId",
          "type": "bytes4"
        }
      ],
      "name": "supportsInterface",
      "outputs": [
        {
          "internalType": "bool",
          "name": "",
          "type": "bool"
        }
      ],
      "stateMutability": "view",
      "type": "function"
    },
    {
      "inputs": [],
      "name": "token",
      "outputs": [
        {
          "internalType": "contract IVotes",
          "name": "",
          "type": "address"
        }
      ],
      "stateMutability": "view",
      "type": "function"
    },
    {
      "inputs": [],
      "name": "version",
      "outputs": [
        {
          "internalType": "string",
          "name": "",
          "type": "string"
        }
      ],
      "stateMutability": "view",
      "type": "function"
    },
    {
      "inputs": [],
      "name": "votingDelay",
      "outputs": [
        {
          "internalType": "uint256",
          "name": "",
          "type": "uint256"
        }
      ],
      "stateMutability": "view",
      "type": "function"
    },
    {
      "inputs": [],
      "name": "votingPeriod",
      "outputs": [
        {
          "internalType": "uint256",
          "name": "",
          "type": "uint256"
        }
      ],
      "stateMutability": "view",
      "type": "function"
    },
    {
      "stateMutability": "payable",
      "type": "receive"
    }
  ],
  "bytecode": "0x6101606040523480156200001257600080fd5b50604051620025d5380380620025d58339810160408190526200003591620004cd565b8585858585858c806200005c6040805180820190915260018152603160f81b602082015290565b815160208084019190912082518383012060e08290526101008190524660a0818152604080517f8b73c3c69bb8fe3d512ecc4cf759cc79239f7b179b0ffacaa9a75d522b39400f81880181905281830187905260608201869052608082019490945230818401528151808203909301835260c00190528051940193909320919290916080523060601b60c0526101205250508251620001059250600191506020840190620003f2565b50620001139050856200016e565b6200011e84620001af565b620001298362000255565b620001348262000296565b6200013f8162000327565b6200014a3362000368565b505050505060601b6001600160601b03191661014052506200064495505050505050565b60055460408051918252602082018390527fc565b045403dc03c2eea82b81a0465edad9e2e7fc4d97e11421c209da93d7a93910160405180910390a1600555565b60008111620002145760405162461bcd60e51b815260206004820152602760248201527f476f7665726e6f7253657474696e67733a20766f74696e6720706572696f6420604482015266746f6f206c6f7760c81b606482015260840160405180910390fd5b60065460408051918252602082018390527f7e3f7f0708a84de9203036abaa450dccc85ad5ff52f78c170f3edb55cf5e8828910160405180910390a1600655565b60075460408051918252602082018390527fccb45da8d5717e6c4544694297c4ba5cf151d455c9bb0ed4fc7a38411bc05461910160405180910390a1600755565b6040805160208082019092526009546001600160401b031681527f052000359245365cbcb4396b9ebabd953288d90a4a40ed36ba3f9b0a737223fe91620002e7919062001015620003d1821b17901c565b604080516001600160401b03928316815291841660208301520160405180910390a162000324816009620003d560201b620010191790919060201c565b50565b60085460408051918252602082018390527f4984ec996723330ee95979ed65a2a4b41edd914e68a187efe92596474643bdff910160405180910390a1600855565b600a54604080516001600160a01b03928316815291831660208301527f342827c97908e5e2f71151c08502a66d44b6f758e3ac2f1de95f02eb95f0a735910160405180910390a1600a80546001600160a01b0319166001600160a01b0392909216919091179055565b5190565b81546001600160401b0319166001600160401b0391909116179055565b8280546200040090620005f1565b90600052602060002090601f0160209004810192826200042457600085556200046f565b82601f106200043f57805160ff19168380011785556200046f565b828001600101855582156200046f579182015b828111156200046f57825182559160200191906001019062000452565b506200047d92915062000481565b5090565b5b808211156200047d576000815560010162000482565b80516001600160a01b0381168114620004b057600080fd5b919050565b80516001600160401b0381168114620004b057600080fd5b600080600080600080600060e0888a031215620004e8578283fd5b87516001600160401b0380821115620004ff578485fd5b818a0191508a601f83011262000513578485fd5b8151818111156200052857620005286200062e565b604051601f8201601f19908116603f011681019083821181831017156200055357620005536200062e565b81604052828152602093508d848487010111156200056f578788fd5b8791505b8282101562000592578482018401518183018501529083019062000573565b82821115620005a357878484830101525b9a50620005b59150508a820162000498565b97505050604088015194506060880151935060808801519250620005dc60a08901620004b5565b915060c0880151905092959891949750929550565b600181811c908216806200060657607f821691505b602082108114156200062857634e487b7160e01b600052602260045260246000fd5b50919050565b634e487b7160e01b600052604160045260246000fd5b60805160a05160c05160601c60e05161010051610120516101405160601c611f29620006ac600039600081816105d901526112e6015260006115cb0152600061161a015260006115f50152600061154e01526000611578015260006115a20152611f296000f3fe6080604052600436106101c55760003560e01c8063aa98df39116100f7578063d17ad2d411610095578063eb9019d411610064578063eb9019d414610570578063efa90d3614610590578063fb9bf8d4146105b2578063fc0c546a146105c757600080fd5b8063d17ad2d4146104d3578063dd4e2ba5146104f3578063deaaa7cc14610527578063ea8a1af01461055b57600080fd5b8063b58131b0116100d1578063b58131b01461044f578063bd65e80a14610464578063c19d93fb14610484578063c7f758a8146104a657600080fd5b8063aa98df39146103cc578063aec116b6146103ec578063b323580d1461042257600080fd5b8063540a9190116101645780636e4eb8101161013e5780636e4eb8101461031857806370a4a55c1461035f5780638da5cb5b1461037f5780639c028176146103ac57600080fd5b8063540a9190146102ac578063544ffc9c146102c157806354fd4d50146102ee57600080fd5b806306fdde03116101a057806306fdde03146102405780631566f60d14610262578063262e59e9146102825780633932abb11461029757600080fd5b80624114a8146101d357806301ffc9a7146101fb57806302a251a31461022b57600080fd5b366101ce57005b005b600080fd5b3480156101df57600080fd5b506101e86105fb565b6040519081526020015b60405180910390f35b34801561020757600080fd5b5061021b610216366004611a62565b610624565b60405190151581526020016101f2565b34801561023757600080fd5b506101e861065b565b34801561024c57600080fd5b50610255610666565b6040516101f29190611da1565b34801561026e57600080fd5b506101e861027d366004611bc3565b6106f8565b34801561028e57600080fd5b506101e861074c565b3480156102a357600080fd5b506101e8610768565b3480156102b857600080fd5b506101e8610773565b3480156102cd57600080fd5b506101e86102dc366004611b34565b6000908152600c602052604090205490565b3480156102fa57600080fd5b506040805180820190915260018152603160f81b6020820152610255565b34801561032457600080fd5b506101e8610333366004611b64565b6000828152600c602090815260408083206001600160a01b038516845260020190915290205492915050565b34801561036b57600080fd5b506101e861037a366004611b34565b610785565b34801561038b57600080fd5b506103946107a6565b6040516001600160a01b0390911681526020016101f2565b3480156103b857600080fd5b506101e86103c7366004611b8f565b6107ba565b3480156103d857600080fd5b506101e86103e7366004611a8a565b6107e5565b3480156103f857600080fd5b506101e8610407366004611a1f565b6001600160a01b03166000908152600b602052604090205490565b34801561042e57600080fd5b5061044261043d366004611b34565b610bfe565b6040516101f29190611cf4565b34801561045b57600080fd5b506101e8610c70565b34801561047057600080fd5b506101e861047f366004611a8a565b610c7b565b34801561049057600080fd5b50610499610cac565b6040516101f29190611d79565b3480156104b257600080fd5b506104c66104c1366004611b34565b610d00565b6040516101f29190611db4565b3480156104df57600080fd5b506101e86104ee366004611c52565b610e04565b3480156104ff57600080fd5b5060408051808201909152600b81526a39bab83837b93a1eb337b960a91b6020820152610255565b34801561053357600080fd5b506101e87f150214d74d59b7d1e90c73fc22ef3d991dd0a76b046543d4d80ab92d2a50328f81565b34801561056757600080fd5b506101cc610e9a565b34801561057c57600080fd5b506101e861058b366004611a39565b610fa0565b34801561059c57600080fd5b506105a5610fb3565b6040516101f29190611d41565b3480156105be57600080fd5b506101e861100a565b3480156105d357600080fd5b506103947f000000000000000000000000000000000000000000000000000000000000000081565b600061061f604080516020810190915260095467ffffffffffffffff169081905290565b905090565b60006001600160e01b03198216632ef04ddd60e01b148061065557506301ffc9a760e01b6001600160e01b03198316145b92915050565b600061061f60065490565b60606001805461067590611e8c565b80601f01602080910402602001604051908101604052809291908181526020018280546106a190611e8c565b80156106ee5780601f106106c3576101008083540402835291602001916106ee565b820191906000526020600020905b8154815290600101906020018083116106d157829003601f168201915b5050505050905090565b6000803390506107418782888888888080601f01602080910402602001604051908101604052809392919081815260200183838082843760009201919091525061103892505050565b979650505050505050565b600061075661065b565b61075e610773565b61061f9190611e5d565b600061061f60055490565b600061077d610768565b61075e6105fb565b6000818154811061079557600080fd5b600091825260209091200154905081565b600061061f600a546001600160a01b031690565b6000803390506107dc8582868660405180602001604052806000815250611038565b95945050505050565b600060026107f1610cac565b600381111561081057634e487b7160e01b600052602160045260246000fd5b146108885760405162461bcd60e51b815260206004820152603e60248201527f476f7665726e6f723a20636f6e74657374206d7573742062652071756575656460448201527f20666f722070726f706f73616c7320746f206265207375626d6974746564000060648201526084015b60405180910390fd5b3360009081526004602052604090205460ff161515600114156109135760405162461bcd60e51b815260206004820152603f60248201527f476f7665726e6f723a207468652073616d6520616464726573732063616e6e6f60448201527f74207375626d6974206d6f7265207468616e206f6e652070726f706f73616c00606482015260840161087f565b61091b61100a565b600054106109915760405162461bcd60e51b815260206004820152603960248201527f476f7665726e6f723a20746865206d6178206e756d626572206f662070726f7060448201527f6f73616c732068617665206265656e207375626d697474656400000000000000606482015260840161087f565b610999610c70565b6109a83361058b600143611e75565b1015610a285760405162461bcd60e51b815260206004820152604360248201527f476f7665726e6f72436f6d7061746962696c697479427261766f3a2070726f7060448201527f6f73657220766f7465732062656c6f772070726f706f73616c207468726573686064820152621bdb1960ea1b608482015260a40161087f565b8151610a765760405162461bcd60e51b815260206004820152601860248201527f476f7665726e6f723a20656d7074792070726f706f73616c0000000000000000604482015260640161087f565b6000610a8183610c7b565b60008181526003602052604090206002015490915060ff1615610af85760405162461bcd60e51b815260206004820152602960248201527f476f7665726e6f723a206475706c69636174652070726f706f73616c73206e6f6044820152681d08185b1b1bddd95960ba1b606482015260840161087f565b60008054600180820183557f290decd9548b62a8d60345a988386fc84ba6bc95484008f6362f93160ef3e5639091018390556040805160608101825233815260208082018881528284018590528686526003825292909420815181546001600160a01b0319166001600160a01b039091161781559151805191949293610b849390850192910190611959565b506040918201516002909101805491151560ff19928316179055336000908152600460205291909120805490911660011790557fc8c078bfee58e5822588f08b4509ed1eb5058e03f666cca84dd2d44bf5c288a88184610be13390565b604051610bf093929190611dfa565b60405180910390a192915050565b6000818152600c60209081526040918290206001810180548451818502810185019095528085526060949293830182828015610c6357602002820191906000526020600020905b81546001600160a01b03168152600190910190602001808311610c45575b5050505050915050919050565b600061061f60075490565b600081604051602001610c8e9190611da1565b60408051601f19818403018152919052805160209091012092915050565b60025460009060ff1615610cc05750600190565b6000610cca610773565b9050438110610cdb57600291505090565b6000610ce561074c565b9050438110610cf75760009250505090565b60039250505090565b610d2f604051806060016040528060006001600160a01b03168152602001606081526020016000151581525090565b60008281526003602090815260409182902082516060810190935280546001600160a01b031683526001810180549192840191610d6b90611e8c565b80601f0160208091040260200160405190810160405280929190818152602001828054610d9790611e8c565b8015610de45780601f10610db957610100808354040283529160200191610de4565b820191906000526020600020905b815481529060010190602001808311610dc757829003601f168201915b50505091835250506002919091015460ff16151560209091015292915050565b604080517f150214d74d59b7d1e90c73fc22ef3d991dd0a76b046543d4d80ab92d2a50328f602082015290810187905260ff861660608201526000908190610e7090610e689060800160405160208183030381529060405280519060200120611247565b868686611295565b9050610e8e8882898960405180602001604052806000815250611038565b98975050505050505050565b610ea26107a6565b6001600160a01b0316336001600160a01b031614610ebf57600080fd5b6000610ec9610cac565b90506001816003811115610eed57634e487b7160e01b600052602160045260246000fd5b14158015610f1b57506003816003811115610f1857634e487b7160e01b600052602160045260246000fd5b14155b610f675760405162461bcd60e51b815260206004820152601c60248201527f476f7665726e6f723a20636f6e74657374206e6f742061637469766500000000604482015260640161087f565b6002805460ff191660011790556040517f4cd963a081760a54f571abc0f1db4dde31b4a07d8d6da3e844b8c6f47eeaaa4290600090a150565b6000610fac83836112bd565b9392505050565b606060008054806020026020016040519081016040528092919081815260200182805480156106ee57602002820191906000526020600020905b815481526020019060010190808311610fed575050505050905090565b600061061f60085490565b5190565b815467ffffffffffffffff191667ffffffffffffffff91909116179055565b600080611043610cac565b600381111561106257634e487b7160e01b600052602160045260246000fd5b146110bb5760405162461bcd60e51b815260206004820152602360248201527f476f7665726e6f723a20766f7465206e6f742063757272656e746c792061637460448201526269766560e81b606482015260840161087f565b600083116111315760405162461bcd60e51b815260206004820152603760248201527f476f7665726e6f72566f74696e6753696d706c653a2063616e6e6f7420766f7460448201527f6520776974682030206f7220666577657220766f746573000000000000000000606482015260840161087f565b600061113f8661058b610773565b9050600081116111e95760405162461bcd60e51b815260206004820152606360248201527f476f7665726e6f72566f74696e6753696d706c653a20796f75206d757374206860448201527f6176652067726561746572207468616e20302064656c65676174656420766f7460648201527f65732061742074686520736e617073686f7420696e206f7264657220746f20766084820152626f746560e81b60a482015260c40161087f565b6111f68787878785611362565b856001600160a01b03167fb8e138887d0aa13bab447e82de9d5c1777041ecd21ca36ba824ff1e6c07ddda4888787876040516112359493929190611e2b565b60405180910390a29695505050505050565b6000610655611254611541565b8360405161190160f01b6020820152602281018390526042810182905260009060620160405160208183030381529060405280519060200120905092915050565b60008060006112a687878787611668565b915091506112b381611755565b5095945050505050565b604051630748d63560e31b81526001600160a01b038381166004830152602482018390526000917f000000000000000000000000000000000000000000000000000000000000000090911690633a46b1a89060440160206040518083038186803b15801561132a57600080fd5b505afa15801561133e573d6000803e3d6000fd5b505050506040513d601f19601f82011682018060405250810190610fac9190611b4c565b6000858152600c602090815260408083206001600160a01b0388168452600b909252909120546113929083611e75565b8311156113fd5760405162461bcd60e51b815260206004820152603360248201527f476f7665726e6f72566f74696e6753696d706c653a206e6f7420656e6f756768604482015272081d9bdd195cc81b19599d081d1bc818d85cdd606a1b606482015260840161087f565b6001600160a01b03851660009081526002820160205260409020541560ff851661146f57815484908390600090611435908490611e5d565b90915550506001600160a01b038616600090815260028301602052604081208054869290611464908490611e5d565b909155506114d59050565b60405162461bcd60e51b815260206004820152603560248201527f476f7665726e6f72566f74696e6753696d706c653a20696e76616c69642076616044820152746c756520666f7220656e756d20566f74655479706560581b606482015260840161087f565b801561150b576001828101805491820181556000908152602090200180546001600160a01b0319166001600160a01b0388161790555b6001600160a01b0386166000908152600b602052604081208054869290611533908490611e5d565b909155505050505050505050565b6000306001600160a01b037f00000000000000000000000000000000000000000000000000000000000000001614801561159a57507f000000000000000000000000000000000000000000000000000000000000000046145b156115c457507f000000000000000000000000000000000000000000000000000000000000000090565b50604080517f00000000000000000000000000000000000000000000000000000000000000006020808301919091527f0000000000000000000000000000000000000000000000000000000000000000828401527f000000000000000000000000000000000000000000000000000000000000000060608301524660808301523060a0808401919091528351808403909101815260c0909201909252805191012090565b6000807f7fffffffffffffffffffffffffffffff5d576e7357a4501ddfe92f46681b20a083111561169f575060009050600361174c565b8460ff16601b141580156116b757508460ff16601c14155b156116c8575060009050600461174c565b6040805160008082526020820180845289905260ff881692820192909252606081018690526080810185905260019060a0016020604051602081039080840390855afa15801561171c573d6000803e3d6000fd5b5050604051601f1901519150506001600160a01b0381166117455760006001925092505061174c565b9150600090505b94509492505050565b600081600481111561177757634e487b7160e01b600052602160045260246000fd5b14156117805750565b60018160048111156117a257634e487b7160e01b600052602160045260246000fd5b14156117f05760405162461bcd60e51b815260206004820152601860248201527f45434453413a20696e76616c6964207369676e61747572650000000000000000604482015260640161087f565b600281600481111561181257634e487b7160e01b600052602160045260246000fd5b14156118605760405162461bcd60e51b815260206004820152601f60248201527f45434453413a20696e76616c6964207369676e6174757265206c656e67746800604482015260640161087f565b600381600481111561188257634e487b7160e01b600052602160045260246000fd5b14156118db5760405162461bcd60e51b815260206004820152602260248201527f45434453413a20696e76616c6964207369676e6174757265202773272076616c604482015261756560f01b606482015260840161087f565b60048160048111156118fd57634e487b7160e01b600052602160045260246000fd5b14156119565760405162461bcd60e51b815260206004820152602260248201527f45434453413a20696e76616c6964207369676e6174757265202776272076616c604482015261756560f01b606482015260840161087f565b50565b82805461196590611e8c565b90600052602060002090601f01602090048101928261198757600085556119cd565b82601f106119a057805160ff19168380011785556119cd565b828001600101855582156119cd579182015b828111156119cd5782518255916020019190600101906119b2565b506119d99291506119dd565b5090565b5b808211156119d957600081556001016119de565b80356001600160a01b0381168114611a0957600080fd5b919050565b803560ff81168114611a0957600080fd5b600060208284031215611a30578081fd5b610fac826119f2565b60008060408385031215611a4b578081fd5b611a54836119f2565b946020939093013593505050565b600060208284031215611a73578081fd5b81356001600160e01b031981168114610fac578182fd5b600060208284031215611a9b578081fd5b813567ffffffffffffffff80821115611ab2578283fd5b818401915084601f830112611ac5578283fd5b813581811115611ad757611ad7611edd565b604051601f8201601f19908116603f01168101908382118183101715611aff57611aff611edd565b81604052828152876020848701011115611b17578586fd5b826020860160208301379182016020019490945295945050505050565b600060208284031215611b45578081fd5b5035919050565b600060208284031215611b5d578081fd5b5051919050565b60008060408385031215611b76578182fd5b82359150611b86602084016119f2565b90509250929050565b600080600060608486031215611ba3578081fd5b83359250611bb360208501611a0e565b9150604084013590509250925092565b600080600080600060808688031215611bda578081fd5b85359450611bea60208701611a0e565b935060408601359250606086013567ffffffffffffffff80821115611c0d578283fd5b818801915088601f830112611c20578283fd5b813581811115611c2e578384fd5b896020828501011115611c3f578384fd5b9699959850939650602001949392505050565b60008060008060008060c08789031215611c6a578081fd5b86359550611c7a60208801611a0e565b945060408701359350611c8f60608801611a0e565b92506080870135915060a087013590509295509295509295565b60008151808452815b81811015611cce57602081850181015186830182015201611cb2565b81811115611cdf5782602083870101525b50601f01601f19169290920160200192915050565b6020808252825182820181905260009190848201906040850190845b81811015611d355783516001600160a01b031683529284019291840191600101611d10565b50909695505050505050565b6020808252825182820181905260009190848201906040850190845b81811015611d3557835183529284019291840191600101611d5d565b6020810160048310611d9b57634e487b7160e01b600052602160045260246000fd5b91905290565b602081526000610fac6020830184611ca9565b602080825282516001600160a01b03168282015282015160606040830152600090611de26080840182611ca9565b90506040840151151560608401528091505092915050565b838152606060208201526000611e136060830185611ca9565b905060018060a01b0383166040830152949350505050565b84815260ff84166020820152826040820152608060608201526000611e536080830184611ca9565b9695505050505050565b60008219821115611e7057611e70611ec7565b500190565b600082821015611e8757611e87611ec7565b500390565b600181811c90821680611ea057607f821691505b60208210811415611ec157634e487b7160e01b600052602260045260246000fd5b50919050565b634e487b7160e01b600052601160045260246000fd5b634e487b7160e01b600052604160045260246000fdfea2646970667358221220b93348996d9b912b49e12d58620e9ca26823d064018d54266ec8faa849c720c464736f6c63430008040033",
  "linkReferences": {},
  "deployedLinkReferences": {}
}