{
  "_format": "hh-sol-artifact-1",
  "contractName": "Contest",
  "sourceName": "contracts/Contest.sol",
  "abi": [
    {
      "inputs": [
        {
          "internalType": "string",
          "name": "_name",
          "type": "string"
        },
        {
          "internalType": "contract IVotes",
          "name": "_token",
          "type": "address"
        },
        {
          "internalType": "uint64",
          "name": "_initialContestStart",
          "type": "uint64"
        },
        {
          "internalType": "uint256",
          "name": "_initialVotingDelay",
          "type": "uint256"
        },
        {
          "internalType": "uint256",
          "name": "_initialVotingPeriod",
          "type": "uint256"
        },
        {
          "internalType": "uint256",
          "name": "_initialContestSnapshot",
          "type": "uint256"
        },
        {
          "internalType": "uint256",
          "name": "_initialProposalThreshold",
          "type": "uint256"
        },
        {
          "internalType": "uint256",
          "name": "_initialMaxProposalCount",
          "type": "uint256"
        }
      ],
      "stateMutability": "nonpayable",
      "type": "constructor"
    },
    {
      "anonymous": false,
      "inputs": [],
      "name": "ContestCanceled",
      "type": "event"
    },
    {
      "anonymous": false,
      "inputs": [
        {
          "indexed": false,
          "internalType": "uint256",
          "name": "oldContestSnapshot",
          "type": "uint256"
        },
        {
          "indexed": false,
          "internalType": "uint256",
          "name": "newContestSnapshot",
          "type": "uint256"
        }
      ],
      "name": "ContestSnapshotSet",
      "type": "event"
    },
    {
      "anonymous": false,
      "inputs": [
        {
          "indexed": false,
          "internalType": "uint256",
          "name": "oldContestStart",
          "type": "uint256"
        },
        {
          "indexed": false,
          "internalType": "uint256",
          "name": "newContestStart",
          "type": "uint256"
        }
      ],
      "name": "ContestStartSet",
      "type": "event"
    },
    {
      "anonymous": false,
      "inputs": [
        {
          "indexed": false,
          "internalType": "uint256",
          "name": "oldMaxProposalCount",
          "type": "uint256"
        },
        {
          "indexed": false,
          "internalType": "uint256",
          "name": "newMaxProposalCount",
          "type": "uint256"
        }
      ],
      "name": "MaxProposalCountSet",
      "type": "event"
    },
    {
      "anonymous": false,
      "inputs": [
        {
          "indexed": false,
          "internalType": "address",
          "name": "oldOwner",
          "type": "address"
        },
        {
          "indexed": false,
          "internalType": "address",
          "name": "newOwner",
          "type": "address"
        }
      ],
      "name": "OwnerSet",
      "type": "event"
    },
    {
      "anonymous": false,
      "inputs": [
        {
          "indexed": false,
          "internalType": "uint256",
          "name": "proposalId",
          "type": "uint256"
        },
        {
          "indexed": false,
          "internalType": "string",
          "name": "description",
          "type": "string"
        },
        {
          "indexed": false,
          "internalType": "address",
          "name": "proposer",
          "type": "address"
        }
      ],
      "name": "ProposalCreated",
      "type": "event"
    },
    {
      "anonymous": false,
      "inputs": [
        {
          "indexed": false,
          "internalType": "uint256",
          "name": "oldProposalThreshold",
          "type": "uint256"
        },
        {
          "indexed": false,
          "internalType": "uint256",
          "name": "newProposalThreshold",
          "type": "uint256"
        }
      ],
      "name": "ProposalThresholdSet",
      "type": "event"
    },
    {
      "anonymous": false,
      "inputs": [
        {
          "indexed": true,
          "internalType": "address",
          "name": "voter",
          "type": "address"
        },
        {
          "indexed": false,
          "internalType": "uint256",
          "name": "proposalId",
          "type": "uint256"
        },
        {
          "indexed": false,
          "internalType": "uint8",
          "name": "support",
          "type": "uint8"
        },
        {
          "indexed": false,
          "internalType": "uint256",
          "name": "numVotes",
          "type": "uint256"
        },
        {
          "indexed": false,
          "internalType": "string",
          "name": "reason",
          "type": "string"
        }
      ],
      "name": "VoteCast",
      "type": "event"
    },
    {
      "anonymous": false,
      "inputs": [
        {
          "indexed": false,
          "internalType": "uint256",
          "name": "oldVotingDelay",
          "type": "uint256"
        },
        {
          "indexed": false,
          "internalType": "uint256",
          "name": "newVotingDelay",
          "type": "uint256"
        }
      ],
      "name": "VotingDelaySet",
      "type": "event"
    },
    {
      "anonymous": false,
      "inputs": [
        {
          "indexed": false,
          "internalType": "uint256",
          "name": "oldVotingPeriod",
          "type": "uint256"
        },
        {
          "indexed": false,
          "internalType": "uint256",
          "name": "newVotingPeriod",
          "type": "uint256"
        }
      ],
      "name": "VotingPeriodSet",
      "type": "event"
    },
    {
      "inputs": [],
      "name": "BALLOT_TYPEHASH",
      "outputs": [
        {
          "internalType": "bytes32",
          "name": "",
          "type": "bytes32"
        }
      ],
      "stateMutability": "view",
      "type": "function"
    },
    {
      "inputs": [],
      "name": "COUNTING_MODE",
      "outputs": [
        {
          "internalType": "string",
          "name": "",
          "type": "string"
        }
      ],
      "stateMutability": "pure",
      "type": "function"
    },
    {
      "inputs": [],
      "name": "cancel",
      "outputs": [],
      "stateMutability": "nonpayable",
      "type": "function"
    },
    {
      "inputs": [
        {
          "internalType": "uint256",
          "name": "proposalId",
          "type": "uint256"
        },
        {
          "internalType": "uint8",
          "name": "support",
          "type": "uint8"
        },
        {
          "internalType": "uint256",
          "name": "numVotes",
          "type": "uint256"
        }
      ],
      "name": "castVote",
      "outputs": [
        {
          "internalType": "uint256",
          "name": "",
          "type": "uint256"
        }
      ],
      "stateMutability": "nonpayable",
      "type": "function"
    },
    {
      "inputs": [
        {
          "internalType": "uint256",
          "name": "proposalId",
          "type": "uint256"
        },
        {
          "internalType": "uint8",
          "name": "support",
          "type": "uint8"
        },
        {
          "internalType": "uint256",
          "name": "numVotes",
          "type": "uint256"
        },
        {
          "internalType": "uint8",
          "name": "v",
          "type": "uint8"
        },
        {
          "internalType": "bytes32",
          "name": "r",
          "type": "bytes32"
        },
        {
          "internalType": "bytes32",
          "name": "s",
          "type": "bytes32"
        }
      ],
      "name": "castVoteBySig",
      "outputs": [
        {
          "internalType": "uint256",
          "name": "",
          "type": "uint256"
        }
      ],
      "stateMutability": "nonpayable",
      "type": "function"
    },
    {
      "inputs": [
        {
          "internalType": "uint256",
          "name": "proposalId",
          "type": "uint256"
        },
        {
          "internalType": "uint8",
          "name": "support",
          "type": "uint8"
        },
        {
          "internalType": "uint256",
          "name": "numVotes",
          "type": "uint256"
        },
        {
          "internalType": "string",
          "name": "reason",
          "type": "string"
        }
      ],
      "name": "castVoteWithReason",
      "outputs": [
        {
          "internalType": "uint256",
          "name": "",
          "type": "uint256"
        }
      ],
      "stateMutability": "nonpayable",
      "type": "function"
    },
    {
      "inputs": [
        {
          "internalType": "address",
          "name": "userAddress",
          "type": "address"
        }
      ],
      "name": "contestAddressTotalVotesCast",
      "outputs": [
        {
          "internalType": "uint256",
          "name": "totalVotesCast",
          "type": "uint256"
        }
      ],
      "stateMutability": "view",
      "type": "function"
    },
    {
      "inputs": [],
      "name": "contestDeadline",
      "outputs": [
        {
          "internalType": "uint256",
          "name": "",
          "type": "uint256"
        }
      ],
      "stateMutability": "view",
      "type": "function"
    },
    {
      "inputs": [],
      "name": "contestSnapshot",
      "outputs": [
        {
          "internalType": "uint256",
          "name": "",
          "type": "uint256"
        }
      ],
      "stateMutability": "view",
      "type": "function"
    },
    {
      "inputs": [],
      "name": "contestStart",
      "outputs": [
        {
          "internalType": "uint256",
          "name": "",
          "type": "uint256"
        }
      ],
      "stateMutability": "view",
      "type": "function"
    },
    {
      "inputs": [],
      "name": "getAllProposalIds",
      "outputs": [
        {
          "internalType": "uint256[]",
          "name": "",
          "type": "uint256[]"
        }
      ],
      "stateMutability": "view",
      "type": "function"
    },
    {
      "inputs": [
        {
          "internalType": "uint256",
          "name": "proposalId",
          "type": "uint256"
        }
      ],
      "name": "getProposal",
      "outputs": [
        {
          "components": [
            {
              "internalType": "address",
              "name": "author",
              "type": "address"
            },
            {
              "internalType": "string",
              "name": "description",
              "type": "string"
            },
            {
              "internalType": "bool",
              "name": "exists",
              "type": "bool"
            }
          ],
          "internalType": "struct Governor.ProposalCore",
          "name": "",
          "type": "tuple"
        }
      ],
      "stateMutability": "view",
      "type": "function"
    },
    {
      "inputs": [
        {
          "internalType": "address",
          "name": "account",
          "type": "address"
        },
        {
          "internalType": "uint256",
          "name": "blockNumber",
          "type": "uint256"
        }
      ],
      "name": "getVotes",
      "outputs": [
        {
          "internalType": "uint256",
          "name": "",
          "type": "uint256"
        }
      ],
      "stateMutability": "view",
      "type": "function"
    },
    {
      "inputs": [
        {
          "internalType": "string",
          "name": "proposalDescription",
          "type": "string"
        }
      ],
      "name": "hashProposal",
      "outputs": [
        {
          "internalType": "uint256",
          "name": "",
          "type": "uint256"
        }
      ],
      "stateMutability": "pure",
      "type": "function"
    },
    {
      "inputs": [],
      "name": "maxProposalCount",
      "outputs": [
        {
          "internalType": "uint256",
          "name": "",
          "type": "uint256"
        }
      ],
      "stateMutability": "view",
      "type": "function"
    },
    {
      "inputs": [],
      "name": "name",
      "outputs": [
        {
          "internalType": "string",
          "name": "",
          "type": "string"
        }
      ],
      "stateMutability": "view",
      "type": "function"
    },
    {
      "inputs": [],
      "name": "owner",
      "outputs": [
        {
          "internalType": "address",
          "name": "",
          "type": "address"
        }
      ],
      "stateMutability": "view",
      "type": "function"
    },
    {
      "inputs": [
        {
          "internalType": "uint256",
          "name": "proposalId",
          "type": "uint256"
        },
        {
          "internalType": "address",
          "name": "userAddress",
          "type": "address"
        }
      ],
      "name": "proposalAddressVotes",
      "outputs": [
        {
          "internalType": "uint256",
          "name": "forVotes",
          "type": "uint256"
        }
      ],
      "stateMutability": "view",
      "type": "function"
    },
    {
      "inputs": [
        {
          "internalType": "uint256",
          "name": "proposalId",
          "type": "uint256"
        }
      ],
      "name": "proposalAddressesHaveVoted",
      "outputs": [
        {
          "internalType": "address[]",
          "name": "",
          "type": "address[]"
        }
      ],
      "stateMutability": "view",
      "type": "function"
    },
    {
      "inputs": [],
      "name": "proposalThreshold",
      "outputs": [
        {
          "internalType": "uint256",
          "name": "",
          "type": "uint256"
        }
      ],
      "stateMutability": "view",
      "type": "function"
    },
    {
      "inputs": [
        {
          "internalType": "uint256",
          "name": "proposalId",
          "type": "uint256"
        }
      ],
      "name": "proposalVotes",
      "outputs": [
        {
          "internalType": "uint256",
          "name": "forVotes",
          "type": "uint256"
        }
      ],
      "stateMutability": "view",
      "type": "function"
    },
    {
      "inputs": [
        {
          "internalType": "string",
          "name": "proposalDescription",
          "type": "string"
        }
      ],
      "name": "propose",
      "outputs": [
        {
          "internalType": "uint256",
          "name": "",
          "type": "uint256"
        }
      ],
      "stateMutability": "nonpayable",
      "type": "function"
    },
    {
      "inputs": [],
      "name": "state",
      "outputs": [
        {
          "internalType": "enum IGovernor.ContestState",
          "name": "",
          "type": "uint8"
        }
      ],
      "stateMutability": "view",
      "type": "function"
    },
    {
      "inputs": [
        {
          "internalType": "bytes4",
          "name": "interfaceId",
          "type": "bytes4"
        }
      ],
      "name": "supportsInterface",
      "outputs": [
        {
          "internalType": "bool",
          "name": "",
          "type": "bool"
        }
      ],
      "stateMutability": "view",
      "type": "function"
    },
    {
      "inputs": [],
      "name": "token",
      "outputs": [
        {
          "internalType": "contract IVotes",
          "name": "",
          "type": "address"
        }
      ],
      "stateMutability": "view",
      "type": "function"
    },
    {
      "inputs": [],
      "name": "version",
      "outputs": [
        {
          "internalType": "string",
          "name": "",
          "type": "string"
        }
      ],
      "stateMutability": "view",
      "type": "function"
    },
    {
      "inputs": [],
      "name": "voteStart",
      "outputs": [
        {
          "internalType": "uint256",
          "name": "",
          "type": "uint256"
        }
      ],
      "stateMutability": "view",
      "type": "function"
    },
    {
      "inputs": [],
      "name": "votingDelay",
      "outputs": [
        {
          "internalType": "uint256",
          "name": "",
          "type": "uint256"
        }
      ],
      "stateMutability": "view",
      "type": "function"
    },
    {
      "inputs": [],
      "name": "votingPeriod",
      "outputs": [
        {
          "internalType": "uint256",
          "name": "",
          "type": "uint256"
        }
      ],
      "stateMutability": "view",
      "type": "function"
    },
    {
      "stateMutability": "payable",
      "type": "receive"
    }
  ],
  "bytecode": "0x6101606040523480156200001257600080fd5b506040516200255e3803806200255e8339810160408190526200003591620004b7565b866001600160401b03871686868686868e80620000666040805180820190915260018152603160f81b602082015290565b815160208084019190912082518383012060e08290526101008190524660a0818152604080517f8b73c3c69bb8fe3d512ecc4cf759cc79239f7b179b0ffacaa9a75d522b39400f81880181905281830187905260608201869052608082019490945230818401528151808203909301835260c00190528051940193909320919290916080523060601b60c05261012052505082516200010f9250600191506020840190620003dc565b506200011d90508662000188565b6200012885620001c9565b62000133846200020a565b6200013e83620002b0565b6200014982620002f1565b620001548162000332565b6200015f3362000373565b505050505060609190911b6001600160601b031916610140525062000638975050505050505050565b60055460408051918252602082018390527fd299feb1d7d9345a48559601c471c3be7eea9a11f21d5e86809198f40a974db4910160405180910390a1600555565b60065460408051918252602082018390527fc565b045403dc03c2eea82b81a0465edad9e2e7fc4d97e11421c209da93d7a93910160405180910390a1600655565b600081116200026f5760405162461bcd60e51b815260206004820152602760248201527f476f7665726e6f7253657474696e67733a20766f74696e6720706572696f6420604482015266746f6f206c6f7760c81b606482015260840160405180910390fd5b60075460408051918252602082018390527f7e3f7f0708a84de9203036abaa450dccc85ad5ff52f78c170f3edb55cf5e8828910160405180910390a1600755565b60085460408051918252602082018390527f70d92b9b65fcaa7708049081fd0ad601c9af76bd86d38df0337dfce3d025ec83910160405180910390a1600855565b60095460408051918252602082018390527fccb45da8d5717e6c4544694297c4ba5cf151d455c9bb0ed4fc7a38411bc05461910160405180910390a1600955565b600a5460408051918252602082018390527f4984ec996723330ee95979ed65a2a4b41edd914e68a187efe92596474643bdff910160405180910390a1600a55565b600b54604080516001600160a01b03928316815291831660208301527f342827c97908e5e2f71151c08502a66d44b6f758e3ac2f1de95f02eb95f0a735910160405180910390a1600b80546001600160a01b0319166001600160a01b0392909216919091179055565b828054620003ea90620005e5565b90600052602060002090601f0160209004810192826200040e576000855562000459565b82601f106200042957805160ff191683800117855562000459565b8280016001018555821562000459579182015b82811115620004595782518255916020019190600101906200043c565b50620004679291506200046b565b5090565b5b808211156200046757600081556001016200046c565b80516001600160a01b03811681146200049a57600080fd5b919050565b80516001600160401b03811681146200049a57600080fd5b600080600080600080600080610100898b031215620004d4578384fd5b88516001600160401b0380821115620004eb578586fd5b818b0191508b601f830112620004ff578586fd5b81518181111562000514576200051462000622565b604051601f8201601f19908116603f011681019083821181831017156200053f576200053f62000622565b81604052828152602093508e848487010111156200055b578889fd5b8891505b828210156200057e57848201840151818301850152908301906200055f565b828211156200058f57888484830101525b9b50620005a19150508b820162000482565b98505050620005b360408a016200049f565b9550606089015194506080890151935060a0890151925060c0890151915060e089015190509295985092959890939650565b600181811c90821680620005fa57607f821691505b602082108114156200061c57634e487b7160e01b600052602260045260246000fd5b50919050565b634e487b7160e01b600052604160045260246000fd5b60805160a05160c05160601c60e05161010051610120516101405160601c611ebe620006a0600039600081816105ce015261127b01526000611560015260006115af0152600061158a015260006114e30152600061150d015260006115370152611ebe6000f3fe6080604052600436106101c55760003560e01c8063aec116b6116100f7578063dd4e2ba511610095578063eb9019d411610064578063eb9019d414610565578063efa90d3614610585578063fb9bf8d4146105a7578063fc0c546a146105bc57600080fd5b8063dd4e2ba5146104d3578063deaaa7cc14610507578063e031535b1461053b578063ea8a1af01461055057600080fd5b8063bd65e80a116100d1578063bd65e80a14610444578063c19d93fb14610464578063c7f758a814610486578063d17ad2d4146104b357600080fd5b8063aec116b6146103cc578063b323580d14610402578063b58131b01461042f57600080fd5b8063540a9190116101645780636e4eb8101161013e5780636e4eb810146103185780638da5cb5b1461035f5780639c0281761461038c578063aa98df39146103ac57600080fd5b8063540a9190146102ac578063544ffc9c146102c157806354fd4d50146102ee57600080fd5b806306fdde03116101a057806306fdde03146102405780631566f60d14610262578063262e59e9146102825780633932abb11461029757600080fd5b80624114a8146101d357806301ffc9a7146101fb57806302a251a31461022b57600080fd5b366101ce57005b005b600080fd5b3480156101df57600080fd5b506101e86105f0565b6040519081526020015b60405180910390f35b34801561020757600080fd5b5061021b6102163660046119f7565b610600565b60405190151581526020016101f2565b34801561023757600080fd5b506101e8610637565b34801561024c57600080fd5b50610255610642565b6040516101f29190611d36565b34801561026e57600080fd5b506101e861027d366004611b58565b6106d4565b34801561028e57600080fd5b506101e8610728565b3480156102a357600080fd5b506101e8610740565b3480156102b857600080fd5b506008546101e8565b3480156102cd57600080fd5b506101e86102dc366004611ac9565b6000908152600d602052604090205490565b3480156102fa57600080fd5b506040805180820190915260018152603160f81b6020820152610255565b34801561032457600080fd5b506101e8610333366004611af9565b6000828152600d602090815260408083206001600160a01b038516845260020190915290205492915050565b34801561036b57600080fd5b5061037461074b565b6040516001600160a01b0390911681526020016101f2565b34801561039857600080fd5b506101e86103a7366004611b24565b61075f565b3480156103b857600080fd5b506101e86103c7366004611a1f565b61078a565b3480156103d857600080fd5b506101e86103e73660046119b4565b6001600160a01b03166000908152600c602052604090205490565b34801561040e57600080fd5b5061042261041d366004611ac9565b610ba3565b6040516101f29190611c89565b34801561043b57600080fd5b506101e8610c15565b34801561045057600080fd5b506101e861045f366004611a1f565b610c20565b34801561047057600080fd5b50610479610c51565b6040516101f29190611d0e565b34801561049257600080fd5b506104a66104a1366004611ac9565b610ca5565b6040516101f29190611d49565b3480156104bf57600080fd5b506101e86104ce366004611be7565b610da9565b3480156104df57600080fd5b5060408051808201909152600b81526a39bab83837b93a1eb337b960a91b6020820152610255565b34801561051357600080fd5b506101e87f150214d74d59b7d1e90c73fc22ef3d991dd0a76b046543d4d80ab92d2a50328f81565b34801561054757600080fd5b506101e8610e3f565b34801561055c57600080fd5b506101cc610e51565b34801561057157600080fd5b506101e86105803660046119ce565b610f57565b34801561059157600080fd5b5061059a610f6a565b6040516101f29190611cd6565b3480156105b357600080fd5b506101e8610fc1565b3480156105c857600080fd5b506103747f000000000000000000000000000000000000000000000000000000000000000081565b60006105fb60055490565b905090565b60006001600160e01b031982166367608f4360e11b148061063157506301ffc9a760e01b6001600160e01b03198316145b92915050565b60006105fb60075490565b60606001805461065190611e21565b80601f016020809104026020016040519081016040528092919081815260200182805461067d90611e21565b80156106ca5780601f1061069f576101008083540402835291602001916106ca565b820191906000526020600020905b8154815290600101906020018083116106ad57829003601f168201915b5050505050905090565b60008033905061071d8782888888888080601f016020809104026020016040519081016040528093929190818152602001838380828437600092019190915250610fcc92505050565b979650505050505050565b6000610732610637565b6008545b6105fb9190611df2565b60006105fb60065490565b60006105fb600b546001600160a01b031690565b6000803390506107818582868660405180602001604052806000815250610fcc565b95945050505050565b60006002610796610c51565b60038111156107b557634e487b7160e01b600052602160045260246000fd5b1461082d5760405162461bcd60e51b815260206004820152603e60248201527f476f7665726e6f723a20636f6e74657374206d7573742062652071756575656460448201527f20666f722070726f706f73616c7320746f206265207375626d6974746564000060648201526084015b60405180910390fd5b3360009081526004602052604090205460ff161515600114156108b85760405162461bcd60e51b815260206004820152603f60248201527f476f7665726e6f723a207468652073616d6520616464726573732063616e6e6f60448201527f74207375626d6974206d6f7265207468616e206f6e652070726f706f73616c006064820152608401610824565b6108c0610fc1565b600054106109365760405162461bcd60e51b815260206004820152603960248201527f476f7665726e6f723a20746865206d6178206e756d626572206f662070726f7060448201527f6f73616c732068617665206265656e207375626d6974746564000000000000006064820152608401610824565b61093e610c15565b61094d33610580600143611e0a565b10156109cd5760405162461bcd60e51b815260206004820152604360248201527f476f7665726e6f72436f6d7061746962696c697479427261766f3a2070726f7060448201527f6f73657220766f7465732062656c6f772070726f706f73616c207468726573686064820152621bdb1960ea1b608482015260a401610824565b8151610a1b5760405162461bcd60e51b815260206004820152601860248201527f476f7665726e6f723a20656d7074792070726f706f73616c00000000000000006044820152606401610824565b6000610a2683610c20565b60008181526003602052604090206002015490915060ff1615610a9d5760405162461bcd60e51b815260206004820152602960248201527f476f7665726e6f723a206475706c69636174652070726f706f73616c73206e6f6044820152681d08185b1b1bddd95960ba1b6064820152608401610824565b60008054600180820183557f290decd9548b62a8d60345a988386fc84ba6bc95484008f6362f93160ef3e5639091018390556040805160608101825233815260208082018881528284018590528686526003825292909420815181546001600160a01b0319166001600160a01b039091161781559151805191949293610b2993908501929101906118ee565b506040918201516002909101805491151560ff19928316179055336000908152600460205291909120805490911660011790557fc8c078bfee58e5822588f08b4509ed1eb5058e03f666cca84dd2d44bf5c288a88184610b863390565b604051610b9593929190611d8f565b60405180910390a192915050565b6000818152600d60209081526040918290206001810180548451818502810185019095528085526060949293830182828015610c0857602002820191906000526020600020905b81546001600160a01b03168152600190910190602001808311610bea575b5050505050915050919050565b60006105fb60095490565b600081604051602001610c339190611d36565b60408051601f19818403018152919052805160209091012092915050565b60025460009060ff1615610c655750600190565b6000610c6f610e3f565b9050428110610c8057600291505090565b6000610c8a610728565b9050428110610c9c5760009250505090565b60039250505090565b610cd4604051806060016040528060006001600160a01b03168152602001606081526020016000151581525090565b60008281526003602090815260409182902082516060810190935280546001600160a01b031683526001810180549192840191610d1090611e21565b80601f0160208091040260200160405190810160405280929190818152602001828054610d3c90611e21565b8015610d895780601f10610d5e57610100808354040283529160200191610d89565b820191906000526020600020905b815481529060010190602001808311610d6c57829003601f168201915b50505091835250506002919091015460ff16151560209091015292915050565b604080517f150214d74d59b7d1e90c73fc22ef3d991dd0a76b046543d4d80ab92d2a50328f602082015290810187905260ff861660608201526000908190610e1590610e0d90608001604051602081830303815290604052805190602001206111dc565b86868661122a565b9050610e338882898960405180602001604052806000815250610fcc565b98975050505050505050565b6000610e49610740565b6107366105f0565b610e5961074b565b6001600160a01b0316336001600160a01b031614610e7657600080fd5b6000610e80610c51565b90506001816003811115610ea457634e487b7160e01b600052602160045260246000fd5b14158015610ed257506003816003811115610ecf57634e487b7160e01b600052602160045260246000fd5b14155b610f1e5760405162461bcd60e51b815260206004820152601c60248201527f476f7665726e6f723a20636f6e74657374206e6f7420616374697665000000006044820152606401610824565b6002805460ff191660011790556040517f4cd963a081760a54f571abc0f1db4dde31b4a07d8d6da3e844b8c6f47eeaaa4290600090a150565b6000610f638383611252565b9392505050565b606060008054806020026020016040519081016040528092919081815260200182805480156106ca57602002820191906000526020600020905b815481526020019060010190808311610fa4575050505050905090565b60006105fb600a5490565b600080610fd7610c51565b6003811115610ff657634e487b7160e01b600052602160045260246000fd5b1461104f5760405162461bcd60e51b815260206004820152602360248201527f476f7665726e6f723a20766f7465206e6f742063757272656e746c792061637460448201526269766560e81b6064820152608401610824565b600083116110c55760405162461bcd60e51b815260206004820152603760248201527f476f7665726e6f72566f74696e6753696d706c653a2063616e6e6f7420766f7460448201527f6520776974682030206f7220666577657220766f7465730000000000000000006064820152608401610824565b60006110d48661058060085490565b90506000811161117e5760405162461bcd60e51b815260206004820152606360248201527f476f7665726e6f72566f74696e6753696d706c653a20796f75206d757374206860448201527f6176652067726561746572207468616e20302064656c65676174656420766f7460648201527f65732061742074686520736e617073686f7420696e206f7264657220746f20766084820152626f746560e81b60a482015260c401610824565b61118b87878787856112f7565b856001600160a01b03167fb8e138887d0aa13bab447e82de9d5c1777041ecd21ca36ba824ff1e6c07ddda4888787876040516111ca9493929190611dc0565b60405180910390a29695505050505050565b60006106316111e96114d6565b8360405161190160f01b6020820152602281018390526042810182905260009060620160405160208183030381529060405280519060200120905092915050565b600080600061123b878787876115fd565b91509150611248816116ea565b5095945050505050565b604051630748d63560e31b81526001600160a01b038381166004830152602482018390526000917f000000000000000000000000000000000000000000000000000000000000000090911690633a46b1a89060440160206040518083038186803b1580156112bf57600080fd5b505afa1580156112d3573d6000803e3d6000fd5b505050506040513d601f19601f82011682018060405250810190610f639190611ae1565b6000858152600d602090815260408083206001600160a01b0388168452600c909252909120546113279083611e0a565b8311156113925760405162461bcd60e51b815260206004820152603360248201527f476f7665726e6f72566f74696e6753696d706c653a206e6f7420656e6f756768604482015272081d9bdd195cc81b19599d081d1bc818d85cdd606a1b6064820152608401610824565b6001600160a01b03851660009081526002820160205260409020541560ff8516611404578154849083906000906113ca908490611df2565b90915550506001600160a01b0386166000908152600283016020526040812080548692906113f9908490611df2565b9091555061146a9050565b60405162461bcd60e51b815260206004820152603560248201527f476f7665726e6f72566f74696e6753696d706c653a20696e76616c69642076616044820152746c756520666f7220656e756d20566f74655479706560581b6064820152608401610824565b80156114a0576001828101805491820181556000908152602090200180546001600160a01b0319166001600160a01b0388161790555b6001600160a01b0386166000908152600c6020526040812080548692906114c8908490611df2565b909155505050505050505050565b6000306001600160a01b037f00000000000000000000000000000000000000000000000000000000000000001614801561152f57507f000000000000000000000000000000000000000000000000000000000000000046145b1561155957507f000000000000000000000000000000000000000000000000000000000000000090565b50604080517f00000000000000000000000000000000000000000000000000000000000000006020808301919091527f0000000000000000000000000000000000000000000000000000000000000000828401527f000000000000000000000000000000000000000000000000000000000000000060608301524660808301523060a0808401919091528351808403909101815260c0909201909252805191012090565b6000807f7fffffffffffffffffffffffffffffff5d576e7357a4501ddfe92f46681b20a083111561163457506000905060036116e1565b8460ff16601b1415801561164c57508460ff16601c14155b1561165d57506000905060046116e1565b6040805160008082526020820180845289905260ff881692820192909252606081018690526080810185905260019060a0016020604051602081039080840390855afa1580156116b1573d6000803e3d6000fd5b5050604051601f1901519150506001600160a01b0381166116da576000600192509250506116e1565b9150600090505b94509492505050565b600081600481111561170c57634e487b7160e01b600052602160045260246000fd5b14156117155750565b600181600481111561173757634e487b7160e01b600052602160045260246000fd5b14156117855760405162461bcd60e51b815260206004820152601860248201527f45434453413a20696e76616c6964207369676e617475726500000000000000006044820152606401610824565b60028160048111156117a757634e487b7160e01b600052602160045260246000fd5b14156117f55760405162461bcd60e51b815260206004820152601f60248201527f45434453413a20696e76616c6964207369676e6174757265206c656e677468006044820152606401610824565b600381600481111561181757634e487b7160e01b600052602160045260246000fd5b14156118705760405162461bcd60e51b815260206004820152602260248201527f45434453413a20696e76616c6964207369676e6174757265202773272076616c604482015261756560f01b6064820152608401610824565b600481600481111561189257634e487b7160e01b600052602160045260246000fd5b14156118eb5760405162461bcd60e51b815260206004820152602260248201527f45434453413a20696e76616c6964207369676e6174757265202776272076616c604482015261756560f01b6064820152608401610824565b50565b8280546118fa90611e21565b90600052602060002090601f01602090048101928261191c5760008555611962565b82601f1061193557805160ff1916838001178555611962565b82800160010185558215611962579182015b82811115611962578251825591602001919060010190611947565b5061196e929150611972565b5090565b5b8082111561196e5760008155600101611973565b80356001600160a01b038116811461199e57600080fd5b919050565b803560ff8116811461199e57600080fd5b6000602082840312156119c5578081fd5b610f6382611987565b600080604083850312156119e0578081fd5b6119e983611987565b946020939093013593505050565b600060208284031215611a08578081fd5b81356001600160e01b031981168114610f63578182fd5b600060208284031215611a30578081fd5b813567ffffffffffffffff80821115611a47578283fd5b818401915084601f830112611a5a578283fd5b813581811115611a6c57611a6c611e72565b604051601f8201601f19908116603f01168101908382118183101715611a9457611a94611e72565b81604052828152876020848701011115611aac578586fd5b826020860160208301379182016020019490945295945050505050565b600060208284031215611ada578081fd5b5035919050565b600060208284031215611af2578081fd5b5051919050565b60008060408385031215611b0b578182fd5b82359150611b1b60208401611987565b90509250929050565b600080600060608486031215611b38578081fd5b83359250611b48602085016119a3565b9150604084013590509250925092565b600080600080600060808688031215611b6f578081fd5b85359450611b7f602087016119a3565b935060408601359250606086013567ffffffffffffffff80821115611ba2578283fd5b818801915088601f830112611bb5578283fd5b813581811115611bc3578384fd5b896020828501011115611bd4578384fd5b9699959850939650602001949392505050565b60008060008060008060c08789031215611bff578081fd5b86359550611c0f602088016119a3565b945060408701359350611c24606088016119a3565b92506080870135915060a087013590509295509295509295565b60008151808452815b81811015611c6357602081850181015186830182015201611c47565b81811115611c745782602083870101525b50601f01601f19169290920160200192915050565b6020808252825182820181905260009190848201906040850190845b81811015611cca5783516001600160a01b031683529284019291840191600101611ca5565b50909695505050505050565b6020808252825182820181905260009190848201906040850190845b81811015611cca57835183529284019291840191600101611cf2565b6020810160048310611d3057634e487b7160e01b600052602160045260246000fd5b91905290565b602081526000610f636020830184611c3e565b602080825282516001600160a01b03168282015282015160606040830152600090611d776080840182611c3e565b90506040840151151560608401528091505092915050565b838152606060208201526000611da86060830185611c3e565b905060018060a01b0383166040830152949350505050565b84815260ff84166020820152826040820152608060608201526000611de86080830184611c3e565b9695505050505050565b60008219821115611e0557611e05611e5c565b500190565b600082821015611e1c57611e1c611e5c565b500390565b600181811c90821680611e3557607f821691505b60208210811415611e5657634e487b7160e01b600052602260045260246000fd5b50919050565b634e487b7160e01b600052601160045260246000fd5b634e487b7160e01b600052604160045260246000fdfea264697066735822122057ef713cb67f4b995c50f6d971d4cbaa8ad8ed4cfbc3bd0a06e38ac399351d0b64736f6c63430008040033",
  "linkReferences": {},
  "deployedLinkReferences": {}
}