{
  "_format": "hh-sol-artifact-1",
  "contractName": "Contest",
  "sourceName": "contracts/Contest.sol",
  "abi": [
    {
      "inputs": [
        {
          "internalType": "string",
          "name": "_name",
          "type": "string"
        },
        {
          "internalType": "string",
          "name": "_prompt",
          "type": "string"
        },
        {
          "internalType": "contract IVotesTimestamp",
          "name": "_token",
          "type": "address"
        },
        {
          "internalType": "contract IVotesTimestamp",
          "name": "_submissionToken",
          "type": "address"
        },
        {
          "internalType": "uint256[]",
          "name": "_constructorIntParams",
          "type": "uint256[]"
        }
      ],
      "stateMutability": "nonpayable",
      "type": "constructor"
    },
    {
      "anonymous": false,
      "inputs": [],
      "name": "ContestCanceled",
      "type": "event"
    },
    {
      "anonymous": false,
      "inputs": [
        {
          "indexed": false,
          "internalType": "uint256",
          "name": "oldContestSnapshot",
          "type": "uint256"
        },
        {
          "indexed": false,
          "internalType": "uint256",
          "name": "newContestSnapshot",
          "type": "uint256"
        }
      ],
      "name": "ContestSnapshotSet",
      "type": "event"
    },
    {
      "anonymous": false,
      "inputs": [
        {
          "indexed": false,
          "internalType": "uint256",
          "name": "oldContestStart",
          "type": "uint256"
        },
        {
          "indexed": false,
          "internalType": "uint256",
          "name": "newContestStart",
          "type": "uint256"
        }
      ],
      "name": "ContestStartSet",
      "type": "event"
    },
    {
      "anonymous": false,
      "inputs": [
        {
          "indexed": false,
          "internalType": "address",
          "name": "oldCreator",
          "type": "address"
        },
        {
          "indexed": false,
          "internalType": "address",
          "name": "newCreator",
          "type": "address"
        }
      ],
      "name": "CreatorSet",
      "type": "event"
    },
    {
      "anonymous": false,
      "inputs": [
        {
          "indexed": false,
          "internalType": "uint256",
          "name": "oldDownvotingAllowed",
          "type": "uint256"
        },
        {
          "indexed": false,
          "internalType": "uint256",
          "name": "newDownvotingAllowed",
          "type": "uint256"
        }
      ],
      "name": "DownvotingAllowedSet",
      "type": "event"
    },
    {
      "anonymous": false,
      "inputs": [
        {
          "indexed": false,
          "internalType": "uint256",
          "name": "oldMaxProposalCount",
          "type": "uint256"
        },
        {
          "indexed": false,
          "internalType": "uint256",
          "name": "newMaxProposalCount",
          "type": "uint256"
        }
      ],
      "name": "MaxProposalCountSet",
      "type": "event"
    },
    {
      "anonymous": false,
      "inputs": [
        {
          "indexed": false,
          "internalType": "uint256",
          "name": "oldNumAllowedProposalSubmissions",
          "type": "uint256"
        },
        {
          "indexed": false,
          "internalType": "uint256",
          "name": "newNumAllowedProposalSubmissions",
          "type": "uint256"
        }
      ],
      "name": "NumAllowedProposalSubmissionsSet",
      "type": "event"
    },
    {
      "anonymous": false,
      "inputs": [
        {
          "indexed": false,
          "internalType": "uint256",
          "name": "proposalId",
          "type": "uint256"
        },
        {
          "indexed": false,
          "internalType": "string",
          "name": "description",
          "type": "string"
        },
        {
          "indexed": false,
          "internalType": "address",
          "name": "proposer",
          "type": "address"
        }
      ],
      "name": "ProposalCreated",
      "type": "event"
    },
    {
      "anonymous": false,
      "inputs": [
        {
          "indexed": false,
          "internalType": "uint256",
          "name": "oldProposalThreshold",
          "type": "uint256"
        },
        {
          "indexed": false,
          "internalType": "uint256",
          "name": "newProposalThreshold",
          "type": "uint256"
        }
      ],
      "name": "ProposalThresholdSet",
      "type": "event"
    },
    {
      "anonymous": false,
      "inputs": [
        {
          "indexed": false,
          "internalType": "uint256[]",
          "name": "proposalIds",
          "type": "uint256[]"
        }
      ],
      "name": "ProposalsDeleted",
      "type": "event"
    },
    {
      "anonymous": false,
      "inputs": [
        {
          "indexed": false,
          "internalType": "uint256",
          "name": "oldSubmissionGatingByVotingToken",
          "type": "uint256"
        },
        {
          "indexed": false,
          "internalType": "uint256",
          "name": "newSubmissionGatingByVotingToken",
          "type": "uint256"
        }
      ],
      "name": "SubmissionGatingByVotingTokenSet",
      "type": "event"
    },
    {
      "anonymous": false,
      "inputs": [
        {
          "indexed": true,
          "internalType": "address",
          "name": "voter",
          "type": "address"
        },
        {
          "indexed": false,
          "internalType": "uint256",
          "name": "proposalId",
          "type": "uint256"
        },
        {
          "indexed": false,
          "internalType": "uint8",
          "name": "support",
          "type": "uint8"
        },
        {
          "indexed": false,
          "internalType": "uint256",
          "name": "numVotes",
          "type": "uint256"
        },
        {
          "indexed": false,
          "internalType": "string",
          "name": "reason",
          "type": "string"
        }
      ],
      "name": "VoteCast",
      "type": "event"
    },
    {
      "anonymous": false,
      "inputs": [
        {
          "indexed": false,
          "internalType": "uint256",
          "name": "oldVotingDelay",
          "type": "uint256"
        },
        {
          "indexed": false,
          "internalType": "uint256",
          "name": "newVotingDelay",
          "type": "uint256"
        }
      ],
      "name": "VotingDelaySet",
      "type": "event"
    },
    {
      "anonymous": false,
      "inputs": [
        {
          "indexed": false,
          "internalType": "uint256",
          "name": "oldVotingPeriod",
          "type": "uint256"
        },
        {
          "indexed": false,
          "internalType": "uint256",
          "name": "newVotingPeriod",
          "type": "uint256"
        }
      ],
      "name": "VotingPeriodSet",
      "type": "event"
    },
    {
      "inputs": [],
      "name": "BALLOT_TYPEHASH",
      "outputs": [
        {
          "internalType": "bytes32",
          "name": "",
          "type": "bytes32"
        }
      ],
      "stateMutability": "view",
      "type": "function"
    },
    {
      "inputs": [],
      "name": "COUNTING_MODE",
      "outputs": [
        {
          "internalType": "string",
          "name": "",
          "type": "string"
        }
      ],
      "stateMutability": "pure",
      "type": "function"
    },
    {
      "inputs": [],
      "name": "allProposalTotalVotes",
      "outputs": [
        {
          "internalType": "uint256[]",
          "name": "proposalIdsReturn",
          "type": "uint256[]"
        },
        {
          "components": [
            {
              "internalType": "uint256",
              "name": "forVotes",
              "type": "uint256"
            },
            {
              "internalType": "uint256",
              "name": "againstVotes",
              "type": "uint256"
            }
          ],
          "internalType": "struct GovernorCountingSimple.VoteCounts[]",
          "name": "proposalVoteCountsArrayReturn",
          "type": "tuple[]"
        }
      ],
      "stateMutability": "view",
      "type": "function"
    },
    {
      "inputs": [],
      "name": "cancel",
      "outputs": [],
      "stateMutability": "nonpayable",
      "type": "function"
    },
    {
      "inputs": [
        {
          "internalType": "uint256[]",
          "name": "proposalIds",
          "type": "uint256[]"
        },
        {
          "internalType": "uint8[]",
          "name": "supportInputs",
          "type": "uint8[]"
        },
        {
          "internalType": "uint256[]",
          "name": "numVotes",
          "type": "uint256[]"
        }
      ],
      "name": "castMultiVote",
      "outputs": [
        {
          "internalType": "uint256",
          "name": "balance",
          "type": "uint256"
        }
      ],
      "stateMutability": "nonpayable",
      "type": "function"
    },
    {
      "inputs": [
        {
          "internalType": "uint256",
          "name": "proposalId",
          "type": "uint256"
        },
        {
          "internalType": "uint8",
          "name": "support",
          "type": "uint8"
        },
        {
          "internalType": "uint256",
          "name": "numVotes",
          "type": "uint256"
        }
      ],
      "name": "castVote",
      "outputs": [
        {
          "internalType": "uint256",
          "name": "",
          "type": "uint256"
        }
      ],
      "stateMutability": "nonpayable",
      "type": "function"
    },
    {
      "inputs": [
        {
          "internalType": "uint256",
          "name": "proposalId",
          "type": "uint256"
        },
        {
          "internalType": "uint8",
          "name": "support",
          "type": "uint8"
        },
        {
          "internalType": "uint256",
          "name": "numVotes",
          "type": "uint256"
        },
        {
          "internalType": "uint8",
          "name": "v",
          "type": "uint8"
        },
        {
          "internalType": "bytes32",
          "name": "r",
          "type": "bytes32"
        },
        {
          "internalType": "bytes32",
          "name": "s",
          "type": "bytes32"
        }
      ],
      "name": "castVoteBySig",
      "outputs": [
        {
          "internalType": "uint256",
          "name": "",
          "type": "uint256"
        }
      ],
      "stateMutability": "nonpayable",
      "type": "function"
    },
    {
      "inputs": [
        {
          "internalType": "uint256",
          "name": "proposalId",
          "type": "uint256"
        },
        {
          "internalType": "uint8",
          "name": "support",
          "type": "uint8"
        },
        {
          "internalType": "uint256",
          "name": "numVotes",
          "type": "uint256"
        },
        {
          "internalType": "string",
          "name": "reason",
          "type": "string"
        }
      ],
      "name": "castVoteWithReason",
      "outputs": [
        {
          "internalType": "uint256",
          "name": "",
          "type": "uint256"
        }
      ],
      "stateMutability": "nonpayable",
      "type": "function"
    },
    {
      "inputs": [
        {
          "internalType": "address",
          "name": "userAddress",
          "type": "address"
        }
      ],
      "name": "contestAddressTotalVotesCast",
      "outputs": [
        {
          "internalType": "uint256",
          "name": "totalVotesCast",
          "type": "uint256"
        }
      ],
      "stateMutability": "view",
      "type": "function"
    },
    {
      "inputs": [],
      "name": "contestDeadline",
      "outputs": [
        {
          "internalType": "uint256",
          "name": "",
          "type": "uint256"
        }
      ],
      "stateMutability": "view",
      "type": "function"
    },
    {
      "inputs": [],
      "name": "contestSnapshot",
      "outputs": [
        {
          "internalType": "uint256",
          "name": "",
          "type": "uint256"
        }
      ],
      "stateMutability": "view",
      "type": "function"
    },
    {
      "inputs": [],
      "name": "contestStart",
      "outputs": [
        {
          "internalType": "uint256",
          "name": "",
          "type": "uint256"
        }
      ],
      "stateMutability": "view",
      "type": "function"
    },
    {
      "inputs": [],
      "name": "creator",
      "outputs": [
        {
          "internalType": "address",
          "name": "",
          "type": "address"
        }
      ],
      "stateMutability": "view",
      "type": "function"
    },
    {
      "inputs": [
        {
          "internalType": "uint256[]",
          "name": "proposalIds",
          "type": "uint256[]"
        }
      ],
      "name": "deleteProposals",
      "outputs": [],
      "stateMutability": "nonpayable",
      "type": "function"
    },
    {
      "inputs": [],
      "name": "downvotingAllowed",
      "outputs": [
        {
          "internalType": "uint256",
          "name": "",
          "type": "uint256"
        }
      ],
      "stateMutability": "view",
      "type": "function"
    },
    {
      "inputs": [],
      "name": "getAllProposalIds",
      "outputs": [
        {
          "internalType": "uint256[]",
          "name": "",
          "type": "uint256[]"
        }
      ],
      "stateMutability": "view",
      "type": "function"
    },
    {
      "inputs": [
        {
          "internalType": "address",
          "name": "account",
          "type": "address"
        }
      ],
      "name": "getCurrentSubmissionTokenVotes",
      "outputs": [
        {
          "internalType": "uint256",
          "name": "",
          "type": "uint256"
        }
      ],
      "stateMutability": "view",
      "type": "function"
    },
    {
      "inputs": [
        {
          "internalType": "address",
          "name": "account",
          "type": "address"
        }
      ],
      "name": "getCurrentVotes",
      "outputs": [
        {
          "internalType": "uint256",
          "name": "",
          "type": "uint256"
        }
      ],
      "stateMutability": "view",
      "type": "function"
    },
    {
      "inputs": [
        {
          "internalType": "address",
          "name": "account",
          "type": "address"
        }
      ],
      "name": "getNumSubmissions",
      "outputs": [
        {
          "internalType": "uint256",
          "name": "",
          "type": "uint256"
        }
      ],
      "stateMutability": "view",
      "type": "function"
    },
    {
      "inputs": [
        {
          "internalType": "uint256",
          "name": "proposalId",
          "type": "uint256"
        }
      ],
      "name": "getProposal",
      "outputs": [
        {
          "components": [
            {
              "internalType": "address",
              "name": "author",
              "type": "address"
            },
            {
              "internalType": "string",
              "name": "description",
              "type": "string"
            },
            {
              "internalType": "bool",
              "name": "exists",
              "type": "bool"
            }
          ],
          "internalType": "struct Governor.ProposalCore",
          "name": "",
          "type": "tuple"
        }
      ],
      "stateMutability": "view",
      "type": "function"
    },
    {
      "inputs": [
        {
          "internalType": "address",
          "name": "account",
          "type": "address"
        },
        {
          "internalType": "uint256",
          "name": "timestamp",
          "type": "uint256"
        }
      ],
      "name": "getVotes",
      "outputs": [
        {
          "internalType": "uint256",
          "name": "",
          "type": "uint256"
        }
      ],
      "stateMutability": "view",
      "type": "function"
    },
    {
      "inputs": [
        {
          "internalType": "string",
          "name": "proposalDescription",
          "type": "string"
        }
      ],
      "name": "hashProposal",
      "outputs": [
        {
          "internalType": "uint256",
          "name": "",
          "type": "uint256"
        }
      ],
      "stateMutability": "pure",
      "type": "function"
    },
    {
      "inputs": [],
      "name": "maxProposalCount",
      "outputs": [
        {
          "internalType": "uint256",
          "name": "",
          "type": "uint256"
        }
      ],
      "stateMutability": "view",
      "type": "function"
    },
    {
      "inputs": [],
      "name": "name",
      "outputs": [
        {
          "internalType": "string",
          "name": "",
          "type": "string"
        }
      ],
      "stateMutability": "view",
      "type": "function"
    },
    {
      "inputs": [],
      "name": "numAllowedProposalSubmissions",
      "outputs": [
        {
          "internalType": "uint256",
          "name": "",
          "type": "uint256"
        }
      ],
      "stateMutability": "view",
      "type": "function"
    },
    {
      "inputs": [],
      "name": "prompt",
      "outputs": [
        {
          "internalType": "string",
          "name": "",
          "type": "string"
        }
      ],
      "stateMutability": "view",
      "type": "function"
    },
    {
      "inputs": [
        {
          "internalType": "uint256",
          "name": "proposalId",
          "type": "uint256"
        },
        {
          "internalType": "address",
          "name": "userAddress",
          "type": "address"
        }
      ],
      "name": "proposalAddressVotes",
      "outputs": [
        {
          "internalType": "uint256",
          "name": "forVotes",
          "type": "uint256"
        },
        {
          "internalType": "uint256",
          "name": "againstVotes",
          "type": "uint256"
        }
      ],
      "stateMutability": "view",
      "type": "function"
    },
    {
      "inputs": [
        {
          "internalType": "uint256",
          "name": "proposalId",
          "type": "uint256"
        }
      ],
      "name": "proposalAddressesHaveVoted",
      "outputs": [
        {
          "internalType": "address[]",
          "name": "",
          "type": "address[]"
        }
      ],
      "stateMutability": "view",
      "type": "function"
    },
    {
      "inputs": [],
      "name": "proposalThreshold",
      "outputs": [
        {
          "internalType": "uint256",
          "name": "",
          "type": "uint256"
        }
      ],
      "stateMutability": "view",
      "type": "function"
    },
    {
      "inputs": [
        {
          "internalType": "uint256",
          "name": "proposalId",
          "type": "uint256"
        }
      ],
      "name": "proposalVotes",
      "outputs": [
        {
          "internalType": "uint256",
          "name": "forVotes",
          "type": "uint256"
        },
        {
          "internalType": "uint256",
          "name": "againstVotes",
          "type": "uint256"
        }
      ],
      "stateMutability": "view",
      "type": "function"
    },
    {
      "inputs": [
        {
          "internalType": "string",
          "name": "proposalDescription",
          "type": "string"
        }
      ],
      "name": "propose",
      "outputs": [
        {
          "internalType": "uint256",
          "name": "",
          "type": "uint256"
        }
      ],
      "stateMutability": "nonpayable",
      "type": "function"
    },
    {
      "inputs": [],
      "name": "state",
      "outputs": [
        {
          "internalType": "enum IGovernor.ContestState",
          "name": "",
          "type": "uint8"
        }
      ],
      "stateMutability": "view",
      "type": "function"
    },
    {
      "inputs": [],
      "name": "submissionGatingByVotingToken",
      "outputs": [
        {
          "internalType": "uint256",
          "name": "",
          "type": "uint256"
        }
      ],
      "stateMutability": "view",
      "type": "function"
    },
    {
      "inputs": [],
      "name": "submissionToken",
      "outputs": [
        {
          "internalType": "contract IVotesTimestamp",
          "name": "",
          "type": "address"
        }
      ],
      "stateMutability": "view",
      "type": "function"
    },
    {
      "inputs": [
        {
          "internalType": "bytes4",
          "name": "interfaceId",
          "type": "bytes4"
        }
      ],
      "name": "supportsInterface",
      "outputs": [
        {
          "internalType": "bool",
          "name": "",
          "type": "bool"
        }
      ],
      "stateMutability": "view",
      "type": "function"
    },
    {
      "inputs": [],
      "name": "token",
      "outputs": [
        {
          "internalType": "contract IVotesTimestamp",
          "name": "",
          "type": "address"
        }
      ],
      "stateMutability": "view",
      "type": "function"
    },
    {
      "inputs": [],
      "name": "version",
      "outputs": [
        {
          "internalType": "string",
          "name": "",
          "type": "string"
        }
      ],
      "stateMutability": "view",
      "type": "function"
    },
    {
      "inputs": [],
      "name": "voteStart",
      "outputs": [
        {
          "internalType": "uint256",
          "name": "",
          "type": "uint256"
        }
      ],
      "stateMutability": "view",
      "type": "function"
    },
    {
      "inputs": [],
      "name": "votingDelay",
      "outputs": [
        {
          "internalType": "uint256",
          "name": "",
          "type": "uint256"
        }
      ],
      "stateMutability": "view",
      "type": "function"
    },
    {
      "inputs": [],
      "name": "votingPeriod",
      "outputs": [
        {
          "internalType": "uint256",
          "name": "",
          "type": "uint256"
        }
      ],
      "stateMutability": "view",
      "type": "function"
    },
    {
      "stateMutability": "payable",
      "type": "receive"
    }
  ],
  "bytecode": "0x6101806040523480156200001257600080fd5b50604051620033d7380380620033d78339810160408190526200003591620007b4565b8282826000815181106200005957634e487b7160e01b600052603260045260246000fd5b6020026020010151836001815181106200008357634e487b7160e01b600052603260045260246000fd5b602002602001015184600281518110620000ad57634e487b7160e01b600052603260045260246000fd5b602002602001015185600381518110620000d757634e487b7160e01b600052603260045260246000fd5b6020026020010151866004815181106200010157634e487b7160e01b600052603260045260246000fd5b6020026020010151876005815181106200012b57634e487b7160e01b600052603260045260246000fd5b6020026020010151886006815181106200015557634e487b7160e01b600052603260045260246000fd5b6020026020010151896007815181106200017f57634e487b7160e01b600052603260045260246000fd5b60200260200101518a600881518110620001a957634e487b7160e01b600052603260045260246000fd5b60200260200101518f8f81620001c46200032e60201b60201c565b815160208084019190912082518383012060e08290526101008190524660a0818152604080517f8b73c3c69bb8fe3d512ecc4cf759cc79239f7b179b0ffacaa9a75d522b39400f81880181905281830187905260608201869052608082019490945230818401528151808203909301835260c00190528051940193909320919290916080523060601b60c05261012052505083516200026d925060019150602085019062000660565b5080516200028390600290602084019062000660565b50505062000297896200034960201b60201c565b620002a2886200038a565b620002ad87620003cb565b620002b88662000471565b620002c385620004b2565b620002ce84620004f3565b620002d98362000534565b620002e48262000575565b620002ef81620005b6565b620002fa33620005f7565b5050506001600160601b0319606098891b8116610140529690971b90951661016052506200095d9950505050505050505050565b6040805180820190915260018152603160f81b602082015290565b60065460408051918252602082018390527fd299feb1d7d9345a48559601c471c3be7eea9a11f21d5e86809198f40a974db4910160405180910390a1600655565b60075460408051918252602082018390527fc565b045403dc03c2eea82b81a0465edad9e2e7fc4d97e11421c209da93d7a93910160405180910390a1600755565b60008111620004305760405162461bcd60e51b815260206004820152602760248201527f476f7665726e6f7253657474696e67733a20766f74696e6720706572696f6420604482015266746f6f206c6f7760c81b606482015260840160405180910390fd5b60085460408051918252602082018390527f7e3f7f0708a84de9203036abaa450dccc85ad5ff52f78c170f3edb55cf5e8828910160405180910390a1600855565b60095460408051918252602082018390527f70d92b9b65fcaa7708049081fd0ad601c9af76bd86d38df0337dfce3d025ec83910160405180910390a1600955565b600a5460408051918252602082018390527fccb45da8d5717e6c4544694297c4ba5cf151d455c9bb0ed4fc7a38411bc05461910160405180910390a1600a55565b600b5460408051918252602082018390527fe971b819c7fb95c72451f557226aceb5baaf4994a9d39a79bbfa0040e87500b9910160405180910390a1600b55565b600c5460408051918252602082018390527f4984ec996723330ee95979ed65a2a4b41edd914e68a187efe92596474643bdff910160405180910390a1600c55565b600d5460408051918252602082018390527f9c7b27f091caef3a83be73d89320404fa0c4a52993685ff0651672e49e6e55ab910160405180910390a1600d55565b600e5460408051918252602082018390527f5f16486d27561553b443370316cba86e966b1e5ec1691fa07c81944abf314441910160405180910390a1600e55565b600f54604080516001600160a01b03928316815291831660208301527fc30034fc2e9697980e08935bbc287db3eaa44a4aa113ef4c108b356adbf911ce910160405180910390a1600f80546001600160a01b0319166001600160a01b0392909216919091179055565b8280546200066e906200090a565b90600052602060002090601f016020900481019282620006925760008555620006dd565b82601f10620006ad57805160ff1916838001178555620006dd565b82800160010185558215620006dd579182015b82811115620006dd578251825591602001919060010190620006c0565b50620006eb929150620006ef565b5090565b5b80821115620006eb5760008155600101620006f0565b80516001600160a01b03811681146200071e57600080fd5b919050565b600082601f83011262000734578081fd5b81516001600160401b0381111562000750576200075062000947565b602062000766601f8301601f19168201620008d7565b82815285828487010111156200077a578384fd5b835b83811015620007995785810183015182820184015282016200077c565b83811115620007aa57848385840101525b5095945050505050565b600080600080600060a08688031215620007cc578081fd5b85516001600160401b0380821115620007e3578283fd5b620007f189838a0162000723565b965060209150818801518181111562000808578384fd5b620008168a828b0162000723565b965050620008276040890162000706565b9450620008376060890162000706565b93506080880151818111156200084b578384fd5b8801601f81018a136200085c578384fd5b80518281111562000871576200087162000947565b8060051b925062000884848401620008d7565b8181528481019083860185850187018e10156200089f578788fd5b8795505b83861015620008c3578051835260019590950194918601918601620008a3565b508096505050505050509295509295909350565b604051601f8201601f191681016001600160401b038111828210171562000902576200090262000947565b604052919050565b600181811c908216806200091f57607f821691505b602082108114156200094157634e487b7160e01b600052602260045260246000fd5b50919050565b634e487b7160e01b600052604160045260246000fd5b60805160a05160c05160601c60e05161010051610120516101405160601c6101605160601c6129f6620009e16000396000818161036401526118dd0152600081816107df0152818161197c0152611a4c01526000611e0601526000611e5501526000611e3001526000611d8901526000611db301526000611ddd01526129f66000f3fe60806040526004361061023e5760003560e01c8063aa98df391161012e578063dd4e2ba5116100ab578063efa90d361161006f578063efa90d3614610761578063f0a7db0a14610783578063f36310b1146107a3578063fb9bf8d4146107b8578063fc0c546a146107cd57600080fd5b8063dd4e2ba51461069d578063deaaa7cc146106e3578063e031535b14610717578063ea8a1af01461072c578063eb9019d41461074157600080fd5b8063bd65e80a116100f2578063bd65e80a146105ee578063c19d93fb1461060e578063c46df56614610630578063c7f758a814610650578063d17ad2d41461067d57600080fd5b8063aa98df3914610536578063aec116b614610556578063b323580d1461058c578063b4b5ea57146105b9578063b58131b0146105d957600080fd5b806350a5e524116101bc57806360506ff61161018057806360506ff6146104885780636e4eb8101461049d5780637c65d711146104ec578063832009af146105015780639c0281761461051657600080fd5b806350a5e524146103a6578063540a9190146103c9578063544ffc9c146103de57806354fd4d50146104285780635f953a031461045257600080fd5b80631566f60d116102035780631566f60d14610308578063262e59e9146103285780633932abb11461033d5780634367aa4014610352578063462a2ad81461038657600080fd5b80624114a81461024c57806301ffc9a71461027457806302a251a3146102a457806302d05d3f146102b957806306fdde03146102e657600080fd5b3661024757005b005b600080fd5b34801561025857600080fd5b50610261610801565b6040519081526020015b60405180910390f35b34801561028057600080fd5b5061029461028f36600461242a565b610811565b604051901515815260200161026b565b3480156102b057600080fd5b50610261610848565b3480156102c557600080fd5b506102ce610853565b6040516001600160a01b03909116815260200161026b565b3480156102f257600080fd5b506102fb610867565b60405161026b91906127c1565b34801561031457600080fd5b5061026161032336600461256e565b6108f9565b34801561033457600080fd5b5061026161094d565b34801561034957600080fd5b50610261610969565b34801561035e57600080fd5b506102ce7f000000000000000000000000000000000000000000000000000000000000000081565b34801561039257600080fd5b506102616103a13660046122c9565b610974565b3480156103b257600080fd5b506103bb61097f565b60405161026b929190612739565b3480156103d557600080fd5b50600954610261565b3480156103ea57600080fd5b506104136103f93660046124df565b600090815260116020526040902080546001909101549091565b6040805192835260208301919091520161026b565b34801561043457600080fd5b506040805180820190915260018152603160f81b60208201526102fb565b34801561045e57600080fd5b5061026161046d3660046122c9565b6001600160a01b031660009081526005602052604090205490565b34801561049457600080fd5b50610261610ab0565b3480156104a957600080fd5b506104136104b836600461250f565b60008281526011602090815260408083206001600160a01b0385168452600301909152902080546001909101549250929050565b3480156104f857600080fd5b506102fb610abb565b34801561050d57600080fd5b50610261610aca565b34801561052257600080fd5b5061026161053136600461253a565b610ad5565b34801561054257600080fd5b50610261610551366004612452565b610b02565b34801561056257600080fd5b506102616105713660046122c9565b6001600160a01b031660009081526010602052604090205490565b34801561059857600080fd5b506105ac6105a73660046124df565b61108f565b60405161026b91906126d9565b3480156105c557600080fd5b506102616105d43660046122c9565b611101565b3480156105e557600080fd5b5061026161110c565b3480156105fa57600080fd5b50610261610609366004612452565b611117565b34801561061a57600080fd5b50610623611148565b60405161026b9190612799565b34801561063c57600080fd5b5061026161064b366004612347565b61119c565b34801561065c57600080fd5b5061067061066b3660046124df565b611298565b60405161026b91906127d4565b34801561068957600080fd5b506102616106983660046125fd565b61139c565b3480156106a957600080fd5b5060408051808201909152601881527f737570706f72743d627261766f2671756f72756d3d666f72000000000000000060208201526102fb565b3480156106ef57600080fd5b506102617f150214d74d59b7d1e90c73fc22ef3d991dd0a76b046543d4d80ab92d2a50328f81565b34801561072357600080fd5b50610261611432565b34801561073857600080fd5b50610245611444565b34801561074d57600080fd5b5061026161075c3660046122e3565b61154a565b34801561076d57600080fd5b50610776611556565b60405161026b9190612726565b34801561078f57600080fd5b5061024561079e36600461230c565b6115ad565b3480156107af57600080fd5b50610261611695565b3480156107c457600080fd5b506102616116a0565b3480156107d957600080fd5b506102ce7f000000000000000000000000000000000000000000000000000000000000000081565b600061080c60065490565b905090565b60006001600160e01b03198216630591b50d60e11b148061084257506301ffc9a760e01b6001600160e01b03198316145b92915050565b600061080c60085490565b600061080c600f546001600160a01b031690565b60606001805461087690612901565b80601f01602080910402602001604051908101604052809291908181526020018280546108a290612901565b80156108ef5780601f106108c4576101008083540402835291602001916108ef565b820191906000526020600020905b8154815290600101906020018083116108d257829003601f168201915b5050505050905090565b6000803390506109428782888888888080601f0160208091040260200160405190810160405280939291908181526020018383808284376000920191909152506116ab92505050565b979650505050505050565b6000610957610848565b61095f611432565b61080c91906128d2565b600061080c60075490565b6000610842826118bb565b606080600061098c611556565b90506000815167ffffffffffffffff8111156109b857634e487b7160e01b600052604160045260246000fd5b6040519080825280602002602001820160405280156109fd57816020015b60408051808201909152600080825260208201528152602001906001900390816109d65790505b50905060005b8251811015610aa65760116000848381518110610a3057634e487b7160e01b600052603260045260246000fd5b6020026020010151815260200190815260200160002060000160405180604001604052908160008201548152602001600182015481525050828281518110610a8857634e487b7160e01b600052603260045260246000fd5b60200260200101819052508080610a9e9061293c565b915050610a03565b5090939092509050565b600061080c600d5490565b60606002805461087690612901565b600061080c600b5490565b600080339050610af785828686604051806020016040528060008152506116ab565b9150505b9392505050565b60006002610b0e611148565b6003811115610b2d57634e487b7160e01b600052602160045260246000fd5b14610ba55760405162461bcd60e51b815260206004820152603e60248201527f476f7665726e6f723a20636f6e74657374206d7573742062652071756575656460448201527f20666f722070726f706f73616c7320746f206265207375626d6974746564000060648201526084015b60405180910390fd5b610bad610aca565b3360009081526005602052604090205410610c565760405162461bcd60e51b815260206004820152605d60248201527f476f7665726e6f723a207468652073616d652063616e6e6f74207375626d697460448201527f206d6f7265207468616e20746865206e756d416c6c6f77656450726f706f736160648201527f6c5375626d697373696f6e7320666f72207468697320636f6e74657374000000608482015260a401610b9c565b610c5e6116a0565b60005410610cd45760405162461bcd60e51b815260206004820152603960248201527f476f7665726e6f723a20746865206d6178206e756d626572206f662070726f7060448201527f6f73616c732068617665206265656e207375626d6974746564000000000000006064820152608401610b9c565b610cdc611695565b60011415610d7a57610cec61110c565b610cf533611101565b1015610d755760405162461bcd60e51b815260206004820152604360248201527f476f7665726e6f72436f6d7061746962696c697479427261766f3a2070726f7060448201527f6f73657220766f7465732062656c6f772070726f706f73616c207468726573686064820152621bdb1960ea1b608482015260a401610b9c565b610eb1565b610d82611695565b610e3157610d8e61110c565b610d9733610974565b1015610d755760405162461bcd60e51b815260206004820152605b60248201527f476f7665726e6f72436f6d7061746962696c697479427261766f3a2070726f7060448201527f6f736572207375626d697373696f6e20676174696e6720746f6b656e20766f7460648201527f65732062656c6f772070726f706f73616c207468726573686f6c640000000000608482015260a401610b9c565b60405162461bcd60e51b815260206004820152604960248201527f7375626d697373696f6e476174696e674279566f74696e67546f6b656e206d7560448201527f73742062652073657420746f20656974686572207472756520283129206f722060648201526866616c73652028302960b81b608482015260a401610b9c565b8151610eff5760405162461bcd60e51b815260206004820152601860248201527f476f7665726e6f723a20656d7074792070726f706f73616c00000000000000006044820152606401610b9c565b6000610f0a83611117565b60008181526004602052604090206002015490915060ff1615610f815760405162461bcd60e51b815260206004820152602960248201527f476f7665726e6f723a206475706c69636174652070726f706f73616c73206e6f6044820152681d08185b1b1bddd95960ba1b6064820152608401610b9c565b60008054600180820183557f290decd9548b62a8d60345a988386fc84ba6bc95484008f6362f93160ef3e5639091018390556040805160608101825233815260208082018881528284018590528686526004825292909420815181546001600160a01b0319166001600160a01b03909116178155915180519194929361100d9390850192910190612194565b50604091820151600291909101805460ff191691151591909117905533600090815260056020529081208054600192906110489084906128d2565b909155507fc8c078bfee58e5822588f08b4509ed1eb5058e03f666cca84dd2d44bf5c288a890508184336040516110819392919061281a565b60405180910390a192915050565b60008181526011602090815260409182902060028101805484518185028101850190955280855260609492938301828280156110f457602002820191906000526020600020905b81546001600160a01b031681526001909101906020018083116110d6575b5050505050915050919050565b60006108428261195a565b600061080c600a5490565b60008160405160200161112a91906127c1565b60408051601f19818403018152919052805160209091012092915050565b60035460009060ff161561115c5750600190565b6000611166611432565b905042811061117757600291505090565b600061118161094d565b90504281106111935760009250505090565b60039250505090565b600033815b855181101561128f57600186516111b891906128ea565b811415611259576112508682815181106111e257634e487b7160e01b600052603260045260246000fd5b60200260200101518387848151811061120b57634e487b7160e01b600052603260045260246000fd5b602002602001015187858151811061123357634e487b7160e01b600052603260045260246000fd5b6020026020010151604051806020016040528060008152506116ab565b92505050610afb565b61127c8682815181106111e257634e487b7160e01b600052603260045260246000fd5b50806112878161293c565b9150506111a1565b50509392505050565b6112c7604051806060016040528060006001600160a01b03168152602001606081526020016000151581525090565b60008281526004602090815260409182902082516060810190935280546001600160a01b03168352600181018054919284019161130390612901565b80601f016020809104026020016040519081016040528092919081815260200182805461132f90612901565b801561137c5780601f106113515761010080835404028352916020019161137c565b820191906000526020600020905b81548152906001019060200180831161135f57829003601f168201915b50505091835250506002919091015460ff16151560209091015292915050565b604080517f150214d74d59b7d1e90c73fc22ef3d991dd0a76b046543d4d80ab92d2a50328f602082015290810187905260ff8616606082015260009081906114089061140090608001604051602081830303815290604052805190602001206119ad565b8686866119fb565b905061142688828989604051806020016040528060008152506116ab565b98975050505050505050565b600061143c610969565b61095f610801565b61144c610853565b6001600160a01b0316336001600160a01b03161461146957600080fd5b6000611473611148565b9050600181600381111561149757634e487b7160e01b600052602160045260246000fd5b141580156114c5575060038160038111156114c257634e487b7160e01b600052602160045260246000fd5b14155b6115115760405162461bcd60e51b815260206004820152601c60248201527f476f7665726e6f723a20636f6e74657374206e6f7420616374697665000000006044820152606401610b9c565b6003805460ff191660011790556040517f4cd963a081760a54f571abc0f1db4dde31b4a07d8d6da3e844b8c6f47eeaaa4290600090a150565b6000610afb8383611a23565b606060008054806020026020016040519081016040528092919081815260200182805480156108ef57602002820191906000526020600020905b815481526020019060010190808311611590575050505050905090565b6115b5610853565b6001600160a01b0316336001600160a01b0316146115d257600080fd5b60005b815181101561165a576040518060600160405280603d8152602001612984603d91396004600084848151811061161b57634e487b7160e01b600052603260045260246000fd5b602002602001015181526020019081526020016000206001019080519060200190611647929190612194565b50806116528161293c565b9150506115d5565b507f75a75cf5c561892f4cc5b26c1b8e933849b42238c96dd073d080d1ae96c514168160405161168a9190612726565b60405180910390a150565b600061080c600e5490565b600061080c600c5490565b6000806116b6611148565b60038111156116d557634e487b7160e01b600052602160045260246000fd5b1461172e5760405162461bcd60e51b815260206004820152602360248201527f476f7665726e6f723a20766f7465206e6f742063757272656e746c792061637460448201526269766560e81b6064820152608401610b9c565b600083116117a45760405162461bcd60e51b815260206004820152603760248201527f476f7665726e6f72566f74696e6753696d706c653a2063616e6e6f7420766f7460448201527f6520776974682030206f7220666577657220766f7465730000000000000000006064820152608401610b9c565b60006117b38661075c60095490565b90506000811161185d5760405162461bcd60e51b815260206004820152606360248201527f476f7665726e6f72566f74696e6753696d706c653a20796f75206d757374206860448201527f6176652067726561746572207468616e20302064656c65676174656420766f7460648201527f65732061742074686520736e617073686f7420696e206f7264657220746f20766084820152626f746560e81b60a482015260c401610b9c565b61186a8787878785611ac8565b856001600160a01b03167fb8e138887d0aa13bab447e82de9d5c1777041ecd21ca36ba824ff1e6c07ddda4888787876040516118a9949392919061284b565b60405180910390a29695505050505050565b6040516309ab24eb60e41b81526001600160a01b0382811660048301526000917f000000000000000000000000000000000000000000000000000000000000000090911690639ab24eb0906024015b60206040518083038186803b15801561192257600080fd5b505afa158015611936573d6000803e3d6000fd5b505050506040513d601f19601f8201168201806040525081019061084291906124f7565b6040516309ab24eb60e41b81526001600160a01b0382811660048301526000917f000000000000000000000000000000000000000000000000000000000000000090911690639ab24eb09060240161190a565b60006108426119ba611d7c565b8360405161190160f01b6020820152602281018390526042810182905260009060620160405160208183030381529060405280519060200120905092915050565b6000806000611a0c87878787611ea3565b91509150611a1981611f90565b5095945050505050565b604051630748d63560e31b81526001600160a01b038381166004830152602482018390526000917f000000000000000000000000000000000000000000000000000000000000000090911690633a46b1a89060440160206040518083038186803b158015611a9057600080fd5b505afa158015611aa4573d6000803e3d6000fd5b505050506040513d601f19601f82011682018060405250810190610afb91906124f7565b60008581526011602090815260408083206001600160a01b0388168452601090925290912054611af890836128ea565b831115611b635760405162461bcd60e51b815260206004820152603360248201527f476f7665726e6f72566f74696e6753696d706c653a206e6f7420656e6f756768604482015272081d9bdd195cc81b19599d081d1bc818d85cdd606a1b6064820152608401610b9c565b6001600160a01b03851660009081526003820160205260409020541560ff8516611bd557815484908390600090611b9b9084906128d2565b90915550506001600160a01b038616600090815260038301602052604081208054869290611bca9084906128d2565b90915550611d0f9050565b60ff851660011415611ca957611be9610ab0565b600114611c60576040805162461bcd60e51b81526020600482015260248101919091527f476f7665726e6f72566f74696e6753696d706c653a20646f776e766f74696e6760448201527f206973206e6f7420656e61626c656420666f72207468697320436f6e746573746064820152608401610b9c565b83826000016001016000828254611c7791906128d2565b90915550506001600160a01b038616600090815260038301602052604081206001018054869290611bca9084906128d2565b60405162461bcd60e51b815260206004820152603560248201527f476f7665726e6f72566f74696e6753696d706c653a20696e76616c69642076616044820152746c756520666f7220656e756d20566f74655479706560581b6064820152608401610b9c565b8015611d4657600282018054600181018255600091825260209091200180546001600160a01b0319166001600160a01b0388161790555b6001600160a01b03861660009081526010602052604081208054869290611d6e9084906128d2565b909155505050505050505050565b6000306001600160a01b037f000000000000000000000000000000000000000000000000000000000000000016148015611dd557507f000000000000000000000000000000000000000000000000000000000000000046145b15611dff57507f000000000000000000000000000000000000000000000000000000000000000090565b50604080517f00000000000000000000000000000000000000000000000000000000000000006020808301919091527f0000000000000000000000000000000000000000000000000000000000000000828401527f000000000000000000000000000000000000000000000000000000000000000060608301524660808301523060a0808401919091528351808403909101815260c0909201909252805191012090565b6000807f7fffffffffffffffffffffffffffffff5d576e7357a4501ddfe92f46681b20a0831115611eda5750600090506003611f87565b8460ff16601b14158015611ef257508460ff16601c14155b15611f035750600090506004611f87565b6040805160008082526020820180845289905260ff881692820192909252606081018690526080810185905260019060a0016020604051602081039080840390855afa158015611f57573d6000803e3d6000fd5b5050604051601f1901519150506001600160a01b038116611f8057600060019250925050611f87565b9150600090505b94509492505050565b6000816004811115611fb257634e487b7160e01b600052602160045260246000fd5b1415611fbb5750565b6001816004811115611fdd57634e487b7160e01b600052602160045260246000fd5b141561202b5760405162461bcd60e51b815260206004820152601860248201527f45434453413a20696e76616c6964207369676e617475726500000000000000006044820152606401610b9c565b600281600481111561204d57634e487b7160e01b600052602160045260246000fd5b141561209b5760405162461bcd60e51b815260206004820152601f60248201527f45434453413a20696e76616c6964207369676e6174757265206c656e677468006044820152606401610b9c565b60038160048111156120bd57634e487b7160e01b600052602160045260246000fd5b14156121165760405162461bcd60e51b815260206004820152602260248201527f45434453413a20696e76616c6964207369676e6174757265202773272076616c604482015261756560f01b6064820152608401610b9c565b600481600481111561213857634e487b7160e01b600052602160045260246000fd5b14156121915760405162461bcd60e51b815260206004820152602260248201527f45434453413a20696e76616c6964207369676e6174757265202776272076616c604482015261756560f01b6064820152608401610b9c565b50565b8280546121a090612901565b90600052602060002090601f0160209004810192826121c25760008555612208565b82601f106121db57805160ff1916838001178555612208565b82800160010185558215612208579182015b828111156122085782518255916020019190600101906121ed565b50612214929150612218565b5090565b5b808211156122145760008155600101612219565b80356001600160a01b038116811461224457600080fd5b919050565b600082601f830112612259578081fd5b8135602061226e612269836128ae565b61287d565b80838252828201915082860187848660051b890101111561228d578586fd5b855b858110156122ab5781358452928401929084019060010161228f565b5090979650505050505050565b803560ff8116811461224457600080fd5b6000602082840312156122da578081fd5b610afb8261222d565b600080604083850312156122f5578081fd5b6122fe8361222d565b946020939093013593505050565b60006020828403121561231d578081fd5b813567ffffffffffffffff811115612333578182fd5b61233f84828501612249565b949350505050565b60008060006060848603121561235b578081fd5b833567ffffffffffffffff80821115612372578283fd5b61237e87838801612249565b9450602091508186013581811115612394578384fd5b8601601f810188136123a4578384fd5b80356123b2612269826128ae565b8082825285820191508584018b878560051b87010111156123d1578788fd5b8794505b838510156123fa576123e6816122b8565b8352600194909401939186019186016123d5565b5096505050506040860135915080821115612413578283fd5b5061242086828701612249565b9150509250925092565b60006020828403121561243b578081fd5b81356001600160e01b031981168114610afb578182fd5b60006020808385031215612464578182fd5b823567ffffffffffffffff8082111561247b578384fd5b818501915085601f83011261248e578384fd5b8135818111156124a0576124a061296d565b6124b2601f8201601f1916850161287d565b915080825286848285010111156124c7578485fd5b80848401858401378101909201929092529392505050565b6000602082840312156124f0578081fd5b5035919050565b600060208284031215612508578081fd5b5051919050565b60008060408385031215612521578182fd5b823591506125316020840161222d565b90509250929050565b60008060006060848603121561254e578283fd5b8335925061255e602085016122b8565b9150604084013590509250925092565b600080600080600060808688031215612585578081fd5b85359450612595602087016122b8565b935060408601359250606086013567ffffffffffffffff808211156125b8578283fd5b818801915088601f8301126125cb578283fd5b8135818111156125d9578384fd5b8960208285010111156125ea578384fd5b9699959850939650602001949392505050565b60008060008060008060c08789031215612615578384fd5b86359550612625602088016122b8565b94506040870135935061263a606088016122b8565b92506080870135915060a087013590509295509295509295565b6000815180845260208085019450808401835b8381101561268357815187529582019590820190600101612667565b509495945050505050565b60008151808452815b818110156126b357602081850181015186830182015201612697565b818111156126c45782602083870101525b50601f01601f19169290920160200192915050565b6020808252825182820181905260009190848201906040850190845b8181101561271a5783516001600160a01b0316835292840192918401916001016126f5565b50909695505050505050565b602081526000610afb6020830184612654565b6000604080835261274c81840186612654565b838103602085810191909152855180835286820192820190855b8181101561278b57845180518452840151848401529383019391850191600101612766565b509098975050505050505050565b60208101600483106127bb57634e487b7160e01b600052602160045260246000fd5b91905290565b602081526000610afb602083018461268e565b602080825282516001600160a01b03168282015282015160606040830152600090612802608084018261268e565b90506040840151151560608401528091505092915050565b838152606060208201526000612833606083018561268e565b905060018060a01b0383166040830152949350505050565b84815260ff84166020820152826040820152608060608201526000612873608083018461268e565b9695505050505050565b604051601f8201601f1916810167ffffffffffffffff811182821017156128a6576128a661296d565b604052919050565b600067ffffffffffffffff8211156128c8576128c861296d565b5060051b60200190565b600082198211156128e5576128e5612957565b500190565b6000828210156128fc576128fc612957565b500390565b600181811c9082168061291557607f821691505b6020821081141561293657634e487b7160e01b600052602260045260246000fd5b50919050565b600060001982141561295057612950612957565b5060010190565b634e487b7160e01b600052601160045260246000fd5b634e487b7160e01b600052604160045260246000fdfe546869732070726f706f73616c20686173206265656e2064656c65746564206279207468652063726561746f72206f662074686520636f6e746573742ea26469706673582212204c3cab6a892b510ac374ab1a64b59a6545bf637ab663d860176080b1e21ffd2f64736f6c63430008040033",
  "linkReferences": {},
  "deployedLinkReferences": {}
}