{
  "_format": "hh-sol-artifact-1",
  "contractName": "Contest",
  "sourceName": "contracts/Contest.sol",
  "abi": [
    {
      "inputs": [
        {
          "internalType": "string",
          "name": "_name",
          "type": "string"
        },
        {
          "internalType": "contract IVotes",
          "name": "_token",
          "type": "address"
        },
        {
          "internalType": "uint256",
          "name": "_initialVotingDelay",
          "type": "uint256"
        },
        {
          "internalType": "uint256",
          "name": "_initialVotingPeriod",
          "type": "uint256"
        },
        {
          "internalType": "uint256",
          "name": "_initialProposalThreshold",
          "type": "uint256"
        },
        {
          "internalType": "uint64",
          "name": "_voteStartBlock",
          "type": "uint64"
        },
        {
          "internalType": "uint256",
          "name": "_initialMaxProposalCount",
          "type": "uint256"
        }
      ],
      "stateMutability": "nonpayable",
      "type": "constructor"
    },
    {
      "anonymous": false,
      "inputs": [],
      "name": "ContestCanceled",
      "type": "event"
    },
    {
      "anonymous": false,
      "inputs": [
        {
          "indexed": false,
          "internalType": "uint256",
          "name": "oldMaxProposalCount",
          "type": "uint256"
        },
        {
          "indexed": false,
          "internalType": "uint256",
          "name": "newMaxProposalCount",
          "type": "uint256"
        }
      ],
      "name": "MaxProposalCountSet",
      "type": "event"
    },
    {
      "anonymous": false,
      "inputs": [
        {
          "indexed": false,
          "internalType": "address",
          "name": "oldOwner",
          "type": "address"
        },
        {
          "indexed": false,
          "internalType": "address",
          "name": "newOwner",
          "type": "address"
        }
      ],
      "name": "OwnerSet",
      "type": "event"
    },
    {
      "anonymous": false,
      "inputs": [
        {
          "indexed": false,
          "internalType": "uint256",
          "name": "proposalId",
          "type": "uint256"
        },
        {
          "indexed": false,
          "internalType": "string",
          "name": "description",
          "type": "string"
        },
        {
          "indexed": false,
          "internalType": "address",
          "name": "proposer",
          "type": "address"
        }
      ],
      "name": "ProposalCreated",
      "type": "event"
    },
    {
      "anonymous": false,
      "inputs": [
        {
          "indexed": false,
          "internalType": "uint256",
          "name": "oldProposalThreshold",
          "type": "uint256"
        },
        {
          "indexed": false,
          "internalType": "uint256",
          "name": "newProposalThreshold",
          "type": "uint256"
        }
      ],
      "name": "ProposalThresholdSet",
      "type": "event"
    },
    {
      "anonymous": false,
      "inputs": [
        {
          "indexed": true,
          "internalType": "address",
          "name": "voter",
          "type": "address"
        },
        {
          "indexed": false,
          "internalType": "uint256",
          "name": "proposalId",
          "type": "uint256"
        },
        {
          "indexed": false,
          "internalType": "uint8",
          "name": "support",
          "type": "uint8"
        },
        {
          "indexed": false,
          "internalType": "uint256",
          "name": "numVotes",
          "type": "uint256"
        },
        {
          "indexed": false,
          "internalType": "string",
          "name": "reason",
          "type": "string"
        }
      ],
      "name": "VoteCast",
      "type": "event"
    },
    {
      "anonymous": false,
      "inputs": [
        {
          "indexed": false,
          "internalType": "uint256",
          "name": "oldVoteStartBlock",
          "type": "uint256"
        },
        {
          "indexed": false,
          "internalType": "uint64",
          "name": "newVoteStartBlock",
          "type": "uint64"
        }
      ],
      "name": "VoteStartBlockSet",
      "type": "event"
    },
    {
      "anonymous": false,
      "inputs": [
        {
          "indexed": false,
          "internalType": "uint256",
          "name": "oldVotingDelay",
          "type": "uint256"
        },
        {
          "indexed": false,
          "internalType": "uint256",
          "name": "newVotingDelay",
          "type": "uint256"
        }
      ],
      "name": "VotingDelaySet",
      "type": "event"
    },
    {
      "anonymous": false,
      "inputs": [
        {
          "indexed": false,
          "internalType": "uint256",
          "name": "oldVotingPeriod",
          "type": "uint256"
        },
        {
          "indexed": false,
          "internalType": "uint256",
          "name": "newVotingPeriod",
          "type": "uint256"
        }
      ],
      "name": "VotingPeriodSet",
      "type": "event"
    },
    {
      "inputs": [],
      "name": "BALLOT_TYPEHASH",
      "outputs": [
        {
          "internalType": "bytes32",
          "name": "",
          "type": "bytes32"
        }
      ],
      "stateMutability": "view",
      "type": "function"
    },
    {
      "inputs": [],
      "name": "COUNTING_MODE",
      "outputs": [
        {
          "internalType": "string",
          "name": "",
          "type": "string"
        }
      ],
      "stateMutability": "pure",
      "type": "function"
    },
    {
      "inputs": [],
      "name": "cancel",
      "outputs": [],
      "stateMutability": "nonpayable",
      "type": "function"
    },
    {
      "inputs": [
        {
          "internalType": "uint256",
          "name": "proposalId",
          "type": "uint256"
        },
        {
          "internalType": "uint8",
          "name": "support",
          "type": "uint8"
        },
        {
          "internalType": "uint256",
          "name": "numVotes",
          "type": "uint256"
        }
      ],
      "name": "castVote",
      "outputs": [
        {
          "internalType": "uint256",
          "name": "",
          "type": "uint256"
        }
      ],
      "stateMutability": "nonpayable",
      "type": "function"
    },
    {
      "inputs": [
        {
          "internalType": "uint256",
          "name": "proposalId",
          "type": "uint256"
        },
        {
          "internalType": "uint8",
          "name": "support",
          "type": "uint8"
        },
        {
          "internalType": "uint256",
          "name": "numVotes",
          "type": "uint256"
        },
        {
          "internalType": "uint8",
          "name": "v",
          "type": "uint8"
        },
        {
          "internalType": "bytes32",
          "name": "r",
          "type": "bytes32"
        },
        {
          "internalType": "bytes32",
          "name": "s",
          "type": "bytes32"
        }
      ],
      "name": "castVoteBySig",
      "outputs": [
        {
          "internalType": "uint256",
          "name": "",
          "type": "uint256"
        }
      ],
      "stateMutability": "nonpayable",
      "type": "function"
    },
    {
      "inputs": [
        {
          "internalType": "uint256",
          "name": "proposalId",
          "type": "uint256"
        },
        {
          "internalType": "uint8",
          "name": "support",
          "type": "uint8"
        },
        {
          "internalType": "uint256",
          "name": "numVotes",
          "type": "uint256"
        },
        {
          "internalType": "string",
          "name": "reason",
          "type": "string"
        }
      ],
      "name": "castVoteWithReason",
      "outputs": [
        {
          "internalType": "uint256",
          "name": "",
          "type": "uint256"
        }
      ],
      "stateMutability": "nonpayable",
      "type": "function"
    },
    {
      "inputs": [
        {
          "internalType": "address",
          "name": "userAddress",
          "type": "address"
        }
      ],
      "name": "contestAddressTotalVotesCast",
      "outputs": [
        {
          "internalType": "uint256",
          "name": "totalVotesCast",
          "type": "uint256"
        }
      ],
      "stateMutability": "view",
      "type": "function"
    },
    {
      "inputs": [],
      "name": "contestDeadline",
      "outputs": [
        {
          "internalType": "uint256",
          "name": "",
          "type": "uint256"
        }
      ],
      "stateMutability": "view",
      "type": "function"
    },
    {
      "inputs": [],
      "name": "contestSnapshot",
      "outputs": [
        {
          "internalType": "uint256",
          "name": "",
          "type": "uint256"
        }
      ],
      "stateMutability": "view",
      "type": "function"
    },
    {
      "inputs": [],
      "name": "contestStart",
      "outputs": [
        {
          "internalType": "uint256",
          "name": "",
          "type": "uint256"
        }
      ],
      "stateMutability": "view",
      "type": "function"
    },
    {
      "inputs": [],
      "name": "getAllProposalIds",
      "outputs": [
        {
          "internalType": "uint256[]",
          "name": "",
          "type": "uint256[]"
        }
      ],
      "stateMutability": "view",
      "type": "function"
    },
    {
      "inputs": [
        {
          "internalType": "uint256",
          "name": "proposalId",
          "type": "uint256"
        }
      ],
      "name": "getProposal",
      "outputs": [
        {
          "components": [
            {
              "internalType": "address",
              "name": "author",
              "type": "address"
            },
            {
              "internalType": "string",
              "name": "description",
              "type": "string"
            },
            {
              "internalType": "bool",
              "name": "exists",
              "type": "bool"
            }
          ],
          "internalType": "struct Governor.ProposalCore",
          "name": "",
          "type": "tuple"
        }
      ],
      "stateMutability": "view",
      "type": "function"
    },
    {
      "inputs": [
        {
          "internalType": "address",
          "name": "account",
          "type": "address"
        },
        {
          "internalType": "uint256",
          "name": "blockNumber",
          "type": "uint256"
        }
      ],
      "name": "getVotes",
      "outputs": [
        {
          "internalType": "uint256",
          "name": "",
          "type": "uint256"
        }
      ],
      "stateMutability": "view",
      "type": "function"
    },
    {
      "inputs": [
        {
          "internalType": "string",
          "name": "proposalDescription",
          "type": "string"
        }
      ],
      "name": "hashProposal",
      "outputs": [
        {
          "internalType": "uint256",
          "name": "",
          "type": "uint256"
        }
      ],
      "stateMutability": "pure",
      "type": "function"
    },
    {
      "inputs": [],
      "name": "maxProposalCount",
      "outputs": [
        {
          "internalType": "uint256",
          "name": "",
          "type": "uint256"
        }
      ],
      "stateMutability": "view",
      "type": "function"
    },
    {
      "inputs": [],
      "name": "name",
      "outputs": [
        {
          "internalType": "string",
          "name": "",
          "type": "string"
        }
      ],
      "stateMutability": "view",
      "type": "function"
    },
    {
      "inputs": [],
      "name": "owner",
      "outputs": [
        {
          "internalType": "address",
          "name": "",
          "type": "address"
        }
      ],
      "stateMutability": "view",
      "type": "function"
    },
    {
      "inputs": [
        {
          "internalType": "uint256",
          "name": "proposalId",
          "type": "uint256"
        },
        {
          "internalType": "address",
          "name": "userAddress",
          "type": "address"
        }
      ],
      "name": "proposalAddressVotes",
      "outputs": [
        {
          "internalType": "uint256",
          "name": "forVotes",
          "type": "uint256"
        }
      ],
      "stateMutability": "view",
      "type": "function"
    },
    {
      "inputs": [
        {
          "internalType": "uint256",
          "name": "proposalId",
          "type": "uint256"
        }
      ],
      "name": "proposalAddressesHaveVoted",
      "outputs": [
        {
          "internalType": "address[]",
          "name": "",
          "type": "address[]"
        }
      ],
      "stateMutability": "view",
      "type": "function"
    },
    {
      "inputs": [],
      "name": "proposalThreshold",
      "outputs": [
        {
          "internalType": "uint256",
          "name": "",
          "type": "uint256"
        }
      ],
      "stateMutability": "view",
      "type": "function"
    },
    {
      "inputs": [
        {
          "internalType": "uint256",
          "name": "proposalId",
          "type": "uint256"
        }
      ],
      "name": "proposalVotes",
      "outputs": [
        {
          "internalType": "uint256",
          "name": "forVotes",
          "type": "uint256"
        }
      ],
      "stateMutability": "view",
      "type": "function"
    },
    {
      "inputs": [
        {
          "internalType": "string",
          "name": "proposalDescription",
          "type": "string"
        }
      ],
      "name": "propose",
      "outputs": [
        {
          "internalType": "uint256",
          "name": "",
          "type": "uint256"
        }
      ],
      "stateMutability": "nonpayable",
      "type": "function"
    },
    {
      "inputs": [],
      "name": "state",
      "outputs": [
        {
          "internalType": "enum IGovernor.ContestState",
          "name": "",
          "type": "uint8"
        }
      ],
      "stateMutability": "view",
      "type": "function"
    },
    {
      "inputs": [
        {
          "internalType": "bytes4",
          "name": "interfaceId",
          "type": "bytes4"
        }
      ],
      "name": "supportsInterface",
      "outputs": [
        {
          "internalType": "bool",
          "name": "",
          "type": "bool"
        }
      ],
      "stateMutability": "view",
      "type": "function"
    },
    {
      "inputs": [],
      "name": "token",
      "outputs": [
        {
          "internalType": "contract IVotes",
          "name": "",
          "type": "address"
        }
      ],
      "stateMutability": "view",
      "type": "function"
    },
    {
      "inputs": [],
      "name": "version",
      "outputs": [
        {
          "internalType": "string",
          "name": "",
          "type": "string"
        }
      ],
      "stateMutability": "view",
      "type": "function"
    },
    {
      "inputs": [],
      "name": "votingDelay",
      "outputs": [
        {
          "internalType": "uint256",
          "name": "",
          "type": "uint256"
        }
      ],
      "stateMutability": "view",
      "type": "function"
    },
    {
      "inputs": [],
      "name": "votingPeriod",
      "outputs": [
        {
          "internalType": "uint256",
          "name": "",
          "type": "uint256"
        }
      ],
      "stateMutability": "view",
      "type": "function"
    },
    {
      "stateMutability": "payable",
      "type": "receive"
    }
  ],
  "bytecode": "0x6101606040523480156200001257600080fd5b5060405162002589380380620025898339810160408190526200003591620004cd565b8585858585858c806200005c6040805180820190915260018152603160f81b602082015290565b815160208084019190912082518383012060e08290526101008190524660a0818152604080517f8b73c3c69bb8fe3d512ecc4cf759cc79239f7b179b0ffacaa9a75d522b39400f81880181905281830187905260608201869052608082019490945230818401528151808203909301835260c00190528051940193909320919290916080523060601b60c0526101205250508251620001059250600191506020840190620003f2565b50620001139050856200016e565b6200011e84620001af565b620001298362000255565b620001348262000296565b6200013f8162000327565b6200014a3362000368565b505050505060601b6001600160601b03191661014052506200064495505050505050565b60055460408051918252602082018390527fc565b045403dc03c2eea82b81a0465edad9e2e7fc4d97e11421c209da93d7a93910160405180910390a1600555565b60008111620002145760405162461bcd60e51b815260206004820152602760248201527f476f7665726e6f7253657474696e67733a20766f74696e6720706572696f6420604482015266746f6f206c6f7760c81b606482015260840160405180910390fd5b60065460408051918252602082018390527f7e3f7f0708a84de9203036abaa450dccc85ad5ff52f78c170f3edb55cf5e8828910160405180910390a1600655565b60075460408051918252602082018390527fccb45da8d5717e6c4544694297c4ba5cf151d455c9bb0ed4fc7a38411bc05461910160405180910390a1600755565b6040805160208082019092526009546001600160401b031681527f052000359245365cbcb4396b9ebabd953288d90a4a40ed36ba3f9b0a737223fe91620002e7919062000fc9620003d1821b17901c565b604080516001600160401b03928316815291841660208301520160405180910390a162000324816009620003d560201b62000fcd1790919060201c565b50565b60085460408051918252602082018390527f4984ec996723330ee95979ed65a2a4b41edd914e68a187efe92596474643bdff910160405180910390a1600855565b600a54604080516001600160a01b03928316815291831660208301527f342827c97908e5e2f71151c08502a66d44b6f758e3ac2f1de95f02eb95f0a735910160405180910390a1600a80546001600160a01b0319166001600160a01b0392909216919091179055565b5190565b81546001600160401b0319166001600160401b0391909116179055565b8280546200040090620005f1565b90600052602060002090601f0160209004810192826200042457600085556200046f565b82601f106200043f57805160ff19168380011785556200046f565b828001600101855582156200046f579182015b828111156200046f57825182559160200191906001019062000452565b506200047d92915062000481565b5090565b5b808211156200047d576000815560010162000482565b80516001600160a01b0381168114620004b057600080fd5b919050565b80516001600160401b0381168114620004b057600080fd5b600080600080600080600060e0888a031215620004e8578283fd5b87516001600160401b0380821115620004ff578485fd5b818a0191508a601f83011262000513578485fd5b8151818111156200052857620005286200062e565b604051601f8201601f19908116603f011681019083821181831017156200055357620005536200062e565b81604052828152602093508d848487010111156200056f578788fd5b8791505b8282101562000592578482018401518183018501529083019062000573565b82821115620005a357878484830101525b9a50620005b59150508a820162000498565b97505050604088015194506060880151935060808801519250620005dc60a08901620004b5565b915060c0880151905092959891949750929550565b600181811c908216806200060657607f821691505b602082108114156200062857634e487b7160e01b600052602260045260246000fd5b50919050565b634e487b7160e01b600052604160045260246000fd5b60805160a05160c05160601c60e05161010051610120516101405160601c611edd620006ac600039600081816105ae015261129a0152600061157f015260006115ce015260006115a9015260006115020152600061152c015260006115560152611edd6000f3fe6080604052600436106101ba5760003560e01c8063aec116b6116100ec578063dd4e2ba51161008a578063eb9019d411610064578063eb9019d414610545578063efa90d3614610565578063fb9bf8d414610587578063fc0c546a1461059c57600080fd5b8063dd4e2ba5146104c8578063deaaa7cc146104fc578063ea8a1af01461053057600080fd5b8063bd65e80a116100c6578063bd65e80a14610439578063c19d93fb14610459578063c7f758a81461047b578063d17ad2d4146104a857600080fd5b8063aec116b6146103c1578063b323580d146103f7578063b58131b01461042457600080fd5b8063540a9190116101595780636e4eb810116101335780636e4eb8101461030d5780638da5cb5b146103545780639c02817614610381578063aa98df39146103a157600080fd5b8063540a9190146102a1578063544ffc9c146102b657806354fd4d50146102e357600080fd5b806306fdde031161019557806306fdde03146102355780631566f60d14610257578063262e59e9146102775780633932abb11461028c57600080fd5b80624114a8146101c857806301ffc9a7146101f057806302a251a31461022057600080fd5b366101c357005b005b600080fd5b3480156101d457600080fd5b506101dd6105d0565b6040519081526020015b60405180910390f35b3480156101fc57600080fd5b5061021061020b366004611a16565b6105f9565b60405190151581526020016101e7565b34801561022c57600080fd5b506101dd610630565b34801561024157600080fd5b5061024a61063b565b6040516101e79190611d55565b34801561026357600080fd5b506101dd610272366004611b77565b6106cd565b34801561028357600080fd5b506101dd610721565b34801561029857600080fd5b506101dd61073d565b3480156102ad57600080fd5b506101dd610748565b3480156102c257600080fd5b506101dd6102d1366004611ae8565b6000908152600c602052604090205490565b3480156102ef57600080fd5b506040805180820190915260018152603160f81b602082015261024a565b34801561031957600080fd5b506101dd610328366004611b18565b6000828152600c602090815260408083206001600160a01b038516845260020190915290205492915050565b34801561036057600080fd5b5061036961075a565b6040516001600160a01b0390911681526020016101e7565b34801561038d57600080fd5b506101dd61039c366004611b43565b61076e565b3480156103ad57600080fd5b506101dd6103bc366004611a3e565b610799565b3480156103cd57600080fd5b506101dd6103dc3660046119d3565b6001600160a01b03166000908152600b602052604090205490565b34801561040357600080fd5b50610417610412366004611ae8565b610bb2565b6040516101e79190611ca8565b34801561043057600080fd5b506101dd610c24565b34801561044557600080fd5b506101dd610454366004611a3e565b610c2f565b34801561046557600080fd5b5061046e610c60565b6040516101e79190611d2d565b34801561048757600080fd5b5061049b610496366004611ae8565b610cb4565b6040516101e79190611d68565b3480156104b457600080fd5b506101dd6104c3366004611c06565b610db8565b3480156104d457600080fd5b5060408051808201909152600b81526a39bab83837b93a1eb337b960a91b602082015261024a565b34801561050857600080fd5b506101dd7f150214d74d59b7d1e90c73fc22ef3d991dd0a76b046543d4d80ab92d2a50328f81565b34801561053c57600080fd5b506101c1610e4e565b34801561055157600080fd5b506101dd6105603660046119ed565b610f54565b34801561057157600080fd5b5061057a610f67565b6040516101e79190611cf5565b34801561059357600080fd5b506101dd610fbe565b3480156105a857600080fd5b506103697f000000000000000000000000000000000000000000000000000000000000000081565b60006105f4604080516020810190915260095467ffffffffffffffff169081905290565b905090565b60006001600160e01b03198216632ef04ddd60e01b148061062a57506301ffc9a760e01b6001600160e01b03198316145b92915050565b60006105f460065490565b60606001805461064a90611e40565b80601f016020809104026020016040519081016040528092919081815260200182805461067690611e40565b80156106c35780601f10610698576101008083540402835291602001916106c3565b820191906000526020600020905b8154815290600101906020018083116106a657829003601f168201915b5050505050905090565b6000803390506107168782888888888080601f016020809104026020016040519081016040528093929190818152602001838380828437600092019190915250610fec92505050565b979650505050505050565b600061072b610630565b610733610748565b6105f49190611e11565b60006105f460055490565b600061075261073d565b6107336105d0565b60006105f4600a546001600160a01b031690565b6000803390506107908582868660405180602001604052806000815250610fec565b95945050505050565b600060026107a5610c60565b60038111156107c457634e487b7160e01b600052602160045260246000fd5b1461083c5760405162461bcd60e51b815260206004820152603e60248201527f476f7665726e6f723a20636f6e74657374206d7573742062652071756575656460448201527f20666f722070726f706f73616c7320746f206265207375626d6974746564000060648201526084015b60405180910390fd5b3360009081526004602052604090205460ff161515600114156108c75760405162461bcd60e51b815260206004820152603f60248201527f476f7665726e6f723a207468652073616d6520616464726573732063616e6e6f60448201527f74207375626d6974206d6f7265207468616e206f6e652070726f706f73616c006064820152608401610833565b6108cf610fbe565b600054106109455760405162461bcd60e51b815260206004820152603960248201527f476f7665726e6f723a20746865206d6178206e756d626572206f662070726f7060448201527f6f73616c732068617665206265656e207375626d6974746564000000000000006064820152608401610833565b61094d610c24565b61095c33610560600143611e29565b10156109dc5760405162461bcd60e51b815260206004820152604360248201527f476f7665726e6f72436f6d7061746962696c697479427261766f3a2070726f7060448201527f6f73657220766f7465732062656c6f772070726f706f73616c207468726573686064820152621bdb1960ea1b608482015260a401610833565b8151610a2a5760405162461bcd60e51b815260206004820152601860248201527f476f7665726e6f723a20656d7074792070726f706f73616c00000000000000006044820152606401610833565b6000610a3583610c2f565b60008181526003602052604090206002015490915060ff1615610aac5760405162461bcd60e51b815260206004820152602960248201527f476f7665726e6f723a206475706c69636174652070726f706f73616c73206e6f6044820152681d08185b1b1bddd95960ba1b6064820152608401610833565b60008054600180820183557f290decd9548b62a8d60345a988386fc84ba6bc95484008f6362f93160ef3e5639091018390556040805160608101825233815260208082018881528284018590528686526003825292909420815181546001600160a01b0319166001600160a01b039091161781559151805191949293610b38939085019291019061190d565b506040918201516002909101805491151560ff19928316179055336000908152600460205291909120805490911660011790557fc8c078bfee58e5822588f08b4509ed1eb5058e03f666cca84dd2d44bf5c288a88184610b953390565b604051610ba493929190611dae565b60405180910390a192915050565b6000818152600c60209081526040918290206001810180548451818502810185019095528085526060949293830182828015610c1757602002820191906000526020600020905b81546001600160a01b03168152600190910190602001808311610bf9575b5050505050915050919050565b60006105f460075490565b600081604051602001610c429190611d55565b60408051601f19818403018152919052805160209091012092915050565b60025460009060ff1615610c745750600190565b6000610c7e610748565b9050438110610c8f57600291505090565b6000610c99610721565b9050438110610cab5760009250505090565b60039250505090565b610ce3604051806060016040528060006001600160a01b03168152602001606081526020016000151581525090565b60008281526003602090815260409182902082516060810190935280546001600160a01b031683526001810180549192840191610d1f90611e40565b80601f0160208091040260200160405190810160405280929190818152602001828054610d4b90611e40565b8015610d985780601f10610d6d57610100808354040283529160200191610d98565b820191906000526020600020905b815481529060010190602001808311610d7b57829003601f168201915b50505091835250506002919091015460ff16151560209091015292915050565b604080517f150214d74d59b7d1e90c73fc22ef3d991dd0a76b046543d4d80ab92d2a50328f602082015290810187905260ff861660608201526000908190610e2490610e1c90608001604051602081830303815290604052805190602001206111fb565b868686611249565b9050610e428882898960405180602001604052806000815250610fec565b98975050505050505050565b610e5661075a565b6001600160a01b0316336001600160a01b031614610e7357600080fd5b6000610e7d610c60565b90506001816003811115610ea157634e487b7160e01b600052602160045260246000fd5b14158015610ecf57506003816003811115610ecc57634e487b7160e01b600052602160045260246000fd5b14155b610f1b5760405162461bcd60e51b815260206004820152601c60248201527f476f7665726e6f723a20636f6e74657374206e6f7420616374697665000000006044820152606401610833565b6002805460ff191660011790556040517f4cd963a081760a54f571abc0f1db4dde31b4a07d8d6da3e844b8c6f47eeaaa4290600090a150565b6000610f608383611271565b9392505050565b606060008054806020026020016040519081016040528092919081815260200182805480156106c357602002820191906000526020600020905b815481526020019060010190808311610fa1575050505050905090565b60006105f460085490565b5190565b815467ffffffffffffffff191667ffffffffffffffff91909116179055565b600080610ff7610c60565b600381111561101657634e487b7160e01b600052602160045260246000fd5b1461106f5760405162461bcd60e51b815260206004820152602360248201527f476f7665726e6f723a20766f7465206e6f742063757272656e746c792061637460448201526269766560e81b6064820152608401610833565b600083116110e55760405162461bcd60e51b815260206004820152603760248201527f476f7665726e6f72566f74696e6753696d706c653a2063616e6e6f7420766f7460448201527f6520776974682030206f7220666577657220766f7465730000000000000000006064820152608401610833565b60006110f386610560610748565b90506000811161119d5760405162461bcd60e51b815260206004820152606360248201527f476f7665726e6f72566f74696e6753696d706c653a20796f75206d757374206860448201527f6176652067726561746572207468616e20302064656c65676174656420766f7460648201527f65732061742074686520736e617073686f7420696e206f7264657220746f20766084820152626f746560e81b60a482015260c401610833565b6111aa8787878785611316565b856001600160a01b03167fb8e138887d0aa13bab447e82de9d5c1777041ecd21ca36ba824ff1e6c07ddda4888787876040516111e99493929190611ddf565b60405180910390a29695505050505050565b600061062a6112086114f5565b8360405161190160f01b6020820152602281018390526042810182905260009060620160405160208183030381529060405280519060200120905092915050565b600080600061125a8787878761161c565b9150915061126781611709565b5095945050505050565b604051630748d63560e31b81526001600160a01b038381166004830152602482018390526000917f000000000000000000000000000000000000000000000000000000000000000090911690633a46b1a89060440160206040518083038186803b1580156112de57600080fd5b505afa1580156112f2573d6000803e3d6000fd5b505050506040513d601f19601f82011682018060405250810190610f609190611b00565b6000858152600c602090815260408083206001600160a01b0388168452600b909252909120546113469083611e29565b8311156113b15760405162461bcd60e51b815260206004820152603360248201527f476f7665726e6f72566f74696e6753696d706c653a206e6f7420656e6f756768604482015272081d9bdd195cc81b19599d081d1bc818d85cdd606a1b6064820152608401610833565b6001600160a01b03851660009081526002820160205260409020541560ff8516611423578154849083906000906113e9908490611e11565b90915550506001600160a01b038616600090815260028301602052604081208054869290611418908490611e11565b909155506114899050565b60405162461bcd60e51b815260206004820152603560248201527f476f7665726e6f72566f74696e6753696d706c653a20696e76616c69642076616044820152746c756520666f7220656e756d20566f74655479706560581b6064820152608401610833565b80156114bf576001828101805491820181556000908152602090200180546001600160a01b0319166001600160a01b0388161790555b6001600160a01b0386166000908152600b6020526040812080548692906114e7908490611e11565b909155505050505050505050565b6000306001600160a01b037f00000000000000000000000000000000000000000000000000000000000000001614801561154e57507f000000000000000000000000000000000000000000000000000000000000000046145b1561157857507f000000000000000000000000000000000000000000000000000000000000000090565b50604080517f00000000000000000000000000000000000000000000000000000000000000006020808301919091527f0000000000000000000000000000000000000000000000000000000000000000828401527f000000000000000000000000000000000000000000000000000000000000000060608301524660808301523060a0808401919091528351808403909101815260c0909201909252805191012090565b6000807f7fffffffffffffffffffffffffffffff5d576e7357a4501ddfe92f46681b20a08311156116535750600090506003611700565b8460ff16601b1415801561166b57508460ff16601c14155b1561167c5750600090506004611700565b6040805160008082526020820180845289905260ff881692820192909252606081018690526080810185905260019060a0016020604051602081039080840390855afa1580156116d0573d6000803e3d6000fd5b5050604051601f1901519150506001600160a01b0381166116f957600060019250925050611700565b9150600090505b94509492505050565b600081600481111561172b57634e487b7160e01b600052602160045260246000fd5b14156117345750565b600181600481111561175657634e487b7160e01b600052602160045260246000fd5b14156117a45760405162461bcd60e51b815260206004820152601860248201527f45434453413a20696e76616c6964207369676e617475726500000000000000006044820152606401610833565b60028160048111156117c657634e487b7160e01b600052602160045260246000fd5b14156118145760405162461bcd60e51b815260206004820152601f60248201527f45434453413a20696e76616c6964207369676e6174757265206c656e677468006044820152606401610833565b600381600481111561183657634e487b7160e01b600052602160045260246000fd5b141561188f5760405162461bcd60e51b815260206004820152602260248201527f45434453413a20696e76616c6964207369676e6174757265202773272076616c604482015261756560f01b6064820152608401610833565b60048160048111156118b157634e487b7160e01b600052602160045260246000fd5b141561190a5760405162461bcd60e51b815260206004820152602260248201527f45434453413a20696e76616c6964207369676e6174757265202776272076616c604482015261756560f01b6064820152608401610833565b50565b82805461191990611e40565b90600052602060002090601f01602090048101928261193b5760008555611981565b82601f1061195457805160ff1916838001178555611981565b82800160010185558215611981579182015b82811115611981578251825591602001919060010190611966565b5061198d929150611991565b5090565b5b8082111561198d5760008155600101611992565b80356001600160a01b03811681146119bd57600080fd5b919050565b803560ff811681146119bd57600080fd5b6000602082840312156119e4578081fd5b610f60826119a6565b600080604083850312156119ff578081fd5b611a08836119a6565b946020939093013593505050565b600060208284031215611a27578081fd5b81356001600160e01b031981168114610f60578182fd5b600060208284031215611a4f578081fd5b813567ffffffffffffffff80821115611a66578283fd5b818401915084601f830112611a79578283fd5b813581811115611a8b57611a8b611e91565b604051601f8201601f19908116603f01168101908382118183101715611ab357611ab3611e91565b81604052828152876020848701011115611acb578586fd5b826020860160208301379182016020019490945295945050505050565b600060208284031215611af9578081fd5b5035919050565b600060208284031215611b11578081fd5b5051919050565b60008060408385031215611b2a578182fd5b82359150611b3a602084016119a6565b90509250929050565b600080600060608486031215611b57578081fd5b83359250611b67602085016119c2565b9150604084013590509250925092565b600080600080600060808688031215611b8e578081fd5b85359450611b9e602087016119c2565b935060408601359250606086013567ffffffffffffffff80821115611bc1578283fd5b818801915088601f830112611bd4578283fd5b813581811115611be2578384fd5b896020828501011115611bf3578384fd5b9699959850939650602001949392505050565b60008060008060008060c08789031215611c1e578081fd5b86359550611c2e602088016119c2565b945060408701359350611c43606088016119c2565b92506080870135915060a087013590509295509295509295565b60008151808452815b81811015611c8257602081850181015186830182015201611c66565b81811115611c935782602083870101525b50601f01601f19169290920160200192915050565b6020808252825182820181905260009190848201906040850190845b81811015611ce95783516001600160a01b031683529284019291840191600101611cc4565b50909695505050505050565b6020808252825182820181905260009190848201906040850190845b81811015611ce957835183529284019291840191600101611d11565b6020810160048310611d4f57634e487b7160e01b600052602160045260246000fd5b91905290565b602081526000610f606020830184611c5d565b602080825282516001600160a01b03168282015282015160606040830152600090611d966080840182611c5d565b90506040840151151560608401528091505092915050565b838152606060208201526000611dc76060830185611c5d565b905060018060a01b0383166040830152949350505050565b84815260ff84166020820152826040820152608060608201526000611e076080830184611c5d565b9695505050505050565b60008219821115611e2457611e24611e7b565b500190565b600082821015611e3b57611e3b611e7b565b500390565b600181811c90821680611e5457607f821691505b60208210811415611e7557634e487b7160e01b600052602260045260246000fd5b50919050565b634e487b7160e01b600052601160045260246000fd5b634e487b7160e01b600052604160045260246000fdfea264697066735822122094ae09e06d3d5a937f5b1a30b2cdeb7923d6d29e8ae40ad149ebf386a617591764736f6c63430008040033",
  "linkReferences": {},
  "deployedLinkReferences": {}
}