{
  "_format": "hh-sol-artifact-1",
  "contractName": "Contest",
  "sourceName": "contracts/Contest.sol",
  "abi": [
    {
      "inputs": [
        {
          "internalType": "string",
          "name": "_name",
          "type": "string"
        },
        {
          "internalType": "contract IVotesTimestamp",
          "name": "_token",
          "type": "address"
        },
        {
          "internalType": "uint256[]",
          "name": "_constructorIntParams",
          "type": "uint256[]"
        }
      ],
      "stateMutability": "nonpayable",
      "type": "constructor"
    },
    {
      "anonymous": false,
      "inputs": [],
      "name": "ContestCanceled",
      "type": "event"
    },
    {
      "anonymous": false,
      "inputs": [
        {
          "indexed": false,
          "internalType": "uint256",
          "name": "oldContestSnapshot",
          "type": "uint256"
        },
        {
          "indexed": false,
          "internalType": "uint256",
          "name": "newContestSnapshot",
          "type": "uint256"
        }
      ],
      "name": "ContestSnapshotSet",
      "type": "event"
    },
    {
      "anonymous": false,
      "inputs": [
        {
          "indexed": false,
          "internalType": "uint256",
          "name": "oldContestStart",
          "type": "uint256"
        },
        {
          "indexed": false,
          "internalType": "uint256",
          "name": "newContestStart",
          "type": "uint256"
        }
      ],
      "name": "ContestStartSet",
      "type": "event"
    },
    {
      "anonymous": false,
      "inputs": [
        {
          "indexed": false,
          "internalType": "address",
          "name": "oldCreator",
          "type": "address"
        },
        {
          "indexed": false,
          "internalType": "address",
          "name": "newCreator",
          "type": "address"
        }
      ],
      "name": "CreatorSet",
      "type": "event"
    },
    {
      "anonymous": false,
      "inputs": [
        {
          "indexed": false,
          "internalType": "uint256",
          "name": "oldMaxProposalCount",
          "type": "uint256"
        },
        {
          "indexed": false,
          "internalType": "uint256",
          "name": "newMaxProposalCount",
          "type": "uint256"
        }
      ],
      "name": "MaxProposalCountSet",
      "type": "event"
    },
    {
      "anonymous": false,
      "inputs": [
        {
          "indexed": false,
          "internalType": "uint256",
          "name": "oldNumAllowedProposalSubmissions",
          "type": "uint256"
        },
        {
          "indexed": false,
          "internalType": "uint256",
          "name": "newNumAllowedProposalSubmissions",
          "type": "uint256"
        }
      ],
      "name": "NumAllowedProposalSubmissionsSet",
      "type": "event"
    },
    {
      "anonymous": false,
      "inputs": [
        {
          "indexed": false,
          "internalType": "uint256",
          "name": "proposalId",
          "type": "uint256"
        },
        {
          "indexed": false,
          "internalType": "string",
          "name": "description",
          "type": "string"
        },
        {
          "indexed": false,
          "internalType": "address",
          "name": "proposer",
          "type": "address"
        }
      ],
      "name": "ProposalCreated",
      "type": "event"
    },
    {
      "anonymous": false,
      "inputs": [
        {
          "indexed": false,
          "internalType": "uint256",
          "name": "oldProposalThreshold",
          "type": "uint256"
        },
        {
          "indexed": false,
          "internalType": "uint256",
          "name": "newProposalThreshold",
          "type": "uint256"
        }
      ],
      "name": "ProposalThresholdSet",
      "type": "event"
    },
    {
      "anonymous": false,
      "inputs": [
        {
          "indexed": false,
          "internalType": "uint256[]",
          "name": "proposalIds",
          "type": "uint256[]"
        }
      ],
      "name": "ProposalsDeleted",
      "type": "event"
    },
    {
      "anonymous": false,
      "inputs": [
        {
          "indexed": true,
          "internalType": "address",
          "name": "voter",
          "type": "address"
        },
        {
          "indexed": false,
          "internalType": "uint256",
          "name": "proposalId",
          "type": "uint256"
        },
        {
          "indexed": false,
          "internalType": "uint8",
          "name": "support",
          "type": "uint8"
        },
        {
          "indexed": false,
          "internalType": "uint256",
          "name": "numVotes",
          "type": "uint256"
        },
        {
          "indexed": false,
          "internalType": "string",
          "name": "reason",
          "type": "string"
        }
      ],
      "name": "VoteCast",
      "type": "event"
    },
    {
      "anonymous": false,
      "inputs": [
        {
          "indexed": false,
          "internalType": "uint256",
          "name": "oldVotingDelay",
          "type": "uint256"
        },
        {
          "indexed": false,
          "internalType": "uint256",
          "name": "newVotingDelay",
          "type": "uint256"
        }
      ],
      "name": "VotingDelaySet",
      "type": "event"
    },
    {
      "anonymous": false,
      "inputs": [
        {
          "indexed": false,
          "internalType": "uint256",
          "name": "oldVotingPeriod",
          "type": "uint256"
        },
        {
          "indexed": false,
          "internalType": "uint256",
          "name": "newVotingPeriod",
          "type": "uint256"
        }
      ],
      "name": "VotingPeriodSet",
      "type": "event"
    },
    {
      "inputs": [],
      "name": "BALLOT_TYPEHASH",
      "outputs": [
        {
          "internalType": "bytes32",
          "name": "",
          "type": "bytes32"
        }
      ],
      "stateMutability": "view",
      "type": "function"
    },
    {
      "inputs": [],
      "name": "COUNTING_MODE",
      "outputs": [
        {
          "internalType": "string",
          "name": "",
          "type": "string"
        }
      ],
      "stateMutability": "pure",
      "type": "function"
    },
    {
      "inputs": [],
      "name": "cancel",
      "outputs": [],
      "stateMutability": "nonpayable",
      "type": "function"
    },
    {
      "inputs": [
        {
          "internalType": "uint256",
          "name": "proposalId",
          "type": "uint256"
        },
        {
          "internalType": "uint8",
          "name": "support",
          "type": "uint8"
        },
        {
          "internalType": "uint256",
          "name": "numVotes",
          "type": "uint256"
        }
      ],
      "name": "castVote",
      "outputs": [
        {
          "internalType": "uint256",
          "name": "",
          "type": "uint256"
        }
      ],
      "stateMutability": "nonpayable",
      "type": "function"
    },
    {
      "inputs": [
        {
          "internalType": "uint256",
          "name": "proposalId",
          "type": "uint256"
        },
        {
          "internalType": "uint8",
          "name": "support",
          "type": "uint8"
        },
        {
          "internalType": "uint256",
          "name": "numVotes",
          "type": "uint256"
        },
        {
          "internalType": "uint8",
          "name": "v",
          "type": "uint8"
        },
        {
          "internalType": "bytes32",
          "name": "r",
          "type": "bytes32"
        },
        {
          "internalType": "bytes32",
          "name": "s",
          "type": "bytes32"
        }
      ],
      "name": "castVoteBySig",
      "outputs": [
        {
          "internalType": "uint256",
          "name": "",
          "type": "uint256"
        }
      ],
      "stateMutability": "nonpayable",
      "type": "function"
    },
    {
      "inputs": [
        {
          "internalType": "uint256",
          "name": "proposalId",
          "type": "uint256"
        },
        {
          "internalType": "uint8",
          "name": "support",
          "type": "uint8"
        },
        {
          "internalType": "uint256",
          "name": "numVotes",
          "type": "uint256"
        },
        {
          "internalType": "string",
          "name": "reason",
          "type": "string"
        }
      ],
      "name": "castVoteWithReason",
      "outputs": [
        {
          "internalType": "uint256",
          "name": "",
          "type": "uint256"
        }
      ],
      "stateMutability": "nonpayable",
      "type": "function"
    },
    {
      "inputs": [
        {
          "internalType": "address",
          "name": "userAddress",
          "type": "address"
        }
      ],
      "name": "contestAddressTotalVotesCast",
      "outputs": [
        {
          "internalType": "uint256",
          "name": "totalVotesCast",
          "type": "uint256"
        }
      ],
      "stateMutability": "view",
      "type": "function"
    },
    {
      "inputs": [],
      "name": "contestDeadline",
      "outputs": [
        {
          "internalType": "uint256",
          "name": "",
          "type": "uint256"
        }
      ],
      "stateMutability": "view",
      "type": "function"
    },
    {
      "inputs": [],
      "name": "contestSnapshot",
      "outputs": [
        {
          "internalType": "uint256",
          "name": "",
          "type": "uint256"
        }
      ],
      "stateMutability": "view",
      "type": "function"
    },
    {
      "inputs": [],
      "name": "contestStart",
      "outputs": [
        {
          "internalType": "uint256",
          "name": "",
          "type": "uint256"
        }
      ],
      "stateMutability": "view",
      "type": "function"
    },
    {
      "inputs": [],
      "name": "creator",
      "outputs": [
        {
          "internalType": "address",
          "name": "",
          "type": "address"
        }
      ],
      "stateMutability": "view",
      "type": "function"
    },
    {
      "inputs": [
        {
          "internalType": "uint256[]",
          "name": "proposalIds",
          "type": "uint256[]"
        }
      ],
      "name": "deleteProposals",
      "outputs": [],
      "stateMutability": "nonpayable",
      "type": "function"
    },
    {
      "inputs": [],
      "name": "getAllProposalIds",
      "outputs": [
        {
          "internalType": "uint256[]",
          "name": "",
          "type": "uint256[]"
        }
      ],
      "stateMutability": "view",
      "type": "function"
    },
    {
      "inputs": [
        {
          "internalType": "address",
          "name": "account",
          "type": "address"
        }
      ],
      "name": "getCurrentVotes",
      "outputs": [
        {
          "internalType": "uint256",
          "name": "",
          "type": "uint256"
        }
      ],
      "stateMutability": "view",
      "type": "function"
    },
    {
      "inputs": [
        {
          "internalType": "address",
          "name": "account",
          "type": "address"
        }
      ],
      "name": "getNumSubmissions",
      "outputs": [
        {
          "internalType": "uint256",
          "name": "",
          "type": "uint256"
        }
      ],
      "stateMutability": "view",
      "type": "function"
    },
    {
      "inputs": [
        {
          "internalType": "uint256",
          "name": "proposalId",
          "type": "uint256"
        }
      ],
      "name": "getProposal",
      "outputs": [
        {
          "components": [
            {
              "internalType": "address",
              "name": "author",
              "type": "address"
            },
            {
              "internalType": "string",
              "name": "description",
              "type": "string"
            },
            {
              "internalType": "bool",
              "name": "exists",
              "type": "bool"
            }
          ],
          "internalType": "struct Governor.ProposalCore",
          "name": "",
          "type": "tuple"
        }
      ],
      "stateMutability": "view",
      "type": "function"
    },
    {
      "inputs": [
        {
          "internalType": "address",
          "name": "account",
          "type": "address"
        },
        {
          "internalType": "uint256",
          "name": "blockNumber",
          "type": "uint256"
        }
      ],
      "name": "getVotes",
      "outputs": [
        {
          "internalType": "uint256",
          "name": "",
          "type": "uint256"
        }
      ],
      "stateMutability": "view",
      "type": "function"
    },
    {
      "inputs": [
        {
          "internalType": "string",
          "name": "proposalDescription",
          "type": "string"
        }
      ],
      "name": "hashProposal",
      "outputs": [
        {
          "internalType": "uint256",
          "name": "",
          "type": "uint256"
        }
      ],
      "stateMutability": "pure",
      "type": "function"
    },
    {
      "inputs": [],
      "name": "maxProposalCount",
      "outputs": [
        {
          "internalType": "uint256",
          "name": "",
          "type": "uint256"
        }
      ],
      "stateMutability": "view",
      "type": "function"
    },
    {
      "inputs": [],
      "name": "name",
      "outputs": [
        {
          "internalType": "string",
          "name": "",
          "type": "string"
        }
      ],
      "stateMutability": "view",
      "type": "function"
    },
    {
      "inputs": [],
      "name": "numAllowedProposalSubmissions",
      "outputs": [
        {
          "internalType": "uint256",
          "name": "",
          "type": "uint256"
        }
      ],
      "stateMutability": "view",
      "type": "function"
    },
    {
      "inputs": [
        {
          "internalType": "uint256",
          "name": "proposalId",
          "type": "uint256"
        },
        {
          "internalType": "address",
          "name": "userAddress",
          "type": "address"
        }
      ],
      "name": "proposalAddressVotes",
      "outputs": [
        {
          "internalType": "uint256",
          "name": "forVotes",
          "type": "uint256"
        }
      ],
      "stateMutability": "view",
      "type": "function"
    },
    {
      "inputs": [
        {
          "internalType": "uint256",
          "name": "proposalId",
          "type": "uint256"
        }
      ],
      "name": "proposalAddressesHaveVoted",
      "outputs": [
        {
          "internalType": "address[]",
          "name": "",
          "type": "address[]"
        }
      ],
      "stateMutability": "view",
      "type": "function"
    },
    {
      "inputs": [],
      "name": "proposalThreshold",
      "outputs": [
        {
          "internalType": "uint256",
          "name": "",
          "type": "uint256"
        }
      ],
      "stateMutability": "view",
      "type": "function"
    },
    {
      "inputs": [
        {
          "internalType": "uint256",
          "name": "proposalId",
          "type": "uint256"
        }
      ],
      "name": "proposalVotes",
      "outputs": [
        {
          "internalType": "uint256",
          "name": "forVotes",
          "type": "uint256"
        }
      ],
      "stateMutability": "view",
      "type": "function"
    },
    {
      "inputs": [
        {
          "internalType": "string",
          "name": "proposalDescription",
          "type": "string"
        }
      ],
      "name": "propose",
      "outputs": [
        {
          "internalType": "uint256",
          "name": "",
          "type": "uint256"
        }
      ],
      "stateMutability": "nonpayable",
      "type": "function"
    },
    {
      "inputs": [],
      "name": "state",
      "outputs": [
        {
          "internalType": "enum IGovernor.ContestState",
          "name": "",
          "type": "uint8"
        }
      ],
      "stateMutability": "view",
      "type": "function"
    },
    {
      "inputs": [
        {
          "internalType": "bytes4",
          "name": "interfaceId",
          "type": "bytes4"
        }
      ],
      "name": "supportsInterface",
      "outputs": [
        {
          "internalType": "bool",
          "name": "",
          "type": "bool"
        }
      ],
      "stateMutability": "view",
      "type": "function"
    },
    {
      "inputs": [],
      "name": "token",
      "outputs": [
        {
          "internalType": "contract IVotesTimestamp",
          "name": "",
          "type": "address"
        }
      ],
      "stateMutability": "view",
      "type": "function"
    },
    {
      "inputs": [],
      "name": "version",
      "outputs": [
        {
          "internalType": "string",
          "name": "",
          "type": "string"
        }
      ],
      "stateMutability": "view",
      "type": "function"
    },
    {
      "inputs": [],
      "name": "voteStart",
      "outputs": [
        {
          "internalType": "uint256",
          "name": "",
          "type": "uint256"
        }
      ],
      "stateMutability": "view",
      "type": "function"
    },
    {
      "inputs": [],
      "name": "votingDelay",
      "outputs": [
        {
          "internalType": "uint256",
          "name": "",
          "type": "uint256"
        }
      ],
      "stateMutability": "view",
      "type": "function"
    },
    {
      "inputs": [],
      "name": "votingPeriod",
      "outputs": [
        {
          "internalType": "uint256",
          "name": "",
          "type": "uint256"
        }
      ],
      "stateMutability": "view",
      "type": "function"
    },
    {
      "stateMutability": "payable",
      "type": "receive"
    }
  ],
  "bytecode": "0x6101606040523480156200001257600080fd5b5060405162002acb38038062002acb833981016040819052620000359162000695565b81816000815181106200005857634e487b7160e01b600052603260045260246000fd5b6020026020010151826001815181106200008257634e487b7160e01b600052603260045260246000fd5b602002602001015183600281518110620000ac57634e487b7160e01b600052603260045260246000fd5b602002602001015184600381518110620000d657634e487b7160e01b600052603260045260246000fd5b6020026020010151856004815181106200010057634e487b7160e01b600052603260045260246000fd5b6020026020010151866005815181106200012a57634e487b7160e01b600052603260045260246000fd5b6020026020010151876006815181106200015457634e487b7160e01b600052603260045260246000fd5b60200260200101518a806200016e6200029760201b60201c565b815160208084019190912082518383012060e08290526101008190524660a0818152604080517f8b73c3c69bb8fe3d512ecc4cf759cc79239f7b179b0ffacaa9a75d522b39400f81880181905281830187905260608201869052608082019490945230818401528151808203909301835260c00190528051940193909320919290916080523060601b60c052610120525050825162000217925060019150602084019062000547565b5062000225905087620002b2565b6200023086620002f3565b6200023b8562000334565b6200024684620003da565b62000251836200041b565b6200025c826200045c565b62000267816200049d565b6200027233620004de565b505050505060609290921b6001600160601b03191661014052506200080b9350505050565b6040805180820190915260018152603160f81b602082015290565b60055460408051918252602082018390527fd299feb1d7d9345a48559601c471c3be7eea9a11f21d5e86809198f40a974db4910160405180910390a1600555565b60065460408051918252602082018390527fc565b045403dc03c2eea82b81a0465edad9e2e7fc4d97e11421c209da93d7a93910160405180910390a1600655565b60008111620003995760405162461bcd60e51b815260206004820152602760248201527f476f7665726e6f7253657474696e67733a20766f74696e6720706572696f6420604482015266746f6f206c6f7760c81b606482015260840160405180910390fd5b60075460408051918252602082018390527f7e3f7f0708a84de9203036abaa450dccc85ad5ff52f78c170f3edb55cf5e8828910160405180910390a1600755565b60085460408051918252602082018390527f70d92b9b65fcaa7708049081fd0ad601c9af76bd86d38df0337dfce3d025ec83910160405180910390a1600855565b60095460408051918252602082018390527fccb45da8d5717e6c4544694297c4ba5cf151d455c9bb0ed4fc7a38411bc05461910160405180910390a1600955565b600a5460408051918252602082018390527fe971b819c7fb95c72451f557226aceb5baaf4994a9d39a79bbfa0040e87500b9910160405180910390a1600a55565b600b5460408051918252602082018390527f4984ec996723330ee95979ed65a2a4b41edd914e68a187efe92596474643bdff910160405180910390a1600b55565b600c54604080516001600160a01b03928316815291831660208301527fc30034fc2e9697980e08935bbc287db3eaa44a4aa113ef4c108b356adbf911ce910160405180910390a1600c80546001600160a01b0319166001600160a01b0392909216919091179055565b8280546200055590620007b8565b90600052602060002090601f016020900481019282620005795760008555620005c4565b82601f106200059457805160ff1916838001178555620005c4565b82800160010185558215620005c4579182015b82811115620005c4578251825591602001919060010190620005a7565b50620005d2929150620005d6565b5090565b5b80821115620005d25760008155600101620005d7565b600082601f830112620005fe578081fd5b815160206001600160401b038211156200061c576200061c620007f5565b8160051b6200062d82820162000785565b83815282810190868401838801850189101562000648578687fd5b8693505b858410156200066c5780518352600193909301929184019184016200064c565b50979650505050505050565b80516001600160a01b03811681146200069057600080fd5b919050565b600080600060608486031215620006aa578283fd5b83516001600160401b0380821115620006c1578485fd5b818601915086601f830112620006d5578485fd5b815181811115620006ea57620006ea620007f5565b602062000700601f8301601f1916820162000785565b828152898284870101111562000714578788fd5b875b838110156200073357858101830151828201840152820162000716565b838111156200074457888385840101525b5096506200075488820162000678565b9550505060408601519150808211156200076c578283fd5b506200077b86828701620005ed565b9150509250925092565b604051601f8201601f191681016001600160401b0381118282101715620007b057620007b0620007f5565b604052919050565b600181811c90821680620007cd57607f821691505b60208210811415620007ef57634e487b7160e01b600052602260045260246000fd5b50919050565b634e487b7160e01b600052604160045260246000fd5b60805160a05160c05160601c60e05161010051610120516101405160601c6122516200087a60003960008181610685015281816113df01526114fa015260006117df0152600061182e01526000611809015260006117620152600061178c015260006117b601526122516000f3fe6080604052600436106101f15760003560e01c8063aec116b61161010d578063dd4e2ba5116100a0578063eb9019d41161006f578063eb9019d4146105fc578063efa90d361461061c578063f0a7db0a1461063e578063fb9bf8d41461065e578063fc0c546a1461067357600080fd5b8063dd4e2ba51461056a578063deaaa7cc1461059e578063e031535b146105d2578063ea8a1af0146105e757600080fd5b8063bd65e80a116100dc578063bd65e80a146104db578063c19d93fb146104fb578063c7f758a81461051d578063d17ad2d41461054a57600080fd5b8063aec116b614610443578063b323580d14610479578063b4b5ea57146104a6578063b58131b0146104c657600080fd5b8063540a9190116101855780636e4eb810116101545780636e4eb810146103a7578063832009af146103ee5780639c02817614610403578063aa98df391461042357600080fd5b8063540a919014610305578063544ffc9c1461031a57806354fd4d50146103475780635f953a031461037157600080fd5b806306fdde03116101c157806306fdde03146102995780631566f60d146102bb578063262e59e9146102db5780633932abb1146102f057600080fd5b80624114a8146101ff57806301ffc9a71461022757806302a251a31461025757806302d05d3f1461026c57600080fd5b366101fa57005b005b600080fd5b34801561020b57600080fd5b506102146106a7565b6040519081526020015b60405180910390f35b34801561023357600080fd5b50610247610242366004611d1e565b6106b7565b604051901515815260200161021e565b34801561026357600080fd5b506102146106ee565b34801561027857600080fd5b506102816106f9565b6040516001600160a01b03909116815260200161021e565b3480156102a557600080fd5b506102ae61070d565b60405161021e9190612040565b3480156102c757600080fd5b506102146102d6366004611e62565b61079f565b3480156102e757600080fd5b506102146107f3565b3480156102fc57600080fd5b5061021461080f565b34801561031157600080fd5b50600854610214565b34801561032657600080fd5b50610214610335366004611dd3565b6000908152600e602052604090205490565b34801561035357600080fd5b506040805180820190915260018152603160f81b60208201526102ae565b34801561037d57600080fd5b5061021461038c366004611c33565b6001600160a01b031660009081526004602052604090205490565b3480156103b357600080fd5b506102146103c2366004611e03565b6000828152600e602090815260408083206001600160a01b038516845260020190915290205492915050565b3480156103fa57600080fd5b5061021461081a565b34801561040f57600080fd5b5061021461041e366004611e2e565b610825565b34801561042f57600080fd5b5061021461043e366004611d46565b610850565b34801561044f57600080fd5b5061021461045e366004611c33565b6001600160a01b03166000908152600d602052604090205490565b34801561048557600080fd5b50610499610494366004611dd3565b610c91565b60405161021e9190611f93565b3480156104b257600080fd5b506102146104c1366004611c33565b610d03565b3480156104d257600080fd5b50610214610d0e565b3480156104e757600080fd5b506102146104f6366004611d46565b610d19565b34801561050757600080fd5b50610510610d4a565b60405161021e9190612018565b34801561052957600080fd5b5061053d610538366004611dd3565b610d9e565b60405161021e9190612053565b34801561055657600080fd5b50610214610565366004611ef1565b610ea2565b34801561057657600080fd5b5060408051808201909152600b81526a39bab83837b93a1eb337b960a91b60208201526102ae565b3480156105aa57600080fd5b506102147f150214d74d59b7d1e90c73fc22ef3d991dd0a76b046543d4d80ab92d2a50328f81565b3480156105de57600080fd5b50610214610f38565b3480156105f357600080fd5b506101f8610f4a565b34801561060857600080fd5b50610214610617366004611c4d565b611050565b34801561062857600080fd5b50610631611063565b60405161021e9190611fe0565b34801561064a57600080fd5b506101f8610659366004611c76565b6110ba565b34801561066a57600080fd5b506102146111a2565b34801561067f57600080fd5b506102817f000000000000000000000000000000000000000000000000000000000000000081565b60006106b260055490565b905090565b60006001600160e01b0319821663f50162b560e01b14806106e857506301ffc9a760e01b6001600160e01b03198316145b92915050565b60006106b260075490565b60006106b2600c546001600160a01b031690565b60606001805461071c9061215c565b80601f01602080910402602001604051908101604052809291908181526020018280546107489061215c565b80156107955780601f1061076a57610100808354040283529160200191610795565b820191906000526020600020905b81548152906001019060200180831161077857829003601f168201915b5050505050905090565b6000803390506107e88782888888888080601f0160208091040260200160405190810160405280939291908181526020018383808284376000920191909152506111ad92505050565b979650505050505050565b60006107fd6106ee565b610805610f38565b6106b2919061212d565b60006106b260065490565b60006106b2600a5490565b60008033905061084785828686604051806020016040528060008152506111ad565b95945050505050565b6000600261085c610d4a565b600381111561087b57634e487b7160e01b600052602160045260246000fd5b146108f35760405162461bcd60e51b815260206004820152603e60248201527f476f7665726e6f723a20636f6e74657374206d7573742062652071756575656460448201527f20666f722070726f706f73616c7320746f206265207375626d6974746564000060648201526084015b60405180910390fd5b6108fb61081a565b33600090815260046020526040902054106109a45760405162461bcd60e51b815260206004820152605d60248201527f476f7665726e6f723a207468652073616d652063616e6e6f74207375626d697460448201527f206d6f7265207468616e20746865206e756d416c6c6f77656450726f706f736160648201527f6c5375626d697373696f6e7320666f72207468697320636f6e74657374000000608482015260a4016108ea565b6109ac6111a2565b60005410610a225760405162461bcd60e51b815260206004820152603960248201527f476f7665726e6f723a20746865206d6178206e756d626572206f662070726f7060448201527f6f73616c732068617665206265656e207375626d69747465640000000000000060648201526084016108ea565b610a2a610d0e565b610a3333610d03565b1015610ab35760405162461bcd60e51b815260206004820152604360248201527f476f7665726e6f72436f6d7061746962696c697479427261766f3a2070726f7060448201527f6f73657220766f7465732062656c6f772070726f706f73616c207468726573686064820152621bdb1960ea1b608482015260a4016108ea565b8151610b015760405162461bcd60e51b815260206004820152601860248201527f476f7665726e6f723a20656d7074792070726f706f73616c000000000000000060448201526064016108ea565b6000610b0c83610d19565b60008181526003602052604090206002015490915060ff1615610b835760405162461bcd60e51b815260206004820152602960248201527f476f7665726e6f723a206475706c69636174652070726f706f73616c73206e6f6044820152681d08185b1b1bddd95960ba1b60648201526084016108ea565b60008054600180820183557f290decd9548b62a8d60345a988386fc84ba6bc95484008f6362f93160ef3e5639091018390556040805160608101825233815260208082018881528284018590528686526003825292909420815181546001600160a01b0319166001600160a01b039091161781559151805191949293610c0f9390850192910190611b6d565b50604091820151600291909101805460ff19169115159190911790553360009081526004602052908120805460019290610c4a90849061212d565b909155507fc8c078bfee58e5822588f08b4509ed1eb5058e03f666cca84dd2d44bf5c288a89050818433604051610c8393929190612099565b60405180910390a192915050565b6000818152600e60209081526040918290206001810180548451818502810185019095528085526060949293830182828015610cf657602002820191906000526020600020905b81546001600160a01b03168152600190910190602001808311610cd8575b5050505050915050919050565b60006106e8826113bd565b60006106b260095490565b600081604051602001610d2c9190612040565b60408051601f19818403018152919052805160209091012092915050565b60025460009060ff1615610d5e5750600190565b6000610d68610f38565b9050428110610d7957600291505090565b6000610d836107f3565b9050428110610d955760009250505090565b60039250505090565b610dcd604051806060016040528060006001600160a01b03168152602001606081526020016000151581525090565b60008281526003602090815260409182902082516060810190935280546001600160a01b031683526001810180549192840191610e099061215c565b80601f0160208091040260200160405190810160405280929190818152602001828054610e359061215c565b8015610e825780601f10610e5757610100808354040283529160200191610e82565b820191906000526020600020905b815481529060010190602001808311610e6557829003601f168201915b50505091835250506002919091015460ff16151560209091015292915050565b604080517f150214d74d59b7d1e90c73fc22ef3d991dd0a76b046543d4d80ab92d2a50328f602082015290810187905260ff861660608201526000908190610f0e90610f06906080016040516020818303038152906040528051906020012061145b565b8686866114a9565b9050610f2c88828989604051806020016040528060008152506111ad565b98975050505050505050565b6000610f4261080f565b6108056106a7565b610f526106f9565b6001600160a01b0316336001600160a01b031614610f6f57600080fd5b6000610f79610d4a565b90506001816003811115610f9d57634e487b7160e01b600052602160045260246000fd5b14158015610fcb57506003816003811115610fc857634e487b7160e01b600052602160045260246000fd5b14155b6110175760405162461bcd60e51b815260206004820152601c60248201527f476f7665726e6f723a20636f6e74657374206e6f74206163746976650000000060448201526064016108ea565b6002805460ff191660011790556040517f4cd963a081760a54f571abc0f1db4dde31b4a07d8d6da3e844b8c6f47eeaaa4290600090a150565b600061105c83836114d1565b9392505050565b6060600080548060200260200160405190810160405280929190818152602001828054801561079557602002820191906000526020600020905b81548152602001906001019080831161109d575050505050905090565b6110c26106f9565b6001600160a01b0316336001600160a01b0316146110df57600080fd5b60005b8151811015611167576040518060600160405280603d81526020016121df603d91396003600084848151811061112857634e487b7160e01b600052603260045260246000fd5b602002602001015181526020019081526020016000206001019080519060200190611154929190611b6d565b508061115f81612197565b9150506110e2565b507f75a75cf5c561892f4cc5b26c1b8e933849b42238c96dd073d080d1ae96c51416816040516111979190611fe0565b60405180910390a150565b60006106b2600b5490565b6000806111b8610d4a565b60038111156111d757634e487b7160e01b600052602160045260246000fd5b146112305760405162461bcd60e51b815260206004820152602360248201527f476f7665726e6f723a20766f7465206e6f742063757272656e746c792061637460448201526269766560e81b60648201526084016108ea565b600083116112a65760405162461bcd60e51b815260206004820152603760248201527f476f7665726e6f72566f74696e6753696d706c653a2063616e6e6f7420766f7460448201527f6520776974682030206f7220666577657220766f74657300000000000000000060648201526084016108ea565b60006112b58661061760085490565b90506000811161135f5760405162461bcd60e51b815260206004820152606360248201527f476f7665726e6f72566f74696e6753696d706c653a20796f75206d757374206860448201527f6176652067726561746572207468616e20302064656c65676174656420766f7460648201527f65732061742074686520736e617073686f7420696e206f7264657220746f20766084820152626f746560e81b60a482015260c4016108ea565b61136c8787878785611576565b856001600160a01b03167fb8e138887d0aa13bab447e82de9d5c1777041ecd21ca36ba824ff1e6c07ddda4888787876040516113ab94939291906120ca565b60405180910390a29695505050505050565b6040516309ab24eb60e41b81526001600160a01b0382811660048301526000917f000000000000000000000000000000000000000000000000000000000000000090911690639ab24eb09060240160206040518083038186803b15801561142357600080fd5b505afa158015611437573d6000803e3d6000fd5b505050506040513d601f19601f820116820180604052508101906106e89190611deb565b60006106e8611468611755565b8360405161190160f01b6020820152602281018390526042810182905260009060620160405160208183030381529060405280519060200120905092915050565b60008060006114ba8787878761187c565b915091506114c781611969565b5095945050505050565b604051630748d63560e31b81526001600160a01b038381166004830152602482018390526000917f000000000000000000000000000000000000000000000000000000000000000090911690633a46b1a89060440160206040518083038186803b15801561153e57600080fd5b505afa158015611552573d6000803e3d6000fd5b505050506040513d601f19601f8201168201806040525081019061105c9190611deb565b6000858152600e602090815260408083206001600160a01b0388168452600d909252909120546115a69083612145565b8311156116115760405162461bcd60e51b815260206004820152603360248201527f476f7665726e6f72566f74696e6753696d706c653a206e6f7420656e6f756768604482015272081d9bdd195cc81b19599d081d1bc818d85cdd606a1b60648201526084016108ea565b6001600160a01b03851660009081526002820160205260409020541560ff85166116835781548490839060009061164990849061212d565b90915550506001600160a01b03861660009081526002830160205260408120805486929061167890849061212d565b909155506116e99050565b60405162461bcd60e51b815260206004820152603560248201527f476f7665726e6f72566f74696e6753696d706c653a20696e76616c69642076616044820152746c756520666f7220656e756d20566f74655479706560581b60648201526084016108ea565b801561171f576001828101805491820181556000908152602090200180546001600160a01b0319166001600160a01b0388161790555b6001600160a01b0386166000908152600d60205260408120805486929061174790849061212d565b909155505050505050505050565b6000306001600160a01b037f0000000000000000000000000000000000000000000000000000000000000000161480156117ae57507f000000000000000000000000000000000000000000000000000000000000000046145b156117d857507f000000000000000000000000000000000000000000000000000000000000000090565b50604080517f00000000000000000000000000000000000000000000000000000000000000006020808301919091527f0000000000000000000000000000000000000000000000000000000000000000828401527f000000000000000000000000000000000000000000000000000000000000000060608301524660808301523060a0808401919091528351808403909101815260c0909201909252805191012090565b6000807f7fffffffffffffffffffffffffffffff5d576e7357a4501ddfe92f46681b20a08311156118b35750600090506003611960565b8460ff16601b141580156118cb57508460ff16601c14155b156118dc5750600090506004611960565b6040805160008082526020820180845289905260ff881692820192909252606081018690526080810185905260019060a0016020604051602081039080840390855afa158015611930573d6000803e3d6000fd5b5050604051601f1901519150506001600160a01b03811661195957600060019250925050611960565b9150600090505b94509492505050565b600081600481111561198b57634e487b7160e01b600052602160045260246000fd5b14156119945750565b60018160048111156119b657634e487b7160e01b600052602160045260246000fd5b1415611a045760405162461bcd60e51b815260206004820152601860248201527f45434453413a20696e76616c6964207369676e6174757265000000000000000060448201526064016108ea565b6002816004811115611a2657634e487b7160e01b600052602160045260246000fd5b1415611a745760405162461bcd60e51b815260206004820152601f60248201527f45434453413a20696e76616c6964207369676e6174757265206c656e6774680060448201526064016108ea565b6003816004811115611a9657634e487b7160e01b600052602160045260246000fd5b1415611aef5760405162461bcd60e51b815260206004820152602260248201527f45434453413a20696e76616c6964207369676e6174757265202773272076616c604482015261756560f01b60648201526084016108ea565b6004816004811115611b1157634e487b7160e01b600052602160045260246000fd5b1415611b6a5760405162461bcd60e51b815260206004820152602260248201527f45434453413a20696e76616c6964207369676e6174757265202776272076616c604482015261756560f01b60648201526084016108ea565b50565b828054611b799061215c565b90600052602060002090601f016020900481019282611b9b5760008555611be1565b82601f10611bb457805160ff1916838001178555611be1565b82800160010185558215611be1579182015b82811115611be1578251825591602001919060010190611bc6565b50611bed929150611bf1565b5090565b5b80821115611bed5760008155600101611bf2565b80356001600160a01b0381168114611c1d57600080fd5b919050565b803560ff81168114611c1d57600080fd5b600060208284031215611c44578081fd5b61105c82611c06565b60008060408385031215611c5f578081fd5b611c6883611c06565b946020939093013593505050565b60006020808385031215611c88578182fd5b823567ffffffffffffffff80821115611c9f578384fd5b818501915085601f830112611cb2578384fd5b813581811115611cc457611cc46121c8565b8060051b9150611cd58483016120fc565b8181528481019084860184860187018a1015611cef578788fd5b8795505b83861015611d11578035835260019590950194918601918601611cf3565b5098975050505050505050565b600060208284031215611d2f578081fd5b81356001600160e01b03198116811461105c578182fd5b60006020808385031215611d58578182fd5b823567ffffffffffffffff80821115611d6f578384fd5b818501915085601f830112611d82578384fd5b813581811115611d9457611d946121c8565b611da6601f8201601f191685016120fc565b91508082528684828501011115611dbb578485fd5b80848401858401378101909201929092529392505050565b600060208284031215611de4578081fd5b5035919050565b600060208284031215611dfc578081fd5b5051919050565b60008060408385031215611e15578182fd5b82359150611e2560208401611c06565b90509250929050565b600080600060608486031215611e42578081fd5b83359250611e5260208501611c22565b9150604084013590509250925092565b600080600080600060808688031215611e79578081fd5b85359450611e8960208701611c22565b935060408601359250606086013567ffffffffffffffff80821115611eac578283fd5b818801915088601f830112611ebf578283fd5b813581811115611ecd578384fd5b896020828501011115611ede578384fd5b9699959850939650602001949392505050565b60008060008060008060c08789031215611f09578081fd5b86359550611f1960208801611c22565b945060408701359350611f2e60608801611c22565b92506080870135915060a087013590509295509295509295565b60008151808452815b81811015611f6d57602081850181015186830182015201611f51565b81811115611f7e5782602083870101525b50601f01601f19169290920160200192915050565b6020808252825182820181905260009190848201906040850190845b81811015611fd45783516001600160a01b031683529284019291840191600101611faf565b50909695505050505050565b6020808252825182820181905260009190848201906040850190845b81811015611fd457835183529284019291840191600101611ffc565b602081016004831061203a57634e487b7160e01b600052602160045260246000fd5b91905290565b60208152600061105c6020830184611f48565b602080825282516001600160a01b031682820152820151606060408301526000906120816080840182611f48565b90506040840151151560608401528091505092915050565b8381526060602082015260006120b26060830185611f48565b905060018060a01b0383166040830152949350505050565b84815260ff841660208201528260408201526080606082015260006120f26080830184611f48565b9695505050505050565b604051601f8201601f1916810167ffffffffffffffff81118282101715612125576121256121c8565b604052919050565b60008219821115612140576121406121b2565b500190565b600082821015612157576121576121b2565b500390565b600181811c9082168061217057607f821691505b6020821081141561219157634e487b7160e01b600052602260045260246000fd5b50919050565b60006000198214156121ab576121ab6121b2565b5060010190565b634e487b7160e01b600052601160045260246000fd5b634e487b7160e01b600052604160045260246000fdfe546869732070726f706f73616c20686173206265656e2064656c65746564206279207468652063726561746f72206f662074686520636f6e746573742ea2646970667358221220d5de7a70c18270f745d4051e50b44d6e75c4f6c38ec7cbd40fa2e42dbaa8f50264736f6c63430008040033",
  "linkReferences": {},
  "deployedLinkReferences": {}
}