{
  "_format": "hh-sol-artifact-1",
  "contractName": "Contest",
  "sourceName": "contracts/Contest.sol",
  "abi": [
    {
      "inputs": [
        {
          "internalType": "string",
          "name": "_name",
          "type": "string"
        },
        {
          "internalType": "contract IVotesTimestamp",
          "name": "_token",
          "type": "address"
        },
        {
          "internalType": "uint64",
          "name": "_initialContestStart",
          "type": "uint64"
        },
        {
          "internalType": "uint256",
          "name": "_initialVotingDelay",
          "type": "uint256"
        },
        {
          "internalType": "uint256",
          "name": "_initialVotingPeriod",
          "type": "uint256"
        },
        {
          "internalType": "uint256",
          "name": "_initialContestSnapshot",
          "type": "uint256"
        },
        {
          "internalType": "uint256",
          "name": "_initialProposalThreshold",
          "type": "uint256"
        },
        {
          "internalType": "uint256",
          "name": "_initialMaxProposalCount",
          "type": "uint256"
        }
      ],
      "stateMutability": "nonpayable",
      "type": "constructor"
    },
    {
      "anonymous": false,
      "inputs": [],
      "name": "ContestCanceled",
      "type": "event"
    },
    {
      "anonymous": false,
      "inputs": [
        {
          "indexed": false,
          "internalType": "uint256",
          "name": "oldContestSnapshot",
          "type": "uint256"
        },
        {
          "indexed": false,
          "internalType": "uint256",
          "name": "newContestSnapshot",
          "type": "uint256"
        }
      ],
      "name": "ContestSnapshotSet",
      "type": "event"
    },
    {
      "anonymous": false,
      "inputs": [
        {
          "indexed": false,
          "internalType": "uint256",
          "name": "oldContestStart",
          "type": "uint256"
        },
        {
          "indexed": false,
          "internalType": "uint256",
          "name": "newContestStart",
          "type": "uint256"
        }
      ],
      "name": "ContestStartSet",
      "type": "event"
    },
    {
      "anonymous": false,
      "inputs": [
        {
          "indexed": false,
          "internalType": "address",
          "name": "oldCreator",
          "type": "address"
        },
        {
          "indexed": false,
          "internalType": "address",
          "name": "newCreator",
          "type": "address"
        }
      ],
      "name": "CreatorSet",
      "type": "event"
    },
    {
      "anonymous": false,
      "inputs": [
        {
          "indexed": false,
          "internalType": "uint256",
          "name": "oldMaxProposalCount",
          "type": "uint256"
        },
        {
          "indexed": false,
          "internalType": "uint256",
          "name": "newMaxProposalCount",
          "type": "uint256"
        }
      ],
      "name": "MaxProposalCountSet",
      "type": "event"
    },
    {
      "anonymous": false,
      "inputs": [
        {
          "indexed": false,
          "internalType": "uint256",
          "name": "proposalId",
          "type": "uint256"
        },
        {
          "indexed": false,
          "internalType": "string",
          "name": "description",
          "type": "string"
        },
        {
          "indexed": false,
          "internalType": "address",
          "name": "proposer",
          "type": "address"
        }
      ],
      "name": "ProposalCreated",
      "type": "event"
    },
    {
      "anonymous": false,
      "inputs": [
        {
          "indexed": false,
          "internalType": "uint256",
          "name": "oldProposalThreshold",
          "type": "uint256"
        },
        {
          "indexed": false,
          "internalType": "uint256",
          "name": "newProposalThreshold",
          "type": "uint256"
        }
      ],
      "name": "ProposalThresholdSet",
      "type": "event"
    },
    {
      "anonymous": false,
      "inputs": [
        {
          "indexed": false,
          "internalType": "uint256[]",
          "name": "proposalIds",
          "type": "uint256[]"
        }
      ],
      "name": "ProposalsDeleted",
      "type": "event"
    },
    {
      "anonymous": false,
      "inputs": [
        {
          "indexed": true,
          "internalType": "address",
          "name": "voter",
          "type": "address"
        },
        {
          "indexed": false,
          "internalType": "uint256",
          "name": "proposalId",
          "type": "uint256"
        },
        {
          "indexed": false,
          "internalType": "uint8",
          "name": "support",
          "type": "uint8"
        },
        {
          "indexed": false,
          "internalType": "uint256",
          "name": "numVotes",
          "type": "uint256"
        },
        {
          "indexed": false,
          "internalType": "string",
          "name": "reason",
          "type": "string"
        }
      ],
      "name": "VoteCast",
      "type": "event"
    },
    {
      "anonymous": false,
      "inputs": [
        {
          "indexed": false,
          "internalType": "uint256",
          "name": "oldVotingDelay",
          "type": "uint256"
        },
        {
          "indexed": false,
          "internalType": "uint256",
          "name": "newVotingDelay",
          "type": "uint256"
        }
      ],
      "name": "VotingDelaySet",
      "type": "event"
    },
    {
      "anonymous": false,
      "inputs": [
        {
          "indexed": false,
          "internalType": "uint256",
          "name": "oldVotingPeriod",
          "type": "uint256"
        },
        {
          "indexed": false,
          "internalType": "uint256",
          "name": "newVotingPeriod",
          "type": "uint256"
        }
      ],
      "name": "VotingPeriodSet",
      "type": "event"
    },
    {
      "inputs": [],
      "name": "BALLOT_TYPEHASH",
      "outputs": [
        {
          "internalType": "bytes32",
          "name": "",
          "type": "bytes32"
        }
      ],
      "stateMutability": "view",
      "type": "function"
    },
    {
      "inputs": [],
      "name": "COUNTING_MODE",
      "outputs": [
        {
          "internalType": "string",
          "name": "",
          "type": "string"
        }
      ],
      "stateMutability": "pure",
      "type": "function"
    },
    {
      "inputs": [],
      "name": "cancel",
      "outputs": [],
      "stateMutability": "nonpayable",
      "type": "function"
    },
    {
      "inputs": [
        {
          "internalType": "uint256",
          "name": "proposalId",
          "type": "uint256"
        },
        {
          "internalType": "uint8",
          "name": "support",
          "type": "uint8"
        },
        {
          "internalType": "uint256",
          "name": "numVotes",
          "type": "uint256"
        }
      ],
      "name": "castVote",
      "outputs": [
        {
          "internalType": "uint256",
          "name": "",
          "type": "uint256"
        }
      ],
      "stateMutability": "nonpayable",
      "type": "function"
    },
    {
      "inputs": [
        {
          "internalType": "uint256",
          "name": "proposalId",
          "type": "uint256"
        },
        {
          "internalType": "uint8",
          "name": "support",
          "type": "uint8"
        },
        {
          "internalType": "uint256",
          "name": "numVotes",
          "type": "uint256"
        },
        {
          "internalType": "uint8",
          "name": "v",
          "type": "uint8"
        },
        {
          "internalType": "bytes32",
          "name": "r",
          "type": "bytes32"
        },
        {
          "internalType": "bytes32",
          "name": "s",
          "type": "bytes32"
        }
      ],
      "name": "castVoteBySig",
      "outputs": [
        {
          "internalType": "uint256",
          "name": "",
          "type": "uint256"
        }
      ],
      "stateMutability": "nonpayable",
      "type": "function"
    },
    {
      "inputs": [
        {
          "internalType": "uint256",
          "name": "proposalId",
          "type": "uint256"
        },
        {
          "internalType": "uint8",
          "name": "support",
          "type": "uint8"
        },
        {
          "internalType": "uint256",
          "name": "numVotes",
          "type": "uint256"
        },
        {
          "internalType": "string",
          "name": "reason",
          "type": "string"
        }
      ],
      "name": "castVoteWithReason",
      "outputs": [
        {
          "internalType": "uint256",
          "name": "",
          "type": "uint256"
        }
      ],
      "stateMutability": "nonpayable",
      "type": "function"
    },
    {
      "inputs": [
        {
          "internalType": "address",
          "name": "userAddress",
          "type": "address"
        }
      ],
      "name": "contestAddressTotalVotesCast",
      "outputs": [
        {
          "internalType": "uint256",
          "name": "totalVotesCast",
          "type": "uint256"
        }
      ],
      "stateMutability": "view",
      "type": "function"
    },
    {
      "inputs": [],
      "name": "contestDeadline",
      "outputs": [
        {
          "internalType": "uint256",
          "name": "",
          "type": "uint256"
        }
      ],
      "stateMutability": "view",
      "type": "function"
    },
    {
      "inputs": [],
      "name": "contestSnapshot",
      "outputs": [
        {
          "internalType": "uint256",
          "name": "",
          "type": "uint256"
        }
      ],
      "stateMutability": "view",
      "type": "function"
    },
    {
      "inputs": [],
      "name": "contestStart",
      "outputs": [
        {
          "internalType": "uint256",
          "name": "",
          "type": "uint256"
        }
      ],
      "stateMutability": "view",
      "type": "function"
    },
    {
      "inputs": [],
      "name": "creator",
      "outputs": [
        {
          "internalType": "address",
          "name": "",
          "type": "address"
        }
      ],
      "stateMutability": "view",
      "type": "function"
    },
    {
      "inputs": [
        {
          "internalType": "uint256[]",
          "name": "proposalIds",
          "type": "uint256[]"
        }
      ],
      "name": "deleteProposals",
      "outputs": [],
      "stateMutability": "nonpayable",
      "type": "function"
    },
    {
      "inputs": [],
      "name": "getAllProposalIds",
      "outputs": [
        {
          "internalType": "uint256[]",
          "name": "",
          "type": "uint256[]"
        }
      ],
      "stateMutability": "view",
      "type": "function"
    },
    {
      "inputs": [
        {
          "internalType": "address",
          "name": "account",
          "type": "address"
        }
      ],
      "name": "getCurrentVotes",
      "outputs": [
        {
          "internalType": "uint256",
          "name": "",
          "type": "uint256"
        }
      ],
      "stateMutability": "view",
      "type": "function"
    },
    {
      "inputs": [
        {
          "internalType": "uint256",
          "name": "proposalId",
          "type": "uint256"
        }
      ],
      "name": "getProposal",
      "outputs": [
        {
          "components": [
            {
              "internalType": "address",
              "name": "author",
              "type": "address"
            },
            {
              "internalType": "string",
              "name": "description",
              "type": "string"
            },
            {
              "internalType": "bool",
              "name": "exists",
              "type": "bool"
            }
          ],
          "internalType": "struct Governor.ProposalCore",
          "name": "",
          "type": "tuple"
        }
      ],
      "stateMutability": "view",
      "type": "function"
    },
    {
      "inputs": [
        {
          "internalType": "address",
          "name": "account",
          "type": "address"
        },
        {
          "internalType": "uint256",
          "name": "blockNumber",
          "type": "uint256"
        }
      ],
      "name": "getVotes",
      "outputs": [
        {
          "internalType": "uint256",
          "name": "",
          "type": "uint256"
        }
      ],
      "stateMutability": "view",
      "type": "function"
    },
    {
      "inputs": [
        {
          "internalType": "string",
          "name": "proposalDescription",
          "type": "string"
        }
      ],
      "name": "hashProposal",
      "outputs": [
        {
          "internalType": "uint256",
          "name": "",
          "type": "uint256"
        }
      ],
      "stateMutability": "pure",
      "type": "function"
    },
    {
      "inputs": [],
      "name": "maxProposalCount",
      "outputs": [
        {
          "internalType": "uint256",
          "name": "",
          "type": "uint256"
        }
      ],
      "stateMutability": "view",
      "type": "function"
    },
    {
      "inputs": [],
      "name": "name",
      "outputs": [
        {
          "internalType": "string",
          "name": "",
          "type": "string"
        }
      ],
      "stateMutability": "view",
      "type": "function"
    },
    {
      "inputs": [
        {
          "internalType": "uint256",
          "name": "proposalId",
          "type": "uint256"
        },
        {
          "internalType": "address",
          "name": "userAddress",
          "type": "address"
        }
      ],
      "name": "proposalAddressVotes",
      "outputs": [
        {
          "internalType": "uint256",
          "name": "forVotes",
          "type": "uint256"
        }
      ],
      "stateMutability": "view",
      "type": "function"
    },
    {
      "inputs": [
        {
          "internalType": "uint256",
          "name": "proposalId",
          "type": "uint256"
        }
      ],
      "name": "proposalAddressesHaveVoted",
      "outputs": [
        {
          "internalType": "address[]",
          "name": "",
          "type": "address[]"
        }
      ],
      "stateMutability": "view",
      "type": "function"
    },
    {
      "inputs": [],
      "name": "proposalThreshold",
      "outputs": [
        {
          "internalType": "uint256",
          "name": "",
          "type": "uint256"
        }
      ],
      "stateMutability": "view",
      "type": "function"
    },
    {
      "inputs": [
        {
          "internalType": "uint256",
          "name": "proposalId",
          "type": "uint256"
        }
      ],
      "name": "proposalVotes",
      "outputs": [
        {
          "internalType": "uint256",
          "name": "forVotes",
          "type": "uint256"
        }
      ],
      "stateMutability": "view",
      "type": "function"
    },
    {
      "inputs": [
        {
          "internalType": "string",
          "name": "proposalDescription",
          "type": "string"
        }
      ],
      "name": "propose",
      "outputs": [
        {
          "internalType": "uint256",
          "name": "",
          "type": "uint256"
        }
      ],
      "stateMutability": "nonpayable",
      "type": "function"
    },
    {
      "inputs": [],
      "name": "state",
      "outputs": [
        {
          "internalType": "enum IGovernor.ContestState",
          "name": "",
          "type": "uint8"
        }
      ],
      "stateMutability": "view",
      "type": "function"
    },
    {
      "inputs": [
        {
          "internalType": "bytes4",
          "name": "interfaceId",
          "type": "bytes4"
        }
      ],
      "name": "supportsInterface",
      "outputs": [
        {
          "internalType": "bool",
          "name": "",
          "type": "bool"
        }
      ],
      "stateMutability": "view",
      "type": "function"
    },
    {
      "inputs": [],
      "name": "token",
      "outputs": [
        {
          "internalType": "contract IVotesTimestamp",
          "name": "",
          "type": "address"
        }
      ],
      "stateMutability": "view",
      "type": "function"
    },
    {
      "inputs": [],
      "name": "version",
      "outputs": [
        {
          "internalType": "string",
          "name": "",
          "type": "string"
        }
      ],
      "stateMutability": "view",
      "type": "function"
    },
    {
      "inputs": [],
      "name": "voteStart",
      "outputs": [
        {
          "internalType": "uint256",
          "name": "",
          "type": "uint256"
        }
      ],
      "stateMutability": "view",
      "type": "function"
    },
    {
      "inputs": [],
      "name": "votingDelay",
      "outputs": [
        {
          "internalType": "uint256",
          "name": "",
          "type": "uint256"
        }
      ],
      "stateMutability": "view",
      "type": "function"
    },
    {
      "inputs": [],
      "name": "votingPeriod",
      "outputs": [
        {
          "internalType": "uint256",
          "name": "",
          "type": "uint256"
        }
      ],
      "stateMutability": "view",
      "type": "function"
    },
    {
      "stateMutability": "payable",
      "type": "receive"
    }
  ],
  "bytecode": "0x6101606040523480156200001257600080fd5b506040516200285e3803806200285e8339810160408190526200003591620004b7565b866001600160401b03871686868686868e80620000666040805180820190915260018152603160f81b602082015290565b815160208084019190912082518383012060e08290526101008190524660a0818152604080517f8b73c3c69bb8fe3d512ecc4cf759cc79239f7b179b0ffacaa9a75d522b39400f81880181905281830187905260608201869052608082019490945230818401528151808203909301835260c00190528051940193909320919290916080523060601b60c05261012052505082516200010f9250600191506020840190620003dc565b506200011d90508662000188565b6200012885620001c9565b62000133846200020a565b6200013e83620002b0565b6200014982620002f1565b620001548162000332565b6200015f3362000373565b505050505060609190911b6001600160601b031916610140525062000638975050505050505050565b60055460408051918252602082018390527fd299feb1d7d9345a48559601c471c3be7eea9a11f21d5e86809198f40a974db4910160405180910390a1600555565b60065460408051918252602082018390527fc565b045403dc03c2eea82b81a0465edad9e2e7fc4d97e11421c209da93d7a93910160405180910390a1600655565b600081116200026f5760405162461bcd60e51b815260206004820152602760248201527f476f7665726e6f7253657474696e67733a20766f74696e6720706572696f6420604482015266746f6f206c6f7760c81b606482015260840160405180910390fd5b60075460408051918252602082018390527f7e3f7f0708a84de9203036abaa450dccc85ad5ff52f78c170f3edb55cf5e8828910160405180910390a1600755565b60085460408051918252602082018390527f70d92b9b65fcaa7708049081fd0ad601c9af76bd86d38df0337dfce3d025ec83910160405180910390a1600855565b60095460408051918252602082018390527fccb45da8d5717e6c4544694297c4ba5cf151d455c9bb0ed4fc7a38411bc05461910160405180910390a1600955565b600a5460408051918252602082018390527f4984ec996723330ee95979ed65a2a4b41edd914e68a187efe92596474643bdff910160405180910390a1600a55565b600b54604080516001600160a01b03928316815291831660208301527fc30034fc2e9697980e08935bbc287db3eaa44a4aa113ef4c108b356adbf911ce910160405180910390a1600b80546001600160a01b0319166001600160a01b0392909216919091179055565b828054620003ea90620005e5565b90600052602060002090601f0160209004810192826200040e576000855562000459565b82601f106200042957805160ff191683800117855562000459565b8280016001018555821562000459579182015b82811115620004595782518255916020019190600101906200043c565b50620004679291506200046b565b5090565b5b808211156200046757600081556001016200046c565b80516001600160a01b03811681146200049a57600080fd5b919050565b80516001600160401b03811681146200049a57600080fd5b600080600080600080600080610100898b031215620004d4578384fd5b88516001600160401b0380821115620004eb578586fd5b818b0191508b601f830112620004ff578586fd5b81518181111562000514576200051462000622565b604051601f8201601f19908116603f011681019083821181831017156200053f576200053f62000622565b81604052828152602093508e848487010111156200055b578889fd5b8891505b828210156200057e57848201840151818301850152908301906200055f565b828211156200058f57888484830101525b9b50620005a19150508b820162000482565b98505050620005b360408a016200049f565b9550606089015194506080890151935060a0890151925060c0890151915060e089015190509295985092959890939650565b600181811c90821680620005fa57607f821691505b602082108114156200061c57634e487b7160e01b600052602260045260246000fd5b50919050565b634e487b7160e01b600052604160045260246000fd5b60805160a05160c05160601c60e05161010051610120516101405160601c6121b7620006a76000396000818161062401528181611345015261146001526000611745015260006117940152600061176f015260006116c8015260006116f20152600061171c01526121b76000f3fe6080604052600436106101db5760003560e01c8063b323580d11610102578063deaaa7cc11610095578063efa90d3611610064578063efa90d36146105bb578063f0a7db0a146105dd578063fb9bf8d4146105fd578063fc0c546a1461061257600080fd5b8063deaaa7cc1461053d578063e031535b14610571578063ea8a1af014610586578063eb9019d41461059b57600080fd5b8063c19d93fb116100d1578063c19d93fb1461049a578063c7f758a8146104bc578063d17ad2d4146104e9578063dd4e2ba51461050957600080fd5b8063b323580d14610418578063b4b5ea5714610445578063b58131b014610465578063bd65e80a1461047a57600080fd5b80633932abb11161017a5780636e4eb810116101495780636e4eb8101461035b5780639c028176146103a2578063aa98df39146103c2578063aec116b6146103e257600080fd5b80633932abb1146102da578063540a9190146102ef578063544ffc9c1461030457806354fd4d501461033157600080fd5b806302d05d3f116101b657806302d05d3f1461025657806306fdde03146102835780631566f60d146102a5578063262e59e9146102c557600080fd5b80624114a8146101e957806301ffc9a71461021157806302a251a31461024157600080fd5b366101e457005b005b600080fd5b3480156101f557600080fd5b506101fe610646565b6040519081526020015b60405180910390f35b34801561021d57600080fd5b5061023161022c366004611c84565b610656565b6040519015158152602001610208565b34801561024d57600080fd5b506101fe61068d565b34801561026257600080fd5b5061026b610698565b6040516001600160a01b039091168152602001610208565b34801561028f57600080fd5b506102986106ac565b6040516102089190611fa6565b3480156102b157600080fd5b506101fe6102c0366004611dc8565b61073e565b3480156102d157600080fd5b506101fe610792565b3480156102e657600080fd5b506101fe6107ae565b3480156102fb57600080fd5b506008546101fe565b34801561031057600080fd5b506101fe61031f366004611d39565b6000908152600d602052604090205490565b34801561033d57600080fd5b506040805180820190915260018152603160f81b6020820152610298565b34801561036757600080fd5b506101fe610376366004611d69565b6000828152600d602090815260408083206001600160a01b038516845260020190915290205492915050565b3480156103ae57600080fd5b506101fe6103bd366004611d94565b6107b9565b3480156103ce57600080fd5b506101fe6103dd366004611cac565b6107e4565b3480156103ee57600080fd5b506101fe6103fd366004611b99565b6001600160a01b03166000908152600c602052604090205490565b34801561042457600080fd5b50610438610433366004611d39565b610bf7565b6040516102089190611ef9565b34801561045157600080fd5b506101fe610460366004611b99565b610c69565b34801561047157600080fd5b506101fe610c74565b34801561048657600080fd5b506101fe610495366004611cac565b610c7f565b3480156104a657600080fd5b506104af610cb0565b6040516102089190611f7e565b3480156104c857600080fd5b506104dc6104d7366004611d39565b610d04565b6040516102089190611fb9565b3480156104f557600080fd5b506101fe610504366004611e57565b610e08565b34801561051557600080fd5b5060408051808201909152600b81526a39bab83837b93a1eb337b960a91b6020820152610298565b34801561054957600080fd5b506101fe7f150214d74d59b7d1e90c73fc22ef3d991dd0a76b046543d4d80ab92d2a50328f81565b34801561057d57600080fd5b506101fe610e9e565b34801561059257600080fd5b506101e2610eb0565b3480156105a757600080fd5b506101fe6105b6366004611bb3565b610fb6565b3480156105c757600080fd5b506105d0610fc9565b6040516102089190611f46565b3480156105e957600080fd5b506101e26105f8366004611bdc565b611020565b34801561060957600080fd5b506101fe611108565b34801561061e57600080fd5b5061026b7f000000000000000000000000000000000000000000000000000000000000000081565b600061065160055490565b905090565b60006001600160e01b0319821663f50162b560e01b148061068757506301ffc9a760e01b6001600160e01b03198316145b92915050565b600061065160075490565b6000610651600b546001600160a01b031690565b6060600180546106bb906120c2565b80601f01602080910402602001604051908101604052809291908181526020018280546106e7906120c2565b80156107345780601f1061070957610100808354040283529160200191610734565b820191906000526020600020905b81548152906001019060200180831161071757829003601f168201915b5050505050905090565b6000803390506107878782888888888080601f01602080910402602001604051908101604052809392919081815260200183838082843760009201919091525061111392505050565b979650505050505050565b600061079c61068d565b6107a4610e9e565b6106519190612093565b600061065160065490565b6000803390506107db8582868660405180602001604052806000815250611113565b95945050505050565b600060026107f0610cb0565b600381111561080f57634e487b7160e01b600052602160045260246000fd5b146108875760405162461bcd60e51b815260206004820152603e60248201527f476f7665726e6f723a20636f6e74657374206d7573742062652071756575656460448201527f20666f722070726f706f73616c7320746f206265207375626d6974746564000060648201526084015b60405180910390fd5b3360009081526004602052604090205460ff161515600114156109125760405162461bcd60e51b815260206004820152603f60248201527f476f7665726e6f723a207468652073616d6520616464726573732063616e6e6f60448201527f74207375626d6974206d6f7265207468616e206f6e652070726f706f73616c00606482015260840161087e565b61091a611108565b600054106109905760405162461bcd60e51b815260206004820152603960248201527f476f7665726e6f723a20746865206d6178206e756d626572206f662070726f7060448201527f6f73616c732068617665206265656e207375626d697474656400000000000000606482015260840161087e565b610998610c74565b6109a133610c69565b1015610a215760405162461bcd60e51b815260206004820152604360248201527f476f7665726e6f72436f6d7061746962696c697479427261766f3a2070726f7060448201527f6f73657220766f7465732062656c6f772070726f706f73616c207468726573686064820152621bdb1960ea1b608482015260a40161087e565b8151610a6f5760405162461bcd60e51b815260206004820152601860248201527f476f7665726e6f723a20656d7074792070726f706f73616c0000000000000000604482015260640161087e565b6000610a7a83610c7f565b60008181526003602052604090206002015490915060ff1615610af15760405162461bcd60e51b815260206004820152602960248201527f476f7665726e6f723a206475706c69636174652070726f706f73616c73206e6f6044820152681d08185b1b1bddd95960ba1b606482015260840161087e565b60008054600180820183557f290decd9548b62a8d60345a988386fc84ba6bc95484008f6362f93160ef3e5639091018390556040805160608101825233815260208082018881528284018590528686526003825292909420815181546001600160a01b0319166001600160a01b039091161781559151805191949293610b7d9390850192910190611ad3565b506040918201516002909101805491151560ff19928316179055336000908152600460205291909120805490911660011790557fc8c078bfee58e5822588f08b4509ed1eb5058e03f666cca84dd2d44bf5c288a88184610bda3390565b604051610be993929190611fff565b60405180910390a192915050565b6000818152600d60209081526040918290206001810180548451818502810185019095528085526060949293830182828015610c5c57602002820191906000526020600020905b81546001600160a01b03168152600190910190602001808311610c3e575b5050505050915050919050565b600061068782611323565b600061065160095490565b600081604051602001610c929190611fa6565b60408051601f19818403018152919052805160209091012092915050565b60025460009060ff1615610cc45750600190565b6000610cce610e9e565b9050428110610cdf57600291505090565b6000610ce9610792565b9050428110610cfb5760009250505090565b60039250505090565b610d33604051806060016040528060006001600160a01b03168152602001606081526020016000151581525090565b60008281526003602090815260409182902082516060810190935280546001600160a01b031683526001810180549192840191610d6f906120c2565b80601f0160208091040260200160405190810160405280929190818152602001828054610d9b906120c2565b8015610de85780601f10610dbd57610100808354040283529160200191610de8565b820191906000526020600020905b815481529060010190602001808311610dcb57829003601f168201915b50505091835250506002919091015460ff16151560209091015292915050565b604080517f150214d74d59b7d1e90c73fc22ef3d991dd0a76b046543d4d80ab92d2a50328f602082015290810187905260ff861660608201526000908190610e7490610e6c90608001604051602081830303815290604052805190602001206113c1565b86868661140f565b9050610e928882898960405180602001604052806000815250611113565b98975050505050505050565b6000610ea86107ae565b6107a4610646565b610eb8610698565b6001600160a01b0316336001600160a01b031614610ed557600080fd5b6000610edf610cb0565b90506001816003811115610f0357634e487b7160e01b600052602160045260246000fd5b14158015610f3157506003816003811115610f2e57634e487b7160e01b600052602160045260246000fd5b14155b610f7d5760405162461bcd60e51b815260206004820152601c60248201527f476f7665726e6f723a20636f6e74657374206e6f742061637469766500000000604482015260640161087e565b6002805460ff191660011790556040517f4cd963a081760a54f571abc0f1db4dde31b4a07d8d6da3e844b8c6f47eeaaa4290600090a150565b6000610fc28383611437565b9392505050565b6060600080548060200260200160405190810160405280929190818152602001828054801561073457602002820191906000526020600020905b815481526020019060010190808311611003575050505050905090565b611028610698565b6001600160a01b0316336001600160a01b03161461104557600080fd5b60005b81518110156110cd576040518060600160405280603d8152602001612145603d91396003600084848151811061108e57634e487b7160e01b600052603260045260246000fd5b6020026020010151815260200190815260200160002060010190805190602001906110ba929190611ad3565b50806110c5816120fd565b915050611048565b507f75a75cf5c561892f4cc5b26c1b8e933849b42238c96dd073d080d1ae96c51416816040516110fd9190611f46565b60405180910390a150565b6000610651600a5490565b60008061111e610cb0565b600381111561113d57634e487b7160e01b600052602160045260246000fd5b146111965760405162461bcd60e51b815260206004820152602360248201527f476f7665726e6f723a20766f7465206e6f742063757272656e746c792061637460448201526269766560e81b606482015260840161087e565b6000831161120c5760405162461bcd60e51b815260206004820152603760248201527f476f7665726e6f72566f74696e6753696d706c653a2063616e6e6f7420766f7460448201527f6520776974682030206f7220666577657220766f746573000000000000000000606482015260840161087e565b600061121b866105b660085490565b9050600081116112c55760405162461bcd60e51b815260206004820152606360248201527f476f7665726e6f72566f74696e6753696d706c653a20796f75206d757374206860448201527f6176652067726561746572207468616e20302064656c65676174656420766f7460648201527f65732061742074686520736e617073686f7420696e206f7264657220746f20766084820152626f746560e81b60a482015260c40161087e565b6112d287878787856114dc565b856001600160a01b03167fb8e138887d0aa13bab447e82de9d5c1777041ecd21ca36ba824ff1e6c07ddda4888787876040516113119493929190612030565b60405180910390a29695505050505050565b6040516309ab24eb60e41b81526001600160a01b0382811660048301526000917f000000000000000000000000000000000000000000000000000000000000000090911690639ab24eb09060240160206040518083038186803b15801561138957600080fd5b505afa15801561139d573d6000803e3d6000fd5b505050506040513d601f19601f820116820180604052508101906106879190611d51565b60006106876113ce6116bb565b8360405161190160f01b6020820152602281018390526042810182905260009060620160405160208183030381529060405280519060200120905092915050565b6000806000611420878787876117e2565b9150915061142d816118cf565b5095945050505050565b604051630748d63560e31b81526001600160a01b038381166004830152602482018390526000917f000000000000000000000000000000000000000000000000000000000000000090911690633a46b1a89060440160206040518083038186803b1580156114a457600080fd5b505afa1580156114b8573d6000803e3d6000fd5b505050506040513d601f19601f82011682018060405250810190610fc29190611d51565b6000858152600d602090815260408083206001600160a01b0388168452600c9092529091205461150c90836120ab565b8311156115775760405162461bcd60e51b815260206004820152603360248201527f476f7665726e6f72566f74696e6753696d706c653a206e6f7420656e6f756768604482015272081d9bdd195cc81b19599d081d1bc818d85cdd606a1b606482015260840161087e565b6001600160a01b03851660009081526002820160205260409020541560ff85166115e9578154849083906000906115af908490612093565b90915550506001600160a01b0386166000908152600283016020526040812080548692906115de908490612093565b9091555061164f9050565b60405162461bcd60e51b815260206004820152603560248201527f476f7665726e6f72566f74696e6753696d706c653a20696e76616c69642076616044820152746c756520666f7220656e756d20566f74655479706560581b606482015260840161087e565b8015611685576001828101805491820181556000908152602090200180546001600160a01b0319166001600160a01b0388161790555b6001600160a01b0386166000908152600c6020526040812080548692906116ad908490612093565b909155505050505050505050565b6000306001600160a01b037f00000000000000000000000000000000000000000000000000000000000000001614801561171457507f000000000000000000000000000000000000000000000000000000000000000046145b1561173e57507f000000000000000000000000000000000000000000000000000000000000000090565b50604080517f00000000000000000000000000000000000000000000000000000000000000006020808301919091527f0000000000000000000000000000000000000000000000000000000000000000828401527f000000000000000000000000000000000000000000000000000000000000000060608301524660808301523060a0808401919091528351808403909101815260c0909201909252805191012090565b6000807f7fffffffffffffffffffffffffffffff5d576e7357a4501ddfe92f46681b20a083111561181957506000905060036118c6565b8460ff16601b1415801561183157508460ff16601c14155b1561184257506000905060046118c6565b6040805160008082526020820180845289905260ff881692820192909252606081018690526080810185905260019060a0016020604051602081039080840390855afa158015611896573d6000803e3d6000fd5b5050604051601f1901519150506001600160a01b0381166118bf576000600192509250506118c6565b9150600090505b94509492505050565b60008160048111156118f157634e487b7160e01b600052602160045260246000fd5b14156118fa5750565b600181600481111561191c57634e487b7160e01b600052602160045260246000fd5b141561196a5760405162461bcd60e51b815260206004820152601860248201527f45434453413a20696e76616c6964207369676e61747572650000000000000000604482015260640161087e565b600281600481111561198c57634e487b7160e01b600052602160045260246000fd5b14156119da5760405162461bcd60e51b815260206004820152601f60248201527f45434453413a20696e76616c6964207369676e6174757265206c656e67746800604482015260640161087e565b60038160048111156119fc57634e487b7160e01b600052602160045260246000fd5b1415611a555760405162461bcd60e51b815260206004820152602260248201527f45434453413a20696e76616c6964207369676e6174757265202773272076616c604482015261756560f01b606482015260840161087e565b6004816004811115611a7757634e487b7160e01b600052602160045260246000fd5b1415611ad05760405162461bcd60e51b815260206004820152602260248201527f45434453413a20696e76616c6964207369676e6174757265202776272076616c604482015261756560f01b606482015260840161087e565b50565b828054611adf906120c2565b90600052602060002090601f016020900481019282611b015760008555611b47565b82601f10611b1a57805160ff1916838001178555611b47565b82800160010185558215611b47579182015b82811115611b47578251825591602001919060010190611b2c565b50611b53929150611b57565b5090565b5b80821115611b535760008155600101611b58565b80356001600160a01b0381168114611b8357600080fd5b919050565b803560ff81168114611b8357600080fd5b600060208284031215611baa578081fd5b610fc282611b6c565b60008060408385031215611bc5578081fd5b611bce83611b6c565b946020939093013593505050565b60006020808385031215611bee578182fd5b823567ffffffffffffffff80821115611c05578384fd5b818501915085601f830112611c18578384fd5b813581811115611c2a57611c2a61212e565b8060051b9150611c3b848301612062565b8181528481019084860184860187018a1015611c55578788fd5b8795505b83861015611c77578035835260019590950194918601918601611c59565b5098975050505050505050565b600060208284031215611c95578081fd5b81356001600160e01b031981168114610fc2578182fd5b60006020808385031215611cbe578182fd5b823567ffffffffffffffff80821115611cd5578384fd5b818501915085601f830112611ce8578384fd5b813581811115611cfa57611cfa61212e565b611d0c601f8201601f19168501612062565b91508082528684828501011115611d21578485fd5b80848401858401378101909201929092529392505050565b600060208284031215611d4a578081fd5b5035919050565b600060208284031215611d62578081fd5b5051919050565b60008060408385031215611d7b578182fd5b82359150611d8b60208401611b6c565b90509250929050565b600080600060608486031215611da8578081fd5b83359250611db860208501611b88565b9150604084013590509250925092565b600080600080600060808688031215611ddf578081fd5b85359450611def60208701611b88565b935060408601359250606086013567ffffffffffffffff80821115611e12578283fd5b818801915088601f830112611e25578283fd5b813581811115611e33578384fd5b896020828501011115611e44578384fd5b9699959850939650602001949392505050565b60008060008060008060c08789031215611e6f578081fd5b86359550611e7f60208801611b88565b945060408701359350611e9460608801611b88565b92506080870135915060a087013590509295509295509295565b60008151808452815b81811015611ed357602081850181015186830182015201611eb7565b81811115611ee45782602083870101525b50601f01601f19169290920160200192915050565b6020808252825182820181905260009190848201906040850190845b81811015611f3a5783516001600160a01b031683529284019291840191600101611f15565b50909695505050505050565b6020808252825182820181905260009190848201906040850190845b81811015611f3a57835183529284019291840191600101611f62565b6020810160048310611fa057634e487b7160e01b600052602160045260246000fd5b91905290565b602081526000610fc26020830184611eae565b602080825282516001600160a01b03168282015282015160606040830152600090611fe76080840182611eae565b90506040840151151560608401528091505092915050565b8381526060602082015260006120186060830185611eae565b905060018060a01b0383166040830152949350505050565b84815260ff841660208201528260408201526080606082015260006120586080830184611eae565b9695505050505050565b604051601f8201601f1916810167ffffffffffffffff8111828210171561208b5761208b61212e565b604052919050565b600082198211156120a6576120a6612118565b500190565b6000828210156120bd576120bd612118565b500390565b600181811c908216806120d657607f821691505b602082108114156120f757634e487b7160e01b600052602260045260246000fd5b50919050565b600060001982141561211157612111612118565b5060010190565b634e487b7160e01b600052601160045260246000fd5b634e487b7160e01b600052604160045260246000fdfe546869732070726f706f73616c20686173206265656e2064656c65746564206279207468652063726561746f72206f662074686520636f6e746573742ea2646970667358221220bbfe0e047e5c40bdbe8ceb6092aea9a8972a1652b7bbeaf2cea34a21347463be64736f6c63430008040033",
  "linkReferences": {},
  "deployedLinkReferences": {}
}