{
  "_format": "hh-sol-artifact-1",
  "contractName": "Contest",
  "sourceName": "contracts/Contest.sol",
  "abi": [
    {
      "inputs": [
        {
          "internalType": "string",
          "name": "_name",
          "type": "string"
        },
        {
          "internalType": "contract IVotes",
          "name": "_token",
          "type": "address"
        },
        {
          "internalType": "uint64",
          "name": "_initialContestStart",
          "type": "uint64"
        },
        {
          "internalType": "uint256",
          "name": "_initialVotingDelay",
          "type": "uint256"
        },
        {
          "internalType": "uint256",
          "name": "_initialVotingPeriod",
          "type": "uint256"
        },
        {
          "internalType": "uint256",
          "name": "_initialContestSnapshot",
          "type": "uint256"
        },
        {
          "internalType": "uint256",
          "name": "_initialProposalThreshold",
          "type": "uint256"
        },
        {
          "internalType": "uint256",
          "name": "_initialMaxProposalCount",
          "type": "uint256"
        }
      ],
      "stateMutability": "nonpayable",
      "type": "constructor"
    },
    {
      "anonymous": false,
      "inputs": [],
      "name": "ContestCanceled",
      "type": "event"
    },
    {
      "anonymous": false,
      "inputs": [
        {
          "indexed": false,
          "internalType": "uint256",
          "name": "oldContestSnapshot",
          "type": "uint256"
        },
        {
          "indexed": false,
          "internalType": "uint256",
          "name": "newContestSnapshot",
          "type": "uint256"
        }
      ],
      "name": "ContestSnapshotSet",
      "type": "event"
    },
    {
      "anonymous": false,
      "inputs": [
        {
          "indexed": false,
          "internalType": "uint256",
          "name": "oldContestStart",
          "type": "uint256"
        },
        {
          "indexed": false,
          "internalType": "uint256",
          "name": "newContestStart",
          "type": "uint256"
        }
      ],
      "name": "ContestStartSet",
      "type": "event"
    },
    {
      "anonymous": false,
      "inputs": [
        {
          "indexed": false,
          "internalType": "address",
          "name": "oldCreator",
          "type": "address"
        },
        {
          "indexed": false,
          "internalType": "address",
          "name": "newCreator",
          "type": "address"
        }
      ],
      "name": "CreatorSet",
      "type": "event"
    },
    {
      "anonymous": false,
      "inputs": [
        {
          "indexed": false,
          "internalType": "uint256",
          "name": "oldMaxProposalCount",
          "type": "uint256"
        },
        {
          "indexed": false,
          "internalType": "uint256",
          "name": "newMaxProposalCount",
          "type": "uint256"
        }
      ],
      "name": "MaxProposalCountSet",
      "type": "event"
    },
    {
      "anonymous": false,
      "inputs": [
        {
          "indexed": false,
          "internalType": "uint256",
          "name": "proposalId",
          "type": "uint256"
        },
        {
          "indexed": false,
          "internalType": "string",
          "name": "description",
          "type": "string"
        },
        {
          "indexed": false,
          "internalType": "address",
          "name": "proposer",
          "type": "address"
        }
      ],
      "name": "ProposalCreated",
      "type": "event"
    },
    {
      "anonymous": false,
      "inputs": [
        {
          "indexed": false,
          "internalType": "uint256",
          "name": "oldProposalThreshold",
          "type": "uint256"
        },
        {
          "indexed": false,
          "internalType": "uint256",
          "name": "newProposalThreshold",
          "type": "uint256"
        }
      ],
      "name": "ProposalThresholdSet",
      "type": "event"
    },
    {
      "anonymous": false,
      "inputs": [
        {
          "indexed": false,
          "internalType": "uint256[]",
          "name": "proposalIds",
          "type": "uint256[]"
        }
      ],
      "name": "ProposalsDeleted",
      "type": "event"
    },
    {
      "anonymous": false,
      "inputs": [
        {
          "indexed": true,
          "internalType": "address",
          "name": "voter",
          "type": "address"
        },
        {
          "indexed": false,
          "internalType": "uint256",
          "name": "proposalId",
          "type": "uint256"
        },
        {
          "indexed": false,
          "internalType": "uint8",
          "name": "support",
          "type": "uint8"
        },
        {
          "indexed": false,
          "internalType": "uint256",
          "name": "numVotes",
          "type": "uint256"
        },
        {
          "indexed": false,
          "internalType": "string",
          "name": "reason",
          "type": "string"
        }
      ],
      "name": "VoteCast",
      "type": "event"
    },
    {
      "anonymous": false,
      "inputs": [
        {
          "indexed": false,
          "internalType": "uint256",
          "name": "oldVotingDelay",
          "type": "uint256"
        },
        {
          "indexed": false,
          "internalType": "uint256",
          "name": "newVotingDelay",
          "type": "uint256"
        }
      ],
      "name": "VotingDelaySet",
      "type": "event"
    },
    {
      "anonymous": false,
      "inputs": [
        {
          "indexed": false,
          "internalType": "uint256",
          "name": "oldVotingPeriod",
          "type": "uint256"
        },
        {
          "indexed": false,
          "internalType": "uint256",
          "name": "newVotingPeriod",
          "type": "uint256"
        }
      ],
      "name": "VotingPeriodSet",
      "type": "event"
    },
    {
      "inputs": [],
      "name": "BALLOT_TYPEHASH",
      "outputs": [
        {
          "internalType": "bytes32",
          "name": "",
          "type": "bytes32"
        }
      ],
      "stateMutability": "view",
      "type": "function"
    },
    {
      "inputs": [],
      "name": "COUNTING_MODE",
      "outputs": [
        {
          "internalType": "string",
          "name": "",
          "type": "string"
        }
      ],
      "stateMutability": "pure",
      "type": "function"
    },
    {
      "inputs": [],
      "name": "cancel",
      "outputs": [],
      "stateMutability": "nonpayable",
      "type": "function"
    },
    {
      "inputs": [
        {
          "internalType": "uint256",
          "name": "proposalId",
          "type": "uint256"
        },
        {
          "internalType": "uint8",
          "name": "support",
          "type": "uint8"
        },
        {
          "internalType": "uint256",
          "name": "numVotes",
          "type": "uint256"
        }
      ],
      "name": "castVote",
      "outputs": [
        {
          "internalType": "uint256",
          "name": "",
          "type": "uint256"
        }
      ],
      "stateMutability": "nonpayable",
      "type": "function"
    },
    {
      "inputs": [
        {
          "internalType": "uint256",
          "name": "proposalId",
          "type": "uint256"
        },
        {
          "internalType": "uint8",
          "name": "support",
          "type": "uint8"
        },
        {
          "internalType": "uint256",
          "name": "numVotes",
          "type": "uint256"
        },
        {
          "internalType": "uint8",
          "name": "v",
          "type": "uint8"
        },
        {
          "internalType": "bytes32",
          "name": "r",
          "type": "bytes32"
        },
        {
          "internalType": "bytes32",
          "name": "s",
          "type": "bytes32"
        }
      ],
      "name": "castVoteBySig",
      "outputs": [
        {
          "internalType": "uint256",
          "name": "",
          "type": "uint256"
        }
      ],
      "stateMutability": "nonpayable",
      "type": "function"
    },
    {
      "inputs": [
        {
          "internalType": "uint256",
          "name": "proposalId",
          "type": "uint256"
        },
        {
          "internalType": "uint8",
          "name": "support",
          "type": "uint8"
        },
        {
          "internalType": "uint256",
          "name": "numVotes",
          "type": "uint256"
        },
        {
          "internalType": "string",
          "name": "reason",
          "type": "string"
        }
      ],
      "name": "castVoteWithReason",
      "outputs": [
        {
          "internalType": "uint256",
          "name": "",
          "type": "uint256"
        }
      ],
      "stateMutability": "nonpayable",
      "type": "function"
    },
    {
      "inputs": [
        {
          "internalType": "address",
          "name": "userAddress",
          "type": "address"
        }
      ],
      "name": "contestAddressTotalVotesCast",
      "outputs": [
        {
          "internalType": "uint256",
          "name": "totalVotesCast",
          "type": "uint256"
        }
      ],
      "stateMutability": "view",
      "type": "function"
    },
    {
      "inputs": [],
      "name": "contestDeadline",
      "outputs": [
        {
          "internalType": "uint256",
          "name": "",
          "type": "uint256"
        }
      ],
      "stateMutability": "view",
      "type": "function"
    },
    {
      "inputs": [],
      "name": "contestSnapshot",
      "outputs": [
        {
          "internalType": "uint256",
          "name": "",
          "type": "uint256"
        }
      ],
      "stateMutability": "view",
      "type": "function"
    },
    {
      "inputs": [],
      "name": "contestStart",
      "outputs": [
        {
          "internalType": "uint256",
          "name": "",
          "type": "uint256"
        }
      ],
      "stateMutability": "view",
      "type": "function"
    },
    {
      "inputs": [],
      "name": "creator",
      "outputs": [
        {
          "internalType": "address",
          "name": "",
          "type": "address"
        }
      ],
      "stateMutability": "view",
      "type": "function"
    },
    {
      "inputs": [
        {
          "internalType": "uint256[]",
          "name": "proposalIds",
          "type": "uint256[]"
        }
      ],
      "name": "deleteProposals",
      "outputs": [],
      "stateMutability": "nonpayable",
      "type": "function"
    },
    {
      "inputs": [],
      "name": "getAllProposalIds",
      "outputs": [
        {
          "internalType": "uint256[]",
          "name": "",
          "type": "uint256[]"
        }
      ],
      "stateMutability": "view",
      "type": "function"
    },
    {
      "inputs": [
        {
          "internalType": "uint256",
          "name": "proposalId",
          "type": "uint256"
        }
      ],
      "name": "getProposal",
      "outputs": [
        {
          "components": [
            {
              "internalType": "address",
              "name": "author",
              "type": "address"
            },
            {
              "internalType": "string",
              "name": "description",
              "type": "string"
            },
            {
              "internalType": "bool",
              "name": "exists",
              "type": "bool"
            }
          ],
          "internalType": "struct Governor.ProposalCore",
          "name": "",
          "type": "tuple"
        }
      ],
      "stateMutability": "view",
      "type": "function"
    },
    {
      "inputs": [
        {
          "internalType": "address",
          "name": "account",
          "type": "address"
        },
        {
          "internalType": "uint256",
          "name": "blockNumber",
          "type": "uint256"
        }
      ],
      "name": "getVotes",
      "outputs": [
        {
          "internalType": "uint256",
          "name": "",
          "type": "uint256"
        }
      ],
      "stateMutability": "view",
      "type": "function"
    },
    {
      "inputs": [
        {
          "internalType": "string",
          "name": "proposalDescription",
          "type": "string"
        }
      ],
      "name": "hashProposal",
      "outputs": [
        {
          "internalType": "uint256",
          "name": "",
          "type": "uint256"
        }
      ],
      "stateMutability": "pure",
      "type": "function"
    },
    {
      "inputs": [],
      "name": "maxProposalCount",
      "outputs": [
        {
          "internalType": "uint256",
          "name": "",
          "type": "uint256"
        }
      ],
      "stateMutability": "view",
      "type": "function"
    },
    {
      "inputs": [],
      "name": "name",
      "outputs": [
        {
          "internalType": "string",
          "name": "",
          "type": "string"
        }
      ],
      "stateMutability": "view",
      "type": "function"
    },
    {
      "inputs": [
        {
          "internalType": "uint256",
          "name": "proposalId",
          "type": "uint256"
        },
        {
          "internalType": "address",
          "name": "userAddress",
          "type": "address"
        }
      ],
      "name": "proposalAddressVotes",
      "outputs": [
        {
          "internalType": "uint256",
          "name": "forVotes",
          "type": "uint256"
        }
      ],
      "stateMutability": "view",
      "type": "function"
    },
    {
      "inputs": [
        {
          "internalType": "uint256",
          "name": "proposalId",
          "type": "uint256"
        }
      ],
      "name": "proposalAddressesHaveVoted",
      "outputs": [
        {
          "internalType": "address[]",
          "name": "",
          "type": "address[]"
        }
      ],
      "stateMutability": "view",
      "type": "function"
    },
    {
      "inputs": [],
      "name": "proposalThreshold",
      "outputs": [
        {
          "internalType": "uint256",
          "name": "",
          "type": "uint256"
        }
      ],
      "stateMutability": "view",
      "type": "function"
    },
    {
      "inputs": [
        {
          "internalType": "uint256",
          "name": "proposalId",
          "type": "uint256"
        }
      ],
      "name": "proposalVotes",
      "outputs": [
        {
          "internalType": "uint256",
          "name": "forVotes",
          "type": "uint256"
        }
      ],
      "stateMutability": "view",
      "type": "function"
    },
    {
      "inputs": [
        {
          "internalType": "string",
          "name": "proposalDescription",
          "type": "string"
        }
      ],
      "name": "propose",
      "outputs": [
        {
          "internalType": "uint256",
          "name": "",
          "type": "uint256"
        }
      ],
      "stateMutability": "nonpayable",
      "type": "function"
    },
    {
      "inputs": [],
      "name": "state",
      "outputs": [
        {
          "internalType": "enum IGovernor.ContestState",
          "name": "",
          "type": "uint8"
        }
      ],
      "stateMutability": "view",
      "type": "function"
    },
    {
      "inputs": [
        {
          "internalType": "bytes4",
          "name": "interfaceId",
          "type": "bytes4"
        }
      ],
      "name": "supportsInterface",
      "outputs": [
        {
          "internalType": "bool",
          "name": "",
          "type": "bool"
        }
      ],
      "stateMutability": "view",
      "type": "function"
    },
    {
      "inputs": [],
      "name": "token",
      "outputs": [
        {
          "internalType": "contract IVotes",
          "name": "",
          "type": "address"
        }
      ],
      "stateMutability": "view",
      "type": "function"
    },
    {
      "inputs": [],
      "name": "version",
      "outputs": [
        {
          "internalType": "string",
          "name": "",
          "type": "string"
        }
      ],
      "stateMutability": "view",
      "type": "function"
    },
    {
      "inputs": [],
      "name": "voteStart",
      "outputs": [
        {
          "internalType": "uint256",
          "name": "",
          "type": "uint256"
        }
      ],
      "stateMutability": "view",
      "type": "function"
    },
    {
      "inputs": [],
      "name": "votingDelay",
      "outputs": [
        {
          "internalType": "uint256",
          "name": "",
          "type": "uint256"
        }
      ],
      "stateMutability": "view",
      "type": "function"
    },
    {
      "inputs": [],
      "name": "votingPeriod",
      "outputs": [
        {
          "internalType": "uint256",
          "name": "",
          "type": "uint256"
        }
      ],
      "stateMutability": "view",
      "type": "function"
    },
    {
      "stateMutability": "payable",
      "type": "receive"
    }
  ],
  "bytecode": "0x6101606040523480156200001257600080fd5b5060405162002789380380620027898339810160408190526200003591620004b7565b866001600160401b03871686868686868e80620000666040805180820190915260018152603160f81b602082015290565b815160208084019190912082518383012060e08290526101008190524660a0818152604080517f8b73c3c69bb8fe3d512ecc4cf759cc79239f7b179b0ffacaa9a75d522b39400f81880181905281830187905260608201869052608082019490945230818401528151808203909301835260c00190528051940193909320919290916080523060601b60c05261012052505082516200010f9250600191506020840190620003dc565b506200011d90508662000188565b6200012885620001c9565b62000133846200020a565b6200013e83620002b0565b6200014982620002f1565b620001548162000332565b6200015f3362000373565b505050505060609190911b6001600160601b031916610140525062000638975050505050505050565b60055460408051918252602082018390527fd299feb1d7d9345a48559601c471c3be7eea9a11f21d5e86809198f40a974db4910160405180910390a1600555565b60065460408051918252602082018390527fc565b045403dc03c2eea82b81a0465edad9e2e7fc4d97e11421c209da93d7a93910160405180910390a1600655565b600081116200026f5760405162461bcd60e51b815260206004820152602760248201527f476f7665726e6f7253657474696e67733a20766f74696e6720706572696f6420604482015266746f6f206c6f7760c81b606482015260840160405180910390fd5b60075460408051918252602082018390527f7e3f7f0708a84de9203036abaa450dccc85ad5ff52f78c170f3edb55cf5e8828910160405180910390a1600755565b60085460408051918252602082018390527f70d92b9b65fcaa7708049081fd0ad601c9af76bd86d38df0337dfce3d025ec83910160405180910390a1600855565b60095460408051918252602082018390527fccb45da8d5717e6c4544694297c4ba5cf151d455c9bb0ed4fc7a38411bc05461910160405180910390a1600955565b600a5460408051918252602082018390527f4984ec996723330ee95979ed65a2a4b41edd914e68a187efe92596474643bdff910160405180910390a1600a55565b600b54604080516001600160a01b03928316815291831660208301527fc30034fc2e9697980e08935bbc287db3eaa44a4aa113ef4c108b356adbf911ce910160405180910390a1600b80546001600160a01b0319166001600160a01b0392909216919091179055565b828054620003ea90620005e5565b90600052602060002090601f0160209004810192826200040e576000855562000459565b82601f106200042957805160ff191683800117855562000459565b8280016001018555821562000459579182015b82811115620004595782518255916020019190600101906200043c565b50620004679291506200046b565b5090565b5b808211156200046757600081556001016200046c565b80516001600160a01b03811681146200049a57600080fd5b919050565b80516001600160401b03811681146200049a57600080fd5b600080600080600080600080610100898b031215620004d4578384fd5b88516001600160401b0380821115620004eb578586fd5b818b0191508b601f830112620004ff578586fd5b81518181111562000514576200051462000622565b604051601f8201601f19908116603f011681019083821181831017156200053f576200053f62000622565b81604052828152602093508e848487010111156200055b578889fd5b8891505b828210156200057e57848201840151818301850152908301906200055f565b828211156200058f57888484830101525b9b50620005a19150508b820162000482565b98505050620005b360408a016200049f565b9550606089015194506080890151935060a0890151925060c0890151915060e089015190509295985092959890939650565b600181811c90821680620005fa57607f821691505b602082108114156200061c57634e487b7160e01b600052602260045260246000fd5b50919050565b634e487b7160e01b600052604160045260246000fd5b60805160a05160c05160601c60e05161010051610120516101405160601c6120e9620006a0600039600081816105f9015261139201526000611677015260006116c6015260006116a1015260006115fa015260006116240152600061164e01526120e96000f3fe6080604052600436106101d05760003560e01c8063b323580d116100f7578063deaaa7cc11610095578063efa90d3611610064578063efa90d3614610590578063f0a7db0a146105b2578063fb9bf8d4146105d2578063fc0c546a146105e757600080fd5b8063deaaa7cc14610512578063e031535b14610546578063ea8a1af01461055b578063eb9019d41461057057600080fd5b8063c19d93fb116100d1578063c19d93fb1461046f578063c7f758a814610491578063d17ad2d4146104be578063dd4e2ba5146104de57600080fd5b8063b323580d1461040d578063b58131b01461043a578063bd65e80a1461044f57600080fd5b80633932abb11161016f5780636e4eb8101161013e5780636e4eb810146103505780639c02817614610397578063aa98df39146103b7578063aec116b6146103d757600080fd5b80633932abb1146102cf578063540a9190146102e4578063544ffc9c146102f957806354fd4d501461032657600080fd5b806302d05d3f116101ab57806302d05d3f1461024b57806306fdde03146102785780631566f60d1461029a578063262e59e9146102ba57600080fd5b80624114a8146101de57806301ffc9a71461020657806302a251a31461023657600080fd5b366101d957005b005b600080fd5b3480156101ea57600080fd5b506101f361061b565b6040519081526020015b60405180910390f35b34801561021257600080fd5b50610226610221366004611bb6565b61062b565b60405190151581526020016101fd565b34801561024257600080fd5b506101f3610662565b34801561025757600080fd5b5061026061066d565b6040516001600160a01b0390911681526020016101fd565b34801561028457600080fd5b5061028d610681565b6040516101fd9190611ed8565b3480156102a657600080fd5b506101f36102b5366004611cfa565b610713565b3480156102c657600080fd5b506101f3610767565b3480156102db57600080fd5b506101f3610783565b3480156102f057600080fd5b506008546101f3565b34801561030557600080fd5b506101f3610314366004611c6b565b6000908152600d602052604090205490565b34801561033257600080fd5b506040805180820190915260018152603160f81b602082015261028d565b34801561035c57600080fd5b506101f361036b366004611c9b565b6000828152600d602090815260408083206001600160a01b038516845260020190915290205492915050565b3480156103a357600080fd5b506101f36103b2366004611cc6565b61078e565b3480156103c357600080fd5b506101f36103d2366004611bde565b6107b9565b3480156103e357600080fd5b506101f36103f2366004611acb565b6001600160a01b03166000908152600c602052604090205490565b34801561041957600080fd5b5061042d610428366004611c6b565b610bd2565b6040516101fd9190611e2b565b34801561044657600080fd5b506101f3610c44565b34801561045b57600080fd5b506101f361046a366004611bde565b610c4f565b34801561047b57600080fd5b50610484610c80565b6040516101fd9190611eb0565b34801561049d57600080fd5b506104b16104ac366004611c6b565b610cd4565b6040516101fd9190611eeb565b3480156104ca57600080fd5b506101f36104d9366004611d89565b610dd8565b3480156104ea57600080fd5b5060408051808201909152600b81526a39bab83837b93a1eb337b960a91b602082015261028d565b34801561051e57600080fd5b506101f37f150214d74d59b7d1e90c73fc22ef3d991dd0a76b046543d4d80ab92d2a50328f81565b34801561055257600080fd5b506101f3610e6e565b34801561056757600080fd5b506101d7610e80565b34801561057c57600080fd5b506101f361058b366004611ae5565b610f86565b34801561059c57600080fd5b506105a5610f99565b6040516101fd9190611e78565b3480156105be57600080fd5b506101d76105cd366004611b0e565b610ff0565b3480156105de57600080fd5b506101f36110d8565b3480156105f357600080fd5b506102607f000000000000000000000000000000000000000000000000000000000000000081565b600061062660055490565b905090565b60006001600160e01b031982166320da447160e11b148061065c57506301ffc9a760e01b6001600160e01b03198316145b92915050565b600061062660075490565b6000610626600b546001600160a01b031690565b60606001805461069090611ff4565b80601f01602080910402602001604051908101604052809291908181526020018280546106bc90611ff4565b80156107095780601f106106de57610100808354040283529160200191610709565b820191906000526020600020905b8154815290600101906020018083116106ec57829003601f168201915b5050505050905090565b60008033905061075c8782888888888080601f0160208091040260200160405190810160405280939291908181526020018383808284376000920191909152506110e392505050565b979650505050505050565b6000610771610662565b610779610e6e565b6106269190611fc5565b600061062660065490565b6000803390506107b085828686604051806020016040528060008152506110e3565b95945050505050565b600060026107c5610c80565b60038111156107e457634e487b7160e01b600052602160045260246000fd5b1461085c5760405162461bcd60e51b815260206004820152603e60248201527f476f7665726e6f723a20636f6e74657374206d7573742062652071756575656460448201527f20666f722070726f706f73616c7320746f206265207375626d6974746564000060648201526084015b60405180910390fd5b3360009081526004602052604090205460ff161515600114156108e75760405162461bcd60e51b815260206004820152603f60248201527f476f7665726e6f723a207468652073616d6520616464726573732063616e6e6f60448201527f74207375626d6974206d6f7265207468616e206f6e652070726f706f73616c006064820152608401610853565b6108ef6110d8565b600054106109655760405162461bcd60e51b815260206004820152603960248201527f476f7665726e6f723a20746865206d6178206e756d626572206f662070726f7060448201527f6f73616c732068617665206265656e207375626d6974746564000000000000006064820152608401610853565b61096d610c44565b61097c3361058b600143611fdd565b10156109fc5760405162461bcd60e51b815260206004820152604360248201527f476f7665726e6f72436f6d7061746962696c697479427261766f3a2070726f7060448201527f6f73657220766f7465732062656c6f772070726f706f73616c207468726573686064820152621bdb1960ea1b608482015260a401610853565b8151610a4a5760405162461bcd60e51b815260206004820152601860248201527f476f7665726e6f723a20656d7074792070726f706f73616c00000000000000006044820152606401610853565b6000610a5583610c4f565b60008181526003602052604090206002015490915060ff1615610acc5760405162461bcd60e51b815260206004820152602960248201527f476f7665726e6f723a206475706c69636174652070726f706f73616c73206e6f6044820152681d08185b1b1bddd95960ba1b6064820152608401610853565b60008054600180820183557f290decd9548b62a8d60345a988386fc84ba6bc95484008f6362f93160ef3e5639091018390556040805160608101825233815260208082018881528284018590528686526003825292909420815181546001600160a01b0319166001600160a01b039091161781559151805191949293610b589390850192910190611a05565b506040918201516002909101805491151560ff19928316179055336000908152600460205291909120805490911660011790557fc8c078bfee58e5822588f08b4509ed1eb5058e03f666cca84dd2d44bf5c288a88184610bb53390565b604051610bc493929190611f31565b60405180910390a192915050565b6000818152600d60209081526040918290206001810180548451818502810185019095528085526060949293830182828015610c3757602002820191906000526020600020905b81546001600160a01b03168152600190910190602001808311610c19575b5050505050915050919050565b600061062660095490565b600081604051602001610c629190611ed8565b60408051601f19818403018152919052805160209091012092915050565b60025460009060ff1615610c945750600190565b6000610c9e610e6e565b9050428110610caf57600291505090565b6000610cb9610767565b9050428110610ccb5760009250505090565b60039250505090565b610d03604051806060016040528060006001600160a01b03168152602001606081526020016000151581525090565b60008281526003602090815260409182902082516060810190935280546001600160a01b031683526001810180549192840191610d3f90611ff4565b80601f0160208091040260200160405190810160405280929190818152602001828054610d6b90611ff4565b8015610db85780601f10610d8d57610100808354040283529160200191610db8565b820191906000526020600020905b815481529060010190602001808311610d9b57829003601f168201915b50505091835250506002919091015460ff16151560209091015292915050565b604080517f150214d74d59b7d1e90c73fc22ef3d991dd0a76b046543d4d80ab92d2a50328f602082015290810187905260ff861660608201526000908190610e4490610e3c90608001604051602081830303815290604052805190602001206112f3565b868686611341565b9050610e6288828989604051806020016040528060008152506110e3565b98975050505050505050565b6000610e78610783565b61077961061b565b610e8861066d565b6001600160a01b0316336001600160a01b031614610ea557600080fd5b6000610eaf610c80565b90506001816003811115610ed357634e487b7160e01b600052602160045260246000fd5b14158015610f0157506003816003811115610efe57634e487b7160e01b600052602160045260246000fd5b14155b610f4d5760405162461bcd60e51b815260206004820152601c60248201527f476f7665726e6f723a20636f6e74657374206e6f7420616374697665000000006044820152606401610853565b6002805460ff191660011790556040517f4cd963a081760a54f571abc0f1db4dde31b4a07d8d6da3e844b8c6f47eeaaa4290600090a150565b6000610f928383611369565b9392505050565b6060600080548060200260200160405190810160405280929190818152602001828054801561070957602002820191906000526020600020905b815481526020019060010190808311610fd3575050505050905090565b610ff861066d565b6001600160a01b0316336001600160a01b03161461101557600080fd5b60005b815181101561109d576040518060600160405280603d8152602001612077603d91396003600084848151811061105e57634e487b7160e01b600052603260045260246000fd5b60200260200101518152602001908152602001600020600101908051906020019061108a929190611a05565b50806110958161202f565b915050611018565b507f75a75cf5c561892f4cc5b26c1b8e933849b42238c96dd073d080d1ae96c51416816040516110cd9190611e78565b60405180910390a150565b6000610626600a5490565b6000806110ee610c80565b600381111561110d57634e487b7160e01b600052602160045260246000fd5b146111665760405162461bcd60e51b815260206004820152602360248201527f476f7665726e6f723a20766f7465206e6f742063757272656e746c792061637460448201526269766560e81b6064820152608401610853565b600083116111dc5760405162461bcd60e51b815260206004820152603760248201527f476f7665726e6f72566f74696e6753696d706c653a2063616e6e6f7420766f7460448201527f6520776974682030206f7220666577657220766f7465730000000000000000006064820152608401610853565b60006111eb8661058b60085490565b9050600081116112955760405162461bcd60e51b815260206004820152606360248201527f476f7665726e6f72566f74696e6753696d706c653a20796f75206d757374206860448201527f6176652067726561746572207468616e20302064656c65676174656420766f7460648201527f65732061742074686520736e617073686f7420696e206f7264657220746f20766084820152626f746560e81b60a482015260c401610853565b6112a2878787878561140e565b856001600160a01b03167fb8e138887d0aa13bab447e82de9d5c1777041ecd21ca36ba824ff1e6c07ddda4888787876040516112e19493929190611f62565b60405180910390a29695505050505050565b600061065c6113006115ed565b8360405161190160f01b6020820152602281018390526042810182905260009060620160405160208183030381529060405280519060200120905092915050565b600080600061135287878787611714565b9150915061135f81611801565b5095945050505050565b604051630748d63560e31b81526001600160a01b038381166004830152602482018390526000917f000000000000000000000000000000000000000000000000000000000000000090911690633a46b1a89060440160206040518083038186803b1580156113d657600080fd5b505afa1580156113ea573d6000803e3d6000fd5b505050506040513d601f19601f82011682018060405250810190610f929190611c83565b6000858152600d602090815260408083206001600160a01b0388168452600c9092529091205461143e9083611fdd565b8311156114a95760405162461bcd60e51b815260206004820152603360248201527f476f7665726e6f72566f74696e6753696d706c653a206e6f7420656e6f756768604482015272081d9bdd195cc81b19599d081d1bc818d85cdd606a1b6064820152608401610853565b6001600160a01b03851660009081526002820160205260409020541560ff851661151b578154849083906000906114e1908490611fc5565b90915550506001600160a01b038616600090815260028301602052604081208054869290611510908490611fc5565b909155506115819050565b60405162461bcd60e51b815260206004820152603560248201527f476f7665726e6f72566f74696e6753696d706c653a20696e76616c69642076616044820152746c756520666f7220656e756d20566f74655479706560581b6064820152608401610853565b80156115b7576001828101805491820181556000908152602090200180546001600160a01b0319166001600160a01b0388161790555b6001600160a01b0386166000908152600c6020526040812080548692906115df908490611fc5565b909155505050505050505050565b6000306001600160a01b037f00000000000000000000000000000000000000000000000000000000000000001614801561164657507f000000000000000000000000000000000000000000000000000000000000000046145b1561167057507f000000000000000000000000000000000000000000000000000000000000000090565b50604080517f00000000000000000000000000000000000000000000000000000000000000006020808301919091527f0000000000000000000000000000000000000000000000000000000000000000828401527f000000000000000000000000000000000000000000000000000000000000000060608301524660808301523060a0808401919091528351808403909101815260c0909201909252805191012090565b6000807f7fffffffffffffffffffffffffffffff5d576e7357a4501ddfe92f46681b20a083111561174b57506000905060036117f8565b8460ff16601b1415801561176357508460ff16601c14155b1561177457506000905060046117f8565b6040805160008082526020820180845289905260ff881692820192909252606081018690526080810185905260019060a0016020604051602081039080840390855afa1580156117c8573d6000803e3d6000fd5b5050604051601f1901519150506001600160a01b0381166117f1576000600192509250506117f8565b9150600090505b94509492505050565b600081600481111561182357634e487b7160e01b600052602160045260246000fd5b141561182c5750565b600181600481111561184e57634e487b7160e01b600052602160045260246000fd5b141561189c5760405162461bcd60e51b815260206004820152601860248201527f45434453413a20696e76616c6964207369676e617475726500000000000000006044820152606401610853565b60028160048111156118be57634e487b7160e01b600052602160045260246000fd5b141561190c5760405162461bcd60e51b815260206004820152601f60248201527f45434453413a20696e76616c6964207369676e6174757265206c656e677468006044820152606401610853565b600381600481111561192e57634e487b7160e01b600052602160045260246000fd5b14156119875760405162461bcd60e51b815260206004820152602260248201527f45434453413a20696e76616c6964207369676e6174757265202773272076616c604482015261756560f01b6064820152608401610853565b60048160048111156119a957634e487b7160e01b600052602160045260246000fd5b1415611a025760405162461bcd60e51b815260206004820152602260248201527f45434453413a20696e76616c6964207369676e6174757265202776272076616c604482015261756560f01b6064820152608401610853565b50565b828054611a1190611ff4565b90600052602060002090601f016020900481019282611a335760008555611a79565b82601f10611a4c57805160ff1916838001178555611a79565b82800160010185558215611a79579182015b82811115611a79578251825591602001919060010190611a5e565b50611a85929150611a89565b5090565b5b80821115611a855760008155600101611a8a565b80356001600160a01b0381168114611ab557600080fd5b919050565b803560ff81168114611ab557600080fd5b600060208284031215611adc578081fd5b610f9282611a9e565b60008060408385031215611af7578081fd5b611b0083611a9e565b946020939093013593505050565b60006020808385031215611b20578182fd5b823567ffffffffffffffff80821115611b37578384fd5b818501915085601f830112611b4a578384fd5b813581811115611b5c57611b5c612060565b8060051b9150611b6d848301611f94565b8181528481019084860184860187018a1015611b87578788fd5b8795505b83861015611ba9578035835260019590950194918601918601611b8b565b5098975050505050505050565b600060208284031215611bc7578081fd5b81356001600160e01b031981168114610f92578182fd5b60006020808385031215611bf0578182fd5b823567ffffffffffffffff80821115611c07578384fd5b818501915085601f830112611c1a578384fd5b813581811115611c2c57611c2c612060565b611c3e601f8201601f19168501611f94565b91508082528684828501011115611c53578485fd5b80848401858401378101909201929092529392505050565b600060208284031215611c7c578081fd5b5035919050565b600060208284031215611c94578081fd5b5051919050565b60008060408385031215611cad578182fd5b82359150611cbd60208401611a9e565b90509250929050565b600080600060608486031215611cda578081fd5b83359250611cea60208501611aba565b9150604084013590509250925092565b600080600080600060808688031215611d11578081fd5b85359450611d2160208701611aba565b935060408601359250606086013567ffffffffffffffff80821115611d44578283fd5b818801915088601f830112611d57578283fd5b813581811115611d65578384fd5b896020828501011115611d76578384fd5b9699959850939650602001949392505050565b60008060008060008060c08789031215611da1578081fd5b86359550611db160208801611aba565b945060408701359350611dc660608801611aba565b92506080870135915060a087013590509295509295509295565b60008151808452815b81811015611e0557602081850181015186830182015201611de9565b81811115611e165782602083870101525b50601f01601f19169290920160200192915050565b6020808252825182820181905260009190848201906040850190845b81811015611e6c5783516001600160a01b031683529284019291840191600101611e47565b50909695505050505050565b6020808252825182820181905260009190848201906040850190845b81811015611e6c57835183529284019291840191600101611e94565b6020810160048310611ed257634e487b7160e01b600052602160045260246000fd5b91905290565b602081526000610f926020830184611de0565b602080825282516001600160a01b03168282015282015160606040830152600090611f196080840182611de0565b90506040840151151560608401528091505092915050565b838152606060208201526000611f4a6060830185611de0565b905060018060a01b0383166040830152949350505050565b84815260ff84166020820152826040820152608060608201526000611f8a6080830184611de0565b9695505050505050565b604051601f8201601f1916810167ffffffffffffffff81118282101715611fbd57611fbd612060565b604052919050565b60008219821115611fd857611fd861204a565b500190565b600082821015611fef57611fef61204a565b500390565b600181811c9082168061200857607f821691505b6020821081141561202957634e487b7160e01b600052602260045260246000fd5b50919050565b60006000198214156120435761204361204a565b5060010190565b634e487b7160e01b600052601160045260246000fd5b634e487b7160e01b600052604160045260246000fdfe546869732070726f706f73616c20686173206265656e2064656c65746564206279207468652063726561746f72206f662074686520636f6e746573742ea264697066735822122018291adde9ea2e6270b7cd62641d51dd5734a9893326db71d7fa4e2e1e74ed0864736f6c63430008040033",
  "linkReferences": {},
  "deployedLinkReferences": {}
}