{
  "abi": [
    {
      "inputs": [
        {
          "internalType": "uint256[]",
          "name": "payees",
          "type": "uint256[]"
        },
        {
          "internalType": "uint256[]",
          "name": "shares_",
          "type": "uint256[]"
        },
        {
          "internalType": "contract GovernorSorting",
          "name": "underlyingContest_",
          "type": "address"
        },
        {
          "internalType": "bool",
          "name": "paysOutTarget_",
          "type": "bool"
        }
      ],
      "stateMutability": "payable",
      "type": "constructor"
    },
    {
      "anonymous": false,
      "inputs": [
        {
          "indexed": true,
          "internalType": "contract IERC20",
          "name": "token",
          "type": "address"
        },
        {
          "indexed": false,
          "internalType": "address",
          "name": "to",
          "type": "address"
        },
        {
          "indexed": false,
          "internalType": "uint256",
          "name": "amount",
          "type": "uint256"
        }
      ],
      "name": "ERC20PaymentReleased",
      "type": "event"
    },
    {
      "anonymous": false,
      "inputs": [
        {
          "indexed": true,
          "internalType": "contract IERC20",
          "name": "token",
          "type": "address"
        },
        {
          "indexed": false,
          "internalType": "address",
          "name": "by",
          "type": "address"
        },
        {
          "indexed": false,
          "internalType": "uint256",
          "name": "amount",
          "type": "uint256"
        }
      ],
      "name": "ERC20RewardWithdrawn",
      "type": "event"
    },
    {
      "anonymous": false,
      "inputs": [
        {
          "indexed": false,
          "internalType": "uint256",
          "name": "ranking",
          "type": "uint256"
        },
        {
          "indexed": false,
          "internalType": "uint256",
          "name": "shares",
          "type": "uint256"
        }
      ],
      "name": "PayeeAdded",
      "type": "event"
    },
    {
      "anonymous": false,
      "inputs": [
        {
          "indexed": false,
          "internalType": "address",
          "name": "from",
          "type": "address"
        },
        {
          "indexed": false,
          "internalType": "uint256",
          "name": "amount",
          "type": "uint256"
        }
      ],
      "name": "PaymentReceived",
      "type": "event"
    },
    {
      "anonymous": false,
      "inputs": [
        {
          "indexed": false,
          "internalType": "address",
          "name": "to",
          "type": "address"
        },
        {
          "indexed": false,
          "internalType": "uint256",
          "name": "amount",
          "type": "uint256"
        }
      ],
      "name": "PaymentReleased",
      "type": "event"
    },
    {
      "anonymous": false,
      "inputs": [
        {
          "indexed": false,
          "internalType": "address",
          "name": "by",
          "type": "address"
        },
        {
          "indexed": false,
          "internalType": "uint256",
          "name": "amount",
          "type": "uint256"
        }
      ],
      "name": "RewardWithdrawn",
      "type": "event"
    },
    {
      "inputs": [],
      "name": "creator",
      "outputs": [
        {
          "internalType": "address",
          "name": "",
          "type": "address"
        }
      ],
      "stateMutability": "view",
      "type": "function"
    },
    {
      "inputs": [],
      "name": "getPayees",
      "outputs": [
        {
          "internalType": "uint256[]",
          "name": "",
          "type": "uint256[]"
        }
      ],
      "stateMutability": "view",
      "type": "function"
    },
    {
      "inputs": [],
      "name": "paysOutTarget",
      "outputs": [
        {
          "internalType": "bool",
          "name": "",
          "type": "bool"
        }
      ],
      "stateMutability": "view",
      "type": "function"
    },
    {
      "inputs": [
        {
          "internalType": "contract IERC20",
          "name": "token",
          "type": "address"
        },
        {
          "internalType": "uint256",
          "name": "ranking",
          "type": "uint256"
        }
      ],
      "name": "releasable",
      "outputs": [
        {
          "internalType": "uint256",
          "name": "",
          "type": "uint256"
        }
      ],
      "stateMutability": "view",
      "type": "function"
    },
    {
      "inputs": [
        {
          "internalType": "uint256",
          "name": "ranking",
          "type": "uint256"
        }
      ],
      "name": "releasable",
      "outputs": [
        {
          "internalType": "uint256",
          "name": "",
          "type": "uint256"
        }
      ],
      "stateMutability": "view",
      "type": "function"
    },
    {
      "inputs": [
        {
          "internalType": "contract IERC20",
          "name": "token",
          "type": "address"
        },
        {
          "internalType": "uint256",
          "name": "ranking",
          "type": "uint256"
        }
      ],
      "name": "release",
      "outputs": [],
      "stateMutability": "nonpayable",
      "type": "function"
    },
    {
      "inputs": [
        {
          "internalType": "uint256",
          "name": "ranking",
          "type": "uint256"
        }
      ],
      "name": "release",
      "outputs": [],
      "stateMutability": "nonpayable",
      "type": "function"
    },
    {
      "inputs": [
        {
          "internalType": "uint256",
          "name": "ranking",
          "type": "uint256"
        }
      ],
      "name": "released",
      "outputs": [
        {
          "internalType": "uint256",
          "name": "",
          "type": "uint256"
        }
      ],
      "stateMutability": "view",
      "type": "function"
    },
    {
      "inputs": [
        {
          "internalType": "contract IERC20",
          "name": "token",
          "type": "address"
        },
        {
          "internalType": "uint256",
          "name": "ranking",
          "type": "uint256"
        }
      ],
      "name": "released",
      "outputs": [
        {
          "internalType": "uint256",
          "name": "",
          "type": "uint256"
        }
      ],
      "stateMutability": "view",
      "type": "function"
    },
    {
      "inputs": [
        {
          "internalType": "uint256",
          "name": "ranking",
          "type": "uint256"
        }
      ],
      "name": "shares",
      "outputs": [
        {
          "internalType": "uint256",
          "name": "",
          "type": "uint256"
        }
      ],
      "stateMutability": "view",
      "type": "function"
    },
    {
      "inputs": [
        {
          "internalType": "contract IERC20",
          "name": "token",
          "type": "address"
        }
      ],
      "name": "totalReleased",
      "outputs": [
        {
          "internalType": "uint256",
          "name": "",
          "type": "uint256"
        }
      ],
      "stateMutability": "view",
      "type": "function"
    },
    {
      "inputs": [],
      "name": "totalReleased",
      "outputs": [
        {
          "internalType": "uint256",
          "name": "",
          "type": "uint256"
        }
      ],
      "stateMutability": "view",
      "type": "function"
    },
    {
      "inputs": [],
      "name": "totalShares",
      "outputs": [
        {
          "internalType": "uint256",
          "name": "",
          "type": "uint256"
        }
      ],
      "stateMutability": "view",
      "type": "function"
    },
    {
      "inputs": [],
      "name": "underlyingContest",
      "outputs": [
        {
          "internalType": "contract GovernorCountingSimple",
          "name": "",
          "type": "address"
        }
      ],
      "stateMutability": "view",
      "type": "function"
    },
    {
      "inputs": [],
      "name": "version",
      "outputs": [
        {
          "internalType": "string",
          "name": "",
          "type": "string"
        }
      ],
      "stateMutability": "view",
      "type": "function"
    },
    {
      "inputs": [
        {
          "internalType": "contract IERC20",
          "name": "token",
          "type": "address"
        }
      ],
      "name": "withdrawRewards",
      "outputs": [],
      "stateMutability": "nonpayable",
      "type": "function"
    },
    {
      "inputs": [],
      "name": "withdrawRewards",
      "outputs": [],
      "stateMutability": "nonpayable",
      "type": "function"
    },
    {
      "stateMutability": "payable",
      "type": "receive"
    }
  ],
  "bytecode": {
    "object": "0x6080604052604051620022bc380380620022bc833981016040819052620000269162000411565b8251845114620000965760405162461bcd60e51b815260206004820152603060248201527f526577617264734d6f64756c653a2070617965657320616e642073686172657360448201526f040d8cadccee8d040dad2e6dac2e8c6d60831b60648201526084015b60405180910390fd5b6000845111620000e95760405162461bcd60e51b815260206004820152601860248201527f526577617264734d6f64756c653a206e6f20706179656573000000000000000060448201526064016200008d565b60005b84518110156200015557620001408582815181106200010f576200010f620004b6565b60200260200101518583815181106200012c576200012c620004b6565b60200260200101516200019f60201b60201c565b806200014c81620004e2565b915050620000ec565b5060088054600780546001600160a01b039095166001600160a01b0319958616179055911515600160a01b02929092166001600160a81b03199091161733179055506200051a9050565b60008211620002065760405162461bcd60e51b815260206004820152602c60248201527f526577617264734d6f64756c653a2072616e6b696e6720697320302c206d757360448201526b3a1031329033b932b0ba32b960a11b60648201526084016200008d565b60008111620002585760405162461bcd60e51b815260206004820152601b60248201527f526577617264734d6f64756c653a20736861726573206172652030000000000060448201526064016200008d565b60008281526002602052604090205415620002c85760405162461bcd60e51b815260206004820152602960248201527f526577617264734d6f64756c653a206163636f756e7420616c7265616479206860448201526861732073686172657360b81b60648201526084016200008d565b60048054600181019091557f8a35acfbc15ff81a39ae7d344fd709f28e8600b4aa8c65c6b64bfe7fe36bd19b0182905560008281526002602052604081208290555462000317908290620004fe565b60005560408051838152602081018390527f78bc0e219b874bf2620f7316737ec16d4bda1bb7136961e4dcb5ff0dc031cee4910160405180910390a15050565b634e487b7160e01b600052604160045260246000fd5b600082601f8301126200037f57600080fd5b815160206001600160401b03808311156200039e576200039e62000357565b8260051b604051601f19603f83011681018181108482111715620003c657620003c662000357565b604052938452858101830193838101925087851115620003e557600080fd5b83870191505b848210156200040657815183529183019190830190620003eb565b979650505050505050565b600080600080608085870312156200042857600080fd5b84516001600160401b03808211156200044057600080fd5b6200044e888389016200036d565b955060208701519150808211156200046557600080fd5b5062000474878288016200036d565b604087015190945090506001600160a01b03811681146200049457600080fd5b60608601519092508015158114620004ab57600080fd5b939692955090935050565b634e487b7160e01b600052603260045260246000fd5b634e487b7160e01b600052601160045260246000fd5b600060018201620004f757620004f7620004cc565b5060010190565b80820180821115620005145762000514620004cc565b92915050565b611d92806200052a6000396000f3fe6080604052600436106101025760003560e01c806354fd4d5011610095578063cfe8307011610064578063cfe830701461030f578063d79779b214610352578063e33b7de314610388578063e4bf01a81461039d578063f3f44fb7146103bd57600080fd5b806354fd4d501461026e57806357a858fc146102a0578063a94d373b146102cd578063c7b8981c146102fa57600080fd5b806327f38113116100d157806327f38113146101f757806337bdc99b146102195780633a98ef391461023957806342d866931461024e57600080fd5b806302d05d3f146101465780630357371d1461017d5780631e5b46341461019f5780632081d631146101c957600080fd5b3661014157604080513381523460208201527f6ef95f06320e7a25a04a175ca677b7052bdd97131872c2192525a629f51be770910160405180910390a1005b600080fd5b34801561015257600080fd5b506008546001600160a01b03165b6040516001600160a01b0390911681526020015b60405180910390f35b34801561018957600080fd5b5061019d610198366004611582565b6103db565b005b3480156101ab57600080fd5b50600854600160a01b900460ff166040519015158152602001610174565b3480156101d557600080fd5b506101e96101e4366004611582565b610943565b604051908152602001610174565b34801561020357600080fd5b5061020c610a13565b60405161017491906115ae565b34801561022557600080fd5b5061019d6102343660046115f2565b610a6b565b34801561024557600080fd5b506000546101e9565b34801561025a57600080fd5b5061019d61026936600461160b565b610fa3565b34801561027a57600080fd5b5060408051808201825260038152620665c760eb1b60208201529051610174919061164c565b3480156102ac57600080fd5b506101e96102bb3660046115f2565b60009081526002602052604090205490565b3480156102d957600080fd5b506101e96102e83660046115f2565b60009081526003602052604090205490565b34801561030657600080fd5b5061019d611107565b34801561031b57600080fd5b506101e961032a366004611582565b6001600160a01b03919091166000908152600660209081526040808320938352929052205490565b34801561035e57600080fd5b506101e961036d36600461160b565b6001600160a01b031660009081526005602052604090205490565b34801561039457600080fd5b506001546101e9565b3480156103a957600080fd5b506101e96103b83660046115f2565b61118e565b3480156103c957600080fd5b506007546001600160a01b0316610160565b806000036104045760405162461bcd60e51b81526004016103fb9061167f565b60405180910390fd5b6007546040805163c19d93fb60e01b815290516004926001600160a01b03169163c19d93fb918185019160209190819003860181865afa15801561044c573d6000803e3d6000fd5b505050506040513d601f19601f8201168201806040525081019061047091906116e0565b6004811115610481576104816116ca565b1461049e5760405162461bcd60e51b81526004016103fb90611701565b6000818152600260205260409020546104c95760405162461bcd60e51b81526004016103fb9061176a565b60006104d58383610943565b9050806000036104f75760405162461bcd60e51b81526004016103fb906117ae565b6001600160a01b0383166000908152600560205260408120805483929061051f908490611854565b90915550506001600160a01b038084166000908152600660209081526040808320868452825291829020805485019055600754825163d889161960e01b8152925193169263d88916199260048082019392918290030181865afa15801561058a573d6000803e3d6000fd5b505050506040513d601f19601f820116820180604052508101906105ae919061187c565b61061b57600760009054906101000a90046001600160a01b03166001600160a01b03166396f0e9626040518163ffffffff1660e01b8152600401600060405180830381600087803b15801561060257600080fd5b505af1158015610616573d6000803e3d6000fd5b505050505b600760009054906101000a90046001600160a01b03166001600160a01b0316636ca1a2c76040518163ffffffff1660e01b8152600401602060405180830381865afa15801561066e573d6000803e3d6000fd5b505050506040513d601f19601f820116820180604052508101906106929190611897565b8211156106b15760405162461bcd60e51b81526004016103fb906118b0565b600754604080516308a9cd5560e41b815290516000926001600160a01b03169163c7f758a8918391638a9cd55091600480830192889291908290030181865afa158015610702573d6000803e3d6000fd5b505050506040513d6000823e601f3d908101601f1916820160405261072a91908101906119f4565b600754604051631cbd6b4960e31b8152600481018890526001600160a01b039091169063e5eb5a4890602401602060405180830381865afa158015610773573d6000803e3d6000fd5b505050506040513d601f19601f820116820180604052508101906107979190611897565b815181106107a7576107a7611a7f565b60200260200101516040518263ffffffff1660e01b81526004016107cd91815260200190565b600060405180830381865afa1580156107ea573d6000803e3d6000fd5b505050506040513d6000823e601f3d908101601f191682016040526108129190810190611b94565b90506000600760009054906101000a90046001600160a01b03166001600160a01b031663ebc18b9b6040518163ffffffff1660e01b8152600401602060405180830381865afa158015610869573d6000803e3d6000fd5b505050506040513d601f19601f8201168201806040525081019061088d9190611897565b84106108a4576008546001600160a01b03166108c3565b600854600160a01b900460ff166108bc5781516108c3565b6060820151515b90506001600160a01b0381166108eb5760405162461bcd60e51b81526004016103fb90611caa565b6108f68582856111c8565b604080516001600160a01b038381168252602082018690528716917f3be5b7a71e84ed12875d241991c70855ac5817d847039e17a9d895c1ceb0f18a910160405180910390a25050505050565b6001600160a01b03821660009081526005602052604081205481906040516370a0823160e01b81523060048201526001600160a01b038616906370a0823190602401602060405180830381865afa1580156109a2573d6000803e3d6000fd5b505050506040513d601f19601f820116820180604052508101906109c69190611897565b6109d09190611854565b9050610a098382610a0487876001600160a01b03919091166000908152600660209081526040808320938352929052205490565b61121f565b9150505b92915050565b60606004805480602002602001604051908101604052809291908181526020018280548015610a6157602002820191906000526020600020905b815481526020019060010190808311610a4d575b5050505050905090565b80600003610a8b5760405162461bcd60e51b81526004016103fb9061167f565b6007546040805163c19d93fb60e01b815290516004926001600160a01b03169163c19d93fb918185019160209190819003860181865afa158015610ad3573d6000803e3d6000fd5b505050506040513d601f19601f82011682018060405250810190610af791906116e0565b6004811115610b0857610b086116ca565b14610b255760405162461bcd60e51b81526004016103fb90611701565b600081815260026020526040902054610b505760405162461bcd60e51b81526004016103fb9061176a565b6000610b5b8261118e565b905080600003610b7d5760405162461bcd60e51b81526004016103fb906117ae565b8060016000828254610b8f9190611854565b9091555050600082815260036020908152604091829020805484019055600754825163d889161960e01b815292516001600160a01b039091169263d88916199260048083019391928290030181865afa158015610bf0573d6000803e3d6000fd5b505050506040513d601f19601f82011682018060405250810190610c14919061187c565b610c8157600760009054906101000a90046001600160a01b03166001600160a01b03166396f0e9626040518163ffffffff1660e01b8152600401600060405180830381600087803b158015610c6857600080fd5b505af1158015610c7c573d6000803e3d6000fd5b505050505b600760009054906101000a90046001600160a01b03166001600160a01b0316636ca1a2c76040518163ffffffff1660e01b8152600401602060405180830381865afa158015610cd4573d6000803e3d6000fd5b505050506040513d601f19601f82011682018060405250810190610cf89190611897565b821115610d175760405162461bcd60e51b81526004016103fb906118b0565b600754604080516308a9cd5560e41b815290516000926001600160a01b03169163c7f758a8918391638a9cd55091600480830192889291908290030181865afa158015610d68573d6000803e3d6000fd5b505050506040513d6000823e601f3d908101601f19168201604052610d9091908101906119f4565b600754604051631cbd6b4960e31b8152600481018890526001600160a01b039091169063e5eb5a4890602401602060405180830381865afa158015610dd9573d6000803e3d6000fd5b505050506040513d601f19601f82011682018060405250810190610dfd9190611897565b81518110610e0d57610e0d611a7f565b60200260200101516040518263ffffffff1660e01b8152600401610e3391815260200190565b600060405180830381865afa158015610e50573d6000803e3d6000fd5b505050506040513d6000823e601f3d908101601f19168201604052610e789190810190611b94565b90506000600760009054906101000a90046001600160a01b03166001600160a01b031663ebc18b9b6040518163ffffffff1660e01b8152600401602060405180830381865afa158015610ecf573d6000803e3d6000fd5b505050506040513d601f19601f82011682018060405250810190610ef39190611897565b8410610f0a576008546001600160a01b0316610f29565b600854600160a01b900460ff16610f22578151610f29565b6060820151515b90506001600160a01b038116610f515760405162461bcd60e51b81526004016103fb90611caa565b610f5b8184611259565b604080516001600160a01b0383168152602081018590527fdf20fd1e76bc69d672e4814fafb2c449bba3a5369d8359adf9e05e6fde87b056910160405180910390a150505050565b6008546001600160a01b03163314610fba57600080fd5b61103d81610fd06008546001600160a01b031690565b6040516370a0823160e01b81523060048201526001600160a01b038516906370a0823190602401602060405180830381865afa158015611014573d6000803e3d6000fd5b505050506040513d601f19601f820116820180604052508101906110389190611897565b6111c8565b806001600160a01b03167f6e5fc1cbd1629d9837bd657d23cf585bbc4e9127184972606cc4c0dd406f757261107a6008546001600160a01b031690565b6040516370a0823160e01b81523060048201526001600160a01b038516906370a0823190602401602060405180830381865afa1580156110be573d6000803e3d6000fd5b505050506040513d601f19601f820116820180604052508101906110e29190611897565b604080516001600160a01b03909316835260208301919091520160405180910390a250565b6008546001600160a01b0316331461111e57600080fd5b6111396111336008546001600160a01b031690565b47611259565b7f1d3eee4ca001cff39eec6ec7615aacf2f2bd61791273830728ba00ccbd6e133761116c6008546001600160a01b031690565b604080516001600160a01b0390921682524760208301520160405180910390a1565b60008061119a60015490565b6111a49047611854565b90506111c18382610a048660009081526003602052604090205490565b9392505050565b604080516001600160a01b038416602482015260448082018490528251808303909101815260649091019091526020810180516001600160e01b031663a9059cbb60e01b17905261121a908490611372565b505050565b600080548482526002602052604082205483919061123d9086611cf4565b6112479190611d0b565b6112519190611d2d565b949350505050565b804710156112a95760405162461bcd60e51b815260206004820152601d60248201527f416464726573733a20696e73756666696369656e742062616c616e636500000060448201526064016103fb565b6000826001600160a01b03168260405160006040518083038185875af1925050503d80600081146112f6576040519150601f19603f3d011682016040523d82523d6000602084013e6112fb565b606091505b505090508061121a5760405162461bcd60e51b815260206004820152603a60248201527f416464726573733a20756e61626c6520746f2073656e642076616c75652c207260448201527f6563697069656e74206d6179206861766520726576657274656400000000000060648201526084016103fb565b60006113c7826040518060400160405280602081526020017f5361666545524332303a206c6f772d6c6576656c2063616c6c206661696c6564815250856001600160a01b03166114479092919063ffffffff16565b90508051600014806113e85750808060200190518101906113e8919061187c565b61121a5760405162461bcd60e51b815260206004820152602a60248201527f5361666545524332303a204552433230206f7065726174696f6e20646964206e6044820152691bdd081cdd58d8d9595960b21b60648201526084016103fb565b6060611251848460008585600080866001600160a01b0316858760405161146e9190611d40565b60006040518083038185875af1925050503d80600081146114ab576040519150601f19603f3d011682016040523d82523d6000602084013e6114b0565b606091505b50915091506114c1878383876114cc565b979650505050505050565b6060831561153b578251600003611534576001600160a01b0385163b6115345760405162461bcd60e51b815260206004820152601d60248201527f416464726573733a2063616c6c20746f206e6f6e2d636f6e747261637400000060448201526064016103fb565b5081611251565b61125183838151156115505781518083602001fd5b8060405162461bcd60e51b81526004016103fb919061164c565b6001600160a01b038116811461157f57600080fd5b50565b6000806040838503121561159557600080fd5b82356115a08161156a565b946020939093013593505050565b6020808252825182820181905260009190848201906040850190845b818110156115e6578351835292840192918401916001016115ca565b50909695505050505050565b60006020828403121561160457600080fd5b5035919050565b60006020828403121561161d57600080fd5b81356111c18161156a565b60005b8381101561164357818101518382015260200161162b565b50506000910152565b602081526000825180602084015261166b816040850160208701611628565b601f01601f19169190910160400192915050565b6020808252602b908201527f526577617264734d6f64756c653a2072616e6b696e67206d757374206265203160408201526a1037b91033b932b0ba32b960a91b606082015260800190565b634e487b7160e01b600052602160045260246000fd5b6000602082840312156116f257600080fd5b8151600581106111c157600080fd5b60208082526043908201527f526577617264734d6f64756c653a20636f6e74657374206d757374206265206360408201527f6f6d706c6574656420666f72207265776172647320746f2062652070616964206060820152621bdd5d60ea1b608082015260a00190565b60208082526024908201527f526577617264734d6f64756c653a2072616e6b696e6720686173206e6f2073686040820152636172657360e01b606082015260800190565b60208082526064908201527f526577617264734d6f64756c653a206163636f756e742069736e27742064756560408201527f207061796d656e742061732074686572652069736e277420616e79206e61746960608201527f76652063757272656e637920696e20746865206d6f64756c6520746f20706179608082015263081bdd5d60e21b60a082015260c00190565b634e487b7160e01b600052601160045260246000fd5b80820180821115610a0d57610a0d61183e565b8051801515811461187757600080fd5b919050565b60006020828403121561188e57600080fd5b6111c182611867565b6000602082840312156118a957600080fd5b5051919050565b60208082526061908201527f526577617264734d6f64756c653a20746865726520617265206e6f7420656e6f60408201527f7567682070726f706f73616c7320666f7220746861742072616e6b696e67207460608201527f6f2065786973742c2074616b696e67207469657320696e746f206163636f756e6080820152601d60fa1b60a082015260c00190565b634e487b7160e01b600052604160045260246000fd5b6040805190810167ffffffffffffffff811182821017156119765761197661193d565b60405290565b60405160a0810167ffffffffffffffff811182821017156119765761197661193d565b604051601f8201601f1916810167ffffffffffffffff811182821017156119c8576119c861193d565b604052919050565b600067ffffffffffffffff8211156119ea576119ea61193d565b5060051b60200190565b60006020808385031215611a0757600080fd5b825167ffffffffffffffff811115611a1e57600080fd5b8301601f81018513611a2f57600080fd5b8051611a42611a3d826119d0565b61199f565b81815260059190911b82018301908381019087831115611a6157600080fd5b928401925b828410156114c157835182529284019290840190611a66565b634e487b7160e01b600052603260045260246000fd5b600060208284031215611aa757600080fd5b6040516020810181811067ffffffffffffffff82111715611aca57611aca61193d565b80604052508091508251611add8161156a565b905292915050565b600060408284031215611af757600080fd5b611aff611953565b9050815167ffffffffffffffff811115611b1857600080fd5b8201601f81018413611b2957600080fd5b80516020611b39611a3d836119d0565b82815260059290921b83018101918181019087841115611b5857600080fd5b938201935b83851015611b7f578451611b708161156a565b82529382019390820190611b5d565b85525093840151938301939093525092915050565b60006020808385031215611ba757600080fd5b825167ffffffffffffffff80821115611bbf57600080fd5b9084019060a08287031215611bd357600080fd5b611bdb61197c565b8251611be68161156a565b8152611bf3838501611867565b84820152604083015182811115611c0957600080fd5b8301601f81018813611c1a57600080fd5b805183811115611c2c57611c2c61193d565b611c3e601f8201601f1916870161199f565b8181528987838501011115611c5257600080fd5b611c6182888301898601611628565b604084015250611c7690508760608501611a95565b60608201526080830151935081841115611c8f57600080fd5b611c9b87858501611ae5565b60808201529695505050505050565b6020808252602a908201527f526577617264734d6f64756c653a206163636f756e7420697320746865207a65604082015269726f206164647265737360b01b606082015260800190565b8082028115828204841417610a0d57610a0d61183e565b600082611d2857634e487b7160e01b600052601260045260246000fd5b500490565b81810381811115610a0d57610a0d61183e565b60008251611d52818460208701611628565b919091019291505056fea2646970667358221220839b91062f2da9dcbd8d0ff1d74bf24de36690c80f33c9b92a20c9afed7a0a1a64736f6c63430008130033",
    "linkReferences": {}
  },
  "methodIdentifiers": {
    "creator()": "02d05d3f",
    "getPayees()": "27f38113",
    "paysOutTarget()": "1e5b4634",
    "releasable(address,uint256)": "2081d631",
    "releasable(uint256)": "e4bf01a8",
    "release(address,uint256)": "0357371d",
    "release(uint256)": "37bdc99b",
    "released(address,uint256)": "cfe83070",
    "released(uint256)": "a94d373b",
    "shares(uint256)": "57a858fc",
    "totalReleased()": "e33b7de3",
    "totalReleased(address)": "d79779b2",
    "totalShares()": "3a98ef39",
    "underlyingContest()": "f3f44fb7",
    "version()": "54fd4d50",
    "withdrawRewards()": "c7b8981c",
    "withdrawRewards(address)": "42d86693"
  },
  "id": 48
}