{"abi":[{"type":"constructor","inputs":[{"name":"payees_","type":"uint256[]","internalType":"uint256[]"},{"name":"shares_","type":"uint256[]","internalType":"uint256[]"},{"name":"underlyingContest_","type":"address","internalType":"contract GovernorCountingSimple"},{"name":"paysOutTarget_","type":"bool","internalType":"bool"}],"stateMutability":"payable"},{"type":"receive","stateMutability":"payable"},{"type":"function","name":"MODULE_TYPE","inputs":[],"outputs":[{"name":"","type":"string","internalType":"string"}],"stateMutability":"view"},{"type":"function","name":"cancel","inputs":[],"outputs":[],"stateMutability":"nonpayable"},{"type":"function","name":"canceled","inputs":[],"outputs":[{"name":"","type":"bool","internalType":"bool"}],"stateMutability":"view"},{"type":"function","name":"creator","inputs":[],"outputs":[{"name":"","type":"address","internalType":"address"}],"stateMutability":"view"},{"type":"function","name":"erc20Released","inputs":[{"name":"","type":"address","internalType":"contract IERC20"},{"name":"","type":"uint256","internalType":"uint256"}],"outputs":[{"name":"","type":"uint256","internalType":"uint256"}],"stateMutability":"view"},{"type":"function","name":"erc20TotalReleased","inputs":[{"name":"","type":"address","internalType":"contract IERC20"}],"outputs":[{"name":"","type":"uint256","internalType":"uint256"}],"stateMutability":"view"},{"type":"function","name":"getAddressToPayOut","inputs":[{"name":"ranking","type":"uint256","internalType":"uint256"}],"outputs":[{"name":"","type":"address","internalType":"address"}],"stateMutability":"view"},{"type":"function","name":"getPayees","inputs":[],"outputs":[{"name":"","type":"uint256[]","internalType":"uint256[]"}],"stateMutability":"view"},{"type":"function","name":"getProposalIdOfRanking","inputs":[{"name":"ranking","type":"uint256","internalType":"uint256"}],"outputs":[{"name":"","type":"uint256","internalType":"uint256"}],"stateMutability":"view"},{"type":"function","name":"getUnderlyingContest","inputs":[],"outputs":[{"name":"","type":"address","internalType":"contract GovernorCountingSimple"}],"stateMutability":"view"},{"type":"function","name":"payees","inputs":[{"name":"","type":"uint256","internalType":"uint256"}],"outputs":[{"name":"","type":"uint256","internalType":"uint256"}],"stateMutability":"view"},{"type":"function","name":"paysOutTarget","inputs":[],"outputs":[{"name":"","type":"bool","internalType":"bool"}],"stateMutability":"view"},{"type":"function","name":"releasable","inputs":[{"name":"token","type":"address","internalType":"contract IERC20"},{"name":"ranking","type":"uint256","internalType":"uint256"}],"outputs":[{"name":"","type":"uint256","internalType":"uint256"}],"stateMutability":"view"},{"type":"function","name":"releasable","inputs":[{"name":"ranking","type":"uint256","internalType":"uint256"}],"outputs":[{"name":"","type":"uint256","internalType":"uint256"}],"stateMutability":"view"},{"type":"function","name":"release","inputs":[{"name":"token","type":"address","internalType":"contract IERC20"},{"name":"ranking","type":"uint256","internalType":"uint256"}],"outputs":[],"stateMutability":"nonpayable"},{"type":"function","name":"release","inputs":[{"name":"ranking","type":"uint256","internalType":"uint256"}],"outputs":[],"stateMutability":"nonpayable"},{"type":"function","name":"released","inputs":[{"name":"","type":"uint256","internalType":"uint256"}],"outputs":[{"name":"","type":"uint256","internalType":"uint256"}],"stateMutability":"view"},{"type":"function","name":"runReleaseChecks","inputs":[{"name":"ranking","type":"uint256","internalType":"uint256"}],"outputs":[],"stateMutability":"view"},{"type":"function","name":"shares","inputs":[{"name":"","type":"uint256","internalType":"uint256"}],"outputs":[{"name":"","type":"uint256","internalType":"uint256"}],"stateMutability":"view"},{"type":"function","name":"totalReleased","inputs":[],"outputs":[{"name":"","type":"uint256","internalType":"uint256"}],"stateMutability":"view"},{"type":"function","name":"totalShares","inputs":[],"outputs":[{"name":"","type":"uint256","internalType":"uint256"}],"stateMutability":"view"},{"type":"function","name":"underlyingContest","inputs":[],"outputs":[{"name":"","type":"address","internalType":"contract GovernorCountingSimple"}],"stateMutability":"view"},{"type":"function","name":"version","inputs":[],"outputs":[{"name":"","type":"string","internalType":"string"}],"stateMutability":"pure"},{"type":"function","name":"withdrawRewards","inputs":[{"name":"token","type":"address","internalType":"contract IERC20"}],"outputs":[],"stateMutability":"nonpayable"},{"type":"function","name":"withdrawRewards","inputs":[],"outputs":[],"stateMutability":"nonpayable"},{"type":"event","name":"ERC20PaymentReleased","inputs":[{"name":"token","type":"address","indexed":true,"internalType":"contract IERC20"},{"name":"to","type":"address","indexed":false,"internalType":"address"},{"name":"amount","type":"uint256","indexed":false,"internalType":"uint256"}],"anonymous":false},{"type":"event","name":"ERC20RewardWithdrawn","inputs":[{"name":"token","type":"address","indexed":true,"internalType":"contract IERC20"},{"name":"by","type":"address","indexed":false,"internalType":"address"},{"name":"amount","type":"uint256","indexed":false,"internalType":"uint256"}],"anonymous":false},{"type":"event","name":"JokeraceRewardsModuleCreated","inputs":[{"name":"version","type":"string","indexed":false,"internalType":"string"},{"name":"underlyingContest","type":"address","indexed":false,"internalType":"address"}],"anonymous":false},{"type":"event","name":"PayeeAdded","inputs":[{"name":"ranking","type":"uint256","indexed":false,"internalType":"uint256"},{"name":"shares","type":"uint256","indexed":false,"internalType":"uint256"}],"anonymous":false},{"type":"event","name":"PaymentReceived","inputs":[{"name":"from","type":"address","indexed":false,"internalType":"address"},{"name":"amount","type":"uint256","indexed":false,"internalType":"uint256"}],"anonymous":false},{"type":"event","name":"PaymentReleased","inputs":[{"name":"to","type":"address","indexed":false,"internalType":"address"},{"name":"amount","type":"uint256","indexed":false,"internalType":"uint256"}],"anonymous":false},{"type":"event","name":"RewardWithdrawn","inputs":[{"name":"by","type":"address","indexed":false,"internalType":"address"},{"name":"amount","type":"uint256","indexed":false,"internalType":"uint256"}],"anonymous":false},{"type":"error","name":"AccountAlreadyHasShares","inputs":[]},{"type":"error","name":"AccountNotDueERC20Payment","inputs":[]},{"type":"error","name":"AccountNotDueNativePayment","inputs":[]},{"type":"error","name":"CannotPayOutToZeroAddress","inputs":[]},{"type":"error","name":"CannotReleaseCanceledModule","inputs":[]},{"type":"error","name":"ContestMustBeCompleted","inputs":[]},{"type":"error","name":"MustBeCanceledToWithdraw","inputs":[]},{"type":"error","name":"MustHaveAtLeastOnePayee","inputs":[]},{"type":"error","name":"MustHaveSortingEnabled","inputs":[]},{"type":"error","name":"OnlyCreatorCanCancel","inputs":[]},{"type":"error","name":"OnlyCreatorCanWithdraw","inputs":[]},{"type":"error","name":"PayeesSharesLengthMismatch","inputs":[]},{"type":"error","name":"PayoutRankCannotBeZero","inputs":[]},{"type":"error","name":"RankingCannotBeZero","inputs":[]},{"type":"error","name":"RankingHasNoShares","inputs":[]},{"type":"error","name":"SharesCannotBeZero","inputs":[]},{"type":"error","name":"TotalSharesCannotBeZero","inputs":[]}],"bytecode":{"object":"0x608060405260405162001ef338038062001ef3833981016040819052620000269162000356565b825184511462000049576040516324e23b4160e01b815260040160405180910390fd5b83516000036200006c57604051634c87c40160e01b815260040160405180910390fd5b60005b8451811015620000d857620000c3858281518110620000925762000092620003fb565b6020026020010151858381518110620000af57620000af620003fb565b60200260200101516200019b60201b60201c565b80620000cf8162000427565b9150506200006f565b50600054600003620000fd576040516306db759b60e21b815260040160405180910390fd5b60088054600780546001600160a01b0386166001600160a01b03199182168117909255841515600160a01b02166001600160a81b031990921691909117331790915560408051808201825260048152630352e31360e41b602082015290517fa662062e2d40c0f20e19ab134a030b70e07ff1fd98a93cf375bd3972c285a2c79262000189929162000443565b60405180910390a150505050620004c1565b81600003620001bd5760405163d6fbfe2560e01b815260040160405180910390fd5b80600003620001df57604051633122bc0960e21b815260040160405180910390fd5b600082815260026020526040902054156200020d57604051637b4f7fb560e01b815260040160405180910390fd5b60048054600181019091557f8a35acfbc15ff81a39ae7d344fd709f28e8600b4aa8c65c6b64bfe7fe36bd19b018290556000828152600260205260408120829055546200025c908290620004a5565b60005560408051838152602081018390527f78bc0e219b874bf2620f7316737ec16d4bda1bb7136961e4dcb5ff0dc031cee4910160405180910390a15050565b634e487b7160e01b600052604160045260246000fd5b600082601f830112620002c457600080fd5b815160206001600160401b0380831115620002e357620002e36200029c565b8260051b604051601f19603f830116810181811084821117156200030b576200030b6200029c565b6040529384528581018301938381019250878511156200032a57600080fd5b83870191505b848210156200034b5781518352918301919083019062000330565b979650505050505050565b600080600080608085870312156200036d57600080fd5b84516001600160401b03808211156200038557600080fd5b6200039388838901620002b2565b95506020870151915080821115620003aa57600080fd5b50620003b987828801620002b2565b604087015190945090506001600160a01b0381168114620003d957600080fd5b60608601519092508015158114620003f057600080fd5b939692955090935050565b634e487b7160e01b600052603260045260246000fd5b634e487b7160e01b600052601160045260246000fd5b6000600182016200043c576200043c62000411565b5060010190565b604081526000835180604084015260005b8181101562000473576020818701810151606086840101520162000454565b50600060608285018101919091526001600160a01b03949094166020840152601f01601f191690910190910192915050565b80820180821115620004bb57620004bb62000411565b92915050565b611a2280620004d16000396000f3fe60806040526004361061016a5760003560e01c806354fd4d50116100d1578063a94d373b1161008a578063e33b7de311610064578063e33b7de3146104e7578063e4bf01a8146104fd578063ea8a1af01461051d578063f3f44fb71461053257600080fd5b8063a94d373b14610485578063c7104046146104b2578063c7b8981c146104d257600080fd5b806354fd4d501461038a5780635775029f146103c057806357a858fc146103fa57806363037b0c14610427578063828ce44b1461044757806396f7ff6e1461046557600080fd5b806337bdc99b1161012357806337bdc99b146102bb5780633a98ef39146102db5780633f9942ff146102f157806342d86693146103125780634b9453381461033257806351f63e351461036a57600080fd5b806302d05d3f146101ae5780630357371d146101eb5780631e5b46341461020d5780632081d6311461023e57806327f381131461026c5780633375bbdc1461028e57600080fd5b366101a957604080513381523460208201527f6ef95f06320e7a25a04a175ca677b7052bdd97131872c2192525a629f51be770910160405180910390a1005b600080fd5b3480156101ba57600080fd5b506008546101ce906001600160a01b031681565b6040516001600160a01b0390911681526020015b60405180910390f35b3480156101f757600080fd5b5061020b61020636600461133d565b610552565b005b34801561021957600080fd5b5060085461022e90600160a01b900460ff1681565b60405190151581526020016101e2565b34801561024a57600080fd5b5061025e61025936600461133d565b610669565b6040519081526020016101e2565b34801561027857600080fd5b5061028161072b565b6040516101e29190611369565b34801561029a57600080fd5b5061025e6102a93660046113ad565b60056020526000908152604090205481565b3480156102c757600080fd5b5061020b6102d63660046113ca565b610783565b3480156102e757600080fd5b5061025e60005481565b3480156102fd57600080fd5b5060085461022e90600160a81b900460ff1681565b34801561031e57600080fd5b5061020b61032d3660046113ad565b610868565b34801561033e57600080fd5b5061025e61034d36600461133d565b600660209081526000928352604080842090915290825290205481565b34801561037657600080fd5b5061025e6103853660046113ca565b6109f4565b34801561039657600080fd5b506040805180820190915260048152630352e31360e41b60208201525b6040516101e29190611407565b3480156103cc57600080fd5b506103b36040518060400160405280600e81526020016d415554484f525f5245574152445360901b81525081565b34801561040657600080fd5b5061025e6104153660046113ca565b60026020526000908152604090205481565b34801561043357600080fd5b5061025e6104423660046113ca565b610bc9565b34801561045357600080fd5b506007546001600160a01b03166101ce565b34801561047157600080fd5b506101ce6104803660046113ca565b610bea565b34801561049157600080fd5b5061025e6104a03660046113ca565b60036020526000908152604090205481565b3480156104be57600080fd5b5061020b6104cd3660046113ca565b610caf565b3480156104de57600080fd5b5061020b610e5f565b3480156104f357600080fd5b5061025e60015481565b34801561050957600080fd5b5061025e6105183660046113ca565b610f16565b34801561052957600080fd5b5061020b610f4e565b34801561053e57600080fd5b506007546101ce906001600160a01b031681565b61055b81610caf565b60006105678383610669565b90508060000361058a57604051635fe559bd60e01b815260040160405180910390fd5b6001600160a01b038316600090815260056020526040812080548392906105b2908490611450565b90915550506001600160a01b038316600090815260066020908152604080832085845290915281208054830190556105e983610bea565b90506001600160a01b038116610612576040516346a3c2f960e01b815260040160405180910390fd5b604080516001600160a01b038381168252602082018590528616917f3be5b7a71e84ed12875d241991c70855ac5817d847039e17a9d895c1ceb0f18a910160405180910390a2610663848284610f8e565b50505050565b6001600160a01b0382166000818152600560205260408082205490516370a0823160e01b8152306004820152919283926370a0823190602401602060405180830381865afa1580156106bf573d6000803e3d6000fd5b505050506040513d601f19601f820116820180604052508101906106e39190611463565b6106ed9190611450565b6001600160a01b03851660009081526006602090815260408083208784529091529020549091506107219084908390610fe0565b9150505b92915050565b6060600480548060200260200160405190810160405280929190818152602001828054801561077957602002820191906000526020600020905b815481526020019060010190808311610765575b5050505050905090565b61078c81610caf565b600061079782610f16565b9050806000036107ba57604051631d1514e960e21b815260040160405180910390fd5b80600160008282546107cc9190611450565b909155505060008281526003602052604081208054830190556107ee83610bea565b90506001600160a01b038116610817576040516346a3c2f960e01b815260040160405180910390fd5b604080516001600160a01b0383168152602081018490527fdf20fd1e76bc69d672e4814fafb2c449bba3a5369d8359adf9e05e6fde87b056910160405180910390a16108638183611012565b505050565b6008546001600160a01b0316331461089357604051631eab0da960e01b815260040160405180910390fd5b600854600160a81b900460ff1615156001146108c257604051633871a85960e21b815260040160405180910390fd5b6008546040516370a0823160e01b81523060048201526001600160a01b03838116927f6e5fc1cbd1629d9837bd657d23cf585bbc4e9127184972606cc4c0dd406f75729291169083906370a0823190602401602060405180830381865afa158015610931573d6000803e3d6000fd5b505050506040513d601f19601f820116820180604052508101906109559190611463565b604080516001600160a01b03909316835260208301919091520160405180910390a26008546040516370a0823160e01b81523060048201526109f19183916001600160a01b03918216918316906370a0823190602401602060405180830381865afa1580156109c8573d6000803e3d6000fd5b505050506040513d601f19601f820116820180604052508101906109ec9190611463565b610f8e565b50565b600754604051630b8e20fb60e31b815260048101839052600091829182916001600160a01b031690635c7107d890602401602060405180830381865afa158015610a42573d6000803e3d6000fd5b505050506040513d601f19601f82011682018060405250810190610a669190611463565b60075460405163245d1de360e21b8152600481018390529192506001600160a01b031690639174778c90602401602060405180830381865afa158015610ab0573d6000803e3d6000fd5b505050506040513d601f19601f82011682018060405250810190610ad49190611491565b15610ae25760009150610bc2565b60075460405163325cc6d960e01b8152600481018390526000916001600160a01b03169063325cc6d990602401602060405180830381865afa158015610b2c573d6000803e3d6000fd5b505050506040513d601f19601f82011682018060405250810190610b509190611463565b60075460405163d576b81d60e01b8152600481018390529192506001600160a01b03169063d576b81d90602401602060405180830381865afa158015610b9a573d6000803e3d6000fd5b505050506040513d601f19601f82011682018060405250810190610bbe9190611463565b9250505b5092915050565b60048181548110610bd957600080fd5b600091825260209091200154905081565b600080610bf6836109f4565b905080600003610c135750506008546001600160a01b0316919050565b6007546040516318feeb1560e31b8152600481018390526000916001600160a01b03169063c7f758a890602401600060405180830381865afa158015610c5d573d6000803e3d6000fd5b505050506040513d6000823e601f3d908101601f19168201604052610c859190810190611864565b600854909150600160a01b900460ff16610ca0578051610ca7565b6060810151515b949350505050565b600760009054906101000a90046001600160a01b03166001600160a01b031663366ecf5b6040518163ffffffff1660e01b8152600401602060405180830381865afa158015610d02573d6000803e3d6000fd5b505050506040513d601f19601f82011682018060405250810190610d269190611463565b600114610d4657604051630fcdfffd60e41b815260040160405180910390fd5b6007546040805163c19d93fb60e01b815290516004926001600160a01b03169163c19d93fb918185019160209190819003860181865afa158015610d8e573d6000803e3d6000fd5b505050506040513d601f19601f82011682018060405250810190610db29190611963565b6004811115610dc357610dc361194d565b14610de157604051639c2d4c7960e01b815260040160405180910390fd5b80600003610e025760405163f9668e2960e01b815260040160405180910390fd5b6000818152600260205260408120549003610e3057604051632534bdfb60e11b815260040160405180910390fd5b600854600160a81b900460ff1615156001036109f15760405163e2f87cff60e01b815260040160405180910390fd5b6008546001600160a01b03163314610e8a57604051631eab0da960e01b815260040160405180910390fd5b600854600160a81b900460ff161515600114610eb957604051633871a85960e21b815260040160405180910390fd5b600854604080516001600160a01b0390921682524760208301527f1d3eee4ca001cff39eec6ec7615aacf2f2bd61791273830728ba00ccbd6e1337910160405180910390a1600854610f14906001600160a01b031647611012565b565b60008060015447610f279190611450565b9050610f4783826003600087815260200190815260200160002054610fe0565b9392505050565b6008546001600160a01b03163314610f7957604051630c06b96b60e31b815260040160405180910390fd5b6008805460ff60a81b1916600160a81b179055565b604080516001600160a01b038416602482015260448082018490528251808303909101815260649091019091526020810180516001600160e01b031663a9059cbb60e01b179052610863908490611130565b6000805484825260026020526040822054839190610ffe9086611984565b611008919061199b565b610ca791906119bd565b804710156110675760405162461bcd60e51b815260206004820152601d60248201527f416464726573733a20696e73756666696369656e742062616c616e636500000060448201526064015b60405180910390fd5b6000826001600160a01b03168260405160006040518083038185875af1925050503d80600081146110b4576040519150601f19603f3d011682016040523d82523d6000602084013e6110b9565b606091505b50509050806108635760405162461bcd60e51b815260206004820152603a60248201527f416464726573733a20756e61626c6520746f2073656e642076616c75652c207260448201527f6563697069656e74206d61792068617665207265766572746564000000000000606482015260840161105e565b6000611185826040518060400160405280602081526020017f5361666545524332303a206c6f772d6c6576656c2063616c6c206661696c6564815250856001600160a01b03166112059092919063ffffffff16565b90508051600014806111a65750808060200190518101906111a69190611491565b6108635760405162461bcd60e51b815260206004820152602a60248201527f5361666545524332303a204552433230206f7065726174696f6e20646964206e6044820152691bdd081cdd58d8d9595960b21b606482015260840161105e565b6060610ca7848460008585600080866001600160a01b0316858760405161122c91906119d0565b60006040518083038185875af1925050503d8060008114611269576040519150601f19603f3d011682016040523d82523d6000602084013e61126e565b606091505b509150915061127f8783838761128a565b979650505050505050565b606083156112f95782516000036112f2576001600160a01b0385163b6112f25760405162461bcd60e51b815260206004820152601d60248201527f416464726573733a2063616c6c20746f206e6f6e2d636f6e7472616374000000604482015260640161105e565b5081610ca7565b610ca7838381511561130e5781518083602001fd5b8060405162461bcd60e51b815260040161105e9190611407565b6001600160a01b03811681146109f157600080fd5b6000806040838503121561135057600080fd5b823561135b81611328565b946020939093013593505050565b6020808252825182820181905260009190848201906040850190845b818110156113a157835183529284019291840191600101611385565b50909695505050505050565b6000602082840312156113bf57600080fd5b8135610f4781611328565b6000602082840312156113dc57600080fd5b5035919050565b60005b838110156113fe5781810151838201526020016113e6565b50506000910152565b60208152600082518060208401526114268160408501602087016113e3565b601f01601f19169190910160400192915050565b634e487b7160e01b600052601160045260246000fd5b808201808211156107255761072561143a565b60006020828403121561147557600080fd5b5051919050565b8051801515811461148c57600080fd5b919050565b6000602082840312156114a357600080fd5b610f478261147c565b634e487b7160e01b600052604160045260246000fd5b6040516060810167ffffffffffffffff811182821017156114e5576114e56114ac565b60405290565b60405160c0810167ffffffffffffffff811182821017156114e5576114e56114ac565b604051601f8201601f1916810167ffffffffffffffff81118282101715611537576115376114ac565b604052919050565b805161148c81611328565b600082601f83011261155b57600080fd5b815167ffffffffffffffff811115611575576115756114ac565b611588601f8201601f191660200161150e565b81815284602083860101111561159d57600080fd5b610ca78260208301602087016113e3565b6000602082840312156115c057600080fd5b6040516020810181811067ffffffffffffffff821117156115e3576115e36114ac565b806040525080915082516115f681611328565b905292915050565b600067ffffffffffffffff821115611618576116186114ac565b5060051b60200190565b600082601f83011261163357600080fd5b81516020611648611643836115fe565b61150e565b82815260059290921b8401810191818101908684111561166757600080fd5b8286015b8481101561168b57805161167e81611328565b835291830191830161166b565b509695505050505050565b6000604082840312156116a857600080fd5b6040516040810167ffffffffffffffff82821081831117156116cc576116cc6114ac565b8160405282935084519150808211156116e457600080fd5b506116f185828601611622565b825250602083015160208201525092915050565b600082601f83011261171657600080fd5b81516020611726611643836115fe565b82815260059290921b8401810191818101908684111561174557600080fd5b8286015b8481101561168b5780518352918301918301611749565b60006060828403121561177257600080fd5b61177a6114c2565b9050815167ffffffffffffffff8082111561179457600080fd5b6117a085838601611622565b83526020915081840151818111156117b757600080fd5b8401601f810186136117c857600080fd5b80516117d6611643826115fe565b81815260059190911b820184019084810190888311156117f557600080fd5b8584015b8381101561182d578051868111156118115760008081fd5b61181f8b898389010161154a565b8452509186019186016117f9565b50808688015250505050604084015191508082111561184b57600080fd5b5061185884828501611705565b60408301525092915050565b60006020828403121561187657600080fd5b815167ffffffffffffffff8082111561188e57600080fd5b9083019060c082860312156118a257600080fd5b6118aa6114eb565b6118b38361153f565b81526118c16020840161147c565b60208201526040830151828111156118d857600080fd5b6118e48782860161154a565b6040830152506118f786606085016115ae565b606082015260808301518281111561190e57600080fd5b61191a87828601611696565b60808301525060a08301518281111561193257600080fd5b61193e87828601611760565b60a08301525095945050505050565b634e487b7160e01b600052602160045260246000fd5b60006020828403121561197557600080fd5b815160058110610f4757600080fd5b80820281158282048414176107255761072561143a565b6000826119b857634e487b7160e01b600052601260045260246000fd5b500490565b818103818111156107255761072561143a565b600082516119e28184602087016113e3565b919091019291505056fea2646970667358221220291cb94b529d0f4aa432f3548b75bd768fe0e2eb2bb22404cdcb3499efd6188064736f6c63430008130033","linkReferences":{}},"methodIdentifiers":{"MODULE_TYPE()":"5775029f","cancel()":"ea8a1af0","canceled()":"3f9942ff","creator()":"02d05d3f","erc20Released(address,uint256)":"4b945338","erc20TotalReleased(address)":"3375bbdc","getAddressToPayOut(uint256)":"96f7ff6e","getPayees()":"27f38113","getProposalIdOfRanking(uint256)":"51f63e35","getUnderlyingContest()":"828ce44b","payees(uint256)":"63037b0c","paysOutTarget()":"1e5b4634","releasable(address,uint256)":"2081d631","releasable(uint256)":"e4bf01a8","release(address,uint256)":"0357371d","release(uint256)":"37bdc99b","released(uint256)":"a94d373b","runReleaseChecks(uint256)":"c7104046","shares(uint256)":"57a858fc","totalReleased()":"e33b7de3","totalShares()":"3a98ef39","underlyingContest()":"f3f44fb7","version()":"54fd4d50","withdrawRewards()":"c7b8981c","withdrawRewards(address)":"42d86693"},"id":60}