{"abi":[{"type":"constructor","inputs":[{"name":"payees_","type":"uint256[]","internalType":"uint256[]"},{"name":"shares_","type":"uint256[]","internalType":"uint256[]"},{"name":"underlyingContest_","type":"address","internalType":"contract GovernorCountingSimple"}],"stateMutability":"payable"},{"type":"receive","stateMutability":"payable"},{"type":"function","name":"cancel","inputs":[],"outputs":[],"stateMutability":"nonpayable"},{"type":"function","name":"canceled","inputs":[],"outputs":[{"name":"","type":"bool","internalType":"bool"}],"stateMutability":"view"},{"type":"function","name":"creator","inputs":[],"outputs":[{"name":"","type":"address","internalType":"address"}],"stateMutability":"view"},{"type":"function","name":"erc20Released","inputs":[{"name":"","type":"address","internalType":"contract IERC20"},{"name":"","type":"uint256","internalType":"uint256"}],"outputs":[{"name":"","type":"uint256","internalType":"uint256"}],"stateMutability":"view"},{"type":"function","name":"erc20ReleasedToVoter","inputs":[{"name":"","type":"address","internalType":"contract IERC20"},{"name":"","type":"address","internalType":"address"},{"name":"","type":"uint256","internalType":"uint256"}],"outputs":[{"name":"","type":"uint256","internalType":"uint256"}],"stateMutability":"view"},{"type":"function","name":"erc20TotalReleased","inputs":[{"name":"","type":"address","internalType":"contract IERC20"}],"outputs":[{"name":"","type":"uint256","internalType":"uint256"}],"stateMutability":"view"},{"type":"function","name":"getPayees","inputs":[],"outputs":[{"name":"","type":"uint256[]","internalType":"uint256[]"}],"stateMutability":"view"},{"type":"function","name":"getProposalIdOfRanking","inputs":[{"name":"ranking","type":"uint256","internalType":"uint256"}],"outputs":[{"name":"","type":"uint256","internalType":"uint256"}],"stateMutability":"view"},{"type":"function","name":"getUnderlyingContest","inputs":[],"outputs":[{"name":"","type":"address","internalType":"contract GovernorCountingSimple"}],"stateMutability":"view"},{"type":"function","name":"payees","inputs":[{"name":"","type":"uint256","internalType":"uint256"}],"outputs":[{"name":"","type":"uint256","internalType":"uint256"}],"stateMutability":"view"},{"type":"function","name":"releasable","inputs":[{"name":"token","type":"address","internalType":"contract IERC20"},{"name":"ranking","type":"uint256","internalType":"uint256"}],"outputs":[{"name":"","type":"uint256","internalType":"uint256"}],"stateMutability":"view"},{"type":"function","name":"releasable","inputs":[{"name":"ranking","type":"uint256","internalType":"uint256"}],"outputs":[{"name":"","type":"uint256","internalType":"uint256"}],"stateMutability":"view"},{"type":"function","name":"releasableToVoter","inputs":[{"name":"token","type":"address","internalType":"contract IERC20"},{"name":"voter","type":"address","internalType":"address"},{"name":"ranking","type":"uint256","internalType":"uint256"},{"name":"proposalId","type":"uint256","internalType":"uint256"}],"outputs":[{"name":"","type":"uint256","internalType":"uint256"}],"stateMutability":"view"},{"type":"function","name":"releasableToVoter","inputs":[{"name":"voter","type":"address","internalType":"address"},{"name":"ranking","type":"uint256","internalType":"uint256"},{"name":"proposalId","type":"uint256","internalType":"uint256"}],"outputs":[{"name":"","type":"uint256","internalType":"uint256"}],"stateMutability":"view"},{"type":"function","name":"release","inputs":[{"name":"voter","type":"address","internalType":"address"},{"name":"ranking","type":"uint256","internalType":"uint256"}],"outputs":[],"stateMutability":"nonpayable"},{"type":"function","name":"release","inputs":[{"name":"token","type":"address","internalType":"contract IERC20"},{"name":"voter","type":"address","internalType":"address"},{"name":"ranking","type":"uint256","internalType":"uint256"}],"outputs":[],"stateMutability":"nonpayable"},{"type":"function","name":"released","inputs":[{"name":"","type":"uint256","internalType":"uint256"}],"outputs":[{"name":"","type":"uint256","internalType":"uint256"}],"stateMutability":"view"},{"type":"function","name":"releasedToVoter","inputs":[{"name":"","type":"address","internalType":"address"},{"name":"","type":"uint256","internalType":"uint256"}],"outputs":[{"name":"","type":"uint256","internalType":"uint256"}],"stateMutability":"view"},{"type":"function","name":"runReleaseChecks","inputs":[{"name":"ranking","type":"uint256","internalType":"uint256"}],"outputs":[],"stateMutability":"view"},{"type":"function","name":"shares","inputs":[{"name":"","type":"uint256","internalType":"uint256"}],"outputs":[{"name":"","type":"uint256","internalType":"uint256"}],"stateMutability":"view"},{"type":"function","name":"totalReleased","inputs":[],"outputs":[{"name":"","type":"uint256","internalType":"uint256"}],"stateMutability":"view"},{"type":"function","name":"totalShares","inputs":[],"outputs":[{"name":"","type":"uint256","internalType":"uint256"}],"stateMutability":"view"},{"type":"function","name":"underlyingContest","inputs":[],"outputs":[{"name":"","type":"address","internalType":"contract GovernorCountingSimple"}],"stateMutability":"view"},{"type":"function","name":"version","inputs":[],"outputs":[{"name":"","type":"string","internalType":"string"}],"stateMutability":"pure"},{"type":"function","name":"withdrawRewards","inputs":[{"name":"token","type":"address","internalType":"contract IERC20"}],"outputs":[],"stateMutability":"nonpayable"},{"type":"function","name":"withdrawRewards","inputs":[],"outputs":[],"stateMutability":"nonpayable"},{"type":"event","name":"ERC20PaymentReleased","inputs":[{"name":"token","type":"address","indexed":true,"internalType":"contract IERC20"},{"name":"to","type":"address","indexed":false,"internalType":"address"},{"name":"amount","type":"uint256","indexed":false,"internalType":"uint256"}],"anonymous":false},{"type":"event","name":"ERC20RewardWithdrawn","inputs":[{"name":"token","type":"address","indexed":true,"internalType":"contract IERC20"},{"name":"by","type":"address","indexed":false,"internalType":"address"},{"name":"amount","type":"uint256","indexed":false,"internalType":"uint256"}],"anonymous":false},{"type":"event","name":"PayeeAdded","inputs":[{"name":"ranking","type":"uint256","indexed":false,"internalType":"uint256"},{"name":"shares","type":"uint256","indexed":false,"internalType":"uint256"}],"anonymous":false},{"type":"event","name":"PaymentReceived","inputs":[{"name":"from","type":"address","indexed":false,"internalType":"address"},{"name":"amount","type":"uint256","indexed":false,"internalType":"uint256"}],"anonymous":false},{"type":"event","name":"PaymentReleased","inputs":[{"name":"to","type":"address","indexed":false,"internalType":"address"},{"name":"amount","type":"uint256","indexed":false,"internalType":"uint256"}],"anonymous":false},{"type":"event","name":"RewardWithdrawn","inputs":[{"name":"by","type":"address","indexed":false,"internalType":"address"},{"name":"amount","type":"uint256","indexed":false,"internalType":"uint256"}],"anonymous":false},{"type":"error","name":"AccountAlreadyHasShares","inputs":[]},{"type":"error","name":"AccountNotDueERC20Payment","inputs":[]},{"type":"error","name":"AccountNotDueNativePayment","inputs":[]},{"type":"error","name":"CannotPayOutToZeroAddress","inputs":[]},{"type":"error","name":"CannotReleaseCanceledModule","inputs":[]},{"type":"error","name":"ContestMustBeCompleted","inputs":[]},{"type":"error","name":"MustBeCanceledToWithdraw","inputs":[]},{"type":"error","name":"MustHaveAtLeastOnePayee","inputs":[]},{"type":"error","name":"MustHaveSortingEnabled","inputs":[]},{"type":"error","name":"OnlyCreatorCanWithdraw","inputs":[]},{"type":"error","name":"PayeesSharesLengthMismatch","inputs":[]},{"type":"error","name":"PayoutRankCannotBeZero","inputs":[]},{"type":"error","name":"RankingCannotBeZero","inputs":[]},{"type":"error","name":"RankingHasNoShares","inputs":[]},{"type":"error","name":"SharesCannotBeZero","inputs":[]},{"type":"error","name":"TotalSharesCannotBeZero","inputs":[]}],"bytecode":{"object":"0x608060405260405162001ce538038062001ce58339810160408190526200002691620002ea565b815183511462000049576040516324e23b4160e01b815260040160405180910390fd5b82516000036200006c57604051634c87c40160e01b815260040160405180910390fd5b60005b8351811015620000d857620000c384828151811062000092576200009262000377565b6020026020010151848381518110620000af57620000af62000377565b60200260200101516200012f60201b60201c565b80620000cf81620003a3565b9150506200006f565b50600054600003620000fd576040516306db759b60e21b815260040160405180910390fd5b600980546001600160a01b039092166001600160a01b0319928316179055600a80549091163317905550620003db9050565b81600003620001515760405163d6fbfe2560e01b815260040160405180910390fd5b806000036200017357604051633122bc0960e21b815260040160405180910390fd5b60008281526002602052604090205415620001a157604051637b4f7fb560e01b815260040160405180910390fd5b60088054600181019091557ff3f7a9fe364faab93b216da50a3214154f22a0a2b415b23a84c8169e8b636ee301829055600082815260026020526040812082905554620001f0908290620003bf565b60005560408051838152602081018390527f78bc0e219b874bf2620f7316737ec16d4bda1bb7136961e4dcb5ff0dc031cee4910160405180910390a15050565b634e487b7160e01b600052604160045260246000fd5b600082601f8301126200025857600080fd5b815160206001600160401b038083111562000277576200027762000230565b8260051b604051601f19603f830116810181811084821117156200029f576200029f62000230565b604052938452858101830193838101925087851115620002be57600080fd5b83870191505b84821015620002df57815183529183019190830190620002c4565b979650505050505050565b6000806000606084860312156200030057600080fd5b83516001600160401b03808211156200031857600080fd5b620003268783880162000246565b945060208601519150808211156200033d57600080fd5b506200034c8682870162000246565b604086015190935090506001600160a01b03811681146200036c57600080fd5b809150509250925092565b634e487b7160e01b600052603260045260246000fd5b634e487b7160e01b600052601160045260246000fd5b600060018201620003b857620003b86200038d565b5060010190565b80820180821115620003d557620003d56200038d565b92915050565b6118fa80620003eb6000396000f3fe6080604052600436106101855760003560e01c806363037b0c116100d1578063c71040461161008a578063e33b7de311610064578063e33b7de314610539578063e4bf01a81461054f578063ea8a1af01461056f578063f3f44fb71461059457600080fd5b8063c7104046146104c6578063c7b8981c146104e6578063d75f69b6146104fb57600080fd5b806363037b0c146103fb578063828ce44b1461041b5780638bfb07c914610439578063a94d373b14610459578063af7c4e9314610486578063c020fc7f146104a657600080fd5b80633f9942ff1161013e5780634df2114b116101185780634df2114b1461034457806351f63e351461037c57806354fd4d501461039c57806357a858fc146103ce57600080fd5b80633f9942ff146102bb57806342d86693146102ec5780634b9453381461030c57600080fd5b806302d05d3f146101c95780630357371d146102065780632081d6311461022857806327f38113146102565780633375bbdc146102785780633a98ef39146102a557600080fd5b366101c457604080513381523460208201527f6ef95f06320e7a25a04a175ca677b7052bdd97131872c2192525a629f51be770910160405180910390a1005b600080fd5b3480156101d557600080fd5b50600a546101e9906001600160a01b031681565b6040516001600160a01b0390911681526020015b60405180910390f35b34801561021257600080fd5b50610226610221366004611608565b6105b4565b005b34801561023457600080fd5b50610248610243366004611608565b610708565b6040519081526020016101fd565b34801561026257600080fd5b5061026b6107cf565b6040516101fd9190611634565b34801561028457600080fd5b50610248610293366004611678565b60046020526000908152604090205481565b3480156102b157600080fd5b5061024860005481565b3480156102c757600080fd5b50600a546102dc90600160a01b900460ff1681565b60405190151581526020016101fd565b3480156102f857600080fd5b50610226610307366004611678565b610827565b34801561031857600080fd5b50610248610327366004611608565b600560209081526000928352604080842090915290825290205481565b34801561035057600080fd5b5061024861035f366004611608565b600660209081526000928352604080842090915290825290205481565b34801561038857600080fd5b50610248610397366004611695565b6109b3565b3480156103a857600080fd5b506040805180820182526003815262352e3560e81b602082015290516101fd91906116d2565b3480156103da57600080fd5b506102486103e9366004611695565b60026020526000908152604090205481565b34801561040757600080fd5b50610248610416366004611695565b610b88565b34801561042757600080fd5b506009546001600160a01b03166101e9565b34801561044557600080fd5b50610226610454366004611705565b610ba9565b34801561046557600080fd5b50610248610474366004611695565b60036020526000908152604090205481565b34801561049257600080fd5b506102486104a1366004611746565b610d3c565b3480156104b257600080fd5b506102486104c136600461178c565b610e3c565b3480156104d257600080fd5b506102266104e1366004611695565b610eb7565b3480156104f257600080fd5b50610226611067565b34801561050757600080fd5b50610248610516366004611705565b600760209081526000938452604080852082529284528284209052825290205481565b34801561054557600080fd5b5061024860015481565b34801561055b57600080fd5b5061024861056a366004611695565b61111e565b34801561057b57600080fd5b50610226600a805460ff60a01b1916600160a01b179055565b3480156105a057600080fd5b506009546101e9906001600160a01b031681565b6105bd81610eb7565b60006105c8826109b3565b9050600081156105e2576105dd848484610e3c565b6105eb565b6105eb8361111e565b90508060000361060e57604051631d1514e960e21b815260040160405180910390fd5b806001600082825461062091906117d7565b909155505060008381526003602052604081208054830190558215610680576001600160a01b0385166000908152600660209081526040808320878452909152812080548492906106729084906117d7565b9091555085915061068e9050565b50600a546001600160a01b03165b6001600160a01b0381166106b5576040516346a3c2f960e01b815260040160405180910390fd5b604080516001600160a01b0383168152602081018490527fdf20fd1e76bc69d672e4814fafb2c449bba3a5369d8359adf9e05e6fde87b056910160405180910390a16107018183611156565b5050505050565b6001600160a01b03821660008181526004602081905260408083205490516370a0823160e01b8152309281019290925291928392916370a0823190602401602060405180830381865afa158015610763573d6000803e3d6000fd5b505050506040513d601f19601f8201168201806040525081019061078791906117ea565b61079191906117d7565b6001600160a01b03851660009081526005602090815260408083208784529091529020549091506107c59084908390611279565b9150505b92915050565b6060600880548060200260200160405190810160405280929190818152602001828054801561081d57602002820191906000526020600020905b815481526020019060010190808311610809575b5050505050905090565b600a546001600160a01b0316331461085257604051631eab0da960e01b815260040160405180910390fd5b600a54600160a01b900460ff16151560011461088157604051633871a85960e21b815260040160405180910390fd5b600a546040516370a0823160e01b81523060048201526001600160a01b03838116927f6e5fc1cbd1629d9837bd657d23cf585bbc4e9127184972606cc4c0dd406f75729291169083906370a0823190602401602060405180830381865afa1580156108f0573d6000803e3d6000fd5b505050506040513d601f19601f8201168201806040525081019061091491906117ea565b604080516001600160a01b03909316835260208301919091520160405180910390a2600a546040516370a0823160e01b81523060048201526109b09183916001600160a01b03918216918316906370a0823190602401602060405180830381865afa158015610987573d6000803e3d6000fd5b505050506040513d601f19601f820116820180604052508101906109ab91906117ea565b6112ab565b50565b600954604051630b8e20fb60e31b815260048101839052600091829182916001600160a01b031690635c7107d890602401602060405180830381865afa158015610a01573d6000803e3d6000fd5b505050506040513d601f19601f82011682018060405250810190610a2591906117ea565b60095460405163245d1de360e21b8152600481018390529192506001600160a01b031690639174778c90602401602060405180830381865afa158015610a6f573d6000803e3d6000fd5b505050506040513d601f19601f82011682018060405250810190610a939190611803565b15610aa15760009150610b81565b60095460405163325cc6d960e01b8152600481018390526000916001600160a01b03169063325cc6d990602401602060405180830381865afa158015610aeb573d6000803e3d6000fd5b505050506040513d601f19601f82011682018060405250810190610b0f91906117ea565b60095460405163d576b81d60e01b8152600481018390529192506001600160a01b03169063d576b81d90602401602060405180830381865afa158015610b59573d6000803e3d6000fd5b505050506040513d601f19601f82011682018060405250810190610b7d91906117ea565b9250505b5092915050565b60088181548110610b9857600080fd5b600091825260209091200154905081565b610bb281610eb7565b6000610bbd826109b3565b905060008115610bd857610bd385858585610d3c565b610be2565b610be28584610708565b905080600003610c0557604051635fe559bd60e01b815260040160405180910390fd5b6001600160a01b03851660009081526004602052604081208054839290610c2d9084906117d7565b90915550506001600160a01b038516600090815260056020908152604080832086845290915281208054830190558215610cae576001600160a01b038087166000908152600760209081526040808320938916835292815282822087835290529081208054849290610ca09084906117d7565b90915550859150610cbc9050565b50600a546001600160a01b03165b6001600160a01b038116610ce3576040516346a3c2f960e01b815260040160405180910390fd5b604080516001600160a01b038381168252602082018590528816917f3be5b7a71e84ed12875d241991c70855ac5817d847039e17a9d895c1ceb0f18a910160405180910390a2610d348682846112ab565b505050505050565b6001600160a01b03841660008181526004602081905260408083205490516370a0823160e01b8152309281019290925291928392916370a0823190602401602060405180830381865afa158015610d97573d6000803e3d6000fd5b505050506040513d601f19601f82011682018060405250810190610dbb91906117ea565b610dc591906117d7565b60008054868252600260205260408220549293509091610de59084611825565b610def919061183c565b6001600160a01b038089166000908152600760209081526040808320938b16835292815282822089835290522054909150610e2f908790869084906112fd565b925050505b949350505050565b60008060015447610e4d91906117d7565b60008054868252600260205260408220549293509091610e6d9084611825565b610e77919061183c565b6001600160a01b0387166000908152600660209081526040808320898452909152902054909150610ead908790869084906112fd565b9695505050505050565b600960009054906101000a90046001600160a01b03166001600160a01b031663366ecf5b6040518163ffffffff1660e01b8152600401602060405180830381865afa158015610f0a573d6000803e3d6000fd5b505050506040513d601f19601f82011682018060405250810190610f2e91906117ea565b600114610f4e57604051630fcdfffd60e41b815260040160405180910390fd5b6009546040805163c19d93fb60e01b815290516004926001600160a01b03169163c19d93fb918185019160209190819003860181865afa158015610f96573d6000803e3d6000fd5b505050506040513d601f19601f82011682018060405250810190610fba9190611874565b6004811115610fcb57610fcb61185e565b14610fe957604051639c2d4c7960e01b815260040160405180910390fd5b8060000361100a5760405163f9668e2960e01b815260040160405180910390fd5b600081815260026020526040812054900361103857604051632534bdfb60e11b815260040160405180910390fd5b600a54600160a01b900460ff1615156001036109b05760405163e2f87cff60e01b815260040160405180910390fd5b600a546001600160a01b0316331461109257604051631eab0da960e01b815260040160405180910390fd5b600a54600160a01b900460ff1615156001146110c157604051633871a85960e21b815260040160405180910390fd5b600a54604080516001600160a01b0390921682524760208301527f1d3eee4ca001cff39eec6ec7615aacf2f2bd61791273830728ba00ccbd6e1337910160405180910390a1600a5461111c906001600160a01b031647611156565b565b6000806001544761112f91906117d7565b905061114f83826003600087815260200190815260200160002054611279565b9392505050565b804710156111ab5760405162461bcd60e51b815260206004820152601d60248201527f416464726573733a20696e73756666696369656e742062616c616e636500000060448201526064015b60405180910390fd5b6000826001600160a01b03168260405160006040518083038185875af1925050503d80600081146111f8576040519150601f19603f3d011682016040523d82523d6000602084013e6111fd565b606091505b50509050806112745760405162461bcd60e51b815260206004820152603a60248201527f416464726573733a20756e61626c6520746f2073656e642076616c75652c207260448201527f6563697069656e74206d6179206861766520726576657274656400000000000060648201526084016111a2565b505050565b60008054848252600260205260408220548391906112979086611825565b6112a1919061183c565b610e349190611895565b604080516001600160a01b038416602482015260448082018490528251808303909101815260649091019091526020810180516001600160e01b031663a9059cbb60e01b17905261127490849061140b565b600954604051631513ff2760e21b81526004810185905260009183916001600160a01b039091169063544ffc9c90602401602060405180830381865afa15801561134b573d6000803e3d6000fd5b505050506040513d601f19601f8201168201806040525081019061136f91906117ea565b6009546040516306e4eb8160e41b8152600481018890526001600160a01b03898116602483015290911690636e4eb81090604401602060405180830381865afa1580156113c0573d6000803e3d6000fd5b505050506040513d601f19601f820116820180604052508101906113e491906117ea565b6113ee9086611825565b6113f8919061183c565b6114029190611895565b95945050505050565b6000611460826040518060400160405280602081526020017f5361666545524332303a206c6f772d6c6576656c2063616c6c206661696c6564815250856001600160a01b03166114e09092919063ffffffff16565b90508051600014806114815750808060200190518101906114819190611803565b6112745760405162461bcd60e51b815260206004820152602a60248201527f5361666545524332303a204552433230206f7065726174696f6e20646964206e6044820152691bdd081cdd58d8d9595960b21b60648201526084016111a2565b6060610e34848460008585600080866001600160a01b0316858760405161150791906118a8565b60006040518083038185875af1925050503d8060008114611544576040519150601f19603f3d011682016040523d82523d6000602084013e611549565b606091505b5091509150610e2f87838387606083156115c45782516000036115bd576001600160a01b0385163b6115bd5760405162461bcd60e51b815260206004820152601d60248201527f416464726573733a2063616c6c20746f206e6f6e2d636f6e747261637400000060448201526064016111a2565b5081610e34565b610e3483838151156115d95781518083602001fd5b8060405162461bcd60e51b81526004016111a291906116d2565b6001600160a01b03811681146109b057600080fd5b6000806040838503121561161b57600080fd5b8235611626816115f3565b946020939093013593505050565b6020808252825182820181905260009190848201906040850190845b8181101561166c57835183529284019291840191600101611650565b50909695505050505050565b60006020828403121561168a57600080fd5b813561114f816115f3565b6000602082840312156116a757600080fd5b5035919050565b60005b838110156116c95781810151838201526020016116b1565b50506000910152565b60208152600082518060208401526116f18160408501602087016116ae565b601f01601f19169190910160400192915050565b60008060006060848603121561171a57600080fd5b8335611725816115f3565b92506020840135611735816115f3565b929592945050506040919091013590565b6000806000806080858703121561175c57600080fd5b8435611767816115f3565b93506020850135611777816115f3565b93969395505050506040820135916060013590565b6000806000606084860312156117a157600080fd5b83356117ac816115f3565b95602085013595506040909401359392505050565b634e487b7160e01b600052601160045260246000fd5b808201808211156107c9576107c96117c1565b6000602082840312156117fc57600080fd5b5051919050565b60006020828403121561181557600080fd5b8151801515811461114f57600080fd5b80820281158282048414176107c9576107c96117c1565b60008261185957634e487b7160e01b600052601260045260246000fd5b500490565b634e487b7160e01b600052602160045260246000fd5b60006020828403121561188657600080fd5b81516005811061114f57600080fd5b818103818111156107c9576107c96117c1565b600082516118ba8184602087016116ae565b919091019291505056fea26469706673582212201837cda53e160834b332929b372f3b466d8171a03dd2698f43d6dba55f4f4b0164736f6c63430008130033","linkReferences":{}},"methodIdentifiers":{"cancel()":"ea8a1af0","canceled()":"3f9942ff","creator()":"02d05d3f","erc20Released(address,uint256)":"4b945338","erc20ReleasedToVoter(address,address,uint256)":"d75f69b6","erc20TotalReleased(address)":"3375bbdc","getPayees()":"27f38113","getProposalIdOfRanking(uint256)":"51f63e35","getUnderlyingContest()":"828ce44b","payees(uint256)":"63037b0c","releasable(address,uint256)":"2081d631","releasable(uint256)":"e4bf01a8","releasableToVoter(address,address,uint256,uint256)":"af7c4e93","releasableToVoter(address,uint256,uint256)":"c020fc7f","release(address,address,uint256)":"8bfb07c9","release(address,uint256)":"0357371d","released(uint256)":"a94d373b","releasedToVoter(address,uint256)":"4df2114b","runReleaseChecks(uint256)":"c7104046","shares(uint256)":"57a858fc","totalReleased()":"e33b7de3","totalShares()":"3a98ef39","underlyingContest()":"f3f44fb7","version()":"54fd4d50","withdrawRewards()":"c7b8981c","withdrawRewards(address)":"42d86693"},"id":42}